{
    "balance_change": {
        "balanceChanges": []
    },
    "profile": {
        "basic_info": {
            "baseFee": "8.589432385",
            "blockNumber": 20228849,
            "callData": "0x095ea7b3000000000000000000000000422f5accc812c396600010f224b320a743695f850000000000000000000000000000000000000000000000000371c2801e2dac00",
            "debugEnable": true,
            "errorInfo": "",
            "eventCount": 1,
            "feeRecipient": "0x4838b106fce9647bdf1e7877bf73ce8b0bad5f97",
            "formatValue": "0",
            "gasLimit": 60832,
            "gasPrice": "9.720884248",
            "gasUsed": 60011,
            "intTxnCount": 1,
            "internalRevert": false,
            "internalRevertMessage": "",
            "isContractCreation": false,
            "isFlashloan": false,
            "maxFee": "12.05214306",
            "nonce": 15,
            "overwritedBlockNumber": -1,
            "priorityFee": "1.131451863",
            "receiver": "0xa2e3356610840701bdf5611a53974510ae27e2e1",
            "revertMessage": "",
            "sender": "0xd6f7a0153d1486ffa70c34fdb4275be4745d65cb",
            "simulationEnable": true,
            "sourceTxnHash": "0x2f52882b8a652a05161a15ba27dbb5c2067a3b43b41dffd1471369b938f2ca3a",
            "status": true,
            "timestamp": "2024-07-03T22:04:11Z",
            "transactionFee": "0.000583359984606728",
            "txnHash": "0x2f52882b8a652a05161a15ba27dbb5c2067a3b43b41dffd1471369b938f2ca3a",
            "txnIndex": 81,
            "type": 2,
            "value": "0"
        },
        "fund_flow": [],
        "token_infos": [
            {
                "address": "0xc02aaa39b223fe8d0a0e5c4f27ead9083c756cc2",
                "decimals": 18
            },
            {
                "address": "0xeeeeeeeeeeeeeeeeeeeeeeeeeeeeeeeeeeeeeeee",
                "decimals": 18
            }
        ]
    },
    "address_label": {
        "labels": [
            {
                "address": "0x0000000000000000000000000000000000000002",
                "label": "Precompiled"
            },
            {
                "address": "0x0000000000000000000000000000000000000003",
                "label": "Precompiled"
            },
            {
                "address": "0x0000000000000000000000000000000000000004",
                "label": "Precompiled"
            },
            {
                "address": "0xeeeeeeeeeeeeeeeeeeeeeeeeeeeeeeeeeeeeeeee",
                "label": "Ether"
            },
            {
                "address": "0xfe928a7d8be9c8cece7e97f0ed5704f4fa2cb42a",
                "label": "WrapTokenV2ETH"
            },
            {
                "address": "0x422f5accc812c396600010f224b320a743695f85",
                "label": "Symbiotic: Default Collateral wBETH"
            },
            {
                "address": "0xa2e3356610840701bdf5611a53974510ae27e2e1",
                "label": "Binance: wBETH Token"
            },
            {
                "address": "0x0000000000000000000000000000000000000001",
                "label": "Precompiled"
            }
        ]
    },
    "trace": {
        "accountLabels": null,
        "dataMap": {
            "-1": {
                "invocation": {
                    "address": "0xd6f7a0153d1486ffa70c34fdb4275be4745d65cb",
                    "callData": "",
                    "decodedMethod": null,
                    "errorInfo": "",
                    "fromAddress": "",
                    "gasUsed": 0,
                    "id": -1,
                    "methodDecoded": false,
                    "operation": "",
                    "output": "",
                    "revert": false,
                    "revertMessage": "",
                    "selector": "",
                    "status": false,
                    "value": ""
                },
                "nodeType": 0
            },
            "0": {
                "invocation": {
                    "address": "0xa2e3356610840701bdf5611a53974510ae27e2e1",
                    "callData": "0x000000000000000000000000422f5accc812c396600010f224b320a743695f850000000000000000000000000000000000000000000000000371c2801e2dac00",
                    "decodedMethod": {
                        "callParams": [
                            {
                                "name": "spender",
                                "type": "address",
                                "value": "0x422f5accc812c396600010f224b320a743695f85"
                            },
                            {
                                "decimalAvailable": true,
                                "name": "value",
                                "type": "uint256",
                                "value": "248,193,310,000,000,000"
                            }
                        ],
                        "constructorArguments": "",
                        "name": "approve",
                        "returnParams": [
                            {
                                "name": "",
                                "type": "bool",
                                "value": true
                            }
                        ],
                        "signature": "approve(address,uint256)"
                    },
                    "errorInfo": "",
                    "fromAddress": "0xd6f7a0153d1486ffa70c34fdb4275be4745d65cb",
                    "gasUsed": 60011,
                    "id": 0,
                    "methodDecoded": true,
                    "operation": "CALL",
                    "output": "0x0000000000000000000000000000000000000000000000000000000000000001",
                    "revert": false,
                    "revertMessage": "",
                    "selector": "0x095ea7b3",
                    "status": true,
                    "value": "0"
                },
                "nodeType": 0
            },
            "1": {
                "invocation": {
                    "address": "0xfe928a7d8be9c8cece7e97f0ed5704f4fa2cb42a",
                    "callData": "0x000000000000000000000000422f5accc812c396600010f224b320a743695f850000000000000000000000000000000000000000000000000371c2801e2dac00",
                    "decodedMethod": {
                        "callParams": [
                            {
                                "name": "spender",
                                "type": "address",
                                "value": "0x422f5accc812c396600010f224b320a743695f85"
                            },
                            {
                                "decimalAvailable": true,
                                "name": "value",
                                "type": "uint256",
                                "value": "248,193,310,000,000,000"
                            }
                        ],
                        "constructorArguments": "",
                        "name": "approve",
                        "returnParams": [
                            {
                                "name": "",
                                "type": "bool",
                                "value": true
                            }
                        ],
                        "signature": "approve(address,uint256)"
                    },
                    "errorInfo": "",
                    "fromAddress": "0xa2e3356610840701bdf5611a53974510ae27e2e1",
                    "gasUsed": 31144,
                    "id": 1,
                    "methodDecoded": true,
                    "operation": "DELEGATECALL",
                    "output": "0x0000000000000000000000000000000000000000000000000000000000000001",
                    "revert": false,
                    "revertMessage": "",
                    "selector": "0x095ea7b3",
                    "status": true,
                    "value": "0"
                },
                "nodeType": 0
            },
            "2": {
                "event": {
                    "contract": "0xa2e3356610840701bdf5611a53974510ae27e2e1",
                    "decodedLog": {
                        "name": "Approval",
                        "params": [
                            {
                                "name": "owner",
                                "type": "address",
                                "value": "0xd6f7a0153d1486ffa70c34fdb4275be4745d65cb"
                            },
                            {
                                "name": "spender",
                                "type": "address",
                                "value": "0x422f5accc812c396600010f224b320a743695f85"
                            },
                            {
                                "decimalAvailable": true,
                                "name": "value",
                                "type": "uint256",
                                "value": "248,193,310,000,000,000"
                            }
                        ],
                        "signature": "Approval(address,address,uint256)"
                    },
                    "id": 2,
                    "logData": "0x0000000000000000000000000000000000000000000000000371c2801e2dac00",
                    "logDecoded": true,
                    "operation": "EVENT",
                    "revert": false,
                    "status": true,
                    "topics": [
                        "0x8c5be1e5ebec7d5bd14f71427d1e84f3dd0314c0f7b2291e5b200ac8c7c3b925",
                        "0x000000000000000000000000d6f7a0153d1486ffa70c34fdb4275be4745d65cb",
                        "0x000000000000000000000000422f5accc812c396600010f224b320a743695f85"
                    ]
                },
                "nodeType": 1
            }
        },
        "gasFlame": [
            {
                "children": [
                    {
                        "children": [
                            {
                                "children": [],
                                "depth": 0,
                                "name": "Initial Gas",
                                "value": 21632
                            },
                            {
                                "children": [
                                    {
                                        "children": [],
                                        "depth": 1,
                                        "name": "approve",
                                        "value": 31144
                                    }
                                ],
                                "depth": 0,
                                "name": "Executed Gas",
                                "value": 38379
                            }
                        ],
                        "depth": -1,
                        "name": "Actual Gas Used",
                        "value": 60011
                    },
                    {
                        "children": [],
                        "depth": -1,
                        "name": "Refunded Gas",
                        "value": 0
                    }
                ],
                "depth": -2,
                "name": "Total Gas",
                "value": 60011
            }
        ],
        "isConfirmed": true,
        "mainTrace": [
            {
                "children": [
                    {
                        "children": [
                            {
                                "children": [
                                    {
                                        "children": [],
                                        "depth": 2,
                                        "id": 2,
                                        "order": 2
                                    }
                                ],
                                "depth": 1,
                                "id": 1,
                                "order": 1
                            }
                        ],
                        "depth": 0,
                        "id": 0,
                        "order": 0
                    }
                ],
                "depth": -1,
                "id": -1,
                "order": -1
            }
        ],
        "mainTraceNodeCount": 3,
        "parentIdMap": {
            "0": -1,
            "1": 0,
            "2": 1
        },
        "tidyTrace": [
            {
                "children": [
                    {
                        "children": [
                            {
                                "children": [
                                    {
                                        "children": [],
                                        "depth": 2,
                                        "id": 2,
                                        "order": 2
                                    }
                                ],
                                "depth": 1,
                                "id": 1,
                                "order": 1
                            }
                        ],
                        "depth": 0,
                        "id": 0,
                        "order": 0
                    }
                ],
                "depth": -1,
                "id": -1,
                "order": -1
            }
        ],
        "tidyTraceNodeCount": 3
    },
    "state_change": {
        "stateChanges": [
            {
                "address": "0xa2e3356610840701bdf5611a53974510ae27e2e1",
                "erc": "ERC-20",
                "slots": [
                    {
                        "current": "0x0000000000000000000000000000000000000000000000000371c2801e2dac00",
                        "key": "0xac0738101b8be8e7922ccb65913c1a45343820534bb51621a15f89acda8900d0",
                        "prev": "0x0000000000000000000000000000000000000000000000000000000000000000"
                    }
                ],
                "storageVariables": [
                    {
                        "name": "allowed",
                        "type": "mapping(address => mapping(address => uint256))",
                        "value": {
                            "pairs": [
                                {
                                    "key": "0xd6f7a0153d1486ffa70c34fdb4275be4745d65cb",
                                    "value": {
                                        "pairs": [
                                            {
                                                "key": "0x422f5accc812c396600010f224b320a743695f85",
                                                "value": {
                                                    "current": "248193310000000000",
                                                    "prev": "0",
                                                    "typeTag": 1
                                                }
                                            }
                                        ],
                                        "typeTag": 4
                                    }
                                }
                            ],
                            "typeTag": 4
                        }
                    }
                ]
            }
        ]
    }
}