{
    "balance_change": {
        "balanceChanges": [
            {
                "account": "0x9a8c4bdcd75cfa1059a6e453ac5ce9d3f5c82a35",
                "assets": [
                    {
                        "address": "0x4e15361fd6b4bb609fa63c81a2be19d873717870",
                        "amount": "10,239.74076063635",
                        "iconUrl": "https://assets.blocksec.com/icon/9dc865bcb4118c13fcedeedd317aad70978cb82ea4b24aab6f8d2531165fd982.png",
                        "isERC1155": false,
                        "isERC721": false,
                        "sign": false,
                        "value": "201.3385407"
                    }
                ]
            },
            {
                "account": "0x3f4b82ddd292737b612f43792a7e488bcd7dc1c7",
                "assets": [
                    {
                        "address": "0x4e15361fd6b4bb609fa63c81a2be19d873717870",
                        "amount": "10,239.74076063635",
                        "iconUrl": "https://assets.blocksec.com/icon/9dc865bcb4118c13fcedeedd317aad70978cb82ea4b24aab6f8d2531165fd982.png",
                        "isERC1155": false,
                        "isERC721": false,
                        "sign": true,
                        "value": "201.3385407"
                    }
                ]
            }
        ]
    },
    "profile": {
        "basic_info": {
            "baseFee": "",
            "blockNumber": 11312438,
            "callData": "0xa9059cbb0000000000000000000000003f4b82ddd292737b612f43792a7e488bcd7dc1c700000000000000000000000000000000000000000000022b18f31153b9d7eb80",
            "debugEnable": true,
            "errorInfo": "",
            "eventCount": 1,
            "feeRecipient": "0x04668ec2f57cc15c381b461b9fedab5d451c8f7f",
            "formatValue": "0",
            "gasLimit": 60000,
            "gasPrice": "54",
            "gasUsed": 55103,
            "intTxnCount": 0,
            "internalRevert": false,
            "internalRevertMessage": "",
            "isContractCreation": false,
            "isFlashloan": false,
            "maxFee": "",
            "nonce": 5484,
            "overwritedBlockNumber": -1,
            "priorityFee": "",
            "receiver": "0x4e15361fd6b4bb609fa63c81a2be19d873717870",
            "revertMessage": "",
            "sender": "0x9a8c4bdcd75cfa1059a6e453ac5ce9d3f5c82a35",
            "simulationEnable": true,
            "sourceTxnHash": "0x30bd21a4d043080da9ea50b7fe500492ae5fc25929e74ae84fe8fa3425a5de25",
            "status": true,
            "timestamp": "2020-11-23T04:50:45Z",
            "transactionFee": "0.002975562",
            "txnHash": "0x30bd21a4d043080da9ea50b7fe500492ae5fc25929e74ae84fe8fa3425a5de25",
            "txnIndex": 68,
            "type": 0,
            "value": "0"
        },
        "fund_flow": [
            {
                "amount": "10,239.74076063635",
                "from": "0x9a8c4bdcd75cfa1059a6e453ac5ce9d3f5c82a35",
                "id": 1,
                "isERC1155": false,
                "isERC721": false,
                "isReverted": false,
                "order": 1,
                "to": "0x3f4b82ddd292737b612f43792a7e488bcd7dc1c7",
                "token": "0x4e15361fd6b4bb609fa63c81a2be19d873717870"
            }
        ],
        "token_infos": [
            {
                "address": "0x4e15361fd6b4bb609fa63c81a2be19d873717870",
                "decimals": 18
            },
            {
                "address": "0xc02aaa39b223fe8d0a0e5c4f27ead9083c756cc2",
                "decimals": 18
            },
            {
                "address": "0xeeeeeeeeeeeeeeeeeeeeeeeeeeeeeeeeeeeeeeee",
                "decimals": 18
            }
        ]
    },
    "address_label": {
        "labels": [
            {
                "address": "0x0000000000000000000000000000000000000004",
                "label": "Precompiled"
            },
            {
                "address": "0xeeeeeeeeeeeeeeeeeeeeeeeeeeeeeeeeeeeeeeee",
                "label": "Ether"
            },
            {
                "address": "0x3f4b82ddd292737b612f43792a7e488bcd7dc1c7",
                "label": "BINANCE"
            },
            {
                "address": "0x4e15361fd6b4bb609fa63c81a2be19d873717870",
                "label": "Fantom: FTM Token"
            },
            {
                "address": "0x9a8c4bdcd75cfa1059a6e453ac5ce9d3f5c82a35",
                "label": "Fantom: Bridge"
            },
            {
                "address": "0x0000000000000000000000000000000000000001",
                "label": "Precompiled"
            },
            {
                "address": "0x0000000000000000000000000000000000000002",
                "label": "Precompiled"
            },
            {
                "address": "0x0000000000000000000000000000000000000003",
                "label": "Precompiled"
            }
        ]
    },
    "trace": {
        "accountLabels": null,
        "dataMap": {
            "-1": {
                "invocation": {
                    "address": "0x9a8c4bdcd75cfa1059a6e453ac5ce9d3f5c82a35",
                    "callData": "",
                    "decodedMethod": null,
                    "errorInfo": "",
                    "fromAddress": "",
                    "gasUsed": 0,
                    "id": -1,
                    "methodDecoded": false,
                    "operation": "",
                    "output": "",
                    "revert": false,
                    "revertMessage": "",
                    "selector": "",
                    "status": false,
                    "value": ""
                },
                "nodeType": 0
            },
            "0": {
                "invocation": {
                    "address": "0x4e15361fd6b4bb609fa63c81a2be19d873717870",
                    "callData": "0x0000000000000000000000003f4b82ddd292737b612f43792a7e488bcd7dc1c700000000000000000000000000000000000000000000022b18f31153b9d7eb80",
                    "decodedMethod": {
                        "callParams": [
                            {
                                "name": "_to",
                                "type": "address",
                                "value": "0x3f4b82ddd292737b612f43792a7e488bcd7dc1c7"
                            },
                            {
                                "decimalAvailable": true,
                                "name": "_amount",
                                "type": "uint256",
                                "value": "10,239,740,760,636,350,000,000"
                            }
                        ],
                        "constructorArguments": "",
                        "name": "transfer",
                        "returnParams": [
                            {
                                "name": "success",
                                "type": "bool",
                                "value": true
                            }
                        ],
                        "signature": "transfer(address,uint256)"
                    },
                    "errorInfo": "",
                    "fromAddress": "0x9a8c4bdcd75cfa1059a6e453ac5ce9d3f5c82a35",
                    "gasUsed": 55103,
                    "id": 0,
                    "methodDecoded": true,
                    "operation": "CALL",
                    "output": "0x0000000000000000000000000000000000000000000000000000000000000001",
                    "revert": false,
                    "revertMessage": "",
                    "selector": "0xa9059cbb",
                    "status": true,
                    "value": "0"
                },
                "nodeType": 0
            },
            "1": {
                "event": {
                    "contract": "0x4e15361fd6b4bb609fa63c81a2be19d873717870",
                    "decodedLog": {
                        "name": "Transfer",
                        "params": [
                            {
                                "name": "_from",
                                "type": "address",
                                "value": "0x9a8c4bdcd75cfa1059a6e453ac5ce9d3f5c82a35"
                            },
                            {
                                "name": "_to",
                                "type": "address",
                                "value": "0x3f4b82ddd292737b612f43792a7e488bcd7dc1c7"
                            },
                            {
                                "decimalAvailable": true,
                                "name": "_value",
                                "type": "uint256",
                                "value": "10,239,740,760,636,350,000,000"
                            }
                        ],
                        "signature": "Transfer(address,address,uint256)"
                    },
                    "id": 1,
                    "logData": "0x00000000000000000000000000000000000000000000022b18f31153b9d7eb80",
                    "logDecoded": true,
                    "operation": "EVENT",
                    "revert": false,
                    "status": true,
                    "topics": [
                        "0xddf252ad1be2c89b69c2b068fc378daa952ba7f163c4a11628f55a4df523b3ef",
                        "0x0000000000000000000000009a8c4bdcd75cfa1059a6e453ac5ce9d3f5c82a35",
                        "0x0000000000000000000000003f4b82ddd292737b612f43792a7e488bcd7dc1c7"
                    ]
                },
                "nodeType": 1
            }
        },
        "gasFlame": [
            {
                "children": [
                    {
                        "children": [
                            {
                                "children": [],
                                "depth": 0,
                                "name": "Initial Gas",
                                "value": 21680
                            },
                            {
                                "children": [],
                                "depth": 0,
                                "name": "Executed Gas",
                                "value": 33423
                            }
                        ],
                        "depth": -1,
                        "name": "Actual Gas Used",
                        "value": 55103
                    },
                    {
                        "children": [],
                        "depth": -1,
                        "name": "Refunded Gas",
                        "value": 0
                    }
                ],
                "depth": -2,
                "name": "Total Gas",
                "value": 55103
            }
        ],
        "isConfirmed": true,
        "mainTrace": [
            {
                "children": [
                    {
                        "children": [
                            {
                                "children": [],
                                "depth": 1,
                                "id": 1,
                                "order": 1
                            }
                        ],
                        "depth": 0,
                        "id": 0,
                        "order": 0
                    }
                ],
                "depth": -1,
                "id": -1,
                "order": -1
            }
        ],
        "mainTraceNodeCount": 2,
        "parentIdMap": {
            "0": -1,
            "1": 0
        },
        "tidyTrace": [
            {
                "children": [
                    {
                        "children": [
                            {
                                "children": [],
                                "depth": 1,
                                "id": 1,
                                "order": 1
                            }
                        ],
                        "depth": 0,
                        "id": 0,
                        "order": 0
                    }
                ],
                "depth": -1,
                "id": -1,
                "order": -1
            }
        ],
        "tidyTraceNodeCount": 2
    },
    "state_change": {
        "stateChanges": [
            {
                "address": "0x4e15361fd6b4bb609fa63c81a2be19d873717870",
                "erc": "ERC-20",
                "slots": [
                    {
                        "current": "0x000000000000000000000000000000000000000000031615dbfcd5305e3b29fe",
                        "key": "0xdeb6721138ce7b549921550af90e0ef6c84594a5892d93c314fb8c407e21a034",
                        "prev": "0x000000000000000000000000000000000000000000031840f4efe6841813157e"
                    },
                    {
                        "current": "0x00000000000000000000000000000000000000000000022b18f31153b9d7eb80",
                        "key": "0x7fb99ed93004d35ae8c498f9e9e089718e036b885e50c5516b4f5890ab20c1c6",
                        "prev": "0x0000000000000000000000000000000000000000000000000000000000000000"
                    }
                ],
                "storageVariables": [
                    {
                        "name": "balances",
                        "type": "mapping(address => uint256)",
                        "value": {
                            "pairs": [
                                {
                                    "key": "0x3f4b82ddd292737b612f43792a7e488bcd7dc1c7",
                                    "value": {
                                        "current": "10239740760636350000000",
                                        "prev": "0",
                                        "typeTag": 1
                                    }
                                },
                                {
                                    "key": "0x9a8c4bdcd75cfa1059a6e453ac5ce9d3f5c82a35",
                                    "value": {
                                        "current": "3731072754871759772789246",
                                        "prev": "3741312495632396122789246",
                                        "typeTag": 1
                                    }
                                }
                            ],
                            "typeTag": 4
                        }
                    }
                ]
            }
        ]
    }
}