{
    "balance_change": {
        "balanceChanges": [
            {
                "account": "0x6fb9664030b53afbc1605ea986a012dc345aa21b",
                "assets": [
                    {
                        "address": "0x2260fac5e5542a773aa44fbcfedf7c193bc2c599",
                        "amount": "0.042",
                        "iconUrl": "https://assets.blocksec.com/icon/878f2983cb21c5816eb5879d9b6f7a3fe2eb6fce7560c367a0315527852a8a84.png",
                        "isERC1155": false,
                        "isERC721": false,
                        "sign": false,
                        "value": "830.45718"
                    },
                    {
                        "address": "0xa0b86991c6218b36c1d19d4a2e9eb0ce3606eb48",
                        "amount": "826.564295",
                        "iconUrl": "https://assets.blocksec.com/icon/0347a86cc07dbd03fdc5db01a4e5ac7e1217f90e0b6e4bb0f75cbcca09160989.png",
                        "isERC1155": false,
                        "isERC721": false,
                        "sign": true,
                        "value": "827.45285161712494804"
                    }
                ]
            },
            {
                "account": "0x004375dff511095cc5a197a54140a24efef3a416",
                "assets": [
                    {
                        "address": "0x2260fac5e5542a773aa44fbcfedf7c193bc2c599",
                        "amount": "0.042",
                        "iconUrl": "https://assets.blocksec.com/icon/878f2983cb21c5816eb5879d9b6f7a3fe2eb6fce7560c367a0315527852a8a84.png",
                        "isERC1155": false,
                        "isERC721": false,
                        "sign": true,
                        "value": "830.45718"
                    },
                    {
                        "address": "0xa0b86991c6218b36c1d19d4a2e9eb0ce3606eb48",
                        "amount": "826.564295",
                        "iconUrl": "https://assets.blocksec.com/icon/0347a86cc07dbd03fdc5db01a4e5ac7e1217f90e0b6e4bb0f75cbcca09160989.png",
                        "isERC1155": false,
                        "isERC721": false,
                        "sign": false,
                        "value": "827.45285161712494804"
                    }
                ]
            }
        ]
    },
    "profile": {
        "basic_info": {
            "baseFee": "13.269877125",
            "blockNumber": 15127688,
            "callData": "0x0b86a4c10000000000000000000000002260fac5e5542a773aa44fbcfedf7c193bc2c59900000000000000000000000000000000000000000000000000000000004016400000000000000000000000000000000000000000000000000000000031054ef1000000000000000000000000000000000000000000000000000000000000000000000000000000000000000000000000000000000000000000000000000000a00000000000000000000000000000000000000000000000000000000000000001000000000000000000004de4004375dff511095cc5a197a54140a24efef3a416",
            "debugEnable": true,
            "errorInfo": "",
            "eventCount": 4,
            "feeRecipient": "0x03e75d7dd38cce2e20ffee35ec914c57780a8e29",
            "formatValue": "0",
            "gasLimit": 168527,
            "gasPrice": "14.859877125",
            "gasUsed": 124801,
            "intTxnCount": 10,
            "internalRevert": false,
            "internalRevertMessage": "",
            "isContractCreation": false,
            "isFlashloan": false,
            "maxFee": "19.84",
            "nonce": 91,
            "overwritedBlockNumber": -1,
            "priorityFee": "1.59",
            "receiver": "0xdef171fe48cf0115b1d80b88dc8eab59176fee57",
            "revertMessage": "",
            "sender": "0x6fb9664030b53afbc1605ea986a012dc345aa21b",
            "simulationEnable": true,
            "sourceTxnHash": "0x30d7ebfcabdedef998d63a6054ae94ffdb968f3c7edef35d7ac85f097397808c",
            "status": true,
            "timestamp": "2022-07-12T12:00:51Z",
            "transactionFee": "0.001854527525077125",
            "txnHash": "0x30d7ebfcabdedef998d63a6054ae94ffdb968f3c7edef35d7ac85f097397808c",
            "txnIndex": 288,
            "type": 2,
            "value": "0"
        },
        "fund_flow": [
            {
                "amount": "0.042",
                "from": "0x6fb9664030b53afbc1605ea986a012dc345aa21b",
                "id": 1,
                "isERC1155": false,
                "isERC721": false,
                "isReverted": false,
                "order": 1,
                "to": "0x004375dff511095cc5a197a54140a24efef3a416",
                "token": "0x2260fac5e5542a773aa44fbcfedf7c193bc2c599"
            },
            {
                "amount": "826.564295",
                "from": "0x004375dff511095cc5a197a54140a24efef3a416",
                "id": 2,
                "isERC1155": false,
                "isERC721": false,
                "isReverted": false,
                "order": 2,
                "to": "0x6fb9664030b53afbc1605ea986a012dc345aa21b",
                "token": "0xa0b86991c6218b36c1d19d4a2e9eb0ce3606eb48"
            }
        ],
        "token_infos": [
            {
                "address": "0xeeeeeeeeeeeeeeeeeeeeeeeeeeeeeeeeeeeeeeee",
                "decimals": 18
            },
            {
                "address": "0x2260fac5e5542a773aa44fbcfedf7c193bc2c599",
                "decimals": 8
            },
            {
                "address": "0xa0b86991c6218b36c1d19d4a2e9eb0ce3606eb48",
                "decimals": 6
            },
            {
                "address": "0xc02aaa39b223fe8d0a0e5c4f27ead9083c756cc2",
                "decimals": 18
            }
        ]
    },
    "address_label": {
        "labels": [
            {
                "address": "0x216b4b4ba9f3e719726886d34a177484278bfcae",
                "label": "Paraswap v5: Token Transfer Proxy Mainnet"
            },
            {
                "address": "0xdef171fe48cf0115b1d80b88dc8eab59176fee57",
                "label": "Paraswap v5: Augustus Swapper Mainnet"
            },
            {
                "address": "0x0000000000000000000000000000000000000004",
                "label": "Precompiled"
            },
            {
                "address": "0xa0b86991c6218b36c1d19d4a2e9eb0ce3606eb48",
                "label": "Circle: USDC Token"
            },
            {
                "address": "0x0000000000000000000000000000000000000001",
                "label": "Precompiled"
            },
            {
                "address": "0x0000000000000000000000000000000000000002",
                "label": "Precompiled"
            },
            {
                "address": "0x4ff0dec5f9a763aa1e5c2a962aa6f4edfee4f9ea",
                "label": "NewUniswapV2Router"
            },
            {
                "address": "0x0000000000000000000000000000000000000000",
                "label": "Null Address"
            },
            {
                "address": "0x004375dff511095cc5a197a54140a24efef3a416",
                "label": "Uniswap V2: WBTC-USDC"
            },
            {
                "address": "0xa2327a938febf5fec13bacfb16ae10ecbc4cbdcf",
                "label": "FiatTokenV2_1"
            },
            {
                "address": "0x0000000000000000000000000000000000000003",
                "label": "Precompiled"
            },
            {
                "address": "0xeeeeeeeeeeeeeeeeeeeeeeeeeeeeeeeeeeeeeeee",
                "label": "Ether"
            },
            {
                "address": "0x2260fac5e5542a773aa44fbcfedf7c193bc2c599",
                "label": "Wrapped BTC: WBTC Token"
            }
        ]
    },
    "trace": {
        "accountLabels": null,
        "dataMap": {
            "-1": {
                "invocation": {
                    "address": "0x6fb9664030b53afbc1605ea986a012dc345aa21b",
                    "callData": "",
                    "decodedMethod": null,
                    "errorInfo": "",
                    "fromAddress": "",
                    "gasUsed": 0,
                    "id": -1,
                    "methodDecoded": false,
                    "operation": "",
                    "output": "",
                    "revert": false,
                    "revertMessage": "",
                    "selector": "",
                    "status": false,
                    "value": ""
                },
                "nodeType": 0
            },
            "0": {
                "invocation": {
                    "address": "0xdef171fe48cf0115b1d80b88dc8eab59176fee57",
                    "callData": "0x0000000000000000000000002260fac5e5542a773aa44fbcfedf7c193bc2c59900000000000000000000000000000000000000000000000000000000004016400000000000000000000000000000000000000000000000000000000031054ef1000000000000000000000000000000000000000000000000000000000000000000000000000000000000000000000000000000000000000000000000000000a00000000000000000000000000000000000000000000000000000000000000001000000000000000000004de4004375dff511095cc5a197a54140a24efef3a416",
                    "decodedMethod": {
                        "callParams": [
                            {
                                "name": "tokenIn",
                                "type": "address",
                                "value": "0x2260fac5e5542a773aa44fbcfedf7c193bc2c599"
                            },
                            {
                                "name": "amountIn",
                                "type": "uint256",
                                "value": "4,200,000"
                            },
                            {
                                "name": "amountOutMin",
                                "type": "uint256",
                                "value": "822,431,473"
                            },
                            {
                                "name": "weth",
                                "type": "address",
                                "value": "0x0000000000000000000000000000000000000000"
                            },
                            {
                                "name": "pools",
                                "type": "uint256[]",
                                "value": [
                                    "29,142,344,152,796,478,661,690,449,923,028,362,445,811,244,730,655,766"
                                ]
                            }
                        ],
                        "constructorArguments": "",
                        "name": "swapOnUniswapV2Fork",
                        "returnParams": [],
                        "signature": "swapOnUniswapV2Fork(address,uint256,uint256,address,uint256[])"
                    },
                    "errorInfo": "",
                    "fromAddress": "0x6fb9664030b53afbc1605ea986a012dc345aa21b",
                    "gasUsed": 124801,
                    "id": 0,
                    "methodDecoded": true,
                    "operation": "CALL",
                    "output": "",
                    "revert": false,
                    "revertMessage": "",
                    "selector": "0x0b86a4c1",
                    "status": true,
                    "value": "0"
                },
                "nodeType": 0
            },
            "1": {
                "invocation": {
                    "address": "0x4ff0dec5f9a763aa1e5c2a962aa6f4edfee4f9ea",
                    "callData": "0x0000000000000000000000002260fac5e5542a773aa44fbcfedf7c193bc2c59900000000000000000000000000000000000000000000000000000000004016400000000000000000000000000000000000000000000000000000000031054ef1000000000000000000000000000000000000000000000000000000000000000000000000000000000000000000000000000000000000000000000000000000a00000000000000000000000000000000000000000000000000000000000000001000000000000000000004de4004375dff511095cc5a197a54140a24efef3a416",
                    "decodedMethod": {
                        "callParams": [
                            {
                                "name": "tokenIn",
                                "type": "address",
                                "value": "0x2260fac5e5542a773aa44fbcfedf7c193bc2c599"
                            },
                            {
                                "name": "amountIn",
                                "type": "uint256",
                                "value": "4,200,000"
                            },
                            {
                                "name": "amountOutMin",
                                "type": "uint256",
                                "value": "822,431,473"
                            },
                            {
                                "name": "weth",
                                "type": "address",
                                "value": "0x0000000000000000000000000000000000000000"
                            },
                            {
                                "name": "pools",
                                "type": "uint256[]",
                                "value": [
                                    "29,142,344,152,796,478,661,690,449,923,028,362,445,811,244,730,655,766"
                                ]
                            }
                        ],
                        "constructorArguments": "",
                        "name": "swapOnUniswapV2Fork",
                        "returnParams": [],
                        "signature": "swapOnUniswapV2Fork(address,uint256,uint256,address,uint256[])"
                    },
                    "errorInfo": "",
                    "fromAddress": "0xdef171fe48cf0115b1d80b88dc8eab59176fee57",
                    "gasUsed": 104489,
                    "id": 1,
                    "methodDecoded": true,
                    "operation": "DELEGATECALL",
                    "output": "",
                    "revert": false,
                    "revertMessage": "",
                    "selector": "0x0b86a4c1",
                    "status": true,
                    "value": "0"
                },
                "nodeType": 0
            },
            "10": {
                "invocation": {
                    "address": "0x2260fac5e5542a773aa44fbcfedf7c193bc2c599",
                    "callData": "0x000000000000000000000000004375dff511095cc5a197a54140a24efef3a416",
                    "decodedMethod": {
                        "callParams": [
                            {
                                "name": "_owner",
                                "type": "address",
                                "value": "0x004375dff511095cc5a197a54140a24efef3a416"
                            }
                        ],
                        "constructorArguments": "",
                        "name": "balanceOf",
                        "returnParams": [
                            {
                                "decimalAvailable": true,
                                "name": "",
                                "type": "uint256",
                                "value": "1,495,879,674"
                            }
                        ],
                        "signature": "balanceOf(address)"
                    },
                    "errorInfo": "",
                    "fromAddress": "0x004375dff511095cc5a197a54140a24efef3a416",
                    "gasUsed": 795,
                    "id": 10,
                    "methodDecoded": true,
                    "operation": "STATICCALL",
                    "output": "0x0000000000000000000000000000000000000000000000000000000059294ffa",
                    "revert": false,
                    "revertMessage": "",
                    "selector": "0x70a08231",
                    "status": true,
                    "value": "0"
                },
                "nodeType": 0
            },
            "11": {
                "invocation": {
                    "address": "0xa0b86991c6218b36c1d19d4a2e9eb0ce3606eb48",
                    "callData": "0x000000000000000000000000004375dff511095cc5a197a54140a24efef3a416",
                    "decodedMethod": {
                        "callParams": [
                            {
                                "name": "account",
                                "type": "address",
                                "value": "0x004375dff511095cc5a197a54140a24efef3a416"
                            }
                        ],
                        "constructorArguments": "",
                        "name": "balanceOf",
                        "returnParams": [
                            {
                                "decimalAvailable": true,
                                "name": "",
                                "type": "uint256",
                                "value": "294,447,427,843"
                            }
                        ],
                        "signature": "balanceOf(address)"
                    },
                    "errorInfo": "",
                    "fromAddress": "0x004375dff511095cc5a197a54140a24efef3a416",
                    "gasUsed": 1315,
                    "id": 11,
                    "methodDecoded": true,
                    "operation": "STATICCALL",
                    "output": "0x000000000000000000000000000000000000000000000000000000448e6f3103",
                    "revert": false,
                    "revertMessage": "",
                    "selector": "0x70a08231",
                    "status": true,
                    "value": "0"
                },
                "nodeType": 0
            },
            "12": {
                "invocation": {
                    "address": "0xa2327a938febf5fec13bacfb16ae10ecbc4cbdcf",
                    "callData": "0x000000000000000000000000004375dff511095cc5a197a54140a24efef3a416",
                    "decodedMethod": {
                        "callParams": [
                            {
                                "name": "account",
                                "type": "address",
                                "value": "0x004375dff511095cc5a197a54140a24efef3a416"
                            }
                        ],
                        "constructorArguments": "",
                        "name": "balanceOf",
                        "returnParams": [
                            {
                                "decimalAvailable": true,
                                "name": "",
                                "type": "uint256",
                                "value": "294,447,427,843"
                            }
                        ],
                        "signature": "balanceOf(address)"
                    },
                    "errorInfo": "",
                    "fromAddress": "0xa0b86991c6218b36c1d19d4a2e9eb0ce3606eb48",
                    "gasUsed": 529,
                    "id": 12,
                    "methodDecoded": true,
                    "operation": "DELEGATECALL",
                    "output": "0x000000000000000000000000000000000000000000000000000000448e6f3103",
                    "revert": false,
                    "revertMessage": "",
                    "selector": "0x70a08231",
                    "status": true,
                    "value": "0"
                },
                "nodeType": 0
            },
            "13": {
                "event": {
                    "contract": "0x004375dff511095cc5a197a54140a24efef3a416",
                    "decodedLog": {
                        "name": "Sync",
                        "params": [
                            {
                                "name": "reserve0",
                                "type": "uint112",
                                "value": "1,495,879,674"
                            },
                            {
                                "name": "reserve1",
                                "type": "uint112",
                                "value": "294,447,427,843"
                            }
                        ],
                        "signature": "Sync(uint112,uint112)"
                    },
                    "id": 13,
                    "logData": "0x0000000000000000000000000000000000000000000000000000000059294ffa000000000000000000000000000000000000000000000000000000448e6f3103",
                    "logDecoded": true,
                    "operation": "EVENT",
                    "revert": false,
                    "status": true,
                    "topics": [
                        "0x1c411e9a96e071241c2f21f7726b17ae89e3cab4c78be50e062b03a9fffbbad1"
                    ]
                },
                "nodeType": 1
            },
            "14": {
                "event": {
                    "contract": "0x004375dff511095cc5a197a54140a24efef3a416",
                    "decodedLog": {
                        "name": "Swap",
                        "params": [
                            {
                                "name": "sender",
                                "type": "address",
                                "value": "0xdef171fe48cf0115b1d80b88dc8eab59176fee57"
                            },
                            {
                                "name": "to",
                                "type": "address",
                                "value": "0x6fb9664030b53afbc1605ea986a012dc345aa21b"
                            },
                            {
                                "name": "amount0In",
                                "type": "uint256",
                                "value": "4,200,000"
                            },
                            {
                                "name": "amount1In",
                                "type": "uint256",
                                "value": "0"
                            },
                            {
                                "name": "amount0Out",
                                "type": "uint256",
                                "value": "0"
                            },
                            {
                                "name": "amount1Out",
                                "type": "uint256",
                                "value": "826,564,295"
                            }
                        ],
                        "signature": "Swap(address,uint256,uint256,uint256,uint256,address)"
                    },
                    "id": 14,
                    "logData": "0x0000000000000000000000000000000000000000000000000000000000401640000000000000000000000000000000000000000000000000000000000000000000000000000000000000000000000000000000000000000000000000000000000000000000000000000000000000000000000000000000000000000031445ec7",
                    "logDecoded": true,
                    "operation": "EVENT",
                    "revert": false,
                    "status": true,
                    "topics": [
                        "0xd78ad95fa46c994b6551d0da85fc275fe613ce37657fb8d5e3d130840159d822",
                        "0x000000000000000000000000def171fe48cf0115b1d80b88dc8eab59176fee57",
                        "0x0000000000000000000000006fb9664030b53afbc1605ea986a012dc345aa21b"
                    ]
                },
                "nodeType": 1
            },
            "2": {
                "invocation": {
                    "address": "0x216b4b4ba9f3e719726886d34a177484278bfcae",
                    "callData": "0x0000000000000000000000002260fac5e5542a773aa44fbcfedf7c193bc2c5990000000000000000000000006fb9664030b53afbc1605ea986a012dc345aa21b000000000000000000000000004375dff511095cc5a197a54140a24efef3a4160000000000000000000000000000000000000000000000000000000000401640",
                    "decodedMethod": {
                        "callParams": [
                            {
                                "name": "token",
                                "type": "address",
                                "value": "0x2260fac5e5542a773aa44fbcfedf7c193bc2c599"
                            },
                            {
                                "name": "from",
                                "type": "address",
                                "value": "0x6fb9664030b53afbc1605ea986a012dc345aa21b"
                            },
                            {
                                "name": "to",
                                "type": "address",
                                "value": "0x004375dff511095cc5a197a54140a24efef3a416"
                            },
                            {
                                "name": "amount",
                                "type": "uint256",
                                "value": "4,200,000"
                            }
                        ],
                        "constructorArguments": "",
                        "name": "transferFrom",
                        "returnParams": [],
                        "signature": "transferFrom(address,address,address,uint256)"
                    },
                    "errorInfo": "",
                    "fromAddress": "0xdef171fe48cf0115b1d80b88dc8eab59176fee57",
                    "gasUsed": 28255,
                    "id": 2,
                    "methodDecoded": true,
                    "operation": "CALL",
                    "output": "",
                    "revert": false,
                    "revertMessage": "",
                    "selector": "0x15dacbea",
                    "status": true,
                    "value": "0"
                },
                "nodeType": 0
            },
            "3": {
                "invocation": {
                    "address": "0x2260fac5e5542a773aa44fbcfedf7c193bc2c599",
                    "callData": "0x0000000000000000000000006fb9664030b53afbc1605ea986a012dc345aa21b000000000000000000000000004375dff511095cc5a197a54140a24efef3a4160000000000000000000000000000000000000000000000000000000000401640",
                    "decodedMethod": {
                        "callParams": [
                            {
                                "name": "_from",
                                "type": "address",
                                "value": "0x6fb9664030b53afbc1605ea986a012dc345aa21b"
                            },
                            {
                                "name": "_to",
                                "type": "address",
                                "value": "0x004375dff511095cc5a197a54140a24efef3a416"
                            },
                            {
                                "decimalAvailable": true,
                                "name": "_value",
                                "type": "uint256",
                                "value": "4,200,000"
                            }
                        ],
                        "constructorArguments": "",
                        "name": "transferFrom",
                        "returnParams": [
                            {
                                "name": "",
                                "type": "bool",
                                "value": true
                            }
                        ],
                        "signature": "transferFrom(address,address,uint256)"
                    },
                    "errorInfo": "",
                    "fromAddress": "0x216b4b4ba9f3e719726886d34a177484278bfcae",
                    "gasUsed": 21370,
                    "id": 3,
                    "methodDecoded": true,
                    "operation": "CALL",
                    "output": "0x0000000000000000000000000000000000000000000000000000000000000001",
                    "revert": false,
                    "revertMessage": "",
                    "selector": "0x23b872dd",
                    "status": true,
                    "value": "0"
                },
                "nodeType": 0
            },
            "4": {
                "event": {
                    "contract": "0x2260fac5e5542a773aa44fbcfedf7c193bc2c599",
                    "decodedLog": {
                        "name": "Transfer",
                        "params": [
                            {
                                "name": "from",
                                "type": "address",
                                "value": "0x6fb9664030b53afbc1605ea986a012dc345aa21b"
                            },
                            {
                                "name": "to",
                                "type": "address",
                                "value": "0x004375dff511095cc5a197a54140a24efef3a416"
                            },
                            {
                                "decimalAvailable": true,
                                "name": "value",
                                "type": "uint256",
                                "value": "4,200,000"
                            }
                        ],
                        "signature": "Transfer(address,address,uint256)"
                    },
                    "id": 4,
                    "logData": "0x0000000000000000000000000000000000000000000000000000000000401640",
                    "logDecoded": true,
                    "operation": "EVENT",
                    "revert": false,
                    "status": true,
                    "topics": [
                        "0xddf252ad1be2c89b69c2b068fc378daa952ba7f163c4a11628f55a4df523b3ef",
                        "0x0000000000000000000000006fb9664030b53afbc1605ea986a012dc345aa21b",
                        "0x000000000000000000000000004375dff511095cc5a197a54140a24efef3a416"
                    ]
                },
                "nodeType": 1
            },
            "5": {
                "invocation": {
                    "address": "0x004375dff511095cc5a197a54140a24efef3a416",
                    "callData": "0x",
                    "decodedMethod": {
                        "callParams": [],
                        "constructorArguments": "",
                        "name": "getReserves",
                        "returnParams": [
                            {
                                "name": "_reserve0",
                                "type": "uint112",
                                "value": "1,491,679,674"
                            },
                            {
                                "name": "_reserve1",
                                "type": "uint112",
                                "value": "295,273,992,138"
                            },
                            {
                                "name": "_blockTimestampLast",
                                "type": "uint32",
                                "value": "1,657,624,775"
                            }
                        ],
                        "signature": "getReserves()"
                    },
                    "errorInfo": "",
                    "fromAddress": "0xdef171fe48cf0115b1d80b88dc8eab59176fee57",
                    "gasUsed": 2504,
                    "id": 5,
                    "methodDecoded": true,
                    "operation": "STATICCALL",
                    "output": "0x0000000000000000000000000000000000000000000000000000000058e939ba00000000000000000000000000000000000000000000000000000044bfb38fca0000000000000000000000000000000000000000000000000000000062cd58c7",
                    "revert": false,
                    "revertMessage": "",
                    "selector": "0x0902f1ac",
                    "status": true,
                    "value": "0"
                },
                "nodeType": 0
            },
            "6": {
                "invocation": {
                    "address": "0x004375dff511095cc5a197a54140a24efef3a416",
                    "callData": "0x00000000000000000000000000000000000000000000000000000000000000000000000000000000000000000000000000000000000000000000000031445ec70000000000000000000000006fb9664030b53afbc1605ea986a012dc345aa21b00000000000000000000000000000000000000000000000000000000000000800000000000000000000000000000000000000000000000000000000000000000",
                    "decodedMethod": {
                        "callParams": [
                            {
                                "name": "amount0Out",
                                "type": "uint256",
                                "value": "0"
                            },
                            {
                                "name": "amount1Out",
                                "type": "uint256",
                                "value": "826,564,295"
                            },
                            {
                                "name": "to",
                                "type": "address",
                                "value": "0x6fb9664030b53afbc1605ea986a012dc345aa21b"
                            },
                            {
                                "name": "data",
                                "type": "bytes",
                                "value": "0x"
                            }
                        ],
                        "constructorArguments": "",
                        "name": "swap",
                        "returnParams": [],
                        "signature": "swap(uint256,uint256,address,bytes)"
                    },
                    "errorInfo": "",
                    "fromAddress": "0xdef171fe48cf0115b1d80b88dc8eab59176fee57",
                    "gasUsed": 62850,
                    "id": 6,
                    "methodDecoded": true,
                    "operation": "CALL",
                    "output": "",
                    "revert": false,
                    "revertMessage": "",
                    "selector": "0x022c0d9f",
                    "status": true,
                    "value": "0"
                },
                "nodeType": 0
            },
            "7": {
                "invocation": {
                    "address": "0xa0b86991c6218b36c1d19d4a2e9eb0ce3606eb48",
                    "callData": "0x0000000000000000000000006fb9664030b53afbc1605ea986a012dc345aa21b0000000000000000000000000000000000000000000000000000000031445ec7",
                    "decodedMethod": {
                        "callParams": [
                            {
                                "name": "to",
                                "type": "address",
                                "value": "0x6fb9664030b53afbc1605ea986a012dc345aa21b"
                            },
                            {
                                "decimalAvailable": true,
                                "name": "value",
                                "type": "uint256",
                                "value": "826,564,295"
                            }
                        ],
                        "constructorArguments": "",
                        "name": "transfer",
                        "returnParams": [
                            {
                                "name": "",
                                "type": "bool",
                                "value": true
                            }
                        ],
                        "signature": "transfer(address,uint256)"
                    },
                    "errorInfo": "",
                    "fromAddress": "0x004375dff511095cc5a197a54140a24efef3a416",
                    "gasUsed": 26917,
                    "id": 7,
                    "methodDecoded": true,
                    "operation": "CALL",
                    "output": "0x0000000000000000000000000000000000000000000000000000000000000001",
                    "revert": false,
                    "revertMessage": "",
                    "selector": "0xa9059cbb",
                    "status": true,
                    "value": "0"
                },
                "nodeType": 0
            },
            "8": {
                "invocation": {
                    "address": "0xa2327a938febf5fec13bacfb16ae10ecbc4cbdcf",
                    "callData": "0x0000000000000000000000006fb9664030b53afbc1605ea986a012dc345aa21b0000000000000000000000000000000000000000000000000000000031445ec7",
                    "decodedMethod": {
                        "callParams": [
                            {
                                "name": "to",
                                "type": "address",
                                "value": "0x6fb9664030b53afbc1605ea986a012dc345aa21b"
                            },
                            {
                                "decimalAvailable": true,
                                "name": "value",
                                "type": "uint256",
                                "value": "826,564,295"
                            }
                        ],
                        "constructorArguments": "",
                        "name": "transfer",
                        "returnParams": [
                            {
                                "name": "",
                                "type": "bool",
                                "value": true
                            }
                        ],
                        "signature": "transfer(address,uint256)"
                    },
                    "errorInfo": "",
                    "fromAddress": "0xa0b86991c6218b36c1d19d4a2e9eb0ce3606eb48",
                    "gasUsed": 19628,
                    "id": 8,
                    "methodDecoded": true,
                    "operation": "DELEGATECALL",
                    "output": "0x0000000000000000000000000000000000000000000000000000000000000001",
                    "revert": false,
                    "revertMessage": "",
                    "selector": "0xa9059cbb",
                    "status": true,
                    "value": "0"
                },
                "nodeType": 0
            },
            "9": {
                "event": {
                    "contract": "0xa0b86991c6218b36c1d19d4a2e9eb0ce3606eb48",
                    "decodedLog": {
                        "name": "Transfer",
                        "params": [
                            {
                                "name": "from",
                                "type": "address",
                                "value": "0x004375dff511095cc5a197a54140a24efef3a416"
                            },
                            {
                                "name": "to",
                                "type": "address",
                                "value": "0x6fb9664030b53afbc1605ea986a012dc345aa21b"
                            },
                            {
                                "decimalAvailable": true,
                                "name": "value",
                                "type": "uint256",
                                "value": "826,564,295"
                            }
                        ],
                        "signature": "Transfer(address,address,uint256)"
                    },
                    "id": 9,
                    "logData": "0x0000000000000000000000000000000000000000000000000000000031445ec7",
                    "logDecoded": true,
                    "operation": "EVENT",
                    "revert": false,
                    "status": true,
                    "topics": [
                        "0xddf252ad1be2c89b69c2b068fc378daa952ba7f163c4a11628f55a4df523b3ef",
                        "0x000000000000000000000000004375dff511095cc5a197a54140a24efef3a416",
                        "0x0000000000000000000000006fb9664030b53afbc1605ea986a012dc345aa21b"
                    ]
                },
                "nodeType": 1
            }
        },
        "gasFlame": [
            {
                "children": [
                    {
                        "children": [
                            {
                                "children": [],
                                "depth": 0,
                                "name": "Initial Gas",
                                "value": 22560
                            },
                            {
                                "children": [
                                    {
                                        "children": [
                                            {
                                                "children": [
                                                    {
                                                        "children": [],
                                                        "depth": 3,
                                                        "name": "transferFrom",
                                                        "value": 21370
                                                    }
                                                ],
                                                "depth": 2,
                                                "name": "transferFrom",
                                                "value": 28255
                                            },
                                            {
                                                "children": [],
                                                "depth": 2,
                                                "name": "getReserves",
                                                "value": 2504
                                            },
                                            {
                                                "children": [
                                                    {
                                                        "children": [
                                                            {
                                                                "children": [],
                                                                "depth": 4,
                                                                "name": "transfer",
                                                                "value": 19628
                                                            }
                                                        ],
                                                        "depth": 3,
                                                        "name": "transfer",
                                                        "value": 26917
                                                    },
                                                    {
                                                        "children": [],
                                                        "depth": 3,
                                                        "name": "balanceOf",
                                                        "value": 795
                                                    },
                                                    {
                                                        "children": [
                                                            {
                                                                "children": [],
                                                                "depth": 4,
                                                                "name": "balanceOf",
                                                                "value": 529
                                                            }
                                                        ],
                                                        "depth": 3,
                                                        "name": "balanceOf",
                                                        "value": 1315
                                                    }
                                                ],
                                                "depth": 2,
                                                "name": "swap",
                                                "value": 62850
                                            }
                                        ],
                                        "depth": 1,
                                        "name": "swapOnUniswapV2Fork",
                                        "value": 104489
                                    }
                                ],
                                "depth": 0,
                                "name": "Executed Gas",
                                "value": 109841
                            }
                        ],
                        "depth": -1,
                        "name": "Actual Gas Used",
                        "value": 124801
                    },
                    {
                        "children": [],
                        "depth": -1,
                        "name": "Refunded Gas",
                        "value": 7600
                    }
                ],
                "depth": -2,
                "name": "Total Gas",
                "value": 132401
            }
        ],
        "isConfirmed": true,
        "mainTrace": [
            {
                "children": [
                    {
                        "children": [
                            {
                                "children": [
                                    {
                                        "children": [
                                            {
                                                "children": [
                                                    {
                                                        "children": [],
                                                        "depth": 4,
                                                        "id": 4,
                                                        "order": 4
                                                    }
                                                ],
                                                "depth": 3,
                                                "id": 3,
                                                "order": 3
                                            }
                                        ],
                                        "depth": 2,
                                        "id": 2,
                                        "order": 2
                                    },
                                    {
                                        "children": [],
                                        "depth": 2,
                                        "id": 5,
                                        "order": 5
                                    },
                                    {
                                        "children": [
                                            {
                                                "children": [
                                                    {
                                                        "children": [
                                                            {
                                                                "children": [],
                                                                "depth": 5,
                                                                "id": 9,
                                                                "order": 9
                                                            }
                                                        ],
                                                        "depth": 4,
                                                        "id": 8,
                                                        "order": 8
                                                    }
                                                ],
                                                "depth": 3,
                                                "id": 7,
                                                "order": 7
                                            },
                                            {
                                                "children": [],
                                                "depth": 3,
                                                "id": 10,
                                                "order": 10
                                            },
                                            {
                                                "children": [
                                                    {
                                                        "children": [],
                                                        "depth": 4,
                                                        "id": 12,
                                                        "order": 12
                                                    }
                                                ],
                                                "depth": 3,
                                                "id": 11,
                                                "order": 11
                                            },
                                            {
                                                "children": [],
                                                "depth": 3,
                                                "id": 13,
                                                "order": 13
                                            },
                                            {
                                                "children": [],
                                                "depth": 3,
                                                "id": 14,
                                                "order": 14
                                            }
                                        ],
                                        "depth": 2,
                                        "id": 6,
                                        "order": 6
                                    }
                                ],
                                "depth": 1,
                                "id": 1,
                                "order": 1
                            }
                        ],
                        "depth": 0,
                        "id": 0,
                        "order": 0
                    }
                ],
                "depth": -1,
                "id": -1,
                "order": -1
            }
        ],
        "mainTraceNodeCount": 15,
        "parentIdMap": {
            "0": -1,
            "1": 0,
            "10": 6,
            "11": 6,
            "12": 11,
            "13": 6,
            "14": 6,
            "2": 1,
            "3": 2,
            "4": 3,
            "5": 1,
            "6": 1,
            "7": 6,
            "8": 7,
            "9": 8
        },
        "tidyTrace": [
            {
                "children": [
                    {
                        "children": [
                            {
                                "children": [
                                    {
                                        "children": [
                                            {
                                                "children": [
                                                    {
                                                        "children": [],
                                                        "depth": 4,
                                                        "id": 4,
                                                        "order": 4
                                                    }
                                                ],
                                                "depth": 3,
                                                "id": 3,
                                                "order": 3
                                            }
                                        ],
                                        "depth": 2,
                                        "id": 2,
                                        "order": 2
                                    },
                                    {
                                        "children": [
                                            {
                                                "children": [
                                                    {
                                                        "children": [
                                                            {
                                                                "children": [],
                                                                "depth": 5,
                                                                "id": 9,
                                                                "order": 9
                                                            }
                                                        ],
                                                        "depth": 4,
                                                        "id": 8,
                                                        "order": 8
                                                    }
                                                ],
                                                "depth": 3,
                                                "id": 7,
                                                "order": 7
                                            },
                                            {
                                                "children": [],
                                                "depth": 3,
                                                "id": 13,
                                                "order": 13
                                            },
                                            {
                                                "children": [],
                                                "depth": 3,
                                                "id": 14,
                                                "order": 14
                                            }
                                        ],
                                        "depth": 2,
                                        "id": 6,
                                        "order": 6
                                    }
                                ],
                                "depth": 1,
                                "id": 1,
                                "order": 1
                            }
                        ],
                        "depth": 0,
                        "id": 0,
                        "order": 0
                    }
                ],
                "depth": -1,
                "id": -1,
                "order": -1
            }
        ],
        "tidyTraceNodeCount": 11
    },
    "state_change": {
        "stateChanges": [
            {
                "address": "0x004375dff511095cc5a197a54140a24efef3a416",
                "erc": "ERC-20",
                "slots": [
                    {
                        "current": "0x0000000000000000000000000005757eb6d52c778a27baf459295cc01b7601fc",
                        "key": "0x0000000000000000000000000000000000000000000000000000000000000009",
                        "prev": "0x000000000000000000000000000575773c4f9cb171cfa812d7891899f97e815c"
                    },
                    {
                        "current": "0x00000000000000000000000000000004587fe72ef0e759df96078d213dd798a0",
                        "key": "0x000000000000000000000000000000000000000000000000000000000000000a",
                        "prev": "0x0000000000000000000000000000000458736509d7faae47e17635e9c580ec74"
                    },
                    {
                        "current": "0x62cd6273000000000000000000448e6f31030000000000000000000059294ffa",
                        "key": "0x0000000000000000000000000000000000000000000000000000000000000008",
                        "prev": "0x62cd58c700000000000000000044bfb38fca0000000000000000000058e939ba"
                    }
                ],
                "storageVariables": [
                    {
                        "name": "price0CumulativeLast",
                        "type": "uint256",
                        "value": {
                            "current": "121738982051257463465199327037008616285929980",
                            "prev": "121736437215381969667471631053253436516499804",
                            "typeTag": 1
                        }
                    },
                    {
                        "name": "price1CumulativeLast",
                        "type": "uint256",
                        "value": {
                            "current": "1478765641969530381606389749457018656928",
                            "prev": "1478700694754823718877632242728971594868",
                            "typeTag": 1
                        }
                    },
                    {
                        "name": "reserve0",
                        "type": "uint112",
                        "value": {
                            "current": "1495879674",
                            "prev": "1491679674",
                            "typeTag": 1
                        }
                    },
                    {
                        "name": "reserve1",
                        "type": "uint112",
                        "value": {
                            "current": "294447427843",
                            "prev": "295273992138",
                            "typeTag": 1
                        }
                    },
                    {
                        "name": "blockTimestampLast",
                        "type": "uint32",
                        "value": {
                            "current": "1657627251",
                            "prev": "1657624775",
                            "typeTag": 1
                        }
                    }
                ]
            },
            {
                "address": "0x2260fac5e5542a773aa44fbcfedf7c193bc2c599",
                "erc": "ERC-20",
                "slots": [
                    {
                        "current": "0x0000000000000000000000000000000000000000000000000000000000000000",
                        "key": "0x3fb2c490a759442d27ba2e0cc6e0a8c0a8f964f75567c4bc5db59267a992ad47",
                        "prev": "0x0000000000000000000000000000000000000000000000000000000000401640"
                    },
                    {
                        "current": "0x0000000000000000000000000000000000000000000000000000000059294ffa",
                        "key": "0x63d9bd83ed640e899aacc7abd7ba83ec9ad3a3a748ccb39849beac9048033215",
                        "prev": "0x0000000000000000000000000000000000000000000000000000000058e939ba"
                    },
                    {
                        "current": "0xffffffffffffffffffffffffffffffffffffffffffffffffffffffffffbfe9bf",
                        "key": "0xb49d9a159c8676e1dc7345ee9d2d5ac2cdba8f00f4b382d3ca4ceb32c33d8566",
                        "prev": "0xffffffffffffffffffffffffffffffffffffffffffffffffffffffffffffffff"
                    }
                ],
                "storageVariables": [
                    {
                        "name": "balances",
                        "type": "mapping(address => uint256)",
                        "value": {
                            "pairs": [
                                {
                                    "key": "0x004375dff511095cc5a197a54140a24efef3a416",
                                    "value": {
                                        "current": "1495879674",
                                        "prev": "1491679674",
                                        "typeTag": 1
                                    }
                                },
                                {
                                    "key": "0x6fb9664030b53afbc1605ea986a012dc345aa21b",
                                    "value": {
                                        "current": "0",
                                        "prev": "4200000",
                                        "typeTag": 1
                                    }
                                }
                            ],
                            "typeTag": 4
                        }
                    },
                    {
                        "name": "allowed",
                        "type": "mapping(address => mapping(address => uint256))",
                        "value": {
                            "pairs": [
                                {
                                    "key": "0x6fb9664030b53afbc1605ea986a012dc345aa21b",
                                    "value": {
                                        "pairs": [
                                            {
                                                "key": "0x216b4b4ba9f3e719726886d34a177484278bfcae",
                                                "value": {
                                                    "current": "115792089237316195423570985008687907853269984665640564039457584007913125439935",
                                                    "prev": "115792089237316195423570985008687907853269984665640564039457584007913129639935",
                                                    "typeTag": 1
                                                }
                                            }
                                        ],
                                        "typeTag": 4
                                    }
                                }
                            ],
                            "typeTag": 4
                        }
                    }
                ]
            },
            {
                "address": "0xa0b86991c6218b36c1d19d4a2e9eb0ce3606eb48",
                "erc": "ERC-20",
                "slots": [
                    {
                        "current": "0x0000000000000000000000000000000000000000000000000000000079ad9208",
                        "key": "0x18586e7c52d5b05fc0d04371eee6562d8ef51c9c1998d6904eb227ee6a249e44",
                        "prev": "0x0000000000000000000000000000000000000000000000000000000048693341"
                    },
                    {
                        "current": "0x000000000000000000000000000000000000000000000000000000448e6f3103",
                        "key": "0x92a56dda59ef2054b9867de4d9df2cda50b5e0a082ea35fde0bba377b4fc9b60",
                        "prev": "0x00000000000000000000000000000000000000000000000000000044bfb38fca"
                    }
                ],
                "storageVariables": [
                    {
                        "name": "balances",
                        "type": "mapping(address => uint256)",
                        "value": {
                            "pairs": [
                                {
                                    "key": "0x004375dff511095cc5a197a54140a24efef3a416",
                                    "value": {
                                        "current": "294447427843",
                                        "prev": "295273992138",
                                        "typeTag": 1
                                    }
                                },
                                {
                                    "key": "0x6fb9664030b53afbc1605ea986a012dc345aa21b",
                                    "value": {
                                        "current": "2041418248",
                                        "prev": "1214853953",
                                        "typeTag": 1
                                    }
                                }
                            ],
                            "typeTag": 4
                        }
                    }
                ]
            }
        ]
    }
}