{
    "balance_change": {
        "balanceChanges": [
            {
                "account": "0x2a0c0dbecc7e4d658f48e01e3fa353f44050c208",
                "assets": [
                    {
                        "address": "0x78c292d1445e6b9558bf42e8bc369271ded062ea",
                        "amount": "109,424,985.81126487",
                        "iconUrl": "https://assets.blocksec.com/icon/c9ccb59ccaae6760b1fd69bf94798ad3f827261f53af6cc4043a8418655d6061.png",
                        "isERC1155": false,
                        "isERC721": false,
                        "sign": false,
                        "value": ""
                    }
                ]
            },
            {
                "account": "0x97d164e6904e761c3b3865aef2b2971f5aa15f7f",
                "assets": [
                    {
                        "address": "0x78c292d1445e6b9558bf42e8bc369271ded062ea",
                        "amount": "109,424,985.81126487",
                        "iconUrl": "https://assets.blocksec.com/icon/c9ccb59ccaae6760b1fd69bf94798ad3f827261f53af6cc4043a8418655d6061.png",
                        "isERC1155": false,
                        "isERC721": false,
                        "sign": true,
                        "value": ""
                    }
                ]
            }
        ]
    },
    "profile": {
        "basic_info": {
            "baseFee": "",
            "blockNumber": 6497911,
            "callData": "0x2295115b00000000000000000000000078c292d1445e6b9558bf42e8bc369271ded062ea0000000000000000000000000000000000000000000000000026e0fdf5b8023b00000000000000000000000097d164e6904e761c3b3865aef2b2971f5aa15f7f000000000000000000000000000000000000000000000000000000000000003b000000000000000000000000000000000000000000000000000000000000001b0ec2ff73b6dbfa81812336751c951266587556e39795320007a598058014964715ef478351c450ea28914f9e008cfe21fc0dfefff5cab9be8a7df4f994851b2a00000000000000000000000000000000000000000000000000004d72b0e1a8fc",
            "debugEnable": true,
            "errorInfo": "",
            "eventCount": 2,
            "feeRecipient": "0x2a65aca4d5fc5b5c859090a6c34d164135398226",
            "formatValue": "0",
            "gasLimit": 410000,
            "gasPrice": "25",
            "gasUsed": 77263,
            "intTxnCount": 2,
            "internalRevert": false,
            "internalRevertMessage": "",
            "isContractCreation": false,
            "isFlashloan": false,
            "maxFee": "",
            "nonce": 1650644,
            "overwritedBlockNumber": -1,
            "priorityFee": "",
            "receiver": "0x2a0c0dbecc7e4d658f48e01e3fa353f44050c208",
            "revertMessage": "",
            "sender": "0xa7a7899d944fe658c4b0a1803bab2f490bd3849e",
            "simulationEnable": true,
            "sourceTxnHash": "0x30a138e0484e543af02f5f8fc332543bf12b19b4bea4a67b1ec249a1de9cc144",
            "status": true,
            "timestamp": "2018-10-11T23:45:25Z",
            "transactionFee": "0.001931575",
            "txnHash": "0x30a138e0484e543af02f5f8fc332543bf12b19b4bea4a67b1ec249a1de9cc144",
            "txnIndex": 46,
            "type": 0,
            "value": "0"
        },
        "fund_flow": [
            {
                "amount": "109,424,985.81126487",
                "from": "0x2a0c0dbecc7e4d658f48e01e3fa353f44050c208",
                "id": 1,
                "isERC1155": false,
                "isERC721": false,
                "isReverted": false,
                "order": 1,
                "to": "0x97d164e6904e761c3b3865aef2b2971f5aa15f7f",
                "token": "0x78c292d1445e6b9558bf42e8bc369271ded062ea"
            }
        ],
        "token_infos": [
            {
                "address": "0x78c292d1445e6b9558bf42e8bc369271ded062ea",
                "decimals": 8
            },
            {
                "address": "0xc02aaa39b223fe8d0a0e5c4f27ead9083c756cc2",
                "decimals": 18
            },
            {
                "address": "0xeeeeeeeeeeeeeeeeeeeeeeeeeeeeeeeeeeeeeeee",
                "decimals": 18
            }
        ]
    },
    "address_label": {
        "labels": [
            {
                "address": "0x0000000000000000000000000000000000000002",
                "label": "Precompiled"
            },
            {
                "address": "0x0000000000000000000000000000000000000003",
                "label": "Precompiled"
            },
            {
                "address": "0x0000000000000000000000000000000000000004",
                "label": "Precompiled"
            },
            {
                "address": "0xeeeeeeeeeeeeeeeeeeeeeeeeeeeeeeeeeeeeeeee",
                "label": "Ether"
            },
            {
                "address": "0xa7a7899d944fe658c4b0a1803bab2f490bd3849e",
                "label": "IDEX 2"
            },
            {
                "address": "0x78c292d1445e6b9558bf42e8bc369271ded062ea",
                "label": "Cybermusic.io: CYMT Token"
            },
            {
                "address": "0x2a0c0dbecc7e4d658f48e01e3fa353f44050c208",
                "label": "IDEX"
            },
            {
                "address": "0x0000000000000000000000000000000000000001",
                "label": "Precompiled"
            }
        ]
    },
    "trace": {
        "accountLabels": null,
        "dataMap": {
            "-1": {
                "invocation": {
                    "address": "0xa7a7899d944fe658c4b0a1803bab2f490bd3849e",
                    "callData": "",
                    "decodedMethod": null,
                    "errorInfo": "",
                    "fromAddress": "",
                    "gasUsed": 0,
                    "id": -1,
                    "methodDecoded": false,
                    "operation": "",
                    "output": "",
                    "revert": false,
                    "revertMessage": "",
                    "selector": "",
                    "status": false,
                    "value": ""
                },
                "nodeType": 0
            },
            "0": {
                "invocation": {
                    "address": "0x2a0c0dbecc7e4d658f48e01e3fa353f44050c208",
                    "callData": "0x00000000000000000000000078c292d1445e6b9558bf42e8bc369271ded062ea0000000000000000000000000000000000000000000000000026e0fdf5b8023b00000000000000000000000097d164e6904e761c3b3865aef2b2971f5aa15f7f000000000000000000000000000000000000000000000000000000000000003b000000000000000000000000000000000000000000000000000000000000001b0ec2ff73b6dbfa81812336751c951266587556e39795320007a598058014964715ef478351c450ea28914f9e008cfe21fc0dfefff5cab9be8a7df4f994851b2a00000000000000000000000000000000000000000000000000004d72b0e1a8fc",
                    "decodedMethod": {
                        "callParams": [
                            {
                                "name": "token",
                                "type": "address",
                                "value": "0x78c292d1445e6b9558bf42e8bc369271ded062ea"
                            },
                            {
                                "name": "amount",
                                "type": "uint256",
                                "value": "10,943,430,468,829,755"
                            },
                            {
                                "name": "user",
                                "type": "address",
                                "value": "0x97d164e6904e761c3b3865aef2b2971f5aa15f7f"
                            },
                            {
                                "name": "nonce",
                                "type": "uint256",
                                "value": "59"
                            },
                            {
                                "name": "v",
                                "type": "uint8",
                                "value": "27"
                            },
                            {
                                "name": "r",
                                "type": "bytes32",
                                "value": "0x0ec2ff73b6dbfa81812336751c951266587556e39795320007a5980580149647"
                            },
                            {
                                "name": "s",
                                "type": "bytes32",
                                "value": "0x15ef478351c450ea28914f9e008cfe21fc0dfefff5cab9be8a7df4f994851b2a"
                            },
                            {
                                "name": "feeWithdrawal",
                                "type": "uint256",
                                "value": "85,154,989,189,372"
                            }
                        ],
                        "constructorArguments": "",
                        "name": "adminWithdraw",
                        "returnParams": [
                            {
                                "name": "success",
                                "type": "bool",
                                "value": false
                            }
                        ],
                        "signature": "adminWithdraw(address,uint256,address,uint256,uint8,bytes32,bytes32,uint256)"
                    },
                    "errorInfo": "",
                    "fromAddress": "0xa7a7899d944fe658c4b0a1803bab2f490bd3849e",
                    "gasUsed": 77263,
                    "id": 0,
                    "methodDecoded": true,
                    "operation": "CALL",
                    "output": "0x0000000000000000000000000000000000000000000000000000000000000000",
                    "revert": false,
                    "revertMessage": "",
                    "selector": "0x2295115b",
                    "status": true,
                    "value": "0"
                },
                "nodeType": 0
            },
            "1": {
                "invocation": {
                    "address": "0x0000000000000000000000000000000000000001",
                    "callData": "0x623ed4a1099ed2872c68566b9c162027ed72942b3ab889dac5408c5b000000000000000000000000000000000000000000000000000000000000001b0ec2ff73b6dbfa81812336751c951266587556e39795320007a598058014964715ef478351c450ea28914f9e008cfe21fc0dfefff5cab9be8a7df4f994851b2a",
                    "decodedMethod": {
                        "callParams": [
                            {
                                "name": "hash",
                                "type": "bytes32",
                                "value": "0x912aff55623ed4a1099ed2872c68566b9c162027ed72942b3ab889dac5408c5b"
                            },
                            {
                                "name": "v",
                                "type": "uint256",
                                "value": "27"
                            },
                            {
                                "name": "r",
                                "type": "bytes32",
                                "value": "0x0ec2ff73b6dbfa81812336751c951266587556e39795320007a5980580149647"
                            },
                            {
                                "name": "s",
                                "type": "bytes32",
                                "value": "0x15ef478351c450ea28914f9e008cfe21fc0dfefff5cab9be8a7df4f994851b2a"
                            }
                        ],
                        "constructorArguments": "",
                        "name": "ecrecover",
                        "returnParams": [
                            {
                                "name": "",
                                "type": "address",
                                "value": "0x97d164e6904e761c3b3865aef2b2971f5aa15f7f"
                            }
                        ],
                        "signature": "ecrecover(bytes32,uint256,bytes32,bytes32)"
                    },
                    "errorInfo": "",
                    "fromAddress": "0x2a0c0dbecc7e4d658f48e01e3fa353f44050c208",
                    "gasUsed": 3000,
                    "id": 1,
                    "methodDecoded": true,
                    "operation": "CALL",
                    "output": "0x00000000000000000000000097d164e6904e761c3b3865aef2b2971f5aa15f7f",
                    "revert": false,
                    "revertMessage": "",
                    "selector": "0x912aff55",
                    "status": true,
                    "value": "0"
                },
                "nodeType": 0
            },
            "2": {
                "invocation": {
                    "address": "0x78c292d1445e6b9558bf42e8bc369271ded062ea",
                    "callData": "0x00000000000000000000000097d164e6904e761c3b3865aef2b2971f5aa15f7f0000000000000000000000000000000000000000000000000026e024fce21d57",
                    "decodedMethod": {
                        "callParams": [
                            {
                                "name": "_to",
                                "type": "address",
                                "value": "0x97d164e6904e761c3b3865aef2b2971f5aa15f7f"
                            },
                            {
                                "decimalAvailable": true,
                                "name": "_amount",
                                "type": "uint256",
                                "value": "10,942,498,581,126,487"
                            }
                        ],
                        "constructorArguments": "",
                        "name": "transfer",
                        "returnParams": [
                            {
                                "name": "success",
                                "type": "bool",
                                "value": true
                            }
                        ],
                        "signature": "transfer(address,uint256)"
                    },
                    "errorInfo": "",
                    "fromAddress": "0x2a0c0dbecc7e4d658f48e01e3fa353f44050c208",
                    "gasUsed": 14042,
                    "id": 2,
                    "methodDecoded": true,
                    "operation": "CALL",
                    "output": "0x0000000000000000000000000000000000000000000000000000000000000001",
                    "revert": false,
                    "revertMessage": "",
                    "selector": "0xa9059cbb",
                    "status": true,
                    "value": "0"
                },
                "nodeType": 0
            },
            "3": {
                "event": {
                    "contract": "0x78c292d1445e6b9558bf42e8bc369271ded062ea",
                    "decodedLog": {
                        "name": "Transfer",
                        "params": [
                            {
                                "name": "_from",
                                "type": "address",
                                "value": "0x2a0c0dbecc7e4d658f48e01e3fa353f44050c208"
                            },
                            {
                                "name": "_to",
                                "type": "address",
                                "value": "0x97d164e6904e761c3b3865aef2b2971f5aa15f7f"
                            },
                            {
                                "decimalAvailable": true,
                                "name": "_value",
                                "type": "uint256",
                                "value": "10,942,498,581,126,487"
                            }
                        ],
                        "signature": "Transfer(address,address,uint256)"
                    },
                    "id": 3,
                    "logData": "0x0000000000000000000000000000000000000000000000000026e024fce21d57",
                    "logDecoded": true,
                    "operation": "EVENT",
                    "revert": false,
                    "status": true,
                    "topics": [
                        "0xddf252ad1be2c89b69c2b068fc378daa952ba7f163c4a11628f55a4df523b3ef",
                        "0x0000000000000000000000002a0c0dbecc7e4d658f48e01e3fa353f44050c208",
                        "0x00000000000000000000000097d164e6904e761c3b3865aef2b2971f5aa15f7f"
                    ]
                },
                "nodeType": 1
            },
            "4": {
                "event": {
                    "contract": "0x2a0c0dbecc7e4d658f48e01e3fa353f44050c208",
                    "decodedLog": {
                        "name": "Withdraw",
                        "params": [
                            {
                                "name": "token",
                                "type": "address",
                                "value": "0x78c292d1445e6b9558bf42e8bc369271ded062ea"
                            },
                            {
                                "name": "user",
                                "type": "address",
                                "value": "0x97d164e6904e761c3b3865aef2b2971f5aa15f7f"
                            },
                            {
                                "name": "amount",
                                "type": "uint256",
                                "value": "10,942,498,581,126,487"
                            },
                            {
                                "name": "balance",
                                "type": "uint256",
                                "value": "0"
                            }
                        ],
                        "signature": "Withdraw(address,address,uint256,uint256)"
                    },
                    "id": 4,
                    "logData": "0x00000000000000000000000078c292d1445e6b9558bf42e8bc369271ded062ea00000000000000000000000097d164e6904e761c3b3865aef2b2971f5aa15f7f0000000000000000000000000000000000000000000000000026e024fce21d570000000000000000000000000000000000000000000000000000000000000000",
                    "logDecoded": true,
                    "operation": "EVENT",
                    "revert": false,
                    "status": true,
                    "topics": [
                        "0xf341246adaac6f497bc2a656f546ab9e182111d630394f0c57c710a59a2cb567"
                    ]
                },
                "nodeType": 1
            }
        },
        "gasFlame": [
            {
                "children": [
                    {
                        "children": [
                            {
                                "children": [],
                                "depth": 0,
                                "name": "Initial Gas",
                                "value": 29784
                            },
                            {
                                "children": [
                                    {
                                        "children": [],
                                        "depth": 1,
                                        "name": "ecrecover",
                                        "value": 3000
                                    },
                                    {
                                        "children": [],
                                        "depth": 1,
                                        "name": "transfer",
                                        "value": 14042
                                    }
                                ],
                                "depth": 0,
                                "name": "Executed Gas",
                                "value": 62479
                            }
                        ],
                        "depth": -1,
                        "name": "Actual Gas Used",
                        "value": 77263
                    },
                    {
                        "children": [],
                        "depth": -1,
                        "name": "Refunded Gas",
                        "value": 15000
                    }
                ],
                "depth": -2,
                "name": "Total Gas",
                "value": 92263
            }
        ],
        "isConfirmed": true,
        "mainTrace": [
            {
                "children": [
                    {
                        "children": [
                            {
                                "children": [],
                                "depth": 1,
                                "id": 1,
                                "order": 1
                            },
                            {
                                "children": [
                                    {
                                        "children": [],
                                        "depth": 2,
                                        "id": 3,
                                        "order": 3
                                    }
                                ],
                                "depth": 1,
                                "id": 2,
                                "order": 2
                            },
                            {
                                "children": [],
                                "depth": 1,
                                "id": 4,
                                "order": 4
                            }
                        ],
                        "depth": 0,
                        "id": 0,
                        "order": 0
                    }
                ],
                "depth": -1,
                "id": -1,
                "order": -1
            }
        ],
        "mainTraceNodeCount": 5,
        "parentIdMap": {
            "0": -1,
            "1": 0,
            "2": 0,
            "3": 2,
            "4": 0
        },
        "tidyTrace": [
            {
                "children": [
                    {
                        "children": [
                            {
                                "children": [],
                                "depth": 1,
                                "id": 1,
                                "order": 1
                            },
                            {
                                "children": [
                                    {
                                        "children": [],
                                        "depth": 2,
                                        "id": 3,
                                        "order": 3
                                    }
                                ],
                                "depth": 1,
                                "id": 2,
                                "order": 2
                            },
                            {
                                "children": [],
                                "depth": 1,
                                "id": 4,
                                "order": 4
                            }
                        ],
                        "depth": 0,
                        "id": 0,
                        "order": 0
                    }
                ],
                "depth": -1,
                "id": -1,
                "order": -1
            }
        ],
        "tidyTraceNodeCount": 5
    },
    "state_change": {
        "stateChanges": [
            {
                "address": "0x2a0c0dbecc7e4d658f48e01e3fa353f44050c208",
                "erc": "",
                "slots": [
                    {
                        "current": "0x0000000000000000000000000000000000000000000000000000000000000000",
                        "key": "0x591ef3409a3218a560fdd171d64717979ea02f5e6e548df58fdb54dae72478f1",
                        "prev": "0x0000000000000000000000000000000000000000000000000026e0fdf5b8023b"
                    },
                    {
                        "current": "0x0000000000000000000000000000000000000000000000000005dac725ed30f5",
                        "key": "0x23fb601c59314d927ab7de413b4b074c446e1e27f5647da97b7b42d6e100e61f",
                        "prev": "0x0000000000000000000000000000000000000000000000000005d9ee2d174c12"
                    },
                    {
                        "current": "0x0000000000000000000000000000000000000000000000000000000000632677",
                        "key": "0x61a473a6658299e43392e0984ac05c20a796d9294f392cc1eb3cccfe570fd5c7",
                        "prev": "0x000000000000000000000000000000000000000000000000000000000062e237"
                    },
                    {
                        "current": "0x0000000000000000000000000000000000000000000000000000000000000001",
                        "key": "0x81613fbff92f03209f340c1f70dc61924bf82a476e8dca495b04b375b52db2e2",
                        "prev": "0x0000000000000000000000000000000000000000000000000000000000000000"
                    }
                ],
                "storageVariables": [
                    {
                        "name": "tokens",
                        "type": "mapping(address => mapping(address => uint256))",
                        "value": {
                            "pairs": [
                                {
                                    "key": "0x78c292d1445e6b9558bf42e8bc369271ded062ea",
                                    "value": {
                                        "pairs": [
                                            {
                                                "key": "0x034767f3c519f361c5ecf46ebfc08981c629d381",
                                                "value": {
                                                    "current": "1647923753201909",
                                                    "prev": "1646991865498642",
                                                    "typeTag": 1
                                                }
                                            },
                                            {
                                                "key": "0x97d164e6904e761c3b3865aef2b2971f5aa15f7f",
                                                "value": {
                                                    "current": "0",
                                                    "prev": "10943430468829755",
                                                    "typeTag": 1
                                                }
                                            }
                                        ],
                                        "typeTag": 4
                                    }
                                }
                            ],
                            "typeTag": 4
                        }
                    },
                    {
                        "name": "lastActiveTransaction",
                        "type": "mapping(address => uint256)",
                        "value": {
                            "pairs": [
                                {
                                    "key": "0x97d164e6904e761c3b3865aef2b2971f5aa15f7f",
                                    "value": {
                                        "current": "6497911",
                                        "prev": "6480439",
                                        "typeTag": 1
                                    }
                                }
                            ],
                            "typeTag": 4
                        }
                    },
                    {
                        "name": "withdrawn",
                        "type": "mapping(bytes32 => bool)",
                        "value": {
                            "pairs": [
                                {
                                    "key": "0xf5f5d0f97b4b5c4bfb8f1fecf371d31eb6adbdc0867a99c4aa2c47a2f8449122",
                                    "value": {
                                        "current": "true",
                                        "prev": "false",
                                        "typeTag": 1
                                    }
                                }
                            ],
                            "typeTag": 4
                        }
                    }
                ]
            },
            {
                "address": "0x78c292d1445e6b9558bf42e8bc369271ded062ea",
                "erc": "ERC-20",
                "slots": [
                    {
                        "current": "0x0000000000000000000000000000000000000000000000000035127c3d67dd57",
                        "key": "0xf772b8a594eea3d599899404bb02967171144dd36697d64227628c3a5c15f986",
                        "prev": "0x000000000000000000000000000000000000000000000000000e32574085c000"
                    },
                    {
                        "current": "0x00000000000000000000000000000000000000000000000005b1afa95d2ef865",
                        "key": "0xa6ffd819df9a73bfce2f7812327a640b6389e32615593969214d5b046a2a030e",
                        "prev": "0x00000000000000000000000000000000000000000000000005d88fce5a1115bc"
                    }
                ],
                "storageVariables": [
                    {
                        "name": "balances",
                        "type": "mapping(address => uint256)",
                        "value": {
                            "pairs": [
                                {
                                    "key": "0x2a0c0dbecc7e4d658f48e01e3fa353f44050c208",
                                    "value": {
                                        "current": "410302183015118949",
                                        "prev": "421244681596245436",
                                        "typeTag": 1
                                    }
                                },
                                {
                                    "key": "0x97d164e6904e761c3b3865aef2b2971f5aa15f7f",
                                    "value": {
                                        "current": "14938498581126487",
                                        "prev": "3996000000000000",
                                        "typeTag": 1
                                    }
                                }
                            ],
                            "typeTag": 4
                        }
                    }
                ]
            }
        ]
    }
}