{
    "balance_change": {
        "balanceChanges": [
            {
                "account": "0xb6613cc55866e282638006455390207c1d485be9",
                "assets": [
                    {
                        "address": "0xc02aaa39b223fe8d0a0e5c4f27ead9083c756cc2",
                        "amount": "6.28346594465928505",
                        "iconUrl": "https://assets.blocksec.com/icon/f1cb2d02c471d545bbc7722daf3277fd852d98e63d118771af7047bd8256c516.png",
                        "isERC1155": false,
                        "isERC721": false,
                        "sign": true,
                        "value": "21776.098336498360121"
                    },
                    {
                        "address": "0x2260fac5e5542a773aa44fbcfedf7c193bc2c599",
                        "amount": "0.32566497",
                        "iconUrl": "https://assets.blocksec.com/icon/878f2983cb21c5816eb5879d9b6f7a3fe2eb6fce7560c367a0315527852a8a84.png",
                        "isERC1155": false,
                        "isERC721": false,
                        "sign": false,
                        "value": "21490.957035269999999"
                    },
                    {
                        "address": "0xeeeeeeeeeeeeeeeeeeeeeeeeeeeeeeeeeeeeeeee",
                        "amount": "0.000264235286073184",
                        "iconUrl": "https://assets.blocksec.com/image/1663669189317-3.png",
                        "isERC1155": false,
                        "isERC721": false,
                        "sign": false,
                        "value": "0.915738801555067274"
                    }
                ]
            },
            {
                "account": "0x95222290dd7278aa3ddd389cc1e1d165cc4bafe5",
                "assets": [
                    {
                        "address": "0xeeeeeeeeeeeeeeeeeeeeeeeeeeeeeeeeeeeeeeee",
                        "amount": "0.000264235286073184",
                        "iconUrl": "https://assets.blocksec.com/image/1663669189317-3.png",
                        "isERC1155": false,
                        "isERC721": false,
                        "sign": true,
                        "value": "0.915738801555067274"
                    }
                ]
            },
            {
                "account": "0xe6ff8b9a37b0fab776134636d9981aa778c4e718",
                "assets": [
                    {
                        "address": "0xc02aaa39b223fe8d0a0e5c4f27ead9083c756cc2",
                        "amount": "6.28346594465928505",
                        "iconUrl": "https://assets.blocksec.com/icon/f1cb2d02c471d545bbc7722daf3277fd852d98e63d118771af7047bd8256c516.png",
                        "isERC1155": false,
                        "isERC721": false,
                        "sign": false,
                        "value": "21776.098336498360121"
                    },
                    {
                        "address": "0x2260fac5e5542a773aa44fbcfedf7c193bc2c599",
                        "amount": "0.32566497",
                        "iconUrl": "https://assets.blocksec.com/icon/878f2983cb21c5816eb5879d9b6f7a3fe2eb6fce7560c367a0315527852a8a84.png",
                        "isERC1155": false,
                        "isERC721": false,
                        "sign": true,
                        "value": "21490.957035269999999"
                    }
                ]
            }
        ]
    },
    "profile": {
        "basic_info": {
            "baseFee": "4.738780827",
            "blockNumber": 20370801,
            "callData": "0xaa9beceb000000000000000000000000e6ff8b9a37b0fab776134636d9981aa778c4e7180000000000000000000000002260fac5e5542a773aa44fbcfedf7c193bc2c599000000000000000000000000c02aaa39b223fe8d0a0e5c4f27ead9083c756cc2000000000000000000000000000000000000000000000000000000000ca366f900000000000000000000000000000000000000000000000038c26907f2ff1e00000000000000000000000000000000000000000000000000000000000136d5710000000000000000000000000000000000000000000000000ddff14a87f1720000000000000000000000000000000000000000026f202441f08c8000000000000000000000000000000000000000000000000000000000000000000000000064000000000000000000000000000000000006b3ae450c542380000000000000000000000000000000000000000000000000000000000000000000000000000032",
            "debugEnable": true,
            "errorInfo": "",
            "eventCount": 3,
            "feeRecipient": "0x95222290dd7278aa3ddd389cc1e1d165cc4bafe5",
            "formatValue": "0",
            "gasLimit": 3000000,
            "gasPrice": "4.738780827",
            "gasUsed": 124853,
            "intTxnCount": 7,
            "internalRevert": false,
            "internalRevertMessage": "",
            "isContractCreation": false,
            "isFlashloan": false,
            "maxFee": "4.738780827",
            "nonce": 601,
            "overwritedBlockNumber": -1,
            "priorityFee": "0",
            "receiver": "0xb6613cc55866e282638006455390207c1d485be9",
            "revertMessage": "",
            "sender": "0x802c01a23008f909052240cdaae285996e10f6b9",
            "simulationEnable": true,
            "sourceTxnHash": "0x30162c2f9020de8a51e79262b14a02ab3af6548349ff397f1b4612d18bc1d997",
            "status": true,
            "timestamp": "2024-07-23T17:43:11Z",
            "transactionFee": "0.000591651002593431",
            "txnHash": "0x30162c2f9020de8a51e79262b14a02ab3af6548349ff397f1b4612d18bc1d997",
            "txnIndex": 31,
            "type": 2,
            "value": "0"
        },
        "fund_flow": [
            {
                "amount": "6.28346594465928505",
                "from": "0xe6ff8b9a37b0fab776134636d9981aa778c4e718",
                "id": 1,
                "isERC1155": false,
                "isERC721": false,
                "isReverted": false,
                "order": 1,
                "to": "0xb6613cc55866e282638006455390207c1d485be9",
                "token": "0xc02aaa39b223fe8d0a0e5c4f27ead9083c756cc2"
            },
            {
                "amount": "0.32566497",
                "from": "0xb6613cc55866e282638006455390207c1d485be9",
                "id": 2,
                "isERC1155": false,
                "isERC721": false,
                "isReverted": false,
                "order": 2,
                "to": "0xe6ff8b9a37b0fab776134636d9981aa778c4e718",
                "token": "0x2260fac5e5542a773aa44fbcfedf7c193bc2c599"
            },
            {
                "amount": "0.000264235286073184",
                "from": "0xb6613cc55866e282638006455390207c1d485be9",
                "id": 3,
                "isERC1155": false,
                "isERC721": false,
                "isReverted": false,
                "order": 3,
                "to": "0x95222290dd7278aa3ddd389cc1e1d165cc4bafe5",
                "token": "0xeeeeeeeeeeeeeeeeeeeeeeeeeeeeeeeeeeeeeeee"
            }
        ],
        "token_infos": [
            {
                "address": "0xeeeeeeeeeeeeeeeeeeeeeeeeeeeeeeeeeeeeeeee",
                "decimals": 18
            },
            {
                "address": "0x2260fac5e5542a773aa44fbcfedf7c193bc2c599",
                "decimals": 8
            },
            {
                "address": "0xc02aaa39b223fe8d0a0e5c4f27ead9083c756cc2",
                "decimals": 18
            }
        ]
    },
    "address_label": {
        "labels": [
            {
                "address": "0xc02aaa39b223fe8d0a0e5c4f27ead9083c756cc2",
                "label": "Wrapped Ether (WETH)"
            },
            {
                "address": "0x0000000000000000000000000000000000000001",
                "label": "Precompiled"
            },
            {
                "address": "0x0000000000000000000000000000000000000003",
                "label": "Precompiled"
            },
            {
                "address": "0x0000000000000000000000000000000000000004",
                "label": "Precompiled"
            },
            {
                "address": "0xeeeeeeeeeeeeeeeeeeeeeeeeeeeeeeeeeeeeeeee",
                "label": "Ether"
            },
            {
                "address": "0xe6ff8b9a37b0fab776134636d9981aa778c4e718",
                "label": "Uniswap V3: WBTC 4"
            },
            {
                "address": "0x2260fac5e5542a773aa44fbcfedf7c193bc2c599",
                "label": "Wrapped BTC: WBTC Token"
            },
            {
                "address": "0x95222290dd7278aa3ddd389cc1e1d165cc4bafe5",
                "label": "beaverbuild"
            },
            {
                "address": "0x0000000000000000000000000000000000000002",
                "label": "Precompiled"
            }
        ]
    },
    "trace": {
        "accountLabels": null,
        "dataMap": {
            "-1": {
                "invocation": {
                    "address": "0x802c01a23008f909052240cdaae285996e10f6b9",
                    "callData": "",
                    "decodedMethod": null,
                    "errorInfo": "",
                    "fromAddress": "",
                    "gasUsed": 0,
                    "id": -1,
                    "methodDecoded": false,
                    "operation": "",
                    "output": "",
                    "revert": false,
                    "revertMessage": "",
                    "selector": "",
                    "status": false,
                    "value": ""
                },
                "nodeType": 0
            },
            "0": {
                "invocation": {
                    "address": "0xb6613cc55866e282638006455390207c1d485be9",
                    "callData": "0x000000000000000000000000e6ff8b9a37b0fab776134636d9981aa778c4e7180000000000000000000000002260fac5e5542a773aa44fbcfedf7c193bc2c599000000000000000000000000c02aaa39b223fe8d0a0e5c4f27ead9083c756cc2000000000000000000000000000000000000000000000000000000000ca366f900000000000000000000000000000000000000000000000038c26907f2ff1e00000000000000000000000000000000000000000000000000000000000136d5710000000000000000000000000000000000000000000000000ddff14a87f1720000000000000000000000000000000000000000026f202441f08c8000000000000000000000000000000000000000000000000000000000000000000000000064000000000000000000000000000000000006b3ae450c542380000000000000000000000000000000000000000000000000000000000000000000000000000032",
                    "decodedMethod": null,
                    "errorInfo": "",
                    "fromAddress": "0x802c01a23008f909052240cdaae285996e10f6b9",
                    "gasUsed": 124853,
                    "id": 0,
                    "methodDecoded": false,
                    "operation": "CALL",
                    "output": "",
                    "revert": false,
                    "revertMessage": "",
                    "selector": "0xaa9beceb",
                    "status": true,
                    "value": "0"
                },
                "nodeType": 0
            },
            "1": {
                "invocation": {
                    "address": "0xe6ff8b9a37b0fab776134636d9981aa778c4e718",
                    "callData": "0x000000000000000000000000b6613cc55866e282638006455390207c1d485be90000000000000000000000000000000000000000000000000000000000000001000000000000000000000000000000000000000000000000000000000ca366f9000000000000000000000000000000000006b3ae450c5423800000000000000000000000000000000000000000000000000000000000000000000000000000a000000000000000000000000000000000000000000000000000000000000000600000000000000000000000002260fac5e5542a773aa44fbcfedf7c193bc2c5990000000000000000000000000000000000000000000000000000000000000064000000000000000000000000c02aaa39b223fe8d0a0e5c4f27ead9083c756cc2",
                    "decodedMethod": {
                        "callParams": [
                            {
                                "name": "recipient",
                                "type": "address",
                                "value": "0xb6613cc55866e282638006455390207c1d485be9"
                            },
                            {
                                "name": "zeroForOne",
                                "type": "bool",
                                "value": true
                            },
                            {
                                "name": "amountSpecified",
                                "type": "int256",
                                "value": "212,035,321"
                            },
                            {
                                "name": "sqrtPriceLimitX96",
                                "type": "uint160",
                                "value": "34,798,139,539,910,217,923,971,771,596,275,712"
                            },
                            {
                                "name": "data",
                                "type": "bytes",
                                "value": "0x0000000000000000000000002260fac5e5542a773aa44fbcfedf7c193bc2c5990000000000000000000000000000000000000000000000000000000000000064000000000000000000000000c02aaa39b223fe8d0a0e5c4f27ead9083c756cc2"
                            }
                        ],
                        "constructorArguments": "",
                        "name": "swap",
                        "returnParams": [
                            {
                                "name": "amount0",
                                "type": "int256",
                                "value": "32,566,497"
                            },
                            {
                                "name": "amount1",
                                "type": "int256",
                                "value": "-6,283,465,944,659,285,050"
                            }
                        ],
                        "signature": "swap(address,bool,int256,uint160,bytes)"
                    },
                    "errorInfo": "",
                    "fromAddress": "0xb6613cc55866e282638006455390207c1d485be9",
                    "gasUsed": 77602,
                    "id": 1,
                    "methodDecoded": true,
                    "operation": "CALL",
                    "output": "0x0000000000000000000000000000000000000000000000000000000001f0ece1ffffffffffffffffffffffffffffffffffffffffffffffffa8cca503ba51abc6",
                    "revert": false,
                    "revertMessage": "",
                    "selector": "0x128acb08",
                    "status": true,
                    "value": "0"
                },
                "nodeType": 0
            },
            "10": {
                "invocation": {
                    "address": "0x95222290dd7278aa3ddd389cc1e1d165cc4bafe5",
                    "callData": "0x",
                    "decodedMethod": null,
                    "errorInfo": "",
                    "fromAddress": "0xb6613cc55866e282638006455390207c1d485be9",
                    "gasUsed": 0,
                    "id": 10,
                    "methodDecoded": false,
                    "operation": "CALL",
                    "output": "",
                    "revert": false,
                    "revertMessage": "",
                    "selector": "fallback",
                    "status": true,
                    "value": "0.000264235286073184"
                },
                "nodeType": 0
            },
            "2": {
                "invocation": {
                    "address": "0xc02aaa39b223fe8d0a0e5c4f27ead9083c756cc2",
                    "callData": "0x000000000000000000000000b6613cc55866e282638006455390207c1d485be900000000000000000000000000000000000000000000000057335afc45ae543a",
                    "decodedMethod": {
                        "callParams": [
                            {
                                "name": "dst",
                                "type": "address",
                                "value": "0xb6613cc55866e282638006455390207c1d485be9"
                            },
                            {
                                "decimalAvailable": true,
                                "name": "wad",
                                "type": "uint256",
                                "value": "6,283,465,944,659,285,050"
                            }
                        ],
                        "constructorArguments": "",
                        "name": "transfer",
                        "returnParams": [
                            {
                                "name": "",
                                "type": "bool",
                                "value": true
                            }
                        ],
                        "signature": "transfer(address,uint256)"
                    },
                    "errorInfo": "",
                    "fromAddress": "0xe6ff8b9a37b0fab776134636d9981aa778c4e718",
                    "gasUsed": 12862,
                    "id": 2,
                    "methodDecoded": true,
                    "operation": "CALL",
                    "output": "0x0000000000000000000000000000000000000000000000000000000000000001",
                    "revert": false,
                    "revertMessage": "",
                    "selector": "0xa9059cbb",
                    "status": true,
                    "value": "0"
                },
                "nodeType": 0
            },
            "3": {
                "event": {
                    "contract": "0xc02aaa39b223fe8d0a0e5c4f27ead9083c756cc2",
                    "decodedLog": {
                        "name": "Transfer",
                        "params": [
                            {
                                "name": "src",
                                "type": "address",
                                "value": "0xe6ff8b9a37b0fab776134636d9981aa778c4e718"
                            },
                            {
                                "name": "dst",
                                "type": "address",
                                "value": "0xb6613cc55866e282638006455390207c1d485be9"
                            },
                            {
                                "decimalAvailable": true,
                                "name": "wad",
                                "type": "uint256",
                                "value": "6,283,465,944,659,285,050"
                            }
                        ],
                        "signature": "Transfer(address,address,uint256)"
                    },
                    "id": 3,
                    "logData": "0x00000000000000000000000000000000000000000000000057335afc45ae543a",
                    "logDecoded": true,
                    "operation": "EVENT",
                    "revert": false,
                    "status": true,
                    "topics": [
                        "0xddf252ad1be2c89b69c2b068fc378daa952ba7f163c4a11628f55a4df523b3ef",
                        "0x000000000000000000000000e6ff8b9a37b0fab776134636d9981aa778c4e718",
                        "0x000000000000000000000000b6613cc55866e282638006455390207c1d485be9"
                    ]
                },
                "nodeType": 1
            },
            "4": {
                "invocation": {
                    "address": "0x2260fac5e5542a773aa44fbcfedf7c193bc2c599",
                    "callData": "0x000000000000000000000000e6ff8b9a37b0fab776134636d9981aa778c4e718",
                    "decodedMethod": {
                        "callParams": [
                            {
                                "name": "_owner",
                                "type": "address",
                                "value": "0xe6ff8b9a37b0fab776134636d9981aa778c4e718"
                            }
                        ],
                        "constructorArguments": "",
                        "name": "balanceOf",
                        "returnParams": [
                            {
                                "decimalAvailable": true,
                                "name": "",
                                "type": "uint256",
                                "value": "2,109,707,855"
                            }
                        ],
                        "signature": "balanceOf(address)"
                    },
                    "errorInfo": "",
                    "fromAddress": "0xe6ff8b9a37b0fab776134636d9981aa778c4e718",
                    "gasUsed": 2795,
                    "id": 4,
                    "methodDecoded": true,
                    "operation": "STATICCALL",
                    "output": "0x000000000000000000000000000000000000000000000000000000007dbf964f",
                    "revert": false,
                    "revertMessage": "",
                    "selector": "0x70a08231",
                    "status": true,
                    "value": "0"
                },
                "nodeType": 0
            },
            "5": {
                "invocation": {
                    "address": "0xb6613cc55866e282638006455390207c1d485be9",
                    "callData": "0x0000000000000000000000000000000000000000000000000000000001f0ece1ffffffffffffffffffffffffffffffffffffffffffffffffa8cca503ba51abc6000000000000000000000000000000000000000000000000000000000000006000000000000000000000000000000000000000000000000000000000000000600000000000000000000000002260fac5e5542a773aa44fbcfedf7c193bc2c5990000000000000000000000000000000000000000000000000000000000000064000000000000000000000000c02aaa39b223fe8d0a0e5c4f27ead9083c756cc2",
                    "decodedMethod": {
                        "callParams": [
                            {
                                "name": "amount0Delta",
                                "type": "int256",
                                "value": "32,566,497"
                            },
                            {
                                "name": "amount1Delta",
                                "type": "int256",
                                "value": "-6,283,465,944,659,285,050"
                            },
                            {
                                "name": "data",
                                "type": "bytes",
                                "value": "0x0000000000000000000000002260fac5e5542a773aa44fbcfedf7c193bc2c5990000000000000000000000000000000000000000000000000000000000000064000000000000000000000000c02aaa39b223fe8d0a0e5c4f27ead9083c756cc2"
                            }
                        ],
                        "constructorArguments": "",
                        "name": "uniswapV3SwapCallback",
                        "returnParams": [],
                        "signature": "uniswapV3SwapCallback(int256,int256,bytes)"
                    },
                    "errorInfo": "",
                    "fromAddress": "0xe6ff8b9a37b0fab776134636d9981aa778c4e718",
                    "gasUsed": 17454,
                    "id": 5,
                    "methodDecoded": true,
                    "operation": "CALL",
                    "output": "",
                    "revert": false,
                    "revertMessage": "",
                    "selector": "0xfa461e33",
                    "status": true,
                    "value": "0"
                },
                "nodeType": 0
            },
            "6": {
                "invocation": {
                    "address": "0x2260fac5e5542a773aa44fbcfedf7c193bc2c599",
                    "callData": "0x000000000000000000000000e6ff8b9a37b0fab776134636d9981aa778c4e7180000000000000000000000000000000000000000000000000000000001f0ece1",
                    "decodedMethod": {
                        "callParams": [
                            {
                                "name": "_to",
                                "type": "address",
                                "value": "0xe6ff8b9a37b0fab776134636d9981aa778c4e718"
                            },
                            {
                                "decimalAvailable": true,
                                "name": "_value",
                                "type": "uint256",
                                "value": "32,566,497"
                            }
                        ],
                        "constructorArguments": "",
                        "name": "transfer",
                        "returnParams": [
                            {
                                "name": "",
                                "type": "bool",
                                "value": true
                            }
                        ],
                        "signature": "transfer(address,uint256)"
                    },
                    "errorInfo": "",
                    "fromAddress": "0xb6613cc55866e282638006455390207c1d485be9",
                    "gasUsed": 13703,
                    "id": 6,
                    "methodDecoded": true,
                    "operation": "CALL",
                    "output": "0x0000000000000000000000000000000000000000000000000000000000000001",
                    "revert": false,
                    "revertMessage": "",
                    "selector": "0xa9059cbb",
                    "status": true,
                    "value": "0"
                },
                "nodeType": 0
            },
            "7": {
                "event": {
                    "contract": "0x2260fac5e5542a773aa44fbcfedf7c193bc2c599",
                    "decodedLog": {
                        "name": "Transfer",
                        "params": [
                            {
                                "name": "from",
                                "type": "address",
                                "value": "0xb6613cc55866e282638006455390207c1d485be9"
                            },
                            {
                                "name": "to",
                                "type": "address",
                                "value": "0xe6ff8b9a37b0fab776134636d9981aa778c4e718"
                            },
                            {
                                "decimalAvailable": true,
                                "name": "value",
                                "type": "uint256",
                                "value": "32,566,497"
                            }
                        ],
                        "signature": "Transfer(address,address,uint256)"
                    },
                    "id": 7,
                    "logData": "0x0000000000000000000000000000000000000000000000000000000001f0ece1",
                    "logDecoded": true,
                    "operation": "EVENT",
                    "revert": false,
                    "status": true,
                    "topics": [
                        "0xddf252ad1be2c89b69c2b068fc378daa952ba7f163c4a11628f55a4df523b3ef",
                        "0x000000000000000000000000b6613cc55866e282638006455390207c1d485be9",
                        "0x000000000000000000000000e6ff8b9a37b0fab776134636d9981aa778c4e718"
                    ]
                },
                "nodeType": 1
            },
            "8": {
                "invocation": {
                    "address": "0x2260fac5e5542a773aa44fbcfedf7c193bc2c599",
                    "callData": "0x000000000000000000000000e6ff8b9a37b0fab776134636d9981aa778c4e718",
                    "decodedMethod": {
                        "callParams": [
                            {
                                "name": "_owner",
                                "type": "address",
                                "value": "0xe6ff8b9a37b0fab776134636d9981aa778c4e718"
                            }
                        ],
                        "constructorArguments": "",
                        "name": "balanceOf",
                        "returnParams": [
                            {
                                "decimalAvailable": true,
                                "name": "",
                                "type": "uint256",
                                "value": "2,142,274,352"
                            }
                        ],
                        "signature": "balanceOf(address)"
                    },
                    "errorInfo": "",
                    "fromAddress": "0xe6ff8b9a37b0fab776134636d9981aa778c4e718",
                    "gasUsed": 795,
                    "id": 8,
                    "methodDecoded": true,
                    "operation": "STATICCALL",
                    "output": "0x000000000000000000000000000000000000000000000000000000007fb08330",
                    "revert": false,
                    "revertMessage": "",
                    "selector": "0x70a08231",
                    "status": true,
                    "value": "0"
                },
                "nodeType": 0
            },
            "9": {
                "event": {
                    "contract": "0xe6ff8b9a37b0fab776134636d9981aa778c4e718",
                    "decodedLog": {
                        "name": "Swap",
                        "params": [
                            {
                                "name": "sender",
                                "type": "address",
                                "value": "0xb6613cc55866e282638006455390207c1d485be9"
                            },
                            {
                                "name": "recipient",
                                "type": "address",
                                "value": "0xb6613cc55866e282638006455390207c1d485be9"
                            },
                            {
                                "name": "amount0",
                                "type": "int256",
                                "value": "32,566,497"
                            },
                            {
                                "name": "amount1",
                                "type": "int256",
                                "value": "-6,283,465,944,659,285,050"
                            },
                            {
                                "name": "sqrtPriceX96",
                                "type": "uint160",
                                "value": "34,798,139,539,910,217,923,971,771,596,275,712"
                            },
                            {
                                "name": "liquidity",
                                "type": "uint128",
                                "value": "52,302,301,075,272,545"
                            },
                            {
                                "name": "tick",
                                "type": "int24",
                                "value": "259,867"
                            }
                        ],
                        "signature": "Swap(address,address,int256,int256,uint160,uint128,int24)"
                    },
                    "id": 9,
                    "logData": "0x0000000000000000000000000000000000000000000000000000000001f0ece1ffffffffffffffffffffffffffffffffffffffffffffffffa8cca503ba51abc6000000000000000000000000000000000006b3ae450c5423800000000000000000000000000000000000000000000000000000000000000000b9d0aa6c86f361000000000000000000000000000000000000000000000000000000000003f71b",
                    "logDecoded": true,
                    "operation": "EVENT",
                    "revert": false,
                    "status": true,
                    "topics": [
                        "0xc42079f94a6350d7e6235f29174924f928cc2ac818eb64fed8004e115fbcca67",
                        "0x000000000000000000000000b6613cc55866e282638006455390207c1d485be9",
                        "0x000000000000000000000000b6613cc55866e282638006455390207c1d485be9"
                    ]
                },
                "nodeType": 1
            }
        },
        "gasFlame": [
            {
                "children": [
                    {
                        "children": [
                            {
                                "children": [],
                                "depth": 0,
                                "name": "Initial Gas",
                                "value": 23672
                            },
                            {
                                "children": [
                                    {
                                        "children": [
                                            {
                                                "children": [],
                                                "depth": 2,
                                                "name": "transfer",
                                                "value": 12862
                                            },
                                            {
                                                "children": [],
                                                "depth": 2,
                                                "name": "balanceOf",
                                                "value": 2795
                                            },
                                            {
                                                "children": [
                                                    {
                                                        "children": [],
                                                        "depth": 3,
                                                        "name": "transfer",
                                                        "value": 13703
                                                    }
                                                ],
                                                "depth": 2,
                                                "name": "uniswapV3SwapCallback",
                                                "value": 17454
                                            },
                                            {
                                                "children": [],
                                                "depth": 2,
                                                "name": "balanceOf",
                                                "value": 795
                                            }
                                        ],
                                        "depth": 1,
                                        "name": "swap",
                                        "value": 77602
                                    },
                                    {
                                        "children": [],
                                        "depth": 1,
                                        "name": "fallback",
                                        "value": 0
                                    }
                                ],
                                "depth": 0,
                                "name": "Executed Gas",
                                "value": 101181
                            }
                        ],
                        "depth": -1,
                        "name": "Actual Gas Used",
                        "value": 124853
                    },
                    {
                        "children": [],
                        "depth": -1,
                        "name": "Refunded Gas",
                        "value": 0
                    }
                ],
                "depth": -2,
                "name": "Total Gas",
                "value": 124853
            }
        ],
        "isConfirmed": true,
        "mainTrace": [
            {
                "children": [
                    {
                        "children": [
                            {
                                "children": [
                                    {
                                        "children": [
                                            {
                                                "children": [],
                                                "depth": 3,
                                                "id": 3,
                                                "order": 3
                                            }
                                        ],
                                        "depth": 2,
                                        "id": 2,
                                        "order": 2
                                    },
                                    {
                                        "children": [],
                                        "depth": 2,
                                        "id": 4,
                                        "order": 4
                                    },
                                    {
                                        "children": [
                                            {
                                                "children": [
                                                    {
                                                        "children": [],
                                                        "depth": 4,
                                                        "id": 7,
                                                        "order": 7
                                                    }
                                                ],
                                                "depth": 3,
                                                "id": 6,
                                                "order": 6
                                            }
                                        ],
                                        "depth": 2,
                                        "id": 5,
                                        "order": 5
                                    },
                                    {
                                        "children": [],
                                        "depth": 2,
                                        "id": 8,
                                        "order": 8
                                    },
                                    {
                                        "children": [],
                                        "depth": 2,
                                        "id": 9,
                                        "order": 9
                                    }
                                ],
                                "depth": 1,
                                "id": 1,
                                "order": 1
                            },
                            {
                                "children": [],
                                "depth": 1,
                                "id": 10,
                                "order": 10
                            }
                        ],
                        "depth": 0,
                        "id": 0,
                        "order": 0
                    }
                ],
                "depth": -1,
                "id": -1,
                "order": -1
            }
        ],
        "mainTraceNodeCount": 11,
        "parentIdMap": {
            "0": -1,
            "1": 0,
            "10": 0,
            "2": 1,
            "3": 2,
            "4": 1,
            "5": 1,
            "6": 5,
            "7": 6,
            "8": 1,
            "9": 1
        },
        "tidyTrace": [
            {
                "children": [
                    {
                        "children": [
                            {
                                "children": [
                                    {
                                        "children": [
                                            {
                                                "children": [],
                                                "depth": 3,
                                                "id": 3,
                                                "order": 3
                                            }
                                        ],
                                        "depth": 2,
                                        "id": 2,
                                        "order": 2
                                    },
                                    {
                                        "children": [
                                            {
                                                "children": [
                                                    {
                                                        "children": [],
                                                        "depth": 4,
                                                        "id": 7,
                                                        "order": 7
                                                    }
                                                ],
                                                "depth": 3,
                                                "id": 6,
                                                "order": 6
                                            }
                                        ],
                                        "depth": 2,
                                        "id": 5,
                                        "order": 5
                                    },
                                    {
                                        "children": [],
                                        "depth": 2,
                                        "id": 9,
                                        "order": 9
                                    }
                                ],
                                "depth": 1,
                                "id": 1,
                                "order": 1
                            },
                            {
                                "children": [],
                                "depth": 1,
                                "id": 10,
                                "order": 10
                            }
                        ],
                        "depth": 0,
                        "id": 0,
                        "order": 0
                    }
                ],
                "depth": -1,
                "id": -1,
                "order": -1
            }
        ],
        "tidyTraceNodeCount": 9
    },
    "state_change": {
        "stateChanges": [
            {
                "address": "0x2260fac5e5542a773aa44fbcfedf7c193bc2c599",
                "erc": "ERC-20",
                "slots": [
                    {
                        "current": "0x0000000000000000000000000000000000000000000000000000000091ed26e5",
                        "key": "0x0ce3ff9d181ffc861cbdac3c5d434c0ccd360de8ce34f84e7ca0ef4b1957b235",
                        "prev": "0x0000000000000000000000000000000000000000000000000000000093de13c6"
                    },
                    {
                        "current": "0x000000000000000000000000000000000000000000000000000000007fb08330",
                        "key": "0x72ed84c161946f627622700d5a9a9b5c7bd5bb3de6480b5eb052f957a91a5856",
                        "prev": "0x000000000000000000000000000000000000000000000000000000007dbf964f"
                    }
                ],
                "storageVariables": [
                    {
                        "name": "balances",
                        "type": "mapping(address => uint256)",
                        "value": {
                            "pairs": [
                                {
                                    "key": "0xb6613cc55866e282638006455390207c1d485be9",
                                    "value": {
                                        "current": "2448238309",
                                        "prev": "2480804806",
                                        "typeTag": 1
                                    }
                                },
                                {
                                    "key": "0xe6ff8b9a37b0fab776134636d9981aa778c4e718",
                                    "value": {
                                        "current": "2142274352",
                                        "prev": "2109707855",
                                        "typeTag": 1
                                    }
                                }
                            ],
                            "typeTag": 4
                        }
                    }
                ]
            },
            {
                "address": "0xc02aaa39b223fe8d0a0e5c4f27ead9083c756cc2",
                "erc": "ERC-20",
                "slots": [
                    {
                        "current": "0x000000000000000000000000000000000000000000000006315e34d39c7f2d8d",
                        "key": "0xec660e1e080fb1f28dab280c0cb6555838471a4a0a0e01e95c0406ebfaaf3f49",
                        "prev": "0x00000000000000000000000000000000000000000000000688918fcfe22d81c7"
                    },
                    {
                        "current": "0x0000000000000000000000000000000000000000000000185a4f0d6721bf667a",
                        "key": "0x8328217d6feab771881379cb28c7b8ef7060ef1f0c833cefc08746e17cfa9f4b",
                        "prev": "0x000000000000000000000000000000000000000000000018031bb26adc111240"
                    }
                ],
                "storageVariables": [
                    {
                        "name": "balanceOf",
                        "type": "mapping(address => uint256)",
                        "value": {
                            "pairs": [
                                {
                                    "key": "0xb6613cc55866e282638006455390207c1d485be9",
                                    "value": {
                                        "current": "449229292492201879162",
                                        "prev": "442945826547542594112",
                                        "typeTag": 1
                                    }
                                },
                                {
                                    "key": "0xe6ff8b9a37b0fab776134636d9981aa778c4e718",
                                    "value": {
                                        "current": "114237803281394904461",
                                        "prev": "120521269226054189511",
                                        "typeTag": 1
                                    }
                                }
                            ],
                            "typeTag": 4
                        }
                    }
                ]
            },
            {
                "address": "0xe6ff8b9a37b0fab776134636d9981aa778c4e718",
                "erc": "",
                "slots": [
                    {
                        "current": "0x0100196a4d0001c5291e9f3174683f61ec7dc474530013bfb05238be669febaf",
                        "key": "0x0000000000000000000000000000000000000000000000000000000000000035",
                        "prev": "0x0100196a4d0001c5291e7def2f32bff5624394ccac0013bf5098e3de669fd38b"
                    },
                    {
                        "current": "0x00000000000000000000000000000000000000194f429542f0022df3118c09a9",
                        "key": "0x0000000000000000000000000000000000000000000000000000000000000001",
                        "prev": "0x00000000000000000000000000000000000000194f310e0c51b38cbb1edfb392"
                    },
                    {
                        "current": "0x00010000500050002d03f71b000000000006b3ae450c54238000000000000000",
                        "key": "0x0000000000000000000000000000000000000000000000000000000000000000",
                        "prev": "0x00010000500050002c03f721000000000006b426683d55bca1f483244312e021"
                    }
                ],
                "storageVariables": []
            }
        ]
    }
}