{
    "balance_change": {
        "balanceChanges": [
            {
                "account": "0xec842c822ca8de8774edd5459fcb0cf752c2b54b",
                "assets": [
                    {
                        "address": "0x08ceed1e8db59acbb687a5752f0a7db815cfda5e",
                        "amount": "0.0298",
                        "iconUrl": "",
                        "isERC1155": false,
                        "isERC721": false,
                        "sign": false,
                        "value": ""
                    }
                ]
            },
            {
                "account": "0x90176ff02b2b771a2dbd32a1447ba0fc5e668a23",
                "assets": [
                    {
                        "address": "0x08ceed1e8db59acbb687a5752f0a7db815cfda5e",
                        "amount": "0.0298",
                        "iconUrl": "",
                        "isERC1155": false,
                        "isERC721": false,
                        "sign": true,
                        "value": ""
                    }
                ]
            }
        ]
    },
    "profile": {
        "basic_info": {
            "baseFee": "",
            "blockNumber": 6841800,
            "callData": "0xa9059cbb00000000000000000000000090176ff02b2b771a2dbd32a1447ba0fc5e668a230000000000000000000000000000000000000000000000000069def12e4e8000",
            "debugEnable": true,
            "errorInfo": "",
            "eventCount": 1,
            "feeRecipient": "0xea674fdde714fd979de3edf0f56aa9716b898ec8",
            "formatValue": "0",
            "gasLimit": 100000,
            "gasPrice": "10",
            "gasUsed": 37281,
            "intTxnCount": 0,
            "internalRevert": false,
            "internalRevertMessage": "",
            "isContractCreation": false,
            "isFlashloan": false,
            "maxFee": "",
            "nonce": 1841,
            "overwritedBlockNumber": -1,
            "priorityFee": "",
            "receiver": "0x08ceed1e8db59acbb687a5752f0a7db815cfda5e",
            "revertMessage": "",
            "sender": "0xec842c822ca8de8774edd5459fcb0cf752c2b54b",
            "simulationEnable": true,
            "sourceTxnHash": "0x30ea7cf931c4e03fd99411a51b6d1cfddd2eaad1241a5490843094752fdfe74a",
            "status": true,
            "timestamp": "2018-12-07T09:14:49Z",
            "transactionFee": "0.00037281",
            "txnHash": "0x30ea7cf931c4e03fd99411a51b6d1cfddd2eaad1241a5490843094752fdfe74a",
            "txnIndex": 102,
            "type": 0,
            "value": "0"
        },
        "fund_flow": [
            {
                "amount": "0.0298",
                "from": "0xec842c822ca8de8774edd5459fcb0cf752c2b54b",
                "id": 1,
                "isERC1155": false,
                "isERC721": false,
                "isReverted": false,
                "order": 1,
                "to": "0x90176ff02b2b771a2dbd32a1447ba0fc5e668a23",
                "token": "0x08ceed1e8db59acbb687a5752f0a7db815cfda5e"
            }
        ],
        "token_infos": [
            {
                "address": "0x08ceed1e8db59acbb687a5752f0a7db815cfda5e",
                "decimals": 18
            },
            {
                "address": "0xc02aaa39b223fe8d0a0e5c4f27ead9083c756cc2",
                "decimals": 18
            },
            {
                "address": "0xeeeeeeeeeeeeeeeeeeeeeeeeeeeeeeeeeeeeeeee",
                "decimals": 18
            }
        ]
    },
    "address_label": {
        "labels": [
            {
                "address": "0x08ceed1e8db59acbb687a5752f0a7db815cfda5e",
                "label": "Electronic Energy Coin"
            },
            {
                "address": "0x0000000000000000000000000000000000000001",
                "label": "Precompiled"
            },
            {
                "address": "0x0000000000000000000000000000000000000002",
                "label": "Precompiled"
            },
            {
                "address": "0x0000000000000000000000000000000000000003",
                "label": "Precompiled"
            },
            {
                "address": "0x0000000000000000000000000000000000000004",
                "label": "Precompiled"
            },
            {
                "address": "0xeeeeeeeeeeeeeeeeeeeeeeeeeeeeeeeeeeeeeeee",
                "label": "Ether"
            }
        ]
    },
    "trace": {
        "accountLabels": null,
        "dataMap": {
            "-1": {
                "invocation": {
                    "address": "0xec842c822ca8de8774edd5459fcb0cf752c2b54b",
                    "callData": "",
                    "decodedMethod": null,
                    "errorInfo": "",
                    "fromAddress": "",
                    "gasUsed": 0,
                    "id": -1,
                    "methodDecoded": false,
                    "operation": "",
                    "output": "",
                    "revert": false,
                    "revertMessage": "",
                    "selector": "",
                    "status": false,
                    "value": ""
                },
                "nodeType": 0
            },
            "0": {
                "invocation": {
                    "address": "0x08ceed1e8db59acbb687a5752f0a7db815cfda5e",
                    "callData": "0x00000000000000000000000090176ff02b2b771a2dbd32a1447ba0fc5e668a230000000000000000000000000000000000000000000000000069def12e4e8000",
                    "decodedMethod": {
                        "callParams": [
                            {
                                "name": "_to",
                                "type": "address",
                                "value": "0x90176ff02b2b771a2dbd32a1447ba0fc5e668a23"
                            },
                            {
                                "decimalAvailable": true,
                                "name": "_value",
                                "type": "uint256",
                                "value": "29,800,000,000,000,000"
                            }
                        ],
                        "constructorArguments": "",
                        "name": "transfer",
                        "returnParams": [
                            {
                                "name": "",
                                "type": "bool",
                                "value": true
                            }
                        ],
                        "signature": "transfer(address,uint256)"
                    },
                    "errorInfo": "",
                    "fromAddress": "0xec842c822ca8de8774edd5459fcb0cf752c2b54b",
                    "gasUsed": 37281,
                    "id": 0,
                    "methodDecoded": true,
                    "operation": "CALL",
                    "output": "0x0000000000000000000000000000000000000000000000000000000000000001",
                    "revert": false,
                    "revertMessage": "",
                    "selector": "0xa9059cbb",
                    "status": true,
                    "value": "0"
                },
                "nodeType": 0
            },
            "1": {
                "event": {
                    "contract": "0x08ceed1e8db59acbb687a5752f0a7db815cfda5e",
                    "decodedLog": {
                        "name": "Transfer",
                        "params": [
                            {
                                "name": "from",
                                "type": "address",
                                "value": "0xec842c822ca8de8774edd5459fcb0cf752c2b54b"
                            },
                            {
                                "name": "to",
                                "type": "address",
                                "value": "0x90176ff02b2b771a2dbd32a1447ba0fc5e668a23"
                            },
                            {
                                "decimalAvailable": true,
                                "name": "value",
                                "type": "uint256",
                                "value": "29,800,000,000,000,000"
                            }
                        ],
                        "signature": "Transfer(address,address,uint256)"
                    },
                    "id": 1,
                    "logData": "0x0000000000000000000000000000000000000000000000000069def12e4e8000",
                    "logDecoded": true,
                    "operation": "EVENT",
                    "revert": false,
                    "status": true,
                    "topics": [
                        "0xddf252ad1be2c89b69c2b068fc378daa952ba7f163c4a11628f55a4df523b3ef",
                        "0x000000000000000000000000ec842c822ca8de8774edd5459fcb0cf752c2b54b",
                        "0x00000000000000000000000090176ff02b2b771a2dbd32a1447ba0fc5e668a23"
                    ]
                },
                "nodeType": 1
            }
        },
        "gasFlame": [
            {
                "children": [
                    {
                        "children": [
                            {
                                "children": [],
                                "depth": 0,
                                "name": "Initial Gas",
                                "value": 23192
                            },
                            {
                                "children": [],
                                "depth": 0,
                                "name": "Executed Gas",
                                "value": 14089
                            }
                        ],
                        "depth": -1,
                        "name": "Actual Gas Used",
                        "value": 37281
                    },
                    {
                        "children": [],
                        "depth": -1,
                        "name": "Refunded Gas",
                        "value": 0
                    }
                ],
                "depth": -2,
                "name": "Total Gas",
                "value": 37281
            }
        ],
        "isConfirmed": true,
        "mainTrace": [
            {
                "children": [
                    {
                        "children": [
                            {
                                "children": [],
                                "depth": 1,
                                "id": 1,
                                "order": 1
                            }
                        ],
                        "depth": 0,
                        "id": 0,
                        "order": 0
                    }
                ],
                "depth": -1,
                "id": -1,
                "order": -1
            }
        ],
        "mainTraceNodeCount": 2,
        "parentIdMap": {
            "0": -1,
            "1": 0
        },
        "tidyTrace": [
            {
                "children": [
                    {
                        "children": [
                            {
                                "children": [],
                                "depth": 1,
                                "id": 1,
                                "order": 1
                            }
                        ],
                        "depth": 0,
                        "id": 0,
                        "order": 0
                    }
                ],
                "depth": -1,
                "id": -1,
                "order": -1
            }
        ],
        "tidyTraceNodeCount": 2
    },
    "state_change": {
        "stateChanges": [
            {
                "address": "0x08ceed1e8db59acbb687a5752f0a7db815cfda5e",
                "erc": "ERC-20",
                "slots": [
                    {
                        "current": "0x000000000000000000000000000000000000000000008d91f1060177dafc5d40",
                        "key": "0xee05420f801a9037712b776ee02ece7814fff2bd809836ad7c57f6020e50b5e3",
                        "prev": "0x000000000000000000000000000000000000000000008d91f16fe069094add40"
                    },
                    {
                        "current": "0x000000000000000000000000000000000000000000003fad9a3f21c1efda07d4",
                        "key": "0x5817e70e3e2a52f5692e475ab3d5d83543ef5124bcdf97c06f9dad13d2bd06be",
                        "prev": "0x000000000000000000000000000000000000000000003fad99d542d0c18b87d4"
                    }
                ],
                "storageVariables": [
                    {
                        "name": "balances",
                        "type": "mapping(address => uint256)",
                        "value": {
                            "pairs": [
                                {
                                    "key": "0x90176ff02b2b771a2dbd32a1447ba0fc5e668a23",
                                    "value": {
                                        "current": "300711489785061611014100",
                                        "prev": "300711459985061611014100",
                                        "typeTag": 1
                                    }
                                },
                                {
                                    "key": "0xec842c822ca8de8774edd5459fcb0cf752c2b54b",
                                    "value": {
                                        "current": "668545819545935147720000",
                                        "prev": "668545849345935147720000",
                                        "typeTag": 1
                                    }
                                }
                            ],
                            "typeTag": 4
                        }
                    }
                ]
            }
        ]
    }
}