{
    "balance_change": {
        "balanceChanges": [
            {
                "account": "0x67690edcc7ddf6d08926f2e6b20bda6fe06f8693",
                "assets": [
                    {
                        "address": "0xeeeeeeeeeeeeeeeeeeeeeeeeeeeeeeeeeeeeeeee",
                        "amount": "0.3",
                        "iconUrl": "https://assets.blocksec.com/image/1663669189317-3.png",
                        "isERC1155": false,
                        "isERC721": false,
                        "sign": false,
                        "value": "1366.470749"
                    },
                    {
                        "address": "0x1e2f15302b90edde696593607b6bd444b64e8f02",
                        "amount": "18,151,236,518,680.77730514",
                        "iconUrl": "",
                        "isERC1155": false,
                        "isERC721": false,
                        "sign": true,
                        "value": "1217.208707"
                    }
                ]
            },
            {
                "account": "0xc02aaa39b223fe8d0a0e5c4f27ead9083c756cc2",
                "assets": [
                    {
                        "address": "0xeeeeeeeeeeeeeeeeeeeeeeeeeeeeeeeeeeeeeeee",
                        "amount": "0.3",
                        "iconUrl": "https://assets.blocksec.com/image/1663669189317-3.png",
                        "isERC1155": false,
                        "isERC721": false,
                        "sign": true,
                        "value": "1366.470749"
                    },
                    {
                        "address": "0xc02aaa39b223fe8d0a0e5c4f27ead9083c756cc2",
                        "amount": "0.3",
                        "iconUrl": "https://assets.blocksec.com/icon/f1cb2d02c471d545bbc7722daf3277fd852d98e63d118771af7047bd8256c516.png",
                        "isERC1155": false,
                        "isERC721": false,
                        "sign": false,
                        "value": "1366.470749"
                    }
                ]
            },
            {
                "account": "0xe6e1f4f9b0303ca3878a110061c0ec9b84fddd03",
                "assets": [
                    {
                        "address": "0xc02aaa39b223fe8d0a0e5c4f27ead9083c756cc2",
                        "amount": "0.3",
                        "iconUrl": "https://assets.blocksec.com/icon/f1cb2d02c471d545bbc7722daf3277fd852d98e63d118771af7047bd8256c516.png",
                        "isERC1155": false,
                        "isERC721": false,
                        "sign": true,
                        "value": "1366.470749"
                    },
                    {
                        "address": "0x1e2f15302b90edde696593607b6bd444b64e8f02",
                        "amount": "18,151,236,518,680.77730514",
                        "iconUrl": "",
                        "isERC1155": false,
                        "isERC721": false,
                        "sign": false,
                        "value": "1217.208707"
                    }
                ]
            }
        ]
    },
    "profile": {
        "basic_info": {
            "baseFee": "72.951830494",
            "blockNumber": 13567362,
            "callData": "0x7ff36ab50000000000000000000000000000000000000000000003cad9d7afbb9e919b1e000000000000000000000000000000000000000000000000000000000000008000000000000000000000000067690edcc7ddf6d08926f2e6b20bda6fe06f86930000000000000000000000000000000000000000000000000000000061875e5c0000000000000000000000000000000000000000000000000000000000000002000000000000000000000000c02aaa39b223fe8d0a0e5c4f27ead9083c756cc20000000000000000000000001e2f15302b90edde696593607b6bd444b64e8f02",
            "debugEnable": true,
            "errorInfo": "",
            "eventCount": 5,
            "feeRecipient": "0x433022c4066558e7a32d850f02d2da5ca782174d",
            "formatValue": "0.3",
            "gasLimit": 254274,
            "gasPrice": "96",
            "gasUsed": 185358,
            "intTxnCount": 7,
            "internalRevert": false,
            "internalRevertMessage": "",
            "isContractCreation": false,
            "isFlashloan": false,
            "maxFee": "96",
            "nonce": 105,
            "overwritedBlockNumber": -1,
            "priorityFee": "70.701641352",
            "receiver": "0x7a250d5630b4cf539739df2c5dacb4c659f2488d",
            "revertMessage": "",
            "sender": "0x67690edcc7ddf6d08926f2e6b20bda6fe06f8693",
            "simulationEnable": true,
            "sourceTxnHash": "0x3055911c348b0bbd2ce419f036e4bbdad316066df1e21b3d7508fb1ac4ce9c81",
            "status": true,
            "timestamp": "2021-11-07T04:45:20Z",
            "transactionFee": "0.017794368",
            "txnHash": "0x3055911c348b0bbd2ce419f036e4bbdad316066df1e21b3d7508fb1ac4ce9c81",
            "txnIndex": 3,
            "type": 2,
            "value": "300000000000000000"
        },
        "fund_flow": [
            {
                "amount": "0.3",
                "from": "0x67690edcc7ddf6d08926f2e6b20bda6fe06f8693",
                "id": 1,
                "isERC1155": false,
                "isERC721": false,
                "isReverted": false,
                "order": 1,
                "to": "0x7a250d5630b4cf539739df2c5dacb4c659f2488d",
                "token": "0xeeeeeeeeeeeeeeeeeeeeeeeeeeeeeeeeeeeeeeee"
            },
            {
                "amount": "0.3",
                "from": "0x7a250d5630b4cf539739df2c5dacb4c659f2488d",
                "id": 2,
                "isERC1155": false,
                "isERC721": false,
                "isReverted": false,
                "order": 2,
                "to": "0xc02aaa39b223fe8d0a0e5c4f27ead9083c756cc2",
                "token": "0xeeeeeeeeeeeeeeeeeeeeeeeeeeeeeeeeeeeeeeee"
            },
            {
                "amount": "0.3",
                "from": "0xc02aaa39b223fe8d0a0e5c4f27ead9083c756cc2",
                "id": 3,
                "isERC1155": false,
                "isERC721": false,
                "isReverted": false,
                "order": 3,
                "to": "0x7a250d5630b4cf539739df2c5dacb4c659f2488d",
                "token": "0xc02aaa39b223fe8d0a0e5c4f27ead9083c756cc2"
            },
            {
                "amount": "0.3",
                "from": "0x7a250d5630b4cf539739df2c5dacb4c659f2488d",
                "id": 4,
                "isERC1155": false,
                "isERC721": false,
                "isReverted": false,
                "order": 4,
                "to": "0xe6e1f4f9b0303ca3878a110061c0ec9b84fddd03",
                "token": "0xc02aaa39b223fe8d0a0e5c4f27ead9083c756cc2"
            },
            {
                "amount": "18,151,236,518,680.77730514",
                "from": "0xe6e1f4f9b0303ca3878a110061c0ec9b84fddd03",
                "id": 5,
                "isERC1155": false,
                "isERC721": false,
                "isReverted": false,
                "order": 5,
                "to": "0x67690edcc7ddf6d08926f2e6b20bda6fe06f8693",
                "token": "0x1e2f15302b90edde696593607b6bd444b64e8f02"
            }
        ],
        "token_infos": [
            {
                "address": "0x1e2f15302b90edde696593607b6bd444b64e8f02",
                "decimals": 9
            },
            {
                "address": "0xc02aaa39b223fe8d0a0e5c4f27ead9083c756cc2",
                "decimals": 18
            },
            {
                "address": "0xeeeeeeeeeeeeeeeeeeeeeeeeeeeeeeeeeeeeeeee",
                "decimals": 18
            }
        ]
    },
    "address_label": {
        "labels": [
            {
                "address": "0xeeeeeeeeeeeeeeeeeeeeeeeeeeeeeeeeeeeeeeee",
                "label": "Ether"
            },
            {
                "address": "0x7a250d5630b4cf539739df2c5dacb4c659f2488d",
                "label": "Uniswap V2: Router 2"
            },
            {
                "address": "0x1e2f15302b90edde696593607b6bd444b64e8f02",
                "label": "Shiryo Inu: Shiryo-Inu Token"
            },
            {
                "address": "0xe6e1f4f9b0303ca3878a110061c0ec9b84fddd03",
                "label": "Uniswap V2: Shiryo-Inu"
            },
            {
                "address": "0x0000000000000000000000000000000000000004",
                "label": "Precompiled"
            },
            {
                "address": "0xc02aaa39b223fe8d0a0e5c4f27ead9083c756cc2",
                "label": "Wrapped Ether (WETH)"
            },
            {
                "address": "0x0000000000000000000000000000000000000001",
                "label": "Precompiled"
            },
            {
                "address": "0x0000000000000000000000000000000000000002",
                "label": "Precompiled"
            },
            {
                "address": "0x0000000000000000000000000000000000000003",
                "label": "Precompiled"
            }
        ]
    },
    "trace": {
        "accountLabels": null,
        "dataMap": {
            "-1": {
                "invocation": {
                    "address": "0x67690edcc7ddf6d08926f2e6b20bda6fe06f8693",
                    "callData": "",
                    "decodedMethod": null,
                    "errorInfo": "",
                    "fromAddress": "",
                    "gasUsed": 0,
                    "id": -1,
                    "methodDecoded": false,
                    "operation": "",
                    "output": "",
                    "revert": false,
                    "revertMessage": "",
                    "selector": "",
                    "status": false,
                    "value": ""
                },
                "nodeType": 0
            },
            "0": {
                "invocation": {
                    "address": "0x7a250d5630b4cf539739df2c5dacb4c659f2488d",
                    "callData": "0x0000000000000000000000000000000000000000000003cad9d7afbb9e919b1e000000000000000000000000000000000000000000000000000000000000008000000000000000000000000067690edcc7ddf6d08926f2e6b20bda6fe06f86930000000000000000000000000000000000000000000000000000000061875e5c0000000000000000000000000000000000000000000000000000000000000002000000000000000000000000c02aaa39b223fe8d0a0e5c4f27ead9083c756cc20000000000000000000000001e2f15302b90edde696593607b6bd444b64e8f02",
                    "decodedMethod": {
                        "callParams": [
                            {
                                "name": "amountOutMin",
                                "type": "uint256",
                                "value": "17,909,038,959,744,842,308,382"
                            },
                            {
                                "name": "path",
                                "type": "address[]",
                                "value": [
                                    "0xc02aaa39b223fe8d0a0e5c4f27ead9083c756cc2",
                                    "0x1e2f15302b90edde696593607b6bd444b64e8f02"
                                ]
                            },
                            {
                                "name": "to",
                                "type": "address",
                                "value": "0x67690edcc7ddf6d08926f2e6b20bda6fe06f8693"
                            },
                            {
                                "name": "deadline",
                                "type": "uint256",
                                "value": "1,636,261,468"
                            }
                        ],
                        "constructorArguments": "",
                        "name": "swapExactETHForTokens",
                        "returnParams": [
                            {
                                "name": "amounts",
                                "type": "uint256[]",
                                "value": [
                                    "300,000,000,000,000,000",
                                    "20,168,040,576,311,974,783,487"
                                ]
                            }
                        ],
                        "signature": "swapExactETHForTokens(uint256,address[],address,uint256)"
                    },
                    "errorInfo": "",
                    "fromAddress": "0x67690edcc7ddf6d08926f2e6b20bda6fe06f8693",
                    "gasUsed": 185358,
                    "id": 0,
                    "methodDecoded": true,
                    "operation": "CALL",
                    "output": "0x000000000000000000000000000000000000000000000000000000000000002000000000000000000000000000000000000000000000000000000000000000020000000000000000000000000000000000000000000000000429d069189e00000000000000000000000000000000000000000000000004454fc9a14c13ad69ff",
                    "revert": false,
                    "revertMessage": "",
                    "selector": "0x7ff36ab5",
                    "status": true,
                    "value": "0.3"
                },
                "nodeType": 0
            },
            "1": {
                "invocation": {
                    "address": "0xe6e1f4f9b0303ca3878a110061c0ec9b84fddd03",
                    "callData": "0x",
                    "decodedMethod": {
                        "callParams": [],
                        "constructorArguments": "",
                        "name": "getReserves",
                        "returnParams": [
                            {
                                "name": "_reserve0",
                                "type": "uint112",
                                "value": "8,896,753,353,838,232,789,956,096"
                            },
                            {
                                "name": "_reserve1",
                                "type": "uint112",
                                "value": "131,643,262,871,803,691,545"
                            },
                            {
                                "name": "_blockTimestampLast",
                                "type": "uint32",
                                "value": "1,636,260,310"
                            }
                        ],
                        "signature": "getReserves()"
                    },
                    "errorInfo": "",
                    "fromAddress": "0x7a250d5630b4cf539739df2c5dacb4c659f2488d",
                    "gasUsed": 2504,
                    "id": 1,
                    "methodDecoded": true,
                    "operation": "STATICCALL",
                    "output": "0x000000000000000000000000000000000000000000075bf5f73918671289b60000000000000000000000000000000000000000000000000722ead21b233a821900000000000000000000000000000000000000000000000000000000618759d6",
                    "revert": false,
                    "revertMessage": "",
                    "selector": "0x0902f1ac",
                    "status": true,
                    "value": "0"
                },
                "nodeType": 0
            },
            "10": {
                "invocation": {
                    "address": "0xc02aaa39b223fe8d0a0e5c4f27ead9083c756cc2",
                    "callData": "0x000000000000000000000000e6e1f4f9b0303ca3878a110061c0ec9b84fddd03",
                    "decodedMethod": {
                        "callParams": [
                            {
                                "name": "",
                                "type": "address",
                                "value": "0xe6e1f4f9b0303ca3878a110061c0ec9b84fddd03"
                            }
                        ],
                        "constructorArguments": "",
                        "name": "balanceOf",
                        "returnParams": [
                            {
                                "decimalAvailable": true,
                                "name": "",
                                "type": "uint256",
                                "value": "131,943,262,871,803,691,545"
                            }
                        ],
                        "signature": "balanceOf(address)"
                    },
                    "errorInfo": "",
                    "fromAddress": "0xe6e1f4f9b0303ca3878a110061c0ec9b84fddd03",
                    "gasUsed": 534,
                    "id": 10,
                    "methodDecoded": true,
                    "operation": "STATICCALL",
                    "output": "0x0000000000000000000000000000000000000000000000072714a2843bd88219",
                    "revert": false,
                    "revertMessage": "",
                    "selector": "0x70a08231",
                    "status": true,
                    "value": "0"
                },
                "nodeType": 0
            },
            "11": {
                "event": {
                    "contract": "0xe6e1f4f9b0303ca3878a110061c0ec9b84fddd03",
                    "decodedLog": {
                        "name": "Sync",
                        "params": [
                            {
                                "name": "reserve0",
                                "type": "uint112",
                                "value": "8,876,587,103,495,609,639,842,989"
                            },
                            {
                                "name": "reserve1",
                                "type": "uint112",
                                "value": "131,943,262,871,803,691,545"
                            }
                        ],
                        "signature": "Sync(uint112,uint112)"
                    },
                    "id": 11,
                    "logData": "0x0000000000000000000000000000000000000000000757b0c047a7290e3134ad0000000000000000000000000000000000000000000000072714a2843bd88219",
                    "logDecoded": true,
                    "operation": "EVENT",
                    "revert": false,
                    "status": true,
                    "topics": [
                        "0x1c411e9a96e071241c2f21f7726b17ae89e3cab4c78be50e062b03a9fffbbad1"
                    ]
                },
                "nodeType": 1
            },
            "12": {
                "event": {
                    "contract": "0xe6e1f4f9b0303ca3878a110061c0ec9b84fddd03",
                    "decodedLog": {
                        "name": "Swap",
                        "params": [
                            {
                                "name": "sender",
                                "type": "address",
                                "value": "0x7a250d5630b4cf539739df2c5dacb4c659f2488d"
                            },
                            {
                                "name": "to",
                                "type": "address",
                                "value": "0x67690edcc7ddf6d08926f2e6b20bda6fe06f8693"
                            },
                            {
                                "name": "amount0In",
                                "type": "uint256",
                                "value": "1,790,233,688,824,670,380"
                            },
                            {
                                "name": "amount1In",
                                "type": "uint256",
                                "value": "300,000,000,000,000,000"
                            },
                            {
                                "name": "amount0Out",
                                "type": "uint256",
                                "value": "20,168,040,576,311,974,783,487"
                            },
                            {
                                "name": "amount1Out",
                                "type": "uint256",
                                "value": "0"
                            }
                        ],
                        "signature": "Swap(address,uint256,uint256,uint256,uint256,address)"
                    },
                    "id": 12,
                    "logData": "0x00000000000000000000000000000000000000000000000018d8300e0f54e8ac0000000000000000000000000000000000000000000000000429d069189e00000000000000000000000000000000000000000000000004454fc9a14c13ad69ff0000000000000000000000000000000000000000000000000000000000000000",
                    "logDecoded": true,
                    "operation": "EVENT",
                    "revert": false,
                    "status": true,
                    "topics": [
                        "0xd78ad95fa46c994b6551d0da85fc275fe613ce37657fb8d5e3d130840159d822",
                        "0x0000000000000000000000007a250d5630b4cf539739df2c5dacb4c659f2488d",
                        "0x00000000000000000000000067690edcc7ddf6d08926f2e6b20bda6fe06f8693"
                    ]
                },
                "nodeType": 1
            },
            "2": {
                "invocation": {
                    "address": "0xc02aaa39b223fe8d0a0e5c4f27ead9083c756cc2",
                    "callData": "0x",
                    "decodedMethod": {
                        "callParams": [],
                        "constructorArguments": "",
                        "name": "deposit",
                        "returnParams": [],
                        "signature": "deposit()"
                    },
                    "errorInfo": "",
                    "fromAddress": "0x7a250d5630b4cf539739df2c5dacb4c659f2488d",
                    "gasUsed": 23974,
                    "id": 2,
                    "methodDecoded": true,
                    "operation": "CALL",
                    "output": "",
                    "revert": false,
                    "revertMessage": "",
                    "selector": "0xd0e30db0",
                    "status": true,
                    "value": "0.3"
                },
                "nodeType": 0
            },
            "3": {
                "event": {
                    "contract": "0xc02aaa39b223fe8d0a0e5c4f27ead9083c756cc2",
                    "decodedLog": {
                        "name": "Deposit",
                        "params": [
                            {
                                "name": "dst",
                                "type": "address",
                                "value": "0x7a250d5630b4cf539739df2c5dacb4c659f2488d"
                            },
                            {
                                "name": "wad",
                                "type": "uint256",
                                "value": "300,000,000,000,000,000"
                            }
                        ],
                        "signature": "Deposit(address,uint256)"
                    },
                    "id": 3,
                    "logData": "0x0000000000000000000000000000000000000000000000000429d069189e0000",
                    "logDecoded": true,
                    "operation": "EVENT",
                    "revert": false,
                    "status": true,
                    "topics": [
                        "0xe1fffcc4923d04b559f4d29a8bfc6cda04eb5b0d3c460751c2402c5c5cc9109c",
                        "0x0000000000000000000000007a250d5630b4cf539739df2c5dacb4c659f2488d"
                    ]
                },
                "nodeType": 1
            },
            "4": {
                "invocation": {
                    "address": "0xc02aaa39b223fe8d0a0e5c4f27ead9083c756cc2",
                    "callData": "0x000000000000000000000000e6e1f4f9b0303ca3878a110061c0ec9b84fddd030000000000000000000000000000000000000000000000000429d069189e0000",
                    "decodedMethod": {
                        "callParams": [
                            {
                                "name": "dst",
                                "type": "address",
                                "value": "0xe6e1f4f9b0303ca3878a110061c0ec9b84fddd03"
                            },
                            {
                                "decimalAvailable": true,
                                "name": "wad",
                                "type": "uint256",
                                "value": "300,000,000,000,000,000"
                            }
                        ],
                        "constructorArguments": "",
                        "name": "transfer",
                        "returnParams": [
                            {
                                "name": "",
                                "type": "bool",
                                "value": true
                            }
                        ],
                        "signature": "transfer(address,uint256)"
                    },
                    "errorInfo": "",
                    "fromAddress": "0x7a250d5630b4cf539739df2c5dacb4c659f2488d",
                    "gasUsed": 8062,
                    "id": 4,
                    "methodDecoded": true,
                    "operation": "CALL",
                    "output": "0x0000000000000000000000000000000000000000000000000000000000000001",
                    "revert": false,
                    "revertMessage": "",
                    "selector": "0xa9059cbb",
                    "status": true,
                    "value": "0"
                },
                "nodeType": 0
            },
            "5": {
                "event": {
                    "contract": "0xc02aaa39b223fe8d0a0e5c4f27ead9083c756cc2",
                    "decodedLog": {
                        "name": "Transfer",
                        "params": [
                            {
                                "name": "src",
                                "type": "address",
                                "value": "0x7a250d5630b4cf539739df2c5dacb4c659f2488d"
                            },
                            {
                                "name": "dst",
                                "type": "address",
                                "value": "0xe6e1f4f9b0303ca3878a110061c0ec9b84fddd03"
                            },
                            {
                                "decimalAvailable": true,
                                "name": "wad",
                                "type": "uint256",
                                "value": "300,000,000,000,000,000"
                            }
                        ],
                        "signature": "Transfer(address,address,uint256)"
                    },
                    "id": 5,
                    "logData": "0x0000000000000000000000000000000000000000000000000429d069189e0000",
                    "logDecoded": true,
                    "operation": "EVENT",
                    "revert": false,
                    "status": true,
                    "topics": [
                        "0xddf252ad1be2c89b69c2b068fc378daa952ba7f163c4a11628f55a4df523b3ef",
                        "0x0000000000000000000000007a250d5630b4cf539739df2c5dacb4c659f2488d",
                        "0x000000000000000000000000e6e1f4f9b0303ca3878a110061c0ec9b84fddd03"
                    ]
                },
                "nodeType": 1
            },
            "6": {
                "invocation": {
                    "address": "0xe6e1f4f9b0303ca3878a110061c0ec9b84fddd03",
                    "callData": "0x0000000000000000000000000000000000000000000004454fc9a14c13ad69ff000000000000000000000000000000000000000000000000000000000000000000000000000000000000000067690edcc7ddf6d08926f2e6b20bda6fe06f869300000000000000000000000000000000000000000000000000000000000000800000000000000000000000000000000000000000000000000000000000000000",
                    "decodedMethod": {
                        "callParams": [
                            {
                                "name": "amount0Out",
                                "type": "uint256",
                                "value": "20,168,040,576,311,974,783,487"
                            },
                            {
                                "name": "amount1Out",
                                "type": "uint256",
                                "value": "0"
                            },
                            {
                                "name": "to",
                                "type": "address",
                                "value": "0x67690edcc7ddf6d08926f2e6b20bda6fe06f8693"
                            },
                            {
                                "name": "data",
                                "type": "bytes",
                                "value": "0x"
                            }
                        ],
                        "constructorArguments": "",
                        "name": "swap",
                        "returnParams": [],
                        "signature": "swap(uint256,uint256,address,bytes)"
                    },
                    "errorInfo": "",
                    "fromAddress": "0x7a250d5630b4cf539739df2c5dacb4c659f2488d",
                    "gasUsed": 131381,
                    "id": 6,
                    "methodDecoded": true,
                    "operation": "CALL",
                    "output": "",
                    "revert": false,
                    "revertMessage": "",
                    "selector": "0x022c0d9f",
                    "status": true,
                    "value": "0"
                },
                "nodeType": 0
            },
            "7": {
                "invocation": {
                    "address": "0x1e2f15302b90edde696593607b6bd444b64e8f02",
                    "callData": "0x00000000000000000000000067690edcc7ddf6d08926f2e6b20bda6fe06f86930000000000000000000000000000000000000000000004454fc9a14c13ad69ff",
                    "decodedMethod": {
                        "callParams": [
                            {
                                "name": "recipient",
                                "type": "address",
                                "value": "0x67690edcc7ddf6d08926f2e6b20bda6fe06f8693"
                            },
                            {
                                "decimalAvailable": true,
                                "name": "amount",
                                "type": "uint256",
                                "value": "20,168,040,576,311,974,783,487"
                            }
                        ],
                        "constructorArguments": "",
                        "name": "transfer",
                        "returnParams": [
                            {
                                "name": "",
                                "type": "bool",
                                "value": true
                            }
                        ],
                        "signature": "transfer(address,uint256)"
                    },
                    "errorInfo": "",
                    "fromAddress": "0xe6e1f4f9b0303ca3878a110061c0ec9b84fddd03",
                    "gasUsed": 95328,
                    "id": 7,
                    "methodDecoded": true,
                    "operation": "CALL",
                    "output": "0x0000000000000000000000000000000000000000000000000000000000000001",
                    "revert": false,
                    "revertMessage": "",
                    "selector": "0xa9059cbb",
                    "status": true,
                    "value": "0"
                },
                "nodeType": 0
            },
            "8": {
                "event": {
                    "contract": "0x1e2f15302b90edde696593607b6bd444b64e8f02",
                    "decodedLog": {
                        "name": "Transfer",
                        "params": [
                            {
                                "name": "from",
                                "type": "address",
                                "value": "0xe6e1f4f9b0303ca3878a110061c0ec9b84fddd03"
                            },
                            {
                                "name": "to",
                                "type": "address",
                                "value": "0x67690edcc7ddf6d08926f2e6b20bda6fe06f8693"
                            },
                            {
                                "decimalAvailable": true,
                                "name": "value",
                                "type": "uint256",
                                "value": "18,151,236,518,680,777,305,140"
                            }
                        ],
                        "signature": "Transfer(address,address,uint256)"
                    },
                    "id": 8,
                    "logData": "0x0000000000000000000000000000000000000000000003d7fb02445e11b5ac34",
                    "logDecoded": true,
                    "operation": "EVENT",
                    "revert": false,
                    "status": true,
                    "topics": [
                        "0xddf252ad1be2c89b69c2b068fc378daa952ba7f163c4a11628f55a4df523b3ef",
                        "0x000000000000000000000000e6e1f4f9b0303ca3878a110061c0ec9b84fddd03",
                        "0x00000000000000000000000067690edcc7ddf6d08926f2e6b20bda6fe06f8693"
                    ]
                },
                "nodeType": 1
            },
            "9": {
                "invocation": {
                    "address": "0x1e2f15302b90edde696593607b6bd444b64e8f02",
                    "callData": "0x000000000000000000000000e6e1f4f9b0303ca3878a110061c0ec9b84fddd03",
                    "decodedMethod": {
                        "callParams": [
                            {
                                "name": "account",
                                "type": "address",
                                "value": "0xe6e1f4f9b0303ca3878a110061c0ec9b84fddd03"
                            }
                        ],
                        "constructorArguments": "",
                        "name": "balanceOf",
                        "returnParams": [
                            {
                                "decimalAvailable": true,
                                "name": "",
                                "type": "uint256",
                                "value": "8,876,587,103,495,609,639,842,989"
                            }
                        ],
                        "signature": "balanceOf(address)"
                    },
                    "errorInfo": "",
                    "fromAddress": "0xe6e1f4f9b0303ca3878a110061c0ec9b84fddd03",
                    "gasUsed": 1699,
                    "id": 9,
                    "methodDecoded": true,
                    "operation": "STATICCALL",
                    "output": "0x0000000000000000000000000000000000000000000757b0c047a7290e3134ad",
                    "revert": false,
                    "revertMessage": "",
                    "selector": "0x70a08231",
                    "status": true,
                    "value": "0"
                },
                "nodeType": 0
            }
        },
        "gasFlame": [
            {
                "children": [
                    {
                        "children": [
                            {
                                "children": [],
                                "depth": 0,
                                "name": "Initial Gas",
                                "value": 22872
                            },
                            {
                                "children": [
                                    {
                                        "children": [],
                                        "depth": 1,
                                        "name": "getReserves",
                                        "value": 2504
                                    },
                                    {
                                        "children": [],
                                        "depth": 1,
                                        "name": "deposit",
                                        "value": 23974
                                    },
                                    {
                                        "children": [],
                                        "depth": 1,
                                        "name": "transfer",
                                        "value": 8062
                                    },
                                    {
                                        "children": [
                                            {
                                                "children": [],
                                                "depth": 2,
                                                "name": "transfer",
                                                "value": 95328
                                            },
                                            {
                                                "children": [],
                                                "depth": 2,
                                                "name": "balanceOf",
                                                "value": 1699
                                            },
                                            {
                                                "children": [],
                                                "depth": 2,
                                                "name": "balanceOf",
                                                "value": 534
                                            }
                                        ],
                                        "depth": 1,
                                        "name": "swap",
                                        "value": 131381
                                    }
                                ],
                                "depth": 0,
                                "name": "Executed Gas",
                                "value": 185186
                            }
                        ],
                        "depth": -1,
                        "name": "Actual Gas Used",
                        "value": 185358
                    },
                    {
                        "children": [],
                        "depth": -1,
                        "name": "Refunded Gas",
                        "value": 22700
                    }
                ],
                "depth": -2,
                "name": "Total Gas",
                "value": 208058
            }
        ],
        "isConfirmed": true,
        "mainTrace": [
            {
                "children": [
                    {
                        "children": [
                            {
                                "children": [],
                                "depth": 1,
                                "id": 1,
                                "order": 1
                            },
                            {
                                "children": [
                                    {
                                        "children": [],
                                        "depth": 2,
                                        "id": 3,
                                        "order": 3
                                    }
                                ],
                                "depth": 1,
                                "id": 2,
                                "order": 2
                            },
                            {
                                "children": [
                                    {
                                        "children": [],
                                        "depth": 2,
                                        "id": 5,
                                        "order": 5
                                    }
                                ],
                                "depth": 1,
                                "id": 4,
                                "order": 4
                            },
                            {
                                "children": [
                                    {
                                        "children": [
                                            {
                                                "children": [],
                                                "depth": 3,
                                                "id": 8,
                                                "order": 8
                                            }
                                        ],
                                        "depth": 2,
                                        "id": 7,
                                        "order": 7
                                    },
                                    {
                                        "children": [],
                                        "depth": 2,
                                        "id": 9,
                                        "order": 9
                                    },
                                    {
                                        "children": [],
                                        "depth": 2,
                                        "id": 10,
                                        "order": 10
                                    },
                                    {
                                        "children": [],
                                        "depth": 2,
                                        "id": 11,
                                        "order": 11
                                    },
                                    {
                                        "children": [],
                                        "depth": 2,
                                        "id": 12,
                                        "order": 12
                                    }
                                ],
                                "depth": 1,
                                "id": 6,
                                "order": 6
                            }
                        ],
                        "depth": 0,
                        "id": 0,
                        "order": 0
                    }
                ],
                "depth": -1,
                "id": -1,
                "order": -1
            }
        ],
        "mainTraceNodeCount": 13,
        "parentIdMap": {
            "0": -1,
            "1": 0,
            "10": 6,
            "11": 6,
            "12": 6,
            "2": 0,
            "3": 2,
            "4": 0,
            "5": 4,
            "6": 0,
            "7": 6,
            "8": 7,
            "9": 6
        },
        "tidyTrace": [
            {
                "children": [
                    {
                        "children": [
                            {
                                "children": [
                                    {
                                        "children": [],
                                        "depth": 2,
                                        "id": 3,
                                        "order": 3
                                    }
                                ],
                                "depth": 1,
                                "id": 2,
                                "order": 2
                            },
                            {
                                "children": [
                                    {
                                        "children": [],
                                        "depth": 2,
                                        "id": 5,
                                        "order": 5
                                    }
                                ],
                                "depth": 1,
                                "id": 4,
                                "order": 4
                            },
                            {
                                "children": [
                                    {
                                        "children": [
                                            {
                                                "children": [],
                                                "depth": 3,
                                                "id": 8,
                                                "order": 8
                                            }
                                        ],
                                        "depth": 2,
                                        "id": 7,
                                        "order": 7
                                    },
                                    {
                                        "children": [],
                                        "depth": 2,
                                        "id": 11,
                                        "order": 11
                                    },
                                    {
                                        "children": [],
                                        "depth": 2,
                                        "id": 12,
                                        "order": 12
                                    }
                                ],
                                "depth": 1,
                                "id": 6,
                                "order": 6
                            }
                        ],
                        "depth": 0,
                        "id": 0,
                        "order": 0
                    }
                ],
                "depth": -1,
                "id": -1,
                "order": -1
            }
        ],
        "tidyTraceNodeCount": 10
    },
    "state_change": {
        "stateChanges": [
            {
                "address": "0x1e2f15302b90edde696593607b6bd444b64e8f02",
                "erc": "ERC-20",
                "slots": [
                    {
                        "current": "0x00006de9385f02805b84fbcd1cc74e1f9e6dec441a996d050d3adab6715ccb7a",
                        "key": "0xaecf438f79dc3ecd32c22d438dcc51c4f9cd233db56b31639754b8cf86464bb4",
                        "prev": "0x000051a2f72885644883877085f20e031ed52c0f66a08b9a097818f29d522033"
                    },
                    {
                        "current": "0xedb02f62b3aa878d0a4fc93d5ab85a2a84ae89beed67fa351090b7c42df2c0b8",
                        "key": "0x0000000000000000000000000000000000000000000000000000000000000008",
                        "prev": "0xedb03286f3cd073ad388d5f1fbc95eb769fb43c03de02969ec34c119d246b62e"
                    },
                    {
                        "current": "0x0000000000000000000000000000000000000000003d50e831d64e0fa1b4dfaf",
                        "key": "0x0000000000000000000000000000000000000000000000000000000000000009",
                        "prev": "0x0000000000000000000000000000000000000000003d50dd42f591916e4f4cb5"
                    },
                    {
                        "current": "0x00000000000000000000000000000000000000000000000000000000618759fe",
                        "key": "0xa1a87c32d155428b03a65b4b0ca467233d4f36f93c96775a7d26a52c5f8007e1",
                        "prev": "0x0000000000000000000000000000000000000000000000000000000000000000"
                    },
                    {
                        "current": "0x021c1fcc900931b1d186c7e3c927c5bfca15ba7dfd4eca4ec1d3abaf29339663",
                        "key": "0xcb6a58830cf1f0b7ae2777aca2fcf529e3d41a47a528e1eac44423ebafa447ac",
                        "prev": "0x021d59f59d8311946bcfd772816f3ee481a94d469240b0c4e8d3c9cbd81dd1cc"
                    },
                    {
                        "current": "0x00011abe8c20e318be0e8e7d8061347b52ae18929080d5d647995303368b9aac",
                        "key": "0x270f3fea38a73ba837b9a4135934493663ea31503b01f18b4132d9c218ff3e94",
                        "prev": "0x0000000000000000000000000000000000000000000000000000000000000000"
                    }
                ],
                "storageVariables": [
                    {
                        "name": "cooldown",
                        "type": "mapping(address => uint256)",
                        "value": {
                            "pairs": [
                                {
                                    "key": "0x67690edcc7ddf6d08926f2e6b20bda6fe06f8693",
                                    "value": {
                                        "current": "1636260350",
                                        "prev": "0",
                                        "typeTag": 1
                                    }
                                }
                            ],
                            "typeTag": 4
                        }
                    },
                    {
                        "name": "_rOwned",
                        "type": "mapping(address => uint256)",
                        "value": {
                            "pairs": [
                                {
                                    "key": "0x1e2f15302b90edde696593607b6bd444b64e8f02",
                                    "value": {
                                        "current": "758577955946703816645097598000538204216156091465643443172354626810596218",
                                        "prev": "563434994255554025358954731121270885265257656454687580539010942426554419",
                                        "typeTag": 1
                                    }
                                },
                                {
                                    "key": "0x67690edcc7ddf6d08926f2e6b20bda6fe06f8693",
                                    "value": {
                                        "current": "1951429616911497912862503763381905795041131417313513360339021715345218220",
                                        "prev": "0",
                                        "typeTag": 1
                                    }
                                },
                                {
                                    "key": "0xe6e1f4f9b0303ca3878a110061c0ec9b84fddd03",
                                    "value": {
                                        "current": "954316884114950385857867218423987882080576597083512032571150643488993023587",
                                        "prev": "956485139244852050205492019532100922360688448656721855966215168252536803788",
                                        "typeTag": 1
                                    }
                                }
                            ],
                            "typeTag": 4
                        }
                    },
                    {
                        "name": "_rTotal",
                        "type": "uint256",
                        "value": {
                            "current": "107509437240709254198063244240995548691321030658302505829731109973782193946808",
                            "prev": "107509458923260553214706720395473400558487150480023391183903202133146008466990",
                            "typeTag": 1
                        }
                    },
                    {
                        "name": "_tFeeTotal",
                        "type": "uint256",
                        "value": {
                            "current": "74126547550890633809158063",
                            "prev": "74126345870484870689410229",
                            "typeTag": 1
                        }
                    }
                ]
            },
            {
                "address": "0xc02aaa39b223fe8d0a0e5c4f27ead9083c756cc2",
                "erc": "ERC-20",
                "slots": [
                    {
                        "current": "0x0000000000000000000000000000000000000000000000072714a2843bd88219",
                        "key": "0xadb042beb15e7d1b8eed18261c468d7809bb51dd6e50b8e4884a840ed7b3c36a",
                        "prev": "0x00000000000000000000000000000000000000000000000722ead21b233a8219"
                    }
                ],
                "storageVariables": [
                    {
                        "name": "balanceOf",
                        "type": "mapping(address => uint256)",
                        "value": {
                            "pairs": [
                                {
                                    "key": "0xe6e1f4f9b0303ca3878a110061c0ec9b84fddd03",
                                    "value": {
                                        "current": "131943262871803691545",
                                        "prev": "131643262871803691545",
                                        "typeTag": 1
                                    }
                                }
                            ],
                            "typeTag": 4
                        }
                    }
                ]
            },
            {
                "address": "0xe6e1f4f9b0303ca3878a110061c0ec9b84fddd03",
                "erc": "ERC-20",
                "slots": [
                    {
                        "current": "0x618759e00000000000072714a2843bd882190000000757b0c047a7290e3134ad",
                        "key": "0x0000000000000000000000000000000000000000000000000000000000000008",
                        "prev": "0x618759d600000000000722ead21b233a8219000000075bf5f73918671289b600"
                    },
                    {
                        "current": "0x0000000000000000000000000000000000018dd95158303a5878a2007d01de30",
                        "key": "0x0000000000000000000000000000000000000000000000000000000000000009",
                        "prev": "0x0000000000000000000000000000000000018dcf9edb840f91527941265742ee"
                    },
                    {
                        "current": "0x00000000000000000000000000bfaf1cdf2a4ddc63d5fe2bddc59127105b2773",
                        "key": "0x000000000000000000000000000000000000000000000000000000000000000a",
                        "prev": "0x00000000000000000000000000bfaf128f3b63d89311d8c76ff5bd65493a85fd"
                    }
                ],
                "storageVariables": [
                    {
                        "name": "price1CumulativeLast",
                        "type": "uint256",
                        "value": {
                            "current": "4274696807501179584201112543870018486506563443",
                            "prev": "4274693298427985669335084857829420782528923133",
                            "typeTag": 1
                        }
                    },
                    {
                        "name": "reserve0",
                        "type": "uint112",
                        "value": {
                            "current": "8876587103495609639842989",
                            "prev": "8896753353838232789956096",
                            "typeTag": 1
                        }
                    },
                    {
                        "name": "reserve1",
                        "type": "uint112",
                        "value": {
                            "current": "131943262871803691545",
                            "prev": "131643262871803691545",
                            "typeTag": 1
                        }
                    },
                    {
                        "name": "blockTimestampLast",
                        "type": "uint32",
                        "value": {
                            "current": "1636260320",
                            "prev": "1636260310",
                            "typeTag": 1
                        }
                    },
                    {
                        "name": "price0CumulativeLast",
                        "type": "uint256",
                        "value": {
                            "current": "8069334298814326051960205527342640",
                            "prev": "8068566006300111692778873258722030",
                            "typeTag": 1
                        }
                    }
                ]
            }
        ]
    }
}