{
    "balance_change": {
        "balanceChanges": [
            {
                "account": "0x30264c13469b8ab071cdb27d82b5fd367e1937e6",
                "assets": [
                    {
                        "address": "0x0bcc5683d7704b9c50aad6759c55f9aecbfe8878",
                        "amount": "118.8",
                        "iconUrl": "",
                        "isERC1155": false,
                        "isERC721": false,
                        "sign": false,
                        "value": ""
                    }
                ]
            },
            {
                "account": "0x2ccbfded216cf63ec5fdf066d099db943891a40e",
                "assets": [
                    {
                        "address": "0x0bcc5683d7704b9c50aad6759c55f9aecbfe8878",
                        "amount": "118.8",
                        "iconUrl": "",
                        "isERC1155": false,
                        "isERC721": false,
                        "sign": true,
                        "value": ""
                    }
                ]
            }
        ]
    },
    "profile": {
        "basic_info": {
            "baseFee": "",
            "blockNumber": 9714948,
            "callData": "0xa9059cbb0000000000000000000000002ccbfded216cf63ec5fdf066d099db943891a40e00000000000000000000000000000000000000000000000670ae629214680000",
            "debugEnable": true,
            "errorInfo": "",
            "eventCount": 1,
            "feeRecipient": "0x5a0b54d5dc17e0aadc383d2db43b0a0d3e029c4c",
            "formatValue": "0",
            "gasLimit": 60000,
            "gasPrice": "10",
            "gasUsed": 36185,
            "intTxnCount": 0,
            "internalRevert": false,
            "internalRevertMessage": "",
            "isContractCreation": false,
            "isFlashloan": false,
            "maxFee": "",
            "nonce": 47,
            "overwritedBlockNumber": -1,
            "priorityFee": "",
            "receiver": "0x0bcc5683d7704b9c50aad6759c55f9aecbfe8878",
            "revertMessage": "",
            "sender": "0x30264c13469b8ab071cdb27d82b5fd367e1937e6",
            "simulationEnable": true,
            "sourceTxnHash": "0x30ef60cdf36a1f7666892916928287fb819e65efed1bc9e607078fba9adf0668",
            "status": true,
            "timestamp": "2020-03-21T12:16:16Z",
            "transactionFee": "0.00036185",
            "txnHash": "0x30ef60cdf36a1f7666892916928287fb819e65efed1bc9e607078fba9adf0668",
            "txnIndex": 34,
            "type": 0,
            "value": "0"
        },
        "fund_flow": [
            {
                "amount": "118.8",
                "from": "0x30264c13469b8ab071cdb27d82b5fd367e1937e6",
                "id": 1,
                "isERC1155": false,
                "isERC721": false,
                "isReverted": false,
                "order": 1,
                "to": "0x2ccbfded216cf63ec5fdf066d099db943891a40e",
                "token": "0x0bcc5683d7704b9c50aad6759c55f9aecbfe8878"
            }
        ],
        "token_infos": [
            {
                "address": "0xc02aaa39b223fe8d0a0e5c4f27ead9083c756cc2",
                "decimals": 18
            },
            {
                "address": "0xeeeeeeeeeeeeeeeeeeeeeeeeeeeeeeeeeeeeeeee",
                "decimals": 18
            },
            {
                "address": "0x0bcc5683d7704b9c50aad6759c55f9aecbfe8878",
                "decimals": 18
            }
        ]
    },
    "address_label": {
        "labels": [
            {
                "address": "0xeeeeeeeeeeeeeeeeeeeeeeeeeeeeeeeeeeeeeeee",
                "label": "Ether"
            },
            {
                "address": "0x0bcc5683d7704b9c50aad6759c55f9aecbfe8878",
                "label": "QP"
            },
            {
                "address": "0x0000000000000000000000000000000000000001",
                "label": "Precompiled"
            },
            {
                "address": "0x0000000000000000000000000000000000000002",
                "label": "Precompiled"
            },
            {
                "address": "0x0000000000000000000000000000000000000003",
                "label": "Precompiled"
            },
            {
                "address": "0x0000000000000000000000000000000000000004",
                "label": "Precompiled"
            }
        ]
    },
    "trace": {
        "accountLabels": null,
        "dataMap": {
            "-1": {
                "invocation": {
                    "address": "0x30264c13469b8ab071cdb27d82b5fd367e1937e6",
                    "callData": "",
                    "decodedMethod": null,
                    "errorInfo": "",
                    "fromAddress": "",
                    "gasUsed": 0,
                    "id": -1,
                    "methodDecoded": false,
                    "operation": "",
                    "output": "",
                    "revert": false,
                    "revertMessage": "",
                    "selector": "",
                    "status": false,
                    "value": ""
                },
                "nodeType": 0
            },
            "0": {
                "invocation": {
                    "address": "0x0bcc5683d7704b9c50aad6759c55f9aecbfe8878",
                    "callData": "0x0000000000000000000000002ccbfded216cf63ec5fdf066d099db943891a40e00000000000000000000000000000000000000000000000670ae629214680000",
                    "decodedMethod": {
                        "callParams": [
                            {
                                "name": "_to",
                                "type": "address",
                                "value": "0x2ccbfded216cf63ec5fdf066d099db943891a40e"
                            },
                            {
                                "decimalAvailable": true,
                                "name": "_value",
                                "type": "uint256",
                                "value": "118,800,000,000,000,000,000"
                            }
                        ],
                        "constructorArguments": "",
                        "name": "transfer",
                        "returnParams": [
                            {
                                "name": "",
                                "type": "bool",
                                "value": true
                            }
                        ],
                        "signature": "transfer(address,uint256)"
                    },
                    "errorInfo": "",
                    "fromAddress": "0x30264c13469b8ab071cdb27d82b5fd367e1937e6",
                    "gasUsed": 36185,
                    "id": 0,
                    "methodDecoded": true,
                    "operation": "CALL",
                    "output": "0x0000000000000000000000000000000000000000000000000000000000000001",
                    "revert": false,
                    "revertMessage": "",
                    "selector": "0xa9059cbb",
                    "status": true,
                    "value": "0"
                },
                "nodeType": 0
            },
            "1": {
                "event": {
                    "contract": "0x0bcc5683d7704b9c50aad6759c55f9aecbfe8878",
                    "decodedLog": {
                        "name": "Transfer",
                        "params": [
                            {
                                "name": "from",
                                "type": "address",
                                "value": "0x30264c13469b8ab071cdb27d82b5fd367e1937e6"
                            },
                            {
                                "name": "to",
                                "type": "address",
                                "value": "0x2ccbfded216cf63ec5fdf066d099db943891a40e"
                            },
                            {
                                "decimalAvailable": true,
                                "name": "value",
                                "type": "uint256",
                                "value": "118,800,000,000,000,000,000"
                            }
                        ],
                        "signature": "Transfer(address,address,uint256)"
                    },
                    "id": 1,
                    "logData": "0x00000000000000000000000000000000000000000000000670ae629214680000",
                    "logDecoded": true,
                    "operation": "EVENT",
                    "revert": false,
                    "status": true,
                    "topics": [
                        "0xddf252ad1be2c89b69c2b068fc378daa952ba7f163c4a11628f55a4df523b3ef",
                        "0x00000000000000000000000030264c13469b8ab071cdb27d82b5fd367e1937e6",
                        "0x0000000000000000000000002ccbfded216cf63ec5fdf066d099db943891a40e"
                    ]
                },
                "nodeType": 1
            }
        },
        "gasFlame": [
            {
                "children": [
                    {
                        "children": [
                            {
                                "children": [],
                                "depth": 0,
                                "name": "Initial Gas",
                                "value": 21644
                            },
                            {
                                "children": [],
                                "depth": 0,
                                "name": "Executed Gas",
                                "value": 14541
                            }
                        ],
                        "depth": -1,
                        "name": "Actual Gas Used",
                        "value": 36185
                    },
                    {
                        "children": [],
                        "depth": -1,
                        "name": "Refunded Gas",
                        "value": 0
                    }
                ],
                "depth": -2,
                "name": "Total Gas",
                "value": 36185
            }
        ],
        "isConfirmed": true,
        "mainTrace": [
            {
                "children": [
                    {
                        "children": [
                            {
                                "children": [],
                                "depth": 1,
                                "id": 1,
                                "order": 1
                            }
                        ],
                        "depth": 0,
                        "id": 0,
                        "order": 0
                    }
                ],
                "depth": -1,
                "id": -1,
                "order": -1
            }
        ],
        "mainTraceNodeCount": 2,
        "parentIdMap": {
            "0": -1,
            "1": 0
        },
        "tidyTrace": [
            {
                "children": [
                    {
                        "children": [
                            {
                                "children": [],
                                "depth": 1,
                                "id": 1,
                                "order": 1
                            }
                        ],
                        "depth": 0,
                        "id": 0,
                        "order": 0
                    }
                ],
                "depth": -1,
                "id": -1,
                "order": -1
            }
        ],
        "tidyTraceNodeCount": 2
    },
    "state_change": {
        "stateChanges": [
            {
                "address": "0x0bcc5683d7704b9c50aad6759c55f9aecbfe8878",
                "erc": "ERC-20",
                "slots": [
                    {
                        "current": "0x000000000000000000000000000000000000000000000267b94d3c3504420000",
                        "key": "0xe124635acb87517f18b77546604469c1a845f9a59d742f330ec6ce74390ff584",
                        "prev": "0x00000000000000000000000000000000000000000000026e29fb9ec718aa0000"
                    },
                    {
                        "current": "0x00000000000000000000000000000000000000000000006386178409b3e50000",
                        "key": "0x81dea1b4ed558ed40aaf894c17a310b21355334cd158b08160c87bde044b0ac4",
                        "prev": "0x00000000000000000000000000000000000000000000005d156921779f7d0000"
                    }
                ],
                "storageVariables": [
                    {
                        "name": "balances",
                        "type": "mapping(address => uint256)",
                        "value": {
                            "pairs": [
                                {
                                    "key": "0x2ccbfded216cf63ec5fdf066d099db943891a40e",
                                    "value": {
                                        "current": "1835890000000000000000",
                                        "prev": "1717090000000000000000",
                                        "typeTag": 1
                                    }
                                },
                                {
                                    "key": "0x30264c13469b8ab071cdb27d82b5fd367e1937e6",
                                    "value": {
                                        "current": "11358100000000000000000",
                                        "prev": "11476900000000000000000",
                                        "typeTag": 1
                                    }
                                }
                            ],
                            "typeTag": 4
                        }
                    }
                ]
            }
        ]
    }
}