{
    "balance_change": {
        "balanceChanges": [
            {
                "account": "0x4679d68aaa07f2a57741ac0db8770f0a287b4948",
                "assets": [
                    {
                        "address": "0x8e6cd950ad6ba651f6dd608dc70e5886b1aa6b24",
                        "amount": "82,692,917.967637468353885071",
                        "iconUrl": "",
                        "isERC1155": false,
                        "isERC721": false,
                        "sign": false,
                        "value": ""
                    }
                ]
            },
            {
                "account": "0x4a41d76b0524a3989998380c033f12bfeb5f7201",
                "assets": [
                    {
                        "address": "0x8e6cd950ad6ba651f6dd608dc70e5886b1aa6b24",
                        "amount": "82,692,917.967637468353885071",
                        "iconUrl": "",
                        "isERC1155": false,
                        "isERC721": false,
                        "sign": true,
                        "value": ""
                    }
                ]
            }
        ]
    },
    "profile": {
        "basic_info": {
            "baseFee": "13.891210596",
            "blockNumber": 17572394,
            "callData": "0xa9059cbb0000000000000000000000004a41d76b0524a3989998380c033f12bfeb5f72010000000000000000000000000000000000000000004466e810c38da8884b738f",
            "debugEnable": true,
            "errorInfo": "",
            "eventCount": 1,
            "feeRecipient": "0x690b9a9e9aa1c9db991c7721a92d351db4fac990",
            "formatValue": "0",
            "gasLimit": 65743,
            "gasPrice": "16.8637",
            "gasUsed": 30683,
            "intTxnCount": 0,
            "internalRevert": false,
            "internalRevertMessage": "",
            "isContractCreation": false,
            "isFlashloan": false,
            "maxFee": "",
            "nonce": 11,
            "overwritedBlockNumber": -1,
            "priorityFee": "",
            "receiver": "0x8e6cd950ad6ba651f6dd608dc70e5886b1aa6b24",
            "revertMessage": "",
            "sender": "0x4679d68aaa07f2a57741ac0db8770f0a287b4948",
            "simulationEnable": true,
            "sourceTxnHash": "0x3060443286fce3332c51b047426d93812812c24d1a9e6b237d1689c6f31d6263",
            "status": true,
            "timestamp": "2023-06-27T18:13:59Z",
            "transactionFee": "0.0005174289071",
            "txnHash": "0x3060443286fce3332c51b047426d93812812c24d1a9e6b237d1689c6f31d6263",
            "txnIndex": 31,
            "type": 0,
            "value": "0"
        },
        "fund_flow": [
            {
                "amount": "82,692,917.967637468353885071",
                "from": "0x4679d68aaa07f2a57741ac0db8770f0a287b4948",
                "id": 1,
                "isERC1155": false,
                "isERC721": false,
                "isReverted": false,
                "order": 1,
                "to": "0x4a41d76b0524a3989998380c033f12bfeb5f7201",
                "token": "0x8e6cd950ad6ba651f6dd608dc70e5886b1aa6b24"
            }
        ],
        "token_infos": [
            {
                "address": "0x8e6cd950ad6ba651f6dd608dc70e5886b1aa6b24",
                "decimals": 18
            },
            {
                "address": "0xc02aaa39b223fe8d0a0e5c4f27ead9083c756cc2",
                "decimals": 18
            },
            {
                "address": "0xeeeeeeeeeeeeeeeeeeeeeeeeeeeeeeeeeeeeeeee",
                "decimals": 18
            }
        ]
    },
    "address_label": {
        "labels": [
            {
                "address": "0x4679d68aaa07f2a57741ac0db8770f0a287b4948",
                "label": "HOTBIT"
            },
            {
                "address": "0x0000000000000000000000000000000000000001",
                "label": "Precompiled"
            },
            {
                "address": "0x0000000000000000000000000000000000000002",
                "label": "Precompiled"
            },
            {
                "address": "0x0000000000000000000000000000000000000003",
                "label": "Precompiled"
            },
            {
                "address": "0x0000000000000000000000000000000000000004",
                "label": "Precompiled"
            },
            {
                "address": "0xeeeeeeeeeeeeeeeeeeeeeeeeeeeeeeeeeeeeeeee",
                "label": "Ether"
            },
            {
                "address": "0x8e6cd950ad6ba651f6dd608dc70e5886b1aa6b24",
                "label": "StarLink: STARL Token"
            }
        ]
    },
    "trace": {
        "accountLabels": null,
        "dataMap": {
            "-1": {
                "invocation": {
                    "address": "0x4679d68aaa07f2a57741ac0db8770f0a287b4948",
                    "callData": "",
                    "decodedMethod": null,
                    "errorInfo": "",
                    "fromAddress": "",
                    "gasUsed": 0,
                    "id": -1,
                    "methodDecoded": false,
                    "operation": "",
                    "output": "",
                    "revert": false,
                    "revertMessage": "",
                    "selector": "",
                    "status": false,
                    "value": ""
                },
                "nodeType": 0
            },
            "0": {
                "invocation": {
                    "address": "0x8e6cd950ad6ba651f6dd608dc70e5886b1aa6b24",
                    "callData": "0x0000000000000000000000004a41d76b0524a3989998380c033f12bfeb5f72010000000000000000000000000000000000000000004466e810c38da8884b738f",
                    "decodedMethod": {
                        "callParams": [
                            {
                                "name": "recipient",
                                "type": "address",
                                "value": "0x4a41d76b0524a3989998380c033f12bfeb5f7201"
                            },
                            {
                                "decimalAvailable": true,
                                "name": "amount",
                                "type": "uint256",
                                "value": "82,692,917,967,637,468,353,885,071"
                            }
                        ],
                        "constructorArguments": "",
                        "name": "transfer",
                        "returnParams": [
                            {
                                "name": "",
                                "type": "bool",
                                "value": true
                            }
                        ],
                        "signature": "transfer(address,uint256)"
                    },
                    "errorInfo": "",
                    "fromAddress": "0x4679d68aaa07f2a57741ac0db8770f0a287b4948",
                    "gasUsed": 30683,
                    "id": 0,
                    "methodDecoded": true,
                    "operation": "CALL",
                    "output": "0x0000000000000000000000000000000000000000000000000000000000000001",
                    "revert": false,
                    "revertMessage": "",
                    "selector": "0xa9059cbb",
                    "status": true,
                    "value": "0"
                },
                "nodeType": 0
            },
            "1": {
                "event": {
                    "contract": "0x8e6cd950ad6ba651f6dd608dc70e5886b1aa6b24",
                    "decodedLog": {
                        "name": "Transfer",
                        "params": [
                            {
                                "name": "from",
                                "type": "address",
                                "value": "0x4679d68aaa07f2a57741ac0db8770f0a287b4948"
                            },
                            {
                                "name": "to",
                                "type": "address",
                                "value": "0x4a41d76b0524a3989998380c033f12bfeb5f7201"
                            },
                            {
                                "decimalAvailable": true,
                                "name": "value",
                                "type": "uint256",
                                "value": "82,692,917,967,637,468,353,885,071"
                            }
                        ],
                        "signature": "Transfer(address,address,uint256)"
                    },
                    "id": 1,
                    "logData": "0x0000000000000000000000000000000000000000004466e810c38da8884b738f",
                    "logDecoded": true,
                    "operation": "EVENT",
                    "revert": false,
                    "status": true,
                    "topics": [
                        "0xddf252ad1be2c89b69c2b068fc378daa952ba7f163c4a11628f55a4df523b3ef",
                        "0x0000000000000000000000004679d68aaa07f2a57741ac0db8770f0a287b4948",
                        "0x0000000000000000000000004a41d76b0524a3989998380c033f12bfeb5f7201"
                    ]
                },
                "nodeType": 1
            }
        },
        "gasFlame": [
            {
                "children": [
                    {
                        "children": [
                            {
                                "children": [],
                                "depth": 0,
                                "name": "Initial Gas",
                                "value": 21692
                            },
                            {
                                "children": [],
                                "depth": 0,
                                "name": "Executed Gas",
                                "value": 13791
                            }
                        ],
                        "depth": -1,
                        "name": "Actual Gas Used",
                        "value": 30683
                    },
                    {
                        "children": [],
                        "depth": -1,
                        "name": "Refunded Gas",
                        "value": 4800
                    }
                ],
                "depth": -2,
                "name": "Total Gas",
                "value": 35483
            }
        ],
        "isConfirmed": true,
        "mainTrace": [
            {
                "children": [
                    {
                        "children": [
                            {
                                "children": [],
                                "depth": 1,
                                "id": 1,
                                "order": 1
                            }
                        ],
                        "depth": 0,
                        "id": 0,
                        "order": 0
                    }
                ],
                "depth": -1,
                "id": -1,
                "order": -1
            }
        ],
        "mainTraceNodeCount": 2,
        "parentIdMap": {
            "0": -1,
            "1": 0
        },
        "tidyTrace": [
            {
                "children": [
                    {
                        "children": [
                            {
                                "children": [],
                                "depth": 1,
                                "id": 1,
                                "order": 1
                            }
                        ],
                        "depth": 0,
                        "id": 0,
                        "order": 0
                    }
                ],
                "depth": -1,
                "id": -1,
                "order": -1
            }
        ],
        "tidyTraceNodeCount": 2
    },
    "state_change": {
        "stateChanges": [
            {
                "address": "0x8e6cd950ad6ba651f6dd608dc70e5886b1aa6b24",
                "erc": "ERC-20",
                "slots": [
                    {
                        "current": "0x0000000000000000000000000000000000000000000000000000000000000000",
                        "key": "0x937846446c1a783546bdefbc0085dd2487475e076941a2da325224e03214abdf",
                        "prev": "0x0000000000000000000000000000000000000000004466e810c38da8884b738f"
                    },
                    {
                        "current": "0x000000000000000000000000000000000000000021e0bc055b6818e32780c602",
                        "key": "0x591b5638a67b1d47c3a181ea41e28e6fda63671133f551707b39a90e46e9e4ca",
                        "prev": "0x0000000000000000000000000000000000000000219c551d4aa48b3a9f355273"
                    }
                ],
                "storageVariables": [
                    {
                        "name": "_balances",
                        "type": "mapping(address => uint256)",
                        "value": {
                            "pairs": [
                                {
                                    "key": "0x4679d68aaa07f2a57741ac0db8770f0a287b4948",
                                    "value": {
                                        "current": "0",
                                        "prev": "82692917967637468353885071",
                                        "typeTag": 1
                                    }
                                },
                                {
                                    "key": "0x4a41d76b0524a3989998380c033f12bfeb5f7201",
                                    "value": {
                                        "current": "10484692611417105883828635138",
                                        "prev": "10401999693449468415474750067",
                                        "typeTag": 1
                                    }
                                }
                            ],
                            "typeTag": 4
                        }
                    }
                ]
            }
        ]
    }
}