{
    "balance_change": {
        "balanceChanges": [
            {
                "account": "0x99028355c4233c7b3544628fc5d7f24100f09c08",
                "assets": [
                    {
                        "address": "0x7d1afa7b718fb893db30a3abc0cfc608aacfebb0",
                        "amount": "9.21659",
                        "iconUrl": "https://assets.blocksec.com/icon/5dc5187d80083e1e6ca5ca29581f660fdc3ebdf47eef117c3dfa3a0c07ab7d33.png",
                        "isERC1155": false,
                        "isERC721": false,
                        "sign": false,
                        "value": "20.23041505"
                    }
                ]
            },
            {
                "account": "0xc56afd07603aaadb2d2936c318098691c37d64d4",
                "assets": [
                    {
                        "address": "0x7d1afa7b718fb893db30a3abc0cfc608aacfebb0",
                        "amount": "9.21659",
                        "iconUrl": "https://assets.blocksec.com/icon/5dc5187d80083e1e6ca5ca29581f660fdc3ebdf47eef117c3dfa3a0c07ab7d33.png",
                        "isERC1155": false,
                        "isERC721": false,
                        "sign": true,
                        "value": "20.23041505"
                    }
                ]
            }
        ]
    },
    "profile": {
        "basic_info": {
            "baseFee": "93.980167475",
            "blockNumber": 13731875,
            "callData": "0xa9059cbb000000000000000000000000c56afd07603aaadb2d2936c318098691c37d64d40000000000000000000000000000000000000000000000007fe7e7c5fe6ae000",
            "debugEnable": true,
            "errorInfo": "",
            "eventCount": 1,
            "feeRecipient": "0xea674fdde714fd979de3edf0f56aa9716b898ec8",
            "formatValue": "0",
            "gasLimit": 64819,
            "gasPrice": "98.037167475",
            "gasUsed": 54016,
            "intTxnCount": 0,
            "internalRevert": false,
            "internalRevertMessage": "",
            "isContractCreation": false,
            "isFlashloan": false,
            "maxFee": "140.391584116",
            "nonce": 15092,
            "overwritedBlockNumber": -1,
            "priorityFee": "4.057",
            "receiver": "0x7d1afa7b718fb893db30a3abc0cfc608aacfebb0",
            "revertMessage": "",
            "sender": "0x99028355c4233c7b3544628fc5d7f24100f09c08",
            "simulationEnable": true,
            "sourceTxnHash": "0x3099a07b2a9af6a60eb6f98effcab2e942bf4b2df02881d5519cb97089516670",
            "status": true,
            "timestamp": "2021-12-03T05:58:42Z",
            "transactionFee": "0.0052955756383296",
            "txnHash": "0x3099a07b2a9af6a60eb6f98effcab2e942bf4b2df02881d5519cb97089516670",
            "txnIndex": 116,
            "type": 2,
            "value": "0"
        },
        "fund_flow": [
            {
                "amount": "9.21659",
                "from": "0x99028355c4233c7b3544628fc5d7f24100f09c08",
                "id": 1,
                "isERC1155": false,
                "isERC721": false,
                "isReverted": false,
                "order": 1,
                "to": "0xc56afd07603aaadb2d2936c318098691c37d64d4",
                "token": "0x7d1afa7b718fb893db30a3abc0cfc608aacfebb0"
            }
        ],
        "token_infos": [
            {
                "address": "0x7d1afa7b718fb893db30a3abc0cfc608aacfebb0",
                "decimals": 18
            },
            {
                "address": "0xc02aaa39b223fe8d0a0e5c4f27ead9083c756cc2",
                "decimals": 18
            },
            {
                "address": "0xeeeeeeeeeeeeeeeeeeeeeeeeeeeeeeeeeeeeeeee",
                "decimals": 18
            }
        ]
    },
    "address_label": {
        "labels": [
            {
                "address": "0x7d1afa7b718fb893db30a3abc0cfc608aacfebb0",
                "label": "Polygon (Matic): Old Matic Token"
            },
            {
                "address": "0x0000000000000000000000000000000000000001",
                "label": "Precompiled"
            },
            {
                "address": "0x0000000000000000000000000000000000000002",
                "label": "Precompiled"
            },
            {
                "address": "0x0000000000000000000000000000000000000003",
                "label": "Precompiled"
            },
            {
                "address": "0x0000000000000000000000000000000000000004",
                "label": "Precompiled"
            },
            {
                "address": "0xeeeeeeeeeeeeeeeeeeeeeeeeeeeeeeeeeeeeeeee",
                "label": "Ether"
            },
            {
                "address": "0xc56afd07603aaadb2d2936c318098691c37d64d4",
                "label": "KUCOIN"
            }
        ]
    },
    "trace": {
        "accountLabels": null,
        "dataMap": {
            "-1": {
                "invocation": {
                    "address": "0x99028355c4233c7b3544628fc5d7f24100f09c08",
                    "callData": "",
                    "decodedMethod": null,
                    "errorInfo": "",
                    "fromAddress": "",
                    "gasUsed": 0,
                    "id": -1,
                    "methodDecoded": false,
                    "operation": "",
                    "output": "",
                    "revert": false,
                    "revertMessage": "",
                    "selector": "",
                    "status": false,
                    "value": ""
                },
                "nodeType": 0
            },
            "0": {
                "invocation": {
                    "address": "0x7d1afa7b718fb893db30a3abc0cfc608aacfebb0",
                    "callData": "0x000000000000000000000000c56afd07603aaadb2d2936c318098691c37d64d40000000000000000000000000000000000000000000000007fe7e7c5fe6ae000",
                    "decodedMethod": {
                        "callParams": [
                            {
                                "name": "to",
                                "type": "address",
                                "value": "0xc56afd07603aaadb2d2936c318098691c37d64d4"
                            },
                            {
                                "decimalAvailable": true,
                                "name": "value",
                                "type": "uint256",
                                "value": "9,216,590,000,000,000,000"
                            }
                        ],
                        "constructorArguments": "",
                        "name": "transfer",
                        "returnParams": [
                            {
                                "name": "",
                                "type": "bool",
                                "value": true
                            }
                        ],
                        "signature": "transfer(address,uint256)"
                    },
                    "errorInfo": "",
                    "fromAddress": "0x99028355c4233c7b3544628fc5d7f24100f09c08",
                    "gasUsed": 54016,
                    "id": 0,
                    "methodDecoded": true,
                    "operation": "CALL",
                    "output": "0x0000000000000000000000000000000000000000000000000000000000000001",
                    "revert": false,
                    "revertMessage": "",
                    "selector": "0xa9059cbb",
                    "status": true,
                    "value": "0"
                },
                "nodeType": 0
            },
            "1": {
                "event": {
                    "contract": "0x7d1afa7b718fb893db30a3abc0cfc608aacfebb0",
                    "decodedLog": {
                        "name": "Transfer",
                        "params": [
                            {
                                "name": "from",
                                "type": "address",
                                "value": "0x99028355c4233c7b3544628fc5d7f24100f09c08"
                            },
                            {
                                "name": "to",
                                "type": "address",
                                "value": "0xc56afd07603aaadb2d2936c318098691c37d64d4"
                            },
                            {
                                "decimalAvailable": true,
                                "name": "value",
                                "type": "uint256",
                                "value": "9,216,590,000,000,000,000"
                            }
                        ],
                        "signature": "Transfer(address,address,uint256)"
                    },
                    "id": 1,
                    "logData": "0x0000000000000000000000000000000000000000000000007fe7e7c5fe6ae000",
                    "logDecoded": true,
                    "operation": "EVENT",
                    "revert": false,
                    "status": true,
                    "topics": [
                        "0xddf252ad1be2c89b69c2b068fc378daa952ba7f163c4a11628f55a4df523b3ef",
                        "0x00000000000000000000000099028355c4233c7b3544628fc5d7f24100f09c08",
                        "0x000000000000000000000000c56afd07603aaadb2d2936c318098691c37d64d4"
                    ]
                },
                "nodeType": 1
            }
        },
        "gasFlame": [
            {
                "children": [
                    {
                        "children": [
                            {
                                "children": [],
                                "depth": 0,
                                "name": "Initial Gas",
                                "value": 21644
                            },
                            {
                                "children": [],
                                "depth": 0,
                                "name": "Executed Gas",
                                "value": 32372
                            }
                        ],
                        "depth": -1,
                        "name": "Actual Gas Used",
                        "value": 54016
                    },
                    {
                        "children": [],
                        "depth": -1,
                        "name": "Refunded Gas",
                        "value": 0
                    }
                ],
                "depth": -2,
                "name": "Total Gas",
                "value": 54016
            }
        ],
        "isConfirmed": true,
        "mainTrace": [
            {
                "children": [
                    {
                        "children": [
                            {
                                "children": [],
                                "depth": 1,
                                "id": 1,
                                "order": 1
                            }
                        ],
                        "depth": 0,
                        "id": 0,
                        "order": 0
                    }
                ],
                "depth": -1,
                "id": -1,
                "order": -1
            }
        ],
        "mainTraceNodeCount": 2,
        "parentIdMap": {
            "0": -1,
            "1": 0
        },
        "tidyTrace": [
            {
                "children": [
                    {
                        "children": [
                            {
                                "children": [],
                                "depth": 1,
                                "id": 1,
                                "order": 1
                            }
                        ],
                        "depth": 0,
                        "id": 0,
                        "order": 0
                    }
                ],
                "depth": -1,
                "id": -1,
                "order": -1
            }
        ],
        "tidyTraceNodeCount": 2
    },
    "state_change": {
        "stateChanges": [
            {
                "address": "0x7d1afa7b718fb893db30a3abc0cfc608aacfebb0",
                "erc": "ERC-20",
                "slots": [
                    {
                        "current": "0x0000000000000000000000000000000000000000000034c1ee064205fa7844d0",
                        "key": "0xad50aafc3f4b9273119e98018ca025b7f94476f903d86232158d0eef038c780e",
                        "prev": "0x0000000000000000000000000000000000000000000034c26dee29cbf8e324d0"
                    },
                    {
                        "current": "0x0000000000000000000000000000000000000000000000007fe7e7c5fe6ae000",
                        "key": "0x51725980ee8ae817bf1f892f98bf1929274ccac8f5071ee960e4e1dfe1e0bded",
                        "prev": "0x0000000000000000000000000000000000000000000000000000000000000000"
                    }
                ],
                "storageVariables": [
                    {
                        "name": "_balances",
                        "type": "mapping(address => uint256)",
                        "value": {
                            "pairs": [
                                {
                                    "key": "0x99028355c4233c7b3544628fc5d7f24100f09c08",
                                    "value": {
                                        "current": "249140430184271826142416",
                                        "prev": "249149646774271826142416",
                                        "typeTag": 1
                                    }
                                },
                                {
                                    "key": "0xc56afd07603aaadb2d2936c318098691c37d64d4",
                                    "value": {
                                        "current": "9216590000000000000",
                                        "prev": "0",
                                        "typeTag": 1
                                    }
                                }
                            ],
                            "typeTag": 4
                        }
                    }
                ]
            }
        ]
    }
}