{
    "balance_change": {
        "balanceChanges": [
            {
                "account": "0x412b4f113b268e89aba841b57eae45366f99bfc6",
                "assets": [
                    {
                        "address": "0x8f136cc8bef1fea4a7b71aa2301ff1a52f084384",
                        "amount": "1.01",
                        "iconUrl": "",
                        "isERC1155": false,
                        "isERC721": false,
                        "sign": false,
                        "value": ""
                    }
                ]
            },
            {
                "account": "0xc55c55ccd2581c7a8cb6b04fbbd1ee794c2b3c8a",
                "assets": [
                    {
                        "address": "0x8f136cc8bef1fea4a7b71aa2301ff1a52f084384",
                        "amount": "1.01",
                        "iconUrl": "",
                        "isERC1155": false,
                        "isERC721": false,
                        "sign": true,
                        "value": ""
                    }
                ]
            }
        ]
    },
    "profile": {
        "basic_info": {
            "baseFee": "",
            "blockNumber": 5941563,
            "callData": "0xa9059cbb000000000000000000000000c55c55ccd2581c7a8cb6b04fbbd1ee794c2b3c8a0000000000000000000000000000000000000000000000000000000006052340",
            "debugEnable": true,
            "errorInfo": "",
            "eventCount": 1,
            "feeRecipient": "0x829bd824b016326a401d083b33d092293333a830",
            "formatValue": "0",
            "gasLimit": 60000,
            "gasPrice": "6",
            "gasUsed": 51945,
            "intTxnCount": 0,
            "internalRevert": false,
            "internalRevertMessage": "",
            "isContractCreation": false,
            "isFlashloan": false,
            "maxFee": "",
            "nonce": 3214,
            "overwritedBlockNumber": -1,
            "priorityFee": "",
            "receiver": "0x8f136cc8bef1fea4a7b71aa2301ff1a52f084384",
            "revertMessage": "",
            "sender": "0x412b4f113b268e89aba841b57eae45366f99bfc6",
            "simulationEnable": true,
            "sourceTxnHash": "0x316b9b866c38c05df16ca71e6c99736366ab69ab3b65b535ff1b0e86258b1fdb",
            "status": true,
            "timestamp": "2018-07-10T23:25:38Z",
            "transactionFee": "0.00031167",
            "txnHash": "0x316b9b866c38c05df16ca71e6c99736366ab69ab3b65b535ff1b0e86258b1fdb",
            "txnIndex": 78,
            "type": 0,
            "value": "0"
        },
        "fund_flow": [
            {
                "amount": "1.01",
                "from": "0x412b4f113b268e89aba841b57eae45366f99bfc6",
                "id": 1,
                "isERC1155": false,
                "isERC721": false,
                "isReverted": false,
                "order": 1,
                "to": "0xc55c55ccd2581c7a8cb6b04fbbd1ee794c2b3c8a",
                "token": "0x8f136cc8bef1fea4a7b71aa2301ff1a52f084384"
            }
        ],
        "token_infos": [
            {
                "address": "0x8f136cc8bef1fea4a7b71aa2301ff1a52f084384",
                "decimals": 8
            },
            {
                "address": "0xc02aaa39b223fe8d0a0e5c4f27ead9083c756cc2",
                "decimals": 18
            },
            {
                "address": "0xeeeeeeeeeeeeeeeeeeeeeeeeeeeeeeeeeeeeeeee",
                "decimals": 18
            }
        ]
    },
    "address_label": {
        "labels": [
            {
                "address": "0x0000000000000000000000000000000000000004",
                "label": "Precompiled"
            },
            {
                "address": "0xeeeeeeeeeeeeeeeeeeeeeeeeeeeeeeeeeeeeeeee",
                "label": "Ether"
            },
            {
                "address": "0x8f136cc8bef1fea4a7b71aa2301ff1a52f084384",
                "label": "StarChain: STC Token"
            },
            {
                "address": "0x0000000000000000000000000000000000000001",
                "label": "Precompiled"
            },
            {
                "address": "0x0000000000000000000000000000000000000002",
                "label": "Precompiled"
            },
            {
                "address": "0x0000000000000000000000000000000000000003",
                "label": "Precompiled"
            }
        ]
    },
    "trace": {
        "accountLabels": null,
        "dataMap": {
            "-1": {
                "invocation": {
                    "address": "0x412b4f113b268e89aba841b57eae45366f99bfc6",
                    "callData": "",
                    "decodedMethod": null,
                    "errorInfo": "",
                    "fromAddress": "",
                    "gasUsed": 0,
                    "id": -1,
                    "methodDecoded": false,
                    "operation": "",
                    "output": "",
                    "revert": false,
                    "revertMessage": "",
                    "selector": "",
                    "status": false,
                    "value": ""
                },
                "nodeType": 0
            },
            "0": {
                "invocation": {
                    "address": "0x8f136cc8bef1fea4a7b71aa2301ff1a52f084384",
                    "callData": "0x000000000000000000000000c55c55ccd2581c7a8cb6b04fbbd1ee794c2b3c8a0000000000000000000000000000000000000000000000000000000006052340",
                    "decodedMethod": {
                        "callParams": [
                            {
                                "name": "_to",
                                "type": "address",
                                "value": "0xc55c55ccd2581c7a8cb6b04fbbd1ee794c2b3c8a"
                            },
                            {
                                "decimalAvailable": true,
                                "name": "_amount",
                                "type": "uint256",
                                "value": "101,000,000"
                            }
                        ],
                        "constructorArguments": "",
                        "name": "transfer",
                        "returnParams": [
                            {
                                "name": "success",
                                "type": "bool",
                                "value": true
                            }
                        ],
                        "signature": "transfer(address,uint256)"
                    },
                    "errorInfo": "",
                    "fromAddress": "0x412b4f113b268e89aba841b57eae45366f99bfc6",
                    "gasUsed": 51945,
                    "id": 0,
                    "methodDecoded": true,
                    "operation": "CALL",
                    "output": "0x0000000000000000000000000000000000000000000000000000000000000001",
                    "revert": false,
                    "revertMessage": "",
                    "selector": "0xa9059cbb",
                    "status": true,
                    "value": "0"
                },
                "nodeType": 0
            },
            "1": {
                "event": {
                    "contract": "0x8f136cc8bef1fea4a7b71aa2301ff1a52f084384",
                    "decodedLog": {
                        "name": "Transfer",
                        "params": [
                            {
                                "name": "_from",
                                "type": "address",
                                "value": "0x412b4f113b268e89aba841b57eae45366f99bfc6"
                            },
                            {
                                "name": "_to",
                                "type": "address",
                                "value": "0xc55c55ccd2581c7a8cb6b04fbbd1ee794c2b3c8a"
                            },
                            {
                                "decimalAvailable": true,
                                "name": "_value",
                                "type": "uint256",
                                "value": "101,000,000"
                            }
                        ],
                        "signature": "Transfer(address,address,uint256)"
                    },
                    "id": 1,
                    "logData": "0x0000000000000000000000000000000000000000000000000000000006052340",
                    "logDecoded": true,
                    "operation": "EVENT",
                    "revert": false,
                    "status": true,
                    "topics": [
                        "0xddf252ad1be2c89b69c2b068fc378daa952ba7f163c4a11628f55a4df523b3ef",
                        "0x000000000000000000000000412b4f113b268e89aba841b57eae45366f99bfc6",
                        "0x000000000000000000000000c55c55ccd2581c7a8cb6b04fbbd1ee794c2b3c8a"
                    ]
                },
                "nodeType": 1
            }
        },
        "gasFlame": [
            {
                "children": [
                    {
                        "children": [
                            {
                                "children": [],
                                "depth": 0,
                                "name": "Initial Gas",
                                "value": 23064
                            },
                            {
                                "children": [],
                                "depth": 0,
                                "name": "Executed Gas",
                                "value": 28881
                            }
                        ],
                        "depth": -1,
                        "name": "Actual Gas Used",
                        "value": 51945
                    },
                    {
                        "children": [],
                        "depth": -1,
                        "name": "Refunded Gas",
                        "value": 0
                    }
                ],
                "depth": -2,
                "name": "Total Gas",
                "value": 51945
            }
        ],
        "isConfirmed": true,
        "mainTrace": [
            {
                "children": [
                    {
                        "children": [
                            {
                                "children": [],
                                "depth": 1,
                                "id": 1,
                                "order": 1
                            }
                        ],
                        "depth": 0,
                        "id": 0,
                        "order": 0
                    }
                ],
                "depth": -1,
                "id": -1,
                "order": -1
            }
        ],
        "mainTraceNodeCount": 2,
        "parentIdMap": {
            "0": -1,
            "1": 0
        },
        "tidyTrace": [
            {
                "children": [
                    {
                        "children": [
                            {
                                "children": [],
                                "depth": 1,
                                "id": 1,
                                "order": 1
                            }
                        ],
                        "depth": 0,
                        "id": 0,
                        "order": 0
                    }
                ],
                "depth": -1,
                "id": -1,
                "order": -1
            }
        ],
        "tidyTraceNodeCount": 2
    },
    "state_change": {
        "stateChanges": [
            {
                "address": "0x8f136cc8bef1fea4a7b71aa2301ff1a52f084384",
                "erc": "ERC-20",
                "slots": [
                    {
                        "current": "0x0000000000000000000000000000000000000000000000000000044b766e5300",
                        "key": "0x7ca0fb1910813a192695efdac856743b5df0eec1284e9d79e4aa0a35aefde812",
                        "prev": "0x0000000000000000000000000000000000000000000000000000044b7c737640"
                    },
                    {
                        "current": "0x0000000000000000000000000000000000000000000000000000000006052340",
                        "key": "0x302e31434e3b28727c6c4603d85399599e6cb49b8bdd7c996cbe006dbf6ce954",
                        "prev": "0x0000000000000000000000000000000000000000000000000000000000000000"
                    }
                ],
                "storageVariables": [
                    {
                        "name": "balances",
                        "type": "mapping(address => uint256)",
                        "value": {
                            "pairs": [
                                {
                                    "key": "0x412b4f113b268e89aba841b57eae45366f99bfc6",
                                    "value": {
                                        "current": "4722156000000",
                                        "prev": "4722257000000",
                                        "typeTag": 1
                                    }
                                },
                                {
                                    "key": "0xc55c55ccd2581c7a8cb6b04fbbd1ee794c2b3c8a",
                                    "value": {
                                        "current": "101000000",
                                        "prev": "0",
                                        "typeTag": 1
                                    }
                                }
                            ],
                            "typeTag": 4
                        }
                    }
                ]
            }
        ]
    }
}