{
    "balance_change": {
        "balanceChanges": [
            {
                "account": "0x0681e844593a051e2882ec897ecd5444efe19ff2",
                "assets": [
                    {
                        "address": "0xc02aaa39b223fe8d0a0e5c4f27ead9083c756cc2",
                        "amount": "0.001033892206513052",
                        "iconUrl": "https://assets.blocksec.com/icon/f1cb2d02c471d545bbc7722daf3277fd852d98e63d118771af7047bd8256c516.png",
                        "isERC1155": false,
                        "isERC721": false,
                        "sign": true,
                        "value": ""
                    }
                ]
            },
            {
                "account": "0x260e92d7b25c9315d068b2c3ca5f234d0cf9e505",
                "assets": [
                    {
                        "address": "0xc02aaa39b223fe8d0a0e5c4f27ead9083c756cc2",
                        "amount": "0.059340084243486948",
                        "iconUrl": "https://assets.blocksec.com/icon/f1cb2d02c471d545bbc7722daf3277fd852d98e63d118771af7047bd8256c516.png",
                        "isERC1155": false,
                        "isERC721": false,
                        "sign": true,
                        "value": ""
                    },
                    {
                        "address": "0x503f9794d6a6bb0df8fbb19a2b3e2aeab35339ad",
                        "amount": "1,835",
                        "iconUrl": "",
                        "isERC1155": false,
                        "isERC721": false,
                        "sign": false,
                        "value": ""
                    }
                ]
            },
            {
                "account": "0xda912ecc847b3d98ca882e396e693e485deed518",
                "assets": [
                    {
                        "address": "0xc02aaa39b223fe8d0a0e5c4f27ead9083c756cc2",
                        "amount": "0.06037397645",
                        "iconUrl": "https://assets.blocksec.com/icon/f1cb2d02c471d545bbc7722daf3277fd852d98e63d118771af7047bd8256c516.png",
                        "isERC1155": false,
                        "isERC721": false,
                        "sign": false,
                        "value": ""
                    },
                    {
                        "address": "0x503f9794d6a6bb0df8fbb19a2b3e2aeab35339ad",
                        "amount": "1,835",
                        "iconUrl": "",
                        "isERC1155": false,
                        "isERC721": false,
                        "sign": true,
                        "value": ""
                    }
                ]
            }
        ]
    },
    "profile": {
        "basic_info": {
            "baseFee": "",
            "blockNumber": 6846494,
            "callData": "0x3c28d861000000000000000000000000000000000000000000000000000000000000008000000000000000000000000000000000000000000000000000000000000002c000000000000000000000000000000000000000000000000000000000000004800000000000000000000000000000000000000000000000000000000000000500000000000000000000000000da912ecc847b3d98ca882e396e693e485deed5180000000000000000000000000681e844593a051e2882ec897ecd5444efe19ff20000000000000000000000008124071f810d533ff63de61d0c98db99eeb99d64000000000000000000000000000000000000000000000000000000000000000000000000000000000000000000000000000000000000000000d67dcfcbfae48000000000000000000000000000000000000000000000006379bd99c0d9cc000000000000000000000000000000000000000000000000000000000000000000000000000000000000000000000000000000000000000000000000000000000000000000000000000000000000000000000000000000000000000000005c0b5054a8bbf1fb608c90289055f3d2a3b0649194ae6716c08eab6e74213ffcc96a603b000000000000000000000000000000000000000000000000000000000000018000000000000000000000000000000000000000000000000000000000000001e00000000000000000000000000000000000000000000000000000000000000024f47261b0000000000000000000000000c02aaa39b223fe8d0a0e5c4f27ead9083c756cc2000000000000000000000000000000000000000000000000000000000000000000000000000000000000000000000000000000000000000000000024f47261b0000000000000000000000000503f9794d6a6bb0df8fbb19a2b3e2aeab35339ad00000000000000000000000000000000000000000000000000000000000000000000000000000000260e92d7b25c9315d068b2c3ca5f234d0cf9e5050000000000000000000000000681e844593a051e2882ec897ecd5444efe19ff20000000000000000000000008124071f810d533ff63de61d0c98db99eeb99d640000000000000000000000000000000000000000000000000000000000000000000000000000000000000000000000000000000000000064386019f57145700000000000000000000000000000000000000000000000000000d465810ca5380000000000000000000000000000000000000000000000000000000000000000000000000000000000000000000000000000000000000000000000000000000000000000000000000000000000000000000000000000000000000000005c0b50545e2477eb7d53eaa06af06df1c857d40928853c6faca638d08ebfc444ceb47b61000000000000000000000000000000000000000000000000000000000000018000000000000000000000000000000000000000000000000000000000000001a00000000000000000000000000000000000000000000000000000000000000000000000000000000000000000000000000000000000000000000000000000000000000000000000000000000000000000000000000000000000000000000000421b95771024ab52bf929247255d3921dffc2cd139c0895aba000b8633e858904e8c322e88daae6c93778cbe1e4aab9971f211c420ca8765b13514f4a8b5330195a70300000000000000000000000000000000000000000000000000000000000000000000000000000000000000000000000000000000000000000000000000421b9391d00c3817838b0422a9abdd9937188cc60a7f0b5297be337d0181e3146f1b17d075877d14ad312f1c222a4e2f749a168afbf5cb9cd10540349fb079933e7d03000000000000000000000000000000000000000000000000000000000000",
            "debugEnable": true,
            "errorInfo": "",
            "eventCount": 5,
            "feeRecipient": "0x829bd824b016326a401d083b33d092293333a830",
            "formatValue": "0",
            "gasLimit": 800000,
            "gasPrice": "6.5",
            "gasUsed": 210683,
            "intTxnCount": 8,
            "internalRevert": false,
            "internalRevertMessage": "",
            "isContractCreation": false,
            "isFlashloan": false,
            "maxFee": "",
            "nonce": 16266,
            "overwritedBlockNumber": -1,
            "priorityFee": "",
            "receiver": "0x4f833a24e1f95d70f028921e27040ca56e09ab0b",
            "revertMessage": "",
            "sender": "0x0681e844593a051e2882ec897ecd5444efe19ff2",
            "simulationEnable": true,
            "sourceTxnHash": "0x3100db9f2e63ac3987f01043397952932f36411245691dd4a7a58529fd342c9b",
            "status": true,
            "timestamp": "2018-12-08T04:02:45Z",
            "transactionFee": "0.0013694395",
            "txnHash": "0x3100db9f2e63ac3987f01043397952932f36411245691dd4a7a58529fd342c9b",
            "txnIndex": 35,
            "type": 0,
            "value": "0"
        },
        "fund_flow": [
            {
                "amount": "0.059340084243486948",
                "from": "0xda912ecc847b3d98ca882e396e693e485deed518",
                "id": 1,
                "isERC1155": false,
                "isERC721": false,
                "isReverted": false,
                "order": 1,
                "to": "0x260e92d7b25c9315d068b2c3ca5f234d0cf9e505",
                "token": "0xc02aaa39b223fe8d0a0e5c4f27ead9083c756cc2"
            },
            {
                "amount": "1,835",
                "from": "0x260e92d7b25c9315d068b2c3ca5f234d0cf9e505",
                "id": 2,
                "isERC1155": false,
                "isERC721": false,
                "isReverted": false,
                "order": 2,
                "to": "0xda912ecc847b3d98ca882e396e693e485deed518",
                "token": "0x503f9794d6a6bb0df8fbb19a2b3e2aeab35339ad"
            },
            {
                "amount": "0.001033892206513052",
                "from": "0xda912ecc847b3d98ca882e396e693e485deed518",
                "id": 3,
                "isERC1155": false,
                "isERC721": false,
                "isReverted": false,
                "order": 3,
                "to": "0x0681e844593a051e2882ec897ecd5444efe19ff2",
                "token": "0xc02aaa39b223fe8d0a0e5c4f27ead9083c756cc2"
            }
        ],
        "token_infos": [
            {
                "address": "0x503f9794d6a6bb0df8fbb19a2b3e2aeab35339ad",
                "decimals": 18
            },
            {
                "address": "0xc02aaa39b223fe8d0a0e5c4f27ead9083c756cc2",
                "decimals": 18
            },
            {
                "address": "0xeeeeeeeeeeeeeeeeeeeeeeeeeeeeeeeeeeeeeeee",
                "decimals": 18
            }
        ]
    },
    "address_label": {
        "labels": [
            {
                "address": "0x0000000000000000000000000000000000000004",
                "label": "Precompiled"
            },
            {
                "address": "0xeeeeeeeeeeeeeeeeeeeeeeeeeeeeeeeeeeeeeeee",
                "label": "Ether"
            },
            {
                "address": "0x4f833a24e1f95d70f028921e27040ca56e09ab0b",
                "label": "0x: Old Exchange v2.0"
            },
            {
                "address": "0x2240dab907db71e64d3e0dba4800c83b5c502d4e",
                "label": "0x: Old ERC20 Proxy"
            },
            {
                "address": "0x0000000000000000000000000000000000000001",
                "label": "Precompiled"
            },
            {
                "address": "0x0000000000000000000000000000000000000002",
                "label": "Precompiled"
            },
            {
                "address": "0x0000000000000000000000000000000000000003",
                "label": "Precompiled"
            },
            {
                "address": "0x503f9794d6a6bb0df8fbb19a2b3e2aeab35339ad",
                "label": "Star Bit Token (SBT)"
            },
            {
                "address": "0xc02aaa39b223fe8d0a0e5c4f27ead9083c756cc2",
                "label": "Wrapped Ether (WETH)"
            },
            {
                "address": "0x0681e844593a051e2882ec897ecd5444efe19ff2",
                "label": "Star Bit Ex"
            },
            {
                "address": "0x0000000000000000000000000000000000000000",
                "label": "Null Address"
            }
        ]
    },
    "trace": {
        "accountLabels": null,
        "dataMap": {
            "-1": {
                "invocation": {
                    "address": "0x0681e844593a051e2882ec897ecd5444efe19ff2",
                    "callData": "",
                    "decodedMethod": null,
                    "errorInfo": "",
                    "fromAddress": "",
                    "gasUsed": 0,
                    "id": -1,
                    "methodDecoded": false,
                    "operation": "",
                    "output": "",
                    "revert": false,
                    "revertMessage": "",
                    "selector": "",
                    "status": false,
                    "value": ""
                },
                "nodeType": 0
            },
            "0": {
                "invocation": {
                    "address": "0x4f833a24e1f95d70f028921e27040ca56e09ab0b",
                    "callData": "0x000000000000000000000000000000000000000000000000000000000000008000000000000000000000000000000000000000000000000000000000000002c000000000000000000000000000000000000000000000000000000000000004800000000000000000000000000000000000000000000000000000000000000500000000000000000000000000da912ecc847b3d98ca882e396e693e485deed5180000000000000000000000000681e844593a051e2882ec897ecd5444efe19ff20000000000000000000000008124071f810d533ff63de61d0c98db99eeb99d64000000000000000000000000000000000000000000000000000000000000000000000000000000000000000000000000000000000000000000d67dcfcbfae48000000000000000000000000000000000000000000000006379bd99c0d9cc000000000000000000000000000000000000000000000000000000000000000000000000000000000000000000000000000000000000000000000000000000000000000000000000000000000000000000000000000000000000000000005c0b5054a8bbf1fb608c90289055f3d2a3b0649194ae6716c08eab6e74213ffcc96a603b000000000000000000000000000000000000000000000000000000000000018000000000000000000000000000000000000000000000000000000000000001e00000000000000000000000000000000000000000000000000000000000000024f47261b0000000000000000000000000c02aaa39b223fe8d0a0e5c4f27ead9083c756cc2000000000000000000000000000000000000000000000000000000000000000000000000000000000000000000000000000000000000000000000024f47261b0000000000000000000000000503f9794d6a6bb0df8fbb19a2b3e2aeab35339ad00000000000000000000000000000000000000000000000000000000000000000000000000000000260e92d7b25c9315d068b2c3ca5f234d0cf9e5050000000000000000000000000681e844593a051e2882ec897ecd5444efe19ff20000000000000000000000008124071f810d533ff63de61d0c98db99eeb99d640000000000000000000000000000000000000000000000000000000000000000000000000000000000000000000000000000000000000064386019f57145700000000000000000000000000000000000000000000000000000d465810ca5380000000000000000000000000000000000000000000000000000000000000000000000000000000000000000000000000000000000000000000000000000000000000000000000000000000000000000000000000000000000000000005c0b50545e2477eb7d53eaa06af06df1c857d40928853c6faca638d08ebfc444ceb47b61000000000000000000000000000000000000000000000000000000000000018000000000000000000000000000000000000000000000000000000000000001a00000000000000000000000000000000000000000000000000000000000000000000000000000000000000000000000000000000000000000000000000000000000000000000000000000000000000000000000000000000000000000000000421b95771024ab52bf929247255d3921dffc2cd139c0895aba000b8633e858904e8c322e88daae6c93778cbe1e4aab9971f211c420ca8765b13514f4a8b5330195a70300000000000000000000000000000000000000000000000000000000000000000000000000000000000000000000000000000000000000000000000000421b9391d00c3817838b0422a9abdd9937188cc60a7f0b5297be337d0181e3146f1b17d075877d14ad312f1c222a4e2f749a168afbf5cb9cd10540349fb079933e7d03000000000000000000000000000000000000000000000000000000000000",
                    "decodedMethod": {
                        "callParams": [
                            {
                                "name": "leftOrder",
                                "type": "(address,address,address,address,uint256,uint256,uint256,uint256,uint256,uint256,bytes,bytes)",
                                "value": [
                                    {
                                        "name": "makerAddress",
                                        "type": "address",
                                        "value": "0xda912ecc847b3d98ca882e396e693e485deed518"
                                    },
                                    {
                                        "name": "takerAddress",
                                        "type": "address",
                                        "value": "0x0681e844593a051e2882ec897ecd5444efe19ff2"
                                    },
                                    {
                                        "name": "feeRecipientAddress",
                                        "type": "address",
                                        "value": "0x8124071f810d533ff63de61d0c98db99eeb99d64"
                                    },
                                    {
                                        "name": "senderAddress",
                                        "type": "address",
                                        "value": "0x0000000000000000000000000000000000000000"
                                    },
                                    {
                                        "name": "makerAssetAmount",
                                        "type": "uint256",
                                        "value": "60,373,976,450,000,000"
                                    },
                                    {
                                        "name": "takerAssetAmount",
                                        "type": "uint256",
                                        "value": "1,835,000,000,000,000,000,000"
                                    },
                                    {
                                        "name": "makerFee",
                                        "type": "uint256",
                                        "value": "0"
                                    },
                                    {
                                        "name": "takerFee",
                                        "type": "uint256",
                                        "value": "0"
                                    },
                                    {
                                        "name": "expirationTimeSeconds",
                                        "type": "uint256",
                                        "value": "1,544,245,332"
                                    },
                                    {
                                        "name": "salt",
                                        "type": "uint256",
                                        "value": "76,320,629,061,086,305,410,423,172,960,375,980,143,306,653,164,077,595,196,154,133,745,254,380,757,051"
                                    },
                                    {
                                        "name": "makerAssetData",
                                        "type": "bytes",
                                        "value": "0xf47261b0000000000000000000000000c02aaa39b223fe8d0a0e5c4f27ead9083c756cc2"
                                    },
                                    {
                                        "name": "takerAssetData",
                                        "type": "bytes",
                                        "value": "0xf47261b0000000000000000000000000503f9794d6a6bb0df8fbb19a2b3e2aeab35339ad"
                                    }
                                ]
                            },
                            {
                                "name": "rightOrder",
                                "type": "(address,address,address,address,uint256,uint256,uint256,uint256,uint256,uint256,bytes,bytes)",
                                "value": [
                                    {
                                        "name": "makerAddress",
                                        "type": "address",
                                        "value": "0x260e92d7b25c9315d068b2c3ca5f234d0cf9e505"
                                    },
                                    {
                                        "name": "takerAddress",
                                        "type": "address",
                                        "value": "0x0681e844593a051e2882ec897ecd5444efe19ff2"
                                    },
                                    {
                                        "name": "feeRecipientAddress",
                                        "type": "address",
                                        "value": "0x8124071f810d533ff63de61d0c98db99eeb99d64"
                                    },
                                    {
                                        "name": "senderAddress",
                                        "type": "address",
                                        "value": "0x0000000000000000000000000000000000000000"
                                    },
                                    {
                                        "name": "makerAssetAmount",
                                        "type": "uint256",
                                        "value": "1,848,736,682,776,801,406,976"
                                    },
                                    {
                                        "name": "takerAssetAmount",
                                        "type": "uint256",
                                        "value": "59,784,300,000,000,000"
                                    },
                                    {
                                        "name": "makerFee",
                                        "type": "uint256",
                                        "value": "0"
                                    },
                                    {
                                        "name": "takerFee",
                                        "type": "uint256",
                                        "value": "0"
                                    },
                                    {
                                        "name": "expirationTimeSeconds",
                                        "type": "uint256",
                                        "value": "1,544,245,332"
                                    },
                                    {
                                        "name": "salt",
                                        "type": "uint256",
                                        "value": "42,581,841,917,760,354,909,043,364,884,337,236,055,769,020,941,305,329,778,216,265,294,561,164,950,369"
                                    },
                                    {
                                        "name": "makerAssetData",
                                        "type": "bytes",
                                        "value": "0x"
                                    },
                                    {
                                        "name": "takerAssetData",
                                        "type": "bytes",
                                        "value": "0x"
                                    }
                                ]
                            },
                            {
                                "name": "leftSignature",
                                "type": "bytes",
                                "value": "0x1b95771024ab52bf929247255d3921dffc2cd139c0895aba000b8633e858904e8c322e88daae6c93778cbe1e4aab9971f211c420ca8765b13514f4a8b5330195a703"
                            },
                            {
                                "name": "rightSignature",
                                "type": "bytes",
                                "value": "0x1b9391d00c3817838b0422a9abdd9937188cc60a7f0b5297be337d0181e3146f1b17d075877d14ad312f1c222a4e2f749a168afbf5cb9cd10540349fb079933e7d03"
                            }
                        ],
                        "constructorArguments": "",
                        "name": "matchOrders",
                        "returnParams": [
                            {
                                "name": "matchedFillResults",
                                "type": "((uint256,uint256,uint256,uint256),(uint256,uint256,uint256,uint256),uint256)",
                                "value": [
                                    {
                                        "name": "left",
                                        "type": "(uint256,uint256,uint256,uint256)",
                                        "value": [
                                            {
                                                "name": "makerAssetFilledAmount",
                                                "type": "uint256",
                                                "value": "60,373,976,450,000,000"
                                            },
                                            {
                                                "name": "takerAssetFilledAmount",
                                                "type": "uint256",
                                                "value": "1,835,000,000,000,000,000,000"
                                            },
                                            {
                                                "name": "makerFeePaid",
                                                "type": "uint256",
                                                "value": "0"
                                            },
                                            {
                                                "name": "takerFeePaid",
                                                "type": "uint256",
                                                "value": "0"
                                            }
                                        ]
                                    },
                                    {
                                        "name": "right",
                                        "type": "(uint256,uint256,uint256,uint256)",
                                        "value": [
                                            {
                                                "name": "makerAssetFilledAmount",
                                                "type": "uint256",
                                                "value": "1,835,000,000,000,000,000,000"
                                            },
                                            {
                                                "name": "takerAssetFilledAmount",
                                                "type": "uint256",
                                                "value": "59,340,084,243,486,948"
                                            },
                                            {
                                                "name": "makerFeePaid",
                                                "type": "uint256",
                                                "value": "0"
                                            },
                                            {
                                                "name": "takerFeePaid",
                                                "type": "uint256",
                                                "value": "0"
                                            }
                                        ]
                                    },
                                    {
                                        "name": "leftMakerAssetSpreadAmount",
                                        "type": "uint256",
                                        "value": "1,033,892,206,513,052"
                                    }
                                ]
                            }
                        ],
                        "signature": "matchOrders((address,address,address,address,uint256,uint256,uint256,uint256,uint256,uint256,bytes,bytes),(address,address,address,address,uint256,uint256,uint256,uint256,uint256,uint256,bytes,bytes),bytes,bytes)"
                    },
                    "errorInfo": "",
                    "fromAddress": "0x0681e844593a051e2882ec897ecd5444efe19ff2",
                    "gasUsed": 210683,
                    "id": 0,
                    "methodDecoded": true,
                    "operation": "CALL",
                    "output": "0x00000000000000000000000000000000000000000000000000d67dcfcbfae48000000000000000000000000000000000000000000000006379bd99c0d9cc00000000000000000000000000000000000000000000000000000000000000000000000000000000000000000000000000000000000000000000000000000000000000000000000000000000000000000000000000000000006379bd99c0d9cc000000000000000000000000000000000000000000000000000000d2d17e024658e4000000000000000000000000000000000000000000000000000000000000000000000000000000000000000000000000000000000000000000000000000000000000000000000000000000000000000000000000000000000003ac51c9b48b9c",
                    "revert": false,
                    "revertMessage": "",
                    "selector": "0x3c28d861",
                    "status": true,
                    "value": "0"
                },
                "nodeType": 0
            },
            "1": {
                "invocation": {
                    "address": "0x0000000000000000000000000000000000000001",
                    "callData": "0x452898faca00241c79d8564f901fc6db2e218d9c9d9d53dd9b6ddb6c000000000000000000000000000000000000000000000000000000000000001b95771024ab52bf929247255d3921dffc2cd139c0895aba000b8633e858904e8c322e88daae6c93778cbe1e4aab9971f211c420ca8765b13514f4a8b5330195a7",
                    "decodedMethod": {
                        "callParams": [
                            {
                                "name": "hash",
                                "type": "bytes32",
                                "value": "0xd0bc6958452898faca00241c79d8564f901fc6db2e218d9c9d9d53dd9b6ddb6c"
                            },
                            {
                                "name": "v",
                                "type": "uint256",
                                "value": "27"
                            },
                            {
                                "name": "r",
                                "type": "bytes32",
                                "value": "0x95771024ab52bf929247255d3921dffc2cd139c0895aba000b8633e858904e8c"
                            },
                            {
                                "name": "s",
                                "type": "bytes32",
                                "value": "0x322e88daae6c93778cbe1e4aab9971f211c420ca8765b13514f4a8b5330195a7"
                            }
                        ],
                        "constructorArguments": "",
                        "name": "ecrecover",
                        "returnParams": [
                            {
                                "name": "",
                                "type": "address",
                                "value": "0xda912ecc847b3d98ca882e396e693e485deed518"
                            }
                        ],
                        "signature": "ecrecover(bytes32,uint256,bytes32,bytes32)"
                    },
                    "errorInfo": "",
                    "fromAddress": "0x4f833a24e1f95d70f028921e27040ca56e09ab0b",
                    "gasUsed": 3000,
                    "id": 1,
                    "methodDecoded": true,
                    "operation": "CALL",
                    "output": "0x000000000000000000000000da912ecc847b3d98ca882e396e693e485deed518",
                    "revert": false,
                    "revertMessage": "",
                    "selector": "0xd0bc6958",
                    "status": true,
                    "value": "0"
                },
                "nodeType": 0
            },
            "10": {
                "event": {
                    "contract": "0x503f9794d6a6bb0df8fbb19a2b3e2aeab35339ad",
                    "decodedLog": {
                        "name": "Transfer",
                        "params": [
                            {
                                "name": "from",
                                "type": "address",
                                "value": "0x260e92d7b25c9315d068b2c3ca5f234d0cf9e505"
                            },
                            {
                                "name": "to",
                                "type": "address",
                                "value": "0xda912ecc847b3d98ca882e396e693e485deed518"
                            },
                            {
                                "decimalAvailable": true,
                                "name": "value",
                                "type": "uint256",
                                "value": "1,835,000,000,000,000,000,000"
                            }
                        ],
                        "signature": "Transfer(address,address,uint256)"
                    },
                    "id": 10,
                    "logData": "0x00000000000000000000000000000000000000000000006379bd99c0d9cc0000",
                    "logDecoded": true,
                    "operation": "EVENT",
                    "revert": false,
                    "status": true,
                    "topics": [
                        "0xddf252ad1be2c89b69c2b068fc378daa952ba7f163c4a11628f55a4df523b3ef",
                        "0x000000000000000000000000260e92d7b25c9315d068b2c3ca5f234d0cf9e505",
                        "0x000000000000000000000000da912ecc847b3d98ca882e396e693e485deed518"
                    ]
                },
                "nodeType": 1
            },
            "11": {
                "invocation": {
                    "address": "0x2240dab907db71e64d3e0dba4800c83b5c502d4e",
                    "callData": "0x0000000000000000000000000000000000000000000000000000000000000080000000000000000000000000da912ecc847b3d98ca882e396e693e485deed5180000000000000000000000000681e844593a051e2882ec897ecd5444efe19ff20000000000000000000000000000000000000000000000000003ac51c9b48b9c0000000000000000000000000000000000000000000000000000000000000024f47261b0000000000000000000000000c02aaa39b223fe8d0a0e5c4f27ead9083c756cc200000000000000000000000000000000000000000000000000000000",
                    "decodedMethod": {
                        "callParams": [
                            {
                                "name": "assetData",
                                "type": "bytes",
                                "value": "0xf47261b0000000000000000000000000c02aaa39b223fe8d0a0e5c4f27ead9083c756cc2"
                            },
                            {
                                "name": "from",
                                "type": "address",
                                "value": "0xda912ecc847b3d98ca882e396e693e485deed518"
                            },
                            {
                                "name": "to",
                                "type": "address",
                                "value": "0x0681e844593a051e2882ec897ecd5444efe19ff2"
                            },
                            {
                                "name": "amount",
                                "type": "uint256",
                                "value": "1,033,892,206,513,052"
                            }
                        ],
                        "constructorArguments": "",
                        "name": "transferFrom",
                        "returnParams": [],
                        "signature": "transferFrom(bytes,address,address,uint256)"
                    },
                    "errorInfo": "",
                    "fromAddress": "0x4f833a24e1f95d70f028921e27040ca56e09ab0b",
                    "gasUsed": 15079,
                    "id": 11,
                    "methodDecoded": true,
                    "operation": "CALL",
                    "output": "",
                    "revert": false,
                    "revertMessage": "",
                    "selector": "0xa85e59e4",
                    "status": true,
                    "value": "0"
                },
                "nodeType": 0
            },
            "12": {
                "invocation": {
                    "address": "0xc02aaa39b223fe8d0a0e5c4f27ead9083c756cc2",
                    "callData": "0x000000000000000000000000da912ecc847b3d98ca882e396e693e485deed5180000000000000000000000000681e844593a051e2882ec897ecd5444efe19ff20000000000000000000000000000000000000000000000000003ac51c9b48b9c",
                    "decodedMethod": {
                        "callParams": [
                            {
                                "name": "src",
                                "type": "address",
                                "value": "0xda912ecc847b3d98ca882e396e693e485deed518"
                            },
                            {
                                "name": "dst",
                                "type": "address",
                                "value": "0x0681e844593a051e2882ec897ecd5444efe19ff2"
                            },
                            {
                                "decimalAvailable": true,
                                "name": "wad",
                                "type": "uint256",
                                "value": "1,033,892,206,513,052"
                            }
                        ],
                        "constructorArguments": "",
                        "name": "transferFrom",
                        "returnParams": [
                            {
                                "name": "",
                                "type": "bool",
                                "value": true
                            }
                        ],
                        "signature": "transferFrom(address,address,uint256)"
                    },
                    "errorInfo": "",
                    "fromAddress": "0x2240dab907db71e64d3e0dba4800c83b5c502d4e",
                    "gasUsed": 13625,
                    "id": 12,
                    "methodDecoded": true,
                    "operation": "CALL",
                    "output": "0x0000000000000000000000000000000000000000000000000000000000000001",
                    "revert": false,
                    "revertMessage": "",
                    "selector": "0x23b872dd",
                    "status": true,
                    "value": "0"
                },
                "nodeType": 0
            },
            "13": {
                "event": {
                    "contract": "0xc02aaa39b223fe8d0a0e5c4f27ead9083c756cc2",
                    "decodedLog": {
                        "name": "Transfer",
                        "params": [
                            {
                                "name": "src",
                                "type": "address",
                                "value": "0xda912ecc847b3d98ca882e396e693e485deed518"
                            },
                            {
                                "name": "dst",
                                "type": "address",
                                "value": "0x0681e844593a051e2882ec897ecd5444efe19ff2"
                            },
                            {
                                "decimalAvailable": true,
                                "name": "wad",
                                "type": "uint256",
                                "value": "1,033,892,206,513,052"
                            }
                        ],
                        "signature": "Transfer(address,address,uint256)"
                    },
                    "id": 13,
                    "logData": "0x0000000000000000000000000000000000000000000000000003ac51c9b48b9c",
                    "logDecoded": true,
                    "operation": "EVENT",
                    "revert": false,
                    "status": true,
                    "topics": [
                        "0xddf252ad1be2c89b69c2b068fc378daa952ba7f163c4a11628f55a4df523b3ef",
                        "0x000000000000000000000000da912ecc847b3d98ca882e396e693e485deed518",
                        "0x0000000000000000000000000681e844593a051e2882ec897ecd5444efe19ff2"
                    ]
                },
                "nodeType": 1
            },
            "2": {
                "invocation": {
                    "address": "0x0000000000000000000000000000000000000001",
                    "callData": "0xb095f5b76db6a3644bfbd5e5d6c6c352134daaff696c337831503c35000000000000000000000000000000000000000000000000000000000000001b9391d00c3817838b0422a9abdd9937188cc60a7f0b5297be337d0181e3146f1b17d075877d14ad312f1c222a4e2f749a168afbf5cb9cd10540349fb079933e7d",
                    "decodedMethod": {
                        "callParams": [
                            {
                                "name": "hash",
                                "type": "bytes32",
                                "value": "0x7ce22a38b095f5b76db6a3644bfbd5e5d6c6c352134daaff696c337831503c35"
                            },
                            {
                                "name": "v",
                                "type": "uint256",
                                "value": "27"
                            },
                            {
                                "name": "r",
                                "type": "bytes32",
                                "value": "0x9391d00c3817838b0422a9abdd9937188cc60a7f0b5297be337d0181e3146f1b"
                            },
                            {
                                "name": "s",
                                "type": "bytes32",
                                "value": "0x17d075877d14ad312f1c222a4e2f749a168afbf5cb9cd10540349fb079933e7d"
                            }
                        ],
                        "constructorArguments": "",
                        "name": "ecrecover",
                        "returnParams": [
                            {
                                "name": "",
                                "type": "address",
                                "value": "0x260e92d7b25c9315d068b2c3ca5f234d0cf9e505"
                            }
                        ],
                        "signature": "ecrecover(bytes32,uint256,bytes32,bytes32)"
                    },
                    "errorInfo": "",
                    "fromAddress": "0x4f833a24e1f95d70f028921e27040ca56e09ab0b",
                    "gasUsed": 3000,
                    "id": 2,
                    "methodDecoded": true,
                    "operation": "CALL",
                    "output": "0x000000000000000000000000260e92d7b25c9315d068b2c3ca5f234d0cf9e505",
                    "revert": false,
                    "revertMessage": "",
                    "selector": "0x7ce22a38",
                    "status": true,
                    "value": "0"
                },
                "nodeType": 0
            },
            "3": {
                "event": {
                    "contract": "0x4f833a24e1f95d70f028921e27040ca56e09ab0b",
                    "decodedLog": {
                        "name": "Fill",
                        "params": [
                            {
                                "name": "makerAddress",
                                "type": "address",
                                "value": "0xda912ecc847b3d98ca882e396e693e485deed518"
                            },
                            {
                                "name": "feeRecipientAddress",
                                "type": "address",
                                "value": "0x8124071f810d533ff63de61d0c98db99eeb99d64"
                            },
                            {
                                "name": "orderHash",
                                "type": "bytes32",
                                "value": "0x2dad50e00e05c9629096f4d8fac10e81badae42bd09f0ff4be03a7530e98c969"
                            },
                            {
                                "name": "takerAddress",
                                "type": "address",
                                "value": "0x0681e844593a051e2882ec897ecd5444efe19ff2"
                            },
                            {
                                "name": "senderAddress",
                                "type": "address",
                                "value": "0x0681e844593a051e2882ec897ecd5444efe19ff2"
                            },
                            {
                                "name": "makerAssetFilledAmount",
                                "type": "uint256",
                                "value": "60,373,976,450,000,000"
                            },
                            {
                                "name": "takerAssetFilledAmount",
                                "type": "uint256",
                                "value": "1,835,000,000,000,000,000,000"
                            },
                            {
                                "name": "makerFeePaid",
                                "type": "uint256",
                                "value": "0"
                            },
                            {
                                "name": "takerFeePaid",
                                "type": "uint256",
                                "value": "0"
                            },
                            {
                                "name": "makerAssetData",
                                "type": "bytes",
                                "value": "0xf47261b0000000000000000000000000c02aaa39b223fe8d0a0e5c4f27ead9083c756cc2"
                            },
                            {
                                "name": "takerAssetData",
                                "type": "bytes",
                                "value": "0xf47261b0000000000000000000000000503f9794d6a6bb0df8fbb19a2b3e2aeab35339ad"
                            }
                        ],
                        "signature": "Fill(address,address,address,address,uint256,uint256,uint256,uint256,bytes32,bytes,bytes)"
                    },
                    "id": 3,
                    "logData": "0x0000000000000000000000000681e844593a051e2882ec897ecd5444efe19ff20000000000000000000000000681e844593a051e2882ec897ecd5444efe19ff200000000000000000000000000000000000000000000000000d67dcfcbfae48000000000000000000000000000000000000000000000006379bd99c0d9cc000000000000000000000000000000000000000000000000000000000000000000000000000000000000000000000000000000000000000000000000000000000000000000000000000000000000000000000000000000000000000000000000010000000000000000000000000000000000000000000000000000000000000001600000000000000000000000000000000000000000000000000000000000000024f47261b0000000000000000000000000c02aaa39b223fe8d0a0e5c4f27ead9083c756cc2000000000000000000000000000000000000000000000000000000000000000000000000000000000000000000000000000000000000000000000024f47261b0000000000000000000000000503f9794d6a6bb0df8fbb19a2b3e2aeab35339ad00000000000000000000000000000000000000000000000000000000",
                    "logDecoded": true,
                    "operation": "EVENT",
                    "revert": false,
                    "status": true,
                    "topics": [
                        "0x0bcc4c97732e47d9946f229edb95f5b6323f601300e4690de719993f3c371129",
                        "0x000000000000000000000000da912ecc847b3d98ca882e396e693e485deed518",
                        "0x0000000000000000000000008124071f810d533ff63de61d0c98db99eeb99d64",
                        "0x2dad50e00e05c9629096f4d8fac10e81badae42bd09f0ff4be03a7530e98c969"
                    ]
                },
                "nodeType": 1
            },
            "4": {
                "event": {
                    "contract": "0x4f833a24e1f95d70f028921e27040ca56e09ab0b",
                    "decodedLog": {
                        "name": "Fill",
                        "params": [
                            {
                                "name": "makerAddress",
                                "type": "address",
                                "value": "0x260e92d7b25c9315d068b2c3ca5f234d0cf9e505"
                            },
                            {
                                "name": "feeRecipientAddress",
                                "type": "address",
                                "value": "0x8124071f810d533ff63de61d0c98db99eeb99d64"
                            },
                            {
                                "name": "orderHash",
                                "type": "bytes32",
                                "value": "0xa49d245b72541f9b1b7157c924d94d68dbb53afdbbe91a40ea726be970e3e37e"
                            },
                            {
                                "name": "takerAddress",
                                "type": "address",
                                "value": "0x0681e844593a051e2882ec897ecd5444efe19ff2"
                            },
                            {
                                "name": "senderAddress",
                                "type": "address",
                                "value": "0x0681e844593a051e2882ec897ecd5444efe19ff2"
                            },
                            {
                                "name": "makerAssetFilledAmount",
                                "type": "uint256",
                                "value": "1,835,000,000,000,000,000,000"
                            },
                            {
                                "name": "takerAssetFilledAmount",
                                "type": "uint256",
                                "value": "59,340,084,243,486,948"
                            },
                            {
                                "name": "makerFeePaid",
                                "type": "uint256",
                                "value": "0"
                            },
                            {
                                "name": "takerFeePaid",
                                "type": "uint256",
                                "value": "0"
                            },
                            {
                                "name": "makerAssetData",
                                "type": "bytes",
                                "value": "0xf47261b0000000000000000000000000503f9794d6a6bb0df8fbb19a2b3e2aeab35339ad"
                            },
                            {
                                "name": "takerAssetData",
                                "type": "bytes",
                                "value": "0xf47261b0000000000000000000000000c02aaa39b223fe8d0a0e5c4f27ead9083c756cc2"
                            }
                        ],
                        "signature": "Fill(address,address,address,address,uint256,uint256,uint256,uint256,bytes32,bytes,bytes)"
                    },
                    "id": 4,
                    "logData": "0x0000000000000000000000000681e844593a051e2882ec897ecd5444efe19ff20000000000000000000000000681e844593a051e2882ec897ecd5444efe19ff200000000000000000000000000000000000000000000006379bd99c0d9cc000000000000000000000000000000000000000000000000000000d2d17e024658e400000000000000000000000000000000000000000000000000000000000000000000000000000000000000000000000000000000000000000000000000000000000000000000000000000000000000000000000000000000000000000000010000000000000000000000000000000000000000000000000000000000000001600000000000000000000000000000000000000000000000000000000000000024f47261b0000000000000000000000000503f9794d6a6bb0df8fbb19a2b3e2aeab35339ad000000000000000000000000000000000000000000000000000000000000000000000000000000000000000000000000000000000000000000000024f47261b0000000000000000000000000c02aaa39b223fe8d0a0e5c4f27ead9083c756cc200000000000000000000000000000000000000000000000000000000",
                    "logDecoded": true,
                    "operation": "EVENT",
                    "revert": false,
                    "status": true,
                    "topics": [
                        "0x0bcc4c97732e47d9946f229edb95f5b6323f601300e4690de719993f3c371129",
                        "0x000000000000000000000000260e92d7b25c9315d068b2c3ca5f234d0cf9e505",
                        "0x0000000000000000000000008124071f810d533ff63de61d0c98db99eeb99d64",
                        "0xa49d245b72541f9b1b7157c924d94d68dbb53afdbbe91a40ea726be970e3e37e"
                    ]
                },
                "nodeType": 1
            },
            "5": {
                "invocation": {
                    "address": "0x2240dab907db71e64d3e0dba4800c83b5c502d4e",
                    "callData": "0x0000000000000000000000000000000000000000000000000000000000000080000000000000000000000000da912ecc847b3d98ca882e396e693e485deed518000000000000000000000000260e92d7b25c9315d068b2c3ca5f234d0cf9e50500000000000000000000000000000000000000000000000000d2d17e024658e40000000000000000000000000000000000000000000000000000000000000024f47261b0000000000000000000000000c02aaa39b223fe8d0a0e5c4f27ead9083c756cc200000000000000000000000000000000000000000000000000000000",
                    "decodedMethod": {
                        "callParams": [
                            {
                                "name": "assetData",
                                "type": "bytes",
                                "value": "0xf47261b0000000000000000000000000c02aaa39b223fe8d0a0e5c4f27ead9083c756cc2"
                            },
                            {
                                "name": "from",
                                "type": "address",
                                "value": "0xda912ecc847b3d98ca882e396e693e485deed518"
                            },
                            {
                                "name": "to",
                                "type": "address",
                                "value": "0x260e92d7b25c9315d068b2c3ca5f234d0cf9e505"
                            },
                            {
                                "name": "amount",
                                "type": "uint256",
                                "value": "59,340,084,243,486,948"
                            }
                        ],
                        "constructorArguments": "",
                        "name": "transferFrom",
                        "returnParams": [],
                        "signature": "transferFrom(bytes,address,address,uint256)"
                    },
                    "errorInfo": "",
                    "fromAddress": "0x4f833a24e1f95d70f028921e27040ca56e09ab0b",
                    "gasUsed": 15079,
                    "id": 5,
                    "methodDecoded": true,
                    "operation": "CALL",
                    "output": "",
                    "revert": false,
                    "revertMessage": "",
                    "selector": "0xa85e59e4",
                    "status": true,
                    "value": "0"
                },
                "nodeType": 0
            },
            "6": {
                "invocation": {
                    "address": "0xc02aaa39b223fe8d0a0e5c4f27ead9083c756cc2",
                    "callData": "0x000000000000000000000000da912ecc847b3d98ca882e396e693e485deed518000000000000000000000000260e92d7b25c9315d068b2c3ca5f234d0cf9e50500000000000000000000000000000000000000000000000000d2d17e024658e4",
                    "decodedMethod": {
                        "callParams": [
                            {
                                "name": "src",
                                "type": "address",
                                "value": "0xda912ecc847b3d98ca882e396e693e485deed518"
                            },
                            {
                                "name": "dst",
                                "type": "address",
                                "value": "0x260e92d7b25c9315d068b2c3ca5f234d0cf9e505"
                            },
                            {
                                "decimalAvailable": true,
                                "name": "wad",
                                "type": "uint256",
                                "value": "59,340,084,243,486,948"
                            }
                        ],
                        "constructorArguments": "",
                        "name": "transferFrom",
                        "returnParams": [
                            {
                                "name": "",
                                "type": "bool",
                                "value": true
                            }
                        ],
                        "signature": "transferFrom(address,address,uint256)"
                    },
                    "errorInfo": "",
                    "fromAddress": "0x2240dab907db71e64d3e0dba4800c83b5c502d4e",
                    "gasUsed": 13625,
                    "id": 6,
                    "methodDecoded": true,
                    "operation": "CALL",
                    "output": "0x0000000000000000000000000000000000000000000000000000000000000001",
                    "revert": false,
                    "revertMessage": "",
                    "selector": "0x23b872dd",
                    "status": true,
                    "value": "0"
                },
                "nodeType": 0
            },
            "7": {
                "event": {
                    "contract": "0xc02aaa39b223fe8d0a0e5c4f27ead9083c756cc2",
                    "decodedLog": {
                        "name": "Transfer",
                        "params": [
                            {
                                "name": "src",
                                "type": "address",
                                "value": "0xda912ecc847b3d98ca882e396e693e485deed518"
                            },
                            {
                                "name": "dst",
                                "type": "address",
                                "value": "0x260e92d7b25c9315d068b2c3ca5f234d0cf9e505"
                            },
                            {
                                "decimalAvailable": true,
                                "name": "wad",
                                "type": "uint256",
                                "value": "59,340,084,243,486,948"
                            }
                        ],
                        "signature": "Transfer(address,address,uint256)"
                    },
                    "id": 7,
                    "logData": "0x00000000000000000000000000000000000000000000000000d2d17e024658e4",
                    "logDecoded": true,
                    "operation": "EVENT",
                    "revert": false,
                    "status": true,
                    "topics": [
                        "0xddf252ad1be2c89b69c2b068fc378daa952ba7f163c4a11628f55a4df523b3ef",
                        "0x000000000000000000000000da912ecc847b3d98ca882e396e693e485deed518",
                        "0x000000000000000000000000260e92d7b25c9315d068b2c3ca5f234d0cf9e505"
                    ]
                },
                "nodeType": 1
            },
            "8": {
                "invocation": {
                    "address": "0x2240dab907db71e64d3e0dba4800c83b5c502d4e",
                    "callData": "0x0000000000000000000000000000000000000000000000000000000000000080000000000000000000000000260e92d7b25c9315d068b2c3ca5f234d0cf9e505000000000000000000000000da912ecc847b3d98ca882e396e693e485deed51800000000000000000000000000000000000000000000006379bd99c0d9cc00000000000000000000000000000000000000000000000000000000000000000024f47261b0000000000000000000000000503f9794d6a6bb0df8fbb19a2b3e2aeab35339ad00000000000000000000000000000000000000000000000000000000",
                    "decodedMethod": {
                        "callParams": [
                            {
                                "name": "assetData",
                                "type": "bytes",
                                "value": "0xf47261b0000000000000000000000000503f9794d6a6bb0df8fbb19a2b3e2aeab35339ad"
                            },
                            {
                                "name": "from",
                                "type": "address",
                                "value": "0x260e92d7b25c9315d068b2c3ca5f234d0cf9e505"
                            },
                            {
                                "name": "to",
                                "type": "address",
                                "value": "0xda912ecc847b3d98ca882e396e693e485deed518"
                            },
                            {
                                "name": "amount",
                                "type": "uint256",
                                "value": "1,835,000,000,000,000,000,000"
                            }
                        ],
                        "constructorArguments": "",
                        "name": "transferFrom",
                        "returnParams": [],
                        "signature": "transferFrom(bytes,address,address,uint256)"
                    },
                    "errorInfo": "",
                    "fromAddress": "0x4f833a24e1f95d70f028921e27040ca56e09ab0b",
                    "gasUsed": 21609,
                    "id": 8,
                    "methodDecoded": true,
                    "operation": "CALL",
                    "output": "",
                    "revert": false,
                    "revertMessage": "",
                    "selector": "0xa85e59e4",
                    "status": true,
                    "value": "0"
                },
                "nodeType": 0
            },
            "9": {
                "invocation": {
                    "address": "0x503f9794d6a6bb0df8fbb19a2b3e2aeab35339ad",
                    "callData": "0x000000000000000000000000260e92d7b25c9315d068b2c3ca5f234d0cf9e505000000000000000000000000da912ecc847b3d98ca882e396e693e485deed51800000000000000000000000000000000000000000000006379bd99c0d9cc0000",
                    "decodedMethod": {
                        "callParams": [
                            {
                                "name": "_from",
                                "type": "address",
                                "value": "0x260e92d7b25c9315d068b2c3ca5f234d0cf9e505"
                            },
                            {
                                "name": "_to",
                                "type": "address",
                                "value": "0xda912ecc847b3d98ca882e396e693e485deed518"
                            },
                            {
                                "decimalAvailable": true,
                                "name": "_value",
                                "type": "uint256",
                                "value": "1,835,000,000,000,000,000,000"
                            }
                        ],
                        "constructorArguments": "",
                        "name": "transferFrom",
                        "returnParams": [
                            {
                                "name": "",
                                "type": "bool",
                                "value": true
                            }
                        ],
                        "signature": "transferFrom(address,address,uint256)"
                    },
                    "errorInfo": "",
                    "fromAddress": "0x2240dab907db71e64d3e0dba4800c83b5c502d4e",
                    "gasUsed": 20155,
                    "id": 9,
                    "methodDecoded": true,
                    "operation": "CALL",
                    "output": "0x0000000000000000000000000000000000000000000000000000000000000001",
                    "revert": false,
                    "revertMessage": "",
                    "selector": "0x23b872dd",
                    "status": true,
                    "value": "0"
                },
                "nodeType": 0
            }
        },
        "gasFlame": [
            {
                "children": [
                    {
                        "children": [
                            {
                                "children": [],
                                "depth": 0,
                                "name": "Initial Gas",
                                "value": 53592
                            },
                            {
                                "children": [
                                    {
                                        "children": [],
                                        "depth": 1,
                                        "name": "ecrecover",
                                        "value": 3000
                                    },
                                    {
                                        "children": [],
                                        "depth": 1,
                                        "name": "ecrecover",
                                        "value": 3000
                                    },
                                    {
                                        "children": [
                                            {
                                                "children": [],
                                                "depth": 2,
                                                "name": "transferFrom",
                                                "value": 13625
                                            }
                                        ],
                                        "depth": 1,
                                        "name": "transferFrom",
                                        "value": 15079
                                    },
                                    {
                                        "children": [
                                            {
                                                "children": [],
                                                "depth": 2,
                                                "name": "transferFrom",
                                                "value": 20155
                                            }
                                        ],
                                        "depth": 1,
                                        "name": "transferFrom",
                                        "value": 21609
                                    },
                                    {
                                        "children": [
                                            {
                                                "children": [],
                                                "depth": 2,
                                                "name": "transferFrom",
                                                "value": 13625
                                            }
                                        ],
                                        "depth": 1,
                                        "name": "transferFrom",
                                        "value": 15079
                                    }
                                ],
                                "depth": 0,
                                "name": "Executed Gas",
                                "value": 172091
                            }
                        ],
                        "depth": -1,
                        "name": "Actual Gas Used",
                        "value": 210683
                    },
                    {
                        "children": [],
                        "depth": -1,
                        "name": "Refunded Gas",
                        "value": 15000
                    }
                ],
                "depth": -2,
                "name": "Total Gas",
                "value": 225683
            }
        ],
        "isConfirmed": true,
        "mainTrace": [
            {
                "children": [
                    {
                        "children": [
                            {
                                "children": [],
                                "depth": 1,
                                "id": 1,
                                "order": 1
                            },
                            {
                                "children": [],
                                "depth": 1,
                                "id": 2,
                                "order": 2
                            },
                            {
                                "children": [],
                                "depth": 1,
                                "id": 3,
                                "order": 3
                            },
                            {
                                "children": [],
                                "depth": 1,
                                "id": 4,
                                "order": 4
                            },
                            {
                                "children": [
                                    {
                                        "children": [
                                            {
                                                "children": [],
                                                "depth": 3,
                                                "id": 7,
                                                "order": 7
                                            }
                                        ],
                                        "depth": 2,
                                        "id": 6,
                                        "order": 6
                                    }
                                ],
                                "depth": 1,
                                "id": 5,
                                "order": 5
                            },
                            {
                                "children": [
                                    {
                                        "children": [
                                            {
                                                "children": [],
                                                "depth": 3,
                                                "id": 10,
                                                "order": 10
                                            }
                                        ],
                                        "depth": 2,
                                        "id": 9,
                                        "order": 9
                                    }
                                ],
                                "depth": 1,
                                "id": 8,
                                "order": 8
                            },
                            {
                                "children": [
                                    {
                                        "children": [
                                            {
                                                "children": [],
                                                "depth": 3,
                                                "id": 13,
                                                "order": 13
                                            }
                                        ],
                                        "depth": 2,
                                        "id": 12,
                                        "order": 12
                                    }
                                ],
                                "depth": 1,
                                "id": 11,
                                "order": 11
                            }
                        ],
                        "depth": 0,
                        "id": 0,
                        "order": 0
                    }
                ],
                "depth": -1,
                "id": -1,
                "order": -1
            }
        ],
        "mainTraceNodeCount": 14,
        "parentIdMap": {
            "0": -1,
            "1": 0,
            "10": 9,
            "11": 0,
            "12": 11,
            "13": 12,
            "2": 0,
            "3": 0,
            "4": 0,
            "5": 0,
            "6": 5,
            "7": 6,
            "8": 0,
            "9": 8
        },
        "tidyTrace": [
            {
                "children": [
                    {
                        "children": [
                            {
                                "children": [],
                                "depth": 1,
                                "id": 1,
                                "order": 1
                            },
                            {
                                "children": [],
                                "depth": 1,
                                "id": 2,
                                "order": 2
                            },
                            {
                                "children": [],
                                "depth": 1,
                                "id": 3,
                                "order": 3
                            },
                            {
                                "children": [],
                                "depth": 1,
                                "id": 4,
                                "order": 4
                            },
                            {
                                "children": [
                                    {
                                        "children": [
                                            {
                                                "children": [],
                                                "depth": 3,
                                                "id": 7,
                                                "order": 7
                                            }
                                        ],
                                        "depth": 2,
                                        "id": 6,
                                        "order": 6
                                    }
                                ],
                                "depth": 1,
                                "id": 5,
                                "order": 5
                            },
                            {
                                "children": [
                                    {
                                        "children": [
                                            {
                                                "children": [],
                                                "depth": 3,
                                                "id": 10,
                                                "order": 10
                                            }
                                        ],
                                        "depth": 2,
                                        "id": 9,
                                        "order": 9
                                    }
                                ],
                                "depth": 1,
                                "id": 8,
                                "order": 8
                            },
                            {
                                "children": [
                                    {
                                        "children": [
                                            {
                                                "children": [],
                                                "depth": 3,
                                                "id": 13,
                                                "order": 13
                                            }
                                        ],
                                        "depth": 2,
                                        "id": 12,
                                        "order": 12
                                    }
                                ],
                                "depth": 1,
                                "id": 11,
                                "order": 11
                            }
                        ],
                        "depth": 0,
                        "id": 0,
                        "order": 0
                    }
                ],
                "depth": -1,
                "id": -1,
                "order": -1
            }
        ],
        "tidyTraceNodeCount": 14
    },
    "state_change": {
        "stateChanges": [
            {
                "address": "0x4f833a24e1f95d70f028921e27040ca56e09ab0b",
                "erc": "",
                "slots": [
                    {
                        "current": "0x00000000000000000000000000000000000000000000006379bd99c0d9cc0000",
                        "key": "0xfcb2e257121efb5a7c848345b2f1224fce56d72d15588eb893594cc940188084",
                        "prev": "0x0000000000000000000000000000000000000000000000000000000000000000"
                    },
                    {
                        "current": "0x00000000000000000000000000000000000000000000000000d2d17e024658e4",
                        "key": "0x0b7cdc50b1989c99ec985bb54483486361e0c2db9756694b5512fa6f15477537",
                        "prev": "0x0000000000000000000000000000000000000000000000000000000000000000"
                    }
                ],
                "storageVariables": [
                    {
                        "name": "filled",
                        "type": "mapping(bytes32 => uint256)",
                        "value": {
                            "pairs": [
                                {
                                    "key": "0x2dad50e00e05c9629096f4d8fac10e81badae42bd09f0ff4be03a7530e98c969",
                                    "value": {
                                        "current": "1835000000000000000000",
                                        "prev": "0",
                                        "typeTag": 1
                                    }
                                },
                                {
                                    "key": "0xa49d245b72541f9b1b7157c924d94d68dbb53afdbbe91a40ea726be970e3e37e",
                                    "value": {
                                        "current": "59340084243486948",
                                        "prev": "0",
                                        "typeTag": 1
                                    }
                                }
                            ],
                            "typeTag": 4
                        }
                    }
                ]
            },
            {
                "address": "0x503f9794d6a6bb0df8fbb19a2b3e2aeab35339ad",
                "erc": "ERC-20",
                "slots": [
                    {
                        "current": "0x0000000000000000000000000000000000000000000004b5d98cb317d5f045d7",
                        "key": "0x895dc30203fba2e4b1c7c4b1f817f8f8708404238a04205ea8f17b4800694102",
                        "prev": "0x0000000000000000000000000000000000000000000004525fcf1956fc2445d7"
                    },
                    {
                        "current": "0xffffffffffffffffffffffffffffffffffffffffffff6894ffe135214dd6a593",
                        "key": "0xb4cae4af1b320ea2923a026967200fa8953e4660da83d2402b6a4ecb9b7491ba",
                        "prev": "0xffffffffffffffffffffffffffffffffffffffffffff68f8799ecee227a2a593"
                    },
                    {
                        "current": "0x000000000000000000000000000000000000000000000418b70055d9d4e52e04",
                        "key": "0xa0791d4227948ed99e852090e16b775b7b42983abe8f0f96592c37ccd0ffbed9",
                        "prev": "0x00000000000000000000000000000000000000000000047c30bdef9aaeb12e04"
                    }
                ],
                "storageVariables": [
                    {
                        "name": "balances",
                        "type": "mapping(address => uint256)",
                        "value": {
                            "pairs": [
                                {
                                    "key": "0x260e92d7b25c9315d068b2c3ca5f234d0cf9e505",
                                    "value": {
                                        "current": "19345374423350618959364",
                                        "prev": "21180374423350618959364",
                                        "typeTag": 1
                                    }
                                },
                                {
                                    "key": "0xda912ecc847b3d98ca882e396e693e485deed518",
                                    "value": {
                                        "current": "22244002710137934464471",
                                        "prev": "20409002710137934464471",
                                        "typeTag": 1
                                    }
                                }
                            ],
                            "typeTag": 4
                        }
                    },
                    {
                        "name": "allowed",
                        "type": "mapping(address => mapping(address => uint256))",
                        "value": {
                            "pairs": [
                                {
                                    "key": "0x260e92d7b25c9315d068b2c3ca5f234d0cf9e505",
                                    "value": {
                                        "pairs": [
                                            {
                                                "key": "0x2240dab907db71e64d3e0dba4800c83b5c502d4e",
                                                "value": {
                                                    "current": "115792089237316195423570985008687907853269984665640563324406434811402658424211",
                                                    "prev": "115792089237316195423570985008687907853269984665640563326241434811402658424211",
                                                    "typeTag": 1
                                                }
                                            }
                                        ],
                                        "typeTag": 4
                                    }
                                }
                            ],
                            "typeTag": 4
                        }
                    }
                ]
            },
            {
                "address": "0xc02aaa39b223fe8d0a0e5c4f27ead9083c756cc2",
                "erc": "ERC-20",
                "slots": [
                    {
                        "current": "0x0000000000000000000000000000000000000000000000000766118d8b18c719",
                        "key": "0x32157ac4cf8a900ccd00f3b62766467a3fff98f1a3aba0dc894468db5df4bbdc",
                        "prev": "0x000000000000000000000000000000000000000000000000083c8f5d5713ab99"
                    },
                    {
                        "current": "0x000000000000000000000000000000000000000000000000089ab1ea6a028e71",
                        "key": "0x6d9b81244b36ea2dd29461ca8e06fd85530a3b6fd21a4b1936eec659f97a9bd2",
                        "prev": "0x00000000000000000000000000000000000000000000000007c7e06c67bc358d"
                    },
                    {
                        "current": "0x0000000000000000000000000000000000000000000000000de22c40d84ea69d",
                        "key": "0x925c05c30c9623fc8419a2ebdb5f8951c883a99b015f8e24b8c44bd827c08011",
                        "prev": "0x0000000000000000000000000000000000000000000000000dde7fef0e9a1b01"
                    }
                ],
                "storageVariables": [
                    {
                        "name": "balanceOf",
                        "type": "mapping(address => uint256)",
                        "value": {
                            "pairs": [
                                {
                                    "key": "0x0681e844593a051e2882ec897ecd5444efe19ff2",
                                    "value": {
                                        "current": "1000410724248233629",
                                        "prev": "999376832041720577",
                                        "typeTag": 1
                                    }
                                },
                                {
                                    "key": "0x260e92d7b25c9315d068b2c3ca5f234d0cf9e505",
                                    "value": {
                                        "current": "620003519075880561",
                                        "prev": "560663434832393613",
                                        "typeTag": 1
                                    }
                                },
                                {
                                    "key": "0xda912ecc847b3d98ca882e396e693e485deed518",
                                    "value": {
                                        "current": "533132905511700249",
                                        "prev": "593506881961700249",
                                        "typeTag": 1
                                    }
                                }
                            ],
                            "typeTag": 4
                        }
                    }
                ]
            }
        ]
    }
}