{
    "balance_change": {
        "balanceChanges": [
            {
                "account": "0xe1c55cae4a95e2e1989c1a955af16c7a9d14b5f7",
                "assets": [
                    {
                        "address": "0xc02aaa39b223fe8d0a0e5c4f27ead9083c756cc2",
                        "amount": "0.078078419388490975",
                        "iconUrl": "https://assets.blocksec.com/icon/f1cb2d02c471d545bbc7722daf3277fd852d98e63d118771af7047bd8256c516.png",
                        "isERC1155": false,
                        "isERC721": false,
                        "sign": true,
                        "value": "133.9564263"
                    },
                    {
                        "address": "0xde83c784551b9fde9375bddf17b9f904358901f8",
                        "amount": "105,504,421",
                        "iconUrl": "",
                        "isERC1155": false,
                        "isERC721": false,
                        "sign": false,
                        "value": "133.9564263"
                    }
                ]
            },
            {
                "account": "0x29579d06f56a558442d122dfd03140fcbbd88d3f",
                "assets": [
                    {
                        "address": "0xde83c784551b9fde9375bddf17b9f904358901f8",
                        "amount": "105,504,421",
                        "iconUrl": "",
                        "isERC1155": false,
                        "isERC721": false,
                        "sign": true,
                        "value": "133.9564263"
                    },
                    {
                        "address": "0xc02aaa39b223fe8d0a0e5c4f27ead9083c756cc2",
                        "amount": "0.078078419388490975",
                        "iconUrl": "https://assets.blocksec.com/icon/f1cb2d02c471d545bbc7722daf3277fd852d98e63d118771af7047bd8256c516.png",
                        "isERC1155": false,
                        "isERC721": false,
                        "sign": false,
                        "value": "133.9564263"
                    }
                ]
            }
        ]
    },
    "profile": {
        "basic_info": {
            "baseFee": "40.567224107",
            "blockNumber": 16643432,
            "callData": "0x472b43f30000000000000000000000000000000000000000000000000176d3b63ff0320000000000000000000000000000000000000000000000000000000000000000010000000000000000000000000000000000000000000000000000000000000080000000000000000000000000e1c55cae4a95e2e1989c1a955af16c7a9d14b5f70000000000000000000000000000000000000000000000000000000000000002000000000000000000000000de83c784551b9fde9375bddf17b9f904358901f8000000000000000000000000c02aaa39b223fe8d0a0e5c4f27ead9083c756cc2",
            "debugEnable": true,
            "errorInfo": "",
            "eventCount": 5,
            "feeRecipient": "0xdafea492d9c6733ae3d56b7ed1adb60692c98bc5",
            "formatValue": "0",
            "gasLimit": 250596,
            "gasPrice": "43.567224107",
            "gasUsed": 162675,
            "intTxnCount": 9,
            "internalRevert": false,
            "internalRevertMessage": "",
            "isContractCreation": false,
            "isFlashloan": false,
            "maxFee": "86.947399972",
            "nonce": 5126,
            "overwritedBlockNumber": -1,
            "priorityFee": "3",
            "receiver": "0x68b3465833fb72a70ecdf485e0e4c7bd8665fc45",
            "revertMessage": "",
            "sender": "0xe1c55cae4a95e2e1989c1a955af16c7a9d14b5f7",
            "simulationEnable": true,
            "sourceTxnHash": "0x3165653839fe76d00536a31d863bf13eb3f2ebe63c039131f248ea0b89a86999",
            "status": true,
            "timestamp": "2023-02-16T19:38:35Z",
            "transactionFee": "0.007087298181606225",
            "txnHash": "0x3165653839fe76d00536a31d863bf13eb3f2ebe63c039131f248ea0b89a86999",
            "txnIndex": 28,
            "type": 2,
            "value": "0"
        },
        "fund_flow": [
            {
                "amount": "105,504,421",
                "from": "0xe1c55cae4a95e2e1989c1a955af16c7a9d14b5f7",
                "id": 1,
                "isERC1155": false,
                "isERC721": false,
                "isReverted": false,
                "order": 1,
                "to": "0x29579d06f56a558442d122dfd03140fcbbd88d3f",
                "token": "0xde83c784551b9fde9375bddf17b9f904358901f8"
            },
            {
                "amount": "0.078078419388490975",
                "from": "0x29579d06f56a558442d122dfd03140fcbbd88d3f",
                "id": 2,
                "isERC1155": false,
                "isERC721": false,
                "isReverted": false,
                "order": 2,
                "to": "0xe1c55cae4a95e2e1989c1a955af16c7a9d14b5f7",
                "token": "0xc02aaa39b223fe8d0a0e5c4f27ead9083c756cc2"
            }
        ],
        "token_infos": [
            {
                "address": "0xde83c784551b9fde9375bddf17b9f904358901f8",
                "decimals": 9
            },
            {
                "address": "0xeeeeeeeeeeeeeeeeeeeeeeeeeeeeeeeeeeeeeeee",
                "decimals": 18
            },
            {
                "address": "0xc02aaa39b223fe8d0a0e5c4f27ead9083c756cc2",
                "decimals": 18
            }
        ]
    },
    "address_label": {
        "labels": [
            {
                "address": "0xeeeeeeeeeeeeeeeeeeeeeeeeeeeeeeeeeeeeeeee",
                "label": "Ether"
            },
            {
                "address": "0x29579d06f56a558442d122dfd03140fcbbd88d3f",
                "label": "Uniswap V2: (\u273f\u25d5\u203f\u25d5)"
            },
            {
                "address": "0x0000000000000000000000000000000000000001",
                "label": "Precompiled"
            },
            {
                "address": "0x0000000000000000000000000000000000000002",
                "label": "Precompiled"
            },
            {
                "address": "0xc02aaa39b223fe8d0a0e5c4f27ead9083c756cc2",
                "label": "Wrapped Ether (WETH)"
            },
            {
                "address": "0x68b3465833fb72a70ecdf485e0e4c7bd8665fc45",
                "label": "Uniswap V3: Router 2"
            },
            {
                "address": "0xde83c784551b9fde9375bddf17b9f904358901f8",
                "label": "(\u273f\u25d5\u203f\u25d5)"
            },
            {
                "address": "0x0000000000000000000000000000000000000003",
                "label": "Precompiled"
            },
            {
                "address": "0x0000000000000000000000000000000000000004",
                "label": "Precompiled"
            }
        ]
    },
    "trace": {
        "accountLabels": null,
        "dataMap": {
            "-1": {
                "invocation": {
                    "address": "0xe1c55cae4a95e2e1989c1a955af16c7a9d14b5f7",
                    "callData": "",
                    "decodedMethod": null,
                    "errorInfo": "",
                    "fromAddress": "",
                    "gasUsed": 0,
                    "id": -1,
                    "methodDecoded": false,
                    "operation": "",
                    "output": "",
                    "revert": false,
                    "revertMessage": "",
                    "selector": "",
                    "status": false,
                    "value": ""
                },
                "nodeType": 0
            },
            "0": {
                "invocation": {
                    "address": "0x68b3465833fb72a70ecdf485e0e4c7bd8665fc45",
                    "callData": "0x0000000000000000000000000000000000000000000000000176d3b63ff0320000000000000000000000000000000000000000000000000000000000000000010000000000000000000000000000000000000000000000000000000000000080000000000000000000000000e1c55cae4a95e2e1989c1a955af16c7a9d14b5f70000000000000000000000000000000000000000000000000000000000000002000000000000000000000000de83c784551b9fde9375bddf17b9f904358901f8000000000000000000000000c02aaa39b223fe8d0a0e5c4f27ead9083c756cc2",
                    "decodedMethod": {
                        "callParams": [
                            {
                                "name": "amountIn",
                                "type": "uint256",
                                "value": "105,504,421,000,000,000"
                            },
                            {
                                "name": "amountOutMin",
                                "type": "uint256",
                                "value": "1"
                            },
                            {
                                "name": "path",
                                "type": "address[]",
                                "value": [
                                    "0xde83c784551b9fde9375bddf17b9f904358901f8",
                                    "0xc02aaa39b223fe8d0a0e5c4f27ead9083c756cc2"
                                ]
                            },
                            {
                                "name": "to",
                                "type": "address",
                                "value": "0xe1c55cae4a95e2e1989c1a955af16c7a9d14b5f7"
                            }
                        ],
                        "constructorArguments": "",
                        "name": "swapExactTokensForTokens",
                        "returnParams": [
                            {
                                "name": "amountOut",
                                "type": "uint256",
                                "value": "78,078,419,388,490,975"
                            }
                        ],
                        "signature": "swapExactTokensForTokens(uint256,uint256,address[],address)"
                    },
                    "errorInfo": "",
                    "fromAddress": "0xe1c55cae4a95e2e1989c1a955af16c7a9d14b5f7",
                    "gasUsed": 162675,
                    "id": 0,
                    "methodDecoded": true,
                    "operation": "CALL",
                    "output": "0x000000000000000000000000000000000000000000000000011563e8a44664df",
                    "revert": false,
                    "revertMessage": "",
                    "selector": "0x472b43f3",
                    "status": true,
                    "value": "0"
                },
                "nodeType": 0
            },
            "1": {
                "invocation": {
                    "address": "0xde83c784551b9fde9375bddf17b9f904358901f8",
                    "callData": "0x000000000000000000000000e1c55cae4a95e2e1989c1a955af16c7a9d14b5f700000000000000000000000029579d06f56a558442d122dfd03140fcbbd88d3f0000000000000000000000000000000000000000000000000176d3b63ff03200",
                    "decodedMethod": {
                        "callParams": [
                            {
                                "name": "sender",
                                "type": "address",
                                "value": "0xe1c55cae4a95e2e1989c1a955af16c7a9d14b5f7"
                            },
                            {
                                "name": "recipient",
                                "type": "address",
                                "value": "0x29579d06f56a558442d122dfd03140fcbbd88d3f"
                            },
                            {
                                "decimalAvailable": true,
                                "name": "amount",
                                "type": "uint256",
                                "value": "105,504,421,000,000,000"
                            }
                        ],
                        "constructorArguments": "",
                        "name": "transferFrom",
                        "returnParams": [
                            {
                                "name": "",
                                "type": "bool",
                                "value": true
                            }
                        ],
                        "signature": "transferFrom(address,address,uint256)"
                    },
                    "errorInfo": "",
                    "fromAddress": "0x68b3465833fb72a70ecdf485e0e4c7bd8665fc45",
                    "gasUsed": 57132,
                    "id": 1,
                    "methodDecoded": true,
                    "operation": "CALL",
                    "output": "0x0000000000000000000000000000000000000000000000000000000000000001",
                    "revert": false,
                    "revertMessage": "",
                    "selector": "0x23b872dd",
                    "status": true,
                    "value": "0"
                },
                "nodeType": 0
            },
            "10": {
                "invocation": {
                    "address": "0xc02aaa39b223fe8d0a0e5c4f27ead9083c756cc2",
                    "callData": "0x00000000000000000000000029579d06f56a558442d122dfd03140fcbbd88d3f",
                    "decodedMethod": {
                        "callParams": [
                            {
                                "name": "",
                                "type": "address",
                                "value": "0x29579d06f56a558442d122dfd03140fcbbd88d3f"
                            }
                        ],
                        "constructorArguments": "",
                        "name": "balanceOf",
                        "returnParams": [
                            {
                                "decimalAvailable": true,
                                "name": "",
                                "type": "uint256",
                                "value": "2,567,786,119,202,980,067"
                            }
                        ],
                        "signature": "balanceOf(address)"
                    },
                    "errorInfo": "",
                    "fromAddress": "0x29579d06f56a558442d122dfd03140fcbbd88d3f",
                    "gasUsed": 534,
                    "id": 10,
                    "methodDecoded": true,
                    "operation": "STATICCALL",
                    "output": "0x00000000000000000000000000000000000000000000000023a29bdee645c0e3",
                    "revert": false,
                    "revertMessage": "",
                    "selector": "0x70a08231",
                    "status": true,
                    "value": "0"
                },
                "nodeType": 0
            },
            "11": {
                "invocation": {
                    "address": "0xde83c784551b9fde9375bddf17b9f904358901f8",
                    "callData": "0x00000000000000000000000029579d06f56a558442d122dfd03140fcbbd88d3f",
                    "decodedMethod": {
                        "callParams": [
                            {
                                "name": "account",
                                "type": "address",
                                "value": "0x29579d06f56a558442d122dfd03140fcbbd88d3f"
                            }
                        ],
                        "constructorArguments": "",
                        "name": "balanceOf",
                        "returnParams": [
                            {
                                "decimalAvailable": true,
                                "name": "",
                                "type": "uint256",
                                "value": "3,564,847,623,776,028,741"
                            }
                        ],
                        "signature": "balanceOf(address)"
                    },
                    "errorInfo": "",
                    "fromAddress": "0x29579d06f56a558442d122dfd03140fcbbd88d3f",
                    "gasUsed": 1809,
                    "id": 11,
                    "methodDecoded": true,
                    "operation": "STATICCALL",
                    "output": "0x0000000000000000000000000000000000000000000000003178e206c590c845",
                    "revert": false,
                    "revertMessage": "",
                    "selector": "0x70a08231",
                    "status": true,
                    "value": "0"
                },
                "nodeType": 0
            },
            "12": {
                "event": {
                    "contract": "0x29579d06f56a558442d122dfd03140fcbbd88d3f",
                    "decodedLog": {
                        "name": "Sync",
                        "params": [
                            {
                                "name": "reserve0",
                                "type": "uint112",
                                "value": "2,567,786,119,202,980,067"
                            },
                            {
                                "name": "reserve1",
                                "type": "uint112",
                                "value": "3,564,847,623,776,028,741"
                            }
                        ],
                        "signature": "Sync(uint112,uint112)"
                    },
                    "id": 12,
                    "logData": "0x00000000000000000000000000000000000000000000000023a29bdee645c0e30000000000000000000000000000000000000000000000003178e206c590c845",
                    "logDecoded": true,
                    "operation": "EVENT",
                    "revert": false,
                    "status": true,
                    "topics": [
                        "0x1c411e9a96e071241c2f21f7726b17ae89e3cab4c78be50e062b03a9fffbbad1"
                    ]
                },
                "nodeType": 1
            },
            "13": {
                "event": {
                    "contract": "0x29579d06f56a558442d122dfd03140fcbbd88d3f",
                    "decodedLog": {
                        "name": "Swap",
                        "params": [
                            {
                                "name": "sender",
                                "type": "address",
                                "value": "0x68b3465833fb72a70ecdf485e0e4c7bd8665fc45"
                            },
                            {
                                "name": "to",
                                "type": "address",
                                "value": "0xe1c55cae4a95e2e1989c1a955af16c7a9d14b5f7"
                            },
                            {
                                "name": "amount0In",
                                "type": "uint256",
                                "value": "0"
                            },
                            {
                                "name": "amount1In",
                                "type": "uint256",
                                "value": "105,504,421,000,000,000"
                            },
                            {
                                "name": "amount0Out",
                                "type": "uint256",
                                "value": "78,078,419,388,490,975"
                            },
                            {
                                "name": "amount1Out",
                                "type": "uint256",
                                "value": "0"
                            }
                        ],
                        "signature": "Swap(address,uint256,uint256,uint256,uint256,address)"
                    },
                    "id": 13,
                    "logData": "0x00000000000000000000000000000000000000000000000000000000000000000000000000000000000000000000000000000000000000000176d3b63ff03200000000000000000000000000000000000000000000000000011563e8a44664df0000000000000000000000000000000000000000000000000000000000000000",
                    "logDecoded": true,
                    "operation": "EVENT",
                    "revert": false,
                    "status": true,
                    "topics": [
                        "0xd78ad95fa46c994b6551d0da85fc275fe613ce37657fb8d5e3d130840159d822",
                        "0x00000000000000000000000068b3465833fb72a70ecdf485e0e4c7bd8665fc45",
                        "0x000000000000000000000000e1c55cae4a95e2e1989c1a955af16c7a9d14b5f7"
                    ]
                },
                "nodeType": 1
            },
            "14": {
                "invocation": {
                    "address": "0xc02aaa39b223fe8d0a0e5c4f27ead9083c756cc2",
                    "callData": "0x000000000000000000000000e1c55cae4a95e2e1989c1a955af16c7a9d14b5f7",
                    "decodedMethod": {
                        "callParams": [
                            {
                                "name": "",
                                "type": "address",
                                "value": "0xe1c55cae4a95e2e1989c1a955af16c7a9d14b5f7"
                            }
                        ],
                        "constructorArguments": "",
                        "name": "balanceOf",
                        "returnParams": [
                            {
                                "decimalAvailable": true,
                                "name": "",
                                "type": "uint256",
                                "value": "78,078,419,388,490,975"
                            }
                        ],
                        "signature": "balanceOf(address)"
                    },
                    "errorInfo": "",
                    "fromAddress": "0x68b3465833fb72a70ecdf485e0e4c7bd8665fc45",
                    "gasUsed": 534,
                    "id": 14,
                    "methodDecoded": true,
                    "operation": "STATICCALL",
                    "output": "0x000000000000000000000000000000000000000000000000011563e8a44664df",
                    "revert": false,
                    "revertMessage": "",
                    "selector": "0x70a08231",
                    "status": true,
                    "value": "0"
                },
                "nodeType": 0
            },
            "2": {
                "event": {
                    "contract": "0xde83c784551b9fde9375bddf17b9f904358901f8",
                    "decodedLog": {
                        "name": "Transfer",
                        "params": [
                            {
                                "name": "from",
                                "type": "address",
                                "value": "0xe1c55cae4a95e2e1989c1a955af16c7a9d14b5f7"
                            },
                            {
                                "name": "to",
                                "type": "address",
                                "value": "0x29579d06f56a558442d122dfd03140fcbbd88d3f"
                            },
                            {
                                "decimalAvailable": true,
                                "name": "value",
                                "type": "uint256",
                                "value": "105,504,421,000,000,000"
                            }
                        ],
                        "signature": "Transfer(address,address,uint256)"
                    },
                    "id": 2,
                    "logData": "0x0000000000000000000000000000000000000000000000000176d3b63ff03200",
                    "logDecoded": true,
                    "operation": "EVENT",
                    "revert": false,
                    "status": true,
                    "topics": [
                        "0xddf252ad1be2c89b69c2b068fc378daa952ba7f163c4a11628f55a4df523b3ef",
                        "0x000000000000000000000000e1c55cae4a95e2e1989c1a955af16c7a9d14b5f7",
                        "0x00000000000000000000000029579d06f56a558442d122dfd03140fcbbd88d3f"
                    ]
                },
                "nodeType": 1
            },
            "3": {
                "event": {
                    "contract": "0xde83c784551b9fde9375bddf17b9f904358901f8",
                    "decodedLog": {
                        "name": "Approval",
                        "params": [
                            {
                                "name": "owner",
                                "type": "address",
                                "value": "0xe1c55cae4a95e2e1989c1a955af16c7a9d14b5f7"
                            },
                            {
                                "name": "spender",
                                "type": "address",
                                "value": "0x68b3465833fb72a70ecdf485e0e4c7bd8665fc45"
                            },
                            {
                                "decimalAvailable": true,
                                "name": "value",
                                "type": "uint256",
                                "value": "9,899,999,999,999,999,999,999,620,476,247,000,000,000"
                            }
                        ],
                        "signature": "Approval(address,address,uint256)"
                    },
                    "id": 3,
                    "logData": "0x0000000000000000000000000000001d17eea51b021dfb31ab26e7e84e9ca600",
                    "logDecoded": true,
                    "operation": "EVENT",
                    "revert": false,
                    "status": true,
                    "topics": [
                        "0x8c5be1e5ebec7d5bd14f71427d1e84f3dd0314c0f7b2291e5b200ac8c7c3b925",
                        "0x000000000000000000000000e1c55cae4a95e2e1989c1a955af16c7a9d14b5f7",
                        "0x00000000000000000000000068b3465833fb72a70ecdf485e0e4c7bd8665fc45"
                    ]
                },
                "nodeType": 1
            },
            "4": {
                "invocation": {
                    "address": "0xc02aaa39b223fe8d0a0e5c4f27ead9083c756cc2",
                    "callData": "0x000000000000000000000000e1c55cae4a95e2e1989c1a955af16c7a9d14b5f7",
                    "decodedMethod": {
                        "callParams": [
                            {
                                "name": "",
                                "type": "address",
                                "value": "0xe1c55cae4a95e2e1989c1a955af16c7a9d14b5f7"
                            }
                        ],
                        "constructorArguments": "",
                        "name": "balanceOf",
                        "returnParams": [
                            {
                                "decimalAvailable": true,
                                "name": "",
                                "type": "uint256",
                                "value": "0"
                            }
                        ],
                        "signature": "balanceOf(address)"
                    },
                    "errorInfo": "",
                    "fromAddress": "0x68b3465833fb72a70ecdf485e0e4c7bd8665fc45",
                    "gasUsed": 2534,
                    "id": 4,
                    "methodDecoded": true,
                    "operation": "STATICCALL",
                    "output": "0x0000000000000000000000000000000000000000000000000000000000000000",
                    "revert": false,
                    "revertMessage": "",
                    "selector": "0x70a08231",
                    "status": true,
                    "value": "0"
                },
                "nodeType": 0
            },
            "5": {
                "invocation": {
                    "address": "0x29579d06f56a558442d122dfd03140fcbbd88d3f",
                    "callData": "0x",
                    "decodedMethod": {
                        "callParams": [],
                        "constructorArguments": "",
                        "name": "getReserves",
                        "returnParams": [
                            {
                                "name": "_reserve0",
                                "type": "uint112",
                                "value": "2,645,864,538,591,471,042"
                            },
                            {
                                "name": "_reserve1",
                                "type": "uint112",
                                "value": "3,459,343,202,776,028,741"
                            },
                            {
                                "name": "_blockTimestampLast",
                                "type": "uint32",
                                "value": "1,676,576,279"
                            }
                        ],
                        "signature": "getReserves()"
                    },
                    "errorInfo": "",
                    "fromAddress": "0x68b3465833fb72a70ecdf485e0e4c7bd8665fc45",
                    "gasUsed": 2504,
                    "id": 5,
                    "methodDecoded": true,
                    "operation": "STATICCALL",
                    "output": "0x00000000000000000000000000000000000000000000000024b7ffc78a8c25c200000000000000000000000000000000000000000000000030020e5085a096450000000000000000000000000000000000000000000000000000000063ee8617",
                    "revert": false,
                    "revertMessage": "",
                    "selector": "0x0902f1ac",
                    "status": true,
                    "value": "0"
                },
                "nodeType": 0
            },
            "6": {
                "invocation": {
                    "address": "0xde83c784551b9fde9375bddf17b9f904358901f8",
                    "callData": "0x00000000000000000000000029579d06f56a558442d122dfd03140fcbbd88d3f",
                    "decodedMethod": {
                        "callParams": [
                            {
                                "name": "account",
                                "type": "address",
                                "value": "0x29579d06f56a558442d122dfd03140fcbbd88d3f"
                            }
                        ],
                        "constructorArguments": "",
                        "name": "balanceOf",
                        "returnParams": [
                            {
                                "decimalAvailable": true,
                                "name": "",
                                "type": "uint256",
                                "value": "3,564,847,623,776,028,741"
                            }
                        ],
                        "signature": "balanceOf(address)"
                    },
                    "errorInfo": "",
                    "fromAddress": "0x68b3465833fb72a70ecdf485e0e4c7bd8665fc45",
                    "gasUsed": 1809,
                    "id": 6,
                    "methodDecoded": true,
                    "operation": "STATICCALL",
                    "output": "0x0000000000000000000000000000000000000000000000003178e206c590c845",
                    "revert": false,
                    "revertMessage": "",
                    "selector": "0x70a08231",
                    "status": true,
                    "value": "0"
                },
                "nodeType": 0
            },
            "7": {
                "invocation": {
                    "address": "0x29579d06f56a558442d122dfd03140fcbbd88d3f",
                    "callData": "0x000000000000000000000000000000000000000000000000011563e8a44664df0000000000000000000000000000000000000000000000000000000000000000000000000000000000000000e1c55cae4a95e2e1989c1a955af16c7a9d14b5f700000000000000000000000000000000000000000000000000000000000000800000000000000000000000000000000000000000000000000000000000000000",
                    "decodedMethod": {
                        "callParams": [
                            {
                                "name": "amount0Out",
                                "type": "uint256",
                                "value": "78,078,419,388,490,975"
                            },
                            {
                                "name": "amount1Out",
                                "type": "uint256",
                                "value": "0"
                            },
                            {
                                "name": "to",
                                "type": "address",
                                "value": "0xe1c55cae4a95e2e1989c1a955af16c7a9d14b5f7"
                            },
                            {
                                "name": "data",
                                "type": "bytes",
                                "value": "0x"
                            }
                        ],
                        "constructorArguments": "",
                        "name": "swap",
                        "returnParams": [],
                        "signature": "swap(uint256,uint256,address,bytes)"
                    },
                    "errorInfo": "",
                    "fromAddress": "0x68b3465833fb72a70ecdf485e0e4c7bd8665fc45",
                    "gasUsed": 61628,
                    "id": 7,
                    "methodDecoded": true,
                    "operation": "CALL",
                    "output": "",
                    "revert": false,
                    "revertMessage": "",
                    "selector": "0x022c0d9f",
                    "status": true,
                    "value": "0"
                },
                "nodeType": 0
            },
            "8": {
                "invocation": {
                    "address": "0xc02aaa39b223fe8d0a0e5c4f27ead9083c756cc2",
                    "callData": "0x000000000000000000000000e1c55cae4a95e2e1989c1a955af16c7a9d14b5f7000000000000000000000000000000000000000000000000011563e8a44664df",
                    "decodedMethod": {
                        "callParams": [
                            {
                                "name": "dst",
                                "type": "address",
                                "value": "0xe1c55cae4a95e2e1989c1a955af16c7a9d14b5f7"
                            },
                            {
                                "decimalAvailable": true,
                                "name": "wad",
                                "type": "uint256",
                                "value": "78,078,419,388,490,975"
                            }
                        ],
                        "constructorArguments": "",
                        "name": "transfer",
                        "returnParams": [
                            {
                                "name": "",
                                "type": "bool",
                                "value": true
                            }
                        ],
                        "signature": "transfer(address,uint256)"
                    },
                    "errorInfo": "",
                    "fromAddress": "0x29579d06f56a558442d122dfd03140fcbbd88d3f",
                    "gasUsed": 27962,
                    "id": 8,
                    "methodDecoded": true,
                    "operation": "CALL",
                    "output": "0x0000000000000000000000000000000000000000000000000000000000000001",
                    "revert": false,
                    "revertMessage": "",
                    "selector": "0xa9059cbb",
                    "status": true,
                    "value": "0"
                },
                "nodeType": 0
            },
            "9": {
                "event": {
                    "contract": "0xc02aaa39b223fe8d0a0e5c4f27ead9083c756cc2",
                    "decodedLog": {
                        "name": "Transfer",
                        "params": [
                            {
                                "name": "src",
                                "type": "address",
                                "value": "0x29579d06f56a558442d122dfd03140fcbbd88d3f"
                            },
                            {
                                "name": "dst",
                                "type": "address",
                                "value": "0xe1c55cae4a95e2e1989c1a955af16c7a9d14b5f7"
                            },
                            {
                                "decimalAvailable": true,
                                "name": "wad",
                                "type": "uint256",
                                "value": "78,078,419,388,490,975"
                            }
                        ],
                        "signature": "Transfer(address,address,uint256)"
                    },
                    "id": 9,
                    "logData": "0x000000000000000000000000000000000000000000000000011563e8a44664df",
                    "logDecoded": true,
                    "operation": "EVENT",
                    "revert": false,
                    "status": true,
                    "topics": [
                        "0xddf252ad1be2c89b69c2b068fc378daa952ba7f163c4a11628f55a4df523b3ef",
                        "0x00000000000000000000000029579d06f56a558442d122dfd03140fcbbd88d3f",
                        "0x000000000000000000000000e1c55cae4a95e2e1989c1a955af16c7a9d14b5f7"
                    ]
                },
                "nodeType": 1
            }
        },
        "gasFlame": [
            {
                "children": [
                    {
                        "children": [
                            {
                                "children": [],
                                "depth": 0,
                                "name": "Initial Gas",
                                "value": 22800
                            },
                            {
                                "children": [
                                    {
                                        "children": [],
                                        "depth": 1,
                                        "name": "transferFrom",
                                        "value": 57132
                                    },
                                    {
                                        "children": [],
                                        "depth": 1,
                                        "name": "balanceOf",
                                        "value": 2534
                                    },
                                    {
                                        "children": [],
                                        "depth": 1,
                                        "name": "getReserves",
                                        "value": 2504
                                    },
                                    {
                                        "children": [],
                                        "depth": 1,
                                        "name": "balanceOf",
                                        "value": 1809
                                    },
                                    {
                                        "children": [
                                            {
                                                "children": [],
                                                "depth": 2,
                                                "name": "transfer",
                                                "value": 27962
                                            },
                                            {
                                                "children": [],
                                                "depth": 2,
                                                "name": "balanceOf",
                                                "value": 534
                                            },
                                            {
                                                "children": [],
                                                "depth": 2,
                                                "name": "balanceOf",
                                                "value": 1809
                                            }
                                        ],
                                        "depth": 1,
                                        "name": "swap",
                                        "value": 61628
                                    },
                                    {
                                        "children": [],
                                        "depth": 1,
                                        "name": "balanceOf",
                                        "value": 534
                                    }
                                ],
                                "depth": 0,
                                "name": "Executed Gas",
                                "value": 142675
                            }
                        ],
                        "depth": -1,
                        "name": "Actual Gas Used",
                        "value": 162675
                    },
                    {
                        "children": [],
                        "depth": -1,
                        "name": "Refunded Gas",
                        "value": 2800
                    }
                ],
                "depth": -2,
                "name": "Total Gas",
                "value": 165475
            }
        ],
        "isConfirmed": true,
        "mainTrace": [
            {
                "children": [
                    {
                        "children": [
                            {
                                "children": [
                                    {
                                        "children": [],
                                        "depth": 2,
                                        "id": 2,
                                        "order": 2
                                    },
                                    {
                                        "children": [],
                                        "depth": 2,
                                        "id": 3,
                                        "order": 3
                                    }
                                ],
                                "depth": 1,
                                "id": 1,
                                "order": 1
                            },
                            {
                                "children": [],
                                "depth": 1,
                                "id": 4,
                                "order": 4
                            },
                            {
                                "children": [],
                                "depth": 1,
                                "id": 5,
                                "order": 5
                            },
                            {
                                "children": [],
                                "depth": 1,
                                "id": 6,
                                "order": 6
                            },
                            {
                                "children": [
                                    {
                                        "children": [
                                            {
                                                "children": [],
                                                "depth": 3,
                                                "id": 9,
                                                "order": 9
                                            }
                                        ],
                                        "depth": 2,
                                        "id": 8,
                                        "order": 8
                                    },
                                    {
                                        "children": [],
                                        "depth": 2,
                                        "id": 10,
                                        "order": 10
                                    },
                                    {
                                        "children": [],
                                        "depth": 2,
                                        "id": 11,
                                        "order": 11
                                    },
                                    {
                                        "children": [],
                                        "depth": 2,
                                        "id": 12,
                                        "order": 12
                                    },
                                    {
                                        "children": [],
                                        "depth": 2,
                                        "id": 13,
                                        "order": 13
                                    }
                                ],
                                "depth": 1,
                                "id": 7,
                                "order": 7
                            },
                            {
                                "children": [],
                                "depth": 1,
                                "id": 14,
                                "order": 14
                            }
                        ],
                        "depth": 0,
                        "id": 0,
                        "order": 0
                    }
                ],
                "depth": -1,
                "id": -1,
                "order": -1
            }
        ],
        "mainTraceNodeCount": 15,
        "parentIdMap": {
            "0": -1,
            "1": 0,
            "10": 7,
            "11": 7,
            "12": 7,
            "13": 7,
            "14": 0,
            "2": 1,
            "3": 1,
            "4": 0,
            "5": 0,
            "6": 0,
            "7": 0,
            "8": 7,
            "9": 8
        },
        "tidyTrace": [
            {
                "children": [
                    {
                        "children": [
                            {
                                "children": [
                                    {
                                        "children": [],
                                        "depth": 2,
                                        "id": 2,
                                        "order": 2
                                    },
                                    {
                                        "children": [],
                                        "depth": 2,
                                        "id": 3,
                                        "order": 3
                                    }
                                ],
                                "depth": 1,
                                "id": 1,
                                "order": 1
                            },
                            {
                                "children": [
                                    {
                                        "children": [
                                            {
                                                "children": [],
                                                "depth": 3,
                                                "id": 9,
                                                "order": 9
                                            }
                                        ],
                                        "depth": 2,
                                        "id": 8,
                                        "order": 8
                                    },
                                    {
                                        "children": [],
                                        "depth": 2,
                                        "id": 12,
                                        "order": 12
                                    },
                                    {
                                        "children": [],
                                        "depth": 2,
                                        "id": 13,
                                        "order": 13
                                    }
                                ],
                                "depth": 1,
                                "id": 7,
                                "order": 7
                            }
                        ],
                        "depth": 0,
                        "id": 0,
                        "order": 0
                    }
                ],
                "depth": -1,
                "id": -1,
                "order": -1
            }
        ],
        "tidyTraceNodeCount": 9
    },
    "state_change": {
        "stateChanges": [
            {
                "address": "0x29579d06f56a558442d122dfd03140fcbbd88d3f",
                "erc": "ERC-20",
                "slots": [
                    {
                        "current": "0x00000000000000000000000000000001396c0be3d96dc319759a257c5c4d11b8",
                        "key": "0x000000000000000000000000000000000000000000000000000000000000000a",
                        "prev": "0x0000000000000000000000000000000139508311ed4845857a961e257139f434"
                    },
                    {
                        "current": "0x63ee863b0000000000003178e206c590c84500000000000023a29bdee645c0e3",
                        "key": "0x0000000000000000000000000000000000000000000000000000000000000008",
                        "prev": "0x63ee861700000000000030020e5085a0964500000000000024b7ffc78a8c25c2"
                    },
                    {
                        "current": "0x00000000000000000000000000000000bd7e72df499228efa45a486dcbffc090",
                        "key": "0x0000000000000000000000000000000000000000000000000000000000000009",
                        "prev": "0x00000000000000000000000000000000bd4f6162f1df1f0bf67a0cd598e91bb4"
                    }
                ],
                "storageVariables": [
                    {
                        "name": "reserve0",
                        "type": "uint112",
                        "value": {
                            "current": "2567786119202980067",
                            "prev": "2645864538591471042",
                            "typeTag": 1
                        }
                    },
                    {
                        "name": "reserve1",
                        "type": "uint112",
                        "value": {
                            "current": "3564847623776028741",
                            "prev": "3459343202776028741",
                            "typeTag": 1
                        }
                    },
                    {
                        "name": "blockTimestampLast",
                        "type": "uint32",
                        "value": {
                            "current": "1676576315",
                            "prev": "1676576279",
                            "typeTag": 1
                        }
                    },
                    {
                        "name": "price0CumulativeLast",
                        "type": "uint256",
                        "value": {
                            "current": "251880650492868647433285922362757202064",
                            "prev": "251636257888120456410163550484135746484",
                            "typeTag": 1
                        }
                    },
                    {
                        "name": "price1CumulativeLast",
                        "type": "uint256",
                        "value": {
                            "current": "416609371899989901885828963407326155192",
                            "prev": "416466404845333613832701921016789201972",
                            "typeTag": 1
                        }
                    }
                ]
            },
            {
                "address": "0xc02aaa39b223fe8d0a0e5c4f27ead9083c756cc2",
                "erc": "ERC-20",
                "slots": [
                    {
                        "current": "0x00000000000000000000000000000000000000000000000023a29bdee645c0e3",
                        "key": "0x77eed451acd5b14443c99b8942a148d4f87cfaf11bc4074429ee35598f31f9bd",
                        "prev": "0x00000000000000000000000000000000000000000000000024b7ffc78a8c25c2"
                    },
                    {
                        "current": "0x000000000000000000000000000000000000000000000000011563e8a44664df",
                        "key": "0x80085d57995a09267512700bd0e6fa1211d1f8a38fe5cc7a41419a91c1962510",
                        "prev": "0x0000000000000000000000000000000000000000000000000000000000000000"
                    }
                ],
                "storageVariables": [
                    {
                        "name": "balanceOf",
                        "type": "mapping(address => uint256)",
                        "value": {
                            "pairs": [
                                {
                                    "key": "0x29579d06f56a558442d122dfd03140fcbbd88d3f",
                                    "value": {
                                        "current": "2567786119202980067",
                                        "prev": "2645864538591471042",
                                        "typeTag": 1
                                    }
                                },
                                {
                                    "key": "0xe1c55cae4a95e2e1989c1a955af16c7a9d14b5f7",
                                    "value": {
                                        "current": "78078419388490975",
                                        "prev": "0",
                                        "typeTag": 1
                                    }
                                }
                            ],
                            "typeTag": 4
                        }
                    }
                ]
            },
            {
                "address": "0xde83c784551b9fde9375bddf17b9f904358901f8",
                "erc": "ERC-20",
                "slots": [
                    {
                        "current": "0x0000000000000000000000000000001d17eea51b021dfb31ab26e7e84e9ca600",
                        "key": "0x617a625ae2aa7338643070fcd254cdaf6bbb8018427ba246b75471c7f3734b25",
                        "prev": "0x0000000000000000000000000000001d17eea51b021dfb31ac9dbb9e8e8cd800"
                    },
                    {
                        "current": "0x0000000028e795ad02963f65da38f3690d23f28a43d448abd663828e4af67115",
                        "key": "0xc14b8c21217564a6254b0467760611d42b2079417bf3a99b8a094af50d2ab306",
                        "prev": "0x02b36f0bf00835918d3a8ac3ad7c1ca0a36f21527062cde88b48258e5301f315"
                    },
                    {
                        "current": "0x5b4295dbef2381d8f9f1b3ba860e243f40b2e5d1f60792b2c5b526164db911cd",
                        "key": "0xcb0a951ad28b9086a3306422a1da1e325bd8b52ce954b6e31727f10e1002c3ad",
                        "prev": "0x588f26d02802e1f46f4d685cb2cafb07aa67b709c9790d7610d0831645ad8fcd"
                    }
                ],
                "storageVariables": [
                    {
                        "name": "_rOwned",
                        "type": "mapping(address => uint256)",
                        "value": {
                            "pairs": [
                                {
                                    "key": "0x29579d06f56a558442d122dfd03140fcbbd88d3f",
                                    "value": {
                                        "current": "41278115416970851138371464143345347587999448880585233342157896359741425783245",
                                        "prev": "40056457683834513459162793490771217819223388611702504711848337018896425783245",
                                        "typeTag": 1
                                    }
                                },
                                {
                                    "key": "0xe1c55cae4a95e2e1989c1a955af16c7a9d14b5f7",
                                    "value": {
                                        "current": "4307760074698212651257226902124180757672197227189847507145384685845",
                                        "prev": "1221657737444097753906883303831356670900241026554925857499406847990384685845",
                                        "typeTag": 1
                                    }
                                }
                            ],
                            "typeTag": 4
                        }
                    },
                    {
                        "name": "_allowances",
                        "type": "mapping(address => mapping(address => uint256))",
                        "value": {
                            "pairs": [
                                {
                                    "key": "0xe1c55cae4a95e2e1989c1a955af16c7a9d14b5f7",
                                    "value": {
                                        "pairs": [
                                            {
                                                "key": "0x68b3465833fb72a70ecdf485e0e4c7bd8665fc45",
                                                "value": {
                                                    "current": "9899999999999999999999620476247000000000",
                                                    "prev": "9899999999999999999999725980668000000000",
                                                    "typeTag": 1
                                                }
                                            }
                                        ],
                                        "typeTag": 4
                                    }
                                }
                            ],
                            "typeTag": 4
                        }
                    }
                ]
            }
        ]
    }
}