{
    "balance_change": {
        "balanceChanges": [
            {
                "account": "0x0dfecb5bf4b6bbdf038351c33344ab2dea851f44",
                "assets": [
                    {
                        "address": "0xe62e6e6c3b808faad3a54b226379466544d76ea4",
                        "amount": "115.714909",
                        "iconUrl": "",
                        "isERC1155": false,
                        "isERC721": false,
                        "sign": false,
                        "value": ""
                    }
                ]
            },
            {
                "account": "0xe62e6e6c3b808faad3a54b226379466544d76ea4",
                "assets": [
                    {
                        "address": "0xe62e6e6c3b808faad3a54b226379466544d76ea4",
                        "amount": "115.714909",
                        "iconUrl": "",
                        "isERC1155": false,
                        "isERC721": false,
                        "sign": true,
                        "value": ""
                    }
                ]
            },
            {
                "account": "0x2cfe02245796295ebefab41f4d6a00c75ce3a6fc",
                "assets": [
                    {
                        "address": "0xe62e6e6c3b808faad3a54b226379466544d76ea4",
                        "amount": "52.071709",
                        "iconUrl": "",
                        "isERC1155": false,
                        "isERC721": false,
                        "sign": true,
                        "value": ""
                    }
                ]
            },
            {
                "account": "0x5c8673229951e028c082d4a43c3de5734ba881a0",
                "assets": [
                    {
                        "address": "0xe62e6e6c3b808faad3a54b226379466544d76ea4",
                        "amount": "347.144727",
                        "iconUrl": "",
                        "isERC1155": false,
                        "isERC721": false,
                        "sign": true,
                        "value": ""
                    }
                ]
            },
            {
                "account": "0xf408d6e9c8a41ddcab1381dfb22d16378ccb35b6",
                "assets": [
                    {
                        "address": "0xe62e6e6c3b808faad3a54b226379466544d76ea4",
                        "amount": "399.216436",
                        "iconUrl": "",
                        "isERC1155": false,
                        "isERC721": false,
                        "sign": false,
                        "value": ""
                    }
                ]
            }
        ]
    },
    "profile": {
        "basic_info": {
            "baseFee": "",
            "blockNumber": 9785753,
            "callData": "0xa9059cbb000000000000000000000000e62e6e6c3b808faad3a54b226379466544d76ea40000000000000000000000000000000000000000000000000000000006e5ab5d",
            "debugEnable": true,
            "errorInfo": "",
            "eventCount": 4,
            "feeRecipient": "0x52e44f279f4203dcf680395379e5f9990a69f13c",
            "formatValue": "0",
            "gasLimit": 80000,
            "gasPrice": "1.100000144",
            "gasUsed": 55475,
            "intTxnCount": 0,
            "internalRevert": false,
            "internalRevertMessage": "",
            "isContractCreation": false,
            "isFlashloan": false,
            "maxFee": "",
            "nonce": 15,
            "overwritedBlockNumber": -1,
            "priorityFee": "",
            "receiver": "0xe62e6e6c3b808faad3a54b226379466544d76ea4",
            "revertMessage": "",
            "sender": "0x0dfecb5bf4b6bbdf038351c33344ab2dea851f44",
            "simulationEnable": true,
            "sourceTxnHash": "0x316845f9a3d63f9e2da70c9eea0e24388172b2d6b42788d46c6e4b3d0af34fea",
            "status": true,
            "timestamp": "2020-04-01T11:25:04Z",
            "transactionFee": "0.0000610225079884",
            "txnHash": "0x316845f9a3d63f9e2da70c9eea0e24388172b2d6b42788d46c6e4b3d0af34fea",
            "txnIndex": 79,
            "type": 0,
            "value": "0"
        },
        "fund_flow": [
            {
                "amount": "115.714909",
                "from": "0x0dfecb5bf4b6bbdf038351c33344ab2dea851f44",
                "id": 1,
                "isERC1155": false,
                "isERC721": false,
                "isReverted": false,
                "order": 1,
                "to": "0xe62e6e6c3b808faad3a54b226379466544d76ea4",
                "token": "0xe62e6e6c3b808faad3a54b226379466544d76ea4"
            },
            {
                "amount": "347.144727",
                "from": "0xf408d6e9c8a41ddcab1381dfb22d16378ccb35b6",
                "id": 2,
                "isERC1155": false,
                "isERC721": false,
                "isReverted": false,
                "order": 2,
                "to": "0x5c8673229951e028c082d4a43c3de5734ba881a0",
                "token": "0xe62e6e6c3b808faad3a54b226379466544d76ea4"
            },
            {
                "amount": "52.071709",
                "from": "0xf408d6e9c8a41ddcab1381dfb22d16378ccb35b6",
                "id": 3,
                "isERC1155": false,
                "isERC721": false,
                "isReverted": false,
                "order": 3,
                "to": "0x2cfe02245796295ebefab41f4d6a00c75ce3a6fc",
                "token": "0xe62e6e6c3b808faad3a54b226379466544d76ea4"
            }
        ],
        "token_infos": [
            {
                "address": "0xc02aaa39b223fe8d0a0e5c4f27ead9083c756cc2",
                "decimals": 18
            },
            {
                "address": "0xe62e6e6c3b808faad3a54b226379466544d76ea4",
                "decimals": 6
            },
            {
                "address": "0xeeeeeeeeeeeeeeeeeeeeeeeeeeeeeeeeeeeeeeee",
                "decimals": 18
            }
        ]
    },
    "address_label": {
        "labels": [
            {
                "address": "0xeeeeeeeeeeeeeeeeeeeeeeeeeeeeeeeeeeeeeeee",
                "label": "Ether"
            },
            {
                "address": "0xe62e6e6c3b808faad3a54b226379466544d76ea4",
                "label": "Liberty Cash (LCS)"
            },
            {
                "address": "0x0000000000000000000000000000000000000001",
                "label": "Precompiled"
            },
            {
                "address": "0x0000000000000000000000000000000000000002",
                "label": "Precompiled"
            },
            {
                "address": "0x0000000000000000000000000000000000000003",
                "label": "Precompiled"
            },
            {
                "address": "0x0000000000000000000000000000000000000004",
                "label": "Precompiled"
            }
        ]
    },
    "trace": {
        "accountLabels": null,
        "dataMap": {
            "-1": {
                "invocation": {
                    "address": "0x0dfecb5bf4b6bbdf038351c33344ab2dea851f44",
                    "callData": "",
                    "decodedMethod": null,
                    "errorInfo": "",
                    "fromAddress": "",
                    "gasUsed": 0,
                    "id": -1,
                    "methodDecoded": false,
                    "operation": "",
                    "output": "",
                    "revert": false,
                    "revertMessage": "",
                    "selector": "",
                    "status": false,
                    "value": ""
                },
                "nodeType": 0
            },
            "0": {
                "invocation": {
                    "address": "0xe62e6e6c3b808faad3a54b226379466544d76ea4",
                    "callData": "0x000000000000000000000000e62e6e6c3b808faad3a54b226379466544d76ea40000000000000000000000000000000000000000000000000000000006e5ab5d",
                    "decodedMethod": {
                        "callParams": [
                            {
                                "name": "_to",
                                "type": "address",
                                "value": "0xe62e6e6c3b808faad3a54b226379466544d76ea4"
                            },
                            {
                                "decimalAvailable": true,
                                "name": "_value",
                                "type": "uint256",
                                "value": "115,714,909"
                            }
                        ],
                        "constructorArguments": "",
                        "name": "transfer",
                        "returnParams": [],
                        "signature": "transfer(address,uint256)"
                    },
                    "errorInfo": "",
                    "fromAddress": "0x0dfecb5bf4b6bbdf038351c33344ab2dea851f44",
                    "gasUsed": 55475,
                    "id": 0,
                    "methodDecoded": true,
                    "operation": "CALL",
                    "output": "",
                    "revert": false,
                    "revertMessage": "",
                    "selector": "0xa9059cbb",
                    "status": true,
                    "value": "0"
                },
                "nodeType": 0
            },
            "1": {
                "event": {
                    "contract": "0xe62e6e6c3b808faad3a54b226379466544d76ea4",
                    "decodedLog": {
                        "name": "Transfer",
                        "params": [
                            {
                                "name": "from",
                                "type": "address",
                                "value": "0x0dfecb5bf4b6bbdf038351c33344ab2dea851f44"
                            },
                            {
                                "name": "to",
                                "type": "address",
                                "value": "0xe62e6e6c3b808faad3a54b226379466544d76ea4"
                            },
                            {
                                "decimalAvailable": true,
                                "name": "value",
                                "type": "uint256",
                                "value": "115,714,909"
                            }
                        ],
                        "signature": "Transfer(address,address,uint256)"
                    },
                    "id": 1,
                    "logData": "0x0000000000000000000000000000000000000000000000000000000006e5ab5d",
                    "logDecoded": true,
                    "operation": "EVENT",
                    "revert": false,
                    "status": true,
                    "topics": [
                        "0xddf252ad1be2c89b69c2b068fc378daa952ba7f163c4a11628f55a4df523b3ef",
                        "0x0000000000000000000000000dfecb5bf4b6bbdf038351c33344ab2dea851f44",
                        "0x000000000000000000000000e62e6e6c3b808faad3a54b226379466544d76ea4"
                    ]
                },
                "nodeType": 1
            },
            "2": {
                "event": {
                    "contract": "0xe62e6e6c3b808faad3a54b226379466544d76ea4",
                    "decodedLog": {
                        "name": "Transfer",
                        "params": [
                            {
                                "name": "from",
                                "type": "address",
                                "value": "0xf408d6e9c8a41ddcab1381dfb22d16378ccb35b6"
                            },
                            {
                                "name": "to",
                                "type": "address",
                                "value": "0x5c8673229951e028c082d4a43c3de5734ba881a0"
                            },
                            {
                                "decimalAvailable": true,
                                "name": "value",
                                "type": "uint256",
                                "value": "347,144,727"
                            }
                        ],
                        "signature": "Transfer(address,address,uint256)"
                    },
                    "id": 2,
                    "logData": "0x0000000000000000000000000000000000000000000000000000000014b10217",
                    "logDecoded": true,
                    "operation": "EVENT",
                    "revert": false,
                    "status": true,
                    "topics": [
                        "0xddf252ad1be2c89b69c2b068fc378daa952ba7f163c4a11628f55a4df523b3ef",
                        "0x000000000000000000000000f408d6e9c8a41ddcab1381dfb22d16378ccb35b6",
                        "0x0000000000000000000000005c8673229951e028c082d4a43c3de5734ba881a0"
                    ]
                },
                "nodeType": 1
            },
            "3": {
                "event": {
                    "contract": "0xe62e6e6c3b808faad3a54b226379466544d76ea4",
                    "decodedLog": {
                        "name": "Transfer",
                        "params": [
                            {
                                "name": "from",
                                "type": "address",
                                "value": "0xf408d6e9c8a41ddcab1381dfb22d16378ccb35b6"
                            },
                            {
                                "name": "to",
                                "type": "address",
                                "value": "0x2cfe02245796295ebefab41f4d6a00c75ce3a6fc"
                            },
                            {
                                "decimalAvailable": true,
                                "name": "value",
                                "type": "uint256",
                                "value": "52,071,709"
                            }
                        ],
                        "signature": "Transfer(address,address,uint256)"
                    },
                    "id": 3,
                    "logData": "0x00000000000000000000000000000000000000000000000000000000031a8d1d",
                    "logDecoded": true,
                    "operation": "EVENT",
                    "revert": false,
                    "status": true,
                    "topics": [
                        "0xddf252ad1be2c89b69c2b068fc378daa952ba7f163c4a11628f55a4df523b3ef",
                        "0x000000000000000000000000f408d6e9c8a41ddcab1381dfb22d16378ccb35b6",
                        "0x0000000000000000000000002cfe02245796295ebefab41f4d6a00c75ce3a6fc"
                    ]
                },
                "nodeType": 1
            },
            "4": {
                "event": {
                    "contract": "0xe62e6e6c3b808faad3a54b226379466544d76ea4",
                    "decodedLog": {
                        "name": "Burn",
                        "params": [
                            {
                                "name": "from",
                                "type": "address",
                                "value": "0x0dfecb5bf4b6bbdf038351c33344ab2dea851f44"
                            },
                            {
                                "name": "value",
                                "type": "uint256",
                                "value": "115,714,909"
                            }
                        ],
                        "signature": "Burn(address,uint256)"
                    },
                    "id": 4,
                    "logData": "0x0000000000000000000000000000000000000000000000000000000006e5ab5d",
                    "logDecoded": true,
                    "operation": "EVENT",
                    "revert": false,
                    "status": true,
                    "topics": [
                        "0xcc16f5dbb4873280815c1ee09dbd06736cffcc184412cf7a71a0fdb75d397ca5",
                        "0x0000000000000000000000000dfecb5bf4b6bbdf038351c33344ab2dea851f44"
                    ]
                },
                "nodeType": 1
            }
        },
        "gasFlame": [
            {
                "children": [
                    {
                        "children": [
                            {
                                "children": [],
                                "depth": 0,
                                "name": "Initial Gas",
                                "value": 21608
                            },
                            {
                                "children": [],
                                "depth": 0,
                                "name": "Executed Gas",
                                "value": 48867
                            }
                        ],
                        "depth": -1,
                        "name": "Actual Gas Used",
                        "value": 55475
                    },
                    {
                        "children": [],
                        "depth": -1,
                        "name": "Refunded Gas",
                        "value": 15000
                    }
                ],
                "depth": -2,
                "name": "Total Gas",
                "value": 70475
            }
        ],
        "isConfirmed": true,
        "mainTrace": [
            {
                "children": [
                    {
                        "children": [
                            {
                                "children": [],
                                "depth": 1,
                                "id": 1,
                                "order": 1
                            },
                            {
                                "children": [],
                                "depth": 1,
                                "id": 2,
                                "order": 2
                            },
                            {
                                "children": [],
                                "depth": 1,
                                "id": 3,
                                "order": 3
                            },
                            {
                                "children": [],
                                "depth": 1,
                                "id": 4,
                                "order": 4
                            }
                        ],
                        "depth": 0,
                        "id": 0,
                        "order": 0
                    }
                ],
                "depth": -1,
                "id": -1,
                "order": -1
            }
        ],
        "mainTraceNodeCount": 5,
        "parentIdMap": {
            "0": -1,
            "1": 0,
            "2": 0,
            "3": 0,
            "4": 0
        },
        "tidyTrace": [
            {
                "children": [
                    {
                        "children": [
                            {
                                "children": [],
                                "depth": 1,
                                "id": 1,
                                "order": 1
                            },
                            {
                                "children": [],
                                "depth": 1,
                                "id": 2,
                                "order": 2
                            },
                            {
                                "children": [],
                                "depth": 1,
                                "id": 3,
                                "order": 3
                            },
                            {
                                "children": [],
                                "depth": 1,
                                "id": 4,
                                "order": 4
                            }
                        ],
                        "depth": 0,
                        "id": 0,
                        "order": 0
                    }
                ],
                "depth": -1,
                "id": -1,
                "order": -1
            }
        ],
        "tidyTraceNodeCount": 5
    },
    "state_change": {
        "stateChanges": [
            {
                "address": "0xe62e6e6c3b808faad3a54b226379466544d76ea4",
                "erc": "",
                "slots": [
                    {
                        "current": "0x000000000000000000000000000000000000000000000000000038e6eb519249",
                        "key": "0x847d3a1da2b250095cbd5b315c4b3404a970b95c060f519d4d31f174f42074e3",
                        "prev": "0x000000000000000000000000000000000000000000000000000038e6e837052c"
                    },
                    {
                        "current": "0x0000000000000000000000000000000000000000000000000008240f91ba81a7",
                        "key": "0xe2f4b0d082d260cc79ab9450ab896d8575a616c77910598cc14202aafb0b3674",
                        "prev": "0x0000000000000000000000000000000000000000000000000008240fa98610db"
                    },
                    {
                        "current": "0x0000000000000000000000000000000000000000000000000000000000000000",
                        "key": "0x339005fb1118949f7a3c989188ad967fb786c5cc81dda111d39efd2b5e0f1331",
                        "prev": "0x0000000000000000000000000000000000000000000000000000000006e5ab5d"
                    },
                    {
                        "current": "0x0000000000000000000000000000000000000000000000000001c3c46960d116",
                        "key": "0x1cd7e49cb86f51accfc37a782cca2696e643fc85653aade11a01736c8dbd5f2e",
                        "prev": "0x0000000000000000000000000000000000000000000000000001c3c454afceff"
                    }
                ],
                "storageVariables": [
                    {
                        "name": "balanceOf",
                        "type": "mapping(address => uint256)",
                        "value": {
                            "pairs": [
                                {
                                    "key": "0x0dfecb5bf4b6bbdf038351c33344ab2dea851f44",
                                    "value": {
                                        "current": "0",
                                        "prev": "115714909",
                                        "typeTag": 1
                                    }
                                },
                                {
                                    "key": "0x2cfe02245796295ebefab41f4d6a00c75ce3a6fc",
                                    "value": {
                                        "current": "62564441625161",
                                        "prev": "62564389553452",
                                        "typeTag": 1
                                    }
                                },
                                {
                                    "key": "0x5c8673229951e028c082d4a43c3de5734ba881a0",
                                    "value": {
                                        "current": "496723325669654",
                                        "prev": "496722978524927",
                                        "typeTag": 1
                                    }
                                },
                                {
                                    "key": "0xf408d6e9c8a41ddcab1381dfb22d16378ccb35b6",
                                    "value": {
                                        "current": "2291449101713831",
                                        "prev": "2291449500930267",
                                        "typeTag": 1
                                    }
                                }
                            ],
                            "typeTag": 4
                        }
                    }
                ]
            }
        ]
    }
}