{
    "balance_change": {
        "balanceChanges": [
            {
                "account": "0xd702b5fcf1caf80bfb0405308607f9b0c309e0ba",
                "assets": [
                    {
                        "address": "0xeeeeeeeeeeeeeeeeeeeeeeeeeeeeeeeeeeeeeeee",
                        "amount": "0.00622916666666667",
                        "iconUrl": "https://assets.blocksec.com/image/1663669189317-3.png",
                        "isERC1155": false,
                        "isERC721": false,
                        "sign": false,
                        "value": "22.925879537580969138"
                    },
                    {
                        "address": "0x990f341946a3fdb507ae7e52d17851b87168017c",
                        "amount": "10",
                        "iconUrl": "",
                        "isERC1155": false,
                        "isERC721": false,
                        "sign": false,
                        "value": "4123.060594"
                    }
                ]
            },
            {
                "account": "0x4b5057b2c87ec9e7c047fb00c0e406dff2fdacad",
                "assets": [
                    {
                        "address": "0xeeeeeeeeeeeeeeeeeeeeeeeeeeeeeeeeeeeeeeee",
                        "amount": "0.00622916666666667",
                        "iconUrl": "https://assets.blocksec.com/image/1663669189317-3.png",
                        "isERC1155": false,
                        "isERC721": false,
                        "sign": true,
                        "value": "22.925879537580969138"
                    },
                    {
                        "address": "0x990f341946a3fdb507ae7e52d17851b87168017c",
                        "amount": "10",
                        "iconUrl": "",
                        "isERC1155": false,
                        "isERC721": false,
                        "sign": true,
                        "value": "4123.060594"
                    }
                ]
            }
        ]
    },
    "profile": {
        "basic_info": {
            "baseFee": "96.400835293",
            "blockNumber": 14068651,
            "callData": "0x05eec2890000000000000000000000000000000000000000000000000000000000000001",
            "debugEnable": true,
            "errorInfo": "",
            "eventCount": 4,
            "feeRecipient": "0xea674fdde714fd979de3edf0f56aa9716b898ec8",
            "formatValue": "0.00622916666666667",
            "gasLimit": 148832,
            "gasPrice": "97.495508082",
            "gasUsed": 144192,
            "intTxnCount": 4,
            "internalRevert": false,
            "internalRevertMessage": "",
            "isContractCreation": false,
            "isFlashloan": false,
            "maxFee": "97.495508082",
            "nonce": 124,
            "overwritedBlockNumber": -1,
            "priorityFee": "97.495508082",
            "receiver": "0xfbddadd80fe7bda00b901fbaf73803f2238ae655",
            "revertMessage": "",
            "sender": "0xd702b5fcf1caf80bfb0405308607f9b0c309e0ba",
            "simulationEnable": true,
            "sourceTxnHash": "0x32460e1cca2de7e3191ddaaa931f92e79037c86bc1d64fd9a7f620ec446beba5",
            "status": true,
            "timestamp": "2022-01-24T13:43:41Z",
            "transactionFee": "0.014058072301359744",
            "txnHash": "0x32460e1cca2de7e3191ddaaa931f92e79037c86bc1d64fd9a7f620ec446beba5",
            "txnIndex": 53,
            "type": 2,
            "value": "6229166666666670"
        },
        "fund_flow": [
            {
                "amount": "0.00622916666666667",
                "from": "0xd702b5fcf1caf80bfb0405308607f9b0c309e0ba",
                "id": 1,
                "isERC1155": false,
                "isERC721": false,
                "isReverted": false,
                "order": 1,
                "to": "0xfbddadd80fe7bda00b901fbaf73803f2238ae655",
                "token": "0xeeeeeeeeeeeeeeeeeeeeeeeeeeeeeeeeeeeeeeee"
            },
            {
                "amount": "0.00622916666666667",
                "from": "0xfbddadd80fe7bda00b901fbaf73803f2238ae655",
                "id": 2,
                "isERC1155": false,
                "isERC721": false,
                "isReverted": false,
                "order": 2,
                "to": "0x4b5057b2c87ec9e7c047fb00c0e406dff2fdacad",
                "token": "0xeeeeeeeeeeeeeeeeeeeeeeeeeeeeeeeeeeeeeeee"
            },
            {
                "amount": "10",
                "from": "0xd702b5fcf1caf80bfb0405308607f9b0c309e0ba",
                "id": 3,
                "isERC1155": false,
                "isERC721": false,
                "isReverted": false,
                "order": 3,
                "to": "0xfbddadd80fe7bda00b901fbaf73803f2238ae655",
                "token": "0x990f341946a3fdb507ae7e52d17851b87168017c"
            },
            {
                "amount": "10",
                "from": "0xfbddadd80fe7bda00b901fbaf73803f2238ae655",
                "id": 4,
                "isERC1155": false,
                "isERC721": false,
                "isReverted": false,
                "order": 4,
                "to": "0x4b5057b2c87ec9e7c047fb00c0e406dff2fdacad",
                "token": "0x990f341946a3fdb507ae7e52d17851b87168017c"
            }
        ],
        "token_infos": [
            {
                "address": "0x990f341946a3fdb507ae7e52d17851b87168017c",
                "decimals": 18
            },
            {
                "address": "0xc02aaa39b223fe8d0a0e5c4f27ead9083c756cc2",
                "decimals": 18
            },
            {
                "address": "0xeeeeeeeeeeeeeeeeeeeeeeeeeeeeeeeeeeeeeeee",
                "decimals": 18
            }
        ]
    },
    "address_label": {
        "labels": [
            {
                "address": "0x0000000000000000000000000000000000000004",
                "label": "Precompiled"
            },
            {
                "address": "0xeeeeeeeeeeeeeeeeeeeeeeeeeeeeeeeeeeeeeeee",
                "label": "Ether"
            },
            {
                "address": "0x990f341946a3fdb507ae7e52d17851b87168017c",
                "label": "StrongBlock: STRONG Token"
            },
            {
                "address": "0x4161d3e2024d9773c18ef63e2d93d1d752c0486b",
                "label": "ServiceV18"
            },
            {
                "address": "0xfbddadd80fe7bda00b901fbaf73803f2238ae655",
                "label": "StrongBlock: Service"
            },
            {
                "address": "0x0000000000000000000000000000000000000001",
                "label": "Precompiled"
            },
            {
                "address": "0x0000000000000000000000000000000000000002",
                "label": "Precompiled"
            },
            {
                "address": "0x0000000000000000000000000000000000000003",
                "label": "Precompiled"
            }
        ]
    },
    "trace": {
        "accountLabels": null,
        "dataMap": {
            "-1": {
                "invocation": {
                    "address": "0xd702b5fcf1caf80bfb0405308607f9b0c309e0ba",
                    "callData": "",
                    "decodedMethod": null,
                    "errorInfo": "",
                    "fromAddress": "",
                    "gasUsed": 0,
                    "id": -1,
                    "methodDecoded": false,
                    "operation": "",
                    "output": "",
                    "revert": false,
                    "revertMessage": "",
                    "selector": "",
                    "status": false,
                    "value": ""
                },
                "nodeType": 0
            },
            "0": {
                "invocation": {
                    "address": "0xfbddadd80fe7bda00b901fbaf73803f2238ae655",
                    "callData": "0x0000000000000000000000000000000000000000000000000000000000000001",
                    "decodedMethod": {
                        "callParams": [
                            {
                                "name": "isNaaS",
                                "type": "bool",
                                "value": true
                            }
                        ],
                        "constructorArguments": "",
                        "name": "requestAccess",
                        "returnParams": [],
                        "signature": "requestAccess(bool)"
                    },
                    "errorInfo": "",
                    "fromAddress": "0xd702b5fcf1caf80bfb0405308607f9b0c309e0ba",
                    "gasUsed": 144192,
                    "id": 0,
                    "methodDecoded": true,
                    "operation": "CALL",
                    "output": "",
                    "revert": false,
                    "revertMessage": "",
                    "selector": "0x05eec289",
                    "status": true,
                    "value": "0.00622916666666667"
                },
                "nodeType": 0
            },
            "1": {
                "invocation": {
                    "address": "0x4161d3e2024d9773c18ef63e2d93d1d752c0486b",
                    "callData": "0x0000000000000000000000000000000000000000000000000000000000000001",
                    "decodedMethod": {
                        "callParams": [
                            {
                                "name": "isNaaS",
                                "type": "bool",
                                "value": true
                            }
                        ],
                        "constructorArguments": "",
                        "name": "requestAccess",
                        "returnParams": [],
                        "signature": "requestAccess(bool)"
                    },
                    "errorInfo": "",
                    "fromAddress": "0xfbddadd80fe7bda00b901fbaf73803f2238ae655",
                    "gasUsed": 118515,
                    "id": 1,
                    "methodDecoded": true,
                    "operation": "DELEGATECALL",
                    "output": "",
                    "revert": false,
                    "revertMessage": "",
                    "selector": "0x05eec289",
                    "status": true,
                    "value": "0.00622916666666667"
                },
                "nodeType": 0
            },
            "2": {
                "invocation": {
                    "address": "0x4b5057b2c87ec9e7c047fb00c0e406dff2fdacad",
                    "callData": "0x",
                    "decodedMethod": null,
                    "errorInfo": "",
                    "fromAddress": "0xfbddadd80fe7bda00b901fbaf73803f2238ae655",
                    "gasUsed": 0,
                    "id": 2,
                    "methodDecoded": false,
                    "operation": "CALL",
                    "output": "",
                    "revert": false,
                    "revertMessage": "",
                    "selector": "fallback",
                    "status": true,
                    "value": "0.00622916666666667"
                },
                "nodeType": 0
            },
            "3": {
                "invocation": {
                    "address": "0x990f341946a3fdb507ae7e52d17851b87168017c",
                    "callData": "0x000000000000000000000000d702b5fcf1caf80bfb0405308607f9b0c309e0ba000000000000000000000000fbddadd80fe7bda00b901fbaf73803f2238ae6550000000000000000000000000000000000000000000000008ac7230489e80000",
                    "decodedMethod": {
                        "callParams": [
                            {
                                "name": "sender",
                                "type": "address",
                                "value": "0xd702b5fcf1caf80bfb0405308607f9b0c309e0ba"
                            },
                            {
                                "name": "recipient",
                                "type": "address",
                                "value": "0xfbddadd80fe7bda00b901fbaf73803f2238ae655"
                            },
                            {
                                "decimalAvailable": true,
                                "name": "amount",
                                "type": "uint256",
                                "value": "10,000,000,000,000,000,000"
                            }
                        ],
                        "constructorArguments": "",
                        "name": "transferFrom",
                        "returnParams": [
                            {
                                "name": "",
                                "type": "bool",
                                "value": true
                            }
                        ],
                        "signature": "transferFrom(address,address,uint256)"
                    },
                    "errorInfo": "",
                    "fromAddress": "0xfbddadd80fe7bda00b901fbaf73803f2238ae655",
                    "gasUsed": 20682,
                    "id": 3,
                    "methodDecoded": true,
                    "operation": "CALL",
                    "output": "0x0000000000000000000000000000000000000000000000000000000000000001",
                    "revert": false,
                    "revertMessage": "",
                    "selector": "0x23b872dd",
                    "status": true,
                    "value": "0"
                },
                "nodeType": 0
            },
            "4": {
                "event": {
                    "contract": "0x990f341946a3fdb507ae7e52d17851b87168017c",
                    "decodedLog": {
                        "name": "Transfer",
                        "params": [
                            {
                                "name": "from",
                                "type": "address",
                                "value": "0xd702b5fcf1caf80bfb0405308607f9b0c309e0ba"
                            },
                            {
                                "name": "to",
                                "type": "address",
                                "value": "0xfbddadd80fe7bda00b901fbaf73803f2238ae655"
                            },
                            {
                                "decimalAvailable": true,
                                "name": "value",
                                "type": "uint256",
                                "value": "10,000,000,000,000,000,000"
                            }
                        ],
                        "signature": "Transfer(address,address,uint256)"
                    },
                    "id": 4,
                    "logData": "0x0000000000000000000000000000000000000000000000008ac7230489e80000",
                    "logDecoded": true,
                    "operation": "EVENT",
                    "revert": false,
                    "status": true,
                    "topics": [
                        "0xddf252ad1be2c89b69c2b068fc378daa952ba7f163c4a11628f55a4df523b3ef",
                        "0x000000000000000000000000d702b5fcf1caf80bfb0405308607f9b0c309e0ba",
                        "0x000000000000000000000000fbddadd80fe7bda00b901fbaf73803f2238ae655"
                    ]
                },
                "nodeType": 1
            },
            "5": {
                "event": {
                    "contract": "0x990f341946a3fdb507ae7e52d17851b87168017c",
                    "decodedLog": {
                        "name": "Approval",
                        "params": [
                            {
                                "name": "owner",
                                "type": "address",
                                "value": "0xd702b5fcf1caf80bfb0405308607f9b0c309e0ba"
                            },
                            {
                                "name": "spender",
                                "type": "address",
                                "value": "0xfbddadd80fe7bda00b901fbaf73803f2238ae655"
                            },
                            {
                                "decimalAvailable": true,
                                "name": "value",
                                "type": "uint256",
                                "value": "115,792,089,237,316,195,423,570,985,008,687,907,853,269,984,665,640,564,039,027,584,007,913,129,639,935"
                            }
                        ],
                        "signature": "Approval(address,address,uint256)"
                    },
                    "id": 5,
                    "logData": "0xffffffffffffffffffffffffffffffffffffffffffffffe8b08d1e3cd607ffff",
                    "logDecoded": true,
                    "operation": "EVENT",
                    "revert": false,
                    "status": true,
                    "topics": [
                        "0x8c5be1e5ebec7d5bd14f71427d1e84f3dd0314c0f7b2291e5b200ac8c7c3b925",
                        "0x000000000000000000000000d702b5fcf1caf80bfb0405308607f9b0c309e0ba",
                        "0x000000000000000000000000fbddadd80fe7bda00b901fbaf73803f2238ae655"
                    ]
                },
                "nodeType": 1
            },
            "6": {
                "invocation": {
                    "address": "0x990f341946a3fdb507ae7e52d17851b87168017c",
                    "callData": "0x0000000000000000000000004b5057b2c87ec9e7c047fb00c0e406dff2fdacad0000000000000000000000000000000000000000000000008ac7230489e80000",
                    "decodedMethod": {
                        "callParams": [
                            {
                                "name": "recipient",
                                "type": "address",
                                "value": "0x4b5057b2c87ec9e7c047fb00c0e406dff2fdacad"
                            },
                            {
                                "decimalAvailable": true,
                                "name": "amount",
                                "type": "uint256",
                                "value": "10,000,000,000,000,000,000"
                            }
                        ],
                        "constructorArguments": "",
                        "name": "transfer",
                        "returnParams": [
                            {
                                "name": "",
                                "type": "bool",
                                "value": true
                            }
                        ],
                        "signature": "transfer(address,uint256)"
                    },
                    "errorInfo": "",
                    "fromAddress": "0xfbddadd80fe7bda00b901fbaf73803f2238ae655",
                    "gasUsed": 8329,
                    "id": 6,
                    "methodDecoded": true,
                    "operation": "CALL",
                    "output": "0x0000000000000000000000000000000000000000000000000000000000000001",
                    "revert": false,
                    "revertMessage": "",
                    "selector": "0xa9059cbb",
                    "status": true,
                    "value": "0"
                },
                "nodeType": 0
            },
            "7": {
                "event": {
                    "contract": "0x990f341946a3fdb507ae7e52d17851b87168017c",
                    "decodedLog": {
                        "name": "Transfer",
                        "params": [
                            {
                                "name": "from",
                                "type": "address",
                                "value": "0xfbddadd80fe7bda00b901fbaf73803f2238ae655"
                            },
                            {
                                "name": "to",
                                "type": "address",
                                "value": "0x4b5057b2c87ec9e7c047fb00c0e406dff2fdacad"
                            },
                            {
                                "decimalAvailable": true,
                                "name": "value",
                                "type": "uint256",
                                "value": "10,000,000,000,000,000,000"
                            }
                        ],
                        "signature": "Transfer(address,address,uint256)"
                    },
                    "id": 7,
                    "logData": "0x0000000000000000000000000000000000000000000000008ac7230489e80000",
                    "logDecoded": true,
                    "operation": "EVENT",
                    "revert": false,
                    "status": true,
                    "topics": [
                        "0xddf252ad1be2c89b69c2b068fc378daa952ba7f163c4a11628f55a4df523b3ef",
                        "0x000000000000000000000000fbddadd80fe7bda00b901fbaf73803f2238ae655",
                        "0x0000000000000000000000004b5057b2c87ec9e7c047fb00c0e406dff2fdacad"
                    ]
                },
                "nodeType": 1
            },
            "8": {
                "event": {
                    "contract": "0xfbddadd80fe7bda00b901fbaf73803f2238ae655",
                    "decodedLog": {
                        "name": "Paid",
                        "params": [
                            {
                                "name": "entity",
                                "type": "address",
                                "value": "0xd702b5fcf1caf80bfb0405308607f9b0c309e0ba"
                            },
                            {
                                "name": "nodeId",
                                "type": "uint128",
                                "value": "43"
                            },
                            {
                                "name": "isBYON",
                                "type": "bool",
                                "value": false
                            },
                            {
                                "name": "isRenewal",
                                "type": "bool",
                                "value": false
                            },
                            {
                                "name": "upToBlockNumber",
                                "type": "uint256",
                                "value": "14,266,699"
                            }
                        ],
                        "signature": "Paid(address,uint128,bool,bool,uint256)"
                    },
                    "id": 8,
                    "logData": "0x000000000000000000000000000000000000000000000000000000000000002b000000000000000000000000000000000000000000000000000000000000000000000000000000000000000000000000000000000000000000000000000000000000000000000000000000000000000000000000000000000000000000d9b14b",
                    "logDecoded": true,
                    "operation": "EVENT",
                    "revert": false,
                    "status": true,
                    "topics": [
                        "0x39b0a0620bb668047ab7248973ddfd93d53dff1d4952bd2d56bbf5934edc1fd0",
                        "0x000000000000000000000000d702b5fcf1caf80bfb0405308607f9b0c309e0ba"
                    ]
                },
                "nodeType": 1
            }
        },
        "gasFlame": [
            {
                "children": [
                    {
                        "children": [
                            {
                                "children": [],
                                "depth": 0,
                                "name": "Initial Gas",
                                "value": 21204
                            },
                            {
                                "children": [
                                    {
                                        "children": [
                                            {
                                                "children": [],
                                                "depth": 2,
                                                "name": "fallback",
                                                "value": 0
                                            },
                                            {
                                                "children": [],
                                                "depth": 2,
                                                "name": "transferFrom",
                                                "value": 20682
                                            },
                                            {
                                                "children": [],
                                                "depth": 2,
                                                "name": "transfer",
                                                "value": 8329
                                            }
                                        ],
                                        "depth": 1,
                                        "name": "requestAccess",
                                        "value": 118515
                                    }
                                ],
                                "depth": 0,
                                "name": "Executed Gas",
                                "value": 125788
                            }
                        ],
                        "depth": -1,
                        "name": "Actual Gas Used",
                        "value": 144192
                    },
                    {
                        "children": [],
                        "depth": -1,
                        "name": "Refunded Gas",
                        "value": 2800
                    }
                ],
                "depth": -2,
                "name": "Total Gas",
                "value": 146992
            }
        ],
        "isConfirmed": true,
        "mainTrace": [
            {
                "children": [
                    {
                        "children": [
                            {
                                "children": [
                                    {
                                        "children": [],
                                        "depth": 2,
                                        "id": 2,
                                        "order": 2
                                    },
                                    {
                                        "children": [
                                            {
                                                "children": [],
                                                "depth": 3,
                                                "id": 4,
                                                "order": 4
                                            },
                                            {
                                                "children": [],
                                                "depth": 3,
                                                "id": 5,
                                                "order": 5
                                            }
                                        ],
                                        "depth": 2,
                                        "id": 3,
                                        "order": 3
                                    },
                                    {
                                        "children": [
                                            {
                                                "children": [],
                                                "depth": 3,
                                                "id": 7,
                                                "order": 7
                                            }
                                        ],
                                        "depth": 2,
                                        "id": 6,
                                        "order": 6
                                    },
                                    {
                                        "children": [],
                                        "depth": 2,
                                        "id": 8,
                                        "order": 8
                                    }
                                ],
                                "depth": 1,
                                "id": 1,
                                "order": 1
                            }
                        ],
                        "depth": 0,
                        "id": 0,
                        "order": 0
                    }
                ],
                "depth": -1,
                "id": -1,
                "order": -1
            }
        ],
        "mainTraceNodeCount": 9,
        "parentIdMap": {
            "0": -1,
            "1": 0,
            "2": 1,
            "3": 1,
            "4": 3,
            "5": 3,
            "6": 1,
            "7": 6,
            "8": 1
        },
        "tidyTrace": [
            {
                "children": [
                    {
                        "children": [
                            {
                                "children": [
                                    {
                                        "children": [],
                                        "depth": 2,
                                        "id": 2,
                                        "order": 2
                                    },
                                    {
                                        "children": [
                                            {
                                                "children": [],
                                                "depth": 3,
                                                "id": 4,
                                                "order": 4
                                            },
                                            {
                                                "children": [],
                                                "depth": 3,
                                                "id": 5,
                                                "order": 5
                                            }
                                        ],
                                        "depth": 2,
                                        "id": 3,
                                        "order": 3
                                    },
                                    {
                                        "children": [
                                            {
                                                "children": [],
                                                "depth": 3,
                                                "id": 7,
                                                "order": 7
                                            }
                                        ],
                                        "depth": 2,
                                        "id": 6,
                                        "order": 6
                                    },
                                    {
                                        "children": [],
                                        "depth": 2,
                                        "id": 8,
                                        "order": 8
                                    }
                                ],
                                "depth": 1,
                                "id": 1,
                                "order": 1
                            }
                        ],
                        "depth": 0,
                        "id": 0,
                        "order": 0
                    }
                ],
                "depth": -1,
                "id": -1,
                "order": -1
            }
        ],
        "tidyTraceNodeCount": 9
    },
    "state_change": {
        "stateChanges": [
            {
                "address": "0x990f341946a3fdb507ae7e52d17851b87168017c",
                "erc": "ERC-20",
                "slots": [
                    {
                        "current": "0x0000000000000000000000000000000000000000000000001425bbefb2b40557",
                        "key": "0x396608e2e99b015cb08a51c2b2a5b1eb5a88017a3bfd6e220a68645fcc54ea4a",
                        "prev": "0x0000000000000000000000000000000000000000000000009eecdef43c9c0557"
                    },
                    {
                        "current": "0xffffffffffffffffffffffffffffffffffffffffffffffe8b08d1e3cd607ffff",
                        "key": "0x7704347d34807268dcf266ebe0260cd433059786b4b92f744a4d8a8bdee66f9f",
                        "prev": "0xffffffffffffffffffffffffffffffffffffffffffffffe93b5441415fefffff"
                    },
                    {
                        "current": "0x0000000000000000000000000000000000000000000002a8e103ce449a400000",
                        "key": "0x22f3bb6e20228ff9506aa44e728a5be8a0649cc4d1d1527f930e3f6e6229c633",
                        "prev": "0x0000000000000000000000000000000000000000000002a8563cab4010580000"
                    }
                ],
                "storageVariables": [
                    {
                        "name": "_allowances",
                        "type": "mapping(address => mapping(address => uint256))",
                        "value": {
                            "pairs": [
                                {
                                    "key": "0xd702b5fcf1caf80bfb0405308607f9b0c309e0ba",
                                    "value": {
                                        "pairs": [
                                            {
                                                "key": "0xfbddadd80fe7bda00b901fbaf73803f2238ae655",
                                                "value": {
                                                    "current": "115792089237316195423570985008687907853269984665640564039027584007913129639935",
                                                    "prev": "115792089237316195423570985008687907853269984665640564039037584007913129639935",
                                                    "typeTag": 1
                                                }
                                            }
                                        ],
                                        "typeTag": 4
                                    }
                                }
                            ],
                            "typeTag": 4
                        }
                    },
                    {
                        "name": "_balances",
                        "type": "mapping(address => uint256)",
                        "value": {
                            "pairs": [
                                {
                                    "key": "0x4b5057b2c87ec9e7c047fb00c0e406dff2fdacad",
                                    "value": {
                                        "current": "12560000000000000000000",
                                        "prev": "12550000000000000000000",
                                        "typeTag": 1
                                    }
                                },
                                {
                                    "key": "0xd702b5fcf1caf80bfb0405308607f9b0c309e0ba",
                                    "value": {
                                        "current": "1451773093066573143",
                                        "prev": "11451773093066573143",
                                        "typeTag": 1
                                    }
                                }
                            ],
                            "typeTag": 4
                        }
                    }
                ]
            },
            {
                "address": "0xfbddadd80fe7bda00b901fbaf73803f2238ae655",
                "erc": "",
                "slots": [
                    {
                        "current": "0x000000000000000000000000000000000000000000000000000000000003cc4a",
                        "key": "0x000000000000000000000000000000000000000000000000000000000000001c",
                        "prev": "0x000000000000000000000000000000000000000000000000000000000003cc49"
                    },
                    {
                        "current": "0x0000000000000000000000000000000000000000000000000000000000d6abab",
                        "key": "0xe6b256275bc14606444ef1618c9fa44a800107dde2ead12cbe2f9ef6d08be04d",
                        "prev": "0x0000000000000000000000000000000000000000000000000000000000000000"
                    },
                    {
                        "current": "0x0000000000000000000000000000000000000000000000000000000000d6abab",
                        "key": "0xc2f21ce9e94296a7db33dd004dfe3b79544a882089d5e2d67cc69009bfd304e5",
                        "prev": "0x0000000000000000000000000000000000000000000000000000000000000000"
                    },
                    {
                        "current": "0x000000000000000000000000000000000000000000000000000000000000002b",
                        "key": "0x3b97bce7bd0382db776af19a13bd327d5f083f0cf2bc6bb137f81a48d986f854",
                        "prev": "0x000000000000000000000000000000000000000000000000000000000000002a"
                    }
                ],
                "storageVariables": [
                    {
                        "name": "entityNodeCount",
                        "type": "mapping(address => uint128)",
                        "value": {
                            "pairs": [
                                {
                                    "key": "0xd702b5fcf1caf80bfb0405308607f9b0c309e0ba",
                                    "value": {
                                        "current": "43",
                                        "prev": "42",
                                        "typeTag": 1
                                    }
                                }
                            ],
                            "typeTag": 4
                        }
                    },
                    {
                        "name": "activeEntities",
                        "type": "uint256",
                        "value": {
                            "current": "248906",
                            "prev": "248905",
                            "typeTag": 1
                        }
                    },
                    {
                        "name": "entityNodePaidOnBlock",
                        "type": "mapping(bytes => uint256)",
                        "value": {
                            "pairs": [
                                {
                                    "key": "0xd702b5fcf1caf80bfb0405308607f9b0c309e0ba0000000000000000000000000000002b",
                                    "value": {
                                        "current": "14068651",
                                        "prev": "0",
                                        "typeTag": 1
                                    }
                                }
                            ],
                            "typeTag": 4
                        }
                    },
                    {
                        "name": "entityNodeClaimedOnBlock",
                        "type": "mapping(bytes => uint256)",
                        "value": {
                            "pairs": [
                                {
                                    "key": "0xd702b5fcf1caf80bfb0405308607f9b0c309e0ba0000000000000000000000000000002b",
                                    "value": {
                                        "current": "14068651",
                                        "prev": "0",
                                        "typeTag": 1
                                    }
                                }
                            ],
                            "typeTag": 4
                        }
                    }
                ]
            }
        ]
    }
}