{
    "balance_change": {
        "balanceChanges": [
            {
                "account": "0xbda40fb36d4032f2b0541d001625e8b5ba9a83ea",
                "assets": [
                    {
                        "address": "0x7c5a0ce9267ed19b22f8cae653f198e3e8daf098",
                        "amount": "7,000",
                        "iconUrl": "https://assets.blocksec.com/icon/dfbdf7bf2a4ddd9df5d2986ca162c6012710eec1ee534a0e94f5f9e2fc880aef.png",
                        "isERC1155": false,
                        "isERC721": false,
                        "sign": false,
                        "value": ""
                    }
                ]
            },
            {
                "account": "0xc448e8c8fff4c14aeb1c57a75011b9e3aca46403",
                "assets": [
                    {
                        "address": "0x7c5a0ce9267ed19b22f8cae653f198e3e8daf098",
                        "amount": "7,000",
                        "iconUrl": "https://assets.blocksec.com/icon/dfbdf7bf2a4ddd9df5d2986ca162c6012710eec1ee534a0e94f5f9e2fc880aef.png",
                        "isERC1155": false,
                        "isERC721": false,
                        "sign": true,
                        "value": ""
                    }
                ]
            }
        ]
    },
    "profile": {
        "basic_info": {
            "baseFee": "",
            "blockNumber": 4029540,
            "callData": "0xa9059cbb000000000000000000000000c448e8c8fff4c14aeb1c57a75011b9e3aca4640300000000000000000000000000000000000000000000017b7883c06916600000",
            "debugEnable": true,
            "errorInfo": "",
            "eventCount": 1,
            "feeRecipient": "0x829bd824b016326a401d083b33d092293333a830",
            "formatValue": "0",
            "gasLimit": 52571,
            "gasPrice": "37",
            "gasUsed": 52571,
            "intTxnCount": 0,
            "internalRevert": false,
            "internalRevertMessage": "",
            "isContractCreation": false,
            "isFlashloan": false,
            "maxFee": "",
            "nonce": 78,
            "overwritedBlockNumber": -1,
            "priorityFee": "",
            "receiver": "0x7c5a0ce9267ed19b22f8cae653f198e3e8daf098",
            "revertMessage": "",
            "sender": "0xbda40fb36d4032f2b0541d001625e8b5ba9a83ea",
            "simulationEnable": true,
            "sourceTxnHash": "0x32ad344dd26d9a1f5c3dc687eaebcec61bfc1bf6cf533349c81aa1f21e7de69b",
            "status": true,
            "timestamp": "2017-07-16T08:58:06Z",
            "transactionFee": "0.001945127",
            "txnHash": "0x32ad344dd26d9a1f5c3dc687eaebcec61bfc1bf6cf533349c81aa1f21e7de69b",
            "txnIndex": 20,
            "type": 0,
            "value": "0"
        },
        "fund_flow": [
            {
                "amount": "7,000",
                "from": "0xbda40fb36d4032f2b0541d001625e8b5ba9a83ea",
                "id": 1,
                "isERC1155": false,
                "isERC721": false,
                "isReverted": false,
                "order": 1,
                "to": "0xc448e8c8fff4c14aeb1c57a75011b9e3aca46403",
                "token": "0x7c5a0ce9267ed19b22f8cae653f198e3e8daf098"
            }
        ],
        "token_infos": [
            {
                "address": "0x7c5a0ce9267ed19b22f8cae653f198e3e8daf098",
                "decimals": 18
            },
            {
                "address": "0xc02aaa39b223fe8d0a0e5c4f27ead9083c756cc2",
                "decimals": 18
            },
            {
                "address": "0xeeeeeeeeeeeeeeeeeeeeeeeeeeeeeeeeeeeeeeee",
                "decimals": 18
            }
        ]
    },
    "address_label": {
        "labels": [
            {
                "address": "0x0000000000000000000000000000000000000003",
                "label": "Precompiled"
            },
            {
                "address": "0x0000000000000000000000000000000000000004",
                "label": "Precompiled"
            },
            {
                "address": "0xeeeeeeeeeeeeeeeeeeeeeeeeeeeeeeeeeeeeeeee",
                "label": "Ether"
            },
            {
                "address": "0x7c5a0ce9267ed19b22f8cae653f198e3e8daf098",
                "label": "Santiment Token"
            },
            {
                "address": "0x0000000000000000000000000000000000000001",
                "label": "Precompiled"
            },
            {
                "address": "0x0000000000000000000000000000000000000002",
                "label": "Precompiled"
            }
        ]
    },
    "trace": {
        "accountLabels": null,
        "dataMap": {
            "-1": {
                "invocation": {
                    "address": "0xbda40fb36d4032f2b0541d001625e8b5ba9a83ea",
                    "callData": "",
                    "decodedMethod": null,
                    "errorInfo": "",
                    "fromAddress": "",
                    "gasUsed": 0,
                    "id": -1,
                    "methodDecoded": false,
                    "operation": "",
                    "output": "",
                    "revert": false,
                    "revertMessage": "",
                    "selector": "",
                    "status": false,
                    "value": ""
                },
                "nodeType": 0
            },
            "0": {
                "invocation": {
                    "address": "0x7c5a0ce9267ed19b22f8cae653f198e3e8daf098",
                    "callData": "0x000000000000000000000000c448e8c8fff4c14aeb1c57a75011b9e3aca4640300000000000000000000000000000000000000000000017b7883c06916600000",
                    "decodedMethod": {
                        "callParams": [
                            {
                                "name": "_to",
                                "type": "address",
                                "value": "0xc448e8c8fff4c14aeb1c57a75011b9e3aca46403"
                            },
                            {
                                "decimalAvailable": true,
                                "name": "_value",
                                "type": "uint256",
                                "value": "7,000,000,000,000,000,000,000"
                            }
                        ],
                        "constructorArguments": "",
                        "name": "transfer",
                        "returnParams": [
                            {
                                "name": "success",
                                "type": "bool",
                                "value": true
                            }
                        ],
                        "signature": "transfer(address,uint256)"
                    },
                    "errorInfo": "",
                    "fromAddress": "0xbda40fb36d4032f2b0541d001625e8b5ba9a83ea",
                    "gasUsed": 52571,
                    "id": 0,
                    "methodDecoded": true,
                    "operation": "CALL",
                    "output": "0x0000000000000000000000000000000000000000000000000000000000000001",
                    "revert": false,
                    "revertMessage": "",
                    "selector": "0xa9059cbb",
                    "status": true,
                    "value": "0"
                },
                "nodeType": 0
            },
            "1": {
                "event": {
                    "contract": "0x7c5a0ce9267ed19b22f8cae653f198e3e8daf098",
                    "decodedLog": {
                        "name": "Transfer",
                        "params": [
                            {
                                "name": "_from",
                                "type": "address",
                                "value": "0xbda40fb36d4032f2b0541d001625e8b5ba9a83ea"
                            },
                            {
                                "name": "_to",
                                "type": "address",
                                "value": "0xc448e8c8fff4c14aeb1c57a75011b9e3aca46403"
                            },
                            {
                                "decimalAvailable": true,
                                "name": "_value",
                                "type": "uint256",
                                "value": "7,000,000,000,000,000,000,000"
                            }
                        ],
                        "signature": "Transfer(address,address,uint256)"
                    },
                    "id": 1,
                    "logData": "0x00000000000000000000000000000000000000000000017b7883c06916600000",
                    "logDecoded": true,
                    "operation": "EVENT",
                    "revert": false,
                    "status": true,
                    "topics": [
                        "0xddf252ad1be2c89b69c2b068fc378daa952ba7f163c4a11628f55a4df523b3ef",
                        "0x000000000000000000000000bda40fb36d4032f2b0541d001625e8b5ba9a83ea",
                        "0x000000000000000000000000c448e8c8fff4c14aeb1c57a75011b9e3aca46403"
                    ]
                },
                "nodeType": 1
            }
        },
        "gasFlame": [
            {
                "children": [
                    {
                        "children": [
                            {
                                "children": [],
                                "depth": 0,
                                "name": "Initial Gas",
                                "value": 23320
                            },
                            {
                                "children": [],
                                "depth": 0,
                                "name": "Executed Gas",
                                "value": 29251
                            }
                        ],
                        "depth": -1,
                        "name": "Actual Gas Used",
                        "value": 52571
                    },
                    {
                        "children": [],
                        "depth": -1,
                        "name": "Refunded Gas",
                        "value": 0
                    }
                ],
                "depth": -2,
                "name": "Total Gas",
                "value": 52571
            }
        ],
        "isConfirmed": true,
        "mainTrace": [
            {
                "children": [
                    {
                        "children": [
                            {
                                "children": [],
                                "depth": 1,
                                "id": 1,
                                "order": 1
                            }
                        ],
                        "depth": 0,
                        "id": 0,
                        "order": 0
                    }
                ],
                "depth": -1,
                "id": -1,
                "order": -1
            }
        ],
        "mainTraceNodeCount": 2,
        "parentIdMap": {
            "0": -1,
            "1": 0
        },
        "tidyTrace": [
            {
                "children": [
                    {
                        "children": [
                            {
                                "children": [],
                                "depth": 1,
                                "id": 1,
                                "order": 1
                            }
                        ],
                        "depth": 0,
                        "id": 0,
                        "order": 0
                    }
                ],
                "depth": -1,
                "id": -1,
                "order": -1
            }
        ],
        "tidyTraceNodeCount": 2
    },
    "state_change": {
        "stateChanges": [
            {
                "address": "0x7c5a0ce9267ed19b22f8cae653f198e3e8daf098",
                "erc": "ERC-20",
                "slots": [
                    {
                        "current": "0x0000000000000000000000000000000000000000000000a2a15d09519be00000",
                        "key": "0xf66e1ef798147e65250ba79f52bb25dfadf4aed8467741be70d0afcbfbf805eb",
                        "prev": "0x00000000000000000000000000000000000000000000021e19e0c9bab2400000"
                    },
                    {
                        "current": "0x00000000000000000000000000000000000000000000017b7883c06916600000",
                        "key": "0xba5e5d37b6c3b3a2b633bc9e6df9747950e39245a5e61dff01ad71779479fab4",
                        "prev": "0x0000000000000000000000000000000000000000000000000000000000000000"
                    }
                ],
                "storageVariables": []
            }
        ]
    }
}