{
    "balance_change": {
        "balanceChanges": [
            {
                "account": "0xd5ac2abe3f316249946a7bab28b7498a08342cb9",
                "assets": [
                    {
                        "address": "0xeeeeeeeeeeeeeeeeeeeeeeeeeeeeeeeeeeeeeeee",
                        "amount": "0.2",
                        "iconUrl": "https://assets.blocksec.com/image/1663669189317-3.png",
                        "isERC1155": false,
                        "isERC721": false,
                        "sign": false,
                        "value": "327.98831021513324233"
                    },
                    {
                        "address": "0xa7de94227eb6828497f4343b9923959e41ae9cd1",
                        "amount": "582,213.819766191724726059",
                        "iconUrl": "",
                        "isERC1155": false,
                        "isERC721": false,
                        "sign": true,
                        "value": "305.2419244"
                    }
                ]
            },
            {
                "account": "0xa7de94227eb6828497f4343b9923959e41ae9cd1",
                "assets": [
                    {
                        "address": "0xa7de94227eb6828497f4343b9923959e41ae9cd1",
                        "amount": "24,258.909156924655196919",
                        "iconUrl": "",
                        "isERC1155": false,
                        "isERC721": false,
                        "sign": true,
                        "value": "12.50356407"
                    }
                ]
            },
            {
                "account": "0xc02aaa39b223fe8d0a0e5c4f27ead9083c756cc2",
                "assets": [
                    {
                        "address": "0xeeeeeeeeeeeeeeeeeeeeeeeeeeeeeeeeeeeeeeee",
                        "amount": "0.2",
                        "iconUrl": "https://assets.blocksec.com/image/1663669189317-3.png",
                        "isERC1155": false,
                        "isERC721": false,
                        "sign": true,
                        "value": "327.98831021513324233"
                    },
                    {
                        "address": "0xc02aaa39b223fe8d0a0e5c4f27ead9083c756cc2",
                        "amount": "0.2",
                        "iconUrl": "https://assets.blocksec.com/icon/f1cb2d02c471d545bbc7722daf3277fd852d98e63d118771af7047bd8256c516.png",
                        "isERC1155": false,
                        "isERC721": false,
                        "sign": false,
                        "value": "327.98831021513324233"
                    }
                ]
            },
            {
                "account": "0xf6c734de7772e880338dc87a55c062e88cc69327",
                "assets": [
                    {
                        "address": "0xa7de94227eb6828497f4343b9923959e41ae9cd1",
                        "amount": "606,472.728923116379922977",
                        "iconUrl": "",
                        "isERC1155": false,
                        "isERC721": false,
                        "sign": false,
                        "value": "314.439029"
                    },
                    {
                        "address": "0xc02aaa39b223fe8d0a0e5c4f27ead9083c756cc2",
                        "amount": "0.2",
                        "iconUrl": "https://assets.blocksec.com/icon/f1cb2d02c471d545bbc7722daf3277fd852d98e63d118771af7047bd8256c516.png",
                        "isERC1155": false,
                        "isERC721": false,
                        "sign": true,
                        "value": "327.98831021513324233"
                    }
                ]
            }
        ]
    },
    "profile": {
        "basic_info": {
            "baseFee": "23.069514633",
            "blockNumber": 15898579,
            "callData": "0x5ae401dc00000000000000000000000000000000000000000000000000000000636566ff00000000000000000000000000000000000000000000000000000000000000400000000000000000000000000000000000000000000000000000000000000001000000000000000000000000000000000000000000000000000000000000002000000000000000000000000000000000000000000000000000000000000000e4472b43f300000000000000000000000000000000000000000000000002c68af0bb14000000000000000000000000000000000000000000000000669d2c50269ea00fa2fe0000000000000000000000000000000000000000000000000000000000000080000000000000000000000000d5ac2abe3f316249946a7bab28b7498a08342cb90000000000000000000000000000000000000000000000000000000000000002000000000000000000000000c02aaa39b223fe8d0a0e5c4f27ead9083c756cc2000000000000000000000000a7de94227eb6828497f4343b9923959e41ae9cd100000000000000000000000000000000000000000000000000000000",
            "debugEnable": true,
            "errorInfo": "",
            "eventCount": 6,
            "feeRecipient": "0x95222290dd7278aa3ddd389cc1e1d165cc4bafe5",
            "formatValue": "0.2",
            "gasLimit": 289245,
            "gasPrice": "25.069514633",
            "gasUsed": 218635,
            "intTxnCount": 11,
            "internalRevert": false,
            "internalRevertMessage": "",
            "isContractCreation": false,
            "isFlashloan": false,
            "maxFee": "39.585327243",
            "nonce": 38,
            "overwritedBlockNumber": -1,
            "priorityFee": "2",
            "receiver": "0x68b3465833fb72a70ecdf485e0e4c7bd8665fc45",
            "revertMessage": "",
            "sender": "0xd5ac2abe3f316249946a7bab28b7498a08342cb9",
            "simulationEnable": true,
            "sourceTxnHash": "0x329e0df41e44a781a5eac2dd975be3bfcc0239e2f655742d06c3cb9fc60f668a",
            "status": true,
            "timestamp": "2022-11-04T18:55:11Z",
            "transactionFee": "0.005481073331785955",
            "txnHash": "0x329e0df41e44a781a5eac2dd975be3bfcc0239e2f655742d06c3cb9fc60f668a",
            "txnIndex": 61,
            "type": 2,
            "value": "200000000000000000"
        },
        "fund_flow": [
            {
                "amount": "0.2",
                "from": "0xd5ac2abe3f316249946a7bab28b7498a08342cb9",
                "id": 1,
                "isERC1155": false,
                "isERC721": false,
                "isReverted": false,
                "order": 1,
                "to": "0x68b3465833fb72a70ecdf485e0e4c7bd8665fc45",
                "token": "0xeeeeeeeeeeeeeeeeeeeeeeeeeeeeeeeeeeeeeeee"
            },
            {
                "amount": "0.2",
                "from": "0x68b3465833fb72a70ecdf485e0e4c7bd8665fc45",
                "id": 2,
                "isERC1155": false,
                "isERC721": false,
                "isReverted": false,
                "order": 2,
                "to": "0xc02aaa39b223fe8d0a0e5c4f27ead9083c756cc2",
                "token": "0xeeeeeeeeeeeeeeeeeeeeeeeeeeeeeeeeeeeeeeee"
            },
            {
                "amount": "0.2",
                "from": "0xc02aaa39b223fe8d0a0e5c4f27ead9083c756cc2",
                "id": 3,
                "isERC1155": false,
                "isERC721": false,
                "isReverted": false,
                "order": 3,
                "to": "0x68b3465833fb72a70ecdf485e0e4c7bd8665fc45",
                "token": "0xc02aaa39b223fe8d0a0e5c4f27ead9083c756cc2"
            },
            {
                "amount": "0.2",
                "from": "0x68b3465833fb72a70ecdf485e0e4c7bd8665fc45",
                "id": 4,
                "isERC1155": false,
                "isERC721": false,
                "isReverted": false,
                "order": 4,
                "to": "0xf6c734de7772e880338dc87a55c062e88cc69327",
                "token": "0xc02aaa39b223fe8d0a0e5c4f27ead9083c756cc2"
            },
            {
                "amount": "24,258.909156924655196919",
                "from": "0xf6c734de7772e880338dc87a55c062e88cc69327",
                "id": 5,
                "isERC1155": false,
                "isERC721": false,
                "isReverted": false,
                "order": 5,
                "to": "0xa7de94227eb6828497f4343b9923959e41ae9cd1",
                "token": "0xa7de94227eb6828497f4343b9923959e41ae9cd1"
            },
            {
                "amount": "582,213.819766191724726059",
                "from": "0xf6c734de7772e880338dc87a55c062e88cc69327",
                "id": 6,
                "isERC1155": false,
                "isERC721": false,
                "isReverted": false,
                "order": 6,
                "to": "0xd5ac2abe3f316249946a7bab28b7498a08342cb9",
                "token": "0xa7de94227eb6828497f4343b9923959e41ae9cd1"
            }
        ],
        "token_infos": [
            {
                "address": "0xa7de94227eb6828497f4343b9923959e41ae9cd1",
                "decimals": 18
            },
            {
                "address": "0xc02aaa39b223fe8d0a0e5c4f27ead9083c756cc2",
                "decimals": 18
            },
            {
                "address": "0xeeeeeeeeeeeeeeeeeeeeeeeeeeeeeeeeeeeeeeee",
                "decimals": 18
            }
        ]
    },
    "address_label": {
        "labels": [
            {
                "address": "0xeeeeeeeeeeeeeeeeeeeeeeeeeeeeeeeeeeeeeeee",
                "label": "Ether"
            },
            {
                "address": "0xa7de94227eb6828497f4343b9923959e41ae9cd1",
                "label": "Muni: MUNI Token"
            },
            {
                "address": "0x0000000000000000000000000000000000000001",
                "label": "Precompiled"
            },
            {
                "address": "0x0000000000000000000000000000000000000002",
                "label": "Precompiled"
            },
            {
                "address": "0x0000000000000000000000000000000000000003",
                "label": "Precompiled"
            },
            {
                "address": "0x0000000000000000000000000000000000000004",
                "label": "Precompiled"
            },
            {
                "address": "0xf6c734de7772e880338dc87a55c062e88cc69327",
                "label": "Uniswap V2: MUNI 4"
            },
            {
                "address": "0xc02aaa39b223fe8d0a0e5c4f27ead9083c756cc2",
                "label": "Wrapped Ether (WETH)"
            },
            {
                "address": "0x68b3465833fb72a70ecdf485e0e4c7bd8665fc45",
                "label": "Uniswap V3: Router 2"
            }
        ]
    },
    "trace": {
        "accountLabels": null,
        "dataMap": {
            "-1": {
                "invocation": {
                    "address": "0xd5ac2abe3f316249946a7bab28b7498a08342cb9",
                    "callData": "",
                    "decodedMethod": null,
                    "errorInfo": "",
                    "fromAddress": "",
                    "gasUsed": 0,
                    "id": -1,
                    "methodDecoded": false,
                    "operation": "",
                    "output": "",
                    "revert": false,
                    "revertMessage": "",
                    "selector": "",
                    "status": false,
                    "value": ""
                },
                "nodeType": 0
            },
            "0": {
                "invocation": {
                    "address": "0x68b3465833fb72a70ecdf485e0e4c7bd8665fc45",
                    "callData": "0x00000000000000000000000000000000000000000000000000000000636566ff00000000000000000000000000000000000000000000000000000000000000400000000000000000000000000000000000000000000000000000000000000001000000000000000000000000000000000000000000000000000000000000002000000000000000000000000000000000000000000000000000000000000000e4472b43f300000000000000000000000000000000000000000000000002c68af0bb14000000000000000000000000000000000000000000000000669d2c50269ea00fa2fe0000000000000000000000000000000000000000000000000000000000000080000000000000000000000000d5ac2abe3f316249946a7bab28b7498a08342cb90000000000000000000000000000000000000000000000000000000000000002000000000000000000000000c02aaa39b223fe8d0a0e5c4f27ead9083c756cc2000000000000000000000000a7de94227eb6828497f4343b9923959e41ae9cd100000000000000000000000000000000000000000000000000000000",
                    "decodedMethod": {
                        "callParams": [
                            {
                                "name": "deadline",
                                "type": "uint256",
                                "value": "1,667,589,887"
                            },
                            {
                                "name": "data",
                                "type": "bytes[]",
                                "value": [
                                    "0x472b43f300000000000000000000000000000000000000000000000002c68af0bb14000000000000000000000000000000000000000000000000669d2c50269ea00fa2fe0000000000000000000000000000000000000000000000000000000000000080000000000000000000000000d5ac2abe3f316249946a7bab28b7498a08342cb90000000000000000000000000000000000000000000000000000000000000002000000000000000000000000c02aaa39b223fe8d0a0e5c4f27ead9083c756cc2000000000000000000000000a7de94227eb6828497f4343b9923959e41ae9cd1"
                                ]
                            }
                        ],
                        "constructorArguments": "",
                        "name": "multicall",
                        "returnParams": [
                            {
                                "name": "",
                                "type": "bytes[]",
                                "value": [
                                    "0x000000000000000000000000000000000000000000007b49dfd978547694872a"
                                ]
                            }
                        ],
                        "signature": "multicall(uint256,bytes[])"
                    },
                    "errorInfo": "",
                    "fromAddress": "0xd5ac2abe3f316249946a7bab28b7498a08342cb9",
                    "gasUsed": 218635,
                    "id": 0,
                    "methodDecoded": true,
                    "operation": "CALL",
                    "output": "0x0000000000000000000000000000000000000000000000000000000000000020000000000000000000000000000000000000000000000000000000000000000100000000000000000000000000000000000000000000000000000000000000200000000000000000000000000000000000000000000000000000000000000020000000000000000000000000000000000000000000007b49dfd978547694872a",
                    "revert": false,
                    "revertMessage": "",
                    "selector": "0x5ae401dc",
                    "status": true,
                    "value": "0.2"
                },
                "nodeType": 0
            },
            "1": {
                "invocation": {
                    "address": "0x68b3465833fb72a70ecdf485e0e4c7bd8665fc45",
                    "callData": "0x00000000000000000000000000000000000000000000000002c68af0bb14000000000000000000000000000000000000000000000000669d2c50269ea00fa2fe0000000000000000000000000000000000000000000000000000000000000080000000000000000000000000d5ac2abe3f316249946a7bab28b7498a08342cb90000000000000000000000000000000000000000000000000000000000000002000000000000000000000000c02aaa39b223fe8d0a0e5c4f27ead9083c756cc2000000000000000000000000a7de94227eb6828497f4343b9923959e41ae9cd1",
                    "decodedMethod": {
                        "callParams": [
                            {
                                "name": "amountIn",
                                "type": "uint256",
                                "value": "200,000,000,000,000,000"
                            },
                            {
                                "name": "amountOutMin",
                                "type": "uint256",
                                "value": "484,580,713,166,874,749,149,950"
                            },
                            {
                                "name": "path",
                                "type": "address[]",
                                "value": [
                                    "0xc02aaa39b223fe8d0a0e5c4f27ead9083c756cc2",
                                    "0xa7de94227eb6828497f4343b9923959e41ae9cd1"
                                ]
                            },
                            {
                                "name": "to",
                                "type": "address",
                                "value": "0xd5ac2abe3f316249946a7bab28b7498a08342cb9"
                            }
                        ],
                        "constructorArguments": "",
                        "name": "swapExactTokensForTokens",
                        "returnParams": [
                            {
                                "name": "amountOut",
                                "type": "uint256",
                                "value": "582,213,819,766,191,724,726,058"
                            }
                        ],
                        "signature": "swapExactTokensForTokens(uint256,uint256,address[],address)"
                    },
                    "errorInfo": "",
                    "fromAddress": "0x68b3465833fb72a70ecdf485e0e4c7bd8665fc45",
                    "gasUsed": 215349,
                    "id": 1,
                    "methodDecoded": true,
                    "operation": "DELEGATECALL",
                    "output": "0x000000000000000000000000000000000000000000007b49dfd978547694872a",
                    "revert": false,
                    "revertMessage": "",
                    "selector": "0x472b43f3",
                    "status": true,
                    "value": "0.2"
                },
                "nodeType": 0
            },
            "10": {
                "invocation": {
                    "address": "0xa7de94227eb6828497f4343b9923959e41ae9cd1",
                    "callData": "0x000000000000000000000000d5ac2abe3f316249946a7bab28b7498a08342cb900000000000000000000000000000000000000000000806cf3d7dd57fb856221",
                    "decodedMethod": {
                        "callParams": [
                            {
                                "name": "recipient",
                                "type": "address",
                                "value": "0xd5ac2abe3f316249946a7bab28b7498a08342cb9"
                            },
                            {
                                "decimalAvailable": true,
                                "name": "amount",
                                "type": "uint256",
                                "value": "606,472,728,923,116,379,922,977"
                            }
                        ],
                        "constructorArguments": "",
                        "name": "transfer",
                        "returnParams": [
                            {
                                "name": "",
                                "type": "bool",
                                "value": true
                            }
                        ],
                        "signature": "transfer(address,uint256)"
                    },
                    "errorInfo": "",
                    "fromAddress": "0xf6c734de7772e880338dc87a55c062e88cc69327",
                    "gasUsed": 99694,
                    "id": 10,
                    "methodDecoded": true,
                    "operation": "CALL",
                    "output": "0x0000000000000000000000000000000000000000000000000000000000000001",
                    "revert": false,
                    "revertMessage": "",
                    "selector": "0xa9059cbb",
                    "status": true,
                    "value": "0"
                },
                "nodeType": 0
            },
            "11": {
                "event": {
                    "contract": "0xa7de94227eb6828497f4343b9923959e41ae9cd1",
                    "decodedLog": {
                        "name": "Transfer",
                        "params": [
                            {
                                "name": "from",
                                "type": "address",
                                "value": "0xf6c734de7772e880338dc87a55c062e88cc69327"
                            },
                            {
                                "name": "to",
                                "type": "address",
                                "value": "0xa7de94227eb6828497f4343b9923959e41ae9cd1"
                            },
                            {
                                "decimalAvailable": true,
                                "name": "value",
                                "type": "uint256",
                                "value": "24,258,909,156,924,655,196,919"
                            }
                        ],
                        "signature": "Transfer(address,address,uint256)"
                    },
                    "id": 11,
                    "logData": "0x00000000000000000000000000000000000000000000052313fe650384f0daf7",
                    "logDecoded": true,
                    "operation": "EVENT",
                    "revert": false,
                    "status": true,
                    "topics": [
                        "0xddf252ad1be2c89b69c2b068fc378daa952ba7f163c4a11628f55a4df523b3ef",
                        "0x000000000000000000000000f6c734de7772e880338dc87a55c062e88cc69327",
                        "0x000000000000000000000000a7de94227eb6828497f4343b9923959e41ae9cd1"
                    ]
                },
                "nodeType": 1
            },
            "12": {
                "event": {
                    "contract": "0xa7de94227eb6828497f4343b9923959e41ae9cd1",
                    "decodedLog": {
                        "name": "Transfer",
                        "params": [
                            {
                                "name": "from",
                                "type": "address",
                                "value": "0xf6c734de7772e880338dc87a55c062e88cc69327"
                            },
                            {
                                "name": "to",
                                "type": "address",
                                "value": "0xd5ac2abe3f316249946a7bab28b7498a08342cb9"
                            },
                            {
                                "decimalAvailable": true,
                                "name": "value",
                                "type": "uint256",
                                "value": "582,213,819,766,191,724,726,058"
                            }
                        ],
                        "signature": "Transfer(address,address,uint256)"
                    },
                    "id": 12,
                    "logData": "0x000000000000000000000000000000000000000000007b49dfd978547694872a",
                    "logDecoded": true,
                    "operation": "EVENT",
                    "revert": false,
                    "status": true,
                    "topics": [
                        "0xddf252ad1be2c89b69c2b068fc378daa952ba7f163c4a11628f55a4df523b3ef",
                        "0x000000000000000000000000f6c734de7772e880338dc87a55c062e88cc69327",
                        "0x000000000000000000000000d5ac2abe3f316249946a7bab28b7498a08342cb9"
                    ]
                },
                "nodeType": 1
            },
            "13": {
                "invocation": {
                    "address": "0xa7de94227eb6828497f4343b9923959e41ae9cd1",
                    "callData": "0x000000000000000000000000f6c734de7772e880338dc87a55c062e88cc69327",
                    "decodedMethod": {
                        "callParams": [
                            {
                                "name": "account",
                                "type": "address",
                                "value": "0xf6c734de7772e880338dc87a55c062e88cc69327"
                            }
                        ],
                        "constructorArguments": "",
                        "name": "balanceOf",
                        "returnParams": [
                            {
                                "decimalAvailable": true,
                                "name": "",
                                "type": "uint256",
                                "value": "104,453,043,004,675,447,263,264,733"
                            }
                        ],
                        "signature": "balanceOf(address)"
                    },
                    "errorInfo": "",
                    "fromAddress": "0xf6c734de7772e880338dc87a55c062e88cc69327",
                    "gasUsed": 846,
                    "id": 13,
                    "methodDecoded": true,
                    "operation": "STATICCALL",
                    "output": "0x0000000000000000000000000000000000000000005666caceb30c24dc36ffdd",
                    "revert": false,
                    "revertMessage": "",
                    "selector": "0x70a08231",
                    "status": true,
                    "value": "0"
                },
                "nodeType": 0
            },
            "14": {
                "invocation": {
                    "address": "0xc02aaa39b223fe8d0a0e5c4f27ead9083c756cc2",
                    "callData": "0x000000000000000000000000f6c734de7772e880338dc87a55c062e88cc69327",
                    "decodedMethod": {
                        "callParams": [
                            {
                                "name": "",
                                "type": "address",
                                "value": "0xf6c734de7772e880338dc87a55c062e88cc69327"
                            }
                        ],
                        "constructorArguments": "",
                        "name": "balanceOf",
                        "returnParams": [
                            {
                                "decimalAvailable": true,
                                "name": "",
                                "type": "uint256",
                                "value": "34,542,742,520,534,140,213"
                            }
                        ],
                        "signature": "balanceOf(address)"
                    },
                    "errorInfo": "",
                    "fromAddress": "0xf6c734de7772e880338dc87a55c062e88cc69327",
                    "gasUsed": 534,
                    "id": 14,
                    "methodDecoded": true,
                    "operation": "STATICCALL",
                    "output": "0x000000000000000000000000000000000000000000000001df60794ea0380535",
                    "revert": false,
                    "revertMessage": "",
                    "selector": "0x70a08231",
                    "status": true,
                    "value": "0"
                },
                "nodeType": 0
            },
            "15": {
                "event": {
                    "contract": "0xf6c734de7772e880338dc87a55c062e88cc69327",
                    "decodedLog": {
                        "name": "Sync",
                        "params": [
                            {
                                "name": "reserve0",
                                "type": "uint112",
                                "value": "104,453,043,004,675,447,263,264,733"
                            },
                            {
                                "name": "reserve1",
                                "type": "uint112",
                                "value": "34,542,742,520,534,140,213"
                            }
                        ],
                        "signature": "Sync(uint112,uint112)"
                    },
                    "id": 15,
                    "logData": "0x0000000000000000000000000000000000000000005666caceb30c24dc36ffdd000000000000000000000000000000000000000000000001df60794ea0380535",
                    "logDecoded": true,
                    "operation": "EVENT",
                    "revert": false,
                    "status": true,
                    "topics": [
                        "0x1c411e9a96e071241c2f21f7726b17ae89e3cab4c78be50e062b03a9fffbbad1"
                    ]
                },
                "nodeType": 1
            },
            "16": {
                "event": {
                    "contract": "0xf6c734de7772e880338dc87a55c062e88cc69327",
                    "decodedLog": {
                        "name": "Swap",
                        "params": [
                            {
                                "name": "sender",
                                "type": "address",
                                "value": "0x68b3465833fb72a70ecdf485e0e4c7bd8665fc45"
                            },
                            {
                                "name": "to",
                                "type": "address",
                                "value": "0xd5ac2abe3f316249946a7bab28b7498a08342cb9"
                            },
                            {
                                "name": "amount0In",
                                "type": "uint256",
                                "value": "0"
                            },
                            {
                                "name": "amount1In",
                                "type": "uint256",
                                "value": "200,000,000,000,000,000"
                            },
                            {
                                "name": "amount0Out",
                                "type": "uint256",
                                "value": "606,472,728,923,116,379,922,977"
                            },
                            {
                                "name": "amount1Out",
                                "type": "uint256",
                                "value": "0"
                            }
                        ],
                        "signature": "Swap(address,uint256,uint256,uint256,uint256,address)"
                    },
                    "id": 16,
                    "logData": "0x000000000000000000000000000000000000000000000000000000000000000000000000000000000000000000000000000000000000000002c68af0bb14000000000000000000000000000000000000000000000000806cf3d7dd57fb8562210000000000000000000000000000000000000000000000000000000000000000",
                    "logDecoded": true,
                    "operation": "EVENT",
                    "revert": false,
                    "status": true,
                    "topics": [
                        "0xd78ad95fa46c994b6551d0da85fc275fe613ce37657fb8d5e3d130840159d822",
                        "0x00000000000000000000000068b3465833fb72a70ecdf485e0e4c7bd8665fc45",
                        "0x000000000000000000000000d5ac2abe3f316249946a7bab28b7498a08342cb9"
                    ]
                },
                "nodeType": 1
            },
            "17": {
                "invocation": {
                    "address": "0xa7de94227eb6828497f4343b9923959e41ae9cd1",
                    "callData": "0x000000000000000000000000d5ac2abe3f316249946a7bab28b7498a08342cb9",
                    "decodedMethod": {
                        "callParams": [
                            {
                                "name": "account",
                                "type": "address",
                                "value": "0xd5ac2abe3f316249946a7bab28b7498a08342cb9"
                            }
                        ],
                        "constructorArguments": "",
                        "name": "balanceOf",
                        "returnParams": [
                            {
                                "decimalAvailable": true,
                                "name": "",
                                "type": "uint256",
                                "value": "2,997,149,174,668,399,271,475,548"
                            }
                        ],
                        "signature": "balanceOf(address)"
                    },
                    "errorInfo": "",
                    "fromAddress": "0x68b3465833fb72a70ecdf485e0e4c7bd8665fc45",
                    "gasUsed": 6681,
                    "id": 17,
                    "methodDecoded": true,
                    "operation": "STATICCALL",
                    "output": "0x000000000000000000000000000000000000000000027aabc84640038863f95c",
                    "revert": false,
                    "revertMessage": "",
                    "selector": "0x70a08231",
                    "status": true,
                    "value": "0"
                },
                "nodeType": 0
            },
            "2": {
                "invocation": {
                    "address": "0xc02aaa39b223fe8d0a0e5c4f27ead9083c756cc2",
                    "callData": "0x",
                    "decodedMethod": {
                        "callParams": [],
                        "constructorArguments": "",
                        "name": "deposit",
                        "returnParams": [],
                        "signature": "deposit()"
                    },
                    "errorInfo": "",
                    "fromAddress": "0x68b3465833fb72a70ecdf485e0e4c7bd8665fc45",
                    "gasUsed": 23974,
                    "id": 2,
                    "methodDecoded": true,
                    "operation": "CALL",
                    "output": "",
                    "revert": false,
                    "revertMessage": "",
                    "selector": "0xd0e30db0",
                    "status": true,
                    "value": "0.2"
                },
                "nodeType": 0
            },
            "3": {
                "event": {
                    "contract": "0xc02aaa39b223fe8d0a0e5c4f27ead9083c756cc2",
                    "decodedLog": {
                        "name": "Deposit",
                        "params": [
                            {
                                "name": "dst",
                                "type": "address",
                                "value": "0x68b3465833fb72a70ecdf485e0e4c7bd8665fc45"
                            },
                            {
                                "name": "wad",
                                "type": "uint256",
                                "value": "200,000,000,000,000,000"
                            }
                        ],
                        "signature": "Deposit(address,uint256)"
                    },
                    "id": 3,
                    "logData": "0x00000000000000000000000000000000000000000000000002c68af0bb140000",
                    "logDecoded": true,
                    "operation": "EVENT",
                    "revert": false,
                    "status": true,
                    "topics": [
                        "0xe1fffcc4923d04b559f4d29a8bfc6cda04eb5b0d3c460751c2402c5c5cc9109c",
                        "0x00000000000000000000000068b3465833fb72a70ecdf485e0e4c7bd8665fc45"
                    ]
                },
                "nodeType": 1
            },
            "4": {
                "invocation": {
                    "address": "0xc02aaa39b223fe8d0a0e5c4f27ead9083c756cc2",
                    "callData": "0x000000000000000000000000f6c734de7772e880338dc87a55c062e88cc6932700000000000000000000000000000000000000000000000002c68af0bb140000",
                    "decodedMethod": {
                        "callParams": [
                            {
                                "name": "dst",
                                "type": "address",
                                "value": "0xf6c734de7772e880338dc87a55c062e88cc69327"
                            },
                            {
                                "decimalAvailable": true,
                                "name": "wad",
                                "type": "uint256",
                                "value": "200,000,000,000,000,000"
                            }
                        ],
                        "constructorArguments": "",
                        "name": "transfer",
                        "returnParams": [
                            {
                                "name": "",
                                "type": "bool",
                                "value": true
                            }
                        ],
                        "signature": "transfer(address,uint256)"
                    },
                    "errorInfo": "",
                    "fromAddress": "0x68b3465833fb72a70ecdf485e0e4c7bd8665fc45",
                    "gasUsed": 8062,
                    "id": 4,
                    "methodDecoded": true,
                    "operation": "CALL",
                    "output": "0x0000000000000000000000000000000000000000000000000000000000000001",
                    "revert": false,
                    "revertMessage": "",
                    "selector": "0xa9059cbb",
                    "status": true,
                    "value": "0"
                },
                "nodeType": 0
            },
            "5": {
                "event": {
                    "contract": "0xc02aaa39b223fe8d0a0e5c4f27ead9083c756cc2",
                    "decodedLog": {
                        "name": "Transfer",
                        "params": [
                            {
                                "name": "src",
                                "type": "address",
                                "value": "0x68b3465833fb72a70ecdf485e0e4c7bd8665fc45"
                            },
                            {
                                "name": "dst",
                                "type": "address",
                                "value": "0xf6c734de7772e880338dc87a55c062e88cc69327"
                            },
                            {
                                "decimalAvailable": true,
                                "name": "wad",
                                "type": "uint256",
                                "value": "200,000,000,000,000,000"
                            }
                        ],
                        "signature": "Transfer(address,address,uint256)"
                    },
                    "id": 5,
                    "logData": "0x00000000000000000000000000000000000000000000000002c68af0bb140000",
                    "logDecoded": true,
                    "operation": "EVENT",
                    "revert": false,
                    "status": true,
                    "topics": [
                        "0xddf252ad1be2c89b69c2b068fc378daa952ba7f163c4a11628f55a4df523b3ef",
                        "0x00000000000000000000000068b3465833fb72a70ecdf485e0e4c7bd8665fc45",
                        "0x000000000000000000000000f6c734de7772e880338dc87a55c062e88cc69327"
                    ]
                },
                "nodeType": 1
            },
            "6": {
                "invocation": {
                    "address": "0xa7de94227eb6828497f4343b9923959e41ae9cd1",
                    "callData": "0x000000000000000000000000d5ac2abe3f316249946a7bab28b7498a08342cb9",
                    "decodedMethod": {
                        "callParams": [
                            {
                                "name": "account",
                                "type": "address",
                                "value": "0xd5ac2abe3f316249946a7bab28b7498a08342cb9"
                            }
                        ],
                        "constructorArguments": "",
                        "name": "balanceOf",
                        "returnParams": [
                            {
                                "decimalAvailable": true,
                                "name": "",
                                "type": "uint256",
                                "value": "2,414,935,354,902,207,546,749,490"
                            }
                        ],
                        "signature": "balanceOf(address)"
                    },
                    "errorInfo": "",
                    "fromAddress": "0x68b3465833fb72a70ecdf485e0e4c7bd8665fc45",
                    "gasUsed": 28681,
                    "id": 6,
                    "methodDecoded": true,
                    "operation": "STATICCALL",
                    "output": "0x00000000000000000000000000000000000000000001ff61e86cc7af11cf7232",
                    "revert": false,
                    "revertMessage": "",
                    "selector": "0x70a08231",
                    "status": true,
                    "value": "0"
                },
                "nodeType": 0
            },
            "7": {
                "invocation": {
                    "address": "0xf6c734de7772e880338dc87a55c062e88cc69327",
                    "callData": "0x",
                    "decodedMethod": {
                        "callParams": [],
                        "constructorArguments": "",
                        "name": "getReserves",
                        "returnParams": [
                            {
                                "name": "_reserve0",
                                "type": "uint112",
                                "value": "105,059,515,733,598,563,643,187,710"
                            },
                            {
                                "name": "_reserve1",
                                "type": "uint112",
                                "value": "34,342,742,520,534,140,213"
                            },
                            {
                                "name": "_blockTimestampLast",
                                "type": "uint32",
                                "value": "1,667,588,111"
                            }
                        ],
                        "signature": "getReserves()"
                    },
                    "errorInfo": "",
                    "fromAddress": "0x68b3465833fb72a70ecdf485e0e4c7bd8665fc45",
                    "gasUsed": 2504,
                    "id": 7,
                    "methodDecoded": true,
                    "operation": "STATICCALL",
                    "output": "0x00000000000000000000000000000000000000000056e737c28ae97cd7bc61fe000000000000000000000000000000000000000000000001dc99ee5de5240535000000000000000000000000000000000000000000000000000000006365600f",
                    "revert": false,
                    "revertMessage": "",
                    "selector": "0x0902f1ac",
                    "status": true,
                    "value": "0"
                },
                "nodeType": 0
            },
            "8": {
                "invocation": {
                    "address": "0xc02aaa39b223fe8d0a0e5c4f27ead9083c756cc2",
                    "callData": "0x000000000000000000000000f6c734de7772e880338dc87a55c062e88cc69327",
                    "decodedMethod": {
                        "callParams": [
                            {
                                "name": "",
                                "type": "address",
                                "value": "0xf6c734de7772e880338dc87a55c062e88cc69327"
                            }
                        ],
                        "constructorArguments": "",
                        "name": "balanceOf",
                        "returnParams": [
                            {
                                "decimalAvailable": true,
                                "name": "",
                                "type": "uint256",
                                "value": "34,542,742,520,534,140,213"
                            }
                        ],
                        "signature": "balanceOf(address)"
                    },
                    "errorInfo": "",
                    "fromAddress": "0x68b3465833fb72a70ecdf485e0e4c7bd8665fc45",
                    "gasUsed": 534,
                    "id": 8,
                    "methodDecoded": true,
                    "operation": "STATICCALL",
                    "output": "0x000000000000000000000000000000000000000000000001df60794ea0380535",
                    "revert": false,
                    "revertMessage": "",
                    "selector": "0x70a08231",
                    "status": true,
                    "value": "0"
                },
                "nodeType": 0
            },
            "9": {
                "invocation": {
                    "address": "0xf6c734de7772e880338dc87a55c062e88cc69327",
                    "callData": "0x00000000000000000000000000000000000000000000806cf3d7dd57fb8562210000000000000000000000000000000000000000000000000000000000000000000000000000000000000000d5ac2abe3f316249946a7bab28b7498a08342cb900000000000000000000000000000000000000000000000000000000000000800000000000000000000000000000000000000000000000000000000000000000",
                    "decodedMethod": {
                        "callParams": [
                            {
                                "name": "amount0Out",
                                "type": "uint256",
                                "value": "606,472,728,923,116,379,922,977"
                            },
                            {
                                "name": "amount1Out",
                                "type": "uint256",
                                "value": "0"
                            },
                            {
                                "name": "to",
                                "type": "address",
                                "value": "0xd5ac2abe3f316249946a7bab28b7498a08342cb9"
                            },
                            {
                                "name": "data",
                                "type": "bytes",
                                "value": "0x"
                            }
                        ],
                        "constructorArguments": "",
                        "name": "swap",
                        "returnParams": [],
                        "signature": "swap(uint256,uint256,address,bytes)"
                    },
                    "errorInfo": "",
                    "fromAddress": "0x68b3465833fb72a70ecdf485e0e4c7bd8665fc45",
                    "gasUsed": 121981,
                    "id": 9,
                    "methodDecoded": true,
                    "operation": "CALL",
                    "output": "",
                    "revert": false,
                    "revertMessage": "",
                    "selector": "0x022c0d9f",
                    "status": true,
                    "value": "0"
                },
                "nodeType": 0
            }
        },
        "gasFlame": [
            {
                "children": [
                    {
                        "children": [
                            {
                                "children": [],
                                "depth": 0,
                                "name": "Initial Gas",
                                "value": 23808
                            },
                            {
                                "children": [
                                    {
                                        "children": [
                                            {
                                                "children": [],
                                                "depth": 2,
                                                "name": "deposit",
                                                "value": 23974
                                            },
                                            {
                                                "children": [],
                                                "depth": 2,
                                                "name": "transfer",
                                                "value": 8062
                                            },
                                            {
                                                "children": [],
                                                "depth": 2,
                                                "name": "balanceOf",
                                                "value": 28681
                                            },
                                            {
                                                "children": [],
                                                "depth": 2,
                                                "name": "getReserves",
                                                "value": 2504
                                            },
                                            {
                                                "children": [],
                                                "depth": 2,
                                                "name": "balanceOf",
                                                "value": 534
                                            },
                                            {
                                                "children": [
                                                    {
                                                        "children": [],
                                                        "depth": 3,
                                                        "name": "transfer",
                                                        "value": 99694
                                                    },
                                                    {
                                                        "children": [],
                                                        "depth": 3,
                                                        "name": "balanceOf",
                                                        "value": 846
                                                    },
                                                    {
                                                        "children": [],
                                                        "depth": 3,
                                                        "name": "balanceOf",
                                                        "value": 534
                                                    }
                                                ],
                                                "depth": 2,
                                                "name": "swap",
                                                "value": 121981
                                            },
                                            {
                                                "children": [],
                                                "depth": 2,
                                                "name": "balanceOf",
                                                "value": 6681
                                            }
                                        ],
                                        "depth": 1,
                                        "name": "swapExactTokensForTokens",
                                        "value": 215349
                                    }
                                ],
                                "depth": 0,
                                "name": "Executed Gas",
                                "value": 217527
                            }
                        ],
                        "depth": -1,
                        "name": "Actual Gas Used",
                        "value": 218635
                    },
                    {
                        "children": [],
                        "depth": -1,
                        "name": "Refunded Gas",
                        "value": 22700
                    }
                ],
                "depth": -2,
                "name": "Total Gas",
                "value": 241335
            }
        ],
        "isConfirmed": true,
        "mainTrace": [
            {
                "children": [
                    {
                        "children": [
                            {
                                "children": [
                                    {
                                        "children": [
                                            {
                                                "children": [],
                                                "depth": 3,
                                                "id": 3,
                                                "order": 3
                                            }
                                        ],
                                        "depth": 2,
                                        "id": 2,
                                        "order": 2
                                    },
                                    {
                                        "children": [
                                            {
                                                "children": [],
                                                "depth": 3,
                                                "id": 5,
                                                "order": 5
                                            }
                                        ],
                                        "depth": 2,
                                        "id": 4,
                                        "order": 4
                                    },
                                    {
                                        "children": [],
                                        "depth": 2,
                                        "id": 6,
                                        "order": 6
                                    },
                                    {
                                        "children": [],
                                        "depth": 2,
                                        "id": 7,
                                        "order": 7
                                    },
                                    {
                                        "children": [],
                                        "depth": 2,
                                        "id": 8,
                                        "order": 8
                                    },
                                    {
                                        "children": [
                                            {
                                                "children": [
                                                    {
                                                        "children": [],
                                                        "depth": 4,
                                                        "id": 11,
                                                        "order": 11
                                                    },
                                                    {
                                                        "children": [],
                                                        "depth": 4,
                                                        "id": 12,
                                                        "order": 12
                                                    }
                                                ],
                                                "depth": 3,
                                                "id": 10,
                                                "order": 10
                                            },
                                            {
                                                "children": [],
                                                "depth": 3,
                                                "id": 13,
                                                "order": 13
                                            },
                                            {
                                                "children": [],
                                                "depth": 3,
                                                "id": 14,
                                                "order": 14
                                            },
                                            {
                                                "children": [],
                                                "depth": 3,
                                                "id": 15,
                                                "order": 15
                                            },
                                            {
                                                "children": [],
                                                "depth": 3,
                                                "id": 16,
                                                "order": 16
                                            }
                                        ],
                                        "depth": 2,
                                        "id": 9,
                                        "order": 9
                                    },
                                    {
                                        "children": [],
                                        "depth": 2,
                                        "id": 17,
                                        "order": 17
                                    }
                                ],
                                "depth": 1,
                                "id": 1,
                                "order": 1
                            }
                        ],
                        "depth": 0,
                        "id": 0,
                        "order": 0
                    }
                ],
                "depth": -1,
                "id": -1,
                "order": -1
            }
        ],
        "mainTraceNodeCount": 18,
        "parentIdMap": {
            "0": -1,
            "1": 0,
            "10": 9,
            "11": 10,
            "12": 10,
            "13": 9,
            "14": 9,
            "15": 9,
            "16": 9,
            "17": 1,
            "2": 1,
            "3": 2,
            "4": 1,
            "5": 4,
            "6": 1,
            "7": 1,
            "8": 1,
            "9": 1
        },
        "tidyTrace": [
            {
                "children": [
                    {
                        "children": [
                            {
                                "children": [
                                    {
                                        "children": [
                                            {
                                                "children": [],
                                                "depth": 3,
                                                "id": 3,
                                                "order": 3
                                            }
                                        ],
                                        "depth": 2,
                                        "id": 2,
                                        "order": 2
                                    },
                                    {
                                        "children": [
                                            {
                                                "children": [],
                                                "depth": 3,
                                                "id": 5,
                                                "order": 5
                                            }
                                        ],
                                        "depth": 2,
                                        "id": 4,
                                        "order": 4
                                    },
                                    {
                                        "children": [
                                            {
                                                "children": [
                                                    {
                                                        "children": [],
                                                        "depth": 4,
                                                        "id": 11,
                                                        "order": 11
                                                    },
                                                    {
                                                        "children": [],
                                                        "depth": 4,
                                                        "id": 12,
                                                        "order": 12
                                                    }
                                                ],
                                                "depth": 3,
                                                "id": 10,
                                                "order": 10
                                            },
                                            {
                                                "children": [],
                                                "depth": 3,
                                                "id": 15,
                                                "order": 15
                                            },
                                            {
                                                "children": [],
                                                "depth": 3,
                                                "id": 16,
                                                "order": 16
                                            }
                                        ],
                                        "depth": 2,
                                        "id": 9,
                                        "order": 9
                                    }
                                ],
                                "depth": 1,
                                "id": 1,
                                "order": 1
                            }
                        ],
                        "depth": 0,
                        "id": 0,
                        "order": 0
                    }
                ],
                "depth": -1,
                "id": -1,
                "order": -1
            }
        ],
        "tidyTraceNodeCount": 12
    },
    "state_change": {
        "stateChanges": [
            {
                "address": "0xa7de94227eb6828497f4343b9923959e41ae9cd1",
                "erc": "ERC-20",
                "slots": [
                    {
                        "current": "0x0000000000000000000000000000000000000000005666caceb30c24dc36ffdd",
                        "key": "0xd19b2a33d297f0eefe1da628d936d749bc471a7f32ca772ea8381a2fc9f1fe7c",
                        "prev": "0x00000000000000000000000000000000000000000056e737c28ae97cd7bc61fe"
                    },
                    {
                        "current": "0x05750a0fc63d88ebc06d6c5b1883b5dd54701cff72eec46e45c1f3d85c9503b8",
                        "key": "0x8401a3296e4f519204501be67bf6123cabc2fea66fb6ba51e6c3692425d433fd",
                        "prev": "0x057373108d8b90457e49cd7b2092e3d9e2a2d1b94363a8c93472bde6fc12ad20"
                    },
                    {
                        "current": "0x00000000000000000000000000000000000000000011a213d39abd2ea0f6af4b",
                        "key": "0x2c442df85c6ae9fb41754c977beea1ddf6c2d3bd4aaffd2ce40362fc62bcab70",
                        "prev": "0x000000000000000000000000000000000000000000119cf0bf9c582b1c05d454"
                    },
                    {
                        "current": "0x0000000000000000000000000000000000000000000000000000000000f297d3",
                        "key": "0xe8968e1bd6e2f4bda5941740fdf8ef1a86692ddeb51541427a02c42729984975",
                        "prev": "0x0000000000000000000000000000000000000000000000000000000000f297d1"
                    },
                    {
                        "current": "0x1abd6f43ac3a2bcf8d66019fa4a908c48e2631c92c85d4ede5639e667a915a88",
                        "key": "0x001a2012d75d4c405e015a04b0c3a72ea0b36962afd6c404b37787cc2a3f1080",
                        "prev": "0x1ae52e30359b740c02e0861d4fff42ac8bb0d41b2fbdecdbeb5460c3313d8fb0"
                    },
                    {
                        "current": "0x00c46bd1afba26480ab150a30ef3016b8e212bf46061391396c19f1b4aef7660",
                        "key": "0xb6202dedac48792b0c73a96af21f34d07c4c0be2ab2a52dd0c1a8d02c08bb08d",
                        "prev": "0x009e43e45f0ad6b1d75a6b055b8d99870263d4e88cb43ccaa22012aff4c597d0"
                    }
                ],
                "storageVariables": [
                    {
                        "name": "_tOwned",
                        "type": "mapping(address => uint256)",
                        "value": {
                            "pairs": [
                                {
                                    "key": "0xa7de94227eb6828497f4343b9923959e41ae9cd1",
                                    "value": {
                                        "current": "21317128039518475359006539",
                                        "prev": "21292869130361550703809620",
                                        "typeTag": 1
                                    }
                                },
                                {
                                    "key": "0xf6c734de7772e880338dc87a55c062e88cc69327",
                                    "value": {
                                        "current": "104453043004675447263264733",
                                        "prev": "105059515733598563643187710",
                                        "typeTag": 1
                                    }
                                }
                            ],
                            "typeTag": 4
                        }
                    },
                    {
                        "name": "_rOwned",
                        "type": "mapping(address => uint256)",
                        "value": {
                            "pairs": [
                                {
                                    "key": "0xa7de94227eb6828497f4343b9923959e41ae9cd1",
                                    "value": {
                                        "current": "2468354792235218539610043241125822593215427699767169368732854726394488619960",
                                        "prev": "2465545802461319972942939896632176945472302141117262215454025806929915456800",
                                        "typeTag": 1
                                    }
                                },
                                {
                                    "key": "0xd5ac2abe3f316249946a7bab28b7498a08342cb9",
                                    "value": {
                                        "current": "347046164690751873179432145319390970544063508794167942101861789416215770720",
                                        "prev": "279630410117186273168951645887716950076659254054426246034152015726490523600",
                                        "typeTag": 1
                                    }
                                },
                                {
                                    "key": "0xf6c734de7772e880338dc87a55c062e88cc69327",
                                    "value": {
                                        "current": "12094836076706605571906979061183603928485799526457507873834738230993808874120",
                                        "prev": "12165060821054069738584562905108923596696329339847156723181276924148107284400",
                                        "typeTag": 1
                                    }
                                }
                            ],
                            "typeTag": 4
                        }
                    },
                    {
                        "name": "lastTrade",
                        "type": "mapping(address => uint256)",
                        "value": {
                            "pairs": [
                                {
                                    "key": "0xd5ac2abe3f316249946a7bab28b7498a08342cb9",
                                    "value": {
                                        "current": "15898579",
                                        "prev": "15898577",
                                        "typeTag": 1
                                    }
                                }
                            ],
                            "typeTag": 4
                        }
                    }
                ]
            },
            {
                "address": "0xc02aaa39b223fe8d0a0e5c4f27ead9083c756cc2",
                "erc": "ERC-20",
                "slots": [
                    {
                        "current": "0x000000000000000000000000000000000000000000000001df60794ea0380535",
                        "key": "0xcc4814abaa7e0d574aca50600a14fc90f98de5f010bbbafedfdac608d5f70993",
                        "prev": "0x000000000000000000000000000000000000000000000001dc99ee5de5240535"
                    }
                ],
                "storageVariables": [
                    {
                        "name": "balanceOf",
                        "type": "mapping(address => uint256)",
                        "value": {
                            "pairs": [
                                {
                                    "key": "0xf6c734de7772e880338dc87a55c062e88cc69327",
                                    "value": {
                                        "current": "34542742520534140213",
                                        "prev": "34342742520534140213",
                                        "typeTag": 1
                                    }
                                }
                            ],
                            "typeTag": 4
                        }
                    }
                ]
            },
            {
                "address": "0xf6c734de7772e880338dc87a55c062e88cc69327",
                "erc": "ERC-20",
                "slots": [
                    {
                        "current": "0x6365600f000000000001df60794ea03805350000005666caceb30c24dc36ffdd",
                        "key": "0x0000000000000000000000000000000000000000000000000000000000000008",
                        "prev": "0x6365600f000000000001dc99ee5de524053500000056e737c28ae97cd7bc61fe"
                    }
                ],
                "storageVariables": [
                    {
                        "name": "reserve0",
                        "type": "uint112",
                        "value": {
                            "current": "104453043004675447263264733",
                            "prev": "105059515733598563643187710",
                            "typeTag": 1
                        }
                    },
                    {
                        "name": "reserve1",
                        "type": "uint112",
                        "value": {
                            "current": "34542742520534140213",
                            "prev": "34342742520534140213",
                            "typeTag": 1
                        }
                    },
                    {
                        "name": "blockTimestampLast",
                        "type": "uint32",
                        "value": {
                            "current": "1667588111",
                            "prev": "1667588111",
                            "typeTag": 1
                        }
                    }
                ]
            }
        ]
    }
}