{
    "balance_change": {
        "balanceChanges": [
            {
                "account": "0x6398745a06434d20f07ee42cfbb0550fd5d2df0d",
                "assets": [
                    {
                        "address": "0x632b08ff2b32dafcdaf052350cd9466ddec50c7a",
                        "amount": "119,760,000,000,000,000,000",
                        "iconUrl": "",
                        "isERC1155": false,
                        "isERC721": false,
                        "sign": false,
                        "value": ""
                    }
                ]
            },
            {
                "account": "0x58c70602c1184bbbcb0f75067bf467c55a392bae",
                "assets": [
                    {
                        "address": "0x632b08ff2b32dafcdaf052350cd9466ddec50c7a",
                        "amount": "119,760,000,000,000,000,000",
                        "iconUrl": "",
                        "isERC1155": false,
                        "isERC721": false,
                        "sign": true,
                        "value": ""
                    }
                ]
            }
        ]
    },
    "profile": {
        "basic_info": {
            "baseFee": "",
            "blockNumber": 7364994,
            "callData": "0xa9059cbb00000000000000000000000058c70602c1184bbbcb0f75067bf467c55a392bae0000000000000000000000000000000000000000000000067e00fd7bfcc80000",
            "debugEnable": true,
            "errorInfo": "",
            "eventCount": 1,
            "feeRecipient": "0x5a0b54d5dc17e0aadc383d2db43b0a0d3e029c4c",
            "formatValue": "0",
            "gasLimit": 80000,
            "gasPrice": "3.1",
            "gasUsed": 36538,
            "intTxnCount": 0,
            "internalRevert": false,
            "internalRevertMessage": "",
            "isContractCreation": false,
            "isFlashloan": false,
            "maxFee": "",
            "nonce": 3836,
            "overwritedBlockNumber": -1,
            "priorityFee": "",
            "receiver": "0x632b08ff2b32dafcdaf052350cd9466ddec50c7a",
            "revertMessage": "",
            "sender": "0x6398745a06434d20f07ee42cfbb0550fd5d2df0d",
            "simulationEnable": true,
            "sourceTxnHash": "0x32778d8393e92f6a8a9f28da9cb7342b86f395409b797aa948c1ef525b65f8b2",
            "status": true,
            "timestamp": "2019-03-14T04:17:25Z",
            "transactionFee": "0.0001132678",
            "txnHash": "0x32778d8393e92f6a8a9f28da9cb7342b86f395409b797aa948c1ef525b65f8b2",
            "txnIndex": 15,
            "type": 0,
            "value": "0"
        },
        "fund_flow": [
            {
                "amount": "119,760,000,000,000,000,000",
                "from": "0x6398745a06434d20f07ee42cfbb0550fd5d2df0d",
                "id": 1,
                "isERC1155": false,
                "isERC721": false,
                "isReverted": false,
                "order": 1,
                "to": "0x58c70602c1184bbbcb0f75067bf467c55a392bae",
                "token": "0x632b08ff2b32dafcdaf052350cd9466ddec50c7a"
            }
        ],
        "token_infos": [
            {
                "address": "0xc02aaa39b223fe8d0a0e5c4f27ead9083c756cc2",
                "decimals": 18
            },
            {
                "address": "0xeeeeeeeeeeeeeeeeeeeeeeeeeeeeeeeeeeeeeeee",
                "decimals": 18
            }
        ]
    },
    "address_label": {
        "labels": [
            {
                "address": "0xeeeeeeeeeeeeeeeeeeeeeeeeeeeeeeeeeeeeeeee",
                "label": "Ether"
            },
            {
                "address": "0x0000000000000000000000000000000000000001",
                "label": "Precompiled"
            },
            {
                "address": "0x0000000000000000000000000000000000000002",
                "label": "Precompiled"
            },
            {
                "address": "0x0000000000000000000000000000000000000003",
                "label": "Precompiled"
            },
            {
                "address": "0x0000000000000000000000000000000000000004",
                "label": "Precompiled"
            }
        ]
    },
    "trace": {
        "accountLabels": null,
        "dataMap": {
            "-1": {
                "invocation": {
                    "address": "0x6398745a06434d20f07ee42cfbb0550fd5d2df0d",
                    "callData": "",
                    "decodedMethod": null,
                    "errorInfo": "",
                    "fromAddress": "",
                    "gasUsed": 0,
                    "id": -1,
                    "methodDecoded": false,
                    "operation": "",
                    "output": "",
                    "revert": false,
                    "revertMessage": "",
                    "selector": "",
                    "status": false,
                    "value": ""
                },
                "nodeType": 0
            },
            "0": {
                "invocation": {
                    "address": "0x632b08ff2b32dafcdaf052350cd9466ddec50c7a",
                    "callData": "0x00000000000000000000000058c70602c1184bbbcb0f75067bf467c55a392bae0000000000000000000000000000000000000000000000067e00fd7bfcc80000",
                    "decodedMethod": {
                        "callParams": [
                            {
                                "name": "recipient",
                                "type": "address",
                                "value": "0x58c70602c1184bbbcb0f75067bf467c55a392bae"
                            },
                            {
                                "decimalAvailable": true,
                                "name": "amount",
                                "type": "uint256",
                                "value": "119,760,000,000,000,000,000"
                            }
                        ],
                        "constructorArguments": "",
                        "name": "transfer",
                        "returnParams": [
                            {
                                "name": "",
                                "type": "bool",
                                "value": true
                            }
                        ],
                        "signature": "transfer(address,uint256)"
                    },
                    "errorInfo": "",
                    "fromAddress": "0x6398745a06434d20f07ee42cfbb0550fd5d2df0d",
                    "gasUsed": 36538,
                    "id": 0,
                    "methodDecoded": true,
                    "operation": "CALL",
                    "output": "0x0000000000000000000000000000000000000000000000000000000000000001",
                    "revert": false,
                    "revertMessage": "",
                    "selector": "0xa9059cbb",
                    "status": true,
                    "value": "0"
                },
                "nodeType": 0
            },
            "1": {
                "event": {
                    "contract": "0x632b08ff2b32dafcdaf052350cd9466ddec50c7a",
                    "decodedLog": {
                        "name": "Transfer",
                        "params": [
                            {
                                "name": "from",
                                "type": "address",
                                "value": "0x6398745a06434d20f07ee42cfbb0550fd5d2df0d"
                            },
                            {
                                "name": "to",
                                "type": "address",
                                "value": "0x58c70602c1184bbbcb0f75067bf467c55a392bae"
                            },
                            {
                                "decimalAvailable": true,
                                "name": "value",
                                "type": "uint256",
                                "value": "119,760,000,000,000,000,000"
                            }
                        ],
                        "signature": "Transfer(address,address,uint256)"
                    },
                    "id": 1,
                    "logData": "0x0000000000000000000000000000000000000000000000067e00fd7bfcc80000",
                    "logDecoded": true,
                    "operation": "EVENT",
                    "revert": false,
                    "status": true,
                    "topics": [
                        "0xddf252ad1be2c89b69c2b068fc378daa952ba7f163c4a11628f55a4df523b3ef",
                        "0x0000000000000000000000006398745a06434d20f07ee42cfbb0550fd5d2df0d",
                        "0x00000000000000000000000058c70602c1184bbbcb0f75067bf467c55a392bae"
                    ]
                },
                "nodeType": 1
            }
        },
        "gasFlame": [
            {
                "children": [
                    {
                        "children": [
                            {
                                "children": [],
                                "depth": 0,
                                "name": "Initial Gas",
                                "value": 23192
                            },
                            {
                                "children": [],
                                "depth": 0,
                                "name": "Executed Gas",
                                "value": 13346
                            }
                        ],
                        "depth": -1,
                        "name": "Actual Gas Used",
                        "value": 36538
                    },
                    {
                        "children": [],
                        "depth": -1,
                        "name": "Refunded Gas",
                        "value": 0
                    }
                ],
                "depth": -2,
                "name": "Total Gas",
                "value": 36538
            }
        ],
        "isConfirmed": true,
        "mainTrace": [
            {
                "children": [
                    {
                        "children": [
                            {
                                "children": [],
                                "depth": 1,
                                "id": 1,
                                "order": 1
                            }
                        ],
                        "depth": 0,
                        "id": 0,
                        "order": 0
                    }
                ],
                "depth": -1,
                "id": -1,
                "order": -1
            }
        ],
        "mainTraceNodeCount": 2,
        "parentIdMap": {
            "0": -1,
            "1": 0
        },
        "tidyTrace": [
            {
                "children": [
                    {
                        "children": [
                            {
                                "children": [],
                                "depth": 1,
                                "id": 1,
                                "order": 1
                            }
                        ],
                        "depth": 0,
                        "id": 0,
                        "order": 0
                    }
                ],
                "depth": -1,
                "id": -1,
                "order": -1
            }
        ],
        "tidyTraceNodeCount": 2
    },
    "state_change": {
        "stateChanges": [
            {
                "address": "0x632b08ff2b32dafcdaf052350cd9466ddec50c7a",
                "erc": "",
                "slots": [
                    {
                        "current": "0x00000000000000000000000000000000000000000000038770a09bece537c000",
                        "key": "0x65adec0ed284ce30ed2bb05a48167607c027fb117f452fc3a9d5dc54686a1ca8",
                        "prev": "0x00000000000000000000000000000000000000000000038deea19968e1ffc000"
                    },
                    {
                        "current": "0x00000000000000000000000000000000000000000000004de80be1cfd9600000",
                        "key": "0x10111aff027fc957c39d3f5961536d92a5e1a99b59c0bdafcec1df9817596c73",
                        "prev": "0x0000000000000000000000000000000000000000000000476a0ae453dc980000"
                    }
                ],
                "storageVariables": []
            }
        ]
    }
}