{
    "balance_change": {
        "balanceChanges": [
            {
                "account": "0xf89d7b9c864f589bbf53a82105107622b35eaa40",
                "assets": [
                    {
                        "address": "0x88909d489678dd17aa6d9609f89b0419bf78fd9a",
                        "amount": "504.5448",
                        "iconUrl": "",
                        "isERC1155": false,
                        "isERC721": false,
                        "sign": false,
                        "value": "35.60481885"
                    }
                ]
            },
            {
                "account": "0x7ebcef784ae25d2c44e6ed852cbe8251c850596f",
                "assets": [
                    {
                        "address": "0x88909d489678dd17aa6d9609f89b0419bf78fd9a",
                        "amount": "504.5448",
                        "iconUrl": "",
                        "isERC1155": false,
                        "isERC721": false,
                        "sign": true,
                        "value": "35.60481885"
                    }
                ]
            }
        ]
    },
    "profile": {
        "basic_info": {
            "baseFee": "3.193993397",
            "blockNumber": 20443094,
            "callData": "0xa9059cbb0000000000000000000000007ebcef784ae25d2c44e6ed852cbe8251c850596f00000000000000000000000000000000000000000000001b59f7366836820000",
            "debugEnable": true,
            "errorInfo": "",
            "eventCount": 1,
            "feeRecipient": "0x4838b106fce9647bdf1e7877bf73ce8b0bad5f97",
            "formatValue": "0",
            "gasLimit": 90000,
            "gasPrice": "5.193993397",
            "gasUsed": 39324,
            "intTxnCount": 1,
            "internalRevert": false,
            "internalRevertMessage": "",
            "isContractCreation": false,
            "isFlashloan": false,
            "maxFee": "200",
            "nonce": 3884735,
            "overwritedBlockNumber": -1,
            "priorityFee": "2",
            "receiver": "0x88909d489678dd17aa6d9609f89b0419bf78fd9a",
            "revertMessage": "",
            "sender": "0xf89d7b9c864f589bbf53a82105107622b35eaa40",
            "simulationEnable": true,
            "sourceTxnHash": "0x32b8d5f75cadbcd63e1d37edfd78363bb789fcc27814a911bb897b8361bf4af3",
            "status": true,
            "timestamp": "2024-08-02T19:57:47Z",
            "transactionFee": "0.000204248596343628",
            "txnHash": "0x32b8d5f75cadbcd63e1d37edfd78363bb789fcc27814a911bb897b8361bf4af3",
            "txnIndex": 135,
            "type": 2,
            "value": "0"
        },
        "fund_flow": [
            {
                "amount": "504.5448",
                "from": "0xf89d7b9c864f589bbf53a82105107622b35eaa40",
                "id": 1,
                "isERC1155": false,
                "isERC721": false,
                "isReverted": false,
                "order": 1,
                "to": "0x7ebcef784ae25d2c44e6ed852cbe8251c850596f",
                "token": "0x88909d489678dd17aa6d9609f89b0419bf78fd9a"
            }
        ],
        "token_infos": [
            {
                "address": "0xeeeeeeeeeeeeeeeeeeeeeeeeeeeeeeeeeeeeeeee",
                "decimals": 18
            },
            {
                "address": "0x88909d489678dd17aa6d9609f89b0419bf78fd9a",
                "decimals": 18
            },
            {
                "address": "0xc02aaa39b223fe8d0a0e5c4f27ead9083c756cc2",
                "decimals": 18
            }
        ]
    },
    "address_label": {
        "labels": [
            {
                "address": "0x88909d489678dd17aa6d9609f89b0419bf78fd9a",
                "label": "Layer3: L3 Token"
            },
            {
                "address": "0xef3c9aa3928adccd11103ec1a190b63f34807c34",
                "label": "Layer3"
            },
            {
                "address": "0x0000000000000000000000000000000000000001",
                "label": "Precompiled"
            },
            {
                "address": "0x0000000000000000000000000000000000000002",
                "label": "Precompiled"
            },
            {
                "address": "0x0000000000000000000000000000000000000003",
                "label": "Precompiled"
            },
            {
                "address": "0x0000000000000000000000000000000000000004",
                "label": "Precompiled"
            },
            {
                "address": "0xeeeeeeeeeeeeeeeeeeeeeeeeeeeeeeeeeeeeeeee",
                "label": "Ether"
            },
            {
                "address": "0xf89d7b9c864f589bbf53a82105107622b35eaa40",
                "label": "Bybit: Hot Wallet"
            }
        ]
    },
    "trace": {
        "accountLabels": null,
        "dataMap": {
            "-1": {
                "invocation": {
                    "address": "0xf89d7b9c864f589bbf53a82105107622b35eaa40",
                    "callData": "",
                    "decodedMethod": null,
                    "errorInfo": "",
                    "fromAddress": "",
                    "gasUsed": 0,
                    "id": -1,
                    "methodDecoded": false,
                    "operation": "",
                    "output": "",
                    "revert": false,
                    "revertMessage": "",
                    "selector": "",
                    "status": false,
                    "value": ""
                },
                "nodeType": 0
            },
            "0": {
                "invocation": {
                    "address": "0x88909d489678dd17aa6d9609f89b0419bf78fd9a",
                    "callData": "0x0000000000000000000000007ebcef784ae25d2c44e6ed852cbe8251c850596f00000000000000000000000000000000000000000000001b59f7366836820000",
                    "decodedMethod": {
                        "callParams": [
                            {
                                "name": "to",
                                "type": "address",
                                "value": "0x7ebcef784ae25d2c44e6ed852cbe8251c850596f"
                            },
                            {
                                "decimalAvailable": true,
                                "name": "value",
                                "type": "uint256",
                                "value": "504,544,800,000,000,000,000"
                            }
                        ],
                        "constructorArguments": "",
                        "name": "transfer",
                        "returnParams": [
                            {
                                "name": "",
                                "type": "bool",
                                "value": true
                            }
                        ],
                        "signature": "transfer(address,uint256)"
                    },
                    "errorInfo": "",
                    "fromAddress": "0xf89d7b9c864f589bbf53a82105107622b35eaa40",
                    "gasUsed": 39324,
                    "id": 0,
                    "methodDecoded": true,
                    "operation": "CALL",
                    "output": "0x0000000000000000000000000000000000000000000000000000000000000001",
                    "revert": false,
                    "revertMessage": "",
                    "selector": "0xa9059cbb",
                    "status": true,
                    "value": "0"
                },
                "nodeType": 0
            },
            "1": {
                "invocation": {
                    "address": "0xef3c9aa3928adccd11103ec1a190b63f34807c34",
                    "callData": "0x0000000000000000000000007ebcef784ae25d2c44e6ed852cbe8251c850596f00000000000000000000000000000000000000000000001b59f7366836820000",
                    "decodedMethod": {
                        "callParams": [
                            {
                                "name": "to",
                                "type": "address",
                                "value": "0x7ebcef784ae25d2c44e6ed852cbe8251c850596f"
                            },
                            {
                                "decimalAvailable": true,
                                "name": "value",
                                "type": "uint256",
                                "value": "504,544,800,000,000,000,000"
                            }
                        ],
                        "constructorArguments": "",
                        "name": "transfer",
                        "returnParams": [
                            {
                                "name": "",
                                "type": "bool",
                                "value": true
                            }
                        ],
                        "signature": "transfer(address,uint256)"
                    },
                    "errorInfo": "",
                    "fromAddress": "0x88909d489678dd17aa6d9609f89b0419bf78fd9a",
                    "gasUsed": 12796,
                    "id": 1,
                    "methodDecoded": true,
                    "operation": "DELEGATECALL",
                    "output": "0x0000000000000000000000000000000000000000000000000000000000000001",
                    "revert": false,
                    "revertMessage": "",
                    "selector": "0xa9059cbb",
                    "status": true,
                    "value": "0"
                },
                "nodeType": 0
            },
            "2": {
                "event": {
                    "contract": "0x88909d489678dd17aa6d9609f89b0419bf78fd9a",
                    "decodedLog": {
                        "name": "Transfer",
                        "params": [
                            {
                                "name": "from",
                                "type": "address",
                                "value": "0xf89d7b9c864f589bbf53a82105107622b35eaa40"
                            },
                            {
                                "name": "to",
                                "type": "address",
                                "value": "0x7ebcef784ae25d2c44e6ed852cbe8251c850596f"
                            },
                            {
                                "decimalAvailable": true,
                                "name": "value",
                                "type": "uint256",
                                "value": "504,544,800,000,000,000,000"
                            }
                        ],
                        "signature": "Transfer(address,address,uint256)"
                    },
                    "id": 2,
                    "logData": "0x00000000000000000000000000000000000000000000001b59f7366836820000",
                    "logDecoded": true,
                    "operation": "EVENT",
                    "revert": false,
                    "status": true,
                    "topics": [
                        "0xddf252ad1be2c89b69c2b068fc378daa952ba7f163c4a11628f55a4df523b3ef",
                        "0x000000000000000000000000f89d7b9c864f589bbf53a82105107622b35eaa40",
                        "0x0000000000000000000000007ebcef784ae25d2c44e6ed852cbe8251c850596f"
                    ]
                },
                "nodeType": 1
            }
        },
        "gasFlame": [
            {
                "children": [
                    {
                        "children": [
                            {
                                "children": [],
                                "depth": 0,
                                "name": "Initial Gas",
                                "value": 21644
                            },
                            {
                                "children": [
                                    {
                                        "children": [],
                                        "depth": 1,
                                        "name": "transfer",
                                        "value": 12796
                                    }
                                ],
                                "depth": 0,
                                "name": "Executed Gas",
                                "value": 17680
                            }
                        ],
                        "depth": -1,
                        "name": "Actual Gas Used",
                        "value": 39324
                    },
                    {
                        "children": [],
                        "depth": -1,
                        "name": "Refunded Gas",
                        "value": 0
                    }
                ],
                "depth": -2,
                "name": "Total Gas",
                "value": 39324
            }
        ],
        "isConfirmed": true,
        "mainTrace": [
            {
                "children": [
                    {
                        "children": [
                            {
                                "children": [
                                    {
                                        "children": [],
                                        "depth": 2,
                                        "id": 2,
                                        "order": 2
                                    }
                                ],
                                "depth": 1,
                                "id": 1,
                                "order": 1
                            }
                        ],
                        "depth": 0,
                        "id": 0,
                        "order": 0
                    }
                ],
                "depth": -1,
                "id": -1,
                "order": -1
            }
        ],
        "mainTraceNodeCount": 3,
        "parentIdMap": {
            "0": -1,
            "1": 0,
            "2": 1
        },
        "tidyTrace": [
            {
                "children": [
                    {
                        "children": [
                            {
                                "children": [
                                    {
                                        "children": [],
                                        "depth": 2,
                                        "id": 2,
                                        "order": 2
                                    }
                                ],
                                "depth": 1,
                                "id": 1,
                                "order": 1
                            }
                        ],
                        "depth": 0,
                        "id": 0,
                        "order": 0
                    }
                ],
                "depth": -1,
                "id": -1,
                "order": -1
            }
        ],
        "tidyTraceNodeCount": 3
    },
    "state_change": {
        "stateChanges": [
            {
                "address": "0x88909d489678dd17aa6d9609f89b0419bf78fd9a",
                "erc": "ERC-20",
                "slots": [
                    {
                        "current": "0x00000000000000000000000000000000000000000063550ec8e987c7be57f267",
                        "key": "0xc3888c1c982b3f7f5f6431c831376d31c8ef87e75f75cf85d4df380d59d6ce9e",
                        "prev": "0x00000000000000000000000000000000000000000063552a22e0be2ff4d9f267"
                    },
                    {
                        "current": "0x0000000000000000000000000000000000000000000000518fc0e42e15220000",
                        "key": "0x37f4ab9d9c11c2bb0ab9b125b2e44e419f994f50aad7954216b36703a61a8a62",
                        "prev": "0x00000000000000000000000000000000000000000000003635c9adc5dea00000"
                    }
                ],
                "storageVariables": []
            }
        ]
    }
}