{
    "balance_change": {
        "balanceChanges": [
            {
                "account": "0xb0376ce42bcbf3f41e11f973990fc27fcbe2eabd",
                "assets": [
                    {
                        "address": "0xdf329603bd378021698f9833cd5205b52f9e370e",
                        "amount": "10.27560112",
                        "iconUrl": "",
                        "isERC1155": false,
                        "isERC721": false,
                        "sign": false,
                        "value": ""
                    }
                ]
            },
            {
                "account": "0x8380641d6ed57f4fab9e638244e2a45554ff8b37",
                "assets": [
                    {
                        "address": "0xdf329603bd378021698f9833cd5205b52f9e370e",
                        "amount": "10.27560112",
                        "iconUrl": "",
                        "isERC1155": false,
                        "isERC721": false,
                        "sign": true,
                        "value": ""
                    }
                ]
            }
        ]
    },
    "profile": {
        "basic_info": {
            "baseFee": "",
            "blockNumber": 7680342,
            "callData": "0xa9059cbb0000000000000000000000008380641d6ed57f4fab9e638244e2a45554ff8b370000000000000000000000000000000000000000000000008e9a44c6b334c000",
            "debugEnable": true,
            "errorInfo": "",
            "eventCount": 1,
            "feeRecipient": "0xea674fdde714fd979de3edf0f56aa9716b898ec8",
            "formatValue": "0",
            "gasLimit": 100000,
            "gasPrice": "10",
            "gasUsed": 36594,
            "intTxnCount": 0,
            "internalRevert": false,
            "internalRevertMessage": "",
            "isContractCreation": false,
            "isFlashloan": false,
            "maxFee": "",
            "nonce": 5935,
            "overwritedBlockNumber": -1,
            "priorityFee": "",
            "receiver": "0xdf329603bd378021698f9833cd5205b52f9e370e",
            "revertMessage": "",
            "sender": "0xb0376ce42bcbf3f41e11f973990fc27fcbe2eabd",
            "simulationEnable": true,
            "sourceTxnHash": "0x3291a96198addfe9c8a5540a4ada5320fc5294be34e1f7941a6f87524a6b0958",
            "status": true,
            "timestamp": "2019-05-02T07:40:58Z",
            "transactionFee": "0.00036594",
            "txnHash": "0x3291a96198addfe9c8a5540a4ada5320fc5294be34e1f7941a6f87524a6b0958",
            "txnIndex": 30,
            "type": 0,
            "value": "0"
        },
        "fund_flow": [
            {
                "amount": "10.27560112",
                "from": "0xb0376ce42bcbf3f41e11f973990fc27fcbe2eabd",
                "id": 1,
                "isERC1155": false,
                "isERC721": false,
                "isReverted": false,
                "order": 1,
                "to": "0x8380641d6ed57f4fab9e638244e2a45554ff8b37",
                "token": "0xdf329603bd378021698f9833cd5205b52f9e370e"
            }
        ],
        "token_infos": [
            {
                "address": "0xc02aaa39b223fe8d0a0e5c4f27ead9083c756cc2",
                "decimals": 18
            },
            {
                "address": "0xdf329603bd378021698f9833cd5205b52f9e370e",
                "decimals": 18
            },
            {
                "address": "0xeeeeeeeeeeeeeeeeeeeeeeeeeeeeeeeeeeeeeeee",
                "decimals": 18
            }
        ]
    },
    "address_label": {
        "labels": [
            {
                "address": "0xeeeeeeeeeeeeeeeeeeeeeeeeeeeeeeeeeeeeeeee",
                "label": "Ether"
            },
            {
                "address": "0xdf329603bd378021698f9833cd5205b52f9e370e",
                "label": "Ethershift: Old Token"
            },
            {
                "address": "0x0000000000000000000000000000000000000001",
                "label": "Precompiled"
            },
            {
                "address": "0x0000000000000000000000000000000000000002",
                "label": "Precompiled"
            },
            {
                "address": "0x0000000000000000000000000000000000000003",
                "label": "Precompiled"
            },
            {
                "address": "0x0000000000000000000000000000000000000004",
                "label": "Precompiled"
            }
        ]
    },
    "trace": {
        "accountLabels": null,
        "dataMap": {
            "-1": {
                "invocation": {
                    "address": "0xb0376ce42bcbf3f41e11f973990fc27fcbe2eabd",
                    "callData": "",
                    "decodedMethod": null,
                    "errorInfo": "",
                    "fromAddress": "",
                    "gasUsed": 0,
                    "id": -1,
                    "methodDecoded": false,
                    "operation": "",
                    "output": "",
                    "revert": false,
                    "revertMessage": "",
                    "selector": "",
                    "status": false,
                    "value": ""
                },
                "nodeType": 0
            },
            "0": {
                "invocation": {
                    "address": "0xdf329603bd378021698f9833cd5205b52f9e370e",
                    "callData": "0x0000000000000000000000008380641d6ed57f4fab9e638244e2a45554ff8b370000000000000000000000000000000000000000000000008e9a44c6b334c000",
                    "decodedMethod": {
                        "callParams": [
                            {
                                "name": "to",
                                "type": "address",
                                "value": "0x8380641d6ed57f4fab9e638244e2a45554ff8b37"
                            },
                            {
                                "decimalAvailable": true,
                                "name": "tokens",
                                "type": "uint256",
                                "value": "10,275,601,120,000,000,000"
                            }
                        ],
                        "constructorArguments": "",
                        "name": "transfer",
                        "returnParams": [
                            {
                                "name": "success",
                                "type": "bool",
                                "value": true
                            }
                        ],
                        "signature": "transfer(address,uint256)"
                    },
                    "errorInfo": "",
                    "fromAddress": "0xb0376ce42bcbf3f41e11f973990fc27fcbe2eabd",
                    "gasUsed": 36594,
                    "id": 0,
                    "methodDecoded": true,
                    "operation": "CALL",
                    "output": "0x0000000000000000000000000000000000000000000000000000000000000001",
                    "revert": false,
                    "revertMessage": "",
                    "selector": "0xa9059cbb",
                    "status": true,
                    "value": "0"
                },
                "nodeType": 0
            },
            "1": {
                "event": {
                    "contract": "0xdf329603bd378021698f9833cd5205b52f9e370e",
                    "decodedLog": {
                        "name": "Transfer",
                        "params": [
                            {
                                "name": "from",
                                "type": "address",
                                "value": "0xb0376ce42bcbf3f41e11f973990fc27fcbe2eabd"
                            },
                            {
                                "name": "to",
                                "type": "address",
                                "value": "0x8380641d6ed57f4fab9e638244e2a45554ff8b37"
                            },
                            {
                                "decimalAvailable": true,
                                "name": "tokens",
                                "type": "uint256",
                                "value": "10,275,601,120,000,000,000"
                            }
                        ],
                        "signature": "Transfer(address,address,uint256)"
                    },
                    "id": 1,
                    "logData": "0x0000000000000000000000000000000000000000000000008e9a44c6b334c000",
                    "logDecoded": true,
                    "operation": "EVENT",
                    "revert": false,
                    "status": true,
                    "topics": [
                        "0xddf252ad1be2c89b69c2b068fc378daa952ba7f163c4a11628f55a4df523b3ef",
                        "0x000000000000000000000000b0376ce42bcbf3f41e11f973990fc27fcbe2eabd",
                        "0x0000000000000000000000008380641d6ed57f4fab9e638244e2a45554ff8b37"
                    ]
                },
                "nodeType": 1
            }
        },
        "gasFlame": [
            {
                "children": [
                    {
                        "children": [
                            {
                                "children": [],
                                "depth": 0,
                                "name": "Initial Gas",
                                "value": 23256
                            },
                            {
                                "children": [],
                                "depth": 0,
                                "name": "Executed Gas",
                                "value": 13338
                            }
                        ],
                        "depth": -1,
                        "name": "Actual Gas Used",
                        "value": 36594
                    },
                    {
                        "children": [],
                        "depth": -1,
                        "name": "Refunded Gas",
                        "value": 0
                    }
                ],
                "depth": -2,
                "name": "Total Gas",
                "value": 36594
            }
        ],
        "isConfirmed": true,
        "mainTrace": [
            {
                "children": [
                    {
                        "children": [
                            {
                                "children": [],
                                "depth": 1,
                                "id": 1,
                                "order": 1
                            }
                        ],
                        "depth": 0,
                        "id": 0,
                        "order": 0
                    }
                ],
                "depth": -1,
                "id": -1,
                "order": -1
            }
        ],
        "mainTraceNodeCount": 2,
        "parentIdMap": {
            "0": -1,
            "1": 0
        },
        "tidyTrace": [
            {
                "children": [
                    {
                        "children": [
                            {
                                "children": [],
                                "depth": 1,
                                "id": 1,
                                "order": 1
                            }
                        ],
                        "depth": 0,
                        "id": 0,
                        "order": 0
                    }
                ],
                "depth": -1,
                "id": -1,
                "order": -1
            }
        ],
        "tidyTraceNodeCount": 2
    },
    "state_change": {
        "stateChanges": [
            {
                "address": "0xdf329603bd378021698f9833cd5205b52f9e370e",
                "erc": "ERC-20",
                "slots": [
                    {
                        "current": "0x00000000000000000000000000000000000000000000077bfa5894c005889fde",
                        "key": "0x944c2709210dd1ec533278d6bc2c05e865b42decfac808c63a6ac69168608ea6",
                        "prev": "0x00000000000000000000000000000000000000000000077c88f2d986b8bd5fde"
                    },
                    {
                        "current": "0x00000000000000000000000000000000000000000000000df7493490b478ce00",
                        "key": "0xbf45ab7a418ed7ad1b0442b256ec31abc4d0a420d37823564dc306e81782177a",
                        "prev": "0x00000000000000000000000000000000000000000000000d68aeefca01440e00"
                    }
                ],
                "storageVariables": [
                    {
                        "name": "balances",
                        "type": "mapping(address => uint256)",
                        "value": {
                            "pairs": [
                                {
                                    "key": "0x8380641d6ed57f4fab9e638244e2a45554ff8b37",
                                    "value": {
                                        "current": "257626504155000000000",
                                        "prev": "247350903035000000000",
                                        "typeTag": 1
                                    }
                                },
                                {
                                    "key": "0xb0376ce42bcbf3f41e11f973990fc27fcbe2eabd",
                                    "value": {
                                        "current": "35343554233013671337950",
                                        "prev": "35353829834133671337950",
                                        "typeTag": 1
                                    }
                                }
                            ],
                            "typeTag": 4
                        }
                    }
                ]
            }
        ]
    }
}