{
    "balance_change": {
        "balanceChanges": []
    },
    "profile": {
        "basic_info": {
            "baseFee": "43.572695067",
            "blockNumber": 13828673,
            "callData": "0x095ea7b3000000000000000000000000b8c1aaf54751efa11d2d8a5df503b8afb6d80322000000000000000000000000000000000000000000000d691e385f1303f90000",
            "debugEnable": true,
            "errorInfo": "",
            "eventCount": 1,
            "feeRecipient": "0x829bd824b016326a401d083b33d092293333a830",
            "formatValue": "0",
            "gasLimit": 46321,
            "gasPrice": "45.072695067",
            "gasUsed": 46321,
            "intTxnCount": 0,
            "internalRevert": false,
            "internalRevertMessage": "",
            "isContractCreation": false,
            "isFlashloan": false,
            "maxFee": "54.852645834",
            "nonce": 37,
            "overwritedBlockNumber": -1,
            "priorityFee": "1.5",
            "receiver": "0x2610f0bfc21ef389fe4d03cfb7de9ac1e6c99d6e",
            "revertMessage": "",
            "sender": "0xcf4a1b4d5ebf4de43f1040848a8ee42f5a16c155",
            "simulationEnable": true,
            "sourceTxnHash": "0x329db74e0eaa5bd184dcb3e2f63b9ff691bab48d2e4bf62fc001697dde2f0224",
            "status": true,
            "timestamp": "2021-12-18T10:44:49Z",
            "transactionFee": "0.002087812308198507",
            "txnHash": "0x329db74e0eaa5bd184dcb3e2f63b9ff691bab48d2e4bf62fc001697dde2f0224",
            "txnIndex": 13,
            "type": 2,
            "value": "0"
        },
        "fund_flow": [],
        "token_infos": [
            {
                "address": "0xc02aaa39b223fe8d0a0e5c4f27ead9083c756cc2",
                "decimals": 18
            },
            {
                "address": "0xeeeeeeeeeeeeeeeeeeeeeeeeeeeeeeeeeeeeeeee",
                "decimals": 18
            }
        ]
    },
    "address_label": {
        "labels": [
            {
                "address": "0x0000000000000000000000000000000000000004",
                "label": "Precompiled"
            },
            {
                "address": "0xeeeeeeeeeeeeeeeeeeeeeeeeeeeeeeeeeeeeeeee",
                "label": "Ether"
            },
            {
                "address": "0x2610f0bfc21ef389fe4d03cfb7de9ac1e6c99d6e",
                "label": "Skyrim Finance: SKYRIM Token"
            },
            {
                "address": "0x0000000000000000000000000000000000000001",
                "label": "Precompiled"
            },
            {
                "address": "0x0000000000000000000000000000000000000002",
                "label": "Precompiled"
            },
            {
                "address": "0x0000000000000000000000000000000000000003",
                "label": "Precompiled"
            }
        ]
    },
    "trace": {
        "accountLabels": null,
        "dataMap": {
            "-1": {
                "invocation": {
                    "address": "0xcf4a1b4d5ebf4de43f1040848a8ee42f5a16c155",
                    "callData": "",
                    "decodedMethod": null,
                    "errorInfo": "",
                    "fromAddress": "",
                    "gasUsed": 0,
                    "id": -1,
                    "methodDecoded": false,
                    "operation": "",
                    "output": "",
                    "revert": false,
                    "revertMessage": "",
                    "selector": "",
                    "status": false,
                    "value": ""
                },
                "nodeType": 0
            },
            "0": {
                "invocation": {
                    "address": "0x2610f0bfc21ef389fe4d03cfb7de9ac1e6c99d6e",
                    "callData": "0x000000000000000000000000b8c1aaf54751efa11d2d8a5df503b8afb6d80322000000000000000000000000000000000000000000000d691e385f1303f90000",
                    "decodedMethod": {
                        "callParams": [
                            {
                                "name": "spender",
                                "type": "address",
                                "value": "0xb8c1aaf54751efa11d2d8a5df503b8afb6d80322"
                            },
                            {
                                "decimalAvailable": true,
                                "name": "amount",
                                "type": "uint256",
                                "value": "63,329,850,000,000,000,000,000"
                            }
                        ],
                        "constructorArguments": "",
                        "name": "approve",
                        "returnParams": [
                            {
                                "name": "",
                                "type": "bool",
                                "value": true
                            }
                        ],
                        "signature": "approve(address,uint256)"
                    },
                    "errorInfo": "",
                    "fromAddress": "0xcf4a1b4d5ebf4de43f1040848a8ee42f5a16c155",
                    "gasUsed": 46321,
                    "id": 0,
                    "methodDecoded": true,
                    "operation": "CALL",
                    "output": "0x0000000000000000000000000000000000000000000000000000000000000001",
                    "revert": false,
                    "revertMessage": "",
                    "selector": "0x095ea7b3",
                    "status": true,
                    "value": "0"
                },
                "nodeType": 0
            },
            "1": {
                "event": {
                    "contract": "0x2610f0bfc21ef389fe4d03cfb7de9ac1e6c99d6e",
                    "decodedLog": {
                        "name": "Approval",
                        "params": [
                            {
                                "name": "owner",
                                "type": "address",
                                "value": "0xcf4a1b4d5ebf4de43f1040848a8ee42f5a16c155"
                            },
                            {
                                "name": "spender",
                                "type": "address",
                                "value": "0xb8c1aaf54751efa11d2d8a5df503b8afb6d80322"
                            },
                            {
                                "decimalAvailable": true,
                                "name": "value",
                                "type": "uint256",
                                "value": "63,329,850,000,000,000,000,000"
                            }
                        ],
                        "signature": "Approval(address,address,uint256)"
                    },
                    "id": 1,
                    "logData": "0x000000000000000000000000000000000000000000000d691e385f1303f90000",
                    "logDecoded": true,
                    "operation": "EVENT",
                    "revert": false,
                    "status": true,
                    "topics": [
                        "0x8c5be1e5ebec7d5bd14f71427d1e84f3dd0314c0f7b2291e5b200ac8c7c3b925",
                        "0x000000000000000000000000cf4a1b4d5ebf4de43f1040848a8ee42f5a16c155",
                        "0x000000000000000000000000b8c1aaf54751efa11d2d8a5df503b8afb6d80322"
                    ]
                },
                "nodeType": 1
            }
        },
        "gasFlame": [
            {
                "children": [
                    {
                        "children": [
                            {
                                "children": [],
                                "depth": 0,
                                "name": "Initial Gas",
                                "value": 21656
                            },
                            {
                                "children": [],
                                "depth": 0,
                                "name": "Executed Gas",
                                "value": 24665
                            }
                        ],
                        "depth": -1,
                        "name": "Actual Gas Used",
                        "value": 46321
                    },
                    {
                        "children": [],
                        "depth": -1,
                        "name": "Refunded Gas",
                        "value": 0
                    }
                ],
                "depth": -2,
                "name": "Total Gas",
                "value": 46321
            }
        ],
        "isConfirmed": true,
        "mainTrace": [
            {
                "children": [
                    {
                        "children": [
                            {
                                "children": [],
                                "depth": 1,
                                "id": 1,
                                "order": 1
                            }
                        ],
                        "depth": 0,
                        "id": 0,
                        "order": 0
                    }
                ],
                "depth": -1,
                "id": -1,
                "order": -1
            }
        ],
        "mainTraceNodeCount": 2,
        "parentIdMap": {
            "0": -1,
            "1": 0
        },
        "tidyTrace": [
            {
                "children": [
                    {
                        "children": [
                            {
                                "children": [],
                                "depth": 1,
                                "id": 1,
                                "order": 1
                            }
                        ],
                        "depth": 0,
                        "id": 0,
                        "order": 0
                    }
                ],
                "depth": -1,
                "id": -1,
                "order": -1
            }
        ],
        "tidyTraceNodeCount": 2
    },
    "state_change": {
        "stateChanges": [
            {
                "address": "0x2610f0bfc21ef389fe4d03cfb7de9ac1e6c99d6e",
                "erc": "ERC-20",
                "slots": [
                    {
                        "current": "0x000000000000000000000000000000000000000000000d691e385f1303f90000",
                        "key": "0x67a536e1c38458dc1b89ddd7b92763e024ce908083b6dec0b3ea3faf05463326",
                        "prev": "0x0000000000000000000000000000000000000000000000000000000000000000"
                    }
                ],
                "storageVariables": [
                    {
                        "name": "_allowances",
                        "type": "mapping(address => mapping(address => uint256))",
                        "value": {
                            "pairs": [
                                {
                                    "key": "0xcf4a1b4d5ebf4de43f1040848a8ee42f5a16c155",
                                    "value": {
                                        "pairs": [
                                            {
                                                "key": "0xb8c1aaf54751efa11d2d8a5df503b8afb6d80322",
                                                "value": {
                                                    "current": "63329850000000000000000",
                                                    "prev": "0",
                                                    "typeTag": 1
                                                }
                                            }
                                        ],
                                        "typeTag": 4
                                    }
                                }
                            ],
                            "typeTag": 4
                        }
                    }
                ]
            }
        ]
    }
}