{
    "balance_change": {
        "balanceChanges": [
            {
                "account": "0x9492d2f14d6d4d562a9da4793b347f2aab3b607a",
                "assets": [
                    {
                        "address": "0x3d9e412ea9811e457ca79e439b9251e2e4ab98a6",
                        "amount": "3,833,333",
                        "iconUrl": "",
                        "isERC1155": false,
                        "isERC721": false,
                        "sign": false,
                        "value": ""
                    }
                ]
            },
            {
                "account": "0x704cae0d6384ce0a2851f863485268601d2ba351",
                "assets": [
                    {
                        "address": "0x3d9e412ea9811e457ca79e439b9251e2e4ab98a6",
                        "amount": "3,833,333",
                        "iconUrl": "",
                        "isERC1155": false,
                        "isERC721": false,
                        "sign": true,
                        "value": ""
                    }
                ]
            }
        ]
    },
    "profile": {
        "basic_info": {
            "baseFee": "",
            "blockNumber": 9938917,
            "callData": "0x8d6aad28000000000000000000000000000000000000000000000000000000000000005c",
            "debugEnable": true,
            "errorInfo": "",
            "eventCount": 2,
            "feeRecipient": "0xea674fdde714fd979de3edf0f56aa9716b898ec8",
            "formatValue": "0",
            "gasLimit": 60246,
            "gasPrice": "3.3",
            "gasUsed": 60246,
            "intTxnCount": 0,
            "internalRevert": false,
            "internalRevertMessage": "",
            "isContractCreation": false,
            "isFlashloan": false,
            "maxFee": "",
            "nonce": 1230,
            "overwritedBlockNumber": -1,
            "priorityFee": "",
            "receiver": "0x3d9e412ea9811e457ca79e439b9251e2e4ab98a6",
            "revertMessage": "",
            "sender": "0x0aaf0fed5658778fa2830ae9ca3a813576ae37c9",
            "simulationEnable": true,
            "sourceTxnHash": "0x33535b4cad5cd7658091841411807a04f0e3fd193c7a5ce81207b1082d4af168",
            "status": true,
            "timestamp": "2020-04-25T02:18:55Z",
            "transactionFee": "0.0001988118",
            "txnHash": "0x33535b4cad5cd7658091841411807a04f0e3fd193c7a5ce81207b1082d4af168",
            "txnIndex": 36,
            "type": 0,
            "value": "0"
        },
        "fund_flow": [
            {
                "amount": "3,833,333",
                "from": "0x9492d2f14d6d4d562a9da4793b347f2aab3b607a",
                "id": 1,
                "isERC1155": false,
                "isERC721": false,
                "isReverted": false,
                "order": 1,
                "to": "0x704cae0d6384ce0a2851f863485268601d2ba351",
                "token": "0x3d9e412ea9811e457ca79e439b9251e2e4ab98a6"
            }
        ],
        "token_infos": [
            {
                "address": "0xc02aaa39b223fe8d0a0e5c4f27ead9083c756cc2",
                "decimals": 18
            },
            {
                "address": "0xeeeeeeeeeeeeeeeeeeeeeeeeeeeeeeeeeeeeeeee",
                "decimals": 18
            }
        ]
    },
    "address_label": {
        "labels": [
            {
                "address": "0xeeeeeeeeeeeeeeeeeeeeeeeeeeeeeeeeeeeeeeee",
                "label": "Ether"
            },
            {
                "address": "0x3d9e412ea9811e457ca79e439b9251e2e4ab98a6",
                "label": "CtgToken"
            },
            {
                "address": "0x0000000000000000000000000000000000000001",
                "label": "Precompiled"
            },
            {
                "address": "0x0000000000000000000000000000000000000002",
                "label": "Precompiled"
            },
            {
                "address": "0x0000000000000000000000000000000000000003",
                "label": "Precompiled"
            },
            {
                "address": "0x0000000000000000000000000000000000000004",
                "label": "Precompiled"
            }
        ]
    },
    "trace": {
        "accountLabels": null,
        "dataMap": {
            "-1": {
                "invocation": {
                    "address": "0x0aaf0fed5658778fa2830ae9ca3a813576ae37c9",
                    "callData": "",
                    "decodedMethod": null,
                    "errorInfo": "",
                    "fromAddress": "",
                    "gasUsed": 0,
                    "id": -1,
                    "methodDecoded": false,
                    "operation": "",
                    "output": "",
                    "revert": false,
                    "revertMessage": "",
                    "selector": "",
                    "status": false,
                    "value": ""
                },
                "nodeType": 0
            },
            "0": {
                "invocation": {
                    "address": "0x3d9e412ea9811e457ca79e439b9251e2e4ab98a6",
                    "callData": "0x000000000000000000000000000000000000000000000000000000000000005c",
                    "decodedMethod": {
                        "callParams": [
                            {
                                "name": "index",
                                "type": "uint256",
                                "value": "92"
                            }
                        ],
                        "constructorArguments": "",
                        "name": "releaseProfit",
                        "returnParams": [],
                        "signature": "releaseProfit(uint256)"
                    },
                    "errorInfo": "",
                    "fromAddress": "0x0aaf0fed5658778fa2830ae9ca3a813576ae37c9",
                    "gasUsed": 60246,
                    "id": 0,
                    "methodDecoded": true,
                    "operation": "CALL",
                    "output": "",
                    "revert": false,
                    "revertMessage": "",
                    "selector": "0x8d6aad28",
                    "status": true,
                    "value": "0"
                },
                "nodeType": 0
            },
            "1": {
                "event": {
                    "contract": "0x3d9e412ea9811e457ca79e439b9251e2e4ab98a6",
                    "decodedLog": {
                        "name": "Transfer",
                        "params": [
                            {
                                "name": "from",
                                "type": "address",
                                "value": "0x9492d2f14d6d4d562a9da4793b347f2aab3b607a"
                            },
                            {
                                "name": "to",
                                "type": "address",
                                "value": "0x704cae0d6384ce0a2851f863485268601d2ba351"
                            },
                            {
                                "decimalAvailable": true,
                                "name": "value",
                                "type": "uint256",
                                "value": "3,833,333"
                            }
                        ],
                        "signature": "Transfer(address,address,uint256)"
                    },
                    "id": 1,
                    "logData": "0x00000000000000000000000000000000000000000000000000000000003a7df5",
                    "logDecoded": true,
                    "operation": "EVENT",
                    "revert": false,
                    "status": true,
                    "topics": [
                        "0xddf252ad1be2c89b69c2b068fc378daa952ba7f163c4a11628f55a4df523b3ef",
                        "0x0000000000000000000000009492d2f14d6d4d562a9da4793b347f2aab3b607a",
                        "0x000000000000000000000000704cae0d6384ce0a2851f863485268601d2ba351"
                    ]
                },
                "nodeType": 1
            },
            "2": {
                "event": {
                    "contract": "0x3d9e412ea9811e457ca79e439b9251e2e4ab98a6",
                    "decodedLog": {
                        "name": "ReleaseProfit",
                        "params": [
                            {
                                "name": "_address",
                                "type": "address",
                                "value": "0x704cae0d6384ce0a2851f863485268601d2ba351"
                            },
                            {
                                "name": "num",
                                "type": "uint256",
                                "value": "3,833,333"
                            },
                            {
                                "name": "day",
                                "type": "uint8",
                                "value": "23"
                            }
                        ],
                        "signature": "ReleaseProfit(address,uint256,uint8)"
                    },
                    "id": 2,
                    "logData": "0x000000000000000000000000704cae0d6384ce0a2851f863485268601d2ba35100000000000000000000000000000000000000000000000000000000003a7df50000000000000000000000000000000000000000000000000000000000000017",
                    "logDecoded": true,
                    "operation": "EVENT",
                    "revert": false,
                    "status": true,
                    "topics": [
                        "0xc99b2cf0d0c34edcf463d0313c28ec0521816fe652b31a9122c66f326de9766d"
                    ]
                },
                "nodeType": 1
            }
        },
        "gasFlame": [
            {
                "children": [
                    {
                        "children": [
                            {
                                "children": [],
                                "depth": 0,
                                "name": "Initial Gas",
                                "value": 21204
                            },
                            {
                                "children": [],
                                "depth": 0,
                                "name": "Executed Gas",
                                "value": 39042
                            }
                        ],
                        "depth": -1,
                        "name": "Actual Gas Used",
                        "value": 60246
                    },
                    {
                        "children": [],
                        "depth": -1,
                        "name": "Refunded Gas",
                        "value": 0
                    }
                ],
                "depth": -2,
                "name": "Total Gas",
                "value": 60246
            }
        ],
        "isConfirmed": true,
        "mainTrace": [
            {
                "children": [
                    {
                        "children": [
                            {
                                "children": [],
                                "depth": 1,
                                "id": 1,
                                "order": 1
                            },
                            {
                                "children": [],
                                "depth": 1,
                                "id": 2,
                                "order": 2
                            }
                        ],
                        "depth": 0,
                        "id": 0,
                        "order": 0
                    }
                ],
                "depth": -1,
                "id": -1,
                "order": -1
            }
        ],
        "mainTraceNodeCount": 3,
        "parentIdMap": {
            "0": -1,
            "1": 0,
            "2": 0
        },
        "tidyTrace": [
            {
                "children": [
                    {
                        "children": [
                            {
                                "children": [],
                                "depth": 1,
                                "id": 1,
                                "order": 1
                            },
                            {
                                "children": [],
                                "depth": 1,
                                "id": 2,
                                "order": 2
                            }
                        ],
                        "depth": 0,
                        "id": 0,
                        "order": 0
                    }
                ],
                "depth": -1,
                "id": -1,
                "order": -1
            }
        ],
        "tidyTraceNodeCount": 3
    },
    "state_change": {
        "stateChanges": [
            {
                "address": "0x3d9e412ea9811e457ca79e439b9251e2e4ab98a6",
                "erc": "ERC-20",
                "slots": [
                    {
                        "current": "0x000000000000000000000000000000000000000000000000000000005ea39e0f",
                        "key": "0x2448bb09ff7795271ef5d5b8388361903bdd2224a1bc53f84a4e9bab2a9f8054",
                        "prev": "0x000000000000000000000000000000000000000000000000000000005ea24c7a"
                    },
                    {
                        "current": "0x00000000000000000000000000000000000000000000000000003108634418e4",
                        "key": "0x3b794e697d5fb190f7d739b80db10ab910184cfc7a336c20dc23f502639ec9b1",
                        "prev": "0x00000000000000000000000000000000000000000000000000003108637e96d9"
                    },
                    {
                        "current": "0x0000000000000000000000000000000000000000000000000000000000760d53",
                        "key": "0x0f84a0a94c7163d9b5e72d2ffe2ae1089dded4191803e22c5d3701ee6beb53c1",
                        "prev": "0x00000000000000000000000000000000000000000000000000000000003b8f5e"
                    },
                    {
                        "current": "0x0000000000000000000000000000000000000000000000000000000000170f1e",
                        "key": "0x2448bb09ff7795271ef5d5b8388361903bdd2224a1bc53f84a4e9bab2a9f8053",
                        "prev": "0x0000000000000000000000000000000000000000000000000000000000160f1e"
                    }
                ],
                "storageVariables": [
                    {
                        "name": "balances",
                        "type": "mapping(address => uint256)",
                        "value": {
                            "pairs": [
                                {
                                    "key": "0x704cae0d6384ce0a2851f863485268601d2ba351",
                                    "value": {
                                        "current": "7736659",
                                        "prev": "3903326",
                                        "typeTag": 1
                                    }
                                },
                                {
                                    "key": "0x9492d2f14d6d4d562a9da4793b347f2aab3b607a",
                                    "value": {
                                        "current": "53912094906596",
                                        "prev": "53912098739929",
                                        "typeTag": 1
                                    }
                                }
                            ],
                            "typeTag": 4
                        }
                    },
                    {
                        "name": "profitLogs",
                        "type": "mapping(uint256 => struct CtgToken.ProfitLog)",
                        "value": {
                            "pairs": [
                                {
                                    "key": "92",
                                    "value": {
                                        "fields": [
                                            {
                                                "name": "day",
                                                "type": "uint8",
                                                "value": {
                                                    "current": "30",
                                                    "prev": "30",
                                                    "typeTag": 1
                                                }
                                            },
                                            {
                                                "name": "rate",
                                                "type": "uint8",
                                                "value": {
                                                    "current": "15",
                                                    "prev": "15",
                                                    "typeTag": 1
                                                }
                                            },
                                            {
                                                "name": "getDay",
                                                "type": "uint8",
                                                "value": {
                                                    "current": "23",
                                                    "prev": "22",
                                                    "typeTag": 1
                                                }
                                            },
                                            {
                                                "name": "updatedAt",
                                                "type": "uint256",
                                                "value": {
                                                    "current": "1587781135",
                                                    "prev": "1587694714",
                                                    "typeTag": 1
                                                }
                                            }
                                        ],
                                        "typeTag": 3
                                    }
                                }
                            ],
                            "typeTag": 4
                        }
                    }
                ]
            }
        ]
    }
}