{
    "balance_change": {
        "balanceChanges": [
            {
                "account": "0x207230a254826937703ee33c6ba432428d83775d",
                "assets": [
                    {
                        "address": "0xeeeeeeeeeeeeeeeeeeeeeeeeeeeeeeeeeeeeeeee",
                        "amount": "0.46",
                        "iconUrl": "https://assets.blocksec.com/image/1663669189317-3.png",
                        "isERC1155": false,
                        "isERC721": false,
                        "sign": true,
                        "value": "1067.554631"
                    }
                ]
            },
            {
                "account": "0x40ad8239cef96f823f5a6c551e841fdab4685e45",
                "assets": [
                    {
                        "address": "0xeeeeeeeeeeeeeeeeeeeeeeeeeeeeeeeeeeeeeeee",
                        "amount": "0.022",
                        "iconUrl": "https://assets.blocksec.com/image/1663669189317-3.png",
                        "isERC1155": false,
                        "isERC721": false,
                        "sign": true,
                        "value": "51.05696059"
                    }
                ]
            },
            {
                "account": "0x46ac387d94f01027d81d98ffb153f6de0c1735b0",
                "assets": [
                    {
                        "address": "0xeeeeeeeeeeeeeeeeeeeeeeeeeeeeeeeeeeeeeeee",
                        "amount": "47.1033",
                        "iconUrl": "https://assets.blocksec.com/image/1663669189317-3.png",
                        "isERC1155": false,
                        "isERC721": false,
                        "sign": true,
                        "value": "109315.9696"
                    }
                ]
            },
            {
                "account": "0xae0ee0a63a2ce6baeeffe56e7714fb4efe48d419",
                "assets": [
                    {
                        "address": "0xeeeeeeeeeeeeeeeeeeeeeeeeeeeeeeeeeeeeeeee",
                        "amount": "47.6063",
                        "iconUrl": "https://assets.blocksec.com/image/1663669189317-3.png",
                        "isERC1155": false,
                        "isERC721": false,
                        "sign": false,
                        "value": "110483.3174"
                    }
                ]
            },
            {
                "account": "0xf1fe1aa451e05e19e6d1ee54b6ff56634c2cbe87",
                "assets": [
                    {
                        "address": "0xeeeeeeeeeeeeeeeeeeeeeeeeeeeeeeeeeeeeeeee",
                        "amount": "0.021",
                        "iconUrl": "https://assets.blocksec.com/image/1663669189317-3.png",
                        "isERC1155": false,
                        "isERC721": false,
                        "sign": true,
                        "value": "48.73618965"
                    }
                ]
            }
        ]
    },
    "profile": {
        "basic_info": {
            "baseFee": "16.182855701",
            "blockNumber": 19146325,
            "callData": "0x2adcd7af0000000000000000000000000000000000000000000000000000000000000000000000000000000000000000000000000000000000000000000000000000004000000000000000000000000000000000000000000000000000000000000000040000000000000000000000000000000000000000000000000000000000000080000000000000000000000000000000000000000000000000000000000000016000000000000000000000000000000000000000000000000000000000000002400000000000000000000000000000000000000000000000000000000000000320000000000000000000000000ae0ee0a63a2ce6baeeffe56e7714fb4efe48d419000000000000000000000000000000000000000000000000000000000000006000000000000000000000000000000000000000000000000000000000000157c0000000000000000000000000000000000000000000000000000000000000004400f714ce00000000000000000000000000000000000000000000000006623f9014ae0000000000000000000000000000207230a254826937703ee33c6ba432428d83775d00000000000000000000000000000000000000000000000000000000000000000000000000000000ae0ee0a63a2ce6baeeffe56e7714fb4efe48d419000000000000000000000000000000000000000000000000000000000000006000000000000000000000000000000000000000000000000000000000000157c0000000000000000000000000000000000000000000000000000000000000004400f714ce0000000000000000000000000000000000000000000000028db089c938a8400000000000000000000000000046ac387d94f01027d81d98ffb153f6de0c1735b000000000000000000000000000000000000000000000000000000000000000000000000000000000ae0ee0a63a2ce6baeeffe56e7714fb4efe48d419000000000000000000000000000000000000000000000000000000000000006000000000000000000000000000000000000000000000000000000000000157c0000000000000000000000000000000000000000000000000000000000000004400f714ce000000000000000000000000000000000000000000000000004a9b6384488000000000000000000000000000f1fe1aa451e05e19e6d1ee54b6ff56634c2cbe8700000000000000000000000000000000000000000000000000000000000000000000000000000000ae0ee0a63a2ce6baeeffe56e7714fb4efe48d419000000000000000000000000000000000000000000000000000000000000006000000000000000000000000000000000000000000000000000000000000157c0000000000000000000000000000000000000000000000000000000000000004400f714ce000000000000000000000000000000000000000000000000004e28e2290f000000000000000000000000000040ad8239cef96f823f5a6c551e841fdab4685e4500000000000000000000000000000000000000000000000000000000",
            "debugEnable": true,
            "errorInfo": "",
            "eventCount": 8,
            "feeRecipient": "0x95222290dd7278aa3ddd389cc1e1d165cc4bafe5",
            "formatValue": "0",
            "gasLimit": 412000,
            "gasPrice": "17.682855701",
            "gasUsed": 144299,
            "intTxnCount": 20,
            "internalRevert": false,
            "internalRevertMessage": "",
            "isContractCreation": false,
            "isFlashloan": false,
            "maxFee": "34.08659037",
            "nonce": 3624,
            "overwritedBlockNumber": -1,
            "priorityFee": "1.5",
            "receiver": "0x3bec1fc3556cbdfd9ebf9ff398ef0434f1d7ad03",
            "revertMessage": "",
            "sender": "0x8325cfbca4625e362202417e65d28756ba7b46bf",
            "simulationEnable": true,
            "sourceTxnHash": "0x33f45e1fba9deeb26b898438ef85a80dd07f33f0106f0b820741fbad188d09d1",
            "status": true,
            "timestamp": "2024-02-03T07:24:23Z",
            "transactionFee": "0.002551618394798599",
            "txnHash": "0x33f45e1fba9deeb26b898438ef85a80dd07f33f0106f0b820741fbad188d09d1",
            "txnIndex": 26,
            "type": 2,
            "value": "0"
        },
        "fund_flow": [
            {
                "amount": "0.46",
                "from": "0xae0ee0a63a2ce6baeeffe56e7714fb4efe48d419",
                "id": 1,
                "isERC1155": false,
                "isERC721": false,
                "isReverted": false,
                "order": 1,
                "to": "0x207230a254826937703ee33c6ba432428d83775d",
                "token": "0xeeeeeeeeeeeeeeeeeeeeeeeeeeeeeeeeeeeeeeee"
            },
            {
                "amount": "47.1033",
                "from": "0xae0ee0a63a2ce6baeeffe56e7714fb4efe48d419",
                "id": 2,
                "isERC1155": false,
                "isERC721": false,
                "isReverted": false,
                "order": 2,
                "to": "0x46ac387d94f01027d81d98ffb153f6de0c1735b0",
                "token": "0xeeeeeeeeeeeeeeeeeeeeeeeeeeeeeeeeeeeeeeee"
            },
            {
                "amount": "0.021",
                "from": "0xae0ee0a63a2ce6baeeffe56e7714fb4efe48d419",
                "id": 3,
                "isERC1155": false,
                "isERC721": false,
                "isReverted": false,
                "order": 3,
                "to": "0xf1fe1aa451e05e19e6d1ee54b6ff56634c2cbe87",
                "token": "0xeeeeeeeeeeeeeeeeeeeeeeeeeeeeeeeeeeeeeeee"
            },
            {
                "amount": "0.022",
                "from": "0xae0ee0a63a2ce6baeeffe56e7714fb4efe48d419",
                "id": 4,
                "isERC1155": false,
                "isERC721": false,
                "isReverted": false,
                "order": 4,
                "to": "0x40ad8239cef96f823f5a6c551e841fdab4685e45",
                "token": "0xeeeeeeeeeeeeeeeeeeeeeeeeeeeeeeeeeeeeeeee"
            }
        ],
        "token_infos": [
            {
                "address": "0xc02aaa39b223fe8d0a0e5c4f27ead9083c756cc2",
                "decimals": 18
            },
            {
                "address": "0xeeeeeeeeeeeeeeeeeeeeeeeeeeeeeeeeeeeeeeee",
                "decimals": 18
            }
        ]
    },
    "address_label": {
        "labels": [
            {
                "address": "0xae0ee0a63a2ce6baeeffe56e7714fb4efe48d419",
                "label": "StarkNet: StarkGate ETH Bridge"
            },
            {
                "address": "0x3bec1fc3556cbdfd9ebf9ff398ef0434f1d7ad03",
                "label": "Multicall"
            },
            {
                "address": "0x16938e4b59297060484fa56a12594d8d6f4177e8",
                "label": "Starknet"
            },
            {
                "address": "0x455603ad9ae671f6c1f0f746f24d7904ca603581",
                "label": "StarknetEthBridge"
            },
            {
                "address": "0x0000000000000000000000000000000000000001",
                "label": "Precompiled"
            },
            {
                "address": "0x0000000000000000000000000000000000000002",
                "label": "Precompiled"
            },
            {
                "address": "0x0000000000000000000000000000000000000003",
                "label": "Precompiled"
            },
            {
                "address": "0xeeeeeeeeeeeeeeeeeeeeeeeeeeeeeeeeeeeeeeee",
                "label": "Ether"
            },
            {
                "address": "0xc662c410c0ecf747543f5ba90660f6abebd9c8c4",
                "label": "Starknet: Core Contract"
            },
            {
                "address": "0x0000000000000000000000000000000000000004",
                "label": "Precompiled"
            }
        ]
    },
    "trace": {
        "accountLabels": null,
        "dataMap": {
            "-1": {
                "invocation": {
                    "address": "0x8325cfbca4625e362202417e65d28756ba7b46bf",
                    "callData": "",
                    "decodedMethod": null,
                    "errorInfo": "",
                    "fromAddress": "",
                    "gasUsed": 0,
                    "id": -1,
                    "methodDecoded": false,
                    "operation": "",
                    "output": "",
                    "revert": false,
                    "revertMessage": "",
                    "selector": "",
                    "status": false,
                    "value": ""
                },
                "nodeType": 0
            },
            "0": {
                "invocation": {
                    "address": "0x3bec1fc3556cbdfd9ebf9ff398ef0434f1d7ad03",
                    "callData": "0x0000000000000000000000000000000000000000000000000000000000000000000000000000000000000000000000000000000000000000000000000000004000000000000000000000000000000000000000000000000000000000000000040000000000000000000000000000000000000000000000000000000000000080000000000000000000000000000000000000000000000000000000000000016000000000000000000000000000000000000000000000000000000000000002400000000000000000000000000000000000000000000000000000000000000320000000000000000000000000ae0ee0a63a2ce6baeeffe56e7714fb4efe48d419000000000000000000000000000000000000000000000000000000000000006000000000000000000000000000000000000000000000000000000000000157c0000000000000000000000000000000000000000000000000000000000000004400f714ce00000000000000000000000000000000000000000000000006623f9014ae0000000000000000000000000000207230a254826937703ee33c6ba432428d83775d00000000000000000000000000000000000000000000000000000000000000000000000000000000ae0ee0a63a2ce6baeeffe56e7714fb4efe48d419000000000000000000000000000000000000000000000000000000000000006000000000000000000000000000000000000000000000000000000000000157c0000000000000000000000000000000000000000000000000000000000000004400f714ce0000000000000000000000000000000000000000000000028db089c938a8400000000000000000000000000046ac387d94f01027d81d98ffb153f6de0c1735b000000000000000000000000000000000000000000000000000000000000000000000000000000000ae0ee0a63a2ce6baeeffe56e7714fb4efe48d419000000000000000000000000000000000000000000000000000000000000006000000000000000000000000000000000000000000000000000000000000157c0000000000000000000000000000000000000000000000000000000000000004400f714ce000000000000000000000000000000000000000000000000004a9b6384488000000000000000000000000000f1fe1aa451e05e19e6d1ee54b6ff56634c2cbe8700000000000000000000000000000000000000000000000000000000000000000000000000000000ae0ee0a63a2ce6baeeffe56e7714fb4efe48d419000000000000000000000000000000000000000000000000000000000000006000000000000000000000000000000000000000000000000000000000000157c0000000000000000000000000000000000000000000000000000000000000004400f714ce000000000000000000000000000000000000000000000000004e28e2290f000000000000000000000000000040ad8239cef96f823f5a6c551e841fdab4685e4500000000000000000000000000000000000000000000000000000000",
                    "decodedMethod": {
                        "callParams": [
                            {
                                "name": "requireSuccess",
                                "type": "bool",
                                "value": false
                            },
                            {
                                "name": "calls",
                                "type": "(address,bytes,uint256)[]",
                                "value": [
                                    [
                                        {
                                            "name": "target",
                                            "type": "address",
                                            "value": "0xae0ee0a63a2ce6baeeffe56e7714fb4efe48d419"
                                        },
                                        {
                                            "name": "callData",
                                            "type": "bytes",
                                            "value": "0x00f714ce00000000000000000000000000000000000000000000000006623f9014ae0000000000000000000000000000207230a254826937703ee33c6ba432428d83775d"
                                        },
                                        {
                                            "name": "gas",
                                            "type": "uint256",
                                            "value": "88,000"
                                        }
                                    ],
                                    [
                                        {
                                            "name": "target",
                                            "type": "address",
                                            "value": "0xae0ee0a63a2ce6baeeffe56e7714fb4efe48d419"
                                        },
                                        {
                                            "name": "callData",
                                            "type": "bytes",
                                            "value": "0x00f714ce0000000000000000000000000000000000000000000000028db089c938a8400000000000000000000000000046ac387d94f01027d81d98ffb153f6de0c1735b0"
                                        },
                                        {
                                            "name": "gas",
                                            "type": "uint256",
                                            "value": "88,000"
                                        }
                                    ],
                                    [
                                        {
                                            "name": "target",
                                            "type": "address",
                                            "value": "0xae0ee0a63a2ce6baeeffe56e7714fb4efe48d419"
                                        },
                                        {
                                            "name": "callData",
                                            "type": "bytes",
                                            "value": "0x00f714ce000000000000000000000000000000000000000000000000004a9b6384488000000000000000000000000000f1fe1aa451e05e19e6d1ee54b6ff56634c2cbe87"
                                        },
                                        {
                                            "name": "gas",
                                            "type": "uint256",
                                            "value": "88,000"
                                        }
                                    ],
                                    [
                                        {
                                            "name": "target",
                                            "type": "address",
                                            "value": "0xae0ee0a63a2ce6baeeffe56e7714fb4efe48d419"
                                        },
                                        {
                                            "name": "callData",
                                            "type": "bytes",
                                            "value": "0x00f714ce000000000000000000000000000000000000000000000000004e28e2290f000000000000000000000000000040ad8239cef96f823f5a6c551e841fdab4685e45"
                                        },
                                        {
                                            "name": "gas",
                                            "type": "uint256",
                                            "value": "88,000"
                                        }
                                    ]
                                ]
                            }
                        ],
                        "constructorArguments": "",
                        "name": "tryAggregate",
                        "returnParams": [
                            {
                                "name": "returnData",
                                "type": "(bool,bytes)[]",
                                "value": [
                                    [
                                        {
                                            "name": "success",
                                            "type": "bool",
                                            "value": true
                                        },
                                        {
                                            "name": "returnData",
                                            "type": "bytes",
                                            "value": "0x"
                                        }
                                    ],
                                    [
                                        {
                                            "name": "success",
                                            "type": "bool",
                                            "value": true
                                        },
                                        {
                                            "name": "returnData",
                                            "type": "bytes",
                                            "value": "0x"
                                        }
                                    ],
                                    [
                                        {
                                            "name": "success",
                                            "type": "bool",
                                            "value": true
                                        },
                                        {
                                            "name": "returnData",
                                            "type": "bytes",
                                            "value": "0x"
                                        }
                                    ],
                                    [
                                        {
                                            "name": "success",
                                            "type": "bool",
                                            "value": true
                                        },
                                        {
                                            "name": "returnData",
                                            "type": "bytes",
                                            "value": "0x"
                                        }
                                    ]
                                ]
                            }
                        ],
                        "signature": "tryAggregate(bool,(address,bytes,uint256)[])"
                    },
                    "errorInfo": "",
                    "fromAddress": "0x8325cfbca4625e362202417e65d28756ba7b46bf",
                    "gasUsed": 144299,
                    "id": 0,
                    "methodDecoded": true,
                    "operation": "CALL",
                    "output": "0x00000000000000000000000000000000000000000000000000000000000000200000000000000000000000000000000000000000000000000000000000000004000000000000000000000000000000000000000000000000000000000000008000000000000000000000000000000000000000000000000000000000000000e0000000000000000000000000000000000000000000000000000000000000014000000000000000000000000000000000000000000000000000000000000001a0000000000000000000000000000000000000000000000000000000000000000100000000000000000000000000000000000000000000000000000000000000400000000000000000000000000000000000000000000000000000000000000000000000000000000000000000000000000000000000000000000000000000000100000000000000000000000000000000000000000000000000000000000000400000000000000000000000000000000000000000000000000000000000000000000000000000000000000000000000000000000000000000000000000000000100000000000000000000000000000000000000000000000000000000000000400000000000000000000000000000000000000000000000000000000000000000000000000000000000000000000000000000000000000000000000000000000100000000000000000000000000000000000000000000000000000000000000400000000000000000000000000000000000000000000000000000000000000000",
                    "revert": false,
                    "revertMessage": "",
                    "selector": "0x2adcd7af",
                    "status": true,
                    "value": "0"
                },
                "nodeType": 0
            },
            "1": {
                "invocation": {
                    "address": "0xae0ee0a63a2ce6baeeffe56e7714fb4efe48d419",
                    "callData": "0x00000000000000000000000000000000000000000000000006623f9014ae0000000000000000000000000000207230a254826937703ee33c6ba432428d83775d",
                    "decodedMethod": {
                        "callParams": [
                            {
                                "name": "amount",
                                "type": "uint256",
                                "value": "460,000,000,000,000,000"
                            },
                            {
                                "name": "recipient",
                                "type": "address",
                                "value": "0x207230a254826937703ee33c6ba432428d83775d"
                            }
                        ],
                        "constructorArguments": "",
                        "name": "withdraw",
                        "returnParams": [],
                        "signature": "withdraw(uint256,address)"
                    },
                    "errorInfo": "",
                    "fromAddress": "0x3bec1fc3556cbdfd9ebf9ff398ef0434f1d7ad03",
                    "gasUsed": 43911,
                    "id": 1,
                    "methodDecoded": true,
                    "operation": "CALL",
                    "output": "",
                    "revert": false,
                    "revertMessage": "",
                    "selector": "0x00f714ce",
                    "status": true,
                    "value": "0"
                },
                "nodeType": 0
            },
            "10": {
                "invocation": {
                    "address": "0xc662c410c0ecf747543f5ba90660f6abebd9c8c4",
                    "callData": "0x073314940630fd6dcda0d772d4c972c4e0a9946bef9dabf4ef84eda8ef542b8200000000000000000000000000000000000000000000000000000000000000400000000000000000000000000000000000000000000000000000000000000004000000000000000000000000000000000000000000000000000000000000000000000000000000000000000046ac387d94f01027d81d98ffb153f6de0c1735b00000000000000000000000000000000000000000000000028db089c938a840000000000000000000000000000000000000000000000000000000000000000000",
                    "decodedMethod": {
                        "callParams": [
                            {
                                "name": "fromAddress",
                                "type": "uint256",
                                "value": "3,256,441,166,037,631,918,262,930,812,410,838,598,500,200,462,657,642,943,867,372,734,773,841,898,370"
                            },
                            {
                                "name": "payload",
                                "type": "uint256[]",
                                "value": [
                                    "0",
                                    "403,470,003,153,096,299,865,336,806,639,181,262,584,995,591,600",
                                    "47,103,300,000,000,000,000",
                                    "0"
                                ]
                            }
                        ],
                        "constructorArguments": "",
                        "name": "consumeMessageFromL2",
                        "returnParams": [
                            {
                                "name": "",
                                "type": "bytes32",
                                "value": "0x2bb12ede5ea510bfc38b0615c2cf4678f2167245453edab9a2ba4bcbc7904c16"
                            }
                        ],
                        "signature": "consumeMessageFromL2(uint256,uint256[])"
                    },
                    "errorInfo": "",
                    "fromAddress": "0xae0ee0a63a2ce6baeeffe56e7714fb4efe48d419",
                    "gasUsed": 11427,
                    "id": 10,
                    "methodDecoded": true,
                    "operation": "CALL",
                    "output": "0x2bb12ede5ea510bfc38b0615c2cf4678f2167245453edab9a2ba4bcbc7904c16",
                    "revert": false,
                    "revertMessage": "",
                    "selector": "0x2c9dd5c0",
                    "status": true,
                    "value": "0"
                },
                "nodeType": 0
            },
            "11": {
                "invocation": {
                    "address": "0x16938e4b59297060484fa56a12594d8d6f4177e8",
                    "callData": "0x073314940630fd6dcda0d772d4c972c4e0a9946bef9dabf4ef84eda8ef542b8200000000000000000000000000000000000000000000000000000000000000400000000000000000000000000000000000000000000000000000000000000004000000000000000000000000000000000000000000000000000000000000000000000000000000000000000046ac387d94f01027d81d98ffb153f6de0c1735b00000000000000000000000000000000000000000000000028db089c938a840000000000000000000000000000000000000000000000000000000000000000000",
                    "decodedMethod": {
                        "callParams": [
                            {
                                "name": "fromAddress",
                                "type": "uint256",
                                "value": "3,256,441,166,037,631,918,262,930,812,410,838,598,500,200,462,657,642,943,867,372,734,773,841,898,370"
                            },
                            {
                                "name": "payload",
                                "type": "uint256[]",
                                "value": [
                                    "0",
                                    "403,470,003,153,096,299,865,336,806,639,181,262,584,995,591,600",
                                    "47,103,300,000,000,000,000",
                                    "0"
                                ]
                            }
                        ],
                        "constructorArguments": "",
                        "name": "consumeMessageFromL2",
                        "returnParams": [
                            {
                                "name": "",
                                "type": "bytes32",
                                "value": "0x2bb12ede5ea510bfc38b0615c2cf4678f2167245453edab9a2ba4bcbc7904c16"
                            }
                        ],
                        "signature": "consumeMessageFromL2(uint256,uint256[])"
                    },
                    "errorInfo": "",
                    "fromAddress": "0xc662c410c0ecf747543f5ba90660f6abebd9c8c4",
                    "gasUsed": 10872,
                    "id": 11,
                    "methodDecoded": true,
                    "operation": "DELEGATECALL",
                    "output": "0x2bb12ede5ea510bfc38b0615c2cf4678f2167245453edab9a2ba4bcbc7904c16",
                    "revert": false,
                    "revertMessage": "",
                    "selector": "0x2c9dd5c0",
                    "status": true,
                    "value": "0"
                },
                "nodeType": 0
            },
            "12": {
                "event": {
                    "contract": "0xc662c410c0ecf747543f5ba90660f6abebd9c8c4",
                    "decodedLog": {
                        "name": "ConsumedMessageToL1",
                        "params": [
                            {
                                "name": "fromAddress",
                                "type": "uint256",
                                "value": "3,256,441,166,037,631,918,262,930,812,410,838,598,500,200,462,657,642,943,867,372,734,773,841,898,370"
                            },
                            {
                                "name": "toAddress",
                                "type": "address",
                                "value": "0xae0ee0a63a2ce6baeeffe56e7714fb4efe48d419"
                            },
                            {
                                "name": "payload",
                                "type": "uint256[]",
                                "value": [
                                    "0",
                                    "403,470,003,153,096,299,865,336,806,639,181,262,584,995,591,600",
                                    "47,103,300,000,000,000,000",
                                    "0"
                                ]
                            }
                        ],
                        "signature": "ConsumedMessageToL1(uint256,address,uint256[])"
                    },
                    "id": 12,
                    "logData": "0x00000000000000000000000000000000000000000000000000000000000000200000000000000000000000000000000000000000000000000000000000000004000000000000000000000000000000000000000000000000000000000000000000000000000000000000000046ac387d94f01027d81d98ffb153f6de0c1735b00000000000000000000000000000000000000000000000028db089c938a840000000000000000000000000000000000000000000000000000000000000000000",
                    "logDecoded": true,
                    "operation": "EVENT",
                    "revert": false,
                    "status": true,
                    "topics": [
                        "0x7a06c571aa77f34d9706c51e5d8122b5595aebeaa34233bfe866f22befb973b1",
                        "0x073314940630fd6dcda0d772d4c972c4e0a9946bef9dabf4ef84eda8ef542b82",
                        "0x000000000000000000000000ae0ee0a63a2ce6baeeffe56e7714fb4efe48d419"
                    ]
                },
                "nodeType": 1
            },
            "13": {
                "invocation": {
                    "address": "0x46ac387d94f01027d81d98ffb153f6de0c1735b0",
                    "callData": "0x",
                    "decodedMethod": null,
                    "errorInfo": "",
                    "fromAddress": "0xae0ee0a63a2ce6baeeffe56e7714fb4efe48d419",
                    "gasUsed": 0,
                    "id": 13,
                    "methodDecoded": false,
                    "operation": "CALL",
                    "output": "",
                    "revert": false,
                    "revertMessage": "",
                    "selector": "fallback",
                    "status": true,
                    "value": "47.1033"
                },
                "nodeType": 0
            },
            "14": {
                "event": {
                    "contract": "0xae0ee0a63a2ce6baeeffe56e7714fb4efe48d419",
                    "decodedLog": {
                        "name": "LogWithdrawal",
                        "params": [
                            {
                                "name": "recipient",
                                "type": "address",
                                "value": "0x46ac387d94f01027d81d98ffb153f6de0c1735b0"
                            },
                            {
                                "name": "amount",
                                "type": "uint256",
                                "value": "47,103,300,000,000,000,000"
                            }
                        ],
                        "signature": "LogWithdrawal(address,uint256)"
                    },
                    "id": 14,
                    "logData": "0x0000000000000000000000000000000000000000000000028db089c938a84000",
                    "logDecoded": true,
                    "operation": "EVENT",
                    "revert": false,
                    "status": true,
                    "topics": [
                        "0xb4214c8c54fc7442f36d3682f59aebaf09358a4431835b30efb29d52cf9e1e91",
                        "0x00000000000000000000000046ac387d94f01027d81d98ffb153f6de0c1735b0"
                    ]
                },
                "nodeType": 1
            },
            "15": {
                "invocation": {
                    "address": "0xae0ee0a63a2ce6baeeffe56e7714fb4efe48d419",
                    "callData": "0x000000000000000000000000000000000000000000000000004a9b6384488000000000000000000000000000f1fe1aa451e05e19e6d1ee54b6ff56634c2cbe87",
                    "decodedMethod": {
                        "callParams": [
                            {
                                "name": "amount",
                                "type": "uint256",
                                "value": "21,000,000,000,000,000"
                            },
                            {
                                "name": "recipient",
                                "type": "address",
                                "value": "0xf1fe1aa451e05e19e6d1ee54b6ff56634c2cbe87"
                            }
                        ],
                        "constructorArguments": "",
                        "name": "withdraw",
                        "returnParams": [],
                        "signature": "withdraw(uint256,address)"
                    },
                    "errorInfo": "",
                    "fromAddress": "0x3bec1fc3556cbdfd9ebf9ff398ef0434f1d7ad03",
                    "gasUsed": 26411,
                    "id": 15,
                    "methodDecoded": true,
                    "operation": "CALL",
                    "output": "",
                    "revert": false,
                    "revertMessage": "",
                    "selector": "0x00f714ce",
                    "status": true,
                    "value": "0"
                },
                "nodeType": 0
            },
            "16": {
                "invocation": {
                    "address": "0x455603ad9ae671f6c1f0f746f24d7904ca603581",
                    "callData": "0x000000000000000000000000000000000000000000000000004a9b6384488000000000000000000000000000f1fe1aa451e05e19e6d1ee54b6ff56634c2cbe87",
                    "decodedMethod": {
                        "callParams": [
                            {
                                "name": "amount",
                                "type": "uint256",
                                "value": "21,000,000,000,000,000"
                            },
                            {
                                "name": "recipient",
                                "type": "address",
                                "value": "0xf1fe1aa451e05e19e6d1ee54b6ff56634c2cbe87"
                            }
                        ],
                        "constructorArguments": "",
                        "name": "withdraw",
                        "returnParams": [],
                        "signature": "withdraw(uint256,address)"
                    },
                    "errorInfo": "",
                    "fromAddress": "0xae0ee0a63a2ce6baeeffe56e7714fb4efe48d419",
                    "gasUsed": 25889,
                    "id": 16,
                    "methodDecoded": true,
                    "operation": "DELEGATECALL",
                    "output": "",
                    "revert": false,
                    "revertMessage": "",
                    "selector": "0x00f714ce",
                    "status": true,
                    "value": "0"
                },
                "nodeType": 0
            },
            "17": {
                "invocation": {
                    "address": "0xc662c410c0ecf747543f5ba90660f6abebd9c8c4",
                    "callData": "0x073314940630fd6dcda0d772d4c972c4e0a9946bef9dabf4ef84eda8ef542b82000000000000000000000000000000000000000000000000000000000000004000000000000000000000000000000000000000000000000000000000000000040000000000000000000000000000000000000000000000000000000000000000000000000000000000000000f1fe1aa451e05e19e6d1ee54b6ff56634c2cbe87000000000000000000000000000000000000000000000000004a9b63844880000000000000000000000000000000000000000000000000000000000000000000",
                    "decodedMethod": {
                        "callParams": [
                            {
                                "name": "fromAddress",
                                "type": "uint256",
                                "value": "3,256,441,166,037,631,918,262,930,812,410,838,598,500,200,462,657,642,943,867,372,734,773,841,898,370"
                            },
                            {
                                "name": "payload",
                                "type": "uint256[]",
                                "value": [
                                    "0",
                                    "1,381,533,485,883,546,955,171,990,703,654,160,775,585,182,039,687",
                                    "21,000,000,000,000,000",
                                    "0"
                                ]
                            }
                        ],
                        "constructorArguments": "",
                        "name": "consumeMessageFromL2",
                        "returnParams": [
                            {
                                "name": "",
                                "type": "bytes32",
                                "value": "0xcd2640d7f8ecab0405a23867e1c664f1951abf7c05c7b2f2a6108f9bb78699b6"
                            }
                        ],
                        "signature": "consumeMessageFromL2(uint256,uint256[])"
                    },
                    "errorInfo": "",
                    "fromAddress": "0xae0ee0a63a2ce6baeeffe56e7714fb4efe48d419",
                    "gasUsed": 11427,
                    "id": 17,
                    "methodDecoded": true,
                    "operation": "CALL",
                    "output": "0xcd2640d7f8ecab0405a23867e1c664f1951abf7c05c7b2f2a6108f9bb78699b6",
                    "revert": false,
                    "revertMessage": "",
                    "selector": "0x2c9dd5c0",
                    "status": true,
                    "value": "0"
                },
                "nodeType": 0
            },
            "18": {
                "invocation": {
                    "address": "0x16938e4b59297060484fa56a12594d8d6f4177e8",
                    "callData": "0x073314940630fd6dcda0d772d4c972c4e0a9946bef9dabf4ef84eda8ef542b82000000000000000000000000000000000000000000000000000000000000004000000000000000000000000000000000000000000000000000000000000000040000000000000000000000000000000000000000000000000000000000000000000000000000000000000000f1fe1aa451e05e19e6d1ee54b6ff56634c2cbe87000000000000000000000000000000000000000000000000004a9b63844880000000000000000000000000000000000000000000000000000000000000000000",
                    "decodedMethod": {
                        "callParams": [
                            {
                                "name": "fromAddress",
                                "type": "uint256",
                                "value": "3,256,441,166,037,631,918,262,930,812,410,838,598,500,200,462,657,642,943,867,372,734,773,841,898,370"
                            },
                            {
                                "name": "payload",
                                "type": "uint256[]",
                                "value": [
                                    "0",
                                    "1,381,533,485,883,546,955,171,990,703,654,160,775,585,182,039,687",
                                    "21,000,000,000,000,000",
                                    "0"
                                ]
                            }
                        ],
                        "constructorArguments": "",
                        "name": "consumeMessageFromL2",
                        "returnParams": [
                            {
                                "name": "",
                                "type": "bytes32",
                                "value": "0xcd2640d7f8ecab0405a23867e1c664f1951abf7c05c7b2f2a6108f9bb78699b6"
                            }
                        ],
                        "signature": "consumeMessageFromL2(uint256,uint256[])"
                    },
                    "errorInfo": "",
                    "fromAddress": "0xc662c410c0ecf747543f5ba90660f6abebd9c8c4",
                    "gasUsed": 10872,
                    "id": 18,
                    "methodDecoded": true,
                    "operation": "DELEGATECALL",
                    "output": "0xcd2640d7f8ecab0405a23867e1c664f1951abf7c05c7b2f2a6108f9bb78699b6",
                    "revert": false,
                    "revertMessage": "",
                    "selector": "0x2c9dd5c0",
                    "status": true,
                    "value": "0"
                },
                "nodeType": 0
            },
            "19": {
                "event": {
                    "contract": "0xc662c410c0ecf747543f5ba90660f6abebd9c8c4",
                    "decodedLog": {
                        "name": "ConsumedMessageToL1",
                        "params": [
                            {
                                "name": "fromAddress",
                                "type": "uint256",
                                "value": "3,256,441,166,037,631,918,262,930,812,410,838,598,500,200,462,657,642,943,867,372,734,773,841,898,370"
                            },
                            {
                                "name": "toAddress",
                                "type": "address",
                                "value": "0xae0ee0a63a2ce6baeeffe56e7714fb4efe48d419"
                            },
                            {
                                "name": "payload",
                                "type": "uint256[]",
                                "value": [
                                    "0",
                                    "1,381,533,485,883,546,955,171,990,703,654,160,775,585,182,039,687",
                                    "21,000,000,000,000,000",
                                    "0"
                                ]
                            }
                        ],
                        "signature": "ConsumedMessageToL1(uint256,address,uint256[])"
                    },
                    "id": 19,
                    "logData": "0x000000000000000000000000000000000000000000000000000000000000002000000000000000000000000000000000000000000000000000000000000000040000000000000000000000000000000000000000000000000000000000000000000000000000000000000000f1fe1aa451e05e19e6d1ee54b6ff56634c2cbe87000000000000000000000000000000000000000000000000004a9b63844880000000000000000000000000000000000000000000000000000000000000000000",
                    "logDecoded": true,
                    "operation": "EVENT",
                    "revert": false,
                    "status": true,
                    "topics": [
                        "0x7a06c571aa77f34d9706c51e5d8122b5595aebeaa34233bfe866f22befb973b1",
                        "0x073314940630fd6dcda0d772d4c972c4e0a9946bef9dabf4ef84eda8ef542b82",
                        "0x000000000000000000000000ae0ee0a63a2ce6baeeffe56e7714fb4efe48d419"
                    ]
                },
                "nodeType": 1
            },
            "2": {
                "invocation": {
                    "address": "0x455603ad9ae671f6c1f0f746f24d7904ca603581",
                    "callData": "0x00000000000000000000000000000000000000000000000006623f9014ae0000000000000000000000000000207230a254826937703ee33c6ba432428d83775d",
                    "decodedMethod": {
                        "callParams": [
                            {
                                "name": "amount",
                                "type": "uint256",
                                "value": "460,000,000,000,000,000"
                            },
                            {
                                "name": "recipient",
                                "type": "address",
                                "value": "0x207230a254826937703ee33c6ba432428d83775d"
                            }
                        ],
                        "constructorArguments": "",
                        "name": "withdraw",
                        "returnParams": [],
                        "signature": "withdraw(uint256,address)"
                    },
                    "errorInfo": "",
                    "fromAddress": "0xae0ee0a63a2ce6baeeffe56e7714fb4efe48d419",
                    "gasUsed": 38889,
                    "id": 2,
                    "methodDecoded": true,
                    "operation": "DELEGATECALL",
                    "output": "",
                    "revert": false,
                    "revertMessage": "",
                    "selector": "0x00f714ce",
                    "status": true,
                    "value": "0"
                },
                "nodeType": 0
            },
            "20": {
                "invocation": {
                    "address": "0xf1fe1aa451e05e19e6d1ee54b6ff56634c2cbe87",
                    "callData": "0x",
                    "decodedMethod": null,
                    "errorInfo": "",
                    "fromAddress": "0xae0ee0a63a2ce6baeeffe56e7714fb4efe48d419",
                    "gasUsed": 0,
                    "id": 20,
                    "methodDecoded": false,
                    "operation": "CALL",
                    "output": "",
                    "revert": false,
                    "revertMessage": "",
                    "selector": "fallback",
                    "status": true,
                    "value": "0.021"
                },
                "nodeType": 0
            },
            "21": {
                "event": {
                    "contract": "0xae0ee0a63a2ce6baeeffe56e7714fb4efe48d419",
                    "decodedLog": {
                        "name": "LogWithdrawal",
                        "params": [
                            {
                                "name": "recipient",
                                "type": "address",
                                "value": "0xf1fe1aa451e05e19e6d1ee54b6ff56634c2cbe87"
                            },
                            {
                                "name": "amount",
                                "type": "uint256",
                                "value": "21,000,000,000,000,000"
                            }
                        ],
                        "signature": "LogWithdrawal(address,uint256)"
                    },
                    "id": 21,
                    "logData": "0x000000000000000000000000000000000000000000000000004a9b6384488000",
                    "logDecoded": true,
                    "operation": "EVENT",
                    "revert": false,
                    "status": true,
                    "topics": [
                        "0xb4214c8c54fc7442f36d3682f59aebaf09358a4431835b30efb29d52cf9e1e91",
                        "0x000000000000000000000000f1fe1aa451e05e19e6d1ee54b6ff56634c2cbe87"
                    ]
                },
                "nodeType": 1
            },
            "22": {
                "invocation": {
                    "address": "0xae0ee0a63a2ce6baeeffe56e7714fb4efe48d419",
                    "callData": "0x000000000000000000000000000000000000000000000000004e28e2290f000000000000000000000000000040ad8239cef96f823f5a6c551e841fdab4685e45",
                    "decodedMethod": {
                        "callParams": [
                            {
                                "name": "amount",
                                "type": "uint256",
                                "value": "22,000,000,000,000,000"
                            },
                            {
                                "name": "recipient",
                                "type": "address",
                                "value": "0x40ad8239cef96f823f5a6c551e841fdab4685e45"
                            }
                        ],
                        "constructorArguments": "",
                        "name": "withdraw",
                        "returnParams": [],
                        "signature": "withdraw(uint256,address)"
                    },
                    "errorInfo": "",
                    "fromAddress": "0x3bec1fc3556cbdfd9ebf9ff398ef0434f1d7ad03",
                    "gasUsed": 26411,
                    "id": 22,
                    "methodDecoded": true,
                    "operation": "CALL",
                    "output": "",
                    "revert": false,
                    "revertMessage": "",
                    "selector": "0x00f714ce",
                    "status": true,
                    "value": "0"
                },
                "nodeType": 0
            },
            "23": {
                "invocation": {
                    "address": "0x455603ad9ae671f6c1f0f746f24d7904ca603581",
                    "callData": "0x000000000000000000000000000000000000000000000000004e28e2290f000000000000000000000000000040ad8239cef96f823f5a6c551e841fdab4685e45",
                    "decodedMethod": {
                        "callParams": [
                            {
                                "name": "amount",
                                "type": "uint256",
                                "value": "22,000,000,000,000,000"
                            },
                            {
                                "name": "recipient",
                                "type": "address",
                                "value": "0x40ad8239cef96f823f5a6c551e841fdab4685e45"
                            }
                        ],
                        "constructorArguments": "",
                        "name": "withdraw",
                        "returnParams": [],
                        "signature": "withdraw(uint256,address)"
                    },
                    "errorInfo": "",
                    "fromAddress": "0xae0ee0a63a2ce6baeeffe56e7714fb4efe48d419",
                    "gasUsed": 25889,
                    "id": 23,
                    "methodDecoded": true,
                    "operation": "DELEGATECALL",
                    "output": "",
                    "revert": false,
                    "revertMessage": "",
                    "selector": "0x00f714ce",
                    "status": true,
                    "value": "0"
                },
                "nodeType": 0
            },
            "24": {
                "invocation": {
                    "address": "0xc662c410c0ecf747543f5ba90660f6abebd9c8c4",
                    "callData": "0x073314940630fd6dcda0d772d4c972c4e0a9946bef9dabf4ef84eda8ef542b8200000000000000000000000000000000000000000000000000000000000000400000000000000000000000000000000000000000000000000000000000000004000000000000000000000000000000000000000000000000000000000000000000000000000000000000000040ad8239cef96f823f5a6c551e841fdab4685e45000000000000000000000000000000000000000000000000004e28e2290f00000000000000000000000000000000000000000000000000000000000000000000",
                    "decodedMethod": {
                        "callParams": [
                            {
                                "name": "fromAddress",
                                "type": "uint256",
                                "value": "3,256,441,166,037,631,918,262,930,812,410,838,598,500,200,462,657,642,943,867,372,734,773,841,898,370"
                            },
                            {
                                "name": "payload",
                                "type": "uint256[]",
                                "value": [
                                    "0",
                                    "369,244,782,520,453,681,396,165,210,575,258,537,305,349,578,309",
                                    "22,000,000,000,000,000",
                                    "0"
                                ]
                            }
                        ],
                        "constructorArguments": "",
                        "name": "consumeMessageFromL2",
                        "returnParams": [
                            {
                                "name": "",
                                "type": "bytes32",
                                "value": "0xe0a6f9b95b840944c4b20dd6e7e80d3e2322d423b438dfbf7016e676baecef8a"
                            }
                        ],
                        "signature": "consumeMessageFromL2(uint256,uint256[])"
                    },
                    "errorInfo": "",
                    "fromAddress": "0xae0ee0a63a2ce6baeeffe56e7714fb4efe48d419",
                    "gasUsed": 11427,
                    "id": 24,
                    "methodDecoded": true,
                    "operation": "CALL",
                    "output": "0xe0a6f9b95b840944c4b20dd6e7e80d3e2322d423b438dfbf7016e676baecef8a",
                    "revert": false,
                    "revertMessage": "",
                    "selector": "0x2c9dd5c0",
                    "status": true,
                    "value": "0"
                },
                "nodeType": 0
            },
            "25": {
                "invocation": {
                    "address": "0x16938e4b59297060484fa56a12594d8d6f4177e8",
                    "callData": "0x073314940630fd6dcda0d772d4c972c4e0a9946bef9dabf4ef84eda8ef542b8200000000000000000000000000000000000000000000000000000000000000400000000000000000000000000000000000000000000000000000000000000004000000000000000000000000000000000000000000000000000000000000000000000000000000000000000040ad8239cef96f823f5a6c551e841fdab4685e45000000000000000000000000000000000000000000000000004e28e2290f00000000000000000000000000000000000000000000000000000000000000000000",
                    "decodedMethod": {
                        "callParams": [
                            {
                                "name": "fromAddress",
                                "type": "uint256",
                                "value": "3,256,441,166,037,631,918,262,930,812,410,838,598,500,200,462,657,642,943,867,372,734,773,841,898,370"
                            },
                            {
                                "name": "payload",
                                "type": "uint256[]",
                                "value": [
                                    "0",
                                    "369,244,782,520,453,681,396,165,210,575,258,537,305,349,578,309",
                                    "22,000,000,000,000,000",
                                    "0"
                                ]
                            }
                        ],
                        "constructorArguments": "",
                        "name": "consumeMessageFromL2",
                        "returnParams": [
                            {
                                "name": "",
                                "type": "bytes32",
                                "value": "0xe0a6f9b95b840944c4b20dd6e7e80d3e2322d423b438dfbf7016e676baecef8a"
                            }
                        ],
                        "signature": "consumeMessageFromL2(uint256,uint256[])"
                    },
                    "errorInfo": "",
                    "fromAddress": "0xc662c410c0ecf747543f5ba90660f6abebd9c8c4",
                    "gasUsed": 10872,
                    "id": 25,
                    "methodDecoded": true,
                    "operation": "DELEGATECALL",
                    "output": "0xe0a6f9b95b840944c4b20dd6e7e80d3e2322d423b438dfbf7016e676baecef8a",
                    "revert": false,
                    "revertMessage": "",
                    "selector": "0x2c9dd5c0",
                    "status": true,
                    "value": "0"
                },
                "nodeType": 0
            },
            "26": {
                "event": {
                    "contract": "0xc662c410c0ecf747543f5ba90660f6abebd9c8c4",
                    "decodedLog": {
                        "name": "ConsumedMessageToL1",
                        "params": [
                            {
                                "name": "fromAddress",
                                "type": "uint256",
                                "value": "3,256,441,166,037,631,918,262,930,812,410,838,598,500,200,462,657,642,943,867,372,734,773,841,898,370"
                            },
                            {
                                "name": "toAddress",
                                "type": "address",
                                "value": "0xae0ee0a63a2ce6baeeffe56e7714fb4efe48d419"
                            },
                            {
                                "name": "payload",
                                "type": "uint256[]",
                                "value": [
                                    "0",
                                    "369,244,782,520,453,681,396,165,210,575,258,537,305,349,578,309",
                                    "22,000,000,000,000,000",
                                    "0"
                                ]
                            }
                        ],
                        "signature": "ConsumedMessageToL1(uint256,address,uint256[])"
                    },
                    "id": 26,
                    "logData": "0x00000000000000000000000000000000000000000000000000000000000000200000000000000000000000000000000000000000000000000000000000000004000000000000000000000000000000000000000000000000000000000000000000000000000000000000000040ad8239cef96f823f5a6c551e841fdab4685e45000000000000000000000000000000000000000000000000004e28e2290f00000000000000000000000000000000000000000000000000000000000000000000",
                    "logDecoded": true,
                    "operation": "EVENT",
                    "revert": false,
                    "status": true,
                    "topics": [
                        "0x7a06c571aa77f34d9706c51e5d8122b5595aebeaa34233bfe866f22befb973b1",
                        "0x073314940630fd6dcda0d772d4c972c4e0a9946bef9dabf4ef84eda8ef542b82",
                        "0x000000000000000000000000ae0ee0a63a2ce6baeeffe56e7714fb4efe48d419"
                    ]
                },
                "nodeType": 1
            },
            "27": {
                "invocation": {
                    "address": "0x40ad8239cef96f823f5a6c551e841fdab4685e45",
                    "callData": "0x",
                    "decodedMethod": null,
                    "errorInfo": "",
                    "fromAddress": "0xae0ee0a63a2ce6baeeffe56e7714fb4efe48d419",
                    "gasUsed": 0,
                    "id": 27,
                    "methodDecoded": false,
                    "operation": "CALL",
                    "output": "",
                    "revert": false,
                    "revertMessage": "",
                    "selector": "fallback",
                    "status": true,
                    "value": "0.022"
                },
                "nodeType": 0
            },
            "28": {
                "event": {
                    "contract": "0xae0ee0a63a2ce6baeeffe56e7714fb4efe48d419",
                    "decodedLog": {
                        "name": "LogWithdrawal",
                        "params": [
                            {
                                "name": "recipient",
                                "type": "address",
                                "value": "0x40ad8239cef96f823f5a6c551e841fdab4685e45"
                            },
                            {
                                "name": "amount",
                                "type": "uint256",
                                "value": "22,000,000,000,000,000"
                            }
                        ],
                        "signature": "LogWithdrawal(address,uint256)"
                    },
                    "id": 28,
                    "logData": "0x000000000000000000000000000000000000000000000000004e28e2290f0000",
                    "logDecoded": true,
                    "operation": "EVENT",
                    "revert": false,
                    "status": true,
                    "topics": [
                        "0xb4214c8c54fc7442f36d3682f59aebaf09358a4431835b30efb29d52cf9e1e91",
                        "0x00000000000000000000000040ad8239cef96f823f5a6c551e841fdab4685e45"
                    ]
                },
                "nodeType": 1
            },
            "3": {
                "invocation": {
                    "address": "0xc662c410c0ecf747543f5ba90660f6abebd9c8c4",
                    "callData": "0x073314940630fd6dcda0d772d4c972c4e0a9946bef9dabf4ef84eda8ef542b82000000000000000000000000000000000000000000000000000000000000004000000000000000000000000000000000000000000000000000000000000000040000000000000000000000000000000000000000000000000000000000000000000000000000000000000000207230a254826937703ee33c6ba432428d83775d00000000000000000000000000000000000000000000000006623f9014ae00000000000000000000000000000000000000000000000000000000000000000000",
                    "decodedMethod": {
                        "callParams": [
                            {
                                "name": "fromAddress",
                                "type": "uint256",
                                "value": "3,256,441,166,037,631,918,262,930,812,410,838,598,500,200,462,657,642,943,867,372,734,773,841,898,370"
                            },
                            {
                                "name": "payload",
                                "type": "uint256[]",
                                "value": [
                                    "0",
                                    "185,234,226,246,795,805,780,303,925,204,601,046,133,261,956,957",
                                    "460,000,000,000,000,000",
                                    "0"
                                ]
                            }
                        ],
                        "constructorArguments": "",
                        "name": "consumeMessageFromL2",
                        "returnParams": [
                            {
                                "name": "",
                                "type": "bytes32",
                                "value": "0xc1595221f7c6ce999c368112a4e4564ca2fbc3a85e564cb33ad1528d7e914401"
                            }
                        ],
                        "signature": "consumeMessageFromL2(uint256,uint256[])"
                    },
                    "errorInfo": "",
                    "fromAddress": "0xae0ee0a63a2ce6baeeffe56e7714fb4efe48d419",
                    "gasUsed": 15927,
                    "id": 3,
                    "methodDecoded": true,
                    "operation": "CALL",
                    "output": "0xc1595221f7c6ce999c368112a4e4564ca2fbc3a85e564cb33ad1528d7e914401",
                    "revert": false,
                    "revertMessage": "",
                    "selector": "0x2c9dd5c0",
                    "status": true,
                    "value": "0"
                },
                "nodeType": 0
            },
            "4": {
                "invocation": {
                    "address": "0x16938e4b59297060484fa56a12594d8d6f4177e8",
                    "callData": "0x073314940630fd6dcda0d772d4c972c4e0a9946bef9dabf4ef84eda8ef542b82000000000000000000000000000000000000000000000000000000000000004000000000000000000000000000000000000000000000000000000000000000040000000000000000000000000000000000000000000000000000000000000000000000000000000000000000207230a254826937703ee33c6ba432428d83775d00000000000000000000000000000000000000000000000006623f9014ae00000000000000000000000000000000000000000000000000000000000000000000",
                    "decodedMethod": {
                        "callParams": [
                            {
                                "name": "fromAddress",
                                "type": "uint256",
                                "value": "3,256,441,166,037,631,918,262,930,812,410,838,598,500,200,462,657,642,943,867,372,734,773,841,898,370"
                            },
                            {
                                "name": "payload",
                                "type": "uint256[]",
                                "value": [
                                    "0",
                                    "185,234,226,246,795,805,780,303,925,204,601,046,133,261,956,957",
                                    "460,000,000,000,000,000",
                                    "0"
                                ]
                            }
                        ],
                        "constructorArguments": "",
                        "name": "consumeMessageFromL2",
                        "returnParams": [
                            {
                                "name": "",
                                "type": "bytes32",
                                "value": "0xc1595221f7c6ce999c368112a4e4564ca2fbc3a85e564cb33ad1528d7e914401"
                            }
                        ],
                        "signature": "consumeMessageFromL2(uint256,uint256[])"
                    },
                    "errorInfo": "",
                    "fromAddress": "0xc662c410c0ecf747543f5ba90660f6abebd9c8c4",
                    "gasUsed": 10872,
                    "id": 4,
                    "methodDecoded": true,
                    "operation": "DELEGATECALL",
                    "output": "0xc1595221f7c6ce999c368112a4e4564ca2fbc3a85e564cb33ad1528d7e914401",
                    "revert": false,
                    "revertMessage": "",
                    "selector": "0x2c9dd5c0",
                    "status": true,
                    "value": "0"
                },
                "nodeType": 0
            },
            "5": {
                "event": {
                    "contract": "0xc662c410c0ecf747543f5ba90660f6abebd9c8c4",
                    "decodedLog": {
                        "name": "ConsumedMessageToL1",
                        "params": [
                            {
                                "name": "fromAddress",
                                "type": "uint256",
                                "value": "3,256,441,166,037,631,918,262,930,812,410,838,598,500,200,462,657,642,943,867,372,734,773,841,898,370"
                            },
                            {
                                "name": "toAddress",
                                "type": "address",
                                "value": "0xae0ee0a63a2ce6baeeffe56e7714fb4efe48d419"
                            },
                            {
                                "name": "payload",
                                "type": "uint256[]",
                                "value": [
                                    "0",
                                    "185,234,226,246,795,805,780,303,925,204,601,046,133,261,956,957",
                                    "460,000,000,000,000,000",
                                    "0"
                                ]
                            }
                        ],
                        "signature": "ConsumedMessageToL1(uint256,address,uint256[])"
                    },
                    "id": 5,
                    "logData": "0x000000000000000000000000000000000000000000000000000000000000002000000000000000000000000000000000000000000000000000000000000000040000000000000000000000000000000000000000000000000000000000000000000000000000000000000000207230a254826937703ee33c6ba432428d83775d00000000000000000000000000000000000000000000000006623f9014ae00000000000000000000000000000000000000000000000000000000000000000000",
                    "logDecoded": true,
                    "operation": "EVENT",
                    "revert": false,
                    "status": true,
                    "topics": [
                        "0x7a06c571aa77f34d9706c51e5d8122b5595aebeaa34233bfe866f22befb973b1",
                        "0x073314940630fd6dcda0d772d4c972c4e0a9946bef9dabf4ef84eda8ef542b82",
                        "0x000000000000000000000000ae0ee0a63a2ce6baeeffe56e7714fb4efe48d419"
                    ]
                },
                "nodeType": 1
            },
            "6": {
                "invocation": {
                    "address": "0x207230a254826937703ee33c6ba432428d83775d",
                    "callData": "0x",
                    "decodedMethod": null,
                    "errorInfo": "",
                    "fromAddress": "0xae0ee0a63a2ce6baeeffe56e7714fb4efe48d419",
                    "gasUsed": 0,
                    "id": 6,
                    "methodDecoded": false,
                    "operation": "CALL",
                    "output": "",
                    "revert": false,
                    "revertMessage": "",
                    "selector": "fallback",
                    "status": true,
                    "value": "0.46"
                },
                "nodeType": 0
            },
            "7": {
                "event": {
                    "contract": "0xae0ee0a63a2ce6baeeffe56e7714fb4efe48d419",
                    "decodedLog": {
                        "name": "LogWithdrawal",
                        "params": [
                            {
                                "name": "recipient",
                                "type": "address",
                                "value": "0x207230a254826937703ee33c6ba432428d83775d"
                            },
                            {
                                "name": "amount",
                                "type": "uint256",
                                "value": "460,000,000,000,000,000"
                            }
                        ],
                        "signature": "LogWithdrawal(address,uint256)"
                    },
                    "id": 7,
                    "logData": "0x00000000000000000000000000000000000000000000000006623f9014ae0000",
                    "logDecoded": true,
                    "operation": "EVENT",
                    "revert": false,
                    "status": true,
                    "topics": [
                        "0xb4214c8c54fc7442f36d3682f59aebaf09358a4431835b30efb29d52cf9e1e91",
                        "0x000000000000000000000000207230a254826937703ee33c6ba432428d83775d"
                    ]
                },
                "nodeType": 1
            },
            "8": {
                "invocation": {
                    "address": "0xae0ee0a63a2ce6baeeffe56e7714fb4efe48d419",
                    "callData": "0x0000000000000000000000000000000000000000000000028db089c938a8400000000000000000000000000046ac387d94f01027d81d98ffb153f6de0c1735b0",
                    "decodedMethod": {
                        "callParams": [
                            {
                                "name": "amount",
                                "type": "uint256",
                                "value": "47,103,300,000,000,000,000"
                            },
                            {
                                "name": "recipient",
                                "type": "address",
                                "value": "0x46ac387d94f01027d81d98ffb153f6de0c1735b0"
                            }
                        ],
                        "constructorArguments": "",
                        "name": "withdraw",
                        "returnParams": [],
                        "signature": "withdraw(uint256,address)"
                    },
                    "errorInfo": "",
                    "fromAddress": "0x3bec1fc3556cbdfd9ebf9ff398ef0434f1d7ad03",
                    "gasUsed": 26411,
                    "id": 8,
                    "methodDecoded": true,
                    "operation": "CALL",
                    "output": "",
                    "revert": false,
                    "revertMessage": "",
                    "selector": "0x00f714ce",
                    "status": true,
                    "value": "0"
                },
                "nodeType": 0
            },
            "9": {
                "invocation": {
                    "address": "0x455603ad9ae671f6c1f0f746f24d7904ca603581",
                    "callData": "0x0000000000000000000000000000000000000000000000028db089c938a8400000000000000000000000000046ac387d94f01027d81d98ffb153f6de0c1735b0",
                    "decodedMethod": {
                        "callParams": [
                            {
                                "name": "amount",
                                "type": "uint256",
                                "value": "47,103,300,000,000,000,000"
                            },
                            {
                                "name": "recipient",
                                "type": "address",
                                "value": "0x46ac387d94f01027d81d98ffb153f6de0c1735b0"
                            }
                        ],
                        "constructorArguments": "",
                        "name": "withdraw",
                        "returnParams": [],
                        "signature": "withdraw(uint256,address)"
                    },
                    "errorInfo": "",
                    "fromAddress": "0xae0ee0a63a2ce6baeeffe56e7714fb4efe48d419",
                    "gasUsed": 25889,
                    "id": 9,
                    "methodDecoded": true,
                    "operation": "DELEGATECALL",
                    "output": "",
                    "revert": false,
                    "revertMessage": "",
                    "selector": "0x00f714ce",
                    "status": true,
                    "value": "0"
                },
                "nodeType": 0
            }
        },
        "gasFlame": [
            {
                "children": [
                    {
                        "children": [
                            {
                                "children": [],
                                "depth": 0,
                                "name": "Initial Gas",
                                "value": 28256
                            },
                            {
                                "children": [
                                    {
                                        "children": [
                                            {
                                                "children": [
                                                    {
                                                        "children": [
                                                            {
                                                                "children": [],
                                                                "depth": 4,
                                                                "name": "consumeMessageFromL2",
                                                                "value": 10872
                                                            }
                                                        ],
                                                        "depth": 3,
                                                        "name": "consumeMessageFromL2",
                                                        "value": 15927
                                                    },
                                                    {
                                                        "children": [],
                                                        "depth": 3,
                                                        "name": "fallback",
                                                        "value": 0
                                                    }
                                                ],
                                                "depth": 2,
                                                "name": "withdraw",
                                                "value": 38889
                                            }
                                        ],
                                        "depth": 1,
                                        "name": "withdraw",
                                        "value": 43911
                                    },
                                    {
                                        "children": [
                                            {
                                                "children": [
                                                    {
                                                        "children": [
                                                            {
                                                                "children": [],
                                                                "depth": 4,
                                                                "name": "consumeMessageFromL2",
                                                                "value": 10872
                                                            }
                                                        ],
                                                        "depth": 3,
                                                        "name": "consumeMessageFromL2",
                                                        "value": 11427
                                                    },
                                                    {
                                                        "children": [],
                                                        "depth": 3,
                                                        "name": "fallback",
                                                        "value": 0
                                                    }
                                                ],
                                                "depth": 2,
                                                "name": "withdraw",
                                                "value": 25889
                                            }
                                        ],
                                        "depth": 1,
                                        "name": "withdraw",
                                        "value": 26411
                                    },
                                    {
                                        "children": [
                                            {
                                                "children": [
                                                    {
                                                        "children": [
                                                            {
                                                                "children": [],
                                                                "depth": 4,
                                                                "name": "consumeMessageFromL2",
                                                                "value": 10872
                                                            }
                                                        ],
                                                        "depth": 3,
                                                        "name": "consumeMessageFromL2",
                                                        "value": 11427
                                                    },
                                                    {
                                                        "children": [],
                                                        "depth": 3,
                                                        "name": "fallback",
                                                        "value": 0
                                                    }
                                                ],
                                                "depth": 2,
                                                "name": "withdraw",
                                                "value": 25889
                                            }
                                        ],
                                        "depth": 1,
                                        "name": "withdraw",
                                        "value": 26411
                                    },
                                    {
                                        "children": [
                                            {
                                                "children": [
                                                    {
                                                        "children": [
                                                            {
                                                                "children": [],
                                                                "depth": 4,
                                                                "name": "consumeMessageFromL2",
                                                                "value": 10872
                                                            }
                                                        ],
                                                        "depth": 3,
                                                        "name": "consumeMessageFromL2",
                                                        "value": 11427
                                                    },
                                                    {
                                                        "children": [],
                                                        "depth": 3,
                                                        "name": "fallback",
                                                        "value": 0
                                                    }
                                                ],
                                                "depth": 2,
                                                "name": "withdraw",
                                                "value": 25889
                                            }
                                        ],
                                        "depth": 1,
                                        "name": "withdraw",
                                        "value": 26411
                                    }
                                ],
                                "depth": 0,
                                "name": "Executed Gas",
                                "value": 135243
                            }
                        ],
                        "depth": -1,
                        "name": "Actual Gas Used",
                        "value": 144299
                    },
                    {
                        "children": [],
                        "depth": -1,
                        "name": "Refunded Gas",
                        "value": 19200
                    }
                ],
                "depth": -2,
                "name": "Total Gas",
                "value": 163499
            }
        ],
        "isConfirmed": true,
        "mainTrace": [
            {
                "children": [
                    {
                        "children": [
                            {
                                "children": [
                                    {
                                        "children": [
                                            {
                                                "children": [
                                                    {
                                                        "children": [
                                                            {
                                                                "children": [],
                                                                "depth": 5,
                                                                "id": 5,
                                                                "order": 5
                                                            }
                                                        ],
                                                        "depth": 4,
                                                        "id": 4,
                                                        "order": 4
                                                    }
                                                ],
                                                "depth": 3,
                                                "id": 3,
                                                "order": 3
                                            },
                                            {
                                                "children": [],
                                                "depth": 3,
                                                "id": 6,
                                                "order": 6
                                            },
                                            {
                                                "children": [],
                                                "depth": 3,
                                                "id": 7,
                                                "order": 7
                                            }
                                        ],
                                        "depth": 2,
                                        "id": 2,
                                        "order": 2
                                    }
                                ],
                                "depth": 1,
                                "id": 1,
                                "order": 1
                            },
                            {
                                "children": [
                                    {
                                        "children": [
                                            {
                                                "children": [
                                                    {
                                                        "children": [
                                                            {
                                                                "children": [],
                                                                "depth": 5,
                                                                "id": 12,
                                                                "order": 12
                                                            }
                                                        ],
                                                        "depth": 4,
                                                        "id": 11,
                                                        "order": 11
                                                    }
                                                ],
                                                "depth": 3,
                                                "id": 10,
                                                "order": 10
                                            },
                                            {
                                                "children": [],
                                                "depth": 3,
                                                "id": 13,
                                                "order": 13
                                            },
                                            {
                                                "children": [],
                                                "depth": 3,
                                                "id": 14,
                                                "order": 14
                                            }
                                        ],
                                        "depth": 2,
                                        "id": 9,
                                        "order": 9
                                    }
                                ],
                                "depth": 1,
                                "id": 8,
                                "order": 8
                            },
                            {
                                "children": [
                                    {
                                        "children": [
                                            {
                                                "children": [
                                                    {
                                                        "children": [
                                                            {
                                                                "children": [],
                                                                "depth": 5,
                                                                "id": 19,
                                                                "order": 19
                                                            }
                                                        ],
                                                        "depth": 4,
                                                        "id": 18,
                                                        "order": 18
                                                    }
                                                ],
                                                "depth": 3,
                                                "id": 17,
                                                "order": 17
                                            },
                                            {
                                                "children": [],
                                                "depth": 3,
                                                "id": 20,
                                                "order": 20
                                            },
                                            {
                                                "children": [],
                                                "depth": 3,
                                                "id": 21,
                                                "order": 21
                                            }
                                        ],
                                        "depth": 2,
                                        "id": 16,
                                        "order": 16
                                    }
                                ],
                                "depth": 1,
                                "id": 15,
                                "order": 15
                            },
                            {
                                "children": [
                                    {
                                        "children": [
                                            {
                                                "children": [
                                                    {
                                                        "children": [
                                                            {
                                                                "children": [],
                                                                "depth": 5,
                                                                "id": 26,
                                                                "order": 26
                                                            }
                                                        ],
                                                        "depth": 4,
                                                        "id": 25,
                                                        "order": 25
                                                    }
                                                ],
                                                "depth": 3,
                                                "id": 24,
                                                "order": 24
                                            },
                                            {
                                                "children": [],
                                                "depth": 3,
                                                "id": 27,
                                                "order": 27
                                            },
                                            {
                                                "children": [],
                                                "depth": 3,
                                                "id": 28,
                                                "order": 28
                                            }
                                        ],
                                        "depth": 2,
                                        "id": 23,
                                        "order": 23
                                    }
                                ],
                                "depth": 1,
                                "id": 22,
                                "order": 22
                            }
                        ],
                        "depth": 0,
                        "id": 0,
                        "order": 0
                    }
                ],
                "depth": -1,
                "id": -1,
                "order": -1
            }
        ],
        "mainTraceNodeCount": 29,
        "parentIdMap": {
            "0": -1,
            "1": 0,
            "10": 9,
            "11": 10,
            "12": 11,
            "13": 9,
            "14": 9,
            "15": 0,
            "16": 15,
            "17": 16,
            "18": 17,
            "19": 18,
            "2": 1,
            "20": 16,
            "21": 16,
            "22": 0,
            "23": 22,
            "24": 23,
            "25": 24,
            "26": 25,
            "27": 23,
            "28": 23,
            "3": 2,
            "4": 3,
            "5": 4,
            "6": 2,
            "7": 2,
            "8": 0,
            "9": 8
        },
        "tidyTrace": [
            {
                "children": [
                    {
                        "children": [
                            {
                                "children": [
                                    {
                                        "children": [
                                            {
                                                "children": [
                                                    {
                                                        "children": [
                                                            {
                                                                "children": [],
                                                                "depth": 5,
                                                                "id": 5,
                                                                "order": 5
                                                            }
                                                        ],
                                                        "depth": 4,
                                                        "id": 4,
                                                        "order": 4
                                                    }
                                                ],
                                                "depth": 3,
                                                "id": 3,
                                                "order": 3
                                            },
                                            {
                                                "children": [],
                                                "depth": 3,
                                                "id": 6,
                                                "order": 6
                                            },
                                            {
                                                "children": [],
                                                "depth": 3,
                                                "id": 7,
                                                "order": 7
                                            }
                                        ],
                                        "depth": 2,
                                        "id": 2,
                                        "order": 2
                                    }
                                ],
                                "depth": 1,
                                "id": 1,
                                "order": 1
                            },
                            {
                                "children": [
                                    {
                                        "children": [
                                            {
                                                "children": [
                                                    {
                                                        "children": [
                                                            {
                                                                "children": [],
                                                                "depth": 5,
                                                                "id": 12,
                                                                "order": 12
                                                            }
                                                        ],
                                                        "depth": 4,
                                                        "id": 11,
                                                        "order": 11
                                                    }
                                                ],
                                                "depth": 3,
                                                "id": 10,
                                                "order": 10
                                            },
                                            {
                                                "children": [],
                                                "depth": 3,
                                                "id": 13,
                                                "order": 13
                                            },
                                            {
                                                "children": [],
                                                "depth": 3,
                                                "id": 14,
                                                "order": 14
                                            }
                                        ],
                                        "depth": 2,
                                        "id": 9,
                                        "order": 9
                                    }
                                ],
                                "depth": 1,
                                "id": 8,
                                "order": 8
                            },
                            {
                                "children": [
                                    {
                                        "children": [
                                            {
                                                "children": [
                                                    {
                                                        "children": [
                                                            {
                                                                "children": [],
                                                                "depth": 5,
                                                                "id": 19,
                                                                "order": 19
                                                            }
                                                        ],
                                                        "depth": 4,
                                                        "id": 18,
                                                        "order": 18
                                                    }
                                                ],
                                                "depth": 3,
                                                "id": 17,
                                                "order": 17
                                            },
                                            {
                                                "children": [],
                                                "depth": 3,
                                                "id": 20,
                                                "order": 20
                                            },
                                            {
                                                "children": [],
                                                "depth": 3,
                                                "id": 21,
                                                "order": 21
                                            }
                                        ],
                                        "depth": 2,
                                        "id": 16,
                                        "order": 16
                                    }
                                ],
                                "depth": 1,
                                "id": 15,
                                "order": 15
                            },
                            {
                                "children": [
                                    {
                                        "children": [
                                            {
                                                "children": [
                                                    {
                                                        "children": [
                                                            {
                                                                "children": [],
                                                                "depth": 5,
                                                                "id": 26,
                                                                "order": 26
                                                            }
                                                        ],
                                                        "depth": 4,
                                                        "id": 25,
                                                        "order": 25
                                                    }
                                                ],
                                                "depth": 3,
                                                "id": 24,
                                                "order": 24
                                            },
                                            {
                                                "children": [],
                                                "depth": 3,
                                                "id": 27,
                                                "order": 27
                                            },
                                            {
                                                "children": [],
                                                "depth": 3,
                                                "id": 28,
                                                "order": 28
                                            }
                                        ],
                                        "depth": 2,
                                        "id": 23,
                                        "order": 23
                                    }
                                ],
                                "depth": 1,
                                "id": 22,
                                "order": 22
                            }
                        ],
                        "depth": 0,
                        "id": 0,
                        "order": 0
                    }
                ],
                "depth": -1,
                "id": -1,
                "order": -1
            }
        ],
        "tidyTraceNodeCount": 29
    },
    "state_change": {
        "stateChanges": [
            {
                "address": "0xc662c410c0ecf747543f5ba90660f6abebd9c8c4",
                "erc": "",
                "slots": [
                    {
                        "current": "0x0000000000000000000000000000000000000000000000000000000000000000",
                        "key": "0x732fa5f84d84adf8f082170470108ced9d83a06e141e71a31baafad65bda0668",
                        "prev": "0x0000000000000000000000000000000000000000000000000000000000000001"
                    },
                    {
                        "current": "0x0000000000000000000000000000000000000000000000000000000000000000",
                        "key": "0xb66a5a9f3ea9200319569441e0f97764d080881fd1cf5842c25591bb52fd4892",
                        "prev": "0x0000000000000000000000000000000000000000000000000000000000000001"
                    },
                    {
                        "current": "0x0000000000000000000000000000000000000000000000000000000000000000",
                        "key": "0x300cef499445eab738ceae6741a534824cb26bde33da7c01ec7216a1674397bd",
                        "prev": "0x0000000000000000000000000000000000000000000000000000000000000001"
                    },
                    {
                        "current": "0x0000000000000000000000000000000000000000000000000000000000000000",
                        "key": "0xa2b8bf467b29705f26b3936aa7e64cf8faba4765f06856e254f6340f79bcd19c",
                        "prev": "0x0000000000000000000000000000000000000000000000000000000000000001"
                    }
                ],
                "storageVariables": []
            }
        ]
    }
}