{
    "balance_change": {
        "balanceChanges": []
    },
    "profile": {
        "basic_info": {
            "baseFee": "",
            "blockNumber": 7521355,
            "callData": "0xef34358800000000000000000000000000000000000000000000000000000073668018b000000000000000000000000000000000000000000000000029a224180f015f8b000000000000000000000000000000000000000000000000000000000000271000000000000000000000000000000000000000000000000000000003941145f800000000000000000000000000000000000000000000000000000073668018b0000000000000000000000000000000000000000000000000000000000000109b00000000000000000000000000000000000000000000000000038d7ea4c6800000000000000000000000000000000000000000000000000000098572202a9f9c0000000000000000000000003db6ba6ab6f95efed1a6e794cad492faaabf294d0000000000000000000000000000000000000000000000000000000000000000000000000000000000000000b10de8d7571acf19f4ec5ef1cf1bc3b5369f734e000000000000000000000000984c07aae119f958802785d70a0e1db020fe3014000000000000000000000000000000000000000000000000000000000000001b000000000000000000000000000000000000000000000000000000000000001ce9f8f72526f97d39ae45e836e5824278d3d69b6506fbee8b87e17f449548a07803c0b99d0e94e515f42f717d357937151d79655c1ce78edc30f3724cc6a1f4959555366fbd9ce89792bb801ba879ddbcd1bd97f25de4861981fe76529214039515604a09c315247aae36fe8b0cdd1ec75fb7665b907768f50ce58f79a06100f7",
            "debugEnable": true,
            "errorInfo": "",
            "eventCount": 0,
            "feeRecipient": "0xea674fdde714fd979de3edf0f56aa9716b898ec8",
            "formatValue": "0",
            "gasLimit": 400000,
            "gasPrice": "10",
            "gasUsed": 142516,
            "intTxnCount": 2,
            "internalRevert": false,
            "internalRevertMessage": "",
            "isContractCreation": false,
            "isFlashloan": false,
            "maxFee": "",
            "nonce": 2901339,
            "overwritedBlockNumber": -1,
            "priorityFee": "",
            "receiver": "0x2a0c0dbecc7e4d658f48e01e3fa353f44050c208",
            "revertMessage": "",
            "sender": "0xa7a7899d944fe658c4b0a1803bab2f490bd3849e",
            "simulationEnable": true,
            "sourceTxnHash": "0x332d44e25be7c48de3dff7e9e79d2baed3cd446e4908a7ab5c2481fd6af19c0d",
            "status": true,
            "timestamp": "2019-04-07T13:39:25Z",
            "transactionFee": "0.00142516",
            "txnHash": "0x332d44e25be7c48de3dff7e9e79d2baed3cd446e4908a7ab5c2481fd6af19c0d",
            "txnIndex": 117,
            "type": 0,
            "value": "0"
        },
        "fund_flow": [],
        "token_infos": [
            {
                "address": "0xc02aaa39b223fe8d0a0e5c4f27ead9083c756cc2",
                "decimals": 18
            },
            {
                "address": "0xeeeeeeeeeeeeeeeeeeeeeeeeeeeeeeeeeeeeeeee",
                "decimals": 18
            }
        ]
    },
    "address_label": {
        "labels": [
            {
                "address": "0x2a0c0dbecc7e4d658f48e01e3fa353f44050c208",
                "label": "IDEX"
            },
            {
                "address": "0x0000000000000000000000000000000000000001",
                "label": "Precompiled"
            },
            {
                "address": "0x0000000000000000000000000000000000000004",
                "label": "Precompiled"
            },
            {
                "address": "0x0000000000000000000000000000000000000003",
                "label": "Precompiled"
            },
            {
                "address": "0xeeeeeeeeeeeeeeeeeeeeeeeeeeeeeeeeeeeeeeee",
                "label": "Ether"
            },
            {
                "address": "0xa7a7899d944fe658c4b0a1803bab2f490bd3849e",
                "label": "IDEX 2"
            },
            {
                "address": "0x3db6ba6ab6f95efed1a6e794cad492faaabf294d",
                "label": "LTO Network: Old LTO Token"
            },
            {
                "address": "0x0000000000000000000000000000000000000000",
                "label": "Null Address"
            },
            {
                "address": "0x0000000000000000000000000000000000000002",
                "label": "Precompiled"
            }
        ]
    },
    "trace": {
        "accountLabels": null,
        "dataMap": {
            "-1": {
                "invocation": {
                    "address": "0xa7a7899d944fe658c4b0a1803bab2f490bd3849e",
                    "callData": "",
                    "decodedMethod": null,
                    "errorInfo": "",
                    "fromAddress": "",
                    "gasUsed": 0,
                    "id": -1,
                    "methodDecoded": false,
                    "operation": "",
                    "output": "",
                    "revert": false,
                    "revertMessage": "",
                    "selector": "",
                    "status": false,
                    "value": ""
                },
                "nodeType": 0
            },
            "0": {
                "invocation": {
                    "address": "0x2a0c0dbecc7e4d658f48e01e3fa353f44050c208",
                    "callData": "0x00000000000000000000000000000000000000000000000000000073668018b000000000000000000000000000000000000000000000000029a224180f015f8b000000000000000000000000000000000000000000000000000000000000271000000000000000000000000000000000000000000000000000000003941145f800000000000000000000000000000000000000000000000000000073668018b0000000000000000000000000000000000000000000000000000000000000109b00000000000000000000000000000000000000000000000000038d7ea4c6800000000000000000000000000000000000000000000000000000098572202a9f9c0000000000000000000000003db6ba6ab6f95efed1a6e794cad492faaabf294d0000000000000000000000000000000000000000000000000000000000000000000000000000000000000000b10de8d7571acf19f4ec5ef1cf1bc3b5369f734e000000000000000000000000984c07aae119f958802785d70a0e1db020fe3014000000000000000000000000000000000000000000000000000000000000001b000000000000000000000000000000000000000000000000000000000000001ce9f8f72526f97d39ae45e836e5824278d3d69b6506fbee8b87e17f449548a07803c0b99d0e94e515f42f717d357937151d79655c1ce78edc30f3724cc6a1f4959555366fbd9ce89792bb801ba879ddbcd1bd97f25de4861981fe76529214039515604a09c315247aae36fe8b0cdd1ec75fb7665b907768f50ce58f79a06100f7",
                    "decodedMethod": {
                        "callParams": [
                            {
                                "name": "tradeValues",
                                "type": "uint256[8]",
                                "value": [
                                    "495,640,910,000",
                                    "2,999,999,987,531,734,923",
                                    "10,000",
                                    "15,369,061,880",
                                    "495,640,910,000",
                                    "4,251",
                                    "1,000,000,000,000,000",
                                    "2,680,000,002,826,140"
                                ]
                            },
                            {
                                "name": "tradeAddresses",
                                "type": "address[4]",
                                "value": [
                                    "0x3db6ba6ab6f95efed1a6e794cad492faaabf294d",
                                    "0x0000000000000000000000000000000000000000",
                                    "0xb10de8d7571acf19f4ec5ef1cf1bc3b5369f734e",
                                    "0x984c07aae119f958802785d70a0e1db020fe3014"
                                ]
                            },
                            {
                                "name": "v",
                                "type": "uint8[2]",
                                "value": [
                                    "27",
                                    "28"
                                ]
                            },
                            {
                                "name": "rs",
                                "type": "bytes32[4]",
                                "value": [
                                    "0xe9f8f72526f97d39ae45e836e5824278d3d69b6506fbee8b87e17f449548a078",
                                    "0x03c0b99d0e94e515f42f717d357937151d79655c1ce78edc30f3724cc6a1f495",
                                    "0x9555366fbd9ce89792bb801ba879ddbcd1bd97f25de4861981fe765292140395",
                                    "0x15604a09c315247aae36fe8b0cdd1ec75fb7665b907768f50ce58f79a06100f7"
                                ]
                            }
                        ],
                        "constructorArguments": "",
                        "name": "trade",
                        "returnParams": [
                            {
                                "name": "success",
                                "type": "bool",
                                "value": false
                            }
                        ],
                        "signature": "trade(uint256[8],address[4],uint8[2],bytes32[4])"
                    },
                    "errorInfo": "",
                    "fromAddress": "0xa7a7899d944fe658c4b0a1803bab2f490bd3849e",
                    "gasUsed": 142516,
                    "id": 0,
                    "methodDecoded": true,
                    "operation": "CALL",
                    "output": "0x0000000000000000000000000000000000000000000000000000000000000000",
                    "revert": false,
                    "revertMessage": "",
                    "selector": "0xef343588",
                    "status": true,
                    "value": "0"
                },
                "nodeType": 0
            },
            "1": {
                "invocation": {
                    "address": "0x0000000000000000000000000000000000000001",
                    "callData": "0x822aad9a126dab9d5d7de943edf8d5c5ff7dfaa4382b66e75d9dac91000000000000000000000000000000000000000000000000000000000000001be9f8f72526f97d39ae45e836e5824278d3d69b6506fbee8b87e17f449548a07803c0b99d0e94e515f42f717d357937151d79655c1ce78edc30f3724cc6a1f495",
                    "decodedMethod": {
                        "callParams": [
                            {
                                "name": "hash",
                                "type": "bytes32",
                                "value": "0xadfc883f822aad9a126dab9d5d7de943edf8d5c5ff7dfaa4382b66e75d9dac91"
                            },
                            {
                                "name": "v",
                                "type": "uint256",
                                "value": "27"
                            },
                            {
                                "name": "r",
                                "type": "bytes32",
                                "value": "0xe9f8f72526f97d39ae45e836e5824278d3d69b6506fbee8b87e17f449548a078"
                            },
                            {
                                "name": "s",
                                "type": "bytes32",
                                "value": "0x03c0b99d0e94e515f42f717d357937151d79655c1ce78edc30f3724cc6a1f495"
                            }
                        ],
                        "constructorArguments": "",
                        "name": "ecrecover",
                        "returnParams": [
                            {
                                "name": "",
                                "type": "address",
                                "value": "0xb10de8d7571acf19f4ec5ef1cf1bc3b5369f734e"
                            }
                        ],
                        "signature": "ecrecover(bytes32,uint256,bytes32,bytes32)"
                    },
                    "errorInfo": "",
                    "fromAddress": "0x2a0c0dbecc7e4d658f48e01e3fa353f44050c208",
                    "gasUsed": 3000,
                    "id": 1,
                    "methodDecoded": true,
                    "operation": "CALL",
                    "output": "0x000000000000000000000000b10de8d7571acf19f4ec5ef1cf1bc3b5369f734e",
                    "revert": false,
                    "revertMessage": "",
                    "selector": "0xadfc883f",
                    "status": true,
                    "value": "0"
                },
                "nodeType": 0
            },
            "2": {
                "invocation": {
                    "address": "0x0000000000000000000000000000000000000001",
                    "callData": "0x902ab59bddd0d891bb1a631db1613a44ee943b2e3b95931f3b0da299000000000000000000000000000000000000000000000000000000000000001c9555366fbd9ce89792bb801ba879ddbcd1bd97f25de4861981fe76529214039515604a09c315247aae36fe8b0cdd1ec75fb7665b907768f50ce58f79a06100f7",
                    "decodedMethod": {
                        "callParams": [
                            {
                                "name": "hash",
                                "type": "bytes32",
                                "value": "0xe0462eca902ab59bddd0d891bb1a631db1613a44ee943b2e3b95931f3b0da299"
                            },
                            {
                                "name": "v",
                                "type": "uint256",
                                "value": "28"
                            },
                            {
                                "name": "r",
                                "type": "bytes32",
                                "value": "0x9555366fbd9ce89792bb801ba879ddbcd1bd97f25de4861981fe765292140395"
                            },
                            {
                                "name": "s",
                                "type": "bytes32",
                                "value": "0x15604a09c315247aae36fe8b0cdd1ec75fb7665b907768f50ce58f79a06100f7"
                            }
                        ],
                        "constructorArguments": "",
                        "name": "ecrecover",
                        "returnParams": [
                            {
                                "name": "",
                                "type": "address",
                                "value": "0x984c07aae119f958802785d70a0e1db020fe3014"
                            }
                        ],
                        "signature": "ecrecover(bytes32,uint256,bytes32,bytes32)"
                    },
                    "errorInfo": "",
                    "fromAddress": "0x2a0c0dbecc7e4d658f48e01e3fa353f44050c208",
                    "gasUsed": 3000,
                    "id": 2,
                    "methodDecoded": true,
                    "operation": "CALL",
                    "output": "0x000000000000000000000000984c07aae119f958802785d70a0e1db020fe3014",
                    "revert": false,
                    "revertMessage": "",
                    "selector": "0xe0462eca",
                    "status": true,
                    "value": "0"
                },
                "nodeType": 0
            }
        },
        "gasFlame": [
            {
                "children": [
                    {
                        "children": [
                            {
                                "children": [],
                                "depth": 0,
                                "name": "Initial Gas",
                                "value": 38232
                            },
                            {
                                "children": [
                                    {
                                        "children": [],
                                        "depth": 1,
                                        "name": "ecrecover",
                                        "value": 3000
                                    },
                                    {
                                        "children": [],
                                        "depth": 1,
                                        "name": "ecrecover",
                                        "value": 3000
                                    }
                                ],
                                "depth": 0,
                                "name": "Executed Gas",
                                "value": 104284
                            }
                        ],
                        "depth": -1,
                        "name": "Actual Gas Used",
                        "value": 142516
                    },
                    {
                        "children": [],
                        "depth": -1,
                        "name": "Refunded Gas",
                        "value": 0
                    }
                ],
                "depth": -2,
                "name": "Total Gas",
                "value": 142516
            }
        ],
        "isConfirmed": true,
        "mainTrace": [
            {
                "children": [
                    {
                        "children": [
                            {
                                "children": [],
                                "depth": 1,
                                "id": 1,
                                "order": 1
                            },
                            {
                                "children": [],
                                "depth": 1,
                                "id": 2,
                                "order": 2
                            }
                        ],
                        "depth": 0,
                        "id": 0,
                        "order": 0
                    }
                ],
                "depth": -1,
                "id": -1,
                "order": -1
            }
        ],
        "mainTraceNodeCount": 3,
        "parentIdMap": {
            "0": -1,
            "1": 0,
            "2": 0
        },
        "tidyTrace": [
            {
                "children": [
                    {
                        "children": [
                            {
                                "children": [],
                                "depth": 1,
                                "id": 1,
                                "order": 1
                            },
                            {
                                "children": [],
                                "depth": 1,
                                "id": 2,
                                "order": 2
                            }
                        ],
                        "depth": 0,
                        "id": 0,
                        "order": 0
                    }
                ],
                "depth": -1,
                "id": -1,
                "order": -1
            }
        ],
        "tidyTraceNodeCount": 3
    },
    "state_change": {
        "stateChanges": [
            {
                "address": "0x2a0c0dbecc7e4d658f48e01e3fa353f44050c208",
                "erc": "",
                "slots": [
                    {
                        "current": "0x000000000000000000000000000000000000000000000000000000660def0b72",
                        "key": "0xa3575247a88559b3c5130335c8c7f08ea61c3e32a70cea34d6384f39a7193b0c",
                        "prev": "0x00000000000000000000000000000000000000000000000000000065f0642a24"
                    },
                    {
                        "current": "0x000000000000000000000000000000000000000000000000900bde719f47f556",
                        "key": "0xab10f17ad87b398fd2922c968ee280387aa6ce87ed39791997bb5483de80b4d1",
                        "prev": "0x000000000000000000000000000000000000000000000000b9ae0289ae4954e1"
                    },
                    {
                        "current": "0x0000000000000000000000000000000000000000000000000000000000000001",
                        "key": "0xcc468a344fae5aa431c79df196e32745d955d96a912cfa9d4cedfb320d9d47f3",
                        "prev": "0x0000000000000000000000000000000000000000000000000000000000000000"
                    },
                    {
                        "current": "0x00000000000000000000000000000000000000000000000000000073668018b0",
                        "key": "0xb70d3eb06bc802f71937785e8086131750aaf1efba0e11ca822c20cef655dd60",
                        "prev": "0x0000000000000000000000000000000000000000000000000000000000000000"
                    },
                    {
                        "current": "0x0000000000000000000000000000000000000000000000000000096bb5e81102",
                        "key": "0xc7d938925e6e6ebed261d89560b74e759b78125f92c8736aa629bdda9f4019e4",
                        "prev": "0x000000000000000000000000000000000000000000000000000009df1c6829b2"
                    },
                    {
                        "current": "0x000000000000000000000000000000000000000000000000dbe7e7beed04082f",
                        "key": "0xe0d5e197dcbfedadd209fc92df6a855db566d4697f8f8cb917283165325c5a42",
                        "prev": "0x000000000000000000000000000000000000000000000000b26253fd3c84a852"
                    },
                    {
                        "current": "0x000000000000000000000000000000000000000000000003647fb27dd2a4e350",
                        "key": "0x3ccb72d91c5c66cba135a4135963ed23443b8a63817f501517468fcd5097e277",
                        "prev": "0x000000000000000000000000000000000000000000000003646322277422e3a3"
                    },
                    {
                        "current": "0x000000000000000000000000000000000000000000000000000000e6aacdec68",
                        "key": "0xe4bf8fefe21f954bd484284effe2ecd83bddccf92e5a17d79c3eb986113de9cf",
                        "prev": "0x0000000000000000000000000000000000000000000000000000007361d8b506"
                    },
                    {
                        "current": "0x000000000000000000000000000000000000000000000000000000000072c44b",
                        "key": "0x6998428ae089413fa9e341252d2491e48d5ed64f7e1dcdab05a959413c5af6a8",
                        "prev": "0x000000000000000000000000000000000000000000000000000000000072c448"
                    }
                ],
                "storageVariables": [
                    {
                        "name": "lastActiveTransaction",
                        "type": "mapping(address => uint256)",
                        "value": {
                            "pairs": [
                                {
                                    "key": "0xb10de8d7571acf19f4ec5ef1cf1bc3b5369f734e",
                                    "value": {
                                        "current": "7521355",
                                        "prev": "7521352",
                                        "typeTag": 1
                                    }
                                }
                            ],
                            "typeTag": 4
                        }
                    },
                    {
                        "name": "orderFills",
                        "type": "mapping(bytes32 => uint256)",
                        "value": {
                            "pairs": [
                                {
                                    "key": "0x0ce48237e717c2d56c2f9c46e114c13bc5dc86b59a98531cc9303926c9ae8ad6",
                                    "value": {
                                        "current": "495640910000",
                                        "prev": "0",
                                        "typeTag": 1
                                    }
                                }
                            ],
                            "typeTag": 4
                        }
                    },
                    {
                        "name": "tokens",
                        "type": "mapping(address => mapping(address => uint256))",
                        "value": {
                            "pairs": [
                                {
                                    "key": "0x0000000000000000000000000000000000000000",
                                    "value": {
                                        "pairs": [
                                            {
                                                "key": "0x034767f3c519f361c5ecf46ebfc08981c629d381",
                                                "value": {
                                                    "current": "62581935200438379344",
                                                    "prev": "62573895200463315875",
                                                    "typeTag": 1
                                                }
                                            },
                                            {
                                                "key": "0x984c07aae119f958802785d70a0e1db020fe3014",
                                                "value": {
                                                    "current": "15845888621132646447",
                                                    "prev": "12853928633575974994",
                                                    "typeTag": 1
                                                }
                                            },
                                            {
                                                "key": "0xb10de8d7571acf19f4ec5ef1cf1bc3b5369f734e",
                                                "value": {
                                                    "current": "10379634345790403926",
                                                    "prev": "13379634333322138849",
                                                    "typeTag": 1
                                                }
                                            }
                                        ],
                                        "typeTag": 4
                                    }
                                },
                                {
                                    "key": "0x3db6ba6ab6f95efed1a6e794cad492faaabf294d",
                                    "value": {
                                        "pairs": [
                                            {
                                                "key": "0x034767f3c519f361c5ecf46ebfc08981c629d381",
                                                "value": {
                                                    "current": "438320434034",
                                                    "prev": "437824793124",
                                                    "typeTag": 1
                                                }
                                            },
                                            {
                                                "key": "0x984c07aae119f958802785d70a0e1db020fe3014",
                                                "value": {
                                                    "current": "10358218035458",
                                                    "prev": "10853858945458",
                                                    "typeTag": 1
                                                }
                                            },
                                            {
                                                "key": "0xb10de8d7571acf19f4ec5ef1cf1bc3b5369f734e",
                                                "value": {
                                                    "current": "990708100200",
                                                    "prev": "495562831110",
                                                    "typeTag": 1
                                                }
                                            }
                                        ],
                                        "typeTag": 4
                                    }
                                }
                            ],
                            "typeTag": 4
                        }
                    },
                    {
                        "name": "traded",
                        "type": "mapping(bytes32 => bool)",
                        "value": {
                            "pairs": [
                                {
                                    "key": "0x167a5394ee886879608109eab11503c4a9e6a756e9cb69022f8489c8d9edeca5",
                                    "value": {
                                        "current": "true",
                                        "prev": "false",
                                        "typeTag": 1
                                    }
                                }
                            ],
                            "typeTag": 4
                        }
                    }
                ]
            }
        ]
    }
}