{
    "balance_change": {
        "balanceChanges": [
            {
                "account": "0x0000000000000000000000000000000000000000",
                "assets": [
                    {
                        "address": "0x0b51eb9d0e54c562fedc07ceba453f05b70c4b79",
                        "amount": "1",
                        "iconUrl": "",
                        "isERC1155": true,
                        "isERC721": false,
                        "sign": false,
                        "tokenID": "1",
                        "value": ""
                    }
                ]
            },
            {
                "account": "0x0b743c090c8f82d3d76302dcebfe50029434c471",
                "assets": [
                    {
                        "address": "0x0b51eb9d0e54c562fedc07ceba453f05b70c4b79",
                        "amount": "1",
                        "iconUrl": "",
                        "isERC1155": true,
                        "isERC721": false,
                        "sign": true,
                        "tokenID": "1",
                        "value": ""
                    }
                ]
            }
        ]
    },
    "profile": {
        "basic_info": {
            "baseFee": "21.744192877",
            "blockNumber": 16943863,
            "callData": "0x657bb1130000000000000000000000000000000000000000000000000000000000000080000000000000000000000000000000000000000000000000000000000000012000000000000000000000000000000000000000000000000000000000000001e0000000000000000000000000000000000000000000000000000000000000022000000000000000000000000000000000000000000000000000000000000000010000000000000000000000000000000000000000000000000000000000000001000000000000000000000000000000000000000000000000000000000000000100000000000000000000000000000000000000000000000000000000000008c200000000000000000000000033c6eec1723b12c46732f7ab41398de45641fa42000000000000000000000000000000000000000000000000000000000000000100000000000000000000000000000000000000000000000000000000000000200000000000000000000000000000000000000000000000000000000000000041f8142819400f9b013d02011d64e3b22f4d63ee35a278e5eed582521154f4668466d46f3c4253c8c8b582c1524a4a17e909ce1799b8cafeb6c12ab3a74a928fe51c00000000000000000000000000000000000000000000000000000000000000000000000000000000000000000000000000000000000000000000000000000100000000000000000000000000000000000000000000000000000000642636e60000000000000000000000000000000000000000000000000000000000000000",
            "debugEnable": true,
            "errorInfo": "",
            "eventCount": 1,
            "feeRecipient": "0xdafea492d9c6733ae3d56b7ed1adb60692c98bc5",
            "formatValue": "0",
            "gasLimit": 135289,
            "gasPrice": "21.844192877",
            "gasUsed": 135289,
            "intTxnCount": 1,
            "internalRevert": false,
            "internalRevertMessage": "",
            "isContractCreation": false,
            "isFlashloan": false,
            "maxFee": "33.726990975",
            "nonce": 67,
            "overwritedBlockNumber": -1,
            "priorityFee": "0.1",
            "receiver": "0x0b51eb9d0e54c562fedc07ceba453f05b70c4b79",
            "revertMessage": "",
            "sender": "0x0b743c090c8f82d3d76302dcebfe50029434c471",
            "simulationEnable": true,
            "sourceTxnHash": "0x33d85c600c456fed4abf2a8340a8498838a22b174a0ea99e1817be34202b93e0",
            "status": true,
            "timestamp": "2023-03-31T01:17:23Z",
            "transactionFee": "0.002955279010136453",
            "txnHash": "0x33d85c600c456fed4abf2a8340a8498838a22b174a0ea99e1817be34202b93e0",
            "txnIndex": 114,
            "type": 2,
            "value": "0"
        },
        "fund_flow": [
            {
                "amount": "1",
                "from": "0x0000000000000000000000000000000000000000",
                "id": 1,
                "isERC1155": true,
                "isERC721": false,
                "isReverted": false,
                "order": 1,
                "to": "0x0b743c090c8f82d3d76302dcebfe50029434c471",
                "token": "0x0b51eb9d0e54c562fedc07ceba453f05b70c4b79",
                "tokenID": "1"
            }
        ],
        "token_infos": [
            {
                "address": "0xc02aaa39b223fe8d0a0e5c4f27ead9083c756cc2",
                "decimals": 18
            },
            {
                "address": "0xeeeeeeeeeeeeeeeeeeeeeeeeeeeeeeeeeeeeeeee",
                "decimals": 18
            }
        ]
    },
    "address_label": {
        "labels": [
            {
                "address": "0x0000000000000000000000000000000000000001",
                "label": "Precompiled"
            },
            {
                "address": "0x0000000000000000000000000000000000000002",
                "label": "Precompiled"
            },
            {
                "address": "0x0000000000000000000000000000000000000003",
                "label": "Precompiled"
            },
            {
                "address": "0x0000000000000000000000000000000000000004",
                "label": "Precompiled"
            },
            {
                "address": "0xeeeeeeeeeeeeeeeeeeeeeeeeeeeeeeeeeeeeeeee",
                "label": "Ether"
            },
            {
                "address": "0x0b51eb9d0e54c562fedc07ceba453f05b70c4b79",
                "label": "Inspired By Ledger (IXL)"
            },
            {
                "address": "0x33c6eec1723b12c46732f7ab41398de45641fa42",
                "label": "Ledger: LMP Token"
            }
        ]
    },
    "trace": {
        "accountLabels": null,
        "dataMap": {
            "-1": {
                "invocation": {
                    "address": "0x0b743c090c8f82d3d76302dcebfe50029434c471",
                    "callData": "",
                    "decodedMethod": null,
                    "errorInfo": "",
                    "fromAddress": "",
                    "gasUsed": 0,
                    "id": -1,
                    "methodDecoded": false,
                    "operation": "",
                    "output": "",
                    "revert": false,
                    "revertMessage": "",
                    "selector": "",
                    "status": false,
                    "value": ""
                },
                "nodeType": 0
            },
            "0": {
                "invocation": {
                    "address": "0x0b51eb9d0e54c562fedc07ceba453f05b70c4b79",
                    "callData": "0x0000000000000000000000000000000000000000000000000000000000000080000000000000000000000000000000000000000000000000000000000000012000000000000000000000000000000000000000000000000000000000000001e0000000000000000000000000000000000000000000000000000000000000022000000000000000000000000000000000000000000000000000000000000000010000000000000000000000000000000000000000000000000000000000000001000000000000000000000000000000000000000000000000000000000000000100000000000000000000000000000000000000000000000000000000000008c200000000000000000000000033c6eec1723b12c46732f7ab41398de45641fa42000000000000000000000000000000000000000000000000000000000000000100000000000000000000000000000000000000000000000000000000000000200000000000000000000000000000000000000000000000000000000000000041f8142819400f9b013d02011d64e3b22f4d63ee35a278e5eed582521154f4668466d46f3c4253c8c8b582c1524a4a17e909ce1799b8cafeb6c12ab3a74a928fe51c00000000000000000000000000000000000000000000000000000000000000000000000000000000000000000000000000000000000000000000000000000100000000000000000000000000000000000000000000000000000000642636e60000000000000000000000000000000000000000000000000000000000000000",
                    "decodedMethod": {
                        "callParams": [
                            {
                                "name": "args",
                                "type": "(uint256,uint256,uint256,address)[]",
                                "value": [
                                    [
                                        {
                                            "name": "tokenId",
                                            "type": "uint256",
                                            "value": "1"
                                        },
                                        {
                                            "name": "amount",
                                            "type": "uint256",
                                            "value": "1"
                                        },
                                        {
                                            "name": "tokenGatedId",
                                            "type": "uint256",
                                            "value": "2,242"
                                        },
                                        {
                                            "name": "pass",
                                            "type": "address",
                                            "value": "0x33c6eec1723b12c46732f7ab41398de45641fa42"
                                        }
                                    ]
                                ]
                            },
                            {
                                "name": "signatures",
                                "type": "bytes[]",
                                "value": [
                                    "0xf8142819400f9b013d02011d64e3b22f4d63ee35a278e5eed582521154f4668466d46f3c4253c8c8b582c1524a4a17e909ce1799b8cafeb6c12ab3a74a928fe51c"
                                ]
                            },
                            {
                                "name": "deadlines",
                                "type": "uint256[]",
                                "value": [
                                    "1,680,226,022"
                                ]
                            },
                            {
                                "name": "data",
                                "type": "bytes",
                                "value": "0x"
                            }
                        ],
                        "constructorArguments": "",
                        "name": "mintSign",
                        "returnParams": [],
                        "signature": "mintSign((uint256,uint256,uint256,address)[],bytes[],uint256[],bytes)"
                    },
                    "errorInfo": "",
                    "fromAddress": "0x0b743c090c8f82d3d76302dcebfe50029434c471",
                    "gasUsed": 135289,
                    "id": 0,
                    "methodDecoded": true,
                    "operation": "CALL",
                    "output": "",
                    "revert": false,
                    "revertMessage": "",
                    "selector": "0x657bb113",
                    "status": true,
                    "value": "0"
                },
                "nodeType": 0
            },
            "1": {
                "invocation": {
                    "address": "0x0000000000000000000000000000000000000001",
                    "callData": "0x7199664d8562e8df913dcbfc9865daf79036fa649950613f19c7dfa7000000000000000000000000000000000000000000000000000000000000001cf8142819400f9b013d02011d64e3b22f4d63ee35a278e5eed582521154f4668466d46f3c4253c8c8b582c1524a4a17e909ce1799b8cafeb6c12ab3a74a928fe5",
                    "decodedMethod": {
                        "callParams": [
                            {
                                "name": "hash",
                                "type": "bytes32",
                                "value": "0xb46a7b827199664d8562e8df913dcbfc9865daf79036fa649950613f19c7dfa7"
                            },
                            {
                                "name": "v",
                                "type": "uint256",
                                "value": "28"
                            },
                            {
                                "name": "r",
                                "type": "bytes32",
                                "value": "0xf8142819400f9b013d02011d64e3b22f4d63ee35a278e5eed582521154f46684"
                            },
                            {
                                "name": "s",
                                "type": "bytes32",
                                "value": "0x66d46f3c4253c8c8b582c1524a4a17e909ce1799b8cafeb6c12ab3a74a928fe5"
                            }
                        ],
                        "constructorArguments": "",
                        "name": "ecrecover",
                        "returnParams": [
                            {
                                "name": "",
                                "type": "address",
                                "value": "0xf678d1fabc225ba47ddc338bcd3cfb0bbae00345"
                            }
                        ],
                        "signature": "ecrecover(bytes32,uint256,bytes32,bytes32)"
                    },
                    "errorInfo": "",
                    "fromAddress": "0x0b51eb9d0e54c562fedc07ceba453f05b70c4b79",
                    "gasUsed": 3000,
                    "id": 1,
                    "methodDecoded": true,
                    "operation": "STATICCALL",
                    "output": "0x000000000000000000000000f678d1fabc225ba47ddc338bcd3cfb0bbae00345",
                    "revert": false,
                    "revertMessage": "",
                    "selector": "0xb46a7b82",
                    "status": true,
                    "value": "0"
                },
                "nodeType": 0
            },
            "2": {
                "event": {
                    "contract": "0x0b51eb9d0e54c562fedc07ceba453f05b70c4b79",
                    "decodedLog": {
                        "name": "TransferSingle",
                        "params": [
                            {
                                "name": "operator",
                                "type": "address",
                                "value": "0x0b743c090c8f82d3d76302dcebfe50029434c471"
                            },
                            {
                                "name": "from",
                                "type": "address",
                                "value": "0x0000000000000000000000000000000000000000"
                            },
                            {
                                "name": "to",
                                "type": "address",
                                "value": "0x0b743c090c8f82d3d76302dcebfe50029434c471"
                            },
                            {
                                "name": "id",
                                "type": "uint256",
                                "value": "1"
                            },
                            {
                                "name": "amount",
                                "type": "uint256",
                                "value": "1"
                            }
                        ],
                        "signature": "TransferSingle(address,address,address,uint256,uint256)"
                    },
                    "id": 2,
                    "logData": "0x00000000000000000000000000000000000000000000000000000000000000010000000000000000000000000000000000000000000000000000000000000001",
                    "logDecoded": true,
                    "operation": "EVENT",
                    "revert": false,
                    "status": true,
                    "topics": [
                        "0xc3d58168c5ae7397731d063d5bbf3d657854427343f4c083240f7aacaa2d0f62",
                        "0x0000000000000000000000000b743c090c8f82d3d76302dcebfe50029434c471",
                        "0x0000000000000000000000000000000000000000000000000000000000000000",
                        "0x0000000000000000000000000b743c090c8f82d3d76302dcebfe50029434c471"
                    ]
                },
                "nodeType": 1
            }
        },
        "gasFlame": [
            {
                "children": [
                    {
                        "children": [
                            {
                                "children": [],
                                "depth": 0,
                                "name": "Initial Gas",
                                "value": 24628
                            },
                            {
                                "children": [
                                    {
                                        "children": [],
                                        "depth": 1,
                                        "name": "ecrecover",
                                        "value": 3000
                                    }
                                ],
                                "depth": 0,
                                "name": "Executed Gas",
                                "value": 110661
                            }
                        ],
                        "depth": -1,
                        "name": "Actual Gas Used",
                        "value": 135289
                    },
                    {
                        "children": [],
                        "depth": -1,
                        "name": "Refunded Gas",
                        "value": 0
                    }
                ],
                "depth": -2,
                "name": "Total Gas",
                "value": 135289
            }
        ],
        "isConfirmed": true,
        "mainTrace": [
            {
                "children": [
                    {
                        "children": [
                            {
                                "children": [],
                                "depth": 1,
                                "id": 1,
                                "order": 1
                            },
                            {
                                "children": [],
                                "depth": 1,
                                "id": 2,
                                "order": 2
                            }
                        ],
                        "depth": 0,
                        "id": 0,
                        "order": 0
                    }
                ],
                "depth": -1,
                "id": -1,
                "order": -1
            }
        ],
        "mainTraceNodeCount": 3,
        "parentIdMap": {
            "0": -1,
            "1": 0,
            "2": 0
        },
        "tidyTrace": [
            {
                "children": [
                    {
                        "children": [
                            {
                                "children": [],
                                "depth": 1,
                                "id": 2,
                                "order": 2
                            }
                        ],
                        "depth": 0,
                        "id": 0,
                        "order": 0
                    }
                ],
                "depth": -1,
                "id": -1,
                "order": -1
            }
        ],
        "tidyTraceNodeCount": 2
    },
    "state_change": {
        "stateChanges": [
            {
                "address": "0x0b51eb9d0e54c562fedc07ceba453f05b70c4b79",
                "erc": "ERC-1155",
                "slots": [
                    {
                        "current": "0x0000000000000000000000000000000000000000000000000000000000000001",
                        "key": "0x0fc5a78baf479c833aada2a898d0672b72077a6e1f49f47ba7964a9d7b542e14",
                        "prev": "0x0000000000000000000000000000000000000000000000000000000000000000"
                    },
                    {
                        "current": "0x0000000000000000000000000000000000000000000000000000000000000001",
                        "key": "0x76f165d194e495e4710cfc2e3790e233cc85238c9ba0d86ffde9aaa8463914f8",
                        "prev": "0x0000000000000000000000000000000000000000000000000000000000000000"
                    },
                    {
                        "current": "0x00000000000000000000000000000000000000000000000000000000000003ac",
                        "key": "0x169f97de0d9a84d840042b17d3c6b9638b3d6fd9024c9eb0c7a306a17b49f88f",
                        "prev": "0x00000000000000000000000000000000000000000000000000000000000003ab"
                    },
                    {
                        "current": "0x0000000000000000000000000000000000000000000000000000000000000001",
                        "key": "0xc449976e661aaef54887c25be45a616b7ce52b106a2835c4c42b7816166489b8",
                        "prev": "0x0000000000000000000000000000000000000000000000000000000000000000"
                    }
                ],
                "storageVariables": [
                    {
                        "name": "usedGenesisPasses",
                        "type": "mapping(address => mapping(uint256 => mapping(uint256 => mapping(uint256 => bool))))",
                        "value": {
                            "pairs": [
                                {
                                    "key": "0x33c6eec1723b12c46732f7ab41398de45641fa42",
                                    "value": {
                                        "pairs": [
                                            {
                                                "key": "2242",
                                                "value": {
                                                    "pairs": [
                                                        {
                                                            "key": "0",
                                                            "value": {
                                                                "pairs": [
                                                                    {
                                                                        "key": "1",
                                                                        "value": {
                                                                            "current": "true",
                                                                            "prev": "false",
                                                                            "typeTag": 1
                                                                        }
                                                                    }
                                                                ],
                                                                "typeTag": 4
                                                            }
                                                        }
                                                    ],
                                                    "typeTag": 4
                                                }
                                            }
                                        ],
                                        "typeTag": 4
                                    }
                                }
                            ],
                            "typeTag": 4
                        }
                    },
                    {
                        "name": "minted",
                        "type": "mapping(address => mapping(uint256 => uint256))",
                        "value": {
                            "pairs": [
                                {
                                    "key": "0x0b743c090c8f82d3d76302dcebfe50029434c471",
                                    "value": {
                                        "pairs": [
                                            {
                                                "key": "1",
                                                "value": {
                                                    "current": "1",
                                                    "prev": "0",
                                                    "typeTag": 1
                                                }
                                            }
                                        ],
                                        "typeTag": 4
                                    }
                                }
                            ],
                            "typeTag": 4
                        }
                    },
                    {
                        "name": "currentSupplyPerToken",
                        "type": "mapping(uint256 => uint256)",
                        "value": {
                            "pairs": [
                                {
                                    "key": "1",
                                    "value": {
                                        "current": "940",
                                        "prev": "939",
                                        "typeTag": 1
                                    }
                                }
                            ],
                            "typeTag": 4
                        }
                    },
                    {
                        "name": "balanceOf",
                        "type": "mapping(address => mapping(uint256 => uint256))",
                        "value": {
                            "pairs": [
                                {
                                    "key": "0x0b743c090c8f82d3d76302dcebfe50029434c471",
                                    "value": {
                                        "pairs": [
                                            {
                                                "key": "1",
                                                "value": {
                                                    "current": "1",
                                                    "prev": "0",
                                                    "typeTag": 1
                                                }
                                            }
                                        ],
                                        "typeTag": 4
                                    }
                                }
                            ],
                            "typeTag": 4
                        }
                    }
                ]
            }
        ]
    }
}