{
    "balance_change": {
        "balanceChanges": [
            {
                "account": "0x2501b6241afa666b0b3d736bedf2ee5d9231a20b",
                "assets": [
                    {
                        "address": "0xdd974d5c2e2928dea5f71b9825b8b646686bd200",
                        "amount": "131.2153517",
                        "iconUrl": "https://assets.blocksec.com/icon/7af75e1543b2a7e424399ceec39d346a3492570fbcc8f496f1a4601b773a615d.png",
                        "isERC1155": false,
                        "isERC721": false,
                        "sign": false,
                        "value": ""
                    }
                ]
            },
            {
                "account": "0x0d0707963952f2fba59dd06f2b425ace40b492fe",
                "assets": [
                    {
                        "address": "0xdd974d5c2e2928dea5f71b9825b8b646686bd200",
                        "amount": "131.2153517",
                        "iconUrl": "https://assets.blocksec.com/icon/7af75e1543b2a7e424399ceec39d346a3492570fbcc8f496f1a4601b773a615d.png",
                        "isERC1155": false,
                        "isERC721": false,
                        "sign": true,
                        "value": ""
                    }
                ]
            }
        ]
    },
    "profile": {
        "basic_info": {
            "baseFee": "",
            "blockNumber": 5510482,
            "callData": "0xa9059cbb0000000000000000000000000d0707963952f2fba59dd06f2b425ace40b492fe0000000000000000000000000000000000000000000000071cfa93299472c800",
            "debugEnable": true,
            "errorInfo": "",
            "eventCount": 1,
            "feeRecipient": "0x829bd824b016326a401d083b33d092293333a830",
            "formatValue": "0",
            "gasLimit": 210000,
            "gasPrice": "2.002",
            "gasUsed": 37373,
            "intTxnCount": 0,
            "internalRevert": false,
            "internalRevertMessage": "",
            "isContractCreation": false,
            "isFlashloan": false,
            "maxFee": "",
            "nonce": 0,
            "overwritedBlockNumber": -1,
            "priorityFee": "",
            "receiver": "0xdd974d5c2e2928dea5f71b9825b8b646686bd200",
            "revertMessage": "",
            "sender": "0x2501b6241afa666b0b3d736bedf2ee5d9231a20b",
            "simulationEnable": true,
            "sourceTxnHash": "0x330d177d095239eb5569c123886de862d8cf40360b5366e869ad87349d4b9149",
            "status": true,
            "timestamp": "2018-04-26T18:20:17Z",
            "transactionFee": "0.000074820746",
            "txnHash": "0x330d177d095239eb5569c123886de862d8cf40360b5366e869ad87349d4b9149",
            "txnIndex": 185,
            "type": 0,
            "value": "0"
        },
        "fund_flow": [
            {
                "amount": "131.2153517",
                "from": "0x2501b6241afa666b0b3d736bedf2ee5d9231a20b",
                "id": 1,
                "isERC1155": false,
                "isERC721": false,
                "isReverted": false,
                "order": 1,
                "to": "0x0d0707963952f2fba59dd06f2b425ace40b492fe",
                "token": "0xdd974d5c2e2928dea5f71b9825b8b646686bd200"
            }
        ],
        "token_infos": [
            {
                "address": "0xdd974d5c2e2928dea5f71b9825b8b646686bd200",
                "decimals": 18
            },
            {
                "address": "0xeeeeeeeeeeeeeeeeeeeeeeeeeeeeeeeeeeeeeeee",
                "decimals": 18
            },
            {
                "address": "0xc02aaa39b223fe8d0a0e5c4f27ead9083c756cc2",
                "decimals": 18
            }
        ]
    },
    "address_label": {
        "labels": [
            {
                "address": "0x0000000000000000000000000000000000000004",
                "label": "Precompiled"
            },
            {
                "address": "0xeeeeeeeeeeeeeeeeeeeeeeeeeeeeeeeeeeeeeeee",
                "label": "Ether"
            },
            {
                "address": "0x2501b6241afa666b0b3d736bedf2ee5d9231a20b",
                "label": "GATE.IO"
            },
            {
                "address": "0x0d0707963952f2fba59dd06f2b425ace40b492fe",
                "label": "Gate.io"
            },
            {
                "address": "0xdd974d5c2e2928dea5f71b9825b8b646686bd200",
                "label": "Kyber: Old KNC Token"
            },
            {
                "address": "0x0000000000000000000000000000000000000001",
                "label": "Precompiled"
            },
            {
                "address": "0x0000000000000000000000000000000000000002",
                "label": "Precompiled"
            },
            {
                "address": "0x0000000000000000000000000000000000000003",
                "label": "Precompiled"
            }
        ]
    },
    "trace": {
        "accountLabels": null,
        "dataMap": {
            "-1": {
                "invocation": {
                    "address": "0x2501b6241afa666b0b3d736bedf2ee5d9231a20b",
                    "callData": "",
                    "decodedMethod": null,
                    "errorInfo": "",
                    "fromAddress": "",
                    "gasUsed": 0,
                    "id": -1,
                    "methodDecoded": false,
                    "operation": "",
                    "output": "",
                    "revert": false,
                    "revertMessage": "",
                    "selector": "",
                    "status": false,
                    "value": ""
                },
                "nodeType": 0
            },
            "0": {
                "invocation": {
                    "address": "0xdd974d5c2e2928dea5f71b9825b8b646686bd200",
                    "callData": "0x0000000000000000000000000d0707963952f2fba59dd06f2b425ace40b492fe0000000000000000000000000000000000000000000000071cfa93299472c800",
                    "decodedMethod": {
                        "callParams": [
                            {
                                "name": "_to",
                                "type": "address",
                                "value": "0x0d0707963952f2fba59dd06f2b425ace40b492fe"
                            },
                            {
                                "decimalAvailable": true,
                                "name": "_value",
                                "type": "uint256",
                                "value": "131,215,351,700,000,000,000"
                            }
                        ],
                        "constructorArguments": "",
                        "name": "transfer",
                        "returnParams": [
                            {
                                "name": "",
                                "type": "bool",
                                "value": true
                            }
                        ],
                        "signature": "transfer(address,uint256)"
                    },
                    "errorInfo": "",
                    "fromAddress": "0x2501b6241afa666b0b3d736bedf2ee5d9231a20b",
                    "gasUsed": 37373,
                    "id": 0,
                    "methodDecoded": true,
                    "operation": "CALL",
                    "output": "0x0000000000000000000000000000000000000000000000000000000000000001",
                    "revert": false,
                    "revertMessage": "",
                    "selector": "0xa9059cbb",
                    "status": true,
                    "value": "0"
                },
                "nodeType": 0
            },
            "1": {
                "event": {
                    "contract": "0xdd974d5c2e2928dea5f71b9825b8b646686bd200",
                    "decodedLog": {
                        "name": "Transfer",
                        "params": [
                            {
                                "name": "_from",
                                "type": "address",
                                "value": "0x2501b6241afa666b0b3d736bedf2ee5d9231a20b"
                            },
                            {
                                "name": "_to",
                                "type": "address",
                                "value": "0x0d0707963952f2fba59dd06f2b425ace40b492fe"
                            },
                            {
                                "decimalAvailable": true,
                                "name": "_value",
                                "type": "uint256",
                                "value": "131,215,351,700,000,000,000"
                            }
                        ],
                        "signature": "Transfer(address,address,uint256)"
                    },
                    "id": 1,
                    "logData": "0x0000000000000000000000000000000000000000000000071cfa93299472c800",
                    "logDecoded": true,
                    "operation": "EVENT",
                    "revert": false,
                    "status": true,
                    "topics": [
                        "0xddf252ad1be2c89b69c2b068fc378daa952ba7f163c4a11628f55a4df523b3ef",
                        "0x0000000000000000000000002501b6241afa666b0b3d736bedf2ee5d9231a20b",
                        "0x0000000000000000000000000d0707963952f2fba59dd06f2b425ace40b492fe"
                    ]
                },
                "nodeType": 1
            }
        },
        "gasFlame": [
            {
                "children": [
                    {
                        "children": [
                            {
                                "children": [],
                                "depth": 0,
                                "name": "Initial Gas",
                                "value": 23320
                            },
                            {
                                "children": [],
                                "depth": 0,
                                "name": "Executed Gas",
                                "value": 14053
                            }
                        ],
                        "depth": -1,
                        "name": "Actual Gas Used",
                        "value": 37373
                    },
                    {
                        "children": [],
                        "depth": -1,
                        "name": "Refunded Gas",
                        "value": 0
                    }
                ],
                "depth": -2,
                "name": "Total Gas",
                "value": 37373
            }
        ],
        "isConfirmed": true,
        "mainTrace": [
            {
                "children": [
                    {
                        "children": [
                            {
                                "children": [],
                                "depth": 1,
                                "id": 1,
                                "order": 1
                            }
                        ],
                        "depth": 0,
                        "id": 0,
                        "order": 0
                    }
                ],
                "depth": -1,
                "id": -1,
                "order": -1
            }
        ],
        "mainTraceNodeCount": 2,
        "parentIdMap": {
            "0": -1,
            "1": 0
        },
        "tidyTrace": [
            {
                "children": [
                    {
                        "children": [
                            {
                                "children": [],
                                "depth": 1,
                                "id": 1,
                                "order": 1
                            }
                        ],
                        "depth": 0,
                        "id": 0,
                        "order": 0
                    }
                ],
                "depth": -1,
                "id": -1,
                "order": -1
            }
        ],
        "tidyTraceNodeCount": 2
    },
    "state_change": {
        "stateChanges": [
            {
                "address": "0xdd974d5c2e2928dea5f71b9825b8b646686bd200",
                "erc": "ERC-20",
                "slots": [
                    {
                        "current": "0x000000000000000000000000000000000000000000000000000000174876e800",
                        "key": "0x3dc124ed3984e15842e2832801e482884eafe6f9925da66d09128f616149c60b",
                        "prev": "0x0000000000000000000000000000000000000000000000071cfa9340dce9b000"
                    },
                    {
                        "current": "0x0000000000000000000000000000000000000000000011562d1fb04c21724800",
                        "key": "0x8f3fcd8a87d8a8259bebf9cb6e7e851eb52ed472d13c686b03ef031d54fecb85",
                        "prev": "0x00000000000000000000000000000000000000000000114f10251d228cff8000"
                    }
                ],
                "storageVariables": [
                    {
                        "name": "balances",
                        "type": "mapping(address => uint256)",
                        "value": {
                            "pairs": [
                                {
                                    "key": "0x0d0707963952f2fba59dd06f2b425ace40b492fe",
                                    "value": {
                                        "current": "81869901710420000000000",
                                        "prev": "81738686358720000000000",
                                        "typeTag": 1
                                    }
                                },
                                {
                                    "key": "0x2501b6241afa666b0b3d736bedf2ee5d9231a20b",
                                    "value": {
                                        "current": "100000000000",
                                        "prev": "131215351800000000000",
                                        "typeTag": 1
                                    }
                                }
                            ],
                            "typeTag": 4
                        }
                    }
                ]
            }
        ]
    }
}