{
    "balance_change": {
        "balanceChanges": [
            {
                "account": "0x714886e5105b0ed416850b3ada570f3070b962d9",
                "assets": [
                    {
                        "address": "0x9dffe202df7f82ba57a7f8d571628805eff7fed9",
                        "amount": "3,300",
                        "iconUrl": "",
                        "isERC1155": false,
                        "isERC721": false,
                        "sign": false,
                        "value": ""
                    }
                ]
            },
            {
                "account": "0x87c574fb2df0eaa2daf5fc4a8a16dd3ce39011b1",
                "assets": [
                    {
                        "address": "0x9dffe202df7f82ba57a7f8d571628805eff7fed9",
                        "amount": "3,300",
                        "iconUrl": "",
                        "isERC1155": false,
                        "isERC721": false,
                        "sign": true,
                        "value": ""
                    }
                ]
            }
        ]
    },
    "profile": {
        "basic_info": {
            "baseFee": "",
            "blockNumber": 9994184,
            "callData": "0xa9059cbb00000000000000000000000087c574fb2df0eaa2daf5fc4a8a16dd3ce39011b10000000000000000000000000000000000000000000000b2e4b323d9c5100000",
            "debugEnable": true,
            "errorInfo": "",
            "eventCount": 1,
            "feeRecipient": "0x99c85bb64564d9ef9a99621301f22c9993cb89e3",
            "formatValue": "0",
            "gasLimit": 100000,
            "gasPrice": "20",
            "gasUsed": 25588,
            "intTxnCount": 0,
            "internalRevert": false,
            "internalRevertMessage": "",
            "isContractCreation": false,
            "isFlashloan": false,
            "maxFee": "",
            "nonce": 25,
            "overwritedBlockNumber": -1,
            "priorityFee": "",
            "receiver": "0x9dffe202df7f82ba57a7f8d571628805eff7fed9",
            "revertMessage": "",
            "sender": "0x714886e5105b0ed416850b3ada570f3070b962d9",
            "simulationEnable": true,
            "sourceTxnHash": "0x339ae9bc6d6a5cc808d161ba33290e9a7c86598ce69dd59a214bc73213abab1b",
            "status": true,
            "timestamp": "2020-05-03T16:04:23Z",
            "transactionFee": "0.00051176",
            "txnHash": "0x339ae9bc6d6a5cc808d161ba33290e9a7c86598ce69dd59a214bc73213abab1b",
            "txnIndex": 37,
            "type": 0,
            "value": "0"
        },
        "fund_flow": [
            {
                "amount": "3,300",
                "from": "0x714886e5105b0ed416850b3ada570f3070b962d9",
                "id": 1,
                "isERC1155": false,
                "isERC721": false,
                "isReverted": false,
                "order": 1,
                "to": "0x87c574fb2df0eaa2daf5fc4a8a16dd3ce39011b1",
                "token": "0x9dffe202df7f82ba57a7f8d571628805eff7fed9"
            }
        ],
        "token_infos": [
            {
                "address": "0x9dffe202df7f82ba57a7f8d571628805eff7fed9",
                "decimals": 18
            },
            {
                "address": "0xc02aaa39b223fe8d0a0e5c4f27ead9083c756cc2",
                "decimals": 18
            },
            {
                "address": "0xeeeeeeeeeeeeeeeeeeeeeeeeeeeeeeeeeeeeeeee",
                "decimals": 18
            }
        ]
    },
    "address_label": {
        "labels": [
            {
                "address": "0xeeeeeeeeeeeeeeeeeeeeeeeeeeeeeeeeeeeeeeee",
                "label": "Ether"
            },
            {
                "address": "0x9dffe202df7f82ba57a7f8d571628805eff7fed9",
                "label": "Green&nbsp;(China)&nbsp;ec... (GEC)"
            },
            {
                "address": "0x0000000000000000000000000000000000000001",
                "label": "Precompiled"
            },
            {
                "address": "0x0000000000000000000000000000000000000002",
                "label": "Precompiled"
            },
            {
                "address": "0x0000000000000000000000000000000000000003",
                "label": "Precompiled"
            },
            {
                "address": "0x0000000000000000000000000000000000000004",
                "label": "Precompiled"
            }
        ]
    },
    "trace": {
        "accountLabels": null,
        "dataMap": {
            "-1": {
                "invocation": {
                    "address": "0x714886e5105b0ed416850b3ada570f3070b962d9",
                    "callData": "",
                    "decodedMethod": null,
                    "errorInfo": "",
                    "fromAddress": "",
                    "gasUsed": 0,
                    "id": -1,
                    "methodDecoded": false,
                    "operation": "",
                    "output": "",
                    "revert": false,
                    "revertMessage": "",
                    "selector": "",
                    "status": false,
                    "value": ""
                },
                "nodeType": 0
            },
            "0": {
                "invocation": {
                    "address": "0x9dffe202df7f82ba57a7f8d571628805eff7fed9",
                    "callData": "0x00000000000000000000000087c574fb2df0eaa2daf5fc4a8a16dd3ce39011b10000000000000000000000000000000000000000000000b2e4b323d9c5100000",
                    "decodedMethod": {
                        "callParams": [
                            {
                                "name": "_to",
                                "type": "address",
                                "value": "0x87c574fb2df0eaa2daf5fc4a8a16dd3ce39011b1"
                            },
                            {
                                "decimalAvailable": true,
                                "name": "_value",
                                "type": "uint256",
                                "value": "3,300,000,000,000,000,000,000"
                            }
                        ],
                        "constructorArguments": "",
                        "name": "transfer",
                        "returnParams": [
                            {
                                "name": "success",
                                "type": "bool",
                                "value": true
                            }
                        ],
                        "signature": "transfer(address,uint256)"
                    },
                    "errorInfo": "",
                    "fromAddress": "0x714886e5105b0ed416850b3ada570f3070b962d9",
                    "gasUsed": 25588,
                    "id": 0,
                    "methodDecoded": true,
                    "operation": "CALL",
                    "output": "0x0000000000000000000000000000000000000000000000000000000000000001",
                    "revert": false,
                    "revertMessage": "",
                    "selector": "0xa9059cbb",
                    "status": true,
                    "value": "0"
                },
                "nodeType": 0
            },
            "1": {
                "event": {
                    "contract": "0x9dffe202df7f82ba57a7f8d571628805eff7fed9",
                    "decodedLog": {
                        "name": "Transfer",
                        "params": [
                            {
                                "name": "from",
                                "type": "address",
                                "value": "0x714886e5105b0ed416850b3ada570f3070b962d9"
                            },
                            {
                                "name": "to",
                                "type": "address",
                                "value": "0x87c574fb2df0eaa2daf5fc4a8a16dd3ce39011b1"
                            },
                            {
                                "decimalAvailable": true,
                                "name": "value",
                                "type": "uint256",
                                "value": "3,300,000,000,000,000,000,000"
                            }
                        ],
                        "signature": "Transfer(address,address,uint256)"
                    },
                    "id": 1,
                    "logData": "0x0000000000000000000000000000000000000000000000b2e4b323d9c5100000",
                    "logDecoded": true,
                    "operation": "EVENT",
                    "revert": false,
                    "status": true,
                    "topics": [
                        "0xddf252ad1be2c89b69c2b068fc378daa952ba7f163c4a11628f55a4df523b3ef",
                        "0x000000000000000000000000714886e5105b0ed416850b3ada570f3070b962d9",
                        "0x00000000000000000000000087c574fb2df0eaa2daf5fc4a8a16dd3ce39011b1"
                    ]
                },
                "nodeType": 1
            }
        },
        "gasFlame": [
            {
                "children": [
                    {
                        "children": [
                            {
                                "children": [],
                                "depth": 0,
                                "name": "Initial Gas",
                                "value": 21644
                            },
                            {
                                "children": [],
                                "depth": 0,
                                "name": "Executed Gas",
                                "value": 18944
                            }
                        ],
                        "depth": -1,
                        "name": "Actual Gas Used",
                        "value": 25588
                    },
                    {
                        "children": [],
                        "depth": -1,
                        "name": "Refunded Gas",
                        "value": 15000
                    }
                ],
                "depth": -2,
                "name": "Total Gas",
                "value": 40588
            }
        ],
        "isConfirmed": true,
        "mainTrace": [
            {
                "children": [
                    {
                        "children": [
                            {
                                "children": [],
                                "depth": 1,
                                "id": 1,
                                "order": 1
                            }
                        ],
                        "depth": 0,
                        "id": 0,
                        "order": 0
                    }
                ],
                "depth": -1,
                "id": -1,
                "order": -1
            }
        ],
        "mainTraceNodeCount": 2,
        "parentIdMap": {
            "0": -1,
            "1": 0
        },
        "tidyTrace": [
            {
                "children": [
                    {
                        "children": [
                            {
                                "children": [],
                                "depth": 1,
                                "id": 1,
                                "order": 1
                            }
                        ],
                        "depth": 0,
                        "id": 0,
                        "order": 0
                    }
                ],
                "depth": -1,
                "id": -1,
                "order": -1
            }
        ],
        "tidyTraceNodeCount": 2
    },
    "state_change": {
        "stateChanges": [
            {
                "address": "0x9dffe202df7f82ba57a7f8d571628805eff7fed9",
                "erc": "ERC-20",
                "slots": [
                    {
                        "current": "0x0000000000000000000000000000000000000000000000000000000000000000",
                        "key": "0x809549aa759ebc9d4386393877125fa4c39295b52d3ae715a22faa8e4b041d2c",
                        "prev": "0x0000000000000000000000000000000000000000000000b2e4b323d9c5100000"
                    },
                    {
                        "current": "0x0000000000000000000000000000000000000000000262f5a4e68080ceede800",
                        "key": "0x26e2f8566ce246173225fc88b9df9dbf0e64562c9b218cf64d2ad638f2c0b31e",
                        "prev": "0x000000000000000000000000000000000000000000026242c0335ca709dde800"
                    }
                ],
                "storageVariables": [
                    {
                        "name": "balanceOf",
                        "type": "mapping(address => uint256)",
                        "value": {
                            "pairs": [
                                {
                                    "key": "0x714886e5105b0ed416850b3ada570f3070b962d9",
                                    "value": {
                                        "current": "0",
                                        "prev": "3300000000000000000000",
                                        "typeTag": 1
                                    }
                                },
                                {
                                    "key": "0x87c574fb2df0eaa2daf5fc4a8a16dd3ce39011b1",
                                    "value": {
                                        "current": "2885174889174500000000000",
                                        "prev": "2881874889174500000000000",
                                        "typeTag": 1
                                    }
                                }
                            ],
                            "typeTag": 4
                        }
                    }
                ]
            }
        ]
    }
}