{
    "balance_change": {
        "balanceChanges": [
            {
                "account": "0x66b46b0330c628f6e4aea5e9f2d2e1ecdfe57884",
                "assets": [
                    {
                        "address": "0xeeeeeeeeeeeeeeeeeeeeeeeeeeeeeeeeeeeeeeee",
                        "amount": "0.003828025954523436",
                        "iconUrl": "https://assets.blocksec.com/image/1663669189317-3.png",
                        "isERC1155": false,
                        "isERC721": false,
                        "sign": false,
                        "value": ""
                    }
                ]
            },
            {
                "account": "0xb4a448387403554616eb5b50aa4c48f75243a015",
                "assets": [
                    {
                        "address": "0xeeeeeeeeeeeeeeeeeeeeeeeeeeeeeeeeeeeeeeee",
                        "amount": "0.003828025954523436",
                        "iconUrl": "https://assets.blocksec.com/image/1663669189317-3.png",
                        "isERC1155": false,
                        "isERC721": false,
                        "sign": true,
                        "value": ""
                    }
                ]
            }
        ]
    },
    "profile": {
        "basic_info": {
            "baseFee": "",
            "blockNumber": 6678672,
            "callData": "0x4c85b4250000000000000000000000000000000000000000000000000000000000000000",
            "debugEnable": true,
            "errorInfo": "",
            "eventCount": 1,
            "feeRecipient": "0xb2930b35844a230f00e51431acae96fe543a0347",
            "formatValue": "0.003828025954523436",
            "gasLimit": 300000,
            "gasPrice": "12.960000003",
            "gasUsed": 95900,
            "intTxnCount": 0,
            "internalRevert": false,
            "internalRevertMessage": "",
            "isContractCreation": false,
            "isFlashloan": false,
            "maxFee": "",
            "nonce": 19,
            "overwritedBlockNumber": -1,
            "priorityFee": "",
            "receiver": "0xb4a448387403554616eb5b50aa4c48f75243a015",
            "revertMessage": "",
            "sender": "0x66b46b0330c628f6e4aea5e9f2d2e1ecdfe57884",
            "simulationEnable": true,
            "sourceTxnHash": "0x3340587d862b04a324a3905c4e24b53c14d81cd29c2c2222bf2555a6a5966edb",
            "status": true,
            "timestamp": "2018-11-10T13:27:05Z",
            "transactionFee": "0.0012428640002877",
            "txnHash": "0x3340587d862b04a324a3905c4e24b53c14d81cd29c2c2222bf2555a6a5966edb",
            "txnIndex": 26,
            "type": 0,
            "value": "3828025954523436"
        },
        "fund_flow": [
            {
                "amount": "0.003828025954523436",
                "from": "0x66b46b0330c628f6e4aea5e9f2d2e1ecdfe57884",
                "id": 1,
                "isERC1155": false,
                "isERC721": false,
                "isReverted": false,
                "order": 1,
                "to": "0xb4a448387403554616eb5b50aa4c48f75243a015",
                "token": "0xeeeeeeeeeeeeeeeeeeeeeeeeeeeeeeeeeeeeeeee"
            }
        ],
        "token_infos": [
            {
                "address": "0xeeeeeeeeeeeeeeeeeeeeeeeeeeeeeeeeeeeeeeee",
                "decimals": 18
            },
            {
                "address": "0xc02aaa39b223fe8d0a0e5c4f27ead9083c756cc2",
                "decimals": 18
            }
        ]
    },
    "address_label": {
        "labels": [
            {
                "address": "0x0000000000000000000000000000000000000002",
                "label": "Precompiled"
            },
            {
                "address": "0x0000000000000000000000000000000000000003",
                "label": "Precompiled"
            },
            {
                "address": "0x0000000000000000000000000000000000000004",
                "label": "Precompiled"
            },
            {
                "address": "0xeeeeeeeeeeeeeeeeeeeeeeeeeeeeeeeeeeeeeeee",
                "label": "Ether"
            },
            {
                "address": "0xb4a448387403554616eb5b50aa4c48f75243a015",
                "label": "Mobius2Dv2"
            },
            {
                "address": "0x0000000000000000000000000000000000000000",
                "label": "Null Address"
            },
            {
                "address": "0x0000000000000000000000000000000000000001",
                "label": "Precompiled"
            }
        ]
    },
    "trace": {
        "accountLabels": null,
        "dataMap": {
            "-1": {
                "invocation": {
                    "address": "0x66b46b0330c628f6e4aea5e9f2d2e1ecdfe57884",
                    "callData": "",
                    "decodedMethod": null,
                    "errorInfo": "",
                    "fromAddress": "",
                    "gasUsed": 0,
                    "id": -1,
                    "methodDecoded": false,
                    "operation": "",
                    "output": "",
                    "revert": false,
                    "revertMessage": "",
                    "selector": "",
                    "status": false,
                    "value": ""
                },
                "nodeType": 0
            },
            "0": {
                "invocation": {
                    "address": "0xb4a448387403554616eb5b50aa4c48f75243a015",
                    "callData": "0x0000000000000000000000000000000000000000000000000000000000000000",
                    "decodedMethod": {
                        "callParams": [
                            {
                                "name": "ref",
                                "type": "address",
                                "value": "0x0000000000000000000000000000000000000000"
                            }
                        ],
                        "constructorArguments": "",
                        "name": "buyShares",
                        "returnParams": [],
                        "signature": "buyShares(address)"
                    },
                    "errorInfo": "",
                    "fromAddress": "0x66b46b0330c628f6e4aea5e9f2d2e1ecdfe57884",
                    "gasUsed": 95900,
                    "id": 0,
                    "methodDecoded": true,
                    "operation": "CALL",
                    "output": "",
                    "revert": false,
                    "revertMessage": "",
                    "selector": "0x4c85b425",
                    "status": true,
                    "value": "0.003828025954523436"
                },
                "nodeType": 0
            },
            "1": {
                "event": {
                    "contract": "0xb4a448387403554616eb5b50aa4c48f75243a015",
                    "decodedLog": {
                        "name": "SharesIssued",
                        "params": [
                            {
                                "name": "to",
                                "type": "address",
                                "value": "0x66b46b0330c628f6e4aea5e9f2d2e1ecdfe57884"
                            },
                            {
                                "name": "shares",
                                "type": "uint256",
                                "value": "1,020,000,000,000,000,000"
                            }
                        ],
                        "signature": "SharesIssued(address,uint256)"
                    },
                    "id": 1,
                    "logData": "0x0000000000000000000000000000000000000000000000000e27c49886e60000",
                    "logDecoded": true,
                    "operation": "EVENT",
                    "revert": false,
                    "status": true,
                    "topics": [
                        "0x3abf6d97fde3541bb582f72fa6fb75093b8bb699577fbc722ac25de9f6fbc4ed",
                        "0x00000000000000000000000066b46b0330c628f6e4aea5e9f2d2e1ecdfe57884"
                    ]
                },
                "nodeType": 1
            }
        },
        "gasFlame": [
            {
                "children": [
                    {
                        "children": [
                            {
                                "children": [],
                                "depth": 0,
                                "name": "Initial Gas",
                                "value": 21400
                            },
                            {
                                "children": [],
                                "depth": 0,
                                "name": "Executed Gas",
                                "value": 74500
                            }
                        ],
                        "depth": -1,
                        "name": "Actual Gas Used",
                        "value": 95900
                    },
                    {
                        "children": [],
                        "depth": -1,
                        "name": "Refunded Gas",
                        "value": 0
                    }
                ],
                "depth": -2,
                "name": "Total Gas",
                "value": 95900
            }
        ],
        "isConfirmed": true,
        "mainTrace": [
            {
                "children": [
                    {
                        "children": [
                            {
                                "children": [],
                                "depth": 1,
                                "id": 1,
                                "order": 1
                            }
                        ],
                        "depth": 0,
                        "id": 0,
                        "order": 0
                    }
                ],
                "depth": -1,
                "id": -1,
                "order": -1
            }
        ],
        "mainTraceNodeCount": 2,
        "parentIdMap": {
            "0": -1,
            "1": 0
        },
        "tidyTrace": [
            {
                "children": [
                    {
                        "children": [
                            {
                                "children": [],
                                "depth": 1,
                                "id": 1,
                                "order": 1
                            }
                        ],
                        "depth": 0,
                        "id": 0,
                        "order": 0
                    }
                ],
                "depth": -1,
                "id": -1,
                "order": -1
            }
        ],
        "tidyTraceNodeCount": 2
    },
    "state_change": {
        "stateChanges": [
            {
                "address": "0xb4a448387403554616eb5b50aa4c48f75243a015",
                "erc": "",
                "slots": [
                    {
                        "current": "0x0000000000000000000000000000000000000000000000011b1b5bea89f7f9be",
                        "key": "0x2e54cecdfadf0e05f9b98ef70409413348ffa6f2a4d392e06a80f2c6df1e40c5",
                        "prev": "0x0000000000000000000000000000000000000000000000010cf397520311f9be"
                    },
                    {
                        "current": "0x000000000000000000000000000000000000000000000000000000005be6deb0",
                        "key": "0xd57b2b5166478fd4318d2acc6cc2c704584312bdd8781b32d5d06abda57f4235",
                        "prev": "0x000000000000000000000000000000000000000000000000000000005be6dd84"
                    },
                    {
                        "current": "0x000000000000000000000000000000000000000000007200e536f59b81bebc3a",
                        "key": "0xd57b2b5166478fd4318d2acc6cc2c704584312bdd8781b32d5d06abda57f4234",
                        "prev": "0x0000000000000000000000000000000000000000000072002cb1b00e10929e6a"
                    },
                    {
                        "current": "0x0000000000000000000000000000000000000000000000005af50c3c4f2d7923",
                        "key": "0x000000000000000000000000000000000000000000000000000000000000001d",
                        "prev": "0x0000000000000000000000000000000000000000000000005af45e2838d12e48"
                    },
                    {
                        "current": "0x000000000000000000000000000000000000000000007200e536f59b81bebc3a",
                        "key": "0x2e54cecdfadf0e05f9b98ef70409413348ffa6f2a4d392e06a80f2c6df1e40c4",
                        "prev": "0x0000000000000000000000000000000000000000000071ff80d5ef548eec7bbe"
                    },
                    {
                        "current": "0x0000000000000000000000000000000000000000000000071b24f4b62f8d8759",
                        "key": "0xd57b2b5166478fd4318d2acc6cc2c704584312bdd8781b32d5d06abda57f4230",
                        "prev": "0x0000000000000000000000000000000000000000000000071b175b247057ae2d"
                    },
                    {
                        "current": "0x00000000000000000000000000000000000000000000000000000a4829513dfe",
                        "key": "0x5530e99c34d409f5977642c7605ebd5c9595c5b920dd23ff874e5d05bb220c2a",
                        "prev": "0x000000000000000000000000000000000000000000000000000009d44996ae42"
                    },
                    {
                        "current": "0x00000000000000000000000066b46b0330c628f6e4aea5e9f2d2e1ecdfe57884",
                        "key": "0xd57b2b5166478fd4318d2acc6cc2c704584312bdd8781b32d5d06abda57f423c",
                        "prev": "0x0000000000000000000000002e1dfd635994c7b0689a38654319da583177b266"
                    },
                    {
                        "current": "0x0000000000000000000000000000000000000000000000004c5afa2f13878e15",
                        "key": "0x000000000000000000000000000000000000000000000000000000000000001e",
                        "prev": "0x0000000000000000000000000000000000000000000000004c52d13e07340bc7"
                    },
                    {
                        "current": "0x000000000000000000000000000000000000000000000000042872bf89d95f6d",
                        "key": "0xd57b2b5166478fd4318d2acc6cc2c704584312bdd8781b32d5d06abda57f4232",
                        "prev": "0x0000000000000000000000000000000000000000000000000427a1daa2376bff"
                    },
                    {
                        "current": "0x000000000000000000000000000000000000000000000004e6961be900aa6e0c",
                        "key": "0xd57b2b5166478fd4318d2acc6cc2c704584312bdd8781b32d5d06abda57f4231",
                        "prev": "0x000000000000000000000000000000000000000000000004e69411acbd958d79"
                    },
                    {
                        "current": "0x0000000000000000000000000000000000000000000024947ec0f4ddab371393",
                        "key": "0xd57b2b5166478fd4318d2acc6cc2c704584312bdd8781b32d5d06abda57f4233",
                        "prev": "0x0000000000000000000000000000000000000000000024947099304524511393"
                    }
                ],
                "storageVariables": [
                    {
                        "name": "rounds",
                        "type": "struct Mobius2Dv2.MobiusRound[]",
                        "value": {
                            "elemType": "struct Mobius2Dv2.MobiusRound",
                            "elems": [
                                {
                                    "index": 0,
                                    "value": {
                                        "fields": [
                                            {
                                                "name": "totalInvested",
                                                "type": "uint256",
                                                "value": {
                                                    "current": "131083165717471528793",
                                                    "prev": "131079337691517005357",
                                                    "typeTag": 1
                                                }
                                            },
                                            {
                                                "name": "jackpot",
                                                "type": "uint256",
                                                "value": {
                                                    "current": "90402474857620729356",
                                                    "prev": "90401900653727550841",
                                                    "typeTag": 1
                                                }
                                            },
                                            {
                                                "name": "dailyJackpot",
                                                "type": "uint256",
                                                "value": {
                                                    "current": "299615542197182317",
                                                    "prev": "299385860639910911",
                                                    "typeTag": 1
                                                }
                                            },
                                            {
                                                "name": "totalShares",
                                                "type": "uint256",
                                                "value": {
                                                    "current": "172744445075493446161299",
                                                    "prev": "172743425075493446161299",
                                                    "typeTag": 1
                                                }
                                            },
                                            {
                                                "name": "cumulativeReturnsPoints",
                                                "type": "uint256",
                                                "value": {
                                                    "current": "538366295705871227731002",
                                                    "prev": "538352999595922555051626",
                                                    "typeTag": 1
                                                }
                                            },
                                            {
                                                "name": "softDeadline",
                                                "type": "uint256",
                                                "value": {
                                                    "current": "1541856944",
                                                    "prev": "1541856644",
                                                    "typeTag": 1
                                                }
                                            },
                                            {
                                                "name": "lastInvestor",
                                                "type": "address",
                                                "value": {
                                                    "current": "0x66b46b0330c628f6e4aea5e9f2d2e1ecdfe57884",
                                                    "prev": "0x2e1dfd635994c7b0689a38654319da583177b266",
                                                    "typeTag": 1
                                                }
                                            },
                                            {
                                                "name": "finalized",
                                                "type": "bool",
                                                "value": {
                                                    "current": "false",
                                                    "prev": "false",
                                                    "typeTag": 1
                                                }
                                            },
                                            {
                                                "name": "investors",
                                                "type": "mapping(address => struct Mobius2Dv2.Investor)",
                                                "value": {
                                                    "pairs": [
                                                        {
                                                            "key": "0x66b46b0330c628f6e4aea5e9f2d2e1ecdfe57884",
                                                            "value": {
                                                                "fields": [
                                                                    {
                                                                        "name": "lastCumulativeReturnsPoints",
                                                                        "type": "uint256",
                                                                        "value": {
                                                                            "current": "538366295705871227731002",
                                                                            "prev": "538340615892419193109438",
                                                                            "typeTag": 1
                                                                        }
                                                                    },
                                                                    {
                                                                        "name": "shares",
                                                                        "type": "uint256",
                                                                        "value": {
                                                                            "current": "20399999999999998398",
                                                                            "prev": "19379999999999998398",
                                                                            "typeTag": 1
                                                                        }
                                                                    }
                                                                ],
                                                                "typeTag": 3
                                                            }
                                                        }
                                                    ],
                                                    "typeTag": 4
                                                }
                                            }
                                        ],
                                        "typeTag": 3
                                    }
                                }
                            ],
                            "typeTag": 2
                        }
                    },
                    {
                        "name": "vaults",
                        "type": "mapping(address => struct Mobius2Dv2.Vault)",
                        "value": {
                            "pairs": [
                                {
                                    "key": "0x66b46b0330c628f6e4aea5e9f2d2e1ecdfe57884",
                                    "value": {
                                        "fields": [
                                            {
                                                "name": "totalReturns",
                                                "type": "uint256",
                                                "value": {
                                                    "current": "11305047113214",
                                                    "prev": "10807372328514",
                                                    "typeTag": 1
                                                }
                                            }
                                        ],
                                        "typeTag": 3
                                    }
                                }
                            ],
                            "typeTag": 4
                        }
                    },
                    {
                        "name": "unclaimedReturns",
                        "type": "uint256",
                        "value": {
                            "current": "5501984974884539925",
                            "prev": "5499688159311825863",
                            "typeTag": 1
                        }
                    },
                    {
                        "name": "devBalance",
                        "type": "uint256",
                        "value": {
                            "current": "6554158285873576227",
                            "prev": "6553966884575850056",
                            "typeTag": 1
                        }
                    }
                ]
            }
        ]
    }
}