{
    "balance_change": {
        "balanceChanges": [
            {
                "account": "0xdfea5fd83840cf4bb60a6a90f64e791fce394315",
                "assets": [
                    {
                        "address": "0x327682779bab2bf4d1337e8974ab9de8275a7ca8",
                        "amount": "1,000",
                        "iconUrl": "https://assets.blocksec.com/icon/cfd8deec39a5e1496ac998071e50e3341d8c2bd6b951a174a9721b7fe4b676b0.png",
                        "isERC1155": false,
                        "isERC721": false,
                        "sign": false,
                        "value": ""
                    }
                ]
            },
            {
                "account": "0xcf9d45b76783c57d484c8f30d0e1d83610f6854b",
                "assets": [
                    {
                        "address": "0x327682779bab2bf4d1337e8974ab9de8275a7ca8",
                        "amount": "1,000",
                        "iconUrl": "https://assets.blocksec.com/icon/cfd8deec39a5e1496ac998071e50e3341d8c2bd6b951a174a9721b7fe4b676b0.png",
                        "isERC1155": false,
                        "isERC721": false,
                        "sign": true,
                        "value": ""
                    }
                ]
            }
        ]
    },
    "profile": {
        "basic_info": {
            "baseFee": "",
            "blockNumber": 7224789,
            "callData": "0xa9059cbb000000000000000000000000cf9d45b76783c57d484c8f30d0e1d83610f6854b00000000000000000000000000000000000000000000003635c9adc5dea00000",
            "debugEnable": true,
            "errorInfo": "",
            "eventCount": 1,
            "feeRecipient": "0x5a0b54d5dc17e0aadc383d2db43b0a0d3e029c4c",
            "formatValue": "0",
            "gasLimit": 78876,
            "gasPrice": "3",
            "gasUsed": 52584,
            "intTxnCount": 0,
            "internalRevert": false,
            "internalRevertMessage": "",
            "isContractCreation": false,
            "isFlashloan": false,
            "maxFee": "",
            "nonce": 153,
            "overwritedBlockNumber": -1,
            "priorityFee": "",
            "receiver": "0x327682779bab2bf4d1337e8974ab9de8275a7ca8",
            "revertMessage": "",
            "sender": "0xdfea5fd83840cf4bb60a6a90f64e791fce394315",
            "simulationEnable": true,
            "sourceTxnHash": "0x33facb1bf6fd4af6b38a64ead49ceaf6529e3071939be8087ee4bade6331e4e5",
            "status": true,
            "timestamp": "2019-02-15T19:49:27Z",
            "transactionFee": "0.000157752",
            "txnHash": "0x33facb1bf6fd4af6b38a64ead49ceaf6529e3071939be8087ee4bade6331e4e5",
            "txnIndex": 67,
            "type": 0,
            "value": "0"
        },
        "fund_flow": [
            {
                "amount": "1,000",
                "from": "0xdfea5fd83840cf4bb60a6a90f64e791fce394315",
                "id": 1,
                "isERC1155": false,
                "isERC721": false,
                "isReverted": false,
                "order": 1,
                "to": "0xcf9d45b76783c57d484c8f30d0e1d83610f6854b",
                "token": "0x327682779bab2bf4d1337e8974ab9de8275a7ca8"
            }
        ],
        "token_infos": [
            {
                "address": "0x327682779bab2bf4d1337e8974ab9de8275a7ca8",
                "decimals": 18
            },
            {
                "address": "0xc02aaa39b223fe8d0a0e5c4f27ead9083c756cc2",
                "decimals": 18
            },
            {
                "address": "0xeeeeeeeeeeeeeeeeeeeeeeeeeeeeeeeeeeeeeeee",
                "decimals": 18
            }
        ]
    },
    "address_label": {
        "labels": [
            {
                "address": "0x0000000000000000000000000000000000000001",
                "label": "Precompiled"
            },
            {
                "address": "0x0000000000000000000000000000000000000002",
                "label": "Precompiled"
            },
            {
                "address": "0x0000000000000000000000000000000000000003",
                "label": "Precompiled"
            },
            {
                "address": "0x0000000000000000000000000000000000000004",
                "label": "Precompiled"
            },
            {
                "address": "0xeeeeeeeeeeeeeeeeeeeeeeeeeeeeeeeeeeeeeeee",
                "label": "Ether"
            },
            {
                "address": "0xcf9d45b76783c57d484c8f30d0e1d83610f6854b",
                "label": "KUCOIN"
            },
            {
                "address": "0x327682779bab2bf4d1337e8974ab9de8275a7ca8",
                "label": "Blockport: BPT Token"
            }
        ]
    },
    "trace": {
        "accountLabels": null,
        "dataMap": {
            "-1": {
                "invocation": {
                    "address": "0xdfea5fd83840cf4bb60a6a90f64e791fce394315",
                    "callData": "",
                    "decodedMethod": null,
                    "errorInfo": "",
                    "fromAddress": "",
                    "gasUsed": 0,
                    "id": -1,
                    "methodDecoded": false,
                    "operation": "",
                    "output": "",
                    "revert": false,
                    "revertMessage": "",
                    "selector": "",
                    "status": false,
                    "value": ""
                },
                "nodeType": 0
            },
            "0": {
                "invocation": {
                    "address": "0x327682779bab2bf4d1337e8974ab9de8275a7ca8",
                    "callData": "0x000000000000000000000000cf9d45b76783c57d484c8f30d0e1d83610f6854b00000000000000000000000000000000000000000000003635c9adc5dea00000",
                    "decodedMethod": {
                        "callParams": [
                            {
                                "name": "_to",
                                "type": "address",
                                "value": "0xcf9d45b76783c57d484c8f30d0e1d83610f6854b"
                            },
                            {
                                "decimalAvailable": true,
                                "name": "_value",
                                "type": "uint256",
                                "value": "1,000,000,000,000,000,000,000"
                            }
                        ],
                        "constructorArguments": "",
                        "name": "transfer",
                        "returnParams": [
                            {
                                "name": "",
                                "type": "bool",
                                "value": true
                            }
                        ],
                        "signature": "transfer(address,uint256)"
                    },
                    "errorInfo": "",
                    "fromAddress": "0xdfea5fd83840cf4bb60a6a90f64e791fce394315",
                    "gasUsed": 52584,
                    "id": 0,
                    "methodDecoded": true,
                    "operation": "CALL",
                    "output": "0x0000000000000000000000000000000000000000000000000000000000000001",
                    "revert": false,
                    "revertMessage": "",
                    "selector": "0xa9059cbb",
                    "status": true,
                    "value": "0"
                },
                "nodeType": 0
            },
            "1": {
                "event": {
                    "contract": "0x327682779bab2bf4d1337e8974ab9de8275a7ca8",
                    "decodedLog": {
                        "name": "Transfer",
                        "params": [
                            {
                                "name": "from",
                                "type": "address",
                                "value": "0xdfea5fd83840cf4bb60a6a90f64e791fce394315"
                            },
                            {
                                "name": "to",
                                "type": "address",
                                "value": "0xcf9d45b76783c57d484c8f30d0e1d83610f6854b"
                            },
                            {
                                "decimalAvailable": true,
                                "name": "value",
                                "type": "uint256",
                                "value": "1,000,000,000,000,000,000,000"
                            }
                        ],
                        "signature": "Transfer(address,address,uint256)"
                    },
                    "id": 1,
                    "logData": "0x00000000000000000000000000000000000000000000003635c9adc5dea00000",
                    "logDecoded": true,
                    "operation": "EVENT",
                    "revert": false,
                    "status": true,
                    "topics": [
                        "0xddf252ad1be2c89b69c2b068fc378daa952ba7f163c4a11628f55a4df523b3ef",
                        "0x000000000000000000000000dfea5fd83840cf4bb60a6a90f64e791fce394315",
                        "0x000000000000000000000000cf9d45b76783c57d484c8f30d0e1d83610f6854b"
                    ]
                },
                "nodeType": 1
            }
        },
        "gasFlame": [
            {
                "children": [
                    {
                        "children": [
                            {
                                "children": [],
                                "depth": 0,
                                "name": "Initial Gas",
                                "value": 23256
                            },
                            {
                                "children": [],
                                "depth": 0,
                                "name": "Executed Gas",
                                "value": 29328
                            }
                        ],
                        "depth": -1,
                        "name": "Actual Gas Used",
                        "value": 52584
                    },
                    {
                        "children": [],
                        "depth": -1,
                        "name": "Refunded Gas",
                        "value": 0
                    }
                ],
                "depth": -2,
                "name": "Total Gas",
                "value": 52584
            }
        ],
        "isConfirmed": true,
        "mainTrace": [
            {
                "children": [
                    {
                        "children": [
                            {
                                "children": [],
                                "depth": 1,
                                "id": 1,
                                "order": 1
                            }
                        ],
                        "depth": 0,
                        "id": 0,
                        "order": 0
                    }
                ],
                "depth": -1,
                "id": -1,
                "order": -1
            }
        ],
        "mainTraceNodeCount": 2,
        "parentIdMap": {
            "0": -1,
            "1": 0
        },
        "tidyTrace": [
            {
                "children": [
                    {
                        "children": [
                            {
                                "children": [],
                                "depth": 1,
                                "id": 1,
                                "order": 1
                            }
                        ],
                        "depth": 0,
                        "id": 0,
                        "order": 0
                    }
                ],
                "depth": -1,
                "id": -1,
                "order": -1
            }
        ],
        "tidyTraceNodeCount": 2
    },
    "state_change": {
        "stateChanges": [
            {
                "address": "0x327682779bab2bf4d1337e8974ab9de8275a7ca8",
                "erc": "ERC-20",
                "slots": [
                    {
                        "current": "0x000000000000000000000000000000000000000000000042b15707e20e378000",
                        "key": "0xa2a58e6df0001fdddc576a4a370c9a054724f7ad58d02a1b0b6a0c3b9ae31102",
                        "prev": "0x000000000000000000000000000000000000000000000078e720b5a7ecd78000"
                    },
                    {
                        "current": "0x00000000000000000000000000000000000000000000003635c9adc5dea00000",
                        "key": "0x66026a7c40abeb81427921c81a0d7554b945192def6727f618c778c54e093bf6",
                        "prev": "0x0000000000000000000000000000000000000000000000000000000000000000"
                    }
                ],
                "storageVariables": [
                    {
                        "name": "balances",
                        "type": "mapping(address => uint256)",
                        "value": {
                            "pairs": [
                                {
                                    "key": "0xcf9d45b76783c57d484c8f30d0e1d83610f6854b",
                                    "value": {
                                        "current": "1000000000000000000000",
                                        "prev": "0",
                                        "typeTag": 1
                                    }
                                },
                                {
                                    "key": "0xdfea5fd83840cf4bb60a6a90f64e791fce394315",
                                    "value": {
                                        "current": "1230263800000000000000",
                                        "prev": "2230263800000000000000",
                                        "typeTag": 1
                                    }
                                }
                            ],
                            "typeTag": 4
                        }
                    }
                ]
            }
        ]
    }
}