{
    "balance_change": {
        "balanceChanges": [
            {
                "account": "0xae623c8b158c3df75b4f0f3886ca36b49b72f3e9",
                "assets": [
                    {
                        "address": "0xae7ab96520de3a18e5e111b5eaab095312d7fe84",
                        "amount": "5.505038031398636055",
                        "iconUrl": "https://assets.blocksec.com/icon/3968fd5c98727016afc635f2849cea0c6ddf42095e660b8a3497ee09185b175e.png",
                        "isERC1155": false,
                        "isERC721": false,
                        "sign": true,
                        "value": "19660.968075814949"
                    }
                ]
            },
            {
                "account": "0x93c4b944d05dfe6df7645a86cd2206016c51564d",
                "assets": [
                    {
                        "address": "0xae7ab96520de3a18e5e111b5eaab095312d7fe84",
                        "amount": "5.505038031398636055",
                        "iconUrl": "https://assets.blocksec.com/icon/3968fd5c98727016afc635f2849cea0c6ddf42095e660b8a3497ee09185b175e.png",
                        "isERC1155": false,
                        "isERC721": false,
                        "sign": false,
                        "value": "19660.968075814949"
                    }
                ]
            }
        ]
    },
    "profile": {
        "basic_info": {
            "baseFee": "26.996558011",
            "blockNumber": 19524701,
            "callData": "0xa782d9450000000000000000000000000000000000000000000000000000000000000080000000000000000000000000000000000000000000000000000000000000022000000000000000000000000000000000000000000000000000000000000002a000000000000000000000000000000000000000000000000000000000000002e00000000000000000000000000000000000000000000000000000000000000001000000000000000000000000000000000000000000000000000000000000002000000000000000000000000000000000000000000000000000000000000000e00000000000000000000000000000000000000000000000000000000000000120000000000000000000000000ae623c8b158c3df75b4f0f3886ca36b49b72f3e9000000000000000000000000ae623c8b158c3df75b4f0f3886ca36b49b72f3e90000000000000000000000000000000000000000000000000000000000000000000000000000000000000000000000000000000000000000000000000128d5220000000000000000000000000000000000000000000000000000000000000000000000000000000000000000000000000000000000000000000000000000000100000000000000000000000093c4b944d05dfe6df7645a86cd2206016c51564d00000000000000000000000000000000000000000000000000000000000000010000000000000000000000000000000000000000000000004a367a94d28ce9dd000000000000000000000000000000000000000000000000000000000000000100000000000000000000000000000000000000000000000000000000000000200000000000000000000000000000000000000000000000000000000000000001000000000000000000000000ae7ab96520de3a18e5e111b5eaab095312d7fe840000000000000000000000000000000000000000000000000000000000000001000000000000000000000000000000000000000000000000000000000000000000000000000000000000000000000000000000000000000000000000000000010000000000000000000000000000000000000000000000000000000000000001",
            "debugEnable": true,
            "errorInfo": "",
            "eventCount": 3,
            "feeRecipient": "0x95222290dd7278aa3ddd389cc1e1d165cc4bafe5",
            "formatValue": "0",
            "gasLimit": 273769,
            "gasPrice": "27.009373988",
            "gasUsed": 161717,
            "intTxnCount": 17,
            "internalRevert": false,
            "internalRevertMessage": "",
            "isContractCreation": false,
            "isFlashloan": false,
            "maxFee": "36.378845015",
            "nonce": 711,
            "overwritedBlockNumber": -1,
            "priorityFee": "0.012815977",
            "receiver": "0x858646372cc42e1a627fce94aa7a7033e7cf075a",
            "revertMessage": "",
            "sender": "0xae623c8b158c3df75b4f0f3886ca36b49b72f3e9",
            "simulationEnable": true,
            "sourceTxnHash": "0x34c6e975e32439deed64a6d2a1375c07e7290d9457bc9879dcbfc1ab23839a70",
            "status": true,
            "timestamp": "2024-03-27T09:13:11Z",
            "transactionFee": "0.004367874933217396",
            "txnHash": "0x34c6e975e32439deed64a6d2a1375c07e7290d9457bc9879dcbfc1ab23839a70",
            "txnIndex": 160,
            "type": 2,
            "value": "0"
        },
        "fund_flow": [
            {
                "amount": "5.505038031398636055",
                "from": "0x93c4b944d05dfe6df7645a86cd2206016c51564d",
                "id": 1,
                "isERC1155": false,
                "isERC721": false,
                "isReverted": false,
                "order": 1,
                "to": "0xae623c8b158c3df75b4f0f3886ca36b49b72f3e9",
                "token": "0xae7ab96520de3a18e5e111b5eaab095312d7fe84"
            }
        ],
        "token_infos": [
            {
                "address": "0xae7ab96520de3a18e5e111b5eaab095312d7fe84",
                "decimals": 18
            },
            {
                "address": "0xc02aaa39b223fe8d0a0e5c4f27ead9083c756cc2",
                "decimals": 18
            },
            {
                "address": "0xeeeeeeeeeeeeeeeeeeeeeeeeeeeeeeeeeeeeeeee",
                "decimals": 18
            }
        ]
    },
    "address_label": {
        "labels": [
            {
                "address": "0x0000000000000000000000000000000000000002",
                "label": "Precompiled"
            },
            {
                "address": "0x0000000000000000000000000000000000000003",
                "label": "Precompiled"
            },
            {
                "address": "0x2b33cf282f867a7ff693a66e11b0fcc5552e4425",
                "label": "Lido: DAO Impl 1.0.0"
            },
            {
                "address": "0x93c4b944d05dfe6df7645a86cd2206016c51564d",
                "label": "EigenLayer: stETH Strategies"
            },
            {
                "address": "0xf97e97649da958d290e84e6d571c32f4b7f475e4",
                "label": "DelegationManager"
            },
            {
                "address": "0xd92145c07f8ed1d392c1b88017934e301cc1c3cd",
                "label": "EigenLayer: Slasher"
            },
            {
                "address": "0x0000000000000000000000000000000000000000",
                "label": "Null Address"
            },
            {
                "address": "0x0000000000000000000000000000000000000001",
                "label": "Precompiled"
            },
            {
                "address": "0xeeeeeeeeeeeeeeeeeeeeeeeeeeeeeeeeeeeeeeee",
                "label": "Ether"
            },
            {
                "address": "0x39053d51b77dc0d36036fc1fcc8cb819df8ef37a",
                "label": "EigenLayer: Delegation"
            },
            {
                "address": "0xdfda04f980be6a64e3607c95ca26012ab9aa46d3",
                "label": "EigenLayer: Base Strategy Implementation"
            },
            {
                "address": "0x858646372cc42e1a627fce94aa7a7033e7cf075a",
                "label": "EigenLayer: Strategy Manager"
            },
            {
                "address": "0xb8ffc3cd6e7cf5a098a1c92f48009765b24088dc",
                "label": "Lido: DAO"
            },
            {
                "address": "0xae7ab96520de3a18e5e111b5eaab095312d7fe84",
                "label": "Lido: stETH Token"
            },
            {
                "address": "0x5d25eef8cfedaa47d31fe2346726de1c21e342fb",
                "label": "StrategyManager"
            },
            {
                "address": "0xef31c292801f24f16479dd83197f1e6aebb8d6d8",
                "label": "Slasher"
            },
            {
                "address": "0x17144556fd3424edc8fc8a4c940b2d04936d17eb",
                "label": "Lido: stETH Token Impl 2.0.0"
            },
            {
                "address": "0x0000000000000000000000000000000000000004",
                "label": "Precompiled"
            }
        ]
    },
    "trace": {
        "accountLabels": null,
        "dataMap": {
            "-1": {
                "invocation": {
                    "address": "0xae623c8b158c3df75b4f0f3886ca36b49b72f3e9",
                    "callData": "",
                    "decodedMethod": null,
                    "errorInfo": "",
                    "fromAddress": "",
                    "gasUsed": 0,
                    "id": -1,
                    "methodDecoded": false,
                    "operation": "",
                    "output": "",
                    "revert": false,
                    "revertMessage": "",
                    "selector": "",
                    "status": false,
                    "value": ""
                },
                "nodeType": 0
            },
            "0": {
                "invocation": {
                    "address": "0x858646372cc42e1a627fce94aa7a7033e7cf075a",
                    "callData": "0x0000000000000000000000000000000000000000000000000000000000000080000000000000000000000000000000000000000000000000000000000000022000000000000000000000000000000000000000000000000000000000000002a000000000000000000000000000000000000000000000000000000000000002e00000000000000000000000000000000000000000000000000000000000000001000000000000000000000000000000000000000000000000000000000000002000000000000000000000000000000000000000000000000000000000000000e00000000000000000000000000000000000000000000000000000000000000120000000000000000000000000ae623c8b158c3df75b4f0f3886ca36b49b72f3e9000000000000000000000000ae623c8b158c3df75b4f0f3886ca36b49b72f3e90000000000000000000000000000000000000000000000000000000000000000000000000000000000000000000000000000000000000000000000000128d5220000000000000000000000000000000000000000000000000000000000000000000000000000000000000000000000000000000000000000000000000000000100000000000000000000000093c4b944d05dfe6df7645a86cd2206016c51564d00000000000000000000000000000000000000000000000000000000000000010000000000000000000000000000000000000000000000004a367a94d28ce9dd000000000000000000000000000000000000000000000000000000000000000100000000000000000000000000000000000000000000000000000000000000200000000000000000000000000000000000000000000000000000000000000001000000000000000000000000ae7ab96520de3a18e5e111b5eaab095312d7fe840000000000000000000000000000000000000000000000000000000000000001000000000000000000000000000000000000000000000000000000000000000000000000000000000000000000000000000000000000000000000000000000010000000000000000000000000000000000000000000000000000000000000001",
                    "decodedMethod": {
                        "callParams": [
                            {
                                "name": "queuedWithdrawals",
                                "type": "(address[],uint256[],address,(address,uint96),uint32,address)[]",
                                "value": [
                                    [
                                        {
                                            "name": "strategies",
                                            "type": "address[]",
                                            "value": [
                                                "0x93c4b944d05dfe6df7645a86cd2206016c51564d"
                                            ]
                                        },
                                        {
                                            "name": "shares",
                                            "type": "uint256[]",
                                            "value": [
                                                "5,347,596,387,155,241,437"
                                            ]
                                        },
                                        {
                                            "name": "depositor",
                                            "type": "address",
                                            "value": "0xae623c8b158c3df75b4f0f3886ca36b49b72f3e9"
                                        },
                                        {
                                            "name": "withdrawerAndNonce",
                                            "type": "(address,uint96)",
                                            "value": [
                                                {
                                                    "name": "withdrawer",
                                                    "type": "address",
                                                    "value": "0xae623c8b158c3df75b4f0f3886ca36b49b72f3e9"
                                                },
                                                {
                                                    "name": "nonce",
                                                    "type": "uint96",
                                                    "value": "0"
                                                }
                                            ]
                                        },
                                        {
                                            "name": "withdrawalStartBlock",
                                            "type": "uint32",
                                            "value": "19,453,218"
                                        },
                                        {
                                            "name": "delegatedAddress",
                                            "type": "address",
                                            "value": "0x0000000000000000000000000000000000000000"
                                        }
                                    ]
                                ]
                            },
                            {
                                "name": "tokens",
                                "type": "address[][]",
                                "value": [
                                    [
                                        "0xae7ab96520de3a18e5e111b5eaab095312d7fe84"
                                    ]
                                ]
                            },
                            {
                                "name": "middlewareTimesIndexes",
                                "type": "uint256[]",
                                "value": [
                                    "0"
                                ]
                            },
                            {
                                "name": "receiveAsTokens",
                                "type": "bool[]",
                                "value": [
                                    true
                                ]
                            }
                        ],
                        "constructorArguments": "",
                        "name": "completeQueuedWithdrawals",
                        "returnParams": [],
                        "signature": "completeQueuedWithdrawals((address[],uint256[],address,(address,uint96),uint32,address)[],address[][],uint256[],bool[])"
                    },
                    "errorInfo": "",
                    "fromAddress": "0xae623c8b158c3df75b4f0f3886ca36b49b72f3e9",
                    "gasUsed": 161717,
                    "id": 0,
                    "methodDecoded": true,
                    "operation": "CALL",
                    "output": "",
                    "revert": false,
                    "revertMessage": "",
                    "selector": "0xa782d945",
                    "status": true,
                    "value": "0"
                },
                "nodeType": 0
            },
            "1": {
                "invocation": {
                    "address": "0x5d25eef8cfedaa47d31fe2346726de1c21e342fb",
                    "callData": "0x0000000000000000000000000000000000000000000000000000000000000080000000000000000000000000000000000000000000000000000000000000022000000000000000000000000000000000000000000000000000000000000002a000000000000000000000000000000000000000000000000000000000000002e00000000000000000000000000000000000000000000000000000000000000001000000000000000000000000000000000000000000000000000000000000002000000000000000000000000000000000000000000000000000000000000000e00000000000000000000000000000000000000000000000000000000000000120000000000000000000000000ae623c8b158c3df75b4f0f3886ca36b49b72f3e9000000000000000000000000ae623c8b158c3df75b4f0f3886ca36b49b72f3e90000000000000000000000000000000000000000000000000000000000000000000000000000000000000000000000000000000000000000000000000128d5220000000000000000000000000000000000000000000000000000000000000000000000000000000000000000000000000000000000000000000000000000000100000000000000000000000093c4b944d05dfe6df7645a86cd2206016c51564d00000000000000000000000000000000000000000000000000000000000000010000000000000000000000000000000000000000000000004a367a94d28ce9dd000000000000000000000000000000000000000000000000000000000000000100000000000000000000000000000000000000000000000000000000000000200000000000000000000000000000000000000000000000000000000000000001000000000000000000000000ae7ab96520de3a18e5e111b5eaab095312d7fe840000000000000000000000000000000000000000000000000000000000000001000000000000000000000000000000000000000000000000000000000000000000000000000000000000000000000000000000000000000000000000000000010000000000000000000000000000000000000000000000000000000000000001",
                    "decodedMethod": {
                        "callParams": [
                            {
                                "name": "queuedWithdrawals",
                                "type": "(address[],uint256[],address,(address,uint96),uint32,address)[]",
                                "value": [
                                    [
                                        {
                                            "name": "strategies",
                                            "type": "address[]",
                                            "value": [
                                                "0x93c4b944d05dfe6df7645a86cd2206016c51564d"
                                            ]
                                        },
                                        {
                                            "name": "shares",
                                            "type": "uint256[]",
                                            "value": [
                                                "5,347,596,387,155,241,437"
                                            ]
                                        },
                                        {
                                            "name": "depositor",
                                            "type": "address",
                                            "value": "0xae623c8b158c3df75b4f0f3886ca36b49b72f3e9"
                                        },
                                        {
                                            "name": "withdrawerAndNonce",
                                            "type": "(address,uint96)",
                                            "value": [
                                                {
                                                    "name": "withdrawer",
                                                    "type": "address",
                                                    "value": "0xae623c8b158c3df75b4f0f3886ca36b49b72f3e9"
                                                },
                                                {
                                                    "name": "nonce",
                                                    "type": "uint96",
                                                    "value": "0"
                                                }
                                            ]
                                        },
                                        {
                                            "name": "withdrawalStartBlock",
                                            "type": "uint32",
                                            "value": "19,453,218"
                                        },
                                        {
                                            "name": "delegatedAddress",
                                            "type": "address",
                                            "value": "0x0000000000000000000000000000000000000000"
                                        }
                                    ]
                                ]
                            },
                            {
                                "name": "tokens",
                                "type": "address[][]",
                                "value": [
                                    [
                                        "0xae7ab96520de3a18e5e111b5eaab095312d7fe84"
                                    ]
                                ]
                            },
                            {
                                "name": "middlewareTimesIndexes",
                                "type": "uint256[]",
                                "value": [
                                    "0"
                                ]
                            },
                            {
                                "name": "receiveAsTokens",
                                "type": "bool[]",
                                "value": [
                                    true
                                ]
                            }
                        ],
                        "constructorArguments": "",
                        "name": "completeQueuedWithdrawals",
                        "returnParams": [],
                        "signature": "completeQueuedWithdrawals((address[],uint256[],address,(address,uint96),uint32,address)[],address[][],uint256[],bool[])"
                    },
                    "errorInfo": "",
                    "fromAddress": "0x858646372cc42e1a627fce94aa7a7033e7cf075a",
                    "gasUsed": 136251,
                    "id": 1,
                    "methodDecoded": true,
                    "operation": "DELEGATECALL",
                    "output": "",
                    "revert": false,
                    "revertMessage": "",
                    "selector": "0xa782d945",
                    "status": true,
                    "value": "0"
                },
                "nodeType": 0
            },
            "10": {
                "invocation": {
                    "address": "0xae7ab96520de3a18e5e111b5eaab095312d7fe84",
                    "callData": "0x00000000000000000000000093c4b944d05dfe6df7645a86cd2206016c51564d",
                    "decodedMethod": {
                        "callParams": [
                            {
                                "name": "account",
                                "type": "address",
                                "value": "0x93c4b944d05dfe6df7645a86cd2206016c51564d"
                            }
                        ],
                        "constructorArguments": "",
                        "name": "balanceOf",
                        "returnParams": [
                            {
                                "decimalAvailable": true,
                                "name": "",
                                "type": "uint256",
                                "value": "926,618,136,211,923,984,345,111"
                            }
                        ],
                        "signature": "balanceOf(address)"
                    },
                    "errorInfo": "",
                    "fromAddress": "0x93c4b944d05dfe6df7645a86cd2206016c51564d",
                    "gasUsed": 33852,
                    "id": 10,
                    "methodDecoded": true,
                    "operation": "STATICCALL",
                    "output": "0x00000000000000000000000000000000000000000000c43811df8b734d6a6817",
                    "revert": false,
                    "revertMessage": "",
                    "selector": "0x70a08231",
                    "status": true,
                    "value": "0"
                },
                "nodeType": 0
            },
            "11": {
                "invocation": {
                    "address": "0xb8ffc3cd6e7cf5a098a1c92f48009765b24088dc",
                    "callData": "0xf1f3eb40f5bc1ad1344716ced8b8a0431d840b5783aea1fd01786bc26f35ac0f3ca7c3e38968823ccb4c78ea688df41356f182ae1d159e4ee608d30d68cef320",
                    "decodedMethod": {
                        "callParams": [
                            {
                                "name": "_namespace",
                                "type": "bytes32",
                                "value": "0xf1f3eb40f5bc1ad1344716ced8b8a0431d840b5783aea1fd01786bc26f35ac0f"
                            },
                            {
                                "name": "_appId",
                                "type": "bytes32",
                                "value": "0x3ca7c3e38968823ccb4c78ea688df41356f182ae1d159e4ee608d30d68cef320"
                            }
                        ],
                        "constructorArguments": "",
                        "name": "getApp",
                        "returnParams": [
                            {
                                "name": "",
                                "type": "address",
                                "value": "0x17144556fd3424edc8fc8a4c940b2d04936d17eb"
                            }
                        ],
                        "signature": "getApp(bytes32,bytes32)"
                    },
                    "errorInfo": "",
                    "fromAddress": "0xae7ab96520de3a18e5e111b5eaab095312d7fe84",
                    "gasUsed": 8263,
                    "id": 11,
                    "methodDecoded": true,
                    "operation": "CALL",
                    "output": "0x00000000000000000000000017144556fd3424edc8fc8a4c940b2d04936d17eb",
                    "revert": false,
                    "revertMessage": "",
                    "selector": "0xbe00bbd8",
                    "status": true,
                    "value": "0"
                },
                "nodeType": 0
            },
            "12": {
                "invocation": {
                    "address": "0x2b33cf282f867a7ff693a66e11b0fcc5552e4425",
                    "callData": "0xf1f3eb40f5bc1ad1344716ced8b8a0431d840b5783aea1fd01786bc26f35ac0f3ca7c3e38968823ccb4c78ea688df41356f182ae1d159e4ee608d30d68cef320",
                    "decodedMethod": {
                        "callParams": [
                            {
                                "name": "_namespace",
                                "type": "bytes32",
                                "value": "0xf1f3eb40f5bc1ad1344716ced8b8a0431d840b5783aea1fd01786bc26f35ac0f"
                            },
                            {
                                "name": "_appId",
                                "type": "bytes32",
                                "value": "0x3ca7c3e38968823ccb4c78ea688df41356f182ae1d159e4ee608d30d68cef320"
                            }
                        ],
                        "constructorArguments": "",
                        "name": "getApp",
                        "returnParams": [
                            {
                                "name": "",
                                "type": "address",
                                "value": "0x17144556fd3424edc8fc8a4c940b2d04936d17eb"
                            }
                        ],
                        "signature": "getApp(bytes32,bytes32)"
                    },
                    "errorInfo": "",
                    "fromAddress": "0xb8ffc3cd6e7cf5a098a1c92f48009765b24088dc",
                    "gasUsed": 2820,
                    "id": 12,
                    "methodDecoded": true,
                    "operation": "DELEGATECALL",
                    "output": "0x00000000000000000000000017144556fd3424edc8fc8a4c940b2d04936d17eb",
                    "revert": false,
                    "revertMessage": "",
                    "selector": "0xbe00bbd8",
                    "status": true,
                    "value": "0"
                },
                "nodeType": 0
            },
            "13": {
                "invocation": {
                    "address": "0x17144556fd3424edc8fc8a4c940b2d04936d17eb",
                    "callData": "0x00000000000000000000000093c4b944d05dfe6df7645a86cd2206016c51564d",
                    "decodedMethod": {
                        "callParams": [
                            {
                                "name": "_account",
                                "type": "address",
                                "value": "0x93c4b944d05dfe6df7645a86cd2206016c51564d"
                            }
                        ],
                        "constructorArguments": "",
                        "name": "balanceOf",
                        "returnParams": [
                            {
                                "decimalAvailable": true,
                                "name": "",
                                "type": "uint256",
                                "value": "926,618,136,211,923,984,345,111"
                            }
                        ],
                        "signature": "balanceOf(address)"
                    },
                    "errorInfo": "",
                    "fromAddress": "0xae7ab96520de3a18e5e111b5eaab095312d7fe84",
                    "gasUsed": 14972,
                    "id": 13,
                    "methodDecoded": true,
                    "operation": "DELEGATECALL",
                    "output": "0x00000000000000000000000000000000000000000000c43811df8b734d6a6817",
                    "revert": false,
                    "revertMessage": "",
                    "selector": "0x70a08231",
                    "status": true,
                    "value": "0"
                },
                "nodeType": 0
            },
            "14": {
                "invocation": {
                    "address": "0xae7ab96520de3a18e5e111b5eaab095312d7fe84",
                    "callData": "0x000000000000000000000000ae623c8b158c3df75b4f0f3886ca36b49b72f3e90000000000000000000000000000000000000000000000004c65d2ec30880a17",
                    "decodedMethod": {
                        "callParams": [
                            {
                                "name": "recipient",
                                "type": "address",
                                "value": "0xae623c8b158c3df75b4f0f3886ca36b49b72f3e9"
                            },
                            {
                                "decimalAvailable": true,
                                "name": "amount",
                                "type": "uint256",
                                "value": "5,505,038,031,398,636,055"
                            }
                        ],
                        "constructorArguments": "",
                        "name": "transfer",
                        "returnParams": [
                            {
                                "name": "",
                                "type": "bool",
                                "value": true
                            }
                        ],
                        "signature": "transfer(address,uint256)"
                    },
                    "errorInfo": "",
                    "fromAddress": "0x93c4b944d05dfe6df7645a86cd2206016c51564d",
                    "gasUsed": 21967,
                    "id": 14,
                    "methodDecoded": true,
                    "operation": "CALL",
                    "output": "0x0000000000000000000000000000000000000000000000000000000000000001",
                    "revert": false,
                    "revertMessage": "",
                    "selector": "0xa9059cbb",
                    "status": true,
                    "value": "0"
                },
                "nodeType": 0
            },
            "15": {
                "invocation": {
                    "address": "0xb8ffc3cd6e7cf5a098a1c92f48009765b24088dc",
                    "callData": "0xf1f3eb40f5bc1ad1344716ced8b8a0431d840b5783aea1fd01786bc26f35ac0f3ca7c3e38968823ccb4c78ea688df41356f182ae1d159e4ee608d30d68cef320",
                    "decodedMethod": {
                        "callParams": [
                            {
                                "name": "_namespace",
                                "type": "bytes32",
                                "value": "0xf1f3eb40f5bc1ad1344716ced8b8a0431d840b5783aea1fd01786bc26f35ac0f"
                            },
                            {
                                "name": "_appId",
                                "type": "bytes32",
                                "value": "0x3ca7c3e38968823ccb4c78ea688df41356f182ae1d159e4ee608d30d68cef320"
                            }
                        ],
                        "constructorArguments": "",
                        "name": "getApp",
                        "returnParams": [
                            {
                                "name": "",
                                "type": "address",
                                "value": "0x17144556fd3424edc8fc8a4c940b2d04936d17eb"
                            }
                        ],
                        "signature": "getApp(bytes32,bytes32)"
                    },
                    "errorInfo": "",
                    "fromAddress": "0xae7ab96520de3a18e5e111b5eaab095312d7fe84",
                    "gasUsed": 1763,
                    "id": 15,
                    "methodDecoded": true,
                    "operation": "CALL",
                    "output": "0x00000000000000000000000017144556fd3424edc8fc8a4c940b2d04936d17eb",
                    "revert": false,
                    "revertMessage": "",
                    "selector": "0xbe00bbd8",
                    "status": true,
                    "value": "0"
                },
                "nodeType": 0
            },
            "16": {
                "invocation": {
                    "address": "0x2b33cf282f867a7ff693a66e11b0fcc5552e4425",
                    "callData": "0xf1f3eb40f5bc1ad1344716ced8b8a0431d840b5783aea1fd01786bc26f35ac0f3ca7c3e38968823ccb4c78ea688df41356f182ae1d159e4ee608d30d68cef320",
                    "decodedMethod": {
                        "callParams": [
                            {
                                "name": "_namespace",
                                "type": "bytes32",
                                "value": "0xf1f3eb40f5bc1ad1344716ced8b8a0431d840b5783aea1fd01786bc26f35ac0f"
                            },
                            {
                                "name": "_appId",
                                "type": "bytes32",
                                "value": "0x3ca7c3e38968823ccb4c78ea688df41356f182ae1d159e4ee608d30d68cef320"
                            }
                        ],
                        "constructorArguments": "",
                        "name": "getApp",
                        "returnParams": [
                            {
                                "name": "",
                                "type": "address",
                                "value": "0x17144556fd3424edc8fc8a4c940b2d04936d17eb"
                            }
                        ],
                        "signature": "getApp(bytes32,bytes32)"
                    },
                    "errorInfo": "",
                    "fromAddress": "0xb8ffc3cd6e7cf5a098a1c92f48009765b24088dc",
                    "gasUsed": 820,
                    "id": 16,
                    "methodDecoded": true,
                    "operation": "DELEGATECALL",
                    "output": "0x00000000000000000000000017144556fd3424edc8fc8a4c940b2d04936d17eb",
                    "revert": false,
                    "revertMessage": "",
                    "selector": "0xbe00bbd8",
                    "status": true,
                    "value": "0"
                },
                "nodeType": 0
            },
            "17": {
                "invocation": {
                    "address": "0x17144556fd3424edc8fc8a4c940b2d04936d17eb",
                    "callData": "0x000000000000000000000000ae623c8b158c3df75b4f0f3886ca36b49b72f3e90000000000000000000000000000000000000000000000004c65d2ec30880a17",
                    "decodedMethod": {
                        "callParams": [
                            {
                                "name": "_recipient",
                                "type": "address",
                                "value": "0xae623c8b158c3df75b4f0f3886ca36b49b72f3e9"
                            },
                            {
                                "decimalAvailable": true,
                                "name": "_amount",
                                "type": "uint256",
                                "value": "5,505,038,031,398,636,055"
                            }
                        ],
                        "constructorArguments": "",
                        "name": "transfer",
                        "returnParams": [
                            {
                                "name": "",
                                "type": "bool",
                                "value": true
                            }
                        ],
                        "signature": "transfer(address,uint256)"
                    },
                    "errorInfo": "",
                    "fromAddress": "0xae7ab96520de3a18e5e111b5eaab095312d7fe84",
                    "gasUsed": 18581,
                    "id": 17,
                    "methodDecoded": true,
                    "operation": "DELEGATECALL",
                    "output": "0x0000000000000000000000000000000000000000000000000000000000000001",
                    "revert": false,
                    "revertMessage": "",
                    "selector": "0xa9059cbb",
                    "status": true,
                    "value": "0"
                },
                "nodeType": 0
            },
            "18": {
                "event": {
                    "contract": "0xae7ab96520de3a18e5e111b5eaab095312d7fe84",
                    "decodedLog": {
                        "name": "Transfer",
                        "params": [
                            {
                                "name": "from",
                                "type": "address",
                                "value": "0x93c4b944d05dfe6df7645a86cd2206016c51564d"
                            },
                            {
                                "name": "to",
                                "type": "address",
                                "value": "0xae623c8b158c3df75b4f0f3886ca36b49b72f3e9"
                            },
                            {
                                "decimalAvailable": true,
                                "name": "value",
                                "type": "uint256",
                                "value": "5,505,038,031,398,636,055"
                            }
                        ],
                        "signature": "Transfer(address,address,uint256)"
                    },
                    "id": 18,
                    "logData": "0x0000000000000000000000000000000000000000000000004c65d2ec30880a17",
                    "logDecoded": true,
                    "operation": "EVENT",
                    "revert": false,
                    "status": true,
                    "topics": [
                        "0xddf252ad1be2c89b69c2b068fc378daa952ba7f163c4a11628f55a4df523b3ef",
                        "0x00000000000000000000000093c4b944d05dfe6df7645a86cd2206016c51564d",
                        "0x000000000000000000000000ae623c8b158c3df75b4f0f3886ca36b49b72f3e9"
                    ]
                },
                "nodeType": 1
            },
            "19": {
                "event": {
                    "contract": "0xae7ab96520de3a18e5e111b5eaab095312d7fe84",
                    "decodedLog": {
                        "name": "TransferShares",
                        "params": [
                            {
                                "name": "from",
                                "type": "address",
                                "value": "0x93c4b944d05dfe6df7645a86cd2206016c51564d"
                            },
                            {
                                "name": "to",
                                "type": "address",
                                "value": "0xae623c8b158c3df75b4f0f3886ca36b49b72f3e9"
                            },
                            {
                                "name": "sharesValue",
                                "type": "uint256",
                                "value": "4,739,214,205,833,309,621"
                            }
                        ],
                        "signature": "TransferShares(address,address,uint256)"
                    },
                    "id": 19,
                    "logData": "0x00000000000000000000000000000000000000000000000041c51235f52dedb5",
                    "logDecoded": true,
                    "operation": "EVENT",
                    "revert": false,
                    "status": true,
                    "topics": [
                        "0x9d9c909296d9c674451c0c24f02cb64981eb3b727f99865939192f880a755dcb",
                        "0x00000000000000000000000093c4b944d05dfe6df7645a86cd2206016c51564d",
                        "0x000000000000000000000000ae623c8b158c3df75b4f0f3886ca36b49b72f3e9"
                    ]
                },
                "nodeType": 1
            },
            "2": {
                "invocation": {
                    "address": "0xd92145c07f8ed1d392c1b88017934e301cc1c3cd",
                    "callData": "0x0000000000000000000000000000000000000000000000000000000000000000",
                    "decodedMethod": {
                        "callParams": [
                            {
                                "name": "staker",
                                "type": "address",
                                "value": "0x0000000000000000000000000000000000000000"
                            }
                        ],
                        "constructorArguments": "",
                        "name": "isFrozen",
                        "returnParams": [
                            {
                                "name": "",
                                "type": "bool",
                                "value": false
                            }
                        ],
                        "signature": "isFrozen(address)"
                    },
                    "errorInfo": "",
                    "fromAddress": "0x858646372cc42e1a627fce94aa7a7033e7cf075a",
                    "gasUsed": 22795,
                    "id": 2,
                    "methodDecoded": true,
                    "operation": "STATICCALL",
                    "output": "0x0000000000000000000000000000000000000000000000000000000000000000",
                    "revert": false,
                    "revertMessage": "",
                    "selector": "0xe5839836",
                    "status": true,
                    "value": "0"
                },
                "nodeType": 0
            },
            "20": {
                "event": {
                    "contract": "0x858646372cc42e1a627fce94aa7a7033e7cf075a",
                    "decodedLog": {
                        "name": "WithdrawalCompleted",
                        "params": [
                            {
                                "name": "depositor",
                                "type": "address",
                                "value": "0xae623c8b158c3df75b4f0f3886ca36b49b72f3e9"
                            },
                            {
                                "name": "withdrawer",
                                "type": "address",
                                "value": "0xae623c8b158c3df75b4f0f3886ca36b49b72f3e9"
                            },
                            {
                                "name": "nonce",
                                "type": "uint96",
                                "value": "0"
                            },
                            {
                                "name": "withdrawalRoot",
                                "type": "bytes32",
                                "value": "0x98cd9c45846b8a99cb961f210ea403ee88f75ffb45aa16fa4800448182fd337c"
                            }
                        ],
                        "signature": "WithdrawalCompleted(address,uint96,address,bytes32)"
                    },
                    "id": 20,
                    "logData": "0x000000000000000000000000000000000000000000000000000000000000000098cd9c45846b8a99cb961f210ea403ee88f75ffb45aa16fa4800448182fd337c",
                    "logDecoded": true,
                    "operation": "EVENT",
                    "revert": false,
                    "status": true,
                    "topics": [
                        "0xe7eb0ca11b83744ece3d78e9be01b913425fbae70c32ce27726d0ecde92ef8d2",
                        "0x000000000000000000000000ae623c8b158c3df75b4f0f3886ca36b49b72f3e9",
                        "0x000000000000000000000000ae623c8b158c3df75b4f0f3886ca36b49b72f3e9"
                    ]
                },
                "nodeType": 1
            },
            "3": {
                "invocation": {
                    "address": "0xef31c292801f24f16479dd83197f1e6aebb8d6d8",
                    "callData": "0x0000000000000000000000000000000000000000000000000000000000000000",
                    "decodedMethod": {
                        "callParams": [
                            {
                                "name": "staker",
                                "type": "address",
                                "value": "0x0000000000000000000000000000000000000000"
                            }
                        ],
                        "constructorArguments": "",
                        "name": "isFrozen",
                        "returnParams": [
                            {
                                "name": "",
                                "type": "bool",
                                "value": false
                            }
                        ],
                        "signature": "isFrozen(address)"
                    },
                    "errorInfo": "",
                    "fromAddress": "0xd92145c07f8ed1d392c1b88017934e301cc1c3cd",
                    "gasUsed": 15476,
                    "id": 3,
                    "methodDecoded": true,
                    "operation": "DELEGATECALL",
                    "output": "0x0000000000000000000000000000000000000000000000000000000000000000",
                    "revert": false,
                    "revertMessage": "",
                    "selector": "0xe5839836",
                    "status": true,
                    "value": "0"
                },
                "nodeType": 0
            },
            "4": {
                "invocation": {
                    "address": "0x39053d51b77dc0d36036fc1fcc8cb819df8ef37a",
                    "callData": "0x0000000000000000000000000000000000000000000000000000000000000000",
                    "decodedMethod": {
                        "callParams": [
                            {
                                "name": "staker",
                                "type": "address",
                                "value": "0x0000000000000000000000000000000000000000"
                            }
                        ],
                        "constructorArguments": "",
                        "name": "isDelegated",
                        "returnParams": [
                            {
                                "name": "",
                                "type": "bool",
                                "value": false
                            }
                        ],
                        "signature": "isDelegated(address)"
                    },
                    "errorInfo": "",
                    "fromAddress": "0xd92145c07f8ed1d392c1b88017934e301cc1c3cd",
                    "gasUsed": 9928,
                    "id": 4,
                    "methodDecoded": true,
                    "operation": "STATICCALL",
                    "output": "0x0000000000000000000000000000000000000000000000000000000000000000",
                    "revert": false,
                    "revertMessage": "",
                    "selector": "0x3e28391d",
                    "status": true,
                    "value": "0"
                },
                "nodeType": 0
            },
            "5": {
                "invocation": {
                    "address": "0xf97e97649da958d290e84e6d571c32f4b7f475e4",
                    "callData": "0x0000000000000000000000000000000000000000000000000000000000000000",
                    "decodedMethod": {
                        "callParams": [
                            {
                                "name": "staker",
                                "type": "address",
                                "value": "0x0000000000000000000000000000000000000000"
                            }
                        ],
                        "constructorArguments": "",
                        "name": "isDelegated",
                        "returnParams": [
                            {
                                "name": "",
                                "type": "bool",
                                "value": false
                            }
                        ],
                        "signature": "isDelegated(address)"
                    },
                    "errorInfo": "",
                    "fromAddress": "0x39053d51b77dc0d36036fc1fcc8cb819df8ef37a",
                    "gasUsed": 2609,
                    "id": 5,
                    "methodDecoded": true,
                    "operation": "DELEGATECALL",
                    "output": "0x0000000000000000000000000000000000000000000000000000000000000000",
                    "revert": false,
                    "revertMessage": "",
                    "selector": "0x3e28391d",
                    "status": true,
                    "value": "0"
                },
                "nodeType": 0
            },
            "6": {
                "invocation": {
                    "address": "0xd92145c07f8ed1d392c1b88017934e301cc1c3cd",
                    "callData": "0x0000000000000000000000000000000000000000000000000000000000000000000000000000000000000000000000000000000000000000000000000128d5220000000000000000000000000000000000000000000000000000000000000000",
                    "decodedMethod": {
                        "callParams": [
                            {
                                "name": "operator",
                                "type": "address",
                                "value": "0x0000000000000000000000000000000000000000"
                            },
                            {
                                "name": "withdrawalStartBlock",
                                "type": "uint32",
                                "value": "19,453,218"
                            },
                            {
                                "name": "middlewareTimesIndex",
                                "type": "uint256",
                                "value": "0"
                            }
                        ],
                        "constructorArguments": "",
                        "name": "canWithdraw",
                        "returnParams": [
                            {
                                "name": "",
                                "type": "bool",
                                "value": true
                            }
                        ],
                        "signature": "canWithdraw(address,uint32,uint256)"
                    },
                    "errorInfo": "",
                    "fromAddress": "0x858646372cc42e1a627fce94aa7a7033e7cf075a",
                    "gasUsed": 3619,
                    "id": 6,
                    "methodDecoded": true,
                    "operation": "CALL",
                    "output": "0x0000000000000000000000000000000000000000000000000000000000000001",
                    "revert": false,
                    "revertMessage": "",
                    "selector": "0x8105e043",
                    "status": true,
                    "value": "0"
                },
                "nodeType": 0
            },
            "7": {
                "invocation": {
                    "address": "0xef31c292801f24f16479dd83197f1e6aebb8d6d8",
                    "callData": "0x0000000000000000000000000000000000000000000000000000000000000000000000000000000000000000000000000000000000000000000000000128d5220000000000000000000000000000000000000000000000000000000000000000",
                    "decodedMethod": {
                        "callParams": [
                            {
                                "name": "operator",
                                "type": "address",
                                "value": "0x0000000000000000000000000000000000000000"
                            },
                            {
                                "name": "withdrawalStartBlock",
                                "type": "uint32",
                                "value": "19,453,218"
                            },
                            {
                                "name": "middlewareTimesIndex",
                                "type": "uint256",
                                "value": "0"
                            }
                        ],
                        "constructorArguments": "",
                        "name": "canWithdraw",
                        "returnParams": [
                            {
                                "name": "",
                                "type": "bool",
                                "value": true
                            }
                        ],
                        "signature": "canWithdraw(address,uint32,uint256)"
                    },
                    "errorInfo": "",
                    "fromAddress": "0xd92145c07f8ed1d392c1b88017934e301cc1c3cd",
                    "gasUsed": 2791,
                    "id": 7,
                    "methodDecoded": true,
                    "operation": "DELEGATECALL",
                    "output": "0x0000000000000000000000000000000000000000000000000000000000000001",
                    "revert": false,
                    "revertMessage": "",
                    "selector": "0x8105e043",
                    "status": true,
                    "value": "0"
                },
                "nodeType": 0
            },
            "8": {
                "invocation": {
                    "address": "0x93c4b944d05dfe6df7645a86cd2206016c51564d",
                    "callData": "0x000000000000000000000000ae623c8b158c3df75b4f0f3886ca36b49b72f3e9000000000000000000000000ae7ab96520de3a18e5e111b5eaab095312d7fe840000000000000000000000000000000000000000000000004a367a94d28ce9dd",
                    "decodedMethod": {
                        "callParams": [
                            {
                                "name": "depositor",
                                "type": "address",
                                "value": "0xae623c8b158c3df75b4f0f3886ca36b49b72f3e9"
                            },
                            {
                                "name": "token",
                                "type": "address",
                                "value": "0xae7ab96520de3a18e5e111b5eaab095312d7fe84"
                            },
                            {
                                "name": "amountShares",
                                "type": "uint256",
                                "value": "5,347,596,387,155,241,437"
                            }
                        ],
                        "constructorArguments": "",
                        "name": "withdraw",
                        "returnParams": [],
                        "signature": "withdraw(address,address,uint256)"
                    },
                    "errorInfo": "",
                    "fromAddress": "0x858646372cc42e1a627fce94aa7a7033e7cf075a",
                    "gasUsed": 78112,
                    "id": 8,
                    "methodDecoded": true,
                    "operation": "CALL",
                    "output": "",
                    "revert": false,
                    "revertMessage": "",
                    "selector": "0xd9caed12",
                    "status": true,
                    "value": "0"
                },
                "nodeType": 0
            },
            "9": {
                "invocation": {
                    "address": "0xdfda04f980be6a64e3607c95ca26012ab9aa46d3",
                    "callData": "0x000000000000000000000000ae623c8b158c3df75b4f0f3886ca36b49b72f3e9000000000000000000000000ae7ab96520de3a18e5e111b5eaab095312d7fe840000000000000000000000000000000000000000000000004a367a94d28ce9dd",
                    "decodedMethod": {
                        "callParams": [
                            {
                                "name": "depositor",
                                "type": "address",
                                "value": "0xae623c8b158c3df75b4f0f3886ca36b49b72f3e9"
                            },
                            {
                                "name": "token",
                                "type": "address",
                                "value": "0xae7ab96520de3a18e5e111b5eaab095312d7fe84"
                            },
                            {
                                "name": "amountShares",
                                "type": "uint256",
                                "value": "5,347,596,387,155,241,437"
                            }
                        ],
                        "constructorArguments": "",
                        "name": "withdraw",
                        "returnParams": [],
                        "signature": "withdraw(address,address,uint256)"
                    },
                    "errorInfo": "",
                    "fromAddress": "0x93c4b944d05dfe6df7645a86cd2206016c51564d",
                    "gasUsed": 70787,
                    "id": 9,
                    "methodDecoded": true,
                    "operation": "DELEGATECALL",
                    "output": "",
                    "revert": false,
                    "revertMessage": "",
                    "selector": "0xd9caed12",
                    "status": true,
                    "value": "0"
                },
                "nodeType": 0
            }
        },
        "gasFlame": [
            {
                "children": [
                    {
                        "children": [
                            {
                                "children": [],
                                "depth": 0,
                                "name": "Initial Gas",
                                "value": 25608
                            },
                            {
                                "children": [
                                    {
                                        "children": [
                                            {
                                                "children": [
                                                    {
                                                        "children": [
                                                            {
                                                                "children": [
                                                                    {
                                                                        "children": [],
                                                                        "depth": 5,
                                                                        "name": "isDelegated",
                                                                        "value": 2609
                                                                    }
                                                                ],
                                                                "depth": 4,
                                                                "name": "isDelegated",
                                                                "value": 9928
                                                            }
                                                        ],
                                                        "depth": 3,
                                                        "name": "isFrozen",
                                                        "value": 15476
                                                    }
                                                ],
                                                "depth": 2,
                                                "name": "isFrozen",
                                                "value": 22795
                                            },
                                            {
                                                "children": [
                                                    {
                                                        "children": [],
                                                        "depth": 3,
                                                        "name": "canWithdraw",
                                                        "value": 2791
                                                    }
                                                ],
                                                "depth": 2,
                                                "name": "canWithdraw",
                                                "value": 3619
                                            },
                                            {
                                                "children": [
                                                    {
                                                        "children": [
                                                            {
                                                                "children": [
                                                                    {
                                                                        "children": [
                                                                            {
                                                                                "children": [],
                                                                                "depth": 6,
                                                                                "name": "getApp",
                                                                                "value": 2820
                                                                            }
                                                                        ],
                                                                        "depth": 5,
                                                                        "name": "getApp",
                                                                        "value": 8263
                                                                    },
                                                                    {
                                                                        "children": [],
                                                                        "depth": 5,
                                                                        "name": "balanceOf",
                                                                        "value": 14972
                                                                    }
                                                                ],
                                                                "depth": 4,
                                                                "name": "balanceOf",
                                                                "value": 33852
                                                            },
                                                            {
                                                                "children": [
                                                                    {
                                                                        "children": [
                                                                            {
                                                                                "children": [],
                                                                                "depth": 6,
                                                                                "name": "getApp",
                                                                                "value": 820
                                                                            }
                                                                        ],
                                                                        "depth": 5,
                                                                        "name": "getApp",
                                                                        "value": 1763
                                                                    },
                                                                    {
                                                                        "children": [],
                                                                        "depth": 5,
                                                                        "name": "transfer",
                                                                        "value": 18581
                                                                    }
                                                                ],
                                                                "depth": 4,
                                                                "name": "transfer",
                                                                "value": 21967
                                                            }
                                                        ],
                                                        "depth": 3,
                                                        "name": "withdraw",
                                                        "value": 70787
                                                    }
                                                ],
                                                "depth": 2,
                                                "name": "withdraw",
                                                "value": 78112
                                            }
                                        ],
                                        "depth": 1,
                                        "name": "completeQueuedWithdrawals",
                                        "value": 136251
                                    }
                                ],
                                "depth": 0,
                                "name": "Executed Gas",
                                "value": 143709
                            }
                        ],
                        "depth": -1,
                        "name": "Actual Gas Used",
                        "value": 161717
                    },
                    {
                        "children": [],
                        "depth": -1,
                        "name": "Refunded Gas",
                        "value": 7600
                    }
                ],
                "depth": -2,
                "name": "Total Gas",
                "value": 169317
            }
        ],
        "isConfirmed": true,
        "mainTrace": [
            {
                "children": [
                    {
                        "children": [
                            {
                                "children": [
                                    {
                                        "children": [
                                            {
                                                "children": [
                                                    {
                                                        "children": [
                                                            {
                                                                "children": [],
                                                                "depth": 5,
                                                                "id": 5,
                                                                "order": 5
                                                            }
                                                        ],
                                                        "depth": 4,
                                                        "id": 4,
                                                        "order": 4
                                                    }
                                                ],
                                                "depth": 3,
                                                "id": 3,
                                                "order": 3
                                            }
                                        ],
                                        "depth": 2,
                                        "id": 2,
                                        "order": 2
                                    },
                                    {
                                        "children": [
                                            {
                                                "children": [],
                                                "depth": 3,
                                                "id": 7,
                                                "order": 7
                                            }
                                        ],
                                        "depth": 2,
                                        "id": 6,
                                        "order": 6
                                    },
                                    {
                                        "children": [
                                            {
                                                "children": [
                                                    {
                                                        "children": [
                                                            {
                                                                "children": [
                                                                    {
                                                                        "children": [],
                                                                        "depth": 6,
                                                                        "id": 12,
                                                                        "order": 12
                                                                    }
                                                                ],
                                                                "depth": 5,
                                                                "id": 11,
                                                                "order": 11
                                                            },
                                                            {
                                                                "children": [],
                                                                "depth": 5,
                                                                "id": 13,
                                                                "order": 13
                                                            }
                                                        ],
                                                        "depth": 4,
                                                        "id": 10,
                                                        "order": 10
                                                    },
                                                    {
                                                        "children": [
                                                            {
                                                                "children": [
                                                                    {
                                                                        "children": [],
                                                                        "depth": 6,
                                                                        "id": 16,
                                                                        "order": 16
                                                                    }
                                                                ],
                                                                "depth": 5,
                                                                "id": 15,
                                                                "order": 15
                                                            },
                                                            {
                                                                "children": [
                                                                    {
                                                                        "children": [],
                                                                        "depth": 6,
                                                                        "id": 18,
                                                                        "order": 18
                                                                    },
                                                                    {
                                                                        "children": [],
                                                                        "depth": 6,
                                                                        "id": 19,
                                                                        "order": 19
                                                                    }
                                                                ],
                                                                "depth": 5,
                                                                "id": 17,
                                                                "order": 17
                                                            }
                                                        ],
                                                        "depth": 4,
                                                        "id": 14,
                                                        "order": 14
                                                    }
                                                ],
                                                "depth": 3,
                                                "id": 9,
                                                "order": 9
                                            }
                                        ],
                                        "depth": 2,
                                        "id": 8,
                                        "order": 8
                                    },
                                    {
                                        "children": [],
                                        "depth": 2,
                                        "id": 20,
                                        "order": 20
                                    }
                                ],
                                "depth": 1,
                                "id": 1,
                                "order": 1
                            }
                        ],
                        "depth": 0,
                        "id": 0,
                        "order": 0
                    }
                ],
                "depth": -1,
                "id": -1,
                "order": -1
            }
        ],
        "mainTraceNodeCount": 21,
        "parentIdMap": {
            "0": -1,
            "1": 0,
            "10": 9,
            "11": 10,
            "12": 11,
            "13": 10,
            "14": 9,
            "15": 14,
            "16": 15,
            "17": 14,
            "18": 17,
            "19": 17,
            "2": 1,
            "20": 1,
            "3": 2,
            "4": 3,
            "5": 4,
            "6": 1,
            "7": 6,
            "8": 1,
            "9": 8
        },
        "tidyTrace": [
            {
                "children": [
                    {
                        "children": [
                            {
                                "children": [
                                    {
                                        "children": [
                                            {
                                                "children": [],
                                                "depth": 3,
                                                "id": 7,
                                                "order": 7
                                            }
                                        ],
                                        "depth": 2,
                                        "id": 6,
                                        "order": 6
                                    },
                                    {
                                        "children": [
                                            {
                                                "children": [
                                                    {
                                                        "children": [
                                                            {
                                                                "children": [
                                                                    {
                                                                        "children": [],
                                                                        "depth": 6,
                                                                        "id": 16,
                                                                        "order": 16
                                                                    }
                                                                ],
                                                                "depth": 5,
                                                                "id": 15,
                                                                "order": 15
                                                            },
                                                            {
                                                                "children": [
                                                                    {
                                                                        "children": [],
                                                                        "depth": 6,
                                                                        "id": 18,
                                                                        "order": 18
                                                                    },
                                                                    {
                                                                        "children": [],
                                                                        "depth": 6,
                                                                        "id": 19,
                                                                        "order": 19
                                                                    }
                                                                ],
                                                                "depth": 5,
                                                                "id": 17,
                                                                "order": 17
                                                            }
                                                        ],
                                                        "depth": 4,
                                                        "id": 14,
                                                        "order": 14
                                                    }
                                                ],
                                                "depth": 3,
                                                "id": 9,
                                                "order": 9
                                            }
                                        ],
                                        "depth": 2,
                                        "id": 8,
                                        "order": 8
                                    },
                                    {
                                        "children": [],
                                        "depth": 2,
                                        "id": 20,
                                        "order": 20
                                    }
                                ],
                                "depth": 1,
                                "id": 1,
                                "order": 1
                            }
                        ],
                        "depth": 0,
                        "id": 0,
                        "order": 0
                    }
                ],
                "depth": -1,
                "id": -1,
                "order": -1
            }
        ],
        "tidyTraceNodeCount": 13
    },
    "state_change": {
        "stateChanges": [
            {
                "address": "0x858646372cc42e1a627fce94aa7a7033e7cf075a",
                "erc": "",
                "slots": [
                    {
                        "current": "0x0000000000000000000000000000000000000000000000000000000000000000",
                        "key": "0x6c4c0d5785569e9639e3184fede0eadf4acefcf6799f4ba5894cfb0e75cd350f",
                        "prev": "0x0000000000000000000000000000000000000000000000000000000000000001"
                    }
                ],
                "storageVariables": [
                    {
                        "name": "withdrawalRootPending",
                        "type": "mapping(bytes32 => bool)",
                        "value": {
                            "pairs": [
                                {
                                    "key": "0x98cd9c45846b8a99cb961f210ea403ee88f75ffb45aa16fa4800448182fd337c",
                                    "value": {
                                        "current": "false",
                                        "prev": "true",
                                        "typeTag": 1
                                    }
                                }
                            ],
                            "typeTag": 4
                        }
                    }
                ]
            },
            {
                "address": "0x93c4b944d05dfe6df7645a86cd2206016c51564d",
                "erc": "",
                "slots": [
                    {
                        "current": "0x00000000000000000000000000000000000000000000be9b2a3eec1a541584fb",
                        "key": "0x0000000000000000000000000000000000000000000000000000000000000033",
                        "prev": "0x00000000000000000000000000000000000000000000be9b747566af26a26ed8"
                    }
                ],
                "storageVariables": [
                    {
                        "name": "totalShares",
                        "type": "uint256",
                        "value": {
                            "current": "900111921206653544137979",
                            "prev": "900117268803040699379416",
                            "typeTag": 1
                        }
                    }
                ]
            },
            {
                "address": "0xae7ab96520de3a18e5e111b5eaab095312d7fe84",
                "erc": "",
                "slots": [
                    {
                        "current": "0x00000000000000000000000000000000000000000000000041c51d181a89f80d",
                        "key": "0x16cf92f3ca44f3e400dc5ad3e5852ed41f72ac46bac3ee5295c818fa1681c760",
                        "prev": "0x00000000000000000000000000000000000000000000000000000ae2255c0a58"
                    },
                    {
                        "current": "0x00000000000000000000000000000000000000000000a8ebdd9588ed0e5ef871",
                        "key": "0xc54c9146675d1ea44e83e3c06f1f7f70a045536b699583b1aabf2b1db71b565f",
                        "prev": "0x00000000000000000000000000000000000000000000a8ec1f5a9b23038ce626"
                    }
                ],
                "storageVariables": []
            }
        ]
    }
}