{
    "balance_change": {
        "balanceChanges": []
    },
    "profile": {
        "basic_info": {
            "baseFee": "",
            "blockNumber": 1542622,
            "callData": "0x7d242ae500000000000000000000000000000000000000000000000000004447c72e6c0300000000000000000000000000000000000000000000000000000000000000400000000000000000000000000000000000000000000000000000000000000000",
            "debugEnable": true,
            "errorInfo": "",
            "eventCount": 0,
            "feeRecipient": "0xd89b9c6968b1e70f4e41201c624a14da08104273",
            "formatValue": "0",
            "gasLimit": 500000,
            "gasPrice": "20",
            "gasUsed": 62175,
            "intTxnCount": 0,
            "internalRevert": false,
            "internalRevertMessage": "",
            "isContractCreation": false,
            "isFlashloan": false,
            "maxFee": "",
            "nonce": 33613,
            "overwritedBlockNumber": -1,
            "priorityFee": "",
            "receiver": "0x88e1315687aec48a72786c6b3b3f075208b62713",
            "revertMessage": "",
            "sender": "0x26588a9301b0428d95e6fc3a5024fce8bec12d51",
            "simulationEnable": true,
            "sourceTxnHash": "0x3449e738438f4f076e685249a62671590ef41f38037f3d653892b1514de416fe",
            "status": true,
            "timestamp": "2016-05-18T23:30:16Z",
            "transactionFee": "0.0012435",
            "txnHash": "0x3449e738438f4f076e685249a62671590ef41f38037f3d653892b1514de416fe",
            "txnIndex": 0,
            "type": 0,
            "value": "0"
        },
        "fund_flow": [],
        "token_infos": [
            {
                "address": "0xc02aaa39b223fe8d0a0e5c4f27ead9083c756cc2",
                "decimals": 18
            },
            {
                "address": "0xeeeeeeeeeeeeeeeeeeeeeeeeeeeeeeeeeeeeeeee",
                "decimals": 18
            }
        ]
    },
    "address_label": {
        "labels": [
            {
                "address": "0x0000000000000000000000000000000000000004",
                "label": "Precompiled"
            },
            {
                "address": "0xeeeeeeeeeeeeeeeeeeeeeeeeeeeeeeeeeeeeeeee",
                "label": "Ether"
            },
            {
                "address": "0x26588a9301b0428d95e6fc3a5024fce8bec12d51",
                "label": "Oraclize"
            },
            {
                "address": "0x0000000000000000000000000000000000000001",
                "label": "Precompiled"
            },
            {
                "address": "0x0000000000000000000000000000000000000002",
                "label": "Precompiled"
            },
            {
                "address": "0x0000000000000000000000000000000000000003",
                "label": "Precompiled"
            }
        ]
    },
    "trace": {
        "accountLabels": null,
        "dataMap": {
            "-1": {
                "invocation": {
                    "address": "0x26588a9301b0428d95e6fc3a5024fce8bec12d51",
                    "callData": "",
                    "decodedMethod": null,
                    "errorInfo": "",
                    "fromAddress": "",
                    "gasUsed": 0,
                    "id": -1,
                    "methodDecoded": false,
                    "operation": "",
                    "output": "",
                    "revert": false,
                    "revertMessage": "",
                    "selector": "",
                    "status": false,
                    "value": ""
                },
                "nodeType": 0
            },
            "0": {
                "invocation": {
                    "address": "0x88e1315687aec48a72786c6b3b3f075208b62713",
                    "callData": "0x00000000000000000000000000000000000000000000000000004447c72e6c0300000000000000000000000000000000000000000000000000000000000000400000000000000000000000000000000000000000000000000000000000000000",
                    "decodedMethod": {
                        "callParams": [
                            {
                                "name": "new_baseprice",
                                "type": "uint256",
                                "value": "75,075,075,075,075"
                            },
                            {
                                "name": "proofID",
                                "type": "bytes",
                                "value": "0x"
                            }
                        ],
                        "constructorArguments": "",
                        "name": "setBasePrice",
                        "returnParams": [],
                        "signature": "setBasePrice(uint256,bytes)"
                    },
                    "errorInfo": "",
                    "fromAddress": "0x26588a9301b0428d95e6fc3a5024fce8bec12d51",
                    "gasUsed": 62175,
                    "id": 0,
                    "methodDecoded": true,
                    "operation": "CALL",
                    "output": "",
                    "revert": false,
                    "revertMessage": "",
                    "selector": "0x7d242ae5",
                    "status": true,
                    "value": "0"
                },
                "nodeType": 0
            }
        },
        "gasFlame": [
            {
                "children": [
                    {
                        "children": [
                            {
                                "children": [],
                                "depth": 0,
                                "name": "Initial Gas",
                                "value": 22104
                            },
                            {
                                "children": [],
                                "depth": 0,
                                "name": "Executed Gas",
                                "value": 40071
                            }
                        ],
                        "depth": -1,
                        "name": "Actual Gas Used",
                        "value": 62175
                    },
                    {
                        "children": [],
                        "depth": -1,
                        "name": "Refunded Gas",
                        "value": 0
                    }
                ],
                "depth": -2,
                "name": "Total Gas",
                "value": 62175
            }
        ],
        "isConfirmed": true,
        "mainTrace": [
            {
                "children": [
                    {
                        "children": [],
                        "depth": 0,
                        "id": 0,
                        "order": 0
                    }
                ],
                "depth": -1,
                "id": -1,
                "order": -1
            }
        ],
        "mainTraceNodeCount": 1,
        "parentIdMap": {
            "0": -1
        },
        "tidyTrace": [
            {
                "children": [
                    {
                        "children": [],
                        "depth": 0,
                        "id": 0,
                        "order": 0
                    }
                ],
                "depth": -1,
                "id": -1,
                "order": -1
            }
        ],
        "tidyTraceNodeCount": 1
    },
    "state_change": {
        "stateChanges": [
            {
                "address": "0x88e1315687aec48a72786c6b3b3f075208b62713",
                "erc": "",
                "slots": [
                    {
                        "current": "0x0000000000000000000000000000000000000000000000000002aacdc7d0381e",
                        "key": "0xe42040f6d03b71aa9347e8cc64325c65dab2e29bb543e1bbdedfa7ef24d6d1ce",
                        "prev": "0x0000000000000000000000000000000000000000000000000002b4af390f48b8"
                    },
                    {
                        "current": "0x000000000000000000000000000000000000000000000000000800695770a85a",
                        "key": "0xfbcfc110a240e9c1bbfe6a5561417328e25d1b9fa2955547c51ab37ed9886ddf",
                        "prev": "0x00000000000000000000000000000000000000000000000000081e0dab2dda28"
                    },
                    {
                        "current": "0x000000000000000000000000000000000000000000000000000800695770a85a",
                        "key": "0x85f680c5187710b68d76df293e6f707a676f16adbd40861dea15c3adb0a812d2",
                        "prev": "0x00000000000000000000000000000000000000000000000000081e0dab2dda28"
                    },
                    {
                        "current": "0x00000000000000000000000000000000000000000000000000004447c72e6c03",
                        "key": "0x0000000000000000000000000000000000000000000000000000000000000008",
                        "prev": "0x00000000000000000000000000000000000000000000000000004544b8e7edac"
                    },
                    {
                        "current": "0x000000000000000000000000000000000000000000000000000d5604e7111896",
                        "key": "0x8d90a37db271d62339ebfe84641d1ebdaf56fd5d50861d795eacb410dbb57630",
                        "prev": "0x000000000000000000000000000000000000000000000000000d876c1d4c6b98"
                    },
                    {
                        "current": "0x000000000000000000000000000000000000000000000000000d5604e7111896",
                        "key": "0x3f00a31a1df61e6f8ed49e41f20324a6730a214adfcab4bd02665f770f9730f3",
                        "prev": "0x000000000000000000000000000000000000000000000000000d876c1d4c6b98"
                    },
                    {
                        "current": "0x0000000000000000000000000000000000000000000000000002aacdc7d0381e",
                        "key": "0x50d870f2c230c16f231495f4e7b81cdb16d2d2c8c441fd76acc401eef0b56db4",
                        "prev": "0x0000000000000000000000000000000000000000000000000002b4af390f48b8"
                    }
                ],
                "storageVariables": []
            }
        ]
    }
}