{
    "balance_change": {
        "balanceChanges": [
            {
                "account": "0xb5d85cbf7cb3ee0d56b3bb207d5fc4b82f43f511",
                "assets": [
                    {
                        "address": "0xdac17f958d2ee523a2206206994597c13d831ec7",
                        "amount": "163.669083",
                        "iconUrl": "https://assets.blocksec.com/icon/fcea71f3193ce895be44bfdf941f7e4c9381dd587f273c2d1a27f1263d84e4ea.png",
                        "isERC1155": false,
                        "isERC721": false,
                        "sign": false,
                        "value": "163.7143653"
                    }
                ]
            },
            {
                "account": "0x7e09ec94b6594f1d1bef13c25f2c635b9705abdd",
                "assets": [
                    {
                        "address": "0xdac17f958d2ee523a2206206994597c13d831ec7",
                        "amount": "163.669083",
                        "iconUrl": "https://assets.blocksec.com/icon/fcea71f3193ce895be44bfdf941f7e4c9381dd587f273c2d1a27f1263d84e4ea.png",
                        "isERC1155": false,
                        "isERC721": false,
                        "sign": true,
                        "value": "163.7143653"
                    }
                ]
            }
        ]
    },
    "profile": {
        "basic_info": {
            "baseFee": "15.964761498",
            "blockNumber": 14372210,
            "callData": "0xa9059cbb0000000000000000000000007e09ec94b6594f1d1bef13c25f2c635b9705abdd0000000000000000000000000000000000000000000000000000000009c1645b",
            "debugEnable": true,
            "errorInfo": "",
            "eventCount": 1,
            "feeRecipient": "0x1ad91ee08f21be3de0ba2ba6918e714da6b45836",
            "formatValue": "0",
            "gasLimit": 250000,
            "gasPrice": "17.964761498",
            "gasUsed": 46109,
            "intTxnCount": 0,
            "internalRevert": false,
            "internalRevertMessage": "",
            "isContractCreation": false,
            "isFlashloan": false,
            "maxFee": "41",
            "nonce": 6272153,
            "overwritedBlockNumber": -1,
            "priorityFee": "2",
            "receiver": "0xdac17f958d2ee523a2206206994597c13d831ec7",
            "revertMessage": "",
            "sender": "0xb5d85cbf7cb3ee0d56b3bb207d5fc4b82f43f511",
            "simulationEnable": true,
            "sourceTxnHash": "0x3408a8b20b4971cf7edec9e3e82bd67952e8c2224b8c10e582a9c4046b9cdb2b",
            "status": true,
            "timestamp": "2022-03-12T13:27:41Z",
            "transactionFee": "0.000828337187911282",
            "txnHash": "0x3408a8b20b4971cf7edec9e3e82bd67952e8c2224b8c10e582a9c4046b9cdb2b",
            "txnIndex": 138,
            "type": 2,
            "value": "0"
        },
        "fund_flow": [
            {
                "amount": "163.669083",
                "from": "0xb5d85cbf7cb3ee0d56b3bb207d5fc4b82f43f511",
                "id": 1,
                "isERC1155": false,
                "isERC721": false,
                "isReverted": false,
                "order": 1,
                "to": "0x7e09ec94b6594f1d1bef13c25f2c635b9705abdd",
                "token": "0xdac17f958d2ee523a2206206994597c13d831ec7"
            }
        ],
        "token_infos": [
            {
                "address": "0xc02aaa39b223fe8d0a0e5c4f27ead9083c756cc2",
                "decimals": 18
            },
            {
                "address": "0xdac17f958d2ee523a2206206994597c13d831ec7",
                "decimals": 6
            },
            {
                "address": "0xeeeeeeeeeeeeeeeeeeeeeeeeeeeeeeeeeeeeeeee",
                "decimals": 18
            }
        ]
    },
    "address_label": {
        "labels": [
            {
                "address": "0x0000000000000000000000000000000000000003",
                "label": "Precompiled"
            },
            {
                "address": "0x0000000000000000000000000000000000000004",
                "label": "Precompiled"
            },
            {
                "address": "0xeeeeeeeeeeeeeeeeeeeeeeeeeeeeeeeeeeeeeeee",
                "label": "Ether"
            },
            {
                "address": "0xdac17f958d2ee523a2206206994597c13d831ec7",
                "label": "Tether: USDT Stablecoin"
            },
            {
                "address": "0xb5d85cbf7cb3ee0d56b3bb207d5fc4b82f43f511",
                "label": "Coinbase 5"
            },
            {
                "address": "0x0000000000000000000000000000000000000001",
                "label": "Precompiled"
            },
            {
                "address": "0x0000000000000000000000000000000000000002",
                "label": "Precompiled"
            }
        ]
    },
    "trace": {
        "accountLabels": null,
        "dataMap": {
            "-1": {
                "invocation": {
                    "address": "0xb5d85cbf7cb3ee0d56b3bb207d5fc4b82f43f511",
                    "callData": "",
                    "decodedMethod": null,
                    "errorInfo": "",
                    "fromAddress": "",
                    "gasUsed": 0,
                    "id": -1,
                    "methodDecoded": false,
                    "operation": "",
                    "output": "",
                    "revert": false,
                    "revertMessage": "",
                    "selector": "",
                    "status": false,
                    "value": ""
                },
                "nodeType": 0
            },
            "0": {
                "invocation": {
                    "address": "0xdac17f958d2ee523a2206206994597c13d831ec7",
                    "callData": "0x0000000000000000000000007e09ec94b6594f1d1bef13c25f2c635b9705abdd0000000000000000000000000000000000000000000000000000000009c1645b",
                    "decodedMethod": {
                        "callParams": [
                            {
                                "name": "_to",
                                "type": "address",
                                "value": "0x7e09ec94b6594f1d1bef13c25f2c635b9705abdd"
                            },
                            {
                                "decimalAvailable": true,
                                "name": "_value",
                                "type": "uint256",
                                "value": "163,669,083"
                            }
                        ],
                        "constructorArguments": "",
                        "name": "transfer",
                        "returnParams": [],
                        "signature": "transfer(address,uint256)"
                    },
                    "errorInfo": "",
                    "fromAddress": "0xb5d85cbf7cb3ee0d56b3bb207d5fc4b82f43f511",
                    "gasUsed": 46109,
                    "id": 0,
                    "methodDecoded": true,
                    "operation": "CALL",
                    "output": "",
                    "revert": false,
                    "revertMessage": "",
                    "selector": "0xa9059cbb",
                    "status": true,
                    "value": "0"
                },
                "nodeType": 0
            },
            "1": {
                "event": {
                    "contract": "0xdac17f958d2ee523a2206206994597c13d831ec7",
                    "decodedLog": {
                        "name": "Transfer",
                        "params": [
                            {
                                "name": "from",
                                "type": "address",
                                "value": "0xb5d85cbf7cb3ee0d56b3bb207d5fc4b82f43f511"
                            },
                            {
                                "name": "to",
                                "type": "address",
                                "value": "0x7e09ec94b6594f1d1bef13c25f2c635b9705abdd"
                            },
                            {
                                "decimalAvailable": true,
                                "name": "value",
                                "type": "uint256",
                                "value": "163,669,083"
                            }
                        ],
                        "signature": "Transfer(address,address,uint256)"
                    },
                    "id": 1,
                    "logData": "0x0000000000000000000000000000000000000000000000000000000009c1645b",
                    "logDecoded": true,
                    "operation": "EVENT",
                    "revert": false,
                    "status": true,
                    "topics": [
                        "0xddf252ad1be2c89b69c2b068fc378daa952ba7f163c4a11628f55a4df523b3ef",
                        "0x000000000000000000000000b5d85cbf7cb3ee0d56b3bb207d5fc4b82f43f511",
                        "0x0000000000000000000000007e09ec94b6594f1d1bef13c25f2c635b9705abdd"
                    ]
                },
                "nodeType": 1
            }
        },
        "gasFlame": [
            {
                "children": [
                    {
                        "children": [
                            {
                                "children": [],
                                "depth": 0,
                                "name": "Initial Gas",
                                "value": 21608
                            },
                            {
                                "children": [],
                                "depth": 0,
                                "name": "Executed Gas",
                                "value": 24501
                            }
                        ],
                        "depth": -1,
                        "name": "Actual Gas Used",
                        "value": 46109
                    },
                    {
                        "children": [],
                        "depth": -1,
                        "name": "Refunded Gas",
                        "value": 0
                    }
                ],
                "depth": -2,
                "name": "Total Gas",
                "value": 46109
            }
        ],
        "isConfirmed": true,
        "mainTrace": [
            {
                "children": [
                    {
                        "children": [
                            {
                                "children": [],
                                "depth": 1,
                                "id": 1,
                                "order": 1
                            }
                        ],
                        "depth": 0,
                        "id": 0,
                        "order": 0
                    }
                ],
                "depth": -1,
                "id": -1,
                "order": -1
            }
        ],
        "mainTraceNodeCount": 2,
        "parentIdMap": {
            "0": -1,
            "1": 0
        },
        "tidyTrace": [
            {
                "children": [
                    {
                        "children": [
                            {
                                "children": [],
                                "depth": 1,
                                "id": 1,
                                "order": 1
                            }
                        ],
                        "depth": 0,
                        "id": 0,
                        "order": 0
                    }
                ],
                "depth": -1,
                "id": -1,
                "order": -1
            }
        ],
        "tidyTraceNodeCount": 2
    },
    "state_change": {
        "stateChanges": [
            {
                "address": "0xdac17f958d2ee523a2206206994597c13d831ec7",
                "erc": "ERC-20",
                "slots": [
                    {
                        "current": "0x0000000000000000000000000000000000000000000000000000040100ae809d",
                        "key": "0x5cfed95b3c744a0f44a8a9399588eff882b8eb2db24c759f4f8012e094c9a45d",
                        "prev": "0x000000000000000000000000000000000000000000000000000004010a6fe4f8"
                    },
                    {
                        "current": "0x00000000000000000000000000000000000000000000000000000000b52a42f0",
                        "key": "0xbd1d3d7c23384631eb595383f8f06a90f89a397aa6a2c328dc86d78fc2e272be",
                        "prev": "0x00000000000000000000000000000000000000000000000000000000ab68de95"
                    }
                ],
                "storageVariables": [
                    {
                        "name": "balances",
                        "type": "mapping(address => uint256)",
                        "value": {
                            "pairs": [
                                {
                                    "key": "0x7e09ec94b6594f1d1bef13c25f2c635b9705abdd",
                                    "value": {
                                        "current": "3039445744",
                                        "prev": "2875776661",
                                        "typeTag": 1
                                    }
                                },
                                {
                                    "key": "0xb5d85cbf7cb3ee0d56b3bb207d5fc4b82f43f511",
                                    "value": {
                                        "current": "4402352914589",
                                        "prev": "4402516583672",
                                        "typeTag": 1
                                    }
                                }
                            ],
                            "typeTag": 4
                        }
                    }
                ]
            }
        ]
    }
}