{
    "balance_change": {
        "balanceChanges": [
            {
                "account": "0x4d7db316ed210b935bbd38f3c1c7f1bab5a8aa3b",
                "assets": [
                    {
                        "address": "0xba11d00c5f74255f56a5e366f4f77f5a186d7f55",
                        "amount": "8,135.51",
                        "iconUrl": "https://assets.blocksec.com/icon/d41e7cecdca38985dbc4e0540193fcbdef68a904e22ee4bcdf466a88b9fbe9f8.png",
                        "isERC1155": false,
                        "isERC721": false,
                        "sign": false,
                        "value": "11877.84459999999971"
                    }
                ]
            },
            {
                "account": "0x8c54ebdd960056d2cff5998df5695daca1fc0190",
                "assets": [
                    {
                        "address": "0xba11d00c5f74255f56a5e366f4f77f5a186d7f55",
                        "amount": "8,135.51",
                        "iconUrl": "https://assets.blocksec.com/icon/d41e7cecdca38985dbc4e0540193fcbdef68a904e22ee4bcdf466a88b9fbe9f8.png",
                        "isERC1155": false,
                        "isERC721": false,
                        "sign": true,
                        "value": "11877.84459999999971"
                    }
                ]
            }
        ]
    },
    "profile": {
        "basic_info": {
            "baseFee": "52.726247897",
            "blockNumber": 17242822,
            "callData": "0xa9059cbb0000000000000000000000008c54ebdd960056d2cff5998df5695daca1fc01900000000000000000000000000000000000000000000001b906e1a9387e2f0000",
            "debugEnable": true,
            "errorInfo": "",
            "eventCount": 1,
            "feeRecipient": "0x95222290dd7278aa3ddd389cc1e1d165cc4bafe5",
            "formatValue": "0",
            "gasLimit": 250000,
            "gasPrice": "54.726247897",
            "gasUsed": 90831,
            "intTxnCount": 0,
            "internalRevert": false,
            "internalRevertMessage": "",
            "isContractCreation": false,
            "isFlashloan": false,
            "maxFee": "107.132945958",
            "nonce": 75,
            "overwritedBlockNumber": -1,
            "priorityFee": "2",
            "receiver": "0xba11d00c5f74255f56a5e366f4f77f5a186d7f55",
            "revertMessage": "",
            "sender": "0x4d7db316ed210b935bbd38f3c1c7f1bab5a8aa3b",
            "simulationEnable": true,
            "sourceTxnHash": "0x34520165a7a6e93c50e83e90f7c4b7ea2e4ad5fcc05be891ec39c652cf2e6766",
            "status": true,
            "timestamp": "2023-05-12T08:02:59Z",
            "transactionFee": "0.004970839822732407",
            "txnHash": "0x34520165a7a6e93c50e83e90f7c4b7ea2e4ad5fcc05be891ec39c652cf2e6766",
            "txnIndex": 31,
            "type": 2,
            "value": "0"
        },
        "fund_flow": [
            {
                "amount": "8,135.51",
                "from": "0x4d7db316ed210b935bbd38f3c1c7f1bab5a8aa3b",
                "id": 1,
                "isERC1155": false,
                "isERC721": false,
                "isReverted": false,
                "order": 1,
                "to": "0x8c54ebdd960056d2cff5998df5695daca1fc0190",
                "token": "0xba11d00c5f74255f56a5e366f4f77f5a186d7f55"
            }
        ],
        "token_infos": [
            {
                "address": "0xba11d00c5f74255f56a5e366f4f77f5a186d7f55",
                "decimals": 18
            },
            {
                "address": "0xc02aaa39b223fe8d0a0e5c4f27ead9083c756cc2",
                "decimals": 18
            },
            {
                "address": "0xeeeeeeeeeeeeeeeeeeeeeeeeeeeeeeeeeeeeeeee",
                "decimals": 18
            }
        ]
    },
    "address_label": {
        "labels": [
            {
                "address": "0x0000000000000000000000000000000000000002",
                "label": "Precompiled"
            },
            {
                "address": "0x0000000000000000000000000000000000000003",
                "label": "Precompiled"
            },
            {
                "address": "0x0000000000000000000000000000000000000004",
                "label": "Precompiled"
            },
            {
                "address": "0xeeeeeeeeeeeeeeeeeeeeeeeeeeeeeeeeeeeeeeee",
                "label": "Ether"
            },
            {
                "address": "0x8c54ebdd960056d2cff5998df5695daca1fc0190",
                "label": "BtcTurk 7"
            },
            {
                "address": "0xba11d00c5f74255f56a5e366f4f77f5a186d7f55",
                "label": "Band Protocol: BAND Token"
            },
            {
                "address": "0x0000000000000000000000000000000000000001",
                "label": "Precompiled"
            }
        ]
    },
    "trace": {
        "accountLabels": null,
        "dataMap": {
            "-1": {
                "invocation": {
                    "address": "0x4d7db316ed210b935bbd38f3c1c7f1bab5a8aa3b",
                    "callData": "",
                    "decodedMethod": null,
                    "errorInfo": "",
                    "fromAddress": "",
                    "gasUsed": 0,
                    "id": -1,
                    "methodDecoded": false,
                    "operation": "",
                    "output": "",
                    "revert": false,
                    "revertMessage": "",
                    "selector": "",
                    "status": false,
                    "value": ""
                },
                "nodeType": 0
            },
            "0": {
                "invocation": {
                    "address": "0xba11d00c5f74255f56a5e366f4f77f5a186d7f55",
                    "callData": "0x0000000000000000000000008c54ebdd960056d2cff5998df5695daca1fc01900000000000000000000000000000000000000000000001b906e1a9387e2f0000",
                    "decodedMethod": {
                        "callParams": [
                            {
                                "name": "to",
                                "type": "address",
                                "value": "0x8c54ebdd960056d2cff5998df5695daca1fc0190"
                            },
                            {
                                "decimalAvailable": true,
                                "name": "value",
                                "type": "uint256",
                                "value": "8,135,510,000,000,000,000,000"
                            }
                        ],
                        "constructorArguments": "",
                        "name": "transfer",
                        "returnParams": [
                            {
                                "name": "",
                                "type": "bool",
                                "value": true
                            }
                        ],
                        "signature": "transfer(address,uint256)"
                    },
                    "errorInfo": "",
                    "fromAddress": "0x4d7db316ed210b935bbd38f3c1c7f1bab5a8aa3b",
                    "gasUsed": 90831,
                    "id": 0,
                    "methodDecoded": true,
                    "operation": "CALL",
                    "output": "0x0000000000000000000000000000000000000000000000000000000000000001",
                    "revert": false,
                    "revertMessage": "",
                    "selector": "0xa9059cbb",
                    "status": true,
                    "value": "0"
                },
                "nodeType": 0
            },
            "1": {
                "event": {
                    "contract": "0xba11d00c5f74255f56a5e366f4f77f5a186d7f55",
                    "decodedLog": {
                        "name": "Transfer",
                        "params": [
                            {
                                "name": "from",
                                "type": "address",
                                "value": "0x4d7db316ed210b935bbd38f3c1c7f1bab5a8aa3b"
                            },
                            {
                                "name": "to",
                                "type": "address",
                                "value": "0x8c54ebdd960056d2cff5998df5695daca1fc0190"
                            },
                            {
                                "decimalAvailable": true,
                                "name": "value",
                                "type": "uint256",
                                "value": "8,135,510,000,000,000,000,000"
                            }
                        ],
                        "signature": "Transfer(address,address,uint256)"
                    },
                    "id": 1,
                    "logData": "0x0000000000000000000000000000000000000000000001b906e1a9387e2f0000",
                    "logDecoded": true,
                    "operation": "EVENT",
                    "revert": false,
                    "status": true,
                    "topics": [
                        "0xddf252ad1be2c89b69c2b068fc378daa952ba7f163c4a11628f55a4df523b3ef",
                        "0x0000000000000000000000004d7db316ed210b935bbd38f3c1c7f1bab5a8aa3b",
                        "0x0000000000000000000000008c54ebdd960056d2cff5998df5695daca1fc0190"
                    ]
                },
                "nodeType": 1
            }
        },
        "gasFlame": [
            {
                "children": [
                    {
                        "children": [
                            {
                                "children": [],
                                "depth": 0,
                                "name": "Initial Gas",
                                "value": 21644
                            },
                            {
                                "children": [],
                                "depth": 0,
                                "name": "Executed Gas",
                                "value": 73987
                            }
                        ],
                        "depth": -1,
                        "name": "Actual Gas Used",
                        "value": 90831
                    },
                    {
                        "children": [],
                        "depth": -1,
                        "name": "Refunded Gas",
                        "value": 4800
                    }
                ],
                "depth": -2,
                "name": "Total Gas",
                "value": 95631
            }
        ],
        "isConfirmed": true,
        "mainTrace": [
            {
                "children": [
                    {
                        "children": [
                            {
                                "children": [],
                                "depth": 1,
                                "id": 1,
                                "order": 1
                            }
                        ],
                        "depth": 0,
                        "id": 0,
                        "order": 0
                    }
                ],
                "depth": -1,
                "id": -1,
                "order": -1
            }
        ],
        "mainTraceNodeCount": 2,
        "parentIdMap": {
            "0": -1,
            "1": 0
        },
        "tidyTrace": [
            {
                "children": [
                    {
                        "children": [
                            {
                                "children": [],
                                "depth": 1,
                                "id": 1,
                                "order": 1
                            }
                        ],
                        "depth": 0,
                        "id": 0,
                        "order": 0
                    }
                ],
                "depth": -1,
                "id": -1,
                "order": -1
            }
        ],
        "tidyTraceNodeCount": 2
    },
    "state_change": {
        "stateChanges": [
            {
                "address": "0xba11d00c5f74255f56a5e366f4f77f5a186d7f55",
                "erc": "ERC-20",
                "slots": [
                    {
                        "current": "0x0000000000000000000000000000000000000000000000000000000000000002",
                        "key": "0x4b3817ba5d83edda168ee2f50e595d2469e505bb026ab66a7c03a21891d17adb",
                        "prev": "0x0000000000000000000000000000000000000000000000000000000000000001"
                    },
                    {
                        "current": "0x000000000006dd81000000000000000000000000000000000000000000000000",
                        "key": "0xde68898fd94cbc4a9fe26c76497839457ed6cbc0b7487496f9be119088d75f90",
                        "prev": "0x0000000000000000000000000000000000000000000000000000000000000000"
                    },
                    {
                        "current": "0x000000000000000000000000000000000000000000000000000000000000027b",
                        "key": "0x9f34b8f7cbcee446e09bf52fa66a1cdf7b673fae2d47dd5842e9df82f9ecb304",
                        "prev": "0x000000000000000000000000000000000000000000000000000000000000027a"
                    },
                    {
                        "current": "0x000000000006dd8100000000000000000000000000005f6dd7c9185c98325fa0",
                        "key": "0xe31ed2855f0230da3d5530e1f91b48f88d983eb63e29b6772b60a7390c55afa8",
                        "prev": "0x0000000000000000000000000000000000000000000000000000000000000000"
                    },
                    {
                        "current": "0x0000000000000000000000000000000000000000000000000000000000000000",
                        "key": "0x518c7e07cf48a4fb4636bdeaf9873751a82411a7c4d79174f0bdd5b6afd1cdb3",
                        "prev": "0x0000000000000000000000000000000000000000000001b906e1a9387e2f0000"
                    },
                    {
                        "current": "0x000000000000000000000000000000000000000000005f6dd7c9185c98325fa0",
                        "key": "0x41ab06cb95126f499f1707d9fa2084c10ce729ffbacea1c4102c38b6ce766de7",
                        "prev": "0x000000000000000000000000000000000000000000005db4d0e76f241a035fa0"
                    },
                    {
                        "current": "0x000000000000000000000000000000000000000000000000000000000006dd81",
                        "key": "0x0000000000000000000000000000000000000000000000000000000000000009",
                        "prev": "0x000000000000000000000000000000000000000000000000000000000006dd80"
                    }
                ],
                "storageVariables": [
                    {
                        "name": "votingPowerChangeNonce",
                        "type": "uint256",
                        "value": {
                            "current": "449921",
                            "prev": "449920",
                            "typeTag": 1
                        }
                    },
                    {
                        "name": "votingPowerChangeCount",
                        "type": "mapping(address => uint256)",
                        "value": {
                            "pairs": [
                                {
                                    "key": "0x4d7db316ed210b935bbd38f3c1c7f1bab5a8aa3b",
                                    "value": {
                                        "current": "2",
                                        "prev": "1",
                                        "typeTag": 1
                                    }
                                },
                                {
                                    "key": "0x8c54ebdd960056d2cff5998df5695daca1fc0190",
                                    "value": {
                                        "current": "635",
                                        "prev": "634",
                                        "typeTag": 1
                                    }
                                }
                            ],
                            "typeTag": 4
                        }
                    },
                    {
                        "name": "_votingPower",
                        "type": "mapping(address => mapping(uint256 => uint256))",
                        "value": {
                            "pairs": [
                                {
                                    "key": "0x4d7db316ed210b935bbd38f3c1c7f1bab5a8aa3b",
                                    "value": {
                                        "pairs": [
                                            {
                                                "key": "2",
                                                "value": {
                                                    "current": "2824199889886910795945762213079016481599187863928702872076681216",
                                                    "prev": "0",
                                                    "typeTag": 1
                                                }
                                            }
                                        ],
                                        "typeTag": 4
                                    }
                                },
                                {
                                    "key": "0x8c54ebdd960056d2cff5998df5695daca1fc0190",
                                    "value": {
                                        "pairs": [
                                            {
                                                "key": "635",
                                                "value": {
                                                    "current": "2824199889886910795945762213079016481599638514988665497155952544",
                                                    "prev": "0",
                                                    "typeTag": 1
                                                }
                                            }
                                        ],
                                        "typeTag": 4
                                    }
                                }
                            ],
                            "typeTag": 4
                        }
                    },
                    {
                        "name": "_balances",
                        "type": "mapping(address => uint256)",
                        "value": {
                            "pairs": [
                                {
                                    "key": "0x4d7db316ed210b935bbd38f3c1c7f1bab5a8aa3b",
                                    "value": {
                                        "current": "0",
                                        "prev": "8135510000000000000000",
                                        "typeTag": 1
                                    }
                                },
                                {
                                    "key": "0x8c54ebdd960056d2cff5998df5695daca1fc0190",
                                    "value": {
                                        "current": "450651059962625079271328",
                                        "prev": "442515549962625079271328",
                                        "typeTag": 1
                                    }
                                }
                            ],
                            "typeTag": 4
                        }
                    }
                ]
            }
        ]
    }
}