{
    "balance_change": {
        "balanceChanges": []
    },
    "profile": {
        "basic_info": {
            "baseFee": "",
            "blockNumber": 5760260,
            "callData": "0x38bbfa50950e4dcc7c55913140d9d15ab80951747218825e24c69fb025ab5ae89974c95a000000000000000000000000000000000000000000000000000000000000006000000000000000000000000000000000000000000000000000000000000000a00000000000000000000000000000000000000000000000000000000000000007373630332e35330000000000000000000000000000000000000000000000000000000000000000000000000000000000000000000000000000000000000000221220dbfaaee5e469eb7d442a26e05b1c5b3cf68be8be3e13619193966f47a35372f0000000000000000000000000000000000000000000000000000000000000",
            "debugEnable": true,
            "errorInfo": "",
            "eventCount": 2,
            "feeRecipient": "0x5a0b54d5dc17e0aadc383d2db43b0a0d3e029c4c",
            "formatValue": "0",
            "gasLimit": 80000,
            "gasPrice": "30",
            "gasUsed": 76868,
            "intTxnCount": 3,
            "internalRevert": false,
            "internalRevertMessage": "",
            "isContractCreation": false,
            "isFlashloan": false,
            "maxFee": "",
            "nonce": 548416,
            "overwritedBlockNumber": -1,
            "priorityFee": "",
            "receiver": "0xbb983aff5f04f9520ff036592f4071847042e49b",
            "revertMessage": "",
            "sender": "0x26588a9301b0428d95e6fc3a5024fce8bec12d51",
            "simulationEnable": true,
            "sourceTxnHash": "0x34447e77d3cb843dc1b39e0529fe6b4a8750ef31d1989e0d9234b519aaecd648",
            "status": true,
            "timestamp": "2018-06-09T17:58:53Z",
            "transactionFee": "0.00230604",
            "txnHash": "0x34447e77d3cb843dc1b39e0529fe6b4a8750ef31d1989e0d9234b519aaecd648",
            "txnIndex": 15,
            "type": 0,
            "value": "0"
        },
        "fund_flow": [],
        "token_infos": [
            {
                "address": "0xeeeeeeeeeeeeeeeeeeeeeeeeeeeeeeeeeeeeeeee",
                "decimals": 18
            },
            {
                "address": "0xc02aaa39b223fe8d0a0e5c4f27ead9083c756cc2",
                "decimals": 18
            }
        ]
    },
    "address_label": {
        "labels": [
            {
                "address": "0x26588a9301b0428d95e6fc3a5024fce8bec12d51",
                "label": "0x2658_Oraclize"
            },
            {
                "address": "0x1d3b2638a7cc9f2cb3d298a3da7a90b67e5506ed",
                "label": "OraclizeAddrResolver"
            },
            {
                "address": "0x3dbdc81a6edc94c720b0b88fb65dbd7e395fdcf6",
                "label": "0x3dbd_Oraclize"
            },
            {
                "address": "0x0000000000000000000000000000000000000001",
                "label": "Precompiled"
            },
            {
                "address": "0x0000000000000000000000000000000000000003",
                "label": "Precompiled"
            },
            {
                "address": "0xeeeeeeeeeeeeeeeeeeeeeeeeeeeeeeeeeeeeeeee",
                "label": "Ether"
            },
            {
                "address": "0xbb983aff5f04f9520ff036592f4071847042e49b",
                "label": "Betting"
            },
            {
                "address": "0x0000000000000000000000000000000000000002",
                "label": "Precompiled"
            },
            {
                "address": "0x0000000000000000000000000000000000000004",
                "label": "Precompiled"
            }
        ]
    },
    "trace": {
        "accountLabels": null,
        "dataMap": {
            "-1": {
                "invocation": {
                    "address": "0x26588a9301b0428d95e6fc3a5024fce8bec12d51",
                    "callData": "",
                    "decodedMethod": null,
                    "errorInfo": "",
                    "fromAddress": "",
                    "gasUsed": 0,
                    "id": -1,
                    "methodDecoded": false,
                    "operation": "",
                    "output": "",
                    "revert": false,
                    "revertMessage": "",
                    "selector": "",
                    "status": false,
                    "value": ""
                },
                "nodeType": 0
            },
            "0": {
                "invocation": {
                    "address": "0xbb983aff5f04f9520ff036592f4071847042e49b",
                    "callData": "0x950e4dcc7c55913140d9d15ab80951747218825e24c69fb025ab5ae89974c95a000000000000000000000000000000000000000000000000000000000000006000000000000000000000000000000000000000000000000000000000000000a00000000000000000000000000000000000000000000000000000000000000007373630332e35330000000000000000000000000000000000000000000000000000000000000000000000000000000000000000000000000000000000000000221220dbfaaee5e469eb7d442a26e05b1c5b3cf68be8be3e13619193966f47a35372f0000000000000000000000000000000000000000000000000000000000000",
                    "decodedMethod": {
                        "callParams": [
                            {
                                "name": "myid",
                                "type": "bytes32",
                                "value": "0x950e4dcc7c55913140d9d15ab80951747218825e24c69fb025ab5ae89974c95a"
                            },
                            {
                                "name": "result",
                                "type": "string",
                                "value": "7603.53"
                            },
                            {
                                "name": "proof",
                                "type": "bytes",
                                "value": "0x1220dbfaaee5e469eb7d442a26e05b1c5b3cf68be8be3e13619193966f47a35372f0"
                            }
                        ],
                        "constructorArguments": "",
                        "name": "__callback",
                        "returnParams": [],
                        "signature": "__callback(bytes32,string,bytes)"
                    },
                    "errorInfo": "",
                    "fromAddress": "0x26588a9301b0428d95e6fc3a5024fce8bec12d51",
                    "gasUsed": 76868,
                    "id": 0,
                    "methodDecoded": true,
                    "operation": "CALL",
                    "output": "",
                    "revert": false,
                    "revertMessage": "",
                    "selector": "0x38bbfa50",
                    "status": true,
                    "value": "0"
                },
                "nodeType": 0
            },
            "1": {
                "invocation": {
                    "address": "0x1d3b2638a7cc9f2cb3d298a3da7a90b67e5506ed",
                    "callData": "0x",
                    "decodedMethod": {
                        "callParams": [],
                        "constructorArguments": "",
                        "name": "getAddress",
                        "returnParams": [
                            {
                                "name": "oaddr",
                                "type": "address",
                                "value": "0x3dbdc81a6edc94c720b0b88fb65dbd7e395fdcf6"
                            }
                        ],
                        "signature": "getAddress()"
                    },
                    "errorInfo": "",
                    "fromAddress": "0xbb983aff5f04f9520ff036592f4071847042e49b",
                    "gasUsed": 418,
                    "id": 1,
                    "methodDecoded": true,
                    "operation": "CALL",
                    "output": "0x0000000000000000000000003dbdc81a6edc94c720b0b88fb65dbd7e395fdcf6",
                    "revert": false,
                    "revertMessage": "",
                    "selector": "0x38cc4831",
                    "status": true,
                    "value": "0"
                },
                "nodeType": 0
            },
            "2": {
                "invocation": {
                    "address": "0x3dbdc81a6edc94c720b0b88fb65dbd7e395fdcf6",
                    "callData": "0x",
                    "decodedMethod": {
                        "callParams": [],
                        "constructorArguments": "",
                        "name": "cbAddress",
                        "returnParams": [
                            {
                                "name": "_cbAddress",
                                "type": "address",
                                "value": "0x26588a9301b0428d95e6fc3a5024fce8bec12d51"
                            }
                        ],
                        "signature": "cbAddress()"
                    },
                    "errorInfo": "",
                    "fromAddress": "0xbb983aff5f04f9520ff036592f4071847042e49b",
                    "gasUsed": 1444,
                    "id": 2,
                    "methodDecoded": true,
                    "operation": "CALL",
                    "output": "0x00000000000000000000000026588a9301b0428d95e6fc3a5024fce8bec12d51",
                    "revert": false,
                    "revertMessage": "",
                    "selector": "0xc281d19e",
                    "status": true,
                    "value": "0"
                },
                "nodeType": 0
            },
            "3": {
                "invocation": {
                    "address": "0x3512fcfbf0842758fdcc2180890f93e07b512ac3",
                    "callData": "0x",
                    "decodedMethod": null,
                    "errorInfo": "",
                    "fromAddress": "0xbb983aff5f04f9520ff036592f4071847042e49b",
                    "gasUsed": 1583,
                    "id": 3,
                    "methodDecoded": false,
                    "operation": "CALL",
                    "output": "",
                    "revert": false,
                    "revertMessage": "",
                    "selector": "0xb6fe87fb",
                    "status": true,
                    "value": "0"
                },
                "nodeType": 0
            },
            "4": {
                "event": {
                    "contract": "0x3512fcfbf0842758fdcc2180890f93e07b512ac3",
                    "decodedLog": {
                        "name": "RemoteBettingCloseInfo",
                        "params": [
                            {
                                "name": "_race",
                                "type": "address",
                                "value": "0xbb983aff5f04f9520ff036592f4071847042e49b"
                            }
                        ],
                        "signature": "RemoteBettingCloseInfo(address)"
                    },
                    "id": 4,
                    "logData": "0x000000000000000000000000bb983aff5f04f9520ff036592f4071847042e49b",
                    "logDecoded": true,
                    "operation": "EVENT",
                    "revert": false,
                    "status": true,
                    "topics": [
                        "0x70c6881a1b70806f7977bfba7ec73dc9f47797cba23b04c095fd72de064070c7"
                    ]
                },
                "nodeType": 1
            },
            "5": {
                "event": {
                    "contract": "0xbb983aff5f04f9520ff036592f4071847042e49b",
                    "decodedLog": {
                        "name": "newPriceTicker",
                        "params": [
                            {
                                "name": "price",
                                "type": "uint256",
                                "value": "760,353"
                            }
                        ],
                        "signature": "newPriceTicker(uint256)"
                    },
                    "id": 5,
                    "logData": "0x00000000000000000000000000000000000000000000000000000000000b9a21",
                    "logDecoded": true,
                    "operation": "EVENT",
                    "revert": false,
                    "status": true,
                    "topics": [
                        "0xc4db019ddd899ab8c4169d2877afae028fd941bb9c752cf08f14d21924c06734"
                    ]
                },
                "nodeType": 1
            }
        },
        "gasFlame": [
            {
                "children": [
                    {
                        "children": [
                            {
                                "children": [],
                                "depth": 0,
                                "name": "Initial Gas",
                                "value": 27224
                            },
                            {
                                "children": [
                                    {
                                        "children": [],
                                        "depth": 1,
                                        "name": "getAddress",
                                        "value": 418
                                    },
                                    {
                                        "children": [],
                                        "depth": 1,
                                        "name": "cbAddress",
                                        "value": 1444
                                    },
                                    {
                                        "children": [],
                                        "depth": 1,
                                        "name": "0xb6fe87fb",
                                        "value": 1583
                                    }
                                ],
                                "depth": 0,
                                "name": "Executed Gas",
                                "value": 49644
                            }
                        ],
                        "depth": -1,
                        "name": "Actual Gas Used",
                        "value": 76868
                    },
                    {
                        "children": [],
                        "depth": -1,
                        "name": "Refunded Gas",
                        "value": 0
                    }
                ],
                "depth": -2,
                "name": "Total Gas",
                "value": 76868
            }
        ],
        "isConfirmed": true,
        "mainTrace": [
            {
                "children": [
                    {
                        "children": [
                            {
                                "children": [],
                                "depth": 1,
                                "id": 1,
                                "order": 1
                            },
                            {
                                "children": [],
                                "depth": 1,
                                "id": 2,
                                "order": 2
                            },
                            {
                                "children": [
                                    {
                                        "children": [],
                                        "depth": 2,
                                        "id": 4,
                                        "order": 4
                                    }
                                ],
                                "depth": 1,
                                "id": 3,
                                "order": 3
                            },
                            {
                                "children": [],
                                "depth": 1,
                                "id": 5,
                                "order": 5
                            }
                        ],
                        "depth": 0,
                        "id": 0,
                        "order": 0
                    }
                ],
                "depth": -1,
                "id": -1,
                "order": -1
            }
        ],
        "mainTraceNodeCount": 6,
        "parentIdMap": {
            "0": -1,
            "1": 0,
            "2": 0,
            "3": 0,
            "4": 3,
            "5": 0
        },
        "tidyTrace": [
            {
                "children": [
                    {
                        "children": [
                            {
                                "children": [],
                                "depth": 1,
                                "id": 1,
                                "order": 1
                            },
                            {
                                "children": [],
                                "depth": 1,
                                "id": 2,
                                "order": 2
                            },
                            {
                                "children": [
                                    {
                                        "children": [],
                                        "depth": 2,
                                        "id": 4,
                                        "order": 4
                                    }
                                ],
                                "depth": 1,
                                "id": 3,
                                "order": 3
                            },
                            {
                                "children": [],
                                "depth": 1,
                                "id": 5,
                                "order": 5
                            }
                        ],
                        "depth": 0,
                        "id": 0,
                        "order": 0
                    }
                ],
                "depth": -1,
                "id": -1,
                "order": -1
            }
        ],
        "tidyTraceNodeCount": 6
    },
    "state_change": {
        "stateChanges": [
            {
                "address": "0xbb983aff5f04f9520ff036592f4071847042e49b",
                "erc": "",
                "slots": [
                    {
                        "current": "0x00000000000000000000000000000000000000000000000000000000000b9a21",
                        "key": "0xdca3a009099084a098af9703d203ca49cdf4b4a040017e9fca8271c079968983",
                        "prev": "0x0000000000000000000000000000000000000000000000000000000000000000"
                    },
                    {
                        "current": "0x0000000000000000000000000000000000002a3000001c205b1bf90d00000100",
                        "key": "0x0000000000000000000000000000000000000000000000000000000000000015",
                        "prev": "0x0000000000000000000000000000000000002a3000001c205b1bf90d00000001"
                    }
                ],
                "storageVariables": [
                    {
                        "name": "coinIndex",
                        "type": "mapping(bytes32 => struct Betting.coin_info)",
                        "value": {
                            "pairs": [
                                {
                                    "key": "0x4254430000000000000000000000000000000000000000000000000000000000",
                                    "value": {
                                        "fields": [
                                            {
                                                "name": "pre",
                                                "type": "uint256",
                                                "value": {
                                                    "current": "760353",
                                                    "prev": "0",
                                                    "typeTag": 1
                                                }
                                            }
                                        ],
                                        "typeTag": 3
                                    }
                                }
                            ],
                            "typeTag": 4
                        }
                    },
                    {
                        "name": "chronus",
                        "type": "struct Betting.chronus_info",
                        "value": {
                            "fields": [
                                {
                                    "name": "betting_open",
                                    "type": "bool",
                                    "value": {
                                        "current": "false",
                                        "prev": "true",
                                        "typeTag": 1
                                    }
                                },
                                {
                                    "name": "race_start",
                                    "type": "bool",
                                    "value": {
                                        "current": "true",
                                        "prev": "false",
                                        "typeTag": 1
                                    }
                                },
                                {
                                    "name": "race_end",
                                    "type": "bool",
                                    "value": {
                                        "current": "false",
                                        "prev": "false",
                                        "typeTag": 1
                                    }
                                },
                                {
                                    "name": "voided_bet",
                                    "type": "bool",
                                    "value": {
                                        "current": "false",
                                        "prev": "false",
                                        "typeTag": 1
                                    }
                                },
                                {
                                    "name": "starting_time",
                                    "type": "uint32",
                                    "value": {
                                        "current": "1528559885",
                                        "prev": "1528559885",
                                        "typeTag": 1
                                    }
                                },
                                {
                                    "name": "betting_duration",
                                    "type": "uint32",
                                    "value": {
                                        "current": "7200",
                                        "prev": "7200",
                                        "typeTag": 1
                                    }
                                },
                                {
                                    "name": "race_duration",
                                    "type": "uint32",
                                    "value": {
                                        "current": "10800",
                                        "prev": "10800",
                                        "typeTag": 1
                                    }
                                },
                                {
                                    "name": "voided_timestamp",
                                    "type": "uint32",
                                    "value": {
                                        "current": "0",
                                        "prev": "0",
                                        "typeTag": 1
                                    }
                                }
                            ],
                            "typeTag": 3
                        }
                    }
                ]
            }
        ]
    }
}