{
    "balance_change": {
        "balanceChanges": [
            {
                "account": "0x95f24b4fe3916b7274ae62603700434e1678af22",
                "assets": [
                    {
                        "address": "0xeeeeeeeeeeeeeeeeeeeeeeeeeeeeeeeeeeeeeeee",
                        "amount": "0.083",
                        "iconUrl": "https://assets.blocksec.com/image/1663669189317-3.png",
                        "isERC1155": false,
                        "isERC721": false,
                        "sign": false,
                        "value": "253.48562710000001426"
                    }
                ]
            },
            {
                "account": "0x40a50cf069e992aa4536211b23f286ef88752187",
                "assets": [
                    {
                        "address": "0xeeeeeeeeeeeeeeeeeeeeeeeeeeeeeeeeeeeeeeee",
                        "amount": "0.083",
                        "iconUrl": "https://assets.blocksec.com/image/1663669189317-3.png",
                        "isERC1155": false,
                        "isERC721": false,
                        "sign": true,
                        "value": "253.48562710000001426"
                    }
                ]
            }
        ]
    },
    "profile": {
        "basic_info": {
            "baseFee": "1.35884463",
            "blockNumber": 20265755,
            "callData": "0x322bba210000000000000000000000007022fe5fedbd54b40fdc52be30c1c578fb55c2bf00000000000000000000000095f24b4fe3916b7274ae62603700434e1678af220000000000000000000000000000000000000000000000000126e00f6c5b80000000000000000000000000000000000000000000007a8631d953886eaedc37f29bef0ad717f72b288e0747c308028c65c7560be8dc5c81105f7c43883dc373ae000000000000000000000000000000000000000000000000000000000000000000000000000000000000000000000000000000000000000000000000668c9da8000000000000000000000000000000000000000000000000000000000000000000000000000000000000000000000000000000000000000000000000212f0bfe",
            "debugEnable": true,
            "errorInfo": "",
            "eventCount": 1,
            "feeRecipient": "0x95222290dd7278aa3ddd389cc1e1d165cc4bafe5",
            "formatValue": "0.083",
            "gasLimit": 68570,
            "gasPrice": "1.35984463",
            "gasUsed": 56336,
            "intTxnCount": 0,
            "internalRevert": false,
            "internalRevertMessage": "",
            "isContractCreation": false,
            "isFlashloan": false,
            "maxFee": "1.578838168",
            "nonce": 64,
            "overwritedBlockNumber": -1,
            "priorityFee": "0.001",
            "receiver": "0x40a50cf069e992aa4536211b23f286ef88752187",
            "revertMessage": "",
            "sender": "0x95f24b4fe3916b7274ae62603700434e1678af22",
            "simulationEnable": true,
            "sourceTxnHash": "0x34944b757061c00d1ddb820e5732b528a04e18309f01050d9cbc27a0bc80e7c0",
            "status": true,
            "timestamp": "2024-07-09T01:48:11Z",
            "transactionFee": "0.00007660820707568",
            "txnHash": "0x34944b757061c00d1ddb820e5732b528a04e18309f01050d9cbc27a0bc80e7c0",
            "txnIndex": 224,
            "type": 2,
            "value": "83000000000000000"
        },
        "fund_flow": [
            {
                "amount": "0.083",
                "from": "0x95f24b4fe3916b7274ae62603700434e1678af22",
                "id": 1,
                "isERC1155": false,
                "isERC721": false,
                "isReverted": false,
                "order": 1,
                "to": "0x40a50cf069e992aa4536211b23f286ef88752187",
                "token": "0xeeeeeeeeeeeeeeeeeeeeeeeeeeeeeeeeeeeeeeee"
            }
        ],
        "token_infos": [
            {
                "address": "0xc02aaa39b223fe8d0a0e5c4f27ead9083c756cc2",
                "decimals": 18
            },
            {
                "address": "0xeeeeeeeeeeeeeeeeeeeeeeeeeeeeeeeeeeeeeeee",
                "decimals": 18
            }
        ]
    },
    "address_label": {
        "labels": [
            {
                "address": "0x40a50cf069e992aa4536211b23f286ef88752187",
                "label": "CoW Protocol: Eth Flow"
            },
            {
                "address": "0x7022fe5fedbd54b40fdc52be30c1c578fb55c2bf",
                "label": "Wolfskull: SKULL Token"
            },
            {
                "address": "0x0000000000000000000000000000000000000001",
                "label": "Precompiled"
            },
            {
                "address": "0x0000000000000000000000000000000000000002",
                "label": "Precompiled"
            },
            {
                "address": "0x0000000000000000000000000000000000000003",
                "label": "Precompiled"
            },
            {
                "address": "0x0000000000000000000000000000000000000004",
                "label": "Precompiled"
            },
            {
                "address": "0xeeeeeeeeeeeeeeeeeeeeeeeeeeeeeeeeeeeeeeee",
                "label": "Ether"
            }
        ]
    },
    "trace": {
        "accountLabels": null,
        "dataMap": {
            "-1": {
                "invocation": {
                    "address": "0x95f24b4fe3916b7274ae62603700434e1678af22",
                    "callData": "",
                    "decodedMethod": null,
                    "errorInfo": "",
                    "fromAddress": "",
                    "gasUsed": 0,
                    "id": -1,
                    "methodDecoded": false,
                    "operation": "",
                    "output": "",
                    "revert": false,
                    "revertMessage": "",
                    "selector": "",
                    "status": false,
                    "value": ""
                },
                "nodeType": 0
            },
            "0": {
                "invocation": {
                    "address": "0x40a50cf069e992aa4536211b23f286ef88752187",
                    "callData": "0x0000000000000000000000007022fe5fedbd54b40fdc52be30c1c578fb55c2bf00000000000000000000000095f24b4fe3916b7274ae62603700434e1678af220000000000000000000000000000000000000000000000000126e00f6c5b80000000000000000000000000000000000000000000007a8631d953886eaedc37f29bef0ad717f72b288e0747c308028c65c7560be8dc5c81105f7c43883dc373ae000000000000000000000000000000000000000000000000000000000000000000000000000000000000000000000000000000000000000000000000668c9da8000000000000000000000000000000000000000000000000000000000000000000000000000000000000000000000000000000000000000000000000212f0bfe",
                    "decodedMethod": {
                        "callParams": [
                            {
                                "name": "order",
                                "type": "(address,address,uint256,uint256,bytes32,uint256,uint32,bool,int64)",
                                "value": [
                                    {
                                        "name": "buyToken",
                                        "type": "address",
                                        "value": "0x7022fe5fedbd54b40fdc52be30c1c578fb55c2bf"
                                    },
                                    {
                                        "name": "receiver",
                                        "type": "address",
                                        "value": "0x95f24b4fe3916b7274ae62603700434e1678af22"
                                    },
                                    {
                                        "name": "sellAmount",
                                        "type": "uint256",
                                        "value": "83,000,000,000,000,000"
                                    },
                                    {
                                        "name": "buyAmount",
                                        "type": "uint256",
                                        "value": "148,122,666,652,159,241,799,612,402"
                                    },
                                    {
                                        "name": "appData",
                                        "type": "bytes32",
                                        "value": "0x9bef0ad717f72b288e0747c308028c65c7560be8dc5c81105f7c43883dc373ae"
                                    },
                                    {
                                        "name": "feeAmount",
                                        "type": "uint256",
                                        "value": "0"
                                    },
                                    {
                                        "name": "validTo",
                                        "type": "uint32",
                                        "value": "1,720,491,432"
                                    },
                                    {
                                        "name": "partiallyFillable",
                                        "type": "bool",
                                        "value": false
                                    },
                                    {
                                        "name": "quoteId",
                                        "type": "int64",
                                        "value": "556,731,390"
                                    }
                                ]
                            }
                        ],
                        "constructorArguments": "",
                        "name": "createOrder",
                        "returnParams": [
                            {
                                "name": "orderHash",
                                "type": "bytes32",
                                "value": "0xf7365c52158369ef992118baa86ffe0b1c6a7557f543525259bce5a3c15e903c"
                            }
                        ],
                        "signature": "createOrder((address,address,uint256,uint256,bytes32,uint256,uint32,bool,int64))"
                    },
                    "errorInfo": "",
                    "fromAddress": "0x95f24b4fe3916b7274ae62603700434e1678af22",
                    "gasUsed": 56336,
                    "id": 0,
                    "methodDecoded": true,
                    "operation": "CALL",
                    "output": "0xf7365c52158369ef992118baa86ffe0b1c6a7557f543525259bce5a3c15e903c",
                    "revert": false,
                    "revertMessage": "",
                    "selector": "0x322bba21",
                    "status": true,
                    "value": "0.083"
                },
                "nodeType": 0
            },
            "1": {
                "event": {
                    "contract": "0x40a50cf069e992aa4536211b23f286ef88752187",
                    "decodedLog": {
                        "name": "OrderPlacement",
                        "params": [
                            {
                                "name": "sender",
                                "type": "address",
                                "value": "0x95f24b4fe3916b7274ae62603700434e1678af22"
                            },
                            {
                                "name": "order",
                                "type": "(address,address,address,uint256,uint256,uint32,bytes32,uint256,bytes32,bool,bytes32,bytes32)",
                                "value": [
                                    {
                                        "name": "sellToken",
                                        "type": "address",
                                        "value": "0xc02aaa39b223fe8d0a0e5c4f27ead9083c756cc2"
                                    },
                                    {
                                        "name": "buyToken",
                                        "type": "address",
                                        "value": "0x7022fe5fedbd54b40fdc52be30c1c578fb55c2bf"
                                    },
                                    {
                                        "name": "receiver",
                                        "type": "address",
                                        "value": "0x95f24b4fe3916b7274ae62603700434e1678af22"
                                    },
                                    {
                                        "name": "sellAmount",
                                        "type": "uint256",
                                        "value": "83,000,000,000,000,000"
                                    },
                                    {
                                        "name": "buyAmount",
                                        "type": "uint256",
                                        "value": "148,122,666,652,159,241,799,612,402"
                                    },
                                    {
                                        "name": "validTo",
                                        "type": "uint32",
                                        "value": "4,294,967,295"
                                    },
                                    {
                                        "name": "appData",
                                        "type": "bytes32",
                                        "value": "0x9bef0ad717f72b288e0747c308028c65c7560be8dc5c81105f7c43883dc373ae"
                                    },
                                    {
                                        "name": "feeAmount",
                                        "type": "uint256",
                                        "value": "0"
                                    },
                                    {
                                        "name": "kind",
                                        "type": "bytes32",
                                        "value": "0xf3b277728b3fee749481eb3e0b3b48980dbbab78658fc419025cb16eee346775"
                                    },
                                    {
                                        "name": "partiallyFillable",
                                        "type": "bool",
                                        "value": false
                                    },
                                    {
                                        "name": "sellTokenBalance",
                                        "type": "bytes32",
                                        "value": "0x5a28e9363bb942b639270062aa6bb295f434bcdfc42c97267bf003f272060dc9"
                                    },
                                    {
                                        "name": "buyTokenBalance",
                                        "type": "bytes32",
                                        "value": "0x5a28e9363bb942b639270062aa6bb295f434bcdfc42c97267bf003f272060dc9"
                                    }
                                ]
                            },
                            {
                                "name": "signature",
                                "type": "(uint8,bytes)",
                                "value": [
                                    {
                                        "name": "scheme",
                                        "type": "uint8",
                                        "value": "0"
                                    },
                                    {
                                        "name": "data",
                                        "type": "bytes",
                                        "value": "0x40a50cf069e992aa4536211b23f286ef88752187"
                                    }
                                ]
                            },
                            {
                                "name": "data",
                                "type": "bytes",
                                "value": "0x00000000212f0bfe668c9da8"
                            }
                        ],
                        "signature": "OrderPlacement(address,(address,address,address,uint256,uint256,uint32,bytes32,uint256,bytes32,bool,bytes32,bytes32),(uint8,bytes),bytes)"
                    },
                    "id": 1,
                    "logData": "0x000000000000000000000000c02aaa39b223fe8d0a0e5c4f27ead9083c756cc20000000000000000000000007022fe5fedbd54b40fdc52be30c1c578fb55c2bf00000000000000000000000095f24b4fe3916b7274ae62603700434e1678af220000000000000000000000000000000000000000000000000126e00f6c5b80000000000000000000000000000000000000000000007a8631d953886eaedc37f200000000000000000000000000000000000000000000000000000000ffffffff9bef0ad717f72b288e0747c308028c65c7560be8dc5c81105f7c43883dc373ae0000000000000000000000000000000000000000000000000000000000000000f3b277728b3fee749481eb3e0b3b48980dbbab78658fc419025cb16eee34677500000000000000000000000000000000000000000000000000000000000000005a28e9363bb942b639270062aa6bb295f434bcdfc42c97267bf003f272060dc95a28e9363bb942b639270062aa6bb295f434bcdfc42c97267bf003f272060dc900000000000000000000000000000000000000000000000000000000000001c0000000000000000000000000000000000000000000000000000000000000024000000000000000000000000000000000000000000000000000000000000000000000000000000000000000000000000000000000000000000000000000000040000000000000000000000000000000000000000000000000000000000000001440a50cf069e992aa4536211b23f286ef88752187000000000000000000000000000000000000000000000000000000000000000000000000000000000000000c00000000212f0bfe668c9da80000000000000000000000000000000000000000",
                    "logDecoded": true,
                    "operation": "EVENT",
                    "revert": false,
                    "status": true,
                    "topics": [
                        "0xcf5f9de2984132265203b5c335b25727702ca77262ff622e136baa7362bf1da9",
                        "0x00000000000000000000000095f24b4fe3916b7274ae62603700434e1678af22"
                    ]
                },
                "nodeType": 1
            }
        },
        "gasFlame": [
            {
                "children": [
                    {
                        "children": [
                            {
                                "children": [],
                                "depth": 0,
                                "name": "Initial Gas",
                                "value": 23380
                            },
                            {
                                "children": [],
                                "depth": 0,
                                "name": "Executed Gas",
                                "value": 32956
                            }
                        ],
                        "depth": -1,
                        "name": "Actual Gas Used",
                        "value": 56336
                    },
                    {
                        "children": [],
                        "depth": -1,
                        "name": "Refunded Gas",
                        "value": 0
                    }
                ],
                "depth": -2,
                "name": "Total Gas",
                "value": 56336
            }
        ],
        "isConfirmed": true,
        "mainTrace": [
            {
                "children": [
                    {
                        "children": [
                            {
                                "children": [],
                                "depth": 1,
                                "id": 1,
                                "order": 1
                            }
                        ],
                        "depth": 0,
                        "id": 0,
                        "order": 0
                    }
                ],
                "depth": -1,
                "id": -1,
                "order": -1
            }
        ],
        "mainTraceNodeCount": 2,
        "parentIdMap": {
            "0": -1,
            "1": 0
        },
        "tidyTrace": [
            {
                "children": [
                    {
                        "children": [
                            {
                                "children": [],
                                "depth": 1,
                                "id": 1,
                                "order": 1
                            }
                        ],
                        "depth": 0,
                        "id": 0,
                        "order": 0
                    }
                ],
                "depth": -1,
                "id": -1,
                "order": -1
            }
        ],
        "tidyTraceNodeCount": 2
    },
    "state_change": {
        "stateChanges": [
            {
                "address": "0x40a50cf069e992aa4536211b23f286ef88752187",
                "erc": "",
                "slots": [
                    {
                        "current": "0x0000000000000000668c9da895f24b4fe3916b7274ae62603700434e1678af22",
                        "key": "0x59e8d3710fd9d3a77795d6a54c1364d83417ea62585b7825cc5e085b9382a130",
                        "prev": "0x0000000000000000000000000000000000000000000000000000000000000000"
                    }
                ],
                "storageVariables": [
                    {
                        "name": "orders",
                        "type": "mapping(bytes32 => struct EthFlowOrder.OnchainData)",
                        "value": {
                            "pairs": [
                                {
                                    "key": "0xf7365c52158369ef992118baa86ffe0b1c6a7557f543525259bce5a3c15e903c",
                                    "value": {
                                        "fields": [
                                            {
                                                "name": "owner",
                                                "type": "address",
                                                "value": {
                                                    "current": "0x95f24b4fe3916b7274ae62603700434e1678af22",
                                                    "prev": "0x0000000000000000000000000000000000000000",
                                                    "typeTag": 1
                                                }
                                            },
                                            {
                                                "name": "validTo",
                                                "type": "uint32",
                                                "value": {
                                                    "current": "1720491432",
                                                    "prev": "0",
                                                    "typeTag": 1
                                                }
                                            }
                                        ],
                                        "typeTag": 3
                                    }
                                }
                            ],
                            "typeTag": 4
                        }
                    }
                ]
            }
        ]
    }
}