{
    "balance_change": {
        "balanceChanges": [
            {
                "account": "0x9c91d066fabe565f44ae35ae94707b2a8f318750",
                "assets": [
                    {
                        "address": "0x72908dd978292635c669bad1bafd48894fd1b405",
                        "amount": "56",
                        "iconUrl": "",
                        "isERC1155": false,
                        "isERC721": false,
                        "sign": false,
                        "value": ""
                    }
                ]
            },
            {
                "account": "0x9f28e27048d8c971b0f1eef81840fc3b8d0624fe",
                "assets": [
                    {
                        "address": "0x72908dd978292635c669bad1bafd48894fd1b405",
                        "amount": "56",
                        "iconUrl": "",
                        "isERC1155": false,
                        "isERC721": false,
                        "sign": true,
                        "value": ""
                    }
                ]
            }
        ]
    },
    "profile": {
        "basic_info": {
            "baseFee": "",
            "blockNumber": 8669574,
            "callData": "0xa9059cbb0000000000000000000000009f28e27048d8c971b0f1eef81840fc3b8d0624fe0000000000000000000000000000000000000000000000030927f74c9de00000",
            "debugEnable": true,
            "errorInfo": "",
            "eventCount": 1,
            "feeRecipient": "0xea674fdde714fd979de3edf0f56aa9716b898ec8",
            "formatValue": "0",
            "gasLimit": 70000,
            "gasPrice": "1.4",
            "gasUsed": 36867,
            "intTxnCount": 0,
            "internalRevert": false,
            "internalRevertMessage": "",
            "isContractCreation": false,
            "isFlashloan": false,
            "maxFee": "",
            "nonce": 37819,
            "overwritedBlockNumber": -1,
            "priorityFee": "",
            "receiver": "0x72908dd978292635c669bad1bafd48894fd1b405",
            "revertMessage": "",
            "sender": "0x9c91d066fabe565f44ae35ae94707b2a8f318750",
            "simulationEnable": true,
            "sourceTxnHash": "0x34852579ad5891fc2e0c9f072ec3f00253e249f90ab1a124a7b06b1892c33ff4",
            "status": true,
            "timestamp": "2019-10-03T13:48:42Z",
            "transactionFee": "0.0000516138",
            "txnHash": "0x34852579ad5891fc2e0c9f072ec3f00253e249f90ab1a124a7b06b1892c33ff4",
            "txnIndex": 141,
            "type": 0,
            "value": "0"
        },
        "fund_flow": [
            {
                "amount": "56",
                "from": "0x9c91d066fabe565f44ae35ae94707b2a8f318750",
                "id": 1,
                "isERC1155": false,
                "isERC721": false,
                "isReverted": false,
                "order": 1,
                "to": "0x9f28e27048d8c971b0f1eef81840fc3b8d0624fe",
                "token": "0x72908dd978292635c669bad1bafd48894fd1b405"
            }
        ],
        "token_infos": [
            {
                "address": "0xc02aaa39b223fe8d0a0e5c4f27ead9083c756cc2",
                "decimals": 18
            },
            {
                "address": "0xeeeeeeeeeeeeeeeeeeeeeeeeeeeeeeeeeeeeeeee",
                "decimals": 18
            },
            {
                "address": "0x72908dd978292635c669bad1bafd48894fd1b405",
                "decimals": 18
            }
        ]
    },
    "address_label": {
        "labels": [
            {
                "address": "0x0000000000000000000000000000000000000001",
                "label": "Precompiled"
            },
            {
                "address": "0x0000000000000000000000000000000000000002",
                "label": "Precompiled"
            },
            {
                "address": "0x0000000000000000000000000000000000000003",
                "label": "Precompiled"
            },
            {
                "address": "0x0000000000000000000000000000000000000004",
                "label": "Precompiled"
            },
            {
                "address": "0xeeeeeeeeeeeeeeeeeeeeeeeeeeeeeeeeeeeeeeee",
                "label": "Ether"
            },
            {
                "address": "0x9f28e27048d8c971b0f1eef81840fc3b8d0624fe",
                "label": "OKEX"
            },
            {
                "address": "0x72908dd978292635c669bad1bafd48894fd1b405",
                "label": "BCM"
            }
        ]
    },
    "trace": {
        "accountLabels": null,
        "dataMap": {
            "-1": {
                "invocation": {
                    "address": "0x9c91d066fabe565f44ae35ae94707b2a8f318750",
                    "callData": "",
                    "decodedMethod": null,
                    "errorInfo": "",
                    "fromAddress": "",
                    "gasUsed": 0,
                    "id": -1,
                    "methodDecoded": false,
                    "operation": "",
                    "output": "",
                    "revert": false,
                    "revertMessage": "",
                    "selector": "",
                    "status": false,
                    "value": ""
                },
                "nodeType": 0
            },
            "0": {
                "invocation": {
                    "address": "0x72908dd978292635c669bad1bafd48894fd1b405",
                    "callData": "0x0000000000000000000000009f28e27048d8c971b0f1eef81840fc3b8d0624fe0000000000000000000000000000000000000000000000030927f74c9de00000",
                    "decodedMethod": {
                        "callParams": [
                            {
                                "name": "to",
                                "type": "address",
                                "value": "0x9f28e27048d8c971b0f1eef81840fc3b8d0624fe"
                            },
                            {
                                "decimalAvailable": true,
                                "name": "value",
                                "type": "uint256",
                                "value": "56,000,000,000,000,000,000"
                            }
                        ],
                        "constructorArguments": "",
                        "name": "transfer",
                        "returnParams": [
                            {
                                "name": "",
                                "type": "bool",
                                "value": true
                            }
                        ],
                        "signature": "transfer(address,uint256)"
                    },
                    "errorInfo": "",
                    "fromAddress": "0x9c91d066fabe565f44ae35ae94707b2a8f318750",
                    "gasUsed": 36867,
                    "id": 0,
                    "methodDecoded": true,
                    "operation": "CALL",
                    "output": "0x0000000000000000000000000000000000000000000000000000000000000001",
                    "revert": false,
                    "revertMessage": "",
                    "selector": "0xa9059cbb",
                    "status": true,
                    "value": "0"
                },
                "nodeType": 0
            },
            "1": {
                "event": {
                    "contract": "0x72908dd978292635c669bad1bafd48894fd1b405",
                    "decodedLog": {
                        "name": "Transfer",
                        "params": [
                            {
                                "name": "from",
                                "type": "address",
                                "value": "0x9c91d066fabe565f44ae35ae94707b2a8f318750"
                            },
                            {
                                "name": "to",
                                "type": "address",
                                "value": "0x9f28e27048d8c971b0f1eef81840fc3b8d0624fe"
                            },
                            {
                                "decimalAvailable": true,
                                "name": "value",
                                "type": "uint256",
                                "value": "56,000,000,000,000,000,000"
                            }
                        ],
                        "signature": "Transfer(address,address,uint256)"
                    },
                    "id": 1,
                    "logData": "0x0000000000000000000000000000000000000000000000030927f74c9de00000",
                    "logDecoded": true,
                    "operation": "EVENT",
                    "revert": false,
                    "status": true,
                    "topics": [
                        "0xddf252ad1be2c89b69c2b068fc378daa952ba7f163c4a11628f55a4df523b3ef",
                        "0x0000000000000000000000009c91d066fabe565f44ae35ae94707b2a8f318750",
                        "0x0000000000000000000000009f28e27048d8c971b0f1eef81840fc3b8d0624fe"
                    ]
                },
                "nodeType": 1
            }
        },
        "gasFlame": [
            {
                "children": [
                    {
                        "children": [
                            {
                                "children": [],
                                "depth": 0,
                                "name": "Initial Gas",
                                "value": 23256
                            },
                            {
                                "children": [],
                                "depth": 0,
                                "name": "Executed Gas",
                                "value": 13611
                            }
                        ],
                        "depth": -1,
                        "name": "Actual Gas Used",
                        "value": 36867
                    },
                    {
                        "children": [],
                        "depth": -1,
                        "name": "Refunded Gas",
                        "value": 0
                    }
                ],
                "depth": -2,
                "name": "Total Gas",
                "value": 36867
            }
        ],
        "isConfirmed": true,
        "mainTrace": [
            {
                "children": [
                    {
                        "children": [
                            {
                                "children": [],
                                "depth": 1,
                                "id": 1,
                                "order": 1
                            }
                        ],
                        "depth": 0,
                        "id": 0,
                        "order": 0
                    }
                ],
                "depth": -1,
                "id": -1,
                "order": -1
            }
        ],
        "mainTraceNodeCount": 2,
        "parentIdMap": {
            "0": -1,
            "1": 0
        },
        "tidyTrace": [
            {
                "children": [
                    {
                        "children": [
                            {
                                "children": [],
                                "depth": 1,
                                "id": 1,
                                "order": 1
                            }
                        ],
                        "depth": 0,
                        "id": 0,
                        "order": 0
                    }
                ],
                "depth": -1,
                "id": -1,
                "order": -1
            }
        ],
        "tidyTraceNodeCount": 2
    },
    "state_change": {
        "stateChanges": [
            {
                "address": "0x72908dd978292635c669bad1bafd48894fd1b405",
                "erc": "ERC-20",
                "slots": [
                    {
                        "current": "0x0000000000000000000000000000000000000000000000030927f74c9de00001",
                        "key": "0xeedee62192e3c4d9f8c7ac6be2def2199cfc9b7b686f2d50db7e965f55bab0eb",
                        "prev": "0x0000000000000000000000000000000000000000000000000000000000000001"
                    },
                    {
                        "current": "0x0000000000000000000000000000000000000000000323698e9c23e9776b0000",
                        "key": "0x5a8e855ce38fcadd8477d8f25ec9ed79a79442714fa7981b359cf6331d573fcf",
                        "prev": "0x00000000000000000000000000000000000000000003236c97c41b36154b0000"
                    }
                ],
                "storageVariables": [
                    {
                        "name": "_balances",
                        "type": "mapping(address => uint256)",
                        "value": {
                            "pairs": [
                                {
                                    "key": "0x9c91d066fabe565f44ae35ae94707b2a8f318750",
                                    "value": {
                                        "current": "3794007470000000000000000",
                                        "prev": "3794063470000000000000000",
                                        "typeTag": 1
                                    }
                                },
                                {
                                    "key": "0x9f28e27048d8c971b0f1eef81840fc3b8d0624fe",
                                    "value": {
                                        "current": "56000000000000000001",
                                        "prev": "1",
                                        "typeTag": 1
                                    }
                                }
                            ],
                            "typeTag": 4
                        }
                    }
                ]
            }
        ]
    }
}