{
    "balance_change": {
        "balanceChanges": [
            {
                "account": "0x1dda23d1f451116c02dd08957edf1804574c3aad",
                "assets": [
                    {
                        "address": "0xd294fb1b8b1169dc634017f60d9ca36a5701bd7d",
                        "amount": "100",
                        "iconUrl": "",
                        "isERC1155": false,
                        "isERC721": false,
                        "sign": false,
                        "value": ""
                    }
                ]
            },
            {
                "account": "0xb44de8cb8d8ec66e6b13597fa9f29d37d4f2cf8a",
                "assets": [
                    {
                        "address": "0xd294fb1b8b1169dc634017f60d9ca36a5701bd7d",
                        "amount": "100",
                        "iconUrl": "",
                        "isERC1155": false,
                        "isERC721": false,
                        "sign": true,
                        "value": ""
                    }
                ]
            }
        ]
    },
    "profile": {
        "basic_info": {
            "baseFee": "",
            "blockNumber": 6596685,
            "callData": "0xa9059cbb000000000000000000000000b44de8cb8d8ec66e6b13597fa9f29d37d4f2cf8a0000000000000000000000000000000000000000000000056bc75e2d63100000",
            "debugEnable": true,
            "errorInfo": "",
            "eventCount": 1,
            "feeRecipient": "0x52bc44d5378309ee2abf1539bf71de1b7d7be3b5",
            "formatValue": "0",
            "gasLimit": 60000,
            "gasPrice": "5",
            "gasUsed": 53388,
            "intTxnCount": 0,
            "internalRevert": false,
            "internalRevertMessage": "",
            "isContractCreation": false,
            "isFlashloan": false,
            "maxFee": "",
            "nonce": 1888,
            "overwritedBlockNumber": -1,
            "priorityFee": "",
            "receiver": "0xd294fb1b8b1169dc634017f60d9ca36a5701bd7d",
            "revertMessage": "",
            "sender": "0x1dda23d1f451116c02dd08957edf1804574c3aad",
            "simulationEnable": true,
            "sourceTxnHash": "0x345370f56891bc62f6c81a627750a21beb7771468b578804f37d7c359efeda80",
            "status": true,
            "timestamp": "2018-10-28T02:35:30Z",
            "transactionFee": "0.00026694",
            "txnHash": "0x345370f56891bc62f6c81a627750a21beb7771468b578804f37d7c359efeda80",
            "txnIndex": 56,
            "type": 0,
            "value": "0"
        },
        "fund_flow": [
            {
                "amount": "100",
                "from": "0x1dda23d1f451116c02dd08957edf1804574c3aad",
                "id": 1,
                "isERC1155": false,
                "isERC721": false,
                "isReverted": false,
                "order": 1,
                "to": "0xb44de8cb8d8ec66e6b13597fa9f29d37d4f2cf8a",
                "token": "0xd294fb1b8b1169dc634017f60d9ca36a5701bd7d"
            }
        ],
        "token_infos": [
            {
                "address": "0xc02aaa39b223fe8d0a0e5c4f27ead9083c756cc2",
                "decimals": 18
            },
            {
                "address": "0xd294fb1b8b1169dc634017f60d9ca36a5701bd7d",
                "decimals": 18
            },
            {
                "address": "0xeeeeeeeeeeeeeeeeeeeeeeeeeeeeeeeeeeeeeeee",
                "decimals": 18
            }
        ]
    },
    "address_label": {
        "labels": [
            {
                "address": "0xd294fb1b8b1169dc634017f60d9ca36a5701bd7d",
                "label": "Bluechip Coin (BCCO)"
            },
            {
                "address": "0x0000000000000000000000000000000000000001",
                "label": "Precompiled"
            },
            {
                "address": "0x0000000000000000000000000000000000000002",
                "label": "Precompiled"
            },
            {
                "address": "0x0000000000000000000000000000000000000003",
                "label": "Precompiled"
            },
            {
                "address": "0x0000000000000000000000000000000000000004",
                "label": "Precompiled"
            },
            {
                "address": "0xeeeeeeeeeeeeeeeeeeeeeeeeeeeeeeeeeeeeeeee",
                "label": "Ether"
            }
        ]
    },
    "trace": {
        "accountLabels": null,
        "dataMap": {
            "-1": {
                "invocation": {
                    "address": "0x1dda23d1f451116c02dd08957edf1804574c3aad",
                    "callData": "",
                    "decodedMethod": null,
                    "errorInfo": "",
                    "fromAddress": "",
                    "gasUsed": 0,
                    "id": -1,
                    "methodDecoded": false,
                    "operation": "",
                    "output": "",
                    "revert": false,
                    "revertMessage": "",
                    "selector": "",
                    "status": false,
                    "value": ""
                },
                "nodeType": 0
            },
            "0": {
                "invocation": {
                    "address": "0xd294fb1b8b1169dc634017f60d9ca36a5701bd7d",
                    "callData": "0x000000000000000000000000b44de8cb8d8ec66e6b13597fa9f29d37d4f2cf8a0000000000000000000000000000000000000000000000056bc75e2d63100000",
                    "decodedMethod": {
                        "callParams": [
                            {
                                "name": "_to",
                                "type": "address",
                                "value": "0xb44de8cb8d8ec66e6b13597fa9f29d37d4f2cf8a"
                            },
                            {
                                "decimalAvailable": true,
                                "name": "_value",
                                "type": "uint256",
                                "value": "100,000,000,000,000,000,000"
                            }
                        ],
                        "constructorArguments": "",
                        "name": "transfer",
                        "returnParams": [],
                        "signature": "transfer(address,uint256)"
                    },
                    "errorInfo": "",
                    "fromAddress": "0x1dda23d1f451116c02dd08957edf1804574c3aad",
                    "gasUsed": 53388,
                    "id": 0,
                    "methodDecoded": true,
                    "operation": "CALL",
                    "output": "",
                    "revert": false,
                    "revertMessage": "",
                    "selector": "0xa9059cbb",
                    "status": true,
                    "value": "0"
                },
                "nodeType": 0
            },
            "1": {
                "event": {
                    "contract": "0xd294fb1b8b1169dc634017f60d9ca36a5701bd7d",
                    "decodedLog": {
                        "name": "Transfer",
                        "params": [
                            {
                                "name": "from",
                                "type": "address",
                                "value": "0x1dda23d1f451116c02dd08957edf1804574c3aad"
                            },
                            {
                                "name": "to",
                                "type": "address",
                                "value": "0xb44de8cb8d8ec66e6b13597fa9f29d37d4f2cf8a"
                            },
                            {
                                "decimalAvailable": true,
                                "name": "value",
                                "type": "uint256",
                                "value": "100,000,000,000,000,000,000"
                            }
                        ],
                        "signature": "Transfer(address,address,uint256)"
                    },
                    "id": 1,
                    "logData": "0x0000000000000000000000000000000000000000000000056bc75e2d63100000",
                    "logDecoded": true,
                    "operation": "EVENT",
                    "revert": false,
                    "status": true,
                    "topics": [
                        "0xddf252ad1be2c89b69c2b068fc378daa952ba7f163c4a11628f55a4df523b3ef",
                        "0x0000000000000000000000001dda23d1f451116c02dd08957edf1804574c3aad",
                        "0x000000000000000000000000b44de8cb8d8ec66e6b13597fa9f29d37d4f2cf8a"
                    ]
                },
                "nodeType": 1
            }
        },
        "gasFlame": [
            {
                "children": [
                    {
                        "children": [
                            {
                                "children": [],
                                "depth": 0,
                                "name": "Initial Gas",
                                "value": 23256
                            },
                            {
                                "children": [],
                                "depth": 0,
                                "name": "Executed Gas",
                                "value": 30132
                            }
                        ],
                        "depth": -1,
                        "name": "Actual Gas Used",
                        "value": 53388
                    },
                    {
                        "children": [],
                        "depth": -1,
                        "name": "Refunded Gas",
                        "value": 0
                    }
                ],
                "depth": -2,
                "name": "Total Gas",
                "value": 53388
            }
        ],
        "isConfirmed": true,
        "mainTrace": [
            {
                "children": [
                    {
                        "children": [
                            {
                                "children": [],
                                "depth": 1,
                                "id": 1,
                                "order": 1
                            }
                        ],
                        "depth": 0,
                        "id": 0,
                        "order": 0
                    }
                ],
                "depth": -1,
                "id": -1,
                "order": -1
            }
        ],
        "mainTraceNodeCount": 2,
        "parentIdMap": {
            "0": -1,
            "1": 0
        },
        "tidyTrace": [
            {
                "children": [
                    {
                        "children": [
                            {
                                "children": [],
                                "depth": 1,
                                "id": 1,
                                "order": 1
                            }
                        ],
                        "depth": 0,
                        "id": 0,
                        "order": 0
                    }
                ],
                "depth": -1,
                "id": -1,
                "order": -1
            }
        ],
        "tidyTraceNodeCount": 2
    },
    "state_change": {
        "stateChanges": [
            {
                "address": "0xd294fb1b8b1169dc634017f60d9ca36a5701bd7d",
                "erc": "",
                "slots": [
                    {
                        "current": "0x00000000000000000000000000000000000000000003485e81e47fea2c284000",
                        "key": "0xc343883a32a7675b6f9018354b9b4c7457e9cc27732d5108c46940cf8de46511",
                        "prev": "0x000000000000000000000000000000000000000000034863edabde178f384000"
                    },
                    {
                        "current": "0x0000000000000000000000000000000000000000000000056bc75e2d63100000",
                        "key": "0x6de1521d9320949d23a07a5503a16604b691ebe1a478e996f94a8c6126d8f0f1",
                        "prev": "0x0000000000000000000000000000000000000000000000000000000000000000"
                    }
                ],
                "storageVariables": [
                    {
                        "name": "balanceOf",
                        "type": "mapping(address => uint256)",
                        "value": {
                            "pairs": [
                                {
                                    "key": "0x1dda23d1f451116c02dd08957edf1804574c3aad",
                                    "value": {
                                        "current": "3968531199300000000000000",
                                        "prev": "3968631199300000000000000",
                                        "typeTag": 1
                                    }
                                },
                                {
                                    "key": "0xb44de8cb8d8ec66e6b13597fa9f29d37d4f2cf8a",
                                    "value": {
                                        "current": "100000000000000000000",
                                        "prev": "0",
                                        "typeTag": 1
                                    }
                                }
                            ],
                            "typeTag": 4
                        }
                    }
                ]
            }
        ]
    }
}