{
    "balance_change": {
        "balanceChanges": []
    },
    "profile": {
        "basic_info": {
            "baseFee": "",
            "blockNumber": 9252978,
            "callData": "0x71b773440000000000000000000000000000000000000000000000000000000000000040000000000000000000000000000000000000000000000000000000005e186a9a00000000000000000000000000000000000000000000000000000000000000417363fa95d9594bb8f303f5c9f1948e18ec74de7cf3f87208a63f18b935b728ff7aea9dc5057af9254c15f4d7380b1ac0acbb05e04d5c8a95eebf8be48564c5ee0100000000000000000000000000000000000000000000000000000000000000",
            "debugEnable": true,
            "errorInfo": "",
            "eventCount": 1,
            "feeRecipient": "0x4bb96091ee9d802ed039c4d1a5f6216f90f81b01",
            "formatValue": "0",
            "gasLimit": 58938,
            "gasPrice": "1",
            "gasUsed": 39292,
            "intTxnCount": 1,
            "internalRevert": false,
            "internalRevertMessage": "",
            "isContractCreation": false,
            "isFlashloan": false,
            "maxFee": "",
            "nonce": 104,
            "overwritedBlockNumber": -1,
            "priorityFee": "",
            "receiver": "0x5e07b6f1b98a11f7e04e7ffa8707b63f1c177753",
            "revertMessage": "",
            "sender": "0xe6148ecfb6425eb42bfa74b73a93c73dfde690a1",
            "simulationEnable": true,
            "sourceTxnHash": "0x34238771ca420dcda529f3e34743231fa8e71867360445e5837a309898f2a03a",
            "status": true,
            "timestamp": "2020-01-10T12:15:05Z",
            "transactionFee": "0.000039292",
            "txnHash": "0x34238771ca420dcda529f3e34743231fa8e71867360445e5837a309898f2a03a",
            "txnIndex": 110,
            "type": 0,
            "value": "0"
        },
        "fund_flow": [],
        "token_infos": [
            {
                "address": "0xeeeeeeeeeeeeeeeeeeeeeeeeeeeeeeeeeeeeeeee",
                "decimals": 18
            },
            {
                "address": "0xc02aaa39b223fe8d0a0e5c4f27ead9083c756cc2",
                "decimals": 18
            }
        ]
    },
    "address_label": {
        "labels": [
            {
                "address": "0x0000000000000000000000000000000000000004",
                "label": "Precompiled"
            },
            {
                "address": "0xeeeeeeeeeeeeeeeeeeeeeeeeeeeeeeeeeeeeeeee",
                "label": "Ether"
            },
            {
                "address": "0x5e07b6f1b98a11f7e04e7ffa8707b63f1c177753",
                "label": "MCH: Daily Action 3"
            },
            {
                "address": "0x0000000000000000000000000000000000000001",
                "label": "Precompiled"
            },
            {
                "address": "0x0000000000000000000000000000000000000002",
                "label": "Precompiled"
            },
            {
                "address": "0x0000000000000000000000000000000000000003",
                "label": "Precompiled"
            }
        ]
    },
    "trace": {
        "accountLabels": null,
        "dataMap": {
            "-1": {
                "invocation": {
                    "address": "0xe6148ecfb6425eb42bfa74b73a93c73dfde690a1",
                    "callData": "",
                    "decodedMethod": null,
                    "errorInfo": "",
                    "fromAddress": "",
                    "gasUsed": 0,
                    "id": -1,
                    "methodDecoded": false,
                    "operation": "",
                    "output": "",
                    "revert": false,
                    "revertMessage": "",
                    "selector": "",
                    "status": false,
                    "value": ""
                },
                "nodeType": 0
            },
            "0": {
                "invocation": {
                    "address": "0x5e07b6f1b98a11f7e04e7ffa8707b63f1c177753",
                    "callData": "0x0000000000000000000000000000000000000000000000000000000000000040000000000000000000000000000000000000000000000000000000005e186a9a00000000000000000000000000000000000000000000000000000000000000417363fa95d9594bb8f303f5c9f1948e18ec74de7cf3f87208a63f18b935b728ff7aea9dc5057af9254c15f4d7380b1ac0acbb05e04d5c8a95eebf8be48564c5ee0100000000000000000000000000000000000000000000000000000000000000",
                    "decodedMethod": {
                        "callParams": [
                            {
                                "name": "_signature",
                                "type": "bytes",
                                "value": "0x7363fa95d9594bb8f303f5c9f1948e18ec74de7cf3f87208a63f18b935b728ff7aea9dc5057af9254c15f4d7380b1ac0acbb05e04d5c8a95eebf8be48564c5ee01"
                            },
                            {
                                "name": "_time",
                                "type": "int64",
                                "value": "1,578,658,458"
                            }
                        ],
                        "constructorArguments": "",
                        "name": "requestDailyActionReward",
                        "returnParams": [],
                        "signature": "requestDailyActionReward(bytes,int64)"
                    },
                    "errorInfo": "",
                    "fromAddress": "0xe6148ecfb6425eb42bfa74b73a93c73dfde690a1",
                    "gasUsed": 39292,
                    "id": 0,
                    "methodDecoded": true,
                    "operation": "CALL",
                    "output": "",
                    "revert": false,
                    "revertMessage": "",
                    "selector": "0x71b77344",
                    "status": true,
                    "value": "0"
                },
                "nodeType": 0
            },
            "1": {
                "invocation": {
                    "address": "0x0000000000000000000000000000000000000001",
                    "callData": "0xd756b7a5f85790a659cef59feb8c591bef49be9779733a8562670e1e000000000000000000000000000000000000000000000000000000000000001c7363fa95d9594bb8f303f5c9f1948e18ec74de7cf3f87208a63f18b935b728ff7aea9dc5057af9254c15f4d7380b1ac0acbb05e04d5c8a95eebf8be48564c5ee",
                    "decodedMethod": {
                        "callParams": [
                            {
                                "name": "hash",
                                "type": "bytes32",
                                "value": "0x2adaf89bd756b7a5f85790a659cef59feb8c591bef49be9779733a8562670e1e"
                            },
                            {
                                "name": "v",
                                "type": "uint256",
                                "value": "28"
                            },
                            {
                                "name": "r",
                                "type": "bytes32",
                                "value": "0x7363fa95d9594bb8f303f5c9f1948e18ec74de7cf3f87208a63f18b935b728ff"
                            },
                            {
                                "name": "s",
                                "type": "bytes32",
                                "value": "0x7aea9dc5057af9254c15f4d7380b1ac0acbb05e04d5c8a95eebf8be48564c5ee"
                            }
                        ],
                        "constructorArguments": "",
                        "name": "ecrecover",
                        "returnParams": [
                            {
                                "name": "",
                                "type": "address",
                                "value": "0x984e7b0f2cb06b847dd465eec65a3a41c1e27c06"
                            }
                        ],
                        "signature": "ecrecover(bytes32,uint256,bytes32,bytes32)"
                    },
                    "errorInfo": "",
                    "fromAddress": "0x5e07b6f1b98a11f7e04e7ffa8707b63f1c177753",
                    "gasUsed": 3000,
                    "id": 1,
                    "methodDecoded": true,
                    "operation": "STATICCALL",
                    "output": "0x000000000000000000000000984e7b0f2cb06b847dd465eec65a3a41c1e27c06",
                    "revert": false,
                    "revertMessage": "",
                    "selector": "0x2adaf89b",
                    "status": true,
                    "value": "0"
                },
                "nodeType": 0
            },
            "2": {
                "event": {
                    "contract": "0x5e07b6f1b98a11f7e04e7ffa8707b63f1c177753",
                    "decodedLog": {
                        "name": "Action",
                        "params": [
                            {
                                "name": "user",
                                "type": "address",
                                "value": "0xe6148ecfb6425eb42bfa74b73a93c73dfde690a1"
                            },
                            {
                                "name": "at",
                                "type": "int64",
                                "value": "1,578,658,458"
                            }
                        ],
                        "signature": "Action(address,int64)"
                    },
                    "id": 2,
                    "logData": "0x000000000000000000000000000000000000000000000000000000005e186a9a",
                    "logDecoded": true,
                    "operation": "EVENT",
                    "revert": false,
                    "status": true,
                    "topics": [
                        "0x708861da4aa6afa7c59ec1b6595bfacef3b852515c06faafba359c70bc640e8c",
                        "0x000000000000000000000000e6148ecfb6425eb42bfa74b73a93c73dfde690a1"
                    ]
                },
                "nodeType": 1
            }
        },
        "gasFlame": [
            {
                "children": [
                    {
                        "children": [
                            {
                                "children": [],
                                "depth": 0,
                                "name": "Initial Gas",
                                "value": 22684
                            },
                            {
                                "children": [
                                    {
                                        "children": [],
                                        "depth": 1,
                                        "name": "ecrecover",
                                        "value": 3000
                                    }
                                ],
                                "depth": 0,
                                "name": "Executed Gas",
                                "value": 16608
                            }
                        ],
                        "depth": -1,
                        "name": "Actual Gas Used",
                        "value": 39292
                    },
                    {
                        "children": [],
                        "depth": -1,
                        "name": "Refunded Gas",
                        "value": 0
                    }
                ],
                "depth": -2,
                "name": "Total Gas",
                "value": 39292
            }
        ],
        "isConfirmed": true,
        "mainTrace": [
            {
                "children": [
                    {
                        "children": [
                            {
                                "children": [],
                                "depth": 1,
                                "id": 1,
                                "order": 1
                            },
                            {
                                "children": [],
                                "depth": 1,
                                "id": 2,
                                "order": 2
                            }
                        ],
                        "depth": 0,
                        "id": 0,
                        "order": 0
                    }
                ],
                "depth": -1,
                "id": -1,
                "order": -1
            }
        ],
        "mainTraceNodeCount": 3,
        "parentIdMap": {
            "0": -1,
            "1": 0,
            "2": 0
        },
        "tidyTrace": [
            {
                "children": [
                    {
                        "children": [
                            {
                                "children": [],
                                "depth": 1,
                                "id": 2,
                                "order": 2
                            }
                        ],
                        "depth": 0,
                        "id": 0,
                        "order": 0
                    }
                ],
                "depth": -1,
                "id": -1,
                "order": -1
            }
        ],
        "tidyTraceNodeCount": 2
    },
    "state_change": {
        "stateChanges": [
            {
                "address": "0x5e07b6f1b98a11f7e04e7ffa8707b63f1c177753",
                "erc": "",
                "slots": [
                    {
                        "current": "0x000000000000000000000000000000000000000000000000000000000000475f",
                        "key": "0xb8013b8b12c1d8f10964f8656f5d20a33b16bbaf348bd486327cf925f785acbd",
                        "prev": "0x000000000000000000000000000000000000000000000000000000000000475e"
                    }
                ],
                "storageVariables": [
                    {
                        "name": "lastActionDate",
                        "type": "mapping(address => int64)",
                        "value": {
                            "pairs": [
                                {
                                    "key": "0xe6148ecfb6425eb42bfa74b73a93c73dfde690a1",
                                    "value": {
                                        "current": "18271",
                                        "prev": "18270",
                                        "typeTag": 1
                                    }
                                }
                            ],
                            "typeTag": 4
                        }
                    }
                ]
            }
        ]
    }
}