{
    "balance_change": {
        "balanceChanges": [
            {
                "account": "0x0000000000000000000000000000000000000000",
                "assets": [
                    {
                        "address": "0x8c9b261faef3b3c2e64ab5e58e04615f8c788099",
                        "amount": "1",
                        "iconUrl": "",
                        "isERC1155": false,
                        "isERC721": true,
                        "sign": false,
                        "tokenID": "110055",
                        "value": ""
                    },
                    {
                        "address": "0x8c9b261faef3b3c2e64ab5e58e04615f8c788099",
                        "amount": "1",
                        "iconUrl": "",
                        "isERC1155": false,
                        "isERC721": true,
                        "sign": false,
                        "tokenID": "110056",
                        "value": ""
                    },
                    {
                        "address": "0x8c9b261faef3b3c2e64ab5e58e04615f8c788099",
                        "amount": "1",
                        "iconUrl": "",
                        "isERC1155": false,
                        "isERC721": true,
                        "sign": false,
                        "tokenID": "110057",
                        "value": ""
                    },
                    {
                        "address": "0x8c9b261faef3b3c2e64ab5e58e04615f8c788099",
                        "amount": "1",
                        "iconUrl": "",
                        "isERC1155": false,
                        "isERC721": true,
                        "sign": false,
                        "tokenID": "110058",
                        "value": ""
                    }
                ]
            },
            {
                "account": "0x5940229e55a3a2d58a35d36da3c986a2a6e3987d",
                "assets": [
                    {
                        "address": "0x8c9b261faef3b3c2e64ab5e58e04615f8c788099",
                        "amount": "1",
                        "iconUrl": "",
                        "isERC1155": false,
                        "isERC721": true,
                        "sign": true,
                        "tokenID": "110055",
                        "value": ""
                    }
                ]
            },
            {
                "account": "0x66cf4459e61e8c8d36f6b398290742ebc37957aa",
                "assets": [
                    {
                        "address": "0x8c9b261faef3b3c2e64ab5e58e04615f8c788099",
                        "amount": "1",
                        "iconUrl": "",
                        "isERC1155": false,
                        "isERC721": true,
                        "sign": true,
                        "tokenID": "110057",
                        "value": ""
                    },
                    {
                        "address": "0x8c9b261faef3b3c2e64ab5e58e04615f8c788099",
                        "amount": "1",
                        "iconUrl": "",
                        "isERC1155": false,
                        "isERC721": true,
                        "sign": true,
                        "tokenID": "110058",
                        "value": ""
                    },
                    {
                        "address": "0x8c9b261faef3b3c2e64ab5e58e04615f8c788099",
                        "amount": "1",
                        "iconUrl": "",
                        "isERC1155": false,
                        "isERC721": true,
                        "sign": true,
                        "tokenID": "110056",
                        "value": ""
                    }
                ]
            }
        ]
    },
    "profile": {
        "basic_info": {
            "baseFee": "",
            "blockNumber": 6528254,
            "callData": "0x9e3d66670000000000000000000000000000000000000000000000000000000000017acb0000000000000000000000000000000000000000000000000000000000017ace0000000000000000000000000000000000000000000000000000000000017acc0000000000000000000000000000000000000000000000000000000000017acd000000000000000000000000000000000000000000000000000000000000000000000000000000000000000000000000000000000000000000000000000000000000000000000000000000000000000000000000000000000000000000000000000000000000000000000000000000000000000000000000000000000000000000000000000000000000000000000000000000000000000000000000000000000000000000000000000000000000000000000000000000000000000000000000000000000000000000000000000000000000000000000000000000000000000b000000000000000000000000000000000000000000000000000000000000000b000000000000000000000000000000000000000000000000000000000000000b000000000000000000000000000000000000000000000000000000000000000b000000000000000000000000000000000000000000000000000000000000000000000000000000000000000000000000000000000000000000000000000000000000000000000000000000000000000000000000000000000000000000000000000000000000000000000000000000000000000000000000000000000000000000000000000000000000000000000000000000000000000000000000000000000000000000000000000000000000000000000000000000000000000000000000000000000000000000000000000000000000000000000000000000000000000100000000000000000000000000000000000000000000000000000000000000010000000000000000000000000000000000000000000000000000000000000006000000000000000000000000000000000000000000000000000000000000000100000000000000000000000000000000000000000000000000000000000000000000000000000000000000000000000000000000000000000000000000000000000000000000000000000000000000000000000000000000000000000000000000000000000000000000000000000000000000000000000000000000000000000000000000000000000000000000000000000000000000000000000000000000000000000000000000000000000000000000000000000000000000000000000000000000000000000000000000000931f5b93b453c9adbb8dff794103ee37e9100000000000000000000000000000931f5b4cd87b58b3f2e331e5af547b3fe9100000000000000000000000000000940a4479907fe868c2c726c2c30a3317e9200000000000000000000000000000931f67e10fe5dc99dad8e136c74a5e37e8d0000000000000000000000000000000000000000000000000000000000000000000000000000000000000000000000000000000000000000000000000000000000000000000000000000000000000000000000000000000000000000000000000000000000000000000000000000000000000000000000000000000000000000000000000000000000000000000000000000000000000000000000000000000000000000000000000000000000000000000000000000000000000000000000000000000000000000000000005940229e55a3a2d58a35d36da3c986a2a6e3987d00000000000000000000000066cf4459e61e8c8d36f6b398290742ebc37957aa00000000000000000000000066cf4459e61e8c8d36f6b398290742ebc37957aa00000000000000000000000066cf4459e61e8c8d36f6b398290742ebc37957aa00000000000000000000000000000000000000000000000000000000000000000000000000000000000000000000000000000000000000000000000000000000000000000000000000000000000000000000000000000000000000000000000000000000000000000000000000000000000000000000000000000000000000000000000000000000000000000000000000000000000000000000000000000000000000000000000000000000000000000000000000000000000000000000000000000000000000000000000000000000000000000000000000000000000898ca00000000000000000000000000000000000000000000000000000000000898ca00000000000000000000000000000000000000000000000000000000000898ca00000000000000000000000000000000000000000000000000000000000898ca000000000000000000000000000000000000000000000000000000000000000000000000000000000000000000000000000000000000000000000000000000000000000000000000000000000000000000000000000000000000000000000000000000000000000000000000000000000000000000000000000000000000000000000000000000000000000000000000000000000000000000000000000000000000000000000000000000000000000000000000000000000000000000000000000000000000000000000000000000000000000000000000000000000000031f000000000000000000000000000000000000000000000000000000000000000e000000000000000000000000000000000000000000000000000000000000000f0000000000000000000000000000000000000000000000000000000000000011000000000000000000000000000000000000000000000000000000000000000000000000000000000000000000000000000000000000000000000000000000000000000000000000000000000000000000000000000000000000000000000000000000000000000000000000000000000000000000000000000000000000000000000000000000000000000000000000000000000000000000000000000000000000000000000000000000000000000000000000000000000000000000000000000000000000000000000000000000000000000000000000000000000007ab600000000000000000000000000000000000000000000000000000000000090be1000000000000000000000000000000000000000000000000000000000008b56b000000000000000000000000000000000000000000000000000000000006d957000000000000000000000000000000000000000000000000000000000000000000000000000000000000000000000000000000000000000000000000000000000000000000000000000000000000000000000000000000000000000000000000000000000000000000000000000000000000000000000000000000000000000000000000000000000000000000000000000000000000000000000000000000000000000000000000000000000000000000000000000000000000000000000000",
            "debugEnable": true,
            "errorInfo": "",
            "eventCount": 12,
            "feeRecipient": "0x5c282fe36e6ecfbead066368a3e5b345cf8d1591",
            "formatValue": "0",
            "gasLimit": 1229531,
            "gasPrice": "6.55",
            "gasUsed": 1229330,
            "intTxnCount": 8,
            "internalRevert": false,
            "internalRevertMessage": "",
            "isContractCreation": false,
            "isFlashloan": false,
            "maxFee": "",
            "nonce": 6180,
            "overwritedBlockNumber": -1,
            "priorityFee": "",
            "receiver": "0x16fce53c10792c7bb2c7cd991a8957743e4620d2",
            "revertMessage": "",
            "sender": "0xf37c7e281c6bb8507467a0acf1f1a5f095bb5151",
            "simulationEnable": true,
            "sourceTxnHash": "0x344ae05a20983ac1436bf0590569a0b62ecc0e3c1acb76f0b391415dec1fcc0a",
            "status": true,
            "timestamp": "2018-10-16T22:15:32Z",
            "transactionFee": "0.0080521115",
            "txnHash": "0x344ae05a20983ac1436bf0590569a0b62ecc0e3c1acb76f0b391415dec1fcc0a",
            "txnIndex": 25,
            "type": 0,
            "value": "0"
        },
        "fund_flow": [
            {
                "amount": "1",
                "from": "0x0000000000000000000000000000000000000000",
                "id": 1,
                "isERC1155": false,
                "isERC721": true,
                "isReverted": false,
                "order": 1,
                "to": "0x5940229e55a3a2d58a35d36da3c986a2a6e3987d",
                "token": "0x8c9b261faef3b3c2e64ab5e58e04615f8c788099",
                "tokenID": "110055"
            },
            {
                "amount": "1",
                "from": "0x0000000000000000000000000000000000000000",
                "id": 2,
                "isERC1155": false,
                "isERC721": true,
                "isReverted": false,
                "order": 2,
                "to": "0x66cf4459e61e8c8d36f6b398290742ebc37957aa",
                "token": "0x8c9b261faef3b3c2e64ab5e58e04615f8c788099",
                "tokenID": "110056"
            },
            {
                "amount": "1",
                "from": "0x0000000000000000000000000000000000000000",
                "id": 3,
                "isERC1155": false,
                "isERC721": true,
                "isReverted": false,
                "order": 3,
                "to": "0x66cf4459e61e8c8d36f6b398290742ebc37957aa",
                "token": "0x8c9b261faef3b3c2e64ab5e58e04615f8c788099",
                "tokenID": "110057"
            },
            {
                "amount": "1",
                "from": "0x0000000000000000000000000000000000000000",
                "id": 4,
                "isERC1155": false,
                "isERC721": true,
                "isReverted": false,
                "order": 4,
                "to": "0x66cf4459e61e8c8d36f6b398290742ebc37957aa",
                "token": "0x8c9b261faef3b3c2e64ab5e58e04615f8c788099",
                "tokenID": "110058"
            }
        ],
        "token_infos": [
            {
                "address": "0xeeeeeeeeeeeeeeeeeeeeeeeeeeeeeeeeeeeeeeee",
                "decimals": 18
            },
            {
                "address": "0xc02aaa39b223fe8d0a0e5c4f27ead9083c756cc2",
                "decimals": 18
            }
        ]
    },
    "address_label": {
        "labels": [
            {
                "address": "0xeeeeeeeeeeeeeeeeeeeeeeeeeeeeeeeeeeeeeeee",
                "label": "Ether"
            },
            {
                "address": "0x8c9b261faef3b3c2e64ab5e58e04615f8c788099",
                "label": "LucidSight-MLB-NFT (MLBCB)"
            },
            {
                "address": "0x0000000000000000000000000000000000000001",
                "label": "Precompiled"
            },
            {
                "address": "0x0000000000000000000000000000000000000002",
                "label": "Precompiled"
            },
            {
                "address": "0x0000000000000000000000000000000000000003",
                "label": "Precompiled"
            },
            {
                "address": "0x0000000000000000000000000000000000000004",
                "label": "Precompiled"
            }
        ]
    },
    "trace": {
        "accountLabels": null,
        "dataMap": {
            "-1": {
                "invocation": {
                    "address": "0xf37c7e281c6bb8507467a0acf1f1a5f095bb5151",
                    "callData": "",
                    "decodedMethod": null,
                    "errorInfo": "",
                    "fromAddress": "",
                    "gasUsed": 0,
                    "id": -1,
                    "methodDecoded": false,
                    "operation": "",
                    "output": "",
                    "revert": false,
                    "revertMessage": "",
                    "selector": "",
                    "status": false,
                    "value": ""
                },
                "nodeType": 0
            },
            "0": {
                "invocation": {
                    "address": "0x16fce53c10792c7bb2c7cd991a8957743e4620d2",
                    "callData": "0x0000000000000000000000000000000000000000000000000000000000017acb0000000000000000000000000000000000000000000000000000000000017ace0000000000000000000000000000000000000000000000000000000000017acc0000000000000000000000000000000000000000000000000000000000017acd000000000000000000000000000000000000000000000000000000000000000000000000000000000000000000000000000000000000000000000000000000000000000000000000000000000000000000000000000000000000000000000000000000000000000000000000000000000000000000000000000000000000000000000000000000000000000000000000000000000000000000000000000000000000000000000000000000000000000000000000000000000000000000000000000000000000000000000000000000000000000000000000000000000000000b000000000000000000000000000000000000000000000000000000000000000b000000000000000000000000000000000000000000000000000000000000000b000000000000000000000000000000000000000000000000000000000000000b000000000000000000000000000000000000000000000000000000000000000000000000000000000000000000000000000000000000000000000000000000000000000000000000000000000000000000000000000000000000000000000000000000000000000000000000000000000000000000000000000000000000000000000000000000000000000000000000000000000000000000000000000000000000000000000000000000000000000000000000000000000000000000000000000000000000000000000000000000000000000000000000000000000000000100000000000000000000000000000000000000000000000000000000000000010000000000000000000000000000000000000000000000000000000000000006000000000000000000000000000000000000000000000000000000000000000100000000000000000000000000000000000000000000000000000000000000000000000000000000000000000000000000000000000000000000000000000000000000000000000000000000000000000000000000000000000000000000000000000000000000000000000000000000000000000000000000000000000000000000000000000000000000000000000000000000000000000000000000000000000000000000000000000000000000000000000000000000000000000000000000000000000000000000000000000931f5b93b453c9adbb8dff794103ee37e9100000000000000000000000000000931f5b4cd87b58b3f2e331e5af547b3fe9100000000000000000000000000000940a4479907fe868c2c726c2c30a3317e9200000000000000000000000000000931f67e10fe5dc99dad8e136c74a5e37e8d0000000000000000000000000000000000000000000000000000000000000000000000000000000000000000000000000000000000000000000000000000000000000000000000000000000000000000000000000000000000000000000000000000000000000000000000000000000000000000000000000000000000000000000000000000000000000000000000000000000000000000000000000000000000000000000000000000000000000000000000000000000000000000000000000000000000000000000000005940229e55a3a2d58a35d36da3c986a2a6e3987d00000000000000000000000066cf4459e61e8c8d36f6b398290742ebc37957aa00000000000000000000000066cf4459e61e8c8d36f6b398290742ebc37957aa00000000000000000000000066cf4459e61e8c8d36f6b398290742ebc37957aa00000000000000000000000000000000000000000000000000000000000000000000000000000000000000000000000000000000000000000000000000000000000000000000000000000000000000000000000000000000000000000000000000000000000000000000000000000000000000000000000000000000000000000000000000000000000000000000000000000000000000000000000000000000000000000000000000000000000000000000000000000000000000000000000000000000000000000000000000000000000000000000000000000000000898ca00000000000000000000000000000000000000000000000000000000000898ca00000000000000000000000000000000000000000000000000000000000898ca00000000000000000000000000000000000000000000000000000000000898ca000000000000000000000000000000000000000000000000000000000000000000000000000000000000000000000000000000000000000000000000000000000000000000000000000000000000000000000000000000000000000000000000000000000000000000000000000000000000000000000000000000000000000000000000000000000000000000000000000000000000000000000000000000000000000000000000000000000000000000000000000000000000000000000000000000000000000000000000000000000000000000000000000000000000031f000000000000000000000000000000000000000000000000000000000000000e000000000000000000000000000000000000000000000000000000000000000f0000000000000000000000000000000000000000000000000000000000000011000000000000000000000000000000000000000000000000000000000000000000000000000000000000000000000000000000000000000000000000000000000000000000000000000000000000000000000000000000000000000000000000000000000000000000000000000000000000000000000000000000000000000000000000000000000000000000000000000000000000000000000000000000000000000000000000000000000000000000000000000000000000000000000000000000000000000000000000000000000000000000000000000000000007ab600000000000000000000000000000000000000000000000000000000000090be1000000000000000000000000000000000000000000000000000000000008b56b000000000000000000000000000000000000000000000000000000000006d957000000000000000000000000000000000000000000000000000000000000000000000000000000000000000000000000000000000000000000000000000000000000000000000000000000000000000000000000000000000000000000000000000000000000000000000000000000000000000000000000000000000000000000000000000000000000000000000000000000000000000000000000000000000000000000000000000000000000000000000000000000000000000000000000",
                    "decodedMethod": null,
                    "errorInfo": "",
                    "fromAddress": "0xf37c7e281c6bb8507467a0acf1f1a5f095bb5151",
                    "gasUsed": 1229330,
                    "id": 0,
                    "methodDecoded": false,
                    "operation": "CALL",
                    "output": "",
                    "revert": false,
                    "revertMessage": "",
                    "selector": "0x9e3d6667",
                    "status": true,
                    "value": "0"
                },
                "nodeType": 0
            },
            "1": {
                "invocation": {
                    "address": "0xaa86bb5ce320e7e425af0caf988f2c3a5e0b8338",
                    "callData": "0x0000000000000000000000000000000000000000000000000000000000017acb00000000000000000000000000000000000000000000000000000000000000010000000000000000000000005940229e55a3a2d58a35d36da3c986a2a6e3987d",
                    "decodedMethod": null,
                    "errorInfo": "",
                    "fromAddress": "0x16fce53c10792c7bb2c7cd991a8957743e4620d2",
                    "gasUsed": 27516,
                    "id": 1,
                    "methodDecoded": false,
                    "operation": "CALL",
                    "output": "",
                    "revert": false,
                    "revertMessage": "",
                    "selector": "0xa08d5356",
                    "status": true,
                    "value": "0"
                },
                "nodeType": 0
            },
            "10": {
                "event": {
                    "contract": "0x16fce53c10792c7bb2c7cd991a8957743e4620d2",
                    "decodedLog": null,
                    "id": 10,
                    "logData": "0x0000000000000000000000000000000000000000000000000000000000017ace000000000000000000000000000000000000000000000000000000000000000b000000000000000000000000000000000000000000000000000000000000000e00000000000000000000000066cf4459e61e8c8d36f6b398290742ebc37957aa000000000000000000000000000000000000000000000000000000000001ade800000000000000000000000000000000000000000000000000000000000898ca",
                    "logDecoded": false,
                    "operation": "EVENT",
                    "revert": false,
                    "status": true,
                    "topics": [
                        "0xa53d65329fd9655bd17dbce2ae6cd38ab7064b2f029a44157fd8a0e1516377f8"
                    ]
                },
                "nodeType": 1
            },
            "11": {
                "invocation": {
                    "address": "0xaa86bb5ce320e7e425af0caf988f2c3a5e0b8338",
                    "callData": "0x0000000000000000000000000000000000000000000000000000000000017acc000000000000000000000000000000000000000000000000000000000000000100000000000000000000000066cf4459e61e8c8d36f6b398290742ebc37957aa",
                    "decodedMethod": null,
                    "errorInfo": "",
                    "fromAddress": "0x16fce53c10792c7bb2c7cd991a8957743e4620d2",
                    "gasUsed": 27516,
                    "id": 11,
                    "methodDecoded": false,
                    "operation": "CALL",
                    "output": "",
                    "revert": false,
                    "revertMessage": "",
                    "selector": "0xa08d5356",
                    "status": true,
                    "value": "0"
                },
                "nodeType": 0
            },
            "12": {
                "invocation": {
                    "address": "0x8c9b261faef3b3c2e64ab5e58e04615f8c788099",
                    "callData": "0x000000000000000000000000000000000000000000000000000000000000000b000000000000000000000000000000000000000000000000000000000000000600000000000000000000000000000940a4479907fe868c2c726c2c30a3317e9200000000000000000000000066cf4459e61e8c8d36f6b398290742ebc37957aa00000000000000000000000000000000000000000000000000000000000898ca0000000000000000000000000000000000000000000000000000000000000000000000000000000000000000000000000000000000000000000000000008b56b",
                    "decodedMethod": {
                        "callParams": [
                            {
                                "name": "_teamId",
                                "type": "uint8",
                                "value": "11"
                            },
                            {
                                "name": "_posId",
                                "type": "uint8",
                                "value": "6"
                            },
                            {
                                "name": "_attributes",
                                "type": "uint256",
                                "value": "806,007,010,017,010,002,004,000,005,011,001,002,000,018"
                            },
                            {
                                "name": "_owner",
                                "type": "address",
                                "value": "0x66cf4459e61e8c8d36f6b398290742ebc37957aa"
                            },
                            {
                                "name": "_gameId",
                                "type": "uint256",
                                "value": "563,402"
                            },
                            {
                                "name": "_playerOverrideId",
                                "type": "uint256",
                                "value": "0"
                            },
                            {
                                "name": "_mlbPlayerId",
                                "type": "uint256",
                                "value": "570,731"
                            }
                        ],
                        "constructorArguments": "",
                        "name": "createRewardCollectible",
                        "returnParams": [
                            {
                                "name": "",
                                "type": "uint256",
                                "value": "110,057"
                            }
                        ],
                        "signature": "createRewardCollectible(uint8,uint8,uint256,address,uint256,uint256,uint256)"
                    },
                    "errorInfo": "",
                    "fromAddress": "0x16fce53c10792c7bb2c7cd991a8957743e4620d2",
                    "gasUsed": 260507,
                    "id": 12,
                    "methodDecoded": true,
                    "operation": "CALL",
                    "output": "0x000000000000000000000000000000000000000000000000000000000001ade9",
                    "revert": false,
                    "revertMessage": "",
                    "selector": "0x41763225",
                    "status": true,
                    "value": "0"
                },
                "nodeType": 0
            },
            "13": {
                "event": {
                    "contract": "0x8c9b261faef3b3c2e64ab5e58e04615f8c788099",
                    "decodedLog": {
                        "name": "Transfer",
                        "params": [
                            {
                                "name": "_from",
                                "type": "address",
                                "value": "0x0000000000000000000000000000000000000000"
                            },
                            {
                                "name": "_to",
                                "type": "address",
                                "value": "0x66cf4459e61e8c8d36f6b398290742ebc37957aa"
                            },
                            {
                                "decimalAvailable": true,
                                "name": "_tokenId",
                                "type": "uint256",
                                "value": "110,057"
                            }
                        ],
                        "signature": "Transfer(address,address,uint256)"
                    },
                    "id": 13,
                    "logData": "0x",
                    "logDecoded": true,
                    "operation": "EVENT",
                    "revert": false,
                    "status": true,
                    "topics": [
                        "0xddf252ad1be2c89b69c2b068fc378daa952ba7f163c4a11628f55a4df523b3ef",
                        "0x0000000000000000000000000000000000000000000000000000000000000000",
                        "0x00000000000000000000000066cf4459e61e8c8d36f6b398290742ebc37957aa",
                        "0x000000000000000000000000000000000000000000000000000000000001ade9"
                    ]
                },
                "nodeType": 1
            },
            "14": {
                "event": {
                    "contract": "0x8c9b261faef3b3c2e64ab5e58e04615f8c788099",
                    "decodedLog": {
                        "name": "Created",
                        "params": [
                            {
                                "name": "owner",
                                "type": "address",
                                "value": "0x66cf4459e61e8c8d36f6b398290742ebc37957aa"
                            },
                            {
                                "name": "tokenId",
                                "type": "uint256",
                                "value": "110,057"
                            }
                        ],
                        "signature": "Created(address,uint256)"
                    },
                    "id": 14,
                    "logData": "0x00000000000000000000000066cf4459e61e8c8d36f6b398290742ebc37957aa000000000000000000000000000000000000000000000000000000000001ade9",
                    "logDecoded": true,
                    "operation": "EVENT",
                    "revert": false,
                    "status": true,
                    "topics": [
                        "0x0ce3610e89a4bb9ec9359763f99110ed52a4abaea0b62028a1637e242ca2768b"
                    ]
                },
                "nodeType": 1
            },
            "15": {
                "event": {
                    "contract": "0x16fce53c10792c7bb2c7cd991a8957743e4620d2",
                    "decodedLog": null,
                    "id": 15,
                    "logData": "0x0000000000000000000000000000000000000000000000000000000000017acc000000000000000000000000000000000000000000000000000000000000000b000000000000000000000000000000000000000000000000000000000000000f00000000000000000000000066cf4459e61e8c8d36f6b398290742ebc37957aa000000000000000000000000000000000000000000000000000000000001ade900000000000000000000000000000000000000000000000000000000000898ca",
                    "logDecoded": false,
                    "operation": "EVENT",
                    "revert": false,
                    "status": true,
                    "topics": [
                        "0xa53d65329fd9655bd17dbce2ae6cd38ab7064b2f029a44157fd8a0e1516377f8"
                    ]
                },
                "nodeType": 1
            },
            "16": {
                "invocation": {
                    "address": "0xaa86bb5ce320e7e425af0caf988f2c3a5e0b8338",
                    "callData": "0x0000000000000000000000000000000000000000000000000000000000017acd000000000000000000000000000000000000000000000000000000000000000100000000000000000000000066cf4459e61e8c8d36f6b398290742ebc37957aa",
                    "decodedMethod": null,
                    "errorInfo": "",
                    "fromAddress": "0x16fce53c10792c7bb2c7cd991a8957743e4620d2",
                    "gasUsed": 27516,
                    "id": 16,
                    "methodDecoded": false,
                    "operation": "CALL",
                    "output": "",
                    "revert": false,
                    "revertMessage": "",
                    "selector": "0xa08d5356",
                    "status": true,
                    "value": "0"
                },
                "nodeType": 0
            },
            "17": {
                "invocation": {
                    "address": "0x8c9b261faef3b3c2e64ab5e58e04615f8c788099",
                    "callData": "0x000000000000000000000000000000000000000000000000000000000000000b000000000000000000000000000000000000000000000000000000000000000100000000000000000000000000000931f67e10fe5dc99dad8e136c74a5e37e8d00000000000000000000000066cf4459e61e8c8d36f6b398290742ebc37957aa00000000000000000000000000000000000000000000000000000000000898ca0000000000000000000000000000000000000000000000000000000000000000000000000000000000000000000000000000000000000000000000000006d957",
                    "decodedMethod": {
                        "callParams": [
                            {
                                "name": "_teamId",
                                "type": "uint8",
                                "value": "11"
                            },
                            {
                                "name": "_posId",
                                "type": "uint8",
                                "value": "1"
                            },
                            {
                                "name": "_attributes",
                                "type": "uint256",
                                "value": "801,012,054,026,007,002,004,002,041,011,001,002,000,013"
                            },
                            {
                                "name": "_owner",
                                "type": "address",
                                "value": "0x66cf4459e61e8c8d36f6b398290742ebc37957aa"
                            },
                            {
                                "name": "_gameId",
                                "type": "uint256",
                                "value": "563,402"
                            },
                            {
                                "name": "_playerOverrideId",
                                "type": "uint256",
                                "value": "0"
                            },
                            {
                                "name": "_mlbPlayerId",
                                "type": "uint256",
                                "value": "448,855"
                            }
                        ],
                        "constructorArguments": "",
                        "name": "createRewardCollectible",
                        "returnParams": [
                            {
                                "name": "",
                                "type": "uint256",
                                "value": "110,058"
                            }
                        ],
                        "signature": "createRewardCollectible(uint8,uint8,uint256,address,uint256,uint256,uint256)"
                    },
                    "errorInfo": "",
                    "fromAddress": "0x16fce53c10792c7bb2c7cd991a8957743e4620d2",
                    "gasUsed": 260507,
                    "id": 17,
                    "methodDecoded": true,
                    "operation": "CALL",
                    "output": "0x000000000000000000000000000000000000000000000000000000000001adea",
                    "revert": false,
                    "revertMessage": "",
                    "selector": "0x41763225",
                    "status": true,
                    "value": "0"
                },
                "nodeType": 0
            },
            "18": {
                "event": {
                    "contract": "0x8c9b261faef3b3c2e64ab5e58e04615f8c788099",
                    "decodedLog": {
                        "name": "Transfer",
                        "params": [
                            {
                                "name": "_from",
                                "type": "address",
                                "value": "0x0000000000000000000000000000000000000000"
                            },
                            {
                                "name": "_to",
                                "type": "address",
                                "value": "0x66cf4459e61e8c8d36f6b398290742ebc37957aa"
                            },
                            {
                                "decimalAvailable": true,
                                "name": "_tokenId",
                                "type": "uint256",
                                "value": "110,058"
                            }
                        ],
                        "signature": "Transfer(address,address,uint256)"
                    },
                    "id": 18,
                    "logData": "0x",
                    "logDecoded": true,
                    "operation": "EVENT",
                    "revert": false,
                    "status": true,
                    "topics": [
                        "0xddf252ad1be2c89b69c2b068fc378daa952ba7f163c4a11628f55a4df523b3ef",
                        "0x0000000000000000000000000000000000000000000000000000000000000000",
                        "0x00000000000000000000000066cf4459e61e8c8d36f6b398290742ebc37957aa",
                        "0x000000000000000000000000000000000000000000000000000000000001adea"
                    ]
                },
                "nodeType": 1
            },
            "19": {
                "event": {
                    "contract": "0x8c9b261faef3b3c2e64ab5e58e04615f8c788099",
                    "decodedLog": {
                        "name": "Created",
                        "params": [
                            {
                                "name": "owner",
                                "type": "address",
                                "value": "0x66cf4459e61e8c8d36f6b398290742ebc37957aa"
                            },
                            {
                                "name": "tokenId",
                                "type": "uint256",
                                "value": "110,058"
                            }
                        ],
                        "signature": "Created(address,uint256)"
                    },
                    "id": 19,
                    "logData": "0x00000000000000000000000066cf4459e61e8c8d36f6b398290742ebc37957aa000000000000000000000000000000000000000000000000000000000001adea",
                    "logDecoded": true,
                    "operation": "EVENT",
                    "revert": false,
                    "status": true,
                    "topics": [
                        "0x0ce3610e89a4bb9ec9359763f99110ed52a4abaea0b62028a1637e242ca2768b"
                    ]
                },
                "nodeType": 1
            },
            "2": {
                "invocation": {
                    "address": "0x8c9b261faef3b3c2e64ab5e58e04615f8c788099",
                    "callData": "0x000000000000000000000000000000000000000000000000000000000000000b000000000000000000000000000000000000000000000000000000000000000100000000000000000000000000000931f5b93b453c9adbb8dff794103ee37e910000000000000000000000005940229e55a3a2d58a35d36da3c986a2a6e3987d00000000000000000000000000000000000000000000000000000000000898ca0000000000000000000000000000000000000000000000000000000000000000000000000000000000000000000000000000000000000000000000000007ab60",
                    "decodedMethod": {
                        "callParams": [
                            {
                                "name": "_teamId",
                                "type": "uint8",
                                "value": "11"
                            },
                            {
                                "name": "_posId",
                                "type": "uint8",
                                "value": "1"
                            },
                            {
                                "name": "_attributes",
                                "type": "uint256",
                                "value": "801,011,032,001,002,004,003,000,057,011,001,002,000,017"
                            },
                            {
                                "name": "_owner",
                                "type": "address",
                                "value": "0x5940229e55a3a2d58a35d36da3c986a2a6e3987d"
                            },
                            {
                                "name": "_gameId",
                                "type": "uint256",
                                "value": "563,402"
                            },
                            {
                                "name": "_playerOverrideId",
                                "type": "uint256",
                                "value": "0"
                            },
                            {
                                "name": "_mlbPlayerId",
                                "type": "uint256",
                                "value": "502,624"
                            }
                        ],
                        "constructorArguments": "",
                        "name": "createRewardCollectible",
                        "returnParams": [
                            {
                                "name": "",
                                "type": "uint256",
                                "value": "110,055"
                            }
                        ],
                        "signature": "createRewardCollectible(uint8,uint8,uint256,address,uint256,uint256,uint256)"
                    },
                    "errorInfo": "",
                    "fromAddress": "0x16fce53c10792c7bb2c7cd991a8957743e4620d2",
                    "gasUsed": 260507,
                    "id": 2,
                    "methodDecoded": true,
                    "operation": "CALL",
                    "output": "0x000000000000000000000000000000000000000000000000000000000001ade7",
                    "revert": false,
                    "revertMessage": "",
                    "selector": "0x41763225",
                    "status": true,
                    "value": "0"
                },
                "nodeType": 0
            },
            "20": {
                "event": {
                    "contract": "0x16fce53c10792c7bb2c7cd991a8957743e4620d2",
                    "decodedLog": null,
                    "id": 20,
                    "logData": "0x0000000000000000000000000000000000000000000000000000000000017acd000000000000000000000000000000000000000000000000000000000000000b000000000000000000000000000000000000000000000000000000000000001100000000000000000000000066cf4459e61e8c8d36f6b398290742ebc37957aa000000000000000000000000000000000000000000000000000000000001adea00000000000000000000000000000000000000000000000000000000000898ca",
                    "logDecoded": false,
                    "operation": "EVENT",
                    "revert": false,
                    "status": true,
                    "topics": [
                        "0xa53d65329fd9655bd17dbce2ae6cd38ab7064b2f029a44157fd8a0e1516377f8"
                    ]
                },
                "nodeType": 1
            },
            "3": {
                "event": {
                    "contract": "0x8c9b261faef3b3c2e64ab5e58e04615f8c788099",
                    "decodedLog": {
                        "name": "Transfer",
                        "params": [
                            {
                                "name": "_from",
                                "type": "address",
                                "value": "0x0000000000000000000000000000000000000000"
                            },
                            {
                                "name": "_to",
                                "type": "address",
                                "value": "0x5940229e55a3a2d58a35d36da3c986a2a6e3987d"
                            },
                            {
                                "decimalAvailable": true,
                                "name": "_tokenId",
                                "type": "uint256",
                                "value": "110,055"
                            }
                        ],
                        "signature": "Transfer(address,address,uint256)"
                    },
                    "id": 3,
                    "logData": "0x",
                    "logDecoded": true,
                    "operation": "EVENT",
                    "revert": false,
                    "status": true,
                    "topics": [
                        "0xddf252ad1be2c89b69c2b068fc378daa952ba7f163c4a11628f55a4df523b3ef",
                        "0x0000000000000000000000000000000000000000000000000000000000000000",
                        "0x0000000000000000000000005940229e55a3a2d58a35d36da3c986a2a6e3987d",
                        "0x000000000000000000000000000000000000000000000000000000000001ade7"
                    ]
                },
                "nodeType": 1
            },
            "4": {
                "event": {
                    "contract": "0x8c9b261faef3b3c2e64ab5e58e04615f8c788099",
                    "decodedLog": {
                        "name": "Created",
                        "params": [
                            {
                                "name": "owner",
                                "type": "address",
                                "value": "0x5940229e55a3a2d58a35d36da3c986a2a6e3987d"
                            },
                            {
                                "name": "tokenId",
                                "type": "uint256",
                                "value": "110,055"
                            }
                        ],
                        "signature": "Created(address,uint256)"
                    },
                    "id": 4,
                    "logData": "0x0000000000000000000000005940229e55a3a2d58a35d36da3c986a2a6e3987d000000000000000000000000000000000000000000000000000000000001ade7",
                    "logDecoded": true,
                    "operation": "EVENT",
                    "revert": false,
                    "status": true,
                    "topics": [
                        "0x0ce3610e89a4bb9ec9359763f99110ed52a4abaea0b62028a1637e242ca2768b"
                    ]
                },
                "nodeType": 1
            },
            "5": {
                "event": {
                    "contract": "0x16fce53c10792c7bb2c7cd991a8957743e4620d2",
                    "decodedLog": null,
                    "id": 5,
                    "logData": "0x0000000000000000000000000000000000000000000000000000000000017acb000000000000000000000000000000000000000000000000000000000000000b000000000000000000000000000000000000000000000000000000000000031f0000000000000000000000005940229e55a3a2d58a35d36da3c986a2a6e3987d000000000000000000000000000000000000000000000000000000000001ade700000000000000000000000000000000000000000000000000000000000898ca",
                    "logDecoded": false,
                    "operation": "EVENT",
                    "revert": false,
                    "status": true,
                    "topics": [
                        "0xa53d65329fd9655bd17dbce2ae6cd38ab7064b2f029a44157fd8a0e1516377f8"
                    ]
                },
                "nodeType": 1
            },
            "6": {
                "invocation": {
                    "address": "0xaa86bb5ce320e7e425af0caf988f2c3a5e0b8338",
                    "callData": "0x0000000000000000000000000000000000000000000000000000000000017ace000000000000000000000000000000000000000000000000000000000000000100000000000000000000000066cf4459e61e8c8d36f6b398290742ebc37957aa",
                    "decodedMethod": null,
                    "errorInfo": "",
                    "fromAddress": "0x16fce53c10792c7bb2c7cd991a8957743e4620d2",
                    "gasUsed": 27516,
                    "id": 6,
                    "methodDecoded": false,
                    "operation": "CALL",
                    "output": "",
                    "revert": false,
                    "revertMessage": "",
                    "selector": "0xa08d5356",
                    "status": true,
                    "value": "0"
                },
                "nodeType": 0
            },
            "7": {
                "invocation": {
                    "address": "0x8c9b261faef3b3c2e64ab5e58e04615f8c788099",
                    "callData": "0x000000000000000000000000000000000000000000000000000000000000000b000000000000000000000000000000000000000000000000000000000000000100000000000000000000000000000931f5b4cd87b58b3f2e331e5af547b3fe9100000000000000000000000066cf4459e61e8c8d36f6b398290742ebc37957aa00000000000000000000000000000000000000000000000000000000000898ca00000000000000000000000000000000000000000000000000000000000000000000000000000000000000000000000000000000000000000000000000090be1",
                    "decodedMethod": {
                        "callParams": [
                            {
                                "name": "_teamId",
                                "type": "uint8",
                                "value": "11"
                            },
                            {
                                "name": "_posId",
                                "type": "uint8",
                                "value": "1"
                            },
                            {
                                "name": "_attributes",
                                "type": "uint256",
                                "value": "801,011,009,006,016,001,001,001,054,011,001,002,000,017"
                            },
                            {
                                "name": "_owner",
                                "type": "address",
                                "value": "0x66cf4459e61e8c8d36f6b398290742ebc37957aa"
                            },
                            {
                                "name": "_gameId",
                                "type": "uint256",
                                "value": "563,402"
                            },
                            {
                                "name": "_playerOverrideId",
                                "type": "uint256",
                                "value": "0"
                            },
                            {
                                "name": "_mlbPlayerId",
                                "type": "uint256",
                                "value": "592,865"
                            }
                        ],
                        "constructorArguments": "",
                        "name": "createRewardCollectible",
                        "returnParams": [
                            {
                                "name": "",
                                "type": "uint256",
                                "value": "110,056"
                            }
                        ],
                        "signature": "createRewardCollectible(uint8,uint8,uint256,address,uint256,uint256,uint256)"
                    },
                    "errorInfo": "",
                    "fromAddress": "0x16fce53c10792c7bb2c7cd991a8957743e4620d2",
                    "gasUsed": 260507,
                    "id": 7,
                    "methodDecoded": true,
                    "operation": "CALL",
                    "output": "0x000000000000000000000000000000000000000000000000000000000001ade8",
                    "revert": false,
                    "revertMessage": "",
                    "selector": "0x41763225",
                    "status": true,
                    "value": "0"
                },
                "nodeType": 0
            },
            "8": {
                "event": {
                    "contract": "0x8c9b261faef3b3c2e64ab5e58e04615f8c788099",
                    "decodedLog": {
                        "name": "Transfer",
                        "params": [
                            {
                                "name": "_from",
                                "type": "address",
                                "value": "0x0000000000000000000000000000000000000000"
                            },
                            {
                                "name": "_to",
                                "type": "address",
                                "value": "0x66cf4459e61e8c8d36f6b398290742ebc37957aa"
                            },
                            {
                                "decimalAvailable": true,
                                "name": "_tokenId",
                                "type": "uint256",
                                "value": "110,056"
                            }
                        ],
                        "signature": "Transfer(address,address,uint256)"
                    },
                    "id": 8,
                    "logData": "0x",
                    "logDecoded": true,
                    "operation": "EVENT",
                    "revert": false,
                    "status": true,
                    "topics": [
                        "0xddf252ad1be2c89b69c2b068fc378daa952ba7f163c4a11628f55a4df523b3ef",
                        "0x0000000000000000000000000000000000000000000000000000000000000000",
                        "0x00000000000000000000000066cf4459e61e8c8d36f6b398290742ebc37957aa",
                        "0x000000000000000000000000000000000000000000000000000000000001ade8"
                    ]
                },
                "nodeType": 1
            },
            "9": {
                "event": {
                    "contract": "0x8c9b261faef3b3c2e64ab5e58e04615f8c788099",
                    "decodedLog": {
                        "name": "Created",
                        "params": [
                            {
                                "name": "owner",
                                "type": "address",
                                "value": "0x66cf4459e61e8c8d36f6b398290742ebc37957aa"
                            },
                            {
                                "name": "tokenId",
                                "type": "uint256",
                                "value": "110,056"
                            }
                        ],
                        "signature": "Created(address,uint256)"
                    },
                    "id": 9,
                    "logData": "0x00000000000000000000000066cf4459e61e8c8d36f6b398290742ebc37957aa000000000000000000000000000000000000000000000000000000000001ade8",
                    "logDecoded": true,
                    "operation": "EVENT",
                    "revert": false,
                    "status": true,
                    "topics": [
                        "0x0ce3610e89a4bb9ec9359763f99110ed52a4abaea0b62028a1637e242ca2768b"
                    ]
                },
                "nodeType": 1
            }
        },
        "gasFlame": [
            {
                "children": [
                    {
                        "children": [
                            {
                                "children": [],
                                "depth": 0,
                                "name": "Initial Gas",
                                "value": 44376
                            },
                            {
                                "children": [
                                    {
                                        "children": [],
                                        "depth": 1,
                                        "name": "0xa08d5356",
                                        "value": 27516
                                    },
                                    {
                                        "children": [],
                                        "depth": 1,
                                        "name": "createRewardCollectible",
                                        "value": 260507
                                    },
                                    {
                                        "children": [],
                                        "depth": 1,
                                        "name": "0xa08d5356",
                                        "value": 27516
                                    },
                                    {
                                        "children": [],
                                        "depth": 1,
                                        "name": "createRewardCollectible",
                                        "value": 260507
                                    },
                                    {
                                        "children": [],
                                        "depth": 1,
                                        "name": "0xa08d5356",
                                        "value": 27516
                                    },
                                    {
                                        "children": [],
                                        "depth": 1,
                                        "name": "createRewardCollectible",
                                        "value": 260507
                                    },
                                    {
                                        "children": [],
                                        "depth": 1,
                                        "name": "0xa08d5356",
                                        "value": 27516
                                    },
                                    {
                                        "children": [],
                                        "depth": 1,
                                        "name": "createRewardCollectible",
                                        "value": 260507
                                    }
                                ],
                                "depth": 0,
                                "name": "Executed Gas",
                                "value": 1184954
                            }
                        ],
                        "depth": -1,
                        "name": "Actual Gas Used",
                        "value": 1229330
                    },
                    {
                        "children": [],
                        "depth": -1,
                        "name": "Refunded Gas",
                        "value": 0
                    }
                ],
                "depth": -2,
                "name": "Total Gas",
                "value": 1229330
            }
        ],
        "isConfirmed": true,
        "mainTrace": [
            {
                "children": [
                    {
                        "children": [
                            {
                                "children": [],
                                "depth": 1,
                                "id": 1,
                                "order": 1
                            },
                            {
                                "children": [
                                    {
                                        "children": [],
                                        "depth": 2,
                                        "id": 3,
                                        "order": 3
                                    },
                                    {
                                        "children": [],
                                        "depth": 2,
                                        "id": 4,
                                        "order": 4
                                    }
                                ],
                                "depth": 1,
                                "id": 2,
                                "order": 2
                            },
                            {
                                "children": [],
                                "depth": 1,
                                "id": 5,
                                "order": 5
                            },
                            {
                                "children": [],
                                "depth": 1,
                                "id": 6,
                                "order": 6
                            },
                            {
                                "children": [
                                    {
                                        "children": [],
                                        "depth": 2,
                                        "id": 8,
                                        "order": 8
                                    },
                                    {
                                        "children": [],
                                        "depth": 2,
                                        "id": 9,
                                        "order": 9
                                    }
                                ],
                                "depth": 1,
                                "id": 7,
                                "order": 7
                            },
                            {
                                "children": [],
                                "depth": 1,
                                "id": 10,
                                "order": 10
                            },
                            {
                                "children": [],
                                "depth": 1,
                                "id": 11,
                                "order": 11
                            },
                            {
                                "children": [
                                    {
                                        "children": [],
                                        "depth": 2,
                                        "id": 13,
                                        "order": 13
                                    },
                                    {
                                        "children": [],
                                        "depth": 2,
                                        "id": 14,
                                        "order": 14
                                    }
                                ],
                                "depth": 1,
                                "id": 12,
                                "order": 12
                            },
                            {
                                "children": [],
                                "depth": 1,
                                "id": 15,
                                "order": 15
                            },
                            {
                                "children": [],
                                "depth": 1,
                                "id": 16,
                                "order": 16
                            },
                            {
                                "children": [
                                    {
                                        "children": [],
                                        "depth": 2,
                                        "id": 18,
                                        "order": 18
                                    },
                                    {
                                        "children": [],
                                        "depth": 2,
                                        "id": 19,
                                        "order": 19
                                    }
                                ],
                                "depth": 1,
                                "id": 17,
                                "order": 17
                            },
                            {
                                "children": [],
                                "depth": 1,
                                "id": 20,
                                "order": 20
                            }
                        ],
                        "depth": 0,
                        "id": 0,
                        "order": 0
                    }
                ],
                "depth": -1,
                "id": -1,
                "order": -1
            }
        ],
        "mainTraceNodeCount": 21,
        "parentIdMap": {
            "0": -1,
            "1": 0,
            "10": 0,
            "11": 0,
            "12": 0,
            "13": 12,
            "14": 12,
            "15": 0,
            "16": 0,
            "17": 0,
            "18": 17,
            "19": 17,
            "2": 0,
            "20": 0,
            "3": 2,
            "4": 2,
            "5": 0,
            "6": 0,
            "7": 0,
            "8": 7,
            "9": 7
        },
        "tidyTrace": [
            {
                "children": [
                    {
                        "children": [
                            {
                                "children": [],
                                "depth": 1,
                                "id": 1,
                                "order": 1
                            },
                            {
                                "children": [
                                    {
                                        "children": [],
                                        "depth": 2,
                                        "id": 3,
                                        "order": 3
                                    },
                                    {
                                        "children": [],
                                        "depth": 2,
                                        "id": 4,
                                        "order": 4
                                    }
                                ],
                                "depth": 1,
                                "id": 2,
                                "order": 2
                            },
                            {
                                "children": [],
                                "depth": 1,
                                "id": 5,
                                "order": 5
                            },
                            {
                                "children": [],
                                "depth": 1,
                                "id": 6,
                                "order": 6
                            },
                            {
                                "children": [
                                    {
                                        "children": [],
                                        "depth": 2,
                                        "id": 8,
                                        "order": 8
                                    },
                                    {
                                        "children": [],
                                        "depth": 2,
                                        "id": 9,
                                        "order": 9
                                    }
                                ],
                                "depth": 1,
                                "id": 7,
                                "order": 7
                            },
                            {
                                "children": [],
                                "depth": 1,
                                "id": 10,
                                "order": 10
                            },
                            {
                                "children": [],
                                "depth": 1,
                                "id": 11,
                                "order": 11
                            },
                            {
                                "children": [
                                    {
                                        "children": [],
                                        "depth": 2,
                                        "id": 13,
                                        "order": 13
                                    },
                                    {
                                        "children": [],
                                        "depth": 2,
                                        "id": 14,
                                        "order": 14
                                    }
                                ],
                                "depth": 1,
                                "id": 12,
                                "order": 12
                            },
                            {
                                "children": [],
                                "depth": 1,
                                "id": 15,
                                "order": 15
                            },
                            {
                                "children": [],
                                "depth": 1,
                                "id": 16,
                                "order": 16
                            },
                            {
                                "children": [
                                    {
                                        "children": [],
                                        "depth": 2,
                                        "id": 18,
                                        "order": 18
                                    },
                                    {
                                        "children": [],
                                        "depth": 2,
                                        "id": 19,
                                        "order": 19
                                    }
                                ],
                                "depth": 1,
                                "id": 17,
                                "order": 17
                            },
                            {
                                "children": [],
                                "depth": 1,
                                "id": 20,
                                "order": 20
                            }
                        ],
                        "depth": 0,
                        "id": 0,
                        "order": 0
                    }
                ],
                "depth": -1,
                "id": -1,
                "order": -1
            }
        ],
        "tidyTraceNodeCount": 21
    },
    "state_change": {
        "stateChanges": [
            {
                "address": "0x8c9b261faef3b3c2e64ab5e58e04615f8c788099",
                "erc": "ERC-721",
                "slots": [
                    {
                        "current": "0x00000000000000000000000000000000000000000000000000000000000005a8",
                        "key": "0x5639f8f55e060e89935356466075180a3821c5fc32fc798027fd0cfd1e2d0015",
                        "prev": "0x0000000000000000000000000000000000000000000000000000000000000000"
                    },
                    {
                        "current": "0x00000000000000000000000000000000000000000000000000000000000898ca",
                        "key": "0x0175b7a638427703f0dbe7bb9bbf987a2551717b34e79f33b5b1008d1fad8cfb",
                        "prev": "0x0000000000000000000000000000000000000000000000000000000000000000"
                    },
                    {
                        "current": "0x00000000000000000000000066cf4459e61e8c8d36f6b398290742ebc37957aa",
                        "key": "0x99d5deaed243c51a2eb9ed3e8ed1311e588f6425dc37b78cc23f453906605ada",
                        "prev": "0x0000000000000000000000000000000000000000000000000000000000000000"
                    },
                    {
                        "current": "0x00000000000000000000000000000000000000000000000000000000000898ca",
                        "key": "0x0175b7a638427703f0dbe7bb9bbf987a2551717b34e79f33b5b1008d1fad8d03",
                        "prev": "0x0000000000000000000000000000000000000000000000000000000000000000"
                    },
                    {
                        "current": "0x00000000000000000000000000000000000000000000000000000000000005aa",
                        "key": "0xa7a02c534d5186c46eb18afc8a6ed0e46db1373db85ab90ff287b9612b7d1db1",
                        "prev": "0x0000000000000000000000000000000000000000000000000000000000000000"
                    },
                    {
                        "current": "0x000000000000000000000000000000000000000000000000000000000000010e",
                        "key": "0x84065c24091cb1d2a806593683e7ece8286a3488735f4b2c963f4cf2a367d769",
                        "prev": "0x000000000000000000000000000000000000000000000000000000000000010d"
                    },
                    {
                        "current": "0x000000000000000000000000000000000000000000000000000000000007ab60",
                        "key": "0x0175b7a638427703f0dbe7bb9bbf987a2551717b34e79f33b5b1008d1fad8cf5",
                        "prev": "0x0000000000000000000000000000000000000000000000000000000000000000"
                    },
                    {
                        "current": "0x000000000000000000000000000000000000000000000000000000000001adeb",
                        "key": "0x000000000000000000000000000000000000000000000000000000000000000b",
                        "prev": "0x000000000000000000000000000000000000000000000000000000000001ade7"
                    },
                    {
                        "current": "0x000000000000000000000000000000000000000000000000000000000001adea",
                        "key": "0x9c34616c354551092a9e742ceee98ab0c0d5b13f3071777a7480905104e7b8fe",
                        "prev": "0x0000000000000000000000000000000000000000000000000000000000000000"
                    },
                    {
                        "current": "0x000000000000000000000000000000000000000000000000000000000001ade7",
                        "key": "0xf83a636e824465a2acf5544bc7b8c6f316ef57387a9cdbe902895cc2513a3b9d",
                        "prev": "0x0000000000000000000000000000000000000000000000000000000000000000"
                    },
                    {
                        "current": "0x00000000000000000000000000000940a4479907fe868c2c726c2c30a3317e92",
                        "key": "0x0175b7a638427703f0dbe7bb9bbf987a2551717b34e79f33b5b1008d1fad8d01",
                        "prev": "0x0000000000000000000000000000000000000000000000000000000000000000"
                    },
                    {
                        "current": "0x000000000000000000000000000000000000000000000000000000000001ade9",
                        "key": "0x4322e0f299089bc1e136707f3f661b0f190bd1ee8e284edf3293e19c5cee857a",
                        "prev": "0x0000000000000000000000000000000000000000000000000000000000000000"
                    },
                    {
                        "current": "0x00000000000000000000000000000000000000000000000000000000000898ca",
                        "key": "0x0175b7a638427703f0dbe7bb9bbf987a2551717b34e79f33b5b1008d1fad8d0b",
                        "prev": "0x0000000000000000000000000000000000000000000000000000000000000000"
                    },
                    {
                        "current": "0x000000000000000000000000000000000000000000000000000000000000010e",
                        "key": "0x1df53e4f3b46a3f7ce681cf94e4acfdb56dcdeb430ff5e1155a08d64f19bb1f2",
                        "prev": "0x000000000000000000000000000000000000000000000000000000000000010d"
                    },
                    {
                        "current": "0x000000000000000000000000000000000000000000000000000000000001ade7",
                        "key": "0x8e661bd7486cb4bc53e167b806ed0342e0ab9bcac393d254d31a31e442fa5c73",
                        "prev": "0x0000000000000000000000000000000000000000000000000000000000000000"
                    },
                    {
                        "current": "0x0000000000000000000000005940229e55a3a2d58a35d36da3c986a2a6e3987d",
                        "key": "0xd3b3882176a4fd679068b46069c5153aeb0845f3a0244059a9abe72ba809d552",
                        "prev": "0x0000000000000000000000000000000000000000000000000000000000000000"
                    },
                    {
                        "current": "0x00000000000000000000000000000000000000000000000000000000000005ab",
                        "key": "0xf81ca0eb7a5f0211595745f733d8441c39e3a5ca442f354fe359ef62013cbe9a",
                        "prev": "0x00000000000000000000000000000000000000000000000000000000000005a8"
                    },
                    {
                        "current": "0x000000000000000000000000000000000000060b000026bb000000005bc66304",
                        "key": "0x0175b7a638427703f0dbe7bb9bbf987a2551717b34e79f33b5b1008d1fad8d07",
                        "prev": "0x0000000000000000000000000000000000000000000000000000000000000000"
                    },
                    {
                        "current": "0x000000000000000000000000000000000000000000000000000000000001adea",
                        "key": "0xf3f7a9fe364faab93b216da50a3214154f22a0a2b415b23a84c8169e8b651ccd",
                        "prev": "0x0000000000000000000000000000000000000000000000000000000000000000"
                    },
                    {
                        "current": "0x00000000000000000000000000000931f67e10fe5dc99dad8e136c74a5e37e8d",
                        "key": "0x0175b7a638427703f0dbe7bb9bbf987a2551717b34e79f33b5b1008d1fad8d09",
                        "prev": "0x0000000000000000000000000000000000000000000000000000000000000000"
                    },
                    {
                        "current": "0x000000000000000000000000000000000000000000000000000000000001749b",
                        "key": "0x0000000000000000000000000000000000000000000000000000000000000016",
                        "prev": "0x0000000000000000000000000000000000000000000000000000000000017497"
                    },
                    {
                        "current": "0x000000000000000000000000000000000000000000000000000000000001ade8",
                        "key": "0x1c8a37485bbed4835f1acdb9b5cf41ba95e70c1924231edc9d26b3e07726dbac",
                        "prev": "0x0000000000000000000000000000000000000000000000000000000000000000"
                    },
                    {
                        "current": "0x000000000000000000000000000000000000000000000000000000000001ade8",
                        "key": "0xde9a1d372bc4ec4b7a777a7532a0f58a659f75efea205fa1d07dec94a3c32874",
                        "prev": "0x0000000000000000000000000000000000000000000000000000000000000000"
                    },
                    {
                        "current": "0x000000000000000000000000000000000000010b000026b9000000005bc66304",
                        "key": "0x0175b7a638427703f0dbe7bb9bbf987a2551717b34e79f33b5b1008d1fad8cf7",
                        "prev": "0x0000000000000000000000000000000000000000000000000000000000000000"
                    },
                    {
                        "current": "0x000000000000000000000000000000000000000000000000000000000006d957",
                        "key": "0x0175b7a638427703f0dbe7bb9bbf987a2551717b34e79f33b5b1008d1fad8d0d",
                        "prev": "0x0000000000000000000000000000000000000000000000000000000000000000"
                    },
                    {
                        "current": "0x00000000000000000000000066cf4459e61e8c8d36f6b398290742ebc37957aa",
                        "key": "0xced69e362e103381c1b7e6a055ec3a300ffc1b640904fba77bec082cef883d70",
                        "prev": "0x0000000000000000000000000000000000000000000000000000000000000000"
                    },
                    {
                        "current": "0x00000000000000000000000066cf4459e61e8c8d36f6b398290742ebc37957aa",
                        "key": "0x3f4b06fc9ef3d1ecfc9960db3fe13831145d36b550558a568848d88fe7a5dcea",
                        "prev": "0x0000000000000000000000000000000000000000000000000000000000000000"
                    },
                    {
                        "current": "0x00000000000000000000000000000000000000000000000000000000000005ab",
                        "key": "0x025d815f40365e34b8b2679f345f7959604e9acca2abd7759160e7519b99d816",
                        "prev": "0x00000000000000000000000000000000000000000000000000000000000005a8"
                    },
                    {
                        "current": "0x00000000000000000000000000000931f5b4cd87b58b3f2e331e5af547b3fe91",
                        "key": "0x0175b7a638427703f0dbe7bb9bbf987a2551717b34e79f33b5b1008d1fad8cf9",
                        "prev": "0x0000000000000000000000000000000000000000000000000000000000000000"
                    },
                    {
                        "current": "0x00000000000000000000000000000000000000000000000000000000000898ca",
                        "key": "0x0175b7a638427703f0dbe7bb9bbf987a2551717b34e79f33b5b1008d1fad8cf3",
                        "prev": "0x0000000000000000000000000000000000000000000000000000000000000000"
                    },
                    {
                        "current": "0x000000000000000000000000000000000000000000000000000000000001ade8",
                        "key": "0x4322e0f299089bc1e136707f3f661b0f190bd1ee8e284edf3293e19c5cee8579",
                        "prev": "0x0000000000000000000000000000000000000000000000000000000000000000"
                    },
                    {
                        "current": "0x000000000000000000000000000000000000000000000000000000000001ade9",
                        "key": "0xb19fbbf060d0d085386c774c056fb5ab7d5cf3c43617a1865474e3a33a2f2f2e",
                        "prev": "0x0000000000000000000000000000000000000000000000000000000000000000"
                    },
                    {
                        "current": "0x00000000000000000000000000000000000000000000000000000000000005a9",
                        "key": "0xc528bc556c19ed9a130a18dfd5ba32759709a654ac3d3e90ad91990ee9269ed6",
                        "prev": "0x0000000000000000000000000000000000000000000000000000000000000000"
                    },
                    {
                        "current": "0x000000000000000000000000000000000000000000000000000000000001adea",
                        "key": "0xa1942737dc39350c462bd7c8f1f9dd96350e62c044da8b3f2d28ebdf64627c97",
                        "prev": "0x0000000000000000000000000000000000000000000000000000000000000000"
                    },
                    {
                        "current": "0x000000000000000000000000000000000000000000000000000000000001ade7",
                        "key": "0x0633c017b1d506d6142f1437681ef1e5753d356f5c2b66a78acdd9afb2b65ab5",
                        "prev": "0x0000000000000000000000000000000000000000000000000000000000000000"
                    },
                    {
                        "current": "0x000000000000000000000000000000000000000000000000000000000000010d",
                        "key": "0x912099515f3684bf9ee5fbee8f91471e2a114985827a29271cfbf5ac60b112db",
                        "prev": "0x0000000000000000000000000000000000000000000000000000000000000000"
                    },
                    {
                        "current": "0x00000000000000000000000000000000000000000000000000000000000026bc",
                        "key": "0x52c2086a203f40e709b1346663401f6c737b2fce5878601fcf875b047fed5fb6",
                        "prev": "0x00000000000000000000000000000000000000000000000000000000000026b8"
                    },
                    {
                        "current": "0x000000000000000000000000000000000000000000000000000000000001ade9",
                        "key": "0xfc152f5fc1fc9ae0d4db42dbdb20a04cd806ea6ae165a66ce7435f21aa4cb386",
                        "prev": "0x0000000000000000000000000000000000000000000000000000000000000000"
                    },
                    {
                        "current": "0x000000000000000000000000000000000000000000000000000000000001adea",
                        "key": "0x4322e0f299089bc1e136707f3f661b0f190bd1ee8e284edf3293e19c5cee857b",
                        "prev": "0x0000000000000000000000000000000000000000000000000000000000000000"
                    },
                    {
                        "current": "0x000000000000000000000000000000000000000000000000000000000001adeb",
                        "key": "0x0000000000000000000000000000000000000000000000000000000000000008",
                        "prev": "0x000000000000000000000000000000000000000000000000000000000001ade7"
                    },
                    {
                        "current": "0x000000000000000000000000000000000000000000000000000000000001ade7",
                        "key": "0xf3f7a9fe364faab93b216da50a3214154f22a0a2b415b23a84c8169e8b651cca",
                        "prev": "0x0000000000000000000000000000000000000000000000000000000000000000"
                    },
                    {
                        "current": "0x000000000000000000000000000000000000000000000000000000000001ade8",
                        "key": "0xf3f7a9fe364faab93b216da50a3214154f22a0a2b415b23a84c8169e8b651ccb",
                        "prev": "0x0000000000000000000000000000000000000000000000000000000000000000"
                    },
                    {
                        "current": "0x000000000000000000000000000000000000000000000000000000000008b56b",
                        "key": "0x0175b7a638427703f0dbe7bb9bbf987a2551717b34e79f33b5b1008d1fad8d05",
                        "prev": "0x0000000000000000000000000000000000000000000000000000000000000000"
                    },
                    {
                        "current": "0x000000000000000000000000000000000000000000000000000000000001ade9",
                        "key": "0xf3f7a9fe364faab93b216da50a3214154f22a0a2b415b23a84c8169e8b651ccc",
                        "prev": "0x0000000000000000000000000000000000000000000000000000000000000000"
                    },
                    {
                        "current": "0x000000000000000000000000000000000000010b000026bc000000005bc66304",
                        "key": "0x0175b7a638427703f0dbe7bb9bbf987a2551717b34e79f33b5b1008d1fad8d0f",
                        "prev": "0x0000000000000000000000000000000000000000000000000000000000000000"
                    },
                    {
                        "current": "0x00000000000000000000000000000931f5b93b453c9adbb8dff794103ee37e91",
                        "key": "0x0175b7a638427703f0dbe7bb9bbf987a2551717b34e79f33b5b1008d1fad8cf1",
                        "prev": "0x0000000000000000000000000000000000000000000000000000000000000000"
                    },
                    {
                        "current": "0x000000000000000000000000000000000000010b000026ba000000005bc66304",
                        "key": "0x0175b7a638427703f0dbe7bb9bbf987a2551717b34e79f33b5b1008d1fad8cff",
                        "prev": "0x0000000000000000000000000000000000000000000000000000000000000000"
                    },
                    {
                        "current": "0x0000000000000000000000000000000000000000000000000000000000090be1",
                        "key": "0x0175b7a638427703f0dbe7bb9bbf987a2551717b34e79f33b5b1008d1fad8cfd",
                        "prev": "0x0000000000000000000000000000000000000000000000000000000000000000"
                    }
                ],
                "storageVariables": [
                    {
                        "name": "nftTeamIndexToCollectibleCount",
                        "type": "mapping(uint256 => uint32)",
                        "value": {
                            "pairs": [
                                {
                                    "key": "11",
                                    "value": {
                                        "current": "9916",
                                        "prev": "9912",
                                        "typeTag": 1
                                    }
                                }
                            ],
                            "typeTag": 4
                        }
                    },
                    {
                        "name": "ownedTokensIndex",
                        "type": "mapping(uint256 => uint256)",
                        "value": {
                            "pairs": [
                                {
                                    "key": "110055",
                                    "value": {
                                        "current": "269",
                                        "prev": "0",
                                        "typeTag": 1
                                    }
                                },
                                {
                                    "key": "110056",
                                    "value": {
                                        "current": "1448",
                                        "prev": "0",
                                        "typeTag": 1
                                    }
                                },
                                {
                                    "key": "110057",
                                    "value": {
                                        "current": "1449",
                                        "prev": "0",
                                        "typeTag": 1
                                    }
                                },
                                {
                                    "key": "110058",
                                    "value": {
                                        "current": "1450",
                                        "prev": "0",
                                        "typeTag": 1
                                    }
                                }
                            ],
                            "typeTag": 4
                        }
                    },
                    {
                        "name": "rewardsRedeemed",
                        "type": "uint256",
                        "value": {
                            "current": "95387",
                            "prev": "95383",
                            "typeTag": 1
                        }
                    },
                    {
                        "name": "ownedTokens",
                        "type": "mapping(address => uint256[])",
                        "value": {
                            "pairs": [
                                {
                                    "key": "0x5940229e55a3a2d58a35d36da3c986a2a6e3987d",
                                    "value": {
                                        "elemType": "uint256",
                                        "elems": [
                                            {
                                                "index": 269,
                                                "value": {
                                                    "current": "110055",
                                                    "prev": "0",
                                                    "typeTag": 1
                                                }
                                            }
                                        ],
                                        "typeTag": 2
                                    }
                                },
                                {
                                    "key": "0x66cf4459e61e8c8d36f6b398290742ebc37957aa",
                                    "value": {
                                        "elemType": "uint256",
                                        "elems": [
                                            {
                                                "index": 1448,
                                                "value": {
                                                    "current": "110056",
                                                    "prev": "0",
                                                    "typeTag": 1
                                                }
                                            },
                                            {
                                                "index": 1449,
                                                "value": {
                                                    "current": "110057",
                                                    "prev": "0",
                                                    "typeTag": 1
                                                }
                                            },
                                            {
                                                "index": 1450,
                                                "value": {
                                                    "current": "110058",
                                                    "prev": "0",
                                                    "typeTag": 1
                                                }
                                            }
                                        ],
                                        "typeTag": 2
                                    }
                                }
                            ],
                            "typeTag": 4
                        }
                    },
                    {
                        "name": "nftTeamIdToSequenceIdToCollectible",
                        "type": "mapping(uint256 => mapping(uint32 => uint256))",
                        "value": {
                            "pairs": [
                                {
                                    "key": "11",
                                    "value": {
                                        "pairs": [
                                            {
                                                "key": "9913",
                                                "value": {
                                                    "current": "110055",
                                                    "prev": "0",
                                                    "typeTag": 1
                                                }
                                            },
                                            {
                                                "key": "9914",
                                                "value": {
                                                    "current": "110056",
                                                    "prev": "0",
                                                    "typeTag": 1
                                                }
                                            },
                                            {
                                                "key": "9915",
                                                "value": {
                                                    "current": "110057",
                                                    "prev": "0",
                                                    "typeTag": 1
                                                }
                                            },
                                            {
                                                "key": "9916",
                                                "value": {
                                                    "current": "110058",
                                                    "prev": "0",
                                                    "typeTag": 1
                                                }
                                            }
                                        ],
                                        "typeTag": 4
                                    }
                                }
                            ],
                            "typeTag": 4
                        }
                    },
                    {
                        "name": "allTokensIndex",
                        "type": "mapping(uint256 => uint256)",
                        "value": {
                            "pairs": [
                                {
                                    "key": "110055",
                                    "value": {
                                        "current": "110055",
                                        "prev": "0",
                                        "typeTag": 1
                                    }
                                },
                                {
                                    "key": "110056",
                                    "value": {
                                        "current": "110056",
                                        "prev": "0",
                                        "typeTag": 1
                                    }
                                },
                                {
                                    "key": "110057",
                                    "value": {
                                        "current": "110057",
                                        "prev": "0",
                                        "typeTag": 1
                                    }
                                },
                                {
                                    "key": "110058",
                                    "value": {
                                        "current": "110058",
                                        "prev": "0",
                                        "typeTag": 1
                                    }
                                }
                            ],
                            "typeTag": 4
                        }
                    },
                    {
                        "name": "allTokens",
                        "type": "uint256[]",
                        "value": {
                            "elemType": "uint256",
                            "elems": [
                                {
                                    "index": 110055,
                                    "value": {
                                        "current": "110055",
                                        "prev": "0",
                                        "typeTag": 1
                                    }
                                },
                                {
                                    "index": 110056,
                                    "value": {
                                        "current": "110056",
                                        "prev": "0",
                                        "typeTag": 1
                                    }
                                },
                                {
                                    "index": 110057,
                                    "value": {
                                        "current": "110057",
                                        "prev": "0",
                                        "typeTag": 1
                                    }
                                },
                                {
                                    "index": 110058,
                                    "value": {
                                        "current": "110058",
                                        "prev": "0",
                                        "typeTag": 1
                                    }
                                }
                            ],
                            "typeTag": 2
                        }
                    },
                    {
                        "name": "ownedTokensCount",
                        "type": "mapping(address => uint256)",
                        "value": {
                            "pairs": [
                                {
                                    "key": "0x5940229e55a3a2d58a35d36da3c986a2a6e3987d",
                                    "value": {
                                        "current": "270",
                                        "prev": "269",
                                        "typeTag": 1
                                    }
                                },
                                {
                                    "key": "0x66cf4459e61e8c8d36f6b398290742ebc37957aa",
                                    "value": {
                                        "current": "1451",
                                        "prev": "1448",
                                        "typeTag": 1
                                    }
                                }
                            ],
                            "typeTag": 4
                        }
                    },
                    {
                        "name": "allNFTs",
                        "type": "struct LSNFT.NFT[]",
                        "value": {
                            "elemType": "struct LSNFT.NFT",
                            "elems": [
                                {
                                    "index": 110055,
                                    "value": {
                                        "fields": [
                                            {
                                                "name": "attributes",
                                                "type": "uint256",
                                                "value": {
                                                    "current": "801011032001002004003000057011001002000017",
                                                    "prev": "0",
                                                    "typeTag": 1
                                                }
                                            },
                                            {
                                                "name": "mlbGameId",
                                                "type": "uint256",
                                                "value": {
                                                    "current": "563402",
                                                    "prev": "0",
                                                    "typeTag": 1
                                                }
                                            },
                                            {
                                                "name": "mlbPlayerId",
                                                "type": "uint256",
                                                "value": {
                                                    "current": "502624",
                                                    "prev": "0",
                                                    "typeTag": 1
                                                }
                                            },
                                            {
                                                "name": "assetDetails",
                                                "type": "uint256",
                                                "value": {
                                                    "current": "21153919574171152140160559637252",
                                                    "prev": "0",
                                                    "typeTag": 1
                                                }
                                            }
                                        ],
                                        "typeTag": 3
                                    }
                                },
                                {
                                    "index": 110056,
                                    "value": {
                                        "fields": [
                                            {
                                                "name": "attributes",
                                                "type": "uint256",
                                                "value": {
                                                    "current": "801011009006016001001001054011001002000017",
                                                    "prev": "0",
                                                    "typeTag": 1
                                                }
                                            },
                                            {
                                                "name": "mlbGameId",
                                                "type": "uint256",
                                                "value": {
                                                    "current": "563402",
                                                    "prev": "0",
                                                    "typeTag": 1
                                                }
                                            },
                                            {
                                                "name": "mlbPlayerId",
                                                "type": "uint256",
                                                "value": {
                                                    "current": "592865",
                                                    "prev": "0",
                                                    "typeTag": 1
                                                }
                                            },
                                            {
                                                "name": "assetDetails",
                                                "type": "uint256",
                                                "value": {
                                                    "current": "21153919574189598884234269188868",
                                                    "prev": "0",
                                                    "typeTag": 1
                                                }
                                            }
                                        ],
                                        "typeTag": 3
                                    }
                                },
                                {
                                    "index": 110057,
                                    "value": {
                                        "fields": [
                                            {
                                                "name": "attributes",
                                                "type": "uint256",
                                                "value": {
                                                    "current": "806007010017010002004000005011001002000018",
                                                    "prev": "0",
                                                    "typeTag": 1
                                                }
                                            },
                                            {
                                                "name": "mlbGameId",
                                                "type": "uint256",
                                                "value": {
                                                    "current": "563402",
                                                    "prev": "0",
                                                    "typeTag": 1
                                                }
                                            },
                                            {
                                                "name": "mlbPlayerId",
                                                "type": "uint256",
                                                "value": {
                                                    "current": "570731",
                                                    "prev": "0",
                                                    "typeTag": 1
                                                }
                                            },
                                            {
                                                "name": "assetDetails",
                                                "type": "uint256",
                                                "value": {
                                                    "current": "122565967592466397748044235170564",
                                                    "prev": "0",
                                                    "typeTag": 1
                                                }
                                            }
                                        ],
                                        "typeTag": 3
                                    }
                                },
                                {
                                    "index": 110058,
                                    "value": {
                                        "fields": [
                                            {
                                                "name": "attributes",
                                                "type": "uint256",
                                                "value": {
                                                    "current": "801012054026007002004002041011001002000013",
                                                    "prev": "0",
                                                    "typeTag": 1
                                                }
                                            },
                                            {
                                                "name": "mlbGameId",
                                                "type": "uint256",
                                                "value": {
                                                    "current": "563402",
                                                    "prev": "0",
                                                    "typeTag": 1
                                                }
                                            },
                                            {
                                                "name": "mlbPlayerId",
                                                "type": "uint256",
                                                "value": {
                                                    "current": "448855",
                                                    "prev": "0",
                                                    "typeTag": 1
                                                }
                                            },
                                            {
                                                "name": "assetDetails",
                                                "type": "uint256",
                                                "value": {
                                                    "current": "21153919574226492372381688292100",
                                                    "prev": "0",
                                                    "typeTag": 1
                                                }
                                            }
                                        ],
                                        "typeTag": 3
                                    }
                                }
                            ],
                            "typeTag": 2
                        }
                    },
                    {
                        "name": "tokenOwner",
                        "type": "mapping(uint256 => address)",
                        "value": {
                            "pairs": [
                                {
                                    "key": "110055",
                                    "value": {
                                        "current": "0x5940229e55a3a2d58a35d36da3c986a2a6e3987d",
                                        "prev": "0x0000000000000000000000000000000000000000",
                                        "typeTag": 1
                                    }
                                },
                                {
                                    "key": "110056",
                                    "value": {
                                        "current": "0x66cf4459e61e8c8d36f6b398290742ebc37957aa",
                                        "prev": "0x0000000000000000000000000000000000000000",
                                        "typeTag": 1
                                    }
                                },
                                {
                                    "key": "110057",
                                    "value": {
                                        "current": "0x66cf4459e61e8c8d36f6b398290742ebc37957aa",
                                        "prev": "0x0000000000000000000000000000000000000000",
                                        "typeTag": 1
                                    }
                                },
                                {
                                    "key": "110058",
                                    "value": {
                                        "current": "0x66cf4459e61e8c8d36f6b398290742ebc37957aa",
                                        "prev": "0x0000000000000000000000000000000000000000",
                                        "typeTag": 1
                                    }
                                }
                            ],
                            "typeTag": 4
                        }
                    }
                ]
            },
            {
                "address": "0xaa86bb5ce320e7e425af0caf988f2c3a5e0b8338",
                "erc": "",
                "slots": [
                    {
                        "current": "0x0000000000000000000000000000000000000000000000000000000000000001",
                        "key": "0x401968ff42a154441da5f6c4c935ac46b8671f0e062baaa62a7545ba53be63e2",
                        "prev": "0x0000000000000000000000000000000000000000000000000000000000000000"
                    },
                    {
                        "current": "0x0000000000000000000000000000000000000000000000000000000000000001",
                        "key": "0x401968ff42a154441da5f6c4c935ac46b8671f0e062baaa62a7545ba53be63e8",
                        "prev": "0x0000000000000000000000000000000000000000000000000000000000000000"
                    },
                    {
                        "current": "0x0000000000000000000000000000000000000000000000000000000000000001",
                        "key": "0x401968ff42a154441da5f6c4c935ac46b8671f0e062baaa62a7545ba53be63e4",
                        "prev": "0x0000000000000000000000000000000000000000000000000000000000000000"
                    },
                    {
                        "current": "0x0000000000000000000000000000000000000000000000000000000000000001",
                        "key": "0x401968ff42a154441da5f6c4c935ac46b8671f0e062baaa62a7545ba53be63e6",
                        "prev": "0x0000000000000000000000000000000000000000000000000000000000000000"
                    }
                ],
                "storageVariables": []
            }
        ]
    }
}