{
    "balance_change": {
        "balanceChanges": []
    },
    "profile": {
        "basic_info": {
            "baseFee": "",
            "blockNumber": 8543681,
            "callData": "0x64887334000000000000000000000000000000000000000000000000000000000000008000000000000000000000000000000000000000000000000000000000000001400000000000000000000000000000000000000000000000000000000000825dbf0000000000000000000000000000000000000000000000000000000000000200000000000000000000000000000000000000000000000000000000000000000500740017b803780a4e006100195c0000000000000000000000000000000000000c001737f9ec1f002d44000c1f00000000000000000000000000000000000000120c00530fdc001145c3de5c19580000000000000000000000000000000000005b3b0019200000ff0000004fe54d00000000000000000000000000000000000057080000000000000000000000000000000000000000000000000000000000000000000000000000000000000000000000000000000000000000000000000005000000eb4dfe95f7bd00a800eba5000000000000000000000000000000000000f300e3cf0709e200d4c800f6dd00000000000000000000000000000000000000e1f000c9ef2600efb73d23acf0b2000000000000000000000000000000000000a5c700e6e600f9fe000000ba1cc0000000000000000000000000000000000000b4f8000000000000000000000000000000000000000000000000000000000000000000000000000000000000000000000000000000000000000000000000000500000000000000000000000000000000000000000000000000000000000000000000000000000000000000000000000000000000000000000000000000000001000000000000000000000000000000000000000000000000000000000000000300000000000000000000000000000000000000000000000000000000000000020000000000000000000000000000000000000000000000000000000000000004",
            "debugEnable": true,
            "errorInfo": "",
            "eventCount": 0,
            "feeRecipient": "0x04668ec2f57cc15c381b461b9fedab5d451c8f7f",
            "formatValue": "0",
            "gasLimit": 111252,
            "gasPrice": "15.433254",
            "gasUsed": 61252,
            "intTxnCount": 0,
            "internalRevert": false,
            "internalRevertMessage": "",
            "isContractCreation": false,
            "isFlashloan": false,
            "maxFee": "",
            "nonce": 18451,
            "overwritedBlockNumber": -1,
            "priorityFee": "",
            "receiver": "0xe3e415a7a6c287a95dc68a01ff036828073fd2e6",
            "revertMessage": "",
            "sender": "0xeae89c711c02468dea8ee1ade4fa78b79ac9379a",
            "simulationEnable": true,
            "sourceTxnHash": "0x345f51e99050e3524e5b3fdf585d35625fa896c341056d0e40d7b68234b24308",
            "status": true,
            "timestamp": "2019-09-13T21:34:27Z",
            "transactionFee": "0.000945317674008",
            "txnHash": "0x345f51e99050e3524e5b3fdf585d35625fa896c341056d0e40d7b68234b24308",
            "txnIndex": 30,
            "type": 0,
            "value": "0"
        },
        "fund_flow": [],
        "token_infos": [
            {
                "address": "0xc02aaa39b223fe8d0a0e5c4f27ead9083c756cc2",
                "decimals": 18
            },
            {
                "address": "0xeeeeeeeeeeeeeeeeeeeeeeeeeeeeeeeeeeeeeeee",
                "decimals": 18
            }
        ]
    },
    "address_label": {
        "labels": [
            {
                "address": "0x0000000000000000000000000000000000000001",
                "label": "Precompiled"
            },
            {
                "address": "0x0000000000000000000000000000000000000002",
                "label": "Precompiled"
            },
            {
                "address": "0x0000000000000000000000000000000000000003",
                "label": "Precompiled"
            },
            {
                "address": "0x0000000000000000000000000000000000000004",
                "label": "Precompiled"
            },
            {
                "address": "0xeeeeeeeeeeeeeeeeeeeeeeeeeeeeeeeeeeeeeeee",
                "label": "Ether"
            },
            {
                "address": "0xe3e415a7a6c287a95dc68a01ff036828073fd2e6",
                "label": "ConversionRates"
            }
        ]
    },
    "trace": {
        "accountLabels": null,
        "dataMap": {
            "-1": {
                "invocation": {
                    "address": "0xeae89c711c02468dea8ee1ade4fa78b79ac9379a",
                    "callData": "",
                    "decodedMethod": null,
                    "errorInfo": "",
                    "fromAddress": "",
                    "gasUsed": 0,
                    "id": -1,
                    "methodDecoded": false,
                    "operation": "",
                    "output": "",
                    "revert": false,
                    "revertMessage": "",
                    "selector": "",
                    "status": false,
                    "value": ""
                },
                "nodeType": 0
            },
            "0": {
                "invocation": {
                    "address": "0xe3e415a7a6c287a95dc68a01ff036828073fd2e6",
                    "callData": "0x000000000000000000000000000000000000000000000000000000000000008000000000000000000000000000000000000000000000000000000000000001400000000000000000000000000000000000000000000000000000000000825dbf0000000000000000000000000000000000000000000000000000000000000200000000000000000000000000000000000000000000000000000000000000000500740017b803780a4e006100195c0000000000000000000000000000000000000c001737f9ec1f002d44000c1f00000000000000000000000000000000000000120c00530fdc001145c3de5c19580000000000000000000000000000000000005b3b0019200000ff0000004fe54d00000000000000000000000000000000000057080000000000000000000000000000000000000000000000000000000000000000000000000000000000000000000000000000000000000000000000000005000000eb4dfe95f7bd00a800eba5000000000000000000000000000000000000f300e3cf0709e200d4c800f6dd00000000000000000000000000000000000000e1f000c9ef2600efb73d23acf0b2000000000000000000000000000000000000a5c700e6e600f9fe000000ba1cc0000000000000000000000000000000000000b4f8000000000000000000000000000000000000000000000000000000000000000000000000000000000000000000000000000000000000000000000000000500000000000000000000000000000000000000000000000000000000000000000000000000000000000000000000000000000000000000000000000000000001000000000000000000000000000000000000000000000000000000000000000300000000000000000000000000000000000000000000000000000000000000020000000000000000000000000000000000000000000000000000000000000004",
                    "decodedMethod": {
                        "callParams": [
                            {
                                "name": "buy",
                                "type": "bytes14[]",
                                "value": [
                                    "0x00740017b803780a4e006100195c",
                                    "0x0c001737f9ec1f002d44000c1f00",
                                    "0x120c00530fdc001145c3de5c1958",
                                    "0x5b3b0019200000ff0000004fe54d",
                                    "0x5708000000000000000000000000"
                                ]
                            },
                            {
                                "name": "sell",
                                "type": "bytes14[]",
                                "value": [
                                    "0x000000eb4dfe95f7bd00a800eba5",
                                    "0xf300e3cf0709e200d4c800f6dd00",
                                    "0xe1f000c9ef2600efb73d23acf0b2",
                                    "0xa5c700e6e600f9fe000000ba1cc0",
                                    "0xb4f8000000000000000000000000"
                                ]
                            },
                            {
                                "name": "blockNumber",
                                "type": "uint256",
                                "value": "8,543,679"
                            },
                            {
                                "name": "indices",
                                "type": "uint256[]",
                                "value": [
                                    "0",
                                    "1",
                                    "3",
                                    "2",
                                    "4"
                                ]
                            }
                        ],
                        "constructorArguments": "",
                        "name": "setCompactData",
                        "returnParams": [],
                        "signature": "setCompactData(bytes14[],bytes14[],uint256,uint256[])"
                    },
                    "errorInfo": "",
                    "fromAddress": "0xeae89c711c02468dea8ee1ade4fa78b79ac9379a",
                    "gasUsed": 61252,
                    "id": 0,
                    "methodDecoded": true,
                    "operation": "CALL",
                    "output": "",
                    "revert": false,
                    "revertMessage": "",
                    "selector": "0x64887334",
                    "status": true,
                    "value": "0"
                },
                "nodeType": 0
            }
        },
        "gasFlame": [
            {
                "children": [
                    {
                        "children": [
                            {
                                "children": [],
                                "depth": 0,
                                "name": "Initial Gas",
                                "value": 30360
                            },
                            {
                                "children": [],
                                "depth": 0,
                                "name": "Executed Gas",
                                "value": 30892
                            }
                        ],
                        "depth": -1,
                        "name": "Actual Gas Used",
                        "value": 61252
                    },
                    {
                        "children": [],
                        "depth": -1,
                        "name": "Refunded Gas",
                        "value": 0
                    }
                ],
                "depth": -2,
                "name": "Total Gas",
                "value": 61252
            }
        ],
        "isConfirmed": true,
        "mainTrace": [
            {
                "children": [
                    {
                        "children": [],
                        "depth": 0,
                        "id": 0,
                        "order": 0
                    }
                ],
                "depth": -1,
                "id": -1,
                "order": -1
            }
        ],
        "mainTraceNodeCount": 1,
        "parentIdMap": {
            "0": -1
        },
        "tidyTrace": [
            {
                "children": [
                    {
                        "children": [],
                        "depth": 0,
                        "id": 0,
                        "order": 0
                    }
                ],
                "depth": -1,
                "id": -1,
                "order": -1
            }
        ],
        "tidyTraceNodeCount": 1
    },
    "state_change": {
        "stateChanges": [
            {
                "address": "0xe3e415a7a6c287a95dc68a01ff036828073fd2e6",
                "erc": "",
                "slots": [
                    {
                        "current": "0x00825dbf000000eb4dfe95f7bd00a800eba500740017b803780a4e006100195c",
                        "key": "0xdf6966c971051c3d54ec59162606531493a51404a002842f56009d7e5cf4a8c7",
                        "prev": "0x00825dbd000000eb4dff95f7bd00a800eba500730017b80378094d006100185c"
                    },
                    {
                        "current": "0x00825dbff300e3cf0709e200d4c800f6dd000c001737f9ec1f002d44000c1f00",
                        "key": "0xdf6966c971051c3d54ec59162606531493a51404a002842f56009d7e5cf4a8c8",
                        "prev": "0x00825dbdf300e3cf0708e200d4c800f7e2000b001736f9ee1f002d44000c1a00"
                    },
                    {
                        "current": "0x00825dbfe1f000c9ef2600efb73d23acf0b2120c00530fdc001145c3de5c1958",
                        "key": "0xdf6966c971051c3d54ec59162606531493a51404a002842f56009d7e5cf4a8ca",
                        "prev": "0x00825dbde2f500caef2600efb73d23acf0b7110800530fdc001145c3de5c1951"
                    },
                    {
                        "current": "0x00825dbfa5c700e6e600f9fe000000ba1cc05b3b0019200000ff0000004fe54d",
                        "key": "0xdf6966c971051c3d54ec59162606531493a51404a002842f56009d7e5cf4a8c9",
                        "prev": "0x00825dbda4c700e8e600f9fd000000bb1cc05c3b0019200000ff0000004ee44d"
                    },
                    {
                        "current": "0x00825dbfb4f80000000000000000000000005708000000000000000000000000",
                        "key": "0xdf6966c971051c3d54ec59162606531493a51404a002842f56009d7e5cf4a8cb",
                        "prev": "0x00825dbdb4ca000000000000000000000000572d000000000000000000000000"
                    }
                ],
                "storageVariables": [
                    {
                        "name": "tokenRatesCompactData",
                        "type": "bytes32[]",
                        "value": {
                            "elemType": "bytes32",
                            "elems": [
                                {
                                    "index": 0,
                                    "value": {
                                        "current": "0x00825dbf000000eb4dfe95f7bd00a800eba500740017b803780a4e006100195c",
                                        "prev": "0x00825dbd000000eb4dff95f7bd00a800eba500730017b80378094d006100185c",
                                        "typeTag": 1
                                    }
                                },
                                {
                                    "index": 1,
                                    "value": {
                                        "current": "0x00825dbff300e3cf0709e200d4c800f6dd000c001737f9ec1f002d44000c1f00",
                                        "prev": "0x00825dbdf300e3cf0708e200d4c800f7e2000b001736f9ee1f002d44000c1a00",
                                        "typeTag": 1
                                    }
                                },
                                {
                                    "index": 2,
                                    "value": {
                                        "current": "0x00825dbfa5c700e6e600f9fe000000ba1cc05b3b0019200000ff0000004fe54d",
                                        "prev": "0x00825dbda4c700e8e600f9fd000000bb1cc05c3b0019200000ff0000004ee44d",
                                        "typeTag": 1
                                    }
                                },
                                {
                                    "index": 3,
                                    "value": {
                                        "current": "0x00825dbfe1f000c9ef2600efb73d23acf0b2120c00530fdc001145c3de5c1958",
                                        "prev": "0x00825dbde2f500caef2600efb73d23acf0b7110800530fdc001145c3de5c1951",
                                        "typeTag": 1
                                    }
                                },
                                {
                                    "index": 4,
                                    "value": {
                                        "current": "0x00825dbfb4f80000000000000000000000005708000000000000000000000000",
                                        "prev": "0x00825dbdb4ca000000000000000000000000572d000000000000000000000000",
                                        "typeTag": 1
                                    }
                                }
                            ],
                            "typeTag": 2
                        }
                    }
                ]
            }
        ]
    }
}