{
    "balance_change": {
        "balanceChanges": [
            {
                "account": "0x71a3bfe8f5d56f42b39f3f218edcac6311b2f38f",
                "assets": [
                    {
                        "address": "0xa0b86991c6218b36c1d19d4a2e9eb0ce3606eb48",
                        "amount": "2,237.45",
                        "iconUrl": "https://assets.blocksec.com/icon/0347a86cc07dbd03fdc5db01a4e5ac7e1217f90e0b6e4bb0f75cbcca09160989.png",
                        "isERC1155": false,
                        "isERC721": false,
                        "sign": false,
                        "value": "2237.0025100000000493"
                    }
                ]
            },
            {
                "account": "0x10895bff5fda3cb160e60f4ffa122924658b7435",
                "assets": [
                    {
                        "address": "0xa0b86991c6218b36c1d19d4a2e9eb0ce3606eb48",
                        "amount": "2,237.45",
                        "iconUrl": "https://assets.blocksec.com/icon/0347a86cc07dbd03fdc5db01a4e5ac7e1217f90e0b6e4bb0f75cbcca09160989.png",
                        "isERC1155": false,
                        "isERC721": false,
                        "sign": true,
                        "value": "2237.0025100000000493"
                    }
                ]
            }
        ]
    },
    "profile": {
        "basic_info": {
            "baseFee": "12.172346544",
            "blockNumber": 17570162,
            "callData": "0x55a2ba6800000000000000000000000010895bff5fda3cb160e60f4ffa122924658b7435000000000000000000000000a0b86991c6218b36c1d19d4a2e9eb0ce3606eb4800000000000000000000000000000000000000000000000000000000855cc71000000000000000000000000000000000000000000000000000000000197b961a",
            "debugEnable": true,
            "errorInfo": "",
            "eventCount": 2,
            "feeRecipient": "0x6d2e03b7effeae98bd302a9f836d0d6ab0002766",
            "formatValue": "0",
            "gasLimit": 132753,
            "gasPrice": "12.216717157",
            "gasUsed": 87835,
            "intTxnCount": 2,
            "internalRevert": false,
            "internalRevertMessage": "",
            "isContractCreation": false,
            "isFlashloan": false,
            "maxFee": "13.459378802",
            "nonce": 16983,
            "overwritedBlockNumber": -1,
            "priorityFee": "0.044370613",
            "receiver": "0xbe9a129909ebcb954bc065536d2bfafbd170d27a",
            "revertMessage": "",
            "sender": "0x71a3bfe8f5d56f42b39f3f218edcac6311b2f38f",
            "simulationEnable": true,
            "sourceTxnHash": "0x35489be1bba4d57759e99584b7e37acf2af520caa82cc76ceb63afb757325977",
            "status": true,
            "timestamp": "2023-06-27T10:38:11Z",
            "transactionFee": "0.001073055351485095",
            "txnHash": "0x35489be1bba4d57759e99584b7e37acf2af520caa82cc76ceb63afb757325977",
            "txnIndex": 167,
            "type": 2,
            "value": "0"
        },
        "fund_flow": [
            {
                "amount": "2,237.45",
                "from": "0x71a3bfe8f5d56f42b39f3f218edcac6311b2f38f",
                "id": 1,
                "isERC1155": false,
                "isERC721": false,
                "isReverted": false,
                "order": 1,
                "to": "0x10895bff5fda3cb160e60f4ffa122924658b7435",
                "token": "0xa0b86991c6218b36c1d19d4a2e9eb0ce3606eb48"
            }
        ],
        "token_infos": [
            {
                "address": "0xa0b86991c6218b36c1d19d4a2e9eb0ce3606eb48",
                "decimals": 6
            },
            {
                "address": "0xc02aaa39b223fe8d0a0e5c4f27ead9083c756cc2",
                "decimals": 18
            },
            {
                "address": "0xeeeeeeeeeeeeeeeeeeeeeeeeeeeeeeeeeeeeeeee",
                "decimals": 18
            }
        ]
    },
    "address_label": {
        "labels": [
            {
                "address": "0xa0b86991c6218b36c1d19d4a2e9eb0ce3606eb48",
                "label": "Circle: USDC Token"
            },
            {
                "address": "0x0000000000000000000000000000000000000001",
                "label": "Precompiled"
            },
            {
                "address": "0x0000000000000000000000000000000000000002",
                "label": "Precompiled"
            },
            {
                "address": "0x0000000000000000000000000000000000000003",
                "label": "Precompiled"
            },
            {
                "address": "0x0000000000000000000000000000000000000004",
                "label": "Precompiled"
            },
            {
                "address": "0xeeeeeeeeeeeeeeeeeeeeeeeeeeeeeeeeeeeeeeee",
                "label": "Ether"
            },
            {
                "address": "0xa2327a938febf5fec13bacfb16ae10ecbc4cbdcf",
                "label": "FiatTokenV2_1"
            },
            {
                "address": "0xbe9a129909ebcb954bc065536d2bfafbd170d27a",
                "label": "TransferRegistry"
            }
        ]
    },
    "trace": {
        "accountLabels": null,
        "dataMap": {
            "-1": {
                "invocation": {
                    "address": "0x71a3bfe8f5d56f42b39f3f218edcac6311b2f38f",
                    "callData": "",
                    "decodedMethod": null,
                    "errorInfo": "",
                    "fromAddress": "",
                    "gasUsed": 0,
                    "id": -1,
                    "methodDecoded": false,
                    "operation": "",
                    "output": "",
                    "revert": false,
                    "revertMessage": "",
                    "selector": "",
                    "status": false,
                    "value": ""
                },
                "nodeType": 0
            },
            "0": {
                "invocation": {
                    "address": "0xbe9a129909ebcb954bc065536d2bfafbd170d27a",
                    "callData": "0x00000000000000000000000010895bff5fda3cb160e60f4ffa122924658b7435000000000000000000000000a0b86991c6218b36c1d19d4a2e9eb0ce3606eb4800000000000000000000000000000000000000000000000000000000855cc71000000000000000000000000000000000000000000000000000000000197b961a",
                    "decodedMethod": {
                        "callParams": [
                            {
                                "name": "recipient",
                                "type": "address",
                                "value": "0x10895bff5fda3cb160e60f4ffa122924658b7435"
                            },
                            {
                                "name": "erc20",
                                "type": "address",
                                "value": "0xa0b86991c6218b36c1d19d4a2e9eb0ce3606eb48"
                            },
                            {
                                "name": "amount",
                                "type": "uint256",
                                "value": "2,237,450,000"
                            },
                            {
                                "name": "salt",
                                "type": "uint256",
                                "value": "427,529,754"
                            }
                        ],
                        "constructorArguments": "",
                        "name": "transferERC20",
                        "returnParams": [],
                        "signature": "transferERC20(address,address,uint256,uint256)"
                    },
                    "errorInfo": "",
                    "fromAddress": "0x71a3bfe8f5d56f42b39f3f218edcac6311b2f38f",
                    "gasUsed": 87835,
                    "id": 0,
                    "methodDecoded": true,
                    "operation": "CALL",
                    "output": "",
                    "revert": false,
                    "revertMessage": "",
                    "selector": "0x55a2ba68",
                    "status": true,
                    "value": "0"
                },
                "nodeType": 0
            },
            "1": {
                "event": {
                    "contract": "0xbe9a129909ebcb954bc065536d2bfafbd170d27a",
                    "decodedLog": {
                        "name": "LogRegisteredTransfer",
                        "params": [
                            {
                                "name": "recipient",
                                "type": "address",
                                "value": "0x10895bff5fda3cb160e60f4ffa122924658b7435"
                            },
                            {
                                "name": "token",
                                "type": "address",
                                "value": "0xa0b86991c6218b36c1d19d4a2e9eb0ce3606eb48"
                            },
                            {
                                "name": "amount",
                                "type": "uint256",
                                "value": "2,237,450,000"
                            },
                            {
                                "name": "salt",
                                "type": "uint256",
                                "value": "427,529,754"
                            }
                        ],
                        "signature": "LogRegisteredTransfer(address,address,uint256,uint256)"
                    },
                    "id": 1,
                    "logData": "0x00000000000000000000000010895bff5fda3cb160e60f4ffa122924658b7435000000000000000000000000a0b86991c6218b36c1d19d4a2e9eb0ce3606eb4800000000000000000000000000000000000000000000000000000000855cc71000000000000000000000000000000000000000000000000000000000197b961a",
                    "logDecoded": true,
                    "operation": "EVENT",
                    "revert": false,
                    "status": true,
                    "topics": [
                        "0x36c96ccc320eab9b6da1de6cc1e8ebc52a51cb114710b9c7db204cdad3067ce1"
                    ]
                },
                "nodeType": 1
            },
            "2": {
                "invocation": {
                    "address": "0xa0b86991c6218b36c1d19d4a2e9eb0ce3606eb48",
                    "callData": "0x00000000000000000000000071a3bfe8f5d56f42b39f3f218edcac6311b2f38f00000000000000000000000010895bff5fda3cb160e60f4ffa122924658b743500000000000000000000000000000000000000000000000000000000855cc710",
                    "decodedMethod": {
                        "callParams": [
                            {
                                "name": "from",
                                "type": "address",
                                "value": "0x71a3bfe8f5d56f42b39f3f218edcac6311b2f38f"
                            },
                            {
                                "name": "to",
                                "type": "address",
                                "value": "0x10895bff5fda3cb160e60f4ffa122924658b7435"
                            },
                            {
                                "decimalAvailable": true,
                                "name": "value",
                                "type": "uint256",
                                "value": "2,237,450,000"
                            }
                        ],
                        "constructorArguments": "",
                        "name": "transferFrom",
                        "returnParams": [
                            {
                                "name": "",
                                "type": "bool",
                                "value": true
                            }
                        ],
                        "signature": "transferFrom(address,address,uint256)"
                    },
                    "errorInfo": "",
                    "fromAddress": "0xbe9a129909ebcb954bc065536d2bfafbd170d27a",
                    "gasUsed": 34892,
                    "id": 2,
                    "methodDecoded": true,
                    "operation": "CALL",
                    "output": "0x0000000000000000000000000000000000000000000000000000000000000001",
                    "revert": false,
                    "revertMessage": "",
                    "selector": "0x23b872dd",
                    "status": true,
                    "value": "0"
                },
                "nodeType": 0
            },
            "3": {
                "invocation": {
                    "address": "0xa2327a938febf5fec13bacfb16ae10ecbc4cbdcf",
                    "callData": "0x00000000000000000000000071a3bfe8f5d56f42b39f3f218edcac6311b2f38f00000000000000000000000010895bff5fda3cb160e60f4ffa122924658b743500000000000000000000000000000000000000000000000000000000855cc710",
                    "decodedMethod": {
                        "callParams": [
                            {
                                "name": "from",
                                "type": "address",
                                "value": "0x71a3bfe8f5d56f42b39f3f218edcac6311b2f38f"
                            },
                            {
                                "name": "to",
                                "type": "address",
                                "value": "0x10895bff5fda3cb160e60f4ffa122924658b7435"
                            },
                            {
                                "decimalAvailable": true,
                                "name": "value",
                                "type": "uint256",
                                "value": "2,237,450,000"
                            }
                        ],
                        "constructorArguments": "",
                        "name": "transferFrom",
                        "returnParams": [
                            {
                                "name": "",
                                "type": "bool",
                                "value": true
                            }
                        ],
                        "signature": "transferFrom(address,address,uint256)"
                    },
                    "errorInfo": "",
                    "fromAddress": "0xa0b86991c6218b36c1d19d4a2e9eb0ce3606eb48",
                    "gasUsed": 27597,
                    "id": 3,
                    "methodDecoded": true,
                    "operation": "DELEGATECALL",
                    "output": "0x0000000000000000000000000000000000000000000000000000000000000001",
                    "revert": false,
                    "revertMessage": "",
                    "selector": "0x23b872dd",
                    "status": true,
                    "value": "0"
                },
                "nodeType": 0
            },
            "4": {
                "event": {
                    "contract": "0xa0b86991c6218b36c1d19d4a2e9eb0ce3606eb48",
                    "decodedLog": {
                        "name": "Transfer",
                        "params": [
                            {
                                "name": "from",
                                "type": "address",
                                "value": "0x71a3bfe8f5d56f42b39f3f218edcac6311b2f38f"
                            },
                            {
                                "name": "to",
                                "type": "address",
                                "value": "0x10895bff5fda3cb160e60f4ffa122924658b7435"
                            },
                            {
                                "decimalAvailable": true,
                                "name": "value",
                                "type": "uint256",
                                "value": "2,237,450,000"
                            }
                        ],
                        "signature": "Transfer(address,address,uint256)"
                    },
                    "id": 4,
                    "logData": "0x00000000000000000000000000000000000000000000000000000000855cc710",
                    "logDecoded": true,
                    "operation": "EVENT",
                    "revert": false,
                    "status": true,
                    "topics": [
                        "0xddf252ad1be2c89b69c2b068fc378daa952ba7f163c4a11628f55a4df523b3ef",
                        "0x00000000000000000000000071a3bfe8f5d56f42b39f3f218edcac6311b2f38f",
                        "0x00000000000000000000000010895bff5fda3cb160e60f4ffa122924658b7435"
                    ]
                },
                "nodeType": 1
            }
        },
        "gasFlame": [
            {
                "children": [
                    {
                        "children": [
                            {
                                "children": [],
                                "depth": 0,
                                "name": "Initial Gas",
                                "value": 22152
                            },
                            {
                                "children": [
                                    {
                                        "children": [
                                            {
                                                "children": [],
                                                "depth": 2,
                                                "name": "transferFrom",
                                                "value": 27597
                                            }
                                        ],
                                        "depth": 1,
                                        "name": "transferFrom",
                                        "value": 34892
                                    }
                                ],
                                "depth": 0,
                                "name": "Executed Gas",
                                "value": 65683
                            }
                        ],
                        "depth": -1,
                        "name": "Actual Gas Used",
                        "value": 87835
                    },
                    {
                        "children": [],
                        "depth": -1,
                        "name": "Refunded Gas",
                        "value": 0
                    }
                ],
                "depth": -2,
                "name": "Total Gas",
                "value": 87835
            }
        ],
        "isConfirmed": true,
        "mainTrace": [
            {
                "children": [
                    {
                        "children": [
                            {
                                "children": [],
                                "depth": 1,
                                "id": 1,
                                "order": 1
                            },
                            {
                                "children": [
                                    {
                                        "children": [
                                            {
                                                "children": [],
                                                "depth": 3,
                                                "id": 4,
                                                "order": 4
                                            }
                                        ],
                                        "depth": 2,
                                        "id": 3,
                                        "order": 3
                                    }
                                ],
                                "depth": 1,
                                "id": 2,
                                "order": 2
                            }
                        ],
                        "depth": 0,
                        "id": 0,
                        "order": 0
                    }
                ],
                "depth": -1,
                "id": -1,
                "order": -1
            }
        ],
        "mainTraceNodeCount": 5,
        "parentIdMap": {
            "0": -1,
            "1": 0,
            "2": 0,
            "3": 2,
            "4": 3
        },
        "tidyTrace": [
            {
                "children": [
                    {
                        "children": [
                            {
                                "children": [],
                                "depth": 1,
                                "id": 1,
                                "order": 1
                            },
                            {
                                "children": [
                                    {
                                        "children": [
                                            {
                                                "children": [],
                                                "depth": 3,
                                                "id": 4,
                                                "order": 4
                                            }
                                        ],
                                        "depth": 2,
                                        "id": 3,
                                        "order": 3
                                    }
                                ],
                                "depth": 1,
                                "id": 2,
                                "order": 2
                            }
                        ],
                        "depth": 0,
                        "id": 0,
                        "order": 0
                    }
                ],
                "depth": -1,
                "id": -1,
                "order": -1
            }
        ],
        "tidyTraceNodeCount": 5
    },
    "state_change": {
        "stateChanges": [
            {
                "address": "0xa0b86991c6218b36c1d19d4a2e9eb0ce3606eb48",
                "erc": "ERC-20",
                "slots": [
                    {
                        "current": "0x0000000000000000000000000000000000000000000000000000085b393e3909",
                        "key": "0xda399a86bedfeb910ea38341d7b22e7367847a1033747ed7278fc3d124373722",
                        "prev": "0x0000000000000000000000000000000000000000000000000000085bbe9b0019"
                    },
                    {
                        "current": "0x00000000000000000000000000000000000000000000000000000000c16d0f30",
                        "key": "0xab6dca480486a8e754d1539621b56ff529742bc6a94d1ed391cab61c65c0b61c",
                        "prev": "0x000000000000000000000000000000000000000000000000000000003c104820"
                    },
                    {
                        "current": "0xfffffffffffffffffffffffffffffffffffffffffffffffffffe99255ab80143",
                        "key": "0x78af11c859fb53bf7073f3b5a8b70ed498869d2e6b3a0b85e25b16d668e07478",
                        "prev": "0xfffffffffffffffffffffffffffffffffffffffffffffffffffe9925e014c853"
                    }
                ],
                "storageVariables": [
                    {
                        "name": "balances",
                        "type": "mapping(address => uint256)",
                        "value": {
                            "pairs": [
                                {
                                    "key": "0x10895bff5fda3cb160e60f4ffa122924658b7435",
                                    "value": {
                                        "current": "3245150000",
                                        "prev": "1007700000",
                                        "typeTag": 1
                                    }
                                },
                                {
                                    "key": "0x71a3bfe8f5d56f42b39f3f218edcac6311b2f38f",
                                    "value": {
                                        "current": "9187895425289",
                                        "prev": "9190132875289",
                                        "typeTag": 1
                                    }
                                }
                            ],
                            "typeTag": 4
                        }
                    },
                    {
                        "name": "allowed",
                        "type": "mapping(address => mapping(address => uint256))",
                        "value": {
                            "pairs": [
                                {
                                    "key": "0x71a3bfe8f5d56f42b39f3f218edcac6311b2f38f",
                                    "value": {
                                        "pairs": [
                                            {
                                                "key": "0xbe9a129909ebcb954bc065536d2bfafbd170d27a",
                                                "value": {
                                                    "current": "115792089237316195423570985008687907853269984665640564039457583613348891066691",
                                                    "prev": "115792089237316195423570985008687907853269984665640564039457583613351128516691",
                                                    "typeTag": 1
                                                }
                                            }
                                        ],
                                        "typeTag": 4
                                    }
                                }
                            ],
                            "typeTag": 4
                        }
                    }
                ]
            },
            {
                "address": "0xbe9a129909ebcb954bc065536d2bfafbd170d27a",
                "erc": "",
                "slots": [
                    {
                        "current": "0x0000000000000000000000000000000000000000000000000000000000000001",
                        "key": "0xeab27b7911a04ebd556548a2eb1e64e6bd7436a101c2d18f57f005857089e657",
                        "prev": "0x0000000000000000000000000000000000000000000000000000000000000000"
                    }
                ],
                "storageVariables": [
                    {
                        "name": "verifiedFact",
                        "type": "mapping(bytes32 => bool)",
                        "value": {
                            "pairs": [
                                {
                                    "key": "0x01cecaa461882896e28674bdfe5086ffea3da8f2832de8b5aa9af734c51138ee",
                                    "value": {
                                        "current": "true",
                                        "prev": "false",
                                        "typeTag": 1
                                    }
                                }
                            ],
                            "typeTag": 4
                        }
                    }
                ]
            }
        ]
    }
}