{
    "balance_change": {
        "balanceChanges": []
    },
    "profile": {
        "basic_info": {
            "baseFee": "",
            "blockNumber": 5494622,
            "callData": "0xef3435880000000000000000000000000000000000000000000000000000003cfdbf240000000000000000000000000000000000000000000000000006002a5a1464c980000000000000000000000000000000000000000000000000000000000000271000000000000000000000000000000000000000000000000000000000cdf2c58b00000000000000000000000000000000000000000000000000000029e8d60800000000000000000000000000000000000000000000000000000000000000000a00000000000000000000000000000000000000000000000000038d7ea4c68000000000000000000000000000000000000000000000000000000f3c88d4cb1a050000000000000000000000002fa32a39fc1c399e0cc7b2935868f5165de7ce9700000000000000000000000000000000000000000000000000000000000000000000000000000000000000009e0a8715fdbae181e92d2149bb00c0da3b381f7f000000000000000000000000a494223e66bf982e399681b85c80b63a7fa45a1b000000000000000000000000000000000000000000000000000000000000001b000000000000000000000000000000000000000000000000000000000000001ba6d04abb4ebf8e9f060b2d74ec20ca5a84d459f4a3badd2c09008a754856d08d246d4910a3bdf1b8d74905c35358852dd1704ff09e332a4bd8eeaf7b73a5eb71b34b78830e270ef4c44c260d6c254484e54101c36ee80ba376c20aafe9d521b11aaaa021c00bc3a118878551c95a267a2d9455baf75680996ae76207b15781bb",
            "debugEnable": true,
            "errorInfo": "",
            "eventCount": 0,
            "feeRecipient": "0x829bd824b016326a401d083b33d092293333a830",
            "formatValue": "0",
            "gasLimit": 410000,
            "gasPrice": "4",
            "gasUsed": 157132,
            "intTxnCount": 2,
            "internalRevert": false,
            "internalRevertMessage": "",
            "isContractCreation": false,
            "isFlashloan": false,
            "maxFee": "",
            "nonce": 1084082,
            "overwritedBlockNumber": -1,
            "priorityFee": "",
            "receiver": "0x2a0c0dbecc7e4d658f48e01e3fa353f44050c208",
            "revertMessage": "",
            "sender": "0xceceaa8edc0830c7cec497e33bb3a3c28dd55a32",
            "simulationEnable": true,
            "sourceTxnHash": "0x352e0d12b701806bc8564b29b8540d3cd940efdf6c7a0a427777e3892a37d1a0",
            "status": true,
            "timestamp": "2018-04-24T00:32:21Z",
            "transactionFee": "0.000628528",
            "txnHash": "0x352e0d12b701806bc8564b29b8540d3cd940efdf6c7a0a427777e3892a37d1a0",
            "txnIndex": 33,
            "type": 0,
            "value": "0"
        },
        "fund_flow": [],
        "token_infos": [
            {
                "address": "0xc02aaa39b223fe8d0a0e5c4f27ead9083c756cc2",
                "decimals": 18
            },
            {
                "address": "0xeeeeeeeeeeeeeeeeeeeeeeeeeeeeeeeeeeeeeeee",
                "decimals": 18
            }
        ]
    },
    "address_label": {
        "labels": [
            {
                "address": "0x0000000000000000000000000000000000000004",
                "label": "Precompiled"
            },
            {
                "address": "0xeeeeeeeeeeeeeeeeeeeeeeeeeeeeeeeeeeeeeeee",
                "label": "Ether"
            },
            {
                "address": "0x2fa32a39fc1c399e0cc7b2935868f5165de7ce97",
                "label": "PayFair: Old Token"
            },
            {
                "address": "0x0000000000000000000000000000000000000000",
                "label": "Null Address"
            },
            {
                "address": "0x2a0c0dbecc7e4d658f48e01e3fa353f44050c208",
                "label": "IDEX"
            },
            {
                "address": "0x0000000000000000000000000000000000000001",
                "label": "Precompiled"
            },
            {
                "address": "0x0000000000000000000000000000000000000002",
                "label": "Precompiled"
            },
            {
                "address": "0x0000000000000000000000000000000000000003",
                "label": "Precompiled"
            }
        ]
    },
    "trace": {
        "accountLabels": null,
        "dataMap": {
            "-1": {
                "invocation": {
                    "address": "0xceceaa8edc0830c7cec497e33bb3a3c28dd55a32",
                    "callData": "",
                    "decodedMethod": null,
                    "errorInfo": "",
                    "fromAddress": "",
                    "gasUsed": 0,
                    "id": -1,
                    "methodDecoded": false,
                    "operation": "",
                    "output": "",
                    "revert": false,
                    "revertMessage": "",
                    "selector": "",
                    "status": false,
                    "value": ""
                },
                "nodeType": 0
            },
            "0": {
                "invocation": {
                    "address": "0x2a0c0dbecc7e4d658f48e01e3fa353f44050c208",
                    "callData": "0x0000000000000000000000000000000000000000000000000000003cfdbf240000000000000000000000000000000000000000000000000006002a5a1464c980000000000000000000000000000000000000000000000000000000000000271000000000000000000000000000000000000000000000000000000000cdf2c58b00000000000000000000000000000000000000000000000000000029e8d60800000000000000000000000000000000000000000000000000000000000000000a00000000000000000000000000000000000000000000000000038d7ea4c68000000000000000000000000000000000000000000000000000000f3c88d4cb1a050000000000000000000000002fa32a39fc1c399e0cc7b2935868f5165de7ce9700000000000000000000000000000000000000000000000000000000000000000000000000000000000000009e0a8715fdbae181e92d2149bb00c0da3b381f7f000000000000000000000000a494223e66bf982e399681b85c80b63a7fa45a1b000000000000000000000000000000000000000000000000000000000000001b000000000000000000000000000000000000000000000000000000000000001ba6d04abb4ebf8e9f060b2d74ec20ca5a84d459f4a3badd2c09008a754856d08d246d4910a3bdf1b8d74905c35358852dd1704ff09e332a4bd8eeaf7b73a5eb71b34b78830e270ef4c44c260d6c254484e54101c36ee80ba376c20aafe9d521b11aaaa021c00bc3a118878551c95a267a2d9455baf75680996ae76207b15781bb",
                    "decodedMethod": {
                        "callParams": [
                            {
                                "name": "tradeValues",
                                "type": "uint256[8]",
                                "value": [
                                    "261,955,200,000",
                                    "432,392,130,605,140,352",
                                    "10,000",
                                    "3,455,239,563",
                                    "180,000,000,000",
                                    "10",
                                    "1,000,000,000,000,000",
                                    "4,288,683,033,958,917"
                                ]
                            },
                            {
                                "name": "tradeAddresses",
                                "type": "address[4]",
                                "value": [
                                    "0x2fa32a39fc1c399e0cc7b2935868f5165de7ce97",
                                    "0x0000000000000000000000000000000000000000",
                                    "0x9e0a8715fdbae181e92d2149bb00c0da3b381f7f",
                                    "0xa494223e66bf982e399681b85c80b63a7fa45a1b"
                                ]
                            },
                            {
                                "name": "v",
                                "type": "uint8[2]",
                                "value": [
                                    "27",
                                    "27"
                                ]
                            },
                            {
                                "name": "rs",
                                "type": "bytes32[4]",
                                "value": [
                                    "0xa6d04abb4ebf8e9f060b2d74ec20ca5a84d459f4a3badd2c09008a754856d08d",
                                    "0x246d4910a3bdf1b8d74905c35358852dd1704ff09e332a4bd8eeaf7b73a5eb71",
                                    "0xb34b78830e270ef4c44c260d6c254484e54101c36ee80ba376c20aafe9d521b1",
                                    "0x1aaaa021c00bc3a118878551c95a267a2d9455baf75680996ae76207b15781bb"
                                ]
                            }
                        ],
                        "constructorArguments": "",
                        "name": "trade",
                        "returnParams": [
                            {
                                "name": "success",
                                "type": "bool",
                                "value": false
                            }
                        ],
                        "signature": "trade(uint256[8],address[4],uint8[2],bytes32[4])"
                    },
                    "errorInfo": "",
                    "fromAddress": "0xceceaa8edc0830c7cec497e33bb3a3c28dd55a32",
                    "gasUsed": 157132,
                    "id": 0,
                    "methodDecoded": true,
                    "operation": "CALL",
                    "output": "0x0000000000000000000000000000000000000000000000000000000000000000",
                    "revert": false,
                    "revertMessage": "",
                    "selector": "0xef343588",
                    "status": true,
                    "value": "0"
                },
                "nodeType": 0
            },
            "1": {
                "invocation": {
                    "address": "0x0000000000000000000000000000000000000001",
                    "callData": "0xd8c036c517f51692875d75a185ca898893daddfe2be7386d56568740000000000000000000000000000000000000000000000000000000000000001ba6d04abb4ebf8e9f060b2d74ec20ca5a84d459f4a3badd2c09008a754856d08d246d4910a3bdf1b8d74905c35358852dd1704ff09e332a4bd8eeaf7b73a5eb71",
                    "decodedMethod": {
                        "callParams": [
                            {
                                "name": "hash",
                                "type": "bytes32",
                                "value": "0x57b8c7e0d8c036c517f51692875d75a185ca898893daddfe2be7386d56568740"
                            },
                            {
                                "name": "v",
                                "type": "uint256",
                                "value": "27"
                            },
                            {
                                "name": "r",
                                "type": "bytes32",
                                "value": "0xa6d04abb4ebf8e9f060b2d74ec20ca5a84d459f4a3badd2c09008a754856d08d"
                            },
                            {
                                "name": "s",
                                "type": "bytes32",
                                "value": "0x246d4910a3bdf1b8d74905c35358852dd1704ff09e332a4bd8eeaf7b73a5eb71"
                            }
                        ],
                        "constructorArguments": "",
                        "name": "ecrecover",
                        "returnParams": [
                            {
                                "name": "",
                                "type": "address",
                                "value": "0x9e0a8715fdbae181e92d2149bb00c0da3b381f7f"
                            }
                        ],
                        "signature": "ecrecover(bytes32,uint256,bytes32,bytes32)"
                    },
                    "errorInfo": "",
                    "fromAddress": "0x2a0c0dbecc7e4d658f48e01e3fa353f44050c208",
                    "gasUsed": 3000,
                    "id": 1,
                    "methodDecoded": true,
                    "operation": "CALL",
                    "output": "0x0000000000000000000000009e0a8715fdbae181e92d2149bb00c0da3b381f7f",
                    "revert": false,
                    "revertMessage": "",
                    "selector": "0x57b8c7e0",
                    "status": true,
                    "value": "0"
                },
                "nodeType": 0
            },
            "2": {
                "invocation": {
                    "address": "0x0000000000000000000000000000000000000001",
                    "callData": "0x7036658b40449649e921574cc6f0bafe09f113856b44ab41fe152fce000000000000000000000000000000000000000000000000000000000000001bb34b78830e270ef4c44c260d6c254484e54101c36ee80ba376c20aafe9d521b11aaaa021c00bc3a118878551c95a267a2d9455baf75680996ae76207b15781bb",
                    "decodedMethod": {
                        "callParams": [
                            {
                                "name": "hash",
                                "type": "bytes32",
                                "value": "0xbf0f41ff7036658b40449649e921574cc6f0bafe09f113856b44ab41fe152fce"
                            },
                            {
                                "name": "v",
                                "type": "uint256",
                                "value": "27"
                            },
                            {
                                "name": "r",
                                "type": "bytes32",
                                "value": "0xb34b78830e270ef4c44c260d6c254484e54101c36ee80ba376c20aafe9d521b1"
                            },
                            {
                                "name": "s",
                                "type": "bytes32",
                                "value": "0x1aaaa021c00bc3a118878551c95a267a2d9455baf75680996ae76207b15781bb"
                            }
                        ],
                        "constructorArguments": "",
                        "name": "ecrecover",
                        "returnParams": [
                            {
                                "name": "",
                                "type": "address",
                                "value": "0xa494223e66bf982e399681b85c80b63a7fa45a1b"
                            }
                        ],
                        "signature": "ecrecover(bytes32,uint256,bytes32,bytes32)"
                    },
                    "errorInfo": "",
                    "fromAddress": "0x2a0c0dbecc7e4d658f48e01e3fa353f44050c208",
                    "gasUsed": 3000,
                    "id": 2,
                    "methodDecoded": true,
                    "operation": "CALL",
                    "output": "0x000000000000000000000000a494223e66bf982e399681b85c80b63a7fa45a1b",
                    "revert": false,
                    "revertMessage": "",
                    "selector": "0xbf0f41ff",
                    "status": true,
                    "value": "0"
                },
                "nodeType": 0
            }
        },
        "gasFlame": [
            {
                "children": [
                    {
                        "children": [
                            {
                                "children": [],
                                "depth": 0,
                                "name": "Initial Gas",
                                "value": 37848
                            },
                            {
                                "children": [
                                    {
                                        "children": [],
                                        "depth": 1,
                                        "name": "ecrecover",
                                        "value": 3000
                                    },
                                    {
                                        "children": [],
                                        "depth": 1,
                                        "name": "ecrecover",
                                        "value": 3000
                                    }
                                ],
                                "depth": 0,
                                "name": "Executed Gas",
                                "value": 119284
                            }
                        ],
                        "depth": -1,
                        "name": "Actual Gas Used",
                        "value": 157132
                    },
                    {
                        "children": [],
                        "depth": -1,
                        "name": "Refunded Gas",
                        "value": 0
                    }
                ],
                "depth": -2,
                "name": "Total Gas",
                "value": 157132
            }
        ],
        "isConfirmed": true,
        "mainTrace": [
            {
                "children": [
                    {
                        "children": [
                            {
                                "children": [],
                                "depth": 1,
                                "id": 1,
                                "order": 1
                            },
                            {
                                "children": [],
                                "depth": 1,
                                "id": 2,
                                "order": 2
                            }
                        ],
                        "depth": 0,
                        "id": 0,
                        "order": 0
                    }
                ],
                "depth": -1,
                "id": -1,
                "order": -1
            }
        ],
        "mainTraceNodeCount": 3,
        "parentIdMap": {
            "0": -1,
            "1": 0,
            "2": 0
        },
        "tidyTrace": [
            {
                "children": [
                    {
                        "children": [
                            {
                                "children": [],
                                "depth": 1,
                                "id": 1,
                                "order": 1
                            },
                            {
                                "children": [],
                                "depth": 1,
                                "id": 2,
                                "order": 2
                            }
                        ],
                        "depth": 0,
                        "id": 0,
                        "order": 0
                    }
                ],
                "depth": -1,
                "id": -1,
                "order": -1
            }
        ],
        "tidyTraceNodeCount": 3
    },
    "state_change": {
        "stateChanges": [
            {
                "address": "0x2a0c0dbecc7e4d658f48e01e3fa353f44050c208",
                "erc": "",
                "slots": [
                    {
                        "current": "0x0000000000000000000000000000000000000000000000000000000000000001",
                        "key": "0xc13215f2bf8eb5d728ad54b2d123ebf8fd3b80d50a01cbf46405d5a5811a500a",
                        "prev": "0x0000000000000000000000000000000000000000000000000000000000000000"
                    },
                    {
                        "current": "0x0000000000000000000000000000000000000000000000000000000b2a1f0cf9",
                        "key": "0xa1124e65aaf09df9dbeae0de26df96f7d8d983e492091d01d2d9b49edf3405d6",
                        "prev": "0x0000000000000000000000000000000000000000000000000000000b1f6477f9"
                    },
                    {
                        "current": "0x000000000000000000000000000000000000000000000000000000000053d75e",
                        "key": "0xb7c367bdf9850ec68eeaf8cf1914a00023bb5f3ca5544ed77c6bce35fcfa7e4a",
                        "prev": "0x000000000000000000000000000000000000000000000000000000000053d746"
                    },
                    {
                        "current": "0x00000000000000000000000000000000000000000000000006e7c9f78bbddead",
                        "key": "0x893cbd595f765957d1ccc6e047e7269e62c2a6dd67203661ebca166dd4a370fd",
                        "prev": "0x0000000000000000000000000000000000000000000000000b0759aab4b0a652"
                    },
                    {
                        "current": "0x000000000000000000000000000000000000000000000000000000000053d75e",
                        "key": "0x077eb1b0c8a9a12bf50f5ebcf6e719e94a7a3a672dd2d4fad1096900002becf7",
                        "prev": "0x000000000000000000000000000000000000000000000000000000000053bf1c"
                    },
                    {
                        "current": "0x0000000000000000000000000000000000000000000000000000006f6fa29a0a",
                        "key": "0x7fd9c01beb7f36973c018c749fc7206a249ed5398ac5df0762d330bd082defbb",
                        "prev": "0x000000000000000000000000000000000000000000000000000000459187270a"
                    },
                    {
                        "current": "0x000000000000000000000000000000000000000000000000041b08cbc9b7171e",
                        "key": "0xab2143ae1fbd0d96491f920e621bb60d9c9456ad7bf2563f42a37d83efccd161",
                        "prev": "0x0000000000000000000000000000000000000000000000000000000000000000"
                    },
                    {
                        "current": "0x00000000000000000000000000000000000000000000000000000029e8d60800",
                        "key": "0x31d1f8dc1697b4eaad643710fddf4f080816c585173b22057d160458f4a86698",
                        "prev": "0x0000000000000000000000000000000000000000000000000000000000000000"
                    },
                    {
                        "current": "0x0000000000000000000000000000000000000000000000000000002b4ad45350",
                        "key": "0xe55a6f32fa35b6c36adb06613f87dca711d91b1a6f8dd525af49cb4277b474b2",
                        "prev": "0x0000000000000000000000000000000000000000000000000000005533aa5b50"
                    },
                    {
                        "current": "0x00000000000000000000000000000000000000000000001563b93063b405dc0c",
                        "key": "0x3ccb72d91c5c66cba135a4135963ed23443b8a63817f501517468fcd5097e277",
                        "prev": "0x00000000000000000000000000000000000000000000001563b4a97c54ca2b86"
                    }
                ],
                "storageVariables": [
                    {
                        "name": "tokens",
                        "type": "mapping(address => mapping(address => uint256))",
                        "value": {
                            "pairs": [
                                {
                                    "key": "0x0000000000000000000000000000000000000000",
                                    "value": {
                                        "pairs": [
                                            {
                                                "key": "0x034767f3c519f361c5ecf46ebfc08981c629d381",
                                                "value": {
                                                    "current": "394567453433127099404",
                                                    "prev": "394566179204926942086",
                                                    "typeTag": 1
                                                }
                                            },
                                            {
                                                "key": "0x9e0a8715fdbae181e92d2149bb00c0da3b381f7f",
                                                "value": {
                                                    "current": "497588348886310573",
                                                    "prev": "794702448964970066",
                                                    "typeTag": 1
                                                }
                                            },
                                            {
                                                "key": "0xa494223e66bf982e399681b85c80b63a7fa45a1b",
                                                "value": {
                                                    "current": "295839871878502174",
                                                    "prev": "0",
                                                    "typeTag": 1
                                                }
                                            }
                                        ],
                                        "typeTag": 4
                                    }
                                },
                                {
                                    "key": "0x2fa32a39fc1c399e0cc7b2935868f5165de7ce97",
                                    "value": {
                                        "pairs": [
                                            {
                                                "key": "0x034767f3c519f361c5ecf46ebfc08981c629d381",
                                                "value": {
                                                    "current": "47951318265",
                                                    "prev": "47771318265",
                                                    "typeTag": 1
                                                }
                                            },
                                            {
                                                "key": "0x9e0a8715fdbae181e92d2149bb00c0da3b381f7f",
                                                "value": {
                                                    "current": "478614297098",
                                                    "prev": "298794297098",
                                                    "typeTag": 1
                                                }
                                            },
                                            {
                                                "key": "0xa494223e66bf982e399681b85c80b63a7fa45a1b",
                                                "value": {
                                                    "current": "185939022672",
                                                    "prev": "365939022672",
                                                    "typeTag": 1
                                                }
                                            }
                                        ],
                                        "typeTag": 4
                                    }
                                }
                            ],
                            "typeTag": 4
                        }
                    },
                    {
                        "name": "traded",
                        "type": "mapping(bytes32 => bool)",
                        "value": {
                            "pairs": [
                                {
                                    "key": "0xcf7c9671e12c75daf64a38b92ee229dcf2fd29f9403474f7b41adf1fad139000",
                                    "value": {
                                        "current": "true",
                                        "prev": "false",
                                        "typeTag": 1
                                    }
                                }
                            ],
                            "typeTag": 4
                        }
                    },
                    {
                        "name": "orderFills",
                        "type": "mapping(bytes32 => uint256)",
                        "value": {
                            "pairs": [
                                {
                                    "key": "0xe95749982d4e13bfed378aa0a4f8dd4ce04c5c3b609952bdc873fef5c3a60849",
                                    "value": {
                                        "current": "180000000000",
                                        "prev": "0",
                                        "typeTag": 1
                                    }
                                }
                            ],
                            "typeTag": 4
                        }
                    },
                    {
                        "name": "lastActiveTransaction",
                        "type": "mapping(address => uint256)",
                        "value": {
                            "pairs": [
                                {
                                    "key": "0x9e0a8715fdbae181e92d2149bb00c0da3b381f7f",
                                    "value": {
                                        "current": "5494622",
                                        "prev": "5494598",
                                        "typeTag": 1
                                    }
                                },
                                {
                                    "key": "0xa494223e66bf982e399681b85c80b63a7fa45a1b",
                                    "value": {
                                        "current": "5494622",
                                        "prev": "5488412",
                                        "typeTag": 1
                                    }
                                }
                            ],
                            "typeTag": 4
                        }
                    }
                ]
            }
        ]
    }
}