{
    "balance_change": {
        "balanceChanges": [
            {
                "account": "0xf1c6434cd0b6acdf4a2b36415c92ef06004fe09f",
                "assets": [
                    {
                        "address": "0xd07dc4262bcdbf85190c01c996b4c06a461d2430",
                        "amount": "1",
                        "iconUrl": "",
                        "isERC1155": true,
                        "isERC721": false,
                        "sign": false,
                        "tokenID": "666251",
                        "value": ""
                    },
                    {
                        "address": "0xc02aaa39b223fe8d0a0e5c4f27ead9083c756cc2",
                        "amount": "3.94875",
                        "iconUrl": "https://assets.blocksec.com/icon/f1cb2d02c471d545bbc7722daf3277fd852d98e63d118771af7047bd8256c516.png",
                        "isERC1155": false,
                        "isERC721": false,
                        "sign": true,
                        "value": "15591.94388"
                    }
                ]
            },
            {
                "account": "0x1ac5d648599b9767b1a1bd13eb8bf082b4c157c2",
                "assets": [
                    {
                        "address": "0xc02aaa39b223fe8d0a0e5c4f27ead9083c756cc2",
                        "amount": "4.05",
                        "iconUrl": "https://assets.blocksec.com/icon/f1cb2d02c471d545bbc7722daf3277fd852d98e63d118771af7047bd8256c516.png",
                        "isERC1155": false,
                        "isERC721": false,
                        "sign": false,
                        "value": "15991.73731"
                    },
                    {
                        "address": "0xd07dc4262bcdbf85190c01c996b4c06a461d2430",
                        "amount": "1",
                        "iconUrl": "",
                        "isERC1155": true,
                        "isERC721": false,
                        "sign": true,
                        "tokenID": "666251",
                        "value": ""
                    }
                ]
            },
            {
                "account": "0x5b3256965e7c3cf26e11fcaf296dfc8807c01073",
                "assets": [
                    {
                        "address": "0xc02aaa39b223fe8d0a0e5c4f27ead9083c756cc2",
                        "amount": "0.10125",
                        "iconUrl": "https://assets.blocksec.com/icon/f1cb2d02c471d545bbc7722daf3277fd852d98e63d118771af7047bd8256c516.png",
                        "isERC1155": false,
                        "isERC721": false,
                        "sign": true,
                        "value": "399.7934328"
                    }
                ]
            }
        ]
    },
    "profile": {
        "basic_info": {
            "baseFee": "98.876396828",
            "blockNumber": 13167619,
            "callData": "0xab834bab0000000000000000000000007be8076f4ea4a4ad08075c2508e481d6c946d12b0000000000000000000000001ac5d648599b9767b1a1bd13eb8bf082b4c157c200000000000000000000000000000000000000000000000000000000000000000000000000000000000000005b3256965e7c3cf26e11fcaf296dfc8807c01073000000000000000000000000d07dc4262bcdbf85190c01c996b4c06a461d24300000000000000000000000000000000000000000000000000000000000000000000000000000000000000000c02aaa39b223fe8d0a0e5c4f27ead9083c756cc20000000000000000000000007be8076f4ea4a4ad08075c2508e481d6c946d12b000000000000000000000000f1c6434cd0b6acdf4a2b36415c92ef06004fe09f0000000000000000000000001ac5d648599b9767b1a1bd13eb8bf082b4c157c20000000000000000000000000000000000000000000000000000000000000000000000000000000000000000d07dc4262bcdbf85190c01c996b4c06a461d24300000000000000000000000000000000000000000000000000000000000000000000000000000000000000000c02aaa39b223fe8d0a0e5c4f27ead9083c756cc2000000000000000000000000000000000000000000000000000000000000000000000000000000000000000000000000000000000000000000000000000000fa0000000000000000000000000000000000000000000000000000000000000000000000000000000000000000000000000000000000000000000000000000000000000000000000000000000000000000000000000000000038347d8acc55000000000000000000000000000000000000000000000000000000000000000000000000000000000000000000000000000000000000000000000000000061350d1f00000000000000000000000000000000000000000000000000000000613e47eb6f95057619c1fed80c674c7e9a7913d7a7d1ebc6814973a86101a1fa1b4639e0000000000000000000000000000000000000000000000000000000000000000000000000000000000000000000000000000000000000000000000000000000fa0000000000000000000000000000000000000000000000000000000000000000000000000000000000000000000000000000000000000000000000000000000000000000000000000000000000000000000000000000000038347d8acc55000000000000000000000000000000000000000000000000000000000000000000000000000000000000000000000000000000000000000000000000000061351b8f0000000000000000000000000000000000000000000000000000000000000000db37af53c175d5baf9cbdf017593d11945b5d68fb6e855d26799f821be75ddfb0000000000000000000000000000000000000000000000000000000000000001000000000000000000000000000000000000000000000000000000000000000000000000000000000000000000000000000000000000000000000000000000000000000000000000000000000000000000000000000000000000000000000000000000000000000000000000000000000000000000000000000000000000000100000000000000000000000000000000000000000000000000000000000000010000000000000000000000000000000000000000000000000000000000000000000000000000000000000000000000000000000000000000000000000000000000000000000000000000000000000000000000000000000000000000000006a000000000000000000000000000000000000000000000000000000000000007a000000000000000000000000000000000000000000000000000000000000008a000000000000000000000000000000000000000000000000000000000000009a00000000000000000000000000000000000000000000000000000000000000aa00000000000000000000000000000000000000000000000000000000000000ac0000000000000000000000000000000000000000000000000000000000000001b000000000000000000000000000000000000000000000000000000000000001bc11e5806da353acdbd3c9c4f2c0ff87fbb83610d0db147168e3dc8db452032fe4d146c28b9054be8b81cc1d017ca50d4a2914b9b597be1bd61f55aaeea933ac5c11e5806da353acdbd3c9c4f2c0ff87fbb83610d0db147168e3dc8db452032fe4d146c28b9054be8b81cc1d017ca50d4a2914b9b597be1bd61f55aaeea933ac5cd2b3c517d3de4f962dc01700dc57960cdbeb5e900000000000000000000000000000000000000000000000000000000000000000000000000000000000000c4f242432a00000000000000000000000000000000000000000000000000000000000000000000000000000000000000001ac5d648599b9767b1a1bd13eb8bf082b4c157c200000000000000000000000000000000000000000000000000000000000a2a8b000000000000000000000000000000000000000000000000000000000000000100000000000000000000000000000000000000000000000000000000000000a000000000000000000000000000000000000000000000000000000000000000000000000000000000000000000000000000000000000000000000000000000000000000000000000000000000000000000000000000000000000000c4f242432a000000000000000000000000f1c6434cd0b6acdf4a2b36415c92ef06004fe09f000000000000000000000000000000000000000000000000000000000000000000000000000000000000000000000000000000000000000000000000000a2a8b000000000000000000000000000000000000000000000000000000000000000100000000000000000000000000000000000000000000000000000000000000a000000000000000000000000000000000000000000000000000000000000000000000000000000000000000000000000000000000000000000000000000000000000000000000000000000000000000000000000000000000000000c400000000ffffffffffffffffffffffffffffffffffffffffffffffffffffffffffffffff000000000000000000000000000000000000000000000000000000000000000000000000000000000000000000000000000000000000000000000000000000000000000000000000000000000000000000000000000000000000000000000000000000000000000000000000000000000000000000000000000000000000000000000000000000000000000000000000000000000000000000000000000000000000000000000000000000000000000000000000000000000000000000000000000000000000000000000000000000000000000000000000000000c4000000000000000000000000000000000000000000000000000000000000000000000000ffffffffffffffffffffffffffffffffffffffffffffffffffffffffffffffff00000000000000000000000000000000000000000000000000000000000000000000000000000000000000000000000000000000000000000000000000000000000000000000000000000000000000000000000000000000000000000000000000000000000000000000000000000000000000000000000000000000000000000000000000000000000000000000000000000000000000000000000000000000000000000000000000000000000000000000000000000000000000000000000000000000000000000000000000000000000000000000000000000000",
            "debugEnable": true,
            "errorInfo": "",
            "eventCount": 4,
            "feeRecipient": "0x5a0b54d5dc17e0aadc383d2db43b0a0d3e029c4c",
            "formatValue": "0",
            "gasLimit": 305632,
            "gasPrice": "100.376396828",
            "gasUsed": 225360,
            "intTxnCount": 14,
            "internalRevert": false,
            "internalRevertMessage": "",
            "isContractCreation": false,
            "isFlashloan": false,
            "maxFee": "139.928027451",
            "nonce": 77,
            "overwritedBlockNumber": -1,
            "priorityFee": "1.5",
            "receiver": "0x7be8076f4ea4a4ad08075c2508e481d6c946d12b",
            "revertMessage": "",
            "sender": "0xf1c6434cd0b6acdf4a2b36415c92ef06004fe09f",
            "simulationEnable": true,
            "sourceTxnHash": "0x3561cf3b4e09dd2a8c3ef7fee143238c5fcd5c0cbf719423eb68cea2942fe360",
            "status": true,
            "timestamp": "2021-09-05T19:37:25Z",
            "transactionFee": "0.02262082478915808",
            "txnHash": "0x3561cf3b4e09dd2a8c3ef7fee143238c5fcd5c0cbf719423eb68cea2942fe360",
            "txnIndex": 92,
            "type": 2,
            "value": "0"
        },
        "fund_flow": [
            {
                "amount": "4.05",
                "from": "0x1ac5d648599b9767b1a1bd13eb8bf082b4c157c2",
                "id": 1,
                "isERC1155": false,
                "isERC721": false,
                "isReverted": false,
                "order": 1,
                "to": "0xf1c6434cd0b6acdf4a2b36415c92ef06004fe09f",
                "token": "0xc02aaa39b223fe8d0a0e5c4f27ead9083c756cc2"
            },
            {
                "amount": "0.10125",
                "from": "0xf1c6434cd0b6acdf4a2b36415c92ef06004fe09f",
                "id": 2,
                "isERC1155": false,
                "isERC721": false,
                "isReverted": false,
                "order": 2,
                "to": "0x5b3256965e7c3cf26e11fcaf296dfc8807c01073",
                "token": "0xc02aaa39b223fe8d0a0e5c4f27ead9083c756cc2"
            },
            {
                "amount": "1",
                "from": "0xf1c6434cd0b6acdf4a2b36415c92ef06004fe09f",
                "id": 3,
                "isERC1155": true,
                "isERC721": false,
                "isReverted": false,
                "order": 3,
                "to": "0x1ac5d648599b9767b1a1bd13eb8bf082b4c157c2",
                "token": "0xd07dc4262bcdbf85190c01c996b4c06a461d2430",
                "tokenID": "666251"
            }
        ],
        "token_infos": [
            {
                "address": "0xeeeeeeeeeeeeeeeeeeeeeeeeeeeeeeeeeeeeeeee",
                "decimals": 18
            },
            {
                "address": "0xc02aaa39b223fe8d0a0e5c4f27ead9083c756cc2",
                "decimals": 18
            }
        ]
    },
    "address_label": {
        "labels": [
            {
                "address": "0x5b3256965e7c3cf26e11fcaf296dfc8807c01073",
                "label": "OpenSea: Wallet"
            },
            {
                "address": "0xd07dc4262bcdbf85190c01c996b4c06a461d2430",
                "label": "Rarible: RARI Token 3"
            },
            {
                "address": "0xf9e266af4bca5890e2781812cc6a6e89495a79f2",
                "label": "AuthenticatedProxy"
            },
            {
                "address": "0x4bf8e81db9d01e3f75bdf11f5d9f0e2768d9d5da",
                "label": "OwnableDelegateProxy"
            },
            {
                "address": "0x0000000000000000000000000000000000000001",
                "label": "Precompiled"
            },
            {
                "address": "0xa5409ec958c83c3f309868babaca7c86dcb077c1",
                "label": "OpenSea: Registry"
            },
            {
                "address": "0x0000000000000000000000000000000000000002",
                "label": "Precompiled"
            },
            {
                "address": "0x0000000000000000000000000000000000000004",
                "label": "Precompiled"
            },
            {
                "address": "0xeeeeeeeeeeeeeeeeeeeeeeeeeeeeeeeeeeeeeeee",
                "label": "Ether"
            },
            {
                "address": "0xe5c783ee536cf5e63e792988335c4255169be4e1",
                "label": "OpenSea: Wyvern Token Transfer Proxy"
            },
            {
                "address": "0x0000000000000000000000000000000000000000",
                "label": "Null Address"
            },
            {
                "address": "0x0000000000000000000000000000000000000003",
                "label": "Precompiled"
            },
            {
                "address": "0x7be8076f4ea4a4ad08075c2508e481d6c946d12b",
                "label": "OpenSea: Wyvern Exchange v1"
            },
            {
                "address": "0xc02aaa39b223fe8d0a0e5c4f27ead9083c756cc2",
                "label": "Wrapped Ether (WETH)"
            }
        ]
    },
    "trace": {
        "accountLabels": null,
        "dataMap": {
            "-1": {
                "invocation": {
                    "address": "0xf1c6434cd0b6acdf4a2b36415c92ef06004fe09f",
                    "callData": "",
                    "decodedMethod": null,
                    "errorInfo": "",
                    "fromAddress": "",
                    "gasUsed": 0,
                    "id": -1,
                    "methodDecoded": false,
                    "operation": "",
                    "output": "",
                    "revert": false,
                    "revertMessage": "",
                    "selector": "",
                    "status": false,
                    "value": ""
                },
                "nodeType": 0
            },
            "0": {
                "invocation": {
                    "address": "0x7be8076f4ea4a4ad08075c2508e481d6c946d12b",
                    "callData": "0x0000000000000000000000007be8076f4ea4a4ad08075c2508e481d6c946d12b0000000000000000000000001ac5d648599b9767b1a1bd13eb8bf082b4c157c200000000000000000000000000000000000000000000000000000000000000000000000000000000000000005b3256965e7c3cf26e11fcaf296dfc8807c01073000000000000000000000000d07dc4262bcdbf85190c01c996b4c06a461d24300000000000000000000000000000000000000000000000000000000000000000000000000000000000000000c02aaa39b223fe8d0a0e5c4f27ead9083c756cc20000000000000000000000007be8076f4ea4a4ad08075c2508e481d6c946d12b000000000000000000000000f1c6434cd0b6acdf4a2b36415c92ef06004fe09f0000000000000000000000001ac5d648599b9767b1a1bd13eb8bf082b4c157c20000000000000000000000000000000000000000000000000000000000000000000000000000000000000000d07dc4262bcdbf85190c01c996b4c06a461d24300000000000000000000000000000000000000000000000000000000000000000000000000000000000000000c02aaa39b223fe8d0a0e5c4f27ead9083c756cc2000000000000000000000000000000000000000000000000000000000000000000000000000000000000000000000000000000000000000000000000000000fa0000000000000000000000000000000000000000000000000000000000000000000000000000000000000000000000000000000000000000000000000000000000000000000000000000000000000000000000000000000038347d8acc55000000000000000000000000000000000000000000000000000000000000000000000000000000000000000000000000000000000000000000000000000061350d1f00000000000000000000000000000000000000000000000000000000613e47eb6f95057619c1fed80c674c7e9a7913d7a7d1ebc6814973a86101a1fa1b4639e0000000000000000000000000000000000000000000000000000000000000000000000000000000000000000000000000000000000000000000000000000000fa0000000000000000000000000000000000000000000000000000000000000000000000000000000000000000000000000000000000000000000000000000000000000000000000000000000000000000000000000000000038347d8acc55000000000000000000000000000000000000000000000000000000000000000000000000000000000000000000000000000000000000000000000000000061351b8f0000000000000000000000000000000000000000000000000000000000000000db37af53c175d5baf9cbdf017593d11945b5d68fb6e855d26799f821be75ddfb0000000000000000000000000000000000000000000000000000000000000001000000000000000000000000000000000000000000000000000000000000000000000000000000000000000000000000000000000000000000000000000000000000000000000000000000000000000000000000000000000000000000000000000000000000000000000000000000000000000000000000000000000000000100000000000000000000000000000000000000000000000000000000000000010000000000000000000000000000000000000000000000000000000000000000000000000000000000000000000000000000000000000000000000000000000000000000000000000000000000000000000000000000000000000000000006a000000000000000000000000000000000000000000000000000000000000007a000000000000000000000000000000000000000000000000000000000000008a000000000000000000000000000000000000000000000000000000000000009a00000000000000000000000000000000000000000000000000000000000000aa00000000000000000000000000000000000000000000000000000000000000ac0000000000000000000000000000000000000000000000000000000000000001b000000000000000000000000000000000000000000000000000000000000001bc11e5806da353acdbd3c9c4f2c0ff87fbb83610d0db147168e3dc8db452032fe4d146c28b9054be8b81cc1d017ca50d4a2914b9b597be1bd61f55aaeea933ac5c11e5806da353acdbd3c9c4f2c0ff87fbb83610d0db147168e3dc8db452032fe4d146c28b9054be8b81cc1d017ca50d4a2914b9b597be1bd61f55aaeea933ac5cd2b3c517d3de4f962dc01700dc57960cdbeb5e900000000000000000000000000000000000000000000000000000000000000000000000000000000000000c4f242432a00000000000000000000000000000000000000000000000000000000000000000000000000000000000000001ac5d648599b9767b1a1bd13eb8bf082b4c157c200000000000000000000000000000000000000000000000000000000000a2a8b000000000000000000000000000000000000000000000000000000000000000100000000000000000000000000000000000000000000000000000000000000a000000000000000000000000000000000000000000000000000000000000000000000000000000000000000000000000000000000000000000000000000000000000000000000000000000000000000000000000000000000000000c4f242432a000000000000000000000000f1c6434cd0b6acdf4a2b36415c92ef06004fe09f000000000000000000000000000000000000000000000000000000000000000000000000000000000000000000000000000000000000000000000000000a2a8b000000000000000000000000000000000000000000000000000000000000000100000000000000000000000000000000000000000000000000000000000000a000000000000000000000000000000000000000000000000000000000000000000000000000000000000000000000000000000000000000000000000000000000000000000000000000000000000000000000000000000000000000c400000000ffffffffffffffffffffffffffffffffffffffffffffffffffffffffffffffff000000000000000000000000000000000000000000000000000000000000000000000000000000000000000000000000000000000000000000000000000000000000000000000000000000000000000000000000000000000000000000000000000000000000000000000000000000000000000000000000000000000000000000000000000000000000000000000000000000000000000000000000000000000000000000000000000000000000000000000000000000000000000000000000000000000000000000000000000000000000000000000000000000c4000000000000000000000000000000000000000000000000000000000000000000000000ffffffffffffffffffffffffffffffffffffffffffffffffffffffffffffffff00000000000000000000000000000000000000000000000000000000000000000000000000000000000000000000000000000000000000000000000000000000000000000000000000000000000000000000000000000000000000000000000000000000000000000000000000000000000000000000000000000000000000000000000000000000000000000000000000000000000000000000000000000000000000000000000000000000000000000000000000000000000000000000000000000000000000000000000000000000000000000000000000000000",
                    "decodedMethod": {
                        "callParams": [
                            {
                                "name": "addrs",
                                "type": "address[14]",
                                "value": [
                                    "0x7be8076f4ea4a4ad08075c2508e481d6c946d12b",
                                    "0x1ac5d648599b9767b1a1bd13eb8bf082b4c157c2",
                                    "0x0000000000000000000000000000000000000000",
                                    "0x5b3256965e7c3cf26e11fcaf296dfc8807c01073",
                                    "0xd07dc4262bcdbf85190c01c996b4c06a461d2430",
                                    "0x0000000000000000000000000000000000000000",
                                    "0xc02aaa39b223fe8d0a0e5c4f27ead9083c756cc2",
                                    "0x7be8076f4ea4a4ad08075c2508e481d6c946d12b",
                                    "0xf1c6434cd0b6acdf4a2b36415c92ef06004fe09f",
                                    "0x1ac5d648599b9767b1a1bd13eb8bf082b4c157c2",
                                    "0x0000000000000000000000000000000000000000",
                                    "0xd07dc4262bcdbf85190c01c996b4c06a461d2430",
                                    "0x0000000000000000000000000000000000000000",
                                    "0xc02aaa39b223fe8d0a0e5c4f27ead9083c756cc2"
                                ]
                            },
                            {
                                "name": "uints",
                                "type": "uint256[18]",
                                "value": [
                                    "0",
                                    "250",
                                    "0",
                                    "0",
                                    "4,050,000,000,000,000,000",
                                    "0",
                                    "1,630,866,719",
                                    "1,631,471,595",
                                    "50,470,024,098,112,601,456,167,353,743,141,041,391,572,417,180,742,718,926,859,860,701,186,145,794,528",
                                    "0",
                                    "250",
                                    "0",
                                    "0",
                                    "4,050,000,000,000,000,000",
                                    "0",
                                    "1,630,870,415",
                                    "0",
                                    "99,154,900,491,958,158,665,853,497,948,435,178,700,031,617,429,145,520,418,334,435,347,102,805,908,987"
                                ]
                            },
                            {
                                "name": "feeMethodsSidesKindsHowToCalls",
                                "type": "uint8[8]",
                                "value": [
                                    "1",
                                    "0",
                                    "0",
                                    "0",
                                    "1",
                                    "1",
                                    "0",
                                    "0"
                                ]
                            },
                            {
                                "name": "calldataBuy",
                                "type": "bytes",
                                "value": "0xf242432a00000000000000000000000000000000000000000000000000000000000000000000000000000000000000001ac5d648599b9767b1a1bd13eb8bf082b4c157c200000000000000000000000000000000000000000000000000000000000a2a8b000000000000000000000000000000000000000000000000000000000000000100000000000000000000000000000000000000000000000000000000000000a00000000000000000000000000000000000000000000000000000000000000000"
                            },
                            {
                                "name": "calldataSell",
                                "type": "bytes",
                                "value": "0xf242432a000000000000000000000000f1c6434cd0b6acdf4a2b36415c92ef06004fe09f000000000000000000000000000000000000000000000000000000000000000000000000000000000000000000000000000000000000000000000000000a2a8b000000000000000000000000000000000000000000000000000000000000000100000000000000000000000000000000000000000000000000000000000000a00000000000000000000000000000000000000000000000000000000000000000"
                            },
                            {
                                "name": "replacementPatternBuy",
                                "type": "bytes",
                                "value": "0x00000000ffffffffffffffffffffffffffffffffffffffffffffffffffffffffffffffff00000000000000000000000000000000000000000000000000000000000000000000000000000000000000000000000000000000000000000000000000000000000000000000000000000000000000000000000000000000000000000000000000000000000000000000000000000000000000000000000000000000000000000000000000000000000000000000000000000000000000000000000000000000"
                            },
                            {
                                "name": "replacementPatternSell",
                                "type": "bytes",
                                "value": "0x000000000000000000000000000000000000000000000000000000000000000000000000ffffffffffffffffffffffffffffffffffffffffffffffffffffffffffffffff0000000000000000000000000000000000000000000000000000000000000000000000000000000000000000000000000000000000000000000000000000000000000000000000000000000000000000000000000000000000000000000000000000000000000000000000000000000000000000000000000000000000000000"
                            },
                            {
                                "name": "staticExtradataBuy",
                                "type": "bytes",
                                "value": "0x"
                            },
                            {
                                "name": "staticExtradataSell",
                                "type": "bytes",
                                "value": "0x"
                            },
                            {
                                "name": "vs",
                                "type": "uint8[2]",
                                "value": [
                                    "27",
                                    "27"
                                ]
                            },
                            {
                                "name": "rssMetadata",
                                "type": "bytes32[5]",
                                "value": [
                                    "0xc11e5806da353acdbd3c9c4f2c0ff87fbb83610d0db147168e3dc8db452032fe",
                                    "0x4d146c28b9054be8b81cc1d017ca50d4a2914b9b597be1bd61f55aaeea933ac5",
                                    "0xc11e5806da353acdbd3c9c4f2c0ff87fbb83610d0db147168e3dc8db452032fe",
                                    "0x4d146c28b9054be8b81cc1d017ca50d4a2914b9b597be1bd61f55aaeea933ac5",
                                    "0xcd2b3c517d3de4f962dc01700dc57960cdbeb5e9000000000000000000000000"
                                ]
                            }
                        ],
                        "constructorArguments": "",
                        "name": "atomicMatch_",
                        "returnParams": [],
                        "signature": "atomicMatch_(address[14],uint256[18],uint8[8],bytes,bytes,bytes,bytes,bytes,bytes,uint8[2],bytes32[5])"
                    },
                    "errorInfo": "",
                    "fromAddress": "0xf1c6434cd0b6acdf4a2b36415c92ef06004fe09f",
                    "gasUsed": 225360,
                    "id": 0,
                    "methodDecoded": true,
                    "operation": "CALL",
                    "output": "",
                    "revert": false,
                    "revertMessage": "",
                    "selector": "0xab834bab",
                    "status": true,
                    "value": "0"
                },
                "nodeType": 0
            },
            "1": {
                "invocation": {
                    "address": "0x0000000000000000000000000000000000000001",
                    "callData": "0x49177e6ec89e73a6de6ee9d4d0c8013d71b3acc033226403a3021149000000000000000000000000000000000000000000000000000000000000001bc11e5806da353acdbd3c9c4f2c0ff87fbb83610d0db147168e3dc8db452032fe4d146c28b9054be8b81cc1d017ca50d4a2914b9b597be1bd61f55aaeea933ac5",
                    "decodedMethod": {
                        "callParams": [
                            {
                                "name": "hash",
                                "type": "bytes32",
                                "value": "0xd75ecf3849177e6ec89e73a6de6ee9d4d0c8013d71b3acc033226403a3021149"
                            },
                            {
                                "name": "v",
                                "type": "uint256",
                                "value": "27"
                            },
                            {
                                "name": "r",
                                "type": "bytes32",
                                "value": "0xc11e5806da353acdbd3c9c4f2c0ff87fbb83610d0db147168e3dc8db452032fe"
                            },
                            {
                                "name": "s",
                                "type": "bytes32",
                                "value": "0x4d146c28b9054be8b81cc1d017ca50d4a2914b9b597be1bd61f55aaeea933ac5"
                            }
                        ],
                        "constructorArguments": "",
                        "name": "ecrecover",
                        "returnParams": [
                            {
                                "name": "",
                                "type": "address",
                                "value": "0x1ac5d648599b9767b1a1bd13eb8bf082b4c157c2"
                            }
                        ],
                        "signature": "ecrecover(bytes32,uint256,bytes32,bytes32)"
                    },
                    "errorInfo": "",
                    "fromAddress": "0x7be8076f4ea4a4ad08075c2508e481d6c946d12b",
                    "gasUsed": 3000,
                    "id": 1,
                    "methodDecoded": true,
                    "operation": "CALL",
                    "output": "0x0000000000000000000000001ac5d648599b9767b1a1bd13eb8bf082b4c157c2",
                    "revert": false,
                    "revertMessage": "",
                    "selector": "0xd75ecf38",
                    "status": true,
                    "value": "0"
                },
                "nodeType": 0
            },
            "10": {
                "invocation": {
                    "address": "0xa5409ec958c83c3f309868babaca7c86dcb077c1",
                    "callData": "0x0000000000000000000000007be8076f4ea4a4ad08075c2508e481d6c946d12b",
                    "decodedMethod": {
                        "callParams": [
                            {
                                "name": "",
                                "type": "address",
                                "value": "0x7be8076f4ea4a4ad08075c2508e481d6c946d12b"
                            }
                        ],
                        "constructorArguments": "",
                        "name": "contracts",
                        "returnParams": [
                            {
                                "name": "",
                                "type": "bool",
                                "value": true
                            }
                        ],
                        "signature": "contracts(address)"
                    },
                    "errorInfo": "",
                    "fromAddress": "0xe5c783ee536cf5e63e792988335c4255169be4e1",
                    "gasUsed": 553,
                    "id": 10,
                    "methodDecoded": true,
                    "operation": "CALL",
                    "output": "0x0000000000000000000000000000000000000000000000000000000000000001",
                    "revert": false,
                    "revertMessage": "",
                    "selector": "0x69dc9ff3",
                    "status": true,
                    "value": "0"
                },
                "nodeType": 0
            },
            "11": {
                "invocation": {
                    "address": "0xc02aaa39b223fe8d0a0e5c4f27ead9083c756cc2",
                    "callData": "0x000000000000000000000000f1c6434cd0b6acdf4a2b36415c92ef06004fe09f0000000000000000000000005b3256965e7c3cf26e11fcaf296dfc8807c010730000000000000000000000000000000000000000000000000167b656ab822000",
                    "decodedMethod": {
                        "callParams": [
                            {
                                "name": "src",
                                "type": "address",
                                "value": "0xf1c6434cd0b6acdf4a2b36415c92ef06004fe09f"
                            },
                            {
                                "name": "dst",
                                "type": "address",
                                "value": "0x5b3256965e7c3cf26e11fcaf296dfc8807c01073"
                            },
                            {
                                "decimalAvailable": true,
                                "name": "wad",
                                "type": "uint256",
                                "value": "101,250,000,000,000,000"
                            }
                        ],
                        "constructorArguments": "",
                        "name": "transferFrom",
                        "returnParams": [
                            {
                                "name": "",
                                "type": "bool",
                                "value": true
                            }
                        ],
                        "signature": "transferFrom(address,address,uint256)"
                    },
                    "errorInfo": "",
                    "fromAddress": "0xe5c783ee536cf5e63e792988335c4255169be4e1",
                    "gasUsed": 10225,
                    "id": 11,
                    "methodDecoded": true,
                    "operation": "CALL",
                    "output": "0x0000000000000000000000000000000000000000000000000000000000000001",
                    "revert": false,
                    "revertMessage": "",
                    "selector": "0x23b872dd",
                    "status": true,
                    "value": "0"
                },
                "nodeType": 0
            },
            "12": {
                "event": {
                    "contract": "0xc02aaa39b223fe8d0a0e5c4f27ead9083c756cc2",
                    "decodedLog": {
                        "name": "Transfer",
                        "params": [
                            {
                                "name": "src",
                                "type": "address",
                                "value": "0xf1c6434cd0b6acdf4a2b36415c92ef06004fe09f"
                            },
                            {
                                "name": "dst",
                                "type": "address",
                                "value": "0x5b3256965e7c3cf26e11fcaf296dfc8807c01073"
                            },
                            {
                                "decimalAvailable": true,
                                "name": "wad",
                                "type": "uint256",
                                "value": "101,250,000,000,000,000"
                            }
                        ],
                        "signature": "Transfer(address,address,uint256)"
                    },
                    "id": 12,
                    "logData": "0x0000000000000000000000000000000000000000000000000167b656ab822000",
                    "logDecoded": true,
                    "operation": "EVENT",
                    "revert": false,
                    "status": true,
                    "topics": [
                        "0xddf252ad1be2c89b69c2b068fc378daa952ba7f163c4a11628f55a4df523b3ef",
                        "0x000000000000000000000000f1c6434cd0b6acdf4a2b36415c92ef06004fe09f",
                        "0x0000000000000000000000005b3256965e7c3cf26e11fcaf296dfc8807c01073"
                    ]
                },
                "nodeType": 1
            },
            "13": {
                "invocation": {
                    "address": "0x4bf8e81db9d01e3f75bdf11f5d9f0e2768d9d5da",
                    "callData": "0x000000000000000000000000d07dc4262bcdbf85190c01c996b4c06a461d24300000000000000000000000000000000000000000000000000000000000000000000000000000000000000000000000000000000000000000000000000000006000000000000000000000000000000000000000000000000000000000000000c4f242432a000000000000000000000000f1c6434cd0b6acdf4a2b36415c92ef06004fe09f0000000000000000000000001ac5d648599b9767b1a1bd13eb8bf082b4c157c200000000000000000000000000000000000000000000000000000000000a2a8b000000000000000000000000000000000000000000000000000000000000000100000000000000000000000000000000000000000000000000000000000000a0000000000000000000000000000000000000000000000000000000000000000000000000000000000000000000000000000000000000000000000000",
                    "decodedMethod": {
                        "callParams": [
                            {
                                "name": "dest",
                                "type": "address",
                                "value": "0xd07dc4262bcdbf85190c01c996b4c06a461d2430"
                            },
                            {
                                "name": "howToCall",
                                "type": "uint8",
                                "value": "0"
                            },
                            {
                                "name": "calldata",
                                "type": "bytes",
                                "value": "0xf242432a000000000000000000000000f1c6434cd0b6acdf4a2b36415c92ef06004fe09f0000000000000000000000001ac5d648599b9767b1a1bd13eb8bf082b4c157c200000000000000000000000000000000000000000000000000000000000a2a8b000000000000000000000000000000000000000000000000000000000000000100000000000000000000000000000000000000000000000000000000000000a00000000000000000000000000000000000000000000000000000000000000000"
                            }
                        ],
                        "constructorArguments": "",
                        "name": "proxy",
                        "returnParams": [
                            {
                                "name": "result",
                                "type": "bool",
                                "value": true
                            }
                        ],
                        "signature": "proxy(address,uint8,bytes)"
                    },
                    "errorInfo": "",
                    "fromAddress": "0x7be8076f4ea4a4ad08075c2508e481d6c946d12b",
                    "gasUsed": 47209,
                    "id": 13,
                    "methodDecoded": true,
                    "operation": "CALL",
                    "output": "0x0000000000000000000000000000000000000000000000000000000000000001",
                    "revert": false,
                    "revertMessage": "",
                    "selector": "0x1b0f7ba9",
                    "status": true,
                    "value": "0"
                },
                "nodeType": 0
            },
            "14": {
                "invocation": {
                    "address": "0xf9e266af4bca5890e2781812cc6a6e89495a79f2",
                    "callData": "0x000000000000000000000000d07dc4262bcdbf85190c01c996b4c06a461d24300000000000000000000000000000000000000000000000000000000000000000000000000000000000000000000000000000000000000000000000000000006000000000000000000000000000000000000000000000000000000000000000c4f242432a000000000000000000000000f1c6434cd0b6acdf4a2b36415c92ef06004fe09f0000000000000000000000001ac5d648599b9767b1a1bd13eb8bf082b4c157c200000000000000000000000000000000000000000000000000000000000a2a8b000000000000000000000000000000000000000000000000000000000000000100000000000000000000000000000000000000000000000000000000000000a0000000000000000000000000000000000000000000000000000000000000000000000000000000000000000000000000000000000000000000000000",
                    "decodedMethod": {
                        "callParams": [
                            {
                                "name": "dest",
                                "type": "address",
                                "value": "0xd07dc4262bcdbf85190c01c996b4c06a461d2430"
                            },
                            {
                                "name": "howToCall",
                                "type": "uint8",
                                "value": "0"
                            },
                            {
                                "name": "calldata",
                                "type": "bytes",
                                "value": "0xf242432a000000000000000000000000f1c6434cd0b6acdf4a2b36415c92ef06004fe09f0000000000000000000000001ac5d648599b9767b1a1bd13eb8bf082b4c157c200000000000000000000000000000000000000000000000000000000000a2a8b000000000000000000000000000000000000000000000000000000000000000100000000000000000000000000000000000000000000000000000000000000a00000000000000000000000000000000000000000000000000000000000000000"
                            }
                        ],
                        "constructorArguments": "",
                        "name": "proxy",
                        "returnParams": [
                            {
                                "name": "result",
                                "type": "bool",
                                "value": true
                            }
                        ],
                        "signature": "proxy(address,uint8,bytes)"
                    },
                    "errorInfo": "",
                    "fromAddress": "0x4bf8e81db9d01e3f75bdf11f5d9f0e2768d9d5da",
                    "gasUsed": 43931,
                    "id": 14,
                    "methodDecoded": true,
                    "operation": "DELEGATECALL",
                    "output": "0x0000000000000000000000000000000000000000000000000000000000000001",
                    "revert": false,
                    "revertMessage": "",
                    "selector": "0x1b0f7ba9",
                    "status": true,
                    "value": "0"
                },
                "nodeType": 0
            },
            "15": {
                "invocation": {
                    "address": "0xa5409ec958c83c3f309868babaca7c86dcb077c1",
                    "callData": "0x0000000000000000000000007be8076f4ea4a4ad08075c2508e481d6c946d12b",
                    "decodedMethod": {
                        "callParams": [
                            {
                                "name": "",
                                "type": "address",
                                "value": "0x7be8076f4ea4a4ad08075c2508e481d6c946d12b"
                            }
                        ],
                        "constructorArguments": "",
                        "name": "contracts",
                        "returnParams": [
                            {
                                "name": "",
                                "type": "bool",
                                "value": true
                            }
                        ],
                        "signature": "contracts(address)"
                    },
                    "errorInfo": "",
                    "fromAddress": "0x4bf8e81db9d01e3f75bdf11f5d9f0e2768d9d5da",
                    "gasUsed": 553,
                    "id": 15,
                    "methodDecoded": true,
                    "operation": "CALL",
                    "output": "0x0000000000000000000000000000000000000000000000000000000000000001",
                    "revert": false,
                    "revertMessage": "",
                    "selector": "0x69dc9ff3",
                    "status": true,
                    "value": "0"
                },
                "nodeType": 0
            },
            "16": {
                "invocation": {
                    "address": "0xd07dc4262bcdbf85190c01c996b4c06a461d2430",
                    "callData": "0x000000000000000000000000f1c6434cd0b6acdf4a2b36415c92ef06004fe09f0000000000000000000000001ac5d648599b9767b1a1bd13eb8bf082b4c157c200000000000000000000000000000000000000000000000000000000000a2a8b000000000000000000000000000000000000000000000000000000000000000100000000000000000000000000000000000000000000000000000000000000a0000000000000000000000000000000000000000000000000000000000000000000000000000000000000000000000000000000000000000000000000",
                    "decodedMethod": {
                        "callParams": [
                            {
                                "name": "_from",
                                "type": "address",
                                "value": "0xf1c6434cd0b6acdf4a2b36415c92ef06004fe09f"
                            },
                            {
                                "name": "_to",
                                "type": "address",
                                "value": "0x1ac5d648599b9767b1a1bd13eb8bf082b4c157c2"
                            },
                            {
                                "name": "_id",
                                "type": "uint256",
                                "value": "666,251"
                            },
                            {
                                "name": "_value",
                                "type": "uint256",
                                "value": "1"
                            },
                            {
                                "name": "_data",
                                "type": "bytes",
                                "value": "0x"
                            }
                        ],
                        "constructorArguments": "",
                        "name": "safeTransferFrom",
                        "returnParams": [],
                        "signature": "safeTransferFrom(address,address,uint256,uint256,bytes)"
                    },
                    "errorInfo": "",
                    "fromAddress": "0x4bf8e81db9d01e3f75bdf11f5d9f0e2768d9d5da",
                    "gasUsed": 36806,
                    "id": 16,
                    "methodDecoded": true,
                    "operation": "CALL",
                    "output": "",
                    "revert": false,
                    "revertMessage": "",
                    "selector": "0xf242432a",
                    "status": true,
                    "value": "0"
                },
                "nodeType": 0
            },
            "17": {
                "event": {
                    "contract": "0xd07dc4262bcdbf85190c01c996b4c06a461d2430",
                    "decodedLog": {
                        "name": "TransferSingle",
                        "params": [
                            {
                                "name": "_operator",
                                "type": "address",
                                "value": "0x4bf8e81db9d01e3f75bdf11f5d9f0e2768d9d5da"
                            },
                            {
                                "name": "_from",
                                "type": "address",
                                "value": "0xf1c6434cd0b6acdf4a2b36415c92ef06004fe09f"
                            },
                            {
                                "name": "_to",
                                "type": "address",
                                "value": "0x1ac5d648599b9767b1a1bd13eb8bf082b4c157c2"
                            },
                            {
                                "name": "_id",
                                "type": "uint256",
                                "value": "666,251"
                            },
                            {
                                "name": "_value",
                                "type": "uint256",
                                "value": "1"
                            }
                        ],
                        "signature": "TransferSingle(address,address,address,uint256,uint256)"
                    },
                    "id": 17,
                    "logData": "0x00000000000000000000000000000000000000000000000000000000000a2a8b0000000000000000000000000000000000000000000000000000000000000001",
                    "logDecoded": true,
                    "operation": "EVENT",
                    "revert": false,
                    "status": true,
                    "topics": [
                        "0xc3d58168c5ae7397731d063d5bbf3d657854427343f4c083240f7aacaa2d0f62",
                        "0x0000000000000000000000004bf8e81db9d01e3f75bdf11f5d9f0e2768d9d5da",
                        "0x000000000000000000000000f1c6434cd0b6acdf4a2b36415c92ef06004fe09f",
                        "0x0000000000000000000000001ac5d648599b9767b1a1bd13eb8bf082b4c157c2"
                    ]
                },
                "nodeType": 1
            },
            "18": {
                "event": {
                    "contract": "0x7be8076f4ea4a4ad08075c2508e481d6c946d12b",
                    "decodedLog": {
                        "name": "OrdersMatched",
                        "params": [
                            {
                                "name": "maker",
                                "type": "address",
                                "value": "0x1ac5d648599b9767b1a1bd13eb8bf082b4c157c2"
                            },
                            {
                                "name": "taker",
                                "type": "address",
                                "value": "0xf1c6434cd0b6acdf4a2b36415c92ef06004fe09f"
                            },
                            {
                                "name": "metadata",
                                "type": "bytes32",
                                "value": "0xcd2b3c517d3de4f962dc01700dc57960cdbeb5e9000000000000000000000000"
                            },
                            {
                                "name": "buyHash",
                                "type": "bytes32",
                                "value": "0xd75ecf3849177e6ec89e73a6de6ee9d4d0c8013d71b3acc033226403a3021149"
                            },
                            {
                                "name": "sellHash",
                                "type": "bytes32",
                                "value": "0x0000000000000000000000000000000000000000000000000000000000000000"
                            },
                            {
                                "name": "price",
                                "type": "uint256",
                                "value": "4,050,000,000,000,000,000"
                            }
                        ],
                        "signature": "OrdersMatched(bytes32,bytes32,address,address,uint256,bytes32)"
                    },
                    "id": 18,
                    "logData": "0xd75ecf3849177e6ec89e73a6de6ee9d4d0c8013d71b3acc033226403a3021149000000000000000000000000000000000000000000000000000000000000000000000000000000000000000000000000000000000000000038347d8acc550000",
                    "logDecoded": true,
                    "operation": "EVENT",
                    "revert": false,
                    "status": true,
                    "topics": [
                        "0xc4109843e0b7d514e4c093114b863f8e7d8d9a458c372cd51bfe526b588006c9",
                        "0x0000000000000000000000001ac5d648599b9767b1a1bd13eb8bf082b4c157c2",
                        "0x000000000000000000000000f1c6434cd0b6acdf4a2b36415c92ef06004fe09f",
                        "0xcd2b3c517d3de4f962dc01700dc57960cdbeb5e9000000000000000000000000"
                    ]
                },
                "nodeType": 1
            },
            "2": {
                "invocation": {
                    "address": "0xa5409ec958c83c3f309868babaca7c86dcb077c1",
                    "callData": "0x000000000000000000000000f1c6434cd0b6acdf4a2b36415c92ef06004fe09f",
                    "decodedMethod": {
                        "callParams": [
                            {
                                "name": "",
                                "type": "address",
                                "value": "0xf1c6434cd0b6acdf4a2b36415c92ef06004fe09f"
                            }
                        ],
                        "constructorArguments": "",
                        "name": "proxies",
                        "returnParams": [
                            {
                                "name": "",
                                "type": "address",
                                "value": "0x4bf8e81db9d01e3f75bdf11f5d9f0e2768d9d5da"
                            }
                        ],
                        "signature": "proxies(address)"
                    },
                    "errorInfo": "",
                    "fromAddress": "0x7be8076f4ea4a4ad08075c2508e481d6c946d12b",
                    "gasUsed": 2782,
                    "id": 2,
                    "methodDecoded": true,
                    "operation": "CALL",
                    "output": "0x0000000000000000000000004bf8e81db9d01e3f75bdf11f5d9f0e2768d9d5da",
                    "revert": false,
                    "revertMessage": "",
                    "selector": "0xc4552791",
                    "status": true,
                    "value": "0"
                },
                "nodeType": 0
            },
            "3": {
                "invocation": {
                    "address": "0xa5409ec958c83c3f309868babaca7c86dcb077c1",
                    "callData": "0x",
                    "decodedMethod": {
                        "callParams": [],
                        "constructorArguments": "",
                        "name": "delegateProxyImplementation",
                        "returnParams": [
                            {
                                "name": "",
                                "type": "address",
                                "value": "0xf9e266af4bca5890e2781812cc6a6e89495a79f2"
                            }
                        ],
                        "signature": "delegateProxyImplementation()"
                    },
                    "errorInfo": "",
                    "fromAddress": "0x7be8076f4ea4a4ad08075c2508e481d6c946d12b",
                    "gasUsed": 2613,
                    "id": 3,
                    "methodDecoded": true,
                    "operation": "CALL",
                    "output": "0x000000000000000000000000f9e266af4bca5890e2781812cc6a6e89495a79f2",
                    "revert": false,
                    "revertMessage": "",
                    "selector": "0x97204d8e",
                    "status": true,
                    "value": "0"
                },
                "nodeType": 0
            },
            "4": {
                "invocation": {
                    "address": "0x4bf8e81db9d01e3f75bdf11f5d9f0e2768d9d5da",
                    "callData": "0x",
                    "decodedMethod": {
                        "callParams": [],
                        "constructorArguments": "",
                        "name": "implementation",
                        "returnParams": [
                            {
                                "name": "",
                                "type": "address",
                                "value": "0xf9e266af4bca5890e2781812cc6a6e89495a79f2"
                            }
                        ],
                        "signature": "implementation()"
                    },
                    "errorInfo": "",
                    "fromAddress": "0x7be8076f4ea4a4ad08075c2508e481d6c946d12b",
                    "gasUsed": 2525,
                    "id": 4,
                    "methodDecoded": true,
                    "operation": "CALL",
                    "output": "0x000000000000000000000000f9e266af4bca5890e2781812cc6a6e89495a79f2",
                    "revert": false,
                    "revertMessage": "",
                    "selector": "0x5c60da1b",
                    "status": true,
                    "value": "0"
                },
                "nodeType": 0
            },
            "5": {
                "invocation": {
                    "address": "0xe5c783ee536cf5e63e792988335c4255169be4e1",
                    "callData": "0x000000000000000000000000c02aaa39b223fe8d0a0e5c4f27ead9083c756cc20000000000000000000000001ac5d648599b9767b1a1bd13eb8bf082b4c157c2000000000000000000000000f1c6434cd0b6acdf4a2b36415c92ef06004fe09f00000000000000000000000000000000000000000000000038347d8acc550000",
                    "decodedMethod": {
                        "callParams": [
                            {
                                "name": "token",
                                "type": "address",
                                "value": "0xc02aaa39b223fe8d0a0e5c4f27ead9083c756cc2"
                            },
                            {
                                "name": "from",
                                "type": "address",
                                "value": "0x1ac5d648599b9767b1a1bd13eb8bf082b4c157c2"
                            },
                            {
                                "name": "to",
                                "type": "address",
                                "value": "0xf1c6434cd0b6acdf4a2b36415c92ef06004fe09f"
                            },
                            {
                                "name": "amount",
                                "type": "uint256",
                                "value": "4,050,000,000,000,000,000"
                            }
                        ],
                        "constructorArguments": "",
                        "name": "transferFrom",
                        "returnParams": [
                            {
                                "name": "",
                                "type": "bool",
                                "value": true
                            }
                        ],
                        "signature": "transferFrom(address,address,address,uint256)"
                    },
                    "errorInfo": "",
                    "fromAddress": "0x7be8076f4ea4a4ad08075c2508e481d6c946d12b",
                    "gasUsed": 40433,
                    "id": 5,
                    "methodDecoded": true,
                    "operation": "CALL",
                    "output": "0x0000000000000000000000000000000000000000000000000000000000000001",
                    "revert": false,
                    "revertMessage": "",
                    "selector": "0x15dacbea",
                    "status": true,
                    "value": "0"
                },
                "nodeType": 0
            },
            "6": {
                "invocation": {
                    "address": "0xa5409ec958c83c3f309868babaca7c86dcb077c1",
                    "callData": "0x0000000000000000000000007be8076f4ea4a4ad08075c2508e481d6c946d12b",
                    "decodedMethod": {
                        "callParams": [
                            {
                                "name": "",
                                "type": "address",
                                "value": "0x7be8076f4ea4a4ad08075c2508e481d6c946d12b"
                            }
                        ],
                        "constructorArguments": "",
                        "name": "contracts",
                        "returnParams": [
                            {
                                "name": "",
                                "type": "bool",
                                "value": true
                            }
                        ],
                        "signature": "contracts(address)"
                    },
                    "errorInfo": "",
                    "fromAddress": "0xe5c783ee536cf5e63e792988335c4255169be4e1",
                    "gasUsed": 2553,
                    "id": 6,
                    "methodDecoded": true,
                    "operation": "CALL",
                    "output": "0x0000000000000000000000000000000000000000000000000000000000000001",
                    "revert": false,
                    "revertMessage": "",
                    "selector": "0x69dc9ff3",
                    "status": true,
                    "value": "0"
                },
                "nodeType": 0
            },
            "7": {
                "invocation": {
                    "address": "0xc02aaa39b223fe8d0a0e5c4f27ead9083c756cc2",
                    "callData": "0x0000000000000000000000001ac5d648599b9767b1a1bd13eb8bf082b4c157c2000000000000000000000000f1c6434cd0b6acdf4a2b36415c92ef06004fe09f00000000000000000000000000000000000000000000000038347d8acc550000",
                    "decodedMethod": {
                        "callParams": [
                            {
                                "name": "src",
                                "type": "address",
                                "value": "0x1ac5d648599b9767b1a1bd13eb8bf082b4c157c2"
                            },
                            {
                                "name": "dst",
                                "type": "address",
                                "value": "0xf1c6434cd0b6acdf4a2b36415c92ef06004fe09f"
                            },
                            {
                                "decimalAvailable": true,
                                "name": "wad",
                                "type": "uint256",
                                "value": "4,050,000,000,000,000,000"
                            }
                        ],
                        "constructorArguments": "",
                        "name": "transferFrom",
                        "returnParams": [
                            {
                                "name": "",
                                "type": "bool",
                                "value": true
                            }
                        ],
                        "signature": "transferFrom(address,address,uint256)"
                    },
                    "errorInfo": "",
                    "fromAddress": "0xe5c783ee536cf5e63e792988335c4255169be4e1",
                    "gasUsed": 32125,
                    "id": 7,
                    "methodDecoded": true,
                    "operation": "CALL",
                    "output": "0x0000000000000000000000000000000000000000000000000000000000000001",
                    "revert": false,
                    "revertMessage": "",
                    "selector": "0x23b872dd",
                    "status": true,
                    "value": "0"
                },
                "nodeType": 0
            },
            "8": {
                "event": {
                    "contract": "0xc02aaa39b223fe8d0a0e5c4f27ead9083c756cc2",
                    "decodedLog": {
                        "name": "Transfer",
                        "params": [
                            {
                                "name": "src",
                                "type": "address",
                                "value": "0x1ac5d648599b9767b1a1bd13eb8bf082b4c157c2"
                            },
                            {
                                "name": "dst",
                                "type": "address",
                                "value": "0xf1c6434cd0b6acdf4a2b36415c92ef06004fe09f"
                            },
                            {
                                "decimalAvailable": true,
                                "name": "wad",
                                "type": "uint256",
                                "value": "4,050,000,000,000,000,000"
                            }
                        ],
                        "signature": "Transfer(address,address,uint256)"
                    },
                    "id": 8,
                    "logData": "0x00000000000000000000000000000000000000000000000038347d8acc550000",
                    "logDecoded": true,
                    "operation": "EVENT",
                    "revert": false,
                    "status": true,
                    "topics": [
                        "0xddf252ad1be2c89b69c2b068fc378daa952ba7f163c4a11628f55a4df523b3ef",
                        "0x0000000000000000000000001ac5d648599b9767b1a1bd13eb8bf082b4c157c2",
                        "0x000000000000000000000000f1c6434cd0b6acdf4a2b36415c92ef06004fe09f"
                    ]
                },
                "nodeType": 1
            },
            "9": {
                "invocation": {
                    "address": "0xe5c783ee536cf5e63e792988335c4255169be4e1",
                    "callData": "0x000000000000000000000000c02aaa39b223fe8d0a0e5c4f27ead9083c756cc2000000000000000000000000f1c6434cd0b6acdf4a2b36415c92ef06004fe09f0000000000000000000000005b3256965e7c3cf26e11fcaf296dfc8807c010730000000000000000000000000000000000000000000000000167b656ab822000",
                    "decodedMethod": {
                        "callParams": [
                            {
                                "name": "token",
                                "type": "address",
                                "value": "0xc02aaa39b223fe8d0a0e5c4f27ead9083c756cc2"
                            },
                            {
                                "name": "from",
                                "type": "address",
                                "value": "0xf1c6434cd0b6acdf4a2b36415c92ef06004fe09f"
                            },
                            {
                                "name": "to",
                                "type": "address",
                                "value": "0x5b3256965e7c3cf26e11fcaf296dfc8807c01073"
                            },
                            {
                                "name": "amount",
                                "type": "uint256",
                                "value": "101,250,000,000,000,000"
                            }
                        ],
                        "constructorArguments": "",
                        "name": "transferFrom",
                        "returnParams": [
                            {
                                "name": "",
                                "type": "bool",
                                "value": true
                            }
                        ],
                        "signature": "transferFrom(address,address,address,uint256)"
                    },
                    "errorInfo": "",
                    "fromAddress": "0x7be8076f4ea4a4ad08075c2508e481d6c946d12b",
                    "gasUsed": 12033,
                    "id": 9,
                    "methodDecoded": true,
                    "operation": "CALL",
                    "output": "0x0000000000000000000000000000000000000000000000000000000000000001",
                    "revert": false,
                    "revertMessage": "",
                    "selector": "0x15dacbea",
                    "status": true,
                    "value": "0"
                },
                "nodeType": 0
            }
        },
        "gasFlame": [
            {
                "children": [
                    {
                        "children": [
                            {
                                "children": [],
                                "depth": 0,
                                "name": "Initial Gas",
                                "value": 39148
                            },
                            {
                                "children": [
                                    {
                                        "children": [],
                                        "depth": 1,
                                        "name": "ecrecover",
                                        "value": 3000
                                    },
                                    {
                                        "children": [],
                                        "depth": 1,
                                        "name": "proxies",
                                        "value": 2782
                                    },
                                    {
                                        "children": [],
                                        "depth": 1,
                                        "name": "delegateProxyImplementation",
                                        "value": 2613
                                    },
                                    {
                                        "children": [],
                                        "depth": 1,
                                        "name": "implementation",
                                        "value": 2525
                                    },
                                    {
                                        "children": [
                                            {
                                                "children": [],
                                                "depth": 2,
                                                "name": "contracts",
                                                "value": 2553
                                            },
                                            {
                                                "children": [],
                                                "depth": 2,
                                                "name": "transferFrom",
                                                "value": 32125
                                            }
                                        ],
                                        "depth": 1,
                                        "name": "transferFrom",
                                        "value": 40433
                                    },
                                    {
                                        "children": [
                                            {
                                                "children": [],
                                                "depth": 2,
                                                "name": "contracts",
                                                "value": 553
                                            },
                                            {
                                                "children": [],
                                                "depth": 2,
                                                "name": "transferFrom",
                                                "value": 10225
                                            }
                                        ],
                                        "depth": 1,
                                        "name": "transferFrom",
                                        "value": 12033
                                    },
                                    {
                                        "children": [
                                            {
                                                "children": [
                                                    {
                                                        "children": [],
                                                        "depth": 3,
                                                        "name": "contracts",
                                                        "value": 553
                                                    },
                                                    {
                                                        "children": [],
                                                        "depth": 3,
                                                        "name": "safeTransferFrom",
                                                        "value": 36806
                                                    }
                                                ],
                                                "depth": 2,
                                                "name": "proxy",
                                                "value": 43931
                                            }
                                        ],
                                        "depth": 1,
                                        "name": "proxy",
                                        "value": 47209
                                    }
                                ],
                                "depth": 0,
                                "name": "Executed Gas",
                                "value": 193812
                            }
                        ],
                        "depth": -1,
                        "name": "Actual Gas Used",
                        "value": 225360
                    },
                    {
                        "children": [],
                        "depth": -1,
                        "name": "Refunded Gas",
                        "value": 7600
                    }
                ],
                "depth": -2,
                "name": "Total Gas",
                "value": 232960
            }
        ],
        "isConfirmed": true,
        "mainTrace": [
            {
                "children": [
                    {
                        "children": [
                            {
                                "children": [],
                                "depth": 1,
                                "id": 1,
                                "order": 1
                            },
                            {
                                "children": [],
                                "depth": 1,
                                "id": 2,
                                "order": 2
                            },
                            {
                                "children": [],
                                "depth": 1,
                                "id": 3,
                                "order": 3
                            },
                            {
                                "children": [],
                                "depth": 1,
                                "id": 4,
                                "order": 4
                            },
                            {
                                "children": [
                                    {
                                        "children": [],
                                        "depth": 2,
                                        "id": 6,
                                        "order": 6
                                    },
                                    {
                                        "children": [
                                            {
                                                "children": [],
                                                "depth": 3,
                                                "id": 8,
                                                "order": 8
                                            }
                                        ],
                                        "depth": 2,
                                        "id": 7,
                                        "order": 7
                                    }
                                ],
                                "depth": 1,
                                "id": 5,
                                "order": 5
                            },
                            {
                                "children": [
                                    {
                                        "children": [],
                                        "depth": 2,
                                        "id": 10,
                                        "order": 10
                                    },
                                    {
                                        "children": [
                                            {
                                                "children": [],
                                                "depth": 3,
                                                "id": 12,
                                                "order": 12
                                            }
                                        ],
                                        "depth": 2,
                                        "id": 11,
                                        "order": 11
                                    }
                                ],
                                "depth": 1,
                                "id": 9,
                                "order": 9
                            },
                            {
                                "children": [
                                    {
                                        "children": [
                                            {
                                                "children": [],
                                                "depth": 3,
                                                "id": 15,
                                                "order": 15
                                            },
                                            {
                                                "children": [
                                                    {
                                                        "children": [],
                                                        "depth": 4,
                                                        "id": 17,
                                                        "order": 17
                                                    }
                                                ],
                                                "depth": 3,
                                                "id": 16,
                                                "order": 16
                                            }
                                        ],
                                        "depth": 2,
                                        "id": 14,
                                        "order": 14
                                    }
                                ],
                                "depth": 1,
                                "id": 13,
                                "order": 13
                            },
                            {
                                "children": [],
                                "depth": 1,
                                "id": 18,
                                "order": 18
                            }
                        ],
                        "depth": 0,
                        "id": 0,
                        "order": 0
                    }
                ],
                "depth": -1,
                "id": -1,
                "order": -1
            }
        ],
        "mainTraceNodeCount": 19,
        "parentIdMap": {
            "0": -1,
            "1": 0,
            "10": 9,
            "11": 9,
            "12": 11,
            "13": 0,
            "14": 13,
            "15": 14,
            "16": 14,
            "17": 16,
            "18": 0,
            "2": 0,
            "3": 0,
            "4": 0,
            "5": 0,
            "6": 5,
            "7": 5,
            "8": 7,
            "9": 0
        },
        "tidyTrace": [
            {
                "children": [
                    {
                        "children": [
                            {
                                "children": [],
                                "depth": 1,
                                "id": 1,
                                "order": 1
                            },
                            {
                                "children": [],
                                "depth": 1,
                                "id": 2,
                                "order": 2
                            },
                            {
                                "children": [],
                                "depth": 1,
                                "id": 3,
                                "order": 3
                            },
                            {
                                "children": [],
                                "depth": 1,
                                "id": 4,
                                "order": 4
                            },
                            {
                                "children": [
                                    {
                                        "children": [],
                                        "depth": 2,
                                        "id": 6,
                                        "order": 6
                                    },
                                    {
                                        "children": [
                                            {
                                                "children": [],
                                                "depth": 3,
                                                "id": 8,
                                                "order": 8
                                            }
                                        ],
                                        "depth": 2,
                                        "id": 7,
                                        "order": 7
                                    }
                                ],
                                "depth": 1,
                                "id": 5,
                                "order": 5
                            },
                            {
                                "children": [
                                    {
                                        "children": [],
                                        "depth": 2,
                                        "id": 10,
                                        "order": 10
                                    },
                                    {
                                        "children": [
                                            {
                                                "children": [],
                                                "depth": 3,
                                                "id": 12,
                                                "order": 12
                                            }
                                        ],
                                        "depth": 2,
                                        "id": 11,
                                        "order": 11
                                    }
                                ],
                                "depth": 1,
                                "id": 9,
                                "order": 9
                            },
                            {
                                "children": [
                                    {
                                        "children": [
                                            {
                                                "children": [],
                                                "depth": 3,
                                                "id": 15,
                                                "order": 15
                                            },
                                            {
                                                "children": [
                                                    {
                                                        "children": [],
                                                        "depth": 4,
                                                        "id": 17,
                                                        "order": 17
                                                    }
                                                ],
                                                "depth": 3,
                                                "id": 16,
                                                "order": 16
                                            }
                                        ],
                                        "depth": 2,
                                        "id": 14,
                                        "order": 14
                                    }
                                ],
                                "depth": 1,
                                "id": 13,
                                "order": 13
                            },
                            {
                                "children": [],
                                "depth": 1,
                                "id": 18,
                                "order": 18
                            }
                        ],
                        "depth": 0,
                        "id": 0,
                        "order": 0
                    }
                ],
                "depth": -1,
                "id": -1,
                "order": -1
            }
        ],
        "tidyTraceNodeCount": 19
    },
    "state_change": {
        "stateChanges": [
            {
                "address": "0x7be8076f4ea4a4ad08075c2508e481d6c946d12b",
                "erc": "",
                "slots": [
                    {
                        "current": "0x0000000000000000000000000000000000000000000000000000000000000001",
                        "key": "0x49809b56579b6a4fc3ef8e947b3dd3cf5ae64cf2e3ca3a9452cd037f9db120b9",
                        "prev": "0x0000000000000000000000000000000000000000000000000000000000000000"
                    }
                ],
                "storageVariables": [
                    {
                        "name": "cancelledOrFinalized",
                        "type": "mapping(bytes32 => bool)",
                        "value": {
                            "pairs": [
                                {
                                    "key": "0xd75ecf3849177e6ec89e73a6de6ee9d4d0c8013d71b3acc033226403a3021149",
                                    "value": {
                                        "current": "true",
                                        "prev": "false",
                                        "typeTag": 1
                                    }
                                }
                            ],
                            "typeTag": 4
                        }
                    }
                ]
            },
            {
                "address": "0xc02aaa39b223fe8d0a0e5c4f27ead9083c756cc2",
                "erc": "ERC-20",
                "slots": [
                    {
                        "current": "0x00000000000000000000000000000000000000000000000036ccc73420d2e000",
                        "key": "0xbd06bd1cd8777556c2919c21b4d3896a7cef913f521ae3c559fd24d662320fc9",
                        "prev": "0x0000000000000000000000000000000000000000000000000000000000000000"
                    },
                    {
                        "current": "0x000000000000000000000000000000000000000000000000066860916b56e985",
                        "key": "0xdef60f1e63a7fd4183193fa215c4667b07e6636b25ad206a33d31b16c74a78a2",
                        "prev": "0x0000000000000000000000000000000000000000000000003e9cde1c37abe985"
                    },
                    {
                        "current": "0x0000000000000000000000000000000000000000000000005f7008f5d985b956",
                        "key": "0xf916da991df3618c050885260c1828ed5b0fef53cffdc400ab5b066988bdca47",
                        "prev": "0x0000000000000000000000000000000000000000000000005e08529f2e039956"
                    }
                ],
                "storageVariables": [
                    {
                        "name": "balanceOf",
                        "type": "mapping(address => uint256)",
                        "value": {
                            "pairs": [
                                {
                                    "key": "0x1ac5d648599b9767b1a1bd13eb8bf082b4c157c2",
                                    "value": {
                                        "current": "461725139492858245",
                                        "prev": "4511725139492858245",
                                        "typeTag": 1
                                    }
                                },
                                {
                                    "key": "0x5b3256965e7c3cf26e11fcaf296dfc8807c01073",
                                    "value": {
                                        "current": "6877006483004176726",
                                        "prev": "6775756483004176726",
                                        "typeTag": 1
                                    }
                                },
                                {
                                    "key": "0xf1c6434cd0b6acdf4a2b36415c92ef06004fe09f",
                                    "value": {
                                        "current": "3948750000000000000",
                                        "prev": "0",
                                        "typeTag": 1
                                    }
                                }
                            ],
                            "typeTag": 4
                        }
                    }
                ]
            },
            {
                "address": "0xd07dc4262bcdbf85190c01c996b4c06a461d2430",
                "erc": "ERC-1155",
                "slots": [
                    {
                        "current": "0x0000000000000000000000000000000000000000000000000000000000000000",
                        "key": "0x4dc2541fcf95d41e6722a61588bd4c67bb0b08957d868ecd92a8223d6efc828e",
                        "prev": "0x0000000000000000000000000000000000000000000000000000000000000001"
                    },
                    {
                        "current": "0x0000000000000000000000000000000000000000000000000000000000000001",
                        "key": "0x4d975facbd0733e6873ade9cb6e6da34418256411a96b6bf4c97b4e2bdd3055e",
                        "prev": "0x0000000000000000000000000000000000000000000000000000000000000000"
                    }
                ],
                "storageVariables": [
                    {
                        "name": "balances",
                        "type": "mapping(uint256 => mapping(address => uint256))",
                        "value": {
                            "pairs": [
                                {
                                    "key": "666251",
                                    "value": {
                                        "pairs": [
                                            {
                                                "key": "0x1ac5d648599b9767b1a1bd13eb8bf082b4c157c2",
                                                "value": {
                                                    "current": "1",
                                                    "prev": "0",
                                                    "typeTag": 1
                                                }
                                            },
                                            {
                                                "key": "0xf1c6434cd0b6acdf4a2b36415c92ef06004fe09f",
                                                "value": {
                                                    "current": "0",
                                                    "prev": "1",
                                                    "typeTag": 1
                                                }
                                            }
                                        ],
                                        "typeTag": 4
                                    }
                                }
                            ],
                            "typeTag": 4
                        }
                    }
                ]
            }
        ]
    }
}