{
    "balance_change": {
        "balanceChanges": [
            {
                "account": "0x8f8bab5a44053b4654abef84474208627ca55ad3",
                "assets": [
                    {
                        "address": "0xeeeeeeeeeeeeeeeeeeeeeeeeeeeeeeeeeeeeeeee",
                        "amount": "0.0196",
                        "iconUrl": "https://assets.blocksec.com/image/1663669189317-3.png",
                        "isERC1155": false,
                        "isERC721": false,
                        "sign": false,
                        "value": "24.981767999999998574"
                    }
                ]
            },
            {
                "account": "0xf5c9f957705bea56a7e806943f98f7777b995826",
                "assets": [
                    {
                        "address": "0xeeeeeeeeeeeeeeeeeeeeeeeeeeeeeeeeeeeeeeee",
                        "amount": "0.0196",
                        "iconUrl": "https://assets.blocksec.com/image/1663669189317-3.png",
                        "isERC1155": false,
                        "isERC721": false,
                        "sign": true,
                        "value": "24.981767999999998574"
                    }
                ]
            }
        ]
    },
    "profile": {
        "basic_info": {
            "baseFee": "9.937743354",
            "blockNumber": 16114233,
            "callData": "0x6ce5d957032419d8db1843bf9b65ab36b70b7239eb788d484d700d52a2cdf180d496a63000b333e3142fe16b78628f19bb15afddaef437e72d6d7f5c6c20c6801a27fba60000000000000000000000000000000000000000000000000000000000a1b380",
            "debugEnable": true,
            "errorInfo": "",
            "eventCount": 1,
            "feeRecipient": "0xdafea492d9c6733ae3d56b7ed1adb60692c98bc5",
            "formatValue": "0.0196",
            "gasLimit": 76908,
            "gasPrice": "12.437743354",
            "gasUsed": 75534,
            "intTxnCount": 2,
            "internalRevert": false,
            "internalRevertMessage": "",
            "isContractCreation": false,
            "isFlashloan": false,
            "maxFee": "24.537838362",
            "nonce": 281,
            "overwritedBlockNumber": -1,
            "priorityFee": "2.5",
            "receiver": "0xf5c9f957705bea56a7e806943f98f7777b995826",
            "revertMessage": "",
            "sender": "0x8f8bab5a44053b4654abef84474208627ca55ad3",
            "simulationEnable": true,
            "sourceTxnHash": "0x3522c42280df4feb0de40065bab3de6a637eb922579a38ba96b16071aa716937",
            "status": true,
            "timestamp": "2022-12-04T21:50:11Z",
            "transactionFee": "0.000939472506501036",
            "txnHash": "0x3522c42280df4feb0de40065bab3de6a637eb922579a38ba96b16071aa716937",
            "txnIndex": 35,
            "type": 2,
            "value": "19600000000000000"
        },
        "fund_flow": [
            {
                "amount": "0.0196",
                "from": "0x8f8bab5a44053b4654abef84474208627ca55ad3",
                "id": 1,
                "isERC1155": false,
                "isERC721": false,
                "isReverted": false,
                "order": 1,
                "to": "0xf5c9f957705bea56a7e806943f98f7777b995826",
                "token": "0xeeeeeeeeeeeeeeeeeeeeeeeeeeeeeeeeeeeeeeee"
            }
        ],
        "token_infos": [
            {
                "address": "0xc02aaa39b223fe8d0a0e5c4f27ead9083c756cc2",
                "decimals": 18
            },
            {
                "address": "0xeeeeeeeeeeeeeeeeeeeeeeeeeeeeeeeeeeeeeeee",
                "decimals": 18
            }
        ]
    },
    "address_label": {
        "labels": [
            {
                "address": "0x0000000000000000000000000000000000000001",
                "label": "Precompiled"
            },
            {
                "address": "0x0000000000000000000000000000000000000002",
                "label": "Precompiled"
            },
            {
                "address": "0x0000000000000000000000000000000000000003",
                "label": "Precompiled"
            },
            {
                "address": "0x0000000000000000000000000000000000000004",
                "label": "Precompiled"
            },
            {
                "address": "0xeeeeeeeeeeeeeeeeeeeeeeeeeeeeeeeeeeeeeeee",
                "label": "Ether"
            },
            {
                "address": "0xf5c9f957705bea56a7e806943f98f7777b995826",
                "label": "Sorare: L2 Bridge"
            },
            {
                "address": "0x8536850750956c2feebecab786d82271a5467687",
                "label": "TokensAndRamping"
            },
            {
                "address": "0x4edd62189732e9ff476aba880b48c29432a7ac9b",
                "label": "StarkExchange"
            }
        ]
    },
    "trace": {
        "accountLabels": null,
        "dataMap": {
            "-1": {
                "invocation": {
                    "address": "0x8f8bab5a44053b4654abef84474208627ca55ad3",
                    "callData": "",
                    "decodedMethod": null,
                    "errorInfo": "",
                    "fromAddress": "",
                    "gasUsed": 0,
                    "id": -1,
                    "methodDecoded": false,
                    "operation": "",
                    "output": "",
                    "revert": false,
                    "revertMessage": "",
                    "selector": "",
                    "status": false,
                    "value": ""
                },
                "nodeType": 0
            },
            "0": {
                "invocation": {
                    "address": "0xf5c9f957705bea56a7e806943f98f7777b995826",
                    "callData": "0x032419d8db1843bf9b65ab36b70b7239eb788d484d700d52a2cdf180d496a63000b333e3142fe16b78628f19bb15afddaef437e72d6d7f5c6c20c6801a27fba60000000000000000000000000000000000000000000000000000000000a1b380",
                    "decodedMethod": {
                        "callParams": [
                            {
                                "name": "starkKey",
                                "type": "uint256",
                                "value": "1,420,723,430,162,344,639,961,527,519,981,472,365,906,593,993,441,404,387,401,129,268,611,835,668,016"
                            },
                            {
                                "name": "assetType",
                                "type": "uint256",
                                "value": "316,623,735,692,853,304,525,146,192,642,758,839,706,355,829,840,274,185,964,789,512,850,136,103,846"
                            },
                            {
                                "name": "vaultId",
                                "type": "uint256",
                                "value": "10,597,248"
                            }
                        ],
                        "constructorArguments": "",
                        "name": "depositEth",
                        "returnParams": [],
                        "signature": "depositEth(uint256,uint256,uint256)"
                    },
                    "errorInfo": "",
                    "fromAddress": "0x8f8bab5a44053b4654abef84474208627ca55ad3",
                    "gasUsed": 75534,
                    "id": 0,
                    "methodDecoded": true,
                    "operation": "CALL",
                    "output": "",
                    "revert": false,
                    "revertMessage": "",
                    "selector": "0x6ce5d957",
                    "status": true,
                    "value": "0.0196"
                },
                "nodeType": 0
            },
            "1": {
                "invocation": {
                    "address": "0x4edd62189732e9ff476aba880b48c29432a7ac9b",
                    "callData": "0x032419d8db1843bf9b65ab36b70b7239eb788d484d700d52a2cdf180d496a63000b333e3142fe16b78628f19bb15afddaef437e72d6d7f5c6c20c6801a27fba60000000000000000000000000000000000000000000000000000000000a1b380",
                    "decodedMethod": {
                        "callParams": [
                            {
                                "name": "starkKey",
                                "type": "uint256",
                                "value": "1,420,723,430,162,344,639,961,527,519,981,472,365,906,593,993,441,404,387,401,129,268,611,835,668,016"
                            },
                            {
                                "name": "assetType",
                                "type": "uint256",
                                "value": "316,623,735,692,853,304,525,146,192,642,758,839,706,355,829,840,274,185,964,789,512,850,136,103,846"
                            },
                            {
                                "name": "vaultId",
                                "type": "uint256",
                                "value": "10,597,248"
                            }
                        ],
                        "constructorArguments": "",
                        "name": "depositEth",
                        "returnParams": [],
                        "signature": "depositEth(uint256,uint256,uint256)"
                    },
                    "errorInfo": "",
                    "fromAddress": "0xf5c9f957705bea56a7e806943f98f7777b995826",
                    "gasUsed": 48180,
                    "id": 1,
                    "methodDecoded": true,
                    "operation": "DELEGATECALL",
                    "output": "",
                    "revert": false,
                    "revertMessage": "",
                    "selector": "0x6ce5d957",
                    "status": true,
                    "value": "0.0196"
                },
                "nodeType": 0
            },
            "2": {
                "invocation": {
                    "address": "0x8536850750956c2feebecab786d82271a5467687",
                    "callData": "0x032419d8db1843bf9b65ab36b70b7239eb788d484d700d52a2cdf180d496a63000b333e3142fe16b78628f19bb15afddaef437e72d6d7f5c6c20c6801a27fba60000000000000000000000000000000000000000000000000000000000a1b380",
                    "decodedMethod": {
                        "callParams": [
                            {
                                "name": "starkKey",
                                "type": "uint256",
                                "value": "1,420,723,430,162,344,639,961,527,519,981,472,365,906,593,993,441,404,387,401,129,268,611,835,668,016"
                            },
                            {
                                "name": "assetType",
                                "type": "uint256",
                                "value": "316,623,735,692,853,304,525,146,192,642,758,839,706,355,829,840,274,185,964,789,512,850,136,103,846"
                            },
                            {
                                "name": "vaultId",
                                "type": "uint256",
                                "value": "10,597,248"
                            }
                        ],
                        "constructorArguments": "",
                        "name": "depositEth",
                        "returnParams": [],
                        "signature": "depositEth(uint256,uint256,uint256)"
                    },
                    "errorInfo": "",
                    "fromAddress": "0xf5c9f957705bea56a7e806943f98f7777b995826",
                    "gasUsed": 42644,
                    "id": 2,
                    "methodDecoded": true,
                    "operation": "DELEGATECALL",
                    "output": "",
                    "revert": false,
                    "revertMessage": "",
                    "selector": "0x6ce5d957",
                    "status": true,
                    "value": "0.0196"
                },
                "nodeType": 0
            },
            "3": {
                "event": {
                    "contract": "0xf5c9f957705bea56a7e806943f98f7777b995826",
                    "decodedLog": {
                        "name": "LogDeposit",
                        "params": [
                            {
                                "name": "depositorEthKey",
                                "type": "address",
                                "value": "0x8f8bab5a44053b4654abef84474208627ca55ad3"
                            },
                            {
                                "name": "starkKey",
                                "type": "uint256",
                                "value": "1,420,723,430,162,344,639,961,527,519,981,472,365,906,593,993,441,404,387,401,129,268,611,835,668,016"
                            },
                            {
                                "name": "vaultId",
                                "type": "uint256",
                                "value": "10,597,248"
                            },
                            {
                                "name": "assetType",
                                "type": "uint256",
                                "value": "316,623,735,692,853,304,525,146,192,642,758,839,706,355,829,840,274,185,964,789,512,850,136,103,846"
                            },
                            {
                                "name": "nonQuantizedAmount",
                                "type": "uint256",
                                "value": "19,600,000,000,000,000"
                            },
                            {
                                "name": "quantizedAmount",
                                "type": "uint256",
                                "value": "1,960,000"
                            }
                        ],
                        "signature": "LogDeposit(address,uint256,uint256,uint256,uint256,uint256)"
                    },
                    "id": 3,
                    "logData": "0x0000000000000000000000008f8bab5a44053b4654abef84474208627ca55ad3032419d8db1843bf9b65ab36b70b7239eb788d484d700d52a2cdf180d496a6300000000000000000000000000000000000000000000000000000000000a1b38000b333e3142fe16b78628f19bb15afddaef437e72d6d7f5c6c20c6801a27fba60000000000000000000000000000000000000000000000000045a2189d99000000000000000000000000000000000000000000000000000000000000001de840",
                    "logDecoded": true,
                    "operation": "EVENT",
                    "revert": false,
                    "status": true,
                    "topics": [
                        "0x06724742ccc8c330a39a641ef02a0b419bd09248360680bb38159b0a8c2635d6"
                    ]
                },
                "nodeType": 1
            }
        },
        "gasFlame": [
            {
                "children": [
                    {
                        "children": [
                            {
                                "children": [],
                                "depth": 0,
                                "name": "Initial Gas",
                                "value": 22240
                            },
                            {
                                "children": [
                                    {
                                        "children": [
                                            {
                                                "children": [],
                                                "depth": 2,
                                                "name": "depositEth",
                                                "value": 42644
                                            }
                                        ],
                                        "depth": 1,
                                        "name": "depositEth",
                                        "value": 48180
                                    }
                                ],
                                "depth": 0,
                                "name": "Executed Gas",
                                "value": 53294
                            }
                        ],
                        "depth": -1,
                        "name": "Actual Gas Used",
                        "value": 75534
                    },
                    {
                        "children": [],
                        "depth": -1,
                        "name": "Refunded Gas",
                        "value": 0
                    }
                ],
                "depth": -2,
                "name": "Total Gas",
                "value": 75534
            }
        ],
        "isConfirmed": true,
        "mainTrace": [
            {
                "children": [
                    {
                        "children": [
                            {
                                "children": [
                                    {
                                        "children": [
                                            {
                                                "children": [],
                                                "depth": 3,
                                                "id": 3,
                                                "order": 3
                                            }
                                        ],
                                        "depth": 2,
                                        "id": 2,
                                        "order": 2
                                    }
                                ],
                                "depth": 1,
                                "id": 1,
                                "order": 1
                            }
                        ],
                        "depth": 0,
                        "id": 0,
                        "order": 0
                    }
                ],
                "depth": -1,
                "id": -1,
                "order": -1
            }
        ],
        "mainTraceNodeCount": 4,
        "parentIdMap": {
            "0": -1,
            "1": 0,
            "2": 1,
            "3": 2
        },
        "tidyTrace": [
            {
                "children": [
                    {
                        "children": [
                            {
                                "children": [
                                    {
                                        "children": [
                                            {
                                                "children": [],
                                                "depth": 3,
                                                "id": 3,
                                                "order": 3
                                            }
                                        ],
                                        "depth": 2,
                                        "id": 2,
                                        "order": 2
                                    }
                                ],
                                "depth": 1,
                                "id": 1,
                                "order": 1
                            }
                        ],
                        "depth": 0,
                        "id": 0,
                        "order": 0
                    }
                ],
                "depth": -1,
                "id": -1,
                "order": -1
            }
        ],
        "tidyTraceNodeCount": 4
    },
    "state_change": {
        "stateChanges": [
            {
                "address": "0xf5c9f957705bea56a7e806943f98f7777b995826",
                "erc": "",
                "slots": [
                    {
                        "current": "0x00000000000000000000000000000000000000000000000000000000001de840",
                        "key": "0x63e26f0a7159e83457cf9326ef19cfcd1fe14db1320dbe552028512af6ad8bef",
                        "prev": "0x0000000000000000000000000000000000000000000000000000000000000000"
                    }
                ],
                "storageVariables": [
                    {
                        "name": "pendingDeposits",
                        "type": "mapping(uint256 => mapping(uint256 => mapping(uint256 => uint256)))",
                        "value": {
                            "pairs": [
                                {
                                    "key": "1420723430162344639961527519981472365906593993441404387401129268611835668016",
                                    "value": {
                                        "pairs": [
                                            {
                                                "key": "316623735692853304525146192642758839706355829840274185964789512850136103846",
                                                "value": {
                                                    "pairs": [
                                                        {
                                                            "key": "10597248",
                                                            "value": {
                                                                "current": "1960000",
                                                                "prev": "0",
                                                                "typeTag": 1
                                                            }
                                                        }
                                                    ],
                                                    "typeTag": 4
                                                }
                                            }
                                        ],
                                        "typeTag": 4
                                    }
                                }
                            ],
                            "typeTag": 4
                        }
                    }
                ]
            }
        ]
    }
}