{
    "balance_change": {
        "balanceChanges": [
            {
                "account": "0xcc34cc875d2d052f5b1c19652b5e71d6f90c7f7d",
                "assets": [
                    {
                        "address": "0xd533a949740bb3306d119cc777fa900ba034cd52",
                        "amount": "131.70766048",
                        "iconUrl": "",
                        "isERC1155": false,
                        "isERC721": false,
                        "sign": false,
                        "value": "298.9313071"
                    }
                ]
            },
            {
                "account": "0x1157a2076b9bb22a85cc2c162f20fab3898f4101",
                "assets": [
                    {
                        "address": "0xd533a949740bb3306d119cc777fa900ba034cd52",
                        "amount": "131.70766048",
                        "iconUrl": "",
                        "isERC1155": false,
                        "isERC721": false,
                        "sign": true,
                        "value": "298.9313071"
                    }
                ]
            }
        ]
    },
    "profile": {
        "basic_info": {
            "baseFee": "75.871498355",
            "blockNumber": 14578329,
            "callData": "0xa9059cbb0000000000000000000000001157a2076b9bb22a85cc2c162f20fab3898f410100000000000000000000000000000000000000000000000723cf9b63b4278000",
            "debugEnable": true,
            "errorInfo": "",
            "eventCount": 1,
            "feeRecipient": "0x829bd824b016326a401d083b33d092293333a830",
            "formatValue": "0",
            "gasLimit": 34717,
            "gasPrice": "77.871498355",
            "gasUsed": 29437,
            "intTxnCount": 0,
            "internalRevert": false,
            "internalRevertMessage": "",
            "isContractCreation": false,
            "isFlashloan": false,
            "maxFee": "105.46078254",
            "nonce": 448,
            "overwritedBlockNumber": -1,
            "priorityFee": "2",
            "receiver": "0xd533a949740bb3306d119cc777fa900ba034cd52",
            "revertMessage": "",
            "sender": "0xcc34cc875d2d052f5b1c19652b5e71d6f90c7f7d",
            "simulationEnable": true,
            "sourceTxnHash": "0x355a5029ea8daf956a1411514e5aa65df6035c8df7b366ce6d7289c7999416fd",
            "status": true,
            "timestamp": "2022-04-13T16:59:42Z",
            "transactionFee": "0.002292303297076135",
            "txnHash": "0x355a5029ea8daf956a1411514e5aa65df6035c8df7b366ce6d7289c7999416fd",
            "txnIndex": 334,
            "type": 2,
            "value": "0"
        },
        "fund_flow": [
            {
                "amount": "131.70766048",
                "from": "0xcc34cc875d2d052f5b1c19652b5e71d6f90c7f7d",
                "id": 1,
                "isERC1155": false,
                "isERC721": false,
                "isReverted": false,
                "order": 1,
                "to": "0x1157a2076b9bb22a85cc2c162f20fab3898f4101",
                "token": "0xd533a949740bb3306d119cc777fa900ba034cd52"
            }
        ],
        "token_infos": [
            {
                "address": "0xd533a949740bb3306d119cc777fa900ba034cd52",
                "decimals": 18
            },
            {
                "address": "0xeeeeeeeeeeeeeeeeeeeeeeeeeeeeeeeeeeeeeeee",
                "decimals": 18
            },
            {
                "address": "0xc02aaa39b223fe8d0a0e5c4f27ead9083c756cc2",
                "decimals": 18
            }
        ]
    },
    "address_label": {
        "labels": [
            {
                "address": "0x0000000000000000000000000000000000000004",
                "label": "Precompiled"
            },
            {
                "address": "0xeeeeeeeeeeeeeeeeeeeeeeeeeeeeeeeeeeeeeeee",
                "label": "Ether"
            },
            {
                "address": "0xd533a949740bb3306d119cc777fa900ba034cd52",
                "label": "Curve.fi: CRV Token"
            },
            {
                "address": "0x1157a2076b9bb22a85cc2c162f20fab3898f4101",
                "label": "FalconX: 0x115...101"
            },
            {
                "address": "0x0000000000000000000000000000000000000001",
                "label": "Precompiled"
            },
            {
                "address": "0x0000000000000000000000000000000000000002",
                "label": "Precompiled"
            },
            {
                "address": "0x0000000000000000000000000000000000000003",
                "label": "Precompiled"
            }
        ]
    },
    "trace": {
        "accountLabels": null,
        "dataMap": {
            "-1": {
                "invocation": {
                    "address": "0xcc34cc875d2d052f5b1c19652b5e71d6f90c7f7d",
                    "callData": "",
                    "decodedMethod": null,
                    "errorInfo": "",
                    "fromAddress": "",
                    "gasUsed": 0,
                    "id": -1,
                    "methodDecoded": false,
                    "operation": "",
                    "output": "",
                    "revert": false,
                    "revertMessage": "",
                    "selector": "",
                    "status": false,
                    "value": ""
                },
                "nodeType": 0
            },
            "0": {
                "invocation": {
                    "address": "0xd533a949740bb3306d119cc777fa900ba034cd52",
                    "callData": "0x0000000000000000000000001157a2076b9bb22a85cc2c162f20fab3898f410100000000000000000000000000000000000000000000000723cf9b63b4278000",
                    "decodedMethod": {
                        "callParams": [
                            {
                                "name": "recipient",
                                "type": "address",
                                "value": "0x1157a2076b9bb22a85cc2c162f20fab3898f4101"
                            },
                            {
                                "decimalAvailable": true,
                                "name": "amount",
                                "type": "uint256",
                                "value": "131,707,660,480,000,000,000"
                            }
                        ],
                        "constructorArguments": "",
                        "name": "transfer",
                        "returnParams": [
                            {
                                "name": "",
                                "type": "bool",
                                "value": true
                            }
                        ],
                        "signature": "transfer(address,uint256)"
                    },
                    "errorInfo": "",
                    "fromAddress": "0xcc34cc875d2d052f5b1c19652b5e71d6f90c7f7d",
                    "gasUsed": 29437,
                    "id": 0,
                    "methodDecoded": true,
                    "operation": "CALL",
                    "output": "0x0000000000000000000000000000000000000000000000000000000000000001",
                    "revert": false,
                    "revertMessage": "",
                    "selector": "0xa9059cbb",
                    "status": true,
                    "value": "0"
                },
                "nodeType": 0
            },
            "1": {
                "event": {
                    "contract": "0xd533a949740bb3306d119cc777fa900ba034cd52",
                    "decodedLog": {
                        "name": "Transfer",
                        "params": [
                            {
                                "name": "from",
                                "type": "address",
                                "value": "0xcc34cc875d2d052f5b1c19652b5e71d6f90c7f7d"
                            },
                            {
                                "name": "to",
                                "type": "address",
                                "value": "0x1157a2076b9bb22a85cc2c162f20fab3898f4101"
                            },
                            {
                                "decimalAvailable": true,
                                "name": "value",
                                "type": "uint256",
                                "value": "131,707,660,480,000,000,000"
                            }
                        ],
                        "signature": "Transfer(address,address,uint256)"
                    },
                    "id": 1,
                    "logData": "0x00000000000000000000000000000000000000000000000723cf9b63b4278000",
                    "logDecoded": true,
                    "operation": "EVENT",
                    "revert": false,
                    "status": true,
                    "topics": [
                        "0xddf252ad1be2c89b69c2b068fc378daa952ba7f163c4a11628f55a4df523b3ef",
                        "0x000000000000000000000000cc34cc875d2d052f5b1c19652b5e71d6f90c7f7d",
                        "0x0000000000000000000000001157a2076b9bb22a85cc2c162f20fab3898f4101"
                    ]
                },
                "nodeType": 1
            }
        },
        "gasFlame": [
            {
                "children": [
                    {
                        "children": [
                            {
                                "children": [],
                                "depth": 0,
                                "name": "Initial Gas",
                                "value": 21656
                            },
                            {
                                "children": [],
                                "depth": 0,
                                "name": "Executed Gas",
                                "value": 12581
                            }
                        ],
                        "depth": -1,
                        "name": "Actual Gas Used",
                        "value": 29437
                    },
                    {
                        "children": [],
                        "depth": -1,
                        "name": "Refunded Gas",
                        "value": 4800
                    }
                ],
                "depth": -2,
                "name": "Total Gas",
                "value": 34237
            }
        ],
        "isConfirmed": true,
        "mainTrace": [
            {
                "children": [
                    {
                        "children": [
                            {
                                "children": [],
                                "depth": 1,
                                "id": 1,
                                "order": 1
                            }
                        ],
                        "depth": 0,
                        "id": 0,
                        "order": 0
                    }
                ],
                "depth": -1,
                "id": -1,
                "order": -1
            }
        ],
        "mainTraceNodeCount": 2,
        "parentIdMap": {
            "0": -1,
            "1": 0
        },
        "tidyTrace": [
            {
                "children": [
                    {
                        "children": [
                            {
                                "children": [],
                                "depth": 1,
                                "id": 1,
                                "order": 1
                            }
                        ],
                        "depth": 0,
                        "id": 0,
                        "order": 0
                    }
                ],
                "depth": -1,
                "id": -1,
                "order": -1
            }
        ],
        "tidyTraceNodeCount": 2
    },
    "state_change": {
        "stateChanges": [
            {
                "address": "0xd533a949740bb3306d119cc777fa900ba034cd52",
                "erc": "",
                "slots": [
                    {
                        "current": "0x000000000000000000000000000000000000000000005087c3cdc4a6a800e992",
                        "key": "0x5f7e60196d1183c3afa6526b495cd8b0b9391531951e59d8b2d173412ca8feb5",
                        "prev": "0x0000000000000000000000000000000000000000000050809ffe2942f3d96992"
                    },
                    {
                        "current": "0x0000000000000000000000000000000000000000000000000000000000000000",
                        "key": "0x8dca46b1fbce6a7906af6b2f3eff96e48268a2c2779fb25721471e0c85e2cdc4",
                        "prev": "0x00000000000000000000000000000000000000000000000723cf9b63b4278000"
                    }
                ],
                "storageVariables": []
            }
        ]
    }
}