{
    "balance_change": {
        "balanceChanges": []
    },
    "profile": {
        "basic_info": {
            "baseFee": "",
            "blockNumber": 7609534,
            "callData": "0xa0712d680000000000000000000000000000000000000000000000000000000000000004",
            "debugEnable": true,
            "errorInfo": "",
            "eventCount": 0,
            "feeRecipient": "0x6f24d7fc7fb17d051c25be5da1af150077d60fc1",
            "formatValue": "0",
            "gasLimit": 210001,
            "gasPrice": "0",
            "gasUsed": 178624,
            "intTxnCount": 4,
            "internalRevert": false,
            "internalRevertMessage": "",
            "isContractCreation": false,
            "isFlashloan": false,
            "maxFee": "",
            "nonce": 13149,
            "overwritedBlockNumber": -1,
            "priorityFee": "",
            "receiver": "0x0000000000b3f879cb30fe243b4dfee438691c04",
            "revertMessage": "",
            "sender": "0xb7605ddc0327406a7ac225b9de87865e22ac5927",
            "simulationEnable": true,
            "sourceTxnHash": "0x36cedcca529600ee7a7c2763e40e7480b66e036fb32fa2070c96585c1d5a86f6",
            "status": true,
            "timestamp": "2019-04-21T07:12:49Z",
            "transactionFee": "0",
            "txnHash": "0x36cedcca529600ee7a7c2763e40e7480b66e036fb32fa2070c96585c1d5a86f6",
            "txnIndex": 12,
            "type": 0,
            "value": "0"
        },
        "fund_flow": [],
        "token_infos": [
            {
                "address": "0xc02aaa39b223fe8d0a0e5c4f27ead9083c756cc2",
                "decimals": 18
            },
            {
                "address": "0xeeeeeeeeeeeeeeeeeeeeeeeeeeeeeeeeeeeeeeee",
                "decimals": 18
            }
        ]
    },
    "address_label": {
        "labels": [
            {
                "address": "0x0000000000000000000000000000000000000001",
                "label": "Precompiled"
            },
            {
                "address": "0x0000000000000000000000000000000000000002",
                "label": "Precompiled"
            },
            {
                "address": "0x0000000000000000000000000000000000000003",
                "label": "Precompiled"
            },
            {
                "address": "0x0000000000000000000000000000000000000004",
                "label": "Precompiled"
            },
            {
                "address": "0xeeeeeeeeeeeeeeeeeeeeeeeeeeeeeeeeeeeeeeee",
                "label": "Ether"
            },
            {
                "address": "0x0000000000b3f879cb30fe243b4dfee438691c04",
                "label": "GasToken.io: GST2 Token"
            }
        ]
    },
    "trace": {
        "accountLabels": null,
        "dataMap": {
            "-1": {
                "invocation": {
                    "address": "0xb7605ddc0327406a7ac225b9de87865e22ac5927",
                    "callData": "",
                    "decodedMethod": null,
                    "errorInfo": "",
                    "fromAddress": "",
                    "gasUsed": 0,
                    "id": -1,
                    "methodDecoded": false,
                    "operation": "",
                    "output": "",
                    "revert": false,
                    "revertMessage": "",
                    "selector": "",
                    "status": false,
                    "value": ""
                },
                "nodeType": 0
            },
            "0": {
                "invocation": {
                    "address": "0x0000000000b3f879cb30fe243b4dfee438691c04",
                    "callData": "0x0000000000000000000000000000000000000000000000000000000000000004",
                    "decodedMethod": {
                        "callParams": [
                            {
                                "name": "value",
                                "type": "uint256",
                                "value": "4"
                            }
                        ],
                        "constructorArguments": "",
                        "name": "mint",
                        "returnParams": [],
                        "signature": "mint(uint256)"
                    },
                    "errorInfo": "",
                    "fromAddress": "0xb7605ddc0327406a7ac225b9de87865e22ac5927",
                    "gasUsed": 178624,
                    "id": 0,
                    "methodDecoded": true,
                    "operation": "CALL",
                    "output": "",
                    "revert": false,
                    "revertMessage": "",
                    "selector": "0xa0712d68",
                    "status": true,
                    "value": "0"
                },
                "nodeType": 0
            },
            "1": {
                "invocation": {
                    "address": "0x2eb1eef8330bf139c06611b19f44ff968c074605",
                    "callData": "0x756eb3f879cb30fe243b4dfee438691c043318585733ff6000526016600af3",
                    "decodedMethod": null,
                    "errorInfo": "",
                    "fromAddress": "0x0000000000b3f879cb30fe243b4dfee438691c04",
                    "gasUsed": 4418,
                    "id": 1,
                    "methodDecoded": false,
                    "operation": "CREATE",
                    "output": "0x6eb3f879cb30fe243b4dfee438691c043318585733ff",
                    "revert": false,
                    "revertMessage": "",
                    "selector": "",
                    "status": true,
                    "value": "0"
                },
                "nodeType": 0
            },
            "2": {
                "invocation": {
                    "address": "0x0b3f9aad749b790e584bef1f41b41e3469089a89",
                    "callData": "0x756eb3f879cb30fe243b4dfee438691c043318585733ff6000526016600af3",
                    "decodedMethod": null,
                    "errorInfo": "",
                    "fromAddress": "0x0000000000b3f879cb30fe243b4dfee438691c04",
                    "gasUsed": 4418,
                    "id": 2,
                    "methodDecoded": false,
                    "operation": "CREATE",
                    "output": "0x6eb3f879cb30fe243b4dfee438691c043318585733ff",
                    "revert": false,
                    "revertMessage": "",
                    "selector": "",
                    "status": true,
                    "value": "0"
                },
                "nodeType": 0
            },
            "3": {
                "invocation": {
                    "address": "0x0846ec4dbd39532c713e9951cc615aeac6c692fe",
                    "callData": "0x756eb3f879cb30fe243b4dfee438691c043318585733ff6000526016600af3",
                    "decodedMethod": null,
                    "errorInfo": "",
                    "fromAddress": "0x0000000000b3f879cb30fe243b4dfee438691c04",
                    "gasUsed": 4418,
                    "id": 3,
                    "methodDecoded": false,
                    "operation": "CREATE",
                    "output": "0x6eb3f879cb30fe243b4dfee438691c043318585733ff",
                    "revert": false,
                    "revertMessage": "",
                    "selector": "",
                    "status": true,
                    "value": "0"
                },
                "nodeType": 0
            },
            "4": {
                "invocation": {
                    "address": "0x07b46f54ff28d0b9067545db269f3e4d5f9ddc03",
                    "callData": "0x756eb3f879cb30fe243b4dfee438691c043318585733ff6000526016600af3",
                    "decodedMethod": null,
                    "errorInfo": "",
                    "fromAddress": "0x0000000000b3f879cb30fe243b4dfee438691c04",
                    "gasUsed": 4418,
                    "id": 4,
                    "methodDecoded": false,
                    "operation": "CREATE",
                    "output": "0x6eb3f879cb30fe243b4dfee438691c043318585733ff",
                    "revert": false,
                    "revertMessage": "",
                    "selector": "",
                    "status": true,
                    "value": "0"
                },
                "nodeType": 0
            }
        },
        "gasFlame": [
            {
                "children": [
                    {
                        "children": [
                            {
                                "children": [],
                                "depth": 0,
                                "name": "Initial Gas",
                                "value": 21464
                            },
                            {
                                "children": [
                                    {
                                        "children": [],
                                        "depth": 1,
                                        "name": "contract creation",
                                        "value": 4418
                                    },
                                    {
                                        "children": [],
                                        "depth": 1,
                                        "name": "contract creation",
                                        "value": 4418
                                    },
                                    {
                                        "children": [],
                                        "depth": 1,
                                        "name": "contract creation",
                                        "value": 4418
                                    },
                                    {
                                        "children": [],
                                        "depth": 1,
                                        "name": "contract creation",
                                        "value": 4418
                                    }
                                ],
                                "depth": 0,
                                "name": "Executed Gas",
                                "value": 157160
                            }
                        ],
                        "depth": -1,
                        "name": "Actual Gas Used",
                        "value": 178624
                    },
                    {
                        "children": [],
                        "depth": -1,
                        "name": "Refunded Gas",
                        "value": 0
                    }
                ],
                "depth": -2,
                "name": "Total Gas",
                "value": 178624
            }
        ],
        "isConfirmed": true,
        "mainTrace": [
            {
                "children": [
                    {
                        "children": [
                            {
                                "children": [],
                                "depth": 1,
                                "id": 1,
                                "order": 1
                            },
                            {
                                "children": [],
                                "depth": 1,
                                "id": 2,
                                "order": 2
                            },
                            {
                                "children": [],
                                "depth": 1,
                                "id": 3,
                                "order": 3
                            },
                            {
                                "children": [],
                                "depth": 1,
                                "id": 4,
                                "order": 4
                            }
                        ],
                        "depth": 0,
                        "id": 0,
                        "order": 0
                    }
                ],
                "depth": -1,
                "id": -1,
                "order": -1
            }
        ],
        "mainTraceNodeCount": 5,
        "parentIdMap": {
            "0": -1,
            "1": 0,
            "2": 0,
            "3": 0,
            "4": 0
        },
        "tidyTrace": [
            {
                "children": [
                    {
                        "children": [
                            {
                                "children": [],
                                "depth": 1,
                                "id": 1,
                                "order": 1
                            },
                            {
                                "children": [],
                                "depth": 1,
                                "id": 2,
                                "order": 2
                            },
                            {
                                "children": [],
                                "depth": 1,
                                "id": 3,
                                "order": 3
                            },
                            {
                                "children": [],
                                "depth": 1,
                                "id": 4,
                                "order": 4
                            }
                        ],
                        "depth": 0,
                        "id": 0,
                        "order": 0
                    }
                ],
                "depth": -1,
                "id": -1,
                "order": -1
            }
        ],
        "tidyTraceNodeCount": 5
    },
    "state_change": {
        "stateChanges": [
            {
                "address": "0x0000000000b3f879cb30fe243b4dfee438691c04",
                "erc": "ERC-20",
                "slots": [
                    {
                        "current": "0x0000000000000000000000000000000000000000000000000000000000197421",
                        "key": "0x0000000000000000000000000000000000000000000000000000000000000002",
                        "prev": "0x000000000000000000000000000000000000000000000000000000000019741d"
                    },
                    {
                        "current": "0x000000000000000000000000000000000000000000000000000000000000003c",
                        "key": "0x816ec79fd60fc88e9efa3ca7355e39ff8194258c291612bc1aa6080b6aa49f00",
                        "prev": "0x0000000000000000000000000000000000000000000000000000000000000038"
                    }
                ],
                "storageVariables": [
                    {
                        "name": "s_head",
                        "type": "uint256",
                        "value": {
                            "current": "1668129",
                            "prev": "1668125",
                            "typeTag": 1
                        }
                    },
                    {
                        "name": "s_balances",
                        "type": "mapping(address => uint256)",
                        "value": {
                            "pairs": [
                                {
                                    "key": "0xb7605ddc0327406a7ac225b9de87865e22ac5927",
                                    "value": {
                                        "current": "60",
                                        "prev": "56",
                                        "typeTag": 1
                                    }
                                }
                            ],
                            "typeTag": 4
                        }
                    }
                ]
            }
        ]
    }
}