{
    "balance_change": {
        "balanceChanges": []
    },
    "profile": {
        "basic_info": {
            "baseFee": "16.50518434",
            "blockNumber": 17869049,
            "callData": "0x3ec8c9f200000000000000000000000000000000000000000000000000000000000000f9000000000000000000000000000000000000000000000000000000000000006000000000000000000000000000000000000000000000000000000000000000a00000000000000000000000000000000000000000000000000000000000000001000000000000000000000000967db06abed28f3d934e5313e154222b272d7fb0000000000000000000000000000000000000000000000000000000000000000100000000000000000000000000000000000000000000000000000000647930ff",
            "debugEnable": true,
            "errorInfo": "",
            "eventCount": 3,
            "feeRecipient": "0x4675c7e5baafbffbca748158becba61ef3b0a263",
            "formatValue": "0",
            "gasLimit": 116886,
            "gasPrice": "19.00518434",
            "gasUsed": 77314,
            "intTxnCount": 1,
            "internalRevert": false,
            "internalRevertMessage": "",
            "isContractCreation": false,
            "isFlashloan": false,
            "maxFee": "36.648541464",
            "nonce": 386,
            "overwritedBlockNumber": -1,
            "priorityFee": "2.5",
            "receiver": "0xc18c07a18198a6340cf4d94855fe5eb6dd33b46e",
            "revertMessage": "",
            "sender": "0x55c84dd2f587885129d448315499fa92b5d06f81",
            "simulationEnable": true,
            "sourceTxnHash": "0x36f391bf8c4a1af6f7824a74df24391dbe78bf3d330dbdb42d3b811d84612afb",
            "status": true,
            "timestamp": "2023-08-08T08:35:59Z",
            "transactionFee": "0.00146936682206276",
            "txnHash": "0x36f391bf8c4a1af6f7824a74df24391dbe78bf3d330dbdb42d3b811d84612afb",
            "txnIndex": 17,
            "type": 2,
            "value": "0"
        },
        "fund_flow": [],
        "token_infos": [
            {
                "address": "0xc02aaa39b223fe8d0a0e5c4f27ead9083c756cc2",
                "decimals": 18
            },
            {
                "address": "0xeeeeeeeeeeeeeeeeeeeeeeeeeeeeeeeeeeeeeeee",
                "decimals": 18
            }
        ]
    },
    "address_label": {
        "labels": [
            {
                "address": "0x0000000000000000000000000000000000000001",
                "label": "Precompiled"
            },
            {
                "address": "0x0000000000000000000000000000000000000002",
                "label": "Precompiled"
            },
            {
                "address": "0x0000000000000000000000000000000000000003",
                "label": "Precompiled"
            },
            {
                "address": "0x0000000000000000000000000000000000000004",
                "label": "Precompiled"
            },
            {
                "address": "0xeeeeeeeeeeeeeeeeeeeeeeeeeeeeeeeeeeeeeeee",
                "label": "Ether"
            },
            {
                "address": "0xc18c07a18198a6340cf4d94855fe5eb6dd33b46e",
                "label": "Qlindo: QLINDO Token"
            },
            {
                "address": "0xc2c2389dae1bd292a2685751d5fb091c9c28a5b3",
                "label": "QlindoTaskManager"
            }
        ]
    },
    "trace": {
        "accountLabels": null,
        "dataMap": {
            "-1": {
                "invocation": {
                    "address": "0x55c84dd2f587885129d448315499fa92b5d06f81",
                    "callData": "",
                    "decodedMethod": null,
                    "errorInfo": "",
                    "fromAddress": "",
                    "gasUsed": 0,
                    "id": -1,
                    "methodDecoded": false,
                    "operation": "",
                    "output": "",
                    "revert": false,
                    "revertMessage": "",
                    "selector": "",
                    "status": false,
                    "value": ""
                },
                "nodeType": 0
            },
            "0": {
                "invocation": {
                    "address": "0xc18c07a18198a6340cf4d94855fe5eb6dd33b46e",
                    "callData": "0x00000000000000000000000000000000000000000000000000000000000000f9000000000000000000000000000000000000000000000000000000000000006000000000000000000000000000000000000000000000000000000000000000a00000000000000000000000000000000000000000000000000000000000000001000000000000000000000000967db06abed28f3d934e5313e154222b272d7fb0000000000000000000000000000000000000000000000000000000000000000100000000000000000000000000000000000000000000000000000000647930ff",
                    "decodedMethod": {
                        "callParams": [
                            {
                                "name": "taskId",
                                "type": "uint256",
                                "value": "249"
                            },
                            {
                                "name": "accounts",
                                "type": "address[]",
                                "value": [
                                    "0x967db06abed28f3d934e5313e154222b272d7fb0"
                                ]
                            },
                            {
                                "name": "lockTss",
                                "type": "uint256[]",
                                "value": [
                                    "1,685,663,999"
                                ]
                            }
                        ],
                        "constructorArguments": "",
                        "name": "updateLockTs",
                        "returnParams": [],
                        "signature": "updateLockTs(uint256,address[],uint256[])"
                    },
                    "errorInfo": "",
                    "fromAddress": "0x55c84dd2f587885129d448315499fa92b5d06f81",
                    "gasUsed": 77314,
                    "id": 0,
                    "methodDecoded": true,
                    "operation": "CALL",
                    "output": "",
                    "revert": false,
                    "revertMessage": "",
                    "selector": "0x3ec8c9f2",
                    "status": true,
                    "value": "0"
                },
                "nodeType": 0
            },
            "1": {
                "event": {
                    "contract": "0xc18c07a18198a6340cf4d94855fe5eb6dd33b46e",
                    "decodedLog": {
                        "name": "LockTsChanged",
                        "params": [
                            {
                                "name": "account",
                                "type": "address",
                                "value": "0x967db06abed28f3d934e5313e154222b272d7fb0"
                            },
                            {
                                "name": "lockTimestamp",
                                "type": "uint256",
                                "value": "1,685,663,999"
                            }
                        ],
                        "signature": "LockTsChanged(address,uint256)"
                    },
                    "id": 1,
                    "logData": "0x000000000000000000000000967db06abed28f3d934e5313e154222b272d7fb000000000000000000000000000000000000000000000000000000000647930ff",
                    "logDecoded": true,
                    "operation": "EVENT",
                    "revert": false,
                    "status": true,
                    "topics": [
                        "0x70a64f3b2a8057b12bf11332b500e36fa8a62ffc3e53fc656c9b8c847008a4d5"
                    ]
                },
                "nodeType": 1
            },
            "2": {
                "invocation": {
                    "address": "0xc2c2389dae1bd292a2685751d5fb091c9c28a5b3",
                    "callData": "0x00000000000000000000000055c84dd2f587885129d448315499fa92b5d06f8100000000000000000000000000000000000000000000000000000000000000f9",
                    "decodedMethod": {
                        "callParams": [
                            {
                                "name": "origin",
                                "type": "address",
                                "value": "0x55c84dd2f587885129d448315499fa92b5d06f81"
                            },
                            {
                                "name": "taskId",
                                "type": "uint256",
                                "value": "249"
                            }
                        ],
                        "constructorArguments": "",
                        "name": "executeTask",
                        "returnParams": [],
                        "signature": "executeTask(address,uint256)"
                    },
                    "errorInfo": "",
                    "fromAddress": "0xc18c07a18198a6340cf4d94855fe5eb6dd33b46e",
                    "gasUsed": 41475,
                    "id": 2,
                    "methodDecoded": true,
                    "operation": "CALL",
                    "output": "",
                    "revert": false,
                    "revertMessage": "",
                    "selector": "0xf0490769",
                    "status": true,
                    "value": "0"
                },
                "nodeType": 0
            },
            "3": {
                "event": {
                    "contract": "0xc2c2389dae1bd292a2685751d5fb091c9c28a5b3",
                    "decodedLog": {
                        "name": "TaskFinalized",
                        "params": [
                            {
                                "name": "taskId",
                                "type": "uint256",
                                "value": "249"
                            },
                            {
                                "name": "reason",
                                "type": "string",
                                "value": ""
                            }
                        ],
                        "signature": "TaskFinalized(uint256,string)"
                    },
                    "id": 3,
                    "logData": "0x00000000000000000000000000000000000000000000000000000000000000f900000000000000000000000000000000000000000000000000000000000000400000000000000000000000000000000000000000000000000000000000000000",
                    "logDecoded": true,
                    "operation": "EVENT",
                    "revert": false,
                    "status": true,
                    "topics": [
                        "0xe5516cdd051314d9e1a70e80776a58d2064a5468c26b2f1a7e13cd96ab2d6507"
                    ]
                },
                "nodeType": 1
            },
            "4": {
                "event": {
                    "contract": "0xc2c2389dae1bd292a2685751d5fb091c9c28a5b3",
                    "decodedLog": {
                        "name": "TaskExecuted",
                        "params": [
                            {
                                "name": "finalizer",
                                "type": "address",
                                "value": "0xc18c07a18198a6340cf4d94855fe5eb6dd33b46e"
                            },
                            {
                                "name": "executor",
                                "type": "address",
                                "value": "0x55c84dd2f587885129d448315499fa92b5d06f81"
                            },
                            {
                                "name": "taskId",
                                "type": "uint256",
                                "value": "249"
                            }
                        ],
                        "signature": "TaskExecuted(address,address,uint256)"
                    },
                    "id": 4,
                    "logData": "0x000000000000000000000000c18c07a18198a6340cf4d94855fe5eb6dd33b46e00000000000000000000000055c84dd2f587885129d448315499fa92b5d06f8100000000000000000000000000000000000000000000000000000000000000f9",
                    "logDecoded": true,
                    "operation": "EVENT",
                    "revert": false,
                    "status": true,
                    "topics": [
                        "0xb4b8589d8015ad1f83a922f4fd0d6498f557018656541ce92b6c18db2b704661"
                    ]
                },
                "nodeType": 1
            }
        },
        "gasFlame": [
            {
                "children": [
                    {
                        "children": [
                            {
                                "children": [],
                                "depth": 0,
                                "name": "Initial Gas",
                                "value": 22308
                            },
                            {
                                "children": [
                                    {
                                        "children": [],
                                        "depth": 1,
                                        "name": "executeTask",
                                        "value": 41475
                                    }
                                ],
                                "depth": 0,
                                "name": "Executed Gas",
                                "value": 55006
                            }
                        ],
                        "depth": -1,
                        "name": "Actual Gas Used",
                        "value": 77314
                    },
                    {
                        "children": [],
                        "depth": -1,
                        "name": "Refunded Gas",
                        "value": 0
                    }
                ],
                "depth": -2,
                "name": "Total Gas",
                "value": 77314
            }
        ],
        "isConfirmed": true,
        "mainTrace": [
            {
                "children": [
                    {
                        "children": [
                            {
                                "children": [],
                                "depth": 1,
                                "id": 1,
                                "order": 1
                            },
                            {
                                "children": [
                                    {
                                        "children": [],
                                        "depth": 2,
                                        "id": 3,
                                        "order": 3
                                    },
                                    {
                                        "children": [],
                                        "depth": 2,
                                        "id": 4,
                                        "order": 4
                                    }
                                ],
                                "depth": 1,
                                "id": 2,
                                "order": 2
                            }
                        ],
                        "depth": 0,
                        "id": 0,
                        "order": 0
                    }
                ],
                "depth": -1,
                "id": -1,
                "order": -1
            }
        ],
        "mainTraceNodeCount": 5,
        "parentIdMap": {
            "0": -1,
            "1": 0,
            "2": 0,
            "3": 2,
            "4": 2
        },
        "tidyTrace": [
            {
                "children": [
                    {
                        "children": [
                            {
                                "children": [],
                                "depth": 1,
                                "id": 1,
                                "order": 1
                            },
                            {
                                "children": [
                                    {
                                        "children": [],
                                        "depth": 2,
                                        "id": 3,
                                        "order": 3
                                    },
                                    {
                                        "children": [],
                                        "depth": 2,
                                        "id": 4,
                                        "order": 4
                                    }
                                ],
                                "depth": 1,
                                "id": 2,
                                "order": 2
                            }
                        ],
                        "depth": 0,
                        "id": 0,
                        "order": 0
                    }
                ],
                "depth": -1,
                "id": -1,
                "order": -1
            }
        ],
        "tidyTraceNodeCount": 5
    },
    "state_change": {
        "stateChanges": [
            {
                "address": "0xc18c07a18198a6340cf4d94855fe5eb6dd33b46e",
                "erc": "ERC-20",
                "slots": [
                    {
                        "current": "0x00000000000000000000000000000000000000000000000000000000647930ff",
                        "key": "0x04a956893dd8ae3ae2b0d2954b2073d4065acf1e31578019e49558a3e8f7291e",
                        "prev": "0x00000000000000000000000000000000000000000000000000000000688d54ff"
                    }
                ],
                "storageVariables": [
                    {
                        "name": "_lockedAccounts",
                        "type": "mapping(address => uint256)",
                        "value": {
                            "pairs": [
                                {
                                    "key": "0x967db06abed28f3d934e5313e154222b272d7fb0",
                                    "value": {
                                        "current": "1685663999",
                                        "prev": "1754092799",
                                        "typeTag": 1
                                    }
                                }
                            ],
                            "typeTag": 4
                        }
                    }
                ]
            },
            {
                "address": "0xc2c2389dae1bd292a2685751d5fb091c9c28a5b3",
                "erc": "",
                "slots": [
                    {
                        "current": "0x0000000000000000000000000000000000000000000000000000000000000001",
                        "key": "0x5a13bb8468ff08ea1be5434a63d147aa9a75598c1472c6c3689ce0cc412fb13b",
                        "prev": "0x0000000000000000000000000000000000000000000000000000000000000000"
                    }
                ],
                "storageVariables": [
                    {
                        "name": "_tasks",
                        "type": "mapping(uint256 => struct TaskManaged.Task)",
                        "value": {
                            "pairs": [
                                {
                                    "key": "249",
                                    "value": {
                                        "fields": [
                                            {
                                                "name": "finalized",
                                                "type": "bool",
                                                "value": {
                                                    "current": "true",
                                                    "prev": "false",
                                                    "typeTag": 1
                                                }
                                            }
                                        ],
                                        "typeTag": 3
                                    }
                                }
                            ],
                            "typeTag": 4
                        }
                    }
                ]
            }
        ]
    }
}