{
    "balance_change": {
        "balanceChanges": [
            {
                "account": "0xa453b444a5353c0ae1ae09addc2aecc2427a9d06",
                "assets": [
                    {
                        "address": "0xbcc394d45c3613530a83cae62c716dc23b7f2152",
                        "amount": "0.4",
                        "iconUrl": "",
                        "isERC1155": false,
                        "isERC721": false,
                        "sign": true,
                        "value": ""
                    }
                ]
            },
            {
                "account": "0xc5f2a3c47b6c2cd2b58f29f979aab839910a1f64",
                "assets": [
                    {
                        "address": "0xbcc394d45c3613530a83cae62c716dc23b7f2152",
                        "amount": "0.4",
                        "iconUrl": "",
                        "isERC1155": false,
                        "isERC721": false,
                        "sign": false,
                        "value": ""
                    }
                ]
            }
        ]
    },
    "profile": {
        "basic_info": {
            "baseFee": "",
            "blockNumber": 7916312,
            "callData": "0x01c6adc3000000000000000000000000c5f2a3c47b6c2cd2b58f29f979aab839910a1f640000000000000000000000000000000000000000000000000000000000000028",
            "debugEnable": true,
            "errorInfo": "",
            "eventCount": 1,
            "feeRecipient": "0xea674fdde714fd979de3edf0f56aa9716b898ec8",
            "formatValue": "0",
            "gasLimit": 90000,
            "gasPrice": "5",
            "gasUsed": 38005,
            "intTxnCount": 0,
            "internalRevert": false,
            "internalRevertMessage": "",
            "isContractCreation": false,
            "isFlashloan": false,
            "maxFee": "",
            "nonce": 274568,
            "overwritedBlockNumber": -1,
            "priorityFee": "",
            "receiver": "0xbcc394d45c3613530a83cae62c716dc23b7f2152",
            "revertMessage": "",
            "sender": "0xa453b444a5353c0ae1ae09addc2aecc2427a9d06",
            "simulationEnable": true,
            "sourceTxnHash": "0x36925e5cfcc4691762e78d7f44c723d4569553aad3993313ef4230b7d6430385",
            "status": true,
            "timestamp": "2019-06-08T04:39:26Z",
            "transactionFee": "0.000190025",
            "txnHash": "0x36925e5cfcc4691762e78d7f44c723d4569553aad3993313ef4230b7d6430385",
            "txnIndex": 146,
            "type": 0,
            "value": "0"
        },
        "fund_flow": [
            {
                "amount": "0.4",
                "from": "0xc5f2a3c47b6c2cd2b58f29f979aab839910a1f64",
                "id": 1,
                "isERC1155": false,
                "isERC721": false,
                "isReverted": false,
                "order": 1,
                "to": "0xa453b444a5353c0ae1ae09addc2aecc2427a9d06",
                "token": "0xbcc394d45c3613530a83cae62c716dc23b7f2152"
            }
        ],
        "token_infos": [
            {
                "address": "0xbcc394d45c3613530a83cae62c716dc23b7f2152",
                "decimals": 2
            },
            {
                "address": "0xc02aaa39b223fe8d0a0e5c4f27ead9083c756cc2",
                "decimals": 18
            },
            {
                "address": "0xeeeeeeeeeeeeeeeeeeeeeeeeeeeeeeeeeeeeeeee",
                "decimals": 18
            }
        ]
    },
    "address_label": {
        "labels": [
            {
                "address": "0xbcc394d45c3613530a83cae62c716dc23b7f2152",
                "label": "EC-Token (ECT)"
            },
            {
                "address": "0x0000000000000000000000000000000000000001",
                "label": "Precompiled"
            },
            {
                "address": "0x0000000000000000000000000000000000000002",
                "label": "Precompiled"
            },
            {
                "address": "0x0000000000000000000000000000000000000003",
                "label": "Precompiled"
            },
            {
                "address": "0x0000000000000000000000000000000000000004",
                "label": "Precompiled"
            },
            {
                "address": "0xeeeeeeeeeeeeeeeeeeeeeeeeeeeeeeeeeeeeeeee",
                "label": "Ether"
            }
        ]
    },
    "trace": {
        "accountLabels": null,
        "dataMap": {
            "-1": {
                "invocation": {
                    "address": "0xa453b444a5353c0ae1ae09addc2aecc2427a9d06",
                    "callData": "",
                    "decodedMethod": null,
                    "errorInfo": "",
                    "fromAddress": "",
                    "gasUsed": 0,
                    "id": -1,
                    "methodDecoded": false,
                    "operation": "",
                    "output": "",
                    "revert": false,
                    "revertMessage": "",
                    "selector": "",
                    "status": false,
                    "value": ""
                },
                "nodeType": 0
            },
            "0": {
                "invocation": {
                    "address": "0xbcc394d45c3613530a83cae62c716dc23b7f2152",
                    "callData": "0x000000000000000000000000c5f2a3c47b6c2cd2b58f29f979aab839910a1f640000000000000000000000000000000000000000000000000000000000000028",
                    "decodedMethod": {
                        "callParams": [
                            {
                                "name": "addde",
                                "type": "address",
                                "value": "0xc5f2a3c47b6c2cd2b58f29f979aab839910a1f64"
                            },
                            {
                                "name": "uinttt",
                                "type": "uint256",
                                "value": "40"
                            }
                        ],
                        "constructorArguments": "",
                        "name": "transferFrom",
                        "returnParams": [],
                        "signature": "transferFrom(address,uint256)"
                    },
                    "errorInfo": "",
                    "fromAddress": "0xa453b444a5353c0ae1ae09addc2aecc2427a9d06",
                    "gasUsed": 38005,
                    "id": 0,
                    "methodDecoded": true,
                    "operation": "CALL",
                    "output": "",
                    "revert": false,
                    "revertMessage": "",
                    "selector": "0x01c6adc3",
                    "status": true,
                    "value": "0"
                },
                "nodeType": 0
            },
            "1": {
                "event": {
                    "contract": "0xbcc394d45c3613530a83cae62c716dc23b7f2152",
                    "decodedLog": {
                        "name": "Transfer",
                        "params": [
                            {
                                "name": "from",
                                "type": "address",
                                "value": "0xc5f2a3c47b6c2cd2b58f29f979aab839910a1f64"
                            },
                            {
                                "name": "to",
                                "type": "address",
                                "value": "0xa453b444a5353c0ae1ae09addc2aecc2427a9d06"
                            },
                            {
                                "decimalAvailable": true,
                                "name": "value",
                                "type": "uint256",
                                "value": "40"
                            }
                        ],
                        "signature": "Transfer(address,address,uint256)"
                    },
                    "id": 1,
                    "logData": "0x0000000000000000000000000000000000000000000000000000000000000028",
                    "logDecoded": true,
                    "operation": "EVENT",
                    "revert": false,
                    "status": true,
                    "topics": [
                        "0xddf252ad1be2c89b69c2b068fc378daa952ba7f163c4a11628f55a4df523b3ef",
                        "0x000000000000000000000000c5f2a3c47b6c2cd2b58f29f979aab839910a1f64",
                        "0x000000000000000000000000a453b444a5353c0ae1ae09addc2aecc2427a9d06"
                    ]
                },
                "nodeType": 1
            }
        },
        "gasFlame": [
            {
                "children": [
                    {
                        "children": [
                            {
                                "children": [],
                                "depth": 0,
                                "name": "Initial Gas",
                                "value": 22872
                            },
                            {
                                "children": [],
                                "depth": 0,
                                "name": "Executed Gas",
                                "value": 15133
                            }
                        ],
                        "depth": -1,
                        "name": "Actual Gas Used",
                        "value": 38005
                    },
                    {
                        "children": [],
                        "depth": -1,
                        "name": "Refunded Gas",
                        "value": 0
                    }
                ],
                "depth": -2,
                "name": "Total Gas",
                "value": 38005
            }
        ],
        "isConfirmed": true,
        "mainTrace": [
            {
                "children": [
                    {
                        "children": [
                            {
                                "children": [],
                                "depth": 1,
                                "id": 1,
                                "order": 1
                            }
                        ],
                        "depth": 0,
                        "id": 0,
                        "order": 0
                    }
                ],
                "depth": -1,
                "id": -1,
                "order": -1
            }
        ],
        "mainTraceNodeCount": 2,
        "parentIdMap": {
            "0": -1,
            "1": 0
        },
        "tidyTrace": [
            {
                "children": [
                    {
                        "children": [
                            {
                                "children": [],
                                "depth": 1,
                                "id": 1,
                                "order": 1
                            }
                        ],
                        "depth": 0,
                        "id": 0,
                        "order": 0
                    }
                ],
                "depth": -1,
                "id": -1,
                "order": -1
            }
        ],
        "tidyTraceNodeCount": 2
    },
    "state_change": {
        "stateChanges": [
            {
                "address": "0xbcc394d45c3613530a83cae62c716dc23b7f2152",
                "erc": "",
                "slots": [
                    {
                        "current": "0x000000000000000000000000000000000000000000000000000000000000cc65",
                        "key": "0x561436d3fa5deff8555f536f1877ba6d080721af415cc6b89d57a1075023bfb4",
                        "prev": "0x000000000000000000000000000000000000000000000000000000000000cc8d"
                    },
                    {
                        "current": "0x000000000000000000000000000000000000000000000000000000076ba3b6d9",
                        "key": "0x4355fdaff3261d7f48c510303127ba2a436db0a28b70e576e3a6c6a256468970",
                        "prev": "0x000000000000000000000000000000000000000000000000000000076ba3b6b1"
                    }
                ],
                "storageVariables": []
            }
        ]
    }
}