{
    "balance_change": {
        "balanceChanges": [
            {
                "account": "0x6748f50f686bfbca6fe8ad62b22228b87f31ff2b",
                "assets": [
                    {
                        "address": "0xb7cb1c96db6b22b0d3d9536e0108d062bd488f74",
                        "amount": "486",
                        "iconUrl": "https://assets.blocksec.com/icon/24b48fbd5b2b00bff8cc3e16cd0995342c1a99ca48acb426236f0695d2ff19a8.png",
                        "isERC1155": false,
                        "isERC721": false,
                        "sign": false,
                        "value": ""
                    }
                ]
            },
            {
                "account": "0x1285f034153daa03bc4249786373eee43cba00df",
                "assets": [
                    {
                        "address": "0xb7cb1c96db6b22b0d3d9536e0108d062bd488f74",
                        "amount": "486",
                        "iconUrl": "https://assets.blocksec.com/icon/24b48fbd5b2b00bff8cc3e16cd0995342c1a99ca48acb426236f0695d2ff19a8.png",
                        "isERC1155": false,
                        "isERC721": false,
                        "sign": true,
                        "value": ""
                    }
                ]
            }
        ]
    },
    "profile": {
        "basic_info": {
            "baseFee": "",
            "blockNumber": 8581575,
            "callData": "0xa9059cbb0000000000000000000000001285f034153daa03bc4249786373eee43cba00df00000000000000000000000000000000000000000000001a589ad90fc7d80000",
            "debugEnable": true,
            "errorInfo": "",
            "eventCount": 1,
            "feeRecipient": "0xea674fdde714fd979de3edf0f56aa9716b898ec8",
            "formatValue": "0",
            "gasLimit": 90000,
            "gasPrice": "40",
            "gasUsed": 36409,
            "intTxnCount": 0,
            "internalRevert": false,
            "internalRevertMessage": "",
            "isContractCreation": false,
            "isFlashloan": false,
            "maxFee": "",
            "nonce": 292422,
            "overwritedBlockNumber": -1,
            "priorityFee": "",
            "receiver": "0xb7cb1c96db6b22b0d3d9536e0108d062bd488f74",
            "revertMessage": "",
            "sender": "0x6748f50f686bfbca6fe8ad62b22228b87f31ff2b",
            "simulationEnable": true,
            "sourceTxnHash": "0x36276165dd5e9e784436097eb89a5c26563d9c85854539755d6c9be4e2989ce1",
            "status": true,
            "timestamp": "2019-09-19T19:08:32Z",
            "transactionFee": "0.00145636",
            "txnHash": "0x36276165dd5e9e784436097eb89a5c26563d9c85854539755d6c9be4e2989ce1",
            "txnIndex": 17,
            "type": 0,
            "value": "0"
        },
        "fund_flow": [
            {
                "amount": "486",
                "from": "0x6748f50f686bfbca6fe8ad62b22228b87f31ff2b",
                "id": 1,
                "isERC1155": false,
                "isERC721": false,
                "isReverted": false,
                "order": 1,
                "to": "0x1285f034153daa03bc4249786373eee43cba00df",
                "token": "0xb7cb1c96db6b22b0d3d9536e0108d062bd488f74"
            }
        ],
        "token_infos": [
            {
                "address": "0xb7cb1c96db6b22b0d3d9536e0108d062bd488f74",
                "decimals": 18
            },
            {
                "address": "0xc02aaa39b223fe8d0a0e5c4f27ead9083c756cc2",
                "decimals": 18
            },
            {
                "address": "0xeeeeeeeeeeeeeeeeeeeeeeeeeeeeeeeeeeeeeeee",
                "decimals": 18
            }
        ]
    },
    "address_label": {
        "labels": [
            {
                "address": "0x0000000000000000000000000000000000000004",
                "label": "Precompiled"
            },
            {
                "address": "0xeeeeeeeeeeeeeeeeeeeeeeeeeeeeeeeeeeeeeeee",
                "label": "Ether"
            },
            {
                "address": "0x6748f50f686bfbca6fe8ad62b22228b87f31ff2b",
                "label": "HTX 2"
            },
            {
                "address": "0xb7cb1c96db6b22b0d3d9536e0108d062bd488f74",
                "label": "Waltonchain Token"
            },
            {
                "address": "0x0000000000000000000000000000000000000001",
                "label": "Precompiled"
            },
            {
                "address": "0x0000000000000000000000000000000000000002",
                "label": "Precompiled"
            },
            {
                "address": "0x0000000000000000000000000000000000000003",
                "label": "Precompiled"
            }
        ]
    },
    "trace": {
        "accountLabels": null,
        "dataMap": {
            "-1": {
                "invocation": {
                    "address": "0x6748f50f686bfbca6fe8ad62b22228b87f31ff2b",
                    "callData": "",
                    "decodedMethod": null,
                    "errorInfo": "",
                    "fromAddress": "",
                    "gasUsed": 0,
                    "id": -1,
                    "methodDecoded": false,
                    "operation": "",
                    "output": "",
                    "revert": false,
                    "revertMessage": "",
                    "selector": "",
                    "status": false,
                    "value": ""
                },
                "nodeType": 0
            },
            "0": {
                "invocation": {
                    "address": "0xb7cb1c96db6b22b0d3d9536e0108d062bd488f74",
                    "callData": "0x0000000000000000000000001285f034153daa03bc4249786373eee43cba00df00000000000000000000000000000000000000000000001a589ad90fc7d80000",
                    "decodedMethod": {
                        "callParams": [
                            {
                                "name": "_to",
                                "type": "address",
                                "value": "0x1285f034153daa03bc4249786373eee43cba00df"
                            },
                            {
                                "decimalAvailable": true,
                                "name": "_value",
                                "type": "uint256",
                                "value": "486,000,000,000,000,000,000"
                            }
                        ],
                        "constructorArguments": "",
                        "name": "transfer",
                        "returnParams": [
                            {
                                "name": "",
                                "type": "bool",
                                "value": true
                            }
                        ],
                        "signature": "transfer(address,uint256)"
                    },
                    "errorInfo": "",
                    "fromAddress": "0x6748f50f686bfbca6fe8ad62b22228b87f31ff2b",
                    "gasUsed": 36409,
                    "id": 0,
                    "methodDecoded": true,
                    "operation": "CALL",
                    "output": "0x0000000000000000000000000000000000000000000000000000000000000001",
                    "revert": false,
                    "revertMessage": "",
                    "selector": "0xa9059cbb",
                    "status": true,
                    "value": "0"
                },
                "nodeType": 0
            },
            "1": {
                "event": {
                    "contract": "0xb7cb1c96db6b22b0d3d9536e0108d062bd488f74",
                    "decodedLog": {
                        "name": "Transfer",
                        "params": [
                            {
                                "name": "from",
                                "type": "address",
                                "value": "0x6748f50f686bfbca6fe8ad62b22228b87f31ff2b"
                            },
                            {
                                "name": "to",
                                "type": "address",
                                "value": "0x1285f034153daa03bc4249786373eee43cba00df"
                            },
                            {
                                "decimalAvailable": true,
                                "name": "value",
                                "type": "uint256",
                                "value": "486,000,000,000,000,000,000"
                            }
                        ],
                        "signature": "Transfer(address,address,uint256)"
                    },
                    "id": 1,
                    "logData": "0x00000000000000000000000000000000000000000000001a589ad90fc7d80000",
                    "logDecoded": true,
                    "operation": "EVENT",
                    "revert": false,
                    "status": true,
                    "topics": [
                        "0xddf252ad1be2c89b69c2b068fc378daa952ba7f163c4a11628f55a4df523b3ef",
                        "0x0000000000000000000000006748f50f686bfbca6fe8ad62b22228b87f31ff2b",
                        "0x0000000000000000000000001285f034153daa03bc4249786373eee43cba00df"
                    ]
                },
                "nodeType": 1
            }
        },
        "gasFlame": [
            {
                "children": [
                    {
                        "children": [
                            {
                                "children": [],
                                "depth": 0,
                                "name": "Initial Gas",
                                "value": 23192
                            },
                            {
                                "children": [],
                                "depth": 0,
                                "name": "Executed Gas",
                                "value": 13217
                            }
                        ],
                        "depth": -1,
                        "name": "Actual Gas Used",
                        "value": 36409
                    },
                    {
                        "children": [],
                        "depth": -1,
                        "name": "Refunded Gas",
                        "value": 0
                    }
                ],
                "depth": -2,
                "name": "Total Gas",
                "value": 36409
            }
        ],
        "isConfirmed": true,
        "mainTrace": [
            {
                "children": [
                    {
                        "children": [
                            {
                                "children": [],
                                "depth": 1,
                                "id": 1,
                                "order": 1
                            }
                        ],
                        "depth": 0,
                        "id": 0,
                        "order": 0
                    }
                ],
                "depth": -1,
                "id": -1,
                "order": -1
            }
        ],
        "mainTraceNodeCount": 2,
        "parentIdMap": {
            "0": -1,
            "1": 0
        },
        "tidyTrace": [
            {
                "children": [
                    {
                        "children": [
                            {
                                "children": [],
                                "depth": 1,
                                "id": 1,
                                "order": 1
                            }
                        ],
                        "depth": 0,
                        "id": 0,
                        "order": 0
                    }
                ],
                "depth": -1,
                "id": -1,
                "order": -1
            }
        ],
        "tidyTraceNodeCount": 2
    },
    "state_change": {
        "stateChanges": [
            {
                "address": "0xb7cb1c96db6b22b0d3d9536e0108d062bd488f74",
                "erc": "ERC-20",
                "slots": [
                    {
                        "current": "0x000000000000000000000000000000000000000000000034e8b88cee2d400000",
                        "key": "0x6200f9ac520fe122cb9bb288e4158241aef7d75d718de4866696400b633d6e9f",
                        "prev": "0x00000000000000000000000000000000000000000000001a901db3de65680000"
                    },
                    {
                        "current": "0x0000000000000000000000000000000000000000000002225c613a7c06355400",
                        "key": "0x046ea4d5b23a798a60e46f3055c455ab6b3faa745a254808203ca161f03d7ae3",
                        "prev": "0x00000000000000000000000000000000000000000000023cb4fc138bce0d5400"
                    }
                ],
                "storageVariables": []
            }
        ]
    }
}