{
    "balance_change": {
        "balanceChanges": [
            {
                "account": "0x8d90a905cd8362ad5057e73a4e9ae2464ac8076a",
                "assets": [
                    {
                        "address": "0x7ce88ceed1015ecebaed624459dd97435e77157b",
                        "amount": "24,972.7125",
                        "iconUrl": "",
                        "isERC1155": false,
                        "isERC721": false,
                        "sign": false,
                        "value": ""
                    }
                ]
            },
            {
                "account": "0x45958cbb9f252892d6e2c2408d37ad5224b593b7",
                "assets": [
                    {
                        "address": "0x7ce88ceed1015ecebaed624459dd97435e77157b",
                        "amount": "24,972.7125",
                        "iconUrl": "",
                        "isERC1155": false,
                        "isERC721": false,
                        "sign": true,
                        "value": ""
                    }
                ]
            }
        ]
    },
    "profile": {
        "basic_info": {
            "baseFee": "",
            "blockNumber": 4307026,
            "callData": "0xa9059cbb00000000000000000000000045958cbb9f252892d6e2c2408d37ad5224b593b70000000000000000000000000000000000000000000000000000e32020938f40",
            "debugEnable": true,
            "errorInfo": "",
            "eventCount": 1,
            "feeRecipient": "0x829bd824b016326a401d083b33d092293333a830",
            "formatValue": "0",
            "gasLimit": 60000,
            "gasPrice": "32.528693558",
            "gasUsed": 36930,
            "intTxnCount": 0,
            "internalRevert": false,
            "internalRevertMessage": "",
            "isContractCreation": false,
            "isFlashloan": false,
            "maxFee": "",
            "nonce": 0,
            "overwritedBlockNumber": -1,
            "priorityFee": "",
            "receiver": "0x7ce88ceed1015ecebaed624459dd97435e77157b",
            "revertMessage": "",
            "sender": "0x8d90a905cd8362ad5057e73a4e9ae2464ac8076a",
            "simulationEnable": true,
            "sourceTxnHash": "0x36305a702907fd20b7f79a055715fec7ce8c0cf421a04fddae805e0a8d7cbac9",
            "status": true,
            "timestamp": "2017-09-24T08:40:20Z",
            "transactionFee": "0.00120128465309694",
            "txnHash": "0x36305a702907fd20b7f79a055715fec7ce8c0cf421a04fddae805e0a8d7cbac9",
            "txnIndex": 11,
            "type": 0,
            "value": "0"
        },
        "fund_flow": [
            {
                "amount": "24,972.7125",
                "from": "0x8d90a905cd8362ad5057e73a4e9ae2464ac8076a",
                "id": 1,
                "isERC1155": false,
                "isERC721": false,
                "isReverted": false,
                "order": 1,
                "to": "0x45958cbb9f252892d6e2c2408d37ad5224b593b7",
                "token": "0x7ce88ceed1015ecebaed624459dd97435e77157b"
            }
        ],
        "token_infos": [
            {
                "address": "0x7ce88ceed1015ecebaed624459dd97435e77157b",
                "decimals": 10
            },
            {
                "address": "0xc02aaa39b223fe8d0a0e5c4f27ead9083c756cc2",
                "decimals": 18
            },
            {
                "address": "0xeeeeeeeeeeeeeeeeeeeeeeeeeeeeeeeeeeeeeeee",
                "decimals": 18
            }
        ]
    },
    "address_label": {
        "labels": [
            {
                "address": "0x0000000000000000000000000000000000000001",
                "label": "Precompiled"
            },
            {
                "address": "0x0000000000000000000000000000000000000002",
                "label": "Precompiled"
            },
            {
                "address": "0x0000000000000000000000000000000000000003",
                "label": "Precompiled"
            },
            {
                "address": "0x0000000000000000000000000000000000000004",
                "label": "Precompiled"
            },
            {
                "address": "0xeeeeeeeeeeeeeeeeeeeeeeeeeeeeeeeeeeeeeeee",
                "label": "Ether"
            },
            {
                "address": "0x7ce88ceed1015ecebaed624459dd97435e77157b",
                "label": "ATC"
            }
        ]
    },
    "trace": {
        "accountLabels": null,
        "dataMap": {
            "-1": {
                "invocation": {
                    "address": "0x8d90a905cd8362ad5057e73a4e9ae2464ac8076a",
                    "callData": "",
                    "decodedMethod": null,
                    "errorInfo": "",
                    "fromAddress": "",
                    "gasUsed": 0,
                    "id": -1,
                    "methodDecoded": false,
                    "operation": "",
                    "output": "",
                    "revert": false,
                    "revertMessage": "",
                    "selector": "",
                    "status": false,
                    "value": ""
                },
                "nodeType": 0
            },
            "0": {
                "invocation": {
                    "address": "0x7ce88ceed1015ecebaed624459dd97435e77157b",
                    "callData": "0x00000000000000000000000045958cbb9f252892d6e2c2408d37ad5224b593b70000000000000000000000000000000000000000000000000000e32020938f40",
                    "decodedMethod": {
                        "callParams": [
                            {
                                "name": "_to",
                                "type": "address",
                                "value": "0x45958cbb9f252892d6e2c2408d37ad5224b593b7"
                            },
                            {
                                "decimalAvailable": true,
                                "name": "_amount",
                                "type": "uint256",
                                "value": "249,727,125,000,000"
                            }
                        ],
                        "constructorArguments": "",
                        "name": "transfer",
                        "returnParams": [
                            {
                                "name": "success",
                                "type": "bool",
                                "value": true
                            }
                        ],
                        "signature": "transfer(address,uint256)"
                    },
                    "errorInfo": "",
                    "fromAddress": "0x8d90a905cd8362ad5057e73a4e9ae2464ac8076a",
                    "gasUsed": 36930,
                    "id": 0,
                    "methodDecoded": true,
                    "operation": "CALL",
                    "output": "0x0000000000000000000000000000000000000000000000000000000000000001",
                    "revert": false,
                    "revertMessage": "",
                    "selector": "0xa9059cbb",
                    "status": true,
                    "value": "0"
                },
                "nodeType": 0
            },
            "1": {
                "event": {
                    "contract": "0x7ce88ceed1015ecebaed624459dd97435e77157b",
                    "decodedLog": {
                        "name": "Transfer",
                        "params": [
                            {
                                "name": "_from",
                                "type": "address",
                                "value": "0x8d90a905cd8362ad5057e73a4e9ae2464ac8076a"
                            },
                            {
                                "name": "_to",
                                "type": "address",
                                "value": "0x45958cbb9f252892d6e2c2408d37ad5224b593b7"
                            },
                            {
                                "decimalAvailable": true,
                                "name": "_value",
                                "type": "uint256",
                                "value": "249,727,125,000,000"
                            }
                        ],
                        "signature": "Transfer(address,address,uint256)"
                    },
                    "id": 1,
                    "logData": "0x0000000000000000000000000000000000000000000000000000e32020938f40",
                    "logDecoded": true,
                    "operation": "EVENT",
                    "revert": false,
                    "status": true,
                    "topics": [
                        "0xddf252ad1be2c89b69c2b068fc378daa952ba7f163c4a11628f55a4df523b3ef",
                        "0x0000000000000000000000008d90a905cd8362ad5057e73a4e9ae2464ac8076a",
                        "0x00000000000000000000000045958cbb9f252892d6e2c2408d37ad5224b593b7"
                    ]
                },
                "nodeType": 1
            }
        },
        "gasFlame": [
            {
                "children": [
                    {
                        "children": [
                            {
                                "children": [],
                                "depth": 0,
                                "name": "Initial Gas",
                                "value": 23192
                            },
                            {
                                "children": [],
                                "depth": 0,
                                "name": "Executed Gas",
                                "value": 13738
                            }
                        ],
                        "depth": -1,
                        "name": "Actual Gas Used",
                        "value": 36930
                    },
                    {
                        "children": [],
                        "depth": -1,
                        "name": "Refunded Gas",
                        "value": 0
                    }
                ],
                "depth": -2,
                "name": "Total Gas",
                "value": 36930
            }
        ],
        "isConfirmed": true,
        "mainTrace": [
            {
                "children": [
                    {
                        "children": [
                            {
                                "children": [],
                                "depth": 1,
                                "id": 1,
                                "order": 1
                            }
                        ],
                        "depth": 0,
                        "id": 0,
                        "order": 0
                    }
                ],
                "depth": -1,
                "id": -1,
                "order": -1
            }
        ],
        "mainTraceNodeCount": 2,
        "parentIdMap": {
            "0": -1,
            "1": 0
        },
        "tidyTrace": [
            {
                "children": [
                    {
                        "children": [
                            {
                                "children": [],
                                "depth": 1,
                                "id": 1,
                                "order": 1
                            }
                        ],
                        "depth": 0,
                        "id": 0,
                        "order": 0
                    }
                ],
                "depth": -1,
                "id": -1,
                "order": -1
            }
        ],
        "tidyTraceNodeCount": 2
    },
    "state_change": {
        "stateChanges": [
            {
                "address": "0x7ce88ceed1015ecebaed624459dd97435e77157b",
                "erc": "ERC-20",
                "slots": [
                    {
                        "current": "0x000000000000000000000000000000000000000000000000000000000001aa2c",
                        "key": "0x1eeb85283a00cd137abb69748e1b98da63f7c29ea76ffacb073e870241bd7e76",
                        "prev": "0x0000000000000000000000000000000000000000000000000000e3202095396c"
                    },
                    {
                        "current": "0x00000000000000000000000000000000000000000000000002ee20af06327190",
                        "key": "0xcc3d1ae2bb57a7714420e01bb7e2e7d0f5e29e8a656b0867b3d921ebaea46cec",
                        "prev": "0x00000000000000000000000000000000000000000000000002ed3d8ee59ee250"
                    }
                ],
                "storageVariables": []
            }
        ]
    }
}