{
    "balance_change": {
        "balanceChanges": [
            {
                "account": "0x04260dd71b6bb32a4a9b0088ad2fb9fffabd8dcc",
                "assets": [
                    {
                        "address": "0xeeeeeeeeeeeeeeeeeeeeeeeeeeeeeeeeeeeeeeee",
                        "amount": "0.016808881212",
                        "iconUrl": "https://assets.blocksec.com/image/1663669189317-3.png",
                        "isERC1155": false,
                        "isERC721": false,
                        "sign": false,
                        "value": "59.58589208"
                    },
                    {
                        "address": "0xa41d2f8ee4f47d3b860a149765a7df8c3287b7f0",
                        "amount": "2,954.582673284",
                        "iconUrl": "",
                        "isERC1155": false,
                        "isERC721": false,
                        "sign": true,
                        "value": "58.05024899"
                    }
                ]
            },
            {
                "account": "0x197d7010147df7b99e9025c724f13723b29313f8",
                "assets": [
                    {
                        "address": "0xc02aaa39b223fe8d0a0e5c4f27ead9083c756cc2",
                        "amount": "0.016808881212",
                        "iconUrl": "https://assets.blocksec.com/icon/f1cb2d02c471d545bbc7722daf3277fd852d98e63d118771af7047bd8256c516.png",
                        "isERC1155": false,
                        "isERC721": false,
                        "sign": true,
                        "value": "59.58589208"
                    },
                    {
                        "address": "0xa41d2f8ee4f47d3b860a149765a7df8c3287b7f0",
                        "amount": "3,013.994605752",
                        "iconUrl": "",
                        "isERC1155": false,
                        "isERC721": false,
                        "sign": false,
                        "value": "59.22325735"
                    }
                ]
            },
            {
                "account": "0x382ffce2287252f930e1c8dc9328dac5bf282ba1",
                "assets": [
                    {
                        "address": "0xa41d2f8ee4f47d3b860a149765a7df8c3287b7f0",
                        "amount": "29.271986411",
                        "iconUrl": "",
                        "isERC1155": false,
                        "isERC721": false,
                        "sign": true,
                        "value": "0.57514934"
                    }
                ]
            },
            {
                "account": "0xc00ec94e7746c6b695869580d6d2db50cda86094",
                "assets": [
                    {
                        "address": "0xa41d2f8ee4f47d3b860a149765a7df8c3287b7f0",
                        "amount": "30.139946057",
                        "iconUrl": "",
                        "isERC1155": false,
                        "isERC721": false,
                        "sign": true,
                        "value": "0.59220397"
                    }
                ]
            },
            {
                "account": "0xc02aaa39b223fe8d0a0e5c4f27ead9083c756cc2",
                "assets": [
                    {
                        "address": "0xeeeeeeeeeeeeeeeeeeeeeeeeeeeeeeeeeeeeeeee",
                        "amount": "0.016808881212",
                        "iconUrl": "https://assets.blocksec.com/image/1663669189317-3.png",
                        "isERC1155": false,
                        "isERC721": false,
                        "sign": true,
                        "value": "59.58589208"
                    },
                    {
                        "address": "0xc02aaa39b223fe8d0a0e5c4f27ead9083c756cc2",
                        "amount": "0.016808881212",
                        "iconUrl": "https://assets.blocksec.com/icon/f1cb2d02c471d545bbc7722daf3277fd852d98e63d118771af7047bd8256c516.png",
                        "isERC1155": false,
                        "isERC721": false,
                        "sign": false,
                        "value": "59.58589208"
                    }
                ]
            }
        ]
    },
    "profile": {
        "basic_info": {
            "baseFee": "19.884815896",
            "blockNumber": 19560600,
            "callData": "0x415565b0000000000000000000000000eeeeeeeeeeeeeeeeeeeeeeeeeeeeeeeeeeeeeeee000000000000000000000000a41d2f8ee4f47d3b860a149765a7df8c3287b7f0000000000000000000000000000000000000000000000000003bb796a1b68700000000000000000000000000000000000000000000000000000002a2b9e38b3f00000000000000000000000000000000000000000000000000000000000000a000000000000000000000000000000000000000000000000000000000000000040000000000000000000000000000000000000000000000000000000000000080000000000000000000000000000000000000000000000000000000000000012000000000000000000000000000000000000000000000000000000000000004c000000000000000000000000000000000000000000000000000000000000005c0000000000000000000000000000000000000000000000000000000000000000600000000000000000000000000000000000000000000000000000000000000400000000000000000000000000000000000000000000000000000000000000040000000000000000000000000eeeeeeeeeeeeeeeeeeeeeeeeeeeeeeeeeeeeeeee000000000000000000000000000000000000000000000000003bb796a1b6870000000000000000000000000000000000000000000000000000000000000000210000000000000000000000000000000000000000000000000000000000000040000000000000000000000000000000000000000000000000000000000000034000000000000000000000000000000000000000000000000000000000000000200000000000000000000000000000000000000000000000000000000000000000000000000000000000000000c02aaa39b223fe8d0a0e5c4f27ead9083c756cc2000000000000000000000000a41d2f8ee4f47d3b860a149765a7df8c3287b7f000000000000000000000000000000000000000000000000000000000000001400000000000000000000000000000000000000000000000000000000000000300000000000000000000000000000000000000000000000000000000000000030000000000000000000000000000000000000000000000000000000000000002c0000000000000000000000000000000000000000000000000003bb796a1b68700000000000000000000000000000000000000000000000000000000000000000000000000000000000000000000000000000000000000000000000000000003000000000000000000000000000000000000000000000000000000000000000001000000000000000000000000000000000000000000000000000000000000002000000000000000000000000000000002556e6973776170563200000000000000000000000000000000000000000000000000000000000000003bb796a1b68700000000000000000000000000000000000000000000000000000002a98aa29c2a000000000000000000000000000000000000000000000000000000000000008000000000000000000000000000000000000000000000000000000000000000a0000000000000000000000000f164fc0ec4e93095b804a4795bbe1e041497b92a00000000000000000000000000000000000000000000000000000000000000400000000000000000000000000000000000000000000000000000000000000002000000000000000000000000c02aaa39b223fe8d0a0e5c4f27ead9083c756cc2000000000000000000000000a41d2f8ee4f47d3b860a149765a7df8c3287b7f0000000000000000000000000000000000000000000000000000000000000000100000000000000000000000000000000000000000000000000000000000000000000000000000000000000000000000000000000000000000000000000000000000000000000000000000000000000000000000000000000000000000000001b000000000000000000000000000000000000000000000000000000000000004000000000000000000000000000000000000000000000000000000000000000a000000000000000000000000000000000000000000000000000000000000000200000000000000000000000000000000000000000000000000000000000000001000000000000000000000000a41d2f8ee4f47d3b860a149765a7df8c3287b7f000000000000000000000000000000000000000000000000000000006d0bf10eb000000000000000000000000382ffce2287252f930e1c8dc9328dac5bf282ba1000000000000000000000000000000000000000000000000000000000000001c000000000000000000000000000000000000000000000000000000000000004000000000000000000000000000000000000000000000000000000000000000e00000000000000000000000000000000000000000000000000000000000000020000000000000000000000000000000000000000000000000000000000000004000000000000000000000000000000000000000000000000000000000000000a00000000000000000000000000000000000000000000000000000000000000002000000000000000000000000c02aaa39b223fe8d0a0e5c4f27ead9083c756cc2000000000000000000000000eeeeeeeeeeeeeeeeeeeeeeeeeeeeeeeeeeeeeeee0000000000000000000000000000000000000000000000000000000000000000869584cd000000000000000000000000382ffce2287252f930e1c8dc9328dac5bf282ba100000000000000000000000000000000bdd8abc4df934e0da24429fd756ee5ae",
            "debugEnable": true,
            "errorInfo": "",
            "eventCount": 10,
            "feeRecipient": "0x003a4cc04501e9adecf850313db2d3797df801a2",
            "formatValue": "0.016808881212",
            "gasLimit": 379381,
            "gasPrice": "19.885815896",
            "gasUsed": 280123,
            "intTxnCount": 28,
            "internalRevert": false,
            "internalRevertMessage": "",
            "isContractCreation": false,
            "isFlashloan": false,
            "maxFee": "20.029728753",
            "nonce": 0,
            "overwritedBlockNumber": -1,
            "priorityFee": "0.001",
            "receiver": "0xdef1c0ded9bec7f1a1670819833240f027b25eff",
            "revertMessage": "",
            "sender": "0x04260dd71b6bb32a4a9b0088ad2fb9fffabd8dcc",
            "simulationEnable": true,
            "sourceTxnHash": "0x36f0b308a6c3bdb39f8adea168375a557e5057ec7bf8a8d851f5c3bd033ab4f4",
            "status": true,
            "timestamp": "2024-04-01T11:12:23Z",
            "transactionFee": "0.005570474406235208",
            "txnHash": "0x36f0b308a6c3bdb39f8adea168375a557e5057ec7bf8a8d851f5c3bd033ab4f4",
            "txnIndex": 146,
            "type": 2,
            "value": "16808881212000000"
        },
        "fund_flow": [
            {
                "amount": "0.016808881212",
                "from": "0x04260dd71b6bb32a4a9b0088ad2fb9fffabd8dcc",
                "id": 1,
                "isERC1155": false,
                "isERC721": false,
                "isReverted": false,
                "order": 1,
                "to": "0xdef1c0ded9bec7f1a1670819833240f027b25eff",
                "token": "0xeeeeeeeeeeeeeeeeeeeeeeeeeeeeeeeeeeeeeeee"
            },
            {
                "amount": "0.016808881212",
                "from": "0xdef1c0ded9bec7f1a1670819833240f027b25eff",
                "id": 2,
                "isERC1155": false,
                "isERC721": false,
                "isReverted": false,
                "order": 2,
                "to": "0x22f9dcf4647084d6c31b2765f6910cd85c178c18",
                "token": "0xeeeeeeeeeeeeeeeeeeeeeeeeeeeeeeeeeeeeeeee"
            },
            {
                "amount": "0.016808881212",
                "from": "0x22f9dcf4647084d6c31b2765f6910cd85c178c18",
                "id": 3,
                "isERC1155": false,
                "isERC721": false,
                "isReverted": false,
                "order": 3,
                "to": "0xc02aaa39b223fe8d0a0e5c4f27ead9083c756cc2",
                "token": "0xeeeeeeeeeeeeeeeeeeeeeeeeeeeeeeeeeeeeeeee"
            },
            {
                "amount": "0.016808881212",
                "from": "0xc02aaa39b223fe8d0a0e5c4f27ead9083c756cc2",
                "id": 4,
                "isERC1155": false,
                "isERC721": false,
                "isReverted": false,
                "order": 4,
                "to": "0x22f9dcf4647084d6c31b2765f6910cd85c178c18",
                "token": "0xc02aaa39b223fe8d0a0e5c4f27ead9083c756cc2"
            },
            {
                "amount": "0.016808881212",
                "from": "0x22f9dcf4647084d6c31b2765f6910cd85c178c18",
                "id": 5,
                "isERC1155": false,
                "isERC721": false,
                "isReverted": false,
                "order": 5,
                "to": "0x197d7010147df7b99e9025c724f13723b29313f8",
                "token": "0xc02aaa39b223fe8d0a0e5c4f27ead9083c756cc2"
            },
            {
                "amount": "30.139946057",
                "from": "0x197d7010147df7b99e9025c724f13723b29313f8",
                "id": 6,
                "isERC1155": false,
                "isERC721": false,
                "isReverted": false,
                "order": 6,
                "to": "0xc00ec94e7746c6b695869580d6d2db50cda86094",
                "token": "0xa41d2f8ee4f47d3b860a149765a7df8c3287b7f0"
            },
            {
                "amount": "2,983.854659695",
                "from": "0x197d7010147df7b99e9025c724f13723b29313f8",
                "id": 7,
                "isERC1155": false,
                "isERC721": false,
                "isReverted": false,
                "order": 7,
                "to": "0x22f9dcf4647084d6c31b2765f6910cd85c178c18",
                "token": "0xa41d2f8ee4f47d3b860a149765a7df8c3287b7f0"
            },
            {
                "amount": "29.271986411",
                "from": "0x22f9dcf4647084d6c31b2765f6910cd85c178c18",
                "id": 8,
                "isERC1155": false,
                "isERC721": false,
                "isReverted": false,
                "order": 8,
                "to": "0x382ffce2287252f930e1c8dc9328dac5bf282ba1",
                "token": "0xa41d2f8ee4f47d3b860a149765a7df8c3287b7f0"
            },
            {
                "amount": "2,954.582673284",
                "from": "0x22f9dcf4647084d6c31b2765f6910cd85c178c18",
                "id": 9,
                "isERC1155": false,
                "isERC721": false,
                "isReverted": false,
                "order": 9,
                "to": "0x04260dd71b6bb32a4a9b0088ad2fb9fffabd8dcc",
                "token": "0xa41d2f8ee4f47d3b860a149765a7df8c3287b7f0"
            }
        ],
        "token_infos": [
            {
                "address": "0xa41d2f8ee4f47d3b860a149765a7df8c3287b7f0",
                "decimals": 9
            },
            {
                "address": "0xc02aaa39b223fe8d0a0e5c4f27ead9083c756cc2",
                "decimals": 18
            },
            {
                "address": "0xeeeeeeeeeeeeeeeeeeeeeeeeeeeeeeeeeeeeeeee",
                "decimals": 18
            }
        ]
    },
    "address_label": {
        "labels": [
            {
                "address": "0xeeeeeeeeeeeeeeeeeeeeeeeeeeeeeeeeeeeeeeee",
                "label": "Ether"
            },
            {
                "address": "0x2fd08c1f9fc8406c1d7e3a799a13883a7e7949f0",
                "label": "FillQuoteTransformer"
            },
            {
                "address": "0xea500d073652336a58846ada15c25f2c6d2d241f",
                "label": "PayTakerTransformer"
            },
            {
                "address": "0x8146cbbe327364b13d0699f2ced39c637f92501a",
                "label": "AffiliateFeeTransformer"
            },
            {
                "address": "0xdef1c0ded9bec7f1a1670819833240f027b25eff",
                "label": "0x: Exchange Proxy"
            },
            {
                "address": "0x0000000000000000000000000000000000000003",
                "label": "Precompiled"
            },
            {
                "address": "0x0000000000000000000000000000000000000004",
                "label": "Precompiled"
            },
            {
                "address": "0x44a6999ec971cfca458aff25a808f272f6d492a2",
                "label": "TransformERC20Feature"
            },
            {
                "address": "0x197d7010147df7b99e9025c724f13723b29313f8",
                "label": "Uniswap V2: SYNC 13"
            },
            {
                "address": "0xa2f1f3a93921299f071a002b77a5f3175492bc6a",
                "label": "EthereumBridgeAdapter"
            },
            {
                "address": "0xf164fc0ec4e93095b804a4795bbe1e041497b92a",
                "label": "Uniswap V2: Router"
            },
            {
                "address": "0x0000000000000000000000000000000000000002",
                "label": "Precompiled"
            },
            {
                "address": "0x382ffce2287252f930e1c8dc9328dac5bf282ba1",
                "label": "Coinbase Fees"
            },
            {
                "address": "0x22f9dcf4647084d6c31b2765f6910cd85c178c18",
                "label": "0x: Exchange Proxy Flash Wallet"
            },
            {
                "address": "0xa41d2f8ee4f47d3b860a149765a7df8c3287b7f0",
                "label": "Syncus: SYNC Token"
            },
            {
                "address": "0x0000000000000000000000000000000000000001",
                "label": "Precompiled"
            },
            {
                "address": "0xc02aaa39b223fe8d0a0e5c4f27ead9083c756cc2",
                "label": "Wrapped Ether (WETH)"
            },
            {
                "address": "0xb2bc06a4efb20fc6553a69dbfa49b7be938034a7",
                "label": "0x: WETH Transformer"
            }
        ]
    },
    "trace": {
        "accountLabels": null,
        "dataMap": {
            "-1": {
                "invocation": {
                    "address": "0x04260dd71b6bb32a4a9b0088ad2fb9fffabd8dcc",
                    "callData": "",
                    "decodedMethod": null,
                    "errorInfo": "",
                    "fromAddress": "",
                    "gasUsed": 0,
                    "id": -1,
                    "methodDecoded": false,
                    "operation": "",
                    "output": "",
                    "revert": false,
                    "revertMessage": "",
                    "selector": "",
                    "status": false,
                    "value": ""
                },
                "nodeType": 0
            },
            "0": {
                "invocation": {
                    "address": "0xdef1c0ded9bec7f1a1670819833240f027b25eff",
                    "callData": "0x000000000000000000000000eeeeeeeeeeeeeeeeeeeeeeeeeeeeeeeeeeeeeeee000000000000000000000000a41d2f8ee4f47d3b860a149765a7df8c3287b7f0000000000000000000000000000000000000000000000000003bb796a1b68700000000000000000000000000000000000000000000000000000002a2b9e38b3f00000000000000000000000000000000000000000000000000000000000000a000000000000000000000000000000000000000000000000000000000000000040000000000000000000000000000000000000000000000000000000000000080000000000000000000000000000000000000000000000000000000000000012000000000000000000000000000000000000000000000000000000000000004c000000000000000000000000000000000000000000000000000000000000005c0000000000000000000000000000000000000000000000000000000000000000600000000000000000000000000000000000000000000000000000000000000400000000000000000000000000000000000000000000000000000000000000040000000000000000000000000eeeeeeeeeeeeeeeeeeeeeeeeeeeeeeeeeeeeeeee000000000000000000000000000000000000000000000000003bb796a1b6870000000000000000000000000000000000000000000000000000000000000000210000000000000000000000000000000000000000000000000000000000000040000000000000000000000000000000000000000000000000000000000000034000000000000000000000000000000000000000000000000000000000000000200000000000000000000000000000000000000000000000000000000000000000000000000000000000000000c02aaa39b223fe8d0a0e5c4f27ead9083c756cc2000000000000000000000000a41d2f8ee4f47d3b860a149765a7df8c3287b7f000000000000000000000000000000000000000000000000000000000000001400000000000000000000000000000000000000000000000000000000000000300000000000000000000000000000000000000000000000000000000000000030000000000000000000000000000000000000000000000000000000000000002c0000000000000000000000000000000000000000000000000003bb796a1b68700000000000000000000000000000000000000000000000000000000000000000000000000000000000000000000000000000000000000000000000000000003000000000000000000000000000000000000000000000000000000000000000001000000000000000000000000000000000000000000000000000000000000002000000000000000000000000000000002556e6973776170563200000000000000000000000000000000000000000000000000000000000000003bb796a1b68700000000000000000000000000000000000000000000000000000002a98aa29c2a000000000000000000000000000000000000000000000000000000000000008000000000000000000000000000000000000000000000000000000000000000a0000000000000000000000000f164fc0ec4e93095b804a4795bbe1e041497b92a00000000000000000000000000000000000000000000000000000000000000400000000000000000000000000000000000000000000000000000000000000002000000000000000000000000c02aaa39b223fe8d0a0e5c4f27ead9083c756cc2000000000000000000000000a41d2f8ee4f47d3b860a149765a7df8c3287b7f0000000000000000000000000000000000000000000000000000000000000000100000000000000000000000000000000000000000000000000000000000000000000000000000000000000000000000000000000000000000000000000000000000000000000000000000000000000000000000000000000000000000000001b000000000000000000000000000000000000000000000000000000000000004000000000000000000000000000000000000000000000000000000000000000a000000000000000000000000000000000000000000000000000000000000000200000000000000000000000000000000000000000000000000000000000000001000000000000000000000000a41d2f8ee4f47d3b860a149765a7df8c3287b7f000000000000000000000000000000000000000000000000000000006d0bf10eb000000000000000000000000382ffce2287252f930e1c8dc9328dac5bf282ba1000000000000000000000000000000000000000000000000000000000000001c000000000000000000000000000000000000000000000000000000000000004000000000000000000000000000000000000000000000000000000000000000e00000000000000000000000000000000000000000000000000000000000000020000000000000000000000000000000000000000000000000000000000000004000000000000000000000000000000000000000000000000000000000000000a00000000000000000000000000000000000000000000000000000000000000002000000000000000000000000c02aaa39b223fe8d0a0e5c4f27ead9083c756cc2000000000000000000000000eeeeeeeeeeeeeeeeeeeeeeeeeeeeeeeeeeeeeeee0000000000000000000000000000000000000000000000000000000000000000869584cd000000000000000000000000382ffce2287252f930e1c8dc9328dac5bf282ba100000000000000000000000000000000bdd8abc4df934e0da24429fd756ee5ae",
                    "decodedMethod": {
                        "callParams": [
                            {
                                "name": "inputToken",
                                "type": "address",
                                "value": "0xeeeeeeeeeeeeeeeeeeeeeeeeeeeeeeeeeeeeeeee"
                            },
                            {
                                "name": "outputToken",
                                "type": "address",
                                "value": "0xa41d2f8ee4f47d3b860a149765a7df8c3287b7f0"
                            },
                            {
                                "name": "inputTokenAmount",
                                "type": "uint256",
                                "value": "16,808,881,212,000,000"
                            },
                            {
                                "name": "minOutputTokenAmount",
                                "type": "uint256",
                                "value": "2,897,926,654,783"
                            },
                            {
                                "name": "transformations",
                                "type": "(uint32,bytes)[]",
                                "value": [
                                    [
                                        {
                                            "name": "deploymentNonce",
                                            "type": "uint32",
                                            "value": "6"
                                        },
                                        {
                                            "name": "data",
                                            "type": "bytes",
                                            "value": "0x000000000000000000000000eeeeeeeeeeeeeeeeeeeeeeeeeeeeeeeeeeeeeeee000000000000000000000000000000000000000000000000003bb796a1b68700"
                                        }
                                    ],
                                    [
                                        {
                                            "name": "deploymentNonce",
                                            "type": "uint32",
                                            "value": "33"
                                        },
                                        {
                                            "name": "data",
                                            "type": "bytes",
                                            "value": "0x00000000000000000000000000000000000000000000000000000000000000200000000000000000000000000000000000000000000000000000000000000000000000000000000000000000c02aaa39b223fe8d0a0e5c4f27ead9083c756cc2000000000000000000000000a41d2f8ee4f47d3b860a149765a7df8c3287b7f000000000000000000000000000000000000000000000000000000000000001400000000000000000000000000000000000000000000000000000000000000300000000000000000000000000000000000000000000000000000000000000030000000000000000000000000000000000000000000000000000000000000002c0000000000000000000000000000000000000000000000000003bb796a1b68700000000000000000000000000000000000000000000000000000000000000000000000000000000000000000000000000000000000000000000000000000003000000000000000000000000000000000000000000000000000000000000000001000000000000000000000000000000000000000000000000000000000000002000000000000000000000000000000002556e6973776170563200000000000000000000000000000000000000000000000000000000000000003bb796a1b68700000000000000000000000000000000000000000000000000000002a98aa29c2a000000000000000000000000000000000000000000000000000000000000008000000000000000000000000000000000000000000000000000000000000000a0000000000000000000000000f164fc0ec4e93095b804a4795bbe1e041497b92a00000000000000000000000000000000000000000000000000000000000000400000000000000000000000000000000000000000000000000000000000000002000000000000000000000000c02aaa39b223fe8d0a0e5c4f27ead9083c756cc2000000000000000000000000a41d2f8ee4f47d3b860a149765a7df8c3287b7f0000000000000000000000000000000000000000000000000000000000000000100000000000000000000000000000000000000000000000000000000000000000000000000000000000000000000000000000000000000000000000000000000"
                                        }
                                    ],
                                    [
                                        {
                                            "name": "deploymentNonce",
                                            "type": "uint32",
                                            "value": "27"
                                        },
                                        {
                                            "name": "data",
                                            "type": "bytes",
                                            "value": "0x00000000000000000000000000000000000000000000000000000000000000200000000000000000000000000000000000000000000000000000000000000001000000000000000000000000a41d2f8ee4f47d3b860a149765a7df8c3287b7f000000000000000000000000000000000000000000000000000000006d0bf10eb000000000000000000000000382ffce2287252f930e1c8dc9328dac5bf282ba1"
                                        }
                                    ],
                                    [
                                        {
                                            "name": "deploymentNonce",
                                            "type": "uint32",
                                            "value": "28"
                                        },
                                        {
                                            "name": "data",
                                            "type": "bytes",
                                            "value": "0x0000000000000000000000000000000000000000000000000000000000000020000000000000000000000000000000000000000000000000000000000000004000000000000000000000000000000000000000000000000000000000000000a00000000000000000000000000000000000000000000000000000000000000002000000000000000000000000c02aaa39b223fe8d0a0e5c4f27ead9083c756cc2000000000000000000000000eeeeeeeeeeeeeeeeeeeeeeeeeeeeeeeeeeeeeeee0000000000000000000000000000000000000000000000000000000000000000"
                                        }
                                    ]
                                ]
                            }
                        ],
                        "constructorArguments": "",
                        "name": "transformERC20",
                        "returnParams": [
                            {
                                "name": "outputTokenAmount",
                                "type": "uint256",
                                "value": "2,954,582,673,284"
                            }
                        ],
                        "signature": "transformERC20(address,address,uint256,uint256,(uint32,bytes)[])"
                    },
                    "errorInfo": "",
                    "fromAddress": "0x04260dd71b6bb32a4a9b0088ad2fb9fffabd8dcc",
                    "gasUsed": 280123,
                    "id": 0,
                    "methodDecoded": true,
                    "operation": "CALL",
                    "output": "0x000000000000000000000000000000000000000000000000000002afead9c784",
                    "revert": false,
                    "revertMessage": "",
                    "selector": "0x415565b0",
                    "status": true,
                    "value": "0.016808881212"
                },
                "nodeType": 0
            },
            "1": {
                "invocation": {
                    "address": "0x44a6999ec971cfca458aff25a808f272f6d492a2",
                    "callData": "0x000000000000000000000000eeeeeeeeeeeeeeeeeeeeeeeeeeeeeeeeeeeeeeee000000000000000000000000a41d2f8ee4f47d3b860a149765a7df8c3287b7f0000000000000000000000000000000000000000000000000003bb796a1b68700000000000000000000000000000000000000000000000000000002a2b9e38b3f00000000000000000000000000000000000000000000000000000000000000a000000000000000000000000000000000000000000000000000000000000000040000000000000000000000000000000000000000000000000000000000000080000000000000000000000000000000000000000000000000000000000000012000000000000000000000000000000000000000000000000000000000000004c000000000000000000000000000000000000000000000000000000000000005c0000000000000000000000000000000000000000000000000000000000000000600000000000000000000000000000000000000000000000000000000000000400000000000000000000000000000000000000000000000000000000000000040000000000000000000000000eeeeeeeeeeeeeeeeeeeeeeeeeeeeeeeeeeeeeeee000000000000000000000000000000000000000000000000003bb796a1b6870000000000000000000000000000000000000000000000000000000000000000210000000000000000000000000000000000000000000000000000000000000040000000000000000000000000000000000000000000000000000000000000034000000000000000000000000000000000000000000000000000000000000000200000000000000000000000000000000000000000000000000000000000000000000000000000000000000000c02aaa39b223fe8d0a0e5c4f27ead9083c756cc2000000000000000000000000a41d2f8ee4f47d3b860a149765a7df8c3287b7f000000000000000000000000000000000000000000000000000000000000001400000000000000000000000000000000000000000000000000000000000000300000000000000000000000000000000000000000000000000000000000000030000000000000000000000000000000000000000000000000000000000000002c0000000000000000000000000000000000000000000000000003bb796a1b68700000000000000000000000000000000000000000000000000000000000000000000000000000000000000000000000000000000000000000000000000000003000000000000000000000000000000000000000000000000000000000000000001000000000000000000000000000000000000000000000000000000000000002000000000000000000000000000000002556e6973776170563200000000000000000000000000000000000000000000000000000000000000003bb796a1b68700000000000000000000000000000000000000000000000000000002a98aa29c2a000000000000000000000000000000000000000000000000000000000000008000000000000000000000000000000000000000000000000000000000000000a0000000000000000000000000f164fc0ec4e93095b804a4795bbe1e041497b92a00000000000000000000000000000000000000000000000000000000000000400000000000000000000000000000000000000000000000000000000000000002000000000000000000000000c02aaa39b223fe8d0a0e5c4f27ead9083c756cc2000000000000000000000000a41d2f8ee4f47d3b860a149765a7df8c3287b7f0000000000000000000000000000000000000000000000000000000000000000100000000000000000000000000000000000000000000000000000000000000000000000000000000000000000000000000000000000000000000000000000000000000000000000000000000000000000000000000000000000000000000001b000000000000000000000000000000000000000000000000000000000000004000000000000000000000000000000000000000000000000000000000000000a000000000000000000000000000000000000000000000000000000000000000200000000000000000000000000000000000000000000000000000000000000001000000000000000000000000a41d2f8ee4f47d3b860a149765a7df8c3287b7f000000000000000000000000000000000000000000000000000000006d0bf10eb000000000000000000000000382ffce2287252f930e1c8dc9328dac5bf282ba1000000000000000000000000000000000000000000000000000000000000001c000000000000000000000000000000000000000000000000000000000000004000000000000000000000000000000000000000000000000000000000000000e00000000000000000000000000000000000000000000000000000000000000020000000000000000000000000000000000000000000000000000000000000004000000000000000000000000000000000000000000000000000000000000000a00000000000000000000000000000000000000000000000000000000000000002000000000000000000000000c02aaa39b223fe8d0a0e5c4f27ead9083c756cc2000000000000000000000000eeeeeeeeeeeeeeeeeeeeeeeeeeeeeeeeeeeeeeee0000000000000000000000000000000000000000000000000000000000000000869584cd000000000000000000000000382ffce2287252f930e1c8dc9328dac5bf282ba100000000000000000000000000000000bdd8abc4df934e0da24429fd756ee5ae",
                    "decodedMethod": {
                        "callParams": [
                            {
                                "name": "inputToken",
                                "type": "address",
                                "value": "0xeeeeeeeeeeeeeeeeeeeeeeeeeeeeeeeeeeeeeeee"
                            },
                            {
                                "name": "outputToken",
                                "type": "address",
                                "value": "0xa41d2f8ee4f47d3b860a149765a7df8c3287b7f0"
                            },
                            {
                                "name": "inputTokenAmount",
                                "type": "uint256",
                                "value": "16,808,881,212,000,000"
                            },
                            {
                                "name": "minOutputTokenAmount",
                                "type": "uint256",
                                "value": "2,897,926,654,783"
                            },
                            {
                                "name": "transformations",
                                "type": "(uint32,bytes)[]",
                                "value": [
                                    [
                                        {
                                            "name": "deploymentNonce",
                                            "type": "uint32",
                                            "value": "6"
                                        },
                                        {
                                            "name": "data",
                                            "type": "bytes",
                                            "value": "0x000000000000000000000000eeeeeeeeeeeeeeeeeeeeeeeeeeeeeeeeeeeeeeee000000000000000000000000000000000000000000000000003bb796a1b68700"
                                        }
                                    ],
                                    [
                                        {
                                            "name": "deploymentNonce",
                                            "type": "uint32",
                                            "value": "33"
                                        },
                                        {
                                            "name": "data",
                                            "type": "bytes",
                                            "value": "0x00000000000000000000000000000000000000000000000000000000000000200000000000000000000000000000000000000000000000000000000000000000000000000000000000000000c02aaa39b223fe8d0a0e5c4f27ead9083c756cc2000000000000000000000000a41d2f8ee4f47d3b860a149765a7df8c3287b7f000000000000000000000000000000000000000000000000000000000000001400000000000000000000000000000000000000000000000000000000000000300000000000000000000000000000000000000000000000000000000000000030000000000000000000000000000000000000000000000000000000000000002c0000000000000000000000000000000000000000000000000003bb796a1b68700000000000000000000000000000000000000000000000000000000000000000000000000000000000000000000000000000000000000000000000000000003000000000000000000000000000000000000000000000000000000000000000001000000000000000000000000000000000000000000000000000000000000002000000000000000000000000000000002556e6973776170563200000000000000000000000000000000000000000000000000000000000000003bb796a1b68700000000000000000000000000000000000000000000000000000002a98aa29c2a000000000000000000000000000000000000000000000000000000000000008000000000000000000000000000000000000000000000000000000000000000a0000000000000000000000000f164fc0ec4e93095b804a4795bbe1e041497b92a00000000000000000000000000000000000000000000000000000000000000400000000000000000000000000000000000000000000000000000000000000002000000000000000000000000c02aaa39b223fe8d0a0e5c4f27ead9083c756cc2000000000000000000000000a41d2f8ee4f47d3b860a149765a7df8c3287b7f0000000000000000000000000000000000000000000000000000000000000000100000000000000000000000000000000000000000000000000000000000000000000000000000000000000000000000000000000000000000000000000000000"
                                        }
                                    ],
                                    [
                                        {
                                            "name": "deploymentNonce",
                                            "type": "uint32",
                                            "value": "27"
                                        },
                                        {
                                            "name": "data",
                                            "type": "bytes",
                                            "value": "0x00000000000000000000000000000000000000000000000000000000000000200000000000000000000000000000000000000000000000000000000000000001000000000000000000000000a41d2f8ee4f47d3b860a149765a7df8c3287b7f000000000000000000000000000000000000000000000000000000006d0bf10eb000000000000000000000000382ffce2287252f930e1c8dc9328dac5bf282ba1"
                                        }
                                    ],
                                    [
                                        {
                                            "name": "deploymentNonce",
                                            "type": "uint32",
                                            "value": "28"
                                        },
                                        {
                                            "name": "data",
                                            "type": "bytes",
                                            "value": "0x0000000000000000000000000000000000000000000000000000000000000020000000000000000000000000000000000000000000000000000000000000004000000000000000000000000000000000000000000000000000000000000000a00000000000000000000000000000000000000000000000000000000000000002000000000000000000000000c02aaa39b223fe8d0a0e5c4f27ead9083c756cc2000000000000000000000000eeeeeeeeeeeeeeeeeeeeeeeeeeeeeeeeeeeeeeee0000000000000000000000000000000000000000000000000000000000000000"
                                        }
                                    ]
                                ]
                            }
                        ],
                        "constructorArguments": "",
                        "name": "transformERC20",
                        "returnParams": [
                            {
                                "name": "outputTokenAmount",
                                "type": "uint256",
                                "value": "2,954,582,673,284"
                            }
                        ],
                        "signature": "transformERC20(address,address,uint256,uint256,(uint32,bytes)[])"
                    },
                    "errorInfo": "",
                    "fromAddress": "0xdef1c0ded9bec7f1a1670819833240f027b25eff",
                    "gasUsed": 282514,
                    "id": 1,
                    "methodDecoded": true,
                    "operation": "DELEGATECALL",
                    "output": "0x000000000000000000000000000000000000000000000000000002afead9c784",
                    "revert": false,
                    "revertMessage": "",
                    "selector": "0x415565b0",
                    "status": true,
                    "value": "0.016808881212"
                },
                "nodeType": 0
            },
            "10": {
                "invocation": {
                    "address": "0xc02aaa39b223fe8d0a0e5c4f27ead9083c756cc2",
                    "callData": "0x00000000000000000000000022f9dcf4647084d6c31b2765f6910cd85c178c18",
                    "decodedMethod": {
                        "callParams": [
                            {
                                "name": "",
                                "type": "address",
                                "value": "0x22f9dcf4647084d6c31b2765f6910cd85c178c18"
                            }
                        ],
                        "constructorArguments": "",
                        "name": "balanceOf",
                        "returnParams": [
                            {
                                "decimalAvailable": true,
                                "name": "",
                                "type": "uint256",
                                "value": "16,808,881,212,000,000"
                            }
                        ],
                        "signature": "balanceOf(address)"
                    },
                    "errorInfo": "",
                    "fromAddress": "0x22f9dcf4647084d6c31b2765f6910cd85c178c18",
                    "gasUsed": 534,
                    "id": 10,
                    "methodDecoded": true,
                    "operation": "STATICCALL",
                    "output": "0x000000000000000000000000000000000000000000000000003bb796a1b68700",
                    "revert": false,
                    "revertMessage": "",
                    "selector": "0x70a08231",
                    "status": true,
                    "value": "0"
                },
                "nodeType": 0
            },
            "11": {
                "invocation": {
                    "address": "0xa2f1f3a93921299f071a002b77a5f3175492bc6a",
                    "callData": "0x0000000000000000000000000000000000000000000000000000000000000080000000000000000000000000c02aaa39b223fe8d0a0e5c4f27ead9083c756cc2000000000000000000000000a41d2f8ee4f47d3b860a149765a7df8c3287b7f0000000000000000000000000000000000000000000000000003bb796a1b6870000000000000000000000000000000002556e6973776170563200000000000000000000000000000000000000000000000000000000000000003bb796a1b68700000000000000000000000000000000000000000000000000000002a98aa29c2a000000000000000000000000000000000000000000000000000000000000008000000000000000000000000000000000000000000000000000000000000000a0000000000000000000000000f164fc0ec4e93095b804a4795bbe1e041497b92a00000000000000000000000000000000000000000000000000000000000000400000000000000000000000000000000000000000000000000000000000000002000000000000000000000000c02aaa39b223fe8d0a0e5c4f27ead9083c756cc2000000000000000000000000a41d2f8ee4f47d3b860a149765a7df8c3287b7f0",
                    "decodedMethod": {
                        "callParams": [
                            {
                                "name": "order",
                                "type": "(bytes32,uint256,uint256,bytes)",
                                "value": [
                                    {
                                        "name": "source",
                                        "type": "bytes32",
                                        "value": "0x00000000000000000000000000000002556e6973776170563200000000000000"
                                    },
                                    {
                                        "name": "takerTokenAmount",
                                        "type": "uint256",
                                        "value": "16,808,881,212,000,000"
                                    },
                                    {
                                        "name": "makerTokenAmount",
                                        "type": "uint256",
                                        "value": "2,927,198,641,194"
                                    },
                                    {
                                        "name": "bridgeData",
                                        "type": "bytes",
                                        "value": "0x000000000000000000000000f164fc0ec4e93095b804a4795bbe1e041497b92a00000000000000000000000000000000000000000000000000000000000000400000000000000000000000000000000000000000000000000000000000000002000000000000000000000000c02aaa39b223fe8d0a0e5c4f27ead9083c756cc2000000000000000000000000a41d2f8ee4f47d3b860a149765a7df8c3287b7f0"
                                    }
                                ]
                            },
                            {
                                "name": "sellToken",
                                "type": "address",
                                "value": "0xc02aaa39b223fe8d0a0e5c4f27ead9083c756cc2"
                            },
                            {
                                "name": "buyToken",
                                "type": "address",
                                "value": "0xa41d2f8ee4f47d3b860a149765a7df8c3287b7f0"
                            },
                            {
                                "name": "sellAmount",
                                "type": "uint256",
                                "value": "16,808,881,212,000,000"
                            }
                        ],
                        "constructorArguments": "",
                        "name": "trade",
                        "returnParams": [
                            {
                                "name": "boughtAmount",
                                "type": "uint256",
                                "value": "3,013,994,605,752"
                            }
                        ],
                        "signature": "trade((bytes32,uint256,uint256,bytes),address,address,uint256)"
                    },
                    "errorInfo": "",
                    "fromAddress": "0x22f9dcf4647084d6c31b2765f6910cd85c178c18",
                    "gasUsed": 117498,
                    "id": 11,
                    "methodDecoded": true,
                    "operation": "DELEGATECALL",
                    "output": "0x000000000000000000000000000000000000000000000000000002bdc013ecb8",
                    "revert": false,
                    "revertMessage": "",
                    "selector": "0xf712a148",
                    "status": true,
                    "value": "0"
                },
                "nodeType": 0
            },
            "12": {
                "invocation": {
                    "address": "0xc02aaa39b223fe8d0a0e5c4f27ead9083c756cc2",
                    "callData": "0x00000000000000000000000022f9dcf4647084d6c31b2765f6910cd85c178c18000000000000000000000000f164fc0ec4e93095b804a4795bbe1e041497b92a",
                    "decodedMethod": {
                        "callParams": [
                            {
                                "name": "",
                                "type": "address",
                                "value": "0x22f9dcf4647084d6c31b2765f6910cd85c178c18"
                            },
                            {
                                "name": "",
                                "type": "address",
                                "value": "0xf164fc0ec4e93095b804a4795bbe1e041497b92a"
                            }
                        ],
                        "constructorArguments": "",
                        "name": "allowance",
                        "returnParams": [
                            {
                                "decimalAvailable": true,
                                "name": "",
                                "type": "uint256",
                                "value": "115,792,089,237,316,195,423,570,985,008,687,907,853,269,984,665,640,564,039,457,584,007,913,129,639,935"
                            }
                        ],
                        "signature": "allowance(address,address)"
                    },
                    "errorInfo": "",
                    "fromAddress": "0x22f9dcf4647084d6c31b2765f6910cd85c178c18",
                    "gasUsed": 2717,
                    "id": 12,
                    "methodDecoded": true,
                    "operation": "STATICCALL",
                    "output": "0xffffffffffffffffffffffffffffffffffffffffffffffffffffffffffffffff",
                    "revert": false,
                    "revertMessage": "",
                    "selector": "0xdd62ed3e",
                    "status": true,
                    "value": "0"
                },
                "nodeType": 0
            },
            "13": {
                "invocation": {
                    "address": "0xf164fc0ec4e93095b804a4795bbe1e041497b92a",
                    "callData": "0x000000000000000000000000000000000000000000000000003bb796a1b68700000000000000000000000000000000000000000000000000000000000000000100000000000000000000000000000000000000000000000000000000000000a000000000000000000000000022f9dcf4647084d6c31b2765f6910cd85c178c1800000000000000000000000000000000000000000000000000000000660a96970000000000000000000000000000000000000000000000000000000000000002000000000000000000000000c02aaa39b223fe8d0a0e5c4f27ead9083c756cc2000000000000000000000000a41d2f8ee4f47d3b860a149765a7df8c3287b7f0",
                    "decodedMethod": {
                        "callParams": [
                            {
                                "name": "amountIn",
                                "type": "uint256",
                                "value": "16,808,881,212,000,000"
                            },
                            {
                                "name": "amountOutMin",
                                "type": "uint256",
                                "value": "1"
                            },
                            {
                                "name": "path",
                                "type": "address[]",
                                "value": [
                                    "0xc02aaa39b223fe8d0a0e5c4f27ead9083c756cc2",
                                    "0xa41d2f8ee4f47d3b860a149765a7df8c3287b7f0"
                                ]
                            },
                            {
                                "name": "to",
                                "type": "address",
                                "value": "0x22f9dcf4647084d6c31b2765f6910cd85c178c18"
                            },
                            {
                                "name": "deadline",
                                "type": "uint256",
                                "value": "1,711,969,943"
                            }
                        ],
                        "constructorArguments": "",
                        "name": "swapExactTokensForTokens",
                        "returnParams": [
                            {
                                "name": "amounts",
                                "type": "uint256[]",
                                "value": [
                                    "16,808,881,212,000,000",
                                    "3,013,994,605,752"
                                ]
                            }
                        ],
                        "signature": "swapExactTokensForTokens(uint256,uint256,address[],address,uint256)"
                    },
                    "errorInfo": "",
                    "fromAddress": "0x22f9dcf4647084d6c31b2765f6910cd85c178c18",
                    "gasUsed": 105161,
                    "id": 13,
                    "methodDecoded": true,
                    "operation": "CALL",
                    "output": "0x00000000000000000000000000000000000000000000000000000000000000200000000000000000000000000000000000000000000000000000000000000002000000000000000000000000000000000000000000000000003bb796a1b68700000000000000000000000000000000000000000000000000000002bdc013ecb8",
                    "revert": false,
                    "revertMessage": "",
                    "selector": "0x38ed1739",
                    "status": true,
                    "value": "0"
                },
                "nodeType": 0
            },
            "14": {
                "invocation": {
                    "address": "0x197d7010147df7b99e9025c724f13723b29313f8",
                    "callData": "0x",
                    "decodedMethod": {
                        "callParams": [],
                        "constructorArguments": "",
                        "name": "getReserves",
                        "returnParams": [
                            {
                                "name": "_reserve0",
                                "type": "uint112",
                                "value": "63,030,333,103,149,787"
                            },
                            {
                                "name": "_reserve1",
                                "type": "uint112",
                                "value": "350,445,373,004,475,702,606"
                            },
                            {
                                "name": "_blockTimestampLast",
                                "type": "uint32",
                                "value": "1,711,969,919"
                            }
                        ],
                        "signature": "getReserves()"
                    },
                    "errorInfo": "",
                    "fromAddress": "0xf164fc0ec4e93095b804a4795bbe1e041497b92a",
                    "gasUsed": 2504,
                    "id": 14,
                    "methodDecoded": true,
                    "operation": "STATICCALL",
                    "output": "0x00000000000000000000000000000000000000000000000000dfedc106b012db000000000000000000000000000000000000000000000012ff681202270a9d4e00000000000000000000000000000000000000000000000000000000660a967f",
                    "revert": false,
                    "revertMessage": "",
                    "selector": "0x0902f1ac",
                    "status": true,
                    "value": "0"
                },
                "nodeType": 0
            },
            "15": {
                "invocation": {
                    "address": "0xc02aaa39b223fe8d0a0e5c4f27ead9083c756cc2",
                    "callData": "0x00000000000000000000000022f9dcf4647084d6c31b2765f6910cd85c178c18000000000000000000000000197d7010147df7b99e9025c724f13723b29313f8000000000000000000000000000000000000000000000000003bb796a1b68700",
                    "decodedMethod": {
                        "callParams": [
                            {
                                "name": "src",
                                "type": "address",
                                "value": "0x22f9dcf4647084d6c31b2765f6910cd85c178c18"
                            },
                            {
                                "name": "dst",
                                "type": "address",
                                "value": "0x197d7010147df7b99e9025c724f13723b29313f8"
                            },
                            {
                                "decimalAvailable": true,
                                "name": "wad",
                                "type": "uint256",
                                "value": "16,808,881,212,000,000"
                            }
                        ],
                        "constructorArguments": "",
                        "name": "transferFrom",
                        "returnParams": [
                            {
                                "name": "",
                                "type": "bool",
                                "value": true
                            }
                        ],
                        "signature": "transferFrom(address,address,uint256)"
                    },
                    "errorInfo": "",
                    "fromAddress": "0xf164fc0ec4e93095b804a4795bbe1e041497b92a",
                    "gasUsed": 8225,
                    "id": 15,
                    "methodDecoded": true,
                    "operation": "CALL",
                    "output": "0x0000000000000000000000000000000000000000000000000000000000000001",
                    "revert": false,
                    "revertMessage": "",
                    "selector": "0x23b872dd",
                    "status": true,
                    "value": "0"
                },
                "nodeType": 0
            },
            "16": {
                "event": {
                    "contract": "0xc02aaa39b223fe8d0a0e5c4f27ead9083c756cc2",
                    "decodedLog": {
                        "name": "Transfer",
                        "params": [
                            {
                                "name": "src",
                                "type": "address",
                                "value": "0x22f9dcf4647084d6c31b2765f6910cd85c178c18"
                            },
                            {
                                "name": "dst",
                                "type": "address",
                                "value": "0x197d7010147df7b99e9025c724f13723b29313f8"
                            },
                            {
                                "decimalAvailable": true,
                                "name": "wad",
                                "type": "uint256",
                                "value": "16,808,881,212,000,000"
                            }
                        ],
                        "signature": "Transfer(address,address,uint256)"
                    },
                    "id": 16,
                    "logData": "0x000000000000000000000000000000000000000000000000003bb796a1b68700",
                    "logDecoded": true,
                    "operation": "EVENT",
                    "revert": false,
                    "status": true,
                    "topics": [
                        "0xddf252ad1be2c89b69c2b068fc378daa952ba7f163c4a11628f55a4df523b3ef",
                        "0x00000000000000000000000022f9dcf4647084d6c31b2765f6910cd85c178c18",
                        "0x000000000000000000000000197d7010147df7b99e9025c724f13723b29313f8"
                    ]
                },
                "nodeType": 1
            },
            "17": {
                "invocation": {
                    "address": "0x197d7010147df7b99e9025c724f13723b29313f8",
                    "callData": "0x000000000000000000000000000000000000000000000000000002bdc013ecb8000000000000000000000000000000000000000000000000000000000000000000000000000000000000000022f9dcf4647084d6c31b2765f6910cd85c178c1800000000000000000000000000000000000000000000000000000000000000800000000000000000000000000000000000000000000000000000000000000000",
                    "decodedMethod": {
                        "callParams": [
                            {
                                "name": "amount0Out",
                                "type": "uint256",
                                "value": "3,013,994,605,752"
                            },
                            {
                                "name": "amount1Out",
                                "type": "uint256",
                                "value": "0"
                            },
                            {
                                "name": "to",
                                "type": "address",
                                "value": "0x22f9dcf4647084d6c31b2765f6910cd85c178c18"
                            },
                            {
                                "name": "data",
                                "type": "bytes",
                                "value": "0x"
                            }
                        ],
                        "constructorArguments": "",
                        "name": "swap",
                        "returnParams": [],
                        "signature": "swap(uint256,uint256,address,bytes)"
                    },
                    "errorInfo": "",
                    "fromAddress": "0xf164fc0ec4e93095b804a4795bbe1e041497b92a",
                    "gasUsed": 84135,
                    "id": 17,
                    "methodDecoded": true,
                    "operation": "CALL",
                    "output": "",
                    "revert": false,
                    "revertMessage": "",
                    "selector": "0x022c0d9f",
                    "status": true,
                    "value": "0"
                },
                "nodeType": 0
            },
            "18": {
                "invocation": {
                    "address": "0xa41d2f8ee4f47d3b860a149765a7df8c3287b7f0",
                    "callData": "0x00000000000000000000000022f9dcf4647084d6c31b2765f6910cd85c178c18000000000000000000000000000000000000000000000000000002bdc013ecb8",
                    "decodedMethod": {
                        "callParams": [
                            {
                                "name": "recipient",
                                "type": "address",
                                "value": "0x22f9dcf4647084d6c31b2765f6910cd85c178c18"
                            },
                            {
                                "decimalAvailable": true,
                                "name": "amount",
                                "type": "uint256",
                                "value": "3,013,994,605,752"
                            }
                        ],
                        "constructorArguments": "",
                        "name": "transfer",
                        "returnParams": [
                            {
                                "name": "",
                                "type": "bool",
                                "value": true
                            }
                        ],
                        "signature": "transfer(address,uint256)"
                    },
                    "errorInfo": "",
                    "fromAddress": "0x197d7010147df7b99e9025c724f13723b29313f8",
                    "gasUsed": 51659,
                    "id": 18,
                    "methodDecoded": true,
                    "operation": "CALL",
                    "output": "0x0000000000000000000000000000000000000000000000000000000000000001",
                    "revert": false,
                    "revertMessage": "",
                    "selector": "0xa9059cbb",
                    "status": true,
                    "value": "0"
                },
                "nodeType": 0
            },
            "19": {
                "event": {
                    "contract": "0xa41d2f8ee4f47d3b860a149765a7df8c3287b7f0",
                    "decodedLog": {
                        "name": "Transfer",
                        "params": [
                            {
                                "name": "from",
                                "type": "address",
                                "value": "0x197d7010147df7b99e9025c724f13723b29313f8"
                            },
                            {
                                "name": "to",
                                "type": "address",
                                "value": "0xc00ec94e7746c6b695869580d6d2db50cda86094"
                            },
                            {
                                "decimalAvailable": true,
                                "name": "value",
                                "type": "uint256",
                                "value": "30,139,946,057"
                            }
                        ],
                        "signature": "Transfer(address,address,uint256)"
                    },
                    "id": 19,
                    "logData": "0x00000000000000000000000000000000000000000000000000000007047b1449",
                    "logDecoded": true,
                    "operation": "EVENT",
                    "revert": false,
                    "status": true,
                    "topics": [
                        "0xddf252ad1be2c89b69c2b068fc378daa952ba7f163c4a11628f55a4df523b3ef",
                        "0x000000000000000000000000197d7010147df7b99e9025c724f13723b29313f8",
                        "0x000000000000000000000000c00ec94e7746c6b695869580d6d2db50cda86094"
                    ]
                },
                "nodeType": 1
            },
            "2": {
                "invocation": {
                    "address": "0xa41d2f8ee4f47d3b860a149765a7df8c3287b7f0",
                    "callData": "0x00000000000000000000000004260dd71b6bb32a4a9b0088ad2fb9fffabd8dcc",
                    "decodedMethod": {
                        "callParams": [
                            {
                                "name": "account",
                                "type": "address",
                                "value": "0x04260dd71b6bb32a4a9b0088ad2fb9fffabd8dcc"
                            }
                        ],
                        "constructorArguments": "",
                        "name": "balanceOf",
                        "returnParams": [
                            {
                                "decimalAvailable": true,
                                "name": "",
                                "type": "uint256",
                                "value": "0"
                            }
                        ],
                        "signature": "balanceOf(address)"
                    },
                    "errorInfo": "",
                    "fromAddress": "0xdef1c0ded9bec7f1a1670819833240f027b25eff",
                    "gasUsed": 2619,
                    "id": 2,
                    "methodDecoded": true,
                    "operation": "STATICCALL",
                    "output": "0x0000000000000000000000000000000000000000000000000000000000000000",
                    "revert": false,
                    "revertMessage": "",
                    "selector": "0x70a08231",
                    "status": true,
                    "value": "0"
                },
                "nodeType": 0
            },
            "20": {
                "event": {
                    "contract": "0xa41d2f8ee4f47d3b860a149765a7df8c3287b7f0",
                    "decodedLog": {
                        "name": "Transfer",
                        "params": [
                            {
                                "name": "from",
                                "type": "address",
                                "value": "0x197d7010147df7b99e9025c724f13723b29313f8"
                            },
                            {
                                "name": "to",
                                "type": "address",
                                "value": "0x22f9dcf4647084d6c31b2765f6910cd85c178c18"
                            },
                            {
                                "decimalAvailable": true,
                                "name": "value",
                                "type": "uint256",
                                "value": "2,983,854,659,695"
                            }
                        ],
                        "signature": "Transfer(address,address,uint256)"
                    },
                    "id": 20,
                    "logData": "0x000000000000000000000000000000000000000000000000000002b6bb98d86f",
                    "logDecoded": true,
                    "operation": "EVENT",
                    "revert": false,
                    "status": true,
                    "topics": [
                        "0xddf252ad1be2c89b69c2b068fc378daa952ba7f163c4a11628f55a4df523b3ef",
                        "0x000000000000000000000000197d7010147df7b99e9025c724f13723b29313f8",
                        "0x00000000000000000000000022f9dcf4647084d6c31b2765f6910cd85c178c18"
                    ]
                },
                "nodeType": 1
            },
            "21": {
                "invocation": {
                    "address": "0xa41d2f8ee4f47d3b860a149765a7df8c3287b7f0",
                    "callData": "0x000000000000000000000000197d7010147df7b99e9025c724f13723b29313f8",
                    "decodedMethod": {
                        "callParams": [
                            {
                                "name": "account",
                                "type": "address",
                                "value": "0x197d7010147df7b99e9025c724f13723b29313f8"
                            }
                        ],
                        "constructorArguments": "",
                        "name": "balanceOf",
                        "returnParams": [
                            {
                                "decimalAvailable": true,
                                "name": "",
                                "type": "uint256",
                                "value": "63,027,319,108,544,035"
                            }
                        ],
                        "signature": "balanceOf(address)"
                    },
                    "errorInfo": "",
                    "fromAddress": "0x197d7010147df7b99e9025c724f13723b29313f8",
                    "gasUsed": 619,
                    "id": 21,
                    "methodDecoded": true,
                    "operation": "STATICCALL",
                    "output": "0x00000000000000000000000000000000000000000000000000dfeb03469c2623",
                    "revert": false,
                    "revertMessage": "",
                    "selector": "0x70a08231",
                    "status": true,
                    "value": "0"
                },
                "nodeType": 0
            },
            "22": {
                "invocation": {
                    "address": "0xc02aaa39b223fe8d0a0e5c4f27ead9083c756cc2",
                    "callData": "0x000000000000000000000000197d7010147df7b99e9025c724f13723b29313f8",
                    "decodedMethod": {
                        "callParams": [
                            {
                                "name": "",
                                "type": "address",
                                "value": "0x197d7010147df7b99e9025c724f13723b29313f8"
                            }
                        ],
                        "constructorArguments": "",
                        "name": "balanceOf",
                        "returnParams": [
                            {
                                "decimalAvailable": true,
                                "name": "",
                                "type": "uint256",
                                "value": "350,462,181,885,687,702,606"
                            }
                        ],
                        "signature": "balanceOf(address)"
                    },
                    "errorInfo": "",
                    "fromAddress": "0x197d7010147df7b99e9025c724f13723b29313f8",
                    "gasUsed": 534,
                    "id": 22,
                    "methodDecoded": true,
                    "operation": "STATICCALL",
                    "output": "0x000000000000000000000000000000000000000000000012ffa3c998c8c1244e",
                    "revert": false,
                    "revertMessage": "",
                    "selector": "0x70a08231",
                    "status": true,
                    "value": "0"
                },
                "nodeType": 0
            },
            "23": {
                "event": {
                    "contract": "0x197d7010147df7b99e9025c724f13723b29313f8",
                    "decodedLog": {
                        "name": "Sync",
                        "params": [
                            {
                                "name": "reserve0",
                                "type": "uint112",
                                "value": "63,027,319,108,544,035"
                            },
                            {
                                "name": "reserve1",
                                "type": "uint112",
                                "value": "350,462,181,885,687,702,606"
                            }
                        ],
                        "signature": "Sync(uint112,uint112)"
                    },
                    "id": 23,
                    "logData": "0x00000000000000000000000000000000000000000000000000dfeb03469c2623000000000000000000000000000000000000000000000012ffa3c998c8c1244e",
                    "logDecoded": true,
                    "operation": "EVENT",
                    "revert": false,
                    "status": true,
                    "topics": [
                        "0x1c411e9a96e071241c2f21f7726b17ae89e3cab4c78be50e062b03a9fffbbad1"
                    ]
                },
                "nodeType": 1
            },
            "24": {
                "event": {
                    "contract": "0x197d7010147df7b99e9025c724f13723b29313f8",
                    "decodedLog": {
                        "name": "Swap",
                        "params": [
                            {
                                "name": "sender",
                                "type": "address",
                                "value": "0xf164fc0ec4e93095b804a4795bbe1e041497b92a"
                            },
                            {
                                "name": "to",
                                "type": "address",
                                "value": "0x22f9dcf4647084d6c31b2765f6910cd85c178c18"
                            },
                            {
                                "name": "amount0In",
                                "type": "uint256",
                                "value": "0"
                            },
                            {
                                "name": "amount1In",
                                "type": "uint256",
                                "value": "16,808,881,212,000,000"
                            },
                            {
                                "name": "amount0Out",
                                "type": "uint256",
                                "value": "3,013,994,605,752"
                            },
                            {
                                "name": "amount1Out",
                                "type": "uint256",
                                "value": "0"
                            }
                        ],
                        "signature": "Swap(address,uint256,uint256,uint256,uint256,address)"
                    },
                    "id": 24,
                    "logData": "0x0000000000000000000000000000000000000000000000000000000000000000000000000000000000000000000000000000000000000000003bb796a1b68700000000000000000000000000000000000000000000000000000002bdc013ecb80000000000000000000000000000000000000000000000000000000000000000",
                    "logDecoded": true,
                    "operation": "EVENT",
                    "revert": false,
                    "status": true,
                    "topics": [
                        "0xd78ad95fa46c994b6551d0da85fc275fe613ce37657fb8d5e3d130840159d822",
                        "0x000000000000000000000000f164fc0ec4e93095b804a4795bbe1e041497b92a",
                        "0x00000000000000000000000022f9dcf4647084d6c31b2765f6910cd85c178c18"
                    ]
                },
                "nodeType": 1
            },
            "25": {
                "event": {
                    "contract": "0x22f9dcf4647084d6c31b2765f6910cd85c178c18",
                    "decodedLog": {
                        "name": "BridgeFill",
                        "params": [
                            {
                                "name": "source",
                                "type": "bytes32",
                                "value": "0x00000000000000000000000000000002556e6973776170563200000000000000"
                            },
                            {
                                "name": "inputToken",
                                "type": "address",
                                "value": "0xc02aaa39b223fe8d0a0e5c4f27ead9083c756cc2"
                            },
                            {
                                "name": "outputToken",
                                "type": "address",
                                "value": "0xa41d2f8ee4f47d3b860a149765a7df8c3287b7f0"
                            },
                            {
                                "name": "inputTokenAmount",
                                "type": "uint256",
                                "value": "16,808,881,212,000,000"
                            },
                            {
                                "name": "outputTokenAmount",
                                "type": "uint256",
                                "value": "3,013,994,605,752"
                            }
                        ],
                        "signature": "BridgeFill(bytes32,address,address,uint256,uint256)"
                    },
                    "id": 25,
                    "logData": "0x00000000000000000000000000000002556e6973776170563200000000000000000000000000000000000000c02aaa39b223fe8d0a0e5c4f27ead9083c756cc2000000000000000000000000a41d2f8ee4f47d3b860a149765a7df8c3287b7f0000000000000000000000000000000000000000000000000003bb796a1b68700000000000000000000000000000000000000000000000000000002bdc013ecb8",
                    "logDecoded": true,
                    "operation": "EVENT",
                    "revert": false,
                    "status": true,
                    "topics": [
                        "0xe59e71a14fe90157eedc866c4f8c767d3943d6b6b2e8cd64dddcc92ab4c55af8"
                    ]
                },
                "nodeType": 1
            },
            "26": {
                "invocation": {
                    "address": "0x22f9dcf4647084d6c31b2765f6910cd85c178c18",
                    "callData": "0x0000000000000000000000008146cbbe327364b13d0699f2ced39c637f92501a00000000000000000000000000000000000000000000000000000000000000400000000000000000000000000000000000000000000000000000000000000144832b24bb000000000000000000000000000000000000000000000000000000000000002000000000000000000000000004260dd71b6bb32a4a9b0088ad2fb9fffabd8dcc00000000000000000000000004260dd71b6bb32a4a9b0088ad2fb9fffabd8dcc000000000000000000000000000000000000000000000000000000000000006000000000000000000000000000000000000000000000000000000000000000a000000000000000000000000000000000000000000000000000000000000000200000000000000000000000000000000000000000000000000000000000000001000000000000000000000000a41d2f8ee4f47d3b860a149765a7df8c3287b7f000000000000000000000000000000000000000000000000000000006d0bf10eb000000000000000000000000382ffce2287252f930e1c8dc9328dac5bf282ba100000000000000000000000000000000000000000000000000000000",
                    "decodedMethod": {
                        "callParams": [
                            {
                                "name": "target",
                                "type": "address",
                                "value": "0x8146cbbe327364b13d0699f2ced39c637f92501a"
                            },
                            {
                                "name": "callData",
                                "type": "bytes",
                                "value": "0x832b24bb000000000000000000000000000000000000000000000000000000000000002000000000000000000000000004260dd71b6bb32a4a9b0088ad2fb9fffabd8dcc00000000000000000000000004260dd71b6bb32a4a9b0088ad2fb9fffabd8dcc000000000000000000000000000000000000000000000000000000000000006000000000000000000000000000000000000000000000000000000000000000a000000000000000000000000000000000000000000000000000000000000000200000000000000000000000000000000000000000000000000000000000000001000000000000000000000000a41d2f8ee4f47d3b860a149765a7df8c3287b7f000000000000000000000000000000000000000000000000000000006d0bf10eb000000000000000000000000382ffce2287252f930e1c8dc9328dac5bf282ba1"
                            }
                        ],
                        "constructorArguments": "",
                        "name": "executeDelegateCall",
                        "returnParams": [
                            {
                                "name": "resultData",
                                "type": "bytes",
                                "value": "0x13c9929e00000000000000000000000000000000000000000000000000000000"
                            }
                        ],
                        "signature": "executeDelegateCall(address,bytes)"
                    },
                    "errorInfo": "",
                    "fromAddress": "0xdef1c0ded9bec7f1a1670819833240f027b25eff",
                    "gasUsed": 20196,
                    "id": 26,
                    "methodDecoded": true,
                    "operation": "CALL",
                    "output": "0x0000000000000000000000000000000000000000000000000000000000000020000000000000000000000000000000000000000000000000000000000000002013c9929e00000000000000000000000000000000000000000000000000000000",
                    "revert": false,
                    "revertMessage": "",
                    "selector": "0xb68df16d",
                    "status": true,
                    "value": "0"
                },
                "nodeType": 0
            },
            "27": {
                "invocation": {
                    "address": "0x8146cbbe327364b13d0699f2ced39c637f92501a",
                    "callData": "0x000000000000000000000000000000000000000000000000000000000000002000000000000000000000000004260dd71b6bb32a4a9b0088ad2fb9fffabd8dcc00000000000000000000000004260dd71b6bb32a4a9b0088ad2fb9fffabd8dcc000000000000000000000000000000000000000000000000000000000000006000000000000000000000000000000000000000000000000000000000000000a000000000000000000000000000000000000000000000000000000000000000200000000000000000000000000000000000000000000000000000000000000001000000000000000000000000a41d2f8ee4f47d3b860a149765a7df8c3287b7f000000000000000000000000000000000000000000000000000000006d0bf10eb000000000000000000000000382ffce2287252f930e1c8dc9328dac5bf282ba1",
                    "decodedMethod": {
                        "callParams": [
                            {
                                "name": "context",
                                "type": "(address,address,bytes)",
                                "value": [
                                    {
                                        "name": "sender",
                                        "type": "address",
                                        "value": "0x04260dd71b6bb32a4a9b0088ad2fb9fffabd8dcc"
                                    },
                                    {
                                        "name": "recipient",
                                        "type": "address",
                                        "value": "0x04260dd71b6bb32a4a9b0088ad2fb9fffabd8dcc"
                                    },
                                    {
                                        "name": "data",
                                        "type": "bytes",
                                        "value": "0x00000000000000000000000000000000000000000000000000000000000000200000000000000000000000000000000000000000000000000000000000000001000000000000000000000000a41d2f8ee4f47d3b860a149765a7df8c3287b7f000000000000000000000000000000000000000000000000000000006d0bf10eb000000000000000000000000382ffce2287252f930e1c8dc9328dac5bf282ba1"
                                    }
                                ]
                            }
                        ],
                        "constructorArguments": "",
                        "name": "transform",
                        "returnParams": [
                            {
                                "name": "success",
                                "type": "bytes4",
                                "value": "0x13c9929e"
                            }
                        ],
                        "signature": "transform((address,address,bytes))"
                    },
                    "errorInfo": "",
                    "fromAddress": "0x22f9dcf4647084d6c31b2765f6910cd85c178c18",
                    "gasUsed": 16411,
                    "id": 27,
                    "methodDecoded": true,
                    "operation": "DELEGATECALL",
                    "output": "0x13c9929e00000000000000000000000000000000000000000000000000000000",
                    "revert": false,
                    "revertMessage": "",
                    "selector": "0x832b24bb",
                    "status": true,
                    "value": "0"
                },
                "nodeType": 0
            },
            "28": {
                "invocation": {
                    "address": "0xa41d2f8ee4f47d3b860a149765a7df8c3287b7f0",
                    "callData": "0x000000000000000000000000382ffce2287252f930e1c8dc9328dac5bf282ba100000000000000000000000000000000000000000000000000000006d0bf10eb",
                    "decodedMethod": {
                        "callParams": [
                            {
                                "name": "recipient",
                                "type": "address",
                                "value": "0x382ffce2287252f930e1c8dc9328dac5bf282ba1"
                            },
                            {
                                "decimalAvailable": true,
                                "name": "amount",
                                "type": "uint256",
                                "value": "29,271,986,411"
                            }
                        ],
                        "constructorArguments": "",
                        "name": "transfer",
                        "returnParams": [
                            {
                                "name": "",
                                "type": "bool",
                                "value": true
                            }
                        ],
                        "signature": "transfer(address,uint256)"
                    },
                    "errorInfo": "",
                    "fromAddress": "0x22f9dcf4647084d6c31b2765f6910cd85c178c18",
                    "gasUsed": 13319,
                    "id": 28,
                    "methodDecoded": true,
                    "operation": "CALL",
                    "output": "0x0000000000000000000000000000000000000000000000000000000000000001",
                    "revert": false,
                    "revertMessage": "",
                    "selector": "0xa9059cbb",
                    "status": true,
                    "value": "0"
                },
                "nodeType": 0
            },
            "29": {
                "event": {
                    "contract": "0xa41d2f8ee4f47d3b860a149765a7df8c3287b7f0",
                    "decodedLog": {
                        "name": "Transfer",
                        "params": [
                            {
                                "name": "from",
                                "type": "address",
                                "value": "0x22f9dcf4647084d6c31b2765f6910cd85c178c18"
                            },
                            {
                                "name": "to",
                                "type": "address",
                                "value": "0x382ffce2287252f930e1c8dc9328dac5bf282ba1"
                            },
                            {
                                "decimalAvailable": true,
                                "name": "value",
                                "type": "uint256",
                                "value": "29,271,986,411"
                            }
                        ],
                        "signature": "Transfer(address,address,uint256)"
                    },
                    "id": 29,
                    "logData": "0x00000000000000000000000000000000000000000000000000000006d0bf10eb",
                    "logDecoded": true,
                    "operation": "EVENT",
                    "revert": false,
                    "status": true,
                    "topics": [
                        "0xddf252ad1be2c89b69c2b068fc378daa952ba7f163c4a11628f55a4df523b3ef",
                        "0x00000000000000000000000022f9dcf4647084d6c31b2765f6910cd85c178c18",
                        "0x000000000000000000000000382ffce2287252f930e1c8dc9328dac5bf282ba1"
                    ]
                },
                "nodeType": 1
            },
            "3": {
                "invocation": {
                    "address": "0x22f9dcf4647084d6c31b2765f6910cd85c178c18",
                    "callData": "0x",
                    "decodedMethod": null,
                    "errorInfo": "",
                    "fromAddress": "0xdef1c0ded9bec7f1a1670819833240f027b25eff",
                    "gasUsed": 55,
                    "id": 3,
                    "methodDecoded": false,
                    "operation": "CALL",
                    "output": "",
                    "revert": false,
                    "revertMessage": "",
                    "selector": "fallback",
                    "status": true,
                    "value": "0.016808881212"
                },
                "nodeType": 0
            },
            "30": {
                "invocation": {
                    "address": "0x22f9dcf4647084d6c31b2765f6910cd85c178c18",
                    "callData": "0x000000000000000000000000ea500d073652336a58846ada15c25f2c6d2d241f00000000000000000000000000000000000000000000000000000000000000400000000000000000000000000000000000000000000000000000000000000184832b24bb000000000000000000000000000000000000000000000000000000000000002000000000000000000000000004260dd71b6bb32a4a9b0088ad2fb9fffabd8dcc00000000000000000000000004260dd71b6bb32a4a9b0088ad2fb9fffabd8dcc000000000000000000000000000000000000000000000000000000000000006000000000000000000000000000000000000000000000000000000000000000e00000000000000000000000000000000000000000000000000000000000000020000000000000000000000000000000000000000000000000000000000000004000000000000000000000000000000000000000000000000000000000000000a00000000000000000000000000000000000000000000000000000000000000002000000000000000000000000c02aaa39b223fe8d0a0e5c4f27ead9083c756cc2000000000000000000000000eeeeeeeeeeeeeeeeeeeeeeeeeeeeeeeeeeeeeeee000000000000000000000000000000000000000000000000000000000000000000000000000000000000000000000000000000000000000000000000",
                    "decodedMethod": {
                        "callParams": [
                            {
                                "name": "target",
                                "type": "address",
                                "value": "0xea500d073652336a58846ada15c25f2c6d2d241f"
                            },
                            {
                                "name": "callData",
                                "type": "bytes",
                                "value": "0x832b24bb000000000000000000000000000000000000000000000000000000000000002000000000000000000000000004260dd71b6bb32a4a9b0088ad2fb9fffabd8dcc00000000000000000000000004260dd71b6bb32a4a9b0088ad2fb9fffabd8dcc000000000000000000000000000000000000000000000000000000000000006000000000000000000000000000000000000000000000000000000000000000e00000000000000000000000000000000000000000000000000000000000000020000000000000000000000000000000000000000000000000000000000000004000000000000000000000000000000000000000000000000000000000000000a00000000000000000000000000000000000000000000000000000000000000002000000000000000000000000c02aaa39b223fe8d0a0e5c4f27ead9083c756cc2000000000000000000000000eeeeeeeeeeeeeeeeeeeeeeeeeeeeeeeeeeeeeeee0000000000000000000000000000000000000000000000000000000000000000"
                            }
                        ],
                        "constructorArguments": "",
                        "name": "executeDelegateCall",
                        "returnParams": [
                            {
                                "name": "resultData",
                                "type": "bytes",
                                "value": "0x13c9929e00000000000000000000000000000000000000000000000000000000"
                            }
                        ],
                        "signature": "executeDelegateCall(address,bytes)"
                    },
                    "errorInfo": "",
                    "fromAddress": "0xdef1c0ded9bec7f1a1670819833240f027b25eff",
                    "gasUsed": 7813,
                    "id": 30,
                    "methodDecoded": true,
                    "operation": "CALL",
                    "output": "0x0000000000000000000000000000000000000000000000000000000000000020000000000000000000000000000000000000000000000000000000000000002013c9929e00000000000000000000000000000000000000000000000000000000",
                    "revert": false,
                    "revertMessage": "",
                    "selector": "0xb68df16d",
                    "status": true,
                    "value": "0"
                },
                "nodeType": 0
            },
            "31": {
                "invocation": {
                    "address": "0xea500d073652336a58846ada15c25f2c6d2d241f",
                    "callData": "0x000000000000000000000000000000000000000000000000000000000000002000000000000000000000000004260dd71b6bb32a4a9b0088ad2fb9fffabd8dcc00000000000000000000000004260dd71b6bb32a4a9b0088ad2fb9fffabd8dcc000000000000000000000000000000000000000000000000000000000000006000000000000000000000000000000000000000000000000000000000000000e00000000000000000000000000000000000000000000000000000000000000020000000000000000000000000000000000000000000000000000000000000004000000000000000000000000000000000000000000000000000000000000000a00000000000000000000000000000000000000000000000000000000000000002000000000000000000000000c02aaa39b223fe8d0a0e5c4f27ead9083c756cc2000000000000000000000000eeeeeeeeeeeeeeeeeeeeeeeeeeeeeeeeeeeeeeee0000000000000000000000000000000000000000000000000000000000000000",
                    "decodedMethod": {
                        "callParams": [
                            {
                                "name": "context",
                                "type": "(address,address,bytes)",
                                "value": [
                                    {
                                        "name": "sender",
                                        "type": "address",
                                        "value": "0x04260dd71b6bb32a4a9b0088ad2fb9fffabd8dcc"
                                    },
                                    {
                                        "name": "recipient",
                                        "type": "address",
                                        "value": "0x04260dd71b6bb32a4a9b0088ad2fb9fffabd8dcc"
                                    },
                                    {
                                        "name": "data",
                                        "type": "bytes",
                                        "value": "0x0000000000000000000000000000000000000000000000000000000000000020000000000000000000000000000000000000000000000000000000000000004000000000000000000000000000000000000000000000000000000000000000a00000000000000000000000000000000000000000000000000000000000000002000000000000000000000000c02aaa39b223fe8d0a0e5c4f27ead9083c756cc2000000000000000000000000eeeeeeeeeeeeeeeeeeeeeeeeeeeeeeeeeeeeeeee0000000000000000000000000000000000000000000000000000000000000000"
                                    }
                                ]
                            }
                        ],
                        "constructorArguments": "",
                        "name": "transform",
                        "returnParams": [
                            {
                                "name": "success",
                                "type": "bytes4",
                                "value": "0x13c9929e"
                            }
                        ],
                        "signature": "transform((address,address,bytes))"
                    },
                    "errorInfo": "",
                    "fromAddress": "0x22f9dcf4647084d6c31b2765f6910cd85c178c18",
                    "gasUsed": 4016,
                    "id": 31,
                    "methodDecoded": true,
                    "operation": "DELEGATECALL",
                    "output": "0x13c9929e00000000000000000000000000000000000000000000000000000000",
                    "revert": false,
                    "revertMessage": "",
                    "selector": "0x832b24bb",
                    "status": true,
                    "value": "0"
                },
                "nodeType": 0
            },
            "32": {
                "invocation": {
                    "address": "0xc02aaa39b223fe8d0a0e5c4f27ead9083c756cc2",
                    "callData": "0x00000000000000000000000022f9dcf4647084d6c31b2765f6910cd85c178c18",
                    "decodedMethod": {
                        "callParams": [
                            {
                                "name": "",
                                "type": "address",
                                "value": "0x22f9dcf4647084d6c31b2765f6910cd85c178c18"
                            }
                        ],
                        "constructorArguments": "",
                        "name": "balanceOf",
                        "returnParams": [
                            {
                                "decimalAvailable": true,
                                "name": "",
                                "type": "uint256",
                                "value": "0"
                            }
                        ],
                        "signature": "balanceOf(address)"
                    },
                    "errorInfo": "",
                    "fromAddress": "0x22f9dcf4647084d6c31b2765f6910cd85c178c18",
                    "gasUsed": 534,
                    "id": 32,
                    "methodDecoded": true,
                    "operation": "STATICCALL",
                    "output": "0x0000000000000000000000000000000000000000000000000000000000000000",
                    "revert": false,
                    "revertMessage": "",
                    "selector": "0x70a08231",
                    "status": true,
                    "value": "0"
                },
                "nodeType": 0
            },
            "33": {
                "invocation": {
                    "address": "0xa41d2f8ee4f47d3b860a149765a7df8c3287b7f0",
                    "callData": "0x00000000000000000000000022f9dcf4647084d6c31b2765f6910cd85c178c18",
                    "decodedMethod": {
                        "callParams": [
                            {
                                "name": "account",
                                "type": "address",
                                "value": "0x22f9dcf4647084d6c31b2765f6910cd85c178c18"
                            }
                        ],
                        "constructorArguments": "",
                        "name": "balanceOf",
                        "returnParams": [
                            {
                                "decimalAvailable": true,
                                "name": "",
                                "type": "uint256",
                                "value": "2,954,582,673,284"
                            }
                        ],
                        "signature": "balanceOf(address)"
                    },
                    "errorInfo": "",
                    "fromAddress": "0xdef1c0ded9bec7f1a1670819833240f027b25eff",
                    "gasUsed": 619,
                    "id": 33,
                    "methodDecoded": true,
                    "operation": "STATICCALL",
                    "output": "0x000000000000000000000000000000000000000000000000000002afead9c784",
                    "revert": false,
                    "revertMessage": "",
                    "selector": "0x70a08231",
                    "status": true,
                    "value": "0"
                },
                "nodeType": 0
            },
            "34": {
                "invocation": {
                    "address": "0x22f9dcf4647084d6c31b2765f6910cd85c178c18",
                    "callData": "0x000000000000000000000000a41d2f8ee4f47d3b860a149765a7df8c3287b7f0000000000000000000000000000000000000000000000000000000000000006000000000000000000000000000000000000000000000000000000000000000000000000000000000000000000000000000000000000000000000000000000044a9059cbb00000000000000000000000004260dd71b6bb32a4a9b0088ad2fb9fffabd8dcc000000000000000000000000000000000000000000000000000002afead9c78400000000000000000000000000000000000000000000000000000000",
                    "decodedMethod": {
                        "callParams": [
                            {
                                "name": "target",
                                "type": "address",
                                "value": "0xa41d2f8ee4f47d3b860a149765a7df8c3287b7f0"
                            },
                            {
                                "name": "callData",
                                "type": "bytes",
                                "value": "0xa9059cbb00000000000000000000000004260dd71b6bb32a4a9b0088ad2fb9fffabd8dcc000000000000000000000000000000000000000000000000000002afead9c784"
                            },
                            {
                                "name": "value",
                                "type": "uint256",
                                "value": "0"
                            }
                        ],
                        "constructorArguments": "",
                        "name": "executeCall",
                        "returnParams": [
                            {
                                "name": "resultData",
                                "type": "bytes",
                                "value": "0x0000000000000000000000000000000000000000000000000000000000000001"
                            }
                        ],
                        "signature": "executeCall(address,bytes,uint256)"
                    },
                    "errorInfo": "",
                    "fromAddress": "0xdef1c0ded9bec7f1a1670819833240f027b25eff",
                    "gasUsed": 29710,
                    "id": 34,
                    "methodDecoded": true,
                    "operation": "CALL",
                    "output": "0x000000000000000000000000000000000000000000000000000000000000002000000000000000000000000000000000000000000000000000000000000000200000000000000000000000000000000000000000000000000000000000000001",
                    "revert": false,
                    "revertMessage": "",
                    "selector": "0x54132d78",
                    "status": true,
                    "value": "0"
                },
                "nodeType": 0
            },
            "35": {
                "invocation": {
                    "address": "0xa41d2f8ee4f47d3b860a149765a7df8c3287b7f0",
                    "callData": "0x00000000000000000000000004260dd71b6bb32a4a9b0088ad2fb9fffabd8dcc000000000000000000000000000000000000000000000000000002afead9c784",
                    "decodedMethod": {
                        "callParams": [
                            {
                                "name": "recipient",
                                "type": "address",
                                "value": "0x04260dd71b6bb32a4a9b0088ad2fb9fffabd8dcc"
                            },
                            {
                                "decimalAvailable": true,
                                "name": "amount",
                                "type": "uint256",
                                "value": "2,954,582,673,284"
                            }
                        ],
                        "constructorArguments": "",
                        "name": "transfer",
                        "returnParams": [
                            {
                                "name": "",
                                "type": "bool",
                                "value": true
                            }
                        ],
                        "signature": "transfer(address,uint256)"
                    },
                    "errorInfo": "",
                    "fromAddress": "0x22f9dcf4647084d6c31b2765f6910cd85c178c18",
                    "gasUsed": 28419,
                    "id": 35,
                    "methodDecoded": true,
                    "operation": "CALL",
                    "output": "0x0000000000000000000000000000000000000000000000000000000000000001",
                    "revert": false,
                    "revertMessage": "",
                    "selector": "0xa9059cbb",
                    "status": true,
                    "value": "0"
                },
                "nodeType": 0
            },
            "36": {
                "event": {
                    "contract": "0xa41d2f8ee4f47d3b860a149765a7df8c3287b7f0",
                    "decodedLog": {
                        "name": "Transfer",
                        "params": [
                            {
                                "name": "from",
                                "type": "address",
                                "value": "0x22f9dcf4647084d6c31b2765f6910cd85c178c18"
                            },
                            {
                                "name": "to",
                                "type": "address",
                                "value": "0x04260dd71b6bb32a4a9b0088ad2fb9fffabd8dcc"
                            },
                            {
                                "decimalAvailable": true,
                                "name": "value",
                                "type": "uint256",
                                "value": "2,954,582,673,284"
                            }
                        ],
                        "signature": "Transfer(address,address,uint256)"
                    },
                    "id": 36,
                    "logData": "0x000000000000000000000000000000000000000000000000000002afead9c784",
                    "logDecoded": true,
                    "operation": "EVENT",
                    "revert": false,
                    "status": true,
                    "topics": [
                        "0xddf252ad1be2c89b69c2b068fc378daa952ba7f163c4a11628f55a4df523b3ef",
                        "0x00000000000000000000000022f9dcf4647084d6c31b2765f6910cd85c178c18",
                        "0x00000000000000000000000004260dd71b6bb32a4a9b0088ad2fb9fffabd8dcc"
                    ]
                },
                "nodeType": 1
            },
            "37": {
                "invocation": {
                    "address": "0xa41d2f8ee4f47d3b860a149765a7df8c3287b7f0",
                    "callData": "0x00000000000000000000000004260dd71b6bb32a4a9b0088ad2fb9fffabd8dcc",
                    "decodedMethod": {
                        "callParams": [
                            {
                                "name": "account",
                                "type": "address",
                                "value": "0x04260dd71b6bb32a4a9b0088ad2fb9fffabd8dcc"
                            }
                        ],
                        "constructorArguments": "",
                        "name": "balanceOf",
                        "returnParams": [
                            {
                                "decimalAvailable": true,
                                "name": "",
                                "type": "uint256",
                                "value": "2,954,582,673,284"
                            }
                        ],
                        "signature": "balanceOf(address)"
                    },
                    "errorInfo": "",
                    "fromAddress": "0xdef1c0ded9bec7f1a1670819833240f027b25eff",
                    "gasUsed": 619,
                    "id": 37,
                    "methodDecoded": true,
                    "operation": "STATICCALL",
                    "output": "0x000000000000000000000000000000000000000000000000000002afead9c784",
                    "revert": false,
                    "revertMessage": "",
                    "selector": "0x70a08231",
                    "status": true,
                    "value": "0"
                },
                "nodeType": 0
            },
            "38": {
                "event": {
                    "contract": "0xdef1c0ded9bec7f1a1670819833240f027b25eff",
                    "decodedLog": {
                        "name": "TransformedERC20",
                        "params": [
                            {
                                "name": "taker",
                                "type": "address",
                                "value": "0x04260dd71b6bb32a4a9b0088ad2fb9fffabd8dcc"
                            },
                            {
                                "name": "inputToken",
                                "type": "address",
                                "value": "0xeeeeeeeeeeeeeeeeeeeeeeeeeeeeeeeeeeeeeeee"
                            },
                            {
                                "name": "outputToken",
                                "type": "address",
                                "value": "0xa41d2f8ee4f47d3b860a149765a7df8c3287b7f0"
                            },
                            {
                                "name": "inputTokenAmount",
                                "type": "uint256",
                                "value": "16,808,881,212,000,000"
                            },
                            {
                                "name": "outputTokenAmount",
                                "type": "uint256",
                                "value": "2,954,582,673,284"
                            }
                        ],
                        "signature": "TransformedERC20(address,address,address,uint256,uint256)"
                    },
                    "id": 38,
                    "logData": "0x000000000000000000000000eeeeeeeeeeeeeeeeeeeeeeeeeeeeeeeeeeeeeeee000000000000000000000000a41d2f8ee4f47d3b860a149765a7df8c3287b7f0000000000000000000000000000000000000000000000000003bb796a1b68700000000000000000000000000000000000000000000000000000002afead9c784",
                    "logDecoded": true,
                    "operation": "EVENT",
                    "revert": false,
                    "status": true,
                    "topics": [
                        "0x0f6672f78a59ba8e5e5b5d38df3ebc67f3c792e2c9259b8d97d7f00dd78ba1b3",
                        "0x00000000000000000000000004260dd71b6bb32a4a9b0088ad2fb9fffabd8dcc"
                    ]
                },
                "nodeType": 1
            },
            "4": {
                "invocation": {
                    "address": "0x22f9dcf4647084d6c31b2765f6910cd85c178c18",
                    "callData": "0x000000000000000000000000b2bc06a4efb20fc6553a69dbfa49b7be938034a7000000000000000000000000000000000000000000000000000000000000004000000000000000000000000000000000000000000000000000000000000000e4832b24bb000000000000000000000000000000000000000000000000000000000000002000000000000000000000000004260dd71b6bb32a4a9b0088ad2fb9fffabd8dcc00000000000000000000000004260dd71b6bb32a4a9b0088ad2fb9fffabd8dcc00000000000000000000000000000000000000000000000000000000000000600000000000000000000000000000000000000000000000000000000000000040000000000000000000000000eeeeeeeeeeeeeeeeeeeeeeeeeeeeeeeeeeeeeeee000000000000000000000000000000000000000000000000003bb796a1b6870000000000000000000000000000000000000000000000000000000000",
                    "decodedMethod": {
                        "callParams": [
                            {
                                "name": "target",
                                "type": "address",
                                "value": "0xb2bc06a4efb20fc6553a69dbfa49b7be938034a7"
                            },
                            {
                                "name": "callData",
                                "type": "bytes",
                                "value": "0x832b24bb000000000000000000000000000000000000000000000000000000000000002000000000000000000000000004260dd71b6bb32a4a9b0088ad2fb9fffabd8dcc00000000000000000000000004260dd71b6bb32a4a9b0088ad2fb9fffabd8dcc00000000000000000000000000000000000000000000000000000000000000600000000000000000000000000000000000000000000000000000000000000040000000000000000000000000eeeeeeeeeeeeeeeeeeeeeeeeeeeeeeeeeeeeeeee000000000000000000000000000000000000000000000000003bb796a1b68700"
                            }
                        ],
                        "constructorArguments": "",
                        "name": "executeDelegateCall",
                        "returnParams": [
                            {
                                "name": "resultData",
                                "type": "bytes",
                                "value": "0x13c9929e00000000000000000000000000000000000000000000000000000000"
                            }
                        ],
                        "signature": "executeDelegateCall(address,bytes)"
                    },
                    "errorInfo": "",
                    "fromAddress": "0xdef1c0ded9bec7f1a1670819833240f027b25eff",
                    "gasUsed": 38458,
                    "id": 4,
                    "methodDecoded": true,
                    "operation": "CALL",
                    "output": "0x0000000000000000000000000000000000000000000000000000000000000020000000000000000000000000000000000000000000000000000000000000002013c9929e00000000000000000000000000000000000000000000000000000000",
                    "revert": false,
                    "revertMessage": "",
                    "selector": "0xb68df16d",
                    "status": true,
                    "value": "0"
                },
                "nodeType": 0
            },
            "5": {
                "invocation": {
                    "address": "0xb2bc06a4efb20fc6553a69dbfa49b7be938034a7",
                    "callData": "0x000000000000000000000000000000000000000000000000000000000000002000000000000000000000000004260dd71b6bb32a4a9b0088ad2fb9fffabd8dcc00000000000000000000000004260dd71b6bb32a4a9b0088ad2fb9fffabd8dcc00000000000000000000000000000000000000000000000000000000000000600000000000000000000000000000000000000000000000000000000000000040000000000000000000000000eeeeeeeeeeeeeeeeeeeeeeeeeeeeeeeeeeeeeeee000000000000000000000000000000000000000000000000003bb796a1b68700",
                    "decodedMethod": {
                        "callParams": [
                            {
                                "name": "context",
                                "type": "(address,address,bytes)",
                                "value": [
                                    {
                                        "name": "sender",
                                        "type": "address",
                                        "value": "0x04260dd71b6bb32a4a9b0088ad2fb9fffabd8dcc"
                                    },
                                    {
                                        "name": "taker",
                                        "type": "address",
                                        "value": "0x04260dd71b6bb32a4a9b0088ad2fb9fffabd8dcc"
                                    },
                                    {
                                        "name": "data",
                                        "type": "bytes",
                                        "value": "0x000000000000000000000000eeeeeeeeeeeeeeeeeeeeeeeeeeeeeeeeeeeeeeee000000000000000000000000000000000000000000000000003bb796a1b68700"
                                    }
                                ]
                            }
                        ],
                        "constructorArguments": "",
                        "name": "transform",
                        "returnParams": [
                            {
                                "name": "success",
                                "type": "bytes4",
                                "value": "0x13c9929e"
                            }
                        ],
                        "signature": "transform((address,address,bytes))"
                    },
                    "errorInfo": "",
                    "fromAddress": "0x22f9dcf4647084d6c31b2765f6910cd85c178c18",
                    "gasUsed": 34691,
                    "id": 5,
                    "methodDecoded": true,
                    "operation": "DELEGATECALL",
                    "output": "0x13c9929e00000000000000000000000000000000000000000000000000000000",
                    "revert": false,
                    "revertMessage": "",
                    "selector": "0x832b24bb",
                    "status": true,
                    "value": "0"
                },
                "nodeType": 0
            },
            "6": {
                "invocation": {
                    "address": "0xc02aaa39b223fe8d0a0e5c4f27ead9083c756cc2",
                    "callData": "0x",
                    "decodedMethod": {
                        "callParams": [],
                        "constructorArguments": "",
                        "name": "deposit",
                        "returnParams": [],
                        "signature": "deposit()"
                    },
                    "errorInfo": "",
                    "fromAddress": "0x22f9dcf4647084d6c31b2765f6910cd85c178c18",
                    "gasUsed": 23974,
                    "id": 6,
                    "methodDecoded": true,
                    "operation": "CALL",
                    "output": "",
                    "revert": false,
                    "revertMessage": "",
                    "selector": "0xd0e30db0",
                    "status": true,
                    "value": "0.016808881212"
                },
                "nodeType": 0
            },
            "7": {
                "event": {
                    "contract": "0xc02aaa39b223fe8d0a0e5c4f27ead9083c756cc2",
                    "decodedLog": {
                        "name": "Deposit",
                        "params": [
                            {
                                "name": "dst",
                                "type": "address",
                                "value": "0x22f9dcf4647084d6c31b2765f6910cd85c178c18"
                            },
                            {
                                "name": "wad",
                                "type": "uint256",
                                "value": "16,808,881,212,000,000"
                            }
                        ],
                        "signature": "Deposit(address,uint256)"
                    },
                    "id": 7,
                    "logData": "0x000000000000000000000000000000000000000000000000003bb796a1b68700",
                    "logDecoded": true,
                    "operation": "EVENT",
                    "revert": false,
                    "status": true,
                    "topics": [
                        "0xe1fffcc4923d04b559f4d29a8bfc6cda04eb5b0d3c460751c2402c5c5cc9109c",
                        "0x00000000000000000000000022f9dcf4647084d6c31b2765f6910cd85c178c18"
                    ]
                },
                "nodeType": 1
            },
            "8": {
                "invocation": {
                    "address": "0x22f9dcf4647084d6c31b2765f6910cd85c178c18",
                    "callData": "0x0000000000000000000000002fd08c1f9fc8406c1d7e3a799a13883a7e7949f0000000000000000000000000000000000000000000000000000000000000004000000000000000000000000000000000000000000000000000000000000003e4832b24bb000000000000000000000000000000000000000000000000000000000000002000000000000000000000000004260dd71b6bb32a4a9b0088ad2fb9fffabd8dcc00000000000000000000000004260dd71b6bb32a4a9b0088ad2fb9fffabd8dcc0000000000000000000000000000000000000000000000000000000000000060000000000000000000000000000000000000000000000000000000000000034000000000000000000000000000000000000000000000000000000000000000200000000000000000000000000000000000000000000000000000000000000000000000000000000000000000c02aaa39b223fe8d0a0e5c4f27ead9083c756cc2000000000000000000000000a41d2f8ee4f47d3b860a149765a7df8c3287b7f000000000000000000000000000000000000000000000000000000000000001400000000000000000000000000000000000000000000000000000000000000300000000000000000000000000000000000000000000000000000000000000030000000000000000000000000000000000000000000000000000000000000002c0000000000000000000000000000000000000000000000000003bb796a1b68700000000000000000000000000000000000000000000000000000000000000000000000000000000000000000000000000000000000000000000000000000003000000000000000000000000000000000000000000000000000000000000000001000000000000000000000000000000000000000000000000000000000000002000000000000000000000000000000002556e6973776170563200000000000000000000000000000000000000000000000000000000000000003bb796a1b68700000000000000000000000000000000000000000000000000000002a98aa29c2a000000000000000000000000000000000000000000000000000000000000008000000000000000000000000000000000000000000000000000000000000000a0000000000000000000000000f164fc0ec4e93095b804a4795bbe1e041497b92a00000000000000000000000000000000000000000000000000000000000000400000000000000000000000000000000000000000000000000000000000000002000000000000000000000000c02aaa39b223fe8d0a0e5c4f27ead9083c756cc2000000000000000000000000a41d2f8ee4f47d3b860a149765a7df8c3287b7f000000000000000000000000000000000000000000000000000000000000000010000000000000000000000000000000000000000000000000000000000000000000000000000000000000000000000000000000000000000000000000000000000000000000000000000000000000000000000000000000000000000",
                    "decodedMethod": {
                        "callParams": [
                            {
                                "name": "target",
                                "type": "address",
                                "value": "0x2fd08c1f9fc8406c1d7e3a799a13883a7e7949f0"
                            },
                            {
                                "name": "callData",
                                "type": "bytes",
                                "value": "0x832b24bb000000000000000000000000000000000000000000000000000000000000002000000000000000000000000004260dd71b6bb32a4a9b0088ad2fb9fffabd8dcc00000000000000000000000004260dd71b6bb32a4a9b0088ad2fb9fffabd8dcc0000000000000000000000000000000000000000000000000000000000000060000000000000000000000000000000000000000000000000000000000000034000000000000000000000000000000000000000000000000000000000000000200000000000000000000000000000000000000000000000000000000000000000000000000000000000000000c02aaa39b223fe8d0a0e5c4f27ead9083c756cc2000000000000000000000000a41d2f8ee4f47d3b860a149765a7df8c3287b7f000000000000000000000000000000000000000000000000000000000000001400000000000000000000000000000000000000000000000000000000000000300000000000000000000000000000000000000000000000000000000000000030000000000000000000000000000000000000000000000000000000000000002c0000000000000000000000000000000000000000000000000003bb796a1b68700000000000000000000000000000000000000000000000000000000000000000000000000000000000000000000000000000000000000000000000000000003000000000000000000000000000000000000000000000000000000000000000001000000000000000000000000000000000000000000000000000000000000002000000000000000000000000000000002556e6973776170563200000000000000000000000000000000000000000000000000000000000000003bb796a1b68700000000000000000000000000000000000000000000000000000002a98aa29c2a000000000000000000000000000000000000000000000000000000000000008000000000000000000000000000000000000000000000000000000000000000a0000000000000000000000000f164fc0ec4e93095b804a4795bbe1e041497b92a00000000000000000000000000000000000000000000000000000000000000400000000000000000000000000000000000000000000000000000000000000002000000000000000000000000c02aaa39b223fe8d0a0e5c4f27ead9083c756cc2000000000000000000000000a41d2f8ee4f47d3b860a149765a7df8c3287b7f0000000000000000000000000000000000000000000000000000000000000000100000000000000000000000000000000000000000000000000000000000000000000000000000000000000000000000000000000000000000000000000000000"
                            }
                        ],
                        "constructorArguments": "",
                        "name": "executeDelegateCall",
                        "returnParams": [
                            {
                                "name": "resultData",
                                "type": "bytes",
                                "value": "0x13c9929e00000000000000000000000000000000000000000000000000000000"
                            }
                        ],
                        "signature": "executeDelegateCall(address,bytes)"
                    },
                    "errorInfo": "",
                    "fromAddress": "0xdef1c0ded9bec7f1a1670819833240f027b25eff",
                    "gasUsed": 135088,
                    "id": 8,
                    "methodDecoded": true,
                    "operation": "CALL",
                    "output": "0x0000000000000000000000000000000000000000000000000000000000000020000000000000000000000000000000000000000000000000000000000000002013c9929e00000000000000000000000000000000000000000000000000000000",
                    "revert": false,
                    "revertMessage": "",
                    "selector": "0xb68df16d",
                    "status": true,
                    "value": "0"
                },
                "nodeType": 0
            },
            "9": {
                "invocation": {
                    "address": "0x2fd08c1f9fc8406c1d7e3a799a13883a7e7949f0",
                    "callData": "0x000000000000000000000000000000000000000000000000000000000000002000000000000000000000000004260dd71b6bb32a4a9b0088ad2fb9fffabd8dcc00000000000000000000000004260dd71b6bb32a4a9b0088ad2fb9fffabd8dcc0000000000000000000000000000000000000000000000000000000000000060000000000000000000000000000000000000000000000000000000000000034000000000000000000000000000000000000000000000000000000000000000200000000000000000000000000000000000000000000000000000000000000000000000000000000000000000c02aaa39b223fe8d0a0e5c4f27ead9083c756cc2000000000000000000000000a41d2f8ee4f47d3b860a149765a7df8c3287b7f000000000000000000000000000000000000000000000000000000000000001400000000000000000000000000000000000000000000000000000000000000300000000000000000000000000000000000000000000000000000000000000030000000000000000000000000000000000000000000000000000000000000002c0000000000000000000000000000000000000000000000000003bb796a1b68700000000000000000000000000000000000000000000000000000000000000000000000000000000000000000000000000000000000000000000000000000003000000000000000000000000000000000000000000000000000000000000000001000000000000000000000000000000000000000000000000000000000000002000000000000000000000000000000002556e6973776170563200000000000000000000000000000000000000000000000000000000000000003bb796a1b68700000000000000000000000000000000000000000000000000000002a98aa29c2a000000000000000000000000000000000000000000000000000000000000008000000000000000000000000000000000000000000000000000000000000000a0000000000000000000000000f164fc0ec4e93095b804a4795bbe1e041497b92a00000000000000000000000000000000000000000000000000000000000000400000000000000000000000000000000000000000000000000000000000000002000000000000000000000000c02aaa39b223fe8d0a0e5c4f27ead9083c756cc2000000000000000000000000a41d2f8ee4f47d3b860a149765a7df8c3287b7f0000000000000000000000000000000000000000000000000000000000000000100000000000000000000000000000000000000000000000000000000000000000000000000000000000000000000000000000000000000000000000000000000",
                    "decodedMethod": {
                        "callParams": [
                            {
                                "name": "context",
                                "type": "(address,address,bytes)",
                                "value": [
                                    {
                                        "name": "sender",
                                        "type": "address",
                                        "value": "0x04260dd71b6bb32a4a9b0088ad2fb9fffabd8dcc"
                                    },
                                    {
                                        "name": "recipient",
                                        "type": "address",
                                        "value": "0x04260dd71b6bb32a4a9b0088ad2fb9fffabd8dcc"
                                    },
                                    {
                                        "name": "data",
                                        "type": "bytes",
                                        "value": "0x00000000000000000000000000000000000000000000000000000000000000200000000000000000000000000000000000000000000000000000000000000000000000000000000000000000c02aaa39b223fe8d0a0e5c4f27ead9083c756cc2000000000000000000000000a41d2f8ee4f47d3b860a149765a7df8c3287b7f000000000000000000000000000000000000000000000000000000000000001400000000000000000000000000000000000000000000000000000000000000300000000000000000000000000000000000000000000000000000000000000030000000000000000000000000000000000000000000000000000000000000002c0000000000000000000000000000000000000000000000000003bb796a1b68700000000000000000000000000000000000000000000000000000000000000000000000000000000000000000000000000000000000000000000000000000003000000000000000000000000000000000000000000000000000000000000000001000000000000000000000000000000000000000000000000000000000000002000000000000000000000000000000002556e6973776170563200000000000000000000000000000000000000000000000000000000000000003bb796a1b68700000000000000000000000000000000000000000000000000000002a98aa29c2a000000000000000000000000000000000000000000000000000000000000008000000000000000000000000000000000000000000000000000000000000000a0000000000000000000000000f164fc0ec4e93095b804a4795bbe1e041497b92a00000000000000000000000000000000000000000000000000000000000000400000000000000000000000000000000000000000000000000000000000000002000000000000000000000000c02aaa39b223fe8d0a0e5c4f27ead9083c756cc2000000000000000000000000a41d2f8ee4f47d3b860a149765a7df8c3287b7f0000000000000000000000000000000000000000000000000000000000000000100000000000000000000000000000000000000000000000000000000000000000000000000000000000000000000000000000000000000000000000000000000"
                                    }
                                ]
                            }
                        ],
                        "constructorArguments": "",
                        "name": "transform",
                        "returnParams": [
                            {
                                "name": "magicBytes",
                                "type": "bytes4",
                                "value": "0x13c9929e"
                            }
                        ],
                        "signature": "transform((address,address,bytes))"
                    },
                    "errorInfo": "",
                    "fromAddress": "0x22f9dcf4647084d6c31b2765f6910cd85c178c18",
                    "gasUsed": 131175,
                    "id": 9,
                    "methodDecoded": true,
                    "operation": "DELEGATECALL",
                    "output": "0x13c9929e00000000000000000000000000000000000000000000000000000000",
                    "revert": false,
                    "revertMessage": "",
                    "selector": "0x832b24bb",
                    "status": true,
                    "value": "0"
                },
                "nodeType": 0
            }
        },
        "gasFlame": [
            {
                "children": [
                    {
                        "children": [
                            {
                                "children": [],
                                "depth": 0,
                                "name": "Initial Gas",
                                "value": 33760
                            },
                            {
                                "children": [
                                    {
                                        "children": [
                                            {
                                                "children": [],
                                                "depth": 2,
                                                "name": "balanceOf",
                                                "value": 2619
                                            },
                                            {
                                                "children": [],
                                                "depth": 2,
                                                "name": "fallback",
                                                "value": 55
                                            },
                                            {
                                                "children": [
                                                    {
                                                        "children": [
                                                            {
                                                                "children": [],
                                                                "depth": 4,
                                                                "name": "deposit",
                                                                "value": 23974
                                                            }
                                                        ],
                                                        "depth": 3,
                                                        "name": "transform",
                                                        "value": 34691
                                                    }
                                                ],
                                                "depth": 2,
                                                "name": "executeDelegateCall",
                                                "value": 38458
                                            },
                                            {
                                                "children": [
                                                    {
                                                        "children": [
                                                            {
                                                                "children": [],
                                                                "depth": 4,
                                                                "name": "balanceOf",
                                                                "value": 534
                                                            },
                                                            {
                                                                "children": [
                                                                    {
                                                                        "children": [],
                                                                        "depth": 5,
                                                                        "name": "allowance",
                                                                        "value": 2717
                                                                    },
                                                                    {
                                                                        "children": [
                                                                            {
                                                                                "children": [],
                                                                                "depth": 6,
                                                                                "name": "getReserves",
                                                                                "value": 2504
                                                                            },
                                                                            {
                                                                                "children": [],
                                                                                "depth": 6,
                                                                                "name": "transferFrom",
                                                                                "value": 8225
                                                                            },
                                                                            {
                                                                                "children": [
                                                                                    {
                                                                                        "children": [],
                                                                                        "depth": 7,
                                                                                        "name": "transfer",
                                                                                        "value": 51659
                                                                                    },
                                                                                    {
                                                                                        "children": [],
                                                                                        "depth": 7,
                                                                                        "name": "balanceOf",
                                                                                        "value": 619
                                                                                    },
                                                                                    {
                                                                                        "children": [],
                                                                                        "depth": 7,
                                                                                        "name": "balanceOf",
                                                                                        "value": 534
                                                                                    }
                                                                                ],
                                                                                "depth": 6,
                                                                                "name": "swap",
                                                                                "value": 84135
                                                                            }
                                                                        ],
                                                                        "depth": 5,
                                                                        "name": "swapExactTokensForTokens",
                                                                        "value": 105161
                                                                    }
                                                                ],
                                                                "depth": 4,
                                                                "name": "trade",
                                                                "value": 117498
                                                            }
                                                        ],
                                                        "depth": 3,
                                                        "name": "transform",
                                                        "value": 131175
                                                    }
                                                ],
                                                "depth": 2,
                                                "name": "executeDelegateCall",
                                                "value": 135088
                                            },
                                            {
                                                "children": [
                                                    {
                                                        "children": [
                                                            {
                                                                "children": [],
                                                                "depth": 4,
                                                                "name": "transfer",
                                                                "value": 13319
                                                            }
                                                        ],
                                                        "depth": 3,
                                                        "name": "transform",
                                                        "value": 16411
                                                    }
                                                ],
                                                "depth": 2,
                                                "name": "executeDelegateCall",
                                                "value": 20196
                                            },
                                            {
                                                "children": [
                                                    {
                                                        "children": [
                                                            {
                                                                "children": [],
                                                                "depth": 4,
                                                                "name": "balanceOf",
                                                                "value": 534
                                                            }
                                                        ],
                                                        "depth": 3,
                                                        "name": "transform",
                                                        "value": 4016
                                                    }
                                                ],
                                                "depth": 2,
                                                "name": "executeDelegateCall",
                                                "value": 7813
                                            },
                                            {
                                                "children": [],
                                                "depth": 2,
                                                "name": "balanceOf",
                                                "value": 619
                                            },
                                            {
                                                "children": [
                                                    {
                                                        "children": [],
                                                        "depth": 3,
                                                        "name": "transfer",
                                                        "value": 28419
                                                    }
                                                ],
                                                "depth": 2,
                                                "name": "executeCall",
                                                "value": 29710
                                            },
                                            {
                                                "children": [],
                                                "depth": 2,
                                                "name": "balanceOf",
                                                "value": 619
                                            }
                                        ],
                                        "depth": 1,
                                        "name": "transformERC20",
                                        "value": 282514
                                    }
                                ],
                                "depth": 0,
                                "name": "Executed Gas",
                                "value": 288963
                            }
                        ],
                        "depth": -1,
                        "name": "Actual Gas Used",
                        "value": 280123
                    },
                    {
                        "children": [],
                        "depth": -1,
                        "name": "Refunded Gas",
                        "value": 42600
                    }
                ],
                "depth": -2,
                "name": "Total Gas",
                "value": 322723
            }
        ],
        "isConfirmed": true,
        "mainTrace": [
            {
                "children": [
                    {
                        "children": [
                            {
                                "children": [
                                    {
                                        "children": [],
                                        "depth": 2,
                                        "id": 2,
                                        "order": 2
                                    },
                                    {
                                        "children": [],
                                        "depth": 2,
                                        "id": 3,
                                        "order": 3
                                    },
                                    {
                                        "children": [
                                            {
                                                "children": [
                                                    {
                                                        "children": [
                                                            {
                                                                "children": [],
                                                                "depth": 5,
                                                                "id": 7,
                                                                "order": 7
                                                            }
                                                        ],
                                                        "depth": 4,
                                                        "id": 6,
                                                        "order": 6
                                                    }
                                                ],
                                                "depth": 3,
                                                "id": 5,
                                                "order": 5
                                            }
                                        ],
                                        "depth": 2,
                                        "id": 4,
                                        "order": 4
                                    },
                                    {
                                        "children": [
                                            {
                                                "children": [
                                                    {
                                                        "children": [],
                                                        "depth": 4,
                                                        "id": 10,
                                                        "order": 10
                                                    },
                                                    {
                                                        "children": [
                                                            {
                                                                "children": [],
                                                                "depth": 5,
                                                                "id": 12,
                                                                "order": 12
                                                            },
                                                            {
                                                                "children": [
                                                                    {
                                                                        "children": [],
                                                                        "depth": 6,
                                                                        "id": 14,
                                                                        "order": 14
                                                                    },
                                                                    {
                                                                        "children": [
                                                                            {
                                                                                "children": [],
                                                                                "depth": 7,
                                                                                "id": 16,
                                                                                "order": 16
                                                                            }
                                                                        ],
                                                                        "depth": 6,
                                                                        "id": 15,
                                                                        "order": 15
                                                                    },
                                                                    {
                                                                        "children": [
                                                                            {
                                                                                "children": [
                                                                                    {
                                                                                        "children": [],
                                                                                        "depth": 8,
                                                                                        "id": 19,
                                                                                        "order": 19
                                                                                    },
                                                                                    {
                                                                                        "children": [],
                                                                                        "depth": 8,
                                                                                        "id": 20,
                                                                                        "order": 20
                                                                                    }
                                                                                ],
                                                                                "depth": 7,
                                                                                "id": 18,
                                                                                "order": 18
                                                                            },
                                                                            {
                                                                                "children": [],
                                                                                "depth": 7,
                                                                                "id": 21,
                                                                                "order": 21
                                                                            },
                                                                            {
                                                                                "children": [],
                                                                                "depth": 7,
                                                                                "id": 22,
                                                                                "order": 22
                                                                            },
                                                                            {
                                                                                "children": [],
                                                                                "depth": 7,
                                                                                "id": 23,
                                                                                "order": 23
                                                                            },
                                                                            {
                                                                                "children": [],
                                                                                "depth": 7,
                                                                                "id": 24,
                                                                                "order": 24
                                                                            }
                                                                        ],
                                                                        "depth": 6,
                                                                        "id": 17,
                                                                        "order": 17
                                                                    }
                                                                ],
                                                                "depth": 5,
                                                                "id": 13,
                                                                "order": 13
                                                            },
                                                            {
                                                                "children": [],
                                                                "depth": 5,
                                                                "id": 25,
                                                                "order": 25
                                                            }
                                                        ],
                                                        "depth": 4,
                                                        "id": 11,
                                                        "order": 11
                                                    }
                                                ],
                                                "depth": 3,
                                                "id": 9,
                                                "order": 9
                                            }
                                        ],
                                        "depth": 2,
                                        "id": 8,
                                        "order": 8
                                    },
                                    {
                                        "children": [
                                            {
                                                "children": [
                                                    {
                                                        "children": [
                                                            {
                                                                "children": [],
                                                                "depth": 5,
                                                                "id": 29,
                                                                "order": 29
                                                            }
                                                        ],
                                                        "depth": 4,
                                                        "id": 28,
                                                        "order": 28
                                                    }
                                                ],
                                                "depth": 3,
                                                "id": 27,
                                                "order": 27
                                            }
                                        ],
                                        "depth": 2,
                                        "id": 26,
                                        "order": 26
                                    },
                                    {
                                        "children": [
                                            {
                                                "children": [
                                                    {
                                                        "children": [],
                                                        "depth": 4,
                                                        "id": 32,
                                                        "order": 32
                                                    }
                                                ],
                                                "depth": 3,
                                                "id": 31,
                                                "order": 31
                                            }
                                        ],
                                        "depth": 2,
                                        "id": 30,
                                        "order": 30
                                    },
                                    {
                                        "children": [],
                                        "depth": 2,
                                        "id": 33,
                                        "order": 33
                                    },
                                    {
                                        "children": [
                                            {
                                                "children": [
                                                    {
                                                        "children": [],
                                                        "depth": 4,
                                                        "id": 36,
                                                        "order": 36
                                                    }
                                                ],
                                                "depth": 3,
                                                "id": 35,
                                                "order": 35
                                            }
                                        ],
                                        "depth": 2,
                                        "id": 34,
                                        "order": 34
                                    },
                                    {
                                        "children": [],
                                        "depth": 2,
                                        "id": 37,
                                        "order": 37
                                    },
                                    {
                                        "children": [],
                                        "depth": 2,
                                        "id": 38,
                                        "order": 38
                                    }
                                ],
                                "depth": 1,
                                "id": 1,
                                "order": 1
                            }
                        ],
                        "depth": 0,
                        "id": 0,
                        "order": 0
                    }
                ],
                "depth": -1,
                "id": -1,
                "order": -1
            }
        ],
        "mainTraceNodeCount": 39,
        "parentIdMap": {
            "0": -1,
            "1": 0,
            "10": 9,
            "11": 9,
            "12": 11,
            "13": 11,
            "14": 13,
            "15": 13,
            "16": 15,
            "17": 13,
            "18": 17,
            "19": 18,
            "2": 1,
            "20": 18,
            "21": 17,
            "22": 17,
            "23": 17,
            "24": 17,
            "25": 11,
            "26": 1,
            "27": 26,
            "28": 27,
            "29": 28,
            "3": 1,
            "30": 1,
            "31": 30,
            "32": 31,
            "33": 1,
            "34": 1,
            "35": 34,
            "36": 35,
            "37": 1,
            "38": 1,
            "4": 1,
            "5": 4,
            "6": 5,
            "7": 6,
            "8": 1,
            "9": 8
        },
        "tidyTrace": [
            {
                "children": [
                    {
                        "children": [
                            {
                                "children": [
                                    {
                                        "children": [],
                                        "depth": 2,
                                        "id": 3,
                                        "order": 3
                                    },
                                    {
                                        "children": [
                                            {
                                                "children": [
                                                    {
                                                        "children": [
                                                            {
                                                                "children": [],
                                                                "depth": 5,
                                                                "id": 7,
                                                                "order": 7
                                                            }
                                                        ],
                                                        "depth": 4,
                                                        "id": 6,
                                                        "order": 6
                                                    }
                                                ],
                                                "depth": 3,
                                                "id": 5,
                                                "order": 5
                                            }
                                        ],
                                        "depth": 2,
                                        "id": 4,
                                        "order": 4
                                    },
                                    {
                                        "children": [
                                            {
                                                "children": [
                                                    {
                                                        "children": [
                                                            {
                                                                "children": [
                                                                    {
                                                                        "children": [
                                                                            {
                                                                                "children": [],
                                                                                "depth": 7,
                                                                                "id": 16,
                                                                                "order": 16
                                                                            }
                                                                        ],
                                                                        "depth": 6,
                                                                        "id": 15,
                                                                        "order": 15
                                                                    },
                                                                    {
                                                                        "children": [
                                                                            {
                                                                                "children": [
                                                                                    {
                                                                                        "children": [],
                                                                                        "depth": 8,
                                                                                        "id": 19,
                                                                                        "order": 19
                                                                                    },
                                                                                    {
                                                                                        "children": [],
                                                                                        "depth": 8,
                                                                                        "id": 20,
                                                                                        "order": 20
                                                                                    }
                                                                                ],
                                                                                "depth": 7,
                                                                                "id": 18,
                                                                                "order": 18
                                                                            },
                                                                            {
                                                                                "children": [],
                                                                                "depth": 7,
                                                                                "id": 23,
                                                                                "order": 23
                                                                            },
                                                                            {
                                                                                "children": [],
                                                                                "depth": 7,
                                                                                "id": 24,
                                                                                "order": 24
                                                                            }
                                                                        ],
                                                                        "depth": 6,
                                                                        "id": 17,
                                                                        "order": 17
                                                                    }
                                                                ],
                                                                "depth": 5,
                                                                "id": 13,
                                                                "order": 13
                                                            },
                                                            {
                                                                "children": [],
                                                                "depth": 5,
                                                                "id": 25,
                                                                "order": 25
                                                            }
                                                        ],
                                                        "depth": 4,
                                                        "id": 11,
                                                        "order": 11
                                                    }
                                                ],
                                                "depth": 3,
                                                "id": 9,
                                                "order": 9
                                            }
                                        ],
                                        "depth": 2,
                                        "id": 8,
                                        "order": 8
                                    },
                                    {
                                        "children": [
                                            {
                                                "children": [
                                                    {
                                                        "children": [
                                                            {
                                                                "children": [],
                                                                "depth": 5,
                                                                "id": 29,
                                                                "order": 29
                                                            }
                                                        ],
                                                        "depth": 4,
                                                        "id": 28,
                                                        "order": 28
                                                    }
                                                ],
                                                "depth": 3,
                                                "id": 27,
                                                "order": 27
                                            }
                                        ],
                                        "depth": 2,
                                        "id": 26,
                                        "order": 26
                                    },
                                    {
                                        "children": [
                                            {
                                                "children": [],
                                                "depth": 3,
                                                "id": 31,
                                                "order": 31
                                            }
                                        ],
                                        "depth": 2,
                                        "id": 30,
                                        "order": 30
                                    },
                                    {
                                        "children": [
                                            {
                                                "children": [
                                                    {
                                                        "children": [],
                                                        "depth": 4,
                                                        "id": 36,
                                                        "order": 36
                                                    }
                                                ],
                                                "depth": 3,
                                                "id": 35,
                                                "order": 35
                                            }
                                        ],
                                        "depth": 2,
                                        "id": 34,
                                        "order": 34
                                    },
                                    {
                                        "children": [],
                                        "depth": 2,
                                        "id": 38,
                                        "order": 38
                                    }
                                ],
                                "depth": 1,
                                "id": 1,
                                "order": 1
                            }
                        ],
                        "depth": 0,
                        "id": 0,
                        "order": 0
                    }
                ],
                "depth": -1,
                "id": -1,
                "order": -1
            }
        ],
        "tidyTraceNodeCount": 30
    },
    "state_change": {
        "stateChanges": [
            {
                "address": "0x197d7010147df7b99e9025c724f13723b29313f8",
                "erc": "ERC-20",
                "slots": [
                    {
                        "current": "0x0000000000000000000000000000000047dc05b5608fb77e203b49c0bc9c63cc",
                        "key": "0x000000000000000000000000000000000000000000000000000000000000000a",
                        "prev": "0x0000000000000000000000000000000047dc049a7c3f11ea780d3a4a70988ae4"
                    },
                    {
                        "current": "0x660a9697000000000012ffa3c998c8c1244e00000000000000dfeb03469c2623",
                        "key": "0x0000000000000000000000000000000000000000000000000000000000000008",
                        "prev": "0x660a967f000000000012ff681202270a9d4e00000000000000dfedc106b012db"
                    },
                    {
                        "current": "0x0000000000000000000000000007ce733c7184ad1dce564a5c81b667f253b678",
                        "key": "0x0000000000000000000000000000000000000000000000000000000000000009",
                        "prev": "0x0000000000000000000000000007ce713332c44ec50ddde815de38495b964e78"
                    }
                ],
                "storageVariables": [
                    {
                        "name": "reserve0",
                        "type": "uint112",
                        "value": {
                            "current": "63027319108544035",
                            "prev": "63030333103149787",
                            "typeTag": 1
                        }
                    },
                    {
                        "name": "reserve1",
                        "type": "uint112",
                        "value": {
                            "current": "350462181885687702606",
                            "prev": "350445373004475702606",
                            "typeTag": 1
                        }
                    },
                    {
                        "name": "blockTimestampLast",
                        "type": "uint32",
                        "value": {
                            "current": "1711969943",
                            "prev": "1711969919",
                            "typeTag": 1
                        }
                    },
                    {
                        "name": "price0CumulativeLast",
                        "type": "uint256",
                        "value": {
                            "current": "174089560106953166596949222666667662633055864",
                            "prev": "174088867253343259868079546751877714795712120",
                            "typeTag": 1
                        }
                    },
                    {
                        "name": "price1CumulativeLast",
                        "type": "uint256",
                        "value": {
                            "current": "95517608791836426249376902767070438348",
                            "prev": "95517586378834519007738162409629059812",
                            "typeTag": 1
                        }
                    }
                ]
            },
            {
                "address": "0xa41d2f8ee4f47d3b860a149765a7df8c3287b7f0",
                "erc": "ERC-20",
                "slots": [
                    {
                        "current": "0x00000000000000000000000000000000000000000000000000dfeb03469c2623",
                        "key": "0x5da21ecfcd20a180d0ae0c5a2f5f3e089bb1656e07576ade5ecf61a05d974fe5",
                        "prev": "0x00000000000000000000000000000000000000000000000000dfedc106b012db"
                    },
                    {
                        "current": "0x0000000000000000000000000000000000000000000000000490c63eb9bd6c5a",
                        "key": "0x736dea530a497daf2c3be07335568c665c7706326178475048c484c15b12791f",
                        "prev": "0x0000000000000000000000000000000000000000000000000490c637b5425811"
                    },
                    {
                        "current": "0x00000000000000000000000000000000000000000000000000000645c006b401",
                        "key": "0x7ae0baf449064e80544bde4b0b34f276ffc68c8afe2a1b24e906bffaf2d0e99b",
                        "prev": "0x0000000000000000000000000000000000000000000000000000063eef47a316"
                    },
                    {
                        "current": "0x000000000000000000000000000000000000000000000000000002afead9c784",
                        "key": "0x76ef11b9da6a5ebe8f36f5802ce3c2c00af2040fac21c7e7a82ae983387c83f6",
                        "prev": "0x0000000000000000000000000000000000000000000000000000000000000000"
                    }
                ],
                "storageVariables": [
                    {
                        "name": "_balances",
                        "type": "mapping(address => uint256)",
                        "value": {
                            "pairs": [
                                {
                                    "key": "0x04260dd71b6bb32a4a9b0088ad2fb9fffabd8dcc",
                                    "value": {
                                        "current": "2954582673284",
                                        "prev": "0",
                                        "typeTag": 1
                                    }
                                },
                                {
                                    "key": "0x197d7010147df7b99e9025c724f13723b29313f8",
                                    "value": {
                                        "current": "63027319108544035",
                                        "prev": "63030333103149787",
                                        "typeTag": 1
                                    }
                                },
                                {
                                    "key": "0x382ffce2287252f930e1c8dc9328dac5bf282ba1",
                                    "value": {
                                        "current": "6896644174849",
                                        "prev": "6867372188438",
                                        "typeTag": 1
                                    }
                                },
                                {
                                    "key": "0xc00ec94e7746c6b695869580d6d2db50cda86094",
                                    "value": {
                                        "current": "328980745504517210",
                                        "prev": "328980715364571153",
                                        "typeTag": 1
                                    }
                                }
                            ],
                            "typeTag": 4
                        }
                    }
                ]
            },
            {
                "address": "0xc02aaa39b223fe8d0a0e5c4f27ead9083c756cc2",
                "erc": "ERC-20",
                "slots": [
                    {
                        "current": "0x000000000000000000000000000000000000000000000012ffa3c998c8c1244e",
                        "key": "0x17d738cfa336cb1ea00d27d574da37f4f6fe98967feba61fbd6e5b55a273a1b5",
                        "prev": "0x000000000000000000000000000000000000000000000012ff681202270a9d4e"
                    }
                ],
                "storageVariables": [
                    {
                        "name": "balanceOf",
                        "type": "mapping(address => uint256)",
                        "value": {
                            "pairs": [
                                {
                                    "key": "0x197d7010147df7b99e9025c724f13723b29313f8",
                                    "value": {
                                        "current": "350462181885687702606",
                                        "prev": "350445373004475702606",
                                        "typeTag": 1
                                    }
                                }
                            ],
                            "typeTag": 4
                        }
                    }
                ]
            }
        ]
    }
}