{
    "balance_change": {
        "balanceChanges": [
            {
                "account": "0x58edf78281334335effa23101bbe3371b6a36a51",
                "assets": [
                    {
                        "address": "0x12970e6868f88f6557b76120662c1b3e50a646bf",
                        "amount": "80,946,381,612.91",
                        "iconUrl": "",
                        "isERC1155": false,
                        "isERC721": false,
                        "sign": false,
                        "value": "6735.240304"
                    }
                ]
            },
            {
                "account": "0x4f4d87162376e51194a6d03731eae0604f1a9c3c",
                "assets": [
                    {
                        "address": "0x12970e6868f88f6557b76120662c1b3e50a646bf",
                        "amount": "80,946,381,612.91",
                        "iconUrl": "",
                        "isERC1155": false,
                        "isERC721": false,
                        "sign": true,
                        "value": "6735.240304"
                    }
                ]
            }
        ]
    },
    "profile": {
        "basic_info": {
            "baseFee": "26.482750104",
            "blockNumber": 18762656,
            "callData": "0xa9059cbb0000000000000000000000004f4d87162376e51194a6d03731eae0604f1a9c3c0000000000000000000000000000000000000001058d470bfa56b64baacb0000",
            "debugEnable": true,
            "errorInfo": "",
            "eventCount": 1,
            "feeRecipient": "0x95222290dd7278aa3ddd389cc1e1d165cc4bafe5",
            "formatValue": "0",
            "gasLimit": 100000,
            "gasPrice": "30.099531856",
            "gasUsed": 41058,
            "intTxnCount": 0,
            "internalRevert": false,
            "internalRevertMessage": "",
            "isContractCreation": false,
            "isFlashloan": false,
            "maxFee": "60",
            "nonce": 78830,
            "overwritedBlockNumber": -1,
            "priorityFee": "3.616781752",
            "receiver": "0x12970e6868f88f6557b76120662c1b3e50a646bf",
            "revertMessage": "",
            "sender": "0x58edf78281334335effa23101bbe3371b6a36a51",
            "simulationEnable": true,
            "sourceTxnHash": "0x369434645c63dc69484ad37e5f16338d58b553b055a71650c865062837bebda0",
            "status": true,
            "timestamp": "2023-12-11T11:26:23Z",
            "transactionFee": "0.001235826578943648",
            "txnHash": "0x369434645c63dc69484ad37e5f16338d58b553b055a71650c865062837bebda0",
            "txnIndex": 21,
            "type": 2,
            "value": "0"
        },
        "fund_flow": [
            {
                "amount": "80,946,381,612.91",
                "from": "0x58edf78281334335effa23101bbe3371b6a36a51",
                "id": 1,
                "isERC1155": false,
                "isERC721": false,
                "isReverted": false,
                "order": 1,
                "to": "0x4f4d87162376e51194a6d03731eae0604f1a9c3c",
                "token": "0x12970e6868f88f6557b76120662c1b3e50a646bf"
            }
        ],
        "token_infos": [
            {
                "address": "0x12970e6868f88f6557b76120662c1b3e50a646bf",
                "decimals": 18
            },
            {
                "address": "0xc02aaa39b223fe8d0a0e5c4f27ead9083c756cc2",
                "decimals": 18
            },
            {
                "address": "0xeeeeeeeeeeeeeeeeeeeeeeeeeeeeeeeeeeeeeeee",
                "decimals": 18
            }
        ]
    },
    "address_label": {
        "labels": [
            {
                "address": "0x0000000000000000000000000000000000000003",
                "label": "Precompiled"
            },
            {
                "address": "0x0000000000000000000000000000000000000004",
                "label": "Precompiled"
            },
            {
                "address": "0xeeeeeeeeeeeeeeeeeeeeeeeeeeeeeeeeeeeeeeee",
                "label": "Ether"
            },
            {
                "address": "0x12970e6868f88f6557b76120662c1b3e50a646bf",
                "label": "Milady (LADYS)"
            },
            {
                "address": "0x4f4d87162376e51194a6d03731eae0604f1a9c3c",
                "label": "BYBIT"
            },
            {
                "address": "0x58edf78281334335effa23101bbe3371b6a36a51",
                "label": "KuCoin 20"
            },
            {
                "address": "0x0000000000000000000000000000000000000001",
                "label": "Precompiled"
            },
            {
                "address": "0x0000000000000000000000000000000000000002",
                "label": "Precompiled"
            }
        ]
    },
    "trace": {
        "accountLabels": null,
        "dataMap": {
            "-1": {
                "invocation": {
                    "address": "0x58edf78281334335effa23101bbe3371b6a36a51",
                    "callData": "",
                    "decodedMethod": null,
                    "errorInfo": "",
                    "fromAddress": "",
                    "gasUsed": 0,
                    "id": -1,
                    "methodDecoded": false,
                    "operation": "",
                    "output": "",
                    "revert": false,
                    "revertMessage": "",
                    "selector": "",
                    "status": false,
                    "value": ""
                },
                "nodeType": 0
            },
            "0": {
                "invocation": {
                    "address": "0x12970e6868f88f6557b76120662c1b3e50a646bf",
                    "callData": "0x0000000000000000000000004f4d87162376e51194a6d03731eae0604f1a9c3c0000000000000000000000000000000000000001058d470bfa56b64baacb0000",
                    "decodedMethod": {
                        "callParams": [
                            {
                                "name": "to",
                                "type": "address",
                                "value": "0x4f4d87162376e51194a6d03731eae0604f1a9c3c"
                            },
                            {
                                "decimalAvailable": true,
                                "name": "amount",
                                "type": "uint256",
                                "value": "80,946,381,612,910,000,000,000,000,000"
                            }
                        ],
                        "constructorArguments": "",
                        "name": "transfer",
                        "returnParams": [
                            {
                                "name": "",
                                "type": "bool",
                                "value": true
                            }
                        ],
                        "signature": "transfer(address,uint256)"
                    },
                    "errorInfo": "",
                    "fromAddress": "0x58edf78281334335effa23101bbe3371b6a36a51",
                    "gasUsed": 41058,
                    "id": 0,
                    "methodDecoded": true,
                    "operation": "CALL",
                    "output": "0x0000000000000000000000000000000000000000000000000000000000000001",
                    "revert": false,
                    "revertMessage": "",
                    "selector": "0xa9059cbb",
                    "status": true,
                    "value": "0"
                },
                "nodeType": 0
            },
            "1": {
                "event": {
                    "contract": "0x12970e6868f88f6557b76120662c1b3e50a646bf",
                    "decodedLog": {
                        "name": "Transfer",
                        "params": [
                            {
                                "name": "from",
                                "type": "address",
                                "value": "0x58edf78281334335effa23101bbe3371b6a36a51"
                            },
                            {
                                "name": "to",
                                "type": "address",
                                "value": "0x4f4d87162376e51194a6d03731eae0604f1a9c3c"
                            },
                            {
                                "decimalAvailable": true,
                                "name": "value",
                                "type": "uint256",
                                "value": "80,946,381,612,910,000,000,000,000,000"
                            }
                        ],
                        "signature": "Transfer(address,address,uint256)"
                    },
                    "id": 1,
                    "logData": "0x0000000000000000000000000000000000000001058d470bfa56b64baacb0000",
                    "logDecoded": true,
                    "operation": "EVENT",
                    "revert": false,
                    "status": true,
                    "topics": [
                        "0xddf252ad1be2c89b69c2b068fc378daa952ba7f163c4a11628f55a4df523b3ef",
                        "0x00000000000000000000000058edf78281334335effa23101bbe3371b6a36a51",
                        "0x0000000000000000000000004f4d87162376e51194a6d03731eae0604f1a9c3c"
                    ]
                },
                "nodeType": 1
            }
        },
        "gasFlame": [
            {
                "children": [
                    {
                        "children": [
                            {
                                "children": [],
                                "depth": 0,
                                "name": "Initial Gas",
                                "value": 21692
                            },
                            {
                                "children": [],
                                "depth": 0,
                                "name": "Executed Gas",
                                "value": 19366
                            }
                        ],
                        "depth": -1,
                        "name": "Actual Gas Used",
                        "value": 41058
                    },
                    {
                        "children": [],
                        "depth": -1,
                        "name": "Refunded Gas",
                        "value": 0
                    }
                ],
                "depth": -2,
                "name": "Total Gas",
                "value": 41058
            }
        ],
        "isConfirmed": true,
        "mainTrace": [
            {
                "children": [
                    {
                        "children": [
                            {
                                "children": [],
                                "depth": 1,
                                "id": 1,
                                "order": 1
                            }
                        ],
                        "depth": 0,
                        "id": 0,
                        "order": 0
                    }
                ],
                "depth": -1,
                "id": -1,
                "order": -1
            }
        ],
        "mainTraceNodeCount": 2,
        "parentIdMap": {
            "0": -1,
            "1": 0
        },
        "tidyTrace": [
            {
                "children": [
                    {
                        "children": [
                            {
                                "children": [],
                                "depth": 1,
                                "id": 1,
                                "order": 1
                            }
                        ],
                        "depth": 0,
                        "id": 0,
                        "order": 0
                    }
                ],
                "depth": -1,
                "id": -1,
                "order": -1
            }
        ],
        "tidyTraceNodeCount": 2
    },
    "state_change": {
        "stateChanges": [
            {
                "address": "0x12970e6868f88f6557b76120662c1b3e50a646bf",
                "erc": "ERC-20",
                "slots": [
                    {
                        "current": "0x00000000000000000000000000000000000000307a8940983c29510c5ea5e1fa",
                        "key": "0xdbdf339c63a8101be9bdd736c9d7a0d44513eed03b29c1ae9082135eb4fe3c47",
                        "prev": "0x0000000000000000000000000000000000000031801687a4368007580970e1fa"
                    },
                    {
                        "current": "0x0000000000000000000000000000000000000003cbf1b6b8befb193462c90000",
                        "key": "0x2e75c90fd158eb1c328b33493acc4c282536aa162eb4960dcdd6e1958341f12c",
                        "prev": "0x0000000000000000000000000000000000000002c6646facc4a462e8b7fe0000"
                    }
                ],
                "storageVariables": [
                    {
                        "name": "_balances",
                        "type": "mapping(address => uint256)",
                        "value": {
                            "pairs": [
                                {
                                    "key": "0x4f4d87162376e51194a6d03731eae0604f1a9c3c",
                                    "value": {
                                        "current": "300802158537715600000000000000",
                                        "prev": "219855776924805600000000000000",
                                        "typeTag": 1
                                    }
                                },
                                {
                                    "key": "0x58edf78281334335effa23101bbe3371b6a36a51",
                                    "value": {
                                        "current": "3840874899759874595162503373306",
                                        "prev": "3921821281372784595162503373306",
                                        "typeTag": 1
                                    }
                                }
                            ],
                            "typeTag": 4
                        }
                    }
                ]
            }
        ]
    }
}