{
    "balance_change": {
        "balanceChanges": []
    },
    "profile": {
        "basic_info": {
            "baseFee": "20.031972411",
            "blockNumber": 15618452,
            "callData": "0x8b95dd71d35cb391e223f00a36feb6a68e9df0f08e3fe63a59579def9296ce164c27aeed000000000000000000000000000000000000000000000000000000000000000000000000000000000000000000000000000000000000000000000000000000600000000000000000000000000000000000000000000000000000000000000016001424426c9dc43eb713a405c005e09b8b43982a43ef00000000000000000000",
            "debugEnable": true,
            "errorInfo": "",
            "eventCount": 1,
            "feeRecipient": "0x388c818ca8b9251b393131c08a736a67ccb19297",
            "formatValue": "0",
            "gasLimit": 57458,
            "gasPrice": "22.031972411",
            "gasUsed": 57458,
            "intTxnCount": 1,
            "internalRevert": false,
            "internalRevertMessage": "",
            "isContractCreation": false,
            "isFlashloan": false,
            "maxFee": "26",
            "nonce": 654,
            "overwritedBlockNumber": -1,
            "priorityFee": "2",
            "receiver": "0x4976fb03c32e5b8cfe2b6ccb31c09ba78ebaba41",
            "revertMessage": "",
            "sender": "0x0ec888cc8099c19a5ed3bbe7a586fce9a5ae7245",
            "simulationEnable": true,
            "sourceTxnHash": "0x364431c731b298333b220bcdba14120f1bb77bcf9da3a293955e43edb68242b5",
            "status": true,
            "timestamp": "2022-09-26T15:31:11Z",
            "transactionFee": "0.001265913070791238",
            "txnHash": "0x364431c731b298333b220bcdba14120f1bb77bcf9da3a293955e43edb68242b5",
            "txnIndex": 7,
            "type": 2,
            "value": "0"
        },
        "fund_flow": [],
        "token_infos": [
            {
                "address": "0xc02aaa39b223fe8d0a0e5c4f27ead9083c756cc2",
                "decimals": 18
            },
            {
                "address": "0xeeeeeeeeeeeeeeeeeeeeeeeeeeeeeeeeeeeeeeee",
                "decimals": 18
            }
        ]
    },
    "address_label": {
        "labels": [
            {
                "address": "0x00000000000c2e074ec69a0dfb2997ba6c7d2e1e",
                "label": "ENS: Registry with Fallback"
            },
            {
                "address": "0x4976fb03c32e5b8cfe2b6ccb31c09ba78ebaba41",
                "label": "ENS: Public Resolver 2"
            },
            {
                "address": "0x388c818ca8b9251b393131c08a736a67ccb19297",
                "label": "LidoExecutionLayerRewardsVault"
            },
            {
                "address": "0x0000000000000000000000000000000000000001",
                "label": "Precompiled"
            },
            {
                "address": "0x0000000000000000000000000000000000000002",
                "label": "Precompiled"
            },
            {
                "address": "0x0000000000000000000000000000000000000003",
                "label": "Precompiled"
            },
            {
                "address": "0x0000000000000000000000000000000000000004",
                "label": "Precompiled"
            },
            {
                "address": "0xeeeeeeeeeeeeeeeeeeeeeeeeeeeeeeeeeeeeeeee",
                "label": "Ether"
            }
        ]
    },
    "trace": {
        "accountLabels": null,
        "dataMap": {
            "-1": {
                "invocation": {
                    "address": "0x0ec888cc8099c19a5ed3bbe7a586fce9a5ae7245",
                    "callData": "",
                    "decodedMethod": null,
                    "errorInfo": "",
                    "fromAddress": "",
                    "gasUsed": 0,
                    "id": -1,
                    "methodDecoded": false,
                    "operation": "",
                    "output": "",
                    "revert": false,
                    "revertMessage": "",
                    "selector": "",
                    "status": false,
                    "value": ""
                },
                "nodeType": 0
            },
            "0": {
                "invocation": {
                    "address": "0x4976fb03c32e5b8cfe2b6ccb31c09ba78ebaba41",
                    "callData": "0xd35cb391e223f00a36feb6a68e9df0f08e3fe63a59579def9296ce164c27aeed000000000000000000000000000000000000000000000000000000000000000000000000000000000000000000000000000000000000000000000000000000600000000000000000000000000000000000000000000000000000000000000016001424426c9dc43eb713a405c005e09b8b43982a43ef00000000000000000000",
                    "decodedMethod": {
                        "callParams": [
                            {
                                "name": "node",
                                "type": "bytes32",
                                "value": "0xd35cb391e223f00a36feb6a68e9df0f08e3fe63a59579def9296ce164c27aeed"
                            },
                            {
                                "name": "coinType",
                                "type": "uint256",
                                "value": "0"
                            },
                            {
                                "name": "a",
                                "type": "bytes",
                                "value": "0x001424426c9dc43eb713a405c005e09b8b43982a43ef"
                            }
                        ],
                        "constructorArguments": "",
                        "name": "setAddr",
                        "returnParams": [],
                        "signature": "setAddr(bytes32,uint256,bytes)"
                    },
                    "errorInfo": "",
                    "fromAddress": "0x0ec888cc8099c19a5ed3bbe7a586fce9a5ae7245",
                    "gasUsed": 57458,
                    "id": 0,
                    "methodDecoded": true,
                    "operation": "CALL",
                    "output": "",
                    "revert": false,
                    "revertMessage": "",
                    "selector": "0x8b95dd71",
                    "status": true,
                    "value": "0"
                },
                "nodeType": 0
            },
            "1": {
                "invocation": {
                    "address": "0x00000000000c2e074ec69a0dfb2997ba6c7d2e1e",
                    "callData": "0xd35cb391e223f00a36feb6a68e9df0f08e3fe63a59579def9296ce164c27aeed",
                    "decodedMethod": {
                        "callParams": [
                            {
                                "name": "node",
                                "type": "bytes32",
                                "value": "0xd35cb391e223f00a36feb6a68e9df0f08e3fe63a59579def9296ce164c27aeed"
                            }
                        ],
                        "constructorArguments": "",
                        "name": "owner",
                        "returnParams": [
                            {
                                "name": "",
                                "type": "address",
                                "value": "0x0ec888cc8099c19a5ed3bbe7a586fce9a5ae7245"
                            }
                        ],
                        "signature": "owner(bytes32)"
                    },
                    "errorInfo": "",
                    "fromAddress": "0x4976fb03c32e5b8cfe2b6ccb31c09ba78ebaba41",
                    "gasUsed": 2951,
                    "id": 1,
                    "methodDecoded": true,
                    "operation": "STATICCALL",
                    "output": "0x0000000000000000000000000ec888cc8099c19a5ed3bbe7a586fce9a5ae7245",
                    "revert": false,
                    "revertMessage": "",
                    "selector": "0x02571be3",
                    "status": true,
                    "value": "0"
                },
                "nodeType": 0
            },
            "2": {
                "event": {
                    "contract": "0x4976fb03c32e5b8cfe2b6ccb31c09ba78ebaba41",
                    "decodedLog": {
                        "name": "AddressChanged",
                        "params": [
                            {
                                "name": "node",
                                "type": "bytes32",
                                "value": "0xd35cb391e223f00a36feb6a68e9df0f08e3fe63a59579def9296ce164c27aeed"
                            },
                            {
                                "name": "coinType",
                                "type": "uint256",
                                "value": "0"
                            },
                            {
                                "name": "newAddress",
                                "type": "bytes",
                                "value": "0x001424426c9dc43eb713a405c005e09b8b43982a43ef"
                            }
                        ],
                        "signature": "AddressChanged(bytes32,uint256,bytes)"
                    },
                    "id": 2,
                    "logData": "0x000000000000000000000000000000000000000000000000000000000000000000000000000000000000000000000000000000000000000000000000000000400000000000000000000000000000000000000000000000000000000000000016001424426c9dc43eb713a405c005e09b8b43982a43ef00000000000000000000",
                    "logDecoded": true,
                    "operation": "EVENT",
                    "revert": false,
                    "status": true,
                    "topics": [
                        "0x65412581168e88a1e60c6459d7f44ae83ad0832e670826c05a4e2476b57af752",
                        "0xd35cb391e223f00a36feb6a68e9df0f08e3fe63a59579def9296ce164c27aeed"
                    ]
                },
                "nodeType": 1
            }
        },
        "gasFlame": [
            {
                "children": [
                    {
                        "children": [
                            {
                                "children": [],
                                "depth": 0,
                                "name": "Initial Gas",
                                "value": 22364
                            },
                            {
                                "children": [
                                    {
                                        "children": [],
                                        "depth": 1,
                                        "name": "owner",
                                        "value": 2951
                                    }
                                ],
                                "depth": 0,
                                "name": "Executed Gas",
                                "value": 35094
                            }
                        ],
                        "depth": -1,
                        "name": "Actual Gas Used",
                        "value": 57458
                    },
                    {
                        "children": [],
                        "depth": -1,
                        "name": "Refunded Gas",
                        "value": 0
                    }
                ],
                "depth": -2,
                "name": "Total Gas",
                "value": 57458
            }
        ],
        "isConfirmed": true,
        "mainTrace": [
            {
                "children": [
                    {
                        "children": [
                            {
                                "children": [],
                                "depth": 1,
                                "id": 1,
                                "order": 1
                            },
                            {
                                "children": [],
                                "depth": 1,
                                "id": 2,
                                "order": 2
                            }
                        ],
                        "depth": 0,
                        "id": 0,
                        "order": 0
                    }
                ],
                "depth": -1,
                "id": -1,
                "order": -1
            }
        ],
        "mainTraceNodeCount": 3,
        "parentIdMap": {
            "0": -1,
            "1": 0,
            "2": 0
        },
        "tidyTrace": [
            {
                "children": [
                    {
                        "children": [
                            {
                                "children": [],
                                "depth": 1,
                                "id": 2,
                                "order": 2
                            }
                        ],
                        "depth": 0,
                        "id": 0,
                        "order": 0
                    }
                ],
                "depth": -1,
                "id": -1,
                "order": -1
            }
        ],
        "tidyTraceNodeCount": 2
    },
    "state_change": {
        "stateChanges": [
            {
                "address": "0x4976fb03c32e5b8cfe2b6ccb31c09ba78ebaba41",
                "erc": "",
                "slots": [
                    {
                        "current": "0x001424426c9dc43eb713a405c005e09b8b43982a43ef0000000000000000002c",
                        "key": "0x85544e39b62c4ef539c880d8ed76821c6faffd03f6d9073d489058d151307440",
                        "prev": "0x0000000000000000000000000000000000000000000000000000000000000000"
                    }
                ],
                "storageVariables": [
                    {
                        "name": "_addresses",
                        "type": "mapping(bytes32 => mapping(uint256 => bytes))",
                        "value": {
                            "pairs": [
                                {
                                    "key": "0xd35cb391e223f00a36feb6a68e9df0f08e3fe63a59579def9296ce164c27aeed",
                                    "value": {
                                        "pairs": [
                                            {
                                                "key": "0",
                                                "value": {
                                                    "current": "0x001424426c9dc43eb713a405c005e09b8b43982a43ef",
                                                    "prev": "0x",
                                                    "typeTag": 1
                                                }
                                            }
                                        ],
                                        "typeTag": 4
                                    }
                                }
                            ],
                            "typeTag": 4
                        }
                    }
                ]
            }
        ]
    }
}