{
    "balance_change": {
        "balanceChanges": [
            {
                "account": "0x25155131fb263f0ba09f68b56cd1cb748d921ca8",
                "assets": [
                    {
                        "address": "0x809d8f2b12454fc07408d2479cf6dc701ecd5a9f",
                        "amount": "1",
                        "iconUrl": "",
                        "isERC1155": false,
                        "isERC721": true,
                        "sign": false,
                        "tokenID": "4744",
                        "value": ""
                    }
                ]
            },
            {
                "account": "0xe6e76722179e5d116395807764d8f37f930e0176",
                "assets": [
                    {
                        "address": "0x809d8f2b12454fc07408d2479cf6dc701ecd5a9f",
                        "amount": "1",
                        "iconUrl": "",
                        "isERC1155": false,
                        "isERC721": true,
                        "sign": true,
                        "tokenID": "4744",
                        "value": ""
                    }
                ]
            }
        ]
    },
    "profile": {
        "basic_info": {
            "baseFee": "46.043827507",
            "blockNumber": 14917635,
            "callData": "0x42842e0e00000000000000000000000025155131fb263f0ba09f68b56cd1cb748d921ca8000000000000000000000000e6e76722179e5d116395807764d8f37f930e01760000000000000000000000000000000000000000000000000000000000001288",
            "debugEnable": true,
            "errorInfo": "",
            "eventCount": 2,
            "feeRecipient": "0x8b4de256180cfec54c436a470af50f9ee2813dbb",
            "formatValue": "0",
            "gasLimit": 69122,
            "gasPrice": "47.543827507",
            "gasUsed": 64322,
            "intTxnCount": 0,
            "internalRevert": false,
            "internalRevertMessage": "",
            "isContractCreation": false,
            "isFlashloan": false,
            "maxFee": "57.994757381",
            "nonce": 13,
            "overwritedBlockNumber": -1,
            "priorityFee": "1.5",
            "receiver": "0x809d8f2b12454fc07408d2479cf6dc701ecd5a9f",
            "revertMessage": "",
            "sender": "0x25155131fb263f0ba09f68b56cd1cb748d921ca8",
            "simulationEnable": true,
            "sourceTxnHash": "0x36e5ea63e5aea4549b64e41192dcfeb65f583e82b77a318c73a57a50aed43abe",
            "status": true,
            "timestamp": "2022-06-06T23:34:09Z",
            "transactionFee": "0.003058114072905254",
            "txnHash": "0x36e5ea63e5aea4549b64e41192dcfeb65f583e82b77a318c73a57a50aed43abe",
            "txnIndex": 8,
            "type": 2,
            "value": "0"
        },
        "fund_flow": [
            {
                "amount": "1",
                "from": "0x25155131fb263f0ba09f68b56cd1cb748d921ca8",
                "id": 1,
                "isERC1155": false,
                "isERC721": true,
                "isReverted": false,
                "order": 1,
                "to": "0xe6e76722179e5d116395807764d8f37f930e0176",
                "token": "0x809d8f2b12454fc07408d2479cf6dc701ecd5a9f",
                "tokenID": "4744"
            }
        ],
        "token_infos": [
            {
                "address": "0xc02aaa39b223fe8d0a0e5c4f27ead9083c756cc2",
                "decimals": 18
            },
            {
                "address": "0xeeeeeeeeeeeeeeeeeeeeeeeeeeeeeeeeeeeeeeee",
                "decimals": 18
            }
        ]
    },
    "address_label": {
        "labels": [
            {
                "address": "0xeeeeeeeeeeeeeeeeeeeeeeeeeeeeeeeeeeeeeeee",
                "label": "Ether"
            },
            {
                "address": "0x809d8f2b12454fc07408d2479cf6dc701ecd5a9f",
                "label": "BBRC OFFICIAL - IVY BOYS: IVYBOYS Token"
            },
            {
                "address": "0x0000000000000000000000000000000000000001",
                "label": "Precompiled"
            },
            {
                "address": "0x0000000000000000000000000000000000000002",
                "label": "Precompiled"
            },
            {
                "address": "0x0000000000000000000000000000000000000003",
                "label": "Precompiled"
            },
            {
                "address": "0x0000000000000000000000000000000000000004",
                "label": "Precompiled"
            }
        ]
    },
    "trace": {
        "accountLabels": null,
        "dataMap": {
            "-1": {
                "invocation": {
                    "address": "0x25155131fb263f0ba09f68b56cd1cb748d921ca8",
                    "callData": "",
                    "decodedMethod": null,
                    "errorInfo": "",
                    "fromAddress": "",
                    "gasUsed": 0,
                    "id": -1,
                    "methodDecoded": false,
                    "operation": "",
                    "output": "",
                    "revert": false,
                    "revertMessage": "",
                    "selector": "",
                    "status": false,
                    "value": ""
                },
                "nodeType": 0
            },
            "0": {
                "invocation": {
                    "address": "0x809d8f2b12454fc07408d2479cf6dc701ecd5a9f",
                    "callData": "0x00000000000000000000000025155131fb263f0ba09f68b56cd1cb748d921ca8000000000000000000000000e6e76722179e5d116395807764d8f37f930e01760000000000000000000000000000000000000000000000000000000000001288",
                    "decodedMethod": {
                        "callParams": [
                            {
                                "name": "from",
                                "type": "address",
                                "value": "0x25155131fb263f0ba09f68b56cd1cb748d921ca8"
                            },
                            {
                                "name": "to",
                                "type": "address",
                                "value": "0xe6e76722179e5d116395807764d8f37f930e0176"
                            },
                            {
                                "name": "tokenId",
                                "type": "uint256",
                                "value": "4,744"
                            }
                        ],
                        "constructorArguments": "",
                        "name": "safeTransferFrom",
                        "returnParams": [],
                        "signature": "safeTransferFrom(address,address,uint256)"
                    },
                    "errorInfo": "",
                    "fromAddress": "0x25155131fb263f0ba09f68b56cd1cb748d921ca8",
                    "gasUsed": 64322,
                    "id": 0,
                    "methodDecoded": true,
                    "operation": "CALL",
                    "output": "",
                    "revert": false,
                    "revertMessage": "",
                    "selector": "0x42842e0e",
                    "status": true,
                    "value": "0"
                },
                "nodeType": 0
            },
            "1": {
                "event": {
                    "contract": "0x809d8f2b12454fc07408d2479cf6dc701ecd5a9f",
                    "decodedLog": {
                        "name": "Approval",
                        "params": [
                            {
                                "name": "owner",
                                "type": "address",
                                "value": "0x25155131fb263f0ba09f68b56cd1cb748d921ca8"
                            },
                            {
                                "name": "approved",
                                "type": "address",
                                "value": "0x0000000000000000000000000000000000000000"
                            },
                            {
                                "decimalAvailable": true,
                                "name": "tokenId",
                                "type": "uint256",
                                "value": "4,744"
                            }
                        ],
                        "signature": "Approval(address,address,uint256)"
                    },
                    "id": 1,
                    "logData": "0x",
                    "logDecoded": true,
                    "operation": "EVENT",
                    "revert": false,
                    "status": true,
                    "topics": [
                        "0x8c5be1e5ebec7d5bd14f71427d1e84f3dd0314c0f7b2291e5b200ac8c7c3b925",
                        "0x00000000000000000000000025155131fb263f0ba09f68b56cd1cb748d921ca8",
                        "0x0000000000000000000000000000000000000000000000000000000000000000",
                        "0x0000000000000000000000000000000000000000000000000000000000001288"
                    ]
                },
                "nodeType": 1
            },
            "2": {
                "event": {
                    "contract": "0x809d8f2b12454fc07408d2479cf6dc701ecd5a9f",
                    "decodedLog": {
                        "name": "Transfer",
                        "params": [
                            {
                                "name": "from",
                                "type": "address",
                                "value": "0x25155131fb263f0ba09f68b56cd1cb748d921ca8"
                            },
                            {
                                "name": "to",
                                "type": "address",
                                "value": "0xe6e76722179e5d116395807764d8f37f930e0176"
                            },
                            {
                                "decimalAvailable": true,
                                "name": "tokenId",
                                "type": "uint256",
                                "value": "4,744"
                            }
                        ],
                        "signature": "Transfer(address,address,uint256)"
                    },
                    "id": 2,
                    "logData": "0x",
                    "logDecoded": true,
                    "operation": "EVENT",
                    "revert": false,
                    "status": true,
                    "topics": [
                        "0xddf252ad1be2c89b69c2b068fc378daa952ba7f163c4a11628f55a4df523b3ef",
                        "0x00000000000000000000000025155131fb263f0ba09f68b56cd1cb748d921ca8",
                        "0x000000000000000000000000e6e76722179e5d116395807764d8f37f930e0176",
                        "0x0000000000000000000000000000000000000000000000000000000000001288"
                    ]
                },
                "nodeType": 1
            }
        },
        "gasFlame": [
            {
                "children": [
                    {
                        "children": [
                            {
                                "children": [],
                                "depth": 0,
                                "name": "Initial Gas",
                                "value": 21952
                            },
                            {
                                "children": [],
                                "depth": 0,
                                "name": "Executed Gas",
                                "value": 47170
                            }
                        ],
                        "depth": -1,
                        "name": "Actual Gas Used",
                        "value": 64322
                    },
                    {
                        "children": [],
                        "depth": -1,
                        "name": "Refunded Gas",
                        "value": 4800
                    }
                ],
                "depth": -2,
                "name": "Total Gas",
                "value": 69122
            }
        ],
        "isConfirmed": true,
        "mainTrace": [
            {
                "children": [
                    {
                        "children": [
                            {
                                "children": [],
                                "depth": 1,
                                "id": 1,
                                "order": 1
                            },
                            {
                                "children": [],
                                "depth": 1,
                                "id": 2,
                                "order": 2
                            }
                        ],
                        "depth": 0,
                        "id": 0,
                        "order": 0
                    }
                ],
                "depth": -1,
                "id": -1,
                "order": -1
            }
        ],
        "mainTraceNodeCount": 3,
        "parentIdMap": {
            "0": -1,
            "1": 0,
            "2": 0
        },
        "tidyTrace": [
            {
                "children": [
                    {
                        "children": [
                            {
                                "children": [],
                                "depth": 1,
                                "id": 1,
                                "order": 1
                            },
                            {
                                "children": [],
                                "depth": 1,
                                "id": 2,
                                "order": 2
                            }
                        ],
                        "depth": 0,
                        "id": 0,
                        "order": 0
                    }
                ],
                "depth": -1,
                "id": -1,
                "order": -1
            }
        ],
        "tidyTraceNodeCount": 3
    },
    "state_change": {
        "stateChanges": [
            {
                "address": "0x809d8f2b12454fc07408d2479cf6dc701ecd5a9f",
                "erc": "ERC-721",
                "slots": [
                    {
                        "current": "0x0000000000000000000000000000000000000000000000000000000000000000",
                        "key": "0xe3eb74f1ce05a46daa6d1128bc4cd83363c7907c392422749782b31ae8484a5f",
                        "prev": "0x0000000000000000000000000000000000000000000000000000000000000001"
                    },
                    {
                        "current": "0x0000000000000000000000000000000000000000000000000000000000000001",
                        "key": "0x1e0e50d58ec676d18562459655ca1a85ecd52edec39fc601971bbfa667551506",
                        "prev": "0x0000000000000000000000000000000000000000000000000000000000000000"
                    },
                    {
                        "current": "0x0000000000000000629e8ef1e6e76722179e5d116395807764d8f37f930e0176",
                        "key": "0x5194a013411c982843ef5f40801fbeacc082b66233ae0ba70d580b980fb2f7d0",
                        "prev": "0x00000000000000006296d2e525155131fb263f0ba09f68b56cd1cb748d921ca8"
                    }
                ],
                "storageVariables": [
                    {
                        "name": "_addressData",
                        "type": "mapping(address => struct ERC721A.AddressData)",
                        "value": {
                            "pairs": [
                                {
                                    "key": "0x25155131fb263f0ba09f68b56cd1cb748d921ca8",
                                    "value": {
                                        "fields": [
                                            {
                                                "name": "balance",
                                                "type": "uint64",
                                                "value": {
                                                    "current": "0",
                                                    "prev": "1",
                                                    "typeTag": 1
                                                }
                                            },
                                            {
                                                "name": "numberMinted",
                                                "type": "uint64",
                                                "value": {
                                                    "current": "0",
                                                    "prev": "0",
                                                    "typeTag": 1
                                                }
                                            },
                                            {
                                                "name": "numberBurned",
                                                "type": "uint64",
                                                "value": {
                                                    "current": "0",
                                                    "prev": "0",
                                                    "typeTag": 1
                                                }
                                            },
                                            {
                                                "name": "aux",
                                                "type": "uint64",
                                                "value": {
                                                    "current": "0",
                                                    "prev": "0",
                                                    "typeTag": 1
                                                }
                                            }
                                        ],
                                        "typeTag": 3
                                    }
                                },
                                {
                                    "key": "0xe6e76722179e5d116395807764d8f37f930e0176",
                                    "value": {
                                        "fields": [
                                            {
                                                "name": "balance",
                                                "type": "uint64",
                                                "value": {
                                                    "current": "1",
                                                    "prev": "0",
                                                    "typeTag": 1
                                                }
                                            },
                                            {
                                                "name": "numberMinted",
                                                "type": "uint64",
                                                "value": {
                                                    "current": "0",
                                                    "prev": "0",
                                                    "typeTag": 1
                                                }
                                            },
                                            {
                                                "name": "numberBurned",
                                                "type": "uint64",
                                                "value": {
                                                    "current": "0",
                                                    "prev": "0",
                                                    "typeTag": 1
                                                }
                                            },
                                            {
                                                "name": "aux",
                                                "type": "uint64",
                                                "value": {
                                                    "current": "0",
                                                    "prev": "0",
                                                    "typeTag": 1
                                                }
                                            }
                                        ],
                                        "typeTag": 3
                                    }
                                }
                            ],
                            "typeTag": 4
                        }
                    },
                    {
                        "name": "_ownerships",
                        "type": "mapping(uint256 => struct ERC721A.TokenOwnership)",
                        "value": {
                            "pairs": [
                                {
                                    "key": "4744",
                                    "value": {
                                        "fields": [
                                            {
                                                "name": "addr",
                                                "type": "address",
                                                "value": {
                                                    "current": "0xe6e76722179e5d116395807764d8f37f930e0176",
                                                    "prev": "0x25155131fb263f0ba09f68b56cd1cb748d921ca8",
                                                    "typeTag": 1
                                                }
                                            },
                                            {
                                                "name": "startTimestamp",
                                                "type": "uint64",
                                                "value": {
                                                    "current": "1654558449",
                                                    "prev": "1654051557",
                                                    "typeTag": 1
                                                }
                                            },
                                            {
                                                "name": "burned",
                                                "type": "bool",
                                                "value": {
                                                    "current": "false",
                                                    "prev": "false",
                                                    "typeTag": 1
                                                }
                                            }
                                        ],
                                        "typeTag": 3
                                    }
                                }
                            ],
                            "typeTag": 4
                        }
                    }
                ]
            }
        ]
    }
}