{
    "balance_change": {
        "balanceChanges": [
            {
                "account": "0x2d98db4da43119917eaacaeccaefd58d11cf6d29",
                "assets": [
                    {
                        "address": "0x5d25864d4a0ffcb6b2b214ff3320a3a5029fb503",
                        "amount": "30,000,000",
                        "iconUrl": "",
                        "isERC1155": false,
                        "isERC721": false,
                        "sign": false,
                        "value": ""
                    }
                ]
            },
            {
                "account": "0x5ae99ae126b04bcb1a9b1ed74161a5717a804a54",
                "assets": [
                    {
                        "address": "0x5d25864d4a0ffcb6b2b214ff3320a3a5029fb503",
                        "amount": "30,000,000",
                        "iconUrl": "",
                        "isERC1155": false,
                        "isERC721": false,
                        "sign": true,
                        "value": ""
                    }
                ]
            }
        ]
    },
    "profile": {
        "basic_info": {
            "baseFee": "",
            "blockNumber": 6628580,
            "callData": "0xa9059cbb0000000000000000000000005ae99ae126b04bcb1a9b1ed74161a5717a804a540000000000000000000000000000000000000000000000000000000001c9c380",
            "debugEnable": true,
            "errorInfo": "",
            "eventCount": 1,
            "feeRecipient": "0xb2930b35844a230f00e51431acae96fe543a0347",
            "formatValue": "0",
            "gasLimit": 60000,
            "gasPrice": "10",
            "gasUsed": 51353,
            "intTxnCount": 0,
            "internalRevert": false,
            "internalRevertMessage": "",
            "isContractCreation": false,
            "isFlashloan": false,
            "maxFee": "",
            "nonce": 312,
            "overwritedBlockNumber": -1,
            "priorityFee": "",
            "receiver": "0x5d25864d4a0ffcb6b2b214ff3320a3a5029fb503",
            "revertMessage": "",
            "sender": "0x2d98db4da43119917eaacaeccaefd58d11cf6d29",
            "simulationEnable": true,
            "sourceTxnHash": "0x3612d9604dd3355f78b2152228cda30454e36d7cc853c8e412fd7a9fb904fd77",
            "status": true,
            "timestamp": "2018-11-02T08:20:59Z",
            "transactionFee": "0.00051353",
            "txnHash": "0x3612d9604dd3355f78b2152228cda30454e36d7cc853c8e412fd7a9fb904fd77",
            "txnIndex": 90,
            "type": 0,
            "value": "0"
        },
        "fund_flow": [
            {
                "amount": "30,000,000",
                "from": "0x2d98db4da43119917eaacaeccaefd58d11cf6d29",
                "id": 1,
                "isERC1155": false,
                "isERC721": false,
                "isReverted": false,
                "order": 1,
                "to": "0x5ae99ae126b04bcb1a9b1ed74161a5717a804a54",
                "token": "0x5d25864d4a0ffcb6b2b214ff3320a3a5029fb503"
            }
        ],
        "token_infos": [
            {
                "address": "0xc02aaa39b223fe8d0a0e5c4f27ead9083c756cc2",
                "decimals": 18
            },
            {
                "address": "0xeeeeeeeeeeeeeeeeeeeeeeeeeeeeeeeeeeeeeeee",
                "decimals": 18
            }
        ]
    },
    "address_label": {
        "labels": [
            {
                "address": "0xeeeeeeeeeeeeeeeeeeeeeeeeeeeeeeeeeeeeeeee",
                "label": "Ether"
            },
            {
                "address": "0x5d25864d4a0ffcb6b2b214ff3320a3a5029fb503",
                "label": "HumanStandardToken"
            },
            {
                "address": "0x0000000000000000000000000000000000000001",
                "label": "Precompiled"
            },
            {
                "address": "0x0000000000000000000000000000000000000002",
                "label": "Precompiled"
            },
            {
                "address": "0x0000000000000000000000000000000000000003",
                "label": "Precompiled"
            },
            {
                "address": "0x0000000000000000000000000000000000000004",
                "label": "Precompiled"
            }
        ]
    },
    "trace": {
        "accountLabels": null,
        "dataMap": {
            "-1": {
                "invocation": {
                    "address": "0x2d98db4da43119917eaacaeccaefd58d11cf6d29",
                    "callData": "",
                    "decodedMethod": null,
                    "errorInfo": "",
                    "fromAddress": "",
                    "gasUsed": 0,
                    "id": -1,
                    "methodDecoded": false,
                    "operation": "",
                    "output": "",
                    "revert": false,
                    "revertMessage": "",
                    "selector": "",
                    "status": false,
                    "value": ""
                },
                "nodeType": 0
            },
            "0": {
                "invocation": {
                    "address": "0x5d25864d4a0ffcb6b2b214ff3320a3a5029fb503",
                    "callData": "0x0000000000000000000000005ae99ae126b04bcb1a9b1ed74161a5717a804a540000000000000000000000000000000000000000000000000000000001c9c380",
                    "decodedMethod": {
                        "callParams": [
                            {
                                "name": "_to",
                                "type": "address",
                                "value": "0x5ae99ae126b04bcb1a9b1ed74161a5717a804a54"
                            },
                            {
                                "decimalAvailable": true,
                                "name": "_value",
                                "type": "uint256",
                                "value": "30,000,000"
                            }
                        ],
                        "constructorArguments": "",
                        "name": "transfer",
                        "returnParams": [
                            {
                                "name": "success",
                                "type": "bool",
                                "value": true
                            }
                        ],
                        "signature": "transfer(address,uint256)"
                    },
                    "errorInfo": "",
                    "fromAddress": "0x2d98db4da43119917eaacaeccaefd58d11cf6d29",
                    "gasUsed": 51353,
                    "id": 0,
                    "methodDecoded": true,
                    "operation": "CALL",
                    "output": "0x0000000000000000000000000000000000000000000000000000000000000001",
                    "revert": false,
                    "revertMessage": "",
                    "selector": "0xa9059cbb",
                    "status": true,
                    "value": "0"
                },
                "nodeType": 0
            },
            "1": {
                "event": {
                    "contract": "0x5d25864d4a0ffcb6b2b214ff3320a3a5029fb503",
                    "decodedLog": {
                        "name": "Transfer",
                        "params": [
                            {
                                "name": "_from",
                                "type": "address",
                                "value": "0x2d98db4da43119917eaacaeccaefd58d11cf6d29"
                            },
                            {
                                "name": "_to",
                                "type": "address",
                                "value": "0x5ae99ae126b04bcb1a9b1ed74161a5717a804a54"
                            },
                            {
                                "decimalAvailable": true,
                                "name": "_value",
                                "type": "uint256",
                                "value": "30,000,000"
                            }
                        ],
                        "signature": "Transfer(address,address,uint256)"
                    },
                    "id": 1,
                    "logData": "0x0000000000000000000000000000000000000000000000000000000001c9c380",
                    "logDecoded": true,
                    "operation": "EVENT",
                    "revert": false,
                    "status": true,
                    "topics": [
                        "0xddf252ad1be2c89b69c2b068fc378daa952ba7f163c4a11628f55a4df523b3ef",
                        "0x0000000000000000000000002d98db4da43119917eaacaeccaefd58d11cf6d29",
                        "0x0000000000000000000000005ae99ae126b04bcb1a9b1ed74161a5717a804a54"
                    ]
                },
                "nodeType": 1
            }
        },
        "gasFlame": [
            {
                "children": [
                    {
                        "children": [
                            {
                                "children": [],
                                "depth": 0,
                                "name": "Initial Gas",
                                "value": 23064
                            },
                            {
                                "children": [],
                                "depth": 0,
                                "name": "Executed Gas",
                                "value": 28289
                            }
                        ],
                        "depth": -1,
                        "name": "Actual Gas Used",
                        "value": 51353
                    },
                    {
                        "children": [],
                        "depth": -1,
                        "name": "Refunded Gas",
                        "value": 0
                    }
                ],
                "depth": -2,
                "name": "Total Gas",
                "value": 51353
            }
        ],
        "isConfirmed": true,
        "mainTrace": [
            {
                "children": [
                    {
                        "children": [
                            {
                                "children": [],
                                "depth": 1,
                                "id": 1,
                                "order": 1
                            }
                        ],
                        "depth": 0,
                        "id": 0,
                        "order": 0
                    }
                ],
                "depth": -1,
                "id": -1,
                "order": -1
            }
        ],
        "mainTraceNodeCount": 2,
        "parentIdMap": {
            "0": -1,
            "1": 0
        },
        "tidyTrace": [
            {
                "children": [
                    {
                        "children": [
                            {
                                "children": [],
                                "depth": 1,
                                "id": 1,
                                "order": 1
                            }
                        ],
                        "depth": 0,
                        "id": 0,
                        "order": 0
                    }
                ],
                "depth": -1,
                "id": -1,
                "order": -1
            }
        ],
        "tidyTraceNodeCount": 2
    },
    "state_change": {
        "stateChanges": [
            {
                "address": "0x5d25864d4a0ffcb6b2b214ff3320a3a5029fb503",
                "erc": "ERC-20",
                "slots": [
                    {
                        "current": "0x0000000000000000000000000000000000000000000000000000000033db2580",
                        "key": "0xa1acf9060f0e9b17c150085cc3e314651574ac7a4001d79deb4a9e69f0dc8061",
                        "prev": "0x0000000000000000000000000000000000000000000000000000000035a4e900"
                    },
                    {
                        "current": "0x0000000000000000000000000000000000000000000000000000000001c9c380",
                        "key": "0x8ec66302d87266467c84e1ce2a86e6385daa9f67f47426d42e8efc710da095d4",
                        "prev": "0x0000000000000000000000000000000000000000000000000000000000000000"
                    }
                ],
                "storageVariables": []
            }
        ]
    }
}