{
    "balance_change": {
        "balanceChanges": [
            {
                "account": "0x7122985656e38bdc0302db86685bb972b145bd3c",
                "assets": [
                    {
                        "address": "0x7122985656e38bdc0302db86685bb972b145bd3c",
                        "amount": "0.150384488811069959",
                        "iconUrl": "",
                        "isERC1155": false,
                        "isERC721": false,
                        "sign": false,
                        "value": "518.2089898"
                    }
                ]
            },
            {
                "account": "0xa712a7f4452540c5c15c3d0f98e04b77e723da15",
                "assets": [
                    {
                        "address": "0x7122985656e38bdc0302db86685bb972b145bd3c",
                        "amount": "0.150384488811069959",
                        "iconUrl": "",
                        "isERC1155": false,
                        "isERC721": false,
                        "sign": true,
                        "value": "518.2089898"
                    }
                ]
            }
        ]
    },
    "profile": {
        "basic_info": {
            "baseFee": "7.899393466",
            "blockNumber": 20190756,
            "callData": "0x252f7b0100000000000000000000000000000000000000000000000000000000000000d60000000000000000000000007122985656e38bdc0302db86685bb972b145bd3c0000000000000000000000000000000000000000000000000000000000030d40232e0ab6050567772ae12a1a19cff95f142ee1e1b719a5c814f987efb3f6e5ca232e0ab6050567772ae12a1a19cff95f142ee1e1b719a5c814f987efb3f6e5ca00000000000000000000000000000000000000000000000000000000000000c000000000000000000000000000000000000000000000000000000000000000f400000000000000000000000038de71124f7a447a01d67945a51edce9ff4912510000000000000f6c00d680137510979822322193fc997d400d5a6c747bf700657122985656e38bdc0302db86685bb972b145bd3c00000000000000000000000000000000000000000000000000000000000000000000000000000000000000000000000000000000000000000000000000000060000000000000000000000000000000000000000000000000021645e5535002070000000000000000000000000000000000000000000000000000000000000014a712a7f4452540c5c15c3d0f98e04b77e723da15000000000000000000000000000000000000000000000000",
            "debugEnable": true,
            "errorInfo": "",
            "eventCount": 3,
            "feeRecipient": "0x95222290dd7278aa3ddd389cc1e1d165cc4bafe5",
            "formatValue": "0",
            "gasLimit": 1024604,
            "gasPrice": "9.733896534",
            "gasUsed": 145251,
            "intTxnCount": 6,
            "internalRevert": false,
            "internalRevertMessage": "",
            "isContractCreation": false,
            "isFlashloan": false,
            "maxFee": "",
            "nonce": 741691,
            "overwritedBlockNumber": -1,
            "priorityFee": "",
            "receiver": "0x902f09715b6303d4173037652fa7377e5b98089e",
            "revertMessage": "",
            "sender": "0xe93685f3bba03016f02bd1828badd6195988d950",
            "simulationEnable": true,
            "sourceTxnHash": "0x365fc191117ec1468fbf3d7368502aa2c6d98ed51544167786e3ba1fd20f3ef9",
            "status": true,
            "timestamp": "2024-06-28T14:22:47Z",
            "transactionFee": "0.001413858205460034",
            "txnHash": "0x365fc191117ec1468fbf3d7368502aa2c6d98ed51544167786e3ba1fd20f3ef9",
            "txnIndex": 47,
            "type": 0,
            "value": "0"
        },
        "fund_flow": [
            {
                "amount": "0.150384488811069959",
                "from": "0x7122985656e38bdc0302db86685bb972b145bd3c",
                "id": 1,
                "isERC1155": false,
                "isERC721": false,
                "isReverted": false,
                "order": 1,
                "to": "0xa712a7f4452540c5c15c3d0f98e04b77e723da15",
                "token": "0x7122985656e38bdc0302db86685bb972b145bd3c"
            }
        ],
        "token_infos": [
            {
                "address": "0x7122985656e38bdc0302db86685bb972b145bd3c",
                "decimals": 18
            },
            {
                "address": "0xc02aaa39b223fe8d0a0e5c4f27ead9083c756cc2",
                "decimals": 18
            },
            {
                "address": "0xeeeeeeeeeeeeeeeeeeeeeeeeeeeeeeeeeeeeeeee",
                "decimals": 18
            }
        ]
    },
    "address_label": {
        "labels": [
            {
                "address": "0x0000000000000000000000000000000000000004",
                "label": "Precompiled"
            },
            {
                "address": "0x4d73adb72bc3dd368966edd0f0b2148401a178e2",
                "label": "Layer Zero: Ultra Light Node v2"
            },
            {
                "address": "0xb830a5afcbebb936c30c607a18bbba9f5b0a592f",
                "label": "RelayerV2"
            },
            {
                "address": "0x0000000000000000000000000000000000000002",
                "label": "Precompiled"
            },
            {
                "address": "0x0000000000000000000000000000000000000003",
                "label": "Precompiled"
            },
            {
                "address": "0x07245eea05826f5984c7c3c8f478b04892e4df89",
                "label": "FPValidator"
            },
            {
                "address": "0x7122985656e38bdc0302db86685bb972b145bd3c",
                "label": "StakeStone: STONE Token"
            },
            {
                "address": "0x0000000000000000000000000000000000000001",
                "label": "Precompiled"
            },
            {
                "address": "0xeeeeeeeeeeeeeeeeeeeeeeeeeeeeeeeeeeeeeeee",
                "label": "Ether"
            },
            {
                "address": "0xe93685f3bba03016f02bd1828badd6195988d950",
                "label": "Layer Zero: Executor"
            },
            {
                "address": "0x66a71dcef29a0ffbdbe3c6a460a3b5bc225cd675",
                "label": "LayerZero: Ethereum Endpoint"
            },
            {
                "address": "0x902f09715b6303d4173037652fa7377e5b98089e",
                "label": "Layer Zero: Relayer V2"
            }
        ]
    },
    "trace": {
        "accountLabels": null,
        "dataMap": {
            "-1": {
                "invocation": {
                    "address": "0xe93685f3bba03016f02bd1828badd6195988d950",
                    "callData": "",
                    "decodedMethod": null,
                    "errorInfo": "",
                    "fromAddress": "",
                    "gasUsed": 0,
                    "id": -1,
                    "methodDecoded": false,
                    "operation": "",
                    "output": "",
                    "revert": false,
                    "revertMessage": "",
                    "selector": "",
                    "status": false,
                    "value": ""
                },
                "nodeType": 0
            },
            "0": {
                "invocation": {
                    "address": "0x902f09715b6303d4173037652fa7377e5b98089e",
                    "callData": "0x00000000000000000000000000000000000000000000000000000000000000d60000000000000000000000007122985656e38bdc0302db86685bb972b145bd3c0000000000000000000000000000000000000000000000000000000000030d40232e0ab6050567772ae12a1a19cff95f142ee1e1b719a5c814f987efb3f6e5ca232e0ab6050567772ae12a1a19cff95f142ee1e1b719a5c814f987efb3f6e5ca00000000000000000000000000000000000000000000000000000000000000c000000000000000000000000000000000000000000000000000000000000000f400000000000000000000000038de71124f7a447a01d67945a51edce9ff4912510000000000000f6c00d680137510979822322193fc997d400d5a6c747bf700657122985656e38bdc0302db86685bb972b145bd3c00000000000000000000000000000000000000000000000000000000000000000000000000000000000000000000000000000000000000000000000000000060000000000000000000000000000000000000000000000000021645e5535002070000000000000000000000000000000000000000000000000000000000000014a712a7f4452540c5c15c3d0f98e04b77e723da15000000000000000000000000000000000000000000000000",
                    "decodedMethod": {
                        "callParams": [
                            {
                                "name": "_srcChainId",
                                "type": "uint16",
                                "value": "214"
                            },
                            {
                                "name": "_dstAddress",
                                "type": "address",
                                "value": "0x7122985656e38bdc0302db86685bb972b145bd3c"
                            },
                            {
                                "name": "_gasLimit",
                                "type": "uint256",
                                "value": "200,000"
                            },
                            {
                                "name": "_blockHash",
                                "type": "bytes32",
                                "value": "0x232e0ab6050567772ae12a1a19cff95f142ee1e1b719a5c814f987efb3f6e5ca"
                            },
                            {
                                "name": "_data",
                                "type": "bytes32",
                                "value": "0x232e0ab6050567772ae12a1a19cff95f142ee1e1b719a5c814f987efb3f6e5ca"
                            },
                            {
                                "name": "_transactionProof",
                                "type": "bytes",
                                "value": "0x00000000000000000000000038de71124f7a447a01d67945a51edce9ff4912510000000000000f6c00d680137510979822322193fc997d400d5a6c747bf700657122985656e38bdc0302db86685bb972b145bd3c00000000000000000000000000000000000000000000000000000000000000000000000000000000000000000000000000000000000000000000000000000060000000000000000000000000000000000000000000000000021645e5535002070000000000000000000000000000000000000000000000000000000000000014a712a7f4452540c5c15c3d0f98e04b77e723da15000000000000000000000000"
                            }
                        ],
                        "constructorArguments": "",
                        "name": "validateTransactionProofV1",
                        "returnParams": [],
                        "signature": "validateTransactionProofV1(uint16,address,uint256,bytes32,bytes32,bytes)"
                    },
                    "errorInfo": "",
                    "fromAddress": "0xe93685f3bba03016f02bd1828badd6195988d950",
                    "gasUsed": 145251,
                    "id": 0,
                    "methodDecoded": true,
                    "operation": "CALL",
                    "output": "",
                    "revert": false,
                    "revertMessage": "",
                    "selector": "0x252f7b01",
                    "status": true,
                    "value": "0"
                },
                "nodeType": 0
            },
            "1": {
                "invocation": {
                    "address": "0xb830a5afcbebb936c30c607a18bbba9f5b0a592f",
                    "callData": "0x00000000000000000000000000000000000000000000000000000000000000d60000000000000000000000007122985656e38bdc0302db86685bb972b145bd3c0000000000000000000000000000000000000000000000000000000000030d40232e0ab6050567772ae12a1a19cff95f142ee1e1b719a5c814f987efb3f6e5ca232e0ab6050567772ae12a1a19cff95f142ee1e1b719a5c814f987efb3f6e5ca00000000000000000000000000000000000000000000000000000000000000c000000000000000000000000000000000000000000000000000000000000000f400000000000000000000000038de71124f7a447a01d67945a51edce9ff4912510000000000000f6c00d680137510979822322193fc997d400d5a6c747bf700657122985656e38bdc0302db86685bb972b145bd3c00000000000000000000000000000000000000000000000000000000000000000000000000000000000000000000000000000000000000000000000000000060000000000000000000000000000000000000000000000000021645e5535002070000000000000000000000000000000000000000000000000000000000000014a712a7f4452540c5c15c3d0f98e04b77e723da15000000000000000000000000000000000000000000000000",
                    "decodedMethod": {
                        "callParams": [
                            {
                                "name": "_srcChainId",
                                "type": "uint16",
                                "value": "214"
                            },
                            {
                                "name": "_dstAddress",
                                "type": "address",
                                "value": "0x7122985656e38bdc0302db86685bb972b145bd3c"
                            },
                            {
                                "name": "_gasLimit",
                                "type": "uint256",
                                "value": "200,000"
                            },
                            {
                                "name": "_blockHash",
                                "type": "bytes32",
                                "value": "0x232e0ab6050567772ae12a1a19cff95f142ee1e1b719a5c814f987efb3f6e5ca"
                            },
                            {
                                "name": "_data",
                                "type": "bytes32",
                                "value": "0x232e0ab6050567772ae12a1a19cff95f142ee1e1b719a5c814f987efb3f6e5ca"
                            },
                            {
                                "name": "_transactionProof",
                                "type": "bytes",
                                "value": "0x00000000000000000000000038de71124f7a447a01d67945a51edce9ff4912510000000000000f6c00d680137510979822322193fc997d400d5a6c747bf700657122985656e38bdc0302db86685bb972b145bd3c00000000000000000000000000000000000000000000000000000000000000000000000000000000000000000000000000000000000000000000000000000060000000000000000000000000000000000000000000000000021645e5535002070000000000000000000000000000000000000000000000000000000000000014a712a7f4452540c5c15c3d0f98e04b77e723da15000000000000000000000000"
                            }
                        ],
                        "constructorArguments": "",
                        "name": "validateTransactionProofV1",
                        "returnParams": [],
                        "signature": "validateTransactionProofV1(uint16,address,uint256,bytes32,bytes32,bytes)"
                    },
                    "errorInfo": "",
                    "fromAddress": "0x902f09715b6303d4173037652fa7377e5b98089e",
                    "gasUsed": 120484,
                    "id": 1,
                    "methodDecoded": true,
                    "operation": "DELEGATECALL",
                    "output": "",
                    "revert": false,
                    "revertMessage": "",
                    "selector": "0x252f7b01",
                    "status": true,
                    "value": "0"
                },
                "nodeType": 0
            },
            "2": {
                "invocation": {
                    "address": "0x4d73adb72bc3dd368966edd0f0b2148401a178e2",
                    "callData": "0x00000000000000000000000000000000000000000000000000000000000000d60000000000000000000000007122985656e38bdc0302db86685bb972b145bd3c0000000000000000000000000000000000000000000000000000000000030d40232e0ab6050567772ae12a1a19cff95f142ee1e1b719a5c814f987efb3f6e5ca232e0ab6050567772ae12a1a19cff95f142ee1e1b719a5c814f987efb3f6e5ca00000000000000000000000000000000000000000000000000000000000000c000000000000000000000000000000000000000000000000000000000000000f400000000000000000000000038de71124f7a447a01d67945a51edce9ff4912510000000000000f6c00d680137510979822322193fc997d400d5a6c747bf700657122985656e38bdc0302db86685bb972b145bd3c00000000000000000000000000000000000000000000000000000000000000000000000000000000000000000000000000000000000000000000000000000060000000000000000000000000000000000000000000000000021645e5535002070000000000000000000000000000000000000000000000000000000000000014a712a7f4452540c5c15c3d0f98e04b77e723da15000000000000000000000000000000000000000000000000",
                    "decodedMethod": {
                        "callParams": [
                            {
                                "name": "_srcChainId",
                                "type": "uint16",
                                "value": "214"
                            },
                            {
                                "name": "_dstAddress",
                                "type": "address",
                                "value": "0x7122985656e38bdc0302db86685bb972b145bd3c"
                            },
                            {
                                "name": "_gasLimit",
                                "type": "uint256",
                                "value": "200,000"
                            },
                            {
                                "name": "_lookupHash",
                                "type": "bytes32",
                                "value": "0x232e0ab6050567772ae12a1a19cff95f142ee1e1b719a5c814f987efb3f6e5ca"
                            },
                            {
                                "name": "_blockData",
                                "type": "bytes32",
                                "value": "0x232e0ab6050567772ae12a1a19cff95f142ee1e1b719a5c814f987efb3f6e5ca"
                            },
                            {
                                "name": "_transactionProof",
                                "type": "bytes",
                                "value": "0x00000000000000000000000038de71124f7a447a01d67945a51edce9ff4912510000000000000f6c00d680137510979822322193fc997d400d5a6c747bf700657122985656e38bdc0302db86685bb972b145bd3c00000000000000000000000000000000000000000000000000000000000000000000000000000000000000000000000000000000000000000000000000000060000000000000000000000000000000000000000000000000021645e5535002070000000000000000000000000000000000000000000000000000000000000014a712a7f4452540c5c15c3d0f98e04b77e723da15000000000000000000000000"
                            }
                        ],
                        "constructorArguments": "",
                        "name": "validateTransactionProof",
                        "returnParams": [],
                        "signature": "validateTransactionProof(uint16,address,uint256,bytes32,bytes32,bytes)"
                    },
                    "errorInfo": "",
                    "fromAddress": "0x902f09715b6303d4173037652fa7377e5b98089e",
                    "gasUsed": 104789,
                    "id": 2,
                    "methodDecoded": true,
                    "operation": "CALL",
                    "output": "",
                    "revert": false,
                    "revertMessage": "",
                    "selector": "0x987fa2d5",
                    "status": true,
                    "value": "0"
                },
                "nodeType": 0
            },
            "3": {
                "invocation": {
                    "address": "0x07245eea05826f5984c7c3c8f478b04892e4df89",
                    "callData": "0x232e0ab6050567772ae12a1a19cff95f142ee1e1b719a5c814f987efb3f6e5ca0000000000000000000000000000000000000000000000000000000000000060000000000000000000000000000000000000000000000000000000000000001400000000000000000000000000000000000000000000000000000000000000f400000000000000000000000038de71124f7a447a01d67945a51edce9ff4912510000000000000f6c00d680137510979822322193fc997d400d5a6c747bf700657122985656e38bdc0302db86685bb972b145bd3c00000000000000000000000000000000000000000000000000000000000000000000000000000000000000000000000000000000000000000000000000000060000000000000000000000000000000000000000000000000021645e5535002070000000000000000000000000000000000000000000000000000000000000014a712a7f4452540c5c15c3d0f98e04b77e723da15000000000000000000000000000000000000000000000000",
                    "decodedMethod": {
                        "callParams": [
                            {
                                "name": "_packetHash",
                                "type": "bytes32",
                                "value": "0x232e0ab6050567772ae12a1a19cff95f142ee1e1b719a5c814f987efb3f6e5ca"
                            },
                            {
                                "name": "_transactionProof",
                                "type": "bytes",
                                "value": "0x00000000000000000000000038de71124f7a447a01d67945a51edce9ff4912510000000000000f6c00d680137510979822322193fc997d400d5a6c747bf700657122985656e38bdc0302db86685bb972b145bd3c00000000000000000000000000000000000000000000000000000000000000000000000000000000000000000000000000000000000000000000000000000060000000000000000000000000000000000000000000000000021645e5535002070000000000000000000000000000000000000000000000000000000000000014a712a7f4452540c5c15c3d0f98e04b77e723da15000000000000000000000000"
                            },
                            {
                                "name": "_remoteAddressSize",
                                "type": "uint256",
                                "value": "20"
                            }
                        ],
                        "constructorArguments": "",
                        "name": "validateProof",
                        "returnParams": [
                            {
                                "name": "packet",
                                "type": "(uint16,uint16,uint64,address,bytes,bytes32,bytes)",
                                "value": [
                                    {
                                        "name": "srcChainId",
                                        "type": "uint16",
                                        "value": "214"
                                    },
                                    {
                                        "name": "dstChainId",
                                        "type": "uint16",
                                        "value": "101"
                                    },
                                    {
                                        "name": "nonce",
                                        "type": "uint64",
                                        "value": "3,948"
                                    },
                                    {
                                        "name": "dstAddress",
                                        "type": "address",
                                        "value": "0x7122985656e38bdc0302db86685bb972b145bd3c"
                                    },
                                    {
                                        "name": "srcAddress",
                                        "type": "bytes",
                                        "value": "0x80137510979822322193fc997d400d5a6c747bf7"
                                    },
                                    {
                                        "name": "ulnAddress",
                                        "type": "bytes32",
                                        "value": "0x00000000000000000000000038de71124f7a447a01d67945a51edce9ff491251"
                                    },
                                    {
                                        "name": "payload",
                                        "type": "bytes",
                                        "value": "0x00000000000000000000000000000000000000000000000000000000000000000000000000000000000000000000000000000000000000000000000000000060000000000000000000000000000000000000000000000000021645e5535002070000000000000000000000000000000000000000000000000000000000000014a712a7f4452540c5c15c3d0f98e04b77e723da15000000000000000000000000"
                                    }
                                ]
                            }
                        ],
                        "signature": "validateProof(bytes32,bytes,uint256)"
                    },
                    "errorInfo": "",
                    "fromAddress": "0x4d73adb72bc3dd368966edd0f0b2148401a178e2",
                    "gasUsed": 5606,
                    "id": 3,
                    "methodDecoded": true,
                    "operation": "CALL",
                    "output": "0x000000000000000000000000000000000000000000000000000000000000002000000000000000000000000000000000000000000000000000000000000000d600000000000000000000000000000000000000000000000000000000000000650000000000000000000000000000000000000000000000000000000000000f6c0000000000000000000000007122985656e38bdc0302db86685bb972b145bd3c00000000000000000000000000000000000000000000000000000000000000e000000000000000000000000038de71124f7a447a01d67945a51edce9ff4912510000000000000000000000000000000000000000000000000000000000000120000000000000000000000000000000000000000000000000000000000000001480137510979822322193fc997d400d5a6c747bf700000000000000000000000000000000000000000000000000000000000000000000000000000000000000a000000000000000000000000000000000000000000000000000000000000000000000000000000000000000000000000000000000000000000000000000000060000000000000000000000000000000000000000000000000021645e5535002070000000000000000000000000000000000000000000000000000000000000014a712a7f4452540c5c15c3d0f98e04b77e723da15000000000000000000000000",
                    "revert": false,
                    "revertMessage": "",
                    "selector": "0xb71e0f71",
                    "status": true,
                    "value": "0"
                },
                "nodeType": 0
            },
            "4": {
                "event": {
                    "contract": "0x4d73adb72bc3dd368966edd0f0b2148401a178e2",
                    "decodedLog": {
                        "name": "PacketReceived",
                        "params": [
                            {
                                "name": "srcChainId",
                                "type": "uint16",
                                "value": "214"
                            },
                            {
                                "name": "dstAddress",
                                "type": "address",
                                "value": "0x7122985656e38bdc0302db86685bb972b145bd3c"
                            },
                            {
                                "name": "srcAddress",
                                "type": "bytes",
                                "value": "0x80137510979822322193fc997d400d5a6c747bf7"
                            },
                            {
                                "name": "nonce",
                                "type": "uint64",
                                "value": "3,948"
                            },
                            {
                                "name": "payloadHash",
                                "type": "bytes32",
                                "value": "0xebfe30d95483b52a30ea181a89d091b20d518427e087e6ee1f57485c6ae2b869"
                            }
                        ],
                        "signature": "PacketReceived(uint16,bytes,address,uint64,bytes32)"
                    },
                    "id": 4,
                    "logData": "0x00000000000000000000000000000000000000000000000000000000000000600000000000000000000000000000000000000000000000000000000000000f6cebfe30d95483b52a30ea181a89d091b20d518427e087e6ee1f57485c6ae2b869000000000000000000000000000000000000000000000000000000000000001480137510979822322193fc997d400d5a6c747bf7000000000000000000000000",
                    "logDecoded": true,
                    "operation": "EVENT",
                    "revert": false,
                    "status": true,
                    "topics": [
                        "0x2bd2d8a84b748439fd50d79a49502b4eb5faa25b864da6a9ab5c150704be9a4d",
                        "0x00000000000000000000000000000000000000000000000000000000000000d6",
                        "0x0000000000000000000000007122985656e38bdc0302db86685bb972b145bd3c"
                    ]
                },
                "nodeType": 1
            },
            "5": {
                "invocation": {
                    "address": "0x66a71dcef29a0ffbdbe3c6a460a3b5bc225cd675",
                    "callData": "0x00000000000000000000000000000000000000000000000000000000000000d600000000000000000000000000000000000000000000000000000000000000c00000000000000000000000007122985656e38bdc0302db86685bb972b145bd3c0000000000000000000000000000000000000000000000000000000000000f6c0000000000000000000000000000000000000000000000000000000000030d400000000000000000000000000000000000000000000000000000000000000120000000000000000000000000000000000000000000000000000000000000002880137510979822322193fc997d400d5a6c747bf77122985656e38bdc0302db86685bb972b145bd3c00000000000000000000000000000000000000000000000000000000000000000000000000000000000000000000000000000000000000a000000000000000000000000000000000000000000000000000000000000000000000000000000000000000000000000000000000000000000000000000000060000000000000000000000000000000000000000000000000021645e5535002070000000000000000000000000000000000000000000000000000000000000014a712a7f4452540c5c15c3d0f98e04b77e723da15000000000000000000000000",
                    "decodedMethod": {
                        "callParams": [
                            {
                                "name": "_srcChainId",
                                "type": "uint16",
                                "value": "214"
                            },
                            {
                                "name": "_srcAddress",
                                "type": "bytes",
                                "value": "0x80137510979822322193fc997d400d5a6c747bf77122985656e38bdc0302db86685bb972b145bd3c"
                            },
                            {
                                "name": "_dstAddress",
                                "type": "address",
                                "value": "0x7122985656e38bdc0302db86685bb972b145bd3c"
                            },
                            {
                                "name": "_nonce",
                                "type": "uint64",
                                "value": "3,948"
                            },
                            {
                                "name": "_gasLimit",
                                "type": "uint256",
                                "value": "200,000"
                            },
                            {
                                "name": "_payload",
                                "type": "bytes",
                                "value": "0x00000000000000000000000000000000000000000000000000000000000000000000000000000000000000000000000000000000000000000000000000000060000000000000000000000000000000000000000000000000021645e5535002070000000000000000000000000000000000000000000000000000000000000014a712a7f4452540c5c15c3d0f98e04b77e723da15000000000000000000000000"
                            }
                        ],
                        "constructorArguments": "",
                        "name": "receivePayload",
                        "returnParams": [],
                        "signature": "receivePayload(uint16,bytes,address,uint64,uint256,bytes)"
                    },
                    "errorInfo": "",
                    "fromAddress": "0x4d73adb72bc3dd368966edd0f0b2148401a178e2",
                    "gasUsed": 63317,
                    "id": 5,
                    "methodDecoded": true,
                    "operation": "CALL",
                    "output": "",
                    "revert": false,
                    "revertMessage": "",
                    "selector": "0xc2fa4813",
                    "status": true,
                    "value": "0"
                },
                "nodeType": 0
            },
            "6": {
                "invocation": {
                    "address": "0x7122985656e38bdc0302db86685bb972b145bd3c",
                    "callData": "0x00000000000000000000000000000000000000000000000000000000000000d600000000000000000000000000000000000000000000000000000000000000800000000000000000000000000000000000000000000000000000000000000f6c00000000000000000000000000000000000000000000000000000000000000e0000000000000000000000000000000000000000000000000000000000000002880137510979822322193fc997d400d5a6c747bf77122985656e38bdc0302db86685bb972b145bd3c00000000000000000000000000000000000000000000000000000000000000000000000000000000000000000000000000000000000000a000000000000000000000000000000000000000000000000000000000000000000000000000000000000000000000000000000000000000000000000000000060000000000000000000000000000000000000000000000000021645e5535002070000000000000000000000000000000000000000000000000000000000000014a712a7f4452540c5c15c3d0f98e04b77e723da15000000000000000000000000",
                    "decodedMethod": {
                        "callParams": [
                            {
                                "name": "_srcChainId",
                                "type": "uint16",
                                "value": "214"
                            },
                            {
                                "name": "_srcAddress",
                                "type": "bytes",
                                "value": "0x80137510979822322193fc997d400d5a6c747bf77122985656e38bdc0302db86685bb972b145bd3c"
                            },
                            {
                                "name": "_nonce",
                                "type": "uint64",
                                "value": "3,948"
                            },
                            {
                                "name": "_payload",
                                "type": "bytes",
                                "value": "0x00000000000000000000000000000000000000000000000000000000000000000000000000000000000000000000000000000000000000000000000000000060000000000000000000000000000000000000000000000000021645e5535002070000000000000000000000000000000000000000000000000000000000000014a712a7f4452540c5c15c3d0f98e04b77e723da15000000000000000000000000"
                            }
                        ],
                        "constructorArguments": "",
                        "name": "lzReceive",
                        "returnParams": [],
                        "signature": "lzReceive(uint16,bytes,uint64,bytes)"
                    },
                    "errorInfo": "",
                    "fromAddress": "0x66a71dcef29a0ffbdbe3c6a460a3b5bc225cd675",
                    "gasUsed": 44475,
                    "id": 6,
                    "methodDecoded": true,
                    "operation": "CALL",
                    "output": "",
                    "revert": false,
                    "revertMessage": "",
                    "selector": "0x001d3567",
                    "status": true,
                    "value": "0"
                },
                "nodeType": 0
            },
            "7": {
                "invocation": {
                    "address": "0x7122985656e38bdc0302db86685bb972b145bd3c",
                    "callData": "0x00000000000000000000000000000000000000000000000000000000000000d600000000000000000000000000000000000000000000000000000000000000800000000000000000000000000000000000000000000000000000000000000f6c00000000000000000000000000000000000000000000000000000000000000e0000000000000000000000000000000000000000000000000000000000000002880137510979822322193fc997d400d5a6c747bf77122985656e38bdc0302db86685bb972b145bd3c00000000000000000000000000000000000000000000000000000000000000000000000000000000000000000000000000000000000000a000000000000000000000000000000000000000000000000000000000000000000000000000000000000000000000000000000000000000000000000000000060000000000000000000000000000000000000000000000000021645e5535002070000000000000000000000000000000000000000000000000000000000000014a712a7f4452540c5c15c3d0f98e04b77e723da15000000000000000000000000",
                    "decodedMethod": {
                        "callParams": [
                            {
                                "name": "_srcChainId",
                                "type": "uint16",
                                "value": "214"
                            },
                            {
                                "name": "_srcAddress",
                                "type": "bytes",
                                "value": "0x80137510979822322193fc997d400d5a6c747bf77122985656e38bdc0302db86685bb972b145bd3c"
                            },
                            {
                                "name": "_nonce",
                                "type": "uint64",
                                "value": "3,948"
                            },
                            {
                                "name": "_payload",
                                "type": "bytes",
                                "value": "0x00000000000000000000000000000000000000000000000000000000000000000000000000000000000000000000000000000000000000000000000000000060000000000000000000000000000000000000000000000000021645e5535002070000000000000000000000000000000000000000000000000000000000000014a712a7f4452540c5c15c3d0f98e04b77e723da15000000000000000000000000"
                            }
                        ],
                        "constructorArguments": "",
                        "name": "nonblockingLzReceive",
                        "returnParams": [],
                        "signature": "nonblockingLzReceive(uint16,bytes,uint64,bytes)"
                    },
                    "errorInfo": "",
                    "fromAddress": "0x7122985656e38bdc0302db86685bb972b145bd3c",
                    "gasUsed": 34156,
                    "id": 7,
                    "methodDecoded": true,
                    "operation": "CALL",
                    "output": "",
                    "revert": false,
                    "revertMessage": "",
                    "selector": "0x66ad5c8a",
                    "status": true,
                    "value": "0"
                },
                "nodeType": 0
            },
            "8": {
                "event": {
                    "contract": "0x7122985656e38bdc0302db86685bb972b145bd3c",
                    "decodedLog": {
                        "name": "Transfer",
                        "params": [
                            {
                                "name": "from",
                                "type": "address",
                                "value": "0x7122985656e38bdc0302db86685bb972b145bd3c"
                            },
                            {
                                "name": "to",
                                "type": "address",
                                "value": "0xa712a7f4452540c5c15c3d0f98e04b77e723da15"
                            },
                            {
                                "decimalAvailable": true,
                                "name": "value",
                                "type": "uint256",
                                "value": "150,384,488,811,069,959"
                            }
                        ],
                        "signature": "Transfer(address,address,uint256)"
                    },
                    "id": 8,
                    "logData": "0x000000000000000000000000000000000000000000000000021645e553500207",
                    "logDecoded": true,
                    "operation": "EVENT",
                    "revert": false,
                    "status": true,
                    "topics": [
                        "0xddf252ad1be2c89b69c2b068fc378daa952ba7f163c4a11628f55a4df523b3ef",
                        "0x0000000000000000000000007122985656e38bdc0302db86685bb972b145bd3c",
                        "0x000000000000000000000000a712a7f4452540c5c15c3d0f98e04b77e723da15"
                    ]
                },
                "nodeType": 1
            },
            "9": {
                "event": {
                    "contract": "0x7122985656e38bdc0302db86685bb972b145bd3c",
                    "decodedLog": {
                        "name": "ReceiveFromChain",
                        "params": [
                            {
                                "name": "_srcChainId",
                                "type": "uint16",
                                "value": "214"
                            },
                            {
                                "name": "_to",
                                "type": "address",
                                "value": "0xa712a7f4452540c5c15c3d0f98e04b77e723da15"
                            },
                            {
                                "name": "_amount",
                                "type": "uint256",
                                "value": "150,384,488,811,069,959"
                            }
                        ],
                        "signature": "ReceiveFromChain(uint16,address,uint256)"
                    },
                    "id": 9,
                    "logData": "0x000000000000000000000000000000000000000000000000021645e553500207",
                    "logDecoded": true,
                    "operation": "EVENT",
                    "revert": false,
                    "status": true,
                    "topics": [
                        "0xbf551ec93859b170f9b2141bd9298bf3f64322c6f7beb2543a0cb669834118bf",
                        "0x00000000000000000000000000000000000000000000000000000000000000d6",
                        "0x000000000000000000000000a712a7f4452540c5c15c3d0f98e04b77e723da15"
                    ]
                },
                "nodeType": 1
            }
        },
        "gasFlame": [
            {
                "children": [
                    {
                        "children": [
                            {
                                "children": [],
                                "depth": 0,
                                "name": "Initial Gas",
                                "value": 25192
                            },
                            {
                                "children": [
                                    {
                                        "children": [
                                            {
                                                "children": [
                                                    {
                                                        "children": [],
                                                        "depth": 3,
                                                        "name": "validateProof",
                                                        "value": 5606
                                                    },
                                                    {
                                                        "children": [
                                                            {
                                                                "children": [
                                                                    {
                                                                        "children": [],
                                                                        "depth": 5,
                                                                        "name": "nonblockingLzReceive",
                                                                        "value": 34156
                                                                    }
                                                                ],
                                                                "depth": 4,
                                                                "name": "lzReceive",
                                                                "value": 44475
                                                            }
                                                        ],
                                                        "depth": 3,
                                                        "name": "receivePayload",
                                                        "value": 63317
                                                    }
                                                ],
                                                "depth": 2,
                                                "name": "validateTransactionProof",
                                                "value": 104789
                                            }
                                        ],
                                        "depth": 1,
                                        "name": "validateTransactionProofV1",
                                        "value": 120484
                                    }
                                ],
                                "depth": 0,
                                "name": "Executed Gas",
                                "value": 125659
                            }
                        ],
                        "depth": -1,
                        "name": "Actual Gas Used",
                        "value": 145251
                    },
                    {
                        "children": [],
                        "depth": -1,
                        "name": "Refunded Gas",
                        "value": 5600
                    }
                ],
                "depth": -2,
                "name": "Total Gas",
                "value": 150851
            }
        ],
        "isConfirmed": true,
        "mainTrace": [
            {
                "children": [
                    {
                        "children": [
                            {
                                "children": [
                                    {
                                        "children": [
                                            {
                                                "children": [],
                                                "depth": 3,
                                                "id": 3,
                                                "order": 3
                                            },
                                            {
                                                "children": [],
                                                "depth": 3,
                                                "id": 4,
                                                "order": 4
                                            },
                                            {
                                                "children": [
                                                    {
                                                        "children": [
                                                            {
                                                                "children": [
                                                                    {
                                                                        "children": [],
                                                                        "depth": 6,
                                                                        "id": 8,
                                                                        "order": 8
                                                                    },
                                                                    {
                                                                        "children": [],
                                                                        "depth": 6,
                                                                        "id": 9,
                                                                        "order": 9
                                                                    }
                                                                ],
                                                                "depth": 5,
                                                                "id": 7,
                                                                "order": 7
                                                            }
                                                        ],
                                                        "depth": 4,
                                                        "id": 6,
                                                        "order": 6
                                                    }
                                                ],
                                                "depth": 3,
                                                "id": 5,
                                                "order": 5
                                            }
                                        ],
                                        "depth": 2,
                                        "id": 2,
                                        "order": 2
                                    }
                                ],
                                "depth": 1,
                                "id": 1,
                                "order": 1
                            }
                        ],
                        "depth": 0,
                        "id": 0,
                        "order": 0
                    }
                ],
                "depth": -1,
                "id": -1,
                "order": -1
            }
        ],
        "mainTraceNodeCount": 10,
        "parentIdMap": {
            "0": -1,
            "1": 0,
            "2": 1,
            "3": 2,
            "4": 2,
            "5": 2,
            "6": 5,
            "7": 6,
            "8": 7,
            "9": 7
        },
        "tidyTrace": [
            {
                "children": [
                    {
                        "children": [
                            {
                                "children": [
                                    {
                                        "children": [
                                            {
                                                "children": [],
                                                "depth": 3,
                                                "id": 3,
                                                "order": 3
                                            },
                                            {
                                                "children": [],
                                                "depth": 3,
                                                "id": 4,
                                                "order": 4
                                            },
                                            {
                                                "children": [
                                                    {
                                                        "children": [
                                                            {
                                                                "children": [
                                                                    {
                                                                        "children": [],
                                                                        "depth": 6,
                                                                        "id": 8,
                                                                        "order": 8
                                                                    },
                                                                    {
                                                                        "children": [],
                                                                        "depth": 6,
                                                                        "id": 9,
                                                                        "order": 9
                                                                    }
                                                                ],
                                                                "depth": 5,
                                                                "id": 7,
                                                                "order": 7
                                                            }
                                                        ],
                                                        "depth": 4,
                                                        "id": 6,
                                                        "order": 6
                                                    }
                                                ],
                                                "depth": 3,
                                                "id": 5,
                                                "order": 5
                                            }
                                        ],
                                        "depth": 2,
                                        "id": 2,
                                        "order": 2
                                    }
                                ],
                                "depth": 1,
                                "id": 1,
                                "order": 1
                            }
                        ],
                        "depth": 0,
                        "id": 0,
                        "order": 0
                    }
                ],
                "depth": -1,
                "id": -1,
                "order": -1
            }
        ],
        "tidyTraceNodeCount": 10
    },
    "state_change": {
        "stateChanges": [
            {
                "address": "0x66a71dcef29a0ffbdbe3c6a460a3b5bc225cd675",
                "erc": "",
                "slots": [
                    {
                        "current": "0x0000000000000000000000000000000000000000000000000000000000000f6c",
                        "key": "0x82c9d0c4d96d0629a124115a1a7b6d1c3db3eebaef035f483bac3b661db46af6",
                        "prev": "0x0000000000000000000000000000000000000000000000000000000000000f6b"
                    }
                ],
                "storageVariables": [
                    {
                        "name": "inboundNonce",
                        "type": "mapping(uint16 => mapping(bytes => uint64))",
                        "value": {
                            "pairs": [
                                {
                                    "key": "214",
                                    "value": {
                                        "pairs": [
                                            {
                                                "key": "0x80137510979822322193fc997d400d5a6c747bf77122985656e38bdc0302db86685bb972b145bd3c",
                                                "value": {
                                                    "current": "3948",
                                                    "prev": "3947",
                                                    "typeTag": 1
                                                }
                                            }
                                        ],
                                        "typeTag": 4
                                    }
                                }
                            ],
                            "typeTag": 4
                        }
                    }
                ]
            },
            {
                "address": "0x7122985656e38bdc0302db86685bb972b145bd3c",
                "erc": "ERC-20",
                "slots": [
                    {
                        "current": "0x000000000000000000000000000000000000000000001bfb1c63afda1b16c397",
                        "key": "0x258b4ba9e232e36ba53bc3f9dac275889f21173d770f374d786e582ba9c4eaff",
                        "prev": "0x000000000000000000000000000000000000000000001bfb1e79f5bf6e66c59e"
                    },
                    {
                        "current": "0x000000000000000000000000000000000000000000000000021645e553500207",
                        "key": "0xcb073c9a2560cef358fca2e18a84c779eb4712f4625d28ffb2455b7db99296c6",
                        "prev": "0x0000000000000000000000000000000000000000000000000000000000000000"
                    }
                ],
                "storageVariables": [
                    {
                        "name": "_balances",
                        "type": "mapping(address => uint256)",
                        "value": {
                            "pairs": [
                                {
                                    "key": "0x7122985656e38bdc0302db86685bb972b145bd3c",
                                    "value": {
                                        "current": "132136073471988566770583",
                                        "prev": "132136223856477377840542",
                                        "typeTag": 1
                                    }
                                },
                                {
                                    "key": "0xa712a7f4452540c5c15c3d0f98e04b77e723da15",
                                    "value": {
                                        "current": "150384488811069959",
                                        "prev": "0",
                                        "typeTag": 1
                                    }
                                }
                            ],
                            "typeTag": 4
                        }
                    }
                ]
            }
        ]
    }
}