{
    "balance_change": {
        "balanceChanges": [
            {
                "account": "0x25ee4c7bd4ae1810953868e55e6a7c8ce52ed61d",
                "assets": [
                    {
                        "address": "0x561cf9121e89926c27fa1cfc78dfcc4c422937a4",
                        "amount": "7,800,000",
                        "iconUrl": "",
                        "isERC1155": false,
                        "isERC721": false,
                        "sign": false,
                        "value": "120.7724228"
                    },
                    {
                        "address": "0xb1c41d76937060d0782f106076776761b3bf46d4",
                        "amount": "12,680.111252446881320516",
                        "iconUrl": "",
                        "isERC1155": false,
                        "isERC721": false,
                        "sign": true,
                        "value": "118.0741742"
                    }
                ]
            },
            {
                "account": "0x561cf9121e89926c27fa1cfc78dfcc4c422937a4",
                "assets": [
                    {
                        "address": "0x561cf9121e89926c27fa1cfc78dfcc4c422937a4",
                        "amount": "78,000",
                        "iconUrl": "",
                        "isERC1155": false,
                        "isERC721": false,
                        "sign": true,
                        "value": "1.20585966"
                    }
                ]
            },
            {
                "account": "0x5851583caf4b9006d7119ef2d1b459861d0390fe",
                "assets": [
                    {
                        "address": "0xc02aaa39b223fe8d0a0e5c4f27ead9083c756cc2",
                        "amount": "0.059302611640694063",
                        "iconUrl": "https://assets.blocksec.com/icon/f1cb2d02c471d545bbc7722daf3277fd852d98e63d118771af7047bd8256c516.png",
                        "isERC1155": false,
                        "isERC721": false,
                        "sign": true,
                        "value": "120.794675701748804315"
                    },
                    {
                        "address": "0xb1c41d76937060d0782f106076776761b3bf46d4",
                        "amount": "12,743.830404469227457805",
                        "iconUrl": "",
                        "isERC1155": false,
                        "isERC721": false,
                        "sign": false,
                        "value": "118.4852484"
                    }
                ]
            },
            {
                "account": "0xb1c41d76937060d0782f106076776761b3bf46d4",
                "assets": [
                    {
                        "address": "0xb1c41d76937060d0782f106076776761b3bf46d4",
                        "amount": "63.719152022346137289",
                        "iconUrl": "",
                        "isERC1155": false,
                        "isERC721": false,
                        "sign": true,
                        "value": "0.59196718"
                    }
                ]
            },
            {
                "account": "0xdf8ef47910ce4a196f83b86b80809f1c5201650a",
                "assets": [
                    {
                        "address": "0x561cf9121e89926c27fa1cfc78dfcc4c422937a4",
                        "amount": "7,722,000",
                        "iconUrl": "",
                        "isERC1155": false,
                        "isERC721": false,
                        "sign": true,
                        "value": "119.1984348"
                    },
                    {
                        "address": "0xc02aaa39b223fe8d0a0e5c4f27ead9083c756cc2",
                        "amount": "0.059302611640694063",
                        "iconUrl": "https://assets.blocksec.com/icon/f1cb2d02c471d545bbc7722daf3277fd852d98e63d118771af7047bd8256c516.png",
                        "isERC1155": false,
                        "isERC721": false,
                        "sign": false,
                        "value": "120.794675701748804315"
                    }
                ]
            }
        ]
    },
    "profile": {
        "basic_info": {
            "baseFee": "35.237606172",
            "blockNumber": 18612103,
            "callData": "0x5c11d7950000000000000000000000000000000000000000000673b6d8e6a4d71b0000000000000000000000000000000000000000000000000002a8c97334280866b5f100000000000000000000000000000000000000000000000000000000000000a000000000000000000000000025ee4c7bd4ae1810953868e55e6a7c8ce52ed61d00000000000000000000000000000000000000000000000000000000655b2d8f0000000000000000000000000000000000000000000000000000000000000003000000000000000000000000561cf9121e89926c27fa1cfc78dfcc4c422937a4000000000000000000000000c02aaa39b223fe8d0a0e5c4f27ead9083c756cc2000000000000000000000000b1c41d76937060d0782f106076776761b3bf46d4",
            "debugEnable": true,
            "errorInfo": "",
            "eventCount": 10,
            "feeRecipient": "0x1f9090aae28b8a3dceadf281b0f12828e676c326",
            "formatValue": "0",
            "gasLimit": 350016,
            "gasPrice": "37",
            "gasUsed": 283253,
            "intTxnCount": 15,
            "internalRevert": false,
            "internalRevertMessage": "",
            "isContractCreation": false,
            "isFlashloan": false,
            "maxFee": "",
            "nonce": 34,
            "overwritedBlockNumber": -1,
            "priorityFee": "",
            "receiver": "0x2ec705d306b51e486b1bc0d6ebee708e0661add1",
            "revertMessage": "",
            "sender": "0x25ee4c7bd4ae1810953868e55e6a7c8ce52ed61d",
            "simulationEnable": true,
            "sourceTxnHash": "0x36eca0c4a9b6414a504094caf6a3c485b000a9533030e949096c5331f5617bfe",
            "status": true,
            "timestamp": "2023-11-20T09:27:47Z",
            "transactionFee": "0.010480361",
            "txnHash": "0x36eca0c4a9b6414a504094caf6a3c485b000a9533030e949096c5331f5617bfe",
            "txnIndex": 58,
            "type": 0,
            "value": "0"
        },
        "fund_flow": [
            {
                "amount": "78,000",
                "from": "0x25ee4c7bd4ae1810953868e55e6a7c8ce52ed61d",
                "id": 1,
                "isERC1155": false,
                "isERC721": false,
                "isReverted": false,
                "order": 1,
                "to": "0x561cf9121e89926c27fa1cfc78dfcc4c422937a4",
                "token": "0x561cf9121e89926c27fa1cfc78dfcc4c422937a4"
            },
            {
                "amount": "7,722,000",
                "from": "0x25ee4c7bd4ae1810953868e55e6a7c8ce52ed61d",
                "id": 2,
                "isERC1155": false,
                "isERC721": false,
                "isReverted": false,
                "order": 2,
                "to": "0xdf8ef47910ce4a196f83b86b80809f1c5201650a",
                "token": "0x561cf9121e89926c27fa1cfc78dfcc4c422937a4"
            },
            {
                "amount": "0.059302611640694063",
                "from": "0xdf8ef47910ce4a196f83b86b80809f1c5201650a",
                "id": 3,
                "isERC1155": false,
                "isERC721": false,
                "isReverted": false,
                "order": 3,
                "to": "0x5851583caf4b9006d7119ef2d1b459861d0390fe",
                "token": "0xc02aaa39b223fe8d0a0e5c4f27ead9083c756cc2"
            },
            {
                "amount": "63.719152022346137289",
                "from": "0x5851583caf4b9006d7119ef2d1b459861d0390fe",
                "id": 4,
                "isERC1155": false,
                "isERC721": false,
                "isReverted": false,
                "order": 4,
                "to": "0xb1c41d76937060d0782f106076776761b3bf46d4",
                "token": "0xb1c41d76937060d0782f106076776761b3bf46d4"
            },
            {
                "amount": "12,680.111252446881320516",
                "from": "0x5851583caf4b9006d7119ef2d1b459861d0390fe",
                "id": 5,
                "isERC1155": false,
                "isERC721": false,
                "isReverted": false,
                "order": 5,
                "to": "0x25ee4c7bd4ae1810953868e55e6a7c8ce52ed61d",
                "token": "0xb1c41d76937060d0782f106076776761b3bf46d4"
            }
        ],
        "token_infos": [
            {
                "address": "0x561cf9121e89926c27fa1cfc78dfcc4c422937a4",
                "decimals": 18
            },
            {
                "address": "0xb1c41d76937060d0782f106076776761b3bf46d4",
                "decimals": 18
            },
            {
                "address": "0xc02aaa39b223fe8d0a0e5c4f27ead9083c756cc2",
                "decimals": 18
            },
            {
                "address": "0xeeeeeeeeeeeeeeeeeeeeeeeeeeeeeeeeeeeeeeee",
                "decimals": 18
            }
        ]
    },
    "address_label": {
        "labels": [
            {
                "address": "0xeeeeeeeeeeeeeeeeeeeeeeeeeeeeeeeeeeeeeeee",
                "label": "Ether"
            },
            {
                "address": "0xc02aaa39b223fe8d0a0e5c4f27ead9083c756cc2",
                "label": "Wrapped Ether (WETH)"
            },
            {
                "address": "0x5851583caf4b9006d7119ef2d1b459861d0390fe",
                "label": "0x5851_UNI-V2"
            },
            {
                "address": "0xdf8ef47910ce4a196f83b86b80809f1c5201650a",
                "label": "0xdf8e_UNI-V2"
            },
            {
                "address": "0x0000000000000000000000000000000000000002",
                "label": "Precompiled"
            },
            {
                "address": "0x0000000000000000000000000000000000000004",
                "label": "Precompiled"
            },
            {
                "address": "0x561cf9121e89926c27fa1cfc78dfcc4c422937a4",
                "label": "Squid Game: SQUID Token"
            },
            {
                "address": "0xb1c41d76937060d0782f106076776761b3bf46d4",
                "label": "SQUID"
            },
            {
                "address": "0x0000000000000000000000000000000000000001",
                "label": "Precompiled"
            },
            {
                "address": "0x0000000000000000000000000000000000000003",
                "label": "Precompiled"
            }
        ]
    },
    "trace": {
        "accountLabels": null,
        "dataMap": {
            "-1": {
                "invocation": {
                    "address": "0x25ee4c7bd4ae1810953868e55e6a7c8ce52ed61d",
                    "callData": "",
                    "decodedMethod": null,
                    "errorInfo": "",
                    "fromAddress": "",
                    "gasUsed": 0,
                    "id": -1,
                    "methodDecoded": false,
                    "operation": "",
                    "output": "",
                    "revert": false,
                    "revertMessage": "",
                    "selector": "",
                    "status": false,
                    "value": ""
                },
                "nodeType": 0
            },
            "0": {
                "invocation": {
                    "address": "0x2ec705d306b51e486b1bc0d6ebee708e0661add1",
                    "callData": "0x0000000000000000000000000000000000000000000673b6d8e6a4d71b0000000000000000000000000000000000000000000000000002a8c97334280866b5f100000000000000000000000000000000000000000000000000000000000000a000000000000000000000000025ee4c7bd4ae1810953868e55e6a7c8ce52ed61d00000000000000000000000000000000000000000000000000000000655b2d8f0000000000000000000000000000000000000000000000000000000000000003000000000000000000000000561cf9121e89926c27fa1cfc78dfcc4c422937a4000000000000000000000000c02aaa39b223fe8d0a0e5c4f27ead9083c756cc2000000000000000000000000b1c41d76937060d0782f106076776761b3bf46d4",
                    "decodedMethod": {
                        "callParams": [
                            {
                                "name": "amountIn",
                                "type": "uint256",
                                "value": "7,800,000,000,000,000,000,000,000"
                            },
                            {
                                "name": "amountOutMin",
                                "type": "uint256",
                                "value": "12,558,301,973,492,984,624,625"
                            },
                            {
                                "name": "path",
                                "type": "address[]",
                                "value": [
                                    "0x561cf9121e89926c27fa1cfc78dfcc4c422937a4",
                                    "0xc02aaa39b223fe8d0a0e5c4f27ead9083c756cc2",
                                    "0xb1c41d76937060d0782f106076776761b3bf46d4"
                                ]
                            },
                            {
                                "name": "to",
                                "type": "address",
                                "value": "0x25ee4c7bd4ae1810953868e55e6a7c8ce52ed61d"
                            },
                            {
                                "name": "deadline",
                                "type": "uint256",
                                "value": "1,700,474,255"
                            }
                        ],
                        "constructorArguments": "",
                        "name": "swapExactTokensForTokensSupportingFeeOnTransferTokens",
                        "returnParams": [],
                        "signature": "swapExactTokensForTokensSupportingFeeOnTransferTokens(uint256,uint256,address[],address,uint256)"
                    },
                    "errorInfo": "",
                    "fromAddress": "0x25ee4c7bd4ae1810953868e55e6a7c8ce52ed61d",
                    "gasUsed": 283253,
                    "id": 0,
                    "methodDecoded": true,
                    "operation": "CALL",
                    "output": "",
                    "revert": false,
                    "revertMessage": "",
                    "selector": "0x5c11d795",
                    "status": true,
                    "value": "0"
                },
                "nodeType": 0
            },
            "1": {
                "invocation": {
                    "address": "0x561cf9121e89926c27fa1cfc78dfcc4c422937a4",
                    "callData": "0x00000000000000000000000025ee4c7bd4ae1810953868e55e6a7c8ce52ed61d000000000000000000000000df8ef47910ce4a196f83b86b80809f1c5201650a0000000000000000000000000000000000000000000673b6d8e6a4d71b000000",
                    "decodedMethod": {
                        "callParams": [
                            {
                                "name": "sender",
                                "type": "address",
                                "value": "0x25ee4c7bd4ae1810953868e55e6a7c8ce52ed61d"
                            },
                            {
                                "name": "recipient",
                                "type": "address",
                                "value": "0xdf8ef47910ce4a196f83b86b80809f1c5201650a"
                            },
                            {
                                "decimalAvailable": true,
                                "name": "amount",
                                "type": "uint256",
                                "value": "7,800,000,000,000,000,000,000,000"
                            }
                        ],
                        "constructorArguments": "",
                        "name": "transferFrom",
                        "returnParams": [
                            {
                                "name": "",
                                "type": "bool",
                                "value": true
                            }
                        ],
                        "signature": "transferFrom(address,address,uint256)"
                    },
                    "errorInfo": "",
                    "fromAddress": "0x2ec705d306b51e486b1bc0d6ebee708e0661add1",
                    "gasUsed": 56023,
                    "id": 1,
                    "methodDecoded": true,
                    "operation": "CALL",
                    "output": "0x0000000000000000000000000000000000000000000000000000000000000001",
                    "revert": false,
                    "revertMessage": "",
                    "selector": "0x23b872dd",
                    "status": true,
                    "value": "0"
                },
                "nodeType": 0
            },
            "10": {
                "event": {
                    "contract": "0xc02aaa39b223fe8d0a0e5c4f27ead9083c756cc2",
                    "decodedLog": {
                        "name": "Transfer",
                        "params": [
                            {
                                "name": "src",
                                "type": "address",
                                "value": "0xdf8ef47910ce4a196f83b86b80809f1c5201650a"
                            },
                            {
                                "name": "dst",
                                "type": "address",
                                "value": "0x5851583caf4b9006d7119ef2d1b459861d0390fe"
                            },
                            {
                                "decimalAvailable": true,
                                "name": "wad",
                                "type": "uint256",
                                "value": "59,302,611,640,694,063"
                            }
                        ],
                        "signature": "Transfer(address,address,uint256)"
                    },
                    "id": 10,
                    "logData": "0x00000000000000000000000000000000000000000000000000d2af693d18b52f",
                    "logDecoded": true,
                    "operation": "EVENT",
                    "revert": false,
                    "status": true,
                    "topics": [
                        "0xddf252ad1be2c89b69c2b068fc378daa952ba7f163c4a11628f55a4df523b3ef",
                        "0x000000000000000000000000df8ef47910ce4a196f83b86b80809f1c5201650a",
                        "0x0000000000000000000000005851583caf4b9006d7119ef2d1b459861d0390fe"
                    ]
                },
                "nodeType": 1
            },
            "11": {
                "invocation": {
                    "address": "0x561cf9121e89926c27fa1cfc78dfcc4c422937a4",
                    "callData": "0x000000000000000000000000df8ef47910ce4a196f83b86b80809f1c5201650a",
                    "decodedMethod": {
                        "callParams": [
                            {
                                "name": "account",
                                "type": "address",
                                "value": "0xdf8ef47910ce4a196f83b86b80809f1c5201650a"
                            }
                        ],
                        "constructorArguments": "",
                        "name": "balanceOf",
                        "returnParams": [
                            {
                                "decimalAvailable": true,
                                "name": "",
                                "type": "uint256",
                                "value": "5,102,459,829,216,955,938,025,349,586"
                            }
                        ],
                        "signature": "balanceOf(address)"
                    },
                    "errorInfo": "",
                    "fromAddress": "0xdf8ef47910ce4a196f83b86b80809f1c5201650a",
                    "gasUsed": 601,
                    "id": 11,
                    "methodDecoded": true,
                    "operation": "STATICCALL",
                    "output": "0x0000000000000000000000000000000000000000107ca7e597c525b0979da1d2",
                    "revert": false,
                    "revertMessage": "",
                    "selector": "0x70a08231",
                    "status": true,
                    "value": "0"
                },
                "nodeType": 0
            },
            "12": {
                "invocation": {
                    "address": "0xc02aaa39b223fe8d0a0e5c4f27ead9083c756cc2",
                    "callData": "0x000000000000000000000000df8ef47910ce4a196f83b86b80809f1c5201650a",
                    "decodedMethod": {
                        "callParams": [
                            {
                                "name": "",
                                "type": "address",
                                "value": "0xdf8ef47910ce4a196f83b86b80809f1c5201650a"
                            }
                        ],
                        "constructorArguments": "",
                        "name": "balanceOf",
                        "returnParams": [
                            {
                                "decimalAvailable": true,
                                "name": "",
                                "type": "uint256",
                                "value": "39,243,768,458,601,114,606"
                            }
                        ],
                        "signature": "balanceOf(address)"
                    },
                    "errorInfo": "",
                    "fromAddress": "0xdf8ef47910ce4a196f83b86b80809f1c5201650a",
                    "gasUsed": 534,
                    "id": 12,
                    "methodDecoded": true,
                    "operation": "STATICCALL",
                    "output": "0x000000000000000000000000000000000000000000000002209ddf7d9e992bee",
                    "revert": false,
                    "revertMessage": "",
                    "selector": "0x70a08231",
                    "status": true,
                    "value": "0"
                },
                "nodeType": 0
            },
            "13": {
                "event": {
                    "contract": "0xdf8ef47910ce4a196f83b86b80809f1c5201650a",
                    "decodedLog": {
                        "name": "Sync",
                        "params": [
                            {
                                "name": "reserve0",
                                "type": "uint112",
                                "value": "5,102,459,829,216,955,938,025,349,586"
                            },
                            {
                                "name": "reserve1",
                                "type": "uint112",
                                "value": "39,243,768,458,601,114,606"
                            }
                        ],
                        "signature": "Sync(uint112,uint112)"
                    },
                    "id": 13,
                    "logData": "0x0000000000000000000000000000000000000000107ca7e597c525b0979da1d2000000000000000000000000000000000000000000000002209ddf7d9e992bee",
                    "logDecoded": true,
                    "operation": "EVENT",
                    "revert": false,
                    "status": true,
                    "topics": [
                        "0x1c411e9a96e071241c2f21f7726b17ae89e3cab4c78be50e062b03a9fffbbad1"
                    ]
                },
                "nodeType": 1
            },
            "14": {
                "event": {
                    "contract": "0xdf8ef47910ce4a196f83b86b80809f1c5201650a",
                    "decodedLog": {
                        "name": "Swap",
                        "params": [
                            {
                                "name": "sender",
                                "type": "address",
                                "value": "0x2ec705d306b51e486b1bc0d6ebee708e0661add1"
                            },
                            {
                                "name": "to",
                                "type": "address",
                                "value": "0x5851583caf4b9006d7119ef2d1b459861d0390fe"
                            },
                            {
                                "name": "amount0In",
                                "type": "uint256",
                                "value": "7,722,000,000,000,000,000,000,000"
                            },
                            {
                                "name": "amount1In",
                                "type": "uint256",
                                "value": "0"
                            },
                            {
                                "name": "amount0Out",
                                "type": "uint256",
                                "value": "0"
                            },
                            {
                                "name": "amount1Out",
                                "type": "uint256",
                                "value": "59,302,611,640,694,063"
                            }
                        ],
                        "signature": "Swap(address,uint256,uint256,uint256,uint256,address)"
                    },
                    "id": 14,
                    "logData": "0x0000000000000000000000000000000000000000000663327573b28d464000000000000000000000000000000000000000000000000000000000000000000000000000000000000000000000000000000000000000000000000000000000000000000000000000000000000000000000000000000000000000d2af693d18b52f",
                    "logDecoded": true,
                    "operation": "EVENT",
                    "revert": false,
                    "status": true,
                    "topics": [
                        "0xd78ad95fa46c994b6551d0da85fc275fe613ce37657fb8d5e3d130840159d822",
                        "0x0000000000000000000000002ec705d306b51e486b1bc0d6ebee708e0661add1",
                        "0x0000000000000000000000005851583caf4b9006d7119ef2d1b459861d0390fe"
                    ]
                },
                "nodeType": 1
            },
            "15": {
                "invocation": {
                    "address": "0x5851583caf4b9006d7119ef2d1b459861d0390fe",
                    "callData": "0x",
                    "decodedMethod": {
                        "callParams": [],
                        "constructorArguments": "",
                        "name": "getReserves",
                        "returnParams": [
                            {
                                "name": "_reserve0",
                                "type": "uint112",
                                "value": "16,502,677,498,340,946,573,689,913"
                            },
                            {
                                "name": "_reserve1",
                                "type": "uint112",
                                "value": "76,504,662,487,634,378,968"
                            },
                            {
                                "name": "_blockTimestampLast",
                                "type": "uint32",
                                "value": "1,700,472,179"
                            }
                        ],
                        "signature": "getReserves()"
                    },
                    "errorInfo": "",
                    "fromAddress": "0x2ec705d306b51e486b1bc0d6ebee708e0661add1",
                    "gasUsed": 2504,
                    "id": 15,
                    "methodDecoded": true,
                    "operation": "STATICCALL",
                    "output": "0x0000000000000000000000000000000000000000000da693f0953069a2c2843900000000000000000000000000000000000000000000000425b72931849980d800000000000000000000000000000000000000000000000000000000655b2573",
                    "revert": false,
                    "revertMessage": "",
                    "selector": "0x0902f1ac",
                    "status": true,
                    "value": "0"
                },
                "nodeType": 0
            },
            "16": {
                "invocation": {
                    "address": "0xc02aaa39b223fe8d0a0e5c4f27ead9083c756cc2",
                    "callData": "0x0000000000000000000000005851583caf4b9006d7119ef2d1b459861d0390fe",
                    "decodedMethod": {
                        "callParams": [
                            {
                                "name": "",
                                "type": "address",
                                "value": "0x5851583caf4b9006d7119ef2d1b459861d0390fe"
                            }
                        ],
                        "constructorArguments": "",
                        "name": "balanceOf",
                        "returnParams": [
                            {
                                "decimalAvailable": true,
                                "name": "",
                                "type": "uint256",
                                "value": "76,563,965,099,275,073,031"
                            }
                        ],
                        "signature": "balanceOf(address)"
                    },
                    "errorInfo": "",
                    "fromAddress": "0x2ec705d306b51e486b1bc0d6ebee708e0661add1",
                    "gasUsed": 534,
                    "id": 16,
                    "methodDecoded": true,
                    "operation": "STATICCALL",
                    "output": "0x0000000000000000000000000000000000000000000000042689d89ac1b23607",
                    "revert": false,
                    "revertMessage": "",
                    "selector": "0x70a08231",
                    "status": true,
                    "value": "0"
                },
                "nodeType": 0
            },
            "17": {
                "invocation": {
                    "address": "0x5851583caf4b9006d7119ef2d1b459861d0390fe",
                    "callData": "0x0000000000000000000000000000000000000000000002b2d82c992852ef0d0d000000000000000000000000000000000000000000000000000000000000000000000000000000000000000025ee4c7bd4ae1810953868e55e6a7c8ce52ed61d00000000000000000000000000000000000000000000000000000000000000800000000000000000000000000000000000000000000000000000000000000000",
                    "decodedMethod": {
                        "callParams": [
                            {
                                "name": "amount0Out",
                                "type": "uint256",
                                "value": "12,743,830,404,469,227,457,805"
                            },
                            {
                                "name": "amount1Out",
                                "type": "uint256",
                                "value": "0"
                            },
                            {
                                "name": "to",
                                "type": "address",
                                "value": "0x25ee4c7bd4ae1810953868e55e6a7c8ce52ed61d"
                            },
                            {
                                "name": "data",
                                "type": "bytes",
                                "value": "0x"
                            }
                        ],
                        "constructorArguments": "",
                        "name": "swap",
                        "returnParams": [],
                        "signature": "swap(uint256,uint256,address,bytes)"
                    },
                    "errorInfo": "",
                    "fromAddress": "0x2ec705d306b51e486b1bc0d6ebee708e0661add1",
                    "gasUsed": 129899,
                    "id": 17,
                    "methodDecoded": true,
                    "operation": "CALL",
                    "output": "",
                    "revert": false,
                    "revertMessage": "",
                    "selector": "0x022c0d9f",
                    "status": true,
                    "value": "0"
                },
                "nodeType": 0
            },
            "18": {
                "invocation": {
                    "address": "0xb1c41d76937060d0782f106076776761b3bf46d4",
                    "callData": "0x00000000000000000000000025ee4c7bd4ae1810953868e55e6a7c8ce52ed61d0000000000000000000000000000000000000000000002b2d82c992852ef0d0d",
                    "decodedMethod": {
                        "callParams": [
                            {
                                "name": "to",
                                "type": "address",
                                "value": "0x25ee4c7bd4ae1810953868e55e6a7c8ce52ed61d"
                            },
                            {
                                "decimalAvailable": true,
                                "name": "amount",
                                "type": "uint256",
                                "value": "12,743,830,404,469,227,457,805"
                            }
                        ],
                        "constructorArguments": "",
                        "name": "transfer",
                        "returnParams": [
                            {
                                "name": "",
                                "type": "bool",
                                "value": true
                            }
                        ],
                        "signature": "transfer(address,uint256)"
                    },
                    "errorInfo": "",
                    "fromAddress": "0x5851583caf4b9006d7119ef2d1b459861d0390fe",
                    "gasUsed": 97377,
                    "id": 18,
                    "methodDecoded": true,
                    "operation": "CALL",
                    "output": "0x0000000000000000000000000000000000000000000000000000000000000001",
                    "revert": false,
                    "revertMessage": "",
                    "selector": "0xa9059cbb",
                    "status": true,
                    "value": "0"
                },
                "nodeType": 0
            },
            "19": {
                "event": {
                    "contract": "0xb1c41d76937060d0782f106076776761b3bf46d4",
                    "decodedLog": {
                        "name": "Transfer",
                        "params": [
                            {
                                "name": "from",
                                "type": "address",
                                "value": "0x5851583caf4b9006d7119ef2d1b459861d0390fe"
                            },
                            {
                                "name": "to",
                                "type": "address",
                                "value": "0xb1c41d76937060d0782f106076776761b3bf46d4"
                            },
                            {
                                "decimalAvailable": true,
                                "name": "value",
                                "type": "uint256",
                                "value": "63,719,152,022,346,137,289"
                            }
                        ],
                        "signature": "Transfer(address,address,uint256)"
                    },
                    "id": 19,
                    "logData": "0x0000000000000000000000000000000000000000000000037447e72a710dfec9",
                    "logDecoded": true,
                    "operation": "EVENT",
                    "revert": false,
                    "status": true,
                    "topics": [
                        "0xddf252ad1be2c89b69c2b068fc378daa952ba7f163c4a11628f55a4df523b3ef",
                        "0x0000000000000000000000005851583caf4b9006d7119ef2d1b459861d0390fe",
                        "0x000000000000000000000000b1c41d76937060d0782f106076776761b3bf46d4"
                    ]
                },
                "nodeType": 1
            },
            "2": {
                "event": {
                    "contract": "0x561cf9121e89926c27fa1cfc78dfcc4c422937a4",
                    "decodedLog": {
                        "name": "Transfer",
                        "params": [
                            {
                                "name": "from",
                                "type": "address",
                                "value": "0x25ee4c7bd4ae1810953868e55e6a7c8ce52ed61d"
                            },
                            {
                                "name": "to",
                                "type": "address",
                                "value": "0x561cf9121e89926c27fa1cfc78dfcc4c422937a4"
                            },
                            {
                                "decimalAvailable": true,
                                "name": "value",
                                "type": "uint256",
                                "value": "78,000,000,000,000,000,000,000"
                            }
                        ],
                        "signature": "Transfer(address,address,uint256)"
                    },
                    "id": 2,
                    "logData": "0x0000000000000000000000000000000000000000000010846372f249d4c00000",
                    "logDecoded": true,
                    "operation": "EVENT",
                    "revert": false,
                    "status": true,
                    "topics": [
                        "0xddf252ad1be2c89b69c2b068fc378daa952ba7f163c4a11628f55a4df523b3ef",
                        "0x00000000000000000000000025ee4c7bd4ae1810953868e55e6a7c8ce52ed61d",
                        "0x000000000000000000000000561cf9121e89926c27fa1cfc78dfcc4c422937a4"
                    ]
                },
                "nodeType": 1
            },
            "20": {
                "event": {
                    "contract": "0xb1c41d76937060d0782f106076776761b3bf46d4",
                    "decodedLog": {
                        "name": "Transfer",
                        "params": [
                            {
                                "name": "from",
                                "type": "address",
                                "value": "0x5851583caf4b9006d7119ef2d1b459861d0390fe"
                            },
                            {
                                "name": "to",
                                "type": "address",
                                "value": "0x25ee4c7bd4ae1810953868e55e6a7c8ce52ed61d"
                            },
                            {
                                "decimalAvailable": true,
                                "name": "value",
                                "type": "uint256",
                                "value": "12,680,111,252,446,881,320,516"
                            }
                        ],
                        "signature": "Transfer(address,address,uint256)"
                    },
                    "id": 20,
                    "logData": "0x0000000000000000000000000000000000000000000002af63e4b1fde1e10e44",
                    "logDecoded": true,
                    "operation": "EVENT",
                    "revert": false,
                    "status": true,
                    "topics": [
                        "0xddf252ad1be2c89b69c2b068fc378daa952ba7f163c4a11628f55a4df523b3ef",
                        "0x0000000000000000000000005851583caf4b9006d7119ef2d1b459861d0390fe",
                        "0x00000000000000000000000025ee4c7bd4ae1810953868e55e6a7c8ce52ed61d"
                    ]
                },
                "nodeType": 1
            },
            "21": {
                "invocation": {
                    "address": "0xb1c41d76937060d0782f106076776761b3bf46d4",
                    "callData": "0x0000000000000000000000005851583caf4b9006d7119ef2d1b459861d0390fe",
                    "decodedMethod": {
                        "callParams": [
                            {
                                "name": "account",
                                "type": "address",
                                "value": "0x5851583caf4b9006d7119ef2d1b459861d0390fe"
                            }
                        ],
                        "constructorArguments": "",
                        "name": "balanceOf",
                        "returnParams": [
                            {
                                "decimalAvailable": true,
                                "name": "",
                                "type": "uint256",
                                "value": "16,489,933,667,936,477,346,232,108"
                            }
                        ],
                        "signature": "balanceOf(address)"
                    },
                    "errorInfo": "",
                    "fromAddress": "0x5851583caf4b9006d7119ef2d1b459861d0390fe",
                    "gasUsed": 665,
                    "id": 21,
                    "methodDecoded": true,
                    "operation": "STATICCALL",
                    "output": "0x0000000000000000000000000000000000000000000da3e1186897414fd3772c",
                    "revert": false,
                    "revertMessage": "",
                    "selector": "0x70a08231",
                    "status": true,
                    "value": "0"
                },
                "nodeType": 0
            },
            "22": {
                "invocation": {
                    "address": "0xc02aaa39b223fe8d0a0e5c4f27ead9083c756cc2",
                    "callData": "0x0000000000000000000000005851583caf4b9006d7119ef2d1b459861d0390fe",
                    "decodedMethod": {
                        "callParams": [
                            {
                                "name": "",
                                "type": "address",
                                "value": "0x5851583caf4b9006d7119ef2d1b459861d0390fe"
                            }
                        ],
                        "constructorArguments": "",
                        "name": "balanceOf",
                        "returnParams": [
                            {
                                "decimalAvailable": true,
                                "name": "",
                                "type": "uint256",
                                "value": "76,563,965,099,275,073,031"
                            }
                        ],
                        "signature": "balanceOf(address)"
                    },
                    "errorInfo": "",
                    "fromAddress": "0x5851583caf4b9006d7119ef2d1b459861d0390fe",
                    "gasUsed": 534,
                    "id": 22,
                    "methodDecoded": true,
                    "operation": "STATICCALL",
                    "output": "0x0000000000000000000000000000000000000000000000042689d89ac1b23607",
                    "revert": false,
                    "revertMessage": "",
                    "selector": "0x70a08231",
                    "status": true,
                    "value": "0"
                },
                "nodeType": 0
            },
            "23": {
                "event": {
                    "contract": "0x5851583caf4b9006d7119ef2d1b459861d0390fe",
                    "decodedLog": {
                        "name": "Sync",
                        "params": [
                            {
                                "name": "reserve0",
                                "type": "uint112",
                                "value": "16,489,933,667,936,477,346,232,108"
                            },
                            {
                                "name": "reserve1",
                                "type": "uint112",
                                "value": "76,563,965,099,275,073,031"
                            }
                        ],
                        "signature": "Sync(uint112,uint112)"
                    },
                    "id": 23,
                    "logData": "0x0000000000000000000000000000000000000000000da3e1186897414fd3772c0000000000000000000000000000000000000000000000042689d89ac1b23607",
                    "logDecoded": true,
                    "operation": "EVENT",
                    "revert": false,
                    "status": true,
                    "topics": [
                        "0x1c411e9a96e071241c2f21f7726b17ae89e3cab4c78be50e062b03a9fffbbad1"
                    ]
                },
                "nodeType": 1
            },
            "24": {
                "event": {
                    "contract": "0x5851583caf4b9006d7119ef2d1b459861d0390fe",
                    "decodedLog": {
                        "name": "Swap",
                        "params": [
                            {
                                "name": "sender",
                                "type": "address",
                                "value": "0x2ec705d306b51e486b1bc0d6ebee708e0661add1"
                            },
                            {
                                "name": "to",
                                "type": "address",
                                "value": "0x25ee4c7bd4ae1810953868e55e6a7c8ce52ed61d"
                            },
                            {
                                "name": "amount0In",
                                "type": "uint256",
                                "value": "0"
                            },
                            {
                                "name": "amount1In",
                                "type": "uint256",
                                "value": "59,302,611,640,694,063"
                            },
                            {
                                "name": "amount0Out",
                                "type": "uint256",
                                "value": "12,743,830,404,469,227,457,805"
                            },
                            {
                                "name": "amount1Out",
                                "type": "uint256",
                                "value": "0"
                            }
                        ],
                        "signature": "Swap(address,uint256,uint256,uint256,uint256,address)"
                    },
                    "id": 24,
                    "logData": "0x000000000000000000000000000000000000000000000000000000000000000000000000000000000000000000000000000000000000000000d2af693d18b52f0000000000000000000000000000000000000000000002b2d82c992852ef0d0d0000000000000000000000000000000000000000000000000000000000000000",
                    "logDecoded": true,
                    "operation": "EVENT",
                    "revert": false,
                    "status": true,
                    "topics": [
                        "0xd78ad95fa46c994b6551d0da85fc275fe613ce37657fb8d5e3d130840159d822",
                        "0x0000000000000000000000002ec705d306b51e486b1bc0d6ebee708e0661add1",
                        "0x00000000000000000000000025ee4c7bd4ae1810953868e55e6a7c8ce52ed61d"
                    ]
                },
                "nodeType": 1
            },
            "25": {
                "invocation": {
                    "address": "0xb1c41d76937060d0782f106076776761b3bf46d4",
                    "callData": "0x00000000000000000000000025ee4c7bd4ae1810953868e55e6a7c8ce52ed61d",
                    "decodedMethod": {
                        "callParams": [
                            {
                                "name": "account",
                                "type": "address",
                                "value": "0x25ee4c7bd4ae1810953868e55e6a7c8ce52ed61d"
                            }
                        ],
                        "constructorArguments": "",
                        "name": "balanceOf",
                        "returnParams": [
                            {
                                "decimalAvailable": true,
                                "name": "",
                                "type": "uint256",
                                "value": "12,680,111,252,446,881,320,516"
                            }
                        ],
                        "signature": "balanceOf(address)"
                    },
                    "errorInfo": "",
                    "fromAddress": "0x2ec705d306b51e486b1bc0d6ebee708e0661add1",
                    "gasUsed": 665,
                    "id": 25,
                    "methodDecoded": true,
                    "operation": "STATICCALL",
                    "output": "0x0000000000000000000000000000000000000000000002af63e4b1fde1e10e44",
                    "revert": false,
                    "revertMessage": "",
                    "selector": "0x70a08231",
                    "status": true,
                    "value": "0"
                },
                "nodeType": 0
            },
            "3": {
                "event": {
                    "contract": "0x561cf9121e89926c27fa1cfc78dfcc4c422937a4",
                    "decodedLog": {
                        "name": "Transfer",
                        "params": [
                            {
                                "name": "from",
                                "type": "address",
                                "value": "0x25ee4c7bd4ae1810953868e55e6a7c8ce52ed61d"
                            },
                            {
                                "name": "to",
                                "type": "address",
                                "value": "0xdf8ef47910ce4a196f83b86b80809f1c5201650a"
                            },
                            {
                                "decimalAvailable": true,
                                "name": "value",
                                "type": "uint256",
                                "value": "7,722,000,000,000,000,000,000,000"
                            }
                        ],
                        "signature": "Transfer(address,address,uint256)"
                    },
                    "id": 3,
                    "logData": "0x0000000000000000000000000000000000000000000663327573b28d46400000",
                    "logDecoded": true,
                    "operation": "EVENT",
                    "revert": false,
                    "status": true,
                    "topics": [
                        "0xddf252ad1be2c89b69c2b068fc378daa952ba7f163c4a11628f55a4df523b3ef",
                        "0x00000000000000000000000025ee4c7bd4ae1810953868e55e6a7c8ce52ed61d",
                        "0x000000000000000000000000df8ef47910ce4a196f83b86b80809f1c5201650a"
                    ]
                },
                "nodeType": 1
            },
            "4": {
                "event": {
                    "contract": "0x561cf9121e89926c27fa1cfc78dfcc4c422937a4",
                    "decodedLog": {
                        "name": "Approval",
                        "params": [
                            {
                                "name": "owner",
                                "type": "address",
                                "value": "0x25ee4c7bd4ae1810953868e55e6a7c8ce52ed61d"
                            },
                            {
                                "name": "spender",
                                "type": "address",
                                "value": "0x2ec705d306b51e486b1bc0d6ebee708e0661add1"
                            },
                            {
                                "decimalAvailable": true,
                                "name": "value",
                                "type": "uint256",
                                "value": "115,792,089,237,316,195,423,570,985,008,687,907,853,269,984,665,640,556,239,457,584,007,913,129,639,935"
                            }
                        ],
                        "signature": "Approval(address,address,uint256)"
                    },
                    "id": 4,
                    "logData": "0xfffffffffffffffffffffffffffffffffffffffffff98c4927195b28e4ffffff",
                    "logDecoded": true,
                    "operation": "EVENT",
                    "revert": false,
                    "status": true,
                    "topics": [
                        "0x8c5be1e5ebec7d5bd14f71427d1e84f3dd0314c0f7b2291e5b200ac8c7c3b925",
                        "0x00000000000000000000000025ee4c7bd4ae1810953868e55e6a7c8ce52ed61d",
                        "0x0000000000000000000000002ec705d306b51e486b1bc0d6ebee708e0661add1"
                    ]
                },
                "nodeType": 1
            },
            "5": {
                "invocation": {
                    "address": "0xb1c41d76937060d0782f106076776761b3bf46d4",
                    "callData": "0x00000000000000000000000025ee4c7bd4ae1810953868e55e6a7c8ce52ed61d",
                    "decodedMethod": {
                        "callParams": [
                            {
                                "name": "account",
                                "type": "address",
                                "value": "0x25ee4c7bd4ae1810953868e55e6a7c8ce52ed61d"
                            }
                        ],
                        "constructorArguments": "",
                        "name": "balanceOf",
                        "returnParams": [
                            {
                                "decimalAvailable": true,
                                "name": "",
                                "type": "uint256",
                                "value": "0"
                            }
                        ],
                        "signature": "balanceOf(address)"
                    },
                    "errorInfo": "",
                    "fromAddress": "0x2ec705d306b51e486b1bc0d6ebee708e0661add1",
                    "gasUsed": 2665,
                    "id": 5,
                    "methodDecoded": true,
                    "operation": "STATICCALL",
                    "output": "0x0000000000000000000000000000000000000000000000000000000000000000",
                    "revert": false,
                    "revertMessage": "",
                    "selector": "0x70a08231",
                    "status": true,
                    "value": "0"
                },
                "nodeType": 0
            },
            "6": {
                "invocation": {
                    "address": "0xdf8ef47910ce4a196f83b86b80809f1c5201650a",
                    "callData": "0x",
                    "decodedMethod": {
                        "callParams": [],
                        "constructorArguments": "",
                        "name": "getReserves",
                        "returnParams": [
                            {
                                "name": "_reserve0",
                                "type": "uint112",
                                "value": "5,094,737,829,216,955,938,025,349,586"
                            },
                            {
                                "name": "_reserve1",
                                "type": "uint112",
                                "value": "39,303,071,070,241,808,669"
                            },
                            {
                                "name": "_blockTimestampLast",
                                "type": "uint32",
                                "value": "1,700,472,431"
                            }
                        ],
                        "signature": "getReserves()"
                    },
                    "errorInfo": "",
                    "fromAddress": "0x2ec705d306b51e486b1bc0d6ebee708e0661add1",
                    "gasUsed": 2504,
                    "id": 6,
                    "methodDecoded": true,
                    "operation": "STATICCALL",
                    "output": "0x0000000000000000000000000000000000000000107644b322517323515da1d200000000000000000000000000000000000000000000000221708ee6dbb1e11d00000000000000000000000000000000000000000000000000000000655b266f",
                    "revert": false,
                    "revertMessage": "",
                    "selector": "0x0902f1ac",
                    "status": true,
                    "value": "0"
                },
                "nodeType": 0
            },
            "7": {
                "invocation": {
                    "address": "0x561cf9121e89926c27fa1cfc78dfcc4c422937a4",
                    "callData": "0x000000000000000000000000df8ef47910ce4a196f83b86b80809f1c5201650a",
                    "decodedMethod": {
                        "callParams": [
                            {
                                "name": "account",
                                "type": "address",
                                "value": "0xdf8ef47910ce4a196f83b86b80809f1c5201650a"
                            }
                        ],
                        "constructorArguments": "",
                        "name": "balanceOf",
                        "returnParams": [
                            {
                                "decimalAvailable": true,
                                "name": "",
                                "type": "uint256",
                                "value": "5,102,459,829,216,955,938,025,349,586"
                            }
                        ],
                        "signature": "balanceOf(address)"
                    },
                    "errorInfo": "",
                    "fromAddress": "0x2ec705d306b51e486b1bc0d6ebee708e0661add1",
                    "gasUsed": 601,
                    "id": 7,
                    "methodDecoded": true,
                    "operation": "STATICCALL",
                    "output": "0x0000000000000000000000000000000000000000107ca7e597c525b0979da1d2",
                    "revert": false,
                    "revertMessage": "",
                    "selector": "0x70a08231",
                    "status": true,
                    "value": "0"
                },
                "nodeType": 0
            },
            "8": {
                "invocation": {
                    "address": "0xdf8ef47910ce4a196f83b86b80809f1c5201650a",
                    "callData": "0x000000000000000000000000000000000000000000000000000000000000000000000000000000000000000000000000000000000000000000d2af693d18b52f0000000000000000000000005851583caf4b9006d7119ef2d1b459861d0390fe00000000000000000000000000000000000000000000000000000000000000800000000000000000000000000000000000000000000000000000000000000000",
                    "decodedMethod": {
                        "callParams": [
                            {
                                "name": "amount0Out",
                                "type": "uint256",
                                "value": "0"
                            },
                            {
                                "name": "amount1Out",
                                "type": "uint256",
                                "value": "59,302,611,640,694,063"
                            },
                            {
                                "name": "to",
                                "type": "address",
                                "value": "0x5851583caf4b9006d7119ef2d1b459861d0390fe"
                            },
                            {
                                "name": "data",
                                "type": "bytes",
                                "value": "0x"
                            }
                        ],
                        "constructorArguments": "",
                        "name": "swap",
                        "returnParams": [],
                        "signature": "swap(uint256,uint256,address,bytes)"
                    },
                    "errorInfo": "",
                    "fromAddress": "0x2ec705d306b51e486b1bc0d6ebee708e0661add1",
                    "gasUsed": 47820,
                    "id": 8,
                    "methodDecoded": true,
                    "operation": "CALL",
                    "output": "",
                    "revert": false,
                    "revertMessage": "",
                    "selector": "0x022c0d9f",
                    "status": true,
                    "value": "0"
                },
                "nodeType": 0
            },
            "9": {
                "invocation": {
                    "address": "0xc02aaa39b223fe8d0a0e5c4f27ead9083c756cc2",
                    "callData": "0x0000000000000000000000005851583caf4b9006d7119ef2d1b459861d0390fe00000000000000000000000000000000000000000000000000d2af693d18b52f",
                    "decodedMethod": {
                        "callParams": [
                            {
                                "name": "dst",
                                "type": "address",
                                "value": "0x5851583caf4b9006d7119ef2d1b459861d0390fe"
                            },
                            {
                                "decimalAvailable": true,
                                "name": "wad",
                                "type": "uint256",
                                "value": "59,302,611,640,694,063"
                            }
                        ],
                        "constructorArguments": "",
                        "name": "transfer",
                        "returnParams": [
                            {
                                "name": "",
                                "type": "bool",
                                "value": true
                            }
                        ],
                        "signature": "transfer(address,uint256)"
                    },
                    "errorInfo": "",
                    "fromAddress": "0xdf8ef47910ce4a196f83b86b80809f1c5201650a",
                    "gasUsed": 12862,
                    "id": 9,
                    "methodDecoded": true,
                    "operation": "CALL",
                    "output": "0x0000000000000000000000000000000000000000000000000000000000000001",
                    "revert": false,
                    "revertMessage": "",
                    "selector": "0xa9059cbb",
                    "status": true,
                    "value": "0"
                },
                "nodeType": 0
            }
        },
        "gasFlame": [
            {
                "children": [
                    {
                        "children": [
                            {
                                "children": [],
                                "depth": 0,
                                "name": "Initial Gas",
                                "value": 23464
                            },
                            {
                                "children": [
                                    {
                                        "children": [],
                                        "depth": 1,
                                        "name": "transferFrom",
                                        "value": 56023
                                    },
                                    {
                                        "children": [],
                                        "depth": 1,
                                        "name": "balanceOf",
                                        "value": 2665
                                    },
                                    {
                                        "children": [],
                                        "depth": 1,
                                        "name": "getReserves",
                                        "value": 2504
                                    },
                                    {
                                        "children": [],
                                        "depth": 1,
                                        "name": "balanceOf",
                                        "value": 601
                                    },
                                    {
                                        "children": [
                                            {
                                                "children": [],
                                                "depth": 2,
                                                "name": "transfer",
                                                "value": 12862
                                            },
                                            {
                                                "children": [],
                                                "depth": 2,
                                                "name": "balanceOf",
                                                "value": 601
                                            },
                                            {
                                                "children": [],
                                                "depth": 2,
                                                "name": "balanceOf",
                                                "value": 534
                                            }
                                        ],
                                        "depth": 1,
                                        "name": "swap",
                                        "value": 47820
                                    },
                                    {
                                        "children": [],
                                        "depth": 1,
                                        "name": "getReserves",
                                        "value": 2504
                                    },
                                    {
                                        "children": [],
                                        "depth": 1,
                                        "name": "balanceOf",
                                        "value": 534
                                    },
                                    {
                                        "children": [
                                            {
                                                "children": [],
                                                "depth": 2,
                                                "name": "transfer",
                                                "value": 97377
                                            },
                                            {
                                                "children": [],
                                                "depth": 2,
                                                "name": "balanceOf",
                                                "value": 665
                                            },
                                            {
                                                "children": [],
                                                "depth": 2,
                                                "name": "balanceOf",
                                                "value": 534
                                            }
                                        ],
                                        "depth": 1,
                                        "name": "swap",
                                        "value": 129899
                                    },
                                    {
                                        "children": [],
                                        "depth": 1,
                                        "name": "balanceOf",
                                        "value": 665
                                    }
                                ],
                                "depth": 0,
                                "name": "Executed Gas",
                                "value": 265389
                            }
                        ],
                        "depth": -1,
                        "name": "Actual Gas Used",
                        "value": 283253
                    },
                    {
                        "children": [],
                        "depth": -1,
                        "name": "Refunded Gas",
                        "value": 5600
                    }
                ],
                "depth": -2,
                "name": "Total Gas",
                "value": 288853
            }
        ],
        "isConfirmed": true,
        "mainTrace": [
            {
                "children": [
                    {
                        "children": [
                            {
                                "children": [
                                    {
                                        "children": [],
                                        "depth": 2,
                                        "id": 2,
                                        "order": 2
                                    },
                                    {
                                        "children": [],
                                        "depth": 2,
                                        "id": 3,
                                        "order": 3
                                    },
                                    {
                                        "children": [],
                                        "depth": 2,
                                        "id": 4,
                                        "order": 4
                                    }
                                ],
                                "depth": 1,
                                "id": 1,
                                "order": 1
                            },
                            {
                                "children": [],
                                "depth": 1,
                                "id": 5,
                                "order": 5
                            },
                            {
                                "children": [],
                                "depth": 1,
                                "id": 6,
                                "order": 6
                            },
                            {
                                "children": [],
                                "depth": 1,
                                "id": 7,
                                "order": 7
                            },
                            {
                                "children": [
                                    {
                                        "children": [
                                            {
                                                "children": [],
                                                "depth": 3,
                                                "id": 10,
                                                "order": 10
                                            }
                                        ],
                                        "depth": 2,
                                        "id": 9,
                                        "order": 9
                                    },
                                    {
                                        "children": [],
                                        "depth": 2,
                                        "id": 11,
                                        "order": 11
                                    },
                                    {
                                        "children": [],
                                        "depth": 2,
                                        "id": 12,
                                        "order": 12
                                    },
                                    {
                                        "children": [],
                                        "depth": 2,
                                        "id": 13,
                                        "order": 13
                                    },
                                    {
                                        "children": [],
                                        "depth": 2,
                                        "id": 14,
                                        "order": 14
                                    }
                                ],
                                "depth": 1,
                                "id": 8,
                                "order": 8
                            },
                            {
                                "children": [],
                                "depth": 1,
                                "id": 15,
                                "order": 15
                            },
                            {
                                "children": [],
                                "depth": 1,
                                "id": 16,
                                "order": 16
                            },
                            {
                                "children": [
                                    {
                                        "children": [
                                            {
                                                "children": [],
                                                "depth": 3,
                                                "id": 19,
                                                "order": 19
                                            },
                                            {
                                                "children": [],
                                                "depth": 3,
                                                "id": 20,
                                                "order": 20
                                            }
                                        ],
                                        "depth": 2,
                                        "id": 18,
                                        "order": 18
                                    },
                                    {
                                        "children": [],
                                        "depth": 2,
                                        "id": 21,
                                        "order": 21
                                    },
                                    {
                                        "children": [],
                                        "depth": 2,
                                        "id": 22,
                                        "order": 22
                                    },
                                    {
                                        "children": [],
                                        "depth": 2,
                                        "id": 23,
                                        "order": 23
                                    },
                                    {
                                        "children": [],
                                        "depth": 2,
                                        "id": 24,
                                        "order": 24
                                    }
                                ],
                                "depth": 1,
                                "id": 17,
                                "order": 17
                            },
                            {
                                "children": [],
                                "depth": 1,
                                "id": 25,
                                "order": 25
                            }
                        ],
                        "depth": 0,
                        "id": 0,
                        "order": 0
                    }
                ],
                "depth": -1,
                "id": -1,
                "order": -1
            }
        ],
        "mainTraceNodeCount": 26,
        "parentIdMap": {
            "0": -1,
            "1": 0,
            "10": 9,
            "11": 8,
            "12": 8,
            "13": 8,
            "14": 8,
            "15": 0,
            "16": 0,
            "17": 0,
            "18": 17,
            "19": 18,
            "2": 1,
            "20": 18,
            "21": 17,
            "22": 17,
            "23": 17,
            "24": 17,
            "25": 0,
            "3": 1,
            "4": 1,
            "5": 0,
            "6": 0,
            "7": 0,
            "8": 0,
            "9": 8
        },
        "tidyTrace": [
            {
                "children": [
                    {
                        "children": [
                            {
                                "children": [
                                    {
                                        "children": [],
                                        "depth": 2,
                                        "id": 2,
                                        "order": 2
                                    },
                                    {
                                        "children": [],
                                        "depth": 2,
                                        "id": 3,
                                        "order": 3
                                    },
                                    {
                                        "children": [],
                                        "depth": 2,
                                        "id": 4,
                                        "order": 4
                                    }
                                ],
                                "depth": 1,
                                "id": 1,
                                "order": 1
                            },
                            {
                                "children": [
                                    {
                                        "children": [
                                            {
                                                "children": [],
                                                "depth": 3,
                                                "id": 10,
                                                "order": 10
                                            }
                                        ],
                                        "depth": 2,
                                        "id": 9,
                                        "order": 9
                                    },
                                    {
                                        "children": [],
                                        "depth": 2,
                                        "id": 13,
                                        "order": 13
                                    },
                                    {
                                        "children": [],
                                        "depth": 2,
                                        "id": 14,
                                        "order": 14
                                    }
                                ],
                                "depth": 1,
                                "id": 8,
                                "order": 8
                            },
                            {
                                "children": [
                                    {
                                        "children": [
                                            {
                                                "children": [],
                                                "depth": 3,
                                                "id": 19,
                                                "order": 19
                                            },
                                            {
                                                "children": [],
                                                "depth": 3,
                                                "id": 20,
                                                "order": 20
                                            }
                                        ],
                                        "depth": 2,
                                        "id": 18,
                                        "order": 18
                                    },
                                    {
                                        "children": [],
                                        "depth": 2,
                                        "id": 23,
                                        "order": 23
                                    },
                                    {
                                        "children": [],
                                        "depth": 2,
                                        "id": 24,
                                        "order": 24
                                    }
                                ],
                                "depth": 1,
                                "id": 17,
                                "order": 17
                            }
                        ],
                        "depth": 0,
                        "id": 0,
                        "order": 0
                    }
                ],
                "depth": -1,
                "id": -1,
                "order": -1
            }
        ],
        "tidyTraceNodeCount": 16
    },
    "state_change": {
        "stateChanges": [
            {
                "address": "0x561cf9121e89926c27fa1cfc78dfcc4c422937a4",
                "erc": "ERC-20",
                "slots": [
                    {
                        "current": "0xfffffffffffffffffffffffffffffffffffffffffff98c4927195b28e4ffffff",
                        "key": "0xedd857bce7408fe7bd52ae926e495f0e53c463ae1dbd2856049f6601ca9db3b4",
                        "prev": "0xffffffffffffffffffffffffffffffffffffffffffffffffffffffffffffffff"
                    },
                    {
                        "current": "0x0000000000000000000000000000000000000000001f6bf862cb95fb47ecdc06",
                        "key": "0x0000000000000000000000000000000000000000000000000000000000000015",
                        "prev": "0x0000000000000000000000000000000000000000001f5b73ff58a3b1732cdc06"
                    },
                    {
                        "current": "0x00000000000000000000000000000000000000000005d33f99263eff448ae43d",
                        "key": "0xbbde4960b9f7091e3da18cb3a42b85d21ee08aa8be9a7eacc120166a27294271",
                        "prev": "0x0000000000000000000000000000000000000000000c46f6720ce3d65f8ae43d"
                    },
                    {
                        "current": "0x0000000000000000000000000000000000000000001f6bf862cb95fb47ecdc06",
                        "key": "0x88c8b6ed546c3530a5ed36988b7714f773d637e755b81e1bba8d3cd61df2a73d",
                        "prev": "0x0000000000000000000000000000000000000000001f5b73ff58a3b1732cdc06"
                    },
                    {
                        "current": "0x0000000000000000000000000000000000000000107ca7e597c525b0979da1d2",
                        "key": "0x2fb02cb6c8c2acf284b0afdabd1b8f558cd66432f2d6a83394147f3ff3d629b5",
                        "prev": "0x0000000000000000000000000000000000000000107644b322517323515da1d2"
                    }
                ],
                "storageVariables": [
                    {
                        "name": "tokensForMarketing",
                        "type": "uint256",
                        "value": {
                            "current": "37986575533199378887793670",
                            "prev": "37908575533199378887793670",
                            "typeTag": 1
                        }
                    },
                    {
                        "name": "_balances",
                        "type": "mapping(address => uint256)",
                        "value": {
                            "pairs": [
                                {
                                    "key": "0x25ee4c7bd4ae1810953868e55e6a7c8ce52ed61d",
                                    "value": {
                                        "current": "7042221606412487720887357",
                                        "prev": "14842221606412487720887357",
                                        "typeTag": 1
                                    }
                                },
                                {
                                    "key": "0x561cf9121e89926c27fa1cfc78dfcc4c422937a4",
                                    "value": {
                                        "current": "37986575533199378887793670",
                                        "prev": "37908575533199378887793670",
                                        "typeTag": 1
                                    }
                                },
                                {
                                    "key": "0xdf8ef47910ce4a196f83b86b80809f1c5201650a",
                                    "value": {
                                        "current": "5102459829216955938025349586",
                                        "prev": "5094737829216955938025349586",
                                        "typeTag": 1
                                    }
                                }
                            ],
                            "typeTag": 4
                        }
                    },
                    {
                        "name": "_allowances",
                        "type": "mapping(address => mapping(address => uint256))",
                        "value": {
                            "pairs": [
                                {
                                    "key": "0x25ee4c7bd4ae1810953868e55e6a7c8ce52ed61d",
                                    "value": {
                                        "pairs": [
                                            {
                                                "key": "0x2ec705d306b51e486b1bc0d6ebee708e0661add1",
                                                "value": {
                                                    "current": "115792089237316195423570985008687907853269984665640556239457584007913129639935",
                                                    "prev": "115792089237316195423570985008687907853269984665640564039457584007913129639935",
                                                    "typeTag": 1
                                                }
                                            }
                                        ],
                                        "typeTag": 4
                                    }
                                }
                            ],
                            "typeTag": 4
                        }
                    }
                ]
            },
            {
                "address": "0x5851583caf4b9006d7119ef2d1b459861d0390fe",
                "erc": "ERC-20",
                "slots": [
                    {
                        "current": "0x0000000000000000000000000000000000008591f7683e5d0ff44b42af7db1e8",
                        "key": "0x0000000000000000000000000000000000000000000000000000000000000009",
                        "prev": "0x000000000000000000000000000000000000853a77848c891ff379db7dff30a8"
                    },
                    {
                        "current": "0x000000000000000000000000000b00b3507bbfee4dcc02b0301fb91864d9484c",
                        "key": "0x000000000000000000000000000000000000000000000000000000000000000a",
                        "prev": "0x000000000000000000000000000afcff60d6ffcaa0c87888bcab0ed8bb0dcaac"
                    },
                    {
                        "current": "0x655b26930000000000042689d89ac1b236070000000da3e1186897414fd3772c",
                        "key": "0x0000000000000000000000000000000000000000000000000000000000000008",
                        "prev": "0x655b257300000000000425b72931849980d80000000da693f0953069a2c28439"
                    }
                ],
                "storageVariables": [
                    {
                        "name": "price0CumulativeLast",
                        "type": "uint256",
                        "value": {
                            "current": "2709125129670455026252785146245608",
                            "prev": "2702192699669537241017305953939624",
                            "typeTag": 1
                        }
                    },
                    {
                        "name": "price1CumulativeLast",
                        "type": "uint256",
                        "value": {
                            "current": "245369214708300699548861657903570430593681484",
                            "prev": "245046648765901844254581476219572830126066348",
                            "typeTag": 1
                        }
                    },
                    {
                        "name": "reserve0",
                        "type": "uint112",
                        "value": {
                            "current": "16489933667936477346232108",
                            "prev": "16502677498340946573689913",
                            "typeTag": 1
                        }
                    },
                    {
                        "name": "reserve1",
                        "type": "uint112",
                        "value": {
                            "current": "76563965099275073031",
                            "prev": "76504662487634378968",
                            "typeTag": 1
                        }
                    },
                    {
                        "name": "blockTimestampLast",
                        "type": "uint32",
                        "value": {
                            "current": "1700472467",
                            "prev": "1700472179",
                            "typeTag": 1
                        }
                    }
                ]
            },
            {
                "address": "0xb1c41d76937060d0782f106076776761b3bf46d4",
                "erc": "ERC-20",
                "slots": [
                    {
                        "current": "0x0000000000000000000000000000000000000000000da3e1186897414fd3772c",
                        "key": "0x271cbacc207200d2d942dbdb659b8f0ae1923141f8bd3653b39d140d27bc6276",
                        "prev": "0x0000000000000000000000000000000000000000000da693f0953069a2c28439"
                    },
                    {
                        "current": "0x000000000000000000000000000000000000000000000231a064873cf6d68a22",
                        "key": "0x7676c26b8cb1ee196c5288ff4d52b87470768e3e3d39b618b7ba9d7a0a4ee0ad",
                        "prev": "0x00000000000000000000000000000000000000000000022e2c1ca01285c88b59"
                    },
                    {
                        "current": "0x0000000000000000000000000000000000000000000002af63e4b1fde1e10e44",
                        "key": "0xbbde4960b9f7091e3da18cb3a42b85d21ee08aa8be9a7eacc120166a27294271",
                        "prev": "0x0000000000000000000000000000000000000000000000000000000000000000"
                    },
                    {
                        "current": "0x000000000000000000000000000000000000000000000150f9d5eabe2db3ec73",
                        "key": "0x0000000000000000000000000000000000000000000000000000000000000029",
                        "prev": "0x00000000000000000000000000000000000000000000014ee744600b1d11ed2e"
                    },
                    {
                        "current": "0x0000000000000000000000000000000000000000000000e0a68e9c7ec9229da0",
                        "key": "0x000000000000000000000000000000000000000000000000000000000000002a",
                        "prev": "0x0000000000000000000000000000000000000000000000df44d8400768b69e1d"
                    }
                ],
                "storageVariables": [
                    {
                        "name": "_balances",
                        "type": "mapping(address => uint256)",
                        "value": {
                            "pairs": [
                                {
                                    "key": "0x25ee4c7bd4ae1810953868e55e6a7c8ce52ed61d",
                                    "value": {
                                        "current": "12680111252446881320516",
                                        "prev": "0",
                                        "typeTag": 1
                                    }
                                },
                                {
                                    "key": "0x5851583caf4b9006d7119ef2d1b459861d0390fe",
                                    "value": {
                                        "current": "16489933667936477346232108",
                                        "prev": "16502677498340946573689913",
                                        "typeTag": 1
                                    }
                                },
                                {
                                    "key": "0xb1c41d76937060d0782f106076776761b3bf46d4",
                                    "value": {
                                        "current": "10360180936590707034658",
                                        "prev": "10296461784568360897369",
                                        "typeTag": 1
                                    }
                                }
                            ],
                            "typeTag": 4
                        }
                    },
                    {
                        "name": "_tokensForGoldenPiggyBank",
                        "type": "uint256",
                        "value": {
                            "current": "6216108561954424220787",
                            "prev": "6177877070741016538414",
                            "typeTag": 1
                        }
                    },
                    {
                        "name": "_tokensForLiquidity",
                        "type": "uint256",
                        "value": {
                            "current": "4144072374636282813856",
                            "prev": "4118584713827344358941",
                            "typeTag": 1
                        }
                    }
                ]
            },
            {
                "address": "0xc02aaa39b223fe8d0a0e5c4f27ead9083c756cc2",
                "erc": "ERC-20",
                "slots": [
                    {
                        "current": "0x000000000000000000000000000000000000000000000002209ddf7d9e992bee",
                        "key": "0xbae249ccae4fd2be0d78aba2e4732d15b5d4d3188f96120315e55ee4d41da4c0",
                        "prev": "0x00000000000000000000000000000000000000000000000221708ee6dbb1e11d"
                    },
                    {
                        "current": "0x0000000000000000000000000000000000000000000000042689d89ac1b23607",
                        "key": "0x277db41f6bfcd5be5def8a16cdf7f646ce4af886139d830787fc6a6895783d94",
                        "prev": "0x00000000000000000000000000000000000000000000000425b72931849980d8"
                    }
                ],
                "storageVariables": [
                    {
                        "name": "balanceOf",
                        "type": "mapping(address => uint256)",
                        "value": {
                            "pairs": [
                                {
                                    "key": "0x5851583caf4b9006d7119ef2d1b459861d0390fe",
                                    "value": {
                                        "current": "76563965099275073031",
                                        "prev": "76504662487634378968",
                                        "typeTag": 1
                                    }
                                },
                                {
                                    "key": "0xdf8ef47910ce4a196f83b86b80809f1c5201650a",
                                    "value": {
                                        "current": "39243768458601114606",
                                        "prev": "39303071070241808669",
                                        "typeTag": 1
                                    }
                                }
                            ],
                            "typeTag": 4
                        }
                    }
                ]
            },
            {
                "address": "0xdf8ef47910ce4a196f83b86b80809f1c5201650a",
                "erc": "ERC-20",
                "slots": [
                    {
                        "current": "0x0000000000000000000000005e327595976aca1870b337a17d12d8eec7640020",
                        "key": "0x000000000000000000000000000000000000000000000000000000000000000a",
                        "prev": "0x0000000000000000000000005e315f6f5f6c8757106a0e7f89f34c3be5b5b5f8"
                    },
                    {
                        "current": "0x655b2693000000000002209ddf7d9e992bee0000107ca7e597c525b0979da1d2",
                        "key": "0x0000000000000000000000000000000000000000000000000000000000000008",
                        "prev": "0x655b266f00000000000221708ee6dbb1e11d0000107644b322517323515da1d2"
                    },
                    {
                        "current": "0x00000000000000000000000000000000000000944693529e24f33c47b6f39750",
                        "key": "0x0000000000000000000000000000000000000000000000000000000000000009",
                        "prev": "0x000000000000000000000000000000000000009441ea864158dd2aaf48d071d0"
                    }
                ],
                "storageVariables": [
                    {
                        "name": "price1CumulativeLast",
                        "type": "uint256",
                        "value": {
                            "current": "537770412758162043417302829513366255654741999648",
                            "prev": "537746182537515333942967024199479976321254536696",
                            "typeTag": 1
                        }
                    },
                    {
                        "name": "reserve0",
                        "type": "uint112",
                        "value": {
                            "current": "5102459829216955938025349586",
                            "prev": "5094737829216955938025349586",
                            "typeTag": 1
                        }
                    },
                    {
                        "name": "reserve1",
                        "type": "uint112",
                        "value": {
                            "current": "39243768458601114606",
                            "prev": "39303071070241808669",
                            "typeTag": 1
                        }
                    },
                    {
                        "name": "blockTimestampLast",
                        "type": "uint32",
                        "value": {
                            "current": "1700472467",
                            "prev": "1700472431",
                            "typeTag": 1
                        }
                    },
                    {
                        "name": "price0CumulativeLast",
                        "type": "uint256",
                        "value": {
                            "current": "11747610105045399166184353666896",
                            "prev": "11746168100393849607039596130768",
                            "typeTag": 1
                        }
                    }
                ]
            }
        ]
    }
}