{
    "balance_change": {
        "balanceChanges": [
            {
                "account": "0x58edf78281334335effa23101bbe3371b6a36a51",
                "assets": [
                    {
                        "address": "0xd9c2d319cd7e6177336b0a9c93c21cb48d84fb54",
                        "amount": "73.3939",
                        "iconUrl": "",
                        "isERC1155": false,
                        "isERC721": false,
                        "sign": false,
                        "value": "2019.23432"
                    }
                ]
            },
            {
                "account": "0xcb83ca9633ad057bd88a48a5b6e8108d97ad4472",
                "assets": [
                    {
                        "address": "0xd9c2d319cd7e6177336b0a9c93c21cb48d84fb54",
                        "amount": "73.3939",
                        "iconUrl": "",
                        "isERC1155": false,
                        "isERC721": false,
                        "sign": true,
                        "value": "2019.23432"
                    }
                ]
            }
        ]
    },
    "profile": {
        "basic_info": {
            "baseFee": "17.937399075",
            "blockNumber": 18937469,
            "callData": "0xa9059cbb000000000000000000000000cb83ca9633ad057bd88a48a5b6e8108d97ad4472000000000000000000000000000000000000000000000003fa8b8331448ac000",
            "debugEnable": true,
            "errorInfo": "",
            "eventCount": 1,
            "feeRecipient": "0x1f9090aae28b8a3dceadf281b0f12828e676c326",
            "formatValue": "0",
            "gasLimit": 100000,
            "gasPrice": "21.839300829",
            "gasUsed": 53904,
            "intTxnCount": 0,
            "internalRevert": false,
            "internalRevertMessage": "",
            "isContractCreation": false,
            "isFlashloan": false,
            "maxFee": "42",
            "nonce": 119261,
            "overwritedBlockNumber": -1,
            "priorityFee": "3.901901754",
            "receiver": "0xd9c2d319cd7e6177336b0a9c93c21cb48d84fb54",
            "revertMessage": "",
            "sender": "0x58edf78281334335effa23101bbe3371b6a36a51",
            "simulationEnable": true,
            "sourceTxnHash": "0x36a8ec5f36d2db36d1ac53b5d1c132e020cf6c5d206a813805f1fc458220d412",
            "status": true,
            "timestamp": "2024-01-05T00:17:47Z",
            "transactionFee": "0.001177225671886416",
            "txnHash": "0x36a8ec5f36d2db36d1ac53b5d1c132e020cf6c5d206a813805f1fc458220d412",
            "txnIndex": 23,
            "type": 2,
            "value": "0"
        },
        "fund_flow": [
            {
                "amount": "73.3939",
                "from": "0x58edf78281334335effa23101bbe3371b6a36a51",
                "id": 1,
                "isERC1155": false,
                "isERC721": false,
                "isReverted": false,
                "order": 1,
                "to": "0xcb83ca9633ad057bd88a48a5b6e8108d97ad4472",
                "token": "0xd9c2d319cd7e6177336b0a9c93c21cb48d84fb54"
            }
        ],
        "token_infos": [
            {
                "address": "0xc02aaa39b223fe8d0a0e5c4f27ead9083c756cc2",
                "decimals": 18
            },
            {
                "address": "0xd9c2d319cd7e6177336b0a9c93c21cb48d84fb54",
                "decimals": 18
            },
            {
                "address": "0xeeeeeeeeeeeeeeeeeeeeeeeeeeeeeeeeeeeeeeee",
                "decimals": 18
            }
        ]
    },
    "address_label": {
        "labels": [
            {
                "address": "0x0000000000000000000000000000000000000003",
                "label": "Precompiled"
            },
            {
                "address": "0x0000000000000000000000000000000000000004",
                "label": "Precompiled"
            },
            {
                "address": "0xeeeeeeeeeeeeeeeeeeeeeeeeeeeeeeeeeeeeeeee",
                "label": "Ether"
            },
            {
                "address": "0xd9c2d319cd7e6177336b0a9c93c21cb48d84fb54",
                "label": "HAPI: HAPI Token"
            },
            {
                "address": "0x58edf78281334335effa23101bbe3371b6a36a51",
                "label": "KuCoin 20"
            },
            {
                "address": "0xcb83ca9633ad057bd88a48a5b6e8108d97ad4472",
                "label": "MEV Bot: 0xcb8...472"
            },
            {
                "address": "0x0000000000000000000000000000000000000001",
                "label": "Precompiled"
            },
            {
                "address": "0x0000000000000000000000000000000000000002",
                "label": "Precompiled"
            }
        ]
    },
    "trace": {
        "accountLabels": null,
        "dataMap": {
            "-1": {
                "invocation": {
                    "address": "0x58edf78281334335effa23101bbe3371b6a36a51",
                    "callData": "",
                    "decodedMethod": null,
                    "errorInfo": "",
                    "fromAddress": "",
                    "gasUsed": 0,
                    "id": -1,
                    "methodDecoded": false,
                    "operation": "",
                    "output": "",
                    "revert": false,
                    "revertMessage": "",
                    "selector": "",
                    "status": false,
                    "value": ""
                },
                "nodeType": 0
            },
            "0": {
                "invocation": {
                    "address": "0xd9c2d319cd7e6177336b0a9c93c21cb48d84fb54",
                    "callData": "0x000000000000000000000000cb83ca9633ad057bd88a48a5b6e8108d97ad4472000000000000000000000000000000000000000000000003fa8b8331448ac000",
                    "decodedMethod": {
                        "callParams": [
                            {
                                "name": "recipient",
                                "type": "address",
                                "value": "0xcb83ca9633ad057bd88a48a5b6e8108d97ad4472"
                            },
                            {
                                "decimalAvailable": true,
                                "name": "amount",
                                "type": "uint256",
                                "value": "73,393,900,000,000,000,000"
                            }
                        ],
                        "constructorArguments": "",
                        "name": "transfer",
                        "returnParams": [
                            {
                                "name": "",
                                "type": "bool",
                                "value": true
                            }
                        ],
                        "signature": "transfer(address,uint256)"
                    },
                    "errorInfo": "",
                    "fromAddress": "0x58edf78281334335effa23101bbe3371b6a36a51",
                    "gasUsed": 53904,
                    "id": 0,
                    "methodDecoded": true,
                    "operation": "CALL",
                    "output": "0x0000000000000000000000000000000000000000000000000000000000000001",
                    "revert": false,
                    "revertMessage": "",
                    "selector": "0xa9059cbb",
                    "status": true,
                    "value": "0"
                },
                "nodeType": 0
            },
            "1": {
                "event": {
                    "contract": "0xd9c2d319cd7e6177336b0a9c93c21cb48d84fb54",
                    "decodedLog": {
                        "name": "Transfer",
                        "params": [
                            {
                                "name": "from",
                                "type": "address",
                                "value": "0x58edf78281334335effa23101bbe3371b6a36a51"
                            },
                            {
                                "name": "to",
                                "type": "address",
                                "value": "0xcb83ca9633ad057bd88a48a5b6e8108d97ad4472"
                            },
                            {
                                "decimalAvailable": true,
                                "name": "value",
                                "type": "uint256",
                                "value": "73,393,900,000,000,000,000"
                            }
                        ],
                        "signature": "Transfer(address,address,uint256)"
                    },
                    "id": 1,
                    "logData": "0x000000000000000000000000000000000000000000000003fa8b8331448ac000",
                    "logDecoded": true,
                    "operation": "EVENT",
                    "revert": false,
                    "status": true,
                    "topics": [
                        "0xddf252ad1be2c89b69c2b068fc378daa952ba7f163c4a11628f55a4df523b3ef",
                        "0x00000000000000000000000058edf78281334335effa23101bbe3371b6a36a51",
                        "0x000000000000000000000000cb83ca9633ad057bd88a48a5b6e8108d97ad4472"
                    ]
                },
                "nodeType": 1
            }
        },
        "gasFlame": [
            {
                "children": [
                    {
                        "children": [
                            {
                                "children": [],
                                "depth": 0,
                                "name": "Initial Gas",
                                "value": 21656
                            },
                            {
                                "children": [],
                                "depth": 0,
                                "name": "Executed Gas",
                                "value": 32248
                            }
                        ],
                        "depth": -1,
                        "name": "Actual Gas Used",
                        "value": 53904
                    },
                    {
                        "children": [],
                        "depth": -1,
                        "name": "Refunded Gas",
                        "value": 0
                    }
                ],
                "depth": -2,
                "name": "Total Gas",
                "value": 53904
            }
        ],
        "isConfirmed": true,
        "mainTrace": [
            {
                "children": [
                    {
                        "children": [
                            {
                                "children": [],
                                "depth": 1,
                                "id": 1,
                                "order": 1
                            }
                        ],
                        "depth": 0,
                        "id": 0,
                        "order": 0
                    }
                ],
                "depth": -1,
                "id": -1,
                "order": -1
            }
        ],
        "mainTraceNodeCount": 2,
        "parentIdMap": {
            "0": -1,
            "1": 0
        },
        "tidyTrace": [
            {
                "children": [
                    {
                        "children": [
                            {
                                "children": [],
                                "depth": 1,
                                "id": 1,
                                "order": 1
                            }
                        ],
                        "depth": 0,
                        "id": 0,
                        "order": 0
                    }
                ],
                "depth": -1,
                "id": -1,
                "order": -1
            }
        ],
        "tidyTraceNodeCount": 2
    },
    "state_change": {
        "stateChanges": [
            {
                "address": "0xd9c2d319cd7e6177336b0a9c93c21cb48d84fb54",
                "erc": "ERC-20",
                "slots": [
                    {
                        "current": "0x000000000000000000000000000000000000000000000104ae8fbf22865aa19a",
                        "key": "0xdbdf339c63a8101be9bdd736c9d7a0d44513eed03b29c1ae9082135eb4fe3c47",
                        "prev": "0x000000000000000000000000000000000000000000000108a91b4253cae5619a"
                    },
                    {
                        "current": "0x000000000000000000000000000000000000000000000003fa8b8331448ac000",
                        "key": "0xbc17c45a6dfbe7f789b2b704e689d007d8fa3e7320b579e1fbeeb089156145ad",
                        "prev": "0x0000000000000000000000000000000000000000000000000000000000000000"
                    }
                ],
                "storageVariables": [
                    {
                        "name": "_balances",
                        "type": "mapping(address => uint256)",
                        "value": {
                            "pairs": [
                                {
                                    "key": "0x58edf78281334335effa23101bbe3371b6a36a51",
                                    "value": {
                                        "current": "4808731941603756384666",
                                        "prev": "4882125841603756384666",
                                        "typeTag": 1
                                    }
                                },
                                {
                                    "key": "0xcb83ca9633ad057bd88a48a5b6e8108d97ad4472",
                                    "value": {
                                        "current": "73393900000000000000",
                                        "prev": "0",
                                        "typeTag": 1
                                    }
                                }
                            ],
                            "typeTag": 4
                        }
                    }
                ]
            }
        ]
    }
}