{
    "balance_change": {
        "balanceChanges": [
            {
                "account": "0xeccf11f03cefe8a68bb01caf66e76ceefeaaee5e",
                "assets": [
                    {
                        "address": "0xc0f9bd5fa5698b6505f643900ffa515ea5df54a9",
                        "amount": "12,487.5",
                        "iconUrl": "https://assets.blocksec.com/icon/4cd40ad2899b8cf83beaffe2cc062929dd977d2aa678e707bedc92ab80bc0460.png",
                        "isERC1155": false,
                        "isERC721": false,
                        "sign": true,
                        "value": "73.67624999999999828"
                    }
                ]
            },
            {
                "account": "0x88ad09518695c6c3712ac10a214be5109a655671",
                "assets": [
                    {
                        "address": "0xc0f9bd5fa5698b6505f643900ffa515ea5df54a9",
                        "amount": "12,487.5",
                        "iconUrl": "https://assets.blocksec.com/icon/4cd40ad2899b8cf83beaffe2cc062929dd977d2aa678e707bedc92ab80bc0460.png",
                        "isERC1155": false,
                        "isERC721": false,
                        "sign": false,
                        "value": "73.67624999999999828"
                    }
                ]
            }
        ]
    },
    "profile": {
        "basic_info": {
            "baseFee": "7.432165642",
            "blockNumber": 18401938,
            "callData": "0x23caab490000000000000000000000000000000000000000000000000000000000000040000000000000000000000000000000000000000000000000000000000000012000000000000000000000000000000000000000000000000000000000000000b500050000a7823d6f1e31569f51861e345b30c6bebf70ebe700000000000128c9f6a78083ca3e2a662d6dd1703c939c8ace2e268d88ad09518695c6c3712ac10a214be5109a655671000927c00101806401272255bb000000000000000000000000c0f9bd5fa5698b6505f643900ffa515ea5df54a9000000000000000000000000eccf11f03cefe8a68bb01caf66e76ceefeaaee5e0000000000000000000000000000000000000000000002a4f2e01063b26e000000000000000000000000000000000000000000000000000000000000000000000000000000000000000105041b1b1b1c316a5c1166ecc0604b1d5c3794acd75f8123075de1f4b3f9a60284ec2de4cc860abe8086c58701488e6a5fe9691e2bbcfe2ed1fea9ed1dcb8b822f9062c715a6675f9b1ec6b78cdac2c6d760cde8a3cf832282ff50a129c186c7f80a2ad14dfe2e1d8900954fb1aeef0e5a8aa69f50df8f4b713b9ff5da5ee0517d06a321418a75c98df7edce0836794b0f4669535e5b3344d18c5b68d016cb03c8c4c1784ecd00e27959a92e6a34d13ad7a1f905524dff5619d24df40186f42cc3a2ac1d3e0f16898f6fa2c6ae05d245531cb0d2db7b53fc68228ab5a128ca94e5a3732fc82878dae28840accc2341370ec3b242840087ae897605e6ccdc9ee60119507837fd000000000000000000000000000000000000000000000000000000",
            "debugEnable": true,
            "errorInfo": "",
            "eventCount": 3,
            "feeRecipient": "0x388c818ca8b9251b393131c08a736a67ccb19297",
            "formatValue": "0",
            "gasLimit": 314486,
            "gasPrice": "7.532165642",
            "gasUsed": 250447,
            "intTxnCount": 28,
            "internalRevert": false,
            "internalRevertMessage": "",
            "isContractCreation": false,
            "isFlashloan": false,
            "maxFee": "9.919717516",
            "nonce": 3,
            "overwritedBlockNumber": -1,
            "priorityFee": "0.1",
            "receiver": "0x4c36d2919e407f0cc2ee3c993ccf8ac26d9ce64e",
            "revertMessage": "",
            "sender": "0xeccf11f03cefe8a68bb01caf66e76ceefeaaee5e",
            "simulationEnable": true,
            "sourceTxnHash": "0x36f761594836de4245305c1c55e5a669cb6c82c56a0ff8bdfc756045741e8180",
            "status": true,
            "timestamp": "2023-10-21T23:23:23Z",
            "transactionFee": "0.001886408288541974",
            "txnHash": "0x36f761594836de4245305c1c55e5a669cb6c82c56a0ff8bdfc756045741e8180",
            "txnIndex": 50,
            "type": 2,
            "value": "0"
        },
        "fund_flow": [
            {
                "amount": "12,487.5",
                "from": "0x88ad09518695c6c3712ac10a214be5109a655671",
                "id": 1,
                "isERC1155": false,
                "isERC721": false,
                "isReverted": false,
                "order": 1,
                "to": "0xeccf11f03cefe8a68bb01caf66e76ceefeaaee5e",
                "token": "0xc0f9bd5fa5698b6505f643900ffa515ea5df54a9"
            }
        ],
        "token_infos": [
            {
                "address": "0xc02aaa39b223fe8d0a0e5c4f27ead9083c756cc2",
                "decimals": 18
            },
            {
                "address": "0xc0f9bd5fa5698b6505f643900ffa515ea5df54a9",
                "decimals": 18
            },
            {
                "address": "0xeeeeeeeeeeeeeeeeeeeeeeeeeeeeeeeeeeeeeeee",
                "decimals": 18
            }
        ]
    },
    "address_label": {
        "labels": [
            {
                "address": "0x4c36d2919e407f0cc2ee3c993ccf8ac26d9ce64e",
                "label": "POA Network: AMB-ETH-XDAI"
            },
            {
                "address": "0x57ebe61f5f8303ad944136b293c1836b3803b4c0",
                "label": "KernelProxy"
            },
            {
                "address": "0x8eb3b7d8498a6716904577b2579e1c313d48e347",
                "label": "ForeignOmnibridge"
            },
            {
                "address": "0x0000000000000000000000000000000000000003",
                "label": "Precompiled"
            },
            {
                "address": "0x3d361f670c3099627e7e9ae9c3d6644b0ddf8f69",
                "label": "AppProxyUpgradeable"
            },
            {
                "address": "0x4a6ce97a84178a84c1cee46a763db619d0e6e413",
                "label": "Kernel"
            },
            {
                "address": "0x388c818ca8b9251b393131c08a736a67ccb19297",
                "label": "LidoExecutionLayerRewardsVault"
            },
            {
                "address": "0xc0f9bd5fa5698b6505f643900ffa515ea5df54a9",
                "label": "Donut: DONUT Token"
            },
            {
                "address": "0x88ad09518695c6c3712ac10a214be5109a655671",
                "label": "Gnosis Chain: ETH-xDAI Omni Bridge"
            },
            {
                "address": "0xd83893f31aa1b6b9d97c9c70d3492fe38d24d218",
                "label": "BridgeValidators"
            },
            {
                "address": "0x0000000000000000000000000000000000000001",
                "label": "Precompiled"
            },
            {
                "address": "0x0000000000000000000000000000000000000004",
                "label": "Precompiled"
            },
            {
                "address": "0xeeeeeeeeeeeeeeeeeeeeeeeeeeeeeeeeeeeeeeee",
                "label": "Ether"
            },
            {
                "address": "0xde3a93028f2283cc28756b3674bd657eafb992f4",
                "label": "Lido: Aragon Token Manager Impl"
            },
            {
                "address": "0xed84a648b3c51432ad0fd1c2cd2c45677e9d4064",
                "label": "EternalStorageProxy"
            },
            {
                "address": "0x0000000000000000000000000000000000000002",
                "label": "Precompiled"
            },
            {
                "address": "0x82b67a43b69914e611710c62e629dabb2f7ac6ab",
                "label": "ForeignAMB"
            }
        ]
    },
    "trace": {
        "accountLabels": null,
        "dataMap": {
            "-1": {
                "invocation": {
                    "address": "0xeccf11f03cefe8a68bb01caf66e76ceefeaaee5e",
                    "callData": "",
                    "decodedMethod": null,
                    "errorInfo": "",
                    "fromAddress": "",
                    "gasUsed": 0,
                    "id": -1,
                    "methodDecoded": false,
                    "operation": "",
                    "output": "",
                    "revert": false,
                    "revertMessage": "",
                    "selector": "",
                    "status": false,
                    "value": ""
                },
                "nodeType": 0
            },
            "0": {
                "invocation": {
                    "address": "0x4c36d2919e407f0cc2ee3c993ccf8ac26d9ce64e",
                    "callData": "0x0000000000000000000000000000000000000000000000000000000000000040000000000000000000000000000000000000000000000000000000000000012000000000000000000000000000000000000000000000000000000000000000b500050000a7823d6f1e31569f51861e345b30c6bebf70ebe700000000000128c9f6a78083ca3e2a662d6dd1703c939c8ace2e268d88ad09518695c6c3712ac10a214be5109a655671000927c00101806401272255bb000000000000000000000000c0f9bd5fa5698b6505f643900ffa515ea5df54a9000000000000000000000000eccf11f03cefe8a68bb01caf66e76ceefeaaee5e0000000000000000000000000000000000000000000002a4f2e01063b26e000000000000000000000000000000000000000000000000000000000000000000000000000000000000000105041b1b1b1c316a5c1166ecc0604b1d5c3794acd75f8123075de1f4b3f9a60284ec2de4cc860abe8086c58701488e6a5fe9691e2bbcfe2ed1fea9ed1dcb8b822f9062c715a6675f9b1ec6b78cdac2c6d760cde8a3cf832282ff50a129c186c7f80a2ad14dfe2e1d8900954fb1aeef0e5a8aa69f50df8f4b713b9ff5da5ee0517d06a321418a75c98df7edce0836794b0f4669535e5b3344d18c5b68d016cb03c8c4c1784ecd00e27959a92e6a34d13ad7a1f905524dff5619d24df40186f42cc3a2ac1d3e0f16898f6fa2c6ae05d245531cb0d2db7b53fc68228ab5a128ca94e5a3732fc82878dae28840accc2341370ec3b242840087ae897605e6ccdc9ee60119507837fd000000000000000000000000000000000000000000000000000000",
                    "decodedMethod": {
                        "callParams": [
                            {
                                "name": "_data",
                                "type": "bytes",
                                "value": "0x00050000a7823d6f1e31569f51861e345b30c6bebf70ebe700000000000128c9f6a78083ca3e2a662d6dd1703c939c8ace2e268d88ad09518695c6c3712ac10a214be5109a655671000927c00101806401272255bb000000000000000000000000c0f9bd5fa5698b6505f643900ffa515ea5df54a9000000000000000000000000eccf11f03cefe8a68bb01caf66e76ceefeaaee5e0000000000000000000000000000000000000000000002a4f2e01063b26e0000"
                            },
                            {
                                "name": "_signatures",
                                "type": "bytes",
                                "value": "0x041b1b1b1c316a5c1166ecc0604b1d5c3794acd75f8123075de1f4b3f9a60284ec2de4cc860abe8086c58701488e6a5fe9691e2bbcfe2ed1fea9ed1dcb8b822f9062c715a6675f9b1ec6b78cdac2c6d760cde8a3cf832282ff50a129c186c7f80a2ad14dfe2e1d8900954fb1aeef0e5a8aa69f50df8f4b713b9ff5da5ee0517d06a321418a75c98df7edce0836794b0f4669535e5b3344d18c5b68d016cb03c8c4c1784ecd00e27959a92e6a34d13ad7a1f905524dff5619d24df40186f42cc3a2ac1d3e0f16898f6fa2c6ae05d245531cb0d2db7b53fc68228ab5a128ca94e5a3732fc82878dae28840accc2341370ec3b242840087ae897605e6ccdc9ee60119507837fd"
                            }
                        ],
                        "constructorArguments": "",
                        "name": "safeExecuteSignaturesWithAutoGasLimit",
                        "returnParams": [],
                        "signature": "safeExecuteSignaturesWithAutoGasLimit(bytes,bytes)"
                    },
                    "errorInfo": "",
                    "fromAddress": "0xeccf11f03cefe8a68bb01caf66e76ceefeaaee5e",
                    "gasUsed": 250447,
                    "id": 0,
                    "methodDecoded": true,
                    "operation": "CALL",
                    "output": "",
                    "revert": false,
                    "revertMessage": "",
                    "selector": "0x23caab49",
                    "status": true,
                    "value": "0"
                },
                "nodeType": 0
            },
            "1": {
                "invocation": {
                    "address": "0x82b67a43b69914e611710c62e629dabb2f7ac6ab",
                    "callData": "0x0000000000000000000000000000000000000000000000000000000000000040000000000000000000000000000000000000000000000000000000000000012000000000000000000000000000000000000000000000000000000000000000b500050000a7823d6f1e31569f51861e345b30c6bebf70ebe700000000000128c9f6a78083ca3e2a662d6dd1703c939c8ace2e268d88ad09518695c6c3712ac10a214be5109a655671000927c00101806401272255bb000000000000000000000000c0f9bd5fa5698b6505f643900ffa515ea5df54a9000000000000000000000000eccf11f03cefe8a68bb01caf66e76ceefeaaee5e0000000000000000000000000000000000000000000002a4f2e01063b26e000000000000000000000000000000000000000000000000000000000000000000000000000000000000000105041b1b1b1c316a5c1166ecc0604b1d5c3794acd75f8123075de1f4b3f9a60284ec2de4cc860abe8086c58701488e6a5fe9691e2bbcfe2ed1fea9ed1dcb8b822f9062c715a6675f9b1ec6b78cdac2c6d760cde8a3cf832282ff50a129c186c7f80a2ad14dfe2e1d8900954fb1aeef0e5a8aa69f50df8f4b713b9ff5da5ee0517d06a321418a75c98df7edce0836794b0f4669535e5b3344d18c5b68d016cb03c8c4c1784ecd00e27959a92e6a34d13ad7a1f905524dff5619d24df40186f42cc3a2ac1d3e0f16898f6fa2c6ae05d245531cb0d2db7b53fc68228ab5a128ca94e5a3732fc82878dae28840accc2341370ec3b242840087ae897605e6ccdc9ee60119507837fd000000000000000000000000000000000000000000000000000000",
                    "decodedMethod": {
                        "callParams": [
                            {
                                "name": "_data",
                                "type": "bytes",
                                "value": "0x00050000a7823d6f1e31569f51861e345b30c6bebf70ebe700000000000128c9f6a78083ca3e2a662d6dd1703c939c8ace2e268d88ad09518695c6c3712ac10a214be5109a655671000927c00101806401272255bb000000000000000000000000c0f9bd5fa5698b6505f643900ffa515ea5df54a9000000000000000000000000eccf11f03cefe8a68bb01caf66e76ceefeaaee5e0000000000000000000000000000000000000000000002a4f2e01063b26e0000"
                            },
                            {
                                "name": "_signatures",
                                "type": "bytes",
                                "value": "0x041b1b1b1c316a5c1166ecc0604b1d5c3794acd75f8123075de1f4b3f9a60284ec2de4cc860abe8086c58701488e6a5fe9691e2bbcfe2ed1fea9ed1dcb8b822f9062c715a6675f9b1ec6b78cdac2c6d760cde8a3cf832282ff50a129c186c7f80a2ad14dfe2e1d8900954fb1aeef0e5a8aa69f50df8f4b713b9ff5da5ee0517d06a321418a75c98df7edce0836794b0f4669535e5b3344d18c5b68d016cb03c8c4c1784ecd00e27959a92e6a34d13ad7a1f905524dff5619d24df40186f42cc3a2ac1d3e0f16898f6fa2c6ae05d245531cb0d2db7b53fc68228ab5a128ca94e5a3732fc82878dae28840accc2341370ec3b242840087ae897605e6ccdc9ee60119507837fd"
                            }
                        ],
                        "constructorArguments": "",
                        "name": "safeExecuteSignaturesWithAutoGasLimit",
                        "returnParams": [],
                        "signature": "safeExecuteSignaturesWithAutoGasLimit(bytes,bytes)"
                    },
                    "errorInfo": "",
                    "fromAddress": "0x4c36d2919e407f0cc2ee3c993ccf8ac26d9ce64e",
                    "gasUsed": 276683,
                    "id": 1,
                    "methodDecoded": true,
                    "operation": "DELEGATECALL",
                    "output": "",
                    "revert": false,
                    "revertMessage": "",
                    "selector": "0x23caab49",
                    "status": true,
                    "value": "0"
                },
                "nodeType": 0
            },
            "10": {
                "invocation": {
                    "address": "0x0000000000000000000000000000000000000001",
                    "callData": "0x6a7d049f2fd23a6c9bbe088b468bdec71fafba76ff3c82cf90199da7000000000000000000000000000000000000000000000000000000000000001b675f9b1ec6b78cdac2c6d760cde8a3cf832282ff50a129c186c7f80a2ad14dfe16898f6fa2c6ae05d245531cb0d2db7b53fc68228ab5a128ca94e5a3732fc828",
                    "decodedMethod": {
                        "callParams": [
                            {
                                "name": "hash",
                                "type": "bytes32",
                                "value": "0xbcda2fb26a7d049f2fd23a6c9bbe088b468bdec71fafba76ff3c82cf90199da7"
                            },
                            {
                                "name": "v",
                                "type": "uint256",
                                "value": "27"
                            },
                            {
                                "name": "r",
                                "type": "bytes32",
                                "value": "0x675f9b1ec6b78cdac2c6d760cde8a3cf832282ff50a129c186c7f80a2ad14dfe"
                            },
                            {
                                "name": "s",
                                "type": "bytes32",
                                "value": "0x16898f6fa2c6ae05d245531cb0d2db7b53fc68228ab5a128ca94e5a3732fc828"
                            }
                        ],
                        "constructorArguments": "",
                        "name": "ecrecover",
                        "returnParams": [
                            {
                                "name": "",
                                "type": "address",
                                "value": "0x674c97db4ce6cac04a124d745979f3e4cba0e9f0"
                            }
                        ],
                        "signature": "ecrecover(bytes32,uint256,bytes32,bytes32)"
                    },
                    "errorInfo": "",
                    "fromAddress": "0x4c36d2919e407f0cc2ee3c993ccf8ac26d9ce64e",
                    "gasUsed": 3000,
                    "id": 10,
                    "methodDecoded": true,
                    "operation": "CALL",
                    "output": "0x000000000000000000000000674c97db4ce6cac04a124d745979f3e4cba0e9f0",
                    "revert": false,
                    "revertMessage": "",
                    "selector": "0xbcda2fb2",
                    "status": true,
                    "value": "0"
                },
                "nodeType": 0
            },
            "11": {
                "invocation": {
                    "address": "0xed84a648b3c51432ad0fd1c2cd2c45677e9d4064",
                    "callData": "0x000000000000000000000000674c97db4ce6cac04a124d745979f3e4cba0e9f0",
                    "decodedMethod": {
                        "callParams": [
                            {
                                "name": "_validator",
                                "type": "address",
                                "value": "0x674c97db4ce6cac04a124d745979f3e4cba0e9f0"
                            }
                        ],
                        "constructorArguments": "",
                        "name": "isValidator",
                        "returnParams": [
                            {
                                "name": "",
                                "type": "bool",
                                "value": true
                            }
                        ],
                        "signature": "isValidator(address)"
                    },
                    "errorInfo": "",
                    "fromAddress": "0x4c36d2919e407f0cc2ee3c993ccf8ac26d9ce64e",
                    "gasUsed": 4427,
                    "id": 11,
                    "methodDecoded": true,
                    "operation": "CALL",
                    "output": "0x0000000000000000000000000000000000000000000000000000000000000001",
                    "revert": false,
                    "revertMessage": "",
                    "selector": "0xfacd743b",
                    "status": true,
                    "value": "0"
                },
                "nodeType": 0
            },
            "12": {
                "invocation": {
                    "address": "0xd83893f31aa1b6b9d97c9c70d3492fe38d24d218",
                    "callData": "0x000000000000000000000000674c97db4ce6cac04a124d745979f3e4cba0e9f0",
                    "decodedMethod": {
                        "callParams": [
                            {
                                "name": "_validator",
                                "type": "address",
                                "value": "0x674c97db4ce6cac04a124d745979f3e4cba0e9f0"
                            }
                        ],
                        "constructorArguments": "",
                        "name": "isValidator",
                        "returnParams": [
                            {
                                "name": "",
                                "type": "bool",
                                "value": true
                            }
                        ],
                        "signature": "isValidator(address)"
                    },
                    "errorInfo": "",
                    "fromAddress": "0xed84a648b3c51432ad0fd1c2cd2c45677e9d4064",
                    "gasUsed": 3721,
                    "id": 12,
                    "methodDecoded": true,
                    "operation": "DELEGATECALL",
                    "output": "0x0000000000000000000000000000000000000000000000000000000000000001",
                    "revert": false,
                    "revertMessage": "",
                    "selector": "0xfacd743b",
                    "status": true,
                    "value": "0"
                },
                "nodeType": 0
            },
            "13": {
                "invocation": {
                    "address": "0x0000000000000000000000000000000000000001",
                    "callData": "0x6a7d049f2fd23a6c9bbe088b468bdec71fafba76ff3c82cf90199da7000000000000000000000000000000000000000000000000000000000000001c2e1d8900954fb1aeef0e5a8aa69f50df8f4b713b9ff5da5ee0517d06a321418a78dae28840accc2341370ec3b242840087ae897605e6ccdc9ee60119507837fd",
                    "decodedMethod": {
                        "callParams": [
                            {
                                "name": "hash",
                                "type": "bytes32",
                                "value": "0xbcda2fb26a7d049f2fd23a6c9bbe088b468bdec71fafba76ff3c82cf90199da7"
                            },
                            {
                                "name": "v",
                                "type": "uint256",
                                "value": "28"
                            },
                            {
                                "name": "r",
                                "type": "bytes32",
                                "value": "0x2e1d8900954fb1aeef0e5a8aa69f50df8f4b713b9ff5da5ee0517d06a321418a"
                            },
                            {
                                "name": "s",
                                "type": "bytes32",
                                "value": "0x78dae28840accc2341370ec3b242840087ae897605e6ccdc9ee60119507837fd"
                            }
                        ],
                        "constructorArguments": "",
                        "name": "ecrecover",
                        "returnParams": [
                            {
                                "name": "",
                                "type": "address",
                                "value": "0x105cd22ed3d089bf5589c59b452f9de0796ca52d"
                            }
                        ],
                        "signature": "ecrecover(bytes32,uint256,bytes32,bytes32)"
                    },
                    "errorInfo": "",
                    "fromAddress": "0x4c36d2919e407f0cc2ee3c993ccf8ac26d9ce64e",
                    "gasUsed": 3000,
                    "id": 13,
                    "methodDecoded": true,
                    "operation": "CALL",
                    "output": "0x000000000000000000000000105cd22ed3d089bf5589c59b452f9de0796ca52d",
                    "revert": false,
                    "revertMessage": "",
                    "selector": "0xbcda2fb2",
                    "status": true,
                    "value": "0"
                },
                "nodeType": 0
            },
            "14": {
                "invocation": {
                    "address": "0xed84a648b3c51432ad0fd1c2cd2c45677e9d4064",
                    "callData": "0x000000000000000000000000105cd22ed3d089bf5589c59b452f9de0796ca52d",
                    "decodedMethod": {
                        "callParams": [
                            {
                                "name": "_validator",
                                "type": "address",
                                "value": "0x105cd22ed3d089bf5589c59b452f9de0796ca52d"
                            }
                        ],
                        "constructorArguments": "",
                        "name": "isValidator",
                        "returnParams": [
                            {
                                "name": "",
                                "type": "bool",
                                "value": true
                            }
                        ],
                        "signature": "isValidator(address)"
                    },
                    "errorInfo": "",
                    "fromAddress": "0x4c36d2919e407f0cc2ee3c993ccf8ac26d9ce64e",
                    "gasUsed": 4427,
                    "id": 14,
                    "methodDecoded": true,
                    "operation": "CALL",
                    "output": "0x0000000000000000000000000000000000000000000000000000000000000001",
                    "revert": false,
                    "revertMessage": "",
                    "selector": "0xfacd743b",
                    "status": true,
                    "value": "0"
                },
                "nodeType": 0
            },
            "15": {
                "invocation": {
                    "address": "0xd83893f31aa1b6b9d97c9c70d3492fe38d24d218",
                    "callData": "0x000000000000000000000000105cd22ed3d089bf5589c59b452f9de0796ca52d",
                    "decodedMethod": {
                        "callParams": [
                            {
                                "name": "_validator",
                                "type": "address",
                                "value": "0x105cd22ed3d089bf5589c59b452f9de0796ca52d"
                            }
                        ],
                        "constructorArguments": "",
                        "name": "isValidator",
                        "returnParams": [
                            {
                                "name": "",
                                "type": "bool",
                                "value": true
                            }
                        ],
                        "signature": "isValidator(address)"
                    },
                    "errorInfo": "",
                    "fromAddress": "0xed84a648b3c51432ad0fd1c2cd2c45677e9d4064",
                    "gasUsed": 3721,
                    "id": 15,
                    "methodDecoded": true,
                    "operation": "DELEGATECALL",
                    "output": "0x0000000000000000000000000000000000000000000000000000000000000001",
                    "revert": false,
                    "revertMessage": "",
                    "selector": "0xfacd743b",
                    "status": true,
                    "value": "0"
                },
                "nodeType": 0
            },
            "16": {
                "invocation": {
                    "address": "0x88ad09518695c6c3712ac10a214be5109a655671",
                    "callData": "0x000000000000000000000000c0f9bd5fa5698b6505f643900ffa515ea5df54a9000000000000000000000000eccf11f03cefe8a68bb01caf66e76ceefeaaee5e0000000000000000000000000000000000000000000002a4f2e01063b26e000000000000000000000000000000000000000000000000000000000000",
                    "decodedMethod": {
                        "callParams": [
                            {
                                "name": "_token",
                                "type": "address",
                                "value": "0xc0f9bd5fa5698b6505f643900ffa515ea5df54a9"
                            },
                            {
                                "name": "_recipient",
                                "type": "address",
                                "value": "0xeccf11f03cefe8a68bb01caf66e76ceefeaaee5e"
                            },
                            {
                                "name": "_value",
                                "type": "uint256",
                                "value": "12,487,500,000,000,000,000,000"
                            }
                        ],
                        "constructorArguments": "",
                        "name": "handleNativeTokens",
                        "returnParams": [],
                        "signature": "handleNativeTokens(address,address,uint256)"
                    },
                    "errorInfo": "",
                    "fromAddress": "0x4c36d2919e407f0cc2ee3c993ccf8ac26d9ce64e",
                    "gasUsed": 96608,
                    "id": 16,
                    "methodDecoded": true,
                    "operation": "CALL",
                    "output": "",
                    "revert": false,
                    "revertMessage": "",
                    "selector": "0x272255bb",
                    "status": true,
                    "value": "0"
                },
                "nodeType": 0
            },
            "17": {
                "invocation": {
                    "address": "0x8eb3b7d8498a6716904577b2579e1c313d48e347",
                    "callData": "0x000000000000000000000000c0f9bd5fa5698b6505f643900ffa515ea5df54a9000000000000000000000000eccf11f03cefe8a68bb01caf66e76ceefeaaee5e0000000000000000000000000000000000000000000002a4f2e01063b26e000000000000000000000000000000000000000000000000000000000000",
                    "decodedMethod": {
                        "callParams": [
                            {
                                "name": "_token",
                                "type": "address",
                                "value": "0xc0f9bd5fa5698b6505f643900ffa515ea5df54a9"
                            },
                            {
                                "name": "_recipient",
                                "type": "address",
                                "value": "0xeccf11f03cefe8a68bb01caf66e76ceefeaaee5e"
                            },
                            {
                                "name": "_value",
                                "type": "uint256",
                                "value": "12,487,500,000,000,000,000,000"
                            }
                        ],
                        "constructorArguments": "",
                        "name": "handleNativeTokens",
                        "returnParams": [],
                        "signature": "handleNativeTokens(address,address,uint256)"
                    },
                    "errorInfo": "",
                    "fromAddress": "0x88ad09518695c6c3712ac10a214be5109a655671",
                    "gasUsed": 91393,
                    "id": 17,
                    "methodDecoded": true,
                    "operation": "DELEGATECALL",
                    "output": "",
                    "revert": false,
                    "revertMessage": "",
                    "selector": "0x272255bb",
                    "status": true,
                    "value": "0"
                },
                "nodeType": 0
            },
            "18": {
                "invocation": {
                    "address": "0x4c36d2919e407f0cc2ee3c993ccf8ac26d9ce64e",
                    "callData": "0x",
                    "decodedMethod": {
                        "callParams": [],
                        "constructorArguments": "",
                        "name": "messageSender",
                        "returnParams": [
                            {
                                "name": "sender",
                                "type": "address",
                                "value": "0xf6a78083ca3e2a662d6dd1703c939c8ace2e268d"
                            }
                        ],
                        "signature": "messageSender()"
                    },
                    "errorInfo": "",
                    "fromAddress": "0x88ad09518695c6c3712ac10a214be5109a655671",
                    "gasUsed": 1719,
                    "id": 18,
                    "methodDecoded": true,
                    "operation": "STATICCALL",
                    "output": "0x000000000000000000000000f6a78083ca3e2a662d6dd1703c939c8ace2e268d",
                    "revert": false,
                    "revertMessage": "",
                    "selector": "0xd67bdd25",
                    "status": true,
                    "value": "0"
                },
                "nodeType": 0
            },
            "19": {
                "invocation": {
                    "address": "0x82b67a43b69914e611710c62e629dabb2f7ac6ab",
                    "callData": "0x",
                    "decodedMethod": {
                        "callParams": [],
                        "constructorArguments": "",
                        "name": "messageSender",
                        "returnParams": [
                            {
                                "name": "sender",
                                "type": "address",
                                "value": "0xf6a78083ca3e2a662d6dd1703c939c8ace2e268d"
                            }
                        ],
                        "signature": "messageSender()"
                    },
                    "errorInfo": "",
                    "fromAddress": "0x4c36d2919e407f0cc2ee3c993ccf8ac26d9ce64e",
                    "gasUsed": 1019,
                    "id": 19,
                    "methodDecoded": true,
                    "operation": "DELEGATECALL",
                    "output": "0x000000000000000000000000f6a78083ca3e2a662d6dd1703c939c8ace2e268d",
                    "revert": false,
                    "revertMessage": "",
                    "selector": "0xd67bdd25",
                    "status": true,
                    "value": "0"
                },
                "nodeType": 0
            },
            "2": {
                "invocation": {
                    "address": "0xed84a648b3c51432ad0fd1c2cd2c45677e9d4064",
                    "callData": "0x",
                    "decodedMethod": {
                        "callParams": [],
                        "constructorArguments": "",
                        "name": "requiredSignatures",
                        "returnParams": [
                            {
                                "name": "",
                                "type": "uint256",
                                "value": "4"
                            }
                        ],
                        "signature": "requiredSignatures()"
                    },
                    "errorInfo": "",
                    "fromAddress": "0x4c36d2919e407f0cc2ee3c993ccf8ac26d9ce64e",
                    "gasUsed": 7681,
                    "id": 2,
                    "methodDecoded": true,
                    "operation": "CALL",
                    "output": "0x0000000000000000000000000000000000000000000000000000000000000004",
                    "revert": false,
                    "revertMessage": "",
                    "selector": "0x8d068043",
                    "status": true,
                    "value": "0"
                },
                "nodeType": 0
            },
            "20": {
                "invocation": {
                    "address": "0xc0f9bd5fa5698b6505f643900ffa515ea5df54a9",
                    "callData": "0x000000000000000000000000eccf11f03cefe8a68bb01caf66e76ceefeaaee5e0000000000000000000000000000000000000000000002a4f2e01063b26e0000",
                    "decodedMethod": {
                        "callParams": [
                            {
                                "name": "to",
                                "type": "address",
                                "value": "0xeccf11f03cefe8a68bb01caf66e76ceefeaaee5e"
                            },
                            {
                                "decimalAvailable": true,
                                "name": "value",
                                "type": "uint256",
                                "value": "12,487,500,000,000,000,000,000"
                            }
                        ],
                        "constructorArguments": "",
                        "name": "transfer",
                        "returnParams": [
                            {
                                "name": "",
                                "type": "bool",
                                "value": true
                            }
                        ],
                        "signature": "transfer(address,uint256)"
                    },
                    "errorInfo": "",
                    "fromAddress": "0x88ad09518695c6c3712ac10a214be5109a655671",
                    "gasUsed": 49707,
                    "id": 20,
                    "methodDecoded": true,
                    "operation": "CALL",
                    "output": "0x0000000000000000000000000000000000000000000000000000000000000001",
                    "revert": false,
                    "revertMessage": "",
                    "selector": "0xa9059cbb",
                    "status": true,
                    "value": "0"
                },
                "nodeType": 0
            },
            "21": {
                "invocation": {
                    "address": "0x3d361f670c3099627e7e9ae9c3d6644b0ddf8f69",
                    "callData": "0x00000000000000000000000088ad09518695c6c3712ac10a214be5109a655671000000000000000000000000eccf11f03cefe8a68bb01caf66e76ceefeaaee5e0000000000000000000000000000000000000000000002a4f2e01063b26e0000",
                    "decodedMethod": {
                        "callParams": [
                            {
                                "name": "_from",
                                "type": "address",
                                "value": "0x88ad09518695c6c3712ac10a214be5109a655671"
                            },
                            {
                                "name": "_to",
                                "type": "address",
                                "value": "0xeccf11f03cefe8a68bb01caf66e76ceefeaaee5e"
                            },
                            {
                                "name": "_amount",
                                "type": "uint256",
                                "value": "12,487,500,000,000,000,000,000"
                            }
                        ],
                        "constructorArguments": "",
                        "name": "onTransfer",
                        "returnParams": [
                            {
                                "name": "",
                                "type": "bool",
                                "value": true
                            }
                        ],
                        "signature": "onTransfer(address,address,uint256)"
                    },
                    "errorInfo": "",
                    "fromAddress": "0xc0f9bd5fa5698b6505f643900ffa515ea5df54a9",
                    "gasUsed": 32485,
                    "id": 21,
                    "methodDecoded": true,
                    "operation": "CALL",
                    "output": "0x0000000000000000000000000000000000000000000000000000000000000001",
                    "revert": false,
                    "revertMessage": "",
                    "selector": "0x4a393149",
                    "status": true,
                    "value": "0"
                },
                "nodeType": 0
            },
            "22": {
                "invocation": {
                    "address": "0x57ebe61f5f8303ad944136b293c1836b3803b4c0",
                    "callData": "0xf1f3eb40f5bc1ad1344716ced8b8a0431d840b5783aea1fd01786bc26f35ac0f6b20a3010614eeebf2138ccec99f028a61c811b3b1a3343b6ff635985c75c91f",
                    "decodedMethod": {
                        "callParams": [
                            {
                                "name": "_namespace",
                                "type": "bytes32",
                                "value": "0xf1f3eb40f5bc1ad1344716ced8b8a0431d840b5783aea1fd01786bc26f35ac0f"
                            },
                            {
                                "name": "_appId",
                                "type": "bytes32",
                                "value": "0x6b20a3010614eeebf2138ccec99f028a61c811b3b1a3343b6ff635985c75c91f"
                            }
                        ],
                        "constructorArguments": "",
                        "name": "getApp",
                        "returnParams": [
                            {
                                "name": "",
                                "type": "address",
                                "value": "0xde3a93028f2283cc28756b3674bd657eafb992f4"
                            }
                        ],
                        "signature": "getApp(bytes32,bytes32)"
                    },
                    "errorInfo": "",
                    "fromAddress": "0x3d361f670c3099627e7e9ae9c3d6644b0ddf8f69",
                    "gasUsed": 8257,
                    "id": 22,
                    "methodDecoded": true,
                    "operation": "CALL",
                    "output": "0x000000000000000000000000de3a93028f2283cc28756b3674bd657eafb992f4",
                    "revert": false,
                    "revertMessage": "",
                    "selector": "0xbe00bbd8",
                    "status": true,
                    "value": "0"
                },
                "nodeType": 0
            },
            "23": {
                "invocation": {
                    "address": "0x4a6ce97a84178a84c1cee46a763db619d0e6e413",
                    "callData": "0xf1f3eb40f5bc1ad1344716ced8b8a0431d840b5783aea1fd01786bc26f35ac0f6b20a3010614eeebf2138ccec99f028a61c811b3b1a3343b6ff635985c75c91f",
                    "decodedMethod": {
                        "callParams": [
                            {
                                "name": "_namespace",
                                "type": "bytes32",
                                "value": "0xf1f3eb40f5bc1ad1344716ced8b8a0431d840b5783aea1fd01786bc26f35ac0f"
                            },
                            {
                                "name": "_appId",
                                "type": "bytes32",
                                "value": "0x6b20a3010614eeebf2138ccec99f028a61c811b3b1a3343b6ff635985c75c91f"
                            }
                        ],
                        "constructorArguments": "",
                        "name": "getApp",
                        "returnParams": [
                            {
                                "name": "",
                                "type": "address",
                                "value": "0xde3a93028f2283cc28756b3674bd657eafb992f4"
                            }
                        ],
                        "signature": "getApp(bytes32,bytes32)"
                    },
                    "errorInfo": "",
                    "fromAddress": "0x57ebe61f5f8303ad944136b293c1836b3803b4c0",
                    "gasUsed": 2820,
                    "id": 23,
                    "methodDecoded": true,
                    "operation": "DELEGATECALL",
                    "output": "0x000000000000000000000000de3a93028f2283cc28756b3674bd657eafb992f4",
                    "revert": false,
                    "revertMessage": "",
                    "selector": "0xbe00bbd8",
                    "status": true,
                    "value": "0"
                },
                "nodeType": 0
            },
            "24": {
                "invocation": {
                    "address": "0xde3a93028f2283cc28756b3674bd657eafb992f4",
                    "callData": "0x00000000000000000000000088ad09518695c6c3712ac10a214be5109a655671000000000000000000000000eccf11f03cefe8a68bb01caf66e76ceefeaaee5e0000000000000000000000000000000000000000000002a4f2e01063b26e0000",
                    "decodedMethod": {
                        "callParams": [
                            {
                                "name": "_from",
                                "type": "address",
                                "value": "0x88ad09518695c6c3712ac10a214be5109a655671"
                            },
                            {
                                "name": "_to",
                                "type": "address",
                                "value": "0xeccf11f03cefe8a68bb01caf66e76ceefeaaee5e"
                            },
                            {
                                "name": "_amount",
                                "type": "uint256",
                                "value": "12,487,500,000,000,000,000,000"
                            }
                        ],
                        "constructorArguments": "",
                        "name": "onTransfer",
                        "returnParams": [
                            {
                                "name": "",
                                "type": "bool",
                                "value": true
                            }
                        ],
                        "signature": "onTransfer(address,address,uint256)"
                    },
                    "errorInfo": "",
                    "fromAddress": "0x3d361f670c3099627e7e9ae9c3d6644b0ddf8f69",
                    "gasUsed": 13616,
                    "id": 24,
                    "methodDecoded": true,
                    "operation": "DELEGATECALL",
                    "output": "0x0000000000000000000000000000000000000000000000000000000000000001",
                    "revert": false,
                    "revertMessage": "",
                    "selector": "0x4a393149",
                    "status": true,
                    "value": "0"
                },
                "nodeType": 0
            },
            "25": {
                "invocation": {
                    "address": "0xc0f9bd5fa5698b6505f643900ffa515ea5df54a9",
                    "callData": "0x000000000000000000000000eccf11f03cefe8a68bb01caf66e76ceefeaaee5e",
                    "decodedMethod": {
                        "callParams": [
                            {
                                "name": "owner",
                                "type": "address",
                                "value": "0xeccf11f03cefe8a68bb01caf66e76ceefeaaee5e"
                            }
                        ],
                        "constructorArguments": "",
                        "name": "balanceOf",
                        "returnParams": [
                            {
                                "decimalAvailable": true,
                                "name": "",
                                "type": "uint256",
                                "value": "18,402,335,235,125,757,479,523"
                            }
                        ],
                        "signature": "balanceOf(address)"
                    },
                    "errorInfo": "",
                    "fromAddress": "0x3d361f670c3099627e7e9ae9c3d6644b0ddf8f69",
                    "gasUsed": 2613,
                    "id": 25,
                    "methodDecoded": true,
                    "operation": "CALL",
                    "output": "0x0000000000000000000000000000000000000000000003e597b41c989d4a0a63",
                    "revert": false,
                    "revertMessage": "",
                    "selector": "0x70a08231",
                    "status": true,
                    "value": "0"
                },
                "nodeType": 0
            },
            "26": {
                "invocation": {
                    "address": "0xc0f9bd5fa5698b6505f643900ffa515ea5df54a9",
                    "callData": "0x00000000000000000000000088ad09518695c6c3712ac10a214be5109a655671",
                    "decodedMethod": {
                        "callParams": [
                            {
                                "name": "owner",
                                "type": "address",
                                "value": "0x88ad09518695c6c3712ac10a214be5109a655671"
                            }
                        ],
                        "constructorArguments": "",
                        "name": "balanceOf",
                        "returnParams": [
                            {
                                "decimalAvailable": true,
                                "name": "",
                                "type": "uint256",
                                "value": "36,881,827,612,028,781,324,804,786"
                            }
                        ],
                        "signature": "balanceOf(address)"
                    },
                    "errorInfo": "",
                    "fromAddress": "0x3d361f670c3099627e7e9ae9c3d6644b0ddf8f69",
                    "gasUsed": 2613,
                    "id": 26,
                    "methodDecoded": true,
                    "operation": "CALL",
                    "output": "0x0000000000000000000000000000000000000000001e8207e1906aaa9fda22b2",
                    "revert": false,
                    "revertMessage": "",
                    "selector": "0x70a08231",
                    "status": true,
                    "value": "0"
                },
                "nodeType": 0
            },
            "27": {
                "event": {
                    "contract": "0xc0f9bd5fa5698b6505f643900ffa515ea5df54a9",
                    "decodedLog": {
                        "name": "Transfer",
                        "params": [
                            {
                                "name": "_from",
                                "type": "address",
                                "value": "0x88ad09518695c6c3712ac10a214be5109a655671"
                            },
                            {
                                "name": "_to",
                                "type": "address",
                                "value": "0xeccf11f03cefe8a68bb01caf66e76ceefeaaee5e"
                            },
                            {
                                "decimalAvailable": true,
                                "name": "_amount",
                                "type": "uint256",
                                "value": "12,487,500,000,000,000,000,000"
                            }
                        ],
                        "signature": "Transfer(address,address,uint256)"
                    },
                    "id": 27,
                    "logData": "0x0000000000000000000000000000000000000000000002a4f2e01063b26e0000",
                    "logDecoded": true,
                    "operation": "EVENT",
                    "revert": false,
                    "status": true,
                    "topics": [
                        "0xddf252ad1be2c89b69c2b068fc378daa952ba7f163c4a11628f55a4df523b3ef",
                        "0x00000000000000000000000088ad09518695c6c3712ac10a214be5109a655671",
                        "0x000000000000000000000000eccf11f03cefe8a68bb01caf66e76ceefeaaee5e"
                    ]
                },
                "nodeType": 1
            },
            "28": {
                "invocation": {
                    "address": "0x4c36d2919e407f0cc2ee3c993ccf8ac26d9ce64e",
                    "callData": "0x",
                    "decodedMethod": {
                        "callParams": [],
                        "constructorArguments": "",
                        "name": "messageId",
                        "returnParams": [
                            {
                                "name": "id",
                                "type": "bytes32",
                                "value": "0x00050000a7823d6f1e31569f51861e345b30c6bebf70ebe700000000000128c9"
                            }
                        ],
                        "signature": "messageId()"
                    },
                    "errorInfo": "",
                    "fromAddress": "0x88ad09518695c6c3712ac10a214be5109a655671",
                    "gasUsed": 1333,
                    "id": 28,
                    "methodDecoded": true,
                    "operation": "STATICCALL",
                    "output": "0x00050000a7823d6f1e31569f51861e345b30c6bebf70ebe700000000000128c9",
                    "revert": false,
                    "revertMessage": "",
                    "selector": "0x669f618b",
                    "status": true,
                    "value": "0"
                },
                "nodeType": 0
            },
            "29": {
                "invocation": {
                    "address": "0x82b67a43b69914e611710c62e629dabb2f7ac6ab",
                    "callData": "0x",
                    "decodedMethod": {
                        "callParams": [],
                        "constructorArguments": "",
                        "name": "messageId",
                        "returnParams": [
                            {
                                "name": "id",
                                "type": "bytes32",
                                "value": "0x00050000a7823d6f1e31569f51861e345b30c6bebf70ebe700000000000128c9"
                            }
                        ],
                        "signature": "messageId()"
                    },
                    "errorInfo": "",
                    "fromAddress": "0x4c36d2919e407f0cc2ee3c993ccf8ac26d9ce64e",
                    "gasUsed": 633,
                    "id": 29,
                    "methodDecoded": true,
                    "operation": "DELEGATECALL",
                    "output": "0x00050000a7823d6f1e31569f51861e345b30c6bebf70ebe700000000000128c9",
                    "revert": false,
                    "revertMessage": "",
                    "selector": "0x669f618b",
                    "status": true,
                    "value": "0"
                },
                "nodeType": 0
            },
            "3": {
                "invocation": {
                    "address": "0xd83893f31aa1b6b9d97c9c70d3492fe38d24d218",
                    "callData": "0x",
                    "decodedMethod": {
                        "callParams": [],
                        "constructorArguments": "",
                        "name": "requiredSignatures",
                        "returnParams": [
                            {
                                "name": "",
                                "type": "uint256",
                                "value": "4"
                            }
                        ],
                        "signature": "requiredSignatures()"
                    },
                    "errorInfo": "",
                    "fromAddress": "0xed84a648b3c51432ad0fd1c2cd2c45677e9d4064",
                    "gasUsed": 2481,
                    "id": 3,
                    "methodDecoded": true,
                    "operation": "DELEGATECALL",
                    "output": "0x0000000000000000000000000000000000000000000000000000000000000004",
                    "revert": false,
                    "revertMessage": "",
                    "selector": "0x8d068043",
                    "status": true,
                    "value": "0"
                },
                "nodeType": 0
            },
            "30": {
                "event": {
                    "contract": "0x88ad09518695c6c3712ac10a214be5109a655671",
                    "decodedLog": {
                        "name": "TokensBridged",
                        "params": [
                            {
                                "name": "token",
                                "type": "address",
                                "value": "0xc0f9bd5fa5698b6505f643900ffa515ea5df54a9"
                            },
                            {
                                "name": "recipient",
                                "type": "address",
                                "value": "0xeccf11f03cefe8a68bb01caf66e76ceefeaaee5e"
                            },
                            {
                                "name": "messageId",
                                "type": "bytes32",
                                "value": "0x00050000a7823d6f1e31569f51861e345b30c6bebf70ebe700000000000128c9"
                            },
                            {
                                "name": "value",
                                "type": "uint256",
                                "value": "12,487,500,000,000,000,000,000"
                            }
                        ],
                        "signature": "TokensBridged(address,address,uint256,bytes32)"
                    },
                    "id": 30,
                    "logData": "0x0000000000000000000000000000000000000000000002a4f2e01063b26e0000",
                    "logDecoded": true,
                    "operation": "EVENT",
                    "revert": false,
                    "status": true,
                    "topics": [
                        "0x9afd47907e25028cdaca89d193518c302bbb128617d5a992c5abd45815526593",
                        "0x000000000000000000000000c0f9bd5fa5698b6505f643900ffa515ea5df54a9",
                        "0x000000000000000000000000eccf11f03cefe8a68bb01caf66e76ceefeaaee5e",
                        "0x00050000a7823d6f1e31569f51861e345b30c6bebf70ebe700000000000128c9"
                    ]
                },
                "nodeType": 1
            },
            "31": {
                "event": {
                    "contract": "0x4c36d2919e407f0cc2ee3c993ccf8ac26d9ce64e",
                    "decodedLog": {
                        "name": "RelayedMessage",
                        "params": [
                            {
                                "name": "sender",
                                "type": "address",
                                "value": "0xf6a78083ca3e2a662d6dd1703c939c8ace2e268d"
                            },
                            {
                                "name": "executor",
                                "type": "address",
                                "value": "0x88ad09518695c6c3712ac10a214be5109a655671"
                            },
                            {
                                "name": "messageId",
                                "type": "bytes32",
                                "value": "0x00050000a7823d6f1e31569f51861e345b30c6bebf70ebe700000000000128c9"
                            },
                            {
                                "name": "status",
                                "type": "bool",
                                "value": true
                            }
                        ],
                        "signature": "RelayedMessage(address,address,bytes32,bool)"
                    },
                    "id": 31,
                    "logData": "0x0000000000000000000000000000000000000000000000000000000000000001",
                    "logDecoded": true,
                    "operation": "EVENT",
                    "revert": false,
                    "status": true,
                    "topics": [
                        "0x27333edb8bdcd40a0ae944fb121b5e2d62ea782683946654a0f5e607a908d578",
                        "0x000000000000000000000000f6a78083ca3e2a662d6dd1703c939c8ace2e268d",
                        "0x00000000000000000000000088ad09518695c6c3712ac10a214be5109a655671",
                        "0x00050000a7823d6f1e31569f51861e345b30c6bebf70ebe700000000000128c9"
                    ]
                },
                "nodeType": 1
            },
            "4": {
                "invocation": {
                    "address": "0x0000000000000000000000000000000000000001",
                    "callData": "0x6a7d049f2fd23a6c9bbe088b468bdec71fafba76ff3c82cf90199da7000000000000000000000000000000000000000000000000000000000000001b316a5c1166ecc0604b1d5c3794acd75f8123075de1f4b3f9a60284ec2de4cc8675c98df7edce0836794b0f4669535e5b3344d18c5b68d016cb03c8c4c1784ecd",
                    "decodedMethod": {
                        "callParams": [
                            {
                                "name": "hash",
                                "type": "bytes32",
                                "value": "0xbcda2fb26a7d049f2fd23a6c9bbe088b468bdec71fafba76ff3c82cf90199da7"
                            },
                            {
                                "name": "v",
                                "type": "uint256",
                                "value": "27"
                            },
                            {
                                "name": "r",
                                "type": "bytes32",
                                "value": "0x316a5c1166ecc0604b1d5c3794acd75f8123075de1f4b3f9a60284ec2de4cc86"
                            },
                            {
                                "name": "s",
                                "type": "bytes32",
                                "value": "0x75c98df7edce0836794b0f4669535e5b3344d18c5b68d016cb03c8c4c1784ecd"
                            }
                        ],
                        "constructorArguments": "",
                        "name": "ecrecover",
                        "returnParams": [
                            {
                                "name": "",
                                "type": "address",
                                "value": "0x3e0a20099626f3d4d4ea7b0ce0330e88d1fe65d6"
                            }
                        ],
                        "signature": "ecrecover(bytes32,uint256,bytes32,bytes32)"
                    },
                    "errorInfo": "",
                    "fromAddress": "0x4c36d2919e407f0cc2ee3c993ccf8ac26d9ce64e",
                    "gasUsed": 3000,
                    "id": 4,
                    "methodDecoded": true,
                    "operation": "CALL",
                    "output": "0x0000000000000000000000003e0a20099626f3d4d4ea7b0ce0330e88d1fe65d6",
                    "revert": false,
                    "revertMessage": "",
                    "selector": "0xbcda2fb2",
                    "status": true,
                    "value": "0"
                },
                "nodeType": 0
            },
            "5": {
                "invocation": {
                    "address": "0xed84a648b3c51432ad0fd1c2cd2c45677e9d4064",
                    "callData": "0x0000000000000000000000003e0a20099626f3d4d4ea7b0ce0330e88d1fe65d6",
                    "decodedMethod": {
                        "callParams": [
                            {
                                "name": "_validator",
                                "type": "address",
                                "value": "0x3e0a20099626f3d4d4ea7b0ce0330e88d1fe65d6"
                            }
                        ],
                        "constructorArguments": "",
                        "name": "isValidator",
                        "returnParams": [
                            {
                                "name": "",
                                "type": "bool",
                                "value": true
                            }
                        ],
                        "signature": "isValidator(address)"
                    },
                    "errorInfo": "",
                    "fromAddress": "0x4c36d2919e407f0cc2ee3c993ccf8ac26d9ce64e",
                    "gasUsed": 4427,
                    "id": 5,
                    "methodDecoded": true,
                    "operation": "CALL",
                    "output": "0x0000000000000000000000000000000000000000000000000000000000000001",
                    "revert": false,
                    "revertMessage": "",
                    "selector": "0xfacd743b",
                    "status": true,
                    "value": "0"
                },
                "nodeType": 0
            },
            "6": {
                "invocation": {
                    "address": "0xd83893f31aa1b6b9d97c9c70d3492fe38d24d218",
                    "callData": "0x0000000000000000000000003e0a20099626f3d4d4ea7b0ce0330e88d1fe65d6",
                    "decodedMethod": {
                        "callParams": [
                            {
                                "name": "_validator",
                                "type": "address",
                                "value": "0x3e0a20099626f3d4d4ea7b0ce0330e88d1fe65d6"
                            }
                        ],
                        "constructorArguments": "",
                        "name": "isValidator",
                        "returnParams": [
                            {
                                "name": "",
                                "type": "bool",
                                "value": true
                            }
                        ],
                        "signature": "isValidator(address)"
                    },
                    "errorInfo": "",
                    "fromAddress": "0xed84a648b3c51432ad0fd1c2cd2c45677e9d4064",
                    "gasUsed": 3721,
                    "id": 6,
                    "methodDecoded": true,
                    "operation": "DELEGATECALL",
                    "output": "0x0000000000000000000000000000000000000000000000000000000000000001",
                    "revert": false,
                    "revertMessage": "",
                    "selector": "0xfacd743b",
                    "status": true,
                    "value": "0"
                },
                "nodeType": 0
            },
            "7": {
                "invocation": {
                    "address": "0x0000000000000000000000000000000000000001",
                    "callData": "0x6a7d049f2fd23a6c9bbe088b468bdec71fafba76ff3c82cf90199da7000000000000000000000000000000000000000000000000000000000000001b0abe8086c58701488e6a5fe9691e2bbcfe2ed1fea9ed1dcb8b822f9062c715a600e27959a92e6a34d13ad7a1f905524dff5619d24df40186f42cc3a2ac1d3e0f",
                    "decodedMethod": {
                        "callParams": [
                            {
                                "name": "hash",
                                "type": "bytes32",
                                "value": "0xbcda2fb26a7d049f2fd23a6c9bbe088b468bdec71fafba76ff3c82cf90199da7"
                            },
                            {
                                "name": "v",
                                "type": "uint256",
                                "value": "27"
                            },
                            {
                                "name": "r",
                                "type": "bytes32",
                                "value": "0x0abe8086c58701488e6a5fe9691e2bbcfe2ed1fea9ed1dcb8b822f9062c715a6"
                            },
                            {
                                "name": "s",
                                "type": "bytes32",
                                "value": "0x00e27959a92e6a34d13ad7a1f905524dff5619d24df40186f42cc3a2ac1d3e0f"
                            }
                        ],
                        "constructorArguments": "",
                        "name": "ecrecover",
                        "returnParams": [
                            {
                                "name": "",
                                "type": "address",
                                "value": "0xfa98b60e02a61b6590f073cad56e68326652d094"
                            }
                        ],
                        "signature": "ecrecover(bytes32,uint256,bytes32,bytes32)"
                    },
                    "errorInfo": "",
                    "fromAddress": "0x4c36d2919e407f0cc2ee3c993ccf8ac26d9ce64e",
                    "gasUsed": 3000,
                    "id": 7,
                    "methodDecoded": true,
                    "operation": "CALL",
                    "output": "0x000000000000000000000000fa98b60e02a61b6590f073cad56e68326652d094",
                    "revert": false,
                    "revertMessage": "",
                    "selector": "0xbcda2fb2",
                    "status": true,
                    "value": "0"
                },
                "nodeType": 0
            },
            "8": {
                "invocation": {
                    "address": "0xed84a648b3c51432ad0fd1c2cd2c45677e9d4064",
                    "callData": "0x000000000000000000000000fa98b60e02a61b6590f073cad56e68326652d094",
                    "decodedMethod": {
                        "callParams": [
                            {
                                "name": "_validator",
                                "type": "address",
                                "value": "0xfa98b60e02a61b6590f073cad56e68326652d094"
                            }
                        ],
                        "constructorArguments": "",
                        "name": "isValidator",
                        "returnParams": [
                            {
                                "name": "",
                                "type": "bool",
                                "value": true
                            }
                        ],
                        "signature": "isValidator(address)"
                    },
                    "errorInfo": "",
                    "fromAddress": "0x4c36d2919e407f0cc2ee3c993ccf8ac26d9ce64e",
                    "gasUsed": 4427,
                    "id": 8,
                    "methodDecoded": true,
                    "operation": "CALL",
                    "output": "0x0000000000000000000000000000000000000000000000000000000000000001",
                    "revert": false,
                    "revertMessage": "",
                    "selector": "0xfacd743b",
                    "status": true,
                    "value": "0"
                },
                "nodeType": 0
            },
            "9": {
                "invocation": {
                    "address": "0xd83893f31aa1b6b9d97c9c70d3492fe38d24d218",
                    "callData": "0x000000000000000000000000fa98b60e02a61b6590f073cad56e68326652d094",
                    "decodedMethod": {
                        "callParams": [
                            {
                                "name": "_validator",
                                "type": "address",
                                "value": "0xfa98b60e02a61b6590f073cad56e68326652d094"
                            }
                        ],
                        "constructorArguments": "",
                        "name": "isValidator",
                        "returnParams": [
                            {
                                "name": "",
                                "type": "bool",
                                "value": true
                            }
                        ],
                        "signature": "isValidator(address)"
                    },
                    "errorInfo": "",
                    "fromAddress": "0xed84a648b3c51432ad0fd1c2cd2c45677e9d4064",
                    "gasUsed": 3721,
                    "id": 9,
                    "methodDecoded": true,
                    "operation": "DELEGATECALL",
                    "output": "0x0000000000000000000000000000000000000000000000000000000000000001",
                    "revert": false,
                    "revertMessage": "",
                    "selector": "0xfacd743b",
                    "status": true,
                    "value": "0"
                },
                "nodeType": 0
            }
        },
        "gasFlame": [
            {
                "children": [
                    {
                        "children": [
                            {
                                "children": [],
                                "depth": 0,
                                "name": "Initial Gas",
                                "value": 28152
                            },
                            {
                                "children": [
                                    {
                                        "children": [
                                            {
                                                "children": [
                                                    {
                                                        "children": [],
                                                        "depth": 3,
                                                        "name": "requiredSignatures",
                                                        "value": 2481
                                                    }
                                                ],
                                                "depth": 2,
                                                "name": "requiredSignatures",
                                                "value": 7681
                                            },
                                            {
                                                "children": [],
                                                "depth": 2,
                                                "name": "ecrecover",
                                                "value": 3000
                                            },
                                            {
                                                "children": [
                                                    {
                                                        "children": [],
                                                        "depth": 3,
                                                        "name": "isValidator",
                                                        "value": 3721
                                                    }
                                                ],
                                                "depth": 2,
                                                "name": "isValidator",
                                                "value": 4427
                                            },
                                            {
                                                "children": [],
                                                "depth": 2,
                                                "name": "ecrecover",
                                                "value": 3000
                                            },
                                            {
                                                "children": [
                                                    {
                                                        "children": [],
                                                        "depth": 3,
                                                        "name": "isValidator",
                                                        "value": 3721
                                                    }
                                                ],
                                                "depth": 2,
                                                "name": "isValidator",
                                                "value": 4427
                                            },
                                            {
                                                "children": [],
                                                "depth": 2,
                                                "name": "ecrecover",
                                                "value": 3000
                                            },
                                            {
                                                "children": [
                                                    {
                                                        "children": [],
                                                        "depth": 3,
                                                        "name": "isValidator",
                                                        "value": 3721
                                                    }
                                                ],
                                                "depth": 2,
                                                "name": "isValidator",
                                                "value": 4427
                                            },
                                            {
                                                "children": [],
                                                "depth": 2,
                                                "name": "ecrecover",
                                                "value": 3000
                                            },
                                            {
                                                "children": [
                                                    {
                                                        "children": [],
                                                        "depth": 3,
                                                        "name": "isValidator",
                                                        "value": 3721
                                                    }
                                                ],
                                                "depth": 2,
                                                "name": "isValidator",
                                                "value": 4427
                                            },
                                            {
                                                "children": [
                                                    {
                                                        "children": [
                                                            {
                                                                "children": [
                                                                    {
                                                                        "children": [],
                                                                        "depth": 5,
                                                                        "name": "messageSender",
                                                                        "value": 1019
                                                                    }
                                                                ],
                                                                "depth": 4,
                                                                "name": "messageSender",
                                                                "value": 1719
                                                            },
                                                            {
                                                                "children": [
                                                                    {
                                                                        "children": [
                                                                            {
                                                                                "children": [
                                                                                    {
                                                                                        "children": [],
                                                                                        "depth": 7,
                                                                                        "name": "getApp",
                                                                                        "value": 2820
                                                                                    }
                                                                                ],
                                                                                "depth": 6,
                                                                                "name": "getApp",
                                                                                "value": 8257
                                                                            },
                                                                            {
                                                                                "children": [
                                                                                    {
                                                                                        "children": [],
                                                                                        "depth": 7,
                                                                                        "name": "balanceOf",
                                                                                        "value": 2613
                                                                                    },
                                                                                    {
                                                                                        "children": [],
                                                                                        "depth": 7,
                                                                                        "name": "balanceOf",
                                                                                        "value": 2613
                                                                                    }
                                                                                ],
                                                                                "depth": 6,
                                                                                "name": "onTransfer",
                                                                                "value": 13616
                                                                            }
                                                                        ],
                                                                        "depth": 5,
                                                                        "name": "onTransfer",
                                                                        "value": 32485
                                                                    }
                                                                ],
                                                                "depth": 4,
                                                                "name": "transfer",
                                                                "value": 49707
                                                            },
                                                            {
                                                                "children": [
                                                                    {
                                                                        "children": [],
                                                                        "depth": 5,
                                                                        "name": "messageId",
                                                                        "value": 633
                                                                    }
                                                                ],
                                                                "depth": 4,
                                                                "name": "messageId",
                                                                "value": 1333
                                                            }
                                                        ],
                                                        "depth": 3,
                                                        "name": "handleNativeTokens",
                                                        "value": 91393
                                                    }
                                                ],
                                                "depth": 2,
                                                "name": "handleNativeTokens",
                                                "value": 96608
                                            }
                                        ],
                                        "depth": 1,
                                        "name": "safeExecuteSignaturesWithAutoGasLimit",
                                        "value": 276683
                                    }
                                ],
                                "depth": 0,
                                "name": "Executed Gas",
                                "value": 281995
                            }
                        ],
                        "depth": -1,
                        "name": "Actual Gas Used",
                        "value": 250447
                    },
                    {
                        "children": [],
                        "depth": -1,
                        "name": "Refunded Gas",
                        "value": 59700
                    }
                ],
                "depth": -2,
                "name": "Total Gas",
                "value": 310147
            }
        ],
        "isConfirmed": true,
        "mainTrace": [
            {
                "children": [
                    {
                        "children": [
                            {
                                "children": [
                                    {
                                        "children": [
                                            {
                                                "children": [],
                                                "depth": 3,
                                                "id": 3,
                                                "order": 3
                                            }
                                        ],
                                        "depth": 2,
                                        "id": 2,
                                        "order": 2
                                    },
                                    {
                                        "children": [],
                                        "depth": 2,
                                        "id": 4,
                                        "order": 4
                                    },
                                    {
                                        "children": [
                                            {
                                                "children": [],
                                                "depth": 3,
                                                "id": 6,
                                                "order": 6
                                            }
                                        ],
                                        "depth": 2,
                                        "id": 5,
                                        "order": 5
                                    },
                                    {
                                        "children": [],
                                        "depth": 2,
                                        "id": 7,
                                        "order": 7
                                    },
                                    {
                                        "children": [
                                            {
                                                "children": [],
                                                "depth": 3,
                                                "id": 9,
                                                "order": 9
                                            }
                                        ],
                                        "depth": 2,
                                        "id": 8,
                                        "order": 8
                                    },
                                    {
                                        "children": [],
                                        "depth": 2,
                                        "id": 10,
                                        "order": 10
                                    },
                                    {
                                        "children": [
                                            {
                                                "children": [],
                                                "depth": 3,
                                                "id": 12,
                                                "order": 12
                                            }
                                        ],
                                        "depth": 2,
                                        "id": 11,
                                        "order": 11
                                    },
                                    {
                                        "children": [],
                                        "depth": 2,
                                        "id": 13,
                                        "order": 13
                                    },
                                    {
                                        "children": [
                                            {
                                                "children": [],
                                                "depth": 3,
                                                "id": 15,
                                                "order": 15
                                            }
                                        ],
                                        "depth": 2,
                                        "id": 14,
                                        "order": 14
                                    },
                                    {
                                        "children": [
                                            {
                                                "children": [
                                                    {
                                                        "children": [
                                                            {
                                                                "children": [],
                                                                "depth": 5,
                                                                "id": 19,
                                                                "order": 19
                                                            }
                                                        ],
                                                        "depth": 4,
                                                        "id": 18,
                                                        "order": 18
                                                    },
                                                    {
                                                        "children": [
                                                            {
                                                                "children": [
                                                                    {
                                                                        "children": [
                                                                            {
                                                                                "children": [],
                                                                                "depth": 7,
                                                                                "id": 23,
                                                                                "order": 23
                                                                            }
                                                                        ],
                                                                        "depth": 6,
                                                                        "id": 22,
                                                                        "order": 22
                                                                    },
                                                                    {
                                                                        "children": [
                                                                            {
                                                                                "children": [],
                                                                                "depth": 7,
                                                                                "id": 25,
                                                                                "order": 25
                                                                            },
                                                                            {
                                                                                "children": [],
                                                                                "depth": 7,
                                                                                "id": 26,
                                                                                "order": 26
                                                                            }
                                                                        ],
                                                                        "depth": 6,
                                                                        "id": 24,
                                                                        "order": 24
                                                                    }
                                                                ],
                                                                "depth": 5,
                                                                "id": 21,
                                                                "order": 21
                                                            },
                                                            {
                                                                "children": [],
                                                                "depth": 5,
                                                                "id": 27,
                                                                "order": 27
                                                            }
                                                        ],
                                                        "depth": 4,
                                                        "id": 20,
                                                        "order": 20
                                                    },
                                                    {
                                                        "children": [
                                                            {
                                                                "children": [],
                                                                "depth": 5,
                                                                "id": 29,
                                                                "order": 29
                                                            }
                                                        ],
                                                        "depth": 4,
                                                        "id": 28,
                                                        "order": 28
                                                    },
                                                    {
                                                        "children": [],
                                                        "depth": 4,
                                                        "id": 30,
                                                        "order": 30
                                                    }
                                                ],
                                                "depth": 3,
                                                "id": 17,
                                                "order": 17
                                            }
                                        ],
                                        "depth": 2,
                                        "id": 16,
                                        "order": 16
                                    },
                                    {
                                        "children": [],
                                        "depth": 2,
                                        "id": 31,
                                        "order": 31
                                    }
                                ],
                                "depth": 1,
                                "id": 1,
                                "order": 1
                            }
                        ],
                        "depth": 0,
                        "id": 0,
                        "order": 0
                    }
                ],
                "depth": -1,
                "id": -1,
                "order": -1
            }
        ],
        "mainTraceNodeCount": 32,
        "parentIdMap": {
            "0": -1,
            "1": 0,
            "10": 1,
            "11": 1,
            "12": 11,
            "13": 1,
            "14": 1,
            "15": 14,
            "16": 1,
            "17": 16,
            "18": 17,
            "19": 18,
            "2": 1,
            "20": 17,
            "21": 20,
            "22": 21,
            "23": 22,
            "24": 21,
            "25": 24,
            "26": 24,
            "27": 20,
            "28": 17,
            "29": 28,
            "3": 2,
            "30": 17,
            "31": 1,
            "4": 1,
            "5": 1,
            "6": 5,
            "7": 1,
            "8": 1,
            "9": 8
        },
        "tidyTrace": [
            {
                "children": [
                    {
                        "children": [
                            {
                                "children": [
                                    {
                                        "children": [
                                            {
                                                "children": [],
                                                "depth": 3,
                                                "id": 3,
                                                "order": 3
                                            }
                                        ],
                                        "depth": 2,
                                        "id": 2,
                                        "order": 2
                                    },
                                    {
                                        "children": [],
                                        "depth": 2,
                                        "id": 4,
                                        "order": 4
                                    },
                                    {
                                        "children": [
                                            {
                                                "children": [],
                                                "depth": 3,
                                                "id": 6,
                                                "order": 6
                                            }
                                        ],
                                        "depth": 2,
                                        "id": 5,
                                        "order": 5
                                    },
                                    {
                                        "children": [],
                                        "depth": 2,
                                        "id": 7,
                                        "order": 7
                                    },
                                    {
                                        "children": [
                                            {
                                                "children": [],
                                                "depth": 3,
                                                "id": 9,
                                                "order": 9
                                            }
                                        ],
                                        "depth": 2,
                                        "id": 8,
                                        "order": 8
                                    },
                                    {
                                        "children": [],
                                        "depth": 2,
                                        "id": 10,
                                        "order": 10
                                    },
                                    {
                                        "children": [
                                            {
                                                "children": [],
                                                "depth": 3,
                                                "id": 12,
                                                "order": 12
                                            }
                                        ],
                                        "depth": 2,
                                        "id": 11,
                                        "order": 11
                                    },
                                    {
                                        "children": [],
                                        "depth": 2,
                                        "id": 13,
                                        "order": 13
                                    },
                                    {
                                        "children": [
                                            {
                                                "children": [],
                                                "depth": 3,
                                                "id": 15,
                                                "order": 15
                                            }
                                        ],
                                        "depth": 2,
                                        "id": 14,
                                        "order": 14
                                    },
                                    {
                                        "children": [
                                            {
                                                "children": [
                                                    {
                                                        "children": [
                                                            {
                                                                "children": [
                                                                    {
                                                                        "children": [
                                                                            {
                                                                                "children": [],
                                                                                "depth": 7,
                                                                                "id": 23,
                                                                                "order": 23
                                                                            }
                                                                        ],
                                                                        "depth": 6,
                                                                        "id": 22,
                                                                        "order": 22
                                                                    },
                                                                    {
                                                                        "children": [
                                                                            {
                                                                                "children": [],
                                                                                "depth": 7,
                                                                                "id": 25,
                                                                                "order": 25
                                                                            },
                                                                            {
                                                                                "children": [],
                                                                                "depth": 7,
                                                                                "id": 26,
                                                                                "order": 26
                                                                            }
                                                                        ],
                                                                        "depth": 6,
                                                                        "id": 24,
                                                                        "order": 24
                                                                    }
                                                                ],
                                                                "depth": 5,
                                                                "id": 21,
                                                                "order": 21
                                                            },
                                                            {
                                                                "children": [],
                                                                "depth": 5,
                                                                "id": 27,
                                                                "order": 27
                                                            }
                                                        ],
                                                        "depth": 4,
                                                        "id": 20,
                                                        "order": 20
                                                    },
                                                    {
                                                        "children": [],
                                                        "depth": 4,
                                                        "id": 30,
                                                        "order": 30
                                                    }
                                                ],
                                                "depth": 3,
                                                "id": 17,
                                                "order": 17
                                            }
                                        ],
                                        "depth": 2,
                                        "id": 16,
                                        "order": 16
                                    },
                                    {
                                        "children": [],
                                        "depth": 2,
                                        "id": 31,
                                        "order": 31
                                    }
                                ],
                                "depth": 1,
                                "id": 1,
                                "order": 1
                            }
                        ],
                        "depth": 0,
                        "id": 0,
                        "order": 0
                    }
                ],
                "depth": -1,
                "id": -1,
                "order": -1
            }
        ],
        "tidyTraceNodeCount": 28
    },
    "state_change": {
        "stateChanges": [
            {
                "address": "0x4c36d2919e407f0cc2ee3c993ccf8ac26d9ce64e",
                "erc": "",
                "slots": [
                    {
                        "current": "0x0000000000000000000000000000000000000000000000000000000000000001",
                        "key": "0xffe592efe7b8410976d3fe2a37aefc075796e2928e934980591f702d3787c5a5",
                        "prev": "0x0000000000000000000000000000000000000000000000000000000000000000"
                    },
                    {
                        "current": "0x0000000000000000000000000000000000000000000000000000000000000001",
                        "key": "0x579b817fbc33c74bfd68661c587526af17883cd643243510b854c3a3df10e979",
                        "prev": "0x0000000000000000000000000000000000000000000000000000000000000000"
                    }
                ],
                "storageVariables": [
                    {
                        "name": "boolStorage",
                        "type": "mapping(bytes32 => bool)",
                        "value": {
                            "pairs": [
                                {
                                    "key": "0x8345fd119410f38b1d78e656ca51c4735e702e510ae2418b392eb076a56f82b6",
                                    "value": {
                                        "current": "true",
                                        "prev": "false",
                                        "typeTag": 1
                                    }
                                },
                                {
                                    "key": "0xa86cc8df92500cbc5752c4463a52d9d718637e894e67b6ba9dc0c0e3c65d2778",
                                    "value": {
                                        "current": "true",
                                        "prev": "false",
                                        "typeTag": 1
                                    }
                                }
                            ],
                            "typeTag": 4
                        }
                    }
                ]
            },
            {
                "address": "0x88ad09518695c6c3712ac10a214be5109a655671",
                "erc": "",
                "slots": [
                    {
                        "current": "0x000000000000000000000000000000000000000000001282a42072b9e1020000",
                        "key": "0x662c95d625e90fb0d5357f8c3f72e170ff4bb7bd0c92895e486497ac72497817",
                        "prev": "0x000000000000000000000000000000000000000000000fddb14062562e940000"
                    },
                    {
                        "current": "0x0000000000000000000000000000000000000000001e7f62eeb05a46ed6c22b2",
                        "key": "0xedb812acf28425f5959029eeeda91fa5ebe5c78fed6271537578ad8307c97e64",
                        "prev": "0x0000000000000000000000000000000000000000001e8207e1906aaa9fda22b2"
                    }
                ],
                "storageVariables": [
                    {
                        "name": "uintStorage",
                        "type": "mapping(bytes32 => uint256)",
                        "value": {
                            "pairs": [
                                {
                                    "key": "0x319b94a2ec051047e0cb49f8b599551adc6cc99232afba322ee900fbdb7c1ab6",
                                    "value": {
                                        "current": "87412500000000000000000",
                                        "prev": "74925000000000000000000",
                                        "typeTag": 1
                                    }
                                },
                                {
                                    "key": "0xe22ce80f57c1b64d7d4688e2cc317ef8d9badaf203684f57a5f20e811ed4544d",
                                    "value": {
                                        "current": "36869340112028781324804786",
                                        "prev": "36881827612028781324804786",
                                        "typeTag": 1
                                    }
                                }
                            ],
                            "typeTag": 4
                        }
                    }
                ]
            },
            {
                "address": "0xc0f9bd5fa5698b6505f643900ffa515ea5df54a9",
                "erc": "ERC-20",
                "slots": [
                    {
                        "current": "0x0000000000000000000000000000000000000000001e7f62eeb05a46ed6c22b2",
                        "key": "0x98efb24cf7454219fb423591adfd804a7cdfd277e2644d26d0bf93a9abf9af7c",
                        "prev": "0x0000000000000000000000000000000000000000001e8207e1906aaa9fda22b2"
                    },
                    {
                        "current": "0x00000000000000000000000000000000000000000000068a8a942cfc4fb80a63",
                        "key": "0x0043bbd10c1f52c98a2860a2ab9b9d46550c0b2f1d11dc0b0f1df83945caec40",
                        "prev": "0x0000000000000000000000000000000000000000000003e597b41c989d4a0a63"
                    }
                ],
                "storageVariables": [
                    {
                        "name": "_balances",
                        "type": "mapping(address => uint256)",
                        "value": {
                            "pairs": [
                                {
                                    "key": "0x88ad09518695c6c3712ac10a214be5109a655671",
                                    "value": {
                                        "current": "36869340112028781324804786",
                                        "prev": "36881827612028781324804786",
                                        "typeTag": 1
                                    }
                                },
                                {
                                    "key": "0xeccf11f03cefe8a68bb01caf66e76ceefeaaee5e",
                                    "value": {
                                        "current": "30889835235125757479523",
                                        "prev": "18402335235125757479523",
                                        "typeTag": 1
                                    }
                                }
                            ],
                            "typeTag": 4
                        }
                    }
                ]
            }
        ]
    }
}