{
    "balance_change": {
        "balanceChanges": [
            {
                "account": "0xdfd5293d8e347dfe59e90efd55b2956a1343963d",
                "assets": [
                    {
                        "address": "0x4f9254c83eb525f9fcf346490bbb3ed28a81c667",
                        "amount": "222,646.8",
                        "iconUrl": "https://assets.blocksec.com/icon/018b30f879e92885e9567d5a8aea18610eabedf21d7618dae8dcc4579be2efbf.png",
                        "isERC1155": false,
                        "isERC721": false,
                        "sign": false,
                        "value": "5343.523200000000111"
                    }
                ]
            },
            {
                "account": "0x4b8792fa08342690851ae97c45b8d13a5a438c14",
                "assets": [
                    {
                        "address": "0x4f9254c83eb525f9fcf346490bbb3ed28a81c667",
                        "amount": "222,646.8",
                        "iconUrl": "https://assets.blocksec.com/icon/018b30f879e92885e9567d5a8aea18610eabedf21d7618dae8dcc4579be2efbf.png",
                        "isERC1155": false,
                        "isERC721": false,
                        "sign": true,
                        "value": "5343.523200000000111"
                    }
                ]
            }
        ]
    },
    "profile": {
        "basic_info": {
            "baseFee": "34.84314555",
            "blockNumber": 17114691,
            "callData": "0xa9059cbb0000000000000000000000004b8792fa08342690851ae97c45b8d13a5a438c14000000000000000000000000000000000000000000002f25b50be6b261680000",
            "debugEnable": true,
            "errorInfo": "",
            "eventCount": 1,
            "feeRecipient": "0xd4e96ef8eee8678dbff4d535e033ed1a4f7605b7",
            "formatValue": "0",
            "gasLimit": 207128,
            "gasPrice": "36.84314555",
            "gasUsed": 39622,
            "intTxnCount": 0,
            "internalRevert": false,
            "internalRevertMessage": "",
            "isContractCreation": false,
            "isFlashloan": false,
            "maxFee": "102",
            "nonce": 5967552,
            "overwritedBlockNumber": -1,
            "priorityFee": "2",
            "receiver": "0x4f9254c83eb525f9fcf346490bbb3ed28a81c667",
            "revertMessage": "",
            "sender": "0xdfd5293d8e347dfe59e90efd55b2956a1343963d",
            "simulationEnable": true,
            "sourceTxnHash": "0x37abe5ea23a98a1bd3081685994e17c18a976e66b5d1e9aaf8388d66cfd92bba",
            "status": true,
            "timestamp": "2023-04-24T07:33:59Z",
            "transactionFee": "0.0014597991129821",
            "txnHash": "0x37abe5ea23a98a1bd3081685994e17c18a976e66b5d1e9aaf8388d66cfd92bba",
            "txnIndex": 39,
            "type": 2,
            "value": "0"
        },
        "fund_flow": [
            {
                "amount": "222,646.8",
                "from": "0xdfd5293d8e347dfe59e90efd55b2956a1343963d",
                "id": 1,
                "isERC1155": false,
                "isERC721": false,
                "isReverted": false,
                "order": 1,
                "to": "0x4b8792fa08342690851ae97c45b8d13a5a438c14",
                "token": "0x4f9254c83eb525f9fcf346490bbb3ed28a81c667"
            }
        ],
        "token_infos": [
            {
                "address": "0xc02aaa39b223fe8d0a0e5c4f27ead9083c756cc2",
                "decimals": 18
            },
            {
                "address": "0xeeeeeeeeeeeeeeeeeeeeeeeeeeeeeeeeeeeeeeee",
                "decimals": 18
            },
            {
                "address": "0x4f9254c83eb525f9fcf346490bbb3ed28a81c667",
                "decimals": 18
            }
        ]
    },
    "address_label": {
        "labels": [
            {
                "address": "0x0000000000000000000000000000000000000004",
                "label": "Precompiled"
            },
            {
                "address": "0xeeeeeeeeeeeeeeeeeeeeeeeeeeeeeeeeeeeeeeee",
                "label": "Ether"
            },
            {
                "address": "0xdfd5293d8e347dfe59e90efd55b2956a1343963d",
                "label": "Binance 16"
            },
            {
                "address": "0x4f9254c83eb525f9fcf346490bbb3ed28a81c667",
                "label": "Celer Network: CELR Token"
            },
            {
                "address": "0xd4e96ef8eee8678dbff4d535e033ed1a4f7605b7",
                "label": "RocketSmoothingPool"
            },
            {
                "address": "0x0000000000000000000000000000000000000001",
                "label": "Precompiled"
            },
            {
                "address": "0x0000000000000000000000000000000000000002",
                "label": "Precompiled"
            },
            {
                "address": "0x0000000000000000000000000000000000000003",
                "label": "Precompiled"
            }
        ]
    },
    "trace": {
        "accountLabels": null,
        "dataMap": {
            "-1": {
                "invocation": {
                    "address": "0xdfd5293d8e347dfe59e90efd55b2956a1343963d",
                    "callData": "",
                    "decodedMethod": null,
                    "errorInfo": "",
                    "fromAddress": "",
                    "gasUsed": 0,
                    "id": -1,
                    "methodDecoded": false,
                    "operation": "",
                    "output": "",
                    "revert": false,
                    "revertMessage": "",
                    "selector": "",
                    "status": false,
                    "value": ""
                },
                "nodeType": 0
            },
            "0": {
                "invocation": {
                    "address": "0x4f9254c83eb525f9fcf346490bbb3ed28a81c667",
                    "callData": "0x0000000000000000000000004b8792fa08342690851ae97c45b8d13a5a438c14000000000000000000000000000000000000000000002f25b50be6b261680000",
                    "decodedMethod": {
                        "callParams": [
                            {
                                "name": "_to",
                                "type": "address",
                                "value": "0x4b8792fa08342690851ae97c45b8d13a5a438c14"
                            },
                            {
                                "decimalAvailable": true,
                                "name": "_value",
                                "type": "uint256",
                                "value": "222,646,800,000,000,000,000,000"
                            }
                        ],
                        "constructorArguments": "",
                        "name": "transfer",
                        "returnParams": [
                            {
                                "name": "",
                                "type": "bool",
                                "value": true
                            }
                        ],
                        "signature": "transfer(address,uint256)"
                    },
                    "errorInfo": "",
                    "fromAddress": "0xdfd5293d8e347dfe59e90efd55b2956a1343963d",
                    "gasUsed": 39622,
                    "id": 0,
                    "methodDecoded": true,
                    "operation": "CALL",
                    "output": "0x0000000000000000000000000000000000000000000000000000000000000001",
                    "revert": false,
                    "revertMessage": "",
                    "selector": "0xa9059cbb",
                    "status": true,
                    "value": "0"
                },
                "nodeType": 0
            },
            "1": {
                "event": {
                    "contract": "0x4f9254c83eb525f9fcf346490bbb3ed28a81c667",
                    "decodedLog": {
                        "name": "Transfer",
                        "params": [
                            {
                                "name": "from",
                                "type": "address",
                                "value": "0xdfd5293d8e347dfe59e90efd55b2956a1343963d"
                            },
                            {
                                "name": "to",
                                "type": "address",
                                "value": "0x4b8792fa08342690851ae97c45b8d13a5a438c14"
                            },
                            {
                                "decimalAvailable": true,
                                "name": "value",
                                "type": "uint256",
                                "value": "222,646,800,000,000,000,000,000"
                            }
                        ],
                        "signature": "Transfer(address,address,uint256)"
                    },
                    "id": 1,
                    "logData": "0x000000000000000000000000000000000000000000002f25b50be6b261680000",
                    "logDecoded": true,
                    "operation": "EVENT",
                    "revert": false,
                    "status": true,
                    "topics": [
                        "0xddf252ad1be2c89b69c2b068fc378daa952ba7f163c4a11628f55a4df523b3ef",
                        "0x000000000000000000000000dfd5293d8e347dfe59e90efd55b2956a1343963d",
                        "0x0000000000000000000000004b8792fa08342690851ae97c45b8d13a5a438c14"
                    ]
                },
                "nodeType": 1
            }
        },
        "gasFlame": [
            {
                "children": [
                    {
                        "children": [
                            {
                                "children": [],
                                "depth": 0,
                                "name": "Initial Gas",
                                "value": 21656
                            },
                            {
                                "children": [],
                                "depth": 0,
                                "name": "Executed Gas",
                                "value": 17966
                            }
                        ],
                        "depth": -1,
                        "name": "Actual Gas Used",
                        "value": 39622
                    },
                    {
                        "children": [],
                        "depth": -1,
                        "name": "Refunded Gas",
                        "value": 0
                    }
                ],
                "depth": -2,
                "name": "Total Gas",
                "value": 39622
            }
        ],
        "isConfirmed": true,
        "mainTrace": [
            {
                "children": [
                    {
                        "children": [
                            {
                                "children": [],
                                "depth": 1,
                                "id": 1,
                                "order": 1
                            }
                        ],
                        "depth": 0,
                        "id": 0,
                        "order": 0
                    }
                ],
                "depth": -1,
                "id": -1,
                "order": -1
            }
        ],
        "mainTraceNodeCount": 2,
        "parentIdMap": {
            "0": -1,
            "1": 0
        },
        "tidyTrace": [
            {
                "children": [
                    {
                        "children": [
                            {
                                "children": [],
                                "depth": 1,
                                "id": 1,
                                "order": 1
                            }
                        ],
                        "depth": 0,
                        "id": 0,
                        "order": 0
                    }
                ],
                "depth": -1,
                "id": -1,
                "order": -1
            }
        ],
        "tidyTraceNodeCount": 2
    },
    "state_change": {
        "stateChanges": [
            {
                "address": "0x4f9254c83eb525f9fcf346490bbb3ed28a81c667",
                "erc": "ERC-20",
                "slots": [
                    {
                        "current": "0x00000000000000000000000000000000000000000006712d5005e3232b9c0000",
                        "key": "0x39223a37ba6f79f54aa37a26efc12e526af93a444ecbdb4358d8b83204838857",
                        "prev": "0x00000000000000000000000000000000000000000006a0530511c9d58d040000"
                    },
                    {
                        "current": "0x00000000000000000000000000000000000000000002b72e8f8de745c2380000",
                        "key": "0x140e2fb36454d8620b561525923163931c425fb890f77704f019e6ee1dc43ee8",
                        "prev": "0x000000000000000000000000000000000000000000028808da82009360d00000"
                    }
                ],
                "storageVariables": [
                    {
                        "name": "balances",
                        "type": "mapping(address => uint256)",
                        "value": {
                            "pairs": [
                                {
                                    "key": "0x4b8792fa08342690851ae97c45b8d13a5a438c14",
                                    "value": {
                                        "current": "3282903600000000000000000",
                                        "prev": "3060256800000000000000000",
                                        "typeTag": 1
                                    }
                                },
                                {
                                    "key": "0xdfd5293d8e347dfe59e90efd55b2956a1343963d",
                                    "value": {
                                        "current": "7788018200000000000000000",
                                        "prev": "8010665000000000000000000",
                                        "typeTag": 1
                                    }
                                }
                            ],
                            "typeTag": 4
                        }
                    }
                ]
            }
        ]
    }
}