{
    "balance_change": {
        "balanceChanges": [
            {
                "account": "0xd551234ae421e3bcba99a0da6d736074f22192ff",
                "assets": [
                    {
                        "address": "0xd4fa1460f537bb9085d22c7bccb5dd450ef28e3a",
                        "amount": "352.56",
                        "iconUrl": "https://assets.blocksec.com/icon/9aa9f1e3aaeb410f2f7a8ac53e2d02cadaf549ec5b7ae897eae11dc97f2b9a35.png",
                        "isERC1155": false,
                        "isERC721": false,
                        "sign": false,
                        "value": ""
                    }
                ]
            },
            {
                "account": "0xd6e1e7385ad23732feb6675b0d6828165a11afbd",
                "assets": [
                    {
                        "address": "0xd4fa1460f537bb9085d22c7bccb5dd450ef28e3a",
                        "amount": "352.56",
                        "iconUrl": "https://assets.blocksec.com/icon/9aa9f1e3aaeb410f2f7a8ac53e2d02cadaf549ec5b7ae897eae11dc97f2b9a35.png",
                        "isERC1155": false,
                        "isERC721": false,
                        "sign": true,
                        "value": ""
                    }
                ]
            }
        ]
    },
    "profile": {
        "basic_info": {
            "baseFee": "",
            "blockNumber": 6434495,
            "callData": "0xa9059cbb000000000000000000000000d6e1e7385ad23732feb6675b0d6828165a11afbd00000000000000000000000000000000000000000000000000000008356bde00",
            "debugEnable": true,
            "errorInfo": "",
            "eventCount": 1,
            "feeRecipient": "0x52bc44d5378309ee2abf1539bf71de1b7d7be3b5",
            "formatValue": "0",
            "gasLimit": 104642,
            "gasPrice": "45",
            "gasUsed": 52321,
            "intTxnCount": 0,
            "internalRevert": false,
            "internalRevertMessage": "",
            "isContractCreation": false,
            "isFlashloan": false,
            "maxFee": "",
            "nonce": 1033235,
            "overwritedBlockNumber": -1,
            "priorityFee": "",
            "receiver": "0xd4fa1460f537bb9085d22c7bccb5dd450ef28e3a",
            "revertMessage": "",
            "sender": "0xd551234ae421e3bcba99a0da6d736074f22192ff",
            "simulationEnable": true,
            "sourceTxnHash": "0x375c7094b272df1df1f681a4478bb8a0f6c5236191f3a36750db326dc9adc673",
            "status": true,
            "timestamp": "2018-10-01T16:35:34Z",
            "transactionFee": "0.002354445",
            "txnHash": "0x375c7094b272df1df1f681a4478bb8a0f6c5236191f3a36750db326dc9adc673",
            "txnIndex": 18,
            "type": 0,
            "value": "0"
        },
        "fund_flow": [
            {
                "amount": "352.56",
                "from": "0xd551234ae421e3bcba99a0da6d736074f22192ff",
                "id": 1,
                "isERC1155": false,
                "isERC721": false,
                "isReverted": false,
                "order": 1,
                "to": "0xd6e1e7385ad23732feb6675b0d6828165a11afbd",
                "token": "0xd4fa1460f537bb9085d22c7bccb5dd450ef28e3a"
            }
        ],
        "token_infos": [
            {
                "address": "0xc02aaa39b223fe8d0a0e5c4f27ead9083c756cc2",
                "decimals": 18
            },
            {
                "address": "0xd4fa1460f537bb9085d22c7bccb5dd450ef28e3a",
                "decimals": 8
            },
            {
                "address": "0xeeeeeeeeeeeeeeeeeeeeeeeeeeeeeeeeeeeeeeee",
                "decimals": 18
            }
        ]
    },
    "address_label": {
        "labels": [
            {
                "address": "0xeeeeeeeeeeeeeeeeeeeeeeeeeeeeeeeeeeeeeeee",
                "label": "Ether"
            },
            {
                "address": "0xd551234ae421e3bcba99a0da6d736074f22192ff",
                "label": "Binance 2"
            },
            {
                "address": "0xd4fa1460f537bb9085d22c7bccb5dd450ef28e3a",
                "label": "Populous Token"
            },
            {
                "address": "0x0000000000000000000000000000000000000001",
                "label": "Precompiled"
            },
            {
                "address": "0x0000000000000000000000000000000000000002",
                "label": "Precompiled"
            },
            {
                "address": "0x0000000000000000000000000000000000000003",
                "label": "Precompiled"
            },
            {
                "address": "0x0000000000000000000000000000000000000004",
                "label": "Precompiled"
            }
        ]
    },
    "trace": {
        "accountLabels": null,
        "dataMap": {
            "-1": {
                "invocation": {
                    "address": "0xd551234ae421e3bcba99a0da6d736074f22192ff",
                    "callData": "",
                    "decodedMethod": null,
                    "errorInfo": "",
                    "fromAddress": "",
                    "gasUsed": 0,
                    "id": -1,
                    "methodDecoded": false,
                    "operation": "",
                    "output": "",
                    "revert": false,
                    "revertMessage": "",
                    "selector": "",
                    "status": false,
                    "value": ""
                },
                "nodeType": 0
            },
            "0": {
                "invocation": {
                    "address": "0xd4fa1460f537bb9085d22c7bccb5dd450ef28e3a",
                    "callData": "0x000000000000000000000000d6e1e7385ad23732feb6675b0d6828165a11afbd00000000000000000000000000000000000000000000000000000008356bde00",
                    "decodedMethod": {
                        "callParams": [
                            {
                                "name": "_to",
                                "type": "address",
                                "value": "0xd6e1e7385ad23732feb6675b0d6828165a11afbd"
                            },
                            {
                                "decimalAvailable": true,
                                "name": "_value",
                                "type": "uint256",
                                "value": "35,256,000,000"
                            }
                        ],
                        "constructorArguments": "",
                        "name": "transfer",
                        "returnParams": [
                            {
                                "name": "success",
                                "type": "bool",
                                "value": true
                            }
                        ],
                        "signature": "transfer(address,uint256)"
                    },
                    "errorInfo": "",
                    "fromAddress": "0xd551234ae421e3bcba99a0da6d736074f22192ff",
                    "gasUsed": 52321,
                    "id": 0,
                    "methodDecoded": true,
                    "operation": "CALL",
                    "output": "0x0000000000000000000000000000000000000000000000000000000000000001",
                    "revert": false,
                    "revertMessage": "",
                    "selector": "0xa9059cbb",
                    "status": true,
                    "value": "0"
                },
                "nodeType": 0
            },
            "1": {
                "event": {
                    "contract": "0xd4fa1460f537bb9085d22c7bccb5dd450ef28e3a",
                    "decodedLog": {
                        "name": "Transfer",
                        "params": [
                            {
                                "name": "from",
                                "type": "address",
                                "value": "0xd551234ae421e3bcba99a0da6d736074f22192ff"
                            },
                            {
                                "name": "to",
                                "type": "address",
                                "value": "0xd6e1e7385ad23732feb6675b0d6828165a11afbd"
                            },
                            {
                                "decimalAvailable": true,
                                "name": "value",
                                "type": "uint256",
                                "value": "35,256,000,000"
                            }
                        ],
                        "signature": "Transfer(address,address,uint256)"
                    },
                    "id": 1,
                    "logData": "0x00000000000000000000000000000000000000000000000000000008356bde00",
                    "logDecoded": true,
                    "operation": "EVENT",
                    "revert": false,
                    "status": true,
                    "topics": [
                        "0xddf252ad1be2c89b69c2b068fc378daa952ba7f163c4a11628f55a4df523b3ef",
                        "0x000000000000000000000000d551234ae421e3bcba99a0da6d736074f22192ff",
                        "0x000000000000000000000000d6e1e7385ad23732feb6675b0d6828165a11afbd"
                    ]
                },
                "nodeType": 1
            }
        },
        "gasFlame": [
            {
                "children": [
                    {
                        "children": [
                            {
                                "children": [],
                                "depth": 0,
                                "name": "Initial Gas",
                                "value": 23064
                            },
                            {
                                "children": [],
                                "depth": 0,
                                "name": "Executed Gas",
                                "value": 29257
                            }
                        ],
                        "depth": -1,
                        "name": "Actual Gas Used",
                        "value": 52321
                    },
                    {
                        "children": [],
                        "depth": -1,
                        "name": "Refunded Gas",
                        "value": 0
                    }
                ],
                "depth": -2,
                "name": "Total Gas",
                "value": 52321
            }
        ],
        "isConfirmed": true,
        "mainTrace": [
            {
                "children": [
                    {
                        "children": [
                            {
                                "children": [],
                                "depth": 1,
                                "id": 1,
                                "order": 1
                            }
                        ],
                        "depth": 0,
                        "id": 0,
                        "order": 0
                    }
                ],
                "depth": -1,
                "id": -1,
                "order": -1
            }
        ],
        "mainTraceNodeCount": 2,
        "parentIdMap": {
            "0": -1,
            "1": 0
        },
        "tidyTrace": [
            {
                "children": [
                    {
                        "children": [
                            {
                                "children": [],
                                "depth": 1,
                                "id": 1,
                                "order": 1
                            }
                        ],
                        "depth": 0,
                        "id": 0,
                        "order": 0
                    }
                ],
                "depth": -1,
                "id": -1,
                "order": -1
            }
        ],
        "tidyTraceNodeCount": 2
    },
    "state_change": {
        "stateChanges": [
            {
                "address": "0xd4fa1460f537bb9085d22c7bccb5dd450ef28e3a",
                "erc": "ERC-20",
                "slots": [
                    {
                        "current": "0x000000000000000000000000000000000000000000000000000002a5c4dfb743",
                        "key": "0xf998ea9c0b98411650caecdde7c9db0627b6dcab50bc2f5bfbf9d3b669553844",
                        "prev": "0x000000000000000000000000000000000000000000000000000002adfa4b9543"
                    },
                    {
                        "current": "0x00000000000000000000000000000000000000000000000000000008356bde00",
                        "key": "0xca4dcba857cbc3e686503aba84f8e2ea55c233be849b6a11d17ffcb9a44b3a5f",
                        "prev": "0x0000000000000000000000000000000000000000000000000000000000000000"
                    }
                ],
                "storageVariables": []
            }
        ]
    }
}