{
    "balance_change": {
        "balanceChanges": [
            {
                "account": "0x38570825d2c35db1b5fc603b1215dcfe1607bfb4",
                "assets": [
                    {
                        "address": "0xb7cb1c96db6b22b0d3d9536e0108d062bd488f74",
                        "amount": "3,489.799999999999737856",
                        "iconUrl": "https://assets.blocksec.com/icon/24b48fbd5b2b00bff8cc3e16cd0995342c1a99ca48acb426236f0695d2ff19a8.png",
                        "isERC1155": false,
                        "isERC721": false,
                        "sign": false,
                        "value": ""
                    }
                ]
            },
            {
                "account": "0x26e4bc45b44ac924622d7bbd0e993027ab368624",
                "assets": [
                    {
                        "address": "0xb7cb1c96db6b22b0d3d9536e0108d062bd488f74",
                        "amount": "3,489.799999999999737856",
                        "iconUrl": "https://assets.blocksec.com/icon/24b48fbd5b2b00bff8cc3e16cd0995342c1a99ca48acb426236f0695d2ff19a8.png",
                        "isERC1155": false,
                        "isERC721": false,
                        "sign": true,
                        "value": ""
                    }
                ]
            }
        ]
    },
    "profile": {
        "basic_info": {
            "baseFee": "",
            "blockNumber": 4151366,
            "callData": "0xa9059cbb00000000000000000000000026e4bc45b44ac924622d7bbd0e993027ab3686240000000000000000000000000000000000000000000000bd2eb4323f46300000",
            "debugEnable": true,
            "errorInfo": "",
            "eventCount": 1,
            "feeRecipient": "0xbcdfc35b86bedf72f0cda046a3c16829a2ef41d1",
            "formatValue": "0",
            "gasLimit": 36474,
            "gasPrice": "3",
            "gasUsed": 36473,
            "intTxnCount": 0,
            "internalRevert": false,
            "internalRevertMessage": "",
            "isContractCreation": false,
            "isFlashloan": false,
            "maxFee": "",
            "nonce": 2117,
            "overwritedBlockNumber": -1,
            "priorityFee": "",
            "receiver": "0xb7cb1c96db6b22b0d3d9536e0108d062bd488f74",
            "revertMessage": "",
            "sender": "0x38570825d2c35db1b5fc603b1215dcfe1607bfb4",
            "simulationEnable": true,
            "sourceTxnHash": "0x37747932042f83b42ae93854be92f2fb8ca681628f34cef962dfa0b9c311672d",
            "status": true,
            "timestamp": "2017-08-13T05:19:14Z",
            "transactionFee": "0.000109419",
            "txnHash": "0x37747932042f83b42ae93854be92f2fb8ca681628f34cef962dfa0b9c311672d",
            "txnIndex": 20,
            "type": 0,
            "value": "0"
        },
        "fund_flow": [
            {
                "amount": "3,489.799999999999737856",
                "from": "0x38570825d2c35db1b5fc603b1215dcfe1607bfb4",
                "id": 1,
                "isERC1155": false,
                "isERC721": false,
                "isReverted": false,
                "order": 1,
                "to": "0x26e4bc45b44ac924622d7bbd0e993027ab368624",
                "token": "0xb7cb1c96db6b22b0d3d9536e0108d062bd488f74"
            }
        ],
        "token_infos": [
            {
                "address": "0xb7cb1c96db6b22b0d3d9536e0108d062bd488f74",
                "decimals": 18
            },
            {
                "address": "0xc02aaa39b223fe8d0a0e5c4f27ead9083c756cc2",
                "decimals": 18
            },
            {
                "address": "0xeeeeeeeeeeeeeeeeeeeeeeeeeeeeeeeeeeeeeeee",
                "decimals": 18
            }
        ]
    },
    "address_label": {
        "labels": [
            {
                "address": "0xeeeeeeeeeeeeeeeeeeeeeeeeeeeeeeeeeeeeeeee",
                "label": "Ether"
            },
            {
                "address": "0xb7cb1c96db6b22b0d3d9536e0108d062bd488f74",
                "label": "Waltonchain Token"
            },
            {
                "address": "0x0000000000000000000000000000000000000001",
                "label": "Precompiled"
            },
            {
                "address": "0x0000000000000000000000000000000000000002",
                "label": "Precompiled"
            },
            {
                "address": "0x0000000000000000000000000000000000000003",
                "label": "Precompiled"
            },
            {
                "address": "0x0000000000000000000000000000000000000004",
                "label": "Precompiled"
            }
        ]
    },
    "trace": {
        "accountLabels": null,
        "dataMap": {
            "-1": {
                "invocation": {
                    "address": "0x38570825d2c35db1b5fc603b1215dcfe1607bfb4",
                    "callData": "",
                    "decodedMethod": null,
                    "errorInfo": "",
                    "fromAddress": "",
                    "gasUsed": 0,
                    "id": -1,
                    "methodDecoded": false,
                    "operation": "",
                    "output": "",
                    "revert": false,
                    "revertMessage": "",
                    "selector": "",
                    "status": false,
                    "value": ""
                },
                "nodeType": 0
            },
            "0": {
                "invocation": {
                    "address": "0xb7cb1c96db6b22b0d3d9536e0108d062bd488f74",
                    "callData": "0x00000000000000000000000026e4bc45b44ac924622d7bbd0e993027ab3686240000000000000000000000000000000000000000000000bd2eb4323f46300000",
                    "decodedMethod": {
                        "callParams": [
                            {
                                "name": "_to",
                                "type": "address",
                                "value": "0x26e4bc45b44ac924622d7bbd0e993027ab368624"
                            },
                            {
                                "decimalAvailable": true,
                                "name": "_value",
                                "type": "uint256",
                                "value": "3,489,799,999,999,999,737,856"
                            }
                        ],
                        "constructorArguments": "",
                        "name": "transfer",
                        "returnParams": [
                            {
                                "name": "",
                                "type": "bool",
                                "value": true
                            }
                        ],
                        "signature": "transfer(address,uint256)"
                    },
                    "errorInfo": "",
                    "fromAddress": "0x38570825d2c35db1b5fc603b1215dcfe1607bfb4",
                    "gasUsed": 36473,
                    "id": 0,
                    "methodDecoded": true,
                    "operation": "CALL",
                    "output": "0x0000000000000000000000000000000000000000000000000000000000000001",
                    "revert": false,
                    "revertMessage": "",
                    "selector": "0xa9059cbb",
                    "status": true,
                    "value": "0"
                },
                "nodeType": 0
            },
            "1": {
                "event": {
                    "contract": "0xb7cb1c96db6b22b0d3d9536e0108d062bd488f74",
                    "decodedLog": {
                        "name": "Transfer",
                        "params": [
                            {
                                "name": "from",
                                "type": "address",
                                "value": "0x38570825d2c35db1b5fc603b1215dcfe1607bfb4"
                            },
                            {
                                "name": "to",
                                "type": "address",
                                "value": "0x26e4bc45b44ac924622d7bbd0e993027ab368624"
                            },
                            {
                                "decimalAvailable": true,
                                "name": "value",
                                "type": "uint256",
                                "value": "3,489,799,999,999,999,737,856"
                            }
                        ],
                        "signature": "Transfer(address,address,uint256)"
                    },
                    "id": 1,
                    "logData": "0x0000000000000000000000000000000000000000000000bd2eb4323f46300000",
                    "logDecoded": true,
                    "operation": "EVENT",
                    "revert": false,
                    "status": true,
                    "topics": [
                        "0xddf252ad1be2c89b69c2b068fc378daa952ba7f163c4a11628f55a4df523b3ef",
                        "0x00000000000000000000000038570825d2c35db1b5fc603b1215dcfe1607bfb4",
                        "0x00000000000000000000000026e4bc45b44ac924622d7bbd0e993027ab368624"
                    ]
                },
                "nodeType": 1
            }
        },
        "gasFlame": [
            {
                "children": [
                    {
                        "children": [
                            {
                                "children": [],
                                "depth": 0,
                                "name": "Initial Gas",
                                "value": 23256
                            },
                            {
                                "children": [],
                                "depth": 0,
                                "name": "Executed Gas",
                                "value": 13217
                            }
                        ],
                        "depth": -1,
                        "name": "Actual Gas Used",
                        "value": 36473
                    },
                    {
                        "children": [],
                        "depth": -1,
                        "name": "Refunded Gas",
                        "value": 0
                    }
                ],
                "depth": -2,
                "name": "Total Gas",
                "value": 36473
            }
        ],
        "isConfirmed": true,
        "mainTrace": [
            {
                "children": [
                    {
                        "children": [
                            {
                                "children": [],
                                "depth": 1,
                                "id": 1,
                                "order": 1
                            }
                        ],
                        "depth": 0,
                        "id": 0,
                        "order": 0
                    }
                ],
                "depth": -1,
                "id": -1,
                "order": -1
            }
        ],
        "mainTraceNodeCount": 2,
        "parentIdMap": {
            "0": -1,
            "1": 0
        },
        "tidyTrace": [
            {
                "children": [
                    {
                        "children": [
                            {
                                "children": [],
                                "depth": 1,
                                "id": 1,
                                "order": 1
                            }
                        ],
                        "depth": 0,
                        "id": 0,
                        "order": 0
                    }
                ],
                "depth": -1,
                "id": -1,
                "order": -1
            }
        ],
        "tidyTraceNodeCount": 2
    },
    "state_change": {
        "stateChanges": [
            {
                "address": "0xb7cb1c96db6b22b0d3d9536e0108d062bd488f74",
                "erc": "ERC-20",
                "slots": [
                    {
                        "current": "0x0000000000000000000000000000000000000000000001acc5e4d6e80dd79aa6",
                        "key": "0x17858b8ed321da0a6b4046f3492264f79fcb41250fcfdbf657f6c167698dcea5",
                        "prev": "0x000000000000000000000000000000000000000000000269f499092754079aa6"
                    },
                    {
                        "current": "0x0000000000000000000000000000000000000000000000bda1c031532a2d0000",
                        "key": "0xdd1b7166e83dc1bbd6c60e6cf9924c89586418e672be351cd9f3786ec78d780d",
                        "prev": "0x000000000000000000000000000000000000000000000000730bff13e3fd0000"
                    }
                ],
                "storageVariables": []
            }
        ]
    }
}