{
    "balance_change": {
        "balanceChanges": [
            {
                "account": "0x905c97087362ff456681ab086577d581cc5e96fa",
                "assets": [
                    {
                        "address": "0x103cc17c2b1586e5cd9bad308690bcd0bbe54d5e",
                        "amount": "0.995784329809966553",
                        "iconUrl": "",
                        "isERC1155": false,
                        "isERC721": false,
                        "sign": false,
                        "value": ""
                    },
                    {
                        "address": "0xeeeeeeeeeeeeeeeeeeeeeeeeeeeeeeeeeeeeeeee",
                        "amount": "0.995338833997732269",
                        "iconUrl": "https://assets.blocksec.com/image/1663669189317-3.png",
                        "isERC1155": false,
                        "isERC721": false,
                        "sign": true,
                        "value": "4125.785408"
                    }
                ]
            },
            {
                "account": "0x0000000000000000000000000000000000000000",
                "assets": [
                    {
                        "address": "0x103cc17c2b1586e5cd9bad308690bcd0bbe54d5e",
                        "amount": "0.989809623831106754",
                        "iconUrl": "",
                        "isERC1155": false,
                        "isERC721": false,
                        "sign": true,
                        "value": ""
                    }
                ]
            },
            {
                "account": "0x4ddc2d193948926d02f9b1fe9e1daa0718270ed5",
                "assets": [
                    {
                        "address": "0x4ddc2d193948926d02f9b1fe9e1daa0718270ed5",
                        "amount": "49.625267",
                        "iconUrl": "https://assets.blocksec.com/icon/7fef3ee2b3ed619b5c3acd5a75d4303fa2bbb86d9706ed8ca911aebb1aaa21b9.png",
                        "isERC1155": false,
                        "isERC721": false,
                        "sign": true,
                        "value": "4125.785408"
                    },
                    {
                        "address": "0xeeeeeeeeeeeeeeeeeeeeeeeeeeeeeeeeeeeeeeee",
                        "amount": "0.995338833997732269",
                        "iconUrl": "https://assets.blocksec.com/image/1663669189317-3.png",
                        "isERC1155": false,
                        "isERC721": false,
                        "sign": false,
                        "value": "4125.785408"
                    }
                ]
            },
            {
                "account": "0x80d426d65d926df121dc58c18d043b73e998ce2b",
                "assets": [
                    {
                        "address": "0x103cc17c2b1586e5cd9bad308690bcd0bbe54d5e",
                        "amount": "0.005974705978859799",
                        "iconUrl": "",
                        "isERC1155": false,
                        "isERC721": false,
                        "sign": true,
                        "value": ""
                    }
                ]
            },
            {
                "account": "0xffc4c270244f9c0890c744f042f5f25f9ff8d4b5",
                "assets": [
                    {
                        "address": "0x4ddc2d193948926d02f9b1fe9e1daa0718270ed5",
                        "amount": "49.625267",
                        "iconUrl": "https://assets.blocksec.com/icon/7fef3ee2b3ed619b5c3acd5a75d4303fa2bbb86d9706ed8ca911aebb1aaa21b9.png",
                        "isERC1155": false,
                        "isERC721": false,
                        "sign": false,
                        "value": "4125.785408"
                    }
                ]
            }
        ]
    },
    "profile": {
        "basic_info": {
            "baseFee": "60.24560833",
            "blockNumber": 13775196,
            "callData": "0xf14210a60000000000000000000000000000000000000000000000000dd1bc92733935d9",
            "debugEnable": true,
            "errorInfo": "",
            "eventCount": 10,
            "feeRecipient": "0x829bd824b016326a401d083b33d092293333a830",
            "formatValue": "0",
            "gasLimit": 592560,
            "gasPrice": "62.74560833",
            "gasUsed": 342652,
            "intTxnCount": 57,
            "internalRevert": false,
            "internalRevertMessage": "",
            "isContractCreation": false,
            "isFlashloan": false,
            "maxFee": "114.902897328",
            "nonce": 48,
            "overwritedBlockNumber": -1,
            "priorityFee": "2.5",
            "receiver": "0x103cc17c2b1586e5cd9bad308690bcd0bbe54d5e",
            "revertMessage": "",
            "sender": "0x905c97087362ff456681ab086577d581cc5e96fa",
            "simulationEnable": true,
            "sourceTxnHash": "0x37d11414041f1e088830db6c9a8d41e980facb6f170f86a5f516b39ea15dbe7b",
            "status": true,
            "timestamp": "2021-12-10T04:23:39Z",
            "transactionFee": "0.02149990818549116",
            "txnHash": "0x37d11414041f1e088830db6c9a8d41e980facb6f170f86a5f516b39ea15dbe7b",
            "txnIndex": 22,
            "type": 2,
            "value": "0"
        },
        "fund_flow": [
            {
                "amount": "0.005974705978859799",
                "from": "0x905c97087362ff456681ab086577d581cc5e96fa",
                "id": 1,
                "isERC1155": false,
                "isERC721": false,
                "isReverted": false,
                "order": 1,
                "to": "0x80d426d65d926df121dc58c18d043b73e998ce2b",
                "token": "0x103cc17c2b1586e5cd9bad308690bcd0bbe54d5e"
            },
            {
                "amount": "0.989809623831106754",
                "from": "0x905c97087362ff456681ab086577d581cc5e96fa",
                "id": 2,
                "isERC1155": false,
                "isERC721": false,
                "isReverted": false,
                "order": 2,
                "to": "0x0000000000000000000000000000000000000000",
                "token": "0x103cc17c2b1586e5cd9bad308690bcd0bbe54d5e"
            },
            {
                "amount": "0.995338833997732269",
                "from": "0x4ddc2d193948926d02f9b1fe9e1daa0718270ed5",
                "id": 3,
                "isERC1155": false,
                "isERC721": false,
                "isReverted": false,
                "order": 3,
                "to": "0xffc4c270244f9c0890c744f042f5f25f9ff8d4b5",
                "token": "0xeeeeeeeeeeeeeeeeeeeeeeeeeeeeeeeeeeeeeeee"
            },
            {
                "amount": "49.625267",
                "from": "0xffc4c270244f9c0890c744f042f5f25f9ff8d4b5",
                "id": 4,
                "isERC1155": false,
                "isERC721": false,
                "isReverted": false,
                "order": 4,
                "to": "0x4ddc2d193948926d02f9b1fe9e1daa0718270ed5",
                "token": "0x4ddc2d193948926d02f9b1fe9e1daa0718270ed5"
            },
            {
                "amount": "0.995338833997732269",
                "from": "0xffc4c270244f9c0890c744f042f5f25f9ff8d4b5",
                "id": 5,
                "isERC1155": false,
                "isERC721": false,
                "isReverted": false,
                "order": 5,
                "to": "0xc02aaa39b223fe8d0a0e5c4f27ead9083c756cc2",
                "token": "0xeeeeeeeeeeeeeeeeeeeeeeeeeeeeeeeeeeeeeeee"
            },
            {
                "amount": "0.995338833997732269",
                "from": "0xc02aaa39b223fe8d0a0e5c4f27ead9083c756cc2",
                "id": 6,
                "isERC1155": false,
                "isERC721": false,
                "isReverted": false,
                "order": 6,
                "to": "0xffc4c270244f9c0890c744f042f5f25f9ff8d4b5",
                "token": "0xc02aaa39b223fe8d0a0e5c4f27ead9083c756cc2"
            },
            {
                "amount": "0.995338833997732269",
                "from": "0xffc4c270244f9c0890c744f042f5f25f9ff8d4b5",
                "id": 7,
                "isERC1155": false,
                "isERC721": false,
                "isReverted": false,
                "order": 7,
                "to": "0x103cc17c2b1586e5cd9bad308690bcd0bbe54d5e",
                "token": "0xc02aaa39b223fe8d0a0e5c4f27ead9083c756cc2"
            },
            {
                "amount": "0.995338833997732269",
                "from": "0xc02aaa39b223fe8d0a0e5c4f27ead9083c756cc2",
                "id": 8,
                "isERC1155": false,
                "isERC721": false,
                "isReverted": false,
                "order": 8,
                "to": "0x103cc17c2b1586e5cd9bad308690bcd0bbe54d5e",
                "token": "0xeeeeeeeeeeeeeeeeeeeeeeeeeeeeeeeeeeeeeeee"
            },
            {
                "amount": "0.995338833997732269",
                "from": "0x103cc17c2b1586e5cd9bad308690bcd0bbe54d5e",
                "id": 9,
                "isERC1155": false,
                "isERC721": false,
                "isReverted": false,
                "order": 9,
                "to": "0xc02aaa39b223fe8d0a0e5c4f27ead9083c756cc2",
                "token": "0xc02aaa39b223fe8d0a0e5c4f27ead9083c756cc2"
            },
            {
                "amount": "0.995338833997732269",
                "from": "0x103cc17c2b1586e5cd9bad308690bcd0bbe54d5e",
                "id": 10,
                "isERC1155": false,
                "isERC721": false,
                "isReverted": false,
                "order": 10,
                "to": "0x905c97087362ff456681ab086577d581cc5e96fa",
                "token": "0xeeeeeeeeeeeeeeeeeeeeeeeeeeeeeeeeeeeeeeee"
            }
        ],
        "token_infos": [
            {
                "address": "0xc02aaa39b223fe8d0a0e5c4f27ead9083c756cc2",
                "decimals": 18
            },
            {
                "address": "0xeeeeeeeeeeeeeeeeeeeeeeeeeeeeeeeeeeeeeeee",
                "decimals": 18
            },
            {
                "address": "0x103cc17c2b1586e5cd9bad308690bcd0bbe54d5e",
                "decimals": 18
            },
            {
                "address": "0x4ddc2d193948926d02f9b1fe9e1daa0718270ed5",
                "decimals": 8
            }
        ]
    },
    "address_label": {
        "labels": [
            {
                "address": "0xbafe01ff935c7305907c33bf824352ee5979b526",
                "label": "Comptroller"
            },
            {
                "address": "0xc02aaa39b223fe8d0a0e5c4f27ead9083c756cc2",
                "label": "Wrapped Ether (WETH)"
            },
            {
                "address": "0x80d426d65d926df121dc58c18d043b73e998ce2b",
                "label": "RevenueSplitter"
            },
            {
                "address": "0x0000000000000000000000000000000000000002",
                "label": "Precompiled"
            },
            {
                "address": "0x0000000000000000000000000000000000000003",
                "label": "Precompiled"
            },
            {
                "address": "0xeeeeeeeeeeeeeeeeeeeeeeeeeeeeeeeeeeeeeeee",
                "label": "Ether"
            },
            {
                "address": "0x3d9819210a31b4961b30ef54be2aed79b9c9cd3b",
                "label": "Compound: Comptroller"
            },
            {
                "address": "0x103cc17c2b1586e5cd9bad308690bcd0bbe54d5e",
                "label": "Vesper Finance: vETH Token"
            },
            {
                "address": "0x0000000000000000000000000000000000000001",
                "label": "Precompiled"
            },
            {
                "address": "0x4ddc2d193948926d02f9b1fe9e1daa0718270ed5",
                "label": "Compound: cETH Token"
            },
            {
                "address": "0x0c3f8df27e1a00b47653fde878d68d35f00714c0",
                "label": "WhitePaperInterestRateModel"
            },
            {
                "address": "0xffc4c270244f9c0890c744f042f5f25f9ff8d4b5",
                "label": "CompoundStrategyETH"
            },
            {
                "address": "0x0000000000000000000000000000000000000004",
                "label": "Precompiled"
            },
            {
                "address": "0xa4f1671d3aee73c05b552d57f2d16d3cfcbd0217",
                "label": "Vesper Finance: Controller"
            },
            {
                "address": "0x93567318aabd27e21c52f766d2844fc6de9dc738",
                "label": "PoolRewards"
            }
        ]
    },
    "trace": {
        "accountLabels": null,
        "dataMap": {
            "-1": {
                "invocation": {
                    "address": "0x905c97087362ff456681ab086577d581cc5e96fa",
                    "callData": "",
                    "decodedMethod": null,
                    "errorInfo": "",
                    "fromAddress": "",
                    "gasUsed": 0,
                    "id": -1,
                    "methodDecoded": false,
                    "operation": "",
                    "output": "",
                    "revert": false,
                    "revertMessage": "",
                    "selector": "",
                    "status": false,
                    "value": ""
                },
                "nodeType": 0
            },
            "0": {
                "invocation": {
                    "address": "0x103cc17c2b1586e5cd9bad308690bcd0bbe54d5e",
                    "callData": "0x0000000000000000000000000000000000000000000000000dd1bc92733935d9",
                    "decodedMethod": {
                        "callParams": [
                            {
                                "name": "shares",
                                "type": "uint256",
                                "value": "995,784,329,809,966,553"
                            }
                        ],
                        "constructorArguments": "",
                        "name": "withdrawETH",
                        "returnParams": [],
                        "signature": "withdrawETH(uint256)"
                    },
                    "errorInfo": "",
                    "fromAddress": "0x905c97087362ff456681ab086577d581cc5e96fa",
                    "gasUsed": 342652,
                    "id": 0,
                    "methodDecoded": true,
                    "operation": "CALL",
                    "output": "",
                    "revert": false,
                    "revertMessage": "",
                    "selector": "0xf14210a6",
                    "status": true,
                    "value": "0"
                },
                "nodeType": 0
            },
            "1": {
                "invocation": {
                    "address": "0xa4f1671d3aee73c05b552d57f2d16d3cfcbd0217",
                    "callData": "0x000000000000000000000000103cc17c2b1586e5cd9bad308690bcd0bbe54d5e",
                    "decodedMethod": {
                        "callParams": [
                            {
                                "name": "",
                                "type": "address",
                                "value": "0x103cc17c2b1586e5cd9bad308690bcd0bbe54d5e"
                            }
                        ],
                        "constructorArguments": "",
                        "name": "strategy",
                        "returnParams": [
                            {
                                "name": "",
                                "type": "address",
                                "value": "0xffc4c270244f9c0890c744f042f5f25f9ff8d4b5"
                            }
                        ],
                        "signature": "strategy(address)"
                    },
                    "errorInfo": "",
                    "fromAddress": "0x103cc17c2b1586e5cd9bad308690bcd0bbe54d5e",
                    "gasUsed": 2664,
                    "id": 1,
                    "methodDecoded": true,
                    "operation": "STATICCALL",
                    "output": "0x000000000000000000000000ffc4c270244f9c0890c744f042f5f25f9ff8d4b5",
                    "revert": false,
                    "revertMessage": "",
                    "selector": "0x228bfd9f",
                    "status": true,
                    "value": "0"
                },
                "nodeType": 0
            },
            "10": {
                "invocation": {
                    "address": "0x103cc17c2b1586e5cd9bad308690bcd0bbe54d5e",
                    "callData": "0x",
                    "decodedMethod": {
                        "callParams": [],
                        "constructorArguments": "",
                        "name": "totalSupply",
                        "returnParams": [
                            {
                                "name": "",
                                "type": "uint256",
                                "value": "12,485,837,576,641,416,405,995"
                            }
                        ],
                        "signature": "totalSupply()"
                    },
                    "errorInfo": "",
                    "fromAddress": "0x93567318aabd27e21c52f766d2844fc6de9dc738",
                    "gasUsed": 389,
                    "id": 10,
                    "methodDecoded": true,
                    "operation": "STATICCALL",
                    "output": "0x0000000000000000000000000000000000000000000002a4dbcdf32717be23eb",
                    "revert": false,
                    "revertMessage": "",
                    "selector": "0x18160ddd",
                    "status": true,
                    "value": "0"
                },
                "nodeType": 0
            },
            "11": {
                "invocation": {
                    "address": "0x103cc17c2b1586e5cd9bad308690bcd0bbe54d5e",
                    "callData": "0x",
                    "decodedMethod": {
                        "callParams": [],
                        "constructorArguments": "",
                        "name": "totalSupply",
                        "returnParams": [
                            {
                                "name": "",
                                "type": "uint256",
                                "value": "12,485,837,576,641,416,405,995"
                            }
                        ],
                        "signature": "totalSupply()"
                    },
                    "errorInfo": "",
                    "fromAddress": "0x93567318aabd27e21c52f766d2844fc6de9dc738",
                    "gasUsed": 389,
                    "id": 11,
                    "methodDecoded": true,
                    "operation": "STATICCALL",
                    "output": "0x0000000000000000000000000000000000000000000002a4dbcdf32717be23eb",
                    "revert": false,
                    "revertMessage": "",
                    "selector": "0x18160ddd",
                    "status": true,
                    "value": "0"
                },
                "nodeType": 0
            },
            "12": {
                "invocation": {
                    "address": "0x103cc17c2b1586e5cd9bad308690bcd0bbe54d5e",
                    "callData": "0x000000000000000000000000905c97087362ff456681ab086577d581cc5e96fa",
                    "decodedMethod": {
                        "callParams": [
                            {
                                "name": "account",
                                "type": "address",
                                "value": "0x905c97087362ff456681ab086577d581cc5e96fa"
                            }
                        ],
                        "constructorArguments": "",
                        "name": "balanceOf",
                        "returnParams": [
                            {
                                "decimalAvailable": true,
                                "name": "",
                                "type": "uint256",
                                "value": "995,784,329,809,966,553"
                            }
                        ],
                        "signature": "balanceOf(address)"
                    },
                    "errorInfo": "",
                    "fromAddress": "0x93567318aabd27e21c52f766d2844fc6de9dc738",
                    "gasUsed": 2521,
                    "id": 12,
                    "methodDecoded": true,
                    "operation": "STATICCALL",
                    "output": "0x0000000000000000000000000000000000000000000000000dd1bc92733935d9",
                    "revert": false,
                    "revertMessage": "",
                    "selector": "0x70a08231",
                    "status": true,
                    "value": "0"
                },
                "nodeType": 0
            },
            "13": {
                "invocation": {
                    "address": "0x93567318aabd27e21c52f766d2844fc6de9dc738",
                    "callData": "0x00000000000000000000000080d426d65d926df121dc58c18d043b73e998ce2b",
                    "decodedMethod": {
                        "callParams": [
                            {
                                "name": "_account",
                                "type": "address",
                                "value": "0x80d426d65d926df121dc58c18d043b73e998ce2b"
                            }
                        ],
                        "constructorArguments": "",
                        "name": "updateReward",
                        "returnParams": [],
                        "signature": "updateReward(address)"
                    },
                    "errorInfo": "",
                    "fromAddress": "0x103cc17c2b1586e5cd9bad308690bcd0bbe54d5e",
                    "gasUsed": 20067,
                    "id": 13,
                    "methodDecoded": true,
                    "operation": "CALL",
                    "output": "",
                    "revert": false,
                    "revertMessage": "",
                    "selector": "0x632447c9",
                    "status": true,
                    "value": "0"
                },
                "nodeType": 0
            },
            "14": {
                "invocation": {
                    "address": "0x103cc17c2b1586e5cd9bad308690bcd0bbe54d5e",
                    "callData": "0x",
                    "decodedMethod": {
                        "callParams": [],
                        "constructorArguments": "",
                        "name": "totalSupply",
                        "returnParams": [
                            {
                                "name": "",
                                "type": "uint256",
                                "value": "12,485,837,576,641,416,405,995"
                            }
                        ],
                        "signature": "totalSupply()"
                    },
                    "errorInfo": "",
                    "fromAddress": "0x93567318aabd27e21c52f766d2844fc6de9dc738",
                    "gasUsed": 389,
                    "id": 14,
                    "methodDecoded": true,
                    "operation": "STATICCALL",
                    "output": "0x0000000000000000000000000000000000000000000002a4dbcdf32717be23eb",
                    "revert": false,
                    "revertMessage": "",
                    "selector": "0x18160ddd",
                    "status": true,
                    "value": "0"
                },
                "nodeType": 0
            },
            "15": {
                "invocation": {
                    "address": "0x103cc17c2b1586e5cd9bad308690bcd0bbe54d5e",
                    "callData": "0x",
                    "decodedMethod": {
                        "callParams": [],
                        "constructorArguments": "",
                        "name": "totalSupply",
                        "returnParams": [
                            {
                                "name": "",
                                "type": "uint256",
                                "value": "12,485,837,576,641,416,405,995"
                            }
                        ],
                        "signature": "totalSupply()"
                    },
                    "errorInfo": "",
                    "fromAddress": "0x93567318aabd27e21c52f766d2844fc6de9dc738",
                    "gasUsed": 389,
                    "id": 15,
                    "methodDecoded": true,
                    "operation": "STATICCALL",
                    "output": "0x0000000000000000000000000000000000000000000002a4dbcdf32717be23eb",
                    "revert": false,
                    "revertMessage": "",
                    "selector": "0x18160ddd",
                    "status": true,
                    "value": "0"
                },
                "nodeType": 0
            },
            "16": {
                "invocation": {
                    "address": "0x103cc17c2b1586e5cd9bad308690bcd0bbe54d5e",
                    "callData": "0x",
                    "decodedMethod": {
                        "callParams": [],
                        "constructorArguments": "",
                        "name": "totalSupply",
                        "returnParams": [
                            {
                                "name": "",
                                "type": "uint256",
                                "value": "12,485,837,576,641,416,405,995"
                            }
                        ],
                        "signature": "totalSupply()"
                    },
                    "errorInfo": "",
                    "fromAddress": "0x93567318aabd27e21c52f766d2844fc6de9dc738",
                    "gasUsed": 389,
                    "id": 16,
                    "methodDecoded": true,
                    "operation": "STATICCALL",
                    "output": "0x0000000000000000000000000000000000000000000002a4dbcdf32717be23eb",
                    "revert": false,
                    "revertMessage": "",
                    "selector": "0x18160ddd",
                    "status": true,
                    "value": "0"
                },
                "nodeType": 0
            },
            "17": {
                "invocation": {
                    "address": "0x103cc17c2b1586e5cd9bad308690bcd0bbe54d5e",
                    "callData": "0x",
                    "decodedMethod": {
                        "callParams": [],
                        "constructorArguments": "",
                        "name": "totalSupply",
                        "returnParams": [
                            {
                                "name": "",
                                "type": "uint256",
                                "value": "12,485,837,576,641,416,405,995"
                            }
                        ],
                        "signature": "totalSupply()"
                    },
                    "errorInfo": "",
                    "fromAddress": "0x93567318aabd27e21c52f766d2844fc6de9dc738",
                    "gasUsed": 389,
                    "id": 17,
                    "methodDecoded": true,
                    "operation": "STATICCALL",
                    "output": "0x0000000000000000000000000000000000000000000002a4dbcdf32717be23eb",
                    "revert": false,
                    "revertMessage": "",
                    "selector": "0x18160ddd",
                    "status": true,
                    "value": "0"
                },
                "nodeType": 0
            },
            "18": {
                "invocation": {
                    "address": "0x103cc17c2b1586e5cd9bad308690bcd0bbe54d5e",
                    "callData": "0x00000000000000000000000080d426d65d926df121dc58c18d043b73e998ce2b",
                    "decodedMethod": {
                        "callParams": [
                            {
                                "name": "account",
                                "type": "address",
                                "value": "0x80d426d65d926df121dc58c18d043b73e998ce2b"
                            }
                        ],
                        "constructorArguments": "",
                        "name": "balanceOf",
                        "returnParams": [
                            {
                                "decimalAvailable": true,
                                "name": "",
                                "type": "uint256",
                                "value": "708,923,383,299,349,513"
                            }
                        ],
                        "signature": "balanceOf(address)"
                    },
                    "errorInfo": "",
                    "fromAddress": "0x93567318aabd27e21c52f766d2844fc6de9dc738",
                    "gasUsed": 2521,
                    "id": 18,
                    "methodDecoded": true,
                    "operation": "STATICCALL",
                    "output": "0x00000000000000000000000000000000000000000000000009d69a0fa2869c09",
                    "revert": false,
                    "revertMessage": "",
                    "selector": "0x70a08231",
                    "status": true,
                    "value": "0"
                },
                "nodeType": 0
            },
            "19": {
                "event": {
                    "contract": "0x103cc17c2b1586e5cd9bad308690bcd0bbe54d5e",
                    "decodedLog": {
                        "name": "Transfer",
                        "params": [
                            {
                                "name": "from",
                                "type": "address",
                                "value": "0x905c97087362ff456681ab086577d581cc5e96fa"
                            },
                            {
                                "name": "to",
                                "type": "address",
                                "value": "0x80d426d65d926df121dc58c18d043b73e998ce2b"
                            },
                            {
                                "decimalAvailable": true,
                                "name": "value",
                                "type": "uint256",
                                "value": "5,974,705,978,859,799"
                            }
                        ],
                        "signature": "Transfer(address,address,uint256)"
                    },
                    "id": 19,
                    "logData": "0x000000000000000000000000000000000000000000000000001539f6a381e117",
                    "logDecoded": true,
                    "operation": "EVENT",
                    "revert": false,
                    "status": true,
                    "topics": [
                        "0xddf252ad1be2c89b69c2b068fc378daa952ba7f163c4a11628f55a4df523b3ef",
                        "0x000000000000000000000000905c97087362ff456681ab086577d581cc5e96fa",
                        "0x00000000000000000000000080d426d65d926df121dc58c18d043b73e998ce2b"
                    ]
                },
                "nodeType": 1
            },
            "2": {
                "invocation": {
                    "address": "0xffc4c270244f9c0890c744f042f5f25f9ff8d4b5",
                    "callData": "0x",
                    "decodedMethod": {
                        "callParams": [],
                        "constructorArguments": "",
                        "name": "beforeWithdraw",
                        "returnParams": [],
                        "signature": "beforeWithdraw()"
                    },
                    "errorInfo": "",
                    "fromAddress": "0x103cc17c2b1586e5cd9bad308690bcd0bbe54d5e",
                    "gasUsed": 341,
                    "id": 2,
                    "methodDecoded": true,
                    "operation": "CALL",
                    "output": "",
                    "revert": false,
                    "revertMessage": "",
                    "selector": "0x419f7753",
                    "status": true,
                    "value": "0"
                },
                "nodeType": 0
            },
            "20": {
                "invocation": {
                    "address": "0xc02aaa39b223fe8d0a0e5c4f27ead9083c756cc2",
                    "callData": "0x000000000000000000000000103cc17c2b1586e5cd9bad308690bcd0bbe54d5e",
                    "decodedMethod": {
                        "callParams": [
                            {
                                "name": "",
                                "type": "address",
                                "value": "0x103cc17c2b1586e5cd9bad308690bcd0bbe54d5e"
                            }
                        ],
                        "constructorArguments": "",
                        "name": "balanceOf",
                        "returnParams": [
                            {
                                "decimalAvailable": true,
                                "name": "",
                                "type": "uint256",
                                "value": "0"
                            }
                        ],
                        "signature": "balanceOf(address)"
                    },
                    "errorInfo": "",
                    "fromAddress": "0x103cc17c2b1586e5cd9bad308690bcd0bbe54d5e",
                    "gasUsed": 2534,
                    "id": 20,
                    "methodDecoded": true,
                    "operation": "STATICCALL",
                    "output": "0x0000000000000000000000000000000000000000000000000000000000000000",
                    "revert": false,
                    "revertMessage": "",
                    "selector": "0x70a08231",
                    "status": true,
                    "value": "0"
                },
                "nodeType": 0
            },
            "21": {
                "invocation": {
                    "address": "0xa4f1671d3aee73c05b552d57f2d16d3cfcbd0217",
                    "callData": "0x000000000000000000000000103cc17c2b1586e5cd9bad308690bcd0bbe54d5e",
                    "decodedMethod": {
                        "callParams": [
                            {
                                "name": "",
                                "type": "address",
                                "value": "0x103cc17c2b1586e5cd9bad308690bcd0bbe54d5e"
                            }
                        ],
                        "constructorArguments": "",
                        "name": "strategy",
                        "returnParams": [
                            {
                                "name": "",
                                "type": "address",
                                "value": "0xffc4c270244f9c0890c744f042f5f25f9ff8d4b5"
                            }
                        ],
                        "signature": "strategy(address)"
                    },
                    "errorInfo": "",
                    "fromAddress": "0x103cc17c2b1586e5cd9bad308690bcd0bbe54d5e",
                    "gasUsed": 664,
                    "id": 21,
                    "methodDecoded": true,
                    "operation": "STATICCALL",
                    "output": "0x000000000000000000000000ffc4c270244f9c0890c744f042f5f25f9ff8d4b5",
                    "revert": false,
                    "revertMessage": "",
                    "selector": "0x228bfd9f",
                    "status": true,
                    "value": "0"
                },
                "nodeType": 0
            },
            "22": {
                "invocation": {
                    "address": "0xffc4c270244f9c0890c744f042f5f25f9ff8d4b5",
                    "callData": "0x",
                    "decodedMethod": {
                        "callParams": [],
                        "constructorArguments": "",
                        "name": "totalLocked",
                        "returnParams": [
                            {
                                "name": "",
                                "type": "uint256",
                                "value": "12,555,585,150,725,804,676,955"
                            }
                        ],
                        "signature": "totalLocked()"
                    },
                    "errorInfo": "",
                    "fromAddress": "0x103cc17c2b1586e5cd9bad308690bcd0bbe54d5e",
                    "gasUsed": 29868,
                    "id": 22,
                    "methodDecoded": true,
                    "operation": "STATICCALL",
                    "output": "0x0000000000000000000000000000000000000000000002a8a3bf1c3e74f2575b",
                    "revert": false,
                    "revertMessage": "",
                    "selector": "0x56891412",
                    "status": true,
                    "value": "0"
                },
                "nodeType": 0
            },
            "23": {
                "invocation": {
                    "address": "0x4ddc2d193948926d02f9b1fe9e1daa0718270ed5",
                    "callData": "0x000000000000000000000000ffc4c270244f9c0890c744f042f5f25f9ff8d4b5",
                    "decodedMethod": {
                        "callParams": [
                            {
                                "name": "owner",
                                "type": "address",
                                "value": "0xffc4c270244f9c0890c744f042f5f25f9ff8d4b5"
                            }
                        ],
                        "constructorArguments": "",
                        "name": "balanceOf",
                        "returnParams": [
                            {
                                "decimalAvailable": true,
                                "name": "",
                                "type": "uint256",
                                "value": "62,599,282,223,992"
                            }
                        ],
                        "signature": "balanceOf(address)"
                    },
                    "errorInfo": "",
                    "fromAddress": "0xffc4c270244f9c0890c744f042f5f25f9ff8d4b5",
                    "gasUsed": 2553,
                    "id": 23,
                    "methodDecoded": true,
                    "operation": "STATICCALL",
                    "output": "0x000000000000000000000000000000000000000000000000000038ef07faeb78",
                    "revert": false,
                    "revertMessage": "",
                    "selector": "0x70a08231",
                    "status": true,
                    "value": "0"
                },
                "nodeType": 0
            },
            "24": {
                "invocation": {
                    "address": "0x4ddc2d193948926d02f9b1fe9e1daa0718270ed5",
                    "callData": "0x000000000000000000000000103cc17c2b1586e5cd9bad308690bcd0bbe54d5e",
                    "decodedMethod": {
                        "callParams": [
                            {
                                "name": "owner",
                                "type": "address",
                                "value": "0x103cc17c2b1586e5cd9bad308690bcd0bbe54d5e"
                            }
                        ],
                        "constructorArguments": "",
                        "name": "balanceOf",
                        "returnParams": [
                            {
                                "decimalAvailable": true,
                                "name": "",
                                "type": "uint256",
                                "value": "0"
                            }
                        ],
                        "signature": "balanceOf(address)"
                    },
                    "errorInfo": "",
                    "fromAddress": "0xffc4c270244f9c0890c744f042f5f25f9ff8d4b5",
                    "gasUsed": 2553,
                    "id": 24,
                    "methodDecoded": true,
                    "operation": "STATICCALL",
                    "output": "0x0000000000000000000000000000000000000000000000000000000000000000",
                    "revert": false,
                    "revertMessage": "",
                    "selector": "0x70a08231",
                    "status": true,
                    "value": "0"
                },
                "nodeType": 0
            },
            "25": {
                "invocation": {
                    "address": "0x4ddc2d193948926d02f9b1fe9e1daa0718270ed5",
                    "callData": "0x000000000000000000000000ffc4c270244f9c0890c744f042f5f25f9ff8d4b5",
                    "decodedMethod": {
                        "callParams": [
                            {
                                "name": "owner",
                                "type": "address",
                                "value": "0xffc4c270244f9c0890c744f042f5f25f9ff8d4b5"
                            }
                        ],
                        "constructorArguments": "",
                        "name": "balanceOf",
                        "returnParams": [
                            {
                                "decimalAvailable": true,
                                "name": "",
                                "type": "uint256",
                                "value": "62,599,282,223,992"
                            }
                        ],
                        "signature": "balanceOf(address)"
                    },
                    "errorInfo": "",
                    "fromAddress": "0xffc4c270244f9c0890c744f042f5f25f9ff8d4b5",
                    "gasUsed": 553,
                    "id": 25,
                    "methodDecoded": true,
                    "operation": "STATICCALL",
                    "output": "0x000000000000000000000000000000000000000000000000000038ef07faeb78",
                    "revert": false,
                    "revertMessage": "",
                    "selector": "0x70a08231",
                    "status": true,
                    "value": "0"
                },
                "nodeType": 0
            },
            "26": {
                "invocation": {
                    "address": "0x4ddc2d193948926d02f9b1fe9e1daa0718270ed5",
                    "callData": "0x",
                    "decodedMethod": {
                        "callParams": [],
                        "constructorArguments": "",
                        "name": "exchangeRateStored",
                        "returnParams": [
                            {
                                "name": "",
                                "type": "uint256",
                                "value": "200,570,976,188,281,394,538,154,326"
                            }
                        ],
                        "signature": "exchangeRateStored()"
                    },
                    "errorInfo": "",
                    "fromAddress": "0xffc4c270244f9c0890c744f042f5f25f9ff8d4b5",
                    "gasUsed": 8247,
                    "id": 26,
                    "methodDecoded": true,
                    "operation": "STATICCALL",
                    "output": "0x000000000000000000000000000000000000000000a5e88e67f27a13ecc30956",
                    "revert": false,
                    "revertMessage": "",
                    "selector": "0x182df0f5",
                    "status": true,
                    "value": "0"
                },
                "nodeType": 0
            },
            "27": {
                "invocation": {
                    "address": "0xa4f1671d3aee73c05b552d57f2d16d3cfcbd0217",
                    "callData": "0x000000000000000000000000103cc17c2b1586e5cd9bad308690bcd0bbe54d5e",
                    "decodedMethod": {
                        "callParams": [
                            {
                                "name": "",
                                "type": "address",
                                "value": "0x103cc17c2b1586e5cd9bad308690bcd0bbe54d5e"
                            }
                        ],
                        "constructorArguments": "",
                        "name": "interestFee",
                        "returnParams": [
                            {
                                "name": "",
                                "type": "uint256",
                                "value": "150,000,000,000,000,000"
                            }
                        ],
                        "signature": "interestFee(address)"
                    },
                    "errorInfo": "",
                    "fromAddress": "0xffc4c270244f9c0890c744f042f5f25f9ff8d4b5",
                    "gasUsed": 2646,
                    "id": 27,
                    "methodDecoded": true,
                    "operation": "STATICCALL",
                    "output": "0x0000000000000000000000000000000000000000000000000214e8348c4f0000",
                    "revert": false,
                    "revertMessage": "",
                    "selector": "0x4564a6c8",
                    "status": true,
                    "value": "0"
                },
                "nodeType": 0
            },
            "28": {
                "invocation": {
                    "address": "0x4ddc2d193948926d02f9b1fe9e1daa0718270ed5",
                    "callData": "0x",
                    "decodedMethod": {
                        "callParams": [],
                        "constructorArguments": "",
                        "name": "exchangeRateStored",
                        "returnParams": [
                            {
                                "name": "",
                                "type": "uint256",
                                "value": "200,570,976,188,281,394,538,154,326"
                            }
                        ],
                        "signature": "exchangeRateStored()"
                    },
                    "errorInfo": "",
                    "fromAddress": "0xffc4c270244f9c0890c744f042f5f25f9ff8d4b5",
                    "gasUsed": 2247,
                    "id": 28,
                    "methodDecoded": true,
                    "operation": "STATICCALL",
                    "output": "0x000000000000000000000000000000000000000000a5e88e67f27a13ecc30956",
                    "revert": false,
                    "revertMessage": "",
                    "selector": "0x182df0f5",
                    "status": true,
                    "value": "0"
                },
                "nodeType": 0
            },
            "29": {
                "invocation": {
                    "address": "0xa4f1671d3aee73c05b552d57f2d16d3cfcbd0217",
                    "callData": "0x000000000000000000000000103cc17c2b1586e5cd9bad308690bcd0bbe54d5e",
                    "decodedMethod": {
                        "callParams": [
                            {
                                "name": "",
                                "type": "address",
                                "value": "0x103cc17c2b1586e5cd9bad308690bcd0bbe54d5e"
                            }
                        ],
                        "constructorArguments": "",
                        "name": "poolRewards",
                        "returnParams": [
                            {
                                "name": "",
                                "type": "address",
                                "value": "0x93567318aabd27e21c52f766d2844fc6de9dc738"
                            }
                        ],
                        "signature": "poolRewards(address)"
                    },
                    "errorInfo": "",
                    "fromAddress": "0x103cc17c2b1586e5cd9bad308690bcd0bbe54d5e",
                    "gasUsed": 640,
                    "id": 29,
                    "methodDecoded": true,
                    "operation": "STATICCALL",
                    "output": "0x00000000000000000000000093567318aabd27e21c52f766d2844fc6de9dc738",
                    "revert": false,
                    "revertMessage": "",
                    "selector": "0xdd5aba4b",
                    "status": true,
                    "value": "0"
                },
                "nodeType": 0
            },
            "3": {
                "invocation": {
                    "address": "0xa4f1671d3aee73c05b552d57f2d16d3cfcbd0217",
                    "callData": "0x000000000000000000000000103cc17c2b1586e5cd9bad308690bcd0bbe54d5e",
                    "decodedMethod": {
                        "callParams": [
                            {
                                "name": "",
                                "type": "address",
                                "value": "0x103cc17c2b1586e5cd9bad308690bcd0bbe54d5e"
                            }
                        ],
                        "constructorArguments": "",
                        "name": "withdrawFee",
                        "returnParams": [
                            {
                                "name": "",
                                "type": "uint256",
                                "value": "6,000,000,000,000,000"
                            }
                        ],
                        "signature": "withdrawFee(address)"
                    },
                    "errorInfo": "",
                    "fromAddress": "0x103cc17c2b1586e5cd9bad308690bcd0bbe54d5e",
                    "gasUsed": 2580,
                    "id": 3,
                    "methodDecoded": true,
                    "operation": "STATICCALL",
                    "output": "0x000000000000000000000000000000000000000000000000001550f7dca70000",
                    "revert": false,
                    "revertMessage": "",
                    "selector": "0x1ac3ddeb",
                    "status": true,
                    "value": "0"
                },
                "nodeType": 0
            },
            "30": {
                "invocation": {
                    "address": "0x93567318aabd27e21c52f766d2844fc6de9dc738",
                    "callData": "0x000000000000000000000000905c97087362ff456681ab086577d581cc5e96fa",
                    "decodedMethod": {
                        "callParams": [
                            {
                                "name": "_account",
                                "type": "address",
                                "value": "0x905c97087362ff456681ab086577d581cc5e96fa"
                            }
                        ],
                        "constructorArguments": "",
                        "name": "updateReward",
                        "returnParams": [],
                        "signature": "updateReward(address)"
                    },
                    "errorInfo": "",
                    "fromAddress": "0x103cc17c2b1586e5cd9bad308690bcd0bbe54d5e",
                    "gasUsed": 8467,
                    "id": 30,
                    "methodDecoded": true,
                    "operation": "CALL",
                    "output": "",
                    "revert": false,
                    "revertMessage": "",
                    "selector": "0x632447c9",
                    "status": true,
                    "value": "0"
                },
                "nodeType": 0
            },
            "31": {
                "invocation": {
                    "address": "0x103cc17c2b1586e5cd9bad308690bcd0bbe54d5e",
                    "callData": "0x",
                    "decodedMethod": {
                        "callParams": [],
                        "constructorArguments": "",
                        "name": "totalSupply",
                        "returnParams": [
                            {
                                "name": "",
                                "type": "uint256",
                                "value": "12,485,837,576,641,416,405,995"
                            }
                        ],
                        "signature": "totalSupply()"
                    },
                    "errorInfo": "",
                    "fromAddress": "0x93567318aabd27e21c52f766d2844fc6de9dc738",
                    "gasUsed": 389,
                    "id": 31,
                    "methodDecoded": true,
                    "operation": "STATICCALL",
                    "output": "0x0000000000000000000000000000000000000000000002a4dbcdf32717be23eb",
                    "revert": false,
                    "revertMessage": "",
                    "selector": "0x18160ddd",
                    "status": true,
                    "value": "0"
                },
                "nodeType": 0
            },
            "32": {
                "invocation": {
                    "address": "0x103cc17c2b1586e5cd9bad308690bcd0bbe54d5e",
                    "callData": "0x",
                    "decodedMethod": {
                        "callParams": [],
                        "constructorArguments": "",
                        "name": "totalSupply",
                        "returnParams": [
                            {
                                "name": "",
                                "type": "uint256",
                                "value": "12,485,837,576,641,416,405,995"
                            }
                        ],
                        "signature": "totalSupply()"
                    },
                    "errorInfo": "",
                    "fromAddress": "0x93567318aabd27e21c52f766d2844fc6de9dc738",
                    "gasUsed": 389,
                    "id": 32,
                    "methodDecoded": true,
                    "operation": "STATICCALL",
                    "output": "0x0000000000000000000000000000000000000000000002a4dbcdf32717be23eb",
                    "revert": false,
                    "revertMessage": "",
                    "selector": "0x18160ddd",
                    "status": true,
                    "value": "0"
                },
                "nodeType": 0
            },
            "33": {
                "invocation": {
                    "address": "0x103cc17c2b1586e5cd9bad308690bcd0bbe54d5e",
                    "callData": "0x",
                    "decodedMethod": {
                        "callParams": [],
                        "constructorArguments": "",
                        "name": "totalSupply",
                        "returnParams": [
                            {
                                "name": "",
                                "type": "uint256",
                                "value": "12,485,837,576,641,416,405,995"
                            }
                        ],
                        "signature": "totalSupply()"
                    },
                    "errorInfo": "",
                    "fromAddress": "0x93567318aabd27e21c52f766d2844fc6de9dc738",
                    "gasUsed": 389,
                    "id": 33,
                    "methodDecoded": true,
                    "operation": "STATICCALL",
                    "output": "0x0000000000000000000000000000000000000000000002a4dbcdf32717be23eb",
                    "revert": false,
                    "revertMessage": "",
                    "selector": "0x18160ddd",
                    "status": true,
                    "value": "0"
                },
                "nodeType": 0
            },
            "34": {
                "invocation": {
                    "address": "0x103cc17c2b1586e5cd9bad308690bcd0bbe54d5e",
                    "callData": "0x",
                    "decodedMethod": {
                        "callParams": [],
                        "constructorArguments": "",
                        "name": "totalSupply",
                        "returnParams": [
                            {
                                "name": "",
                                "type": "uint256",
                                "value": "12,485,837,576,641,416,405,995"
                            }
                        ],
                        "signature": "totalSupply()"
                    },
                    "errorInfo": "",
                    "fromAddress": "0x93567318aabd27e21c52f766d2844fc6de9dc738",
                    "gasUsed": 389,
                    "id": 34,
                    "methodDecoded": true,
                    "operation": "STATICCALL",
                    "output": "0x0000000000000000000000000000000000000000000002a4dbcdf32717be23eb",
                    "revert": false,
                    "revertMessage": "",
                    "selector": "0x18160ddd",
                    "status": true,
                    "value": "0"
                },
                "nodeType": 0
            },
            "35": {
                "invocation": {
                    "address": "0x103cc17c2b1586e5cd9bad308690bcd0bbe54d5e",
                    "callData": "0x000000000000000000000000905c97087362ff456681ab086577d581cc5e96fa",
                    "decodedMethod": {
                        "callParams": [
                            {
                                "name": "account",
                                "type": "address",
                                "value": "0x905c97087362ff456681ab086577d581cc5e96fa"
                            }
                        ],
                        "constructorArguments": "",
                        "name": "balanceOf",
                        "returnParams": [
                            {
                                "decimalAvailable": true,
                                "name": "",
                                "type": "uint256",
                                "value": "989,809,623,831,106,754"
                            }
                        ],
                        "signature": "balanceOf(address)"
                    },
                    "errorInfo": "",
                    "fromAddress": "0x93567318aabd27e21c52f766d2844fc6de9dc738",
                    "gasUsed": 521,
                    "id": 35,
                    "methodDecoded": true,
                    "operation": "STATICCALL",
                    "output": "0x0000000000000000000000000000000000000000000000000dbc829bcfb754c2",
                    "revert": false,
                    "revertMessage": "",
                    "selector": "0x70a08231",
                    "status": true,
                    "value": "0"
                },
                "nodeType": 0
            },
            "36": {
                "event": {
                    "contract": "0x103cc17c2b1586e5cd9bad308690bcd0bbe54d5e",
                    "decodedLog": {
                        "name": "Transfer",
                        "params": [
                            {
                                "name": "from",
                                "type": "address",
                                "value": "0x905c97087362ff456681ab086577d581cc5e96fa"
                            },
                            {
                                "name": "to",
                                "type": "address",
                                "value": "0x0000000000000000000000000000000000000000"
                            },
                            {
                                "decimalAvailable": true,
                                "name": "value",
                                "type": "uint256",
                                "value": "989,809,623,831,106,754"
                            }
                        ],
                        "signature": "Transfer(address,address,uint256)"
                    },
                    "id": 36,
                    "logData": "0x0000000000000000000000000000000000000000000000000dbc829bcfb754c2",
                    "logDecoded": true,
                    "operation": "EVENT",
                    "revert": false,
                    "status": true,
                    "topics": [
                        "0xddf252ad1be2c89b69c2b068fc378daa952ba7f163c4a11628f55a4df523b3ef",
                        "0x000000000000000000000000905c97087362ff456681ab086577d581cc5e96fa",
                        "0x0000000000000000000000000000000000000000000000000000000000000000"
                    ]
                },
                "nodeType": 1
            },
            "37": {
                "invocation": {
                    "address": "0xc02aaa39b223fe8d0a0e5c4f27ead9083c756cc2",
                    "callData": "0x000000000000000000000000103cc17c2b1586e5cd9bad308690bcd0bbe54d5e",
                    "decodedMethod": {
                        "callParams": [
                            {
                                "name": "",
                                "type": "address",
                                "value": "0x103cc17c2b1586e5cd9bad308690bcd0bbe54d5e"
                            }
                        ],
                        "constructorArguments": "",
                        "name": "balanceOf",
                        "returnParams": [
                            {
                                "decimalAvailable": true,
                                "name": "",
                                "type": "uint256",
                                "value": "0"
                            }
                        ],
                        "signature": "balanceOf(address)"
                    },
                    "errorInfo": "",
                    "fromAddress": "0x103cc17c2b1586e5cd9bad308690bcd0bbe54d5e",
                    "gasUsed": 534,
                    "id": 37,
                    "methodDecoded": true,
                    "operation": "STATICCALL",
                    "output": "0x0000000000000000000000000000000000000000000000000000000000000000",
                    "revert": false,
                    "revertMessage": "",
                    "selector": "0x70a08231",
                    "status": true,
                    "value": "0"
                },
                "nodeType": 0
            },
            "38": {
                "invocation": {
                    "address": "0xa4f1671d3aee73c05b552d57f2d16d3cfcbd0217",
                    "callData": "0x000000000000000000000000103cc17c2b1586e5cd9bad308690bcd0bbe54d5e",
                    "decodedMethod": {
                        "callParams": [
                            {
                                "name": "",
                                "type": "address",
                                "value": "0x103cc17c2b1586e5cd9bad308690bcd0bbe54d5e"
                            }
                        ],
                        "constructorArguments": "",
                        "name": "strategy",
                        "returnParams": [
                            {
                                "name": "",
                                "type": "address",
                                "value": "0xffc4c270244f9c0890c744f042f5f25f9ff8d4b5"
                            }
                        ],
                        "signature": "strategy(address)"
                    },
                    "errorInfo": "",
                    "fromAddress": "0x103cc17c2b1586e5cd9bad308690bcd0bbe54d5e",
                    "gasUsed": 664,
                    "id": 38,
                    "methodDecoded": true,
                    "operation": "STATICCALL",
                    "output": "0x000000000000000000000000ffc4c270244f9c0890c744f042f5f25f9ff8d4b5",
                    "revert": false,
                    "revertMessage": "",
                    "selector": "0x228bfd9f",
                    "status": true,
                    "value": "0"
                },
                "nodeType": 0
            },
            "39": {
                "invocation": {
                    "address": "0xffc4c270244f9c0890c744f042f5f25f9ff8d4b5",
                    "callData": "0x0000000000000000000000000000000000000000000000000dd027655f9619ad",
                    "decodedMethod": {
                        "callParams": [
                            {
                                "name": "_amount",
                                "type": "uint256",
                                "value": "995,338,833,997,732,269"
                            }
                        ],
                        "constructorArguments": "",
                        "name": "withdraw",
                        "returnParams": [],
                        "signature": "withdraw(uint256)"
                    },
                    "errorInfo": "",
                    "fromAddress": "0x103cc17c2b1586e5cd9bad308690bcd0bbe54d5e",
                    "gasUsed": 178681,
                    "id": 39,
                    "methodDecoded": true,
                    "operation": "CALL",
                    "output": "",
                    "revert": false,
                    "revertMessage": "",
                    "selector": "0x2e1a7d4d",
                    "status": true,
                    "value": "0"
                },
                "nodeType": 0
            },
            "4": {
                "invocation": {
                    "address": "0xa4f1671d3aee73c05b552d57f2d16d3cfcbd0217",
                    "callData": "0x000000000000000000000000103cc17c2b1586e5cd9bad308690bcd0bbe54d5e",
                    "decodedMethod": {
                        "callParams": [
                            {
                                "name": "",
                                "type": "address",
                                "value": "0x103cc17c2b1586e5cd9bad308690bcd0bbe54d5e"
                            }
                        ],
                        "constructorArguments": "",
                        "name": "withdrawFee",
                        "returnParams": [
                            {
                                "name": "",
                                "type": "uint256",
                                "value": "6,000,000,000,000,000"
                            }
                        ],
                        "signature": "withdrawFee(address)"
                    },
                    "errorInfo": "",
                    "fromAddress": "0x103cc17c2b1586e5cd9bad308690bcd0bbe54d5e",
                    "gasUsed": 580,
                    "id": 4,
                    "methodDecoded": true,
                    "operation": "STATICCALL",
                    "output": "0x000000000000000000000000000000000000000000000000001550f7dca70000",
                    "revert": false,
                    "revertMessage": "",
                    "selector": "0x1ac3ddeb",
                    "status": true,
                    "value": "0"
                },
                "nodeType": 0
            },
            "40": {
                "invocation": {
                    "address": "0x4ddc2d193948926d02f9b1fe9e1daa0718270ed5",
                    "callData": "0x000000000000000000000000ffc4c270244f9c0890c744f042f5f25f9ff8d4b5",
                    "decodedMethod": {
                        "callParams": [
                            {
                                "name": "owner",
                                "type": "address",
                                "value": "0xffc4c270244f9c0890c744f042f5f25f9ff8d4b5"
                            }
                        ],
                        "constructorArguments": "",
                        "name": "balanceOf",
                        "returnParams": [
                            {
                                "decimalAvailable": true,
                                "name": "",
                                "type": "uint256",
                                "value": "62,599,282,223,992"
                            }
                        ],
                        "signature": "balanceOf(address)"
                    },
                    "errorInfo": "",
                    "fromAddress": "0xffc4c270244f9c0890c744f042f5f25f9ff8d4b5",
                    "gasUsed": 553,
                    "id": 40,
                    "methodDecoded": true,
                    "operation": "STATICCALL",
                    "output": "0x000000000000000000000000000000000000000000000000000038ef07faeb78",
                    "revert": false,
                    "revertMessage": "",
                    "selector": "0x70a08231",
                    "status": true,
                    "value": "0"
                },
                "nodeType": 0
            },
            "41": {
                "invocation": {
                    "address": "0x4ddc2d193948926d02f9b1fe9e1daa0718270ed5",
                    "callData": "0x",
                    "decodedMethod": {
                        "callParams": [],
                        "constructorArguments": "",
                        "name": "exchangeRateStored",
                        "returnParams": [
                            {
                                "name": "",
                                "type": "uint256",
                                "value": "200,570,976,188,281,394,538,154,326"
                            }
                        ],
                        "signature": "exchangeRateStored()"
                    },
                    "errorInfo": "",
                    "fromAddress": "0xffc4c270244f9c0890c744f042f5f25f9ff8d4b5",
                    "gasUsed": 2247,
                    "id": 41,
                    "methodDecoded": true,
                    "operation": "STATICCALL",
                    "output": "0x000000000000000000000000000000000000000000a5e88e67f27a13ecc30956",
                    "revert": false,
                    "revertMessage": "",
                    "selector": "0x182df0f5",
                    "status": true,
                    "value": "0"
                },
                "nodeType": 0
            },
            "42": {
                "invocation": {
                    "address": "0xa4f1671d3aee73c05b552d57f2d16d3cfcbd0217",
                    "callData": "0x000000000000000000000000103cc17c2b1586e5cd9bad308690bcd0bbe54d5e",
                    "decodedMethod": {
                        "callParams": [
                            {
                                "name": "",
                                "type": "address",
                                "value": "0x103cc17c2b1586e5cd9bad308690bcd0bbe54d5e"
                            }
                        ],
                        "constructorArguments": "",
                        "name": "interestFee",
                        "returnParams": [
                            {
                                "name": "",
                                "type": "uint256",
                                "value": "150,000,000,000,000,000"
                            }
                        ],
                        "signature": "interestFee(address)"
                    },
                    "errorInfo": "",
                    "fromAddress": "0xffc4c270244f9c0890c744f042f5f25f9ff8d4b5",
                    "gasUsed": 646,
                    "id": 42,
                    "methodDecoded": true,
                    "operation": "STATICCALL",
                    "output": "0x0000000000000000000000000000000000000000000000000214e8348c4f0000",
                    "revert": false,
                    "revertMessage": "",
                    "selector": "0x4564a6c8",
                    "status": true,
                    "value": "0"
                },
                "nodeType": 0
            },
            "43": {
                "invocation": {
                    "address": "0x4ddc2d193948926d02f9b1fe9e1daa0718270ed5",
                    "callData": "0x",
                    "decodedMethod": {
                        "callParams": [],
                        "constructorArguments": "",
                        "name": "exchangeRateStored",
                        "returnParams": [
                            {
                                "name": "",
                                "type": "uint256",
                                "value": "200,570,976,188,281,394,538,154,326"
                            }
                        ],
                        "signature": "exchangeRateStored()"
                    },
                    "errorInfo": "",
                    "fromAddress": "0xffc4c270244f9c0890c744f042f5f25f9ff8d4b5",
                    "gasUsed": 2247,
                    "id": 43,
                    "methodDecoded": true,
                    "operation": "STATICCALL",
                    "output": "0x000000000000000000000000000000000000000000a5e88e67f27a13ecc30956",
                    "revert": false,
                    "revertMessage": "",
                    "selector": "0x182df0f5",
                    "status": true,
                    "value": "0"
                },
                "nodeType": 0
            },
            "44": {
                "invocation": {
                    "address": "0x4ddc2d193948926d02f9b1fe9e1daa0718270ed5",
                    "callData": "0x0000000000000000000000000000000000000000000000000dd027655f9619ad",
                    "decodedMethod": {
                        "callParams": [
                            {
                                "name": "redeemAmount",
                                "type": "uint256",
                                "value": "995,338,833,997,732,269"
                            }
                        ],
                        "constructorArguments": "",
                        "name": "redeemUnderlying",
                        "returnParams": [
                            {
                                "name": "",
                                "type": "uint256",
                                "value": "0"
                            }
                        ],
                        "signature": "redeemUnderlying(uint256)"
                    },
                    "errorInfo": "",
                    "fromAddress": "0xffc4c270244f9c0890c744f042f5f25f9ff8d4b5",
                    "gasUsed": 106868,
                    "id": 44,
                    "methodDecoded": true,
                    "operation": "CALL",
                    "output": "0x0000000000000000000000000000000000000000000000000000000000000000",
                    "revert": false,
                    "revertMessage": "",
                    "selector": "0x852a12e3",
                    "status": true,
                    "value": "0"
                },
                "nodeType": 0
            },
            "45": {
                "invocation": {
                    "address": "0x0c3f8df27e1a00b47653fde878d68d35f00714c0",
                    "callData": "0x0000000000000000000000000000000000000000000137bf14cae66b56b65dc7000000000000000000000000000000000000000000000af39cde1dcc855b7323000000000000000000000000000000000000000000000020aa17ba8220d20f9b",
                    "decodedMethod": {
                        "callParams": [
                            {
                                "name": "cash",
                                "type": "uint256",
                                "value": "1,472,180,802,553,712,930,610,631"
                            },
                            {
                                "name": "borrows",
                                "type": "uint256",
                                "value": "51,717,527,143,486,867,600,163"
                            },
                            {
                                "name": "_reserves",
                                "type": "uint256",
                                "value": "602,552,280,337,676,898,203"
                            }
                        ],
                        "constructorArguments": "",
                        "name": "getBorrowRate",
                        "returnParams": [
                            {
                                "name": "",
                                "type": "uint256",
                                "value": "0"
                            },
                            {
                                "name": "",
                                "type": "uint256",
                                "value": "11,127,171,296"
                            }
                        ],
                        "signature": "getBorrowRate(uint256,uint256,uint256)"
                    },
                    "errorInfo": "",
                    "fromAddress": "0x4ddc2d193948926d02f9b1fe9e1daa0718270ed5",
                    "gasUsed": 8003,
                    "id": 45,
                    "methodDecoded": true,
                    "operation": "STATICCALL",
                    "output": "0x000000000000000000000000000000000000000000000000000000000000000000000000000000000000000000000000000000000000000000000002973b28e0",
                    "revert": false,
                    "revertMessage": "",
                    "selector": "0x15f24053",
                    "status": true,
                    "value": "0"
                },
                "nodeType": 0
            },
            "46": {
                "event": {
                    "contract": "0x4ddc2d193948926d02f9b1fe9e1daa0718270ed5",
                    "decodedLog": {
                        "name": "AccrueInterest",
                        "params": [
                            {
                                "name": "interestAccumulated",
                                "type": "uint256",
                                "value": "17,839,563,289,464,346"
                            },
                            {
                                "name": "borrowIndex",
                                "type": "uint256",
                                "value": "1,073,711,921,324,778,936"
                            },
                            {
                                "name": "totalBorrows",
                                "type": "uint256",
                                "value": "51,717,544,983,050,157,064,509"
                            }
                        ],
                        "signature": "AccrueInterest(uint256,uint256,uint256)"
                    },
                    "id": 46,
                    "logData": "0x000000000000000000000000000000000000000000000000003f60fd00d10e1a0000000000000000000000000000000000000000000000000ee6974dbdaa65b8000000000000000000000000000000000000000000000af39d1d7ec9862c813d",
                    "logDecoded": true,
                    "operation": "EVENT",
                    "revert": false,
                    "status": true,
                    "topics": [
                        "0x875352fb3fadeb8c0be7cbbe8ff761b308fa7033470cd0287f02f3436fd76cb9"
                    ]
                },
                "nodeType": 1
            },
            "47": {
                "invocation": {
                    "address": "0x3d9819210a31b4961b30ef54be2aed79b9c9cd3b",
                    "callData": "0x0000000000000000000000004ddc2d193948926d02f9b1fe9e1daa0718270ed5000000000000000000000000ffc4c270244f9c0890c744f042f5f25f9ff8d4b50000000000000000000000000000000000000000000000000000000127ca25ec",
                    "decodedMethod": {
                        "callParams": [
                            {
                                "name": "cToken",
                                "type": "address",
                                "value": "0x4ddc2d193948926d02f9b1fe9e1daa0718270ed5"
                            },
                            {
                                "name": "redeemer",
                                "type": "address",
                                "value": "0xffc4c270244f9c0890c744f042f5f25f9ff8d4b5"
                            },
                            {
                                "name": "redeemTokens",
                                "type": "uint256",
                                "value": "4,962,526,700"
                            }
                        ],
                        "constructorArguments": "",
                        "name": "redeemAllowed",
                        "returnParams": [
                            {
                                "name": "",
                                "type": "uint256",
                                "value": "0"
                            }
                        ],
                        "signature": "redeemAllowed(address,address,uint256)"
                    },
                    "errorInfo": "",
                    "fromAddress": "0x4ddc2d193948926d02f9b1fe9e1daa0718270ed5",
                    "gasUsed": 35137,
                    "id": 47,
                    "methodDecoded": true,
                    "operation": "CALL",
                    "output": "0x0000000000000000000000000000000000000000000000000000000000000000",
                    "revert": false,
                    "revertMessage": "",
                    "selector": "0xeabe7d91",
                    "status": true,
                    "value": "0"
                },
                "nodeType": 0
            },
            "48": {
                "invocation": {
                    "address": "0xbafe01ff935c7305907c33bf824352ee5979b526",
                    "callData": "0x0000000000000000000000004ddc2d193948926d02f9b1fe9e1daa0718270ed5000000000000000000000000ffc4c270244f9c0890c744f042f5f25f9ff8d4b50000000000000000000000000000000000000000000000000000000127ca25ec",
                    "decodedMethod": {
                        "callParams": [
                            {
                                "name": "cToken",
                                "type": "address",
                                "value": "0x4ddc2d193948926d02f9b1fe9e1daa0718270ed5"
                            },
                            {
                                "name": "redeemer",
                                "type": "address",
                                "value": "0xffc4c270244f9c0890c744f042f5f25f9ff8d4b5"
                            },
                            {
                                "name": "redeemTokens",
                                "type": "uint256",
                                "value": "4,962,526,700"
                            }
                        ],
                        "constructorArguments": "",
                        "name": "redeemAllowed",
                        "returnParams": [
                            {
                                "name": "",
                                "type": "uint256",
                                "value": "0"
                            }
                        ],
                        "signature": "redeemAllowed(address,address,uint256)"
                    },
                    "errorInfo": "",
                    "fromAddress": "0x3d9819210a31b4961b30ef54be2aed79b9c9cd3b",
                    "gasUsed": 29947,
                    "id": 48,
                    "methodDecoded": true,
                    "operation": "DELEGATECALL",
                    "output": "0x0000000000000000000000000000000000000000000000000000000000000000",
                    "revert": false,
                    "revertMessage": "",
                    "selector": "0xeabe7d91",
                    "status": true,
                    "value": "0"
                },
                "nodeType": 0
            },
            "49": {
                "invocation": {
                    "address": "0x4ddc2d193948926d02f9b1fe9e1daa0718270ed5",
                    "callData": "0x",
                    "decodedMethod": {
                        "callParams": [],
                        "constructorArguments": "",
                        "name": "totalSupply",
                        "returnParams": [
                            {
                                "name": "",
                                "type": "uint256",
                                "value": "7,594,796,646,883,262"
                            }
                        ],
                        "signature": "totalSupply()"
                    },
                    "errorInfo": "",
                    "fromAddress": "0x3d9819210a31b4961b30ef54be2aed79b9c9cd3b",
                    "gasUsed": 344,
                    "id": 49,
                    "methodDecoded": true,
                    "operation": "STATICCALL",
                    "output": "0x000000000000000000000000000000000000000000000000001afb6d64475fbe",
                    "revert": false,
                    "revertMessage": "",
                    "selector": "0x18160ddd",
                    "status": true,
                    "value": "0"
                },
                "nodeType": 0
            },
            "5": {
                "invocation": {
                    "address": "0xa4f1671d3aee73c05b552d57f2d16d3cfcbd0217",
                    "callData": "0x000000000000000000000000103cc17c2b1586e5cd9bad308690bcd0bbe54d5e",
                    "decodedMethod": {
                        "callParams": [
                            {
                                "name": "",
                                "type": "address",
                                "value": "0x103cc17c2b1586e5cd9bad308690bcd0bbe54d5e"
                            }
                        ],
                        "constructorArguments": "",
                        "name": "feeCollector",
                        "returnParams": [
                            {
                                "name": "",
                                "type": "address",
                                "value": "0x80d426d65d926df121dc58c18d043b73e998ce2b"
                            }
                        ],
                        "signature": "feeCollector(address)"
                    },
                    "errorInfo": "",
                    "fromAddress": "0x103cc17c2b1586e5cd9bad308690bcd0bbe54d5e",
                    "gasUsed": 2663,
                    "id": 5,
                    "methodDecoded": true,
                    "operation": "STATICCALL",
                    "output": "0x00000000000000000000000080d426d65d926df121dc58c18d043b73e998ce2b",
                    "revert": false,
                    "revertMessage": "",
                    "selector": "0xa06e01ba",
                    "status": true,
                    "value": "0"
                },
                "nodeType": 0
            },
            "50": {
                "invocation": {
                    "address": "0x4ddc2d193948926d02f9b1fe9e1daa0718270ed5",
                    "callData": "0x000000000000000000000000ffc4c270244f9c0890c744f042f5f25f9ff8d4b5",
                    "decodedMethod": {
                        "callParams": [
                            {
                                "name": "owner",
                                "type": "address",
                                "value": "0xffc4c270244f9c0890c744f042f5f25f9ff8d4b5"
                            }
                        ],
                        "constructorArguments": "",
                        "name": "balanceOf",
                        "returnParams": [
                            {
                                "decimalAvailable": true,
                                "name": "",
                                "type": "uint256",
                                "value": "62,599,282,223,992"
                            }
                        ],
                        "signature": "balanceOf(address)"
                    },
                    "errorInfo": "",
                    "fromAddress": "0x3d9819210a31b4961b30ef54be2aed79b9c9cd3b",
                    "gasUsed": 553,
                    "id": 50,
                    "methodDecoded": true,
                    "operation": "STATICCALL",
                    "output": "0x000000000000000000000000000000000000000000000000000038ef07faeb78",
                    "revert": false,
                    "revertMessage": "",
                    "selector": "0x70a08231",
                    "status": true,
                    "value": "0"
                },
                "nodeType": 0
            },
            "51": {
                "event": {
                    "contract": "0x3d9819210a31b4961b30ef54be2aed79b9c9cd3b",
                    "decodedLog": {
                        "name": "DistributedSupplierComp",
                        "params": [
                            {
                                "name": "cToken",
                                "type": "address",
                                "value": "0x4ddc2d193948926d02f9b1fe9e1daa0718270ed5"
                            },
                            {
                                "name": "supplier",
                                "type": "address",
                                "value": "0xffc4c270244f9c0890c744f042f5f25f9ff8d4b5"
                            },
                            {
                                "name": "compDelta",
                                "type": "uint256",
                                "value": "208,403,989,245,519,583"
                            },
                            {
                                "name": "compSupplyIndex",
                                "type": "uint256",
                                "value": "4,186,999,756,400,513,367,586,329,022,951,127,900,739,760"
                            }
                        ],
                        "signature": "DistributedSupplierComp(address,address,uint256,uint256)"
                    },
                    "id": 51,
                    "logData": "0x00000000000000000000000000000000000000000000000002e46652f4c0e6df000000000000000000000000000030107c84cca43d007bcb50e39872527bd8b0",
                    "logDecoded": true,
                    "operation": "EVENT",
                    "revert": false,
                    "status": true,
                    "topics": [
                        "0x2caecd17d02f56fa897705dcc740da2d237c373f70686f4e0d9bd3bf0400ea7a",
                        "0x0000000000000000000000004ddc2d193948926d02f9b1fe9e1daa0718270ed5",
                        "0x000000000000000000000000ffc4c270244f9c0890c744f042f5f25f9ff8d4b5"
                    ]
                },
                "nodeType": 1
            },
            "52": {
                "invocation": {
                    "address": "0xffc4c270244f9c0890c744f042f5f25f9ff8d4b5",
                    "callData": "0x",
                    "decodedMethod": null,
                    "errorInfo": "",
                    "fromAddress": "0x4ddc2d193948926d02f9b1fe9e1daa0718270ed5",
                    "gasUsed": 112,
                    "id": 52,
                    "methodDecoded": false,
                    "operation": "CALL",
                    "output": "",
                    "revert": false,
                    "revertMessage": "",
                    "selector": "fallback",
                    "status": true,
                    "value": "0.995338833997732269"
                },
                "nodeType": 0
            },
            "53": {
                "event": {
                    "contract": "0x4ddc2d193948926d02f9b1fe9e1daa0718270ed5",
                    "decodedLog": {
                        "name": "Transfer",
                        "params": [
                            {
                                "name": "from",
                                "type": "address",
                                "value": "0xffc4c270244f9c0890c744f042f5f25f9ff8d4b5"
                            },
                            {
                                "name": "to",
                                "type": "address",
                                "value": "0x4ddc2d193948926d02f9b1fe9e1daa0718270ed5"
                            },
                            {
                                "decimalAvailable": true,
                                "name": "amount",
                                "type": "uint256",
                                "value": "4,962,526,700"
                            }
                        ],
                        "signature": "Transfer(address,address,uint256)"
                    },
                    "id": 53,
                    "logData": "0x0000000000000000000000000000000000000000000000000000000127ca25ec",
                    "logDecoded": true,
                    "operation": "EVENT",
                    "revert": false,
                    "status": true,
                    "topics": [
                        "0xddf252ad1be2c89b69c2b068fc378daa952ba7f163c4a11628f55a4df523b3ef",
                        "0x000000000000000000000000ffc4c270244f9c0890c744f042f5f25f9ff8d4b5",
                        "0x0000000000000000000000004ddc2d193948926d02f9b1fe9e1daa0718270ed5"
                    ]
                },
                "nodeType": 1
            },
            "54": {
                "event": {
                    "contract": "0x4ddc2d193948926d02f9b1fe9e1daa0718270ed5",
                    "decodedLog": {
                        "name": "Redeem",
                        "params": [
                            {
                                "name": "redeemer",
                                "type": "address",
                                "value": "0xffc4c270244f9c0890c744f042f5f25f9ff8d4b5"
                            },
                            {
                                "name": "redeemAmount",
                                "type": "uint256",
                                "value": "995,338,833,997,732,269"
                            },
                            {
                                "name": "redeemTokens",
                                "type": "uint256",
                                "value": "4,962,526,700"
                            }
                        ],
                        "signature": "Redeem(address,uint256,uint256)"
                    },
                    "id": 54,
                    "logData": "0x000000000000000000000000ffc4c270244f9c0890c744f042f5f25f9ff8d4b50000000000000000000000000000000000000000000000000dd027655f9619ad0000000000000000000000000000000000000000000000000000000127ca25ec",
                    "logDecoded": true,
                    "operation": "EVENT",
                    "revert": false,
                    "status": true,
                    "topics": [
                        "0xe5b754fb1abb7f01b499791d0b820ae3b6af3424ac1c59768edb53f4ec31a929"
                    ]
                },
                "nodeType": 1
            },
            "55": {
                "invocation": {
                    "address": "0x3d9819210a31b4961b30ef54be2aed79b9c9cd3b",
                    "callData": "0x0000000000000000000000004ddc2d193948926d02f9b1fe9e1daa0718270ed5000000000000000000000000ffc4c270244f9c0890c744f042f5f25f9ff8d4b50000000000000000000000000000000000000000000000000dd027655f9619ad0000000000000000000000000000000000000000000000000000000127ca25ec",
                    "decodedMethod": {
                        "callParams": [
                            {
                                "name": "cToken",
                                "type": "address",
                                "value": "0x4ddc2d193948926d02f9b1fe9e1daa0718270ed5"
                            },
                            {
                                "name": "redeemer",
                                "type": "address",
                                "value": "0xffc4c270244f9c0890c744f042f5f25f9ff8d4b5"
                            },
                            {
                                "name": "redeemAmount",
                                "type": "uint256",
                                "value": "995,338,833,997,732,269"
                            },
                            {
                                "name": "redeemTokens",
                                "type": "uint256",
                                "value": "4,962,526,700"
                            }
                        ],
                        "constructorArguments": "",
                        "name": "redeemVerify",
                        "returnParams": [],
                        "signature": "redeemVerify(address,address,uint256,uint256)"
                    },
                    "errorInfo": "",
                    "fromAddress": "0x4ddc2d193948926d02f9b1fe9e1daa0718270ed5",
                    "gasUsed": 993,
                    "id": 55,
                    "methodDecoded": true,
                    "operation": "CALL",
                    "output": "",
                    "revert": false,
                    "revertMessage": "",
                    "selector": "0x51dff989",
                    "status": true,
                    "value": "0"
                },
                "nodeType": 0
            },
            "56": {
                "invocation": {
                    "address": "0xbafe01ff935c7305907c33bf824352ee5979b526",
                    "callData": "0x0000000000000000000000004ddc2d193948926d02f9b1fe9e1daa0718270ed5000000000000000000000000ffc4c270244f9c0890c744f042f5f25f9ff8d4b50000000000000000000000000000000000000000000000000dd027655f9619ad0000000000000000000000000000000000000000000000000000000127ca25ec",
                    "decodedMethod": {
                        "callParams": [
                            {
                                "name": "cToken",
                                "type": "address",
                                "value": "0x4ddc2d193948926d02f9b1fe9e1daa0718270ed5"
                            },
                            {
                                "name": "redeemer",
                                "type": "address",
                                "value": "0xffc4c270244f9c0890c744f042f5f25f9ff8d4b5"
                            },
                            {
                                "name": "redeemAmount",
                                "type": "uint256",
                                "value": "995,338,833,997,732,269"
                            },
                            {
                                "name": "redeemTokens",
                                "type": "uint256",
                                "value": "4,962,526,700"
                            }
                        ],
                        "constructorArguments": "",
                        "name": "redeemVerify",
                        "returnParams": [],
                        "signature": "redeemVerify(address,address,uint256,uint256)"
                    },
                    "errorInfo": "",
                    "fromAddress": "0x3d9819210a31b4961b30ef54be2aed79b9c9cd3b",
                    "gasUsed": 380,
                    "id": 56,
                    "methodDecoded": true,
                    "operation": "DELEGATECALL",
                    "output": "",
                    "revert": false,
                    "revertMessage": "",
                    "selector": "0x51dff989",
                    "status": true,
                    "value": "0"
                },
                "nodeType": 0
            },
            "57": {
                "invocation": {
                    "address": "0xc02aaa39b223fe8d0a0e5c4f27ead9083c756cc2",
                    "callData": "0x",
                    "decodedMethod": {
                        "callParams": [],
                        "constructorArguments": "",
                        "name": "deposit",
                        "returnParams": [],
                        "signature": "deposit()"
                    },
                    "errorInfo": "",
                    "fromAddress": "0xffc4c270244f9c0890c744f042f5f25f9ff8d4b5",
                    "gasUsed": 23974,
                    "id": 57,
                    "methodDecoded": true,
                    "operation": "CALL",
                    "output": "",
                    "revert": false,
                    "revertMessage": "",
                    "selector": "0xd0e30db0",
                    "status": true,
                    "value": "0.995338833997732269"
                },
                "nodeType": 0
            },
            "58": {
                "event": {
                    "contract": "0xc02aaa39b223fe8d0a0e5c4f27ead9083c756cc2",
                    "decodedLog": {
                        "name": "Deposit",
                        "params": [
                            {
                                "name": "dst",
                                "type": "address",
                                "value": "0xffc4c270244f9c0890c744f042f5f25f9ff8d4b5"
                            },
                            {
                                "name": "wad",
                                "type": "uint256",
                                "value": "995,338,833,997,732,269"
                            }
                        ],
                        "signature": "Deposit(address,uint256)"
                    },
                    "id": 58,
                    "logData": "0x0000000000000000000000000000000000000000000000000dd027655f9619ad",
                    "logDecoded": true,
                    "operation": "EVENT",
                    "revert": false,
                    "status": true,
                    "topics": [
                        "0xe1fffcc4923d04b559f4d29a8bfc6cda04eb5b0d3c460751c2402c5c5cc9109c",
                        "0x000000000000000000000000ffc4c270244f9c0890c744f042f5f25f9ff8d4b5"
                    ]
                },
                "nodeType": 1
            },
            "59": {
                "invocation": {
                    "address": "0xc02aaa39b223fe8d0a0e5c4f27ead9083c756cc2",
                    "callData": "0x000000000000000000000000ffc4c270244f9c0890c744f042f5f25f9ff8d4b5",
                    "decodedMethod": {
                        "callParams": [
                            {
                                "name": "",
                                "type": "address",
                                "value": "0xffc4c270244f9c0890c744f042f5f25f9ff8d4b5"
                            }
                        ],
                        "constructorArguments": "",
                        "name": "balanceOf",
                        "returnParams": [
                            {
                                "decimalAvailable": true,
                                "name": "",
                                "type": "uint256",
                                "value": "995,338,833,997,732,269"
                            }
                        ],
                        "signature": "balanceOf(address)"
                    },
                    "errorInfo": "",
                    "fromAddress": "0xffc4c270244f9c0890c744f042f5f25f9ff8d4b5",
                    "gasUsed": 534,
                    "id": 59,
                    "methodDecoded": true,
                    "operation": "STATICCALL",
                    "output": "0x0000000000000000000000000000000000000000000000000dd027655f9619ad",
                    "revert": false,
                    "revertMessage": "",
                    "selector": "0x70a08231",
                    "status": true,
                    "value": "0"
                },
                "nodeType": 0
            },
            "6": {
                "invocation": {
                    "address": "0xa4f1671d3aee73c05b552d57f2d16d3cfcbd0217",
                    "callData": "0x000000000000000000000000103cc17c2b1586e5cd9bad308690bcd0bbe54d5e",
                    "decodedMethod": {
                        "callParams": [
                            {
                                "name": "",
                                "type": "address",
                                "value": "0x103cc17c2b1586e5cd9bad308690bcd0bbe54d5e"
                            }
                        ],
                        "constructorArguments": "",
                        "name": "poolRewards",
                        "returnParams": [
                            {
                                "name": "",
                                "type": "address",
                                "value": "0x93567318aabd27e21c52f766d2844fc6de9dc738"
                            }
                        ],
                        "signature": "poolRewards(address)"
                    },
                    "errorInfo": "",
                    "fromAddress": "0x103cc17c2b1586e5cd9bad308690bcd0bbe54d5e",
                    "gasUsed": 2640,
                    "id": 6,
                    "methodDecoded": true,
                    "operation": "STATICCALL",
                    "output": "0x00000000000000000000000093567318aabd27e21c52f766d2844fc6de9dc738",
                    "revert": false,
                    "revertMessage": "",
                    "selector": "0xdd5aba4b",
                    "status": true,
                    "value": "0"
                },
                "nodeType": 0
            },
            "60": {
                "invocation": {
                    "address": "0xc02aaa39b223fe8d0a0e5c4f27ead9083c756cc2",
                    "callData": "0x000000000000000000000000103cc17c2b1586e5cd9bad308690bcd0bbe54d5e0000000000000000000000000000000000000000000000000dd027655f9619ad",
                    "decodedMethod": {
                        "callParams": [
                            {
                                "name": "dst",
                                "type": "address",
                                "value": "0x103cc17c2b1586e5cd9bad308690bcd0bbe54d5e"
                            },
                            {
                                "decimalAvailable": true,
                                "name": "wad",
                                "type": "uint256",
                                "value": "995,338,833,997,732,269"
                            }
                        ],
                        "constructorArguments": "",
                        "name": "transfer",
                        "returnParams": [
                            {
                                "name": "",
                                "type": "bool",
                                "value": true
                            }
                        ],
                        "signature": "transfer(address,uint256)"
                    },
                    "errorInfo": "",
                    "fromAddress": "0xffc4c270244f9c0890c744f042f5f25f9ff8d4b5",
                    "gasUsed": 23162,
                    "id": 60,
                    "methodDecoded": true,
                    "operation": "CALL",
                    "output": "0x0000000000000000000000000000000000000000000000000000000000000001",
                    "revert": false,
                    "revertMessage": "",
                    "selector": "0xa9059cbb",
                    "status": true,
                    "value": "0"
                },
                "nodeType": 0
            },
            "61": {
                "event": {
                    "contract": "0xc02aaa39b223fe8d0a0e5c4f27ead9083c756cc2",
                    "decodedLog": {
                        "name": "Transfer",
                        "params": [
                            {
                                "name": "src",
                                "type": "address",
                                "value": "0xffc4c270244f9c0890c744f042f5f25f9ff8d4b5"
                            },
                            {
                                "name": "dst",
                                "type": "address",
                                "value": "0x103cc17c2b1586e5cd9bad308690bcd0bbe54d5e"
                            },
                            {
                                "decimalAvailable": true,
                                "name": "wad",
                                "type": "uint256",
                                "value": "995,338,833,997,732,269"
                            }
                        ],
                        "signature": "Transfer(address,address,uint256)"
                    },
                    "id": 61,
                    "logData": "0x0000000000000000000000000000000000000000000000000dd027655f9619ad",
                    "logDecoded": true,
                    "operation": "EVENT",
                    "revert": false,
                    "status": true,
                    "topics": [
                        "0xddf252ad1be2c89b69c2b068fc378daa952ba7f163c4a11628f55a4df523b3ef",
                        "0x000000000000000000000000ffc4c270244f9c0890c744f042f5f25f9ff8d4b5",
                        "0x000000000000000000000000103cc17c2b1586e5cd9bad308690bcd0bbe54d5e"
                    ]
                },
                "nodeType": 1
            },
            "62": {
                "invocation": {
                    "address": "0xc02aaa39b223fe8d0a0e5c4f27ead9083c756cc2",
                    "callData": "0x000000000000000000000000103cc17c2b1586e5cd9bad308690bcd0bbe54d5e",
                    "decodedMethod": {
                        "callParams": [
                            {
                                "name": "",
                                "type": "address",
                                "value": "0x103cc17c2b1586e5cd9bad308690bcd0bbe54d5e"
                            }
                        ],
                        "constructorArguments": "",
                        "name": "balanceOf",
                        "returnParams": [
                            {
                                "decimalAvailable": true,
                                "name": "",
                                "type": "uint256",
                                "value": "995,338,833,997,732,269"
                            }
                        ],
                        "signature": "balanceOf(address)"
                    },
                    "errorInfo": "",
                    "fromAddress": "0x103cc17c2b1586e5cd9bad308690bcd0bbe54d5e",
                    "gasUsed": 534,
                    "id": 62,
                    "methodDecoded": true,
                    "operation": "STATICCALL",
                    "output": "0x0000000000000000000000000000000000000000000000000dd027655f9619ad",
                    "revert": false,
                    "revertMessage": "",
                    "selector": "0x70a08231",
                    "status": true,
                    "value": "0"
                },
                "nodeType": 0
            },
            "63": {
                "invocation": {
                    "address": "0xc02aaa39b223fe8d0a0e5c4f27ead9083c756cc2",
                    "callData": "0x0000000000000000000000000000000000000000000000000dd027655f9619ad",
                    "decodedMethod": {
                        "callParams": [
                            {
                                "name": "wad",
                                "type": "uint256",
                                "value": "995,338,833,997,732,269"
                            }
                        ],
                        "constructorArguments": "",
                        "name": "withdraw",
                        "returnParams": [],
                        "signature": "withdraw(uint256)"
                    },
                    "errorInfo": "",
                    "fromAddress": "0x103cc17c2b1586e5cd9bad308690bcd0bbe54d5e",
                    "gasUsed": 9321,
                    "id": 63,
                    "methodDecoded": true,
                    "operation": "CALL",
                    "output": "",
                    "revert": false,
                    "revertMessage": "",
                    "selector": "0x2e1a7d4d",
                    "status": true,
                    "value": "0"
                },
                "nodeType": 0
            },
            "64": {
                "invocation": {
                    "address": "0x103cc17c2b1586e5cd9bad308690bcd0bbe54d5e",
                    "callData": "0x",
                    "decodedMethod": null,
                    "errorInfo": "",
                    "fromAddress": "0xc02aaa39b223fe8d0a0e5c4f27ead9083c756cc2",
                    "gasUsed": 181,
                    "id": 64,
                    "methodDecoded": false,
                    "operation": "CALL",
                    "output": "",
                    "revert": false,
                    "revertMessage": "",
                    "selector": "fallback",
                    "status": true,
                    "value": "0.995338833997732269"
                },
                "nodeType": 0
            },
            "65": {
                "event": {
                    "contract": "0xc02aaa39b223fe8d0a0e5c4f27ead9083c756cc2",
                    "decodedLog": {
                        "name": "Withdrawal",
                        "params": [
                            {
                                "name": "src",
                                "type": "address",
                                "value": "0x103cc17c2b1586e5cd9bad308690bcd0bbe54d5e"
                            },
                            {
                                "name": "wad",
                                "type": "uint256",
                                "value": "995,338,833,997,732,269"
                            }
                        ],
                        "signature": "Withdrawal(address,uint256)"
                    },
                    "id": 65,
                    "logData": "0x0000000000000000000000000000000000000000000000000dd027655f9619ad",
                    "logDecoded": true,
                    "operation": "EVENT",
                    "revert": false,
                    "status": true,
                    "topics": [
                        "0x7fcf532c15f0a6db0bd6d0e038bea71d30d808c7d98cb3bf7268a95bf5081b65",
                        "0x000000000000000000000000103cc17c2b1586e5cd9bad308690bcd0bbe54d5e"
                    ]
                },
                "nodeType": 1
            },
            "66": {
                "invocation": {
                    "address": "0x905c97087362ff456681ab086577d581cc5e96fa",
                    "callData": "0x",
                    "decodedMethod": null,
                    "errorInfo": "",
                    "fromAddress": "0x103cc17c2b1586e5cd9bad308690bcd0bbe54d5e",
                    "gasUsed": 0,
                    "id": 66,
                    "methodDecoded": false,
                    "operation": "CALL",
                    "output": "",
                    "revert": false,
                    "revertMessage": "",
                    "selector": "fallback",
                    "status": true,
                    "value": "0.995338833997732269"
                },
                "nodeType": 0
            },
            "67": {
                "event": {
                    "contract": "0x103cc17c2b1586e5cd9bad308690bcd0bbe54d5e",
                    "decodedLog": {
                        "name": "Withdraw",
                        "params": [
                            {
                                "name": "owner",
                                "type": "address",
                                "value": "0x905c97087362ff456681ab086577d581cc5e96fa"
                            },
                            {
                                "name": "shares",
                                "type": "uint256",
                                "value": "995,784,329,809,966,553"
                            },
                            {
                                "name": "amount",
                                "type": "uint256",
                                "value": "995,338,833,997,732,269"
                            }
                        ],
                        "signature": "Withdraw(address,uint256,uint256)"
                    },
                    "id": 67,
                    "logData": "0x0000000000000000000000000000000000000000000000000dd1bc92733935d90000000000000000000000000000000000000000000000000dd027655f9619ad",
                    "logDecoded": true,
                    "operation": "EVENT",
                    "revert": false,
                    "status": true,
                    "topics": [
                        "0xf279e6a1f5e320cca91135676d9cb6e44ca8a08c0b88342bcdb1144f6511b568",
                        "0x000000000000000000000000905c97087362ff456681ab086577d581cc5e96fa"
                    ]
                },
                "nodeType": 1
            },
            "7": {
                "invocation": {
                    "address": "0x93567318aabd27e21c52f766d2844fc6de9dc738",
                    "callData": "0x000000000000000000000000905c97087362ff456681ab086577d581cc5e96fa",
                    "decodedMethod": {
                        "callParams": [
                            {
                                "name": "_account",
                                "type": "address",
                                "value": "0x905c97087362ff456681ab086577d581cc5e96fa"
                            }
                        ],
                        "constructorArguments": "",
                        "name": "updateReward",
                        "returnParams": [],
                        "signature": "updateReward(address)"
                    },
                    "errorInfo": "",
                    "fromAddress": "0x103cc17c2b1586e5cd9bad308690bcd0bbe54d5e",
                    "gasUsed": 52857,
                    "id": 7,
                    "methodDecoded": true,
                    "operation": "CALL",
                    "output": "",
                    "revert": false,
                    "revertMessage": "",
                    "selector": "0x632447c9",
                    "status": true,
                    "value": "0"
                },
                "nodeType": 0
            },
            "8": {
                "invocation": {
                    "address": "0x103cc17c2b1586e5cd9bad308690bcd0bbe54d5e",
                    "callData": "0x",
                    "decodedMethod": {
                        "callParams": [],
                        "constructorArguments": "",
                        "name": "totalSupply",
                        "returnParams": [
                            {
                                "name": "",
                                "type": "uint256",
                                "value": "12,485,837,576,641,416,405,995"
                            }
                        ],
                        "signature": "totalSupply()"
                    },
                    "errorInfo": "",
                    "fromAddress": "0x93567318aabd27e21c52f766d2844fc6de9dc738",
                    "gasUsed": 2389,
                    "id": 8,
                    "methodDecoded": true,
                    "operation": "STATICCALL",
                    "output": "0x0000000000000000000000000000000000000000000002a4dbcdf32717be23eb",
                    "revert": false,
                    "revertMessage": "",
                    "selector": "0x18160ddd",
                    "status": true,
                    "value": "0"
                },
                "nodeType": 0
            },
            "9": {
                "invocation": {
                    "address": "0x103cc17c2b1586e5cd9bad308690bcd0bbe54d5e",
                    "callData": "0x",
                    "decodedMethod": {
                        "callParams": [],
                        "constructorArguments": "",
                        "name": "totalSupply",
                        "returnParams": [
                            {
                                "name": "",
                                "type": "uint256",
                                "value": "12,485,837,576,641,416,405,995"
                            }
                        ],
                        "signature": "totalSupply()"
                    },
                    "errorInfo": "",
                    "fromAddress": "0x93567318aabd27e21c52f766d2844fc6de9dc738",
                    "gasUsed": 389,
                    "id": 9,
                    "methodDecoded": true,
                    "operation": "STATICCALL",
                    "output": "0x0000000000000000000000000000000000000000000002a4dbcdf32717be23eb",
                    "revert": false,
                    "revertMessage": "",
                    "selector": "0x18160ddd",
                    "status": true,
                    "value": "0"
                },
                "nodeType": 0
            }
        },
        "gasFlame": [
            {
                "children": [
                    {
                        "children": [
                            {
                                "children": [],
                                "depth": 0,
                                "name": "Initial Gas",
                                "value": 21288
                            },
                            {
                                "children": [
                                    {
                                        "children": [],
                                        "depth": 1,
                                        "name": "strategy",
                                        "value": 2664
                                    },
                                    {
                                        "children": [],
                                        "depth": 1,
                                        "name": "beforeWithdraw",
                                        "value": 341
                                    },
                                    {
                                        "children": [],
                                        "depth": 1,
                                        "name": "withdrawFee",
                                        "value": 2580
                                    },
                                    {
                                        "children": [],
                                        "depth": 1,
                                        "name": "withdrawFee",
                                        "value": 580
                                    },
                                    {
                                        "children": [],
                                        "depth": 1,
                                        "name": "feeCollector",
                                        "value": 2663
                                    },
                                    {
                                        "children": [],
                                        "depth": 1,
                                        "name": "poolRewards",
                                        "value": 2640
                                    },
                                    {
                                        "children": [
                                            {
                                                "children": [],
                                                "depth": 2,
                                                "name": "totalSupply",
                                                "value": 2389
                                            },
                                            {
                                                "children": [],
                                                "depth": 2,
                                                "name": "totalSupply",
                                                "value": 389
                                            },
                                            {
                                                "children": [],
                                                "depth": 2,
                                                "name": "totalSupply",
                                                "value": 389
                                            },
                                            {
                                                "children": [],
                                                "depth": 2,
                                                "name": "totalSupply",
                                                "value": 389
                                            },
                                            {
                                                "children": [],
                                                "depth": 2,
                                                "name": "balanceOf",
                                                "value": 2521
                                            }
                                        ],
                                        "depth": 1,
                                        "name": "updateReward",
                                        "value": 52857
                                    },
                                    {
                                        "children": [
                                            {
                                                "children": [],
                                                "depth": 2,
                                                "name": "totalSupply",
                                                "value": 389
                                            },
                                            {
                                                "children": [],
                                                "depth": 2,
                                                "name": "totalSupply",
                                                "value": 389
                                            },
                                            {
                                                "children": [],
                                                "depth": 2,
                                                "name": "totalSupply",
                                                "value": 389
                                            },
                                            {
                                                "children": [],
                                                "depth": 2,
                                                "name": "totalSupply",
                                                "value": 389
                                            },
                                            {
                                                "children": [],
                                                "depth": 2,
                                                "name": "balanceOf",
                                                "value": 2521
                                            }
                                        ],
                                        "depth": 1,
                                        "name": "updateReward",
                                        "value": 20067
                                    },
                                    {
                                        "children": [],
                                        "depth": 1,
                                        "name": "balanceOf",
                                        "value": 2534
                                    },
                                    {
                                        "children": [],
                                        "depth": 1,
                                        "name": "strategy",
                                        "value": 664
                                    },
                                    {
                                        "children": [
                                            {
                                                "children": [],
                                                "depth": 2,
                                                "name": "balanceOf",
                                                "value": 2553
                                            },
                                            {
                                                "children": [],
                                                "depth": 2,
                                                "name": "balanceOf",
                                                "value": 2553
                                            },
                                            {
                                                "children": [],
                                                "depth": 2,
                                                "name": "balanceOf",
                                                "value": 553
                                            },
                                            {
                                                "children": [],
                                                "depth": 2,
                                                "name": "exchangeRateStored",
                                                "value": 8247
                                            },
                                            {
                                                "children": [],
                                                "depth": 2,
                                                "name": "interestFee",
                                                "value": 2646
                                            },
                                            {
                                                "children": [],
                                                "depth": 2,
                                                "name": "exchangeRateStored",
                                                "value": 2247
                                            }
                                        ],
                                        "depth": 1,
                                        "name": "totalLocked",
                                        "value": 29868
                                    },
                                    {
                                        "children": [],
                                        "depth": 1,
                                        "name": "poolRewards",
                                        "value": 640
                                    },
                                    {
                                        "children": [
                                            {
                                                "children": [],
                                                "depth": 2,
                                                "name": "totalSupply",
                                                "value": 389
                                            },
                                            {
                                                "children": [],
                                                "depth": 2,
                                                "name": "totalSupply",
                                                "value": 389
                                            },
                                            {
                                                "children": [],
                                                "depth": 2,
                                                "name": "totalSupply",
                                                "value": 389
                                            },
                                            {
                                                "children": [],
                                                "depth": 2,
                                                "name": "totalSupply",
                                                "value": 389
                                            },
                                            {
                                                "children": [],
                                                "depth": 2,
                                                "name": "balanceOf",
                                                "value": 521
                                            }
                                        ],
                                        "depth": 1,
                                        "name": "updateReward",
                                        "value": 8467
                                    },
                                    {
                                        "children": [],
                                        "depth": 1,
                                        "name": "balanceOf",
                                        "value": 534
                                    },
                                    {
                                        "children": [],
                                        "depth": 1,
                                        "name": "strategy",
                                        "value": 664
                                    },
                                    {
                                        "children": [
                                            {
                                                "children": [],
                                                "depth": 2,
                                                "name": "balanceOf",
                                                "value": 553
                                            },
                                            {
                                                "children": [],
                                                "depth": 2,
                                                "name": "exchangeRateStored",
                                                "value": 2247
                                            },
                                            {
                                                "children": [],
                                                "depth": 2,
                                                "name": "interestFee",
                                                "value": 646
                                            },
                                            {
                                                "children": [],
                                                "depth": 2,
                                                "name": "exchangeRateStored",
                                                "value": 2247
                                            },
                                            {
                                                "children": [
                                                    {
                                                        "children": [],
                                                        "depth": 3,
                                                        "name": "getBorrowRate",
                                                        "value": 8003
                                                    },
                                                    {
                                                        "children": [
                                                            {
                                                                "children": [
                                                                    {
                                                                        "children": [],
                                                                        "depth": 5,
                                                                        "name": "totalSupply",
                                                                        "value": 344
                                                                    },
                                                                    {
                                                                        "children": [],
                                                                        "depth": 5,
                                                                        "name": "balanceOf",
                                                                        "value": 553
                                                                    }
                                                                ],
                                                                "depth": 4,
                                                                "name": "redeemAllowed",
                                                                "value": 29947
                                                            }
                                                        ],
                                                        "depth": 3,
                                                        "name": "redeemAllowed",
                                                        "value": 35137
                                                    },
                                                    {
                                                        "children": [],
                                                        "depth": 3,
                                                        "name": "fallback",
                                                        "value": 112
                                                    },
                                                    {
                                                        "children": [
                                                            {
                                                                "children": [],
                                                                "depth": 4,
                                                                "name": "redeemVerify",
                                                                "value": 380
                                                            }
                                                        ],
                                                        "depth": 3,
                                                        "name": "redeemVerify",
                                                        "value": 993
                                                    }
                                                ],
                                                "depth": 2,
                                                "name": "redeemUnderlying",
                                                "value": 106868
                                            },
                                            {
                                                "children": [],
                                                "depth": 2,
                                                "name": "deposit",
                                                "value": 23974
                                            },
                                            {
                                                "children": [],
                                                "depth": 2,
                                                "name": "balanceOf",
                                                "value": 534
                                            },
                                            {
                                                "children": [],
                                                "depth": 2,
                                                "name": "transfer",
                                                "value": 23162
                                            }
                                        ],
                                        "depth": 1,
                                        "name": "withdraw",
                                        "value": 178681
                                    },
                                    {
                                        "children": [],
                                        "depth": 1,
                                        "name": "balanceOf",
                                        "value": 534
                                    },
                                    {
                                        "children": [
                                            {
                                                "children": [],
                                                "depth": 2,
                                                "name": "fallback",
                                                "value": 181
                                            }
                                        ],
                                        "depth": 1,
                                        "name": "withdraw",
                                        "value": 9321
                                    },
                                    {
                                        "children": [],
                                        "depth": 1,
                                        "name": "fallback",
                                        "value": 0
                                    }
                                ],
                                "depth": 0,
                                "name": "Executed Gas",
                                "value": 371564
                            }
                        ],
                        "depth": -1,
                        "name": "Actual Gas Used",
                        "value": 342652
                    },
                    {
                        "children": [],
                        "depth": -1,
                        "name": "Refunded Gas",
                        "value": 50200
                    }
                ],
                "depth": -2,
                "name": "Total Gas",
                "value": 392852
            }
        ],
        "isConfirmed": true,
        "mainTrace": [
            {
                "children": [
                    {
                        "children": [
                            {
                                "children": [],
                                "depth": 1,
                                "id": 1,
                                "order": 1
                            },
                            {
                                "children": [],
                                "depth": 1,
                                "id": 2,
                                "order": 2
                            },
                            {
                                "children": [],
                                "depth": 1,
                                "id": 3,
                                "order": 3
                            },
                            {
                                "children": [],
                                "depth": 1,
                                "id": 4,
                                "order": 4
                            },
                            {
                                "children": [],
                                "depth": 1,
                                "id": 5,
                                "order": 5
                            },
                            {
                                "children": [],
                                "depth": 1,
                                "id": 6,
                                "order": 6
                            },
                            {
                                "children": [
                                    {
                                        "children": [],
                                        "depth": 2,
                                        "id": 8,
                                        "order": 8
                                    },
                                    {
                                        "children": [],
                                        "depth": 2,
                                        "id": 9,
                                        "order": 9
                                    },
                                    {
                                        "children": [],
                                        "depth": 2,
                                        "id": 10,
                                        "order": 10
                                    },
                                    {
                                        "children": [],
                                        "depth": 2,
                                        "id": 11,
                                        "order": 11
                                    },
                                    {
                                        "children": [],
                                        "depth": 2,
                                        "id": 12,
                                        "order": 12
                                    }
                                ],
                                "depth": 1,
                                "id": 7,
                                "order": 7
                            },
                            {
                                "children": [
                                    {
                                        "children": [],
                                        "depth": 2,
                                        "id": 14,
                                        "order": 14
                                    },
                                    {
                                        "children": [],
                                        "depth": 2,
                                        "id": 15,
                                        "order": 15
                                    },
                                    {
                                        "children": [],
                                        "depth": 2,
                                        "id": 16,
                                        "order": 16
                                    },
                                    {
                                        "children": [],
                                        "depth": 2,
                                        "id": 17,
                                        "order": 17
                                    },
                                    {
                                        "children": [],
                                        "depth": 2,
                                        "id": 18,
                                        "order": 18
                                    }
                                ],
                                "depth": 1,
                                "id": 13,
                                "order": 13
                            },
                            {
                                "children": [],
                                "depth": 1,
                                "id": 19,
                                "order": 19
                            },
                            {
                                "children": [],
                                "depth": 1,
                                "id": 20,
                                "order": 20
                            },
                            {
                                "children": [],
                                "depth": 1,
                                "id": 21,
                                "order": 21
                            },
                            {
                                "children": [
                                    {
                                        "children": [],
                                        "depth": 2,
                                        "id": 23,
                                        "order": 23
                                    },
                                    {
                                        "children": [],
                                        "depth": 2,
                                        "id": 24,
                                        "order": 24
                                    },
                                    {
                                        "children": [],
                                        "depth": 2,
                                        "id": 25,
                                        "order": 25
                                    },
                                    {
                                        "children": [],
                                        "depth": 2,
                                        "id": 26,
                                        "order": 26
                                    },
                                    {
                                        "children": [],
                                        "depth": 2,
                                        "id": 27,
                                        "order": 27
                                    },
                                    {
                                        "children": [],
                                        "depth": 2,
                                        "id": 28,
                                        "order": 28
                                    }
                                ],
                                "depth": 1,
                                "id": 22,
                                "order": 22
                            },
                            {
                                "children": [],
                                "depth": 1,
                                "id": 29,
                                "order": 29
                            },
                            {
                                "children": [
                                    {
                                        "children": [],
                                        "depth": 2,
                                        "id": 31,
                                        "order": 31
                                    },
                                    {
                                        "children": [],
                                        "depth": 2,
                                        "id": 32,
                                        "order": 32
                                    },
                                    {
                                        "children": [],
                                        "depth": 2,
                                        "id": 33,
                                        "order": 33
                                    },
                                    {
                                        "children": [],
                                        "depth": 2,
                                        "id": 34,
                                        "order": 34
                                    },
                                    {
                                        "children": [],
                                        "depth": 2,
                                        "id": 35,
                                        "order": 35
                                    }
                                ],
                                "depth": 1,
                                "id": 30,
                                "order": 30
                            },
                            {
                                "children": [],
                                "depth": 1,
                                "id": 36,
                                "order": 36
                            },
                            {
                                "children": [],
                                "depth": 1,
                                "id": 37,
                                "order": 37
                            },
                            {
                                "children": [],
                                "depth": 1,
                                "id": 38,
                                "order": 38
                            },
                            {
                                "children": [
                                    {
                                        "children": [],
                                        "depth": 2,
                                        "id": 40,
                                        "order": 40
                                    },
                                    {
                                        "children": [],
                                        "depth": 2,
                                        "id": 41,
                                        "order": 41
                                    },
                                    {
                                        "children": [],
                                        "depth": 2,
                                        "id": 42,
                                        "order": 42
                                    },
                                    {
                                        "children": [],
                                        "depth": 2,
                                        "id": 43,
                                        "order": 43
                                    },
                                    {
                                        "children": [
                                            {
                                                "children": [],
                                                "depth": 3,
                                                "id": 45,
                                                "order": 45
                                            },
                                            {
                                                "children": [],
                                                "depth": 3,
                                                "id": 46,
                                                "order": 46
                                            },
                                            {
                                                "children": [
                                                    {
                                                        "children": [
                                                            {
                                                                "children": [],
                                                                "depth": 5,
                                                                "id": 49,
                                                                "order": 49
                                                            },
                                                            {
                                                                "children": [],
                                                                "depth": 5,
                                                                "id": 50,
                                                                "order": 50
                                                            },
                                                            {
                                                                "children": [],
                                                                "depth": 5,
                                                                "id": 51,
                                                                "order": 51
                                                            }
                                                        ],
                                                        "depth": 4,
                                                        "id": 48,
                                                        "order": 48
                                                    }
                                                ],
                                                "depth": 3,
                                                "id": 47,
                                                "order": 47
                                            },
                                            {
                                                "children": [],
                                                "depth": 3,
                                                "id": 52,
                                                "order": 52
                                            },
                                            {
                                                "children": [],
                                                "depth": 3,
                                                "id": 53,
                                                "order": 53
                                            },
                                            {
                                                "children": [],
                                                "depth": 3,
                                                "id": 54,
                                                "order": 54
                                            },
                                            {
                                                "children": [
                                                    {
                                                        "children": [],
                                                        "depth": 4,
                                                        "id": 56,
                                                        "order": 56
                                                    }
                                                ],
                                                "depth": 3,
                                                "id": 55,
                                                "order": 55
                                            }
                                        ],
                                        "depth": 2,
                                        "id": 44,
                                        "order": 44
                                    },
                                    {
                                        "children": [
                                            {
                                                "children": [],
                                                "depth": 3,
                                                "id": 58,
                                                "order": 58
                                            }
                                        ],
                                        "depth": 2,
                                        "id": 57,
                                        "order": 57
                                    },
                                    {
                                        "children": [],
                                        "depth": 2,
                                        "id": 59,
                                        "order": 59
                                    },
                                    {
                                        "children": [
                                            {
                                                "children": [],
                                                "depth": 3,
                                                "id": 61,
                                                "order": 61
                                            }
                                        ],
                                        "depth": 2,
                                        "id": 60,
                                        "order": 60
                                    }
                                ],
                                "depth": 1,
                                "id": 39,
                                "order": 39
                            },
                            {
                                "children": [],
                                "depth": 1,
                                "id": 62,
                                "order": 62
                            },
                            {
                                "children": [
                                    {
                                        "children": [],
                                        "depth": 2,
                                        "id": 64,
                                        "order": 64
                                    },
                                    {
                                        "children": [],
                                        "depth": 2,
                                        "id": 65,
                                        "order": 65
                                    }
                                ],
                                "depth": 1,
                                "id": 63,
                                "order": 63
                            },
                            {
                                "children": [],
                                "depth": 1,
                                "id": 66,
                                "order": 66
                            },
                            {
                                "children": [],
                                "depth": 1,
                                "id": 67,
                                "order": 67
                            }
                        ],
                        "depth": 0,
                        "id": 0,
                        "order": 0
                    }
                ],
                "depth": -1,
                "id": -1,
                "order": -1
            }
        ],
        "mainTraceNodeCount": 68,
        "parentIdMap": {
            "0": -1,
            "1": 0,
            "10": 7,
            "11": 7,
            "12": 7,
            "13": 0,
            "14": 13,
            "15": 13,
            "16": 13,
            "17": 13,
            "18": 13,
            "19": 0,
            "2": 0,
            "20": 0,
            "21": 0,
            "22": 0,
            "23": 22,
            "24": 22,
            "25": 22,
            "26": 22,
            "27": 22,
            "28": 22,
            "29": 0,
            "3": 0,
            "30": 0,
            "31": 30,
            "32": 30,
            "33": 30,
            "34": 30,
            "35": 30,
            "36": 0,
            "37": 0,
            "38": 0,
            "39": 0,
            "4": 0,
            "40": 39,
            "41": 39,
            "42": 39,
            "43": 39,
            "44": 39,
            "45": 44,
            "46": 44,
            "47": 44,
            "48": 47,
            "49": 48,
            "5": 0,
            "50": 48,
            "51": 48,
            "52": 44,
            "53": 44,
            "54": 44,
            "55": 44,
            "56": 55,
            "57": 39,
            "58": 57,
            "59": 39,
            "6": 0,
            "60": 39,
            "61": 60,
            "62": 0,
            "63": 0,
            "64": 63,
            "65": 63,
            "66": 0,
            "67": 0,
            "7": 0,
            "8": 7,
            "9": 7
        },
        "tidyTrace": [
            {
                "children": [
                    {
                        "children": [
                            {
                                "children": [],
                                "depth": 1,
                                "id": 2,
                                "order": 2
                            },
                            {
                                "children": [],
                                "depth": 1,
                                "id": 7,
                                "order": 7
                            },
                            {
                                "children": [],
                                "depth": 1,
                                "id": 13,
                                "order": 13
                            },
                            {
                                "children": [],
                                "depth": 1,
                                "id": 19,
                                "order": 19
                            },
                            {
                                "children": [],
                                "depth": 1,
                                "id": 30,
                                "order": 30
                            },
                            {
                                "children": [],
                                "depth": 1,
                                "id": 36,
                                "order": 36
                            },
                            {
                                "children": [
                                    {
                                        "children": [
                                            {
                                                "children": [],
                                                "depth": 3,
                                                "id": 46,
                                                "order": 46
                                            },
                                            {
                                                "children": [
                                                    {
                                                        "children": [
                                                            {
                                                                "children": [],
                                                                "depth": 5,
                                                                "id": 51,
                                                                "order": 51
                                                            }
                                                        ],
                                                        "depth": 4,
                                                        "id": 48,
                                                        "order": 48
                                                    }
                                                ],
                                                "depth": 3,
                                                "id": 47,
                                                "order": 47
                                            },
                                            {
                                                "children": [],
                                                "depth": 3,
                                                "id": 52,
                                                "order": 52
                                            },
                                            {
                                                "children": [],
                                                "depth": 3,
                                                "id": 53,
                                                "order": 53
                                            },
                                            {
                                                "children": [],
                                                "depth": 3,
                                                "id": 54,
                                                "order": 54
                                            },
                                            {
                                                "children": [
                                                    {
                                                        "children": [],
                                                        "depth": 4,
                                                        "id": 56,
                                                        "order": 56
                                                    }
                                                ],
                                                "depth": 3,
                                                "id": 55,
                                                "order": 55
                                            }
                                        ],
                                        "depth": 2,
                                        "id": 44,
                                        "order": 44
                                    },
                                    {
                                        "children": [
                                            {
                                                "children": [],
                                                "depth": 3,
                                                "id": 58,
                                                "order": 58
                                            }
                                        ],
                                        "depth": 2,
                                        "id": 57,
                                        "order": 57
                                    },
                                    {
                                        "children": [
                                            {
                                                "children": [],
                                                "depth": 3,
                                                "id": 61,
                                                "order": 61
                                            }
                                        ],
                                        "depth": 2,
                                        "id": 60,
                                        "order": 60
                                    }
                                ],
                                "depth": 1,
                                "id": 39,
                                "order": 39
                            },
                            {
                                "children": [
                                    {
                                        "children": [],
                                        "depth": 2,
                                        "id": 64,
                                        "order": 64
                                    },
                                    {
                                        "children": [],
                                        "depth": 2,
                                        "id": 65,
                                        "order": 65
                                    }
                                ],
                                "depth": 1,
                                "id": 63,
                                "order": 63
                            },
                            {
                                "children": [],
                                "depth": 1,
                                "id": 66,
                                "order": 66
                            },
                            {
                                "children": [],
                                "depth": 1,
                                "id": 67,
                                "order": 67
                            }
                        ],
                        "depth": 0,
                        "id": 0,
                        "order": 0
                    }
                ],
                "depth": -1,
                "id": -1,
                "order": -1
            }
        ],
        "tidyTraceNodeCount": 27
    },
    "state_change": {
        "stateChanges": [
            {
                "address": "0x103cc17c2b1586e5cd9bad308690bcd0bbe54d5e",
                "erc": "ERC-20",
                "slots": [
                    {
                        "current": "0x00000000000000000000000000000000000000000000000009ebd40646087d20",
                        "key": "0x93c4fbb84bccb381f971c1e3f0fddff1a363728dd21a7ed068f766f8da2ac2d0",
                        "prev": "0x00000000000000000000000000000000000000000000000009d69a0fa2869c09"
                    },
                    {
                        "current": "0x0000000000000000000000000000000000000000000002a4ce11708b4806cf29",
                        "key": "0x0000000000000000000000000000000000000000000000000000000000000002",
                        "prev": "0x0000000000000000000000000000000000000000000002a4dbcdf32717be23eb"
                    },
                    {
                        "current": "0x0000000000000000000000000000000000000000000000000000000000000000",
                        "key": "0x7a25d52387c7f84fcf9f11226fe4aaf33808a2b699d19ccc7d15fdbcdb106c33",
                        "prev": "0x0000000000000000000000000000000000000000000000000dd1bc92733935d9"
                    }
                ],
                "storageVariables": [
                    {
                        "name": "_balances",
                        "type": "mapping(address => uint256)",
                        "value": {
                            "pairs": [
                                {
                                    "key": "0x80d426d65d926df121dc58c18d043b73e998ce2b",
                                    "value": {
                                        "current": "714898089278209312",
                                        "prev": "708923383299349513",
                                        "typeTag": 1
                                    }
                                },
                                {
                                    "key": "0x905c97087362ff456681ab086577d581cc5e96fa",
                                    "value": {
                                        "current": "0",
                                        "prev": "995784329809966553",
                                        "typeTag": 1
                                    }
                                }
                            ],
                            "typeTag": 4
                        }
                    },
                    {
                        "name": "_totalSupply",
                        "type": "uint256",
                        "value": {
                            "current": "12484847767017585299241",
                            "prev": "12485837576641416405995",
                            "typeTag": 1
                        }
                    }
                ]
            },
            {
                "address": "0x3d9819210a31b4961b30ef54be2aed79b9c9cd3b",
                "erc": "",
                "slots": [
                    {
                        "current": "0x000000000000000000000000000030107c84cca43d007bcb50e39872527bd8b0",
                        "key": "0x0008a1cd97a87afc7d56f50a66a20f953bee8dbfc9acc7a1e35425f9769a6cc4",
                        "prev": "0x00000000000000000000000000003006b3ecf199b181c2c7ea4ad0b0632e6461"
                    },
                    {
                        "current": "0x00d2315c0000000000000000000030107c84cca43d007bcb50e39872527bd8b0",
                        "key": "0xcbbe2b5334364077d83764b558679a7a8e30cd828c7cd7f013347ea888b33c32",
                        "prev": "0x00d2313d0000000000000000000030105b82106ddc2bc5476284387e44d3e263"
                    },
                    {
                        "current": "0x0000000000000000000000000000000000000000000000001e21ba24032f6c4c",
                        "key": "0xd87ee28c43ed72d8b1a820b09d8b26b0740ba982346ed8e282d4bdbf4716fe0c",
                        "prev": "0x0000000000000000000000000000000000000000000000001b3d53d10e6e856d"
                    }
                ],
                "storageVariables": [
                    {
                        "name": "compSupplierIndex",
                        "type": "mapping(address => mapping(address => uint256))",
                        "value": {
                            "pairs": [
                                {
                                    "key": "0x4ddc2d193948926d02f9b1fe9e1daa0718270ed5",
                                    "value": {
                                        "pairs": [
                                            {
                                                "key": "0xffc4c270244f9c0890c744f042f5f25f9ff8d4b5",
                                                "value": {
                                                    "current": "4186999756400513367586329022951127900739760",
                                                    "prev": "4183670581019559143042028544897498397697121",
                                                    "typeTag": 1
                                                }
                                            }
                                        ],
                                        "typeTag": 4
                                    }
                                }
                            ],
                            "typeTag": 4
                        }
                    },
                    {
                        "name": "compSupplyState",
                        "type": "mapping(address => struct ComptrollerV3Storage.CompMarketState)",
                        "value": {
                            "pairs": [
                                {
                                    "key": "0x4ddc2d193948926d02f9b1fe9e1daa0718270ed5",
                                    "value": {
                                        "fields": [
                                            {
                                                "name": "index",
                                                "type": "uint224",
                                                "value": {
                                                    "current": "4186999756400513367586329022951127900739760",
                                                    "prev": "4186955877674657454315462618988091758862947",
                                                    "typeTag": 1
                                                }
                                            },
                                            {
                                                "name": "block",
                                                "type": "uint32",
                                                "value": {
                                                    "current": "13775196",
                                                    "prev": "13775165",
                                                    "typeTag": 1
                                                }
                                            }
                                        ],
                                        "typeTag": 3
                                    }
                                }
                            ],
                            "typeTag": 4
                        }
                    },
                    {
                        "name": "compAccrued",
                        "type": "mapping(address => uint256)",
                        "value": {
                            "pairs": [
                                {
                                    "key": "0xffc4c270244f9c0890c744f042f5f25f9ff8d4b5",
                                    "value": {
                                        "current": "2171221159204318284",
                                        "prev": "1962817169958798701",
                                        "typeTag": 1
                                    }
                                }
                            ],
                            "typeTag": 4
                        }
                    }
                ]
            },
            {
                "address": "0x4ddc2d193948926d02f9b1fe9e1daa0718270ed5",
                "erc": "ERC-20",
                "slots": [
                    {
                        "current": "0x0000000000000000000000000000000000000000000000000000000000d2315c",
                        "key": "0x000000000000000000000000000000000000000000000000000000000000000a",
                        "prev": "0x0000000000000000000000000000000000000000000000000000000000d2313d"
                    },
                    {
                        "current": "0x0000000000000000000000000000000000000000000000000ee6974dbdaa65b8",
                        "key": "0x000000000000000000000000000000000000000000000000000000000000000b",
                        "prev": "0x0000000000000000000000000000000000000000000000000ee696f781faed37"
                    },
                    {
                        "current": "0x000000000000000000000000000000000000000000000af39d1d7ec9862c813d",
                        "key": "0x000000000000000000000000000000000000000000000000000000000000000c",
                        "prev": "0x000000000000000000000000000000000000000000000af39cde1dcc855b7323"
                    },
                    {
                        "current": "0x000000000000000000000000000000000000000000000020aa246781876245a0",
                        "key": "0x000000000000000000000000000000000000000000000000000000000000000d",
                        "prev": "0x000000000000000000000000000000000000000000000020aa17ba8220d20f9b"
                    },
                    {
                        "current": "0x000000000000000000000000000000000000000000000000001afb6c3c7d39d2",
                        "key": "0x000000000000000000000000000000000000000000000000000000000000000e",
                        "prev": "0x000000000000000000000000000000000000000000000000001afb6d64475fbe"
                    },
                    {
                        "current": "0x000000000000000000000000000000000000000000000000000038ede030c58c",
                        "key": "0x1b72e91ba3bb3c75f452441a68076e6fe01f757a2851e002394d413f56986fec",
                        "prev": "0x000000000000000000000000000000000000000000000000000038ef07faeb78"
                    },
                    {
                        "current": "0x0000000000000000000000000000000000000000000000000000000000062646",
                        "key": "0x0000000000000000000000000000000000000000000000000000000000000000",
                        "prev": "0x0000000000000000000000000000000000000000000000000000000000062645"
                    }
                ],
                "storageVariables": [
                    {
                        "name": "borrowIndex",
                        "type": "uint256",
                        "value": {
                            "current": "1073711921324778936",
                            "prev": "1073711550956236087",
                            "typeTag": 1
                        }
                    },
                    {
                        "name": "totalBorrows",
                        "type": "uint256",
                        "value": {
                            "current": "51717544983050157064509",
                            "prev": "51717527143486867600163",
                            "typeTag": 1
                        }
                    },
                    {
                        "name": "totalReserves",
                        "type": "uint256",
                        "value": {
                            "current": "602555848250334791072",
                            "prev": "602552280337676898203",
                            "typeTag": 1
                        }
                    },
                    {
                        "name": "totalSupply",
                        "type": "uint256",
                        "value": {
                            "current": "7594791684356562",
                            "prev": "7594796646883262",
                            "typeTag": 1
                        }
                    },
                    {
                        "name": "accountTokens",
                        "type": "mapping(address => uint256)",
                        "value": {
                            "pairs": [
                                {
                                    "key": "0xffc4c270244f9c0890c744f042f5f25f9ff8d4b5",
                                    "value": {
                                        "current": "62594319697292",
                                        "prev": "62599282223992",
                                        "typeTag": 1
                                    }
                                }
                            ],
                            "typeTag": 4
                        }
                    },
                    {
                        "name": "_guardCounter",
                        "type": "uint256",
                        "value": {
                            "current": "403014",
                            "prev": "403013",
                            "typeTag": 1
                        }
                    },
                    {
                        "name": "accrualBlockNumber",
                        "type": "uint256",
                        "value": {
                            "current": "13775196",
                            "prev": "13775165",
                            "typeTag": 1
                        }
                    }
                ]
            },
            {
                "address": "0x93567318aabd27e21c52f766d2844fc6de9dc738",
                "erc": "",
                "slots": [
                    {
                        "current": "0x000000000000000000000000000000000000000000000000783dcba47a619369",
                        "key": "0x0000000000000000000000000000000000000000000000000000000000000004",
                        "prev": "0x000000000000000000000000000000000000000000000000781c63a68536841e"
                    },
                    {
                        "current": "0x0000000000000000000000000000000000000000000000000000000061b2d64b",
                        "key": "0x0000000000000000000000000000000000000000000000000000000000000003",
                        "prev": "0x0000000000000000000000000000000000000000000000000000000061b2577f"
                    },
                    {
                        "current": "0x0000000000000000000000000000000000000000000000003f748c8ff13fc064",
                        "key": "0xd9fd08c8e6bee9bdaf68ff426a360d0e59b0b4c46ac5127a387906ba1c0cc52d",
                        "prev": "0x0000000000000000000000000000000000000000000000000000000000000000"
                    },
                    {
                        "current": "0x000000000000000000000000000000000000000000000000783dcba47a619369",
                        "key": "0xcf12a8792c3c16e23bf7faf71665122431ce0468c388c886bd3d7542d9ca4859",
                        "prev": "0x0000000000000000000000000000000000000000000000003884798e4c0c0bbf"
                    },
                    {
                        "current": "0x000000000000000000000000000000000000000000000000017d866ab575de1b",
                        "key": "0x91df7ea1a73dbc8c7a927779fa81a3d80a9f42fb4e7799d06751d5acd8f10b9f",
                        "prev": "0x0000000000000000000000000000000000000000000000000165d7b5afc0b868"
                    },
                    {
                        "current": "0x000000000000000000000000000000000000000000000000783dcba47a619369",
                        "key": "0x270b67afc83fe9fed1d901c4e268998968d46b2dbd178df697f7f1b5c7e25518",
                        "prev": "0x000000000000000000000000000000000000000000000000781c63a68536841e"
                    }
                ],
                "storageVariables": [
                    {
                        "name": "lastUpdateTime",
                        "type": "uint256",
                        "value": {
                            "current": "1639110219",
                            "prev": "1639077759",
                            "typeTag": 1
                        }
                    },
                    {
                        "name": "rewards",
                        "type": "mapping(address => uint256)",
                        "value": {
                            "pairs": [
                                {
                                    "key": "0x80d426d65d926df121dc58c18d043b73e998ce2b",
                                    "value": {
                                        "current": "107389758995815963",
                                        "prev": "100723742023399528",
                                        "typeTag": 1
                                    }
                                },
                                {
                                    "key": "0x905c97087362ff456681ab086577d581cc5e96fa",
                                    "value": {
                                        "current": "4572434071543595108",
                                        "prev": "0",
                                        "typeTag": 1
                                    }
                                }
                            ],
                            "typeTag": 4
                        }
                    },
                    {
                        "name": "userRewardPerTokenPaid",
                        "type": "mapping(address => uint256)",
                        "value": {
                            "pairs": [
                                {
                                    "key": "0x80d426d65d926df121dc58c18d043b73e998ce2b",
                                    "value": {
                                        "current": "8664305165418992489",
                                        "prev": "8654902150749914142",
                                        "typeTag": 1
                                    }
                                },
                                {
                                    "key": "0x905c97087362ff456681ab086577d581cc5e96fa",
                                    "value": {
                                        "current": "8664305165418992489",
                                        "prev": "4072513615117945791",
                                        "typeTag": 1
                                    }
                                }
                            ],
                            "typeTag": 4
                        }
                    },
                    {
                        "name": "rewardPerTokenStored",
                        "type": "uint256",
                        "value": {
                            "current": "8664305165418992489",
                            "prev": "8654902150749914142",
                            "typeTag": 1
                        }
                    }
                ]
            },
            {
                "address": "0xffc4c270244f9c0890c744f042f5f25f9ff8d4b5",
                "erc": "",
                "slots": [
                    {
                        "current": "0x0000000000000000000000000000000000000000000000000031b720f2f0ea11",
                        "key": "0x0000000000000000000000000000000000000000000000000000000000000001",
                        "prev": "0x000000000000000000000000000000000000000000000000002d03c1df42d545"
                    },
                    {
                        "current": "0x000000000000000000000000000000000000000000a5e88e67f27a13ecc30956",
                        "key": "0x0000000000000000000000000000000000000000000000000000000000000002",
                        "prev": "0x000000000000000000000000000000000000000000a5e886c470f493735ee64e"
                    }
                ],
                "storageVariables": [
                    {
                        "name": "pendingFee",
                        "type": "uint256",
                        "value": {
                            "current": "13993626001533457",
                            "prev": "12670505161250117",
                            "typeTag": 1
                        }
                    },
                    {
                        "name": "exchangeRateStored",
                        "type": "uint256",
                        "value": {
                            "current": "200570976188281394538154326",
                            "prev": "200570835279227991554451022",
                            "typeTag": 1
                        }
                    }
                ]
            }
        ]
    }
}