{
    "balance_change": {
        "balanceChanges": [
            {
                "account": "0x0b5c4a7fcda49e0a8661419bb55b86161a86db2a",
                "assets": [
                    {
                        "address": "0xdac17f958d2ee523a2206206994597c13d831ec7",
                        "amount": "373.95",
                        "iconUrl": "https://assets.blocksec.com/icon/fcea71f3193ce895be44bfdf941f7e4c9381dd587f273c2d1a27f1263d84e4ea.png",
                        "isERC1155": false,
                        "isERC721": false,
                        "sign": false,
                        "value": "373.95"
                    }
                ]
            },
            {
                "account": "0x69e1c1ca4ee3bfde83e1cbe23f18bb3d81af5ffe",
                "assets": [
                    {
                        "address": "0xdac17f958d2ee523a2206206994597c13d831ec7",
                        "amount": "373.95",
                        "iconUrl": "https://assets.blocksec.com/icon/fcea71f3193ce895be44bfdf941f7e4c9381dd587f273c2d1a27f1263d84e4ea.png",
                        "isERC1155": false,
                        "isERC721": false,
                        "sign": true,
                        "value": "373.95"
                    }
                ]
            }
        ]
    },
    "profile": {
        "basic_info": {
            "baseFee": "0.76148826",
            "blockNumber": 20579941,
            "callData": "0xa9059cbb00000000000000000000000069e1c1ca4ee3bfde83e1cbe23f18bb3d81af5ffe00000000000000000000000000000000000000000000000000000000164a0630",
            "debugEnable": true,
            "errorInfo": "",
            "eventCount": 1,
            "feeRecipient": "0x95222290dd7278aa3ddd389cc1e1d165cc4bafe5",
            "formatValue": "0",
            "gasLimit": 84000,
            "gasPrice": "0.998849678",
            "gasUsed": 46109,
            "intTxnCount": 0,
            "internalRevert": false,
            "internalRevertMessage": "",
            "isContractCreation": false,
            "isFlashloan": false,
            "maxFee": "1.21195969",
            "nonce": 306295,
            "overwritedBlockNumber": -1,
            "priorityFee": "0.237361418",
            "receiver": "0xdac17f958d2ee523a2206206994597c13d831ec7",
            "revertMessage": "",
            "sender": "0x0b5c4a7fcda49e0a8661419bb55b86161a86db2a",
            "simulationEnable": true,
            "sourceTxnHash": "0x370fb86be29b021a8741e583eb69493b84b2ec27462fd2d9f189258172ef9db1",
            "status": true,
            "timestamp": "2024-08-21T22:21:47Z",
            "transactionFee": "0.000046055959802902",
            "txnHash": "0x370fb86be29b021a8741e583eb69493b84b2ec27462fd2d9f189258172ef9db1",
            "txnIndex": 76,
            "type": 2,
            "value": "0"
        },
        "fund_flow": [
            {
                "amount": "373.95",
                "from": "0x0b5c4a7fcda49e0a8661419bb55b86161a86db2a",
                "id": 1,
                "isERC1155": false,
                "isERC721": false,
                "isReverted": false,
                "order": 1,
                "to": "0x69e1c1ca4ee3bfde83e1cbe23f18bb3d81af5ffe",
                "token": "0xdac17f958d2ee523a2206206994597c13d831ec7"
            }
        ],
        "token_infos": [
            {
                "address": "0xc02aaa39b223fe8d0a0e5c4f27ead9083c756cc2",
                "decimals": 18
            },
            {
                "address": "0xdac17f958d2ee523a2206206994597c13d831ec7",
                "decimals": 6
            },
            {
                "address": "0xeeeeeeeeeeeeeeeeeeeeeeeeeeeeeeeeeeeeeeee",
                "decimals": 18
            }
        ]
    },
    "address_label": {
        "labels": [
            {
                "address": "0xeeeeeeeeeeeeeeeeeeeeeeeeeeeeeeeeeeeeeeee",
                "label": "Ether"
            },
            {
                "address": "0xdac17f958d2ee523a2206206994597c13d831ec7",
                "label": "Tether: USDT Stablecoin"
            },
            {
                "address": "0x0000000000000000000000000000000000000001",
                "label": "Precompiled"
            },
            {
                "address": "0x0000000000000000000000000000000000000002",
                "label": "Precompiled"
            },
            {
                "address": "0x0000000000000000000000000000000000000003",
                "label": "Precompiled"
            },
            {
                "address": "0x0000000000000000000000000000000000000004",
                "label": "Precompiled"
            }
        ]
    },
    "trace": {
        "accountLabels": null,
        "dataMap": {
            "-1": {
                "invocation": {
                    "address": "0x0b5c4a7fcda49e0a8661419bb55b86161a86db2a",
                    "callData": "",
                    "decodedMethod": null,
                    "errorInfo": "",
                    "fromAddress": "",
                    "gasUsed": 0,
                    "id": -1,
                    "methodDecoded": false,
                    "operation": "",
                    "output": "",
                    "revert": false,
                    "revertMessage": "",
                    "selector": "",
                    "status": false,
                    "value": ""
                },
                "nodeType": 0
            },
            "0": {
                "invocation": {
                    "address": "0xdac17f958d2ee523a2206206994597c13d831ec7",
                    "callData": "0x00000000000000000000000069e1c1ca4ee3bfde83e1cbe23f18bb3d81af5ffe00000000000000000000000000000000000000000000000000000000164a0630",
                    "decodedMethod": {
                        "callParams": [
                            {
                                "name": "_to",
                                "type": "address",
                                "value": "0x69e1c1ca4ee3bfde83e1cbe23f18bb3d81af5ffe"
                            },
                            {
                                "decimalAvailable": true,
                                "name": "_value",
                                "type": "uint256",
                                "value": "373,950,000"
                            }
                        ],
                        "constructorArguments": "",
                        "name": "transfer",
                        "returnParams": [],
                        "signature": "transfer(address,uint256)"
                    },
                    "errorInfo": "",
                    "fromAddress": "0x0b5c4a7fcda49e0a8661419bb55b86161a86db2a",
                    "gasUsed": 46109,
                    "id": 0,
                    "methodDecoded": true,
                    "operation": "CALL",
                    "output": "",
                    "revert": false,
                    "revertMessage": "",
                    "selector": "0xa9059cbb",
                    "status": true,
                    "value": "0"
                },
                "nodeType": 0
            },
            "1": {
                "event": {
                    "contract": "0xdac17f958d2ee523a2206206994597c13d831ec7",
                    "decodedLog": {
                        "name": "Transfer",
                        "params": [
                            {
                                "name": "from",
                                "type": "address",
                                "value": "0x0b5c4a7fcda49e0a8661419bb55b86161a86db2a"
                            },
                            {
                                "name": "to",
                                "type": "address",
                                "value": "0x69e1c1ca4ee3bfde83e1cbe23f18bb3d81af5ffe"
                            },
                            {
                                "decimalAvailable": true,
                                "name": "value",
                                "type": "uint256",
                                "value": "373,950,000"
                            }
                        ],
                        "signature": "Transfer(address,address,uint256)"
                    },
                    "id": 1,
                    "logData": "0x00000000000000000000000000000000000000000000000000000000164a0630",
                    "logDecoded": true,
                    "operation": "EVENT",
                    "revert": false,
                    "status": true,
                    "topics": [
                        "0xddf252ad1be2c89b69c2b068fc378daa952ba7f163c4a11628f55a4df523b3ef",
                        "0x0000000000000000000000000b5c4a7fcda49e0a8661419bb55b86161a86db2a",
                        "0x00000000000000000000000069e1c1ca4ee3bfde83e1cbe23f18bb3d81af5ffe"
                    ]
                },
                "nodeType": 1
            }
        },
        "gasFlame": [
            {
                "children": [
                    {
                        "children": [
                            {
                                "children": [],
                                "depth": 0,
                                "name": "Initial Gas",
                                "value": 21608
                            },
                            {
                                "children": [],
                                "depth": 0,
                                "name": "Executed Gas",
                                "value": 24501
                            }
                        ],
                        "depth": -1,
                        "name": "Actual Gas Used",
                        "value": 46109
                    },
                    {
                        "children": [],
                        "depth": -1,
                        "name": "Refunded Gas",
                        "value": 0
                    }
                ],
                "depth": -2,
                "name": "Total Gas",
                "value": 46109
            }
        ],
        "isConfirmed": true,
        "mainTrace": [
            {
                "children": [
                    {
                        "children": [
                            {
                                "children": [],
                                "depth": 1,
                                "id": 1,
                                "order": 1
                            }
                        ],
                        "depth": 0,
                        "id": 0,
                        "order": 0
                    }
                ],
                "depth": -1,
                "id": -1,
                "order": -1
            }
        ],
        "mainTraceNodeCount": 2,
        "parentIdMap": {
            "0": -1,
            "1": 0
        },
        "tidyTrace": [
            {
                "children": [
                    {
                        "children": [
                            {
                                "children": [],
                                "depth": 1,
                                "id": 1,
                                "order": 1
                            }
                        ],
                        "depth": 0,
                        "id": 0,
                        "order": 0
                    }
                ],
                "depth": -1,
                "id": -1,
                "order": -1
            }
        ],
        "tidyTraceNodeCount": 2
    },
    "state_change": {
        "stateChanges": [
            {
                "address": "0xdac17f958d2ee523a2206206994597c13d831ec7",
                "erc": "ERC-20",
                "slots": [
                    {
                        "current": "0x0000000000000000000000000000000000000000000000000000001fa9c9c3f6",
                        "key": "0x94bf8e606115de0e6bcb4993bd13f14880265a587ca849fa83e6c2e41c99c492",
                        "prev": "0x0000000000000000000000000000000000000000000000000000001fc013ca26"
                    },
                    {
                        "current": "0x0000000000000000000000000000000000000000000000000000000053ee82e0",
                        "key": "0x79753ba50e668517bc431e55e67de6765d097c7c5ba1eb78444ce5ae2dd4ec0e",
                        "prev": "0x000000000000000000000000000000000000000000000000000000003da47cb0"
                    }
                ],
                "storageVariables": [
                    {
                        "name": "balances",
                        "type": "mapping(address => uint256)",
                        "value": {
                            "pairs": [
                                {
                                    "key": "0x0b5c4a7fcda49e0a8661419bb55b86161a86db2a",
                                    "value": {
                                        "current": "135992558582",
                                        "prev": "136366508582",
                                        "typeTag": 1
                                    }
                                },
                                {
                                    "key": "0x69e1c1ca4ee3bfde83e1cbe23f18bb3d81af5ffe",
                                    "value": {
                                        "current": "1408140000",
                                        "prev": "1034190000",
                                        "typeTag": 1
                                    }
                                }
                            ],
                            "typeTag": 4
                        }
                    }
                ]
            }
        ]
    }
}