{
    "balance_change": {
        "balanceChanges": [
            {
                "account": "0x5f68790da31ffa31faa7e1d1961f52016043a436",
                "assets": [
                    {
                        "address": "0xeeeeeeeeeeeeeeeeeeeeeeeeeeeeeeeeeeeeeeee",
                        "amount": "3.659515169122750062",
                        "iconUrl": "https://assets.blocksec.com/image/1663669189317-3.png",
                        "isERC1155": false,
                        "isERC721": false,
                        "sign": false,
                        "value": "10232.656706464813372"
                    }
                ]
            },
            {
                "account": "0x1c727a55ea3c11b0ab7d3a361fe0f3c47ce6de5d",
                "assets": [
                    {
                        "address": "0xeeeeeeeeeeeeeeeeeeeeeeeeeeeeeeeeeeeeeeee",
                        "amount": "3.659515169122750062",
                        "iconUrl": "https://assets.blocksec.com/image/1663669189317-3.png",
                        "isERC1155": false,
                        "isERC721": false,
                        "sign": true,
                        "value": "10232.656706464813372"
                    }
                ]
            }
        ]
    },
    "profile": {
        "basic_info": {
            "baseFee": "46.98451725",
            "blockNumber": 14182710,
            "callData": "0x4e4e52500000000000000000000000001c727a55ea3c11b0ab7d3a361fe0f3c47ce6de5d000000000000000000000000f83cdf70b46512d3b49c24377c5fdb75413108bf",
            "debugEnable": true,
            "errorInfo": "",
            "eventCount": 0,
            "feeRecipient": "0x829bd824b016326a401d083b33d092293333a830",
            "formatValue": "3.659515169122750062",
            "gasLimit": 60000,
            "gasPrice": "70.194731102",
            "gasUsed": 33600,
            "intTxnCount": 1,
            "internalRevert": false,
            "internalRevertMessage": "",
            "isContractCreation": false,
            "isFlashloan": false,
            "maxFee": "",
            "nonce": 7,
            "overwritedBlockNumber": -1,
            "priorityFee": "",
            "receiver": "0x352e504813b9e0b30f9ca70efc27a52d298f6697",
            "revertMessage": "",
            "sender": "0x5f68790da31ffa31faa7e1d1961f52016043a436",
            "simulationEnable": true,
            "sourceTxnHash": "0x378058a67a9047c3081bcd38e85473a86ed3d1c49939b265516fdf5ce2d794cb",
            "status": true,
            "timestamp": "2022-02-11T04:54:10Z",
            "transactionFee": "0.0023585429650272",
            "txnHash": "0x378058a67a9047c3081bcd38e85473a86ed3d1c49939b265516fdf5ce2d794cb",
            "txnIndex": 42,
            "type": 0,
            "value": "3659515169122750062"
        },
        "fund_flow": [
            {
                "amount": "3.659515169122750062",
                "from": "0x5f68790da31ffa31faa7e1d1961f52016043a436",
                "id": 1,
                "isERC1155": false,
                "isERC721": false,
                "isReverted": false,
                "order": 1,
                "to": "0x352e504813b9e0b30f9ca70efc27a52d298f6697",
                "token": "0xeeeeeeeeeeeeeeeeeeeeeeeeeeeeeeeeeeeeeeee"
            },
            {
                "amount": "3.659515169122750062",
                "from": "0x352e504813b9e0b30f9ca70efc27a52d298f6697",
                "id": 2,
                "isERC1155": false,
                "isERC721": false,
                "isReverted": false,
                "order": 2,
                "to": "0x1c727a55ea3c11b0ab7d3a361fe0f3c47ce6de5d",
                "token": "0xeeeeeeeeeeeeeeeeeeeeeeeeeeeeeeeeeeeeeeee"
            }
        ],
        "token_infos": [
            {
                "address": "0xc02aaa39b223fe8d0a0e5c4f27ead9083c756cc2",
                "decimals": 18
            },
            {
                "address": "0xeeeeeeeeeeeeeeeeeeeeeeeeeeeeeeeeeeeeeeee",
                "decimals": 18
            }
        ]
    },
    "address_label": {
        "labels": [
            {
                "address": "0x0000000000000000000000000000000000000001",
                "label": "Precompiled"
            },
            {
                "address": "0x0000000000000000000000000000000000000002",
                "label": "Precompiled"
            },
            {
                "address": "0x0000000000000000000000000000000000000003",
                "label": "Precompiled"
            },
            {
                "address": "0x0000000000000000000000000000000000000004",
                "label": "Precompiled"
            },
            {
                "address": "0xeeeeeeeeeeeeeeeeeeeeeeeeeeeeeeeeeeeeeeee",
                "label": "Ether"
            },
            {
                "address": "0x1c727a55ea3c11b0ab7d3a361fe0f3c47ce6de5d",
                "label": "Uphold"
            },
            {
                "address": "0x352e504813b9e0b30f9ca70efc27a52d298f6697",
                "label": "ForkSweeper"
            }
        ]
    },
    "trace": {
        "accountLabels": null,
        "dataMap": {
            "-1": {
                "invocation": {
                    "address": "0x5f68790da31ffa31faa7e1d1961f52016043a436",
                    "callData": "",
                    "decodedMethod": null,
                    "errorInfo": "",
                    "fromAddress": "",
                    "gasUsed": 0,
                    "id": -1,
                    "methodDecoded": false,
                    "operation": "",
                    "output": "",
                    "revert": false,
                    "revertMessage": "",
                    "selector": "",
                    "status": false,
                    "value": ""
                },
                "nodeType": 0
            },
            "0": {
                "invocation": {
                    "address": "0x352e504813b9e0b30f9ca70efc27a52d298f6697",
                    "callData": "0x0000000000000000000000001c727a55ea3c11b0ab7d3a361fe0f3c47ce6de5d000000000000000000000000f83cdf70b46512d3b49c24377c5fdb75413108bf",
                    "decodedMethod": {
                        "callParams": [
                            {
                                "name": "ethAddress",
                                "type": "address",
                                "value": "0x1c727a55ea3c11b0ab7d3a361fe0f3c47ce6de5d"
                            },
                            {
                                "name": "etcAddress",
                                "type": "address",
                                "value": "0xf83cdf70b46512d3b49c24377c5fdb75413108bf"
                            }
                        ],
                        "constructorArguments": "",
                        "name": "redirect",
                        "returnParams": [],
                        "signature": "redirect(address,address)"
                    },
                    "errorInfo": "",
                    "fromAddress": "0x5f68790da31ffa31faa7e1d1961f52016043a436",
                    "gasUsed": 33600,
                    "id": 0,
                    "methodDecoded": true,
                    "operation": "CALL",
                    "output": "",
                    "revert": false,
                    "revertMessage": "",
                    "selector": "0x4e4e5250",
                    "status": true,
                    "value": "3.659515169122750062"
                },
                "nodeType": 0
            },
            "1": {
                "invocation": {
                    "address": "0x1c727a55ea3c11b0ab7d3a361fe0f3c47ce6de5d",
                    "callData": "0x",
                    "decodedMethod": null,
                    "errorInfo": "",
                    "fromAddress": "0x352e504813b9e0b30f9ca70efc27a52d298f6697",
                    "gasUsed": 0,
                    "id": 1,
                    "methodDecoded": false,
                    "operation": "CALL",
                    "output": "",
                    "revert": false,
                    "revertMessage": "",
                    "selector": "fallback",
                    "status": true,
                    "value": "3.659515169122750062"
                },
                "nodeType": 0
            }
        },
        "gasFlame": [
            {
                "children": [
                    {
                        "children": [
                            {
                                "children": [],
                                "depth": 0,
                                "name": "Initial Gas",
                                "value": 21800
                            },
                            {
                                "children": [
                                    {
                                        "children": [],
                                        "depth": 1,
                                        "name": "fallback",
                                        "value": 0
                                    }
                                ],
                                "depth": 0,
                                "name": "Executed Gas",
                                "value": 11800
                            }
                        ],
                        "depth": -1,
                        "name": "Actual Gas Used",
                        "value": 33600
                    },
                    {
                        "children": [],
                        "depth": -1,
                        "name": "Refunded Gas",
                        "value": 0
                    }
                ],
                "depth": -2,
                "name": "Total Gas",
                "value": 33600
            }
        ],
        "isConfirmed": true,
        "mainTrace": [
            {
                "children": [
                    {
                        "children": [
                            {
                                "children": [],
                                "depth": 1,
                                "id": 1,
                                "order": 1
                            }
                        ],
                        "depth": 0,
                        "id": 0,
                        "order": 0
                    }
                ],
                "depth": -1,
                "id": -1,
                "order": -1
            }
        ],
        "mainTraceNodeCount": 2,
        "parentIdMap": {
            "0": -1,
            "1": 0
        },
        "tidyTrace": [
            {
                "children": [
                    {
                        "children": [
                            {
                                "children": [],
                                "depth": 1,
                                "id": 1,
                                "order": 1
                            }
                        ],
                        "depth": 0,
                        "id": 0,
                        "order": 0
                    }
                ],
                "depth": -1,
                "id": -1,
                "order": -1
            }
        ],
        "tidyTraceNodeCount": 2
    },
    "state_change": {
        "stateChanges": []
    }
}