{
    "balance_change": {
        "balanceChanges": [
            {
                "account": "0x04630fb88294bfe6476856d93355e2e6a94d43af",
                "assets": [
                    {
                        "address": "0xdefa4e8a7bcba345f687a2f1456f5edd9ce97202",
                        "amount": "50,570",
                        "iconUrl": "https://assets.blocksec.com/icon/afa0a6545166f560e1c076cbb19045cd1f2a5ee4c283af4ff8f37a015b0391d7.png",
                        "isERC1155": false,
                        "isERC721": false,
                        "sign": false,
                        "value": "32223.203999999999425"
                    }
                ]
            },
            {
                "account": "0x81a58058df9dc84106781ed18def2837eeee308c",
                "assets": [
                    {
                        "address": "0xdefa4e8a7bcba345f687a2f1456f5edd9ce97202",
                        "amount": "50,570",
                        "iconUrl": "https://assets.blocksec.com/icon/afa0a6545166f560e1c076cbb19045cd1f2a5ee4c283af4ff8f37a015b0391d7.png",
                        "isERC1155": false,
                        "isERC721": false,
                        "sign": true,
                        "value": "32223.203999999999425"
                    }
                ]
            }
        ]
    },
    "profile": {
        "basic_info": {
            "baseFee": "9.050609397",
            "blockNumber": 16065124,
            "callData": "0xa9059cbb00000000000000000000000081a58058df9dc84106781ed18def2837eeee308c000000000000000000000000000000000000000000000ab567babca82fe80000",
            "debugEnable": true,
            "errorInfo": "",
            "eventCount": 1,
            "feeRecipient": "0xaab27b150451726ec7738aa1d0a94505c8729bd1",
            "formatValue": "0",
            "gasLimit": 88945,
            "gasPrice": "10.550609397",
            "gasUsed": 58863,
            "intTxnCount": 1,
            "internalRevert": false,
            "internalRevertMessage": "",
            "isContractCreation": false,
            "isFlashloan": false,
            "maxFee": "14.169336192",
            "nonce": 415,
            "overwritedBlockNumber": -1,
            "priorityFee": "1.5",
            "receiver": "0xdefa4e8a7bcba345f687a2f1456f5edd9ce97202",
            "revertMessage": "",
            "sender": "0x04630fb88294bfe6476856d93355e2e6a94d43af",
            "simulationEnable": true,
            "sourceTxnHash": "0x37f532ea30217b0adc16decfeab9ba90550bca284ad20dcffc0858dcea5de83f",
            "status": true,
            "timestamp": "2022-11-28T01:14:11Z",
            "transactionFee": "0.000621040520935611",
            "txnHash": "0x37f532ea30217b0adc16decfeab9ba90550bca284ad20dcffc0858dcea5de83f",
            "txnIndex": 69,
            "type": 2,
            "value": "0"
        },
        "fund_flow": [
            {
                "amount": "50,570",
                "from": "0x04630fb88294bfe6476856d93355e2e6a94d43af",
                "id": 1,
                "isERC1155": false,
                "isERC721": false,
                "isReverted": false,
                "order": 1,
                "to": "0x81a58058df9dc84106781ed18def2837eeee308c",
                "token": "0xdefa4e8a7bcba345f687a2f1456f5edd9ce97202"
            }
        ],
        "token_infos": [
            {
                "address": "0xc02aaa39b223fe8d0a0e5c4f27ead9083c756cc2",
                "decimals": 18
            },
            {
                "address": "0xdefa4e8a7bcba345f687a2f1456f5edd9ce97202",
                "decimals": 18
            },
            {
                "address": "0xeeeeeeeeeeeeeeeeeeeeeeeeeeeeeeeeeeeeeeee",
                "decimals": 18
            }
        ]
    },
    "address_label": {
        "labels": [
            {
                "address": "0xdefa4e8a7bcba345f687a2f1456f5edd9ce97202",
                "label": "Kyber Network: KNC Token"
            },
            {
                "address": "0xe5e8e834086f1a964f9a089eb6ae11796862e4ce",
                "label": "Kyber Network Crystal v2 (KNC)"
            },
            {
                "address": "0x0000000000000000000000000000000000000001",
                "label": "Precompiled"
            },
            {
                "address": "0x0000000000000000000000000000000000000002",
                "label": "Precompiled"
            },
            {
                "address": "0x0000000000000000000000000000000000000003",
                "label": "Precompiled"
            },
            {
                "address": "0x0000000000000000000000000000000000000004",
                "label": "Precompiled"
            },
            {
                "address": "0xeeeeeeeeeeeeeeeeeeeeeeeeeeeeeeeeeeeeeeee",
                "label": "Ether"
            }
        ]
    },
    "trace": {
        "accountLabels": null,
        "dataMap": {
            "-1": {
                "invocation": {
                    "address": "0x04630fb88294bfe6476856d93355e2e6a94d43af",
                    "callData": "",
                    "decodedMethod": null,
                    "errorInfo": "",
                    "fromAddress": "",
                    "gasUsed": 0,
                    "id": -1,
                    "methodDecoded": false,
                    "operation": "",
                    "output": "",
                    "revert": false,
                    "revertMessage": "",
                    "selector": "",
                    "status": false,
                    "value": ""
                },
                "nodeType": 0
            },
            "0": {
                "invocation": {
                    "address": "0xdefa4e8a7bcba345f687a2f1456f5edd9ce97202",
                    "callData": "0x00000000000000000000000081a58058df9dc84106781ed18def2837eeee308c000000000000000000000000000000000000000000000ab567babca82fe80000",
                    "decodedMethod": {
                        "callParams": [
                            {
                                "name": "recipient",
                                "type": "address",
                                "value": "0x81a58058df9dc84106781ed18def2837eeee308c"
                            },
                            {
                                "decimalAvailable": true,
                                "name": "amount",
                                "type": "uint256",
                                "value": "50,570,000,000,000,000,000,000"
                            }
                        ],
                        "constructorArguments": "",
                        "name": "transfer",
                        "returnParams": [
                            {
                                "name": "",
                                "type": "bool",
                                "value": true
                            }
                        ],
                        "signature": "transfer(address,uint256)"
                    },
                    "errorInfo": "",
                    "fromAddress": "0x04630fb88294bfe6476856d93355e2e6a94d43af",
                    "gasUsed": 58863,
                    "id": 0,
                    "methodDecoded": true,
                    "operation": "CALL",
                    "output": "0x0000000000000000000000000000000000000000000000000000000000000001",
                    "revert": false,
                    "revertMessage": "",
                    "selector": "0xa9059cbb",
                    "status": true,
                    "value": "0"
                },
                "nodeType": 0
            },
            "1": {
                "invocation": {
                    "address": "0xe5e8e834086f1a964f9a089eb6ae11796862e4ce",
                    "callData": "0x00000000000000000000000081a58058df9dc84106781ed18def2837eeee308c000000000000000000000000000000000000000000000ab567babca82fe80000",
                    "decodedMethod": {
                        "callParams": [
                            {
                                "name": "recipient",
                                "type": "address",
                                "value": "0x81a58058df9dc84106781ed18def2837eeee308c"
                            },
                            {
                                "decimalAvailable": true,
                                "name": "amount",
                                "type": "uint256",
                                "value": "50,570,000,000,000,000,000,000"
                            }
                        ],
                        "constructorArguments": "",
                        "name": "transfer",
                        "returnParams": [
                            {
                                "name": "",
                                "type": "bool",
                                "value": true
                            }
                        ],
                        "signature": "transfer(address,uint256)"
                    },
                    "errorInfo": "",
                    "fromAddress": "0xdefa4e8a7bcba345f687a2f1456f5edd9ce97202",
                    "gasUsed": 29961,
                    "id": 1,
                    "methodDecoded": true,
                    "operation": "DELEGATECALL",
                    "output": "0x0000000000000000000000000000000000000000000000000000000000000001",
                    "revert": false,
                    "revertMessage": "",
                    "selector": "0xa9059cbb",
                    "status": true,
                    "value": "0"
                },
                "nodeType": 0
            },
            "2": {
                "event": {
                    "contract": "0xdefa4e8a7bcba345f687a2f1456f5edd9ce97202",
                    "decodedLog": {
                        "name": "Transfer",
                        "params": [
                            {
                                "name": "from",
                                "type": "address",
                                "value": "0x04630fb88294bfe6476856d93355e2e6a94d43af"
                            },
                            {
                                "name": "to",
                                "type": "address",
                                "value": "0x81a58058df9dc84106781ed18def2837eeee308c"
                            },
                            {
                                "decimalAvailable": true,
                                "name": "value",
                                "type": "uint256",
                                "value": "50,570,000,000,000,000,000,000"
                            }
                        ],
                        "signature": "Transfer(address,address,uint256)"
                    },
                    "id": 2,
                    "logData": "0x000000000000000000000000000000000000000000000ab567babca82fe80000",
                    "logDecoded": true,
                    "operation": "EVENT",
                    "revert": false,
                    "status": true,
                    "topics": [
                        "0xddf252ad1be2c89b69c2b068fc378daa952ba7f163c4a11628f55a4df523b3ef",
                        "0x00000000000000000000000004630fb88294bfe6476856d93355e2e6a94d43af",
                        "0x00000000000000000000000081a58058df9dc84106781ed18def2837eeee308c"
                    ]
                },
                "nodeType": 1
            }
        },
        "gasFlame": [
            {
                "children": [
                    {
                        "children": [
                            {
                                "children": [],
                                "depth": 0,
                                "name": "Initial Gas",
                                "value": 21656
                            },
                            {
                                "children": [
                                    {
                                        "children": [],
                                        "depth": 1,
                                        "name": "transfer",
                                        "value": 29961
                                    }
                                ],
                                "depth": 0,
                                "name": "Executed Gas",
                                "value": 37207
                            }
                        ],
                        "depth": -1,
                        "name": "Actual Gas Used",
                        "value": 58863
                    },
                    {
                        "children": [],
                        "depth": -1,
                        "name": "Refunded Gas",
                        "value": 0
                    }
                ],
                "depth": -2,
                "name": "Total Gas",
                "value": 58863
            }
        ],
        "isConfirmed": true,
        "mainTrace": [
            {
                "children": [
                    {
                        "children": [
                            {
                                "children": [
                                    {
                                        "children": [],
                                        "depth": 2,
                                        "id": 2,
                                        "order": 2
                                    }
                                ],
                                "depth": 1,
                                "id": 1,
                                "order": 1
                            }
                        ],
                        "depth": 0,
                        "id": 0,
                        "order": 0
                    }
                ],
                "depth": -1,
                "id": -1,
                "order": -1
            }
        ],
        "mainTraceNodeCount": 3,
        "parentIdMap": {
            "0": -1,
            "1": 0,
            "2": 1
        },
        "tidyTrace": [
            {
                "children": [
                    {
                        "children": [
                            {
                                "children": [
                                    {
                                        "children": [],
                                        "depth": 2,
                                        "id": 2,
                                        "order": 2
                                    }
                                ],
                                "depth": 1,
                                "id": 1,
                                "order": 1
                            }
                        ],
                        "depth": 0,
                        "id": 0,
                        "order": 0
                    }
                ],
                "depth": -1,
                "id": -1,
                "order": -1
            }
        ],
        "tidyTraceNodeCount": 3
    },
    "state_change": {
        "stateChanges": [
            {
                "address": "0xdefa4e8a7bcba345f687a2f1456f5edd9ce97202",
                "erc": "ERC-20",
                "slots": [
                    {
                        "current": "0x0000000000000000000000000000000000000000000000003782dace9d900000",
                        "key": "0x7b5e0c98cc531b7e7d94f71505547911e58b833b094009bc2823f22ca242fe20",
                        "prev": "0x000000000000000000000000000000000000000000000ab59f3d9776cd780000"
                    },
                    {
                        "current": "0x000000000000000000000000000000000000000000000ab567babca82fe80000",
                        "key": "0xdda49fa93169866ad490ef9ba8c54894365daefb7b475a2d7d93785b851b72a8",
                        "prev": "0x0000000000000000000000000000000000000000000000000000000000000000"
                    }
                ],
                "storageVariables": [
                    {
                        "name": "_balances",
                        "type": "mapping(address => uint256)",
                        "value": {
                            "pairs": [
                                {
                                    "key": "0x04630fb88294bfe6476856d93355e2e6a94d43af",
                                    "value": {
                                        "current": "4000000000000000000",
                                        "prev": "50574000000000000000000",
                                        "typeTag": 1
                                    }
                                },
                                {
                                    "key": "0x81a58058df9dc84106781ed18def2837eeee308c",
                                    "value": {
                                        "current": "50570000000000000000000",
                                        "prev": "0",
                                        "typeTag": 1
                                    }
                                }
                            ],
                            "typeTag": 4
                        }
                    }
                ]
            }
        ]
    }
}