{
    "balance_change": {
        "balanceChanges": [
            {
                "account": "0x6d6bcac2266468a44da9fa482ca54aaed586e1e7",
                "assets": [
                    {
                        "address": "0xd533a949740bb3306d119cc777fa900ba034cd52",
                        "amount": "148.649700987003632667",
                        "iconUrl": "",
                        "isERC1155": false,
                        "isERC721": false,
                        "sign": true,
                        "value": "98.98583589590000705"
                    }
                ]
            },
            {
                "account": "0x0000000000000000000000000000000000000000",
                "assets": [
                    {
                        "address": "0xd533a949740bb3306d119cc777fa900ba034cd52",
                        "amount": "29,729.940197400726533505",
                        "iconUrl": "",
                        "isERC1155": false,
                        "isERC721": false,
                        "sign": false,
                        "value": "19797.16717918000141"
                    }
                ]
            },
            {
                "account": "0x1389388d01708118b497f59521f6943be2541bb7",
                "assets": [
                    {
                        "address": "0xd533a949740bb3306d119cc777fa900ba034cd52",
                        "amount": "594.59880394801453067",
                        "iconUrl": "",
                        "isERC1155": false,
                        "isERC721": false,
                        "sign": true,
                        "value": "395.9433435170100282"
                    }
                ]
            },
            {
                "account": "0x3fe65692bfcd0e6cf84cb1e7d24108e434a7587e",
                "assets": [
                    {
                        "address": "0xd533a949740bb3306d119cc777fa900ba034cd52",
                        "amount": "2,972.99401974007265335",
                        "iconUrl": "",
                        "isERC1155": false,
                        "isERC721": false,
                        "sign": true,
                        "value": "1979.716717918000141"
                    }
                ]
            },
            {
                "account": "0xbe99c9a460488ef88ef46db02a1222563acad636",
                "assets": [
                    {
                        "address": "0xd533a949740bb3306d119cc777fa900ba034cd52",
                        "amount": "24,675.850363842603022811",
                        "iconUrl": "",
                        "isERC1155": false,
                        "isERC721": false,
                        "sign": true,
                        "value": "16431.64875472400117"
                    }
                ]
            },
            {
                "account": "0xcf50b810e57ac33b91dcf525c6ddd9881b139332",
                "assets": [
                    {
                        "address": "0xd533a949740bb3306d119cc777fa900ba034cd52",
                        "amount": "1,337.847308883032694007",
                        "iconUrl": "",
                        "isERC1155": false,
                        "isERC721": false,
                        "sign": true,
                        "value": "890.87252306310006345"
                    }
                ]
            }
        ]
    },
    "profile": {
        "basic_info": {
            "baseFee": "27.354104289",
            "blockNumber": 19489506,
            "callData": "0xe1e60f1500000000000000000000000000000000000000000000000000000000000c6000",
            "debugEnable": true,
            "errorInfo": "",
            "eventCount": 11,
            "feeRecipient": "0x95222290dd7278aa3ddd389cc1e1d165cc4bafe5",
            "formatValue": "0",
            "gasLimit": 946168,
            "gasPrice": "31.09173255",
            "gasUsed": 630779,
            "intTxnCount": 44,
            "internalRevert": false,
            "internalRevertMessage": "",
            "isContractCreation": false,
            "isFlashloan": false,
            "maxFee": "",
            "nonce": 14184,
            "overwritedBlockNumber": -1,
            "priorityFee": "",
            "receiver": "0x6d6bcac2266468a44da9fa482ca54aaed586e1e7",
            "revertMessage": "",
            "sender": "0x051c42ee7a529410a10e5ec11b9e9b8ba7cbb795",
            "simulationEnable": true,
            "sourceTxnHash": "0x37555ba63a2d686842e895712738e7edfd162a64207601f519c887e4ebf44c33",
            "status": true,
            "timestamp": "2024-03-22T10:14:59Z",
            "transactionFee": "0.01961201196615645",
            "txnHash": "0x37555ba63a2d686842e895712738e7edfd162a64207601f519c887e4ebf44c33",
            "txnIndex": 5,
            "type": 1,
            "value": "0"
        },
        "fund_flow": [
            {
                "amount": "29,729.940197400726533505",
                "from": "0x0000000000000000000000000000000000000000",
                "id": 1,
                "isERC1155": false,
                "isERC721": false,
                "isReverted": false,
                "order": 1,
                "to": "0x989aeb4d175e16225e39e87d0d97a3360524ad80",
                "token": "0xd533a949740bb3306d119cc777fa900ba034cd52"
            },
            {
                "amount": "29,729.940197400726533505",
                "from": "0x989aeb4d175e16225e39e87d0d97a3360524ad80",
                "id": 2,
                "isERC1155": false,
                "isERC721": false,
                "isReverted": false,
                "order": 2,
                "to": "0xf403c135812408bfbe8713b5a23a04b3d48aae31",
                "token": "0xd533a949740bb3306d119cc777fa900ba034cd52"
            },
            {
                "amount": "594.59880394801453067",
                "from": "0xf403c135812408bfbe8713b5a23a04b3d48aae31",
                "id": 3,
                "isERC1155": false,
                "isERC721": false,
                "isReverted": false,
                "order": 3,
                "to": "0x1389388d01708118b497f59521f6943be2541bb7",
                "token": "0xd533a949740bb3306d119cc777fa900ba034cd52"
            },
            {
                "amount": "148.649700987003632667",
                "from": "0xf403c135812408bfbe8713b5a23a04b3d48aae31",
                "id": 4,
                "isERC1155": false,
                "isERC721": false,
                "isReverted": false,
                "order": 4,
                "to": "0xe4d89e8267d2e8f03f751fa807b3bbdb36729f9a",
                "token": "0xd533a949740bb3306d119cc777fa900ba034cd52"
            },
            {
                "amount": "24,675.850363842603022811",
                "from": "0xf403c135812408bfbe8713b5a23a04b3d48aae31",
                "id": 5,
                "isERC1155": false,
                "isERC721": false,
                "isReverted": false,
                "order": 5,
                "to": "0xbe99c9a460488ef88ef46db02a1222563acad636",
                "token": "0xd533a949740bb3306d119cc777fa900ba034cd52"
            },
            {
                "amount": "2,972.99401974007265335",
                "from": "0xf403c135812408bfbe8713b5a23a04b3d48aae31",
                "id": 6,
                "isERC1155": false,
                "isERC721": false,
                "isReverted": false,
                "order": 6,
                "to": "0x3fe65692bfcd0e6cf84cb1e7d24108e434a7587e",
                "token": "0xd533a949740bb3306d119cc777fa900ba034cd52"
            },
            {
                "amount": "1,337.847308883032694007",
                "from": "0xf403c135812408bfbe8713b5a23a04b3d48aae31",
                "id": 7,
                "isERC1155": false,
                "isERC721": false,
                "isReverted": false,
                "order": 7,
                "to": "0xcf50b810e57ac33b91dcf525c6ddd9881b139332",
                "token": "0xd533a949740bb3306d119cc777fa900ba034cd52"
            },
            {
                "amount": "148.649700987003632667",
                "from": "0xe4d89e8267d2e8f03f751fa807b3bbdb36729f9a",
                "id": 8,
                "isERC1155": false,
                "isERC721": false,
                "isReverted": false,
                "order": 8,
                "to": "0x6d6bcac2266468a44da9fa482ca54aaed586e1e7",
                "token": "0xd533a949740bb3306d119cc777fa900ba034cd52"
            }
        ],
        "token_infos": [
            {
                "address": "0xd533a949740bb3306d119cc777fa900ba034cd52",
                "decimals": 18
            },
            {
                "address": "0xeeeeeeeeeeeeeeeeeeeeeeeeeeeeeeeeeeeeeeee",
                "decimals": 18
            },
            {
                "address": "0xc02aaa39b223fe8d0a0e5c4f27ead9083c756cc2",
                "decimals": 18
            }
        ]
    },
    "address_label": {
        "labels": [
            {
                "address": "0xc19cf0eaa43ee080c3cb8fb7db388091d3a13eb7",
                "label": "StashTokenWrapper"
            },
            {
                "address": "0xd061d61a4d941c39e5453435b6345dc261c2fce0",
                "label": "Curve.fi: Token Minter"
            },
            {
                "address": "0xe4d89e8267d2e8f03f751fa807b3bbdb36729f9a",
                "label": "PoolHarvestHook"
            },
            {
                "address": "0x6d6bcac2266468a44da9fa482ca54aaed586e1e7",
                "label": "Harvester"
            },
            {
                "address": "0x0000000000000000000000000000000000000001",
                "label": "Precompiled"
            },
            {
                "address": "0x1389388d01708118b497f59521f6943be2541bb7",
                "label": "Convex Finance: Treasury Vault"
            },
            {
                "address": "0xbe99c9a460488ef88ef46db02a1222563acad636",
                "label": "BaseRewardPool"
            },
            {
                "address": "0xcf50b810e57ac33b91dcf525c6ddd9881b139332",
                "label": "Convex Finance: CVX Rewards"
            },
            {
                "address": "0x8e0c00ed546602fd9927df742bbabf726d5b0d16",
                "label": "0x8e0c_Vyper_contract"
            },
            {
                "address": "0x3fe65692bfcd0e6cf84cb1e7d24108e434a7587e",
                "label": "Convex Finance: cvxCRV Rewards"
            },
            {
                "address": "0xf403c135812408bfbe8713b5a23a04b3d48aae31",
                "label": "Convex Finance: Booster"
            },
            {
                "address": "0x0000000000000000000000000000000000000002",
                "label": "Precompiled"
            },
            {
                "address": "0x5f3b5dfeb7b28cdbd7faba78963ee202a494e2a2",
                "label": "Curve.fi: Voting Escrow"
            },
            {
                "address": "0xd533a949740bb3306d119cc777fa900ba034cd52",
                "label": "Curve.fi: CRV Token"
            },
            {
                "address": "0x0000000000000000000000000000000000000000",
                "label": "Null Address"
            },
            {
                "address": "0x4e3fbd56cd56c3e72c1403e103b45db9da5b9d2b",
                "label": "Convex Finance: CVX Token"
            },
            {
                "address": "0x5773f7df269a59607c45b57c5f350980bb1fc234",
                "label": "ExtraRewardStashV3"
            },
            {
                "address": "0x0000000000000000000000000000000000000004",
                "label": "Precompiled"
            },
            {
                "address": "0xeeeeeeeeeeeeeeeeeeeeeeeeeeeeeeeeeeeeeeee",
                "label": "Ether"
            },
            {
                "address": "0x5ae854b098727a9f1603a1e21c50d52dc834d846",
                "label": "0x5ae8_Vyper_contract"
            },
            {
                "address": "0x989aeb4d175e16225e39e87d0d97a3360524ad80",
                "label": "Convex Finance: Voter Proxy"
            },
            {
                "address": "0x512a68dd5433563bad526c8c2838c39debc9a756",
                "label": "Curve.fi crvUSDSUSD-f Gauge Deposit (crvUSDSUS...)"
            },
            {
                "address": "0x2f50d538606fa9edd2b11e2446beb18c9d5846bb",
                "label": "Curve.fi: Gauge Controller"
            },
            {
                "address": "0x0000000000000000000000000000000000000003",
                "label": "Precompiled"
            }
        ]
    },
    "trace": {
        "accountLabels": null,
        "dataMap": {
            "-1": {
                "invocation": {
                    "address": "0x051c42ee7a529410a10e5ec11b9e9b8ba7cbb795",
                    "callData": "",
                    "decodedMethod": null,
                    "errorInfo": "",
                    "fromAddress": "",
                    "gasUsed": 0,
                    "id": -1,
                    "methodDecoded": false,
                    "operation": "",
                    "output": "",
                    "revert": false,
                    "revertMessage": "",
                    "selector": "",
                    "status": false,
                    "value": ""
                },
                "nodeType": 0
            },
            "0": {
                "invocation": {
                    "address": "0x6d6bcac2266468a44da9fa482ca54aaed586e1e7",
                    "callData": "0x00000000000000000000000000000000000000000000000000000000000c6000",
                    "decodedMethod": {
                        "callParams": [
                            {
                                "name": "_data",
                                "type": "uint256",
                                "value": "811,008"
                            }
                        ],
                        "constructorArguments": "",
                        "name": "earmarkWithCheck",
                        "returnParams": [],
                        "signature": "earmarkWithCheck(uint256)"
                    },
                    "errorInfo": "",
                    "fromAddress": "0x051c42ee7a529410a10e5ec11b9e9b8ba7cbb795",
                    "gasUsed": 630779,
                    "id": 0,
                    "methodDecoded": true,
                    "operation": "CALL",
                    "output": "",
                    "revert": false,
                    "revertMessage": "",
                    "selector": "0xe1e60f15",
                    "status": true,
                    "value": "0"
                },
                "nodeType": 0
            },
            "1": {
                "invocation": {
                    "address": "0xd533a949740bb3306d119cc777fa900ba034cd52",
                    "callData": "0x0000000000000000000000001389388d01708118b497f59521f6943be2541bb7",
                    "decodedMethod": {
                        "callParams": [
                            {
                                "name": "account",
                                "type": "address",
                                "value": "0x1389388d01708118b497f59521f6943be2541bb7"
                            }
                        ],
                        "constructorArguments": "",
                        "name": "balanceOf",
                        "returnParams": [
                            {
                                "decimalAvailable": true,
                                "name": "",
                                "type": "uint256",
                                "value": "0"
                            }
                        ],
                        "signature": "balanceOf(address)"
                    },
                    "errorInfo": "",
                    "fromAddress": "0x6d6bcac2266468a44da9fa482ca54aaed586e1e7",
                    "gasUsed": 930,
                    "id": 1,
                    "methodDecoded": true,
                    "operation": "STATICCALL",
                    "output": "0x0000000000000000000000000000000000000000000000000000000000000000",
                    "revert": false,
                    "revertMessage": "",
                    "selector": "0x70a08231",
                    "status": true,
                    "value": "0"
                },
                "nodeType": 0
            },
            "10": {
                "invocation": {
                    "address": "0xd533a949740bb3306d119cc777fa900ba034cd52",
                    "callData": "0x",
                    "decodedMethod": {
                        "callParams": [],
                        "constructorArguments": "",
                        "name": "future_epoch_time_write",
                        "returnParams": [
                            {
                                "name": "",
                                "type": "uint256",
                                "value": "1,723,501,048"
                            }
                        ],
                        "signature": "future_epoch_time_write()"
                    },
                    "errorInfo": "",
                    "fromAddress": "0x512a68dd5433563bad526c8c2838c39debc9a756",
                    "gasUsed": 506,
                    "id": 10,
                    "methodDecoded": true,
                    "operation": "CALL",
                    "output": "0x0000000000000000000000000000000000000000000000000000000066ba89f8",
                    "revert": false,
                    "revertMessage": "",
                    "selector": "0xb26b238e",
                    "status": true,
                    "value": "0"
                },
                "nodeType": 0
            },
            "11": {
                "invocation": {
                    "address": "0xd533a949740bb3306d119cc777fa900ba034cd52",
                    "callData": "0x",
                    "decodedMethod": {
                        "callParams": [],
                        "constructorArguments": "",
                        "name": "rate",
                        "returnParams": [
                            {
                                "name": "",
                                "type": "uint256",
                                "value": "5,181,574,864,521,283,150"
                            }
                        ],
                        "signature": "rate()"
                    },
                    "errorInfo": "",
                    "fromAddress": "0x512a68dd5433563bad526c8c2838c39debc9a756",
                    "gasUsed": 969,
                    "id": 11,
                    "methodDecoded": true,
                    "operation": "STATICCALL",
                    "output": "0x00000000000000000000000000000000000000000000000047e8a6e2d8e2464e",
                    "revert": false,
                    "revertMessage": "",
                    "selector": "0x2c4e722e",
                    "status": true,
                    "value": "0"
                },
                "nodeType": 0
            },
            "12": {
                "invocation": {
                    "address": "0x2f50d538606fa9edd2b11e2446beb18c9d5846bb",
                    "callData": "0x000000000000000000000000512a68dd5433563bad526c8c2838c39debc9a756",
                    "decodedMethod": {
                        "callParams": [
                            {
                                "name": "addr",
                                "type": "address",
                                "value": "0x512a68dd5433563bad526c8c2838c39debc9a756"
                            }
                        ],
                        "constructorArguments": "",
                        "name": "checkpoint_gauge",
                        "returnParams": [],
                        "signature": "checkpoint_gauge(address)"
                    },
                    "errorInfo": "",
                    "fromAddress": "0x512a68dd5433563bad526c8c2838c39debc9a756",
                    "gasUsed": 34789,
                    "id": 12,
                    "methodDecoded": true,
                    "operation": "CALL",
                    "output": "",
                    "revert": false,
                    "revertMessage": "",
                    "selector": "0x615e5237",
                    "status": true,
                    "value": "0"
                },
                "nodeType": 0
            },
            "13": {
                "invocation": {
                    "address": "0x2f50d538606fa9edd2b11e2446beb18c9d5846bb",
                    "callData": "0x000000000000000000000000512a68dd5433563bad526c8c2838c39debc9a7560000000000000000000000000000000000000000000000000000000065fb7880",
                    "decodedMethod": {
                        "callParams": [
                            {
                                "name": "addr",
                                "type": "address",
                                "value": "0x512a68dd5433563bad526c8c2838c39debc9a756"
                            },
                            {
                                "name": "time",
                                "type": "uint256",
                                "value": "1,710,979,200"
                            }
                        ],
                        "constructorArguments": "",
                        "name": "gauge_relative_weight",
                        "returnParams": [
                            {
                                "name": "",
                                "type": "uint256",
                                "value": "11,230,267,301,800,366"
                            }
                        ],
                        "signature": "gauge_relative_weight(address,uint256)"
                    },
                    "errorInfo": "",
                    "fromAddress": "0x512a68dd5433563bad526c8c2838c39debc9a756",
                    "gasUsed": 2060,
                    "id": 13,
                    "methodDecoded": true,
                    "operation": "STATICCALL",
                    "output": "0x0000000000000000000000000000000000000000000000000027e5de5d41a9ae",
                    "revert": false,
                    "revertMessage": "",
                    "selector": "0xd3078c94",
                    "status": true,
                    "value": "0"
                },
                "nodeType": 0
            },
            "14": {
                "invocation": {
                    "address": "0x8e0c00ed546602fd9927df742bbabf726d5b0d16",
                    "callData": "0x000000000000000000000000989aeb4d175e16225e39e87d0d97a3360524ad80",
                    "decodedMethod": {
                        "callParams": [
                            {
                                "name": "_user",
                                "type": "address",
                                "value": "0x989aeb4d175e16225e39e87d0d97a3360524ad80"
                            }
                        ],
                        "constructorArguments": "",
                        "name": "adjusted_balance_of",
                        "returnParams": [
                            {
                                "name": "",
                                "type": "uint256",
                                "value": "316,187,379,323,450,203,787,795,663"
                            }
                        ],
                        "signature": "adjusted_balance_of(address)"
                    },
                    "errorInfo": "",
                    "fromAddress": "0x512a68dd5433563bad526c8c2838c39debc9a756",
                    "gasUsed": 2550,
                    "id": 14,
                    "methodDecoded": true,
                    "operation": "STATICCALL",
                    "output": "0x000000000000000000000000000000000000000001058b482dc281144f389ccf",
                    "revert": false,
                    "revertMessage": "",
                    "selector": "0xbbf7408a",
                    "status": true,
                    "value": "0"
                },
                "nodeType": 0
            },
            "15": {
                "invocation": {
                    "address": "0x5f3b5dfeb7b28cdbd7faba78963ee202a494e2a2",
                    "callData": "0x000000000000000000000000989aeb4d175e16225e39e87d0d97a3360524ad80",
                    "decodedMethod": {
                        "callParams": [
                            {
                                "name": "account",
                                "type": "address",
                                "value": "0x989aeb4d175e16225e39e87d0d97a3360524ad80"
                            }
                        ],
                        "constructorArguments": "",
                        "name": "balanceOf",
                        "returnParams": [
                            {
                                "decimalAvailable": true,
                                "name": "",
                                "type": "uint256",
                                "value": "316,187,379,323,450,203,787,795,663"
                            }
                        ],
                        "signature": "balanceOf(address)"
                    },
                    "errorInfo": "",
                    "fromAddress": "0x8e0c00ed546602fd9927df742bbabf726d5b0d16",
                    "gasUsed": 2065,
                    "id": 15,
                    "methodDecoded": true,
                    "operation": "STATICCALL",
                    "output": "0x000000000000000000000000000000000000000001058b482dc281144f389ccf",
                    "revert": false,
                    "revertMessage": "",
                    "selector": "0x70a08231",
                    "status": true,
                    "value": "0"
                },
                "nodeType": 0
            },
            "16": {
                "invocation": {
                    "address": "0x5f3b5dfeb7b28cdbd7faba78963ee202a494e2a2",
                    "callData": "0x",
                    "decodedMethod": {
                        "callParams": [],
                        "constructorArguments": "",
                        "name": "totalSupply",
                        "returnParams": [
                            {
                                "name": "",
                                "type": "uint256",
                                "value": "644,444,848,648,330,236,467,860,071"
                            }
                        ],
                        "signature": "totalSupply()"
                    },
                    "errorInfo": "",
                    "fromAddress": "0x512a68dd5433563bad526c8c2838c39debc9a756",
                    "gasUsed": 2754,
                    "id": 16,
                    "methodDecoded": true,
                    "operation": "STATICCALL",
                    "output": "0x0000000000000000000000000000000000000000021512813f6170fbde8fd267",
                    "revert": false,
                    "revertMessage": "",
                    "selector": "0x18160ddd",
                    "status": true,
                    "value": "0"
                },
                "nodeType": 0
            },
            "17": {
                "event": {
                    "contract": "0x512a68dd5433563bad526c8c2838c39debc9a756",
                    "decodedLog": {
                        "name": "UpdateLiquidityLimit",
                        "params": [
                            {
                                "name": "user",
                                "type": "address",
                                "value": "0x989aeb4d175e16225e39e87d0d97a3360524ad80"
                            },
                            {
                                "name": "original_balance",
                                "type": "uint256",
                                "value": "3,746,489,612,063,435,816,531,149"
                            },
                            {
                                "name": "original_supply",
                                "type": "uint256",
                                "value": "4,345,816,367,581,227,400,912,806"
                            },
                            {
                                "name": "working_balance",
                                "type": "uint256",
                                "value": "2,777,922,345,302,653,924,874,711"
                            },
                            {
                                "name": "working_supply",
                                "type": "uint256",
                                "value": "3,283,593,569,020,204,430,553,243"
                            }
                        ],
                        "signature": "UpdateLiquidityLimit(address,uint256,uint256,uint256,uint256)"
                    },
                    "id": 17,
                    "logData": "0x000000000000000000000000989aeb4d175e16225e39e87d0d97a3360524ad800000000000000000000000000000000000000000000319599bdc4302171d74cd0000000000000000000000000000000000000000000398432d66a932ddb55fa6000000000000000000000000000000000000000000024c3f78dacd63fef919d700000000000000000000000000000000000000000002b753f6cc47892f9e709b",
                    "logDecoded": true,
                    "operation": "EVENT",
                    "revert": false,
                    "status": true,
                    "topics": [
                        "0x7ecd84343f76a23d2227290e0288da3251b045541698e575a5515af4f04197a3"
                    ]
                },
                "nodeType": 1
            },
            "18": {
                "invocation": {
                    "address": "0x512a68dd5433563bad526c8c2838c39debc9a756",
                    "callData": "0x000000000000000000000000989aeb4d175e16225e39e87d0d97a3360524ad80",
                    "decodedMethod": {
                        "callParams": [
                            {
                                "name": "arg0",
                                "type": "address",
                                "value": "0x989aeb4d175e16225e39e87d0d97a3360524ad80"
                            }
                        ],
                        "constructorArguments": "",
                        "name": "integrate_fraction",
                        "returnParams": [
                            {
                                "name": "",
                                "type": "uint256",
                                "value": "608,411,170,577,276,013,748,588"
                            }
                        ],
                        "signature": "integrate_fraction(address)"
                    },
                    "errorInfo": "",
                    "fromAddress": "0xd061d61a4d941c39e5453435b6345dc261c2fce0",
                    "gasUsed": 1561,
                    "id": 18,
                    "methodDecoded": true,
                    "operation": "STATICCALL",
                    "output": "0x0000000000000000000000000000000000000000000080d609200b7f7119a16c",
                    "revert": false,
                    "revertMessage": "",
                    "selector": "0x09400707",
                    "status": true,
                    "value": "0"
                },
                "nodeType": 0
            },
            "19": {
                "invocation": {
                    "address": "0x5ae854b098727a9f1603a1e21c50d52dc834d846",
                    "callData": "0x000000000000000000000000989aeb4d175e16225e39e87d0d97a3360524ad80",
                    "decodedMethod": {
                        "callParams": [
                            {
                                "name": "arg0",
                                "type": "address",
                                "value": "0x989aeb4d175e16225e39e87d0d97a3360524ad80"
                            }
                        ],
                        "constructorArguments": "",
                        "name": "integrate_fraction",
                        "returnParams": [
                            {
                                "name": "",
                                "type": "uint256",
                                "value": "608,411,170,577,276,013,748,588"
                            }
                        ],
                        "signature": "integrate_fraction(address)"
                    },
                    "errorInfo": "",
                    "fromAddress": "0x512a68dd5433563bad526c8c2838c39debc9a756",
                    "gasUsed": 1389,
                    "id": 19,
                    "methodDecoded": true,
                    "operation": "DELEGATECALL",
                    "output": "0x0000000000000000000000000000000000000000000080d609200b7f7119a16c",
                    "revert": false,
                    "revertMessage": "",
                    "selector": "0x09400707",
                    "status": true,
                    "value": "0"
                },
                "nodeType": 0
            },
            "2": {
                "invocation": {
                    "address": "0xe4d89e8267d2e8f03f751fa807b3bbdb36729f9a",
                    "callData": "0x00000000000000000000000000000000000000000000000000000000000000c6",
                    "decodedMethod": {
                        "callParams": [
                            {
                                "name": "_pid",
                                "type": "uint256",
                                "value": "198"
                            }
                        ],
                        "constructorArguments": "",
                        "name": "earmarkRewards",
                        "returnParams": [
                            {
                                "name": "",
                                "type": "bool",
                                "value": true
                            }
                        ],
                        "signature": "earmarkRewards(uint256)"
                    },
                    "errorInfo": "",
                    "fromAddress": "0x6d6bcac2266468a44da9fa482ca54aaed586e1e7",
                    "gasUsed": 340793,
                    "id": 2,
                    "methodDecoded": true,
                    "operation": "CALL",
                    "output": "0x0000000000000000000000000000000000000000000000000000000000000001",
                    "revert": false,
                    "revertMessage": "",
                    "selector": "0xcc956f3f",
                    "status": true,
                    "value": "0"
                },
                "nodeType": 0
            },
            "20": {
                "invocation": {
                    "address": "0xd533a949740bb3306d119cc777fa900ba034cd52",
                    "callData": "0x000000000000000000000000989aeb4d175e16225e39e87d0d97a3360524ad8000000000000000000000000000000000000000000000064ba9cd358fdcf0f581",
                    "decodedMethod": {
                        "callParams": [
                            {
                                "name": "to",
                                "type": "address",
                                "value": "0x989aeb4d175e16225e39e87d0d97a3360524ad80"
                            },
                            {
                                "name": "amount",
                                "type": "uint256",
                                "value": "29,729,940,197,400,726,533,505"
                            }
                        ],
                        "constructorArguments": "",
                        "name": "mint",
                        "returnParams": [],
                        "signature": "mint(address,uint256)"
                    },
                    "errorInfo": "",
                    "fromAddress": "0xd061d61a4d941c39e5453435b6345dc261c2fce0",
                    "gasUsed": 26612,
                    "id": 20,
                    "methodDecoded": true,
                    "operation": "CALL",
                    "output": "0x0000000000000000000000000000000000000000000000000000000000000001",
                    "revert": false,
                    "revertMessage": "",
                    "selector": "0x40c10f19",
                    "status": true,
                    "value": "0"
                },
                "nodeType": 0
            },
            "21": {
                "event": {
                    "contract": "0xd533a949740bb3306d119cc777fa900ba034cd52",
                    "decodedLog": {
                        "name": "Transfer",
                        "params": [
                            {
                                "name": "from",
                                "type": "address",
                                "value": "0x0000000000000000000000000000000000000000"
                            },
                            {
                                "name": "to",
                                "type": "address",
                                "value": "0x989aeb4d175e16225e39e87d0d97a3360524ad80"
                            },
                            {
                                "decimalAvailable": true,
                                "name": "value",
                                "type": "uint256",
                                "value": "29,729,940,197,400,726,533,505"
                            }
                        ],
                        "signature": "Transfer(address,address,uint256)"
                    },
                    "id": 21,
                    "logData": "0x00000000000000000000000000000000000000000000064ba9cd358fdcf0f581",
                    "logDecoded": true,
                    "operation": "EVENT",
                    "revert": false,
                    "status": true,
                    "topics": [
                        "0xddf252ad1be2c89b69c2b068fc378daa952ba7f163c4a11628f55a4df523b3ef",
                        "0x0000000000000000000000000000000000000000000000000000000000000000",
                        "0x000000000000000000000000989aeb4d175e16225e39e87d0d97a3360524ad80"
                    ]
                },
                "nodeType": 1
            },
            "22": {
                "event": {
                    "contract": "0xd061d61a4d941c39e5453435b6345dc261c2fce0",
                    "decodedLog": {
                        "name": "Minted",
                        "params": [
                            {
                                "name": "recipient",
                                "type": "address",
                                "value": "0x989aeb4d175e16225e39e87d0d97a3360524ad80"
                            },
                            {
                                "name": "gauge",
                                "type": "address",
                                "value": "0x512a68dd5433563bad526c8c2838c39debc9a756"
                            },
                            {
                                "name": "minted",
                                "type": "uint256",
                                "value": "608,411,170,577,276,013,748,588"
                            }
                        ],
                        "signature": "Minted(address,address,uint256)"
                    },
                    "id": 22,
                    "logData": "0x000000000000000000000000512a68dd5433563bad526c8c2838c39debc9a7560000000000000000000000000000000000000000000080d609200b7f7119a16c",
                    "logDecoded": true,
                    "operation": "EVENT",
                    "revert": false,
                    "status": true,
                    "topics": [
                        "0x9d228d69b5fdb8d273a2336f8fb8612d039631024ea9bf09c424a9503aa078f0",
                        "0x000000000000000000000000989aeb4d175e16225e39e87d0d97a3360524ad80"
                    ]
                },
                "nodeType": 1
            },
            "23": {
                "invocation": {
                    "address": "0xd533a949740bb3306d119cc777fa900ba034cd52",
                    "callData": "0x000000000000000000000000989aeb4d175e16225e39e87d0d97a3360524ad80",
                    "decodedMethod": {
                        "callParams": [
                            {
                                "name": "account",
                                "type": "address",
                                "value": "0x989aeb4d175e16225e39e87d0d97a3360524ad80"
                            }
                        ],
                        "constructorArguments": "",
                        "name": "balanceOf",
                        "returnParams": [
                            {
                                "decimalAvailable": true,
                                "name": "",
                                "type": "uint256",
                                "value": "29,729,940,197,400,726,533,505"
                            }
                        ],
                        "signature": "balanceOf(address)"
                    },
                    "errorInfo": "",
                    "fromAddress": "0x989aeb4d175e16225e39e87d0d97a3360524ad80",
                    "gasUsed": 930,
                    "id": 23,
                    "methodDecoded": true,
                    "operation": "STATICCALL",
                    "output": "0x00000000000000000000000000000000000000000000064ba9cd358fdcf0f581",
                    "revert": false,
                    "revertMessage": "",
                    "selector": "0x70a08231",
                    "status": true,
                    "value": "0"
                },
                "nodeType": 0
            },
            "24": {
                "invocation": {
                    "address": "0xd533a949740bb3306d119cc777fa900ba034cd52",
                    "callData": "0x000000000000000000000000f403c135812408bfbe8713b5a23a04b3d48aae3100000000000000000000000000000000000000000000064ba9cd358fdcf0f581",
                    "decodedMethod": {
                        "callParams": [
                            {
                                "name": "recipient",
                                "type": "address",
                                "value": "0xf403c135812408bfbe8713b5a23a04b3d48aae31"
                            },
                            {
                                "decimalAvailable": true,
                                "name": "amount",
                                "type": "uint256",
                                "value": "29,729,940,197,400,726,533,505"
                            }
                        ],
                        "constructorArguments": "",
                        "name": "transfer",
                        "returnParams": [
                            {
                                "name": "",
                                "type": "bool",
                                "value": true
                            }
                        ],
                        "signature": "transfer(address,uint256)"
                    },
                    "errorInfo": "",
                    "fromAddress": "0x989aeb4d175e16225e39e87d0d97a3360524ad80",
                    "gasUsed": 22881,
                    "id": 24,
                    "methodDecoded": true,
                    "operation": "CALL",
                    "output": "0x0000000000000000000000000000000000000000000000000000000000000001",
                    "revert": false,
                    "revertMessage": "",
                    "selector": "0xa9059cbb",
                    "status": true,
                    "value": "0"
                },
                "nodeType": 0
            },
            "25": {
                "event": {
                    "contract": "0xd533a949740bb3306d119cc777fa900ba034cd52",
                    "decodedLog": {
                        "name": "Transfer",
                        "params": [
                            {
                                "name": "from",
                                "type": "address",
                                "value": "0x989aeb4d175e16225e39e87d0d97a3360524ad80"
                            },
                            {
                                "name": "to",
                                "type": "address",
                                "value": "0xf403c135812408bfbe8713b5a23a04b3d48aae31"
                            },
                            {
                                "decimalAvailable": true,
                                "name": "value",
                                "type": "uint256",
                                "value": "29,729,940,197,400,726,533,505"
                            }
                        ],
                        "signature": "Transfer(address,address,uint256)"
                    },
                    "id": 25,
                    "logData": "0x00000000000000000000000000000000000000000000064ba9cd358fdcf0f581",
                    "logDecoded": true,
                    "operation": "EVENT",
                    "revert": false,
                    "status": true,
                    "topics": [
                        "0xddf252ad1be2c89b69c2b068fc378daa952ba7f163c4a11628f55a4df523b3ef",
                        "0x000000000000000000000000989aeb4d175e16225e39e87d0d97a3360524ad80",
                        "0x000000000000000000000000f403c135812408bfbe8713b5a23a04b3d48aae31"
                    ]
                },
                "nodeType": 1
            },
            "26": {
                "invocation": {
                    "address": "0x17bc847623eb6bb2d475e1ee8a50fea2f192e05c",
                    "callData": "0x",
                    "decodedMethod": {
                        "callParams": [],
                        "constructorArguments": "",
                        "name": "claimRewards",
                        "returnParams": [
                            {
                                "name": "",
                                "type": "bool",
                                "value": true
                            }
                        ],
                        "signature": "claimRewards()"
                    },
                    "errorInfo": "",
                    "fromAddress": "0xf403c135812408bfbe8713b5a23a04b3d48aae31",
                    "gasUsed": 7182,
                    "id": 26,
                    "methodDecoded": true,
                    "operation": "CALL",
                    "output": "0x0000000000000000000000000000000000000000000000000000000000000001",
                    "revert": false,
                    "revertMessage": "",
                    "selector": "0x372500ab",
                    "status": true,
                    "value": "0"
                },
                "nodeType": 0
            },
            "27": {
                "invocation": {
                    "address": "0x5773f7df269a59607c45b57c5f350980bb1fc234",
                    "callData": "0x",
                    "decodedMethod": {
                        "callParams": [],
                        "constructorArguments": "",
                        "name": "claimRewards",
                        "returnParams": [
                            {
                                "name": "",
                                "type": "bool",
                                "value": true
                            }
                        ],
                        "signature": "claimRewards()"
                    },
                    "errorInfo": "",
                    "fromAddress": "0x17bc847623eb6bb2d475e1ee8a50fea2f192e05c",
                    "gasUsed": 7016,
                    "id": 27,
                    "methodDecoded": true,
                    "operation": "DELEGATECALL",
                    "output": "0x0000000000000000000000000000000000000000000000000000000000000001",
                    "revert": false,
                    "revertMessage": "",
                    "selector": "0x372500ab",
                    "status": true,
                    "value": "0"
                },
                "nodeType": 0
            },
            "28": {
                "invocation": {
                    "address": "0xd533a949740bb3306d119cc777fa900ba034cd52",
                    "callData": "0x000000000000000000000000f403c135812408bfbe8713b5a23a04b3d48aae31",
                    "decodedMethod": {
                        "callParams": [
                            {
                                "name": "account",
                                "type": "address",
                                "value": "0xf403c135812408bfbe8713b5a23a04b3d48aae31"
                            }
                        ],
                        "constructorArguments": "",
                        "name": "balanceOf",
                        "returnParams": [
                            {
                                "decimalAvailable": true,
                                "name": "",
                                "type": "uint256",
                                "value": "29,729,940,197,400,726,533,505"
                            }
                        ],
                        "signature": "balanceOf(address)"
                    },
                    "errorInfo": "",
                    "fromAddress": "0x17bc847623eb6bb2d475e1ee8a50fea2f192e05c",
                    "gasUsed": 930,
                    "id": 28,
                    "methodDecoded": true,
                    "operation": "STATICCALL",
                    "output": "0x00000000000000000000000000000000000000000000064ba9cd358fdcf0f581",
                    "revert": false,
                    "revertMessage": "",
                    "selector": "0x70a08231",
                    "status": true,
                    "value": "0"
                },
                "nodeType": 0
            },
            "29": {
                "invocation": {
                    "address": "0x512a68dd5433563bad526c8c2838c39debc9a756",
                    "callData": "0x0000000000000000000000000000000000000000000000000000000000000000",
                    "decodedMethod": {
                        "callParams": [
                            {
                                "name": "arg0",
                                "type": "uint256",
                                "value": "0"
                            }
                        ],
                        "constructorArguments": "",
                        "name": "reward_tokens",
                        "returnParams": [
                            {
                                "name": "",
                                "type": "address",
                                "value": "0x0000000000000000000000000000000000000000"
                            }
                        ],
                        "signature": "reward_tokens(uint256)"
                    },
                    "errorInfo": "",
                    "fromAddress": "0x17bc847623eb6bb2d475e1ee8a50fea2f192e05c",
                    "gasUsed": 1572,
                    "id": 29,
                    "methodDecoded": true,
                    "operation": "STATICCALL",
                    "output": "0x0000000000000000000000000000000000000000000000000000000000000000",
                    "revert": false,
                    "revertMessage": "",
                    "selector": "0x54c49fe9",
                    "status": true,
                    "value": "0"
                },
                "nodeType": 0
            },
            "3": {
                "invocation": {
                    "address": "0xd533a949740bb3306d119cc777fa900ba034cd52",
                    "callData": "0x000000000000000000000000e4d89e8267d2e8f03f751fa807b3bbdb36729f9a",
                    "decodedMethod": {
                        "callParams": [
                            {
                                "name": "account",
                                "type": "address",
                                "value": "0xe4d89e8267d2e8f03f751fa807b3bbdb36729f9a"
                            }
                        ],
                        "constructorArguments": "",
                        "name": "balanceOf",
                        "returnParams": [
                            {
                                "decimalAvailable": true,
                                "name": "",
                                "type": "uint256",
                                "value": "1"
                            }
                        ],
                        "signature": "balanceOf(address)"
                    },
                    "errorInfo": "",
                    "fromAddress": "0xe4d89e8267d2e8f03f751fa807b3bbdb36729f9a",
                    "gasUsed": 930,
                    "id": 3,
                    "methodDecoded": true,
                    "operation": "STATICCALL",
                    "output": "0x0000000000000000000000000000000000000000000000000000000000000001",
                    "revert": false,
                    "revertMessage": "",
                    "selector": "0x70a08231",
                    "status": true,
                    "value": "0"
                },
                "nodeType": 0
            },
            "30": {
                "invocation": {
                    "address": "0x5ae854b098727a9f1603a1e21c50d52dc834d846",
                    "callData": "0x0000000000000000000000000000000000000000000000000000000000000000",
                    "decodedMethod": {
                        "callParams": [
                            {
                                "name": "arg0",
                                "type": "uint256",
                                "value": "0"
                            }
                        ],
                        "constructorArguments": "",
                        "name": "reward_tokens",
                        "returnParams": [
                            {
                                "name": "",
                                "type": "address",
                                "value": "0x0000000000000000000000000000000000000000"
                            }
                        ],
                        "signature": "reward_tokens(uint256)"
                    },
                    "errorInfo": "",
                    "fromAddress": "0x512a68dd5433563bad526c8c2838c39debc9a756",
                    "gasUsed": 1400,
                    "id": 30,
                    "methodDecoded": true,
                    "operation": "DELEGATECALL",
                    "output": "0x0000000000000000000000000000000000000000000000000000000000000000",
                    "revert": false,
                    "revertMessage": "",
                    "selector": "0x54c49fe9",
                    "status": true,
                    "value": "0"
                },
                "nodeType": 0
            },
            "31": {
                "invocation": {
                    "address": "0xe4d89e8267d2e8f03f751fa807b3bbdb36729f9a",
                    "callData": "0x",
                    "decodedMethod": {
                        "callParams": [],
                        "constructorArguments": "",
                        "name": "onRewardClaim",
                        "returnParams": [],
                        "signature": "onRewardClaim()"
                    },
                    "errorInfo": "",
                    "fromAddress": "0x17bc847623eb6bb2d475e1ee8a50fea2f192e05c",
                    "gasUsed": 588,
                    "id": 31,
                    "methodDecoded": true,
                    "operation": "CALL",
                    "output": "",
                    "revert": false,
                    "revertMessage": "",
                    "selector": "0x2663fcfc",
                    "status": true,
                    "value": "0"
                },
                "nodeType": 0
            },
            "32": {
                "invocation": {
                    "address": "0xd533a949740bb3306d119cc777fa900ba034cd52",
                    "callData": "0x000000000000000000000000f403c135812408bfbe8713b5a23a04b3d48aae31",
                    "decodedMethod": {
                        "callParams": [
                            {
                                "name": "account",
                                "type": "address",
                                "value": "0xf403c135812408bfbe8713b5a23a04b3d48aae31"
                            }
                        ],
                        "constructorArguments": "",
                        "name": "balanceOf",
                        "returnParams": [
                            {
                                "decimalAvailable": true,
                                "name": "",
                                "type": "uint256",
                                "value": "29,729,940,197,400,726,533,505"
                            }
                        ],
                        "signature": "balanceOf(address)"
                    },
                    "errorInfo": "",
                    "fromAddress": "0x17bc847623eb6bb2d475e1ee8a50fea2f192e05c",
                    "gasUsed": 930,
                    "id": 32,
                    "methodDecoded": true,
                    "operation": "STATICCALL",
                    "output": "0x00000000000000000000000000000000000000000000064ba9cd358fdcf0f581",
                    "revert": false,
                    "revertMessage": "",
                    "selector": "0x70a08231",
                    "status": true,
                    "value": "0"
                },
                "nodeType": 0
            },
            "33": {
                "invocation": {
                    "address": "0x17bc847623eb6bb2d475e1ee8a50fea2f192e05c",
                    "callData": "0x",
                    "decodedMethod": {
                        "callParams": [],
                        "constructorArguments": "",
                        "name": "processStash",
                        "returnParams": [
                            {
                                "name": "",
                                "type": "bool",
                                "value": true
                            }
                        ],
                        "signature": "processStash()"
                    },
                    "errorInfo": "",
                    "fromAddress": "0xf403c135812408bfbe8713b5a23a04b3d48aae31",
                    "gasUsed": 3351,
                    "id": 33,
                    "methodDecoded": true,
                    "operation": "CALL",
                    "output": "0x0000000000000000000000000000000000000000000000000000000000000001",
                    "revert": false,
                    "revertMessage": "",
                    "selector": "0xca8b0176",
                    "status": true,
                    "value": "0"
                },
                "nodeType": 0
            },
            "34": {
                "invocation": {
                    "address": "0x5773f7df269a59607c45b57c5f350980bb1fc234",
                    "callData": "0x",
                    "decodedMethod": {
                        "callParams": [],
                        "constructorArguments": "",
                        "name": "processStash",
                        "returnParams": [
                            {
                                "name": "",
                                "type": "bool",
                                "value": true
                            }
                        ],
                        "signature": "processStash()"
                    },
                    "errorInfo": "",
                    "fromAddress": "0x17bc847623eb6bb2d475e1ee8a50fea2f192e05c",
                    "gasUsed": 3185,
                    "id": 34,
                    "methodDecoded": true,
                    "operation": "DELEGATECALL",
                    "output": "0x0000000000000000000000000000000000000000000000000000000000000001",
                    "revert": false,
                    "revertMessage": "",
                    "selector": "0xca8b0176",
                    "status": true,
                    "value": "0"
                },
                "nodeType": 0
            },
            "35": {
                "invocation": {
                    "address": "0xafb90c473714afd2a5c2a02de2b33236cd8fdc24",
                    "callData": "0x",
                    "decodedMethod": {
                        "callParams": [],
                        "constructorArguments": "",
                        "name": "isInvalid",
                        "returnParams": [
                            {
                                "name": "",
                                "type": "bool",
                                "value": false
                            }
                        ],
                        "signature": "isInvalid()"
                    },
                    "errorInfo": "",
                    "fromAddress": "0x17bc847623eb6bb2d475e1ee8a50fea2f192e05c",
                    "gasUsed": 494,
                    "id": 35,
                    "methodDecoded": true,
                    "operation": "CALL",
                    "output": "0x0000000000000000000000000000000000000000000000000000000000000000",
                    "revert": false,
                    "revertMessage": "",
                    "selector": "0x04be2f50",
                    "status": true,
                    "value": "0"
                },
                "nodeType": 0
            },
            "36": {
                "invocation": {
                    "address": "0xc19cf0eaa43ee080c3cb8fb7db388091d3a13eb7",
                    "callData": "0x",
                    "decodedMethod": {
                        "callParams": [],
                        "constructorArguments": "",
                        "name": "isInvalid",
                        "returnParams": [
                            {
                                "name": "",
                                "type": "bool",
                                "value": false
                            }
                        ],
                        "signature": "isInvalid()"
                    },
                    "errorInfo": "",
                    "fromAddress": "0xafb90c473714afd2a5c2a02de2b33236cd8fdc24",
                    "gasUsed": 328,
                    "id": 36,
                    "methodDecoded": true,
                    "operation": "DELEGATECALL",
                    "output": "0x0000000000000000000000000000000000000000000000000000000000000000",
                    "revert": false,
                    "revertMessage": "",
                    "selector": "0x04be2f50",
                    "status": true,
                    "value": "0"
                },
                "nodeType": 0
            },
            "37": {
                "invocation": {
                    "address": "0x4e3fbd56cd56c3e72c1403e103b45db9da5b9d2b",
                    "callData": "0x00000000000000000000000017bc847623eb6bb2d475e1ee8a50fea2f192e05c",
                    "decodedMethod": {
                        "callParams": [
                            {
                                "name": "account",
                                "type": "address",
                                "value": "0x17bc847623eb6bb2d475e1ee8a50fea2f192e05c"
                            }
                        ],
                        "constructorArguments": "",
                        "name": "balanceOf",
                        "returnParams": [
                            {
                                "decimalAvailable": true,
                                "name": "",
                                "type": "uint256",
                                "value": "0"
                            }
                        ],
                        "signature": "balanceOf(address)"
                    },
                    "errorInfo": "",
                    "fromAddress": "0x17bc847623eb6bb2d475e1ee8a50fea2f192e05c",
                    "gasUsed": 468,
                    "id": 37,
                    "methodDecoded": true,
                    "operation": "STATICCALL",
                    "output": "0x0000000000000000000000000000000000000000000000000000000000000000",
                    "revert": false,
                    "revertMessage": "",
                    "selector": "0x70a08231",
                    "status": true,
                    "value": "0"
                },
                "nodeType": 0
            },
            "38": {
                "invocation": {
                    "address": "0xd533a949740bb3306d119cc777fa900ba034cd52",
                    "callData": "0x000000000000000000000000f403c135812408bfbe8713b5a23a04b3d48aae31",
                    "decodedMethod": {
                        "callParams": [
                            {
                                "name": "account",
                                "type": "address",
                                "value": "0xf403c135812408bfbe8713b5a23a04b3d48aae31"
                            }
                        ],
                        "constructorArguments": "",
                        "name": "balanceOf",
                        "returnParams": [
                            {
                                "decimalAvailable": true,
                                "name": "",
                                "type": "uint256",
                                "value": "29,729,940,197,400,726,533,505"
                            }
                        ],
                        "signature": "balanceOf(address)"
                    },
                    "errorInfo": "",
                    "fromAddress": "0xf403c135812408bfbe8713b5a23a04b3d48aae31",
                    "gasUsed": 930,
                    "id": 38,
                    "methodDecoded": true,
                    "operation": "STATICCALL",
                    "output": "0x00000000000000000000000000000000000000000000064ba9cd358fdcf0f581",
                    "revert": false,
                    "revertMessage": "",
                    "selector": "0x70a08231",
                    "status": true,
                    "value": "0"
                },
                "nodeType": 0
            },
            "39": {
                "invocation": {
                    "address": "0xd533a949740bb3306d119cc777fa900ba034cd52",
                    "callData": "0x0000000000000000000000001389388d01708118b497f59521f6943be2541bb70000000000000000000000000000000000000000000000203bb74ddf0989f06e",
                    "decodedMethod": {
                        "callParams": [
                            {
                                "name": "recipient",
                                "type": "address",
                                "value": "0x1389388d01708118b497f59521f6943be2541bb7"
                            },
                            {
                                "decimalAvailable": true,
                                "name": "amount",
                                "type": "uint256",
                                "value": "594,598,803,948,014,530,670"
                            }
                        ],
                        "constructorArguments": "",
                        "name": "transfer",
                        "returnParams": [
                            {
                                "name": "",
                                "type": "bool",
                                "value": true
                            }
                        ],
                        "signature": "transfer(address,uint256)"
                    },
                    "errorInfo": "",
                    "fromAddress": "0xf403c135812408bfbe8713b5a23a04b3d48aae31",
                    "gasUsed": 22881,
                    "id": 39,
                    "methodDecoded": true,
                    "operation": "CALL",
                    "output": "0x0000000000000000000000000000000000000000000000000000000000000001",
                    "revert": false,
                    "revertMessage": "",
                    "selector": "0xa9059cbb",
                    "status": true,
                    "value": "0"
                },
                "nodeType": 0
            },
            "4": {
                "invocation": {
                    "address": "0xf403c135812408bfbe8713b5a23a04b3d48aae31",
                    "callData": "0x00000000000000000000000000000000000000000000000000000000000000c6",
                    "decodedMethod": {
                        "callParams": [
                            {
                                "name": "_pid",
                                "type": "uint256",
                                "value": "198"
                            }
                        ],
                        "constructorArguments": "",
                        "name": "earmarkRewards",
                        "returnParams": [
                            {
                                "name": "",
                                "type": "bool",
                                "value": true
                            }
                        ],
                        "signature": "earmarkRewards(uint256)"
                    },
                    "errorInfo": "",
                    "fromAddress": "0xe4d89e8267d2e8f03f751fa807b3bbdb36729f9a",
                    "gasUsed": 293443,
                    "id": 4,
                    "methodDecoded": true,
                    "operation": "CALL",
                    "output": "0x0000000000000000000000000000000000000000000000000000000000000001",
                    "revert": false,
                    "revertMessage": "",
                    "selector": "0xcc956f3f",
                    "status": true,
                    "value": "0"
                },
                "nodeType": 0
            },
            "40": {
                "event": {
                    "contract": "0xd533a949740bb3306d119cc777fa900ba034cd52",
                    "decodedLog": {
                        "name": "Transfer",
                        "params": [
                            {
                                "name": "from",
                                "type": "address",
                                "value": "0xf403c135812408bfbe8713b5a23a04b3d48aae31"
                            },
                            {
                                "name": "to",
                                "type": "address",
                                "value": "0x1389388d01708118b497f59521f6943be2541bb7"
                            },
                            {
                                "decimalAvailable": true,
                                "name": "value",
                                "type": "uint256",
                                "value": "594,598,803,948,014,530,670"
                            }
                        ],
                        "signature": "Transfer(address,address,uint256)"
                    },
                    "id": 40,
                    "logData": "0x0000000000000000000000000000000000000000000000203bb74ddf0989f06e",
                    "logDecoded": true,
                    "operation": "EVENT",
                    "revert": false,
                    "status": true,
                    "topics": [
                        "0xddf252ad1be2c89b69c2b068fc378daa952ba7f163c4a11628f55a4df523b3ef",
                        "0x000000000000000000000000f403c135812408bfbe8713b5a23a04b3d48aae31",
                        "0x0000000000000000000000001389388d01708118b497f59521f6943be2541bb7"
                    ]
                },
                "nodeType": 1
            },
            "41": {
                "invocation": {
                    "address": "0xd533a949740bb3306d119cc777fa900ba034cd52",
                    "callData": "0x000000000000000000000000e4d89e8267d2e8f03f751fa807b3bbdb36729f9a0000000000000000000000000000000000000000000000080eedd377c2627c1b",
                    "decodedMethod": {
                        "callParams": [
                            {
                                "name": "recipient",
                                "type": "address",
                                "value": "0xe4d89e8267d2e8f03f751fa807b3bbdb36729f9a"
                            },
                            {
                                "decimalAvailable": true,
                                "name": "amount",
                                "type": "uint256",
                                "value": "148,649,700,987,003,632,667"
                            }
                        ],
                        "constructorArguments": "",
                        "name": "transfer",
                        "returnParams": [
                            {
                                "name": "",
                                "type": "bool",
                                "value": true
                            }
                        ],
                        "signature": "transfer(address,uint256)"
                    },
                    "errorInfo": "",
                    "fromAddress": "0xf403c135812408bfbe8713b5a23a04b3d48aae31",
                    "gasUsed": 5781,
                    "id": 41,
                    "methodDecoded": true,
                    "operation": "CALL",
                    "output": "0x0000000000000000000000000000000000000000000000000000000000000001",
                    "revert": false,
                    "revertMessage": "",
                    "selector": "0xa9059cbb",
                    "status": true,
                    "value": "0"
                },
                "nodeType": 0
            },
            "42": {
                "event": {
                    "contract": "0xd533a949740bb3306d119cc777fa900ba034cd52",
                    "decodedLog": {
                        "name": "Transfer",
                        "params": [
                            {
                                "name": "from",
                                "type": "address",
                                "value": "0xf403c135812408bfbe8713b5a23a04b3d48aae31"
                            },
                            {
                                "name": "to",
                                "type": "address",
                                "value": "0xe4d89e8267d2e8f03f751fa807b3bbdb36729f9a"
                            },
                            {
                                "decimalAvailable": true,
                                "name": "value",
                                "type": "uint256",
                                "value": "148,649,700,987,003,632,667"
                            }
                        ],
                        "signature": "Transfer(address,address,uint256)"
                    },
                    "id": 42,
                    "logData": "0x0000000000000000000000000000000000000000000000080eedd377c2627c1b",
                    "logDecoded": true,
                    "operation": "EVENT",
                    "revert": false,
                    "status": true,
                    "topics": [
                        "0xddf252ad1be2c89b69c2b068fc378daa952ba7f163c4a11628f55a4df523b3ef",
                        "0x000000000000000000000000f403c135812408bfbe8713b5a23a04b3d48aae31",
                        "0x000000000000000000000000e4d89e8267d2e8f03f751fa807b3bbdb36729f9a"
                    ]
                },
                "nodeType": 1
            },
            "43": {
                "invocation": {
                    "address": "0xd533a949740bb3306d119cc777fa900ba034cd52",
                    "callData": "0x000000000000000000000000be99c9a460488ef88ef46db02a1222563acad636000000000000000000000000000000000000000000000539ae371fa80bdc79db",
                    "decodedMethod": {
                        "callParams": [
                            {
                                "name": "recipient",
                                "type": "address",
                                "value": "0xbe99c9a460488ef88ef46db02a1222563acad636"
                            },
                            {
                                "decimalAvailable": true,
                                "name": "amount",
                                "type": "uint256",
                                "value": "24,675,850,363,842,603,022,811"
                            }
                        ],
                        "constructorArguments": "",
                        "name": "transfer",
                        "returnParams": [
                            {
                                "name": "",
                                "type": "bool",
                                "value": true
                            }
                        ],
                        "signature": "transfer(address,uint256)"
                    },
                    "errorInfo": "",
                    "fromAddress": "0xf403c135812408bfbe8713b5a23a04b3d48aae31",
                    "gasUsed": 5781,
                    "id": 43,
                    "methodDecoded": true,
                    "operation": "CALL",
                    "output": "0x0000000000000000000000000000000000000000000000000000000000000001",
                    "revert": false,
                    "revertMessage": "",
                    "selector": "0xa9059cbb",
                    "status": true,
                    "value": "0"
                },
                "nodeType": 0
            },
            "44": {
                "event": {
                    "contract": "0xd533a949740bb3306d119cc777fa900ba034cd52",
                    "decodedLog": {
                        "name": "Transfer",
                        "params": [
                            {
                                "name": "from",
                                "type": "address",
                                "value": "0xf403c135812408bfbe8713b5a23a04b3d48aae31"
                            },
                            {
                                "name": "to",
                                "type": "address",
                                "value": "0xbe99c9a460488ef88ef46db02a1222563acad636"
                            },
                            {
                                "decimalAvailable": true,
                                "name": "value",
                                "type": "uint256",
                                "value": "24,675,850,363,842,603,022,811"
                            }
                        ],
                        "signature": "Transfer(address,address,uint256)"
                    },
                    "id": 44,
                    "logData": "0x000000000000000000000000000000000000000000000539ae371fa80bdc79db",
                    "logDecoded": true,
                    "operation": "EVENT",
                    "revert": false,
                    "status": true,
                    "topics": [
                        "0xddf252ad1be2c89b69c2b068fc378daa952ba7f163c4a11628f55a4df523b3ef",
                        "0x000000000000000000000000f403c135812408bfbe8713b5a23a04b3d48aae31",
                        "0x000000000000000000000000be99c9a460488ef88ef46db02a1222563acad636"
                    ]
                },
                "nodeType": 1
            },
            "45": {
                "invocation": {
                    "address": "0xbe99c9a460488ef88ef46db02a1222563acad636",
                    "callData": "0x000000000000000000000000000000000000000000000539ae371fa80bdc79db",
                    "decodedMethod": {
                        "callParams": [
                            {
                                "name": "_rewards",
                                "type": "uint256",
                                "value": "24,675,850,363,842,603,022,811"
                            }
                        ],
                        "constructorArguments": "",
                        "name": "queueNewRewards",
                        "returnParams": [
                            {
                                "name": "",
                                "type": "bool",
                                "value": true
                            }
                        ],
                        "signature": "queueNewRewards(uint256)"
                    },
                    "errorInfo": "",
                    "fromAddress": "0xf403c135812408bfbe8713b5a23a04b3d48aae31",
                    "gasUsed": 21588,
                    "id": 45,
                    "methodDecoded": true,
                    "operation": "CALL",
                    "output": "0x0000000000000000000000000000000000000000000000000000000000000001",
                    "revert": false,
                    "revertMessage": "",
                    "selector": "0x590a41f5",
                    "status": true,
                    "value": "0"
                },
                "nodeType": 0
            },
            "46": {
                "event": {
                    "contract": "0xbe99c9a460488ef88ef46db02a1222563acad636",
                    "decodedLog": {
                        "name": "RewardAdded",
                        "params": [
                            {
                                "name": "reward",
                                "type": "uint256",
                                "value": "24,675,850,363,842,603,022,811"
                            }
                        ],
                        "signature": "RewardAdded(uint256)"
                    },
                    "id": 46,
                    "logData": "0x000000000000000000000000000000000000000000000539ae371fa80bdc79db",
                    "logDecoded": true,
                    "operation": "EVENT",
                    "revert": false,
                    "status": true,
                    "topics": [
                        "0xde88a922e0d3b88b24e9623efeb464919c6bf9f66857a65e2bfcf2ce87a9433d"
                    ]
                },
                "nodeType": 1
            },
            "47": {
                "invocation": {
                    "address": "0xd533a949740bb3306d119cc777fa900ba034cd52",
                    "callData": "0x0000000000000000000000003fe65692bfcd0e6cf84cb1e7d24108e434a7587e0000000000000000000000000000000000000000000000a12a94855b2fb1b226",
                    "decodedMethod": {
                        "callParams": [
                            {
                                "name": "recipient",
                                "type": "address",
                                "value": "0x3fe65692bfcd0e6cf84cb1e7d24108e434a7587e"
                            },
                            {
                                "decimalAvailable": true,
                                "name": "amount",
                                "type": "uint256",
                                "value": "2,972,994,019,740,072,653,350"
                            }
                        ],
                        "constructorArguments": "",
                        "name": "transfer",
                        "returnParams": [
                            {
                                "name": "",
                                "type": "bool",
                                "value": true
                            }
                        ],
                        "signature": "transfer(address,uint256)"
                    },
                    "errorInfo": "",
                    "fromAddress": "0xf403c135812408bfbe8713b5a23a04b3d48aae31",
                    "gasUsed": 5781,
                    "id": 47,
                    "methodDecoded": true,
                    "operation": "CALL",
                    "output": "0x0000000000000000000000000000000000000000000000000000000000000001",
                    "revert": false,
                    "revertMessage": "",
                    "selector": "0xa9059cbb",
                    "status": true,
                    "value": "0"
                },
                "nodeType": 0
            },
            "48": {
                "event": {
                    "contract": "0xd533a949740bb3306d119cc777fa900ba034cd52",
                    "decodedLog": {
                        "name": "Transfer",
                        "params": [
                            {
                                "name": "from",
                                "type": "address",
                                "value": "0xf403c135812408bfbe8713b5a23a04b3d48aae31"
                            },
                            {
                                "name": "to",
                                "type": "address",
                                "value": "0x3fe65692bfcd0e6cf84cb1e7d24108e434a7587e"
                            },
                            {
                                "decimalAvailable": true,
                                "name": "value",
                                "type": "uint256",
                                "value": "2,972,994,019,740,072,653,350"
                            }
                        ],
                        "signature": "Transfer(address,address,uint256)"
                    },
                    "id": 48,
                    "logData": "0x0000000000000000000000000000000000000000000000a12a94855b2fb1b226",
                    "logDecoded": true,
                    "operation": "EVENT",
                    "revert": false,
                    "status": true,
                    "topics": [
                        "0xddf252ad1be2c89b69c2b068fc378daa952ba7f163c4a11628f55a4df523b3ef",
                        "0x000000000000000000000000f403c135812408bfbe8713b5a23a04b3d48aae31",
                        "0x0000000000000000000000003fe65692bfcd0e6cf84cb1e7d24108e434a7587e"
                    ]
                },
                "nodeType": 1
            },
            "49": {
                "invocation": {
                    "address": "0x3fe65692bfcd0e6cf84cb1e7d24108e434a7587e",
                    "callData": "0x0000000000000000000000000000000000000000000000a12a94855b2fb1b226",
                    "decodedMethod": {
                        "callParams": [
                            {
                                "name": "_rewards",
                                "type": "uint256",
                                "value": "2,972,994,019,740,072,653,350"
                            }
                        ],
                        "constructorArguments": "",
                        "name": "queueNewRewards",
                        "returnParams": [
                            {
                                "name": "",
                                "type": "bool",
                                "value": true
                            }
                        ],
                        "signature": "queueNewRewards(uint256)"
                    },
                    "errorInfo": "",
                    "fromAddress": "0xf403c135812408bfbe8713b5a23a04b3d48aae31",
                    "gasUsed": 4344,
                    "id": 49,
                    "methodDecoded": true,
                    "operation": "CALL",
                    "output": "0x0000000000000000000000000000000000000000000000000000000000000001",
                    "revert": false,
                    "revertMessage": "",
                    "selector": "0x590a41f5",
                    "status": true,
                    "value": "0"
                },
                "nodeType": 0
            },
            "5": {
                "invocation": {
                    "address": "0x989aeb4d175e16225e39e87d0d97a3360524ad80",
                    "callData": "0x000000000000000000000000512a68dd5433563bad526c8c2838c39debc9a756",
                    "decodedMethod": {
                        "callParams": [
                            {
                                "name": "_gauge",
                                "type": "address",
                                "value": "0x512a68dd5433563bad526c8c2838c39debc9a756"
                            }
                        ],
                        "constructorArguments": "",
                        "name": "claimCrv",
                        "returnParams": [
                            {
                                "name": "",
                                "type": "uint256",
                                "value": "29,729,940,197,400,726,533,505"
                            }
                        ],
                        "signature": "claimCrv(address)"
                    },
                    "errorInfo": "",
                    "fromAddress": "0xf403c135812408bfbe8713b5a23a04b3d48aae31",
                    "gasUsed": 191745,
                    "id": 5,
                    "methodDecoded": true,
                    "operation": "CALL",
                    "output": "0x00000000000000000000000000000000000000000000064ba9cd358fdcf0f581",
                    "revert": false,
                    "revertMessage": "",
                    "selector": "0x3fe9bc06",
                    "status": true,
                    "value": "0"
                },
                "nodeType": 0
            },
            "50": {
                "invocation": {
                    "address": "0xd533a949740bb3306d119cc777fa900ba034cd52",
                    "callData": "0x000000000000000000000000cf50b810e57ac33b91dcf525c6ddd9881b139332000000000000000000000000000000000000000000000048865c6f35d5765cf7",
                    "decodedMethod": {
                        "callParams": [
                            {
                                "name": "recipient",
                                "type": "address",
                                "value": "0xcf50b810e57ac33b91dcf525c6ddd9881b139332"
                            },
                            {
                                "decimalAvailable": true,
                                "name": "amount",
                                "type": "uint256",
                                "value": "1,337,847,308,883,032,694,007"
                            }
                        ],
                        "constructorArguments": "",
                        "name": "transfer",
                        "returnParams": [
                            {
                                "name": "",
                                "type": "bool",
                                "value": true
                            }
                        ],
                        "signature": "transfer(address,uint256)"
                    },
                    "errorInfo": "",
                    "fromAddress": "0xf403c135812408bfbe8713b5a23a04b3d48aae31",
                    "gasUsed": 5781,
                    "id": 50,
                    "methodDecoded": true,
                    "operation": "CALL",
                    "output": "0x0000000000000000000000000000000000000000000000000000000000000001",
                    "revert": false,
                    "revertMessage": "",
                    "selector": "0xa9059cbb",
                    "status": true,
                    "value": "0"
                },
                "nodeType": 0
            },
            "51": {
                "event": {
                    "contract": "0xd533a949740bb3306d119cc777fa900ba034cd52",
                    "decodedLog": {
                        "name": "Transfer",
                        "params": [
                            {
                                "name": "from",
                                "type": "address",
                                "value": "0xf403c135812408bfbe8713b5a23a04b3d48aae31"
                            },
                            {
                                "name": "to",
                                "type": "address",
                                "value": "0xcf50b810e57ac33b91dcf525c6ddd9881b139332"
                            },
                            {
                                "decimalAvailable": true,
                                "name": "value",
                                "type": "uint256",
                                "value": "1,337,847,308,883,032,694,007"
                            }
                        ],
                        "signature": "Transfer(address,address,uint256)"
                    },
                    "id": 51,
                    "logData": "0x000000000000000000000000000000000000000000000048865c6f35d5765cf7",
                    "logDecoded": true,
                    "operation": "EVENT",
                    "revert": false,
                    "status": true,
                    "topics": [
                        "0xddf252ad1be2c89b69c2b068fc378daa952ba7f163c4a11628f55a4df523b3ef",
                        "0x000000000000000000000000f403c135812408bfbe8713b5a23a04b3d48aae31",
                        "0x000000000000000000000000cf50b810e57ac33b91dcf525c6ddd9881b139332"
                    ]
                },
                "nodeType": 1
            },
            "52": {
                "invocation": {
                    "address": "0xcf50b810e57ac33b91dcf525c6ddd9881b139332",
                    "callData": "0x000000000000000000000000000000000000000000000048865c6f35d5765cf7",
                    "decodedMethod": {
                        "callParams": [
                            {
                                "name": "_rewards",
                                "type": "uint256",
                                "value": "1,337,847,308,883,032,694,007"
                            }
                        ],
                        "constructorArguments": "",
                        "name": "queueNewRewards",
                        "returnParams": [],
                        "signature": "queueNewRewards(uint256)"
                    },
                    "errorInfo": "",
                    "fromAddress": "0xf403c135812408bfbe8713b5a23a04b3d48aae31",
                    "gasUsed": 4111,
                    "id": 52,
                    "methodDecoded": true,
                    "operation": "CALL",
                    "output": "",
                    "revert": false,
                    "revertMessage": "",
                    "selector": "0x590a41f5",
                    "status": true,
                    "value": "0"
                },
                "nodeType": 0
            },
            "53": {
                "invocation": {
                    "address": "0xd533a949740bb3306d119cc777fa900ba034cd52",
                    "callData": "0x000000000000000000000000e4d89e8267d2e8f03f751fa807b3bbdb36729f9a",
                    "decodedMethod": {
                        "callParams": [
                            {
                                "name": "account",
                                "type": "address",
                                "value": "0xe4d89e8267d2e8f03f751fa807b3bbdb36729f9a"
                            }
                        ],
                        "constructorArguments": "",
                        "name": "balanceOf",
                        "returnParams": [
                            {
                                "decimalAvailable": true,
                                "name": "",
                                "type": "uint256",
                                "value": "148,649,700,987,003,632,668"
                            }
                        ],
                        "signature": "balanceOf(address)"
                    },
                    "errorInfo": "",
                    "fromAddress": "0xe4d89e8267d2e8f03f751fa807b3bbdb36729f9a",
                    "gasUsed": 930,
                    "id": 53,
                    "methodDecoded": true,
                    "operation": "STATICCALL",
                    "output": "0x0000000000000000000000000000000000000000000000080eedd377c2627c1c",
                    "revert": false,
                    "revertMessage": "",
                    "selector": "0x70a08231",
                    "status": true,
                    "value": "0"
                },
                "nodeType": 0
            },
            "54": {
                "invocation": {
                    "address": "0xd533a949740bb3306d119cc777fa900ba034cd52",
                    "callData": "0x0000000000000000000000006d6bcac2266468a44da9fa482ca54aaed586e1e70000000000000000000000000000000000000000000000080eedd377c2627c1b",
                    "decodedMethod": {
                        "callParams": [
                            {
                                "name": "recipient",
                                "type": "address",
                                "value": "0x6d6bcac2266468a44da9fa482ca54aaed586e1e7"
                            },
                            {
                                "decimalAvailable": true,
                                "name": "amount",
                                "type": "uint256",
                                "value": "148,649,700,987,003,632,667"
                            }
                        ],
                        "constructorArguments": "",
                        "name": "transfer",
                        "returnParams": [
                            {
                                "name": "",
                                "type": "bool",
                                "value": true
                            }
                        ],
                        "signature": "transfer(address,uint256)"
                    },
                    "errorInfo": "",
                    "fromAddress": "0xe4d89e8267d2e8f03f751fa807b3bbdb36729f9a",
                    "gasUsed": 22881,
                    "id": 54,
                    "methodDecoded": true,
                    "operation": "CALL",
                    "output": "0x0000000000000000000000000000000000000000000000000000000000000001",
                    "revert": false,
                    "revertMessage": "",
                    "selector": "0xa9059cbb",
                    "status": true,
                    "value": "0"
                },
                "nodeType": 0
            },
            "55": {
                "event": {
                    "contract": "0xd533a949740bb3306d119cc777fa900ba034cd52",
                    "decodedLog": {
                        "name": "Transfer",
                        "params": [
                            {
                                "name": "from",
                                "type": "address",
                                "value": "0xe4d89e8267d2e8f03f751fa807b3bbdb36729f9a"
                            },
                            {
                                "name": "to",
                                "type": "address",
                                "value": "0x6d6bcac2266468a44da9fa482ca54aaed586e1e7"
                            },
                            {
                                "decimalAvailable": true,
                                "name": "value",
                                "type": "uint256",
                                "value": "148,649,700,987,003,632,667"
                            }
                        ],
                        "signature": "Transfer(address,address,uint256)"
                    },
                    "id": 55,
                    "logData": "0x0000000000000000000000000000000000000000000000080eedd377c2627c1b",
                    "logDecoded": true,
                    "operation": "EVENT",
                    "revert": false,
                    "status": true,
                    "topics": [
                        "0xddf252ad1be2c89b69c2b068fc378daa952ba7f163c4a11628f55a4df523b3ef",
                        "0x000000000000000000000000e4d89e8267d2e8f03f751fa807b3bbdb36729f9a",
                        "0x0000000000000000000000006d6bcac2266468a44da9fa482ca54aaed586e1e7"
                    ]
                },
                "nodeType": 1
            },
            "6": {
                "invocation": {
                    "address": "0xd061d61a4d941c39e5453435b6345dc261c2fce0",
                    "callData": "0x000000000000000000000000512a68dd5433563bad526c8c2838c39debc9a756",
                    "decodedMethod": {
                        "callParams": [
                            {
                                "name": "to",
                                "type": "address",
                                "value": "0x512a68dd5433563bad526c8c2838c39debc9a756"
                            }
                        ],
                        "constructorArguments": "",
                        "name": "mint",
                        "returnParams": [],
                        "signature": "mint(address)"
                    },
                    "errorInfo": "",
                    "fromAddress": "0x989aeb4d175e16225e39e87d0d97a3360524ad80",
                    "gasUsed": 164865,
                    "id": 6,
                    "methodDecoded": true,
                    "operation": "CALL",
                    "output": "",
                    "revert": false,
                    "revertMessage": "",
                    "selector": "0x6a627842",
                    "status": true,
                    "value": "0"
                },
                "nodeType": 0
            },
            "7": {
                "invocation": {
                    "address": "0x2f50d538606fa9edd2b11e2446beb18c9d5846bb",
                    "callData": "0x000000000000000000000000512a68dd5433563bad526c8c2838c39debc9a756",
                    "decodedMethod": {
                        "callParams": [
                            {
                                "name": "_addr",
                                "type": "address",
                                "value": "0x512a68dd5433563bad526c8c2838c39debc9a756"
                            }
                        ],
                        "constructorArguments": "",
                        "name": "gauge_types",
                        "returnParams": [
                            {
                                "name": "",
                                "type": "int128",
                                "value": "0"
                            }
                        ],
                        "signature": "gauge_types(address)"
                    },
                    "errorInfo": "",
                    "fromAddress": "0xd061d61a4d941c39e5453435b6345dc261c2fce0",
                    "gasUsed": 562,
                    "id": 7,
                    "methodDecoded": true,
                    "operation": "STATICCALL",
                    "output": "0x0000000000000000000000000000000000000000000000000000000000000000",
                    "revert": false,
                    "revertMessage": "",
                    "selector": "0x3f9095b7",
                    "status": true,
                    "value": "0"
                },
                "nodeType": 0
            },
            "8": {
                "invocation": {
                    "address": "0x512a68dd5433563bad526c8c2838c39debc9a756",
                    "callData": "0x000000000000000000000000989aeb4d175e16225e39e87d0d97a3360524ad80",
                    "decodedMethod": {
                        "callParams": [
                            {
                                "name": "addr",
                                "type": "address",
                                "value": "0x989aeb4d175e16225e39e87d0d97a3360524ad80"
                            }
                        ],
                        "constructorArguments": "",
                        "name": "user_checkpoint",
                        "returnParams": [
                            {
                                "name": "",
                                "type": "bool",
                                "value": true
                            }
                        ],
                        "signature": "user_checkpoint(address)"
                    },
                    "errorInfo": "",
                    "fromAddress": "0xd061d61a4d941c39e5453435b6345dc261c2fce0",
                    "gasUsed": 109480,
                    "id": 8,
                    "methodDecoded": true,
                    "operation": "CALL",
                    "output": "0x0000000000000000000000000000000000000000000000000000000000000001",
                    "revert": false,
                    "revertMessage": "",
                    "selector": "0x4b820093",
                    "status": true,
                    "value": "0"
                },
                "nodeType": 0
            },
            "9": {
                "invocation": {
                    "address": "0x5ae854b098727a9f1603a1e21c50d52dc834d846",
                    "callData": "0x000000000000000000000000989aeb4d175e16225e39e87d0d97a3360524ad80",
                    "decodedMethod": {
                        "callParams": [
                            {
                                "name": "addr",
                                "type": "address",
                                "value": "0x989aeb4d175e16225e39e87d0d97a3360524ad80"
                            }
                        ],
                        "constructorArguments": "",
                        "name": "user_checkpoint",
                        "returnParams": [
                            {
                                "name": "",
                                "type": "bool",
                                "value": true
                            }
                        ],
                        "signature": "user_checkpoint(address)"
                    },
                    "errorInfo": "",
                    "fromAddress": "0x512a68dd5433563bad526c8c2838c39debc9a756",
                    "gasUsed": 109308,
                    "id": 9,
                    "methodDecoded": true,
                    "operation": "DELEGATECALL",
                    "output": "0x0000000000000000000000000000000000000000000000000000000000000001",
                    "revert": false,
                    "revertMessage": "",
                    "selector": "0x4b820093",
                    "status": true,
                    "value": "0"
                },
                "nodeType": 0
            }
        },
        "gasFlame": [
            {
                "children": [
                    {
                        "children": [
                            {
                                "children": [],
                                "depth": 0,
                                "name": "Initial Gas",
                                "value": 370316
                            },
                            {
                                "children": [
                                    {
                                        "children": [],
                                        "depth": 1,
                                        "name": "balanceOf",
                                        "value": 930
                                    },
                                    {
                                        "children": [
                                            {
                                                "children": [],
                                                "depth": 2,
                                                "name": "balanceOf",
                                                "value": 930
                                            },
                                            {
                                                "children": [
                                                    {
                                                        "children": [
                                                            {
                                                                "children": [
                                                                    {
                                                                        "children": [],
                                                                        "depth": 5,
                                                                        "name": "gauge_types",
                                                                        "value": 562
                                                                    },
                                                                    {
                                                                        "children": [
                                                                            {
                                                                                "children": [
                                                                                    {
                                                                                        "children": [],
                                                                                        "depth": 7,
                                                                                        "name": "future_epoch_time_write",
                                                                                        "value": 506
                                                                                    },
                                                                                    {
                                                                                        "children": [],
                                                                                        "depth": 7,
                                                                                        "name": "rate",
                                                                                        "value": 969
                                                                                    },
                                                                                    {
                                                                                        "children": [],
                                                                                        "depth": 7,
                                                                                        "name": "checkpoint_gauge",
                                                                                        "value": 34789
                                                                                    },
                                                                                    {
                                                                                        "children": [],
                                                                                        "depth": 7,
                                                                                        "name": "gauge_relative_weight",
                                                                                        "value": 2060
                                                                                    },
                                                                                    {
                                                                                        "children": [
                                                                                            {
                                                                                                "children": [],
                                                                                                "depth": 8,
                                                                                                "name": "balanceOf",
                                                                                                "value": 2065
                                                                                            }
                                                                                        ],
                                                                                        "depth": 7,
                                                                                        "name": "adjusted_balance_of",
                                                                                        "value": 2550
                                                                                    },
                                                                                    {
                                                                                        "children": [],
                                                                                        "depth": 7,
                                                                                        "name": "totalSupply",
                                                                                        "value": 2754
                                                                                    }
                                                                                ],
                                                                                "depth": 6,
                                                                                "name": "user_checkpoint",
                                                                                "value": 109308
                                                                            }
                                                                        ],
                                                                        "depth": 5,
                                                                        "name": "user_checkpoint",
                                                                        "value": 109480
                                                                    },
                                                                    {
                                                                        "children": [
                                                                            {
                                                                                "children": [],
                                                                                "depth": 6,
                                                                                "name": "integrate_fraction",
                                                                                "value": 1389
                                                                            }
                                                                        ],
                                                                        "depth": 5,
                                                                        "name": "integrate_fraction",
                                                                        "value": 1561
                                                                    },
                                                                    {
                                                                        "children": [],
                                                                        "depth": 5,
                                                                        "name": "mint",
                                                                        "value": 26612
                                                                    }
                                                                ],
                                                                "depth": 4,
                                                                "name": "mint",
                                                                "value": 164865
                                                            },
                                                            {
                                                                "children": [],
                                                                "depth": 4,
                                                                "name": "balanceOf",
                                                                "value": 930
                                                            },
                                                            {
                                                                "children": [],
                                                                "depth": 4,
                                                                "name": "transfer",
                                                                "value": 22881
                                                            }
                                                        ],
                                                        "depth": 3,
                                                        "name": "claimCrv",
                                                        "value": 191745
                                                    },
                                                    {
                                                        "children": [
                                                            {
                                                                "children": [
                                                                    {
                                                                        "children": [],
                                                                        "depth": 5,
                                                                        "name": "balanceOf",
                                                                        "value": 930
                                                                    },
                                                                    {
                                                                        "children": [
                                                                            {
                                                                                "children": [],
                                                                                "depth": 6,
                                                                                "name": "reward_tokens",
                                                                                "value": 1400
                                                                            }
                                                                        ],
                                                                        "depth": 5,
                                                                        "name": "reward_tokens",
                                                                        "value": 1572
                                                                    },
                                                                    {
                                                                        "children": [],
                                                                        "depth": 5,
                                                                        "name": "onRewardClaim",
                                                                        "value": 588
                                                                    },
                                                                    {
                                                                        "children": [],
                                                                        "depth": 5,
                                                                        "name": "balanceOf",
                                                                        "value": 930
                                                                    }
                                                                ],
                                                                "depth": 4,
                                                                "name": "claimRewards",
                                                                "value": 7016
                                                            }
                                                        ],
                                                        "depth": 3,
                                                        "name": "claimRewards",
                                                        "value": 7182
                                                    },
                                                    {
                                                        "children": [
                                                            {
                                                                "children": [
                                                                    {
                                                                        "children": [
                                                                            {
                                                                                "children": [],
                                                                                "depth": 6,
                                                                                "name": "isInvalid",
                                                                                "value": 328
                                                                            }
                                                                        ],
                                                                        "depth": 5,
                                                                        "name": "isInvalid",
                                                                        "value": 494
                                                                    },
                                                                    {
                                                                        "children": [],
                                                                        "depth": 5,
                                                                        "name": "balanceOf",
                                                                        "value": 468
                                                                    }
                                                                ],
                                                                "depth": 4,
                                                                "name": "processStash",
                                                                "value": 3185
                                                            }
                                                        ],
                                                        "depth": 3,
                                                        "name": "processStash",
                                                        "value": 3351
                                                    },
                                                    {
                                                        "children": [],
                                                        "depth": 3,
                                                        "name": "balanceOf",
                                                        "value": 930
                                                    },
                                                    {
                                                        "children": [],
                                                        "depth": 3,
                                                        "name": "transfer",
                                                        "value": 22881
                                                    },
                                                    {
                                                        "children": [],
                                                        "depth": 3,
                                                        "name": "transfer",
                                                        "value": 5781
                                                    },
                                                    {
                                                        "children": [],
                                                        "depth": 3,
                                                        "name": "transfer",
                                                        "value": 5781
                                                    },
                                                    {
                                                        "children": [],
                                                        "depth": 3,
                                                        "name": "queueNewRewards",
                                                        "value": 21588
                                                    },
                                                    {
                                                        "children": [],
                                                        "depth": 3,
                                                        "name": "transfer",
                                                        "value": 5781
                                                    },
                                                    {
                                                        "children": [],
                                                        "depth": 3,
                                                        "name": "queueNewRewards",
                                                        "value": 4344
                                                    },
                                                    {
                                                        "children": [],
                                                        "depth": 3,
                                                        "name": "transfer",
                                                        "value": 5781
                                                    },
                                                    {
                                                        "children": [],
                                                        "depth": 3,
                                                        "name": "queueNewRewards",
                                                        "value": 4111
                                                    }
                                                ],
                                                "depth": 2,
                                                "name": "earmarkRewards",
                                                "value": 293443
                                            },
                                            {
                                                "children": [],
                                                "depth": 2,
                                                "name": "balanceOf",
                                                "value": 930
                                            },
                                            {
                                                "children": [],
                                                "depth": 2,
                                                "name": "transfer",
                                                "value": 22881
                                            }
                                        ],
                                        "depth": 1,
                                        "name": "earmarkRewards",
                                        "value": 340793
                                    }
                                ],
                                "depth": 0,
                                "name": "Executed Gas",
                                "value": 342863
                            }
                        ],
                        "depth": -1,
                        "name": "Actual Gas Used",
                        "value": 630779
                    },
                    {
                        "children": [],
                        "depth": -1,
                        "name": "Refunded Gas",
                        "value": 82400
                    }
                ],
                "depth": -2,
                "name": "Total Gas",
                "value": 713179
            }
        ],
        "isConfirmed": true,
        "mainTrace": [
            {
                "children": [
                    {
                        "children": [
                            {
                                "children": [],
                                "depth": 1,
                                "id": 1,
                                "order": 1
                            },
                            {
                                "children": [
                                    {
                                        "children": [],
                                        "depth": 2,
                                        "id": 3,
                                        "order": 3
                                    },
                                    {
                                        "children": [
                                            {
                                                "children": [
                                                    {
                                                        "children": [
                                                            {
                                                                "children": [],
                                                                "depth": 5,
                                                                "id": 7,
                                                                "order": 7
                                                            },
                                                            {
                                                                "children": [
                                                                    {
                                                                        "children": [
                                                                            {
                                                                                "children": [],
                                                                                "depth": 7,
                                                                                "id": 10,
                                                                                "order": 10
                                                                            },
                                                                            {
                                                                                "children": [],
                                                                                "depth": 7,
                                                                                "id": 11,
                                                                                "order": 11
                                                                            },
                                                                            {
                                                                                "children": [],
                                                                                "depth": 7,
                                                                                "id": 12,
                                                                                "order": 12
                                                                            },
                                                                            {
                                                                                "children": [],
                                                                                "depth": 7,
                                                                                "id": 13,
                                                                                "order": 13
                                                                            },
                                                                            {
                                                                                "children": [
                                                                                    {
                                                                                        "children": [],
                                                                                        "depth": 8,
                                                                                        "id": 15,
                                                                                        "order": 15
                                                                                    }
                                                                                ],
                                                                                "depth": 7,
                                                                                "id": 14,
                                                                                "order": 14
                                                                            },
                                                                            {
                                                                                "children": [],
                                                                                "depth": 7,
                                                                                "id": 16,
                                                                                "order": 16
                                                                            },
                                                                            {
                                                                                "children": [],
                                                                                "depth": 7,
                                                                                "id": 17,
                                                                                "order": 17
                                                                            }
                                                                        ],
                                                                        "depth": 6,
                                                                        "id": 9,
                                                                        "order": 9
                                                                    }
                                                                ],
                                                                "depth": 5,
                                                                "id": 8,
                                                                "order": 8
                                                            },
                                                            {
                                                                "children": [
                                                                    {
                                                                        "children": [],
                                                                        "depth": 6,
                                                                        "id": 19,
                                                                        "order": 19
                                                                    }
                                                                ],
                                                                "depth": 5,
                                                                "id": 18,
                                                                "order": 18
                                                            },
                                                            {
                                                                "children": [
                                                                    {
                                                                        "children": [],
                                                                        "depth": 6,
                                                                        "id": 21,
                                                                        "order": 21
                                                                    }
                                                                ],
                                                                "depth": 5,
                                                                "id": 20,
                                                                "order": 20
                                                            },
                                                            {
                                                                "children": [],
                                                                "depth": 5,
                                                                "id": 22,
                                                                "order": 22
                                                            }
                                                        ],
                                                        "depth": 4,
                                                        "id": 6,
                                                        "order": 6
                                                    },
                                                    {
                                                        "children": [],
                                                        "depth": 4,
                                                        "id": 23,
                                                        "order": 23
                                                    },
                                                    {
                                                        "children": [
                                                            {
                                                                "children": [],
                                                                "depth": 5,
                                                                "id": 25,
                                                                "order": 25
                                                            }
                                                        ],
                                                        "depth": 4,
                                                        "id": 24,
                                                        "order": 24
                                                    }
                                                ],
                                                "depth": 3,
                                                "id": 5,
                                                "order": 5
                                            },
                                            {
                                                "children": [
                                                    {
                                                        "children": [
                                                            {
                                                                "children": [],
                                                                "depth": 5,
                                                                "id": 28,
                                                                "order": 28
                                                            },
                                                            {
                                                                "children": [
                                                                    {
                                                                        "children": [],
                                                                        "depth": 6,
                                                                        "id": 30,
                                                                        "order": 30
                                                                    }
                                                                ],
                                                                "depth": 5,
                                                                "id": 29,
                                                                "order": 29
                                                            },
                                                            {
                                                                "children": [],
                                                                "depth": 5,
                                                                "id": 31,
                                                                "order": 31
                                                            },
                                                            {
                                                                "children": [],
                                                                "depth": 5,
                                                                "id": 32,
                                                                "order": 32
                                                            }
                                                        ],
                                                        "depth": 4,
                                                        "id": 27,
                                                        "order": 27
                                                    }
                                                ],
                                                "depth": 3,
                                                "id": 26,
                                                "order": 26
                                            },
                                            {
                                                "children": [
                                                    {
                                                        "children": [
                                                            {
                                                                "children": [
                                                                    {
                                                                        "children": [],
                                                                        "depth": 6,
                                                                        "id": 36,
                                                                        "order": 36
                                                                    }
                                                                ],
                                                                "depth": 5,
                                                                "id": 35,
                                                                "order": 35
                                                            },
                                                            {
                                                                "children": [],
                                                                "depth": 5,
                                                                "id": 37,
                                                                "order": 37
                                                            }
                                                        ],
                                                        "depth": 4,
                                                        "id": 34,
                                                        "order": 34
                                                    }
                                                ],
                                                "depth": 3,
                                                "id": 33,
                                                "order": 33
                                            },
                                            {
                                                "children": [],
                                                "depth": 3,
                                                "id": 38,
                                                "order": 38
                                            },
                                            {
                                                "children": [
                                                    {
                                                        "children": [],
                                                        "depth": 4,
                                                        "id": 40,
                                                        "order": 40
                                                    }
                                                ],
                                                "depth": 3,
                                                "id": 39,
                                                "order": 39
                                            },
                                            {
                                                "children": [
                                                    {
                                                        "children": [],
                                                        "depth": 4,
                                                        "id": 42,
                                                        "order": 42
                                                    }
                                                ],
                                                "depth": 3,
                                                "id": 41,
                                                "order": 41
                                            },
                                            {
                                                "children": [
                                                    {
                                                        "children": [],
                                                        "depth": 4,
                                                        "id": 44,
                                                        "order": 44
                                                    }
                                                ],
                                                "depth": 3,
                                                "id": 43,
                                                "order": 43
                                            },
                                            {
                                                "children": [
                                                    {
                                                        "children": [],
                                                        "depth": 4,
                                                        "id": 46,
                                                        "order": 46
                                                    }
                                                ],
                                                "depth": 3,
                                                "id": 45,
                                                "order": 45
                                            },
                                            {
                                                "children": [
                                                    {
                                                        "children": [],
                                                        "depth": 4,
                                                        "id": 48,
                                                        "order": 48
                                                    }
                                                ],
                                                "depth": 3,
                                                "id": 47,
                                                "order": 47
                                            },
                                            {
                                                "children": [],
                                                "depth": 3,
                                                "id": 49,
                                                "order": 49
                                            },
                                            {
                                                "children": [
                                                    {
                                                        "children": [],
                                                        "depth": 4,
                                                        "id": 51,
                                                        "order": 51
                                                    }
                                                ],
                                                "depth": 3,
                                                "id": 50,
                                                "order": 50
                                            },
                                            {
                                                "children": [],
                                                "depth": 3,
                                                "id": 52,
                                                "order": 52
                                            }
                                        ],
                                        "depth": 2,
                                        "id": 4,
                                        "order": 4
                                    },
                                    {
                                        "children": [],
                                        "depth": 2,
                                        "id": 53,
                                        "order": 53
                                    },
                                    {
                                        "children": [
                                            {
                                                "children": [],
                                                "depth": 3,
                                                "id": 55,
                                                "order": 55
                                            }
                                        ],
                                        "depth": 2,
                                        "id": 54,
                                        "order": 54
                                    }
                                ],
                                "depth": 1,
                                "id": 2,
                                "order": 2
                            }
                        ],
                        "depth": 0,
                        "id": 0,
                        "order": 0
                    }
                ],
                "depth": -1,
                "id": -1,
                "order": -1
            }
        ],
        "mainTraceNodeCount": 56,
        "parentIdMap": {
            "0": -1,
            "1": 0,
            "10": 9,
            "11": 9,
            "12": 9,
            "13": 9,
            "14": 9,
            "15": 14,
            "16": 9,
            "17": 9,
            "18": 6,
            "19": 18,
            "2": 0,
            "20": 6,
            "21": 20,
            "22": 6,
            "23": 5,
            "24": 5,
            "25": 24,
            "26": 4,
            "27": 26,
            "28": 27,
            "29": 27,
            "3": 2,
            "30": 29,
            "31": 27,
            "32": 27,
            "33": 4,
            "34": 33,
            "35": 34,
            "36": 35,
            "37": 34,
            "38": 4,
            "39": 4,
            "4": 2,
            "40": 39,
            "41": 4,
            "42": 41,
            "43": 4,
            "44": 43,
            "45": 4,
            "46": 45,
            "47": 4,
            "48": 47,
            "49": 4,
            "5": 4,
            "50": 4,
            "51": 50,
            "52": 4,
            "53": 2,
            "54": 2,
            "55": 54,
            "6": 5,
            "7": 6,
            "8": 6,
            "9": 8
        },
        "tidyTrace": [
            {
                "children": [
                    {
                        "children": [
                            {
                                "children": [
                                    {
                                        "children": [
                                            {
                                                "children": [
                                                    {
                                                        "children": [
                                                            {
                                                                "children": [
                                                                    {
                                                                        "children": [
                                                                            {
                                                                                "children": [],
                                                                                "depth": 7,
                                                                                "id": 10,
                                                                                "order": 10
                                                                            },
                                                                            {
                                                                                "children": [],
                                                                                "depth": 7,
                                                                                "id": 12,
                                                                                "order": 12
                                                                            },
                                                                            {
                                                                                "children": [],
                                                                                "depth": 7,
                                                                                "id": 17,
                                                                                "order": 17
                                                                            }
                                                                        ],
                                                                        "depth": 6,
                                                                        "id": 9,
                                                                        "order": 9
                                                                    }
                                                                ],
                                                                "depth": 5,
                                                                "id": 8,
                                                                "order": 8
                                                            },
                                                            {
                                                                "children": [
                                                                    {
                                                                        "children": [],
                                                                        "depth": 6,
                                                                        "id": 21,
                                                                        "order": 21
                                                                    }
                                                                ],
                                                                "depth": 5,
                                                                "id": 20,
                                                                "order": 20
                                                            },
                                                            {
                                                                "children": [],
                                                                "depth": 5,
                                                                "id": 22,
                                                                "order": 22
                                                            }
                                                        ],
                                                        "depth": 4,
                                                        "id": 6,
                                                        "order": 6
                                                    },
                                                    {
                                                        "children": [
                                                            {
                                                                "children": [],
                                                                "depth": 5,
                                                                "id": 25,
                                                                "order": 25
                                                            }
                                                        ],
                                                        "depth": 4,
                                                        "id": 24,
                                                        "order": 24
                                                    }
                                                ],
                                                "depth": 3,
                                                "id": 5,
                                                "order": 5
                                            },
                                            {
                                                "children": [
                                                    {
                                                        "children": [
                                                            {
                                                                "children": [],
                                                                "depth": 5,
                                                                "id": 31,
                                                                "order": 31
                                                            }
                                                        ],
                                                        "depth": 4,
                                                        "id": 27,
                                                        "order": 27
                                                    }
                                                ],
                                                "depth": 3,
                                                "id": 26,
                                                "order": 26
                                            },
                                            {
                                                "children": [
                                                    {
                                                        "children": [
                                                            {
                                                                "children": [
                                                                    {
                                                                        "children": [],
                                                                        "depth": 6,
                                                                        "id": 36,
                                                                        "order": 36
                                                                    }
                                                                ],
                                                                "depth": 5,
                                                                "id": 35,
                                                                "order": 35
                                                            }
                                                        ],
                                                        "depth": 4,
                                                        "id": 34,
                                                        "order": 34
                                                    }
                                                ],
                                                "depth": 3,
                                                "id": 33,
                                                "order": 33
                                            },
                                            {
                                                "children": [
                                                    {
                                                        "children": [],
                                                        "depth": 4,
                                                        "id": 40,
                                                        "order": 40
                                                    }
                                                ],
                                                "depth": 3,
                                                "id": 39,
                                                "order": 39
                                            },
                                            {
                                                "children": [
                                                    {
                                                        "children": [],
                                                        "depth": 4,
                                                        "id": 42,
                                                        "order": 42
                                                    }
                                                ],
                                                "depth": 3,
                                                "id": 41,
                                                "order": 41
                                            },
                                            {
                                                "children": [
                                                    {
                                                        "children": [],
                                                        "depth": 4,
                                                        "id": 44,
                                                        "order": 44
                                                    }
                                                ],
                                                "depth": 3,
                                                "id": 43,
                                                "order": 43
                                            },
                                            {
                                                "children": [
                                                    {
                                                        "children": [],
                                                        "depth": 4,
                                                        "id": 46,
                                                        "order": 46
                                                    }
                                                ],
                                                "depth": 3,
                                                "id": 45,
                                                "order": 45
                                            },
                                            {
                                                "children": [
                                                    {
                                                        "children": [],
                                                        "depth": 4,
                                                        "id": 48,
                                                        "order": 48
                                                    }
                                                ],
                                                "depth": 3,
                                                "id": 47,
                                                "order": 47
                                            },
                                            {
                                                "children": [],
                                                "depth": 3,
                                                "id": 49,
                                                "order": 49
                                            },
                                            {
                                                "children": [
                                                    {
                                                        "children": [],
                                                        "depth": 4,
                                                        "id": 51,
                                                        "order": 51
                                                    }
                                                ],
                                                "depth": 3,
                                                "id": 50,
                                                "order": 50
                                            },
                                            {
                                                "children": [],
                                                "depth": 3,
                                                "id": 52,
                                                "order": 52
                                            }
                                        ],
                                        "depth": 2,
                                        "id": 4,
                                        "order": 4
                                    },
                                    {
                                        "children": [
                                            {
                                                "children": [],
                                                "depth": 3,
                                                "id": 55,
                                                "order": 55
                                            }
                                        ],
                                        "depth": 2,
                                        "id": 54,
                                        "order": 54
                                    }
                                ],
                                "depth": 1,
                                "id": 2,
                                "order": 2
                            }
                        ],
                        "depth": 0,
                        "id": 0,
                        "order": 0
                    }
                ],
                "depth": -1,
                "id": -1,
                "order": -1
            }
        ],
        "tidyTraceNodeCount": 38
    },
    "state_change": {
        "stateChanges": [
            {
                "address": "0x3fe65692bfcd0e6cf84cb1e7d24108e434a7587e",
                "erc": "",
                "slots": [
                    {
                        "current": "0x000000000000000000000000000000000000000000000d4ab1b00315c61bf05a",
                        "key": "0x0000000000000000000000000000000000000000000000000000000000000009",
                        "prev": "0x000000000000000000000000000000000000000000000ca9871b7dba966a3e34"
                    }
                ],
                "storageVariables": [
                    {
                        "name": "queuedRewards",
                        "type": "uint256",
                        "value": {
                            "current": "62768627075892561834074",
                            "prev": "59795633056152489180724",
                            "typeTag": 1
                        }
                    }
                ]
            },
            {
                "address": "0x512a68dd5433563bad526c8c2838c39debc9a756",
                "erc": "",
                "slots": [
                    {
                        "current": "0x00000000000000000000000000000000000000000000000000000000000001ea",
                        "key": "0x0000000000000000000000000000000000000000000000000000000000000014",
                        "prev": "0x00000000000000000000000000000000000000000000000000000000000001e9"
                    },
                    {
                        "current": "0x000000000000000000000000000000000000000000024c3f78dacd63fef919d7",
                        "key": "0x46835cefcb723c6284a537b14cf3e7e2757279fe00c6829e5c3b05ebc6f1cec7",
                        "prev": "0x000000000000000000000000000000000000000000024facd421b26bc1ba78fc"
                    },
                    {
                        "current": "0x00000000000000000000000000000000000000000002b753f6cc47892f9e709b",
                        "key": "0x0000000000000000000000000000000000000000000000000000000000000013",
                        "prev": "0x00000000000000000000000000000000000000000002bac152132c90f25fcfc0"
                    },
                    {
                        "current": "0x0000000000000000000000000000000000000000000000000000000065fd5a23",
                        "key": "0x00000000000000000000000000000000000000000000000000000000000001ff",
                        "prev": "0x0000000000000000000000000000000000000000000000000000000000000000"
                    },
                    {
                        "current": "0x00000000000000000000000000000000000000000000000003ab4b8d4faaa2a8",
                        "key": "0x0000000000000000000000000000000000000001431e0fae6d721000000001ff",
                        "prev": "0x0000000000000000000000000000000000000000000000000000000000000000"
                    },
                    {
                        "current": "0x0000000000000000000000000000000000000000000080d609200b7f7119a16c",
                        "key": "0xcc26c264efdea403b4e73b0e7f87fc1c4c6c088474dd5519db749ff493f934e0",
                        "prev": "0x000000000000000000000000000000000000000000007edb7db74d7400e15638"
                    },
                    {
                        "current": "0x00000000000000000000000000000000000000000000000003ab4b8d4faaa2a8",
                        "key": "0x8398d5e80e916e5e0d9706fba630ed9a7b1bba944e4f0ce3ea92e8607bba33ab",
                        "prev": "0x000000000000000000000000000000000000000000000000039f6a0136cb9492"
                    },
                    {
                        "current": "0x0000000000000000000000000000000000000000000000000000000065fd5a23",
                        "key": "0x1fdf7722415434bc24a667ce27e7842d64dbb46fc8e2aa7f498c20080b8f4806",
                        "prev": "0x0000000000000000000000000000000000000000000000000000000065fa741b"
                    }
                ],
                "storageVariables": []
            },
            {
                "address": "0xbe99c9a460488ef88ef46db02a1222563acad636",
                "erc": "",
                "slots": [
                    {
                        "current": "0x00000000000000000000000000000000000000000000000001fe01a8b89194ad",
                        "key": "0x0000000000000000000000000000000000000000000000000000000000000008",
                        "prev": "0x00000000000000000000000000000000000000000000000001f7b8f1d7793fcf"
                    },
                    {
                        "current": "0x0000000000000000000000000000000000000000000000000000000065fd5a23",
                        "key": "0x0000000000000000000000000000000000000000000000000000000000000007",
                        "prev": "0x0000000000000000000000000000000000000000000000000000000065fae9ff"
                    },
                    {
                        "current": "0x000000000000000000000000000000000000000000006aef16ef13c87f27326d",
                        "key": "0x000000000000000000000000000000000000000000000000000000000000000b",
                        "prev": "0x0000000000000000000000000000000000000000000065b568b7f420734ab892"
                    },
                    {
                        "current": "0x0000000000000000000000000000000000000000000000000090f36640385a23",
                        "key": "0x0000000000000000000000000000000000000000000000000000000000000006",
                        "prev": "0x00000000000000000000000000000000000000000000000000935ba5b667018c"
                    },
                    {
                        "current": "0x000000000000000000000000000000000000000000000539ae371fa80bdc79db",
                        "key": "0x000000000000000000000000000000000000000000000000000000000000000a",
                        "prev": "0x00000000000000000000000000000000000000000000054fe544c7cd97c8524a"
                    },
                    {
                        "current": "0x00000000000000000000000000000000000000000000000000000000660694a3",
                        "key": "0x0000000000000000000000000000000000000000000000000000000000000005",
                        "prev": "0x0000000000000000000000000000000000000000000000000000000065fd5a17"
                    }
                ],
                "storageVariables": [
                    {
                        "name": "historicalRewards",
                        "type": "uint256",
                        "value": {
                            "current": "504981271579139091411565",
                            "prev": "480305421215296488388754",
                            "typeTag": 1
                        }
                    },
                    {
                        "name": "rewardRate",
                        "type": "uint256",
                        "value": {
                            "current": "40800017135983139",
                            "prev": "41477588864401804",
                            "typeTag": 1
                        }
                    },
                    {
                        "name": "currentRewards",
                        "type": "uint256",
                        "value": {
                            "current": "24675850363842603022811",
                            "prev": "25085645745190211179082",
                            "typeTag": 1
                        }
                    },
                    {
                        "name": "periodFinish",
                        "type": "uint256",
                        "value": {
                            "current": "1711707299",
                            "prev": "1711102487",
                            "typeTag": 1
                        }
                    },
                    {
                        "name": "rewardPerTokenStored",
                        "type": "uint256",
                        "value": {
                            "current": "143554062285116589",
                            "prev": "141785262127136719",
                            "typeTag": 1
                        }
                    },
                    {
                        "name": "lastUpdateTime",
                        "type": "uint256",
                        "value": {
                            "current": "1711102499",
                            "prev": "1710942719",
                            "typeTag": 1
                        }
                    }
                ]
            },
            {
                "address": "0xcf50b810e57ac33b91dcf525c6ddd9881b139332",
                "erc": "",
                "slots": [
                    {
                        "current": "0x000000000000000000000000000000000000000000000c47fe0284e45fffb913",
                        "key": "0x0000000000000000000000000000000000000000000000000000000000000004",
                        "prev": "0x000000000000000000000000000000000000000000000bff77a615ae8a895c1c"
                    }
                ],
                "storageVariables": [
                    {
                        "name": "queuedRewards",
                        "type": "uint256",
                        "value": {
                            "current": "57996419961621105850643",
                            "prev": "56658572652738073156636",
                            "typeTag": 1
                        }
                    }
                ]
            },
            {
                "address": "0xd061d61a4d941c39e5453435b6345dc261c2fce0",
                "erc": "",
                "slots": [
                    {
                        "current": "0x0000000000000000000000000000000000000000000080d609200b7f7119a16c",
                        "key": "0xb9f7253c6f633b67304873a4f9c2724422c45e2c078fedf0c3a5c32e9138cfe0",
                        "prev": "0x000000000000000000000000000000000000000000007a8a5f52d5ef9428abeb"
                    }
                ],
                "storageVariables": []
            },
            {
                "address": "0xd533a949740bb3306d119cc777fa900ba034cd52",
                "erc": "",
                "slots": [
                    {
                        "current": "0x0000000000000000000000000000000000000000000012bf9ef0db7e202df720",
                        "key": "0x4e4dbe8f6f3e50c4b52f9b7f82d2641a698d4417006a0ec70236b49e060e3c3e",
                        "prev": "0x000000000000000000000000000000000000000000000d85f0b9bbd614517d45"
                    },
                    {
                        "current": "0x00000000000000000000000000000000000000000001050d491c9f85e4749598",
                        "key": "0xce2c08ea0c26f24a831e722b5f183135fbe8a555a9b2627d3aed2a1f307c70b5",
                        "prev": "0x0000000000000000000000000000000000000000000104c4c2c030500efe38a1"
                    },
                    {
                        "current": "0x000000000000000000000000000000000000000006c346bdd99de49533156337",
                        "key": "0x0000000000000000000000000000000000000000000000000000000000000005",
                        "prev": "0x000000000000000000000000000000000000000006c340722fd0af0556246db6"
                    },
                    {
                        "current": "0x0000000000000000000000000000000000000000000000203bb74ddf0989f06e",
                        "key": "0xaa82693a7a5ce90bf9dee659b5b05b87a83bc8408a039f4989e9d2512d49c0cf",
                        "prev": "0x0000000000000000000000000000000000000000000000000000000000000000"
                    },
                    {
                        "current": "0x000000000000000000000000000000000000000000012b51b14bb1c906a4f6cb",
                        "key": "0x7f6f177f87cac5edee95d555da4fffebac25b51bc5274b8e86057831769d9ea1",
                        "prev": "0x000000000000000000000000000000000000000000012ab086b72c6dd6f344a5"
                    },
                    {
                        "current": "0x0000000000000000000000000000000000000000000000080eedd377c2627c1b",
                        "key": "0xc0ef0f292e8ff5dbcf069eb5cba90c7c3ad7102f0efa29c04da9eca720dc33df",
                        "prev": "0x0000000000000000000000000000000000000000000000000000000000000000"
                    }
                ],
                "storageVariables": []
            }
        ]
    }
}