{
    "balance_change": {
        "balanceChanges": [
            {
                "account": "0x7ec86d1dcf8c663055e7dd6493e2b79d40c7d7da",
                "assets": [
                    {
                        "address": "0xef68e7c694f40c8202821edf525de3782458639f",
                        "amount": "1,213,358.970789",
                        "iconUrl": "",
                        "isERC1155": false,
                        "isERC721": false,
                        "sign": false,
                        "value": ""
                    }
                ]
            },
            {
                "account": "0x8aa163a5e722ad6951aa8f27425b128d67e5543d",
                "assets": [
                    {
                        "address": "0xef68e7c694f40c8202821edf525de3782458639f",
                        "amount": "1,213,358.970789",
                        "iconUrl": "",
                        "isERC1155": false,
                        "isERC721": false,
                        "sign": true,
                        "value": ""
                    }
                ]
            }
        ]
    },
    "profile": {
        "basic_info": {
            "baseFee": "",
            "blockNumber": 6339808,
            "callData": "0xa9059cbb0000000000000000000000008aa163a5e722ad6951aa8f27425b128d67e5543d0000000000000000000000000000000000000000000100f05254d13faad35000",
            "debugEnable": true,
            "errorInfo": "",
            "eventCount": 1,
            "feeRecipient": "0xea674fdde714fd979de3edf0f56aa9716b898ec8",
            "formatValue": "0",
            "gasLimit": 100000,
            "gasPrice": "21",
            "gasUsed": 36979,
            "intTxnCount": 0,
            "internalRevert": false,
            "internalRevertMessage": "",
            "isContractCreation": false,
            "isFlashloan": false,
            "maxFee": "",
            "nonce": 30,
            "overwritedBlockNumber": -1,
            "priorityFee": "",
            "receiver": "0xef68e7c694f40c8202821edf525de3782458639f",
            "revertMessage": "",
            "sender": "0x7ec86d1dcf8c663055e7dd6493e2b79d40c7d7da",
            "simulationEnable": true,
            "sourceTxnHash": "0x3866496f3a2719b5d502e1dd55b9040878fdb6c2dcd71bd6bf7e232d4707babb",
            "status": true,
            "timestamp": "2018-09-16T02:49:48Z",
            "transactionFee": "0.000776559",
            "txnHash": "0x3866496f3a2719b5d502e1dd55b9040878fdb6c2dcd71bd6bf7e232d4707babb",
            "txnIndex": 45,
            "type": 0,
            "value": "0"
        },
        "fund_flow": [
            {
                "amount": "1,213,358.970789",
                "from": "0x7ec86d1dcf8c663055e7dd6493e2b79d40c7d7da",
                "id": 1,
                "isERC1155": false,
                "isERC721": false,
                "isReverted": false,
                "order": 1,
                "to": "0x8aa163a5e722ad6951aa8f27425b128d67e5543d",
                "token": "0xef68e7c694f40c8202821edf525de3782458639f"
            }
        ],
        "token_infos": [
            {
                "address": "0xc02aaa39b223fe8d0a0e5c4f27ead9083c756cc2",
                "decimals": 18
            },
            {
                "address": "0xef68e7c694f40c8202821edf525de3782458639f",
                "decimals": 18
            },
            {
                "address": "0xeeeeeeeeeeeeeeeeeeeeeeeeeeeeeeeeeeeeeeee",
                "decimals": 18
            }
        ]
    },
    "address_label": {
        "labels": [
            {
                "address": "0xeeeeeeeeeeeeeeeeeeeeeeeeeeeeeeeeeeeeeeee",
                "label": "Ether"
            },
            {
                "address": "0xef68e7c694f40c8202821edf525de3782458639f",
                "label": "Loopring: Old Token"
            },
            {
                "address": "0x0000000000000000000000000000000000000001",
                "label": "Precompiled"
            },
            {
                "address": "0x0000000000000000000000000000000000000002",
                "label": "Precompiled"
            },
            {
                "address": "0x0000000000000000000000000000000000000003",
                "label": "Precompiled"
            },
            {
                "address": "0x0000000000000000000000000000000000000004",
                "label": "Precompiled"
            }
        ]
    },
    "trace": {
        "accountLabels": null,
        "dataMap": {
            "-1": {
                "invocation": {
                    "address": "0x7ec86d1dcf8c663055e7dd6493e2b79d40c7d7da",
                    "callData": "",
                    "decodedMethod": null,
                    "errorInfo": "",
                    "fromAddress": "",
                    "gasUsed": 0,
                    "id": -1,
                    "methodDecoded": false,
                    "operation": "",
                    "output": "",
                    "revert": false,
                    "revertMessage": "",
                    "selector": "",
                    "status": false,
                    "value": ""
                },
                "nodeType": 0
            },
            "0": {
                "invocation": {
                    "address": "0xef68e7c694f40c8202821edf525de3782458639f",
                    "callData": "0x0000000000000000000000008aa163a5e722ad6951aa8f27425b128d67e5543d0000000000000000000000000000000000000000000100f05254d13faad35000",
                    "decodedMethod": {
                        "callParams": [
                            {
                                "name": "_to",
                                "type": "address",
                                "value": "0x8aa163a5e722ad6951aa8f27425b128d67e5543d"
                            },
                            {
                                "decimalAvailable": true,
                                "name": "_value",
                                "type": "uint256",
                                "value": "1,213,358,970,789,000,000,000,000"
                            }
                        ],
                        "constructorArguments": "",
                        "name": "transfer",
                        "returnParams": [],
                        "signature": "transfer(address,uint256)"
                    },
                    "errorInfo": "",
                    "fromAddress": "0x7ec86d1dcf8c663055e7dd6493e2b79d40c7d7da",
                    "gasUsed": 36979,
                    "id": 0,
                    "methodDecoded": true,
                    "operation": "CALL",
                    "output": "",
                    "revert": false,
                    "revertMessage": "",
                    "selector": "0xa9059cbb",
                    "status": true,
                    "value": "0"
                },
                "nodeType": 0
            },
            "1": {
                "event": {
                    "contract": "0xef68e7c694f40c8202821edf525de3782458639f",
                    "decodedLog": {
                        "name": "Transfer",
                        "params": [
                            {
                                "name": "from",
                                "type": "address",
                                "value": "0x7ec86d1dcf8c663055e7dd6493e2b79d40c7d7da"
                            },
                            {
                                "name": "to",
                                "type": "address",
                                "value": "0x8aa163a5e722ad6951aa8f27425b128d67e5543d"
                            },
                            {
                                "decimalAvailable": true,
                                "name": "value",
                                "type": "uint256",
                                "value": "1,213,358,970,789,000,000,000,000"
                            }
                        ],
                        "signature": "Transfer(address,address,uint256)"
                    },
                    "id": 1,
                    "logData": "0x0000000000000000000000000000000000000000000100f05254d13faad35000",
                    "logDecoded": true,
                    "operation": "EVENT",
                    "revert": false,
                    "status": true,
                    "topics": [
                        "0xddf252ad1be2c89b69c2b068fc378daa952ba7f163c4a11628f55a4df523b3ef",
                        "0x0000000000000000000000007ec86d1dcf8c663055e7dd6493e2b79d40c7d7da",
                        "0x0000000000000000000000008aa163a5e722ad6951aa8f27425b128d67e5543d"
                    ]
                },
                "nodeType": 1
            }
        },
        "gasFlame": [
            {
                "children": [
                    {
                        "children": [
                            {
                                "children": [],
                                "depth": 0,
                                "name": "Initial Gas",
                                "value": 23384
                            },
                            {
                                "children": [],
                                "depth": 0,
                                "name": "Executed Gas",
                                "value": 13595
                            }
                        ],
                        "depth": -1,
                        "name": "Actual Gas Used",
                        "value": 36979
                    },
                    {
                        "children": [],
                        "depth": -1,
                        "name": "Refunded Gas",
                        "value": 0
                    }
                ],
                "depth": -2,
                "name": "Total Gas",
                "value": 36979
            }
        ],
        "isConfirmed": true,
        "mainTrace": [
            {
                "children": [
                    {
                        "children": [
                            {
                                "children": [],
                                "depth": 1,
                                "id": 1,
                                "order": 1
                            }
                        ],
                        "depth": 0,
                        "id": 0,
                        "order": 0
                    }
                ],
                "depth": -1,
                "id": -1,
                "order": -1
            }
        ],
        "mainTraceNodeCount": 2,
        "parentIdMap": {
            "0": -1,
            "1": 0
        },
        "tidyTrace": [
            {
                "children": [
                    {
                        "children": [
                            {
                                "children": [],
                                "depth": 1,
                                "id": 1,
                                "order": 1
                            }
                        ],
                        "depth": 0,
                        "id": 0,
                        "order": 0
                    }
                ],
                "depth": -1,
                "id": -1,
                "order": -1
            }
        ],
        "tidyTraceNodeCount": 2
    },
    "state_change": {
        "stateChanges": [
            {
                "address": "0xef68e7c694f40c8202821edf525de3782458639f",
                "erc": "ERC-20",
                "slots": [
                    {
                        "current": "0x0000000000000000000000000000000000000000000204517b085b56470b3000",
                        "key": "0x6013e4490585e809e2d35215f7d3f4447967924540c6fcd99fb509617d1cb4a9",
                        "prev": "0x00000000000000000000000000000000000000000001036128b38a169c37e000"
                    },
                    {
                        "current": "0x00000000000000000000000000000000000000000018adc98c91b2ce2fa38000",
                        "key": "0x32c6f7468f398482c835c77cdcd8dd644e2b298e743588bcb9327196d2967f74",
                        "prev": "0x00000000000000000000000000000000000000000019aeb9dee6840dda76d000"
                    }
                ],
                "storageVariables": [
                    {
                        "name": "balances",
                        "type": "mapping(address => uint256)",
                        "value": {
                            "pairs": [
                                {
                                    "key": "0x7ec86d1dcf8c663055e7dd6493e2b79d40c7d7da",
                                    "value": {
                                        "current": "29834906996920000000000000",
                                        "prev": "31048265967709000000000000",
                                        "typeTag": 1
                                    }
                                },
                                {
                                    "key": "0x8aa163a5e722ad6951aa8f27425b128d67e5543d",
                                    "value": {
                                        "current": "2438244156867000000000000",
                                        "prev": "1224885186078000000000000",
                                        "typeTag": 1
                                    }
                                }
                            ],
                            "typeTag": 4
                        }
                    }
                ]
            }
        ]
    }
}