{
    "balance_change": {
        "balanceChanges": []
    },
    "profile": {
        "basic_info": {
            "baseFee": "82.399905523",
            "blockNumber": 13324794,
            "callData": "0xa8a41c700000000000000000000000007be8076f4ea4a4ad08075c2508e481d6c946d12b000000000000000000000000e3511a9c5b5bc2808cd52d5fdd2ba52b7d7d303000000000000000000000000000000000000000000000000000000000000000000000000000000000000000005b3256965e7c3cf26e11fcaf296dfc8807c010730000000000000000000000001cb1a5e65610aeff2551a50f76a87a7d3fb649c6000000000000000000000000000000000000000000000000000000000000000000000000000000000000000000000000000000000000000000000000000000000000000000000000000000000000000000000000000000000000000000000177000000000000000000000000000000000000000000000000000000000000000000000000000000000000000000000000000000000000000000000000000000000000000000000000000000000000000000000000000000000000000000000000000000000000000000000000000000000000000000000003bd913e6c1df40000000000000000000000000000000000000000000000000000000000000000000000000000000000000000000000000000000000000000000000000000614224b80000000000000000000000000000000000000000000000000000000000000000401e567b2f47dcb09ab0cb81a8fe9153b6ca254bc45668f31f04c5ea795c31be0000000000000000000000000000000000000000000000000000000000000001000000000000000000000000000000000000000000000000000000000000000100000000000000000000000000000000000000000000000000000000000000000000000000000000000000000000000000000000000000000000000000000000000000000000000000000000000000000000000000000000000000000000034000000000000000000000000000000000000000000000000000000000000003e00000000000000000000000000000000000000000000000000000000000000480000000000000000000000000000000000000000000000000000000000000001ce6ce459f852e99072ec36460131d89449e0b6073b1264e65277fb066db431009530d6646d9094f21069626b894dbd9c5a6e9ce0bcf46baac90aa03c98b2eebf2000000000000000000000000000000000000000000000000000000000000006423b872dd000000000000000000000000e3511a9c5b5bc2808cd52d5fdd2ba52b7d7d30300000000000000000000000000000000000000000000000000000000000000000000000000000000000000000000000000000000000000000000000000000078f000000000000000000000000000000000000000000000000000000000000000000000000000000000000000000000000000000000000000000000064000000000000000000000000000000000000000000000000000000000000000000000000ffffffffffffffffffffffffffffffffffffffffffffffffffffffffffffffff0000000000000000000000000000000000000000000000000000000000000000000000000000000000000000000000000000000000000000000000000000000000000000000000000000000000000000000000000000000000000000",
            "debugEnable": true,
            "errorInfo": "",
            "eventCount": 1,
            "feeRecipient": "0x829bd824b016326a401d083b33d092293333a830",
            "formatValue": "0",
            "gasLimit": 74938,
            "gasPrice": "104.5",
            "gasUsed": 74938,
            "intTxnCount": 1,
            "internalRevert": false,
            "internalRevertMessage": "",
            "isContractCreation": false,
            "isFlashloan": false,
            "maxFee": "",
            "nonce": 80,
            "overwritedBlockNumber": -1,
            "priorityFee": "",
            "receiver": "0x7be8076f4ea4a4ad08075c2508e481d6c946d12b",
            "revertMessage": "",
            "sender": "0xe3511a9c5b5bc2808cd52d5fdd2ba52b7d7d3030",
            "simulationEnable": true,
            "sourceTxnHash": "0x38fd15af0e42b4b22c6e6b413192e1edf30ca190eca2d500a98a3b22d0c2e2d2",
            "status": true,
            "timestamp": "2021-09-30T03:59:14Z",
            "transactionFee": "0.007831021",
            "txnHash": "0x38fd15af0e42b4b22c6e6b413192e1edf30ca190eca2d500a98a3b22d0c2e2d2",
            "txnIndex": 46,
            "type": 0,
            "value": "0"
        },
        "fund_flow": [],
        "token_infos": [
            {
                "address": "0xc02aaa39b223fe8d0a0e5c4f27ead9083c756cc2",
                "decimals": 18
            },
            {
                "address": "0xeeeeeeeeeeeeeeeeeeeeeeeeeeeeeeeeeeeeeeee",
                "decimals": 18
            }
        ]
    },
    "address_label": {
        "labels": [
            {
                "address": "0x1cb1a5e65610aeff2551a50f76a87a7d3fb649c6",
                "label": "Cryptoadz: TOADZ Token"
            },
            {
                "address": "0x0000000000000000000000000000000000000002",
                "label": "Precompiled"
            },
            {
                "address": "0x0000000000000000000000000000000000000004",
                "label": "Precompiled"
            },
            {
                "address": "0xeeeeeeeeeeeeeeeeeeeeeeeeeeeeeeeeeeeeeeee",
                "label": "Ether"
            },
            {
                "address": "0x7be8076f4ea4a4ad08075c2508e481d6c946d12b",
                "label": "OpenSea: Wyvern Exchange v1"
            },
            {
                "address": "0x0000000000000000000000000000000000000000",
                "label": "Null Address"
            },
            {
                "address": "0x0000000000000000000000000000000000000001",
                "label": "Precompiled"
            },
            {
                "address": "0x0000000000000000000000000000000000000003",
                "label": "Precompiled"
            },
            {
                "address": "0x5b3256965e7c3cf26e11fcaf296dfc8807c01073",
                "label": "OpenSea: Wallet"
            }
        ]
    },
    "trace": {
        "accountLabels": null,
        "dataMap": {
            "-1": {
                "invocation": {
                    "address": "0xe3511a9c5b5bc2808cd52d5fdd2ba52b7d7d3030",
                    "callData": "",
                    "decodedMethod": null,
                    "errorInfo": "",
                    "fromAddress": "",
                    "gasUsed": 0,
                    "id": -1,
                    "methodDecoded": false,
                    "operation": "",
                    "output": "",
                    "revert": false,
                    "revertMessage": "",
                    "selector": "",
                    "status": false,
                    "value": ""
                },
                "nodeType": 0
            },
            "0": {
                "invocation": {
                    "address": "0x7be8076f4ea4a4ad08075c2508e481d6c946d12b",
                    "callData": "0x0000000000000000000000007be8076f4ea4a4ad08075c2508e481d6c946d12b000000000000000000000000e3511a9c5b5bc2808cd52d5fdd2ba52b7d7d303000000000000000000000000000000000000000000000000000000000000000000000000000000000000000005b3256965e7c3cf26e11fcaf296dfc8807c010730000000000000000000000001cb1a5e65610aeff2551a50f76a87a7d3fb649c6000000000000000000000000000000000000000000000000000000000000000000000000000000000000000000000000000000000000000000000000000000000000000000000000000000000000000000000000000000000000000000000177000000000000000000000000000000000000000000000000000000000000000000000000000000000000000000000000000000000000000000000000000000000000000000000000000000000000000000000000000000000000000000000000000000000000000000000000000000000000000000000003bd913e6c1df40000000000000000000000000000000000000000000000000000000000000000000000000000000000000000000000000000000000000000000000000000614224b80000000000000000000000000000000000000000000000000000000000000000401e567b2f47dcb09ab0cb81a8fe9153b6ca254bc45668f31f04c5ea795c31be0000000000000000000000000000000000000000000000000000000000000001000000000000000000000000000000000000000000000000000000000000000100000000000000000000000000000000000000000000000000000000000000000000000000000000000000000000000000000000000000000000000000000000000000000000000000000000000000000000000000000000000000000000034000000000000000000000000000000000000000000000000000000000000003e00000000000000000000000000000000000000000000000000000000000000480000000000000000000000000000000000000000000000000000000000000001ce6ce459f852e99072ec36460131d89449e0b6073b1264e65277fb066db431009530d6646d9094f21069626b894dbd9c5a6e9ce0bcf46baac90aa03c98b2eebf2000000000000000000000000000000000000000000000000000000000000006423b872dd000000000000000000000000e3511a9c5b5bc2808cd52d5fdd2ba52b7d7d30300000000000000000000000000000000000000000000000000000000000000000000000000000000000000000000000000000000000000000000000000000078f000000000000000000000000000000000000000000000000000000000000000000000000000000000000000000000000000000000000000000000064000000000000000000000000000000000000000000000000000000000000000000000000ffffffffffffffffffffffffffffffffffffffffffffffffffffffffffffffff0000000000000000000000000000000000000000000000000000000000000000000000000000000000000000000000000000000000000000000000000000000000000000000000000000000000000000000000000000000000000000",
                    "decodedMethod": {
                        "callParams": [
                            {
                                "name": "addrs",
                                "type": "address[7]",
                                "value": [
                                    "0x7be8076f4ea4a4ad08075c2508e481d6c946d12b",
                                    "0xe3511a9c5b5bc2808cd52d5fdd2ba52b7d7d3030",
                                    "0x0000000000000000000000000000000000000000",
                                    "0x5b3256965e7c3cf26e11fcaf296dfc8807c01073",
                                    "0x1cb1a5e65610aeff2551a50f76a87a7d3fb649c6",
                                    "0x0000000000000000000000000000000000000000",
                                    "0x0000000000000000000000000000000000000000"
                                ]
                            },
                            {
                                "name": "uints",
                                "type": "uint256[9]",
                                "value": [
                                    "375",
                                    "0",
                                    "0",
                                    "0",
                                    "69,000,000,000,000,000,000",
                                    "0",
                                    "1,631,724,728",
                                    "0",
                                    "29,001,624,592,510,904,483,041,943,502,666,770,168,310,897,190,068,966,862,833,351,794,185,020,912,062"
                                ]
                            },
                            {
                                "name": "feeMethod",
                                "type": "uint8",
                                "value": "1"
                            },
                            {
                                "name": "side",
                                "type": "uint8",
                                "value": "1"
                            },
                            {
                                "name": "saleKind",
                                "type": "uint8",
                                "value": "0"
                            },
                            {
                                "name": "howToCall",
                                "type": "uint8",
                                "value": "0"
                            },
                            {
                                "name": "calldata",
                                "type": "bytes",
                                "value": "0x23b872dd000000000000000000000000e3511a9c5b5bc2808cd52d5fdd2ba52b7d7d30300000000000000000000000000000000000000000000000000000000000000000000000000000000000000000000000000000000000000000000000000000078f"
                            },
                            {
                                "name": "replacementPattern",
                                "type": "bytes",
                                "value": "0x000000000000000000000000000000000000000000000000000000000000000000000000ffffffffffffffffffffffffffffffffffffffffffffffffffffffffffffffff0000000000000000000000000000000000000000000000000000000000000000"
                            },
                            {
                                "name": "staticExtradata",
                                "type": "bytes",
                                "value": "0x"
                            },
                            {
                                "name": "v",
                                "type": "uint8",
                                "value": "28"
                            },
                            {
                                "name": "r",
                                "type": "bytes32",
                                "value": "0xe6ce459f852e99072ec36460131d89449e0b6073b1264e65277fb066db431009"
                            },
                            {
                                "name": "s",
                                "type": "bytes32",
                                "value": "0x530d6646d9094f21069626b894dbd9c5a6e9ce0bcf46baac90aa03c98b2eebf2"
                            }
                        ],
                        "constructorArguments": "",
                        "name": "cancelOrder_",
                        "returnParams": [],
                        "signature": "cancelOrder_(address[7],uint256[9],uint8,uint8,uint8,uint8,bytes,bytes,bytes,uint8,bytes32,bytes32)"
                    },
                    "errorInfo": "",
                    "fromAddress": "0xe3511a9c5b5bc2808cd52d5fdd2ba52b7d7d3030",
                    "gasUsed": 74938,
                    "id": 0,
                    "methodDecoded": true,
                    "operation": "CALL",
                    "output": "",
                    "revert": false,
                    "revertMessage": "",
                    "selector": "0xa8a41c70",
                    "status": true,
                    "value": "0"
                },
                "nodeType": 0
            },
            "1": {
                "invocation": {
                    "address": "0x0000000000000000000000000000000000000001",
                    "callData": "0x88d954848ed7a9971b1a511081239418c328dec5cf59814a4cb112ca000000000000000000000000000000000000000000000000000000000000001ce6ce459f852e99072ec36460131d89449e0b6073b1264e65277fb066db431009530d6646d9094f21069626b894dbd9c5a6e9ce0bcf46baac90aa03c98b2eebf2",
                    "decodedMethod": {
                        "callParams": [
                            {
                                "name": "hash",
                                "type": "bytes32",
                                "value": "0xfa92235188d954848ed7a9971b1a511081239418c328dec5cf59814a4cb112ca"
                            },
                            {
                                "name": "v",
                                "type": "uint256",
                                "value": "28"
                            },
                            {
                                "name": "r",
                                "type": "bytes32",
                                "value": "0xe6ce459f852e99072ec36460131d89449e0b6073b1264e65277fb066db431009"
                            },
                            {
                                "name": "s",
                                "type": "bytes32",
                                "value": "0x530d6646d9094f21069626b894dbd9c5a6e9ce0bcf46baac90aa03c98b2eebf2"
                            }
                        ],
                        "constructorArguments": "",
                        "name": "ecrecover",
                        "returnParams": [
                            {
                                "name": "",
                                "type": "address",
                                "value": "0xe3511a9c5b5bc2808cd52d5fdd2ba52b7d7d3030"
                            }
                        ],
                        "signature": "ecrecover(bytes32,uint256,bytes32,bytes32)"
                    },
                    "errorInfo": "",
                    "fromAddress": "0x7be8076f4ea4a4ad08075c2508e481d6c946d12b",
                    "gasUsed": 3000,
                    "id": 1,
                    "methodDecoded": true,
                    "operation": "CALL",
                    "output": "0x000000000000000000000000e3511a9c5b5bc2808cd52d5fdd2ba52b7d7d3030",
                    "revert": false,
                    "revertMessage": "",
                    "selector": "0xfa922351",
                    "status": true,
                    "value": "0"
                },
                "nodeType": 0
            },
            "2": {
                "event": {
                    "contract": "0x7be8076f4ea4a4ad08075c2508e481d6c946d12b",
                    "decodedLog": {
                        "name": "OrderCancelled",
                        "params": [
                            {
                                "name": "hash",
                                "type": "bytes32",
                                "value": "0xfa92235188d954848ed7a9971b1a511081239418c328dec5cf59814a4cb112ca"
                            }
                        ],
                        "signature": "OrderCancelled(bytes32)"
                    },
                    "id": 2,
                    "logData": "0x",
                    "logDecoded": true,
                    "operation": "EVENT",
                    "revert": false,
                    "status": true,
                    "topics": [
                        "0x5152abf959f6564662358c2e52b702259b78bac5ee7842a0f01937e670efcc7d",
                        "0xfa92235188d954848ed7a9971b1a511081239418c328dec5cf59814a4cb112ca"
                    ]
                },
                "nodeType": 1
            }
        },
        "gasFlame": [
            {
                "children": [
                    {
                        "children": [
                            {
                                "children": [],
                                "depth": 0,
                                "name": "Initial Gas",
                                "value": 28896
                            },
                            {
                                "children": [
                                    {
                                        "children": [],
                                        "depth": 1,
                                        "name": "ecrecover",
                                        "value": 3000
                                    }
                                ],
                                "depth": 0,
                                "name": "Executed Gas",
                                "value": 46042
                            }
                        ],
                        "depth": -1,
                        "name": "Actual Gas Used",
                        "value": 74938
                    },
                    {
                        "children": [],
                        "depth": -1,
                        "name": "Refunded Gas",
                        "value": 0
                    }
                ],
                "depth": -2,
                "name": "Total Gas",
                "value": 74938
            }
        ],
        "isConfirmed": true,
        "mainTrace": [
            {
                "children": [
                    {
                        "children": [
                            {
                                "children": [],
                                "depth": 1,
                                "id": 1,
                                "order": 1
                            },
                            {
                                "children": [],
                                "depth": 1,
                                "id": 2,
                                "order": 2
                            }
                        ],
                        "depth": 0,
                        "id": 0,
                        "order": 0
                    }
                ],
                "depth": -1,
                "id": -1,
                "order": -1
            }
        ],
        "mainTraceNodeCount": 3,
        "parentIdMap": {
            "0": -1,
            "1": 0,
            "2": 0
        },
        "tidyTrace": [
            {
                "children": [
                    {
                        "children": [
                            {
                                "children": [],
                                "depth": 1,
                                "id": 1,
                                "order": 1
                            },
                            {
                                "children": [],
                                "depth": 1,
                                "id": 2,
                                "order": 2
                            }
                        ],
                        "depth": 0,
                        "id": 0,
                        "order": 0
                    }
                ],
                "depth": -1,
                "id": -1,
                "order": -1
            }
        ],
        "tidyTraceNodeCount": 3
    },
    "state_change": {
        "stateChanges": [
            {
                "address": "0x7be8076f4ea4a4ad08075c2508e481d6c946d12b",
                "erc": "",
                "slots": [
                    {
                        "current": "0x0000000000000000000000000000000000000000000000000000000000000001",
                        "key": "0xcac96f813a9ca6a07153d3e4946f7d0ca45e2d9a09958338e23108b9ab9f64d3",
                        "prev": "0x0000000000000000000000000000000000000000000000000000000000000000"
                    }
                ],
                "storageVariables": [
                    {
                        "name": "cancelledOrFinalized",
                        "type": "mapping(bytes32 => bool)",
                        "value": {
                            "pairs": [
                                {
                                    "key": "0xfa92235188d954848ed7a9971b1a511081239418c328dec5cf59814a4cb112ca",
                                    "value": {
                                        "current": "true",
                                        "prev": "false",
                                        "typeTag": 1
                                    }
                                }
                            ],
                            "typeTag": 4
                        }
                    }
                ]
            }
        ]
    }
}