{
    "balance_change": {
        "balanceChanges": [
            {
                "account": "0xcf8bdaebad7d537c677471825daa2c987f5f4212",
                "assets": [
                    {
                        "address": "0x653430560be843c4a3d143d0110e896c2ab8ac0d",
                        "amount": "34.49",
                        "iconUrl": "",
                        "isERC1155": false,
                        "isERC721": false,
                        "sign": false,
                        "value": ""
                    }
                ]
            },
            {
                "account": "0xd1e69be4bef5c9cef3b90e03ca33a71c15169aa4",
                "assets": [
                    {
                        "address": "0x653430560be843c4a3d143d0110e896c2ab8ac0d",
                        "amount": "34.49",
                        "iconUrl": "",
                        "isERC1155": false,
                        "isERC721": false,
                        "sign": true,
                        "value": ""
                    }
                ]
            }
        ]
    },
    "profile": {
        "basic_info": {
            "baseFee": "",
            "blockNumber": 8918267,
            "callData": "0xa9059cbb000000000000000000000000d1e69be4bef5c9cef3b90e03ca33a71c15169aa400000000000000000000000000000000000000000000000004c954b8ff084000",
            "debugEnable": true,
            "errorInfo": "",
            "eventCount": 1,
            "feeRecipient": "0xea674fdde714fd979de3edf0f56aa9716b898ec8",
            "formatValue": "0",
            "gasLimit": 65000,
            "gasPrice": "15",
            "gasUsed": 37177,
            "intTxnCount": 0,
            "internalRevert": false,
            "internalRevertMessage": "",
            "isContractCreation": false,
            "isFlashloan": false,
            "maxFee": "",
            "nonce": 332,
            "overwritedBlockNumber": -1,
            "priorityFee": "",
            "receiver": "0x653430560be843c4a3d143d0110e896c2ab8ac0d",
            "revertMessage": "",
            "sender": "0xcf8bdaebad7d537c677471825daa2c987f5f4212",
            "simulationEnable": true,
            "sourceTxnHash": "0x389bad4d3e9a5cb54ba657986073e900c98521fc00e73690e373885441f759b7",
            "status": true,
            "timestamp": "2019-11-12T03:59:42Z",
            "transactionFee": "0.000557655",
            "txnHash": "0x389bad4d3e9a5cb54ba657986073e900c98521fc00e73690e373885441f759b7",
            "txnIndex": 147,
            "type": 0,
            "value": "0"
        },
        "fund_flow": [
            {
                "amount": "34.49",
                "from": "0xcf8bdaebad7d537c677471825daa2c987f5f4212",
                "id": 1,
                "isERC1155": false,
                "isERC721": false,
                "isReverted": false,
                "order": 1,
                "to": "0xd1e69be4bef5c9cef3b90e03ca33a71c15169aa4",
                "token": "0x653430560be843c4a3d143d0110e896c2ab8ac0d"
            }
        ],
        "token_infos": [
            {
                "address": "0xeeeeeeeeeeeeeeeeeeeeeeeeeeeeeeeeeeeeeeee",
                "decimals": 18
            },
            {
                "address": "0x653430560be843c4a3d143d0110e896c2ab8ac0d",
                "decimals": 16
            },
            {
                "address": "0xc02aaa39b223fe8d0a0e5c4f27ead9083c756cc2",
                "decimals": 18
            }
        ]
    },
    "address_label": {
        "labels": [
            {
                "address": "0xeeeeeeeeeeeeeeeeeeeeeeeeeeeeeeeeeeeeeeee",
                "label": "Ether"
            },
            {
                "address": "0xd1e69be4bef5c9cef3b90e03ca33a71c15169aa4",
                "label": "OKEX"
            },
            {
                "address": "0x653430560be843c4a3d143d0110e896c2ab8ac0d",
                "label": "Molecular Future: MOF Token"
            },
            {
                "address": "0x0000000000000000000000000000000000000001",
                "label": "Precompiled"
            },
            {
                "address": "0x0000000000000000000000000000000000000002",
                "label": "Precompiled"
            },
            {
                "address": "0x0000000000000000000000000000000000000003",
                "label": "Precompiled"
            },
            {
                "address": "0x0000000000000000000000000000000000000004",
                "label": "Precompiled"
            }
        ]
    },
    "trace": {
        "accountLabels": null,
        "dataMap": {
            "-1": {
                "invocation": {
                    "address": "0xcf8bdaebad7d537c677471825daa2c987f5f4212",
                    "callData": "",
                    "decodedMethod": null,
                    "errorInfo": "",
                    "fromAddress": "",
                    "gasUsed": 0,
                    "id": -1,
                    "methodDecoded": false,
                    "operation": "",
                    "output": "",
                    "revert": false,
                    "revertMessage": "",
                    "selector": "",
                    "status": false,
                    "value": ""
                },
                "nodeType": 0
            },
            "0": {
                "invocation": {
                    "address": "0x653430560be843c4a3d143d0110e896c2ab8ac0d",
                    "callData": "0x000000000000000000000000d1e69be4bef5c9cef3b90e03ca33a71c15169aa400000000000000000000000000000000000000000000000004c954b8ff084000",
                    "decodedMethod": {
                        "callParams": [
                            {
                                "name": "_to",
                                "type": "address",
                                "value": "0xd1e69be4bef5c9cef3b90e03ca33a71c15169aa4"
                            },
                            {
                                "decimalAvailable": true,
                                "name": "_value",
                                "type": "uint256",
                                "value": "344,900,000,000,000,000"
                            }
                        ],
                        "constructorArguments": "",
                        "name": "transfer",
                        "returnParams": [
                            {
                                "name": "success",
                                "type": "bool",
                                "value": true
                            }
                        ],
                        "signature": "transfer(address,uint256)"
                    },
                    "errorInfo": "",
                    "fromAddress": "0xcf8bdaebad7d537c677471825daa2c987f5f4212",
                    "gasUsed": 37177,
                    "id": 0,
                    "methodDecoded": true,
                    "operation": "CALL",
                    "output": "0x0000000000000000000000000000000000000000000000000000000000000001",
                    "revert": false,
                    "revertMessage": "",
                    "selector": "0xa9059cbb",
                    "status": true,
                    "value": "0"
                },
                "nodeType": 0
            },
            "1": {
                "event": {
                    "contract": "0x653430560be843c4a3d143d0110e896c2ab8ac0d",
                    "decodedLog": {
                        "name": "Transfer",
                        "params": [
                            {
                                "name": "_from",
                                "type": "address",
                                "value": "0xcf8bdaebad7d537c677471825daa2c987f5f4212"
                            },
                            {
                                "name": "_to",
                                "type": "address",
                                "value": "0xd1e69be4bef5c9cef3b90e03ca33a71c15169aa4"
                            },
                            {
                                "decimalAvailable": true,
                                "name": "_value",
                                "type": "uint256",
                                "value": "344,900,000,000,000,000"
                            }
                        ],
                        "signature": "Transfer(address,address,uint256)"
                    },
                    "id": 1,
                    "logData": "0x00000000000000000000000000000000000000000000000004c954b8ff084000",
                    "logDecoded": true,
                    "operation": "EVENT",
                    "revert": false,
                    "status": true,
                    "topics": [
                        "0xddf252ad1be2c89b69c2b068fc378daa952ba7f163c4a11628f55a4df523b3ef",
                        "0x000000000000000000000000cf8bdaebad7d537c677471825daa2c987f5f4212",
                        "0x000000000000000000000000d1e69be4bef5c9cef3b90e03ca33a71c15169aa4"
                    ]
                },
                "nodeType": 1
            }
        },
        "gasFlame": [
            {
                "children": [
                    {
                        "children": [
                            {
                                "children": [],
                                "depth": 0,
                                "name": "Initial Gas",
                                "value": 23256
                            },
                            {
                                "children": [],
                                "depth": 0,
                                "name": "Executed Gas",
                                "value": 13921
                            }
                        ],
                        "depth": -1,
                        "name": "Actual Gas Used",
                        "value": 37177
                    },
                    {
                        "children": [],
                        "depth": -1,
                        "name": "Refunded Gas",
                        "value": 0
                    }
                ],
                "depth": -2,
                "name": "Total Gas",
                "value": 37177
            }
        ],
        "isConfirmed": true,
        "mainTrace": [
            {
                "children": [
                    {
                        "children": [
                            {
                                "children": [],
                                "depth": 1,
                                "id": 1,
                                "order": 1
                            }
                        ],
                        "depth": 0,
                        "id": 0,
                        "order": 0
                    }
                ],
                "depth": -1,
                "id": -1,
                "order": -1
            }
        ],
        "mainTraceNodeCount": 2,
        "parentIdMap": {
            "0": -1,
            "1": 0
        },
        "tidyTrace": [
            {
                "children": [
                    {
                        "children": [
                            {
                                "children": [],
                                "depth": 1,
                                "id": 1,
                                "order": 1
                            }
                        ],
                        "depth": 0,
                        "id": 0,
                        "order": 0
                    }
                ],
                "depth": -1,
                "id": -1,
                "order": -1
            }
        ],
        "tidyTraceNodeCount": 2
    },
    "state_change": {
        "stateChanges": [
            {
                "address": "0x653430560be843c4a3d143d0110e896c2ab8ac0d",
                "erc": "ERC-20",
                "slots": [
                    {
                        "current": "0x00000000000000000000000000000000000000000000000351a9e3865d93ab00",
                        "key": "0x0741043d30c8229f04f9dd205a1e89f4b195af811e170688f1413a8543fb0096",
                        "prev": "0x0000000000000000000000000000000000000000000000035673383f5c9beb00"
                    },
                    {
                        "current": "0x00000000000000000000000000000000000000000000000004c954b8ff084001",
                        "key": "0x4912afc28a9f29e42065f0ea54ef82a9609354f1dcc7afcb3921a3d01f53549a",
                        "prev": "0x0000000000000000000000000000000000000000000000000000000000000001"
                    }
                ],
                "storageVariables": [
                    {
                        "name": "balanceOf",
                        "type": "mapping(address => uint256)",
                        "value": {
                            "pairs": [
                                {
                                    "key": "0xcf8bdaebad7d537c677471825daa2c987f5f4212",
                                    "value": {
                                        "current": "61224716775500000000",
                                        "prev": "61569616775500000000",
                                        "typeTag": 1
                                    }
                                },
                                {
                                    "key": "0xd1e69be4bef5c9cef3b90e03ca33a71c15169aa4",
                                    "value": {
                                        "current": "344900000000000001",
                                        "prev": "1",
                                        "typeTag": 1
                                    }
                                }
                            ],
                            "typeTag": 4
                        }
                    }
                ]
            }
        ]
    }
}