{
    "balance_change": {
        "balanceChanges": [
            {
                "account": "0xbaa3f3290f3cb2dbc18147109572df6d64b7d8e3",
                "assets": [
                    {
                        "address": "0xdac17f958d2ee523a2206206994597c13d831ec7",
                        "amount": "3,500",
                        "iconUrl": "https://assets.blocksec.com/icon/fcea71f3193ce895be44bfdf941f7e4c9381dd587f273c2d1a27f1263d84e4ea.png",
                        "isERC1155": false,
                        "isERC721": false,
                        "sign": false,
                        "value": "3500.71029"
                    }
                ]
            },
            {
                "account": "0x083db3ee681cb6d3df6c3b110a7c12a3b4d1ea00",
                "assets": [
                    {
                        "address": "0xdac17f958d2ee523a2206206994597c13d831ec7",
                        "amount": "3,500",
                        "iconUrl": "https://assets.blocksec.com/icon/fcea71f3193ce895be44bfdf941f7e4c9381dd587f273c2d1a27f1263d84e4ea.png",
                        "isERC1155": false,
                        "isERC721": false,
                        "sign": true,
                        "value": "3500.71029"
                    }
                ]
            }
        ]
    },
    "profile": {
        "basic_info": {
            "baseFee": "",
            "blockNumber": 12246679,
            "callData": "0xed10856100000000000000000000000000000000000000000000000000000000d09dc30000000000000000000000000000000000000000000000000000000000000000010000000000000000000000000000000000000000000000000000000000000000",
            "debugEnable": true,
            "errorInfo": "",
            "eventCount": 1,
            "feeRecipient": "0xea674fdde714fd979de3edf0f56aa9716b898ec8",
            "formatValue": "0",
            "gasLimit": 118247,
            "gasPrice": "81",
            "gasUsed": 118247,
            "intTxnCount": 2,
            "internalRevert": false,
            "internalRevertMessage": "",
            "isContractCreation": false,
            "isFlashloan": false,
            "maxFee": "",
            "nonce": 60,
            "overwritedBlockNumber": -1,
            "priorityFee": "",
            "receiver": "0x083db3ee681cb6d3df6c3b110a7c12a3b4d1ea00",
            "revertMessage": "",
            "sender": "0xbaa3f3290f3cb2dbc18147109572df6d64b7d8e3",
            "simulationEnable": true,
            "sourceTxnHash": "0x380cf85e7d14f6647a42681e53842d0af894a9e02d3b76694127cee7901137b5",
            "status": true,
            "timestamp": "2021-04-15T19:48:50Z",
            "transactionFee": "0.009578007",
            "txnHash": "0x380cf85e7d14f6647a42681e53842d0af894a9e02d3b76694127cee7901137b5",
            "txnIndex": 162,
            "type": 0,
            "value": "0"
        },
        "fund_flow": [
            {
                "amount": "3,500",
                "from": "0xbaa3f3290f3cb2dbc18147109572df6d64b7d8e3",
                "id": 1,
                "isERC1155": false,
                "isERC721": false,
                "isReverted": false,
                "order": 1,
                "to": "0x083db3ee681cb6d3df6c3b110a7c12a3b4d1ea00",
                "token": "0xdac17f958d2ee523a2206206994597c13d831ec7"
            }
        ],
        "token_infos": [
            {
                "address": "0xc02aaa39b223fe8d0a0e5c4f27ead9083c756cc2",
                "decimals": 18
            },
            {
                "address": "0xdac17f958d2ee523a2206206994597c13d831ec7",
                "decimals": 6
            },
            {
                "address": "0xeeeeeeeeeeeeeeeeeeeeeeeeeeeeeeeeeeeeeeee",
                "decimals": 18
            }
        ]
    },
    "address_label": {
        "labels": [
            {
                "address": "0xeeeeeeeeeeeeeeeeeeeeeeeeeeeeeeeeeeeeeeee",
                "label": "Ether"
            },
            {
                "address": "0xdac17f958d2ee523a2206206994597c13d831ec7",
                "label": "Tether: USDT Stablecoin"
            },
            {
                "address": "0x0000000000000000000000000000000000000000",
                "label": "Null Address"
            },
            {
                "address": "0x083db3ee681cb6d3df6c3b110a7c12a3b4d1ea00",
                "label": "MarketGeneration"
            },
            {
                "address": "0x0000000000000000000000000000000000000001",
                "label": "Precompiled"
            },
            {
                "address": "0x0000000000000000000000000000000000000002",
                "label": "Precompiled"
            },
            {
                "address": "0x0000000000000000000000000000000000000003",
                "label": "Precompiled"
            },
            {
                "address": "0x0000000000000000000000000000000000000004",
                "label": "Precompiled"
            }
        ]
    },
    "trace": {
        "accountLabels": null,
        "dataMap": {
            "-1": {
                "invocation": {
                    "address": "0xbaa3f3290f3cb2dbc18147109572df6d64b7d8e3",
                    "callData": "",
                    "decodedMethod": null,
                    "errorInfo": "",
                    "fromAddress": "",
                    "gasUsed": 0,
                    "id": -1,
                    "methodDecoded": false,
                    "operation": "",
                    "output": "",
                    "revert": false,
                    "revertMessage": "",
                    "selector": "",
                    "status": false,
                    "value": ""
                },
                "nodeType": 0
            },
            "0": {
                "invocation": {
                    "address": "0x083db3ee681cb6d3df6c3b110a7c12a3b4d1ea00",
                    "callData": "0x00000000000000000000000000000000000000000000000000000000d09dc30000000000000000000000000000000000000000000000000000000000000000010000000000000000000000000000000000000000000000000000000000000000",
                    "decodedMethod": {
                        "callParams": [
                            {
                                "name": "amount",
                                "type": "uint256",
                                "value": "3,500,000,000"
                            },
                            {
                                "name": "round",
                                "type": "uint8",
                                "value": "1"
                            },
                            {
                                "name": "referral",
                                "type": "address",
                                "value": "0x0000000000000000000000000000000000000000"
                            }
                        ],
                        "constructorArguments": "",
                        "name": "contribute",
                        "returnParams": [],
                        "signature": "contribute(uint256,uint8,address)"
                    },
                    "errorInfo": "",
                    "fromAddress": "0xbaa3f3290f3cb2dbc18147109572df6d64b7d8e3",
                    "gasUsed": 118247,
                    "id": 0,
                    "methodDecoded": true,
                    "operation": "CALL",
                    "output": "",
                    "revert": false,
                    "revertMessage": "",
                    "selector": "0xed108561",
                    "status": true,
                    "value": "0"
                },
                "nodeType": 0
            },
            "1": {
                "invocation": {
                    "address": "0xdac17f958d2ee523a2206206994597c13d831ec7",
                    "callData": "0x000000000000000000000000083db3ee681cb6d3df6c3b110a7c12a3b4d1ea00",
                    "decodedMethod": {
                        "callParams": [
                            {
                                "name": "who",
                                "type": "address",
                                "value": "0x083db3ee681cb6d3df6c3b110a7c12a3b4d1ea00"
                            }
                        ],
                        "constructorArguments": "",
                        "name": "balanceOf",
                        "returnParams": [
                            {
                                "decimalAvailable": true,
                                "name": "",
                                "type": "uint256",
                                "value": "614,138,798,364"
                            }
                        ],
                        "signature": "balanceOf(address)"
                    },
                    "errorInfo": "",
                    "fromAddress": "0x083db3ee681cb6d3df6c3b110a7c12a3b4d1ea00",
                    "gasUsed": 5031,
                    "id": 1,
                    "methodDecoded": true,
                    "operation": "STATICCALL",
                    "output": "0x0000000000000000000000000000000000000000000000000000008efd86611c",
                    "revert": false,
                    "revertMessage": "",
                    "selector": "0x70a08231",
                    "status": true,
                    "value": "0"
                },
                "nodeType": 0
            },
            "2": {
                "invocation": {
                    "address": "0xdac17f958d2ee523a2206206994597c13d831ec7",
                    "callData": "0x000000000000000000000000baa3f3290f3cb2dbc18147109572df6d64b7d8e3000000000000000000000000083db3ee681cb6d3df6c3b110a7c12a3b4d1ea0000000000000000000000000000000000000000000000000000000000d09dc300",
                    "decodedMethod": {
                        "callParams": [
                            {
                                "name": "_from",
                                "type": "address",
                                "value": "0xbaa3f3290f3cb2dbc18147109572df6d64b7d8e3"
                            },
                            {
                                "name": "_to",
                                "type": "address",
                                "value": "0x083db3ee681cb6d3df6c3b110a7c12a3b4d1ea00"
                            },
                            {
                                "decimalAvailable": true,
                                "name": "_value",
                                "type": "uint256",
                                "value": "3,500,000,000"
                            }
                        ],
                        "constructorArguments": "",
                        "name": "transferFrom",
                        "returnParams": [],
                        "signature": "transferFrom(address,address,uint256)"
                    },
                    "errorInfo": "",
                    "fromAddress": "0x083db3ee681cb6d3df6c3b110a7c12a3b4d1ea00",
                    "gasUsed": 22530,
                    "id": 2,
                    "methodDecoded": true,
                    "operation": "CALL",
                    "output": "",
                    "revert": false,
                    "revertMessage": "",
                    "selector": "0x23b872dd",
                    "status": true,
                    "value": "0"
                },
                "nodeType": 0
            },
            "3": {
                "event": {
                    "contract": "0xdac17f958d2ee523a2206206994597c13d831ec7",
                    "decodedLog": {
                        "name": "Transfer",
                        "params": [
                            {
                                "name": "from",
                                "type": "address",
                                "value": "0xbaa3f3290f3cb2dbc18147109572df6d64b7d8e3"
                            },
                            {
                                "name": "to",
                                "type": "address",
                                "value": "0x083db3ee681cb6d3df6c3b110a7c12a3b4d1ea00"
                            },
                            {
                                "decimalAvailable": true,
                                "name": "value",
                                "type": "uint256",
                                "value": "3,500,000,000"
                            }
                        ],
                        "signature": "Transfer(address,address,uint256)"
                    },
                    "id": 3,
                    "logData": "0x00000000000000000000000000000000000000000000000000000000d09dc300",
                    "logDecoded": true,
                    "operation": "EVENT",
                    "revert": false,
                    "status": true,
                    "topics": [
                        "0xddf252ad1be2c89b69c2b068fc378daa952ba7f163c4a11628f55a4df523b3ef",
                        "0x000000000000000000000000baa3f3290f3cb2dbc18147109572df6d64b7d8e3",
                        "0x000000000000000000000000083db3ee681cb6d3df6c3b110a7c12a3b4d1ea00"
                    ]
                },
                "nodeType": 1
            }
        },
        "gasFlame": [
            {
                "children": [
                    {
                        "children": [
                            {
                                "children": [],
                                "depth": 0,
                                "name": "Initial Gas",
                                "value": 21496
                            },
                            {
                                "children": [
                                    {
                                        "children": [],
                                        "depth": 1,
                                        "name": "balanceOf",
                                        "value": 5031
                                    },
                                    {
                                        "children": [],
                                        "depth": 1,
                                        "name": "transferFrom",
                                        "value": 22530
                                    }
                                ],
                                "depth": 0,
                                "name": "Executed Gas",
                                "value": 96751
                            }
                        ],
                        "depth": -1,
                        "name": "Actual Gas Used",
                        "value": 118247
                    },
                    {
                        "children": [],
                        "depth": -1,
                        "name": "Refunded Gas",
                        "value": 0
                    }
                ],
                "depth": -2,
                "name": "Total Gas",
                "value": 118247
            }
        ],
        "isConfirmed": true,
        "mainTrace": [
            {
                "children": [
                    {
                        "children": [
                            {
                                "children": [],
                                "depth": 1,
                                "id": 1,
                                "order": 1
                            },
                            {
                                "children": [
                                    {
                                        "children": [],
                                        "depth": 2,
                                        "id": 3,
                                        "order": 3
                                    }
                                ],
                                "depth": 1,
                                "id": 2,
                                "order": 2
                            }
                        ],
                        "depth": 0,
                        "id": 0,
                        "order": 0
                    }
                ],
                "depth": -1,
                "id": -1,
                "order": -1
            }
        ],
        "mainTraceNodeCount": 4,
        "parentIdMap": {
            "0": -1,
            "1": 0,
            "2": 0,
            "3": 2
        },
        "tidyTrace": [
            {
                "children": [
                    {
                        "children": [
                            {
                                "children": [
                                    {
                                        "children": [],
                                        "depth": 2,
                                        "id": 3,
                                        "order": 3
                                    }
                                ],
                                "depth": 1,
                                "id": 2,
                                "order": 2
                            }
                        ],
                        "depth": 0,
                        "id": 0,
                        "order": 0
                    }
                ],
                "depth": -1,
                "id": -1,
                "order": -1
            }
        ],
        "tidyTraceNodeCount": 3
    },
    "state_change": {
        "stateChanges": [
            {
                "address": "0x083db3ee681cb6d3df6c3b110a7c12a3b4d1ea00",
                "erc": "",
                "slots": [
                    {
                        "current": "0x00000000000000000000000000000000000000000000000000000038446428c4",
                        "key": "0x5d6dd2482003fd4e45f990b60015961aa0b3dcfb8e0baa5903315d9109c43840",
                        "prev": "0x0000000000000000000000000000000000000000000000000000003773c665c4"
                    },
                    {
                        "current": "0x000000000000000000000000000000000000000000000000000000e79d3a75a6",
                        "key": "0x0000000000000000000000000000000000000000000000000000000000000007",
                        "prev": "0x000000000000000000000000000000000000000000000000000000e6cc9cb2a6"
                    },
                    {
                        "current": "0x00000000000000000000000000000000000000000000000000000000d09dc300",
                        "key": "0xdf247a928a581fa2d1ee33dda40629c7c30a8ec800d16b8989331f995c71f309",
                        "prev": "0x0000000000000000000000000000000000000000000000000000000000000000"
                    },
                    {
                        "current": "0x00000000000000000000000000000000000000000000000000000000d09dc300",
                        "key": "0x8b25fcf39548d92dd78f9aab40e55948e90b6b47ba082d6db8a1310434f62e79",
                        "prev": "0x0000000000000000000000000000000000000000000000000000000000000000"
                    },
                    {
                        "current": "0x000000000000000000000000000000000000000000000000000000252c1d5a48",
                        "key": "0xabd6e7cb50984ff9c2f3e18a2660c3353dadf4e3291deeb275dae2cd1e44fe05",
                        "prev": "0x000000000000000000000000000000000000000000000000000000245b7f9748"
                    }
                ],
                "storageVariables": [
                    {
                        "name": "contributionPerRound",
                        "type": "mapping(address => mapping(uint8 => uint256))",
                        "value": {
                            "pairs": [
                                {
                                    "key": "0xbaa3f3290f3cb2dbc18147109572df6d64b7d8e3",
                                    "value": {
                                        "pairs": [
                                            {
                                                "key": "1",
                                                "value": {
                                                    "current": "3500000000",
                                                    "prev": "0",
                                                    "typeTag": 1
                                                }
                                            }
                                        ],
                                        "typeTag": 4
                                    }
                                }
                            ],
                            "typeTag": 4
                        }
                    },
                    {
                        "name": "totalContributionPerRound",
                        "type": "mapping(uint8 => uint256)",
                        "value": {
                            "pairs": [
                                {
                                    "key": "1",
                                    "value": {
                                        "current": "159653911112",
                                        "prev": "156153911112",
                                        "typeTag": 1
                                    }
                                }
                            ],
                            "typeTag": 4
                        }
                    },
                    {
                        "name": "referralPoints",
                        "type": "mapping(address => uint256)",
                        "value": {
                            "pairs": [
                                {
                                    "key": "0x804cc8d469483d202c69752ce0304f71ae14abdf",
                                    "value": {
                                        "current": "241665583300",
                                        "prev": "238165583300",
                                        "typeTag": 1
                                    }
                                }
                            ],
                            "typeTag": 4
                        }
                    },
                    {
                        "name": "totalReferralPoints",
                        "type": "uint256",
                        "value": {
                            "current": "994775299494",
                            "prev": "991275299494",
                            "typeTag": 1
                        }
                    },
                    {
                        "name": "totalContribution",
                        "type": "mapping(address => uint256)",
                        "value": {
                            "pairs": [
                                {
                                    "key": "0xbaa3f3290f3cb2dbc18147109572df6d64b7d8e3",
                                    "value": {
                                        "current": "3500000000",
                                        "prev": "0",
                                        "typeTag": 1
                                    }
                                }
                            ],
                            "typeTag": 4
                        }
                    }
                ]
            },
            {
                "address": "0xdac17f958d2ee523a2206206994597c13d831ec7",
                "erc": "ERC-20",
                "slots": [
                    {
                        "current": "0x0000000000000000000000000000000000000000000000000000000146a22a00",
                        "key": "0x789be347c8f1fe10b345527e82e7a3b2d11d4bc74f58996d4ed8add159b26434",
                        "prev": "0x00000000000000000000000000000000000000000000000000000002173fed00"
                    },
                    {
                        "current": "0x0000000000000000000000000000000000000000000000000000008fce24241c",
                        "key": "0xdbe50696b14dd6a4a662825b582a6ec14ed36cef790788f4a937c99a6edda153",
                        "prev": "0x0000000000000000000000000000000000000000000000000000008efd86611c"
                    }
                ],
                "storageVariables": [
                    {
                        "name": "balances",
                        "type": "mapping(address => uint256)",
                        "value": {
                            "pairs": [
                                {
                                    "key": "0x083db3ee681cb6d3df6c3b110a7c12a3b4d1ea00",
                                    "value": {
                                        "current": "617638798364",
                                        "prev": "614138798364",
                                        "typeTag": 1
                                    }
                                },
                                {
                                    "key": "0xbaa3f3290f3cb2dbc18147109572df6d64b7d8e3",
                                    "value": {
                                        "current": "5480000000",
                                        "prev": "8980000000",
                                        "typeTag": 1
                                    }
                                }
                            ],
                            "typeTag": 4
                        }
                    }
                ]
            }
        ]
    }
}