{
    "balance_change": {
        "balanceChanges": [
            {
                "account": "0xe3646ab0f23b2cac60d2557aeb157585c812b530",
                "assets": [
                    {
                        "address": "0x4d31200e6d7854c2f664af7fc38a21600960f74d",
                        "amount": "990",
                        "iconUrl": "",
                        "isERC1155": false,
                        "isERC721": false,
                        "sign": false,
                        "value": ""
                    }
                ]
            },
            {
                "account": "0x167a9333bf582556f35bd4d16a7e80e191aa6476",
                "assets": [
                    {
                        "address": "0x4d31200e6d7854c2f664af7fc38a21600960f74d",
                        "amount": "990",
                        "iconUrl": "",
                        "isERC1155": false,
                        "isERC721": false,
                        "sign": true,
                        "value": ""
                    }
                ]
            }
        ]
    },
    "profile": {
        "basic_info": {
            "baseFee": "",
            "blockNumber": 11338589,
            "callData": "0xa9059cbb000000000000000000000000167a9333bf582556f35bd4d16a7e80e191aa6476000000000000000000000000000000000000000000000035ab028ac154b80000",
            "debugEnable": true,
            "errorInfo": "",
            "eventCount": 1,
            "feeRecipient": "0xd224ca0c819e8e97ba0136b3b95ceff503b79f53",
            "formatValue": "0",
            "gasLimit": 200000,
            "gasPrice": "22.624",
            "gasUsed": 27176,
            "intTxnCount": 0,
            "internalRevert": false,
            "internalRevertMessage": "",
            "isContractCreation": false,
            "isFlashloan": false,
            "maxFee": "",
            "nonce": 2,
            "overwritedBlockNumber": -1,
            "priorityFee": "",
            "receiver": "0x4d31200e6d7854c2f664af7fc38a21600960f74d",
            "revertMessage": "",
            "sender": "0xe3646ab0f23b2cac60d2557aeb157585c812b530",
            "simulationEnable": true,
            "sourceTxnHash": "0x38d670d144189c85000746d23a8e69fbe0c34a3abdd236dab4ad37d58794439e",
            "status": true,
            "timestamp": "2020-11-27T05:09:20Z",
            "transactionFee": "0.000614829824",
            "txnHash": "0x38d670d144189c85000746d23a8e69fbe0c34a3abdd236dab4ad37d58794439e",
            "txnIndex": 121,
            "type": 0,
            "value": "0"
        },
        "fund_flow": [
            {
                "amount": "990",
                "from": "0xe3646ab0f23b2cac60d2557aeb157585c812b530",
                "id": 1,
                "isERC1155": false,
                "isERC721": false,
                "isReverted": false,
                "order": 1,
                "to": "0x167a9333bf582556f35bd4d16a7e80e191aa6476",
                "token": "0x4d31200e6d7854c2f664af7fc38a21600960f74d"
            }
        ],
        "token_infos": [
            {
                "address": "0x4d31200e6d7854c2f664af7fc38a21600960f74d",
                "decimals": 18
            },
            {
                "address": "0xc02aaa39b223fe8d0a0e5c4f27ead9083c756cc2",
                "decimals": 18
            },
            {
                "address": "0xeeeeeeeeeeeeeeeeeeeeeeeeeeeeeeeeeeeeeeee",
                "decimals": 18
            }
        ]
    },
    "address_label": {
        "labels": [
            {
                "address": "0x167a9333bf582556f35bd4d16a7e80e191aa6476",
                "label": "Coinone"
            },
            {
                "address": "0x4d31200e6d7854c2f664af7fc38a21600960f74d",
                "label": "Bit Financial: BFC Token"
            },
            {
                "address": "0x0000000000000000000000000000000000000001",
                "label": "Precompiled"
            },
            {
                "address": "0x0000000000000000000000000000000000000002",
                "label": "Precompiled"
            },
            {
                "address": "0x0000000000000000000000000000000000000003",
                "label": "Precompiled"
            },
            {
                "address": "0x0000000000000000000000000000000000000004",
                "label": "Precompiled"
            },
            {
                "address": "0xeeeeeeeeeeeeeeeeeeeeeeeeeeeeeeeeeeeeeeee",
                "label": "Ether"
            },
            {
                "address": "0xe3646ab0f23b2cac60d2557aeb157585c812b530",
                "label": "COINONE"
            }
        ]
    },
    "trace": {
        "accountLabels": null,
        "dataMap": {
            "-1": {
                "invocation": {
                    "address": "0xe3646ab0f23b2cac60d2557aeb157585c812b530",
                    "callData": "",
                    "decodedMethod": null,
                    "errorInfo": "",
                    "fromAddress": "",
                    "gasUsed": 0,
                    "id": -1,
                    "methodDecoded": false,
                    "operation": "",
                    "output": "",
                    "revert": false,
                    "revertMessage": "",
                    "selector": "",
                    "status": false,
                    "value": ""
                },
                "nodeType": 0
            },
            "0": {
                "invocation": {
                    "address": "0x4d31200e6d7854c2f664af7fc38a21600960f74d",
                    "callData": "0x000000000000000000000000167a9333bf582556f35bd4d16a7e80e191aa6476000000000000000000000000000000000000000000000035ab028ac154b80000",
                    "decodedMethod": {
                        "callParams": [
                            {
                                "name": "_to",
                                "type": "address",
                                "value": "0x167a9333bf582556f35bd4d16a7e80e191aa6476"
                            },
                            {
                                "decimalAvailable": true,
                                "name": "_value",
                                "type": "uint256",
                                "value": "990,000,000,000,000,000,000"
                            }
                        ],
                        "constructorArguments": "",
                        "name": "transfer",
                        "returnParams": [],
                        "signature": "transfer(address,uint256)"
                    },
                    "errorInfo": "",
                    "fromAddress": "0xe3646ab0f23b2cac60d2557aeb157585c812b530",
                    "gasUsed": 27176,
                    "id": 0,
                    "methodDecoded": true,
                    "operation": "CALL",
                    "output": "",
                    "revert": false,
                    "revertMessage": "",
                    "selector": "0xa9059cbb",
                    "status": true,
                    "value": "0"
                },
                "nodeType": 0
            },
            "1": {
                "event": {
                    "contract": "0x4d31200e6d7854c2f664af7fc38a21600960f74d",
                    "decodedLog": {
                        "name": "Transfer",
                        "params": [
                            {
                                "name": "from",
                                "type": "address",
                                "value": "0xe3646ab0f23b2cac60d2557aeb157585c812b530"
                            },
                            {
                                "name": "to",
                                "type": "address",
                                "value": "0x167a9333bf582556f35bd4d16a7e80e191aa6476"
                            },
                            {
                                "decimalAvailable": true,
                                "name": "value",
                                "type": "uint256",
                                "value": "990,000,000,000,000,000,000"
                            }
                        ],
                        "signature": "Transfer(address,address,uint256)"
                    },
                    "id": 1,
                    "logData": "0x000000000000000000000000000000000000000000000035ab028ac154b80000",
                    "logDecoded": true,
                    "operation": "EVENT",
                    "revert": false,
                    "status": true,
                    "topics": [
                        "0xddf252ad1be2c89b69c2b068fc378daa952ba7f163c4a11628f55a4df523b3ef",
                        "0x000000000000000000000000e3646ab0f23b2cac60d2557aeb157585c812b530",
                        "0x000000000000000000000000167a9333bf582556f35bd4d16a7e80e191aa6476"
                    ]
                },
                "nodeType": 1
            }
        },
        "gasFlame": [
            {
                "children": [
                    {
                        "children": [
                            {
                                "children": [],
                                "depth": 0,
                                "name": "Initial Gas",
                                "value": 21644
                            },
                            {
                                "children": [],
                                "depth": 0,
                                "name": "Executed Gas",
                                "value": 20532
                            }
                        ],
                        "depth": -1,
                        "name": "Actual Gas Used",
                        "value": 27176
                    },
                    {
                        "children": [],
                        "depth": -1,
                        "name": "Refunded Gas",
                        "value": 15000
                    }
                ],
                "depth": -2,
                "name": "Total Gas",
                "value": 42176
            }
        ],
        "isConfirmed": true,
        "mainTrace": [
            {
                "children": [
                    {
                        "children": [
                            {
                                "children": [],
                                "depth": 1,
                                "id": 1,
                                "order": 1
                            }
                        ],
                        "depth": 0,
                        "id": 0,
                        "order": 0
                    }
                ],
                "depth": -1,
                "id": -1,
                "order": -1
            }
        ],
        "mainTraceNodeCount": 2,
        "parentIdMap": {
            "0": -1,
            "1": 0
        },
        "tidyTrace": [
            {
                "children": [
                    {
                        "children": [
                            {
                                "children": [],
                                "depth": 1,
                                "id": 1,
                                "order": 1
                            }
                        ],
                        "depth": 0,
                        "id": 0,
                        "order": 0
                    }
                ],
                "depth": -1,
                "id": -1,
                "order": -1
            }
        ],
        "tidyTraceNodeCount": 2
    },
    "state_change": {
        "stateChanges": [
            {
                "address": "0x4d31200e6d7854c2f664af7fc38a21600960f74d",
                "erc": "",
                "slots": [
                    {
                        "current": "0x0000000000000000000000000000000000000000000000000000000000000000",
                        "key": "0x58d4de79c325c89389a4703e0c5175671285a63f2f4289435f26ed189f9e737e",
                        "prev": "0x000000000000000000000000000000000000000000000035ab028ac154b80000"
                    },
                    {
                        "current": "0x00000000000000000000000000000000000000000012298e88dc4e29245c4c00",
                        "key": "0x1a1953ae4950aa7e67b3dbf197913a58675184e9a6566fcc0f7153abaada8ed0",
                        "prev": "0x000000000000000000000000000000000000000000122958ddd9c367cfa44c00"
                    }
                ],
                "storageVariables": [
                    {
                        "name": "balanceOf",
                        "type": "mapping(address => uint256)",
                        "value": {
                            "pairs": [
                                {
                                    "key": "0x167a9333bf582556f35bd4d16a7e80e191aa6476",
                                    "value": {
                                        "current": "21956911078362670000000000",
                                        "prev": "21955921078362670000000000",
                                        "typeTag": 1
                                    }
                                },
                                {
                                    "key": "0xe3646ab0f23b2cac60d2557aeb157585c812b530",
                                    "value": {
                                        "current": "0",
                                        "prev": "990000000000000000000",
                                        "typeTag": 1
                                    }
                                }
                            ],
                            "typeTag": 4
                        }
                    }
                ]
            }
        ]
    }
}