{
    "balance_change": {
        "balanceChanges": [
            {
                "account": "0xba9c4d1df8c2f7d1ebf3a9f6b34d04a552aabd6e",
                "assets": [
                    {
                        "address": "0x94d40179277269e7362e17441878dece7e774285",
                        "amount": "400,000",
                        "iconUrl": "",
                        "isERC1155": false,
                        "isERC721": false,
                        "sign": false,
                        "value": ""
                    },
                    {
                        "address": "0xdc8acba8d2bff4f20192a0630ffe540ba73d1d58",
                        "amount": "1",
                        "iconUrl": "",
                        "isERC1155": true,
                        "isERC721": false,
                        "sign": true,
                        "tokenID": "19",
                        "value": ""
                    }
                ]
            },
            {
                "account": "0xdc8acba8d2bff4f20192a0630ffe540ba73d1d58",
                "assets": [
                    {
                        "address": "0x94d40179277269e7362e17441878dece7e774285",
                        "amount": "400,000",
                        "iconUrl": "",
                        "isERC1155": false,
                        "isERC721": false,
                        "sign": true,
                        "value": ""
                    }
                ]
            },
            {
                "account": "0x0000000000000000000000000000000000000000",
                "assets": [
                    {
                        "address": "0xdc8acba8d2bff4f20192a0630ffe540ba73d1d58",
                        "amount": "1",
                        "iconUrl": "",
                        "isERC1155": true,
                        "isERC721": false,
                        "sign": false,
                        "tokenID": "19",
                        "value": ""
                    }
                ]
            }
        ]
    },
    "profile": {
        "basic_info": {
            "baseFee": "5.108894897",
            "blockNumber": 15600464,
            "callData": "0x81a1452c000000000000000000000000000000000000000000000000000000000000001300000000000000000000000000000000000000000000000000000000000000000000000000000000000000000000000000000000000000000000000000000001",
            "debugEnable": true,
            "errorInfo": "",
            "eventCount": 3,
            "feeRecipient": "0xebec795c9c8bbd61ffc14a6662944748f299cacf",
            "formatValue": "0",
            "gasLimit": 110030,
            "gasPrice": "6.608894897",
            "gasUsed": 95045,
            "intTxnCount": 1,
            "internalRevert": false,
            "internalRevertMessage": "",
            "isContractCreation": false,
            "isFlashloan": false,
            "maxFee": "9.359956916",
            "nonce": 275,
            "overwritedBlockNumber": -1,
            "priorityFee": "1.5",
            "receiver": "0xdc8acba8d2bff4f20192a0630ffe540ba73d1d58",
            "revertMessage": "",
            "sender": "0xba9c4d1df8c2f7d1ebf3a9f6b34d04a552aabd6e",
            "simulationEnable": true,
            "sourceTxnHash": "0x3860b7234f4987d140e9a843c46f00a0006562bd796def66ab786d38906fcaed",
            "status": true,
            "timestamp": "2022-09-24T03:15:23Z",
            "transactionFee": "0.000628142415485365",
            "txnHash": "0x3860b7234f4987d140e9a843c46f00a0006562bd796def66ab786d38906fcaed",
            "txnIndex": 77,
            "type": 2,
            "value": "0"
        },
        "fund_flow": [
            {
                "amount": "400,000",
                "from": "0xba9c4d1df8c2f7d1ebf3a9f6b34d04a552aabd6e",
                "id": 1,
                "isERC1155": false,
                "isERC721": false,
                "isReverted": false,
                "order": 1,
                "to": "0xdc8acba8d2bff4f20192a0630ffe540ba73d1d58",
                "token": "0x94d40179277269e7362e17441878dece7e774285"
            },
            {
                "amount": "1",
                "from": "0x0000000000000000000000000000000000000000",
                "id": 2,
                "isERC1155": true,
                "isERC721": false,
                "isReverted": false,
                "order": 2,
                "to": "0xba9c4d1df8c2f7d1ebf3a9f6b34d04a552aabd6e",
                "token": "0xdc8acba8d2bff4f20192a0630ffe540ba73d1d58",
                "tokenID": "19"
            }
        ],
        "token_infos": [
            {
                "address": "0xc02aaa39b223fe8d0a0e5c4f27ead9083c756cc2",
                "decimals": 18
            },
            {
                "address": "0xeeeeeeeeeeeeeeeeeeeeeeeeeeeeeeeeeeeeeeee",
                "decimals": 18
            },
            {
                "address": "0x94d40179277269e7362e17441878dece7e774285",
                "decimals": 18
            }
        ]
    },
    "address_label": {
        "labels": [
            {
                "address": "0x94d40179277269e7362e17441878dece7e774285",
                "label": "NUTS (NUTS)"
            },
            {
                "address": "0xdc8acba8d2bff4f20192a0630ffe540ba73d1d58",
                "label": "Deez Shop: DNS Token"
            },
            {
                "address": "0x0000000000000000000000000000000000000001",
                "label": "Precompiled"
            },
            {
                "address": "0x0000000000000000000000000000000000000002",
                "label": "Precompiled"
            },
            {
                "address": "0x0000000000000000000000000000000000000003",
                "label": "Precompiled"
            },
            {
                "address": "0x0000000000000000000000000000000000000004",
                "label": "Precompiled"
            },
            {
                "address": "0xeeeeeeeeeeeeeeeeeeeeeeeeeeeeeeeeeeeeeeee",
                "label": "Ether"
            }
        ]
    },
    "trace": {
        "accountLabels": null,
        "dataMap": {
            "-1": {
                "invocation": {
                    "address": "0xba9c4d1df8c2f7d1ebf3a9f6b34d04a552aabd6e",
                    "callData": "",
                    "decodedMethod": null,
                    "errorInfo": "",
                    "fromAddress": "",
                    "gasUsed": 0,
                    "id": -1,
                    "methodDecoded": false,
                    "operation": "",
                    "output": "",
                    "revert": false,
                    "revertMessage": "",
                    "selector": "",
                    "status": false,
                    "value": ""
                },
                "nodeType": 0
            },
            "0": {
                "invocation": {
                    "address": "0xdc8acba8d2bff4f20192a0630ffe540ba73d1d58",
                    "callData": "0x000000000000000000000000000000000000000000000000000000000000001300000000000000000000000000000000000000000000000000000000000000000000000000000000000000000000000000000000000000000000000000000001",
                    "decodedMethod": {
                        "callParams": [
                            {
                                "name": "amount",
                                "type": "uint256",
                                "value": "19"
                            },
                            {
                                "name": "stake",
                                "type": "bool",
                                "value": false
                            },
                            {
                                "name": "tokenType",
                                "type": "uint8",
                                "value": "1"
                            }
                        ],
                        "constructorArguments": "",
                        "name": "mint",
                        "returnParams": [],
                        "signature": "mint(uint256,bool,uint8)"
                    },
                    "errorInfo": "",
                    "fromAddress": "0xba9c4d1df8c2f7d1ebf3a9f6b34d04a552aabd6e",
                    "gasUsed": 95045,
                    "id": 0,
                    "methodDecoded": true,
                    "operation": "CALL",
                    "output": "",
                    "revert": false,
                    "revertMessage": "",
                    "selector": "0x81a1452c",
                    "status": true,
                    "value": "0"
                },
                "nodeType": 0
            },
            "1": {
                "invocation": {
                    "address": "0x94d40179277269e7362e17441878dece7e774285",
                    "callData": "0x000000000000000000000000ba9c4d1df8c2f7d1ebf3a9f6b34d04a552aabd6e000000000000000000000000dc8acba8d2bff4f20192a0630ffe540ba73d1d580000000000000000000000000000000000000000000054b40b1f852bda000000",
                    "decodedMethod": {
                        "callParams": [
                            {
                                "name": "from",
                                "type": "address",
                                "value": "0xba9c4d1df8c2f7d1ebf3a9f6b34d04a552aabd6e"
                            },
                            {
                                "name": "to",
                                "type": "address",
                                "value": "0xdc8acba8d2bff4f20192a0630ffe540ba73d1d58"
                            },
                            {
                                "decimalAvailable": true,
                                "name": "amount",
                                "type": "uint256",
                                "value": "400,000,000,000,000,000,000,000"
                            }
                        ],
                        "constructorArguments": "",
                        "name": "transferFrom",
                        "returnParams": [
                            {
                                "name": "",
                                "type": "bool",
                                "value": true
                            }
                        ],
                        "signature": "transferFrom(address,address,uint256)"
                    },
                    "errorInfo": "",
                    "fromAddress": "0xdc8acba8d2bff4f20192a0630ffe540ba73d1d58",
                    "gasUsed": 20335,
                    "id": 1,
                    "methodDecoded": true,
                    "operation": "CALL",
                    "output": "0x0000000000000000000000000000000000000000000000000000000000000001",
                    "revert": false,
                    "revertMessage": "",
                    "selector": "0x23b872dd",
                    "status": true,
                    "value": "0"
                },
                "nodeType": 0
            },
            "2": {
                "event": {
                    "contract": "0x94d40179277269e7362e17441878dece7e774285",
                    "decodedLog": {
                        "name": "Approval",
                        "params": [
                            {
                                "name": "owner",
                                "type": "address",
                                "value": "0xba9c4d1df8c2f7d1ebf3a9f6b34d04a552aabd6e"
                            },
                            {
                                "name": "spender",
                                "type": "address",
                                "value": "0xdc8acba8d2bff4f20192a0630ffe540ba73d1d58"
                            },
                            {
                                "decimalAvailable": true,
                                "name": "value",
                                "type": "uint256",
                                "value": "99,600,000,000,000,000,000,000,000"
                            }
                        ],
                        "signature": "Approval(address,address,uint256)"
                    },
                    "id": 2,
                    "logData": "0x00000000000000000000000000000000000000000052631ed1a887a70a000000",
                    "logDecoded": true,
                    "operation": "EVENT",
                    "revert": false,
                    "status": true,
                    "topics": [
                        "0x8c5be1e5ebec7d5bd14f71427d1e84f3dd0314c0f7b2291e5b200ac8c7c3b925",
                        "0x000000000000000000000000ba9c4d1df8c2f7d1ebf3a9f6b34d04a552aabd6e",
                        "0x000000000000000000000000dc8acba8d2bff4f20192a0630ffe540ba73d1d58"
                    ]
                },
                "nodeType": 1
            },
            "3": {
                "event": {
                    "contract": "0x94d40179277269e7362e17441878dece7e774285",
                    "decodedLog": {
                        "name": "Transfer",
                        "params": [
                            {
                                "name": "from",
                                "type": "address",
                                "value": "0xba9c4d1df8c2f7d1ebf3a9f6b34d04a552aabd6e"
                            },
                            {
                                "name": "to",
                                "type": "address",
                                "value": "0xdc8acba8d2bff4f20192a0630ffe540ba73d1d58"
                            },
                            {
                                "decimalAvailable": true,
                                "name": "value",
                                "type": "uint256",
                                "value": "400,000,000,000,000,000,000,000"
                            }
                        ],
                        "signature": "Transfer(address,address,uint256)"
                    },
                    "id": 3,
                    "logData": "0x0000000000000000000000000000000000000000000054b40b1f852bda000000",
                    "logDecoded": true,
                    "operation": "EVENT",
                    "revert": false,
                    "status": true,
                    "topics": [
                        "0xddf252ad1be2c89b69c2b068fc378daa952ba7f163c4a11628f55a4df523b3ef",
                        "0x000000000000000000000000ba9c4d1df8c2f7d1ebf3a9f6b34d04a552aabd6e",
                        "0x000000000000000000000000dc8acba8d2bff4f20192a0630ffe540ba73d1d58"
                    ]
                },
                "nodeType": 1
            },
            "4": {
                "event": {
                    "contract": "0xdc8acba8d2bff4f20192a0630ffe540ba73d1d58",
                    "decodedLog": {
                        "name": "TransferSingle",
                        "params": [
                            {
                                "name": "operator",
                                "type": "address",
                                "value": "0xba9c4d1df8c2f7d1ebf3a9f6b34d04a552aabd6e"
                            },
                            {
                                "name": "from",
                                "type": "address",
                                "value": "0x0000000000000000000000000000000000000000"
                            },
                            {
                                "name": "to",
                                "type": "address",
                                "value": "0xba9c4d1df8c2f7d1ebf3a9f6b34d04a552aabd6e"
                            },
                            {
                                "name": "id",
                                "type": "uint256",
                                "value": "19"
                            },
                            {
                                "name": "value",
                                "type": "uint256",
                                "value": "1"
                            }
                        ],
                        "signature": "TransferSingle(address,address,address,uint256,uint256)"
                    },
                    "id": 4,
                    "logData": "0x00000000000000000000000000000000000000000000000000000000000000130000000000000000000000000000000000000000000000000000000000000001",
                    "logDecoded": true,
                    "operation": "EVENT",
                    "revert": false,
                    "status": true,
                    "topics": [
                        "0xc3d58168c5ae7397731d063d5bbf3d657854427343f4c083240f7aacaa2d0f62",
                        "0x000000000000000000000000ba9c4d1df8c2f7d1ebf3a9f6b34d04a552aabd6e",
                        "0x0000000000000000000000000000000000000000000000000000000000000000",
                        "0x000000000000000000000000ba9c4d1df8c2f7d1ebf3a9f6b34d04a552aabd6e"
                    ]
                },
                "nodeType": 1
            }
        },
        "gasFlame": [
            {
                "children": [
                    {
                        "children": [
                            {
                                "children": [],
                                "depth": 0,
                                "name": "Initial Gas",
                                "value": 21472
                            },
                            {
                                "children": [
                                    {
                                        "children": [],
                                        "depth": 1,
                                        "name": "transferFrom",
                                        "value": 20335
                                    }
                                ],
                                "depth": 0,
                                "name": "Executed Gas",
                                "value": 76373
                            }
                        ],
                        "depth": -1,
                        "name": "Actual Gas Used",
                        "value": 95045
                    },
                    {
                        "children": [],
                        "depth": -1,
                        "name": "Refunded Gas",
                        "value": 2800
                    }
                ],
                "depth": -2,
                "name": "Total Gas",
                "value": 97845
            }
        ],
        "isConfirmed": true,
        "mainTrace": [
            {
                "children": [
                    {
                        "children": [
                            {
                                "children": [
                                    {
                                        "children": [],
                                        "depth": 2,
                                        "id": 2,
                                        "order": 2
                                    },
                                    {
                                        "children": [],
                                        "depth": 2,
                                        "id": 3,
                                        "order": 3
                                    }
                                ],
                                "depth": 1,
                                "id": 1,
                                "order": 1
                            },
                            {
                                "children": [],
                                "depth": 1,
                                "id": 4,
                                "order": 4
                            }
                        ],
                        "depth": 0,
                        "id": 0,
                        "order": 0
                    }
                ],
                "depth": -1,
                "id": -1,
                "order": -1
            }
        ],
        "mainTraceNodeCount": 5,
        "parentIdMap": {
            "0": -1,
            "1": 0,
            "2": 1,
            "3": 1,
            "4": 0
        },
        "tidyTrace": [
            {
                "children": [
                    {
                        "children": [
                            {
                                "children": [
                                    {
                                        "children": [],
                                        "depth": 2,
                                        "id": 2,
                                        "order": 2
                                    },
                                    {
                                        "children": [],
                                        "depth": 2,
                                        "id": 3,
                                        "order": 3
                                    }
                                ],
                                "depth": 1,
                                "id": 1,
                                "order": 1
                            },
                            {
                                "children": [],
                                "depth": 1,
                                "id": 4,
                                "order": 4
                            }
                        ],
                        "depth": 0,
                        "id": 0,
                        "order": 0
                    }
                ],
                "depth": -1,
                "id": -1,
                "order": -1
            }
        ],
        "tidyTraceNodeCount": 5
    },
    "state_change": {
        "stateChanges": [
            {
                "address": "0x94d40179277269e7362e17441878dece7e774285",
                "erc": "ERC-20",
                "slots": [
                    {
                        "current": "0x00000000000000000000000000000000000000000000cf0f07ca9f6a4a8c82a1",
                        "key": "0x342aebabcc075a21c9f400fd97b635db39a594e0b456ca935095f413ed349ccf",
                        "prev": "0x0000000000000000000000000000000000000000000123c312ea2496248c82a1"
                    },
                    {
                        "current": "0x0000000000000000000000000000000000000000011e3750868879fdc6c00000",
                        "key": "0xf9a85102448e2b5eb82dc3b48622b9557045cebc9e83b6415674651f7ee4600f",
                        "prev": "0x0000000000000000000000000000000000000000011de29c7b68f4d1ecc00000"
                    },
                    {
                        "current": "0x00000000000000000000000000000000000000000052631ed1a887a70a000000",
                        "key": "0xf2db336aa45d980fcd4d8bc24e95ff71eb3582096a4dc9f734da34cd299cc9e7",
                        "prev": "0x00000000000000000000000000000000000000000052b7d2dcc80cd2e4000000"
                    }
                ],
                "storageVariables": [
                    {
                        "name": "_balances",
                        "type": "mapping(address => uint256)",
                        "value": {
                            "pairs": [
                                {
                                    "key": "0xba9c4d1df8c2f7d1ebf3a9f6b34d04a552aabd6e",
                                    "value": {
                                        "current": "977807124551504629629601",
                                        "prev": "1377807124551504629629601",
                                        "typeTag": 1
                                    }
                                },
                                {
                                    "key": "0xdc8acba8d2bff4f20192a0630ffe540ba73d1d58",
                                    "value": {
                                        "current": "346014000000000000000000000",
                                        "prev": "345614000000000000000000000",
                                        "typeTag": 1
                                    }
                                }
                            ],
                            "typeTag": 4
                        }
                    },
                    {
                        "name": "_allowances",
                        "type": "mapping(address => mapping(address => uint256))",
                        "value": {
                            "pairs": [
                                {
                                    "key": "0xba9c4d1df8c2f7d1ebf3a9f6b34d04a552aabd6e",
                                    "value": {
                                        "pairs": [
                                            {
                                                "key": "0xdc8acba8d2bff4f20192a0630ffe540ba73d1d58",
                                                "value": {
                                                    "current": "99600000000000000000000000",
                                                    "prev": "100000000000000000000000000",
                                                    "typeTag": 1
                                                }
                                            }
                                        ],
                                        "typeTag": 4
                                    }
                                }
                            ],
                            "typeTag": 4
                        }
                    }
                ]
            },
            {
                "address": "0xdc8acba8d2bff4f20192a0630ffe540ba73d1d58",
                "erc": "",
                "slots": [
                    {
                        "current": "0x00000000000000000000000064004600030000631a93ca004700640000000000",
                        "key": "0xe02ca69cf2f93f7a389d26d1c6b52e01a88a074c056dfe4bf6a3c69d4a8041e2",
                        "prev": "0x00000000000000000000000064004500030000631a93ca004600640000000000"
                    },
                    {
                        "current": "0x0000000000000000000000000000000000000000000000000000000000000001",
                        "key": "0x1a3cf85028e7f04b10d1bfe8f0435666018f4de0796fa3aa6f88e62a9306926e",
                        "prev": "0x0000000000000000000000000000000000000000000000000000000000000000"
                    }
                ],
                "storageVariables": []
            }
        ]
    }
}