{
    "balance_change": {
        "balanceChanges": [
            {
                "account": "0x005f7b5faa2f8a7a647d2b2dd2c278b35429fdc6",
                "assets": [
                    {
                        "address": "0xb64ef51c888972c908cfacf59b47c1afbc0ab8ac",
                        "amount": "313.52473012",
                        "iconUrl": "https://assets.blocksec.com/icon/adb507b7df0c119aef80ed36afeebbe0220982ead2feb7b77ef22bb1559b7c3a.png",
                        "isERC1155": false,
                        "isERC721": false,
                        "sign": false,
                        "value": ""
                    }
                ]
            },
            {
                "account": "0xce011687fa3732b7b84c9f9f5a0ab7a71ef6f47f",
                "assets": [
                    {
                        "address": "0xb64ef51c888972c908cfacf59b47c1afbc0ab8ac",
                        "amount": "313.52473012",
                        "iconUrl": "https://assets.blocksec.com/icon/adb507b7df0c119aef80ed36afeebbe0220982ead2feb7b77ef22bb1559b7c3a.png",
                        "isERC1155": false,
                        "isERC721": false,
                        "sign": true,
                        "value": ""
                    }
                ]
            }
        ]
    },
    "profile": {
        "basic_info": {
            "baseFee": "",
            "blockNumber": 8884521,
            "callData": "0x23b872dd000000000000000000000000005f7b5faa2f8a7a647d2b2dd2c278b35429fdc6000000000000000000000000ce011687fa3732b7b84c9f9f5a0ab7a71ef6f47f000000000000000000000000000000000000000000000000000000074cc0c5b4",
            "debugEnable": true,
            "errorInfo": "",
            "eventCount": 1,
            "feeRecipient": "0xb2930b35844a230f00e51431acae96fe543a0347",
            "formatValue": "0",
            "gasLimit": 60000,
            "gasPrice": "2.1",
            "gasUsed": 43623,
            "intTxnCount": 0,
            "internalRevert": false,
            "internalRevertMessage": "",
            "isContractCreation": false,
            "isFlashloan": false,
            "maxFee": "",
            "nonce": 7044,
            "overwritedBlockNumber": -1,
            "priorityFee": "",
            "receiver": "0xb64ef51c888972c908cfacf59b47c1afbc0ab8ac",
            "revertMessage": "",
            "sender": "0x004374c9d59a9b34cb6298f7906e126cb3c50c70",
            "simulationEnable": true,
            "sourceTxnHash": "0x39085dc28440420ed2bf6a239dc8cb0eb1062d16d5973db63a8c1152d9796d10",
            "status": true,
            "timestamp": "2019-11-06T15:03:22Z",
            "transactionFee": "0.0000916083",
            "txnHash": "0x39085dc28440420ed2bf6a239dc8cb0eb1062d16d5973db63a8c1152d9796d10",
            "txnIndex": 136,
            "type": 0,
            "value": "0"
        },
        "fund_flow": [
            {
                "amount": "313.52473012",
                "from": "0x005f7b5faa2f8a7a647d2b2dd2c278b35429fdc6",
                "id": 1,
                "isERC1155": false,
                "isERC721": false,
                "isReverted": false,
                "order": 1,
                "to": "0xce011687fa3732b7b84c9f9f5a0ab7a71ef6f47f",
                "token": "0xb64ef51c888972c908cfacf59b47c1afbc0ab8ac"
            }
        ],
        "token_infos": [
            {
                "address": "0xb64ef51c888972c908cfacf59b47c1afbc0ab8ac",
                "decimals": 8
            },
            {
                "address": "0xc02aaa39b223fe8d0a0e5c4f27ead9083c756cc2",
                "decimals": 18
            },
            {
                "address": "0xeeeeeeeeeeeeeeeeeeeeeeeeeeeeeeeeeeeeeeee",
                "decimals": 18
            }
        ]
    },
    "address_label": {
        "labels": [
            {
                "address": "0x0000000000000000000000000000000000000003",
                "label": "Precompiled"
            },
            {
                "address": "0x0000000000000000000000000000000000000004",
                "label": "Precompiled"
            },
            {
                "address": "0xeeeeeeeeeeeeeeeeeeeeeeeeeeeeeeeeeeeeeeee",
                "label": "Ether"
            },
            {
                "address": "0xb64ef51c888972c908cfacf59b47c1afbc0ab8ac",
                "label": "Storj (STORJ)"
            },
            {
                "address": "0x0000000000000000000000000000000000000001",
                "label": "Precompiled"
            },
            {
                "address": "0x0000000000000000000000000000000000000002",
                "label": "Precompiled"
            }
        ]
    },
    "trace": {
        "accountLabels": null,
        "dataMap": {
            "-1": {
                "invocation": {
                    "address": "0x004374c9d59a9b34cb6298f7906e126cb3c50c70",
                    "callData": "",
                    "decodedMethod": null,
                    "errorInfo": "",
                    "fromAddress": "",
                    "gasUsed": 0,
                    "id": -1,
                    "methodDecoded": false,
                    "operation": "",
                    "output": "",
                    "revert": false,
                    "revertMessage": "",
                    "selector": "",
                    "status": false,
                    "value": ""
                },
                "nodeType": 0
            },
            "0": {
                "invocation": {
                    "address": "0xb64ef51c888972c908cfacf59b47c1afbc0ab8ac",
                    "callData": "0x000000000000000000000000005f7b5faa2f8a7a647d2b2dd2c278b35429fdc6000000000000000000000000ce011687fa3732b7b84c9f9f5a0ab7a71ef6f47f000000000000000000000000000000000000000000000000000000074cc0c5b4",
                    "decodedMethod": {
                        "callParams": [
                            {
                                "name": "_from",
                                "type": "address",
                                "value": "0x005f7b5faa2f8a7a647d2b2dd2c278b35429fdc6"
                            },
                            {
                                "name": "_to",
                                "type": "address",
                                "value": "0xce011687fa3732b7b84c9f9f5a0ab7a71ef6f47f"
                            },
                            {
                                "decimalAvailable": true,
                                "name": "_value",
                                "type": "uint256",
                                "value": "31,352,473,012"
                            }
                        ],
                        "constructorArguments": "",
                        "name": "transferFrom",
                        "returnParams": [
                            {
                                "name": "success",
                                "type": "bool",
                                "value": true
                            }
                        ],
                        "signature": "transferFrom(address,address,uint256)"
                    },
                    "errorInfo": "",
                    "fromAddress": "0x004374c9d59a9b34cb6298f7906e126cb3c50c70",
                    "gasUsed": 43623,
                    "id": 0,
                    "methodDecoded": true,
                    "operation": "CALL",
                    "output": "0x0000000000000000000000000000000000000000000000000000000000000001",
                    "revert": false,
                    "revertMessage": "",
                    "selector": "0x23b872dd",
                    "status": true,
                    "value": "0"
                },
                "nodeType": 0
            },
            "1": {
                "event": {
                    "contract": "0xb64ef51c888972c908cfacf59b47c1afbc0ab8ac",
                    "decodedLog": {
                        "name": "Transfer",
                        "params": [
                            {
                                "name": "from",
                                "type": "address",
                                "value": "0x005f7b5faa2f8a7a647d2b2dd2c278b35429fdc6"
                            },
                            {
                                "name": "to",
                                "type": "address",
                                "value": "0xce011687fa3732b7b84c9f9f5a0ab7a71ef6f47f"
                            },
                            {
                                "decimalAvailable": true,
                                "name": "value",
                                "type": "uint256",
                                "value": "31,352,473,012"
                            }
                        ],
                        "signature": "Transfer(address,address,uint256)"
                    },
                    "id": 1,
                    "logData": "0x000000000000000000000000000000000000000000000000000000074cc0c5b4",
                    "logDecoded": true,
                    "operation": "EVENT",
                    "revert": false,
                    "status": true,
                    "topics": [
                        "0xddf252ad1be2c89b69c2b068fc378daa952ba7f163c4a11628f55a4df523b3ef",
                        "0x000000000000000000000000005f7b5faa2f8a7a647d2b2dd2c278b35429fdc6",
                        "0x000000000000000000000000ce011687fa3732b7b84c9f9f5a0ab7a71ef6f47f"
                    ]
                },
                "nodeType": 1
            }
        },
        "gasFlame": [
            {
                "children": [
                    {
                        "children": [
                            {
                                "children": [],
                                "depth": 0,
                                "name": "Initial Gas",
                                "value": 24472
                            },
                            {
                                "children": [],
                                "depth": 0,
                                "name": "Executed Gas",
                                "value": 19151
                            }
                        ],
                        "depth": -1,
                        "name": "Actual Gas Used",
                        "value": 43623
                    },
                    {
                        "children": [],
                        "depth": -1,
                        "name": "Refunded Gas",
                        "value": 0
                    }
                ],
                "depth": -2,
                "name": "Total Gas",
                "value": 43623
            }
        ],
        "isConfirmed": true,
        "mainTrace": [
            {
                "children": [
                    {
                        "children": [
                            {
                                "children": [],
                                "depth": 1,
                                "id": 1,
                                "order": 1
                            }
                        ],
                        "depth": 0,
                        "id": 0,
                        "order": 0
                    }
                ],
                "depth": -1,
                "id": -1,
                "order": -1
            }
        ],
        "mainTraceNodeCount": 2,
        "parentIdMap": {
            "0": -1,
            "1": 0
        },
        "tidyTrace": [
            {
                "children": [
                    {
                        "children": [
                            {
                                "children": [],
                                "depth": 1,
                                "id": 1,
                                "order": 1
                            }
                        ],
                        "depth": 0,
                        "id": 0,
                        "order": 0
                    }
                ],
                "depth": -1,
                "id": -1,
                "order": -1
            }
        ],
        "tidyTraceNodeCount": 2
    },
    "state_change": {
        "stateChanges": [
            {
                "address": "0xb64ef51c888972c908cfacf59b47c1afbc0ab8ac",
                "erc": "ERC-20",
                "slots": [
                    {
                        "current": "0x0000000000000000000000000000000000000000000000000000001a839979cd",
                        "key": "0x0ba04d5e66a5bd6d00d0f31547083051cfd1fcaa9df584d259e091003a4ea868",
                        "prev": "0x0000000000000000000000000000000000000000000000000000001336d8b419"
                    },
                    {
                        "current": "0x0000000000000000000000000000000000000000000000000000072956801e7b",
                        "key": "0x243b313fdc959fcf5bfad9ef28c6a0125e50e99d0a6a42bfa781135ab53fb2be",
                        "prev": "0x00000000000000000000000000000000000000000000000000000730a340e42f"
                    },
                    {
                        "current": "0x000000000000000000000000000000000000000000000000000000e1028ad6ea",
                        "key": "0xf1726716eb62951137019ba86455524eee26a50832d0339e6db7c95f19d345ed",
                        "prev": "0x000000000000000000000000000000000000000000000000000000e84f4b9c9e"
                    }
                ],
                "storageVariables": []
            }
        ]
    }
}