{
    "balance_change": {
        "balanceChanges": [
            {
                "account": "0xbf5ae133b9a0fc1a07952a7df2afa21f7f69ef58",
                "assets": [
                    {
                        "address": "0x34be5b8c30ee4fde069dc878989686abe9884470",
                        "amount": "3,277.793464317403725824",
                        "iconUrl": "",
                        "isERC1155": false,
                        "isERC721": false,
                        "sign": false,
                        "value": "3548.684817"
                    },
                    {
                        "address": "0xc02aaa39b223fe8d0a0e5c4f27ead9083c756cc2",
                        "amount": "1.200859801792506888",
                        "iconUrl": "https://assets.blocksec.com/icon/f1cb2d02c471d545bbc7722daf3277fd852d98e63d118771af7047bd8256c516.png",
                        "isERC1155": false,
                        "isERC721": false,
                        "sign": true,
                        "value": "3512.6229982321801748"
                    }
                ]
            },
            {
                "account": "0x9572e4c0c7834f39b5b8dff95f211d79f92d7f23",
                "assets": [
                    {
                        "address": "0x34be5b8c30ee4fde069dc878989686abe9884470",
                        "amount": "3,277.793464317403725824",
                        "iconUrl": "",
                        "isERC1155": false,
                        "isERC721": false,
                        "sign": true,
                        "value": "3548.684817"
                    },
                    {
                        "address": "0xc02aaa39b223fe8d0a0e5c4f27ead9083c756cc2",
                        "amount": "1.200859801792506888",
                        "iconUrl": "https://assets.blocksec.com/icon/f1cb2d02c471d545bbc7722daf3277fd852d98e63d118771af7047bd8256c516.png",
                        "isERC1155": false,
                        "isERC721": false,
                        "sign": false,
                        "value": "3512.6229982321801748"
                    }
                ]
            }
        ]
    },
    "profile": {
        "basic_info": {
            "baseFee": "94.778203354",
            "blockNumber": 14297932,
            "callData": "0x38ed17390000000000000000000000000000000000000000000000b1b085ad4d77e00000000000000000000000000000000000000000000000000000107fa5defbc78c0000000000000000000000000000000000000000000000000000000000000000a0000000000000000000000000bf5ae133b9a0fc1a07952a7df2afa21f7f69ef5800000000000000000000000000000000000000000000000000000000621d6e1f000000000000000000000000000000000000000000000000000000000000000200000000000000000000000034be5b8c30ee4fde069dc878989686abe9884470000000000000000000000000c02aaa39b223fe8d0a0e5c4f27ead9083c756cc2",
            "debugEnable": true,
            "errorInfo": "",
            "eventCount": 5,
            "feeRecipient": "0xb7e390864a90b7b923c9f9310c6f98aafe43f707",
            "formatValue": "0",
            "gasLimit": 250000,
            "gasPrice": "103",
            "gasUsed": 103514,
            "intTxnCount": 6,
            "internalRevert": false,
            "internalRevertMessage": "",
            "isContractCreation": false,
            "isFlashloan": false,
            "maxFee": "103",
            "nonce": 185540,
            "overwritedBlockNumber": -1,
            "priorityFee": "16.3",
            "receiver": "0x7a250d5630b4cf539739df2c5dacb4c659f2488d",
            "revertMessage": "",
            "sender": "0xbf5ae133b9a0fc1a07952a7df2afa21f7f69ef58",
            "simulationEnable": true,
            "sourceTxnHash": "0x390edf999da0f954ae158983ce2755b459665c06497f4b86a3910a1c495f65dd",
            "status": true,
            "timestamp": "2022-03-01T00:41:39Z",
            "transactionFee": "0.010661942",
            "txnHash": "0x390edf999da0f954ae158983ce2755b459665c06497f4b86a3910a1c495f65dd",
            "txnIndex": 23,
            "type": 2,
            "value": "0"
        },
        "fund_flow": [
            {
                "amount": "3,277.793464317403725824",
                "from": "0xbf5ae133b9a0fc1a07952a7df2afa21f7f69ef58",
                "id": 1,
                "isERC1155": false,
                "isERC721": false,
                "isReverted": false,
                "order": 1,
                "to": "0x9572e4c0c7834f39b5b8dff95f211d79f92d7f23",
                "token": "0x34be5b8c30ee4fde069dc878989686abe9884470"
            },
            {
                "amount": "1.200859801792506888",
                "from": "0x9572e4c0c7834f39b5b8dff95f211d79f92d7f23",
                "id": 2,
                "isERC1155": false,
                "isERC721": false,
                "isReverted": false,
                "order": 2,
                "to": "0xbf5ae133b9a0fc1a07952a7df2afa21f7f69ef58",
                "token": "0xc02aaa39b223fe8d0a0e5c4f27ead9083c756cc2"
            }
        ],
        "token_infos": [
            {
                "address": "0x34be5b8c30ee4fde069dc878989686abe9884470",
                "decimals": 18
            },
            {
                "address": "0xc02aaa39b223fe8d0a0e5c4f27ead9083c756cc2",
                "decimals": 18
            },
            {
                "address": "0xeeeeeeeeeeeeeeeeeeeeeeeeeeeeeeeeeeeeeeee",
                "decimals": 18
            }
        ]
    },
    "address_label": {
        "labels": [
            {
                "address": "0x7a250d5630b4cf539739df2c5dacb4c659f2488d",
                "label": "Uniswap V2: Router 2"
            },
            {
                "address": "0x9572e4c0c7834f39b5b8dff95f211d79f92d7f23",
                "label": "Uniswap V2: SENATE"
            },
            {
                "address": "0x0000000000000000000000000000000000000001",
                "label": "Precompiled"
            },
            {
                "address": "0x0000000000000000000000000000000000000003",
                "label": "Precompiled"
            },
            {
                "address": "0x0000000000000000000000000000000000000004",
                "label": "Precompiled"
            },
            {
                "address": "0xeeeeeeeeeeeeeeeeeeeeeeeeeeeeeeeeeeeeeeee",
                "label": "Ether"
            },
            {
                "address": "0xc02aaa39b223fe8d0a0e5c4f27ead9083c756cc2",
                "label": "Wrapped Ether (WETH)"
            },
            {
                "address": "0x34be5b8c30ee4fde069dc878989686abe9884470",
                "label": "Sidus Heroes: SENATE Token"
            },
            {
                "address": "0x0000000000000000000000000000000000000002",
                "label": "Precompiled"
            }
        ]
    },
    "trace": {
        "accountLabels": null,
        "dataMap": {
            "-1": {
                "invocation": {
                    "address": "0xbf5ae133b9a0fc1a07952a7df2afa21f7f69ef58",
                    "callData": "",
                    "decodedMethod": null,
                    "errorInfo": "",
                    "fromAddress": "",
                    "gasUsed": 0,
                    "id": -1,
                    "methodDecoded": false,
                    "operation": "",
                    "output": "",
                    "revert": false,
                    "revertMessage": "",
                    "selector": "",
                    "status": false,
                    "value": ""
                },
                "nodeType": 0
            },
            "0": {
                "invocation": {
                    "address": "0x7a250d5630b4cf539739df2c5dacb4c659f2488d",
                    "callData": "0x0000000000000000000000000000000000000000000000b1b085ad4d77e00000000000000000000000000000000000000000000000000000107fa5defbc78c0000000000000000000000000000000000000000000000000000000000000000a0000000000000000000000000bf5ae133b9a0fc1a07952a7df2afa21f7f69ef5800000000000000000000000000000000000000000000000000000000621d6e1f000000000000000000000000000000000000000000000000000000000000000200000000000000000000000034be5b8c30ee4fde069dc878989686abe9884470000000000000000000000000c02aaa39b223fe8d0a0e5c4f27ead9083c756cc2",
                    "decodedMethod": {
                        "callParams": [
                            {
                                "name": "amountIn",
                                "type": "uint256",
                                "value": "3,277,793,464,317,403,725,824"
                            },
                            {
                                "name": "amountOutMin",
                                "type": "uint256",
                                "value": "1,188,851,203,774,581,760"
                            },
                            {
                                "name": "path",
                                "type": "address[]",
                                "value": [
                                    "0x34be5b8c30ee4fde069dc878989686abe9884470",
                                    "0xc02aaa39b223fe8d0a0e5c4f27ead9083c756cc2"
                                ]
                            },
                            {
                                "name": "to",
                                "type": "address",
                                "value": "0xbf5ae133b9a0fc1a07952a7df2afa21f7f69ef58"
                            },
                            {
                                "name": "deadline",
                                "type": "uint256",
                                "value": "1,646,095,903"
                            }
                        ],
                        "constructorArguments": "",
                        "name": "swapExactTokensForTokens",
                        "returnParams": [
                            {
                                "name": "amounts",
                                "type": "uint256[]",
                                "value": [
                                    "3,277,793,464,317,403,725,824",
                                    "1,200,859,801,792,506,888"
                                ]
                            }
                        ],
                        "signature": "swapExactTokensForTokens(uint256,uint256,address[],address,uint256)"
                    },
                    "errorInfo": "",
                    "fromAddress": "0xbf5ae133b9a0fc1a07952a7df2afa21f7f69ef58",
                    "gasUsed": 103514,
                    "id": 0,
                    "methodDecoded": true,
                    "operation": "CALL",
                    "output": "0x000000000000000000000000000000000000000000000000000000000000002000000000000000000000000000000000000000000000000000000000000000020000000000000000000000000000000000000000000000b1b085ad4d77e0000000000000000000000000000000000000000000000000000010aa4fa096e36c08",
                    "revert": false,
                    "revertMessage": "",
                    "selector": "0x38ed1739",
                    "status": true,
                    "value": "0"
                },
                "nodeType": 0
            },
            "1": {
                "invocation": {
                    "address": "0x9572e4c0c7834f39b5b8dff95f211d79f92d7f23",
                    "callData": "0x",
                    "decodedMethod": {
                        "callParams": [],
                        "constructorArguments": "",
                        "name": "getReserves",
                        "returnParams": [
                            {
                                "name": "_reserve0",
                                "type": "uint112",
                                "value": "151,640,986,315,847,890,492,747"
                            },
                            {
                                "name": "_reserve1",
                                "type": "uint112",
                                "value": "56,923,561,454,925,401,402"
                            },
                            {
                                "name": "_blockTimestampLast",
                                "type": "uint32",
                                "value": "1,646,088,852"
                            }
                        ],
                        "signature": "getReserves()"
                    },
                    "errorInfo": "",
                    "fromAddress": "0x7a250d5630b4cf539739df2c5dacb4c659f2488d",
                    "gasUsed": 2504,
                    "id": 1,
                    "methodDecoded": true,
                    "operation": "STATICCALL",
                    "output": "0x00000000000000000000000000000000000000000000201c796e59e28039dd4b00000000000000000000000000000000000000000000000315f91d8c9ef24d3a00000000000000000000000000000000000000000000000000000000621d5294",
                    "revert": false,
                    "revertMessage": "",
                    "selector": "0x0902f1ac",
                    "status": true,
                    "value": "0"
                },
                "nodeType": 0
            },
            "10": {
                "event": {
                    "contract": "0x9572e4c0c7834f39b5b8dff95f211d79f92d7f23",
                    "decodedLog": {
                        "name": "Sync",
                        "params": [
                            {
                                "name": "reserve0",
                                "type": "uint112",
                                "value": "154,918,779,780,165,294,218,571"
                            },
                            {
                                "name": "reserve1",
                                "type": "uint112",
                                "value": "55,722,701,653,132,894,514"
                            }
                        ],
                        "signature": "Sync(uint112,uint112)"
                    },
                    "id": 10,
                    "logData": "0x0000000000000000000000000000000000000000000020ce29f4072ff819dd4b000000000000000000000000000000000000000000000003054ecdec080ee132",
                    "logDecoded": true,
                    "operation": "EVENT",
                    "revert": false,
                    "status": true,
                    "topics": [
                        "0x1c411e9a96e071241c2f21f7726b17ae89e3cab4c78be50e062b03a9fffbbad1"
                    ]
                },
                "nodeType": 1
            },
            "11": {
                "event": {
                    "contract": "0x9572e4c0c7834f39b5b8dff95f211d79f92d7f23",
                    "decodedLog": {
                        "name": "Swap",
                        "params": [
                            {
                                "name": "sender",
                                "type": "address",
                                "value": "0x7a250d5630b4cf539739df2c5dacb4c659f2488d"
                            },
                            {
                                "name": "to",
                                "type": "address",
                                "value": "0xbf5ae133b9a0fc1a07952a7df2afa21f7f69ef58"
                            },
                            {
                                "name": "amount0In",
                                "type": "uint256",
                                "value": "3,277,793,464,317,403,725,824"
                            },
                            {
                                "name": "amount1In",
                                "type": "uint256",
                                "value": "0"
                            },
                            {
                                "name": "amount0Out",
                                "type": "uint256",
                                "value": "0"
                            },
                            {
                                "name": "amount1Out",
                                "type": "uint256",
                                "value": "1,200,859,801,792,506,888"
                            }
                        ],
                        "signature": "Swap(address,uint256,uint256,uint256,uint256,address)"
                    },
                    "id": 11,
                    "logData": "0x0000000000000000000000000000000000000000000000b1b085ad4d77e000000000000000000000000000000000000000000000000000000000000000000000000000000000000000000000000000000000000000000000000000000000000000000000000000000000000000000000000000000000000010aa4fa096e36c08",
                    "logDecoded": true,
                    "operation": "EVENT",
                    "revert": false,
                    "status": true,
                    "topics": [
                        "0xd78ad95fa46c994b6551d0da85fc275fe613ce37657fb8d5e3d130840159d822",
                        "0x0000000000000000000000007a250d5630b4cf539739df2c5dacb4c659f2488d",
                        "0x000000000000000000000000bf5ae133b9a0fc1a07952a7df2afa21f7f69ef58"
                    ]
                },
                "nodeType": 1
            },
            "2": {
                "invocation": {
                    "address": "0x34be5b8c30ee4fde069dc878989686abe9884470",
                    "callData": "0x000000000000000000000000bf5ae133b9a0fc1a07952a7df2afa21f7f69ef580000000000000000000000009572e4c0c7834f39b5b8dff95f211d79f92d7f230000000000000000000000000000000000000000000000b1b085ad4d77e00000",
                    "decodedMethod": {
                        "callParams": [
                            {
                                "name": "sender",
                                "type": "address",
                                "value": "0xbf5ae133b9a0fc1a07952a7df2afa21f7f69ef58"
                            },
                            {
                                "name": "recipient",
                                "type": "address",
                                "value": "0x9572e4c0c7834f39b5b8dff95f211d79f92d7f23"
                            },
                            {
                                "decimalAvailable": true,
                                "name": "amount",
                                "type": "uint256",
                                "value": "3,277,793,464,317,403,725,824"
                            }
                        ],
                        "constructorArguments": "",
                        "name": "transferFrom",
                        "returnParams": [
                            {
                                "name": "",
                                "type": "bool",
                                "value": true
                            }
                        ],
                        "signature": "transferFrom(address,address,uint256)"
                    },
                    "errorInfo": "",
                    "fromAddress": "0x7a250d5630b4cf539739df2c5dacb4c659f2488d",
                    "gasUsed": 20193,
                    "id": 2,
                    "methodDecoded": true,
                    "operation": "CALL",
                    "output": "0x0000000000000000000000000000000000000000000000000000000000000001",
                    "revert": false,
                    "revertMessage": "",
                    "selector": "0x23b872dd",
                    "status": true,
                    "value": "0"
                },
                "nodeType": 0
            },
            "3": {
                "event": {
                    "contract": "0x34be5b8c30ee4fde069dc878989686abe9884470",
                    "decodedLog": {
                        "name": "Transfer",
                        "params": [
                            {
                                "name": "from",
                                "type": "address",
                                "value": "0xbf5ae133b9a0fc1a07952a7df2afa21f7f69ef58"
                            },
                            {
                                "name": "to",
                                "type": "address",
                                "value": "0x9572e4c0c7834f39b5b8dff95f211d79f92d7f23"
                            },
                            {
                                "decimalAvailable": true,
                                "name": "value",
                                "type": "uint256",
                                "value": "3,277,793,464,317,403,725,824"
                            }
                        ],
                        "signature": "Transfer(address,address,uint256)"
                    },
                    "id": 3,
                    "logData": "0x0000000000000000000000000000000000000000000000b1b085ad4d77e00000",
                    "logDecoded": true,
                    "operation": "EVENT",
                    "revert": false,
                    "status": true,
                    "topics": [
                        "0xddf252ad1be2c89b69c2b068fc378daa952ba7f163c4a11628f55a4df523b3ef",
                        "0x000000000000000000000000bf5ae133b9a0fc1a07952a7df2afa21f7f69ef58",
                        "0x0000000000000000000000009572e4c0c7834f39b5b8dff95f211d79f92d7f23"
                    ]
                },
                "nodeType": 1
            },
            "4": {
                "event": {
                    "contract": "0x34be5b8c30ee4fde069dc878989686abe9884470",
                    "decodedLog": {
                        "name": "Approval",
                        "params": [
                            {
                                "name": "owner",
                                "type": "address",
                                "value": "0xbf5ae133b9a0fc1a07952a7df2afa21f7f69ef58"
                            },
                            {
                                "name": "spender",
                                "type": "address",
                                "value": "0x7a250d5630b4cf539739df2c5dacb4c659f2488d"
                            },
                            {
                                "decimalAvailable": true,
                                "name": "value",
                                "type": "uint256",
                                "value": "115,792,089,237,316,195,423,570,985,008,687,907,853,269,984,665,640,563,932,621,770,566,523,656,103,935"
                            }
                        ],
                        "signature": "Approval(address,address,uint256)"
                    },
                    "id": 4,
                    "logData": "0xffffffffffffffffffffffffffffffffffffffffffffe9606b4033748d6867ff",
                    "logDecoded": true,
                    "operation": "EVENT",
                    "revert": false,
                    "status": true,
                    "topics": [
                        "0x8c5be1e5ebec7d5bd14f71427d1e84f3dd0314c0f7b2291e5b200ac8c7c3b925",
                        "0x000000000000000000000000bf5ae133b9a0fc1a07952a7df2afa21f7f69ef58",
                        "0x0000000000000000000000007a250d5630b4cf539739df2c5dacb4c659f2488d"
                    ]
                },
                "nodeType": 1
            },
            "5": {
                "invocation": {
                    "address": "0x9572e4c0c7834f39b5b8dff95f211d79f92d7f23",
                    "callData": "0x000000000000000000000000000000000000000000000000000000000000000000000000000000000000000000000000000000000000000010aa4fa096e36c08000000000000000000000000bf5ae133b9a0fc1a07952a7df2afa21f7f69ef5800000000000000000000000000000000000000000000000000000000000000800000000000000000000000000000000000000000000000000000000000000000",
                    "decodedMethod": {
                        "callParams": [
                            {
                                "name": "amount0Out",
                                "type": "uint256",
                                "value": "0"
                            },
                            {
                                "name": "amount1Out",
                                "type": "uint256",
                                "value": "1,200,859,801,792,506,888"
                            },
                            {
                                "name": "to",
                                "type": "address",
                                "value": "0xbf5ae133b9a0fc1a07952a7df2afa21f7f69ef58"
                            },
                            {
                                "name": "data",
                                "type": "bytes",
                                "value": "0x"
                            }
                        ],
                        "constructorArguments": "",
                        "name": "swap",
                        "returnParams": [],
                        "signature": "swap(uint256,uint256,address,bytes)"
                    },
                    "errorInfo": "",
                    "fromAddress": "0x7a250d5630b4cf539739df2c5dacb4c659f2488d",
                    "gasUsed": 47820,
                    "id": 5,
                    "methodDecoded": true,
                    "operation": "CALL",
                    "output": "",
                    "revert": false,
                    "revertMessage": "",
                    "selector": "0x022c0d9f",
                    "status": true,
                    "value": "0"
                },
                "nodeType": 0
            },
            "6": {
                "invocation": {
                    "address": "0xc02aaa39b223fe8d0a0e5c4f27ead9083c756cc2",
                    "callData": "0x000000000000000000000000bf5ae133b9a0fc1a07952a7df2afa21f7f69ef5800000000000000000000000000000000000000000000000010aa4fa096e36c08",
                    "decodedMethod": {
                        "callParams": [
                            {
                                "name": "dst",
                                "type": "address",
                                "value": "0xbf5ae133b9a0fc1a07952a7df2afa21f7f69ef58"
                            },
                            {
                                "decimalAvailable": true,
                                "name": "wad",
                                "type": "uint256",
                                "value": "1,200,859,801,792,506,888"
                            }
                        ],
                        "constructorArguments": "",
                        "name": "transfer",
                        "returnParams": [
                            {
                                "name": "",
                                "type": "bool",
                                "value": true
                            }
                        ],
                        "signature": "transfer(address,uint256)"
                    },
                    "errorInfo": "",
                    "fromAddress": "0x9572e4c0c7834f39b5b8dff95f211d79f92d7f23",
                    "gasUsed": 12862,
                    "id": 6,
                    "methodDecoded": true,
                    "operation": "CALL",
                    "output": "0x0000000000000000000000000000000000000000000000000000000000000001",
                    "revert": false,
                    "revertMessage": "",
                    "selector": "0xa9059cbb",
                    "status": true,
                    "value": "0"
                },
                "nodeType": 0
            },
            "7": {
                "event": {
                    "contract": "0xc02aaa39b223fe8d0a0e5c4f27ead9083c756cc2",
                    "decodedLog": {
                        "name": "Transfer",
                        "params": [
                            {
                                "name": "src",
                                "type": "address",
                                "value": "0x9572e4c0c7834f39b5b8dff95f211d79f92d7f23"
                            },
                            {
                                "name": "dst",
                                "type": "address",
                                "value": "0xbf5ae133b9a0fc1a07952a7df2afa21f7f69ef58"
                            },
                            {
                                "decimalAvailable": true,
                                "name": "wad",
                                "type": "uint256",
                                "value": "1,200,859,801,792,506,888"
                            }
                        ],
                        "signature": "Transfer(address,address,uint256)"
                    },
                    "id": 7,
                    "logData": "0x00000000000000000000000000000000000000000000000010aa4fa096e36c08",
                    "logDecoded": true,
                    "operation": "EVENT",
                    "revert": false,
                    "status": true,
                    "topics": [
                        "0xddf252ad1be2c89b69c2b068fc378daa952ba7f163c4a11628f55a4df523b3ef",
                        "0x0000000000000000000000009572e4c0c7834f39b5b8dff95f211d79f92d7f23",
                        "0x000000000000000000000000bf5ae133b9a0fc1a07952a7df2afa21f7f69ef58"
                    ]
                },
                "nodeType": 1
            },
            "8": {
                "invocation": {
                    "address": "0x34be5b8c30ee4fde069dc878989686abe9884470",
                    "callData": "0x0000000000000000000000009572e4c0c7834f39b5b8dff95f211d79f92d7f23",
                    "decodedMethod": {
                        "callParams": [
                            {
                                "name": "account",
                                "type": "address",
                                "value": "0x9572e4c0c7834f39b5b8dff95f211d79f92d7f23"
                            }
                        ],
                        "constructorArguments": "",
                        "name": "balanceOf",
                        "returnParams": [
                            {
                                "decimalAvailable": true,
                                "name": "",
                                "type": "uint256",
                                "value": "154,918,779,780,165,294,218,571"
                            }
                        ],
                        "signature": "balanceOf(address)"
                    },
                    "errorInfo": "",
                    "fromAddress": "0x9572e4c0c7834f39b5b8dff95f211d79f92d7f23",
                    "gasUsed": 601,
                    "id": 8,
                    "methodDecoded": true,
                    "operation": "STATICCALL",
                    "output": "0x0000000000000000000000000000000000000000000020ce29f4072ff819dd4b",
                    "revert": false,
                    "revertMessage": "",
                    "selector": "0x70a08231",
                    "status": true,
                    "value": "0"
                },
                "nodeType": 0
            },
            "9": {
                "invocation": {
                    "address": "0xc02aaa39b223fe8d0a0e5c4f27ead9083c756cc2",
                    "callData": "0x0000000000000000000000009572e4c0c7834f39b5b8dff95f211d79f92d7f23",
                    "decodedMethod": {
                        "callParams": [
                            {
                                "name": "",
                                "type": "address",
                                "value": "0x9572e4c0c7834f39b5b8dff95f211d79f92d7f23"
                            }
                        ],
                        "constructorArguments": "",
                        "name": "balanceOf",
                        "returnParams": [
                            {
                                "decimalAvailable": true,
                                "name": "",
                                "type": "uint256",
                                "value": "55,722,701,653,132,894,514"
                            }
                        ],
                        "signature": "balanceOf(address)"
                    },
                    "errorInfo": "",
                    "fromAddress": "0x9572e4c0c7834f39b5b8dff95f211d79f92d7f23",
                    "gasUsed": 534,
                    "id": 9,
                    "methodDecoded": true,
                    "operation": "STATICCALL",
                    "output": "0x000000000000000000000000000000000000000000000003054ecdec080ee132",
                    "revert": false,
                    "revertMessage": "",
                    "selector": "0x70a08231",
                    "status": true,
                    "value": "0"
                },
                "nodeType": 0
            }
        },
        "gasFlame": [
            {
                "children": [
                    {
                        "children": [
                            {
                                "children": [],
                                "depth": 0,
                                "name": "Initial Gas",
                                "value": 23048
                            },
                            {
                                "children": [
                                    {
                                        "children": [],
                                        "depth": 1,
                                        "name": "getReserves",
                                        "value": 2504
                                    },
                                    {
                                        "children": [],
                                        "depth": 1,
                                        "name": "transferFrom",
                                        "value": 20193
                                    },
                                    {
                                        "children": [
                                            {
                                                "children": [],
                                                "depth": 2,
                                                "name": "transfer",
                                                "value": 12862
                                            },
                                            {
                                                "children": [],
                                                "depth": 2,
                                                "name": "balanceOf",
                                                "value": 601
                                            },
                                            {
                                                "children": [],
                                                "depth": 2,
                                                "name": "balanceOf",
                                                "value": 534
                                            }
                                        ],
                                        "depth": 1,
                                        "name": "swap",
                                        "value": 47820
                                    }
                                ],
                                "depth": 0,
                                "name": "Executed Gas",
                                "value": 83266
                            }
                        ],
                        "depth": -1,
                        "name": "Actual Gas Used",
                        "value": 103514
                    },
                    {
                        "children": [],
                        "depth": -1,
                        "name": "Refunded Gas",
                        "value": 2800
                    }
                ],
                "depth": -2,
                "name": "Total Gas",
                "value": 106314
            }
        ],
        "isConfirmed": true,
        "mainTrace": [
            {
                "children": [
                    {
                        "children": [
                            {
                                "children": [],
                                "depth": 1,
                                "id": 1,
                                "order": 1
                            },
                            {
                                "children": [
                                    {
                                        "children": [],
                                        "depth": 2,
                                        "id": 3,
                                        "order": 3
                                    },
                                    {
                                        "children": [],
                                        "depth": 2,
                                        "id": 4,
                                        "order": 4
                                    }
                                ],
                                "depth": 1,
                                "id": 2,
                                "order": 2
                            },
                            {
                                "children": [
                                    {
                                        "children": [
                                            {
                                                "children": [],
                                                "depth": 3,
                                                "id": 7,
                                                "order": 7
                                            }
                                        ],
                                        "depth": 2,
                                        "id": 6,
                                        "order": 6
                                    },
                                    {
                                        "children": [],
                                        "depth": 2,
                                        "id": 8,
                                        "order": 8
                                    },
                                    {
                                        "children": [],
                                        "depth": 2,
                                        "id": 9,
                                        "order": 9
                                    },
                                    {
                                        "children": [],
                                        "depth": 2,
                                        "id": 10,
                                        "order": 10
                                    },
                                    {
                                        "children": [],
                                        "depth": 2,
                                        "id": 11,
                                        "order": 11
                                    }
                                ],
                                "depth": 1,
                                "id": 5,
                                "order": 5
                            }
                        ],
                        "depth": 0,
                        "id": 0,
                        "order": 0
                    }
                ],
                "depth": -1,
                "id": -1,
                "order": -1
            }
        ],
        "mainTraceNodeCount": 12,
        "parentIdMap": {
            "0": -1,
            "1": 0,
            "10": 5,
            "11": 5,
            "2": 0,
            "3": 2,
            "4": 2,
            "5": 0,
            "6": 5,
            "7": 6,
            "8": 5,
            "9": 5
        },
        "tidyTrace": [
            {
                "children": [
                    {
                        "children": [
                            {
                                "children": [
                                    {
                                        "children": [],
                                        "depth": 2,
                                        "id": 3,
                                        "order": 3
                                    },
                                    {
                                        "children": [],
                                        "depth": 2,
                                        "id": 4,
                                        "order": 4
                                    }
                                ],
                                "depth": 1,
                                "id": 2,
                                "order": 2
                            },
                            {
                                "children": [
                                    {
                                        "children": [
                                            {
                                                "children": [],
                                                "depth": 3,
                                                "id": 7,
                                                "order": 7
                                            }
                                        ],
                                        "depth": 2,
                                        "id": 6,
                                        "order": 6
                                    },
                                    {
                                        "children": [],
                                        "depth": 2,
                                        "id": 10,
                                        "order": 10
                                    },
                                    {
                                        "children": [],
                                        "depth": 2,
                                        "id": 11,
                                        "order": 11
                                    }
                                ],
                                "depth": 1,
                                "id": 5,
                                "order": 5
                            }
                        ],
                        "depth": 0,
                        "id": 0,
                        "order": 0
                    }
                ],
                "depth": -1,
                "id": -1,
                "order": -1
            }
        ],
        "tidyTraceNodeCount": 9
    },
    "state_change": {
        "stateChanges": [
            {
                "address": "0x34be5b8c30ee4fde069dc878989686abe9884470",
                "erc": "ERC-20",
                "slots": [
                    {
                        "current": "0x000000000000000000000000000000000000000000000000007473a7f03fc400",
                        "key": "0xbd2b29f4812bba0491fcbe699ff507080ba726aa3ee764fe67456ad9075ad497",
                        "prev": "0x0000000000000000000000000000000000000000000000b1b0fa20f5681fc400"
                    },
                    {
                        "current": "0x0000000000000000000000000000000000000000000020ce29f4072ff819dd4b",
                        "key": "0x270aff170150143a49b0edb076d53774a3022b7e8036d6261c01edd903f50b3a",
                        "prev": "0x00000000000000000000000000000000000000000000201c796e59e28039dd4b"
                    },
                    {
                        "current": "0xffffffffffffffffffffffffffffffffffffffffffffe9606b4033748d6867ff",
                        "key": "0x9eb64ba14781d0149143344c3d4c2692f0b828386948b2a686205aaafbaab9ab",
                        "prev": "0xffffffffffffffffffffffffffffffffffffffffffffea121bc5e0c2054867ff"
                    }
                ],
                "storageVariables": [
                    {
                        "name": "_balances",
                        "type": "mapping(address => uint256)",
                        "value": {
                            "pairs": [
                                {
                                    "key": "0x9572e4c0c7834f39b5b8dff95f211d79f92d7f23",
                                    "value": {
                                        "current": "154918779780165294218571",
                                        "prev": "151640986315847890492747",
                                        "typeTag": 1
                                    }
                                },
                                {
                                    "key": "0xbf5ae133b9a0fc1a07952a7df2afa21f7f69ef58",
                                    "value": {
                                        "current": "32778262425879552",
                                        "prev": "3277826242579829605376",
                                        "typeTag": 1
                                    }
                                }
                            ],
                            "typeTag": 4
                        }
                    },
                    {
                        "name": "_allowances",
                        "type": "mapping(address => mapping(address => uint256))",
                        "value": {
                            "pairs": [
                                {
                                    "key": "0xbf5ae133b9a0fc1a07952a7df2afa21f7f69ef58",
                                    "value": {
                                        "pairs": [
                                            {
                                                "key": "0x7a250d5630b4cf539739df2c5dacb4c659f2488d",
                                                "value": {
                                                    "current": "115792089237316195423570985008687907853269984665640563932621770566523656103935",
                                                    "prev": "115792089237316195423570985008687907853269984665640563935899564030841059829759",
                                                    "typeTag": 1
                                                }
                                            }
                                        ],
                                        "typeTag": 4
                                    }
                                }
                            ],
                            "typeTag": 4
                        }
                    }
                ]
            },
            {
                "address": "0x9572e4c0c7834f39b5b8dff95f211d79f92d7f23",
                "erc": "ERC-20",
                "slots": [
                    {
                        "current": "0x621d6bc3000000000003054ecdec080ee1320000000020ce29f4072ff819dd4b",
                        "key": "0x0000000000000000000000000000000000000000000000000000000000000008",
                        "prev": "0x621d529400000000000315f91d8c9ef24d3a00000000201c796e59e28039dd4b"
                    },
                    {
                        "current": "0x00000000000000000000000000000000138a088c8b6902e686c44d58a40ab2d5",
                        "key": "0x0000000000000000000000000000000000000000000000000000000000000009",
                        "prev": "0x0000000000000000000000000000000013879d00ef9877fb04aea01d6cec5611"
                    },
                    {
                        "current": "0x00000000000000000000000000022b58e2720e7ef5aa4639b776d6bae9aded5a",
                        "key": "0x000000000000000000000000000000000000000000000000000000000000000a",
                        "prev": "0x00000000000000000000000000022a52d2d9063b2515641d88a2e08de41fe21b"
                    }
                ],
                "storageVariables": [
                    {
                        "name": "reserve0",
                        "type": "uint112",
                        "value": {
                            "current": "154918779780165294218571",
                            "prev": "151640986315847890492747",
                            "typeTag": 1
                        }
                    },
                    {
                        "name": "reserve1",
                        "type": "uint112",
                        "value": {
                            "current": "55722701653132894514",
                            "prev": "56923561454925401402",
                            "typeTag": 1
                        }
                    },
                    {
                        "name": "blockTimestampLast",
                        "type": "uint32",
                        "value": {
                            "current": "1646095299",
                            "prev": "1646088852",
                            "typeTag": 1
                        }
                    },
                    {
                        "name": "price0CumulativeLast",
                        "type": "uint256",
                        "value": {
                            "current": "25972042280756156281701772361120527061",
                            "prev": "25959476408274617291245012987220350481",
                            "typeTag": 1
                        }
                    },
                    {
                        "name": "price1CumulativeLast",
                        "type": "uint256",
                        "value": {
                            "current": "48377564538158881250223013696935604377218394",
                            "prev": "48288389825016607126640380902493057720508955",
                            "typeTag": 1
                        }
                    }
                ]
            },
            {
                "address": "0xc02aaa39b223fe8d0a0e5c4f27ead9083c756cc2",
                "erc": "ERC-20",
                "slots": [
                    {
                        "current": "0x000000000000000000000000000000000000000000000003054ecdec080ee132",
                        "key": "0x8f6496e93fe083ba4b3e204c15b1999b7ef986b6dbb4b795fb5c05fadb9e59a0",
                        "prev": "0x00000000000000000000000000000000000000000000000315f91d8c9ef24d3a"
                    },
                    {
                        "current": "0x000000000000000000000000000000000000000000000004f1f1ec3d7bf6e0aa",
                        "key": "0x533a63bf44e1e4396798d1f05645b9bba8192355c6e17fee1d28c5ce9d519002",
                        "prev": "0x000000000000000000000000000000000000000000000004e1479c9ce51374a2"
                    }
                ],
                "storageVariables": [
                    {
                        "name": "balanceOf",
                        "type": "mapping(address => uint256)",
                        "value": {
                            "pairs": [
                                {
                                    "key": "0x9572e4c0c7834f39b5b8dff95f211d79f92d7f23",
                                    "value": {
                                        "current": "55722701653132894514",
                                        "prev": "56923561454925401402",
                                        "typeTag": 1
                                    }
                                },
                                {
                                    "key": "0xbf5ae133b9a0fc1a07952a7df2afa21f7f69ef58",
                                    "value": {
                                        "current": "91220951676183044266",
                                        "prev": "90020091874390537378",
                                        "typeTag": 1
                                    }
                                }
                            ],
                            "typeTag": 4
                        }
                    }
                ]
            }
        ]
    }
}