{
    "balance_change": {
        "balanceChanges": [
            {
                "account": "0xd165f0e6be2bbd7a9fc8b5f6f69d4a6b57c97885",
                "assets": [
                    {
                        "address": "0xc011a73ee8576fb46f5e1c5751ca3b9fe0af2a6f",
                        "amount": "299.59994581",
                        "iconUrl": "https://assets.blocksec.com/icon/c1e3b6af03ce5f020e733ca697c33400586b436d22b539a9570605e485361831.png",
                        "isERC1155": false,
                        "isERC721": false,
                        "sign": false,
                        "value": "6024.95491"
                    }
                ]
            },
            {
                "account": "0x32e9dc9968fab4c4528165cd37b613dd5d229650",
                "assets": [
                    {
                        "address": "0xc011a73ee8576fb46f5e1c5751ca3b9fe0af2a6f",
                        "amount": "299.59994581",
                        "iconUrl": "https://assets.blocksec.com/icon/c1e3b6af03ce5f020e733ca697c33400586b436d22b539a9570605e485361831.png",
                        "isERC1155": false,
                        "isERC721": false,
                        "sign": true,
                        "value": "6024.95491"
                    }
                ]
            }
        ]
    },
    "profile": {
        "basic_info": {
            "baseFee": "",
            "blockNumber": 12200379,
            "callData": "0xa9059cbb00000000000000000000000032e9dc9968fab4c4528165cd37b613dd5d2296500000000000000000000000000000000000000000000000103dc8d35d9b54b400",
            "debugEnable": true,
            "errorInfo": "",
            "eventCount": 1,
            "feeRecipient": "0xea674fdde714fd979de3edf0f56aa9716b898ec8",
            "formatValue": "0",
            "gasLimit": 81291,
            "gasPrice": "173.6",
            "gasUsed": 65700,
            "intTxnCount": 9,
            "internalRevert": false,
            "internalRevertMessage": "",
            "isContractCreation": false,
            "isFlashloan": false,
            "maxFee": "",
            "nonce": 0,
            "overwritedBlockNumber": -1,
            "priorityFee": "",
            "receiver": "0xc011a73ee8576fb46f5e1c5751ca3b9fe0af2a6f",
            "revertMessage": "",
            "sender": "0xd165f0e6be2bbd7a9fc8b5f6f69d4a6b57c97885",
            "simulationEnable": true,
            "sourceTxnHash": "0x3984230df525505a9e77f6c2a3215356926027529cd8cd8dabbe9fafe0cc1200",
            "status": true,
            "timestamp": "2021-04-08T16:54:43Z",
            "transactionFee": "0.01140552",
            "txnHash": "0x3984230df525505a9e77f6c2a3215356926027529cd8cd8dabbe9fafe0cc1200",
            "txnIndex": 138,
            "type": 0,
            "value": "0"
        },
        "fund_flow": [
            {
                "amount": "299.59994581",
                "from": "0xd165f0e6be2bbd7a9fc8b5f6f69d4a6b57c97885",
                "id": 1,
                "isERC1155": false,
                "isERC721": false,
                "isReverted": false,
                "order": 1,
                "to": "0x32e9dc9968fab4c4528165cd37b613dd5d229650",
                "token": "0xc011a73ee8576fb46f5e1c5751ca3b9fe0af2a6f"
            }
        ],
        "token_infos": [
            {
                "address": "0xc011a73ee8576fb46f5e1c5751ca3b9fe0af2a6f",
                "decimals": 18
            },
            {
                "address": "0xc02aaa39b223fe8d0a0e5c4f27ead9083c756cc2",
                "decimals": 18
            },
            {
                "address": "0xeeeeeeeeeeeeeeeeeeeeeeeeeeeeeeeeeeeeeeee",
                "decimals": 18
            }
        ]
    },
    "address_label": {
        "labels": [
            {
                "address": "0x4b9ca5607f1ff8019c1c6a3c2f0cc8de622d5b82",
                "label": "Synthetix: State"
            },
            {
                "address": "0x1c86b3cdf2a60ae3a574f7f71d44e2c50bddb87e",
                "label": "Synthetix: System Status"
            },
            {
                "address": "0x0000000000000000000000000000000000000001",
                "label": "Precompiled"
            },
            {
                "address": "0x0000000000000000000000000000000000000003",
                "label": "Precompiled"
            },
            {
                "address": "0x0000000000000000000000000000000000000004",
                "label": "Precompiled"
            },
            {
                "address": "0xeeeeeeeeeeeeeeeeeeeeeeeeeeeeeeeeeeeeeeee",
                "label": "Ether"
            },
            {
                "address": "0xc011a73ee8576fb46f5e1c5751ca3b9fe0af2a6f",
                "label": "Synthetix: Proxy SNX Token"
            },
            {
                "address": "0x32e9dc9968fab4c4528165cd37b613dd5d229650",
                "label": "BINANCE"
            },
            {
                "address": "0x97767d7d04fd0db0a1a2478dcd4ba85290556b48",
                "label": "Synthetix: SNX Token"
            },
            {
                "address": "0x5b1b5fea1b99d83ad479df0c222f0492385381dd",
                "label": "Synthetix: Token State Synthetix"
            },
            {
                "address": "0x0000000000000000000000000000000000000002",
                "label": "Precompiled"
            }
        ]
    },
    "trace": {
        "accountLabels": null,
        "dataMap": {
            "-1": {
                "invocation": {
                    "address": "0xd165f0e6be2bbd7a9fc8b5f6f69d4a6b57c97885",
                    "callData": "",
                    "decodedMethod": null,
                    "errorInfo": "",
                    "fromAddress": "",
                    "gasUsed": 0,
                    "id": -1,
                    "methodDecoded": false,
                    "operation": "",
                    "output": "",
                    "revert": false,
                    "revertMessage": "",
                    "selector": "",
                    "status": false,
                    "value": ""
                },
                "nodeType": 0
            },
            "0": {
                "invocation": {
                    "address": "0xc011a73ee8576fb46f5e1c5751ca3b9fe0af2a6f",
                    "callData": "0x00000000000000000000000032e9dc9968fab4c4528165cd37b613dd5d2296500000000000000000000000000000000000000000000000103dc8d35d9b54b400",
                    "decodedMethod": {
                        "callParams": [
                            {
                                "name": "to",
                                "type": "address",
                                "value": "0x32e9dc9968fab4c4528165cd37b613dd5d229650"
                            },
                            {
                                "decimalAvailable": true,
                                "name": "value",
                                "type": "uint256",
                                "value": "299,599,945,810,000,000,000"
                            }
                        ],
                        "constructorArguments": "",
                        "name": "transfer",
                        "returnParams": [
                            {
                                "name": "",
                                "type": "bool",
                                "value": true
                            }
                        ],
                        "signature": "transfer(address,uint256)"
                    },
                    "errorInfo": "",
                    "fromAddress": "0xd165f0e6be2bbd7a9fc8b5f6f69d4a6b57c97885",
                    "gasUsed": 65700,
                    "id": 0,
                    "methodDecoded": true,
                    "operation": "CALL",
                    "output": "0x0000000000000000000000000000000000000000000000000000000000000001",
                    "revert": false,
                    "revertMessage": "",
                    "selector": "0xa9059cbb",
                    "status": true,
                    "value": "0"
                },
                "nodeType": 0
            },
            "1": {
                "invocation": {
                    "address": "0x97767d7d04fd0db0a1a2478dcd4ba85290556b48",
                    "callData": "0x000000000000000000000000d165f0e6be2bbd7a9fc8b5f6f69d4a6b57c97885",
                    "decodedMethod": {
                        "callParams": [
                            {
                                "name": "sender",
                                "type": "address",
                                "value": "0xd165f0e6be2bbd7a9fc8b5f6f69d4a6b57c97885"
                            }
                        ],
                        "constructorArguments": "",
                        "name": "setMessageSender",
                        "returnParams": [],
                        "signature": "setMessageSender(address)"
                    },
                    "errorInfo": "",
                    "fromAddress": "0xc011a73ee8576fb46f5e1c5751ca3b9fe0af2a6f",
                    "gasUsed": 7248,
                    "id": 1,
                    "methodDecoded": true,
                    "operation": "CALL",
                    "output": "",
                    "revert": false,
                    "revertMessage": "",
                    "selector": "0xbc67f832",
                    "status": true,
                    "value": "0"
                },
                "nodeType": 0
            },
            "10": {
                "event": {
                    "contract": "0xc011a73ee8576fb46f5e1c5751ca3b9fe0af2a6f",
                    "decodedLog": {
                        "name": "Transfer",
                        "params": [
                            {
                                "name": "from",
                                "type": "address",
                                "value": "0xd165f0e6be2bbd7a9fc8b5f6f69d4a6b57c97885"
                            },
                            {
                                "name": "to",
                                "type": "address",
                                "value": "0x32e9dc9968fab4c4528165cd37b613dd5d229650"
                            },
                            {
                                "decimalAvailable": true,
                                "name": "value",
                                "type": "uint256",
                                "value": "299,599,945,810,000,000,000"
                            }
                        ],
                        "signature": "Transfer(address,address,uint256)"
                    },
                    "id": 10,
                    "logData": "0x0000000000000000000000000000000000000000000000103dc8d35d9b54b400",
                    "logDecoded": true,
                    "operation": "EVENT",
                    "revert": false,
                    "status": true,
                    "topics": [
                        "0xddf252ad1be2c89b69c2b068fc378daa952ba7f163c4a11628f55a4df523b3ef",
                        "0x000000000000000000000000d165f0e6be2bbd7a9fc8b5f6f69d4a6b57c97885",
                        "0x00000000000000000000000032e9dc9968fab4c4528165cd37b613dd5d229650"
                    ]
                },
                "nodeType": 1
            },
            "2": {
                "invocation": {
                    "address": "0x97767d7d04fd0db0a1a2478dcd4ba85290556b48",
                    "callData": "0x00000000000000000000000032e9dc9968fab4c4528165cd37b613dd5d2296500000000000000000000000000000000000000000000000103dc8d35d9b54b400",
                    "decodedMethod": {
                        "callParams": [
                            {
                                "name": "to",
                                "type": "address",
                                "value": "0x32e9dc9968fab4c4528165cd37b613dd5d229650"
                            },
                            {
                                "decimalAvailable": true,
                                "name": "value",
                                "type": "uint256",
                                "value": "299,599,945,810,000,000,000"
                            }
                        ],
                        "constructorArguments": "",
                        "name": "transfer",
                        "returnParams": [
                            {
                                "name": "",
                                "type": "bool",
                                "value": true
                            }
                        ],
                        "signature": "transfer(address,uint256)"
                    },
                    "errorInfo": "",
                    "fromAddress": "0xc011a73ee8576fb46f5e1c5751ca3b9fe0af2a6f",
                    "gasUsed": 46179,
                    "id": 2,
                    "methodDecoded": true,
                    "operation": "CALL",
                    "output": "0x0000000000000000000000000000000000000000000000000000000000000001",
                    "revert": false,
                    "revertMessage": "",
                    "selector": "0xa9059cbb",
                    "status": true,
                    "value": "0"
                },
                "nodeType": 0
            },
            "3": {
                "invocation": {
                    "address": "0x1c86b3cdf2a60ae3a574f7f71d44e2c50bddb87e",
                    "callData": "0x",
                    "decodedMethod": {
                        "callParams": [],
                        "constructorArguments": "",
                        "name": "requireSystemActive",
                        "returnParams": [],
                        "signature": "requireSystemActive()"
                    },
                    "errorInfo": "",
                    "fromAddress": "0x97767d7d04fd0db0a1a2478dcd4ba85290556b48",
                    "gasUsed": 1181,
                    "id": 3,
                    "methodDecoded": true,
                    "operation": "STATICCALL",
                    "output": "",
                    "revert": false,
                    "revertMessage": "",
                    "selector": "0x086dabd1",
                    "status": true,
                    "value": "0"
                },
                "nodeType": 0
            },
            "4": {
                "invocation": {
                    "address": "0x4b9ca5607f1ff8019c1c6a3c2f0cc8de622d5b82",
                    "callData": "0x000000000000000000000000d165f0e6be2bbd7a9fc8b5f6f69d4a6b57c97885",
                    "decodedMethod": {
                        "callParams": [
                            {
                                "name": "",
                                "type": "address",
                                "value": "0xd165f0e6be2bbd7a9fc8b5f6f69d4a6b57c97885"
                            }
                        ],
                        "constructorArguments": "",
                        "name": "issuanceData",
                        "returnParams": [
                            {
                                "name": "initialDebtOwnership",
                                "type": "uint256",
                                "value": "0"
                            },
                            {
                                "name": "debtEntryIndex",
                                "type": "uint256",
                                "value": "0"
                            }
                        ],
                        "signature": "issuanceData(address)"
                    },
                    "errorInfo": "",
                    "fromAddress": "0x97767d7d04fd0db0a1a2478dcd4ba85290556b48",
                    "gasUsed": 2275,
                    "id": 4,
                    "methodDecoded": true,
                    "operation": "STATICCALL",
                    "output": "0x00000000000000000000000000000000000000000000000000000000000000000000000000000000000000000000000000000000000000000000000000000000",
                    "revert": false,
                    "revertMessage": "",
                    "selector": "0x8b3f8088",
                    "status": true,
                    "value": "0"
                },
                "nodeType": 0
            },
            "5": {
                "invocation": {
                    "address": "0x5b1b5fea1b99d83ad479df0c222f0492385381dd",
                    "callData": "0x000000000000000000000000d165f0e6be2bbd7a9fc8b5f6f69d4a6b57c97885",
                    "decodedMethod": {
                        "callParams": [
                            {
                                "name": "",
                                "type": "address",
                                "value": "0xd165f0e6be2bbd7a9fc8b5f6f69d4a6b57c97885"
                            }
                        ],
                        "constructorArguments": "",
                        "name": "balanceOf",
                        "returnParams": [
                            {
                                "decimalAvailable": true,
                                "name": "",
                                "type": "uint256",
                                "value": "299,599,945,810,000,000,000"
                            }
                        ],
                        "signature": "balanceOf(address)"
                    },
                    "errorInfo": "",
                    "fromAddress": "0x97767d7d04fd0db0a1a2478dcd4ba85290556b48",
                    "gasUsed": 1186,
                    "id": 5,
                    "methodDecoded": true,
                    "operation": "STATICCALL",
                    "output": "0x0000000000000000000000000000000000000000000000103dc8d35d9b54b400",
                    "revert": false,
                    "revertMessage": "",
                    "selector": "0x70a08231",
                    "status": true,
                    "value": "0"
                },
                "nodeType": 0
            },
            "6": {
                "invocation": {
                    "address": "0x5b1b5fea1b99d83ad479df0c222f0492385381dd",
                    "callData": "0x000000000000000000000000d165f0e6be2bbd7a9fc8b5f6f69d4a6b57c978850000000000000000000000000000000000000000000000000000000000000000",
                    "decodedMethod": {
                        "callParams": [
                            {
                                "name": "account",
                                "type": "address",
                                "value": "0xd165f0e6be2bbd7a9fc8b5f6f69d4a6b57c97885"
                            },
                            {
                                "name": "value",
                                "type": "uint256",
                                "value": "0"
                            }
                        ],
                        "constructorArguments": "",
                        "name": "setBalanceOf",
                        "returnParams": [],
                        "signature": "setBalanceOf(address,uint256)"
                    },
                    "errorInfo": "",
                    "fromAddress": "0x97767d7d04fd0db0a1a2478dcd4ba85290556b48",
                    "gasUsed": 6425,
                    "id": 6,
                    "methodDecoded": true,
                    "operation": "CALL",
                    "output": "",
                    "revert": false,
                    "revertMessage": "",
                    "selector": "0xb46310f6",
                    "status": true,
                    "value": "0"
                },
                "nodeType": 0
            },
            "7": {
                "invocation": {
                    "address": "0x5b1b5fea1b99d83ad479df0c222f0492385381dd",
                    "callData": "0x00000000000000000000000032e9dc9968fab4c4528165cd37b613dd5d229650",
                    "decodedMethod": {
                        "callParams": [
                            {
                                "name": "",
                                "type": "address",
                                "value": "0x32e9dc9968fab4c4528165cd37b613dd5d229650"
                            }
                        ],
                        "constructorArguments": "",
                        "name": "balanceOf",
                        "returnParams": [
                            {
                                "decimalAvailable": true,
                                "name": "",
                                "type": "uint256",
                                "value": "56,509,847,750,000,000,000"
                            }
                        ],
                        "signature": "balanceOf(address)"
                    },
                    "errorInfo": "",
                    "fromAddress": "0x97767d7d04fd0db0a1a2478dcd4ba85290556b48",
                    "gasUsed": 1186,
                    "id": 7,
                    "methodDecoded": true,
                    "operation": "STATICCALL",
                    "output": "0x000000000000000000000000000000000000000000000003103b4f206a283c00",
                    "revert": false,
                    "revertMessage": "",
                    "selector": "0x70a08231",
                    "status": true,
                    "value": "0"
                },
                "nodeType": 0
            },
            "8": {
                "invocation": {
                    "address": "0x5b1b5fea1b99d83ad479df0c222f0492385381dd",
                    "callData": "0x00000000000000000000000032e9dc9968fab4c4528165cd37b613dd5d2296500000000000000000000000000000000000000000000000134e04227e057cf000",
                    "decodedMethod": {
                        "callParams": [
                            {
                                "name": "account",
                                "type": "address",
                                "value": "0x32e9dc9968fab4c4528165cd37b613dd5d229650"
                            },
                            {
                                "name": "value",
                                "type": "uint256",
                                "value": "356,109,793,560,000,000,000"
                            }
                        ],
                        "constructorArguments": "",
                        "name": "setBalanceOf",
                        "returnParams": [],
                        "signature": "setBalanceOf(address,uint256)"
                    },
                    "errorInfo": "",
                    "fromAddress": "0x97767d7d04fd0db0a1a2478dcd4ba85290556b48",
                    "gasUsed": 6425,
                    "id": 8,
                    "methodDecoded": true,
                    "operation": "CALL",
                    "output": "",
                    "revert": false,
                    "revertMessage": "",
                    "selector": "0xb46310f6",
                    "status": true,
                    "value": "0"
                },
                "nodeType": 0
            },
            "9": {
                "invocation": {
                    "address": "0xc011a73ee8576fb46f5e1c5751ca3b9fe0af2a6f",
                    "callData": "0x00000000000000000000000000000000000000000000000000000000000000c00000000000000000000000000000000000000000000000000000000000000003ddf252ad1be2c89b69c2b068fc378daa952ba7f163c4a11628f55a4df523b3ef000000000000000000000000d165f0e6be2bbd7a9fc8b5f6f69d4a6b57c9788500000000000000000000000032e9dc9968fab4c4528165cd37b613dd5d229650000000000000000000000000000000000000000000000000000000000000000000000000000000000000000000000000000000000000000000000000000000200000000000000000000000000000000000000000000000103dc8d35d9b54b400",
                    "decodedMethod": {
                        "callParams": [
                            {
                                "name": "callData",
                                "type": "bytes",
                                "value": "0x0000000000000000000000000000000000000000000000103dc8d35d9b54b400"
                            },
                            {
                                "name": "numTopics",
                                "type": "uint256",
                                "value": "3"
                            },
                            {
                                "name": "topic1",
                                "type": "bytes32",
                                "value": "0xddf252ad1be2c89b69c2b068fc378daa952ba7f163c4a11628f55a4df523b3ef"
                            },
                            {
                                "name": "topic2",
                                "type": "bytes32",
                                "value": "0x000000000000000000000000d165f0e6be2bbd7a9fc8b5f6f69d4a6b57c97885"
                            },
                            {
                                "name": "topic3",
                                "type": "bytes32",
                                "value": "0x00000000000000000000000032e9dc9968fab4c4528165cd37b613dd5d229650"
                            },
                            {
                                "name": "topic4",
                                "type": "bytes32",
                                "value": "0x0000000000000000000000000000000000000000000000000000000000000000"
                            }
                        ],
                        "constructorArguments": "",
                        "name": "_emit",
                        "returnParams": [],
                        "signature": "_emit(bytes,uint256,bytes32,bytes32,bytes32,bytes32)"
                    },
                    "errorInfo": "",
                    "fromAddress": "0x97767d7d04fd0db0a1a2478dcd4ba85290556b48",
                    "gasUsed": 3406,
                    "id": 9,
                    "methodDecoded": true,
                    "operation": "CALL",
                    "output": "",
                    "revert": false,
                    "revertMessage": "",
                    "selector": "0x907dff97",
                    "status": true,
                    "value": "0"
                },
                "nodeType": 0
            }
        },
        "gasFlame": [
            {
                "children": [
                    {
                        "children": [
                            {
                                "children": [],
                                "depth": 0,
                                "name": "Initial Gas",
                                "value": 21656
                            },
                            {
                                "children": [
                                    {
                                        "children": [],
                                        "depth": 1,
                                        "name": "setMessageSender",
                                        "value": 7248
                                    },
                                    {
                                        "children": [
                                            {
                                                "children": [],
                                                "depth": 2,
                                                "name": "requireSystemActive",
                                                "value": 1181
                                            },
                                            {
                                                "children": [],
                                                "depth": 2,
                                                "name": "issuanceData",
                                                "value": 2275
                                            },
                                            {
                                                "children": [],
                                                "depth": 2,
                                                "name": "balanceOf",
                                                "value": 1186
                                            },
                                            {
                                                "children": [],
                                                "depth": 2,
                                                "name": "setBalanceOf",
                                                "value": 6425
                                            },
                                            {
                                                "children": [],
                                                "depth": 2,
                                                "name": "balanceOf",
                                                "value": 1186
                                            },
                                            {
                                                "children": [],
                                                "depth": 2,
                                                "name": "setBalanceOf",
                                                "value": 6425
                                            },
                                            {
                                                "children": [],
                                                "depth": 2,
                                                "name": "_emit",
                                                "value": 3406
                                            }
                                        ],
                                        "depth": 1,
                                        "name": "transfer",
                                        "value": 46179
                                    }
                                ],
                                "depth": 0,
                                "name": "Executed Gas",
                                "value": 59044
                            }
                        ],
                        "depth": -1,
                        "name": "Actual Gas Used",
                        "value": 65700
                    },
                    {
                        "children": [],
                        "depth": -1,
                        "name": "Refunded Gas",
                        "value": 15000
                    }
                ],
                "depth": -2,
                "name": "Total Gas",
                "value": 80700
            }
        ],
        "isConfirmed": true,
        "mainTrace": [
            {
                "children": [
                    {
                        "children": [
                            {
                                "children": [],
                                "depth": 1,
                                "id": 1,
                                "order": 1
                            },
                            {
                                "children": [
                                    {
                                        "children": [],
                                        "depth": 2,
                                        "id": 3,
                                        "order": 3
                                    },
                                    {
                                        "children": [],
                                        "depth": 2,
                                        "id": 4,
                                        "order": 4
                                    },
                                    {
                                        "children": [],
                                        "depth": 2,
                                        "id": 5,
                                        "order": 5
                                    },
                                    {
                                        "children": [],
                                        "depth": 2,
                                        "id": 6,
                                        "order": 6
                                    },
                                    {
                                        "children": [],
                                        "depth": 2,
                                        "id": 7,
                                        "order": 7
                                    },
                                    {
                                        "children": [],
                                        "depth": 2,
                                        "id": 8,
                                        "order": 8
                                    },
                                    {
                                        "children": [
                                            {
                                                "children": [],
                                                "depth": 3,
                                                "id": 10,
                                                "order": 10
                                            }
                                        ],
                                        "depth": 2,
                                        "id": 9,
                                        "order": 9
                                    }
                                ],
                                "depth": 1,
                                "id": 2,
                                "order": 2
                            }
                        ],
                        "depth": 0,
                        "id": 0,
                        "order": 0
                    }
                ],
                "depth": -1,
                "id": -1,
                "order": -1
            }
        ],
        "mainTraceNodeCount": 11,
        "parentIdMap": {
            "0": -1,
            "1": 0,
            "10": 9,
            "2": 0,
            "3": 2,
            "4": 2,
            "5": 2,
            "6": 2,
            "7": 2,
            "8": 2,
            "9": 2
        },
        "tidyTrace": [
            {
                "children": [
                    {
                        "children": [
                            {
                                "children": [],
                                "depth": 1,
                                "id": 1,
                                "order": 1
                            },
                            {
                                "children": [
                                    {
                                        "children": [],
                                        "depth": 2,
                                        "id": 6,
                                        "order": 6
                                    },
                                    {
                                        "children": [],
                                        "depth": 2,
                                        "id": 8,
                                        "order": 8
                                    },
                                    {
                                        "children": [
                                            {
                                                "children": [],
                                                "depth": 3,
                                                "id": 10,
                                                "order": 10
                                            }
                                        ],
                                        "depth": 2,
                                        "id": 9,
                                        "order": 9
                                    }
                                ],
                                "depth": 1,
                                "id": 2,
                                "order": 2
                            }
                        ],
                        "depth": 0,
                        "id": 0,
                        "order": 0
                    }
                ],
                "depth": -1,
                "id": -1,
                "order": -1
            }
        ],
        "tidyTraceNodeCount": 7
    },
    "state_change": {
        "stateChanges": [
            {
                "address": "0x5b1b5fea1b99d83ad479df0c222f0492385381dd",
                "erc": "",
                "slots": [
                    {
                        "current": "0x0000000000000000000000000000000000000000000000000000000000000000",
                        "key": "0x6be9bc5d687e7f923c0e59aecfa81c5382ba37770135fd4fabbcc9b399595b9b",
                        "prev": "0x0000000000000000000000000000000000000000000000103dc8d35d9b54b400"
                    },
                    {
                        "current": "0x0000000000000000000000000000000000000000000000134e04227e057cf000",
                        "key": "0x87321293ac2a335857c7a5c5e4cc72c0127fad59ae827614d5e38475c473bbd1",
                        "prev": "0x000000000000000000000000000000000000000000000003103b4f206a283c00"
                    }
                ],
                "storageVariables": [
                    {
                        "name": "balanceOf",
                        "type": "mapping(address => uint256)",
                        "value": {
                            "pairs": [
                                {
                                    "key": "0x32e9dc9968fab4c4528165cd37b613dd5d229650",
                                    "value": {
                                        "current": "356109793560000000000",
                                        "prev": "56509847750000000000",
                                        "typeTag": 1
                                    }
                                },
                                {
                                    "key": "0xd165f0e6be2bbd7a9fc8b5f6f69d4a6b57c97885",
                                    "value": {
                                        "current": "0",
                                        "prev": "299599945810000000000",
                                        "typeTag": 1
                                    }
                                }
                            ],
                            "typeTag": 4
                        }
                    }
                ]
            },
            {
                "address": "0x97767d7d04fd0db0a1a2478dcd4ba85290556b48",
                "erc": "ERC-20",
                "slots": [
                    {
                        "current": "0x000000000000000000000000d165f0e6be2bbd7a9fc8b5f6f69d4a6b57c97885",
                        "key": "0x0000000000000000000000000000000000000000000000000000000000000004",
                        "prev": "0x000000000000000000000000ef854c2c8d1f644ff761254d7ae911b6c965c850"
                    }
                ],
                "storageVariables": [
                    {
                        "name": "messageSender",
                        "type": "address",
                        "value": {
                            "current": "0xd165f0e6be2bbd7a9fc8b5f6f69d4a6b57c97885",
                            "prev": "0xef854c2c8d1f644ff761254d7ae911b6c965c850",
                            "typeTag": 1
                        }
                    }
                ]
            }
        ]
    }
}