{
    "balance_change": {
        "balanceChanges": [
            {
                "account": "0x0b333270875bce086bf1d1cee699aa043bddd302",
                "assets": [
                    {
                        "address": "0x8713d26637cf49e1b6b4a7ce57106aabc9325343",
                        "amount": "1,200",
                        "iconUrl": "https://assets.blocksec.com/icon/e5d484b8facdab4e05258bbb6b390747b1eca68e6b107111054338cb6c02e7df.png",
                        "isERC1155": false,
                        "isERC721": false,
                        "sign": false,
                        "value": ""
                    }
                ]
            },
            {
                "account": "0xe9eb04adf0e5539f53f0801779c353034d81081c",
                "assets": [
                    {
                        "address": "0x8713d26637cf49e1b6b4a7ce57106aabc9325343",
                        "amount": "1,200",
                        "iconUrl": "https://assets.blocksec.com/icon/e5d484b8facdab4e05258bbb6b390747b1eca68e6b107111054338cb6c02e7df.png",
                        "isERC1155": false,
                        "isERC721": false,
                        "sign": true,
                        "value": ""
                    }
                ]
            }
        ]
    },
    "profile": {
        "basic_info": {
            "baseFee": "",
            "blockNumber": 5700416,
            "callData": "0xa9059cbb000000000000000000000000e9eb04adf0e5539f53f0801779c353034d81081c0000000000000000000000000000000000000000000000410d586a20a4c00000",
            "debugEnable": true,
            "errorInfo": "",
            "eventCount": 1,
            "feeRecipient": "0xb6b12f9f4ed7c57be24b08f69155e7862865dc20",
            "formatValue": "0",
            "gasLimit": 60000,
            "gasPrice": "15",
            "gasUsed": 53469,
            "intTxnCount": 0,
            "internalRevert": false,
            "internalRevertMessage": "",
            "isContractCreation": false,
            "isFlashloan": false,
            "maxFee": "",
            "nonce": 610,
            "overwritedBlockNumber": -1,
            "priorityFee": "",
            "receiver": "0x8713d26637cf49e1b6b4a7ce57106aabc9325343",
            "revertMessage": "",
            "sender": "0x0b333270875bce086bf1d1cee699aa043bddd302",
            "simulationEnable": true,
            "sourceTxnHash": "0x3964b4c5fc1b04000cb70dc22e4e8cf4629065e8825c8618130085fc2a021c43",
            "status": true,
            "timestamp": "2018-05-30T03:00:35Z",
            "transactionFee": "0.000802035",
            "txnHash": "0x3964b4c5fc1b04000cb70dc22e4e8cf4629065e8825c8618130085fc2a021c43",
            "txnIndex": 58,
            "type": 0,
            "value": "0"
        },
        "fund_flow": [
            {
                "amount": "1,200",
                "from": "0x0b333270875bce086bf1d1cee699aa043bddd302",
                "id": 1,
                "isERC1155": false,
                "isERC721": false,
                "isReverted": false,
                "order": 1,
                "to": "0xe9eb04adf0e5539f53f0801779c353034d81081c",
                "token": "0x8713d26637cf49e1b6b4a7ce57106aabc9325343"
            }
        ],
        "token_infos": [
            {
                "address": "0xc02aaa39b223fe8d0a0e5c4f27ead9083c756cc2",
                "decimals": 18
            },
            {
                "address": "0xeeeeeeeeeeeeeeeeeeeeeeeeeeeeeeeeeeeeeeee",
                "decimals": 18
            },
            {
                "address": "0x8713d26637cf49e1b6b4a7ce57106aabc9325343",
                "decimals": 18
            }
        ]
    },
    "address_label": {
        "labels": [
            {
                "address": "0x0000000000000000000000000000000000000001",
                "label": "Precompiled"
            },
            {
                "address": "0x0000000000000000000000000000000000000002",
                "label": "Precompiled"
            },
            {
                "address": "0x0000000000000000000000000000000000000003",
                "label": "Precompiled"
            },
            {
                "address": "0x0000000000000000000000000000000000000004",
                "label": "Precompiled"
            },
            {
                "address": "0xeeeeeeeeeeeeeeeeeeeeeeeeeeeeeeeeeeeeeeee",
                "label": "Ether"
            },
            {
                "address": "0xe9eb04adf0e5539f53f0801779c353034d81081c",
                "label": "HUOBI"
            },
            {
                "address": "0x8713d26637cf49e1b6b4a7ce57106aabc9325343",
                "label": "Content Neutrality Network: CNN Token"
            }
        ]
    },
    "trace": {
        "accountLabels": null,
        "dataMap": {
            "-1": {
                "invocation": {
                    "address": "0x0b333270875bce086bf1d1cee699aa043bddd302",
                    "callData": "",
                    "decodedMethod": null,
                    "errorInfo": "",
                    "fromAddress": "",
                    "gasUsed": 0,
                    "id": -1,
                    "methodDecoded": false,
                    "operation": "",
                    "output": "",
                    "revert": false,
                    "revertMessage": "",
                    "selector": "",
                    "status": false,
                    "value": ""
                },
                "nodeType": 0
            },
            "0": {
                "invocation": {
                    "address": "0x8713d26637cf49e1b6b4a7ce57106aabc9325343",
                    "callData": "0x000000000000000000000000e9eb04adf0e5539f53f0801779c353034d81081c0000000000000000000000000000000000000000000000410d586a20a4c00000",
                    "decodedMethod": {
                        "callParams": [
                            {
                                "name": "_to",
                                "type": "address",
                                "value": "0xe9eb04adf0e5539f53f0801779c353034d81081c"
                            },
                            {
                                "decimalAvailable": true,
                                "name": "_value",
                                "type": "uint256",
                                "value": "1,200,000,000,000,000,000,000"
                            }
                        ],
                        "constructorArguments": "",
                        "name": "transfer",
                        "returnParams": [
                            {
                                "name": "",
                                "type": "bool",
                                "value": true
                            }
                        ],
                        "signature": "transfer(address,uint256)"
                    },
                    "errorInfo": "",
                    "fromAddress": "0x0b333270875bce086bf1d1cee699aa043bddd302",
                    "gasUsed": 53469,
                    "id": 0,
                    "methodDecoded": true,
                    "operation": "CALL",
                    "output": "0x0000000000000000000000000000000000000000000000000000000000000001",
                    "revert": false,
                    "revertMessage": "",
                    "selector": "0xa9059cbb",
                    "status": true,
                    "value": "0"
                },
                "nodeType": 0
            },
            "1": {
                "event": {
                    "contract": "0x8713d26637cf49e1b6b4a7ce57106aabc9325343",
                    "decodedLog": {
                        "name": "Transfer",
                        "params": [
                            {
                                "name": "_from",
                                "type": "address",
                                "value": "0x0b333270875bce086bf1d1cee699aa043bddd302"
                            },
                            {
                                "name": "_to",
                                "type": "address",
                                "value": "0xe9eb04adf0e5539f53f0801779c353034d81081c"
                            },
                            {
                                "decimalAvailable": true,
                                "name": "_value",
                                "type": "uint256",
                                "value": "1,200,000,000,000,000,000,000"
                            }
                        ],
                        "signature": "Transfer(address,address,uint256)"
                    },
                    "id": 1,
                    "logData": "0x0000000000000000000000000000000000000000000000410d586a20a4c00000",
                    "logDecoded": true,
                    "operation": "EVENT",
                    "revert": false,
                    "status": true,
                    "topics": [
                        "0xddf252ad1be2c89b69c2b068fc378daa952ba7f163c4a11628f55a4df523b3ef",
                        "0x0000000000000000000000000b333270875bce086bf1d1cee699aa043bddd302",
                        "0x000000000000000000000000e9eb04adf0e5539f53f0801779c353034d81081c"
                    ]
                },
                "nodeType": 1
            }
        },
        "gasFlame": [
            {
                "children": [
                    {
                        "children": [
                            {
                                "children": [],
                                "depth": 0,
                                "name": "Initial Gas",
                                "value": 23256
                            },
                            {
                                "children": [],
                                "depth": 0,
                                "name": "Executed Gas",
                                "value": 30213
                            }
                        ],
                        "depth": -1,
                        "name": "Actual Gas Used",
                        "value": 53469
                    },
                    {
                        "children": [],
                        "depth": -1,
                        "name": "Refunded Gas",
                        "value": 0
                    }
                ],
                "depth": -2,
                "name": "Total Gas",
                "value": 53469
            }
        ],
        "isConfirmed": true,
        "mainTrace": [
            {
                "children": [
                    {
                        "children": [
                            {
                                "children": [],
                                "depth": 1,
                                "id": 1,
                                "order": 1
                            }
                        ],
                        "depth": 0,
                        "id": 0,
                        "order": 0
                    }
                ],
                "depth": -1,
                "id": -1,
                "order": -1
            }
        ],
        "mainTraceNodeCount": 2,
        "parentIdMap": {
            "0": -1,
            "1": 0
        },
        "tidyTrace": [
            {
                "children": [
                    {
                        "children": [
                            {
                                "children": [],
                                "depth": 1,
                                "id": 1,
                                "order": 1
                            }
                        ],
                        "depth": 0,
                        "id": 0,
                        "order": 0
                    }
                ],
                "depth": -1,
                "id": -1,
                "order": -1
            }
        ],
        "tidyTraceNodeCount": 2
    },
    "state_change": {
        "stateChanges": [
            {
                "address": "0x8713d26637cf49e1b6b4a7ce57106aabc9325343",
                "erc": "ERC-20",
                "slots": [
                    {
                        "current": "0x000000000000000000000000000000000000000000007c6ddc1da9c5cb400000",
                        "key": "0x6a21386817e6f7404655118611a5b52486a93e9ad903e006a03a095545e275e8",
                        "prev": "0x000000000000000000000000000000000000000000007caee97613e670000000"
                    },
                    {
                        "current": "0x0000000000000000000000000000000000000000000000410d586a20a4c00000",
                        "key": "0x701b933778d308deac45794cbfdd532acb10ed7deebc1fa1bf2b68f0514aacba",
                        "prev": "0x0000000000000000000000000000000000000000000000000000000000000000"
                    }
                ],
                "storageVariables": [
                    {
                        "name": "balances",
                        "type": "mapping(address => uint256)",
                        "value": {
                            "pairs": [
                                {
                                    "key": "0x0b333270875bce086bf1d1cee699aa043bddd302",
                                    "value": {
                                        "current": "587600000000000000000000",
                                        "prev": "588800000000000000000000",
                                        "typeTag": 1
                                    }
                                },
                                {
                                    "key": "0xe9eb04adf0e5539f53f0801779c353034d81081c",
                                    "value": {
                                        "current": "1200000000000000000000",
                                        "prev": "0",
                                        "typeTag": 1
                                    }
                                }
                            ],
                            "typeTag": 4
                        }
                    }
                ]
            }
        ]
    }
}