{
    "balance_change": {
        "balanceChanges": [
            {
                "account": "0x39788f3e4a5754180411ab21e6b11e499b647cba",
                "assets": [
                    {
                        "address": "0x9d3e0892d11f19f5181d4a4c5d04187a9e0d7032",
                        "amount": "95,000",
                        "iconUrl": "",
                        "isERC1155": false,
                        "isERC721": false,
                        "sign": false,
                        "value": ""
                    }
                ]
            },
            {
                "account": "0x55290bd681f43996900d550cfb3c188432e887b7",
                "assets": [
                    {
                        "address": "0x9d3e0892d11f19f5181d4a4c5d04187a9e0d7032",
                        "amount": "95,000",
                        "iconUrl": "",
                        "isERC1155": false,
                        "isERC721": false,
                        "sign": true,
                        "value": ""
                    }
                ]
            }
        ]
    },
    "profile": {
        "basic_info": {
            "baseFee": "",
            "blockNumber": 9905885,
            "callData": "0xa9059cbb00000000000000000000000055290bd681f43996900d550cfb3c188432e887b700000000000000000000000000000000000000000000141df5d77c6d9d600000",
            "debugEnable": true,
            "errorInfo": "",
            "eventCount": 1,
            "feeRecipient": "0x5a0b54d5dc17e0aadc383d2db43b0a0d3e029c4c",
            "formatValue": "0",
            "gasLimit": 77074,
            "gasPrice": "2.2",
            "gasUsed": 36383,
            "intTxnCount": 0,
            "internalRevert": false,
            "internalRevertMessage": "",
            "isContractCreation": false,
            "isFlashloan": false,
            "maxFee": "",
            "nonce": 196,
            "overwritedBlockNumber": -1,
            "priorityFee": "",
            "receiver": "0x9d3e0892d11f19f5181d4a4c5d04187a9e0d7032",
            "revertMessage": "",
            "sender": "0x39788f3e4a5754180411ab21e6b11e499b647cba",
            "simulationEnable": true,
            "sourceTxnHash": "0x39ca9bfc0846d1c3d8464f27a4828977d45e0e121e2661e36051ede526b28a91",
            "status": true,
            "timestamp": "2020-04-19T23:42:55Z",
            "transactionFee": "0.0000800426",
            "txnHash": "0x39ca9bfc0846d1c3d8464f27a4828977d45e0e121e2661e36051ede526b28a91",
            "txnIndex": 51,
            "type": 0,
            "value": "0"
        },
        "fund_flow": [
            {
                "amount": "95,000",
                "from": "0x39788f3e4a5754180411ab21e6b11e499b647cba",
                "id": 1,
                "isERC1155": false,
                "isERC721": false,
                "isReverted": false,
                "order": 1,
                "to": "0x55290bd681f43996900d550cfb3c188432e887b7",
                "token": "0x9d3e0892d11f19f5181d4a4c5d04187a9e0d7032"
            }
        ],
        "token_infos": [
            {
                "address": "0x9d3e0892d11f19f5181d4a4c5d04187a9e0d7032",
                "decimals": 18
            },
            {
                "address": "0xc02aaa39b223fe8d0a0e5c4f27ead9083c756cc2",
                "decimals": 18
            },
            {
                "address": "0xeeeeeeeeeeeeeeeeeeeeeeeeeeeeeeeeeeeeeeee",
                "decimals": 18
            }
        ]
    },
    "address_label": {
        "labels": [
            {
                "address": "0xeeeeeeeeeeeeeeeeeeeeeeeeeeeeeeeeeeeeeeee",
                "label": "Ether"
            },
            {
                "address": "0x55290bd681f43996900d550cfb3c188432e887b7",
                "label": "HOTBIT"
            },
            {
                "address": "0x9d3e0892d11f19f5181d4a4c5d04187a9e0d7032",
                "label": "UOMO RICCO: DRGB Token"
            },
            {
                "address": "0x0000000000000000000000000000000000000001",
                "label": "Precompiled"
            },
            {
                "address": "0x0000000000000000000000000000000000000002",
                "label": "Precompiled"
            },
            {
                "address": "0x0000000000000000000000000000000000000003",
                "label": "Precompiled"
            },
            {
                "address": "0x0000000000000000000000000000000000000004",
                "label": "Precompiled"
            }
        ]
    },
    "trace": {
        "accountLabels": null,
        "dataMap": {
            "-1": {
                "invocation": {
                    "address": "0x39788f3e4a5754180411ab21e6b11e499b647cba",
                    "callData": "",
                    "decodedMethod": null,
                    "errorInfo": "",
                    "fromAddress": "",
                    "gasUsed": 0,
                    "id": -1,
                    "methodDecoded": false,
                    "operation": "",
                    "output": "",
                    "revert": false,
                    "revertMessage": "",
                    "selector": "",
                    "status": false,
                    "value": ""
                },
                "nodeType": 0
            },
            "0": {
                "invocation": {
                    "address": "0x9d3e0892d11f19f5181d4a4c5d04187a9e0d7032",
                    "callData": "0x00000000000000000000000055290bd681f43996900d550cfb3c188432e887b700000000000000000000000000000000000000000000141df5d77c6d9d600000",
                    "decodedMethod": {
                        "callParams": [
                            {
                                "name": "recipient",
                                "type": "address",
                                "value": "0x55290bd681f43996900d550cfb3c188432e887b7"
                            },
                            {
                                "decimalAvailable": true,
                                "name": "amount",
                                "type": "uint256",
                                "value": "95,000,000,000,000,000,000,000"
                            }
                        ],
                        "constructorArguments": "",
                        "name": "transfer",
                        "returnParams": [
                            {
                                "name": "",
                                "type": "bool",
                                "value": true
                            }
                        ],
                        "signature": "transfer(address,uint256)"
                    },
                    "errorInfo": "",
                    "fromAddress": "0x39788f3e4a5754180411ab21e6b11e499b647cba",
                    "gasUsed": 36383,
                    "id": 0,
                    "methodDecoded": true,
                    "operation": "CALL",
                    "output": "0x0000000000000000000000000000000000000000000000000000000000000001",
                    "revert": false,
                    "revertMessage": "",
                    "selector": "0xa9059cbb",
                    "status": true,
                    "value": "0"
                },
                "nodeType": 0
            },
            "1": {
                "event": {
                    "contract": "0x9d3e0892d11f19f5181d4a4c5d04187a9e0d7032",
                    "decodedLog": {
                        "name": "Transfer",
                        "params": [
                            {
                                "name": "from",
                                "type": "address",
                                "value": "0x39788f3e4a5754180411ab21e6b11e499b647cba"
                            },
                            {
                                "name": "to",
                                "type": "address",
                                "value": "0x55290bd681f43996900d550cfb3c188432e887b7"
                            },
                            {
                                "decimalAvailable": true,
                                "name": "value",
                                "type": "uint256",
                                "value": "95,000,000,000,000,000,000,000"
                            }
                        ],
                        "signature": "Transfer(address,address,uint256)"
                    },
                    "id": 1,
                    "logData": "0x00000000000000000000000000000000000000000000141df5d77c6d9d600000",
                    "logDecoded": true,
                    "operation": "EVENT",
                    "revert": false,
                    "status": true,
                    "topics": [
                        "0xddf252ad1be2c89b69c2b068fc378daa952ba7f163c4a11628f55a4df523b3ef",
                        "0x00000000000000000000000039788f3e4a5754180411ab21e6b11e499b647cba",
                        "0x00000000000000000000000055290bd681f43996900d550cfb3c188432e887b7"
                    ]
                },
                "nodeType": 1
            }
        },
        "gasFlame": [
            {
                "children": [
                    {
                        "children": [
                            {
                                "children": [],
                                "depth": 0,
                                "name": "Initial Gas",
                                "value": 21656
                            },
                            {
                                "children": [],
                                "depth": 0,
                                "name": "Executed Gas",
                                "value": 14727
                            }
                        ],
                        "depth": -1,
                        "name": "Actual Gas Used",
                        "value": 36383
                    },
                    {
                        "children": [],
                        "depth": -1,
                        "name": "Refunded Gas",
                        "value": 0
                    }
                ],
                "depth": -2,
                "name": "Total Gas",
                "value": 36383
            }
        ],
        "isConfirmed": true,
        "mainTrace": [
            {
                "children": [
                    {
                        "children": [
                            {
                                "children": [],
                                "depth": 1,
                                "id": 1,
                                "order": 1
                            }
                        ],
                        "depth": 0,
                        "id": 0,
                        "order": 0
                    }
                ],
                "depth": -1,
                "id": -1,
                "order": -1
            }
        ],
        "mainTraceNodeCount": 2,
        "parentIdMap": {
            "0": -1,
            "1": 0
        },
        "tidyTrace": [
            {
                "children": [
                    {
                        "children": [
                            {
                                "children": [],
                                "depth": 1,
                                "id": 1,
                                "order": 1
                            }
                        ],
                        "depth": 0,
                        "id": 0,
                        "order": 0
                    }
                ],
                "depth": -1,
                "id": -1,
                "order": -1
            }
        ],
        "tidyTraceNodeCount": 2
    },
    "state_change": {
        "stateChanges": [
            {
                "address": "0x9d3e0892d11f19f5181d4a4c5d04187a9e0d7032",
                "erc": "ERC-20",
                "slots": [
                    {
                        "current": "0x00000000000000000000000000000000000000000003bcae6dc215bc35a00000",
                        "key": "0x426fb0e1dcec7fee3aa78d2cb4686bf47b578f85e10b3344b09a01b82f7f599d",
                        "prev": "0x00000000000000000000000000000000000000000003d0cc63999229d3000000"
                    },
                    {
                        "current": "0x00000000000000000000000000000000000000000000224e099ff736e1400000",
                        "key": "0xc8ec2b4f34e91acabcddae7bba0c42cfbae2ca366cd89a6aed38515ff1bb9949",
                        "prev": "0x000000000000000000000000000000000000000000000e3013c87ac943e00000"
                    }
                ],
                "storageVariables": [
                    {
                        "name": "_balances",
                        "type": "mapping(address => uint256)",
                        "value": {
                            "pairs": [
                                {
                                    "key": "0x39788f3e4a5754180411ab21e6b11e499b647cba",
                                    "value": {
                                        "current": "4517800000000000000000000",
                                        "prev": "4612800000000000000000000",
                                        "typeTag": 1
                                    }
                                },
                                {
                                    "key": "0x55290bd681f43996900d550cfb3c188432e887b7",
                                    "value": {
                                        "current": "162000000000000000000000",
                                        "prev": "67000000000000000000000",
                                        "typeTag": 1
                                    }
                                }
                            ],
                            "typeTag": 4
                        }
                    }
                ]
            }
        ]
    }
}