{
    "balance_change": {
        "balanceChanges": [
            {
                "account": "0x82e07b2ec0411b91d0c8d64b12dd2eda875af648",
                "assets": [
                    {
                        "address": "0xeeeeeeeeeeeeeeeeeeeeeeeeeeeeeeeeeeeeeeee",
                        "amount": "0.104984",
                        "iconUrl": "https://assets.blocksec.com/image/1663669189317-3.png",
                        "isERC1155": false,
                        "isERC721": false,
                        "sign": false,
                        "value": ""
                    }
                ]
            },
            {
                "account": "0xdd9fd6b6f8f7ea932997992bbe67eabb3e316f3c",
                "assets": [
                    {
                        "address": "0xeeeeeeeeeeeeeeeeeeeeeeeeeeeeeeeeeeeeeeee",
                        "amount": "0.10078464",
                        "iconUrl": "https://assets.blocksec.com/image/1663669189317-3.png",
                        "isERC1155": false,
                        "isERC721": false,
                        "sign": true,
                        "value": ""
                    }
                ]
            },
            {
                "account": "0x79f77200c65076c5b8494899097cf9ccd01c8293",
                "assets": [
                    {
                        "address": "0xeeeeeeeeeeeeeeeeeeeeeeeeeeeeeeeeeeeeeeee",
                        "amount": "0.00209968",
                        "iconUrl": "https://assets.blocksec.com/image/1663669189317-3.png",
                        "isERC1155": false,
                        "isERC721": false,
                        "sign": true,
                        "value": ""
                    }
                ]
            },
            {
                "account": "0xd71cbd05fc1935b21753991ee9c83bf21404a739",
                "assets": [
                    {
                        "address": "0xeeeeeeeeeeeeeeeeeeeeeeeeeeeeeeeeeeeeeeee",
                        "amount": "0.00209968",
                        "iconUrl": "https://assets.blocksec.com/image/1663669189317-3.png",
                        "isERC1155": false,
                        "isERC721": false,
                        "sign": true,
                        "value": ""
                    }
                ]
            }
        ]
    },
    "profile": {
        "basic_info": {
            "baseFee": "",
            "blockNumber": 6121375,
            "callData": "0x8f38f309000000000000000000000000000000000000000000000000000000000000a9d70000000000000000000000000000000000000000000000000000000000000000",
            "debugEnable": true,
            "errorInfo": "",
            "eventCount": 2,
            "feeRecipient": "0xea674fdde714fd979de3edf0f56aa9716b898ec8",
            "formatValue": "0.104984",
            "gasLimit": 800000,
            "gasPrice": "60",
            "gasUsed": 179820,
            "intTxnCount": 2,
            "internalRevert": false,
            "internalRevertMessage": "",
            "isContractCreation": false,
            "isFlashloan": false,
            "maxFee": "",
            "nonce": 3,
            "overwritedBlockNumber": -1,
            "priorityFee": "",
            "receiver": "0xdd9fd6b6f8f7ea932997992bbe67eabb3e316f3c",
            "revertMessage": "",
            "sender": "0x82e07b2ec0411b91d0c8d64b12dd2eda875af648",
            "simulationEnable": true,
            "sourceTxnHash": "0x3a8251a4e3b2fd4a4cb3e27272438b101e57cf8afe846f78f4ec1b2ad07be51c",
            "status": true,
            "timestamp": "2018-08-10T08:48:59Z",
            "transactionFee": "0.0107892",
            "txnHash": "0x3a8251a4e3b2fd4a4cb3e27272438b101e57cf8afe846f78f4ec1b2ad07be51c",
            "txnIndex": 41,
            "type": 0,
            "value": "104984000000000000"
        },
        "fund_flow": [
            {
                "amount": "0.104984",
                "from": "0x82e07b2ec0411b91d0c8d64b12dd2eda875af648",
                "id": 1,
                "isERC1155": false,
                "isERC721": false,
                "isReverted": false,
                "order": 1,
                "to": "0xdd9fd6b6f8f7ea932997992bbe67eabb3e316f3c",
                "token": "0xeeeeeeeeeeeeeeeeeeeeeeeeeeeeeeeeeeeeeeee"
            },
            {
                "amount": "0.00209968",
                "from": "0xdd9fd6b6f8f7ea932997992bbe67eabb3e316f3c",
                "id": 2,
                "isERC1155": false,
                "isERC721": false,
                "isReverted": false,
                "order": 2,
                "to": "0xd71cbd05fc1935b21753991ee9c83bf21404a739",
                "token": "0xeeeeeeeeeeeeeeeeeeeeeeeeeeeeeeeeeeeeeeee"
            },
            {
                "amount": "0.00209968",
                "from": "0xdd9fd6b6f8f7ea932997992bbe67eabb3e316f3c",
                "id": 3,
                "isERC1155": false,
                "isERC721": false,
                "isReverted": false,
                "order": 3,
                "to": "0x79f77200c65076c5b8494899097cf9ccd01c8293",
                "token": "0xeeeeeeeeeeeeeeeeeeeeeeeeeeeeeeeeeeeeeeee"
            }
        ],
        "token_infos": [
            {
                "address": "0xc02aaa39b223fe8d0a0e5c4f27ead9083c756cc2",
                "decimals": 18
            },
            {
                "address": "0xeeeeeeeeeeeeeeeeeeeeeeeeeeeeeeeeeeeeeeee",
                "decimals": 18
            }
        ]
    },
    "address_label": {
        "labels": [
            {
                "address": "0xeeeeeeeeeeeeeeeeeeeeeeeeeeeeeeeeeeeeeeee",
                "label": "Ether"
            },
            {
                "address": "0x0000000000000000000000000000000000000001",
                "label": "Precompiled"
            },
            {
                "address": "0x0000000000000000000000000000000000000002",
                "label": "Precompiled"
            },
            {
                "address": "0x0000000000000000000000000000000000000003",
                "label": "Precompiled"
            },
            {
                "address": "0x0000000000000000000000000000000000000004",
                "label": "Precompiled"
            }
        ]
    },
    "trace": {
        "accountLabels": null,
        "dataMap": {
            "-1": {
                "invocation": {
                    "address": "0x82e07b2ec0411b91d0c8d64b12dd2eda875af648",
                    "callData": "",
                    "decodedMethod": null,
                    "errorInfo": "",
                    "fromAddress": "",
                    "gasUsed": 0,
                    "id": -1,
                    "methodDecoded": false,
                    "operation": "",
                    "output": "",
                    "revert": false,
                    "revertMessage": "",
                    "selector": "",
                    "status": false,
                    "value": ""
                },
                "nodeType": 0
            },
            "0": {
                "invocation": {
                    "address": "0xdd9fd6b6f8f7ea932997992bbe67eabb3e316f3c",
                    "callData": "0x000000000000000000000000000000000000000000000000000000000000a9d70000000000000000000000000000000000000000000000000000000000000000",
                    "decodedMethod": {
                        "callParams": [
                            {
                                "name": "_affCode",
                                "type": "uint256",
                                "value": "43,479"
                            },
                            {
                                "name": "_team",
                                "type": "uint256",
                                "value": "0"
                            }
                        ],
                        "constructorArguments": "",
                        "name": "buyXid",
                        "returnParams": [],
                        "signature": "buyXid(uint256,uint256)"
                    },
                    "errorInfo": "",
                    "fromAddress": "0x82e07b2ec0411b91d0c8d64b12dd2eda875af648",
                    "gasUsed": 179820,
                    "id": 0,
                    "methodDecoded": true,
                    "operation": "CALL",
                    "output": "",
                    "revert": false,
                    "revertMessage": "",
                    "selector": "0x8f38f309",
                    "status": true,
                    "value": "0.104984"
                },
                "nodeType": 0
            },
            "1": {
                "invocation": {
                    "address": "0xd71cbd05fc1935b21753991ee9c83bf21404a739",
                    "callData": "0x",
                    "decodedMethod": null,
                    "errorInfo": "",
                    "fromAddress": "0xdd9fd6b6f8f7ea932997992bbe67eabb3e316f3c",
                    "gasUsed": 0,
                    "id": 1,
                    "methodDecoded": false,
                    "operation": "CALL",
                    "output": "",
                    "revert": false,
                    "revertMessage": "",
                    "selector": "fallback",
                    "status": true,
                    "value": "0.00209968"
                },
                "nodeType": 0
            },
            "2": {
                "invocation": {
                    "address": "0x79f77200c65076c5b8494899097cf9ccd01c8293",
                    "callData": "0x",
                    "decodedMethod": null,
                    "errorInfo": "",
                    "fromAddress": "0xdd9fd6b6f8f7ea932997992bbe67eabb3e316f3c",
                    "gasUsed": 0,
                    "id": 2,
                    "methodDecoded": false,
                    "operation": "CALL",
                    "output": "",
                    "revert": false,
                    "revertMessage": "",
                    "selector": "fallback",
                    "status": true,
                    "value": "0.00209968"
                },
                "nodeType": 0
            },
            "3": {
                "event": {
                    "contract": "0xdd9fd6b6f8f7ea932997992bbe67eabb3e316f3c",
                    "decodedLog": {
                        "name": "onAffiliatePayout",
                        "params": [
                            {
                                "name": "affiliateID",
                                "type": "uint256",
                                "value": "43,479"
                            },
                            {
                                "name": "roundID",
                                "type": "uint256",
                                "value": "1"
                            },
                            {
                                "name": "buyerID",
                                "type": "uint256",
                                "value": "77,822"
                            },
                            {
                                "name": "affiliateAddress",
                                "type": "address",
                                "value": "0xda058a7d38b9e5143c6707fbc4e1b4612012f89e"
                            },
                            {
                                "name": "affiliateName",
                                "type": "bytes32",
                                "value": "0x656971666c6a6766766e6d7a666c743135333338363634323835363300000000"
                            },
                            {
                                "name": "amount",
                                "type": "uint256",
                                "value": "10,498,400,000,000,000"
                            },
                            {
                                "name": "timeStamp",
                                "type": "uint256",
                                "value": "1,533,890,939"
                            }
                        ],
                        "signature": "onAffiliatePayout(uint256,address,bytes32,uint256,uint256,uint256,uint256)"
                    },
                    "id": 3,
                    "logData": "0x000000000000000000000000da058a7d38b9e5143c6707fbc4e1b4612012f89e656971666c6a6766766e6d7a666c74313533333836363432383536330000000000000000000000000000000000000000000000000000000000254c3d3ab5c000000000000000000000000000000000000000000000000000000000005b6d517b",
                    "logDecoded": true,
                    "operation": "EVENT",
                    "revert": false,
                    "status": true,
                    "topics": [
                        "0x590bbc0fc16915a85269a48f74783c39842b7ae9eceb7c295c95dbe8b3ec7331",
                        "0x000000000000000000000000000000000000000000000000000000000000a9d7",
                        "0x0000000000000000000000000000000000000000000000000000000000000001",
                        "0x0000000000000000000000000000000000000000000000000000000000012ffe"
                    ]
                },
                "nodeType": 1
            },
            "4": {
                "event": {
                    "contract": "0xdd9fd6b6f8f7ea932997992bbe67eabb3e316f3c",
                    "decodedLog": {
                        "name": "onEndTx",
                        "params": [
                            {
                                "name": "compressedData",
                                "type": "uint256",
                                "value": "1,533,890,939,000,000,000,000,020,100"
                            },
                            {
                                "name": "compressedIDs",
                                "type": "uint256",
                                "value": "10,000,000,000,000,000,000,000,000,000,000,000,000,000,000,000,077,822"
                            },
                            {
                                "name": "playerName",
                                "type": "bytes32",
                                "value": "0x746771626c7a7a6b7865626a6d617a3135333338393038353039333000000000"
                            },
                            {
                                "name": "playerAddress",
                                "type": "address",
                                "value": "0x82e07b2ec0411b91d0c8d64b12dd2eda875af648"
                            },
                            {
                                "name": "ethIn",
                                "type": "uint256",
                                "value": "104,984,000,000,000,000"
                            },
                            {
                                "name": "keysBought",
                                "type": "uint256",
                                "value": "18,999,621,966,241,042,921"
                            },
                            {
                                "name": "winnerAddr",
                                "type": "address",
                                "value": "0x0000000000000000000000000000000000000000"
                            },
                            {
                                "name": "winnerName",
                                "type": "bytes32",
                                "value": "0x0000000000000000000000000000000000000000000000000000000000000000"
                            },
                            {
                                "name": "amountWon",
                                "type": "uint256",
                                "value": "0"
                            },
                            {
                                "name": "newPot",
                                "type": "uint256",
                                "value": "0"
                            },
                            {
                                "name": "P3DAmount",
                                "type": "uint256",
                                "value": "0"
                            },
                            {
                                "name": "genAmount",
                                "type": "uint256",
                                "value": "66,139,919,992,327,320"
                            },
                            {
                                "name": "potAmount",
                                "type": "uint256",
                                "value": "10,498,400,000,000,000"
                            },
                            {
                                "name": "airDropPot",
                                "type": "uint256",
                                "value": "1,197,505,198,227,157,881"
                            }
                        ],
                        "signature": "onEndTx(uint256,uint256,bytes32,address,uint256,uint256,address,bytes32,uint256,uint256,uint256,uint256,uint256,uint256)"
                    },
                    "id": 4,
                    "logData": "0x000000000000000000000000000000000000000004f4ce0a6bc571dc110c4e84000000000000000000001aba4714957d300d0e549208b31adb10000000012ffe746771626c7a7a6b7865626a6d617a313533333839303835303933300000000000000000000000000000000082e07b2ec0411b91d0c8d64b12dd2eda875af6480000000000000000000000000000000000000000000000000174fa644b19800000000000000000000000000000000000000000000000000107ac3783948191e90000000000000000000000000000000000000000000000000000000000000000000000000000000000000000000000000000000000000000000000000000000000000000000000000000000000000000000000000000000000000000000000000000000000000000000000000000000000000000000000000000000000000000000000000000000000000000000000000000000000000000000000000000000000000000000000000000000000000000000000000000000000eaf9e8249d8c9800000000000000000000000000000000000000000000000000254c3d3ab5c000000000000000000000000000000000000000000000000000109e64a215037379",
                    "logDecoded": true,
                    "operation": "EVENT",
                    "revert": false,
                    "status": true,
                    "topics": [
                        "0x500e72a0e114930aebdbcb371ccdbf43922c49f979794b5de4257ff7e310c746"
                    ]
                },
                "nodeType": 1
            }
        },
        "gasFlame": [
            {
                "children": [
                    {
                        "children": [
                            {
                                "children": [],
                                "depth": 0,
                                "name": "Initial Gas",
                                "value": 21656
                            },
                            {
                                "children": [
                                    {
                                        "children": [],
                                        "depth": 1,
                                        "name": "fallback",
                                        "value": 0
                                    },
                                    {
                                        "children": [],
                                        "depth": 1,
                                        "name": "fallback",
                                        "value": 0
                                    }
                                ],
                                "depth": 0,
                                "name": "Executed Gas",
                                "value": 173164
                            }
                        ],
                        "depth": -1,
                        "name": "Actual Gas Used",
                        "value": 179820
                    },
                    {
                        "children": [],
                        "depth": -1,
                        "name": "Refunded Gas",
                        "value": 15000
                    }
                ],
                "depth": -2,
                "name": "Total Gas",
                "value": 194820
            }
        ],
        "isConfirmed": true,
        "mainTrace": [
            {
                "children": [
                    {
                        "children": [
                            {
                                "children": [],
                                "depth": 1,
                                "id": 1,
                                "order": 1
                            },
                            {
                                "children": [],
                                "depth": 1,
                                "id": 2,
                                "order": 2
                            },
                            {
                                "children": [],
                                "depth": 1,
                                "id": 3,
                                "order": 3
                            },
                            {
                                "children": [],
                                "depth": 1,
                                "id": 4,
                                "order": 4
                            }
                        ],
                        "depth": 0,
                        "id": 0,
                        "order": 0
                    }
                ],
                "depth": -1,
                "id": -1,
                "order": -1
            }
        ],
        "mainTraceNodeCount": 5,
        "parentIdMap": {
            "0": -1,
            "1": 0,
            "2": 0,
            "3": 0,
            "4": 0
        },
        "tidyTrace": [
            {
                "children": [
                    {
                        "children": [
                            {
                                "children": [],
                                "depth": 1,
                                "id": 1,
                                "order": 1
                            },
                            {
                                "children": [],
                                "depth": 1,
                                "id": 2,
                                "order": 2
                            },
                            {
                                "children": [],
                                "depth": 1,
                                "id": 3,
                                "order": 3
                            },
                            {
                                "children": [],
                                "depth": 1,
                                "id": 4,
                                "order": 4
                            }
                        ],
                        "depth": 0,
                        "id": 0,
                        "order": 0
                    }
                ],
                "depth": -1,
                "id": -1,
                "order": -1
            }
        ],
        "tidyTraceNodeCount": 5
    },
    "state_change": {
        "stateChanges": [
            {
                "address": "0xdd9fd6b6f8f7ea932997992bbe67eabb3e316f3c",
                "erc": "",
                "slots": [
                    {
                        "current": "0x0000000000000000000000000000000000000000000000000000000000000014",
                        "key": "0x0000000000000000000000000000000000000000000000000000000000000006",
                        "prev": "0x000000000000000000000000000000000000000000000000000000000000000f"
                    },
                    {
                        "current": "0x0000000000000000000000000000000000000000000014af7f686256e110562f",
                        "key": "0xfd54ff1ed53f34a900b24c5ba64f85761163b5d82d98a47b9bd80e45466993cc",
                        "prev": "0x0000000000000000000000000000000000000000000014af7df367f295f6d62f"
                    },
                    {
                        "current": "0x00000000000000000000000000000000000000000000122bc973c2ce0b6e6a66",
                        "key": "0x14c59eed989372b13b9ffdad3c397c178450139af216ccc91acde49544dcd980",
                        "prev": "0x00000000000000000000000000000000000000000000122bc7fec869c054ea66"
                    },
                    {
                        "current": "0x0000000000000000000000000000000000000000000000000000000000000000",
                        "key": "0xfd54ff1ed53f34a900b24c5ba64f85761163b5d82d98a47b9bd80e45466993c6",
                        "prev": "0x0000000000000000000000000000000000000000000000000000000000000001"
                    },
                    {
                        "current": "0x000000000000000000000000000000000000000000000000002c7144f78a0000",
                        "key": "0xb6736fb554e16b20b591ed99c80e991fefc8e99485d867e40b416b58da91d706",
                        "prev": "0x000000000000000000000000000000000000000000000000002140cc32b9e000"
                    },
                    {
                        "current": "0x00000000000000000000000000000000000000000000000002cfe59a71270fec",
                        "key": "0x1634ce6acb415e1d4552af624e4450debaa21ac124b8ea81213fdda1b2c7f8de",
                        "prev": "0x00000000000000000000000000000000000000000000000001dfc0ff90a44a37"
                    },
                    {
                        "current": "0x00000000000000000000000082e07b2ec0411b91d0c8d64b12dd2eda875af648",
                        "key": "0xfd54ff1ed53f34a900b24c5ba64f85761163b5d82d98a47b9bd80e45466993c7",
                        "prev": "0x00000000000000000000000060a1ed870d27e21d40d5ea7b4f99893e300bfc99"
                    },
                    {
                        "current": "0x00000000000000000000000000000000000000000000000316fd930bccf814f4",
                        "key": "0x1634ce6acb415e1d4552af624e4450debaa21ac124b8ea81213fdda1b2c7f8dd",
                        "prev": "0x0000000000000000000000000000000000000000000000020f515b883876830b"
                    },
                    {
                        "current": "0x000000000000000000000000000000000000000000000000045e0829e586a000",
                        "key": "0x1634ce6acb415e1d4552af624e4450debaa21ac124b8ea81213fdda1b2c7f8dc",
                        "prev": "0x00000000000000000000000000000000000000000000000002e90dc59a6d2000"
                    },
                    {
                        "current": "0x000000000000000000000000000000000000000000000315b8c921040dd02e60",
                        "key": "0xfd54ff1ed53f34a900b24c5ba64f85761163b5d82d98a47b9bd80e45466993cd",
                        "prev": "0x000000000000000000000000000000000000000000000315b8a3d4c6d2a55af8"
                    },
                    {
                        "current": "0x000000000000000000000000000000000000000000000000109e64a215037379",
                        "key": "0x0000000000000000000000000000000000000000000000000000000000000005",
                        "prev": "0x00000000000000000000000000000000000000000000000010791864da4db379"
                    },
                    {
                        "current": "0x0000000000000000000000000000000000000000001cdaeb9dbdcbc98ce85000",
                        "key": "0xfd54ff1ed53f34a900b24c5ba64f85761163b5d82d98a47b9bd80e45466993cb",
                        "prev": "0x0000000000000000000000000000000000000000001cdaea96119445f866be17"
                    },
                    {
                        "current": "0x0000000000000000000000000000000000000000000000000000000000012ffe",
                        "key": "0xfd54ff1ed53f34a900b24c5ba64f85761163b5d82d98a47b9bd80e45466993c5",
                        "prev": "0x0000000000000000000000000000000000000000000000000000000000005ba4"
                    },
                    {
                        "current": "0x000000000000000000000000000000000000000000000000006fcd9dca271000",
                        "key": "0x5ec06be08114b71e5338a1a6670c6a566ab6a9579d1ea27bd9db19ba1e1e93be",
                        "prev": "0x000000000000000000000000000000000000000000000000004a81608f715000"
                    },
                    {
                        "current": "0x000000000000000000000000000000000000000000000000000ca3ad48c9fb34",
                        "key": "0xfd54ff1ed53f34a900b24c5ba64f85761163b5d82d98a47b9bd80e45466993ce",
                        "prev": "0x000000000000000000000000000000000000000000000000000ca3acd7c72b3b"
                    }
                ],
                "storageVariables": []
            }
        ]
    }
}