{
    "balance_change": {
        "balanceChanges": [
            {
                "account": "0xa1d8d972560c2f8144af871db508f0b0b10a3fbf",
                "assets": [
                    {
                        "address": "0x9534ad65fb398e27ac8f4251dae1780b989d136e",
                        "amount": "12.1318797",
                        "iconUrl": "",
                        "isERC1155": false,
                        "isERC721": false,
                        "sign": false,
                        "value": "272.8788997"
                    }
                ]
            },
            {
                "account": "0x1b161f193f7de291edc08e5eb394243c910a6c47",
                "assets": [
                    {
                        "address": "0x9534ad65fb398e27ac8f4251dae1780b989d136e",
                        "amount": "12.1318797",
                        "iconUrl": "",
                        "isERC1155": false,
                        "isERC721": false,
                        "sign": true,
                        "value": "272.8788997"
                    }
                ]
            }
        ]
    },
    "profile": {
        "basic_info": {
            "baseFee": "84.600823248",
            "blockNumber": 13752717,
            "callData": "0xa9059cbb0000000000000000000000001b161f193f7de291edc08e5eb394243c910a6c47000000000000000000000000000000000000000000000000a85d184f4845c800",
            "debugEnable": true,
            "errorInfo": "",
            "eventCount": 1,
            "feeRecipient": "0x7f101fe45e6649a6fb8f3f8b43ed03d353f2b90c",
            "formatValue": "0",
            "gasLimit": 127363,
            "gasPrice": "101.61234168",
            "gasUsed": 51818,
            "intTxnCount": 0,
            "internalRevert": false,
            "internalRevertMessage": "",
            "isContractCreation": false,
            "isFlashloan": false,
            "maxFee": "",
            "nonce": 1918852,
            "overwritedBlockNumber": -1,
            "priorityFee": "",
            "receiver": "0x9534ad65fb398e27ac8f4251dae1780b989d136e",
            "revertMessage": "",
            "sender": "0xa1d8d972560c2f8144af871db508f0b0b10a3fbf",
            "simulationEnable": true,
            "sourceTxnHash": "0x3afca6b87f2f138febd3ac68b21a7981dca9eddfcf74fc08ddc83d9cdf8ac7b2",
            "status": true,
            "timestamp": "2021-12-06T14:03:36Z",
            "transactionFee": "0.00526534832117424",
            "txnHash": "0x3afca6b87f2f138febd3ac68b21a7981dca9eddfcf74fc08ddc83d9cdf8ac7b2",
            "txnIndex": 110,
            "type": 0,
            "value": "0"
        },
        "fund_flow": [
            {
                "amount": "12.1318797",
                "from": "0xa1d8d972560c2f8144af871db508f0b0b10a3fbf",
                "id": 1,
                "isERC1155": false,
                "isERC721": false,
                "isReverted": false,
                "order": 1,
                "to": "0x1b161f193f7de291edc08e5eb394243c910a6c47",
                "token": "0x9534ad65fb398e27ac8f4251dae1780b989d136e"
            }
        ],
        "token_infos": [
            {
                "address": "0x9534ad65fb398e27ac8f4251dae1780b989d136e",
                "decimals": 18
            },
            {
                "address": "0xc02aaa39b223fe8d0a0e5c4f27ead9083c756cc2",
                "decimals": 18
            },
            {
                "address": "0xeeeeeeeeeeeeeeeeeeeeeeeeeeeeeeeeeeeeeeee",
                "decimals": 18
            }
        ]
    },
    "address_label": {
        "labels": [
            {
                "address": "0x0000000000000000000000000000000000000002",
                "label": "Precompiled"
            },
            {
                "address": "0x0000000000000000000000000000000000000003",
                "label": "Precompiled"
            },
            {
                "address": "0x0000000000000000000000000000000000000004",
                "label": "Precompiled"
            },
            {
                "address": "0xeeeeeeeeeeeeeeeeeeeeeeeeeeeeeeeeeeeeeeee",
                "label": "Ether"
            },
            {
                "address": "0xa1d8d972560c2f8144af871db508f0b0b10a3fbf",
                "label": "KuCoin 3"
            },
            {
                "address": "0x9534ad65fb398e27ac8f4251dae1780b989d136e",
                "label": "Vulcan Forged: PYR Token"
            },
            {
                "address": "0x0000000000000000000000000000000000000001",
                "label": "Precompiled"
            }
        ]
    },
    "trace": {
        "accountLabels": null,
        "dataMap": {
            "-1": {
                "invocation": {
                    "address": "0xa1d8d972560c2f8144af871db508f0b0b10a3fbf",
                    "callData": "",
                    "decodedMethod": null,
                    "errorInfo": "",
                    "fromAddress": "",
                    "gasUsed": 0,
                    "id": -1,
                    "methodDecoded": false,
                    "operation": "",
                    "output": "",
                    "revert": false,
                    "revertMessage": "",
                    "selector": "",
                    "status": false,
                    "value": ""
                },
                "nodeType": 0
            },
            "0": {
                "invocation": {
                    "address": "0x9534ad65fb398e27ac8f4251dae1780b989d136e",
                    "callData": "0x0000000000000000000000001b161f193f7de291edc08e5eb394243c910a6c47000000000000000000000000000000000000000000000000a85d184f4845c800",
                    "decodedMethod": {
                        "callParams": [
                            {
                                "name": "recipient",
                                "type": "address",
                                "value": "0x1b161f193f7de291edc08e5eb394243c910a6c47"
                            },
                            {
                                "decimalAvailable": true,
                                "name": "amount",
                                "type": "uint256",
                                "value": "12,131,879,700,000,000,000"
                            }
                        ],
                        "constructorArguments": "",
                        "name": "transfer",
                        "returnParams": [
                            {
                                "name": "",
                                "type": "bool",
                                "value": true
                            }
                        ],
                        "signature": "transfer(address,uint256)"
                    },
                    "errorInfo": "",
                    "fromAddress": "0xa1d8d972560c2f8144af871db508f0b0b10a3fbf",
                    "gasUsed": 51818,
                    "id": 0,
                    "methodDecoded": true,
                    "operation": "CALL",
                    "output": "0x0000000000000000000000000000000000000000000000000000000000000001",
                    "revert": false,
                    "revertMessage": "",
                    "selector": "0xa9059cbb",
                    "status": true,
                    "value": "0"
                },
                "nodeType": 0
            },
            "1": {
                "event": {
                    "contract": "0x9534ad65fb398e27ac8f4251dae1780b989d136e",
                    "decodedLog": {
                        "name": "Transfer",
                        "params": [
                            {
                                "name": "from",
                                "type": "address",
                                "value": "0xa1d8d972560c2f8144af871db508f0b0b10a3fbf"
                            },
                            {
                                "name": "to",
                                "type": "address",
                                "value": "0x1b161f193f7de291edc08e5eb394243c910a6c47"
                            },
                            {
                                "decimalAvailable": true,
                                "name": "value",
                                "type": "uint256",
                                "value": "12,131,879,700,000,000,000"
                            }
                        ],
                        "signature": "Transfer(address,address,uint256)"
                    },
                    "id": 1,
                    "logData": "0x000000000000000000000000000000000000000000000000a85d184f4845c800",
                    "logDecoded": true,
                    "operation": "EVENT",
                    "revert": false,
                    "status": true,
                    "topics": [
                        "0xddf252ad1be2c89b69c2b068fc378daa952ba7f163c4a11628f55a4df523b3ef",
                        "0x000000000000000000000000a1d8d972560c2f8144af871db508f0b0b10a3fbf",
                        "0x0000000000000000000000001b161f193f7de291edc08e5eb394243c910a6c47"
                    ]
                },
                "nodeType": 1
            }
        },
        "gasFlame": [
            {
                "children": [
                    {
                        "children": [
                            {
                                "children": [],
                                "depth": 0,
                                "name": "Initial Gas",
                                "value": 21644
                            },
                            {
                                "children": [],
                                "depth": 0,
                                "name": "Executed Gas",
                                "value": 30174
                            }
                        ],
                        "depth": -1,
                        "name": "Actual Gas Used",
                        "value": 51818
                    },
                    {
                        "children": [],
                        "depth": -1,
                        "name": "Refunded Gas",
                        "value": 0
                    }
                ],
                "depth": -2,
                "name": "Total Gas",
                "value": 51818
            }
        ],
        "isConfirmed": true,
        "mainTrace": [
            {
                "children": [
                    {
                        "children": [
                            {
                                "children": [],
                                "depth": 1,
                                "id": 1,
                                "order": 1
                            }
                        ],
                        "depth": 0,
                        "id": 0,
                        "order": 0
                    }
                ],
                "depth": -1,
                "id": -1,
                "order": -1
            }
        ],
        "mainTraceNodeCount": 2,
        "parentIdMap": {
            "0": -1,
            "1": 0
        },
        "tidyTrace": [
            {
                "children": [
                    {
                        "children": [
                            {
                                "children": [],
                                "depth": 1,
                                "id": 1,
                                "order": 1
                            }
                        ],
                        "depth": 0,
                        "id": 0,
                        "order": 0
                    }
                ],
                "depth": -1,
                "id": -1,
                "order": -1
            }
        ],
        "tidyTraceNodeCount": 2
    },
    "state_change": {
        "stateChanges": [
            {
                "address": "0x9534ad65fb398e27ac8f4251dae1780b989d136e",
                "erc": "ERC-20",
                "slots": [
                    {
                        "current": "0x00000000000000000000000000000000000000000000177684c0828e2a2b92a1",
                        "key": "0xafc5f481f14d1eb83fe7f19a09740d72f8952faf1081bc7638153606ddef18cd",
                        "prev": "0x0000000000000000000000000000000000000000000017772d1d9add72715aa1"
                    },
                    {
                        "current": "0x000000000000000000000000000000000000000000000000a85d184f4845c800",
                        "key": "0xf0af11f89d2a9ef7b685d09f670e9b24cf30034727eb7f303be144b775f66d7d",
                        "prev": "0x0000000000000000000000000000000000000000000000000000000000000000"
                    }
                ],
                "storageVariables": [
                    {
                        "name": "_balances",
                        "type": "mapping(address => uint256)",
                        "value": {
                            "pairs": [
                                {
                                    "key": "0x1b161f193f7de291edc08e5eb394243c910a6c47",
                                    "value": {
                                        "current": "12131879700000000000",
                                        "prev": "0",
                                        "typeTag": 1
                                    }
                                },
                                {
                                    "key": "0xa1d8d972560c2f8144af871db508f0b0b10a3fbf",
                                    "value": {
                                        "current": "110800710695855206404769",
                                        "prev": "110812842575555206404769",
                                        "typeTag": 1
                                    }
                                }
                            ],
                            "typeTag": 4
                        }
                    }
                ]
            }
        ]
    }
}