{
    "balance_change": {
        "balanceChanges": [
            {
                "account": "0x48d86fa1be0928827b030541ce4f5d4d9f5712f1",
                "assets": [
                    {
                        "address": "0x410447406655c396cb6e22a80f8a9df565157b61",
                        "amount": "335",
                        "iconUrl": "",
                        "isERC1155": false,
                        "isERC721": false,
                        "sign": false,
                        "value": ""
                    }
                ]
            },
            {
                "account": "0xa88fd1d15d55d793cd03f27080551ccc9e0d905f",
                "assets": [
                    {
                        "address": "0x410447406655c396cb6e22a80f8a9df565157b61",
                        "amount": "335",
                        "iconUrl": "",
                        "isERC1155": false,
                        "isERC721": false,
                        "sign": true,
                        "value": ""
                    }
                ]
            }
        ]
    },
    "profile": {
        "basic_info": {
            "baseFee": "",
            "blockNumber": 8367229,
            "callData": "0xa9059cbb000000000000000000000000a88fd1d15d55d793cd03f27080551ccc9e0d905f000000000000000000000000000000000000000000000000000000000000014f",
            "debugEnable": true,
            "errorInfo": "",
            "eventCount": 1,
            "feeRecipient": "0x5a0b54d5dc17e0aadc383d2db43b0a0d3e029c4c",
            "formatValue": "0",
            "gasLimit": 100000,
            "gasPrice": "10",
            "gasUsed": 36216,
            "intTxnCount": 0,
            "internalRevert": false,
            "internalRevertMessage": "",
            "isContractCreation": false,
            "isFlashloan": false,
            "maxFee": "",
            "nonce": 13064,
            "overwritedBlockNumber": -1,
            "priorityFee": "",
            "receiver": "0x410447406655c396cb6e22a80f8a9df565157b61",
            "revertMessage": "",
            "sender": "0x48d86fa1be0928827b030541ce4f5d4d9f5712f1",
            "simulationEnable": true,
            "sourceTxnHash": "0x3acc802b1d09d96af9baf34d173b28baf328dd1e7bef5699287bb02aa934503a",
            "status": true,
            "timestamp": "2019-08-17T09:51:49Z",
            "transactionFee": "0.00036216",
            "txnHash": "0x3acc802b1d09d96af9baf34d173b28baf328dd1e7bef5699287bb02aa934503a",
            "txnIndex": 80,
            "type": 0,
            "value": "0"
        },
        "fund_flow": [
            {
                "amount": "335",
                "from": "0x48d86fa1be0928827b030541ce4f5d4d9f5712f1",
                "id": 1,
                "isERC1155": false,
                "isERC721": false,
                "isReverted": false,
                "order": 1,
                "to": "0xa88fd1d15d55d793cd03f27080551ccc9e0d905f",
                "token": "0x410447406655c396cb6e22a80f8a9df565157b61"
            }
        ],
        "token_infos": [
            {
                "address": "0xc02aaa39b223fe8d0a0e5c4f27ead9083c756cc2",
                "decimals": 18
            },
            {
                "address": "0xeeeeeeeeeeeeeeeeeeeeeeeeeeeeeeeeeeeeeeee",
                "decimals": 18
            }
        ]
    },
    "address_label": {
        "labels": [
            {
                "address": "0xeeeeeeeeeeeeeeeeeeeeeeeeeeeeeeeeeeeeeeee",
                "label": "Ether"
            },
            {
                "address": "0x0000000000000000000000000000000000000001",
                "label": "Precompiled"
            },
            {
                "address": "0x0000000000000000000000000000000000000002",
                "label": "Precompiled"
            },
            {
                "address": "0x0000000000000000000000000000000000000003",
                "label": "Precompiled"
            },
            {
                "address": "0x0000000000000000000000000000000000000004",
                "label": "Precompiled"
            }
        ]
    },
    "trace": {
        "accountLabels": null,
        "dataMap": {
            "-1": {
                "invocation": {
                    "address": "0x48d86fa1be0928827b030541ce4f5d4d9f5712f1",
                    "callData": "",
                    "decodedMethod": null,
                    "errorInfo": "",
                    "fromAddress": "",
                    "gasUsed": 0,
                    "id": -1,
                    "methodDecoded": false,
                    "operation": "",
                    "output": "",
                    "revert": false,
                    "revertMessage": "",
                    "selector": "",
                    "status": false,
                    "value": ""
                },
                "nodeType": 0
            },
            "0": {
                "invocation": {
                    "address": "0x410447406655c396cb6e22a80f8a9df565157b61",
                    "callData": "0x000000000000000000000000a88fd1d15d55d793cd03f27080551ccc9e0d905f000000000000000000000000000000000000000000000000000000000000014f",
                    "decodedMethod": {
                        "callParams": [
                            {
                                "name": "recipient",
                                "type": "address",
                                "value": "0xa88fd1d15d55d793cd03f27080551ccc9e0d905f"
                            },
                            {
                                "decimalAvailable": true,
                                "name": "amount",
                                "type": "uint256",
                                "value": "335"
                            }
                        ],
                        "constructorArguments": "",
                        "name": "transfer",
                        "returnParams": [
                            {
                                "name": "",
                                "type": "bool",
                                "value": true
                            }
                        ],
                        "signature": "transfer(address,uint256)"
                    },
                    "errorInfo": "",
                    "fromAddress": "0x48d86fa1be0928827b030541ce4f5d4d9f5712f1",
                    "gasUsed": 36216,
                    "id": 0,
                    "methodDecoded": true,
                    "operation": "CALL",
                    "output": "0x0000000000000000000000000000000000000000000000000000000000000001",
                    "revert": false,
                    "revertMessage": "",
                    "selector": "0xa9059cbb",
                    "status": true,
                    "value": "0"
                },
                "nodeType": 0
            },
            "1": {
                "event": {
                    "contract": "0x410447406655c396cb6e22a80f8a9df565157b61",
                    "decodedLog": {
                        "name": "Transfer",
                        "params": [
                            {
                                "name": "from",
                                "type": "address",
                                "value": "0x48d86fa1be0928827b030541ce4f5d4d9f5712f1"
                            },
                            {
                                "name": "to",
                                "type": "address",
                                "value": "0xa88fd1d15d55d793cd03f27080551ccc9e0d905f"
                            },
                            {
                                "decimalAvailable": true,
                                "name": "value",
                                "type": "uint256",
                                "value": "335"
                            }
                        ],
                        "signature": "Transfer(address,address,uint256)"
                    },
                    "id": 1,
                    "logData": "0x000000000000000000000000000000000000000000000000000000000000014f",
                    "logDecoded": true,
                    "operation": "EVENT",
                    "revert": false,
                    "status": true,
                    "topics": [
                        "0xddf252ad1be2c89b69c2b068fc378daa952ba7f163c4a11628f55a4df523b3ef",
                        "0x00000000000000000000000048d86fa1be0928827b030541ce4f5d4d9f5712f1",
                        "0x000000000000000000000000a88fd1d15d55d793cd03f27080551ccc9e0d905f"
                    ]
                },
                "nodeType": 1
            }
        },
        "gasFlame": [
            {
                "children": [
                    {
                        "children": [
                            {
                                "children": [],
                                "depth": 0,
                                "name": "Initial Gas",
                                "value": 22936
                            },
                            {
                                "children": [],
                                "depth": 0,
                                "name": "Executed Gas",
                                "value": 13280
                            }
                        ],
                        "depth": -1,
                        "name": "Actual Gas Used",
                        "value": 36216
                    },
                    {
                        "children": [],
                        "depth": -1,
                        "name": "Refunded Gas",
                        "value": 0
                    }
                ],
                "depth": -2,
                "name": "Total Gas",
                "value": 36216
            }
        ],
        "isConfirmed": true,
        "mainTrace": [
            {
                "children": [
                    {
                        "children": [
                            {
                                "children": [],
                                "depth": 1,
                                "id": 1,
                                "order": 1
                            }
                        ],
                        "depth": 0,
                        "id": 0,
                        "order": 0
                    }
                ],
                "depth": -1,
                "id": -1,
                "order": -1
            }
        ],
        "mainTraceNodeCount": 2,
        "parentIdMap": {
            "0": -1,
            "1": 0
        },
        "tidyTrace": [
            {
                "children": [
                    {
                        "children": [
                            {
                                "children": [],
                                "depth": 1,
                                "id": 1,
                                "order": 1
                            }
                        ],
                        "depth": 0,
                        "id": 0,
                        "order": 0
                    }
                ],
                "depth": -1,
                "id": -1,
                "order": -1
            }
        ],
        "tidyTraceNodeCount": 2
    },
    "state_change": {
        "stateChanges": [
            {
                "address": "0x410447406655c396cb6e22a80f8a9df565157b61",
                "erc": "",
                "slots": [
                    {
                        "current": "0x0000000000000000000000000000000000000000000000000000000002f814c2",
                        "key": "0xf1a93bdee4b838603a807529428f960d78682dc7eda2897ad9e2dae083bdc5e1",
                        "prev": "0x0000000000000000000000000000000000000000000000000000000002f81611"
                    },
                    {
                        "current": "0x000000000000000000000000000000000000000000000000000000000001151a",
                        "key": "0x942f61b61014219c0f3b871d1befffceac1338d9bd6c474c4f062f12bfe8335b",
                        "prev": "0x00000000000000000000000000000000000000000000000000000000000113cb"
                    }
                ],
                "storageVariables": []
            }
        ]
    }
}