{
    "balance_change": {
        "balanceChanges": [
            {
                "account": "0x2b5634c42055806a59e9107ed44d43c426e58258",
                "assets": [
                    {
                        "address": "0x7d4b8cce0591c9044a22ee543533b72e976e36c3",
                        "amount": "35",
                        "iconUrl": "https://assets.blocksec.com/icon/bc3ade5819ce4dd2457b6af66c667e3298b3f7ab43f20f3583da698dd9813bfb.png",
                        "isERC1155": false,
                        "isERC721": false,
                        "sign": false,
                        "value": ""
                    }
                ]
            },
            {
                "account": "0x32dcb64bf60eb543106163346d8c36f54dad76bb",
                "assets": [
                    {
                        "address": "0x7d4b8cce0591c9044a22ee543533b72e976e36c3",
                        "amount": "35",
                        "iconUrl": "https://assets.blocksec.com/icon/bc3ade5819ce4dd2457b6af66c667e3298b3f7ab43f20f3583da698dd9813bfb.png",
                        "isERC1155": false,
                        "isERC721": false,
                        "sign": true,
                        "value": ""
                    }
                ]
            }
        ]
    },
    "profile": {
        "basic_info": {
            "baseFee": "",
            "blockNumber": 4990244,
            "callData": "0xa9059cbb00000000000000000000000032dcb64bf60eb543106163346d8c36f54dad76bb000000000000000000000000000000000000000000000001e5b8fa8fe2ac0000",
            "debugEnable": true,
            "errorInfo": "",
            "eventCount": 1,
            "feeRecipient": "0x84990f5d2e09f56cabdabf6409ad31bdd8363b50",
            "formatValue": "0",
            "gasLimit": 104058,
            "gasPrice": "40",
            "gasUsed": 52029,
            "intTxnCount": 0,
            "internalRevert": false,
            "internalRevertMessage": "",
            "isContractCreation": false,
            "isFlashloan": false,
            "maxFee": "",
            "nonce": 305664,
            "overwritedBlockNumber": -1,
            "priorityFee": "",
            "receiver": "0x7d4b8cce0591c9044a22ee543533b72e976e36c3",
            "revertMessage": "",
            "sender": "0x2b5634c42055806a59e9107ed44d43c426e58258",
            "simulationEnable": true,
            "sourceTxnHash": "0x3a2b6ee02657ad1352571f07a3f32abec44ae613286f1e19ce60d06eea605b54",
            "status": true,
            "timestamp": "2018-01-28T21:54:38Z",
            "transactionFee": "0.00208116",
            "txnHash": "0x3a2b6ee02657ad1352571f07a3f32abec44ae613286f1e19ce60d06eea605b54",
            "txnIndex": 10,
            "type": 0,
            "value": "0"
        },
        "fund_flow": [
            {
                "amount": "35",
                "from": "0x2b5634c42055806a59e9107ed44d43c426e58258",
                "id": 1,
                "isERC1155": false,
                "isERC721": false,
                "isReverted": false,
                "order": 1,
                "to": "0x32dcb64bf60eb543106163346d8c36f54dad76bb",
                "token": "0x7d4b8cce0591c9044a22ee543533b72e976e36c3"
            }
        ],
        "token_infos": [
            {
                "address": "0x7d4b8cce0591c9044a22ee543533b72e976e36c3",
                "decimals": 18
            },
            {
                "address": "0xc02aaa39b223fe8d0a0e5c4f27ead9083c756cc2",
                "decimals": 18
            },
            {
                "address": "0xeeeeeeeeeeeeeeeeeeeeeeeeeeeeeeeeeeeeeeee",
                "decimals": 18
            }
        ]
    },
    "address_label": {
        "labels": [
            {
                "address": "0x0000000000000000000000000000000000000003",
                "label": "Precompiled"
            },
            {
                "address": "0x0000000000000000000000000000000000000004",
                "label": "Precompiled"
            },
            {
                "address": "0xeeeeeeeeeeeeeeeeeeeeeeeeeeeeeeeeeeeeeeee",
                "label": "Ether"
            },
            {
                "address": "0x7d4b8cce0591c9044a22ee543533b72e976e36c3",
                "label": "ChangeBank: CAG Token"
            },
            {
                "address": "0x2b5634c42055806a59e9107ed44d43c426e58258",
                "label": "KuCoin"
            },
            {
                "address": "0x0000000000000000000000000000000000000001",
                "label": "Precompiled"
            },
            {
                "address": "0x0000000000000000000000000000000000000002",
                "label": "Precompiled"
            }
        ]
    },
    "trace": {
        "accountLabels": null,
        "dataMap": {
            "-1": {
                "invocation": {
                    "address": "0x2b5634c42055806a59e9107ed44d43c426e58258",
                    "callData": "",
                    "decodedMethod": null,
                    "errorInfo": "",
                    "fromAddress": "",
                    "gasUsed": 0,
                    "id": -1,
                    "methodDecoded": false,
                    "operation": "",
                    "output": "",
                    "revert": false,
                    "revertMessage": "",
                    "selector": "",
                    "status": false,
                    "value": ""
                },
                "nodeType": 0
            },
            "0": {
                "invocation": {
                    "address": "0x7d4b8cce0591c9044a22ee543533b72e976e36c3",
                    "callData": "0x00000000000000000000000032dcb64bf60eb543106163346d8c36f54dad76bb000000000000000000000000000000000000000000000001e5b8fa8fe2ac0000",
                    "decodedMethod": {
                        "callParams": [
                            {
                                "name": "_to",
                                "type": "address",
                                "value": "0x32dcb64bf60eb543106163346d8c36f54dad76bb"
                            },
                            {
                                "decimalAvailable": true,
                                "name": "_value",
                                "type": "uint256",
                                "value": "35,000,000,000,000,000,000"
                            }
                        ],
                        "constructorArguments": "",
                        "name": "transfer",
                        "returnParams": [
                            {
                                "name": "",
                                "type": "bool",
                                "value": true
                            }
                        ],
                        "signature": "transfer(address,uint256)"
                    },
                    "errorInfo": "",
                    "fromAddress": "0x2b5634c42055806a59e9107ed44d43c426e58258",
                    "gasUsed": 52029,
                    "id": 0,
                    "methodDecoded": true,
                    "operation": "CALL",
                    "output": "0x0000000000000000000000000000000000000000000000000000000000000001",
                    "revert": false,
                    "revertMessage": "",
                    "selector": "0xa9059cbb",
                    "status": true,
                    "value": "0"
                },
                "nodeType": 0
            },
            "1": {
                "event": {
                    "contract": "0x7d4b8cce0591c9044a22ee543533b72e976e36c3",
                    "decodedLog": {
                        "name": "Transfer",
                        "params": [
                            {
                                "name": "from",
                                "type": "address",
                                "value": "0x2b5634c42055806a59e9107ed44d43c426e58258"
                            },
                            {
                                "name": "to",
                                "type": "address",
                                "value": "0x32dcb64bf60eb543106163346d8c36f54dad76bb"
                            },
                            {
                                "decimalAvailable": true,
                                "name": "value",
                                "type": "uint256",
                                "value": "35,000,000,000,000,000,000"
                            }
                        ],
                        "signature": "Transfer(address,address,uint256)"
                    },
                    "id": 1,
                    "logData": "0x000000000000000000000000000000000000000000000001e5b8fa8fe2ac0000",
                    "logDecoded": true,
                    "operation": "EVENT",
                    "revert": false,
                    "status": true,
                    "topics": [
                        "0xddf252ad1be2c89b69c2b068fc378daa952ba7f163c4a11628f55a4df523b3ef",
                        "0x0000000000000000000000002b5634c42055806a59e9107ed44d43c426e58258",
                        "0x00000000000000000000000032dcb64bf60eb543106163346d8c36f54dad76bb"
                    ]
                },
                "nodeType": 1
            }
        },
        "gasFlame": [
            {
                "children": [
                    {
                        "children": [
                            {
                                "children": [],
                                "depth": 0,
                                "name": "Initial Gas",
                                "value": 23256
                            },
                            {
                                "children": [],
                                "depth": 0,
                                "name": "Executed Gas",
                                "value": 28773
                            }
                        ],
                        "depth": -1,
                        "name": "Actual Gas Used",
                        "value": 52029
                    },
                    {
                        "children": [],
                        "depth": -1,
                        "name": "Refunded Gas",
                        "value": 0
                    }
                ],
                "depth": -2,
                "name": "Total Gas",
                "value": 52029
            }
        ],
        "isConfirmed": true,
        "mainTrace": [
            {
                "children": [
                    {
                        "children": [
                            {
                                "children": [],
                                "depth": 1,
                                "id": 1,
                                "order": 1
                            }
                        ],
                        "depth": 0,
                        "id": 0,
                        "order": 0
                    }
                ],
                "depth": -1,
                "id": -1,
                "order": -1
            }
        ],
        "mainTraceNodeCount": 2,
        "parentIdMap": {
            "0": -1,
            "1": 0
        },
        "tidyTrace": [
            {
                "children": [
                    {
                        "children": [
                            {
                                "children": [],
                                "depth": 1,
                                "id": 1,
                                "order": 1
                            }
                        ],
                        "depth": 0,
                        "id": 0,
                        "order": 0
                    }
                ],
                "depth": -1,
                "id": -1,
                "order": -1
            }
        ],
        "tidyTraceNodeCount": 2
    },
    "state_change": {
        "stateChanges": [
            {
                "address": "0x7d4b8cce0591c9044a22ee543533b72e976e36c3",
                "erc": "ERC-20",
                "slots": [
                    {
                        "current": "0x000000000000000000000000000000000000000000000001e5b8fa8fe2ac0000",
                        "key": "0xa44d0a50c27e5e77f1d1211297dca7e2a9c983a5979f2501fb27b94781b543bb",
                        "prev": "0x0000000000000000000000000000000000000000000000000000000000000000"
                    },
                    {
                        "current": "0x00000000000000000000000000000000000000000001dbe824a3c54b38430823",
                        "key": "0x723770f24bb9a8ef6e334d78904b63c5bb4db9ea10886f3bda5fcacb11785a05",
                        "prev": "0x00000000000000000000000000000000000000000001dbea0a5cbfdb1aef0823"
                    }
                ],
                "storageVariables": [
                    {
                        "name": "balances",
                        "type": "mapping(address => uint256)",
                        "value": {
                            "pairs": [
                                {
                                    "key": "0x2b5634c42055806a59e9107ed44d43c426e58258",
                                    "value": {
                                        "current": "2247406364158915518859299",
                                        "prev": "2247441364158915518859299",
                                        "typeTag": 1
                                    }
                                },
                                {
                                    "key": "0x32dcb64bf60eb543106163346d8c36f54dad76bb",
                                    "value": {
                                        "current": "35000000000000000000",
                                        "prev": "0",
                                        "typeTag": 1
                                    }
                                }
                            ],
                            "typeTag": 4
                        }
                    }
                ]
            }
        ]
    }
}