{
    "balance_change": {
        "balanceChanges": [
            {
                "account": "0x2d80e0dd9e853096014926098b23b19ccfce4fca",
                "assets": [
                    {
                        "address": "0xaf45628ea7e0c3ffe645e7e41b0fa580d53cdd87",
                        "amount": "1,100",
                        "iconUrl": "",
                        "isERC1155": false,
                        "isERC721": false,
                        "sign": false,
                        "value": ""
                    }
                ]
            },
            {
                "account": "0x0b0725a844279616a8d520f5d679787dcefc759d",
                "assets": [
                    {
                        "address": "0xaf45628ea7e0c3ffe645e7e41b0fa580d53cdd87",
                        "amount": "1,100",
                        "iconUrl": "",
                        "isERC1155": false,
                        "isERC721": false,
                        "sign": true,
                        "value": ""
                    }
                ]
            }
        ]
    },
    "profile": {
        "basic_info": {
            "baseFee": "",
            "blockNumber": 7112281,
            "callData": "0xa9059cbb0000000000000000000000000b0725a844279616a8d520f5d679787dcefc759d00000000000000000000000000000000000000000000003ba1910bf341b00000",
            "debugEnable": true,
            "errorInfo": "",
            "eventCount": 1,
            "feeRecipient": "0xea674fdde714fd979de3edf0f56aa9716b898ec8",
            "formatValue": "0",
            "gasLimit": 112903,
            "gasPrice": "6.200000001",
            "gasUsed": 22005,
            "intTxnCount": 0,
            "internalRevert": false,
            "internalRevertMessage": "",
            "isContractCreation": false,
            "isFlashloan": false,
            "maxFee": "",
            "nonce": 7,
            "overwritedBlockNumber": -1,
            "priorityFee": "",
            "receiver": "0xaf45628ea7e0c3ffe645e7e41b0fa580d53cdd87",
            "revertMessage": "",
            "sender": "0x2d80e0dd9e853096014926098b23b19ccfce4fca",
            "simulationEnable": true,
            "sourceTxnHash": "0x3ae13dcefea68eed8c58d70ec25b0a3027d76f92ef9ec89daf5f33083a9f8924",
            "status": true,
            "timestamp": "2019-01-23T05:06:21Z",
            "transactionFee": "0.000136431000022005",
            "txnHash": "0x3ae13dcefea68eed8c58d70ec25b0a3027d76f92ef9ec89daf5f33083a9f8924",
            "txnIndex": 47,
            "type": 0,
            "value": "0"
        },
        "fund_flow": [
            {
                "amount": "1,100",
                "from": "0x2d80e0dd9e853096014926098b23b19ccfce4fca",
                "id": 1,
                "isERC1155": false,
                "isERC721": false,
                "isReverted": false,
                "order": 1,
                "to": "0x0b0725a844279616a8d520f5d679787dcefc759d",
                "token": "0xaf45628ea7e0c3ffe645e7e41b0fa580d53cdd87"
            }
        ],
        "token_infos": [
            {
                "address": "0xeeeeeeeeeeeeeeeeeeeeeeeeeeeeeeeeeeeeeeee",
                "decimals": 18
            },
            {
                "address": "0xaf45628ea7e0c3ffe645e7e41b0fa580d53cdd87",
                "decimals": 18
            },
            {
                "address": "0xc02aaa39b223fe8d0a0e5c4f27ead9083c756cc2",
                "decimals": 18
            }
        ]
    },
    "address_label": {
        "labels": [
            {
                "address": "0x0000000000000000000000000000000000000003",
                "label": "Precompiled"
            },
            {
                "address": "0x0000000000000000000000000000000000000004",
                "label": "Precompiled"
            },
            {
                "address": "0xeeeeeeeeeeeeeeeeeeeeeeeeeeeeeeeeeeeeeeee",
                "label": "Ether"
            },
            {
                "address": "0xaf45628ea7e0c3ffe645e7e41b0fa580d53cdd87",
                "label": "Loong Money (LBCC)"
            },
            {
                "address": "0x0000000000000000000000000000000000000001",
                "label": "Precompiled"
            },
            {
                "address": "0x0000000000000000000000000000000000000002",
                "label": "Precompiled"
            }
        ]
    },
    "trace": {
        "accountLabels": null,
        "dataMap": {
            "-1": {
                "invocation": {
                    "address": "0x2d80e0dd9e853096014926098b23b19ccfce4fca",
                    "callData": "",
                    "decodedMethod": null,
                    "errorInfo": "",
                    "fromAddress": "",
                    "gasUsed": 0,
                    "id": -1,
                    "methodDecoded": false,
                    "operation": "",
                    "output": "",
                    "revert": false,
                    "revertMessage": "",
                    "selector": "",
                    "status": false,
                    "value": ""
                },
                "nodeType": 0
            },
            "0": {
                "invocation": {
                    "address": "0xaf45628ea7e0c3ffe645e7e41b0fa580d53cdd87",
                    "callData": "0x0000000000000000000000000b0725a844279616a8d520f5d679787dcefc759d00000000000000000000000000000000000000000000003ba1910bf341b00000",
                    "decodedMethod": {
                        "callParams": [
                            {
                                "name": "_to",
                                "type": "address",
                                "value": "0x0b0725a844279616a8d520f5d679787dcefc759d"
                            },
                            {
                                "decimalAvailable": true,
                                "name": "_value",
                                "type": "uint256",
                                "value": "1,100,000,000,000,000,000,000"
                            }
                        ],
                        "constructorArguments": "",
                        "name": "transfer",
                        "returnParams": [
                            {
                                "name": "",
                                "type": "bool",
                                "value": true
                            }
                        ],
                        "signature": "transfer(address,uint256)"
                    },
                    "errorInfo": "",
                    "fromAddress": "0x2d80e0dd9e853096014926098b23b19ccfce4fca",
                    "gasUsed": 22005,
                    "id": 0,
                    "methodDecoded": true,
                    "operation": "CALL",
                    "output": "0x0000000000000000000000000000000000000000000000000000000000000001",
                    "revert": false,
                    "revertMessage": "",
                    "selector": "0xa9059cbb",
                    "status": true,
                    "value": "0"
                },
                "nodeType": 0
            },
            "1": {
                "event": {
                    "contract": "0xaf45628ea7e0c3ffe645e7e41b0fa580d53cdd87",
                    "decodedLog": {
                        "name": "Transfer",
                        "params": [
                            {
                                "name": "from",
                                "type": "address",
                                "value": "0x2d80e0dd9e853096014926098b23b19ccfce4fca"
                            },
                            {
                                "name": "to",
                                "type": "address",
                                "value": "0x0b0725a844279616a8d520f5d679787dcefc759d"
                            },
                            {
                                "decimalAvailable": true,
                                "name": "value",
                                "type": "uint256",
                                "value": "1,100,000,000,000,000,000,000"
                            }
                        ],
                        "signature": "Transfer(address,address,uint256)"
                    },
                    "id": 1,
                    "logData": "0x00000000000000000000000000000000000000000000003ba1910bf341b00000",
                    "logDecoded": true,
                    "operation": "EVENT",
                    "revert": false,
                    "status": true,
                    "topics": [
                        "0xddf252ad1be2c89b69c2b068fc378daa952ba7f163c4a11628f55a4df523b3ef",
                        "0x0000000000000000000000002d80e0dd9e853096014926098b23b19ccfce4fca",
                        "0x0000000000000000000000000b0725a844279616a8d520f5d679787dcefc759d"
                    ]
                },
                "nodeType": 1
            }
        },
        "gasFlame": [
            {
                "children": [
                    {
                        "children": [
                            {
                                "children": [],
                                "depth": 0,
                                "name": "Initial Gas",
                                "value": 23256
                            },
                            {
                                "children": [],
                                "depth": 0,
                                "name": "Executed Gas",
                                "value": 13749
                            }
                        ],
                        "depth": -1,
                        "name": "Actual Gas Used",
                        "value": 22005
                    },
                    {
                        "children": [],
                        "depth": -1,
                        "name": "Refunded Gas",
                        "value": 15000
                    }
                ],
                "depth": -2,
                "name": "Total Gas",
                "value": 37005
            }
        ],
        "isConfirmed": true,
        "mainTrace": [
            {
                "children": [
                    {
                        "children": [
                            {
                                "children": [],
                                "depth": 1,
                                "id": 1,
                                "order": 1
                            }
                        ],
                        "depth": 0,
                        "id": 0,
                        "order": 0
                    }
                ],
                "depth": -1,
                "id": -1,
                "order": -1
            }
        ],
        "mainTraceNodeCount": 2,
        "parentIdMap": {
            "0": -1,
            "1": 0
        },
        "tidyTrace": [
            {
                "children": [
                    {
                        "children": [
                            {
                                "children": [],
                                "depth": 1,
                                "id": 1,
                                "order": 1
                            }
                        ],
                        "depth": 0,
                        "id": 0,
                        "order": 0
                    }
                ],
                "depth": -1,
                "id": -1,
                "order": -1
            }
        ],
        "tidyTraceNodeCount": 2
    },
    "state_change": {
        "stateChanges": [
            {
                "address": "0xaf45628ea7e0c3ffe645e7e41b0fa580d53cdd87",
                "erc": "ERC-20",
                "slots": [
                    {
                        "current": "0x0000000000000000000000000000000000000000000000000000000000000000",
                        "key": "0xadb60c3b5337045d982eedfdd83c75d074cd3247ae853943e0c4b1e4ad5f87e8",
                        "prev": "0x00000000000000000000000000000000000000000000003ba1910bf341b00000"
                    },
                    {
                        "current": "0x0000000000000000000000000000000000000000000001dd0c885f9a0d800000",
                        "key": "0x11106ebe9e357549859e9f2e3546f8c6fc5465cafb0d165dbf08a329a9b91d2e",
                        "prev": "0x0000000000000000000000000000000000000000000001a16af753a6cbd00000"
                    }
                ],
                "storageVariables": [
                    {
                        "name": "balances",
                        "type": "mapping(address => uint256)",
                        "value": {
                            "pairs": [
                                {
                                    "key": "0x0b0725a844279616a8d520f5d679787dcefc759d",
                                    "value": {
                                        "current": "8800000000000000000000",
                                        "prev": "7700000000000000000000",
                                        "typeTag": 1
                                    }
                                },
                                {
                                    "key": "0x2d80e0dd9e853096014926098b23b19ccfce4fca",
                                    "value": {
                                        "current": "0",
                                        "prev": "1100000000000000000000",
                                        "typeTag": 1
                                    }
                                }
                            ],
                            "typeTag": 4
                        }
                    }
                ]
            }
        ]
    }
}