{
    "balance_change": {
        "balanceChanges": [
            {
                "account": "0x75db8b92937f8f86213e523788ab9f066efde3fe",
                "assets": [
                    {
                        "address": "0xeeeeeeeeeeeeeeeeeeeeeeeeeeeeeeeeeeeeeeee",
                        "amount": "0.142179152890599514",
                        "iconUrl": "https://assets.blocksec.com/image/1663669189317-3.png",
                        "isERC1155": false,
                        "isERC721": false,
                        "sign": false,
                        "value": ""
                    }
                ]
            },
            {
                "account": "0xef4f2474a930d49da44bd6a841761c6a57f272d8",
                "assets": [
                    {
                        "address": "0xeeeeeeeeeeeeeeeeeeeeeeeeeeeeeeeeeeeeeeee",
                        "amount": "0.142179152890599514",
                        "iconUrl": "https://assets.blocksec.com/image/1663669189317-3.png",
                        "isERC1155": false,
                        "isERC721": false,
                        "sign": true,
                        "value": ""
                    }
                ]
            }
        ]
    },
    "profile": {
        "basic_info": {
            "baseFee": "",
            "blockNumber": 9496609,
            "callData": "0x39125215000000000000000000000000ef4f2474a930d49da44bd6a841761c6a57f272d800000000000000000000000000000000000000000000000001f91f2fae82985a00000000000000000000000000000000000000000000000000000000000000c0000000000000000000000000000000000000000000000000000000005e52ef41000000000000000000000000000000000000000000000000000000000000789d00000000000000000000000000000000000000000000000000000000000001000000000000000000000000000000000000000000000000000000000000000000000000000000000000000000000000000000000000000000000000000000000000000000000000000000000000000000000000000000000000000000000000414910113c69620705e2cfa0cedd8216f7b8cb13054a68eb59df4bb1db0755c0d26a201aec12f71c89ea7734effdb2dd247625009c4b379cfc7afd76959cb990641c00000000000000000000000000000000000000000000000000000000000000",
            "debugEnable": true,
            "errorInfo": "",
            "eventCount": 1,
            "feeRecipient": "0xea674fdde714fd979de3edf0f56aa9716b898ec8",
            "formatValue": "0",
            "gasLimit": 162760,
            "gasPrice": "8",
            "gasUsed": 92760,
            "intTxnCount": 2,
            "internalRevert": false,
            "internalRevertMessage": "",
            "isContractCreation": false,
            "isFlashloan": false,
            "maxFee": "",
            "nonce": 131532,
            "overwritedBlockNumber": -1,
            "priorityFee": "",
            "receiver": "0x75db8b92937f8f86213e523788ab9f066efde3fe",
            "revertMessage": "",
            "sender": "0x2abf9f753d0af02cca358f98d633bad81cc555ed",
            "simulationEnable": true,
            "sourceTxnHash": "0x3a4c3fb39177890102f9f1bcd32d28339c9626f44ab6d399558643cd50403532",
            "status": true,
            "timestamp": "2020-02-16T21:31:31Z",
            "transactionFee": "0.00074208",
            "txnHash": "0x3a4c3fb39177890102f9f1bcd32d28339c9626f44ab6d399558643cd50403532",
            "txnIndex": 62,
            "type": 0,
            "value": "0"
        },
        "fund_flow": [
            {
                "amount": "0.142179152890599514",
                "from": "0x75db8b92937f8f86213e523788ab9f066efde3fe",
                "id": 1,
                "isERC1155": false,
                "isERC721": false,
                "isReverted": false,
                "order": 1,
                "to": "0xef4f2474a930d49da44bd6a841761c6a57f272d8",
                "token": "0xeeeeeeeeeeeeeeeeeeeeeeeeeeeeeeeeeeeeeeee"
            }
        ],
        "token_infos": [
            {
                "address": "0xc02aaa39b223fe8d0a0e5c4f27ead9083c756cc2",
                "decimals": 18
            },
            {
                "address": "0xeeeeeeeeeeeeeeeeeeeeeeeeeeeeeeeeeeeeeeee",
                "decimals": 18
            }
        ]
    },
    "address_label": {
        "labels": [
            {
                "address": "0x0000000000000000000000000000000000000002",
                "label": "Precompiled"
            },
            {
                "address": "0x0000000000000000000000000000000000000003",
                "label": "Precompiled"
            },
            {
                "address": "0x0000000000000000000000000000000000000004",
                "label": "Precompiled"
            },
            {
                "address": "0xeeeeeeeeeeeeeeeeeeeeeeeeeeeeeeeeeeeeeeee",
                "label": "Ether"
            },
            {
                "address": "0x2abf9f753d0af02cca358f98d633bad81cc555ed",
                "label": "Celsius Network: Deployer"
            },
            {
                "address": "0x75db8b92937f8f86213e523788ab9f066efde3fe",
                "label": "Celsius Network: Wallet 2"
            },
            {
                "address": "0x0000000000000000000000000000000000000001",
                "label": "Precompiled"
            }
        ]
    },
    "trace": {
        "accountLabels": null,
        "dataMap": {
            "-1": {
                "invocation": {
                    "address": "0x2abf9f753d0af02cca358f98d633bad81cc555ed",
                    "callData": "",
                    "decodedMethod": null,
                    "errorInfo": "",
                    "fromAddress": "",
                    "gasUsed": 0,
                    "id": -1,
                    "methodDecoded": false,
                    "operation": "",
                    "output": "",
                    "revert": false,
                    "revertMessage": "",
                    "selector": "",
                    "status": false,
                    "value": ""
                },
                "nodeType": 0
            },
            "0": {
                "invocation": {
                    "address": "0x75db8b92937f8f86213e523788ab9f066efde3fe",
                    "callData": "0x000000000000000000000000ef4f2474a930d49da44bd6a841761c6a57f272d800000000000000000000000000000000000000000000000001f91f2fae82985a00000000000000000000000000000000000000000000000000000000000000c0000000000000000000000000000000000000000000000000000000005e52ef41000000000000000000000000000000000000000000000000000000000000789d00000000000000000000000000000000000000000000000000000000000001000000000000000000000000000000000000000000000000000000000000000000000000000000000000000000000000000000000000000000000000000000000000000000000000000000000000000000000000000000000000000000000000414910113c69620705e2cfa0cedd8216f7b8cb13054a68eb59df4bb1db0755c0d26a201aec12f71c89ea7734effdb2dd247625009c4b379cfc7afd76959cb990641c00000000000000000000000000000000000000000000000000000000000000",
                    "decodedMethod": {
                        "callParams": [
                            {
                                "name": "toAddress",
                                "type": "address",
                                "value": "0xef4f2474a930d49da44bd6a841761c6a57f272d8"
                            },
                            {
                                "name": "value",
                                "type": "uint256",
                                "value": "142,179,152,890,599,514"
                            },
                            {
                                "name": "data",
                                "type": "bytes",
                                "value": "0x"
                            },
                            {
                                "name": "expireTime",
                                "type": "uint256",
                                "value": "1,582,493,505"
                            },
                            {
                                "name": "sequenceId",
                                "type": "uint256",
                                "value": "30,877"
                            },
                            {
                                "name": "signature",
                                "type": "bytes",
                                "value": "0x4910113c69620705e2cfa0cedd8216f7b8cb13054a68eb59df4bb1db0755c0d26a201aec12f71c89ea7734effdb2dd247625009c4b379cfc7afd76959cb990641c"
                            }
                        ],
                        "constructorArguments": "",
                        "name": "sendMultiSig",
                        "returnParams": [],
                        "signature": "sendMultiSig(address,uint256,bytes,uint256,uint256,bytes)"
                    },
                    "errorInfo": "",
                    "fromAddress": "0x2abf9f753d0af02cca358f98d633bad81cc555ed",
                    "gasUsed": 92760,
                    "id": 0,
                    "methodDecoded": true,
                    "operation": "CALL",
                    "output": "",
                    "revert": false,
                    "revertMessage": "",
                    "selector": "0x39125215",
                    "status": true,
                    "value": "0"
                },
                "nodeType": 0
            },
            "1": {
                "invocation": {
                    "address": "0x0000000000000000000000000000000000000001",
                    "callData": "0xa146dc03e4b72e59c95a9bebaad6997396c2b923f47aa78ec6938b56000000000000000000000000000000000000000000000000000000000000001c4910113c69620705e2cfa0cedd8216f7b8cb13054a68eb59df4bb1db0755c0d26a201aec12f71c89ea7734effdb2dd247625009c4b379cfc7afd76959cb99064",
                    "decodedMethod": {
                        "callParams": [
                            {
                                "name": "hash",
                                "type": "bytes32",
                                "value": "0xe773d317a146dc03e4b72e59c95a9bebaad6997396c2b923f47aa78ec6938b56"
                            },
                            {
                                "name": "v",
                                "type": "uint256",
                                "value": "28"
                            },
                            {
                                "name": "r",
                                "type": "bytes32",
                                "value": "0x4910113c69620705e2cfa0cedd8216f7b8cb13054a68eb59df4bb1db0755c0d2"
                            },
                            {
                                "name": "s",
                                "type": "bytes32",
                                "value": "0x6a201aec12f71c89ea7734effdb2dd247625009c4b379cfc7afd76959cb99064"
                            }
                        ],
                        "constructorArguments": "",
                        "name": "ecrecover",
                        "returnParams": [
                            {
                                "name": "",
                                "type": "address",
                                "value": "0x51708fba173ba6ff5a1d20e5cbc6d7b8efb50548"
                            }
                        ],
                        "signature": "ecrecover(bytes32,uint256,bytes32,bytes32)"
                    },
                    "errorInfo": "",
                    "fromAddress": "0x75db8b92937f8f86213e523788ab9f066efde3fe",
                    "gasUsed": 3000,
                    "id": 1,
                    "methodDecoded": true,
                    "operation": "CALL",
                    "output": "0x00000000000000000000000051708fba173ba6ff5a1d20e5cbc6d7b8efb50548",
                    "revert": false,
                    "revertMessage": "",
                    "selector": "0xe773d317",
                    "status": true,
                    "value": "0"
                },
                "nodeType": 0
            },
            "2": {
                "invocation": {
                    "address": "0xef4f2474a930d49da44bd6a841761c6a57f272d8",
                    "callData": "0x",
                    "decodedMethod": null,
                    "errorInfo": "",
                    "fromAddress": "0x75db8b92937f8f86213e523788ab9f066efde3fe",
                    "gasUsed": 0,
                    "id": 2,
                    "methodDecoded": false,
                    "operation": "CALL",
                    "output": "",
                    "revert": false,
                    "revertMessage": "",
                    "selector": "fallback",
                    "status": true,
                    "value": "0.142179152890599514"
                },
                "nodeType": 0
            },
            "3": {
                "event": {
                    "contract": "0x75db8b92937f8f86213e523788ab9f066efde3fe",
                    "decodedLog": {
                        "name": "Transacted",
                        "params": [
                            {
                                "name": "msgSender",
                                "type": "address",
                                "value": "0x2abf9f753d0af02cca358f98d633bad81cc555ed"
                            },
                            {
                                "name": "otherSigner",
                                "type": "address",
                                "value": "0x51708fba173ba6ff5a1d20e5cbc6d7b8efb50548"
                            },
                            {
                                "name": "operation",
                                "type": "bytes32",
                                "value": "0xe773d317a146dc03e4b72e59c95a9bebaad6997396c2b923f47aa78ec6938b56"
                            },
                            {
                                "name": "toAddress",
                                "type": "address",
                                "value": "0xef4f2474a930d49da44bd6a841761c6a57f272d8"
                            },
                            {
                                "name": "value",
                                "type": "uint256",
                                "value": "142,179,152,890,599,514"
                            },
                            {
                                "name": "data",
                                "type": "bytes",
                                "value": "0x"
                            }
                        ],
                        "signature": "Transacted(address,address,bytes32,address,uint256,bytes)"
                    },
                    "id": 3,
                    "logData": "0x0000000000000000000000002abf9f753d0af02cca358f98d633bad81cc555ed00000000000000000000000051708fba173ba6ff5a1d20e5cbc6d7b8efb50548e773d317a146dc03e4b72e59c95a9bebaad6997396c2b923f47aa78ec6938b56000000000000000000000000ef4f2474a930d49da44bd6a841761c6a57f272d800000000000000000000000000000000000000000000000001f91f2fae82985a00000000000000000000000000000000000000000000000000000000000000c00000000000000000000000000000000000000000000000000000000000000000",
                    "logDecoded": true,
                    "operation": "EVENT",
                    "revert": false,
                    "status": true,
                    "topics": [
                        "0x59bed9ab5d78073465dd642a9e3e76dfdb7d53bcae9d09df7d0b8f5234d5a806"
                    ]
                },
                "nodeType": 1
            }
        },
        "gasFlame": [
            {
                "children": [
                    {
                        "children": [
                            {
                                "children": [],
                                "depth": 0,
                                "name": "Initial Gas",
                                "value": 23812
                            },
                            {
                                "children": [
                                    {
                                        "children": [],
                                        "depth": 1,
                                        "name": "ecrecover",
                                        "value": 3000
                                    },
                                    {
                                        "children": [],
                                        "depth": 1,
                                        "name": "fallback",
                                        "value": 0
                                    }
                                ],
                                "depth": 0,
                                "name": "Executed Gas",
                                "value": 68948
                            }
                        ],
                        "depth": -1,
                        "name": "Actual Gas Used",
                        "value": 92760
                    },
                    {
                        "children": [],
                        "depth": -1,
                        "name": "Refunded Gas",
                        "value": 0
                    }
                ],
                "depth": -2,
                "name": "Total Gas",
                "value": 92760
            }
        ],
        "isConfirmed": true,
        "mainTrace": [
            {
                "children": [
                    {
                        "children": [
                            {
                                "children": [],
                                "depth": 1,
                                "id": 1,
                                "order": 1
                            },
                            {
                                "children": [],
                                "depth": 1,
                                "id": 2,
                                "order": 2
                            },
                            {
                                "children": [],
                                "depth": 1,
                                "id": 3,
                                "order": 3
                            }
                        ],
                        "depth": 0,
                        "id": 0,
                        "order": 0
                    }
                ],
                "depth": -1,
                "id": -1,
                "order": -1
            }
        ],
        "mainTraceNodeCount": 4,
        "parentIdMap": {
            "0": -1,
            "1": 0,
            "2": 0,
            "3": 0
        },
        "tidyTrace": [
            {
                "children": [
                    {
                        "children": [
                            {
                                "children": [],
                                "depth": 1,
                                "id": 1,
                                "order": 1
                            },
                            {
                                "children": [],
                                "depth": 1,
                                "id": 2,
                                "order": 2
                            },
                            {
                                "children": [],
                                "depth": 1,
                                "id": 3,
                                "order": 3
                            }
                        ],
                        "depth": 0,
                        "id": 0,
                        "order": 0
                    }
                ],
                "depth": -1,
                "id": -1,
                "order": -1
            }
        ],
        "tidyTraceNodeCount": 4
    },
    "state_change": {
        "stateChanges": [
            {
                "address": "0x75db8b92937f8f86213e523788ab9f066efde3fe",
                "erc": "",
                "slots": [
                    {
                        "current": "0x000000000000000000000000000000000000000000000000000000000000789d",
                        "key": "0x0000000000000000000000000000000000000000000000000000000000000008",
                        "prev": "0x0000000000000000000000000000000000000000000000000000000000007893"
                    }
                ],
                "storageVariables": []
            }
        ]
    }
}