{
    "balance_change": {
        "balanceChanges": [
            {
                "account": "0x76f994dbeb2f3b9e77522b800b8b6fa42e5c224c",
                "assets": [
                    {
                        "address": "0xeeeeeeeeeeeeeeeeeeeeeeeeeeeeeeeeeeeeeeee",
                        "amount": "1",
                        "iconUrl": "https://assets.blocksec.com/image/1663669189317-3.png",
                        "isERC1155": false,
                        "isERC721": false,
                        "sign": false,
                        "value": "3896.457842"
                    },
                    {
                        "address": "0xe1922512914fa1b1309dfedbbdef3836b0abdcb9",
                        "amount": "6,740,520,675.250708698",
                        "iconUrl": "",
                        "isERC1155": false,
                        "isERC721": false,
                        "sign": true,
                        "value": "3005.522962"
                    }
                ]
            },
            {
                "account": "0x5decc091709eb109bab4f1d8d8dcfe249e03573f",
                "assets": [
                    {
                        "address": "0xe1922512914fa1b1309dfedbbdef3836b0abdcb9",
                        "amount": "6,747,267,943.193902602",
                        "iconUrl": "",
                        "isERC1155": false,
                        "isERC721": false,
                        "sign": false,
                        "value": "3213.944607"
                    },
                    {
                        "address": "0xc02aaa39b223fe8d0a0e5c4f27ead9083c756cc2",
                        "amount": "1",
                        "iconUrl": "https://assets.blocksec.com/icon/f1cb2d02c471d545bbc7722daf3277fd852d98e63d118771af7047bd8256c516.png",
                        "isERC1155": false,
                        "isERC721": false,
                        "sign": true,
                        "value": "3896.457842"
                    }
                ]
            },
            {
                "account": "0xb28a99ea34f5d826fa91c2bfbc6ad00c4857c5f9",
                "assets": [
                    {
                        "address": "0xe1922512914fa1b1309dfedbbdef3836b0abdcb9",
                        "amount": "6,747,267.943193904",
                        "iconUrl": "",
                        "isERC1155": false,
                        "isERC721": false,
                        "sign": true,
                        "value": "3.10764417"
                    }
                ]
            },
            {
                "account": "0xc02aaa39b223fe8d0a0e5c4f27ead9083c756cc2",
                "assets": [
                    {
                        "address": "0xeeeeeeeeeeeeeeeeeeeeeeeeeeeeeeeeeeeeeeee",
                        "amount": "1",
                        "iconUrl": "https://assets.blocksec.com/image/1663669189317-3.png",
                        "isERC1155": false,
                        "isERC721": false,
                        "sign": true,
                        "value": "3896.457842"
                    },
                    {
                        "address": "0xc02aaa39b223fe8d0a0e5c4f27ead9083c756cc2",
                        "amount": "1",
                        "iconUrl": "https://assets.blocksec.com/icon/f1cb2d02c471d545bbc7722daf3277fd852d98e63d118771af7047bd8256c516.png",
                        "isERC1155": false,
                        "isERC721": false,
                        "sign": false,
                        "value": "3896.457842"
                    }
                ]
            }
        ]
    },
    "profile": {
        "basic_info": {
            "baseFee": "",
            "blockNumber": 12401857,
            "callData": "0x7ff36ab50000000000000000000000000000000000000000000000005f7d5bd046749eff000000000000000000000000000000000000000000000000000000000000008000000000000000000000000076f994dbeb2f3b9e77522b800b8b6fa42e5c224c0000000000000000000000000000000000000000000000000000000060982e650000000000000000000000000000000000000000000000000000000000000002000000000000000000000000c02aaa39b223fe8d0a0e5c4f27ead9083c756cc2000000000000000000000000e1922512914fa1b1309dfedbbdef3836b0abdcb9",
            "debugEnable": true,
            "errorInfo": "",
            "eventCount": 6,
            "feeRecipient": "0xea674fdde714fd979de3edf0f56aa9716b898ec8",
            "formatValue": "1",
            "gasLimit": 187150,
            "gasPrice": "100",
            "gasUsed": 133835,
            "intTxnCount": 7,
            "internalRevert": false,
            "internalRevertMessage": "",
            "isContractCreation": false,
            "isFlashloan": false,
            "maxFee": "",
            "nonce": 2304,
            "overwritedBlockNumber": -1,
            "priorityFee": "",
            "receiver": "0x7a250d5630b4cf539739df2c5dacb4c659f2488d",
            "revertMessage": "",
            "sender": "0x76f994dbeb2f3b9e77522b800b8b6fa42e5c224c",
            "simulationEnable": true,
            "sourceTxnHash": "0x3a7676a29731cf3d2601b3474ed2e43d5cd7a9fba26c85aa29df8dbcd018afe6",
            "status": true,
            "timestamp": "2021-05-09T18:47:43Z",
            "transactionFee": "0.0133835",
            "txnHash": "0x3a7676a29731cf3d2601b3474ed2e43d5cd7a9fba26c85aa29df8dbcd018afe6",
            "txnIndex": 49,
            "type": 0,
            "value": "1000000000000000000"
        },
        "fund_flow": [
            {
                "amount": "1",
                "from": "0x76f994dbeb2f3b9e77522b800b8b6fa42e5c224c",
                "id": 1,
                "isERC1155": false,
                "isERC721": false,
                "isReverted": false,
                "order": 1,
                "to": "0x7a250d5630b4cf539739df2c5dacb4c659f2488d",
                "token": "0xeeeeeeeeeeeeeeeeeeeeeeeeeeeeeeeeeeeeeeee"
            },
            {
                "amount": "1",
                "from": "0x7a250d5630b4cf539739df2c5dacb4c659f2488d",
                "id": 2,
                "isERC1155": false,
                "isERC721": false,
                "isReverted": false,
                "order": 2,
                "to": "0xc02aaa39b223fe8d0a0e5c4f27ead9083c756cc2",
                "token": "0xeeeeeeeeeeeeeeeeeeeeeeeeeeeeeeeeeeeeeeee"
            },
            {
                "amount": "1",
                "from": "0xc02aaa39b223fe8d0a0e5c4f27ead9083c756cc2",
                "id": 3,
                "isERC1155": false,
                "isERC721": false,
                "isReverted": false,
                "order": 3,
                "to": "0x7a250d5630b4cf539739df2c5dacb4c659f2488d",
                "token": "0xc02aaa39b223fe8d0a0e5c4f27ead9083c756cc2"
            },
            {
                "amount": "1",
                "from": "0x7a250d5630b4cf539739df2c5dacb4c659f2488d",
                "id": 4,
                "isERC1155": false,
                "isERC721": false,
                "isReverted": false,
                "order": 4,
                "to": "0x5decc091709eb109bab4f1d8d8dcfe249e03573f",
                "token": "0xc02aaa39b223fe8d0a0e5c4f27ead9083c756cc2"
            },
            {
                "amount": "6,740,520,675.250708698",
                "from": "0x5decc091709eb109bab4f1d8d8dcfe249e03573f",
                "id": 5,
                "isERC1155": false,
                "isERC721": false,
                "isReverted": false,
                "order": 5,
                "to": "0x76f994dbeb2f3b9e77522b800b8b6fa42e5c224c",
                "token": "0xe1922512914fa1b1309dfedbbdef3836b0abdcb9"
            },
            {
                "amount": "6,747,267.943193904",
                "from": "0x5decc091709eb109bab4f1d8d8dcfe249e03573f",
                "id": 6,
                "isERC1155": false,
                "isERC721": false,
                "isReverted": false,
                "order": 6,
                "to": "0xb28a99ea34f5d826fa91c2bfbc6ad00c4857c5f9",
                "token": "0xe1922512914fa1b1309dfedbbdef3836b0abdcb9"
            }
        ],
        "token_infos": [
            {
                "address": "0xe1922512914fa1b1309dfedbbdef3836b0abdcb9",
                "decimals": 9
            },
            {
                "address": "0xeeeeeeeeeeeeeeeeeeeeeeeeeeeeeeeeeeeeeeee",
                "decimals": 18
            },
            {
                "address": "0xc02aaa39b223fe8d0a0e5c4f27ead9083c756cc2",
                "decimals": 18
            }
        ]
    },
    "address_label": {
        "labels": [
            {
                "address": "0xeeeeeeeeeeeeeeeeeeeeeeeeeeeeeeeeeeeeeeee",
                "label": "Ether"
            },
            {
                "address": "0xe1922512914fa1b1309dfedbbdef3836b0abdcb9",
                "label": "Shep.Finance (SHEP)"
            },
            {
                "address": "0x0000000000000000000000000000000000000002",
                "label": "Precompiled"
            },
            {
                "address": "0x0000000000000000000000000000000000000003",
                "label": "Precompiled"
            },
            {
                "address": "0x7a250d5630b4cf539739df2c5dacb4c659f2488d",
                "label": "Uniswap V2: Router 2"
            },
            {
                "address": "0xc02aaa39b223fe8d0a0e5c4f27ead9083c756cc2",
                "label": "Wrapped Ether (WETH)"
            },
            {
                "address": "0x5decc091709eb109bab4f1d8d8dcfe249e03573f",
                "label": "Uniswap V2: SHEP 2"
            },
            {
                "address": "0x0000000000000000000000000000000000000001",
                "label": "Precompiled"
            },
            {
                "address": "0x0000000000000000000000000000000000000004",
                "label": "Precompiled"
            }
        ]
    },
    "trace": {
        "accountLabels": null,
        "dataMap": {
            "-1": {
                "invocation": {
                    "address": "0x76f994dbeb2f3b9e77522b800b8b6fa42e5c224c",
                    "callData": "",
                    "decodedMethod": null,
                    "errorInfo": "",
                    "fromAddress": "",
                    "gasUsed": 0,
                    "id": -1,
                    "methodDecoded": false,
                    "operation": "",
                    "output": "",
                    "revert": false,
                    "revertMessage": "",
                    "selector": "",
                    "status": false,
                    "value": ""
                },
                "nodeType": 0
            },
            "0": {
                "invocation": {
                    "address": "0x7a250d5630b4cf539739df2c5dacb4c659f2488d",
                    "callData": "0x0000000000000000000000000000000000000000000000005f7d5bd046749eff000000000000000000000000000000000000000000000000000000000000008000000000000000000000000076f994dbeb2f3b9e77522b800b8b6fa42e5c224c0000000000000000000000000000000000000000000000000000000060982e650000000000000000000000000000000000000000000000000000000000000002000000000000000000000000c02aaa39b223fe8d0a0e5c4f27ead9083c756cc2000000000000000000000000e1922512914fa1b1309dfedbbdef3836b0abdcb9",
                    "decodedMethod": {
                        "callParams": [
                            {
                                "name": "amountOutMin",
                                "type": "uint256",
                                "value": "6,880,756,755,785,359,103"
                            },
                            {
                                "name": "path",
                                "type": "address[]",
                                "value": [
                                    "0xc02aaa39b223fe8d0a0e5c4f27ead9083c756cc2",
                                    "0xe1922512914fa1b1309dfedbbdef3836b0abdcb9"
                                ]
                            },
                            {
                                "name": "to",
                                "type": "address",
                                "value": "0x76f994dbeb2f3b9e77522b800b8b6fa42e5c224c"
                            },
                            {
                                "name": "deadline",
                                "type": "uint256",
                                "value": "1,620,586,085"
                            }
                        ],
                        "constructorArguments": "",
                        "name": "swapExactETHForTokens",
                        "returnParams": [
                            {
                                "name": "amounts",
                                "type": "uint256[]",
                                "value": [
                                    "1,000,000,000,000,000,000",
                                    "6,884,967,288,973,370,000"
                                ]
                            }
                        ],
                        "signature": "swapExactETHForTokens(uint256,address[],address,uint256)"
                    },
                    "errorInfo": "",
                    "fromAddress": "0x76f994dbeb2f3b9e77522b800b8b6fa42e5c224c",
                    "gasUsed": 133835,
                    "id": 0,
                    "methodDecoded": true,
                    "operation": "CALL",
                    "output": "0x000000000000000000000000000000000000000000000000000000000000002000000000000000000000000000000000000000000000000000000000000000020000000000000000000000000000000000000000000000000de0b6b3a76400000000000000000000000000000000000000000000000000005f8c51456d712290",
                    "revert": false,
                    "revertMessage": "",
                    "selector": "0x7ff36ab5",
                    "status": true,
                    "value": "1"
                },
                "nodeType": 0
            },
            "1": {
                "invocation": {
                    "address": "0x5decc091709eb109bab4f1d8d8dcfe249e03573f",
                    "callData": "0x",
                    "decodedMethod": {
                        "callParams": [],
                        "constructorArguments": "",
                        "name": "getReserves",
                        "returnParams": [
                            {
                                "name": "_reserve0",
                                "type": "uint112",
                                "value": "26,265,254,374,601,340,411"
                            },
                            {
                                "name": "_reserve1",
                                "type": "uint112",
                                "value": "188,264,523,162,288,252,078"
                            },
                            {
                                "name": "_blockTimestampLast",
                                "type": "uint32",
                                "value": "1,620,586,063"
                            }
                        ],
                        "signature": "getReserves()"
                    },
                    "errorInfo": "",
                    "fromAddress": "0x7a250d5630b4cf539739df2c5dacb4c659f2488d",
                    "gasUsed": 2504,
                    "id": 1,
                    "methodDecoded": true,
                    "operation": "STATICCALL",
                    "output": "0x0000000000000000000000000000000000000000000000016c80edb1c56335fb00000000000000000000000000000000000000000000000a34b1f259107de4ae0000000000000000000000000000000000000000000000000000000060982e4f",
                    "revert": false,
                    "revertMessage": "",
                    "selector": "0x0902f1ac",
                    "status": true,
                    "value": "0"
                },
                "nodeType": 0
            },
            "10": {
                "invocation": {
                    "address": "0xc02aaa39b223fe8d0a0e5c4f27ead9083c756cc2",
                    "callData": "0x0000000000000000000000005decc091709eb109bab4f1d8d8dcfe249e03573f",
                    "decodedMethod": {
                        "callParams": [
                            {
                                "name": "",
                                "type": "address",
                                "value": "0x5decc091709eb109bab4f1d8d8dcfe249e03573f"
                            }
                        ],
                        "constructorArguments": "",
                        "name": "balanceOf",
                        "returnParams": [
                            {
                                "decimalAvailable": true,
                                "name": "",
                                "type": "uint256",
                                "value": "27,265,254,374,601,340,411"
                            }
                        ],
                        "signature": "balanceOf(address)"
                    },
                    "errorInfo": "",
                    "fromAddress": "0x5decc091709eb109bab4f1d8d8dcfe249e03573f",
                    "gasUsed": 534,
                    "id": 10,
                    "methodDecoded": true,
                    "operation": "STATICCALL",
                    "output": "0x0000000000000000000000000000000000000000000000017a61a4656cc735fb",
                    "revert": false,
                    "revertMessage": "",
                    "selector": "0x70a08231",
                    "status": true,
                    "value": "0"
                },
                "nodeType": 0
            },
            "11": {
                "invocation": {
                    "address": "0xe1922512914fa1b1309dfedbbdef3836b0abdcb9",
                    "callData": "0x0000000000000000000000005decc091709eb109bab4f1d8d8dcfe249e03573f",
                    "decodedMethod": {
                        "callParams": [
                            {
                                "name": "account",
                                "type": "address",
                                "value": "0x5decc091709eb109bab4f1d8d8dcfe249e03573f"
                            }
                        ],
                        "constructorArguments": "",
                        "name": "balanceOf",
                        "returnParams": [
                            {
                                "decimalAvailable": true,
                                "name": "",
                                "type": "uint256",
                                "value": "181,404,536,102,928,927,378"
                            }
                        ],
                        "signature": "balanceOf(address)"
                    },
                    "errorInfo": "",
                    "fromAddress": "0x5decc091709eb109bab4f1d8d8dcfe249e03573f",
                    "gasUsed": 2272,
                    "id": 11,
                    "methodDecoded": true,
                    "operation": "STATICCALL",
                    "output": "0x000000000000000000000000000000000000000000000009d57e6076939a4a92",
                    "revert": false,
                    "revertMessage": "",
                    "selector": "0x70a08231",
                    "status": true,
                    "value": "0"
                },
                "nodeType": 0
            },
            "12": {
                "event": {
                    "contract": "0x5decc091709eb109bab4f1d8d8dcfe249e03573f",
                    "decodedLog": {
                        "name": "Sync",
                        "params": [
                            {
                                "name": "reserve0",
                                "type": "uint112",
                                "value": "27,265,254,374,601,340,411"
                            },
                            {
                                "name": "reserve1",
                                "type": "uint112",
                                "value": "181,404,536,102,928,927,378"
                            }
                        ],
                        "signature": "Sync(uint112,uint112)"
                    },
                    "id": 12,
                    "logData": "0x0000000000000000000000000000000000000000000000017a61a4656cc735fb000000000000000000000000000000000000000000000009d57e6076939a4a92",
                    "logDecoded": true,
                    "operation": "EVENT",
                    "revert": false,
                    "status": true,
                    "topics": [
                        "0x1c411e9a96e071241c2f21f7726b17ae89e3cab4c78be50e062b03a9fffbbad1"
                    ]
                },
                "nodeType": 1
            },
            "13": {
                "event": {
                    "contract": "0x5decc091709eb109bab4f1d8d8dcfe249e03573f",
                    "decodedLog": {
                        "name": "Swap",
                        "params": [
                            {
                                "name": "sender",
                                "type": "address",
                                "value": "0x7a250d5630b4cf539739df2c5dacb4c659f2488d"
                            },
                            {
                                "name": "to",
                                "type": "address",
                                "value": "0x76f994dbeb2f3b9e77522b800b8b6fa42e5c224c"
                            },
                            {
                                "name": "amount0In",
                                "type": "uint256",
                                "value": "1,000,000,000,000,000,000"
                            },
                            {
                                "name": "amount1In",
                                "type": "uint256",
                                "value": "24,980,229,614,045,300"
                            },
                            {
                                "name": "amount0Out",
                                "type": "uint256",
                                "value": "0"
                            },
                            {
                                "name": "amount1Out",
                                "type": "uint256",
                                "value": "6,884,967,288,973,370,000"
                            }
                        ],
                        "signature": "Swap(address,uint256,uint256,uint256,uint256,address)"
                    },
                    "id": 13,
                    "logData": "0x0000000000000000000000000000000000000000000000000de0b6b3a76400000000000000000000000000000000000000000000000000000058bf62f08d887400000000000000000000000000000000000000000000000000000000000000000000000000000000000000000000000000000000000000005f8c51456d712290",
                    "logDecoded": true,
                    "operation": "EVENT",
                    "revert": false,
                    "status": true,
                    "topics": [
                        "0xd78ad95fa46c994b6551d0da85fc275fe613ce37657fb8d5e3d130840159d822",
                        "0x0000000000000000000000007a250d5630b4cf539739df2c5dacb4c659f2488d",
                        "0x00000000000000000000000076f994dbeb2f3b9e77522b800b8b6fa42e5c224c"
                    ]
                },
                "nodeType": 1
            },
            "2": {
                "invocation": {
                    "address": "0xc02aaa39b223fe8d0a0e5c4f27ead9083c756cc2",
                    "callData": "0x",
                    "decodedMethod": {
                        "callParams": [],
                        "constructorArguments": "",
                        "name": "deposit",
                        "returnParams": [],
                        "signature": "deposit()"
                    },
                    "errorInfo": "",
                    "fromAddress": "0x7a250d5630b4cf539739df2c5dacb4c659f2488d",
                    "gasUsed": 23974,
                    "id": 2,
                    "methodDecoded": true,
                    "operation": "CALL",
                    "output": "",
                    "revert": false,
                    "revertMessage": "",
                    "selector": "0xd0e30db0",
                    "status": true,
                    "value": "1"
                },
                "nodeType": 0
            },
            "3": {
                "event": {
                    "contract": "0xc02aaa39b223fe8d0a0e5c4f27ead9083c756cc2",
                    "decodedLog": {
                        "name": "Deposit",
                        "params": [
                            {
                                "name": "dst",
                                "type": "address",
                                "value": "0x7a250d5630b4cf539739df2c5dacb4c659f2488d"
                            },
                            {
                                "name": "wad",
                                "type": "uint256",
                                "value": "1,000,000,000,000,000,000"
                            }
                        ],
                        "signature": "Deposit(address,uint256)"
                    },
                    "id": 3,
                    "logData": "0x0000000000000000000000000000000000000000000000000de0b6b3a7640000",
                    "logDecoded": true,
                    "operation": "EVENT",
                    "revert": false,
                    "status": true,
                    "topics": [
                        "0xe1fffcc4923d04b559f4d29a8bfc6cda04eb5b0d3c460751c2402c5c5cc9109c",
                        "0x0000000000000000000000007a250d5630b4cf539739df2c5dacb4c659f2488d"
                    ]
                },
                "nodeType": 1
            },
            "4": {
                "invocation": {
                    "address": "0xc02aaa39b223fe8d0a0e5c4f27ead9083c756cc2",
                    "callData": "0x0000000000000000000000005decc091709eb109bab4f1d8d8dcfe249e03573f0000000000000000000000000000000000000000000000000de0b6b3a7640000",
                    "decodedMethod": {
                        "callParams": [
                            {
                                "name": "dst",
                                "type": "address",
                                "value": "0x5decc091709eb109bab4f1d8d8dcfe249e03573f"
                            },
                            {
                                "decimalAvailable": true,
                                "name": "wad",
                                "type": "uint256",
                                "value": "1,000,000,000,000,000,000"
                            }
                        ],
                        "constructorArguments": "",
                        "name": "transfer",
                        "returnParams": [
                            {
                                "name": "",
                                "type": "bool",
                                "value": true
                            }
                        ],
                        "signature": "transfer(address,uint256)"
                    },
                    "errorInfo": "",
                    "fromAddress": "0x7a250d5630b4cf539739df2c5dacb4c659f2488d",
                    "gasUsed": 8062,
                    "id": 4,
                    "methodDecoded": true,
                    "operation": "CALL",
                    "output": "0x0000000000000000000000000000000000000000000000000000000000000001",
                    "revert": false,
                    "revertMessage": "",
                    "selector": "0xa9059cbb",
                    "status": true,
                    "value": "0"
                },
                "nodeType": 0
            },
            "5": {
                "event": {
                    "contract": "0xc02aaa39b223fe8d0a0e5c4f27ead9083c756cc2",
                    "decodedLog": {
                        "name": "Transfer",
                        "params": [
                            {
                                "name": "src",
                                "type": "address",
                                "value": "0x7a250d5630b4cf539739df2c5dacb4c659f2488d"
                            },
                            {
                                "name": "dst",
                                "type": "address",
                                "value": "0x5decc091709eb109bab4f1d8d8dcfe249e03573f"
                            },
                            {
                                "decimalAvailable": true,
                                "name": "wad",
                                "type": "uint256",
                                "value": "1,000,000,000,000,000,000"
                            }
                        ],
                        "signature": "Transfer(address,address,uint256)"
                    },
                    "id": 5,
                    "logData": "0x0000000000000000000000000000000000000000000000000de0b6b3a7640000",
                    "logDecoded": true,
                    "operation": "EVENT",
                    "revert": false,
                    "status": true,
                    "topics": [
                        "0xddf252ad1be2c89b69c2b068fc378daa952ba7f163c4a11628f55a4df523b3ef",
                        "0x0000000000000000000000007a250d5630b4cf539739df2c5dacb4c659f2488d",
                        "0x0000000000000000000000005decc091709eb109bab4f1d8d8dcfe249e03573f"
                    ]
                },
                "nodeType": 1
            },
            "6": {
                "invocation": {
                    "address": "0x5decc091709eb109bab4f1d8d8dcfe249e03573f",
                    "callData": "0x00000000000000000000000000000000000000000000000000000000000000000000000000000000000000000000000000000000000000005f8c51456d71229000000000000000000000000076f994dbeb2f3b9e77522b800b8b6fa42e5c224c00000000000000000000000000000000000000000000000000000000000000800000000000000000000000000000000000000000000000000000000000000000",
                    "decodedMethod": {
                        "callParams": [
                            {
                                "name": "amount0Out",
                                "type": "uint256",
                                "value": "0"
                            },
                            {
                                "name": "amount1Out",
                                "type": "uint256",
                                "value": "6,884,967,288,973,370,000"
                            },
                            {
                                "name": "to",
                                "type": "address",
                                "value": "0x76f994dbeb2f3b9e77522b800b8b6fa42e5c224c"
                            },
                            {
                                "name": "data",
                                "type": "bytes",
                                "value": "0x"
                            }
                        ],
                        "constructorArguments": "",
                        "name": "swap",
                        "returnParams": [],
                        "signature": "swap(uint256,uint256,address,bytes)"
                    },
                    "errorInfo": "",
                    "fromAddress": "0x7a250d5630b4cf539739df2c5dacb4c659f2488d",
                    "gasUsed": 79952,
                    "id": 6,
                    "methodDecoded": true,
                    "operation": "CALL",
                    "output": "",
                    "revert": false,
                    "revertMessage": "",
                    "selector": "0x022c0d9f",
                    "status": true,
                    "value": "0"
                },
                "nodeType": 0
            },
            "7": {
                "invocation": {
                    "address": "0xe1922512914fa1b1309dfedbbdef3836b0abdcb9",
                    "callData": "0x00000000000000000000000076f994dbeb2f3b9e77522b800b8b6fa42e5c224c0000000000000000000000000000000000000000000000005f8c51456d712290",
                    "decodedMethod": {
                        "callParams": [
                            {
                                "name": "recipient",
                                "type": "address",
                                "value": "0x76f994dbeb2f3b9e77522b800b8b6fa42e5c224c"
                            },
                            {
                                "decimalAvailable": true,
                                "name": "amount",
                                "type": "uint256",
                                "value": "6,884,967,288,973,370,000"
                            }
                        ],
                        "constructorArguments": "",
                        "name": "transfer",
                        "returnParams": [
                            {
                                "name": "",
                                "type": "bool",
                                "value": true
                            }
                        ],
                        "signature": "transfer(address,uint256)"
                    },
                    "errorInfo": "",
                    "fromAddress": "0x5decc091709eb109bab4f1d8d8dcfe249e03573f",
                    "gasUsed": 53731,
                    "id": 7,
                    "methodDecoded": true,
                    "operation": "CALL",
                    "output": "0x0000000000000000000000000000000000000000000000000000000000000001",
                    "revert": false,
                    "revertMessage": "",
                    "selector": "0xa9059cbb",
                    "status": true,
                    "value": "0"
                },
                "nodeType": 0
            },
            "8": {
                "event": {
                    "contract": "0xe1922512914fa1b1309dfedbbdef3836b0abdcb9",
                    "decodedLog": {
                        "name": "Transfer",
                        "params": [
                            {
                                "name": "from",
                                "type": "address",
                                "value": "0x5decc091709eb109bab4f1d8d8dcfe249e03573f"
                            },
                            {
                                "name": "to",
                                "type": "address",
                                "value": "0x76f994dbeb2f3b9e77522b800b8b6fa42e5c224c"
                            },
                            {
                                "decimalAvailable": true,
                                "name": "value",
                                "type": "uint256",
                                "value": "6,740,520,675,250,708,698"
                            }
                        ],
                        "signature": "Transfer(address,address,uint256)"
                    },
                    "id": 8,
                    "logData": "0x0000000000000000000000000000000000000000000000005d8b23d7617ea0da",
                    "logDecoded": true,
                    "operation": "EVENT",
                    "revert": false,
                    "status": true,
                    "topics": [
                        "0xddf252ad1be2c89b69c2b068fc378daa952ba7f163c4a11628f55a4df523b3ef",
                        "0x0000000000000000000000005decc091709eb109bab4f1d8d8dcfe249e03573f",
                        "0x00000000000000000000000076f994dbeb2f3b9e77522b800b8b6fa42e5c224c"
                    ]
                },
                "nodeType": 1
            },
            "9": {
                "event": {
                    "contract": "0xe1922512914fa1b1309dfedbbdef3836b0abdcb9",
                    "decodedLog": {
                        "name": "Transfer",
                        "params": [
                            {
                                "name": "from",
                                "type": "address",
                                "value": "0x5decc091709eb109bab4f1d8d8dcfe249e03573f"
                            },
                            {
                                "name": "to",
                                "type": "address",
                                "value": "0xb28a99ea34f5d826fa91c2bfbc6ad00c4857c5f9"
                            },
                            {
                                "decimalAvailable": true,
                                "name": "value",
                                "type": "uint256",
                                "value": "6,747,267,943,193,904"
                            }
                        ],
                        "signature": "Transfer(address,address,uint256)"
                    },
                    "id": 9,
                    "logData": "0x0000000000000000000000000000000000000000000000000017f89abcf55d30",
                    "logDecoded": true,
                    "operation": "EVENT",
                    "revert": false,
                    "status": true,
                    "topics": [
                        "0xddf252ad1be2c89b69c2b068fc378daa952ba7f163c4a11628f55a4df523b3ef",
                        "0x0000000000000000000000005decc091709eb109bab4f1d8d8dcfe249e03573f",
                        "0x000000000000000000000000b28a99ea34f5d826fa91c2bfbc6ad00c4857c5f9"
                    ]
                },
                "nodeType": 1
            }
        },
        "gasFlame": [
            {
                "children": [
                    {
                        "children": [
                            {
                                "children": [],
                                "depth": 0,
                                "name": "Initial Gas",
                                "value": 22848
                            },
                            {
                                "children": [
                                    {
                                        "children": [],
                                        "depth": 1,
                                        "name": "getReserves",
                                        "value": 2504
                                    },
                                    {
                                        "children": [],
                                        "depth": 1,
                                        "name": "deposit",
                                        "value": 23974
                                    },
                                    {
                                        "children": [],
                                        "depth": 1,
                                        "name": "transfer",
                                        "value": 8062
                                    },
                                    {
                                        "children": [
                                            {
                                                "children": [],
                                                "depth": 2,
                                                "name": "transfer",
                                                "value": 53731
                                            },
                                            {
                                                "children": [],
                                                "depth": 2,
                                                "name": "balanceOf",
                                                "value": 534
                                            },
                                            {
                                                "children": [],
                                                "depth": 2,
                                                "name": "balanceOf",
                                                "value": 2272
                                            }
                                        ],
                                        "depth": 1,
                                        "name": "swap",
                                        "value": 79952
                                    }
                                ],
                                "depth": 0,
                                "name": "Executed Gas",
                                "value": 133687
                            }
                        ],
                        "depth": -1,
                        "name": "Actual Gas Used",
                        "value": 133835
                    },
                    {
                        "children": [],
                        "depth": -1,
                        "name": "Refunded Gas",
                        "value": 22700
                    }
                ],
                "depth": -2,
                "name": "Total Gas",
                "value": 156535
            }
        ],
        "isConfirmed": true,
        "mainTrace": [
            {
                "children": [
                    {
                        "children": [
                            {
                                "children": [],
                                "depth": 1,
                                "id": 1,
                                "order": 1
                            },
                            {
                                "children": [
                                    {
                                        "children": [],
                                        "depth": 2,
                                        "id": 3,
                                        "order": 3
                                    }
                                ],
                                "depth": 1,
                                "id": 2,
                                "order": 2
                            },
                            {
                                "children": [
                                    {
                                        "children": [],
                                        "depth": 2,
                                        "id": 5,
                                        "order": 5
                                    }
                                ],
                                "depth": 1,
                                "id": 4,
                                "order": 4
                            },
                            {
                                "children": [
                                    {
                                        "children": [
                                            {
                                                "children": [],
                                                "depth": 3,
                                                "id": 8,
                                                "order": 8
                                            },
                                            {
                                                "children": [],
                                                "depth": 3,
                                                "id": 9,
                                                "order": 9
                                            }
                                        ],
                                        "depth": 2,
                                        "id": 7,
                                        "order": 7
                                    },
                                    {
                                        "children": [],
                                        "depth": 2,
                                        "id": 10,
                                        "order": 10
                                    },
                                    {
                                        "children": [],
                                        "depth": 2,
                                        "id": 11,
                                        "order": 11
                                    },
                                    {
                                        "children": [],
                                        "depth": 2,
                                        "id": 12,
                                        "order": 12
                                    },
                                    {
                                        "children": [],
                                        "depth": 2,
                                        "id": 13,
                                        "order": 13
                                    }
                                ],
                                "depth": 1,
                                "id": 6,
                                "order": 6
                            }
                        ],
                        "depth": 0,
                        "id": 0,
                        "order": 0
                    }
                ],
                "depth": -1,
                "id": -1,
                "order": -1
            }
        ],
        "mainTraceNodeCount": 14,
        "parentIdMap": {
            "0": -1,
            "1": 0,
            "10": 6,
            "11": 6,
            "12": 6,
            "13": 6,
            "2": 0,
            "3": 2,
            "4": 0,
            "5": 4,
            "6": 0,
            "7": 6,
            "8": 7,
            "9": 7
        },
        "tidyTrace": [
            {
                "children": [
                    {
                        "children": [
                            {
                                "children": [
                                    {
                                        "children": [],
                                        "depth": 2,
                                        "id": 3,
                                        "order": 3
                                    }
                                ],
                                "depth": 1,
                                "id": 2,
                                "order": 2
                            },
                            {
                                "children": [
                                    {
                                        "children": [],
                                        "depth": 2,
                                        "id": 5,
                                        "order": 5
                                    }
                                ],
                                "depth": 1,
                                "id": 4,
                                "order": 4
                            },
                            {
                                "children": [
                                    {
                                        "children": [
                                            {
                                                "children": [],
                                                "depth": 3,
                                                "id": 8,
                                                "order": 8
                                            },
                                            {
                                                "children": [],
                                                "depth": 3,
                                                "id": 9,
                                                "order": 9
                                            }
                                        ],
                                        "depth": 2,
                                        "id": 7,
                                        "order": 7
                                    },
                                    {
                                        "children": [],
                                        "depth": 2,
                                        "id": 12,
                                        "order": 12
                                    },
                                    {
                                        "children": [],
                                        "depth": 2,
                                        "id": 13,
                                        "order": 13
                                    }
                                ],
                                "depth": 1,
                                "id": 6,
                                "order": 6
                            }
                        ],
                        "depth": 0,
                        "id": 0,
                        "order": 0
                    }
                ],
                "depth": -1,
                "id": -1,
                "order": -1
            }
        ],
        "tidyTraceNodeCount": 11
    },
    "state_change": {
        "stateChanges": [
            {
                "address": "0x5decc091709eb109bab4f1d8d8dcfe249e03573f",
                "erc": "ERC-20",
                "slots": [
                    {
                        "current": "0x60982e4f000000000009d57e6076939a4a920000000000017a61a4656cc735fb",
                        "key": "0x0000000000000000000000000000000000000000000000000000000000000008",
                        "prev": "0x60982e4f00000000000a34b1f259107de4ae0000000000016c80edb1c56335fb"
                    }
                ],
                "storageVariables": [
                    {
                        "name": "reserve0",
                        "type": "uint112",
                        "value": {
                            "current": "27265254374601340411",
                            "prev": "26265254374601340411",
                            "typeTag": 1
                        }
                    },
                    {
                        "name": "reserve1",
                        "type": "uint112",
                        "value": {
                            "current": "181404536102928927378",
                            "prev": "188264523162288252078",
                            "typeTag": 1
                        }
                    },
                    {
                        "name": "blockTimestampLast",
                        "type": "uint32",
                        "value": {
                            "current": "1620586063",
                            "prev": "1620586063",
                            "typeTag": 1
                        }
                    }
                ]
            },
            {
                "address": "0xc02aaa39b223fe8d0a0e5c4f27ead9083c756cc2",
                "erc": "ERC-20",
                "slots": [
                    {
                        "current": "0x0000000000000000000000000000000000000000000000017a61a4656cc735fb",
                        "key": "0x490e774dd4961e9e099e759ebe8640cc16944a76cce4df8c712f4b8c91ec39fb",
                        "prev": "0x0000000000000000000000000000000000000000000000016c80edb1c56335fb"
                    }
                ],
                "storageVariables": [
                    {
                        "name": "balanceOf",
                        "type": "mapping(address => uint256)",
                        "value": {
                            "pairs": [
                                {
                                    "key": "0x5decc091709eb109bab4f1d8d8dcfe249e03573f",
                                    "value": {
                                        "current": "27265254374601340411",
                                        "prev": "26265254374601340411",
                                        "typeTag": 1
                                    }
                                }
                            ],
                            "typeTag": 4
                        }
                    }
                ]
            },
            {
                "address": "0xe1922512914fa1b1309dfedbbdef3836b0abdcb9",
                "erc": "ERC-20",
                "slots": [
                    {
                        "current": "0x00c91454a5935eb344715d0992852f346630ee0dc651ae672b7ef7dfd49f6598",
                        "key": "0x4a309927ef39efaa6b792dcf14db0674e9f9ee8b186cb37bc19dff2948051d23",
                        "prev": "0x00c8afb999efaa59a041eb1e6d86973983d2b61fb4620d069aa6239818a0dd78"
                    },
                    {
                        "current": "0x0000000000000000000000000000000000000000000000002d3f05752e6c5870",
                        "key": "0x0000000000000000000000000000000000000000000000000000000000000008",
                        "prev": "0x0000000000000000000000000000000000000000000000002d270cda7176fb40"
                    },
                    {
                        "current": "0x2945cd9cd32e27d8d7847b3bdf989df5c812d854866f62ad88f52c2d6dcc4057",
                        "key": "0x80394c757dffb86a0affa3ba9da4e36b9945b17e2961108d91ac3f22602d5c88",
                        "prev": "0x2ad6de8b8e8698decc0bd078e24e3425a9983cf58a66a2f2bdbfdacea67334e3"
                    },
                    {
                        "current": "0x0188bf26137c6df366c33e219e46338164e0990e9949f37aca6c0b74ce8da58e",
                        "key": "0x445116d13fb795cc107861c8bf9778f15ede36698de37e4afd03dcf15fefcd67",
                        "prev": "0x00001847cded4d235579c5b8614b0b6d9c7bff0d4ef3ee77cc9b36080a065b5e"
                    },
                    {
                        "current": "0xe3846d30b1135d524ea637a1270b43a59ef20b00ee3ddc28a54ac6fa5868a66c",
                        "key": "0x0000000000000000000000000000000000000000000000000000000000000006",
                        "prev": "0xe38c72a61b38f92e8db4a289c7c719c6d5b49db295ef760a4b6bcbe71089c8a8"
                    },
                    {
                        "current": "0x00000000000000000000000000000000000000000000000662a83729c3a7bef8",
                        "key": "0x0000000000000000000000000000000000000000000000000000000000000007",
                        "prev": "0x00000000000000000000000000000000000000000000000660bf025674aa9a72"
                    }
                ],
                "storageVariables": [
                    {
                        "name": "_rOwned",
                        "type": "mapping(address => uint256)",
                        "value": {
                            "pairs": [
                                {
                                    "key": "0x5decc091709eb109bab4f1d8d8dcfe249e03573f",
                                    "value": {
                                        "current": "18668158325376283459320705251303794146159930610340655389035397500523328061527",
                                        "prev": "19376780862491052270018072938326893911308580534860150614859126759976049259747",
                                        "typeTag": 1
                                    }
                                },
                                {
                                    "key": "0x76f994dbeb2f3b9e77522b800b8b6fa42e5c224c",
                                    "value": {
                                        "current": "693923309475457873686187977662759999449807905272956850761246882266616800654",
                                        "prev": "167577755176234325654676382414820591862000719896185419851430606305385310",
                                        "typeTag": 1
                                    }
                                },
                                {
                                    "key": "0xb28a99ea34f5d826fa91c2bfbc6ad00c4857c5f9",
                                    "value": {
                                        "current": "355276577020063697424808558943698319977423236845107818560297375268763297176",
                                        "prev": "354582222367871902096095015544196605785675866629728045608004848159234776440",
                                        "typeTag": 1
                                    }
                                }
                            ],
                            "typeTag": 4
                        }
                    },
                    {
                        "name": "_tBoostTotal",
                        "type": "uint256",
                        "value": {
                            "current": "3260330656087693424",
                            "prev": "3253583388144499520",
                            "typeTag": 1
                        }
                    },
                    {
                        "name": "_rTotal",
                        "type": "uint256",
                        "value": {
                            "current": "102908994044029698820803951217416265411874175371089244341219418593550297245292",
                            "prev": "102923166494771994196812072059759518283973132020840299128749459874233178507432",
                            "typeTag": 1
                        }
                    },
                    {
                        "name": "_tFeeTotal",
                        "type": "uint256",
                        "value": {
                            "current": "117789457106577374968",
                            "prev": "117651757760797907570",
                            "typeTag": 1
                        }
                    }
                ]
            }
        ]
    }
}