{
    "balance_change": {
        "balanceChanges": [
            {
                "account": "0x966e0171af62be6b3532437201899c06d2188800",
                "assets": [
                    {
                        "address": "0xbbe5f5aa4d39d6c3cc1e4f03a1d96adc8940cf3a",
                        "amount": "3,620",
                        "iconUrl": "",
                        "isERC1155": false,
                        "isERC721": false,
                        "sign": false,
                        "value": ""
                    }
                ]
            },
            {
                "account": "0xb8ddf0d74abaacae222fc71ca20643688fbcb438",
                "assets": [
                    {
                        "address": "0xbbe5f5aa4d39d6c3cc1e4f03a1d96adc8940cf3a",
                        "amount": "3,620",
                        "iconUrl": "",
                        "isERC1155": false,
                        "isERC721": false,
                        "sign": true,
                        "value": ""
                    }
                ]
            }
        ]
    },
    "profile": {
        "basic_info": {
            "baseFee": "",
            "blockNumber": 8698137,
            "callData": "0xa9059cbb000000000000000000000000b8ddf0d74abaacae222fc71ca20643688fbcb438000000000000000000000000000000000000000000000001f6603c3445240000",
            "debugEnable": true,
            "errorInfo": "",
            "eventCount": 1,
            "feeRecipient": "0x5a0b54d5dc17e0aadc383d2db43b0a0d3e029c4c",
            "formatValue": "0",
            "gasLimit": 90000,
            "gasPrice": "5",
            "gasUsed": 51594,
            "intTxnCount": 0,
            "internalRevert": false,
            "internalRevertMessage": "",
            "isContractCreation": false,
            "isFlashloan": false,
            "maxFee": "",
            "nonce": 2285,
            "overwritedBlockNumber": -1,
            "priorityFee": "",
            "receiver": "0xbbe5f5aa4d39d6c3cc1e4f03a1d96adc8940cf3a",
            "revertMessage": "",
            "sender": "0x966e0171af62be6b3532437201899c06d2188800",
            "simulationEnable": true,
            "sourceTxnHash": "0x3aa222aedcf2b247e1008ba36da660cf57a56387394af37682b47e35dc2134f2",
            "status": true,
            "timestamp": "2019-10-08T00:19:40Z",
            "transactionFee": "0.00025797",
            "txnHash": "0x3aa222aedcf2b247e1008ba36da660cf57a56387394af37682b47e35dc2134f2",
            "txnIndex": 47,
            "type": 0,
            "value": "0"
        },
        "fund_flow": [
            {
                "amount": "3,620",
                "from": "0x966e0171af62be6b3532437201899c06d2188800",
                "id": 1,
                "isERC1155": false,
                "isERC721": false,
                "isReverted": false,
                "order": 1,
                "to": "0xb8ddf0d74abaacae222fc71ca20643688fbcb438",
                "token": "0xbbe5f5aa4d39d6c3cc1e4f03a1d96adc8940cf3a"
            }
        ],
        "token_infos": [
            {
                "address": "0xbbe5f5aa4d39d6c3cc1e4f03a1d96adc8940cf3a",
                "decimals": 16
            },
            {
                "address": "0xc02aaa39b223fe8d0a0e5c4f27ead9083c756cc2",
                "decimals": 18
            },
            {
                "address": "0xeeeeeeeeeeeeeeeeeeeeeeeeeeeeeeeeeeeeeeee",
                "decimals": 18
            }
        ]
    },
    "address_label": {
        "labels": [
            {
                "address": "0x0000000000000000000000000000000000000004",
                "label": "Precompiled"
            },
            {
                "address": "0xeeeeeeeeeeeeeeeeeeeeeeeeeeeeeeeeeeeeeeee",
                "label": "Ether"
            },
            {
                "address": "0xbbe5f5aa4d39d6c3cc1e4f03a1d96adc8940cf3a",
                "label": "BICHIP: BICHIP Token"
            },
            {
                "address": "0x0000000000000000000000000000000000000001",
                "label": "Precompiled"
            },
            {
                "address": "0x0000000000000000000000000000000000000002",
                "label": "Precompiled"
            },
            {
                "address": "0x0000000000000000000000000000000000000003",
                "label": "Precompiled"
            }
        ]
    },
    "trace": {
        "accountLabels": null,
        "dataMap": {
            "-1": {
                "invocation": {
                    "address": "0x966e0171af62be6b3532437201899c06d2188800",
                    "callData": "",
                    "decodedMethod": null,
                    "errorInfo": "",
                    "fromAddress": "",
                    "gasUsed": 0,
                    "id": -1,
                    "methodDecoded": false,
                    "operation": "",
                    "output": "",
                    "revert": false,
                    "revertMessage": "",
                    "selector": "",
                    "status": false,
                    "value": ""
                },
                "nodeType": 0
            },
            "0": {
                "invocation": {
                    "address": "0xbbe5f5aa4d39d6c3cc1e4f03a1d96adc8940cf3a",
                    "callData": "0x000000000000000000000000b8ddf0d74abaacae222fc71ca20643688fbcb438000000000000000000000000000000000000000000000001f6603c3445240000",
                    "decodedMethod": {
                        "callParams": [
                            {
                                "name": "to",
                                "type": "address",
                                "value": "0xb8ddf0d74abaacae222fc71ca20643688fbcb438"
                            },
                            {
                                "decimalAvailable": true,
                                "name": "tokens",
                                "type": "uint256",
                                "value": "36,200,000,000,000,000,000"
                            }
                        ],
                        "constructorArguments": "",
                        "name": "transfer",
                        "returnParams": [
                            {
                                "name": "success",
                                "type": "bool",
                                "value": true
                            }
                        ],
                        "signature": "transfer(address,uint256)"
                    },
                    "errorInfo": "",
                    "fromAddress": "0x966e0171af62be6b3532437201899c06d2188800",
                    "gasUsed": 51594,
                    "id": 0,
                    "methodDecoded": true,
                    "operation": "CALL",
                    "output": "0x0000000000000000000000000000000000000000000000000000000000000001",
                    "revert": false,
                    "revertMessage": "",
                    "selector": "0xa9059cbb",
                    "status": true,
                    "value": "0"
                },
                "nodeType": 0
            },
            "1": {
                "event": {
                    "contract": "0xbbe5f5aa4d39d6c3cc1e4f03a1d96adc8940cf3a",
                    "decodedLog": {
                        "name": "Transfer",
                        "params": [
                            {
                                "name": "from",
                                "type": "address",
                                "value": "0x966e0171af62be6b3532437201899c06d2188800"
                            },
                            {
                                "name": "to",
                                "type": "address",
                                "value": "0xb8ddf0d74abaacae222fc71ca20643688fbcb438"
                            },
                            {
                                "decimalAvailable": true,
                                "name": "tokens",
                                "type": "uint256",
                                "value": "36,200,000,000,000,000,000"
                            }
                        ],
                        "signature": "Transfer(address,address,uint256)"
                    },
                    "id": 1,
                    "logData": "0x000000000000000000000000000000000000000000000001f6603c3445240000",
                    "logDecoded": true,
                    "operation": "EVENT",
                    "revert": false,
                    "status": true,
                    "topics": [
                        "0xddf252ad1be2c89b69c2b068fc378daa952ba7f163c4a11628f55a4df523b3ef",
                        "0x000000000000000000000000966e0171af62be6b3532437201899c06d2188800",
                        "0x000000000000000000000000b8ddf0d74abaacae222fc71ca20643688fbcb438"
                    ]
                },
                "nodeType": 1
            }
        },
        "gasFlame": [
            {
                "children": [
                    {
                        "children": [
                            {
                                "children": [],
                                "depth": 0,
                                "name": "Initial Gas",
                                "value": 23256
                            },
                            {
                                "children": [],
                                "depth": 0,
                                "name": "Executed Gas",
                                "value": 28338
                            }
                        ],
                        "depth": -1,
                        "name": "Actual Gas Used",
                        "value": 51594
                    },
                    {
                        "children": [],
                        "depth": -1,
                        "name": "Refunded Gas",
                        "value": 0
                    }
                ],
                "depth": -2,
                "name": "Total Gas",
                "value": 51594
            }
        ],
        "isConfirmed": true,
        "mainTrace": [
            {
                "children": [
                    {
                        "children": [
                            {
                                "children": [],
                                "depth": 1,
                                "id": 1,
                                "order": 1
                            }
                        ],
                        "depth": 0,
                        "id": 0,
                        "order": 0
                    }
                ],
                "depth": -1,
                "id": -1,
                "order": -1
            }
        ],
        "mainTraceNodeCount": 2,
        "parentIdMap": {
            "0": -1,
            "1": 0
        },
        "tidyTrace": [
            {
                "children": [
                    {
                        "children": [
                            {
                                "children": [],
                                "depth": 1,
                                "id": 1,
                                "order": 1
                            }
                        ],
                        "depth": 0,
                        "id": 0,
                        "order": 0
                    }
                ],
                "depth": -1,
                "id": -1,
                "order": -1
            }
        ],
        "tidyTraceNodeCount": 2
    },
    "state_change": {
        "stateChanges": [
            {
                "address": "0xbbe5f5aa4d39d6c3cc1e4f03a1d96adc8940cf3a",
                "erc": "ERC-20",
                "slots": [
                    {
                        "current": "0x000000000000000000000000000000000000000000006852556305743cea0000",
                        "key": "0x18d1aea500e5e3682ffc0fd0cc3a6fea1d75938e7fb4df7792f0ffb16c0a1579",
                        "prev": "0x0000000000000000000000000000000000000000000068544bc341a8820e0000"
                    },
                    {
                        "current": "0x000000000000000000000000000000000000000000000001f6603c3445240000",
                        "key": "0xc7437e27adc83316b2ad7fd7d0e1df3e8bf8429949a3f56996069fa7a1e6ab93",
                        "prev": "0x0000000000000000000000000000000000000000000000000000000000000000"
                    }
                ],
                "storageVariables": [
                    {
                        "name": "balances",
                        "type": "mapping(address => uint256)",
                        "value": {
                            "pairs": [
                                {
                                    "key": "0x966e0171af62be6b3532437201899c06d2188800",
                                    "value": {
                                        "current": "492644900000000000000000",
                                        "prev": "492681100000000000000000",
                                        "typeTag": 1
                                    }
                                },
                                {
                                    "key": "0xb8ddf0d74abaacae222fc71ca20643688fbcb438",
                                    "value": {
                                        "current": "36200000000000000000",
                                        "prev": "0",
                                        "typeTag": 1
                                    }
                                }
                            ],
                            "typeTag": 4
                        }
                    }
                ]
            }
        ]
    }
}