{
    "balance_change": {
        "balanceChanges": [
            {
                "account": "0x0536806df512d6cdde913cf95c9886f65b1d3462",
                "assets": [
                    {
                        "address": "0xa74476443119a942de498590fe1f2454d7d4ac0d",
                        "amount": "16,751.03417746",
                        "iconUrl": "",
                        "isERC1155": false,
                        "isERC721": false,
                        "sign": false,
                        "value": ""
                    }
                ]
            },
            {
                "account": "0x434e165531e65f2222a7680f520c2c3b22cc1974",
                "assets": [
                    {
                        "address": "0xa74476443119a942de498590fe1f2454d7d4ac0d",
                        "amount": "16,751.03417746",
                        "iconUrl": "",
                        "isERC1155": false,
                        "isERC721": false,
                        "sign": true,
                        "value": ""
                    }
                ]
            }
        ]
    },
    "profile": {
        "basic_info": {
            "baseFee": "",
            "blockNumber": 3898831,
            "callData": "0xa9059cbb000000000000000000000000434e165531e65f2222a7680f520c2c3b22cc197400000000000000000000000000000000000000000000038c134c419dfafc0800",
            "debugEnable": true,
            "errorInfo": "",
            "eventCount": 1,
            "feeRecipient": "0x61c808d82a3ac53231750dadc13c777b59310bd9",
            "formatValue": "0",
            "gasLimit": 90000,
            "gasPrice": "30",
            "gasUsed": 36912,
            "intTxnCount": 0,
            "internalRevert": false,
            "internalRevertMessage": "",
            "isContractCreation": false,
            "isFlashloan": false,
            "maxFee": "",
            "nonce": 78370,
            "overwritedBlockNumber": -1,
            "priorityFee": "",
            "receiver": "0xa74476443119a942de498590fe1f2454d7d4ac0d",
            "revertMessage": "",
            "sender": "0x0536806df512d6cdde913cf95c9886f65b1d3462",
            "simulationEnable": true,
            "sourceTxnHash": "0x3a8a122c110a1bbcba7f3fa071e37f0db4472ed78c8f8b5d71068b3ccf08e6cf",
            "status": true,
            "timestamp": "2017-06-19T15:51:00Z",
            "transactionFee": "0.00110736",
            "txnHash": "0x3a8a122c110a1bbcba7f3fa071e37f0db4472ed78c8f8b5d71068b3ccf08e6cf",
            "txnIndex": 13,
            "type": 0,
            "value": "0"
        },
        "fund_flow": [
            {
                "amount": "16,751.03417746",
                "from": "0x0536806df512d6cdde913cf95c9886f65b1d3462",
                "id": 1,
                "isERC1155": false,
                "isERC721": false,
                "isReverted": false,
                "order": 1,
                "to": "0x434e165531e65f2222a7680f520c2c3b22cc1974",
                "token": "0xa74476443119a942de498590fe1f2454d7d4ac0d"
            }
        ],
        "token_infos": [
            {
                "address": "0xc02aaa39b223fe8d0a0e5c4f27ead9083c756cc2",
                "decimals": 18
            },
            {
                "address": "0xeeeeeeeeeeeeeeeeeeeeeeeeeeeeeeeeeeeeeeee",
                "decimals": 18
            },
            {
                "address": "0xa74476443119a942de498590fe1f2454d7d4ac0d",
                "decimals": 18
            }
        ]
    },
    "address_label": {
        "labels": [
            {
                "address": "0x434e165531e65f2222a7680f520c2c3b22cc1974",
                "label": "YUNBI"
            },
            {
                "address": "0x0536806df512d6cdde913cf95c9886f65b1d3462",
                "label": "Poloniex: GNT"
            },
            {
                "address": "0xa74476443119a942de498590fe1f2454d7d4ac0d",
                "label": "Golem Token"
            },
            {
                "address": "0x0000000000000000000000000000000000000001",
                "label": "Precompiled"
            },
            {
                "address": "0x0000000000000000000000000000000000000002",
                "label": "Precompiled"
            },
            {
                "address": "0x0000000000000000000000000000000000000003",
                "label": "Precompiled"
            },
            {
                "address": "0x0000000000000000000000000000000000000004",
                "label": "Precompiled"
            },
            {
                "address": "0xeeeeeeeeeeeeeeeeeeeeeeeeeeeeeeeeeeeeeeee",
                "label": "Ether"
            }
        ]
    },
    "trace": {
        "accountLabels": null,
        "dataMap": {
            "-1": {
                "invocation": {
                    "address": "0x0536806df512d6cdde913cf95c9886f65b1d3462",
                    "callData": "",
                    "decodedMethod": null,
                    "errorInfo": "",
                    "fromAddress": "",
                    "gasUsed": 0,
                    "id": -1,
                    "methodDecoded": false,
                    "operation": "",
                    "output": "",
                    "revert": false,
                    "revertMessage": "",
                    "selector": "",
                    "status": false,
                    "value": ""
                },
                "nodeType": 0
            },
            "0": {
                "invocation": {
                    "address": "0xa74476443119a942de498590fe1f2454d7d4ac0d",
                    "callData": "0x000000000000000000000000434e165531e65f2222a7680f520c2c3b22cc197400000000000000000000000000000000000000000000038c134c419dfafc0800",
                    "decodedMethod": {
                        "callParams": [
                            {
                                "name": "_to",
                                "type": "address",
                                "value": "0x434e165531e65f2222a7680f520c2c3b22cc1974"
                            },
                            {
                                "decimalAvailable": true,
                                "name": "_value",
                                "type": "uint256",
                                "value": "16,751,034,177,460,000,000,000"
                            }
                        ],
                        "constructorArguments": "",
                        "name": "transfer",
                        "returnParams": [
                            {
                                "name": "",
                                "type": "bool",
                                "value": true
                            }
                        ],
                        "signature": "transfer(address,uint256)"
                    },
                    "errorInfo": "",
                    "fromAddress": "0x0536806df512d6cdde913cf95c9886f65b1d3462",
                    "gasUsed": 36912,
                    "id": 0,
                    "methodDecoded": true,
                    "operation": "CALL",
                    "output": "0x0000000000000000000000000000000000000000000000000000000000000001",
                    "revert": false,
                    "revertMessage": "",
                    "selector": "0xa9059cbb",
                    "status": true,
                    "value": "0"
                },
                "nodeType": 0
            },
            "1": {
                "event": {
                    "contract": "0xa74476443119a942de498590fe1f2454d7d4ac0d",
                    "decodedLog": {
                        "name": "Transfer",
                        "params": [
                            {
                                "name": "_from",
                                "type": "address",
                                "value": "0x0536806df512d6cdde913cf95c9886f65b1d3462"
                            },
                            {
                                "name": "_to",
                                "type": "address",
                                "value": "0x434e165531e65f2222a7680f520c2c3b22cc1974"
                            },
                            {
                                "decimalAvailable": true,
                                "name": "_value",
                                "type": "uint256",
                                "value": "16,751,034,177,460,000,000,000"
                            }
                        ],
                        "signature": "Transfer(address,address,uint256)"
                    },
                    "id": 1,
                    "logData": "0x00000000000000000000000000000000000000000000038c134c419dfafc0800",
                    "logDecoded": true,
                    "operation": "EVENT",
                    "revert": false,
                    "status": true,
                    "topics": [
                        "0xddf252ad1be2c89b69c2b068fc378daa952ba7f163c4a11628f55a4df523b3ef",
                        "0x0000000000000000000000000536806df512d6cdde913cf95c9886f65b1d3462",
                        "0x000000000000000000000000434e165531e65f2222a7680f520c2c3b22cc1974"
                    ]
                },
                "nodeType": 1
            }
        },
        "gasFlame": [
            {
                "children": [
                    {
                        "children": [
                            {
                                "children": [],
                                "depth": 0,
                                "name": "Initial Gas",
                                "value": 23384
                            },
                            {
                                "children": [],
                                "depth": 0,
                                "name": "Executed Gas",
                                "value": 13528
                            }
                        ],
                        "depth": -1,
                        "name": "Actual Gas Used",
                        "value": 36912
                    },
                    {
                        "children": [],
                        "depth": -1,
                        "name": "Refunded Gas",
                        "value": 0
                    }
                ],
                "depth": -2,
                "name": "Total Gas",
                "value": 36912
            }
        ],
        "isConfirmed": true,
        "mainTrace": [
            {
                "children": [
                    {
                        "children": [
                            {
                                "children": [],
                                "depth": 1,
                                "id": 1,
                                "order": 1
                            }
                        ],
                        "depth": 0,
                        "id": 0,
                        "order": 0
                    }
                ],
                "depth": -1,
                "id": -1,
                "order": -1
            }
        ],
        "mainTraceNodeCount": 2,
        "parentIdMap": {
            "0": -1,
            "1": 0
        },
        "tidyTrace": [
            {
                "children": [
                    {
                        "children": [
                            {
                                "children": [],
                                "depth": 1,
                                "id": 1,
                                "order": 1
                            }
                        ],
                        "depth": 0,
                        "id": 0,
                        "order": 0
                    }
                ],
                "depth": -1,
                "id": -1,
                "order": -1
            }
        ],
        "tidyTraceNodeCount": 2
    },
    "state_change": {
        "stateChanges": [
            {
                "address": "0xa74476443119a942de498590fe1f2454d7d4ac0d",
                "erc": "",
                "slots": [
                    {
                        "current": "0x0000000000000000000000000000000000000000001bd33e4b194a867546d92c",
                        "key": "0x90f7c6f35264a4491ff3c63cdcd90fc0236881fe103c14feca404eb3a0d47153",
                        "prev": "0x0000000000000000000000000000000000000000001bd6ca5e658c247042e12c"
                    },
                    {
                        "current": "0x000000000000000000000000000000000000000000000c4d8b963b4cc11bd400",
                        "key": "0x2cd5f2881e48fd6bf5a2fe342223b0ba6f6a74ece511a66aa3929b68478e6b06",
                        "prev": "0x0000000000000000000000000000000000000000000008c17849f9aec61fcc00"
                    }
                ],
                "storageVariables": []
            }
        ]
    }
}