{
    "balance_change": {
        "balanceChanges": [
            {
                "account": "0x147b12c06d9e8e3837280f783fd8070848d4412e",
                "assets": [
                    {
                        "address": "0xc02aaa39b223fe8d0a0e5c4f27ead9083c756cc2",
                        "amount": "0.013452195587081272",
                        "iconUrl": "https://assets.blocksec.com/icon/f1cb2d02c471d545bbc7722daf3277fd852d98e63d118771af7047bd8256c516.png",
                        "isERC1155": false,
                        "isERC721": false,
                        "sign": false,
                        "value": "31.013653047439446257"
                    }
                ]
            },
            {
                "account": "0xb31a2947ecb648b94d91a8ce019a80d12d2c1c52",
                "assets": [
                    {
                        "address": "0xeeeeeeeeeeeeeeeeeeeeeeeeeeeeeeeeeeeeeeee",
                        "amount": "0.013452195587081272",
                        "iconUrl": "https://assets.blocksec.com/image/1663669189317-3.png",
                        "isERC1155": false,
                        "isERC721": false,
                        "sign": true,
                        "value": "31.013653047439446257"
                    }
                ]
            },
            {
                "account": "0xc02aaa39b223fe8d0a0e5c4f27ead9083c756cc2",
                "assets": [
                    {
                        "address": "0xeeeeeeeeeeeeeeeeeeeeeeeeeeeeeeeeeeeeeeee",
                        "amount": "0.013452195587081272",
                        "iconUrl": "https://assets.blocksec.com/image/1663669189317-3.png",
                        "isERC1155": false,
                        "isERC721": false,
                        "sign": false,
                        "value": "31.013653047439446257"
                    },
                    {
                        "address": "0xc02aaa39b223fe8d0a0e5c4f27ead9083c756cc2",
                        "amount": "0.013452195587081272",
                        "iconUrl": "https://assets.blocksec.com/icon/f1cb2d02c471d545bbc7722daf3277fd852d98e63d118771af7047bd8256c516.png",
                        "isERC1155": false,
                        "isERC721": false,
                        "sign": true,
                        "value": "31.013653047439446257"
                    }
                ]
            }
        ]
    },
    "profile": {
        "basic_info": {
            "baseFee": "20.256389615",
            "blockNumber": 19125450,
            "callData": "0x44b8be68000000000000000000000000adde7028e7ec226777e5dea5d53f6457c21ec7d6000000000000000000000000b31a2947ecb648b94d91a8ce019a80d12d2c1c52000000000000000000000000c02aaa39b223fe8d0a0e5c4f27ead9083c756cc2000000000000000000000000000000000000000000000000003ce27066ed3e08000000000000000000000000000000000000000000000000003ce27066ed3e080000000000000000000000000000000000000000000000000000000000000001000000000000000000000000000000000000000000000000000000000000014400000000000000000000000000000000000000000000000000016b90ac924b4300000000000000000000000000000000000000000000000002fa8ff6072fb8e5000000000000000000000000000000000000000000000000000000000016ecc50000000000000000000000000000000000000000000000000000000000000180ffffffffffffffffffffffffffffffffffffffffffffffffffffffffffffffff0000000000000000000000000000000000000000000000000000000000000000",
            "debugEnable": true,
            "errorInfo": "",
            "eventCount": 3,
            "feeRecipient": "0x95222290dd7278aa3ddd389cc1e1d165cc4bafe5",
            "formatValue": "0",
            "gasLimit": 251732,
            "gasPrice": "27.955978991",
            "gasUsed": 111056,
            "intTxnCount": 6,
            "internalRevert": false,
            "internalRevertMessage": "",
            "isContractCreation": false,
            "isFlashloan": false,
            "maxFee": "58.783689417",
            "nonce": 6235,
            "overwritedBlockNumber": -1,
            "priorityFee": "7.699589376",
            "receiver": "0x5c7bcd6e7de5423a257d81b442095a1a6ced35c5",
            "revertMessage": "",
            "sender": "0x147b12c06d9e8e3837280f783fd8070848d4412e",
            "simulationEnable": true,
            "sourceTxnHash": "0x3bd08692208716bffae693b7765960269b16a1581c506e08387dbf87e35ab28d",
            "status": true,
            "timestamp": "2024-01-31T09:03:59Z",
            "transactionFee": "0.003104679202824496",
            "txnHash": "0x3bd08692208716bffae693b7765960269b16a1581c506e08387dbf87e35ab28d",
            "txnIndex": 12,
            "type": 2,
            "value": "0"
        },
        "fund_flow": [
            {
                "amount": "0.013452195587081272",
                "from": "0x147b12c06d9e8e3837280f783fd8070848d4412e",
                "id": 1,
                "isERC1155": false,
                "isERC721": false,
                "isReverted": false,
                "order": 1,
                "to": "0x5c7bcd6e7de5423a257d81b442095a1a6ced35c5",
                "token": "0xc02aaa39b223fe8d0a0e5c4f27ead9083c756cc2"
            },
            {
                "amount": "0.013452195587081272",
                "from": "0xc02aaa39b223fe8d0a0e5c4f27ead9083c756cc2",
                "id": 2,
                "isERC1155": false,
                "isERC721": false,
                "isReverted": false,
                "order": 2,
                "to": "0x5c7bcd6e7de5423a257d81b442095a1a6ced35c5",
                "token": "0xeeeeeeeeeeeeeeeeeeeeeeeeeeeeeeeeeeeeeeee"
            },
            {
                "amount": "0.013452195587081272",
                "from": "0x5c7bcd6e7de5423a257d81b442095a1a6ced35c5",
                "id": 3,
                "isERC1155": false,
                "isERC721": false,
                "isReverted": false,
                "order": 3,
                "to": "0xc02aaa39b223fe8d0a0e5c4f27ead9083c756cc2",
                "token": "0xc02aaa39b223fe8d0a0e5c4f27ead9083c756cc2"
            },
            {
                "amount": "0.013452195587081272",
                "from": "0x5c7bcd6e7de5423a257d81b442095a1a6ced35c5",
                "id": 4,
                "isERC1155": false,
                "isERC721": false,
                "isReverted": false,
                "order": 4,
                "to": "0xb31a2947ecb648b94d91a8ce019a80d12d2c1c52",
                "token": "0xeeeeeeeeeeeeeeeeeeeeeeeeeeeeeeeeeeeeeeee"
            }
        ],
        "token_infos": [
            {
                "address": "0xc02aaa39b223fe8d0a0e5c4f27ead9083c756cc2",
                "decimals": 18
            },
            {
                "address": "0xeeeeeeeeeeeeeeeeeeeeeeeeeeeeeeeeeeeeeeee",
                "decimals": 18
            }
        ]
    },
    "address_label": {
        "labels": [
            {
                "address": "0x0000000000000000000000000000000000000004",
                "label": "Precompiled"
            },
            {
                "address": "0xeeeeeeeeeeeeeeeeeeeeeeeeeeeeeeeeeeeeeeee",
                "label": "Ether"
            },
            {
                "address": "0x5c7bcd6e7de5423a257d81b442095a1a6ced35c5",
                "label": "Across Protocol: Ethereum Spoke Pool V2"
            },
            {
                "address": "0xc02aaa39b223fe8d0a0e5c4f27ead9083c756cc2",
                "label": "Wrapped Ether (WETH)"
            },
            {
                "address": "0x5ab0a812327ad959de664aec8408ef8c6abe7184",
                "label": "Ethereum_SpokePool"
            },
            {
                "address": "0x0000000000000000000000000000000000000001",
                "label": "Precompiled"
            },
            {
                "address": "0x0000000000000000000000000000000000000002",
                "label": "Precompiled"
            },
            {
                "address": "0x0000000000000000000000000000000000000003",
                "label": "Precompiled"
            }
        ]
    },
    "trace": {
        "accountLabels": null,
        "dataMap": {
            "-1": {
                "invocation": {
                    "address": "0x147b12c06d9e8e3837280f783fd8070848d4412e",
                    "callData": "",
                    "decodedMethod": null,
                    "errorInfo": "",
                    "fromAddress": "",
                    "gasUsed": 0,
                    "id": -1,
                    "methodDecoded": false,
                    "operation": "",
                    "output": "",
                    "revert": false,
                    "revertMessage": "",
                    "selector": "",
                    "status": false,
                    "value": ""
                },
                "nodeType": 0
            },
            "0": {
                "invocation": {
                    "address": "0x5c7bcd6e7de5423a257d81b442095a1a6ced35c5",
                    "callData": "0x000000000000000000000000adde7028e7ec226777e5dea5d53f6457c21ec7d6000000000000000000000000b31a2947ecb648b94d91a8ce019a80d12d2c1c52000000000000000000000000c02aaa39b223fe8d0a0e5c4f27ead9083c756cc2000000000000000000000000000000000000000000000000003ce27066ed3e08000000000000000000000000000000000000000000000000003ce27066ed3e080000000000000000000000000000000000000000000000000000000000000001000000000000000000000000000000000000000000000000000000000000014400000000000000000000000000000000000000000000000000016b90ac924b4300000000000000000000000000000000000000000000000002fa8ff6072fb8e5000000000000000000000000000000000000000000000000000000000016ecc50000000000000000000000000000000000000000000000000000000000000180ffffffffffffffffffffffffffffffffffffffffffffffffffffffffffffffff0000000000000000000000000000000000000000000000000000000000000000",
                    "decodedMethod": {
                        "callParams": [
                            {
                                "name": "depositor",
                                "type": "address",
                                "value": "0xadde7028e7ec226777e5dea5d53f6457c21ec7d6"
                            },
                            {
                                "name": "recipient",
                                "type": "address",
                                "value": "0xb31a2947ecb648b94d91a8ce019a80d12d2c1c52"
                            },
                            {
                                "name": "destinationToken",
                                "type": "address",
                                "value": "0xc02aaa39b223fe8d0a0e5c4f27ead9083c756cc2"
                            },
                            {
                                "name": "amount",
                                "type": "uint256",
                                "value": "17,137,470,993,677,832"
                            },
                            {
                                "name": "maxTokensToSend",
                                "type": "uint256",
                                "value": "17,137,470,993,677,832"
                            },
                            {
                                "name": "repaymentChainId",
                                "type": "uint256",
                                "value": "1"
                            },
                            {
                                "name": "originChainId",
                                "type": "uint256",
                                "value": "324"
                            },
                            {
                                "name": "realizedLpFeePct",
                                "type": "int64",
                                "value": "399,744,091,441,987"
                            },
                            {
                                "name": "relayerFeePct",
                                "type": "int64",
                                "value": "214,642,219,098,814,693"
                            },
                            {
                                "name": "depositId",
                                "type": "uint32",
                                "value": "1,502,405"
                            },
                            {
                                "name": "message",
                                "type": "bytes",
                                "value": "0x"
                            },
                            {
                                "name": "maxCount",
                                "type": "uint256",
                                "value": "115,792,089,237,316,195,423,570,985,008,687,907,853,269,984,665,640,564,039,457,584,007,913,129,639,935"
                            }
                        ],
                        "constructorArguments": "",
                        "name": "fillRelay",
                        "returnParams": [],
                        "signature": "fillRelay(address,address,address,uint256,uint256,uint256,uint256,int64,int64,uint32,bytes,uint256)"
                    },
                    "errorInfo": "",
                    "fromAddress": "0x147b12c06d9e8e3837280f783fd8070848d4412e",
                    "gasUsed": 111056,
                    "id": 0,
                    "methodDecoded": true,
                    "operation": "CALL",
                    "output": "",
                    "revert": false,
                    "revertMessage": "",
                    "selector": "0x44b8be68",
                    "status": true,
                    "value": "0"
                },
                "nodeType": 0
            },
            "1": {
                "invocation": {
                    "address": "0x5ab0a812327ad959de664aec8408ef8c6abe7184",
                    "callData": "0x000000000000000000000000adde7028e7ec226777e5dea5d53f6457c21ec7d6000000000000000000000000b31a2947ecb648b94d91a8ce019a80d12d2c1c52000000000000000000000000c02aaa39b223fe8d0a0e5c4f27ead9083c756cc2000000000000000000000000000000000000000000000000003ce27066ed3e08000000000000000000000000000000000000000000000000003ce27066ed3e080000000000000000000000000000000000000000000000000000000000000001000000000000000000000000000000000000000000000000000000000000014400000000000000000000000000000000000000000000000000016b90ac924b4300000000000000000000000000000000000000000000000002fa8ff6072fb8e5000000000000000000000000000000000000000000000000000000000016ecc50000000000000000000000000000000000000000000000000000000000000180ffffffffffffffffffffffffffffffffffffffffffffffffffffffffffffffff0000000000000000000000000000000000000000000000000000000000000000",
                    "decodedMethod": {
                        "callParams": [
                            {
                                "name": "depositor",
                                "type": "address",
                                "value": "0xadde7028e7ec226777e5dea5d53f6457c21ec7d6"
                            },
                            {
                                "name": "recipient",
                                "type": "address",
                                "value": "0xb31a2947ecb648b94d91a8ce019a80d12d2c1c52"
                            },
                            {
                                "name": "destinationToken",
                                "type": "address",
                                "value": "0xc02aaa39b223fe8d0a0e5c4f27ead9083c756cc2"
                            },
                            {
                                "name": "amount",
                                "type": "uint256",
                                "value": "17,137,470,993,677,832"
                            },
                            {
                                "name": "maxTokensToSend",
                                "type": "uint256",
                                "value": "17,137,470,993,677,832"
                            },
                            {
                                "name": "repaymentChainId",
                                "type": "uint256",
                                "value": "1"
                            },
                            {
                                "name": "originChainId",
                                "type": "uint256",
                                "value": "324"
                            },
                            {
                                "name": "realizedLpFeePct",
                                "type": "int64",
                                "value": "399,744,091,441,987"
                            },
                            {
                                "name": "relayerFeePct",
                                "type": "int64",
                                "value": "214,642,219,098,814,693"
                            },
                            {
                                "name": "depositId",
                                "type": "uint32",
                                "value": "1,502,405"
                            },
                            {
                                "name": "message",
                                "type": "bytes",
                                "value": "0x"
                            },
                            {
                                "name": "maxCount",
                                "type": "uint256",
                                "value": "115,792,089,237,316,195,423,570,985,008,687,907,853,269,984,665,640,564,039,457,584,007,913,129,639,935"
                            }
                        ],
                        "constructorArguments": "",
                        "name": "fillRelay",
                        "returnParams": [],
                        "signature": "fillRelay(address,address,address,uint256,uint256,uint256,uint256,int64,int64,uint32,bytes,uint256)"
                    },
                    "errorInfo": "",
                    "fromAddress": "0x5c7bcd6e7de5423a257d81b442095a1a6ced35c5",
                    "gasUsed": 87416,
                    "id": 1,
                    "methodDecoded": true,
                    "operation": "DELEGATECALL",
                    "output": "",
                    "revert": false,
                    "revertMessage": "",
                    "selector": "0x44b8be68",
                    "status": true,
                    "value": "0"
                },
                "nodeType": 0
            },
            "2": {
                "invocation": {
                    "address": "0xc02aaa39b223fe8d0a0e5c4f27ead9083c756cc2",
                    "callData": "0x000000000000000000000000147b12c06d9e8e3837280f783fd8070848d4412e0000000000000000000000005c7bcd6e7de5423a257d81b442095a1a6ced35c5000000000000000000000000000000000000000000000000002fcab35b6ac438",
                    "decodedMethod": {
                        "callParams": [
                            {
                                "name": "src",
                                "type": "address",
                                "value": "0x147b12c06d9e8e3837280f783fd8070848d4412e"
                            },
                            {
                                "name": "dst",
                                "type": "address",
                                "value": "0x5c7bcd6e7de5423a257d81b442095a1a6ced35c5"
                            },
                            {
                                "decimalAvailable": true,
                                "name": "wad",
                                "type": "uint256",
                                "value": "13,452,195,587,081,272"
                            }
                        ],
                        "constructorArguments": "",
                        "name": "transferFrom",
                        "returnParams": [
                            {
                                "name": "",
                                "type": "bool",
                                "value": true
                            }
                        ],
                        "signature": "transferFrom(address,address,uint256)"
                    },
                    "errorInfo": "",
                    "fromAddress": "0x5c7bcd6e7de5423a257d81b442095a1a6ced35c5",
                    "gasUsed": 15025,
                    "id": 2,
                    "methodDecoded": true,
                    "operation": "CALL",
                    "output": "0x0000000000000000000000000000000000000000000000000000000000000001",
                    "revert": false,
                    "revertMessage": "",
                    "selector": "0x23b872dd",
                    "status": true,
                    "value": "0"
                },
                "nodeType": 0
            },
            "3": {
                "event": {
                    "contract": "0xc02aaa39b223fe8d0a0e5c4f27ead9083c756cc2",
                    "decodedLog": {
                        "name": "Transfer",
                        "params": [
                            {
                                "name": "src",
                                "type": "address",
                                "value": "0x147b12c06d9e8e3837280f783fd8070848d4412e"
                            },
                            {
                                "name": "dst",
                                "type": "address",
                                "value": "0x5c7bcd6e7de5423a257d81b442095a1a6ced35c5"
                            },
                            {
                                "decimalAvailable": true,
                                "name": "wad",
                                "type": "uint256",
                                "value": "13,452,195,587,081,272"
                            }
                        ],
                        "signature": "Transfer(address,address,uint256)"
                    },
                    "id": 3,
                    "logData": "0x000000000000000000000000000000000000000000000000002fcab35b6ac438",
                    "logDecoded": true,
                    "operation": "EVENT",
                    "revert": false,
                    "status": true,
                    "topics": [
                        "0xddf252ad1be2c89b69c2b068fc378daa952ba7f163c4a11628f55a4df523b3ef",
                        "0x000000000000000000000000147b12c06d9e8e3837280f783fd8070848d4412e",
                        "0x0000000000000000000000005c7bcd6e7de5423a257d81b442095a1a6ced35c5"
                    ]
                },
                "nodeType": 1
            },
            "4": {
                "invocation": {
                    "address": "0xc02aaa39b223fe8d0a0e5c4f27ead9083c756cc2",
                    "callData": "0x000000000000000000000000000000000000000000000000002fcab35b6ac438",
                    "decodedMethod": {
                        "callParams": [
                            {
                                "name": "wad",
                                "type": "uint256",
                                "value": "13,452,195,587,081,272"
                            }
                        ],
                        "constructorArguments": "",
                        "name": "withdraw",
                        "returnParams": [],
                        "signature": "withdraw(uint256)"
                    },
                    "errorInfo": "",
                    "fromAddress": "0x5c7bcd6e7de5423a257d81b442095a1a6ced35c5",
                    "gasUsed": 9601,
                    "id": 4,
                    "methodDecoded": true,
                    "operation": "CALL",
                    "output": "",
                    "revert": false,
                    "revertMessage": "",
                    "selector": "0x2e1a7d4d",
                    "status": true,
                    "value": "0"
                },
                "nodeType": 0
            },
            "5": {
                "invocation": {
                    "address": "0x5c7bcd6e7de5423a257d81b442095a1a6ced35c5",
                    "callData": "0x",
                    "decodedMethod": null,
                    "errorInfo": "",
                    "fromAddress": "0xc02aaa39b223fe8d0a0e5c4f27ead9083c756cc2",
                    "gasUsed": 461,
                    "id": 5,
                    "methodDecoded": false,
                    "operation": "CALL",
                    "output": "",
                    "revert": false,
                    "revertMessage": "",
                    "selector": "fallback",
                    "status": true,
                    "value": "0.013452195587081272"
                },
                "nodeType": 0
            },
            "6": {
                "invocation": {
                    "address": "0x5ab0a812327ad959de664aec8408ef8c6abe7184",
                    "callData": "0x",
                    "decodedMethod": null,
                    "errorInfo": "",
                    "fromAddress": "0x5c7bcd6e7de5423a257d81b442095a1a6ced35c5",
                    "gasUsed": 62,
                    "id": 6,
                    "methodDecoded": false,
                    "operation": "DELEGATECALL",
                    "output": "",
                    "revert": false,
                    "revertMessage": "",
                    "selector": "fallback",
                    "status": true,
                    "value": "0.013452195587081272"
                },
                "nodeType": 0
            },
            "7": {
                "event": {
                    "contract": "0xc02aaa39b223fe8d0a0e5c4f27ead9083c756cc2",
                    "decodedLog": {
                        "name": "Withdrawal",
                        "params": [
                            {
                                "name": "src",
                                "type": "address",
                                "value": "0x5c7bcd6e7de5423a257d81b442095a1a6ced35c5"
                            },
                            {
                                "name": "wad",
                                "type": "uint256",
                                "value": "13,452,195,587,081,272"
                            }
                        ],
                        "signature": "Withdrawal(address,uint256)"
                    },
                    "id": 7,
                    "logData": "0x000000000000000000000000000000000000000000000000002fcab35b6ac438",
                    "logDecoded": true,
                    "operation": "EVENT",
                    "revert": false,
                    "status": true,
                    "topics": [
                        "0x7fcf532c15f0a6db0bd6d0e038bea71d30d808c7d98cb3bf7268a95bf5081b65",
                        "0x0000000000000000000000005c7bcd6e7de5423a257d81b442095a1a6ced35c5"
                    ]
                },
                "nodeType": 1
            },
            "8": {
                "invocation": {
                    "address": "0xb31a2947ecb648b94d91a8ce019a80d12d2c1c52",
                    "callData": "0x",
                    "decodedMethod": null,
                    "errorInfo": "",
                    "fromAddress": "0x5c7bcd6e7de5423a257d81b442095a1a6ced35c5",
                    "gasUsed": 0,
                    "id": 8,
                    "methodDecoded": false,
                    "operation": "CALL",
                    "output": "",
                    "revert": false,
                    "revertMessage": "",
                    "selector": "fallback",
                    "status": true,
                    "value": "0.013452195587081272"
                },
                "nodeType": 0
            },
            "9": {
                "event": {
                    "contract": "0x5c7bcd6e7de5423a257d81b442095a1a6ced35c5",
                    "decodedLog": {
                        "name": "FilledRelay",
                        "params": [
                            {
                                "name": "originChainId",
                                "type": "uint256",
                                "value": "324"
                            },
                            {
                                "name": "depositId",
                                "type": "uint32",
                                "value": "1,502,405"
                            },
                            {
                                "name": "depositor",
                                "type": "address",
                                "value": "0xadde7028e7ec226777e5dea5d53f6457c21ec7d6"
                            },
                            {
                                "name": "amount",
                                "type": "uint256",
                                "value": "17,137,470,993,677,832"
                            },
                            {
                                "name": "totalFilledAmount",
                                "type": "uint256",
                                "value": "17,137,470,993,677,832"
                            },
                            {
                                "name": "fillAmount",
                                "type": "uint256",
                                "value": "17,137,470,993,677,832"
                            },
                            {
                                "name": "repaymentChainId",
                                "type": "uint256",
                                "value": "1"
                            },
                            {
                                "name": "destinationChainId",
                                "type": "uint256",
                                "value": "1"
                            },
                            {
                                "name": "relayerFeePct",
                                "type": "int64",
                                "value": "214,642,219,098,814,693"
                            },
                            {
                                "name": "realizedLpFeePct",
                                "type": "int64",
                                "value": "399,744,091,441,987"
                            },
                            {
                                "name": "destinationToken",
                                "type": "address",
                                "value": "0xc02aaa39b223fe8d0a0e5c4f27ead9083c756cc2"
                            },
                            {
                                "name": "relayer",
                                "type": "address",
                                "value": "0x147b12c06d9e8e3837280f783fd8070848d4412e"
                            },
                            {
                                "name": "recipient",
                                "type": "address",
                                "value": "0xb31a2947ecb648b94d91a8ce019a80d12d2c1c52"
                            },
                            {
                                "name": "message",
                                "type": "bytes",
                                "value": "0x"
                            },
                            {
                                "name": "updatableRelayData",
                                "type": "(address,bytes,int64,bool,int256)",
                                "value": [
                                    {
                                        "name": "recipient",
                                        "type": "address",
                                        "value": "0xb31a2947ecb648b94d91a8ce019a80d12d2c1c52"
                                    },
                                    {
                                        "name": "message",
                                        "type": "bytes",
                                        "value": "0x"
                                    },
                                    {
                                        "name": "relayerFeePct",
                                        "type": "int64",
                                        "value": "214,642,219,098,814,693"
                                    },
                                    {
                                        "name": "isSlowRelay",
                                        "type": "bool",
                                        "value": false
                                    },
                                    {
                                        "name": "payoutAdjustmentPct",
                                        "type": "int256",
                                        "value": "0"
                                    }
                                ]
                            }
                        ],
                        "signature": "FilledRelay(uint256,uint256,uint256,uint256,uint256,uint256,int64,int64,uint32,address,address,address,address,bytes,(address,bytes,int64,bool,int256))"
                    },
                    "id": 9,
                    "logData": "0x000000000000000000000000000000000000000000000000003ce27066ed3e08000000000000000000000000000000000000000000000000003ce27066ed3e08000000000000000000000000000000000000000000000000003ce27066ed3e080000000000000000000000000000000000000000000000000000000000000001000000000000000000000000000000000000000000000000000000000000000100000000000000000000000000000000000000000000000002fa8ff6072fb8e500000000000000000000000000000000000000000000000000016b90ac924b43000000000000000000000000c02aaa39b223fe8d0a0e5c4f27ead9083c756cc2000000000000000000000000147b12c06d9e8e3837280f783fd8070848d4412e000000000000000000000000b31a2947ecb648b94d91a8ce019a80d12d2c1c52000000000000000000000000000000000000000000000000000000000000018000000000000000000000000000000000000000000000000000000000000001a00000000000000000000000000000000000000000000000000000000000000000000000000000000000000000b31a2947ecb648b94d91a8ce019a80d12d2c1c5200000000000000000000000000000000000000000000000000000000000000a000000000000000000000000000000000000000000000000002fa8ff6072fb8e5000000000000000000000000000000000000000000000000000000000000000000000000000000000000000000000000000000000000000000000000000000000000000000000000000000000000000000000000000000000000000000000000",
                    "logDecoded": true,
                    "operation": "EVENT",
                    "revert": false,
                    "status": true,
                    "topics": [
                        "0x8ab9dc6c19fe88e69bc70221b339c84332752fdd49591b7c51e66bae3947b73c",
                        "0x0000000000000000000000000000000000000000000000000000000000000144",
                        "0x000000000000000000000000000000000000000000000000000000000016ecc5",
                        "0x000000000000000000000000adde7028e7ec226777e5dea5d53f6457c21ec7d6"
                    ]
                },
                "nodeType": 1
            }
        },
        "gasFlame": [
            {
                "children": [
                    {
                        "children": [
                            {
                                "children": [],
                                "depth": 0,
                                "name": "Initial Gas",
                                "value": 24276
                            },
                            {
                                "children": [
                                    {
                                        "children": [
                                            {
                                                "children": [],
                                                "depth": 2,
                                                "name": "transferFrom",
                                                "value": 15025
                                            },
                                            {
                                                "children": [
                                                    {
                                                        "children": [
                                                            {
                                                                "children": [],
                                                                "depth": 4,
                                                                "name": "fallback",
                                                                "value": 62
                                                            }
                                                        ],
                                                        "depth": 3,
                                                        "name": "fallback",
                                                        "value": 461
                                                    }
                                                ],
                                                "depth": 2,
                                                "name": "withdraw",
                                                "value": 9601
                                            },
                                            {
                                                "children": [],
                                                "depth": 2,
                                                "name": "fallback",
                                                "value": 0
                                            }
                                        ],
                                        "depth": 1,
                                        "name": "fillRelay",
                                        "value": 87416
                                    }
                                ],
                                "depth": 0,
                                "name": "Executed Gas",
                                "value": 92380
                            }
                        ],
                        "depth": -1,
                        "name": "Actual Gas Used",
                        "value": 111056
                    },
                    {
                        "children": [],
                        "depth": -1,
                        "name": "Refunded Gas",
                        "value": 5600
                    }
                ],
                "depth": -2,
                "name": "Total Gas",
                "value": 116656
            }
        ],
        "isConfirmed": true,
        "mainTrace": [
            {
                "children": [
                    {
                        "children": [
                            {
                                "children": [
                                    {
                                        "children": [
                                            {
                                                "children": [],
                                                "depth": 3,
                                                "id": 3,
                                                "order": 3
                                            }
                                        ],
                                        "depth": 2,
                                        "id": 2,
                                        "order": 2
                                    },
                                    {
                                        "children": [
                                            {
                                                "children": [
                                                    {
                                                        "children": [],
                                                        "depth": 4,
                                                        "id": 6,
                                                        "order": 6
                                                    }
                                                ],
                                                "depth": 3,
                                                "id": 5,
                                                "order": 5
                                            },
                                            {
                                                "children": [],
                                                "depth": 3,
                                                "id": 7,
                                                "order": 7
                                            }
                                        ],
                                        "depth": 2,
                                        "id": 4,
                                        "order": 4
                                    },
                                    {
                                        "children": [],
                                        "depth": 2,
                                        "id": 8,
                                        "order": 8
                                    },
                                    {
                                        "children": [],
                                        "depth": 2,
                                        "id": 9,
                                        "order": 9
                                    }
                                ],
                                "depth": 1,
                                "id": 1,
                                "order": 1
                            }
                        ],
                        "depth": 0,
                        "id": 0,
                        "order": 0
                    }
                ],
                "depth": -1,
                "id": -1,
                "order": -1
            }
        ],
        "mainTraceNodeCount": 10,
        "parentIdMap": {
            "0": -1,
            "1": 0,
            "2": 1,
            "3": 2,
            "4": 1,
            "5": 4,
            "6": 5,
            "7": 4,
            "8": 1,
            "9": 1
        },
        "tidyTrace": [
            {
                "children": [
                    {
                        "children": [
                            {
                                "children": [
                                    {
                                        "children": [
                                            {
                                                "children": [],
                                                "depth": 3,
                                                "id": 3,
                                                "order": 3
                                            }
                                        ],
                                        "depth": 2,
                                        "id": 2,
                                        "order": 2
                                    },
                                    {
                                        "children": [
                                            {
                                                "children": [
                                                    {
                                                        "children": [],
                                                        "depth": 4,
                                                        "id": 6,
                                                        "order": 6
                                                    }
                                                ],
                                                "depth": 3,
                                                "id": 5,
                                                "order": 5
                                            },
                                            {
                                                "children": [],
                                                "depth": 3,
                                                "id": 7,
                                                "order": 7
                                            }
                                        ],
                                        "depth": 2,
                                        "id": 4,
                                        "order": 4
                                    },
                                    {
                                        "children": [],
                                        "depth": 2,
                                        "id": 8,
                                        "order": 8
                                    },
                                    {
                                        "children": [],
                                        "depth": 2,
                                        "id": 9,
                                        "order": 9
                                    }
                                ],
                                "depth": 1,
                                "id": 1,
                                "order": 1
                            }
                        ],
                        "depth": 0,
                        "id": 0,
                        "order": 0
                    }
                ],
                "depth": -1,
                "id": -1,
                "order": -1
            }
        ],
        "tidyTraceNodeCount": 10
    },
    "state_change": {
        "stateChanges": [
            {
                "address": "0x5c7bcd6e7de5423a257d81b442095a1a6ced35c5",
                "erc": "",
                "slots": [
                    {
                        "current": "0x000000000000000000000000000000000000000000000000003ce27066ed3e08",
                        "key": "0x67b7b991f71d68e2b3e18c07da97762281fa3d54b5be18ede412543dfbc97ce0",
                        "prev": "0x0000000000000000000000000000000000000000000000000000000000000000"
                    },
                    {
                        "current": "0x0000000000000000000000000000000000000000000043a240a5869d7e213372",
                        "key": "0x5e3545ce10dc62a0ef5fb5b163b6283b1717fa03b916bb43d34c3bff956524d3",
                        "prev": "0x0000000000000000000000000000000000000000000043a24068aa681ef29b78"
                    }
                ],
                "storageVariables": [
                    {
                        "name": "relayFills",
                        "type": "mapping(bytes32 => uint256)",
                        "value": {
                            "pairs": [
                                {
                                    "key": "0xf3b0e7654f63601724043cb4d144d3e8afb7b414222cfa9541596fd5872932ce",
                                    "value": {
                                        "current": "17137470993677832",
                                        "prev": "0",
                                        "typeTag": 1
                                    }
                                }
                            ],
                            "typeTag": 4
                        }
                    },
                    {
                        "name": "fillCounter",
                        "type": "mapping(address => uint256)",
                        "value": {
                            "pairs": [
                                {
                                    "key": "0xc02aaa39b223fe8d0a0e5c4f27ead9083c756cc2",
                                    "value": {
                                        "current": "319391585169607745418098",
                                        "prev": "319391568038987354512248",
                                        "typeTag": 1
                                    }
                                }
                            ],
                            "typeTag": 4
                        }
                    }
                ]
            },
            {
                "address": "0xc02aaa39b223fe8d0a0e5c4f27ead9083c756cc2",
                "erc": "ERC-20",
                "slots": [
                    {
                        "current": "0x00000000000000000000000000000000000000000000000077c9e4015bca70e8",
                        "key": "0x1c18645bb5b4f83381e6784c890adb9a67c0484b4aab916cf87147176044bf7a",
                        "prev": "0x00000000000000000000000000000000000000000000000077f9aeb4b7353520"
                    }
                ],
                "storageVariables": [
                    {
                        "name": "balanceOf",
                        "type": "mapping(address => uint256)",
                        "value": {
                            "pairs": [
                                {
                                    "key": "0x147b12c06d9e8e3837280f783fd8070848d4412e",
                                    "value": {
                                        "current": "8631680855318360296",
                                        "prev": "8645133050905441568",
                                        "typeTag": 1
                                    }
                                }
                            ],
                            "typeTag": 4
                        }
                    }
                ]
            }
        ]
    }
}