{
    "balance_change": {
        "balanceChanges": [
            {
                "account": "0x7fe737432385e4fbb0747cf9cc7a51779b052b0c",
                "assets": [
                    {
                        "address": "0xe62e6e6c3b808faad3a54b226379466544d76ea4",
                        "amount": "929.339036",
                        "iconUrl": "",
                        "isERC1155": false,
                        "isERC721": false,
                        "sign": false,
                        "value": ""
                    }
                ]
            },
            {
                "account": "0x56cbd699104288c964cd39d915c8f01736fb0ebe",
                "assets": [
                    {
                        "address": "0xe62e6e6c3b808faad3a54b226379466544d76ea4",
                        "amount": "929.339036",
                        "iconUrl": "",
                        "isERC1155": false,
                        "isERC721": false,
                        "sign": true,
                        "value": ""
                    }
                ]
            }
        ]
    },
    "profile": {
        "basic_info": {
            "baseFee": "",
            "blockNumber": 10689063,
            "callData": "0xa9059cbb00000000000000000000000056cbd699104288c964cd39d915c8f01736fb0ebe000000000000000000000000000000000000000000000000000000003764969c",
            "debugEnable": true,
            "errorInfo": "",
            "eventCount": 1,
            "feeRecipient": "0x829bd824b016326a401d083b33d092293333a830",
            "formatValue": "0",
            "gasLimit": 90000,
            "gasPrice": "152",
            "gasUsed": 34415,
            "intTxnCount": 0,
            "internalRevert": false,
            "internalRevertMessage": "",
            "isContractCreation": false,
            "isFlashloan": false,
            "maxFee": "",
            "nonce": 0,
            "overwritedBlockNumber": -1,
            "priorityFee": "",
            "receiver": "0xe62e6e6c3b808faad3a54b226379466544d76ea4",
            "revertMessage": "",
            "sender": "0x7fe737432385e4fbb0747cf9cc7a51779b052b0c",
            "simulationEnable": true,
            "sourceTxnHash": "0x3b6741e546613908743e7b426eff4043abbd8042609ac94670c02bc1680bf54a",
            "status": true,
            "timestamp": "2020-08-19T06:54:30Z",
            "transactionFee": "0.00523108",
            "txnHash": "0x3b6741e546613908743e7b426eff4043abbd8042609ac94670c02bc1680bf54a",
            "txnIndex": 99,
            "type": 0,
            "value": "0"
        },
        "fund_flow": [
            {
                "amount": "929.339036",
                "from": "0x7fe737432385e4fbb0747cf9cc7a51779b052b0c",
                "id": 1,
                "isERC1155": false,
                "isERC721": false,
                "isReverted": false,
                "order": 1,
                "to": "0x56cbd699104288c964cd39d915c8f01736fb0ebe",
                "token": "0xe62e6e6c3b808faad3a54b226379466544d76ea4"
            }
        ],
        "token_infos": [
            {
                "address": "0xc02aaa39b223fe8d0a0e5c4f27ead9083c756cc2",
                "decimals": 18
            },
            {
                "address": "0xe62e6e6c3b808faad3a54b226379466544d76ea4",
                "decimals": 6
            },
            {
                "address": "0xeeeeeeeeeeeeeeeeeeeeeeeeeeeeeeeeeeeeeeee",
                "decimals": 18
            }
        ]
    },
    "address_label": {
        "labels": [
            {
                "address": "0x0000000000000000000000000000000000000001",
                "label": "Precompiled"
            },
            {
                "address": "0x0000000000000000000000000000000000000002",
                "label": "Precompiled"
            },
            {
                "address": "0x0000000000000000000000000000000000000003",
                "label": "Precompiled"
            },
            {
                "address": "0x0000000000000000000000000000000000000004",
                "label": "Precompiled"
            },
            {
                "address": "0xeeeeeeeeeeeeeeeeeeeeeeeeeeeeeeeeeeeeeeee",
                "label": "Ether"
            },
            {
                "address": "0xe62e6e6c3b808faad3a54b226379466544d76ea4",
                "label": "Liberty Cash (LCS)"
            }
        ]
    },
    "trace": {
        "accountLabels": null,
        "dataMap": {
            "-1": {
                "invocation": {
                    "address": "0x7fe737432385e4fbb0747cf9cc7a51779b052b0c",
                    "callData": "",
                    "decodedMethod": null,
                    "errorInfo": "",
                    "fromAddress": "",
                    "gasUsed": 0,
                    "id": -1,
                    "methodDecoded": false,
                    "operation": "",
                    "output": "",
                    "revert": false,
                    "revertMessage": "",
                    "selector": "",
                    "status": false,
                    "value": ""
                },
                "nodeType": 0
            },
            "0": {
                "invocation": {
                    "address": "0xe62e6e6c3b808faad3a54b226379466544d76ea4",
                    "callData": "0x00000000000000000000000056cbd699104288c964cd39d915c8f01736fb0ebe000000000000000000000000000000000000000000000000000000003764969c",
                    "decodedMethod": {
                        "callParams": [
                            {
                                "name": "_to",
                                "type": "address",
                                "value": "0x56cbd699104288c964cd39d915c8f01736fb0ebe"
                            },
                            {
                                "decimalAvailable": true,
                                "name": "_value",
                                "type": "uint256",
                                "value": "929,339,036"
                            }
                        ],
                        "constructorArguments": "",
                        "name": "transfer",
                        "returnParams": [],
                        "signature": "transfer(address,uint256)"
                    },
                    "errorInfo": "",
                    "fromAddress": "0x7fe737432385e4fbb0747cf9cc7a51779b052b0c",
                    "gasUsed": 34415,
                    "id": 0,
                    "methodDecoded": true,
                    "operation": "CALL",
                    "output": "",
                    "revert": false,
                    "revertMessage": "",
                    "selector": "0xa9059cbb",
                    "status": true,
                    "value": "0"
                },
                "nodeType": 0
            },
            "1": {
                "event": {
                    "contract": "0xe62e6e6c3b808faad3a54b226379466544d76ea4",
                    "decodedLog": {
                        "name": "Transfer",
                        "params": [
                            {
                                "name": "from",
                                "type": "address",
                                "value": "0x7fe737432385e4fbb0747cf9cc7a51779b052b0c"
                            },
                            {
                                "name": "to",
                                "type": "address",
                                "value": "0x56cbd699104288c964cd39d915c8f01736fb0ebe"
                            },
                            {
                                "decimalAvailable": true,
                                "name": "value",
                                "type": "uint256",
                                "value": "929,339,036"
                            }
                        ],
                        "signature": "Transfer(address,address,uint256)"
                    },
                    "id": 1,
                    "logData": "0x000000000000000000000000000000000000000000000000000000003764969c",
                    "logDecoded": true,
                    "operation": "EVENT",
                    "revert": false,
                    "status": true,
                    "topics": [
                        "0xddf252ad1be2c89b69c2b068fc378daa952ba7f163c4a11628f55a4df523b3ef",
                        "0x0000000000000000000000007fe737432385e4fbb0747cf9cc7a51779b052b0c",
                        "0x00000000000000000000000056cbd699104288c964cd39d915c8f01736fb0ebe"
                    ]
                },
                "nodeType": 1
            }
        },
        "gasFlame": [
            {
                "children": [
                    {
                        "children": [
                            {
                                "children": [],
                                "depth": 0,
                                "name": "Initial Gas",
                                "value": 21608
                            },
                            {
                                "children": [],
                                "depth": 0,
                                "name": "Executed Gas",
                                "value": 27807
                            }
                        ],
                        "depth": -1,
                        "name": "Actual Gas Used",
                        "value": 34415
                    },
                    {
                        "children": [],
                        "depth": -1,
                        "name": "Refunded Gas",
                        "value": 15000
                    }
                ],
                "depth": -2,
                "name": "Total Gas",
                "value": 49415
            }
        ],
        "isConfirmed": true,
        "mainTrace": [
            {
                "children": [
                    {
                        "children": [
                            {
                                "children": [],
                                "depth": 1,
                                "id": 1,
                                "order": 1
                            }
                        ],
                        "depth": 0,
                        "id": 0,
                        "order": 0
                    }
                ],
                "depth": -1,
                "id": -1,
                "order": -1
            }
        ],
        "mainTraceNodeCount": 2,
        "parentIdMap": {
            "0": -1,
            "1": 0
        },
        "tidyTrace": [
            {
                "children": [
                    {
                        "children": [
                            {
                                "children": [],
                                "depth": 1,
                                "id": 1,
                                "order": 1
                            }
                        ],
                        "depth": 0,
                        "id": 0,
                        "order": 0
                    }
                ],
                "depth": -1,
                "id": -1,
                "order": -1
            }
        ],
        "tidyTraceNodeCount": 2
    },
    "state_change": {
        "stateChanges": [
            {
                "address": "0xe62e6e6c3b808faad3a54b226379466544d76ea4",
                "erc": "",
                "slots": [
                    {
                        "current": "0x0000000000000000000000000000000000000000000000000000000000000000",
                        "key": "0x5a4c77b7dd68a854d14192a6e8b6cfe02b3cf42b60daa18e95c048aec9e7f48e",
                        "prev": "0x000000000000000000000000000000000000000000000000000000003764969c"
                    },
                    {
                        "current": "0x00000000000000000000000000000000000000000000000000008bba26ebdb23",
                        "key": "0x2b5cd85ebab226a5368713fa1f10eae6418076ed5597a0945f5bbb55276ac1ed",
                        "prev": "0x00000000000000000000000000000000000000000000000000008bb9ef874487"
                    }
                ],
                "storageVariables": [
                    {
                        "name": "balanceOf",
                        "type": "mapping(address => uint256)",
                        "value": {
                            "pairs": [
                                {
                                    "key": "0x56cbd699104288c964cd39d915c8f01736fb0ebe",
                                    "value": {
                                        "current": "153631633169187",
                                        "prev": "153630703830151",
                                        "typeTag": 1
                                    }
                                },
                                {
                                    "key": "0x7fe737432385e4fbb0747cf9cc7a51779b052b0c",
                                    "value": {
                                        "current": "0",
                                        "prev": "929339036",
                                        "typeTag": 1
                                    }
                                }
                            ],
                            "typeTag": 4
                        }
                    }
                ]
            }
        ]
    }
}