{
    "balance_change": {
        "balanceChanges": [
            {
                "account": "0x17b2555dc6fcb1e159c4a26eb8e89563089b479a",
                "assets": [
                    {
                        "address": "0xe76309c6ba662894df71fd294ae21c2a829a130e",
                        "amount": "42.426406871192850464",
                        "iconUrl": "",
                        "isERC1155": false,
                        "isERC721": false,
                        "sign": true,
                        "value": ""
                    },
                    {
                        "address": "0xeeeeeeeeeeeeeeeeeeeeeeeeeeeeeeeeeeeeeeee",
                        "amount": "4",
                        "iconUrl": "https://assets.blocksec.com/image/1663669189317-3.png",
                        "isERC1155": false,
                        "isERC721": false,
                        "sign": false,
                        "value": "8680.20284"
                    },
                    {
                        "address": "0xee74e91057e93b5906f3809c635974232fda5538",
                        "amount": "450,000,000,000",
                        "iconUrl": "",
                        "isERC1155": false,
                        "isERC721": false,
                        "sign": false,
                        "value": ""
                    }
                ]
            },
            {
                "account": "0x0000000000000000000000000000000000000000",
                "assets": [
                    {
                        "address": "0xe76309c6ba662894df71fd294ae21c2a829a130e",
                        "amount": "42.426406871192850464",
                        "iconUrl": "",
                        "isERC1155": false,
                        "isERC721": false,
                        "sign": false,
                        "value": ""
                    }
                ]
            },
            {
                "account": "0xc02aaa39b223fe8d0a0e5c4f27ead9083c756cc2",
                "assets": [
                    {
                        "address": "0xeeeeeeeeeeeeeeeeeeeeeeeeeeeeeeeeeeeeeeee",
                        "amount": "4",
                        "iconUrl": "https://assets.blocksec.com/image/1663669189317-3.png",
                        "isERC1155": false,
                        "isERC721": false,
                        "sign": true,
                        "value": "8680.20284"
                    },
                    {
                        "address": "0xc02aaa39b223fe8d0a0e5c4f27ead9083c756cc2",
                        "amount": "4",
                        "iconUrl": "https://assets.blocksec.com/icon/f1cb2d02c471d545bbc7722daf3277fd852d98e63d118771af7047bd8256c516.png",
                        "isERC1155": false,
                        "isERC721": false,
                        "sign": false,
                        "value": "8680.20284"
                    }
                ]
            },
            {
                "account": "0xe76309c6ba662894df71fd294ae21c2a829a130e",
                "assets": [
                    {
                        "address": "0xee74e91057e93b5906f3809c635974232fda5538",
                        "amount": "450,000,000,000",
                        "iconUrl": "",
                        "isERC1155": false,
                        "isERC721": false,
                        "sign": true,
                        "value": ""
                    },
                    {
                        "address": "0xc02aaa39b223fe8d0a0e5c4f27ead9083c756cc2",
                        "amount": "4",
                        "iconUrl": "https://assets.blocksec.com/icon/f1cb2d02c471d545bbc7722daf3277fd852d98e63d118771af7047bd8256c516.png",
                        "isERC1155": false,
                        "isERC721": false,
                        "sign": true,
                        "value": "8680.20284"
                    }
                ]
            }
        ]
    },
    "profile": {
        "basic_info": {
            "baseFee": "",
            "blockNumber": 12495533,
            "callData": "0xf305d719000000000000000000000000ee74e91057e93b5906f3809c635974232fda5538000000000000000000000000000000000000000000000018650127cc3dc80000000000000000000000000000000000000000000000000018650127cc3dc800000000000000000000000000000000000000000000000000003782dace9d90000000000000000000000000000017b2555dc6fcb1e159c4a26eb8e89563089b479a0000000000000000000000000000000000000000000000000000000060ab52b6",
            "debugEnable": true,
            "errorInfo": "",
            "eventCount": 9,
            "feeRecipient": "0xf20b338752976878754518183873602902360704",
            "formatValue": "4",
            "gasLimit": 3095209,
            "gasPrice": "60",
            "gasUsed": 2756965,
            "intTxnCount": 12,
            "internalRevert": false,
            "internalRevertMessage": "",
            "isContractCreation": false,
            "isFlashloan": false,
            "maxFee": "",
            "nonce": 18,
            "overwritedBlockNumber": -1,
            "priorityFee": "",
            "receiver": "0x7a250d5630b4cf539739df2c5dacb4c659f2488d",
            "revertMessage": "",
            "sender": "0x17b2555dc6fcb1e159c4a26eb8e89563089b479a",
            "simulationEnable": true,
            "sourceTxnHash": "0x3be039d7027d8d8ae2aad4a5594f0a643329b485f8bd2bc81c9394b1f1ecf4e2",
            "status": true,
            "timestamp": "2021-05-24T06:56:39Z",
            "transactionFee": "0.1654179",
            "txnHash": "0x3be039d7027d8d8ae2aad4a5594f0a643329b485f8bd2bc81c9394b1f1ecf4e2",
            "txnIndex": 13,
            "type": 0,
            "value": "4000000000000000000"
        },
        "fund_flow": [
            {
                "amount": "4",
                "from": "0x17b2555dc6fcb1e159c4a26eb8e89563089b479a",
                "id": 1,
                "isERC1155": false,
                "isERC721": false,
                "isReverted": false,
                "order": 1,
                "to": "0x7a250d5630b4cf539739df2c5dacb4c659f2488d",
                "token": "0xeeeeeeeeeeeeeeeeeeeeeeeeeeeeeeeeeeeeeeee"
            },
            {
                "amount": "450,000,000,000",
                "from": "0x17b2555dc6fcb1e159c4a26eb8e89563089b479a",
                "id": 2,
                "isERC1155": false,
                "isERC721": false,
                "isReverted": false,
                "order": 2,
                "to": "0xe76309c6ba662894df71fd294ae21c2a829a130e",
                "token": "0xee74e91057e93b5906f3809c635974232fda5538"
            },
            {
                "amount": "4",
                "from": "0x7a250d5630b4cf539739df2c5dacb4c659f2488d",
                "id": 3,
                "isERC1155": false,
                "isERC721": false,
                "isReverted": false,
                "order": 3,
                "to": "0xc02aaa39b223fe8d0a0e5c4f27ead9083c756cc2",
                "token": "0xeeeeeeeeeeeeeeeeeeeeeeeeeeeeeeeeeeeeeeee"
            },
            {
                "amount": "4",
                "from": "0xc02aaa39b223fe8d0a0e5c4f27ead9083c756cc2",
                "id": 4,
                "isERC1155": false,
                "isERC721": false,
                "isReverted": false,
                "order": 4,
                "to": "0x7a250d5630b4cf539739df2c5dacb4c659f2488d",
                "token": "0xc02aaa39b223fe8d0a0e5c4f27ead9083c756cc2"
            },
            {
                "amount": "4",
                "from": "0x7a250d5630b4cf539739df2c5dacb4c659f2488d",
                "id": 5,
                "isERC1155": false,
                "isERC721": false,
                "isReverted": false,
                "order": 5,
                "to": "0xe76309c6ba662894df71fd294ae21c2a829a130e",
                "token": "0xc02aaa39b223fe8d0a0e5c4f27ead9083c756cc2"
            },
            {
                "amount": "0.000000000000001",
                "from": "0x0000000000000000000000000000000000000000",
                "id": 6,
                "isERC1155": false,
                "isERC721": false,
                "isReverted": false,
                "order": 6,
                "to": "0x0000000000000000000000000000000000000000",
                "token": "0xe76309c6ba662894df71fd294ae21c2a829a130e"
            },
            {
                "amount": "42.426406871192850464",
                "from": "0x0000000000000000000000000000000000000000",
                "id": 7,
                "isERC1155": false,
                "isERC721": false,
                "isReverted": false,
                "order": 7,
                "to": "0x17b2555dc6fcb1e159c4a26eb8e89563089b479a",
                "token": "0xe76309c6ba662894df71fd294ae21c2a829a130e"
            }
        ],
        "token_infos": [
            {
                "address": "0xc02aaa39b223fe8d0a0e5c4f27ead9083c756cc2",
                "decimals": 18
            },
            {
                "address": "0xe76309c6ba662894df71fd294ae21c2a829a130e",
                "decimals": 18
            },
            {
                "address": "0xee74e91057e93b5906f3809c635974232fda5538",
                "decimals": 9
            },
            {
                "address": "0xeeeeeeeeeeeeeeeeeeeeeeeeeeeeeeeeeeeeeeee",
                "decimals": 18
            }
        ]
    },
    "address_label": {
        "labels": [
            {
                "address": "0x5c69bee701ef814a2b6a3edd4b1652cb9cc5aa6f",
                "label": "Uniswap V2: Factory Contract"
            },
            {
                "address": "0xf20b338752976878754518183873602902360704",
                "label": "Proxy"
            },
            {
                "address": "0x0000000000000000000000000000000000000002",
                "label": "Precompiled"
            },
            {
                "address": "0x0000000000000000000000000000000000000000",
                "label": "Null Address"
            },
            {
                "address": "0xe76309c6ba662894df71fd294ae21c2a829a130e",
                "label": "Uniswap V2: AKISHU"
            },
            {
                "address": "0x0000000000000000000000000000000000000001",
                "label": "Precompiled"
            },
            {
                "address": "0x0000000000000000000000000000000000000003",
                "label": "Precompiled"
            },
            {
                "address": "0xeeeeeeeeeeeeeeeeeeeeeeeeeeeeeeeeeeeeeeee",
                "label": "Ether"
            },
            {
                "address": "0xee74e91057e93b5906f3809c635974232fda5538",
                "label": "Astro Kishu Inu (AKISHU)"
            },
            {
                "address": "0x7a250d5630b4cf539739df2c5dacb4c659f2488d",
                "label": "Uniswap V2: Router 2"
            },
            {
                "address": "0xc02aaa39b223fe8d0a0e5c4f27ead9083c756cc2",
                "label": "Wrapped Ether (WETH)"
            },
            {
                "address": "0x0000000000000000000000000000000000000004",
                "label": "Precompiled"
            }
        ]
    },
    "trace": {
        "accountLabels": null,
        "dataMap": {
            "-1": {
                "invocation": {
                    "address": "0x17b2555dc6fcb1e159c4a26eb8e89563089b479a",
                    "callData": "",
                    "decodedMethod": null,
                    "errorInfo": "",
                    "fromAddress": "",
                    "gasUsed": 0,
                    "id": -1,
                    "methodDecoded": false,
                    "operation": "",
                    "output": "",
                    "revert": false,
                    "revertMessage": "",
                    "selector": "",
                    "status": false,
                    "value": ""
                },
                "nodeType": 0
            },
            "0": {
                "invocation": {
                    "address": "0x7a250d5630b4cf539739df2c5dacb4c659f2488d",
                    "callData": "0x000000000000000000000000ee74e91057e93b5906f3809c635974232fda5538000000000000000000000000000000000000000000000018650127cc3dc80000000000000000000000000000000000000000000000000018650127cc3dc800000000000000000000000000000000000000000000000000003782dace9d90000000000000000000000000000017b2555dc6fcb1e159c4a26eb8e89563089b479a0000000000000000000000000000000000000000000000000000000060ab52b6",
                    "decodedMethod": {
                        "callParams": [
                            {
                                "name": "token",
                                "type": "address",
                                "value": "0xee74e91057e93b5906f3809c635974232fda5538"
                            },
                            {
                                "name": "amountTokenDesired",
                                "type": "uint256",
                                "value": "450,000,000,000,000,000,000"
                            },
                            {
                                "name": "amountTokenMin",
                                "type": "uint256",
                                "value": "450,000,000,000,000,000,000"
                            },
                            {
                                "name": "amountETHMin",
                                "type": "uint256",
                                "value": "4,000,000,000,000,000,000"
                            },
                            {
                                "name": "to",
                                "type": "address",
                                "value": "0x17b2555dc6fcb1e159c4a26eb8e89563089b479a"
                            },
                            {
                                "name": "deadline",
                                "type": "uint256",
                                "value": "1,621,840,566"
                            }
                        ],
                        "constructorArguments": "",
                        "name": "addLiquidityETH",
                        "returnParams": [
                            {
                                "name": "amountToken",
                                "type": "uint256",
                                "value": "450,000,000,000,000,000,000"
                            },
                            {
                                "name": "amountETH",
                                "type": "uint256",
                                "value": "4,000,000,000,000,000,000"
                            },
                            {
                                "name": "liquidity",
                                "type": "uint256",
                                "value": "42,426,406,871,192,850,464"
                            }
                        ],
                        "signature": "addLiquidityETH(address,uint256,uint256,uint256,address,uint256)"
                    },
                    "errorInfo": "",
                    "fromAddress": "0x17b2555dc6fcb1e159c4a26eb8e89563089b479a",
                    "gasUsed": 2756965,
                    "id": 0,
                    "methodDecoded": true,
                    "operation": "CALL",
                    "output": "0x000000000000000000000000000000000000000000000018650127cc3dc800000000000000000000000000000000000000000000000000003782dace9d9000000000000000000000000000000000000000000000000000024cc8e043bda45020",
                    "revert": false,
                    "revertMessage": "",
                    "selector": "0xf305d719",
                    "status": true,
                    "value": "4"
                },
                "nodeType": 0
            },
            "1": {
                "invocation": {
                    "address": "0x5c69bee701ef814a2b6a3edd4b1652cb9cc5aa6f",
                    "callData": "0x000000000000000000000000ee74e91057e93b5906f3809c635974232fda5538000000000000000000000000c02aaa39b223fe8d0a0e5c4f27ead9083c756cc2",
                    "decodedMethod": {
                        "callParams": [
                            {
                                "name": "",
                                "type": "address",
                                "value": "0xee74e91057e93b5906f3809c635974232fda5538"
                            },
                            {
                                "name": "",
                                "type": "address",
                                "value": "0xc02aaa39b223fe8d0a0e5c4f27ead9083c756cc2"
                            }
                        ],
                        "constructorArguments": "",
                        "name": "getPair",
                        "returnParams": [
                            {
                                "name": "",
                                "type": "address",
                                "value": "0x0000000000000000000000000000000000000000"
                            }
                        ],
                        "signature": "getPair(address,address)"
                    },
                    "errorInfo": "",
                    "fromAddress": "0x7a250d5630b4cf539739df2c5dacb4c659f2488d",
                    "gasUsed": 2564,
                    "id": 1,
                    "methodDecoded": true,
                    "operation": "STATICCALL",
                    "output": "0x0000000000000000000000000000000000000000000000000000000000000000",
                    "revert": false,
                    "revertMessage": "",
                    "selector": "0xe6a43905",
                    "status": true,
                    "value": "0"
                },
                "nodeType": 0
            },
            "10": {
                "invocation": {
                    "address": "0xc02aaa39b223fe8d0a0e5c4f27ead9083c756cc2",
                    "callData": "0x",
                    "decodedMethod": {
                        "callParams": [],
                        "constructorArguments": "",
                        "name": "deposit",
                        "returnParams": [],
                        "signature": "deposit()"
                    },
                    "errorInfo": "",
                    "fromAddress": "0x7a250d5630b4cf539739df2c5dacb4c659f2488d",
                    "gasUsed": 23974,
                    "id": 10,
                    "methodDecoded": true,
                    "operation": "CALL",
                    "output": "",
                    "revert": false,
                    "revertMessage": "",
                    "selector": "0xd0e30db0",
                    "status": true,
                    "value": "4"
                },
                "nodeType": 0
            },
            "11": {
                "event": {
                    "contract": "0xc02aaa39b223fe8d0a0e5c4f27ead9083c756cc2",
                    "decodedLog": {
                        "name": "Deposit",
                        "params": [
                            {
                                "name": "dst",
                                "type": "address",
                                "value": "0x7a250d5630b4cf539739df2c5dacb4c659f2488d"
                            },
                            {
                                "name": "wad",
                                "type": "uint256",
                                "value": "4,000,000,000,000,000,000"
                            }
                        ],
                        "signature": "Deposit(address,uint256)"
                    },
                    "id": 11,
                    "logData": "0x0000000000000000000000000000000000000000000000003782dace9d900000",
                    "logDecoded": true,
                    "operation": "EVENT",
                    "revert": false,
                    "status": true,
                    "topics": [
                        "0xe1fffcc4923d04b559f4d29a8bfc6cda04eb5b0d3c460751c2402c5c5cc9109c",
                        "0x0000000000000000000000007a250d5630b4cf539739df2c5dacb4c659f2488d"
                    ]
                },
                "nodeType": 1
            },
            "12": {
                "invocation": {
                    "address": "0xc02aaa39b223fe8d0a0e5c4f27ead9083c756cc2",
                    "callData": "0x000000000000000000000000e76309c6ba662894df71fd294ae21c2a829a130e0000000000000000000000000000000000000000000000003782dace9d900000",
                    "decodedMethod": {
                        "callParams": [
                            {
                                "name": "dst",
                                "type": "address",
                                "value": "0xe76309c6ba662894df71fd294ae21c2a829a130e"
                            },
                            {
                                "decimalAvailable": true,
                                "name": "wad",
                                "type": "uint256",
                                "value": "4,000,000,000,000,000,000"
                            }
                        ],
                        "constructorArguments": "",
                        "name": "transfer",
                        "returnParams": [
                            {
                                "name": "",
                                "type": "bool",
                                "value": true
                            }
                        ],
                        "signature": "transfer(address,uint256)"
                    },
                    "errorInfo": "",
                    "fromAddress": "0x7a250d5630b4cf539739df2c5dacb4c659f2488d",
                    "gasUsed": 25162,
                    "id": 12,
                    "methodDecoded": true,
                    "operation": "CALL",
                    "output": "0x0000000000000000000000000000000000000000000000000000000000000001",
                    "revert": false,
                    "revertMessage": "",
                    "selector": "0xa9059cbb",
                    "status": true,
                    "value": "0"
                },
                "nodeType": 0
            },
            "13": {
                "event": {
                    "contract": "0xc02aaa39b223fe8d0a0e5c4f27ead9083c756cc2",
                    "decodedLog": {
                        "name": "Transfer",
                        "params": [
                            {
                                "name": "src",
                                "type": "address",
                                "value": "0x7a250d5630b4cf539739df2c5dacb4c659f2488d"
                            },
                            {
                                "name": "dst",
                                "type": "address",
                                "value": "0xe76309c6ba662894df71fd294ae21c2a829a130e"
                            },
                            {
                                "decimalAvailable": true,
                                "name": "wad",
                                "type": "uint256",
                                "value": "4,000,000,000,000,000,000"
                            }
                        ],
                        "signature": "Transfer(address,address,uint256)"
                    },
                    "id": 13,
                    "logData": "0x0000000000000000000000000000000000000000000000003782dace9d900000",
                    "logDecoded": true,
                    "operation": "EVENT",
                    "revert": false,
                    "status": true,
                    "topics": [
                        "0xddf252ad1be2c89b69c2b068fc378daa952ba7f163c4a11628f55a4df523b3ef",
                        "0x0000000000000000000000007a250d5630b4cf539739df2c5dacb4c659f2488d",
                        "0x000000000000000000000000e76309c6ba662894df71fd294ae21c2a829a130e"
                    ]
                },
                "nodeType": 1
            },
            "14": {
                "invocation": {
                    "address": "0xe76309c6ba662894df71fd294ae21c2a829a130e",
                    "callData": "0x00000000000000000000000017b2555dc6fcb1e159c4a26eb8e89563089b479a",
                    "decodedMethod": {
                        "callParams": [
                            {
                                "name": "to",
                                "type": "address",
                                "value": "0x17b2555dc6fcb1e159c4a26eb8e89563089b479a"
                            }
                        ],
                        "constructorArguments": "",
                        "name": "mint",
                        "returnParams": [
                            {
                                "name": "liquidity",
                                "type": "uint256",
                                "value": "42,426,406,871,192,850,464"
                            }
                        ],
                        "signature": "mint(address)"
                    },
                    "errorInfo": "",
                    "fromAddress": "0x7a250d5630b4cf539739df2c5dacb4c659f2488d",
                    "gasUsed": 143282,
                    "id": 14,
                    "methodDecoded": true,
                    "operation": "CALL",
                    "output": "0x0000000000000000000000000000000000000000000000024cc8e043bda45020",
                    "revert": false,
                    "revertMessage": "",
                    "selector": "0x6a627842",
                    "status": true,
                    "value": "0"
                },
                "nodeType": 0
            },
            "15": {
                "invocation": {
                    "address": "0xc02aaa39b223fe8d0a0e5c4f27ead9083c756cc2",
                    "callData": "0x000000000000000000000000e76309c6ba662894df71fd294ae21c2a829a130e",
                    "decodedMethod": {
                        "callParams": [
                            {
                                "name": "",
                                "type": "address",
                                "value": "0xe76309c6ba662894df71fd294ae21c2a829a130e"
                            }
                        ],
                        "constructorArguments": "",
                        "name": "balanceOf",
                        "returnParams": [
                            {
                                "decimalAvailable": true,
                                "name": "",
                                "type": "uint256",
                                "value": "4,000,000,000,000,000,000"
                            }
                        ],
                        "signature": "balanceOf(address)"
                    },
                    "errorInfo": "",
                    "fromAddress": "0xe76309c6ba662894df71fd294ae21c2a829a130e",
                    "gasUsed": 534,
                    "id": 15,
                    "methodDecoded": true,
                    "operation": "STATICCALL",
                    "output": "0x0000000000000000000000000000000000000000000000003782dace9d900000",
                    "revert": false,
                    "revertMessage": "",
                    "selector": "0x70a08231",
                    "status": true,
                    "value": "0"
                },
                "nodeType": 0
            },
            "16": {
                "invocation": {
                    "address": "0xee74e91057e93b5906f3809c635974232fda5538",
                    "callData": "0x000000000000000000000000e76309c6ba662894df71fd294ae21c2a829a130e",
                    "decodedMethod": {
                        "callParams": [
                            {
                                "name": "account",
                                "type": "address",
                                "value": "0xe76309c6ba662894df71fd294ae21c2a829a130e"
                            }
                        ],
                        "constructorArguments": "",
                        "name": "balanceOf",
                        "returnParams": [
                            {
                                "decimalAvailable": true,
                                "name": "",
                                "type": "uint256",
                                "value": "450,000,000,000,000,000,000"
                            }
                        ],
                        "signature": "balanceOf(address)"
                    },
                    "errorInfo": "",
                    "fromAddress": "0xe76309c6ba662894df71fd294ae21c2a829a130e",
                    "gasUsed": 13059,
                    "id": 16,
                    "methodDecoded": true,
                    "operation": "STATICCALL",
                    "output": "0x000000000000000000000000000000000000000000000018650127cc3dc80000",
                    "revert": false,
                    "revertMessage": "",
                    "selector": "0x70a08231",
                    "status": true,
                    "value": "0"
                },
                "nodeType": 0
            },
            "17": {
                "invocation": {
                    "address": "0x5c69bee701ef814a2b6a3edd4b1652cb9cc5aa6f",
                    "callData": "0x",
                    "decodedMethod": {
                        "callParams": [],
                        "constructorArguments": "",
                        "name": "feeTo",
                        "returnParams": [
                            {
                                "name": "",
                                "type": "address",
                                "value": "0x0000000000000000000000000000000000000000"
                            }
                        ],
                        "signature": "feeTo()"
                    },
                    "errorInfo": "",
                    "fromAddress": "0xe76309c6ba662894df71fd294ae21c2a829a130e",
                    "gasUsed": 2314,
                    "id": 17,
                    "methodDecoded": true,
                    "operation": "STATICCALL",
                    "output": "0x0000000000000000000000000000000000000000000000000000000000000000",
                    "revert": false,
                    "revertMessage": "",
                    "selector": "0x017e7e58",
                    "status": true,
                    "value": "0"
                },
                "nodeType": 0
            },
            "18": {
                "event": {
                    "contract": "0xe76309c6ba662894df71fd294ae21c2a829a130e",
                    "decodedLog": {
                        "name": "Transfer",
                        "params": [
                            {
                                "name": "from",
                                "type": "address",
                                "value": "0x0000000000000000000000000000000000000000"
                            },
                            {
                                "name": "to",
                                "type": "address",
                                "value": "0x0000000000000000000000000000000000000000"
                            },
                            {
                                "decimalAvailable": true,
                                "name": "value",
                                "type": "uint256",
                                "value": "1,000"
                            }
                        ],
                        "signature": "Transfer(address,address,uint256)"
                    },
                    "id": 18,
                    "logData": "0x00000000000000000000000000000000000000000000000000000000000003e8",
                    "logDecoded": true,
                    "operation": "EVENT",
                    "revert": false,
                    "status": true,
                    "topics": [
                        "0xddf252ad1be2c89b69c2b068fc378daa952ba7f163c4a11628f55a4df523b3ef",
                        "0x0000000000000000000000000000000000000000000000000000000000000000",
                        "0x0000000000000000000000000000000000000000000000000000000000000000"
                    ]
                },
                "nodeType": 1
            },
            "19": {
                "event": {
                    "contract": "0xe76309c6ba662894df71fd294ae21c2a829a130e",
                    "decodedLog": {
                        "name": "Transfer",
                        "params": [
                            {
                                "name": "from",
                                "type": "address",
                                "value": "0x0000000000000000000000000000000000000000"
                            },
                            {
                                "name": "to",
                                "type": "address",
                                "value": "0x17b2555dc6fcb1e159c4a26eb8e89563089b479a"
                            },
                            {
                                "decimalAvailable": true,
                                "name": "value",
                                "type": "uint256",
                                "value": "42,426,406,871,192,850,464"
                            }
                        ],
                        "signature": "Transfer(address,address,uint256)"
                    },
                    "id": 19,
                    "logData": "0x0000000000000000000000000000000000000000000000024cc8e043bda45020",
                    "logDecoded": true,
                    "operation": "EVENT",
                    "revert": false,
                    "status": true,
                    "topics": [
                        "0xddf252ad1be2c89b69c2b068fc378daa952ba7f163c4a11628f55a4df523b3ef",
                        "0x0000000000000000000000000000000000000000000000000000000000000000",
                        "0x00000000000000000000000017b2555dc6fcb1e159c4a26eb8e89563089b479a"
                    ]
                },
                "nodeType": 1
            },
            "2": {
                "invocation": {
                    "address": "0x5c69bee701ef814a2b6a3edd4b1652cb9cc5aa6f",
                    "callData": "0x000000000000000000000000ee74e91057e93b5906f3809c635974232fda5538000000000000000000000000c02aaa39b223fe8d0a0e5c4f27ead9083c756cc2",
                    "decodedMethod": {
                        "callParams": [
                            {
                                "name": "tokenA",
                                "type": "address",
                                "value": "0xee74e91057e93b5906f3809c635974232fda5538"
                            },
                            {
                                "name": "tokenB",
                                "type": "address",
                                "value": "0xc02aaa39b223fe8d0a0e5c4f27ead9083c756cc2"
                            }
                        ],
                        "constructorArguments": "",
                        "name": "createPair",
                        "returnParams": [
                            {
                                "name": "pair",
                                "type": "address",
                                "value": "0xe76309c6ba662894df71fd294ae21c2a829a130e"
                            }
                        ],
                        "signature": "createPair(address,address)"
                    },
                    "errorInfo": "",
                    "fromAddress": "0x7a250d5630b4cf539739df2c5dacb4c659f2488d",
                    "gasUsed": 2482486,
                    "id": 2,
                    "methodDecoded": true,
                    "operation": "CALL",
                    "output": "0x000000000000000000000000e76309c6ba662894df71fd294ae21c2a829a130e",
                    "revert": false,
                    "revertMessage": "",
                    "selector": "0xc9c65396",
                    "status": true,
                    "value": "0"
                },
                "nodeType": 0
            },
            "20": {
                "event": {
                    "contract": "0xe76309c6ba662894df71fd294ae21c2a829a130e",
                    "decodedLog": {
                        "name": "Sync",
                        "params": [
                            {
                                "name": "reserve0",
                                "type": "uint112",
                                "value": "4,000,000,000,000,000,000"
                            },
                            {
                                "name": "reserve1",
                                "type": "uint112",
                                "value": "450,000,000,000,000,000,000"
                            }
                        ],
                        "signature": "Sync(uint112,uint112)"
                    },
                    "id": 20,
                    "logData": "0x0000000000000000000000000000000000000000000000003782dace9d900000000000000000000000000000000000000000000000000018650127cc3dc80000",
                    "logDecoded": true,
                    "operation": "EVENT",
                    "revert": false,
                    "status": true,
                    "topics": [
                        "0x1c411e9a96e071241c2f21f7726b17ae89e3cab4c78be50e062b03a9fffbbad1"
                    ]
                },
                "nodeType": 1
            },
            "21": {
                "event": {
                    "contract": "0xe76309c6ba662894df71fd294ae21c2a829a130e",
                    "decodedLog": {
                        "name": "Mint",
                        "params": [
                            {
                                "name": "sender",
                                "type": "address",
                                "value": "0x7a250d5630b4cf539739df2c5dacb4c659f2488d"
                            },
                            {
                                "name": "amount0",
                                "type": "uint256",
                                "value": "4,000,000,000,000,000,000"
                            },
                            {
                                "name": "amount1",
                                "type": "uint256",
                                "value": "450,000,000,000,000,000,000"
                            }
                        ],
                        "signature": "Mint(address,uint256,uint256)"
                    },
                    "id": 21,
                    "logData": "0x0000000000000000000000000000000000000000000000003782dace9d900000000000000000000000000000000000000000000000000018650127cc3dc80000",
                    "logDecoded": true,
                    "operation": "EVENT",
                    "revert": false,
                    "status": true,
                    "topics": [
                        "0x4c209b5fc8ad50758f13e2e1088ba56a560dff690a1c6fef26394f4c03821c4f",
                        "0x0000000000000000000000007a250d5630b4cf539739df2c5dacb4c659f2488d"
                    ]
                },
                "nodeType": 1
            },
            "3": {
                "invocation": {
                    "address": "0xe76309c6ba662894df71fd294ae21c2a829a130e",
                    "callData": "0x60806040526001600c5534801561001557600080fd5b506040514690806052612d228239604080519182900360520182208282018252600a8352692ab734b9bbb0b8102b1960b11b6020938401528151808301835260018152603160f81b908401528151808401919091527fbfcc8ef98ffbf7b6c3fec7bf5185b566b9863e35a9d83acd49ad6824b5969738818301527fc89efdaa54c0f20c7adf612882df0950f5a951637e0307cdcb4c672f298b8bc6606082015260808101949094523060a0808601919091528151808603909101815260c09094019052825192019190912060035550600580546001600160a01b03191633179055612c1d806101056000396000f3fe608060405234801561001057600080fd5b50600436106101b95760003560e01c80636a627842116100f9578063ba9a7a5611610097578063d21220a711610071578063d21220a7146105da578063d505accf146105e2578063dd62ed3e14610640578063fff6cae91461067b576101b9565b8063ba9a7a5614610597578063bc25cf771461059f578063c45a0155146105d2576101b9565b80637ecebe00116100d35780637ecebe00146104d757806389afcb441461050a57806395d89b4114610556578063a9059cbb1461055e576101b9565b80636a6278421461046957806370a082311461049c5780637464fc3d146104cf576101b9565b806323b872dd116101665780633644e515116101405780633644e51514610416578063485cc9551461041e5780635909c0d5146104595780635a3d549314610461576101b9565b806323b872dd146103ad57806330adf81f146103f0578063313ce567146103f8576101b9565b8063095ea7b311610197578063095ea7b3146103155780630dfe16811461036257806318160ddd14610393576101b9565b8063022c0d9f146101be57806306fdde03146102595780630902f1ac146102d6575b600080fd5b610257600480360360808110156101d457600080fd5b81359160208101359173ffffffffffffffffffffffffffffffffffffffff604083013516919081019060808101606082013564010000000081111561021857600080fd5b82018360208201111561022a57600080fd5b8035906020019184600183028401116401000000008311171561024c57600080fd5b509092509050610683565b005b610261610d57565b6040805160208082528351818301528351919283929083019185019080838360005b8381101561029b578181015183820152602001610283565b50505050905090810190601f1680156102c85780820380516001836020036101000a031916815260200191505b509250505060405180910390f35b6102de610d90565b604080516dffffffffffffffffffffffffffff948516815292909316602083015263ffffffff168183015290519081900360600190f35b61034e6004803603604081101561032b57600080fd5b5073ffffffffffffffffffffffffffffffffffffffff8135169060200135610de5565b604080519115158252519081900360200190f35b61036a610dfc565b6040805173ffffffffffffffffffffffffffffffffffffffff9092168252519081900360200190f35b61039b610e18565b60408051918252519081900360200190f35b61034e600480360360608110156103c357600080fd5b5073ffffffffffffffffffffffffffffffffffffffff813581169160208101359091169060400135610e1e565b61039b610efd565b610400610f21565b6040805160ff9092168252519081900360200190f35b61039b610f26565b6102576004803603604081101561043457600080fd5b5073ffffffffffffffffffffffffffffffffffffffff81358116916020013516610f2c565b61039b611005565b61039b61100b565b61039b6004803603602081101561047f57600080fd5b503573ffffffffffffffffffffffffffffffffffffffff16611011565b61039b600480360360208110156104b257600080fd5b503573ffffffffffffffffffffffffffffffffffffffff166113cb565b61039b6113dd565b61039b600480360360208110156104ed57600080fd5b503573ffffffffffffffffffffffffffffffffffffffff166113e3565b61053d6004803603602081101561052057600080fd5b503573ffffffffffffffffffffffffffffffffffffffff166113f5565b6040805192835260208301919091528051918290030190f35b610261611892565b61034e6004803603604081101561057457600080fd5b5073ffffffffffffffffffffffffffffffffffffffff81351690602001356118cb565b61039b6118d8565b610257600480360360208110156105b557600080fd5b503573ffffffffffffffffffffffffffffffffffffffff166118de565b61036a611ad4565b61036a611af0565b610257600480360360e08110156105f857600080fd5b5073ffffffffffffffffffffffffffffffffffffffff813581169160208101359091169060408101359060608101359060ff6080820135169060a08101359060c00135611b0c565b61039b6004803603604081101561065657600080fd5b5073ffffffffffffffffffffffffffffffffffffffff81358116916020013516611dd8565b610257611df5565b600c546001146106f457604080517f08c379a000000000000000000000000000000000000000000000000000000000815260206004820152601160248201527f556e697377617056323a204c4f434b4544000000000000000000000000000000604482015290519081900360640190fd5b6000600c55841515806107075750600084115b61075c576040517f08c379a0000000000000000000000000000000000000000000000000000000008152600401808060200182810382526025815260200180612b2f6025913960400191505060405180910390fd5b600080610767610d90565b5091509150816dffffffffffffffffffffffffffff168710801561079a5750806dffffffffffffffffffffffffffff1686105b6107ef576040517f08c379a0000000000000000000000000000000000000000000000000000000008152600401808060200182810382526021815260200180612b786021913960400191505060405180910390fd5b600654600754600091829173ffffffffffffffffffffffffffffffffffffffff91821691908116908916821480159061085457508073ffffffffffffffffffffffffffffffffffffffff168973ffffffffffffffffffffffffffffffffffffffff1614155b6108bf57604080517f08c379a000000000000000000000000000000000000000000000000000000000815260206004820152601560248201527f556e697377617056323a20494e56414c49445f544f0000000000000000000000604482015290519081900360640190fd5b8a156108d0576108d0828a8d611fdb565b89156108e1576108e1818a8c611fdb565b86156109c3578873ffffffffffffffffffffffffffffffffffffffff166310d1e85c338d8d8c8c6040518663ffffffff1660e01b8152600401808673ffffffffffffffffffffffffffffffffffffffff1673ffffffffffffffffffffffffffffffffffffffff168152602001858152602001848152602001806020018281038252848482818152602001925080828437600081840152601f19601f8201169050808301925050509650505050505050600060405180830381600087803b1580156109aa57600080fd5b505af11580156109be573d6000803e3d6000fd5b505050505b604080517f70a08231000000000000000000000000000000000000000000000000000000008152306004820152905173ffffffffffffffffffffffffffffffffffffffff8416916370a08231916024808301926020929190829003018186803b158015610a2f57600080fd5b505afa158015610a43573d6000803e3d6000fd5b505050506040513d6020811015610a5957600080fd5b5051604080517f70a08231000000000000000000000000000000000000000000000000000000008152306004820152905191955073ffffffffffffffffffffffffffffffffffffffff8316916370a0823191602480820192602092909190829003018186803b158015610acb57600080fd5b505afa158015610adf573d6000803e3d6000fd5b505050506040513d6020811015610af557600080fd5b5051925060009150506dffffffffffffffffffffffffffff85168a90038311610b1f576000610b35565b89856dffffffffffffffffffffffffffff160383035b9050600089856dffffffffffffffffffffffffffff16038311610b59576000610b6f565b89856dffffffffffffffffffffffffffff160383035b90506000821180610b805750600081115b610bd5576040517f08c379a0000000000000000000000000000000000000000000000000000000008152600401808060200182810382526024815260200180612b546024913960400191505060405180910390fd5b6000610c09610beb84600363ffffffff6121e816565b610bfd876103e863ffffffff6121e816565b9063ffffffff61226e16565b90506000610c21610beb84600363ffffffff6121e816565b9050610c59620f4240610c4d6dffffffffffffffffffffffffffff8b8116908b1663ffffffff6121e816565b9063ffffffff6121e816565b610c69838363ffffffff6121e816565b1015610cd657604080517f08c379a000000000000000000000000000000000000000000000000000000000815260206004820152600c60248201527f556e697377617056323a204b0000000000000000000000000000000000000000604482015290519081900360640190fd5b5050610ce4848488886122e0565b60408051838152602081018390528082018d9052606081018c9052905173ffffffffffffffffffffffffffffffffffffffff8b169133917fd78ad95fa46c994b6551d0da85fc275fe613ce37657fb8d5e3d130840159d8229181900360800190a350506001600c55505050505050505050565b6040518060400160405280600a81526020017f556e69737761702056320000000000000000000000000000000000000000000081525081565b6008546dffffffffffffffffffffffffffff808216926e0100000000000000000000000000008304909116917c0100000000000000000000000000000000000000000000000000000000900463ffffffff1690565b6000610df233848461259c565b5060015b92915050565b60065473ffffffffffffffffffffffffffffffffffffffff1681565b60005481565b73ffffffffffffffffffffffffffffffffffffffff831660009081526002602090815260408083203384529091528120547fffffffffffffffffffffffffffffffffffffffffffffffffffffffffffffffff14610ee85773ffffffffffffffffffffffffffffffffffffffff84166000908152600260209081526040808320338452909152902054610eb6908363ffffffff61226e16565b73ffffffffffffffffffffffffffffffffffffffff851660009081526002602090815260408083203384529091529020555b610ef384848461260b565b5060019392505050565b7f6e71edae12b1b97f4d1f60370fef10105fa2faae0126114a169c64845d6126c981565b601281565b60035481565b60055473ffffffffffffffffffffffffffffffffffffffff163314610fb257604080517f08c379a000000000000000000000000000000000000000000000000000000000815260206004820152601460248201527f556e697377617056323a20464f5242494444454e000000000000000000000000604482015290519081900360640190fd5b6006805473ffffffffffffffffffffffffffffffffffffffff9384167fffffffffffffffffffffffff00000000000000000000000000000000000000009182161790915560078054929093169116179055565b60095481565b600a5481565b6000600c5460011461108457604080517f08c379a000000000000000000000000000000000000000000000000000000000815260206004820152601160248201527f556e697377617056323a204c4f434b4544000000000000000000000000000000604482015290519081900360640190fd5b6000600c81905580611094610d90565b50600654604080517f70a08231000000000000000000000000000000000000000000000000000000008152306004820152905193955091935060009273ffffffffffffffffffffffffffffffffffffffff909116916370a08231916024808301926020929190829003018186803b15801561110e57600080fd5b505afa158015611122573d6000803e3d6000fd5b505050506040513d602081101561113857600080fd5b5051600754604080517f70a08231000000000000000000000000000000000000000000000000000000008152306004820152905192935060009273ffffffffffffffffffffffffffffffffffffffff909216916370a0823191602480820192602092909190829003018186803b1580156111b157600080fd5b505afa1580156111c5573d6000803e3d6000fd5b505050506040513d60208110156111db57600080fd5b505190506000611201836dffffffffffffffffffffffffffff871663ffffffff61226e16565b90506000611225836dffffffffffffffffffffffffffff871663ffffffff61226e16565b9050600061123387876126ec565b600054909150806112705761125c6103e8610bfd611257878763ffffffff6121e816565b612878565b985061126b60006103e86128ca565b6112cd565b6112ca6dffffffffffffffffffffffffffff8916611294868463ffffffff6121e816565b8161129b57fe5b046dffffffffffffffffffffffffffff89166112bd868563ffffffff6121e816565b816112c457fe5b0461297a565b98505b60008911611326576040517f08c379a0000000000000000000000000000000000000000000000000000000008152600401808060200182810382526028815260200180612bc16028913960400191505060405180910390fd5b6113308a8a6128ca565b61133c86868a8a6122e0565b811561137e5760085461137a906dffffffffffffffffffffffffffff808216916e01000000000000000000000000000090041663ffffffff6121e816565b600b555b6040805185815260208101859052815133927f4c209b5fc8ad50758f13e2e1088ba56a560dff690a1c6fef26394f4c03821c4f928290030190a250506001600c5550949695505050505050565b60016020526000908152604090205481565b600b5481565b60046020526000908152604090205481565b600080600c5460011461146957604080517f08c379a000000000000000000000000000000000000000000000000000000000815260206004820152601160248201527f556e697377617056323a204c4f434b4544000000000000000000000000000000604482015290519081900360640190fd5b6000600c81905580611479610d90565b50600654600754604080517f70a08231000000000000000000000000000000000000000000000000000000008152306004820152905194965092945073ffffffffffffffffffffffffffffffffffffffff9182169391169160009184916370a08231916024808301926020929190829003018186803b1580156114fb57600080fd5b505afa15801561150f573d6000803e3d6000fd5b505050506040513d602081101561152557600080fd5b5051604080517f70a08231000000000000000000000000000000000000000000000000000000008152306004820152905191925060009173ffffffffffffffffffffffffffffffffffffffff8516916370a08231916024808301926020929190829003018186803b15801561159957600080fd5b505afa1580156115ad573d6000803e3d6000fd5b505050506040513d60208110156115c357600080fd5b5051306000908152600160205260408120549192506115e288886126ec565b600054909150806115f9848763ffffffff6121e816565b8161160057fe5b049a5080611614848663ffffffff6121e816565b8161161b57fe5b04995060008b11801561162e575060008a115b611683576040517f08c379a0000000000000000000000000000000000000000000000000000000008152600401808060200182810382526028815260200180612b996028913960400191505060405180910390fd5b61168d3084612992565b611698878d8d611fdb565b6116a3868d8c611fdb565b604080517f70a08231000000000000000000000000000000000000000000000000000000008152306004820152905173ffffffffffffffffffffffffffffffffffffffff8916916370a08231916024808301926020929190829003018186803b15801561170f57600080fd5b505afa158015611723573d6000803e3d6000fd5b505050506040513d602081101561173957600080fd5b5051604080517f70a08231000000000000000000000000000000000000000000000000000000008152306004820152905191965073ffffffffffffffffffffffffffffffffffffffff8816916370a0823191602480820192602092909190829003018186803b1580156117ab57600080fd5b505afa1580156117bf573d6000803e3d6000fd5b505050506040513d60208110156117d557600080fd5b505193506117e585858b8b6122e0565b811561182757600854611823906dffffffffffffffffffffffffffff808216916e01000000000000000000000000000090041663ffffffff6121e816565b600b555b604080518c8152602081018c9052815173ffffffffffffffffffffffffffffffffffffffff8f169233927fdccd412f0b1252819cb1fd330b93224ca42612892bb3f4f789976e6d81936496929081900390910190a35050505050505050506001600c81905550915091565b6040518060400160405280600681526020017f554e492d5632000000000000000000000000000000000000000000000000000081525081565b6000610df233848461260b565b6103e881565b600c5460011461194f57604080517f08c379a000000000000000000000000000000000000000000000000000000000815260206004820152601160248201527f556e697377617056323a204c4f434b4544000000000000000000000000000000604482015290519081900360640190fd5b6000600c55600654600754600854604080517f70a08231000000000000000000000000000000000000000000000000000000008152306004820152905173ffffffffffffffffffffffffffffffffffffffff9485169490931692611a2b9285928792611a26926dffffffffffffffffffffffffffff169185916370a0823191602480820192602092909190829003018186803b1580156119ee57600080fd5b505afa158015611a02573d6000803e3d6000fd5b505050506040513d6020811015611a1857600080fd5b50519063ffffffff61226e16565b611fdb565b600854604080517f70a082310000000000000000000000000000000000000000000000000000000081523060048201529051611aca9284928792611a26926e01000000000000000000000000000090046dffffffffffffffffffffffffffff169173ffffffffffffffffffffffffffffffffffffffff8616916370a0823191602480820192602092909190829003018186803b1580156119ee57600080fd5b50506001600c5550565b60055473ffffffffffffffffffffffffffffffffffffffff1681565b60075473ffffffffffffffffffffffffffffffffffffffff1681565b42841015611b7b57604080517f08c379a000000000000000000000000000000000000000000000000000000000815260206004820152601260248201527f556e697377617056323a20455850495245440000000000000000000000000000604482015290519081900360640190fd5b60035473ffffffffffffffffffffffffffffffffffffffff80891660008181526004602090815260408083208054600180820190925582517f6e71edae12b1b97f4d1f60370fef10105fa2faae0126114a169c64845d6126c98186015280840196909652958d166060860152608085018c905260a085019590955260c08085018b90528151808603909101815260e0850182528051908301207f19010000000000000000000000000000000000000000000000000000000000006101008601526101028501969096526101228085019690965280518085039096018652610142840180825286519683019690962095839052610162840180825286905260ff89166101828501526101a284018890526101c28401879052519193926101e2808201937fffffffffffffffffffffffffffffffffffffffffffffffffffffffffffffffe081019281900390910190855afa158015611cdc573d6000803e3d6000fd5b50506040517fffffffffffffffffffffffffffffffffffffffffffffffffffffffffffffffe0015191505073ffffffffffffffffffffffffffffffffffffffff811615801590611d5757508873ffffffffffffffffffffffffffffffffffffffff168173ffffffffffffffffffffffffffffffffffffffff16145b611dc257604080517f08c379a000000000000000000000000000000000000000000000000000000000815260206004820152601c60248201527f556e697377617056323a20494e56414c49445f5349474e415455524500000000604482015290519081900360640190fd5b611dcd89898961259c565b505050505050505050565b600260209081526000928352604080842090915290825290205481565b600c54600114611e6657604080517f08c379a000000000000000000000000000000000000000000000000000000000815260206004820152601160248201527f556e697377617056323a204c4f434b4544000000000000000000000000000000604482015290519081900360640190fd5b6000600c55600654604080517f70a082310000000000000000000000000000000000000000000000000000000081523060048201529051611fd49273ffffffffffffffffffffffffffffffffffffffff16916370a08231916024808301926020929190829003018186803b158015611edd57600080fd5b505afa158015611ef1573d6000803e3d6000fd5b505050506040513d6020811015611f0757600080fd5b5051600754604080517f70a08231000000000000000000000000000000000000000000000000000000008152306004820152905173ffffffffffffffffffffffffffffffffffffffff909216916370a0823191602480820192602092909190829003018186803b158015611f7a57600080fd5b505afa158015611f8e573d6000803e3d6000fd5b505050506040513d6020811015611fa457600080fd5b50516008546dffffffffffffffffffffffffffff808216916e0100000000000000000000000000009004166122e0565b6001600c55565b604080518082018252601981527f7472616e7366657228616464726573732c75696e743235362900000000000000602091820152815173ffffffffffffffffffffffffffffffffffffffff85811660248301526044808301869052845180840390910181526064909201845291810180517bffffffffffffffffffffffffffffffffffffffffffffffffffffffff167fa9059cbb000000000000000000000000000000000000000000000000000000001781529251815160009460609489169392918291908083835b602083106120e157805182527fffffffffffffffffffffffffffffffffffffffffffffffffffffffffffffffe090920191602091820191016120a4565b6001836020036101000a0380198251168184511680821785525050505050509050019150506000604051808303816000865af19150503d8060008114612143576040519150601f19603f3d011682016040523d82523d6000602084013e612148565b606091505b5091509150818015612176575080511580612176575080806020019051602081101561217357600080fd5b50515b6121e157604080517f08c379a000000000000000000000000000000000000000000000000000000000815260206004820152601a60248201527f556e697377617056323a205452414e534645525f4641494c4544000000000000604482015290519081900360640190fd5b5050505050565b60008115806122035750508082028282828161220057fe5b04145b610df657604080517f08c379a000000000000000000000000000000000000000000000000000000000815260206004820152601460248201527f64732d6d6174682d6d756c2d6f766572666c6f77000000000000000000000000604482015290519081900360640190fd5b80820382811115610df657604080517f08c379a000000000000000000000000000000000000000000000000000000000815260206004820152601560248201527f64732d6d6174682d7375622d756e646572666c6f770000000000000000000000604482015290519081900360640190fd5b6dffffffffffffffffffffffffffff841180159061230c57506dffffffffffffffffffffffffffff8311155b61237757604080517f08c379a000000000000000000000000000000000000000000000000000000000815260206004820152601360248201527f556e697377617056323a204f564552464c4f5700000000000000000000000000604482015290519081900360640190fd5b60085463ffffffff428116917c0100000000000000000000000000000000000000000000000000000000900481168203908116158015906123c757506dffffffffffffffffffffffffffff841615155b80156123e257506dffffffffffffffffffffffffffff831615155b15612492578063ffffffff16612425856123fb86612a57565b7bffffffffffffffffffffffffffffffffffffffffffffffffffffffff169063ffffffff612a7b16565b600980547bffffffffffffffffffffffffffffffffffffffffffffffffffffffff929092169290920201905563ffffffff8116612465846123fb87612a57565b600a80547bffffffffffffffffffffffffffffffffffffffffffffffffffffffff92909216929092020190555b600880547fffffffffffffffffffffffffffffffffffff0000000000000000000000000000166dffffffffffffffffffffffffffff888116919091177fffffffff0000000000000000000000000000ffffffffffffffffffffffffffff166e0100000000000000000000000000008883168102919091177bffffffffffffffffffffffffffffffffffffffffffffffffffffffff167c010000000000000000000000000000000000000000000000000000000063ffffffff871602179283905560408051848416815291909304909116602082015281517f1c411e9a96e071241c2f21f7726b17ae89e3cab4c78be50e062b03a9fffbbad1929181900390910190a1505050505050565b73ffffffffffffffffffffffffffffffffffffffff808416600081815260026020908152604080832094871680845294825291829020859055815185815291517f8c5be1e5ebec7d5bd14f71427d1e84f3dd0314c0f7b2291e5b200ac8c7c3b9259281900390910190a3505050565b73ffffffffffffffffffffffffffffffffffffffff8316600090815260016020526040902054612641908263ffffffff61226e16565b73ffffffffffffffffffffffffffffffffffffffff8085166000908152600160205260408082209390935590841681522054612683908263ffffffff612abc16565b73ffffffffffffffffffffffffffffffffffffffff80841660008181526001602090815260409182902094909455805185815290519193928716927fddf252ad1be2c89b69c2b068fc378daa952ba7f163c4a11628f55a4df523b3ef92918290030190a3505050565b600080600560009054906101000a900473ffffffffffffffffffffffffffffffffffffffff1673ffffffffffffffffffffffffffffffffffffffff1663017e7e586040518163ffffffff1660e01b815260040160206040518083038186803b15801561275757600080fd5b505afa15801561276b573d6000803e3d6000fd5b505050506040513d602081101561278157600080fd5b5051600b5473ffffffffffffffffffffffffffffffffffffffff821615801594509192509061286457801561285f5760006127d86112576dffffffffffffffffffffffffffff88811690881663ffffffff6121e816565b905060006127e583612878565b90508082111561285c576000612813612804848463ffffffff61226e16565b6000549063ffffffff6121e816565b905060006128388361282c86600563ffffffff6121e816565b9063ffffffff612abc16565b9050600081838161284557fe5b04905080156128585761285887826128ca565b5050505b50505b612870565b8015612870576000600b555b505092915050565b600060038211156128bb575080600160028204015b818110156128b5578091506002818285816128a457fe5b0401816128ad57fe5b04905061288d565b506128c5565b81156128c5575060015b919050565b6000546128dd908263ffffffff612abc16565b600090815573ffffffffffffffffffffffffffffffffffffffff8316815260016020526040902054612915908263ffffffff612abc16565b73ffffffffffffffffffffffffffffffffffffffff831660008181526001602090815260408083209490945583518581529351929391927fddf252ad1be2c89b69c2b068fc378daa952ba7f163c4a11628f55a4df523b3ef9281900390910190a35050565b6000818310612989578161298b565b825b9392505050565b73ffffffffffffffffffffffffffffffffffffffff82166000908152600160205260409020546129c8908263ffffffff61226e16565b73ffffffffffffffffffffffffffffffffffffffff831660009081526001602052604081209190915554612a02908263ffffffff61226e16565b600090815560408051838152905173ffffffffffffffffffffffffffffffffffffffff8516917fddf252ad1be2c89b69c2b068fc378daa952ba7f163c4a11628f55a4df523b3ef919081900360200190a35050565b6dffffffffffffffffffffffffffff166e0100000000000000000000000000000290565b60006dffffffffffffffffffffffffffff82167bffffffffffffffffffffffffffffffffffffffffffffffffffffffff841681612ab457fe5b049392505050565b80820182811015610df657604080517f08c379a000000000000000000000000000000000000000000000000000000000815260206004820152601460248201527f64732d6d6174682d6164642d6f766572666c6f77000000000000000000000000604482015290519081900360640190fdfe556e697377617056323a20494e53554646494349454e545f4f55545055545f414d4f554e54556e697377617056323a20494e53554646494349454e545f494e5055545f414d4f554e54556e697377617056323a20494e53554646494349454e545f4c4951554944495459556e697377617056323a20494e53554646494349454e545f4c49515549444954595f4255524e4544556e697377617056323a20494e53554646494349454e545f4c49515549444954595f4d494e544544a265627a7a723158207dca18479e58487606bf70c79e44d8dee62353c9ee6d01f9a9d70885b8765f2264736f6c63430005100032454950373132446f6d61696e28737472696e67206e616d652c737472696e672076657273696f6e2c75696e7432353620636861696e49642c6164647265737320766572696679696e67436f6e747261637429",
                    "decodedMethod": {
                        "callParams": [],
                        "constructorArguments": "",
                        "name": "constructor",
                        "returnParams": [
                            {
                                "name": "runtime code",
                                "type": "",
                                "value": "0x608060405234801561001057600080fd5b50600436106101b95760003560e01c80636a627842116100f9578063ba9a7a5611610097578063d21220a711610071578063d21220a7146105da578063d505accf146105e2578063dd62ed3e14610640578063fff6cae91461067b576101b9565b8063ba9a7a5614610597578063bc25cf771461059f578063c45a0155146105d2576101b9565b80637ecebe00116100d35780637ecebe00146104d757806389afcb441461050a57806395d89b4114610556578063a9059cbb1461055e576101b9565b80636a6278421461046957806370a082311461049c5780637464fc3d146104cf576101b9565b806323b872dd116101665780633644e515116101405780633644e51514610416578063485cc9551461041e5780635909c0d5146104595780635a3d549314610461576101b9565b806323b872dd146103ad57806330adf81f146103f0578063313ce567146103f8576101b9565b8063095ea7b311610197578063095ea7b3146103155780630dfe16811461036257806318160ddd14610393576101b9565b8063022c0d9f146101be57806306fdde03146102595780630902f1ac146102d6575b600080fd5b610257600480360360808110156101d457600080fd5b81359160208101359173ffffffffffffffffffffffffffffffffffffffff604083013516919081019060808101606082013564010000000081111561021857600080fd5b82018360208201111561022a57600080fd5b8035906020019184600183028401116401000000008311171561024c57600080fd5b509092509050610683565b005b610261610d57565b6040805160208082528351818301528351919283929083019185019080838360005b8381101561029b578181015183820152602001610283565b50505050905090810190601f1680156102c85780820380516001836020036101000a031916815260200191505b509250505060405180910390f35b6102de610d90565b604080516dffffffffffffffffffffffffffff948516815292909316602083015263ffffffff168183015290519081900360600190f35b61034e6004803603604081101561032b57600080fd5b5073ffffffffffffffffffffffffffffffffffffffff8135169060200135610de5565b604080519115158252519081900360200190f35b61036a610dfc565b6040805173ffffffffffffffffffffffffffffffffffffffff9092168252519081900360200190f35b61039b610e18565b60408051918252519081900360200190f35b61034e600480360360608110156103c357600080fd5b5073ffffffffffffffffffffffffffffffffffffffff813581169160208101359091169060400135610e1e565b61039b610efd565b610400610f21565b6040805160ff9092168252519081900360200190f35b61039b610f26565b6102576004803603604081101561043457600080fd5b5073ffffffffffffffffffffffffffffffffffffffff81358116916020013516610f2c565b61039b611005565b61039b61100b565b61039b6004803603602081101561047f57600080fd5b503573ffffffffffffffffffffffffffffffffffffffff16611011565b61039b600480360360208110156104b257600080fd5b503573ffffffffffffffffffffffffffffffffffffffff166113cb565b61039b6113dd565b61039b600480360360208110156104ed57600080fd5b503573ffffffffffffffffffffffffffffffffffffffff166113e3565b61053d6004803603602081101561052057600080fd5b503573ffffffffffffffffffffffffffffffffffffffff166113f5565b6040805192835260208301919091528051918290030190f35b610261611892565b61034e6004803603604081101561057457600080fd5b5073ffffffffffffffffffffffffffffffffffffffff81351690602001356118cb565b61039b6118d8565b610257600480360360208110156105b557600080fd5b503573ffffffffffffffffffffffffffffffffffffffff166118de565b61036a611ad4565b61036a611af0565b610257600480360360e08110156105f857600080fd5b5073ffffffffffffffffffffffffffffffffffffffff813581169160208101359091169060408101359060608101359060ff6080820135169060a08101359060c00135611b0c565b61039b6004803603604081101561065657600080fd5b5073ffffffffffffffffffffffffffffffffffffffff81358116916020013516611dd8565b610257611df5565b600c546001146106f457604080517f08c379a000000000000000000000000000000000000000000000000000000000815260206004820152601160248201527f556e697377617056323a204c4f434b4544000000000000000000000000000000604482015290519081900360640190fd5b6000600c55841515806107075750600084115b61075c576040517f08c379a0000000000000000000000000000000000000000000000000000000008152600401808060200182810382526025815260200180612b2f6025913960400191505060405180910390fd5b600080610767610d90565b5091509150816dffffffffffffffffffffffffffff168710801561079a5750806dffffffffffffffffffffffffffff1686105b6107ef576040517f08c379a0000000000000000000000000000000000000000000000000000000008152600401808060200182810382526021815260200180612b786021913960400191505060405180910390fd5b600654600754600091829173ffffffffffffffffffffffffffffffffffffffff91821691908116908916821480159061085457508073ffffffffffffffffffffffffffffffffffffffff168973ffffffffffffffffffffffffffffffffffffffff1614155b6108bf57604080517f08c379a000000000000000000000000000000000000000000000000000000000815260206004820152601560248201527f556e697377617056323a20494e56414c49445f544f0000000000000000000000604482015290519081900360640190fd5b8a156108d0576108d0828a8d611fdb565b89156108e1576108e1818a8c611fdb565b86156109c3578873ffffffffffffffffffffffffffffffffffffffff166310d1e85c338d8d8c8c6040518663ffffffff1660e01b8152600401808673ffffffffffffffffffffffffffffffffffffffff1673ffffffffffffffffffffffffffffffffffffffff168152602001858152602001848152602001806020018281038252848482818152602001925080828437600081840152601f19601f8201169050808301925050509650505050505050600060405180830381600087803b1580156109aa57600080fd5b505af11580156109be573d6000803e3d6000fd5b505050505b604080517f70a08231000000000000000000000000000000000000000000000000000000008152306004820152905173ffffffffffffffffffffffffffffffffffffffff8416916370a08231916024808301926020929190829003018186803b158015610a2f57600080fd5b505afa158015610a43573d6000803e3d6000fd5b505050506040513d6020811015610a5957600080fd5b5051604080517f70a08231000000000000000000000000000000000000000000000000000000008152306004820152905191955073ffffffffffffffffffffffffffffffffffffffff8316916370a0823191602480820192602092909190829003018186803b158015610acb57600080fd5b505afa158015610adf573d6000803e3d6000fd5b505050506040513d6020811015610af557600080fd5b5051925060009150506dffffffffffffffffffffffffffff85168a90038311610b1f576000610b35565b89856dffffffffffffffffffffffffffff160383035b9050600089856dffffffffffffffffffffffffffff16038311610b59576000610b6f565b89856dffffffffffffffffffffffffffff160383035b90506000821180610b805750600081115b610bd5576040517f08c379a0000000000000000000000000000000000000000000000000000000008152600401808060200182810382526024815260200180612b546024913960400191505060405180910390fd5b6000610c09610beb84600363ffffffff6121e816565b610bfd876103e863ffffffff6121e816565b9063ffffffff61226e16565b90506000610c21610beb84600363ffffffff6121e816565b9050610c59620f4240610c4d6dffffffffffffffffffffffffffff8b8116908b1663ffffffff6121e816565b9063ffffffff6121e816565b610c69838363ffffffff6121e816565b1015610cd657604080517f08c379a000000000000000000000000000000000000000000000000000000000815260206004820152600c60248201527f556e697377617056323a204b0000000000000000000000000000000000000000604482015290519081900360640190fd5b5050610ce4848488886122e0565b60408051838152602081018390528082018d9052606081018c9052905173ffffffffffffffffffffffffffffffffffffffff8b169133917fd78ad95fa46c994b6551d0da85fc275fe613ce37657fb8d5e3d130840159d8229181900360800190a350506001600c55505050505050505050565b6040518060400160405280600a81526020017f556e69737761702056320000000000000000000000000000000000000000000081525081565b6008546dffffffffffffffffffffffffffff808216926e0100000000000000000000000000008304909116917c0100000000000000000000000000000000000000000000000000000000900463ffffffff1690565b6000610df233848461259c565b5060015b92915050565b60065473ffffffffffffffffffffffffffffffffffffffff1681565b60005481565b73ffffffffffffffffffffffffffffffffffffffff831660009081526002602090815260408083203384529091528120547fffffffffffffffffffffffffffffffffffffffffffffffffffffffffffffffff14610ee85773ffffffffffffffffffffffffffffffffffffffff84166000908152600260209081526040808320338452909152902054610eb6908363ffffffff61226e16565b73ffffffffffffffffffffffffffffffffffffffff851660009081526002602090815260408083203384529091529020555b610ef384848461260b565b5060019392505050565b7f6e71edae12b1b97f4d1f60370fef10105fa2faae0126114a169c64845d6126c981565b601281565b60035481565b60055473ffffffffffffffffffffffffffffffffffffffff163314610fb257604080517f08c379a000000000000000000000000000000000000000000000000000000000815260206004820152601460248201527f556e697377617056323a20464f5242494444454e000000000000000000000000604482015290519081900360640190fd5b6006805473ffffffffffffffffffffffffffffffffffffffff9384167fffffffffffffffffffffffff00000000000000000000000000000000000000009182161790915560078054929093169116179055565b60095481565b600a5481565b6000600c5460011461108457604080517f08c379a000000000000000000000000000000000000000000000000000000000815260206004820152601160248201527f556e697377617056323a204c4f434b4544000000000000000000000000000000604482015290519081900360640190fd5b6000600c81905580611094610d90565b50600654604080517f70a08231000000000000000000000000000000000000000000000000000000008152306004820152905193955091935060009273ffffffffffffffffffffffffffffffffffffffff909116916370a08231916024808301926020929190829003018186803b15801561110e57600080fd5b505afa158015611122573d6000803e3d6000fd5b505050506040513d602081101561113857600080fd5b5051600754604080517f70a08231000000000000000000000000000000000000000000000000000000008152306004820152905192935060009273ffffffffffffffffffffffffffffffffffffffff909216916370a0823191602480820192602092909190829003018186803b1580156111b157600080fd5b505afa1580156111c5573d6000803e3d6000fd5b505050506040513d60208110156111db57600080fd5b505190506000611201836dffffffffffffffffffffffffffff871663ffffffff61226e16565b90506000611225836dffffffffffffffffffffffffffff871663ffffffff61226e16565b9050600061123387876126ec565b600054909150806112705761125c6103e8610bfd611257878763ffffffff6121e816565b612878565b985061126b60006103e86128ca565b6112cd565b6112ca6dffffffffffffffffffffffffffff8916611294868463ffffffff6121e816565b8161129b57fe5b046dffffffffffffffffffffffffffff89166112bd868563ffffffff6121e816565b816112c457fe5b0461297a565b98505b60008911611326576040517f08c379a0000000000000000000000000000000000000000000000000000000008152600401808060200182810382526028815260200180612bc16028913960400191505060405180910390fd5b6113308a8a6128ca565b61133c86868a8a6122e0565b811561137e5760085461137a906dffffffffffffffffffffffffffff808216916e01000000000000000000000000000090041663ffffffff6121e816565b600b555b6040805185815260208101859052815133927f4c209b5fc8ad50758f13e2e1088ba56a560dff690a1c6fef26394f4c03821c4f928290030190a250506001600c5550949695505050505050565b60016020526000908152604090205481565b600b5481565b60046020526000908152604090205481565b600080600c5460011461146957604080517f08c379a000000000000000000000000000000000000000000000000000000000815260206004820152601160248201527f556e697377617056323a204c4f434b4544000000000000000000000000000000604482015290519081900360640190fd5b6000600c81905580611479610d90565b50600654600754604080517f70a08231000000000000000000000000000000000000000000000000000000008152306004820152905194965092945073ffffffffffffffffffffffffffffffffffffffff9182169391169160009184916370a08231916024808301926020929190829003018186803b1580156114fb57600080fd5b505afa15801561150f573d6000803e3d6000fd5b505050506040513d602081101561152557600080fd5b5051604080517f70a08231000000000000000000000000000000000000000000000000000000008152306004820152905191925060009173ffffffffffffffffffffffffffffffffffffffff8516916370a08231916024808301926020929190829003018186803b15801561159957600080fd5b505afa1580156115ad573d6000803e3d6000fd5b505050506040513d60208110156115c357600080fd5b5051306000908152600160205260408120549192506115e288886126ec565b600054909150806115f9848763ffffffff6121e816565b8161160057fe5b049a5080611614848663ffffffff6121e816565b8161161b57fe5b04995060008b11801561162e575060008a115b611683576040517f08c379a0000000000000000000000000000000000000000000000000000000008152600401808060200182810382526028815260200180612b996028913960400191505060405180910390fd5b61168d3084612992565b611698878d8d611fdb565b6116a3868d8c611fdb565b604080517f70a08231000000000000000000000000000000000000000000000000000000008152306004820152905173ffffffffffffffffffffffffffffffffffffffff8916916370a08231916024808301926020929190829003018186803b15801561170f57600080fd5b505afa158015611723573d6000803e3d6000fd5b505050506040513d602081101561173957600080fd5b5051604080517f70a08231000000000000000000000000000000000000000000000000000000008152306004820152905191965073ffffffffffffffffffffffffffffffffffffffff8816916370a0823191602480820192602092909190829003018186803b1580156117ab57600080fd5b505afa1580156117bf573d6000803e3d6000fd5b505050506040513d60208110156117d557600080fd5b505193506117e585858b8b6122e0565b811561182757600854611823906dffffffffffffffffffffffffffff808216916e01000000000000000000000000000090041663ffffffff6121e816565b600b555b604080518c8152602081018c9052815173ffffffffffffffffffffffffffffffffffffffff8f169233927fdccd412f0b1252819cb1fd330b93224ca42612892bb3f4f789976e6d81936496929081900390910190a35050505050505050506001600c81905550915091565b6040518060400160405280600681526020017f554e492d5632000000000000000000000000000000000000000000000000000081525081565b6000610df233848461260b565b6103e881565b600c5460011461194f57604080517f08c379a000000000000000000000000000000000000000000000000000000000815260206004820152601160248201527f556e697377617056323a204c4f434b4544000000000000000000000000000000604482015290519081900360640190fd5b6000600c55600654600754600854604080517f70a08231000000000000000000000000000000000000000000000000000000008152306004820152905173ffffffffffffffffffffffffffffffffffffffff9485169490931692611a2b9285928792611a26926dffffffffffffffffffffffffffff169185916370a0823191602480820192602092909190829003018186803b1580156119ee57600080fd5b505afa158015611a02573d6000803e3d6000fd5b505050506040513d6020811015611a1857600080fd5b50519063ffffffff61226e16565b611fdb565b600854604080517f70a082310000000000000000000000000000000000000000000000000000000081523060048201529051611aca9284928792611a26926e01000000000000000000000000000090046dffffffffffffffffffffffffffff169173ffffffffffffffffffffffffffffffffffffffff8616916370a0823191602480820192602092909190829003018186803b1580156119ee57600080fd5b50506001600c5550565b60055473ffffffffffffffffffffffffffffffffffffffff1681565b60075473ffffffffffffffffffffffffffffffffffffffff1681565b42841015611b7b57604080517f08c379a000000000000000000000000000000000000000000000000000000000815260206004820152601260248201527f556e697377617056323a20455850495245440000000000000000000000000000604482015290519081900360640190fd5b60035473ffffffffffffffffffffffffffffffffffffffff80891660008181526004602090815260408083208054600180820190925582517f6e71edae12b1b97f4d1f60370fef10105fa2faae0126114a169c64845d6126c98186015280840196909652958d166060860152608085018c905260a085019590955260c08085018b90528151808603909101815260e0850182528051908301207f19010000000000000000000000000000000000000000000000000000000000006101008601526101028501969096526101228085019690965280518085039096018652610142840180825286519683019690962095839052610162840180825286905260ff89166101828501526101a284018890526101c28401879052519193926101e2808201937fffffffffffffffffffffffffffffffffffffffffffffffffffffffffffffffe081019281900390910190855afa158015611cdc573d6000803e3d6000fd5b50506040517fffffffffffffffffffffffffffffffffffffffffffffffffffffffffffffffe0015191505073ffffffffffffffffffffffffffffffffffffffff811615801590611d5757508873ffffffffffffffffffffffffffffffffffffffff168173ffffffffffffffffffffffffffffffffffffffff16145b611dc257604080517f08c379a000000000000000000000000000000000000000000000000000000000815260206004820152601c60248201527f556e697377617056323a20494e56414c49445f5349474e415455524500000000604482015290519081900360640190fd5b611dcd89898961259c565b505050505050505050565b600260209081526000928352604080842090915290825290205481565b600c54600114611e6657604080517f08c379a000000000000000000000000000000000000000000000000000000000815260206004820152601160248201527f556e697377617056323a204c4f434b4544000000000000000000000000000000604482015290519081900360640190fd5b6000600c55600654604080517f70a082310000000000000000000000000000000000000000000000000000000081523060048201529051611fd49273ffffffffffffffffffffffffffffffffffffffff16916370a08231916024808301926020929190829003018186803b158015611edd57600080fd5b505afa158015611ef1573d6000803e3d6000fd5b505050506040513d6020811015611f0757600080fd5b5051600754604080517f70a08231000000000000000000000000000000000000000000000000000000008152306004820152905173ffffffffffffffffffffffffffffffffffffffff909216916370a0823191602480820192602092909190829003018186803b158015611f7a57600080fd5b505afa158015611f8e573d6000803e3d6000fd5b505050506040513d6020811015611fa457600080fd5b50516008546dffffffffffffffffffffffffffff808216916e0100000000000000000000000000009004166122e0565b6001600c55565b604080518082018252601981527f7472616e7366657228616464726573732c75696e743235362900000000000000602091820152815173ffffffffffffffffffffffffffffffffffffffff85811660248301526044808301869052845180840390910181526064909201845291810180517bffffffffffffffffffffffffffffffffffffffffffffffffffffffff167fa9059cbb000000000000000000000000000000000000000000000000000000001781529251815160009460609489169392918291908083835b602083106120e157805182527fffffffffffffffffffffffffffffffffffffffffffffffffffffffffffffffe090920191602091820191016120a4565b6001836020036101000a0380198251168184511680821785525050505050509050019150506000604051808303816000865af19150503d8060008114612143576040519150601f19603f3d011682016040523d82523d6000602084013e612148565b606091505b5091509150818015612176575080511580612176575080806020019051602081101561217357600080fd5b50515b6121e157604080517f08c379a000000000000000000000000000000000000000000000000000000000815260206004820152601a60248201527f556e697377617056323a205452414e534645525f4641494c4544000000000000604482015290519081900360640190fd5b5050505050565b60008115806122035750508082028282828161220057fe5b04145b610df657604080517f08c379a000000000000000000000000000000000000000000000000000000000815260206004820152601460248201527f64732d6d6174682d6d756c2d6f766572666c6f77000000000000000000000000604482015290519081900360640190fd5b80820382811115610df657604080517f08c379a000000000000000000000000000000000000000000000000000000000815260206004820152601560248201527f64732d6d6174682d7375622d756e646572666c6f770000000000000000000000604482015290519081900360640190fd5b6dffffffffffffffffffffffffffff841180159061230c57506dffffffffffffffffffffffffffff8311155b61237757604080517f08c379a000000000000000000000000000000000000000000000000000000000815260206004820152601360248201527f556e697377617056323a204f564552464c4f5700000000000000000000000000604482015290519081900360640190fd5b60085463ffffffff428116917c0100000000000000000000000000000000000000000000000000000000900481168203908116158015906123c757506dffffffffffffffffffffffffffff841615155b80156123e257506dffffffffffffffffffffffffffff831615155b15612492578063ffffffff16612425856123fb86612a57565b7bffffffffffffffffffffffffffffffffffffffffffffffffffffffff169063ffffffff612a7b16565b600980547bffffffffffffffffffffffffffffffffffffffffffffffffffffffff929092169290920201905563ffffffff8116612465846123fb87612a57565b600a80547bffffffffffffffffffffffffffffffffffffffffffffffffffffffff92909216929092020190555b600880547fffffffffffffffffffffffffffffffffffff0000000000000000000000000000166dffffffffffffffffffffffffffff888116919091177fffffffff0000000000000000000000000000ffffffffffffffffffffffffffff166e0100000000000000000000000000008883168102919091177bffffffffffffffffffffffffffffffffffffffffffffffffffffffff167c010000000000000000000000000000000000000000000000000000000063ffffffff871602179283905560408051848416815291909304909116602082015281517f1c411e9a96e071241c2f21f7726b17ae89e3cab4c78be50e062b03a9fffbbad1929181900390910190a1505050505050565b73ffffffffffffffffffffffffffffffffffffffff808416600081815260026020908152604080832094871680845294825291829020859055815185815291517f8c5be1e5ebec7d5bd14f71427d1e84f3dd0314c0f7b2291e5b200ac8c7c3b9259281900390910190a3505050565b73ffffffffffffffffffffffffffffffffffffffff8316600090815260016020526040902054612641908263ffffffff61226e16565b73ffffffffffffffffffffffffffffffffffffffff8085166000908152600160205260408082209390935590841681522054612683908263ffffffff612abc16565b73ffffffffffffffffffffffffffffffffffffffff80841660008181526001602090815260409182902094909455805185815290519193928716927fddf252ad1be2c89b69c2b068fc378daa952ba7f163c4a11628f55a4df523b3ef92918290030190a3505050565b600080600560009054906101000a900473ffffffffffffffffffffffffffffffffffffffff1673ffffffffffffffffffffffffffffffffffffffff1663017e7e586040518163ffffffff1660e01b815260040160206040518083038186803b15801561275757600080fd5b505afa15801561276b573d6000803e3d6000fd5b505050506040513d602081101561278157600080fd5b5051600b5473ffffffffffffffffffffffffffffffffffffffff821615801594509192509061286457801561285f5760006127d86112576dffffffffffffffffffffffffffff88811690881663ffffffff6121e816565b905060006127e583612878565b90508082111561285c576000612813612804848463ffffffff61226e16565b6000549063ffffffff6121e816565b905060006128388361282c86600563ffffffff6121e816565b9063ffffffff612abc16565b9050600081838161284557fe5b04905080156128585761285887826128ca565b5050505b50505b612870565b8015612870576000600b555b505092915050565b600060038211156128bb575080600160028204015b818110156128b5578091506002818285816128a457fe5b0401816128ad57fe5b04905061288d565b506128c5565b81156128c5575060015b919050565b6000546128dd908263ffffffff612abc16565b600090815573ffffffffffffffffffffffffffffffffffffffff8316815260016020526040902054612915908263ffffffff612abc16565b73ffffffffffffffffffffffffffffffffffffffff831660008181526001602090815260408083209490945583518581529351929391927fddf252ad1be2c89b69c2b068fc378daa952ba7f163c4a11628f55a4df523b3ef9281900390910190a35050565b6000818310612989578161298b565b825b9392505050565b73ffffffffffffffffffffffffffffffffffffffff82166000908152600160205260409020546129c8908263ffffffff61226e16565b73ffffffffffffffffffffffffffffffffffffffff831660009081526001602052604081209190915554612a02908263ffffffff61226e16565b600090815560408051838152905173ffffffffffffffffffffffffffffffffffffffff8516917fddf252ad1be2c89b69c2b068fc378daa952ba7f163c4a11628f55a4df523b3ef919081900360200190a35050565b6dffffffffffffffffffffffffffff166e0100000000000000000000000000000290565b60006dffffffffffffffffffffffffffff82167bffffffffffffffffffffffffffffffffffffffffffffffffffffffff841681612ab457fe5b049392505050565b80820182811015610df657604080517f08c379a000000000000000000000000000000000000000000000000000000000815260206004820152601460248201527f64732d6d6174682d6164642d6f766572666c6f77000000000000000000000000604482015290519081900360640190fdfe556e697377617056323a20494e53554646494349454e545f4f55545055545f414d4f554e54556e697377617056323a20494e53554646494349454e545f494e5055545f414d4f554e54556e697377617056323a20494e53554646494349454e545f4c4951554944495459556e697377617056323a20494e53554646494349454e545f4c49515549444954595f4255524e4544556e697377617056323a20494e53554646494349454e545f4c49515549444954595f4d494e544544a265627a7a723158207dca18479e58487606bf70c79e44d8dee62353c9ee6d01f9a9d70885b8765f2264736f6c63430005100032"
                            }
                        ],
                        "signature": ""
                    },
                    "errorInfo": "",
                    "fromAddress": "0x5c69bee701ef814a2b6a3edd4b1652cb9cc5aa6f",
                    "gasUsed": 2327803,
                    "id": 3,
                    "methodDecoded": true,
                    "operation": "CREATE2",
                    "output": "0x608060405234801561001057600080fd5b50600436106101b95760003560e01c80636a627842116100f9578063ba9a7a5611610097578063d21220a711610071578063d21220a7146105da578063d505accf146105e2578063dd62ed3e14610640578063fff6cae91461067b576101b9565b8063ba9a7a5614610597578063bc25cf771461059f578063c45a0155146105d2576101b9565b80637ecebe00116100d35780637ecebe00146104d757806389afcb441461050a57806395d89b4114610556578063a9059cbb1461055e576101b9565b80636a6278421461046957806370a082311461049c5780637464fc3d146104cf576101b9565b806323b872dd116101665780633644e515116101405780633644e51514610416578063485cc9551461041e5780635909c0d5146104595780635a3d549314610461576101b9565b806323b872dd146103ad57806330adf81f146103f0578063313ce567146103f8576101b9565b8063095ea7b311610197578063095ea7b3146103155780630dfe16811461036257806318160ddd14610393576101b9565b8063022c0d9f146101be57806306fdde03146102595780630902f1ac146102d6575b600080fd5b610257600480360360808110156101d457600080fd5b81359160208101359173ffffffffffffffffffffffffffffffffffffffff604083013516919081019060808101606082013564010000000081111561021857600080fd5b82018360208201111561022a57600080fd5b8035906020019184600183028401116401000000008311171561024c57600080fd5b509092509050610683565b005b610261610d57565b6040805160208082528351818301528351919283929083019185019080838360005b8381101561029b578181015183820152602001610283565b50505050905090810190601f1680156102c85780820380516001836020036101000a031916815260200191505b509250505060405180910390f35b6102de610d90565b604080516dffffffffffffffffffffffffffff948516815292909316602083015263ffffffff168183015290519081900360600190f35b61034e6004803603604081101561032b57600080fd5b5073ffffffffffffffffffffffffffffffffffffffff8135169060200135610de5565b604080519115158252519081900360200190f35b61036a610dfc565b6040805173ffffffffffffffffffffffffffffffffffffffff9092168252519081900360200190f35b61039b610e18565b60408051918252519081900360200190f35b61034e600480360360608110156103c357600080fd5b5073ffffffffffffffffffffffffffffffffffffffff813581169160208101359091169060400135610e1e565b61039b610efd565b610400610f21565b6040805160ff9092168252519081900360200190f35b61039b610f26565b6102576004803603604081101561043457600080fd5b5073ffffffffffffffffffffffffffffffffffffffff81358116916020013516610f2c565b61039b611005565b61039b61100b565b61039b6004803603602081101561047f57600080fd5b503573ffffffffffffffffffffffffffffffffffffffff16611011565b61039b600480360360208110156104b257600080fd5b503573ffffffffffffffffffffffffffffffffffffffff166113cb565b61039b6113dd565b61039b600480360360208110156104ed57600080fd5b503573ffffffffffffffffffffffffffffffffffffffff166113e3565b61053d6004803603602081101561052057600080fd5b503573ffffffffffffffffffffffffffffffffffffffff166113f5565b6040805192835260208301919091528051918290030190f35b610261611892565b61034e6004803603604081101561057457600080fd5b5073ffffffffffffffffffffffffffffffffffffffff81351690602001356118cb565b61039b6118d8565b610257600480360360208110156105b557600080fd5b503573ffffffffffffffffffffffffffffffffffffffff166118de565b61036a611ad4565b61036a611af0565b610257600480360360e08110156105f857600080fd5b5073ffffffffffffffffffffffffffffffffffffffff813581169160208101359091169060408101359060608101359060ff6080820135169060a08101359060c00135611b0c565b61039b6004803603604081101561065657600080fd5b5073ffffffffffffffffffffffffffffffffffffffff81358116916020013516611dd8565b610257611df5565b600c546001146106f457604080517f08c379a000000000000000000000000000000000000000000000000000000000815260206004820152601160248201527f556e697377617056323a204c4f434b4544000000000000000000000000000000604482015290519081900360640190fd5b6000600c55841515806107075750600084115b61075c576040517f08c379a0000000000000000000000000000000000000000000000000000000008152600401808060200182810382526025815260200180612b2f6025913960400191505060405180910390fd5b600080610767610d90565b5091509150816dffffffffffffffffffffffffffff168710801561079a5750806dffffffffffffffffffffffffffff1686105b6107ef576040517f08c379a0000000000000000000000000000000000000000000000000000000008152600401808060200182810382526021815260200180612b786021913960400191505060405180910390fd5b600654600754600091829173ffffffffffffffffffffffffffffffffffffffff91821691908116908916821480159061085457508073ffffffffffffffffffffffffffffffffffffffff168973ffffffffffffffffffffffffffffffffffffffff1614155b6108bf57604080517f08c379a000000000000000000000000000000000000000000000000000000000815260206004820152601560248201527f556e697377617056323a20494e56414c49445f544f0000000000000000000000604482015290519081900360640190fd5b8a156108d0576108d0828a8d611fdb565b89156108e1576108e1818a8c611fdb565b86156109c3578873ffffffffffffffffffffffffffffffffffffffff166310d1e85c338d8d8c8c6040518663ffffffff1660e01b8152600401808673ffffffffffffffffffffffffffffffffffffffff1673ffffffffffffffffffffffffffffffffffffffff168152602001858152602001848152602001806020018281038252848482818152602001925080828437600081840152601f19601f8201169050808301925050509650505050505050600060405180830381600087803b1580156109aa57600080fd5b505af11580156109be573d6000803e3d6000fd5b505050505b604080517f70a08231000000000000000000000000000000000000000000000000000000008152306004820152905173ffffffffffffffffffffffffffffffffffffffff8416916370a08231916024808301926020929190829003018186803b158015610a2f57600080fd5b505afa158015610a43573d6000803e3d6000fd5b505050506040513d6020811015610a5957600080fd5b5051604080517f70a08231000000000000000000000000000000000000000000000000000000008152306004820152905191955073ffffffffffffffffffffffffffffffffffffffff8316916370a0823191602480820192602092909190829003018186803b158015610acb57600080fd5b505afa158015610adf573d6000803e3d6000fd5b505050506040513d6020811015610af557600080fd5b5051925060009150506dffffffffffffffffffffffffffff85168a90038311610b1f576000610b35565b89856dffffffffffffffffffffffffffff160383035b9050600089856dffffffffffffffffffffffffffff16038311610b59576000610b6f565b89856dffffffffffffffffffffffffffff160383035b90506000821180610b805750600081115b610bd5576040517f08c379a0000000000000000000000000000000000000000000000000000000008152600401808060200182810382526024815260200180612b546024913960400191505060405180910390fd5b6000610c09610beb84600363ffffffff6121e816565b610bfd876103e863ffffffff6121e816565b9063ffffffff61226e16565b90506000610c21610beb84600363ffffffff6121e816565b9050610c59620f4240610c4d6dffffffffffffffffffffffffffff8b8116908b1663ffffffff6121e816565b9063ffffffff6121e816565b610c69838363ffffffff6121e816565b1015610cd657604080517f08c379a000000000000000000000000000000000000000000000000000000000815260206004820152600c60248201527f556e697377617056323a204b0000000000000000000000000000000000000000604482015290519081900360640190fd5b5050610ce4848488886122e0565b60408051838152602081018390528082018d9052606081018c9052905173ffffffffffffffffffffffffffffffffffffffff8b169133917fd78ad95fa46c994b6551d0da85fc275fe613ce37657fb8d5e3d130840159d8229181900360800190a350506001600c55505050505050505050565b6040518060400160405280600a81526020017f556e69737761702056320000000000000000000000000000000000000000000081525081565b6008546dffffffffffffffffffffffffffff808216926e0100000000000000000000000000008304909116917c0100000000000000000000000000000000000000000000000000000000900463ffffffff1690565b6000610df233848461259c565b5060015b92915050565b60065473ffffffffffffffffffffffffffffffffffffffff1681565b60005481565b73ffffffffffffffffffffffffffffffffffffffff831660009081526002602090815260408083203384529091528120547fffffffffffffffffffffffffffffffffffffffffffffffffffffffffffffffff14610ee85773ffffffffffffffffffffffffffffffffffffffff84166000908152600260209081526040808320338452909152902054610eb6908363ffffffff61226e16565b73ffffffffffffffffffffffffffffffffffffffff851660009081526002602090815260408083203384529091529020555b610ef384848461260b565b5060019392505050565b7f6e71edae12b1b97f4d1f60370fef10105fa2faae0126114a169c64845d6126c981565b601281565b60035481565b60055473ffffffffffffffffffffffffffffffffffffffff163314610fb257604080517f08c379a000000000000000000000000000000000000000000000000000000000815260206004820152601460248201527f556e697377617056323a20464f5242494444454e000000000000000000000000604482015290519081900360640190fd5b6006805473ffffffffffffffffffffffffffffffffffffffff9384167fffffffffffffffffffffffff00000000000000000000000000000000000000009182161790915560078054929093169116179055565b60095481565b600a5481565b6000600c5460011461108457604080517f08c379a000000000000000000000000000000000000000000000000000000000815260206004820152601160248201527f556e697377617056323a204c4f434b4544000000000000000000000000000000604482015290519081900360640190fd5b6000600c81905580611094610d90565b50600654604080517f70a08231000000000000000000000000000000000000000000000000000000008152306004820152905193955091935060009273ffffffffffffffffffffffffffffffffffffffff909116916370a08231916024808301926020929190829003018186803b15801561110e57600080fd5b505afa158015611122573d6000803e3d6000fd5b505050506040513d602081101561113857600080fd5b5051600754604080517f70a08231000000000000000000000000000000000000000000000000000000008152306004820152905192935060009273ffffffffffffffffffffffffffffffffffffffff909216916370a0823191602480820192602092909190829003018186803b1580156111b157600080fd5b505afa1580156111c5573d6000803e3d6000fd5b505050506040513d60208110156111db57600080fd5b505190506000611201836dffffffffffffffffffffffffffff871663ffffffff61226e16565b90506000611225836dffffffffffffffffffffffffffff871663ffffffff61226e16565b9050600061123387876126ec565b600054909150806112705761125c6103e8610bfd611257878763ffffffff6121e816565b612878565b985061126b60006103e86128ca565b6112cd565b6112ca6dffffffffffffffffffffffffffff8916611294868463ffffffff6121e816565b8161129b57fe5b046dffffffffffffffffffffffffffff89166112bd868563ffffffff6121e816565b816112c457fe5b0461297a565b98505b60008911611326576040517f08c379a0000000000000000000000000000000000000000000000000000000008152600401808060200182810382526028815260200180612bc16028913960400191505060405180910390fd5b6113308a8a6128ca565b61133c86868a8a6122e0565b811561137e5760085461137a906dffffffffffffffffffffffffffff808216916e01000000000000000000000000000090041663ffffffff6121e816565b600b555b6040805185815260208101859052815133927f4c209b5fc8ad50758f13e2e1088ba56a560dff690a1c6fef26394f4c03821c4f928290030190a250506001600c5550949695505050505050565b60016020526000908152604090205481565b600b5481565b60046020526000908152604090205481565b600080600c5460011461146957604080517f08c379a000000000000000000000000000000000000000000000000000000000815260206004820152601160248201527f556e697377617056323a204c4f434b4544000000000000000000000000000000604482015290519081900360640190fd5b6000600c81905580611479610d90565b50600654600754604080517f70a08231000000000000000000000000000000000000000000000000000000008152306004820152905194965092945073ffffffffffffffffffffffffffffffffffffffff9182169391169160009184916370a08231916024808301926020929190829003018186803b1580156114fb57600080fd5b505afa15801561150f573d6000803e3d6000fd5b505050506040513d602081101561152557600080fd5b5051604080517f70a08231000000000000000000000000000000000000000000000000000000008152306004820152905191925060009173ffffffffffffffffffffffffffffffffffffffff8516916370a08231916024808301926020929190829003018186803b15801561159957600080fd5b505afa1580156115ad573d6000803e3d6000fd5b505050506040513d60208110156115c357600080fd5b5051306000908152600160205260408120549192506115e288886126ec565b600054909150806115f9848763ffffffff6121e816565b8161160057fe5b049a5080611614848663ffffffff6121e816565b8161161b57fe5b04995060008b11801561162e575060008a115b611683576040517f08c379a0000000000000000000000000000000000000000000000000000000008152600401808060200182810382526028815260200180612b996028913960400191505060405180910390fd5b61168d3084612992565b611698878d8d611fdb565b6116a3868d8c611fdb565b604080517f70a08231000000000000000000000000000000000000000000000000000000008152306004820152905173ffffffffffffffffffffffffffffffffffffffff8916916370a08231916024808301926020929190829003018186803b15801561170f57600080fd5b505afa158015611723573d6000803e3d6000fd5b505050506040513d602081101561173957600080fd5b5051604080517f70a08231000000000000000000000000000000000000000000000000000000008152306004820152905191965073ffffffffffffffffffffffffffffffffffffffff8816916370a0823191602480820192602092909190829003018186803b1580156117ab57600080fd5b505afa1580156117bf573d6000803e3d6000fd5b505050506040513d60208110156117d557600080fd5b505193506117e585858b8b6122e0565b811561182757600854611823906dffffffffffffffffffffffffffff808216916e01000000000000000000000000000090041663ffffffff6121e816565b600b555b604080518c8152602081018c9052815173ffffffffffffffffffffffffffffffffffffffff8f169233927fdccd412f0b1252819cb1fd330b93224ca42612892bb3f4f789976e6d81936496929081900390910190a35050505050505050506001600c81905550915091565b6040518060400160405280600681526020017f554e492d5632000000000000000000000000000000000000000000000000000081525081565b6000610df233848461260b565b6103e881565b600c5460011461194f57604080517f08c379a000000000000000000000000000000000000000000000000000000000815260206004820152601160248201527f556e697377617056323a204c4f434b4544000000000000000000000000000000604482015290519081900360640190fd5b6000600c55600654600754600854604080517f70a08231000000000000000000000000000000000000000000000000000000008152306004820152905173ffffffffffffffffffffffffffffffffffffffff9485169490931692611a2b9285928792611a26926dffffffffffffffffffffffffffff169185916370a0823191602480820192602092909190829003018186803b1580156119ee57600080fd5b505afa158015611a02573d6000803e3d6000fd5b505050506040513d6020811015611a1857600080fd5b50519063ffffffff61226e16565b611fdb565b600854604080517f70a082310000000000000000000000000000000000000000000000000000000081523060048201529051611aca9284928792611a26926e01000000000000000000000000000090046dffffffffffffffffffffffffffff169173ffffffffffffffffffffffffffffffffffffffff8616916370a0823191602480820192602092909190829003018186803b1580156119ee57600080fd5b50506001600c5550565b60055473ffffffffffffffffffffffffffffffffffffffff1681565b60075473ffffffffffffffffffffffffffffffffffffffff1681565b42841015611b7b57604080517f08c379a000000000000000000000000000000000000000000000000000000000815260206004820152601260248201527f556e697377617056323a20455850495245440000000000000000000000000000604482015290519081900360640190fd5b60035473ffffffffffffffffffffffffffffffffffffffff80891660008181526004602090815260408083208054600180820190925582517f6e71edae12b1b97f4d1f60370fef10105fa2faae0126114a169c64845d6126c98186015280840196909652958d166060860152608085018c905260a085019590955260c08085018b90528151808603909101815260e0850182528051908301207f19010000000000000000000000000000000000000000000000000000000000006101008601526101028501969096526101228085019690965280518085039096018652610142840180825286519683019690962095839052610162840180825286905260ff89166101828501526101a284018890526101c28401879052519193926101e2808201937fffffffffffffffffffffffffffffffffffffffffffffffffffffffffffffffe081019281900390910190855afa158015611cdc573d6000803e3d6000fd5b50506040517fffffffffffffffffffffffffffffffffffffffffffffffffffffffffffffffe0015191505073ffffffffffffffffffffffffffffffffffffffff811615801590611d5757508873ffffffffffffffffffffffffffffffffffffffff168173ffffffffffffffffffffffffffffffffffffffff16145b611dc257604080517f08c379a000000000000000000000000000000000000000000000000000000000815260206004820152601c60248201527f556e697377617056323a20494e56414c49445f5349474e415455524500000000604482015290519081900360640190fd5b611dcd89898961259c565b505050505050505050565b600260209081526000928352604080842090915290825290205481565b600c54600114611e6657604080517f08c379a000000000000000000000000000000000000000000000000000000000815260206004820152601160248201527f556e697377617056323a204c4f434b4544000000000000000000000000000000604482015290519081900360640190fd5b6000600c55600654604080517f70a082310000000000000000000000000000000000000000000000000000000081523060048201529051611fd49273ffffffffffffffffffffffffffffffffffffffff16916370a08231916024808301926020929190829003018186803b158015611edd57600080fd5b505afa158015611ef1573d6000803e3d6000fd5b505050506040513d6020811015611f0757600080fd5b5051600754604080517f70a08231000000000000000000000000000000000000000000000000000000008152306004820152905173ffffffffffffffffffffffffffffffffffffffff909216916370a0823191602480820192602092909190829003018186803b158015611f7a57600080fd5b505afa158015611f8e573d6000803e3d6000fd5b505050506040513d6020811015611fa457600080fd5b50516008546dffffffffffffffffffffffffffff808216916e0100000000000000000000000000009004166122e0565b6001600c55565b604080518082018252601981527f7472616e7366657228616464726573732c75696e743235362900000000000000602091820152815173ffffffffffffffffffffffffffffffffffffffff85811660248301526044808301869052845180840390910181526064909201845291810180517bffffffffffffffffffffffffffffffffffffffffffffffffffffffff167fa9059cbb000000000000000000000000000000000000000000000000000000001781529251815160009460609489169392918291908083835b602083106120e157805182527fffffffffffffffffffffffffffffffffffffffffffffffffffffffffffffffe090920191602091820191016120a4565b6001836020036101000a0380198251168184511680821785525050505050509050019150506000604051808303816000865af19150503d8060008114612143576040519150601f19603f3d011682016040523d82523d6000602084013e612148565b606091505b5091509150818015612176575080511580612176575080806020019051602081101561217357600080fd5b50515b6121e157604080517f08c379a000000000000000000000000000000000000000000000000000000000815260206004820152601a60248201527f556e697377617056323a205452414e534645525f4641494c4544000000000000604482015290519081900360640190fd5b5050505050565b60008115806122035750508082028282828161220057fe5b04145b610df657604080517f08c379a000000000000000000000000000000000000000000000000000000000815260206004820152601460248201527f64732d6d6174682d6d756c2d6f766572666c6f77000000000000000000000000604482015290519081900360640190fd5b80820382811115610df657604080517f08c379a000000000000000000000000000000000000000000000000000000000815260206004820152601560248201527f64732d6d6174682d7375622d756e646572666c6f770000000000000000000000604482015290519081900360640190fd5b6dffffffffffffffffffffffffffff841180159061230c57506dffffffffffffffffffffffffffff8311155b61237757604080517f08c379a000000000000000000000000000000000000000000000000000000000815260206004820152601360248201527f556e697377617056323a204f564552464c4f5700000000000000000000000000604482015290519081900360640190fd5b60085463ffffffff428116917c0100000000000000000000000000000000000000000000000000000000900481168203908116158015906123c757506dffffffffffffffffffffffffffff841615155b80156123e257506dffffffffffffffffffffffffffff831615155b15612492578063ffffffff16612425856123fb86612a57565b7bffffffffffffffffffffffffffffffffffffffffffffffffffffffff169063ffffffff612a7b16565b600980547bffffffffffffffffffffffffffffffffffffffffffffffffffffffff929092169290920201905563ffffffff8116612465846123fb87612a57565b600a80547bffffffffffffffffffffffffffffffffffffffffffffffffffffffff92909216929092020190555b600880547fffffffffffffffffffffffffffffffffffff0000000000000000000000000000166dffffffffffffffffffffffffffff888116919091177fffffffff0000000000000000000000000000ffffffffffffffffffffffffffff166e0100000000000000000000000000008883168102919091177bffffffffffffffffffffffffffffffffffffffffffffffffffffffff167c010000000000000000000000000000000000000000000000000000000063ffffffff871602179283905560408051848416815291909304909116602082015281517f1c411e9a96e071241c2f21f7726b17ae89e3cab4c78be50e062b03a9fffbbad1929181900390910190a1505050505050565b73ffffffffffffffffffffffffffffffffffffffff808416600081815260026020908152604080832094871680845294825291829020859055815185815291517f8c5be1e5ebec7d5bd14f71427d1e84f3dd0314c0f7b2291e5b200ac8c7c3b9259281900390910190a3505050565b73ffffffffffffffffffffffffffffffffffffffff8316600090815260016020526040902054612641908263ffffffff61226e16565b73ffffffffffffffffffffffffffffffffffffffff8085166000908152600160205260408082209390935590841681522054612683908263ffffffff612abc16565b73ffffffffffffffffffffffffffffffffffffffff80841660008181526001602090815260409182902094909455805185815290519193928716927fddf252ad1be2c89b69c2b068fc378daa952ba7f163c4a11628f55a4df523b3ef92918290030190a3505050565b600080600560009054906101000a900473ffffffffffffffffffffffffffffffffffffffff1673ffffffffffffffffffffffffffffffffffffffff1663017e7e586040518163ffffffff1660e01b815260040160206040518083038186803b15801561275757600080fd5b505afa15801561276b573d6000803e3d6000fd5b505050506040513d602081101561278157600080fd5b5051600b5473ffffffffffffffffffffffffffffffffffffffff821615801594509192509061286457801561285f5760006127d86112576dffffffffffffffffffffffffffff88811690881663ffffffff6121e816565b905060006127e583612878565b90508082111561285c576000612813612804848463ffffffff61226e16565b6000549063ffffffff6121e816565b905060006128388361282c86600563ffffffff6121e816565b9063ffffffff612abc16565b9050600081838161284557fe5b04905080156128585761285887826128ca565b5050505b50505b612870565b8015612870576000600b555b505092915050565b600060038211156128bb575080600160028204015b818110156128b5578091506002818285816128a457fe5b0401816128ad57fe5b04905061288d565b506128c5565b81156128c5575060015b919050565b6000546128dd908263ffffffff612abc16565b600090815573ffffffffffffffffffffffffffffffffffffffff8316815260016020526040902054612915908263ffffffff612abc16565b73ffffffffffffffffffffffffffffffffffffffff831660008181526001602090815260408083209490945583518581529351929391927fddf252ad1be2c89b69c2b068fc378daa952ba7f163c4a11628f55a4df523b3ef9281900390910190a35050565b6000818310612989578161298b565b825b9392505050565b73ffffffffffffffffffffffffffffffffffffffff82166000908152600160205260409020546129c8908263ffffffff61226e16565b73ffffffffffffffffffffffffffffffffffffffff831660009081526001602052604081209190915554612a02908263ffffffff61226e16565b600090815560408051838152905173ffffffffffffffffffffffffffffffffffffffff8516917fddf252ad1be2c89b69c2b068fc378daa952ba7f163c4a11628f55a4df523b3ef919081900360200190a35050565b6dffffffffffffffffffffffffffff166e0100000000000000000000000000000290565b60006dffffffffffffffffffffffffffff82167bffffffffffffffffffffffffffffffffffffffffffffffffffffffff841681612ab457fe5b049392505050565b80820182811015610df657604080517f08c379a000000000000000000000000000000000000000000000000000000000815260206004820152601460248201527f64732d6d6174682d6164642d6f766572666c6f77000000000000000000000000604482015290519081900360640190fdfe556e697377617056323a20494e53554646494349454e545f4f55545055545f414d4f554e54556e697377617056323a20494e53554646494349454e545f494e5055545f414d4f554e54556e697377617056323a20494e53554646494349454e545f4c4951554944495459556e697377617056323a20494e53554646494349454e545f4c49515549444954595f4255524e4544556e697377617056323a20494e53554646494349454e545f4c49515549444954595f4d494e544544a265627a7a723158207dca18479e58487606bf70c79e44d8dee62353c9ee6d01f9a9d70885b8765f2264736f6c63430005100032",
                    "revert": false,
                    "revertMessage": "",
                    "selector": "",
                    "status": true,
                    "value": "0"
                },
                "nodeType": 0
            },
            "4": {
                "invocation": {
                    "address": "0xe76309c6ba662894df71fd294ae21c2a829a130e",
                    "callData": "0x000000000000000000000000c02aaa39b223fe8d0a0e5c4f27ead9083c756cc2000000000000000000000000ee74e91057e93b5906f3809c635974232fda5538",
                    "decodedMethod": {
                        "callParams": [
                            {
                                "name": "_token0",
                                "type": "address",
                                "value": "0xc02aaa39b223fe8d0a0e5c4f27ead9083c756cc2"
                            },
                            {
                                "name": "_token1",
                                "type": "address",
                                "value": "0xee74e91057e93b5906f3809c635974232fda5538"
                            }
                        ],
                        "constructorArguments": "",
                        "name": "initialize",
                        "returnParams": [],
                        "signature": "initialize(address,address)"
                    },
                    "errorInfo": "",
                    "fromAddress": "0x5c69bee701ef814a2b6a3edd4b1652cb9cc5aa6f",
                    "gasUsed": 44677,
                    "id": 4,
                    "methodDecoded": true,
                    "operation": "CALL",
                    "output": "",
                    "revert": false,
                    "revertMessage": "",
                    "selector": "0x485cc955",
                    "status": true,
                    "value": "0"
                },
                "nodeType": 0
            },
            "5": {
                "event": {
                    "contract": "0x5c69bee701ef814a2b6a3edd4b1652cb9cc5aa6f",
                    "decodedLog": {
                        "name": "PairCreated",
                        "params": [
                            {
                                "name": "token0",
                                "type": "address",
                                "value": "0xc02aaa39b223fe8d0a0e5c4f27ead9083c756cc2"
                            },
                            {
                                "name": "token1",
                                "type": "address",
                                "value": "0xee74e91057e93b5906f3809c635974232fda5538"
                            },
                            {
                                "name": "pair",
                                "type": "address",
                                "value": "0xe76309c6ba662894df71fd294ae21c2a829a130e"
                            },
                            {
                                "name": "arg3",
                                "type": "uint256",
                                "value": "37,725"
                            }
                        ],
                        "signature": "PairCreated(address,address,address,uint256)"
                    },
                    "id": 5,
                    "logData": "0x000000000000000000000000e76309c6ba662894df71fd294ae21c2a829a130e000000000000000000000000000000000000000000000000000000000000935d",
                    "logDecoded": true,
                    "operation": "EVENT",
                    "revert": false,
                    "status": true,
                    "topics": [
                        "0x0d3648bd0f6ba80134a33ba9275ac585d9d315f0ad8355cddefde31afa28d0e9",
                        "0x000000000000000000000000c02aaa39b223fe8d0a0e5c4f27ead9083c756cc2",
                        "0x000000000000000000000000ee74e91057e93b5906f3809c635974232fda5538"
                    ]
                },
                "nodeType": 1
            },
            "6": {
                "invocation": {
                    "address": "0xe76309c6ba662894df71fd294ae21c2a829a130e",
                    "callData": "0x",
                    "decodedMethod": {
                        "callParams": [],
                        "constructorArguments": "",
                        "name": "getReserves",
                        "returnParams": [
                            {
                                "name": "_reserve0",
                                "type": "uint112",
                                "value": "0"
                            },
                            {
                                "name": "_reserve1",
                                "type": "uint112",
                                "value": "0"
                            },
                            {
                                "name": "_blockTimestampLast",
                                "type": "uint32",
                                "value": "0"
                            }
                        ],
                        "signature": "getReserves()"
                    },
                    "errorInfo": "",
                    "fromAddress": "0x7a250d5630b4cf539739df2c5dacb4c659f2488d",
                    "gasUsed": 2504,
                    "id": 6,
                    "methodDecoded": true,
                    "operation": "STATICCALL",
                    "output": "0x000000000000000000000000000000000000000000000000000000000000000000000000000000000000000000000000000000000000000000000000000000000000000000000000000000000000000000000000000000000000000000000000",
                    "revert": false,
                    "revertMessage": "",
                    "selector": "0x0902f1ac",
                    "status": true,
                    "value": "0"
                },
                "nodeType": 0
            },
            "7": {
                "invocation": {
                    "address": "0xee74e91057e93b5906f3809c635974232fda5538",
                    "callData": "0x00000000000000000000000017b2555dc6fcb1e159c4a26eb8e89563089b479a000000000000000000000000e76309c6ba662894df71fd294ae21c2a829a130e000000000000000000000000000000000000000000000018650127cc3dc80000",
                    "decodedMethod": {
                        "callParams": [
                            {
                                "name": "sender",
                                "type": "address",
                                "value": "0x17b2555dc6fcb1e159c4a26eb8e89563089b479a"
                            },
                            {
                                "name": "recipient",
                                "type": "address",
                                "value": "0xe76309c6ba662894df71fd294ae21c2a829a130e"
                            },
                            {
                                "decimalAvailable": true,
                                "name": "amount",
                                "type": "uint256",
                                "value": "450,000,000,000,000,000,000"
                            }
                        ],
                        "constructorArguments": "",
                        "name": "transferFrom",
                        "returnParams": [
                            {
                                "name": "",
                                "type": "bool",
                                "value": true
                            }
                        ],
                        "signature": "transferFrom(address,address,uint256)"
                    },
                    "errorInfo": "",
                    "fromAddress": "0x7a250d5630b4cf539739df2c5dacb4c659f2488d",
                    "gasUsed": 89115,
                    "id": 7,
                    "methodDecoded": true,
                    "operation": "CALL",
                    "output": "0x0000000000000000000000000000000000000000000000000000000000000001",
                    "revert": false,
                    "revertMessage": "",
                    "selector": "0x23b872dd",
                    "status": true,
                    "value": "0"
                },
                "nodeType": 0
            },
            "8": {
                "event": {
                    "contract": "0xee74e91057e93b5906f3809c635974232fda5538",
                    "decodedLog": {
                        "name": "Transfer",
                        "params": [
                            {
                                "name": "from",
                                "type": "address",
                                "value": "0x17b2555dc6fcb1e159c4a26eb8e89563089b479a"
                            },
                            {
                                "name": "to",
                                "type": "address",
                                "value": "0xe76309c6ba662894df71fd294ae21c2a829a130e"
                            },
                            {
                                "decimalAvailable": true,
                                "name": "value",
                                "type": "uint256",
                                "value": "450,000,000,000,000,000,000"
                            }
                        ],
                        "signature": "Transfer(address,address,uint256)"
                    },
                    "id": 8,
                    "logData": "0x000000000000000000000000000000000000000000000018650127cc3dc80000",
                    "logDecoded": true,
                    "operation": "EVENT",
                    "revert": false,
                    "status": true,
                    "topics": [
                        "0xddf252ad1be2c89b69c2b068fc378daa952ba7f163c4a11628f55a4df523b3ef",
                        "0x00000000000000000000000017b2555dc6fcb1e159c4a26eb8e89563089b479a",
                        "0x000000000000000000000000e76309c6ba662894df71fd294ae21c2a829a130e"
                    ]
                },
                "nodeType": 1
            },
            "9": {
                "event": {
                    "contract": "0xee74e91057e93b5906f3809c635974232fda5538",
                    "decodedLog": {
                        "name": "Approval",
                        "params": [
                            {
                                "name": "owner",
                                "type": "address",
                                "value": "0x17b2555dc6fcb1e159c4a26eb8e89563089b479a"
                            },
                            {
                                "name": "spender",
                                "type": "address",
                                "value": "0x7a250d5630b4cf539739df2c5dacb4c659f2488d"
                            },
                            {
                                "decimalAvailable": true,
                                "name": "value",
                                "type": "uint256",
                                "value": "115,792,089,237,316,195,423,570,985,008,687,907,853,269,984,665,640,564,039,007,584,007,913,129,639,935"
                            }
                        ],
                        "signature": "Approval(address,address,uint256)"
                    },
                    "id": 9,
                    "logData": "0xffffffffffffffffffffffffffffffffffffffffffffffe79afed833c237ffff",
                    "logDecoded": true,
                    "operation": "EVENT",
                    "revert": false,
                    "status": true,
                    "topics": [
                        "0x8c5be1e5ebec7d5bd14f71427d1e84f3dd0314c0f7b2291e5b200ac8c7c3b925",
                        "0x00000000000000000000000017b2555dc6fcb1e159c4a26eb8e89563089b479a",
                        "0x0000000000000000000000007a250d5630b4cf539739df2c5dacb4c659f2488d"
                    ]
                },
                "nodeType": 1
            }
        },
        "gasFlame": [
            {
                "children": [
                    {
                        "children": [
                            {
                                "children": [],
                                "depth": 0,
                                "name": "Initial Gas",
                                "value": 22600
                            },
                            {
                                "children": [
                                    {
                                        "children": [],
                                        "depth": 1,
                                        "name": "getPair",
                                        "value": 2564
                                    },
                                    {
                                        "children": [
                                            {
                                                "children": [],
                                                "depth": 2,
                                                "name": "constructor",
                                                "value": 2327803
                                            },
                                            {
                                                "children": [],
                                                "depth": 2,
                                                "name": "initialize",
                                                "value": 44677
                                            }
                                        ],
                                        "depth": 1,
                                        "name": "createPair",
                                        "value": 2482486
                                    },
                                    {
                                        "children": [],
                                        "depth": 1,
                                        "name": "getReserves",
                                        "value": 2504
                                    },
                                    {
                                        "children": [],
                                        "depth": 1,
                                        "name": "transferFrom",
                                        "value": 89115
                                    },
                                    {
                                        "children": [],
                                        "depth": 1,
                                        "name": "deposit",
                                        "value": 23974
                                    },
                                    {
                                        "children": [],
                                        "depth": 1,
                                        "name": "transfer",
                                        "value": 25162
                                    },
                                    {
                                        "children": [
                                            {
                                                "children": [],
                                                "depth": 2,
                                                "name": "balanceOf",
                                                "value": 534
                                            },
                                            {
                                                "children": [],
                                                "depth": 2,
                                                "name": "balanceOf",
                                                "value": 13059
                                            },
                                            {
                                                "children": [],
                                                "depth": 2,
                                                "name": "feeTo",
                                                "value": 2314
                                            }
                                        ],
                                        "depth": 1,
                                        "name": "mint",
                                        "value": 143282
                                    }
                                ],
                                "depth": 0,
                                "name": "Executed Gas",
                                "value": 2789165
                            }
                        ],
                        "depth": -1,
                        "name": "Actual Gas Used",
                        "value": 2756965
                    },
                    {
                        "children": [],
                        "depth": -1,
                        "name": "Refunded Gas",
                        "value": 54800
                    }
                ],
                "depth": -2,
                "name": "Total Gas",
                "value": 2811765
            }
        ],
        "isConfirmed": true,
        "mainTrace": [
            {
                "children": [
                    {
                        "children": [
                            {
                                "children": [],
                                "depth": 1,
                                "id": 1,
                                "order": 1
                            },
                            {
                                "children": [
                                    {
                                        "children": [],
                                        "depth": 2,
                                        "id": 3,
                                        "order": 3
                                    },
                                    {
                                        "children": [],
                                        "depth": 2,
                                        "id": 4,
                                        "order": 4
                                    },
                                    {
                                        "children": [],
                                        "depth": 2,
                                        "id": 5,
                                        "order": 5
                                    }
                                ],
                                "depth": 1,
                                "id": 2,
                                "order": 2
                            },
                            {
                                "children": [],
                                "depth": 1,
                                "id": 6,
                                "order": 6
                            },
                            {
                                "children": [
                                    {
                                        "children": [],
                                        "depth": 2,
                                        "id": 8,
                                        "order": 8
                                    },
                                    {
                                        "children": [],
                                        "depth": 2,
                                        "id": 9,
                                        "order": 9
                                    }
                                ],
                                "depth": 1,
                                "id": 7,
                                "order": 7
                            },
                            {
                                "children": [
                                    {
                                        "children": [],
                                        "depth": 2,
                                        "id": 11,
                                        "order": 11
                                    }
                                ],
                                "depth": 1,
                                "id": 10,
                                "order": 10
                            },
                            {
                                "children": [
                                    {
                                        "children": [],
                                        "depth": 2,
                                        "id": 13,
                                        "order": 13
                                    }
                                ],
                                "depth": 1,
                                "id": 12,
                                "order": 12
                            },
                            {
                                "children": [
                                    {
                                        "children": [],
                                        "depth": 2,
                                        "id": 15,
                                        "order": 15
                                    },
                                    {
                                        "children": [],
                                        "depth": 2,
                                        "id": 16,
                                        "order": 16
                                    },
                                    {
                                        "children": [],
                                        "depth": 2,
                                        "id": 17,
                                        "order": 17
                                    },
                                    {
                                        "children": [],
                                        "depth": 2,
                                        "id": 18,
                                        "order": 18
                                    },
                                    {
                                        "children": [],
                                        "depth": 2,
                                        "id": 19,
                                        "order": 19
                                    },
                                    {
                                        "children": [],
                                        "depth": 2,
                                        "id": 20,
                                        "order": 20
                                    },
                                    {
                                        "children": [],
                                        "depth": 2,
                                        "id": 21,
                                        "order": 21
                                    }
                                ],
                                "depth": 1,
                                "id": 14,
                                "order": 14
                            }
                        ],
                        "depth": 0,
                        "id": 0,
                        "order": 0
                    }
                ],
                "depth": -1,
                "id": -1,
                "order": -1
            }
        ],
        "mainTraceNodeCount": 22,
        "parentIdMap": {
            "0": -1,
            "1": 0,
            "10": 0,
            "11": 10,
            "12": 0,
            "13": 12,
            "14": 0,
            "15": 14,
            "16": 14,
            "17": 14,
            "18": 14,
            "19": 14,
            "2": 0,
            "20": 14,
            "21": 14,
            "3": 2,
            "4": 2,
            "5": 2,
            "6": 0,
            "7": 0,
            "8": 7,
            "9": 7
        },
        "tidyTrace": [
            {
                "children": [
                    {
                        "children": [
                            {
                                "children": [
                                    {
                                        "children": [],
                                        "depth": 2,
                                        "id": 3,
                                        "order": 3
                                    },
                                    {
                                        "children": [],
                                        "depth": 2,
                                        "id": 4,
                                        "order": 4
                                    },
                                    {
                                        "children": [],
                                        "depth": 2,
                                        "id": 5,
                                        "order": 5
                                    }
                                ],
                                "depth": 1,
                                "id": 2,
                                "order": 2
                            },
                            {
                                "children": [
                                    {
                                        "children": [],
                                        "depth": 2,
                                        "id": 8,
                                        "order": 8
                                    },
                                    {
                                        "children": [],
                                        "depth": 2,
                                        "id": 9,
                                        "order": 9
                                    }
                                ],
                                "depth": 1,
                                "id": 7,
                                "order": 7
                            },
                            {
                                "children": [
                                    {
                                        "children": [],
                                        "depth": 2,
                                        "id": 11,
                                        "order": 11
                                    }
                                ],
                                "depth": 1,
                                "id": 10,
                                "order": 10
                            },
                            {
                                "children": [
                                    {
                                        "children": [],
                                        "depth": 2,
                                        "id": 13,
                                        "order": 13
                                    }
                                ],
                                "depth": 1,
                                "id": 12,
                                "order": 12
                            },
                            {
                                "children": [
                                    {
                                        "children": [],
                                        "depth": 2,
                                        "id": 18,
                                        "order": 18
                                    },
                                    {
                                        "children": [],
                                        "depth": 2,
                                        "id": 19,
                                        "order": 19
                                    },
                                    {
                                        "children": [],
                                        "depth": 2,
                                        "id": 20,
                                        "order": 20
                                    },
                                    {
                                        "children": [],
                                        "depth": 2,
                                        "id": 21,
                                        "order": 21
                                    }
                                ],
                                "depth": 1,
                                "id": 14,
                                "order": 14
                            }
                        ],
                        "depth": 0,
                        "id": 0,
                        "order": 0
                    }
                ],
                "depth": -1,
                "id": -1,
                "order": -1
            }
        ],
        "tidyTraceNodeCount": 17
    },
    "state_change": {
        "stateChanges": [
            {
                "address": "0x5c69bee701ef814a2b6a3edd4b1652cb9cc5aa6f",
                "erc": "",
                "slots": [
                    {
                        "current": "0x000000000000000000000000e76309c6ba662894df71fd294ae21c2a829a130e",
                        "key": "0xc2575a0e9e593c00f959f8c92f12db2869c3395a3b0502d05e2516446f728bb7",
                        "prev": "0x0000000000000000000000000000000000000000000000000000000000000000"
                    },
                    {
                        "current": "0x000000000000000000000000e76309c6ba662894df71fd294ae21c2a829a130e",
                        "key": "0x2e0011317563e4d55f2b2add7a82a14d444cad651f7a79d21412fe6600f62794",
                        "prev": "0x0000000000000000000000000000000000000000000000000000000000000000"
                    },
                    {
                        "current": "0x000000000000000000000000e76309c6ba662894df71fd294ae21c2a829a130e",
                        "key": "0x6170ec440bbc1f2f30f80216cfa168a0700640b9be999aa3cefca52f23897de0",
                        "prev": "0x0000000000000000000000000000000000000000000000000000000000000000"
                    },
                    {
                        "current": "0x000000000000000000000000000000000000000000000000000000000000935d",
                        "key": "0x0000000000000000000000000000000000000000000000000000000000000003",
                        "prev": "0x000000000000000000000000000000000000000000000000000000000000935c"
                    }
                ],
                "storageVariables": [
                    {
                        "name": "getPair",
                        "type": "mapping(address => mapping(address => address))",
                        "value": {
                            "pairs": [
                                {
                                    "key": "0xc02aaa39b223fe8d0a0e5c4f27ead9083c756cc2",
                                    "value": {
                                        "pairs": [
                                            {
                                                "key": "0xee74e91057e93b5906f3809c635974232fda5538",
                                                "value": {
                                                    "current": "0xe76309c6ba662894df71fd294ae21c2a829a130e",
                                                    "prev": "0x0000000000000000000000000000000000000000",
                                                    "typeTag": 1
                                                }
                                            }
                                        ],
                                        "typeTag": 4
                                    }
                                },
                                {
                                    "key": "0xee74e91057e93b5906f3809c635974232fda5538",
                                    "value": {
                                        "pairs": [
                                            {
                                                "key": "0xc02aaa39b223fe8d0a0e5c4f27ead9083c756cc2",
                                                "value": {
                                                    "current": "0xe76309c6ba662894df71fd294ae21c2a829a130e",
                                                    "prev": "0x0000000000000000000000000000000000000000",
                                                    "typeTag": 1
                                                }
                                            }
                                        ],
                                        "typeTag": 4
                                    }
                                }
                            ],
                            "typeTag": 4
                        }
                    },
                    {
                        "name": "allPairs",
                        "type": "address[]",
                        "value": {
                            "elemType": "address",
                            "elems": [
                                {
                                    "index": 37724,
                                    "value": {
                                        "current": "0xe76309c6ba662894df71fd294ae21c2a829a130e",
                                        "prev": "0x0000000000000000000000000000000000000000",
                                        "typeTag": 1
                                    }
                                }
                            ],
                            "typeTag": 2
                        }
                    }
                ]
            },
            {
                "address": "0xc02aaa39b223fe8d0a0e5c4f27ead9083c756cc2",
                "erc": "ERC-20",
                "slots": [
                    {
                        "current": "0x0000000000000000000000000000000000000000000000003782dace9d900000",
                        "key": "0x4d2585e11dfa9d22abd94fee0f967b9ea488e2d34a09a77df7b1b392bb97904b",
                        "prev": "0x0000000000000000000000000000000000000000000000000000000000000000"
                    }
                ],
                "storageVariables": [
                    {
                        "name": "balanceOf",
                        "type": "mapping(address => uint256)",
                        "value": {
                            "pairs": [
                                {
                                    "key": "0xe76309c6ba662894df71fd294ae21c2a829a130e",
                                    "value": {
                                        "current": "4000000000000000000",
                                        "prev": "0",
                                        "typeTag": 1
                                    }
                                }
                            ],
                            "typeTag": 4
                        }
                    }
                ]
            },
            {
                "address": "0xe76309c6ba662894df71fd294ae21c2a829a130e",
                "erc": "ERC-20",
                "slots": [
                    {
                        "current": "0x000000000000000000000000c02aaa39b223fe8d0a0e5c4f27ead9083c756cc2",
                        "key": "0x0000000000000000000000000000000000000000000000000000000000000006",
                        "prev": "0x0000000000000000000000000000000000000000000000000000000000000000"
                    },
                    {
                        "current": "0x00000000000000000000000000000000000000000000000000000000000003e8",
                        "key": "0xa6eef7e35abe7026729641147f7915573c7e97b47efa546f5f6e3230263bcb49",
                        "prev": "0x0000000000000000000000000000000000000000000000000000000000000000"
                    },
                    {
                        "current": "0x0000000000000000000000000000000000000000000000024cc8e043bda45020",
                        "key": "0xa52f9f8b33b818121d2249d72f1c0b4e586c0c56552b247f6e6f988e2f45b2e6",
                        "prev": "0x0000000000000000000000000000000000000000000000000000000000000000"
                    },
                    {
                        "current": "0x60ab4e27000000000018650127cc3dc800000000000000003782dace9d900000",
                        "key": "0x0000000000000000000000000000000000000000000000000000000000000008",
                        "prev": "0x0000000000000000000000000000000000000000000000000000000000000000"
                    },
                    {
                        "current": "0x0000000000000000000000000000000000000000000000000000000000000001",
                        "key": "0x000000000000000000000000000000000000000000000000000000000000000c",
                        "prev": "0x0000000000000000000000000000000000000000000000000000000000000000"
                    },
                    {
                        "current": "0xa66ed3a2a1dbd8943dbfa5ad7b393d9361b64328c5a8c265c7cf57220be95efc",
                        "key": "0x0000000000000000000000000000000000000000000000000000000000000003",
                        "prev": "0x0000000000000000000000000000000000000000000000000000000000000000"
                    },
                    {
                        "current": "0x0000000000000000000000000000000000000000000000024cc8e043bda45408",
                        "key": "0x0000000000000000000000000000000000000000000000000000000000000000",
                        "prev": "0x0000000000000000000000000000000000000000000000000000000000000000"
                    },
                    {
                        "current": "0x0000000000000000000000005c69bee701ef814a2b6a3edd4b1652cb9cc5aa6f",
                        "key": "0x0000000000000000000000000000000000000000000000000000000000000005",
                        "prev": "0x0000000000000000000000000000000000000000000000000000000000000000"
                    },
                    {
                        "current": "0x000000000000000000000000ee74e91057e93b5906f3809c635974232fda5538",
                        "key": "0x0000000000000000000000000000000000000000000000000000000000000007",
                        "prev": "0x0000000000000000000000000000000000000000000000000000000000000000"
                    }
                ],
                "storageVariables": [
                    {
                        "name": "reserve0",
                        "type": "uint112",
                        "value": {
                            "current": "4000000000000000000",
                            "prev": "0",
                            "typeTag": 1
                        }
                    },
                    {
                        "name": "reserve1",
                        "type": "uint112",
                        "value": {
                            "current": "450000000000000000000",
                            "prev": "0",
                            "typeTag": 1
                        }
                    },
                    {
                        "name": "blockTimestampLast",
                        "type": "uint32",
                        "value": {
                            "current": "1621839399",
                            "prev": "0",
                            "typeTag": 1
                        }
                    },
                    {
                        "name": "totalSupply",
                        "type": "uint256",
                        "value": {
                            "current": "42426406871192851464",
                            "prev": "0",
                            "typeTag": 1
                        }
                    },
                    {
                        "name": "token1",
                        "type": "address",
                        "value": {
                            "current": "0xee74e91057e93b5906f3809c635974232fda5538",
                            "prev": "0x0000000000000000000000000000000000000000",
                            "typeTag": 1
                        }
                    },
                    {
                        "name": "token0",
                        "type": "address",
                        "value": {
                            "current": "0xc02aaa39b223fe8d0a0e5c4f27ead9083c756cc2",
                            "prev": "0x0000000000000000000000000000000000000000",
                            "typeTag": 1
                        }
                    },
                    {
                        "name": "balanceOf",
                        "type": "mapping(address => uint256)",
                        "value": {
                            "pairs": [
                                {
                                    "key": "0x0000000000000000000000000000000000000000",
                                    "value": {
                                        "current": "1000",
                                        "prev": "0",
                                        "typeTag": 1
                                    }
                                },
                                {
                                    "key": "0x17b2555dc6fcb1e159c4a26eb8e89563089b479a",
                                    "value": {
                                        "current": "42426406871192850464",
                                        "prev": "0",
                                        "typeTag": 1
                                    }
                                }
                            ],
                            "typeTag": 4
                        }
                    },
                    {
                        "name": "unlocked",
                        "type": "uint256",
                        "value": {
                            "current": "1",
                            "prev": "0",
                            "typeTag": 1
                        }
                    },
                    {
                        "name": "DOMAIN_SEPARATOR",
                        "type": "bytes32",
                        "value": {
                            "current": "0xa66ed3a2a1dbd8943dbfa5ad7b393d9361b64328c5a8c265c7cf57220be95efc",
                            "prev": "0x0000000000000000000000000000000000000000000000000000000000000000",
                            "typeTag": 1
                        }
                    },
                    {
                        "name": "factory",
                        "type": "address",
                        "value": {
                            "current": "0x5c69bee701ef814a2b6a3edd4b1652cb9cc5aa6f",
                            "prev": "0x0000000000000000000000000000000000000000",
                            "typeTag": 1
                        }
                    }
                ]
            },
            {
                "address": "0xee74e91057e93b5906f3809c635974232fda5538",
                "erc": "ERC-20",
                "slots": [
                    {
                        "current": "0x0000000000000000000000000000000000000000000000000000000000000000",
                        "key": "0xa52f9f8b33b818121d2249d72f1c0b4e586c0c56552b247f6e6f988e2f45b2e6",
                        "prev": "0x7333333333333333333333333333333333333333333333280995f7558a780000"
                    },
                    {
                        "current": "0x7333333333333333333333333333333333333333333333280995f7558a780000",
                        "key": "0x7ee661b89263ce1d9c0b3bfe0a7f4b5a7fd8f24494a0ca157d8bb7ae244a0092",
                        "prev": "0x0000000000000000000000000000000000000000000000000000000000000000"
                    },
                    {
                        "current": "0xffffffffffffffffffffffffffffffffffffffffffffffe79afed833c237ffff",
                        "key": "0xefac0bb458735dcad354e69428dc8cc57a3a79222d62d4cff98c7026f92a1755",
                        "prev": "0xffffffffffffffffffffffffffffffffffffffffffffffffffffffffffffffff"
                    }
                ],
                "storageVariables": [
                    {
                        "name": "_allowances",
                        "type": "mapping(address => mapping(address => uint256))",
                        "value": {
                            "pairs": [
                                {
                                    "key": "0x17b2555dc6fcb1e159c4a26eb8e89563089b479a",
                                    "value": {
                                        "pairs": [
                                            {
                                                "key": "0x7a250d5630b4cf539739df2c5dacb4c659f2488d",
                                                "value": {
                                                    "current": "115792089237316195423570985008687907853269984665640564039007584007913129639935",
                                                    "prev": "115792089237316195423570985008687907853269984665640564039457584007913129639935",
                                                    "typeTag": 1
                                                }
                                            }
                                        ],
                                        "typeTag": 4
                                    }
                                }
                            ],
                            "typeTag": 4
                        }
                    },
                    {
                        "name": "_rOwned",
                        "type": "mapping(address => uint256)",
                        "value": {
                            "pairs": [
                                {
                                    "key": "0x17b2555dc6fcb1e159c4a26eb8e89563089b479a",
                                    "value": {
                                        "current": "0",
                                        "prev": "52106440156792287940606943253909558533971493099538253817550000000000000000000",
                                        "typeTag": 1
                                    }
                                },
                                {
                                    "key": "0xe76309c6ba662894df71fd294ae21c2a829a130e",
                                    "value": {
                                        "current": "52106440156792287940606943253909558533971493099538253817550000000000000000000",
                                        "prev": "0",
                                        "typeTag": 1
                                    }
                                }
                            ],
                            "typeTag": 4
                        }
                    }
                ]
            }
        ]
    }
}