{
    "balance_change": {
        "balanceChanges": [
            {
                "account": "0xc68dd3201aff2fa1883e0dc549e28e37351cb391",
                "assets": [
                    {
                        "address": "0x953e22945b416730bad05009af05b420e598e412",
                        "amount": "120",
                        "iconUrl": "",
                        "isERC1155": false,
                        "isERC721": false,
                        "sign": false,
                        "value": ""
                    }
                ]
            },
            {
                "account": "0xf81a3b0663219dd5bb23d4705a1973e7573c8f30",
                "assets": [
                    {
                        "address": "0x953e22945b416730bad05009af05b420e598e412",
                        "amount": "120",
                        "iconUrl": "",
                        "isERC1155": false,
                        "isERC721": false,
                        "sign": true,
                        "value": ""
                    }
                ]
            }
        ]
    },
    "profile": {
        "basic_info": {
            "baseFee": "",
            "blockNumber": 7164561,
            "callData": "0xa9059cbb000000000000000000000000f81a3b0663219dd5bb23d4705a1973e7573c8f300000000000000000000000000000000000000000000000068155a43676e00000",
            "debugEnable": true,
            "errorInfo": "",
            "eventCount": 1,
            "feeRecipient": "0x5a0b54d5dc17e0aadc383d2db43b0a0d3e029c4c",
            "formatValue": "0",
            "gasLimit": 4600000,
            "gasPrice": "3",
            "gasUsed": 55273,
            "intTxnCount": 0,
            "internalRevert": false,
            "internalRevertMessage": "",
            "isContractCreation": false,
            "isFlashloan": false,
            "maxFee": "",
            "nonce": 2743,
            "overwritedBlockNumber": -1,
            "priorityFee": "",
            "receiver": "0x953e22945b416730bad05009af05b420e598e412",
            "revertMessage": "",
            "sender": "0xc68dd3201aff2fa1883e0dc549e28e37351cb391",
            "simulationEnable": true,
            "sourceTxnHash": "0x3b9f36566410129afc1f0b667996187ffc2bce0a7310c2846d155bde82824e1c",
            "status": true,
            "timestamp": "2019-02-02T17:36:51Z",
            "transactionFee": "0.000165819",
            "txnHash": "0x3b9f36566410129afc1f0b667996187ffc2bce0a7310c2846d155bde82824e1c",
            "txnIndex": 2,
            "type": 0,
            "value": "0"
        },
        "fund_flow": [
            {
                "amount": "120",
                "from": "0xc68dd3201aff2fa1883e0dc549e28e37351cb391",
                "id": 1,
                "isERC1155": false,
                "isERC721": false,
                "isReverted": false,
                "order": 1,
                "to": "0xf81a3b0663219dd5bb23d4705a1973e7573c8f30",
                "token": "0x953e22945b416730bad05009af05b420e598e412"
            }
        ],
        "token_infos": [
            {
                "address": "0x953e22945b416730bad05009af05b420e598e412",
                "decimals": 18
            },
            {
                "address": "0xc02aaa39b223fe8d0a0e5c4f27ead9083c756cc2",
                "decimals": 18
            },
            {
                "address": "0xeeeeeeeeeeeeeeeeeeeeeeeeeeeeeeeeeeeeeeee",
                "decimals": 18
            }
        ]
    },
    "address_label": {
        "labels": [
            {
                "address": "0x0000000000000000000000000000000000000004",
                "label": "Precompiled"
            },
            {
                "address": "0xeeeeeeeeeeeeeeeeeeeeeeeeeeeeeeeeeeeeeeee",
                "label": "Ether"
            },
            {
                "address": "0x953e22945b416730bad05009af05b420e598e412",
                "label": "Game X Coin (GXC)"
            },
            {
                "address": "0x0000000000000000000000000000000000000001",
                "label": "Precompiled"
            },
            {
                "address": "0x0000000000000000000000000000000000000002",
                "label": "Precompiled"
            },
            {
                "address": "0x0000000000000000000000000000000000000003",
                "label": "Precompiled"
            }
        ]
    },
    "trace": {
        "accountLabels": null,
        "dataMap": {
            "-1": {
                "invocation": {
                    "address": "0xc68dd3201aff2fa1883e0dc549e28e37351cb391",
                    "callData": "",
                    "decodedMethod": null,
                    "errorInfo": "",
                    "fromAddress": "",
                    "gasUsed": 0,
                    "id": -1,
                    "methodDecoded": false,
                    "operation": "",
                    "output": "",
                    "revert": false,
                    "revertMessage": "",
                    "selector": "",
                    "status": false,
                    "value": ""
                },
                "nodeType": 0
            },
            "0": {
                "invocation": {
                    "address": "0x953e22945b416730bad05009af05b420e598e412",
                    "callData": "0x000000000000000000000000f81a3b0663219dd5bb23d4705a1973e7573c8f300000000000000000000000000000000000000000000000068155a43676e00000",
                    "decodedMethod": {
                        "callParams": [
                            {
                                "name": "_to",
                                "type": "address",
                                "value": "0xf81a3b0663219dd5bb23d4705a1973e7573c8f30"
                            },
                            {
                                "decimalAvailable": true,
                                "name": "_value",
                                "type": "uint256",
                                "value": "120,000,000,000,000,000,000"
                            }
                        ],
                        "constructorArguments": "",
                        "name": "transfer",
                        "returnParams": [
                            {
                                "name": "success",
                                "type": "bool",
                                "value": true
                            }
                        ],
                        "signature": "transfer(address,uint256)"
                    },
                    "errorInfo": "",
                    "fromAddress": "0xc68dd3201aff2fa1883e0dc549e28e37351cb391",
                    "gasUsed": 55273,
                    "id": 0,
                    "methodDecoded": true,
                    "operation": "CALL",
                    "output": "0x0000000000000000000000000000000000000000000000000000000000000001",
                    "revert": false,
                    "revertMessage": "",
                    "selector": "0xa9059cbb",
                    "status": true,
                    "value": "0"
                },
                "nodeType": 0
            },
            "1": {
                "event": {
                    "contract": "0x953e22945b416730bad05009af05b420e598e412",
                    "decodedLog": {
                        "name": "Transfer",
                        "params": [
                            {
                                "name": "from",
                                "type": "address",
                                "value": "0xc68dd3201aff2fa1883e0dc549e28e37351cb391"
                            },
                            {
                                "name": "to",
                                "type": "address",
                                "value": "0xf81a3b0663219dd5bb23d4705a1973e7573c8f30"
                            },
                            {
                                "decimalAvailable": true,
                                "name": "value",
                                "type": "uint256",
                                "value": "120,000,000,000,000,000,000"
                            }
                        ],
                        "signature": "Transfer(address,address,uint256)"
                    },
                    "id": 1,
                    "logData": "0x0000000000000000000000000000000000000000000000068155a43676e00000",
                    "logDecoded": true,
                    "operation": "EVENT",
                    "revert": false,
                    "status": true,
                    "topics": [
                        "0xddf252ad1be2c89b69c2b068fc378daa952ba7f163c4a11628f55a4df523b3ef",
                        "0x000000000000000000000000c68dd3201aff2fa1883e0dc549e28e37351cb391",
                        "0x000000000000000000000000f81a3b0663219dd5bb23d4705a1973e7573c8f30"
                    ]
                },
                "nodeType": 1
            }
        },
        "gasFlame": [
            {
                "children": [
                    {
                        "children": [
                            {
                                "children": [],
                                "depth": 0,
                                "name": "Initial Gas",
                                "value": 23256
                            },
                            {
                                "children": [],
                                "depth": 0,
                                "name": "Executed Gas",
                                "value": 32017
                            }
                        ],
                        "depth": -1,
                        "name": "Actual Gas Used",
                        "value": 55273
                    },
                    {
                        "children": [],
                        "depth": -1,
                        "name": "Refunded Gas",
                        "value": 0
                    }
                ],
                "depth": -2,
                "name": "Total Gas",
                "value": 55273
            }
        ],
        "isConfirmed": true,
        "mainTrace": [
            {
                "children": [
                    {
                        "children": [
                            {
                                "children": [],
                                "depth": 1,
                                "id": 1,
                                "order": 1
                            }
                        ],
                        "depth": 0,
                        "id": 0,
                        "order": 0
                    }
                ],
                "depth": -1,
                "id": -1,
                "order": -1
            }
        ],
        "mainTraceNodeCount": 2,
        "parentIdMap": {
            "0": -1,
            "1": 0
        },
        "tidyTrace": [
            {
                "children": [
                    {
                        "children": [
                            {
                                "children": [],
                                "depth": 1,
                                "id": 1,
                                "order": 1
                            }
                        ],
                        "depth": 0,
                        "id": 0,
                        "order": 0
                    }
                ],
                "depth": -1,
                "id": -1,
                "order": -1
            }
        ],
        "tidyTraceNodeCount": 2
    },
    "state_change": {
        "stateChanges": [
            {
                "address": "0x953e22945b416730bad05009af05b420e598e412",
                "erc": "ERC-20",
                "slots": [
                    {
                        "current": "0x00000000000000000000000000000000000000000000292b87816eb155500000",
                        "key": "0xfdbe4128ca592941cbf00f7e2a90a2cd6ffaa978b09642e3b4cedf6d4c321feb",
                        "prev": "0x00000000000000000000000000000000000000000000293208d712e7cc300000"
                    },
                    {
                        "current": "0x0000000000000000000000000000000000000000000000068155a43676e00000",
                        "key": "0x9c1baa30ff7c638370e1d60b66c7504ae2a907461d091ff0ec32a924312d9fd4",
                        "prev": "0x0000000000000000000000000000000000000000000000000000000000000000"
                    }
                ],
                "storageVariables": [
                    {
                        "name": "balances",
                        "type": "mapping(address => uint256)",
                        "value": {
                            "pairs": [
                                {
                                    "key": "0xc68dd3201aff2fa1883e0dc549e28e37351cb391",
                                    "value": {
                                        "current": "194420000000000000000000",
                                        "prev": "194540000000000000000000",
                                        "typeTag": 1
                                    }
                                },
                                {
                                    "key": "0xf81a3b0663219dd5bb23d4705a1973e7573c8f30",
                                    "value": {
                                        "current": "120000000000000000000",
                                        "prev": "0",
                                        "typeTag": 1
                                    }
                                }
                            ],
                            "typeTag": 4
                        }
                    }
                ]
            }
        ]
    }
}