{
    "balance_change": {
        "balanceChanges": [
            {
                "account": "0xdd16f14aa9226e7ecc456f8b52427f92eb7b84ee",
                "assets": [
                    {
                        "address": "0xa0b86991c6218b36c1d19d4a2e9eb0ce3606eb48",
                        "amount": "2,128.938142",
                        "iconUrl": "https://assets.blocksec.com/icon/0347a86cc07dbd03fdc5db01a4e5ac7e1217f90e0b6e4bb0f75cbcca09160989.png",
                        "isERC1155": false,
                        "isERC721": false,
                        "sign": true,
                        "value": "2129.972125"
                    },
                    {
                        "address": "0xdac17f958d2ee523a2206206994597c13d831ec7",
                        "amount": "2,130.451",
                        "iconUrl": "https://assets.blocksec.com/icon/fcea71f3193ce895be44bfdf941f7e4c9381dd587f273c2d1a27f1263d84e4ea.png",
                        "isERC1155": false,
                        "isERC721": false,
                        "sign": false,
                        "value": "2132.531684"
                    }
                ]
            },
            {
                "account": "0x7858e59e0c01ea06df3af3d20ac7b0003275d4bf",
                "assets": [
                    {
                        "address": "0xa0b86991c6218b36c1d19d4a2e9eb0ce3606eb48",
                        "amount": "2,128.938142",
                        "iconUrl": "https://assets.blocksec.com/icon/0347a86cc07dbd03fdc5db01a4e5ac7e1217f90e0b6e4bb0f75cbcca09160989.png",
                        "isERC1155": false,
                        "isERC721": false,
                        "sign": false,
                        "value": "2129.972125"
                    },
                    {
                        "address": "0xdac17f958d2ee523a2206206994597c13d831ec7",
                        "amount": "2,130.451",
                        "iconUrl": "https://assets.blocksec.com/icon/fcea71f3193ce895be44bfdf941f7e4c9381dd587f273c2d1a27f1263d84e4ea.png",
                        "isERC1155": false,
                        "isERC721": false,
                        "sign": true,
                        "value": "2132.531684"
                    }
                ]
            }
        ]
    },
    "profile": {
        "basic_info": {
            "baseFee": "",
            "blockNumber": 12712143,
            "callData": "0x414bf389000000000000000000000000dac17f958d2ee523a2206206994597c13d831ec7000000000000000000000000a0b86991c6218b36c1d19d4a2e9eb0ce3606eb4800000000000000000000000000000000000000000000000000000000000001f4000000000000000000000000dd16f14aa9226e7ecc456f8b52427f92eb7b84ee0000000000000000000000000000000000000000000000000000000060d7a623000000000000000000000000000000000000000000000000000000007efc1a38000000000000000000000000000000000000000000000000000000007e4366a90000000000000000000000000000000000000000000000000000000000000000",
            "debugEnable": true,
            "errorInfo": "",
            "eventCount": 3,
            "feeRecipient": "0x1ad91ee08f21be3de0ba2ba6918e714da6b45836",
            "formatValue": "0",
            "gasLimit": 156079,
            "gasPrice": "10",
            "gasUsed": 111810,
            "intTxnCount": 7,
            "internalRevert": false,
            "internalRevertMessage": "",
            "isContractCreation": false,
            "isFlashloan": false,
            "maxFee": "",
            "nonce": 140,
            "overwritedBlockNumber": -1,
            "priorityFee": "",
            "receiver": "0xe592427a0aece92de3edee1f18e0157c05861564",
            "revertMessage": "",
            "sender": "0xdd16f14aa9226e7ecc456f8b52427f92eb7b84ee",
            "simulationEnable": true,
            "sourceTxnHash": "0x3bba1f3b53b05289cf2879eadd5c2f1aabea0e9eacea5088cd659c17766470c6",
            "status": true,
            "timestamp": "2021-06-26T21:52:20Z",
            "transactionFee": "0.0011181",
            "txnHash": "0x3bba1f3b53b05289cf2879eadd5c2f1aabea0e9eacea5088cd659c17766470c6",
            "txnIndex": 58,
            "type": 0,
            "value": "0"
        },
        "fund_flow": [
            {
                "amount": "2,128.938142",
                "from": "0x7858e59e0c01ea06df3af3d20ac7b0003275d4bf",
                "id": 1,
                "isERC1155": false,
                "isERC721": false,
                "isReverted": false,
                "order": 1,
                "to": "0xdd16f14aa9226e7ecc456f8b52427f92eb7b84ee",
                "token": "0xa0b86991c6218b36c1d19d4a2e9eb0ce3606eb48"
            },
            {
                "amount": "2,130.451",
                "from": "0xdd16f14aa9226e7ecc456f8b52427f92eb7b84ee",
                "id": 2,
                "isERC1155": false,
                "isERC721": false,
                "isReverted": false,
                "order": 2,
                "to": "0x7858e59e0c01ea06df3af3d20ac7b0003275d4bf",
                "token": "0xdac17f958d2ee523a2206206994597c13d831ec7"
            }
        ],
        "token_infos": [
            {
                "address": "0xc02aaa39b223fe8d0a0e5c4f27ead9083c756cc2",
                "decimals": 18
            },
            {
                "address": "0xdac17f958d2ee523a2206206994597c13d831ec7",
                "decimals": 6
            },
            {
                "address": "0xeeeeeeeeeeeeeeeeeeeeeeeeeeeeeeeeeeeeeeee",
                "decimals": 18
            },
            {
                "address": "0xa0b86991c6218b36c1d19d4a2e9eb0ce3606eb48",
                "decimals": 6
            }
        ]
    },
    "address_label": {
        "labels": [
            {
                "address": "0x0000000000000000000000000000000000000002",
                "label": "Precompiled"
            },
            {
                "address": "0x0000000000000000000000000000000000000004",
                "label": "Precompiled"
            },
            {
                "address": "0xeeeeeeeeeeeeeeeeeeeeeeeeeeeeeeeeeeeeeeee",
                "label": "Ether"
            },
            {
                "address": "0xa2327a938febf5fec13bacfb16ae10ecbc4cbdcf",
                "label": "FiatTokenV2_1"
            },
            {
                "address": "0xe592427a0aece92de3edee1f18e0157c05861564",
                "label": "Uniswap V3: Router"
            },
            {
                "address": "0x0000000000000000000000000000000000000001",
                "label": "Precompiled"
            },
            {
                "address": "0x0000000000000000000000000000000000000003",
                "label": "Precompiled"
            },
            {
                "address": "0x7858e59e0c01ea06df3af3d20ac7b0003275d4bf",
                "label": "Uniswap V3: USDC-USDT"
            },
            {
                "address": "0xdac17f958d2ee523a2206206994597c13d831ec7",
                "label": "Tether: USDT Stablecoin"
            },
            {
                "address": "0xa0b86991c6218b36c1d19d4a2e9eb0ce3606eb48",
                "label": "Circle: USDC Token"
            }
        ]
    },
    "trace": {
        "accountLabels": null,
        "dataMap": {
            "-1": {
                "invocation": {
                    "address": "0xdd16f14aa9226e7ecc456f8b52427f92eb7b84ee",
                    "callData": "",
                    "decodedMethod": null,
                    "errorInfo": "",
                    "fromAddress": "",
                    "gasUsed": 0,
                    "id": -1,
                    "methodDecoded": false,
                    "operation": "",
                    "output": "",
                    "revert": false,
                    "revertMessage": "",
                    "selector": "",
                    "status": false,
                    "value": ""
                },
                "nodeType": 0
            },
            "0": {
                "invocation": {
                    "address": "0xe592427a0aece92de3edee1f18e0157c05861564",
                    "callData": "0x000000000000000000000000dac17f958d2ee523a2206206994597c13d831ec7000000000000000000000000a0b86991c6218b36c1d19d4a2e9eb0ce3606eb4800000000000000000000000000000000000000000000000000000000000001f4000000000000000000000000dd16f14aa9226e7ecc456f8b52427f92eb7b84ee0000000000000000000000000000000000000000000000000000000060d7a623000000000000000000000000000000000000000000000000000000007efc1a38000000000000000000000000000000000000000000000000000000007e4366a90000000000000000000000000000000000000000000000000000000000000000",
                    "decodedMethod": {
                        "callParams": [
                            {
                                "name": "params",
                                "type": "(address,address,uint24,address,uint256,uint256,uint256,uint160)",
                                "value": [
                                    {
                                        "name": "tokenIn",
                                        "type": "address",
                                        "value": "0xdac17f958d2ee523a2206206994597c13d831ec7"
                                    },
                                    {
                                        "name": "tokenOut",
                                        "type": "address",
                                        "value": "0xa0b86991c6218b36c1d19d4a2e9eb0ce3606eb48"
                                    },
                                    {
                                        "name": "fee",
                                        "type": "uint24",
                                        "value": "500"
                                    },
                                    {
                                        "name": "recipient",
                                        "type": "address",
                                        "value": "0xdd16f14aa9226e7ecc456f8b52427f92eb7b84ee"
                                    },
                                    {
                                        "name": "deadline",
                                        "type": "uint256",
                                        "value": "1,624,745,507"
                                    },
                                    {
                                        "name": "amountIn",
                                        "type": "uint256",
                                        "value": "2,130,451,000"
                                    },
                                    {
                                        "name": "amountOutMinimum",
                                        "type": "uint256",
                                        "value": "2,118,346,409"
                                    },
                                    {
                                        "name": "sqrtPriceLimitX96",
                                        "type": "uint160",
                                        "value": "0"
                                    }
                                ]
                            }
                        ],
                        "constructorArguments": "",
                        "name": "exactInputSingle",
                        "returnParams": [
                            {
                                "name": "amountOut",
                                "type": "uint256",
                                "value": "2,128,938,142"
                            }
                        ],
                        "signature": "exactInputSingle((address,address,uint24,address,uint256,uint256,uint256,uint160))"
                    },
                    "errorInfo": "",
                    "fromAddress": "0xdd16f14aa9226e7ecc456f8b52427f92eb7b84ee",
                    "gasUsed": 111810,
                    "id": 0,
                    "methodDecoded": true,
                    "operation": "CALL",
                    "output": "0x000000000000000000000000000000000000000000000000000000007ee5049e",
                    "revert": false,
                    "revertMessage": "",
                    "selector": "0x414bf389",
                    "status": true,
                    "value": "0"
                },
                "nodeType": 0
            },
            "1": {
                "invocation": {
                    "address": "0x7858e59e0c01ea06df3af3d20ac7b0003275d4bf",
                    "callData": "0x000000000000000000000000dd16f14aa9226e7ecc456f8b52427f92eb7b84ee0000000000000000000000000000000000000000000000000000000000000000000000000000000000000000000000000000000000000000000000007efc1a38000000000000000000000000fffd8963efd1fc6a506488495d951d5263988d2500000000000000000000000000000000000000000000000000000000000000a000000000000000000000000000000000000000000000000000000000000000c000000000000000000000000000000000000000000000000000000000000000200000000000000000000000000000000000000000000000000000000000000040000000000000000000000000dd16f14aa9226e7ecc456f8b52427f92eb7b84ee000000000000000000000000000000000000000000000000000000000000002bdac17f958d2ee523a2206206994597c13d831ec70001f4a0b86991c6218b36c1d19d4a2e9eb0ce3606eb48000000000000000000000000000000000000000000",
                    "decodedMethod": {
                        "callParams": [
                            {
                                "name": "recipient",
                                "type": "address",
                                "value": "0xdd16f14aa9226e7ecc456f8b52427f92eb7b84ee"
                            },
                            {
                                "name": "zeroForOne",
                                "type": "bool",
                                "value": false
                            },
                            {
                                "name": "amountSpecified",
                                "type": "int256",
                                "value": "2,130,451,000"
                            },
                            {
                                "name": "sqrtPriceLimitX96",
                                "type": "uint160",
                                "value": "1,461,446,703,485,210,103,287,273,052,203,988,822,378,723,970,341"
                            },
                            {
                                "name": "data",
                                "type": "bytes",
                                "value": "0x00000000000000000000000000000000000000000000000000000000000000200000000000000000000000000000000000000000000000000000000000000040000000000000000000000000dd16f14aa9226e7ecc456f8b52427f92eb7b84ee000000000000000000000000000000000000000000000000000000000000002bdac17f958d2ee523a2206206994597c13d831ec70001f4a0b86991c6218b36c1d19d4a2e9eb0ce3606eb48000000000000000000000000000000000000000000"
                            }
                        ],
                        "constructorArguments": "",
                        "name": "swap",
                        "returnParams": [
                            {
                                "name": "amount0",
                                "type": "int256",
                                "value": "-2,128,938,142"
                            },
                            {
                                "name": "amount1",
                                "type": "int256",
                                "value": "2,130,451,000"
                            }
                        ],
                        "signature": "swap(address,bool,int256,uint160,bytes)"
                    },
                    "errorInfo": "",
                    "fromAddress": "0xe592427a0aece92de3edee1f18e0157c05861564",
                    "gasUsed": 96373,
                    "id": 1,
                    "methodDecoded": true,
                    "operation": "CALL",
                    "output": "0xffffffffffffffffffffffffffffffffffffffffffffffffffffffff811afb62000000000000000000000000000000000000000000000000000000007efc1a38",
                    "revert": false,
                    "revertMessage": "",
                    "selector": "0x128acb08",
                    "status": true,
                    "value": "0"
                },
                "nodeType": 0
            },
            "10": {
                "event": {
                    "contract": "0x7858e59e0c01ea06df3af3d20ac7b0003275d4bf",
                    "decodedLog": {
                        "name": "Swap",
                        "params": [
                            {
                                "name": "sender",
                                "type": "address",
                                "value": "0xe592427a0aece92de3edee1f18e0157c05861564"
                            },
                            {
                                "name": "recipient",
                                "type": "address",
                                "value": "0xdd16f14aa9226e7ecc456f8b52427f92eb7b84ee"
                            },
                            {
                                "name": "amount0",
                                "type": "int256",
                                "value": "-2,128,938,142"
                            },
                            {
                                "name": "amount1",
                                "type": "int256",
                                "value": "2,130,451,000"
                            },
                            {
                                "name": "sqrtPriceX96",
                                "type": "uint160",
                                "value": "79,236,491,942,725,614,681,055,614,674"
                            },
                            {
                                "name": "liquidity",
                                "type": "uint128",
                                "value": "140,770,586,413,271,365"
                            },
                            {
                                "name": "tick",
                                "type": "int24",
                                "value": "2"
                            }
                        ],
                        "signature": "Swap(address,address,int256,int256,uint160,uint128,int24)"
                    },
                    "id": 10,
                    "logData": "0xffffffffffffffffffffffffffffffffffffffffffffffffffffffff811afb62000000000000000000000000000000000000000000000000000000007efc1a3800000000000000000000000000000000000000010006e3d338bef8252ef8d6d200000000000000000000000000000000000000000000000001f41e1a3dfc89450000000000000000000000000000000000000000000000000000000000000002",
                    "logDecoded": true,
                    "operation": "EVENT",
                    "revert": false,
                    "status": true,
                    "topics": [
                        "0xc42079f94a6350d7e6235f29174924f928cc2ac818eb64fed8004e115fbcca67",
                        "0x000000000000000000000000e592427a0aece92de3edee1f18e0157c05861564",
                        "0x000000000000000000000000dd16f14aa9226e7ecc456f8b52427f92eb7b84ee"
                    ]
                },
                "nodeType": 1
            },
            "2": {
                "invocation": {
                    "address": "0xa0b86991c6218b36c1d19d4a2e9eb0ce3606eb48",
                    "callData": "0x000000000000000000000000dd16f14aa9226e7ecc456f8b52427f92eb7b84ee000000000000000000000000000000000000000000000000000000007ee5049e",
                    "decodedMethod": {
                        "callParams": [
                            {
                                "name": "to",
                                "type": "address",
                                "value": "0xdd16f14aa9226e7ecc456f8b52427f92eb7b84ee"
                            },
                            {
                                "decimalAvailable": true,
                                "name": "value",
                                "type": "uint256",
                                "value": "2,128,938,142"
                            }
                        ],
                        "constructorArguments": "",
                        "name": "transfer",
                        "returnParams": [
                            {
                                "name": "",
                                "type": "bool",
                                "value": true
                            }
                        ],
                        "signature": "transfer(address,uint256)"
                    },
                    "errorInfo": "",
                    "fromAddress": "0x7858e59e0c01ea06df3af3d20ac7b0003275d4bf",
                    "gasUsed": 26917,
                    "id": 2,
                    "methodDecoded": true,
                    "operation": "CALL",
                    "output": "0x0000000000000000000000000000000000000000000000000000000000000001",
                    "revert": false,
                    "revertMessage": "",
                    "selector": "0xa9059cbb",
                    "status": true,
                    "value": "0"
                },
                "nodeType": 0
            },
            "3": {
                "invocation": {
                    "address": "0xa2327a938febf5fec13bacfb16ae10ecbc4cbdcf",
                    "callData": "0x000000000000000000000000dd16f14aa9226e7ecc456f8b52427f92eb7b84ee000000000000000000000000000000000000000000000000000000007ee5049e",
                    "decodedMethod": {
                        "callParams": [
                            {
                                "name": "to",
                                "type": "address",
                                "value": "0xdd16f14aa9226e7ecc456f8b52427f92eb7b84ee"
                            },
                            {
                                "decimalAvailable": true,
                                "name": "value",
                                "type": "uint256",
                                "value": "2,128,938,142"
                            }
                        ],
                        "constructorArguments": "",
                        "name": "transfer",
                        "returnParams": [
                            {
                                "name": "",
                                "type": "bool",
                                "value": true
                            }
                        ],
                        "signature": "transfer(address,uint256)"
                    },
                    "errorInfo": "",
                    "fromAddress": "0xa0b86991c6218b36c1d19d4a2e9eb0ce3606eb48",
                    "gasUsed": 19628,
                    "id": 3,
                    "methodDecoded": true,
                    "operation": "DELEGATECALL",
                    "output": "0x0000000000000000000000000000000000000000000000000000000000000001",
                    "revert": false,
                    "revertMessage": "",
                    "selector": "0xa9059cbb",
                    "status": true,
                    "value": "0"
                },
                "nodeType": 0
            },
            "4": {
                "event": {
                    "contract": "0xa0b86991c6218b36c1d19d4a2e9eb0ce3606eb48",
                    "decodedLog": {
                        "name": "Transfer",
                        "params": [
                            {
                                "name": "from",
                                "type": "address",
                                "value": "0x7858e59e0c01ea06df3af3d20ac7b0003275d4bf"
                            },
                            {
                                "name": "to",
                                "type": "address",
                                "value": "0xdd16f14aa9226e7ecc456f8b52427f92eb7b84ee"
                            },
                            {
                                "decimalAvailable": true,
                                "name": "value",
                                "type": "uint256",
                                "value": "2,128,938,142"
                            }
                        ],
                        "signature": "Transfer(address,address,uint256)"
                    },
                    "id": 4,
                    "logData": "0x000000000000000000000000000000000000000000000000000000007ee5049e",
                    "logDecoded": true,
                    "operation": "EVENT",
                    "revert": false,
                    "status": true,
                    "topics": [
                        "0xddf252ad1be2c89b69c2b068fc378daa952ba7f163c4a11628f55a4df523b3ef",
                        "0x0000000000000000000000007858e59e0c01ea06df3af3d20ac7b0003275d4bf",
                        "0x000000000000000000000000dd16f14aa9226e7ecc456f8b52427f92eb7b84ee"
                    ]
                },
                "nodeType": 1
            },
            "5": {
                "invocation": {
                    "address": "0xdac17f958d2ee523a2206206994597c13d831ec7",
                    "callData": "0x0000000000000000000000007858e59e0c01ea06df3af3d20ac7b0003275d4bf",
                    "decodedMethod": {
                        "callParams": [
                            {
                                "name": "who",
                                "type": "address",
                                "value": "0x7858e59e0c01ea06df3af3d20ac7b0003275d4bf"
                            }
                        ],
                        "constructorArguments": "",
                        "name": "balanceOf",
                        "returnParams": [
                            {
                                "decimalAvailable": true,
                                "name": "",
                                "type": "uint256",
                                "value": "110,866,747,504,833"
                            }
                        ],
                        "signature": "balanceOf(address)"
                    },
                    "errorInfo": "",
                    "fromAddress": "0x7858e59e0c01ea06df3af3d20ac7b0003275d4bf",
                    "gasUsed": 5031,
                    "id": 5,
                    "methodDecoded": true,
                    "operation": "STATICCALL",
                    "output": "0x000000000000000000000000000000000000000000000000000064d52d1a38c1",
                    "revert": false,
                    "revertMessage": "",
                    "selector": "0x70a08231",
                    "status": true,
                    "value": "0"
                },
                "nodeType": 0
            },
            "6": {
                "invocation": {
                    "address": "0xe592427a0aece92de3edee1f18e0157c05861564",
                    "callData": "0xffffffffffffffffffffffffffffffffffffffffffffffffffffffff811afb62000000000000000000000000000000000000000000000000000000007efc1a38000000000000000000000000000000000000000000000000000000000000006000000000000000000000000000000000000000000000000000000000000000c000000000000000000000000000000000000000000000000000000000000000200000000000000000000000000000000000000000000000000000000000000040000000000000000000000000dd16f14aa9226e7ecc456f8b52427f92eb7b84ee000000000000000000000000000000000000000000000000000000000000002bdac17f958d2ee523a2206206994597c13d831ec70001f4a0b86991c6218b36c1d19d4a2e9eb0ce3606eb48000000000000000000000000000000000000000000",
                    "decodedMethod": {
                        "callParams": [
                            {
                                "name": "amount0Delta",
                                "type": "int256",
                                "value": "-2,128,938,142"
                            },
                            {
                                "name": "amount1Delta",
                                "type": "int256",
                                "value": "2,130,451,000"
                            },
                            {
                                "name": "_data",
                                "type": "bytes",
                                "value": "0x00000000000000000000000000000000000000000000000000000000000000200000000000000000000000000000000000000000000000000000000000000040000000000000000000000000dd16f14aa9226e7ecc456f8b52427f92eb7b84ee000000000000000000000000000000000000000000000000000000000000002bdac17f958d2ee523a2206206994597c13d831ec70001f4a0b86991c6218b36c1d19d4a2e9eb0ce3606eb48000000000000000000000000000000000000000000"
                            }
                        ],
                        "constructorArguments": "",
                        "name": "uniswapV3SwapCallback",
                        "returnParams": [],
                        "signature": "uniswapV3SwapCallback(int256,int256,bytes)"
                    },
                    "errorInfo": "",
                    "fromAddress": "0x7858e59e0c01ea06df3af3d20ac7b0003275d4bf",
                    "gasUsed": 26495,
                    "id": 6,
                    "methodDecoded": true,
                    "operation": "CALL",
                    "output": "",
                    "revert": false,
                    "revertMessage": "",
                    "selector": "0xfa461e33",
                    "status": true,
                    "value": "0"
                },
                "nodeType": 0
            },
            "7": {
                "invocation": {
                    "address": "0xdac17f958d2ee523a2206206994597c13d831ec7",
                    "callData": "0x000000000000000000000000dd16f14aa9226e7ecc456f8b52427f92eb7b84ee0000000000000000000000007858e59e0c01ea06df3af3d20ac7b0003275d4bf000000000000000000000000000000000000000000000000000000007efc1a38",
                    "decodedMethod": {
                        "callParams": [
                            {
                                "name": "_from",
                                "type": "address",
                                "value": "0xdd16f14aa9226e7ecc456f8b52427f92eb7b84ee"
                            },
                            {
                                "name": "_to",
                                "type": "address",
                                "value": "0x7858e59e0c01ea06df3af3d20ac7b0003275d4bf"
                            },
                            {
                                "decimalAvailable": true,
                                "name": "_value",
                                "type": "uint256",
                                "value": "2,130,451,000"
                            }
                        ],
                        "constructorArguments": "",
                        "name": "transferFrom",
                        "returnParams": [],
                        "signature": "transferFrom(address,address,uint256)"
                    },
                    "errorInfo": "",
                    "fromAddress": "0xe592427a0aece92de3edee1f18e0157c05861564",
                    "gasUsed": 22530,
                    "id": 7,
                    "methodDecoded": true,
                    "operation": "CALL",
                    "output": "",
                    "revert": false,
                    "revertMessage": "",
                    "selector": "0x23b872dd",
                    "status": true,
                    "value": "0"
                },
                "nodeType": 0
            },
            "8": {
                "event": {
                    "contract": "0xdac17f958d2ee523a2206206994597c13d831ec7",
                    "decodedLog": {
                        "name": "Transfer",
                        "params": [
                            {
                                "name": "from",
                                "type": "address",
                                "value": "0xdd16f14aa9226e7ecc456f8b52427f92eb7b84ee"
                            },
                            {
                                "name": "to",
                                "type": "address",
                                "value": "0x7858e59e0c01ea06df3af3d20ac7b0003275d4bf"
                            },
                            {
                                "decimalAvailable": true,
                                "name": "value",
                                "type": "uint256",
                                "value": "2,130,451,000"
                            }
                        ],
                        "signature": "Transfer(address,address,uint256)"
                    },
                    "id": 8,
                    "logData": "0x000000000000000000000000000000000000000000000000000000007efc1a38",
                    "logDecoded": true,
                    "operation": "EVENT",
                    "revert": false,
                    "status": true,
                    "topics": [
                        "0xddf252ad1be2c89b69c2b068fc378daa952ba7f163c4a11628f55a4df523b3ef",
                        "0x000000000000000000000000dd16f14aa9226e7ecc456f8b52427f92eb7b84ee",
                        "0x0000000000000000000000007858e59e0c01ea06df3af3d20ac7b0003275d4bf"
                    ]
                },
                "nodeType": 1
            },
            "9": {
                "invocation": {
                    "address": "0xdac17f958d2ee523a2206206994597c13d831ec7",
                    "callData": "0x0000000000000000000000007858e59e0c01ea06df3af3d20ac7b0003275d4bf",
                    "decodedMethod": {
                        "callParams": [
                            {
                                "name": "who",
                                "type": "address",
                                "value": "0x7858e59e0c01ea06df3af3d20ac7b0003275d4bf"
                            }
                        ],
                        "constructorArguments": "",
                        "name": "balanceOf",
                        "returnParams": [
                            {
                                "decimalAvailable": true,
                                "name": "",
                                "type": "uint256",
                                "value": "110,868,877,955,833"
                            }
                        ],
                        "signature": "balanceOf(address)"
                    },
                    "errorInfo": "",
                    "fromAddress": "0x7858e59e0c01ea06df3af3d20ac7b0003275d4bf",
                    "gasUsed": 1031,
                    "id": 9,
                    "methodDecoded": true,
                    "operation": "STATICCALL",
                    "output": "0x000000000000000000000000000000000000000000000000000064d5ac1652f9",
                    "revert": false,
                    "revertMessage": "",
                    "selector": "0x70a08231",
                    "status": true,
                    "value": "0"
                },
                "nodeType": 0
            }
        },
        "gasFlame": [
            {
                "children": [
                    {
                        "children": [
                            {
                                "children": [],
                                "depth": 0,
                                "name": "Initial Gas",
                                "value": 22976
                            },
                            {
                                "children": [
                                    {
                                        "children": [
                                            {
                                                "children": [
                                                    {
                                                        "children": [],
                                                        "depth": 3,
                                                        "name": "transfer",
                                                        "value": 19628
                                                    }
                                                ],
                                                "depth": 2,
                                                "name": "transfer",
                                                "value": 26917
                                            },
                                            {
                                                "children": [],
                                                "depth": 2,
                                                "name": "balanceOf",
                                                "value": 5031
                                            },
                                            {
                                                "children": [
                                                    {
                                                        "children": [],
                                                        "depth": 3,
                                                        "name": "transferFrom",
                                                        "value": 22530
                                                    }
                                                ],
                                                "depth": 2,
                                                "name": "uniswapV3SwapCallback",
                                                "value": 26495
                                            },
                                            {
                                                "children": [],
                                                "depth": 2,
                                                "name": "balanceOf",
                                                "value": 1031
                                            }
                                        ],
                                        "depth": 1,
                                        "name": "swap",
                                        "value": 96373
                                    }
                                ],
                                "depth": 0,
                                "name": "Executed Gas",
                                "value": 103834
                            }
                        ],
                        "depth": -1,
                        "name": "Actual Gas Used",
                        "value": 111810
                    },
                    {
                        "children": [],
                        "depth": -1,
                        "name": "Refunded Gas",
                        "value": 15000
                    }
                ],
                "depth": -2,
                "name": "Total Gas",
                "value": 126810
            }
        ],
        "isConfirmed": true,
        "mainTrace": [
            {
                "children": [
                    {
                        "children": [
                            {
                                "children": [
                                    {
                                        "children": [
                                            {
                                                "children": [
                                                    {
                                                        "children": [],
                                                        "depth": 4,
                                                        "id": 4,
                                                        "order": 4
                                                    }
                                                ],
                                                "depth": 3,
                                                "id": 3,
                                                "order": 3
                                            }
                                        ],
                                        "depth": 2,
                                        "id": 2,
                                        "order": 2
                                    },
                                    {
                                        "children": [],
                                        "depth": 2,
                                        "id": 5,
                                        "order": 5
                                    },
                                    {
                                        "children": [
                                            {
                                                "children": [
                                                    {
                                                        "children": [],
                                                        "depth": 4,
                                                        "id": 8,
                                                        "order": 8
                                                    }
                                                ],
                                                "depth": 3,
                                                "id": 7,
                                                "order": 7
                                            }
                                        ],
                                        "depth": 2,
                                        "id": 6,
                                        "order": 6
                                    },
                                    {
                                        "children": [],
                                        "depth": 2,
                                        "id": 9,
                                        "order": 9
                                    },
                                    {
                                        "children": [],
                                        "depth": 2,
                                        "id": 10,
                                        "order": 10
                                    }
                                ],
                                "depth": 1,
                                "id": 1,
                                "order": 1
                            }
                        ],
                        "depth": 0,
                        "id": 0,
                        "order": 0
                    }
                ],
                "depth": -1,
                "id": -1,
                "order": -1
            }
        ],
        "mainTraceNodeCount": 11,
        "parentIdMap": {
            "0": -1,
            "1": 0,
            "10": 1,
            "2": 1,
            "3": 2,
            "4": 3,
            "5": 1,
            "6": 1,
            "7": 6,
            "8": 7,
            "9": 1
        },
        "tidyTrace": [
            {
                "children": [
                    {
                        "children": [
                            {
                                "children": [
                                    {
                                        "children": [
                                            {
                                                "children": [
                                                    {
                                                        "children": [],
                                                        "depth": 4,
                                                        "id": 4,
                                                        "order": 4
                                                    }
                                                ],
                                                "depth": 3,
                                                "id": 3,
                                                "order": 3
                                            }
                                        ],
                                        "depth": 2,
                                        "id": 2,
                                        "order": 2
                                    },
                                    {
                                        "children": [
                                            {
                                                "children": [
                                                    {
                                                        "children": [],
                                                        "depth": 4,
                                                        "id": 8,
                                                        "order": 8
                                                    }
                                                ],
                                                "depth": 3,
                                                "id": 7,
                                                "order": 7
                                            }
                                        ],
                                        "depth": 2,
                                        "id": 6,
                                        "order": 6
                                    },
                                    {
                                        "children": [],
                                        "depth": 2,
                                        "id": 10,
                                        "order": 10
                                    }
                                ],
                                "depth": 1,
                                "id": 1,
                                "order": 1
                            }
                        ],
                        "depth": 0,
                        "id": 0,
                        "order": 0
                    }
                ],
                "depth": -1,
                "id": -1,
                "order": -1
            }
        ],
        "tidyTraceNodeCount": 9
    },
    "state_change": {
        "stateChanges": [
            {
                "address": "0x7858e59e0c01ea06df3af3d20ac7b0003275d4bf",
                "erc": "",
                "slots": [
                    {
                        "current": "0x000100012c012c00e300000200000000000000010006e3d338bef8252ef8d6d2",
                        "key": "0x0000000000000000000000000000000000000000000000000000000000000000",
                        "prev": "0x000100012c012c00e300000200000000000000010006e39240d4befc0b4b21af"
                    },
                    {
                        "current": "0x000000000000000000000000000000000000b4a072ad5be7fa2ddffa39e944c8",
                        "key": "0x0000000000000000000000000000000000000000000000000000000000000002",
                        "prev": "0x000000000000000000000000000000000000b4a06a5b686d8afa7a397bd87970"
                    }
                ],
                "storageVariables": [
                    {
                        "name": "slot0",
                        "type": "struct UniswapV3Pool.Slot0",
                        "value": {
                            "fields": [
                                {
                                    "name": "sqrtPriceX96",
                                    "type": "uint160",
                                    "value": {
                                        "current": "79236491942725614681055614674",
                                        "prev": "79236490744269840242870788527",
                                        "typeTag": 1
                                    }
                                },
                                {
                                    "name": "tick",
                                    "type": "int24",
                                    "value": {
                                        "current": "2",
                                        "prev": "2",
                                        "typeTag": 1
                                    }
                                },
                                {
                                    "name": "observationIndex",
                                    "type": "uint16",
                                    "value": {
                                        "current": "227",
                                        "prev": "227",
                                        "typeTag": 1
                                    }
                                },
                                {
                                    "name": "observationCardinality",
                                    "type": "uint16",
                                    "value": {
                                        "current": "300",
                                        "prev": "300",
                                        "typeTag": 1
                                    }
                                },
                                {
                                    "name": "observationCardinalityNext",
                                    "type": "uint16",
                                    "value": {
                                        "current": "300",
                                        "prev": "300",
                                        "typeTag": 1
                                    }
                                },
                                {
                                    "name": "feeProtocol",
                                    "type": "uint8",
                                    "value": {
                                        "current": "0",
                                        "prev": "0",
                                        "typeTag": 1
                                    }
                                },
                                {
                                    "name": "unlocked",
                                    "type": "bool",
                                    "value": {
                                        "current": "true",
                                        "prev": "true",
                                        "typeTag": 1
                                    }
                                }
                            ],
                            "typeTag": 3
                        }
                    },
                    {
                        "name": "feeGrowthGlobal1X128",
                        "type": "uint256",
                        "value": {
                            "current": "3663545725528883972127467973985480",
                            "prev": "3663543150576020441607598153169264",
                            "typeTag": 1
                        }
                    }
                ]
            },
            {
                "address": "0xa0b86991c6218b36c1d19d4a2e9eb0ce3606eb48",
                "erc": "ERC-20",
                "slots": [
                    {
                        "current": "0x000000000000000000000000000000000000000000000000000000007f2e8e6e",
                        "key": "0xf73d52c072142a41097c89362a359cc3899cbbef00679be7eb520dbb5334f6dd",
                        "prev": "0x00000000000000000000000000000000000000000000000000000000004989d0"
                    },
                    {
                        "current": "0x000000000000000000000000000000000000000000000000000038e1036deb15",
                        "key": "0x93c40640380b12c4457039f9068961907821d6675c1c864b3d7911da89086f7f",
                        "prev": "0x000000000000000000000000000000000000000000000000000038e18252efb3"
                    }
                ],
                "storageVariables": [
                    {
                        "name": "balances",
                        "type": "mapping(address => uint256)",
                        "value": {
                            "pairs": [
                                {
                                    "key": "0x7858e59e0c01ea06df3af3d20ac7b0003275d4bf",
                                    "value": {
                                        "current": "62539076332309",
                                        "prev": "62541205270451",
                                        "typeTag": 1
                                    }
                                },
                                {
                                    "key": "0xdd16f14aa9226e7ecc456f8b52427f92eb7b84ee",
                                    "value": {
                                        "current": "2133757550",
                                        "prev": "4819408",
                                        "typeTag": 1
                                    }
                                }
                            ],
                            "typeTag": 4
                        }
                    }
                ]
            },
            {
                "address": "0xdac17f958d2ee523a2206206994597c13d831ec7",
                "erc": "ERC-20",
                "slots": [
                    {
                        "current": "0x0000000000000000000000000000000000000000000000000000000000000000",
                        "key": "0x8a24aa4eff2f93ea071aa30933d2e2d446f1675b7471dc1ee46e5e44e04a86b6",
                        "prev": "0x000000000000000000000000000000000000000000000000000000007efc1a38"
                    },
                    {
                        "current": "0x000000000000000000000000000000000000000000000000000064d5ac1652f9",
                        "key": "0x47f0d8c24352282bd22f6c16110950f1718ca728a004736610a9835aafa6c77c",
                        "prev": "0x000000000000000000000000000000000000000000000000000064d52d1a38c1"
                    }
                ],
                "storageVariables": [
                    {
                        "name": "balances",
                        "type": "mapping(address => uint256)",
                        "value": {
                            "pairs": [
                                {
                                    "key": "0x7858e59e0c01ea06df3af3d20ac7b0003275d4bf",
                                    "value": {
                                        "current": "110868877955833",
                                        "prev": "110866747504833",
                                        "typeTag": 1
                                    }
                                },
                                {
                                    "key": "0xdd16f14aa9226e7ecc456f8b52427f92eb7b84ee",
                                    "value": {
                                        "current": "0",
                                        "prev": "2130451000",
                                        "typeTag": 1
                                    }
                                }
                            ],
                            "typeTag": 4
                        }
                    }
                ]
            }
        ]
    }
}