{
    "balance_change": {
        "balanceChanges": [
            {
                "account": "0x760b3869b79e7697f16cdaacffc2aaff106f3e39",
                "assets": [
                    {
                        "address": "0xeeeeeeeeeeeeeeeeeeeeeeeeeeeeeeeeeeeeeeee",
                        "amount": "4.9",
                        "iconUrl": "https://assets.blocksec.com/image/1663669189317-3.png",
                        "isERC1155": false,
                        "isERC721": false,
                        "sign": false,
                        "value": "17396.01675"
                    },
                    {
                        "address": "0x15b7c0c907e4c6b9adaaaabc300c08991d6cea05",
                        "amount": "7,983.587998917487189083",
                        "iconUrl": "https://assets.blocksec.com/icon/0945e3e6e897412fb27db2a8386e125a25a62b566249cbf02cbdeb59f1ceb548.png",
                        "isERC1155": false,
                        "isERC721": false,
                        "sign": true,
                        "value": "15738.4778"
                    }
                ]
            },
            {
                "account": "0x2dd31cc03ed996a99fbfdffa07f8f4604b1a2ec1",
                "assets": [
                    {
                        "address": "0x15b7c0c907e4c6b9adaaaabc300c08991d6cea05",
                        "amount": "7,983.587998917487189083",
                        "iconUrl": "https://assets.blocksec.com/icon/0945e3e6e897412fb27db2a8386e125a25a62b566249cbf02cbdeb59f1ceb548.png",
                        "isERC1155": false,
                        "isERC721": false,
                        "sign": false,
                        "value": "15738.4778"
                    },
                    {
                        "address": "0xc02aaa39b223fe8d0a0e5c4f27ead9083c756cc2",
                        "amount": "4.9",
                        "iconUrl": "https://assets.blocksec.com/icon/f1cb2d02c471d545bbc7722daf3277fd852d98e63d118771af7047bd8256c516.png",
                        "isERC1155": false,
                        "isERC721": false,
                        "sign": true,
                        "value": "17396.01675"
                    }
                ]
            },
            {
                "account": "0xc02aaa39b223fe8d0a0e5c4f27ead9083c756cc2",
                "assets": [
                    {
                        "address": "0xeeeeeeeeeeeeeeeeeeeeeeeeeeeeeeeeeeeeeeee",
                        "amount": "4.9",
                        "iconUrl": "https://assets.blocksec.com/image/1663669189317-3.png",
                        "isERC1155": false,
                        "isERC721": false,
                        "sign": true,
                        "value": "17396.01675"
                    },
                    {
                        "address": "0xc02aaa39b223fe8d0a0e5c4f27ead9083c756cc2",
                        "amount": "4.9",
                        "iconUrl": "https://assets.blocksec.com/icon/f1cb2d02c471d545bbc7722daf3277fd852d98e63d118771af7047bd8256c516.png",
                        "isERC1155": false,
                        "isERC721": false,
                        "sign": false,
                        "value": "17396.01675"
                    }
                ]
            }
        ]
    },
    "profile": {
        "basic_info": {
            "baseFee": "71.844270807",
            "blockNumber": 13239612,
            "callData": "0x414bf389000000000000000000000000c02aaa39b223fe8d0a0e5c4f27ead9083c756cc200000000000000000000000015b7c0c907e4c6b9adaaaabc300c08991d6cea050000000000000000000000000000000000000000000000000000000000002710000000000000000000000000760b3869b79e7697f16cdaacffc2aaff106f3e39000000000000000000000000000000000000000000000000000000006143d11600000000000000000000000000000000000000000000000044004c09e76a00000000000000000000000000000000000000000000000001a42f83c6c0388f88e30000000000000000000000000000000000000000000000000000000000000000",
            "debugEnable": true,
            "errorInfo": "",
            "eventCount": 4,
            "feeRecipient": "0x0708f87a089a91c65d48721aa941084648562287",
            "formatValue": "4.9",
            "gasLimit": 252559,
            "gasPrice": "73.844270807",
            "gasUsed": 186056,
            "intTxnCount": 7,
            "internalRevert": false,
            "internalRevertMessage": "",
            "isContractCreation": false,
            "isFlashloan": false,
            "maxFee": "89.275615248",
            "nonce": 150,
            "overwritedBlockNumber": -1,
            "priorityFee": "2",
            "receiver": "0xe592427a0aece92de3edee1f18e0157c05861564",
            "revertMessage": "",
            "sender": "0x760b3869b79e7697f16cdaacffc2aaff106f3e39",
            "simulationEnable": true,
            "sourceTxnHash": "0x3bd9bf5d8884a8583e947c5d7221c7a707e43cfc273a9f368bdad720398e7668",
            "status": true,
            "timestamp": "2021-09-16T23:00:42Z",
            "transactionFee": "0.013739169649267192",
            "txnHash": "0x3bd9bf5d8884a8583e947c5d7221c7a707e43cfc273a9f368bdad720398e7668",
            "txnIndex": 262,
            "type": 2,
            "value": "4900000000000000000"
        },
        "fund_flow": [
            {
                "amount": "4.9",
                "from": "0x760b3869b79e7697f16cdaacffc2aaff106f3e39",
                "id": 1,
                "isERC1155": false,
                "isERC721": false,
                "isReverted": false,
                "order": 1,
                "to": "0xe592427a0aece92de3edee1f18e0157c05861564",
                "token": "0xeeeeeeeeeeeeeeeeeeeeeeeeeeeeeeeeeeeeeeee"
            },
            {
                "amount": "7,983.587998917487189083",
                "from": "0x2dd31cc03ed996a99fbfdffa07f8f4604b1a2ec1",
                "id": 2,
                "isERC1155": false,
                "isERC721": false,
                "isReverted": false,
                "order": 2,
                "to": "0x760b3869b79e7697f16cdaacffc2aaff106f3e39",
                "token": "0x15b7c0c907e4c6b9adaaaabc300c08991d6cea05"
            },
            {
                "amount": "4.9",
                "from": "0xe592427a0aece92de3edee1f18e0157c05861564",
                "id": 3,
                "isERC1155": false,
                "isERC721": false,
                "isReverted": false,
                "order": 3,
                "to": "0xc02aaa39b223fe8d0a0e5c4f27ead9083c756cc2",
                "token": "0xeeeeeeeeeeeeeeeeeeeeeeeeeeeeeeeeeeeeeeee"
            },
            {
                "amount": "4.9",
                "from": "0xc02aaa39b223fe8d0a0e5c4f27ead9083c756cc2",
                "id": 4,
                "isERC1155": false,
                "isERC721": false,
                "isReverted": false,
                "order": 4,
                "to": "0xe592427a0aece92de3edee1f18e0157c05861564",
                "token": "0xc02aaa39b223fe8d0a0e5c4f27ead9083c756cc2"
            },
            {
                "amount": "4.9",
                "from": "0xe592427a0aece92de3edee1f18e0157c05861564",
                "id": 5,
                "isERC1155": false,
                "isERC721": false,
                "isReverted": false,
                "order": 5,
                "to": "0x2dd31cc03ed996a99fbfdffa07f8f4604b1a2ec1",
                "token": "0xc02aaa39b223fe8d0a0e5c4f27ead9083c756cc2"
            }
        ],
        "token_infos": [
            {
                "address": "0x15b7c0c907e4c6b9adaaaabc300c08991d6cea05",
                "decimals": 18
            },
            {
                "address": "0xc02aaa39b223fe8d0a0e5c4f27ead9083c756cc2",
                "decimals": 18
            },
            {
                "address": "0xeeeeeeeeeeeeeeeeeeeeeeeeeeeeeeeeeeeeeeee",
                "decimals": 18
            }
        ]
    },
    "address_label": {
        "labels": [
            {
                "address": "0x0000000000000000000000000000000000000002",
                "label": "Precompiled"
            },
            {
                "address": "0x0000000000000000000000000000000000000003",
                "label": "Precompiled"
            },
            {
                "address": "0x0000000000000000000000000000000000000004",
                "label": "Precompiled"
            },
            {
                "address": "0xeeeeeeeeeeeeeeeeeeeeeeeeeeeeeeeeeeeeeeee",
                "label": "Ether"
            },
            {
                "address": "0xc02aaa39b223fe8d0a0e5c4f27ead9083c756cc2",
                "label": "Wrapped Ether (WETH)"
            },
            {
                "address": "0x15b7c0c907e4c6b9adaaaabc300c08991d6cea05",
                "label": "Gelato: GEL Token"
            },
            {
                "address": "0x2dd31cc03ed996a99fbfdffa07f8f4604b1a2ec1",
                "label": "Uniswap V3: GEL 2"
            },
            {
                "address": "0xe592427a0aece92de3edee1f18e0157c05861564",
                "label": "Uniswap V3: Router"
            },
            {
                "address": "0x0000000000000000000000000000000000000001",
                "label": "Precompiled"
            }
        ]
    },
    "trace": {
        "accountLabels": null,
        "dataMap": {
            "-1": {
                "invocation": {
                    "address": "0x760b3869b79e7697f16cdaacffc2aaff106f3e39",
                    "callData": "",
                    "decodedMethod": null,
                    "errorInfo": "",
                    "fromAddress": "",
                    "gasUsed": 0,
                    "id": -1,
                    "methodDecoded": false,
                    "operation": "",
                    "output": "",
                    "revert": false,
                    "revertMessage": "",
                    "selector": "",
                    "status": false,
                    "value": ""
                },
                "nodeType": 0
            },
            "0": {
                "invocation": {
                    "address": "0xe592427a0aece92de3edee1f18e0157c05861564",
                    "callData": "0x000000000000000000000000c02aaa39b223fe8d0a0e5c4f27ead9083c756cc200000000000000000000000015b7c0c907e4c6b9adaaaabc300c08991d6cea050000000000000000000000000000000000000000000000000000000000002710000000000000000000000000760b3869b79e7697f16cdaacffc2aaff106f3e39000000000000000000000000000000000000000000000000000000006143d11600000000000000000000000000000000000000000000000044004c09e76a00000000000000000000000000000000000000000000000001a42f83c6c0388f88e30000000000000000000000000000000000000000000000000000000000000000",
                    "decodedMethod": {
                        "callParams": [
                            {
                                "name": "params",
                                "type": "(address,address,uint24,address,uint256,uint256,uint256,uint160)",
                                "value": [
                                    {
                                        "name": "tokenIn",
                                        "type": "address",
                                        "value": "0xc02aaa39b223fe8d0a0e5c4f27ead9083c756cc2"
                                    },
                                    {
                                        "name": "tokenOut",
                                        "type": "address",
                                        "value": "0x15b7c0c907e4c6b9adaaaabc300c08991d6cea05"
                                    },
                                    {
                                        "name": "fee",
                                        "type": "uint24",
                                        "value": "10,000"
                                    },
                                    {
                                        "name": "recipient",
                                        "type": "address",
                                        "value": "0x760b3869b79e7697f16cdaacffc2aaff106f3e39"
                                    },
                                    {
                                        "name": "deadline",
                                        "type": "uint256",
                                        "value": "1,631,834,390"
                                    },
                                    {
                                        "name": "amountIn",
                                        "type": "uint256",
                                        "value": "4,900,000,000,000,000,000"
                                    },
                                    {
                                        "name": "amountOutMinimum",
                                        "type": "uint256",
                                        "value": "7,751,056,309,628,628,338,915"
                                    },
                                    {
                                        "name": "sqrtPriceLimitX96",
                                        "type": "uint160",
                                        "value": "0"
                                    }
                                ]
                            }
                        ],
                        "constructorArguments": "",
                        "name": "exactInputSingle",
                        "returnParams": [
                            {
                                "name": "amountOut",
                                "type": "uint256",
                                "value": "7,983,587,998,917,487,189,083"
                            }
                        ],
                        "signature": "exactInputSingle((address,address,uint24,address,uint256,uint256,uint256,uint160))"
                    },
                    "errorInfo": "",
                    "fromAddress": "0x760b3869b79e7697f16cdaacffc2aaff106f3e39",
                    "gasUsed": 186056,
                    "id": 0,
                    "methodDecoded": true,
                    "operation": "CALL",
                    "output": "0x0000000000000000000000000000000000000000000001b0ca8a4a27447f5c5b",
                    "revert": false,
                    "revertMessage": "",
                    "selector": "0x414bf389",
                    "status": true,
                    "value": "4.9"
                },
                "nodeType": 0
            },
            "1": {
                "invocation": {
                    "address": "0x2dd31cc03ed996a99fbfdffa07f8f4604b1a2ec1",
                    "callData": "0x000000000000000000000000760b3869b79e7697f16cdaacffc2aaff106f3e39000000000000000000000000000000000000000000000000000000000000000000000000000000000000000000000000000000000000000044004c09e76a0000000000000000000000000000fffd8963efd1fc6a506488495d951d5263988d2500000000000000000000000000000000000000000000000000000000000000a000000000000000000000000000000000000000000000000000000000000000c000000000000000000000000000000000000000000000000000000000000000200000000000000000000000000000000000000000000000000000000000000040000000000000000000000000760b3869b79e7697f16cdaacffc2aaff106f3e39000000000000000000000000000000000000000000000000000000000000002bc02aaa39b223fe8d0a0e5c4f27ead9083c756cc200271015b7c0c907e4c6b9adaaaabc300c08991d6cea05000000000000000000000000000000000000000000",
                    "decodedMethod": {
                        "callParams": [
                            {
                                "name": "recipient",
                                "type": "address",
                                "value": "0x760b3869b79e7697f16cdaacffc2aaff106f3e39"
                            },
                            {
                                "name": "zeroForOne",
                                "type": "bool",
                                "value": false
                            },
                            {
                                "name": "amountSpecified",
                                "type": "int256",
                                "value": "4,900,000,000,000,000,000"
                            },
                            {
                                "name": "sqrtPriceLimitX96",
                                "type": "uint160",
                                "value": "1,461,446,703,485,210,103,287,273,052,203,988,822,378,723,970,341"
                            },
                            {
                                "name": "data",
                                "type": "bytes",
                                "value": "0x00000000000000000000000000000000000000000000000000000000000000200000000000000000000000000000000000000000000000000000000000000040000000000000000000000000760b3869b79e7697f16cdaacffc2aaff106f3e39000000000000000000000000000000000000000000000000000000000000002bc02aaa39b223fe8d0a0e5c4f27ead9083c756cc200271015b7c0c907e4c6b9adaaaabc300c08991d6cea05000000000000000000000000000000000000000000"
                            }
                        ],
                        "constructorArguments": "",
                        "name": "swap",
                        "returnParams": [
                            {
                                "name": "amount0",
                                "type": "int256",
                                "value": "-7,983,587,998,917,487,189,083"
                            },
                            {
                                "name": "amount1",
                                "type": "int256",
                                "value": "4,900,000,000,000,000,000"
                            }
                        ],
                        "signature": "swap(address,bool,int256,uint160,bytes)"
                    },
                    "errorInfo": "",
                    "fromAddress": "0xe592427a0aece92de3edee1f18e0157c05861564",
                    "gasUsed": 175435,
                    "id": 1,
                    "methodDecoded": true,
                    "operation": "CALL",
                    "output": "0xfffffffffffffffffffffffffffffffffffffffffffffe4f3575b5d8bb80a3a500000000000000000000000000000000000000000000000044004c09e76a0000",
                    "revert": false,
                    "revertMessage": "",
                    "selector": "0x128acb08",
                    "status": true,
                    "value": "0"
                },
                "nodeType": 0
            },
            "10": {
                "invocation": {
                    "address": "0xc02aaa39b223fe8d0a0e5c4f27ead9083c756cc2",
                    "callData": "0x0000000000000000000000002dd31cc03ed996a99fbfdffa07f8f4604b1a2ec1",
                    "decodedMethod": {
                        "callParams": [
                            {
                                "name": "",
                                "type": "address",
                                "value": "0x2dd31cc03ed996a99fbfdffa07f8f4604b1a2ec1"
                            }
                        ],
                        "constructorArguments": "",
                        "name": "balanceOf",
                        "returnParams": [
                            {
                                "decimalAvailable": true,
                                "name": "",
                                "type": "uint256",
                                "value": "67,577,135,621,122,548,607"
                            }
                        ],
                        "signature": "balanceOf(address)"
                    },
                    "errorInfo": "",
                    "fromAddress": "0x2dd31cc03ed996a99fbfdffa07f8f4604b1a2ec1",
                    "gasUsed": 534,
                    "id": 10,
                    "methodDecoded": true,
                    "operation": "STATICCALL",
                    "output": "0x000000000000000000000000000000000000000000000003a9d236cef367e37f",
                    "revert": false,
                    "revertMessage": "",
                    "selector": "0x70a08231",
                    "status": true,
                    "value": "0"
                },
                "nodeType": 0
            },
            "11": {
                "event": {
                    "contract": "0x2dd31cc03ed996a99fbfdffa07f8f4604b1a2ec1",
                    "decodedLog": {
                        "name": "Swap",
                        "params": [
                            {
                                "name": "sender",
                                "type": "address",
                                "value": "0xe592427a0aece92de3edee1f18e0157c05861564"
                            },
                            {
                                "name": "recipient",
                                "type": "address",
                                "value": "0x760b3869b79e7697f16cdaacffc2aaff106f3e39"
                            },
                            {
                                "name": "amount0",
                                "type": "int256",
                                "value": "-7,983,587,998,917,487,189,083"
                            },
                            {
                                "name": "amount1",
                                "type": "int256",
                                "value": "4,900,000,000,000,000,000"
                            },
                            {
                                "name": "sqrtPriceX96",
                                "type": "uint160",
                                "value": "1,965,114,671,902,414,817,646,114,994"
                            },
                            {
                                "name": "liquidity",
                                "type": "uint128",
                                "value": "18,362,949,269,751,798,559,473"
                            },
                            {
                                "name": "tick",
                                "type": "int24",
                                "value": "-73,940"
                            }
                        ],
                        "signature": "Swap(address,address,int256,int256,uint160,uint128,int24)"
                    },
                    "id": 11,
                    "logData": "0xfffffffffffffffffffffffffffffffffffffffffffffe4f3575b5d8bb80a3a500000000000000000000000000000000000000000000000044004c09e76a0000000000000000000000000000000000000000000006598137d2af447c853478b20000000000000000000000000000000000000000000003e3751d0dc3aaa1f2f1fffffffffffffffffffffffffffffffffffffffffffffffffffffffffffedf2c",
                    "logDecoded": true,
                    "operation": "EVENT",
                    "revert": false,
                    "status": true,
                    "topics": [
                        "0xc42079f94a6350d7e6235f29174924f928cc2ac818eb64fed8004e115fbcca67",
                        "0x000000000000000000000000e592427a0aece92de3edee1f18e0157c05861564",
                        "0x000000000000000000000000760b3869b79e7697f16cdaacffc2aaff106f3e39"
                    ]
                },
                "nodeType": 1
            },
            "2": {
                "invocation": {
                    "address": "0x15b7c0c907e4c6b9adaaaabc300c08991d6cea05",
                    "callData": "0x000000000000000000000000760b3869b79e7697f16cdaacffc2aaff106f3e390000000000000000000000000000000000000000000001b0ca8a4a27447f5c5b",
                    "decodedMethod": {
                        "callParams": [
                            {
                                "name": "dst",
                                "type": "address",
                                "value": "0x760b3869b79e7697f16cdaacffc2aaff106f3e39"
                            },
                            {
                                "decimalAvailable": true,
                                "name": "rawAmount",
                                "type": "uint256",
                                "value": "7,983,587,998,917,487,189,083"
                            }
                        ],
                        "constructorArguments": "",
                        "name": "transfer",
                        "returnParams": [
                            {
                                "name": "",
                                "type": "bool",
                                "value": true
                            }
                        ],
                        "signature": "transfer(address,uint256)"
                    },
                    "errorInfo": "",
                    "fromAddress": "0x2dd31cc03ed996a99fbfdffa07f8f4604b1a2ec1",
                    "gasUsed": 35496,
                    "id": 2,
                    "methodDecoded": true,
                    "operation": "CALL",
                    "output": "0x0000000000000000000000000000000000000000000000000000000000000001",
                    "revert": false,
                    "revertMessage": "",
                    "selector": "0xa9059cbb",
                    "status": true,
                    "value": "0"
                },
                "nodeType": 0
            },
            "3": {
                "event": {
                    "contract": "0x15b7c0c907e4c6b9adaaaabc300c08991d6cea05",
                    "decodedLog": {
                        "name": "Transfer",
                        "params": [
                            {
                                "name": "from",
                                "type": "address",
                                "value": "0x2dd31cc03ed996a99fbfdffa07f8f4604b1a2ec1"
                            },
                            {
                                "name": "to",
                                "type": "address",
                                "value": "0x760b3869b79e7697f16cdaacffc2aaff106f3e39"
                            },
                            {
                                "decimalAvailable": true,
                                "name": "amount",
                                "type": "uint256",
                                "value": "7,983,587,998,917,487,189,083"
                            }
                        ],
                        "signature": "Transfer(address,address,uint256)"
                    },
                    "id": 3,
                    "logData": "0x0000000000000000000000000000000000000000000001b0ca8a4a27447f5c5b",
                    "logDecoded": true,
                    "operation": "EVENT",
                    "revert": false,
                    "status": true,
                    "topics": [
                        "0xddf252ad1be2c89b69c2b068fc378daa952ba7f163c4a11628f55a4df523b3ef",
                        "0x0000000000000000000000002dd31cc03ed996a99fbfdffa07f8f4604b1a2ec1",
                        "0x000000000000000000000000760b3869b79e7697f16cdaacffc2aaff106f3e39"
                    ]
                },
                "nodeType": 1
            },
            "4": {
                "invocation": {
                    "address": "0xc02aaa39b223fe8d0a0e5c4f27ead9083c756cc2",
                    "callData": "0x0000000000000000000000002dd31cc03ed996a99fbfdffa07f8f4604b1a2ec1",
                    "decodedMethod": {
                        "callParams": [
                            {
                                "name": "",
                                "type": "address",
                                "value": "0x2dd31cc03ed996a99fbfdffa07f8f4604b1a2ec1"
                            }
                        ],
                        "constructorArguments": "",
                        "name": "balanceOf",
                        "returnParams": [
                            {
                                "decimalAvailable": true,
                                "name": "",
                                "type": "uint256",
                                "value": "62,677,135,621,122,548,607"
                            }
                        ],
                        "signature": "balanceOf(address)"
                    },
                    "errorInfo": "",
                    "fromAddress": "0x2dd31cc03ed996a99fbfdffa07f8f4604b1a2ec1",
                    "gasUsed": 2534,
                    "id": 4,
                    "methodDecoded": true,
                    "operation": "STATICCALL",
                    "output": "0x00000000000000000000000000000000000000000000000365d1eac50bfde37f",
                    "revert": false,
                    "revertMessage": "",
                    "selector": "0x70a08231",
                    "status": true,
                    "value": "0"
                },
                "nodeType": 0
            },
            "5": {
                "invocation": {
                    "address": "0xe592427a0aece92de3edee1f18e0157c05861564",
                    "callData": "0xfffffffffffffffffffffffffffffffffffffffffffffe4f3575b5d8bb80a3a500000000000000000000000000000000000000000000000044004c09e76a0000000000000000000000000000000000000000000000000000000000000000006000000000000000000000000000000000000000000000000000000000000000c000000000000000000000000000000000000000000000000000000000000000200000000000000000000000000000000000000000000000000000000000000040000000000000000000000000760b3869b79e7697f16cdaacffc2aaff106f3e39000000000000000000000000000000000000000000000000000000000000002bc02aaa39b223fe8d0a0e5c4f27ead9083c756cc200271015b7c0c907e4c6b9adaaaabc300c08991d6cea05000000000000000000000000000000000000000000",
                    "decodedMethod": {
                        "callParams": [
                            {
                                "name": "amount0Delta",
                                "type": "int256",
                                "value": "-7,983,587,998,917,487,189,083"
                            },
                            {
                                "name": "amount1Delta",
                                "type": "int256",
                                "value": "4,900,000,000,000,000,000"
                            },
                            {
                                "name": "_data",
                                "type": "bytes",
                                "value": "0x00000000000000000000000000000000000000000000000000000000000000200000000000000000000000000000000000000000000000000000000000000040000000000000000000000000760b3869b79e7697f16cdaacffc2aaff106f3e39000000000000000000000000000000000000000000000000000000000000002bc02aaa39b223fe8d0a0e5c4f27ead9083c756cc200271015b7c0c907e4c6b9adaaaabc300c08991d6cea05000000000000000000000000000000000000000000"
                            }
                        ],
                        "constructorArguments": "",
                        "name": "uniswapV3SwapCallback",
                        "returnParams": [],
                        "signature": "uniswapV3SwapCallback(int256,int256,bytes)"
                    },
                    "errorInfo": "",
                    "fromAddress": "0x2dd31cc03ed996a99fbfdffa07f8f4604b1a2ec1",
                    "gasUsed": 40523,
                    "id": 5,
                    "methodDecoded": true,
                    "operation": "CALL",
                    "output": "",
                    "revert": false,
                    "revertMessage": "",
                    "selector": "0xfa461e33",
                    "status": true,
                    "value": "0"
                },
                "nodeType": 0
            },
            "6": {
                "invocation": {
                    "address": "0xc02aaa39b223fe8d0a0e5c4f27ead9083c756cc2",
                    "callData": "0x",
                    "decodedMethod": {
                        "callParams": [],
                        "constructorArguments": "",
                        "name": "deposit",
                        "returnParams": [],
                        "signature": "deposit()"
                    },
                    "errorInfo": "",
                    "fromAddress": "0xe592427a0aece92de3edee1f18e0157c05861564",
                    "gasUsed": 23974,
                    "id": 6,
                    "methodDecoded": true,
                    "operation": "CALL",
                    "output": "",
                    "revert": false,
                    "revertMessage": "",
                    "selector": "0xd0e30db0",
                    "status": true,
                    "value": "4.9"
                },
                "nodeType": 0
            },
            "7": {
                "event": {
                    "contract": "0xc02aaa39b223fe8d0a0e5c4f27ead9083c756cc2",
                    "decodedLog": {
                        "name": "Deposit",
                        "params": [
                            {
                                "name": "dst",
                                "type": "address",
                                "value": "0xe592427a0aece92de3edee1f18e0157c05861564"
                            },
                            {
                                "name": "wad",
                                "type": "uint256",
                                "value": "4,900,000,000,000,000,000"
                            }
                        ],
                        "signature": "Deposit(address,uint256)"
                    },
                    "id": 7,
                    "logData": "0x00000000000000000000000000000000000000000000000044004c09e76a0000",
                    "logDecoded": true,
                    "operation": "EVENT",
                    "revert": false,
                    "status": true,
                    "topics": [
                        "0xe1fffcc4923d04b559f4d29a8bfc6cda04eb5b0d3c460751c2402c5c5cc9109c",
                        "0x000000000000000000000000e592427a0aece92de3edee1f18e0157c05861564"
                    ]
                },
                "nodeType": 1
            },
            "8": {
                "invocation": {
                    "address": "0xc02aaa39b223fe8d0a0e5c4f27ead9083c756cc2",
                    "callData": "0x0000000000000000000000002dd31cc03ed996a99fbfdffa07f8f4604b1a2ec100000000000000000000000000000000000000000000000044004c09e76a0000",
                    "decodedMethod": {
                        "callParams": [
                            {
                                "name": "dst",
                                "type": "address",
                                "value": "0x2dd31cc03ed996a99fbfdffa07f8f4604b1a2ec1"
                            },
                            {
                                "decimalAvailable": true,
                                "name": "wad",
                                "type": "uint256",
                                "value": "4,900,000,000,000,000,000"
                            }
                        ],
                        "constructorArguments": "",
                        "name": "transfer",
                        "returnParams": [
                            {
                                "name": "",
                                "type": "bool",
                                "value": true
                            }
                        ],
                        "signature": "transfer(address,uint256)"
                    },
                    "errorInfo": "",
                    "fromAddress": "0xe592427a0aece92de3edee1f18e0157c05861564",
                    "gasUsed": 6062,
                    "id": 8,
                    "methodDecoded": true,
                    "operation": "CALL",
                    "output": "0x0000000000000000000000000000000000000000000000000000000000000001",
                    "revert": false,
                    "revertMessage": "",
                    "selector": "0xa9059cbb",
                    "status": true,
                    "value": "0"
                },
                "nodeType": 0
            },
            "9": {
                "event": {
                    "contract": "0xc02aaa39b223fe8d0a0e5c4f27ead9083c756cc2",
                    "decodedLog": {
                        "name": "Transfer",
                        "params": [
                            {
                                "name": "src",
                                "type": "address",
                                "value": "0xe592427a0aece92de3edee1f18e0157c05861564"
                            },
                            {
                                "name": "dst",
                                "type": "address",
                                "value": "0x2dd31cc03ed996a99fbfdffa07f8f4604b1a2ec1"
                            },
                            {
                                "decimalAvailable": true,
                                "name": "wad",
                                "type": "uint256",
                                "value": "4,900,000,000,000,000,000"
                            }
                        ],
                        "signature": "Transfer(address,address,uint256)"
                    },
                    "id": 9,
                    "logData": "0x00000000000000000000000000000000000000000000000044004c09e76a0000",
                    "logDecoded": true,
                    "operation": "EVENT",
                    "revert": false,
                    "status": true,
                    "topics": [
                        "0xddf252ad1be2c89b69c2b068fc378daa952ba7f163c4a11628f55a4df523b3ef",
                        "0x000000000000000000000000e592427a0aece92de3edee1f18e0157c05861564",
                        "0x0000000000000000000000002dd31cc03ed996a99fbfdffa07f8f4604b1a2ec1"
                    ]
                },
                "nodeType": 1
            }
        },
        "gasFlame": [
            {
                "children": [
                    {
                        "children": [
                            {
                                "children": [],
                                "depth": 0,
                                "name": "Initial Gas",
                                "value": 23060
                            },
                            {
                                "children": [
                                    {
                                        "children": [
                                            {
                                                "children": [],
                                                "depth": 2,
                                                "name": "transfer",
                                                "value": 35496
                                            },
                                            {
                                                "children": [],
                                                "depth": 2,
                                                "name": "balanceOf",
                                                "value": 2534
                                            },
                                            {
                                                "children": [
                                                    {
                                                        "children": [],
                                                        "depth": 3,
                                                        "name": "deposit",
                                                        "value": 23974
                                                    },
                                                    {
                                                        "children": [],
                                                        "depth": 3,
                                                        "name": "transfer",
                                                        "value": 6062
                                                    }
                                                ],
                                                "depth": 2,
                                                "name": "uniswapV3SwapCallback",
                                                "value": 40523
                                            },
                                            {
                                                "children": [],
                                                "depth": 2,
                                                "name": "balanceOf",
                                                "value": 534
                                            }
                                        ],
                                        "depth": 1,
                                        "name": "swap",
                                        "value": 175435
                                    }
                                ],
                                "depth": 0,
                                "name": "Executed Gas",
                                "value": 182896
                            }
                        ],
                        "depth": -1,
                        "name": "Actual Gas Used",
                        "value": 186056
                    },
                    {
                        "children": [],
                        "depth": -1,
                        "name": "Refunded Gas",
                        "value": 19900
                    }
                ],
                "depth": -2,
                "name": "Total Gas",
                "value": 205956
            }
        ],
        "isConfirmed": true,
        "mainTrace": [
            {
                "children": [
                    {
                        "children": [
                            {
                                "children": [
                                    {
                                        "children": [
                                            {
                                                "children": [],
                                                "depth": 3,
                                                "id": 3,
                                                "order": 3
                                            }
                                        ],
                                        "depth": 2,
                                        "id": 2,
                                        "order": 2
                                    },
                                    {
                                        "children": [],
                                        "depth": 2,
                                        "id": 4,
                                        "order": 4
                                    },
                                    {
                                        "children": [
                                            {
                                                "children": [
                                                    {
                                                        "children": [],
                                                        "depth": 4,
                                                        "id": 7,
                                                        "order": 7
                                                    }
                                                ],
                                                "depth": 3,
                                                "id": 6,
                                                "order": 6
                                            },
                                            {
                                                "children": [
                                                    {
                                                        "children": [],
                                                        "depth": 4,
                                                        "id": 9,
                                                        "order": 9
                                                    }
                                                ],
                                                "depth": 3,
                                                "id": 8,
                                                "order": 8
                                            }
                                        ],
                                        "depth": 2,
                                        "id": 5,
                                        "order": 5
                                    },
                                    {
                                        "children": [],
                                        "depth": 2,
                                        "id": 10,
                                        "order": 10
                                    },
                                    {
                                        "children": [],
                                        "depth": 2,
                                        "id": 11,
                                        "order": 11
                                    }
                                ],
                                "depth": 1,
                                "id": 1,
                                "order": 1
                            }
                        ],
                        "depth": 0,
                        "id": 0,
                        "order": 0
                    }
                ],
                "depth": -1,
                "id": -1,
                "order": -1
            }
        ],
        "mainTraceNodeCount": 12,
        "parentIdMap": {
            "0": -1,
            "1": 0,
            "10": 1,
            "11": 1,
            "2": 1,
            "3": 2,
            "4": 1,
            "5": 1,
            "6": 5,
            "7": 6,
            "8": 5,
            "9": 8
        },
        "tidyTrace": [
            {
                "children": [
                    {
                        "children": [
                            {
                                "children": [
                                    {
                                        "children": [
                                            {
                                                "children": [],
                                                "depth": 3,
                                                "id": 3,
                                                "order": 3
                                            }
                                        ],
                                        "depth": 2,
                                        "id": 2,
                                        "order": 2
                                    },
                                    {
                                        "children": [
                                            {
                                                "children": [
                                                    {
                                                        "children": [],
                                                        "depth": 4,
                                                        "id": 7,
                                                        "order": 7
                                                    }
                                                ],
                                                "depth": 3,
                                                "id": 6,
                                                "order": 6
                                            },
                                            {
                                                "children": [
                                                    {
                                                        "children": [],
                                                        "depth": 4,
                                                        "id": 9,
                                                        "order": 9
                                                    }
                                                ],
                                                "depth": 3,
                                                "id": 8,
                                                "order": 8
                                            }
                                        ],
                                        "depth": 2,
                                        "id": 5,
                                        "order": 5
                                    },
                                    {
                                        "children": [],
                                        "depth": 2,
                                        "id": 11,
                                        "order": 11
                                    }
                                ],
                                "depth": 1,
                                "id": 1,
                                "order": 1
                            }
                        ],
                        "depth": 0,
                        "id": 0,
                        "order": 0
                    }
                ],
                "depth": -1,
                "id": -1,
                "order": -1
            }
        ],
        "tidyTraceNodeCount": 10
    },
    "state_change": {
        "stateChanges": [
            {
                "address": "0x15b7c0c907e4c6b9adaaaabc300c08991d6cea05",
                "erc": "ERC-20",
                "slots": [
                    {
                        "current": "0x0000000000000000000000000000000000000000000001b0ca8a4a27447f5c5b",
                        "key": "0x94d54726c375c6f3f74049cf278b6589edf3b98d55bfd2e9beb289405349a4f7",
                        "prev": "0x0000000000000000000000000000000000000000000000000000000000000000"
                    },
                    {
                        "current": "0x0000000000000000000000000000000000000000000018ffbb816fb78b450112",
                        "key": "0xecaea8de758195364eb55c33a6c2570df889353209731dc32b92ac77df78c3a4",
                        "prev": "0x000000000000000000000000000000000000000000001ab0860bb9decfc45d6d"
                    }
                ],
                "storageVariables": [
                    {
                        "name": "balances",
                        "type": "mapping(address => uint96)",
                        "value": {
                            "pairs": [
                                {
                                    "key": "0x2dd31cc03ed996a99fbfdffa07f8f4604b1a2ec1",
                                    "value": {
                                        "current": "118054226530858615243026",
                                        "prev": "126037814529776102432109",
                                        "typeTag": 1
                                    }
                                },
                                {
                                    "key": "0x760b3869b79e7697f16cdaacffc2aaff106f3e39",
                                    "value": {
                                        "current": "7983587998917487189083",
                                        "prev": "0",
                                        "typeTag": 1
                                    }
                                }
                            ],
                            "typeTag": 4
                        }
                    }
                ]
            },
            {
                "address": "0x2dd31cc03ed996a99fbfdffa07f8f4604b1a2ec1",
                "erc": "",
                "slots": [
                    {
                        "current": "0x0000000000000000000000000000000eaefe1b4b32947392dd9610bd33a07934",
                        "key": "0xfe185420e9eb5e9e4ccaa8abc895d8c365db3edc19cd31dbb19aff54095bf197",
                        "prev": "0x0000000000000000000000000000000043364734b044cf2d78b19c39fe032c99"
                    },
                    {
                        "current": "0x016142e914000031cc0000000000000240c3aa83ba29d6500efffffbe8c7f409",
                        "key": "0xfe185420e9eb5e9e4ccaa8abc895d8c365db3edc19cd31dbb19aff54095bf199",
                        "prev": "0x010000e3860000000000000000000000568efbb53b2f99149cfffffefffb050f"
                    },
                    {
                        "current": "0x016142daac000031cc00000000000002210bf0f907e07bf86afffffbf86a5d1a",
                        "key": "0x8d62f5035fc02667347e57ee02f0f66a464162815e1f8b245dd07fd1082d355d",
                        "prev": "0x010000f1ee00000000000000000000007646b53fed78f36c40fffffef0589bfe"
                    },
                    {
                        "current": "0x0000000000000000000000000000000000000000000003e3751d0dc3aaa1f2f1",
                        "key": "0x0000000000000000000000000000000000000000000000000000000000000004",
                        "prev": "0x0000000000000000000000000000000000000000000002efdb2434aa233c953f"
                    },
                    {
                        "current": "0x0000000000000000000000000000000001ef6960b158d46cd139e5e4d4c3bf4b",
                        "key": "0xfe185420e9eb5e9e4ccaa8abc895d8c365db3edc19cd31dbb19aff54095bf198",
                        "prev": "0x00000000000000000000000000000000000aa332050e55ee0a472db3b0867090"
                    },
                    {
                        "current": "0x0000000000000000000000000000000e1b3d73c1b77c68ba953222bf2bb4fbd7",
                        "key": "0x8d62f5035fc02667347e57ee02f0f66a464162815e1f8b245dd07fd1082d355b",
                        "prev": "0x00000000000000000000000000000000d6f6eebe2b5cda05c1158a3805eea9f6"
                    },
                    {
                        "current": "0x0000000000000000000000000000000001d501addb8d4d46f891688856fe1d52",
                        "key": "0x8d62f5035fc02667347e57ee02f0f66a464162815e1f8b245dd07fd1082d355c",
                        "prev": "0x0000000000000000000000000000000000253496c7b2c8ab01c974fb823fe009"
                    },
                    {
                        "current": "0x01000031cc000000000000029752a638f5596f64aafffffae8c2f9186143cc9a",
                        "key": "0x0000000000000000000000000000000000000000000000000000000000000008",
                        "prev": "0x01000031cc0000000000000294a8a579c1de2718b0fffffaf19ecdf36143c4c7"
                    },
                    {
                        "current": "0x0000000000000000000000000000000001fa43003469c2eab5413f82e4a15775",
                        "key": "0x0000000000000000000000000000000000000000000000000000000000000002",
                        "prev": "0x0000000000000000000000000000000001fa0c7723690a1aa889729c36e6fe23"
                    },
                    {
                        "current": "0x000100000100010000fedf2c000000000000000006598137d2af447c853478b2",
                        "key": "0x0000000000000000000000000000000000000000000000000000000000000000",
                        "prev": "0x000100000100010000fede27000000000000000006446a363f67cc07b9cf7b76"
                    }
                ],
                "storageVariables": []
            },
            {
                "address": "0xc02aaa39b223fe8d0a0e5c4f27ead9083c756cc2",
                "erc": "ERC-20",
                "slots": [
                    {
                        "current": "0x000000000000000000000000000000000000000000000003a9d236cef367e37f",
                        "key": "0xd239553c9c704403db6cbf22a6144b63d15f9b7198fa83a51235d1b018ca368e",
                        "prev": "0x00000000000000000000000000000000000000000000000365d1eac50bfde37f"
                    }
                ],
                "storageVariables": [
                    {
                        "name": "balanceOf",
                        "type": "mapping(address => uint256)",
                        "value": {
                            "pairs": [
                                {
                                    "key": "0x2dd31cc03ed996a99fbfdffa07f8f4604b1a2ec1",
                                    "value": {
                                        "current": "67577135621122548607",
                                        "prev": "62677135621122548607",
                                        "typeTag": 1
                                    }
                                }
                            ],
                            "typeTag": 4
                        }
                    }
                ]
            }
        ]
    }
}