{
    "balance_change": {
        "balanceChanges": [
            {
                "account": "0x68663fb06b6e718e7026aa1c2ddbc4e97ccd6c5c",
                "assets": [
                    {
                        "address": "0x5af0d9827e0c53e4799bb226655a1de152a425a5",
                        "amount": "1",
                        "iconUrl": "https://assets.blocksec.com/nft/icon/nft_3ca2bbe3-360e-4cb3-8155-088f4ced9b2b.png",
                        "isERC1155": false,
                        "isERC721": true,
                        "sign": false,
                        "tokenID": "5203",
                        "value": ""
                    }
                ]
            },
            {
                "account": "0x29469395eaf6f95920e59f858042f0e28d98a20b",
                "assets": [
                    {
                        "address": "0x5af0d9827e0c53e4799bb226655a1de152a425a5",
                        "amount": "1",
                        "iconUrl": "https://assets.blocksec.com/nft/icon/nft_3ca2bbe3-360e-4cb3-8155-088f4ced9b2b.png",
                        "isERC1155": false,
                        "isERC721": true,
                        "sign": true,
                        "tokenID": "5203",
                        "value": ""
                    }
                ]
            }
        ]
    },
    "profile": {
        "basic_info": {
            "baseFee": "13.621750814",
            "blockNumber": 17853395,
            "callData": "0xe263967e00000000000000000000000068663fb06b6e718e7026aa1c2ddbc4e97ccd6c5c0000000000000000000000005af0d9827e0c53e4799bb226655a1de152a425a5000000000000000000000000000000000000000000000000283edea298a200000000000000000000000000000000000000000000000000000000000000000000000000000000000000000000000000000000000000000000283edea298a20000000000000000000000000000000000000000000000000000000000000000232800000000000000000000000000000000cae3cc80a8a400664e17cdb9425a4f920000000000000000000000000000000000000000000000000000000064f699da0000000000000000000000000000000000000000000000000000000000000000000000000000000000000000473ca1d29a136b935a96380ea342f296b4eea82c00000000000000000000000000000000000000000000000000000000000001a000000000000000000000000000000000000000000000000024c6b0f5aec90000000000000000000000000000000000000000000000000000000000000000145300000000000000000000000000000000000000000000000000000000000000a245d552a9536cae857961f270654244853c78bd6449c1d7a41a57088bfdadf5f60c84cc4b7e121f69d52177bc49c32014ae0b37da6888b5eb51a603d7a72f54121cdeec8512a7cfe35a87742752e2200ebeae82a4ae7c6e5100beb797fc66b8d42f23d9dd8e155a1b6798f8a946964bd6774ae3c2bd1cc485fadb8da192778e03ac1b0000000000000000000000000000000000000000000000000000000001106bce000000000000000000000000000000000000000000000000000000000000",
            "debugEnable": true,
            "errorInfo": "",
            "eventCount": 4,
            "feeRecipient": "0xdafea492d9c6733ae3d56b7ed1adb60692c98bc5",
            "formatValue": "0",
            "gasLimit": 220271,
            "gasPrice": "13.721750814",
            "gasUsed": 199891,
            "intTxnCount": 8,
            "internalRevert": false,
            "internalRevertMessage": "",
            "isContractCreation": false,
            "isFlashloan": false,
            "maxFee": "15.901298184",
            "nonce": 2565,
            "overwritedBlockNumber": -1,
            "priorityFee": "0.1",
            "receiver": "0x29469395eaf6f95920e59f858042f0e28d98a20b",
            "revertMessage": "",
            "sender": "0x68663fb06b6e718e7026aa1c2ddbc4e97ccd6c5c",
            "simulationEnable": true,
            "sourceTxnHash": "0x3b3fe1c224f7695f64630a5187a8baec996483bb6f27afd7699c7d676bf87248",
            "status": true,
            "timestamp": "2023-08-06T04:00:23Z",
            "transactionFee": "0.002742854491961274",
            "txnHash": "0x3b3fe1c224f7695f64630a5187a8baec996483bb6f27afd7699c7d676bf87248",
            "txnIndex": 80,
            "type": 2,
            "value": "0"
        },
        "fund_flow": [
            {
                "amount": "1",
                "from": "0x68663fb06b6e718e7026aa1c2ddbc4e97ccd6c5c",
                "id": 1,
                "isERC1155": false,
                "isERC721": true,
                "isReverted": false,
                "order": 1,
                "to": "0x29469395eaf6f95920e59f858042f0e28d98a20b",
                "token": "0x5af0d9827e0c53e4799bb226655a1de152a425a5",
                "tokenID": "5203"
            },
            {
                "amount": "2.65",
                "from": "0x68663fb06b6e718e7026aa1c2ddbc4e97ccd6c5c",
                "id": 2,
                "isERC1155": false,
                "isERC721": false,
                "isReverted": false,
                "order": 2,
                "to": "0x68663fb06b6e718e7026aa1c2ddbc4e97ccd6c5c",
                "token": "0x0000000000a39bb272e79075ade125fd351887ac"
            }
        ],
        "token_infos": [
            {
                "address": "0x0000000000a39bb272e79075ade125fd351887ac",
                "decimals": 18
            },
            {
                "address": "0xc02aaa39b223fe8d0a0e5c4f27ead9083c756cc2",
                "decimals": 18
            },
            {
                "address": "0xeeeeeeeeeeeeeeeeeeeeeeeeeeeeeeeeeeeeeeee",
                "decimals": 18
            }
        ]
    },
    "address_label": {
        "labels": [
            {
                "address": "0x5af0d9827e0c53e4799bb226655a1de152a425a5",
                "label": "Milady Maker: MIL Token"
            },
            {
                "address": "0x0000000000a39bb272e79075ade125fd351887ac",
                "label": "Blur: Bidding"
            },
            {
                "address": "0x0000000000000000000000000000000000000001",
                "label": "Precompiled"
            },
            {
                "address": "0x0000000000000000000000000000000000000002",
                "label": "Precompiled"
            },
            {
                "address": "0x0000000000000000000000000000000000000003",
                "label": "Precompiled"
            },
            {
                "address": "0x0000000000000000000000000000000000000004",
                "label": "Precompiled"
            },
            {
                "address": "0xeeeeeeeeeeeeeeeeeeeeeeeeeeeeeeeeeeeeeeee",
                "label": "Ether"
            },
            {
                "address": "0x29469395eaf6f95920e59f858042f0e28d98a20b",
                "label": "Blur: Blend"
            },
            {
                "address": "0x01a656024de4b89e2d0198bf4d468e8fd2358b17",
                "label": "Blur Pool"
            },
            {
                "address": "0xb258ca5559b11cd702f363796522b04d7722ea56",
                "label": "Blend"
            }
        ]
    },
    "trace": {
        "accountLabels": null,
        "dataMap": {
            "-1": {
                "invocation": {
                    "address": "0x68663fb06b6e718e7026aa1c2ddbc4e97ccd6c5c",
                    "callData": "",
                    "decodedMethod": null,
                    "errorInfo": "",
                    "fromAddress": "",
                    "gasUsed": 0,
                    "id": -1,
                    "methodDecoded": false,
                    "operation": "",
                    "output": "",
                    "revert": false,
                    "revertMessage": "",
                    "selector": "",
                    "status": false,
                    "value": ""
                },
                "nodeType": 0
            },
            "0": {
                "invocation": {
                    "address": "0x29469395eaf6f95920e59f858042f0e28d98a20b",
                    "callData": "0x00000000000000000000000068663fb06b6e718e7026aa1c2ddbc4e97ccd6c5c0000000000000000000000005af0d9827e0c53e4799bb226655a1de152a425a5000000000000000000000000000000000000000000000000283edea298a200000000000000000000000000000000000000000000000000000000000000000000000000000000000000000000000000000000000000000000283edea298a20000000000000000000000000000000000000000000000000000000000000000232800000000000000000000000000000000cae3cc80a8a400664e17cdb9425a4f920000000000000000000000000000000000000000000000000000000064f699da0000000000000000000000000000000000000000000000000000000000000000000000000000000000000000473ca1d29a136b935a96380ea342f296b4eea82c00000000000000000000000000000000000000000000000000000000000001a000000000000000000000000000000000000000000000000024c6b0f5aec90000000000000000000000000000000000000000000000000000000000000000145300000000000000000000000000000000000000000000000000000000000000a245d552a9536cae857961f270654244853c78bd6449c1d7a41a57088bfdadf5f60c84cc4b7e121f69d52177bc49c32014ae0b37da6888b5eb51a603d7a72f54121cdeec8512a7cfe35a87742752e2200ebeae82a4ae7c6e5100beb797fc66b8d42f23d9dd8e155a1b6798f8a946964bd6774ae3c2bd1cc485fadb8da192778e03ac1b0000000000000000000000000000000000000000000000000000000001106bce000000000000000000000000000000000000000000000000000000000000",
                    "decodedMethod": {
                        "callParams": [
                            {
                                "name": "offer",
                                "type": "(address,address,uint256,uint256,uint256,uint256,uint256,uint256,uint256,address)",
                                "value": [
                                    {
                                        "name": "lender",
                                        "type": "address",
                                        "value": "0x68663fb06b6e718e7026aa1c2ddbc4e97ccd6c5c"
                                    },
                                    {
                                        "name": "collection",
                                        "type": "address",
                                        "value": "0x5af0d9827e0c53e4799bb226655a1de152a425a5"
                                    },
                                    {
                                        "name": "totalAmount",
                                        "type": "uint256",
                                        "value": "2,900,000,000,000,000,000"
                                    },
                                    {
                                        "name": "minAmount",
                                        "type": "uint256",
                                        "value": "0"
                                    },
                                    {
                                        "name": "maxAmount",
                                        "type": "uint256",
                                        "value": "2,900,000,000,000,000,000"
                                    },
                                    {
                                        "name": "auctionDuration",
                                        "type": "uint256",
                                        "value": "9,000"
                                    },
                                    {
                                        "name": "salt",
                                        "type": "uint256",
                                        "value": "269,686,854,340,396,106,336,445,004,760,028,434,322"
                                    },
                                    {
                                        "name": "expirationTime",
                                        "type": "uint256",
                                        "value": "1,693,882,842"
                                    },
                                    {
                                        "name": "rate",
                                        "type": "uint256",
                                        "value": "0"
                                    },
                                    {
                                        "name": "oracle",
                                        "type": "address",
                                        "value": "0x473ca1d29a136b935a96380ea342f296b4eea82c"
                                    }
                                ]
                            },
                            {
                                "name": "signature",
                                "type": "bytes",
                                "value": "0x45d552a9536cae857961f270654244853c78bd6449c1d7a41a57088bfdadf5f60c84cc4b7e121f69d52177bc49c32014ae0b37da6888b5eb51a603d7a72f54121cdeec8512a7cfe35a87742752e2200ebeae82a4ae7c6e5100beb797fc66b8d42f23d9dd8e155a1b6798f8a946964bd6774ae3c2bd1cc485fadb8da192778e03ac1b0000000000000000000000000000000000000000000000000000000001106bce"
                            },
                            {
                                "name": "loanAmount",
                                "type": "uint256",
                                "value": "2,650,000,000,000,000,000"
                            },
                            {
                                "name": "collateralTokenId",
                                "type": "uint256",
                                "value": "5,203"
                            }
                        ],
                        "constructorArguments": "",
                        "name": "borrow",
                        "returnParams": [
                            {
                                "name": "lienId",
                                "type": "uint256",
                                "value": "64,885"
                            }
                        ],
                        "signature": "borrow((address,address,uint256,uint256,uint256,uint256,uint256,uint256,uint256,address),bytes,uint256,uint256)"
                    },
                    "errorInfo": "",
                    "fromAddress": "0x68663fb06b6e718e7026aa1c2ddbc4e97ccd6c5c",
                    "gasUsed": 199891,
                    "id": 0,
                    "methodDecoded": true,
                    "operation": "CALL",
                    "output": "0x000000000000000000000000000000000000000000000000000000000000fd75",
                    "revert": false,
                    "revertMessage": "",
                    "selector": "0xe263967e",
                    "status": true,
                    "value": "0"
                },
                "nodeType": 0
            },
            "1": {
                "invocation": {
                    "address": "0xb258ca5559b11cd702f363796522b04d7722ea56",
                    "callData": "0x00000000000000000000000068663fb06b6e718e7026aa1c2ddbc4e97ccd6c5c0000000000000000000000005af0d9827e0c53e4799bb226655a1de152a425a5000000000000000000000000000000000000000000000000283edea298a200000000000000000000000000000000000000000000000000000000000000000000000000000000000000000000000000000000000000000000283edea298a20000000000000000000000000000000000000000000000000000000000000000232800000000000000000000000000000000cae3cc80a8a400664e17cdb9425a4f920000000000000000000000000000000000000000000000000000000064f699da0000000000000000000000000000000000000000000000000000000000000000000000000000000000000000473ca1d29a136b935a96380ea342f296b4eea82c00000000000000000000000000000000000000000000000000000000000001a000000000000000000000000000000000000000000000000024c6b0f5aec90000000000000000000000000000000000000000000000000000000000000000145300000000000000000000000000000000000000000000000000000000000000a245d552a9536cae857961f270654244853c78bd6449c1d7a41a57088bfdadf5f60c84cc4b7e121f69d52177bc49c32014ae0b37da6888b5eb51a603d7a72f54121cdeec8512a7cfe35a87742752e2200ebeae82a4ae7c6e5100beb797fc66b8d42f23d9dd8e155a1b6798f8a946964bd6774ae3c2bd1cc485fadb8da192778e03ac1b0000000000000000000000000000000000000000000000000000000001106bce000000000000000000000000000000000000000000000000000000000000",
                    "decodedMethod": {
                        "callParams": [
                            {
                                "name": "offer",
                                "type": "(address,address,uint256,uint256,uint256,uint256,uint256,uint256,uint256,address)",
                                "value": [
                                    {
                                        "name": "lender",
                                        "type": "address",
                                        "value": "0x68663fb06b6e718e7026aa1c2ddbc4e97ccd6c5c"
                                    },
                                    {
                                        "name": "collection",
                                        "type": "address",
                                        "value": "0x5af0d9827e0c53e4799bb226655a1de152a425a5"
                                    },
                                    {
                                        "name": "totalAmount",
                                        "type": "uint256",
                                        "value": "2,900,000,000,000,000,000"
                                    },
                                    {
                                        "name": "minAmount",
                                        "type": "uint256",
                                        "value": "0"
                                    },
                                    {
                                        "name": "maxAmount",
                                        "type": "uint256",
                                        "value": "2,900,000,000,000,000,000"
                                    },
                                    {
                                        "name": "auctionDuration",
                                        "type": "uint256",
                                        "value": "9,000"
                                    },
                                    {
                                        "name": "salt",
                                        "type": "uint256",
                                        "value": "269,686,854,340,396,106,336,445,004,760,028,434,322"
                                    },
                                    {
                                        "name": "expirationTime",
                                        "type": "uint256",
                                        "value": "1,693,882,842"
                                    },
                                    {
                                        "name": "rate",
                                        "type": "uint256",
                                        "value": "0"
                                    },
                                    {
                                        "name": "oracle",
                                        "type": "address",
                                        "value": "0x473ca1d29a136b935a96380ea342f296b4eea82c"
                                    }
                                ]
                            },
                            {
                                "name": "signature",
                                "type": "bytes",
                                "value": "0x45d552a9536cae857961f270654244853c78bd6449c1d7a41a57088bfdadf5f60c84cc4b7e121f69d52177bc49c32014ae0b37da6888b5eb51a603d7a72f54121cdeec8512a7cfe35a87742752e2200ebeae82a4ae7c6e5100beb797fc66b8d42f23d9dd8e155a1b6798f8a946964bd6774ae3c2bd1cc485fadb8da192778e03ac1b0000000000000000000000000000000000000000000000000000000001106bce"
                            },
                            {
                                "name": "loanAmount",
                                "type": "uint256",
                                "value": "2,650,000,000,000,000,000"
                            },
                            {
                                "name": "collateralTokenId",
                                "type": "uint256",
                                "value": "5,203"
                            }
                        ],
                        "constructorArguments": "",
                        "name": "borrow",
                        "returnParams": [
                            {
                                "name": "lienId",
                                "type": "uint256",
                                "value": "64,885"
                            }
                        ],
                        "signature": "borrow((address,address,uint256,uint256,uint256,uint256,uint256,uint256,uint256,address),bytes,uint256,uint256)"
                    },
                    "errorInfo": "",
                    "fromAddress": "0x29469395eaf6f95920e59f858042f0e28d98a20b",
                    "gasUsed": 185614,
                    "id": 1,
                    "methodDecoded": true,
                    "operation": "DELEGATECALL",
                    "output": "0x000000000000000000000000000000000000000000000000000000000000fd75",
                    "revert": false,
                    "revertMessage": "",
                    "selector": "0xe263967e",
                    "status": true,
                    "value": "0"
                },
                "nodeType": 0
            },
            "10": {
                "invocation": {
                    "address": "0x0000000000a39bb272e79075ade125fd351887ac",
                    "callData": "0x00000000000000000000000068663fb06b6e718e7026aa1c2ddbc4e97ccd6c5c00000000000000000000000068663fb06b6e718e7026aa1c2ddbc4e97ccd6c5c00000000000000000000000000000000000000000000000024c6b0f5aec90000",
                    "decodedMethod": {
                        "callParams": [
                            {
                                "name": "from",
                                "type": "address",
                                "value": "0x68663fb06b6e718e7026aa1c2ddbc4e97ccd6c5c"
                            },
                            {
                                "name": "to",
                                "type": "address",
                                "value": "0x68663fb06b6e718e7026aa1c2ddbc4e97ccd6c5c"
                            },
                            {
                                "decimalAvailable": true,
                                "name": "amount",
                                "type": "uint256",
                                "value": "2,650,000,000,000,000,000"
                            }
                        ],
                        "constructorArguments": "",
                        "name": "transferFrom",
                        "returnParams": [
                            {
                                "name": "",
                                "type": "bool",
                                "value": true
                            }
                        ],
                        "signature": "transferFrom(address,address,uint256)"
                    },
                    "errorInfo": "",
                    "fromAddress": "0x29469395eaf6f95920e59f858042f0e28d98a20b",
                    "gasUsed": 13064,
                    "id": 10,
                    "methodDecoded": true,
                    "operation": "CALL",
                    "output": "0x0000000000000000000000000000000000000000000000000000000000000001",
                    "revert": false,
                    "revertMessage": "",
                    "selector": "0x23b872dd",
                    "status": true,
                    "value": "0"
                },
                "nodeType": 0
            },
            "11": {
                "invocation": {
                    "address": "0x01a656024de4b89e2d0198bf4d468e8fd2358b17",
                    "callData": "0x00000000000000000000000068663fb06b6e718e7026aa1c2ddbc4e97ccd6c5c00000000000000000000000068663fb06b6e718e7026aa1c2ddbc4e97ccd6c5c00000000000000000000000000000000000000000000000024c6b0f5aec90000",
                    "decodedMethod": {
                        "callParams": [
                            {
                                "name": "from",
                                "type": "address",
                                "value": "0x68663fb06b6e718e7026aa1c2ddbc4e97ccd6c5c"
                            },
                            {
                                "name": "to",
                                "type": "address",
                                "value": "0x68663fb06b6e718e7026aa1c2ddbc4e97ccd6c5c"
                            },
                            {
                                "decimalAvailable": true,
                                "name": "amount",
                                "type": "uint256",
                                "value": "2,650,000,000,000,000,000"
                            }
                        ],
                        "constructorArguments": "",
                        "name": "transferFrom",
                        "returnParams": [
                            {
                                "name": "",
                                "type": "bool",
                                "value": true
                            }
                        ],
                        "signature": "transferFrom(address,address,uint256)"
                    },
                    "errorInfo": "",
                    "fromAddress": "0x0000000000a39bb272e79075ade125fd351887ac",
                    "gasUsed": 8169,
                    "id": 11,
                    "methodDecoded": true,
                    "operation": "DELEGATECALL",
                    "output": "0x0000000000000000000000000000000000000000000000000000000000000001",
                    "revert": false,
                    "revertMessage": "",
                    "selector": "0x23b872dd",
                    "status": true,
                    "value": "0"
                },
                "nodeType": 0
            },
            "12": {
                "event": {
                    "contract": "0x0000000000a39bb272e79075ade125fd351887ac",
                    "decodedLog": {
                        "name": "Transfer",
                        "params": [
                            {
                                "name": "from",
                                "type": "address",
                                "value": "0x68663fb06b6e718e7026aa1c2ddbc4e97ccd6c5c"
                            },
                            {
                                "name": "to",
                                "type": "address",
                                "value": "0x68663fb06b6e718e7026aa1c2ddbc4e97ccd6c5c"
                            },
                            {
                                "decimalAvailable": true,
                                "name": "value",
                                "type": "uint256",
                                "value": "2,650,000,000,000,000,000"
                            }
                        ],
                        "signature": "Transfer(address,address,uint256)"
                    },
                    "id": 12,
                    "logData": "0x00000000000000000000000000000000000000000000000024c6b0f5aec90000",
                    "logDecoded": true,
                    "operation": "EVENT",
                    "revert": false,
                    "status": true,
                    "topics": [
                        "0xddf252ad1be2c89b69c2b068fc378daa952ba7f163c4a11628f55a4df523b3ef",
                        "0x00000000000000000000000068663fb06b6e718e7026aa1c2ddbc4e97ccd6c5c",
                        "0x00000000000000000000000068663fb06b6e718e7026aa1c2ddbc4e97ccd6c5c"
                    ]
                },
                "nodeType": 1
            },
            "2": {
                "invocation": {
                    "address": "0x0000000000000000000000000000000000000001",
                    "callData": "0xf23961f203c56ab5519835d391fd077322d0bbc561fdff5e0eb8b7e1000000000000000000000000000000000000000000000000000000000000001c45d552a9536cae857961f270654244853c78bd6449c1d7a41a57088bfdadf5f60c84cc4b7e121f69d52177bc49c32014ae0b37da6888b5eb51a603d7a72f5412",
                    "decodedMethod": {
                        "callParams": [
                            {
                                "name": "hash",
                                "type": "bytes32",
                                "value": "0xcf76d35ff23961f203c56ab5519835d391fd077322d0bbc561fdff5e0eb8b7e1"
                            },
                            {
                                "name": "v",
                                "type": "uint256",
                                "value": "28"
                            },
                            {
                                "name": "r",
                                "type": "bytes32",
                                "value": "0x45d552a9536cae857961f270654244853c78bd6449c1d7a41a57088bfdadf5f6"
                            },
                            {
                                "name": "s",
                                "type": "bytes32",
                                "value": "0x0c84cc4b7e121f69d52177bc49c32014ae0b37da6888b5eb51a603d7a72f5412"
                            }
                        ],
                        "constructorArguments": "",
                        "name": "ecrecover",
                        "returnParams": [
                            {
                                "name": "",
                                "type": "address",
                                "value": "0x68663fb06b6e718e7026aa1c2ddbc4e97ccd6c5c"
                            }
                        ],
                        "signature": "ecrecover(bytes32,uint256,bytes32,bytes32)"
                    },
                    "errorInfo": "",
                    "fromAddress": "0x29469395eaf6f95920e59f858042f0e28d98a20b",
                    "gasUsed": 3000,
                    "id": 2,
                    "methodDecoded": true,
                    "operation": "STATICCALL",
                    "output": "0x00000000000000000000000068663fb06b6e718e7026aa1c2ddbc4e97ccd6c5c",
                    "revert": false,
                    "revertMessage": "",
                    "selector": "0xcf76d35f",
                    "status": true,
                    "value": "0"
                },
                "nodeType": 0
            },
            "3": {
                "invocation": {
                    "address": "0x0000000000000000000000000000000000000001",
                    "callData": "0x9beac514056edf03a279e2cd0f51ebde637dfbdf4667932b7a7317c5000000000000000000000000000000000000000000000000000000000000001bdeec8512a7cfe35a87742752e2200ebeae82a4ae7c6e5100beb797fc66b8d42f23d9dd8e155a1b6798f8a946964bd6774ae3c2bd1cc485fadb8da192778e03ac",
                    "decodedMethod": {
                        "callParams": [
                            {
                                "name": "hash",
                                "type": "bytes32",
                                "value": "0x09ba0a559beac514056edf03a279e2cd0f51ebde637dfbdf4667932b7a7317c5"
                            },
                            {
                                "name": "v",
                                "type": "uint256",
                                "value": "27"
                            },
                            {
                                "name": "r",
                                "type": "bytes32",
                                "value": "0xdeec8512a7cfe35a87742752e2200ebeae82a4ae7c6e5100beb797fc66b8d42f"
                            },
                            {
                                "name": "s",
                                "type": "bytes32",
                                "value": "0x23d9dd8e155a1b6798f8a946964bd6774ae3c2bd1cc485fadb8da192778e03ac"
                            }
                        ],
                        "constructorArguments": "",
                        "name": "ecrecover",
                        "returnParams": [
                            {
                                "name": "",
                                "type": "address",
                                "value": "0x473ca1d29a136b935a96380ea342f296b4eea82c"
                            }
                        ],
                        "signature": "ecrecover(bytes32,uint256,bytes32,bytes32)"
                    },
                    "errorInfo": "",
                    "fromAddress": "0x29469395eaf6f95920e59f858042f0e28d98a20b",
                    "gasUsed": 3000,
                    "id": 3,
                    "methodDecoded": true,
                    "operation": "STATICCALL",
                    "output": "0x000000000000000000000000473ca1d29a136b935a96380ea342f296b4eea82c",
                    "revert": false,
                    "revertMessage": "",
                    "selector": "0x09ba0a55",
                    "status": true,
                    "value": "0"
                },
                "nodeType": 0
            },
            "4": {
                "event": {
                    "contract": "0x29469395eaf6f95920e59f858042f0e28d98a20b",
                    "decodedLog": {
                        "name": "LoanOfferTaken",
                        "params": [
                            {
                                "name": "offerHash",
                                "type": "bytes32",
                                "value": "0x94a6f8d6bc5b5b93fc924b89518b84339d82b6915e42d81c2e58a9a76380b19d"
                            },
                            {
                                "name": "lienId",
                                "type": "uint256",
                                "value": "64,885"
                            },
                            {
                                "name": "collection",
                                "type": "address",
                                "value": "0x5af0d9827e0c53e4799bb226655a1de152a425a5"
                            },
                            {
                                "name": "lender",
                                "type": "address",
                                "value": "0x68663fb06b6e718e7026aa1c2ddbc4e97ccd6c5c"
                            },
                            {
                                "name": "borrower",
                                "type": "address",
                                "value": "0x68663fb06b6e718e7026aa1c2ddbc4e97ccd6c5c"
                            },
                            {
                                "name": "loanAmount",
                                "type": "uint256",
                                "value": "2,650,000,000,000,000,000"
                            },
                            {
                                "name": "rate",
                                "type": "uint256",
                                "value": "0"
                            },
                            {
                                "name": "tokenId",
                                "type": "uint256",
                                "value": "5,203"
                            },
                            {
                                "name": "auctionDuration",
                                "type": "uint256",
                                "value": "9,000"
                            }
                        ],
                        "signature": "LoanOfferTaken(bytes32,uint256,address,address,address,uint256,uint256,uint256,uint256)"
                    },
                    "id": 4,
                    "logData": "0x94a6f8d6bc5b5b93fc924b89518b84339d82b6915e42d81c2e58a9a76380b19d000000000000000000000000000000000000000000000000000000000000fd750000000000000000000000005af0d9827e0c53e4799bb226655a1de152a425a500000000000000000000000068663fb06b6e718e7026aa1c2ddbc4e97ccd6c5c00000000000000000000000068663fb06b6e718e7026aa1c2ddbc4e97ccd6c5c00000000000000000000000000000000000000000000000024c6b0f5aec90000000000000000000000000000000000000000000000000000000000000000000000000000000000000000000000000000000000000000000000000000000014530000000000000000000000000000000000000000000000000000000000002328",
                    "logDecoded": true,
                    "operation": "EVENT",
                    "revert": false,
                    "status": true,
                    "topics": [
                        "0x06a333c2d6fe967ca967f7a35be2eb45e8caeb6cf05e16f55d42b91b5fe31255"
                    ]
                },
                "nodeType": 1
            },
            "5": {
                "invocation": {
                    "address": "0x5af0d9827e0c53e4799bb226655a1de152a425a5",
                    "callData": "0x00000000000000000000000068663fb06b6e718e7026aa1c2ddbc4e97ccd6c5c00000000000000000000000029469395eaf6f95920e59f858042f0e28d98a20b0000000000000000000000000000000000000000000000000000000000001453",
                    "decodedMethod": {
                        "callParams": [
                            {
                                "name": "from",
                                "type": "address",
                                "value": "0x68663fb06b6e718e7026aa1c2ddbc4e97ccd6c5c"
                            },
                            {
                                "name": "to",
                                "type": "address",
                                "value": "0x29469395eaf6f95920e59f858042f0e28d98a20b"
                            },
                            {
                                "name": "tokenId",
                                "type": "uint256",
                                "value": "5,203"
                            }
                        ],
                        "constructorArguments": "",
                        "name": "safeTransferFrom",
                        "returnParams": [],
                        "signature": "safeTransferFrom(address,address,uint256)"
                    },
                    "errorInfo": "",
                    "fromAddress": "0x29469395eaf6f95920e59f858042f0e28d98a20b",
                    "gasUsed": 91413,
                    "id": 5,
                    "methodDecoded": true,
                    "operation": "CALL",
                    "output": "",
                    "revert": false,
                    "revertMessage": "",
                    "selector": "0x42842e0e",
                    "status": true,
                    "value": "0"
                },
                "nodeType": 0
            },
            "6": {
                "event": {
                    "contract": "0x5af0d9827e0c53e4799bb226655a1de152a425a5",
                    "decodedLog": {
                        "name": "Approval",
                        "params": [
                            {
                                "name": "owner",
                                "type": "address",
                                "value": "0x68663fb06b6e718e7026aa1c2ddbc4e97ccd6c5c"
                            },
                            {
                                "name": "approved",
                                "type": "address",
                                "value": "0x0000000000000000000000000000000000000000"
                            },
                            {
                                "decimalAvailable": true,
                                "name": "tokenId",
                                "type": "uint256",
                                "value": "5,203"
                            }
                        ],
                        "signature": "Approval(address,address,uint256)"
                    },
                    "id": 6,
                    "logData": "0x",
                    "logDecoded": true,
                    "operation": "EVENT",
                    "revert": false,
                    "status": true,
                    "topics": [
                        "0x8c5be1e5ebec7d5bd14f71427d1e84f3dd0314c0f7b2291e5b200ac8c7c3b925",
                        "0x00000000000000000000000068663fb06b6e718e7026aa1c2ddbc4e97ccd6c5c",
                        "0x0000000000000000000000000000000000000000000000000000000000000000",
                        "0x0000000000000000000000000000000000000000000000000000000000001453"
                    ]
                },
                "nodeType": 1
            },
            "7": {
                "event": {
                    "contract": "0x5af0d9827e0c53e4799bb226655a1de152a425a5",
                    "decodedLog": {
                        "name": "Transfer",
                        "params": [
                            {
                                "name": "from",
                                "type": "address",
                                "value": "0x68663fb06b6e718e7026aa1c2ddbc4e97ccd6c5c"
                            },
                            {
                                "name": "to",
                                "type": "address",
                                "value": "0x29469395eaf6f95920e59f858042f0e28d98a20b"
                            },
                            {
                                "decimalAvailable": true,
                                "name": "tokenId",
                                "type": "uint256",
                                "value": "5,203"
                            }
                        ],
                        "signature": "Transfer(address,address,uint256)"
                    },
                    "id": 7,
                    "logData": "0x",
                    "logDecoded": true,
                    "operation": "EVENT",
                    "revert": false,
                    "status": true,
                    "topics": [
                        "0xddf252ad1be2c89b69c2b068fc378daa952ba7f163c4a11628f55a4df523b3ef",
                        "0x00000000000000000000000068663fb06b6e718e7026aa1c2ddbc4e97ccd6c5c",
                        "0x00000000000000000000000029469395eaf6f95920e59f858042f0e28d98a20b",
                        "0x0000000000000000000000000000000000000000000000000000000000001453"
                    ]
                },
                "nodeType": 1
            },
            "8": {
                "invocation": {
                    "address": "0x29469395eaf6f95920e59f858042f0e28d98a20b",
                    "callData": "0x00000000000000000000000029469395eaf6f95920e59f858042f0e28d98a20b00000000000000000000000068663fb06b6e718e7026aa1c2ddbc4e97ccd6c5c000000000000000000000000000000000000000000000000000000000000145300000000000000000000000000000000000000000000000000000000000000800000000000000000000000000000000000000000000000000000000000000000",
                    "decodedMethod": {
                        "callParams": [
                            {
                                "name": "operator",
                                "type": "address",
                                "value": "0x29469395eaf6f95920e59f858042f0e28d98a20b"
                            },
                            {
                                "name": "from",
                                "type": "address",
                                "value": "0x68663fb06b6e718e7026aa1c2ddbc4e97ccd6c5c"
                            },
                            {
                                "name": "tokenId",
                                "type": "uint256",
                                "value": "5,203"
                            },
                            {
                                "name": "data",
                                "type": "bytes",
                                "value": "0x"
                            }
                        ],
                        "constructorArguments": "",
                        "name": "onERC721Received",
                        "returnParams": [
                            {
                                "name": "",
                                "type": "bytes4",
                                "value": "0x150b7a02"
                            }
                        ],
                        "signature": "onERC721Received(address,address,uint256,bytes)"
                    },
                    "errorInfo": "",
                    "fromAddress": "0x5af0d9827e0c53e4799bb226655a1de152a425a5",
                    "gasUsed": 1303,
                    "id": 8,
                    "methodDecoded": true,
                    "operation": "CALL",
                    "output": "0x150b7a0200000000000000000000000000000000000000000000000000000000",
                    "revert": false,
                    "revertMessage": "",
                    "selector": "0x150b7a02",
                    "status": true,
                    "value": "0"
                },
                "nodeType": 0
            },
            "9": {
                "invocation": {
                    "address": "0xb258ca5559b11cd702f363796522b04d7722ea56",
                    "callData": "0x00000000000000000000000029469395eaf6f95920e59f858042f0e28d98a20b00000000000000000000000068663fb06b6e718e7026aa1c2ddbc4e97ccd6c5c000000000000000000000000000000000000000000000000000000000000145300000000000000000000000000000000000000000000000000000000000000800000000000000000000000000000000000000000000000000000000000000000",
                    "decodedMethod": {
                        "callParams": [
                            {
                                "name": "operator",
                                "type": "address",
                                "value": "0x29469395eaf6f95920e59f858042f0e28d98a20b"
                            },
                            {
                                "name": "from",
                                "type": "address",
                                "value": "0x68663fb06b6e718e7026aa1c2ddbc4e97ccd6c5c"
                            },
                            {
                                "name": "tokenId",
                                "type": "uint256",
                                "value": "5,203"
                            },
                            {
                                "name": "data",
                                "type": "bytes",
                                "value": "0x"
                            }
                        ],
                        "constructorArguments": "",
                        "name": "onERC721Received",
                        "returnParams": [
                            {
                                "name": "",
                                "type": "bytes4",
                                "value": "0x150b7a02"
                            }
                        ],
                        "signature": "onERC721Received(address,address,uint256,bytes)"
                    },
                    "errorInfo": "",
                    "fromAddress": "0x29469395eaf6f95920e59f858042f0e28d98a20b",
                    "gasUsed": 884,
                    "id": 9,
                    "methodDecoded": true,
                    "operation": "DELEGATECALL",
                    "output": "0x150b7a0200000000000000000000000000000000000000000000000000000000",
                    "revert": false,
                    "revertMessage": "",
                    "selector": "0x150b7a02",
                    "status": true,
                    "value": "0"
                },
                "nodeType": 0
            }
        },
        "gasFlame": [
            {
                "children": [
                    {
                        "children": [
                            {
                                "children": [],
                                "depth": 0,
                                "name": "Initial Gas",
                                "value": 26468
                            },
                            {
                                "children": [
                                    {
                                        "children": [
                                            {
                                                "children": [],
                                                "depth": 2,
                                                "name": "ecrecover",
                                                "value": 3000
                                            },
                                            {
                                                "children": [],
                                                "depth": 2,
                                                "name": "ecrecover",
                                                "value": 3000
                                            },
                                            {
                                                "children": [
                                                    {
                                                        "children": [
                                                            {
                                                                "children": [],
                                                                "depth": 4,
                                                                "name": "onERC721Received",
                                                                "value": 884
                                                            }
                                                        ],
                                                        "depth": 3,
                                                        "name": "onERC721Received",
                                                        "value": 1303
                                                    }
                                                ],
                                                "depth": 2,
                                                "name": "safeTransferFrom",
                                                "value": 91413
                                            },
                                            {
                                                "children": [
                                                    {
                                                        "children": [],
                                                        "depth": 3,
                                                        "name": "transferFrom",
                                                        "value": 8169
                                                    }
                                                ],
                                                "depth": 2,
                                                "name": "transferFrom",
                                                "value": 13064
                                            }
                                        ],
                                        "depth": 1,
                                        "name": "borrow",
                                        "value": 185614
                                    }
                                ],
                                "depth": 0,
                                "name": "Executed Gas",
                                "value": 190623
                            }
                        ],
                        "depth": -1,
                        "name": "Actual Gas Used",
                        "value": 199891
                    },
                    {
                        "children": [],
                        "depth": -1,
                        "name": "Refunded Gas",
                        "value": 17200
                    }
                ],
                "depth": -2,
                "name": "Total Gas",
                "value": 217091
            }
        ],
        "isConfirmed": true,
        "mainTrace": [
            {
                "children": [
                    {
                        "children": [
                            {
                                "children": [
                                    {
                                        "children": [],
                                        "depth": 2,
                                        "id": 2,
                                        "order": 2
                                    },
                                    {
                                        "children": [],
                                        "depth": 2,
                                        "id": 3,
                                        "order": 3
                                    },
                                    {
                                        "children": [],
                                        "depth": 2,
                                        "id": 4,
                                        "order": 4
                                    },
                                    {
                                        "children": [
                                            {
                                                "children": [],
                                                "depth": 3,
                                                "id": 6,
                                                "order": 6
                                            },
                                            {
                                                "children": [],
                                                "depth": 3,
                                                "id": 7,
                                                "order": 7
                                            },
                                            {
                                                "children": [
                                                    {
                                                        "children": [],
                                                        "depth": 4,
                                                        "id": 9,
                                                        "order": 9
                                                    }
                                                ],
                                                "depth": 3,
                                                "id": 8,
                                                "order": 8
                                            }
                                        ],
                                        "depth": 2,
                                        "id": 5,
                                        "order": 5
                                    },
                                    {
                                        "children": [
                                            {
                                                "children": [
                                                    {
                                                        "children": [],
                                                        "depth": 4,
                                                        "id": 12,
                                                        "order": 12
                                                    }
                                                ],
                                                "depth": 3,
                                                "id": 11,
                                                "order": 11
                                            }
                                        ],
                                        "depth": 2,
                                        "id": 10,
                                        "order": 10
                                    }
                                ],
                                "depth": 1,
                                "id": 1,
                                "order": 1
                            }
                        ],
                        "depth": 0,
                        "id": 0,
                        "order": 0
                    }
                ],
                "depth": -1,
                "id": -1,
                "order": -1
            }
        ],
        "mainTraceNodeCount": 13,
        "parentIdMap": {
            "0": -1,
            "1": 0,
            "10": 1,
            "11": 10,
            "12": 11,
            "2": 1,
            "3": 1,
            "4": 1,
            "5": 1,
            "6": 5,
            "7": 5,
            "8": 5,
            "9": 8
        },
        "tidyTrace": [
            {
                "children": [
                    {
                        "children": [
                            {
                                "children": [
                                    {
                                        "children": [],
                                        "depth": 2,
                                        "id": 4,
                                        "order": 4
                                    },
                                    {
                                        "children": [
                                            {
                                                "children": [],
                                                "depth": 3,
                                                "id": 6,
                                                "order": 6
                                            },
                                            {
                                                "children": [],
                                                "depth": 3,
                                                "id": 7,
                                                "order": 7
                                            },
                                            {
                                                "children": [
                                                    {
                                                        "children": [],
                                                        "depth": 4,
                                                        "id": 9,
                                                        "order": 9
                                                    }
                                                ],
                                                "depth": 3,
                                                "id": 8,
                                                "order": 8
                                            }
                                        ],
                                        "depth": 2,
                                        "id": 5,
                                        "order": 5
                                    },
                                    {
                                        "children": [
                                            {
                                                "children": [
                                                    {
                                                        "children": [],
                                                        "depth": 4,
                                                        "id": 12,
                                                        "order": 12
                                                    }
                                                ],
                                                "depth": 3,
                                                "id": 11,
                                                "order": 11
                                            }
                                        ],
                                        "depth": 2,
                                        "id": 10,
                                        "order": 10
                                    }
                                ],
                                "depth": 1,
                                "id": 1,
                                "order": 1
                            }
                        ],
                        "depth": 0,
                        "id": 0,
                        "order": 0
                    }
                ],
                "depth": -1,
                "id": -1,
                "order": -1
            }
        ],
        "tidyTraceNodeCount": 11
    },
    "state_change": {
        "stateChanges": [
            {
                "address": "0x29469395eaf6f95920e59f858042f0e28d98a20b",
                "erc": "",
                "slots": [
                    {
                        "current": "0xa35535b903aae0a417902f34c91ced40dbdf269480aeafdaaadaa3c7da919ac8",
                        "key": "0xf44f3d149722e0f62aa783c832dec33874f458745a1b7e9a9c4ec74a9521dc62",
                        "prev": "0x0000000000000000000000000000000000000000000000000000000000000000"
                    },
                    {
                        "current": "0x000000000000000000000000000000000000000000000000000000000000fd76",
                        "key": "0x0000000000000000000000000000000000000000000000000000000000000163",
                        "prev": "0x000000000000000000000000000000000000000000000000000000000000fd75"
                    },
                    {
                        "current": "0x00000000000000000000000000000000000000000000000024c6b0f5aec90000",
                        "key": "0xa233e2fca2bc8a35f5930be449719a2563168ac5f4ca696c26e781052563ef9a",
                        "prev": "0x0000000000000000000000000000000000000000000000000000000000000000"
                    }
                ],
                "storageVariables": [
                    {
                        "name": "liens",
                        "type": "mapping(uint256 => bytes32)",
                        "value": {
                            "pairs": [
                                {
                                    "key": "64885",
                                    "value": {
                                        "current": "0xa35535b903aae0a417902f34c91ced40dbdf269480aeafdaaadaa3c7da919ac8",
                                        "prev": "0x0000000000000000000000000000000000000000000000000000000000000000",
                                        "typeTag": 1
                                    }
                                }
                            ],
                            "typeTag": 4
                        }
                    },
                    {
                        "name": "_nextLienId",
                        "type": "uint256",
                        "value": {
                            "current": "64886",
                            "prev": "64885",
                            "typeTag": 1
                        }
                    },
                    {
                        "name": "amountTaken",
                        "type": "mapping(bytes32 => uint256)",
                        "value": {
                            "pairs": [
                                {
                                    "key": "0x94a6f8d6bc5b5b93fc924b89518b84339d82b6915e42d81c2e58a9a76380b19d",
                                    "value": {
                                        "current": "2650000000000000000",
                                        "prev": "0",
                                        "typeTag": 1
                                    }
                                }
                            ],
                            "typeTag": 4
                        }
                    }
                ]
            },
            {
                "address": "0x5af0d9827e0c53e4799bb226655a1de152a425a5",
                "erc": "ERC-721",
                "slots": [
                    {
                        "current": "0x0000000000000000000000000000000000000000000000000000000000000000",
                        "key": "0xe7ebd43e2dab6810361b927e1273714293e236d853af889c1ab3f6c971088ec2",
                        "prev": "0x0000000000000000000000000000000000000000000000000000000000000001"
                    },
                    {
                        "current": "0x00000000000000000000000000000000000000000000000000000000000001da",
                        "key": "0x5a2307bd7c4b0f1e169fb5bcae831daa4c19bf13c65102d0e6005449532c3b25",
                        "prev": "0x00000000000000000000000000000000000000000000000000000000000001d9"
                    },
                    {
                        "current": "0x0000000000000000000000000000000000000000000000000000000000001453",
                        "key": "0x2ae02d8b84034774fed79fef6ee12beabb11d421f6f3d40dad2856cd6539f795",
                        "prev": "0x0000000000000000000000000000000000000000000000000000000000000000"
                    },
                    {
                        "current": "0x00000000000000000000000000000000000000000000000000000000000001da",
                        "key": "0xe23871637c30a5af0ecd29d022be13fe4cfa4666713e39afa9fff80fb6c04979",
                        "prev": "0x0000000000000000000000000000000000000000000000000000000000000000"
                    },
                    {
                        "current": "0x00000000000000000000000029469395eaf6f95920e59f858042f0e28d98a20b",
                        "key": "0x405787fa12a823e0f2b7631cc41b3ba8828b3321ca811111fa75cd3aa3bb8375",
                        "prev": "0x00000000000000000000000068663fb06b6e718e7026aa1c2ddbc4e97ccd6c5c"
                    },
                    {
                        "current": "0x0000000000000000000000000000000000000000000000000000000000000000",
                        "key": "0xb87bb185b10954a5aaa4974d4b6c5e7b0d8b97cddc8f6d188a5e341b6999835e",
                        "prev": "0x0000000000000000000000000000000000000000000000000000000000001453"
                    },
                    {
                        "current": "0x0000000000000000000000000000000000000000000000000000000000000000",
                        "key": "0x993085551616060fab4b4a1bab6afa82ed0c3fc18fc1117f5b21a3442ce2a188",
                        "prev": "0x0000000000000000000000000000000000000000000000000000000000000001"
                    }
                ],
                "storageVariables": [
                    {
                        "name": "_holderTokens",
                        "type": "mapping(address => struct EnumerableSet.UintSet)",
                        "value": {
                            "pairs": [
                                {
                                    "key": "0x29469395eaf6f95920e59f858042f0e28d98a20b",
                                    "value": {
                                        "fields": [
                                            {
                                                "name": "_inner",
                                                "type": "struct EnumerableSet.Set",
                                                "value": {
                                                    "fields": [
                                                        {
                                                            "name": "_values",
                                                            "type": "bytes32[]",
                                                            "value": {
                                                                "elemType": "bytes32",
                                                                "elems": [
                                                                    {
                                                                        "index": 473,
                                                                        "value": {
                                                                            "current": "0x0000000000000000000000000000000000000000000000000000000000001453",
                                                                            "prev": "0x0000000000000000000000000000000000000000000000000000000000000000",
                                                                            "typeTag": 1
                                                                        }
                                                                    }
                                                                ],
                                                                "typeTag": 2
                                                            }
                                                        },
                                                        {
                                                            "name": "_indexes",
                                                            "type": "mapping(bytes32 => uint256)",
                                                            "value": {
                                                                "pairs": [
                                                                    {
                                                                        "key": "0x0000000000000000000000000000000000000000000000000000000000001453",
                                                                        "value": {
                                                                            "current": "474",
                                                                            "prev": "0",
                                                                            "typeTag": 1
                                                                        }
                                                                    }
                                                                ],
                                                                "typeTag": 4
                                                            }
                                                        }
                                                    ],
                                                    "typeTag": 3
                                                }
                                            }
                                        ],
                                        "typeTag": 3
                                    }
                                },
                                {
                                    "key": "0x68663fb06b6e718e7026aa1c2ddbc4e97ccd6c5c",
                                    "value": {
                                        "fields": [
                                            {
                                                "name": "_inner",
                                                "type": "struct EnumerableSet.Set",
                                                "value": {
                                                    "fields": [
                                                        {
                                                            "name": "_indexes",
                                                            "type": "mapping(bytes32 => uint256)",
                                                            "value": {
                                                                "pairs": [
                                                                    {
                                                                        "key": "0x0000000000000000000000000000000000000000000000000000000000001453",
                                                                        "value": {
                                                                            "current": "0",
                                                                            "prev": "1",
                                                                            "typeTag": 1
                                                                        }
                                                                    }
                                                                ],
                                                                "typeTag": 4
                                                            }
                                                        }
                                                    ],
                                                    "typeTag": 3
                                                }
                                            }
                                        ],
                                        "typeTag": 3
                                    }
                                }
                            ],
                            "typeTag": 4
                        }
                    },
                    {
                        "name": "_tokenOwners",
                        "type": "struct EnumerableMap.UintToAddressMap",
                        "value": {
                            "fields": [
                                {
                                    "name": "_inner",
                                    "type": "struct EnumerableMap.Map",
                                    "value": {
                                        "fields": [
                                            {
                                                "name": "_entries",
                                                "type": "struct EnumerableMap.MapEntry[]",
                                                "value": {
                                                    "elemType": "struct EnumerableMap.MapEntry",
                                                    "elems": [
                                                        {
                                                            "index": 5203,
                                                            "value": {
                                                                "fields": [
                                                                    {
                                                                        "name": "_value",
                                                                        "type": "bytes32",
                                                                        "value": {
                                                                            "current": "0x00000000000000000000000029469395eaf6f95920e59f858042f0e28d98a20b",
                                                                            "prev": "0x00000000000000000000000068663fb06b6e718e7026aa1c2ddbc4e97ccd6c5c",
                                                                            "typeTag": 1
                                                                        }
                                                                    }
                                                                ],
                                                                "typeTag": 3
                                                            }
                                                        }
                                                    ],
                                                    "typeTag": 2
                                                }
                                            }
                                        ],
                                        "typeTag": 3
                                    }
                                }
                            ],
                            "typeTag": 3
                        }
                    }
                ]
            }
        ]
    }
}