{
    "balance_change": {
        "balanceChanges": [
            {
                "account": "0xf36ed8d839fee2194c85c798e5c36b8491521f96",
                "assets": [
                    {
                        "address": "0xeeeeeeeeeeeeeeeeeeeeeeeeeeeeeeeeeeeeeeee",
                        "amount": "0.4999875",
                        "iconUrl": "https://assets.blocksec.com/image/1663669189317-3.png",
                        "isERC1155": false,
                        "isERC721": false,
                        "sign": false,
                        "value": "772.2606929999999727"
                    },
                    {
                        "address": "0x9978572adaa17b7813049865a33c85267fa0d8c1",
                        "amount": "1,101,258.539332243553583087",
                        "iconUrl": "",
                        "isERC1155": false,
                        "isERC721": false,
                        "sign": true,
                        "value": ""
                    },
                    {
                        "address": "0xaf1f21987c63b8194c42eed6a8d5914985d65316",
                        "amount": "107,483,952,703.392568723",
                        "iconUrl": "",
                        "isERC1155": false,
                        "isERC721": false,
                        "sign": true,
                        "value": "618.7920477"
                    }
                ]
            },
            {
                "account": "0xdb5889e35e379ef0498aae126fc2cce1fbd23216",
                "assets": [
                    {
                        "address": "0xeeeeeeeeeeeeeeeeeeeeeeeeeeeeeeeeeeeeeeee",
                        "amount": "0.0024875",
                        "iconUrl": "https://assets.blocksec.com/image/1663669189317-3.png",
                        "isERC1155": false,
                        "isERC721": false,
                        "sign": true,
                        "value": "3.8420929999999998642"
                    }
                ]
            },
            {
                "account": "0x0000000000000000000000000000000000000000",
                "assets": [
                    {
                        "address": "0x9978572adaa17b7813049865a33c85267fa0d8c1",
                        "amount": "1,101,258.539332243553583087",
                        "iconUrl": "",
                        "isERC1155": false,
                        "isERC721": false,
                        "sign": false,
                        "value": ""
                    }
                ]
            },
            {
                "account": "0x792b314318909732f27edcc59d40315fc4de7eaa",
                "assets": [
                    {
                        "address": "0xaf1f21987c63b8194c42eed6a8d5914985d65316",
                        "amount": "113,141,002,845.676388129",
                        "iconUrl": "",
                        "isERC1155": false,
                        "isERC721": false,
                        "sign": false,
                        "value": "708.0915895"
                    },
                    {
                        "address": "0xc02aaa39b223fe8d0a0e5c4f27ead9083c756cc2",
                        "amount": "0.4975",
                        "iconUrl": "https://assets.blocksec.com/icon/f1cb2d02c471d545bbc7722daf3277fd852d98e63d118771af7047bd8256c516.png",
                        "isERC1155": false,
                        "isERC721": false,
                        "sign": true,
                        "value": "768.4185999999999729"
                    }
                ]
            },
            {
                "account": "0xaf1f21987c63b8194c42eed6a8d5914985d65316",
                "assets": [
                    {
                        "address": "0xaf1f21987c63b8194c42eed6a8d5914985d65316",
                        "amount": "5,657,050,142.283819406",
                        "iconUrl": "",
                        "isERC1155": false,
                        "isERC721": false,
                        "sign": true,
                        "value": "33.89212647"
                    }
                ]
            },
            {
                "account": "0xc02aaa39b223fe8d0a0e5c4f27ead9083c756cc2",
                "assets": [
                    {
                        "address": "0xeeeeeeeeeeeeeeeeeeeeeeeeeeeeeeeeeeeeeeee",
                        "amount": "0.4975",
                        "iconUrl": "https://assets.blocksec.com/image/1663669189317-3.png",
                        "isERC1155": false,
                        "isERC721": false,
                        "sign": true,
                        "value": "768.4185999999999729"
                    },
                    {
                        "address": "0xc02aaa39b223fe8d0a0e5c4f27ead9083c756cc2",
                        "amount": "0.4975",
                        "iconUrl": "https://assets.blocksec.com/icon/f1cb2d02c471d545bbc7722daf3277fd852d98e63d118771af7047bd8256c516.png",
                        "isERC1155": false,
                        "isERC721": false,
                        "sign": false,
                        "value": "768.4185999999999729"
                    }
                ]
            }
        ]
    },
    "profile": {
        "basic_info": {
            "baseFee": "32.217346441",
            "blockNumber": 18114734,
            "callData": "0x0162e2d000000000000000000000000000000000000000000000000000000000000000e000000000000000000000000000000000000000000000000000000000000001600000000000000000000000007a250d5630b4cf539739df2c5dacb4c659f2488d0000000000000000000000000000000000000000000000000000000000000032000000000000000000000000000000000000000000000000000000000000000100000000000000000000000000000000000000000000000000000000000000000000000000000000000000000000000000000000000000000000000064ff549700000000000000000000000000000000000000000000000000000000000000030000000000000000000000000000000000000000000000000000000000000000000000000000000000000000000000000000000000000000000000000000000000000000000000000000000000000000000000000000000000000000000000000000000000000000000000000000000000000000000000000000000000000002000000000000000000000000c02aaa39b223fe8d0a0e5c4f27ead9083c756cc2000000000000000000000000af1f21987c63b8194c42eed6a8d5914985d65316",
            "debugEnable": true,
            "errorInfo": "",
            "eventCount": 9,
            "feeRecipient": "0x95222290dd7278aa3ddd389cc1e1d165cc4bafe5",
            "formatValue": "0.5",
            "gasLimit": 443622,
            "gasPrice": "47.217346441",
            "gasUsed": 263863,
            "intTxnCount": 17,
            "internalRevert": false,
            "internalRevertMessage": "",
            "isContractCreation": false,
            "isFlashloan": false,
            "maxFee": "47.217346441",
            "nonce": 59,
            "overwritedBlockNumber": -1,
            "priorityFee": "15",
            "receiver": "0xdb5889e35e379ef0498aae126fc2cce1fbd23216",
            "revertMessage": "",
            "sender": "0xf36ed8d839fee2194c85c798e5c36b8491521f96",
            "simulationEnable": true,
            "sourceTxnHash": "0x3b1f92ae55f2ffa2a64756fe9f40e10ed758d19c0f97fa3d0c68857a307d104e",
            "status": true,
            "timestamp": "2023-09-11T17:55:35Z",
            "transactionFee": "0.012458910683961583",
            "txnHash": "0x3b1f92ae55f2ffa2a64756fe9f40e10ed758d19c0f97fa3d0c68857a307d104e",
            "txnIndex": 6,
            "type": 2,
            "value": "500000000000000000"
        },
        "fund_flow": [
            {
                "amount": "0.5",
                "from": "0xf36ed8d839fee2194c85c798e5c36b8491521f96",
                "id": 1,
                "isERC1155": false,
                "isERC721": false,
                "isReverted": false,
                "order": 1,
                "to": "0xdb5889e35e379ef0498aae126fc2cce1fbd23216",
                "token": "0xeeeeeeeeeeeeeeeeeeeeeeeeeeeeeeeeeeeeeeee"
            },
            {
                "amount": "0.4975",
                "from": "0xdb5889e35e379ef0498aae126fc2cce1fbd23216",
                "id": 2,
                "isERC1155": false,
                "isERC721": false,
                "isReverted": false,
                "order": 2,
                "to": "0xc02aaa39b223fe8d0a0e5c4f27ead9083c756cc2",
                "token": "0xeeeeeeeeeeeeeeeeeeeeeeeeeeeeeeeeeeeeeeee"
            },
            {
                "amount": "0.4975",
                "from": "0xc02aaa39b223fe8d0a0e5c4f27ead9083c756cc2",
                "id": 3,
                "isERC1155": false,
                "isERC721": false,
                "isReverted": false,
                "order": 3,
                "to": "0xdb5889e35e379ef0498aae126fc2cce1fbd23216",
                "token": "0xc02aaa39b223fe8d0a0e5c4f27ead9083c756cc2"
            },
            {
                "amount": "0.4975",
                "from": "0xdb5889e35e379ef0498aae126fc2cce1fbd23216",
                "id": 4,
                "isERC1155": false,
                "isERC721": false,
                "isReverted": false,
                "order": 4,
                "to": "0x792b314318909732f27edcc59d40315fc4de7eaa",
                "token": "0xc02aaa39b223fe8d0a0e5c4f27ead9083c756cc2"
            },
            {
                "amount": "5,657,050,142.283819406",
                "from": "0x792b314318909732f27edcc59d40315fc4de7eaa",
                "id": 5,
                "isERC1155": false,
                "isERC721": false,
                "isReverted": false,
                "order": 5,
                "to": "0xaf1f21987c63b8194c42eed6a8d5914985d65316",
                "token": "0xaf1f21987c63b8194c42eed6a8d5914985d65316"
            },
            {
                "amount": "1,101,258.539332243553583087",
                "from": "0x0000000000000000000000000000000000000000",
                "id": 6,
                "isERC1155": false,
                "isERC721": false,
                "isReverted": false,
                "order": 6,
                "to": "0xf36ed8d839fee2194c85c798e5c36b8491521f96",
                "token": "0x9978572adaa17b7813049865a33c85267fa0d8c1"
            },
            {
                "amount": "107,483,952,703.392568723",
                "from": "0x792b314318909732f27edcc59d40315fc4de7eaa",
                "id": 7,
                "isERC1155": false,
                "isERC721": false,
                "isReverted": false,
                "order": 7,
                "to": "0xf36ed8d839fee2194c85c798e5c36b8491521f96",
                "token": "0xaf1f21987c63b8194c42eed6a8d5914985d65316"
            },
            {
                "amount": "0.0000125",
                "from": "0xdb5889e35e379ef0498aae126fc2cce1fbd23216",
                "id": 8,
                "isERC1155": false,
                "isERC721": false,
                "isReverted": false,
                "order": 8,
                "to": "0xf36ed8d839fee2194c85c798e5c36b8491521f96",
                "token": "0xeeeeeeeeeeeeeeeeeeeeeeeeeeeeeeeeeeeeeeee"
            }
        ],
        "token_infos": [
            {
                "address": "0x9978572adaa17b7813049865a33c85267fa0d8c1",
                "decimals": 18
            },
            {
                "address": "0xaf1f21987c63b8194c42eed6a8d5914985d65316",
                "decimals": 9
            },
            {
                "address": "0xc02aaa39b223fe8d0a0e5c4f27ead9083c756cc2",
                "decimals": 18
            },
            {
                "address": "0xeeeeeeeeeeeeeeeeeeeeeeeeeeeeeeeeeeeeeeee",
                "decimals": 18
            }
        ]
    },
    "address_label": {
        "labels": [
            {
                "address": "0x0000000000000000000000000000000000000002",
                "label": "Precompiled"
            },
            {
                "address": "0xc02aaa39b223fe8d0a0e5c4f27ead9083c756cc2",
                "label": "Wrapped Ether (WETH)"
            },
            {
                "address": "0xdb5889e35e379ef0498aae126fc2cce1fbd23216",
                "label": "Banana Gun: Router"
            },
            {
                "address": "0xaf1f21987c63b8194c42eed6a8d5914985d65316",
                "label": "RSP Finance (RSP)"
            },
            {
                "address": "0x0000000000000000000000000000000000000001",
                "label": "Precompiled"
            },
            {
                "address": "0x0000000000000000000000000000000000000003",
                "label": "Precompiled"
            },
            {
                "address": "0x0000000000000000000000000000000000000004",
                "label": "Precompiled"
            },
            {
                "address": "0xeeeeeeeeeeeeeeeeeeeeeeeeeeeeeeeeeeeeeeee",
                "label": "Ether"
            },
            {
                "address": "0x9978572adaa17b7813049865a33c85267fa0d8c1",
                "label": "RSP_Dividend (RSP_Divid...)"
            },
            {
                "address": "0x792b314318909732f27edcc59d40315fc4de7eaa",
                "label": "Uniswap V2: RSP 7"
            }
        ]
    },
    "trace": {
        "accountLabels": null,
        "dataMap": {
            "-1": {
                "invocation": {
                    "address": "0xf36ed8d839fee2194c85c798e5c36b8491521f96",
                    "callData": "",
                    "decodedMethod": null,
                    "errorInfo": "",
                    "fromAddress": "",
                    "gasUsed": 0,
                    "id": -1,
                    "methodDecoded": false,
                    "operation": "",
                    "output": "",
                    "revert": false,
                    "revertMessage": "",
                    "selector": "",
                    "status": false,
                    "value": ""
                },
                "nodeType": 0
            },
            "0": {
                "invocation": {
                    "address": "0xdb5889e35e379ef0498aae126fc2cce1fbd23216",
                    "callData": "0x00000000000000000000000000000000000000000000000000000000000000e000000000000000000000000000000000000000000000000000000000000001600000000000000000000000007a250d5630b4cf539739df2c5dacb4c659f2488d0000000000000000000000000000000000000000000000000000000000000032000000000000000000000000000000000000000000000000000000000000000100000000000000000000000000000000000000000000000000000000000000000000000000000000000000000000000000000000000000000000000064ff549700000000000000000000000000000000000000000000000000000000000000030000000000000000000000000000000000000000000000000000000000000000000000000000000000000000000000000000000000000000000000000000000000000000000000000000000000000000000000000000000000000000000000000000000000000000000000000000000000000000000000000000000000000002000000000000000000000000c02aaa39b223fe8d0a0e5c4f27ead9083c756cc2000000000000000000000000af1f21987c63b8194c42eed6a8d5914985d65316",
                    "decodedMethod": null,
                    "errorInfo": "",
                    "fromAddress": "0xf36ed8d839fee2194c85c798e5c36b8491521f96",
                    "gasUsed": 263863,
                    "id": 0,
                    "methodDecoded": false,
                    "operation": "CALL",
                    "output": "",
                    "revert": false,
                    "revertMessage": "",
                    "selector": "0x0162e2d0",
                    "status": true,
                    "value": "0.5"
                },
                "nodeType": 0
            },
            "1": {
                "invocation": {
                    "address": "0xc6265979793435b496e28e61af1500c22c3ba277",
                    "callData": "0x00000000000000000000000000000000000000000000000006e7799d37c1c00000000000000000000000000000000000000000000000000000000000000000600000000000000000000000007a250d5630b4cf539739df2c5dacb4c659f2488d0000000000000000000000000000000000000000000000000000000000000002000000000000000000000000c02aaa39b223fe8d0a0e5c4f27ead9083c756cc2000000000000000000000000af1f21987c63b8194c42eed6a8d5914985d65316",
                    "decodedMethod": null,
                    "errorInfo": "",
                    "fromAddress": "0xdb5889e35e379ef0498aae126fc2cce1fbd23216",
                    "gasUsed": 9083,
                    "id": 1,
                    "methodDecoded": false,
                    "operation": "STATICCALL",
                    "output": "0x0000000000000000000000000000000000000000000000000000000000000020000000000000000000000000000000000000000000000000000000000000000200000000000000000000000000000000000000000000000006e7799d37c1c000000000000000000000000000000000000000000000000006222596a434003f21",
                    "revert": false,
                    "revertMessage": "",
                    "selector": "0x3cbb026e",
                    "status": true,
                    "value": "0"
                },
                "nodeType": 0
            },
            "10": {
                "invocation": {
                    "address": "0x792b314318909732f27edcc59d40315fc4de7eaa",
                    "callData": "0x",
                    "decodedMethod": {
                        "callParams": [],
                        "constructorArguments": "",
                        "name": "getReserves",
                        "returnParams": [
                            {
                                "name": "_reserve0",
                                "type": "uint112",
                                "value": "2,661,731,248,320,678,483,375"
                            },
                            {
                                "name": "_reserve1",
                                "type": "uint112",
                                "value": "11,172,959,796,959,671,755"
                            },
                            {
                                "name": "_blockTimestampLast",
                                "type": "uint32",
                                "value": "1,694,454,839"
                            }
                        ],
                        "signature": "getReserves()"
                    },
                    "errorInfo": "",
                    "fromAddress": "0xc6265979793435b496e28e61af1500c22c3ba277",
                    "gasUsed": 504,
                    "id": 10,
                    "methodDecoded": true,
                    "operation": "STATICCALL",
                    "output": "0x0000000000000000000000000000000000000000000000904af103e41f1855af0000000000000000000000000000000000000000000000009b0e53bd0b8075cb0000000000000000000000000000000000000000000000000000000064ff5437",
                    "revert": false,
                    "revertMessage": "",
                    "selector": "0x0902f1ac",
                    "status": true,
                    "value": "0"
                },
                "nodeType": 0
            },
            "11": {
                "invocation": {
                    "address": "0xc02aaa39b223fe8d0a0e5c4f27ead9083c756cc2",
                    "callData": "0x000000000000000000000000792b314318909732f27edcc59d40315fc4de7eaa",
                    "decodedMethod": {
                        "callParams": [
                            {
                                "name": "",
                                "type": "address",
                                "value": "0x792b314318909732f27edcc59d40315fc4de7eaa"
                            }
                        ],
                        "constructorArguments": "",
                        "name": "balanceOf",
                        "returnParams": [
                            {
                                "decimalAvailable": true,
                                "name": "",
                                "type": "uint256",
                                "value": "11,670,459,796,959,671,755"
                            }
                        ],
                        "signature": "balanceOf(address)"
                    },
                    "errorInfo": "",
                    "fromAddress": "0xc6265979793435b496e28e61af1500c22c3ba277",
                    "gasUsed": 534,
                    "id": 11,
                    "methodDecoded": true,
                    "operation": "STATICCALL",
                    "output": "0x000000000000000000000000000000000000000000000000a1f5cd5a434235cb",
                    "revert": false,
                    "revertMessage": "",
                    "selector": "0x70a08231",
                    "status": true,
                    "value": "0"
                },
                "nodeType": 0
            },
            "12": {
                "invocation": {
                    "address": "0x792b314318909732f27edcc59d40315fc4de7eaa",
                    "callData": "0x000000000000000000000000000000000000000000000006222596a434003f210000000000000000000000000000000000000000000000000000000000000000000000000000000000000000f36ed8d839fee2194c85c798e5c36b8491521f9600000000000000000000000000000000000000000000000000000000000000800000000000000000000000000000000000000000000000000000000000000000",
                    "decodedMethod": {
                        "callParams": [
                            {
                                "name": "amount0Out",
                                "type": "uint256",
                                "value": "113,141,002,845,676,388,129"
                            },
                            {
                                "name": "amount1Out",
                                "type": "uint256",
                                "value": "0"
                            },
                            {
                                "name": "to",
                                "type": "address",
                                "value": "0xf36ed8d839fee2194c85c798e5c36b8491521f96"
                            },
                            {
                                "name": "data",
                                "type": "bytes",
                                "value": "0x"
                            }
                        ],
                        "constructorArguments": "",
                        "name": "swap",
                        "returnParams": [],
                        "signature": "swap(uint256,uint256,address,bytes)"
                    },
                    "errorInfo": "",
                    "fromAddress": "0xc6265979793435b496e28e61af1500c22c3ba277",
                    "gasUsed": 165577,
                    "id": 12,
                    "methodDecoded": true,
                    "operation": "CALL",
                    "output": "",
                    "revert": false,
                    "revertMessage": "",
                    "selector": "0x022c0d9f",
                    "status": true,
                    "value": "0"
                },
                "nodeType": 0
            },
            "13": {
                "invocation": {
                    "address": "0xaf1f21987c63b8194c42eed6a8d5914985d65316",
                    "callData": "0x000000000000000000000000f36ed8d839fee2194c85c798e5c36b8491521f96000000000000000000000000000000000000000000000006222596a434003f21",
                    "decodedMethod": {
                        "callParams": [
                            {
                                "name": "to",
                                "type": "address",
                                "value": "0xf36ed8d839fee2194c85c798e5c36b8491521f96"
                            },
                            {
                                "decimalAvailable": true,
                                "name": "value",
                                "type": "uint256",
                                "value": "113,141,002,845,676,388,129"
                            }
                        ],
                        "constructorArguments": "",
                        "name": "transfer",
                        "returnParams": [
                            {
                                "name": "",
                                "type": "bool",
                                "value": true
                            }
                        ],
                        "signature": "transfer(address,uint256)"
                    },
                    "errorInfo": "",
                    "fromAddress": "0x792b314318909732f27edcc59d40315fc4de7eaa",
                    "gasUsed": 132567,
                    "id": 13,
                    "methodDecoded": true,
                    "operation": "CALL",
                    "output": "0x0000000000000000000000000000000000000000000000000000000000000001",
                    "revert": false,
                    "revertMessage": "",
                    "selector": "0xa9059cbb",
                    "status": true,
                    "value": "0"
                },
                "nodeType": 0
            },
            "14": {
                "event": {
                    "contract": "0xaf1f21987c63b8194c42eed6a8d5914985d65316",
                    "decodedLog": {
                        "name": "Transfer",
                        "params": [
                            {
                                "name": "from",
                                "type": "address",
                                "value": "0x792b314318909732f27edcc59d40315fc4de7eaa"
                            },
                            {
                                "name": "to",
                                "type": "address",
                                "value": "0xaf1f21987c63b8194c42eed6a8d5914985d65316"
                            },
                            {
                                "decimalAvailable": true,
                                "name": "value",
                                "type": "uint256",
                                "value": "5,657,050,142,283,819,406"
                            }
                        ],
                        "signature": "Transfer(address,address,uint256)"
                    },
                    "id": 14,
                    "logData": "0x0000000000000000000000000000000000000000000000004e81e121cf66698e",
                    "logDecoded": true,
                    "operation": "EVENT",
                    "revert": false,
                    "status": true,
                    "topics": [
                        "0xddf252ad1be2c89b69c2b068fc378daa952ba7f163c4a11628f55a4df523b3ef",
                        "0x000000000000000000000000792b314318909732f27edcc59d40315fc4de7eaa",
                        "0x000000000000000000000000af1f21987c63b8194c42eed6a8d5914985d65316"
                    ]
                },
                "nodeType": 1
            },
            "15": {
                "invocation": {
                    "address": "0x9978572adaa17b7813049865a33c85267fa0d8c1",
                    "callData": "0x000000000000000000000000792b314318909732f27edcc59d40315fc4de7eaa000000000000000000000000000000000000000000159980694edcf4918e3df4",
                    "decodedMethod": {
                        "callParams": [
                            {
                                "name": "account",
                                "type": "address",
                                "value": "0x792b314318909732f27edcc59d40315fc4de7eaa"
                            },
                            {
                                "name": "newBalance",
                                "type": "uint256",
                                "value": "26,112,333,055,273,068,347,145,716"
                            }
                        ],
                        "constructorArguments": "",
                        "name": "setBalance",
                        "returnParams": [],
                        "signature": "setBalance(address,uint256)"
                    },
                    "errorInfo": "",
                    "fromAddress": "0xaf1f21987c63b8194c42eed6a8d5914985d65316",
                    "gasUsed": 7349,
                    "id": 15,
                    "methodDecoded": true,
                    "operation": "CALL",
                    "output": "",
                    "revert": false,
                    "revertMessage": "",
                    "selector": "0xe30443bc",
                    "status": true,
                    "value": "0"
                },
                "nodeType": 0
            },
            "16": {
                "invocation": {
                    "address": "0x9978572adaa17b7813049865a33c85267fa0d8c1",
                    "callData": "0x000000000000000000000000f36ed8d839fee2194c85c798e5c36b8491521f9600000000000000000000000000000000000000000000e933585494de91d4ffef",
                    "decodedMethod": {
                        "callParams": [
                            {
                                "name": "account",
                                "type": "address",
                                "value": "0xf36ed8d839fee2194c85c798e5c36b8491521f96"
                            },
                            {
                                "name": "newBalance",
                                "type": "uint256",
                                "value": "1,101,258,539,332,243,553,583,087"
                            }
                        ],
                        "constructorArguments": "",
                        "name": "setBalance",
                        "returnParams": [],
                        "signature": "setBalance(address,uint256)"
                    },
                    "errorInfo": "",
                    "fromAddress": "0xaf1f21987c63b8194c42eed6a8d5914985d65316",
                    "gasUsed": 59026,
                    "id": 16,
                    "methodDecoded": true,
                    "operation": "CALL",
                    "output": "",
                    "revert": false,
                    "revertMessage": "",
                    "selector": "0xe30443bc",
                    "status": true,
                    "value": "0"
                },
                "nodeType": 0
            },
            "17": {
                "event": {
                    "contract": "0x9978572adaa17b7813049865a33c85267fa0d8c1",
                    "decodedLog": {
                        "name": "Transfer",
                        "params": [
                            {
                                "name": "from",
                                "type": "address",
                                "value": "0x0000000000000000000000000000000000000000"
                            },
                            {
                                "name": "to",
                                "type": "address",
                                "value": "0xf36ed8d839fee2194c85c798e5c36b8491521f96"
                            },
                            {
                                "decimalAvailable": true,
                                "name": "value",
                                "type": "uint256",
                                "value": "1,101,258,539,332,243,553,583,087"
                            }
                        ],
                        "signature": "Transfer(address,address,uint256)"
                    },
                    "id": 17,
                    "logData": "0x00000000000000000000000000000000000000000000e933585494de91d4ffef",
                    "logDecoded": true,
                    "operation": "EVENT",
                    "revert": false,
                    "status": true,
                    "topics": [
                        "0xddf252ad1be2c89b69c2b068fc378daa952ba7f163c4a11628f55a4df523b3ef",
                        "0x0000000000000000000000000000000000000000000000000000000000000000",
                        "0x000000000000000000000000f36ed8d839fee2194c85c798e5c36b8491521f96"
                    ]
                },
                "nodeType": 1
            },
            "18": {
                "event": {
                    "contract": "0xaf1f21987c63b8194c42eed6a8d5914985d65316",
                    "decodedLog": {
                        "name": "Transfer",
                        "params": [
                            {
                                "name": "from",
                                "type": "address",
                                "value": "0x792b314318909732f27edcc59d40315fc4de7eaa"
                            },
                            {
                                "name": "to",
                                "type": "address",
                                "value": "0xf36ed8d839fee2194c85c798e5c36b8491521f96"
                            },
                            {
                                "decimalAvailable": true,
                                "name": "value",
                                "type": "uint256",
                                "value": "107,483,952,703,392,568,723"
                            }
                        ],
                        "signature": "Transfer(address,address,uint256)"
                    },
                    "id": 18,
                    "logData": "0x000000000000000000000000000000000000000000000005d3a3b5826499d593",
                    "logDecoded": true,
                    "operation": "EVENT",
                    "revert": false,
                    "status": true,
                    "topics": [
                        "0xddf252ad1be2c89b69c2b068fc378daa952ba7f163c4a11628f55a4df523b3ef",
                        "0x000000000000000000000000792b314318909732f27edcc59d40315fc4de7eaa",
                        "0x000000000000000000000000f36ed8d839fee2194c85c798e5c36b8491521f96"
                    ]
                },
                "nodeType": 1
            },
            "19": {
                "invocation": {
                    "address": "0xaf1f21987c63b8194c42eed6a8d5914985d65316",
                    "callData": "0x000000000000000000000000792b314318909732f27edcc59d40315fc4de7eaa",
                    "decodedMethod": {
                        "callParams": [
                            {
                                "name": "who",
                                "type": "address",
                                "value": "0x792b314318909732f27edcc59d40315fc4de7eaa"
                            }
                        ],
                        "constructorArguments": "",
                        "name": "balanceOf",
                        "returnParams": [
                            {
                                "decimalAvailable": true,
                                "name": "",
                                "type": "uint256",
                                "value": "2,548,590,245,475,002,095,246"
                            }
                        ],
                        "signature": "balanceOf(address)"
                    },
                    "errorInfo": "",
                    "fromAddress": "0x792b314318909732f27edcc59d40315fc4de7eaa",
                    "gasUsed": 1153,
                    "id": 19,
                    "methodDecoded": true,
                    "operation": "STATICCALL",
                    "output": "0x00000000000000000000000000000000000000000000008a28cb6d3feb18168e",
                    "revert": false,
                    "revertMessage": "",
                    "selector": "0x70a08231",
                    "status": true,
                    "value": "0"
                },
                "nodeType": 0
            },
            "2": {
                "invocation": {
                    "address": "0x792b314318909732f27edcc59d40315fc4de7eaa",
                    "callData": "0x",
                    "decodedMethod": {
                        "callParams": [],
                        "constructorArguments": "",
                        "name": "getReserves",
                        "returnParams": [
                            {
                                "name": "_reserve0",
                                "type": "uint112",
                                "value": "2,661,731,248,320,678,483,375"
                            },
                            {
                                "name": "_reserve1",
                                "type": "uint112",
                                "value": "11,172,959,796,959,671,755"
                            },
                            {
                                "name": "_blockTimestampLast",
                                "type": "uint32",
                                "value": "1,694,454,839"
                            }
                        ],
                        "signature": "getReserves()"
                    },
                    "errorInfo": "",
                    "fromAddress": "0xc6265979793435b496e28e61af1500c22c3ba277",
                    "gasUsed": 2504,
                    "id": 2,
                    "methodDecoded": true,
                    "operation": "STATICCALL",
                    "output": "0x0000000000000000000000000000000000000000000000904af103e41f1855af0000000000000000000000000000000000000000000000009b0e53bd0b8075cb0000000000000000000000000000000000000000000000000000000064ff5437",
                    "revert": false,
                    "revertMessage": "",
                    "selector": "0x0902f1ac",
                    "status": true,
                    "value": "0"
                },
                "nodeType": 0
            },
            "20": {
                "invocation": {
                    "address": "0xc02aaa39b223fe8d0a0e5c4f27ead9083c756cc2",
                    "callData": "0x000000000000000000000000792b314318909732f27edcc59d40315fc4de7eaa",
                    "decodedMethod": {
                        "callParams": [
                            {
                                "name": "",
                                "type": "address",
                                "value": "0x792b314318909732f27edcc59d40315fc4de7eaa"
                            }
                        ],
                        "constructorArguments": "",
                        "name": "balanceOf",
                        "returnParams": [
                            {
                                "decimalAvailable": true,
                                "name": "",
                                "type": "uint256",
                                "value": "11,670,459,796,959,671,755"
                            }
                        ],
                        "signature": "balanceOf(address)"
                    },
                    "errorInfo": "",
                    "fromAddress": "0x792b314318909732f27edcc59d40315fc4de7eaa",
                    "gasUsed": 534,
                    "id": 20,
                    "methodDecoded": true,
                    "operation": "STATICCALL",
                    "output": "0x000000000000000000000000000000000000000000000000a1f5cd5a434235cb",
                    "revert": false,
                    "revertMessage": "",
                    "selector": "0x70a08231",
                    "status": true,
                    "value": "0"
                },
                "nodeType": 0
            },
            "21": {
                "event": {
                    "contract": "0x792b314318909732f27edcc59d40315fc4de7eaa",
                    "decodedLog": {
                        "name": "Sync",
                        "params": [
                            {
                                "name": "reserve0",
                                "type": "uint112",
                                "value": "2,548,590,245,475,002,095,246"
                            },
                            {
                                "name": "reserve1",
                                "type": "uint112",
                                "value": "11,670,459,796,959,671,755"
                            }
                        ],
                        "signature": "Sync(uint112,uint112)"
                    },
                    "id": 21,
                    "logData": "0x00000000000000000000000000000000000000000000008a28cb6d3feb18168e000000000000000000000000000000000000000000000000a1f5cd5a434235cb",
                    "logDecoded": true,
                    "operation": "EVENT",
                    "revert": false,
                    "status": true,
                    "topics": [
                        "0x1c411e9a96e071241c2f21f7726b17ae89e3cab4c78be50e062b03a9fffbbad1"
                    ]
                },
                "nodeType": 1
            },
            "22": {
                "event": {
                    "contract": "0x792b314318909732f27edcc59d40315fc4de7eaa",
                    "decodedLog": {
                        "name": "Swap",
                        "params": [
                            {
                                "name": "sender",
                                "type": "address",
                                "value": "0xc6265979793435b496e28e61af1500c22c3ba277"
                            },
                            {
                                "name": "to",
                                "type": "address",
                                "value": "0xf36ed8d839fee2194c85c798e5c36b8491521f96"
                            },
                            {
                                "name": "amount0In",
                                "type": "uint256",
                                "value": "0"
                            },
                            {
                                "name": "amount1In",
                                "type": "uint256",
                                "value": "497,500,000,000,000,000"
                            },
                            {
                                "name": "amount0Out",
                                "type": "uint256",
                                "value": "113,141,002,845,676,388,129"
                            },
                            {
                                "name": "amount1Out",
                                "type": "uint256",
                                "value": "0"
                            }
                        ],
                        "signature": "Swap(address,uint256,uint256,uint256,uint256,address)"
                    },
                    "id": 22,
                    "logData": "0x000000000000000000000000000000000000000000000000000000000000000000000000000000000000000000000000000000000000000006e7799d37c1c000000000000000000000000000000000000000000000000006222596a434003f210000000000000000000000000000000000000000000000000000000000000000",
                    "logDecoded": true,
                    "operation": "EVENT",
                    "revert": false,
                    "status": true,
                    "topics": [
                        "0xd78ad95fa46c994b6551d0da85fc275fe613ce37657fb8d5e3d130840159d822",
                        "0x000000000000000000000000c6265979793435b496e28e61af1500c22c3ba277",
                        "0x000000000000000000000000f36ed8d839fee2194c85c798e5c36b8491521f96"
                    ]
                },
                "nodeType": 1
            },
            "23": {
                "invocation": {
                    "address": "0xaf1f21987c63b8194c42eed6a8d5914985d65316",
                    "callData": "0x000000000000000000000000f36ed8d839fee2194c85c798e5c36b8491521f96",
                    "decodedMethod": {
                        "callParams": [
                            {
                                "name": "who",
                                "type": "address",
                                "value": "0xf36ed8d839fee2194c85c798e5c36b8491521f96"
                            }
                        ],
                        "constructorArguments": "",
                        "name": "balanceOf",
                        "returnParams": [
                            {
                                "decimalAvailable": true,
                                "name": "",
                                "type": "uint256",
                                "value": "107,483,952,703,392,568,723"
                            }
                        ],
                        "signature": "balanceOf(address)"
                    },
                    "errorInfo": "",
                    "fromAddress": "0xdb5889e35e379ef0498aae126fc2cce1fbd23216",
                    "gasUsed": 1153,
                    "id": 23,
                    "methodDecoded": true,
                    "operation": "STATICCALL",
                    "output": "0x000000000000000000000000000000000000000000000005d3a3b5826499d593",
                    "revert": false,
                    "revertMessage": "",
                    "selector": "0x70a08231",
                    "status": true,
                    "value": "0"
                },
                "nodeType": 0
            },
            "24": {
                "event": {
                    "contract": "0xdb5889e35e379ef0498aae126fc2cce1fbd23216",
                    "decodedLog": null,
                    "id": 24,
                    "logData": "0x0000000000000000000000000000000000000000000000000008d65e39e0f800000000000000000000000000f36ed8d839fee2194c85c798e5c36b8491521f96",
                    "logDecoded": false,
                    "operation": "EVENT",
                    "revert": false,
                    "status": true,
                    "topics": [
                        "0x0c2a2f565c7774c59e49ef6b3c255329f4d254147e06e724d3a8569bb7bd21ad"
                    ]
                },
                "nodeType": 1
            },
            "25": {
                "invocation": {
                    "address": "0xf36ed8d839fee2194c85c798e5c36b8491521f96",
                    "callData": "0x",
                    "decodedMethod": null,
                    "errorInfo": "",
                    "fromAddress": "0xdb5889e35e379ef0498aae126fc2cce1fbd23216",
                    "gasUsed": 0,
                    "id": 25,
                    "methodDecoded": false,
                    "operation": "CALL",
                    "output": "",
                    "revert": false,
                    "revertMessage": "",
                    "selector": "fallback",
                    "status": true,
                    "value": "0.0000125"
                },
                "nodeType": 0
            },
            "26": {
                "event": {
                    "contract": "0xdb5889e35e379ef0498aae126fc2cce1fbd23216",
                    "decodedLog": null,
                    "id": 26,
                    "logData": "0x00000000000000000000000000000000000000000000000006e7799d37c1c000000000000000000000000000000000000000000000000005d3a3b5826499d593000000000000000000000000000000000000000000000006222596a434003f21",
                    "logDecoded": false,
                    "operation": "EVENT",
                    "revert": false,
                    "status": true,
                    "topics": [
                        "0x9f849d23f4955d98202378ea318f2b0c7533695d3c9fb2a3931f0f919fa8c420"
                    ]
                },
                "nodeType": 1
            },
            "3": {
                "invocation": {
                    "address": "0xc02aaa39b223fe8d0a0e5c4f27ead9083c756cc2",
                    "callData": "0x",
                    "decodedMethod": {
                        "callParams": [],
                        "constructorArguments": "",
                        "name": "deposit",
                        "returnParams": [],
                        "signature": "deposit()"
                    },
                    "errorInfo": "",
                    "fromAddress": "0xdb5889e35e379ef0498aae126fc2cce1fbd23216",
                    "gasUsed": 23974,
                    "id": 3,
                    "methodDecoded": true,
                    "operation": "CALL",
                    "output": "",
                    "revert": false,
                    "revertMessage": "",
                    "selector": "0xd0e30db0",
                    "status": true,
                    "value": "0.4975"
                },
                "nodeType": 0
            },
            "4": {
                "event": {
                    "contract": "0xc02aaa39b223fe8d0a0e5c4f27ead9083c756cc2",
                    "decodedLog": {
                        "name": "Deposit",
                        "params": [
                            {
                                "name": "dst",
                                "type": "address",
                                "value": "0xdb5889e35e379ef0498aae126fc2cce1fbd23216"
                            },
                            {
                                "name": "wad",
                                "type": "uint256",
                                "value": "497,500,000,000,000,000"
                            }
                        ],
                        "signature": "Deposit(address,uint256)"
                    },
                    "id": 4,
                    "logData": "0x00000000000000000000000000000000000000000000000006e7799d37c1c000",
                    "logDecoded": true,
                    "operation": "EVENT",
                    "revert": false,
                    "status": true,
                    "topics": [
                        "0xe1fffcc4923d04b559f4d29a8bfc6cda04eb5b0d3c460751c2402c5c5cc9109c",
                        "0x000000000000000000000000db5889e35e379ef0498aae126fc2cce1fbd23216"
                    ]
                },
                "nodeType": 1
            },
            "5": {
                "invocation": {
                    "address": "0xc6265979793435b496e28e61af1500c22c3ba277",
                    "callData": "0x0000000000000000000000007a250d5630b4cf539739df2c5dacb4c659f2488d000000000000000000000000c02aaa39b223fe8d0a0e5c4f27ead9083c756cc2000000000000000000000000af1f21987c63b8194c42eed6a8d5914985d65316",
                    "decodedMethod": null,
                    "errorInfo": "",
                    "fromAddress": "0xdb5889e35e379ef0498aae126fc2cce1fbd23216",
                    "gasUsed": 1419,
                    "id": 5,
                    "methodDecoded": false,
                    "operation": "STATICCALL",
                    "output": "0x000000000000000000000000792b314318909732f27edcc59d40315fc4de7eaa",
                    "revert": false,
                    "revertMessage": "",
                    "selector": "0x88813e1f",
                    "status": true,
                    "value": "0"
                },
                "nodeType": 0
            },
            "6": {
                "invocation": {
                    "address": "0xc02aaa39b223fe8d0a0e5c4f27ead9083c756cc2",
                    "callData": "0x000000000000000000000000792b314318909732f27edcc59d40315fc4de7eaa00000000000000000000000000000000000000000000000006e7799d37c1c000",
                    "decodedMethod": {
                        "callParams": [
                            {
                                "name": "dst",
                                "type": "address",
                                "value": "0x792b314318909732f27edcc59d40315fc4de7eaa"
                            },
                            {
                                "decimalAvailable": true,
                                "name": "wad",
                                "type": "uint256",
                                "value": "497,500,000,000,000,000"
                            }
                        ],
                        "constructorArguments": "",
                        "name": "transfer",
                        "returnParams": [
                            {
                                "name": "",
                                "type": "bool",
                                "value": true
                            }
                        ],
                        "signature": "transfer(address,uint256)"
                    },
                    "errorInfo": "",
                    "fromAddress": "0xdb5889e35e379ef0498aae126fc2cce1fbd23216",
                    "gasUsed": 8062,
                    "id": 6,
                    "methodDecoded": true,
                    "operation": "CALL",
                    "output": "0x0000000000000000000000000000000000000000000000000000000000000001",
                    "revert": false,
                    "revertMessage": "",
                    "selector": "0xa9059cbb",
                    "status": true,
                    "value": "0"
                },
                "nodeType": 0
            },
            "7": {
                "event": {
                    "contract": "0xc02aaa39b223fe8d0a0e5c4f27ead9083c756cc2",
                    "decodedLog": {
                        "name": "Transfer",
                        "params": [
                            {
                                "name": "src",
                                "type": "address",
                                "value": "0xdb5889e35e379ef0498aae126fc2cce1fbd23216"
                            },
                            {
                                "name": "dst",
                                "type": "address",
                                "value": "0x792b314318909732f27edcc59d40315fc4de7eaa"
                            },
                            {
                                "decimalAvailable": true,
                                "name": "wad",
                                "type": "uint256",
                                "value": "497,500,000,000,000,000"
                            }
                        ],
                        "signature": "Transfer(address,address,uint256)"
                    },
                    "id": 7,
                    "logData": "0x00000000000000000000000000000000000000000000000006e7799d37c1c000",
                    "logDecoded": true,
                    "operation": "EVENT",
                    "revert": false,
                    "status": true,
                    "topics": [
                        "0xddf252ad1be2c89b69c2b068fc378daa952ba7f163c4a11628f55a4df523b3ef",
                        "0x000000000000000000000000db5889e35e379ef0498aae126fc2cce1fbd23216",
                        "0x000000000000000000000000792b314318909732f27edcc59d40315fc4de7eaa"
                    ]
                },
                "nodeType": 1
            },
            "8": {
                "invocation": {
                    "address": "0xaf1f21987c63b8194c42eed6a8d5914985d65316",
                    "callData": "0x000000000000000000000000f36ed8d839fee2194c85c798e5c36b8491521f96",
                    "decodedMethod": {
                        "callParams": [
                            {
                                "name": "who",
                                "type": "address",
                                "value": "0xf36ed8d839fee2194c85c798e5c36b8491521f96"
                            }
                        ],
                        "constructorArguments": "",
                        "name": "balanceOf",
                        "returnParams": [
                            {
                                "decimalAvailable": true,
                                "name": "",
                                "type": "uint256",
                                "value": "0"
                            }
                        ],
                        "signature": "balanceOf(address)"
                    },
                    "errorInfo": "",
                    "fromAddress": "0xdb5889e35e379ef0498aae126fc2cce1fbd23216",
                    "gasUsed": 5153,
                    "id": 8,
                    "methodDecoded": true,
                    "operation": "STATICCALL",
                    "output": "0x0000000000000000000000000000000000000000000000000000000000000000",
                    "revert": false,
                    "revertMessage": "",
                    "selector": "0x70a08231",
                    "status": true,
                    "value": "0"
                },
                "nodeType": 0
            },
            "9": {
                "invocation": {
                    "address": "0xc6265979793435b496e28e61af1500c22c3ba277",
                    "callData": "0x0000000000000000000000000000000000000000000000000000000000000060000000000000000000000000f36ed8d839fee2194c85c798e5c36b8491521f960000000000000000000000007a250d5630b4cf539739df2c5dacb4c659f2488d0000000000000000000000000000000000000000000000000000000000000002000000000000000000000000c02aaa39b223fe8d0a0e5c4f27ead9083c756cc2000000000000000000000000af1f21987c63b8194c42eed6a8d5914985d65316",
                    "decodedMethod": null,
                    "errorInfo": "",
                    "fromAddress": "0xdb5889e35e379ef0498aae126fc2cce1fbd23216",
                    "gasUsed": 171292,
                    "id": 9,
                    "methodDecoded": false,
                    "operation": "CALL",
                    "output": "",
                    "revert": false,
                    "revertMessage": "",
                    "selector": "0x5154e7f4",
                    "status": true,
                    "value": "0"
                },
                "nodeType": 0
            }
        },
        "gasFlame": [
            {
                "children": [
                    {
                        "children": [
                            {
                                "children": [],
                                "depth": 0,
                                "name": "Initial Gas",
                                "value": 23708
                            },
                            {
                                "children": [
                                    {
                                        "children": [
                                            {
                                                "children": [],
                                                "depth": 2,
                                                "name": "getReserves",
                                                "value": 2504
                                            }
                                        ],
                                        "depth": 1,
                                        "name": "0x3cbb026e",
                                        "value": 9083
                                    },
                                    {
                                        "children": [],
                                        "depth": 1,
                                        "name": "deposit",
                                        "value": 23974
                                    },
                                    {
                                        "children": [],
                                        "depth": 1,
                                        "name": "0x88813e1f",
                                        "value": 1419
                                    },
                                    {
                                        "children": [],
                                        "depth": 1,
                                        "name": "transfer",
                                        "value": 8062
                                    },
                                    {
                                        "children": [],
                                        "depth": 1,
                                        "name": "balanceOf",
                                        "value": 5153
                                    },
                                    {
                                        "children": [
                                            {
                                                "children": [],
                                                "depth": 2,
                                                "name": "getReserves",
                                                "value": 504
                                            },
                                            {
                                                "children": [],
                                                "depth": 2,
                                                "name": "balanceOf",
                                                "value": 534
                                            },
                                            {
                                                "children": [
                                                    {
                                                        "children": [
                                                            {
                                                                "children": [],
                                                                "depth": 4,
                                                                "name": "setBalance",
                                                                "value": 7349
                                                            },
                                                            {
                                                                "children": [],
                                                                "depth": 4,
                                                                "name": "setBalance",
                                                                "value": 59026
                                                            }
                                                        ],
                                                        "depth": 3,
                                                        "name": "transfer",
                                                        "value": 132567
                                                    },
                                                    {
                                                        "children": [],
                                                        "depth": 3,
                                                        "name": "balanceOf",
                                                        "value": 1153
                                                    },
                                                    {
                                                        "children": [],
                                                        "depth": 3,
                                                        "name": "balanceOf",
                                                        "value": 534
                                                    }
                                                ],
                                                "depth": 2,
                                                "name": "swap",
                                                "value": 165577
                                            }
                                        ],
                                        "depth": 1,
                                        "name": "0x5154e7f4",
                                        "value": 171292
                                    },
                                    {
                                        "children": [],
                                        "depth": 1,
                                        "name": "balanceOf",
                                        "value": 1153
                                    },
                                    {
                                        "children": [],
                                        "depth": 1,
                                        "name": "fallback",
                                        "value": 0
                                    }
                                ],
                                "depth": 0,
                                "name": "Executed Gas",
                                "value": 262855
                            }
                        ],
                        "depth": -1,
                        "name": "Actual Gas Used",
                        "value": 263863
                    },
                    {
                        "children": [],
                        "depth": -1,
                        "name": "Refunded Gas",
                        "value": 22700
                    }
                ],
                "depth": -2,
                "name": "Total Gas",
                "value": 286563
            }
        ],
        "isConfirmed": true,
        "mainTrace": [
            {
                "children": [
                    {
                        "children": [
                            {
                                "children": [
                                    {
                                        "children": [],
                                        "depth": 2,
                                        "id": 2,
                                        "order": 2
                                    }
                                ],
                                "depth": 1,
                                "id": 1,
                                "order": 1
                            },
                            {
                                "children": [
                                    {
                                        "children": [],
                                        "depth": 2,
                                        "id": 4,
                                        "order": 4
                                    }
                                ],
                                "depth": 1,
                                "id": 3,
                                "order": 3
                            },
                            {
                                "children": [],
                                "depth": 1,
                                "id": 5,
                                "order": 5
                            },
                            {
                                "children": [
                                    {
                                        "children": [],
                                        "depth": 2,
                                        "id": 7,
                                        "order": 7
                                    }
                                ],
                                "depth": 1,
                                "id": 6,
                                "order": 6
                            },
                            {
                                "children": [],
                                "depth": 1,
                                "id": 8,
                                "order": 8
                            },
                            {
                                "children": [
                                    {
                                        "children": [],
                                        "depth": 2,
                                        "id": 10,
                                        "order": 10
                                    },
                                    {
                                        "children": [],
                                        "depth": 2,
                                        "id": 11,
                                        "order": 11
                                    },
                                    {
                                        "children": [
                                            {
                                                "children": [
                                                    {
                                                        "children": [],
                                                        "depth": 4,
                                                        "id": 14,
                                                        "order": 14
                                                    },
                                                    {
                                                        "children": [],
                                                        "depth": 4,
                                                        "id": 15,
                                                        "order": 15
                                                    },
                                                    {
                                                        "children": [
                                                            {
                                                                "children": [],
                                                                "depth": 5,
                                                                "id": 17,
                                                                "order": 17
                                                            }
                                                        ],
                                                        "depth": 4,
                                                        "id": 16,
                                                        "order": 16
                                                    },
                                                    {
                                                        "children": [],
                                                        "depth": 4,
                                                        "id": 18,
                                                        "order": 18
                                                    }
                                                ],
                                                "depth": 3,
                                                "id": 13,
                                                "order": 13
                                            },
                                            {
                                                "children": [],
                                                "depth": 3,
                                                "id": 19,
                                                "order": 19
                                            },
                                            {
                                                "children": [],
                                                "depth": 3,
                                                "id": 20,
                                                "order": 20
                                            },
                                            {
                                                "children": [],
                                                "depth": 3,
                                                "id": 21,
                                                "order": 21
                                            },
                                            {
                                                "children": [],
                                                "depth": 3,
                                                "id": 22,
                                                "order": 22
                                            }
                                        ],
                                        "depth": 2,
                                        "id": 12,
                                        "order": 12
                                    }
                                ],
                                "depth": 1,
                                "id": 9,
                                "order": 9
                            },
                            {
                                "children": [],
                                "depth": 1,
                                "id": 23,
                                "order": 23
                            },
                            {
                                "children": [],
                                "depth": 1,
                                "id": 24,
                                "order": 24
                            },
                            {
                                "children": [],
                                "depth": 1,
                                "id": 25,
                                "order": 25
                            },
                            {
                                "children": [],
                                "depth": 1,
                                "id": 26,
                                "order": 26
                            }
                        ],
                        "depth": 0,
                        "id": 0,
                        "order": 0
                    }
                ],
                "depth": -1,
                "id": -1,
                "order": -1
            }
        ],
        "mainTraceNodeCount": 27,
        "parentIdMap": {
            "0": -1,
            "1": 0,
            "10": 9,
            "11": 9,
            "12": 9,
            "13": 12,
            "14": 13,
            "15": 13,
            "16": 13,
            "17": 16,
            "18": 13,
            "19": 12,
            "2": 1,
            "20": 12,
            "21": 12,
            "22": 12,
            "23": 0,
            "24": 0,
            "25": 0,
            "26": 0,
            "3": 0,
            "4": 3,
            "5": 0,
            "6": 0,
            "7": 6,
            "8": 0,
            "9": 0
        },
        "tidyTrace": [
            {
                "children": [
                    {
                        "children": [
                            {
                                "children": [
                                    {
                                        "children": [],
                                        "depth": 2,
                                        "id": 4,
                                        "order": 4
                                    }
                                ],
                                "depth": 1,
                                "id": 3,
                                "order": 3
                            },
                            {
                                "children": [
                                    {
                                        "children": [],
                                        "depth": 2,
                                        "id": 7,
                                        "order": 7
                                    }
                                ],
                                "depth": 1,
                                "id": 6,
                                "order": 6
                            },
                            {
                                "children": [
                                    {
                                        "children": [
                                            {
                                                "children": [
                                                    {
                                                        "children": [],
                                                        "depth": 4,
                                                        "id": 14,
                                                        "order": 14
                                                    },
                                                    {
                                                        "children": [],
                                                        "depth": 4,
                                                        "id": 15,
                                                        "order": 15
                                                    },
                                                    {
                                                        "children": [
                                                            {
                                                                "children": [],
                                                                "depth": 5,
                                                                "id": 17,
                                                                "order": 17
                                                            }
                                                        ],
                                                        "depth": 4,
                                                        "id": 16,
                                                        "order": 16
                                                    },
                                                    {
                                                        "children": [],
                                                        "depth": 4,
                                                        "id": 18,
                                                        "order": 18
                                                    }
                                                ],
                                                "depth": 3,
                                                "id": 13,
                                                "order": 13
                                            },
                                            {
                                                "children": [],
                                                "depth": 3,
                                                "id": 21,
                                                "order": 21
                                            },
                                            {
                                                "children": [],
                                                "depth": 3,
                                                "id": 22,
                                                "order": 22
                                            }
                                        ],
                                        "depth": 2,
                                        "id": 12,
                                        "order": 12
                                    }
                                ],
                                "depth": 1,
                                "id": 9,
                                "order": 9
                            },
                            {
                                "children": [],
                                "depth": 1,
                                "id": 24,
                                "order": 24
                            },
                            {
                                "children": [],
                                "depth": 1,
                                "id": 25,
                                "order": 25
                            },
                            {
                                "children": [],
                                "depth": 1,
                                "id": 26,
                                "order": 26
                            }
                        ],
                        "depth": 0,
                        "id": 0,
                        "order": 0
                    }
                ],
                "depth": -1,
                "id": -1,
                "order": -1
            }
        ],
        "tidyTraceNodeCount": 18
    },
    "state_change": {
        "stateChanges": [
            {
                "address": "0x792b314318909732f27edcc59d40315fc4de7eaa",
                "erc": "ERC-20",
                "slots": [
                    {
                        "current": "0x000000000000000000000000000000000017e0332b0d09768c2462ce3aa888b4",
                        "key": "0x0000000000000000000000000000000000000000000000000000000000000009",
                        "prev": "0x0000000000000000000000000000000000177909f89d1b1f45d889b3859a2c54"
                    },
                    {
                        "current": "0x000000000000000000000000000000b3b870da5a17feed24939d9ea20ca2194c",
                        "key": "0x000000000000000000000000000000000000000000000000000000000000000a",
                        "prev": "0x000000000000000000000000000000b35f1acc644b2506984fe0a74abb2ba70c"
                    },
                    {
                        "current": "0x64ff5497000000000000a1f5cd5a434235cb00000000008a28cb6d3feb18168e",
                        "key": "0x0000000000000000000000000000000000000000000000000000000000000008",
                        "prev": "0x64ff54370000000000009b0e53bd0b8075cb0000000000904af103e41f1855af"
                    }
                ],
                "storageVariables": [
                    {
                        "name": "price0CumulativeLast",
                        "type": "uint256",
                        "value": {
                            "current": "123970141457423383197662431930779828",
                            "prev": "121877789304017386106638952184818772",
                            "typeTag": 1
                        }
                    },
                    {
                        "name": "price1CumulativeLast",
                        "type": "uint256",
                        "value": {
                            "current": "61155707596023819945860342560350959442252",
                            "prev": "61036959483723505406891244840630094636812",
                            "typeTag": 1
                        }
                    },
                    {
                        "name": "reserve0",
                        "type": "uint112",
                        "value": {
                            "current": "2548590245475002095246",
                            "prev": "2661731248320678483375",
                            "typeTag": 1
                        }
                    },
                    {
                        "name": "reserve1",
                        "type": "uint112",
                        "value": {
                            "current": "11670459796959671755",
                            "prev": "11172959796959671755",
                            "typeTag": 1
                        }
                    },
                    {
                        "name": "blockTimestampLast",
                        "type": "uint32",
                        "value": {
                            "current": "1694454935",
                            "prev": "1694454839",
                            "typeTag": 1
                        }
                    }
                ]
            },
            {
                "address": "0x9978572adaa17b7813049865a33c85267fa0d8c1",
                "erc": "",
                "slots": [
                    {
                        "current": "0xfffffffffffffffffe8b66d6cf62777b787019d40d88d7c001d3afe260f76d9f",
                        "key": "0xb04cbf4cdb4aa98b7e9863c0dea44b757ce103532145f3ac87e2dbeacbfd77ce",
                        "prev": "0x0000000000000000000000000000000000000000000000000000000000000000"
                    },
                    {
                        "current": "0x0000000000000000000000000000000000000000003cf748878012015b6abb13",
                        "key": "0x0000000000000000000000000000000000000000000000000000000000000002",
                        "prev": "0x0000000000000000000000000000000000000000003c0e152f2b7d22c995bb24"
                    },
                    {
                        "current": "0x00000000000000000000000000000000000000000000e933585494de91d4ffef",
                        "key": "0x726a88946fac17fe15a341623569a7c5b3e59aee21756e6ba56a9685a5c2c979",
                        "prev": "0x0000000000000000000000000000000000000000000000000000000000000000"
                    }
                ],
                "storageVariables": []
            },
            {
                "address": "0xaf1f21987c63b8194c42eed6a8d5914985d65316",
                "erc": "ERC-20",
                "slots": [
                    {
                        "current": "0x000000000000000000000000000000000000000000000000000000000000012c",
                        "key": "0x000000000000000000000000000000000000000000000000000000000000000f",
                        "prev": "0x000000000000000000000000000000000000000000000000000000000000012b"
                    },
                    {
                        "current": "0x42d8fa84f252cc267683a5f16a01e8dd4ce989b262f8838d736fcaf2a549ad59",
                        "key": "0xe88b9ac7223ba823f70360a3bf7d96eb7416dbeafc2240af81ea3130b04c48f2",
                        "prev": "0x45d0af4802261b1a50be2168e25f464885d7e84c63af706ddbcd8f6171a67d27"
                    },
                    {
                        "current": "0x0078d1b094da802220b2af1acce517d1d89c78c0e213b26aec38060cee18bc80",
                        "key": "0x1109aec8ed9ec4f4d8bb1c9313081fd14c17194b0dc5c8bc1d0a946fa8096102",
                        "prev": "0x0052d573a0dcbc2f89344c789bc6becc8daadb42ceccb12a239fd945e6aaeebc"
                    },
                    {
                        "current": "0x02d1b8861bd58b0142bc18d5473f0465edfcc11bed6feb9f9fc597a7c4ef020a",
                        "key": "0xe7b6ed967f23d991f3bf0cb235a58a4a3ed1c03100c32252bec15b2f265d4c4c",
                        "prev": "0x0000000000000000000000000000000000000000000000000000000000000000"
                    }
                ],
                "storageVariables": [
                    {
                        "name": "_buyCount",
                        "type": "uint256",
                        "value": {
                            "current": "300",
                            "prev": "299",
                            "typeTag": 1
                        }
                    },
                    {
                        "name": "_partBalances",
                        "type": "mapping(address => uint256)",
                        "value": {
                            "pairs": [
                                {
                                    "key": "0x792b314318909732f27edcc59d40315fc4de7eaa",
                                    "value": {
                                        "current": "30236015993307005836673478076246690231014507194316179056098354272384955559257",
                                        "prev": "31578300488672433550964870352076351445356781765777975774908727633452319800615",
                                        "typeTag": 1
                                    }
                                },
                                {
                                    "key": "0xaf1f21987c63b8194c42eed6a8d5914985d65316",
                                    "value": {
                                        "current": "213468873386603833507519184208356861842083827258992391820647902711289265280",
                                        "prev": "146354648618332447798288289428745499594070139808202728340877303284700475068",
                                        "typeTag": 1
                                    }
                                },
                                {
                                    "key": "0xf36ed8d839fee2194c85c798e5c36b8491521f96",
                                    "value": {
                                        "current": "1275170270597156328582161381050049852094260884011007055330602761640775451146",
                                        "prev": "0",
                                        "typeTag": 1
                                    }
                                }
                            ],
                            "typeTag": 4
                        }
                    }
                ]
            },
            {
                "address": "0xc02aaa39b223fe8d0a0e5c4f27ead9083c756cc2",
                "erc": "ERC-20",
                "slots": [
                    {
                        "current": "0x000000000000000000000000000000000000000000000000a1f5cd5a434235cb",
                        "key": "0xd3f25815380aae41e90bd41c344129853ea96dd2b9317654bc871337d9312259",
                        "prev": "0x0000000000000000000000000000000000000000000000009b0e53bd0b8075cb"
                    }
                ],
                "storageVariables": [
                    {
                        "name": "balanceOf",
                        "type": "mapping(address => uint256)",
                        "value": {
                            "pairs": [
                                {
                                    "key": "0x792b314318909732f27edcc59d40315fc4de7eaa",
                                    "value": {
                                        "current": "11670459796959671755",
                                        "prev": "11172959796959671755",
                                        "typeTag": 1
                                    }
                                }
                            ],
                            "typeTag": 4
                        }
                    }
                ]
            },
            {
                "address": "0xdb5889e35e379ef0498aae126fc2cce1fbd23216",
                "erc": "",
                "slots": [
                    {
                        "current": "0x0000000000000000000000000000000000000000000000033c6b6881715f243b",
                        "key": "0x0000000000000000000000000000000000000000000000000000000000000000",
                        "prev": "0x0000000000000000000000000000000000000000000000033c629223377e2c3b"
                    }
                ],
                "storageVariables": []
            }
        ]
    }
}