{
    "balance_change": {
        "balanceChanges": []
    },
    "profile": {
        "basic_info": {
            "baseFee": "102.375625324",
            "blockNumber": 13610680,
            "callData": "0xc98075390000000000000000000000000000000000000000000000000000000000000080000000000000000000000000000000000000000000000000000000000000032000000000000000000000000000000000000000000000000000000000000004000100000000000000000000000000000000000000000000000000000000000000000000000000000000000000000000000000000000000000000000000000028000000000000000000000002e3b39a4e7314bd04962652f4d805e5400016d5206010f040d090e02070c080a0b0600050300000000000000000000000000000000000000000000000000000000000000000000000000000000000000000000006000000000000000000000000000000000000000000000000000000000000000100000000000000000000000000000000000000000000000000001fe79581cdfe50000000000000000000000000000000000000000000000000001fe8576859e770000000000000000000000000000000000000000000000000001fe8576859e770000000000000000000000000000000000000000000000000001fe8576859e770000000000000000000000000000000000000000000000000001fea0017e7d800000000000000000000000000000000000000000000000000001fea0017e7d800000000000000000000000000000000000000000000000000001fea0017e7d800000000000000000000000000000000000000000000000000001feb667fbb46a0000000000000000000000000000000000000000000000000001ff528a03012f0000000000000000000000000000000000000000000000000001ffdc67b6f53b0000000000000000000000000000000000000000000000000002001084306da80000000000000000000000000000000000000000000000000002001084306da80000000000000000000000000000000000000000000000000002001084306da80000000000000000000000000000000000000000000000000002001084306da8000000000000000000000000000000000000000000000000000200a523951d00000000000000000000000000000000000000000000000000000200fd8f0ad900000000000000000000000000000000000000000000000000000000000000000668d3fe8da1a7c2120902c196ffab222cbaed8cc7102a603d982bee4e4c4064e652b321346bd4487e61592d626bb4cf6bde3fd22bb7b2fb231d1aae07c683823dcfc8139961fa372c91231ab80c831e7c6add6dae40c21fc252ec38e87d57f1bb43caf076edaec0e37afcb2a5ab60412a48add8551d1ce95035fabb1450d80b18178147cf8dd59c928cf205b735d88bdc6a4029f99d8e9d758465e81f640109b8254cfd48f2dca8a5e765a6584e359742ace3429bd4ed1221281d11b40ed03be1000000000000000000000000000000000000000000000000000000000000000611fde11a3ea59fed6e8f24f574c51a69673e262dde8532d1d8a87f0b99af97597007f3ad3353520a4b844bec2fc249daf6ea9869fce6ea6ab9f42fd8f8b984c16ed43b8ff68987b73dd9056d69cbda46218fa0e1b6a48341a7f1c1f9ade2864544003339ed6de8340b3690d959d7876c96c4394a35806bfa47517b7882e1af305f1c53cd0cb3f6953972982a7fed2a0f0f7fb523d6563c49de4b740b89ec9f38113dea1d1bca707480a66817fab56faa8b7bd1463580812565055f650e570c7f",
            "debugEnable": true,
            "errorInfo": "",
            "eventCount": 3,
            "feeRecipient": "0x829bd824b016326a401d083b33d092293333a830",
            "formatValue": "0",
            "gasLimit": 500000,
            "gasPrice": "120.886314758",
            "gasUsed": 176859,
            "intTxnCount": 6,
            "internalRevert": false,
            "internalRevertMessage": "",
            "isContractCreation": false,
            "isFlashloan": false,
            "maxFee": "",
            "nonce": 28621,
            "overwritedBlockNumber": -1,
            "priorityFee": "",
            "receiver": "0xbdb80d19dea36eb7f63bdfd2bdd4033b2b7e8e4d",
            "revertMessage": "",
            "sender": "0xf07131f578a5f708ae2ccb9faf98458099e0ffb4",
            "simulationEnable": true,
            "sourceTxnHash": "0x3ca5bb7249c5abe21c2d15a001b881b676d42f797ea090fee079d07a82ef2929",
            "status": true,
            "timestamp": "2021-11-13T23:54:01Z",
            "transactionFee": "0.021379832741785122",
            "txnHash": "0x3ca5bb7249c5abe21c2d15a001b881b676d42f797ea090fee079d07a82ef2929",
            "txnIndex": 6,
            "type": 0,
            "value": "0"
        },
        "fund_flow": [],
        "token_infos": [
            {
                "address": "0xc02aaa39b223fe8d0a0e5c4f27ead9083c756cc2",
                "decimals": 18
            },
            {
                "address": "0xeeeeeeeeeeeeeeeeeeeeeeeeeeeeeeeeeeeeeeee",
                "decimals": 18
            }
        ]
    },
    "address_label": {
        "labels": [
            {
                "address": "0xbdb80d19dea36eb7f63bdfd2bdd4033b2b7e8e4d",
                "label": "AccessControlledOffchainAggregator"
            },
            {
                "address": "0x0000000000000000000000000000000000000001",
                "label": "Precompiled"
            },
            {
                "address": "0x0000000000000000000000000000000000000002",
                "label": "Precompiled"
            },
            {
                "address": "0x0000000000000000000000000000000000000003",
                "label": "Precompiled"
            },
            {
                "address": "0x0000000000000000000000000000000000000004",
                "label": "Precompiled"
            },
            {
                "address": "0xeeeeeeeeeeeeeeeeeeeeeeeeeeeeeeeeeeeeeeee",
                "label": "Ether"
            }
        ]
    },
    "trace": {
        "accountLabels": null,
        "dataMap": {
            "-1": {
                "invocation": {
                    "address": "0xf07131f578a5f708ae2ccb9faf98458099e0ffb4",
                    "callData": "",
                    "decodedMethod": null,
                    "errorInfo": "",
                    "fromAddress": "",
                    "gasUsed": 0,
                    "id": -1,
                    "methodDecoded": false,
                    "operation": "",
                    "output": "",
                    "revert": false,
                    "revertMessage": "",
                    "selector": "",
                    "status": false,
                    "value": ""
                },
                "nodeType": 0
            },
            "0": {
                "invocation": {
                    "address": "0xbdb80d19dea36eb7f63bdfd2bdd4033b2b7e8e4d",
                    "callData": "0x0000000000000000000000000000000000000000000000000000000000000080000000000000000000000000000000000000000000000000000000000000032000000000000000000000000000000000000000000000000000000000000004000100000000000000000000000000000000000000000000000000000000000000000000000000000000000000000000000000000000000000000000000000028000000000000000000000002e3b39a4e7314bd04962652f4d805e5400016d5206010f040d090e02070c080a0b0600050300000000000000000000000000000000000000000000000000000000000000000000000000000000000000000000006000000000000000000000000000000000000000000000000000000000000000100000000000000000000000000000000000000000000000000001fe79581cdfe50000000000000000000000000000000000000000000000000001fe8576859e770000000000000000000000000000000000000000000000000001fe8576859e770000000000000000000000000000000000000000000000000001fe8576859e770000000000000000000000000000000000000000000000000001fea0017e7d800000000000000000000000000000000000000000000000000001fea0017e7d800000000000000000000000000000000000000000000000000001fea0017e7d800000000000000000000000000000000000000000000000000001feb667fbb46a0000000000000000000000000000000000000000000000000001ff528a03012f0000000000000000000000000000000000000000000000000001ffdc67b6f53b0000000000000000000000000000000000000000000000000002001084306da80000000000000000000000000000000000000000000000000002001084306da80000000000000000000000000000000000000000000000000002001084306da80000000000000000000000000000000000000000000000000002001084306da8000000000000000000000000000000000000000000000000000200a523951d00000000000000000000000000000000000000000000000000000200fd8f0ad900000000000000000000000000000000000000000000000000000000000000000668d3fe8da1a7c2120902c196ffab222cbaed8cc7102a603d982bee4e4c4064e652b321346bd4487e61592d626bb4cf6bde3fd22bb7b2fb231d1aae07c683823dcfc8139961fa372c91231ab80c831e7c6add6dae40c21fc252ec38e87d57f1bb43caf076edaec0e37afcb2a5ab60412a48add8551d1ce95035fabb1450d80b18178147cf8dd59c928cf205b735d88bdc6a4029f99d8e9d758465e81f640109b8254cfd48f2dca8a5e765a6584e359742ace3429bd4ed1221281d11b40ed03be1000000000000000000000000000000000000000000000000000000000000000611fde11a3ea59fed6e8f24f574c51a69673e262dde8532d1d8a87f0b99af97597007f3ad3353520a4b844bec2fc249daf6ea9869fce6ea6ab9f42fd8f8b984c16ed43b8ff68987b73dd9056d69cbda46218fa0e1b6a48341a7f1c1f9ade2864544003339ed6de8340b3690d959d7876c96c4394a35806bfa47517b7882e1af305f1c53cd0cb3f6953972982a7fed2a0f0f7fb523d6563c49de4b740b89ec9f38113dea1d1bca707480a66817fab56faa8b7bd1463580812565055f650e570c7f",
                    "decodedMethod": {
                        "callParams": [
                            {
                                "name": "_report",
                                "type": "bytes",
                                "value": "0x00000000000000000000002e3b39a4e7314bd04962652f4d805e5400016d5206010f040d090e02070c080a0b0600050300000000000000000000000000000000000000000000000000000000000000000000000000000000000000000000006000000000000000000000000000000000000000000000000000000000000000100000000000000000000000000000000000000000000000000001fe79581cdfe50000000000000000000000000000000000000000000000000001fe8576859e770000000000000000000000000000000000000000000000000001fe8576859e770000000000000000000000000000000000000000000000000001fe8576859e770000000000000000000000000000000000000000000000000001fea0017e7d800000000000000000000000000000000000000000000000000001fea0017e7d800000000000000000000000000000000000000000000000000001fea0017e7d800000000000000000000000000000000000000000000000000001feb667fbb46a0000000000000000000000000000000000000000000000000001ff528a03012f0000000000000000000000000000000000000000000000000001ffdc67b6f53b0000000000000000000000000000000000000000000000000002001084306da80000000000000000000000000000000000000000000000000002001084306da80000000000000000000000000000000000000000000000000002001084306da80000000000000000000000000000000000000000000000000002001084306da8000000000000000000000000000000000000000000000000000200a523951d00000000000000000000000000000000000000000000000000000200fd8f0ad900"
                            },
                            {
                                "name": "_rs",
                                "type": "bytes32[]",
                                "value": [
                                    "0x68d3fe8da1a7c2120902c196ffab222cbaed8cc7102a603d982bee4e4c4064e6",
                                    "0x52b321346bd4487e61592d626bb4cf6bde3fd22bb7b2fb231d1aae07c683823d",
                                    "0xcfc8139961fa372c91231ab80c831e7c6add6dae40c21fc252ec38e87d57f1bb",
                                    "0x43caf076edaec0e37afcb2a5ab60412a48add8551d1ce95035fabb1450d80b18",
                                    "0x178147cf8dd59c928cf205b735d88bdc6a4029f99d8e9d758465e81f640109b8",
                                    "0x254cfd48f2dca8a5e765a6584e359742ace3429bd4ed1221281d11b40ed03be1"
                                ]
                            },
                            {
                                "name": "_ss",
                                "type": "bytes32[]",
                                "value": [
                                    "0x11fde11a3ea59fed6e8f24f574c51a69673e262dde8532d1d8a87f0b99af9759",
                                    "0x7007f3ad3353520a4b844bec2fc249daf6ea9869fce6ea6ab9f42fd8f8b984c1",
                                    "0x6ed43b8ff68987b73dd9056d69cbda46218fa0e1b6a48341a7f1c1f9ade28645",
                                    "0x44003339ed6de8340b3690d959d7876c96c4394a35806bfa47517b7882e1af30",
                                    "0x5f1c53cd0cb3f6953972982a7fed2a0f0f7fb523d6563c49de4b740b89ec9f38",
                                    "0x113dea1d1bca707480a66817fab56faa8b7bd1463580812565055f650e570c7f"
                                ]
                            },
                            {
                                "name": "_rawVs",
                                "type": "bytes32",
                                "value": "0x0100000000000000000000000000000000000000000000000000000000000000"
                            }
                        ],
                        "constructorArguments": "",
                        "name": "transmit",
                        "returnParams": [],
                        "signature": "transmit(bytes,bytes32[],bytes32[],bytes32)"
                    },
                    "errorInfo": "",
                    "fromAddress": "0xf07131f578a5f708ae2ccb9faf98458099e0ffb4",
                    "gasUsed": 176859,
                    "id": 0,
                    "methodDecoded": true,
                    "operation": "CALL",
                    "output": "",
                    "revert": false,
                    "revertMessage": "",
                    "selector": "0xc9807539",
                    "status": true,
                    "value": "0"
                },
                "nodeType": 0
            },
            "1": {
                "invocation": {
                    "address": "0x0000000000000000000000000000000000000001",
                    "callData": "0xea0a1c16fef995e0e244ec7b81d435430bac3887593bf00dcdcef2eb000000000000000000000000000000000000000000000000000000000000001c68d3fe8da1a7c2120902c196ffab222cbaed8cc7102a603d982bee4e4c4064e611fde11a3ea59fed6e8f24f574c51a69673e262dde8532d1d8a87f0b99af9759",
                    "decodedMethod": {
                        "callParams": [
                            {
                                "name": "hash",
                                "type": "bytes32",
                                "value": "0xd73c457dea0a1c16fef995e0e244ec7b81d435430bac3887593bf00dcdcef2eb"
                            },
                            {
                                "name": "v",
                                "type": "uint256",
                                "value": "28"
                            },
                            {
                                "name": "r",
                                "type": "bytes32",
                                "value": "0x68d3fe8da1a7c2120902c196ffab222cbaed8cc7102a603d982bee4e4c4064e6"
                            },
                            {
                                "name": "s",
                                "type": "bytes32",
                                "value": "0x11fde11a3ea59fed6e8f24f574c51a69673e262dde8532d1d8a87f0b99af9759"
                            }
                        ],
                        "constructorArguments": "",
                        "name": "ecrecover",
                        "returnParams": [
                            {
                                "name": "",
                                "type": "address",
                                "value": "0x0afa6c004b3306e547107bba4eeab7d8c023e0ce"
                            }
                        ],
                        "signature": "ecrecover(bytes32,uint256,bytes32,bytes32)"
                    },
                    "errorInfo": "",
                    "fromAddress": "0xbdb80d19dea36eb7f63bdfd2bdd4033b2b7e8e4d",
                    "gasUsed": 3000,
                    "id": 1,
                    "methodDecoded": true,
                    "operation": "STATICCALL",
                    "output": "0x0000000000000000000000000afa6c004b3306e547107bba4eeab7d8c023e0ce",
                    "revert": false,
                    "revertMessage": "",
                    "selector": "0xd73c457d",
                    "status": true,
                    "value": "0"
                },
                "nodeType": 0
            },
            "2": {
                "invocation": {
                    "address": "0x0000000000000000000000000000000000000001",
                    "callData": "0xea0a1c16fef995e0e244ec7b81d435430bac3887593bf00dcdcef2eb000000000000000000000000000000000000000000000000000000000000001b52b321346bd4487e61592d626bb4cf6bde3fd22bb7b2fb231d1aae07c683823d7007f3ad3353520a4b844bec2fc249daf6ea9869fce6ea6ab9f42fd8f8b984c1",
                    "decodedMethod": {
                        "callParams": [
                            {
                                "name": "hash",
                                "type": "bytes32",
                                "value": "0xd73c457dea0a1c16fef995e0e244ec7b81d435430bac3887593bf00dcdcef2eb"
                            },
                            {
                                "name": "v",
                                "type": "uint256",
                                "value": "27"
                            },
                            {
                                "name": "r",
                                "type": "bytes32",
                                "value": "0x52b321346bd4487e61592d626bb4cf6bde3fd22bb7b2fb231d1aae07c683823d"
                            },
                            {
                                "name": "s",
                                "type": "bytes32",
                                "value": "0x7007f3ad3353520a4b844bec2fc249daf6ea9869fce6ea6ab9f42fd8f8b984c1"
                            }
                        ],
                        "constructorArguments": "",
                        "name": "ecrecover",
                        "returnParams": [
                            {
                                "name": "",
                                "type": "address",
                                "value": "0x9efb09cdfbe41c666f8441aa5f8d84ec8c8f0445"
                            }
                        ],
                        "signature": "ecrecover(bytes32,uint256,bytes32,bytes32)"
                    },
                    "errorInfo": "",
                    "fromAddress": "0xbdb80d19dea36eb7f63bdfd2bdd4033b2b7e8e4d",
                    "gasUsed": 3000,
                    "id": 2,
                    "methodDecoded": true,
                    "operation": "STATICCALL",
                    "output": "0x0000000000000000000000009efb09cdfbe41c666f8441aa5f8d84ec8c8f0445",
                    "revert": false,
                    "revertMessage": "",
                    "selector": "0xd73c457d",
                    "status": true,
                    "value": "0"
                },
                "nodeType": 0
            },
            "3": {
                "invocation": {
                    "address": "0x0000000000000000000000000000000000000001",
                    "callData": "0xea0a1c16fef995e0e244ec7b81d435430bac3887593bf00dcdcef2eb000000000000000000000000000000000000000000000000000000000000001bcfc8139961fa372c91231ab80c831e7c6add6dae40c21fc252ec38e87d57f1bb6ed43b8ff68987b73dd9056d69cbda46218fa0e1b6a48341a7f1c1f9ade28645",
                    "decodedMethod": {
                        "callParams": [
                            {
                                "name": "hash",
                                "type": "bytes32",
                                "value": "0xd73c457dea0a1c16fef995e0e244ec7b81d435430bac3887593bf00dcdcef2eb"
                            },
                            {
                                "name": "v",
                                "type": "uint256",
                                "value": "27"
                            },
                            {
                                "name": "r",
                                "type": "bytes32",
                                "value": "0xcfc8139961fa372c91231ab80c831e7c6add6dae40c21fc252ec38e87d57f1bb"
                            },
                            {
                                "name": "s",
                                "type": "bytes32",
                                "value": "0x6ed43b8ff68987b73dd9056d69cbda46218fa0e1b6a48341a7f1c1f9ade28645"
                            }
                        ],
                        "constructorArguments": "",
                        "name": "ecrecover",
                        "returnParams": [
                            {
                                "name": "",
                                "type": "address",
                                "value": "0xbd34530f411130fd7acb88b8251009a0829379aa"
                            }
                        ],
                        "signature": "ecrecover(bytes32,uint256,bytes32,bytes32)"
                    },
                    "errorInfo": "",
                    "fromAddress": "0xbdb80d19dea36eb7f63bdfd2bdd4033b2b7e8e4d",
                    "gasUsed": 3000,
                    "id": 3,
                    "methodDecoded": true,
                    "operation": "STATICCALL",
                    "output": "0x000000000000000000000000bd34530f411130fd7acb88b8251009a0829379aa",
                    "revert": false,
                    "revertMessage": "",
                    "selector": "0xd73c457d",
                    "status": true,
                    "value": "0"
                },
                "nodeType": 0
            },
            "4": {
                "invocation": {
                    "address": "0x0000000000000000000000000000000000000001",
                    "callData": "0xea0a1c16fef995e0e244ec7b81d435430bac3887593bf00dcdcef2eb000000000000000000000000000000000000000000000000000000000000001b43caf076edaec0e37afcb2a5ab60412a48add8551d1ce95035fabb1450d80b1844003339ed6de8340b3690d959d7876c96c4394a35806bfa47517b7882e1af30",
                    "decodedMethod": {
                        "callParams": [
                            {
                                "name": "hash",
                                "type": "bytes32",
                                "value": "0xd73c457dea0a1c16fef995e0e244ec7b81d435430bac3887593bf00dcdcef2eb"
                            },
                            {
                                "name": "v",
                                "type": "uint256",
                                "value": "27"
                            },
                            {
                                "name": "r",
                                "type": "bytes32",
                                "value": "0x43caf076edaec0e37afcb2a5ab60412a48add8551d1ce95035fabb1450d80b18"
                            },
                            {
                                "name": "s",
                                "type": "bytes32",
                                "value": "0x44003339ed6de8340b3690d959d7876c96c4394a35806bfa47517b7882e1af30"
                            }
                        ],
                        "constructorArguments": "",
                        "name": "ecrecover",
                        "returnParams": [
                            {
                                "name": "",
                                "type": "address",
                                "value": "0x076b12d219a32613cd370ea9649a860114d3015e"
                            }
                        ],
                        "signature": "ecrecover(bytes32,uint256,bytes32,bytes32)"
                    },
                    "errorInfo": "",
                    "fromAddress": "0xbdb80d19dea36eb7f63bdfd2bdd4033b2b7e8e4d",
                    "gasUsed": 3000,
                    "id": 4,
                    "methodDecoded": true,
                    "operation": "STATICCALL",
                    "output": "0x000000000000000000000000076b12d219a32613cd370ea9649a860114d3015e",
                    "revert": false,
                    "revertMessage": "",
                    "selector": "0xd73c457d",
                    "status": true,
                    "value": "0"
                },
                "nodeType": 0
            },
            "5": {
                "invocation": {
                    "address": "0x0000000000000000000000000000000000000001",
                    "callData": "0xea0a1c16fef995e0e244ec7b81d435430bac3887593bf00dcdcef2eb000000000000000000000000000000000000000000000000000000000000001b178147cf8dd59c928cf205b735d88bdc6a4029f99d8e9d758465e81f640109b85f1c53cd0cb3f6953972982a7fed2a0f0f7fb523d6563c49de4b740b89ec9f38",
                    "decodedMethod": {
                        "callParams": [
                            {
                                "name": "hash",
                                "type": "bytes32",
                                "value": "0xd73c457dea0a1c16fef995e0e244ec7b81d435430bac3887593bf00dcdcef2eb"
                            },
                            {
                                "name": "v",
                                "type": "uint256",
                                "value": "27"
                            },
                            {
                                "name": "r",
                                "type": "bytes32",
                                "value": "0x178147cf8dd59c928cf205b735d88bdc6a4029f99d8e9d758465e81f640109b8"
                            },
                            {
                                "name": "s",
                                "type": "bytes32",
                                "value": "0x5f1c53cd0cb3f6953972982a7fed2a0f0f7fb523d6563c49de4b740b89ec9f38"
                            }
                        ],
                        "constructorArguments": "",
                        "name": "ecrecover",
                        "returnParams": [
                            {
                                "name": "",
                                "type": "address",
                                "value": "0xaf447da1e8c277c41983b1732becf39129be5ca6"
                            }
                        ],
                        "signature": "ecrecover(bytes32,uint256,bytes32,bytes32)"
                    },
                    "errorInfo": "",
                    "fromAddress": "0xbdb80d19dea36eb7f63bdfd2bdd4033b2b7e8e4d",
                    "gasUsed": 3000,
                    "id": 5,
                    "methodDecoded": true,
                    "operation": "STATICCALL",
                    "output": "0x000000000000000000000000af447da1e8c277c41983b1732becf39129be5ca6",
                    "revert": false,
                    "revertMessage": "",
                    "selector": "0xd73c457d",
                    "status": true,
                    "value": "0"
                },
                "nodeType": 0
            },
            "6": {
                "invocation": {
                    "address": "0x0000000000000000000000000000000000000001",
                    "callData": "0xea0a1c16fef995e0e244ec7b81d435430bac3887593bf00dcdcef2eb000000000000000000000000000000000000000000000000000000000000001b254cfd48f2dca8a5e765a6584e359742ace3429bd4ed1221281d11b40ed03be1113dea1d1bca707480a66817fab56faa8b7bd1463580812565055f650e570c7f",
                    "decodedMethod": {
                        "callParams": [
                            {
                                "name": "hash",
                                "type": "bytes32",
                                "value": "0xd73c457dea0a1c16fef995e0e244ec7b81d435430bac3887593bf00dcdcef2eb"
                            },
                            {
                                "name": "v",
                                "type": "uint256",
                                "value": "27"
                            },
                            {
                                "name": "r",
                                "type": "bytes32",
                                "value": "0x254cfd48f2dca8a5e765a6584e359742ace3429bd4ed1221281d11b40ed03be1"
                            },
                            {
                                "name": "s",
                                "type": "bytes32",
                                "value": "0x113dea1d1bca707480a66817fab56faa8b7bd1463580812565055f650e570c7f"
                            }
                        ],
                        "constructorArguments": "",
                        "name": "ecrecover",
                        "returnParams": [
                            {
                                "name": "",
                                "type": "address",
                                "value": "0xd54ddb3a256a40061c41eb6adf4f412ca8e17c25"
                            }
                        ],
                        "signature": "ecrecover(bytes32,uint256,bytes32,bytes32)"
                    },
                    "errorInfo": "",
                    "fromAddress": "0xbdb80d19dea36eb7f63bdfd2bdd4033b2b7e8e4d",
                    "gasUsed": 3000,
                    "id": 6,
                    "methodDecoded": true,
                    "operation": "STATICCALL",
                    "output": "0x000000000000000000000000d54ddb3a256a40061c41eb6adf4f412ca8e17c25",
                    "revert": false,
                    "revertMessage": "",
                    "selector": "0xd73c457d",
                    "status": true,
                    "value": "0"
                },
                "nodeType": 0
            },
            "7": {
                "event": {
                    "contract": "0xbdb80d19dea36eb7f63bdfd2bdd4033b2b7e8e4d",
                    "decodedLog": {
                        "name": "NewTransmission",
                        "params": [
                            {
                                "name": "aggregatorRoundId",
                                "type": "uint32",
                                "value": "1,793"
                            },
                            {
                                "name": "answer",
                                "type": "int192",
                                "value": "562,204,944,564,527"
                            },
                            {
                                "name": "transmitter",
                                "type": "address",
                                "value": "0xf07131f578a5f708ae2ccb9faf98458099e0ffb4"
                            },
                            {
                                "name": "observations",
                                "type": "int192[]",
                                "value": [
                                    "561,272,099,495,909",
                                    "561,324,149,284,471",
                                    "561,324,149,284,471",
                                    "561,324,149,284,471",
                                    "561,438,150,000,000",
                                    "561,438,150,000,000",
                                    "561,438,150,000,000",
                                    "561,534,358,762,602",
                                    "562,204,944,564,527",
                                    "562,797,074,642,235",
                                    "563,020,890,664,360",
                                    "563,020,890,664,360",
                                    "563,020,890,664,360",
                                    "563,020,890,664,360",
                                    "563,659,220,000,000",
                                    "564,038,980,000,000"
                                ]
                            },
                            {
                                "name": "observers",
                                "type": "bytes",
                                "value": "0x010f040d090e02070c080a0b06000503"
                            },
                            {
                                "name": "rawReportContext",
                                "type": "bytes32",
                                "value": "0x00000000000000000000002e3b39a4e7314bd04962652f4d805e5400016d5206"
                            }
                        ],
                        "signature": "NewTransmission(uint32,int192,address,int192[],bytes,bytes32)"
                    },
                    "id": 7,
                    "logData": "0x0000000000000000000000000000000000000000000000000001ff528a03012f000000000000000000000000f07131f578a5f708ae2ccb9faf98458099e0ffb400000000000000000000000000000000000000000000000000000000000000a000000000000000000000000000000000000000000000000000000000000002c000000000000000000000002e3b39a4e7314bd04962652f4d805e5400016d520600000000000000000000000000000000000000000000000000000000000000100000000000000000000000000000000000000000000000000001fe79581cdfe50000000000000000000000000000000000000000000000000001fe8576859e770000000000000000000000000000000000000000000000000001fe8576859e770000000000000000000000000000000000000000000000000001fe8576859e770000000000000000000000000000000000000000000000000001fea0017e7d800000000000000000000000000000000000000000000000000001fea0017e7d800000000000000000000000000000000000000000000000000001fea0017e7d800000000000000000000000000000000000000000000000000001feb667fbb46a0000000000000000000000000000000000000000000000000001ff528a03012f0000000000000000000000000000000000000000000000000001ffdc67b6f53b0000000000000000000000000000000000000000000000000002001084306da80000000000000000000000000000000000000000000000000002001084306da80000000000000000000000000000000000000000000000000002001084306da80000000000000000000000000000000000000000000000000002001084306da8000000000000000000000000000000000000000000000000000200a523951d00000000000000000000000000000000000000000000000000000200fd8f0ad9000000000000000000000000000000000000000000000000000000000000000010010f040d090e02070c080a0b0600050300000000000000000000000000000000",
                    "logDecoded": true,
                    "operation": "EVENT",
                    "revert": false,
                    "status": true,
                    "topics": [
                        "0xf6a97944f31ea060dfde0566e4167c1a1082551e64b60ecb14d599a9d023d451",
                        "0x0000000000000000000000000000000000000000000000000000000000000701"
                    ]
                },
                "nodeType": 1
            },
            "8": {
                "event": {
                    "contract": "0xbdb80d19dea36eb7f63bdfd2bdd4033b2b7e8e4d",
                    "decodedLog": {
                        "name": "NewRound",
                        "params": [
                            {
                                "name": "roundId",
                                "type": "uint256",
                                "value": "1,793"
                            },
                            {
                                "name": "startedBy",
                                "type": "address",
                                "value": "0x0000000000000000000000000000000000000000"
                            },
                            {
                                "name": "startedAt",
                                "type": "uint256",
                                "value": "1,636,847,641"
                            }
                        ],
                        "signature": "NewRound(uint256,address,uint256)"
                    },
                    "id": 8,
                    "logData": "0x0000000000000000000000000000000000000000000000000000000061905019",
                    "logDecoded": true,
                    "operation": "EVENT",
                    "revert": false,
                    "status": true,
                    "topics": [
                        "0x0109fc6f55cf40689f02fbaad7af7fe7bbac8a3d2186600afc7d3e10cac60271",
                        "0x0000000000000000000000000000000000000000000000000000000000000701",
                        "0x0000000000000000000000000000000000000000000000000000000000000000"
                    ]
                },
                "nodeType": 1
            },
            "9": {
                "event": {
                    "contract": "0xbdb80d19dea36eb7f63bdfd2bdd4033b2b7e8e4d",
                    "decodedLog": {
                        "name": "AnswerUpdated",
                        "params": [
                            {
                                "name": "current",
                                "type": "int256",
                                "value": "562,204,944,564,527"
                            },
                            {
                                "name": "roundId",
                                "type": "uint256",
                                "value": "1,793"
                            },
                            {
                                "name": "updatedAt",
                                "type": "uint256",
                                "value": "1,636,847,641"
                            }
                        ],
                        "signature": "AnswerUpdated(int256,uint256,uint256)"
                    },
                    "id": 9,
                    "logData": "0x0000000000000000000000000000000000000000000000000000000061905019",
                    "logDecoded": true,
                    "operation": "EVENT",
                    "revert": false,
                    "status": true,
                    "topics": [
                        "0x0559884fd3a460db3073b7fc896cc77986f16e378210ded43186175bf646fc5f",
                        "0x0000000000000000000000000000000000000000000000000001ff528a03012f",
                        "0x0000000000000000000000000000000000000000000000000000000000000701"
                    ]
                },
                "nodeType": 1
            }
        },
        "gasFlame": [
            {
                "children": [
                    {
                        "children": [
                            {
                                "children": [],
                                "depth": 0,
                                "name": "Initial Gas",
                                "value": 32452
                            },
                            {
                                "children": [
                                    {
                                        "children": [],
                                        "depth": 1,
                                        "name": "ecrecover",
                                        "value": 3000
                                    },
                                    {
                                        "children": [],
                                        "depth": 1,
                                        "name": "ecrecover",
                                        "value": 3000
                                    },
                                    {
                                        "children": [],
                                        "depth": 1,
                                        "name": "ecrecover",
                                        "value": 3000
                                    },
                                    {
                                        "children": [],
                                        "depth": 1,
                                        "name": "ecrecover",
                                        "value": 3000
                                    },
                                    {
                                        "children": [],
                                        "depth": 1,
                                        "name": "ecrecover",
                                        "value": 3000
                                    },
                                    {
                                        "children": [],
                                        "depth": 1,
                                        "name": "ecrecover",
                                        "value": 3000
                                    }
                                ],
                                "depth": 0,
                                "name": "Executed Gas",
                                "value": 144407
                            }
                        ],
                        "depth": -1,
                        "name": "Actual Gas Used",
                        "value": 176859
                    },
                    {
                        "children": [],
                        "depth": -1,
                        "name": "Refunded Gas",
                        "value": 0
                    }
                ],
                "depth": -2,
                "name": "Total Gas",
                "value": 176859
            }
        ],
        "isConfirmed": true,
        "mainTrace": [
            {
                "children": [
                    {
                        "children": [
                            {
                                "children": [],
                                "depth": 1,
                                "id": 1,
                                "order": 1
                            },
                            {
                                "children": [],
                                "depth": 1,
                                "id": 2,
                                "order": 2
                            },
                            {
                                "children": [],
                                "depth": 1,
                                "id": 3,
                                "order": 3
                            },
                            {
                                "children": [],
                                "depth": 1,
                                "id": 4,
                                "order": 4
                            },
                            {
                                "children": [],
                                "depth": 1,
                                "id": 5,
                                "order": 5
                            },
                            {
                                "children": [],
                                "depth": 1,
                                "id": 6,
                                "order": 6
                            },
                            {
                                "children": [],
                                "depth": 1,
                                "id": 7,
                                "order": 7
                            },
                            {
                                "children": [],
                                "depth": 1,
                                "id": 8,
                                "order": 8
                            },
                            {
                                "children": [],
                                "depth": 1,
                                "id": 9,
                                "order": 9
                            }
                        ],
                        "depth": 0,
                        "id": 0,
                        "order": 0
                    }
                ],
                "depth": -1,
                "id": -1,
                "order": -1
            }
        ],
        "mainTraceNodeCount": 10,
        "parentIdMap": {
            "0": -1,
            "1": 0,
            "2": 0,
            "3": 0,
            "4": 0,
            "5": 0,
            "6": 0,
            "7": 0,
            "8": 0,
            "9": 0
        },
        "tidyTrace": [
            {
                "children": [
                    {
                        "children": [
                            {
                                "children": [],
                                "depth": 1,
                                "id": 7,
                                "order": 7
                            },
                            {
                                "children": [],
                                "depth": 1,
                                "id": 8,
                                "order": 8
                            },
                            {
                                "children": [],
                                "depth": 1,
                                "id": 9,
                                "order": 9
                            }
                        ],
                        "depth": 0,
                        "id": 0,
                        "order": 0
                    }
                ],
                "depth": -1,
                "id": -1,
                "order": -1
            }
        ],
        "tidyTraceNodeCount": 4
    },
    "state_change": {
        "stateChanges": [
            {
                "address": "0xbdb80d19dea36eb7f63bdfd2bdd4033b2b7e8e4d",
                "erc": "",
                "slots": [
                    {
                        "current": "0x000000000000000007010500016d52062e3b39a4e7314bd04962652f4d805e54",
                        "key": "0x000000000000000000000000000000000000000000000000000000000000002a",
                        "prev": "0x000000000000000007000500016cda052e3b39a4e7314bd04962652f4d805e54"
                    },
                    {
                        "current": "0x0008000800080008000800080008000800080008000800080008000800080008",
                        "key": "0x0000000000000000000000000000000000000000000000000000000000000004",
                        "prev": "0x0007000700070007000700070007000700070007000700070007000700070007"
                    },
                    {
                        "current": "0x00000000000000000000000000000000000000000000000052ca631780af1a01",
                        "key": "0x000000000000000000000000000000000000000000000000000000000000000d",
                        "prev": "0x0000000000000000000000000000000000000000000000002a229e3afd885e01"
                    },
                    {
                        "current": "0x0000000061905019000000000000000000000000000000000001ff528a03012f",
                        "key": "0x52a714878d4d59ee475b03b316b1b1635d90b7a6e99030612320b35b023cce7e",
                        "prev": "0x0000000000000000000000000000000000000000000000000000000000000000"
                    }
                ],
                "storageVariables": [
                    {
                        "name": "s_hotVars",
                        "type": "struct OffchainAggregator.HotVars",
                        "value": {
                            "fields": [
                                {
                                    "name": "latestConfigDigest",
                                    "type": "bytes16",
                                    "value": {
                                        "current": "0x2e3b39a4e7314bd04962652f4d805e54",
                                        "prev": "0x2e3b39a4e7314bd04962652f4d805e54",
                                        "typeTag": 1
                                    }
                                },
                                {
                                    "name": "latestEpochAndRound",
                                    "type": "uint40",
                                    "value": {
                                        "current": "23941638",
                                        "prev": "23910917",
                                        "typeTag": 1
                                    }
                                },
                                {
                                    "name": "threshold",
                                    "type": "uint8",
                                    "value": {
                                        "current": "5",
                                        "prev": "5",
                                        "typeTag": 1
                                    }
                                },
                                {
                                    "name": "latestAggregatorRoundId",
                                    "type": "uint32",
                                    "value": {
                                        "current": "1793",
                                        "prev": "1792",
                                        "typeTag": 1
                                    }
                                }
                            ],
                            "typeTag": 3
                        }
                    },
                    {
                        "name": "s_oracleObservationsCounts",
                        "type": "uint16[31]",
                        "value": {
                            "elemType": "uint16",
                            "elems": [
                                {
                                    "index": 0,
                                    "value": {
                                        "current": "8",
                                        "prev": "7",
                                        "typeTag": 1
                                    }
                                },
                                {
                                    "index": 1,
                                    "value": {
                                        "current": "8",
                                        "prev": "7",
                                        "typeTag": 1
                                    }
                                },
                                {
                                    "index": 2,
                                    "value": {
                                        "current": "8",
                                        "prev": "7",
                                        "typeTag": 1
                                    }
                                },
                                {
                                    "index": 3,
                                    "value": {
                                        "current": "8",
                                        "prev": "7",
                                        "typeTag": 1
                                    }
                                },
                                {
                                    "index": 4,
                                    "value": {
                                        "current": "8",
                                        "prev": "7",
                                        "typeTag": 1
                                    }
                                },
                                {
                                    "index": 5,
                                    "value": {
                                        "current": "8",
                                        "prev": "7",
                                        "typeTag": 1
                                    }
                                },
                                {
                                    "index": 6,
                                    "value": {
                                        "current": "8",
                                        "prev": "7",
                                        "typeTag": 1
                                    }
                                },
                                {
                                    "index": 7,
                                    "value": {
                                        "current": "8",
                                        "prev": "7",
                                        "typeTag": 1
                                    }
                                },
                                {
                                    "index": 8,
                                    "value": {
                                        "current": "8",
                                        "prev": "7",
                                        "typeTag": 1
                                    }
                                },
                                {
                                    "index": 9,
                                    "value": {
                                        "current": "8",
                                        "prev": "7",
                                        "typeTag": 1
                                    }
                                },
                                {
                                    "index": 10,
                                    "value": {
                                        "current": "8",
                                        "prev": "7",
                                        "typeTag": 1
                                    }
                                },
                                {
                                    "index": 11,
                                    "value": {
                                        "current": "8",
                                        "prev": "7",
                                        "typeTag": 1
                                    }
                                },
                                {
                                    "index": 12,
                                    "value": {
                                        "current": "8",
                                        "prev": "7",
                                        "typeTag": 1
                                    }
                                },
                                {
                                    "index": 13,
                                    "value": {
                                        "current": "8",
                                        "prev": "7",
                                        "typeTag": 1
                                    }
                                },
                                {
                                    "index": 14,
                                    "value": {
                                        "current": "8",
                                        "prev": "7",
                                        "typeTag": 1
                                    }
                                }
                            ],
                            "typeTag": 2
                        }
                    },
                    {
                        "name": "s_transmissions",
                        "type": "mapping(uint32 => struct OffchainAggregator.Transmission)",
                        "value": {
                            "pairs": [
                                {
                                    "key": "1793",
                                    "value": {
                                        "fields": [
                                            {
                                                "name": "answer",
                                                "type": "int192",
                                                "value": {
                                                    "current": "562204944564527",
                                                    "prev": "0",
                                                    "typeTag": 1
                                                }
                                            },
                                            {
                                                "name": "timestamp",
                                                "type": "uint64",
                                                "value": {
                                                    "current": "1636847641",
                                                    "prev": "0",
                                                    "typeTag": 1
                                                }
                                            }
                                        ],
                                        "typeTag": 3
                                    }
                                }
                            ],
                            "typeTag": 4
                        }
                    }
                ]
            }
        ]
    }
}