{
    "balance_change": {
        "balanceChanges": [
            {
                "account": "0x4e69ebb5dd1c75dff083de765d0d8e21e1312529",
                "assets": [
                    {
                        "address": "0x0e50e6d6bb434938d8fe670a2d7a14cd128eb50f",
                        "amount": "12.729550702",
                        "iconUrl": "",
                        "isERC1155": false,
                        "isERC721": false,
                        "sign": false,
                        "value": ""
                    }
                ]
            },
            {
                "account": "0x7f453df06f967d269c3521179ca814c56ecdfb0e",
                "assets": [
                    {
                        "address": "0x0e50e6d6bb434938d8fe670a2d7a14cd128eb50f",
                        "amount": "12.729550702",
                        "iconUrl": "",
                        "isERC1155": false,
                        "isERC721": false,
                        "sign": true,
                        "value": ""
                    }
                ]
            }
        ]
    },
    "profile": {
        "basic_info": {
            "baseFee": "",
            "blockNumber": 6828193,
            "callData": "0xa9059cbb0000000000000000000000007f453df06f967d269c3521179ca814c56ecdfb0e00000000000000000000000000000000000000000000000000000002f6bd876e",
            "debugEnable": true,
            "errorInfo": "",
            "eventCount": 1,
            "feeRecipient": "0xea674fdde714fd979de3edf0f56aa9716b898ec8",
            "formatValue": "0",
            "gasLimit": 3000000,
            "gasPrice": "20",
            "gasUsed": 37838,
            "intTxnCount": 0,
            "internalRevert": false,
            "internalRevertMessage": "",
            "isContractCreation": false,
            "isFlashloan": false,
            "maxFee": "",
            "nonce": 841,
            "overwritedBlockNumber": -1,
            "priorityFee": "",
            "receiver": "0x0e50e6d6bb434938d8fe670a2d7a14cd128eb50f",
            "revertMessage": "",
            "sender": "0x4e69ebb5dd1c75dff083de765d0d8e21e1312529",
            "simulationEnable": true,
            "sourceTxnHash": "0x3ccb7d26444f59235c87a0ceaf9db7f50c5326a122b45bae2811d372c4774aab",
            "status": true,
            "timestamp": "2018-12-05T03:10:36Z",
            "transactionFee": "0.00075676",
            "txnHash": "0x3ccb7d26444f59235c87a0ceaf9db7f50c5326a122b45bae2811d372c4774aab",
            "txnIndex": 67,
            "type": 0,
            "value": "0"
        },
        "fund_flow": [
            {
                "amount": "12.729550702",
                "from": "0x4e69ebb5dd1c75dff083de765d0d8e21e1312529",
                "id": 1,
                "isERC1155": false,
                "isERC721": false,
                "isReverted": false,
                "order": 1,
                "to": "0x7f453df06f967d269c3521179ca814c56ecdfb0e",
                "token": "0x0e50e6d6bb434938d8fe670a2d7a14cd128eb50f"
            }
        ],
        "token_infos": [
            {
                "address": "0x0e50e6d6bb434938d8fe670a2d7a14cd128eb50f",
                "decimals": 9
            },
            {
                "address": "0xc02aaa39b223fe8d0a0e5c4f27ead9083c756cc2",
                "decimals": 18
            },
            {
                "address": "0xeeeeeeeeeeeeeeeeeeeeeeeeeeeeeeeeeeeeeeee",
                "decimals": 18
            }
        ]
    },
    "address_label": {
        "labels": [
            {
                "address": "0x0000000000000000000000000000000000000002",
                "label": "Precompiled"
            },
            {
                "address": "0x0000000000000000000000000000000000000003",
                "label": "Precompiled"
            },
            {
                "address": "0x0000000000000000000000000000000000000004",
                "label": "Precompiled"
            },
            {
                "address": "0xeeeeeeeeeeeeeeeeeeeeeeeeeeeeeeeeeeeeeeee",
                "label": "Ether"
            },
            {
                "address": "0x0e50e6d6bb434938d8fe670a2d7a14cd128eb50f",
                "label": "SUM TOKEN: SUM Token"
            },
            {
                "address": "0x0000000000000000000000000000000000000001",
                "label": "Precompiled"
            }
        ]
    },
    "trace": {
        "accountLabels": null,
        "dataMap": {
            "-1": {
                "invocation": {
                    "address": "0x4e69ebb5dd1c75dff083de765d0d8e21e1312529",
                    "callData": "",
                    "decodedMethod": null,
                    "errorInfo": "",
                    "fromAddress": "",
                    "gasUsed": 0,
                    "id": -1,
                    "methodDecoded": false,
                    "operation": "",
                    "output": "",
                    "revert": false,
                    "revertMessage": "",
                    "selector": "",
                    "status": false,
                    "value": ""
                },
                "nodeType": 0
            },
            "0": {
                "invocation": {
                    "address": "0x0e50e6d6bb434938d8fe670a2d7a14cd128eb50f",
                    "callData": "0x0000000000000000000000007f453df06f967d269c3521179ca814c56ecdfb0e00000000000000000000000000000000000000000000000000000002f6bd876e",
                    "decodedMethod": {
                        "callParams": [
                            {
                                "name": "_to",
                                "type": "address",
                                "value": "0x7f453df06f967d269c3521179ca814c56ecdfb0e"
                            },
                            {
                                "decimalAvailable": true,
                                "name": "_value",
                                "type": "uint256",
                                "value": "12,729,550,702"
                            }
                        ],
                        "constructorArguments": "",
                        "name": "transfer",
                        "returnParams": [
                            {
                                "name": "success",
                                "type": "bool",
                                "value": true
                            }
                        ],
                        "signature": "transfer(address,uint256)"
                    },
                    "errorInfo": "",
                    "fromAddress": "0x4e69ebb5dd1c75dff083de765d0d8e21e1312529",
                    "gasUsed": 37838,
                    "id": 0,
                    "methodDecoded": true,
                    "operation": "CALL",
                    "output": "0x0000000000000000000000000000000000000000000000000000000000000001",
                    "revert": false,
                    "revertMessage": "",
                    "selector": "0xa9059cbb",
                    "status": true,
                    "value": "0"
                },
                "nodeType": 0
            },
            "1": {
                "event": {
                    "contract": "0x0e50e6d6bb434938d8fe670a2d7a14cd128eb50f",
                    "decodedLog": {
                        "name": "Transfer",
                        "params": [
                            {
                                "name": "from",
                                "type": "address",
                                "value": "0x4e69ebb5dd1c75dff083de765d0d8e21e1312529"
                            },
                            {
                                "name": "to",
                                "type": "address",
                                "value": "0x7f453df06f967d269c3521179ca814c56ecdfb0e"
                            },
                            {
                                "decimalAvailable": true,
                                "name": "value",
                                "type": "uint256",
                                "value": "12,729,550,702"
                            }
                        ],
                        "signature": "Transfer(address,address,uint256)"
                    },
                    "id": 1,
                    "logData": "0x00000000000000000000000000000000000000000000000000000002f6bd876e",
                    "logDecoded": true,
                    "operation": "EVENT",
                    "revert": false,
                    "status": true,
                    "topics": [
                        "0xddf252ad1be2c89b69c2b068fc378daa952ba7f163c4a11628f55a4df523b3ef",
                        "0x0000000000000000000000004e69ebb5dd1c75dff083de765d0d8e21e1312529",
                        "0x0000000000000000000000007f453df06f967d269c3521179ca814c56ecdfb0e"
                    ]
                },
                "nodeType": 1
            }
        },
        "gasFlame": [
            {
                "children": [
                    {
                        "children": [
                            {
                                "children": [],
                                "depth": 0,
                                "name": "Initial Gas",
                                "value": 23128
                            },
                            {
                                "children": [],
                                "depth": 0,
                                "name": "Executed Gas",
                                "value": 14710
                            }
                        ],
                        "depth": -1,
                        "name": "Actual Gas Used",
                        "value": 37838
                    },
                    {
                        "children": [],
                        "depth": -1,
                        "name": "Refunded Gas",
                        "value": 0
                    }
                ],
                "depth": -2,
                "name": "Total Gas",
                "value": 37838
            }
        ],
        "isConfirmed": true,
        "mainTrace": [
            {
                "children": [
                    {
                        "children": [
                            {
                                "children": [],
                                "depth": 1,
                                "id": 1,
                                "order": 1
                            }
                        ],
                        "depth": 0,
                        "id": 0,
                        "order": 0
                    }
                ],
                "depth": -1,
                "id": -1,
                "order": -1
            }
        ],
        "mainTraceNodeCount": 2,
        "parentIdMap": {
            "0": -1,
            "1": 0
        },
        "tidyTrace": [
            {
                "children": [
                    {
                        "children": [
                            {
                                "children": [],
                                "depth": 1,
                                "id": 1,
                                "order": 1
                            }
                        ],
                        "depth": 0,
                        "id": 0,
                        "order": 0
                    }
                ],
                "depth": -1,
                "id": -1,
                "order": -1
            }
        ],
        "tidyTraceNodeCount": 2
    },
    "state_change": {
        "stateChanges": [
            {
                "address": "0x0e50e6d6bb434938d8fe670a2d7a14cd128eb50f",
                "erc": "ERC-20",
                "slots": [
                    {
                        "current": "0x0000000000000000000000000000000000000000000000000000510a345a5a20",
                        "key": "0xff11722c6c61b04268957dee79ad5c7a5352ee4827414ec17e8ee976f4f10602",
                        "prev": "0x0000000000000000000000000000000000000000000000000000510d2b17e18e"
                    },
                    {
                        "current": "0x000000000000000000000000000000000000000000000000000001b246817478",
                        "key": "0x95feebb975c24435d3676f311792fe6e08edeed1d0e4c8a18ea844d4f4e68bf3",
                        "prev": "0x000000000000000000000000000000000000000000000000000001af4fc3ed0a"
                    }
                ],
                "storageVariables": [
                    {
                        "name": "balanceOf",
                        "type": "mapping(address => uint256)",
                        "value": {
                            "pairs": [
                                {
                                    "key": "0x4e69ebb5dd1c75dff083de765d0d8e21e1312529",
                                    "value": {
                                        "current": "89104269859360",
                                        "prev": "89116999410062",
                                        "typeTag": 1
                                    }
                                },
                                {
                                    "key": "0x7f453df06f967d269c3521179ca814c56ecdfb0e",
                                    "value": {
                                        "current": "1865198695544",
                                        "prev": "1852469144842",
                                        "typeTag": 1
                                    }
                                }
                            ],
                            "typeTag": 4
                        }
                    }
                ]
            }
        ]
    }
}