{
    "balance_change": {
        "balanceChanges": [
            {
                "account": "0xb9b6856efd128294a912d584366448bc3d4ea979",
                "assets": [
                    {
                        "address": "0x240eb6b465f61dfc965053791f963cd0f0e4fdb0",
                        "amount": "1",
                        "iconUrl": "",
                        "isERC1155": false,
                        "isERC721": true,
                        "sign": true,
                        "tokenID": "2407",
                        "value": ""
                    },
                    {
                        "address": "0x240eb6b465f61dfc965053791f963cd0f0e4fdb0",
                        "amount": "1",
                        "iconUrl": "",
                        "isERC1155": false,
                        "isERC721": true,
                        "sign": true,
                        "tokenID": "2408",
                        "value": ""
                    },
                    {
                        "address": "0x240eb6b465f61dfc965053791f963cd0f0e4fdb0",
                        "amount": "1",
                        "iconUrl": "",
                        "isERC1155": false,
                        "isERC721": true,
                        "sign": true,
                        "tokenID": "2409",
                        "value": ""
                    },
                    {
                        "address": "0x240eb6b465f61dfc965053791f963cd0f0e4fdb0",
                        "amount": "1",
                        "iconUrl": "",
                        "isERC1155": false,
                        "isERC721": true,
                        "sign": true,
                        "tokenID": "2413",
                        "value": ""
                    },
                    {
                        "address": "0x240eb6b465f61dfc965053791f963cd0f0e4fdb0",
                        "amount": "1",
                        "iconUrl": "",
                        "isERC1155": false,
                        "isERC721": true,
                        "sign": true,
                        "tokenID": "2402",
                        "value": ""
                    },
                    {
                        "address": "0x240eb6b465f61dfc965053791f963cd0f0e4fdb0",
                        "amount": "1",
                        "iconUrl": "",
                        "isERC1155": false,
                        "isERC721": true,
                        "sign": true,
                        "tokenID": "2403",
                        "value": ""
                    },
                    {
                        "address": "0x240eb6b465f61dfc965053791f963cd0f0e4fdb0",
                        "amount": "1",
                        "iconUrl": "",
                        "isERC1155": false,
                        "isERC721": true,
                        "sign": true,
                        "tokenID": "2405",
                        "value": ""
                    },
                    {
                        "address": "0x240eb6b465f61dfc965053791f963cd0f0e4fdb0",
                        "amount": "1",
                        "iconUrl": "",
                        "isERC1155": false,
                        "isERC721": true,
                        "sign": true,
                        "tokenID": "2404",
                        "value": ""
                    },
                    {
                        "address": "0x240eb6b465f61dfc965053791f963cd0f0e4fdb0",
                        "amount": "1",
                        "iconUrl": "",
                        "isERC1155": false,
                        "isERC721": true,
                        "sign": true,
                        "tokenID": "2411",
                        "value": ""
                    },
                    {
                        "address": "0x240eb6b465f61dfc965053791f963cd0f0e4fdb0",
                        "amount": "1",
                        "iconUrl": "",
                        "isERC1155": false,
                        "isERC721": true,
                        "sign": true,
                        "tokenID": "2412",
                        "value": ""
                    },
                    {
                        "address": "0x240eb6b465f61dfc965053791f963cd0f0e4fdb0",
                        "amount": "1",
                        "iconUrl": "",
                        "isERC1155": false,
                        "isERC721": true,
                        "sign": true,
                        "tokenID": "2414",
                        "value": ""
                    },
                    {
                        "address": "0xeeeeeeeeeeeeeeeeeeeeeeeeeeeeeeeeeeeeeeee",
                        "amount": "0.7502885",
                        "iconUrl": "https://assets.blocksec.com/image/1663669189317-3.png",
                        "isERC1155": false,
                        "isERC721": false,
                        "sign": false,
                        "value": "2423.264558"
                    },
                    {
                        "address": "0x240eb6b465f61dfc965053791f963cd0f0e4fdb0",
                        "amount": "1",
                        "iconUrl": "",
                        "isERC1155": false,
                        "isERC721": true,
                        "sign": true,
                        "tokenID": "2406",
                        "value": ""
                    },
                    {
                        "address": "0x240eb6b465f61dfc965053791f963cd0f0e4fdb0",
                        "amount": "1",
                        "iconUrl": "",
                        "isERC1155": false,
                        "isERC721": true,
                        "sign": true,
                        "tokenID": "2410",
                        "value": ""
                    }
                ]
            },
            {
                "account": "0x0000000000000000000000000000000000000000",
                "assets": [
                    {
                        "address": "0x240eb6b465f61dfc965053791f963cd0f0e4fdb0",
                        "amount": "1",
                        "iconUrl": "",
                        "isERC1155": false,
                        "isERC721": true,
                        "sign": false,
                        "tokenID": "2403",
                        "value": ""
                    },
                    {
                        "address": "0x240eb6b465f61dfc965053791f963cd0f0e4fdb0",
                        "amount": "1",
                        "iconUrl": "",
                        "isERC1155": false,
                        "isERC721": true,
                        "sign": false,
                        "tokenID": "2412",
                        "value": ""
                    },
                    {
                        "address": "0x240eb6b465f61dfc965053791f963cd0f0e4fdb0",
                        "amount": "1",
                        "iconUrl": "",
                        "isERC1155": false,
                        "isERC721": true,
                        "sign": false,
                        "tokenID": "2413",
                        "value": ""
                    },
                    {
                        "address": "0x240eb6b465f61dfc965053791f963cd0f0e4fdb0",
                        "amount": "1",
                        "iconUrl": "",
                        "isERC1155": false,
                        "isERC721": true,
                        "sign": false,
                        "tokenID": "2406",
                        "value": ""
                    },
                    {
                        "address": "0x240eb6b465f61dfc965053791f963cd0f0e4fdb0",
                        "amount": "1",
                        "iconUrl": "",
                        "isERC1155": false,
                        "isERC721": true,
                        "sign": false,
                        "tokenID": "2411",
                        "value": ""
                    },
                    {
                        "address": "0x240eb6b465f61dfc965053791f963cd0f0e4fdb0",
                        "amount": "1",
                        "iconUrl": "",
                        "isERC1155": false,
                        "isERC721": true,
                        "sign": false,
                        "tokenID": "2402",
                        "value": ""
                    },
                    {
                        "address": "0x240eb6b465f61dfc965053791f963cd0f0e4fdb0",
                        "amount": "1",
                        "iconUrl": "",
                        "isERC1155": false,
                        "isERC721": true,
                        "sign": false,
                        "tokenID": "2405",
                        "value": ""
                    },
                    {
                        "address": "0x240eb6b465f61dfc965053791f963cd0f0e4fdb0",
                        "amount": "1",
                        "iconUrl": "",
                        "isERC1155": false,
                        "isERC721": true,
                        "sign": false,
                        "tokenID": "2410",
                        "value": ""
                    },
                    {
                        "address": "0x240eb6b465f61dfc965053791f963cd0f0e4fdb0",
                        "amount": "1",
                        "iconUrl": "",
                        "isERC1155": false,
                        "isERC721": true,
                        "sign": false,
                        "tokenID": "2404",
                        "value": ""
                    },
                    {
                        "address": "0x240eb6b465f61dfc965053791f963cd0f0e4fdb0",
                        "amount": "1",
                        "iconUrl": "",
                        "isERC1155": false,
                        "isERC721": true,
                        "sign": false,
                        "tokenID": "2407",
                        "value": ""
                    },
                    {
                        "address": "0x240eb6b465f61dfc965053791f963cd0f0e4fdb0",
                        "amount": "1",
                        "iconUrl": "",
                        "isERC1155": false,
                        "isERC721": true,
                        "sign": false,
                        "tokenID": "2408",
                        "value": ""
                    },
                    {
                        "address": "0x240eb6b465f61dfc965053791f963cd0f0e4fdb0",
                        "amount": "1",
                        "iconUrl": "",
                        "isERC1155": false,
                        "isERC721": true,
                        "sign": false,
                        "tokenID": "2409",
                        "value": ""
                    },
                    {
                        "address": "0x240eb6b465f61dfc965053791f963cd0f0e4fdb0",
                        "amount": "1",
                        "iconUrl": "",
                        "isERC1155": false,
                        "isERC721": true,
                        "sign": false,
                        "tokenID": "2414",
                        "value": ""
                    }
                ]
            },
            {
                "account": "0xce227d2cf9b6f0d810c3c3eaeb49fffbc12ea154",
                "assets": [
                    {
                        "address": "0xeeeeeeeeeeeeeeeeeeeeeeeeeeeeeeeeeeeeeeee",
                        "amount": "0.7502885",
                        "iconUrl": "https://assets.blocksec.com/image/1663669189317-3.png",
                        "isERC1155": false,
                        "isERC721": false,
                        "sign": true,
                        "value": "2423.264558"
                    }
                ]
            }
        ]
    },
    "profile": {
        "basic_info": {
            "baseFee": "96.589006858",
            "blockNumber": 13004843,
            "callData": "0x77600891000000000000000000000000000000000000000000000000000000000000000d",
            "debugEnable": true,
            "errorInfo": "",
            "eventCount": 14,
            "feeRecipient": "0xbcc817f057950b0df41206c5d7125e6225cae18e",
            "formatValue": "0.7502885",
            "gasLimit": 416001,
            "gasPrice": "126",
            "gasUsed": 415435,
            "intTxnCount": 1,
            "internalRevert": false,
            "internalRevertMessage": "",
            "isContractCreation": false,
            "isFlashloan": false,
            "maxFee": "",
            "nonce": 716,
            "overwritedBlockNumber": -1,
            "priorityFee": "",
            "receiver": "0x240eb6b465f61dfc965053791f963cd0f0e4fdb0",
            "revertMessage": "",
            "sender": "0xb9b6856efd128294a912d584366448bc3d4ea979",
            "simulationEnable": true,
            "sourceTxnHash": "0x3ca515b445764b1b49f479959e334ab55239933739a2274defbcb3d9c8734634",
            "status": true,
            "timestamp": "2021-08-11T16:08:37Z",
            "transactionFee": "0.05234481",
            "txnHash": "0x3ca515b445764b1b49f479959e334ab55239933739a2274defbcb3d9c8734634",
            "txnIndex": 120,
            "type": 0,
            "value": "750288500000000000"
        },
        "fund_flow": [
            {
                "amount": "0.7502885",
                "from": "0xb9b6856efd128294a912d584366448bc3d4ea979",
                "id": 1,
                "isERC1155": false,
                "isERC721": false,
                "isReverted": false,
                "order": 1,
                "to": "0x240eb6b465f61dfc965053791f963cd0f0e4fdb0",
                "token": "0xeeeeeeeeeeeeeeeeeeeeeeeeeeeeeeeeeeeeeeee"
            },
            {
                "amount": "1",
                "from": "0x0000000000000000000000000000000000000000",
                "id": 2,
                "isERC1155": false,
                "isERC721": true,
                "isReverted": false,
                "order": 2,
                "to": "0xb9b6856efd128294a912d584366448bc3d4ea979",
                "token": "0x240eb6b465f61dfc965053791f963cd0f0e4fdb0",
                "tokenID": "2402"
            },
            {
                "amount": "1",
                "from": "0x0000000000000000000000000000000000000000",
                "id": 3,
                "isERC1155": false,
                "isERC721": true,
                "isReverted": false,
                "order": 3,
                "to": "0xb9b6856efd128294a912d584366448bc3d4ea979",
                "token": "0x240eb6b465f61dfc965053791f963cd0f0e4fdb0",
                "tokenID": "2403"
            },
            {
                "amount": "1",
                "from": "0x0000000000000000000000000000000000000000",
                "id": 4,
                "isERC1155": false,
                "isERC721": true,
                "isReverted": false,
                "order": 4,
                "to": "0xb9b6856efd128294a912d584366448bc3d4ea979",
                "token": "0x240eb6b465f61dfc965053791f963cd0f0e4fdb0",
                "tokenID": "2404"
            },
            {
                "amount": "1",
                "from": "0x0000000000000000000000000000000000000000",
                "id": 5,
                "isERC1155": false,
                "isERC721": true,
                "isReverted": false,
                "order": 5,
                "to": "0xb9b6856efd128294a912d584366448bc3d4ea979",
                "token": "0x240eb6b465f61dfc965053791f963cd0f0e4fdb0",
                "tokenID": "2405"
            },
            {
                "amount": "1",
                "from": "0x0000000000000000000000000000000000000000",
                "id": 6,
                "isERC1155": false,
                "isERC721": true,
                "isReverted": false,
                "order": 6,
                "to": "0xb9b6856efd128294a912d584366448bc3d4ea979",
                "token": "0x240eb6b465f61dfc965053791f963cd0f0e4fdb0",
                "tokenID": "2406"
            },
            {
                "amount": "1",
                "from": "0x0000000000000000000000000000000000000000",
                "id": 7,
                "isERC1155": false,
                "isERC721": true,
                "isReverted": false,
                "order": 7,
                "to": "0xb9b6856efd128294a912d584366448bc3d4ea979",
                "token": "0x240eb6b465f61dfc965053791f963cd0f0e4fdb0",
                "tokenID": "2407"
            },
            {
                "amount": "1",
                "from": "0x0000000000000000000000000000000000000000",
                "id": 8,
                "isERC1155": false,
                "isERC721": true,
                "isReverted": false,
                "order": 8,
                "to": "0xb9b6856efd128294a912d584366448bc3d4ea979",
                "token": "0x240eb6b465f61dfc965053791f963cd0f0e4fdb0",
                "tokenID": "2408"
            },
            {
                "amount": "1",
                "from": "0x0000000000000000000000000000000000000000",
                "id": 9,
                "isERC1155": false,
                "isERC721": true,
                "isReverted": false,
                "order": 9,
                "to": "0xb9b6856efd128294a912d584366448bc3d4ea979",
                "token": "0x240eb6b465f61dfc965053791f963cd0f0e4fdb0",
                "tokenID": "2409"
            },
            {
                "amount": "1",
                "from": "0x0000000000000000000000000000000000000000",
                "id": 10,
                "isERC1155": false,
                "isERC721": true,
                "isReverted": false,
                "order": 10,
                "to": "0xb9b6856efd128294a912d584366448bc3d4ea979",
                "token": "0x240eb6b465f61dfc965053791f963cd0f0e4fdb0",
                "tokenID": "2410"
            },
            {
                "amount": "1",
                "from": "0x0000000000000000000000000000000000000000",
                "id": 11,
                "isERC1155": false,
                "isERC721": true,
                "isReverted": false,
                "order": 11,
                "to": "0xb9b6856efd128294a912d584366448bc3d4ea979",
                "token": "0x240eb6b465f61dfc965053791f963cd0f0e4fdb0",
                "tokenID": "2411"
            },
            {
                "amount": "1",
                "from": "0x0000000000000000000000000000000000000000",
                "id": 12,
                "isERC1155": false,
                "isERC721": true,
                "isReverted": false,
                "order": 12,
                "to": "0xb9b6856efd128294a912d584366448bc3d4ea979",
                "token": "0x240eb6b465f61dfc965053791f963cd0f0e4fdb0",
                "tokenID": "2412"
            },
            {
                "amount": "1",
                "from": "0x0000000000000000000000000000000000000000",
                "id": 13,
                "isERC1155": false,
                "isERC721": true,
                "isReverted": false,
                "order": 13,
                "to": "0xb9b6856efd128294a912d584366448bc3d4ea979",
                "token": "0x240eb6b465f61dfc965053791f963cd0f0e4fdb0",
                "tokenID": "2413"
            },
            {
                "amount": "1",
                "from": "0x0000000000000000000000000000000000000000",
                "id": 14,
                "isERC1155": false,
                "isERC721": true,
                "isReverted": false,
                "order": 14,
                "to": "0xb9b6856efd128294a912d584366448bc3d4ea979",
                "token": "0x240eb6b465f61dfc965053791f963cd0f0e4fdb0",
                "tokenID": "2414"
            },
            {
                "amount": "0.7502885",
                "from": "0x240eb6b465f61dfc965053791f963cd0f0e4fdb0",
                "id": 15,
                "isERC1155": false,
                "isERC721": false,
                "isReverted": false,
                "order": 15,
                "to": "0xce227d2cf9b6f0d810c3c3eaeb49fffbc12ea154",
                "token": "0xeeeeeeeeeeeeeeeeeeeeeeeeeeeeeeeeeeeeeeee"
            }
        ],
        "token_infos": [
            {
                "address": "0xc02aaa39b223fe8d0a0e5c4f27ead9083c756cc2",
                "decimals": 18
            },
            {
                "address": "0xeeeeeeeeeeeeeeeeeeeeeeeeeeeeeeeeeeeeeeee",
                "decimals": 18
            }
        ]
    },
    "address_label": {
        "labels": [
            {
                "address": "0xb9b6856efd128294a912d584366448bc3d4ea979",
                "label": "DystoPunks: Deployer"
            },
            {
                "address": "0xce227d2cf9b6f0d810c3c3eaeb49fffbc12ea154",
                "label": "PaymentSplitter"
            },
            {
                "address": "0x0000000000000000000000000000000000000001",
                "label": "Precompiled"
            },
            {
                "address": "0x0000000000000000000000000000000000000002",
                "label": "Precompiled"
            },
            {
                "address": "0x0000000000000000000000000000000000000003",
                "label": "Precompiled"
            },
            {
                "address": "0x0000000000000000000000000000000000000004",
                "label": "Precompiled"
            },
            {
                "address": "0xeeeeeeeeeeeeeeeeeeeeeeeeeeeeeeeeeeeeeeee",
                "label": "Ether"
            },
            {
                "address": "0x240eb6b465f61dfc965053791f963cd0f0e4fdb0",
                "label": "FuckinTrolls (FKNTRLLS)"
            }
        ]
    },
    "trace": {
        "accountLabels": null,
        "dataMap": {
            "-1": {
                "invocation": {
                    "address": "0xb9b6856efd128294a912d584366448bc3d4ea979",
                    "callData": "",
                    "decodedMethod": null,
                    "errorInfo": "",
                    "fromAddress": "",
                    "gasUsed": 0,
                    "id": -1,
                    "methodDecoded": false,
                    "operation": "",
                    "output": "",
                    "revert": false,
                    "revertMessage": "",
                    "selector": "",
                    "status": false,
                    "value": ""
                },
                "nodeType": 0
            },
            "0": {
                "invocation": {
                    "address": "0x240eb6b465f61dfc965053791f963cd0f0e4fdb0",
                    "callData": "0x000000000000000000000000000000000000000000000000000000000000000d",
                    "decodedMethod": {
                        "callParams": [
                            {
                                "name": "_amount",
                                "type": "uint256",
                                "value": "13"
                            }
                        ],
                        "constructorArguments": "",
                        "name": "discover",
                        "returnParams": [],
                        "signature": "discover(uint256)"
                    },
                    "errorInfo": "",
                    "fromAddress": "0xb9b6856efd128294a912d584366448bc3d4ea979",
                    "gasUsed": 415435,
                    "id": 0,
                    "methodDecoded": true,
                    "operation": "CALL",
                    "output": "",
                    "revert": false,
                    "revertMessage": "",
                    "selector": "0x77600891",
                    "status": true,
                    "value": "0.7502885"
                },
                "nodeType": 0
            },
            "1": {
                "event": {
                    "contract": "0x240eb6b465f61dfc965053791f963cd0f0e4fdb0",
                    "decodedLog": {
                        "name": "Transfer",
                        "params": [
                            {
                                "name": "from",
                                "type": "address",
                                "value": "0x0000000000000000000000000000000000000000"
                            },
                            {
                                "name": "to",
                                "type": "address",
                                "value": "0xb9b6856efd128294a912d584366448bc3d4ea979"
                            },
                            {
                                "decimalAvailable": true,
                                "name": "tokenId",
                                "type": "uint256",
                                "value": "2,402"
                            }
                        ],
                        "signature": "Transfer(address,address,uint256)"
                    },
                    "id": 1,
                    "logData": "0x",
                    "logDecoded": true,
                    "operation": "EVENT",
                    "revert": false,
                    "status": true,
                    "topics": [
                        "0xddf252ad1be2c89b69c2b068fc378daa952ba7f163c4a11628f55a4df523b3ef",
                        "0x0000000000000000000000000000000000000000000000000000000000000000",
                        "0x000000000000000000000000b9b6856efd128294a912d584366448bc3d4ea979",
                        "0x0000000000000000000000000000000000000000000000000000000000000962"
                    ]
                },
                "nodeType": 1
            },
            "10": {
                "event": {
                    "contract": "0x240eb6b465f61dfc965053791f963cd0f0e4fdb0",
                    "decodedLog": {
                        "name": "Transfer",
                        "params": [
                            {
                                "name": "from",
                                "type": "address",
                                "value": "0x0000000000000000000000000000000000000000"
                            },
                            {
                                "name": "to",
                                "type": "address",
                                "value": "0xb9b6856efd128294a912d584366448bc3d4ea979"
                            },
                            {
                                "decimalAvailable": true,
                                "name": "tokenId",
                                "type": "uint256",
                                "value": "2,411"
                            }
                        ],
                        "signature": "Transfer(address,address,uint256)"
                    },
                    "id": 10,
                    "logData": "0x",
                    "logDecoded": true,
                    "operation": "EVENT",
                    "revert": false,
                    "status": true,
                    "topics": [
                        "0xddf252ad1be2c89b69c2b068fc378daa952ba7f163c4a11628f55a4df523b3ef",
                        "0x0000000000000000000000000000000000000000000000000000000000000000",
                        "0x000000000000000000000000b9b6856efd128294a912d584366448bc3d4ea979",
                        "0x000000000000000000000000000000000000000000000000000000000000096b"
                    ]
                },
                "nodeType": 1
            },
            "11": {
                "event": {
                    "contract": "0x240eb6b465f61dfc965053791f963cd0f0e4fdb0",
                    "decodedLog": {
                        "name": "Transfer",
                        "params": [
                            {
                                "name": "from",
                                "type": "address",
                                "value": "0x0000000000000000000000000000000000000000"
                            },
                            {
                                "name": "to",
                                "type": "address",
                                "value": "0xb9b6856efd128294a912d584366448bc3d4ea979"
                            },
                            {
                                "decimalAvailable": true,
                                "name": "tokenId",
                                "type": "uint256",
                                "value": "2,412"
                            }
                        ],
                        "signature": "Transfer(address,address,uint256)"
                    },
                    "id": 11,
                    "logData": "0x",
                    "logDecoded": true,
                    "operation": "EVENT",
                    "revert": false,
                    "status": true,
                    "topics": [
                        "0xddf252ad1be2c89b69c2b068fc378daa952ba7f163c4a11628f55a4df523b3ef",
                        "0x0000000000000000000000000000000000000000000000000000000000000000",
                        "0x000000000000000000000000b9b6856efd128294a912d584366448bc3d4ea979",
                        "0x000000000000000000000000000000000000000000000000000000000000096c"
                    ]
                },
                "nodeType": 1
            },
            "12": {
                "event": {
                    "contract": "0x240eb6b465f61dfc965053791f963cd0f0e4fdb0",
                    "decodedLog": {
                        "name": "Transfer",
                        "params": [
                            {
                                "name": "from",
                                "type": "address",
                                "value": "0x0000000000000000000000000000000000000000"
                            },
                            {
                                "name": "to",
                                "type": "address",
                                "value": "0xb9b6856efd128294a912d584366448bc3d4ea979"
                            },
                            {
                                "decimalAvailable": true,
                                "name": "tokenId",
                                "type": "uint256",
                                "value": "2,413"
                            }
                        ],
                        "signature": "Transfer(address,address,uint256)"
                    },
                    "id": 12,
                    "logData": "0x",
                    "logDecoded": true,
                    "operation": "EVENT",
                    "revert": false,
                    "status": true,
                    "topics": [
                        "0xddf252ad1be2c89b69c2b068fc378daa952ba7f163c4a11628f55a4df523b3ef",
                        "0x0000000000000000000000000000000000000000000000000000000000000000",
                        "0x000000000000000000000000b9b6856efd128294a912d584366448bc3d4ea979",
                        "0x000000000000000000000000000000000000000000000000000000000000096d"
                    ]
                },
                "nodeType": 1
            },
            "13": {
                "event": {
                    "contract": "0x240eb6b465f61dfc965053791f963cd0f0e4fdb0",
                    "decodedLog": {
                        "name": "Transfer",
                        "params": [
                            {
                                "name": "from",
                                "type": "address",
                                "value": "0x0000000000000000000000000000000000000000"
                            },
                            {
                                "name": "to",
                                "type": "address",
                                "value": "0xb9b6856efd128294a912d584366448bc3d4ea979"
                            },
                            {
                                "decimalAvailable": true,
                                "name": "tokenId",
                                "type": "uint256",
                                "value": "2,414"
                            }
                        ],
                        "signature": "Transfer(address,address,uint256)"
                    },
                    "id": 13,
                    "logData": "0x",
                    "logDecoded": true,
                    "operation": "EVENT",
                    "revert": false,
                    "status": true,
                    "topics": [
                        "0xddf252ad1be2c89b69c2b068fc378daa952ba7f163c4a11628f55a4df523b3ef",
                        "0x0000000000000000000000000000000000000000000000000000000000000000",
                        "0x000000000000000000000000b9b6856efd128294a912d584366448bc3d4ea979",
                        "0x000000000000000000000000000000000000000000000000000000000000096e"
                    ]
                },
                "nodeType": 1
            },
            "14": {
                "invocation": {
                    "address": "0xce227d2cf9b6f0d810c3c3eaeb49fffbc12ea154",
                    "callData": "0x",
                    "decodedMethod": null,
                    "errorInfo": "",
                    "fromAddress": "0x240eb6b465f61dfc965053791f963cd0f0e4fdb0",
                    "gasUsed": 1687,
                    "id": 14,
                    "methodDecoded": false,
                    "operation": "CALL",
                    "output": "",
                    "revert": false,
                    "revertMessage": "",
                    "selector": "fallback",
                    "status": true,
                    "value": "0.7502885"
                },
                "nodeType": 0
            },
            "15": {
                "event": {
                    "contract": "0xce227d2cf9b6f0d810c3c3eaeb49fffbc12ea154",
                    "decodedLog": {
                        "name": "PaymentReceived",
                        "params": [
                            {
                                "name": "from",
                                "type": "address",
                                "value": "0x240eb6b465f61dfc965053791f963cd0f0e4fdb0"
                            },
                            {
                                "name": "amount",
                                "type": "uint256",
                                "value": "750,288,500,000,000,000"
                            }
                        ],
                        "signature": "PaymentReceived(address,uint256)"
                    },
                    "id": 15,
                    "logData": "0x000000000000000000000000240eb6b465f61dfc965053791f963cd0f0e4fdb00000000000000000000000000000000000000000000000000a698f6a618f8800",
                    "logDecoded": true,
                    "operation": "EVENT",
                    "revert": false,
                    "status": true,
                    "topics": [
                        "0x6ef95f06320e7a25a04a175ca677b7052bdd97131872c2192525a629f51be770"
                    ]
                },
                "nodeType": 1
            },
            "2": {
                "event": {
                    "contract": "0x240eb6b465f61dfc965053791f963cd0f0e4fdb0",
                    "decodedLog": {
                        "name": "Transfer",
                        "params": [
                            {
                                "name": "from",
                                "type": "address",
                                "value": "0x0000000000000000000000000000000000000000"
                            },
                            {
                                "name": "to",
                                "type": "address",
                                "value": "0xb9b6856efd128294a912d584366448bc3d4ea979"
                            },
                            {
                                "decimalAvailable": true,
                                "name": "tokenId",
                                "type": "uint256",
                                "value": "2,403"
                            }
                        ],
                        "signature": "Transfer(address,address,uint256)"
                    },
                    "id": 2,
                    "logData": "0x",
                    "logDecoded": true,
                    "operation": "EVENT",
                    "revert": false,
                    "status": true,
                    "topics": [
                        "0xddf252ad1be2c89b69c2b068fc378daa952ba7f163c4a11628f55a4df523b3ef",
                        "0x0000000000000000000000000000000000000000000000000000000000000000",
                        "0x000000000000000000000000b9b6856efd128294a912d584366448bc3d4ea979",
                        "0x0000000000000000000000000000000000000000000000000000000000000963"
                    ]
                },
                "nodeType": 1
            },
            "3": {
                "event": {
                    "contract": "0x240eb6b465f61dfc965053791f963cd0f0e4fdb0",
                    "decodedLog": {
                        "name": "Transfer",
                        "params": [
                            {
                                "name": "from",
                                "type": "address",
                                "value": "0x0000000000000000000000000000000000000000"
                            },
                            {
                                "name": "to",
                                "type": "address",
                                "value": "0xb9b6856efd128294a912d584366448bc3d4ea979"
                            },
                            {
                                "decimalAvailable": true,
                                "name": "tokenId",
                                "type": "uint256",
                                "value": "2,404"
                            }
                        ],
                        "signature": "Transfer(address,address,uint256)"
                    },
                    "id": 3,
                    "logData": "0x",
                    "logDecoded": true,
                    "operation": "EVENT",
                    "revert": false,
                    "status": true,
                    "topics": [
                        "0xddf252ad1be2c89b69c2b068fc378daa952ba7f163c4a11628f55a4df523b3ef",
                        "0x0000000000000000000000000000000000000000000000000000000000000000",
                        "0x000000000000000000000000b9b6856efd128294a912d584366448bc3d4ea979",
                        "0x0000000000000000000000000000000000000000000000000000000000000964"
                    ]
                },
                "nodeType": 1
            },
            "4": {
                "event": {
                    "contract": "0x240eb6b465f61dfc965053791f963cd0f0e4fdb0",
                    "decodedLog": {
                        "name": "Transfer",
                        "params": [
                            {
                                "name": "from",
                                "type": "address",
                                "value": "0x0000000000000000000000000000000000000000"
                            },
                            {
                                "name": "to",
                                "type": "address",
                                "value": "0xb9b6856efd128294a912d584366448bc3d4ea979"
                            },
                            {
                                "decimalAvailable": true,
                                "name": "tokenId",
                                "type": "uint256",
                                "value": "2,405"
                            }
                        ],
                        "signature": "Transfer(address,address,uint256)"
                    },
                    "id": 4,
                    "logData": "0x",
                    "logDecoded": true,
                    "operation": "EVENT",
                    "revert": false,
                    "status": true,
                    "topics": [
                        "0xddf252ad1be2c89b69c2b068fc378daa952ba7f163c4a11628f55a4df523b3ef",
                        "0x0000000000000000000000000000000000000000000000000000000000000000",
                        "0x000000000000000000000000b9b6856efd128294a912d584366448bc3d4ea979",
                        "0x0000000000000000000000000000000000000000000000000000000000000965"
                    ]
                },
                "nodeType": 1
            },
            "5": {
                "event": {
                    "contract": "0x240eb6b465f61dfc965053791f963cd0f0e4fdb0",
                    "decodedLog": {
                        "name": "Transfer",
                        "params": [
                            {
                                "name": "from",
                                "type": "address",
                                "value": "0x0000000000000000000000000000000000000000"
                            },
                            {
                                "name": "to",
                                "type": "address",
                                "value": "0xb9b6856efd128294a912d584366448bc3d4ea979"
                            },
                            {
                                "decimalAvailable": true,
                                "name": "tokenId",
                                "type": "uint256",
                                "value": "2,406"
                            }
                        ],
                        "signature": "Transfer(address,address,uint256)"
                    },
                    "id": 5,
                    "logData": "0x",
                    "logDecoded": true,
                    "operation": "EVENT",
                    "revert": false,
                    "status": true,
                    "topics": [
                        "0xddf252ad1be2c89b69c2b068fc378daa952ba7f163c4a11628f55a4df523b3ef",
                        "0x0000000000000000000000000000000000000000000000000000000000000000",
                        "0x000000000000000000000000b9b6856efd128294a912d584366448bc3d4ea979",
                        "0x0000000000000000000000000000000000000000000000000000000000000966"
                    ]
                },
                "nodeType": 1
            },
            "6": {
                "event": {
                    "contract": "0x240eb6b465f61dfc965053791f963cd0f0e4fdb0",
                    "decodedLog": {
                        "name": "Transfer",
                        "params": [
                            {
                                "name": "from",
                                "type": "address",
                                "value": "0x0000000000000000000000000000000000000000"
                            },
                            {
                                "name": "to",
                                "type": "address",
                                "value": "0xb9b6856efd128294a912d584366448bc3d4ea979"
                            },
                            {
                                "decimalAvailable": true,
                                "name": "tokenId",
                                "type": "uint256",
                                "value": "2,407"
                            }
                        ],
                        "signature": "Transfer(address,address,uint256)"
                    },
                    "id": 6,
                    "logData": "0x",
                    "logDecoded": true,
                    "operation": "EVENT",
                    "revert": false,
                    "status": true,
                    "topics": [
                        "0xddf252ad1be2c89b69c2b068fc378daa952ba7f163c4a11628f55a4df523b3ef",
                        "0x0000000000000000000000000000000000000000000000000000000000000000",
                        "0x000000000000000000000000b9b6856efd128294a912d584366448bc3d4ea979",
                        "0x0000000000000000000000000000000000000000000000000000000000000967"
                    ]
                },
                "nodeType": 1
            },
            "7": {
                "event": {
                    "contract": "0x240eb6b465f61dfc965053791f963cd0f0e4fdb0",
                    "decodedLog": {
                        "name": "Transfer",
                        "params": [
                            {
                                "name": "from",
                                "type": "address",
                                "value": "0x0000000000000000000000000000000000000000"
                            },
                            {
                                "name": "to",
                                "type": "address",
                                "value": "0xb9b6856efd128294a912d584366448bc3d4ea979"
                            },
                            {
                                "decimalAvailable": true,
                                "name": "tokenId",
                                "type": "uint256",
                                "value": "2,408"
                            }
                        ],
                        "signature": "Transfer(address,address,uint256)"
                    },
                    "id": 7,
                    "logData": "0x",
                    "logDecoded": true,
                    "operation": "EVENT",
                    "revert": false,
                    "status": true,
                    "topics": [
                        "0xddf252ad1be2c89b69c2b068fc378daa952ba7f163c4a11628f55a4df523b3ef",
                        "0x0000000000000000000000000000000000000000000000000000000000000000",
                        "0x000000000000000000000000b9b6856efd128294a912d584366448bc3d4ea979",
                        "0x0000000000000000000000000000000000000000000000000000000000000968"
                    ]
                },
                "nodeType": 1
            },
            "8": {
                "event": {
                    "contract": "0x240eb6b465f61dfc965053791f963cd0f0e4fdb0",
                    "decodedLog": {
                        "name": "Transfer",
                        "params": [
                            {
                                "name": "from",
                                "type": "address",
                                "value": "0x0000000000000000000000000000000000000000"
                            },
                            {
                                "name": "to",
                                "type": "address",
                                "value": "0xb9b6856efd128294a912d584366448bc3d4ea979"
                            },
                            {
                                "decimalAvailable": true,
                                "name": "tokenId",
                                "type": "uint256",
                                "value": "2,409"
                            }
                        ],
                        "signature": "Transfer(address,address,uint256)"
                    },
                    "id": 8,
                    "logData": "0x",
                    "logDecoded": true,
                    "operation": "EVENT",
                    "revert": false,
                    "status": true,
                    "topics": [
                        "0xddf252ad1be2c89b69c2b068fc378daa952ba7f163c4a11628f55a4df523b3ef",
                        "0x0000000000000000000000000000000000000000000000000000000000000000",
                        "0x000000000000000000000000b9b6856efd128294a912d584366448bc3d4ea979",
                        "0x0000000000000000000000000000000000000000000000000000000000000969"
                    ]
                },
                "nodeType": 1
            },
            "9": {
                "event": {
                    "contract": "0x240eb6b465f61dfc965053791f963cd0f0e4fdb0",
                    "decodedLog": {
                        "name": "Transfer",
                        "params": [
                            {
                                "name": "from",
                                "type": "address",
                                "value": "0x0000000000000000000000000000000000000000"
                            },
                            {
                                "name": "to",
                                "type": "address",
                                "value": "0xb9b6856efd128294a912d584366448bc3d4ea979"
                            },
                            {
                                "decimalAvailable": true,
                                "name": "tokenId",
                                "type": "uint256",
                                "value": "2,410"
                            }
                        ],
                        "signature": "Transfer(address,address,uint256)"
                    },
                    "id": 9,
                    "logData": "0x",
                    "logDecoded": true,
                    "operation": "EVENT",
                    "revert": false,
                    "status": true,
                    "topics": [
                        "0xddf252ad1be2c89b69c2b068fc378daa952ba7f163c4a11628f55a4df523b3ef",
                        "0x0000000000000000000000000000000000000000000000000000000000000000",
                        "0x000000000000000000000000b9b6856efd128294a912d584366448bc3d4ea979",
                        "0x000000000000000000000000000000000000000000000000000000000000096a"
                    ]
                },
                "nodeType": 1
            }
        },
        "gasFlame": [
            {
                "children": [
                    {
                        "children": [
                            {
                                "children": [],
                                "depth": 0,
                                "name": "Initial Gas",
                                "value": 21204
                            },
                            {
                                "children": [
                                    {
                                        "children": [],
                                        "depth": 1,
                                        "name": "fallback",
                                        "value": 1687
                                    }
                                ],
                                "depth": 0,
                                "name": "Executed Gas",
                                "value": 394231
                            }
                        ],
                        "depth": -1,
                        "name": "Actual Gas Used",
                        "value": 415435
                    },
                    {
                        "children": [],
                        "depth": -1,
                        "name": "Refunded Gas",
                        "value": 0
                    }
                ],
                "depth": -2,
                "name": "Total Gas",
                "value": 415435
            }
        ],
        "isConfirmed": true,
        "mainTrace": [
            {
                "children": [
                    {
                        "children": [
                            {
                                "children": [],
                                "depth": 1,
                                "id": 1,
                                "order": 1
                            },
                            {
                                "children": [],
                                "depth": 1,
                                "id": 2,
                                "order": 2
                            },
                            {
                                "children": [],
                                "depth": 1,
                                "id": 3,
                                "order": 3
                            },
                            {
                                "children": [],
                                "depth": 1,
                                "id": 4,
                                "order": 4
                            },
                            {
                                "children": [],
                                "depth": 1,
                                "id": 5,
                                "order": 5
                            },
                            {
                                "children": [],
                                "depth": 1,
                                "id": 6,
                                "order": 6
                            },
                            {
                                "children": [],
                                "depth": 1,
                                "id": 7,
                                "order": 7
                            },
                            {
                                "children": [],
                                "depth": 1,
                                "id": 8,
                                "order": 8
                            },
                            {
                                "children": [],
                                "depth": 1,
                                "id": 9,
                                "order": 9
                            },
                            {
                                "children": [],
                                "depth": 1,
                                "id": 10,
                                "order": 10
                            },
                            {
                                "children": [],
                                "depth": 1,
                                "id": 11,
                                "order": 11
                            },
                            {
                                "children": [],
                                "depth": 1,
                                "id": 12,
                                "order": 12
                            },
                            {
                                "children": [],
                                "depth": 1,
                                "id": 13,
                                "order": 13
                            },
                            {
                                "children": [
                                    {
                                        "children": [],
                                        "depth": 2,
                                        "id": 15,
                                        "order": 15
                                    }
                                ],
                                "depth": 1,
                                "id": 14,
                                "order": 14
                            }
                        ],
                        "depth": 0,
                        "id": 0,
                        "order": 0
                    }
                ],
                "depth": -1,
                "id": -1,
                "order": -1
            }
        ],
        "mainTraceNodeCount": 16,
        "parentIdMap": {
            "0": -1,
            "1": 0,
            "10": 0,
            "11": 0,
            "12": 0,
            "13": 0,
            "14": 0,
            "15": 14,
            "2": 0,
            "3": 0,
            "4": 0,
            "5": 0,
            "6": 0,
            "7": 0,
            "8": 0,
            "9": 0
        },
        "tidyTrace": [
            {
                "children": [
                    {
                        "children": [
                            {
                                "children": [],
                                "depth": 1,
                                "id": 1,
                                "order": 1
                            },
                            {
                                "children": [],
                                "depth": 1,
                                "id": 2,
                                "order": 2
                            },
                            {
                                "children": [],
                                "depth": 1,
                                "id": 3,
                                "order": 3
                            },
                            {
                                "children": [],
                                "depth": 1,
                                "id": 4,
                                "order": 4
                            },
                            {
                                "children": [],
                                "depth": 1,
                                "id": 5,
                                "order": 5
                            },
                            {
                                "children": [],
                                "depth": 1,
                                "id": 6,
                                "order": 6
                            },
                            {
                                "children": [],
                                "depth": 1,
                                "id": 7,
                                "order": 7
                            },
                            {
                                "children": [],
                                "depth": 1,
                                "id": 8,
                                "order": 8
                            },
                            {
                                "children": [],
                                "depth": 1,
                                "id": 9,
                                "order": 9
                            },
                            {
                                "children": [],
                                "depth": 1,
                                "id": 10,
                                "order": 10
                            },
                            {
                                "children": [],
                                "depth": 1,
                                "id": 11,
                                "order": 11
                            },
                            {
                                "children": [],
                                "depth": 1,
                                "id": 12,
                                "order": 12
                            },
                            {
                                "children": [],
                                "depth": 1,
                                "id": 13,
                                "order": 13
                            },
                            {
                                "children": [
                                    {
                                        "children": [],
                                        "depth": 2,
                                        "id": 15,
                                        "order": 15
                                    }
                                ],
                                "depth": 1,
                                "id": 14,
                                "order": 14
                            }
                        ],
                        "depth": 0,
                        "id": 0,
                        "order": 0
                    }
                ],
                "depth": -1,
                "id": -1,
                "order": -1
            }
        ],
        "tidyTraceNodeCount": 16
    },
    "state_change": {
        "stateChanges": [
            {
                "address": "0x240eb6b465f61dfc965053791f963cd0f0e4fdb0",
                "erc": "ERC-721",
                "slots": [
                    {
                        "current": "0x000000000000000000000000b9b6856efd128294a912d584366448bc3d4ea979",
                        "key": "0x04d890c1e753f45a79f0af7b01e14b5accdb8253577fb5167155c7819338d828",
                        "prev": "0x0000000000000000000000000000000000000000000000000000000000000000"
                    },
                    {
                        "current": "0x000000000000000000000000b9b6856efd128294a912d584366448bc3d4ea979",
                        "key": "0x2b5712bd60329625d72c6e57587d1f6535c640c836de6bdacdebe20be3f13d73",
                        "prev": "0x0000000000000000000000000000000000000000000000000000000000000000"
                    },
                    {
                        "current": "0x000000000000000000000000b9b6856efd128294a912d584366448bc3d4ea979",
                        "key": "0x589ebcc55bf1cd1c33cb0cb3ea4d8b15e3a3a90b15d913791aa79f834af6d672",
                        "prev": "0x0000000000000000000000000000000000000000000000000000000000000000"
                    },
                    {
                        "current": "0x000000000000000000000000b9b6856efd128294a912d584366448bc3d4ea979",
                        "key": "0x85c3e511546f1b538f6b50facd7d18d4c79104304d48c43d48322f971379bb2b",
                        "prev": "0x0000000000000000000000000000000000000000000000000000000000000000"
                    },
                    {
                        "current": "0x000000000000000000000000b9b6856efd128294a912d584366448bc3d4ea979",
                        "key": "0x337b93c2330f41b73fd3357cc18c13f0f116d5b29c63ce9b5e01b20027b622b4",
                        "prev": "0x0000000000000000000000000000000000000000000000000000000000000000"
                    },
                    {
                        "current": "0x000000000000000000000000b9b6856efd128294a912d584366448bc3d4ea979",
                        "key": "0x89878ee22310f229cc3580d81bcb8f1cc4e12eb0ae634869bf126045addae4a5",
                        "prev": "0x0000000000000000000000000000000000000000000000000000000000000000"
                    },
                    {
                        "current": "0x000000000000000000000000b9b6856efd128294a912d584366448bc3d4ea979",
                        "key": "0x70dbc757c147a72624d577050b4d9843f84997a7d945844ce4d7e0acf4a7016b",
                        "prev": "0x0000000000000000000000000000000000000000000000000000000000000000"
                    },
                    {
                        "current": "0x000000000000000000000000000000000000000000000000000000000000096f",
                        "key": "0x0000000000000000000000000000000000000000000000000000000000000007",
                        "prev": "0x0000000000000000000000000000000000000000000000000000000000000962"
                    },
                    {
                        "current": "0x000000000000000000000000000000000000000000000000000000000000096f",
                        "key": "0x000000000000000000000000000000000000000000000000000000000000000f",
                        "prev": "0x0000000000000000000000000000000000000000000000000000000000000962"
                    },
                    {
                        "current": "0x000000000000000000000000b9b6856efd128294a912d584366448bc3d4ea979",
                        "key": "0x54796dae2a81e8b3b9388a07df4b4d1d36fad7f594fe3d4d5cadcd139563168e",
                        "prev": "0x0000000000000000000000000000000000000000000000000000000000000000"
                    },
                    {
                        "current": "0x000000000000000000000000b9b6856efd128294a912d584366448bc3d4ea979",
                        "key": "0x5c6d06c91360175cc63c40e3e7e604bb87ca3ea01496248b024112936bfa49c0",
                        "prev": "0x0000000000000000000000000000000000000000000000000000000000000000"
                    },
                    {
                        "current": "0x000000000000000000000000b9b6856efd128294a912d584366448bc3d4ea979",
                        "key": "0xa720f436a93387cf65b5644cc44143253b16d35caf6ac279ba40064851c0ff9a",
                        "prev": "0x0000000000000000000000000000000000000000000000000000000000000000"
                    },
                    {
                        "current": "0x000000000000000000000000b9b6856efd128294a912d584366448bc3d4ea979",
                        "key": "0xaa1129fbe963b8930a4fa379ab560bfa0be9407a5676e3c6dc1197378fe681b5",
                        "prev": "0x0000000000000000000000000000000000000000000000000000000000000000"
                    },
                    {
                        "current": "0x000000000000000000000000b9b6856efd128294a912d584366448bc3d4ea979",
                        "key": "0x35dd449cd27c9c5c5f8a8ac65605c15cc825a16038817d77bb89914508f89b85",
                        "prev": "0x0000000000000000000000000000000000000000000000000000000000000000"
                    },
                    {
                        "current": "0x000000000000000000000000b9b6856efd128294a912d584366448bc3d4ea979",
                        "key": "0xad32fc3e67bb13689b32d43dfc82bd2be92c8a1c6a98bb7bb542b0ff842a8fd9",
                        "prev": "0x0000000000000000000000000000000000000000000000000000000000000000"
                    },
                    {
                        "current": "0x000000000000000000000000000000000000000000000000000000000000000d",
                        "key": "0x0081ce4c8f0dfd4ba30db417c7eb9dcabb6e1fd53daad409367c3db7685cae52",
                        "prev": "0x0000000000000000000000000000000000000000000000000000000000000000"
                    }
                ],
                "storageVariables": [
                    {
                        "name": "_owners",
                        "type": "mapping(uint256 => address)",
                        "value": {
                            "pairs": [
                                {
                                    "key": "2402",
                                    "value": {
                                        "current": "0xb9b6856efd128294a912d584366448bc3d4ea979",
                                        "prev": "0x0000000000000000000000000000000000000000",
                                        "typeTag": 1
                                    }
                                },
                                {
                                    "key": "2403",
                                    "value": {
                                        "current": "0xb9b6856efd128294a912d584366448bc3d4ea979",
                                        "prev": "0x0000000000000000000000000000000000000000",
                                        "typeTag": 1
                                    }
                                },
                                {
                                    "key": "2404",
                                    "value": {
                                        "current": "0xb9b6856efd128294a912d584366448bc3d4ea979",
                                        "prev": "0x0000000000000000000000000000000000000000",
                                        "typeTag": 1
                                    }
                                },
                                {
                                    "key": "2405",
                                    "value": {
                                        "current": "0xb9b6856efd128294a912d584366448bc3d4ea979",
                                        "prev": "0x0000000000000000000000000000000000000000",
                                        "typeTag": 1
                                    }
                                },
                                {
                                    "key": "2406",
                                    "value": {
                                        "current": "0xb9b6856efd128294a912d584366448bc3d4ea979",
                                        "prev": "0x0000000000000000000000000000000000000000",
                                        "typeTag": 1
                                    }
                                },
                                {
                                    "key": "2407",
                                    "value": {
                                        "current": "0xb9b6856efd128294a912d584366448bc3d4ea979",
                                        "prev": "0x0000000000000000000000000000000000000000",
                                        "typeTag": 1
                                    }
                                },
                                {
                                    "key": "2408",
                                    "value": {
                                        "current": "0xb9b6856efd128294a912d584366448bc3d4ea979",
                                        "prev": "0x0000000000000000000000000000000000000000",
                                        "typeTag": 1
                                    }
                                },
                                {
                                    "key": "2409",
                                    "value": {
                                        "current": "0xb9b6856efd128294a912d584366448bc3d4ea979",
                                        "prev": "0x0000000000000000000000000000000000000000",
                                        "typeTag": 1
                                    }
                                },
                                {
                                    "key": "2410",
                                    "value": {
                                        "current": "0xb9b6856efd128294a912d584366448bc3d4ea979",
                                        "prev": "0x0000000000000000000000000000000000000000",
                                        "typeTag": 1
                                    }
                                },
                                {
                                    "key": "2411",
                                    "value": {
                                        "current": "0xb9b6856efd128294a912d584366448bc3d4ea979",
                                        "prev": "0x0000000000000000000000000000000000000000",
                                        "typeTag": 1
                                    }
                                },
                                {
                                    "key": "2412",
                                    "value": {
                                        "current": "0xb9b6856efd128294a912d584366448bc3d4ea979",
                                        "prev": "0x0000000000000000000000000000000000000000",
                                        "typeTag": 1
                                    }
                                },
                                {
                                    "key": "2413",
                                    "value": {
                                        "current": "0xb9b6856efd128294a912d584366448bc3d4ea979",
                                        "prev": "0x0000000000000000000000000000000000000000",
                                        "typeTag": 1
                                    }
                                },
                                {
                                    "key": "2414",
                                    "value": {
                                        "current": "0xb9b6856efd128294a912d584366448bc3d4ea979",
                                        "prev": "0x0000000000000000000000000000000000000000",
                                        "typeTag": 1
                                    }
                                }
                            ],
                            "typeTag": 4
                        }
                    },
                    {
                        "name": "_balances",
                        "type": "mapping(address => uint256)",
                        "value": {
                            "pairs": [
                                {
                                    "key": "0xb9b6856efd128294a912d584366448bc3d4ea979",
                                    "value": {
                                        "current": "13",
                                        "prev": "0",
                                        "typeTag": 1
                                    }
                                }
                            ],
                            "typeTag": 4
                        }
                    },
                    {
                        "name": "_tokenIds",
                        "type": "struct Counters.Counter",
                        "value": {
                            "fields": [
                                {
                                    "name": "_value",
                                    "type": "uint256",
                                    "value": {
                                        "current": "2415",
                                        "prev": "2402",
                                        "typeTag": 1
                                    }
                                }
                            ],
                            "typeTag": 3
                        }
                    },
                    {
                        "name": "numPublicMinted",
                        "type": "uint256",
                        "value": {
                            "current": "2415",
                            "prev": "2402",
                            "typeTag": 1
                        }
                    }
                ]
            }
        ]
    }
}