{
    "balance_change": {
        "balanceChanges": [
            {
                "account": "0xb742f26ca4760a765ac2f095b01fedae765dda40",
                "assets": [
                    {
                        "address": "0xb6d78683a4e54b91031acb41510bd8e144fed025",
                        "amount": "4,166,418.263729768885704947",
                        "iconUrl": "",
                        "isERC1155": false,
                        "isERC721": false,
                        "sign": false,
                        "value": "4783.84003"
                    },
                    {
                        "address": "0xeeeeeeeeeeeeeeeeeeeeeeeeeeeeeeeeeeeeeeee",
                        "amount": "1.341591014384559934",
                        "iconUrl": "https://assets.blocksec.com/image/1663669189317-3.png",
                        "isERC1155": false,
                        "isERC721": false,
                        "sign": true,
                        "value": "5350.515448265450686"
                    }
                ]
            },
            {
                "account": "0x3328f7f4a1d1c57c35df56bbf0c9dcafca309c49",
                "assets": [
                    {
                        "address": "0xeeeeeeeeeeeeeeeeeeeeeeeeeeeeeeeeeeeeeeee",
                        "amount": "0.013551424387722827",
                        "iconUrl": "https://assets.blocksec.com/image/1663669189317-3.png",
                        "isERC1155": false,
                        "isERC721": false,
                        "sign": true,
                        "value": "54.04561061311358159"
                    }
                ]
            },
            {
                "account": "0x174e3ed6eca132a0b5902fff54df535bb31c762d",
                "assets": [
                    {
                        "address": "0xb6d78683a4e54b91031acb41510bd8e144fed025",
                        "amount": "3,999,761.53318057813027675",
                        "iconUrl": "",
                        "isERC1155": false,
                        "isERC721": false,
                        "sign": true,
                        "value": "5317.714436"
                    },
                    {
                        "address": "0xc02aaa39b223fe8d0a0e5c4f27ead9083c756cc2",
                        "amount": "1.355142438772282761",
                        "iconUrl": "https://assets.blocksec.com/icon/f1cb2d02c471d545bbc7722daf3277fd852d98e63d118771af7047bd8256c516.png",
                        "isERC1155": false,
                        "isERC721": false,
                        "sign": false,
                        "value": "5404.561061311358159"
                    }
                ]
            },
            {
                "account": "0xb6d78683a4e54b91031acb41510bd8e144fed025",
                "assets": [
                    {
                        "address": "0xb6d78683a4e54b91031acb41510bd8e144fed025",
                        "amount": "166,656.730549190755428197",
                        "iconUrl": "",
                        "isERC1155": false,
                        "isERC721": false,
                        "sign": true,
                        "value": "239.4569356"
                    }
                ]
            },
            {
                "account": "0xc02aaa39b223fe8d0a0e5c4f27ead9083c756cc2",
                "assets": [
                    {
                        "address": "0xeeeeeeeeeeeeeeeeeeeeeeeeeeeeeeeeeeeeeeee",
                        "amount": "1.355142438772282761",
                        "iconUrl": "https://assets.blocksec.com/image/1663669189317-3.png",
                        "isERC1155": false,
                        "isERC721": false,
                        "sign": false,
                        "value": "5404.561061311358159"
                    },
                    {
                        "address": "0xc02aaa39b223fe8d0a0e5c4f27ead9083c756cc2",
                        "amount": "1.355142438772282761",
                        "iconUrl": "https://assets.blocksec.com/icon/f1cb2d02c471d545bbc7722daf3277fd852d98e63d118771af7047bd8256c516.png",
                        "isERC1155": false,
                        "isERC721": false,
                        "sign": true,
                        "value": "5404.561061311358159"
                    }
                ]
            }
        ]
    },
    "profile": {
        "basic_info": {
            "baseFee": "59.071353482",
            "blockNumber": 19422100,
            "callData": "0x75713a08000000000000000000000000b6d78683a4e54b91031acb41510bd8e144fed025000000000000000000000000c02aaa39b223fe8d0a0e5c4f27ead9083c756cc20000000000000000000000007a250d5630b4cf539739df2c5dacb4c659f2488d000000000000000000000000174e3ed6eca132a0b5902fff54df535bb31c762d00000000000000000000000000000000000000000000000000000000000000000000000000000000000000000000000000000000000000000000000000000000000000000000000000000000c465cc50b7d5a29b9308968f870a4b242a8e18730000000000000000000000000000000000000000000000000000000000000120000000000000000000000000000000000000000000000000000000000000000a000000000000000000000000000000000000000000000000000000000000000600000000000000000000000000000000000000000000000000000000000000640000000000000000000000000000000000000000000000000000000000000002000000000000000000000000000000000000000000000000000000000000003300000000000000000000000000000000000000000000000000000000000001900000000000000000000000000000000000000000000000000000000065f0dc8f0000000000000000000000000000000000000000000000000000000000000000",
            "debugEnable": true,
            "errorInfo": "",
            "eventCount": 8,
            "feeRecipient": "0x1f9090aae28b8a3dceadf281b0f12828e676c326",
            "formatValue": "0",
            "gasLimit": 575265,
            "gasPrice": "84.071353482",
            "gasUsed": 194344,
            "intTxnCount": 15,
            "internalRevert": false,
            "internalRevertMessage": "",
            "isContractCreation": false,
            "isFlashloan": false,
            "maxFee": "84.071353482",
            "nonce": 332,
            "overwritedBlockNumber": -1,
            "priorityFee": "25",
            "receiver": "0x3328f7f4a1d1c57c35df56bbf0c9dcafca309c49",
            "revertMessage": "",
            "sender": "0xb742f26ca4760a765ac2f095b01fedae765dda40",
            "simulationEnable": true,
            "sourceTxnHash": "0x3c2a3ae9195767a8dc4ff236f0bdf4ff38faafd48e5b9645a55c29ed391870e0",
            "status": true,
            "timestamp": "2024-03-12T22:51:59Z",
            "transactionFee": "0.016338763121105808",
            "txnHash": "0x3c2a3ae9195767a8dc4ff236f0bdf4ff38faafd48e5b9645a55c29ed391870e0",
            "txnIndex": 0,
            "type": 2,
            "value": "0"
        },
        "fund_flow": [
            {
                "amount": "166,656.730549190755428197",
                "from": "0xb742f26ca4760a765ac2f095b01fedae765dda40",
                "id": 1,
                "isERC1155": false,
                "isERC721": false,
                "isReverted": false,
                "order": 1,
                "to": "0xb6d78683a4e54b91031acb41510bd8e144fed025",
                "token": "0xb6d78683a4e54b91031acb41510bd8e144fed025"
            },
            {
                "amount": "3,999,761.53318057813027675",
                "from": "0xb742f26ca4760a765ac2f095b01fedae765dda40",
                "id": 2,
                "isERC1155": false,
                "isERC721": false,
                "isReverted": false,
                "order": 2,
                "to": "0x174e3ed6eca132a0b5902fff54df535bb31c762d",
                "token": "0xb6d78683a4e54b91031acb41510bd8e144fed025"
            },
            {
                "amount": "1.355142438772282761",
                "from": "0x174e3ed6eca132a0b5902fff54df535bb31c762d",
                "id": 3,
                "isERC1155": false,
                "isERC721": false,
                "isReverted": false,
                "order": 3,
                "to": "0x3328f7f4a1d1c57c35df56bbf0c9dcafca309c49",
                "token": "0xc02aaa39b223fe8d0a0e5c4f27ead9083c756cc2"
            },
            {
                "amount": "1.355142438772282761",
                "from": "0xc02aaa39b223fe8d0a0e5c4f27ead9083c756cc2",
                "id": 4,
                "isERC1155": false,
                "isERC721": false,
                "isReverted": false,
                "order": 4,
                "to": "0x3328f7f4a1d1c57c35df56bbf0c9dcafca309c49",
                "token": "0xeeeeeeeeeeeeeeeeeeeeeeeeeeeeeeeeeeeeeeee"
            },
            {
                "amount": "1.355142438772282761",
                "from": "0x3328f7f4a1d1c57c35df56bbf0c9dcafca309c49",
                "id": 5,
                "isERC1155": false,
                "isERC721": false,
                "isReverted": false,
                "order": 5,
                "to": "0xc02aaa39b223fe8d0a0e5c4f27ead9083c756cc2",
                "token": "0xc02aaa39b223fe8d0a0e5c4f27ead9083c756cc2"
            },
            {
                "amount": "1.341591014384559934",
                "from": "0x3328f7f4a1d1c57c35df56bbf0c9dcafca309c49",
                "id": 6,
                "isERC1155": false,
                "isERC721": false,
                "isReverted": false,
                "order": 6,
                "to": "0xb742f26ca4760a765ac2f095b01fedae765dda40",
                "token": "0xeeeeeeeeeeeeeeeeeeeeeeeeeeeeeeeeeeeeeeee"
            }
        ],
        "token_infos": [
            {
                "address": "0xc02aaa39b223fe8d0a0e5c4f27ead9083c756cc2",
                "decimals": 18
            },
            {
                "address": "0xeeeeeeeeeeeeeeeeeeeeeeeeeeeeeeeeeeeeeeee",
                "decimals": 18
            },
            {
                "address": "0xb6d78683a4e54b91031acb41510bd8e144fed025",
                "decimals": 18
            }
        ]
    },
    "address_label": {
        "labels": [
            {
                "address": "0x3328f7f4a1d1c57c35df56bbf0c9dcafca309c49",
                "label": "Banana Gun: Router 2"
            },
            {
                "address": "0x0000000000000000000000000000000000000002",
                "label": "Precompiled"
            },
            {
                "address": "0xc02aaa39b223fe8d0a0e5c4f27ead9083c756cc2",
                "label": "Wrapped Ether (WETH)"
            },
            {
                "address": "0x174e3ed6eca132a0b5902fff54df535bb31c762d",
                "label": "UNI-V2"
            },
            {
                "address": "0xb6d78683a4e54b91031acb41510bd8e144fed025",
                "label": "CNFRG"
            },
            {
                "address": "0x0000000000000000000000000000000000000001",
                "label": "Precompiled"
            },
            {
                "address": "0x0000000000000000000000000000000000000003",
                "label": "Precompiled"
            },
            {
                "address": "0x0000000000000000000000000000000000000004",
                "label": "Precompiled"
            },
            {
                "address": "0xeeeeeeeeeeeeeeeeeeeeeeeeeeeeeeeeeeeeeeee",
                "label": "Ether"
            }
        ]
    },
    "trace": {
        "accountLabels": null,
        "dataMap": {
            "-1": {
                "invocation": {
                    "address": "0xb742f26ca4760a765ac2f095b01fedae765dda40",
                    "callData": "",
                    "decodedMethod": null,
                    "errorInfo": "",
                    "fromAddress": "",
                    "gasUsed": 0,
                    "id": -1,
                    "methodDecoded": false,
                    "operation": "",
                    "output": "",
                    "revert": false,
                    "revertMessage": "",
                    "selector": "",
                    "status": false,
                    "value": ""
                },
                "nodeType": 0
            },
            "0": {
                "invocation": {
                    "address": "0x3328f7f4a1d1c57c35df56bbf0c9dcafca309c49",
                    "callData": "0x000000000000000000000000b6d78683a4e54b91031acb41510bd8e144fed025000000000000000000000000c02aaa39b223fe8d0a0e5c4f27ead9083c756cc20000000000000000000000007a250d5630b4cf539739df2c5dacb4c659f2488d000000000000000000000000174e3ed6eca132a0b5902fff54df535bb31c762d00000000000000000000000000000000000000000000000000000000000000000000000000000000000000000000000000000000000000000000000000000000000000000000000000000000c465cc50b7d5a29b9308968f870a4b242a8e18730000000000000000000000000000000000000000000000000000000000000120000000000000000000000000000000000000000000000000000000000000000a000000000000000000000000000000000000000000000000000000000000000600000000000000000000000000000000000000000000000000000000000000640000000000000000000000000000000000000000000000000000000000000002000000000000000000000000000000000000000000000000000000000000003300000000000000000000000000000000000000000000000000000000000001900000000000000000000000000000000000000000000000000000000065f0dc8f0000000000000000000000000000000000000000000000000000000000000000",
                    "decodedMethod": null,
                    "errorInfo": "",
                    "fromAddress": "0xb742f26ca4760a765ac2f095b01fedae765dda40",
                    "gasUsed": 194344,
                    "id": 0,
                    "methodDecoded": false,
                    "operation": "CALL",
                    "output": "",
                    "revert": false,
                    "revertMessage": "",
                    "selector": "0x75713a08",
                    "status": true,
                    "value": "0"
                },
                "nodeType": 0
            },
            "1": {
                "invocation": {
                    "address": "0xe9930aedad07cbe1885872f87bfbd76bf463665f",
                    "callData": "0x000000000000000000000000b6d78683a4e54b91031acb41510bd8e144fed025000000000000000000000000c02aaa39b223fe8d0a0e5c4f27ead9083c756cc20000000000000000000000007a250d5630b4cf539739df2c5dacb4c659f2488d000000000000000000000000174e3ed6eca132a0b5902fff54df535bb31c762d00000000000000000000000000000000000000000000000000000000000000000000000000000000000000000000000000000000000000000000000000000000000000000000000000000000c465cc50b7d5a29b9308968f870a4b242a8e18730000000000000000000000000000000000000000000000000000000000000120000000000000000000000000000000000000000000000000000000000000000a000000000000000000000000000000000000000000000000000000000000000600000000000000000000000000000000000000000000000000000000000000640000000000000000000000000000000000000000000000000000000000000002000000000000000000000000000000000000000000000000000000000000003300000000000000000000000000000000000000000000000000000000000001900000000000000000000000000000000000000000000000000000000065f0dc8f0000000000000000000000000000000000000000000000000000000000000000",
                    "decodedMethod": null,
                    "errorInfo": "",
                    "fromAddress": "0x3328f7f4a1d1c57c35df56bbf0c9dcafca309c49",
                    "gasUsed": 190132,
                    "id": 1,
                    "methodDecoded": false,
                    "operation": "DELEGATECALL",
                    "output": "",
                    "revert": false,
                    "revertMessage": "",
                    "selector": "0x75713a08",
                    "status": true,
                    "value": "0"
                },
                "nodeType": 0
            },
            "10": {
                "invocation": {
                    "address": "0xc02aaa39b223fe8d0a0e5c4f27ead9083c756cc2",
                    "callData": "0x0000000000000000000000003328f7f4a1d1c57c35df56bbf0c9dcafca309c4900000000000000000000000000000000000000000000000012ce6ede43141589",
                    "decodedMethod": {
                        "callParams": [
                            {
                                "name": "dst",
                                "type": "address",
                                "value": "0x3328f7f4a1d1c57c35df56bbf0c9dcafca309c49"
                            },
                            {
                                "decimalAvailable": true,
                                "name": "wad",
                                "type": "uint256",
                                "value": "1,355,142,438,772,282,761"
                            }
                        ],
                        "constructorArguments": "",
                        "name": "transfer",
                        "returnParams": [
                            {
                                "name": "",
                                "type": "bool",
                                "value": true
                            }
                        ],
                        "signature": "transfer(address,uint256)"
                    },
                    "errorInfo": "",
                    "fromAddress": "0x174e3ed6eca132a0b5902fff54df535bb31c762d",
                    "gasUsed": 29962,
                    "id": 10,
                    "methodDecoded": true,
                    "operation": "CALL",
                    "output": "0x0000000000000000000000000000000000000000000000000000000000000001",
                    "revert": false,
                    "revertMessage": "",
                    "selector": "0xa9059cbb",
                    "status": true,
                    "value": "0"
                },
                "nodeType": 0
            },
            "11": {
                "event": {
                    "contract": "0xc02aaa39b223fe8d0a0e5c4f27ead9083c756cc2",
                    "decodedLog": {
                        "name": "Transfer",
                        "params": [
                            {
                                "name": "src",
                                "type": "address",
                                "value": "0x174e3ed6eca132a0b5902fff54df535bb31c762d"
                            },
                            {
                                "name": "dst",
                                "type": "address",
                                "value": "0x3328f7f4a1d1c57c35df56bbf0c9dcafca309c49"
                            },
                            {
                                "decimalAvailable": true,
                                "name": "wad",
                                "type": "uint256",
                                "value": "1,355,142,438,772,282,761"
                            }
                        ],
                        "signature": "Transfer(address,address,uint256)"
                    },
                    "id": 11,
                    "logData": "0x00000000000000000000000000000000000000000000000012ce6ede43141589",
                    "logDecoded": true,
                    "operation": "EVENT",
                    "revert": false,
                    "status": true,
                    "topics": [
                        "0xddf252ad1be2c89b69c2b068fc378daa952ba7f163c4a11628f55a4df523b3ef",
                        "0x000000000000000000000000174e3ed6eca132a0b5902fff54df535bb31c762d",
                        "0x0000000000000000000000003328f7f4a1d1c57c35df56bbf0c9dcafca309c49"
                    ]
                },
                "nodeType": 1
            },
            "12": {
                "invocation": {
                    "address": "0xb6d78683a4e54b91031acb41510bd8e144fed025",
                    "callData": "0x000000000000000000000000174e3ed6eca132a0b5902fff54df535bb31c762d",
                    "decodedMethod": {
                        "callParams": [
                            {
                                "name": "account",
                                "type": "address",
                                "value": "0x174e3ed6eca132a0b5902fff54df535bb31c762d"
                            }
                        ],
                        "constructorArguments": "",
                        "name": "balanceOf",
                        "returnParams": [
                            {
                                "decimalAvailable": true,
                                "name": "",
                                "type": "uint256",
                                "value": "55,466,062,734,859,447,859,761,747"
                            }
                        ],
                        "signature": "balanceOf(address)"
                    },
                    "errorInfo": "",
                    "fromAddress": "0x174e3ed6eca132a0b5902fff54df535bb31c762d",
                    "gasUsed": 975,
                    "id": 12,
                    "methodDecoded": true,
                    "operation": "STATICCALL",
                    "output": "0x0000000000000000000000000000000000000000002de165492b57859dfd5253",
                    "revert": false,
                    "revertMessage": "",
                    "selector": "0x70a08231",
                    "status": true,
                    "value": "0"
                },
                "nodeType": 0
            },
            "13": {
                "invocation": {
                    "address": "0xc02aaa39b223fe8d0a0e5c4f27ead9083c756cc2",
                    "callData": "0x000000000000000000000000174e3ed6eca132a0b5902fff54df535bb31c762d",
                    "decodedMethod": {
                        "callParams": [
                            {
                                "name": "",
                                "type": "address",
                                "value": "0x174e3ed6eca132a0b5902fff54df535bb31c762d"
                            }
                        ],
                        "constructorArguments": "",
                        "name": "balanceOf",
                        "returnParams": [
                            {
                                "decimalAvailable": true,
                                "name": "",
                                "type": "uint256",
                                "value": "17,489,550,423,887,232,977"
                            }
                        ],
                        "signature": "balanceOf(address)"
                    },
                    "errorInfo": "",
                    "fromAddress": "0x174e3ed6eca132a0b5902fff54df535bb31c762d",
                    "gasUsed": 534,
                    "id": 13,
                    "methodDecoded": true,
                    "operation": "STATICCALL",
                    "output": "0x000000000000000000000000000000000000000000000000f2b75d726914bfd1",
                    "revert": false,
                    "revertMessage": "",
                    "selector": "0x70a08231",
                    "status": true,
                    "value": "0"
                },
                "nodeType": 0
            },
            "14": {
                "event": {
                    "contract": "0x174e3ed6eca132a0b5902fff54df535bb31c762d",
                    "decodedLog": {
                        "name": "Sync",
                        "params": [
                            {
                                "name": "reserve0",
                                "type": "uint112",
                                "value": "55,466,062,734,859,447,859,761,747"
                            },
                            {
                                "name": "reserve1",
                                "type": "uint112",
                                "value": "17,489,550,423,887,232,977"
                            }
                        ],
                        "signature": "Sync(uint112,uint112)"
                    },
                    "id": 14,
                    "logData": "0x0000000000000000000000000000000000000000002de165492b57859dfd5253000000000000000000000000000000000000000000000000f2b75d726914bfd1",
                    "logDecoded": true,
                    "operation": "EVENT",
                    "revert": false,
                    "status": true,
                    "topics": [
                        "0x1c411e9a96e071241c2f21f7726b17ae89e3cab4c78be50e062b03a9fffbbad1"
                    ]
                },
                "nodeType": 1
            },
            "15": {
                "event": {
                    "contract": "0x174e3ed6eca132a0b5902fff54df535bb31c762d",
                    "decodedLog": {
                        "name": "Swap",
                        "params": [
                            {
                                "name": "sender",
                                "type": "address",
                                "value": "0x3328f7f4a1d1c57c35df56bbf0c9dcafca309c49"
                            },
                            {
                                "name": "to",
                                "type": "address",
                                "value": "0x3328f7f4a1d1c57c35df56bbf0c9dcafca309c49"
                            },
                            {
                                "name": "amount0In",
                                "type": "uint256",
                                "value": "3,999,761,533,180,578,130,276,750"
                            },
                            {
                                "name": "amount1In",
                                "type": "uint256",
                                "value": "0"
                            },
                            {
                                "name": "amount0Out",
                                "type": "uint256",
                                "value": "0"
                            },
                            {
                                "name": "amount1Out",
                                "type": "uint256",
                                "value": "1,355,142,438,772,282,761"
                            }
                        ],
                        "signature": "Swap(address,uint256,uint256,uint256,uint256,address)"
                    },
                    "id": 15,
                    "logData": "0x000000000000000000000000000000000000000000034efb81d6dee66e3bb18e0000000000000000000000000000000000000000000000000000000000000000000000000000000000000000000000000000000000000000000000000000000000000000000000000000000000000000000000000000000012ce6ede43141589",
                    "logDecoded": true,
                    "operation": "EVENT",
                    "revert": false,
                    "status": true,
                    "topics": [
                        "0xd78ad95fa46c994b6551d0da85fc275fe613ce37657fb8d5e3d130840159d822",
                        "0x0000000000000000000000003328f7f4a1d1c57c35df56bbf0c9dcafca309c49",
                        "0x0000000000000000000000003328f7f4a1d1c57c35df56bbf0c9dcafca309c49"
                    ]
                },
                "nodeType": 1
            },
            "16": {
                "invocation": {
                    "address": "0xc02aaa39b223fe8d0a0e5c4f27ead9083c756cc2",
                    "callData": "0x0000000000000000000000003328f7f4a1d1c57c35df56bbf0c9dcafca309c49",
                    "decodedMethod": {
                        "callParams": [
                            {
                                "name": "",
                                "type": "address",
                                "value": "0x3328f7f4a1d1c57c35df56bbf0c9dcafca309c49"
                            }
                        ],
                        "constructorArguments": "",
                        "name": "balanceOf",
                        "returnParams": [
                            {
                                "decimalAvailable": true,
                                "name": "",
                                "type": "uint256",
                                "value": "1,355,142,438,772,282,761"
                            }
                        ],
                        "signature": "balanceOf(address)"
                    },
                    "errorInfo": "",
                    "fromAddress": "0x3328f7f4a1d1c57c35df56bbf0c9dcafca309c49",
                    "gasUsed": 534,
                    "id": 16,
                    "methodDecoded": true,
                    "operation": "STATICCALL",
                    "output": "0x00000000000000000000000000000000000000000000000012ce6ede43141589",
                    "revert": false,
                    "revertMessage": "",
                    "selector": "0x70a08231",
                    "status": true,
                    "value": "0"
                },
                "nodeType": 0
            },
            "17": {
                "invocation": {
                    "address": "0xc02aaa39b223fe8d0a0e5c4f27ead9083c756cc2",
                    "callData": "0x00000000000000000000000000000000000000000000000012ce6ede43141589",
                    "decodedMethod": {
                        "callParams": [
                            {
                                "name": "wad",
                                "type": "uint256",
                                "value": "1,355,142,438,772,282,761"
                            }
                        ],
                        "constructorArguments": "",
                        "name": "withdraw",
                        "returnParams": [],
                        "signature": "withdraw(uint256)"
                    },
                    "errorInfo": "",
                    "fromAddress": "0x3328f7f4a1d1c57c35df56bbf0c9dcafca309c49",
                    "gasUsed": 9856,
                    "id": 17,
                    "methodDecoded": true,
                    "operation": "CALL",
                    "output": "",
                    "revert": false,
                    "revertMessage": "",
                    "selector": "0x2e1a7d4d",
                    "status": true,
                    "value": "0"
                },
                "nodeType": 0
            },
            "18": {
                "invocation": {
                    "address": "0x3328f7f4a1d1c57c35df56bbf0c9dcafca309c49",
                    "callData": "0x",
                    "decodedMethod": null,
                    "errorInfo": "",
                    "fromAddress": "0xc02aaa39b223fe8d0a0e5c4f27ead9083c756cc2",
                    "gasUsed": 716,
                    "id": 18,
                    "methodDecoded": false,
                    "operation": "CALL",
                    "output": "",
                    "revert": false,
                    "revertMessage": "",
                    "selector": "fallback",
                    "status": true,
                    "value": "1.355142438772282761"
                },
                "nodeType": 0
            },
            "19": {
                "invocation": {
                    "address": "0xe9930aedad07cbe1885872f87bfbd76bf463665f",
                    "callData": "0x",
                    "decodedMethod": null,
                    "errorInfo": "",
                    "fromAddress": "0x3328f7f4a1d1c57c35df56bbf0c9dcafca309c49",
                    "gasUsed": 55,
                    "id": 19,
                    "methodDecoded": false,
                    "operation": "DELEGATECALL",
                    "output": "",
                    "revert": false,
                    "revertMessage": "",
                    "selector": "fallback",
                    "status": true,
                    "value": "1.355142438772282761"
                },
                "nodeType": 0
            },
            "2": {
                "invocation": {
                    "address": "0xb6d78683a4e54b91031acb41510bd8e144fed025",
                    "callData": "0x000000000000000000000000b742f26ca4760a765ac2f095b01fedae765dda40",
                    "decodedMethod": {
                        "callParams": [
                            {
                                "name": "account",
                                "type": "address",
                                "value": "0xb742f26ca4760a765ac2f095b01fedae765dda40"
                            }
                        ],
                        "constructorArguments": "",
                        "name": "balanceOf",
                        "returnParams": [
                            {
                                "decimalAvailable": true,
                                "name": "",
                                "type": "uint256",
                                "value": "4,166,418,263,729,768,885,704,947"
                            }
                        ],
                        "signature": "balanceOf(address)"
                    },
                    "errorInfo": "",
                    "fromAddress": "0x3328f7f4a1d1c57c35df56bbf0c9dcafca309c49",
                    "gasUsed": 2975,
                    "id": 2,
                    "methodDecoded": true,
                    "operation": "STATICCALL",
                    "output": "0x000000000000000000000000000000000000000000037245fc9528300828d8f3",
                    "revert": false,
                    "revertMessage": "",
                    "selector": "0x70a08231",
                    "status": true,
                    "value": "0"
                },
                "nodeType": 0
            },
            "20": {
                "event": {
                    "contract": "0xc02aaa39b223fe8d0a0e5c4f27ead9083c756cc2",
                    "decodedLog": {
                        "name": "Withdrawal",
                        "params": [
                            {
                                "name": "src",
                                "type": "address",
                                "value": "0x3328f7f4a1d1c57c35df56bbf0c9dcafca309c49"
                            },
                            {
                                "name": "wad",
                                "type": "uint256",
                                "value": "1,355,142,438,772,282,761"
                            }
                        ],
                        "signature": "Withdrawal(address,uint256)"
                    },
                    "id": 20,
                    "logData": "0x00000000000000000000000000000000000000000000000012ce6ede43141589",
                    "logDecoded": true,
                    "operation": "EVENT",
                    "revert": false,
                    "status": true,
                    "topics": [
                        "0x7fcf532c15f0a6db0bd6d0e038bea71d30d808c7d98cb3bf7268a95bf5081b65",
                        "0x0000000000000000000000003328f7f4a1d1c57c35df56bbf0c9dcafca309c49"
                    ]
                },
                "nodeType": 1
            },
            "21": {
                "invocation": {
                    "address": "0xb742f26ca4760a765ac2f095b01fedae765dda40",
                    "callData": "0x",
                    "decodedMethod": null,
                    "errorInfo": "",
                    "fromAddress": "0x3328f7f4a1d1c57c35df56bbf0c9dcafca309c49",
                    "gasUsed": 0,
                    "id": 21,
                    "methodDecoded": false,
                    "operation": "CALL",
                    "output": "",
                    "revert": false,
                    "revertMessage": "",
                    "selector": "fallback",
                    "status": true,
                    "value": "1.341591014384559934"
                },
                "nodeType": 0
            },
            "22": {
                "event": {
                    "contract": "0x3328f7f4a1d1c57c35df56bbf0c9dcafca309c49",
                    "decodedLog": null,
                    "id": 22,
                    "logData": "0x000000000000000000000000000000000000000000000000003024f2dcd4ae4b000000000000000000000000b742f26ca4760a765ac2f095b01fedae765dda400000000000000000000000000000000000000000000000000000000000000033",
                    "logDecoded": false,
                    "operation": "EVENT",
                    "revert": false,
                    "status": true,
                    "topics": [
                        "0x72015ace03712f361249380657b3d40777dd8f8a686664cab48afd9dbbe4499f"
                    ]
                },
                "nodeType": 1
            },
            "23": {
                "event": {
                    "contract": "0x3328f7f4a1d1c57c35df56bbf0c9dcafca309c49",
                    "decodedLog": {
                        "name": "Sell",
                        "params": [
                            {
                                "name": "amount",
                                "type": "uint256",
                                "value": "1,355,142,438,772,282,761"
                            }
                        ],
                        "signature": "Sell(uint256)"
                    },
                    "id": 23,
                    "logData": "0x00000000000000000000000000000000000000000000000012ce6ede43141589",
                    "logDecoded": true,
                    "operation": "EVENT",
                    "revert": false,
                    "status": true,
                    "topics": [
                        "0x522881958b3c4a6fc0840ad3b7fb947b881edc28c004245a62541647422ade97"
                    ]
                },
                "nodeType": 1
            },
            "3": {
                "invocation": {
                    "address": "0xc465cc50b7d5a29b9308968f870a4b242a8e1873",
                    "callData": "0x000000000000000000000000b6d78683a4e54b91031acb41510bd8e144fed025000000000000000000000000b742f26ca4760a765ac2f095b01fedae765dda40000000000000000000000000174e3ed6eca132a0b5902fff54df535bb31c762d000000000000000000000000000000000000000000037245fc9528300828d8f3",
                    "decodedMethod": null,
                    "errorInfo": "",
                    "fromAddress": "0x3328f7f4a1d1c57c35df56bbf0c9dcafca309c49",
                    "gasUsed": 75602,
                    "id": 3,
                    "methodDecoded": false,
                    "operation": "CALL",
                    "output": "",
                    "revert": false,
                    "revertMessage": "",
                    "selector": "0x199f7260",
                    "status": true,
                    "value": "0"
                },
                "nodeType": 0
            },
            "4": {
                "invocation": {
                    "address": "0xb6d78683a4e54b91031acb41510bd8e144fed025",
                    "callData": "0x000000000000000000000000b742f26ca4760a765ac2f095b01fedae765dda40000000000000000000000000174e3ed6eca132a0b5902fff54df535bb31c762d000000000000000000000000000000000000000000037245fc9528300828d8f3",
                    "decodedMethod": {
                        "callParams": [
                            {
                                "name": "from",
                                "type": "address",
                                "value": "0xb742f26ca4760a765ac2f095b01fedae765dda40"
                            },
                            {
                                "name": "to",
                                "type": "address",
                                "value": "0x174e3ed6eca132a0b5902fff54df535bb31c762d"
                            },
                            {
                                "decimalAvailable": true,
                                "name": "amount",
                                "type": "uint256",
                                "value": "4,166,418,263,729,768,885,704,947"
                            }
                        ],
                        "constructorArguments": "",
                        "name": "transferFrom",
                        "returnParams": [
                            {
                                "name": "",
                                "type": "bool",
                                "value": true
                            }
                        ],
                        "signature": "transferFrom(address,address,uint256)"
                    },
                    "errorInfo": "",
                    "fromAddress": "0xc465cc50b7d5a29b9308968f870a4b242a8e1873",
                    "gasUsed": 74747,
                    "id": 4,
                    "methodDecoded": true,
                    "operation": "CALL",
                    "output": "0x0000000000000000000000000000000000000000000000000000000000000001",
                    "revert": false,
                    "revertMessage": "",
                    "selector": "0x23b872dd",
                    "status": true,
                    "value": "0"
                },
                "nodeType": 0
            },
            "5": {
                "event": {
                    "contract": "0xb6d78683a4e54b91031acb41510bd8e144fed025",
                    "decodedLog": {
                        "name": "Transfer",
                        "params": [
                            {
                                "name": "from",
                                "type": "address",
                                "value": "0xb742f26ca4760a765ac2f095b01fedae765dda40"
                            },
                            {
                                "name": "to",
                                "type": "address",
                                "value": "0xb6d78683a4e54b91031acb41510bd8e144fed025"
                            },
                            {
                                "decimalAvailable": true,
                                "name": "value",
                                "type": "uint256",
                                "value": "166,656,730,549,190,755,428,197"
                            }
                        ],
                        "signature": "Transfer(address,address,uint256)"
                    },
                    "id": 5,
                    "logData": "0x00000000000000000000000000000000000000000000234a7abe494999ed2765",
                    "logDecoded": true,
                    "operation": "EVENT",
                    "revert": false,
                    "status": true,
                    "topics": [
                        "0xddf252ad1be2c89b69c2b068fc378daa952ba7f163c4a11628f55a4df523b3ef",
                        "0x000000000000000000000000b742f26ca4760a765ac2f095b01fedae765dda40",
                        "0x000000000000000000000000b6d78683a4e54b91031acb41510bd8e144fed025"
                    ]
                },
                "nodeType": 1
            },
            "6": {
                "event": {
                    "contract": "0xb6d78683a4e54b91031acb41510bd8e144fed025",
                    "decodedLog": {
                        "name": "Transfer",
                        "params": [
                            {
                                "name": "from",
                                "type": "address",
                                "value": "0xb742f26ca4760a765ac2f095b01fedae765dda40"
                            },
                            {
                                "name": "to",
                                "type": "address",
                                "value": "0x174e3ed6eca132a0b5902fff54df535bb31c762d"
                            },
                            {
                                "decimalAvailable": true,
                                "name": "value",
                                "type": "uint256",
                                "value": "3,999,761,533,180,578,130,276,750"
                            }
                        ],
                        "signature": "Transfer(address,address,uint256)"
                    },
                    "id": 6,
                    "logData": "0x000000000000000000000000000000000000000000034efb81d6dee66e3bb18e",
                    "logDecoded": true,
                    "operation": "EVENT",
                    "revert": false,
                    "status": true,
                    "topics": [
                        "0xddf252ad1be2c89b69c2b068fc378daa952ba7f163c4a11628f55a4df523b3ef",
                        "0x000000000000000000000000b742f26ca4760a765ac2f095b01fedae765dda40",
                        "0x000000000000000000000000174e3ed6eca132a0b5902fff54df535bb31c762d"
                    ]
                },
                "nodeType": 1
            },
            "7": {
                "invocation": {
                    "address": "0x174e3ed6eca132a0b5902fff54df535bb31c762d",
                    "callData": "0x",
                    "decodedMethod": {
                        "callParams": [],
                        "constructorArguments": "",
                        "name": "getReserves",
                        "returnParams": [
                            {
                                "name": "_reserve0",
                                "type": "uint112",
                                "value": "51,466,301,201,678,869,729,484,997"
                            },
                            {
                                "name": "_reserve1",
                                "type": "uint112",
                                "value": "18,844,692,862,659,515,738"
                            },
                            {
                                "name": "_blockTimestampLast",
                                "type": "uint32",
                                "value": "1,710,277,895"
                            }
                        ],
                        "signature": "getReserves()"
                    },
                    "errorInfo": "",
                    "fromAddress": "0x3328f7f4a1d1c57c35df56bbf0c9dcafca309c49",
                    "gasUsed": 2504,
                    "id": 7,
                    "methodDecoded": true,
                    "operation": "STATICCALL",
                    "output": "0x0000000000000000000000000000000000000000002a9269c754789f2fc1a0c50000000000000000000000000000000000000000000000010585cc50ac28d55a0000000000000000000000000000000000000000000000000000000065f0c507",
                    "revert": false,
                    "revertMessage": "",
                    "selector": "0x0902f1ac",
                    "status": true,
                    "value": "0"
                },
                "nodeType": 0
            },
            "8": {
                "invocation": {
                    "address": "0xb6d78683a4e54b91031acb41510bd8e144fed025",
                    "callData": "0x000000000000000000000000174e3ed6eca132a0b5902fff54df535bb31c762d",
                    "decodedMethod": {
                        "callParams": [
                            {
                                "name": "account",
                                "type": "address",
                                "value": "0x174e3ed6eca132a0b5902fff54df535bb31c762d"
                            }
                        ],
                        "constructorArguments": "",
                        "name": "balanceOf",
                        "returnParams": [
                            {
                                "decimalAvailable": true,
                                "name": "",
                                "type": "uint256",
                                "value": "55,466,062,734,859,447,859,761,747"
                            }
                        ],
                        "signature": "balanceOf(address)"
                    },
                    "errorInfo": "",
                    "fromAddress": "0x3328f7f4a1d1c57c35df56bbf0c9dcafca309c49",
                    "gasUsed": 975,
                    "id": 8,
                    "methodDecoded": true,
                    "operation": "STATICCALL",
                    "output": "0x0000000000000000000000000000000000000000002de165492b57859dfd5253",
                    "revert": false,
                    "revertMessage": "",
                    "selector": "0x70a08231",
                    "status": true,
                    "value": "0"
                },
                "nodeType": 0
            },
            "9": {
                "invocation": {
                    "address": "0x174e3ed6eca132a0b5902fff54df535bb31c762d",
                    "callData": "0x000000000000000000000000000000000000000000000000000000000000000000000000000000000000000000000000000000000000000012ce6ede431415890000000000000000000000003328f7f4a1d1c57c35df56bbf0c9dcafca309c4900000000000000000000000000000000000000000000000000000000000000800000000000000000000000000000000000000000000000000000000000000000",
                    "decodedMethod": {
                        "callParams": [
                            {
                                "name": "amount0Out",
                                "type": "uint256",
                                "value": "0"
                            },
                            {
                                "name": "amount1Out",
                                "type": "uint256",
                                "value": "1,355,142,438,772,282,761"
                            },
                            {
                                "name": "to",
                                "type": "address",
                                "value": "0x3328f7f4a1d1c57c35df56bbf0c9dcafca309c49"
                            },
                            {
                                "name": "data",
                                "type": "bytes",
                                "value": "0x"
                            }
                        ],
                        "constructorArguments": "",
                        "name": "swap",
                        "returnParams": [],
                        "signature": "swap(uint256,uint256,address,bytes)"
                    },
                    "errorInfo": "",
                    "fromAddress": "0x3328f7f4a1d1c57c35df56bbf0c9dcafca309c49",
                    "gasUsed": 65294,
                    "id": 9,
                    "methodDecoded": true,
                    "operation": "CALL",
                    "output": "",
                    "revert": false,
                    "revertMessage": "",
                    "selector": "0x022c0d9f",
                    "status": true,
                    "value": "0"
                },
                "nodeType": 0
            }
        },
        "gasFlame": [
            {
                "children": [
                    {
                        "children": [
                            {
                                "children": [],
                                "depth": 0,
                                "name": "Initial Gas",
                                "value": 24468
                            },
                            {
                                "children": [
                                    {
                                        "children": [
                                            {
                                                "children": [],
                                                "depth": 2,
                                                "name": "balanceOf",
                                                "value": 2975
                                            },
                                            {
                                                "children": [
                                                    {
                                                        "children": [],
                                                        "depth": 3,
                                                        "name": "transferFrom",
                                                        "value": 74747
                                                    }
                                                ],
                                                "depth": 2,
                                                "name": "0x199f7260",
                                                "value": 75602
                                            },
                                            {
                                                "children": [],
                                                "depth": 2,
                                                "name": "getReserves",
                                                "value": 2504
                                            },
                                            {
                                                "children": [],
                                                "depth": 2,
                                                "name": "balanceOf",
                                                "value": 975
                                            },
                                            {
                                                "children": [
                                                    {
                                                        "children": [],
                                                        "depth": 3,
                                                        "name": "transfer",
                                                        "value": 29962
                                                    },
                                                    {
                                                        "children": [],
                                                        "depth": 3,
                                                        "name": "balanceOf",
                                                        "value": 975
                                                    },
                                                    {
                                                        "children": [],
                                                        "depth": 3,
                                                        "name": "balanceOf",
                                                        "value": 534
                                                    }
                                                ],
                                                "depth": 2,
                                                "name": "swap",
                                                "value": 65294
                                            },
                                            {
                                                "children": [],
                                                "depth": 2,
                                                "name": "balanceOf",
                                                "value": 534
                                            },
                                            {
                                                "children": [
                                                    {
                                                        "children": [
                                                            {
                                                                "children": [],
                                                                "depth": 4,
                                                                "name": "fallback",
                                                                "value": 55
                                                            }
                                                        ],
                                                        "depth": 3,
                                                        "name": "fallback",
                                                        "value": 716
                                                    }
                                                ],
                                                "depth": 2,
                                                "name": "withdraw",
                                                "value": 9856
                                            },
                                            {
                                                "children": [],
                                                "depth": 2,
                                                "name": "fallback",
                                                "value": 0
                                            }
                                        ],
                                        "depth": 1,
                                        "name": "0x75713a08",
                                        "value": 190132
                                    }
                                ],
                                "depth": 0,
                                "name": "Executed Gas",
                                "value": 197376
                            }
                        ],
                        "depth": -1,
                        "name": "Actual Gas Used",
                        "value": 194344
                    },
                    {
                        "children": [],
                        "depth": -1,
                        "name": "Refunded Gas",
                        "value": 27500
                    }
                ],
                "depth": -2,
                "name": "Total Gas",
                "value": 221844
            }
        ],
        "isConfirmed": true,
        "mainTrace": [
            {
                "children": [
                    {
                        "children": [
                            {
                                "children": [
                                    {
                                        "children": [],
                                        "depth": 2,
                                        "id": 2,
                                        "order": 2
                                    },
                                    {
                                        "children": [
                                            {
                                                "children": [
                                                    {
                                                        "children": [],
                                                        "depth": 4,
                                                        "id": 5,
                                                        "order": 5
                                                    },
                                                    {
                                                        "children": [],
                                                        "depth": 4,
                                                        "id": 6,
                                                        "order": 6
                                                    }
                                                ],
                                                "depth": 3,
                                                "id": 4,
                                                "order": 4
                                            }
                                        ],
                                        "depth": 2,
                                        "id": 3,
                                        "order": 3
                                    },
                                    {
                                        "children": [],
                                        "depth": 2,
                                        "id": 7,
                                        "order": 7
                                    },
                                    {
                                        "children": [],
                                        "depth": 2,
                                        "id": 8,
                                        "order": 8
                                    },
                                    {
                                        "children": [
                                            {
                                                "children": [
                                                    {
                                                        "children": [],
                                                        "depth": 4,
                                                        "id": 11,
                                                        "order": 11
                                                    }
                                                ],
                                                "depth": 3,
                                                "id": 10,
                                                "order": 10
                                            },
                                            {
                                                "children": [],
                                                "depth": 3,
                                                "id": 12,
                                                "order": 12
                                            },
                                            {
                                                "children": [],
                                                "depth": 3,
                                                "id": 13,
                                                "order": 13
                                            },
                                            {
                                                "children": [],
                                                "depth": 3,
                                                "id": 14,
                                                "order": 14
                                            },
                                            {
                                                "children": [],
                                                "depth": 3,
                                                "id": 15,
                                                "order": 15
                                            }
                                        ],
                                        "depth": 2,
                                        "id": 9,
                                        "order": 9
                                    },
                                    {
                                        "children": [],
                                        "depth": 2,
                                        "id": 16,
                                        "order": 16
                                    },
                                    {
                                        "children": [
                                            {
                                                "children": [
                                                    {
                                                        "children": [],
                                                        "depth": 4,
                                                        "id": 19,
                                                        "order": 19
                                                    }
                                                ],
                                                "depth": 3,
                                                "id": 18,
                                                "order": 18
                                            },
                                            {
                                                "children": [],
                                                "depth": 3,
                                                "id": 20,
                                                "order": 20
                                            }
                                        ],
                                        "depth": 2,
                                        "id": 17,
                                        "order": 17
                                    },
                                    {
                                        "children": [],
                                        "depth": 2,
                                        "id": 21,
                                        "order": 21
                                    },
                                    {
                                        "children": [],
                                        "depth": 2,
                                        "id": 22,
                                        "order": 22
                                    },
                                    {
                                        "children": [],
                                        "depth": 2,
                                        "id": 23,
                                        "order": 23
                                    }
                                ],
                                "depth": 1,
                                "id": 1,
                                "order": 1
                            }
                        ],
                        "depth": 0,
                        "id": 0,
                        "order": 0
                    }
                ],
                "depth": -1,
                "id": -1,
                "order": -1
            }
        ],
        "mainTraceNodeCount": 24,
        "parentIdMap": {
            "0": -1,
            "1": 0,
            "10": 9,
            "11": 10,
            "12": 9,
            "13": 9,
            "14": 9,
            "15": 9,
            "16": 1,
            "17": 1,
            "18": 17,
            "19": 18,
            "2": 1,
            "20": 17,
            "21": 1,
            "22": 1,
            "23": 1,
            "3": 1,
            "4": 3,
            "5": 4,
            "6": 4,
            "7": 1,
            "8": 1,
            "9": 1
        },
        "tidyTrace": [
            {
                "children": [
                    {
                        "children": [
                            {
                                "children": [
                                    {
                                        "children": [
                                            {
                                                "children": [
                                                    {
                                                        "children": [],
                                                        "depth": 4,
                                                        "id": 5,
                                                        "order": 5
                                                    },
                                                    {
                                                        "children": [],
                                                        "depth": 4,
                                                        "id": 6,
                                                        "order": 6
                                                    }
                                                ],
                                                "depth": 3,
                                                "id": 4,
                                                "order": 4
                                            }
                                        ],
                                        "depth": 2,
                                        "id": 3,
                                        "order": 3
                                    },
                                    {
                                        "children": [
                                            {
                                                "children": [
                                                    {
                                                        "children": [],
                                                        "depth": 4,
                                                        "id": 11,
                                                        "order": 11
                                                    }
                                                ],
                                                "depth": 3,
                                                "id": 10,
                                                "order": 10
                                            },
                                            {
                                                "children": [],
                                                "depth": 3,
                                                "id": 14,
                                                "order": 14
                                            },
                                            {
                                                "children": [],
                                                "depth": 3,
                                                "id": 15,
                                                "order": 15
                                            }
                                        ],
                                        "depth": 2,
                                        "id": 9,
                                        "order": 9
                                    },
                                    {
                                        "children": [
                                            {
                                                "children": [
                                                    {
                                                        "children": [],
                                                        "depth": 4,
                                                        "id": 19,
                                                        "order": 19
                                                    }
                                                ],
                                                "depth": 3,
                                                "id": 18,
                                                "order": 18
                                            },
                                            {
                                                "children": [],
                                                "depth": 3,
                                                "id": 20,
                                                "order": 20
                                            }
                                        ],
                                        "depth": 2,
                                        "id": 17,
                                        "order": 17
                                    },
                                    {
                                        "children": [],
                                        "depth": 2,
                                        "id": 21,
                                        "order": 21
                                    },
                                    {
                                        "children": [],
                                        "depth": 2,
                                        "id": 22,
                                        "order": 22
                                    },
                                    {
                                        "children": [],
                                        "depth": 2,
                                        "id": 23,
                                        "order": 23
                                    }
                                ],
                                "depth": 1,
                                "id": 1,
                                "order": 1
                            }
                        ],
                        "depth": 0,
                        "id": 0,
                        "order": 0
                    }
                ],
                "depth": -1,
                "id": -1,
                "order": -1
            }
        ],
        "tidyTraceNodeCount": 18
    },
    "state_change": {
        "stateChanges": [
            {
                "address": "0x174e3ed6eca132a0b5902fff54df535bb31c762d",
                "erc": "ERC-20",
                "slots": [
                    {
                        "current": "0x00000000000000000000000000000000000097de56c70fd76e75a28096d1804c",
                        "key": "0x0000000000000000000000000000000000000000000000000000000000000009",
                        "prev": "0x000000000000000000000000000000000000974dc8e0c880f551bd4fe7e28fc4"
                    },
                    {
                        "current": "0x000000000000000000000000324300fe322d99c0bf7263ad751bc4411a1c27c4",
                        "key": "0x000000000000000000000000000000000000000000000000000000000000000a",
                        "prev": "0x000000000000000000000000323f2c608212cefe3f4bc6c5c5f445ae4ba05034"
                    },
                    {
                        "current": "0x65f0dc8f000000000000f2b75d726914bfd10000002de165492b57859dfd5253",
                        "key": "0x0000000000000000000000000000000000000000000000000000000000000008",
                        "prev": "0x65f0c5070000000000010585cc50ac28d55a0000002a9269c754789f2fc1a0c5"
                    }
                ],
                "storageVariables": [
                    {
                        "name": "price1CumulativeLast",
                        "type": "uint256",
                        "value": {
                            "current": "286943774967912897508116154177438721214970079172",
                            "prev": "286858351269284926445932373050725977365590069300",
                            "typeTag": 1
                        }
                    },
                    {
                        "name": "reserve0",
                        "type": "uint112",
                        "value": {
                            "current": "55466062734859447859761747",
                            "prev": "51466301201678869729484997",
                            "typeTag": 1
                        }
                    },
                    {
                        "name": "reserve1",
                        "type": "uint112",
                        "value": {
                            "current": "17489550423887232977",
                            "prev": "18844692862659515738",
                            "typeTag": 1
                        }
                    },
                    {
                        "name": "blockTimestampLast",
                        "type": "uint32",
                        "value": {
                            "current": "1710283919",
                            "prev": "1710277895",
                            "typeTag": 1
                        }
                    },
                    {
                        "name": "price0CumulativeLast",
                        "type": "uint256",
                        "value": {
                            "current": "3080259358591461162614399647711308",
                            "prev": "3068806587413200607634945080463300",
                            "typeTag": 1
                        }
                    }
                ]
            },
            {
                "address": "0x3328f7f4a1d1c57c35df56bbf0c9dcafca309c49",
                "erc": "",
                "slots": [
                    {
                        "current": "0x000000000000000000000000000000000000000000000002bce1612ff7f158e0",
                        "key": "0x0000000000000000000000000000000000000000000000000000000000000001",
                        "prev": "0x000000000000000000000000000000000000000000000002bcb13c3d1b1caa95"
                    }
                ],
                "storageVariables": []
            },
            {
                "address": "0xb6d78683a4e54b91031acb41510bd8e144fed025",
                "erc": "ERC-20",
                "slots": [
                    {
                        "current": "0x00000000000000000000000000000000000000000000594ae18d3224870ca0d4",
                        "key": "0x000000000000000000000000000000000000000000000000000000000000001c",
                        "prev": "0x0000000000000000000000000000000000000000000047a5a42e0d7fba160d22"
                    },
                    {
                        "current": "0x0000000000000000000000000000000000000000000000000000000000000000",
                        "key": "0xe1d14be8aec91b3c38355eb7dbd32ddd2acb1829e5202f7ebf5bb926e47e6fc7",
                        "prev": "0x000000000000000000000000000000000000000000037245fc9528300828d8f3"
                    },
                    {
                        "current": "0x00000000000000000000000000000000000000000000b295c31a64490e1941b3",
                        "key": "0x6038b41de04afa7d4ff831f0a4a9a7d866522d22020e2dc3ee7dddd9d452c69d",
                        "prev": "0x000000000000000000000000000000000000000000008f4b485c1aff742c1a4e"
                    },
                    {
                        "current": "0x0000000000000000000000000000000000000000002de165492b57859dfd5253",
                        "key": "0xe786b722a19d4a3e0f6fa4e684cbcd802bc9c588a2d7f011ea9d988ca3f8c42b",
                        "prev": "0x0000000000000000000000000000000000000000002a9269c754789f2fc1a0c5"
                    },
                    {
                        "current": "0x000000000000000000000000000000000000000000002ca570c6991243865066",
                        "key": "0x000000000000000000000000000000000000000000000000000000000000001d",
                        "prev": "0x0000000000000000000000000000000000000000000023d2d21706bfdd0b068d"
                    },
                    {
                        "current": "0x000000000000000000000000000000000000000000002ca570c6991243865066",
                        "key": "0x000000000000000000000000000000000000000000000000000000000000001e",
                        "prev": "0x0000000000000000000000000000000000000000000023d2d21706bfdd0b068d"
                    }
                ],
                "storageVariables": [
                    {
                        "name": "tokensForLiquidity",
                        "type": "uint256",
                        "value": {
                            "current": "210835964369307823394918",
                            "prev": "169171781732010134537869",
                            "typeTag": 1
                        }
                    },
                    {
                        "name": "tokensForDev",
                        "type": "uint256",
                        "value": {
                            "current": "210835964369307823394918",
                            "prev": "169171781732010134537869",
                            "typeTag": 1
                        }
                    },
                    {
                        "name": "tokensForMarketing",
                        "type": "uint256",
                        "value": {
                            "current": "421671928738615646789844",
                            "prev": "338343563464020269075746",
                            "typeTag": 1
                        }
                    },
                    {
                        "name": "_balances",
                        "type": "mapping(address => uint256)",
                        "value": {
                            "pairs": [
                                {
                                    "key": "0x174e3ed6eca132a0b5902fff54df535bb31c762d",
                                    "value": {
                                        "current": "55466062734859447859761747",
                                        "prev": "51466301201678869729484997",
                                        "typeTag": 1
                                    }
                                },
                                {
                                    "key": "0xb6d78683a4e54b91031acb41510bd8e144fed025",
                                    "value": {
                                        "current": "843343857477231293579699",
                                        "prev": "676687126928040538151502",
                                        "typeTag": 1
                                    }
                                },
                                {
                                    "key": "0xb742f26ca4760a765ac2f095b01fedae765dda40",
                                    "value": {
                                        "current": "0",
                                        "prev": "4166418263729768885704947",
                                        "typeTag": 1
                                    }
                                }
                            ],
                            "typeTag": 4
                        }
                    }
                ]
            },
            {
                "address": "0xc02aaa39b223fe8d0a0e5c4f27ead9083c756cc2",
                "erc": "ERC-20",
                "slots": [
                    {
                        "current": "0x000000000000000000000000000000000000000000000000f2b75d726914bfd1",
                        "key": "0x48a341ce8390e508829515ed0355d3cc8ce46ecd0a9ece32c3944927ee90dd14",
                        "prev": "0x0000000000000000000000000000000000000000000000010585cc50ac28d55a"
                    }
                ],
                "storageVariables": [
                    {
                        "name": "balanceOf",
                        "type": "mapping(address => uint256)",
                        "value": {
                            "pairs": [
                                {
                                    "key": "0x174e3ed6eca132a0b5902fff54df535bb31c762d",
                                    "value": {
                                        "current": "17489550423887232977",
                                        "prev": "18844692862659515738",
                                        "typeTag": 1
                                    }
                                }
                            ],
                            "typeTag": 4
                        }
                    }
                ]
            }
        ]
    }
}