{
    "balance_change": {
        "balanceChanges": []
    },
    "profile": {
        "basic_info": {
            "baseFee": "",
            "blockNumber": 2943867,
            "callData": "0x7750e6010000000000000000000000008a0f000631a58149f71a61f278a9d974fe4422b8000000000000000000000000d654e911fedd8dc700eec1652f00a915d26910df000000000000000000000000143116daec69cbde4c6ec70380376f3a6e44253e00000000000000000000000000000000000000000000000000000000000000000000000000000000000000008a0f000631a58149f71a61f278a9d974fe4422b8000000000000000000000000000000000000000000000000000000000000012000000000000000000000000000000000000000000000000000000000000001a0000000000000000000000000000000000000000000000000000000000000022000000000000000000000000000000000000000000000000000000000000000000000000000000000000000000000000000000000000000000000000000000003425443000000000000000000000000000000000000000000000000000000000045544800000000000000000000000000000000000000000000000000000000004c544300000000000000000000000000000000000000000000000000000000000000000000000000000000000000000000000000000000000000000000000003000000000000000000000000000000000000000000000000000004aa1dcc905e000000000000000000000000000000000000000000000000000110d9316ec0000000000000000000000000000000000000000000000000000001af79b6a7705d000000000000000000000000000000000000000000000000000000000000000a00000000000000000000000000000000000000000000000000038d7ea4c6800000000000000000000000000000000000000000000000000000038d7ea4c68000000000000000000000000000000000000000000000000000000000000000002100000000000000000000000000000000000000000000000000000000000186a000000000000000000000000000000000000000000000000000038d7ea4c6800000000000000000000000000000000000000000000000000000038d7ea4c680000000000000000000000000000000000000000000000000000000000000278d000000000000000000000000000000000000000000000000000000000000000e1000000000000000000000000000000000000000000000000000000000000000000000000000000000000000000000000000000000000000000000000000000064",
            "debugEnable": true,
            "errorInfo": "",
            "eventCount": 0,
            "feeRecipient": "0x4bb96091ee9d802ed039c4d1a5f6216f90f81b01",
            "formatValue": "0",
            "gasLimit": 3960000,
            "gasPrice": "44.259999996",
            "gasUsed": 2464875,
            "intTxnCount": 11,
            "internalRevert": false,
            "internalRevertMessage": "",
            "isContractCreation": false,
            "isFlashloan": false,
            "maxFee": "",
            "nonce": 659,
            "overwritedBlockNumber": -1,
            "priorityFee": "",
            "receiver": "0x6e35ebb4613e9ad59628c4ec7c7437070e6e7bad",
            "revertMessage": "",
            "sender": "0xd654e911fedd8dc700eec1652f00a915d26910df",
            "simulationEnable": true,
            "sourceTxnHash": "0x3ca31f594a4162b424a0855299f71aa8c8d5e0c5ef9a414377c2b740797b1747",
            "status": true,
            "timestamp": "2017-01-06T03:55:17Z",
            "transactionFee": "0.1090953674901405",
            "txnHash": "0x3ca31f594a4162b424a0855299f71aa8c8d5e0c5ef9a414377c2b740797b1747",
            "txnIndex": 0,
            "type": 0,
            "value": "0"
        },
        "fund_flow": [],
        "token_infos": [
            {
                "address": "0xc02aaa39b223fe8d0a0e5c4f27ead9083c756cc2",
                "decimals": 18
            },
            {
                "address": "0xeeeeeeeeeeeeeeeeeeeeeeeeeeeeeeeeeeeeeeee",
                "decimals": 18
            }
        ]
    },
    "address_label": {
        "labels": [
            {
                "address": "0x0000000000000000000000000000000000000001",
                "label": "Precompiled"
            },
            {
                "address": "0x0000000000000000000000000000000000000002",
                "label": "Precompiled"
            },
            {
                "address": "0x0000000000000000000000000000000000000003",
                "label": "Precompiled"
            },
            {
                "address": "0x0000000000000000000000000000000000000004",
                "label": "Precompiled"
            },
            {
                "address": "0xeeeeeeeeeeeeeeeeeeeeeeeeeeeeeeeeeeeeeeee",
                "label": "Ether"
            }
        ]
    },
    "trace": {
        "accountLabels": null,
        "dataMap": {
            "-1": {
                "invocation": {
                    "address": "0xd654e911fedd8dc700eec1652f00a915d26910df",
                    "callData": "",
                    "decodedMethod": null,
                    "errorInfo": "",
                    "fromAddress": "",
                    "gasUsed": 0,
                    "id": -1,
                    "methodDecoded": false,
                    "operation": "",
                    "output": "",
                    "revert": false,
                    "revertMessage": "",
                    "selector": "",
                    "status": false,
                    "value": ""
                },
                "nodeType": 0
            },
            "0": {
                "invocation": {
                    "address": "0x6e35ebb4613e9ad59628c4ec7c7437070e6e7bad",
                    "callData": "0x0000000000000000000000008a0f000631a58149f71a61f278a9d974fe4422b8000000000000000000000000d654e911fedd8dc700eec1652f00a915d26910df000000000000000000000000143116daec69cbde4c6ec70380376f3a6e44253e00000000000000000000000000000000000000000000000000000000000000000000000000000000000000008a0f000631a58149f71a61f278a9d974fe4422b8000000000000000000000000000000000000000000000000000000000000012000000000000000000000000000000000000000000000000000000000000001a0000000000000000000000000000000000000000000000000000000000000022000000000000000000000000000000000000000000000000000000000000000000000000000000000000000000000000000000000000000000000000000000003425443000000000000000000000000000000000000000000000000000000000045544800000000000000000000000000000000000000000000000000000000004c544300000000000000000000000000000000000000000000000000000000000000000000000000000000000000000000000000000000000000000000000003000000000000000000000000000000000000000000000000000004aa1dcc905e000000000000000000000000000000000000000000000000000110d9316ec0000000000000000000000000000000000000000000000000000001af79b6a7705d000000000000000000000000000000000000000000000000000000000000000a00000000000000000000000000000000000000000000000000038d7ea4c6800000000000000000000000000000000000000000000000000000038d7ea4c68000000000000000000000000000000000000000000000000000000000000000002100000000000000000000000000000000000000000000000000000000000186a000000000000000000000000000000000000000000000000000038d7ea4c6800000000000000000000000000000000000000000000000000000038d7ea4c680000000000000000000000000000000000000000000000000000000000000278d000000000000000000000000000000000000000000000000000000000000000e1000000000000000000000000000000000000000000000000000000000000000000000000000000000000000000000000000000000000000000000000000000064",
                    "decodedMethod": null,
                    "errorInfo": "",
                    "fromAddress": "0xd654e911fedd8dc700eec1652f00a915d26910df",
                    "gasUsed": 2464875,
                    "id": 0,
                    "methodDecoded": false,
                    "operation": "CALL",
                    "output": "",
                    "revert": false,
                    "revertMessage": "",
                    "selector": "0x7750e601",
                    "status": true,
                    "value": "0"
                },
                "nodeType": 0
            },
            "1": {
                "invocation": {
                    "address": "0xa0a018fce3dccabb4edf0464cf6d9478c9130f04",
                    "callData": "0x000000000000000000000000352c081ce11ed2c948c8ff9a73cc1ccb88e56fa40000000000000000000000007a9e0bb471802b0dbd78d00da099cd784ea52d5a0000000000000000000000007a9977ba09950b761976611caf47e57e237a4e0b000000000000000000000000dcf22cc5c99ef49850351f115f6c506531b462d0000000000000000000000000a8f4fb4b2a1b16c49f66175d923d3cfb448e0fc40000000000000000000000008a0f000631a58149f71a61f278a9d974fe4422b8",
                    "decodedMethod": {
                        "callParams": [
                            {
                                "name": "_allowedToTransferWallet",
                                "type": "address",
                                "value": "0x352c081ce11ed2c948c8ff9a73cc1ccb88e56fa4"
                            },
                            {
                                "name": "_futureSaleWallet",
                                "type": "address",
                                "value": "0x7a9e0bb471802b0dbd78d00da099cd784ea52d5a"
                            },
                            {
                                "name": "_communityWallet",
                                "type": "address",
                                "value": "0x7a9977ba09950b761976611caf47e57e237a4e0b"
                            },
                            {
                                "name": "_foundationWallet",
                                "type": "address",
                                "value": "0xdcf22cc5c99ef49850351f115f6c506531b462d0"
                            },
                            {
                                "name": "_foundersWallet",
                                "type": "address",
                                "value": "0xa8f4fb4b2a1b16c49f66175d923d3cfb448e0fc4"
                            },
                            {
                                "name": "_publicPrivateSaleWallet",
                                "type": "address",
                                "value": "0x8a0f000631a58149f71a61f278a9d974fe4422b8"
                            }
                        ],
                        "constructorArguments": "",
                        "name": "create",
                        "returnParams": [],
                        "signature": "create(address,address,address,address,address,address)"
                    },
                    "errorInfo": "",
                    "fromAddress": "0x6e35ebb4613e9ad59628c4ec7c7437070e6e7bad",
                    "gasUsed": 2057566,
                    "id": 1,
                    "methodDecoded": true,
                    "operation": "CALL",
                    "output": "0x0000000000000000000000004a221e7d1e6d6a015608f145fa755a4124baef37",
                    "revert": false,
                    "revertMessage": "",
                    "selector": "0x43f70917",
                    "status": true,
                    "value": "0"
                },
                "nodeType": 0
            },
            "10": {
                "invocation": {
                    "address": "0x2ef59cd673c400f3b4cded8f6c847840a88ac885",
                    "callData": "0x000000000000000000000000000000000000000000000000000000000000000100000000000000000000000000000000000000000000000000000000000000600000000000000000000000006e35ebb4613e9ad59628c4ec7c7437070e6e7bad00000000000000000000000000000000000000000000000000000000000000186275796572536574746c65416e64576974686472617728290000000000000000",
                    "decodedMethod": null,
                    "errorInfo": "",
                    "fromAddress": "0x4a221e7d1e6d6a015608f145fa755a4124baef37",
                    "gasUsed": 165419,
                    "id": 10,
                    "methodDecoded": false,
                    "operation": "DELEGATECALL",
                    "output": "",
                    "revert": false,
                    "revertMessage": "",
                    "selector": "0xd99639f9",
                    "status": true,
                    "value": "0"
                },
                "nodeType": 0
            },
            "11": {
                "invocation": {
                    "address": "0xcde3155e7f27356b74250c222c250d0dd6796993",
                    "callData": "0x606060405234610000576040516060806102108339810160409081528151602083015191909201515b6001805460008054600160a060020a03858116600160a060020a0319928316179092557c01000000000000000000000000000000000000000000000000000000008704740100000000000000000000000000000000000000000260a060020a63ffffffff02199287169190931617161790555b5050505b610162806100ae6000396000f300606060405236156100255763ffffffff60e060020a6000350416634fb2e45d81146100ef575b6100ed5b60005433600160a060020a0390811691161461004457610000565b6001546040805163ffffffff60e060020a74010000000000000000000000000000000000000000850481028190049182160282529151600160a060020a03909316926004808301926000929190829003018183876161da5a03f19250505015156100ad57610000565b60003411156100e957600154604051600160a060020a03909116903480156108fc02916000818181858888f1935050505015156100e957610000565b5b5b565b005b34610000576100ed600160a060020a036004351661010a565b005b6000805473ffffffffffffffffffffffffffffffffffffffff1916600160a060020a0383161790555b505600a165627a7a72305820fc6af0d643bd8eb1bf6049bc08b902f0ec81e62c7621f4b9576e156c4189ea3b0029f3e910fd000000000000000000000000000000000000000000000000000000000000000000000000000000004a221e7d1e6d6a015608f145fa755a4124baef370000000000000000000000006e35ebb4613e9ad59628c4ec7c7437070e6e7bad",
                    "decodedMethod": null,
                    "errorInfo": "",
                    "fromAddress": "0x4a221e7d1e6d6a015608f145fa755a4124baef37",
                    "gasUsed": 111719,
                    "id": 11,
                    "methodDecoded": false,
                    "operation": "CREATE",
                    "output": "0x606060405236156100255763ffffffff60e060020a6000350416634fb2e45d81146100ef575b6100ed5b60005433600160a060020a0390811691161461004457610000565b6001546040805163ffffffff60e060020a74010000000000000000000000000000000000000000850481028190049182160282529151600160a060020a03909316926004808301926000929190829003018183876161da5a03f19250505015156100ad57610000565b60003411156100e957600154604051600160a060020a03909116903480156108fc02916000818181858888f1935050505015156100e957610000565b5b5b565b005b34610000576100ed600160a060020a036004351661010a565b005b6000805473ffffffffffffffffffffffffffffffffffffffff1916600160a060020a0383161790555b505600a165627a7a72305820fc6af0d643bd8eb1bf6049bc08b902f0ec81e62c7621f4b9576e156c4189ea3b0029",
                    "revert": false,
                    "revertMessage": "",
                    "selector": "",
                    "status": true,
                    "value": "0"
                },
                "nodeType": 0
            },
            "2": {
                "invocation": {
                    "address": "0x4a221e7d1e6d6a015608f145fa755a4124baef37",
                    "callData": "0x60606040526000805460a060020a60ff0219169055346100005760405160c08061258f83398101604090815281516020830151918301516060840151608085015160a090950151929491929091905b5b60008054600160a060020a03191633600160a060020a03161790555b604080517f7fd6d6a200000000000000000000000000000000000000000000000000000000815260026004820152600160a060020a03808916602483015280881660448301528087166064830152808616608483015280851660a4830152831660c482015290517360595af7659c1839bdbaa13afe22dd05cbe709eb91637fd6d6a29160e4808301926000929190829003018186803b156100005760325a03f415610000575050505b5050505050505b6124658061012a6000396000f3006060604052361561012d5763ffffffff60e060020a6000350416630ed71e7e81146101a757806323a93b1e146101b657806326bfe209146101e95780632e99a3bc1461020457806338f60cf41461021f5780633b67ff0d1461023a57806349de958e146102555780634fb2e45d1461025f578063574a62711461027a57806363c3cc1614610289578063729fcca2146102a957806373d4a13a146102b85780637865bc111461036d5780638da5cb5b1461037c57806390cbfa19146103a5578063a9737595146103c0578063b7e3f960146103df578063be3ebbba1461040b578063c40d3c041461049c578063d5b97f96146104ab578063e1c7392a146104d8578063e6223258146104e7578063f3e910fd1461052c578063f78520151461053b578063fc2ad4fb14610556575b6101a55b604080517f89b7d2810000000000000000000000000000000000000000000000000000000081526002600482015290517360595af7659c1839bdbaa13afe22dd05cbe709eb916389b7d281916024808301926000929190829003018186803b156100005760325a03f415610000575050505b565b005b34610000576101a561057e565b005b34610000576101c36107a1565b60408051600160a060020a03938416815291909216602082015281519081900390910190f35b34610000576101a5600160a060020a03600435166109ad565b005b34610000576101a5600160a060020a0360043516610ab1565b005b34610000576101a5600160a060020a0360043516610bad565b005b34610000576101a5600160a060020a0360043516610c54565b005b6101a5610d50565b005b34610000576101a5600160a060020a0360043516611114565b005b34610000576101a561115c565b005b34610000576101a5600160a060020a036004351660243515156111ed565b005b34610000576101a561130f565b005b34610000576102c5611383565b60405184815260208101846101608083835b8051825260208311156102f757601f1990920191602091820191016102d7565b505050919091019050836102208083835b80518252602083111561032857601f199092019160209182019101610308565b5050509190910190508260408083835b80518252602083111561035857601f199092019160209182019101610338565b50505090500194505050505060405180910390f35b34610000576101a5611494565b005b346100005761038961161c565b60408051600160a060020a039092168252519081900360200190f35b34610000576101a5600160a060020a036004351661162b565b005b34610000576103cd61170c565b60408051918252519081900360200190f35b34610000576103cd600160c060020a03196004351661177c565b60408051918252519081900360200190f35b60408051604435600481810135602081810285810182019096528185526101a59583359560248035966064959294910192829185019084908082843750506040805187358901803560208181028481018201909552818452989a99890198929750908201955093508392508501908490808284375094965050509235600160a060020a03169250611812915050565b005b34610000576101a5611a5c565b005b34610000576104bb600435611b65565b60408051600160c060020a03199092168252519081900360200190f35b34610000576101a5611bf2565b005b3461000057610518600435151560243560443567ffffffffffffffff6064351663ffffffff6084351660a435611c36565b604080519115158252519081900360200190f35b34610000576101a5611cfa565b005b34610000576101a5600160a060020a0360043516611fe5565b005b6101a560043560243560443563ffffffff60643581169060843581169060a435166120e1565b005b60085460ff1660018160028111610000571461059957610000565b6003546040805160006020918201819052825160e160020a6338a86c570281529251600160a060020a0390941693637150d8ae9360048082019493918390030190829087803b156100005760325a03f11561000057505060408051805160035460006020938401819052845160e160020a6338a86c570281529451929550732ef59cd673c400f3b4cded8f6c847840a88ac88594635736fb1794600194600160a060020a0390941693637150d8ae936004808501948390030190829087803b156100005760325a03f1156100005750506040805180516000602092830152825160e060020a63ffffffff88160281526004810195909552600160a060020a0316604485015260606024850152600d60648501527f6275796572536574746c652829000000000000000000000000000000000000006084850152905160a4808501949293509091829003018186803b156100005760325a03f415610000575050506040518051905081600160a060020a031633600160a060020a031614158015610734575080600160a060020a031633600160a060020a031614155b1561073e57610000565b6040805160e060020a633e6dac290281526002600482015290517360595af7659c1839bdbaa13afe22dd05cbe709eb91633e6dac29916024808301926000929190829003018186803b156100005760325a03f415610000575050505b5b50505b50565b6003546040805160006020918201819052825160e160020a6338a86c57028152925190938493732ef59cd673c400f3b4cded8f6c847840a88ac88593635736fb1793600193600160a060020a031692637150d8ae92600480830193919282900301818a87803b156100005760325a03f1156100005750506040805180516000602092830152825160e060020a63ffffffff88160281526004810195909552600160a060020a03166044850152606060248501526012606485015260008051602061241a8339815191526084850152905160a4808501949293509091829003018186803b156100005760325a03f41561000057505060408051805160035460006020938401819052845160e160020a6338a86c570281529451929550732ef59cd673c400f3b4cded8f6c847840a88ac88594635736fb1794600194600160a060020a0390941693637150d8ae936004808501948390030190829087803b156100005760325a03f1156100005750506040805180516000602092830152825160e060020a63ffffffff88160281526004810195909552600160a060020a0316604485015260606024850152601860648501527f6275796572536574746c65416e645769746864726177282900000000000000006084850152905160a4808501949293509091829003018186803b156100005760325a03f41561000057505060405151919350909150505b9091565b6003546040805160006020918201819052825160e160020a6338a86c570281529251600160a060020a0390941693637150d8ae9360048082019493918390030190829087803b156100005760325a03f11561000057505060405151905033600160a060020a0390811690821614610a2357610000565b604080517f9b42240300000000000000000000000000000000000000000000000000000000815260026004820152600160a060020a038416602482015290517360595af7659c1839bdbaa13afe22dd05cbe709eb91639b422403916044808301926000929190829003018186803b156100005760325a03f41561000057505050610aab612221565b5b5b5050565b6003546040805160006020918201819052825160e060020a6308551a530281529251600160a060020a03909416936308551a539360048082019493918390030190829087803b156100005760325a03f11561000057505060405151905033600160a060020a0390811690821614610b2757610000565b604080517fc770881d00000000000000000000000000000000000000000000000000000000815260026004820152600160a060020a038416602482015290517360595af7659c1839bdbaa13afe22dd05cbe709eb9163c770881d916044808301926000929190829003018186803b156100005760325a03f415610000575050505b5b5050565b600854600160a060020a0361010090910481169033168114610bce57610000565b604080517f01da6a1300000000000000000000000000000000000000000000000000000000815260026004820152600160a060020a038416602482015290517360595af7659c1839bdbaa13afe22dd05cbe709eb916301da6a13916044808301926000929190829003018186803b156100005760325a03f415610000575050505b5b5050565b6003546040805160006020918201819052825160e060020a6308551a530281529251600160a060020a03909416936308551a539360048082019493918390030190829087803b156100005760325a03f11561000057505060405151905033600160a060020a0390811690821614610cca57610000565b604080517fa6879b8e00000000000000000000000000000000000000000000000000000000815260026004820152600160a060020a038416602482015290517360595af7659c1839bdbaa13afe22dd05cbe709eb9163a6879b8e916044808301926000929190829003018186803b156100005760325a03f415610000575050505b5b5050565b6000805460a060020a900460ff1615610d6857610000565b6000805460a060020a60ff02191660a060020a178155600354604080516020908101849052815160e160020a6338a86c570281529151732ef59cd673c400f3b4cded8f6c847840a88ac88594635736fb1794600194600160a060020a0390911693637150d8ae9360048084019492939192918390030190829087803b156100005760325a03f1156100005750506040805180516000602092830152825160e060020a63ffffffff88160281526004810195909552600160a060020a03166044850152606060248501526012606485015260008051602061241a8339815191526084850152905160a4808501949293509091829003018186803b156100005760325a03f4156100005750505060405180519050600160a060020a031633600160a060020a03161461101d576001732ef59cd673c400f3b4cded8f6c847840a88ac885635736fb179091600260010160009054906101000a9004600160a060020a0316600160a060020a03166308551a536000604051602001526040518163ffffffff1660e060020a028152600401809050602060405180830381600087803b156100005760325a03f1156100005750506040805180516000602092830152825160e060020a63ffffffff88160281526004810195909552600160a060020a03166044850152606060248501526012606485015260008051602061241a8339815191526084850152905160a4808501949293509091829003018186803b156100005760325a03f4156100005750505060405180519050600160a060020a031633600160a060020a031614610fba5733611018565b6003546040805160006020918201819052825160e060020a6308551a530281529251600160a060020a03909416936308551a539360048082019493918390030190829087803b156100005760325a03f1156100005750506040515190505b61107b565b6003546040805160006020918201819052825160e160020a6338a86c570281529251600160a060020a0390941693637150d8ae9360048082019493918390030190829087803b156100005760325a03f1156100005750506040515190505b604080517f66f4f8b800000000000000000000000000000000000000000000000000000000815260026004820152600160a060020a038316602482015290519192507360595af7659c1839bdbaa13afe22dd05cbe709eb916366f4f8b891604480820192600092909190829003018186803b156100005760325a03f415610000575050505b6000805460a060020a60ff02191690555b50565b60005433600160a060020a0390811691161461112f57610000565b6000805473ffffffffffffffffffffffffffffffffffffffff1916600160a060020a0383161790555b5b50565b60085460ff1660018160028111610000571461117757610000565b604080517fbf53cab50000000000000000000000000000000000000000000000000000000081526002600482015290517360595af7659c1839bdbaa13afe22dd05cbe709eb9163bf53cab5916024808301926000929190829003018186803b156100005760325a03f415610000575050505b5b50565b6003546040805160006020918201819052825160e160020a6338a86c570281529251600160a060020a0390941693637150d8ae9360048082019493918390030190829087803b156100005760325a03f11561000057505060405151905033600160a060020a039081169082161461126357610000565b60085460ff1660008160028111610000571461127e57610000565b604080517f81d5674500000000000000000000000000000000000000000000000000000000815260026004820152600160a060020a0386166024820152841515604482015290517360595af7659c1839bdbaa13afe22dd05cbe709eb916381d56745916064808301926000929190829003018186803b156100005760325a03f415610000575050505b5b505b505050565b604080517fc03d186d0000000000000000000000000000000000000000000000000000000081526002600482015290517360595af7659c1839bdbaa13afe22dd05cbe709eb9163c03d186d916024808301926000929190829003018186803b156100005760325a03f415610000575050505b565b600061016060405190810160405280600b905b6000815260001990910190602001816113965750506040805161022081019091526011815b60008152602001906001900390816113bb575050604080518082019091526002815b6000815260001990910190602001816113dd5750506040805160006103e09182015281517fd30b41830000000000000000000000000000000000000000000000000000000081526002600482015291517360595af7659c1839bdbaa13afe22dd05cbe709eb9263d30b4183926024808301939192829003018186803b156100005760325a03f41561000057505050604051805190602001806101600180610220018060400160405293509350935093505b90919293565b6003546040805160006020918201819052825160e160020a6338a86c570281529251600160a060020a0390941693637150d8ae9360048082019493918390030190829087803b156100005760325a03f1156100005750506040805180516006546000602093840181905284517f40eedabb0000000000000000000000000000000000000000000000000000000081529451929550600160a060020a03909116936340eedabb93600482810194919391928390030190829087803b156100005760325a03f115610000575050506040518051905081600160a060020a031633600160a060020a03161415801561159b575080600160a060020a031633600160a060020a031614155b156115a557610000565b604080517fbe06b62b0000000000000000000000000000000000000000000000000000000081526002600482015290517360595af7659c1839bdbaa13afe22dd05cbe709eb9163be06b62b916024808301926000929190829003018186803b156100005760325a03f415610000575050505b5b5050565b600054600160a060020a031681565b600854600160a060020a036101009091048116903316811461164c57610000565b60005460a060020a900460ff161561166357610000565b6000805460a060020a60ff02191660a060020a178155604080517fef7c8c3100000000000000000000000000000000000000000000000000000000815260026004820152600160a060020a038516602482015290517360595af7659c1839bdbaa13afe22dd05cbe709eb9263ef7c8c319260448082019391829003018186803b156100005760325a03f415610000575050505b6000805460a060020a60ff02191690555b5b5050565b600060027360595af7659c1839bdbaa13afe22dd05cbe709eb6349fd355490916000604051602001526040518263ffffffff1660e060020a0281526004018082815260200191505060206040518083038186803b156100005760325a03f415610000575050604051519150505b90565b604080516000602091820181905282517f079822a900000000000000000000000000000000000000000000000000000000815260026004820152600160c060020a031985166024820152925190927360595af7659c1839bdbaa13afe22dd05cbe709eb9263079822a992604480840193829003018186803b156100005760325a03f415610000575050604051519150505b919050565b60085460ff1660018160028111610000571461182d57610000565b6003546040805160006020918201819052825160e160020a6338a86c570281529251600160a060020a0390941693637150d8ae9360048082019493918390030190829087803b156100005760325a03f11561000057505060408051805160035460006020938401819052845160e060020a6308551a530281529451929550600160a060020a03909116936308551a5393600480830194919391928390030190829087803b156100005760325a03f115610000575050506040518051905081600160a060020a031633600160a060020a03161415801561191e575080600160a060020a031633600160a060020a031614155b1561192857610000565b60027360595af7659c1839bdbaa13afe22dd05cbe709eb639037e73e90918a8a8a8a8a6040518763ffffffff1660e060020a02815260040180878152602001868152602001858152602001806020018060200184600160a060020a0316600160a060020a031681526020018381038352868181518152602001915080519060200190602002808383600083146119d9575b8051825260208311156119d957601f1990920191602091820191016119b9565b5050509190910184810383528651815286516020918201925081880191028083838215611a21575b805182526020831115611a2157601f199092019160209182019101611a01565b5050509050019850505050505050505060006040518083038186803b156100005760325a03f415610000575050505b5b50505b505050505050565b60085460ff16600181600281116100005714611a7757610000565b6003546040805160006020918201819052825160e060020a6308551a530281529251600160a060020a03909416936308551a539360048082019493918390030190829087803b156100005760325a03f11561000057505060405151905033600160a060020a0390811690821614611aed57610000565b604080517f9e43a80b0000000000000000000000000000000000000000000000000000000081526002600482015290517360595af7659c1839bdbaa13afe22dd05cbe709eb91639e43a80b916024808301926000929190829003018186803b156100005760325a03f415610000575050505b5b505b50565b604080516000602091820181905282517fa81f72020000000000000000000000000000000000000000000000000000000081526002600482015260248101859052925190927360595af7659c1839bdbaa13afe22dd05cbe709eb9263a81f720292604480840193829003018186803b156100005760325a03f415610000575050604051519150505b919050565b60005433600160a060020a03908116911614611c0d57610000565b60085460ff16600081600281116100005714611c2857610000565b61079e612221565b5b5b505b565b604080516000602091820181905282517f980fe284000000000000000000000000000000000000000000000000000000008152600260048201528915156024820152604481018990526064810188905267ffffffffffffffff8716608482015263ffffffff861660a482015260c48101859052925190927360595af7659c1839bdbaa13afe22dd05cbe709eb9263980fe2849260e480840193829003018186803b156100005760325a03f415610000575050604051519150505b9695505050505050565b60085460ff16600181600281116100005714611d1557610000565b6003546040805160006020918201819052825160e160020a6338a86c570281529251600160a060020a0390941693637150d8ae9360048082019493918390030190829087803b156100005760325a03f11561000057505060408051805160035460006020938401819052845160e160020a6338a86c570281529451929550732ef59cd673c400f3b4cded8f6c847840a88ac88594635736fb1794600194600160a060020a0390941693637150d8ae936004808501948390030190829087803b156100005760325a03f1156100005750506040805180516000602092830152825160e060020a63ffffffff88160281526004810195909552600160a060020a0316604485015260606024850152601860648501527f6275796572536574746c65416e645769746864726177282900000000000000006084850152905160a4808501949293509091829003018186803b156100005760325a03f415610000575050506040518051905081600160a060020a031633600160a060020a031614158015611eb0575080600160a060020a031633600160a060020a031614155b15611eba57610000565b6040805160e060020a633e6dac290281526002600482015290517360595af7659c1839bdbaa13afe22dd05cbe709eb91633e6dac29916024808301926000929190829003018186803b156100005760325a03f4156100005750506003546040805160006020918201819052825160e160020a6338a86c5702815292517360595af7659c1839bdbaa13afe22dd05cbe709eb955063e909bcb494600294600160a060020a0390911693637150d8ae9360048084019492938390030190829087803b156100005760325a03f11561000057505060408051805160e060020a63ffffffff87160282526004820194909452600160a060020a0390931660248401525160448084019360009350829003018186803b156100005760325a03f415610000575050505b5b50505b50565b6003546040805160006020918201819052825160e160020a6338a86c570281529251600160a060020a0390941693637150d8ae9360048082019493918390030190829087803b156100005760325a03f11561000057505060405151905033600160a060020a039081169082161461205b57610000565b604080517fe909bcb400000000000000000000000000000000000000000000000000000000815260026004820152600160a060020a038416602482015290517360595af7659c1839bdbaa13afe22dd05cbe709eb9163e909bcb4916044808301926000929190829003018186803b156100005760325a03f415610000575050505b5b5050565b6003546040805160006020918201819052825160e060020a6308551a530281529251600160a060020a03909416936308551a539360048082019493918390030190829087803b156100005760325a03f11561000057505060405151905033600160a060020a039081169082161461215757610000565b60085460ff1660008160028111610000571461217257610000565b604080517f643b2e4a00000000000000000000000000000000000000000000000000000000815260026004820152602481018a9052604481018990526064810188905263ffffffff808816608483015280871660a4830152851660c482015290517360595af7659c1839bdbaa13afe22dd05cbe709eb9163643b2e4a9160e4808301926000929190829003018186803b156100005760325a03f415610000575050505b5b505b50505050505050565b6001732ef59cd673c400f3b4cded8f6c847840a88ac88563d99639f99091600260010160009054906101000a9004600160a060020a0316600160a060020a0316637150d8ae6000604051602001526040518163ffffffff1660e060020a028152600401809050602060405180830381600087803b156100005760325a03f11561000057505060408051805160e060020a63ffffffff87160282526004820194909452600160a060020a039093166044840152606060248401526012606484015260008051602061241a83398151915260848401525160a48084019360009350829003018186803b156100005760325a03f4156100005750506003546040805160006020918201819052825160e160020a6338a86c570281529251732ef59cd673c400f3b4cded8f6c847840a88ac885955063d99639f994600194600160a060020a0390911693637150d8ae9360048084019492938390030190829087803b156100005760325a03f11561000057505060408051805160e060020a63ffffffff87160282526004820194909452600160a060020a03909316604484015260606024840152601860648401527f6275796572536574746c65416e6457697468647261772829000000000000000060848401525160a48084019360009350829003018186803b156100005760325a03f415610000575050505b5600617070726f7665526562616c616e636528290000000000000000000000000000a165627a7a72305820c4fb0d68b40b38b7795a10152f8f7e46240fa4c8fcc837bcc9b15b8e1cb2a88f0029000000000000000000000000352c081ce11ed2c948c8ff9a73cc1ccb88e56fa40000000000000000000000007a9e0bb471802b0dbd78d00da099cd784ea52d5a0000000000000000000000007a9977ba09950b761976611caf47e57e237a4e0b000000000000000000000000dcf22cc5c99ef49850351f115f6c506531b462d0000000000000000000000000a8f4fb4b2a1b16c49f66175d923d3cfb448e0fc40000000000000000000000008a0f000631a58149f71a61f278a9d974fe4422b8",
                    "decodedMethod": null,
                    "errorInfo": "",
                    "fromAddress": "0xa0a018fce3dccabb4edf0464cf6d9478c9130f04",
                    "gasUsed": 2014921,
                    "id": 2,
                    "methodDecoded": false,
                    "operation": "CREATE",
                    "output": "0x6060604052361561012d5763ffffffff60e060020a6000350416630ed71e7e81146101a757806323a93b1e146101b657806326bfe209146101e95780632e99a3bc1461020457806338f60cf41461021f5780633b67ff0d1461023a57806349de958e146102555780634fb2e45d1461025f578063574a62711461027a57806363c3cc1614610289578063729fcca2146102a957806373d4a13a146102b85780637865bc111461036d5780638da5cb5b1461037c57806390cbfa19146103a5578063a9737595146103c0578063b7e3f960146103df578063be3ebbba1461040b578063c40d3c041461049c578063d5b97f96146104ab578063e1c7392a146104d8578063e6223258146104e7578063f3e910fd1461052c578063f78520151461053b578063fc2ad4fb14610556575b6101a55b604080517f89b7d2810000000000000000000000000000000000000000000000000000000081526002600482015290517360595af7659c1839bdbaa13afe22dd05cbe709eb916389b7d281916024808301926000929190829003018186803b156100005760325a03f415610000575050505b565b005b34610000576101a561057e565b005b34610000576101c36107a1565b60408051600160a060020a03938416815291909216602082015281519081900390910190f35b34610000576101a5600160a060020a03600435166109ad565b005b34610000576101a5600160a060020a0360043516610ab1565b005b34610000576101a5600160a060020a0360043516610bad565b005b34610000576101a5600160a060020a0360043516610c54565b005b6101a5610d50565b005b34610000576101a5600160a060020a0360043516611114565b005b34610000576101a561115c565b005b34610000576101a5600160a060020a036004351660243515156111ed565b005b34610000576101a561130f565b005b34610000576102c5611383565b60405184815260208101846101608083835b8051825260208311156102f757601f1990920191602091820191016102d7565b505050919091019050836102208083835b80518252602083111561032857601f199092019160209182019101610308565b5050509190910190508260408083835b80518252602083111561035857601f199092019160209182019101610338565b50505090500194505050505060405180910390f35b34610000576101a5611494565b005b346100005761038961161c565b60408051600160a060020a039092168252519081900360200190f35b34610000576101a5600160a060020a036004351661162b565b005b34610000576103cd61170c565b60408051918252519081900360200190f35b34610000576103cd600160c060020a03196004351661177c565b60408051918252519081900360200190f35b60408051604435600481810135602081810285810182019096528185526101a59583359560248035966064959294910192829185019084908082843750506040805187358901803560208181028481018201909552818452989a99890198929750908201955093508392508501908490808284375094965050509235600160a060020a03169250611812915050565b005b34610000576101a5611a5c565b005b34610000576104bb600435611b65565b60408051600160c060020a03199092168252519081900360200190f35b34610000576101a5611bf2565b005b3461000057610518600435151560243560443567ffffffffffffffff6064351663ffffffff6084351660a435611c36565b604080519115158252519081900360200190f35b34610000576101a5611cfa565b005b34610000576101a5600160a060020a0360043516611fe5565b005b6101a560043560243560443563ffffffff60643581169060843581169060a435166120e1565b005b60085460ff1660018160028111610000571461059957610000565b6003546040805160006020918201819052825160e160020a6338a86c570281529251600160a060020a0390941693637150d8ae9360048082019493918390030190829087803b156100005760325a03f11561000057505060408051805160035460006020938401819052845160e160020a6338a86c570281529451929550732ef59cd673c400f3b4cded8f6c847840a88ac88594635736fb1794600194600160a060020a0390941693637150d8ae936004808501948390030190829087803b156100005760325a03f1156100005750506040805180516000602092830152825160e060020a63ffffffff88160281526004810195909552600160a060020a0316604485015260606024850152600d60648501527f6275796572536574746c652829000000000000000000000000000000000000006084850152905160a4808501949293509091829003018186803b156100005760325a03f415610000575050506040518051905081600160a060020a031633600160a060020a031614158015610734575080600160a060020a031633600160a060020a031614155b1561073e57610000565b6040805160e060020a633e6dac290281526002600482015290517360595af7659c1839bdbaa13afe22dd05cbe709eb91633e6dac29916024808301926000929190829003018186803b156100005760325a03f415610000575050505b5b50505b50565b6003546040805160006020918201819052825160e160020a6338a86c57028152925190938493732ef59cd673c400f3b4cded8f6c847840a88ac88593635736fb1793600193600160a060020a031692637150d8ae92600480830193919282900301818a87803b156100005760325a03f1156100005750506040805180516000602092830152825160e060020a63ffffffff88160281526004810195909552600160a060020a03166044850152606060248501526012606485015260008051602061241a8339815191526084850152905160a4808501949293509091829003018186803b156100005760325a03f41561000057505060408051805160035460006020938401819052845160e160020a6338a86c570281529451929550732ef59cd673c400f3b4cded8f6c847840a88ac88594635736fb1794600194600160a060020a0390941693637150d8ae936004808501948390030190829087803b156100005760325a03f1156100005750506040805180516000602092830152825160e060020a63ffffffff88160281526004810195909552600160a060020a0316604485015260606024850152601860648501527f6275796572536574746c65416e645769746864726177282900000000000000006084850152905160a4808501949293509091829003018186803b156100005760325a03f41561000057505060405151919350909150505b9091565b6003546040805160006020918201819052825160e160020a6338a86c570281529251600160a060020a0390941693637150d8ae9360048082019493918390030190829087803b156100005760325a03f11561000057505060405151905033600160a060020a0390811690821614610a2357610000565b604080517f9b42240300000000000000000000000000000000000000000000000000000000815260026004820152600160a060020a038416602482015290517360595af7659c1839bdbaa13afe22dd05cbe709eb91639b422403916044808301926000929190829003018186803b156100005760325a03f41561000057505050610aab612221565b5b5b5050565b6003546040805160006020918201819052825160e060020a6308551a530281529251600160a060020a03909416936308551a539360048082019493918390030190829087803b156100005760325a03f11561000057505060405151905033600160a060020a0390811690821614610b2757610000565b604080517fc770881d00000000000000000000000000000000000000000000000000000000815260026004820152600160a060020a038416602482015290517360595af7659c1839bdbaa13afe22dd05cbe709eb9163c770881d916044808301926000929190829003018186803b156100005760325a03f415610000575050505b5b5050565b600854600160a060020a0361010090910481169033168114610bce57610000565b604080517f01da6a1300000000000000000000000000000000000000000000000000000000815260026004820152600160a060020a038416602482015290517360595af7659c1839bdbaa13afe22dd05cbe709eb916301da6a13916044808301926000929190829003018186803b156100005760325a03f415610000575050505b5b5050565b6003546040805160006020918201819052825160e060020a6308551a530281529251600160a060020a03909416936308551a539360048082019493918390030190829087803b156100005760325a03f11561000057505060405151905033600160a060020a0390811690821614610cca57610000565b604080517fa6879b8e00000000000000000000000000000000000000000000000000000000815260026004820152600160a060020a038416602482015290517360595af7659c1839bdbaa13afe22dd05cbe709eb9163a6879b8e916044808301926000929190829003018186803b156100005760325a03f415610000575050505b5b5050565b6000805460a060020a900460ff1615610d6857610000565b6000805460a060020a60ff02191660a060020a178155600354604080516020908101849052815160e160020a6338a86c570281529151732ef59cd673c400f3b4cded8f6c847840a88ac88594635736fb1794600194600160a060020a0390911693637150d8ae9360048084019492939192918390030190829087803b156100005760325a03f1156100005750506040805180516000602092830152825160e060020a63ffffffff88160281526004810195909552600160a060020a03166044850152606060248501526012606485015260008051602061241a8339815191526084850152905160a4808501949293509091829003018186803b156100005760325a03f4156100005750505060405180519050600160a060020a031633600160a060020a03161461101d576001732ef59cd673c400f3b4cded8f6c847840a88ac885635736fb179091600260010160009054906101000a9004600160a060020a0316600160a060020a03166308551a536000604051602001526040518163ffffffff1660e060020a028152600401809050602060405180830381600087803b156100005760325a03f1156100005750506040805180516000602092830152825160e060020a63ffffffff88160281526004810195909552600160a060020a03166044850152606060248501526012606485015260008051602061241a8339815191526084850152905160a4808501949293509091829003018186803b156100005760325a03f4156100005750505060405180519050600160a060020a031633600160a060020a031614610fba5733611018565b6003546040805160006020918201819052825160e060020a6308551a530281529251600160a060020a03909416936308551a539360048082019493918390030190829087803b156100005760325a03f1156100005750506040515190505b61107b565b6003546040805160006020918201819052825160e160020a6338a86c570281529251600160a060020a0390941693637150d8ae9360048082019493918390030190829087803b156100005760325a03f1156100005750506040515190505b604080517f66f4f8b800000000000000000000000000000000000000000000000000000000815260026004820152600160a060020a038316602482015290519192507360595af7659c1839bdbaa13afe22dd05cbe709eb916366f4f8b891604480820192600092909190829003018186803b156100005760325a03f415610000575050505b6000805460a060020a60ff02191690555b50565b60005433600160a060020a0390811691161461112f57610000565b6000805473ffffffffffffffffffffffffffffffffffffffff1916600160a060020a0383161790555b5b50565b60085460ff1660018160028111610000571461117757610000565b604080517fbf53cab50000000000000000000000000000000000000000000000000000000081526002600482015290517360595af7659c1839bdbaa13afe22dd05cbe709eb9163bf53cab5916024808301926000929190829003018186803b156100005760325a03f415610000575050505b5b50565b6003546040805160006020918201819052825160e160020a6338a86c570281529251600160a060020a0390941693637150d8ae9360048082019493918390030190829087803b156100005760325a03f11561000057505060405151905033600160a060020a039081169082161461126357610000565b60085460ff1660008160028111610000571461127e57610000565b604080517f81d5674500000000000000000000000000000000000000000000000000000000815260026004820152600160a060020a0386166024820152841515604482015290517360595af7659c1839bdbaa13afe22dd05cbe709eb916381d56745916064808301926000929190829003018186803b156100005760325a03f415610000575050505b5b505b505050565b604080517fc03d186d0000000000000000000000000000000000000000000000000000000081526002600482015290517360595af7659c1839bdbaa13afe22dd05cbe709eb9163c03d186d916024808301926000929190829003018186803b156100005760325a03f415610000575050505b565b600061016060405190810160405280600b905b6000815260001990910190602001816113965750506040805161022081019091526011815b60008152602001906001900390816113bb575050604080518082019091526002815b6000815260001990910190602001816113dd5750506040805160006103e09182015281517fd30b41830000000000000000000000000000000000000000000000000000000081526002600482015291517360595af7659c1839bdbaa13afe22dd05cbe709eb9263d30b4183926024808301939192829003018186803b156100005760325a03f41561000057505050604051805190602001806101600180610220018060400160405293509350935093505b90919293565b6003546040805160006020918201819052825160e160020a6338a86c570281529251600160a060020a0390941693637150d8ae9360048082019493918390030190829087803b156100005760325a03f1156100005750506040805180516006546000602093840181905284517f40eedabb0000000000000000000000000000000000000000000000000000000081529451929550600160a060020a03909116936340eedabb93600482810194919391928390030190829087803b156100005760325a03f115610000575050506040518051905081600160a060020a031633600160a060020a03161415801561159b575080600160a060020a031633600160a060020a031614155b156115a557610000565b604080517fbe06b62b0000000000000000000000000000000000000000000000000000000081526002600482015290517360595af7659c1839bdbaa13afe22dd05cbe709eb9163be06b62b916024808301926000929190829003018186803b156100005760325a03f415610000575050505b5b5050565b600054600160a060020a031681565b600854600160a060020a036101009091048116903316811461164c57610000565b60005460a060020a900460ff161561166357610000565b6000805460a060020a60ff02191660a060020a178155604080517fef7c8c3100000000000000000000000000000000000000000000000000000000815260026004820152600160a060020a038516602482015290517360595af7659c1839bdbaa13afe22dd05cbe709eb9263ef7c8c319260448082019391829003018186803b156100005760325a03f415610000575050505b6000805460a060020a60ff02191690555b5b5050565b600060027360595af7659c1839bdbaa13afe22dd05cbe709eb6349fd355490916000604051602001526040518263ffffffff1660e060020a0281526004018082815260200191505060206040518083038186803b156100005760325a03f415610000575050604051519150505b90565b604080516000602091820181905282517f079822a900000000000000000000000000000000000000000000000000000000815260026004820152600160c060020a031985166024820152925190927360595af7659c1839bdbaa13afe22dd05cbe709eb9263079822a992604480840193829003018186803b156100005760325a03f415610000575050604051519150505b919050565b60085460ff1660018160028111610000571461182d57610000565b6003546040805160006020918201819052825160e160020a6338a86c570281529251600160a060020a0390941693637150d8ae9360048082019493918390030190829087803b156100005760325a03f11561000057505060408051805160035460006020938401819052845160e060020a6308551a530281529451929550600160a060020a03909116936308551a5393600480830194919391928390030190829087803b156100005760325a03f115610000575050506040518051905081600160a060020a031633600160a060020a03161415801561191e575080600160a060020a031633600160a060020a031614155b1561192857610000565b60027360595af7659c1839bdbaa13afe22dd05cbe709eb639037e73e90918a8a8a8a8a6040518763ffffffff1660e060020a02815260040180878152602001868152602001858152602001806020018060200184600160a060020a0316600160a060020a031681526020018381038352868181518152602001915080519060200190602002808383600083146119d9575b8051825260208311156119d957601f1990920191602091820191016119b9565b5050509190910184810383528651815286516020918201925081880191028083838215611a21575b805182526020831115611a2157601f199092019160209182019101611a01565b5050509050019850505050505050505060006040518083038186803b156100005760325a03f415610000575050505b5b50505b505050505050565b60085460ff16600181600281116100005714611a7757610000565b6003546040805160006020918201819052825160e060020a6308551a530281529251600160a060020a03909416936308551a539360048082019493918390030190829087803b156100005760325a03f11561000057505060405151905033600160a060020a0390811690821614611aed57610000565b604080517f9e43a80b0000000000000000000000000000000000000000000000000000000081526002600482015290517360595af7659c1839bdbaa13afe22dd05cbe709eb91639e43a80b916024808301926000929190829003018186803b156100005760325a03f415610000575050505b5b505b50565b604080516000602091820181905282517fa81f72020000000000000000000000000000000000000000000000000000000081526002600482015260248101859052925190927360595af7659c1839bdbaa13afe22dd05cbe709eb9263a81f720292604480840193829003018186803b156100005760325a03f415610000575050604051519150505b919050565b60005433600160a060020a03908116911614611c0d57610000565b60085460ff16600081600281116100005714611c2857610000565b61079e612221565b5b5b505b565b604080516000602091820181905282517f980fe284000000000000000000000000000000000000000000000000000000008152600260048201528915156024820152604481018990526064810188905267ffffffffffffffff8716608482015263ffffffff861660a482015260c48101859052925190927360595af7659c1839bdbaa13afe22dd05cbe709eb9263980fe2849260e480840193829003018186803b156100005760325a03f415610000575050604051519150505b9695505050505050565b60085460ff16600181600281116100005714611d1557610000565b6003546040805160006020918201819052825160e160020a6338a86c570281529251600160a060020a0390941693637150d8ae9360048082019493918390030190829087803b156100005760325a03f11561000057505060408051805160035460006020938401819052845160e160020a6338a86c570281529451929550732ef59cd673c400f3b4cded8f6c847840a88ac88594635736fb1794600194600160a060020a0390941693637150d8ae936004808501948390030190829087803b156100005760325a03f1156100005750506040805180516000602092830152825160e060020a63ffffffff88160281526004810195909552600160a060020a0316604485015260606024850152601860648501527f6275796572536574746c65416e645769746864726177282900000000000000006084850152905160a4808501949293509091829003018186803b156100005760325a03f415610000575050506040518051905081600160a060020a031633600160a060020a031614158015611eb0575080600160a060020a031633600160a060020a031614155b15611eba57610000565b6040805160e060020a633e6dac290281526002600482015290517360595af7659c1839bdbaa13afe22dd05cbe709eb91633e6dac29916024808301926000929190829003018186803b156100005760325a03f4156100005750506003546040805160006020918201819052825160e160020a6338a86c5702815292517360595af7659c1839bdbaa13afe22dd05cbe709eb955063e909bcb494600294600160a060020a0390911693637150d8ae9360048084019492938390030190829087803b156100005760325a03f11561000057505060408051805160e060020a63ffffffff87160282526004820194909452600160a060020a0390931660248401525160448084019360009350829003018186803b156100005760325a03f415610000575050505b5b50505b50565b6003546040805160006020918201819052825160e160020a6338a86c570281529251600160a060020a0390941693637150d8ae9360048082019493918390030190829087803b156100005760325a03f11561000057505060405151905033600160a060020a039081169082161461205b57610000565b604080517fe909bcb400000000000000000000000000000000000000000000000000000000815260026004820152600160a060020a038416602482015290517360595af7659c1839bdbaa13afe22dd05cbe709eb9163e909bcb4916044808301926000929190829003018186803b156100005760325a03f415610000575050505b5b5050565b6003546040805160006020918201819052825160e060020a6308551a530281529251600160a060020a03909416936308551a539360048082019493918390030190829087803b156100005760325a03f11561000057505060405151905033600160a060020a039081169082161461215757610000565b60085460ff1660008160028111610000571461217257610000565b604080517f643b2e4a00000000000000000000000000000000000000000000000000000000815260026004820152602481018a9052604481018990526064810188905263ffffffff808816608483015280871660a4830152851660c482015290517360595af7659c1839bdbaa13afe22dd05cbe709eb9163643b2e4a9160e4808301926000929190829003018186803b156100005760325a03f415610000575050505b5b505b50505050505050565b6001732ef59cd673c400f3b4cded8f6c847840a88ac88563d99639f99091600260010160009054906101000a9004600160a060020a0316600160a060020a0316637150d8ae6000604051602001526040518163ffffffff1660e060020a028152600401809050602060405180830381600087803b156100005760325a03f11561000057505060408051805160e060020a63ffffffff87160282526004820194909452600160a060020a039093166044840152606060248401526012606484015260008051602061241a83398151915260848401525160a48084019360009350829003018186803b156100005760325a03f4156100005750506003546040805160006020918201819052825160e160020a6338a86c570281529251732ef59cd673c400f3b4cded8f6c847840a88ac885955063d99639f994600194600160a060020a0390911693637150d8ae9360048084019492938390030190829087803b156100005760325a03f11561000057505060408051805160e060020a63ffffffff87160282526004820194909452600160a060020a03909316604484015260606024840152601860648401527f6275796572536574746c65416e6457697468647261772829000000000000000060848401525160a48084019360009350829003018186803b156100005760325a03f415610000575050505b5600617070726f7665526562616c616e636528290000000000000000000000000000a165627a7a72305820c4fb0d68b40b38b7795a10152f8f7e46240fa4c8fcc837bcc9b15b8e1cb2a88f0029",
                    "revert": false,
                    "revertMessage": "",
                    "selector": "",
                    "status": true,
                    "value": "0"
                },
                "nodeType": 0
            },
            "3": {
                "invocation": {
                    "address": "0x60595af7659c1839bdbaa13afe22dd05cbe709eb",
                    "callData": "0x0000000000000000000000000000000000000000000000000000000000000002000000000000000000000000352c081ce11ed2c948c8ff9a73cc1ccb88e56fa40000000000000000000000007a9e0bb471802b0dbd78d00da099cd784ea52d5a0000000000000000000000007a9977ba09950b761976611caf47e57e237a4e0b000000000000000000000000dcf22cc5c99ef49850351f115f6c506531b462d0000000000000000000000000a8f4fb4b2a1b16c49f66175d923d3cfb448e0fc40000000000000000000000008a0f000631a58149f71a61f278a9d974fe4422b8",
                    "decodedMethod": null,
                    "errorInfo": "",
                    "fromAddress": "0x4a221e7d1e6d6a015608f145fa755a4124baef37",
                    "gasUsed": 122001,
                    "id": 3,
                    "methodDecoded": false,
                    "operation": "DELEGATECALL",
                    "output": "",
                    "revert": false,
                    "revertMessage": "",
                    "selector": "0x7fd6d6a2",
                    "status": true,
                    "value": "0"
                },
                "nodeType": 0
            },
            "4": {
                "invocation": {
                    "address": "0x4a221e7d1e6d6a015608f145fa755a4124baef37",
                    "callData": "0x0000000000000000000000006e35ebb4613e9ad59628c4ec7c7437070e6e7bad",
                    "decodedMethod": {
                        "callParams": [
                            {
                                "name": "newOwner",
                                "type": "address",
                                "value": "0x6e35ebb4613e9ad59628c4ec7c7437070e6e7bad"
                            }
                        ],
                        "constructorArguments": "",
                        "name": "transferOwner",
                        "returnParams": [],
                        "signature": "transferOwner(address)"
                    },
                    "errorInfo": "",
                    "fromAddress": "0xa0a018fce3dccabb4edf0464cf6d9478c9130f04",
                    "gasUsed": 6028,
                    "id": 4,
                    "methodDecoded": true,
                    "operation": "CALL",
                    "output": "",
                    "revert": false,
                    "revertMessage": "",
                    "selector": "0x4fb2e45d",
                    "status": true,
                    "value": "0"
                },
                "nodeType": 0
            },
            "5": {
                "invocation": {
                    "address": "0x4a221e7d1e6d6a015608f145fa755a4124baef37",
                    "callData": "0x",
                    "decodedMethod": {
                        "callParams": [],
                        "constructorArguments": "",
                        "name": "init",
                        "returnParams": [],
                        "signature": "init()"
                    },
                    "errorInfo": "",
                    "fromAddress": "0x6e35ebb4613e9ad59628c4ec7c7437070e6e7bad",
                    "gasUsed": 341193,
                    "id": 5,
                    "methodDecoded": true,
                    "operation": "CALL",
                    "output": "",
                    "revert": false,
                    "revertMessage": "",
                    "selector": "0xe1c7392a",
                    "status": true,
                    "value": "0"
                },
                "nodeType": 0
            },
            "6": {
                "invocation": {
                    "address": "0x7a9e0bb471802b0dbd78d00da099cd784ea52d5a",
                    "callData": "0x",
                    "decodedMethod": {
                        "callParams": [],
                        "constructorArguments": "",
                        "name": "buyer",
                        "returnParams": [
                            {
                                "name": "",
                                "type": "address",
                                "value": "0x6e35ebb4613e9ad59628c4ec7c7437070e6e7bad"
                            }
                        ],
                        "signature": "buyer()"
                    },
                    "errorInfo": "",
                    "fromAddress": "0x4a221e7d1e6d6a015608f145fa755a4124baef37",
                    "gasUsed": 827,
                    "id": 6,
                    "methodDecoded": true,
                    "operation": "CALL",
                    "output": "0x0000000000000000000000006e35ebb4613e9ad59628c4ec7c7437070e6e7bad",
                    "revert": false,
                    "revertMessage": "",
                    "selector": "0x7150d8ae",
                    "status": true,
                    "value": "0"
                },
                "nodeType": 0
            },
            "7": {
                "invocation": {
                    "address": "0x2ef59cd673c400f3b4cded8f6c847840a88ac885",
                    "callData": "0x000000000000000000000000000000000000000000000000000000000000000100000000000000000000000000000000000000000000000000000000000000600000000000000000000000006e35ebb4613e9ad59628c4ec7c7437070e6e7bad0000000000000000000000000000000000000000000000000000000000000012617070726f7665526562616c616e636528290000000000000000000000000000",
                    "decodedMethod": null,
                    "errorInfo": "",
                    "fromAddress": "0x4a221e7d1e6d6a015608f145fa755a4124baef37",
                    "gasUsed": 165419,
                    "id": 7,
                    "methodDecoded": false,
                    "operation": "DELEGATECALL",
                    "output": "",
                    "revert": false,
                    "revertMessage": "",
                    "selector": "0xd99639f9",
                    "status": true,
                    "value": "0"
                },
                "nodeType": 0
            },
            "8": {
                "invocation": {
                    "address": "0x204d8d2730fdb5667a5b237cbd044dd24ab05e74",
                    "callData": "0x606060405234610000576040516060806102108339810160409081528151602083015191909201515b6001805460008054600160a060020a03858116600160a060020a0319928316179092557c01000000000000000000000000000000000000000000000000000000008704740100000000000000000000000000000000000000000260a060020a63ffffffff02199287169190931617161790555b5050505b610162806100ae6000396000f300606060405236156100255763ffffffff60e060020a6000350416634fb2e45d81146100ef575b6100ed5b60005433600160a060020a0390811691161461004457610000565b6001546040805163ffffffff60e060020a74010000000000000000000000000000000000000000850481028190049182160282529151600160a060020a03909316926004808301926000929190829003018183876161da5a03f19250505015156100ad57610000565b60003411156100e957600154604051600160a060020a03909116903480156108fc02916000818181858888f1935050505015156100e957610000565b5b5b565b005b34610000576100ed600160a060020a036004351661010a565b005b6000805473ffffffffffffffffffffffffffffffffffffffff1916600160a060020a0383161790555b505600a165627a7a72305820fc6af0d643bd8eb1bf6049bc08b902f0ec81e62c7621f4b9576e156c4189ea3b002949de958e000000000000000000000000000000000000000000000000000000000000000000000000000000004a221e7d1e6d6a015608f145fa755a4124baef370000000000000000000000006e35ebb4613e9ad59628c4ec7c7437070e6e7bad",
                    "decodedMethod": null,
                    "errorInfo": "",
                    "fromAddress": "0x4a221e7d1e6d6a015608f145fa755a4124baef37",
                    "gasUsed": 111719,
                    "id": 8,
                    "methodDecoded": false,
                    "operation": "CREATE",
                    "output": "0x606060405236156100255763ffffffff60e060020a6000350416634fb2e45d81146100ef575b6100ed5b60005433600160a060020a0390811691161461004457610000565b6001546040805163ffffffff60e060020a74010000000000000000000000000000000000000000850481028190049182160282529151600160a060020a03909316926004808301926000929190829003018183876161da5a03f19250505015156100ad57610000565b60003411156100e957600154604051600160a060020a03909116903480156108fc02916000818181858888f1935050505015156100e957610000565b5b5b565b005b34610000576100ed600160a060020a036004351661010a565b005b6000805473ffffffffffffffffffffffffffffffffffffffff1916600160a060020a0383161790555b505600a165627a7a72305820fc6af0d643bd8eb1bf6049bc08b902f0ec81e62c7621f4b9576e156c4189ea3b0029",
                    "revert": false,
                    "revertMessage": "",
                    "selector": "",
                    "status": true,
                    "value": "0"
                },
                "nodeType": 0
            },
            "9": {
                "invocation": {
                    "address": "0x7a9e0bb471802b0dbd78d00da099cd784ea52d5a",
                    "callData": "0x",
                    "decodedMethod": {
                        "callParams": [],
                        "constructorArguments": "",
                        "name": "buyer",
                        "returnParams": [
                            {
                                "name": "",
                                "type": "address",
                                "value": "0x6e35ebb4613e9ad59628c4ec7c7437070e6e7bad"
                            }
                        ],
                        "signature": "buyer()"
                    },
                    "errorInfo": "",
                    "fromAddress": "0x4a221e7d1e6d6a015608f145fa755a4124baef37",
                    "gasUsed": 827,
                    "id": 9,
                    "methodDecoded": true,
                    "operation": "CALL",
                    "output": "0x0000000000000000000000006e35ebb4613e9ad59628c4ec7c7437070e6e7bad",
                    "revert": false,
                    "revertMessage": "",
                    "selector": "0x7150d8ae",
                    "status": true,
                    "value": "0"
                },
                "nodeType": 0
            }
        },
        "gasFlame": [
            {
                "children": [
                    {
                        "children": [
                            {
                                "children": [],
                                "depth": 0,
                                "name": "Initial Gas",
                                "value": 34200
                            },
                            {
                                "children": [
                                    {
                                        "children": [
                                            {
                                                "children": [
                                                    {
                                                        "children": [],
                                                        "depth": 3,
                                                        "name": "0x7fd6d6a2",
                                                        "value": 122001
                                                    }
                                                ],
                                                "depth": 2,
                                                "name": "contract creation",
                                                "value": 2014921
                                            },
                                            {
                                                "children": [],
                                                "depth": 2,
                                                "name": "transferOwner",
                                                "value": 6028
                                            }
                                        ],
                                        "depth": 1,
                                        "name": "create",
                                        "value": 2057566
                                    },
                                    {
                                        "children": [
                                            {
                                                "children": [],
                                                "depth": 2,
                                                "name": "buyer",
                                                "value": 827
                                            },
                                            {
                                                "children": [
                                                    {
                                                        "children": [],
                                                        "depth": 3,
                                                        "name": "contract creation",
                                                        "value": 111719
                                                    }
                                                ],
                                                "depth": 2,
                                                "name": "0xd99639f9",
                                                "value": 165419
                                            },
                                            {
                                                "children": [],
                                                "depth": 2,
                                                "name": "buyer",
                                                "value": 827
                                            },
                                            {
                                                "children": [
                                                    {
                                                        "children": [],
                                                        "depth": 3,
                                                        "name": "contract creation",
                                                        "value": 111719
                                                    }
                                                ],
                                                "depth": 2,
                                                "name": "0xd99639f9",
                                                "value": 165419
                                            }
                                        ],
                                        "depth": 1,
                                        "name": "init",
                                        "value": 341193
                                    }
                                ],
                                "depth": 0,
                                "name": "Executed Gas",
                                "value": 2430675
                            }
                        ],
                        "depth": -1,
                        "name": "Actual Gas Used",
                        "value": 2464875
                    },
                    {
                        "children": [],
                        "depth": -1,
                        "name": "Refunded Gas",
                        "value": 0
                    }
                ],
                "depth": -2,
                "name": "Total Gas",
                "value": 2464875
            }
        ],
        "isConfirmed": true,
        "mainTrace": [
            {
                "children": [
                    {
                        "children": [
                            {
                                "children": [
                                    {
                                        "children": [
                                            {
                                                "children": [],
                                                "depth": 3,
                                                "id": 3,
                                                "order": 3
                                            }
                                        ],
                                        "depth": 2,
                                        "id": 2,
                                        "order": 2
                                    },
                                    {
                                        "children": [],
                                        "depth": 2,
                                        "id": 4,
                                        "order": 4
                                    }
                                ],
                                "depth": 1,
                                "id": 1,
                                "order": 1
                            },
                            {
                                "children": [
                                    {
                                        "children": [],
                                        "depth": 2,
                                        "id": 6,
                                        "order": 6
                                    },
                                    {
                                        "children": [
                                            {
                                                "children": [],
                                                "depth": 3,
                                                "id": 8,
                                                "order": 8
                                            }
                                        ],
                                        "depth": 2,
                                        "id": 7,
                                        "order": 7
                                    },
                                    {
                                        "children": [],
                                        "depth": 2,
                                        "id": 9,
                                        "order": 9
                                    },
                                    {
                                        "children": [
                                            {
                                                "children": [],
                                                "depth": 3,
                                                "id": 11,
                                                "order": 11
                                            }
                                        ],
                                        "depth": 2,
                                        "id": 10,
                                        "order": 10
                                    }
                                ],
                                "depth": 1,
                                "id": 5,
                                "order": 5
                            }
                        ],
                        "depth": 0,
                        "id": 0,
                        "order": 0
                    }
                ],
                "depth": -1,
                "id": -1,
                "order": -1
            }
        ],
        "mainTraceNodeCount": 12,
        "parentIdMap": {
            "0": -1,
            "1": 0,
            "10": 5,
            "11": 10,
            "2": 1,
            "3": 2,
            "4": 1,
            "5": 0,
            "6": 5,
            "7": 5,
            "8": 7,
            "9": 5
        },
        "tidyTrace": [
            {
                "children": [
                    {
                        "children": [
                            {
                                "children": [
                                    {
                                        "children": [
                                            {
                                                "children": [],
                                                "depth": 3,
                                                "id": 3,
                                                "order": 3
                                            }
                                        ],
                                        "depth": 2,
                                        "id": 2,
                                        "order": 2
                                    },
                                    {
                                        "children": [],
                                        "depth": 2,
                                        "id": 4,
                                        "order": 4
                                    }
                                ],
                                "depth": 1,
                                "id": 1,
                                "order": 1
                            },
                            {
                                "children": [
                                    {
                                        "children": [],
                                        "depth": 2,
                                        "id": 6,
                                        "order": 6
                                    },
                                    {
                                        "children": [
                                            {
                                                "children": [],
                                                "depth": 3,
                                                "id": 8,
                                                "order": 8
                                            }
                                        ],
                                        "depth": 2,
                                        "id": 7,
                                        "order": 7
                                    },
                                    {
                                        "children": [],
                                        "depth": 2,
                                        "id": 9,
                                        "order": 9
                                    },
                                    {
                                        "children": [
                                            {
                                                "children": [],
                                                "depth": 3,
                                                "id": 11,
                                                "order": 11
                                            }
                                        ],
                                        "depth": 2,
                                        "id": 10,
                                        "order": 10
                                    }
                                ],
                                "depth": 1,
                                "id": 5,
                                "order": 5
                            }
                        ],
                        "depth": 0,
                        "id": 0,
                        "order": 0
                    }
                ],
                "depth": -1,
                "id": -1,
                "order": -1
            }
        ],
        "tidyTraceNodeCount": 12
    },
    "state_change": {
        "stateChanges": [
            {
                "address": "0x204d8d2730fdb5667a5b237cbd044dd24ab05e74",
                "erc": "",
                "slots": [
                    {
                        "current": "0x000000000000000049de958e4a221e7d1e6d6a015608f145fa755a4124baef37",
                        "key": "0x0000000000000000000000000000000000000000000000000000000000000001",
                        "prev": "0x0000000000000000000000000000000000000000000000000000000000000000"
                    },
                    {
                        "current": "0x0000000000000000000000006e35ebb4613e9ad59628c4ec7c7437070e6e7bad",
                        "key": "0x0000000000000000000000000000000000000000000000000000000000000000",
                        "prev": "0x0000000000000000000000000000000000000000000000000000000000000000"
                    }
                ],
                "storageVariables": []
            },
            {
                "address": "0x4a221e7d1e6d6a015608f145fa755a4124baef37",
                "erc": "",
                "slots": [
                    {
                        "current": "0x0000000000000000000000006e35ebb4613e9ad59628c4ec7c7437070e6e7bad",
                        "key": "0x0000000000000000000000000000000000000000000000000000000000000000",
                        "prev": "0x0000000000000000000000000000000000000000000000000000000000000000"
                    },
                    {
                        "current": "0x0000000000000000000000007a9e0bb471802b0dbd78d00da099cd784ea52d5a",
                        "key": "0x0000000000000000000000000000000000000000000000000000000000000003",
                        "prev": "0x0000000000000000000000000000000000000000000000000000000000000000"
                    },
                    {
                        "current": "0x000000000000000000000000a8f4fb4b2a1b16c49f66175d923d3cfb448e0fc4",
                        "key": "0x0000000000000000000000000000000000000000000000000000000000000006",
                        "prev": "0x0000000000000000000000000000000000000000000000000000000000000000"
                    },
                    {
                        "current": "0x00000000000000000000008a0f000631a58149f71a61f278a9d974fe4422b800",
                        "key": "0x0000000000000000000000000000000000000000000000000000000000000008",
                        "prev": "0x0000000000000000000000000000000000000000000000000000000000000000"
                    },
                    {
                        "current": "0x000000000000000000000000cde3155e7f27356b74250c222c250d0dd6796993",
                        "key": "0x6297d357ffc07c453d3a7cf406a40bd74fc048fad008ba36d80d6be208306add",
                        "prev": "0x0000000000000000000000000000000000000000000000000000000000000000"
                    },
                    {
                        "current": "0x000000000000000000000000352c081ce11ed2c948c8ff9a73cc1ccb88e56fa4",
                        "key": "0x0000000000000000000000000000000000000000000000000000000000000002",
                        "prev": "0x0000000000000000000000000000000000000000000000000000000000000000"
                    },
                    {
                        "current": "0x0000000000000000000000007a9977ba09950b761976611caf47e57e237a4e0b",
                        "key": "0x0000000000000000000000000000000000000000000000000000000000000004",
                        "prev": "0x0000000000000000000000000000000000000000000000000000000000000000"
                    },
                    {
                        "current": "0x000000000000000000000000dcf22cc5c99ef49850351f115f6c506531b462d0",
                        "key": "0x0000000000000000000000000000000000000000000000000000000000000005",
                        "prev": "0x0000000000000000000000000000000000000000000000000000000000000000"
                    },
                    {
                        "current": "0x000000000000000000000000204d8d2730fdb5667a5b237cbd044dd24ab05e74",
                        "key": "0xb5e5877fbf75ba947944dbea84a47b699cccc4528d7ff974a41cf2e0afcec24f",
                        "prev": "0x0000000000000000000000000000000000000000000000000000000000000000"
                    }
                ],
                "storageVariables": []
            },
            {
                "address": "0x6e35ebb4613e9ad59628c4ec7c7437070e6e7bad",
                "erc": "",
                "slots": [
                    {
                        "current": "0x0000000000000000000000004a221e7d1e6d6a015608f145fa755a4124baef37",
                        "key": "0xf5b265d00097f26bf3d7bd581121871070c4ea979501048138c31ae60aec0ada",
                        "prev": "0x0000000000000000000000000000000000000000000000000000000000000000"
                    },
                    {
                        "current": "0x0000000000000000000000000000000000000000000000000000000000000005",
                        "key": "0xf5b265d00097f26bf3d7bd581121871070c4ea979501048138c31ae60aec0ad8",
                        "prev": "0x0000000000000000000000000000000000000000000000000000000000000004"
                    }
                ],
                "storageVariables": []
            },
            {
                "address": "0xcde3155e7f27356b74250c222c250d0dd6796993",
                "erc": "",
                "slots": [
                    {
                        "current": "0x0000000000000000000000006e35ebb4613e9ad59628c4ec7c7437070e6e7bad",
                        "key": "0x0000000000000000000000000000000000000000000000000000000000000000",
                        "prev": "0x0000000000000000000000000000000000000000000000000000000000000000"
                    },
                    {
                        "current": "0x0000000000000000f3e910fd4a221e7d1e6d6a015608f145fa755a4124baef37",
                        "key": "0x0000000000000000000000000000000000000000000000000000000000000001",
                        "prev": "0x0000000000000000000000000000000000000000000000000000000000000000"
                    }
                ],
                "storageVariables": []
            }
        ]
    }
}