{
    "balance_change": {
        "balanceChanges": [
            {
                "account": "0xe88f4c421f93d4b0006f3821e51dac9c471db76a",
                "assets": [
                    {
                        "address": "0xeeeeeeeeeeeeeeeeeeeeeeeeeeeeeeeeeeeeeeee",
                        "amount": "0.025",
                        "iconUrl": "https://assets.blocksec.com/image/1663669189317-3.png",
                        "isERC1155": false,
                        "isERC721": false,
                        "sign": false,
                        "value": "81.07350964"
                    },
                    {
                        "address": "0x495f947276749ce646f68ac8c248420045cb7b5e",
                        "amount": "1",
                        "iconUrl": "",
                        "isERC1155": true,
                        "isERC721": false,
                        "sign": true,
                        "tokenID": "89586195117071375533595198834044806151848740896696016229803979763545748275201",
                        "value": ""
                    }
                ]
            },
            {
                "account": "0x5b3256965e7c3cf26e11fcaf296dfc8807c01073",
                "assets": [
                    {
                        "address": "0xeeeeeeeeeeeeeeeeeeeeeeeeeeeeeeeeeeeeeeee",
                        "amount": "0.00125",
                        "iconUrl": "https://assets.blocksec.com/image/1663669189317-3.png",
                        "isERC1155": false,
                        "isERC721": false,
                        "sign": true,
                        "value": "4.05367548"
                    }
                ]
            },
            {
                "account": "0xc60ffd537301c63e9514d354f063c53bf96f4e0f",
                "assets": [
                    {
                        "address": "0x495f947276749ce646f68ac8c248420045cb7b5e",
                        "amount": "1",
                        "iconUrl": "",
                        "isERC1155": true,
                        "isERC721": false,
                        "sign": false,
                        "tokenID": "89586195117071375533595198834044806151848740896696016229803979763545748275201",
                        "value": ""
                    },
                    {
                        "address": "0xeeeeeeeeeeeeeeeeeeeeeeeeeeeeeeeeeeeeeeee",
                        "amount": "0.02375",
                        "iconUrl": "https://assets.blocksec.com/image/1663669189317-3.png",
                        "isERC1155": false,
                        "isERC721": false,
                        "sign": true,
                        "value": "77.01983416"
                    }
                ]
            }
        ]
    },
    "profile": {
        "basic_info": {
            "baseFee": "37.806510254",
            "blockNumber": 13071152,
            "callData": "0xab834bab0000000000000000000000007be8076f4ea4a4ad08075c2508e481d6c946d12b000000000000000000000000e88f4c421f93d4b0006f3821e51dac9c471db76a000000000000000000000000c60ffd537301c63e9514d354f063c53bf96f4e0f0000000000000000000000000000000000000000000000000000000000000000000000000000000000000000495f947276749ce646f68ac8c248420045cb7b5e000000000000000000000000000000000000000000000000000000000000000000000000000000000000000000000000000000000000000000000000000000000000000000000000000000007be8076f4ea4a4ad08075c2508e481d6c946d12b000000000000000000000000c60ffd537301c63e9514d354f063c53bf96f4e0f00000000000000000000000000000000000000000000000000000000000000000000000000000000000000005b3256965e7c3cf26e11fcaf296dfc8807c01073000000000000000000000000495f947276749ce646f68ac8c248420045cb7b5e0000000000000000000000000000000000000000000000000000000000000000000000000000000000000000000000000000000000000000000000000000000000000000000000000000000000000000000000000000000000000000000001f40000000000000000000000000000000000000000000000000000000000000000000000000000000000000000000000000000000000000000000000000000000000000000000000000000000000000000000000000000000000000000000000000000000000000000000000000000000000000000000000000058d15e1762800000000000000000000000000000000000000000000000000000000000000000000000000000000000000000000000000000000000000000000000000061217411000000000000000000000000000000000000000000000000000000000000000076e47e6d033ac3090599d1dbed54228962916c5cbb9986f235f3e59299f2f30400000000000000000000000000000000000000000000000000000000000001f40000000000000000000000000000000000000000000000000000000000000000000000000000000000000000000000000000000000000000000000000000000000000000000000000000000000000000000000000000000000000000000000000000000000000000000000000000000000000000000000000058d15e17628000000000000000000000000000000000000000000000000000000000000000000000000000000000000000000000000000000000000000000000000000612173f000000000000000000000000000000000000000000000000000000000000000001f9d2aefb0afe4c018da1ad6b582cb7418220e60988b2511b68a9fceeb5343f70000000000000000000000000000000000000000000000000000000000000001000000000000000000000000000000000000000000000000000000000000000000000000000000000000000000000000000000000000000000000000000000000000000000000000000000000000000000000000000000000000000000000000000000000000000000000000000000000000000000000000000000000000000100000000000000000000000000000000000000000000000000000000000000010000000000000000000000000000000000000000000000000000000000000000000000000000000000000000000000000000000000000000000000000000000000000000000000000000000000000000000000000000000000000000000006a000000000000000000000000000000000000000000000000000000000000007a000000000000000000000000000000000000000000000000000000000000008a000000000000000000000000000000000000000000000000000000000000009a00000000000000000000000000000000000000000000000000000000000000aa00000000000000000000000000000000000000000000000000000000000000ac0000000000000000000000000000000000000000000000000000000000000001b000000000000000000000000000000000000000000000000000000000000001b55d51ff9a4aefdaf810031e967da912427721bd47578386fd2ac4b182b15334725ed8592f54ccc9775ab718f8ca5b14458fadd6e5dd74c731d015bc4799149e655d51ff9a4aefdaf810031e967da912427721bd47578386fd2ac4b182b15334725ed8592f54ccc9775ab718f8ca5b14458fadd6e5dd74c731d015bc4799149e629b2f895343cadfb3f5101bef6484b1f01c83dc900000000000000000000000000000000000000000000000000000000000000000000000000000000000000c4f242432a0000000000000000000000000000000000000000000000000000000000000000000000000000000000000000e88f4c421f93d4b0006f3821e51dac9c471db76ac60ffd537301c63e9514d354f063c53bf96f4e0f000000000001ed0000000001000000000000000000000000000000000000000000000000000000000000000100000000000000000000000000000000000000000000000000000000000000a000000000000000000000000000000000000000000000000000000000000000000000000000000000000000000000000000000000000000000000000000000000000000000000000000000000000000000000000000000000000000c4f242432a000000000000000000000000c60ffd537301c63e9514d354f063c53bf96f4e0f0000000000000000000000000000000000000000000000000000000000000000c60ffd537301c63e9514d354f063c53bf96f4e0f000000000001ed0000000001000000000000000000000000000000000000000000000000000000000000000100000000000000000000000000000000000000000000000000000000000000a000000000000000000000000000000000000000000000000000000000000000000000000000000000000000000000000000000000000000000000000000000000000000000000000000000000000000000000000000000000000000c400000000ffffffffffffffffffffffffffffffffffffffffffffffffffffffffffffffff000000000000000000000000000000000000000000000000000000000000000000000000000000000000000000000000000000000000000000000000000000000000000000000000000000000000000000000000000000000000000000000000000000000000000000000000000000000000000000000000000000000000000000000000000000000000000000000000000000000000000000000000000000000000000000000000000000000000000000000000000000000000000000000000000000000000000000000000000000000000000000000000000000c4000000000000000000000000000000000000000000000000000000000000000000000000ffffffffffffffffffffffffffffffffffffffffffffffffffffffffffffffff00000000000000000000000000000000000000000000000000000000000000000000000000000000000000000000000000000000000000000000000000000000000000000000000000000000000000000000000000000000000000000000000000000000000000000000000000000000000000000000000000000000000000000000000000000000000000000000000000000000000000000000000000000000000000000000000000000000000000000000000000000000000000000000000000000000000000000000000000000000000000000000000000000000",
            "debugEnable": true,
            "errorInfo": "",
            "eventCount": 2,
            "feeRecipient": "0xea674fdde714fd979de3edf0f56aa9716b898ec8",
            "formatValue": "0.025",
            "gasLimit": 294388,
            "gasPrice": "39.306510254",
            "gasUsed": 218711,
            "intTxnCount": 11,
            "internalRevert": false,
            "internalRevertMessage": "",
            "isContractCreation": false,
            "isFlashloan": false,
            "maxFee": "45.263355652",
            "nonce": 717,
            "overwritedBlockNumber": -1,
            "priorityFee": "1.5",
            "receiver": "0x7be8076f4ea4a4ad08075c2508e481d6c946d12b",
            "revertMessage": "",
            "sender": "0xe88f4c421f93d4b0006f3821e51dac9c471db76a",
            "simulationEnable": true,
            "sourceTxnHash": "0x3c6a157c2ce956d9fc5523221a2574c4dc596392c35456cc0cdf19f1b62593cf",
            "status": true,
            "timestamp": "2021-08-21T21:47:42Z",
            "transactionFee": "0.008596766164162594",
            "txnHash": "0x3c6a157c2ce956d9fc5523221a2574c4dc596392c35456cc0cdf19f1b62593cf",
            "txnIndex": 98,
            "type": 2,
            "value": "25000000000000000"
        },
        "fund_flow": [
            {
                "amount": "0.025",
                "from": "0xe88f4c421f93d4b0006f3821e51dac9c471db76a",
                "id": 1,
                "isERC1155": false,
                "isERC721": false,
                "isReverted": false,
                "order": 1,
                "to": "0x7be8076f4ea4a4ad08075c2508e481d6c946d12b",
                "token": "0xeeeeeeeeeeeeeeeeeeeeeeeeeeeeeeeeeeeeeeee"
            },
            {
                "amount": "0.00125",
                "from": "0x7be8076f4ea4a4ad08075c2508e481d6c946d12b",
                "id": 2,
                "isERC1155": false,
                "isERC721": false,
                "isReverted": false,
                "order": 2,
                "to": "0x5b3256965e7c3cf26e11fcaf296dfc8807c01073",
                "token": "0xeeeeeeeeeeeeeeeeeeeeeeeeeeeeeeeeeeeeeeee"
            },
            {
                "amount": "0.02375",
                "from": "0x7be8076f4ea4a4ad08075c2508e481d6c946d12b",
                "id": 3,
                "isERC1155": false,
                "isERC721": false,
                "isReverted": false,
                "order": 3,
                "to": "0xc60ffd537301c63e9514d354f063c53bf96f4e0f",
                "token": "0xeeeeeeeeeeeeeeeeeeeeeeeeeeeeeeeeeeeeeeee"
            },
            {
                "amount": "1",
                "from": "0xc60ffd537301c63e9514d354f063c53bf96f4e0f",
                "id": 4,
                "isERC1155": true,
                "isERC721": false,
                "isReverted": false,
                "order": 4,
                "to": "0xe88f4c421f93d4b0006f3821e51dac9c471db76a",
                "token": "0x495f947276749ce646f68ac8c248420045cb7b5e",
                "tokenID": "89586195117071375533595198834044806151848740896696016229803979763545748275201"
            }
        ],
        "token_infos": [
            {
                "address": "0xc02aaa39b223fe8d0a0e5c4f27ead9083c756cc2",
                "decimals": 18
            },
            {
                "address": "0xeeeeeeeeeeeeeeeeeeeeeeeeeeeeeeeeeeeeeeee",
                "decimals": 18
            }
        ]
    },
    "address_label": {
        "labels": [
            {
                "address": "0x5b3256965e7c3cf26e11fcaf296dfc8807c01073",
                "label": "OpenSea: Wallet"
            },
            {
                "address": "0x0000000000000000000000000000000000000000",
                "label": "Null Address"
            },
            {
                "address": "0xf6d2354432a71ab70d6fe2932b3c02f3e0aa6260",
                "label": "OwnableDelegateProxy"
            },
            {
                "address": "0x0000000000000000000000000000000000000001",
                "label": "Precompiled"
            },
            {
                "address": "0x0000000000000000000000000000000000000004",
                "label": "Precompiled"
            },
            {
                "address": "0x495f947276749ce646f68ac8c248420045cb7b5e",
                "label": "OpenSea: OPENSTORE Token"
            },
            {
                "address": "0xa5409ec958c83c3f309868babaca7c86dcb077c1",
                "label": "OpenSea: Registry"
            },
            {
                "address": "0xf9e266af4bca5890e2781812cc6a6e89495a79f2",
                "label": "AuthenticatedProxy"
            },
            {
                "address": "0x0000000000000000000000000000000000000002",
                "label": "Precompiled"
            },
            {
                "address": "0x0000000000000000000000000000000000000003",
                "label": "Precompiled"
            },
            {
                "address": "0xeeeeeeeeeeeeeeeeeeeeeeeeeeeeeeeeeeeeeeee",
                "label": "Ether"
            },
            {
                "address": "0x7be8076f4ea4a4ad08075c2508e481d6c946d12b",
                "label": "OpenSea: Wyvern Exchange v1"
            }
        ]
    },
    "trace": {
        "accountLabels": null,
        "dataMap": {
            "-1": {
                "invocation": {
                    "address": "0xe88f4c421f93d4b0006f3821e51dac9c471db76a",
                    "callData": "",
                    "decodedMethod": null,
                    "errorInfo": "",
                    "fromAddress": "",
                    "gasUsed": 0,
                    "id": -1,
                    "methodDecoded": false,
                    "operation": "",
                    "output": "",
                    "revert": false,
                    "revertMessage": "",
                    "selector": "",
                    "status": false,
                    "value": ""
                },
                "nodeType": 0
            },
            "0": {
                "invocation": {
                    "address": "0x7be8076f4ea4a4ad08075c2508e481d6c946d12b",
                    "callData": "0x0000000000000000000000007be8076f4ea4a4ad08075c2508e481d6c946d12b000000000000000000000000e88f4c421f93d4b0006f3821e51dac9c471db76a000000000000000000000000c60ffd537301c63e9514d354f063c53bf96f4e0f0000000000000000000000000000000000000000000000000000000000000000000000000000000000000000495f947276749ce646f68ac8c248420045cb7b5e000000000000000000000000000000000000000000000000000000000000000000000000000000000000000000000000000000000000000000000000000000000000000000000000000000007be8076f4ea4a4ad08075c2508e481d6c946d12b000000000000000000000000c60ffd537301c63e9514d354f063c53bf96f4e0f00000000000000000000000000000000000000000000000000000000000000000000000000000000000000005b3256965e7c3cf26e11fcaf296dfc8807c01073000000000000000000000000495f947276749ce646f68ac8c248420045cb7b5e0000000000000000000000000000000000000000000000000000000000000000000000000000000000000000000000000000000000000000000000000000000000000000000000000000000000000000000000000000000000000000000001f40000000000000000000000000000000000000000000000000000000000000000000000000000000000000000000000000000000000000000000000000000000000000000000000000000000000000000000000000000000000000000000000000000000000000000000000000000000000000000000000000058d15e1762800000000000000000000000000000000000000000000000000000000000000000000000000000000000000000000000000000000000000000000000000061217411000000000000000000000000000000000000000000000000000000000000000076e47e6d033ac3090599d1dbed54228962916c5cbb9986f235f3e59299f2f30400000000000000000000000000000000000000000000000000000000000001f40000000000000000000000000000000000000000000000000000000000000000000000000000000000000000000000000000000000000000000000000000000000000000000000000000000000000000000000000000000000000000000000000000000000000000000000000000000000000000000000000058d15e17628000000000000000000000000000000000000000000000000000000000000000000000000000000000000000000000000000000000000000000000000000612173f000000000000000000000000000000000000000000000000000000000000000001f9d2aefb0afe4c018da1ad6b582cb7418220e60988b2511b68a9fceeb5343f70000000000000000000000000000000000000000000000000000000000000001000000000000000000000000000000000000000000000000000000000000000000000000000000000000000000000000000000000000000000000000000000000000000000000000000000000000000000000000000000000000000000000000000000000000000000000000000000000000000000000000000000000000000100000000000000000000000000000000000000000000000000000000000000010000000000000000000000000000000000000000000000000000000000000000000000000000000000000000000000000000000000000000000000000000000000000000000000000000000000000000000000000000000000000000000006a000000000000000000000000000000000000000000000000000000000000007a000000000000000000000000000000000000000000000000000000000000008a000000000000000000000000000000000000000000000000000000000000009a00000000000000000000000000000000000000000000000000000000000000aa00000000000000000000000000000000000000000000000000000000000000ac0000000000000000000000000000000000000000000000000000000000000001b000000000000000000000000000000000000000000000000000000000000001b55d51ff9a4aefdaf810031e967da912427721bd47578386fd2ac4b182b15334725ed8592f54ccc9775ab718f8ca5b14458fadd6e5dd74c731d015bc4799149e655d51ff9a4aefdaf810031e967da912427721bd47578386fd2ac4b182b15334725ed8592f54ccc9775ab718f8ca5b14458fadd6e5dd74c731d015bc4799149e629b2f895343cadfb3f5101bef6484b1f01c83dc900000000000000000000000000000000000000000000000000000000000000000000000000000000000000c4f242432a0000000000000000000000000000000000000000000000000000000000000000000000000000000000000000e88f4c421f93d4b0006f3821e51dac9c471db76ac60ffd537301c63e9514d354f063c53bf96f4e0f000000000001ed0000000001000000000000000000000000000000000000000000000000000000000000000100000000000000000000000000000000000000000000000000000000000000a000000000000000000000000000000000000000000000000000000000000000000000000000000000000000000000000000000000000000000000000000000000000000000000000000000000000000000000000000000000000000c4f242432a000000000000000000000000c60ffd537301c63e9514d354f063c53bf96f4e0f0000000000000000000000000000000000000000000000000000000000000000c60ffd537301c63e9514d354f063c53bf96f4e0f000000000001ed0000000001000000000000000000000000000000000000000000000000000000000000000100000000000000000000000000000000000000000000000000000000000000a000000000000000000000000000000000000000000000000000000000000000000000000000000000000000000000000000000000000000000000000000000000000000000000000000000000000000000000000000000000000000c400000000ffffffffffffffffffffffffffffffffffffffffffffffffffffffffffffffff000000000000000000000000000000000000000000000000000000000000000000000000000000000000000000000000000000000000000000000000000000000000000000000000000000000000000000000000000000000000000000000000000000000000000000000000000000000000000000000000000000000000000000000000000000000000000000000000000000000000000000000000000000000000000000000000000000000000000000000000000000000000000000000000000000000000000000000000000000000000000000000000000000c4000000000000000000000000000000000000000000000000000000000000000000000000ffffffffffffffffffffffffffffffffffffffffffffffffffffffffffffffff00000000000000000000000000000000000000000000000000000000000000000000000000000000000000000000000000000000000000000000000000000000000000000000000000000000000000000000000000000000000000000000000000000000000000000000000000000000000000000000000000000000000000000000000000000000000000000000000000000000000000000000000000000000000000000000000000000000000000000000000000000000000000000000000000000000000000000000000000000000000000000000000000000000",
                    "decodedMethod": {
                        "callParams": [
                            {
                                "name": "addrs",
                                "type": "address[14]",
                                "value": [
                                    "0x7be8076f4ea4a4ad08075c2508e481d6c946d12b",
                                    "0xe88f4c421f93d4b0006f3821e51dac9c471db76a",
                                    "0xc60ffd537301c63e9514d354f063c53bf96f4e0f",
                                    "0x0000000000000000000000000000000000000000",
                                    "0x495f947276749ce646f68ac8c248420045cb7b5e",
                                    "0x0000000000000000000000000000000000000000",
                                    "0x0000000000000000000000000000000000000000",
                                    "0x7be8076f4ea4a4ad08075c2508e481d6c946d12b",
                                    "0xc60ffd537301c63e9514d354f063c53bf96f4e0f",
                                    "0x0000000000000000000000000000000000000000",
                                    "0x5b3256965e7c3cf26e11fcaf296dfc8807c01073",
                                    "0x495f947276749ce646f68ac8c248420045cb7b5e",
                                    "0x0000000000000000000000000000000000000000",
                                    "0x0000000000000000000000000000000000000000"
                                ]
                            },
                            {
                                "name": "uints",
                                "type": "uint256[18]",
                                "value": [
                                    "500",
                                    "0",
                                    "0",
                                    "0",
                                    "25,000,000,000,000,000",
                                    "0",
                                    "1,629,582,353",
                                    "0",
                                    "53,776,629,822,608,897,886,290,904,949,329,788,614,223,802,390,603,212,578,969,860,500,254,241,256,196",
                                    "500",
                                    "0",
                                    "0",
                                    "0",
                                    "25,000,000,000,000,000",
                                    "0",
                                    "1,629,582,320",
                                    "0",
                                    "14,299,389,630,632,604,777,735,470,306,867,935,649,545,651,079,570,439,126,541,820,383,417,760,695,287"
                                ]
                            },
                            {
                                "name": "feeMethodsSidesKindsHowToCalls",
                                "type": "uint8[8]",
                                "value": [
                                    "1",
                                    "0",
                                    "0",
                                    "0",
                                    "1",
                                    "1",
                                    "0",
                                    "0"
                                ]
                            },
                            {
                                "name": "calldataBuy",
                                "type": "bytes",
                                "value": "0xf242432a0000000000000000000000000000000000000000000000000000000000000000000000000000000000000000e88f4c421f93d4b0006f3821e51dac9c471db76ac60ffd537301c63e9514d354f063c53bf96f4e0f000000000001ed0000000001000000000000000000000000000000000000000000000000000000000000000100000000000000000000000000000000000000000000000000000000000000a00000000000000000000000000000000000000000000000000000000000000000"
                            },
                            {
                                "name": "calldataSell",
                                "type": "bytes",
                                "value": "0xf242432a000000000000000000000000c60ffd537301c63e9514d354f063c53bf96f4e0f0000000000000000000000000000000000000000000000000000000000000000c60ffd537301c63e9514d354f063c53bf96f4e0f000000000001ed0000000001000000000000000000000000000000000000000000000000000000000000000100000000000000000000000000000000000000000000000000000000000000a00000000000000000000000000000000000000000000000000000000000000000"
                            },
                            {
                                "name": "replacementPatternBuy",
                                "type": "bytes",
                                "value": "0x00000000ffffffffffffffffffffffffffffffffffffffffffffffffffffffffffffffff00000000000000000000000000000000000000000000000000000000000000000000000000000000000000000000000000000000000000000000000000000000000000000000000000000000000000000000000000000000000000000000000000000000000000000000000000000000000000000000000000000000000000000000000000000000000000000000000000000000000000000000000000000000"
                            },
                            {
                                "name": "replacementPatternSell",
                                "type": "bytes",
                                "value": "0x000000000000000000000000000000000000000000000000000000000000000000000000ffffffffffffffffffffffffffffffffffffffffffffffffffffffffffffffff0000000000000000000000000000000000000000000000000000000000000000000000000000000000000000000000000000000000000000000000000000000000000000000000000000000000000000000000000000000000000000000000000000000000000000000000000000000000000000000000000000000000000000"
                            },
                            {
                                "name": "staticExtradataBuy",
                                "type": "bytes",
                                "value": "0x"
                            },
                            {
                                "name": "staticExtradataSell",
                                "type": "bytes",
                                "value": "0x"
                            },
                            {
                                "name": "vs",
                                "type": "uint8[2]",
                                "value": [
                                    "27",
                                    "27"
                                ]
                            },
                            {
                                "name": "rssMetadata",
                                "type": "bytes32[5]",
                                "value": [
                                    "0x55d51ff9a4aefdaf810031e967da912427721bd47578386fd2ac4b182b153347",
                                    "0x25ed8592f54ccc9775ab718f8ca5b14458fadd6e5dd74c731d015bc4799149e6",
                                    "0x55d51ff9a4aefdaf810031e967da912427721bd47578386fd2ac4b182b153347",
                                    "0x25ed8592f54ccc9775ab718f8ca5b14458fadd6e5dd74c731d015bc4799149e6",
                                    "0x29b2f895343cadfb3f5101bef6484b1f01c83dc9000000000000000000000000"
                                ]
                            }
                        ],
                        "constructorArguments": "",
                        "name": "atomicMatch_",
                        "returnParams": [],
                        "signature": "atomicMatch_(address[14],uint256[18],uint8[8],bytes,bytes,bytes,bytes,bytes,bytes,uint8[2],bytes32[5])"
                    },
                    "errorInfo": "",
                    "fromAddress": "0xe88f4c421f93d4b0006f3821e51dac9c471db76a",
                    "gasUsed": 218711,
                    "id": 0,
                    "methodDecoded": true,
                    "operation": "CALL",
                    "output": "",
                    "revert": false,
                    "revertMessage": "",
                    "selector": "0xab834bab",
                    "status": true,
                    "value": "0.025"
                },
                "nodeType": 0
            },
            "1": {
                "invocation": {
                    "address": "0x0000000000000000000000000000000000000001",
                    "callData": "0x730d07dfff1eed84874aa15dc40021d56fecbfafeed814998975dbbf000000000000000000000000000000000000000000000000000000000000001b55d51ff9a4aefdaf810031e967da912427721bd47578386fd2ac4b182b15334725ed8592f54ccc9775ab718f8ca5b14458fadd6e5dd74c731d015bc4799149e6",
                    "decodedMethod": {
                        "callParams": [
                            {
                                "name": "hash",
                                "type": "bytes32",
                                "value": "0x23399550730d07dfff1eed84874aa15dc40021d56fecbfafeed814998975dbbf"
                            },
                            {
                                "name": "v",
                                "type": "uint256",
                                "value": "27"
                            },
                            {
                                "name": "r",
                                "type": "bytes32",
                                "value": "0x55d51ff9a4aefdaf810031e967da912427721bd47578386fd2ac4b182b153347"
                            },
                            {
                                "name": "s",
                                "type": "bytes32",
                                "value": "0x25ed8592f54ccc9775ab718f8ca5b14458fadd6e5dd74c731d015bc4799149e6"
                            }
                        ],
                        "constructorArguments": "",
                        "name": "ecrecover",
                        "returnParams": [
                            {
                                "name": "",
                                "type": "address",
                                "value": "0xc60ffd537301c63e9514d354f063c53bf96f4e0f"
                            }
                        ],
                        "signature": "ecrecover(bytes32,uint256,bytes32,bytes32)"
                    },
                    "errorInfo": "",
                    "fromAddress": "0x7be8076f4ea4a4ad08075c2508e481d6c946d12b",
                    "gasUsed": 3000,
                    "id": 1,
                    "methodDecoded": true,
                    "operation": "CALL",
                    "output": "0x000000000000000000000000c60ffd537301c63e9514d354f063c53bf96f4e0f",
                    "revert": false,
                    "revertMessage": "",
                    "selector": "0x23399550",
                    "status": true,
                    "value": "0"
                },
                "nodeType": 0
            },
            "10": {
                "invocation": {
                    "address": "0x495f947276749ce646f68ac8c248420045cb7b5e",
                    "callData": "0x000000000000000000000000c60ffd537301c63e9514d354f063c53bf96f4e0f000000000000000000000000e88f4c421f93d4b0006f3821e51dac9c471db76ac60ffd537301c63e9514d354f063c53bf96f4e0f000000000001ed0000000001000000000000000000000000000000000000000000000000000000000000000100000000000000000000000000000000000000000000000000000000000000a0000000000000000000000000000000000000000000000000000000000000000000000000000000000000000000000000000000000000000000000000",
                    "decodedMethod": {
                        "callParams": [
                            {
                                "name": "from",
                                "type": "address",
                                "value": "0xc60ffd537301c63e9514d354f063c53bf96f4e0f"
                            },
                            {
                                "name": "to",
                                "type": "address",
                                "value": "0xe88f4c421f93d4b0006f3821e51dac9c471db76a"
                            },
                            {
                                "name": "id",
                                "type": "uint256",
                                "value": "89,586,195,117,071,375,533,595,198,834,044,806,151,848,740,896,696,016,229,803,979,763,545,748,275,201"
                            },
                            {
                                "name": "amount",
                                "type": "uint256",
                                "value": "1"
                            },
                            {
                                "name": "data",
                                "type": "bytes",
                                "value": "0x"
                            }
                        ],
                        "constructorArguments": "",
                        "name": "safeTransferFrom",
                        "returnParams": [],
                        "signature": "safeTransferFrom(address,address,uint256,uint256,bytes)"
                    },
                    "errorInfo": "",
                    "fromAddress": "0xf6d2354432a71ab70d6fe2932b3c02f3e0aa6260",
                    "gasUsed": 65486,
                    "id": 10,
                    "methodDecoded": true,
                    "operation": "CALL",
                    "output": "",
                    "revert": false,
                    "revertMessage": "",
                    "selector": "0xf242432a",
                    "status": true,
                    "value": "0"
                },
                "nodeType": 0
            },
            "11": {
                "invocation": {
                    "address": "0xa5409ec958c83c3f309868babaca7c86dcb077c1",
                    "callData": "0x000000000000000000000000c60ffd537301c63e9514d354f063c53bf96f4e0f",
                    "decodedMethod": {
                        "callParams": [
                            {
                                "name": "",
                                "type": "address",
                                "value": "0xc60ffd537301c63e9514d354f063c53bf96f4e0f"
                            }
                        ],
                        "constructorArguments": "",
                        "name": "proxies",
                        "returnParams": [
                            {
                                "name": "",
                                "type": "address",
                                "value": "0xf6d2354432a71ab70d6fe2932b3c02f3e0aa6260"
                            }
                        ],
                        "signature": "proxies(address)"
                    },
                    "errorInfo": "",
                    "fromAddress": "0x495f947276749ce646f68ac8c248420045cb7b5e",
                    "gasUsed": 782,
                    "id": 11,
                    "methodDecoded": true,
                    "operation": "STATICCALL",
                    "output": "0x000000000000000000000000f6d2354432a71ab70d6fe2932b3c02f3e0aa6260",
                    "revert": false,
                    "revertMessage": "",
                    "selector": "0xc4552791",
                    "status": true,
                    "value": "0"
                },
                "nodeType": 0
            },
            "12": {
                "event": {
                    "contract": "0x495f947276749ce646f68ac8c248420045cb7b5e",
                    "decodedLog": {
                        "name": "TransferSingle",
                        "params": [
                            {
                                "name": "operator",
                                "type": "address",
                                "value": "0xf6d2354432a71ab70d6fe2932b3c02f3e0aa6260"
                            },
                            {
                                "name": "from",
                                "type": "address",
                                "value": "0xc60ffd537301c63e9514d354f063c53bf96f4e0f"
                            },
                            {
                                "name": "to",
                                "type": "address",
                                "value": "0xe88f4c421f93d4b0006f3821e51dac9c471db76a"
                            },
                            {
                                "name": "id",
                                "type": "uint256",
                                "value": "89,586,195,117,071,375,533,595,198,834,044,806,151,848,740,896,696,016,229,803,979,763,545,748,275,201"
                            },
                            {
                                "name": "value",
                                "type": "uint256",
                                "value": "1"
                            }
                        ],
                        "signature": "TransferSingle(address,address,address,uint256,uint256)"
                    },
                    "id": 12,
                    "logData": "0xc60ffd537301c63e9514d354f063c53bf96f4e0f000000000001ed00000000010000000000000000000000000000000000000000000000000000000000000001",
                    "logDecoded": true,
                    "operation": "EVENT",
                    "revert": false,
                    "status": true,
                    "topics": [
                        "0xc3d58168c5ae7397731d063d5bbf3d657854427343f4c083240f7aacaa2d0f62",
                        "0x000000000000000000000000f6d2354432a71ab70d6fe2932b3c02f3e0aa6260",
                        "0x000000000000000000000000c60ffd537301c63e9514d354f063c53bf96f4e0f",
                        "0x000000000000000000000000e88f4c421f93d4b0006f3821e51dac9c471db76a"
                    ]
                },
                "nodeType": 1
            },
            "13": {
                "event": {
                    "contract": "0x7be8076f4ea4a4ad08075c2508e481d6c946d12b",
                    "decodedLog": {
                        "name": "OrdersMatched",
                        "params": [
                            {
                                "name": "maker",
                                "type": "address",
                                "value": "0xc60ffd537301c63e9514d354f063c53bf96f4e0f"
                            },
                            {
                                "name": "taker",
                                "type": "address",
                                "value": "0xe88f4c421f93d4b0006f3821e51dac9c471db76a"
                            },
                            {
                                "name": "metadata",
                                "type": "bytes32",
                                "value": "0x29b2f895343cadfb3f5101bef6484b1f01c83dc9000000000000000000000000"
                            },
                            {
                                "name": "buyHash",
                                "type": "bytes32",
                                "value": "0x0000000000000000000000000000000000000000000000000000000000000000"
                            },
                            {
                                "name": "sellHash",
                                "type": "bytes32",
                                "value": "0x23399550730d07dfff1eed84874aa15dc40021d56fecbfafeed814998975dbbf"
                            },
                            {
                                "name": "price",
                                "type": "uint256",
                                "value": "25,000,000,000,000,000"
                            }
                        ],
                        "signature": "OrdersMatched(bytes32,bytes32,address,address,uint256,bytes32)"
                    },
                    "id": 13,
                    "logData": "0x000000000000000000000000000000000000000000000000000000000000000023399550730d07dfff1eed84874aa15dc40021d56fecbfafeed814998975dbbf0000000000000000000000000000000000000000000000000058d15e17628000",
                    "logDecoded": true,
                    "operation": "EVENT",
                    "revert": false,
                    "status": true,
                    "topics": [
                        "0xc4109843e0b7d514e4c093114b863f8e7d8d9a458c372cd51bfe526b588006c9",
                        "0x000000000000000000000000c60ffd537301c63e9514d354f063c53bf96f4e0f",
                        "0x000000000000000000000000e88f4c421f93d4b0006f3821e51dac9c471db76a",
                        "0x29b2f895343cadfb3f5101bef6484b1f01c83dc9000000000000000000000000"
                    ]
                },
                "nodeType": 1
            },
            "2": {
                "invocation": {
                    "address": "0xa5409ec958c83c3f309868babaca7c86dcb077c1",
                    "callData": "0x000000000000000000000000c60ffd537301c63e9514d354f063c53bf96f4e0f",
                    "decodedMethod": {
                        "callParams": [
                            {
                                "name": "",
                                "type": "address",
                                "value": "0xc60ffd537301c63e9514d354f063c53bf96f4e0f"
                            }
                        ],
                        "constructorArguments": "",
                        "name": "proxies",
                        "returnParams": [
                            {
                                "name": "",
                                "type": "address",
                                "value": "0xf6d2354432a71ab70d6fe2932b3c02f3e0aa6260"
                            }
                        ],
                        "signature": "proxies(address)"
                    },
                    "errorInfo": "",
                    "fromAddress": "0x7be8076f4ea4a4ad08075c2508e481d6c946d12b",
                    "gasUsed": 2782,
                    "id": 2,
                    "methodDecoded": true,
                    "operation": "CALL",
                    "output": "0x000000000000000000000000f6d2354432a71ab70d6fe2932b3c02f3e0aa6260",
                    "revert": false,
                    "revertMessage": "",
                    "selector": "0xc4552791",
                    "status": true,
                    "value": "0"
                },
                "nodeType": 0
            },
            "3": {
                "invocation": {
                    "address": "0xa5409ec958c83c3f309868babaca7c86dcb077c1",
                    "callData": "0x",
                    "decodedMethod": {
                        "callParams": [],
                        "constructorArguments": "",
                        "name": "delegateProxyImplementation",
                        "returnParams": [
                            {
                                "name": "",
                                "type": "address",
                                "value": "0xf9e266af4bca5890e2781812cc6a6e89495a79f2"
                            }
                        ],
                        "signature": "delegateProxyImplementation()"
                    },
                    "errorInfo": "",
                    "fromAddress": "0x7be8076f4ea4a4ad08075c2508e481d6c946d12b",
                    "gasUsed": 2613,
                    "id": 3,
                    "methodDecoded": true,
                    "operation": "CALL",
                    "output": "0x000000000000000000000000f9e266af4bca5890e2781812cc6a6e89495a79f2",
                    "revert": false,
                    "revertMessage": "",
                    "selector": "0x97204d8e",
                    "status": true,
                    "value": "0"
                },
                "nodeType": 0
            },
            "4": {
                "invocation": {
                    "address": "0xf6d2354432a71ab70d6fe2932b3c02f3e0aa6260",
                    "callData": "0x",
                    "decodedMethod": {
                        "callParams": [],
                        "constructorArguments": "",
                        "name": "implementation",
                        "returnParams": [
                            {
                                "name": "",
                                "type": "address",
                                "value": "0xf9e266af4bca5890e2781812cc6a6e89495a79f2"
                            }
                        ],
                        "signature": "implementation()"
                    },
                    "errorInfo": "",
                    "fromAddress": "0x7be8076f4ea4a4ad08075c2508e481d6c946d12b",
                    "gasUsed": 2525,
                    "id": 4,
                    "methodDecoded": true,
                    "operation": "CALL",
                    "output": "0x000000000000000000000000f9e266af4bca5890e2781812cc6a6e89495a79f2",
                    "revert": false,
                    "revertMessage": "",
                    "selector": "0x5c60da1b",
                    "status": true,
                    "value": "0"
                },
                "nodeType": 0
            },
            "5": {
                "invocation": {
                    "address": "0x5b3256965e7c3cf26e11fcaf296dfc8807c01073",
                    "callData": "0x",
                    "decodedMethod": null,
                    "errorInfo": "",
                    "fromAddress": "0x7be8076f4ea4a4ad08075c2508e481d6c946d12b",
                    "gasUsed": 0,
                    "id": 5,
                    "methodDecoded": false,
                    "operation": "CALL",
                    "output": "",
                    "revert": false,
                    "revertMessage": "",
                    "selector": "fallback",
                    "status": true,
                    "value": "0.00125"
                },
                "nodeType": 0
            },
            "6": {
                "invocation": {
                    "address": "0xc60ffd537301c63e9514d354f063c53bf96f4e0f",
                    "callData": "0x",
                    "decodedMethod": null,
                    "errorInfo": "",
                    "fromAddress": "0x7be8076f4ea4a4ad08075c2508e481d6c946d12b",
                    "gasUsed": 0,
                    "id": 6,
                    "methodDecoded": false,
                    "operation": "CALL",
                    "output": "",
                    "revert": false,
                    "revertMessage": "",
                    "selector": "fallback",
                    "status": true,
                    "value": "0.02375"
                },
                "nodeType": 0
            },
            "7": {
                "invocation": {
                    "address": "0xf6d2354432a71ab70d6fe2932b3c02f3e0aa6260",
                    "callData": "0x000000000000000000000000495f947276749ce646f68ac8c248420045cb7b5e0000000000000000000000000000000000000000000000000000000000000000000000000000000000000000000000000000000000000000000000000000006000000000000000000000000000000000000000000000000000000000000000c4f242432a000000000000000000000000c60ffd537301c63e9514d354f063c53bf96f4e0f000000000000000000000000e88f4c421f93d4b0006f3821e51dac9c471db76ac60ffd537301c63e9514d354f063c53bf96f4e0f000000000001ed0000000001000000000000000000000000000000000000000000000000000000000000000100000000000000000000000000000000000000000000000000000000000000a0000000000000000000000000000000000000000000000000000000000000000000000000000000000000000000000000000000000000000000000000",
                    "decodedMethod": {
                        "callParams": [
                            {
                                "name": "dest",
                                "type": "address",
                                "value": "0x495f947276749ce646f68ac8c248420045cb7b5e"
                            },
                            {
                                "name": "howToCall",
                                "type": "uint8",
                                "value": "0"
                            },
                            {
                                "name": "calldata",
                                "type": "bytes",
                                "value": "0xf242432a000000000000000000000000c60ffd537301c63e9514d354f063c53bf96f4e0f000000000000000000000000e88f4c421f93d4b0006f3821e51dac9c471db76ac60ffd537301c63e9514d354f063c53bf96f4e0f000000000001ed0000000001000000000000000000000000000000000000000000000000000000000000000100000000000000000000000000000000000000000000000000000000000000a00000000000000000000000000000000000000000000000000000000000000000"
                            }
                        ],
                        "constructorArguments": "",
                        "name": "proxy",
                        "returnParams": [
                            {
                                "name": "result",
                                "type": "bool",
                                "value": true
                            }
                        ],
                        "signature": "proxy(address,uint8,bytes)"
                    },
                    "errorInfo": "",
                    "fromAddress": "0x7be8076f4ea4a4ad08075c2508e481d6c946d12b",
                    "gasUsed": 77889,
                    "id": 7,
                    "methodDecoded": true,
                    "operation": "CALL",
                    "output": "0x0000000000000000000000000000000000000000000000000000000000000001",
                    "revert": false,
                    "revertMessage": "",
                    "selector": "0x1b0f7ba9",
                    "status": true,
                    "value": "0"
                },
                "nodeType": 0
            },
            "8": {
                "invocation": {
                    "address": "0xf9e266af4bca5890e2781812cc6a6e89495a79f2",
                    "callData": "0x000000000000000000000000495f947276749ce646f68ac8c248420045cb7b5e0000000000000000000000000000000000000000000000000000000000000000000000000000000000000000000000000000000000000000000000000000006000000000000000000000000000000000000000000000000000000000000000c4f242432a000000000000000000000000c60ffd537301c63e9514d354f063c53bf96f4e0f000000000000000000000000e88f4c421f93d4b0006f3821e51dac9c471db76ac60ffd537301c63e9514d354f063c53bf96f4e0f000000000001ed0000000001000000000000000000000000000000000000000000000000000000000000000100000000000000000000000000000000000000000000000000000000000000a0000000000000000000000000000000000000000000000000000000000000000000000000000000000000000000000000000000000000000000000000",
                    "decodedMethod": {
                        "callParams": [
                            {
                                "name": "dest",
                                "type": "address",
                                "value": "0x495f947276749ce646f68ac8c248420045cb7b5e"
                            },
                            {
                                "name": "howToCall",
                                "type": "uint8",
                                "value": "0"
                            },
                            {
                                "name": "calldata",
                                "type": "bytes",
                                "value": "0xf242432a000000000000000000000000c60ffd537301c63e9514d354f063c53bf96f4e0f000000000000000000000000e88f4c421f93d4b0006f3821e51dac9c471db76ac60ffd537301c63e9514d354f063c53bf96f4e0f000000000001ed0000000001000000000000000000000000000000000000000000000000000000000000000100000000000000000000000000000000000000000000000000000000000000a00000000000000000000000000000000000000000000000000000000000000000"
                            }
                        ],
                        "constructorArguments": "",
                        "name": "proxy",
                        "returnParams": [
                            {
                                "name": "result",
                                "type": "bool",
                                "value": true
                            }
                        ],
                        "signature": "proxy(address,uint8,bytes)"
                    },
                    "errorInfo": "",
                    "fromAddress": "0xf6d2354432a71ab70d6fe2932b3c02f3e0aa6260",
                    "gasUsed": 74611,
                    "id": 8,
                    "methodDecoded": true,
                    "operation": "DELEGATECALL",
                    "output": "0x0000000000000000000000000000000000000000000000000000000000000001",
                    "revert": false,
                    "revertMessage": "",
                    "selector": "0x1b0f7ba9",
                    "status": true,
                    "value": "0"
                },
                "nodeType": 0
            },
            "9": {
                "invocation": {
                    "address": "0xa5409ec958c83c3f309868babaca7c86dcb077c1",
                    "callData": "0x0000000000000000000000007be8076f4ea4a4ad08075c2508e481d6c946d12b",
                    "decodedMethod": {
                        "callParams": [
                            {
                                "name": "",
                                "type": "address",
                                "value": "0x7be8076f4ea4a4ad08075c2508e481d6c946d12b"
                            }
                        ],
                        "constructorArguments": "",
                        "name": "contracts",
                        "returnParams": [
                            {
                                "name": "",
                                "type": "bool",
                                "value": true
                            }
                        ],
                        "signature": "contracts(address)"
                    },
                    "errorInfo": "",
                    "fromAddress": "0xf6d2354432a71ab70d6fe2932b3c02f3e0aa6260",
                    "gasUsed": 2553,
                    "id": 9,
                    "methodDecoded": true,
                    "operation": "CALL",
                    "output": "0x0000000000000000000000000000000000000000000000000000000000000001",
                    "revert": false,
                    "revertMessage": "",
                    "selector": "0x69dc9ff3",
                    "status": true,
                    "value": "0"
                },
                "nodeType": 0
            }
        },
        "gasFlame": [
            {
                "children": [
                    {
                        "children": [
                            {
                                "children": [],
                                "depth": 0,
                                "name": "Initial Gas",
                                "value": 39076
                            },
                            {
                                "children": [
                                    {
                                        "children": [],
                                        "depth": 1,
                                        "name": "ecrecover",
                                        "value": 3000
                                    },
                                    {
                                        "children": [],
                                        "depth": 1,
                                        "name": "proxies",
                                        "value": 2782
                                    },
                                    {
                                        "children": [],
                                        "depth": 1,
                                        "name": "delegateProxyImplementation",
                                        "value": 2613
                                    },
                                    {
                                        "children": [],
                                        "depth": 1,
                                        "name": "implementation",
                                        "value": 2525
                                    },
                                    {
                                        "children": [],
                                        "depth": 1,
                                        "name": "fallback",
                                        "value": 0
                                    },
                                    {
                                        "children": [],
                                        "depth": 1,
                                        "name": "fallback",
                                        "value": 0
                                    },
                                    {
                                        "children": [
                                            {
                                                "children": [
                                                    {
                                                        "children": [],
                                                        "depth": 3,
                                                        "name": "contracts",
                                                        "value": 2553
                                                    },
                                                    {
                                                        "children": [
                                                            {
                                                                "children": [],
                                                                "depth": 4,
                                                                "name": "proxies",
                                                                "value": 782
                                                            }
                                                        ],
                                                        "depth": 3,
                                                        "name": "safeTransferFrom",
                                                        "value": 65486
                                                    }
                                                ],
                                                "depth": 2,
                                                "name": "proxy",
                                                "value": 74611
                                            }
                                        ],
                                        "depth": 1,
                                        "name": "proxy",
                                        "value": 77889
                                    }
                                ],
                                "depth": 0,
                                "name": "Executed Gas",
                                "value": 185235
                            }
                        ],
                        "depth": -1,
                        "name": "Actual Gas Used",
                        "value": 218711
                    },
                    {
                        "children": [],
                        "depth": -1,
                        "name": "Refunded Gas",
                        "value": 5600
                    }
                ],
                "depth": -2,
                "name": "Total Gas",
                "value": 224311
            }
        ],
        "isConfirmed": true,
        "mainTrace": [
            {
                "children": [
                    {
                        "children": [
                            {
                                "children": [],
                                "depth": 1,
                                "id": 1,
                                "order": 1
                            },
                            {
                                "children": [],
                                "depth": 1,
                                "id": 2,
                                "order": 2
                            },
                            {
                                "children": [],
                                "depth": 1,
                                "id": 3,
                                "order": 3
                            },
                            {
                                "children": [],
                                "depth": 1,
                                "id": 4,
                                "order": 4
                            },
                            {
                                "children": [],
                                "depth": 1,
                                "id": 5,
                                "order": 5
                            },
                            {
                                "children": [],
                                "depth": 1,
                                "id": 6,
                                "order": 6
                            },
                            {
                                "children": [
                                    {
                                        "children": [
                                            {
                                                "children": [],
                                                "depth": 3,
                                                "id": 9,
                                                "order": 9
                                            },
                                            {
                                                "children": [
                                                    {
                                                        "children": [],
                                                        "depth": 4,
                                                        "id": 11,
                                                        "order": 11
                                                    },
                                                    {
                                                        "children": [],
                                                        "depth": 4,
                                                        "id": 12,
                                                        "order": 12
                                                    }
                                                ],
                                                "depth": 3,
                                                "id": 10,
                                                "order": 10
                                            }
                                        ],
                                        "depth": 2,
                                        "id": 8,
                                        "order": 8
                                    }
                                ],
                                "depth": 1,
                                "id": 7,
                                "order": 7
                            },
                            {
                                "children": [],
                                "depth": 1,
                                "id": 13,
                                "order": 13
                            }
                        ],
                        "depth": 0,
                        "id": 0,
                        "order": 0
                    }
                ],
                "depth": -1,
                "id": -1,
                "order": -1
            }
        ],
        "mainTraceNodeCount": 14,
        "parentIdMap": {
            "0": -1,
            "1": 0,
            "10": 8,
            "11": 10,
            "12": 10,
            "13": 0,
            "2": 0,
            "3": 0,
            "4": 0,
            "5": 0,
            "6": 0,
            "7": 0,
            "8": 7,
            "9": 8
        },
        "tidyTrace": [
            {
                "children": [
                    {
                        "children": [
                            {
                                "children": [],
                                "depth": 1,
                                "id": 1,
                                "order": 1
                            },
                            {
                                "children": [],
                                "depth": 1,
                                "id": 2,
                                "order": 2
                            },
                            {
                                "children": [],
                                "depth": 1,
                                "id": 3,
                                "order": 3
                            },
                            {
                                "children": [],
                                "depth": 1,
                                "id": 4,
                                "order": 4
                            },
                            {
                                "children": [],
                                "depth": 1,
                                "id": 5,
                                "order": 5
                            },
                            {
                                "children": [],
                                "depth": 1,
                                "id": 6,
                                "order": 6
                            },
                            {
                                "children": [
                                    {
                                        "children": [
                                            {
                                                "children": [],
                                                "depth": 3,
                                                "id": 9,
                                                "order": 9
                                            },
                                            {
                                                "children": [
                                                    {
                                                        "children": [],
                                                        "depth": 4,
                                                        "id": 12,
                                                        "order": 12
                                                    }
                                                ],
                                                "depth": 3,
                                                "id": 10,
                                                "order": 10
                                            }
                                        ],
                                        "depth": 2,
                                        "id": 8,
                                        "order": 8
                                    }
                                ],
                                "depth": 1,
                                "id": 7,
                                "order": 7
                            },
                            {
                                "children": [],
                                "depth": 1,
                                "id": 13,
                                "order": 13
                            }
                        ],
                        "depth": 0,
                        "id": 0,
                        "order": 0
                    }
                ],
                "depth": -1,
                "id": -1,
                "order": -1
            }
        ],
        "tidyTraceNodeCount": 13
    },
    "state_change": {
        "stateChanges": [
            {
                "address": "0x495f947276749ce646f68ac8c248420045cb7b5e",
                "erc": "",
                "slots": [
                    {
                        "current": "0x0000000000000000000000000000000000000000000000000000000000000001",
                        "key": "0xed08f58fb096ca3c4691fdf6dcaf7ba118e6a7415edcdeb6437ff308c48f1bc6",
                        "prev": "0x0000000000000000000000000000000000000000000000000000000000000000"
                    },
                    {
                        "current": "0x0000000000000000000000000000000000000000000000000000000000000001",
                        "key": "0x885931292beba4f07f26466783a75cae97186e9eec5f00a31dedd0227c0408bb",
                        "prev": "0x0000000000000000000000000000000000000000000000000000000000000000"
                    }
                ],
                "storageVariables": []
            },
            {
                "address": "0x7be8076f4ea4a4ad08075c2508e481d6c946d12b",
                "erc": "",
                "slots": [
                    {
                        "current": "0x0000000000000000000000000000000000000000000000000000000000000001",
                        "key": "0x755d069cd527b76d2d46da373ef0bc2a418edc065ffea4092db0e75334f56443",
                        "prev": "0x0000000000000000000000000000000000000000000000000000000000000000"
                    }
                ],
                "storageVariables": [
                    {
                        "name": "cancelledOrFinalized",
                        "type": "mapping(bytes32 => bool)",
                        "value": {
                            "pairs": [
                                {
                                    "key": "0x23399550730d07dfff1eed84874aa15dc40021d56fecbfafeed814998975dbbf",
                                    "value": {
                                        "current": "true",
                                        "prev": "false",
                                        "typeTag": 1
                                    }
                                }
                            ],
                            "typeTag": 4
                        }
                    }
                ]
            }
        ]
    }
}