{
    "balance_change": {
        "balanceChanges": [
            {
                "account": "0x69278bf88c9ba051b467360b7816febf6c7e0efd",
                "assets": [
                    {
                        "address": "0x2eb86e8fc520e0f6bb5d9af08f924fe70558ab89",
                        "amount": "555",
                        "iconUrl": "",
                        "isERC1155": false,
                        "isERC721": false,
                        "sign": false,
                        "value": ""
                    }
                ]
            },
            {
                "account": "0x271e01bf03350d38fcd6c39bd50119c989c2c510",
                "assets": [
                    {
                        "address": "0x2eb86e8fc520e0f6bb5d9af08f924fe70558ab89",
                        "amount": "555",
                        "iconUrl": "",
                        "isERC1155": false,
                        "isERC721": false,
                        "sign": true,
                        "value": ""
                    }
                ]
            }
        ]
    },
    "profile": {
        "basic_info": {
            "baseFee": "",
            "blockNumber": 5382894,
            "callData": "0xa9059cbb000000000000000000000000271e01bf03350d38fcd6c39bd50119c989c2c5100000000000000000000000000000000000000000000000000000000cec0ecb00",
            "debugEnable": true,
            "errorInfo": "",
            "eventCount": 1,
            "feeRecipient": "0xea674fdde714fd979de3edf0f56aa9716b898ec8",
            "formatValue": "0",
            "gasLimit": 37691,
            "gasPrice": "1",
            "gasUsed": 22691,
            "intTxnCount": 0,
            "internalRevert": false,
            "internalRevertMessage": "",
            "isContractCreation": false,
            "isFlashloan": false,
            "maxFee": "",
            "nonce": 1,
            "overwritedBlockNumber": -1,
            "priorityFee": "",
            "receiver": "0x2eb86e8fc520e0f6bb5d9af08f924fe70558ab89",
            "revertMessage": "",
            "sender": "0x69278bf88c9ba051b467360b7816febf6c7e0efd",
            "simulationEnable": true,
            "sourceTxnHash": "0x3d9acddce22e2c24fae99afb2b2e7e74c24dacc3d79742aace45d7e705b64283",
            "status": true,
            "timestamp": "2018-04-05T03:46:03Z",
            "transactionFee": "0.000022691",
            "txnHash": "0x3d9acddce22e2c24fae99afb2b2e7e74c24dacc3d79742aace45d7e705b64283",
            "txnIndex": 45,
            "type": 0,
            "value": "0"
        },
        "fund_flow": [
            {
                "amount": "555",
                "from": "0x69278bf88c9ba051b467360b7816febf6c7e0efd",
                "id": 1,
                "isERC1155": false,
                "isERC721": false,
                "isReverted": false,
                "order": 1,
                "to": "0x271e01bf03350d38fcd6c39bd50119c989c2c510",
                "token": "0x2eb86e8fc520e0f6bb5d9af08f924fe70558ab89"
            }
        ],
        "token_infos": [
            {
                "address": "0x2eb86e8fc520e0f6bb5d9af08f924fe70558ab89",
                "decimals": 8
            },
            {
                "address": "0xc02aaa39b223fe8d0a0e5c4f27ead9083c756cc2",
                "decimals": 18
            },
            {
                "address": "0xeeeeeeeeeeeeeeeeeeeeeeeeeeeeeeeeeeeeeeee",
                "decimals": 18
            }
        ]
    },
    "address_label": {
        "labels": [
            {
                "address": "0x0000000000000000000000000000000000000002",
                "label": "Precompiled"
            },
            {
                "address": "0x0000000000000000000000000000000000000003",
                "label": "Precompiled"
            },
            {
                "address": "0x0000000000000000000000000000000000000004",
                "label": "Precompiled"
            },
            {
                "address": "0xeeeeeeeeeeeeeeeeeeeeeeeeeeeeeeeeeeeeeeee",
                "label": "Ether"
            },
            {
                "address": "0x2eb86e8fc520e0f6bb5d9af08f924fe70558ab89",
                "label": "LGR"
            },
            {
                "address": "0x0000000000000000000000000000000000000001",
                "label": "Precompiled"
            }
        ]
    },
    "trace": {
        "accountLabels": null,
        "dataMap": {
            "-1": {
                "invocation": {
                    "address": "0x69278bf88c9ba051b467360b7816febf6c7e0efd",
                    "callData": "",
                    "decodedMethod": null,
                    "errorInfo": "",
                    "fromAddress": "",
                    "gasUsed": 0,
                    "id": -1,
                    "methodDecoded": false,
                    "operation": "",
                    "output": "",
                    "revert": false,
                    "revertMessage": "",
                    "selector": "",
                    "status": false,
                    "value": ""
                },
                "nodeType": 0
            },
            "0": {
                "invocation": {
                    "address": "0x2eb86e8fc520e0f6bb5d9af08f924fe70558ab89",
                    "callData": "0x000000000000000000000000271e01bf03350d38fcd6c39bd50119c989c2c5100000000000000000000000000000000000000000000000000000000cec0ecb00",
                    "decodedMethod": {
                        "callParams": [
                            {
                                "name": "_to",
                                "type": "address",
                                "value": "0x271e01bf03350d38fcd6c39bd50119c989c2c510"
                            },
                            {
                                "decimalAvailable": true,
                                "name": "_value",
                                "type": "uint256",
                                "value": "55,500,000,000"
                            }
                        ],
                        "constructorArguments": "",
                        "name": "transfer",
                        "returnParams": [],
                        "signature": "transfer(address,uint256)"
                    },
                    "errorInfo": "",
                    "fromAddress": "0x69278bf88c9ba051b467360b7816febf6c7e0efd",
                    "gasUsed": 22691,
                    "id": 0,
                    "methodDecoded": true,
                    "operation": "CALL",
                    "output": "",
                    "revert": false,
                    "revertMessage": "",
                    "selector": "0xa9059cbb",
                    "status": true,
                    "value": "0"
                },
                "nodeType": 0
            },
            "1": {
                "event": {
                    "contract": "0x2eb86e8fc520e0f6bb5d9af08f924fe70558ab89",
                    "decodedLog": {
                        "name": "Transfer",
                        "params": [
                            {
                                "name": "from",
                                "type": "address",
                                "value": "0x69278bf88c9ba051b467360b7816febf6c7e0efd"
                            },
                            {
                                "name": "to",
                                "type": "address",
                                "value": "0x271e01bf03350d38fcd6c39bd50119c989c2c510"
                            },
                            {
                                "decimalAvailable": true,
                                "name": "value",
                                "type": "uint256",
                                "value": "55,500,000,000"
                            }
                        ],
                        "signature": "Transfer(address,address,uint256)"
                    },
                    "id": 1,
                    "logData": "0x0000000000000000000000000000000000000000000000000000000cec0ecb00",
                    "logDecoded": true,
                    "operation": "EVENT",
                    "revert": false,
                    "status": true,
                    "topics": [
                        "0xddf252ad1be2c89b69c2b068fc378daa952ba7f163c4a11628f55a4df523b3ef",
                        "0x00000000000000000000000069278bf88c9ba051b467360b7816febf6c7e0efd",
                        "0x000000000000000000000000271e01bf03350d38fcd6c39bd50119c989c2c510"
                    ]
                },
                "nodeType": 1
            }
        },
        "gasFlame": [
            {
                "children": [
                    {
                        "children": [
                            {
                                "children": [],
                                "depth": 0,
                                "name": "Initial Gas",
                                "value": 23064
                            },
                            {
                                "children": [],
                                "depth": 0,
                                "name": "Executed Gas",
                                "value": 14627
                            }
                        ],
                        "depth": -1,
                        "name": "Actual Gas Used",
                        "value": 22691
                    },
                    {
                        "children": [],
                        "depth": -1,
                        "name": "Refunded Gas",
                        "value": 15000
                    }
                ],
                "depth": -2,
                "name": "Total Gas",
                "value": 37691
            }
        ],
        "isConfirmed": true,
        "mainTrace": [
            {
                "children": [
                    {
                        "children": [
                            {
                                "children": [],
                                "depth": 1,
                                "id": 1,
                                "order": 1
                            }
                        ],
                        "depth": 0,
                        "id": 0,
                        "order": 0
                    }
                ],
                "depth": -1,
                "id": -1,
                "order": -1
            }
        ],
        "mainTraceNodeCount": 2,
        "parentIdMap": {
            "0": -1,
            "1": 0
        },
        "tidyTrace": [
            {
                "children": [
                    {
                        "children": [
                            {
                                "children": [],
                                "depth": 1,
                                "id": 1,
                                "order": 1
                            }
                        ],
                        "depth": 0,
                        "id": 0,
                        "order": 0
                    }
                ],
                "depth": -1,
                "id": -1,
                "order": -1
            }
        ],
        "tidyTraceNodeCount": 2
    },
    "state_change": {
        "stateChanges": [
            {
                "address": "0x2eb86e8fc520e0f6bb5d9af08f924fe70558ab89",
                "erc": "",
                "slots": [
                    {
                        "current": "0x00000000000000000000000000000000000000000000000000002c055a36cf00",
                        "key": "0x945959ae7424240c1d43f9631dca9556bf05be27dec42f58e6628139305102ff",
                        "prev": "0x00000000000000000000000000000000000000000000000000002bf86e280400"
                    },
                    {
                        "current": "0x0000000000000000000000000000000000000000000000000000000000000000",
                        "key": "0x14985eae65870b52d98aaa7782e029a400ec78822c192ae944b9fd8c01890ffd",
                        "prev": "0x0000000000000000000000000000000000000000000000000000000cec0ecb00"
                    }
                ],
                "storageVariables": [
                    {
                        "name": "balanceOf",
                        "type": "mapping(address => uint256)",
                        "value": {
                            "pairs": [
                                {
                                    "key": "0x271e01bf03350d38fcd6c39bd50119c989c2c510",
                                    "value": {
                                        "current": "48401500000000",
                                        "prev": "48346000000000",
                                        "typeTag": 1
                                    }
                                },
                                {
                                    "key": "0x69278bf88c9ba051b467360b7816febf6c7e0efd",
                                    "value": {
                                        "current": "0",
                                        "prev": "55500000000",
                                        "typeTag": 1
                                    }
                                }
                            ],
                            "typeTag": 4
                        }
                    }
                ]
            }
        ]
    }
}