{
    "balance_change": {
        "balanceChanges": [
            {
                "account": "0x5ca6b77e6ef4e4b9bc14959b11503ca14c7649c3",
                "assets": [
                    {
                        "address": "0x7d1afa7b718fb893db30a3abc0cfc608aacfebb0",
                        "amount": "502.75230424",
                        "iconUrl": "https://assets.blocksec.com/icon/5dc5187d80083e1e6ca5ca29581f660fdc3ebdf47eef117c3dfa3a0c07ab7d33.png",
                        "isERC1155": false,
                        "isERC721": false,
                        "sign": false,
                        "value": "1173.509959"
                    }
                ]
            },
            {
                "account": "0x4f6742badb049791cd9a37ea913f2bac38d01279",
                "assets": [
                    {
                        "address": "0x7d1afa7b718fb893db30a3abc0cfc608aacfebb0",
                        "amount": "502.75230424",
                        "iconUrl": "https://assets.blocksec.com/icon/5dc5187d80083e1e6ca5ca29581f660fdc3ebdf47eef117c3dfa3a0c07ab7d33.png",
                        "isERC1155": false,
                        "isERC721": false,
                        "sign": true,
                        "value": "1173.509959"
                    }
                ]
            }
        ]
    },
    "profile": {
        "basic_info": {
            "baseFee": "123.943142294",
            "blockNumber": 13986659,
            "callData": "0xa9059cbb0000000000000000000000004f6742badb049791cd9a37ea913f2bac38d0127900000000000000000000000000000000000000000000001b4116fd02aa506000",
            "debugEnable": true,
            "errorInfo": "",
            "eventCount": 1,
            "feeRecipient": "0x7f101fe45e6649a6fb8f3f8b43ed03d353f2b90c",
            "formatValue": "0",
            "gasLimit": 44313,
            "gasPrice": "160.6",
            "gasUsed": 32128,
            "intTxnCount": 0,
            "internalRevert": false,
            "internalRevertMessage": "",
            "isContractCreation": false,
            "isFlashloan": false,
            "maxFee": "160.6",
            "nonce": 4,
            "overwritedBlockNumber": -1,
            "priorityFee": "160.6",
            "receiver": "0x7d1afa7b718fb893db30a3abc0cfc608aacfebb0",
            "revertMessage": "",
            "sender": "0x5ca6b77e6ef4e4b9bc14959b11503ca14c7649c3",
            "simulationEnable": true,
            "sourceTxnHash": "0x3dde9ab5cfff564519192de934f0093337f6e0c941186fcae87561db89e59108",
            "status": true,
            "timestamp": "2022-01-11T21:24:32Z",
            "transactionFee": "0.0051597568",
            "txnHash": "0x3dde9ab5cfff564519192de934f0093337f6e0c941186fcae87561db89e59108",
            "txnIndex": 53,
            "type": 2,
            "value": "0"
        },
        "fund_flow": [
            {
                "amount": "502.75230424",
                "from": "0x5ca6b77e6ef4e4b9bc14959b11503ca14c7649c3",
                "id": 1,
                "isERC1155": false,
                "isERC721": false,
                "isReverted": false,
                "order": 1,
                "to": "0x4f6742badb049791cd9a37ea913f2bac38d01279",
                "token": "0x7d1afa7b718fb893db30a3abc0cfc608aacfebb0"
            }
        ],
        "token_infos": [
            {
                "address": "0x7d1afa7b718fb893db30a3abc0cfc608aacfebb0",
                "decimals": 18
            },
            {
                "address": "0xc02aaa39b223fe8d0a0e5c4f27ead9083c756cc2",
                "decimals": 18
            },
            {
                "address": "0xeeeeeeeeeeeeeeeeeeeeeeeeeeeeeeeeeeeeeeee",
                "decimals": 18
            }
        ]
    },
    "address_label": {
        "labels": [
            {
                "address": "0x7d1afa7b718fb893db30a3abc0cfc608aacfebb0",
                "label": "Polygon (Matic): Old Matic Token"
            },
            {
                "address": "0x0000000000000000000000000000000000000001",
                "label": "Precompiled"
            },
            {
                "address": "0x0000000000000000000000000000000000000002",
                "label": "Precompiled"
            },
            {
                "address": "0x0000000000000000000000000000000000000003",
                "label": "Precompiled"
            },
            {
                "address": "0x0000000000000000000000000000000000000004",
                "label": "Precompiled"
            },
            {
                "address": "0xeeeeeeeeeeeeeeeeeeeeeeeeeeeeeeeeeeeeeeee",
                "label": "Ether"
            },
            {
                "address": "0x4f6742badb049791cd9a37ea913f2bac38d01279",
                "label": "Celsius Network: Wallet 5"
            }
        ]
    },
    "trace": {
        "accountLabels": null,
        "dataMap": {
            "-1": {
                "invocation": {
                    "address": "0x5ca6b77e6ef4e4b9bc14959b11503ca14c7649c3",
                    "callData": "",
                    "decodedMethod": null,
                    "errorInfo": "",
                    "fromAddress": "",
                    "gasUsed": 0,
                    "id": -1,
                    "methodDecoded": false,
                    "operation": "",
                    "output": "",
                    "revert": false,
                    "revertMessage": "",
                    "selector": "",
                    "status": false,
                    "value": ""
                },
                "nodeType": 0
            },
            "0": {
                "invocation": {
                    "address": "0x7d1afa7b718fb893db30a3abc0cfc608aacfebb0",
                    "callData": "0x0000000000000000000000004f6742badb049791cd9a37ea913f2bac38d0127900000000000000000000000000000000000000000000001b4116fd02aa506000",
                    "decodedMethod": {
                        "callParams": [
                            {
                                "name": "to",
                                "type": "address",
                                "value": "0x4f6742badb049791cd9a37ea913f2bac38d01279"
                            },
                            {
                                "decimalAvailable": true,
                                "name": "value",
                                "type": "uint256",
                                "value": "502,752,304,240,000,000,000"
                            }
                        ],
                        "constructorArguments": "",
                        "name": "transfer",
                        "returnParams": [
                            {
                                "name": "",
                                "type": "bool",
                                "value": true
                            }
                        ],
                        "signature": "transfer(address,uint256)"
                    },
                    "errorInfo": "",
                    "fromAddress": "0x5ca6b77e6ef4e4b9bc14959b11503ca14c7649c3",
                    "gasUsed": 32128,
                    "id": 0,
                    "methodDecoded": true,
                    "operation": "CALL",
                    "output": "0x0000000000000000000000000000000000000000000000000000000000000001",
                    "revert": false,
                    "revertMessage": "",
                    "selector": "0xa9059cbb",
                    "status": true,
                    "value": "0"
                },
                "nodeType": 0
            },
            "1": {
                "event": {
                    "contract": "0x7d1afa7b718fb893db30a3abc0cfc608aacfebb0",
                    "decodedLog": {
                        "name": "Transfer",
                        "params": [
                            {
                                "name": "from",
                                "type": "address",
                                "value": "0x5ca6b77e6ef4e4b9bc14959b11503ca14c7649c3"
                            },
                            {
                                "name": "to",
                                "type": "address",
                                "value": "0x4f6742badb049791cd9a37ea913f2bac38d01279"
                            },
                            {
                                "decimalAvailable": true,
                                "name": "value",
                                "type": "uint256",
                                "value": "502,752,304,240,000,000,000"
                            }
                        ],
                        "signature": "Transfer(address,address,uint256)"
                    },
                    "id": 1,
                    "logData": "0x00000000000000000000000000000000000000000000001b4116fd02aa506000",
                    "logDecoded": true,
                    "operation": "EVENT",
                    "revert": false,
                    "status": true,
                    "topics": [
                        "0xddf252ad1be2c89b69c2b068fc378daa952ba7f163c4a11628f55a4df523b3ef",
                        "0x0000000000000000000000005ca6b77e6ef4e4b9bc14959b11503ca14c7649c3",
                        "0x0000000000000000000000004f6742badb049791cd9a37ea913f2bac38d01279"
                    ]
                },
                "nodeType": 1
            }
        },
        "gasFlame": [
            {
                "children": [
                    {
                        "children": [
                            {
                                "children": [],
                                "depth": 0,
                                "name": "Initial Gas",
                                "value": 21656
                            },
                            {
                                "children": [],
                                "depth": 0,
                                "name": "Executed Gas",
                                "value": 15272
                            }
                        ],
                        "depth": -1,
                        "name": "Actual Gas Used",
                        "value": 32128
                    },
                    {
                        "children": [],
                        "depth": -1,
                        "name": "Refunded Gas",
                        "value": 4800
                    }
                ],
                "depth": -2,
                "name": "Total Gas",
                "value": 36928
            }
        ],
        "isConfirmed": true,
        "mainTrace": [
            {
                "children": [
                    {
                        "children": [
                            {
                                "children": [],
                                "depth": 1,
                                "id": 1,
                                "order": 1
                            }
                        ],
                        "depth": 0,
                        "id": 0,
                        "order": 0
                    }
                ],
                "depth": -1,
                "id": -1,
                "order": -1
            }
        ],
        "mainTraceNodeCount": 2,
        "parentIdMap": {
            "0": -1,
            "1": 0
        },
        "tidyTrace": [
            {
                "children": [
                    {
                        "children": [
                            {
                                "children": [],
                                "depth": 1,
                                "id": 1,
                                "order": 1
                            }
                        ],
                        "depth": 0,
                        "id": 0,
                        "order": 0
                    }
                ],
                "depth": -1,
                "id": -1,
                "order": -1
            }
        ],
        "tidyTraceNodeCount": 2
    },
    "state_change": {
        "stateChanges": [
            {
                "address": "0x7d1afa7b718fb893db30a3abc0cfc608aacfebb0",
                "erc": "ERC-20",
                "slots": [
                    {
                        "current": "0x0000000000000000000000000000000000000000000451e3e4f7b5fbf52213f2",
                        "key": "0x35de398a8bf6fa3f0424a3448d2a8df5b0944cdafcb2ad248413aef48f37d961",
                        "prev": "0x0000000000000000000000000000000000000000000451c8a3e0b8f94ad1b3f2"
                    },
                    {
                        "current": "0x0000000000000000000000000000000000000000000000000000000000000000",
                        "key": "0xf035b6103c95c18dc5f21df2522794e78d583cc3ec3e92196cecd19a14d84435",
                        "prev": "0x00000000000000000000000000000000000000000000001b4116fd02aa506000"
                    }
                ],
                "storageVariables": [
                    {
                        "name": "_balances",
                        "type": "mapping(address => uint256)",
                        "value": {
                            "pairs": [
                                {
                                    "key": "0x4f6742badb049791cd9a37ea913f2bac38d01279",
                                    "value": {
                                        "current": "5222418873331543678522354",
                                        "prev": "5221916121027303678522354",
                                        "typeTag": 1
                                    }
                                },
                                {
                                    "key": "0x5ca6b77e6ef4e4b9bc14959b11503ca14c7649c3",
                                    "value": {
                                        "current": "0",
                                        "prev": "502752304240000000000",
                                        "typeTag": 1
                                    }
                                }
                            ],
                            "typeTag": 4
                        }
                    }
                ]
            }
        ]
    }
}