{
    "balance_change": {
        "balanceChanges": []
    },
    "profile": {
        "basic_info": {
            "baseFee": "10.93035301",
            "blockNumber": 18101624,
            "callData": "0x5578ceae000000000000000000000000000000000000000000000000000000000049132e00000000000000000000000000000000000000000000000000000000000000a00505c1ebda05df803d82a45a3dee92273390410e352d5145d064f95a3d59574104f3cf1856cb8a8ee4505b0a9c3f4938c5c1d9301bf0259fc98b120f8937b67808000000000000110000000000000000000000000000000000000000000000010000000000000000000000000000000000000000000000000000000000000066034d61e7fa0e33d13d89ccd1e8a0660de7c0dd9bf4ed57076f2f94fe289c07b000f3d0aa6a5e602a05578f4e3f89a05f9970839398e73eebaab17bf580313d9e000000000000000000000000000000000000000000000000000000000003303d00dcaac133c3e8d183bf9adee8fb06494de8017cd9094279ec783358c9a18dc1017c0bc29d31e9a7d14671610a7626264ce9ce8e3ed066a4775adf9b123de9dd000000000000000000000000000000000000000000000000000000000000000707c76a71952ce3acd1f953fd2a3fda8564408b821ff367041c89f44526076633000000000000000000000000023a2aac5d0fa69e3243994672822ba43e34e5c900000000000000000000000000000000000000000000000000000000000000040000000000000000000000000000000000000000000000000000000000000001000000000000000000000000676b077bdf1981d6caec1b8519be708e6d92ab94000000000000000000000000000000000000000000000000016345785d8a000000000000000000000000000000000000000000000000000000000000000000000000000000000000000000000000000000000000000000000000000000000058000000000000000000000000ae0ee0a63a2ce6baeeffe56e7714fb4efe48d419073314940630fd6dcda0d772d4c972c4e0a9946bef9dabf4ef84eda8ef542b82000000000000000000000000000000000000000000000000000000000011915a02d757788a8d8d6f21d1cd40bce38a8222d70654214e96ff95d8086e684fbee50000000000000000000000000000000000000000000000000000000000000003048f6b516d2ee78aa3d28a93c590eeaafa87192d730b74315ad92cf93500e53400000000000000000000000000000000000000000000000008be35a9807f00000000000000000000000000000000000000000000000000000000000000000000000000000000000000000000ae0ee0a63a2ce6baeeffe56e7714fb4efe48d419073314940630fd6dcda0d772d4c972c4e0a9946bef9dabf4ef84eda8ef542b82000000000000000000000000000000000000000000000000000000000011915b02d757788a8d8d6f21d1cd40bce38a8222d70654214e96ff95d8086e684fbee5000000000000000000000000000000000000000000000000000000000000000305f3763efc0f88733e1a3da83e51caeddf28229b4bc557ac0ed92c8e9688aac40000000000000000000000000000000000000000000000000017cd9d4ffec0000000000000000000000000000000000000000000000000000000000000000000000000000000000000000000ae0ee0a63a2ce6baeeffe56e7714fb4efe48d419073314940630fd6dcda0d772d4c972c4e0a9946bef9dabf4ef84eda8ef542b82000000000000000000000000000000000000000000000000000000000011915c02d757788a8d8d6f21d1cd40bce38a8222d70654214e96ff95d8086e684fbee5000000000000000000000000000000000000000000000000000000000000000300cccc8ea1f8329d445e76ca998c1a638d51b013fe7aca12ce7e42c7a77c0da5000000000000000000000000000000000000000000000000001ff973cafa80000000000000000000000000000000000000000000000000000000000000000000000000000000000000000000ae0ee0a63a2ce6baeeffe56e7714fb4efe48d419073314940630fd6dcda0d772d4c972c4e0a9946bef9dabf4ef84eda8ef542b82000000000000000000000000000000000000000000000000000000000011915d02d757788a8d8d6f21d1cd40bce38a8222d70654214e96ff95d8086e684fbee5000000000000000000000000000000000000000000000000000000000000000305b0cfdfcf6ea28cd59d0dec3b213323242b83f2ffdb6b594237a82948291cc10000000000000000000000000000000000000000000000000058d15e176280000000000000000000000000000000000000000000000000000000000000000000000000000000000000000000ae0ee0a63a2ce6baeeffe56e7714fb4efe48d419073314940630fd6dcda0d772d4c972c4e0a9946bef9dabf4ef84eda8ef542b82000000000000000000000000000000000000000000000000000000000011915f02d757788a8d8d6f21d1cd40bce38a8222d70654214e96ff95d8086e684fbee5000000000000000000000000000000000000000000000000000000000000000300039adb33823f472f4a53f37bf823eadfaaeca74f85ae9c18f1000b72b5bf100000000000000000000000000000000000000000000000000ee08251ff3800000000000000000000000000000000000000000000000000000000000000000000000000000000000000000000ae0ee0a63a2ce6baeeffe56e7714fb4efe48d419073314940630fd6dcda0d772d4c972c4e0a9946bef9dabf4ef84eda8ef542b82000000000000000000000000000000000000000000000000000000000011915e02d757788a8d8d6f21d1cd40bce38a8222d70654214e96ff95d8086e684fbee50000000000000000000000000000000000000000000000000000000000000003078006094e98b119fbdef5150a54d93dd6799e7e08e67215d6606ea96739b2dc000000000000000000000000000000000000000000000000001b5b1bf4c540000000000000000000000000000000000000000000000000000000000000000000000000000000000000000000ae0ee0a63a2ce6baeeffe56e7714fb4efe48d419073314940630fd6dcda0d772d4c972c4e0a9946bef9dabf4ef84eda8ef542b82000000000000000000000000000000000000000000000000000000000011916002d757788a8d8d6f21d1cd40bce38a8222d70654214e96ff95d8086e684fbee500000000000000000000000000000000000000000000000000000000000000030561506b5dc48bf1d4681f95b0098ab2eb49b12579e824d249c03db7194ebe7d00000000000000000000000000000000000000000000000000883a07552020000000000000000000000000000000000000000000000000000000000000000000000000000000000000000000ae0ee0a63a2ce6baeeffe56e7714fb4efe48d419073314940630fd6dcda0d772d4c972c4e0a9946bef9dabf4ef84eda8ef542b82000000000000000000000000000000000000000000000000000000000011916202d757788a8d8d6f21d1cd40bce38a8222d70654214e96ff95d8086e684fbee500000000000000000000000000000000000000000000000000000000000000030051c6805a61e4b689d2df9b0506a78c89725ad9e3ef9b45e04d4389ee7472bc000000000000000000000000000000000000000000000000001bb60f053f80000000000000000000000000000000000000000000000000000000000000000000000000000000000000000000ae0ee0a63a2ce6baeeffe56e7714fb4efe48d419073314940630fd6dcda0d772d4c972c4e0a9946bef9dabf4ef84eda8ef542b82000000000000000000000000000000000000000000000000000000000011916302d757788a8d8d6f21d1cd40bce38a8222d70654214e96ff95d8086e684fbee50000000000000000000000000000000000000000000000000000000000000003055ad67b89d9e507e4b8f860a7e4933da225d9bb6f8f60e4d435ed0b84dadb4d0000000000000000000000000000000000000000000000000f2a559ec5a6c0000000000000000000000000000000000000000000000000000000000000000000000000000000000000000000ae0ee0a63a2ce6baeeffe56e7714fb4efe48d419073314940630fd6dcda0d772d4c972c4e0a9946bef9dabf4ef84eda8ef542b82000000000000000000000000000000000000000000000000000000000011916102d757788a8d8d6f21d1cd40bce38a8222d70654214e96ff95d8086e684fbee50000000000000000000000000000000000000000000000000000000000000003029d56b67c6092db79d95648f15680e9ee55ef2a3434328d0dd97b0a8be4fc14000000000000000000000000000000000000000000000000001bb60f053f80000000000000000000000000000000000000000000000000000000000000000000000000000000000000000000ae0ee0a63a2ce6baeeffe56e7714fb4efe48d419073314940630fd6dcda0d772d4c972c4e0a9946bef9dabf4ef84eda8ef542b82000000000000000000000000000000000000000000000000000000000011916402d757788a8d8d6f21d1cd40bce38a8222d70654214e96ff95d8086e684fbee50000000000000000000000000000000000000000000000000000000000000003006c8d2d3bbb412a992e35faed04ad98984ae214dc1cbd8547dcd1fabd1f93f3000000000000000000000000000000000000000000000000027f7d0bdb9200000000000000000000000000000000000000000000000000000000000000000000",
            "debugEnable": true,
            "errorInfo": "",
            "eventCount": 1,
            "feeRecipient": "0x4838b106fce9647bdf1e7877bf73ce8b0bad5f97",
            "formatValue": "0",
            "gasLimit": 11000000,
            "gasPrice": "11.93035301",
            "gasUsed": 90513,
            "intTxnCount": 0,
            "internalRevert": false,
            "internalRevertMessage": "",
            "isContractCreation": false,
            "isFlashloan": false,
            "maxFee": "150",
            "nonce": 427477,
            "overwritedBlockNumber": -1,
            "priorityFee": "1",
            "receiver": "0xfd14567eaf9ba941cb8c8a94eec14831ca7fd1b4",
            "revertMessage": "",
            "sender": "0x16d5783a96ab20c9157d7933ac236646b29589a4",
            "simulationEnable": true,
            "sourceTxnHash": "0x3d8372bf66245398d35bb7ac13cbd62d9c63f4e5b81a24051b873e6885add08c",
            "status": true,
            "timestamp": "2023-09-09T21:50:23Z",
            "transactionFee": "0.00107985204199413",
            "txnHash": "0x3d8372bf66245398d35bb7ac13cbd62d9c63f4e5b81a24051b873e6885add08c",
            "txnIndex": 37,
            "type": 2,
            "value": "0"
        },
        "fund_flow": [],
        "token_infos": [
            {
                "address": "0xc02aaa39b223fe8d0a0e5c4f27ead9083c756cc2",
                "decimals": 18
            },
            {
                "address": "0xeeeeeeeeeeeeeeeeeeeeeeeeeeeeeeeeeeeeeeee",
                "decimals": 18
            }
        ]
    },
    "address_label": {
        "labels": [
            {
                "address": "0xeeeeeeeeeeeeeeeeeeeeeeeeeeeeeeeeeeeeeeee",
                "label": "Ether"
            },
            {
                "address": "0x16d5783a96ab20c9157d7933ac236646b29589a4",
                "label": "SHARP Blockchain Writer"
            },
            {
                "address": "0xfd14567eaf9ba941cb8c8a94eec14831ca7fd1b4",
                "label": "StarkEx: SHARP"
            },
            {
                "address": "0x0000000000000000000000000000000000000001",
                "label": "Precompiled"
            },
            {
                "address": "0x0000000000000000000000000000000000000002",
                "label": "Precompiled"
            },
            {
                "address": "0x0000000000000000000000000000000000000003",
                "label": "Precompiled"
            },
            {
                "address": "0x0000000000000000000000000000000000000004",
                "label": "Precompiled"
            }
        ]
    },
    "trace": {
        "accountLabels": null,
        "dataMap": {
            "-1": {
                "invocation": {
                    "address": "0x16d5783a96ab20c9157d7933ac236646b29589a4",
                    "callData": "",
                    "decodedMethod": null,
                    "errorInfo": "",
                    "fromAddress": "",
                    "gasUsed": 0,
                    "id": -1,
                    "methodDecoded": false,
                    "operation": "",
                    "output": "",
                    "revert": false,
                    "revertMessage": "",
                    "selector": "",
                    "status": false,
                    "value": ""
                },
                "nodeType": 0
            },
            "0": {
                "invocation": {
                    "address": "0xfd14567eaf9ba941cb8c8a94eec14831ca7fd1b4",
                    "callData": "0x000000000000000000000000000000000000000000000000000000000049132e00000000000000000000000000000000000000000000000000000000000000a00505c1ebda05df803d82a45a3dee92273390410e352d5145d064f95a3d59574104f3cf1856cb8a8ee4505b0a9c3f4938c5c1d9301bf0259fc98b120f8937b67808000000000000110000000000000000000000000000000000000000000000010000000000000000000000000000000000000000000000000000000000000066034d61e7fa0e33d13d89ccd1e8a0660de7c0dd9bf4ed57076f2f94fe289c07b000f3d0aa6a5e602a05578f4e3f89a05f9970839398e73eebaab17bf580313d9e000000000000000000000000000000000000000000000000000000000003303d00dcaac133c3e8d183bf9adee8fb06494de8017cd9094279ec783358c9a18dc1017c0bc29d31e9a7d14671610a7626264ce9ce8e3ed066a4775adf9b123de9dd000000000000000000000000000000000000000000000000000000000000000707c76a71952ce3acd1f953fd2a3fda8564408b821ff367041c89f44526076633000000000000000000000000023a2aac5d0fa69e3243994672822ba43e34e5c900000000000000000000000000000000000000000000000000000000000000040000000000000000000000000000000000000000000000000000000000000001000000000000000000000000676b077bdf1981d6caec1b8519be708e6d92ab94000000000000000000000000000000000000000000000000016345785d8a000000000000000000000000000000000000000000000000000000000000000000000000000000000000000000000000000000000000000000000000000000000058000000000000000000000000ae0ee0a63a2ce6baeeffe56e7714fb4efe48d419073314940630fd6dcda0d772d4c972c4e0a9946bef9dabf4ef84eda8ef542b82000000000000000000000000000000000000000000000000000000000011915a02d757788a8d8d6f21d1cd40bce38a8222d70654214e96ff95d8086e684fbee50000000000000000000000000000000000000000000000000000000000000003048f6b516d2ee78aa3d28a93c590eeaafa87192d730b74315ad92cf93500e53400000000000000000000000000000000000000000000000008be35a9807f00000000000000000000000000000000000000000000000000000000000000000000000000000000000000000000ae0ee0a63a2ce6baeeffe56e7714fb4efe48d419073314940630fd6dcda0d772d4c972c4e0a9946bef9dabf4ef84eda8ef542b82000000000000000000000000000000000000000000000000000000000011915b02d757788a8d8d6f21d1cd40bce38a8222d70654214e96ff95d8086e684fbee5000000000000000000000000000000000000000000000000000000000000000305f3763efc0f88733e1a3da83e51caeddf28229b4bc557ac0ed92c8e9688aac40000000000000000000000000000000000000000000000000017cd9d4ffec0000000000000000000000000000000000000000000000000000000000000000000000000000000000000000000ae0ee0a63a2ce6baeeffe56e7714fb4efe48d419073314940630fd6dcda0d772d4c972c4e0a9946bef9dabf4ef84eda8ef542b82000000000000000000000000000000000000000000000000000000000011915c02d757788a8d8d6f21d1cd40bce38a8222d70654214e96ff95d8086e684fbee5000000000000000000000000000000000000000000000000000000000000000300cccc8ea1f8329d445e76ca998c1a638d51b013fe7aca12ce7e42c7a77c0da5000000000000000000000000000000000000000000000000001ff973cafa80000000000000000000000000000000000000000000000000000000000000000000000000000000000000000000ae0ee0a63a2ce6baeeffe56e7714fb4efe48d419073314940630fd6dcda0d772d4c972c4e0a9946bef9dabf4ef84eda8ef542b82000000000000000000000000000000000000000000000000000000000011915d02d757788a8d8d6f21d1cd40bce38a8222d70654214e96ff95d8086e684fbee5000000000000000000000000000000000000000000000000000000000000000305b0cfdfcf6ea28cd59d0dec3b213323242b83f2ffdb6b594237a82948291cc10000000000000000000000000000000000000000000000000058d15e176280000000000000000000000000000000000000000000000000000000000000000000000000000000000000000000ae0ee0a63a2ce6baeeffe56e7714fb4efe48d419073314940630fd6dcda0d772d4c972c4e0a9946bef9dabf4ef84eda8ef542b82000000000000000000000000000000000000000000000000000000000011915f02d757788a8d8d6f21d1cd40bce38a8222d70654214e96ff95d8086e684fbee5000000000000000000000000000000000000000000000000000000000000000300039adb33823f472f4a53f37bf823eadfaaeca74f85ae9c18f1000b72b5bf100000000000000000000000000000000000000000000000000ee08251ff3800000000000000000000000000000000000000000000000000000000000000000000000000000000000000000000ae0ee0a63a2ce6baeeffe56e7714fb4efe48d419073314940630fd6dcda0d772d4c972c4e0a9946bef9dabf4ef84eda8ef542b82000000000000000000000000000000000000000000000000000000000011915e02d757788a8d8d6f21d1cd40bce38a8222d70654214e96ff95d8086e684fbee50000000000000000000000000000000000000000000000000000000000000003078006094e98b119fbdef5150a54d93dd6799e7e08e67215d6606ea96739b2dc000000000000000000000000000000000000000000000000001b5b1bf4c540000000000000000000000000000000000000000000000000000000000000000000000000000000000000000000ae0ee0a63a2ce6baeeffe56e7714fb4efe48d419073314940630fd6dcda0d772d4c972c4e0a9946bef9dabf4ef84eda8ef542b82000000000000000000000000000000000000000000000000000000000011916002d757788a8d8d6f21d1cd40bce38a8222d70654214e96ff95d8086e684fbee500000000000000000000000000000000000000000000000000000000000000030561506b5dc48bf1d4681f95b0098ab2eb49b12579e824d249c03db7194ebe7d00000000000000000000000000000000000000000000000000883a07552020000000000000000000000000000000000000000000000000000000000000000000000000000000000000000000ae0ee0a63a2ce6baeeffe56e7714fb4efe48d419073314940630fd6dcda0d772d4c972c4e0a9946bef9dabf4ef84eda8ef542b82000000000000000000000000000000000000000000000000000000000011916202d757788a8d8d6f21d1cd40bce38a8222d70654214e96ff95d8086e684fbee500000000000000000000000000000000000000000000000000000000000000030051c6805a61e4b689d2df9b0506a78c89725ad9e3ef9b45e04d4389ee7472bc000000000000000000000000000000000000000000000000001bb60f053f80000000000000000000000000000000000000000000000000000000000000000000000000000000000000000000ae0ee0a63a2ce6baeeffe56e7714fb4efe48d419073314940630fd6dcda0d772d4c972c4e0a9946bef9dabf4ef84eda8ef542b82000000000000000000000000000000000000000000000000000000000011916302d757788a8d8d6f21d1cd40bce38a8222d70654214e96ff95d8086e684fbee50000000000000000000000000000000000000000000000000000000000000003055ad67b89d9e507e4b8f860a7e4933da225d9bb6f8f60e4d435ed0b84dadb4d0000000000000000000000000000000000000000000000000f2a559ec5a6c0000000000000000000000000000000000000000000000000000000000000000000000000000000000000000000ae0ee0a63a2ce6baeeffe56e7714fb4efe48d419073314940630fd6dcda0d772d4c972c4e0a9946bef9dabf4ef84eda8ef542b82000000000000000000000000000000000000000000000000000000000011916102d757788a8d8d6f21d1cd40bce38a8222d70654214e96ff95d8086e684fbee50000000000000000000000000000000000000000000000000000000000000003029d56b67c6092db79d95648f15680e9ee55ef2a3434328d0dd97b0a8be4fc14000000000000000000000000000000000000000000000000001bb60f053f80000000000000000000000000000000000000000000000000000000000000000000000000000000000000000000ae0ee0a63a2ce6baeeffe56e7714fb4efe48d419073314940630fd6dcda0d772d4c972c4e0a9946bef9dabf4ef84eda8ef542b82000000000000000000000000000000000000000000000000000000000011916402d757788a8d8d6f21d1cd40bce38a8222d70654214e96ff95d8086e684fbee50000000000000000000000000000000000000000000000000000000000000003006c8d2d3bbb412a992e35faed04ad98984ae214dc1cbd8547dcd1fabd1f93f3000000000000000000000000000000000000000000000000027f7d0bdb9200000000000000000000000000000000000000000000000000000000000000000000",
                    "decodedMethod": {
                        "callParams": [
                            {
                                "name": "startAddr",
                                "type": "uint256",
                                "value": "4,789,038"
                            },
                            {
                                "name": "values",
                                "type": "uint256[]",
                                "value": [
                                    "1,493,661,493,214,969,005,336,415,200,671,458,452,268,989,697,156,229,470,165,659,307,939,414,673,328",
                                    "430,783,994,374,140,048,750,910,901,353,976,525,691,666,133,255,735,486,900,234,499,874,809,265,566",
                                    "208,957",
                                    "389,884,859,851,425,055,462,488,590,301,007,608,836,647,413,688,028,133,235,092,043,988,591,545,793",
                                    "671,483,050,609,816,861,429,812,414,688,707,376,174,032,882,875,357,307,847,551,691,140,236,175,837",
                                    "7",
                                    "3,518,527,153,270,494,256,475,755,541,726,550,738,597,926,965,391,766,941,271,488,561,627,919,771,187",
                                    "12,715,142,131,438,166,996,925,287,687,735,483,027,063,891,401",
                                    "4",
                                    "1",
                                    "590,412,881,068,381,185,199,282,341,533,561,573,276,501,846,932",
                                    "100,000,000,000,000,000",
                                    "0",
                                    "88",
                                    "993,696,174,272,377,493,693,496,825,928,908,586,134,624,850,969",
                                    "3,256,441,166,037,631,918,262,930,812,410,838,598,500,200,462,657,642,943,867,372,734,773,841,898,370",
                                    "1,151,322",
                                    "1,285,101,517,810,983,806,491,589,552,491,143,496,277,809,242,732,141,897,358,598,292,095,611,420,389",
                                    "3",
                                    "2,062,651,206,709,496,309,377,891,822,396,504,891,697,421,434,155,171,832,486,838,928,026,474,964,276",
                                    "630,000,000,000,000,000",
                                    "0",
                                    "993,696,174,272,377,493,693,496,825,928,908,586,134,624,850,969",
                                    "3,256,441,166,037,631,918,262,930,812,410,838,598,500,200,462,657,642,943,867,372,734,773,841,898,370",
                                    "1,151,323",
                                    "1,285,101,517,810,983,806,491,589,552,491,143,496,277,809,242,732,141,897,358,598,292,095,611,420,389",
                                    "3",
                                    "2,691,724,183,788,181,393,351,779,977,347,828,556,141,067,982,516,970,771,769,450,301,482,953,386,692",
                                    "6,700,000,000,000,000",
                                    "0",
                                    "993,696,174,272,377,493,693,496,825,928,908,586,134,624,850,969",
                                    "3,256,441,166,037,631,918,262,930,812,410,838,598,500,200,462,657,642,943,867,372,734,773,841,898,370",
                                    "1,151,324",
                                    "1,285,101,517,810,983,806,491,589,552,491,143,496,277,809,242,732,141,897,358,598,292,095,611,420,389",
                                    "3",
                                    "361,848,602,839,343,988,913,690,466,170,735,212,675,269,242,558,261,943,098,776,674,093,860,916,645",
                                    "9,000,000,000,000,000",
                                    "0",
                                    "993,696,174,272,377,493,693,496,825,928,908,586,134,624,850,969",
                                    "3,256,441,166,037,631,918,262,930,812,410,838,598,500,200,462,657,642,943,867,372,734,773,841,898,370",
                                    "1,151,325",
                                    "1,285,101,517,810,983,806,491,589,552,491,143,496,277,809,242,732,141,897,358,598,292,095,611,420,389",
                                    "3",
                                    "2,573,964,021,724,376,963,882,825,714,372,885,272,401,289,284,829,556,124,054,696,121,557,035,064,513",
                                    "25,000,000,000,000,000",
                                    "0",
                                    "993,696,174,272,377,493,693,496,825,928,908,586,134,624,850,969",
                                    "3,256,441,166,037,631,918,262,930,812,410,838,598,500,200,462,657,642,943,867,372,734,773,841,898,370",
                                    "1,151,327",
                                    "1,285,101,517,810,983,806,491,589,552,491,143,496,277,809,242,732,141,897,358,598,292,095,611,420,389",
                                    "3",
                                    "6,369,319,784,568,462,942,052,972,233,953,375,383,404,025,037,553,774,478,903,051,041,476,296,464",
                                    "1,072,000,000,000,000,000",
                                    "0",
                                    "993,696,174,272,377,493,693,496,825,928,908,586,134,624,850,969",
                                    "3,256,441,166,037,631,918,262,930,812,410,838,598,500,200,462,657,642,943,867,372,734,773,841,898,370",
                                    "1,151,326",
                                    "1,285,101,517,810,983,806,491,589,552,491,143,496,277,809,242,732,141,897,358,598,292,095,611,420,389",
                                    "3",
                                    "3,392,388,025,769,271,175,001,314,743,830,131,743,136,820,416,213,295,199,292,478,201,507,805,246,172",
                                    "7,700,000,000,000,000",
                                    "0",
                                    "993,696,174,272,377,493,693,496,825,928,908,586,134,624,850,969",
                                    "3,256,441,166,037,631,918,262,930,812,410,838,598,500,200,462,657,642,943,867,372,734,773,841,898,370",
                                    "1,151,328",
                                    "1,285,101,517,810,983,806,491,589,552,491,143,496,277,809,242,732,141,897,358,598,292,095,611,420,389",
                                    "3",
                                    "2,433,503,442,496,769,582,920,079,068,051,386,021,345,059,973,853,096,553,647,819,828,290,162,441,853",
                                    "38,344,400,000,000,000",
                                    "0",
                                    "993,696,174,272,377,493,693,496,825,928,908,586,134,624,850,969",
                                    "3,256,441,166,037,631,918,262,930,812,410,838,598,500,200,462,657,642,943,867,372,734,773,841,898,370",
                                    "1,151,330",
                                    "1,285,101,517,810,983,806,491,589,552,491,143,496,277,809,242,732,141,897,358,598,292,095,611,420,389",
                                    "3",
                                    "144,484,618,415,264,320,979,273,726,411,253,724,574,908,284,065,573,005,459,111,103,451,769,369,276",
                                    "7,800,000,000,000,000",
                                    "0",
                                    "993,696,174,272,377,493,693,496,825,928,908,586,134,624,850,969",
                                    "3,256,441,166,037,631,918,262,930,812,410,838,598,500,200,462,657,642,943,867,372,734,773,841,898,370",
                                    "1,151,331",
                                    "1,285,101,517,810,983,806,491,589,552,491,143,496,277,809,242,732,141,897,358,598,292,095,611,420,389",
                                    "3",
                                    "2,422,060,783,055,460,390,895,441,180,574,049,860,936,463,923,625,657,494,220,827,981,857,104,255,821",
                                    "1,092,780,000,000,000,000",
                                    "0",
                                    "993,696,174,272,377,493,693,496,825,928,908,586,134,624,850,969",
                                    "3,256,441,166,037,631,918,262,930,812,410,838,598,500,200,462,657,642,943,867,372,734,773,841,898,370",
                                    "1,151,329",
                                    "1,285,101,517,810,983,806,491,589,552,491,143,496,277,809,242,732,141,897,358,598,292,095,611,420,389",
                                    "3",
                                    "1,182,619,156,331,308,793,297,658,125,130,100,930,747,870,021,222,493,543,123,255,201,813,177,367,572",
                                    "7,800,000,000,000,000",
                                    "0",
                                    "993,696,174,272,377,493,693,496,825,928,908,586,134,624,850,969",
                                    "3,256,441,166,037,631,918,262,930,812,410,838,598,500,200,462,657,642,943,867,372,734,773,841,898,370",
                                    "1,151,332",
                                    "1,285,101,517,810,983,806,491,589,552,491,143,496,277,809,242,732,141,897,358,598,292,095,611,420,389",
                                    "3",
                                    "191,793,848,719,020,263,734,580,514,031,351,059,604,212,809,842,312,796,988,772,196,520,776,668,147",
                                    "180,000,000,000,000,000",
                                    "0"
                                ]
                            },
                            {
                                "name": "z",
                                "type": "uint256",
                                "value": "2,271,736,873,833,116,839,329,102,700,838,123,262,661,928,613,881,164,690,459,688,539,033,165,190,977"
                            },
                            {
                                "name": "alpha",
                                "type": "uint256",
                                "value": "2,240,024,548,747,307,698,078,155,701,572,405,033,872,529,277,596,190,774,167,615,059,466,110,088,824"
                            },
                            {
                                "name": "prime",
                                "type": "uint256",
                                "value": "3,618,502,788,666,131,213,697,322,783,095,070,105,623,107,215,331,596,699,973,092,056,135,872,020,481"
                            }
                        ],
                        "constructorArguments": "",
                        "name": "registerContinuousMemoryPage",
                        "returnParams": [
                            {
                                "name": "factHash",
                                "type": "bytes32",
                                "value": "0xc809aa549fd91c5ba6e138d1f90e616ce3134152b8af91b9caa2404c1047bd35"
                            },
                            {
                                "name": "memoryHash",
                                "type": "uint256",
                                "value": "57,593,110,871,534,294,445,754,249,405,269,185,175,799,316,538,723,272,677,677,312,092,687,273,009,606"
                            },
                            {
                                "name": "prod",
                                "type": "uint256",
                                "value": "3,271,942,287,162,763,302,813,810,275,750,104,121,468,555,192,661,522,918,388,675,794,688,676,628,820"
                            }
                        ],
                        "signature": "registerContinuousMemoryPage(uint256,uint256[],uint256,uint256,uint256)"
                    },
                    "errorInfo": "",
                    "fromAddress": "0x16d5783a96ab20c9157d7933ac236646b29589a4",
                    "gasUsed": 90513,
                    "id": 0,
                    "methodDecoded": true,
                    "operation": "CALL",
                    "output": "0xc809aa549fd91c5ba6e138d1f90e616ce3134152b8af91b9caa2404c1047bd357f548baad1b584dbac693ac3c18355930c163a323c6be71c4a0d3b95727ba1c6073bda8c8ff8644c6fab8f7c3aa1ce1e91fde3ccfc386e7fb053c771aefa8954",
                    "revert": false,
                    "revertMessage": "",
                    "selector": "0x5578ceae",
                    "status": true,
                    "value": "0"
                },
                "nodeType": 0
            },
            "1": {
                "event": {
                    "contract": "0xfd14567eaf9ba941cb8c8a94eec14831ca7fd1b4",
                    "decodedLog": {
                        "name": "LogMemoryPageFactContinuous",
                        "params": [
                            {
                                "name": "factHash",
                                "type": "bytes32",
                                "value": "0xc809aa549fd91c5ba6e138d1f90e616ce3134152b8af91b9caa2404c1047bd35"
                            },
                            {
                                "name": "memoryHash",
                                "type": "uint256",
                                "value": "57,593,110,871,534,294,445,754,249,405,269,185,175,799,316,538,723,272,677,677,312,092,687,273,009,606"
                            },
                            {
                                "name": "prod",
                                "type": "uint256",
                                "value": "3,271,942,287,162,763,302,813,810,275,750,104,121,468,555,192,661,522,918,388,675,794,688,676,628,820"
                            }
                        ],
                        "signature": "LogMemoryPageFactContinuous(bytes32,uint256,uint256)"
                    },
                    "id": 1,
                    "logData": "0xc809aa549fd91c5ba6e138d1f90e616ce3134152b8af91b9caa2404c1047bd357f548baad1b584dbac693ac3c18355930c163a323c6be71c4a0d3b95727ba1c6073bda8c8ff8644c6fab8f7c3aa1ce1e91fde3ccfc386e7fb053c771aefa8954",
                    "logDecoded": true,
                    "operation": "EVENT",
                    "revert": false,
                    "status": true,
                    "topics": [
                        "0xb8b9c39aeba1cfd98c38dfeebe11c2f7e02b334cbe9f05f22b442a5d9c1ea0c5"
                    ]
                },
                "nodeType": 1
            }
        },
        "gasFlame": [
            {
                "children": [
                    {
                        "children": [
                            {
                                "children": [],
                                "depth": 0,
                                "name": "Initial Gas",
                                "value": 54856
                            },
                            {
                                "children": [],
                                "depth": 0,
                                "name": "Executed Gas",
                                "value": 35657
                            }
                        ],
                        "depth": -1,
                        "name": "Actual Gas Used",
                        "value": 90513
                    },
                    {
                        "children": [],
                        "depth": -1,
                        "name": "Refunded Gas",
                        "value": 0
                    }
                ],
                "depth": -2,
                "name": "Total Gas",
                "value": 90513
            }
        ],
        "isConfirmed": true,
        "mainTrace": [
            {
                "children": [
                    {
                        "children": [
                            {
                                "children": [],
                                "depth": 1,
                                "id": 1,
                                "order": 1
                            }
                        ],
                        "depth": 0,
                        "id": 0,
                        "order": 0
                    }
                ],
                "depth": -1,
                "id": -1,
                "order": -1
            }
        ],
        "mainTraceNodeCount": 2,
        "parentIdMap": {
            "0": -1,
            "1": 0
        },
        "tidyTrace": [
            {
                "children": [
                    {
                        "children": [
                            {
                                "children": [],
                                "depth": 1,
                                "id": 1,
                                "order": 1
                            }
                        ],
                        "depth": 0,
                        "id": 0,
                        "order": 0
                    }
                ],
                "depth": -1,
                "id": -1,
                "order": -1
            }
        ],
        "tidyTraceNodeCount": 2
    },
    "state_change": {
        "stateChanges": [
            {
                "address": "0xfd14567eaf9ba941cb8c8a94eec14831ca7fd1b4",
                "erc": "",
                "slots": [
                    {
                        "current": "0x0000000000000000000000000000000000000000000000000000000000000001",
                        "key": "0xdd5de75c60ec234667f84d875c2679c7a75ae2b0ef194524e79d22cfb2f220bd",
                        "prev": "0x0000000000000000000000000000000000000000000000000000000000000000"
                    }
                ],
                "storageVariables": [
                    {
                        "name": "verifiedFact",
                        "type": "mapping(bytes32 => bool)",
                        "value": {
                            "pairs": [
                                {
                                    "key": "0xc809aa549fd91c5ba6e138d1f90e616ce3134152b8af91b9caa2404c1047bd35",
                                    "value": {
                                        "current": "true",
                                        "prev": "false",
                                        "typeTag": 1
                                    }
                                }
                            ],
                            "typeTag": 4
                        }
                    }
                ]
            }
        ]
    }
}