{
    "balance_change": {
        "balanceChanges": [
            {
                "account": "0x0000000000000000000000000000000000000000",
                "assets": [
                    {
                        "address": "0xd07dc4262bcdbf85190c01c996b4c06a461d2430",
                        "amount": "7",
                        "iconUrl": "",
                        "isERC1155": true,
                        "isERC721": false,
                        "sign": false,
                        "tokenID": "119930",
                        "value": ""
                    }
                ]
            },
            {
                "account": "0x94da09fff46ee54697e4aab8df09b113e6553f7e",
                "assets": [
                    {
                        "address": "0xd07dc4262bcdbf85190c01c996b4c06a461d2430",
                        "amount": "7",
                        "iconUrl": "",
                        "isERC1155": true,
                        "isERC721": false,
                        "sign": true,
                        "tokenID": "119930",
                        "value": ""
                    }
                ]
            }
        ]
    },
    "profile": {
        "basic_info": {
            "baseFee": "",
            "blockNumber": 11671199,
            "callData": "0xc6bf3262000000000000000000000000000000000000000000000000000000000001d47a000000000000000000000000000000000000000000000000000000000000001c3e49c75f1415faa3adc59aeb493dc946b29801e3d5c3319e2d403cb929eca4d81feddbb86147929b39df6bb24202f659ecedf45bf7eb0908940f9ffe0511ac9600000000000000000000000000000000000000000000000000000000000000e000000000000000000000000000000000000000000000000000000000000000070000000000000000000000000000000000000000000000000000000000000140000000000000000000000000000000000000000000000000000000000000000100000000000000000000000094da09fff46ee54697e4aab8df09b113e6553f7e00000000000000000000000000000000000000000000000000000000000003e800000000000000000000000000000000000000000000000000000000000000342f697066732f516d4e74524c77325874416a62644a64504e38757a5a664e556e4c593644674779673457346d5777457948746838000000000000000000000000",
            "debugEnable": true,
            "errorInfo": "",
            "eventCount": 3,
            "feeRecipient": "0x04668ec2f57cc15c381b461b9fedab5d451c8f7f",
            "formatValue": "0",
            "gasLimit": 219570,
            "gasPrice": "48",
            "gasUsed": 209115,
            "intTxnCount": 1,
            "internalRevert": false,
            "internalRevertMessage": "",
            "isContractCreation": false,
            "isFlashloan": false,
            "maxFee": "",
            "nonce": 19,
            "overwritedBlockNumber": -1,
            "priorityFee": "",
            "receiver": "0xd07dc4262bcdbf85190c01c996b4c06a461d2430",
            "revertMessage": "",
            "sender": "0x94da09fff46ee54697e4aab8df09b113e6553f7e",
            "simulationEnable": true,
            "sourceTxnHash": "0x3da89682d2175d11c8532183636b953eebf12bfbc8d3cc5b9832269c5d016106",
            "status": true,
            "timestamp": "2021-01-17T06:51:10Z",
            "transactionFee": "0.01003752",
            "txnHash": "0x3da89682d2175d11c8532183636b953eebf12bfbc8d3cc5b9832269c5d016106",
            "txnIndex": 140,
            "type": 0,
            "value": "0"
        },
        "fund_flow": [
            {
                "amount": "7",
                "from": "0x0000000000000000000000000000000000000000",
                "id": 1,
                "isERC1155": true,
                "isERC721": false,
                "isReverted": false,
                "order": 1,
                "to": "0x94da09fff46ee54697e4aab8df09b113e6553f7e",
                "token": "0xd07dc4262bcdbf85190c01c996b4c06a461d2430",
                "tokenID": "119930"
            }
        ],
        "token_infos": [
            {
                "address": "0xc02aaa39b223fe8d0a0e5c4f27ead9083c756cc2",
                "decimals": 18
            },
            {
                "address": "0xeeeeeeeeeeeeeeeeeeeeeeeeeeeeeeeeeeeeeeee",
                "decimals": 18
            }
        ]
    },
    "address_label": {
        "labels": [
            {
                "address": "0x0000000000000000000000000000000000000002",
                "label": "Precompiled"
            },
            {
                "address": "0x0000000000000000000000000000000000000003",
                "label": "Precompiled"
            },
            {
                "address": "0x0000000000000000000000000000000000000004",
                "label": "Precompiled"
            },
            {
                "address": "0xeeeeeeeeeeeeeeeeeeeeeeeeeeeeeeeeeeeeeeee",
                "label": "Ether"
            },
            {
                "address": "0xd07dc4262bcdbf85190c01c996b4c06a461d2430",
                "label": "Rarible: RARI Token 3"
            },
            {
                "address": "0x0000000000000000000000000000000000000001",
                "label": "Precompiled"
            }
        ]
    },
    "trace": {
        "accountLabels": null,
        "dataMap": {
            "-1": {
                "invocation": {
                    "address": "0x94da09fff46ee54697e4aab8df09b113e6553f7e",
                    "callData": "",
                    "decodedMethod": null,
                    "errorInfo": "",
                    "fromAddress": "",
                    "gasUsed": 0,
                    "id": -1,
                    "methodDecoded": false,
                    "operation": "",
                    "output": "",
                    "revert": false,
                    "revertMessage": "",
                    "selector": "",
                    "status": false,
                    "value": ""
                },
                "nodeType": 0
            },
            "0": {
                "invocation": {
                    "address": "0xd07dc4262bcdbf85190c01c996b4c06a461d2430",
                    "callData": "0x000000000000000000000000000000000000000000000000000000000001d47a000000000000000000000000000000000000000000000000000000000000001c3e49c75f1415faa3adc59aeb493dc946b29801e3d5c3319e2d403cb929eca4d81feddbb86147929b39df6bb24202f659ecedf45bf7eb0908940f9ffe0511ac9600000000000000000000000000000000000000000000000000000000000000e000000000000000000000000000000000000000000000000000000000000000070000000000000000000000000000000000000000000000000000000000000140000000000000000000000000000000000000000000000000000000000000000100000000000000000000000094da09fff46ee54697e4aab8df09b113e6553f7e00000000000000000000000000000000000000000000000000000000000003e800000000000000000000000000000000000000000000000000000000000000342f697066732f516d4e74524c77325874416a62644a64504e38757a5a664e556e4c593644674779673457346d5777457948746838000000000000000000000000",
                    "decodedMethod": {
                        "callParams": [
                            {
                                "name": "id",
                                "type": "uint256",
                                "value": "119,930"
                            },
                            {
                                "name": "v",
                                "type": "uint8",
                                "value": "28"
                            },
                            {
                                "name": "r",
                                "type": "bytes32",
                                "value": "0x3e49c75f1415faa3adc59aeb493dc946b29801e3d5c3319e2d403cb929eca4d8"
                            },
                            {
                                "name": "s",
                                "type": "bytes32",
                                "value": "0x1feddbb86147929b39df6bb24202f659ecedf45bf7eb0908940f9ffe0511ac96"
                            },
                            {
                                "name": "fees",
                                "type": "(address,uint256)[]",
                                "value": [
                                    [
                                        {
                                            "name": "recipient",
                                            "type": "address",
                                            "value": "0x94da09fff46ee54697e4aab8df09b113e6553f7e"
                                        },
                                        {
                                            "name": "value",
                                            "type": "uint256",
                                            "value": "1,000"
                                        }
                                    ]
                                ]
                            },
                            {
                                "name": "supply",
                                "type": "uint256",
                                "value": "7"
                            },
                            {
                                "name": "uri",
                                "type": "string",
                                "value": "/ipfs/QmNtRLw2XtAjbdJdPN8uzZfNUnLY6DgGyg4W4mWwEyHth8"
                            }
                        ],
                        "constructorArguments": "",
                        "name": "mint",
                        "returnParams": [],
                        "signature": "mint(uint256,uint8,bytes32,bytes32,(address,uint256)[],uint256,string)"
                    },
                    "errorInfo": "",
                    "fromAddress": "0x94da09fff46ee54697e4aab8df09b113e6553f7e",
                    "gasUsed": 209115,
                    "id": 0,
                    "methodDecoded": true,
                    "operation": "CALL",
                    "output": "",
                    "revert": false,
                    "revertMessage": "",
                    "selector": "0xc6bf3262",
                    "status": true,
                    "value": "0"
                },
                "nodeType": 0
            },
            "1": {
                "invocation": {
                    "address": "0x0000000000000000000000000000000000000001",
                    "callData": "0x1b79edb8fb598c26e9a3d68833a5ff1bd0b06454b9b52e1124c0a4bd000000000000000000000000000000000000000000000000000000000000001c3e49c75f1415faa3adc59aeb493dc946b29801e3d5c3319e2d403cb929eca4d81feddbb86147929b39df6bb24202f659ecedf45bf7eb0908940f9ffe0511ac96",
                    "decodedMethod": {
                        "callParams": [
                            {
                                "name": "hash",
                                "type": "bytes32",
                                "value": "0xc2b66fa71b79edb8fb598c26e9a3d68833a5ff1bd0b06454b9b52e1124c0a4bd"
                            },
                            {
                                "name": "v",
                                "type": "uint256",
                                "value": "28"
                            },
                            {
                                "name": "r",
                                "type": "bytes32",
                                "value": "0x3e49c75f1415faa3adc59aeb493dc946b29801e3d5c3319e2d403cb929eca4d8"
                            },
                            {
                                "name": "s",
                                "type": "bytes32",
                                "value": "0x1feddbb86147929b39df6bb24202f659ecedf45bf7eb0908940f9ffe0511ac96"
                            }
                        ],
                        "constructorArguments": "",
                        "name": "ecrecover",
                        "returnParams": [
                            {
                                "name": "",
                                "type": "address",
                                "value": "0xf03ba06dd459ae597357b491219fcb573f5fe683"
                            }
                        ],
                        "signature": "ecrecover(bytes32,uint256,bytes32,bytes32)"
                    },
                    "errorInfo": "",
                    "fromAddress": "0xd07dc4262bcdbf85190c01c996b4c06a461d2430",
                    "gasUsed": 3000,
                    "id": 1,
                    "methodDecoded": true,
                    "operation": "STATICCALL",
                    "output": "0x000000000000000000000000f03ba06dd459ae597357b491219fcb573f5fe683",
                    "revert": false,
                    "revertMessage": "",
                    "selector": "0xc2b66fa7",
                    "status": true,
                    "value": "0"
                },
                "nodeType": 0
            },
            "2": {
                "event": {
                    "contract": "0xd07dc4262bcdbf85190c01c996b4c06a461d2430",
                    "decodedLog": {
                        "name": "SecondarySaleFees",
                        "params": [
                            {
                                "name": "tokenId",
                                "type": "uint256",
                                "value": "119,930"
                            },
                            {
                                "name": "recipients",
                                "type": "address[]",
                                "value": [
                                    "0x94da09fff46ee54697e4aab8df09b113e6553f7e"
                                ]
                            },
                            {
                                "name": "bps",
                                "type": "uint256[]",
                                "value": [
                                    "1,000"
                                ]
                            }
                        ],
                        "signature": "SecondarySaleFees(uint256,address[],uint256[])"
                    },
                    "id": 2,
                    "logData": "0x000000000000000000000000000000000000000000000000000000000001d47a000000000000000000000000000000000000000000000000000000000000006000000000000000000000000000000000000000000000000000000000000000a0000000000000000000000000000000000000000000000000000000000000000100000000000000000000000094da09fff46ee54697e4aab8df09b113e6553f7e000000000000000000000000000000000000000000000000000000000000000100000000000000000000000000000000000000000000000000000000000003e8",
                    "logDecoded": true,
                    "operation": "EVENT",
                    "revert": false,
                    "status": true,
                    "topics": [
                        "0x99aba1d63749cfd5ad1afda7c4663840924d54eb5f005bbbeadedc6ec13674b2"
                    ]
                },
                "nodeType": 1
            },
            "3": {
                "event": {
                    "contract": "0xd07dc4262bcdbf85190c01c996b4c06a461d2430",
                    "decodedLog": {
                        "name": "TransferSingle",
                        "params": [
                            {
                                "name": "_operator",
                                "type": "address",
                                "value": "0x94da09fff46ee54697e4aab8df09b113e6553f7e"
                            },
                            {
                                "name": "_from",
                                "type": "address",
                                "value": "0x0000000000000000000000000000000000000000"
                            },
                            {
                                "name": "_to",
                                "type": "address",
                                "value": "0x94da09fff46ee54697e4aab8df09b113e6553f7e"
                            },
                            {
                                "name": "_id",
                                "type": "uint256",
                                "value": "119,930"
                            },
                            {
                                "name": "_value",
                                "type": "uint256",
                                "value": "7"
                            }
                        ],
                        "signature": "TransferSingle(address,address,address,uint256,uint256)"
                    },
                    "id": 3,
                    "logData": "0x000000000000000000000000000000000000000000000000000000000001d47a0000000000000000000000000000000000000000000000000000000000000007",
                    "logDecoded": true,
                    "operation": "EVENT",
                    "revert": false,
                    "status": true,
                    "topics": [
                        "0xc3d58168c5ae7397731d063d5bbf3d657854427343f4c083240f7aacaa2d0f62",
                        "0x00000000000000000000000094da09fff46ee54697e4aab8df09b113e6553f7e",
                        "0x0000000000000000000000000000000000000000000000000000000000000000",
                        "0x00000000000000000000000094da09fff46ee54697e4aab8df09b113e6553f7e"
                    ]
                },
                "nodeType": 1
            },
            "4": {
                "event": {
                    "contract": "0xd07dc4262bcdbf85190c01c996b4c06a461d2430",
                    "decodedLog": {
                        "name": "URI",
                        "params": [
                            {
                                "name": "_id",
                                "type": "uint256",
                                "value": "119,930"
                            },
                            {
                                "name": "_value",
                                "type": "string",
                                "value": "/ipfs/QmNtRLw2XtAjbdJdPN8uzZfNUnLY6DgGyg4W4mWwEyHth8"
                            }
                        ],
                        "signature": "URI(string,uint256)"
                    },
                    "id": 4,
                    "logData": "0x000000000000000000000000000000000000000000000000000000000000002000000000000000000000000000000000000000000000000000000000000000342f697066732f516d4e74524c77325874416a62644a64504e38757a5a664e556e4c593644674779673457346d5777457948746838000000000000000000000000",
                    "logDecoded": true,
                    "operation": "EVENT",
                    "revert": false,
                    "status": true,
                    "topics": [
                        "0x6bb7ff708619ba0610cba295a58592e0451dee2622938c8755667688daf3529b",
                        "0x000000000000000000000000000000000000000000000000000000000001d47a"
                    ]
                },
                "nodeType": 1
            }
        },
        "gasFlame": [
            {
                "children": [
                    {
                        "children": [
                            {
                                "children": [],
                                "depth": 0,
                                "name": "Initial Gas",
                                "value": 24504
                            },
                            {
                                "children": [
                                    {
                                        "children": [],
                                        "depth": 1,
                                        "name": "ecrecover",
                                        "value": 3000
                                    }
                                ],
                                "depth": 0,
                                "name": "Executed Gas",
                                "value": 184611
                            }
                        ],
                        "depth": -1,
                        "name": "Actual Gas Used",
                        "value": 209115
                    },
                    {
                        "children": [],
                        "depth": -1,
                        "name": "Refunded Gas",
                        "value": 0
                    }
                ],
                "depth": -2,
                "name": "Total Gas",
                "value": 209115
            }
        ],
        "isConfirmed": true,
        "mainTrace": [
            {
                "children": [
                    {
                        "children": [
                            {
                                "children": [],
                                "depth": 1,
                                "id": 1,
                                "order": 1
                            },
                            {
                                "children": [],
                                "depth": 1,
                                "id": 2,
                                "order": 2
                            },
                            {
                                "children": [],
                                "depth": 1,
                                "id": 3,
                                "order": 3
                            },
                            {
                                "children": [],
                                "depth": 1,
                                "id": 4,
                                "order": 4
                            }
                        ],
                        "depth": 0,
                        "id": 0,
                        "order": 0
                    }
                ],
                "depth": -1,
                "id": -1,
                "order": -1
            }
        ],
        "mainTraceNodeCount": 5,
        "parentIdMap": {
            "0": -1,
            "1": 0,
            "2": 0,
            "3": 0,
            "4": 0
        },
        "tidyTrace": [
            {
                "children": [
                    {
                        "children": [
                            {
                                "children": [],
                                "depth": 1,
                                "id": 2,
                                "order": 2
                            },
                            {
                                "children": [],
                                "depth": 1,
                                "id": 3,
                                "order": 3
                            },
                            {
                                "children": [],
                                "depth": 1,
                                "id": 4,
                                "order": 4
                            }
                        ],
                        "depth": 0,
                        "id": 0,
                        "order": 0
                    }
                ],
                "depth": -1,
                "id": -1,
                "order": -1
            }
        ],
        "tidyTraceNodeCount": 4
    },
    "state_change": {
        "stateChanges": [
            {
                "address": "0xd07dc4262bcdbf85190c01c996b4c06a461d2430",
                "erc": "ERC-1155",
                "slots": [
                    {
                        "current": "0x00000000000000000000000000000000000000000000000000000000000003e8",
                        "key": "0x81240c660f344ea256bdada9a6e4162610445cdb3253c518fb59db48c83cc32f",
                        "prev": "0x0000000000000000000000000000000000000000000000000000000000000000"
                    },
                    {
                        "current": "0x0000000000000000000000000000000000000000000000000000000000000007",
                        "key": "0xbe8a42693bcbb89795903b658f75a0bb292c0c8f4ac4ce9c2db3e775e51699e8",
                        "prev": "0x0000000000000000000000000000000000000000000000000000000000000000"
                    },
                    {
                        "current": "0x0000000000000000000000000000000000000000000000000000000000000069",
                        "key": "0xb1ad8f7c44a0e64716bf7dea52e2247bdfe1f2428d3bd2d37655bd87277b4ff6",
                        "prev": "0x0000000000000000000000000000000000000000000000000000000000000000"
                    },
                    {
                        "current": "0x2f697066732f516d4e74524c77325874416a62644a64504e38757a5a664e556e",
                        "key": "0xb28328118cdf6a5567b7b85095e092ee2b8af259988f01381c531837d5110129",
                        "prev": "0x0000000000000000000000000000000000000000000000000000000000000000"
                    },
                    {
                        "current": "0x4c593644674779673457346d5777457948746838000000000000000000000000",
                        "key": "0xb28328118cdf6a5567b7b85095e092ee2b8af259988f01381c531837d511012a",
                        "prev": "0x0000000000000000000000000000000000000000000000000000000000000000"
                    },
                    {
                        "current": "0x00000000000000000000000094da09fff46ee54697e4aab8df09b113e6553f7e",
                        "key": "0xed4e2bb02e7d5ca73c559e78794d0743e30c1ec8bb0bdb24e76458e83dd06652",
                        "prev": "0x0000000000000000000000000000000000000000000000000000000000000000"
                    },
                    {
                        "current": "0x0000000000000000000000000000000000000000000000000000000000000001",
                        "key": "0x5bd077c7cef76b787ae1b16d214cfb7a0aeb0f424735167352094bbf76c19f6a",
                        "prev": "0x0000000000000000000000000000000000000000000000000000000000000000"
                    },
                    {
                        "current": "0x00000000000000000000000094da09fff46ee54697e4aab8df09b113e6553f7e",
                        "key": "0x81240c660f344ea256bdada9a6e4162610445cdb3253c518fb59db48c83cc32e",
                        "prev": "0x0000000000000000000000000000000000000000000000000000000000000000"
                    }
                ],
                "storageVariables": [
                    {
                        "name": "fees",
                        "type": "mapping(uint256 => struct ERC1155Base.Fee[])",
                        "value": {
                            "pairs": [
                                {
                                    "key": "119930",
                                    "value": {
                                        "elemType": "struct ERC1155Base.Fee",
                                        "elems": [
                                            {
                                                "index": 0,
                                                "value": {
                                                    "fields": [
                                                        {
                                                            "name": "recipient",
                                                            "type": "address payable",
                                                            "value": {
                                                                "current": "0x94da09fff46ee54697e4aab8df09b113e6553f7e",
                                                                "prev": "0x0000000000000000000000000000000000000000",
                                                                "typeTag": 1
                                                            }
                                                        },
                                                        {
                                                            "name": "value",
                                                            "type": "uint256",
                                                            "value": {
                                                                "current": "1000",
                                                                "prev": "0",
                                                                "typeTag": 1
                                                            }
                                                        }
                                                    ],
                                                    "typeTag": 3
                                                }
                                            }
                                        ],
                                        "typeTag": 2
                                    }
                                }
                            ],
                            "typeTag": 4
                        }
                    },
                    {
                        "name": "balances",
                        "type": "mapping(uint256 => mapping(address => uint256))",
                        "value": {
                            "pairs": [
                                {
                                    "key": "119930",
                                    "value": {
                                        "pairs": [
                                            {
                                                "key": "0x94da09fff46ee54697e4aab8df09b113e6553f7e",
                                                "value": {
                                                    "current": "7",
                                                    "prev": "0",
                                                    "typeTag": 1
                                                }
                                            }
                                        ],
                                        "typeTag": 4
                                    }
                                }
                            ],
                            "typeTag": 4
                        }
                    },
                    {
                        "name": "_tokenURIs",
                        "type": "mapping(uint256 => string)",
                        "value": {
                            "pairs": [
                                {
                                    "key": "119930",
                                    "value": {
                                        "current": "/ipfs/QmNtRLw2XtAjbdJdPN8uzZfNUnLY6DgGyg4W4mWwEyHth8",
                                        "prev": "",
                                        "typeTag": 1
                                    }
                                }
                            ],
                            "typeTag": 4
                        }
                    },
                    {
                        "name": "creators",
                        "type": "mapping(uint256 => address)",
                        "value": {
                            "pairs": [
                                {
                                    "key": "119930",
                                    "value": {
                                        "current": "0x94da09fff46ee54697e4aab8df09b113e6553f7e",
                                        "prev": "0x0000000000000000000000000000000000000000",
                                        "typeTag": 1
                                    }
                                }
                            ],
                            "typeTag": 4
                        }
                    }
                ]
            }
        ]
    }
}