{
    "balance_change": {
        "balanceChanges": [
            {
                "account": "0x77951f925bfdb8fd06710f9b963b282c21573c55",
                "assets": [
                    {
                        "address": "0x3242aebcdcf8de491004b1c98e6595e9827f6c17",
                        "amount": "100",
                        "iconUrl": "",
                        "isERC1155": false,
                        "isERC721": false,
                        "sign": false,
                        "value": ""
                    }
                ]
            },
            {
                "account": "0x000143860260217df44ce56d20ad92561dc5a120",
                "assets": [
                    {
                        "address": "0x3242aebcdcf8de491004b1c98e6595e9827f6c17",
                        "amount": "100",
                        "iconUrl": "",
                        "isERC1155": false,
                        "isERC721": false,
                        "sign": true,
                        "value": ""
                    }
                ]
            }
        ]
    },
    "profile": {
        "basic_info": {
            "baseFee": "",
            "blockNumber": 12722543,
            "callData": "0xa9059cbb000000000000000000000000000143860260217df44ce56d20ad92561dc5a1200000000000000000000000000000000000000000000000056bc75e2d63100000",
            "debugEnable": true,
            "errorInfo": "",
            "eventCount": 1,
            "feeRecipient": "0x7777788200b672a42421017f65ede4fc759564c8",
            "formatValue": "0",
            "gasLimit": 90000,
            "gasPrice": "27",
            "gasUsed": 26762,
            "intTxnCount": 0,
            "internalRevert": false,
            "internalRevertMessage": "",
            "isContractCreation": false,
            "isFlashloan": false,
            "maxFee": "",
            "nonce": 0,
            "overwritedBlockNumber": -1,
            "priorityFee": "",
            "receiver": "0x3242aebcdcf8de491004b1c98e6595e9827f6c17",
            "revertMessage": "",
            "sender": "0x77951f925bfdb8fd06710f9b963b282c21573c55",
            "simulationEnable": true,
            "sourceTxnHash": "0x3eb9c844b67f09f1950de0c3306161dbe5e839f100ae1348d98e87980bd48c63",
            "status": true,
            "timestamp": "2021-06-28T12:32:38Z",
            "transactionFee": "0.000722574",
            "txnHash": "0x3eb9c844b67f09f1950de0c3306161dbe5e839f100ae1348d98e87980bd48c63",
            "txnIndex": 33,
            "type": 0,
            "value": "0"
        },
        "fund_flow": [
            {
                "amount": "100",
                "from": "0x77951f925bfdb8fd06710f9b963b282c21573c55",
                "id": 1,
                "isERC1155": false,
                "isERC721": false,
                "isReverted": false,
                "order": 1,
                "to": "0x000143860260217df44ce56d20ad92561dc5a120",
                "token": "0x3242aebcdcf8de491004b1c98e6595e9827f6c17"
            }
        ],
        "token_infos": [
            {
                "address": "0x3242aebcdcf8de491004b1c98e6595e9827f6c17",
                "decimals": 18
            },
            {
                "address": "0xc02aaa39b223fe8d0a0e5c4f27ead9083c756cc2",
                "decimals": 18
            },
            {
                "address": "0xeeeeeeeeeeeeeeeeeeeeeeeeeeeeeeeeeeeeeeee",
                "decimals": 18
            }
        ]
    },
    "address_label": {
        "labels": [
            {
                "address": "0xeeeeeeeeeeeeeeeeeeeeeeeeeeeeeeeeeeeeeeee",
                "label": "Ether"
            },
            {
                "address": "0x3242aebcdcf8de491004b1c98e6595e9827f6c17",
                "label": "GUSDT: GUSDT Token"
            },
            {
                "address": "0x0000000000000000000000000000000000000001",
                "label": "Precompiled"
            },
            {
                "address": "0x0000000000000000000000000000000000000002",
                "label": "Precompiled"
            },
            {
                "address": "0x0000000000000000000000000000000000000003",
                "label": "Precompiled"
            },
            {
                "address": "0x0000000000000000000000000000000000000004",
                "label": "Precompiled"
            }
        ]
    },
    "trace": {
        "accountLabels": null,
        "dataMap": {
            "-1": {
                "invocation": {
                    "address": "0x77951f925bfdb8fd06710f9b963b282c21573c55",
                    "callData": "",
                    "decodedMethod": null,
                    "errorInfo": "",
                    "fromAddress": "",
                    "gasUsed": 0,
                    "id": -1,
                    "methodDecoded": false,
                    "operation": "",
                    "output": "",
                    "revert": false,
                    "revertMessage": "",
                    "selector": "",
                    "status": false,
                    "value": ""
                },
                "nodeType": 0
            },
            "0": {
                "invocation": {
                    "address": "0x3242aebcdcf8de491004b1c98e6595e9827f6c17",
                    "callData": "0x000000000000000000000000000143860260217df44ce56d20ad92561dc5a1200000000000000000000000000000000000000000000000056bc75e2d63100000",
                    "decodedMethod": {
                        "callParams": [
                            {
                                "name": "_to",
                                "type": "address",
                                "value": "0x000143860260217df44ce56d20ad92561dc5a120"
                            },
                            {
                                "decimalAvailable": true,
                                "name": "_value",
                                "type": "uint256",
                                "value": "100,000,000,000,000,000,000"
                            }
                        ],
                        "constructorArguments": "",
                        "name": "transfer",
                        "returnParams": [
                            {
                                "name": "",
                                "type": "bool",
                                "value": true
                            }
                        ],
                        "signature": "transfer(address,uint256)"
                    },
                    "errorInfo": "",
                    "fromAddress": "0x77951f925bfdb8fd06710f9b963b282c21573c55",
                    "gasUsed": 26762,
                    "id": 0,
                    "methodDecoded": true,
                    "operation": "CALL",
                    "output": "0x0000000000000000000000000000000000000000000000000000000000000001",
                    "revert": false,
                    "revertMessage": "",
                    "selector": "0xa9059cbb",
                    "status": true,
                    "value": "0"
                },
                "nodeType": 0
            },
            "1": {
                "event": {
                    "contract": "0x3242aebcdcf8de491004b1c98e6595e9827f6c17",
                    "decodedLog": {
                        "name": "Transfer",
                        "params": [
                            {
                                "name": "from",
                                "type": "address",
                                "value": "0x77951f925bfdb8fd06710f9b963b282c21573c55"
                            },
                            {
                                "name": "to",
                                "type": "address",
                                "value": "0x000143860260217df44ce56d20ad92561dc5a120"
                            },
                            {
                                "decimalAvailable": true,
                                "name": "value",
                                "type": "uint256",
                                "value": "100,000,000,000,000,000,000"
                            }
                        ],
                        "signature": "Transfer(address,address,uint256)"
                    },
                    "id": 1,
                    "logData": "0x0000000000000000000000000000000000000000000000056bc75e2d63100000",
                    "logDecoded": true,
                    "operation": "EVENT",
                    "revert": false,
                    "status": true,
                    "topics": [
                        "0xddf252ad1be2c89b69c2b068fc378daa952ba7f163c4a11628f55a4df523b3ef",
                        "0x00000000000000000000000077951f925bfdb8fd06710f9b963b282c21573c55",
                        "0x000000000000000000000000000143860260217df44ce56d20ad92561dc5a120"
                    ]
                },
                "nodeType": 1
            }
        },
        "gasFlame": [
            {
                "children": [
                    {
                        "children": [
                            {
                                "children": [],
                                "depth": 0,
                                "name": "Initial Gas",
                                "value": 21632
                            },
                            {
                                "children": [],
                                "depth": 0,
                                "name": "Executed Gas",
                                "value": 20130
                            }
                        ],
                        "depth": -1,
                        "name": "Actual Gas Used",
                        "value": 26762
                    },
                    {
                        "children": [],
                        "depth": -1,
                        "name": "Refunded Gas",
                        "value": 15000
                    }
                ],
                "depth": -2,
                "name": "Total Gas",
                "value": 41762
            }
        ],
        "isConfirmed": true,
        "mainTrace": [
            {
                "children": [
                    {
                        "children": [
                            {
                                "children": [],
                                "depth": 1,
                                "id": 1,
                                "order": 1
                            }
                        ],
                        "depth": 0,
                        "id": 0,
                        "order": 0
                    }
                ],
                "depth": -1,
                "id": -1,
                "order": -1
            }
        ],
        "mainTraceNodeCount": 2,
        "parentIdMap": {
            "0": -1,
            "1": 0
        },
        "tidyTrace": [
            {
                "children": [
                    {
                        "children": [
                            {
                                "children": [],
                                "depth": 1,
                                "id": 1,
                                "order": 1
                            }
                        ],
                        "depth": 0,
                        "id": 0,
                        "order": 0
                    }
                ],
                "depth": -1,
                "id": -1,
                "order": -1
            }
        ],
        "tidyTraceNodeCount": 2
    },
    "state_change": {
        "stateChanges": [
            {
                "address": "0x3242aebcdcf8de491004b1c98e6595e9827f6c17",
                "erc": "ERC-20",
                "slots": [
                    {
                        "current": "0x0000000000000000000000000000000000000000000000000000000000000000",
                        "key": "0xc26ffc0653a16df41130db5af9a94fbc28d7b338f58d3dfec3b5d5b92f2c526c",
                        "prev": "0x0000000000000000000000000000000000000000000000056bc75e2d63100000"
                    },
                    {
                        "current": "0x0000000000000000000000000000000000000000000114e97b164ad709cb0000",
                        "key": "0xeee9ccf3bfdea595de27de017d77fc0e94c94e878d825b5a0ea4437f89c62ad6",
                        "prev": "0x0000000000000000000000000000000000000000000114e40f4eeca9a6bb0000"
                    }
                ],
                "storageVariables": [
                    {
                        "name": "balances",
                        "type": "mapping(address => uint256)",
                        "value": {
                            "pairs": [
                                {
                                    "key": "0x000143860260217df44ce56d20ad92561dc5a120",
                                    "value": {
                                        "current": "1307680110000000000000000",
                                        "prev": "1307580110000000000000000",
                                        "typeTag": 1
                                    }
                                },
                                {
                                    "key": "0x77951f925bfdb8fd06710f9b963b282c21573c55",
                                    "value": {
                                        "current": "0",
                                        "prev": "100000000000000000000",
                                        "typeTag": 1
                                    }
                                }
                            ],
                            "typeTag": 4
                        }
                    }
                ]
            }
        ]
    }
}