{
    "balance_change": {
        "balanceChanges": [
            {
                "account": "0xc0370a30edccad5d494bbda59848e09a3141d812",
                "assets": [
                    {
                        "address": "0x923c90b98ee834d118c85ddf44906ee1769df648",
                        "amount": "25,000,000",
                        "iconUrl": "",
                        "isERC1155": false,
                        "isERC721": false,
                        "sign": true,
                        "value": ""
                    }
                ]
            },
            {
                "account": "0x923c90b98ee834d118c85ddf44906ee1769df648",
                "assets": [
                    {
                        "address": "0x923c90b98ee834d118c85ddf44906ee1769df648",
                        "amount": "37,500,000",
                        "iconUrl": "",
                        "isERC1155": false,
                        "isERC721": false,
                        "sign": false,
                        "value": ""
                    }
                ]
            },
            {
                "account": "0x30cfc524ed0fc52338d84ecd42559a3cbcd16c99",
                "assets": [
                    {
                        "address": "0x923c90b98ee834d118c85ddf44906ee1769df648",
                        "amount": "12,500,000",
                        "iconUrl": "",
                        "isERC1155": false,
                        "isERC721": false,
                        "sign": true,
                        "value": ""
                    }
                ]
            }
        ]
    },
    "profile": {
        "basic_info": {
            "baseFee": "",
            "blockNumber": 9182278,
            "callData": "0x069f5bdd00000000000000000000000030cfc524ed0fc52338d84ecd42559a3cbcd16c99",
            "debugEnable": true,
            "errorInfo": "",
            "eventCount": 2,
            "feeRecipient": "0xea674fdde714fd979de3edf0f56aa9716b898ec8",
            "formatValue": "0",
            "gasLimit": 65396,
            "gasPrice": "1.2",
            "gasUsed": 60396,
            "intTxnCount": 0,
            "internalRevert": false,
            "internalRevertMessage": "",
            "isContractCreation": false,
            "isFlashloan": false,
            "maxFee": "",
            "nonce": 86,
            "overwritedBlockNumber": -1,
            "priorityFee": "",
            "receiver": "0x923c90b98ee834d118c85ddf44906ee1769df648",
            "revertMessage": "",
            "sender": "0xc0370a30edccad5d494bbda59848e09a3141d812",
            "simulationEnable": true,
            "sourceTxnHash": "0x3e5a0f43eadcd94175817d70fee9041c739f1452a7de301e802ac8a8b6437ddc",
            "status": true,
            "timestamp": "2019-12-29T19:20:49Z",
            "transactionFee": "0.0000724752",
            "txnHash": "0x3e5a0f43eadcd94175817d70fee9041c739f1452a7de301e802ac8a8b6437ddc",
            "txnIndex": 48,
            "type": 0,
            "value": "0"
        },
        "fund_flow": [
            {
                "amount": "12,500,000",
                "from": "0x923c90b98ee834d118c85ddf44906ee1769df648",
                "id": 1,
                "isERC1155": false,
                "isERC721": false,
                "isReverted": false,
                "order": 1,
                "to": "0x30cfc524ed0fc52338d84ecd42559a3cbcd16c99",
                "token": "0x923c90b98ee834d118c85ddf44906ee1769df648"
            },
            {
                "amount": "25,000,000",
                "from": "0x923c90b98ee834d118c85ddf44906ee1769df648",
                "id": 2,
                "isERC1155": false,
                "isERC721": false,
                "isReverted": false,
                "order": 2,
                "to": "0xc0370a30edccad5d494bbda59848e09a3141d812",
                "token": "0x923c90b98ee834d118c85ddf44906ee1769df648"
            }
        ],
        "token_infos": [
            {
                "address": "0x923c90b98ee834d118c85ddf44906ee1769df648",
                "decimals": 6
            },
            {
                "address": "0xc02aaa39b223fe8d0a0e5c4f27ead9083c756cc2",
                "decimals": 18
            },
            {
                "address": "0xeeeeeeeeeeeeeeeeeeeeeeeeeeeeeeeeeeeeeeee",
                "decimals": 18
            }
        ]
    },
    "address_label": {
        "labels": [
            {
                "address": "0xeeeeeeeeeeeeeeeeeeeeeeeeeeeeeeeeeeeeeeee",
                "label": "Ether"
            },
            {
                "address": "0x923c90b98ee834d118c85ddf44906ee1769df648",
                "label": "Qitcoin (QTC)"
            },
            {
                "address": "0x0000000000000000000000000000000000000001",
                "label": "Precompiled"
            },
            {
                "address": "0x0000000000000000000000000000000000000002",
                "label": "Precompiled"
            },
            {
                "address": "0x0000000000000000000000000000000000000003",
                "label": "Precompiled"
            },
            {
                "address": "0x0000000000000000000000000000000000000004",
                "label": "Precompiled"
            }
        ]
    },
    "trace": {
        "accountLabels": null,
        "dataMap": {
            "-1": {
                "invocation": {
                    "address": "0xc0370a30edccad5d494bbda59848e09a3141d812",
                    "callData": "",
                    "decodedMethod": null,
                    "errorInfo": "",
                    "fromAddress": "",
                    "gasUsed": 0,
                    "id": -1,
                    "methodDecoded": false,
                    "operation": "",
                    "output": "",
                    "revert": false,
                    "revertMessage": "",
                    "selector": "",
                    "status": false,
                    "value": ""
                },
                "nodeType": 0
            },
            "0": {
                "invocation": {
                    "address": "0x923c90b98ee834d118c85ddf44906ee1769df648",
                    "callData": "0x00000000000000000000000030cfc524ed0fc52338d84ecd42559a3cbcd16c99",
                    "decodedMethod": {
                        "callParams": [
                            {
                                "name": "_refer",
                                "type": "address",
                                "value": "0x30cfc524ed0fc52338d84ecd42559a3cbcd16c99"
                            }
                        ],
                        "constructorArguments": "",
                        "name": "getAirdrop",
                        "returnParams": [
                            {
                                "name": "success",
                                "type": "bool",
                                "value": true
                            }
                        ],
                        "signature": "getAirdrop(address)"
                    },
                    "errorInfo": "",
                    "fromAddress": "0xc0370a30edccad5d494bbda59848e09a3141d812",
                    "gasUsed": 60396,
                    "id": 0,
                    "methodDecoded": true,
                    "operation": "CALL",
                    "output": "0x0000000000000000000000000000000000000000000000000000000000000001",
                    "revert": false,
                    "revertMessage": "",
                    "selector": "0x069f5bdd",
                    "status": true,
                    "value": "0"
                },
                "nodeType": 0
            },
            "1": {
                "event": {
                    "contract": "0x923c90b98ee834d118c85ddf44906ee1769df648",
                    "decodedLog": {
                        "name": "Transfer",
                        "params": [
                            {
                                "name": "from",
                                "type": "address",
                                "value": "0x923c90b98ee834d118c85ddf44906ee1769df648"
                            },
                            {
                                "name": "to",
                                "type": "address",
                                "value": "0x30cfc524ed0fc52338d84ecd42559a3cbcd16c99"
                            },
                            {
                                "decimalAvailable": true,
                                "name": "tokens",
                                "type": "uint256",
                                "value": "12,500,000,000,000"
                            }
                        ],
                        "signature": "Transfer(address,address,uint256)"
                    },
                    "id": 1,
                    "logData": "0x00000000000000000000000000000000000000000000000000000b5e620f4800",
                    "logDecoded": true,
                    "operation": "EVENT",
                    "revert": false,
                    "status": true,
                    "topics": [
                        "0xddf252ad1be2c89b69c2b068fc378daa952ba7f163c4a11628f55a4df523b3ef",
                        "0x000000000000000000000000923c90b98ee834d118c85ddf44906ee1769df648",
                        "0x00000000000000000000000030cfc524ed0fc52338d84ecd42559a3cbcd16c99"
                    ]
                },
                "nodeType": 1
            },
            "2": {
                "event": {
                    "contract": "0x923c90b98ee834d118c85ddf44906ee1769df648",
                    "decodedLog": {
                        "name": "Transfer",
                        "params": [
                            {
                                "name": "from",
                                "type": "address",
                                "value": "0x923c90b98ee834d118c85ddf44906ee1769df648"
                            },
                            {
                                "name": "to",
                                "type": "address",
                                "value": "0xc0370a30edccad5d494bbda59848e09a3141d812"
                            },
                            {
                                "decimalAvailable": true,
                                "name": "tokens",
                                "type": "uint256",
                                "value": "25,000,000,000,000"
                            }
                        ],
                        "signature": "Transfer(address,address,uint256)"
                    },
                    "id": 2,
                    "logData": "0x000000000000000000000000000000000000000000000000000016bcc41e9000",
                    "logDecoded": true,
                    "operation": "EVENT",
                    "revert": false,
                    "status": true,
                    "topics": [
                        "0xddf252ad1be2c89b69c2b068fc378daa952ba7f163c4a11628f55a4df523b3ef",
                        "0x000000000000000000000000923c90b98ee834d118c85ddf44906ee1769df648",
                        "0x000000000000000000000000c0370a30edccad5d494bbda59848e09a3141d812"
                    ]
                },
                "nodeType": 1
            }
        },
        "gasFlame": [
            {
                "children": [
                    {
                        "children": [
                            {
                                "children": [],
                                "depth": 0,
                                "name": "Initial Gas",
                                "value": 21432
                            },
                            {
                                "children": [],
                                "depth": 0,
                                "name": "Executed Gas",
                                "value": 38964
                            }
                        ],
                        "depth": -1,
                        "name": "Actual Gas Used",
                        "value": 60396
                    },
                    {
                        "children": [],
                        "depth": -1,
                        "name": "Refunded Gas",
                        "value": 0
                    }
                ],
                "depth": -2,
                "name": "Total Gas",
                "value": 60396
            }
        ],
        "isConfirmed": true,
        "mainTrace": [
            {
                "children": [
                    {
                        "children": [
                            {
                                "children": [],
                                "depth": 1,
                                "id": 1,
                                "order": 1
                            },
                            {
                                "children": [],
                                "depth": 1,
                                "id": 2,
                                "order": 2
                            }
                        ],
                        "depth": 0,
                        "id": 0,
                        "order": 0
                    }
                ],
                "depth": -1,
                "id": -1,
                "order": -1
            }
        ],
        "mainTraceNodeCount": 3,
        "parentIdMap": {
            "0": -1,
            "1": 0,
            "2": 0
        },
        "tidyTrace": [
            {
                "children": [
                    {
                        "children": [
                            {
                                "children": [],
                                "depth": 1,
                                "id": 1,
                                "order": 1
                            },
                            {
                                "children": [],
                                "depth": 1,
                                "id": 2,
                                "order": 2
                            }
                        ],
                        "depth": 0,
                        "id": 0,
                        "order": 0
                    }
                ],
                "depth": -1,
                "id": -1,
                "order": -1
            }
        ],
        "tidyTraceNodeCount": 3
    },
    "state_change": {
        "stateChanges": [
            {
                "address": "0x923c90b98ee834d118c85ddf44906ee1769df648",
                "erc": "ERC-20",
                "slots": [
                    {
                        "current": "0x000000000000000000000000000000000000000000000004f64f4ae94737f4b3",
                        "key": "0xd47b7a6c191130aee8766331d37dfea5161e485881d7e0cb3469e5ff7cf7fdee",
                        "prev": "0x000000000000000000000000000000000000000000000004f64f6d046d65ccb3"
                    },
                    {
                        "current": "0x000000000000000000000000000000000000000000000000001d27b690f24fbf",
                        "key": "0x313a32fbec34a6b845908be96d321d3e73be3a3d49f58b17849b053e67bebc06",
                        "prev": "0x000000000000000000000000000000000000000000000000001d1c582ee307bf"
                    },
                    {
                        "current": "0x0000000000000000000000000000000000000000000000000000886c98b76000",
                        "key": "0x9d99e759b8e0d02f597dde4876647d056127ccb9abf26f26e0cd1af2dcc84e34",
                        "prev": "0x000000000000000000000000000000000000000000000000000071afd498d000"
                    },
                    {
                        "current": "0x000000000000000000000000000000000000000000000000000000000000630f",
                        "key": "0x000000000000000000000000000000000000000000000000000000000000000b",
                        "prev": "0x000000000000000000000000000000000000000000000000000000000000630e"
                    }
                ],
                "storageVariables": [
                    {
                        "name": "balances",
                        "type": "mapping(address => uint256)",
                        "value": {
                            "pairs": [
                                {
                                    "key": "0x30cfc524ed0fc52338d84ecd42559a3cbcd16c99",
                                    "value": {
                                        "current": "8206439393939391",
                                        "prev": "8193939393939391",
                                        "typeTag": 1
                                    }
                                },
                                {
                                    "key": "0x923c90b98ee834d118c85ddf44906ee1769df648",
                                    "value": {
                                        "current": "91535463317111305395",
                                        "prev": "91535500817111305395",
                                        "typeTag": 1
                                    }
                                },
                                {
                                    "key": "0xc0370a30edccad5d494bbda59848e09a3141d812",
                                    "value": {
                                        "current": "150000000000000",
                                        "prev": "125000000000000",
                                        "typeTag": 1
                                    }
                                }
                            ],
                            "typeTag": 4
                        }
                    },
                    {
                        "name": "aTot",
                        "type": "uint256",
                        "value": {
                            "current": "25359",
                            "prev": "25358",
                            "typeTag": 1
                        }
                    }
                ]
            }
        ]
    }
}