{
    "balance_change": {
        "balanceChanges": [
            {
                "account": "0x98c3d3183c4b8a650614ad179a1a98be0a8d6b8e",
                "assets": [
                    {
                        "address": "0x1776e1f26f98b1a5df9cd347953a26dd3cb46671",
                        "amount": "778.4",
                        "iconUrl": "https://assets.blocksec.com/icon/e994479c0503113a9ee7bfc586c080c5c9b07aa1649a265110aeb6db8bde96df.png",
                        "isERC1155": false,
                        "isERC721": false,
                        "sign": false,
                        "value": "14579.432000000000333"
                    }
                ]
            },
            {
                "account": "0x193f65e898d60a4c3d89f8aef11ba35d1bda4e47",
                "assets": [
                    {
                        "address": "0x1776e1f26f98b1a5df9cd347953a26dd3cb46671",
                        "amount": "778.4",
                        "iconUrl": "https://assets.blocksec.com/icon/e994479c0503113a9ee7bfc586c080c5c9b07aa1649a265110aeb6db8bde96df.png",
                        "isERC1155": false,
                        "isERC721": false,
                        "sign": true,
                        "value": "14579.432000000000333"
                    }
                ]
            }
        ]
    },
    "profile": {
        "basic_info": {
            "baseFee": "20.410133258",
            "blockNumber": 17002420,
            "callData": "0xef61a6db0000000000000000000000001776e1f26f98b1a5df9cd347953a26dd3cb4667100000000000000000000000000000000000000000000002a327853dc2c100000",
            "debugEnable": true,
            "errorInfo": "",
            "eventCount": 1,
            "feeRecipient": "0x24d6c74d811cfde65995ed26fd08af445f8aab06",
            "formatValue": "0",
            "gasLimit": 400000,
            "gasPrice": "24.410133258",
            "gasUsed": 65107,
            "intTxnCount": 2,
            "internalRevert": false,
            "internalRevertMessage": "",
            "isContractCreation": false,
            "isFlashloan": false,
            "maxFee": "45.170986366",
            "nonce": 23495,
            "overwritedBlockNumber": -1,
            "priorityFee": "4",
            "receiver": "0x98c3d3183c4b8a650614ad179a1a98be0a8d6b8e",
            "revertMessage": "",
            "sender": "0x5a16d47bfd662ba92774e4cbf221beb9aff92220",
            "simulationEnable": true,
            "sourceTxnHash": "0x3eee5016fe8391970102b16f1ea991ca8b17e0371e93ed8333a1387ec27d5edf",
            "status": true,
            "timestamp": "2023-04-08T08:12:23Z",
            "transactionFee": "0.001589270546028606",
            "txnHash": "0x3eee5016fe8391970102b16f1ea991ca8b17e0371e93ed8333a1387ec27d5edf",
            "txnIndex": 9,
            "type": 2,
            "value": "0"
        },
        "fund_flow": [
            {
                "amount": "778.4",
                "from": "0x98c3d3183c4b8a650614ad179a1a98be0a8d6b8e",
                "id": 1,
                "isERC1155": false,
                "isERC721": false,
                "isReverted": false,
                "order": 1,
                "to": "0x193f65e898d60a4c3d89f8aef11ba35d1bda4e47",
                "token": "0x1776e1f26f98b1a5df9cd347953a26dd3cb46671"
            }
        ],
        "token_infos": [
            {
                "address": "0x1776e1f26f98b1a5df9cd347953a26dd3cb46671",
                "decimals": 18
            },
            {
                "address": "0xc02aaa39b223fe8d0a0e5c4f27ead9083c756cc2",
                "decimals": 18
            },
            {
                "address": "0xeeeeeeeeeeeeeeeeeeeeeeeeeeeeeeeeeeeeeeee",
                "decimals": 18
            }
        ]
    },
    "address_label": {
        "labels": [
            {
                "address": "0x0000000000000000000000000000000000000001",
                "label": "Precompiled"
            },
            {
                "address": "0x0000000000000000000000000000000000000002",
                "label": "Precompiled"
            },
            {
                "address": "0x0000000000000000000000000000000000000003",
                "label": "Precompiled"
            },
            {
                "address": "0x0000000000000000000000000000000000000004",
                "label": "Precompiled"
            },
            {
                "address": "0xeeeeeeeeeeeeeeeeeeeeeeeeeeeeeeeeeeeeeeee",
                "label": "Ether"
            },
            {
                "address": "0x1776e1f26f98b1a5df9cd347953a26dd3cb46671",
                "label": "Numeraire: NMR Token"
            },
            {
                "address": "0x98c3d3183c4b8a650614ad179a1a98be0a8d6b8e",
                "label": "MEV Bot: 0x98c...b8e"
            },
            {
                "address": "0x193f65e898d60a4c3d89f8aef11ba35d1bda4e47",
                "label": "BINANCE"
            }
        ]
    },
    "trace": {
        "accountLabels": null,
        "dataMap": {
            "-1": {
                "invocation": {
                    "address": "0x5a16d47bfd662ba92774e4cbf221beb9aff92220",
                    "callData": "",
                    "decodedMethod": null,
                    "errorInfo": "",
                    "fromAddress": "",
                    "gasUsed": 0,
                    "id": -1,
                    "methodDecoded": false,
                    "operation": "",
                    "output": "",
                    "revert": false,
                    "revertMessage": "",
                    "selector": "",
                    "status": false,
                    "value": ""
                },
                "nodeType": 0
            },
            "0": {
                "invocation": {
                    "address": "0x98c3d3183c4b8a650614ad179a1a98be0a8d6b8e",
                    "callData": "0x0000000000000000000000001776e1f26f98b1a5df9cd347953a26dd3cb4667100000000000000000000000000000000000000000000002a327853dc2c100000",
                    "decodedMethod": null,
                    "errorInfo": "",
                    "fromAddress": "0x5a16d47bfd662ba92774e4cbf221beb9aff92220",
                    "gasUsed": 65107,
                    "id": 0,
                    "methodDecoded": false,
                    "operation": "CALL",
                    "output": "",
                    "revert": false,
                    "revertMessage": "",
                    "selector": "0xef61a6db",
                    "status": true,
                    "value": "0"
                },
                "nodeType": 0
            },
            "1": {
                "invocation": {
                    "address": "0x1776e1f26f98b1a5df9cd347953a26dd3cb46671",
                    "callData": "0x00000000000000000000000098c3d3183c4b8a650614ad179a1a98be0a8d6b8e",
                    "decodedMethod": {
                        "callParams": [
                            {
                                "name": "",
                                "type": "address",
                                "value": "0x98c3d3183c4b8a650614ad179a1a98be0a8d6b8e"
                            }
                        ],
                        "constructorArguments": "",
                        "name": "balanceOf",
                        "returnParams": [
                            {
                                "decimalAvailable": true,
                                "name": "",
                                "type": "uint256",
                                "value": "1,568,285,305,032,536,641,251"
                            }
                        ],
                        "signature": "balanceOf(address)"
                    },
                    "errorInfo": "",
                    "fromAddress": "0x98c3d3183c4b8a650614ad179a1a98be0a8d6b8e",
                    "gasUsed": 2813,
                    "id": 1,
                    "methodDecoded": true,
                    "operation": "STATICCALL",
                    "output": "0x0000000000000000000000000000000000000000000000550454a7cba17a4ee3",
                    "revert": false,
                    "revertMessage": "",
                    "selector": "0x70a08231",
                    "status": true,
                    "value": "0"
                },
                "nodeType": 0
            },
            "2": {
                "invocation": {
                    "address": "0x1776e1f26f98b1a5df9cd347953a26dd3cb46671",
                    "callData": "0x000000000000000000000000193f65e898d60a4c3d89f8aef11ba35d1bda4e4700000000000000000000000000000000000000000000002a327853dc2c100000",
                    "decodedMethod": {
                        "callParams": [
                            {
                                "name": "_to",
                                "type": "address",
                                "value": "0x193f65e898d60a4c3d89f8aef11ba35d1bda4e47"
                            },
                            {
                                "decimalAvailable": true,
                                "name": "_value",
                                "type": "uint256",
                                "value": "778,400,000,000,000,000,000"
                            }
                        ],
                        "constructorArguments": "",
                        "name": "transfer",
                        "returnParams": [
                            {
                                "name": "ok",
                                "type": "bool",
                                "value": true
                            }
                        ],
                        "signature": "transfer(address,uint256)"
                    },
                    "errorInfo": "",
                    "fromAddress": "0x98c3d3183c4b8a650614ad179a1a98be0a8d6b8e",
                    "gasUsed": 31270,
                    "id": 2,
                    "methodDecoded": true,
                    "operation": "CALL",
                    "output": "0x0000000000000000000000000000000000000000000000000000000000000001",
                    "revert": false,
                    "revertMessage": "",
                    "selector": "0xa9059cbb",
                    "status": true,
                    "value": "0"
                },
                "nodeType": 0
            },
            "3": {
                "event": {
                    "contract": "0x1776e1f26f98b1a5df9cd347953a26dd3cb46671",
                    "decodedLog": {
                        "name": "Transfer",
                        "params": [
                            {
                                "name": "from",
                                "type": "address",
                                "value": "0x98c3d3183c4b8a650614ad179a1a98be0a8d6b8e"
                            },
                            {
                                "name": "to",
                                "type": "address",
                                "value": "0x193f65e898d60a4c3d89f8aef11ba35d1bda4e47"
                            },
                            {
                                "decimalAvailable": true,
                                "name": "value",
                                "type": "uint256",
                                "value": "778,400,000,000,000,000,000"
                            }
                        ],
                        "signature": "Transfer(address,address,uint256)"
                    },
                    "id": 3,
                    "logData": "0x00000000000000000000000000000000000000000000002a327853dc2c100000",
                    "logDecoded": true,
                    "operation": "EVENT",
                    "revert": false,
                    "status": true,
                    "topics": [
                        "0xddf252ad1be2c89b69c2b068fc378daa952ba7f163c4a11628f55a4df523b3ef",
                        "0x00000000000000000000000098c3d3183c4b8a650614ad179a1a98be0a8d6b8e",
                        "0x000000000000000000000000193f65e898d60a4c3d89f8aef11ba35d1bda4e47"
                    ]
                },
                "nodeType": 1
            }
        },
        "gasFlame": [
            {
                "children": [
                    {
                        "children": [
                            {
                                "children": [],
                                "depth": 0,
                                "name": "Initial Gas",
                                "value": 21644
                            },
                            {
                                "children": [
                                    {
                                        "children": [],
                                        "depth": 1,
                                        "name": "balanceOf",
                                        "value": 2813
                                    },
                                    {
                                        "children": [],
                                        "depth": 1,
                                        "name": "transfer",
                                        "value": 31270
                                    }
                                ],
                                "depth": 0,
                                "name": "Executed Gas",
                                "value": 43463
                            }
                        ],
                        "depth": -1,
                        "name": "Actual Gas Used",
                        "value": 65107
                    },
                    {
                        "children": [],
                        "depth": -1,
                        "name": "Refunded Gas",
                        "value": 0
                    }
                ],
                "depth": -2,
                "name": "Total Gas",
                "value": 65107
            }
        ],
        "isConfirmed": true,
        "mainTrace": [
            {
                "children": [
                    {
                        "children": [
                            {
                                "children": [],
                                "depth": 1,
                                "id": 1,
                                "order": 1
                            },
                            {
                                "children": [
                                    {
                                        "children": [],
                                        "depth": 2,
                                        "id": 3,
                                        "order": 3
                                    }
                                ],
                                "depth": 1,
                                "id": 2,
                                "order": 2
                            }
                        ],
                        "depth": 0,
                        "id": 0,
                        "order": 0
                    }
                ],
                "depth": -1,
                "id": -1,
                "order": -1
            }
        ],
        "mainTraceNodeCount": 4,
        "parentIdMap": {
            "0": -1,
            "1": 0,
            "2": 0,
            "3": 2
        },
        "tidyTrace": [
            {
                "children": [
                    {
                        "children": [
                            {
                                "children": [
                                    {
                                        "children": [],
                                        "depth": 2,
                                        "id": 3,
                                        "order": 3
                                    }
                                ],
                                "depth": 1,
                                "id": 2,
                                "order": 2
                            }
                        ],
                        "depth": 0,
                        "id": 0,
                        "order": 0
                    }
                ],
                "depth": -1,
                "id": -1,
                "order": -1
            }
        ],
        "tidyTraceNodeCount": 3
    },
    "state_change": {
        "stateChanges": [
            {
                "address": "0x1776e1f26f98b1a5df9cd347953a26dd3cb46671",
                "erc": "ERC-20",
                "slots": [
                    {
                        "current": "0x00000000000000000000000000000000000000000000002ad1dc53ef756a4ee3",
                        "key": "0xc20251aed773a809ab939bc2ba6ffb3cd1d7886341084cb493d9d04cb24f521d",
                        "prev": "0x0000000000000000000000000000000000000000000000550454a7cba17a4ee3"
                    },
                    {
                        "current": "0x00000000000000000000000000000000000000000000002a327853dc2c100000",
                        "key": "0x7a9b0f6c71b6027846bce2264ffc43c1bad1b287a45bb92672d66b7cb6f70e6a",
                        "prev": "0x0000000000000000000000000000000000000000000000000000000000000000"
                    }
                ],
                "storageVariables": []
            }
        ]
    }
}