{
    "balance_change": {
        "balanceChanges": [
            {
                "account": "0x01a8cfdd1ce10c57d69e76770983a8d34591f78f",
                "assets": [
                    {
                        "address": "0xeeeeeeeeeeeeeeeeeeeeeeeeeeeeeeeeeeeeeeee",
                        "amount": "0.02",
                        "iconUrl": "https://assets.blocksec.com/image/1663669189317-3.png",
                        "isERC1155": false,
                        "isERC721": false,
                        "sign": false,
                        "value": "31.262399999999997817"
                    },
                    {
                        "address": "0x80da0c87f68e63618b86e11ee62d237a4a8e1bce",
                        "amount": "624.658536664084892562",
                        "iconUrl": "",
                        "isERC1155": false,
                        "isERC721": false,
                        "sign": true,
                        "value": "29.42015331"
                    }
                ]
            },
            {
                "account": "0x000000000000000000000000000000000000dead",
                "assets": [
                    {
                        "address": "0x80da0c87f68e63618b86e11ee62d237a4a8e1bce",
                        "amount": "19.520579270752652892",
                        "iconUrl": "",
                        "isERC1155": false,
                        "isERC721": false,
                        "sign": true,
                        "value": "0.92292766"
                    }
                ]
            },
            {
                "account": "0x80da0c87f68e63618b86e11ee62d237a4a8e1bce",
                "assets": [
                    {
                        "address": "0x80da0c87f68e63618b86e11ee62d237a4a8e1bce",
                        "amount": "6.506859756917550964",
                        "iconUrl": "",
                        "isERC1155": false,
                        "isERC721": false,
                        "sign": true,
                        "value": "0.30769055"
                    }
                ]
            },
            {
                "account": "0xc02aaa39b223fe8d0a0e5c4f27ead9083c756cc2",
                "assets": [
                    {
                        "address": "0xeeeeeeeeeeeeeeeeeeeeeeeeeeeeeeeeeeeeeeee",
                        "amount": "0.02",
                        "iconUrl": "https://assets.blocksec.com/image/1663669189317-3.png",
                        "isERC1155": false,
                        "isERC721": false,
                        "sign": true,
                        "value": "31.262399999999997817"
                    },
                    {
                        "address": "0xc02aaa39b223fe8d0a0e5c4f27ead9083c756cc2",
                        "amount": "0.02",
                        "iconUrl": "https://assets.blocksec.com/icon/f1cb2d02c471d545bbc7722daf3277fd852d98e63d118771af7047bd8256c516.png",
                        "isERC1155": false,
                        "isERC721": false,
                        "sign": false,
                        "value": "31.262399999999997817"
                    }
                ]
            },
            {
                "account": "0xef9e3d25389afe6da2ade911ef1caee30530cdde",
                "assets": [
                    {
                        "address": "0xc02aaa39b223fe8d0a0e5c4f27ead9083c756cc2",
                        "amount": "0.02",
                        "iconUrl": "https://assets.blocksec.com/icon/f1cb2d02c471d545bbc7722daf3277fd852d98e63d118771af7047bd8256c516.png",
                        "isERC1155": false,
                        "isERC721": false,
                        "sign": true,
                        "value": "31.262399999999997817"
                    },
                    {
                        "address": "0x80da0c87f68e63618b86e11ee62d237a4a8e1bce",
                        "amount": "650.685975691755096418",
                        "iconUrl": "",
                        "isERC1155": false,
                        "isERC721": false,
                        "sign": false,
                        "value": "30.89102291"
                    }
                ]
            }
        ]
    },
    "profile": {
        "basic_info": {
            "baseFee": "12.417799672",
            "blockNumber": 18385776,
            "callData": "0xb6f9de95000000000000000000000000000000000000000000000018b10ead2fccdd79c4000000000000000000000000000000000000000000000000000000000000008000000000000000000000000001a8cfdd1ce10c57d69e76770983a8d34591f78f00000000000000000000000000000000000000000000000000000000653163590000000000000000000000000000000000000000000000000000000000000002000000000000000000000000c02aaa39b223fe8d0a0e5c4f27ead9083c756cc200000000000000000000000080da0c87f68e63618b86e11ee62d237a4a8e1bce",
            "debugEnable": true,
            "errorInfo": "",
            "eventCount": 7,
            "feeRecipient": "0x1f9090aae28b8a3dceadf281b0f12828e676c326",
            "formatValue": "0.02",
            "gasLimit": 333098,
            "gasPrice": "15.417799672",
            "gasUsed": 196336,
            "intTxnCount": 10,
            "internalRevert": false,
            "internalRevertMessage": "",
            "isContractCreation": false,
            "isFlashloan": false,
            "maxFee": "21.626699508",
            "nonce": 298,
            "overwritedBlockNumber": -1,
            "priorityFee": "3",
            "receiver": "0x7a250d5630b4cf539739df2c5dacb4c659f2488d",
            "revertMessage": "",
            "sender": "0x01a8cfdd1ce10c57d69e76770983a8d34591f78f",
            "simulationEnable": true,
            "sourceTxnHash": "0x3e3301b43d26e7cde97bed75bf5f94592293a8028ce492dccdde14abb7c8f7ee",
            "status": true,
            "timestamp": "2023-10-19T17:09:59Z",
            "transactionFee": "0.003027069116401792",
            "txnHash": "0x3e3301b43d26e7cde97bed75bf5f94592293a8028ce492dccdde14abb7c8f7ee",
            "txnIndex": 23,
            "type": 2,
            "value": "20000000000000000"
        },
        "fund_flow": [
            {
                "amount": "0.02",
                "from": "0x01a8cfdd1ce10c57d69e76770983a8d34591f78f",
                "id": 1,
                "isERC1155": false,
                "isERC721": false,
                "isReverted": false,
                "order": 1,
                "to": "0x7a250d5630b4cf539739df2c5dacb4c659f2488d",
                "token": "0xeeeeeeeeeeeeeeeeeeeeeeeeeeeeeeeeeeeeeeee"
            },
            {
                "amount": "0.02",
                "from": "0x7a250d5630b4cf539739df2c5dacb4c659f2488d",
                "id": 2,
                "isERC1155": false,
                "isERC721": false,
                "isReverted": false,
                "order": 2,
                "to": "0xc02aaa39b223fe8d0a0e5c4f27ead9083c756cc2",
                "token": "0xeeeeeeeeeeeeeeeeeeeeeeeeeeeeeeeeeeeeeeee"
            },
            {
                "amount": "0.02",
                "from": "0xc02aaa39b223fe8d0a0e5c4f27ead9083c756cc2",
                "id": 3,
                "isERC1155": false,
                "isERC721": false,
                "isReverted": false,
                "order": 3,
                "to": "0x7a250d5630b4cf539739df2c5dacb4c659f2488d",
                "token": "0xc02aaa39b223fe8d0a0e5c4f27ead9083c756cc2"
            },
            {
                "amount": "0.02",
                "from": "0x7a250d5630b4cf539739df2c5dacb4c659f2488d",
                "id": 4,
                "isERC1155": false,
                "isERC721": false,
                "isReverted": false,
                "order": 4,
                "to": "0xef9e3d25389afe6da2ade911ef1caee30530cdde",
                "token": "0xc02aaa39b223fe8d0a0e5c4f27ead9083c756cc2"
            },
            {
                "amount": "6.506859756917550964",
                "from": "0xef9e3d25389afe6da2ade911ef1caee30530cdde",
                "id": 5,
                "isERC1155": false,
                "isERC721": false,
                "isReverted": false,
                "order": 5,
                "to": "0x80da0c87f68e63618b86e11ee62d237a4a8e1bce",
                "token": "0x80da0c87f68e63618b86e11ee62d237a4a8e1bce"
            },
            {
                "amount": "19.520579270752652892",
                "from": "0xef9e3d25389afe6da2ade911ef1caee30530cdde",
                "id": 6,
                "isERC1155": false,
                "isERC721": false,
                "isReverted": false,
                "order": 6,
                "to": "0x000000000000000000000000000000000000dead",
                "token": "0x80da0c87f68e63618b86e11ee62d237a4a8e1bce"
            },
            {
                "amount": "624.658536664084892562",
                "from": "0xef9e3d25389afe6da2ade911ef1caee30530cdde",
                "id": 7,
                "isERC1155": false,
                "isERC721": false,
                "isReverted": false,
                "order": 7,
                "to": "0x01a8cfdd1ce10c57d69e76770983a8d34591f78f",
                "token": "0x80da0c87f68e63618b86e11ee62d237a4a8e1bce"
            }
        ],
        "token_infos": [
            {
                "address": "0x80da0c87f68e63618b86e11ee62d237a4a8e1bce",
                "decimals": 18
            },
            {
                "address": "0xc02aaa39b223fe8d0a0e5c4f27ead9083c756cc2",
                "decimals": 18
            },
            {
                "address": "0xeeeeeeeeeeeeeeeeeeeeeeeeeeeeeeeeeeeeeeee",
                "decimals": 18
            }
        ]
    },
    "address_label": {
        "labels": [
            {
                "address": "0xef9e3d25389afe6da2ade911ef1caee30530cdde",
                "label": "UNI-V2"
            },
            {
                "address": "0x0000000000000000000000000000000000000004",
                "label": "Precompiled"
            },
            {
                "address": "0xeeeeeeeeeeeeeeeeeeeeeeeeeeeeeeeeeeeeeeee",
                "label": "Ether"
            },
            {
                "address": "0xc02aaa39b223fe8d0a0e5c4f27ead9083c756cc2",
                "label": "Wrapped Ether (WETH)"
            },
            {
                "address": "0x0000000000000000000000000000000000000001",
                "label": "Precompiled"
            },
            {
                "address": "0x0000000000000000000000000000000000000002",
                "label": "Precompiled"
            },
            {
                "address": "0x0000000000000000000000000000000000000003",
                "label": "Precompiled"
            },
            {
                "address": "0x7a250d5630b4cf539739df2c5dacb4c659f2488d",
                "label": "Uniswap V2: Router 2"
            },
            {
                "address": "0x80da0c87f68e63618b86e11ee62d237a4a8e1bce",
                "label": "BLACKHOLE (BLACKHOLE)"
            }
        ]
    },
    "trace": {
        "accountLabels": null,
        "dataMap": {
            "-1": {
                "invocation": {
                    "address": "0x01a8cfdd1ce10c57d69e76770983a8d34591f78f",
                    "callData": "",
                    "decodedMethod": null,
                    "errorInfo": "",
                    "fromAddress": "",
                    "gasUsed": 0,
                    "id": -1,
                    "methodDecoded": false,
                    "operation": "",
                    "output": "",
                    "revert": false,
                    "revertMessage": "",
                    "selector": "",
                    "status": false,
                    "value": ""
                },
                "nodeType": 0
            },
            "0": {
                "invocation": {
                    "address": "0x7a250d5630b4cf539739df2c5dacb4c659f2488d",
                    "callData": "0x000000000000000000000000000000000000000000000018b10ead2fccdd79c4000000000000000000000000000000000000000000000000000000000000008000000000000000000000000001a8cfdd1ce10c57d69e76770983a8d34591f78f00000000000000000000000000000000000000000000000000000000653163590000000000000000000000000000000000000000000000000000000000000002000000000000000000000000c02aaa39b223fe8d0a0e5c4f27ead9083c756cc200000000000000000000000080da0c87f68e63618b86e11ee62d237a4a8e1bce",
                    "decodedMethod": {
                        "callParams": [
                            {
                                "name": "amountOutMin",
                                "type": "uint256",
                                "value": "455,480,182,984,228,567,492"
                            },
                            {
                                "name": "path",
                                "type": "address[]",
                                "value": [
                                    "0xc02aaa39b223fe8d0a0e5c4f27ead9083c756cc2",
                                    "0x80da0c87f68e63618b86e11ee62d237a4a8e1bce"
                                ]
                            },
                            {
                                "name": "to",
                                "type": "address",
                                "value": "0x01a8cfdd1ce10c57d69e76770983a8d34591f78f"
                            },
                            {
                                "name": "deadline",
                                "type": "uint256",
                                "value": "1,697,735,513"
                            }
                        ],
                        "constructorArguments": "",
                        "name": "swapExactETHForTokensSupportingFeeOnTransferTokens",
                        "returnParams": [],
                        "signature": "swapExactETHForTokensSupportingFeeOnTransferTokens(uint256,address[],address,uint256)"
                    },
                    "errorInfo": "",
                    "fromAddress": "0x01a8cfdd1ce10c57d69e76770983a8d34591f78f",
                    "gasUsed": 196336,
                    "id": 0,
                    "methodDecoded": true,
                    "operation": "CALL",
                    "output": "",
                    "revert": false,
                    "revertMessage": "",
                    "selector": "0xb6f9de95",
                    "status": true,
                    "value": "0.02"
                },
                "nodeType": 0
            },
            "1": {
                "invocation": {
                    "address": "0xc02aaa39b223fe8d0a0e5c4f27ead9083c756cc2",
                    "callData": "0x",
                    "decodedMethod": {
                        "callParams": [],
                        "constructorArguments": "",
                        "name": "deposit",
                        "returnParams": [],
                        "signature": "deposit()"
                    },
                    "errorInfo": "",
                    "fromAddress": "0x7a250d5630b4cf539739df2c5dacb4c659f2488d",
                    "gasUsed": 23974,
                    "id": 1,
                    "methodDecoded": true,
                    "operation": "CALL",
                    "output": "",
                    "revert": false,
                    "revertMessage": "",
                    "selector": "0xd0e30db0",
                    "status": true,
                    "value": "0.02"
                },
                "nodeType": 0
            },
            "10": {
                "event": {
                    "contract": "0x80da0c87f68e63618b86e11ee62d237a4a8e1bce",
                    "decodedLog": {
                        "name": "Transfer",
                        "params": [
                            {
                                "name": "from",
                                "type": "address",
                                "value": "0xef9e3d25389afe6da2ade911ef1caee30530cdde"
                            },
                            {
                                "name": "to",
                                "type": "address",
                                "value": "0x80da0c87f68e63618b86e11ee62d237a4a8e1bce"
                            },
                            {
                                "decimalAvailable": true,
                                "name": "value",
                                "type": "uint256",
                                "value": "6,506,859,756,917,550,964"
                            }
                        ],
                        "signature": "Transfer(address,address,uint256)"
                    },
                    "id": 10,
                    "logData": "0x0000000000000000000000000000000000000000000000005a4d02795e5aef74",
                    "logDecoded": true,
                    "operation": "EVENT",
                    "revert": false,
                    "status": true,
                    "topics": [
                        "0xddf252ad1be2c89b69c2b068fc378daa952ba7f163c4a11628f55a4df523b3ef",
                        "0x000000000000000000000000ef9e3d25389afe6da2ade911ef1caee30530cdde",
                        "0x00000000000000000000000080da0c87f68e63618b86e11ee62d237a4a8e1bce"
                    ]
                },
                "nodeType": 1
            },
            "11": {
                "event": {
                    "contract": "0x80da0c87f68e63618b86e11ee62d237a4a8e1bce",
                    "decodedLog": {
                        "name": "Transfer",
                        "params": [
                            {
                                "name": "from",
                                "type": "address",
                                "value": "0xef9e3d25389afe6da2ade911ef1caee30530cdde"
                            },
                            {
                                "name": "to",
                                "type": "address",
                                "value": "0x000000000000000000000000000000000000dead"
                            },
                            {
                                "decimalAvailable": true,
                                "name": "value",
                                "type": "uint256",
                                "value": "19,520,579,270,752,652,892"
                            }
                        ],
                        "signature": "Transfer(address,address,uint256)"
                    },
                    "id": 11,
                    "logData": "0x0000000000000000000000000000000000000000000000010ee7076c1b10ce5c",
                    "logDecoded": true,
                    "operation": "EVENT",
                    "revert": false,
                    "status": true,
                    "topics": [
                        "0xddf252ad1be2c89b69c2b068fc378daa952ba7f163c4a11628f55a4df523b3ef",
                        "0x000000000000000000000000ef9e3d25389afe6da2ade911ef1caee30530cdde",
                        "0x000000000000000000000000000000000000000000000000000000000000dead"
                    ]
                },
                "nodeType": 1
            },
            "12": {
                "event": {
                    "contract": "0x80da0c87f68e63618b86e11ee62d237a4a8e1bce",
                    "decodedLog": {
                        "name": "Transfer",
                        "params": [
                            {
                                "name": "from",
                                "type": "address",
                                "value": "0xef9e3d25389afe6da2ade911ef1caee30530cdde"
                            },
                            {
                                "name": "to",
                                "type": "address",
                                "value": "0x01a8cfdd1ce10c57d69e76770983a8d34591f78f"
                            },
                            {
                                "decimalAvailable": true,
                                "name": "value",
                                "type": "uint256",
                                "value": "624,658,536,664,084,892,562"
                            }
                        ],
                        "signature": "Transfer(address,address,uint256)"
                    },
                    "id": 12,
                    "logData": "0x000000000000000000000000000000000000000000000021dce0ed836219cb92",
                    "logDecoded": true,
                    "operation": "EVENT",
                    "revert": false,
                    "status": true,
                    "topics": [
                        "0xddf252ad1be2c89b69c2b068fc378daa952ba7f163c4a11628f55a4df523b3ef",
                        "0x000000000000000000000000ef9e3d25389afe6da2ade911ef1caee30530cdde",
                        "0x00000000000000000000000001a8cfdd1ce10c57d69e76770983a8d34591f78f"
                    ]
                },
                "nodeType": 1
            },
            "13": {
                "invocation": {
                    "address": "0x80da0c87f68e63618b86e11ee62d237a4a8e1bce",
                    "callData": "0x000000000000000000000000ef9e3d25389afe6da2ade911ef1caee30530cdde",
                    "decodedMethod": {
                        "callParams": [
                            {
                                "name": "account",
                                "type": "address",
                                "value": "0xef9e3d25389afe6da2ade911ef1caee30530cdde"
                            }
                        ],
                        "constructorArguments": "",
                        "name": "balanceOf",
                        "returnParams": [
                            {
                                "decimalAvailable": true,
                                "name": "",
                                "type": "uint256",
                                "value": "165,136,238,373,681,672,325,484"
                            }
                        ],
                        "signature": "balanceOf(address)"
                    },
                    "errorInfo": "",
                    "fromAddress": "0xef9e3d25389afe6da2ade911ef1caee30530cdde",
                    "gasUsed": 623,
                    "id": 13,
                    "methodDecoded": true,
                    "operation": "STATICCALL",
                    "output": "0x0000000000000000000000000000000000000000000022f80dacef932621896c",
                    "revert": false,
                    "revertMessage": "",
                    "selector": "0x70a08231",
                    "status": true,
                    "value": "0"
                },
                "nodeType": 0
            },
            "14": {
                "invocation": {
                    "address": "0xc02aaa39b223fe8d0a0e5c4f27ead9083c756cc2",
                    "callData": "0x000000000000000000000000ef9e3d25389afe6da2ade911ef1caee30530cdde",
                    "decodedMethod": {
                        "callParams": [
                            {
                                "name": "",
                                "type": "address",
                                "value": "0xef9e3d25389afe6da2ade911ef1caee30530cdde"
                            }
                        ],
                        "constructorArguments": "",
                        "name": "balanceOf",
                        "returnParams": [
                            {
                                "decimalAvailable": true,
                                "name": "",
                                "type": "uint256",
                                "value": "5,080,531,064,420,997,228"
                            }
                        ],
                        "signature": "balanceOf(address)"
                    },
                    "errorInfo": "",
                    "fromAddress": "0xef9e3d25389afe6da2ade911ef1caee30530cdde",
                    "gasUsed": 534,
                    "id": 14,
                    "methodDecoded": true,
                    "operation": "STATICCALL",
                    "output": "0x0000000000000000000000000000000000000000000000004681ac15d526986c",
                    "revert": false,
                    "revertMessage": "",
                    "selector": "0x70a08231",
                    "status": true,
                    "value": "0"
                },
                "nodeType": 0
            },
            "15": {
                "event": {
                    "contract": "0xef9e3d25389afe6da2ade911ef1caee30530cdde",
                    "decodedLog": {
                        "name": "Sync",
                        "params": [
                            {
                                "name": "reserve0",
                                "type": "uint112",
                                "value": "165,136,238,373,681,672,325,484"
                            },
                            {
                                "name": "reserve1",
                                "type": "uint112",
                                "value": "5,080,531,064,420,997,228"
                            }
                        ],
                        "signature": "Sync(uint112,uint112)"
                    },
                    "id": 15,
                    "logData": "0x0000000000000000000000000000000000000000000022f80dacef932621896c0000000000000000000000000000000000000000000000004681ac15d526986c",
                    "logDecoded": true,
                    "operation": "EVENT",
                    "revert": false,
                    "status": true,
                    "topics": [
                        "0x1c411e9a96e071241c2f21f7726b17ae89e3cab4c78be50e062b03a9fffbbad1"
                    ]
                },
                "nodeType": 1
            },
            "16": {
                "event": {
                    "contract": "0xef9e3d25389afe6da2ade911ef1caee30530cdde",
                    "decodedLog": {
                        "name": "Swap",
                        "params": [
                            {
                                "name": "sender",
                                "type": "address",
                                "value": "0x7a250d5630b4cf539739df2c5dacb4c659f2488d"
                            },
                            {
                                "name": "to",
                                "type": "address",
                                "value": "0x01a8cfdd1ce10c57d69e76770983a8d34591f78f"
                            },
                            {
                                "name": "amount0In",
                                "type": "uint256",
                                "value": "0"
                            },
                            {
                                "name": "amount1In",
                                "type": "uint256",
                                "value": "20,000,000,000,000,000"
                            },
                            {
                                "name": "amount0Out",
                                "type": "uint256",
                                "value": "650,685,975,691,755,096,418"
                            },
                            {
                                "name": "amount1Out",
                                "type": "uint256",
                                "value": "0"
                            }
                        ],
                        "signature": "Swap(address,uint256,uint256,uint256,uint256,address)"
                    },
                    "id": 16,
                    "logData": "0x000000000000000000000000000000000000000000000000000000000000000000000000000000000000000000000000000000000000000000470de4df8200000000000000000000000000000000000000000000000000234614f768db8589620000000000000000000000000000000000000000000000000000000000000000",
                    "logDecoded": true,
                    "operation": "EVENT",
                    "revert": false,
                    "status": true,
                    "topics": [
                        "0xd78ad95fa46c994b6551d0da85fc275fe613ce37657fb8d5e3d130840159d822",
                        "0x0000000000000000000000007a250d5630b4cf539739df2c5dacb4c659f2488d",
                        "0x00000000000000000000000001a8cfdd1ce10c57d69e76770983a8d34591f78f"
                    ]
                },
                "nodeType": 1
            },
            "17": {
                "invocation": {
                    "address": "0x80da0c87f68e63618b86e11ee62d237a4a8e1bce",
                    "callData": "0x00000000000000000000000001a8cfdd1ce10c57d69e76770983a8d34591f78f",
                    "decodedMethod": {
                        "callParams": [
                            {
                                "name": "account",
                                "type": "address",
                                "value": "0x01a8cfdd1ce10c57d69e76770983a8d34591f78f"
                            }
                        ],
                        "constructorArguments": "",
                        "name": "balanceOf",
                        "returnParams": [
                            {
                                "decimalAvailable": true,
                                "name": "",
                                "type": "uint256",
                                "value": "624,658,536,664,084,892,562"
                            }
                        ],
                        "signature": "balanceOf(address)"
                    },
                    "errorInfo": "",
                    "fromAddress": "0x7a250d5630b4cf539739df2c5dacb4c659f2488d",
                    "gasUsed": 623,
                    "id": 17,
                    "methodDecoded": true,
                    "operation": "STATICCALL",
                    "output": "0x000000000000000000000000000000000000000000000021dce0ed836219cb92",
                    "revert": false,
                    "revertMessage": "",
                    "selector": "0x70a08231",
                    "status": true,
                    "value": "0"
                },
                "nodeType": 0
            },
            "2": {
                "event": {
                    "contract": "0xc02aaa39b223fe8d0a0e5c4f27ead9083c756cc2",
                    "decodedLog": {
                        "name": "Deposit",
                        "params": [
                            {
                                "name": "dst",
                                "type": "address",
                                "value": "0x7a250d5630b4cf539739df2c5dacb4c659f2488d"
                            },
                            {
                                "name": "wad",
                                "type": "uint256",
                                "value": "20,000,000,000,000,000"
                            }
                        ],
                        "signature": "Deposit(address,uint256)"
                    },
                    "id": 2,
                    "logData": "0x00000000000000000000000000000000000000000000000000470de4df820000",
                    "logDecoded": true,
                    "operation": "EVENT",
                    "revert": false,
                    "status": true,
                    "topics": [
                        "0xe1fffcc4923d04b559f4d29a8bfc6cda04eb5b0d3c460751c2402c5c5cc9109c",
                        "0x0000000000000000000000007a250d5630b4cf539739df2c5dacb4c659f2488d"
                    ]
                },
                "nodeType": 1
            },
            "3": {
                "invocation": {
                    "address": "0xc02aaa39b223fe8d0a0e5c4f27ead9083c756cc2",
                    "callData": "0x000000000000000000000000ef9e3d25389afe6da2ade911ef1caee30530cdde00000000000000000000000000000000000000000000000000470de4df820000",
                    "decodedMethod": {
                        "callParams": [
                            {
                                "name": "dst",
                                "type": "address",
                                "value": "0xef9e3d25389afe6da2ade911ef1caee30530cdde"
                            },
                            {
                                "decimalAvailable": true,
                                "name": "wad",
                                "type": "uint256",
                                "value": "20,000,000,000,000,000"
                            }
                        ],
                        "constructorArguments": "",
                        "name": "transfer",
                        "returnParams": [
                            {
                                "name": "",
                                "type": "bool",
                                "value": true
                            }
                        ],
                        "signature": "transfer(address,uint256)"
                    },
                    "errorInfo": "",
                    "fromAddress": "0x7a250d5630b4cf539739df2c5dacb4c659f2488d",
                    "gasUsed": 8062,
                    "id": 3,
                    "methodDecoded": true,
                    "operation": "CALL",
                    "output": "0x0000000000000000000000000000000000000000000000000000000000000001",
                    "revert": false,
                    "revertMessage": "",
                    "selector": "0xa9059cbb",
                    "status": true,
                    "value": "0"
                },
                "nodeType": 0
            },
            "4": {
                "event": {
                    "contract": "0xc02aaa39b223fe8d0a0e5c4f27ead9083c756cc2",
                    "decodedLog": {
                        "name": "Transfer",
                        "params": [
                            {
                                "name": "src",
                                "type": "address",
                                "value": "0x7a250d5630b4cf539739df2c5dacb4c659f2488d"
                            },
                            {
                                "name": "dst",
                                "type": "address",
                                "value": "0xef9e3d25389afe6da2ade911ef1caee30530cdde"
                            },
                            {
                                "decimalAvailable": true,
                                "name": "wad",
                                "type": "uint256",
                                "value": "20,000,000,000,000,000"
                            }
                        ],
                        "signature": "Transfer(address,address,uint256)"
                    },
                    "id": 4,
                    "logData": "0x00000000000000000000000000000000000000000000000000470de4df820000",
                    "logDecoded": true,
                    "operation": "EVENT",
                    "revert": false,
                    "status": true,
                    "topics": [
                        "0xddf252ad1be2c89b69c2b068fc378daa952ba7f163c4a11628f55a4df523b3ef",
                        "0x0000000000000000000000007a250d5630b4cf539739df2c5dacb4c659f2488d",
                        "0x000000000000000000000000ef9e3d25389afe6da2ade911ef1caee30530cdde"
                    ]
                },
                "nodeType": 1
            },
            "5": {
                "invocation": {
                    "address": "0x80da0c87f68e63618b86e11ee62d237a4a8e1bce",
                    "callData": "0x00000000000000000000000001a8cfdd1ce10c57d69e76770983a8d34591f78f",
                    "decodedMethod": {
                        "callParams": [
                            {
                                "name": "account",
                                "type": "address",
                                "value": "0x01a8cfdd1ce10c57d69e76770983a8d34591f78f"
                            }
                        ],
                        "constructorArguments": "",
                        "name": "balanceOf",
                        "returnParams": [
                            {
                                "decimalAvailable": true,
                                "name": "",
                                "type": "uint256",
                                "value": "0"
                            }
                        ],
                        "signature": "balanceOf(address)"
                    },
                    "errorInfo": "",
                    "fromAddress": "0x7a250d5630b4cf539739df2c5dacb4c659f2488d",
                    "gasUsed": 2623,
                    "id": 5,
                    "methodDecoded": true,
                    "operation": "STATICCALL",
                    "output": "0x0000000000000000000000000000000000000000000000000000000000000000",
                    "revert": false,
                    "revertMessage": "",
                    "selector": "0x70a08231",
                    "status": true,
                    "value": "0"
                },
                "nodeType": 0
            },
            "6": {
                "invocation": {
                    "address": "0xef9e3d25389afe6da2ade911ef1caee30530cdde",
                    "callData": "0x",
                    "decodedMethod": {
                        "callParams": [],
                        "constructorArguments": "",
                        "name": "getReserves",
                        "returnParams": [
                            {
                                "name": "_reserve0",
                                "type": "uint112",
                                "value": "165,786,924,349,373,427,421,902"
                            },
                            {
                                "name": "_reserve1",
                                "type": "uint112",
                                "value": "5,060,531,064,420,997,228"
                            },
                            {
                                "name": "_blockTimestampLast",
                                "type": "uint32",
                                "value": "1,697,735,387"
                            }
                        ],
                        "signature": "getReserves()"
                    },
                    "errorInfo": "",
                    "fromAddress": "0x7a250d5630b4cf539739df2c5dacb4c659f2488d",
                    "gasUsed": 2504,
                    "id": 6,
                    "methodDecoded": true,
                    "operation": "STATICCALL",
                    "output": "0x00000000000000000000000000000000000000000000231b53c1e6fc01a712ce000000000000000000000000000000000000000000000000463a9e30f5a4986c00000000000000000000000000000000000000000000000000000000653162db",
                    "revert": false,
                    "revertMessage": "",
                    "selector": "0x0902f1ac",
                    "status": true,
                    "value": "0"
                },
                "nodeType": 0
            },
            "7": {
                "invocation": {
                    "address": "0xc02aaa39b223fe8d0a0e5c4f27ead9083c756cc2",
                    "callData": "0x000000000000000000000000ef9e3d25389afe6da2ade911ef1caee30530cdde",
                    "decodedMethod": {
                        "callParams": [
                            {
                                "name": "",
                                "type": "address",
                                "value": "0xef9e3d25389afe6da2ade911ef1caee30530cdde"
                            }
                        ],
                        "constructorArguments": "",
                        "name": "balanceOf",
                        "returnParams": [
                            {
                                "decimalAvailable": true,
                                "name": "",
                                "type": "uint256",
                                "value": "5,080,531,064,420,997,228"
                            }
                        ],
                        "signature": "balanceOf(address)"
                    },
                    "errorInfo": "",
                    "fromAddress": "0x7a250d5630b4cf539739df2c5dacb4c659f2488d",
                    "gasUsed": 534,
                    "id": 7,
                    "methodDecoded": true,
                    "operation": "STATICCALL",
                    "output": "0x0000000000000000000000000000000000000000000000004681ac15d526986c",
                    "revert": false,
                    "revertMessage": "",
                    "selector": "0x70a08231",
                    "status": true,
                    "value": "0"
                },
                "nodeType": 0
            },
            "8": {
                "invocation": {
                    "address": "0xef9e3d25389afe6da2ade911ef1caee30530cdde",
                    "callData": "0x0000000000000000000000000000000000000000000000234614f768db858962000000000000000000000000000000000000000000000000000000000000000000000000000000000000000001a8cfdd1ce10c57d69e76770983a8d34591f78f00000000000000000000000000000000000000000000000000000000000000800000000000000000000000000000000000000000000000000000000000000000",
                    "decodedMethod": {
                        "callParams": [
                            {
                                "name": "amount0Out",
                                "type": "uint256",
                                "value": "650,685,975,691,755,096,418"
                            },
                            {
                                "name": "amount1Out",
                                "type": "uint256",
                                "value": "0"
                            },
                            {
                                "name": "to",
                                "type": "address",
                                "value": "0x01a8cfdd1ce10c57d69e76770983a8d34591f78f"
                            },
                            {
                                "name": "data",
                                "type": "bytes",
                                "value": "0x"
                            }
                        ],
                        "constructorArguments": "",
                        "name": "swap",
                        "returnParams": [],
                        "signature": "swap(uint256,uint256,address,bytes)"
                    },
                    "errorInfo": "",
                    "fromAddress": "0x7a250d5630b4cf539739df2c5dacb4c659f2488d",
                    "gasUsed": 136757,
                    "id": 8,
                    "methodDecoded": true,
                    "operation": "CALL",
                    "output": "",
                    "revert": false,
                    "revertMessage": "",
                    "selector": "0x022c0d9f",
                    "status": true,
                    "value": "0"
                },
                "nodeType": 0
            },
            "9": {
                "invocation": {
                    "address": "0x80da0c87f68e63618b86e11ee62d237a4a8e1bce",
                    "callData": "0x00000000000000000000000001a8cfdd1ce10c57d69e76770983a8d34591f78f0000000000000000000000000000000000000000000000234614f768db858962",
                    "decodedMethod": {
                        "callParams": [
                            {
                                "name": "recipient",
                                "type": "address",
                                "value": "0x01a8cfdd1ce10c57d69e76770983a8d34591f78f"
                            },
                            {
                                "decimalAvailable": true,
                                "name": "amount",
                                "type": "uint256",
                                "value": "650,685,975,691,755,096,418"
                            }
                        ],
                        "constructorArguments": "",
                        "name": "transfer",
                        "returnParams": [
                            {
                                "name": "",
                                "type": "bool",
                                "value": true
                            }
                        ],
                        "signature": "transfer(address,uint256)"
                    },
                    "errorInfo": "",
                    "fromAddress": "0xef9e3d25389afe6da2ade911ef1caee30530cdde",
                    "gasUsed": 104277,
                    "id": 9,
                    "methodDecoded": true,
                    "operation": "CALL",
                    "output": "0x0000000000000000000000000000000000000000000000000000000000000001",
                    "revert": false,
                    "revertMessage": "",
                    "selector": "0xa9059cbb",
                    "status": true,
                    "value": "0"
                },
                "nodeType": 0
            }
        },
        "gasFlame": [
            {
                "children": [
                    {
                        "children": [
                            {
                                "children": [],
                                "depth": 0,
                                "name": "Initial Gas",
                                "value": 22860
                            },
                            {
                                "children": [
                                    {
                                        "children": [],
                                        "depth": 1,
                                        "name": "deposit",
                                        "value": 23974
                                    },
                                    {
                                        "children": [],
                                        "depth": 1,
                                        "name": "transfer",
                                        "value": 8062
                                    },
                                    {
                                        "children": [],
                                        "depth": 1,
                                        "name": "balanceOf",
                                        "value": 2623
                                    },
                                    {
                                        "children": [],
                                        "depth": 1,
                                        "name": "getReserves",
                                        "value": 2504
                                    },
                                    {
                                        "children": [],
                                        "depth": 1,
                                        "name": "balanceOf",
                                        "value": 534
                                    },
                                    {
                                        "children": [
                                            {
                                                "children": [],
                                                "depth": 2,
                                                "name": "transfer",
                                                "value": 104277
                                            },
                                            {
                                                "children": [],
                                                "depth": 2,
                                                "name": "balanceOf",
                                                "value": 623
                                            },
                                            {
                                                "children": [],
                                                "depth": 2,
                                                "name": "balanceOf",
                                                "value": 534
                                            }
                                        ],
                                        "depth": 1,
                                        "name": "swap",
                                        "value": 136757
                                    },
                                    {
                                        "children": [],
                                        "depth": 1,
                                        "name": "balanceOf",
                                        "value": 623
                                    }
                                ],
                                "depth": 0,
                                "name": "Executed Gas",
                                "value": 196176
                            }
                        ],
                        "depth": -1,
                        "name": "Actual Gas Used",
                        "value": 196336
                    },
                    {
                        "children": [],
                        "depth": -1,
                        "name": "Refunded Gas",
                        "value": 22700
                    }
                ],
                "depth": -2,
                "name": "Total Gas",
                "value": 219036
            }
        ],
        "isConfirmed": true,
        "mainTrace": [
            {
                "children": [
                    {
                        "children": [
                            {
                                "children": [
                                    {
                                        "children": [],
                                        "depth": 2,
                                        "id": 2,
                                        "order": 2
                                    }
                                ],
                                "depth": 1,
                                "id": 1,
                                "order": 1
                            },
                            {
                                "children": [
                                    {
                                        "children": [],
                                        "depth": 2,
                                        "id": 4,
                                        "order": 4
                                    }
                                ],
                                "depth": 1,
                                "id": 3,
                                "order": 3
                            },
                            {
                                "children": [],
                                "depth": 1,
                                "id": 5,
                                "order": 5
                            },
                            {
                                "children": [],
                                "depth": 1,
                                "id": 6,
                                "order": 6
                            },
                            {
                                "children": [],
                                "depth": 1,
                                "id": 7,
                                "order": 7
                            },
                            {
                                "children": [
                                    {
                                        "children": [
                                            {
                                                "children": [],
                                                "depth": 3,
                                                "id": 10,
                                                "order": 10
                                            },
                                            {
                                                "children": [],
                                                "depth": 3,
                                                "id": 11,
                                                "order": 11
                                            },
                                            {
                                                "children": [],
                                                "depth": 3,
                                                "id": 12,
                                                "order": 12
                                            }
                                        ],
                                        "depth": 2,
                                        "id": 9,
                                        "order": 9
                                    },
                                    {
                                        "children": [],
                                        "depth": 2,
                                        "id": 13,
                                        "order": 13
                                    },
                                    {
                                        "children": [],
                                        "depth": 2,
                                        "id": 14,
                                        "order": 14
                                    },
                                    {
                                        "children": [],
                                        "depth": 2,
                                        "id": 15,
                                        "order": 15
                                    },
                                    {
                                        "children": [],
                                        "depth": 2,
                                        "id": 16,
                                        "order": 16
                                    }
                                ],
                                "depth": 1,
                                "id": 8,
                                "order": 8
                            },
                            {
                                "children": [],
                                "depth": 1,
                                "id": 17,
                                "order": 17
                            }
                        ],
                        "depth": 0,
                        "id": 0,
                        "order": 0
                    }
                ],
                "depth": -1,
                "id": -1,
                "order": -1
            }
        ],
        "mainTraceNodeCount": 18,
        "parentIdMap": {
            "0": -1,
            "1": 0,
            "10": 9,
            "11": 9,
            "12": 9,
            "13": 8,
            "14": 8,
            "15": 8,
            "16": 8,
            "17": 0,
            "2": 1,
            "3": 0,
            "4": 3,
            "5": 0,
            "6": 0,
            "7": 0,
            "8": 0,
            "9": 8
        },
        "tidyTrace": [
            {
                "children": [
                    {
                        "children": [
                            {
                                "children": [
                                    {
                                        "children": [],
                                        "depth": 2,
                                        "id": 2,
                                        "order": 2
                                    }
                                ],
                                "depth": 1,
                                "id": 1,
                                "order": 1
                            },
                            {
                                "children": [
                                    {
                                        "children": [],
                                        "depth": 2,
                                        "id": 4,
                                        "order": 4
                                    }
                                ],
                                "depth": 1,
                                "id": 3,
                                "order": 3
                            },
                            {
                                "children": [
                                    {
                                        "children": [
                                            {
                                                "children": [],
                                                "depth": 3,
                                                "id": 10,
                                                "order": 10
                                            },
                                            {
                                                "children": [],
                                                "depth": 3,
                                                "id": 11,
                                                "order": 11
                                            },
                                            {
                                                "children": [],
                                                "depth": 3,
                                                "id": 12,
                                                "order": 12
                                            }
                                        ],
                                        "depth": 2,
                                        "id": 9,
                                        "order": 9
                                    },
                                    {
                                        "children": [],
                                        "depth": 2,
                                        "id": 15,
                                        "order": 15
                                    },
                                    {
                                        "children": [],
                                        "depth": 2,
                                        "id": 16,
                                        "order": 16
                                    }
                                ],
                                "depth": 1,
                                "id": 8,
                                "order": 8
                            }
                        ],
                        "depth": 0,
                        "id": 0,
                        "order": 0
                    }
                ],
                "depth": -1,
                "id": -1,
                "order": -1
            }
        ],
        "tidyTraceNodeCount": 12
    },
    "state_change": {
        "stateChanges": [
            {
                "address": "0x80da0c87f68e63618b86e11ee62d237a4a8e1bce",
                "erc": "ERC-20",
                "slots": [
                    {
                        "current": "0x00000000000000000000000000000000000000000000427e8b8dd32404d1f045",
                        "key": "0x44ad89ba62b98ff34f51403ac22759b55759460c0bb5521eb4b6ee3cff49cf83",
                        "prev": "0x00000000000000000000000000000000000000000000427d7ca6cbb7e9c121e9"
                    },
                    {
                        "current": "0x000000000000000000000000000000000000000000000021dce0ed836219cb92",
                        "key": "0x44262c447365b7d707ee849096f07e6d57d27a889cdea4829734df49b16dda24",
                        "prev": "0x0000000000000000000000000000000000000000000000000000000000000000"
                    },
                    {
                        "current": "0x0000000000000000000000000000000000000000000000000000000001188b70",
                        "key": "0x3b10b2d97799bd7cbb5638dc0e488663309f4890eacb0a8398f94e0b60e4483f",
                        "prev": "0x0000000000000000000000000000000000000000000000000000000000000000"
                    },
                    {
                        "current": "0x0000000000000000000000000000000000000000000022f80dacef932621896c",
                        "key": "0x77e403853a77fe60d2f215c09694aced9bb1619803b2287f5cb8e42ea29e284b",
                        "prev": "0x00000000000000000000000000000000000000000000231b53c1e6fc01a712ce"
                    },
                    {
                        "current": "0x0000000000000000000000000000000000000000000000fe5a3740453ab358b0",
                        "key": "0xaf69ab40b7fb494feedf6be934b579b59581dbe77052daca80e0c951e2ae3ebb",
                        "prev": "0x0000000000000000000000000000000000000000000000fdffea3dcbdc58693c"
                    }
                ],
                "storageVariables": [
                    {
                        "name": "_balances",
                        "type": "mapping(address => uint256)",
                        "value": {
                            "pairs": [
                                {
                                    "key": "0x000000000000000000000000000000000000dead",
                                    "value": {
                                        "current": "314010533548378628943941",
                                        "prev": "313991012969107876291049",
                                        "typeTag": 1
                                    }
                                },
                                {
                                    "key": "0x01a8cfdd1ce10c57d69e76770983a8d34591f78f",
                                    "value": {
                                        "current": "624658536664084892562",
                                        "prev": "0",
                                        "typeTag": 1
                                    }
                                },
                                {
                                    "key": "0x80da0c87f68e63618b86e11ee62d237a4a8e1bce",
                                    "value": {
                                        "current": "4691973729975440464048",
                                        "prev": "4685466870218522913084",
                                        "typeTag": 1
                                    }
                                },
                                {
                                    "key": "0xef9e3d25389afe6da2ade911ef1caee30530cdde",
                                    "value": {
                                        "current": "165136238373681672325484",
                                        "prev": "165786924349373427421902",
                                        "typeTag": 1
                                    }
                                }
                            ],
                            "typeTag": 4
                        }
                    },
                    {
                        "name": "_holderLastTransferTimestamp",
                        "type": "mapping(address => uint256)",
                        "value": {
                            "pairs": [
                                {
                                    "key": "0x01a8cfdd1ce10c57d69e76770983a8d34591f78f",
                                    "value": {
                                        "current": "18385776",
                                        "prev": "0",
                                        "typeTag": 1
                                    }
                                }
                            ],
                            "typeTag": 4
                        }
                    }
                ]
            },
            {
                "address": "0xc02aaa39b223fe8d0a0e5c4f27ead9083c756cc2",
                "erc": "ERC-20",
                "slots": [
                    {
                        "current": "0x0000000000000000000000000000000000000000000000004681ac15d526986c",
                        "key": "0x89f7a14103eefd0c4d4c69880763c5f75c415f4ac94fd1cd35caa9597b1f1c68",
                        "prev": "0x000000000000000000000000000000000000000000000000463a9e30f5a4986c"
                    }
                ],
                "storageVariables": [
                    {
                        "name": "balanceOf",
                        "type": "mapping(address => uint256)",
                        "value": {
                            "pairs": [
                                {
                                    "key": "0xef9e3d25389afe6da2ade911ef1caee30530cdde",
                                    "value": {
                                        "current": "5080531064420997228",
                                        "prev": "5060531064420997228",
                                        "typeTag": 1
                                    }
                                }
                            ],
                            "typeTag": 4
                        }
                    }
                ]
            },
            {
                "address": "0xef9e3d25389afe6da2ade911ef1caee30530cdde",
                "erc": "ERC-20",
                "slots": [
                    {
                        "current": "0x0000000000000000000000000000203e4370b3226adae422773b8426bd79c2d4",
                        "key": "0x000000000000000000000000000000000000000000000000000000000000000a",
                        "prev": "0x0000000000000000000000000000203843c76370bea022e0689a98ef97c5dce8"
                    },
                    {
                        "current": "0x653162e70000000000004681ac15d526986c0000000022f80dacef932621896c",
                        "key": "0x0000000000000000000000000000000000000000000000000000000000000008",
                        "prev": "0x653162db000000000000463a9e30f5a4986c00000000231b53c1e6fc01a712ce"
                    },
                    {
                        "current": "0x0000000000000000000000000000000000000300ff155843f6ea153152fb4af4",
                        "key": "0x0000000000000000000000000000000000000000000000000000000000000009",
                        "prev": "0x00000000000000000000000000000000000002e8fdba837798fcb46c54399350"
                    }
                ],
                "storageVariables": [
                    {
                        "name": "price1CumulativeLast",
                        "type": "uint256",
                        "value": {
                            "current": "2808780300011669969304212031160427155669716",
                            "prev": "2806739055923583985147906635019173012823272",
                            "typeTag": 1
                        }
                    },
                    {
                        "name": "reserve0",
                        "type": "uint112",
                        "value": {
                            "current": "165136238373681672325484",
                            "prev": "165786924349373427421902",
                            "typeTag": 1
                        }
                    },
                    {
                        "name": "reserve1",
                        "type": "uint112",
                        "value": {
                            "current": "5080531064420997228",
                            "prev": "5060531064420997228",
                            "typeTag": 1
                        }
                    },
                    {
                        "name": "blockTimestampLast",
                        "type": "uint32",
                        "value": {
                            "current": "1697735399",
                            "prev": "1697735387",
                            "typeTag": 1
                        }
                    },
                    {
                        "name": "price0CumulativeLast",
                        "type": "uint256",
                        "value": {
                            "current": "60926173292723640573626030967540",
                            "prev": "59024278099136111478070782301008",
                            "typeTag": 1
                        }
                    }
                ]
            }
        ]
    }
}