{
    "balance_change": {
        "balanceChanges": [
            {
                "account": "0xf5f700e1912b93ad09597bfa22484e01c0035b04",
                "assets": [
                    {
                        "address": "0xeeeeeeeeeeeeeeeeeeeeeeeeeeeeeeeeeeeeeeee",
                        "amount": "0.03111",
                        "iconUrl": "https://assets.blocksec.com/image/1663669189317-3.png",
                        "isERC1155": false,
                        "isERC721": false,
                        "sign": false,
                        "value": ""
                    }
                ]
            },
            {
                "account": "0x05d92cc692e2869859a9d7af6c2730eb419fc185",
                "assets": [
                    {
                        "address": "0xeeeeeeeeeeeeeeeeeeeeeeeeeeeeeeeeeeeeeeee",
                        "amount": "0.03111",
                        "iconUrl": "https://assets.blocksec.com/image/1663669189317-3.png",
                        "isERC1155": false,
                        "isERC721": false,
                        "sign": true,
                        "value": ""
                    }
                ]
            }
        ]
    },
    "profile": {
        "basic_info": {
            "baseFee": "",
            "blockNumber": 3782632,
            "callData": "0xce92dced85d6be7a271a0cbccc5ccafd3854db8437fb666128a732ee096ef963b7f9f7fd",
            "debugEnable": true,
            "errorInfo": "",
            "eventCount": 1,
            "feeRecipient": "0x61c808d82a3ac53231750dadc13c777b59310bd9",
            "formatValue": "0.03111",
            "gasLimit": 500000,
            "gasPrice": "20",
            "gasUsed": 418436,
            "intTxnCount": 1,
            "internalRevert": false,
            "internalRevertMessage": "",
            "isContractCreation": false,
            "isFlashloan": false,
            "maxFee": "",
            "nonce": 7166,
            "overwritedBlockNumber": -1,
            "priorityFee": "",
            "receiver": "0x6090a6e47849629b7245dfa1ca21d94cd15878ef",
            "revertMessage": "",
            "sender": "0xf5f700e1912b93ad09597bfa22484e01c0035b04",
            "simulationEnable": true,
            "sourceTxnHash": "0x3e21eba9ddd8b91ed27ca3a4753a5086636a0cc7081f5eaed9b203f6e98151b1",
            "status": true,
            "timestamp": "2017-05-28T17:07:57Z",
            "transactionFee": "0.00836872",
            "txnHash": "0x3e21eba9ddd8b91ed27ca3a4753a5086636a0cc7081f5eaed9b203f6e98151b1",
            "txnIndex": 1,
            "type": 0,
            "value": "31110000000000000"
        },
        "fund_flow": [
            {
                "amount": "0.03111",
                "from": "0xf5f700e1912b93ad09597bfa22484e01c0035b04",
                "id": 1,
                "isERC1155": false,
                "isERC721": false,
                "isReverted": false,
                "order": 1,
                "to": "0x6090a6e47849629b7245dfa1ca21d94cd15878ef",
                "token": "0xeeeeeeeeeeeeeeeeeeeeeeeeeeeeeeeeeeeeeeee"
            },
            {
                "amount": "0.03111",
                "from": "0x6090a6e47849629b7245dfa1ca21d94cd15878ef",
                "id": 2,
                "isERC1155": false,
                "isERC721": false,
                "isReverted": false,
                "order": 2,
                "to": "0x05d92cc692e2869859a9d7af6c2730eb419fc185",
                "token": "0xeeeeeeeeeeeeeeeeeeeeeeeeeeeeeeeeeeeeeeee"
            }
        ],
        "token_infos": [
            {
                "address": "0xc02aaa39b223fe8d0a0e5c4f27ead9083c756cc2",
                "decimals": 18
            },
            {
                "address": "0xeeeeeeeeeeeeeeeeeeeeeeeeeeeeeeeeeeeeeeee",
                "decimals": 18
            }
        ]
    },
    "address_label": {
        "labels": [
            {
                "address": "0xeeeeeeeeeeeeeeeeeeeeeeeeeeeeeeeeeeeeeeee",
                "label": "Ether"
            },
            {
                "address": "0x6090a6e47849629b7245dfa1ca21d94cd15878ef",
                "label": "ENS: Old Registrar"
            },
            {
                "address": "0x05d92cc692e2869859a9d7af6c2730eb419fc185",
                "label": "Deed"
            },
            {
                "address": "0x0000000000000000000000000000000000000001",
                "label": "Precompiled"
            },
            {
                "address": "0x0000000000000000000000000000000000000002",
                "label": "Precompiled"
            },
            {
                "address": "0x0000000000000000000000000000000000000003",
                "label": "Precompiled"
            },
            {
                "address": "0x0000000000000000000000000000000000000004",
                "label": "Precompiled"
            }
        ]
    },
    "trace": {
        "accountLabels": null,
        "dataMap": {
            "-1": {
                "invocation": {
                    "address": "0xf5f700e1912b93ad09597bfa22484e01c0035b04",
                    "callData": "",
                    "decodedMethod": null,
                    "errorInfo": "",
                    "fromAddress": "",
                    "gasUsed": 0,
                    "id": -1,
                    "methodDecoded": false,
                    "operation": "",
                    "output": "",
                    "revert": false,
                    "revertMessage": "",
                    "selector": "",
                    "status": false,
                    "value": ""
                },
                "nodeType": 0
            },
            "0": {
                "invocation": {
                    "address": "0x6090a6e47849629b7245dfa1ca21d94cd15878ef",
                    "callData": "0x85d6be7a271a0cbccc5ccafd3854db8437fb666128a732ee096ef963b7f9f7fd",
                    "decodedMethod": {
                        "callParams": [
                            {
                                "name": "sealedBid",
                                "type": "bytes32",
                                "value": "0x85d6be7a271a0cbccc5ccafd3854db8437fb666128a732ee096ef963b7f9f7fd"
                            }
                        ],
                        "constructorArguments": "",
                        "name": "newBid",
                        "returnParams": [],
                        "signature": "newBid(bytes32)"
                    },
                    "errorInfo": "",
                    "fromAddress": "0xf5f700e1912b93ad09597bfa22484e01c0035b04",
                    "gasUsed": 418436,
                    "id": 0,
                    "methodDecoded": true,
                    "operation": "CALL",
                    "output": "",
                    "revert": false,
                    "revertMessage": "",
                    "selector": "0xce92dced",
                    "status": true,
                    "value": "0.03111"
                },
                "nodeType": 0
            },
            "1": {
                "invocation": {
                    "address": "0x05d92cc692e2869859a9d7af6c2730eb419fc185",
                    "callData": "606060405260405160208061051683398101604052515b60028054600160a060020a03808416600160a060020a0319928316179092556000805433909316929091169190911790554260019081556005805460ff19169091179055346004555b505b6104a6806100706000396000f300606060405236156100885763ffffffff60e060020a60003504166305b34410811461008a5780630b5ab3d5146100ac57806313af4035146100be5780632b20e397146100dc5780633fa4f24514610108578063674f220f1461012a5780638da5cb5b14610156578063b0c8097214610182578063bbe427711461019c578063faab9d39146101b1575bfe5b341561009257fe5b61009a6101cf565b60408051918252519081900360200190f35b34156100b457fe5b6100bc6101d5565b005b34156100c657fe5b6100bc600160a060020a036004351661021d565b005b34156100e457fe5b6100ec6102c3565b60408051600160a060020a039092168252519081900360200190f35b341561011057fe5b61009a6102d2565b60408051918252519081900360200190f35b341561013257fe5b6100ec6102d8565b60408051600160a060020a039092168252519081900360200190f35b341561015e57fe5b6100ec6102e7565b60408051600160a060020a039092168252519081900360200190f35b341561018a57fe5b6100bc60043560243515156102f6565b005b34156101a457fe5b6100bc600435610382565b005b34156101b957fe5b6100bc600160a060020a0360043516610431565b005b60015481565b60055460ff16156101e65760006000fd5b600254604051600160a060020a039182169130163180156108fc02916000818181858888f193505050501561021a5761deadff5b5b565b60005433600160a060020a039081169116146102395760006000fd5b600160a060020a038116151561024f5760006000fd5b600280546003805473ffffffffffffffffffffffffffffffffffffffff19908116600160a060020a03808516919091179092559084169116811790915560408051918252517fa2ea9883a321a3e97b8266c2b078bfeec6d50c711ed71f874a90d500ae2eaf369181900360200190a15b5b50565b600054600160a060020a031681565b60045481565b600354600160a060020a031681565b600254600160a060020a031681565b60005433600160a060020a039081169116146103125760006000fd5b60055460ff1615156103245760006000fd5b8160045410156103345760006000fd5b6004829055600254604051600160a060020a039182169130163184900380156108fc02916000818181858888f193505050501580156103705750805b1561037b5760006000fd5b5b5b5b5050565b60005433600160a060020a0390811691161461039e5760006000fd5b60055460ff1615156103b05760006000fd5b6005805460ff1916905561dead6108fc6103e883810330600160a060020a031631025b604051919004801590920291906000818181858888f1935050505015156103fa5760006000fd5b6040517fbb2ce2f51803bba16bc85282b47deeea9a5c6223eabea1077be696b3f265cf1390600090a16102bf6101d5565b5b5b5b50565b60005433600160a060020a0390811691161461044d5760006000fd5b6000805473ffffffffffffffffffffffffffffffffffffffff1916600160a060020a0383161790555b5b505600a165627a7a72305820fbfa6f8a2024760ef0e0eb29a332c9a820526e92f8b4fbcce6f00c7643234b140029000000000000000000000000f5f700e1912b93ad09597bfa22484e01c0035b04",
                    "decodedMethod": {
                        "callParams": [
                            {
                                "name": "_owner",
                                "type": "address",
                                "value": "0x051683398101604052515b60028054600160a060"
                            }
                        ],
                        "constructorArguments": "606060405260405160208061051683398101604052515b60028054600160a060020a03808416600160a060020a0319928316179092556000805433909316929091169190911790554260019081556005805460ff19169091179055346004555b505b6104a6806100706000396000f300606060405236156100885763ffffffff60e060020a60003504166305b34410811461008a5780630b5ab3d5146100ac57806313af4035146100be5780632b20e397146100dc5780633fa4f24514610108578063674f220f1461012a5780638da5cb5b14610156578063b0c8097214610182578063bbe427711461019c578063faab9d39146101b1575bfe5b341561009257fe5b61009a6101cf565b60408051918252519081900360200190f35b34156100b457fe5b6100bc6101d5565b005b34156100c657fe5b6100bc600160a060020a036004351661021d565b005b34156100e457fe5b6100ec6102c3565b60408051600160a060020a039092168252519081900360200190f35b341561011057fe5b61009a6102d2565b60408051918252519081900360200190f35b341561013257fe5b6100ec6102d8565b60408051600160a060020a039092168252519081900360200190f35b341561015e57fe5b6100ec6102e7565b60408051600160a060020a039092168252519081900360200190f35b341561018a57fe5b6100bc60043560243515156102f6565b005b34156101a457fe5b6100bc600435610382565b005b34156101b957fe5b6100bc600160a060020a0360043516610431565b005b60015481565b60055460ff16156101e65760006000fd5b600254604051600160a060020a039182169130163180156108fc02916000818181858888f193505050501561021a5761deadff5b5b565b60005433600160a060020a039081169116146102395760006000fd5b600160a060020a038116151561024f5760006000fd5b600280546003805473ffffffffffffffffffffffffffffffffffffffff19908116600160a060020a03808516919091179092559084169116811790915560408051918252517fa2ea9883a321a3e97b8266c2b078bfeec6d50c711ed71f874a90d500ae2eaf369181900360200190a15b5b50565b600054600160a060020a031681565b60045481565b600354600160a060020a031681565b600254600160a060020a031681565b60005433600160a060020a039081169116146103125760006000fd5b60055460ff1615156103245760006000fd5b8160045410156103345760006000fd5b6004829055600254604051600160a060020a039182169130163184900380156108fc02916000818181858888f193505050501580156103705750805b1561037b5760006000fd5b5b5b5b5050565b60005433600160a060020a0390811691161461039e5760006000fd5b60055460ff1615156103b05760006000fd5b6005805460ff1916905561dead6108fc6103e883810330600160a060020a031631025b604051919004801590920291906000818181858888f1935050505015156103fa5760006000fd5b6040517fbb2ce2f51803bba16bc85282b47deeea9a5c6223eabea1077be696b3f265cf1390600090a16102bf6101d5565b5b5b5b50565b60005433600160a060020a0390811691161461044d5760006000fd5b6000805473ffffffffffffffffffffffffffffffffffffffff1916600160a060020a0383161790555b5b505600a165627a7a72305820fbfa6f8a2024760ef0e0eb29a332c9a820526e92f8b4fbcce6f00c7643234b140029000000000000000000000000f5f700e1912b93ad09597bfa22484e01c0035b04",
                        "name": "constructor",
                        "returnParams": [
                            {
                                "name": "runtime code",
                                "type": "",
                                "value": "0x606060405236156100885763ffffffff60e060020a60003504166305b34410811461008a5780630b5ab3d5146100ac57806313af4035146100be5780632b20e397146100dc5780633fa4f24514610108578063674f220f1461012a5780638da5cb5b14610156578063b0c8097214610182578063bbe427711461019c578063faab9d39146101b1575bfe5b341561009257fe5b61009a6101cf565b60408051918252519081900360200190f35b34156100b457fe5b6100bc6101d5565b005b34156100c657fe5b6100bc600160a060020a036004351661021d565b005b34156100e457fe5b6100ec6102c3565b60408051600160a060020a039092168252519081900360200190f35b341561011057fe5b61009a6102d2565b60408051918252519081900360200190f35b341561013257fe5b6100ec6102d8565b60408051600160a060020a039092168252519081900360200190f35b341561015e57fe5b6100ec6102e7565b60408051600160a060020a039092168252519081900360200190f35b341561018a57fe5b6100bc60043560243515156102f6565b005b34156101a457fe5b6100bc600435610382565b005b34156101b957fe5b6100bc600160a060020a0360043516610431565b005b60015481565b60055460ff16156101e65760006000fd5b600254604051600160a060020a039182169130163180156108fc02916000818181858888f193505050501561021a5761deadff5b5b565b60005433600160a060020a039081169116146102395760006000fd5b600160a060020a038116151561024f5760006000fd5b600280546003805473ffffffffffffffffffffffffffffffffffffffff19908116600160a060020a03808516919091179092559084169116811790915560408051918252517fa2ea9883a321a3e97b8266c2b078bfeec6d50c711ed71f874a90d500ae2eaf369181900360200190a15b5b50565b600054600160a060020a031681565b60045481565b600354600160a060020a031681565b600254600160a060020a031681565b60005433600160a060020a039081169116146103125760006000fd5b60055460ff1615156103245760006000fd5b8160045410156103345760006000fd5b6004829055600254604051600160a060020a039182169130163184900380156108fc02916000818181858888f193505050501580156103705750805b1561037b5760006000fd5b5b5b5b5050565b60005433600160a060020a0390811691161461039e5760006000fd5b60055460ff1615156103b05760006000fd5b6005805460ff1916905561dead6108fc6103e883810330600160a060020a031631025b604051919004801590920291906000818181858888f1935050505015156103fa5760006000fd5b6040517fbb2ce2f51803bba16bc85282b47deeea9a5c6223eabea1077be696b3f265cf1390600090a16102bf6101d5565b5b5b5b50565b60005433600160a060020a0390811691161461044d5760006000fd5b6000805473ffffffffffffffffffffffffffffffffffffffff1916600160a060020a0383161790555b5b505600a165627a7a72305820fbfa6f8a2024760ef0e0eb29a332c9a820526e92f8b4fbcce6f00c7643234b140029"
                            }
                        ],
                        "signature": ""
                    },
                    "errorInfo": "",
                    "fromAddress": "0x6090a6e47849629b7245dfa1ca21d94cd15878ef",
                    "gasUsed": 339168,
                    "id": 1,
                    "methodDecoded": true,
                    "operation": "CREATE",
                    "output": "0x606060405236156100885763ffffffff60e060020a60003504166305b34410811461008a5780630b5ab3d5146100ac57806313af4035146100be5780632b20e397146100dc5780633fa4f24514610108578063674f220f1461012a5780638da5cb5b14610156578063b0c8097214610182578063bbe427711461019c578063faab9d39146101b1575bfe5b341561009257fe5b61009a6101cf565b60408051918252519081900360200190f35b34156100b457fe5b6100bc6101d5565b005b34156100c657fe5b6100bc600160a060020a036004351661021d565b005b34156100e457fe5b6100ec6102c3565b60408051600160a060020a039092168252519081900360200190f35b341561011057fe5b61009a6102d2565b60408051918252519081900360200190f35b341561013257fe5b6100ec6102d8565b60408051600160a060020a039092168252519081900360200190f35b341561015e57fe5b6100ec6102e7565b60408051600160a060020a039092168252519081900360200190f35b341561018a57fe5b6100bc60043560243515156102f6565b005b34156101a457fe5b6100bc600435610382565b005b34156101b957fe5b6100bc600160a060020a0360043516610431565b005b60015481565b60055460ff16156101e65760006000fd5b600254604051600160a060020a039182169130163180156108fc02916000818181858888f193505050501561021a5761deadff5b5b565b60005433600160a060020a039081169116146102395760006000fd5b600160a060020a038116151561024f5760006000fd5b600280546003805473ffffffffffffffffffffffffffffffffffffffff19908116600160a060020a03808516919091179092559084169116811790915560408051918252517fa2ea9883a321a3e97b8266c2b078bfeec6d50c711ed71f874a90d500ae2eaf369181900360200190a15b5b50565b600054600160a060020a031681565b60045481565b600354600160a060020a031681565b600254600160a060020a031681565b60005433600160a060020a039081169116146103125760006000fd5b60055460ff1615156103245760006000fd5b8160045410156103345760006000fd5b6004829055600254604051600160a060020a039182169130163184900380156108fc02916000818181858888f193505050501580156103705750805b1561037b5760006000fd5b5b5b5b5050565b60005433600160a060020a0390811691161461039e5760006000fd5b60055460ff1615156103b05760006000fd5b6005805460ff1916905561dead6108fc6103e883810330600160a060020a031631025b604051919004801590920291906000818181858888f1935050505015156103fa5760006000fd5b6040517fbb2ce2f51803bba16bc85282b47deeea9a5c6223eabea1077be696b3f265cf1390600090a16102bf6101d5565b5b5b5b50565b60005433600160a060020a0390811691161461044d5760006000fd5b6000805473ffffffffffffffffffffffffffffffffffffffff1916600160a060020a0383161790555b5b505600a165627a7a72305820fbfa6f8a2024760ef0e0eb29a332c9a820526e92f8b4fbcce6f00c7643234b140029",
                    "revert": false,
                    "revertMessage": "",
                    "selector": "",
                    "status": true,
                    "value": "0.03111"
                },
                "nodeType": 0
            },
            "2": {
                "event": {
                    "contract": "0x6090a6e47849629b7245dfa1ca21d94cd15878ef",
                    "decodedLog": {
                        "name": "NewBid",
                        "params": [
                            {
                                "name": "hash",
                                "type": "bytes32",
                                "value": "0x85d6be7a271a0cbccc5ccafd3854db8437fb666128a732ee096ef963b7f9f7fd"
                            },
                            {
                                "name": "bidder",
                                "type": "address",
                                "value": "0xf5f700e1912b93ad09597bfa22484e01c0035b04"
                            },
                            {
                                "name": "deposit",
                                "type": "uint256",
                                "value": "31,110,000,000,000,000"
                            }
                        ],
                        "signature": "NewBid(bytes32,address,uint256)"
                    },
                    "id": 2,
                    "logData": "0x000000000000000000000000000000000000000000000000006e866152f66000",
                    "logDecoded": true,
                    "operation": "EVENT",
                    "revert": false,
                    "status": true,
                    "topics": [
                        "0xb556ff269c1b6714f432c36431e2041d28436a73b6c3f19c021827bbdc6bfc29",
                        "0x85d6be7a271a0cbccc5ccafd3854db8437fb666128a732ee096ef963b7f9f7fd",
                        "0x000000000000000000000000f5f700e1912b93ad09597bfa22484e01c0035b04"
                    ]
                },
                "nodeType": 1
            }
        },
        "gasFlame": [
            {
                "children": [
                    {
                        "children": [
                            {
                                "children": [],
                                "depth": 0,
                                "name": "Initial Gas",
                                "value": 23448
                            },
                            {
                                "children": [
                                    {
                                        "children": [],
                                        "depth": 1,
                                        "name": "constructor",
                                        "value": 339168
                                    }
                                ],
                                "depth": 0,
                                "name": "Executed Gas",
                                "value": 394988
                            }
                        ],
                        "depth": -1,
                        "name": "Actual Gas Used",
                        "value": 418436
                    },
                    {
                        "children": [],
                        "depth": -1,
                        "name": "Refunded Gas",
                        "value": 0
                    }
                ],
                "depth": -2,
                "name": "Total Gas",
                "value": 418436
            }
        ],
        "isConfirmed": true,
        "mainTrace": [
            {
                "children": [
                    {
                        "children": [
                            {
                                "children": [],
                                "depth": 1,
                                "id": 1,
                                "order": 1
                            },
                            {
                                "children": [],
                                "depth": 1,
                                "id": 2,
                                "order": 2
                            }
                        ],
                        "depth": 0,
                        "id": 0,
                        "order": 0
                    }
                ],
                "depth": -1,
                "id": -1,
                "order": -1
            }
        ],
        "mainTraceNodeCount": 3,
        "parentIdMap": {
            "0": -1,
            "1": 0,
            "2": 0
        },
        "tidyTrace": [
            {
                "children": [
                    {
                        "children": [
                            {
                                "children": [],
                                "depth": 1,
                                "id": 1,
                                "order": 1
                            },
                            {
                                "children": [],
                                "depth": 1,
                                "id": 2,
                                "order": 2
                            }
                        ],
                        "depth": 0,
                        "id": 0,
                        "order": 0
                    }
                ],
                "depth": -1,
                "id": -1,
                "order": -1
            }
        ],
        "tidyTraceNodeCount": 3
    },
    "state_change": {
        "stateChanges": [
            {
                "address": "0x05d92cc692e2869859a9d7af6c2730eb419fc185",
                "erc": "",
                "slots": [
                    {
                        "current": "0x000000000000000000000000000000000000000000000000006e866152f66000",
                        "key": "0x0000000000000000000000000000000000000000000000000000000000000004",
                        "prev": "0x0000000000000000000000000000000000000000000000000000000000000000"
                    },
                    {
                        "current": "0x000000000000000000000000f5f700e1912b93ad09597bfa22484e01c0035b04",
                        "key": "0x0000000000000000000000000000000000000000000000000000000000000002",
                        "prev": "0x0000000000000000000000000000000000000000000000000000000000000000"
                    },
                    {
                        "current": "0x0000000000000000000000006090a6e47849629b7245dfa1ca21d94cd15878ef",
                        "key": "0x0000000000000000000000000000000000000000000000000000000000000000",
                        "prev": "0x0000000000000000000000000000000000000000000000000000000000000000"
                    },
                    {
                        "current": "0x00000000000000000000000000000000000000000000000000000000592b03ed",
                        "key": "0x0000000000000000000000000000000000000000000000000000000000000001",
                        "prev": "0x0000000000000000000000000000000000000000000000000000000000000000"
                    },
                    {
                        "current": "0x0000000000000000000000000000000000000000000000000000000000000001",
                        "key": "0x0000000000000000000000000000000000000000000000000000000000000005",
                        "prev": "0x0000000000000000000000000000000000000000000000000000000000000000"
                    }
                ],
                "storageVariables": []
            },
            {
                "address": "0x6090a6e47849629b7245dfa1ca21d94cd15878ef",
                "erc": "",
                "slots": [
                    {
                        "current": "0x00000000000000000000000005d92cc692e2869859a9d7af6c2730eb419fc185",
                        "key": "0x5677b462b2980f39072e1660d6d005ad438ff8a4ab3fd05e01bd5f0d236f55e5",
                        "prev": "0x0000000000000000000000000000000000000000000000000000000000000000"
                    }
                ],
                "storageVariables": []
            }
        ]
    }
}