{
    "balance_change": {
        "balanceChanges": [
            {
                "account": "0xe291cc3e5b9e0c9b37c9fbdd549abf3b5c0ad342",
                "assets": [
                    {
                        "address": "0x6de037ef9ad2725eb40118bb1702ebb27e4aeb24",
                        "amount": "44.130938041019454484",
                        "iconUrl": "https://assets.blocksec.com/icon/6c26f87685a6412859bba1e0c89004d66add895d445c9f5310994f4fa8be5731.png",
                        "isERC1155": false,
                        "isERC721": false,
                        "sign": false,
                        "value": "97.52937306839999843"
                    }
                ]
            },
            {
                "account": "0xf5252a70dd135a4e17a063d46e8c39cf36b589a3",
                "assets": [
                    {
                        "address": "0x6de037ef9ad2725eb40118bb1702ebb27e4aeb24",
                        "amount": "44.130938041019454484",
                        "iconUrl": "https://assets.blocksec.com/icon/6c26f87685a6412859bba1e0c89004d66add895d445c9f5310994f4fa8be5731.png",
                        "isERC1155": false,
                        "isERC721": false,
                        "sign": true,
                        "value": "97.52937306839999843"
                    }
                ]
            }
        ]
    },
    "profile": {
        "basic_info": {
            "baseFee": "23.00470204",
            "blockNumber": 17430107,
            "callData": "0xa9059cbb000000000000000000000000f5252a70dd135a4e17a063d46e8c39cf36b589a30000000000000000000000000000000000000000000000026470965523bcd414",
            "debugEnable": true,
            "errorInfo": "",
            "eventCount": 1,
            "feeRecipient": "0x4434bc572b416cea28b1d5dd6b98355b3fb1c563",
            "formatValue": "0",
            "gasLimit": 50970,
            "gasPrice": "24.00470204",
            "gasUsed": 42308,
            "intTxnCount": 1,
            "internalRevert": false,
            "internalRevertMessage": "",
            "isContractCreation": false,
            "isFlashloan": false,
            "maxFee": "50.915648382",
            "nonce": 60656,
            "overwritedBlockNumber": -1,
            "priorityFee": "1",
            "receiver": "0x6de037ef9ad2725eb40118bb1702ebb27e4aeb24",
            "revertMessage": "",
            "sender": "0xe291cc3e5b9e0c9b37c9fbdd549abf3b5c0ad342",
            "simulationEnable": true,
            "sourceTxnHash": "0x3edff2e4e5a25cd4691122d742a76619cf884919eb1198555b9b1e42ae764e34",
            "status": true,
            "timestamp": "2023-06-07T17:54:59Z",
            "transactionFee": "0.00101559093390832",
            "txnHash": "0x3edff2e4e5a25cd4691122d742a76619cf884919eb1198555b9b1e42ae764e34",
            "txnIndex": 55,
            "type": 2,
            "value": "0"
        },
        "fund_flow": [
            {
                "amount": "44.130938041019454484",
                "from": "0xe291cc3e5b9e0c9b37c9fbdd549abf3b5c0ad342",
                "id": 1,
                "isERC1155": false,
                "isERC721": false,
                "isReverted": false,
                "order": 1,
                "to": "0xf5252a70dd135a4e17a063d46e8c39cf36b589a3",
                "token": "0x6de037ef9ad2725eb40118bb1702ebb27e4aeb24"
            }
        ],
        "token_infos": [
            {
                "address": "0x6de037ef9ad2725eb40118bb1702ebb27e4aeb24",
                "decimals": 18
            },
            {
                "address": "0xc02aaa39b223fe8d0a0e5c4f27ead9083c756cc2",
                "decimals": 18
            },
            {
                "address": "0xeeeeeeeeeeeeeeeeeeeeeeeeeeeeeeeeeeeeeeee",
                "decimals": 18
            }
        ]
    },
    "address_label": {
        "labels": [
            {
                "address": "0x0000000000000000000000000000000000000001",
                "label": "Precompiled"
            },
            {
                "address": "0x0000000000000000000000000000000000000002",
                "label": "Precompiled"
            },
            {
                "address": "0x0000000000000000000000000000000000000003",
                "label": "Precompiled"
            },
            {
                "address": "0x0000000000000000000000000000000000000004",
                "label": "Precompiled"
            },
            {
                "address": "0xeeeeeeeeeeeeeeeeeeeeeeeeeeeeeeeeeeeeeeee",
                "label": "Ether"
            },
            {
                "address": "0x1a1fdf27c5e6784d1cebf256a8a5cc0877e73af0",
                "label": "Render Token (RNDR)"
            },
            {
                "address": "0x6de037ef9ad2725eb40118bb1702ebb27e4aeb24",
                "label": "Render : RNDR Token"
            }
        ]
    },
    "trace": {
        "accountLabels": null,
        "dataMap": {
            "-1": {
                "invocation": {
                    "address": "0xe291cc3e5b9e0c9b37c9fbdd549abf3b5c0ad342",
                    "callData": "",
                    "decodedMethod": null,
                    "errorInfo": "",
                    "fromAddress": "",
                    "gasUsed": 0,
                    "id": -1,
                    "methodDecoded": false,
                    "operation": "",
                    "output": "",
                    "revert": false,
                    "revertMessage": "",
                    "selector": "",
                    "status": false,
                    "value": ""
                },
                "nodeType": 0
            },
            "0": {
                "invocation": {
                    "address": "0x6de037ef9ad2725eb40118bb1702ebb27e4aeb24",
                    "callData": "0x000000000000000000000000f5252a70dd135a4e17a063d46e8c39cf36b589a30000000000000000000000000000000000000000000000026470965523bcd414",
                    "decodedMethod": {
                        "callParams": [
                            {
                                "name": "_to",
                                "type": "address",
                                "value": "0xf5252a70dd135a4e17a063d46e8c39cf36b589a3"
                            },
                            {
                                "decimalAvailable": true,
                                "name": "_value",
                                "type": "uint256",
                                "value": "44,130,938,041,019,454,484"
                            }
                        ],
                        "constructorArguments": "",
                        "name": "transfer",
                        "returnParams": [
                            {
                                "name": "",
                                "type": "bool",
                                "value": true
                            }
                        ],
                        "signature": "transfer(address,uint256)"
                    },
                    "errorInfo": "",
                    "fromAddress": "0xe291cc3e5b9e0c9b37c9fbdd549abf3b5c0ad342",
                    "gasUsed": 42308,
                    "id": 0,
                    "methodDecoded": true,
                    "operation": "CALL",
                    "output": "0x0000000000000000000000000000000000000000000000000000000000000001",
                    "revert": false,
                    "revertMessage": "",
                    "selector": "0xa9059cbb",
                    "status": true,
                    "value": "0"
                },
                "nodeType": 0
            },
            "1": {
                "invocation": {
                    "address": "0x1a1fdf27c5e6784d1cebf256a8a5cc0877e73af0",
                    "callData": "0x000000000000000000000000f5252a70dd135a4e17a063d46e8c39cf36b589a30000000000000000000000000000000000000000000000026470965523bcd414",
                    "decodedMethod": {
                        "callParams": [
                            {
                                "name": "_to",
                                "type": "address",
                                "value": "0xf5252a70dd135a4e17a063d46e8c39cf36b589a3"
                            },
                            {
                                "decimalAvailable": true,
                                "name": "_value",
                                "type": "uint256",
                                "value": "44,130,938,041,019,454,484"
                            }
                        ],
                        "constructorArguments": "",
                        "name": "transfer",
                        "returnParams": [
                            {
                                "name": "",
                                "type": "bool",
                                "value": true
                            }
                        ],
                        "signature": "transfer(address,uint256)"
                    },
                    "errorInfo": "",
                    "fromAddress": "0x6de037ef9ad2725eb40118bb1702ebb27e4aeb24",
                    "gasUsed": 13351,
                    "id": 1,
                    "methodDecoded": true,
                    "operation": "DELEGATECALL",
                    "output": "0x0000000000000000000000000000000000000000000000000000000000000001",
                    "revert": false,
                    "revertMessage": "",
                    "selector": "0xa9059cbb",
                    "status": true,
                    "value": "0"
                },
                "nodeType": 0
            },
            "2": {
                "event": {
                    "contract": "0x6de037ef9ad2725eb40118bb1702ebb27e4aeb24",
                    "decodedLog": {
                        "name": "Transfer",
                        "params": [
                            {
                                "name": "from",
                                "type": "address",
                                "value": "0xe291cc3e5b9e0c9b37c9fbdd549abf3b5c0ad342"
                            },
                            {
                                "name": "to",
                                "type": "address",
                                "value": "0xf5252a70dd135a4e17a063d46e8c39cf36b589a3"
                            },
                            {
                                "decimalAvailable": true,
                                "name": "value",
                                "type": "uint256",
                                "value": "44,130,938,041,019,454,484"
                            }
                        ],
                        "signature": "Transfer(address,address,uint256)"
                    },
                    "id": 2,
                    "logData": "0x0000000000000000000000000000000000000000000000026470965523bcd414",
                    "logDecoded": true,
                    "operation": "EVENT",
                    "revert": false,
                    "status": true,
                    "topics": [
                        "0xddf252ad1be2c89b69c2b068fc378daa952ba7f163c4a11628f55a4df523b3ef",
                        "0x000000000000000000000000e291cc3e5b9e0c9b37c9fbdd549abf3b5c0ad342",
                        "0x000000000000000000000000f5252a70dd135a4e17a063d46e8c39cf36b589a3"
                    ]
                },
                "nodeType": 1
            }
        },
        "gasFlame": [
            {
                "children": [
                    {
                        "children": [
                            {
                                "children": [],
                                "depth": 0,
                                "name": "Initial Gas",
                                "value": 21668
                            },
                            {
                                "children": [
                                    {
                                        "children": [],
                                        "depth": 1,
                                        "name": "transfer",
                                        "value": 13351
                                    }
                                ],
                                "depth": 0,
                                "name": "Executed Gas",
                                "value": 20640
                            }
                        ],
                        "depth": -1,
                        "name": "Actual Gas Used",
                        "value": 42308
                    },
                    {
                        "children": [],
                        "depth": -1,
                        "name": "Refunded Gas",
                        "value": 0
                    }
                ],
                "depth": -2,
                "name": "Total Gas",
                "value": 42308
            }
        ],
        "isConfirmed": true,
        "mainTrace": [
            {
                "children": [
                    {
                        "children": [
                            {
                                "children": [
                                    {
                                        "children": [],
                                        "depth": 2,
                                        "id": 2,
                                        "order": 2
                                    }
                                ],
                                "depth": 1,
                                "id": 1,
                                "order": 1
                            }
                        ],
                        "depth": 0,
                        "id": 0,
                        "order": 0
                    }
                ],
                "depth": -1,
                "id": -1,
                "order": -1
            }
        ],
        "mainTraceNodeCount": 3,
        "parentIdMap": {
            "0": -1,
            "1": 0,
            "2": 1
        },
        "tidyTrace": [
            {
                "children": [
                    {
                        "children": [
                            {
                                "children": [
                                    {
                                        "children": [],
                                        "depth": 2,
                                        "id": 2,
                                        "order": 2
                                    }
                                ],
                                "depth": 1,
                                "id": 1,
                                "order": 1
                            }
                        ],
                        "depth": 0,
                        "id": 0,
                        "order": 0
                    }
                ],
                "depth": -1,
                "id": -1,
                "order": -1
            }
        ],
        "tidyTraceNodeCount": 3
    },
    "state_change": {
        "stateChanges": [
            {
                "address": "0x6de037ef9ad2725eb40118bb1702ebb27e4aeb24",
                "erc": "ERC-20",
                "slots": [
                    {
                        "current": "0x0000000000000000000000000000000000000000000000035b9aa70a1dfe8b55",
                        "key": "0x6d60952527a90b0fb7125949846eafacca03e88e25cbaab24823bf5bc6323609",
                        "prev": "0x000000000000000000000000000000000000000000000005c00b3d5f41bb5f69"
                    },
                    {
                        "current": "0x0000000000000000000000000000000000000000000000077ea7967887dba0f3",
                        "key": "0x8ac1f278ea9af7ec690ff730cb4bf3d1065f8e6790feb1a166e83bf5360521de",
                        "prev": "0x0000000000000000000000000000000000000000000000051a370023641eccdf"
                    }
                ],
                "storageVariables": [
                    {
                        "name": "balances",
                        "type": "mapping(address => uint256)",
                        "value": {
                            "pairs": [
                                {
                                    "key": "0xe291cc3e5b9e0c9b37c9fbdd549abf3b5c0ad342",
                                    "value": {
                                        "current": "61941004086888270677",
                                        "prev": "106071942127907725161",
                                        "typeTag": 1
                                    }
                                },
                                {
                                    "key": "0xf5252a70dd135a4e17a063d46e8c39cf36b589a3",
                                    "value": {
                                        "current": "138253637130276020467",
                                        "prev": "94122699089256565983",
                                        "typeTag": 1
                                    }
                                }
                            ],
                            "typeTag": 4
                        }
                    }
                ]
            }
        ]
    }
}