{
    "balance_change": {
        "balanceChanges": [
            {
                "account": "0xc93748e8936ca7ac4f27b8712858d2de6646511d",
                "assets": [
                    {
                        "address": "0xbcdf14de99140a51fc7b714a35e553fe9e452883",
                        "amount": "2,728.46970488",
                        "iconUrl": "",
                        "isERC1155": false,
                        "isERC721": false,
                        "sign": false,
                        "value": ""
                    }
                ]
            },
            {
                "account": "0xd79f3b29c691a083116b8939d3130744660dbe9f",
                "assets": [
                    {
                        "address": "0xbcdf14de99140a51fc7b714a35e553fe9e452883",
                        "amount": "2,728.46970488",
                        "iconUrl": "",
                        "isERC1155": false,
                        "isERC721": false,
                        "sign": true,
                        "value": ""
                    }
                ]
            }
        ]
    },
    "profile": {
        "basic_info": {
            "baseFee": "",
            "blockNumber": 9118593,
            "callData": "0xa9059cbb000000000000000000000000d79f3b29c691a083116b8939d3130744660dbe9f000000000000000000000000000000000000000000000093e91fa4894b4ae000",
            "debugEnable": true,
            "errorInfo": "",
            "eventCount": 1,
            "feeRecipient": "0x5a0b54d5dc17e0aadc383d2db43b0a0d3e029c4c",
            "formatValue": "0",
            "gasLimit": 60000,
            "gasPrice": "7.5",
            "gasUsed": 37657,
            "intTxnCount": 0,
            "internalRevert": false,
            "internalRevertMessage": "",
            "isContractCreation": false,
            "isFlashloan": false,
            "maxFee": "",
            "nonce": 1744,
            "overwritedBlockNumber": -1,
            "priorityFee": "",
            "receiver": "0xbcdf14de99140a51fc7b714a35e553fe9e452883",
            "revertMessage": "",
            "sender": "0xc93748e8936ca7ac4f27b8712858d2de6646511d",
            "simulationEnable": true,
            "sourceTxnHash": "0x3e124a2beabfbfe97c8b9936c253e4191b3f68e00405998ab14f54333d0f6f36",
            "status": true,
            "timestamp": "2019-12-17T02:50:04Z",
            "transactionFee": "0.0002824275",
            "txnHash": "0x3e124a2beabfbfe97c8b9936c253e4191b3f68e00405998ab14f54333d0f6f36",
            "txnIndex": 121,
            "type": 0,
            "value": "0"
        },
        "fund_flow": [
            {
                "amount": "2,728.46970488",
                "from": "0xc93748e8936ca7ac4f27b8712858d2de6646511d",
                "id": 1,
                "isERC1155": false,
                "isERC721": false,
                "isReverted": false,
                "order": 1,
                "to": "0xd79f3b29c691a083116b8939d3130744660dbe9f",
                "token": "0xbcdf14de99140a51fc7b714a35e553fe9e452883"
            }
        ],
        "token_infos": [
            {
                "address": "0xbcdf14de99140a51fc7b714a35e553fe9e452883",
                "decimals": 18
            },
            {
                "address": "0xc02aaa39b223fe8d0a0e5c4f27ead9083c756cc2",
                "decimals": 18
            },
            {
                "address": "0xeeeeeeeeeeeeeeeeeeeeeeeeeeeeeeeeeeeeeeee",
                "decimals": 18
            }
        ]
    },
    "address_label": {
        "labels": [
            {
                "address": "0xeeeeeeeeeeeeeeeeeeeeeeeeeeeeeeeeeeeeeeee",
                "label": "Ether"
            },
            {
                "address": "0xbcdf14de99140a51fc7b714a35e553fe9e452883",
                "label": "BKC"
            },
            {
                "address": "0x0000000000000000000000000000000000000001",
                "label": "Precompiled"
            },
            {
                "address": "0x0000000000000000000000000000000000000002",
                "label": "Precompiled"
            },
            {
                "address": "0x0000000000000000000000000000000000000003",
                "label": "Precompiled"
            },
            {
                "address": "0x0000000000000000000000000000000000000004",
                "label": "Precompiled"
            }
        ]
    },
    "trace": {
        "accountLabels": null,
        "dataMap": {
            "-1": {
                "invocation": {
                    "address": "0xc93748e8936ca7ac4f27b8712858d2de6646511d",
                    "callData": "",
                    "decodedMethod": null,
                    "errorInfo": "",
                    "fromAddress": "",
                    "gasUsed": 0,
                    "id": -1,
                    "methodDecoded": false,
                    "operation": "",
                    "output": "",
                    "revert": false,
                    "revertMessage": "",
                    "selector": "",
                    "status": false,
                    "value": ""
                },
                "nodeType": 0
            },
            "0": {
                "invocation": {
                    "address": "0xbcdf14de99140a51fc7b714a35e553fe9e452883",
                    "callData": "0x000000000000000000000000d79f3b29c691a083116b8939d3130744660dbe9f000000000000000000000000000000000000000000000093e91fa4894b4ae000",
                    "decodedMethod": {
                        "callParams": [
                            {
                                "name": "_recipient",
                                "type": "address",
                                "value": "0xd79f3b29c691a083116b8939d3130744660dbe9f"
                            },
                            {
                                "decimalAvailable": true,
                                "name": "_value",
                                "type": "uint256",
                                "value": "2,728,469,704,880,000,000,000"
                            }
                        ],
                        "constructorArguments": "",
                        "name": "transfer",
                        "returnParams": [],
                        "signature": "transfer(address,uint256)"
                    },
                    "errorInfo": "",
                    "fromAddress": "0xc93748e8936ca7ac4f27b8712858d2de6646511d",
                    "gasUsed": 37657,
                    "id": 0,
                    "methodDecoded": true,
                    "operation": "CALL",
                    "output": "",
                    "revert": false,
                    "revertMessage": "",
                    "selector": "0xa9059cbb",
                    "status": true,
                    "value": "0"
                },
                "nodeType": 0
            },
            "1": {
                "event": {
                    "contract": "0xbcdf14de99140a51fc7b714a35e553fe9e452883",
                    "decodedLog": {
                        "name": "Transfer",
                        "params": [
                            {
                                "name": "_from",
                                "type": "address",
                                "value": "0xc93748e8936ca7ac4f27b8712858d2de6646511d"
                            },
                            {
                                "name": "_to",
                                "type": "address",
                                "value": "0xd79f3b29c691a083116b8939d3130744660dbe9f"
                            },
                            {
                                "decimalAvailable": true,
                                "name": "_value",
                                "type": "uint256",
                                "value": "2,728,469,704,880,000,000,000"
                            }
                        ],
                        "signature": "Transfer(address,address,uint256)"
                    },
                    "id": 1,
                    "logData": "0x000000000000000000000000000000000000000000000093e91fa4894b4ae000",
                    "logDecoded": true,
                    "operation": "EVENT",
                    "revert": false,
                    "status": true,
                    "topics": [
                        "0xddf252ad1be2c89b69c2b068fc378daa952ba7f163c4a11628f55a4df523b3ef",
                        "0x000000000000000000000000c93748e8936ca7ac4f27b8712858d2de6646511d",
                        "0x000000000000000000000000d79f3b29c691a083116b8939d3130744660dbe9f"
                    ]
                },
                "nodeType": 1
            }
        },
        "gasFlame": [
            {
                "children": [
                    {
                        "children": [
                            {
                                "children": [],
                                "depth": 0,
                                "name": "Initial Gas",
                                "value": 21656
                            },
                            {
                                "children": [],
                                "depth": 0,
                                "name": "Executed Gas",
                                "value": 16001
                            }
                        ],
                        "depth": -1,
                        "name": "Actual Gas Used",
                        "value": 37657
                    },
                    {
                        "children": [],
                        "depth": -1,
                        "name": "Refunded Gas",
                        "value": 0
                    }
                ],
                "depth": -2,
                "name": "Total Gas",
                "value": 37657
            }
        ],
        "isConfirmed": true,
        "mainTrace": [
            {
                "children": [
                    {
                        "children": [
                            {
                                "children": [],
                                "depth": 1,
                                "id": 1,
                                "order": 1
                            }
                        ],
                        "depth": 0,
                        "id": 0,
                        "order": 0
                    }
                ],
                "depth": -1,
                "id": -1,
                "order": -1
            }
        ],
        "mainTraceNodeCount": 2,
        "parentIdMap": {
            "0": -1,
            "1": 0
        },
        "tidyTrace": [
            {
                "children": [
                    {
                        "children": [
                            {
                                "children": [],
                                "depth": 1,
                                "id": 1,
                                "order": 1
                            }
                        ],
                        "depth": 0,
                        "id": 0,
                        "order": 0
                    }
                ],
                "depth": -1,
                "id": -1,
                "order": -1
            }
        ],
        "tidyTraceNodeCount": 2
    },
    "state_change": {
        "stateChanges": [
            {
                "address": "0xbcdf14de99140a51fc7b714a35e553fe9e452883",
                "erc": "ERC-20",
                "slots": [
                    {
                        "current": "0x000000000000000000000000000000000000000000000289e71f12d4ddaf4400",
                        "key": "0xdfc7ab46dfafe4e1ada618bcea9bb3654df68bfd340637d83324ef612458c189",
                        "prev": "0x0000000000000000000000000000000000000000000001f5fdff6e4b92646400"
                    },
                    {
                        "current": "0x0000000000000000000000000000000000000000000265710354d8699ec9d400",
                        "key": "0x52da55fb69f76651cd79a9d3ef53ac272910645dba8c79570083a2ae99992919",
                        "prev": "0x000000000000000000000000000000000000000000026604ec747cf2ea14b400"
                    }
                ],
                "storageVariables": [
                    {
                        "name": "balances",
                        "type": "mapping(address => uint256)",
                        "value": {
                            "pairs": [
                                {
                                    "key": "0xc93748e8936ca7ac4f27b8712858d2de6646511d",
                                    "value": {
                                        "current": "2896895376134050000000000",
                                        "prev": "2899623845838930000000000",
                                        "typeTag": 1
                                    }
                                },
                                {
                                    "key": "0xd79f3b29c691a083116b8939d3130744660dbe9f",
                                    "value": {
                                        "current": "11988590954490000000000",
                                        "prev": "9260121249610000000000",
                                        "typeTag": 1
                                    }
                                }
                            ],
                            "typeTag": 4
                        }
                    }
                ]
            }
        ]
    }
}