{
    "balance_change": {
        "balanceChanges": [
            {
                "account": "0x8f56e07fae269eb497a52dfa44ec0701d781a205",
                "assets": [
                    {
                        "address": "0xfb2f26f266fb2805a387230f2aa0a331b4d96fba",
                        "amount": "20,000",
                        "iconUrl": "",
                        "isERC1155": false,
                        "isERC721": false,
                        "sign": false,
                        "value": ""
                    }
                ]
            },
            {
                "account": "0x5ca9588e5fe96a4ee7cb12fd2445d05f41c521bd",
                "assets": [
                    {
                        "address": "0xfb2f26f266fb2805a387230f2aa0a331b4d96fba",
                        "amount": "20,000",
                        "iconUrl": "",
                        "isERC1155": false,
                        "isERC721": false,
                        "sign": true,
                        "value": ""
                    }
                ]
            }
        ]
    },
    "profile": {
        "basic_info": {
            "baseFee": "",
            "blockNumber": 6479203,
            "callData": "0xa9059cbb0000000000000000000000005ca9588e5fe96a4ee7cb12fd2445d05f41c521bd00000000000000000000000000000000000000000000043c33c1937564800000",
            "debugEnable": true,
            "errorInfo": "",
            "eventCount": 1,
            "feeRecipient": "0xb2930b35844a230f00e51431acae96fe543a0347",
            "formatValue": "0",
            "gasLimit": 38562,
            "gasPrice": "18",
            "gasUsed": 37562,
            "intTxnCount": 0,
            "internalRevert": false,
            "internalRevertMessage": "",
            "isContractCreation": false,
            "isFlashloan": false,
            "maxFee": "",
            "nonce": 12,
            "overwritedBlockNumber": -1,
            "priorityFee": "",
            "receiver": "0xfb2f26f266fb2805a387230f2aa0a331b4d96fba",
            "revertMessage": "",
            "sender": "0x8f56e07fae269eb497a52dfa44ec0701d781a205",
            "simulationEnable": true,
            "sourceTxnHash": "0x3f477b5f0f24303b9dc915af38b6130b303df6c90e2687f7aa4dda1991e5065a",
            "status": true,
            "timestamp": "2018-10-08T22:44:45Z",
            "transactionFee": "0.000676116",
            "txnHash": "0x3f477b5f0f24303b9dc915af38b6130b303df6c90e2687f7aa4dda1991e5065a",
            "txnIndex": 5,
            "type": 0,
            "value": "0"
        },
        "fund_flow": [
            {
                "amount": "20,000",
                "from": "0x8f56e07fae269eb497a52dfa44ec0701d781a205",
                "id": 1,
                "isERC1155": false,
                "isERC721": false,
                "isReverted": false,
                "order": 1,
                "to": "0x5ca9588e5fe96a4ee7cb12fd2445d05f41c521bd",
                "token": "0xfb2f26f266fb2805a387230f2aa0a331b4d96fba"
            }
        ],
        "token_infos": [
            {
                "address": "0xc02aaa39b223fe8d0a0e5c4f27ead9083c756cc2",
                "decimals": 18
            },
            {
                "address": "0xfb2f26f266fb2805a387230f2aa0a331b4d96fba",
                "decimals": 18
            },
            {
                "address": "0xeeeeeeeeeeeeeeeeeeeeeeeeeeeeeeeeeeeeeeee",
                "decimals": 18
            }
        ]
    },
    "address_label": {
        "labels": [
            {
                "address": "0x0000000000000000000000000000000000000003",
                "label": "Precompiled"
            },
            {
                "address": "0x0000000000000000000000000000000000000004",
                "label": "Precompiled"
            },
            {
                "address": "0xeeeeeeeeeeeeeeeeeeeeeeeeeeeeeeeeeeeeeeee",
                "label": "Ether"
            },
            {
                "address": "0x5ca9588e5fe96a4ee7cb12fd2445d05f41c521bd",
                "label": "KUCOIN"
            },
            {
                "address": "0xfb2f26f266fb2805a387230f2aa0a331b4d96fba",
                "label": "Edge Network Token"
            },
            {
                "address": "0x0000000000000000000000000000000000000001",
                "label": "Precompiled"
            },
            {
                "address": "0x0000000000000000000000000000000000000002",
                "label": "Precompiled"
            }
        ]
    },
    "trace": {
        "accountLabels": null,
        "dataMap": {
            "-1": {
                "invocation": {
                    "address": "0x8f56e07fae269eb497a52dfa44ec0701d781a205",
                    "callData": "",
                    "decodedMethod": null,
                    "errorInfo": "",
                    "fromAddress": "",
                    "gasUsed": 0,
                    "id": -1,
                    "methodDecoded": false,
                    "operation": "",
                    "output": "",
                    "revert": false,
                    "revertMessage": "",
                    "selector": "",
                    "status": false,
                    "value": ""
                },
                "nodeType": 0
            },
            "0": {
                "invocation": {
                    "address": "0xfb2f26f266fb2805a387230f2aa0a331b4d96fba",
                    "callData": "0x0000000000000000000000005ca9588e5fe96a4ee7cb12fd2445d05f41c521bd00000000000000000000000000000000000000000000043c33c1937564800000",
                    "decodedMethod": {
                        "callParams": [
                            {
                                "name": "_to",
                                "type": "address",
                                "value": "0x5ca9588e5fe96a4ee7cb12fd2445d05f41c521bd"
                            },
                            {
                                "decimalAvailable": true,
                                "name": "_value",
                                "type": "uint256",
                                "value": "20,000,000,000,000,000,000,000"
                            }
                        ],
                        "constructorArguments": "",
                        "name": "transfer",
                        "returnParams": [
                            {
                                "name": "",
                                "type": "bool",
                                "value": true
                            }
                        ],
                        "signature": "transfer(address,uint256)"
                    },
                    "errorInfo": "",
                    "fromAddress": "0x8f56e07fae269eb497a52dfa44ec0701d781a205",
                    "gasUsed": 37562,
                    "id": 0,
                    "methodDecoded": true,
                    "operation": "CALL",
                    "output": "0x0000000000000000000000000000000000000000000000000000000000000001",
                    "revert": false,
                    "revertMessage": "",
                    "selector": "0xa9059cbb",
                    "status": true,
                    "value": "0"
                },
                "nodeType": 0
            },
            "1": {
                "event": {
                    "contract": "0xfb2f26f266fb2805a387230f2aa0a331b4d96fba",
                    "decodedLog": {
                        "name": "Transfer",
                        "params": [
                            {
                                "name": "from",
                                "type": "address",
                                "value": "0x8f56e07fae269eb497a52dfa44ec0701d781a205"
                            },
                            {
                                "name": "to",
                                "type": "address",
                                "value": "0x5ca9588e5fe96a4ee7cb12fd2445d05f41c521bd"
                            },
                            {
                                "decimalAvailable": true,
                                "name": "value",
                                "type": "uint256",
                                "value": "20,000,000,000,000,000,000,000"
                            }
                        ],
                        "signature": "Transfer(address,address,uint256)"
                    },
                    "id": 1,
                    "logData": "0x00000000000000000000000000000000000000000000043c33c1937564800000",
                    "logDecoded": true,
                    "operation": "EVENT",
                    "revert": false,
                    "status": true,
                    "topics": [
                        "0xddf252ad1be2c89b69c2b068fc378daa952ba7f163c4a11628f55a4df523b3ef",
                        "0x0000000000000000000000008f56e07fae269eb497a52dfa44ec0701d781a205",
                        "0x0000000000000000000000005ca9588e5fe96a4ee7cb12fd2445d05f41c521bd"
                    ]
                },
                "nodeType": 1
            }
        },
        "gasFlame": [
            {
                "children": [
                    {
                        "children": [
                            {
                                "children": [],
                                "depth": 0,
                                "name": "Initial Gas",
                                "value": 23320
                            },
                            {
                                "children": [],
                                "depth": 0,
                                "name": "Executed Gas",
                                "value": 14242
                            }
                        ],
                        "depth": -1,
                        "name": "Actual Gas Used",
                        "value": 37562
                    },
                    {
                        "children": [],
                        "depth": -1,
                        "name": "Refunded Gas",
                        "value": 0
                    }
                ],
                "depth": -2,
                "name": "Total Gas",
                "value": 37562
            }
        ],
        "isConfirmed": true,
        "mainTrace": [
            {
                "children": [
                    {
                        "children": [
                            {
                                "children": [],
                                "depth": 1,
                                "id": 1,
                                "order": 1
                            }
                        ],
                        "depth": 0,
                        "id": 0,
                        "order": 0
                    }
                ],
                "depth": -1,
                "id": -1,
                "order": -1
            }
        ],
        "mainTraceNodeCount": 2,
        "parentIdMap": {
            "0": -1,
            "1": 0
        },
        "tidyTrace": [
            {
                "children": [
                    {
                        "children": [
                            {
                                "children": [],
                                "depth": 1,
                                "id": 1,
                                "order": 1
                            }
                        ],
                        "depth": 0,
                        "id": 0,
                        "order": 0
                    }
                ],
                "depth": -1,
                "id": -1,
                "order": -1
            }
        ],
        "tidyTraceNodeCount": 2
    },
    "state_change": {
        "stateChanges": [
            {
                "address": "0xfb2f26f266fb2805a387230f2aa0a331b4d96fba",
                "erc": "ERC-20",
                "slots": [
                    {
                        "current": "0x0000000000000000000000000000000000000000000004470b504fd02aa00000",
                        "key": "0x9a2a6be3ec989790b73d9682188f4d04d2f7d132e6a4ee642bbb965e22263739",
                        "prev": "0x00000000000000000000000000000000000000000000000ad78ebc5ac6200000"
                    },
                    {
                        "current": "0x00000000000000000000000000000000000000000000064f5e5529e53bdab23d",
                        "key": "0x5d3e15557dac3b4fda6c34a9d90c672014b03c747713c366b15a330ff2f999f7",
                        "prev": "0x000000000000000000000000000000000000000000000a8b9216bd5aa05ab23d"
                    }
                ],
                "storageVariables": [
                    {
                        "name": "balances",
                        "type": "mapping(address => uint256)",
                        "value": {
                            "pairs": [
                                {
                                    "key": "0x5ca9588e5fe96a4ee7cb12fd2445d05f41c521bd",
                                    "value": {
                                        "current": "20200000000000000000000",
                                        "prev": "200000000000000000000",
                                        "typeTag": 1
                                    }
                                },
                                {
                                    "key": "0x8f56e07fae269eb497a52dfa44ec0701d781a205",
                                    "value": {
                                        "current": "29798289064318039929405",
                                        "prev": "49798289064318039929405",
                                        "typeTag": 1
                                    }
                                }
                            ],
                            "typeTag": 4
                        }
                    }
                ]
            }
        ]
    }
}