{
    "balance_change": {
        "balanceChanges": [
            {
                "account": "0x1039a7bf3443b08554786ce258cdd35b4cba63b6",
                "assets": [
                    {
                        "address": "0x3597bfd533a99c9aa083587b074434e61eb0a258",
                        "amount": "1,260,000",
                        "iconUrl": "https://assets.blocksec.com/icon/b016a2d1f45541b969fb5b24876dedcebceb6bc5f22539b1969335ffef3588d8.png",
                        "isERC1155": false,
                        "isERC721": false,
                        "sign": false,
                        "value": ""
                    }
                ]
            },
            {
                "account": "0x3ea43a5d454f5b789531d1ee35d0f518e1297caf",
                "assets": [
                    {
                        "address": "0x3597bfd533a99c9aa083587b074434e61eb0a258",
                        "amount": "1,260,000",
                        "iconUrl": "https://assets.blocksec.com/icon/b016a2d1f45541b969fb5b24876dedcebceb6bc5f22539b1969335ffef3588d8.png",
                        "isERC1155": false,
                        "isERC721": false,
                        "sign": true,
                        "value": ""
                    }
                ]
            }
        ]
    },
    "profile": {
        "basic_info": {
            "baseFee": "",
            "blockNumber": 4294444,
            "callData": "0xa9059cbb0000000000000000000000003ea43a5d454f5b789531d1ee35d0f518e1297caf00000000000000000000000000000000000000000000000000007298a93de000",
            "debugEnable": true,
            "errorInfo": "",
            "eventCount": 1,
            "feeRecipient": "0xb2930b35844a230f00e51431acae96fe543a0347",
            "formatValue": "0",
            "gasLimit": 37385,
            "gasPrice": "20",
            "gasUsed": 22385,
            "intTxnCount": 0,
            "internalRevert": false,
            "internalRevertMessage": "",
            "isContractCreation": false,
            "isFlashloan": false,
            "maxFee": "",
            "nonce": 0,
            "overwritedBlockNumber": -1,
            "priorityFee": "",
            "receiver": "0x3597bfd533a99c9aa083587b074434e61eb0a258",
            "revertMessage": "",
            "sender": "0x1039a7bf3443b08554786ce258cdd35b4cba63b6",
            "simulationEnable": true,
            "sourceTxnHash": "0x3f1697a52bf9e7c1b01a2aac8afbb73f5deb1b231023cbe40da79efe56183104",
            "status": true,
            "timestamp": "2017-09-20T10:38:30Z",
            "transactionFee": "0.0004477",
            "txnHash": "0x3f1697a52bf9e7c1b01a2aac8afbb73f5deb1b231023cbe40da79efe56183104",
            "txnIndex": 67,
            "type": 0,
            "value": "0"
        },
        "fund_flow": [
            {
                "amount": "1,260,000",
                "from": "0x1039a7bf3443b08554786ce258cdd35b4cba63b6",
                "id": 1,
                "isERC1155": false,
                "isERC721": false,
                "isReverted": false,
                "order": 1,
                "to": "0x3ea43a5d454f5b789531d1ee35d0f518e1297caf",
                "token": "0x3597bfd533a99c9aa083587b074434e61eb0a258"
            }
        ],
        "token_infos": [
            {
                "address": "0x3597bfd533a99c9aa083587b074434e61eb0a258",
                "decimals": 8
            },
            {
                "address": "0xc02aaa39b223fe8d0a0e5c4f27ead9083c756cc2",
                "decimals": 18
            },
            {
                "address": "0xeeeeeeeeeeeeeeeeeeeeeeeeeeeeeeeeeeeeeeee",
                "decimals": 18
            }
        ]
    },
    "address_label": {
        "labels": [
            {
                "address": "0x0000000000000000000000000000000000000002",
                "label": "Precompiled"
            },
            {
                "address": "0x0000000000000000000000000000000000000003",
                "label": "Precompiled"
            },
            {
                "address": "0x0000000000000000000000000000000000000004",
                "label": "Precompiled"
            },
            {
                "address": "0xeeeeeeeeeeeeeeeeeeeeeeeeeeeeeeeeeeeeeeee",
                "label": "Ether"
            },
            {
                "address": "0x3597bfd533a99c9aa083587b074434e61eb0a258",
                "label": "DENT Token"
            },
            {
                "address": "0x0000000000000000000000000000000000000001",
                "label": "Precompiled"
            }
        ]
    },
    "trace": {
        "accountLabels": null,
        "dataMap": {
            "-1": {
                "invocation": {
                    "address": "0x1039a7bf3443b08554786ce258cdd35b4cba63b6",
                    "callData": "",
                    "decodedMethod": null,
                    "errorInfo": "",
                    "fromAddress": "",
                    "gasUsed": 0,
                    "id": -1,
                    "methodDecoded": false,
                    "operation": "",
                    "output": "",
                    "revert": false,
                    "revertMessage": "",
                    "selector": "",
                    "status": false,
                    "value": ""
                },
                "nodeType": 0
            },
            "0": {
                "invocation": {
                    "address": "0x3597bfd533a99c9aa083587b074434e61eb0a258",
                    "callData": "0x0000000000000000000000003ea43a5d454f5b789531d1ee35d0f518e1297caf00000000000000000000000000000000000000000000000000007298a93de000",
                    "decodedMethod": {
                        "callParams": [
                            {
                                "name": "_to",
                                "type": "address",
                                "value": "0x3ea43a5d454f5b789531d1ee35d0f518e1297caf"
                            },
                            {
                                "decimalAvailable": true,
                                "name": "_value",
                                "type": "uint256",
                                "value": "126,000,000,000,000"
                            }
                        ],
                        "constructorArguments": "",
                        "name": "transfer",
                        "returnParams": [
                            {
                                "name": "success",
                                "type": "bool",
                                "value": true
                            }
                        ],
                        "signature": "transfer(address,uint256)"
                    },
                    "errorInfo": "",
                    "fromAddress": "0x1039a7bf3443b08554786ce258cdd35b4cba63b6",
                    "gasUsed": 22385,
                    "id": 0,
                    "methodDecoded": true,
                    "operation": "CALL",
                    "output": "0x0000000000000000000000000000000000000000000000000000000000000001",
                    "revert": false,
                    "revertMessage": "",
                    "selector": "0xa9059cbb",
                    "status": true,
                    "value": "0"
                },
                "nodeType": 0
            },
            "1": {
                "event": {
                    "contract": "0x3597bfd533a99c9aa083587b074434e61eb0a258",
                    "decodedLog": {
                        "name": "Transfer",
                        "params": [
                            {
                                "name": "from",
                                "type": "address",
                                "value": "0x1039a7bf3443b08554786ce258cdd35b4cba63b6"
                            },
                            {
                                "name": "to",
                                "type": "address",
                                "value": "0x3ea43a5d454f5b789531d1ee35d0f518e1297caf"
                            },
                            {
                                "decimalAvailable": true,
                                "name": "value",
                                "type": "uint256",
                                "value": "126,000,000,000,000"
                            }
                        ],
                        "signature": "Transfer(address,address,uint256)"
                    },
                    "id": 1,
                    "logData": "0x00000000000000000000000000000000000000000000000000007298a93de000",
                    "logDecoded": true,
                    "operation": "EVENT",
                    "revert": false,
                    "status": true,
                    "topics": [
                        "0xddf252ad1be2c89b69c2b068fc378daa952ba7f163c4a11628f55a4df523b3ef",
                        "0x0000000000000000000000001039a7bf3443b08554786ce258cdd35b4cba63b6",
                        "0x0000000000000000000000003ea43a5d454f5b789531d1ee35d0f518e1297caf"
                    ]
                },
                "nodeType": 1
            }
        },
        "gasFlame": [
            {
                "children": [
                    {
                        "children": [
                            {
                                "children": [],
                                "depth": 0,
                                "name": "Initial Gas",
                                "value": 23128
                            },
                            {
                                "children": [],
                                "depth": 0,
                                "name": "Executed Gas",
                                "value": 14257
                            }
                        ],
                        "depth": -1,
                        "name": "Actual Gas Used",
                        "value": 22385
                    },
                    {
                        "children": [],
                        "depth": -1,
                        "name": "Refunded Gas",
                        "value": 15000
                    }
                ],
                "depth": -2,
                "name": "Total Gas",
                "value": 37385
            }
        ],
        "isConfirmed": true,
        "mainTrace": [
            {
                "children": [
                    {
                        "children": [
                            {
                                "children": [],
                                "depth": 1,
                                "id": 1,
                                "order": 1
                            }
                        ],
                        "depth": 0,
                        "id": 0,
                        "order": 0
                    }
                ],
                "depth": -1,
                "id": -1,
                "order": -1
            }
        ],
        "mainTraceNodeCount": 2,
        "parentIdMap": {
            "0": -1,
            "1": 0
        },
        "tidyTrace": [
            {
                "children": [
                    {
                        "children": [
                            {
                                "children": [],
                                "depth": 1,
                                "id": 1,
                                "order": 1
                            }
                        ],
                        "depth": 0,
                        "id": 0,
                        "order": 0
                    }
                ],
                "depth": -1,
                "id": -1,
                "order": -1
            }
        ],
        "tidyTraceNodeCount": 2
    },
    "state_change": {
        "stateChanges": [
            {
                "address": "0x3597bfd533a99c9aa083587b074434e61eb0a258",
                "erc": "ERC-20",
                "slots": [
                    {
                        "current": "0x0000000000000000000000000000000000000000000000000166e1a0f0c49ab5",
                        "key": "0x44b304a02a33eda4165794268aaeb1951d68960767963dca91cca8ad41661b34",
                        "prev": "0x00000000000000000000000000000000000000000000000001666f084786bab5"
                    },
                    {
                        "current": "0x0000000000000000000000000000000000000000000000000000000000000000",
                        "key": "0xff15142bf3e7a962c708463ece8b507cbca0452f787c8c84ffa61dc3fc845bb5",
                        "prev": "0x00000000000000000000000000000000000000000000000000007298a93de000"
                    }
                ],
                "storageVariables": []
            }
        ]
    }
}