{
    "balance_change": {
        "balanceChanges": [
            {
                "account": "0xf01bc7b4fd69b98a55acab706fedfe4132d0e2ac",
                "assets": [
                    {
                        "address": "0xeeeeeeeeeeeeeeeeeeeeeeeeeeeeeeeeeeeeeeee",
                        "amount": "0.9",
                        "iconUrl": "https://assets.blocksec.com/image/1663669189317-3.png",
                        "isERC1155": false,
                        "isERC721": false,
                        "sign": false,
                        "value": ""
                    }
                ]
            },
            {
                "account": "0xed3f5352ba43f85a5e1e2218f5085ce6106a214f",
                "assets": [
                    {
                        "address": "0xeeeeeeeeeeeeeeeeeeeeeeeeeeeeeeeeeeeeeeee",
                        "amount": "0.9",
                        "iconUrl": "https://assets.blocksec.com/image/1663669189317-3.png",
                        "isERC1155": false,
                        "isERC721": false,
                        "sign": true,
                        "value": ""
                    }
                ]
            }
        ]
    },
    "profile": {
        "basic_info": {
            "baseFee": "",
            "blockNumber": 3219869,
            "callData": "0xb61d27f6000000000000000000000000ed3f5352ba43f85a5e1e2218f5085ce6106a214f0000000000000000000000000000000000000000000000000c7d713b49da0000000000000000000000000000000000000000000000000000000000000000006000000000000000000000000000000000000000000000000000000000000000000000000000000000000000000000000000000000000000000000000000000000",
            "debugEnable": true,
            "errorInfo": "",
            "eventCount": 2,
            "feeRecipient": "0xd34da389374caad1a048fbdc4569aae33fd5a375",
            "formatValue": "0",
            "gasLimit": 142602,
            "gasPrice": "20",
            "gasUsed": 42602,
            "intTxnCount": 1,
            "internalRevert": false,
            "internalRevertMessage": "",
            "isContractCreation": false,
            "isFlashloan": false,
            "maxFee": "",
            "nonce": 12,
            "overwritedBlockNumber": -1,
            "priorityFee": "",
            "receiver": "0xf01bc7b4fd69b98a55acab706fedfe4132d0e2ac",
            "revertMessage": "",
            "sender": "0xe68e02f1c581061ecfe3ca165affa2436ef04f25",
            "simulationEnable": true,
            "sourceTxnHash": "0x40e98cf2b77908e9f9770ccad3b7678772bb015aa665c73e93db96d62807557d",
            "status": true,
            "timestamp": "2017-02-20T19:45:07Z",
            "transactionFee": "0.00085204",
            "txnHash": "0x40e98cf2b77908e9f9770ccad3b7678772bb015aa665c73e93db96d62807557d",
            "txnIndex": 3,
            "type": 0,
            "value": "0"
        },
        "fund_flow": [
            {
                "amount": "0.9",
                "from": "0xf01bc7b4fd69b98a55acab706fedfe4132d0e2ac",
                "id": 1,
                "isERC1155": false,
                "isERC721": false,
                "isReverted": false,
                "order": 1,
                "to": "0xed3f5352ba43f85a5e1e2218f5085ce6106a214f",
                "token": "0xeeeeeeeeeeeeeeeeeeeeeeeeeeeeeeeeeeeeeeee"
            }
        ],
        "token_infos": [
            {
                "address": "0xc02aaa39b223fe8d0a0e5c4f27ead9083c756cc2",
                "decimals": 18
            },
            {
                "address": "0xeeeeeeeeeeeeeeeeeeeeeeeeeeeeeeeeeeeeeeee",
                "decimals": 18
            }
        ]
    },
    "address_label": {
        "labels": [
            {
                "address": "0xeeeeeeeeeeeeeeeeeeeeeeeeeeeeeeeeeeeeeeee",
                "label": "Ether"
            },
            {
                "address": "0xed3f5352ba43f85a5e1e2218f5085ce6106a214f",
                "label": "0xed3f_Wallet"
            },
            {
                "address": "0xf01bc7b4fd69b98a55acab706fedfe4132d0e2ac",
                "label": "0xf01b_Wallet"
            },
            {
                "address": "0x0000000000000000000000000000000000000001",
                "label": "Precompiled"
            },
            {
                "address": "0x0000000000000000000000000000000000000002",
                "label": "Precompiled"
            },
            {
                "address": "0x0000000000000000000000000000000000000003",
                "label": "Precompiled"
            },
            {
                "address": "0x0000000000000000000000000000000000000004",
                "label": "Precompiled"
            }
        ]
    },
    "trace": {
        "accountLabels": null,
        "dataMap": {
            "-1": {
                "invocation": {
                    "address": "0xe68e02f1c581061ecfe3ca165affa2436ef04f25",
                    "callData": "",
                    "decodedMethod": null,
                    "errorInfo": "",
                    "fromAddress": "",
                    "gasUsed": 0,
                    "id": -1,
                    "methodDecoded": false,
                    "operation": "",
                    "output": "",
                    "revert": false,
                    "revertMessage": "",
                    "selector": "",
                    "status": false,
                    "value": ""
                },
                "nodeType": 0
            },
            "0": {
                "invocation": {
                    "address": "0xf01bc7b4fd69b98a55acab706fedfe4132d0e2ac",
                    "callData": "0x000000000000000000000000ed3f5352ba43f85a5e1e2218f5085ce6106a214f0000000000000000000000000000000000000000000000000c7d713b49da0000000000000000000000000000000000000000000000000000000000000000006000000000000000000000000000000000000000000000000000000000000000000000000000000000000000000000000000000000000000000000000000000000",
                    "decodedMethod": {
                        "callParams": [
                            {
                                "name": "_to",
                                "type": "address",
                                "value": "0xed3f5352ba43f85a5e1e2218f5085ce6106a214f"
                            },
                            {
                                "name": "_value",
                                "type": "uint256",
                                "value": "900,000,000,000,000,000"
                            },
                            {
                                "name": "_data",
                                "type": "bytes",
                                "value": "0x"
                            }
                        ],
                        "constructorArguments": "",
                        "name": "execute",
                        "returnParams": [
                            {
                                "name": "_r",
                                "type": "bytes32",
                                "value": "0x0000000000000000000000000000000000000000000000000000000000000000"
                            }
                        ],
                        "signature": "execute(address,uint256,bytes)"
                    },
                    "errorInfo": "",
                    "fromAddress": "0xe68e02f1c581061ecfe3ca165affa2436ef04f25",
                    "gasUsed": 42602,
                    "id": 0,
                    "methodDecoded": true,
                    "operation": "CALL",
                    "output": "0x0000000000000000000000000000000000000000000000000000000000000000",
                    "revert": false,
                    "revertMessage": "",
                    "selector": "0xb61d27f6",
                    "status": true,
                    "value": "0"
                },
                "nodeType": 0
            },
            "1": {
                "event": {
                    "contract": "0xf01bc7b4fd69b98a55acab706fedfe4132d0e2ac",
                    "decodedLog": {
                        "name": "SingleTransact",
                        "params": [
                            {
                                "name": "owner",
                                "type": "address",
                                "value": "0xe68e02f1c581061ecfe3ca165affa2436ef04f25"
                            },
                            {
                                "name": "value",
                                "type": "uint256",
                                "value": "900,000,000,000,000,000"
                            },
                            {
                                "name": "to",
                                "type": "address",
                                "value": "0xed3f5352ba43f85a5e1e2218f5085ce6106a214f"
                            },
                            {
                                "name": "data",
                                "type": "bytes",
                                "value": "0x"
                            }
                        ],
                        "signature": "SingleTransact(address,uint256,address,bytes)"
                    },
                    "id": 1,
                    "logData": "0x000000000000000000000000e68e02f1c581061ecfe3ca165affa2436ef04f250000000000000000000000000000000000000000000000000c7d713b49da0000000000000000000000000000ed3f5352ba43f85a5e1e2218f5085ce6106a214f00000000000000000000000000000000000000000000000000000000000000800000000000000000000000000000000000000000000000000000000000000000",
                    "logDecoded": true,
                    "operation": "EVENT",
                    "revert": false,
                    "status": true,
                    "topics": [
                        "0x92ca3a80853e6663fa31fa10b99225f18d4902939b4c53a9caae9043f6efd004"
                    ]
                },
                "nodeType": 1
            },
            "2": {
                "invocation": {
                    "address": "0xed3f5352ba43f85a5e1e2218f5085ce6106a214f",
                    "callData": "0x",
                    "decodedMethod": null,
                    "errorInfo": "",
                    "fromAddress": "0xf01bc7b4fd69b98a55acab706fedfe4132d0e2ac",
                    "gasUsed": 1423,
                    "id": 2,
                    "methodDecoded": false,
                    "operation": "CALL",
                    "output": "",
                    "revert": false,
                    "revertMessage": "",
                    "selector": "fallback",
                    "status": true,
                    "value": "0.9"
                },
                "nodeType": 0
            },
            "3": {
                "event": {
                    "contract": "0xed3f5352ba43f85a5e1e2218f5085ce6106a214f",
                    "decodedLog": {
                        "name": "Deposit",
                        "params": [
                            {
                                "name": "from",
                                "type": "address",
                                "value": "0xf01bc7b4fd69b98a55acab706fedfe4132d0e2ac"
                            },
                            {
                                "name": "value",
                                "type": "uint256",
                                "value": "900,000,000,000,000,000"
                            }
                        ],
                        "signature": "Deposit(address,uint256)"
                    },
                    "id": 3,
                    "logData": "0x000000000000000000000000f01bc7b4fd69b98a55acab706fedfe4132d0e2ac0000000000000000000000000000000000000000000000000c7d713b49da0000",
                    "logDecoded": true,
                    "operation": "EVENT",
                    "revert": false,
                    "status": true,
                    "topics": [
                        "0xe1fffcc4923d04b559f4d29a8bfc6cda04eb5b0d3c460751c2402c5c5cc9109c"
                    ]
                },
                "nodeType": 1
            }
        },
        "gasFlame": [
            {
                "children": [
                    {
                        "children": [
                            {
                                "children": [],
                                "depth": 0,
                                "name": "Initial Gas",
                                "value": 23640
                            },
                            {
                                "children": [
                                    {
                                        "children": [],
                                        "depth": 1,
                                        "name": "fallback",
                                        "value": 1423
                                    }
                                ],
                                "depth": 0,
                                "name": "Executed Gas",
                                "value": 18962
                            }
                        ],
                        "depth": -1,
                        "name": "Actual Gas Used",
                        "value": 42602
                    },
                    {
                        "children": [],
                        "depth": -1,
                        "name": "Refunded Gas",
                        "value": 0
                    }
                ],
                "depth": -2,
                "name": "Total Gas",
                "value": 42602
            }
        ],
        "isConfirmed": true,
        "mainTrace": [
            {
                "children": [
                    {
                        "children": [
                            {
                                "children": [],
                                "depth": 1,
                                "id": 1,
                                "order": 1
                            },
                            {
                                "children": [
                                    {
                                        "children": [],
                                        "depth": 2,
                                        "id": 3,
                                        "order": 3
                                    }
                                ],
                                "depth": 1,
                                "id": 2,
                                "order": 2
                            }
                        ],
                        "depth": 0,
                        "id": 0,
                        "order": 0
                    }
                ],
                "depth": -1,
                "id": -1,
                "order": -1
            }
        ],
        "mainTraceNodeCount": 4,
        "parentIdMap": {
            "0": -1,
            "1": 0,
            "2": 0,
            "3": 2
        },
        "tidyTrace": [
            {
                "children": [
                    {
                        "children": [
                            {
                                "children": [],
                                "depth": 1,
                                "id": 1,
                                "order": 1
                            },
                            {
                                "children": [
                                    {
                                        "children": [],
                                        "depth": 2,
                                        "id": 3,
                                        "order": 3
                                    }
                                ],
                                "depth": 1,
                                "id": 2,
                                "order": 2
                            }
                        ],
                        "depth": 0,
                        "id": 0,
                        "order": 0
                    }
                ],
                "depth": -1,
                "id": -1,
                "order": -1
            }
        ],
        "tidyTraceNodeCount": 4
    },
    "state_change": {
        "stateChanges": [
            {
                "address": "0xf01bc7b4fd69b98a55acab706fedfe4132d0e2ac",
                "erc": "",
                "slots": [
                    {
                        "current": "0x0000000000000000000000000000000000000000000000001feb3dd067660000",
                        "key": "0x0000000000000000000000000000000000000000000000000000000000000106",
                        "prev": "0x000000000000000000000000000000000000000000000000136dcc951d8c0000"
                    }
                ],
                "storageVariables": []
            }
        ]
    }
}