{
    "balance_change": {
        "balanceChanges": [
            {
                "account": "0xe223decb7f0d09271270284a63319ea76ce60b7b",
                "assets": [
                    {
                        "address": "0xb0ca787f8cf38f077e8201b05378da230a8b462f",
                        "amount": "299",
                        "iconUrl": "",
                        "isERC1155": false,
                        "isERC721": false,
                        "sign": false,
                        "value": ""
                    }
                ]
            },
            {
                "account": "0x63a92849d17202a06e29637d9815a9562f217e12",
                "assets": [
                    {
                        "address": "0xb0ca787f8cf38f077e8201b05378da230a8b462f",
                        "amount": "299",
                        "iconUrl": "",
                        "isERC1155": false,
                        "isERC721": false,
                        "sign": true,
                        "value": ""
                    }
                ]
            }
        ]
    },
    "profile": {
        "basic_info": {
            "baseFee": "",
            "blockNumber": 7524991,
            "callData": "0xa9059cbb00000000000000000000000063a92849d17202a06e29637d9815a9562f217e12000000000000000000000000000000000000000000000010357563d481cc0000",
            "debugEnable": true,
            "errorInfo": "",
            "eventCount": 1,
            "feeRecipient": "0xea674fdde714fd979de3edf0f56aa9716b898ec8",
            "formatValue": "0",
            "gasLimit": 60000,
            "gasPrice": "7.81",
            "gasUsed": 22324,
            "intTxnCount": 0,
            "internalRevert": false,
            "internalRevertMessage": "",
            "isContractCreation": false,
            "isFlashloan": false,
            "maxFee": "",
            "nonce": 11,
            "overwritedBlockNumber": -1,
            "priorityFee": "",
            "receiver": "0xb0ca787f8cf38f077e8201b05378da230a8b462f",
            "revertMessage": "",
            "sender": "0xe223decb7f0d09271270284a63319ea76ce60b7b",
            "simulationEnable": true,
            "sourceTxnHash": "0x40e7f838dccd94c05ae6ddff777a5bb166c8901ad28c0900b2567ecb205925ed",
            "status": true,
            "timestamp": "2019-04-08T03:18:33Z",
            "transactionFee": "0.00017435044",
            "txnHash": "0x40e7f838dccd94c05ae6ddff777a5bb166c8901ad28c0900b2567ecb205925ed",
            "txnIndex": 163,
            "type": 0,
            "value": "0"
        },
        "fund_flow": [
            {
                "amount": "299",
                "from": "0xe223decb7f0d09271270284a63319ea76ce60b7b",
                "id": 1,
                "isERC1155": false,
                "isERC721": false,
                "isReverted": false,
                "order": 1,
                "to": "0x63a92849d17202a06e29637d9815a9562f217e12",
                "token": "0xb0ca787f8cf38f077e8201b05378da230a8b462f"
            }
        ],
        "token_infos": [
            {
                "address": "0xeeeeeeeeeeeeeeeeeeeeeeeeeeeeeeeeeeeeeeee",
                "decimals": 18
            },
            {
                "address": "0xb0ca787f8cf38f077e8201b05378da230a8b462f",
                "decimals": 18
            },
            {
                "address": "0xc02aaa39b223fe8d0a0e5c4f27ead9083c756cc2",
                "decimals": 18
            }
        ]
    },
    "address_label": {
        "labels": [
            {
                "address": "0x0000000000000000000000000000000000000002",
                "label": "Precompiled"
            },
            {
                "address": "0x0000000000000000000000000000000000000003",
                "label": "Precompiled"
            },
            {
                "address": "0x0000000000000000000000000000000000000004",
                "label": "Precompiled"
            },
            {
                "address": "0xeeeeeeeeeeeeeeeeeeeeeeeeeeeeeeeeeeeeeeee",
                "label": "Ether"
            },
            {
                "address": "0xb0ca787f8cf38f077e8201b05378da230a8b462f",
                "label": "BHTX (BHTX)"
            },
            {
                "address": "0x0000000000000000000000000000000000000001",
                "label": "Precompiled"
            }
        ]
    },
    "trace": {
        "accountLabels": null,
        "dataMap": {
            "-1": {
                "invocation": {
                    "address": "0xe223decb7f0d09271270284a63319ea76ce60b7b",
                    "callData": "",
                    "decodedMethod": null,
                    "errorInfo": "",
                    "fromAddress": "",
                    "gasUsed": 0,
                    "id": -1,
                    "methodDecoded": false,
                    "operation": "",
                    "output": "",
                    "revert": false,
                    "revertMessage": "",
                    "selector": "",
                    "status": false,
                    "value": ""
                },
                "nodeType": 0
            },
            "0": {
                "invocation": {
                    "address": "0xb0ca787f8cf38f077e8201b05378da230a8b462f",
                    "callData": "0x00000000000000000000000063a92849d17202a06e29637d9815a9562f217e12000000000000000000000000000000000000000000000010357563d481cc0000",
                    "decodedMethod": {
                        "callParams": [
                            {
                                "name": "to",
                                "type": "address",
                                "value": "0x63a92849d17202a06e29637d9815a9562f217e12"
                            },
                            {
                                "decimalAvailable": true,
                                "name": "value",
                                "type": "uint256",
                                "value": "299,000,000,000,000,000,000"
                            }
                        ],
                        "constructorArguments": "",
                        "name": "transfer",
                        "returnParams": [
                            {
                                "name": "",
                                "type": "bool",
                                "value": true
                            }
                        ],
                        "signature": "transfer(address,uint256)"
                    },
                    "errorInfo": "",
                    "fromAddress": "0xe223decb7f0d09271270284a63319ea76ce60b7b",
                    "gasUsed": 22324,
                    "id": 0,
                    "methodDecoded": true,
                    "operation": "CALL",
                    "output": "0x0000000000000000000000000000000000000000000000000000000000000001",
                    "revert": false,
                    "revertMessage": "",
                    "selector": "0xa9059cbb",
                    "status": true,
                    "value": "0"
                },
                "nodeType": 0
            },
            "1": {
                "event": {
                    "contract": "0xb0ca787f8cf38f077e8201b05378da230a8b462f",
                    "decodedLog": {
                        "name": "Transfer",
                        "params": [
                            {
                                "name": "from",
                                "type": "address",
                                "value": "0xe223decb7f0d09271270284a63319ea76ce60b7b"
                            },
                            {
                                "name": "to",
                                "type": "address",
                                "value": "0x63a92849d17202a06e29637d9815a9562f217e12"
                            },
                            {
                                "decimalAvailable": true,
                                "name": "value",
                                "type": "uint256",
                                "value": "299,000,000,000,000,000,000"
                            }
                        ],
                        "signature": "Transfer(address,address,uint256)"
                    },
                    "id": 1,
                    "logData": "0x000000000000000000000000000000000000000000000010357563d481cc0000",
                    "logDecoded": true,
                    "operation": "EVENT",
                    "revert": false,
                    "status": true,
                    "topics": [
                        "0xddf252ad1be2c89b69c2b068fc378daa952ba7f163c4a11628f55a4df523b3ef",
                        "0x000000000000000000000000e223decb7f0d09271270284a63319ea76ce60b7b",
                        "0x00000000000000000000000063a92849d17202a06e29637d9815a9562f217e12"
                    ]
                },
                "nodeType": 1
            }
        },
        "gasFlame": [
            {
                "children": [
                    {
                        "children": [
                            {
                                "children": [],
                                "depth": 0,
                                "name": "Initial Gas",
                                "value": 23256
                            },
                            {
                                "children": [],
                                "depth": 0,
                                "name": "Executed Gas",
                                "value": 14068
                            }
                        ],
                        "depth": -1,
                        "name": "Actual Gas Used",
                        "value": 22324
                    },
                    {
                        "children": [],
                        "depth": -1,
                        "name": "Refunded Gas",
                        "value": 15000
                    }
                ],
                "depth": -2,
                "name": "Total Gas",
                "value": 37324
            }
        ],
        "isConfirmed": true,
        "mainTrace": [
            {
                "children": [
                    {
                        "children": [
                            {
                                "children": [],
                                "depth": 1,
                                "id": 1,
                                "order": 1
                            }
                        ],
                        "depth": 0,
                        "id": 0,
                        "order": 0
                    }
                ],
                "depth": -1,
                "id": -1,
                "order": -1
            }
        ],
        "mainTraceNodeCount": 2,
        "parentIdMap": {
            "0": -1,
            "1": 0
        },
        "tidyTrace": [
            {
                "children": [
                    {
                        "children": [
                            {
                                "children": [],
                                "depth": 1,
                                "id": 1,
                                "order": 1
                            }
                        ],
                        "depth": 0,
                        "id": 0,
                        "order": 0
                    }
                ],
                "depth": -1,
                "id": -1,
                "order": -1
            }
        ],
        "tidyTraceNodeCount": 2
    },
    "state_change": {
        "stateChanges": [
            {
                "address": "0xb0ca787f8cf38f077e8201b05378da230a8b462f",
                "erc": "ERC-20",
                "slots": [
                    {
                        "current": "0x0000000000000000000000000000000000000000000000000000000000000000",
                        "key": "0xe9c3544dc01edc23845c26a9ca4630dd878778927042c13a554c8f1ddffc1f6e",
                        "prev": "0x000000000000000000000000000000000000000000000010357563d481cc0000"
                    },
                    {
                        "current": "0x000000000000000000000000000000000000000000000047572b33887e100000",
                        "key": "0xc95bc94aa6ab412aac4b6bf6a0496064695b207dcbbbd8e84f3cbe6de60a945c",
                        "prev": "0x00000000000000000000000000000000000000000000003721b5cfb3fc440000"
                    }
                ],
                "storageVariables": [
                    {
                        "name": "balanceOf",
                        "type": "mapping(address => uint256)",
                        "value": {
                            "pairs": [
                                {
                                    "key": "0x63a92849d17202a06e29637d9815a9562f217e12",
                                    "value": {
                                        "current": "1316000000000000000000",
                                        "prev": "1017000000000000000000",
                                        "typeTag": 1
                                    }
                                },
                                {
                                    "key": "0xe223decb7f0d09271270284a63319ea76ce60b7b",
                                    "value": {
                                        "current": "0",
                                        "prev": "299000000000000000000",
                                        "typeTag": 1
                                    }
                                }
                            ],
                            "typeTag": 4
                        }
                    }
                ]
            }
        ]
    }
}