{
    "balance_change": {
        "balanceChanges": [
            {
                "account": "0xc6e8c2fe9d76df3c5cebd872dd0149228e960ca2",
                "assets": [
                    {
                        "address": "0x89d24a6b4ccb1b6faa2625fe562bdd9a23260359",
                        "amount": "92.966439482972601974",
                        "iconUrl": "https://assets.blocksec.com/icon/ef749d775affba651ec0a3b1d637f71b140c748229531fb8d00c215d958a89f4.png",
                        "isERC1155": false,
                        "isERC721": false,
                        "sign": true,
                        "value": ""
                    },
                    {
                        "address": "0xf5dce57282a584d2746faf1593d3121fcac444dc",
                        "amount": "4,425.34585622",
                        "iconUrl": "",
                        "isERC1155": false,
                        "isERC721": false,
                        "sign": false,
                        "value": ""
                    }
                ]
            },
            {
                "account": "0xf5dce57282a584d2746faf1593d3121fcac444dc",
                "assets": [
                    {
                        "address": "0xf5dce57282a584d2746faf1593d3121fcac444dc",
                        "amount": "4,425.34585622",
                        "iconUrl": "",
                        "isERC1155": false,
                        "isERC721": false,
                        "sign": true,
                        "value": ""
                    },
                    {
                        "address": "0x89d24a6b4ccb1b6faa2625fe562bdd9a23260359",
                        "amount": "92.966439482972601974",
                        "iconUrl": "https://assets.blocksec.com/icon/ef749d775affba651ec0a3b1d637f71b140c748229531fb8d00c215d958a89f4.png",
                        "isERC1155": false,
                        "isERC721": false,
                        "sign": false,
                        "value": ""
                    }
                ]
            }
        ]
    },
    "profile": {
        "basic_info": {
            "baseFee": "",
            "blockNumber": 8860922,
            "callData": "0xdb006a7500000000000000000000000000000000000000000000000000000067091de516",
            "debugEnable": true,
            "errorInfo": "",
            "eventCount": 4,
            "feeRecipient": "0x5a0b54d5dc17e0aadc383d2db43b0a0d3e029c4c",
            "formatValue": "0",
            "gasLimit": 244967,
            "gasPrice": "5.5",
            "gasUsed": 148431,
            "intTxnCount": 18,
            "internalRevert": false,
            "internalRevertMessage": "",
            "isContractCreation": false,
            "isFlashloan": false,
            "maxFee": "",
            "nonce": 95,
            "overwritedBlockNumber": -1,
            "priorityFee": "",
            "receiver": "0xf5dce57282a584d2746faf1593d3121fcac444dc",
            "revertMessage": "",
            "sender": "0xc6e8c2fe9d76df3c5cebd872dd0149228e960ca2",
            "simulationEnable": true,
            "sourceTxnHash": "0x40272616a4d3e013b1070836dbab3bb74b0d8f9d537b4de37cbbf3128ab4a826",
            "status": true,
            "timestamp": "2019-11-02T20:13:25Z",
            "transactionFee": "0.0008163705",
            "txnHash": "0x40272616a4d3e013b1070836dbab3bb74b0d8f9d537b4de37cbbf3128ab4a826",
            "txnIndex": 5,
            "type": 0,
            "value": "0"
        },
        "fund_flow": [
            {
                "amount": "92.966439482972601974",
                "from": "0xf5dce57282a584d2746faf1593d3121fcac444dc",
                "id": 1,
                "isERC1155": false,
                "isERC721": false,
                "isReverted": false,
                "order": 1,
                "to": "0xc6e8c2fe9d76df3c5cebd872dd0149228e960ca2",
                "token": "0x89d24a6b4ccb1b6faa2625fe562bdd9a23260359"
            },
            {
                "amount": "4,425.34585622",
                "from": "0xc6e8c2fe9d76df3c5cebd872dd0149228e960ca2",
                "id": 2,
                "isERC1155": false,
                "isERC721": false,
                "isReverted": false,
                "order": 2,
                "to": "0xf5dce57282a584d2746faf1593d3121fcac444dc",
                "token": "0xf5dce57282a584d2746faf1593d3121fcac444dc"
            }
        ],
        "token_infos": [
            {
                "address": "0x89d24a6b4ccb1b6faa2625fe562bdd9a23260359",
                "decimals": 18
            },
            {
                "address": "0xc02aaa39b223fe8d0a0e5c4f27ead9083c756cc2",
                "decimals": 18
            },
            {
                "address": "0xf5dce57282a584d2746faf1593d3121fcac444dc",
                "decimals": 8
            },
            {
                "address": "0xeeeeeeeeeeeeeeeeeeeeeeeeeeeeeeeeeeeeeeee",
                "decimals": 18
            }
        ]
    },
    "address_label": {
        "labels": [
            {
                "address": "0x3d9819210a31b4961b30ef54be2aed79b9c9cd3b",
                "label": "Compound: Comptroller"
            },
            {
                "address": "0x89d24a6b4ccb1b6faa2625fe562bdd9a23260359",
                "label": "Sai Stablecoin"
            },
            {
                "address": "0x2c9e6bdaa0ef0284eecef0e0cc102dcdeae4887e",
                "label": "PriceOracleProxy"
            },
            {
                "address": "0xeeeeeeeeeeeeeeeeeeeeeeeeeeeeeeeeeeeeeeee",
                "label": "Ether"
            },
            {
                "address": "0xf592ef673057a451c49c9433e278c5d59b56132c",
                "label": "Comptroller"
            },
            {
                "address": "0x729d19f657bd0614b4985cf1d82531c67569197b",
                "label": "Maker: Medianizer 2"
            },
            {
                "address": "0x0000000000000000000000000000000000000001",
                "label": "Precompiled"
            },
            {
                "address": "0x0000000000000000000000000000000000000003",
                "label": "Precompiled"
            },
            {
                "address": "0x02557a5e05defeffd4cae6d83ea3d173b272c904",
                "label": "Compound: Oracle"
            },
            {
                "address": "0x0000000000000000000000000000000000000004",
                "label": "Precompiled"
            },
            {
                "address": "0xf5dce57282a584d2746faf1593d3121fcac444dc",
                "label": "Compound Sai (cSAI)"
            },
            {
                "address": "0x0000000000000000000000000000000000000002",
                "label": "Precompiled"
            },
            {
                "address": "0xa1046abfc2598f48c44fb320d281d3f3c0733c9a",
                "label": "WhitePaperInterestRateModel"
            }
        ]
    },
    "trace": {
        "accountLabels": null,
        "dataMap": {
            "-1": {
                "invocation": {
                    "address": "0xc6e8c2fe9d76df3c5cebd872dd0149228e960ca2",
                    "callData": "",
                    "decodedMethod": null,
                    "errorInfo": "",
                    "fromAddress": "",
                    "gasUsed": 0,
                    "id": -1,
                    "methodDecoded": false,
                    "operation": "",
                    "output": "",
                    "revert": false,
                    "revertMessage": "",
                    "selector": "",
                    "status": false,
                    "value": ""
                },
                "nodeType": 0
            },
            "0": {
                "invocation": {
                    "address": "0xf5dce57282a584d2746faf1593d3121fcac444dc",
                    "callData": "0x00000000000000000000000000000000000000000000000000000067091de516",
                    "decodedMethod": {
                        "callParams": [
                            {
                                "name": "redeemTokens",
                                "type": "uint256",
                                "value": "442,534,585,622"
                            }
                        ],
                        "constructorArguments": "",
                        "name": "redeem",
                        "returnParams": [
                            {
                                "name": "",
                                "type": "uint256",
                                "value": "0"
                            }
                        ],
                        "signature": "redeem(uint256)"
                    },
                    "errorInfo": "",
                    "fromAddress": "0xc6e8c2fe9d76df3c5cebd872dd0149228e960ca2",
                    "gasUsed": 148431,
                    "id": 0,
                    "methodDecoded": true,
                    "operation": "CALL",
                    "output": "0x0000000000000000000000000000000000000000000000000000000000000000",
                    "revert": false,
                    "revertMessage": "",
                    "selector": "0xdb006a75",
                    "status": true,
                    "value": "0"
                },
                "nodeType": 0
            },
            "1": {
                "invocation": {
                    "address": "0x89d24a6b4ccb1b6faa2625fe562bdd9a23260359",
                    "callData": "0x000000000000000000000000f5dce57282a584d2746faf1593d3121fcac444dc",
                    "decodedMethod": {
                        "callParams": [
                            {
                                "name": "src",
                                "type": "address",
                                "value": "0xf5dce57282a584d2746faf1593d3121fcac444dc"
                            }
                        ],
                        "constructorArguments": "",
                        "name": "balanceOf",
                        "returnParams": [
                            {
                                "decimalAvailable": true,
                                "name": "",
                                "type": "uint256",
                                "value": "16,312,774,243,278,616,414,113,030"
                            }
                        ],
                        "signature": "balanceOf(address)"
                    },
                    "errorInfo": "",
                    "fromAddress": "0xf5dce57282a584d2746faf1593d3121fcac444dc",
                    "gasUsed": 815,
                    "id": 1,
                    "methodDecoded": true,
                    "operation": "STATICCALL",
                    "output": "0x0000000000000000000000000000000000000000000d7e5d438147ca5427cd06",
                    "revert": false,
                    "revertMessage": "",
                    "selector": "0x70a08231",
                    "status": true,
                    "value": "0"
                },
                "nodeType": 0
            },
            "10": {
                "invocation": {
                    "address": "0x3d9819210a31b4961b30ef54be2aed79b9c9cd3b",
                    "callData": "0x000000000000000000000000f5dce57282a584d2746faf1593d3121fcac444dc",
                    "decodedMethod": {
                        "callParams": [
                            {
                                "name": "",
                                "type": "address",
                                "value": "0xf5dce57282a584d2746faf1593d3121fcac444dc"
                            }
                        ],
                        "constructorArguments": "",
                        "name": "markets",
                        "returnParams": [
                            {
                                "name": "isListed",
                                "type": "bool",
                                "value": true
                            },
                            {
                                "name": "collateralFactorMantissa",
                                "type": "uint256",
                                "value": "750,000,000,000,000,000"
                            }
                        ],
                        "signature": "markets(address)"
                    },
                    "errorInfo": "",
                    "fromAddress": "0x2c9e6bdaa0ef0284eecef0e0cc102dcdeae4887e",
                    "gasUsed": 2235,
                    "id": 10,
                    "methodDecoded": true,
                    "operation": "STATICCALL",
                    "output": "0x00000000000000000000000000000000000000000000000000000000000000010000000000000000000000000000000000000000000000000a688906bd8b0000",
                    "revert": false,
                    "revertMessage": "",
                    "selector": "0x8e8f294b",
                    "status": true,
                    "value": "0"
                },
                "nodeType": 0
            },
            "11": {
                "invocation": {
                    "address": "0xf592ef673057a451c49c9433e278c5d59b56132c",
                    "callData": "0x000000000000000000000000f5dce57282a584d2746faf1593d3121fcac444dc",
                    "decodedMethod": {
                        "callParams": [
                            {
                                "name": "",
                                "type": "address",
                                "value": "0xf5dce57282a584d2746faf1593d3121fcac444dc"
                            }
                        ],
                        "constructorArguments": "",
                        "name": "markets",
                        "returnParams": [
                            {
                                "name": "isListed",
                                "type": "bool",
                                "value": true
                            },
                            {
                                "name": "collateralFactorMantissa",
                                "type": "uint256",
                                "value": "750,000,000,000,000,000"
                            }
                        ],
                        "signature": "markets(address)"
                    },
                    "errorInfo": "",
                    "fromAddress": "0x3d9819210a31b4961b30ef54be2aed79b9c9cd3b",
                    "gasUsed": 852,
                    "id": 11,
                    "methodDecoded": true,
                    "operation": "DELEGATECALL",
                    "output": "0x00000000000000000000000000000000000000000000000000000000000000010000000000000000000000000000000000000000000000000a688906bd8b0000",
                    "revert": false,
                    "revertMessage": "",
                    "selector": "0x8e8f294b",
                    "status": true,
                    "value": "0"
                },
                "nodeType": 0
            },
            "12": {
                "invocation": {
                    "address": "0x02557a5e05defeffd4cae6d83ea3d173b272c904",
                    "callData": "0x00000000000000000000000089d24a6b4ccb1b6faa2625fe562bdd9a23260359",
                    "decodedMethod": {
                        "callParams": [
                            {
                                "name": "asset",
                                "type": "address",
                                "value": "0x89d24a6b4ccb1b6faa2625fe562bdd9a23260359"
                            }
                        ],
                        "constructorArguments": "",
                        "name": "assetPrices",
                        "returnParams": [
                            {
                                "name": "",
                                "type": "uint256",
                                "value": "5,428,734,290,600,146"
                            }
                        ],
                        "signature": "assetPrices(address)"
                    },
                    "errorInfo": "",
                    "fromAddress": "0x2c9e6bdaa0ef0284eecef0e0cc102dcdeae4887e",
                    "gasUsed": 4800,
                    "id": 12,
                    "methodDecoded": true,
                    "operation": "STATICCALL",
                    "output": "0x00000000000000000000000000000000000000000000000000134967b2f8a0d2",
                    "revert": false,
                    "revertMessage": "",
                    "selector": "0x5e9a523c",
                    "status": true,
                    "value": "0"
                },
                "nodeType": 0
            },
            "13": {
                "invocation": {
                    "address": "0x729d19f657bd0614b4985cf1d82531c67569197b",
                    "callData": "0x",
                    "decodedMethod": {
                        "callParams": [],
                        "constructorArguments": "",
                        "name": "peek",
                        "returnParams": [
                            {
                                "name": "",
                                "type": "bytes32",
                                "value": "0x000000000000000000000000000000000000000000000009fc5b9f8a42d48000"
                            },
                            {
                                "name": "",
                                "type": "bool",
                                "value": true
                            }
                        ],
                        "signature": "peek()"
                    },
                    "errorInfo": "",
                    "fromAddress": "0x02557a5e05defeffd4cae6d83ea3d173b272c904",
                    "gasUsed": 945,
                    "id": 13,
                    "methodDecoded": true,
                    "operation": "CALL",
                    "output": "0x000000000000000000000000000000000000000000000009fc5b9f8a42d480000000000000000000000000000000000000000000000000000000000000000001",
                    "revert": false,
                    "revertMessage": "",
                    "selector": "0x59e02dd7",
                    "status": true,
                    "value": "0"
                },
                "nodeType": 0
            },
            "14": {
                "invocation": {
                    "address": "0x02557a5e05defeffd4cae6d83ea3d173b272c904",
                    "callData": "0x0000000000000000000000000000000000000000000000000000000000000001",
                    "decodedMethod": {
                        "callParams": [
                            {
                                "name": "asset",
                                "type": "address",
                                "value": "0x0000000000000000000000000000000000000001"
                            }
                        ],
                        "constructorArguments": "",
                        "name": "assetPrices",
                        "returnParams": [
                            {
                                "name": "",
                                "type": "uint256",
                                "value": "5,423,032,961,663,762,000,000,000,000"
                            }
                        ],
                        "signature": "assetPrices(address)"
                    },
                    "errorInfo": "",
                    "fromAddress": "0x2c9e6bdaa0ef0284eecef0e0cc102dcdeae4887e",
                    "gasUsed": 1544,
                    "id": 14,
                    "methodDecoded": true,
                    "operation": "STATICCALL",
                    "output": "0x00000000000000000000000000000000000000001185d3e5ecc0d6fe72cb2000",
                    "revert": false,
                    "revertMessage": "",
                    "selector": "0x5e9a523c",
                    "status": true,
                    "value": "0"
                },
                "nodeType": 0
            },
            "15": {
                "invocation": {
                    "address": "0x02557a5e05defeffd4cae6d83ea3d173b272c904",
                    "callData": "0x0000000000000000000000000000000000000000000000000000000000000002",
                    "decodedMethod": {
                        "callParams": [
                            {
                                "name": "asset",
                                "type": "address",
                                "value": "0x0000000000000000000000000000000000000002"
                            }
                        ],
                        "constructorArguments": "",
                        "name": "assetPrices",
                        "returnParams": [
                            {
                                "name": "",
                                "type": "uint256",
                                "value": "5,457,535,027,696,319"
                            }
                        ],
                        "signature": "assetPrices(address)"
                    },
                    "errorInfo": "",
                    "fromAddress": "0x2c9e6bdaa0ef0284eecef0e0cc102dcdeae4887e",
                    "gasUsed": 1544,
                    "id": 15,
                    "methodDecoded": true,
                    "operation": "STATICCALL",
                    "output": "0x0000000000000000000000000000000000000000000000000013639964acd2bf",
                    "revert": false,
                    "revertMessage": "",
                    "selector": "0x5e9a523c",
                    "status": true,
                    "value": "0"
                },
                "nodeType": 0
            },
            "16": {
                "invocation": {
                    "address": "0x89d24a6b4ccb1b6faa2625fe562bdd9a23260359",
                    "callData": "0x000000000000000000000000f5dce57282a584d2746faf1593d3121fcac444dc",
                    "decodedMethod": {
                        "callParams": [
                            {
                                "name": "src",
                                "type": "address",
                                "value": "0xf5dce57282a584d2746faf1593d3121fcac444dc"
                            }
                        ],
                        "constructorArguments": "",
                        "name": "balanceOf",
                        "returnParams": [
                            {
                                "decimalAvailable": true,
                                "name": "",
                                "type": "uint256",
                                "value": "16,312,774,243,278,616,414,113,030"
                            }
                        ],
                        "signature": "balanceOf(address)"
                    },
                    "errorInfo": "",
                    "fromAddress": "0xf5dce57282a584d2746faf1593d3121fcac444dc",
                    "gasUsed": 815,
                    "id": 16,
                    "methodDecoded": true,
                    "operation": "STATICCALL",
                    "output": "0x0000000000000000000000000000000000000000000d7e5d438147ca5427cd06",
                    "revert": false,
                    "revertMessage": "",
                    "selector": "0x70a08231",
                    "status": true,
                    "value": "0"
                },
                "nodeType": 0
            },
            "17": {
                "invocation": {
                    "address": "0x89d24a6b4ccb1b6faa2625fe562bdd9a23260359",
                    "callData": "0x000000000000000000000000c6e8c2fe9d76df3c5cebd872dd0149228e960ca20000000000000000000000000000000000000000000000050a2b2427076e7e76",
                    "decodedMethod": {
                        "callParams": [
                            {
                                "name": "dst",
                                "type": "address",
                                "value": "0xc6e8c2fe9d76df3c5cebd872dd0149228e960ca2"
                            },
                            {
                                "decimalAvailable": true,
                                "name": "wad",
                                "type": "uint256",
                                "value": "92,966,439,482,972,601,974"
                            }
                        ],
                        "constructorArguments": "",
                        "name": "transfer",
                        "returnParams": [
                            {
                                "name": "",
                                "type": "bool",
                                "value": true
                            }
                        ],
                        "signature": "transfer(address,uint256)"
                    },
                    "errorInfo": "",
                    "fromAddress": "0xf5dce57282a584d2746faf1593d3121fcac444dc",
                    "gasUsed": 29106,
                    "id": 17,
                    "methodDecoded": true,
                    "operation": "CALL",
                    "output": "0x0000000000000000000000000000000000000000000000000000000000000001",
                    "revert": false,
                    "revertMessage": "",
                    "selector": "0xa9059cbb",
                    "status": true,
                    "value": "0"
                },
                "nodeType": 0
            },
            "18": {
                "event": {
                    "contract": "0x89d24a6b4ccb1b6faa2625fe562bdd9a23260359",
                    "decodedLog": {
                        "name": "Transfer",
                        "params": [
                            {
                                "name": "src",
                                "type": "address",
                                "value": "0xf5dce57282a584d2746faf1593d3121fcac444dc"
                            },
                            {
                                "name": "dst",
                                "type": "address",
                                "value": "0xc6e8c2fe9d76df3c5cebd872dd0149228e960ca2"
                            },
                            {
                                "decimalAvailable": true,
                                "name": "wad",
                                "type": "uint256",
                                "value": "92,966,439,482,972,601,974"
                            }
                        ],
                        "signature": "Transfer(address,address,uint256)"
                    },
                    "id": 18,
                    "logData": "0x0000000000000000000000000000000000000000000000050a2b2427076e7e76",
                    "logDecoded": true,
                    "operation": "EVENT",
                    "revert": false,
                    "status": true,
                    "topics": [
                        "0xddf252ad1be2c89b69c2b068fc378daa952ba7f163c4a11628f55a4df523b3ef",
                        "0x000000000000000000000000f5dce57282a584d2746faf1593d3121fcac444dc",
                        "0x000000000000000000000000c6e8c2fe9d76df3c5cebd872dd0149228e960ca2"
                    ]
                },
                "nodeType": 1
            },
            "19": {
                "event": {
                    "contract": "0xf5dce57282a584d2746faf1593d3121fcac444dc",
                    "decodedLog": {
                        "name": "Transfer",
                        "params": [
                            {
                                "name": "from",
                                "type": "address",
                                "value": "0xc6e8c2fe9d76df3c5cebd872dd0149228e960ca2"
                            },
                            {
                                "name": "to",
                                "type": "address",
                                "value": "0xf5dce57282a584d2746faf1593d3121fcac444dc"
                            },
                            {
                                "decimalAvailable": true,
                                "name": "amount",
                                "type": "uint256",
                                "value": "442,534,585,622"
                            }
                        ],
                        "signature": "Transfer(address,address,uint256)"
                    },
                    "id": 19,
                    "logData": "0x00000000000000000000000000000000000000000000000000000067091de516",
                    "logDecoded": true,
                    "operation": "EVENT",
                    "revert": false,
                    "status": true,
                    "topics": [
                        "0xddf252ad1be2c89b69c2b068fc378daa952ba7f163c4a11628f55a4df523b3ef",
                        "0x000000000000000000000000c6e8c2fe9d76df3c5cebd872dd0149228e960ca2",
                        "0x000000000000000000000000f5dce57282a584d2746faf1593d3121fcac444dc"
                    ]
                },
                "nodeType": 1
            },
            "2": {
                "invocation": {
                    "address": "0xa1046abfc2598f48c44fb320d281d3f3c0733c9a",
                    "callData": "0x0000000000000000000000000000000000000000000d7e5d438147ca5427cd060000000000000000000000000000000000000000001225c28f810d55638d4fa800000000000000000000000000000000000000000000192335517d4d6713dfbf",
                    "decodedMethod": {
                        "callParams": [
                            {
                                "name": "cash",
                                "type": "uint256",
                                "value": "16,312,774,243,278,616,414,113,030"
                            },
                            {
                                "name": "borrows",
                                "type": "uint256",
                                "value": "21,938,981,321,840,681,483,587,496"
                            },
                            {
                                "name": "_reserves",
                                "type": "uint256",
                                "value": "118,708,640,104,049,483,702,207"
                            }
                        ],
                        "constructorArguments": "",
                        "name": "getBorrowRate",
                        "returnParams": [
                            {
                                "name": "",
                                "type": "uint256",
                                "value": "0"
                            },
                            {
                                "name": "",
                                "type": "uint256",
                                "value": "56,518,748,965"
                            }
                        ],
                        "signature": "getBorrowRate(uint256,uint256,uint256)"
                    },
                    "errorInfo": "",
                    "fromAddress": "0xf5dce57282a584d2746faf1593d3121fcac444dc",
                    "gasUsed": 4203,
                    "id": 2,
                    "methodDecoded": true,
                    "operation": "STATICCALL",
                    "output": "0x00000000000000000000000000000000000000000000000000000000000000000000000000000000000000000000000000000000000000000000000d28c7ab25",
                    "revert": false,
                    "revertMessage": "",
                    "selector": "0x15f24053",
                    "status": true,
                    "value": "0"
                },
                "nodeType": 0
            },
            "20": {
                "event": {
                    "contract": "0xf5dce57282a584d2746faf1593d3121fcac444dc",
                    "decodedLog": {
                        "name": "Redeem",
                        "params": [
                            {
                                "name": "redeemer",
                                "type": "address",
                                "value": "0xc6e8c2fe9d76df3c5cebd872dd0149228e960ca2"
                            },
                            {
                                "name": "redeemAmount",
                                "type": "uint256",
                                "value": "92,966,439,482,972,601,974"
                            },
                            {
                                "name": "redeemTokens",
                                "type": "uint256",
                                "value": "442,534,585,622"
                            }
                        ],
                        "signature": "Redeem(address,uint256,uint256)"
                    },
                    "id": 20,
                    "logData": "0x000000000000000000000000c6e8c2fe9d76df3c5cebd872dd0149228e960ca20000000000000000000000000000000000000000000000050a2b2427076e7e7600000000000000000000000000000000000000000000000000000067091de516",
                    "logDecoded": true,
                    "operation": "EVENT",
                    "revert": false,
                    "status": true,
                    "topics": [
                        "0xe5b754fb1abb7f01b499791d0b820ae3b6af3424ac1c59768edb53f4ec31a929"
                    ]
                },
                "nodeType": 1
            },
            "21": {
                "invocation": {
                    "address": "0x3d9819210a31b4961b30ef54be2aed79b9c9cd3b",
                    "callData": "0x000000000000000000000000f5dce57282a584d2746faf1593d3121fcac444dc000000000000000000000000c6e8c2fe9d76df3c5cebd872dd0149228e960ca20000000000000000000000000000000000000000000000050a2b2427076e7e7600000000000000000000000000000000000000000000000000000067091de516",
                    "decodedMethod": {
                        "callParams": [
                            {
                                "name": "cToken",
                                "type": "address",
                                "value": "0xf5dce57282a584d2746faf1593d3121fcac444dc"
                            },
                            {
                                "name": "redeemer",
                                "type": "address",
                                "value": "0xc6e8c2fe9d76df3c5cebd872dd0149228e960ca2"
                            },
                            {
                                "name": "redeemAmount",
                                "type": "uint256",
                                "value": "92,966,439,482,972,601,974"
                            },
                            {
                                "name": "redeemTokens",
                                "type": "uint256",
                                "value": "442,534,585,622"
                            }
                        ],
                        "constructorArguments": "",
                        "name": "redeemVerify",
                        "returnParams": [],
                        "signature": "redeemVerify(address,address,uint256,uint256)"
                    },
                    "errorInfo": "",
                    "fromAddress": "0xf5dce57282a584d2746faf1593d3121fcac444dc",
                    "gasUsed": 1693,
                    "id": 21,
                    "methodDecoded": true,
                    "operation": "CALL",
                    "output": "",
                    "revert": false,
                    "revertMessage": "",
                    "selector": "0x51dff989",
                    "status": true,
                    "value": "0"
                },
                "nodeType": 0
            },
            "22": {
                "invocation": {
                    "address": "0xf592ef673057a451c49c9433e278c5d59b56132c",
                    "callData": "0x000000000000000000000000f5dce57282a584d2746faf1593d3121fcac444dc000000000000000000000000c6e8c2fe9d76df3c5cebd872dd0149228e960ca20000000000000000000000000000000000000000000000050a2b2427076e7e7600000000000000000000000000000000000000000000000000000067091de516",
                    "decodedMethod": {
                        "callParams": [
                            {
                                "name": "cToken",
                                "type": "address",
                                "value": "0xf5dce57282a584d2746faf1593d3121fcac444dc"
                            },
                            {
                                "name": "redeemer",
                                "type": "address",
                                "value": "0xc6e8c2fe9d76df3c5cebd872dd0149228e960ca2"
                            },
                            {
                                "name": "redeemAmount",
                                "type": "uint256",
                                "value": "92,966,439,482,972,601,974"
                            },
                            {
                                "name": "redeemTokens",
                                "type": "uint256",
                                "value": "442,534,585,622"
                            }
                        ],
                        "constructorArguments": "",
                        "name": "redeemVerify",
                        "returnParams": [],
                        "signature": "redeemVerify(address,address,uint256,uint256)"
                    },
                    "errorInfo": "",
                    "fromAddress": "0x3d9819210a31b4961b30ef54be2aed79b9c9cd3b",
                    "gasUsed": 380,
                    "id": 22,
                    "methodDecoded": true,
                    "operation": "DELEGATECALL",
                    "output": "",
                    "revert": false,
                    "revertMessage": "",
                    "selector": "0x51dff989",
                    "status": true,
                    "value": "0"
                },
                "nodeType": 0
            },
            "3": {
                "event": {
                    "contract": "0xf5dce57282a584d2746faf1593d3121fcac444dc",
                    "decodedLog": {
                        "name": "AccrueInterest",
                        "params": [
                            {
                                "name": "interestAccumulated",
                                "type": "uint256",
                                "value": "2,479,927,555,753,874,696"
                            },
                            {
                                "name": "borrowIndex",
                                "type": "uint256",
                                "value": "1,079,209,668,095,703,893"
                            },
                            {
                                "name": "totalBorrows",
                                "type": "uint256",
                                "value": "21,938,983,801,768,237,237,462,192"
                            }
                        ],
                        "signature": "AccrueInterest(uint256,uint256,uint256)"
                    },
                    "id": 3,
                    "logData": "0x000000000000000000000000000000000000000000000000226a78f9056995080000000000000000000000000000000000000000000000000efa1f79a902fb550000000000000000000000000000000000000000001225c2b1eb864e68f6e4b0",
                    "logDecoded": true,
                    "operation": "EVENT",
                    "revert": false,
                    "status": true,
                    "topics": [
                        "0x875352fb3fadeb8c0be7cbbe8ff761b308fa7033470cd0287f02f3436fd76cb9"
                    ]
                },
                "nodeType": 1
            },
            "4": {
                "invocation": {
                    "address": "0x89d24a6b4ccb1b6faa2625fe562bdd9a23260359",
                    "callData": "0x000000000000000000000000f5dce57282a584d2746faf1593d3121fcac444dc",
                    "decodedMethod": {
                        "callParams": [
                            {
                                "name": "src",
                                "type": "address",
                                "value": "0xf5dce57282a584d2746faf1593d3121fcac444dc"
                            }
                        ],
                        "constructorArguments": "",
                        "name": "balanceOf",
                        "returnParams": [
                            {
                                "decimalAvailable": true,
                                "name": "",
                                "type": "uint256",
                                "value": "16,312,774,243,278,616,414,113,030"
                            }
                        ],
                        "signature": "balanceOf(address)"
                    },
                    "errorInfo": "",
                    "fromAddress": "0xf5dce57282a584d2746faf1593d3121fcac444dc",
                    "gasUsed": 815,
                    "id": 4,
                    "methodDecoded": true,
                    "operation": "STATICCALL",
                    "output": "0x0000000000000000000000000000000000000000000d7e5d438147ca5427cd06",
                    "revert": false,
                    "revertMessage": "",
                    "selector": "0x70a08231",
                    "status": true,
                    "value": "0"
                },
                "nodeType": 0
            },
            "5": {
                "invocation": {
                    "address": "0x3d9819210a31b4961b30ef54be2aed79b9c9cd3b",
                    "callData": "0x000000000000000000000000f5dce57282a584d2746faf1593d3121fcac444dc000000000000000000000000c6e8c2fe9d76df3c5cebd872dd0149228e960ca200000000000000000000000000000000000000000000000000000067091de516",
                    "decodedMethod": {
                        "callParams": [
                            {
                                "name": "cToken",
                                "type": "address",
                                "value": "0xf5dce57282a584d2746faf1593d3121fcac444dc"
                            },
                            {
                                "name": "redeemer",
                                "type": "address",
                                "value": "0xc6e8c2fe9d76df3c5cebd872dd0149228e960ca2"
                            },
                            {
                                "name": "redeemTokens",
                                "type": "uint256",
                                "value": "442,534,585,622"
                            }
                        ],
                        "constructorArguments": "",
                        "name": "redeemAllowed",
                        "returnParams": [
                            {
                                "name": "",
                                "type": "uint256",
                                "value": "0"
                            }
                        ],
                        "signature": "redeemAllowed(address,address,uint256)"
                    },
                    "errorInfo": "",
                    "fromAddress": "0xf5dce57282a584d2746faf1593d3121fcac444dc",
                    "gasUsed": 39135,
                    "id": 5,
                    "methodDecoded": true,
                    "operation": "CALL",
                    "output": "0x0000000000000000000000000000000000000000000000000000000000000000",
                    "revert": false,
                    "revertMessage": "",
                    "selector": "0xeabe7d91",
                    "status": true,
                    "value": "0"
                },
                "nodeType": 0
            },
            "6": {
                "invocation": {
                    "address": "0xf592ef673057a451c49c9433e278c5d59b56132c",
                    "callData": "0x000000000000000000000000f5dce57282a584d2746faf1593d3121fcac444dc000000000000000000000000c6e8c2fe9d76df3c5cebd872dd0149228e960ca200000000000000000000000000000000000000000000000000000067091de516",
                    "decodedMethod": {
                        "callParams": [
                            {
                                "name": "cToken",
                                "type": "address",
                                "value": "0xf5dce57282a584d2746faf1593d3121fcac444dc"
                            },
                            {
                                "name": "redeemer",
                                "type": "address",
                                "value": "0xc6e8c2fe9d76df3c5cebd872dd0149228e960ca2"
                            },
                            {
                                "name": "redeemTokens",
                                "type": "uint256",
                                "value": "442,534,585,622"
                            }
                        ],
                        "constructorArguments": "",
                        "name": "redeemAllowed",
                        "returnParams": [
                            {
                                "name": "",
                                "type": "uint256",
                                "value": "0"
                            }
                        ],
                        "signature": "redeemAllowed(address,address,uint256)"
                    },
                    "errorInfo": "",
                    "fromAddress": "0x3d9819210a31b4961b30ef54be2aed79b9c9cd3b",
                    "gasUsed": 37745,
                    "id": 6,
                    "methodDecoded": true,
                    "operation": "DELEGATECALL",
                    "output": "0x0000000000000000000000000000000000000000000000000000000000000000",
                    "revert": false,
                    "revertMessage": "",
                    "selector": "0xeabe7d91",
                    "status": true,
                    "value": "0"
                },
                "nodeType": 0
            },
            "7": {
                "invocation": {
                    "address": "0xf5dce57282a584d2746faf1593d3121fcac444dc",
                    "callData": "0x000000000000000000000000c6e8c2fe9d76df3c5cebd872dd0149228e960ca2",
                    "decodedMethod": {
                        "callParams": [
                            {
                                "name": "account",
                                "type": "address",
                                "value": "0xc6e8c2fe9d76df3c5cebd872dd0149228e960ca2"
                            }
                        ],
                        "constructorArguments": "",
                        "name": "getAccountSnapshot",
                        "returnParams": [
                            {
                                "name": "",
                                "type": "uint256",
                                "value": "0"
                            },
                            {
                                "name": "",
                                "type": "uint256",
                                "value": "442,534,585,622"
                            },
                            {
                                "name": "",
                                "type": "uint256",
                                "value": "0"
                            },
                            {
                                "name": "",
                                "type": "uint256",
                                "value": "210,077,228,997,377,833,278,076,250"
                            }
                        ],
                        "signature": "getAccountSnapshot(address)"
                    },
                    "errorInfo": "",
                    "fromAddress": "0x3d9819210a31b4961b30ef54be2aed79b9c9cd3b",
                    "gasUsed": 5932,
                    "id": 7,
                    "methodDecoded": true,
                    "operation": "STATICCALL",
                    "output": "0x000000000000000000000000000000000000000000000000000000000000000000000000000000000000000000000000000000000000000000000067091de5160000000000000000000000000000000000000000000000000000000000000000000000000000000000000000000000000000000000adc59567477d4e0093755a",
                    "revert": false,
                    "revertMessage": "",
                    "selector": "0xc37f68e2",
                    "status": true,
                    "value": "0"
                },
                "nodeType": 0
            },
            "8": {
                "invocation": {
                    "address": "0x89d24a6b4ccb1b6faa2625fe562bdd9a23260359",
                    "callData": "0x000000000000000000000000f5dce57282a584d2746faf1593d3121fcac444dc",
                    "decodedMethod": {
                        "callParams": [
                            {
                                "name": "src",
                                "type": "address",
                                "value": "0xf5dce57282a584d2746faf1593d3121fcac444dc"
                            }
                        ],
                        "constructorArguments": "",
                        "name": "balanceOf",
                        "returnParams": [
                            {
                                "decimalAvailable": true,
                                "name": "",
                                "type": "uint256",
                                "value": "16,312,774,243,278,616,414,113,030"
                            }
                        ],
                        "signature": "balanceOf(address)"
                    },
                    "errorInfo": "",
                    "fromAddress": "0xf5dce57282a584d2746faf1593d3121fcac444dc",
                    "gasUsed": 815,
                    "id": 8,
                    "methodDecoded": true,
                    "operation": "STATICCALL",
                    "output": "0x0000000000000000000000000000000000000000000d7e5d438147ca5427cd06",
                    "revert": false,
                    "revertMessage": "",
                    "selector": "0x70a08231",
                    "status": true,
                    "value": "0"
                },
                "nodeType": 0
            },
            "9": {
                "invocation": {
                    "address": "0x2c9e6bdaa0ef0284eecef0e0cc102dcdeae4887e",
                    "callData": "0x000000000000000000000000f5dce57282a584d2746faf1593d3121fcac444dc",
                    "decodedMethod": {
                        "callParams": [
                            {
                                "name": "cToken",
                                "type": "address",
                                "value": "0xf5dce57282a584d2746faf1593d3121fcac444dc"
                            }
                        ],
                        "constructorArguments": "",
                        "name": "getUnderlyingPrice",
                        "returnParams": [
                            {
                                "name": "",
                                "type": "uint256",
                                "value": "5,463,272,629,255,205"
                            }
                        ],
                        "signature": "getUnderlyingPrice(address)"
                    },
                    "errorInfo": "",
                    "fromAddress": "0x3d9819210a31b4961b30ef54be2aed79b9c9cd3b",
                    "gasUsed": 19680,
                    "id": 9,
                    "methodDecoded": true,
                    "operation": "STATICCALL",
                    "output": "0x000000000000000000000000000000000000000000000000001368d14860bc25",
                    "revert": false,
                    "revertMessage": "",
                    "selector": "0xfc57d4df",
                    "status": true,
                    "value": "0"
                },
                "nodeType": 0
            }
        },
        "gasFlame": [
            {
                "children": [
                    {
                        "children": [
                            {
                                "children": [],
                                "depth": 0,
                                "name": "Initial Gas",
                                "value": 21656
                            },
                            {
                                "children": [
                                    {
                                        "children": [],
                                        "depth": 1,
                                        "name": "balanceOf",
                                        "value": 815
                                    },
                                    {
                                        "children": [],
                                        "depth": 1,
                                        "name": "getBorrowRate",
                                        "value": 4203
                                    },
                                    {
                                        "children": [],
                                        "depth": 1,
                                        "name": "balanceOf",
                                        "value": 815
                                    },
                                    {
                                        "children": [
                                            {
                                                "children": [
                                                    {
                                                        "children": [
                                                            {
                                                                "children": [],
                                                                "depth": 4,
                                                                "name": "balanceOf",
                                                                "value": 815
                                                            }
                                                        ],
                                                        "depth": 3,
                                                        "name": "getAccountSnapshot",
                                                        "value": 5932
                                                    },
                                                    {
                                                        "children": [
                                                            {
                                                                "children": [
                                                                    {
                                                                        "children": [],
                                                                        "depth": 5,
                                                                        "name": "markets",
                                                                        "value": 852
                                                                    }
                                                                ],
                                                                "depth": 4,
                                                                "name": "markets",
                                                                "value": 2235
                                                            },
                                                            {
                                                                "children": [
                                                                    {
                                                                        "children": [],
                                                                        "depth": 5,
                                                                        "name": "peek",
                                                                        "value": 945
                                                                    }
                                                                ],
                                                                "depth": 4,
                                                                "name": "assetPrices",
                                                                "value": 4800
                                                            },
                                                            {
                                                                "children": [],
                                                                "depth": 4,
                                                                "name": "assetPrices",
                                                                "value": 1544
                                                            },
                                                            {
                                                                "children": [],
                                                                "depth": 4,
                                                                "name": "assetPrices",
                                                                "value": 1544
                                                            }
                                                        ],
                                                        "depth": 3,
                                                        "name": "getUnderlyingPrice",
                                                        "value": 19680
                                                    }
                                                ],
                                                "depth": 2,
                                                "name": "redeemAllowed",
                                                "value": 37745
                                            }
                                        ],
                                        "depth": 1,
                                        "name": "redeemAllowed",
                                        "value": 39135
                                    },
                                    {
                                        "children": [],
                                        "depth": 1,
                                        "name": "balanceOf",
                                        "value": 815
                                    },
                                    {
                                        "children": [],
                                        "depth": 1,
                                        "name": "transfer",
                                        "value": 29106
                                    },
                                    {
                                        "children": [
                                            {
                                                "children": [],
                                                "depth": 2,
                                                "name": "redeemVerify",
                                                "value": 380
                                            }
                                        ],
                                        "depth": 1,
                                        "name": "redeemVerify",
                                        "value": 1693
                                    }
                                ],
                                "depth": 0,
                                "name": "Executed Gas",
                                "value": 141775
                            }
                        ],
                        "depth": -1,
                        "name": "Actual Gas Used",
                        "value": 148431
                    },
                    {
                        "children": [],
                        "depth": -1,
                        "name": "Refunded Gas",
                        "value": 15000
                    }
                ],
                "depth": -2,
                "name": "Total Gas",
                "value": 163431
            }
        ],
        "isConfirmed": true,
        "mainTrace": [
            {
                "children": [
                    {
                        "children": [
                            {
                                "children": [],
                                "depth": 1,
                                "id": 1,
                                "order": 1
                            },
                            {
                                "children": [],
                                "depth": 1,
                                "id": 2,
                                "order": 2
                            },
                            {
                                "children": [],
                                "depth": 1,
                                "id": 3,
                                "order": 3
                            },
                            {
                                "children": [],
                                "depth": 1,
                                "id": 4,
                                "order": 4
                            },
                            {
                                "children": [
                                    {
                                        "children": [
                                            {
                                                "children": [
                                                    {
                                                        "children": [],
                                                        "depth": 4,
                                                        "id": 8,
                                                        "order": 8
                                                    }
                                                ],
                                                "depth": 3,
                                                "id": 7,
                                                "order": 7
                                            },
                                            {
                                                "children": [
                                                    {
                                                        "children": [
                                                            {
                                                                "children": [],
                                                                "depth": 5,
                                                                "id": 11,
                                                                "order": 11
                                                            }
                                                        ],
                                                        "depth": 4,
                                                        "id": 10,
                                                        "order": 10
                                                    },
                                                    {
                                                        "children": [
                                                            {
                                                                "children": [],
                                                                "depth": 5,
                                                                "id": 13,
                                                                "order": 13
                                                            }
                                                        ],
                                                        "depth": 4,
                                                        "id": 12,
                                                        "order": 12
                                                    },
                                                    {
                                                        "children": [],
                                                        "depth": 4,
                                                        "id": 14,
                                                        "order": 14
                                                    },
                                                    {
                                                        "children": [],
                                                        "depth": 4,
                                                        "id": 15,
                                                        "order": 15
                                                    }
                                                ],
                                                "depth": 3,
                                                "id": 9,
                                                "order": 9
                                            }
                                        ],
                                        "depth": 2,
                                        "id": 6,
                                        "order": 6
                                    }
                                ],
                                "depth": 1,
                                "id": 5,
                                "order": 5
                            },
                            {
                                "children": [],
                                "depth": 1,
                                "id": 16,
                                "order": 16
                            },
                            {
                                "children": [
                                    {
                                        "children": [],
                                        "depth": 2,
                                        "id": 18,
                                        "order": 18
                                    }
                                ],
                                "depth": 1,
                                "id": 17,
                                "order": 17
                            },
                            {
                                "children": [],
                                "depth": 1,
                                "id": 19,
                                "order": 19
                            },
                            {
                                "children": [],
                                "depth": 1,
                                "id": 20,
                                "order": 20
                            },
                            {
                                "children": [
                                    {
                                        "children": [],
                                        "depth": 2,
                                        "id": 22,
                                        "order": 22
                                    }
                                ],
                                "depth": 1,
                                "id": 21,
                                "order": 21
                            }
                        ],
                        "depth": 0,
                        "id": 0,
                        "order": 0
                    }
                ],
                "depth": -1,
                "id": -1,
                "order": -1
            }
        ],
        "mainTraceNodeCount": 23,
        "parentIdMap": {
            "0": -1,
            "1": 0,
            "10": 9,
            "11": 10,
            "12": 9,
            "13": 12,
            "14": 9,
            "15": 9,
            "16": 0,
            "17": 0,
            "18": 17,
            "19": 0,
            "2": 0,
            "20": 0,
            "21": 0,
            "22": 21,
            "3": 0,
            "4": 0,
            "5": 0,
            "6": 5,
            "7": 6,
            "8": 7,
            "9": 6
        },
        "tidyTrace": [
            {
                "children": [
                    {
                        "children": [
                            {
                                "children": [],
                                "depth": 1,
                                "id": 3,
                                "order": 3
                            },
                            {
                                "children": [
                                    {
                                        "children": [],
                                        "depth": 2,
                                        "id": 6,
                                        "order": 6
                                    }
                                ],
                                "depth": 1,
                                "id": 5,
                                "order": 5
                            },
                            {
                                "children": [
                                    {
                                        "children": [],
                                        "depth": 2,
                                        "id": 18,
                                        "order": 18
                                    }
                                ],
                                "depth": 1,
                                "id": 17,
                                "order": 17
                            },
                            {
                                "children": [],
                                "depth": 1,
                                "id": 19,
                                "order": 19
                            },
                            {
                                "children": [],
                                "depth": 1,
                                "id": 20,
                                "order": 20
                            },
                            {
                                "children": [
                                    {
                                        "children": [],
                                        "depth": 2,
                                        "id": 22,
                                        "order": 22
                                    }
                                ],
                                "depth": 1,
                                "id": 21,
                                "order": 21
                            }
                        ],
                        "depth": 0,
                        "id": 0,
                        "order": 0
                    }
                ],
                "depth": -1,
                "id": -1,
                "order": -1
            }
        ],
        "tidyTraceNodeCount": 10
    },
    "state_change": {
        "stateChanges": [
            {
                "address": "0x89d24a6b4ccb1b6faa2625fe562bdd9a23260359",
                "erc": "ERC-20",
                "slots": [
                    {
                        "current": "0x0000000000000000000000000000000000000000000000050a2b2427076e7e76",
                        "key": "0xe11a2710493aad35af039bbf83cb2cf72415d0e51936d534d8801fa3de01dec5",
                        "prev": "0x0000000000000000000000000000000000000000000000000000000000000000"
                    },
                    {
                        "current": "0x0000000000000000000000000000000000000000000d7e58395623a34cb94e90",
                        "key": "0x58dfd41f9cf2f2f13ea1a4b73f232fe8cf3188ddb2005316ad549408e7ce0645",
                        "prev": "0x0000000000000000000000000000000000000000000d7e5d438147ca5427cd06"
                    }
                ],
                "storageVariables": [
                    {
                        "name": "_balances",
                        "type": "mapping(address => uint256)",
                        "value": {
                            "pairs": [
                                {
                                    "key": "0xc6e8c2fe9d76df3c5cebd872dd0149228e960ca2",
                                    "value": {
                                        "current": "92966439482972601974",
                                        "prev": "0",
                                        "typeTag": 1
                                    }
                                },
                                {
                                    "key": "0xf5dce57282a584d2746faf1593d3121fcac444dc",
                                    "value": {
                                        "current": "16312681276839133441511056",
                                        "prev": "16312774243278616414113030",
                                        "typeTag": 1
                                    }
                                }
                            ],
                            "typeTag": 4
                        }
                    }
                ]
            },
            {
                "address": "0xf5dce57282a584d2746faf1593d3121fcac444dc",
                "erc": "ERC-20",
                "slots": [
                    {
                        "current": "0x00000000000000000000000000000000000000000000000000000000008734fa",
                        "key": "0x000000000000000000000000000000000000000000000000000000000000000a",
                        "prev": "0x00000000000000000000000000000000000000000000000000000000008734f8"
                    },
                    {
                        "current": "0x0000000000000000000000000000000000000000000000000efa1f79a902fb55",
                        "key": "0x000000000000000000000000000000000000000000000000000000000000000b",
                        "prev": "0x0000000000000000000000000000000000000000000000000efa1f5d41c5ce04"
                    },
                    {
                        "current": "0x0000000000000000000000000000000000000000001225c2b1eb864e68f6e4b0",
                        "key": "0x000000000000000000000000000000000000000000000000000000000000000c",
                        "prev": "0x0000000000000000000000000000000000000000001225c28f810d55638d4fa8"
                    },
                    {
                        "current": "0x000000000000000000000000000000000000000000001923370a0359da8c5a65",
                        "key": "0x000000000000000000000000000000000000000000000000000000000000000d",
                        "prev": "0x00000000000000000000000000000000000000000000192335517d4d6713dfbf"
                    },
                    {
                        "current": "0x0000000000000000000000000000000000000000000000000284e257bbeababe",
                        "key": "0x000000000000000000000000000000000000000000000000000000000000000e",
                        "prev": "0x0000000000000000000000000000000000000000000000000284e2bec5089fd4"
                    },
                    {
                        "current": "0x0000000000000000000000000000000000000000000000000000000000000000",
                        "key": "0x065b5b20ef797456cbdaa0a314aef9ad637e020c0f74e1f0fd2f66ef1d6ef29d",
                        "prev": "0x00000000000000000000000000000000000000000000000000000067091de516"
                    },
                    {
                        "current": "0x0000000000000000000000000000000000000000000000000000000000016d07",
                        "key": "0x0000000000000000000000000000000000000000000000000000000000000000",
                        "prev": "0x0000000000000000000000000000000000000000000000000000000000016d06"
                    }
                ],
                "storageVariables": [
                    {
                        "name": "_guardCounter",
                        "type": "uint256",
                        "value": {
                            "current": "93447",
                            "prev": "93446",
                            "typeTag": 1
                        }
                    },
                    {
                        "name": "accrualBlockNumber",
                        "type": "uint256",
                        "value": {
                            "current": "8860922",
                            "prev": "8860920",
                            "typeTag": 1
                        }
                    },
                    {
                        "name": "borrowIndex",
                        "type": "uint256",
                        "value": {
                            "current": "1079209668095703893",
                            "prev": "1079209546104557060",
                            "typeTag": 1
                        }
                    },
                    {
                        "name": "totalBorrows",
                        "type": "uint256",
                        "value": {
                            "current": "21938983801768237237462192",
                            "prev": "21938981321840681483587496",
                            "typeTag": 1
                        }
                    },
                    {
                        "name": "totalReserves",
                        "type": "uint256",
                        "value": {
                            "current": "118708764100427271395941",
                            "prev": "118708640104049483702207",
                            "typeTag": 1
                        }
                    },
                    {
                        "name": "totalSupply",
                        "type": "uint256",
                        "value": {
                            "current": "181518751444417214",
                            "prev": "181519193979002836",
                            "typeTag": 1
                        }
                    },
                    {
                        "name": "accountTokens",
                        "type": "mapping(address => uint256)",
                        "value": {
                            "pairs": [
                                {
                                    "key": "0xc6e8c2fe9d76df3c5cebd872dd0149228e960ca2",
                                    "value": {
                                        "current": "0",
                                        "prev": "442534585622",
                                        "typeTag": 1
                                    }
                                }
                            ],
                            "typeTag": 4
                        }
                    }
                ]
            }
        ]
    }
}