{
    "balance_change": {
        "balanceChanges": [
            {
                "account": "0xf0fcd278e4e7d457b6bfb3d955bb9023e9a1f438",
                "assets": [
                    {
                        "address": "0x5e7ebea68ab05198f771d77a875480314f1d0aae",
                        "amount": "200",
                        "iconUrl": "",
                        "isERC1155": false,
                        "isERC721": false,
                        "sign": false,
                        "value": ""
                    }
                ]
            },
            {
                "account": "0x75ac71fe06b1ea8d403ccbc39e600c9acebc6cde",
                "assets": [
                    {
                        "address": "0x5e7ebea68ab05198f771d77a875480314f1d0aae",
                        "amount": "200",
                        "iconUrl": "",
                        "isERC1155": false,
                        "isERC721": false,
                        "sign": true,
                        "value": ""
                    }
                ]
            }
        ]
    },
    "profile": {
        "basic_info": {
            "baseFee": "",
            "blockNumber": 9628843,
            "callData": "0x40e800d80000000000000000000000000000000000000000000000000000000000000001000000000000000000000000000000000000000000000000000000000000002b00000000000000000000000000000000000000000000000ad78ebc5ac62000000000000000000000000000007aa56cbf9bcdd2e987b24b51696edf144079d02000000000000000000000000000000000000000000000000000000000000000c00000000000000000000000000000000000000000000000000000000000000120000000000000000000000000000000000000000000000000000000000000004031303936663361326333323361383432653838613337303139333630386136343561663831336231363730303230653439376334333735636331343638383764000000000000000000000000000000000000000000000000000000000000000b6c75636b794e756d626572000000000000000000000000000000000000000000",
            "debugEnable": true,
            "errorInfo": "",
            "eventCount": 4,
            "feeRecipient": "0xaa5c4244f05c92781c4f259913319d8ba1acf05e",
            "formatValue": "0",
            "gasLimit": 200000,
            "gasPrice": "3",
            "gasUsed": 130173,
            "intTxnCount": 3,
            "internalRevert": false,
            "internalRevertMessage": "",
            "isContractCreation": false,
            "isFlashloan": false,
            "maxFee": "",
            "nonce": 2795,
            "overwritedBlockNumber": -1,
            "priorityFee": "",
            "receiver": "0x75ac71fe06b1ea8d403ccbc39e600c9acebc6cde",
            "revertMessage": "",
            "sender": "0xf0fcd278e4e7d457b6bfb3d955bb9023e9a1f438",
            "simulationEnable": true,
            "sourceTxnHash": "0x409421db71dd582cc96a12343474c74975307b9f0f6b17b99ce8c868267a581a",
            "status": true,
            "timestamp": "2020-03-08T05:17:31Z",
            "transactionFee": "0.000390519",
            "txnHash": "0x409421db71dd582cc96a12343474c74975307b9f0f6b17b99ce8c868267a581a",
            "txnIndex": 107,
            "type": 0,
            "value": "0"
        },
        "fund_flow": [
            {
                "amount": "200",
                "from": "0xf0fcd278e4e7d457b6bfb3d955bb9023e9a1f438",
                "id": 1,
                "isERC1155": false,
                "isERC721": false,
                "isReverted": false,
                "order": 1,
                "to": "0x75ac71fe06b1ea8d403ccbc39e600c9acebc6cde",
                "token": "0x5e7ebea68ab05198f771d77a875480314f1d0aae"
            }
        ],
        "token_infos": [
            {
                "address": "0x5e7ebea68ab05198f771d77a875480314f1d0aae",
                "decimals": 18
            },
            {
                "address": "0xc02aaa39b223fe8d0a0e5c4f27ead9083c756cc2",
                "decimals": 18
            },
            {
                "address": "0xeeeeeeeeeeeeeeeeeeeeeeeeeeeeeeeeeeeeeeee",
                "decimals": 18
            }
        ]
    },
    "address_label": {
        "labels": [
            {
                "address": "0xeeeeeeeeeeeeeeeeeeeeeeeeeeeeeeeeeeeeeeee",
                "label": "Ether"
            },
            {
                "address": "0x5e7ebea68ab05198f771d77a875480314f1d0aae",
                "label": "DABANKING: DAB Token"
            },
            {
                "address": "0x0000000000000000000000000000000000000001",
                "label": "Precompiled"
            },
            {
                "address": "0x0000000000000000000000000000000000000002",
                "label": "Precompiled"
            },
            {
                "address": "0x0000000000000000000000000000000000000003",
                "label": "Precompiled"
            },
            {
                "address": "0x0000000000000000000000000000000000000004",
                "label": "Precompiled"
            }
        ]
    },
    "trace": {
        "accountLabels": null,
        "dataMap": {
            "-1": {
                "invocation": {
                    "address": "0xf0fcd278e4e7d457b6bfb3d955bb9023e9a1f438",
                    "callData": "",
                    "decodedMethod": null,
                    "errorInfo": "",
                    "fromAddress": "",
                    "gasUsed": 0,
                    "id": -1,
                    "methodDecoded": false,
                    "operation": "",
                    "output": "",
                    "revert": false,
                    "revertMessage": "",
                    "selector": "",
                    "status": false,
                    "value": ""
                },
                "nodeType": 0
            },
            "0": {
                "invocation": {
                    "address": "0x75ac71fe06b1ea8d403ccbc39e600c9acebc6cde",
                    "callData": "0x0000000000000000000000000000000000000000000000000000000000000001000000000000000000000000000000000000000000000000000000000000002b00000000000000000000000000000000000000000000000ad78ebc5ac62000000000000000000000000000007aa56cbf9bcdd2e987b24b51696edf144079d02000000000000000000000000000000000000000000000000000000000000000c00000000000000000000000000000000000000000000000000000000000000120000000000000000000000000000000000000000000000000000000000000004031303936663361326333323361383432653838613337303139333630386136343561663831336231363730303230653439376334333735636331343638383764000000000000000000000000000000000000000000000000000000000000000b6c75636b794e756d626572000000000000000000000000000000000000000000",
                    "decodedMethod": null,
                    "errorInfo": "",
                    "fromAddress": "0xf0fcd278e4e7d457b6bfb3d955bb9023e9a1f438",
                    "gasUsed": 130173,
                    "id": 0,
                    "methodDecoded": false,
                    "operation": "CALL",
                    "output": "",
                    "revert": false,
                    "revertMessage": "",
                    "selector": "0x40e800d8",
                    "status": true,
                    "value": "0"
                },
                "nodeType": 0
            },
            "1": {
                "invocation": {
                    "address": "0x5e7ebea68ab05198f771d77a875480314f1d0aae",
                    "callData": "0x000000000000000000000000f0fcd278e4e7d457b6bfb3d955bb9023e9a1f43800000000000000000000000075ac71fe06b1ea8d403ccbc39e600c9acebc6cde",
                    "decodedMethod": {
                        "callParams": [
                            {
                                "name": "owner",
                                "type": "address",
                                "value": "0xf0fcd278e4e7d457b6bfb3d955bb9023e9a1f438"
                            },
                            {
                                "name": "spender",
                                "type": "address",
                                "value": "0x75ac71fe06b1ea8d403ccbc39e600c9acebc6cde"
                            }
                        ],
                        "constructorArguments": "",
                        "name": "allowance",
                        "returnParams": [
                            {
                                "decimalAvailable": true,
                                "name": "",
                                "type": "uint256",
                                "value": "99,764,158,000,000,000,000,000,000"
                            }
                        ],
                        "signature": "allowance(address,address)"
                    },
                    "errorInfo": "",
                    "fromAddress": "0x75ac71fe06b1ea8d403ccbc39e600c9acebc6cde",
                    "gasUsed": 1528,
                    "id": 1,
                    "methodDecoded": true,
                    "operation": "CALL",
                    "output": "0x0000000000000000000000000000000000000000005285e1d78c9d4af8380000",
                    "revert": false,
                    "revertMessage": "",
                    "selector": "0xdd62ed3e",
                    "status": true,
                    "value": "0"
                },
                "nodeType": 0
            },
            "2": {
                "invocation": {
                    "address": "0x5e7ebea68ab05198f771d77a875480314f1d0aae",
                    "callData": "0x000000000000000000000000f0fcd278e4e7d457b6bfb3d955bb9023e9a1f43800000000000000000000000075ac71fe06b1ea8d403ccbc39e600c9acebc6cde00000000000000000000000000000000000000000000000ad78ebc5ac6200000",
                    "decodedMethod": {
                        "callParams": [
                            {
                                "name": "from",
                                "type": "address",
                                "value": "0xf0fcd278e4e7d457b6bfb3d955bb9023e9a1f438"
                            },
                            {
                                "name": "to",
                                "type": "address",
                                "value": "0x75ac71fe06b1ea8d403ccbc39e600c9acebc6cde"
                            },
                            {
                                "decimalAvailable": true,
                                "name": "value",
                                "type": "uint256",
                                "value": "200,000,000,000,000,000,000"
                            }
                        ],
                        "constructorArguments": "",
                        "name": "transferFrom",
                        "returnParams": [
                            {
                                "name": "",
                                "type": "bool",
                                "value": true
                            }
                        ],
                        "signature": "transferFrom(address,address,uint256)"
                    },
                    "errorInfo": "",
                    "fromAddress": "0x75ac71fe06b1ea8d403ccbc39e600c9acebc6cde",
                    "gasUsed": 23019,
                    "id": 2,
                    "methodDecoded": true,
                    "operation": "CALL",
                    "output": "0x0000000000000000000000000000000000000000000000000000000000000001",
                    "revert": false,
                    "revertMessage": "",
                    "selector": "0x23b872dd",
                    "status": true,
                    "value": "0"
                },
                "nodeType": 0
            },
            "3": {
                "event": {
                    "contract": "0x5e7ebea68ab05198f771d77a875480314f1d0aae",
                    "decodedLog": {
                        "name": "Transfer",
                        "params": [
                            {
                                "name": "from",
                                "type": "address",
                                "value": "0xf0fcd278e4e7d457b6bfb3d955bb9023e9a1f438"
                            },
                            {
                                "name": "to",
                                "type": "address",
                                "value": "0x75ac71fe06b1ea8d403ccbc39e600c9acebc6cde"
                            },
                            {
                                "decimalAvailable": true,
                                "name": "value",
                                "type": "uint256",
                                "value": "200,000,000,000,000,000,000"
                            }
                        ],
                        "signature": "Transfer(address,address,uint256)"
                    },
                    "id": 3,
                    "logData": "0x00000000000000000000000000000000000000000000000ad78ebc5ac6200000",
                    "logDecoded": true,
                    "operation": "EVENT",
                    "revert": false,
                    "status": true,
                    "topics": [
                        "0xddf252ad1be2c89b69c2b068fc378daa952ba7f163c4a11628f55a4df523b3ef",
                        "0x000000000000000000000000f0fcd278e4e7d457b6bfb3d955bb9023e9a1f438",
                        "0x00000000000000000000000075ac71fe06b1ea8d403ccbc39e600c9acebc6cde"
                    ]
                },
                "nodeType": 1
            },
            "4": {
                "event": {
                    "contract": "0x5e7ebea68ab05198f771d77a875480314f1d0aae",
                    "decodedLog": {
                        "name": "Approval",
                        "params": [
                            {
                                "name": "owner",
                                "type": "address",
                                "value": "0xf0fcd278e4e7d457b6bfb3d955bb9023e9a1f438"
                            },
                            {
                                "name": "spender",
                                "type": "address",
                                "value": "0x75ac71fe06b1ea8d403ccbc39e600c9acebc6cde"
                            },
                            {
                                "decimalAvailable": true,
                                "name": "value",
                                "type": "uint256",
                                "value": "99,763,958,000,000,000,000,000,000"
                            }
                        ],
                        "signature": "Approval(address,address,uint256)"
                    },
                    "id": 4,
                    "logData": "0x0000000000000000000000000000000000000000005285d6fffde0f032180000",
                    "logDecoded": true,
                    "operation": "EVENT",
                    "revert": false,
                    "status": true,
                    "topics": [
                        "0x8c5be1e5ebec7d5bd14f71427d1e84f3dd0314c0f7b2291e5b200ac8c7c3b925",
                        "0x000000000000000000000000f0fcd278e4e7d457b6bfb3d955bb9023e9a1f438",
                        "0x00000000000000000000000075ac71fe06b1ea8d403ccbc39e600c9acebc6cde"
                    ]
                },
                "nodeType": 1
            },
            "5": {
                "invocation": {
                    "address": "0xe81b7e9611936547d18540fbe4e53b104ecc44d0",
                    "callData": "0x000000000000000000000000f0fcd278e4e7d457b6bfb3d955bb9023e9a1f43800000000000000000000000000000000000000000000000000000000000000600000000000000000000000000000000000000000000000000000000000000000000000000000000000000000000000000000000000000000000000000000000b6c75636b794e756d626572000000000000000000000000000000000000000000",
                    "decodedMethod": null,
                    "errorInfo": "",
                    "fromAddress": "0x75ac71fe06b1ea8d403ccbc39e600c9acebc6cde",
                    "gasUsed": 12401,
                    "id": 5,
                    "methodDecoded": false,
                    "operation": "CALL",
                    "output": "",
                    "revert": false,
                    "revertMessage": "",
                    "selector": "0x7d8fe32e",
                    "status": true,
                    "value": "0"
                },
                "nodeType": 0
            },
            "6": {
                "event": {
                    "contract": "0xe81b7e9611936547d18540fbe4e53b104ecc44d0",
                    "decodedLog": null,
                    "id": 6,
                    "logData": "0x000000000000000000000000f0fcd278e4e7d457b6bfb3d955bb9023e9a1f438000000000000000000000000000000000000000000000000000000000001cdf800000000000000000000000000000000000000000000000000000000000000800000000000000000000000000000000000000000000000000000000000000000000000000000000000000000000000000000000000000000000000000000000b6c75636b794e756d626572000000000000000000000000000000000000000000",
                    "logDecoded": false,
                    "operation": "EVENT",
                    "revert": false,
                    "status": true,
                    "topics": [
                        "0x3f4bf951e672984be04efab55a20b42d23bebd023eddb58688af3ebc0b4e709b",
                        "0x0000000000000000000000000000000000000000000000000000000000000016"
                    ]
                },
                "nodeType": 1
            },
            "7": {
                "event": {
                    "contract": "0x75ac71fe06b1ea8d403ccbc39e600c9acebc6cde",
                    "decodedLog": null,
                    "id": 7,
                    "logData": "0x0000000000000000000000000000000000000000000000000000000000000001000000000000000000000000000000000000000000000000000000000000002b000000000000000000000000000000000000000000000000000000000000005b00000000000000000000000000000000000000000000000000000000000000000000000000000000000000000000000000000000000000000000000000000000",
                    "logDecoded": false,
                    "operation": "EVENT",
                    "revert": false,
                    "status": true,
                    "topics": [
                        "0xe260bb0cdf58af341d75a45558e03a7d5ed5b9d61f99704337af3c9b2a0a0e39",
                        "0x000000000000000000000000f0fcd278e4e7d457b6bfb3d955bb9023e9a1f438",
                        "0x00000000000000000000000000000000000000000000000ad78ebc5ac6200000",
                        "0x000000000000000000000000000000000000000000000000000000000000002b"
                    ]
                },
                "nodeType": 1
            }
        },
        "gasFlame": [
            {
                "children": [
                    {
                        "children": [
                            {
                                "children": [],
                                "depth": 0,
                                "name": "Initial Gas",
                                "value": 23768
                            },
                            {
                                "children": [
                                    {
                                        "children": [],
                                        "depth": 1,
                                        "name": "allowance",
                                        "value": 1528
                                    },
                                    {
                                        "children": [],
                                        "depth": 1,
                                        "name": "transferFrom",
                                        "value": 23019
                                    },
                                    {
                                        "children": [],
                                        "depth": 1,
                                        "name": "0x7d8fe32e",
                                        "value": 12401
                                    }
                                ],
                                "depth": 0,
                                "name": "Executed Gas",
                                "value": 106405
                            }
                        ],
                        "depth": -1,
                        "name": "Actual Gas Used",
                        "value": 130173
                    },
                    {
                        "children": [],
                        "depth": -1,
                        "name": "Refunded Gas",
                        "value": 0
                    }
                ],
                "depth": -2,
                "name": "Total Gas",
                "value": 130173
            }
        ],
        "isConfirmed": true,
        "mainTrace": [
            {
                "children": [
                    {
                        "children": [
                            {
                                "children": [],
                                "depth": 1,
                                "id": 1,
                                "order": 1
                            },
                            {
                                "children": [
                                    {
                                        "children": [],
                                        "depth": 2,
                                        "id": 3,
                                        "order": 3
                                    },
                                    {
                                        "children": [],
                                        "depth": 2,
                                        "id": 4,
                                        "order": 4
                                    }
                                ],
                                "depth": 1,
                                "id": 2,
                                "order": 2
                            },
                            {
                                "children": [
                                    {
                                        "children": [],
                                        "depth": 2,
                                        "id": 6,
                                        "order": 6
                                    }
                                ],
                                "depth": 1,
                                "id": 5,
                                "order": 5
                            },
                            {
                                "children": [],
                                "depth": 1,
                                "id": 7,
                                "order": 7
                            }
                        ],
                        "depth": 0,
                        "id": 0,
                        "order": 0
                    }
                ],
                "depth": -1,
                "id": -1,
                "order": -1
            }
        ],
        "mainTraceNodeCount": 8,
        "parentIdMap": {
            "0": -1,
            "1": 0,
            "2": 0,
            "3": 2,
            "4": 2,
            "5": 0,
            "6": 5,
            "7": 0
        },
        "tidyTrace": [
            {
                "children": [
                    {
                        "children": [
                            {
                                "children": [],
                                "depth": 1,
                                "id": 1,
                                "order": 1
                            },
                            {
                                "children": [
                                    {
                                        "children": [],
                                        "depth": 2,
                                        "id": 3,
                                        "order": 3
                                    },
                                    {
                                        "children": [],
                                        "depth": 2,
                                        "id": 4,
                                        "order": 4
                                    }
                                ],
                                "depth": 1,
                                "id": 2,
                                "order": 2
                            },
                            {
                                "children": [
                                    {
                                        "children": [],
                                        "depth": 2,
                                        "id": 6,
                                        "order": 6
                                    }
                                ],
                                "depth": 1,
                                "id": 5,
                                "order": 5
                            },
                            {
                                "children": [],
                                "depth": 1,
                                "id": 7,
                                "order": 7
                            }
                        ],
                        "depth": 0,
                        "id": 0,
                        "order": 0
                    }
                ],
                "depth": -1,
                "id": -1,
                "order": -1
            }
        ],
        "tidyTraceNodeCount": 8
    },
    "state_change": {
        "stateChanges": [
            {
                "address": "0x5e7ebea68ab05198f771d77a875480314f1d0aae",
                "erc": "ERC-20",
                "slots": [
                    {
                        "current": "0x0000000000000000000000000000000000000000000000e6f1954872fd098d99",
                        "key": "0x7c7b98153b0741a6af9b9fee9c368ba5f368a4f4a244763aa17fc2c5883a14fa",
                        "prev": "0x0000000000000000000000000000000000000000000000f1c92404cdc3298d99"
                    },
                    {
                        "current": "0x00000000000000000000000000000000000000000000027ff940a96d04ceca26",
                        "key": "0xe6aa92f47d74ca9ceea40042e0ac66476cabf942340434eff7800853191ffd97",
                        "prev": "0x00000000000000000000000000000000000000000000027521b1ed123eaeca26"
                    },
                    {
                        "current": "0x0000000000000000000000000000000000000000005285d6fffde0f032180000",
                        "key": "0x1b593177ffb91471045224101f0f955b62090c85ab4f575191d2cde09de376b2",
                        "prev": "0x0000000000000000000000000000000000000000005285e1d78c9d4af8380000"
                    }
                ],
                "storageVariables": [
                    {
                        "name": "_allowed",
                        "type": "mapping(address => mapping(address => uint256))",
                        "value": {
                            "pairs": [
                                {
                                    "key": "0xf0fcd278e4e7d457b6bfb3d955bb9023e9a1f438",
                                    "value": {
                                        "pairs": [
                                            {
                                                "key": "0x75ac71fe06b1ea8d403ccbc39e600c9acebc6cde",
                                                "value": {
                                                    "current": "99763958000000000000000000",
                                                    "prev": "99764158000000000000000000",
                                                    "typeTag": 1
                                                }
                                            }
                                        ],
                                        "typeTag": 4
                                    }
                                }
                            ],
                            "typeTag": 4
                        }
                    },
                    {
                        "name": "_balances",
                        "type": "mapping(address => uint256)",
                        "value": {
                            "pairs": [
                                {
                                    "key": "0x75ac71fe06b1ea8d403ccbc39e600c9acebc6cde",
                                    "value": {
                                        "current": "11805430004700054211110",
                                        "prev": "11605430004700054211110",
                                        "typeTag": 1
                                    }
                                },
                                {
                                    "key": "0xf0fcd278e4e7d457b6bfb3d955bb9023e9a1f438",
                                    "value": {
                                        "current": "4260159036546576125337",
                                        "prev": "4460159036546576125337",
                                        "typeTag": 1
                                    }
                                }
                            ],
                            "typeTag": 4
                        }
                    }
                ]
            },
            {
                "address": "0x75ac71fe06b1ea8d403ccbc39e600c9acebc6cde",
                "erc": "",
                "slots": [
                    {
                        "current": "0x00000000000000000000000000000000000000000003336e25972b9c9c080000",
                        "key": "0x0000000000000000000000000000000000000000000000000000000000000004",
                        "prev": "0x0000000000000000000000000000000000000000000333634e086f41d5e80000"
                    },
                    {
                        "current": "0x00000000000000000000000000000000000000000000017426f93e38f882ad91",
                        "key": "0x0000000000000000000000000000000000000000000000000000000000000011",
                        "prev": "0x0000000000000000000000000000000000000000000001695d4b3891d9c6ad91"
                    },
                    {
                        "current": "0x0000000000000000000000000000000000000000000031fbdcca2be2b1e80000",
                        "key": "0x5184d18f43678659b6cc87b114553a13c3c6cb812ee7f26e86020851214fa03b",
                        "prev": "0x0000000000000000000000000000000000000000000031f1053b6f87ebc80000"
                    },
                    {
                        "current": "0x0000000000000000000000000000000000000000000000000000000000000677",
                        "key": "0x5184d18f43678659b6cc87b114553a13c3c6cb812ee7f26e86020851214fa03c",
                        "prev": "0x0000000000000000000000000000000000000000000000000000000000000676"
                    },
                    {
                        "current": "0x000000000000000000000000000000000000000000004d308530ef9541bf8c1c",
                        "key": "0x5184d18f43678659b6cc87b114553a13c3c6cb812ee7f26e86020851214fa03e",
                        "prev": "0x000000000000000000000000000000000000000000004d25ada2333a7b9f8c1c"
                    },
                    {
                        "current": "0x000000000000000000000000000000000000000000000000000000000002c405",
                        "key": "0x0000000000000000000000000000000000000000000000000000000000000003",
                        "prev": "0x000000000000000000000000000000000000000000000000000000000002c404"
                    },
                    {
                        "current": "0x0000000000000000000000000000000000000000000000037ad0b0e824530000",
                        "key": "0xcec19275143218efaaf6faf6853932a3eb8a096f050564db3e8a10600c8760a5",
                        "prev": "0x0000000000000000000000000000000000000000000000036ceffa347cef0000"
                    }
                ],
                "storageVariables": []
            },
            {
                "address": "0xe81b7e9611936547d18540fbe4e53b104ecc44d0",
                "erc": "",
                "slots": [
                    {
                        "current": "0x0000000000000000000000000000000000000000000000000000000001ca1016",
                        "key": "0x0000000000000000000000000000000000000000000000000000000000000004",
                        "prev": "0x0000000000000000000000000000000000000000000000000000000001ca0f16"
                    }
                ],
                "storageVariables": []
            }
        ]
    }
}