{
    "balance_change": {
        "balanceChanges": [
            {
                "account": "0x9a75eabb817b9cbff16d84c18dbb2dadb18309c6",
                "assets": [
                    {
                        "address": "0xbc2faad1ec407571249b0e874a9abd840111389b",
                        "amount": "6.22242152",
                        "iconUrl": "",
                        "isERC1155": false,
                        "isERC721": false,
                        "sign": false,
                        "value": ""
                    }
                ]
            },
            {
                "account": "0x3d2e8732f1e34ab556f8703f0813f60fc94fad27",
                "assets": [
                    {
                        "address": "0xbc2faad1ec407571249b0e874a9abd840111389b",
                        "amount": "6.22242152",
                        "iconUrl": "",
                        "isERC1155": false,
                        "isERC721": false,
                        "sign": true,
                        "value": ""
                    }
                ]
            }
        ]
    },
    "profile": {
        "basic_info": {
            "baseFee": "",
            "blockNumber": 8722276,
            "callData": "0xa9059cbb0000000000000000000000003d2e8732f1e34ab556f8703f0813f60fc94fad27000000000000000000000000000000000000000000000000000000002516a968",
            "debugEnable": true,
            "errorInfo": "",
            "eventCount": 1,
            "feeRecipient": "0xea674fdde714fd979de3edf0f56aa9716b898ec8",
            "formatValue": "0",
            "gasLimit": 37459,
            "gasPrice": "1",
            "gasUsed": 37459,
            "intTxnCount": 0,
            "internalRevert": false,
            "internalRevertMessage": "",
            "isContractCreation": false,
            "isFlashloan": false,
            "maxFee": "",
            "nonce": 18833,
            "overwritedBlockNumber": -1,
            "priorityFee": "",
            "receiver": "0xbc2faad1ec407571249b0e874a9abd840111389b",
            "revertMessage": "",
            "sender": "0x9a75eabb817b9cbff16d84c18dbb2dadb18309c6",
            "simulationEnable": true,
            "sourceTxnHash": "0x4067fb710439aed089f65e1bc126d4e071098f0e21c0cbc8ae8f4da7f271e6bb",
            "status": true,
            "timestamp": "2019-10-11T19:32:26Z",
            "transactionFee": "0.000037459",
            "txnHash": "0x4067fb710439aed089f65e1bc126d4e071098f0e21c0cbc8ae8f4da7f271e6bb",
            "txnIndex": 66,
            "type": 0,
            "value": "0"
        },
        "fund_flow": [
            {
                "amount": "6.22242152",
                "from": "0x9a75eabb817b9cbff16d84c18dbb2dadb18309c6",
                "id": 1,
                "isERC1155": false,
                "isERC721": false,
                "isReverted": false,
                "order": 1,
                "to": "0x3d2e8732f1e34ab556f8703f0813f60fc94fad27",
                "token": "0xbc2faad1ec407571249b0e874a9abd840111389b"
            }
        ],
        "token_infos": [
            {
                "address": "0xbc2faad1ec407571249b0e874a9abd840111389b",
                "decimals": 8
            },
            {
                "address": "0xc02aaa39b223fe8d0a0e5c4f27ead9083c756cc2",
                "decimals": 18
            },
            {
                "address": "0xeeeeeeeeeeeeeeeeeeeeeeeeeeeeeeeeeeeeeeee",
                "decimals": 18
            }
        ]
    },
    "address_label": {
        "labels": [
            {
                "address": "0xeeeeeeeeeeeeeeeeeeeeeeeeeeeeeeeeeeeeeeee",
                "label": "Ether"
            },
            {
                "address": "0xbc2faad1ec407571249b0e874a9abd840111389b",
                "label": "BFX"
            },
            {
                "address": "0x0000000000000000000000000000000000000001",
                "label": "Precompiled"
            },
            {
                "address": "0x0000000000000000000000000000000000000002",
                "label": "Precompiled"
            },
            {
                "address": "0x0000000000000000000000000000000000000003",
                "label": "Precompiled"
            },
            {
                "address": "0x0000000000000000000000000000000000000004",
                "label": "Precompiled"
            }
        ]
    },
    "trace": {
        "accountLabels": null,
        "dataMap": {
            "-1": {
                "invocation": {
                    "address": "0x9a75eabb817b9cbff16d84c18dbb2dadb18309c6",
                    "callData": "",
                    "decodedMethod": null,
                    "errorInfo": "",
                    "fromAddress": "",
                    "gasUsed": 0,
                    "id": -1,
                    "methodDecoded": false,
                    "operation": "",
                    "output": "",
                    "revert": false,
                    "revertMessage": "",
                    "selector": "",
                    "status": false,
                    "value": ""
                },
                "nodeType": 0
            },
            "0": {
                "invocation": {
                    "address": "0xbc2faad1ec407571249b0e874a9abd840111389b",
                    "callData": "0x0000000000000000000000003d2e8732f1e34ab556f8703f0813f60fc94fad27000000000000000000000000000000000000000000000000000000002516a968",
                    "decodedMethod": {
                        "callParams": [
                            {
                                "name": "_to",
                                "type": "address",
                                "value": "0x3d2e8732f1e34ab556f8703f0813f60fc94fad27"
                            },
                            {
                                "decimalAvailable": true,
                                "name": "_value",
                                "type": "uint256",
                                "value": "622,242,152"
                            }
                        ],
                        "constructorArguments": "",
                        "name": "transfer",
                        "returnParams": [
                            {
                                "name": "success",
                                "type": "bool",
                                "value": true
                            }
                        ],
                        "signature": "transfer(address,uint256)"
                    },
                    "errorInfo": "",
                    "fromAddress": "0x9a75eabb817b9cbff16d84c18dbb2dadb18309c6",
                    "gasUsed": 37459,
                    "id": 0,
                    "methodDecoded": true,
                    "operation": "CALL",
                    "output": "0x0000000000000000000000000000000000000000000000000000000000000001",
                    "revert": false,
                    "revertMessage": "",
                    "selector": "0xa9059cbb",
                    "status": true,
                    "value": "0"
                },
                "nodeType": 0
            },
            "1": {
                "event": {
                    "contract": "0xbc2faad1ec407571249b0e874a9abd840111389b",
                    "decodedLog": {
                        "name": "Transfer",
                        "params": [
                            {
                                "name": "_from",
                                "type": "address",
                                "value": "0x9a75eabb817b9cbff16d84c18dbb2dadb18309c6"
                            },
                            {
                                "name": "_to",
                                "type": "address",
                                "value": "0x3d2e8732f1e34ab556f8703f0813f60fc94fad27"
                            },
                            {
                                "decimalAvailable": true,
                                "name": "_value",
                                "type": "uint256",
                                "value": "622,242,152"
                            }
                        ],
                        "signature": "Transfer(address,address,uint256)"
                    },
                    "id": 1,
                    "logData": "0x000000000000000000000000000000000000000000000000000000002516a968",
                    "logDecoded": true,
                    "operation": "EVENT",
                    "revert": false,
                    "status": true,
                    "topics": [
                        "0xddf252ad1be2c89b69c2b068fc378daa952ba7f163c4a11628f55a4df523b3ef",
                        "0x0000000000000000000000009a75eabb817b9cbff16d84c18dbb2dadb18309c6",
                        "0x0000000000000000000000003d2e8732f1e34ab556f8703f0813f60fc94fad27"
                    ]
                },
                "nodeType": 1
            }
        },
        "gasFlame": [
            {
                "children": [
                    {
                        "children": [
                            {
                                "children": [],
                                "depth": 0,
                                "name": "Initial Gas",
                                "value": 23064
                            },
                            {
                                "children": [],
                                "depth": 0,
                                "name": "Executed Gas",
                                "value": 14395
                            }
                        ],
                        "depth": -1,
                        "name": "Actual Gas Used",
                        "value": 37459
                    },
                    {
                        "children": [],
                        "depth": -1,
                        "name": "Refunded Gas",
                        "value": 0
                    }
                ],
                "depth": -2,
                "name": "Total Gas",
                "value": 37459
            }
        ],
        "isConfirmed": true,
        "mainTrace": [
            {
                "children": [
                    {
                        "children": [
                            {
                                "children": [],
                                "depth": 1,
                                "id": 1,
                                "order": 1
                            }
                        ],
                        "depth": 0,
                        "id": 0,
                        "order": 0
                    }
                ],
                "depth": -1,
                "id": -1,
                "order": -1
            }
        ],
        "mainTraceNodeCount": 2,
        "parentIdMap": {
            "0": -1,
            "1": 0
        },
        "tidyTrace": [
            {
                "children": [
                    {
                        "children": [
                            {
                                "children": [],
                                "depth": 1,
                                "id": 1,
                                "order": 1
                            }
                        ],
                        "depth": 0,
                        "id": 0,
                        "order": 0
                    }
                ],
                "depth": -1,
                "id": -1,
                "order": -1
            }
        ],
        "tidyTraceNodeCount": 2
    },
    "state_change": {
        "stateChanges": [
            {
                "address": "0xbc2faad1ec407571249b0e874a9abd840111389b",
                "erc": "ERC-20",
                "slots": [
                    {
                        "current": "0x000000000000000000000000000000000000000000000000000179372a13b5c5",
                        "key": "0xf31b6963c87947f27e83f4c2a929424b71d6c58e912b93d504a6d09dbb45a64d",
                        "prev": "0x000000000000000000000000000000000000000000000000000179374f2a5f2d"
                    },
                    {
                        "current": "0x00000000000000000000000000000000000000000000000000000001e5060e1c",
                        "key": "0x2fb54e0e89b9a98df5f6061b76e6203edc626d57e73ecb5c15e12954e8154d24",
                        "prev": "0x00000000000000000000000000000000000000000000000000000001bfef64b4"
                    }
                ],
                "storageVariables": [
                    {
                        "name": "balanceOf",
                        "type": "mapping(address => uint256)",
                        "value": {
                            "pairs": [
                                {
                                    "key": "0x3d2e8732f1e34ab556f8703f0813f60fc94fad27",
                                    "value": {
                                        "current": "8137346588",
                                        "prev": "7515104436",
                                        "typeTag": 1
                                    }
                                },
                                {
                                    "key": "0x9a75eabb817b9cbff16d84c18dbb2dadb18309c6",
                                    "value": {
                                        "current": "414752812807621",
                                        "prev": "414753435049773",
                                        "typeTag": 1
                                    }
                                }
                            ],
                            "typeTag": 4
                        }
                    }
                ]
            }
        ]
    }
}