{
    "balance_change": {
        "balanceChanges": [
            {
                "account": "0x71bfa748159e5e0cfa3e564625977d4a2ac791d7",
                "assets": [
                    {
                        "address": "0x4549c04465e1a89c16d5037c962077857e3923c4",
                        "amount": "2,000",
                        "iconUrl": "",
                        "isERC1155": false,
                        "isERC721": false,
                        "sign": false,
                        "value": ""
                    }
                ]
            },
            {
                "account": "0x02857e8f5938a6a9f2ce394a1cd8198140e0a3f4",
                "assets": [
                    {
                        "address": "0x4549c04465e1a89c16d5037c962077857e3923c4",
                        "amount": "2,000",
                        "iconUrl": "",
                        "isERC1155": false,
                        "isERC721": false,
                        "sign": true,
                        "value": ""
                    }
                ]
            }
        ]
    },
    "profile": {
        "basic_info": {
            "baseFee": "",
            "blockNumber": 5626349,
            "callData": "0xa9059cbb00000000000000000000000002857e8f5938a6a9f2ce394a1cd8198140e0a3f400000000000000000000000000000000000000000000006c6b935b8bbd400000",
            "debugEnable": true,
            "errorInfo": "",
            "eventCount": 1,
            "feeRecipient": "0xea674fdde714fd979de3edf0f56aa9716b898ec8",
            "formatValue": "0",
            "gasLimit": 60000,
            "gasPrice": "10.225",
            "gasUsed": 38388,
            "intTxnCount": 0,
            "internalRevert": false,
            "internalRevertMessage": "",
            "isContractCreation": false,
            "isFlashloan": false,
            "maxFee": "",
            "nonce": 19,
            "overwritedBlockNumber": -1,
            "priorityFee": "",
            "receiver": "0x4549c04465e1a89c16d5037c962077857e3923c4",
            "revertMessage": "",
            "sender": "0x71bfa748159e5e0cfa3e564625977d4a2ac791d7",
            "simulationEnable": true,
            "sourceTxnHash": "0x407d074aaba94b675fb5a4b9a9bd96f0c8b271c7c40c2a28c478869771f632ac",
            "status": true,
            "timestamp": "2018-05-17T00:20:01Z",
            "transactionFee": "0.0003925173",
            "txnHash": "0x407d074aaba94b675fb5a4b9a9bd96f0c8b271c7c40c2a28c478869771f632ac",
            "txnIndex": 19,
            "type": 0,
            "value": "0"
        },
        "fund_flow": [
            {
                "amount": "2,000",
                "from": "0x71bfa748159e5e0cfa3e564625977d4a2ac791d7",
                "id": 1,
                "isERC1155": false,
                "isERC721": false,
                "isReverted": false,
                "order": 1,
                "to": "0x02857e8f5938a6a9f2ce394a1cd8198140e0a3f4",
                "token": "0x4549c04465e1a89c16d5037c962077857e3923c4"
            }
        ],
        "token_infos": [
            {
                "address": "0x4549c04465e1a89c16d5037c962077857e3923c4",
                "decimals": 18
            },
            {
                "address": "0xc02aaa39b223fe8d0a0e5c4f27ead9083c756cc2",
                "decimals": 18
            },
            {
                "address": "0xeeeeeeeeeeeeeeeeeeeeeeeeeeeeeeeeeeeeeeee",
                "decimals": 18
            }
        ]
    },
    "address_label": {
        "labels": [
            {
                "address": "0xeeeeeeeeeeeeeeeeeeeeeeeeeeeeeeeeeeeeeeee",
                "label": "Ether"
            },
            {
                "address": "0x4549c04465e1a89c16d5037c962077857e3923c4",
                "label": "Evangel (EVA)"
            },
            {
                "address": "0x0000000000000000000000000000000000000001",
                "label": "Precompiled"
            },
            {
                "address": "0x0000000000000000000000000000000000000002",
                "label": "Precompiled"
            },
            {
                "address": "0x0000000000000000000000000000000000000003",
                "label": "Precompiled"
            },
            {
                "address": "0x0000000000000000000000000000000000000004",
                "label": "Precompiled"
            }
        ]
    },
    "trace": {
        "accountLabels": null,
        "dataMap": {
            "-1": {
                "invocation": {
                    "address": "0x71bfa748159e5e0cfa3e564625977d4a2ac791d7",
                    "callData": "",
                    "decodedMethod": null,
                    "errorInfo": "",
                    "fromAddress": "",
                    "gasUsed": 0,
                    "id": -1,
                    "methodDecoded": false,
                    "operation": "",
                    "output": "",
                    "revert": false,
                    "revertMessage": "",
                    "selector": "",
                    "status": false,
                    "value": ""
                },
                "nodeType": 0
            },
            "0": {
                "invocation": {
                    "address": "0x4549c04465e1a89c16d5037c962077857e3923c4",
                    "callData": "0x00000000000000000000000002857e8f5938a6a9f2ce394a1cd8198140e0a3f400000000000000000000000000000000000000000000006c6b935b8bbd400000",
                    "decodedMethod": {
                        "callParams": [
                            {
                                "name": "_to",
                                "type": "address",
                                "value": "0x02857e8f5938a6a9f2ce394a1cd8198140e0a3f4"
                            },
                            {
                                "decimalAvailable": true,
                                "name": "_value",
                                "type": "uint256",
                                "value": "2,000,000,000,000,000,000,000"
                            }
                        ],
                        "constructorArguments": "",
                        "name": "transfer",
                        "returnParams": [],
                        "signature": "transfer(address,uint256)"
                    },
                    "errorInfo": "",
                    "fromAddress": "0x71bfa748159e5e0cfa3e564625977d4a2ac791d7",
                    "gasUsed": 38388,
                    "id": 0,
                    "methodDecoded": true,
                    "operation": "CALL",
                    "output": "",
                    "revert": false,
                    "revertMessage": "",
                    "selector": "0xa9059cbb",
                    "status": true,
                    "value": "0"
                },
                "nodeType": 0
            },
            "1": {
                "event": {
                    "contract": "0x4549c04465e1a89c16d5037c962077857e3923c4",
                    "decodedLog": {
                        "name": "Transfer",
                        "params": [
                            {
                                "name": "from",
                                "type": "address",
                                "value": "0x71bfa748159e5e0cfa3e564625977d4a2ac791d7"
                            },
                            {
                                "name": "to",
                                "type": "address",
                                "value": "0x02857e8f5938a6a9f2ce394a1cd8198140e0a3f4"
                            },
                            {
                                "decimalAvailable": true,
                                "name": "value",
                                "type": "uint256",
                                "value": "2,000,000,000,000,000,000,000"
                            }
                        ],
                        "signature": "Transfer(address,address,uint256)"
                    },
                    "id": 1,
                    "logData": "0x00000000000000000000000000000000000000000000006c6b935b8bbd400000",
                    "logDecoded": true,
                    "operation": "EVENT",
                    "revert": false,
                    "status": true,
                    "topics": [
                        "0xddf252ad1be2c89b69c2b068fc378daa952ba7f163c4a11628f55a4df523b3ef",
                        "0x00000000000000000000000071bfa748159e5e0cfa3e564625977d4a2ac791d7",
                        "0x00000000000000000000000002857e8f5938a6a9f2ce394a1cd8198140e0a3f4"
                    ]
                },
                "nodeType": 1
            }
        },
        "gasFlame": [
            {
                "children": [
                    {
                        "children": [
                            {
                                "children": [],
                                "depth": 0,
                                "name": "Initial Gas",
                                "value": 23256
                            },
                            {
                                "children": [],
                                "depth": 0,
                                "name": "Executed Gas",
                                "value": 30132
                            }
                        ],
                        "depth": -1,
                        "name": "Actual Gas Used",
                        "value": 38388
                    },
                    {
                        "children": [],
                        "depth": -1,
                        "name": "Refunded Gas",
                        "value": 15000
                    }
                ],
                "depth": -2,
                "name": "Total Gas",
                "value": 53388
            }
        ],
        "isConfirmed": true,
        "mainTrace": [
            {
                "children": [
                    {
                        "children": [
                            {
                                "children": [],
                                "depth": 1,
                                "id": 1,
                                "order": 1
                            }
                        ],
                        "depth": 0,
                        "id": 0,
                        "order": 0
                    }
                ],
                "depth": -1,
                "id": -1,
                "order": -1
            }
        ],
        "mainTraceNodeCount": 2,
        "parentIdMap": {
            "0": -1,
            "1": 0
        },
        "tidyTrace": [
            {
                "children": [
                    {
                        "children": [
                            {
                                "children": [],
                                "depth": 1,
                                "id": 1,
                                "order": 1
                            }
                        ],
                        "depth": 0,
                        "id": 0,
                        "order": 0
                    }
                ],
                "depth": -1,
                "id": -1,
                "order": -1
            }
        ],
        "tidyTraceNodeCount": 2
    },
    "state_change": {
        "stateChanges": [
            {
                "address": "0x4549c04465e1a89c16d5037c962077857e3923c4",
                "erc": "",
                "slots": [
                    {
                        "current": "0x0000000000000000000000000000000000000000000000000000000000000000",
                        "key": "0x9c41323bc52f53ed63c4633c82a82282c69dd57a71cac4cd0c2850aba5b166d9",
                        "prev": "0x00000000000000000000000000000000000000000000006c6b935b8bbd400000"
                    },
                    {
                        "current": "0x00000000000000000000000000000000000000000000006c6b935b8bbd400000",
                        "key": "0xd6292231c00972b7f7afc34fa907683cc84fffbec40f44644ad06081f6542da5",
                        "prev": "0x0000000000000000000000000000000000000000000000000000000000000000"
                    }
                ],
                "storageVariables": []
            }
        ]
    }
}