{
    "balance_change": {
        "balanceChanges": [
            {
                "account": "0x90f3146fa0e9e2056bbe383ecd2ff5864eaa78c5",
                "assets": [
                    {
                        "address": "0x8355dbe8b0e275abad27eb843f3eaf3fc855e525",
                        "amount": "69,000",
                        "iconUrl": "",
                        "isERC1155": false,
                        "isERC721": false,
                        "sign": false,
                        "value": "228.373327"
                    }
                ]
            },
            {
                "account": "0xdce44180d5bed4420e30d630b5d0532d936d0c05",
                "assets": [
                    {
                        "address": "0x8355dbe8b0e275abad27eb843f3eaf3fc855e525",
                        "amount": "69,000",
                        "iconUrl": "",
                        "isERC1155": false,
                        "isERC721": false,
                        "sign": true,
                        "value": "228.373327"
                    }
                ]
            }
        ]
    },
    "profile": {
        "basic_info": {
            "baseFee": "19.929368399",
            "blockNumber": 18639550,
            "callData": "0xa9059cbb000000000000000000000000dce44180d5bed4420e30d630b5d0532d936d0c05000000000000000000000000000000000000000000000e9c7f5bd65501200000",
            "debugEnable": true,
            "errorInfo": "",
            "eventCount": 1,
            "feeRecipient": "0x9f4cf329f4cf376b7aded854d6054859dd102a2a",
            "formatValue": "0",
            "gasLimit": 77347,
            "gasPrice": "20.029368399",
            "gasUsed": 51565,
            "intTxnCount": 0,
            "internalRevert": false,
            "internalRevertMessage": "",
            "isContractCreation": false,
            "isFlashloan": false,
            "maxFee": "23.203098997",
            "nonce": 1605,
            "overwritedBlockNumber": -1,
            "priorityFee": "0.1",
            "receiver": "0x8355dbe8b0e275abad27eb843f3eaf3fc855e525",
            "revertMessage": "",
            "sender": "0x90f3146fa0e9e2056bbe383ecd2ff5864eaa78c5",
            "simulationEnable": true,
            "sourceTxnHash": "0x414f613f54357535d104d44b572820bda5218c8012648c250815ef222b6f2a33",
            "status": true,
            "timestamp": "2023-11-24T05:41:47Z",
            "transactionFee": "0.001032814381494435",
            "txnHash": "0x414f613f54357535d104d44b572820bda5218c8012648c250815ef222b6f2a33",
            "txnIndex": 89,
            "type": 2,
            "value": "0"
        },
        "fund_flow": [
            {
                "amount": "69,000",
                "from": "0x90f3146fa0e9e2056bbe383ecd2ff5864eaa78c5",
                "id": 1,
                "isERC1155": false,
                "isERC721": false,
                "isReverted": false,
                "order": 1,
                "to": "0xdce44180d5bed4420e30d630b5d0532d936d0c05",
                "token": "0x8355dbe8b0e275abad27eb843f3eaf3fc855e525"
            }
        ],
        "token_infos": [
            {
                "address": "0x8355dbe8b0e275abad27eb843f3eaf3fc855e525",
                "decimals": 18
            },
            {
                "address": "0xc02aaa39b223fe8d0a0e5c4f27ead9083c756cc2",
                "decimals": 18
            },
            {
                "address": "0xeeeeeeeeeeeeeeeeeeeeeeeeeeeeeeeeeeeeeeee",
                "decimals": 18
            }
        ]
    },
    "address_label": {
        "labels": [
            {
                "address": "0x0000000000000000000000000000000000000002",
                "label": "Precompiled"
            },
            {
                "address": "0x0000000000000000000000000000000000000003",
                "label": "Precompiled"
            },
            {
                "address": "0x0000000000000000000000000000000000000004",
                "label": "Precompiled"
            },
            {
                "address": "0xeeeeeeeeeeeeeeeeeeeeeeeeeeeeeeeeeeeeeeee",
                "label": "Ether"
            },
            {
                "address": "0x8355dbe8b0e275abad27eb843f3eaf3fc855e525",
                "label": "WOOL (WOOL)"
            },
            {
                "address": "0x0000000000000000000000000000000000000001",
                "label": "Precompiled"
            }
        ]
    },
    "trace": {
        "accountLabels": null,
        "dataMap": {
            "-1": {
                "invocation": {
                    "address": "0x90f3146fa0e9e2056bbe383ecd2ff5864eaa78c5",
                    "callData": "",
                    "decodedMethod": null,
                    "errorInfo": "",
                    "fromAddress": "",
                    "gasUsed": 0,
                    "id": -1,
                    "methodDecoded": false,
                    "operation": "",
                    "output": "",
                    "revert": false,
                    "revertMessage": "",
                    "selector": "",
                    "status": false,
                    "value": ""
                },
                "nodeType": 0
            },
            "0": {
                "invocation": {
                    "address": "0x8355dbe8b0e275abad27eb843f3eaf3fc855e525",
                    "callData": "0x000000000000000000000000dce44180d5bed4420e30d630b5d0532d936d0c05000000000000000000000000000000000000000000000e9c7f5bd65501200000",
                    "decodedMethod": {
                        "callParams": [
                            {
                                "name": "recipient",
                                "type": "address",
                                "value": "0xdce44180d5bed4420e30d630b5d0532d936d0c05"
                            },
                            {
                                "decimalAvailable": true,
                                "name": "amount",
                                "type": "uint256",
                                "value": "69,000,000,000,000,000,000,000"
                            }
                        ],
                        "constructorArguments": "",
                        "name": "transfer",
                        "returnParams": [
                            {
                                "name": "",
                                "type": "bool",
                                "value": true
                            }
                        ],
                        "signature": "transfer(address,uint256)"
                    },
                    "errorInfo": "",
                    "fromAddress": "0x90f3146fa0e9e2056bbe383ecd2ff5864eaa78c5",
                    "gasUsed": 51565,
                    "id": 0,
                    "methodDecoded": true,
                    "operation": "CALL",
                    "output": "0x0000000000000000000000000000000000000000000000000000000000000001",
                    "revert": false,
                    "revertMessage": "",
                    "selector": "0xa9059cbb",
                    "status": true,
                    "value": "0"
                },
                "nodeType": 0
            },
            "1": {
                "event": {
                    "contract": "0x8355dbe8b0e275abad27eb843f3eaf3fc855e525",
                    "decodedLog": {
                        "name": "Transfer",
                        "params": [
                            {
                                "name": "from",
                                "type": "address",
                                "value": "0x90f3146fa0e9e2056bbe383ecd2ff5864eaa78c5"
                            },
                            {
                                "name": "to",
                                "type": "address",
                                "value": "0xdce44180d5bed4420e30d630b5d0532d936d0c05"
                            },
                            {
                                "decimalAvailable": true,
                                "name": "value",
                                "type": "uint256",
                                "value": "69,000,000,000,000,000,000,000"
                            }
                        ],
                        "signature": "Transfer(address,address,uint256)"
                    },
                    "id": 1,
                    "logData": "0x000000000000000000000000000000000000000000000e9c7f5bd65501200000",
                    "logDecoded": true,
                    "operation": "EVENT",
                    "revert": false,
                    "status": true,
                    "topics": [
                        "0xddf252ad1be2c89b69c2b068fc378daa952ba7f163c4a11628f55a4df523b3ef",
                        "0x00000000000000000000000090f3146fa0e9e2056bbe383ecd2ff5864eaa78c5",
                        "0x000000000000000000000000dce44180d5bed4420e30d630b5d0532d936d0c05"
                    ]
                },
                "nodeType": 1
            }
        },
        "gasFlame": [
            {
                "children": [
                    {
                        "children": [
                            {
                                "children": [],
                                "depth": 0,
                                "name": "Initial Gas",
                                "value": 21656
                            },
                            {
                                "children": [],
                                "depth": 0,
                                "name": "Executed Gas",
                                "value": 29909
                            }
                        ],
                        "depth": -1,
                        "name": "Actual Gas Used",
                        "value": 51565
                    },
                    {
                        "children": [],
                        "depth": -1,
                        "name": "Refunded Gas",
                        "value": 0
                    }
                ],
                "depth": -2,
                "name": "Total Gas",
                "value": 51565
            }
        ],
        "isConfirmed": true,
        "mainTrace": [
            {
                "children": [
                    {
                        "children": [
                            {
                                "children": [],
                                "depth": 1,
                                "id": 1,
                                "order": 1
                            }
                        ],
                        "depth": 0,
                        "id": 0,
                        "order": 0
                    }
                ],
                "depth": -1,
                "id": -1,
                "order": -1
            }
        ],
        "mainTraceNodeCount": 2,
        "parentIdMap": {
            "0": -1,
            "1": 0
        },
        "tidyTrace": [
            {
                "children": [
                    {
                        "children": [
                            {
                                "children": [],
                                "depth": 1,
                                "id": 1,
                                "order": 1
                            }
                        ],
                        "depth": 0,
                        "id": 0,
                        "order": 0
                    }
                ],
                "depth": -1,
                "id": -1,
                "order": -1
            }
        ],
        "tidyTraceNodeCount": 2
    },
    "state_change": {
        "stateChanges": [
            {
                "address": "0x8355dbe8b0e275abad27eb843f3eaf3fc855e525",
                "erc": "ERC-20",
                "slots": [
                    {
                        "current": "0x000000000000000000000000000000000000000000027e70b161564343601304",
                        "key": "0xdb3ab02cacadb8408335b6e273306958a57247b915977cd673bb37a15a082929",
                        "prev": "0x000000000000000000000000000000000000000000028d0d30bd2c9844801304"
                    },
                    {
                        "current": "0x000000000000000000000000000000000000000000000e9c7f5bd65501200000",
                        "key": "0x780fac6e16246c07400124a4d1da7ac2ccbbe47e9c52a0cb1e76914ee4c7728c",
                        "prev": "0x0000000000000000000000000000000000000000000000000000000000000000"
                    }
                ],
                "storageVariables": [
                    {
                        "name": "_balances",
                        "type": "mapping(address => uint256)",
                        "value": {
                            "pairs": [
                                {
                                    "key": "0x90f3146fa0e9e2056bbe383ecd2ff5864eaa78c5",
                                    "value": {
                                        "current": "3014948632999153463464708",
                                        "prev": "3083948632999153463464708",
                                        "typeTag": 1
                                    }
                                },
                                {
                                    "key": "0xdce44180d5bed4420e30d630b5d0532d936d0c05",
                                    "value": {
                                        "current": "69000000000000000000000",
                                        "prev": "0",
                                        "typeTag": 1
                                    }
                                }
                            ],
                            "typeTag": 4
                        }
                    }
                ]
            }
        ]
    }
}