{
    "balance_change": {
        "balanceChanges": [
            {
                "account": "0x2eaf55da2b46c63b1b429055305bb1577f2b51a1",
                "assets": [
                    {
                        "address": "0xc324a2f6b05880503444451b8b27e6f9e63287cb",
                        "amount": "0.2698",
                        "iconUrl": "",
                        "isERC1155": false,
                        "isERC721": false,
                        "sign": false,
                        "value": ""
                    }
                ]
            },
            {
                "account": "0x8ba54a9388b5743c1f729c37282f59ae7d2a1850",
                "assets": [
                    {
                        "address": "0xc324a2f6b05880503444451b8b27e6f9e63287cb",
                        "amount": "0.2698",
                        "iconUrl": "",
                        "isERC1155": false,
                        "isERC721": false,
                        "sign": true,
                        "value": ""
                    }
                ]
            }
        ]
    },
    "profile": {
        "basic_info": {
            "baseFee": "",
            "blockNumber": 6954464,
            "callData": "0xa9059cbb0000000000000000000000008ba54a9388b5743c1f729c37282f59ae7d2a185000000000000000000000000000000000000000000000000003be85aba8668000",
            "debugEnable": true,
            "errorInfo": "",
            "eventCount": 1,
            "feeRecipient": "0x6a7a43be33ba930fe58f34e07d0ad6ba7adb9b1f",
            "formatValue": "0",
            "gasLimit": 60000,
            "gasPrice": "10",
            "gasUsed": 52476,
            "intTxnCount": 0,
            "internalRevert": false,
            "internalRevertMessage": "",
            "isContractCreation": false,
            "isFlashloan": false,
            "maxFee": "",
            "nonce": 1072,
            "overwritedBlockNumber": -1,
            "priorityFee": "",
            "receiver": "0xc324a2f6b05880503444451b8b27e6f9e63287cb",
            "revertMessage": "",
            "sender": "0x2eaf55da2b46c63b1b429055305bb1577f2b51a1",
            "simulationEnable": true,
            "sourceTxnHash": "0x4175b22574eb47da87e5d33b2361851550c9f12bfb5d1da2b8d7d92f2d452cb1",
            "status": true,
            "timestamp": "2018-12-26T05:35:49Z",
            "transactionFee": "0.00052476",
            "txnHash": "0x4175b22574eb47da87e5d33b2361851550c9f12bfb5d1da2b8d7d92f2d452cb1",
            "txnIndex": 31,
            "type": 0,
            "value": "0"
        },
        "fund_flow": [
            {
                "amount": "0.2698",
                "from": "0x2eaf55da2b46c63b1b429055305bb1577f2b51a1",
                "id": 1,
                "isERC1155": false,
                "isERC721": false,
                "isReverted": false,
                "order": 1,
                "to": "0x8ba54a9388b5743c1f729c37282f59ae7d2a1850",
                "token": "0xc324a2f6b05880503444451b8b27e6f9e63287cb"
            }
        ],
        "token_infos": [
            {
                "address": "0xc02aaa39b223fe8d0a0e5c4f27ead9083c756cc2",
                "decimals": 18
            },
            {
                "address": "0xc324a2f6b05880503444451b8b27e6f9e63287cb",
                "decimals": 18
            },
            {
                "address": "0xeeeeeeeeeeeeeeeeeeeeeeeeeeeeeeeeeeeeeeee",
                "decimals": 18
            }
        ]
    },
    "address_label": {
        "labels": [
            {
                "address": "0x0000000000000000000000000000000000000001",
                "label": "Precompiled"
            },
            {
                "address": "0x0000000000000000000000000000000000000002",
                "label": "Precompiled"
            },
            {
                "address": "0x0000000000000000000000000000000000000003",
                "label": "Precompiled"
            },
            {
                "address": "0x0000000000000000000000000000000000000004",
                "label": "Precompiled"
            },
            {
                "address": "0xeeeeeeeeeeeeeeeeeeeeeeeeeeeeeeeeeeeeeeee",
                "label": "Ether"
            },
            {
                "address": "0xc324a2f6b05880503444451b8b27e6f9e63287cb",
                "label": "ExchangeUnion"
            }
        ]
    },
    "trace": {
        "accountLabels": null,
        "dataMap": {
            "-1": {
                "invocation": {
                    "address": "0x2eaf55da2b46c63b1b429055305bb1577f2b51a1",
                    "callData": "",
                    "decodedMethod": null,
                    "errorInfo": "",
                    "fromAddress": "",
                    "gasUsed": 0,
                    "id": -1,
                    "methodDecoded": false,
                    "operation": "",
                    "output": "",
                    "revert": false,
                    "revertMessage": "",
                    "selector": "",
                    "status": false,
                    "value": ""
                },
                "nodeType": 0
            },
            "0": {
                "invocation": {
                    "address": "0xc324a2f6b05880503444451b8b27e6f9e63287cb",
                    "callData": "0x0000000000000000000000008ba54a9388b5743c1f729c37282f59ae7d2a185000000000000000000000000000000000000000000000000003be85aba8668000",
                    "decodedMethod": {
                        "callParams": [
                            {
                                "name": "_to",
                                "type": "address",
                                "value": "0x8ba54a9388b5743c1f729c37282f59ae7d2a1850"
                            },
                            {
                                "decimalAvailable": true,
                                "name": "_value",
                                "type": "uint256",
                                "value": "269,800,000,000,000,000"
                            }
                        ],
                        "constructorArguments": "",
                        "name": "transfer",
                        "returnParams": [
                            {
                                "name": "success",
                                "type": "bool",
                                "value": true
                            }
                        ],
                        "signature": "transfer(address,uint256)"
                    },
                    "errorInfo": "",
                    "fromAddress": "0x2eaf55da2b46c63b1b429055305bb1577f2b51a1",
                    "gasUsed": 52476,
                    "id": 0,
                    "methodDecoded": true,
                    "operation": "CALL",
                    "output": "0x0000000000000000000000000000000000000000000000000000000000000001",
                    "revert": false,
                    "revertMessage": "",
                    "selector": "0xa9059cbb",
                    "status": true,
                    "value": "0"
                },
                "nodeType": 0
            },
            "1": {
                "event": {
                    "contract": "0xc324a2f6b05880503444451b8b27e6f9e63287cb",
                    "decodedLog": {
                        "name": "Transfer",
                        "params": [
                            {
                                "name": "from",
                                "type": "address",
                                "value": "0x2eaf55da2b46c63b1b429055305bb1577f2b51a1"
                            },
                            {
                                "name": "to",
                                "type": "address",
                                "value": "0x8ba54a9388b5743c1f729c37282f59ae7d2a1850"
                            },
                            {
                                "decimalAvailable": true,
                                "name": "value",
                                "type": "uint256",
                                "value": "269,800,000,000,000,000"
                            }
                        ],
                        "signature": "Transfer(address,address,uint256)"
                    },
                    "id": 1,
                    "logData": "0x00000000000000000000000000000000000000000000000003be85aba8668000",
                    "logDecoded": true,
                    "operation": "EVENT",
                    "revert": false,
                    "status": true,
                    "topics": [
                        "0xddf252ad1be2c89b69c2b068fc378daa952ba7f163c4a11628f55a4df523b3ef",
                        "0x0000000000000000000000002eaf55da2b46c63b1b429055305bb1577f2b51a1",
                        "0x0000000000000000000000008ba54a9388b5743c1f729c37282f59ae7d2a1850"
                    ]
                },
                "nodeType": 1
            }
        },
        "gasFlame": [
            {
                "children": [
                    {
                        "children": [
                            {
                                "children": [],
                                "depth": 0,
                                "name": "Initial Gas",
                                "value": 23256
                            },
                            {
                                "children": [],
                                "depth": 0,
                                "name": "Executed Gas",
                                "value": 29220
                            }
                        ],
                        "depth": -1,
                        "name": "Actual Gas Used",
                        "value": 52476
                    },
                    {
                        "children": [],
                        "depth": -1,
                        "name": "Refunded Gas",
                        "value": 0
                    }
                ],
                "depth": -2,
                "name": "Total Gas",
                "value": 52476
            }
        ],
        "isConfirmed": true,
        "mainTrace": [
            {
                "children": [
                    {
                        "children": [
                            {
                                "children": [],
                                "depth": 1,
                                "id": 1,
                                "order": 1
                            }
                        ],
                        "depth": 0,
                        "id": 0,
                        "order": 0
                    }
                ],
                "depth": -1,
                "id": -1,
                "order": -1
            }
        ],
        "mainTraceNodeCount": 2,
        "parentIdMap": {
            "0": -1,
            "1": 0
        },
        "tidyTrace": [
            {
                "children": [
                    {
                        "children": [
                            {
                                "children": [],
                                "depth": 1,
                                "id": 1,
                                "order": 1
                            }
                        ],
                        "depth": 0,
                        "id": 0,
                        "order": 0
                    }
                ],
                "depth": -1,
                "id": -1,
                "order": -1
            }
        ],
        "tidyTraceNodeCount": 2
    },
    "state_change": {
        "stateChanges": [
            {
                "address": "0xc324a2f6b05880503444451b8b27e6f9e63287cb",
                "erc": "ERC-20",
                "slots": [
                    {
                        "current": "0x00000000000000000000000000000000000000000000002524ef7033d6ad8000",
                        "key": "0x2f7c1f8236ece5650b3ca6b2320a3137fd1c5ba8913e1c051ef9b3fb0e09ff2a",
                        "prev": "0x00000000000000000000000000000000000000000000002528adf5df7f140000"
                    },
                    {
                        "current": "0x00000000000000000000000000000000000000000000000003be85aba8668000",
                        "key": "0x9d0a2fead1c02b01b02fc37f29819d999a8b1fc6b247c2431c5d034c7cf2c99d",
                        "prev": "0x0000000000000000000000000000000000000000000000000000000000000000"
                    }
                ],
                "storageVariables": []
            }
        ]
    }
}