{
    "balance_change": {
        "balanceChanges": [
            {
                "account": "0xec9f6c9634165f91e22e58b90e3ede393d959e47",
                "assets": [
                    {
                        "address": "0xe0b7927c4af23765cb51314a0e0521a9645f0e2a",
                        "amount": "52.3084835",
                        "iconUrl": "https://assets.blocksec.com/icon/f5032e9ee4b301a5ba025b77aecc35e4e2fb12b0b9cc736179d8b8f75ab1ee5b.png",
                        "isERC1155": false,
                        "isERC721": false,
                        "sign": false,
                        "value": ""
                    }
                ]
            },
            {
                "account": "0xc568f4948a04dc062009e1887bbcb4cce4d6aae2",
                "assets": [
                    {
                        "address": "0xe0b7927c4af23765cb51314a0e0521a9645f0e2a",
                        "amount": "52.3084835",
                        "iconUrl": "https://assets.blocksec.com/icon/f5032e9ee4b301a5ba025b77aecc35e4e2fb12b0b9cc736179d8b8f75ab1ee5b.png",
                        "isERC1155": false,
                        "isERC721": false,
                        "sign": true,
                        "value": ""
                    }
                ]
            }
        ]
    },
    "profile": {
        "basic_info": {
            "baseFee": "",
            "blockNumber": 2260192,
            "callData": "0xf3fef3a3000000000000000000000000c568f4948a04dc062009e1887bbcb4cce4d6aae20000000000000000000000000000000000000000000000000000000c2dd41dac",
            "debugEnable": true,
            "errorInfo": "",
            "eventCount": 2,
            "feeRecipient": "0x61c808d82a3ac53231750dadc13c777b59310bd9",
            "formatValue": "0",
            "gasLimit": 250000,
            "gasPrice": "20",
            "gasUsed": 39123,
            "intTxnCount": 1,
            "internalRevert": false,
            "internalRevertMessage": "",
            "isContractCreation": false,
            "isFlashloan": false,
            "maxFee": "",
            "nonce": 67289,
            "overwritedBlockNumber": -1,
            "priorityFee": "",
            "receiver": "0xec9f6c9634165f91e22e58b90e3ede393d959e47",
            "revertMessage": "",
            "sender": "0xed059bc543141c8c93031d545079b3da0233b27f",
            "simulationEnable": true,
            "sourceTxnHash": "0x41636287078e30a43b7563df67e7edeff772ad79d421084052e4ffe03c112286",
            "status": true,
            "timestamp": "2016-09-14T21:51:59Z",
            "transactionFee": "0.00078246",
            "txnHash": "0x41636287078e30a43b7563df67e7edeff772ad79d421084052e4ffe03c112286",
            "txnIndex": 0,
            "type": 0,
            "value": "0"
        },
        "fund_flow": [
            {
                "amount": "52.3084835",
                "from": "0xec9f6c9634165f91e22e58b90e3ede393d959e47",
                "id": 1,
                "isERC1155": false,
                "isERC721": false,
                "isReverted": false,
                "order": 1,
                "to": "0xc568f4948a04dc062009e1887bbcb4cce4d6aae2",
                "token": "0xe0b7927c4af23765cb51314a0e0521a9645f0e2a"
            }
        ],
        "token_infos": [
            {
                "address": "0xe0b7927c4af23765cb51314a0e0521a9645f0e2a",
                "decimals": 9
            },
            {
                "address": "0xeeeeeeeeeeeeeeeeeeeeeeeeeeeeeeeeeeeeeeee",
                "decimals": 18
            },
            {
                "address": "0xc02aaa39b223fe8d0a0e5c4f27ead9083c756cc2",
                "decimals": 18
            }
        ]
    },
    "address_label": {
        "labels": [
            {
                "address": "0xeeeeeeeeeeeeeeeeeeeeeeeeeeeeeeeeeeeeeeee",
                "label": "Ether"
            },
            {
                "address": "0xe0b7927c4af23765cb51314a0e0521a9645f0e2a",
                "label": "DigixDAO: DGD Token"
            },
            {
                "address": "0x0000000000000000000000000000000000000001",
                "label": "Precompiled"
            },
            {
                "address": "0x0000000000000000000000000000000000000002",
                "label": "Precompiled"
            },
            {
                "address": "0x0000000000000000000000000000000000000003",
                "label": "Precompiled"
            },
            {
                "address": "0x0000000000000000000000000000000000000004",
                "label": "Precompiled"
            }
        ]
    },
    "trace": {
        "accountLabels": null,
        "dataMap": {
            "-1": {
                "invocation": {
                    "address": "0xed059bc543141c8c93031d545079b3da0233b27f",
                    "callData": "",
                    "decodedMethod": null,
                    "errorInfo": "",
                    "fromAddress": "",
                    "gasUsed": 0,
                    "id": -1,
                    "methodDecoded": false,
                    "operation": "",
                    "output": "",
                    "revert": false,
                    "revertMessage": "",
                    "selector": "",
                    "status": false,
                    "value": ""
                },
                "nodeType": 0
            },
            "0": {
                "invocation": {
                    "address": "0xec9f6c9634165f91e22e58b90e3ede393d959e47",
                    "callData": "0x000000000000000000000000c568f4948a04dc062009e1887bbcb4cce4d6aae20000000000000000000000000000000000000000000000000000000c2dd41dac",
                    "decodedMethod": {
                        "callParams": [
                            {
                                "name": "_token",
                                "type": "address",
                                "value": "0xc568f4948a04dc062009e1887bbcb4cce4d6aae2"
                            },
                            {
                                "name": "_amount",
                                "type": "uint256",
                                "value": "52,308,483,500"
                            }
                        ],
                        "constructorArguments": "",
                        "name": "withdraw",
                        "returnParams": [],
                        "signature": "withdraw(address,uint256)"
                    },
                    "errorInfo": "",
                    "fromAddress": "0xed059bc543141c8c93031d545079b3da0233b27f",
                    "gasUsed": 39123,
                    "id": 0,
                    "methodDecoded": true,
                    "operation": "CALL",
                    "output": "0x0000000000000000000000000000000000000000000000000000000000000001",
                    "revert": false,
                    "revertMessage": "",
                    "selector": "0xf3fef3a3",
                    "status": true,
                    "value": "0"
                },
                "nodeType": 0
            },
            "1": {
                "invocation": {
                    "address": "0xe0b7927c4af23765cb51314a0e0521a9645f0e2a",
                    "callData": "0x000000000000000000000000c568f4948a04dc062009e1887bbcb4cce4d6aae20000000000000000000000000000000000000000000000000000000c2dd41dac",
                    "decodedMethod": {
                        "callParams": [
                            {
                                "name": "_to",
                                "type": "address",
                                "value": "0xc568f4948a04dc062009e1887bbcb4cce4d6aae2"
                            },
                            {
                                "decimalAvailable": true,
                                "name": "_value",
                                "type": "uint256",
                                "value": "52,308,483,500"
                            }
                        ],
                        "constructorArguments": "",
                        "name": "transfer",
                        "returnParams": [
                            {
                                "name": "success",
                                "type": "bool",
                                "value": true
                            }
                        ],
                        "signature": "transfer(address,uint256)"
                    },
                    "errorInfo": "",
                    "fromAddress": "0xec9f6c9634165f91e22e58b90e3ede393d959e47",
                    "gasUsed": 13397,
                    "id": 1,
                    "methodDecoded": true,
                    "operation": "CALL",
                    "output": "0x0000000000000000000000000000000000000000000000000000000000000001",
                    "revert": false,
                    "revertMessage": "",
                    "selector": "0xa9059cbb",
                    "status": true,
                    "value": "0"
                },
                "nodeType": 0
            },
            "2": {
                "event": {
                    "contract": "0xe0b7927c4af23765cb51314a0e0521a9645f0e2a",
                    "decodedLog": {
                        "name": "Transfer",
                        "params": [
                            {
                                "name": "_from",
                                "type": "address",
                                "value": "0xec9f6c9634165f91e22e58b90e3ede393d959e47"
                            },
                            {
                                "name": "_to",
                                "type": "address",
                                "value": "0xc568f4948a04dc062009e1887bbcb4cce4d6aae2"
                            },
                            {
                                "decimalAvailable": true,
                                "name": "_value",
                                "type": "uint256",
                                "value": "52,308,483,500"
                            }
                        ],
                        "signature": "Transfer(address,address,uint256)"
                    },
                    "id": 2,
                    "logData": "0x0000000000000000000000000000000000000000000000000000000c2dd41dac",
                    "logDecoded": true,
                    "operation": "EVENT",
                    "revert": false,
                    "status": true,
                    "topics": [
                        "0xddf252ad1be2c89b69c2b068fc378daa952ba7f163c4a11628f55a4df523b3ef",
                        "0x000000000000000000000000ec9f6c9634165f91e22e58b90e3ede393d959e47",
                        "0x000000000000000000000000c568f4948a04dc062009e1887bbcb4cce4d6aae2"
                    ]
                },
                "nodeType": 1
            },
            "3": {
                "event": {
                    "contract": "0xec9f6c9634165f91e22e58b90e3ede393d959e47",
                    "decodedLog": {
                        "name": "Withdraw",
                        "params": [
                            {
                                "name": "user",
                                "type": "address",
                                "value": "0xc568f4948a04dc062009e1887bbcb4cce4d6aae2"
                            },
                            {
                                "name": "amount",
                                "type": "uint256",
                                "value": "52,308,483,500"
                            }
                        ],
                        "signature": "Withdraw(address,uint256)"
                    },
                    "id": 3,
                    "logData": "0x",
                    "logDecoded": true,
                    "operation": "EVENT",
                    "revert": false,
                    "status": true,
                    "topics": [
                        "0x884edad9ce6fa2440d8a54cc123490eb96d2768479d49ff9c7366125a9424364",
                        "0x000000000000000000000000c568f4948a04dc062009e1887bbcb4cce4d6aae2",
                        "0x0000000000000000000000000000000000000000000000000000000c2dd41dac"
                    ]
                },
                "nodeType": 1
            }
        },
        "gasFlame": [
            {
                "children": [
                    {
                        "children": [
                            {
                                "children": [],
                                "depth": 0,
                                "name": "Initial Gas",
                                "value": 23128
                            },
                            {
                                "children": [
                                    {
                                        "children": [],
                                        "depth": 1,
                                        "name": "transfer",
                                        "value": 13397
                                    }
                                ],
                                "depth": 0,
                                "name": "Executed Gas",
                                "value": 15995
                            }
                        ],
                        "depth": -1,
                        "name": "Actual Gas Used",
                        "value": 39123
                    },
                    {
                        "children": [],
                        "depth": -1,
                        "name": "Refunded Gas",
                        "value": 0
                    }
                ],
                "depth": -2,
                "name": "Total Gas",
                "value": 39123
            }
        ],
        "isConfirmed": true,
        "mainTrace": [
            {
                "children": [
                    {
                        "children": [
                            {
                                "children": [
                                    {
                                        "children": [],
                                        "depth": 2,
                                        "id": 2,
                                        "order": 2
                                    }
                                ],
                                "depth": 1,
                                "id": 1,
                                "order": 1
                            },
                            {
                                "children": [],
                                "depth": 1,
                                "id": 3,
                                "order": 3
                            }
                        ],
                        "depth": 0,
                        "id": 0,
                        "order": 0
                    }
                ],
                "depth": -1,
                "id": -1,
                "order": -1
            }
        ],
        "mainTraceNodeCount": 4,
        "parentIdMap": {
            "0": -1,
            "1": 0,
            "2": 1,
            "3": 0
        },
        "tidyTrace": [
            {
                "children": [
                    {
                        "children": [
                            {
                                "children": [
                                    {
                                        "children": [],
                                        "depth": 2,
                                        "id": 2,
                                        "order": 2
                                    }
                                ],
                                "depth": 1,
                                "id": 1,
                                "order": 1
                            },
                            {
                                "children": [],
                                "depth": 1,
                                "id": 3,
                                "order": 3
                            }
                        ],
                        "depth": 0,
                        "id": 0,
                        "order": 0
                    }
                ],
                "depth": -1,
                "id": -1,
                "order": -1
            }
        ],
        "tidyTraceNodeCount": 4
    },
    "state_change": {
        "stateChanges": [
            {
                "address": "0xe0b7927c4af23765cb51314a0e0521a9645f0e2a",
                "erc": "ERC-20",
                "slots": [
                    {
                        "current": "0x000000000000000000000000000000000000000000000000000000ef93c48292",
                        "key": "0x7408aad2ff8d1908eb33be631d5485a41bec4d9c5e565598f7faf292d2302a38",
                        "prev": "0x000000000000000000000000000000000000000000000000000000fbc198a03e"
                    },
                    {
                        "current": "0x0000000000000000000000000000000000000000000000000000004c49638734",
                        "key": "0x48f4c939cbd50e88fe5d01c6d4731747918dff4989f855c3030ffd261dd8b96e",
                        "prev": "0x000000000000000000000000000000000000000000000000000000401b8f6988"
                    }
                ],
                "storageVariables": []
            }
        ]
    }
}