{
    "balance_change": {
        "balanceChanges": [
            {
                "account": "0x3af29059595cb10519b36078c4b46c68563e1103",
                "assets": [
                    {
                        "address": "0xc4247fd37205d9a8a5d76d67619b21d96fd2d148",
                        "amount": "46.50490586",
                        "iconUrl": "",
                        "isERC1155": false,
                        "isERC721": false,
                        "sign": false,
                        "value": ""
                    }
                ]
            },
            {
                "account": "0x47391b28fbcaa4ed74711edafffc4f96cdd295bc",
                "assets": [
                    {
                        "address": "0xc4247fd37205d9a8a5d76d67619b21d96fd2d148",
                        "amount": "46.50490586",
                        "iconUrl": "",
                        "isERC1155": false,
                        "isERC721": false,
                        "sign": true,
                        "value": ""
                    }
                ]
            }
        ]
    },
    "profile": {
        "basic_info": {
            "baseFee": "62.018733361",
            "blockNumber": 14153724,
            "callData": "0xa9059cbb00000000000000000000000047391b28fbcaa4ed74711edafffc4f96cdd295bc00000000000000000000000000000000000000000000000285629d7c72482800",
            "debugEnable": true,
            "errorInfo": "",
            "eventCount": 1,
            "feeRecipient": "0xea674fdde714fd979de3edf0f56aa9716b898ec8",
            "formatValue": "0",
            "gasLimit": 70000,
            "gasPrice": "64",
            "gasUsed": 34616,
            "intTxnCount": 0,
            "internalRevert": false,
            "internalRevertMessage": "",
            "isContractCreation": false,
            "isFlashloan": false,
            "maxFee": "",
            "nonce": 3630,
            "overwritedBlockNumber": -1,
            "priorityFee": "",
            "receiver": "0xc4247fd37205d9a8a5d76d67619b21d96fd2d148",
            "revertMessage": "",
            "sender": "0x3af29059595cb10519b36078c4b46c68563e1103",
            "simulationEnable": true,
            "sourceTxnHash": "0x41a9d323e543ad1f1247472a471816d957b9164e1b3d65e26b08ec8a757fb2cc",
            "status": true,
            "timestamp": "2022-02-06T16:53:47Z",
            "transactionFee": "0.002215424",
            "txnHash": "0x41a9d323e543ad1f1247472a471816d957b9164e1b3d65e26b08ec8a757fb2cc",
            "txnIndex": 147,
            "type": 0,
            "value": "0"
        },
        "fund_flow": [
            {
                "amount": "46.50490586",
                "from": "0x3af29059595cb10519b36078c4b46c68563e1103",
                "id": 1,
                "isERC1155": false,
                "isERC721": false,
                "isReverted": false,
                "order": 1,
                "to": "0x47391b28fbcaa4ed74711edafffc4f96cdd295bc",
                "token": "0xc4247fd37205d9a8a5d76d67619b21d96fd2d148"
            }
        ],
        "token_infos": [
            {
                "address": "0xc02aaa39b223fe8d0a0e5c4f27ead9083c756cc2",
                "decimals": 18
            },
            {
                "address": "0xc4247fd37205d9a8a5d76d67619b21d96fd2d148",
                "decimals": 18
            },
            {
                "address": "0xeeeeeeeeeeeeeeeeeeeeeeeeeeeeeeeeeeeeeeee",
                "decimals": 18
            }
        ]
    },
    "address_label": {
        "labels": [
            {
                "address": "0x0000000000000000000000000000000000000004",
                "label": "Precompiled"
            },
            {
                "address": "0xeeeeeeeeeeeeeeeeeeeeeeeeeeeeeeeeeeeeeeee",
                "label": "Ether"
            },
            {
                "address": "0xc4247fd37205d9a8a5d76d67619b21d96fd2d148",
                "label": "Beyond USD Token (USDb)"
            },
            {
                "address": "0x0000000000000000000000000000000000000001",
                "label": "Precompiled"
            },
            {
                "address": "0x0000000000000000000000000000000000000002",
                "label": "Precompiled"
            },
            {
                "address": "0x0000000000000000000000000000000000000003",
                "label": "Precompiled"
            }
        ]
    },
    "trace": {
        "accountLabels": null,
        "dataMap": {
            "-1": {
                "invocation": {
                    "address": "0x3af29059595cb10519b36078c4b46c68563e1103",
                    "callData": "",
                    "decodedMethod": null,
                    "errorInfo": "",
                    "fromAddress": "",
                    "gasUsed": 0,
                    "id": -1,
                    "methodDecoded": false,
                    "operation": "",
                    "output": "",
                    "revert": false,
                    "revertMessage": "",
                    "selector": "",
                    "status": false,
                    "value": ""
                },
                "nodeType": 0
            },
            "0": {
                "invocation": {
                    "address": "0xc4247fd37205d9a8a5d76d67619b21d96fd2d148",
                    "callData": "0x00000000000000000000000047391b28fbcaa4ed74711edafffc4f96cdd295bc00000000000000000000000000000000000000000000000285629d7c72482800",
                    "decodedMethod": {
                        "callParams": [
                            {
                                "name": "recipient",
                                "type": "address",
                                "value": "0x47391b28fbcaa4ed74711edafffc4f96cdd295bc"
                            },
                            {
                                "decimalAvailable": true,
                                "name": "amount",
                                "type": "uint256",
                                "value": "46,504,905,860,000,000,000"
                            }
                        ],
                        "constructorArguments": "",
                        "name": "transfer",
                        "returnParams": [
                            {
                                "name": "",
                                "type": "bool",
                                "value": true
                            }
                        ],
                        "signature": "transfer(address,uint256)"
                    },
                    "errorInfo": "",
                    "fromAddress": "0x3af29059595cb10519b36078c4b46c68563e1103",
                    "gasUsed": 34616,
                    "id": 0,
                    "methodDecoded": true,
                    "operation": "CALL",
                    "output": "0x0000000000000000000000000000000000000000000000000000000000000001",
                    "revert": false,
                    "revertMessage": "",
                    "selector": "0xa9059cbb",
                    "status": true,
                    "value": "0"
                },
                "nodeType": 0
            },
            "1": {
                "event": {
                    "contract": "0xc4247fd37205d9a8a5d76d67619b21d96fd2d148",
                    "decodedLog": {
                        "name": "Transfer",
                        "params": [
                            {
                                "name": "from",
                                "type": "address",
                                "value": "0x3af29059595cb10519b36078c4b46c68563e1103"
                            },
                            {
                                "name": "to",
                                "type": "address",
                                "value": "0x47391b28fbcaa4ed74711edafffc4f96cdd295bc"
                            },
                            {
                                "decimalAvailable": true,
                                "name": "value",
                                "type": "uint256",
                                "value": "46,504,905,860,000,000,000"
                            }
                        ],
                        "signature": "Transfer(address,address,uint256)"
                    },
                    "id": 1,
                    "logData": "0x00000000000000000000000000000000000000000000000285629d7c72482800",
                    "logDecoded": true,
                    "operation": "EVENT",
                    "revert": false,
                    "status": true,
                    "topics": [
                        "0xddf252ad1be2c89b69c2b068fc378daa952ba7f163c4a11628f55a4df523b3ef",
                        "0x0000000000000000000000003af29059595cb10519b36078c4b46c68563e1103",
                        "0x00000000000000000000000047391b28fbcaa4ed74711edafffc4f96cdd295bc"
                    ]
                },
                "nodeType": 1
            }
        },
        "gasFlame": [
            {
                "children": [
                    {
                        "children": [
                            {
                                "children": [],
                                "depth": 0,
                                "name": "Initial Gas",
                                "value": 21656
                            },
                            {
                                "children": [],
                                "depth": 0,
                                "name": "Executed Gas",
                                "value": 12960
                            }
                        ],
                        "depth": -1,
                        "name": "Actual Gas Used",
                        "value": 34616
                    },
                    {
                        "children": [],
                        "depth": -1,
                        "name": "Refunded Gas",
                        "value": 0
                    }
                ],
                "depth": -2,
                "name": "Total Gas",
                "value": 34616
            }
        ],
        "isConfirmed": true,
        "mainTrace": [
            {
                "children": [
                    {
                        "children": [
                            {
                                "children": [],
                                "depth": 1,
                                "id": 1,
                                "order": 1
                            }
                        ],
                        "depth": 0,
                        "id": 0,
                        "order": 0
                    }
                ],
                "depth": -1,
                "id": -1,
                "order": -1
            }
        ],
        "mainTraceNodeCount": 2,
        "parentIdMap": {
            "0": -1,
            "1": 0
        },
        "tidyTrace": [
            {
                "children": [
                    {
                        "children": [
                            {
                                "children": [],
                                "depth": 1,
                                "id": 1,
                                "order": 1
                            }
                        ],
                        "depth": 0,
                        "id": 0,
                        "order": 0
                    }
                ],
                "depth": -1,
                "id": -1,
                "order": -1
            }
        ],
        "tidyTraceNodeCount": 2
    },
    "state_change": {
        "stateChanges": [
            {
                "address": "0xc4247fd37205d9a8a5d76d67619b21d96fd2d148",
                "erc": "",
                "slots": [
                    {
                        "current": "0x0000000000000000000000000000000000000000000770efb5890f15c9e53000",
                        "key": "0xffbbe1dedd02e23ac64a1a316cd0cdf42a2898366ebae92c283b47e43b342212",
                        "prev": "0x0000000000000000000000000000000000000000000770f23aebac923c2d5800"
                    },
                    {
                        "current": "0x00000000000000000000000000000000000000000000c297196353e5790fd000",
                        "key": "0xbd25bc2c78158be031b12eb9a464b06aae3d1c76c9f59101a35f1069ac886cd7",
                        "prev": "0x00000000000000000000000000000000000000000000c2949400b66906c7a800"
                    }
                ],
                "storageVariables": []
            }
        ]
    }
}