{
    "balance_change": {
        "balanceChanges": [
            {
                "account": "0x5c174c4d4bb6bdb9155620ecb6a70ce6bfe2f99f",
                "assets": [
                    {
                        "address": "0x23296ef94cacb9f462f0937e762805d12220c954",
                        "amount": "15",
                        "iconUrl": "",
                        "isERC1155": false,
                        "isERC721": false,
                        "sign": false,
                        "value": ""
                    }
                ]
            },
            {
                "account": "0xfcf35216208fb7ae0ea76d47164b351218141f15",
                "assets": [
                    {
                        "address": "0x23296ef94cacb9f462f0937e762805d12220c954",
                        "amount": "15",
                        "iconUrl": "",
                        "isERC1155": false,
                        "isERC721": false,
                        "sign": true,
                        "value": ""
                    }
                ]
            }
        ]
    },
    "profile": {
        "basic_info": {
            "baseFee": "",
            "blockNumber": 8682033,
            "callData": "0xa9059cbb000000000000000000000000fcf35216208fb7ae0ea76d47164b351218141f15000000000000000000000000000000000000000000000000d02ab486cedc0000",
            "debugEnable": true,
            "errorInfo": "",
            "eventCount": 1,
            "feeRecipient": "0x5a0b54d5dc17e0aadc383d2db43b0a0d3e029c4c",
            "formatValue": "0",
            "gasLimit": 53205,
            "gasPrice": "1",
            "gasUsed": 53205,
            "intTxnCount": 0,
            "internalRevert": false,
            "internalRevertMessage": "",
            "isContractCreation": false,
            "isFlashloan": false,
            "maxFee": "",
            "nonce": 234,
            "overwritedBlockNumber": -1,
            "priorityFee": "",
            "receiver": "0x23296ef94cacb9f462f0937e762805d12220c954",
            "revertMessage": "",
            "sender": "0x5c174c4d4bb6bdb9155620ecb6a70ce6bfe2f99f",
            "simulationEnable": true,
            "sourceTxnHash": "0x42891df10f9554dc343edcef0a0fd6458be8432b96854b55cf7eb1e3069effe7",
            "status": true,
            "timestamp": "2019-10-05T12:12:15Z",
            "transactionFee": "0.000053205",
            "txnHash": "0x42891df10f9554dc343edcef0a0fd6458be8432b96854b55cf7eb1e3069effe7",
            "txnIndex": 164,
            "type": 0,
            "value": "0"
        },
        "fund_flow": [
            {
                "amount": "15",
                "from": "0x5c174c4d4bb6bdb9155620ecb6a70ce6bfe2f99f",
                "id": 1,
                "isERC1155": false,
                "isERC721": false,
                "isReverted": false,
                "order": 1,
                "to": "0xfcf35216208fb7ae0ea76d47164b351218141f15",
                "token": "0x23296ef94cacb9f462f0937e762805d12220c954"
            }
        ],
        "token_infos": [
            {
                "address": "0x23296ef94cacb9f462f0937e762805d12220c954",
                "decimals": 18
            },
            {
                "address": "0xc02aaa39b223fe8d0a0e5c4f27ead9083c756cc2",
                "decimals": 18
            },
            {
                "address": "0xeeeeeeeeeeeeeeeeeeeeeeeeeeeeeeeeeeeeeeee",
                "decimals": 18
            }
        ]
    },
    "address_label": {
        "labels": [
            {
                "address": "0x0000000000000000000000000000000000000004",
                "label": "Precompiled"
            },
            {
                "address": "0xeeeeeeeeeeeeeeeeeeeeeeeeeeeeeeeeeeeeeeee",
                "label": "Ether"
            },
            {
                "address": "0x23296ef94cacb9f462f0937e762805d12220c954",
                "label": "SETI"
            },
            {
                "address": "0x0000000000000000000000000000000000000001",
                "label": "Precompiled"
            },
            {
                "address": "0x0000000000000000000000000000000000000002",
                "label": "Precompiled"
            },
            {
                "address": "0x0000000000000000000000000000000000000003",
                "label": "Precompiled"
            }
        ]
    },
    "trace": {
        "accountLabels": null,
        "dataMap": {
            "-1": {
                "invocation": {
                    "address": "0x5c174c4d4bb6bdb9155620ecb6a70ce6bfe2f99f",
                    "callData": "",
                    "decodedMethod": null,
                    "errorInfo": "",
                    "fromAddress": "",
                    "gasUsed": 0,
                    "id": -1,
                    "methodDecoded": false,
                    "operation": "",
                    "output": "",
                    "revert": false,
                    "revertMessage": "",
                    "selector": "",
                    "status": false,
                    "value": ""
                },
                "nodeType": 0
            },
            "0": {
                "invocation": {
                    "address": "0x23296ef94cacb9f462f0937e762805d12220c954",
                    "callData": "0x000000000000000000000000fcf35216208fb7ae0ea76d47164b351218141f15000000000000000000000000000000000000000000000000d02ab486cedc0000",
                    "decodedMethod": {
                        "callParams": [
                            {
                                "name": "_to",
                                "type": "address",
                                "value": "0xfcf35216208fb7ae0ea76d47164b351218141f15"
                            },
                            {
                                "decimalAvailable": true,
                                "name": "_value",
                                "type": "uint256",
                                "value": "15,000,000,000,000,000,000"
                            }
                        ],
                        "constructorArguments": "",
                        "name": "transfer",
                        "returnParams": [
                            {
                                "name": "success",
                                "type": "bool",
                                "value": true
                            }
                        ],
                        "signature": "transfer(address,uint256)"
                    },
                    "errorInfo": "",
                    "fromAddress": "0x5c174c4d4bb6bdb9155620ecb6a70ce6bfe2f99f",
                    "gasUsed": 53205,
                    "id": 0,
                    "methodDecoded": true,
                    "operation": "CALL",
                    "output": "0x0000000000000000000000000000000000000000000000000000000000000001",
                    "revert": false,
                    "revertMessage": "",
                    "selector": "0xa9059cbb",
                    "status": true,
                    "value": "0"
                },
                "nodeType": 0
            },
            "1": {
                "event": {
                    "contract": "0x23296ef94cacb9f462f0937e762805d12220c954",
                    "decodedLog": {
                        "name": "Transfer",
                        "params": [
                            {
                                "name": "from",
                                "type": "address",
                                "value": "0x5c174c4d4bb6bdb9155620ecb6a70ce6bfe2f99f"
                            },
                            {
                                "name": "to",
                                "type": "address",
                                "value": "0xfcf35216208fb7ae0ea76d47164b351218141f15"
                            },
                            {
                                "decimalAvailable": true,
                                "name": "value",
                                "type": "uint256",
                                "value": "15,000,000,000,000,000,000"
                            }
                        ],
                        "signature": "Transfer(address,address,uint256)"
                    },
                    "id": 1,
                    "logData": "0x000000000000000000000000000000000000000000000000d02ab486cedc0000",
                    "logDecoded": true,
                    "operation": "EVENT",
                    "revert": false,
                    "status": true,
                    "topics": [
                        "0xddf252ad1be2c89b69c2b068fc378daa952ba7f163c4a11628f55a4df523b3ef",
                        "0x0000000000000000000000005c174c4d4bb6bdb9155620ecb6a70ce6bfe2f99f",
                        "0x000000000000000000000000fcf35216208fb7ae0ea76d47164b351218141f15"
                    ]
                },
                "nodeType": 1
            }
        },
        "gasFlame": [
            {
                "children": [
                    {
                        "children": [
                            {
                                "children": [],
                                "depth": 0,
                                "name": "Initial Gas",
                                "value": 23192
                            },
                            {
                                "children": [],
                                "depth": 0,
                                "name": "Executed Gas",
                                "value": 30013
                            }
                        ],
                        "depth": -1,
                        "name": "Actual Gas Used",
                        "value": 53205
                    },
                    {
                        "children": [],
                        "depth": -1,
                        "name": "Refunded Gas",
                        "value": 0
                    }
                ],
                "depth": -2,
                "name": "Total Gas",
                "value": 53205
            }
        ],
        "isConfirmed": true,
        "mainTrace": [
            {
                "children": [
                    {
                        "children": [
                            {
                                "children": [],
                                "depth": 1,
                                "id": 1,
                                "order": 1
                            }
                        ],
                        "depth": 0,
                        "id": 0,
                        "order": 0
                    }
                ],
                "depth": -1,
                "id": -1,
                "order": -1
            }
        ],
        "mainTraceNodeCount": 2,
        "parentIdMap": {
            "0": -1,
            "1": 0
        },
        "tidyTrace": [
            {
                "children": [
                    {
                        "children": [
                            {
                                "children": [],
                                "depth": 1,
                                "id": 1,
                                "order": 1
                            }
                        ],
                        "depth": 0,
                        "id": 0,
                        "order": 0
                    }
                ],
                "depth": -1,
                "id": -1,
                "order": -1
            }
        ],
        "tidyTraceNodeCount": 2
    },
    "state_change": {
        "stateChanges": [
            {
                "address": "0x23296ef94cacb9f462f0937e762805d12220c954",
                "erc": "ERC-20",
                "slots": [
                    {
                        "current": "0x00000000000000000000000000000000000000000000d31852938ef9b5900000",
                        "key": "0x898fed32e37ae7dc60160f3ebd62966a45fbd1bdda2c7c4b1cf6232b8cd9e3c3",
                        "prev": "0x00000000000000000000000000000000000000000000d31922be4380846c0000"
                    },
                    {
                        "current": "0x000000000000000000000000000000000000000000000000d02ab486cedc0000",
                        "key": "0x669a3135bd30e1fb566cb6a21da719ad0d7d9f672adebfc7d3bc18ed977be1fe",
                        "prev": "0x0000000000000000000000000000000000000000000000000000000000000000"
                    }
                ],
                "storageVariables": [
                    {
                        "name": "balanceOf",
                        "type": "mapping(address => uint256)",
                        "value": {
                            "pairs": [
                                {
                                    "key": "0x5c174c4d4bb6bdb9155620ecb6a70ce6bfe2f99f",
                                    "value": {
                                        "current": "996868000000000000000000",
                                        "prev": "996883000000000000000000",
                                        "typeTag": 1
                                    }
                                },
                                {
                                    "key": "0xfcf35216208fb7ae0ea76d47164b351218141f15",
                                    "value": {
                                        "current": "15000000000000000000",
                                        "prev": "0",
                                        "typeTag": 1
                                    }
                                }
                            ],
                            "typeTag": 4
                        }
                    }
                ]
            }
        ]
    }
}