{
    "balance_change": {
        "balanceChanges": [
            {
                "account": "0xa023e9325ac5aabbac59f4ba09458b50bf8bea9b",
                "assets": [
                    {
                        "address": "0x48f3726c787bdc36bb00c978e701879ceed185a4",
                        "amount": "2,650.15",
                        "iconUrl": "",
                        "isERC1155": false,
                        "isERC721": false,
                        "sign": false,
                        "value": ""
                    }
                ]
            },
            {
                "account": "0x5c35723a84e1ef64e03be3ce4c6a8ffd99df4de1",
                "assets": [
                    {
                        "address": "0x48f3726c787bdc36bb00c978e701879ceed185a4",
                        "amount": "2,650.15",
                        "iconUrl": "",
                        "isERC1155": false,
                        "isERC721": false,
                        "sign": true,
                        "value": ""
                    }
                ]
            }
        ]
    },
    "profile": {
        "basic_info": {
            "baseFee": "",
            "blockNumber": 8906473,
            "callData": "0xa9059cbb0000000000000000000000005c35723a84e1ef64e03be3ce4c6a8ffd99df4de1000000000000000000000000000000000000000000000000000000000194617c",
            "debugEnable": true,
            "errorInfo": "",
            "eventCount": 1,
            "feeRecipient": "0x5a0b54d5dc17e0aadc383d2db43b0a0d3e029c4c",
            "formatValue": "0",
            "gasLimit": 60000,
            "gasPrice": "6",
            "gasUsed": 36331,
            "intTxnCount": 0,
            "internalRevert": false,
            "internalRevertMessage": "",
            "isContractCreation": false,
            "isFlashloan": false,
            "maxFee": "",
            "nonce": 4998,
            "overwritedBlockNumber": -1,
            "priorityFee": "",
            "receiver": "0x48f3726c787bdc36bb00c978e701879ceed185a4",
            "revertMessage": "",
            "sender": "0xa023e9325ac5aabbac59f4ba09458b50bf8bea9b",
            "simulationEnable": true,
            "sourceTxnHash": "0x4242508d46add087b0ceda445fe139f313842b3dcc232dd02d6fca0d6e477aa7",
            "status": true,
            "timestamp": "2019-11-10T04:38:37Z",
            "transactionFee": "0.000217986",
            "txnHash": "0x4242508d46add087b0ceda445fe139f313842b3dcc232dd02d6fca0d6e477aa7",
            "txnIndex": 67,
            "type": 0,
            "value": "0"
        },
        "fund_flow": [
            {
                "amount": "2,650.15",
                "from": "0xa023e9325ac5aabbac59f4ba09458b50bf8bea9b",
                "id": 1,
                "isERC1155": false,
                "isERC721": false,
                "isReverted": false,
                "order": 1,
                "to": "0x5c35723a84e1ef64e03be3ce4c6a8ffd99df4de1",
                "token": "0x48f3726c787bdc36bb00c978e701879ceed185a4"
            }
        ],
        "token_infos": [
            {
                "address": "0xc02aaa39b223fe8d0a0e5c4f27ead9083c756cc2",
                "decimals": 18
            },
            {
                "address": "0xeeeeeeeeeeeeeeeeeeeeeeeeeeeeeeeeeeeeeeee",
                "decimals": 18
            },
            {
                "address": "0x48f3726c787bdc36bb00c978e701879ceed185a4",
                "decimals": 4
            }
        ]
    },
    "address_label": {
        "labels": [
            {
                "address": "0x0000000000000000000000000000000000000002",
                "label": "Precompiled"
            },
            {
                "address": "0x0000000000000000000000000000000000000003",
                "label": "Precompiled"
            },
            {
                "address": "0x0000000000000000000000000000000000000004",
                "label": "Precompiled"
            },
            {
                "address": "0xeeeeeeeeeeeeeeeeeeeeeeeeeeeeeeeeeeeeeeee",
                "label": "Ether"
            },
            {
                "address": "0x48f3726c787bdc36bb00c978e701879ceed185a4",
                "label": "Loctite Assets Token (LT)"
            },
            {
                "address": "0x0000000000000000000000000000000000000001",
                "label": "Precompiled"
            }
        ]
    },
    "trace": {
        "accountLabels": null,
        "dataMap": {
            "-1": {
                "invocation": {
                    "address": "0xa023e9325ac5aabbac59f4ba09458b50bf8bea9b",
                    "callData": "",
                    "decodedMethod": null,
                    "errorInfo": "",
                    "fromAddress": "",
                    "gasUsed": 0,
                    "id": -1,
                    "methodDecoded": false,
                    "operation": "",
                    "output": "",
                    "revert": false,
                    "revertMessage": "",
                    "selector": "",
                    "status": false,
                    "value": ""
                },
                "nodeType": 0
            },
            "0": {
                "invocation": {
                    "address": "0x48f3726c787bdc36bb00c978e701879ceed185a4",
                    "callData": "0x0000000000000000000000005c35723a84e1ef64e03be3ce4c6a8ffd99df4de1000000000000000000000000000000000000000000000000000000000194617c",
                    "decodedMethod": {
                        "callParams": [
                            {
                                "name": "_to",
                                "type": "address",
                                "value": "0x5c35723a84e1ef64e03be3ce4c6a8ffd99df4de1"
                            },
                            {
                                "decimalAvailable": true,
                                "name": "_value",
                                "type": "uint256",
                                "value": "26,501,500"
                            }
                        ],
                        "constructorArguments": "",
                        "name": "transfer",
                        "returnParams": [
                            {
                                "name": "success",
                                "type": "bool",
                                "value": true
                            }
                        ],
                        "signature": "transfer(address,uint256)"
                    },
                    "errorInfo": "",
                    "fromAddress": "0xa023e9325ac5aabbac59f4ba09458b50bf8bea9b",
                    "gasUsed": 36331,
                    "id": 0,
                    "methodDecoded": true,
                    "operation": "CALL",
                    "output": "0x0000000000000000000000000000000000000000000000000000000000000001",
                    "revert": false,
                    "revertMessage": "",
                    "selector": "0xa9059cbb",
                    "status": true,
                    "value": "0"
                },
                "nodeType": 0
            },
            "1": {
                "event": {
                    "contract": "0x48f3726c787bdc36bb00c978e701879ceed185a4",
                    "decodedLog": {
                        "name": "Transfer",
                        "params": [
                            {
                                "name": "_from",
                                "type": "address",
                                "value": "0xa023e9325ac5aabbac59f4ba09458b50bf8bea9b"
                            },
                            {
                                "name": "_to",
                                "type": "address",
                                "value": "0x5c35723a84e1ef64e03be3ce4c6a8ffd99df4de1"
                            },
                            {
                                "decimalAvailable": true,
                                "name": "_value",
                                "type": "uint256",
                                "value": "26,501,500"
                            }
                        ],
                        "signature": "Transfer(address,address,uint256)"
                    },
                    "id": 1,
                    "logData": "0x000000000000000000000000000000000000000000000000000000000194617c",
                    "logDecoded": true,
                    "operation": "EVENT",
                    "revert": false,
                    "status": true,
                    "topics": [
                        "0xddf252ad1be2c89b69c2b068fc378daa952ba7f163c4a11628f55a4df523b3ef",
                        "0x000000000000000000000000a023e9325ac5aabbac59f4ba09458b50bf8bea9b",
                        "0x0000000000000000000000005c35723a84e1ef64e03be3ce4c6a8ffd99df4de1"
                    ]
                },
                "nodeType": 1
            }
        },
        "gasFlame": [
            {
                "children": [
                    {
                        "children": [
                            {
                                "children": [],
                                "depth": 0,
                                "name": "Initial Gas",
                                "value": 23064
                            },
                            {
                                "children": [],
                                "depth": 0,
                                "name": "Executed Gas",
                                "value": 13267
                            }
                        ],
                        "depth": -1,
                        "name": "Actual Gas Used",
                        "value": 36331
                    },
                    {
                        "children": [],
                        "depth": -1,
                        "name": "Refunded Gas",
                        "value": 0
                    }
                ],
                "depth": -2,
                "name": "Total Gas",
                "value": 36331
            }
        ],
        "isConfirmed": true,
        "mainTrace": [
            {
                "children": [
                    {
                        "children": [
                            {
                                "children": [],
                                "depth": 1,
                                "id": 1,
                                "order": 1
                            }
                        ],
                        "depth": 0,
                        "id": 0,
                        "order": 0
                    }
                ],
                "depth": -1,
                "id": -1,
                "order": -1
            }
        ],
        "mainTraceNodeCount": 2,
        "parentIdMap": {
            "0": -1,
            "1": 0
        },
        "tidyTrace": [
            {
                "children": [
                    {
                        "children": [
                            {
                                "children": [],
                                "depth": 1,
                                "id": 1,
                                "order": 1
                            }
                        ],
                        "depth": 0,
                        "id": 0,
                        "order": 0
                    }
                ],
                "depth": -1,
                "id": -1,
                "order": -1
            }
        ],
        "tidyTraceNodeCount": 2
    },
    "state_change": {
        "stateChanges": [
            {
                "address": "0x48f3726c787bdc36bb00c978e701879ceed185a4",
                "erc": "ERC-20",
                "slots": [
                    {
                        "current": "0x0000000000000000000000000000000000000000000000000000003ea0b1d5e4",
                        "key": "0x2e0519aaeeeb87bc9c008fa1676945a4c38a025618d6869ccacc0c2f045ee46b",
                        "prev": "0x0000000000000000000000000000000000000000000000000000003ea2463760"
                    },
                    {
                        "current": "0x00000000000000000000000000000000000000000000000000000000032ee8cc",
                        "key": "0x714248b79b570e02b828c053f1d68ff0c5c998cac4a261bf270da5524ad21dd2",
                        "prev": "0x00000000000000000000000000000000000000000000000000000000019a8750"
                    }
                ],
                "storageVariables": [
                    {
                        "name": "balances",
                        "type": "mapping(address => uint256)",
                        "value": {
                            "pairs": [
                                {
                                    "key": "0x5c35723a84e1ef64e03be3ce4c6a8ffd99df4de1",
                                    "value": {
                                        "current": "53405900",
                                        "prev": "26904400",
                                        "typeTag": 1
                                    }
                                },
                                {
                                    "key": "0xa023e9325ac5aabbac59f4ba09458b50bf8bea9b",
                                    "value": {
                                        "current": "268983981540",
                                        "prev": "269010483040",
                                        "typeTag": 1
                                    }
                                }
                            ],
                            "typeTag": 4
                        }
                    }
                ]
            }
        ]
    }
}