{
    "balance_change": {
        "balanceChanges": [
            {
                "account": "0x2bf633dbf9ddb008c0943920c5d2de8f601d517a",
                "assets": [
                    {
                        "address": "0x06a6a7af298129e3a2ab396c9c06f91d3c54aba8",
                        "amount": "228,187",
                        "iconUrl": "",
                        "isERC1155": false,
                        "isERC721": false,
                        "sign": true,
                        "value": ""
                    }
                ]
            },
            {
                "account": "0x0000000000000000000000000000000000000000",
                "assets": [
                    {
                        "address": "0x06a6a7af298129e3a2ab396c9c06f91d3c54aba8",
                        "amount": "228,187",
                        "iconUrl": "",
                        "isERC1155": false,
                        "isERC721": false,
                        "sign": false,
                        "value": ""
                    }
                ]
            }
        ]
    },
    "profile": {
        "basic_info": {
            "baseFee": "",
            "blockNumber": 8703092,
            "callData": "0x5bc20b24000000000000000000000000000000000000000000000000000000000002ac490000000000000000000000000000000000000000000000000000000000000009",
            "debugEnable": true,
            "errorInfo": "",
            "eventCount": 3,
            "feeRecipient": "0x52bc44d5378309ee2abf1539bf71de1b7d7be3b5",
            "formatValue": "0",
            "gasLimit": 1600000,
            "gasPrice": "0.33",
            "gasUsed": 608502,
            "intTxnCount": 60,
            "internalRevert": false,
            "internalRevertMessage": "",
            "isContractCreation": false,
            "isFlashloan": false,
            "maxFee": "",
            "nonce": 52,
            "overwritedBlockNumber": -1,
            "priorityFee": "",
            "receiver": "0xf0155486a14539f784739be1c02e93f28eb8e960",
            "revertMessage": "",
            "sender": "0x2bf633dbf9ddb008c0943920c5d2de8f601d517a",
            "simulationEnable": true,
            "sourceTxnHash": "0x425f2925f3793d859fe4b5e5959c8aacada91851996d420a580b83c4837d81e4",
            "status": true,
            "timestamp": "2019-10-08T19:04:03Z",
            "transactionFee": "0.00020080566",
            "txnHash": "0x425f2925f3793d859fe4b5e5959c8aacada91851996d420a580b83c4837d81e4",
            "txnIndex": 11,
            "type": 0,
            "value": "0"
        },
        "fund_flow": [
            {
                "amount": "228,187",
                "from": "0x0000000000000000000000000000000000000000",
                "id": 1,
                "isERC1155": false,
                "isERC721": false,
                "isReverted": false,
                "order": 1,
                "to": "0x2bf633dbf9ddb008c0943920c5d2de8f601d517a",
                "token": "0x06a6a7af298129e3a2ab396c9c06f91d3c54aba8"
            }
        ],
        "token_infos": [
            {
                "address": "0x06a6a7af298129e3a2ab396c9c06f91d3c54aba8",
                "decimals": -1
            },
            {
                "address": "0xc02aaa39b223fe8d0a0e5c4f27ead9083c756cc2",
                "decimals": 18
            },
            {
                "address": "0xeeeeeeeeeeeeeeeeeeeeeeeeeeeeeeeeeeeeeeee",
                "decimals": 18
            }
        ]
    },
    "address_label": {
        "labels": [
            {
                "address": "0xeeeeeeeeeeeeeeeeeeeeeeeeeeeeeeeeeeeeeeee",
                "label": "Ether"
            },
            {
                "address": "0x06a6a7af298129e3a2ab396c9c06f91d3c54aba8",
                "label": "0xUniverse: PLANET Token"
            },
            {
                "address": "0xe658e6eb4b478da2cf36d9e3712ba0c1b33786a1",
                "label": "0xUniverse: Contract 3"
            },
            {
                "address": "0x0000000000000000000000000000000000000001",
                "label": "Precompiled"
            },
            {
                "address": "0x0000000000000000000000000000000000000002",
                "label": "Precompiled"
            },
            {
                "address": "0x0000000000000000000000000000000000000003",
                "label": "Precompiled"
            },
            {
                "address": "0x0000000000000000000000000000000000000004",
                "label": "Precompiled"
            }
        ]
    },
    "trace": {
        "accountLabels": null,
        "dataMap": {
            "-1": {
                "invocation": {
                    "address": "0x2bf633dbf9ddb008c0943920c5d2de8f601d517a",
                    "callData": "",
                    "decodedMethod": null,
                    "errorInfo": "",
                    "fromAddress": "",
                    "gasUsed": 0,
                    "id": -1,
                    "methodDecoded": false,
                    "operation": "",
                    "output": "",
                    "revert": false,
                    "revertMessage": "",
                    "selector": "",
                    "status": false,
                    "value": ""
                },
                "nodeType": 0
            },
            "0": {
                "invocation": {
                    "address": "0xf0155486a14539f784739be1c02e93f28eb8e960",
                    "callData": "0x000000000000000000000000000000000000000000000000000000000002ac490000000000000000000000000000000000000000000000000000000000000009",
                    "decodedMethod": null,
                    "errorInfo": "",
                    "fromAddress": "0x2bf633dbf9ddb008c0943920c5d2de8f601d517a",
                    "gasUsed": 608502,
                    "id": 0,
                    "methodDecoded": false,
                    "operation": "CALL",
                    "output": "",
                    "revert": false,
                    "revertMessage": "",
                    "selector": "0x5bc20b24",
                    "status": true,
                    "value": "0"
                },
                "nodeType": 0
            },
            "1": {
                "invocation": {
                    "address": "0x03a50706a770120e909d4dbedb161b63f9baa4b0",
                    "callData": "0x000000000000000000000000000000000000000000000000000000000002ac490000000000000000000000000000000000000000000000000000000000000009",
                    "decodedMethod": null,
                    "errorInfo": "",
                    "fromAddress": "0xf0155486a14539f784739be1c02e93f28eb8e960",
                    "gasUsed": 585139,
                    "id": 1,
                    "methodDecoded": false,
                    "operation": "DELEGATECALL",
                    "output": "",
                    "revert": false,
                    "revertMessage": "",
                    "selector": "0x5bc20b24",
                    "status": true,
                    "value": "0"
                },
                "nodeType": 0
            },
            "10": {
                "invocation": {
                    "address": "0xfc30a1a7a650d10b20500bc10b06ff8f4b650ad2",
                    "callData": "0x0000000000000000000000000000000000000000000000000000000000000011",
                    "decodedMethod": {
                        "callParams": [
                            {
                                "name": "_record",
                                "type": "uint256",
                                "value": "17"
                            }
                        ],
                        "constructorArguments": "",
                        "name": "getUIntValue",
                        "returnParams": [
                            {
                                "name": "",
                                "type": "uint256",
                                "value": "24"
                            }
                        ],
                        "signature": "getUIntValue(uint256)"
                    },
                    "errorInfo": "",
                    "fromAddress": "0x06a6a7af298129e3a2ab396c9c06f91d3c54aba8",
                    "gasUsed": 588,
                    "id": 10,
                    "methodDecoded": true,
                    "operation": "CALL",
                    "output": "0x0000000000000000000000000000000000000000000000000000000000000018",
                    "revert": false,
                    "revertMessage": "",
                    "selector": "0x64c66395",
                    "status": true,
                    "value": "0"
                },
                "nodeType": 0
            },
            "11": {
                "invocation": {
                    "address": "0xfc30a1a7a650d10b20500bc10b06ff8f4b650ad2",
                    "callData": "0x0000000000000000000000000000000000000000000000000000000000000012",
                    "decodedMethod": {
                        "callParams": [
                            {
                                "name": "_record",
                                "type": "uint256",
                                "value": "18"
                            }
                        ],
                        "constructorArguments": "",
                        "name": "getUIntValue",
                        "returnParams": [
                            {
                                "name": "",
                                "type": "uint256",
                                "value": "200"
                            }
                        ],
                        "signature": "getUIntValue(uint256)"
                    },
                    "errorInfo": "",
                    "fromAddress": "0x06a6a7af298129e3a2ab396c9c06f91d3c54aba8",
                    "gasUsed": 588,
                    "id": 11,
                    "methodDecoded": true,
                    "operation": "CALL",
                    "output": "0x00000000000000000000000000000000000000000000000000000000000000c8",
                    "revert": false,
                    "revertMessage": "",
                    "selector": "0x64c66395",
                    "status": true,
                    "value": "0"
                },
                "nodeType": 0
            },
            "12": {
                "invocation": {
                    "address": "0x06a6a7af298129e3a2ab396c9c06f91d3c54aba8",
                    "callData": "0x0000000000000000000000002bf633dbf9ddb008c0943920c5d2de8f601d517a0000000000000000000000000000000000000000000000000000000000000017000000000000000000000000000000000000000000000000000000000000001a000000000000000000000000000000000000000000000000000000000000000000000000000000000000000000000000000000000000000000000000000000000000000000000000000000000000000000000000000000000000000000000000000000000000000000000000000000000000000000000000000000000000035100000000000000000000000000000000000000000000000000000000000003cc000000000000000000000000000000000000000000000000000000000000000000000000000000000000000000000000000000000000000000000000000000000000000000000000000000000000000000000000000000000000000000000000",
                    "decodedMethod": {
                        "callParams": [
                            {
                                "name": "_owner",
                                "type": "address",
                                "value": "0x2bf633dbf9ddb008c0943920c5d2de8f601d517a"
                            },
                            {
                                "name": "_resourcesId",
                                "type": "uint256[5]",
                                "value": [
                                    "23",
                                    "26",
                                    "0",
                                    "0",
                                    "0"
                                ]
                            },
                            {
                                "name": "_resourcesNeeded",
                                "type": "uint256[5]",
                                "value": [
                                    "849",
                                    "972",
                                    "0",
                                    "0",
                                    "0"
                                ]
                            }
                        ],
                        "constructorArguments": "",
                        "name": "spendResources",
                        "returnParams": [],
                        "signature": "spendResources(address,uint256[5],uint256[5])"
                    },
                    "errorInfo": "",
                    "fromAddress": "0xf0155486a14539f784739be1c02e93f28eb8e960",
                    "gasUsed": 64839,
                    "id": 12,
                    "methodDecoded": true,
                    "operation": "CALL",
                    "output": "",
                    "revert": false,
                    "revertMessage": "",
                    "selector": "0xcd216f0e",
                    "status": true,
                    "value": "0"
                },
                "nodeType": 0
            },
            "13": {
                "invocation": {
                    "address": "0xfc30a1a7a650d10b20500bc10b06ff8f4b650ad2",
                    "callData": "0x0000000000000000000000000000000000000000000000000000000000000022",
                    "decodedMethod": {
                        "callParams": [
                            {
                                "name": "_record",
                                "type": "uint256",
                                "value": "34"
                            }
                        ],
                        "constructorArguments": "",
                        "name": "getUIntValue",
                        "returnParams": [
                            {
                                "name": "",
                                "type": "uint256",
                                "value": "1"
                            }
                        ],
                        "signature": "getUIntValue(uint256)"
                    },
                    "errorInfo": "",
                    "fromAddress": "0x06a6a7af298129e3a2ab396c9c06f91d3c54aba8",
                    "gasUsed": 588,
                    "id": 13,
                    "methodDecoded": true,
                    "operation": "CALL",
                    "output": "0x0000000000000000000000000000000000000000000000000000000000000001",
                    "revert": false,
                    "revertMessage": "",
                    "selector": "0x64c66395",
                    "status": true,
                    "value": "0"
                },
                "nodeType": 0
            },
            "14": {
                "invocation": {
                    "address": "0xfc30a1a7a650d10b20500bc10b06ff8f4b650ad2",
                    "callData": "0x0000000000000000000000000000000000000000000000000000000000000011",
                    "decodedMethod": {
                        "callParams": [
                            {
                                "name": "_record",
                                "type": "uint256",
                                "value": "17"
                            }
                        ],
                        "constructorArguments": "",
                        "name": "getUIntValue",
                        "returnParams": [
                            {
                                "name": "",
                                "type": "uint256",
                                "value": "24"
                            }
                        ],
                        "signature": "getUIntValue(uint256)"
                    },
                    "errorInfo": "",
                    "fromAddress": "0x06a6a7af298129e3a2ab396c9c06f91d3c54aba8",
                    "gasUsed": 588,
                    "id": 14,
                    "methodDecoded": true,
                    "operation": "CALL",
                    "output": "0x0000000000000000000000000000000000000000000000000000000000000018",
                    "revert": false,
                    "revertMessage": "",
                    "selector": "0x64c66395",
                    "status": true,
                    "value": "0"
                },
                "nodeType": 0
            },
            "15": {
                "invocation": {
                    "address": "0xfc30a1a7a650d10b20500bc10b06ff8f4b650ad2",
                    "callData": "0x0000000000000000000000000000000000000000000000000000000000000012",
                    "decodedMethod": {
                        "callParams": [
                            {
                                "name": "_record",
                                "type": "uint256",
                                "value": "18"
                            }
                        ],
                        "constructorArguments": "",
                        "name": "getUIntValue",
                        "returnParams": [
                            {
                                "name": "",
                                "type": "uint256",
                                "value": "200"
                            }
                        ],
                        "signature": "getUIntValue(uint256)"
                    },
                    "errorInfo": "",
                    "fromAddress": "0x06a6a7af298129e3a2ab396c9c06f91d3c54aba8",
                    "gasUsed": 588,
                    "id": 15,
                    "methodDecoded": true,
                    "operation": "CALL",
                    "output": "0x00000000000000000000000000000000000000000000000000000000000000c8",
                    "revert": false,
                    "revertMessage": "",
                    "selector": "0x64c66395",
                    "status": true,
                    "value": "0"
                },
                "nodeType": 0
            },
            "16": {
                "invocation": {
                    "address": "0xfc30a1a7a650d10b20500bc10b06ff8f4b650ad2",
                    "callData": "0x0000000000000000000000000000000000000000000000000000000000000022",
                    "decodedMethod": {
                        "callParams": [
                            {
                                "name": "_record",
                                "type": "uint256",
                                "value": "34"
                            }
                        ],
                        "constructorArguments": "",
                        "name": "getUIntValue",
                        "returnParams": [
                            {
                                "name": "",
                                "type": "uint256",
                                "value": "1"
                            }
                        ],
                        "signature": "getUIntValue(uint256)"
                    },
                    "errorInfo": "",
                    "fromAddress": "0x06a6a7af298129e3a2ab396c9c06f91d3c54aba8",
                    "gasUsed": 588,
                    "id": 16,
                    "methodDecoded": true,
                    "operation": "CALL",
                    "output": "0x0000000000000000000000000000000000000000000000000000000000000001",
                    "revert": false,
                    "revertMessage": "",
                    "selector": "0x64c66395",
                    "status": true,
                    "value": "0"
                },
                "nodeType": 0
            },
            "17": {
                "invocation": {
                    "address": "0xfc30a1a7a650d10b20500bc10b06ff8f4b650ad2",
                    "callData": "0x0000000000000000000000000000000000000000000000000000000000000011",
                    "decodedMethod": {
                        "callParams": [
                            {
                                "name": "_record",
                                "type": "uint256",
                                "value": "17"
                            }
                        ],
                        "constructorArguments": "",
                        "name": "getUIntValue",
                        "returnParams": [
                            {
                                "name": "",
                                "type": "uint256",
                                "value": "24"
                            }
                        ],
                        "signature": "getUIntValue(uint256)"
                    },
                    "errorInfo": "",
                    "fromAddress": "0x06a6a7af298129e3a2ab396c9c06f91d3c54aba8",
                    "gasUsed": 588,
                    "id": 17,
                    "methodDecoded": true,
                    "operation": "CALL",
                    "output": "0x0000000000000000000000000000000000000000000000000000000000000018",
                    "revert": false,
                    "revertMessage": "",
                    "selector": "0x64c66395",
                    "status": true,
                    "value": "0"
                },
                "nodeType": 0
            },
            "18": {
                "invocation": {
                    "address": "0xfc30a1a7a650d10b20500bc10b06ff8f4b650ad2",
                    "callData": "0x0000000000000000000000000000000000000000000000000000000000000012",
                    "decodedMethod": {
                        "callParams": [
                            {
                                "name": "_record",
                                "type": "uint256",
                                "value": "18"
                            }
                        ],
                        "constructorArguments": "",
                        "name": "getUIntValue",
                        "returnParams": [
                            {
                                "name": "",
                                "type": "uint256",
                                "value": "200"
                            }
                        ],
                        "signature": "getUIntValue(uint256)"
                    },
                    "errorInfo": "",
                    "fromAddress": "0x06a6a7af298129e3a2ab396c9c06f91d3c54aba8",
                    "gasUsed": 588,
                    "id": 18,
                    "methodDecoded": true,
                    "operation": "CALL",
                    "output": "0x00000000000000000000000000000000000000000000000000000000000000c8",
                    "revert": false,
                    "revertMessage": "",
                    "selector": "0x64c66395",
                    "status": true,
                    "value": "0"
                },
                "nodeType": 0
            },
            "19": {
                "invocation": {
                    "address": "0xfc30a1a7a650d10b20500bc10b06ff8f4b650ad2",
                    "callData": "0x0000000000000000000000000000000000000000000000000000000000000023",
                    "decodedMethod": {
                        "callParams": [
                            {
                                "name": "_record",
                                "type": "uint256",
                                "value": "35"
                            }
                        ],
                        "constructorArguments": "",
                        "name": "getUIntValue",
                        "returnParams": [
                            {
                                "name": "",
                                "type": "uint256",
                                "value": "150"
                            }
                        ],
                        "signature": "getUIntValue(uint256)"
                    },
                    "errorInfo": "",
                    "fromAddress": "0xf0155486a14539f784739be1c02e93f28eb8e960",
                    "gasUsed": 588,
                    "id": 19,
                    "methodDecoded": true,
                    "operation": "CALL",
                    "output": "0x0000000000000000000000000000000000000000000000000000000000000096",
                    "revert": false,
                    "revertMessage": "",
                    "selector": "0x64c66395",
                    "status": true,
                    "value": "0"
                },
                "nodeType": 0
            },
            "2": {
                "invocation": {
                    "address": "0xfc30a1a7a650d10b20500bc10b06ff8f4b650ad2",
                    "callData": "0x0000000000000000000000000000000000000000000000000000000000000027",
                    "decodedMethod": {
                        "callParams": [
                            {
                                "name": "_record",
                                "type": "uint256",
                                "value": "39"
                            }
                        ],
                        "constructorArguments": "",
                        "name": "getUIntValue",
                        "returnParams": [
                            {
                                "name": "",
                                "type": "uint256",
                                "value": "10"
                            }
                        ],
                        "signature": "getUIntValue(uint256)"
                    },
                    "errorInfo": "",
                    "fromAddress": "0xf0155486a14539f784739be1c02e93f28eb8e960",
                    "gasUsed": 588,
                    "id": 2,
                    "methodDecoded": true,
                    "operation": "CALL",
                    "output": "0x000000000000000000000000000000000000000000000000000000000000000a",
                    "revert": false,
                    "revertMessage": "",
                    "selector": "0x64c66395",
                    "status": true,
                    "value": "0"
                },
                "nodeType": 0
            },
            "20": {
                "invocation": {
                    "address": "0x2de440a27d6f4b525d19154dcd0c8d02955585df",
                    "callData": "0x0000000000000000000000002bf633dbf9ddb008c0943920c5d2de8f601d517a00000000000000000000000000000000000000000000000000000000000000090000000000000000000000000000000000000000000000000000000000000017000000000000000000000000000000000000000000000000000000000000001a00000000000000000000000000000000000000000000000000000000000000000000000000000000000000000000000000000000000000000000000000000000000000000000000000000000000000000000000000000000000000000000000000000000000000000000000000000000000000000000000000000000000004fa00000000000000000000000000000000000000000000000000000000000005b2000000000000000000000000000000000000000000000000000000000000000000000000000000000000000000000000000000000000000000000000000000000000000000000000000000000000000000000000000000000000000000000000",
                    "decodedMethod": null,
                    "errorInfo": "",
                    "fromAddress": "0xf0155486a14539f784739be1c02e93f28eb8e960",
                    "gasUsed": 11947,
                    "id": 20,
                    "methodDecoded": false,
                    "operation": "CALL",
                    "output": "",
                    "revert": false,
                    "revertMessage": "",
                    "selector": "0xf1982b8f",
                    "status": true,
                    "value": "0"
                },
                "nodeType": 0
            },
            "21": {
                "event": {
                    "contract": "0xf0155486a14539f784739be1c02e93f28eb8e960",
                    "decodedLog": null,
                    "id": 21,
                    "logData": "0x0000000000000000000000000000000000000000000000000000000000000017000000000000000000000000000000000000000000000000000000000000001a00000000000000000000000000000000000000000000000000000000000000000000000000000000000000000000000000000000000000000000000000000000000000000000000000000000000000000000000000000000000000000000000000000000000000000000000000000000000000000000000000000000000004fa00000000000000000000000000000000000000000000000000000000000005b2000000000000000000000000000000000000000000000000000000000000000000000000000000000000000000000000000000000000000000000000000000000000000000000000000000000000000000000000000000000000000000000000",
                    "logDecoded": false,
                    "operation": "EVENT",
                    "revert": false,
                    "status": true,
                    "topics": [
                        "0x2e51558d39b69d76740586d9696240e618222247ce2e77da8a19403029e1b476",
                        "0x0000000000000000000000002bf633dbf9ddb008c0943920c5d2de8f601d517a",
                        "0x0000000000000000000000000000000000000000000000000000000000000009",
                        "0x000000000000000000000000000000000000000000000000000000000002ac49"
                    ]
                },
                "nodeType": 1
            },
            "22": {
                "invocation": {
                    "address": "0x06a6a7af298129e3a2ab396c9c06f91d3c54aba8",
                    "callData": "0x0000000000000000000000000000000000000000000000000000000000000000000000000000000000000000000000000000000000000000000000000000001e",
                    "decodedMethod": {
                        "callParams": [
                            {
                                "name": "sectorX",
                                "type": "uint256",
                                "value": "0"
                            },
                            {
                                "name": "sectorY",
                                "type": "uint256",
                                "value": "30"
                            }
                        ],
                        "constructorArguments": "",
                        "name": "getDiscoveredPlanetsDensity",
                        "returnParams": [
                            {
                                "name": "",
                                "type": "uint256",
                                "value": "77"
                            }
                        ],
                        "signature": "getDiscoveredPlanetsDensity(uint256,uint256)"
                    },
                    "errorInfo": "",
                    "fromAddress": "0xf0155486a14539f784739be1c02e93f28eb8e960",
                    "gasUsed": 1276,
                    "id": 22,
                    "methodDecoded": true,
                    "operation": "CALL",
                    "output": "0x000000000000000000000000000000000000000000000000000000000000004d",
                    "revert": false,
                    "revertMessage": "",
                    "selector": "0x672815c2",
                    "status": true,
                    "value": "0"
                },
                "nodeType": 0
            },
            "23": {
                "invocation": {
                    "address": "0x06a6a7af298129e3a2ab396c9c06f91d3c54aba8",
                    "callData": "0x0000000000000000000000000000000000000000000000000000000000000000000000000000000000000000000000000000000000000000000000000000001d",
                    "decodedMethod": {
                        "callParams": [
                            {
                                "name": "sectorX",
                                "type": "uint256",
                                "value": "0"
                            },
                            {
                                "name": "sectorY",
                                "type": "uint256",
                                "value": "29"
                            }
                        ],
                        "constructorArguments": "",
                        "name": "getDiscoveredPlanetsDensity",
                        "returnParams": [
                            {
                                "name": "",
                                "type": "uint256",
                                "value": "77"
                            }
                        ],
                        "signature": "getDiscoveredPlanetsDensity(uint256,uint256)"
                    },
                    "errorInfo": "",
                    "fromAddress": "0xf0155486a14539f784739be1c02e93f28eb8e960",
                    "gasUsed": 1276,
                    "id": 23,
                    "methodDecoded": true,
                    "operation": "CALL",
                    "output": "0x000000000000000000000000000000000000000000000000000000000000004d",
                    "revert": false,
                    "revertMessage": "",
                    "selector": "0x672815c2",
                    "status": true,
                    "value": "0"
                },
                "nodeType": 0
            },
            "24": {
                "invocation": {
                    "address": "0x06a6a7af298129e3a2ab396c9c06f91d3c54aba8",
                    "callData": "0x0000000000000000000000000000000000000000000000000000000000000002000000000000000000000000000000000000000000000000000000000000001f",
                    "decodedMethod": {
                        "callParams": [
                            {
                                "name": "sectorX",
                                "type": "uint256",
                                "value": "2"
                            },
                            {
                                "name": "sectorY",
                                "type": "uint256",
                                "value": "31"
                            }
                        ],
                        "constructorArguments": "",
                        "name": "getDiscoveredPlanetsDensity",
                        "returnParams": [
                            {
                                "name": "",
                                "type": "uint256",
                                "value": "78"
                            }
                        ],
                        "signature": "getDiscoveredPlanetsDensity(uint256,uint256)"
                    },
                    "errorInfo": "",
                    "fromAddress": "0xf0155486a14539f784739be1c02e93f28eb8e960",
                    "gasUsed": 1276,
                    "id": 24,
                    "methodDecoded": true,
                    "operation": "CALL",
                    "output": "0x000000000000000000000000000000000000000000000000000000000000004e",
                    "revert": false,
                    "revertMessage": "",
                    "selector": "0x672815c2",
                    "status": true,
                    "value": "0"
                },
                "nodeType": 0
            },
            "25": {
                "invocation": {
                    "address": "0x06a6a7af298129e3a2ab396c9c06f91d3c54aba8",
                    "callData": "0x0000000000000000000000000000000000000000000000000000000000000000000000000000000000000000000000000000000000000000000000000000001d",
                    "decodedMethod": {
                        "callParams": [
                            {
                                "name": "sectorX",
                                "type": "uint256",
                                "value": "0"
                            },
                            {
                                "name": "sectorY",
                                "type": "uint256",
                                "value": "29"
                            }
                        ],
                        "constructorArguments": "",
                        "name": "getDiscoveredPlanetsDensity",
                        "returnParams": [
                            {
                                "name": "",
                                "type": "uint256",
                                "value": "77"
                            }
                        ],
                        "signature": "getDiscoveredPlanetsDensity(uint256,uint256)"
                    },
                    "errorInfo": "",
                    "fromAddress": "0xf0155486a14539f784739be1c02e93f28eb8e960",
                    "gasUsed": 1276,
                    "id": 25,
                    "methodDecoded": true,
                    "operation": "CALL",
                    "output": "0x000000000000000000000000000000000000000000000000000000000000004d",
                    "revert": false,
                    "revertMessage": "",
                    "selector": "0x672815c2",
                    "status": true,
                    "value": "0"
                },
                "nodeType": 0
            },
            "26": {
                "invocation": {
                    "address": "0x06a6a7af298129e3a2ab396c9c06f91d3c54aba8",
                    "callData": "0x0000000000000000000000000000000000000000000000000000000000000001000000000000000000000000000000000000000000000000000000000000001d",
                    "decodedMethod": {
                        "callParams": [
                            {
                                "name": "sectorX",
                                "type": "uint256",
                                "value": "1"
                            },
                            {
                                "name": "sectorY",
                                "type": "uint256",
                                "value": "29"
                            }
                        ],
                        "constructorArguments": "",
                        "name": "getDiscoveredPlanetsDensity",
                        "returnParams": [
                            {
                                "name": "",
                                "type": "uint256",
                                "value": "78"
                            }
                        ],
                        "signature": "getDiscoveredPlanetsDensity(uint256,uint256)"
                    },
                    "errorInfo": "",
                    "fromAddress": "0xf0155486a14539f784739be1c02e93f28eb8e960",
                    "gasUsed": 1276,
                    "id": 26,
                    "methodDecoded": true,
                    "operation": "CALL",
                    "output": "0x000000000000000000000000000000000000000000000000000000000000004e",
                    "revert": false,
                    "revertMessage": "",
                    "selector": "0x672815c2",
                    "status": true,
                    "value": "0"
                },
                "nodeType": 0
            },
            "27": {
                "invocation": {
                    "address": "0x06a6a7af298129e3a2ab396c9c06f91d3c54aba8",
                    "callData": "0x0000000000000000000000000000000000000000000000000000000000000002000000000000000000000000000000000000000000000000000000000000001f",
                    "decodedMethod": {
                        "callParams": [
                            {
                                "name": "sectorX",
                                "type": "uint256",
                                "value": "2"
                            },
                            {
                                "name": "sectorY",
                                "type": "uint256",
                                "value": "31"
                            }
                        ],
                        "constructorArguments": "",
                        "name": "getDiscoveredPlanetsDensity",
                        "returnParams": [
                            {
                                "name": "",
                                "type": "uint256",
                                "value": "78"
                            }
                        ],
                        "signature": "getDiscoveredPlanetsDensity(uint256,uint256)"
                    },
                    "errorInfo": "",
                    "fromAddress": "0xf0155486a14539f784739be1c02e93f28eb8e960",
                    "gasUsed": 1276,
                    "id": 27,
                    "methodDecoded": true,
                    "operation": "CALL",
                    "output": "0x000000000000000000000000000000000000000000000000000000000000004e",
                    "revert": false,
                    "revertMessage": "",
                    "selector": "0x672815c2",
                    "status": true,
                    "value": "0"
                },
                "nodeType": 0
            },
            "28": {
                "invocation": {
                    "address": "0x06a6a7af298129e3a2ab396c9c06f91d3c54aba8",
                    "callData": "0x0000000000000000000000000000000000000000000000000000000000000001000000000000000000000000000000000000000000000000000000000000001e",
                    "decodedMethod": {
                        "callParams": [
                            {
                                "name": "sectorX",
                                "type": "uint256",
                                "value": "1"
                            },
                            {
                                "name": "sectorY",
                                "type": "uint256",
                                "value": "30"
                            }
                        ],
                        "constructorArguments": "",
                        "name": "getDiscoveredPlanetsDensity",
                        "returnParams": [
                            {
                                "name": "",
                                "type": "uint256",
                                "value": "78"
                            }
                        ],
                        "signature": "getDiscoveredPlanetsDensity(uint256,uint256)"
                    },
                    "errorInfo": "",
                    "fromAddress": "0xf0155486a14539f784739be1c02e93f28eb8e960",
                    "gasUsed": 1276,
                    "id": 28,
                    "methodDecoded": true,
                    "operation": "CALL",
                    "output": "0x000000000000000000000000000000000000000000000000000000000000004e",
                    "revert": false,
                    "revertMessage": "",
                    "selector": "0x672815c2",
                    "status": true,
                    "value": "0"
                },
                "nodeType": 0
            },
            "29": {
                "invocation": {
                    "address": "0x06a6a7af298129e3a2ab396c9c06f91d3c54aba8",
                    "callData": "0x0000000000000000000000000000000000000000000000000000000000000002000000000000000000000000000000000000000000000000000000000000001f",
                    "decodedMethod": {
                        "callParams": [
                            {
                                "name": "sectorX",
                                "type": "uint256",
                                "value": "2"
                            },
                            {
                                "name": "sectorY",
                                "type": "uint256",
                                "value": "31"
                            }
                        ],
                        "constructorArguments": "",
                        "name": "getDiscoveredPlanetsDensity",
                        "returnParams": [
                            {
                                "name": "",
                                "type": "uint256",
                                "value": "78"
                            }
                        ],
                        "signature": "getDiscoveredPlanetsDensity(uint256,uint256)"
                    },
                    "errorInfo": "",
                    "fromAddress": "0xf0155486a14539f784739be1c02e93f28eb8e960",
                    "gasUsed": 1276,
                    "id": 29,
                    "methodDecoded": true,
                    "operation": "CALL",
                    "output": "0x000000000000000000000000000000000000000000000000000000000000004e",
                    "revert": false,
                    "revertMessage": "",
                    "selector": "0x672815c2",
                    "status": true,
                    "value": "0"
                },
                "nodeType": 0
            },
            "3": {
                "invocation": {
                    "address": "0xfc30a1a7a650d10b20500bc10b06ff8f4b650ad2",
                    "callData": "0x",
                    "decodedMethod": null,
                    "errorInfo": "",
                    "fromAddress": "0xf0155486a14539f784739be1c02e93f28eb8e960",
                    "gasUsed": 495,
                    "id": 3,
                    "methodDecoded": false,
                    "operation": "CALL",
                    "output": "0x0000000000000000000000000000000000000000000000000000000000000001",
                    "revert": false,
                    "revertMessage": "",
                    "selector": "0x55909f87",
                    "status": true,
                    "value": "0"
                },
                "nodeType": 0
            },
            "30": {
                "invocation": {
                    "address": "0x06a6a7af298129e3a2ab396c9c06f91d3c54aba8",
                    "callData": "0x0000000000000000000000000000000000000000000000000000000000000001000000000000000000000000000000000000000000000000000000000000001f",
                    "decodedMethod": {
                        "callParams": [
                            {
                                "name": "sectorX",
                                "type": "uint256",
                                "value": "1"
                            },
                            {
                                "name": "sectorY",
                                "type": "uint256",
                                "value": "31"
                            }
                        ],
                        "constructorArguments": "",
                        "name": "getDiscoveredPlanetsDensity",
                        "returnParams": [
                            {
                                "name": "",
                                "type": "uint256",
                                "value": "78"
                            }
                        ],
                        "signature": "getDiscoveredPlanetsDensity(uint256,uint256)"
                    },
                    "errorInfo": "",
                    "fromAddress": "0xf0155486a14539f784739be1c02e93f28eb8e960",
                    "gasUsed": 1276,
                    "id": 30,
                    "methodDecoded": true,
                    "operation": "CALL",
                    "output": "0x000000000000000000000000000000000000000000000000000000000000004e",
                    "revert": false,
                    "revertMessage": "",
                    "selector": "0x672815c2",
                    "status": true,
                    "value": "0"
                },
                "nodeType": 0
            },
            "31": {
                "invocation": {
                    "address": "0x06a6a7af298129e3a2ab396c9c06f91d3c54aba8",
                    "callData": "0x0000000000000000000000000000000000000000000000000000000000000002000000000000000000000000000000000000000000000000000000000000001f",
                    "decodedMethod": {
                        "callParams": [
                            {
                                "name": "sectorX",
                                "type": "uint256",
                                "value": "2"
                            },
                            {
                                "name": "sectorY",
                                "type": "uint256",
                                "value": "31"
                            }
                        ],
                        "constructorArguments": "",
                        "name": "getDiscoveredPlanetsDensity",
                        "returnParams": [
                            {
                                "name": "",
                                "type": "uint256",
                                "value": "78"
                            }
                        ],
                        "signature": "getDiscoveredPlanetsDensity(uint256,uint256)"
                    },
                    "errorInfo": "",
                    "fromAddress": "0xf0155486a14539f784739be1c02e93f28eb8e960",
                    "gasUsed": 1276,
                    "id": 31,
                    "methodDecoded": true,
                    "operation": "CALL",
                    "output": "0x000000000000000000000000000000000000000000000000000000000000004e",
                    "revert": false,
                    "revertMessage": "",
                    "selector": "0x672815c2",
                    "status": true,
                    "value": "0"
                },
                "nodeType": 0
            },
            "32": {
                "invocation": {
                    "address": "0x06a6a7af298129e3a2ab396c9c06f91d3c54aba8",
                    "callData": "0x0000000000000000000000000000000000000000000000000000000000000002000000000000000000000000000000000000000000000000000000000000001d",
                    "decodedMethod": {
                        "callParams": [
                            {
                                "name": "sectorX",
                                "type": "uint256",
                                "value": "2"
                            },
                            {
                                "name": "sectorY",
                                "type": "uint256",
                                "value": "29"
                            }
                        ],
                        "constructorArguments": "",
                        "name": "getDiscoveredPlanetsDensity",
                        "returnParams": [
                            {
                                "name": "",
                                "type": "uint256",
                                "value": "77"
                            }
                        ],
                        "signature": "getDiscoveredPlanetsDensity(uint256,uint256)"
                    },
                    "errorInfo": "",
                    "fromAddress": "0xf0155486a14539f784739be1c02e93f28eb8e960",
                    "gasUsed": 1276,
                    "id": 32,
                    "methodDecoded": true,
                    "operation": "CALL",
                    "output": "0x000000000000000000000000000000000000000000000000000000000000004d",
                    "revert": false,
                    "revertMessage": "",
                    "selector": "0x672815c2",
                    "status": true,
                    "value": "0"
                },
                "nodeType": 0
            },
            "33": {
                "invocation": {
                    "address": "0x06a6a7af298129e3a2ab396c9c06f91d3c54aba8",
                    "callData": "0x0000000000000000000000000000000000000000000000000000000000000002000000000000000000000000000000000000000000000000000000000000001f",
                    "decodedMethod": {
                        "callParams": [
                            {
                                "name": "sectorX",
                                "type": "uint256",
                                "value": "2"
                            },
                            {
                                "name": "sectorY",
                                "type": "uint256",
                                "value": "31"
                            }
                        ],
                        "constructorArguments": "",
                        "name": "getDiscoveredPlanetsDensity",
                        "returnParams": [
                            {
                                "name": "",
                                "type": "uint256",
                                "value": "78"
                            }
                        ],
                        "signature": "getDiscoveredPlanetsDensity(uint256,uint256)"
                    },
                    "errorInfo": "",
                    "fromAddress": "0xf0155486a14539f784739be1c02e93f28eb8e960",
                    "gasUsed": 1276,
                    "id": 33,
                    "methodDecoded": true,
                    "operation": "CALL",
                    "output": "0x000000000000000000000000000000000000000000000000000000000000004e",
                    "revert": false,
                    "revertMessage": "",
                    "selector": "0x672815c2",
                    "status": true,
                    "value": "0"
                },
                "nodeType": 0
            },
            "34": {
                "invocation": {
                    "address": "0x06a6a7af298129e3a2ab396c9c06f91d3c54aba8",
                    "callData": "0x0000000000000000000000000000000000000000000000000000000000000002000000000000000000000000000000000000000000000000000000000000001e",
                    "decodedMethod": {
                        "callParams": [
                            {
                                "name": "sectorX",
                                "type": "uint256",
                                "value": "2"
                            },
                            {
                                "name": "sectorY",
                                "type": "uint256",
                                "value": "30"
                            }
                        ],
                        "constructorArguments": "",
                        "name": "getDiscoveredPlanetsDensity",
                        "returnParams": [
                            {
                                "name": "",
                                "type": "uint256",
                                "value": "78"
                            }
                        ],
                        "signature": "getDiscoveredPlanetsDensity(uint256,uint256)"
                    },
                    "errorInfo": "",
                    "fromAddress": "0xf0155486a14539f784739be1c02e93f28eb8e960",
                    "gasUsed": 1276,
                    "id": 34,
                    "methodDecoded": true,
                    "operation": "CALL",
                    "output": "0x000000000000000000000000000000000000000000000000000000000000004e",
                    "revert": false,
                    "revertMessage": "",
                    "selector": "0x672815c2",
                    "status": true,
                    "value": "0"
                },
                "nodeType": 0
            },
            "35": {
                "invocation": {
                    "address": "0x06a6a7af298129e3a2ab396c9c06f91d3c54aba8",
                    "callData": "0x0000000000000000000000000000000000000000000000000000000000000002000000000000000000000000000000000000000000000000000000000000001f",
                    "decodedMethod": {
                        "callParams": [
                            {
                                "name": "sectorX",
                                "type": "uint256",
                                "value": "2"
                            },
                            {
                                "name": "sectorY",
                                "type": "uint256",
                                "value": "31"
                            }
                        ],
                        "constructorArguments": "",
                        "name": "getDiscoveredPlanetsDensity",
                        "returnParams": [
                            {
                                "name": "",
                                "type": "uint256",
                                "value": "78"
                            }
                        ],
                        "signature": "getDiscoveredPlanetsDensity(uint256,uint256)"
                    },
                    "errorInfo": "",
                    "fromAddress": "0xf0155486a14539f784739be1c02e93f28eb8e960",
                    "gasUsed": 1276,
                    "id": 35,
                    "methodDecoded": true,
                    "operation": "CALL",
                    "output": "0x000000000000000000000000000000000000000000000000000000000000004e",
                    "revert": false,
                    "revertMessage": "",
                    "selector": "0x672815c2",
                    "status": true,
                    "value": "0"
                },
                "nodeType": 0
            },
            "36": {
                "invocation": {
                    "address": "0xfc30a1a7a650d10b20500bc10b06ff8f4b650ad2",
                    "callData": "0x000000000000000000000000000000000000000000000000000000000000002a",
                    "decodedMethod": {
                        "callParams": [
                            {
                                "name": "_record",
                                "type": "uint256",
                                "value": "42"
                            }
                        ],
                        "constructorArguments": "",
                        "name": "getUIntValue",
                        "returnParams": [
                            {
                                "name": "",
                                "type": "uint256",
                                "value": "30"
                            }
                        ],
                        "signature": "getUIntValue(uint256)"
                    },
                    "errorInfo": "",
                    "fromAddress": "0xf0155486a14539f784739be1c02e93f28eb8e960",
                    "gasUsed": 588,
                    "id": 36,
                    "methodDecoded": true,
                    "operation": "CALL",
                    "output": "0x000000000000000000000000000000000000000000000000000000000000001e",
                    "revert": false,
                    "revertMessage": "",
                    "selector": "0x64c66395",
                    "status": true,
                    "value": "0"
                },
                "nodeType": 0
            },
            "37": {
                "invocation": {
                    "address": "0xfc30a1a7a650d10b20500bc10b06ff8f4b650ad2",
                    "callData": "0x000000000000000000000000000000000000000000000000000000000000000c",
                    "decodedMethod": {
                        "callParams": [
                            {
                                "name": "_record",
                                "type": "uint256",
                                "value": "12"
                            }
                        ],
                        "constructorArguments": "",
                        "name": "getUIntValue",
                        "returnParams": [
                            {
                                "name": "",
                                "type": "uint256",
                                "value": "10"
                            }
                        ],
                        "signature": "getUIntValue(uint256)"
                    },
                    "errorInfo": "",
                    "fromAddress": "0xf0155486a14539f784739be1c02e93f28eb8e960",
                    "gasUsed": 588,
                    "id": 37,
                    "methodDecoded": true,
                    "operation": "CALL",
                    "output": "0x000000000000000000000000000000000000000000000000000000000000000a",
                    "revert": false,
                    "revertMessage": "",
                    "selector": "0x64c66395",
                    "status": true,
                    "value": "0"
                },
                "nodeType": 0
            },
            "38": {
                "invocation": {
                    "address": "0x06a6a7af298129e3a2ab396c9c06f91d3c54aba8",
                    "callData": "0x0000000000000000000000000000000000000000000000000000000000000002000000000000000000000000000000000000000000000000000000000000001f",
                    "decodedMethod": {
                        "callParams": [
                            {
                                "name": "sectorX",
                                "type": "uint256",
                                "value": "2"
                            },
                            {
                                "name": "sectorY",
                                "type": "uint256",
                                "value": "31"
                            }
                        ],
                        "constructorArguments": "",
                        "name": "getDiscoveredPlanetsDensity",
                        "returnParams": [
                            {
                                "name": "",
                                "type": "uint256",
                                "value": "78"
                            }
                        ],
                        "signature": "getDiscoveredPlanetsDensity(uint256,uint256)"
                    },
                    "errorInfo": "",
                    "fromAddress": "0xf0155486a14539f784739be1c02e93f28eb8e960",
                    "gasUsed": 1276,
                    "id": 38,
                    "methodDecoded": true,
                    "operation": "CALL",
                    "output": "0x000000000000000000000000000000000000000000000000000000000000004e",
                    "revert": false,
                    "revertMessage": "",
                    "selector": "0x672815c2",
                    "status": true,
                    "value": "0"
                },
                "nodeType": 0
            },
            "39": {
                "invocation": {
                    "address": "0x06a6a7af298129e3a2ab396c9c06f91d3c54aba8",
                    "callData": "0x0000000000000000000000000000000000000000000000000000000000000000000000000000000000000000000000000000000000000000000000000000001d",
                    "decodedMethod": {
                        "callParams": [
                            {
                                "name": "sectorX",
                                "type": "uint256",
                                "value": "0"
                            },
                            {
                                "name": "sectorY",
                                "type": "uint256",
                                "value": "29"
                            }
                        ],
                        "constructorArguments": "",
                        "name": "getDiscoveredPlanetsDensity",
                        "returnParams": [
                            {
                                "name": "",
                                "type": "uint256",
                                "value": "77"
                            }
                        ],
                        "signature": "getDiscoveredPlanetsDensity(uint256,uint256)"
                    },
                    "errorInfo": "",
                    "fromAddress": "0xf0155486a14539f784739be1c02e93f28eb8e960",
                    "gasUsed": 1276,
                    "id": 39,
                    "methodDecoded": true,
                    "operation": "CALL",
                    "output": "0x000000000000000000000000000000000000000000000000000000000000004d",
                    "revert": false,
                    "revertMessage": "",
                    "selector": "0x672815c2",
                    "status": true,
                    "value": "0"
                },
                "nodeType": 0
            },
            "4": {
                "invocation": {
                    "address": "0xe658e6eb4b478da2cf36d9e3712ba0c1b33786a1",
                    "callData": "0x0000000000000000000000002bf633dbf9ddb008c0943920c5d2de8f601d517a000000000000000000000000000000000000000000000000000000000000000a",
                    "decodedMethod": null,
                    "errorInfo": "",
                    "fromAddress": "0xf0155486a14539f784739be1c02e93f28eb8e960",
                    "gasUsed": 1646,
                    "id": 4,
                    "methodDecoded": false,
                    "operation": "CALL",
                    "output": "",
                    "revert": false,
                    "revertMessage": "",
                    "selector": "0x9adbf583",
                    "status": true,
                    "value": "0"
                },
                "nodeType": 0
            },
            "40": {
                "invocation": {
                    "address": "0x06a6a7af298129e3a2ab396c9c06f91d3c54aba8",
                    "callData": "0x0000000000000000000000000000000000000000000000000000000000000000000000000000000000000000000000000000000000000000000000000000001e",
                    "decodedMethod": {
                        "callParams": [
                            {
                                "name": "sectorX",
                                "type": "uint256",
                                "value": "0"
                            },
                            {
                                "name": "sectorY",
                                "type": "uint256",
                                "value": "30"
                            }
                        ],
                        "constructorArguments": "",
                        "name": "getDiscoveredPlanetsDensity",
                        "returnParams": [
                            {
                                "name": "",
                                "type": "uint256",
                                "value": "77"
                            }
                        ],
                        "signature": "getDiscoveredPlanetsDensity(uint256,uint256)"
                    },
                    "errorInfo": "",
                    "fromAddress": "0xf0155486a14539f784739be1c02e93f28eb8e960",
                    "gasUsed": 1276,
                    "id": 40,
                    "methodDecoded": true,
                    "operation": "CALL",
                    "output": "0x000000000000000000000000000000000000000000000000000000000000004d",
                    "revert": false,
                    "revertMessage": "",
                    "selector": "0x672815c2",
                    "status": true,
                    "value": "0"
                },
                "nodeType": 0
            },
            "41": {
                "invocation": {
                    "address": "0x06a6a7af298129e3a2ab396c9c06f91d3c54aba8",
                    "callData": "0x0000000000000000000000000000000000000000000000000000000000000002000000000000000000000000000000000000000000000000000000000000001e",
                    "decodedMethod": {
                        "callParams": [
                            {
                                "name": "sectorX",
                                "type": "uint256",
                                "value": "2"
                            },
                            {
                                "name": "sectorY",
                                "type": "uint256",
                                "value": "30"
                            }
                        ],
                        "constructorArguments": "",
                        "name": "getDiscoveredPlanetsDensity",
                        "returnParams": [
                            {
                                "name": "",
                                "type": "uint256",
                                "value": "78"
                            }
                        ],
                        "signature": "getDiscoveredPlanetsDensity(uint256,uint256)"
                    },
                    "errorInfo": "",
                    "fromAddress": "0xf0155486a14539f784739be1c02e93f28eb8e960",
                    "gasUsed": 1276,
                    "id": 41,
                    "methodDecoded": true,
                    "operation": "CALL",
                    "output": "0x000000000000000000000000000000000000000000000000000000000000004e",
                    "revert": false,
                    "revertMessage": "",
                    "selector": "0x672815c2",
                    "status": true,
                    "value": "0"
                },
                "nodeType": 0
            },
            "42": {
                "invocation": {
                    "address": "0x06a6a7af298129e3a2ab396c9c06f91d3c54aba8",
                    "callData": "0x0000000000000000000000000000000000000000000000000000000000000001000000000000000000000000000000000000000000000000000000000000001d",
                    "decodedMethod": {
                        "callParams": [
                            {
                                "name": "sectorX",
                                "type": "uint256",
                                "value": "1"
                            },
                            {
                                "name": "sectorY",
                                "type": "uint256",
                                "value": "29"
                            }
                        ],
                        "constructorArguments": "",
                        "name": "getDiscoveredPlanetsDensity",
                        "returnParams": [
                            {
                                "name": "",
                                "type": "uint256",
                                "value": "78"
                            }
                        ],
                        "signature": "getDiscoveredPlanetsDensity(uint256,uint256)"
                    },
                    "errorInfo": "",
                    "fromAddress": "0xf0155486a14539f784739be1c02e93f28eb8e960",
                    "gasUsed": 1276,
                    "id": 42,
                    "methodDecoded": true,
                    "operation": "CALL",
                    "output": "0x000000000000000000000000000000000000000000000000000000000000004e",
                    "revert": false,
                    "revertMessage": "",
                    "selector": "0x672815c2",
                    "status": true,
                    "value": "0"
                },
                "nodeType": 0
            },
            "43": {
                "invocation": {
                    "address": "0x06a6a7af298129e3a2ab396c9c06f91d3c54aba8",
                    "callData": "0x0000000000000000000000000000000000000000000000000000000000000001000000000000000000000000000000000000000000000000000000000000001e",
                    "decodedMethod": {
                        "callParams": [
                            {
                                "name": "sectorX",
                                "type": "uint256",
                                "value": "1"
                            },
                            {
                                "name": "sectorY",
                                "type": "uint256",
                                "value": "30"
                            }
                        ],
                        "constructorArguments": "",
                        "name": "getDiscoveredPlanetsDensity",
                        "returnParams": [
                            {
                                "name": "",
                                "type": "uint256",
                                "value": "78"
                            }
                        ],
                        "signature": "getDiscoveredPlanetsDensity(uint256,uint256)"
                    },
                    "errorInfo": "",
                    "fromAddress": "0xf0155486a14539f784739be1c02e93f28eb8e960",
                    "gasUsed": 1276,
                    "id": 43,
                    "methodDecoded": true,
                    "operation": "CALL",
                    "output": "0x000000000000000000000000000000000000000000000000000000000000004e",
                    "revert": false,
                    "revertMessage": "",
                    "selector": "0x672815c2",
                    "status": true,
                    "value": "0"
                },
                "nodeType": 0
            },
            "44": {
                "invocation": {
                    "address": "0x06a6a7af298129e3a2ab396c9c06f91d3c54aba8",
                    "callData": "0x0000000000000000000000000000000000000000000000000000000000000001000000000000000000000000000000000000000000000000000000000000001f",
                    "decodedMethod": {
                        "callParams": [
                            {
                                "name": "sectorX",
                                "type": "uint256",
                                "value": "1"
                            },
                            {
                                "name": "sectorY",
                                "type": "uint256",
                                "value": "31"
                            }
                        ],
                        "constructorArguments": "",
                        "name": "getDiscoveredPlanetsDensity",
                        "returnParams": [
                            {
                                "name": "",
                                "type": "uint256",
                                "value": "78"
                            }
                        ],
                        "signature": "getDiscoveredPlanetsDensity(uint256,uint256)"
                    },
                    "errorInfo": "",
                    "fromAddress": "0xf0155486a14539f784739be1c02e93f28eb8e960",
                    "gasUsed": 1276,
                    "id": 44,
                    "methodDecoded": true,
                    "operation": "CALL",
                    "output": "0x000000000000000000000000000000000000000000000000000000000000004e",
                    "revert": false,
                    "revertMessage": "",
                    "selector": "0x672815c2",
                    "status": true,
                    "value": "0"
                },
                "nodeType": 0
            },
            "45": {
                "invocation": {
                    "address": "0x06a6a7af298129e3a2ab396c9c06f91d3c54aba8",
                    "callData": "0x0000000000000000000000000000000000000000000000000000000000000002000000000000000000000000000000000000000000000000000000000000001d",
                    "decodedMethod": {
                        "callParams": [
                            {
                                "name": "sectorX",
                                "type": "uint256",
                                "value": "2"
                            },
                            {
                                "name": "sectorY",
                                "type": "uint256",
                                "value": "29"
                            }
                        ],
                        "constructorArguments": "",
                        "name": "getDiscoveredPlanetsDensity",
                        "returnParams": [
                            {
                                "name": "",
                                "type": "uint256",
                                "value": "77"
                            }
                        ],
                        "signature": "getDiscoveredPlanetsDensity(uint256,uint256)"
                    },
                    "errorInfo": "",
                    "fromAddress": "0xf0155486a14539f784739be1c02e93f28eb8e960",
                    "gasUsed": 1276,
                    "id": 45,
                    "methodDecoded": true,
                    "operation": "CALL",
                    "output": "0x000000000000000000000000000000000000000000000000000000000000004d",
                    "revert": false,
                    "revertMessage": "",
                    "selector": "0x672815c2",
                    "status": true,
                    "value": "0"
                },
                "nodeType": 0
            },
            "46": {
                "invocation": {
                    "address": "0xfc30a1a7a650d10b20500bc10b06ff8f4b650ad2",
                    "callData": "0x0000000000000000000000000000000000000000000000000000000000000008",
                    "decodedMethod": null,
                    "errorInfo": "",
                    "fromAddress": "0xf0155486a14539f784739be1c02e93f28eb8e960",
                    "gasUsed": 1788,
                    "id": 46,
                    "methodDecoded": false,
                    "operation": "CALL",
                    "output": "0x000000000000000000000000000000000000000000000000000000000000004600000000000000000000000000000000000000000000000000000000000000640000000000000000000000000000000000000000000000000000000000000082",
                    "revert": false,
                    "revertMessage": "",
                    "selector": "0xe4c5efe9",
                    "status": true,
                    "value": "0"
                },
                "nodeType": 0
            },
            "47": {
                "invocation": {
                    "address": "0xfc30a1a7a650d10b20500bc10b06ff8f4b650ad2",
                    "callData": "0x0000000000000000000000000000000000000000000000000000000000000028",
                    "decodedMethod": {
                        "callParams": [
                            {
                                "name": "_record",
                                "type": "uint256",
                                "value": "40"
                            }
                        ],
                        "constructorArguments": "",
                        "name": "getUIntValue",
                        "returnParams": [
                            {
                                "name": "",
                                "type": "uint256",
                                "value": "7"
                            }
                        ],
                        "signature": "getUIntValue(uint256)"
                    },
                    "errorInfo": "",
                    "fromAddress": "0xf0155486a14539f784739be1c02e93f28eb8e960",
                    "gasUsed": 588,
                    "id": 47,
                    "methodDecoded": true,
                    "operation": "CALL",
                    "output": "0x0000000000000000000000000000000000000000000000000000000000000007",
                    "revert": false,
                    "revertMessage": "",
                    "selector": "0x64c66395",
                    "status": true,
                    "value": "0"
                },
                "nodeType": 0
            },
            "48": {
                "invocation": {
                    "address": "0xfc30a1a7a650d10b20500bc10b06ff8f4b650ad2",
                    "callData": "0x0000000000000000000000000000000000000000000000000000000000000000",
                    "decodedMethod": null,
                    "errorInfo": "",
                    "fromAddress": "0xf0155486a14539f784739be1c02e93f28eb8e960",
                    "gasUsed": 1466,
                    "id": 48,
                    "methodDecoded": false,
                    "operation": "CALL",
                    "output": "0x000000000000000000000000000000000000000000000000000000000000000a00000000000000000000000000000000000000000000000000000000000000020000000000000000000000000000000000000000000000000000000000000064",
                    "revert": false,
                    "revertMessage": "",
                    "selector": "0x2292bc1e",
                    "status": true,
                    "value": "0"
                },
                "nodeType": 0
            },
            "49": {
                "invocation": {
                    "address": "0xfc30a1a7a650d10b20500bc10b06ff8f4b650ad2",
                    "callData": "0x0000000000000000000000000000000000000000000000000000000000000006",
                    "decodedMethod": null,
                    "errorInfo": "",
                    "fromAddress": "0xf0155486a14539f784739be1c02e93f28eb8e960",
                    "gasUsed": 1466,
                    "id": 49,
                    "methodDecoded": false,
                    "operation": "CALL",
                    "output": "0x000000000000000000000000000000000000000000000000000000000000002b00000000000000000000000000000000000000000000000000000000000000190000000000000000000000000000000000000000000000000000000000000307",
                    "revert": false,
                    "revertMessage": "",
                    "selector": "0x2292bc1e",
                    "status": true,
                    "value": "0"
                },
                "nodeType": 0
            },
            "5": {
                "invocation": {
                    "address": "0x06a6a7af298129e3a2ab396c9c06f91d3c54aba8",
                    "callData": "0x000000000000000000000000000000000000000000000000000000000002ac49",
                    "decodedMethod": {
                        "callParams": [
                            {
                                "name": "_id",
                                "type": "uint256",
                                "value": "175,177"
                            }
                        ],
                        "constructorArguments": "",
                        "name": "getPlanet",
                        "returnParams": [
                            {
                                "name": "rarity",
                                "type": "uint256",
                                "value": "0"
                            },
                            {
                                "name": "discovered",
                                "type": "uint256",
                                "value": "1,562,376,313"
                            },
                            {
                                "name": "sectorX",
                                "type": "uint256",
                                "value": "1"
                            },
                            {
                                "name": "sectorY",
                                "type": "uint256",
                                "value": "30"
                            },
                            {
                                "name": "resourcesId",
                                "type": "uint256[5]",
                                "value": [
                                    "0",
                                    "7",
                                    "3",
                                    "2",
                                    "0"
                                ]
                            },
                            {
                                "name": "resourcesVelocity",
                                "type": "uint256[5]",
                                "value": [
                                    "26",
                                    "31",
                                    "24",
                                    "22",
                                    "0"
                                ]
                            }
                        ],
                        "signature": "getPlanet(uint256)"
                    },
                    "errorInfo": "",
                    "fromAddress": "0xf0155486a14539f784739be1c02e93f28eb8e960",
                    "gasUsed": 7078,
                    "id": 5,
                    "methodDecoded": true,
                    "operation": "CALL",
                    "output": "0x0000000000000000000000000000000000000000000000000000000000000000000000000000000000000000000000000000000000000000000000005d1ff8790000000000000000000000000000000000000000000000000000000000000001000000000000000000000000000000000000000000000000000000000000001e00000000000000000000000000000000000000000000000000000000000000000000000000000000000000000000000000000000000000000000000000000007000000000000000000000000000000000000000000000000000000000000000300000000000000000000000000000000000000000000000000000000000000020000000000000000000000000000000000000000000000000000000000000000000000000000000000000000000000000000000000000000000000000000001a000000000000000000000000000000000000000000000000000000000000001f000000000000000000000000000000000000000000000000000000000000001800000000000000000000000000000000000000000000000000000000000000160000000000000000000000000000000000000000000000000000000000000000",
                    "revert": false,
                    "revertMessage": "",
                    "selector": "0x34efcb8e",
                    "status": true,
                    "value": "0"
                },
                "nodeType": 0
            },
            "50": {
                "invocation": {
                    "address": "0xfc30a1a7a650d10b20500bc10b06ff8f4b650ad2",
                    "callData": "0x0000000000000000000000000000000000000000000000000000000000000009",
                    "decodedMethod": null,
                    "errorInfo": "",
                    "fromAddress": "0xf0155486a14539f784739be1c02e93f28eb8e960",
                    "gasUsed": 1375,
                    "id": 50,
                    "methodDecoded": false,
                    "operation": "CALL",
                    "output": "0x000000000000000000000000000000000000000000000000000000000000012d00000000000000000000000000000000000000000000000000000000000002f8",
                    "revert": false,
                    "revertMessage": "",
                    "selector": "0xbe8fb1c1",
                    "status": true,
                    "value": "0"
                },
                "nodeType": 0
            },
            "51": {
                "invocation": {
                    "address": "0xfc30a1a7a650d10b20500bc10b06ff8f4b650ad2",
                    "callData": "0x000000000000000000000000000000000000000000000000000000000000000a",
                    "decodedMethod": null,
                    "errorInfo": "",
                    "fromAddress": "0xf0155486a14539f784739be1c02e93f28eb8e960",
                    "gasUsed": 1375,
                    "id": 51,
                    "methodDecoded": false,
                    "operation": "CALL",
                    "output": "0x00000000000000000000000000000000000000000000000000000000000000330000000000000000000000000000000000000000000000000000000000000104",
                    "revert": false,
                    "revertMessage": "",
                    "selector": "0xbe8fb1c1",
                    "status": true,
                    "value": "0"
                },
                "nodeType": 0
            },
            "52": {
                "invocation": {
                    "address": "0xfc30a1a7a650d10b20500bc10b06ff8f4b650ad2",
                    "callData": "0x000000000000000000000000000000000000000000000000000000000000000b",
                    "decodedMethod": null,
                    "errorInfo": "",
                    "fromAddress": "0xf0155486a14539f784739be1c02e93f28eb8e960",
                    "gasUsed": 1375,
                    "id": 52,
                    "methodDecoded": false,
                    "operation": "CALL",
                    "output": "0x0000000000000000000000000000000000000000000000000000000000000001000000000000000000000000000000000000000000000000000000000000000a",
                    "revert": false,
                    "revertMessage": "",
                    "selector": "0xbe8fb1c1",
                    "status": true,
                    "value": "0"
                },
                "nodeType": 0
            },
            "53": {
                "invocation": {
                    "address": "0xfc30a1a7a650d10b20500bc10b06ff8f4b650ad2",
                    "callData": "0x0000000000000000000000000000000000000000000000000000000000000025",
                    "decodedMethod": null,
                    "errorInfo": "",
                    "fromAddress": "0xf0155486a14539f784739be1c02e93f28eb8e960",
                    "gasUsed": 1375,
                    "id": 53,
                    "methodDecoded": false,
                    "operation": "CALL",
                    "output": "0x00000000000000000000000000000000000000000000000000000000000000000000000000000000000000000000000000000000000000000000000000000000",
                    "revert": false,
                    "revertMessage": "",
                    "selector": "0xbe8fb1c1",
                    "status": true,
                    "value": "0"
                },
                "nodeType": 0
            },
            "54": {
                "invocation": {
                    "address": "0xfc30a1a7a650d10b20500bc10b06ff8f4b650ad2",
                    "callData": "0x0000000000000000000000000000000000000000000000000000000000000024",
                    "decodedMethod": null,
                    "errorInfo": "",
                    "fromAddress": "0xf0155486a14539f784739be1c02e93f28eb8e960",
                    "gasUsed": 1375,
                    "id": 54,
                    "methodDecoded": false,
                    "operation": "CALL",
                    "output": "0x000000000000000000000000000000000000000000000000000000000000003c000000000000000000000000000000000000000000000000000000000000005a",
                    "revert": false,
                    "revertMessage": "",
                    "selector": "0xbe8fb1c1",
                    "status": true,
                    "value": "0"
                },
                "nodeType": 0
            },
            "55": {
                "invocation": {
                    "address": "0x06a6a7af298129e3a2ab396c9c06f91d3c54aba8",
                    "callData": "0x0000000000000000000000002bf633dbf9ddb008c0943920c5d2de8f601d517a00000000000000000000000000000000000000000000000000000000000000020000000000000000000000000000000000000000000000000000000000000002000000000000000000000000000000000000000000000000000000000000001f000000000000000000000000000000000000000000000000000000000000010f",
                    "decodedMethod": {
                        "callParams": [
                            {
                                "name": "_owner",
                                "type": "address",
                                "value": "0x2bf633dbf9ddb008c0943920c5d2de8f601d517a"
                            },
                            {
                                "name": "_rarity",
                                "type": "uint256",
                                "value": "2"
                            },
                            {
                                "name": "_sectorX",
                                "type": "uint256",
                                "value": "2"
                            },
                            {
                                "name": "_sectorY",
                                "type": "uint256",
                                "value": "31"
                            },
                            {
                                "name": "_startPopulation",
                                "type": "uint256",
                                "value": "271"
                            }
                        ],
                        "constructorArguments": "",
                        "name": "createPlanet",
                        "returnParams": [
                            {
                                "name": "",
                                "type": "uint256",
                                "value": "228,187"
                            }
                        ],
                        "signature": "createPlanet(address,uint256,uint256,uint256,uint256)"
                    },
                    "errorInfo": "",
                    "fromAddress": "0xf0155486a14539f784739be1c02e93f28eb8e960",
                    "gasUsed": 255980,
                    "id": 55,
                    "methodDecoded": true,
                    "operation": "CALL",
                    "output": "0x0000000000000000000000000000000000000000000000000000000000037b5b",
                    "revert": false,
                    "revertMessage": "",
                    "selector": "0xc58b1bdd",
                    "status": true,
                    "value": "0"
                },
                "nodeType": 0
            },
            "56": {
                "invocation": {
                    "address": "0x340113cd9eceedc5ae1f08bc391f120daf53277a",
                    "callData": "0x0000000000000000000000000000000000000000000000000000000000000002",
                    "decodedMethod": null,
                    "errorInfo": "",
                    "fromAddress": "0x06a6a7af298129e3a2ab396c9c06f91d3c54aba8",
                    "gasUsed": 69781,
                    "id": 56,
                    "methodDecoded": false,
                    "operation": "CALL",
                    "output": "0x0000000000000000000000000000000000000000000000000000000000000000000000000000000000000000000000000000000000000000000000000000002a000000000000000000000000000000000000000000000000000000000000002c000000000000000000000000000000000000000000000000000000000000002e000000000000000000000000000000000000000000000000000000000000000000000000000000000000000000000000000000000000000000000000000000320000000000000000000000000000000000000000000000000000000000000043000000000000000000000000000000000000000000000000000000000000004300000000000000000000000000000000000000000000000000000000000000540000000000000000000000000000000000000000000000000000000000000000",
                    "revert": false,
                    "revertMessage": "",
                    "selector": "0x570bb139",
                    "status": true,
                    "value": "0"
                },
                "nodeType": 0
            },
            "57": {
                "invocation": {
                    "address": "0xfc30a1a7a650d10b20500bc10b06ff8f4b650ad2",
                    "callData": "0x000000000000000000000000000000000000000000000000000000000000000d",
                    "decodedMethod": null,
                    "errorInfo": "",
                    "fromAddress": "0x340113cd9eceedc5ae1f08bc391f120daf53277a",
                    "gasUsed": 1375,
                    "id": 57,
                    "methodDecoded": false,
                    "operation": "CALL",
                    "output": "0x00000000000000000000000000000000000000000000000000000000000000140000000000000000000000000000000000000000000000000000000000000028",
                    "revert": false,
                    "revertMessage": "",
                    "selector": "0xbe8fb1c1",
                    "status": true,
                    "value": "0"
                },
                "nodeType": 0
            },
            "58": {
                "invocation": {
                    "address": "0xfc30a1a7a650d10b20500bc10b06ff8f4b650ad2",
                    "callData": "0x000000000000000000000000000000000000000000000000000000000000000e",
                    "decodedMethod": {
                        "callParams": [
                            {
                                "name": "_record",
                                "type": "uint256",
                                "value": "14"
                            }
                        ],
                        "constructorArguments": "",
                        "name": "getUIntValue",
                        "returnParams": [
                            {
                                "name": "",
                                "type": "uint256",
                                "value": "120"
                            }
                        ],
                        "signature": "getUIntValue(uint256)"
                    },
                    "errorInfo": "",
                    "fromAddress": "0x340113cd9eceedc5ae1f08bc391f120daf53277a",
                    "gasUsed": 588,
                    "id": 58,
                    "methodDecoded": true,
                    "operation": "CALL",
                    "output": "0x0000000000000000000000000000000000000000000000000000000000000078",
                    "revert": false,
                    "revertMessage": "",
                    "selector": "0x64c66395",
                    "status": true,
                    "value": "0"
                },
                "nodeType": 0
            },
            "59": {
                "invocation": {
                    "address": "0xfc30a1a7a650d10b20500bc10b06ff8f4b650ad2",
                    "callData": "0x0000000000000000000000000000000000000000000000000000000000000002",
                    "decodedMethod": null,
                    "errorInfo": "",
                    "fromAddress": "0x340113cd9eceedc5ae1f08bc391f120daf53277a",
                    "gasUsed": 923,
                    "id": 59,
                    "methodDecoded": false,
                    "operation": "CALL",
                    "output": "0x00000000000000000000000000000000000000000000000000000000000000290000000000000000000000000000000000000000000000000000000000000006",
                    "revert": false,
                    "revertMessage": "",
                    "selector": "0xccf9bbb6",
                    "status": true,
                    "value": "0"
                },
                "nodeType": 0
            },
            "6": {
                "invocation": {
                    "address": "0x06a6a7af298129e3a2ab396c9c06f91d3c54aba8",
                    "callData": "0x000000000000000000000000000000000000000000000000000000000002ac49",
                    "decodedMethod": {
                        "callParams": [
                            {
                                "name": "_tokenId",
                                "type": "uint256",
                                "value": "175,177"
                            }
                        ],
                        "constructorArguments": "",
                        "name": "ownerOf",
                        "returnParams": [
                            {
                                "name": "",
                                "type": "address",
                                "value": "0x2bf633dbf9ddb008c0943920c5d2de8f601d517a"
                            }
                        ],
                        "signature": "ownerOf(uint256)"
                    },
                    "errorInfo": "",
                    "fromAddress": "0xf0155486a14539f784739be1c02e93f28eb8e960",
                    "gasUsed": 1277,
                    "id": 6,
                    "methodDecoded": true,
                    "operation": "CALL",
                    "output": "0x0000000000000000000000002bf633dbf9ddb008c0943920c5d2de8f601d517a",
                    "revert": false,
                    "revertMessage": "",
                    "selector": "0x6352211e",
                    "status": true,
                    "value": "0"
                },
                "nodeType": 0
            },
            "60": {
                "invocation": {
                    "address": "0xfc30a1a7a650d10b20500bc10b06ff8f4b650ad2",
                    "callData": "0x0000000000000000000000000000000000000000000000000000000000000010",
                    "decodedMethod": {
                        "callParams": [
                            {
                                "name": "_record",
                                "type": "uint256",
                                "value": "16"
                            }
                        ],
                        "constructorArguments": "",
                        "name": "getUIntValue",
                        "returnParams": [
                            {
                                "name": "",
                                "type": "uint256",
                                "value": "150"
                            }
                        ],
                        "signature": "getUIntValue(uint256)"
                    },
                    "errorInfo": "",
                    "fromAddress": "0x340113cd9eceedc5ae1f08bc391f120daf53277a",
                    "gasUsed": 588,
                    "id": 60,
                    "methodDecoded": true,
                    "operation": "CALL",
                    "output": "0x0000000000000000000000000000000000000000000000000000000000000096",
                    "revert": false,
                    "revertMessage": "",
                    "selector": "0x64c66395",
                    "status": true,
                    "value": "0"
                },
                "nodeType": 0
            },
            "61": {
                "invocation": {
                    "address": "0xfc30a1a7a650d10b20500bc10b06ff8f4b650ad2",
                    "callData": "0x000000000000000000000000000000000000000000000000000000000000000f",
                    "decodedMethod": null,
                    "errorInfo": "",
                    "fromAddress": "0x340113cd9eceedc5ae1f08bc391f120daf53277a",
                    "gasUsed": 1375,
                    "id": 61,
                    "methodDecoded": false,
                    "operation": "CALL",
                    "output": "0x000000000000000000000000000000000000000000000000000000000000000f0000000000000000000000000000000000000000000000000000000000000019",
                    "revert": false,
                    "revertMessage": "",
                    "selector": "0xbe8fb1c1",
                    "status": true,
                    "value": "0"
                },
                "nodeType": 0
            },
            "62": {
                "event": {
                    "contract": "0x06a6a7af298129e3a2ab396c9c06f91d3c54aba8",
                    "decodedLog": {
                        "name": "PlanetCreated",
                        "params": [
                            {
                                "name": "owner",
                                "type": "address",
                                "value": "0x2bf633dbf9ddb008c0943920c5d2de8f601d517a"
                            },
                            {
                                "name": "planetId",
                                "type": "uint256",
                                "value": "228,187"
                            },
                            {
                                "name": "sectorX",
                                "type": "uint256",
                                "value": "2"
                            },
                            {
                                "name": "sectorY",
                                "type": "uint256",
                                "value": "31"
                            },
                            {
                                "name": "rarity",
                                "type": "uint256",
                                "value": "2"
                            },
                            {
                                "name": "resourcesId",
                                "type": "uint256[5]",
                                "value": [
                                    "0",
                                    "42",
                                    "44",
                                    "46",
                                    "0"
                                ]
                            },
                            {
                                "name": "resourcesVelocity",
                                "type": "uint256[5]",
                                "value": [
                                    "50",
                                    "67",
                                    "67",
                                    "84",
                                    "0"
                                ]
                            },
                            {
                                "name": "startPopulation",
                                "type": "uint256",
                                "value": "271"
                            }
                        ],
                        "signature": "PlanetCreated(address,uint256,uint256,uint256,uint256,uint256[5],uint256[5],uint256)"
                    },
                    "id": 62,
                    "logData": "0x0000000000000000000000000000000000000000000000000000000000000002000000000000000000000000000000000000000000000000000000000000001f00000000000000000000000000000000000000000000000000000000000000020000000000000000000000000000000000000000000000000000000000000000000000000000000000000000000000000000000000000000000000000000002a000000000000000000000000000000000000000000000000000000000000002c000000000000000000000000000000000000000000000000000000000000002e000000000000000000000000000000000000000000000000000000000000000000000000000000000000000000000000000000000000000000000000000000320000000000000000000000000000000000000000000000000000000000000043000000000000000000000000000000000000000000000000000000000000004300000000000000000000000000000000000000000000000000000000000000540000000000000000000000000000000000000000000000000000000000000000000000000000000000000000000000000000000000000000000000000000010f",
                    "logDecoded": true,
                    "operation": "EVENT",
                    "revert": false,
                    "status": true,
                    "topics": [
                        "0xf54657dd54b8d60149296317ff8dd81a5f9d0ed22aa82d92db76bc5ce97973c4",
                        "0x0000000000000000000000002bf633dbf9ddb008c0943920c5d2de8f601d517a",
                        "0x0000000000000000000000000000000000000000000000000000000000037b5b"
                    ]
                },
                "nodeType": 1
            },
            "63": {
                "event": {
                    "contract": "0x06a6a7af298129e3a2ab396c9c06f91d3c54aba8",
                    "decodedLog": {
                        "name": "Transfer",
                        "params": [
                            {
                                "name": "_from",
                                "type": "address",
                                "value": "0x0000000000000000000000000000000000000000"
                            },
                            {
                                "name": "_to",
                                "type": "address",
                                "value": "0x2bf633dbf9ddb008c0943920c5d2de8f601d517a"
                            },
                            {
                                "decimalAvailable": true,
                                "name": "_tokenId",
                                "type": "uint256",
                                "value": "228,187"
                            }
                        ],
                        "signature": "Transfer(address,address,uint256)"
                    },
                    "id": 63,
                    "logData": "0x0000000000000000000000000000000000000000000000000000000000037b5b",
                    "logDecoded": true,
                    "operation": "EVENT",
                    "revert": false,
                    "status": true,
                    "topics": [
                        "0xddf252ad1be2c89b69c2b068fc378daa952ba7f163c4a11628f55a4df523b3ef",
                        "0x0000000000000000000000000000000000000000000000000000000000000000",
                        "0x0000000000000000000000002bf633dbf9ddb008c0943920c5d2de8f601d517a"
                    ]
                },
                "nodeType": 1
            },
            "7": {
                "invocation": {
                    "address": "0x2de440a27d6f4b525d19154dcd0c8d02955585df",
                    "callData": "0x0000000000000000000000002bf633dbf9ddb008c0943920c5d2de8f601d517a0000000000000000000000000000000000000000000000000000000000000009",
                    "decodedMethod": null,
                    "errorInfo": "",
                    "fromAddress": "0xf0155486a14539f784739be1c02e93f28eb8e960",
                    "gasUsed": 4414,
                    "id": 7,
                    "methodDecoded": false,
                    "operation": "CALL",
                    "output": "0x000000000000000000000000000000000000000000000000000000000000000f000000000000000000000000000000000000000000000000000000000000000800000000000000000000000000000000000000000000000000000000000001a700000000000000000000000000000000000000000000000000000000000000030000000000000000000000000000000000000000000000000000000000000017000000000000000000000000000000000000000000000000000000000000001a000000000000000000000000000000000000000000000000000000000000000000000000000000000000000000000000000000000000000000000000000000000000000000000000000000000000000000000000000000000000000000000000000000000000000000000000000000000000000000000000000000000000035100000000000000000000000000000000000000000000000000000000000003cc000000000000000000000000000000000000000000000000000000000000000000000000000000000000000000000000000000000000000000000000000000000000000000000000000000000000000000000000000000000000000000000000",
                    "revert": false,
                    "revertMessage": "",
                    "selector": "0x655990ec",
                    "status": true,
                    "value": "0"
                },
                "nodeType": 0
            },
            "8": {
                "invocation": {
                    "address": "0x06a6a7af298129e3a2ab396c9c06f91d3c54aba8",
                    "callData": "0x0000000000000000000000002bf633dbf9ddb008c0943920c5d2de8f601d517a000000000000000000000000000000000000000000000000000000000002ac49000000000000000000000000000000000000000000000000000000000000000000000000000000000000000000000000000000000000000000000000000001a7",
                    "decodedMethod": {
                        "callParams": [
                            {
                                "name": "_owner",
                                "type": "address",
                                "value": "0x2bf633dbf9ddb008c0943920c5d2de8f601d517a"
                            },
                            {
                                "name": "_planetId",
                                "type": "uint256",
                                "value": "175,177"
                            },
                            {
                                "name": "_resourceId",
                                "type": "uint256",
                                "value": "0"
                            },
                            {
                                "name": "_resourceValue",
                                "type": "uint256",
                                "value": "423"
                            }
                        ],
                        "constructorArguments": "",
                        "name": "spendResourceOnPlanet",
                        "returnParams": [],
                        "signature": "spendResourceOnPlanet(address,uint256,uint256,uint256)"
                    },
                    "errorInfo": "",
                    "fromAddress": "0xf0155486a14539f784739be1c02e93f28eb8e960",
                    "gasUsed": 31114,
                    "id": 8,
                    "methodDecoded": true,
                    "operation": "CALL",
                    "output": "",
                    "revert": false,
                    "revertMessage": "",
                    "selector": "0x189052f1",
                    "status": true,
                    "value": "0"
                },
                "nodeType": 0
            },
            "9": {
                "invocation": {
                    "address": "0xfc30a1a7a650d10b20500bc10b06ff8f4b650ad2",
                    "callData": "0x0000000000000000000000000000000000000000000000000000000000000022",
                    "decodedMethod": {
                        "callParams": [
                            {
                                "name": "_record",
                                "type": "uint256",
                                "value": "34"
                            }
                        ],
                        "constructorArguments": "",
                        "name": "getUIntValue",
                        "returnParams": [
                            {
                                "name": "",
                                "type": "uint256",
                                "value": "1"
                            }
                        ],
                        "signature": "getUIntValue(uint256)"
                    },
                    "errorInfo": "",
                    "fromAddress": "0x06a6a7af298129e3a2ab396c9c06f91d3c54aba8",
                    "gasUsed": 588,
                    "id": 9,
                    "methodDecoded": true,
                    "operation": "CALL",
                    "output": "0x0000000000000000000000000000000000000000000000000000000000000001",
                    "revert": false,
                    "revertMessage": "",
                    "selector": "0x64c66395",
                    "status": true,
                    "value": "0"
                },
                "nodeType": 0
            }
        },
        "gasFlame": [
            {
                "children": [
                    {
                        "children": [
                            {
                                "children": [],
                                "depth": 0,
                                "name": "Initial Gas",
                                "value": 21784
                            },
                            {
                                "children": [
                                    {
                                        "children": [
                                            {
                                                "children": [],
                                                "depth": 2,
                                                "name": "getUIntValue",
                                                "value": 588
                                            },
                                            {
                                                "children": [],
                                                "depth": 2,
                                                "name": "0x55909f87",
                                                "value": 495
                                            },
                                            {
                                                "children": [],
                                                "depth": 2,
                                                "name": "0x9adbf583",
                                                "value": 1646
                                            },
                                            {
                                                "children": [],
                                                "depth": 2,
                                                "name": "getPlanet",
                                                "value": 7078
                                            },
                                            {
                                                "children": [],
                                                "depth": 2,
                                                "name": "ownerOf",
                                                "value": 1277
                                            },
                                            {
                                                "children": [],
                                                "depth": 2,
                                                "name": "0x655990ec",
                                                "value": 4414
                                            },
                                            {
                                                "children": [
                                                    {
                                                        "children": [],
                                                        "depth": 3,
                                                        "name": "getUIntValue",
                                                        "value": 588
                                                    },
                                                    {
                                                        "children": [],
                                                        "depth": 3,
                                                        "name": "getUIntValue",
                                                        "value": 588
                                                    },
                                                    {
                                                        "children": [],
                                                        "depth": 3,
                                                        "name": "getUIntValue",
                                                        "value": 588
                                                    }
                                                ],
                                                "depth": 2,
                                                "name": "spendResourceOnPlanet",
                                                "value": 31114
                                            },
                                            {
                                                "children": [
                                                    {
                                                        "children": [],
                                                        "depth": 3,
                                                        "name": "getUIntValue",
                                                        "value": 588
                                                    },
                                                    {
                                                        "children": [],
                                                        "depth": 3,
                                                        "name": "getUIntValue",
                                                        "value": 588
                                                    },
                                                    {
                                                        "children": [],
                                                        "depth": 3,
                                                        "name": "getUIntValue",
                                                        "value": 588
                                                    },
                                                    {
                                                        "children": [],
                                                        "depth": 3,
                                                        "name": "getUIntValue",
                                                        "value": 588
                                                    },
                                                    {
                                                        "children": [],
                                                        "depth": 3,
                                                        "name": "getUIntValue",
                                                        "value": 588
                                                    },
                                                    {
                                                        "children": [],
                                                        "depth": 3,
                                                        "name": "getUIntValue",
                                                        "value": 588
                                                    }
                                                ],
                                                "depth": 2,
                                                "name": "spendResources",
                                                "value": 64839
                                            },
                                            {
                                                "children": [],
                                                "depth": 2,
                                                "name": "getUIntValue",
                                                "value": 588
                                            },
                                            {
                                                "children": [],
                                                "depth": 2,
                                                "name": "0xf1982b8f",
                                                "value": 11947
                                            },
                                            {
                                                "children": [],
                                                "depth": 2,
                                                "name": "getDiscoveredPlanetsDensity",
                                                "value": 1276
                                            },
                                            {
                                                "children": [],
                                                "depth": 2,
                                                "name": "getDiscoveredPlanetsDensity",
                                                "value": 1276
                                            },
                                            {
                                                "children": [],
                                                "depth": 2,
                                                "name": "getDiscoveredPlanetsDensity",
                                                "value": 1276
                                            },
                                            {
                                                "children": [],
                                                "depth": 2,
                                                "name": "getDiscoveredPlanetsDensity",
                                                "value": 1276
                                            },
                                            {
                                                "children": [],
                                                "depth": 2,
                                                "name": "getDiscoveredPlanetsDensity",
                                                "value": 1276
                                            },
                                            {
                                                "children": [],
                                                "depth": 2,
                                                "name": "getDiscoveredPlanetsDensity",
                                                "value": 1276
                                            },
                                            {
                                                "children": [],
                                                "depth": 2,
                                                "name": "getDiscoveredPlanetsDensity",
                                                "value": 1276
                                            },
                                            {
                                                "children": [],
                                                "depth": 2,
                                                "name": "getDiscoveredPlanetsDensity",
                                                "value": 1276
                                            },
                                            {
                                                "children": [],
                                                "depth": 2,
                                                "name": "getDiscoveredPlanetsDensity",
                                                "value": 1276
                                            },
                                            {
                                                "children": [],
                                                "depth": 2,
                                                "name": "getDiscoveredPlanetsDensity",
                                                "value": 1276
                                            },
                                            {
                                                "children": [],
                                                "depth": 2,
                                                "name": "getDiscoveredPlanetsDensity",
                                                "value": 1276
                                            },
                                            {
                                                "children": [],
                                                "depth": 2,
                                                "name": "getDiscoveredPlanetsDensity",
                                                "value": 1276
                                            },
                                            {
                                                "children": [],
                                                "depth": 2,
                                                "name": "getDiscoveredPlanetsDensity",
                                                "value": 1276
                                            },
                                            {
                                                "children": [],
                                                "depth": 2,
                                                "name": "getDiscoveredPlanetsDensity",
                                                "value": 1276
                                            },
                                            {
                                                "children": [],
                                                "depth": 2,
                                                "name": "getUIntValue",
                                                "value": 588
                                            },
                                            {
                                                "children": [],
                                                "depth": 2,
                                                "name": "getUIntValue",
                                                "value": 588
                                            },
                                            {
                                                "children": [],
                                                "depth": 2,
                                                "name": "getDiscoveredPlanetsDensity",
                                                "value": 1276
                                            },
                                            {
                                                "children": [],
                                                "depth": 2,
                                                "name": "getDiscoveredPlanetsDensity",
                                                "value": 1276
                                            },
                                            {
                                                "children": [],
                                                "depth": 2,
                                                "name": "getDiscoveredPlanetsDensity",
                                                "value": 1276
                                            },
                                            {
                                                "children": [],
                                                "depth": 2,
                                                "name": "getDiscoveredPlanetsDensity",
                                                "value": 1276
                                            },
                                            {
                                                "children": [],
                                                "depth": 2,
                                                "name": "getDiscoveredPlanetsDensity",
                                                "value": 1276
                                            },
                                            {
                                                "children": [],
                                                "depth": 2,
                                                "name": "getDiscoveredPlanetsDensity",
                                                "value": 1276
                                            },
                                            {
                                                "children": [],
                                                "depth": 2,
                                                "name": "getDiscoveredPlanetsDensity",
                                                "value": 1276
                                            },
                                            {
                                                "children": [],
                                                "depth": 2,
                                                "name": "getDiscoveredPlanetsDensity",
                                                "value": 1276
                                            },
                                            {
                                                "children": [],
                                                "depth": 2,
                                                "name": "0xe4c5efe9",
                                                "value": 1788
                                            },
                                            {
                                                "children": [],
                                                "depth": 2,
                                                "name": "getUIntValue",
                                                "value": 588
                                            },
                                            {
                                                "children": [],
                                                "depth": 2,
                                                "name": "0x2292bc1e",
                                                "value": 1466
                                            },
                                            {
                                                "children": [],
                                                "depth": 2,
                                                "name": "0x2292bc1e",
                                                "value": 1466
                                            },
                                            {
                                                "children": [],
                                                "depth": 2,
                                                "name": "0xbe8fb1c1",
                                                "value": 1375
                                            },
                                            {
                                                "children": [],
                                                "depth": 2,
                                                "name": "0xbe8fb1c1",
                                                "value": 1375
                                            },
                                            {
                                                "children": [],
                                                "depth": 2,
                                                "name": "0xbe8fb1c1",
                                                "value": 1375
                                            },
                                            {
                                                "children": [],
                                                "depth": 2,
                                                "name": "0xbe8fb1c1",
                                                "value": 1375
                                            },
                                            {
                                                "children": [],
                                                "depth": 2,
                                                "name": "0xbe8fb1c1",
                                                "value": 1375
                                            },
                                            {
                                                "children": [
                                                    {
                                                        "children": [
                                                            {
                                                                "children": [],
                                                                "depth": 4,
                                                                "name": "0xbe8fb1c1",
                                                                "value": 1375
                                                            },
                                                            {
                                                                "children": [],
                                                                "depth": 4,
                                                                "name": "getUIntValue",
                                                                "value": 588
                                                            },
                                                            {
                                                                "children": [],
                                                                "depth": 4,
                                                                "name": "0xccf9bbb6",
                                                                "value": 923
                                                            },
                                                            {
                                                                "children": [],
                                                                "depth": 4,
                                                                "name": "getUIntValue",
                                                                "value": 588
                                                            },
                                                            {
                                                                "children": [],
                                                                "depth": 4,
                                                                "name": "0xbe8fb1c1",
                                                                "value": 1375
                                                            }
                                                        ],
                                                        "depth": 3,
                                                        "name": "0x570bb139",
                                                        "value": 69781
                                                    }
                                                ],
                                                "depth": 2,
                                                "name": "createPlanet",
                                                "value": 255980
                                            }
                                        ],
                                        "depth": 1,
                                        "name": "0x5bc20b24",
                                        "value": 585139
                                    }
                                ],
                                "depth": 0,
                                "name": "Executed Gas",
                                "value": 586718
                            }
                        ],
                        "depth": -1,
                        "name": "Actual Gas Used",
                        "value": 608502
                    },
                    {
                        "children": [],
                        "depth": -1,
                        "name": "Refunded Gas",
                        "value": 0
                    }
                ],
                "depth": -2,
                "name": "Total Gas",
                "value": 608502
            }
        ],
        "isConfirmed": true,
        "mainTrace": [
            {
                "children": [
                    {
                        "children": [
                            {
                                "children": [
                                    {
                                        "children": [],
                                        "depth": 2,
                                        "id": 2,
                                        "order": 2
                                    },
                                    {
                                        "children": [],
                                        "depth": 2,
                                        "id": 3,
                                        "order": 3
                                    },
                                    {
                                        "children": [],
                                        "depth": 2,
                                        "id": 4,
                                        "order": 4
                                    },
                                    {
                                        "children": [],
                                        "depth": 2,
                                        "id": 5,
                                        "order": 5
                                    },
                                    {
                                        "children": [],
                                        "depth": 2,
                                        "id": 6,
                                        "order": 6
                                    },
                                    {
                                        "children": [],
                                        "depth": 2,
                                        "id": 7,
                                        "order": 7
                                    },
                                    {
                                        "children": [
                                            {
                                                "children": [],
                                                "depth": 3,
                                                "id": 9,
                                                "order": 9
                                            },
                                            {
                                                "children": [],
                                                "depth": 3,
                                                "id": 10,
                                                "order": 10
                                            },
                                            {
                                                "children": [],
                                                "depth": 3,
                                                "id": 11,
                                                "order": 11
                                            }
                                        ],
                                        "depth": 2,
                                        "id": 8,
                                        "order": 8
                                    },
                                    {
                                        "children": [
                                            {
                                                "children": [],
                                                "depth": 3,
                                                "id": 13,
                                                "order": 13
                                            },
                                            {
                                                "children": [],
                                                "depth": 3,
                                                "id": 14,
                                                "order": 14
                                            },
                                            {
                                                "children": [],
                                                "depth": 3,
                                                "id": 15,
                                                "order": 15
                                            },
                                            {
                                                "children": [],
                                                "depth": 3,
                                                "id": 16,
                                                "order": 16
                                            },
                                            {
                                                "children": [],
                                                "depth": 3,
                                                "id": 17,
                                                "order": 17
                                            },
                                            {
                                                "children": [],
                                                "depth": 3,
                                                "id": 18,
                                                "order": 18
                                            }
                                        ],
                                        "depth": 2,
                                        "id": 12,
                                        "order": 12
                                    },
                                    {
                                        "children": [],
                                        "depth": 2,
                                        "id": 19,
                                        "order": 19
                                    },
                                    {
                                        "children": [],
                                        "depth": 2,
                                        "id": 20,
                                        "order": 20
                                    },
                                    {
                                        "children": [],
                                        "depth": 2,
                                        "id": 21,
                                        "order": 21
                                    },
                                    {
                                        "children": [],
                                        "depth": 2,
                                        "id": 22,
                                        "order": 22
                                    },
                                    {
                                        "children": [],
                                        "depth": 2,
                                        "id": 23,
                                        "order": 23
                                    },
                                    {
                                        "children": [],
                                        "depth": 2,
                                        "id": 24,
                                        "order": 24
                                    },
                                    {
                                        "children": [],
                                        "depth": 2,
                                        "id": 25,
                                        "order": 25
                                    },
                                    {
                                        "children": [],
                                        "depth": 2,
                                        "id": 26,
                                        "order": 26
                                    },
                                    {
                                        "children": [],
                                        "depth": 2,
                                        "id": 27,
                                        "order": 27
                                    },
                                    {
                                        "children": [],
                                        "depth": 2,
                                        "id": 28,
                                        "order": 28
                                    },
                                    {
                                        "children": [],
                                        "depth": 2,
                                        "id": 29,
                                        "order": 29
                                    },
                                    {
                                        "children": [],
                                        "depth": 2,
                                        "id": 30,
                                        "order": 30
                                    },
                                    {
                                        "children": [],
                                        "depth": 2,
                                        "id": 31,
                                        "order": 31
                                    },
                                    {
                                        "children": [],
                                        "depth": 2,
                                        "id": 32,
                                        "order": 32
                                    },
                                    {
                                        "children": [],
                                        "depth": 2,
                                        "id": 33,
                                        "order": 33
                                    },
                                    {
                                        "children": [],
                                        "depth": 2,
                                        "id": 34,
                                        "order": 34
                                    },
                                    {
                                        "children": [],
                                        "depth": 2,
                                        "id": 35,
                                        "order": 35
                                    },
                                    {
                                        "children": [],
                                        "depth": 2,
                                        "id": 36,
                                        "order": 36
                                    },
                                    {
                                        "children": [],
                                        "depth": 2,
                                        "id": 37,
                                        "order": 37
                                    },
                                    {
                                        "children": [],
                                        "depth": 2,
                                        "id": 38,
                                        "order": 38
                                    },
                                    {
                                        "children": [],
                                        "depth": 2,
                                        "id": 39,
                                        "order": 39
                                    },
                                    {
                                        "children": [],
                                        "depth": 2,
                                        "id": 40,
                                        "order": 40
                                    },
                                    {
                                        "children": [],
                                        "depth": 2,
                                        "id": 41,
                                        "order": 41
                                    },
                                    {
                                        "children": [],
                                        "depth": 2,
                                        "id": 42,
                                        "order": 42
                                    },
                                    {
                                        "children": [],
                                        "depth": 2,
                                        "id": 43,
                                        "order": 43
                                    },
                                    {
                                        "children": [],
                                        "depth": 2,
                                        "id": 44,
                                        "order": 44
                                    },
                                    {
                                        "children": [],
                                        "depth": 2,
                                        "id": 45,
                                        "order": 45
                                    },
                                    {
                                        "children": [],
                                        "depth": 2,
                                        "id": 46,
                                        "order": 46
                                    },
                                    {
                                        "children": [],
                                        "depth": 2,
                                        "id": 47,
                                        "order": 47
                                    },
                                    {
                                        "children": [],
                                        "depth": 2,
                                        "id": 48,
                                        "order": 48
                                    },
                                    {
                                        "children": [],
                                        "depth": 2,
                                        "id": 49,
                                        "order": 49
                                    },
                                    {
                                        "children": [],
                                        "depth": 2,
                                        "id": 50,
                                        "order": 50
                                    },
                                    {
                                        "children": [],
                                        "depth": 2,
                                        "id": 51,
                                        "order": 51
                                    },
                                    {
                                        "children": [],
                                        "depth": 2,
                                        "id": 52,
                                        "order": 52
                                    },
                                    {
                                        "children": [],
                                        "depth": 2,
                                        "id": 53,
                                        "order": 53
                                    },
                                    {
                                        "children": [],
                                        "depth": 2,
                                        "id": 54,
                                        "order": 54
                                    },
                                    {
                                        "children": [
                                            {
                                                "children": [
                                                    {
                                                        "children": [],
                                                        "depth": 4,
                                                        "id": 57,
                                                        "order": 57
                                                    },
                                                    {
                                                        "children": [],
                                                        "depth": 4,
                                                        "id": 58,
                                                        "order": 58
                                                    },
                                                    {
                                                        "children": [],
                                                        "depth": 4,
                                                        "id": 59,
                                                        "order": 59
                                                    },
                                                    {
                                                        "children": [],
                                                        "depth": 4,
                                                        "id": 60,
                                                        "order": 60
                                                    },
                                                    {
                                                        "children": [],
                                                        "depth": 4,
                                                        "id": 61,
                                                        "order": 61
                                                    }
                                                ],
                                                "depth": 3,
                                                "id": 56,
                                                "order": 56
                                            },
                                            {
                                                "children": [],
                                                "depth": 3,
                                                "id": 62,
                                                "order": 62
                                            },
                                            {
                                                "children": [],
                                                "depth": 3,
                                                "id": 63,
                                                "order": 63
                                            }
                                        ],
                                        "depth": 2,
                                        "id": 55,
                                        "order": 55
                                    }
                                ],
                                "depth": 1,
                                "id": 1,
                                "order": 1
                            }
                        ],
                        "depth": 0,
                        "id": 0,
                        "order": 0
                    }
                ],
                "depth": -1,
                "id": -1,
                "order": -1
            }
        ],
        "mainTraceNodeCount": 64,
        "parentIdMap": {
            "0": -1,
            "1": 0,
            "10": 8,
            "11": 8,
            "12": 1,
            "13": 12,
            "14": 12,
            "15": 12,
            "16": 12,
            "17": 12,
            "18": 12,
            "19": 1,
            "2": 1,
            "20": 1,
            "21": 1,
            "22": 1,
            "23": 1,
            "24": 1,
            "25": 1,
            "26": 1,
            "27": 1,
            "28": 1,
            "29": 1,
            "3": 1,
            "30": 1,
            "31": 1,
            "32": 1,
            "33": 1,
            "34": 1,
            "35": 1,
            "36": 1,
            "37": 1,
            "38": 1,
            "39": 1,
            "4": 1,
            "40": 1,
            "41": 1,
            "42": 1,
            "43": 1,
            "44": 1,
            "45": 1,
            "46": 1,
            "47": 1,
            "48": 1,
            "49": 1,
            "5": 1,
            "50": 1,
            "51": 1,
            "52": 1,
            "53": 1,
            "54": 1,
            "55": 1,
            "56": 55,
            "57": 56,
            "58": 56,
            "59": 56,
            "6": 1,
            "60": 56,
            "61": 56,
            "62": 55,
            "63": 55,
            "7": 1,
            "8": 1,
            "9": 8
        },
        "tidyTrace": [
            {
                "children": [
                    {
                        "children": [
                            {
                                "children": [
                                    {
                                        "children": [],
                                        "depth": 2,
                                        "id": 2,
                                        "order": 2
                                    },
                                    {
                                        "children": [],
                                        "depth": 2,
                                        "id": 3,
                                        "order": 3
                                    },
                                    {
                                        "children": [],
                                        "depth": 2,
                                        "id": 4,
                                        "order": 4
                                    },
                                    {
                                        "children": [],
                                        "depth": 2,
                                        "id": 5,
                                        "order": 5
                                    },
                                    {
                                        "children": [],
                                        "depth": 2,
                                        "id": 6,
                                        "order": 6
                                    },
                                    {
                                        "children": [],
                                        "depth": 2,
                                        "id": 7,
                                        "order": 7
                                    },
                                    {
                                        "children": [
                                            {
                                                "children": [],
                                                "depth": 3,
                                                "id": 9,
                                                "order": 9
                                            },
                                            {
                                                "children": [],
                                                "depth": 3,
                                                "id": 10,
                                                "order": 10
                                            },
                                            {
                                                "children": [],
                                                "depth": 3,
                                                "id": 11,
                                                "order": 11
                                            }
                                        ],
                                        "depth": 2,
                                        "id": 8,
                                        "order": 8
                                    },
                                    {
                                        "children": [
                                            {
                                                "children": [],
                                                "depth": 3,
                                                "id": 13,
                                                "order": 13
                                            },
                                            {
                                                "children": [],
                                                "depth": 3,
                                                "id": 14,
                                                "order": 14
                                            },
                                            {
                                                "children": [],
                                                "depth": 3,
                                                "id": 15,
                                                "order": 15
                                            },
                                            {
                                                "children": [],
                                                "depth": 3,
                                                "id": 16,
                                                "order": 16
                                            },
                                            {
                                                "children": [],
                                                "depth": 3,
                                                "id": 17,
                                                "order": 17
                                            },
                                            {
                                                "children": [],
                                                "depth": 3,
                                                "id": 18,
                                                "order": 18
                                            }
                                        ],
                                        "depth": 2,
                                        "id": 12,
                                        "order": 12
                                    },
                                    {
                                        "children": [],
                                        "depth": 2,
                                        "id": 19,
                                        "order": 19
                                    },
                                    {
                                        "children": [],
                                        "depth": 2,
                                        "id": 20,
                                        "order": 20
                                    },
                                    {
                                        "children": [],
                                        "depth": 2,
                                        "id": 21,
                                        "order": 21
                                    },
                                    {
                                        "children": [],
                                        "depth": 2,
                                        "id": 22,
                                        "order": 22
                                    },
                                    {
                                        "children": [],
                                        "depth": 2,
                                        "id": 23,
                                        "order": 23
                                    },
                                    {
                                        "children": [],
                                        "depth": 2,
                                        "id": 24,
                                        "order": 24
                                    },
                                    {
                                        "children": [],
                                        "depth": 2,
                                        "id": 25,
                                        "order": 25
                                    },
                                    {
                                        "children": [],
                                        "depth": 2,
                                        "id": 26,
                                        "order": 26
                                    },
                                    {
                                        "children": [],
                                        "depth": 2,
                                        "id": 27,
                                        "order": 27
                                    },
                                    {
                                        "children": [],
                                        "depth": 2,
                                        "id": 28,
                                        "order": 28
                                    },
                                    {
                                        "children": [],
                                        "depth": 2,
                                        "id": 29,
                                        "order": 29
                                    },
                                    {
                                        "children": [],
                                        "depth": 2,
                                        "id": 30,
                                        "order": 30
                                    },
                                    {
                                        "children": [],
                                        "depth": 2,
                                        "id": 31,
                                        "order": 31
                                    },
                                    {
                                        "children": [],
                                        "depth": 2,
                                        "id": 32,
                                        "order": 32
                                    },
                                    {
                                        "children": [],
                                        "depth": 2,
                                        "id": 33,
                                        "order": 33
                                    },
                                    {
                                        "children": [],
                                        "depth": 2,
                                        "id": 34,
                                        "order": 34
                                    },
                                    {
                                        "children": [],
                                        "depth": 2,
                                        "id": 35,
                                        "order": 35
                                    },
                                    {
                                        "children": [],
                                        "depth": 2,
                                        "id": 36,
                                        "order": 36
                                    },
                                    {
                                        "children": [],
                                        "depth": 2,
                                        "id": 37,
                                        "order": 37
                                    },
                                    {
                                        "children": [],
                                        "depth": 2,
                                        "id": 38,
                                        "order": 38
                                    },
                                    {
                                        "children": [],
                                        "depth": 2,
                                        "id": 39,
                                        "order": 39
                                    },
                                    {
                                        "children": [],
                                        "depth": 2,
                                        "id": 40,
                                        "order": 40
                                    },
                                    {
                                        "children": [],
                                        "depth": 2,
                                        "id": 41,
                                        "order": 41
                                    },
                                    {
                                        "children": [],
                                        "depth": 2,
                                        "id": 42,
                                        "order": 42
                                    },
                                    {
                                        "children": [],
                                        "depth": 2,
                                        "id": 43,
                                        "order": 43
                                    },
                                    {
                                        "children": [],
                                        "depth": 2,
                                        "id": 44,
                                        "order": 44
                                    },
                                    {
                                        "children": [],
                                        "depth": 2,
                                        "id": 45,
                                        "order": 45
                                    },
                                    {
                                        "children": [],
                                        "depth": 2,
                                        "id": 46,
                                        "order": 46
                                    },
                                    {
                                        "children": [],
                                        "depth": 2,
                                        "id": 47,
                                        "order": 47
                                    },
                                    {
                                        "children": [],
                                        "depth": 2,
                                        "id": 48,
                                        "order": 48
                                    },
                                    {
                                        "children": [],
                                        "depth": 2,
                                        "id": 49,
                                        "order": 49
                                    },
                                    {
                                        "children": [],
                                        "depth": 2,
                                        "id": 50,
                                        "order": 50
                                    },
                                    {
                                        "children": [],
                                        "depth": 2,
                                        "id": 51,
                                        "order": 51
                                    },
                                    {
                                        "children": [],
                                        "depth": 2,
                                        "id": 52,
                                        "order": 52
                                    },
                                    {
                                        "children": [],
                                        "depth": 2,
                                        "id": 53,
                                        "order": 53
                                    },
                                    {
                                        "children": [],
                                        "depth": 2,
                                        "id": 54,
                                        "order": 54
                                    },
                                    {
                                        "children": [
                                            {
                                                "children": [
                                                    {
                                                        "children": [],
                                                        "depth": 4,
                                                        "id": 57,
                                                        "order": 57
                                                    },
                                                    {
                                                        "children": [],
                                                        "depth": 4,
                                                        "id": 58,
                                                        "order": 58
                                                    },
                                                    {
                                                        "children": [],
                                                        "depth": 4,
                                                        "id": 59,
                                                        "order": 59
                                                    },
                                                    {
                                                        "children": [],
                                                        "depth": 4,
                                                        "id": 60,
                                                        "order": 60
                                                    },
                                                    {
                                                        "children": [],
                                                        "depth": 4,
                                                        "id": 61,
                                                        "order": 61
                                                    }
                                                ],
                                                "depth": 3,
                                                "id": 56,
                                                "order": 56
                                            },
                                            {
                                                "children": [],
                                                "depth": 3,
                                                "id": 62,
                                                "order": 62
                                            },
                                            {
                                                "children": [],
                                                "depth": 3,
                                                "id": 63,
                                                "order": 63
                                            }
                                        ],
                                        "depth": 2,
                                        "id": 55,
                                        "order": 55
                                    }
                                ],
                                "depth": 1,
                                "id": 1,
                                "order": 1
                            }
                        ],
                        "depth": 0,
                        "id": 0,
                        "order": 0
                    }
                ],
                "depth": -1,
                "id": -1,
                "order": -1
            }
        ],
        "tidyTraceNodeCount": 64
    },
    "state_change": {
        "stateChanges": [
            {
                "address": "0x06a6a7af298129e3a2ab396c9c06f91d3c54aba8",
                "erc": "ERC-721",
                "slots": [
                    {
                        "current": "0x0000000000000000000000000000000000000000000000000000000000000076",
                        "key": "0x93b3ea830ebd69c22ef74f9910dbe372f939d028d4076bf99b88cca0d126e491",
                        "prev": "0x0000000000000000000000000000000000000000000000000000000000000000"
                    },
                    {
                        "current": "0x0000000000000000000000000000000000000000000000000000000000037b5c",
                        "key": "0x0000000000000000000000000000000000000000000000000000000000000008",
                        "prev": "0x0000000000000000000000000000000000000000000000000000000000037b5b"
                    },
                    {
                        "current": "0x00000000000000000000000000021f020054434332002e2c2a0000005d9cdda3",
                        "key": "0x8d1108e10bcb7c27dddfc02ed9d693a074039d026cf4ea4240b40f7d581e435d",
                        "prev": "0x0000000000000000000000000000000000000000000000000000000000000000"
                    },
                    {
                        "current": "0x000000000000000000000000000000000000000000000000000000000000082f",
                        "key": "0xa289e6dbbd3a1dadb4347efb576949b73a3f1797a2605dc7e861ad30f30b1228",
                        "prev": "0x00000000000000000000000000000000000000000000000000000000000007d6"
                    },
                    {
                        "current": "0x00000000000000000000000000082408e20b79025e000203070000005d9cdda3",
                        "key": "0x3fc987ba9dad01d727b360083b6fe825678d6f58ea154f50b8bd5d9910d65455",
                        "prev": "0x00000000000000000000000000081808d50b6803f7000203070000005d9c217e"
                    },
                    {
                        "current": "0x0000000000000000000000000000000000000000000000000000000000037b5c",
                        "key": "0x000000000000000000000000000000000000000000000000000000000000000f",
                        "prev": "0x0000000000000000000000000000000000000000000000000000000000037b5b"
                    },
                    {
                        "current": "0x00000000000000000000000000000000000000010f002e2c2a0000005d9cdda3",
                        "key": "0x7a62a9be2ea590a87efbb0ff3c174abe7090827bbc7c62e19b6cdce441b4fb55",
                        "prev": "0x0000000000000000000000000000000000000000000000000000000000000000"
                    },
                    {
                        "current": "0x0000000000000000000000000000240b911a610e0100161a170000005d9cdda3",
                        "key": "0x0162068da3f1a292c863d4cea724d44e7a2ec81cd7eab266e6f2471a2237ab5c",
                        "prev": "0x0000000000000000000000000000240f5d1db20e0100161a170000005d9cdda3"
                    },
                    {
                        "current": "0x0000000000000000000000000000000000000000000000000000000000037b5b",
                        "key": "0xd56e4c16d2aae5d6d0cf1e6855c7de238e0d6249ee00ec583db8a12c72d78ac3",
                        "prev": "0x0000000000000000000000000000000000000000000000000000000000000000"
                    },
                    {
                        "current": "0x0000000000000000000000002bf633dbf9ddb008c0943920c5d2de8f601d517a",
                        "key": "0xd9defcde78b1f04cd03ffb52cd2ca03d6276ed9aa1cf11a3d3fc430c97b5189e",
                        "prev": "0x0000000000000000000000000000000000000000000000000000000000000000"
                    },
                    {
                        "current": "0x00000000000000000000000000000000000000000000000000000000000000e4",
                        "key": "0xc3ed5400875103abdfd77c7031630063aedb957b8f03c49f0f7e0fcc749dce3c",
                        "prev": "0x00000000000000000000000000000000000000000000000000000000000000e3"
                    },
                    {
                        "current": "0x0000000000000000000000000000000000000000000000000000000000000077",
                        "key": "0xae61a1df5af38dfccafc30d23e27a4716afea4f461e74b8b49075dc02c0cad28",
                        "prev": "0x0000000000000000000000000000000000000000000000000000000000000076"
                    },
                    {
                        "current": "0x0000000000000000000000000000000000000000000000000000000000000077",
                        "key": "0xecfdd915e4bdbb0d5193391ddef72a902204e46fa7124773040cbd05c29f46d2",
                        "prev": "0x0000000000000000000000000000000000000000000000000000000000000076"
                    },
                    {
                        "current": "0x0000000000000000000000000000000000000000000000000000000000037b5b",
                        "key": "0xf3f7a9fe364faab93b216da50a3214154f22a0a2b415b23a84c8169e8b66ea3e",
                        "prev": "0x0000000000000000000000000000000000000000000000000000000000000000"
                    },
                    {
                        "current": "0x0000000000000000000000000000000000000000000000000000000000037b5b",
                        "key": "0xf1e634475fdd6925d40fe834783b8030fac4b30fcaaf09d4dfa05bafd42f37f7",
                        "prev": "0x0000000000000000000000000000000000000000000000000000000000000000"
                    }
                ],
                "storageVariables": [
                    {
                        "name": "planetStates",
                        "type": "mapping(uint256 => uint256)",
                        "value": {
                            "pairs": [
                                {
                                    "key": "175177",
                                    "value": {
                                        "current": "181545026605820393464109598168378989887675811",
                                        "prev": "180499661894330650916550702157782819461144958",
                                        "typeTag": 1
                                    }
                                },
                                {
                                    "key": "228187",
                                    "value": {
                                        "current": "83870655705125883822479302051",
                                        "prev": "0",
                                        "typeTag": 1
                                    }
                                },
                                {
                                    "key": "38621",
                                    "value": {
                                        "current": "3139978274607109572502441785077545297567139",
                                        "prev": "3141270301438778264231172475471354134322595",
                                        "typeTag": 1
                                    }
                                }
                            ],
                            "typeTag": 4
                        }
                    },
                    {
                        "name": "ownedTokensCount",
                        "type": "mapping(address => uint256)",
                        "value": {
                            "pairs": [
                                {
                                    "key": "0x2bf633dbf9ddb008c0943920c5d2de8f601d517a",
                                    "value": {
                                        "current": "119",
                                        "prev": "118",
                                        "typeTag": 1
                                    }
                                }
                            ],
                            "typeTag": 4
                        }
                    },
                    {
                        "name": "discoveredPlanetsCountMap",
                        "type": "mapping(uint256 => mapping(uint256 => uint256))",
                        "value": {
                            "pairs": [
                                {
                                    "key": "2",
                                    "value": {
                                        "pairs": [
                                            {
                                                "key": "31",
                                                "value": {
                                                    "current": "228",
                                                    "prev": "227",
                                                    "typeTag": 1
                                                }
                                            }
                                        ],
                                        "typeTag": 4
                                    }
                                }
                            ],
                            "typeTag": 4
                        }
                    },
                    {
                        "name": "allTokensIndex",
                        "type": "mapping(uint256 => uint256)",
                        "value": {
                            "pairs": [
                                {
                                    "key": "228187",
                                    "value": {
                                        "current": "228187",
                                        "prev": "0",
                                        "typeTag": 1
                                    }
                                }
                            ],
                            "typeTag": 4
                        }
                    },
                    {
                        "name": "ownerToKnowledge",
                        "type": "mapping(address => uint256)",
                        "value": {
                            "pairs": [
                                {
                                    "key": "0x2bf633dbf9ddb008c0943920c5d2de8f601d517a",
                                    "value": {
                                        "current": "2095",
                                        "prev": "2006",
                                        "typeTag": 1
                                    }
                                }
                            ],
                            "typeTag": 4
                        }
                    },
                    {
                        "name": "tokenOwner",
                        "type": "mapping(uint256 => address)",
                        "value": {
                            "pairs": [
                                {
                                    "key": "228187",
                                    "value": {
                                        "current": "0x2bf633dbf9ddb008c0943920c5d2de8f601d517a",
                                        "prev": "0x0000000000000000000000000000000000000000",
                                        "typeTag": 1
                                    }
                                }
                            ],
                            "typeTag": 4
                        }
                    },
                    {
                        "name": "ownedTokens",
                        "type": "mapping(address => uint256[])",
                        "value": {
                            "pairs": [
                                {
                                    "key": "0x2bf633dbf9ddb008c0943920c5d2de8f601d517a",
                                    "value": {
                                        "elemType": "uint256",
                                        "elems": [
                                            {
                                                "index": 118,
                                                "value": {
                                                    "current": "228187",
                                                    "prev": "0",
                                                    "typeTag": 1
                                                }
                                            }
                                        ],
                                        "typeTag": 2
                                    }
                                }
                            ],
                            "typeTag": 4
                        }
                    },
                    {
                        "name": "ownedTokensIndex",
                        "type": "mapping(uint256 => uint256)",
                        "value": {
                            "pairs": [
                                {
                                    "key": "228187",
                                    "value": {
                                        "current": "118",
                                        "prev": "0",
                                        "typeTag": 1
                                    }
                                }
                            ],
                            "typeTag": 4
                        }
                    },
                    {
                        "name": "planets",
                        "type": "uint256[]",
                        "value": {
                            "elemType": "uint256",
                            "elems": [
                                {
                                    "index": 228187,
                                    "value": {
                                        "current": "47302652263196837127770877213298658312510883",
                                        "prev": "0",
                                        "typeTag": 1
                                    }
                                }
                            ],
                            "typeTag": 2
                        }
                    },
                    {
                        "name": "allTokens",
                        "type": "uint256[]",
                        "value": {
                            "elemType": "uint256",
                            "elems": [
                                {
                                    "index": 228187,
                                    "value": {
                                        "current": "228187",
                                        "prev": "0",
                                        "typeTag": 1
                                    }
                                }
                            ],
                            "typeTag": 2
                        }
                    }
                ]
            },
            {
                "address": "0x2de440a27d6f4b525d19154dcd0c8d02955585df",
                "erc": "",
                "slots": [
                    {
                        "current": "0x0000000000000000000000000000000005b204fa0000001a170301a70008000f",
                        "key": "0x224c953dfb610d35f4ab08d51062e62b45cbe30b250f759373204761a112e4b9",
                        "prev": "0x0000000000000000000000000000000003cc03510000001a170301a70008000f"
                    }
                ],
                "storageVariables": []
            },
            {
                "address": "0x340113cd9eceedc5ae1f08bc391f120daf53277a",
                "erc": "",
                "slots": [
                    {
                        "current": "0x0000000000000000000000000000000000000000000000000000000008d68d73",
                        "key": "0x0000000000000000000000000000000000000000000000000000000000000002",
                        "prev": "0x0000000000000000000000000000000000000000000000000000000008d68b33"
                    }
                ],
                "storageVariables": []
            },
            {
                "address": "0xf0155486a14539f784739be1c02e93f28eb8e960",
                "erc": "",
                "slots": [
                    {
                        "current": "0x000000000000000000000000000000000000000000000000000000000f5e9800",
                        "key": "0x0000000000000000000000000000000000000000000000000000000000000007",
                        "prev": "0x000000000000000000000000000000000000000000000000000000000f5e9628"
                    }
                ],
                "storageVariables": []
            }
        ]
    }
}