{
    "balance_change": {
        "balanceChanges": []
    },
    "profile": {
        "basic_info": {
            "baseFee": "1.249320409",
            "blockNumber": 20675790,
            "callData": "0x095ea7b30000000000000000000000006131b5fae19ea4f9d964eac0408e4408b66337b50000000000000000000000000000000000000000000007771fab8f3ff4d90000",
            "debugEnable": true,
            "errorInfo": "",
            "eventCount": 1,
            "feeRecipient": "0x388c818ca8b9251b393131c08a736a67ccb19297",
            "formatValue": "0",
            "gasLimit": 47307,
            "gasPrice": "1.749320409",
            "gasUsed": 46923,
            "intTxnCount": 0,
            "internalRevert": false,
            "internalRevertMessage": "",
            "isContractCreation": false,
            "isFlashloan": false,
            "maxFee": "2.162556813",
            "nonce": 399,
            "overwritedBlockNumber": -1,
            "priorityFee": "0.5",
            "receiver": "0xc328a59e7321747aebbc49fd28d1b32c1af8d3b2",
            "revertMessage": "",
            "sender": "0xa702e574fbb204cd2ee323faa397e91274d69404",
            "simulationEnable": true,
            "sourceTxnHash": "0x4279a3532ae88c2fccbbd16f3d31c3199d4907679a22722528776b85a7815b17",
            "status": true,
            "timestamp": "2024-09-04T07:41:59Z",
            "transactionFee": "0.000082083361551507",
            "txnHash": "0x4279a3532ae88c2fccbbd16f3d31c3199d4907679a22722528776b85a7815b17",
            "txnIndex": 48,
            "type": 2,
            "value": "0"
        },
        "fund_flow": [],
        "token_infos": [
            {
                "address": "0xc02aaa39b223fe8d0a0e5c4f27ead9083c756cc2",
                "decimals": 18
            },
            {
                "address": "0xeeeeeeeeeeeeeeeeeeeeeeeeeeeeeeeeeeeeeeee",
                "decimals": 18
            }
        ]
    },
    "address_label": {
        "labels": [
            {
                "address": "0x388c818ca8b9251b393131c08a736a67ccb19297",
                "label": "LidoExecutionLayerRewardsVault"
            },
            {
                "address": "0x0000000000000000000000000000000000000001",
                "label": "Precompiled"
            },
            {
                "address": "0x0000000000000000000000000000000000000002",
                "label": "Precompiled"
            },
            {
                "address": "0x0000000000000000000000000000000000000003",
                "label": "Precompiled"
            },
            {
                "address": "0x0000000000000000000000000000000000000004",
                "label": "Precompiled"
            },
            {
                "address": "0xeeeeeeeeeeeeeeeeeeeeeeeeeeeeeeeeeeeeeeee",
                "label": "Ether"
            },
            {
                "address": "0x6131b5fae19ea4f9d964eac0408e4408b66337b5",
                "label": "KyberSwap: Meta Aggregation Router v2"
            },
            {
                "address": "0xc328a59e7321747aebbc49fd28d1b32c1af8d3b2",
                "label": "PHIL"
            }
        ]
    },
    "trace": {
        "accountLabels": null,
        "dataMap": {
            "-1": {
                "invocation": {
                    "address": "0xa702e574fbb204cd2ee323faa397e91274d69404",
                    "callData": "",
                    "decodedMethod": null,
                    "errorInfo": "",
                    "fromAddress": "",
                    "gasUsed": 0,
                    "id": -1,
                    "methodDecoded": false,
                    "operation": "",
                    "output": "",
                    "revert": false,
                    "revertMessage": "",
                    "selector": "",
                    "status": false,
                    "value": ""
                },
                "nodeType": 0
            },
            "0": {
                "invocation": {
                    "address": "0xc328a59e7321747aebbc49fd28d1b32c1af8d3b2",
                    "callData": "0x0000000000000000000000006131b5fae19ea4f9d964eac0408e4408b66337b50000000000000000000000000000000000000000000007771fab8f3ff4d90000",
                    "decodedMethod": {
                        "callParams": [
                            {
                                "name": "spender",
                                "type": "address",
                                "value": "0x6131b5fae19ea4f9d964eac0408e4408b66337b5"
                            },
                            {
                                "decimalAvailable": true,
                                "name": "amount",
                                "type": "uint256",
                                "value": "35,254,010,000,000,000,000,000"
                            }
                        ],
                        "constructorArguments": "",
                        "name": "approve",
                        "returnParams": [
                            {
                                "name": "",
                                "type": "bool",
                                "value": true
                            }
                        ],
                        "signature": "approve(address,uint256)"
                    },
                    "errorInfo": "",
                    "fromAddress": "0xa702e574fbb204cd2ee323faa397e91274d69404",
                    "gasUsed": 46923,
                    "id": 0,
                    "methodDecoded": true,
                    "operation": "CALL",
                    "output": "0x0000000000000000000000000000000000000000000000000000000000000001",
                    "revert": false,
                    "revertMessage": "",
                    "selector": "0x095ea7b3",
                    "status": true,
                    "value": "0"
                },
                "nodeType": 0
            },
            "1": {
                "event": {
                    "contract": "0xc328a59e7321747aebbc49fd28d1b32c1af8d3b2",
                    "decodedLog": {
                        "name": "Approval",
                        "params": [
                            {
                                "name": "owner",
                                "type": "address",
                                "value": "0xa702e574fbb204cd2ee323faa397e91274d69404"
                            },
                            {
                                "name": "spender",
                                "type": "address",
                                "value": "0x6131b5fae19ea4f9d964eac0408e4408b66337b5"
                            },
                            {
                                "decimalAvailable": true,
                                "name": "value",
                                "type": "uint256",
                                "value": "35,254,010,000,000,000,000,000"
                            }
                        ],
                        "signature": "Approval(address,address,uint256)"
                    },
                    "id": 1,
                    "logData": "0x0000000000000000000000000000000000000000000007771fab8f3ff4d90000",
                    "logDecoded": true,
                    "operation": "EVENT",
                    "revert": false,
                    "status": true,
                    "topics": [
                        "0x8c5be1e5ebec7d5bd14f71427d1e84f3dd0314c0f7b2291e5b200ac8c7c3b925",
                        "0x000000000000000000000000a702e574fbb204cd2ee323faa397e91274d69404",
                        "0x0000000000000000000000006131b5fae19ea4f9d964eac0408e4408b66337b5"
                    ]
                },
                "nodeType": 1
            }
        },
        "gasFlame": [
            {
                "children": [
                    {
                        "children": [
                            {
                                "children": [],
                                "depth": 0,
                                "name": "Initial Gas",
                                "value": 21656
                            },
                            {
                                "children": [],
                                "depth": 0,
                                "name": "Executed Gas",
                                "value": 25267
                            }
                        ],
                        "depth": -1,
                        "name": "Actual Gas Used",
                        "value": 46923
                    },
                    {
                        "children": [],
                        "depth": -1,
                        "name": "Refunded Gas",
                        "value": 0
                    }
                ],
                "depth": -2,
                "name": "Total Gas",
                "value": 46923
            }
        ],
        "isConfirmed": true,
        "mainTrace": [
            {
                "children": [
                    {
                        "children": [
                            {
                                "children": [],
                                "depth": 1,
                                "id": 1,
                                "order": 1
                            }
                        ],
                        "depth": 0,
                        "id": 0,
                        "order": 0
                    }
                ],
                "depth": -1,
                "id": -1,
                "order": -1
            }
        ],
        "mainTraceNodeCount": 2,
        "parentIdMap": {
            "0": -1,
            "1": 0
        },
        "tidyTrace": [
            {
                "children": [
                    {
                        "children": [
                            {
                                "children": [],
                                "depth": 1,
                                "id": 1,
                                "order": 1
                            }
                        ],
                        "depth": 0,
                        "id": 0,
                        "order": 0
                    }
                ],
                "depth": -1,
                "id": -1,
                "order": -1
            }
        ],
        "tidyTraceNodeCount": 2
    },
    "state_change": {
        "stateChanges": [
            {
                "address": "0xc328a59e7321747aebbc49fd28d1b32c1af8d3b2",
                "erc": "ERC-20",
                "slots": [
                    {
                        "current": "0x0000000000000000000000000000000000000000000007771fab8f3ff4d90000",
                        "key": "0x7c51f48864ba7024c469a4b380800c8f17d21868d4800fe9f7ea7cfa3b0a45de",
                        "prev": "0x0000000000000000000000000000000000000000000000000000000000000000"
                    }
                ],
                "storageVariables": [
                    {
                        "name": "_allowances",
                        "type": "mapping(address => mapping(address => uint256))",
                        "value": {
                            "pairs": [
                                {
                                    "key": "0xa702e574fbb204cd2ee323faa397e91274d69404",
                                    "value": {
                                        "pairs": [
                                            {
                                                "key": "0x6131b5fae19ea4f9d964eac0408e4408b66337b5",
                                                "value": {
                                                    "current": "35254010000000000000000",
                                                    "prev": "0",
                                                    "typeTag": 1
                                                }
                                            }
                                        ],
                                        "typeTag": 4
                                    }
                                }
                            ],
                            "typeTag": 4
                        }
                    }
                ]
            }
        ]
    }
}