{
    "balance_change": {
        "balanceChanges": []
    },
    "profile": {
        "basic_info": {
            "baseFee": "82.009946835",
            "blockNumber": 13655256,
            "callData": "0x095ea7b300000000000000000000000074b988156925937bd4e082f0ed7429da8eaea8db000000000000000000000000000000000000000000000000000009184e72a000",
            "debugEnable": true,
            "errorInfo": "",
            "eventCount": 1,
            "feeRecipient": "0x0708f87a089a91c65d48721aa941084648562287",
            "formatValue": "0",
            "gasLimit": 69375,
            "gasPrice": "84.509946835",
            "gasUsed": 46250,
            "intTxnCount": 0,
            "internalRevert": false,
            "internalRevertMessage": "",
            "isContractCreation": false,
            "isFlashloan": false,
            "maxFee": "163.760906196",
            "nonce": 374,
            "overwritedBlockNumber": -1,
            "priorityFee": "2.5",
            "receiver": "0xd5525d397898e5502075ea5e830d8914f6f0affe",
            "revertMessage": "",
            "sender": "0x7c99670ecc3a57cd1a8d1bdfc8e2ff5b4527b382",
            "simulationEnable": true,
            "sourceTxnHash": "0x431741a876466674afbe9668f9009c79422b4c4518adddea7837b40647060406",
            "status": true,
            "timestamp": "2021-11-21T01:19:32Z",
            "transactionFee": "0.00390858504111875",
            "txnHash": "0x431741a876466674afbe9668f9009c79422b4c4518adddea7837b40647060406",
            "txnIndex": 32,
            "type": 2,
            "value": "0"
        },
        "fund_flow": [],
        "token_infos": [
            {
                "address": "0xc02aaa39b223fe8d0a0e5c4f27ead9083c756cc2",
                "decimals": 18
            },
            {
                "address": "0xeeeeeeeeeeeeeeeeeeeeeeeeeeeeeeeeeeeeeeee",
                "decimals": 18
            }
        ]
    },
    "address_label": {
        "labels": [
            {
                "address": "0x0000000000000000000000000000000000000001",
                "label": "Precompiled"
            },
            {
                "address": "0x0000000000000000000000000000000000000002",
                "label": "Precompiled"
            },
            {
                "address": "0x0000000000000000000000000000000000000003",
                "label": "Precompiled"
            },
            {
                "address": "0x0000000000000000000000000000000000000004",
                "label": "Precompiled"
            },
            {
                "address": "0xeeeeeeeeeeeeeeeeeeeeeeeeeeeeeeeeeeeeeeee",
                "label": "Ether"
            },
            {
                "address": "0x74b988156925937bd4e082f0ed7429da8eaea8db",
                "label": "MEME Inu. (MEME)"
            },
            {
                "address": "0xd5525d397898e5502075ea5e830d8914f6f0affe",
                "label": "MEME (MEME)"
            }
        ]
    },
    "trace": {
        "accountLabels": null,
        "dataMap": {
            "-1": {
                "invocation": {
                    "address": "0x7c99670ecc3a57cd1a8d1bdfc8e2ff5b4527b382",
                    "callData": "",
                    "decodedMethod": null,
                    "errorInfo": "",
                    "fromAddress": "",
                    "gasUsed": 0,
                    "id": -1,
                    "methodDecoded": false,
                    "operation": "",
                    "output": "",
                    "revert": false,
                    "revertMessage": "",
                    "selector": "",
                    "status": false,
                    "value": ""
                },
                "nodeType": 0
            },
            "0": {
                "invocation": {
                    "address": "0xd5525d397898e5502075ea5e830d8914f6f0affe",
                    "callData": "0x00000000000000000000000074b988156925937bd4e082f0ed7429da8eaea8db000000000000000000000000000000000000000000000000000009184e72a000",
                    "decodedMethod": {
                        "callParams": [
                            {
                                "name": "spender",
                                "type": "address",
                                "value": "0x74b988156925937bd4e082f0ed7429da8eaea8db"
                            },
                            {
                                "decimalAvailable": true,
                                "name": "amount",
                                "type": "uint256",
                                "value": "10,000,000,000,000"
                            }
                        ],
                        "constructorArguments": "",
                        "name": "approve",
                        "returnParams": [
                            {
                                "name": "",
                                "type": "bool",
                                "value": true
                            }
                        ],
                        "signature": "approve(address,uint256)"
                    },
                    "errorInfo": "",
                    "fromAddress": "0x7c99670ecc3a57cd1a8d1bdfc8e2ff5b4527b382",
                    "gasUsed": 46250,
                    "id": 0,
                    "methodDecoded": true,
                    "operation": "CALL",
                    "output": "0x0000000000000000000000000000000000000000000000000000000000000001",
                    "revert": false,
                    "revertMessage": "",
                    "selector": "0x095ea7b3",
                    "status": true,
                    "value": "0"
                },
                "nodeType": 0
            },
            "1": {
                "event": {
                    "contract": "0xd5525d397898e5502075ea5e830d8914f6f0affe",
                    "decodedLog": {
                        "name": "Approval",
                        "params": [
                            {
                                "name": "owner",
                                "type": "address",
                                "value": "0x7c99670ecc3a57cd1a8d1bdfc8e2ff5b4527b382"
                            },
                            {
                                "name": "spender",
                                "type": "address",
                                "value": "0x74b988156925937bd4e082f0ed7429da8eaea8db"
                            },
                            {
                                "decimalAvailable": true,
                                "name": "value",
                                "type": "uint256",
                                "value": "10,000,000,000,000"
                            }
                        ],
                        "signature": "Approval(address,address,uint256)"
                    },
                    "id": 1,
                    "logData": "0x000000000000000000000000000000000000000000000000000009184e72a000",
                    "logDecoded": true,
                    "operation": "EVENT",
                    "revert": false,
                    "status": true,
                    "topics": [
                        "0x8c5be1e5ebec7d5bd14f71427d1e84f3dd0314c0f7b2291e5b200ac8c7c3b925",
                        "0x0000000000000000000000007c99670ecc3a57cd1a8d1bdfc8e2ff5b4527b382",
                        "0x00000000000000000000000074b988156925937bd4e082f0ed7429da8eaea8db"
                    ]
                },
                "nodeType": 1
            }
        },
        "gasFlame": [
            {
                "children": [
                    {
                        "children": [
                            {
                                "children": [],
                                "depth": 0,
                                "name": "Initial Gas",
                                "value": 21620
                            },
                            {
                                "children": [],
                                "depth": 0,
                                "name": "Executed Gas",
                                "value": 24630
                            }
                        ],
                        "depth": -1,
                        "name": "Actual Gas Used",
                        "value": 46250
                    },
                    {
                        "children": [],
                        "depth": -1,
                        "name": "Refunded Gas",
                        "value": 0
                    }
                ],
                "depth": -2,
                "name": "Total Gas",
                "value": 46250
            }
        ],
        "isConfirmed": true,
        "mainTrace": [
            {
                "children": [
                    {
                        "children": [
                            {
                                "children": [],
                                "depth": 1,
                                "id": 1,
                                "order": 1
                            }
                        ],
                        "depth": 0,
                        "id": 0,
                        "order": 0
                    }
                ],
                "depth": -1,
                "id": -1,
                "order": -1
            }
        ],
        "mainTraceNodeCount": 2,
        "parentIdMap": {
            "0": -1,
            "1": 0
        },
        "tidyTrace": [
            {
                "children": [
                    {
                        "children": [
                            {
                                "children": [],
                                "depth": 1,
                                "id": 1,
                                "order": 1
                            }
                        ],
                        "depth": 0,
                        "id": 0,
                        "order": 0
                    }
                ],
                "depth": -1,
                "id": -1,
                "order": -1
            }
        ],
        "tidyTraceNodeCount": 2
    },
    "state_change": {
        "stateChanges": [
            {
                "address": "0xd5525d397898e5502075ea5e830d8914f6f0affe",
                "erc": "ERC-20",
                "slots": [
                    {
                        "current": "0x000000000000000000000000000000000000000000000000000009184e72a000",
                        "key": "0x1862701b95e57de4febb20c773ba02259d511936d102b4093c29c221755f6423",
                        "prev": "0x0000000000000000000000000000000000000000000000000000000000000000"
                    }
                ],
                "storageVariables": [
                    {
                        "name": "_allowances",
                        "type": "mapping(address => mapping(address => uint256))",
                        "value": {
                            "pairs": [
                                {
                                    "key": "0x7c99670ecc3a57cd1a8d1bdfc8e2ff5b4527b382",
                                    "value": {
                                        "pairs": [
                                            {
                                                "key": "0x74b988156925937bd4e082f0ed7429da8eaea8db",
                                                "value": {
                                                    "current": "10000000000000",
                                                    "prev": "0",
                                                    "typeTag": 1
                                                }
                                            }
                                        ],
                                        "typeTag": 4
                                    }
                                }
                            ],
                            "typeTag": 4
                        }
                    }
                ]
            }
        ]
    }
}