{
    "balance_change": {
        "balanceChanges": [
            {
                "account": "0xcc6ec82870e560388309f1c02b85ed410d949f2d",
                "assets": [
                    {
                        "address": "0x3136ef851592acf49ca4c825131e364170fa32b3",
                        "amount": "500",
                        "iconUrl": "https://assets.blocksec.com/icon/845a7f3468f1c87c936b49c4ceb98c47f57256f0a70bd28f903bab7ad646d24c.png",
                        "isERC1155": false,
                        "isERC721": false,
                        "sign": false,
                        "value": ""
                    }
                ]
            },
            {
                "account": "0x5dcce716bdfc42a1b1486ab1f5d63b97fe6c5cb0",
                "assets": [
                    {
                        "address": "0x3136ef851592acf49ca4c825131e364170fa32b3",
                        "amount": "500",
                        "iconUrl": "https://assets.blocksec.com/icon/845a7f3468f1c87c936b49c4ceb98c47f57256f0a70bd28f903bab7ad646d24c.png",
                        "isERC1155": false,
                        "isERC721": false,
                        "sign": true,
                        "value": ""
                    }
                ]
            }
        ]
    },
    "profile": {
        "basic_info": {
            "baseFee": "",
            "blockNumber": 5381737,
            "callData": "0xa9059cbb0000000000000000000000005dcce716bdfc42a1b1486ab1f5d63b97fe6c5cb000000000000000000000000000000000000000000000001b1ae4d6e2ef500000",
            "debugEnable": true,
            "errorInfo": "",
            "eventCount": 1,
            "feeRecipient": "0x52e44f279f4203dcf680395379e5f9990a69f13c",
            "formatValue": "0",
            "gasLimit": 52746,
            "gasPrice": "41",
            "gasUsed": 37746,
            "intTxnCount": 0,
            "internalRevert": false,
            "internalRevertMessage": "",
            "isContractCreation": false,
            "isFlashloan": false,
            "maxFee": "",
            "nonce": 22,
            "overwritedBlockNumber": -1,
            "priorityFee": "",
            "receiver": "0x3136ef851592acf49ca4c825131e364170fa32b3",
            "revertMessage": "",
            "sender": "0xcc6ec82870e560388309f1c02b85ed410d949f2d",
            "simulationEnable": true,
            "sourceTxnHash": "0x4359b1676bdff1f0c54836b68451adea412a1af69c7e6463cc27c6d53b75561b",
            "status": true,
            "timestamp": "2018-04-04T23:15:37Z",
            "transactionFee": "0.001547586",
            "txnHash": "0x4359b1676bdff1f0c54836b68451adea412a1af69c7e6463cc27c6d53b75561b",
            "txnIndex": 1,
            "type": 0,
            "value": "0"
        },
        "fund_flow": [
            {
                "amount": "500",
                "from": "0xcc6ec82870e560388309f1c02b85ed410d949f2d",
                "id": 1,
                "isERC1155": false,
                "isERC721": false,
                "isReverted": false,
                "order": 1,
                "to": "0x5dcce716bdfc42a1b1486ab1f5d63b97fe6c5cb0",
                "token": "0x3136ef851592acf49ca4c825131e364170fa32b3"
            }
        ],
        "token_infos": [
            {
                "address": "0x3136ef851592acf49ca4c825131e364170fa32b3",
                "decimals": 18
            },
            {
                "address": "0xc02aaa39b223fe8d0a0e5c4f27ead9083c756cc2",
                "decimals": 18
            },
            {
                "address": "0xeeeeeeeeeeeeeeeeeeeeeeeeeeeeeeeeeeeeeeee",
                "decimals": 18
            }
        ]
    },
    "address_label": {
        "labels": [
            {
                "address": "0x0000000000000000000000000000000000000003",
                "label": "Precompiled"
            },
            {
                "address": "0x0000000000000000000000000000000000000004",
                "label": "Precompiled"
            },
            {
                "address": "0xeeeeeeeeeeeeeeeeeeeeeeeeeeeeeeeeeeeeeeee",
                "label": "Ether"
            },
            {
                "address": "0x5dcce716bdfc42a1b1486ab1f5d63b97fe6c5cb0",
                "label": "KUCOIN"
            },
            {
                "address": "0x3136ef851592acf49ca4c825131e364170fa32b3",
                "label": "CoinFi: COFI Token"
            },
            {
                "address": "0x0000000000000000000000000000000000000001",
                "label": "Precompiled"
            },
            {
                "address": "0x0000000000000000000000000000000000000002",
                "label": "Precompiled"
            }
        ]
    },
    "trace": {
        "accountLabels": null,
        "dataMap": {
            "-1": {
                "invocation": {
                    "address": "0xcc6ec82870e560388309f1c02b85ed410d949f2d",
                    "callData": "",
                    "decodedMethod": null,
                    "errorInfo": "",
                    "fromAddress": "",
                    "gasUsed": 0,
                    "id": -1,
                    "methodDecoded": false,
                    "operation": "",
                    "output": "",
                    "revert": false,
                    "revertMessage": "",
                    "selector": "",
                    "status": false,
                    "value": ""
                },
                "nodeType": 0
            },
            "0": {
                "invocation": {
                    "address": "0x3136ef851592acf49ca4c825131e364170fa32b3",
                    "callData": "0x0000000000000000000000005dcce716bdfc42a1b1486ab1f5d63b97fe6c5cb000000000000000000000000000000000000000000000001b1ae4d6e2ef500000",
                    "decodedMethod": {
                        "callParams": [
                            {
                                "name": "_to",
                                "type": "address",
                                "value": "0x5dcce716bdfc42a1b1486ab1f5d63b97fe6c5cb0"
                            },
                            {
                                "decimalAvailable": true,
                                "name": "_value",
                                "type": "uint256",
                                "value": "500,000,000,000,000,000,000"
                            }
                        ],
                        "constructorArguments": "",
                        "name": "transfer",
                        "returnParams": [
                            {
                                "name": "",
                                "type": "bool",
                                "value": true
                            }
                        ],
                        "signature": "transfer(address,uint256)"
                    },
                    "errorInfo": "",
                    "fromAddress": "0xcc6ec82870e560388309f1c02b85ed410d949f2d",
                    "gasUsed": 37746,
                    "id": 0,
                    "methodDecoded": true,
                    "operation": "CALL",
                    "output": "0x0000000000000000000000000000000000000000000000000000000000000001",
                    "revert": false,
                    "revertMessage": "",
                    "selector": "0xa9059cbb",
                    "status": true,
                    "value": "0"
                },
                "nodeType": 0
            },
            "1": {
                "event": {
                    "contract": "0x3136ef851592acf49ca4c825131e364170fa32b3",
                    "decodedLog": {
                        "name": "Transfer",
                        "params": [
                            {
                                "name": "from",
                                "type": "address",
                                "value": "0xcc6ec82870e560388309f1c02b85ed410d949f2d"
                            },
                            {
                                "name": "to",
                                "type": "address",
                                "value": "0x5dcce716bdfc42a1b1486ab1f5d63b97fe6c5cb0"
                            },
                            {
                                "decimalAvailable": true,
                                "name": "value",
                                "type": "uint256",
                                "value": "500,000,000,000,000,000,000"
                            }
                        ],
                        "signature": "Transfer(address,address,uint256)"
                    },
                    "id": 1,
                    "logData": "0x00000000000000000000000000000000000000000000001b1ae4d6e2ef500000",
                    "logDecoded": true,
                    "operation": "EVENT",
                    "revert": false,
                    "status": true,
                    "topics": [
                        "0xddf252ad1be2c89b69c2b068fc378daa952ba7f163c4a11628f55a4df523b3ef",
                        "0x000000000000000000000000cc6ec82870e560388309f1c02b85ed410d949f2d",
                        "0x0000000000000000000000005dcce716bdfc42a1b1486ab1f5d63b97fe6c5cb0"
                    ]
                },
                "nodeType": 1
            }
        },
        "gasFlame": [
            {
                "children": [
                    {
                        "children": [
                            {
                                "children": [],
                                "depth": 0,
                                "name": "Initial Gas",
                                "value": 23256
                            },
                            {
                                "children": [],
                                "depth": 0,
                                "name": "Executed Gas",
                                "value": 29490
                            }
                        ],
                        "depth": -1,
                        "name": "Actual Gas Used",
                        "value": 37746
                    },
                    {
                        "children": [],
                        "depth": -1,
                        "name": "Refunded Gas",
                        "value": 15000
                    }
                ],
                "depth": -2,
                "name": "Total Gas",
                "value": 52746
            }
        ],
        "isConfirmed": true,
        "mainTrace": [
            {
                "children": [
                    {
                        "children": [
                            {
                                "children": [],
                                "depth": 1,
                                "id": 1,
                                "order": 1
                            }
                        ],
                        "depth": 0,
                        "id": 0,
                        "order": 0
                    }
                ],
                "depth": -1,
                "id": -1,
                "order": -1
            }
        ],
        "mainTraceNodeCount": 2,
        "parentIdMap": {
            "0": -1,
            "1": 0
        },
        "tidyTrace": [
            {
                "children": [
                    {
                        "children": [
                            {
                                "children": [],
                                "depth": 1,
                                "id": 1,
                                "order": 1
                            }
                        ],
                        "depth": 0,
                        "id": 0,
                        "order": 0
                    }
                ],
                "depth": -1,
                "id": -1,
                "order": -1
            }
        ],
        "tidyTraceNodeCount": 2
    },
    "state_change": {
        "stateChanges": [
            {
                "address": "0x3136ef851592acf49ca4c825131e364170fa32b3",
                "erc": "ERC-20",
                "slots": [
                    {
                        "current": "0x0000000000000000000000000000000000000000000000000000000000000000",
                        "key": "0xdcbaf49f1a9d4576e456608953713b0fa14837d394f475cb245b7d71e10af1de",
                        "prev": "0x00000000000000000000000000000000000000000000001b1ae4d6e2ef500000"
                    },
                    {
                        "current": "0x00000000000000000000000000000000000000000000001b1ae4d6e2ef500000",
                        "key": "0x6ad2c3285376b67e1df2206b26c089d4d47b9b34c2c73ef43e52423bf0fb35d1",
                        "prev": "0x0000000000000000000000000000000000000000000000000000000000000000"
                    }
                ],
                "storageVariables": [
                    {
                        "name": "balances",
                        "type": "mapping(address => uint256)",
                        "value": {
                            "pairs": [
                                {
                                    "key": "0x5dcce716bdfc42a1b1486ab1f5d63b97fe6c5cb0",
                                    "value": {
                                        "current": "500000000000000000000",
                                        "prev": "0",
                                        "typeTag": 1
                                    }
                                },
                                {
                                    "key": "0xcc6ec82870e560388309f1c02b85ed410d949f2d",
                                    "value": {
                                        "current": "0",
                                        "prev": "500000000000000000000",
                                        "typeTag": 1
                                    }
                                }
                            ],
                            "typeTag": 4
                        }
                    }
                ]
            }
        ]
    }
}