{
    "balance_change": {
        "balanceChanges": [
            {
                "account": "0x75be61207d33a2f1d76ad68ba98b5ce0b589f481",
                "assets": [
                    {
                        "address": "0xeeeeeeeeeeeeeeeeeeeeeeeeeeeeeeeeeeeeeeee",
                        "amount": "0.03",
                        "iconUrl": "https://assets.blocksec.com/image/1663669189317-3.png",
                        "isERC1155": false,
                        "isERC721": false,
                        "sign": false,
                        "value": ""
                    }
                ]
            },
            {
                "account": "0x59d1e2b95987317885144d3b1e2847481ef04d71",
                "assets": [
                    {
                        "address": "0xeeeeeeeeeeeeeeeeeeeeeeeeeeeeeeeeeeeeeeee",
                        "amount": "0.03",
                        "iconUrl": "https://assets.blocksec.com/image/1663669189317-3.png",
                        "isERC1155": false,
                        "isERC721": false,
                        "sign": true,
                        "value": ""
                    }
                ]
            }
        ]
    },
    "profile": {
        "basic_info": {
            "baseFee": "",
            "blockNumber": 9978927,
            "callData": "0x8853b53e0000000000000000000000000000000000000000000000000000000000047b05",
            "debugEnable": true,
            "errorInfo": "",
            "eventCount": 2,
            "feeRecipient": "0x5a0b54d5dc17e0aadc383d2db43b0a0d3e029c4c",
            "formatValue": "0.03",
            "gasLimit": 238889,
            "gasPrice": "16.5",
            "gasUsed": 183761,
            "intTxnCount": 1,
            "internalRevert": false,
            "internalRevertMessage": "",
            "isContractCreation": false,
            "isFlashloan": false,
            "maxFee": "",
            "nonce": 0,
            "overwritedBlockNumber": -1,
            "priorityFee": "",
            "receiver": "0xbcf935d206ca32929e1b887a07ed240f0d8ccd22",
            "revertMessage": "",
            "sender": "0x75be61207d33a2f1d76ad68ba98b5ce0b589f481",
            "simulationEnable": true,
            "sourceTxnHash": "0x43fea01b8dc9c326e16edd4f45753636d4b37270f1974f364a17487d9408d3be",
            "status": true,
            "timestamp": "2020-05-01T07:14:17Z",
            "transactionFee": "0.0030320565",
            "txnHash": "0x43fea01b8dc9c326e16edd4f45753636d4b37270f1974f364a17487d9408d3be",
            "txnIndex": 75,
            "type": 0,
            "value": "30000000000000000"
        },
        "fund_flow": [
            {
                "amount": "0.03",
                "from": "0x75be61207d33a2f1d76ad68ba98b5ce0b589f481",
                "id": 1,
                "isERC1155": false,
                "isERC721": false,
                "isReverted": false,
                "order": 1,
                "to": "0xbcf935d206ca32929e1b887a07ed240f0d8ccd22",
                "token": "0xeeeeeeeeeeeeeeeeeeeeeeeeeeeeeeeeeeeeeeee"
            },
            {
                "amount": "0.03",
                "from": "0xbcf935d206ca32929e1b887a07ed240f0d8ccd22",
                "id": 2,
                "isERC1155": false,
                "isERC721": false,
                "isReverted": false,
                "order": 2,
                "to": "0x59d1e2b95987317885144d3b1e2847481ef04d71",
                "token": "0xeeeeeeeeeeeeeeeeeeeeeeeeeeeeeeeeeeeeeeee"
            }
        ],
        "token_infos": [
            {
                "address": "0xc02aaa39b223fe8d0a0e5c4f27ead9083c756cc2",
                "decimals": 18
            },
            {
                "address": "0xeeeeeeeeeeeeeeeeeeeeeeeeeeeeeeeeeeeeeeee",
                "decimals": 18
            }
        ]
    },
    "address_label": {
        "labels": [
            {
                "address": "0x0000000000000000000000000000000000000002",
                "label": "Precompiled"
            },
            {
                "address": "0x0000000000000000000000000000000000000003",
                "label": "Precompiled"
            },
            {
                "address": "0x0000000000000000000000000000000000000004",
                "label": "Precompiled"
            },
            {
                "address": "0xeeeeeeeeeeeeeeeeeeeeeeeeeeeeeeeeeeeeeeee",
                "label": "Ether"
            },
            {
                "address": "0xbcf935d206ca32929e1b887a07ed240f0d8ccd22",
                "label": "Million.Money"
            },
            {
                "address": "0x0000000000000000000000000000000000000001",
                "label": "Precompiled"
            }
        ]
    },
    "trace": {
        "accountLabels": null,
        "dataMap": {
            "-1": {
                "invocation": {
                    "address": "0x75be61207d33a2f1d76ad68ba98b5ce0b589f481",
                    "callData": "",
                    "decodedMethod": null,
                    "errorInfo": "",
                    "fromAddress": "",
                    "gasUsed": 0,
                    "id": -1,
                    "methodDecoded": false,
                    "operation": "",
                    "output": "",
                    "revert": false,
                    "revertMessage": "",
                    "selector": "",
                    "status": false,
                    "value": ""
                },
                "nodeType": 0
            },
            "0": {
                "invocation": {
                    "address": "0xbcf935d206ca32929e1b887a07ed240f0d8ccd22",
                    "callData": "0x0000000000000000000000000000000000000000000000000000000000047b05",
                    "decodedMethod": {
                        "callParams": [
                            {
                                "name": "_referrerID",
                                "type": "uint256",
                                "value": "293,637"
                            }
                        ],
                        "constructorArguments": "",
                        "name": "regUser",
                        "returnParams": [],
                        "signature": "regUser(uint256)"
                    },
                    "errorInfo": "",
                    "fromAddress": "0x75be61207d33a2f1d76ad68ba98b5ce0b589f481",
                    "gasUsed": 183761,
                    "id": 0,
                    "methodDecoded": true,
                    "operation": "CALL",
                    "output": "",
                    "revert": false,
                    "revertMessage": "",
                    "selector": "0x8853b53e",
                    "status": true,
                    "value": "0.03"
                },
                "nodeType": 0
            },
            "1": {
                "invocation": {
                    "address": "0x59d1e2b95987317885144d3b1e2847481ef04d71",
                    "callData": "0x",
                    "decodedMethod": null,
                    "errorInfo": "",
                    "fromAddress": "0xbcf935d206ca32929e1b887a07ed240f0d8ccd22",
                    "gasUsed": 0,
                    "id": 1,
                    "methodDecoded": false,
                    "operation": "CALL",
                    "output": "",
                    "revert": false,
                    "revertMessage": "",
                    "selector": "fallback",
                    "status": true,
                    "value": "0.03"
                },
                "nodeType": 0
            },
            "2": {
                "event": {
                    "contract": "0xbcf935d206ca32929e1b887a07ed240f0d8ccd22",
                    "decodedLog": {
                        "name": "getMoneyForLevelEvent",
                        "params": [
                            {
                                "name": "_user",
                                "type": "address",
                                "value": "0x59d1e2b95987317885144d3b1e2847481ef04d71"
                            },
                            {
                                "name": "_referral",
                                "type": "address",
                                "value": "0x75be61207d33a2f1d76ad68ba98b5ce0b589f481"
                            },
                            {
                                "name": "_level",
                                "type": "uint256",
                                "value": "1"
                            },
                            {
                                "name": "_time",
                                "type": "uint256",
                                "value": "1,588,317,257"
                            }
                        ],
                        "signature": "getMoneyForLevelEvent(address,address,uint256,uint256)"
                    },
                    "id": 2,
                    "logData": "0x0000000000000000000000000000000000000000000000000000000000000001000000000000000000000000000000000000000000000000000000005eabcc49",
                    "logDecoded": true,
                    "operation": "EVENT",
                    "revert": false,
                    "status": true,
                    "topics": [
                        "0xce7dc747411ac40191c5335943fcc79d8c2d8c01ca5ae83d9fed160409fa6120",
                        "0x00000000000000000000000059d1e2b95987317885144d3b1e2847481ef04d71",
                        "0x00000000000000000000000075be61207d33a2f1d76ad68ba98b5ce0b589f481"
                    ]
                },
                "nodeType": 1
            },
            "3": {
                "event": {
                    "contract": "0xbcf935d206ca32929e1b887a07ed240f0d8ccd22",
                    "decodedLog": {
                        "name": "regLevelEvent",
                        "params": [
                            {
                                "name": "_user",
                                "type": "address",
                                "value": "0x75be61207d33a2f1d76ad68ba98b5ce0b589f481"
                            },
                            {
                                "name": "_referrer",
                                "type": "address",
                                "value": "0x59d1e2b95987317885144d3b1e2847481ef04d71"
                            },
                            {
                                "name": "_time",
                                "type": "uint256",
                                "value": "1,588,317,257"
                            }
                        ],
                        "signature": "regLevelEvent(address,address,uint256)"
                    },
                    "id": 3,
                    "logData": "0x000000000000000000000000000000000000000000000000000000005eabcc49",
                    "logDecoded": true,
                    "operation": "EVENT",
                    "revert": false,
                    "status": true,
                    "topics": [
                        "0x788c06d2405ae89dd3f0528d38be7691289474d72176408bc2c2406dc5e342f1",
                        "0x00000000000000000000000075be61207d33a2f1d76ad68ba98b5ce0b589f481",
                        "0x00000000000000000000000059d1e2b95987317885144d3b1e2847481ef04d71"
                    ]
                },
                "nodeType": 1
            }
        },
        "gasFlame": [
            {
                "children": [
                    {
                        "children": [
                            {
                                "children": [],
                                "depth": 0,
                                "name": "Initial Gas",
                                "value": 21228
                            },
                            {
                                "children": [
                                    {
                                        "children": [],
                                        "depth": 1,
                                        "name": "fallback",
                                        "value": 0
                                    }
                                ],
                                "depth": 0,
                                "name": "Executed Gas",
                                "value": 162533
                            }
                        ],
                        "depth": -1,
                        "name": "Actual Gas Used",
                        "value": 183761
                    },
                    {
                        "children": [],
                        "depth": -1,
                        "name": "Refunded Gas",
                        "value": 0
                    }
                ],
                "depth": -2,
                "name": "Total Gas",
                "value": 183761
            }
        ],
        "isConfirmed": true,
        "mainTrace": [
            {
                "children": [
                    {
                        "children": [
                            {
                                "children": [],
                                "depth": 1,
                                "id": 1,
                                "order": 1
                            },
                            {
                                "children": [],
                                "depth": 1,
                                "id": 2,
                                "order": 2
                            },
                            {
                                "children": [],
                                "depth": 1,
                                "id": 3,
                                "order": 3
                            }
                        ],
                        "depth": 0,
                        "id": 0,
                        "order": 0
                    }
                ],
                "depth": -1,
                "id": -1,
                "order": -1
            }
        ],
        "mainTraceNodeCount": 4,
        "parentIdMap": {
            "0": -1,
            "1": 0,
            "2": 0,
            "3": 0
        },
        "tidyTrace": [
            {
                "children": [
                    {
                        "children": [
                            {
                                "children": [],
                                "depth": 1,
                                "id": 1,
                                "order": 1
                            },
                            {
                                "children": [],
                                "depth": 1,
                                "id": 2,
                                "order": 2
                            },
                            {
                                "children": [],
                                "depth": 1,
                                "id": 3,
                                "order": 3
                            }
                        ],
                        "depth": 0,
                        "id": 0,
                        "order": 0
                    }
                ],
                "depth": -1,
                "id": -1,
                "order": -1
            }
        ],
        "tidyTraceNodeCount": 4
    },
    "state_change": {
        "stateChanges": [
            {
                "address": "0xbcf935d206ca32929e1b887a07ed240f0d8ccd22",
                "erc": "",
                "slots": [
                    {
                        "current": "0x0000000000000000000000000000000000000000000000000000000000047b05",
                        "key": "0x0ddaba0ac8ebc7702ccb087248ceaa1777cd070d22527f7df7abe4fd70856724",
                        "prev": "0x0000000000000000000000000000000000000000000000000000000000000000"
                    },
                    {
                        "current": "0x00000000000000000000000075be61207d33a2f1d76ad68ba98b5ce0b589f481",
                        "key": "0x5f7febdacb5613cb37d8b576f564a98fa2aa58ec1c3b456438a1dce605d93e84",
                        "prev": "0x0000000000000000000000000000000000000000000000000000000000000000"
                    },
                    {
                        "current": "0x000000000000000000000000000000000000000000000000000000005f2fa249",
                        "key": "0x0fb41d0bda996ba72ba2d2eb6f8d9eadc8b49fc1f7df91394f23eb9cf65998ac",
                        "prev": "0x0000000000000000000000000000000000000000000000000000000000000000"
                    },
                    {
                        "current": "0x0000000000000000000000000000000000000000000000000000000000000002",
                        "key": "0x7f1596d05530e948566a9788bdd4b9b76a5039c7eace5e06058a0d6ca777a379",
                        "prev": "0x0000000000000000000000000000000000000000000000000000000000000001"
                    },
                    {
                        "current": "0x00000000000000000000000075be61207d33a2f1d76ad68ba98b5ce0b589f481",
                        "key": "0x7921da148283799bd5e009081838b258fb686e834f0a2eebaf1b3977b5f0d122",
                        "prev": "0x0000000000000000000000000000000000000000000000000000000000000000"
                    },
                    {
                        "current": "0x0000000000000000000000000000000000000000000000000000000000058729",
                        "key": "0x0000000000000000000000000000000000000000000000000000000000000008",
                        "prev": "0x0000000000000000000000000000000000000000000000000000000000058728"
                    },
                    {
                        "current": "0x0000000000000000000000000000000000000000000000000000000000000001",
                        "key": "0x0ddaba0ac8ebc7702ccb087248ceaa1777cd070d22527f7df7abe4fd70856722",
                        "prev": "0x0000000000000000000000000000000000000000000000000000000000000000"
                    },
                    {
                        "current": "0x0000000000000000000000000000000000000000000000000000000000058729",
                        "key": "0x0ddaba0ac8ebc7702ccb087248ceaa1777cd070d22527f7df7abe4fd70856723",
                        "prev": "0x0000000000000000000000000000000000000000000000000000000000000000"
                    }
                ],
                "storageVariables": [
                    {
                        "name": "users",
                        "type": "mapping(address => struct MillionMoney.UserStruct)",
                        "value": {
                            "pairs": [
                                {
                                    "key": "0x59d1e2b95987317885144d3b1e2847481ef04d71",
                                    "value": {
                                        "fields": [
                                            {
                                                "name": "referral",
                                                "type": "address[]",
                                                "value": {
                                                    "elemType": "address",
                                                    "elems": [
                                                        {
                                                            "index": 1,
                                                            "value": {
                                                                "current": "0x75be61207d33a2f1d76ad68ba98b5ce0b589f481",
                                                                "prev": "0x0000000000000000000000000000000000000000",
                                                                "typeTag": 1
                                                            }
                                                        }
                                                    ],
                                                    "typeTag": 2
                                                }
                                            }
                                        ],
                                        "typeTag": 3
                                    }
                                },
                                {
                                    "key": "0x75be61207d33a2f1d76ad68ba98b5ce0b589f481",
                                    "value": {
                                        "fields": [
                                            {
                                                "name": "isExist",
                                                "type": "bool",
                                                "value": {
                                                    "current": "true",
                                                    "prev": "false",
                                                    "typeTag": 1
                                                }
                                            },
                                            {
                                                "name": "id",
                                                "type": "uint256",
                                                "value": {
                                                    "current": "362281",
                                                    "prev": "0",
                                                    "typeTag": 1
                                                }
                                            },
                                            {
                                                "name": "referrerID",
                                                "type": "uint256",
                                                "value": {
                                                    "current": "293637",
                                                    "prev": "0",
                                                    "typeTag": 1
                                                }
                                            },
                                            {
                                                "name": "levelExpired",
                                                "type": "mapping(uint256 => uint256)",
                                                "value": {
                                                    "pairs": [
                                                        {
                                                            "key": "1",
                                                            "value": {
                                                                "current": "1596957257",
                                                                "prev": "0",
                                                                "typeTag": 1
                                                            }
                                                        }
                                                    ],
                                                    "typeTag": 4
                                                }
                                            }
                                        ],
                                        "typeTag": 3
                                    }
                                }
                            ],
                            "typeTag": 4
                        }
                    },
                    {
                        "name": "userList",
                        "type": "mapping(uint256 => address)",
                        "value": {
                            "pairs": [
                                {
                                    "key": "362281",
                                    "value": {
                                        "current": "0x75be61207d33a2f1d76ad68ba98b5ce0b589f481",
                                        "prev": "0x0000000000000000000000000000000000000000",
                                        "typeTag": 1
                                    }
                                }
                            ],
                            "typeTag": 4
                        }
                    },
                    {
                        "name": "currUserID",
                        "type": "uint256",
                        "value": {
                            "current": "362281",
                            "prev": "362280",
                            "typeTag": 1
                        }
                    }
                ]
            }
        ]
    }
}