{
    "balance_change": {
        "balanceChanges": [
            {
                "account": "0xad9478644194a82c5522b9aa41a5fb32f88bca74",
                "assets": [
                    {
                        "address": "0xdac17f958d2ee523a2206206994597c13d831ec7",
                        "amount": "2,976",
                        "iconUrl": "https://assets.blocksec.com/icon/fcea71f3193ce895be44bfdf941f7e4c9381dd587f273c2d1a27f1263d84e4ea.png",
                        "isERC1155": false,
                        "isERC721": false,
                        "sign": false,
                        "value": "2977.023238"
                    },
                    {
                        "address": "0x2da719db753dfa10a62e140f436e1d67f2ddb0d6",
                        "amount": "43,331.6178524239",
                        "iconUrl": "",
                        "isERC1155": false,
                        "isERC721": false,
                        "sign": false,
                        "value": "2936.166519"
                    },
                    {
                        "address": "0x919b75ff6c4e4e89528641cf13e1d7f45de3ac03",
                        "amount": "0.000001132716979154",
                        "iconUrl": "",
                        "isERC1155": false,
                        "isERC721": false,
                        "sign": true,
                        "value": "5912.841565"
                    }
                ]
            },
            {
                "account": "0x0000000000000000000000000000000000000000",
                "assets": [
                    {
                        "address": "0x919b75ff6c4e4e89528641cf13e1d7f45de3ac03",
                        "amount": "0.000001132716979154",
                        "iconUrl": "",
                        "isERC1155": false,
                        "isERC721": false,
                        "sign": false,
                        "value": "5912.841565"
                    }
                ]
            },
            {
                "account": "0x919b75ff6c4e4e89528641cf13e1d7f45de3ac03",
                "assets": [
                    {
                        "address": "0x2da719db753dfa10a62e140f436e1d67f2ddb0d6",
                        "amount": "43,331.6178524239",
                        "iconUrl": "",
                        "isERC1155": false,
                        "isERC721": false,
                        "sign": true,
                        "value": "2936.166519"
                    },
                    {
                        "address": "0xdac17f958d2ee523a2206206994597c13d831ec7",
                        "amount": "2,976",
                        "iconUrl": "https://assets.blocksec.com/icon/fcea71f3193ce895be44bfdf941f7e4c9381dd587f273c2d1a27f1263d84e4ea.png",
                        "isERC1155": false,
                        "isERC721": false,
                        "sign": true,
                        "value": "2977.023238"
                    }
                ]
            }
        ]
    },
    "profile": {
        "basic_info": {
            "baseFee": "70.378223988",
            "blockNumber": 13897662,
            "callData": "0xe8e33700000000000000000000000000dac17f958d2ee523a2206206994597c13d831ec70000000000000000000000002da719db753dfa10a62e140f436e1d67f2ddb0d600000000000000000000000000000000000000000000000000000000b162280000000000000000000000000000000000000000000000000000018a1948e5784f00000000000000000000000000000000000000000000000000000000b07f1b0000000000000000000000000000000000000000000000000000018820d69ca482000000000000000000000000ad9478644194a82c5522b9aa41a5fb32f88bca740000000000000000000000000000000000000000000000000000000061cbd5ff",
            "debugEnable": true,
            "errorInfo": "",
            "eventCount": 6,
            "feeRecipient": "0x2daa35962a6d43eb54c48367b33d0b379c930e5e",
            "formatValue": "0",
            "gasLimit": 192400,
            "gasPrice": "71.878223988",
            "gasUsed": 149723,
            "intTxnCount": 8,
            "internalRevert": false,
            "internalRevertMessage": "",
            "isContractCreation": false,
            "isFlashloan": false,
            "maxFee": "75.448588317",
            "nonce": 89,
            "overwritedBlockNumber": -1,
            "priorityFee": "1.5",
            "receiver": "0x7a250d5630b4cf539739df2c5dacb4c659f2488d",
            "revertMessage": "",
            "sender": "0xad9478644194a82c5522b9aa41a5fb32f88bca74",
            "simulationEnable": true,
            "sourceTxnHash": "0x433c5859d3c15274218df6f02c57c9220632e42dce5e3a6b09d751ccd6fc1bb8",
            "status": true,
            "timestamp": "2021-12-29T03:00:51Z",
            "transactionFee": "0.010761823330155324",
            "txnHash": "0x433c5859d3c15274218df6f02c57c9220632e42dce5e3a6b09d751ccd6fc1bb8",
            "txnIndex": 131,
            "type": 2,
            "value": "0"
        },
        "fund_flow": [
            {
                "amount": "2,976",
                "from": "0xad9478644194a82c5522b9aa41a5fb32f88bca74",
                "id": 1,
                "isERC1155": false,
                "isERC721": false,
                "isReverted": false,
                "order": 1,
                "to": "0x919b75ff6c4e4e89528641cf13e1d7f45de3ac03",
                "token": "0xdac17f958d2ee523a2206206994597c13d831ec7"
            },
            {
                "amount": "43,331.6178524239",
                "from": "0xad9478644194a82c5522b9aa41a5fb32f88bca74",
                "id": 2,
                "isERC1155": false,
                "isERC721": false,
                "isReverted": false,
                "order": 2,
                "to": "0x919b75ff6c4e4e89528641cf13e1d7f45de3ac03",
                "token": "0x2da719db753dfa10a62e140f436e1d67f2ddb0d6"
            },
            {
                "amount": "0.000001132716979154",
                "from": "0x0000000000000000000000000000000000000000",
                "id": 3,
                "isERC1155": false,
                "isERC721": false,
                "isReverted": false,
                "order": 3,
                "to": "0xad9478644194a82c5522b9aa41a5fb32f88bca74",
                "token": "0x919b75ff6c4e4e89528641cf13e1d7f45de3ac03"
            }
        ],
        "token_infos": [
            {
                "address": "0x2da719db753dfa10a62e140f436e1d67f2ddb0d6",
                "decimals": 10
            },
            {
                "address": "0x919b75ff6c4e4e89528641cf13e1d7f45de3ac03",
                "decimals": 18
            },
            {
                "address": "0xc02aaa39b223fe8d0a0e5c4f27ead9083c756cc2",
                "decimals": 18
            },
            {
                "address": "0xdac17f958d2ee523a2206206994597c13d831ec7",
                "decimals": 6
            },
            {
                "address": "0xeeeeeeeeeeeeeeeeeeeeeeeeeeeeeeeeeeeeeeee",
                "decimals": 18
            }
        ]
    },
    "address_label": {
        "labels": [
            {
                "address": "0x7a250d5630b4cf539739df2c5dacb4c659f2488d",
                "label": "Uniswap V2: Router 2"
            },
            {
                "address": "0xdac17f958d2ee523a2206206994597c13d831ec7",
                "label": "Tether: USDT Stablecoin"
            },
            {
                "address": "0x0000000000000000000000000000000000000000",
                "label": "Null Address"
            },
            {
                "address": "0x0000000000000000000000000000000000000001",
                "label": "Precompiled"
            },
            {
                "address": "0x0000000000000000000000000000000000000004",
                "label": "Precompiled"
            },
            {
                "address": "0x0000000000000000000000000000000000000003",
                "label": "Precompiled"
            },
            {
                "address": "0xeeeeeeeeeeeeeeeeeeeeeeeeeeeeeeeeeeeeeeee",
                "label": "Ether"
            },
            {
                "address": "0x919b75ff6c4e4e89528641cf13e1d7f45de3ac03",
                "label": "Uniswap V2: CERE-USDT"
            },
            {
                "address": "0x2da719db753dfa10a62e140f436e1d67f2ddb0d6",
                "label": "CERE Network: CERE Token"
            },
            {
                "address": "0x5c69bee701ef814a2b6a3edd4b1652cb9cc5aa6f",
                "label": "Uniswap V2: Factory Contract"
            },
            {
                "address": "0x0000000000000000000000000000000000000002",
                "label": "Precompiled"
            }
        ]
    },
    "trace": {
        "accountLabels": null,
        "dataMap": {
            "-1": {
                "invocation": {
                    "address": "0xad9478644194a82c5522b9aa41a5fb32f88bca74",
                    "callData": "",
                    "decodedMethod": null,
                    "errorInfo": "",
                    "fromAddress": "",
                    "gasUsed": 0,
                    "id": -1,
                    "methodDecoded": false,
                    "operation": "",
                    "output": "",
                    "revert": false,
                    "revertMessage": "",
                    "selector": "",
                    "status": false,
                    "value": ""
                },
                "nodeType": 0
            },
            "0": {
                "invocation": {
                    "address": "0x7a250d5630b4cf539739df2c5dacb4c659f2488d",
                    "callData": "0x000000000000000000000000dac17f958d2ee523a2206206994597c13d831ec70000000000000000000000002da719db753dfa10a62e140f436e1d67f2ddb0d600000000000000000000000000000000000000000000000000000000b162280000000000000000000000000000000000000000000000000000018a1948e5784f00000000000000000000000000000000000000000000000000000000b07f1b0000000000000000000000000000000000000000000000000000018820d69ca482000000000000000000000000ad9478644194a82c5522b9aa41a5fb32f88bca740000000000000000000000000000000000000000000000000000000061cbd5ff",
                    "decodedMethod": {
                        "callParams": [
                            {
                                "name": "tokenA",
                                "type": "address",
                                "value": "0xdac17f958d2ee523a2206206994597c13d831ec7"
                            },
                            {
                                "name": "tokenB",
                                "type": "address",
                                "value": "0x2da719db753dfa10a62e140f436e1d67f2ddb0d6"
                            },
                            {
                                "name": "amountADesired",
                                "type": "uint256",
                                "value": "2,976,000,000"
                            },
                            {
                                "name": "amountBDesired",
                                "type": "uint256",
                                "value": "433,316,178,524,239"
                            },
                            {
                                "name": "amountAMin",
                                "type": "uint256",
                                "value": "2,961,120,000"
                            },
                            {
                                "name": "amountBMin",
                                "type": "uint256",
                                "value": "431,149,597,631,618"
                            },
                            {
                                "name": "to",
                                "type": "address",
                                "value": "0xad9478644194a82c5522b9aa41a5fb32f88bca74"
                            },
                            {
                                "name": "deadline",
                                "type": "uint256",
                                "value": "1,640,748,543"
                            }
                        ],
                        "constructorArguments": "",
                        "name": "addLiquidity",
                        "returnParams": [
                            {
                                "name": "amountA",
                                "type": "uint256",
                                "value": "2,976,000,000"
                            },
                            {
                                "name": "amountB",
                                "type": "uint256",
                                "value": "433,316,178,524,239"
                            },
                            {
                                "name": "liquidity",
                                "type": "uint256",
                                "value": "1,132,716,979,154"
                            }
                        ],
                        "signature": "addLiquidity(address,address,uint256,uint256,uint256,uint256,address,uint256)"
                    },
                    "errorInfo": "",
                    "fromAddress": "0xad9478644194a82c5522b9aa41a5fb32f88bca74",
                    "gasUsed": 149723,
                    "id": 0,
                    "methodDecoded": true,
                    "operation": "CALL",
                    "output": "0x00000000000000000000000000000000000000000000000000000000b162280000000000000000000000000000000000000000000000000000018a1948e5784f00000000000000000000000000000000000000000000000000000107bb3173d2",
                    "revert": false,
                    "revertMessage": "",
                    "selector": "0xe8e33700",
                    "status": true,
                    "value": "0"
                },
                "nodeType": 0
            },
            "1": {
                "invocation": {
                    "address": "0x5c69bee701ef814a2b6a3edd4b1652cb9cc5aa6f",
                    "callData": "0x000000000000000000000000dac17f958d2ee523a2206206994597c13d831ec70000000000000000000000002da719db753dfa10a62e140f436e1d67f2ddb0d6",
                    "decodedMethod": {
                        "callParams": [
                            {
                                "name": "",
                                "type": "address",
                                "value": "0xdac17f958d2ee523a2206206994597c13d831ec7"
                            },
                            {
                                "name": "",
                                "type": "address",
                                "value": "0x2da719db753dfa10a62e140f436e1d67f2ddb0d6"
                            }
                        ],
                        "constructorArguments": "",
                        "name": "getPair",
                        "returnParams": [
                            {
                                "name": "",
                                "type": "address",
                                "value": "0x919b75ff6c4e4e89528641cf13e1d7f45de3ac03"
                            }
                        ],
                        "signature": "getPair(address,address)"
                    },
                    "errorInfo": "",
                    "fromAddress": "0x7a250d5630b4cf539739df2c5dacb4c659f2488d",
                    "gasUsed": 2564,
                    "id": 1,
                    "methodDecoded": true,
                    "operation": "STATICCALL",
                    "output": "0x000000000000000000000000919b75ff6c4e4e89528641cf13e1d7f45de3ac03",
                    "revert": false,
                    "revertMessage": "",
                    "selector": "0xe6a43905",
                    "status": true,
                    "value": "0"
                },
                "nodeType": 0
            },
            "10": {
                "invocation": {
                    "address": "0xdac17f958d2ee523a2206206994597c13d831ec7",
                    "callData": "0x000000000000000000000000919b75ff6c4e4e89528641cf13e1d7f45de3ac03",
                    "decodedMethod": {
                        "callParams": [
                            {
                                "name": "who",
                                "type": "address",
                                "value": "0x919b75ff6c4e4e89528641cf13e1d7f45de3ac03"
                            }
                        ],
                        "constructorArguments": "",
                        "name": "balanceOf",
                        "returnParams": [
                            {
                                "decimalAvailable": true,
                                "name": "",
                                "type": "uint256",
                                "value": "275,854,323,971"
                            }
                        ],
                        "signature": "balanceOf(address)"
                    },
                    "errorInfo": "",
                    "fromAddress": "0x919b75ff6c4e4e89528641cf13e1d7f45de3ac03",
                    "gasUsed": 1031,
                    "id": 10,
                    "methodDecoded": true,
                    "operation": "STATICCALL",
                    "output": "0x000000000000000000000000000000000000000000000000000000403a32f103",
                    "revert": false,
                    "revertMessage": "",
                    "selector": "0x70a08231",
                    "status": true,
                    "value": "0"
                },
                "nodeType": 0
            },
            "11": {
                "invocation": {
                    "address": "0x5c69bee701ef814a2b6a3edd4b1652cb9cc5aa6f",
                    "callData": "0x",
                    "decodedMethod": {
                        "callParams": [],
                        "constructorArguments": "",
                        "name": "feeTo",
                        "returnParams": [
                            {
                                "name": "",
                                "type": "address",
                                "value": "0x0000000000000000000000000000000000000000"
                            }
                        ],
                        "signature": "feeTo()"
                    },
                    "errorInfo": "",
                    "fromAddress": "0x919b75ff6c4e4e89528641cf13e1d7f45de3ac03",
                    "gasUsed": 2314,
                    "id": 11,
                    "methodDecoded": true,
                    "operation": "STATICCALL",
                    "output": "0x0000000000000000000000000000000000000000000000000000000000000000",
                    "revert": false,
                    "revertMessage": "",
                    "selector": "0x017e7e58",
                    "status": true,
                    "value": "0"
                },
                "nodeType": 0
            },
            "12": {
                "event": {
                    "contract": "0x919b75ff6c4e4e89528641cf13e1d7f45de3ac03",
                    "decodedLog": {
                        "name": "Transfer",
                        "params": [
                            {
                                "name": "from",
                                "type": "address",
                                "value": "0x0000000000000000000000000000000000000000"
                            },
                            {
                                "name": "to",
                                "type": "address",
                                "value": "0xad9478644194a82c5522b9aa41a5fb32f88bca74"
                            },
                            {
                                "decimalAvailable": true,
                                "name": "value",
                                "type": "uint256",
                                "value": "1,132,716,979,154"
                            }
                        ],
                        "signature": "Transfer(address,address,uint256)"
                    },
                    "id": 12,
                    "logData": "0x00000000000000000000000000000000000000000000000000000107bb3173d2",
                    "logDecoded": true,
                    "operation": "EVENT",
                    "revert": false,
                    "status": true,
                    "topics": [
                        "0xddf252ad1be2c89b69c2b068fc378daa952ba7f163c4a11628f55a4df523b3ef",
                        "0x0000000000000000000000000000000000000000000000000000000000000000",
                        "0x000000000000000000000000ad9478644194a82c5522b9aa41a5fb32f88bca74"
                    ]
                },
                "nodeType": 1
            },
            "13": {
                "event": {
                    "contract": "0x919b75ff6c4e4e89528641cf13e1d7f45de3ac03",
                    "decodedLog": {
                        "name": "Sync",
                        "params": [
                            {
                                "name": "reserve0",
                                "type": "uint112",
                                "value": "40,165,370,125,168,461"
                            },
                            {
                                "name": "reserve1",
                                "type": "uint112",
                                "value": "275,854,323,971"
                            }
                        ],
                        "signature": "Sync(uint112,uint112)"
                    },
                    "id": 13,
                    "logData": "0x000000000000000000000000000000000000000000000000008eb230fa952f4d000000000000000000000000000000000000000000000000000000403a32f103",
                    "logDecoded": true,
                    "operation": "EVENT",
                    "revert": false,
                    "status": true,
                    "topics": [
                        "0x1c411e9a96e071241c2f21f7726b17ae89e3cab4c78be50e062b03a9fffbbad1"
                    ]
                },
                "nodeType": 1
            },
            "14": {
                "event": {
                    "contract": "0x919b75ff6c4e4e89528641cf13e1d7f45de3ac03",
                    "decodedLog": {
                        "name": "Mint",
                        "params": [
                            {
                                "name": "sender",
                                "type": "address",
                                "value": "0x7a250d5630b4cf539739df2c5dacb4c659f2488d"
                            },
                            {
                                "name": "amount0",
                                "type": "uint256",
                                "value": "433,316,178,524,239"
                            },
                            {
                                "name": "amount1",
                                "type": "uint256",
                                "value": "2,976,000,000"
                            }
                        ],
                        "signature": "Mint(address,uint256,uint256)"
                    },
                    "id": 14,
                    "logData": "0x00000000000000000000000000000000000000000000000000018a1948e5784f00000000000000000000000000000000000000000000000000000000b1622800",
                    "logDecoded": true,
                    "operation": "EVENT",
                    "revert": false,
                    "status": true,
                    "topics": [
                        "0x4c209b5fc8ad50758f13e2e1088ba56a560dff690a1c6fef26394f4c03821c4f",
                        "0x0000000000000000000000007a250d5630b4cf539739df2c5dacb4c659f2488d"
                    ]
                },
                "nodeType": 1
            },
            "2": {
                "invocation": {
                    "address": "0x919b75ff6c4e4e89528641cf13e1d7f45de3ac03",
                    "callData": "0x",
                    "decodedMethod": {
                        "callParams": [],
                        "constructorArguments": "",
                        "name": "getReserves",
                        "returnParams": [
                            {
                                "name": "_reserve0",
                                "type": "uint112",
                                "value": "39,732,053,946,644,222"
                            },
                            {
                                "name": "_reserve1",
                                "type": "uint112",
                                "value": "272,878,323,971"
                            },
                            {
                                "name": "_blockTimestampLast",
                                "type": "uint32",
                                "value": "1,640,734,551"
                            }
                        ],
                        "signature": "getReserves()"
                    },
                    "errorInfo": "",
                    "fromAddress": "0x7a250d5630b4cf539739df2c5dacb4c659f2488d",
                    "gasUsed": 2504,
                    "id": 2,
                    "methodDecoded": true,
                    "operation": "STATICCALL",
                    "output": "0x000000000000000000000000000000000000000000000000008d2817b1afb6fe0000000000000000000000000000000000000000000000000000003f88d0c9030000000000000000000000000000000000000000000000000000000061cb9f57",
                    "revert": false,
                    "revertMessage": "",
                    "selector": "0x0902f1ac",
                    "status": true,
                    "value": "0"
                },
                "nodeType": 0
            },
            "3": {
                "invocation": {
                    "address": "0xdac17f958d2ee523a2206206994597c13d831ec7",
                    "callData": "0x000000000000000000000000ad9478644194a82c5522b9aa41a5fb32f88bca74000000000000000000000000919b75ff6c4e4e89528641cf13e1d7f45de3ac0300000000000000000000000000000000000000000000000000000000b1622800",
                    "decodedMethod": {
                        "callParams": [
                            {
                                "name": "_from",
                                "type": "address",
                                "value": "0xad9478644194a82c5522b9aa41a5fb32f88bca74"
                            },
                            {
                                "name": "_to",
                                "type": "address",
                                "value": "0x919b75ff6c4e4e89528641cf13e1d7f45de3ac03"
                            },
                            {
                                "decimalAvailable": true,
                                "name": "_value",
                                "type": "uint256",
                                "value": "2,976,000,000"
                            }
                        ],
                        "constructorArguments": "",
                        "name": "transferFrom",
                        "returnParams": [],
                        "signature": "transferFrom(address,address,uint256)"
                    },
                    "errorInfo": "",
                    "fromAddress": "0x7a250d5630b4cf539739df2c5dacb4c659f2488d",
                    "gasUsed": 26530,
                    "id": 3,
                    "methodDecoded": true,
                    "operation": "CALL",
                    "output": "",
                    "revert": false,
                    "revertMessage": "",
                    "selector": "0x23b872dd",
                    "status": true,
                    "value": "0"
                },
                "nodeType": 0
            },
            "4": {
                "event": {
                    "contract": "0xdac17f958d2ee523a2206206994597c13d831ec7",
                    "decodedLog": {
                        "name": "Transfer",
                        "params": [
                            {
                                "name": "from",
                                "type": "address",
                                "value": "0xad9478644194a82c5522b9aa41a5fb32f88bca74"
                            },
                            {
                                "name": "to",
                                "type": "address",
                                "value": "0x919b75ff6c4e4e89528641cf13e1d7f45de3ac03"
                            },
                            {
                                "decimalAvailable": true,
                                "name": "value",
                                "type": "uint256",
                                "value": "2,976,000,000"
                            }
                        ],
                        "signature": "Transfer(address,address,uint256)"
                    },
                    "id": 4,
                    "logData": "0x00000000000000000000000000000000000000000000000000000000b1622800",
                    "logDecoded": true,
                    "operation": "EVENT",
                    "revert": false,
                    "status": true,
                    "topics": [
                        "0xddf252ad1be2c89b69c2b068fc378daa952ba7f163c4a11628f55a4df523b3ef",
                        "0x000000000000000000000000ad9478644194a82c5522b9aa41a5fb32f88bca74",
                        "0x000000000000000000000000919b75ff6c4e4e89528641cf13e1d7f45de3ac03"
                    ]
                },
                "nodeType": 1
            },
            "5": {
                "invocation": {
                    "address": "0x2da719db753dfa10a62e140f436e1d67f2ddb0d6",
                    "callData": "0x000000000000000000000000ad9478644194a82c5522b9aa41a5fb32f88bca74000000000000000000000000919b75ff6c4e4e89528641cf13e1d7f45de3ac0300000000000000000000000000000000000000000000000000018a1948e5784f",
                    "decodedMethod": {
                        "callParams": [
                            {
                                "name": "sender",
                                "type": "address",
                                "value": "0xad9478644194a82c5522b9aa41a5fb32f88bca74"
                            },
                            {
                                "name": "recipient",
                                "type": "address",
                                "value": "0x919b75ff6c4e4e89528641cf13e1d7f45de3ac03"
                            },
                            {
                                "decimalAvailable": true,
                                "name": "amount",
                                "type": "uint256",
                                "value": "433,316,178,524,239"
                            }
                        ],
                        "constructorArguments": "",
                        "name": "transferFrom",
                        "returnParams": [
                            {
                                "name": "",
                                "type": "bool",
                                "value": true
                            }
                        ],
                        "signature": "transferFrom(address,address,uint256)"
                    },
                    "errorInfo": "",
                    "fromAddress": "0x7a250d5630b4cf539739df2c5dacb4c659f2488d",
                    "gasUsed": 20302,
                    "id": 5,
                    "methodDecoded": true,
                    "operation": "CALL",
                    "output": "0x0000000000000000000000000000000000000000000000000000000000000001",
                    "revert": false,
                    "revertMessage": "",
                    "selector": "0x23b872dd",
                    "status": true,
                    "value": "0"
                },
                "nodeType": 0
            },
            "6": {
                "event": {
                    "contract": "0x2da719db753dfa10a62e140f436e1d67f2ddb0d6",
                    "decodedLog": {
                        "name": "Transfer",
                        "params": [
                            {
                                "name": "from",
                                "type": "address",
                                "value": "0xad9478644194a82c5522b9aa41a5fb32f88bca74"
                            },
                            {
                                "name": "to",
                                "type": "address",
                                "value": "0x919b75ff6c4e4e89528641cf13e1d7f45de3ac03"
                            },
                            {
                                "decimalAvailable": true,
                                "name": "value",
                                "type": "uint256",
                                "value": "433,316,178,524,239"
                            }
                        ],
                        "signature": "Transfer(address,address,uint256)"
                    },
                    "id": 6,
                    "logData": "0x00000000000000000000000000000000000000000000000000018a1948e5784f",
                    "logDecoded": true,
                    "operation": "EVENT",
                    "revert": false,
                    "status": true,
                    "topics": [
                        "0xddf252ad1be2c89b69c2b068fc378daa952ba7f163c4a11628f55a4df523b3ef",
                        "0x000000000000000000000000ad9478644194a82c5522b9aa41a5fb32f88bca74",
                        "0x000000000000000000000000919b75ff6c4e4e89528641cf13e1d7f45de3ac03"
                    ]
                },
                "nodeType": 1
            },
            "7": {
                "event": {
                    "contract": "0x2da719db753dfa10a62e140f436e1d67f2ddb0d6",
                    "decodedLog": {
                        "name": "Approval",
                        "params": [
                            {
                                "name": "owner",
                                "type": "address",
                                "value": "0xad9478644194a82c5522b9aa41a5fb32f88bca74"
                            },
                            {
                                "name": "spender",
                                "type": "address",
                                "value": "0x7a250d5630b4cf539739df2c5dacb4c659f2488d"
                            },
                            {
                                "decimalAvailable": true,
                                "name": "value",
                                "type": "uint256",
                                "value": "115,792,089,237,316,195,423,570,985,008,687,907,853,269,984,665,640,564,039,457,583,574,596,951,115,696"
                            }
                        ],
                        "signature": "Approval(address,address,uint256)"
                    },
                    "id": 7,
                    "logData": "0xfffffffffffffffffffffffffffffffffffffffffffffffffffe75e6b71a87b0",
                    "logDecoded": true,
                    "operation": "EVENT",
                    "revert": false,
                    "status": true,
                    "topics": [
                        "0x8c5be1e5ebec7d5bd14f71427d1e84f3dd0314c0f7b2291e5b200ac8c7c3b925",
                        "0x000000000000000000000000ad9478644194a82c5522b9aa41a5fb32f88bca74",
                        "0x0000000000000000000000007a250d5630b4cf539739df2c5dacb4c659f2488d"
                    ]
                },
                "nodeType": 1
            },
            "8": {
                "invocation": {
                    "address": "0x919b75ff6c4e4e89528641cf13e1d7f45de3ac03",
                    "callData": "0x000000000000000000000000ad9478644194a82c5522b9aa41a5fb32f88bca74",
                    "decodedMethod": {
                        "callParams": [
                            {
                                "name": "to",
                                "type": "address",
                                "value": "0xad9478644194a82c5522b9aa41a5fb32f88bca74"
                            }
                        ],
                        "constructorArguments": "",
                        "name": "mint",
                        "returnParams": [
                            {
                                "name": "liquidity",
                                "type": "uint256",
                                "value": "1,132,716,979,154"
                            }
                        ],
                        "signature": "mint(address)"
                    },
                    "errorInfo": "",
                    "fromAddress": "0x7a250d5630b4cf539739df2c5dacb4c659f2488d",
                    "gasUsed": 66384,
                    "id": 8,
                    "methodDecoded": true,
                    "operation": "CALL",
                    "output": "0x00000000000000000000000000000000000000000000000000000107bb3173d2",
                    "revert": false,
                    "revertMessage": "",
                    "selector": "0x6a627842",
                    "status": true,
                    "value": "0"
                },
                "nodeType": 0
            },
            "9": {
                "invocation": {
                    "address": "0x2da719db753dfa10a62e140f436e1d67f2ddb0d6",
                    "callData": "0x000000000000000000000000919b75ff6c4e4e89528641cf13e1d7f45de3ac03",
                    "decodedMethod": {
                        "callParams": [
                            {
                                "name": "account",
                                "type": "address",
                                "value": "0x919b75ff6c4e4e89528641cf13e1d7f45de3ac03"
                            }
                        ],
                        "constructorArguments": "",
                        "name": "balanceOf",
                        "returnParams": [
                            {
                                "decimalAvailable": true,
                                "name": "",
                                "type": "uint256",
                                "value": "40,165,370,125,168,461"
                            }
                        ],
                        "signature": "balanceOf(address)"
                    },
                    "errorInfo": "",
                    "fromAddress": "0x919b75ff6c4e4e89528641cf13e1d7f45de3ac03",
                    "gasUsed": 628,
                    "id": 9,
                    "methodDecoded": true,
                    "operation": "STATICCALL",
                    "output": "0x000000000000000000000000000000000000000000000000008eb230fa952f4d",
                    "revert": false,
                    "revertMessage": "",
                    "selector": "0x70a08231",
                    "status": true,
                    "value": "0"
                },
                "nodeType": 0
            }
        },
        "gasFlame": [
            {
                "children": [
                    {
                        "children": [
                            {
                                "children": [],
                                "depth": 0,
                                "name": "Initial Gas",
                                "value": 23084
                            },
                            {
                                "children": [
                                    {
                                        "children": [],
                                        "depth": 1,
                                        "name": "getPair",
                                        "value": 2564
                                    },
                                    {
                                        "children": [],
                                        "depth": 1,
                                        "name": "getReserves",
                                        "value": 2504
                                    },
                                    {
                                        "children": [],
                                        "depth": 1,
                                        "name": "transferFrom",
                                        "value": 26530
                                    },
                                    {
                                        "children": [],
                                        "depth": 1,
                                        "name": "transferFrom",
                                        "value": 20302
                                    },
                                    {
                                        "children": [
                                            {
                                                "children": [],
                                                "depth": 2,
                                                "name": "balanceOf",
                                                "value": 628
                                            },
                                            {
                                                "children": [],
                                                "depth": 2,
                                                "name": "balanceOf",
                                                "value": 1031
                                            },
                                            {
                                                "children": [],
                                                "depth": 2,
                                                "name": "feeTo",
                                                "value": 2314
                                            }
                                        ],
                                        "depth": 1,
                                        "name": "mint",
                                        "value": 66384
                                    }
                                ],
                                "depth": 0,
                                "name": "Executed Gas",
                                "value": 134239
                            }
                        ],
                        "depth": -1,
                        "name": "Actual Gas Used",
                        "value": 149723
                    },
                    {
                        "children": [],
                        "depth": -1,
                        "name": "Refunded Gas",
                        "value": 7600
                    }
                ],
                "depth": -2,
                "name": "Total Gas",
                "value": 157323
            }
        ],
        "isConfirmed": true,
        "mainTrace": [
            {
                "children": [
                    {
                        "children": [
                            {
                                "children": [],
                                "depth": 1,
                                "id": 1,
                                "order": 1
                            },
                            {
                                "children": [],
                                "depth": 1,
                                "id": 2,
                                "order": 2
                            },
                            {
                                "children": [
                                    {
                                        "children": [],
                                        "depth": 2,
                                        "id": 4,
                                        "order": 4
                                    }
                                ],
                                "depth": 1,
                                "id": 3,
                                "order": 3
                            },
                            {
                                "children": [
                                    {
                                        "children": [],
                                        "depth": 2,
                                        "id": 6,
                                        "order": 6
                                    },
                                    {
                                        "children": [],
                                        "depth": 2,
                                        "id": 7,
                                        "order": 7
                                    }
                                ],
                                "depth": 1,
                                "id": 5,
                                "order": 5
                            },
                            {
                                "children": [
                                    {
                                        "children": [],
                                        "depth": 2,
                                        "id": 9,
                                        "order": 9
                                    },
                                    {
                                        "children": [],
                                        "depth": 2,
                                        "id": 10,
                                        "order": 10
                                    },
                                    {
                                        "children": [],
                                        "depth": 2,
                                        "id": 11,
                                        "order": 11
                                    },
                                    {
                                        "children": [],
                                        "depth": 2,
                                        "id": 12,
                                        "order": 12
                                    },
                                    {
                                        "children": [],
                                        "depth": 2,
                                        "id": 13,
                                        "order": 13
                                    },
                                    {
                                        "children": [],
                                        "depth": 2,
                                        "id": 14,
                                        "order": 14
                                    }
                                ],
                                "depth": 1,
                                "id": 8,
                                "order": 8
                            }
                        ],
                        "depth": 0,
                        "id": 0,
                        "order": 0
                    }
                ],
                "depth": -1,
                "id": -1,
                "order": -1
            }
        ],
        "mainTraceNodeCount": 15,
        "parentIdMap": {
            "0": -1,
            "1": 0,
            "10": 8,
            "11": 8,
            "12": 8,
            "13": 8,
            "14": 8,
            "2": 0,
            "3": 0,
            "4": 3,
            "5": 0,
            "6": 5,
            "7": 5,
            "8": 0,
            "9": 8
        },
        "tidyTrace": [
            {
                "children": [
                    {
                        "children": [
                            {
                                "children": [
                                    {
                                        "children": [],
                                        "depth": 2,
                                        "id": 4,
                                        "order": 4
                                    }
                                ],
                                "depth": 1,
                                "id": 3,
                                "order": 3
                            },
                            {
                                "children": [
                                    {
                                        "children": [],
                                        "depth": 2,
                                        "id": 6,
                                        "order": 6
                                    },
                                    {
                                        "children": [],
                                        "depth": 2,
                                        "id": 7,
                                        "order": 7
                                    }
                                ],
                                "depth": 1,
                                "id": 5,
                                "order": 5
                            },
                            {
                                "children": [
                                    {
                                        "children": [],
                                        "depth": 2,
                                        "id": 12,
                                        "order": 12
                                    },
                                    {
                                        "children": [],
                                        "depth": 2,
                                        "id": 13,
                                        "order": 13
                                    },
                                    {
                                        "children": [],
                                        "depth": 2,
                                        "id": 14,
                                        "order": 14
                                    }
                                ],
                                "depth": 1,
                                "id": 8,
                                "order": 8
                            }
                        ],
                        "depth": 0,
                        "id": 0,
                        "order": 0
                    }
                ],
                "depth": -1,
                "id": -1,
                "order": -1
            }
        ],
        "tidyTraceNodeCount": 10
    },
    "state_change": {
        "stateChanges": [
            {
                "address": "0x2da719db753dfa10a62e140f436e1d67f2ddb0d6",
                "erc": "ERC-20",
                "slots": [
                    {
                        "current": "0x000000000000000000000000000000000000000000000000000001cde4f96fb1",
                        "key": "0xf4689a0d78e3dfa5ed50f01b1c9d4fec1549c76aa8e3267fc0ee06ed56d596fd",
                        "prev": "0x00000000000000000000000000000000000000000000000000018be72ddee800"
                    },
                    {
                        "current": "0x000000000000000000000000000000000000000000000000008eb230fa952f4d",
                        "key": "0x4240fd3083f937135eed983ea7ca88ddbdc14fbd89137b8d2e4b4dae7a2bc34b",
                        "prev": "0x000000000000000000000000000000000000000000000000008d2817b1afb6fe"
                    },
                    {
                        "current": "0xfffffffffffffffffffffffffffffffffffffffffffffffffffe75e6b71a87b0",
                        "key": "0xda16b6251501d2897debdd9cd43a28f9bf62ea1110534b5c65382bf28ba84da8",
                        "prev": "0xffffffffffffffffffffffffffffffffffffffffffffffffffffffffffffffff"
                    }
                ],
                "storageVariables": [
                    {
                        "name": "_allowances",
                        "type": "mapping(address => mapping(address => uint256))",
                        "value": {
                            "pairs": [
                                {
                                    "key": "0xad9478644194a82c5522b9aa41a5fb32f88bca74",
                                    "value": {
                                        "pairs": [
                                            {
                                                "key": "0x7a250d5630b4cf539739df2c5dacb4c659f2488d",
                                                "value": {
                                                    "current": "115792089237316195423570985008687907853269984665640564039457583574596951115696",
                                                    "prev": "115792089237316195423570985008687907853269984665640564039457584007913129639935",
                                                    "typeTag": 1
                                                }
                                            }
                                        ],
                                        "typeTag": 4
                                    }
                                }
                            ],
                            "typeTag": 4
                        }
                    },
                    {
                        "name": "_balances",
                        "type": "mapping(address => uint256)",
                        "value": {
                            "pairs": [
                                {
                                    "key": "0x919b75ff6c4e4e89528641cf13e1d7f45de3ac03",
                                    "value": {
                                        "current": "40165370125168461",
                                        "prev": "39732053946644222",
                                        "typeTag": 1
                                    }
                                },
                                {
                                    "key": "0xad9478644194a82c5522b9aa41a5fb32f88bca74",
                                    "value": {
                                        "current": "1983821475761",
                                        "prev": "435300000000000",
                                        "typeTag": 1
                                    }
                                }
                            ],
                            "typeTag": 4
                        }
                    }
                ]
            },
            {
                "address": "0x919b75ff6c4e4e89528641cf13e1d7f45de3ac03",
                "erc": "ERC-20",
                "slots": [
                    {
                        "current": "0x00000000000000000000000000000000000429812b3343a7095dd5320c535155",
                        "key": "0x0000000000000000000000000000000000000000000000000000000000000009",
                        "prev": "0x00000000000000000000000000000000000413e0f3c7652e808f15fe88012d95"
                    },
                    {
                        "current": "0x0000000000000000000000000010d40e22eb234595fd34c8cca9b11fde7140de",
                        "key": "0x000000000000000000000000000000000000000000000000000000000000000a",
                        "prev": "0x0000000000000000000000000010694ecf216a23fd5368c32187f56b47d8f6da"
                    },
                    {
                        "current": "0x61cbcf63000000000000000000403a32f103000000000000008eb230fa952f4d",
                        "key": "0x0000000000000000000000000000000000000000000000000000000000000008",
                        "prev": "0x61cb9f570000000000000000003f88d0c903000000000000008d2817b1afb6fe"
                    },
                    {
                        "current": "0x00000000000000000000000000000000000000000000000000005f7e08cd4df8",
                        "key": "0x0000000000000000000000000000000000000000000000000000000000000000",
                        "prev": "0x00000000000000000000000000000000000000000000000000005e764d9bda26"
                    },
                    {
                        "current": "0x00000000000000000000000000000000000000000000000000000107bb3173d2",
                        "key": "0xd46e44a48e1a81d5a47305ba98379e68e1da4613859cecc05b268ce2ea49b81b",
                        "prev": "0x0000000000000000000000000000000000000000000000000000000000000000"
                    }
                ],
                "storageVariables": [
                    {
                        "name": "balanceOf",
                        "type": "mapping(address => uint256)",
                        "value": {
                            "pairs": [
                                {
                                    "key": "0xad9478644194a82c5522b9aa41a5fb32f88bca74",
                                    "value": {
                                        "current": "1132716979154",
                                        "prev": "0",
                                        "typeTag": 1
                                    }
                                }
                            ],
                            "typeTag": 4
                        }
                    },
                    {
                        "name": "price0CumulativeLast",
                        "type": "uint256",
                        "value": {
                            "current": "21611000030683488054779938696548693",
                            "prev": "21172375770923328982605209102527893",
                            "typeTag": 1
                        }
                    },
                    {
                        "name": "price1CumulativeLast",
                        "type": "uint256",
                        "value": {
                            "current": "375284538161817051633683673336007138338750686",
                            "prev": "365985530547638339976070277649640422668564186",
                            "typeTag": 1
                        }
                    },
                    {
                        "name": "reserve0",
                        "type": "uint112",
                        "value": {
                            "current": "40165370125168461",
                            "prev": "39732053946644222",
                            "typeTag": 1
                        }
                    },
                    {
                        "name": "reserve1",
                        "type": "uint112",
                        "value": {
                            "current": "275854323971",
                            "prev": "272878323971",
                            "typeTag": 1
                        }
                    },
                    {
                        "name": "blockTimestampLast",
                        "type": "uint32",
                        "value": {
                            "current": "1640746851",
                            "prev": "1640734551",
                            "typeTag": 1
                        }
                    },
                    {
                        "name": "totalSupply",
                        "type": "uint256",
                        "value": {
                            "current": "104994918190584",
                            "prev": "103862201211430",
                            "typeTag": 1
                        }
                    }
                ]
            },
            {
                "address": "0xdac17f958d2ee523a2206206994597c13d831ec7",
                "erc": "ERC-20",
                "slots": [
                    {
                        "current": "0x0000000000000000000000000000000000000000000000000000000000000000",
                        "key": "0xbc5928d4f2929f98cd6f0a8313ad12e269129181f7b536c42f3e569f683fa21f",
                        "prev": "0x00000000000000000000000000000000000000000000000000000000b1622800"
                    },
                    {
                        "current": "0x000000000000000000000000000000000000000000000000000000403a32f103",
                        "key": "0x3ee06a2602be9f85b917025ac268918c44884186e4b3ce9a6af614178aea70e2",
                        "prev": "0x0000000000000000000000000000000000000000000000000000003f88d0c903"
                    }
                ],
                "storageVariables": [
                    {
                        "name": "balances",
                        "type": "mapping(address => uint256)",
                        "value": {
                            "pairs": [
                                {
                                    "key": "0x919b75ff6c4e4e89528641cf13e1d7f45de3ac03",
                                    "value": {
                                        "current": "275854323971",
                                        "prev": "272878323971",
                                        "typeTag": 1
                                    }
                                },
                                {
                                    "key": "0xad9478644194a82c5522b9aa41a5fb32f88bca74",
                                    "value": {
                                        "current": "0",
                                        "prev": "2976000000",
                                        "typeTag": 1
                                    }
                                }
                            ],
                            "typeTag": 4
                        }
                    }
                ]
            }
        ]
    }
}