{
    "balance_change": {
        "balanceChanges": [
            {
                "account": "0xa4d65eaaf3e7acbc5e33a1f2c16e22429a556d59",
                "assets": [
                    {
                        "address": "0xaea46a60368a7bd060eec7df8cba43b7ef41ad85",
                        "amount": "215.27521171",
                        "iconUrl": "https://assets.blocksec.com/icon/d3080f4da7c6089bd3fe04fbe19c7d75d4a0470a84a3ea23f3292998e227fd3d.png",
                        "isERC1155": false,
                        "isERC721": false,
                        "sign": false,
                        "value": "473.60546574000003825"
                    }
                ]
            },
            {
                "account": "0x75e89d5979e4f6fba9f97c104c2f0afb3f1dcb88",
                "assets": [
                    {
                        "address": "0xaea46a60368a7bd060eec7df8cba43b7ef41ad85",
                        "amount": "215.27521171",
                        "iconUrl": "https://assets.blocksec.com/icon/d3080f4da7c6089bd3fe04fbe19c7d75d4a0470a84a3ea23f3292998e227fd3d.png",
                        "isERC1155": false,
                        "isERC721": false,
                        "sign": true,
                        "value": "473.60546574000003825"
                    }
                ]
            }
        ]
    },
    "profile": {
        "basic_info": {
            "baseFee": "79.354649991",
            "blockNumber": 19378196,
            "callData": "0xa9059cbb00000000000000000000000075e89d5979e4f6fba9f97c104c2f0afb3f1dcb8800000000000000000000000000000000000000000000000bab8b3079298fec00",
            "debugEnable": true,
            "errorInfo": "",
            "eventCount": 1,
            "feeRecipient": "0x95222290dd7278aa3ddd389cc1e1d165cc4bafe5",
            "formatValue": "0",
            "gasLimit": 55354,
            "gasPrice": "83.249757412",
            "gasUsed": 32054,
            "intTxnCount": 0,
            "internalRevert": false,
            "internalRevertMessage": "",
            "isContractCreation": false,
            "isFlashloan": false,
            "maxFee": "",
            "nonce": 0,
            "overwritedBlockNumber": -1,
            "priorityFee": "",
            "receiver": "0xaea46a60368a7bd060eec7df8cba43b7ef41ad85",
            "revertMessage": "",
            "sender": "0xa4d65eaaf3e7acbc5e33a1f2c16e22429a556d59",
            "simulationEnable": true,
            "sourceTxnHash": "0x43df94bad397eab331b9b694260d9b1bf180c70350dcada505eb12f1c10e05a5",
            "status": true,
            "timestamp": "2024-03-06T19:23:11Z",
            "transactionFee": "0.002668487724084248",
            "txnHash": "0x43df94bad397eab331b9b694260d9b1bf180c70350dcada505eb12f1c10e05a5",
            "txnIndex": 38,
            "type": 0,
            "value": "0"
        },
        "fund_flow": [
            {
                "amount": "215.27521171",
                "from": "0xa4d65eaaf3e7acbc5e33a1f2c16e22429a556d59",
                "id": 1,
                "isERC1155": false,
                "isERC721": false,
                "isReverted": false,
                "order": 1,
                "to": "0x75e89d5979e4f6fba9f97c104c2f0afb3f1dcb88",
                "token": "0xaea46a60368a7bd060eec7df8cba43b7ef41ad85"
            }
        ],
        "token_infos": [
            {
                "address": "0xaea46a60368a7bd060eec7df8cba43b7ef41ad85",
                "decimals": 18
            },
            {
                "address": "0xc02aaa39b223fe8d0a0e5c4f27ead9083c756cc2",
                "decimals": 18
            },
            {
                "address": "0xeeeeeeeeeeeeeeeeeeeeeeeeeeeeeeeeeeeeeeee",
                "decimals": 18
            }
        ]
    },
    "address_label": {
        "labels": [
            {
                "address": "0xeeeeeeeeeeeeeeeeeeeeeeeeeeeeeeeeeeeeeeee",
                "label": "Ether"
            },
            {
                "address": "0x75e89d5979e4f6fba9f97c104c2f0afb3f1dcb88",
                "label": "MEXC 1"
            },
            {
                "address": "0xaea46a60368a7bd060eec7df8cba43b7ef41ad85",
                "label": "Fetch.ai: FET Token"
            },
            {
                "address": "0x0000000000000000000000000000000000000001",
                "label": "Precompiled"
            },
            {
                "address": "0x0000000000000000000000000000000000000002",
                "label": "Precompiled"
            },
            {
                "address": "0x0000000000000000000000000000000000000003",
                "label": "Precompiled"
            },
            {
                "address": "0x0000000000000000000000000000000000000004",
                "label": "Precompiled"
            }
        ]
    },
    "trace": {
        "accountLabels": null,
        "dataMap": {
            "-1": {
                "invocation": {
                    "address": "0xa4d65eaaf3e7acbc5e33a1f2c16e22429a556d59",
                    "callData": "",
                    "decodedMethod": null,
                    "errorInfo": "",
                    "fromAddress": "",
                    "gasUsed": 0,
                    "id": -1,
                    "methodDecoded": false,
                    "operation": "",
                    "output": "",
                    "revert": false,
                    "revertMessage": "",
                    "selector": "",
                    "status": false,
                    "value": ""
                },
                "nodeType": 0
            },
            "0": {
                "invocation": {
                    "address": "0xaea46a60368a7bd060eec7df8cba43b7ef41ad85",
                    "callData": "0x00000000000000000000000075e89d5979e4f6fba9f97c104c2f0afb3f1dcb8800000000000000000000000000000000000000000000000bab8b3079298fec00",
                    "decodedMethod": {
                        "callParams": [
                            {
                                "name": "recipient",
                                "type": "address",
                                "value": "0x75e89d5979e4f6fba9f97c104c2f0afb3f1dcb88"
                            },
                            {
                                "decimalAvailable": true,
                                "name": "amount",
                                "type": "uint256",
                                "value": "215,275,211,710,000,000,000"
                            }
                        ],
                        "constructorArguments": "",
                        "name": "transfer",
                        "returnParams": [
                            {
                                "name": "",
                                "type": "bool",
                                "value": true
                            }
                        ],
                        "signature": "transfer(address,uint256)"
                    },
                    "errorInfo": "",
                    "fromAddress": "0xa4d65eaaf3e7acbc5e33a1f2c16e22429a556d59",
                    "gasUsed": 32054,
                    "id": 0,
                    "methodDecoded": true,
                    "operation": "CALL",
                    "output": "0x0000000000000000000000000000000000000000000000000000000000000001",
                    "revert": false,
                    "revertMessage": "",
                    "selector": "0xa9059cbb",
                    "status": true,
                    "value": "0"
                },
                "nodeType": 0
            },
            "1": {
                "event": {
                    "contract": "0xaea46a60368a7bd060eec7df8cba43b7ef41ad85",
                    "decodedLog": {
                        "name": "Transfer",
                        "params": [
                            {
                                "name": "from",
                                "type": "address",
                                "value": "0xa4d65eaaf3e7acbc5e33a1f2c16e22429a556d59"
                            },
                            {
                                "name": "to",
                                "type": "address",
                                "value": "0x75e89d5979e4f6fba9f97c104c2f0afb3f1dcb88"
                            },
                            {
                                "decimalAvailable": true,
                                "name": "value",
                                "type": "uint256",
                                "value": "215,275,211,710,000,000,000"
                            }
                        ],
                        "signature": "Transfer(address,address,uint256)"
                    },
                    "id": 1,
                    "logData": "0x00000000000000000000000000000000000000000000000bab8b3079298fec00",
                    "logDecoded": true,
                    "operation": "EVENT",
                    "revert": false,
                    "status": true,
                    "topics": [
                        "0xddf252ad1be2c89b69c2b068fc378daa952ba7f163c4a11628f55a4df523b3ef",
                        "0x000000000000000000000000a4d65eaaf3e7acbc5e33a1f2c16e22429a556d59",
                        "0x00000000000000000000000075e89d5979e4f6fba9f97c104c2f0afb3f1dcb88"
                    ]
                },
                "nodeType": 1
            }
        },
        "gasFlame": [
            {
                "children": [
                    {
                        "children": [
                            {
                                "children": [],
                                "depth": 0,
                                "name": "Initial Gas",
                                "value": 21656
                            },
                            {
                                "children": [],
                                "depth": 0,
                                "name": "Executed Gas",
                                "value": 15198
                            }
                        ],
                        "depth": -1,
                        "name": "Actual Gas Used",
                        "value": 32054
                    },
                    {
                        "children": [],
                        "depth": -1,
                        "name": "Refunded Gas",
                        "value": 4800
                    }
                ],
                "depth": -2,
                "name": "Total Gas",
                "value": 36854
            }
        ],
        "isConfirmed": true,
        "mainTrace": [
            {
                "children": [
                    {
                        "children": [
                            {
                                "children": [],
                                "depth": 1,
                                "id": 1,
                                "order": 1
                            }
                        ],
                        "depth": 0,
                        "id": 0,
                        "order": 0
                    }
                ],
                "depth": -1,
                "id": -1,
                "order": -1
            }
        ],
        "mainTraceNodeCount": 2,
        "parentIdMap": {
            "0": -1,
            "1": 0
        },
        "tidyTrace": [
            {
                "children": [
                    {
                        "children": [
                            {
                                "children": [],
                                "depth": 1,
                                "id": 1,
                                "order": 1
                            }
                        ],
                        "depth": 0,
                        "id": 0,
                        "order": 0
                    }
                ],
                "depth": -1,
                "id": -1,
                "order": -1
            }
        ],
        "tidyTraceNodeCount": 2
    },
    "state_change": {
        "stateChanges": [
            {
                "address": "0xaea46a60368a7bd060eec7df8cba43b7ef41ad85",
                "erc": "ERC-20",
                "slots": [
                    {
                        "current": "0x0000000000000000000000000000000000000000000000000000000000000000",
                        "key": "0x67014c6dc675f9949ebf76dfcef816b17c6f409e19526081f350af3eafbf4e3f",
                        "prev": "0x00000000000000000000000000000000000000000000000bab8b3079298fec00"
                    },
                    {
                        "current": "0x00000000000000000000000000000000000000000000da08d51805a6e40aa92c",
                        "key": "0xa572b75ff8eb3dddb240f22b8eaeeed413e49a800df181233773628bfb1e7cc0",
                        "prev": "0x00000000000000000000000000000000000000000000d9fd298cd52dba7abd2c"
                    }
                ],
                "storageVariables": [
                    {
                        "name": "_balances",
                        "type": "mapping(address => uint256)",
                        "value": {
                            "pairs": [
                                {
                                    "key": "0x75e89d5979e4f6fba9f97c104c2f0afb3f1dcb88",
                                    "value": {
                                        "current": "1029638822247316201318700",
                                        "prev": "1029423547035606201318700",
                                        "typeTag": 1
                                    }
                                },
                                {
                                    "key": "0xa4d65eaaf3e7acbc5e33a1f2c16e22429a556d59",
                                    "value": {
                                        "current": "0",
                                        "prev": "215275211710000000000",
                                        "typeTag": 1
                                    }
                                }
                            ],
                            "typeTag": 4
                        }
                    }
                ]
            }
        ]
    }
}