{
    "balance_change": {
        "balanceChanges": [
            {
                "account": "0x51c72848c68a965f66fa7a88855f9f7784502a7f",
                "assets": [
                    {
                        "address": "0x2260fac5e5542a773aa44fbcfedf7c193bc2c599",
                        "amount": "1.41692393",
                        "iconUrl": "https://assets.blocksec.com/icon/878f2983cb21c5816eb5879d9b6f7a3fe2eb6fce7560c367a0315527852a8a84.png",
                        "isERC1155": false,
                        "isERC721": false,
                        "sign": true,
                        "value": "100037.66330586"
                    },
                    {
                        "address": "0xc02aaa39b223fe8d0a0e5c4f27ead9083c756cc2",
                        "amount": "26.66192185169670144",
                        "iconUrl": "https://assets.blocksec.com/icon/f1cb2d02c471d545bbc7722daf3277fd852d98e63d118771af7047bd8256c516.png",
                        "isERC1155": false,
                        "isERC721": false,
                        "sign": false,
                        "value": "100197.90188526650388"
                    },
                    {
                        "address": "0xeeeeeeeeeeeeeeeeeeeeeeeeeeeeeeeeeeeeeeee",
                        "amount": "0.005581872652159603",
                        "iconUrl": "https://assets.blocksec.com/image/1663669189317-3.png",
                        "isERC1155": false,
                        "isERC721": false,
                        "sign": false,
                        "value": "20.977179794754680814"
                    }
                ]
            },
            {
                "account": "0x1f9090aae28b8a3dceadf281b0f12828e676c326",
                "assets": [
                    {
                        "address": "0xeeeeeeeeeeeeeeeeeeeeeeeeeeeeeeeeeeeeeeee",
                        "amount": "0.005581872652159603",
                        "iconUrl": "https://assets.blocksec.com/image/1663669189317-3.png",
                        "isERC1155": false,
                        "isERC721": false,
                        "sign": true,
                        "value": "20.977179794754680814"
                    }
                ]
            },
            {
                "account": "0x4585fe77225b41b697c938b018e2ac67ac5a20c0",
                "assets": [
                    {
                        "address": "0xc02aaa39b223fe8d0a0e5c4f27ead9083c756cc2",
                        "amount": "26.66192185169670144",
                        "iconUrl": "https://assets.blocksec.com/icon/f1cb2d02c471d545bbc7722daf3277fd852d98e63d118771af7047bd8256c516.png",
                        "isERC1155": false,
                        "isERC721": false,
                        "sign": true,
                        "value": "100197.90188526650388"
                    },
                    {
                        "address": "0x2260fac5e5542a773aa44fbcfedf7c193bc2c599",
                        "amount": "1.41692393",
                        "iconUrl": "https://assets.blocksec.com/icon/878f2983cb21c5816eb5879d9b6f7a3fe2eb6fce7560c367a0315527852a8a84.png",
                        "isERC1155": false,
                        "isERC721": false,
                        "sign": false,
                        "value": "100037.66330586"
                    }
                ]
            }
        ]
    },
    "profile": {
        "basic_info": {
            "baseFee": "22.589040906",
            "blockNumber": 19926037,
            "callData": "0x771d503f0000000000000000000000000000000000000000000000000013d4af009d0a730000000000000000000000004585fe77225b41b697c938b018e2ac67ac5a20c000000000000000000000000000000000000000000000000172022ca9c79b60000000000000000000000000000000000000000000000000000000000008720b25000000000000000000000000000000000000000000000000000000000000000000000000000000000000000000000000000000000000000000000000000000c00000000000000000000000000000000000000000000000000000000000000014c02aaa39b223fe8d0a0e5c4f27ead9083c756cc2000000000000000000000000",
            "debugEnable": true,
            "errorInfo": "",
            "eventCount": 3,
            "feeRecipient": "0x1f9090aae28b8a3dceadf281b0f12828e676c326",
            "formatValue": "0",
            "gasLimit": 152003,
            "gasPrice": "22.589040906",
            "gasUsed": 121663,
            "intTxnCount": 7,
            "internalRevert": false,
            "internalRevertMessage": "",
            "isContractCreation": false,
            "isFlashloan": false,
            "maxFee": "22.59129981",
            "nonce": 13178,
            "overwritedBlockNumber": -1,
            "priorityFee": "0",
            "receiver": "0x51c72848c68a965f66fa7a88855f9f7784502a7f",
            "revertMessage": "",
            "sender": "0x3a67b184803641ba107c4c75276d747d123e49ca",
            "simulationEnable": true,
            "sourceTxnHash": "0x44afe7ce070e56390619f73260f1dee06d89e0ff5520b6f52b79a8b59367308a",
            "status": true,
            "timestamp": "2024-05-22T14:32:47Z",
            "transactionFee": "0.002748250483746678",
            "txnHash": "0x44afe7ce070e56390619f73260f1dee06d89e0ff5520b6f52b79a8b59367308a",
            "txnIndex": 7,
            "type": 2,
            "value": "0"
        },
        "fund_flow": [
            {
                "amount": "1.41692393",
                "from": "0x4585fe77225b41b697c938b018e2ac67ac5a20c0",
                "id": 1,
                "isERC1155": false,
                "isERC721": false,
                "isReverted": false,
                "order": 1,
                "to": "0x51c72848c68a965f66fa7a88855f9f7784502a7f",
                "token": "0x2260fac5e5542a773aa44fbcfedf7c193bc2c599"
            },
            {
                "amount": "26.66192185169670144",
                "from": "0x51c72848c68a965f66fa7a88855f9f7784502a7f",
                "id": 2,
                "isERC1155": false,
                "isERC721": false,
                "isReverted": false,
                "order": 2,
                "to": "0x4585fe77225b41b697c938b018e2ac67ac5a20c0",
                "token": "0xc02aaa39b223fe8d0a0e5c4f27ead9083c756cc2"
            },
            {
                "amount": "0.005581872652159603",
                "from": "0x51c72848c68a965f66fa7a88855f9f7784502a7f",
                "id": 3,
                "isERC1155": false,
                "isERC721": false,
                "isReverted": false,
                "order": 3,
                "to": "0x1f9090aae28b8a3dceadf281b0f12828e676c326",
                "token": "0xeeeeeeeeeeeeeeeeeeeeeeeeeeeeeeeeeeeeeeee"
            }
        ],
        "token_infos": [
            {
                "address": "0x2260fac5e5542a773aa44fbcfedf7c193bc2c599",
                "decimals": 8
            },
            {
                "address": "0xc02aaa39b223fe8d0a0e5c4f27ead9083c756cc2",
                "decimals": 18
            },
            {
                "address": "0xeeeeeeeeeeeeeeeeeeeeeeeeeeeeeeeeeeeeeeee",
                "decimals": 18
            }
        ]
    },
    "address_label": {
        "labels": [
            {
                "address": "0x0000000000000000000000000000000000000002",
                "label": "Precompiled"
            },
            {
                "address": "0x0000000000000000000000000000000000000004",
                "label": "Precompiled"
            },
            {
                "address": "0xeeeeeeeeeeeeeeeeeeeeeeeeeeeeeeeeeeeeeeee",
                "label": "Ether"
            },
            {
                "address": "0x1f9090aae28b8a3dceadf281b0f12828e676c326",
                "label": "rsync-builder"
            },
            {
                "address": "0xc02aaa39b223fe8d0a0e5c4f27ead9083c756cc2",
                "label": "Wrapped Ether (WETH)"
            },
            {
                "address": "0x4585fe77225b41b697c938b018e2ac67ac5a20c0",
                "label": "Uniswap V3: WBTC 2"
            },
            {
                "address": "0x0000000000000000000000000000000000000001",
                "label": "Precompiled"
            },
            {
                "address": "0x51c72848c68a965f66fa7a88855f9f7784502a7f",
                "label": "MEV Bot: 0x51C\u2026a7F"
            },
            {
                "address": "0x2260fac5e5542a773aa44fbcfedf7c193bc2c599",
                "label": "Wrapped BTC: WBTC Token"
            },
            {
                "address": "0x0000000000000000000000000000000000000003",
                "label": "Precompiled"
            }
        ]
    },
    "trace": {
        "accountLabels": null,
        "dataMap": {
            "-1": {
                "invocation": {
                    "address": "0x3a67b184803641ba107c4c75276d747d123e49ca",
                    "callData": "",
                    "decodedMethod": null,
                    "errorInfo": "",
                    "fromAddress": "",
                    "gasUsed": 0,
                    "id": -1,
                    "methodDecoded": false,
                    "operation": "",
                    "output": "",
                    "revert": false,
                    "revertMessage": "",
                    "selector": "",
                    "status": false,
                    "value": ""
                },
                "nodeType": 0
            },
            "0": {
                "invocation": {
                    "address": "0x51c72848c68a965f66fa7a88855f9f7784502a7f",
                    "callData": "0x0000000000000000000000000000000000000000000000000013d4af009d0a730000000000000000000000004585fe77225b41b697c938b018e2ac67ac5a20c000000000000000000000000000000000000000000000000172022ca9c79b60000000000000000000000000000000000000000000000000000000000008720b25000000000000000000000000000000000000000000000000000000000000000000000000000000000000000000000000000000000000000000000000000000c00000000000000000000000000000000000000000000000000000000000000014c02aaa39b223fe8d0a0e5c4f27ead9083c756cc2000000000000000000000000",
                    "decodedMethod": null,
                    "errorInfo": "",
                    "fromAddress": "0x3a67b184803641ba107c4c75276d747d123e49ca",
                    "gasUsed": 121663,
                    "id": 0,
                    "methodDecoded": false,
                    "operation": "CALL",
                    "output": "",
                    "revert": false,
                    "revertMessage": "",
                    "selector": "0x771d503f",
                    "status": true,
                    "value": "0"
                },
                "nodeType": 0
            },
            "1": {
                "invocation": {
                    "address": "0x4585fe77225b41b697c938b018e2ac67ac5a20c0",
                    "callData": "0x00000000000000000000000051c72848c68a965f66fa7a88855f9f7784502a7f000000000000000000000000000000000000000000000000000000000000000000000000000000000000000000000000000000000000000172022ca9c79b6000000000000000000000000000fffd8963efd1fc6a506488495d951d5263988d2500000000000000000000000000000000000000000000000000000000000000a00000000000000000000000000000000000000000000000000000000000000014c02aaa39b223fe8d0a0e5c4f27ead9083c756cc2000000000000000000000000",
                    "decodedMethod": {
                        "callParams": [
                            {
                                "name": "recipient",
                                "type": "address",
                                "value": "0x51c72848c68a965f66fa7a88855f9f7784502a7f"
                            },
                            {
                                "name": "zeroForOne",
                                "type": "bool",
                                "value": false
                            },
                            {
                                "name": "amountSpecified",
                                "type": "int256",
                                "value": "26,661,921,851,696,701,440"
                            },
                            {
                                "name": "sqrtPriceLimitX96",
                                "type": "uint160",
                                "value": "1,461,446,703,485,210,103,287,273,052,203,988,822,378,723,970,341"
                            },
                            {
                                "name": "data",
                                "type": "bytes",
                                "value": "0xc02aaa39b223fe8d0a0e5c4f27ead9083c756cc2"
                            }
                        ],
                        "constructorArguments": "",
                        "name": "swap",
                        "returnParams": [
                            {
                                "name": "amount0",
                                "type": "int256",
                                "value": "-141,692,393"
                            },
                            {
                                "name": "amount1",
                                "type": "int256",
                                "value": "26,661,921,851,696,701,440"
                            }
                        ],
                        "signature": "swap(address,bool,int256,uint160,bytes)"
                    },
                    "errorInfo": "",
                    "fromAddress": "0x51c72848c68a965f66fa7a88855f9f7784502a7f",
                    "gasUsed": 78515,
                    "id": 1,
                    "methodDecoded": true,
                    "operation": "CALL",
                    "output": "0xfffffffffffffffffffffffffffffffffffffffffffffffffffffffff78df21700000000000000000000000000000000000000000000000172022ca9c79b6000",
                    "revert": false,
                    "revertMessage": "",
                    "selector": "0x128acb08",
                    "status": true,
                    "value": "0"
                },
                "nodeType": 0
            },
            "10": {
                "invocation": {
                    "address": "0x1f9090aae28b8a3dceadf281b0f12828e676c326",
                    "callData": "0x",
                    "decodedMethod": null,
                    "errorInfo": "",
                    "fromAddress": "0x51c72848c68a965f66fa7a88855f9f7784502a7f",
                    "gasUsed": 0,
                    "id": 10,
                    "methodDecoded": false,
                    "operation": "CALL",
                    "output": "",
                    "revert": false,
                    "revertMessage": "",
                    "selector": "fallback",
                    "status": true,
                    "value": "0.005581872652159603"
                },
                "nodeType": 0
            },
            "2": {
                "invocation": {
                    "address": "0x2260fac5e5542a773aa44fbcfedf7c193bc2c599",
                    "callData": "0x00000000000000000000000051c72848c68a965f66fa7a88855f9f7784502a7f0000000000000000000000000000000000000000000000000000000008720de9",
                    "decodedMethod": {
                        "callParams": [
                            {
                                "name": "_to",
                                "type": "address",
                                "value": "0x51c72848c68a965f66fa7a88855f9f7784502a7f"
                            },
                            {
                                "decimalAvailable": true,
                                "name": "_value",
                                "type": "uint256",
                                "value": "141,692,393"
                            }
                        ],
                        "constructorArguments": "",
                        "name": "transfer",
                        "returnParams": [
                            {
                                "name": "",
                                "type": "bool",
                                "value": true
                            }
                        ],
                        "signature": "transfer(address,uint256)"
                    },
                    "errorInfo": "",
                    "fromAddress": "0x4585fe77225b41b697c938b018e2ac67ac5a20c0",
                    "gasUsed": 15703,
                    "id": 2,
                    "methodDecoded": true,
                    "operation": "CALL",
                    "output": "0x0000000000000000000000000000000000000000000000000000000000000001",
                    "revert": false,
                    "revertMessage": "",
                    "selector": "0xa9059cbb",
                    "status": true,
                    "value": "0"
                },
                "nodeType": 0
            },
            "3": {
                "event": {
                    "contract": "0x2260fac5e5542a773aa44fbcfedf7c193bc2c599",
                    "decodedLog": {
                        "name": "Transfer",
                        "params": [
                            {
                                "name": "from",
                                "type": "address",
                                "value": "0x4585fe77225b41b697c938b018e2ac67ac5a20c0"
                            },
                            {
                                "name": "to",
                                "type": "address",
                                "value": "0x51c72848c68a965f66fa7a88855f9f7784502a7f"
                            },
                            {
                                "decimalAvailable": true,
                                "name": "value",
                                "type": "uint256",
                                "value": "141,692,393"
                            }
                        ],
                        "signature": "Transfer(address,address,uint256)"
                    },
                    "id": 3,
                    "logData": "0x0000000000000000000000000000000000000000000000000000000008720de9",
                    "logDecoded": true,
                    "operation": "EVENT",
                    "revert": false,
                    "status": true,
                    "topics": [
                        "0xddf252ad1be2c89b69c2b068fc378daa952ba7f163c4a11628f55a4df523b3ef",
                        "0x0000000000000000000000004585fe77225b41b697c938b018e2ac67ac5a20c0",
                        "0x00000000000000000000000051c72848c68a965f66fa7a88855f9f7784502a7f"
                    ]
                },
                "nodeType": 1
            },
            "4": {
                "invocation": {
                    "address": "0xc02aaa39b223fe8d0a0e5c4f27ead9083c756cc2",
                    "callData": "0x0000000000000000000000004585fe77225b41b697c938b018e2ac67ac5a20c0",
                    "decodedMethod": {
                        "callParams": [
                            {
                                "name": "",
                                "type": "address",
                                "value": "0x4585fe77225b41b697c938b018e2ac67ac5a20c0"
                            }
                        ],
                        "constructorArguments": "",
                        "name": "balanceOf",
                        "returnParams": [
                            {
                                "decimalAvailable": true,
                                "name": "",
                                "type": "uint256",
                                "value": "16,198,263,302,449,879,301,460"
                            }
                        ],
                        "signature": "balanceOf(address)"
                    },
                    "errorInfo": "",
                    "fromAddress": "0x4585fe77225b41b697c938b018e2ac67ac5a20c0",
                    "gasUsed": 2534,
                    "id": 4,
                    "methodDecoded": true,
                    "operation": "STATICCALL",
                    "output": "0x00000000000000000000000000000000000000000000036e1c0f9b8042e3bd54",
                    "revert": false,
                    "revertMessage": "",
                    "selector": "0x70a08231",
                    "status": true,
                    "value": "0"
                },
                "nodeType": 0
            },
            "5": {
                "invocation": {
                    "address": "0x51c72848c68a965f66fa7a88855f9f7784502a7f",
                    "callData": "0xfffffffffffffffffffffffffffffffffffffffffffffffffffffffff78df21700000000000000000000000000000000000000000000000172022ca9c79b600000000000000000000000000000000000000000000000000000000000000000600000000000000000000000000000000000000000000000000000000000000014c02aaa39b223fe8d0a0e5c4f27ead9083c756cc2000000000000000000000000",
                    "decodedMethod": {
                        "callParams": [
                            {
                                "name": "amount0Delta",
                                "type": "int256",
                                "value": "-141,692,393"
                            },
                            {
                                "name": "amount1Delta",
                                "type": "int256",
                                "value": "26,661,921,851,696,701,440"
                            },
                            {
                                "name": "data",
                                "type": "bytes",
                                "value": "0xc02aaa39b223fe8d0a0e5c4f27ead9083c756cc2"
                            }
                        ],
                        "constructorArguments": "",
                        "name": "uniswapV3SwapCallback",
                        "returnParams": [],
                        "signature": "uniswapV3SwapCallback(int256,int256,bytes)"
                    },
                    "errorInfo": "",
                    "fromAddress": "0x4585fe77225b41b697c938b018e2ac67ac5a20c0",
                    "gasUsed": 13643,
                    "id": 5,
                    "methodDecoded": true,
                    "operation": "CALL",
                    "output": "",
                    "revert": false,
                    "revertMessage": "",
                    "selector": "0xfa461e33",
                    "status": true,
                    "value": "0"
                },
                "nodeType": 0
            },
            "6": {
                "invocation": {
                    "address": "0xc02aaa39b223fe8d0a0e5c4f27ead9083c756cc2",
                    "callData": "0x0000000000000000000000004585fe77225b41b697c938b018e2ac67ac5a20c000000000000000000000000000000000000000000000000172022ca9c79b6000",
                    "decodedMethod": {
                        "callParams": [
                            {
                                "name": "dst",
                                "type": "address",
                                "value": "0x4585fe77225b41b697c938b018e2ac67ac5a20c0"
                            },
                            {
                                "decimalAvailable": true,
                                "name": "wad",
                                "type": "uint256",
                                "value": "26,661,921,851,696,701,440"
                            }
                        ],
                        "constructorArguments": "",
                        "name": "transfer",
                        "returnParams": [
                            {
                                "name": "",
                                "type": "bool",
                                "value": true
                            }
                        ],
                        "signature": "transfer(address,uint256)"
                    },
                    "errorInfo": "",
                    "fromAddress": "0x51c72848c68a965f66fa7a88855f9f7784502a7f",
                    "gasUsed": 10862,
                    "id": 6,
                    "methodDecoded": true,
                    "operation": "CALL",
                    "output": "0x0000000000000000000000000000000000000000000000000000000000000001",
                    "revert": false,
                    "revertMessage": "",
                    "selector": "0xa9059cbb",
                    "status": true,
                    "value": "0"
                },
                "nodeType": 0
            },
            "7": {
                "event": {
                    "contract": "0xc02aaa39b223fe8d0a0e5c4f27ead9083c756cc2",
                    "decodedLog": {
                        "name": "Transfer",
                        "params": [
                            {
                                "name": "src",
                                "type": "address",
                                "value": "0x51c72848c68a965f66fa7a88855f9f7784502a7f"
                            },
                            {
                                "name": "dst",
                                "type": "address",
                                "value": "0x4585fe77225b41b697c938b018e2ac67ac5a20c0"
                            },
                            {
                                "decimalAvailable": true,
                                "name": "wad",
                                "type": "uint256",
                                "value": "26,661,921,851,696,701,440"
                            }
                        ],
                        "signature": "Transfer(address,address,uint256)"
                    },
                    "id": 7,
                    "logData": "0x00000000000000000000000000000000000000000000000172022ca9c79b6000",
                    "logDecoded": true,
                    "operation": "EVENT",
                    "revert": false,
                    "status": true,
                    "topics": [
                        "0xddf252ad1be2c89b69c2b068fc378daa952ba7f163c4a11628f55a4df523b3ef",
                        "0x00000000000000000000000051c72848c68a965f66fa7a88855f9f7784502a7f",
                        "0x0000000000000000000000004585fe77225b41b697c938b018e2ac67ac5a20c0"
                    ]
                },
                "nodeType": 1
            },
            "8": {
                "invocation": {
                    "address": "0xc02aaa39b223fe8d0a0e5c4f27ead9083c756cc2",
                    "callData": "0x0000000000000000000000004585fe77225b41b697c938b018e2ac67ac5a20c0",
                    "decodedMethod": {
                        "callParams": [
                            {
                                "name": "",
                                "type": "address",
                                "value": "0x4585fe77225b41b697c938b018e2ac67ac5a20c0"
                            }
                        ],
                        "constructorArguments": "",
                        "name": "balanceOf",
                        "returnParams": [
                            {
                                "decimalAvailable": true,
                                "name": "",
                                "type": "uint256",
                                "value": "16,224,925,224,301,576,002,900"
                            }
                        ],
                        "signature": "balanceOf(address)"
                    },
                    "errorInfo": "",
                    "fromAddress": "0x4585fe77225b41b697c938b018e2ac67ac5a20c0",
                    "gasUsed": 534,
                    "id": 8,
                    "methodDecoded": true,
                    "operation": "STATICCALL",
                    "output": "0x00000000000000000000000000000000000000000000036f8e11c82a0a7f1d54",
                    "revert": false,
                    "revertMessage": "",
                    "selector": "0x70a08231",
                    "status": true,
                    "value": "0"
                },
                "nodeType": 0
            },
            "9": {
                "event": {
                    "contract": "0x4585fe77225b41b697c938b018e2ac67ac5a20c0",
                    "decodedLog": {
                        "name": "Swap",
                        "params": [
                            {
                                "name": "sender",
                                "type": "address",
                                "value": "0x51c72848c68a965f66fa7a88855f9f7784502a7f"
                            },
                            {
                                "name": "recipient",
                                "type": "address",
                                "value": "0x51c72848c68a965f66fa7a88855f9f7784502a7f"
                            },
                            {
                                "name": "amount0",
                                "type": "int256",
                                "value": "-141,692,393"
                            },
                            {
                                "name": "amount1",
                                "type": "int256",
                                "value": "26,661,921,851,696,701,440"
                            },
                            {
                                "name": "sqrtPriceX96",
                                "type": "uint160",
                                "value": "34,361,548,901,302,679,168,624,665,940,734,931"
                            },
                            {
                                "name": "liquidity",
                                "type": "uint128",
                                "value": "455,541,381,534,590,414"
                            },
                            {
                                "name": "tick",
                                "type": "int24",
                                "value": "259,615"
                            }
                        ],
                        "signature": "Swap(address,address,int256,int256,uint160,uint128,int24)"
                    },
                    "id": 9,
                    "logData": "0xfffffffffffffffffffffffffffffffffffffffffffffffffffffffff78df21700000000000000000000000000000000000000000000000172022ca9c79b60000000000000000000000000000000000000069e27b89c734b2302028ba1c033d30000000000000000000000000000000000000000000000000652687912dc25ce000000000000000000000000000000000000000000000000000000000003f61f",
                    "logDecoded": true,
                    "operation": "EVENT",
                    "revert": false,
                    "status": true,
                    "topics": [
                        "0xc42079f94a6350d7e6235f29174924f928cc2ac818eb64fed8004e115fbcca67",
                        "0x00000000000000000000000051c72848c68a965f66fa7a88855f9f7784502a7f",
                        "0x00000000000000000000000051c72848c68a965f66fa7a88855f9f7784502a7f"
                    ]
                },
                "nodeType": 1
            }
        },
        "gasFlame": [
            {
                "children": [
                    {
                        "children": [
                            {
                                "children": [],
                                "depth": 0,
                                "name": "Initial Gas",
                                "value": 22808
                            },
                            {
                                "children": [
                                    {
                                        "children": [
                                            {
                                                "children": [],
                                                "depth": 2,
                                                "name": "transfer",
                                                "value": 15703
                                            },
                                            {
                                                "children": [],
                                                "depth": 2,
                                                "name": "balanceOf",
                                                "value": 2534
                                            },
                                            {
                                                "children": [
                                                    {
                                                        "children": [],
                                                        "depth": 3,
                                                        "name": "transfer",
                                                        "value": 10862
                                                    }
                                                ],
                                                "depth": 2,
                                                "name": "uniswapV3SwapCallback",
                                                "value": 13643
                                            },
                                            {
                                                "children": [],
                                                "depth": 2,
                                                "name": "balanceOf",
                                                "value": 534
                                            }
                                        ],
                                        "depth": 1,
                                        "name": "swap",
                                        "value": 78515
                                    },
                                    {
                                        "children": [],
                                        "depth": 1,
                                        "name": "fallback",
                                        "value": 0
                                    }
                                ],
                                "depth": 0,
                                "name": "Executed Gas",
                                "value": 98855
                            }
                        ],
                        "depth": -1,
                        "name": "Actual Gas Used",
                        "value": 121663
                    },
                    {
                        "children": [],
                        "depth": -1,
                        "name": "Refunded Gas",
                        "value": 0
                    }
                ],
                "depth": -2,
                "name": "Total Gas",
                "value": 121663
            }
        ],
        "isConfirmed": true,
        "mainTrace": [
            {
                "children": [
                    {
                        "children": [
                            {
                                "children": [
                                    {
                                        "children": [
                                            {
                                                "children": [],
                                                "depth": 3,
                                                "id": 3,
                                                "order": 3
                                            }
                                        ],
                                        "depth": 2,
                                        "id": 2,
                                        "order": 2
                                    },
                                    {
                                        "children": [],
                                        "depth": 2,
                                        "id": 4,
                                        "order": 4
                                    },
                                    {
                                        "children": [
                                            {
                                                "children": [
                                                    {
                                                        "children": [],
                                                        "depth": 4,
                                                        "id": 7,
                                                        "order": 7
                                                    }
                                                ],
                                                "depth": 3,
                                                "id": 6,
                                                "order": 6
                                            }
                                        ],
                                        "depth": 2,
                                        "id": 5,
                                        "order": 5
                                    },
                                    {
                                        "children": [],
                                        "depth": 2,
                                        "id": 8,
                                        "order": 8
                                    },
                                    {
                                        "children": [],
                                        "depth": 2,
                                        "id": 9,
                                        "order": 9
                                    }
                                ],
                                "depth": 1,
                                "id": 1,
                                "order": 1
                            },
                            {
                                "children": [],
                                "depth": 1,
                                "id": 10,
                                "order": 10
                            }
                        ],
                        "depth": 0,
                        "id": 0,
                        "order": 0
                    }
                ],
                "depth": -1,
                "id": -1,
                "order": -1
            }
        ],
        "mainTraceNodeCount": 11,
        "parentIdMap": {
            "0": -1,
            "1": 0,
            "10": 0,
            "2": 1,
            "3": 2,
            "4": 1,
            "5": 1,
            "6": 5,
            "7": 6,
            "8": 1,
            "9": 1
        },
        "tidyTrace": [
            {
                "children": [
                    {
                        "children": [
                            {
                                "children": [
                                    {
                                        "children": [
                                            {
                                                "children": [],
                                                "depth": 3,
                                                "id": 3,
                                                "order": 3
                                            }
                                        ],
                                        "depth": 2,
                                        "id": 2,
                                        "order": 2
                                    },
                                    {
                                        "children": [
                                            {
                                                "children": [
                                                    {
                                                        "children": [],
                                                        "depth": 4,
                                                        "id": 7,
                                                        "order": 7
                                                    }
                                                ],
                                                "depth": 3,
                                                "id": 6,
                                                "order": 6
                                            }
                                        ],
                                        "depth": 2,
                                        "id": 5,
                                        "order": 5
                                    },
                                    {
                                        "children": [],
                                        "depth": 2,
                                        "id": 9,
                                        "order": 9
                                    }
                                ],
                                "depth": 1,
                                "id": 1,
                                "order": 1
                            },
                            {
                                "children": [],
                                "depth": 1,
                                "id": 10,
                                "order": 10
                            }
                        ],
                        "depth": 0,
                        "id": 0,
                        "order": 0
                    }
                ],
                "depth": -1,
                "id": -1,
                "order": -1
            }
        ],
        "tidyTraceNodeCount": 9
    },
    "state_change": {
        "stateChanges": [
            {
                "address": "0x2260fac5e5542a773aa44fbcfedf7c193bc2c599",
                "erc": "ERC-20",
                "slots": [
                    {
                        "current": "0x0000000000000000000000000000000000000000000000000000000997296484",
                        "key": "0xdc276a4f120117ad5ae6415d1c724b4f3a0e81f0ee6466e1392ca121b63123f2",
                        "prev": "0x000000000000000000000000000000000000000000000000000000099f9b726d"
                    },
                    {
                        "current": "0x000000000000000000000000000000000000000000000000000000015cf4eae7",
                        "key": "0x356ea57d585b4c2292ee2a39c9da213499f25d18b4fba5671c7bc01208e40e2e",
                        "prev": "0x000000000000000000000000000000000000000000000000000000015482dcfe"
                    }
                ],
                "storageVariables": [
                    {
                        "name": "balances",
                        "type": "mapping(address => uint256)",
                        "value": {
                            "pairs": [
                                {
                                    "key": "0x4585fe77225b41b697c938b018e2ac67ac5a20c0",
                                    "value": {
                                        "current": "41190777988",
                                        "prev": "41332470381",
                                        "typeTag": 1
                                    }
                                },
                                {
                                    "key": "0x51c72848c68a965f66fa7a88855f9f7784502a7f",
                                    "value": {
                                        "current": "5854522087",
                                        "prev": "5712829694",
                                        "typeTag": 1
                                    }
                                }
                            ],
                            "typeTag": 4
                        }
                    }
                ]
            },
            {
                "address": "0x4585fe77225b41b697c938b018e2ac67ac5a20c0",
                "erc": "",
                "slots": [
                    {
                        "current": "0x000100012c012c006503f61f0000000000069e27b89c734b2302028ba1c033d3",
                        "key": "0x0000000000000000000000000000000000000000000000000000000000000000",
                        "prev": "0x000100012c012c006403f61c0000000000069ded38efe19a8d47630a8eaa8a71"
                    },
                    {
                        "current": "0x010000000000000bf932aac03b66e0659971d9b8240016866a8999b8664e020f",
                        "key": "0x000000000000000000000000000000000000000000000000000000000000006d",
                        "prev": "0x010000000000000bf9329ac721850e2dfe67ada122001685391413c8664db4f3"
                    },
                    {
                        "current": "0x000000000000000000000000000041cf40303e2a855e1a5f166f2fad87dbd46f",
                        "key": "0x0000000000000000000000000000000000000000000000000000000000000002",
                        "prev": "0x000000000000000000000000000041cf38b265cb06619863f173c8f022e418a4"
                    }
                ],
                "storageVariables": []
            },
            {
                "address": "0xc02aaa39b223fe8d0a0e5c4f27ead9083c756cc2",
                "erc": "ERC-20",
                "slots": [
                    {
                        "current": "0x00000000000000000000000000000000000000000000036f8e11c82a0a7f1d54",
                        "key": "0x9ede93be0d8fc6a5eb9cf1c7345a85b7519d8487a727aef0c2f00ab966aa7716",
                        "prev": "0x00000000000000000000000000000000000000000000036e1c0f9b8042e3bd54"
                    },
                    {
                        "current": "0x00000000000000000000000000000000000000000000007294005c437330ce35",
                        "key": "0x3a3aec5717af62dfc0f5ede964a3e44cef7c5ba4453963ee6e3545ea9708690f",
                        "prev": "0x000000000000000000000000000000000000000000000074060288ed3acc2e35"
                    }
                ],
                "storageVariables": [
                    {
                        "name": "balanceOf",
                        "type": "mapping(address => uint256)",
                        "value": {
                            "pairs": [
                                {
                                    "key": "0x4585fe77225b41b697c938b018e2ac67ac5a20c0",
                                    "value": {
                                        "current": "16224925224301576002900",
                                        "prev": "16198263302449879301460",
                                        "typeTag": 1
                                    }
                                },
                                {
                                    "key": "0x51c72848c68a965f66fa7a88855f9f7784502a7f",
                                    "value": {
                                        "current": "2113593449765267361333",
                                        "prev": "2140255371616964062773",
                                        "typeTag": 1
                                    }
                                }
                            ],
                            "typeTag": 4
                        }
                    }
                ]
            }
        ]
    }
}