{
    "balance_change": {
        "balanceChanges": [
            {
                "account": "0x9b3834035262d2277fc01410929f49ee2e3a85e1",
                "assets": [
                    {
                        "address": "0x62b9f8741bf53a6986a5411c0557c30f6f11f3af",
                        "amount": "397",
                        "iconUrl": "",
                        "isERC1155": false,
                        "isERC721": false,
                        "sign": false,
                        "value": ""
                    }
                ]
            },
            {
                "account": "0xbf4805268f7fb84c053e10d46a091dbf76c9f844",
                "assets": [
                    {
                        "address": "0x62b9f8741bf53a6986a5411c0557c30f6f11f3af",
                        "amount": "397",
                        "iconUrl": "",
                        "isERC1155": false,
                        "isERC721": false,
                        "sign": true,
                        "value": ""
                    }
                ]
            }
        ]
    },
    "profile": {
        "basic_info": {
            "baseFee": "",
            "blockNumber": 8921434,
            "callData": "0xa9059cbb000000000000000000000000bf4805268f7fb84c053e10d46a091dbf76c9f844000000000000000000000000000000000000000000000015857b549a96140000",
            "debugEnable": true,
            "errorInfo": "",
            "eventCount": 1,
            "feeRecipient": "0x2a65aca4d5fc5b5c859090a6c34d164135398226",
            "formatValue": "0",
            "gasLimit": 90000,
            "gasPrice": "20",
            "gasUsed": 37966,
            "intTxnCount": 0,
            "internalRevert": false,
            "internalRevertMessage": "",
            "isContractCreation": false,
            "isFlashloan": false,
            "maxFee": "",
            "nonce": 12427,
            "overwritedBlockNumber": -1,
            "priorityFee": "",
            "receiver": "0x62b9f8741bf53a6986a5411c0557c30f6f11f3af",
            "revertMessage": "",
            "sender": "0x9b3834035262d2277fc01410929f49ee2e3a85e1",
            "simulationEnable": true,
            "sourceTxnHash": "0x44e3975719588341bd68ecd27d6f288861c5f34af6f26e98bdb285ec583a7f1d",
            "status": true,
            "timestamp": "2019-11-12T16:39:36Z",
            "transactionFee": "0.00075932",
            "txnHash": "0x44e3975719588341bd68ecd27d6f288861c5f34af6f26e98bdb285ec583a7f1d",
            "txnIndex": 161,
            "type": 0,
            "value": "0"
        },
        "fund_flow": [
            {
                "amount": "397",
                "from": "0x9b3834035262d2277fc01410929f49ee2e3a85e1",
                "id": 1,
                "isERC1155": false,
                "isERC721": false,
                "isReverted": false,
                "order": 1,
                "to": "0xbf4805268f7fb84c053e10d46a091dbf76c9f844",
                "token": "0x62b9f8741bf53a6986a5411c0557c30f6f11f3af"
            }
        ],
        "token_infos": [
            {
                "address": "0xc02aaa39b223fe8d0a0e5c4f27ead9083c756cc2",
                "decimals": 18
            },
            {
                "address": "0xeeeeeeeeeeeeeeeeeeeeeeeeeeeeeeeeeeeeeeee",
                "decimals": 18
            },
            {
                "address": "0x62b9f8741bf53a6986a5411c0557c30f6f11f3af",
                "decimals": 18
            }
        ]
    },
    "address_label": {
        "labels": [
            {
                "address": "0x0000000000000000000000000000000000000003",
                "label": "Precompiled"
            },
            {
                "address": "0x0000000000000000000000000000000000000004",
                "label": "Precompiled"
            },
            {
                "address": "0xeeeeeeeeeeeeeeeeeeeeeeeeeeeeeeeeeeeeeeee",
                "label": "Ether"
            },
            {
                "address": "0x62b9f8741bf53a6986a5411c0557c30f6f11f3af",
                "label": "5GH (5GH)"
            },
            {
                "address": "0x0000000000000000000000000000000000000001",
                "label": "Precompiled"
            },
            {
                "address": "0x0000000000000000000000000000000000000002",
                "label": "Precompiled"
            }
        ]
    },
    "trace": {
        "accountLabels": null,
        "dataMap": {
            "-1": {
                "invocation": {
                    "address": "0x9b3834035262d2277fc01410929f49ee2e3a85e1",
                    "callData": "",
                    "decodedMethod": null,
                    "errorInfo": "",
                    "fromAddress": "",
                    "gasUsed": 0,
                    "id": -1,
                    "methodDecoded": false,
                    "operation": "",
                    "output": "",
                    "revert": false,
                    "revertMessage": "",
                    "selector": "",
                    "status": false,
                    "value": ""
                },
                "nodeType": 0
            },
            "0": {
                "invocation": {
                    "address": "0x62b9f8741bf53a6986a5411c0557c30f6f11f3af",
                    "callData": "0x000000000000000000000000bf4805268f7fb84c053e10d46a091dbf76c9f844000000000000000000000000000000000000000000000015857b549a96140000",
                    "decodedMethod": {
                        "callParams": [
                            {
                                "name": "_to",
                                "type": "address",
                                "value": "0xbf4805268f7fb84c053e10d46a091dbf76c9f844"
                            },
                            {
                                "decimalAvailable": true,
                                "name": "_value",
                                "type": "uint256",
                                "value": "397,000,000,000,000,000,000"
                            }
                        ],
                        "constructorArguments": "",
                        "name": "transfer",
                        "returnParams": [
                            {
                                "name": "success",
                                "type": "bool",
                                "value": true
                            }
                        ],
                        "signature": "transfer(address,uint256)"
                    },
                    "errorInfo": "",
                    "fromAddress": "0x9b3834035262d2277fc01410929f49ee2e3a85e1",
                    "gasUsed": 37966,
                    "id": 0,
                    "methodDecoded": true,
                    "operation": "CALL",
                    "output": "0x0000000000000000000000000000000000000000000000000000000000000001",
                    "revert": false,
                    "revertMessage": "",
                    "selector": "0xa9059cbb",
                    "status": true,
                    "value": "0"
                },
                "nodeType": 0
            },
            "1": {
                "event": {
                    "contract": "0x62b9f8741bf53a6986a5411c0557c30f6f11f3af",
                    "decodedLog": {
                        "name": "Transfer",
                        "params": [
                            {
                                "name": "from",
                                "type": "address",
                                "value": "0x9b3834035262d2277fc01410929f49ee2e3a85e1"
                            },
                            {
                                "name": "to",
                                "type": "address",
                                "value": "0xbf4805268f7fb84c053e10d46a091dbf76c9f844"
                            },
                            {
                                "decimalAvailable": true,
                                "name": "value",
                                "type": "uint256",
                                "value": "397,000,000,000,000,000,000"
                            }
                        ],
                        "signature": "Transfer(address,address,uint256)"
                    },
                    "id": 1,
                    "logData": "0x000000000000000000000000000000000000000000000015857b549a96140000",
                    "logDecoded": true,
                    "operation": "EVENT",
                    "revert": false,
                    "status": true,
                    "topics": [
                        "0xddf252ad1be2c89b69c2b068fc378daa952ba7f163c4a11628f55a4df523b3ef",
                        "0x0000000000000000000000009b3834035262d2277fc01410929f49ee2e3a85e1",
                        "0x000000000000000000000000bf4805268f7fb84c053e10d46a091dbf76c9f844"
                    ]
                },
                "nodeType": 1
            }
        },
        "gasFlame": [
            {
                "children": [
                    {
                        "children": [
                            {
                                "children": [],
                                "depth": 0,
                                "name": "Initial Gas",
                                "value": 23256
                            },
                            {
                                "children": [],
                                "depth": 0,
                                "name": "Executed Gas",
                                "value": 14710
                            }
                        ],
                        "depth": -1,
                        "name": "Actual Gas Used",
                        "value": 37966
                    },
                    {
                        "children": [],
                        "depth": -1,
                        "name": "Refunded Gas",
                        "value": 0
                    }
                ],
                "depth": -2,
                "name": "Total Gas",
                "value": 37966
            }
        ],
        "isConfirmed": true,
        "mainTrace": [
            {
                "children": [
                    {
                        "children": [
                            {
                                "children": [],
                                "depth": 1,
                                "id": 1,
                                "order": 1
                            }
                        ],
                        "depth": 0,
                        "id": 0,
                        "order": 0
                    }
                ],
                "depth": -1,
                "id": -1,
                "order": -1
            }
        ],
        "mainTraceNodeCount": 2,
        "parentIdMap": {
            "0": -1,
            "1": 0
        },
        "tidyTrace": [
            {
                "children": [
                    {
                        "children": [
                            {
                                "children": [],
                                "depth": 1,
                                "id": 1,
                                "order": 1
                            }
                        ],
                        "depth": 0,
                        "id": 0,
                        "order": 0
                    }
                ],
                "depth": -1,
                "id": -1,
                "order": -1
            }
        ],
        "tidyTraceNodeCount": 2
    },
    "state_change": {
        "stateChanges": [
            {
                "address": "0x62b9f8741bf53a6986a5411c0557c30f6f11f3af",
                "erc": "ERC-20",
                "slots": [
                    {
                        "current": "0x000000000000000000000000000000000000000000000d3bcc8e5e541ab70000",
                        "key": "0x447d3fc8e9b07e9b335102196a2c65921a2082500fc087b681f5932b413a5f13",
                        "prev": "0x000000000000000000000000000000000000000000000d515209b2eeb0cb0000"
                    },
                    {
                        "current": "0x00000000000000000000000000000000000000000000002ac59317b2e7340000",
                        "key": "0x04ef661c270e95f848c37d4efb8930bc2c2339cabdcc58577f175facbab888f4",
                        "prev": "0x0000000000000000000000000000000000000000000000154017c31851200000"
                    }
                ],
                "storageVariables": [
                    {
                        "name": "balanceOf",
                        "type": "mapping(address => uint256)",
                        "value": {
                            "pairs": [
                                {
                                    "key": "0x9b3834035262d2277fc01410929f49ee2e3a85e1",
                                    "value": {
                                        "current": "62493862000000000000000",
                                        "prev": "62890862000000000000000",
                                        "typeTag": 1
                                    }
                                },
                                {
                                    "key": "0xbf4805268f7fb84c053e10d46a091dbf76c9f844",
                                    "value": {
                                        "current": "789000000000000000000",
                                        "prev": "392000000000000000000",
                                        "typeTag": 1
                                    }
                                }
                            ],
                            "typeTag": 4
                        }
                    }
                ]
            }
        ]
    }
}