{
    "balance_change": {
        "balanceChanges": []
    },
    "profile": {
        "basic_info": {
            "baseFee": "",
            "blockNumber": 2118844,
            "callData": "0xa9059cbb0000000000000000000000008d60dde92afa79581d026408537c1f109efa59210000000000000000000000000000000000000000000000000b6300671e354000",
            "debugEnable": true,
            "errorInfo": "",
            "eventCount": 1,
            "feeRecipient": "0xbcdfc35b86bedf72f0cda046a3c16829a2ef41d1",
            "formatValue": "0",
            "gasLimit": 105000,
            "gasPrice": "20",
            "gasUsed": 36234,
            "intTxnCount": 0,
            "internalRevert": false,
            "internalRevertMessage": "",
            "isContractCreation": false,
            "isFlashloan": false,
            "maxFee": "",
            "nonce": 1539,
            "overwritedBlockNumber": -1,
            "priorityFee": "",
            "receiver": "0x37a9679c41e99db270bda88de8ff50c0cd23f326",
            "revertMessage": "",
            "sender": "0x4c4a59e59172a8369562a3901737d57c84fc9a3c",
            "simulationEnable": true,
            "sourceTxnHash": "0x44f72401fc59c66d36bb0ebfb6f743f62fb63155614a84cd8884907f18543af3",
            "status": true,
            "timestamp": "2016-08-22T12:22:44Z",
            "transactionFee": "0.00072468",
            "txnHash": "0x44f72401fc59c66d36bb0ebfb6f743f62fb63155614a84cd8884907f18543af3",
            "txnIndex": 0,
            "type": 0,
            "value": "0"
        },
        "fund_flow": [],
        "token_infos": [
            {
                "address": "0xc02aaa39b223fe8d0a0e5c4f27ead9083c756cc2",
                "decimals": 18
            },
            {
                "address": "0xeeeeeeeeeeeeeeeeeeeeeeeeeeeeeeeeeeeeeeee",
                "decimals": 18
            }
        ]
    },
    "address_label": {
        "labels": [
            {
                "address": "0xeeeeeeeeeeeeeeeeeeeeeeeeeeeeeeeeeeeeeeee",
                "label": "Ether"
            },
            {
                "address": "0x37a9679c41e99db270bda88de8ff50c0cd23f326",
                "label": "YoCoin"
            },
            {
                "address": "0x0000000000000000000000000000000000000001",
                "label": "Precompiled"
            },
            {
                "address": "0x0000000000000000000000000000000000000002",
                "label": "Precompiled"
            },
            {
                "address": "0x0000000000000000000000000000000000000003",
                "label": "Precompiled"
            },
            {
                "address": "0x0000000000000000000000000000000000000004",
                "label": "Precompiled"
            }
        ]
    },
    "trace": {
        "accountLabels": null,
        "dataMap": {
            "-1": {
                "invocation": {
                    "address": "0x4c4a59e59172a8369562a3901737d57c84fc9a3c",
                    "callData": "",
                    "decodedMethod": null,
                    "errorInfo": "",
                    "fromAddress": "",
                    "gasUsed": 0,
                    "id": -1,
                    "methodDecoded": false,
                    "operation": "",
                    "output": "",
                    "revert": false,
                    "revertMessage": "",
                    "selector": "",
                    "status": false,
                    "value": ""
                },
                "nodeType": 0
            },
            "0": {
                "invocation": {
                    "address": "0x37a9679c41e99db270bda88de8ff50c0cd23f326",
                    "callData": "0x0000000000000000000000008d60dde92afa79581d026408537c1f109efa59210000000000000000000000000000000000000000000000000b6300671e354000",
                    "decodedMethod": {
                        "callParams": [
                            {
                                "name": "_to",
                                "type": "address",
                                "value": "0x8d60dde92afa79581d026408537c1f109efa5921"
                            },
                            {
                                "decimalAvailable": true,
                                "name": "_value",
                                "type": "uint256",
                                "value": "820,500,000,000,000,000"
                            }
                        ],
                        "constructorArguments": "",
                        "name": "transfer",
                        "returnParams": [],
                        "signature": "transfer(address,uint256)"
                    },
                    "errorInfo": "",
                    "fromAddress": "0x4c4a59e59172a8369562a3901737d57c84fc9a3c",
                    "gasUsed": 36234,
                    "id": 0,
                    "methodDecoded": true,
                    "operation": "CALL",
                    "output": "",
                    "revert": false,
                    "revertMessage": "",
                    "selector": "0xa9059cbb",
                    "status": true,
                    "value": "0"
                },
                "nodeType": 0
            },
            "1": {
                "event": {
                    "contract": "0x37a9679c41e99db270bda88de8ff50c0cd23f326",
                    "decodedLog": {
                        "name": "Transfer",
                        "params": [
                            {
                                "name": "from",
                                "type": "address",
                                "value": "0x4c4a59e59172a8369562a3901737d57c84fc9a3c"
                            },
                            {
                                "name": "to",
                                "type": "address",
                                "value": "0x8d60dde92afa79581d026408537c1f109efa5921"
                            },
                            {
                                "name": "value",
                                "type": "int256",
                                "value": "820,500,000,000,000,000"
                            }
                        ],
                        "signature": "Transfer(address,address,int256)"
                    },
                    "id": 1,
                    "logData": "0x0000000000000000000000000000000000000000000000000b6300671e354000",
                    "logDecoded": true,
                    "operation": "EVENT",
                    "revert": false,
                    "status": true,
                    "topics": [
                        "0x8b0c34a52f9e28d78caaa7066cd047b398dae74941a208b77777420f492bd7e1",
                        "0x0000000000000000000000004c4a59e59172a8369562a3901737d57c84fc9a3c",
                        "0x0000000000000000000000008d60dde92afa79581d026408537c1f109efa5921"
                    ]
                },
                "nodeType": 1
            }
        },
        "gasFlame": [
            {
                "children": [
                    {
                        "children": [
                            {
                                "children": [],
                                "depth": 0,
                                "name": "Initial Gas",
                                "value": 23192
                            },
                            {
                                "children": [],
                                "depth": 0,
                                "name": "Executed Gas",
                                "value": 13042
                            }
                        ],
                        "depth": -1,
                        "name": "Actual Gas Used",
                        "value": 36234
                    },
                    {
                        "children": [],
                        "depth": -1,
                        "name": "Refunded Gas",
                        "value": 0
                    }
                ],
                "depth": -2,
                "name": "Total Gas",
                "value": 36234
            }
        ],
        "isConfirmed": true,
        "mainTrace": [
            {
                "children": [
                    {
                        "children": [
                            {
                                "children": [],
                                "depth": 1,
                                "id": 1,
                                "order": 1
                            }
                        ],
                        "depth": 0,
                        "id": 0,
                        "order": 0
                    }
                ],
                "depth": -1,
                "id": -1,
                "order": -1
            }
        ],
        "mainTraceNodeCount": 2,
        "parentIdMap": {
            "0": -1,
            "1": 0
        },
        "tidyTrace": [
            {
                "children": [
                    {
                        "children": [
                            {
                                "children": [],
                                "depth": 1,
                                "id": 1,
                                "order": 1
                            }
                        ],
                        "depth": 0,
                        "id": 0,
                        "order": 0
                    }
                ],
                "depth": -1,
                "id": -1,
                "order": -1
            }
        ],
        "tidyTraceNodeCount": 2
    },
    "state_change": {
        "stateChanges": [
            {
                "address": "0x37a9679c41e99db270bda88de8ff50c0cd23f326",
                "erc": "",
                "slots": [
                    {
                        "current": "0x0000000000000000000000000000000000000000000000002a874a837a2f4000",
                        "key": "0x9657ae51bbff40be7a1d40796215a9b336170546e82e8734468d7c1887c5cadc",
                        "prev": "0x0000000000000000000000000000000000000000000000001f244a1c5bfa0000"
                    },
                    {
                        "current": "0x00000000000000000000000000000000000000000000001726897b61ac1e0000",
                        "key": "0x85c98b9351faaf4f418ee01512e3b8dc29509caa37a59d1d4e43834304737ce9",
                        "prev": "0x00000000000000000000000000000000000000000000001731ec7bc8ca534000"
                    }
                ],
                "storageVariables": []
            }
        ]
    }
}