{
    "balance_change": {
        "balanceChanges": [
            {
                "account": "0xc4b78175ad66087739b2fb3a1261d535bb6c8663",
                "assets": [
                    {
                        "address": "0xeeeeeeeeeeeeeeeeeeeeeeeeeeeeeeeeeeeeeeee",
                        "amount": "0.56868597",
                        "iconUrl": "https://assets.blocksec.com/image/1663669189317-3.png",
                        "isERC1155": false,
                        "isERC721": false,
                        "sign": true,
                        "value": "1004.14587780810001033"
                    }
                ]
            },
            {
                "account": "0x3ee18b2214aff97000d974cf647e7c347e8fa585",
                "assets": [
                    {
                        "address": "0xc02aaa39b223fe8d0a0e5c4f27ead9083c756cc2",
                        "amount": "0.56868597",
                        "iconUrl": "https://assets.blocksec.com/icon/f1cb2d02c471d545bbc7722daf3277fd852d98e63d118771af7047bd8256c516.png",
                        "isERC1155": false,
                        "isERC721": false,
                        "sign": false,
                        "value": "1004.14587780810001033"
                    }
                ]
            },
            {
                "account": "0xc02aaa39b223fe8d0a0e5c4f27ead9083c756cc2",
                "assets": [
                    {
                        "address": "0xeeeeeeeeeeeeeeeeeeeeeeeeeeeeeeeeeeeeeeee",
                        "amount": "0.56868597",
                        "iconUrl": "https://assets.blocksec.com/image/1663669189317-3.png",
                        "isERC1155": false,
                        "isERC721": false,
                        "sign": false,
                        "value": "1004.14587780810001033"
                    },
                    {
                        "address": "0xc02aaa39b223fe8d0a0e5c4f27ead9083c756cc2",
                        "amount": "0.56868597",
                        "iconUrl": "https://assets.blocksec.com/icon/f1cb2d02c471d545bbc7722daf3277fd852d98e63d118771af7047bd8256c516.png",
                        "isERC1155": false,
                        "isERC721": false,
                        "sign": true,
                        "value": "1004.14587780810001033"
                    }
                ]
            }
        ]
    },
    "profile": {
        "basic_info": {
            "baseFee": "52.733269397",
            "blockNumber": 17245669,
            "callData": "0xff200cde0000000000000000000000000000000000000000000000000000000000000020000000000000000000000000000000000000000000000000000000000000041801000000030d00b3caf05d0a726439167c567bef6c89d08dc8efb2800458184b0b252431def9f940c9e394ca2d91a02195b1823d0a0ef07c7cb95d192e0eb657cb86b0ddc4166701015399916a01aefb443f3d1ca9128a66cc32510de3c6f600e0751313ab5237f6ef33696af327bfac949c0488a25b730132931482bfb03ce9a5df98982c85813e1000025ae4a37fa2ad37c53d9ae3ac77dc711a92db41be0524a10fc6af8d80872d2fec7f80b785e6bcf7d84e71e5ffe5fed51eb2e331dc674f81ae113c23dd9db603eb0104ff3f74ca78ede465f0d738ca9f4553c57ee2d4a0e16a3dceaaa2653a77c380ae46b4a29881406a9c35b85e64c38cc893073ca9c72896c8d80ef719c4f2037c490006155eb2f42200f85bf72b7d6debaa462c824101d5ef42368af0a41812133a841c2e25d884499613a838eb0b254d9acac7d830f6c9e222ef07bf35e834b55cfb120107d548312ced007fe825fb79eb48d6d41d3b6b39da4d94b3edeb8b447b18c94f59160d3e98c53d551aecec0d2dfca4c5014f26ec27f15d8b891ec3ec445d59670e000a134c00aa9147bdca3cab6891bf0de19fa0dc37156e5de4a3fb41516e963f96fa747cf3755caa312ece5a462f7b843d718d9ff02747fa93a8611f92da2e3fdbd5010b72d5df4b84f2ea323a45797dc90ebfe6e153c4c3458a210a5cd8dfa2b45881700237197586a0383de7f4ec6bc06186f0f2461fd687dedfba0e0ff83f9def10a7000d86a298eaad4d45dce7d734b52b81a39ec59e8338a33142fef5bdaecf7d111cac72f3fe98cde11349298339361dd1a849550bd2cd681da10631c6fea5128c609f010e91b467b29ff6d4738febf16caae45406955966687f96ff04767c029ef2e675451264076d09412578108c7a333de6c2c5fdb59476ecb1082e141c00d293bf4aef010fbebbcbaa811b7929ede9b60d1e2318e238785d261fa7846ae08332f5f0e591667b79285b62efdd2b9bf29d47b3846f847fc8ace0fdebb5aab09620701435cf6a01119755f4331514af94a42113bf1c9acb5f61c743cb18abdb06981572bf8339e4f15d37a65ff1116e816468b0f32ba938790bcc696be32381bdb798276a264c418c0012674dbb3c6cba1034ead36150c8094fdbefb628bb573bea808580c878e93397d861199e58ce69cf27d84d913d8a84799e5f7b868b06e0c7073ad57bde238dc83e01645e7da400005b0e0001ec7372995d5cc8732397fb0ad35c0121e0eaa90d26f828a534cab54391b3a4f5000000000004726d2001000000000000000000000000000000000000000000000000000000000363bef5000000000000000000000000c02aaa39b223fe8d0a0e5c4f27ead9083c756cc20002000000000000000000000000c4b78175ad66087739b2fb3a1261d535bb6c8663000200000000000000000000000000000000000000000000000000000000000000000000000000000000",
            "debugEnable": true,
            "errorInfo": "",
            "eventCount": 1,
            "feeRecipient": "0x388c818ca8b9251b393131c08a736a67ccb19297",
            "formatValue": "0",
            "gasLimit": 268358,
            "gasPrice": "52.833269397",
            "gasUsed": 262675,
            "intTxnCount": 21,
            "internalRevert": false,
            "internalRevertMessage": "",
            "isContractCreation": false,
            "isFlashloan": false,
            "maxFee": "124.520178869",
            "nonce": 4,
            "overwritedBlockNumber": -1,
            "priorityFee": "0.1",
            "receiver": "0x3ee18b2214aff97000d974cf647e7c347e8fa585",
            "revertMessage": "",
            "sender": "0xc4b78175ad66087739b2fb3a1261d535bb6c8663",
            "simulationEnable": true,
            "sourceTxnHash": "0x44091a6300455541a6ffa5b83f323decba180749b1c4b1552638fb442980ef17",
            "status": true,
            "timestamp": "2023-05-12T17:57:23Z",
            "transactionFee": "0.013877979038856975",
            "txnHash": "0x44091a6300455541a6ffa5b83f323decba180749b1c4b1552638fb442980ef17",
            "txnIndex": 165,
            "type": 2,
            "value": "0"
        },
        "fund_flow": [
            {
                "amount": "0.56868597",
                "from": "0xc02aaa39b223fe8d0a0e5c4f27ead9083c756cc2",
                "id": 1,
                "isERC1155": false,
                "isERC721": false,
                "isReverted": false,
                "order": 1,
                "to": "0x3ee18b2214aff97000d974cf647e7c347e8fa585",
                "token": "0xeeeeeeeeeeeeeeeeeeeeeeeeeeeeeeeeeeeeeeee"
            },
            {
                "amount": "0.56868597",
                "from": "0x3ee18b2214aff97000d974cf647e7c347e8fa585",
                "id": 2,
                "isERC1155": false,
                "isERC721": false,
                "isReverted": false,
                "order": 2,
                "to": "0xc02aaa39b223fe8d0a0e5c4f27ead9083c756cc2",
                "token": "0xc02aaa39b223fe8d0a0e5c4f27ead9083c756cc2"
            },
            {
                "amount": "0.56868597",
                "from": "0x3ee18b2214aff97000d974cf647e7c347e8fa585",
                "id": 3,
                "isERC1155": false,
                "isERC721": false,
                "isReverted": false,
                "order": 3,
                "to": "0xc4b78175ad66087739b2fb3a1261d535bb6c8663",
                "token": "0xeeeeeeeeeeeeeeeeeeeeeeeeeeeeeeeeeeeeeeee"
            }
        ],
        "token_infos": [
            {
                "address": "0xc02aaa39b223fe8d0a0e5c4f27ead9083c756cc2",
                "decimals": 18
            },
            {
                "address": "0xeeeeeeeeeeeeeeeeeeeeeeeeeeeeeeeeeeeeeeee",
                "decimals": 18
            }
        ]
    },
    "address_label": {
        "labels": [
            {
                "address": "0x98f3c9e6e3face36baad05fe09d375ef1464288b",
                "label": "Wormhole: Ethereum Core Bridge"
            },
            {
                "address": "0x299b4f6066d231521d11fae8331fb1a4fe794f58",
                "label": "BridgeImplementation"
            },
            {
                "address": "0x3ee18b2214aff97000d974cf647e7c347e8fa585",
                "label": "Wormhole: Portal Token Bridge"
            },
            {
                "address": "0x388c818ca8b9251b393131c08a736a67ccb19297",
                "label": "LidoExecutionLayerRewardsVault"
            },
            {
                "address": "0x0000000000000000000000000000000000000002",
                "label": "Precompiled"
            },
            {
                "address": "0x0000000000000000000000000000000000000003",
                "label": "Precompiled"
            },
            {
                "address": "0x0000000000000000000000000000000000000004",
                "label": "Precompiled"
            },
            {
                "address": "0x3c3d457f1522d3540ab3325aa5f1864e34cba9d0",
                "label": "Implementation"
            },
            {
                "address": "0xc02aaa39b223fe8d0a0e5c4f27ead9083c756cc2",
                "label": "Wrapped Ether (WETH)"
            },
            {
                "address": "0x0000000000000000000000000000000000000001",
                "label": "Precompiled"
            },
            {
                "address": "0xeeeeeeeeeeeeeeeeeeeeeeeeeeeeeeeeeeeeeeee",
                "label": "Ether"
            }
        ]
    },
    "trace": {
        "accountLabels": null,
        "dataMap": {
            "-1": {
                "invocation": {
                    "address": "0xc4b78175ad66087739b2fb3a1261d535bb6c8663",
                    "callData": "",
                    "decodedMethod": null,
                    "errorInfo": "",
                    "fromAddress": "",
                    "gasUsed": 0,
                    "id": -1,
                    "methodDecoded": false,
                    "operation": "",
                    "output": "",
                    "revert": false,
                    "revertMessage": "",
                    "selector": "",
                    "status": false,
                    "value": ""
                },
                "nodeType": 0
            },
            "0": {
                "invocation": {
                    "address": "0x3ee18b2214aff97000d974cf647e7c347e8fa585",
                    "callData": "0x0000000000000000000000000000000000000000000000000000000000000020000000000000000000000000000000000000000000000000000000000000041801000000030d00b3caf05d0a726439167c567bef6c89d08dc8efb2800458184b0b252431def9f940c9e394ca2d91a02195b1823d0a0ef07c7cb95d192e0eb657cb86b0ddc4166701015399916a01aefb443f3d1ca9128a66cc32510de3c6f600e0751313ab5237f6ef33696af327bfac949c0488a25b730132931482bfb03ce9a5df98982c85813e1000025ae4a37fa2ad37c53d9ae3ac77dc711a92db41be0524a10fc6af8d80872d2fec7f80b785e6bcf7d84e71e5ffe5fed51eb2e331dc674f81ae113c23dd9db603eb0104ff3f74ca78ede465f0d738ca9f4553c57ee2d4a0e16a3dceaaa2653a77c380ae46b4a29881406a9c35b85e64c38cc893073ca9c72896c8d80ef719c4f2037c490006155eb2f42200f85bf72b7d6debaa462c824101d5ef42368af0a41812133a841c2e25d884499613a838eb0b254d9acac7d830f6c9e222ef07bf35e834b55cfb120107d548312ced007fe825fb79eb48d6d41d3b6b39da4d94b3edeb8b447b18c94f59160d3e98c53d551aecec0d2dfca4c5014f26ec27f15d8b891ec3ec445d59670e000a134c00aa9147bdca3cab6891bf0de19fa0dc37156e5de4a3fb41516e963f96fa747cf3755caa312ece5a462f7b843d718d9ff02747fa93a8611f92da2e3fdbd5010b72d5df4b84f2ea323a45797dc90ebfe6e153c4c3458a210a5cd8dfa2b45881700237197586a0383de7f4ec6bc06186f0f2461fd687dedfba0e0ff83f9def10a7000d86a298eaad4d45dce7d734b52b81a39ec59e8338a33142fef5bdaecf7d111cac72f3fe98cde11349298339361dd1a849550bd2cd681da10631c6fea5128c609f010e91b467b29ff6d4738febf16caae45406955966687f96ff04767c029ef2e675451264076d09412578108c7a333de6c2c5fdb59476ecb1082e141c00d293bf4aef010fbebbcbaa811b7929ede9b60d1e2318e238785d261fa7846ae08332f5f0e591667b79285b62efdd2b9bf29d47b3846f847fc8ace0fdebb5aab09620701435cf6a01119755f4331514af94a42113bf1c9acb5f61c743cb18abdb06981572bf8339e4f15d37a65ff1116e816468b0f32ba938790bcc696be32381bdb798276a264c418c0012674dbb3c6cba1034ead36150c8094fdbefb628bb573bea808580c878e93397d861199e58ce69cf27d84d913d8a84799e5f7b868b06e0c7073ad57bde238dc83e01645e7da400005b0e0001ec7372995d5cc8732397fb0ad35c0121e0eaa90d26f828a534cab54391b3a4f5000000000004726d2001000000000000000000000000000000000000000000000000000000000363bef5000000000000000000000000c02aaa39b223fe8d0a0e5c4f27ead9083c756cc20002000000000000000000000000c4b78175ad66087739b2fb3a1261d535bb6c8663000200000000000000000000000000000000000000000000000000000000000000000000000000000000",
                    "decodedMethod": {
                        "callParams": [
                            {
                                "name": "encodedVm",
                                "type": "bytes",
                                "value": "0x01000000030d00b3caf05d0a726439167c567bef6c89d08dc8efb2800458184b0b252431def9f940c9e394ca2d91a02195b1823d0a0ef07c7cb95d192e0eb657cb86b0ddc4166701015399916a01aefb443f3d1ca9128a66cc32510de3c6f600e0751313ab5237f6ef33696af327bfac949c0488a25b730132931482bfb03ce9a5df98982c85813e1000025ae4a37fa2ad37c53d9ae3ac77dc711a92db41be0524a10fc6af8d80872d2fec7f80b785e6bcf7d84e71e5ffe5fed51eb2e331dc674f81ae113c23dd9db603eb0104ff3f74ca78ede465f0d738ca9f4553c57ee2d4a0e16a3dceaaa2653a77c380ae46b4a29881406a9c35b85e64c38cc893073ca9c72896c8d80ef719c4f2037c490006155eb2f42200f85bf72b7d6debaa462c824101d5ef42368af0a41812133a841c2e25d884499613a838eb0b254d9acac7d830f6c9e222ef07bf35e834b55cfb120107d548312ced007fe825fb79eb48d6d41d3b6b39da4d94b3edeb8b447b18c94f59160d3e98c53d551aecec0d2dfca4c5014f26ec27f15d8b891ec3ec445d59670e000a134c00aa9147bdca3cab6891bf0de19fa0dc37156e5de4a3fb41516e963f96fa747cf3755caa312ece5a462f7b843d718d9ff02747fa93a8611f92da2e3fdbd5010b72d5df4b84f2ea323a45797dc90ebfe6e153c4c3458a210a5cd8dfa2b45881700237197586a0383de7f4ec6bc06186f0f2461fd687dedfba0e0ff83f9def10a7000d86a298eaad4d45dce7d734b52b81a39ec59e8338a33142fef5bdaecf7d111cac72f3fe98cde11349298339361dd1a849550bd2cd681da10631c6fea5128c609f010e91b467b29ff6d4738febf16caae45406955966687f96ff04767c029ef2e675451264076d09412578108c7a333de6c2c5fdb59476ecb1082e141c00d293bf4aef010fbebbcbaa811b7929ede9b60d1e2318e238785d261fa7846ae08332f5f0e591667b79285b62efdd2b9bf29d47b3846f847fc8ace0fdebb5aab09620701435cf6a01119755f4331514af94a42113bf1c9acb5f61c743cb18abdb06981572bf8339e4f15d37a65ff1116e816468b0f32ba938790bcc696be32381bdb798276a264c418c0012674dbb3c6cba1034ead36150c8094fdbefb628bb573bea808580c878e93397d861199e58ce69cf27d84d913d8a84799e5f7b868b06e0c7073ad57bde238dc83e01645e7da400005b0e0001ec7372995d5cc8732397fb0ad35c0121e0eaa90d26f828a534cab54391b3a4f5000000000004726d2001000000000000000000000000000000000000000000000000000000000363bef5000000000000000000000000c02aaa39b223fe8d0a0e5c4f27ead9083c756cc20002000000000000000000000000c4b78175ad66087739b2fb3a1261d535bb6c866300020000000000000000000000000000000000000000000000000000000000000000"
                            }
                        ],
                        "constructorArguments": "",
                        "name": "completeTransferAndUnwrapETH",
                        "returnParams": [],
                        "signature": "completeTransferAndUnwrapETH(bytes)"
                    },
                    "errorInfo": "",
                    "fromAddress": "0xc4b78175ad66087739b2fb3a1261d535bb6c8663",
                    "gasUsed": 262675,
                    "id": 0,
                    "methodDecoded": true,
                    "operation": "CALL",
                    "output": "",
                    "revert": false,
                    "revertMessage": "",
                    "selector": "0xff200cde",
                    "status": true,
                    "value": "0"
                },
                "nodeType": 0
            },
            "1": {
                "invocation": {
                    "address": "0x299b4f6066d231521d11fae8331fb1a4fe794f58",
                    "callData": "0x0000000000000000000000000000000000000000000000000000000000000020000000000000000000000000000000000000000000000000000000000000041801000000030d00b3caf05d0a726439167c567bef6c89d08dc8efb2800458184b0b252431def9f940c9e394ca2d91a02195b1823d0a0ef07c7cb95d192e0eb657cb86b0ddc4166701015399916a01aefb443f3d1ca9128a66cc32510de3c6f600e0751313ab5237f6ef33696af327bfac949c0488a25b730132931482bfb03ce9a5df98982c85813e1000025ae4a37fa2ad37c53d9ae3ac77dc711a92db41be0524a10fc6af8d80872d2fec7f80b785e6bcf7d84e71e5ffe5fed51eb2e331dc674f81ae113c23dd9db603eb0104ff3f74ca78ede465f0d738ca9f4553c57ee2d4a0e16a3dceaaa2653a77c380ae46b4a29881406a9c35b85e64c38cc893073ca9c72896c8d80ef719c4f2037c490006155eb2f42200f85bf72b7d6debaa462c824101d5ef42368af0a41812133a841c2e25d884499613a838eb0b254d9acac7d830f6c9e222ef07bf35e834b55cfb120107d548312ced007fe825fb79eb48d6d41d3b6b39da4d94b3edeb8b447b18c94f59160d3e98c53d551aecec0d2dfca4c5014f26ec27f15d8b891ec3ec445d59670e000a134c00aa9147bdca3cab6891bf0de19fa0dc37156e5de4a3fb41516e963f96fa747cf3755caa312ece5a462f7b843d718d9ff02747fa93a8611f92da2e3fdbd5010b72d5df4b84f2ea323a45797dc90ebfe6e153c4c3458a210a5cd8dfa2b45881700237197586a0383de7f4ec6bc06186f0f2461fd687dedfba0e0ff83f9def10a7000d86a298eaad4d45dce7d734b52b81a39ec59e8338a33142fef5bdaecf7d111cac72f3fe98cde11349298339361dd1a849550bd2cd681da10631c6fea5128c609f010e91b467b29ff6d4738febf16caae45406955966687f96ff04767c029ef2e675451264076d09412578108c7a333de6c2c5fdb59476ecb1082e141c00d293bf4aef010fbebbcbaa811b7929ede9b60d1e2318e238785d261fa7846ae08332f5f0e591667b79285b62efdd2b9bf29d47b3846f847fc8ace0fdebb5aab09620701435cf6a01119755f4331514af94a42113bf1c9acb5f61c743cb18abdb06981572bf8339e4f15d37a65ff1116e816468b0f32ba938790bcc696be32381bdb798276a264c418c0012674dbb3c6cba1034ead36150c8094fdbefb628bb573bea808580c878e93397d861199e58ce69cf27d84d913d8a84799e5f7b868b06e0c7073ad57bde238dc83e01645e7da400005b0e0001ec7372995d5cc8732397fb0ad35c0121e0eaa90d26f828a534cab54391b3a4f5000000000004726d2001000000000000000000000000000000000000000000000000000000000363bef5000000000000000000000000c02aaa39b223fe8d0a0e5c4f27ead9083c756cc20002000000000000000000000000c4b78175ad66087739b2fb3a1261d535bb6c8663000200000000000000000000000000000000000000000000000000000000000000000000000000000000",
                    "decodedMethod": {
                        "callParams": [
                            {
                                "name": "encodedVm",
                                "type": "bytes",
                                "value": "0x01000000030d00b3caf05d0a726439167c567bef6c89d08dc8efb2800458184b0b252431def9f940c9e394ca2d91a02195b1823d0a0ef07c7cb95d192e0eb657cb86b0ddc4166701015399916a01aefb443f3d1ca9128a66cc32510de3c6f600e0751313ab5237f6ef33696af327bfac949c0488a25b730132931482bfb03ce9a5df98982c85813e1000025ae4a37fa2ad37c53d9ae3ac77dc711a92db41be0524a10fc6af8d80872d2fec7f80b785e6bcf7d84e71e5ffe5fed51eb2e331dc674f81ae113c23dd9db603eb0104ff3f74ca78ede465f0d738ca9f4553c57ee2d4a0e16a3dceaaa2653a77c380ae46b4a29881406a9c35b85e64c38cc893073ca9c72896c8d80ef719c4f2037c490006155eb2f42200f85bf72b7d6debaa462c824101d5ef42368af0a41812133a841c2e25d884499613a838eb0b254d9acac7d830f6c9e222ef07bf35e834b55cfb120107d548312ced007fe825fb79eb48d6d41d3b6b39da4d94b3edeb8b447b18c94f59160d3e98c53d551aecec0d2dfca4c5014f26ec27f15d8b891ec3ec445d59670e000a134c00aa9147bdca3cab6891bf0de19fa0dc37156e5de4a3fb41516e963f96fa747cf3755caa312ece5a462f7b843d718d9ff02747fa93a8611f92da2e3fdbd5010b72d5df4b84f2ea323a45797dc90ebfe6e153c4c3458a210a5cd8dfa2b45881700237197586a0383de7f4ec6bc06186f0f2461fd687dedfba0e0ff83f9def10a7000d86a298eaad4d45dce7d734b52b81a39ec59e8338a33142fef5bdaecf7d111cac72f3fe98cde11349298339361dd1a849550bd2cd681da10631c6fea5128c609f010e91b467b29ff6d4738febf16caae45406955966687f96ff04767c029ef2e675451264076d09412578108c7a333de6c2c5fdb59476ecb1082e141c00d293bf4aef010fbebbcbaa811b7929ede9b60d1e2318e238785d261fa7846ae08332f5f0e591667b79285b62efdd2b9bf29d47b3846f847fc8ace0fdebb5aab09620701435cf6a01119755f4331514af94a42113bf1c9acb5f61c743cb18abdb06981572bf8339e4f15d37a65ff1116e816468b0f32ba938790bcc696be32381bdb798276a264c418c0012674dbb3c6cba1034ead36150c8094fdbefb628bb573bea808580c878e93397d861199e58ce69cf27d84d913d8a84799e5f7b868b06e0c7073ad57bde238dc83e01645e7da400005b0e0001ec7372995d5cc8732397fb0ad35c0121e0eaa90d26f828a534cab54391b3a4f5000000000004726d2001000000000000000000000000000000000000000000000000000000000363bef5000000000000000000000000c02aaa39b223fe8d0a0e5c4f27ead9083c756cc20002000000000000000000000000c4b78175ad66087739b2fb3a1261d535bb6c866300020000000000000000000000000000000000000000000000000000000000000000"
                            }
                        ],
                        "constructorArguments": "",
                        "name": "completeTransferAndUnwrapETH",
                        "returnParams": [],
                        "signature": "completeTransferAndUnwrapETH(bytes)"
                    },
                    "errorInfo": "",
                    "fromAddress": "0x3ee18b2214aff97000d974cf647e7c347e8fa585",
                    "gasUsed": 220717,
                    "id": 1,
                    "methodDecoded": true,
                    "operation": "DELEGATECALL",
                    "output": "",
                    "revert": false,
                    "revertMessage": "",
                    "selector": "0xff200cde",
                    "status": true,
                    "value": "0"
                },
                "nodeType": 0
            },
            "10": {
                "invocation": {
                    "address": "0x0000000000000000000000000000000000000001",
                    "callData": "0xf84642b27ee80546f2acc7b1fc322b911455bdc2e581f99cf5f281bf000000000000000000000000000000000000000000000000000000000000001c134c00aa9147bdca3cab6891bf0de19fa0dc37156e5de4a3fb41516e963f96fa747cf3755caa312ece5a462f7b843d718d9ff02747fa93a8611f92da2e3fdbd5",
                    "decodedMethod": {
                        "callParams": [
                            {
                                "name": "hash",
                                "type": "bytes32",
                                "value": "0xf463ed25f84642b27ee80546f2acc7b1fc322b911455bdc2e581f99cf5f281bf"
                            },
                            {
                                "name": "v",
                                "type": "uint256",
                                "value": "28"
                            },
                            {
                                "name": "r",
                                "type": "bytes32",
                                "value": "0x134c00aa9147bdca3cab6891bf0de19fa0dc37156e5de4a3fb41516e963f96fa"
                            },
                            {
                                "name": "s",
                                "type": "bytes32",
                                "value": "0x747cf3755caa312ece5a462f7b843d718d9ff02747fa93a8611f92da2e3fdbd5"
                            }
                        ],
                        "constructorArguments": "",
                        "name": "ecrecover",
                        "returnParams": [
                            {
                                "name": "",
                                "type": "address",
                                "value": "0xaf45ced136b9d9e24903464ae889f5c8a723fc14"
                            }
                        ],
                        "signature": "ecrecover(bytes32,uint256,bytes32,bytes32)"
                    },
                    "errorInfo": "",
                    "fromAddress": "0x98f3c9e6e3face36baad05fe09d375ef1464288b",
                    "gasUsed": 3000,
                    "id": 10,
                    "methodDecoded": true,
                    "operation": "STATICCALL",
                    "output": "0x000000000000000000000000af45ced136b9d9e24903464ae889f5c8a723fc14",
                    "revert": false,
                    "revertMessage": "",
                    "selector": "0xf463ed25",
                    "status": true,
                    "value": "0"
                },
                "nodeType": 0
            },
            "11": {
                "invocation": {
                    "address": "0x0000000000000000000000000000000000000001",
                    "callData": "0xf84642b27ee80546f2acc7b1fc322b911455bdc2e581f99cf5f281bf000000000000000000000000000000000000000000000000000000000000001b72d5df4b84f2ea323a45797dc90ebfe6e153c4c3458a210a5cd8dfa2b45881700237197586a0383de7f4ec6bc06186f0f2461fd687dedfba0e0ff83f9def10a7",
                    "decodedMethod": {
                        "callParams": [
                            {
                                "name": "hash",
                                "type": "bytes32",
                                "value": "0xf463ed25f84642b27ee80546f2acc7b1fc322b911455bdc2e581f99cf5f281bf"
                            },
                            {
                                "name": "v",
                                "type": "uint256",
                                "value": "27"
                            },
                            {
                                "name": "r",
                                "type": "bytes32",
                                "value": "0x72d5df4b84f2ea323a45797dc90ebfe6e153c4c3458a210a5cd8dfa2b4588170"
                            },
                            {
                                "name": "s",
                                "type": "bytes32",
                                "value": "0x0237197586a0383de7f4ec6bc06186f0f2461fd687dedfba0e0ff83f9def10a7"
                            }
                        ],
                        "constructorArguments": "",
                        "name": "ecrecover",
                        "returnParams": [
                            {
                                "name": "",
                                "type": "address",
                                "value": "0xf93124b7c738843cbb89e864c862c38cddcccf95"
                            }
                        ],
                        "signature": "ecrecover(bytes32,uint256,bytes32,bytes32)"
                    },
                    "errorInfo": "",
                    "fromAddress": "0x98f3c9e6e3face36baad05fe09d375ef1464288b",
                    "gasUsed": 3000,
                    "id": 11,
                    "methodDecoded": true,
                    "operation": "STATICCALL",
                    "output": "0x000000000000000000000000f93124b7c738843cbb89e864c862c38cddcccf95",
                    "revert": false,
                    "revertMessage": "",
                    "selector": "0xf463ed25",
                    "status": true,
                    "value": "0"
                },
                "nodeType": 0
            },
            "12": {
                "invocation": {
                    "address": "0x0000000000000000000000000000000000000001",
                    "callData": "0xf84642b27ee80546f2acc7b1fc322b911455bdc2e581f99cf5f281bf000000000000000000000000000000000000000000000000000000000000001c86a298eaad4d45dce7d734b52b81a39ec59e8338a33142fef5bdaecf7d111cac72f3fe98cde11349298339361dd1a849550bd2cd681da10631c6fea5128c609f",
                    "decodedMethod": {
                        "callParams": [
                            {
                                "name": "hash",
                                "type": "bytes32",
                                "value": "0xf463ed25f84642b27ee80546f2acc7b1fc322b911455bdc2e581f99cf5f281bf"
                            },
                            {
                                "name": "v",
                                "type": "uint256",
                                "value": "28"
                            },
                            {
                                "name": "r",
                                "type": "bytes32",
                                "value": "0x86a298eaad4d45dce7d734b52b81a39ec59e8338a33142fef5bdaecf7d111cac"
                            },
                            {
                                "name": "s",
                                "type": "bytes32",
                                "value": "0x72f3fe98cde11349298339361dd1a849550bd2cd681da10631c6fea5128c609f"
                            }
                        ],
                        "constructorArguments": "",
                        "name": "ecrecover",
                        "returnParams": [
                            {
                                "name": "",
                                "type": "address",
                                "value": "0xda798f6896a3331f64b48c12d1d57fd9cbe70811"
                            }
                        ],
                        "signature": "ecrecover(bytes32,uint256,bytes32,bytes32)"
                    },
                    "errorInfo": "",
                    "fromAddress": "0x98f3c9e6e3face36baad05fe09d375ef1464288b",
                    "gasUsed": 3000,
                    "id": 12,
                    "methodDecoded": true,
                    "operation": "STATICCALL",
                    "output": "0x000000000000000000000000da798f6896a3331f64b48c12d1d57fd9cbe70811",
                    "revert": false,
                    "revertMessage": "",
                    "selector": "0xf463ed25",
                    "status": true,
                    "value": "0"
                },
                "nodeType": 0
            },
            "13": {
                "invocation": {
                    "address": "0x0000000000000000000000000000000000000001",
                    "callData": "0xf84642b27ee80546f2acc7b1fc322b911455bdc2e581f99cf5f281bf000000000000000000000000000000000000000000000000000000000000001c91b467b29ff6d4738febf16caae45406955966687f96ff04767c029ef2e675451264076d09412578108c7a333de6c2c5fdb59476ecb1082e141c00d293bf4aef",
                    "decodedMethod": {
                        "callParams": [
                            {
                                "name": "hash",
                                "type": "bytes32",
                                "value": "0xf463ed25f84642b27ee80546f2acc7b1fc322b911455bdc2e581f99cf5f281bf"
                            },
                            {
                                "name": "v",
                                "type": "uint256",
                                "value": "28"
                            },
                            {
                                "name": "r",
                                "type": "bytes32",
                                "value": "0x91b467b29ff6d4738febf16caae45406955966687f96ff04767c029ef2e67545"
                            },
                            {
                                "name": "s",
                                "type": "bytes32",
                                "value": "0x1264076d09412578108c7a333de6c2c5fdb59476ecb1082e141c00d293bf4aef"
                            }
                        ],
                        "constructorArguments": "",
                        "name": "ecrecover",
                        "returnParams": [
                            {
                                "name": "",
                                "type": "address",
                                "value": "0x71aa1be1d36cafe3867910f99c09e347899c19c3"
                            }
                        ],
                        "signature": "ecrecover(bytes32,uint256,bytes32,bytes32)"
                    },
                    "errorInfo": "",
                    "fromAddress": "0x98f3c9e6e3face36baad05fe09d375ef1464288b",
                    "gasUsed": 3000,
                    "id": 13,
                    "methodDecoded": true,
                    "operation": "STATICCALL",
                    "output": "0x00000000000000000000000071aa1be1d36cafe3867910f99c09e347899c19c3",
                    "revert": false,
                    "revertMessage": "",
                    "selector": "0xf463ed25",
                    "status": true,
                    "value": "0"
                },
                "nodeType": 0
            },
            "14": {
                "invocation": {
                    "address": "0x0000000000000000000000000000000000000001",
                    "callData": "0xf84642b27ee80546f2acc7b1fc322b911455bdc2e581f99cf5f281bf000000000000000000000000000000000000000000000000000000000000001cbebbcbaa811b7929ede9b60d1e2318e238785d261fa7846ae08332f5f0e591667b79285b62efdd2b9bf29d47b3846f847fc8ace0fdebb5aab09620701435cf6a",
                    "decodedMethod": {
                        "callParams": [
                            {
                                "name": "hash",
                                "type": "bytes32",
                                "value": "0xf463ed25f84642b27ee80546f2acc7b1fc322b911455bdc2e581f99cf5f281bf"
                            },
                            {
                                "name": "v",
                                "type": "uint256",
                                "value": "28"
                            },
                            {
                                "name": "r",
                                "type": "bytes32",
                                "value": "0xbebbcbaa811b7929ede9b60d1e2318e238785d261fa7846ae08332f5f0e59166"
                            },
                            {
                                "name": "s",
                                "type": "bytes32",
                                "value": "0x7b79285b62efdd2b9bf29d47b3846f847fc8ace0fdebb5aab09620701435cf6a"
                            }
                        ],
                        "constructorArguments": "",
                        "name": "ecrecover",
                        "returnParams": [
                            {
                                "name": "",
                                "type": "address",
                                "value": "0x8192b6e7387ccd768277c17dab1b7a5027c0b3cf"
                            }
                        ],
                        "signature": "ecrecover(bytes32,uint256,bytes32,bytes32)"
                    },
                    "errorInfo": "",
                    "fromAddress": "0x98f3c9e6e3face36baad05fe09d375ef1464288b",
                    "gasUsed": 3000,
                    "id": 14,
                    "methodDecoded": true,
                    "operation": "STATICCALL",
                    "output": "0x0000000000000000000000008192b6e7387ccd768277c17dab1b7a5027c0b3cf",
                    "revert": false,
                    "revertMessage": "",
                    "selector": "0xf463ed25",
                    "status": true,
                    "value": "0"
                },
                "nodeType": 0
            },
            "15": {
                "invocation": {
                    "address": "0x0000000000000000000000000000000000000001",
                    "callData": "0xf84642b27ee80546f2acc7b1fc322b911455bdc2e581f99cf5f281bf000000000000000000000000000000000000000000000000000000000000001b9755f4331514af94a42113bf1c9acb5f61c743cb18abdb06981572bf8339e4f15d37a65ff1116e816468b0f32ba938790bcc696be32381bdb798276a264c418c",
                    "decodedMethod": {
                        "callParams": [
                            {
                                "name": "hash",
                                "type": "bytes32",
                                "value": "0xf463ed25f84642b27ee80546f2acc7b1fc322b911455bdc2e581f99cf5f281bf"
                            },
                            {
                                "name": "v",
                                "type": "uint256",
                                "value": "27"
                            },
                            {
                                "name": "r",
                                "type": "bytes32",
                                "value": "0x9755f4331514af94a42113bf1c9acb5f61c743cb18abdb06981572bf8339e4f1"
                            },
                            {
                                "name": "s",
                                "type": "bytes32",
                                "value": "0x5d37a65ff1116e816468b0f32ba938790bcc696be32381bdb798276a264c418c"
                            }
                        ],
                        "constructorArguments": "",
                        "name": "ecrecover",
                        "returnParams": [
                            {
                                "name": "",
                                "type": "address",
                                "value": "0x5e1487f35515d02a92753504a8d75471b9f49edb"
                            }
                        ],
                        "signature": "ecrecover(bytes32,uint256,bytes32,bytes32)"
                    },
                    "errorInfo": "",
                    "fromAddress": "0x98f3c9e6e3face36baad05fe09d375ef1464288b",
                    "gasUsed": 3000,
                    "id": 15,
                    "methodDecoded": true,
                    "operation": "STATICCALL",
                    "output": "0x0000000000000000000000005e1487f35515d02a92753504a8d75471b9f49edb",
                    "revert": false,
                    "revertMessage": "",
                    "selector": "0xf463ed25",
                    "status": true,
                    "value": "0"
                },
                "nodeType": 0
            },
            "16": {
                "invocation": {
                    "address": "0x0000000000000000000000000000000000000001",
                    "callData": "0xf84642b27ee80546f2acc7b1fc322b911455bdc2e581f99cf5f281bf000000000000000000000000000000000000000000000000000000000000001c674dbb3c6cba1034ead36150c8094fdbefb628bb573bea808580c878e93397d861199e58ce69cf27d84d913d8a84799e5f7b868b06e0c7073ad57bde238dc83e",
                    "decodedMethod": {
                        "callParams": [
                            {
                                "name": "hash",
                                "type": "bytes32",
                                "value": "0xf463ed25f84642b27ee80546f2acc7b1fc322b911455bdc2e581f99cf5f281bf"
                            },
                            {
                                "name": "v",
                                "type": "uint256",
                                "value": "28"
                            },
                            {
                                "name": "r",
                                "type": "bytes32",
                                "value": "0x674dbb3c6cba1034ead36150c8094fdbefb628bb573bea808580c878e93397d8"
                            },
                            {
                                "name": "s",
                                "type": "bytes32",
                                "value": "0x61199e58ce69cf27d84d913d8a84799e5f7b868b06e0c7073ad57bde238dc83e"
                            }
                        ],
                        "constructorArguments": "",
                        "name": "ecrecover",
                        "returnParams": [
                            {
                                "name": "",
                                "type": "address",
                                "value": "0x6fbebc898f403e4773e95feb15e80c9a99c8348d"
                            }
                        ],
                        "signature": "ecrecover(bytes32,uint256,bytes32,bytes32)"
                    },
                    "errorInfo": "",
                    "fromAddress": "0x98f3c9e6e3face36baad05fe09d375ef1464288b",
                    "gasUsed": 3000,
                    "id": 16,
                    "methodDecoded": true,
                    "operation": "STATICCALL",
                    "output": "0x0000000000000000000000006fbebc898f403e4773e95feb15e80c9a99c8348d",
                    "revert": false,
                    "revertMessage": "",
                    "selector": "0xf463ed25",
                    "status": true,
                    "value": "0"
                },
                "nodeType": 0
            },
            "17": {
                "invocation": {
                    "address": "0xc02aaa39b223fe8d0a0e5c4f27ead9083c756cc2",
                    "callData": "0x",
                    "decodedMethod": {
                        "callParams": [],
                        "constructorArguments": "",
                        "name": "decimals",
                        "returnParams": [
                            {
                                "name": "",
                                "type": "uint8",
                                "value": "18"
                            }
                        ],
                        "signature": "decimals()"
                    },
                    "errorInfo": "",
                    "fromAddress": "0x3ee18b2214aff97000d974cf647e7c347e8fa585",
                    "gasUsed": 2444,
                    "id": 17,
                    "methodDecoded": true,
                    "operation": "STATICCALL",
                    "output": "0x0000000000000000000000000000000000000000000000000000000000000012",
                    "revert": false,
                    "revertMessage": "",
                    "selector": "0x313ce567",
                    "status": true,
                    "value": "0"
                },
                "nodeType": 0
            },
            "18": {
                "invocation": {
                    "address": "0xc02aaa39b223fe8d0a0e5c4f27ead9083c756cc2",
                    "callData": "0x00000000000000000000000000000000000000000000000007e460e06e993400",
                    "decodedMethod": {
                        "callParams": [
                            {
                                "name": "wad",
                                "type": "uint256",
                                "value": "568,685,970,000,000,000"
                            }
                        ],
                        "constructorArguments": "",
                        "name": "withdraw",
                        "returnParams": [],
                        "signature": "withdraw(uint256)"
                    },
                    "errorInfo": "",
                    "fromAddress": "0x3ee18b2214aff97000d974cf647e7c347e8fa585",
                    "gasUsed": 14394,
                    "id": 18,
                    "methodDecoded": true,
                    "operation": "CALL",
                    "output": "",
                    "revert": false,
                    "revertMessage": "",
                    "selector": "0x2e1a7d4d",
                    "status": true,
                    "value": "0"
                },
                "nodeType": 0
            },
            "19": {
                "invocation": {
                    "address": "0x3ee18b2214aff97000d974cf647e7c347e8fa585",
                    "callData": "0x",
                    "decodedMethod": null,
                    "errorInfo": "",
                    "fromAddress": "0xc02aaa39b223fe8d0a0e5c4f27ead9083c756cc2",
                    "gasUsed": 454,
                    "id": 19,
                    "methodDecoded": false,
                    "operation": "CALL",
                    "output": "",
                    "revert": false,
                    "revertMessage": "",
                    "selector": "fallback",
                    "status": true,
                    "value": "0.56868597"
                },
                "nodeType": 0
            },
            "2": {
                "invocation": {
                    "address": "0x98f3c9e6e3face36baad05fe09d375ef1464288b",
                    "callData": "0x0000000000000000000000000000000000000000000000000000000000000020000000000000000000000000000000000000000000000000000000000000041801000000030d00b3caf05d0a726439167c567bef6c89d08dc8efb2800458184b0b252431def9f940c9e394ca2d91a02195b1823d0a0ef07c7cb95d192e0eb657cb86b0ddc4166701015399916a01aefb443f3d1ca9128a66cc32510de3c6f600e0751313ab5237f6ef33696af327bfac949c0488a25b730132931482bfb03ce9a5df98982c85813e1000025ae4a37fa2ad37c53d9ae3ac77dc711a92db41be0524a10fc6af8d80872d2fec7f80b785e6bcf7d84e71e5ffe5fed51eb2e331dc674f81ae113c23dd9db603eb0104ff3f74ca78ede465f0d738ca9f4553c57ee2d4a0e16a3dceaaa2653a77c380ae46b4a29881406a9c35b85e64c38cc893073ca9c72896c8d80ef719c4f2037c490006155eb2f42200f85bf72b7d6debaa462c824101d5ef42368af0a41812133a841c2e25d884499613a838eb0b254d9acac7d830f6c9e222ef07bf35e834b55cfb120107d548312ced007fe825fb79eb48d6d41d3b6b39da4d94b3edeb8b447b18c94f59160d3e98c53d551aecec0d2dfca4c5014f26ec27f15d8b891ec3ec445d59670e000a134c00aa9147bdca3cab6891bf0de19fa0dc37156e5de4a3fb41516e963f96fa747cf3755caa312ece5a462f7b843d718d9ff02747fa93a8611f92da2e3fdbd5010b72d5df4b84f2ea323a45797dc90ebfe6e153c4c3458a210a5cd8dfa2b45881700237197586a0383de7f4ec6bc06186f0f2461fd687dedfba0e0ff83f9def10a7000d86a298eaad4d45dce7d734b52b81a39ec59e8338a33142fef5bdaecf7d111cac72f3fe98cde11349298339361dd1a849550bd2cd681da10631c6fea5128c609f010e91b467b29ff6d4738febf16caae45406955966687f96ff04767c029ef2e675451264076d09412578108c7a333de6c2c5fdb59476ecb1082e141c00d293bf4aef010fbebbcbaa811b7929ede9b60d1e2318e238785d261fa7846ae08332f5f0e591667b79285b62efdd2b9bf29d47b3846f847fc8ace0fdebb5aab09620701435cf6a01119755f4331514af94a42113bf1c9acb5f61c743cb18abdb06981572bf8339e4f15d37a65ff1116e816468b0f32ba938790bcc696be32381bdb798276a264c418c0012674dbb3c6cba1034ead36150c8094fdbefb628bb573bea808580c878e93397d861199e58ce69cf27d84d913d8a84799e5f7b868b06e0c7073ad57bde238dc83e01645e7da400005b0e0001ec7372995d5cc8732397fb0ad35c0121e0eaa90d26f828a534cab54391b3a4f5000000000004726d2001000000000000000000000000000000000000000000000000000000000363bef5000000000000000000000000c02aaa39b223fe8d0a0e5c4f27ead9083c756cc20002000000000000000000000000c4b78175ad66087739b2fb3a1261d535bb6c8663000200000000000000000000000000000000000000000000000000000000000000000000000000000000",
                    "decodedMethod": {
                        "callParams": [
                            {
                                "name": "encodedVM",
                                "type": "bytes",
                                "value": "0x01000000030d00b3caf05d0a726439167c567bef6c89d08dc8efb2800458184b0b252431def9f940c9e394ca2d91a02195b1823d0a0ef07c7cb95d192e0eb657cb86b0ddc4166701015399916a01aefb443f3d1ca9128a66cc32510de3c6f600e0751313ab5237f6ef33696af327bfac949c0488a25b730132931482bfb03ce9a5df98982c85813e1000025ae4a37fa2ad37c53d9ae3ac77dc711a92db41be0524a10fc6af8d80872d2fec7f80b785e6bcf7d84e71e5ffe5fed51eb2e331dc674f81ae113c23dd9db603eb0104ff3f74ca78ede465f0d738ca9f4553c57ee2d4a0e16a3dceaaa2653a77c380ae46b4a29881406a9c35b85e64c38cc893073ca9c72896c8d80ef719c4f2037c490006155eb2f42200f85bf72b7d6debaa462c824101d5ef42368af0a41812133a841c2e25d884499613a838eb0b254d9acac7d830f6c9e222ef07bf35e834b55cfb120107d548312ced007fe825fb79eb48d6d41d3b6b39da4d94b3edeb8b447b18c94f59160d3e98c53d551aecec0d2dfca4c5014f26ec27f15d8b891ec3ec445d59670e000a134c00aa9147bdca3cab6891bf0de19fa0dc37156e5de4a3fb41516e963f96fa747cf3755caa312ece5a462f7b843d718d9ff02747fa93a8611f92da2e3fdbd5010b72d5df4b84f2ea323a45797dc90ebfe6e153c4c3458a210a5cd8dfa2b45881700237197586a0383de7f4ec6bc06186f0f2461fd687dedfba0e0ff83f9def10a7000d86a298eaad4d45dce7d734b52b81a39ec59e8338a33142fef5bdaecf7d111cac72f3fe98cde11349298339361dd1a849550bd2cd681da10631c6fea5128c609f010e91b467b29ff6d4738febf16caae45406955966687f96ff04767c029ef2e675451264076d09412578108c7a333de6c2c5fdb59476ecb1082e141c00d293bf4aef010fbebbcbaa811b7929ede9b60d1e2318e238785d261fa7846ae08332f5f0e591667b79285b62efdd2b9bf29d47b3846f847fc8ace0fdebb5aab09620701435cf6a01119755f4331514af94a42113bf1c9acb5f61c743cb18abdb06981572bf8339e4f15d37a65ff1116e816468b0f32ba938790bcc696be32381bdb798276a264c418c0012674dbb3c6cba1034ead36150c8094fdbefb628bb573bea808580c878e93397d861199e58ce69cf27d84d913d8a84799e5f7b868b06e0c7073ad57bde238dc83e01645e7da400005b0e0001ec7372995d5cc8732397fb0ad35c0121e0eaa90d26f828a534cab54391b3a4f5000000000004726d2001000000000000000000000000000000000000000000000000000000000363bef5000000000000000000000000c02aaa39b223fe8d0a0e5c4f27ead9083c756cc20002000000000000000000000000c4b78175ad66087739b2fb3a1261d535bb6c866300020000000000000000000000000000000000000000000000000000000000000000"
                            }
                        ],
                        "constructorArguments": "",
                        "name": "parseAndVerifyVM",
                        "returnParams": [
                            {
                                "name": "vm",
                                "type": "(uint8,uint32,uint32,uint16,bytes32,uint64,uint8,bytes,uint32,(bytes32,bytes32,uint8,uint8)[],bytes32)",
                                "value": [
                                    {
                                        "name": "version",
                                        "type": "uint8",
                                        "value": "1"
                                    },
                                    {
                                        "name": "timestamp",
                                        "type": "uint32",
                                        "value": "1,683,914,148"
                                    },
                                    {
                                        "name": "nonce",
                                        "type": "uint32",
                                        "value": "23,310"
                                    },
                                    {
                                        "name": "emitterChainId",
                                        "type": "uint16",
                                        "value": "1"
                                    },
                                    {
                                        "name": "emitterAddress",
                                        "type": "bytes32",
                                        "value": "0xec7372995d5cc8732397fb0ad35c0121e0eaa90d26f828a534cab54391b3a4f5"
                                    },
                                    {
                                        "name": "sequence",
                                        "type": "uint64",
                                        "value": "291,437"
                                    },
                                    {
                                        "name": "consistencyLevel",
                                        "type": "uint8",
                                        "value": "32"
                                    },
                                    {
                                        "name": "payload",
                                        "type": "bytes",
                                        "value": "0x01000000000000000000000000000000000000000000000000000000000363bef5000000000000000000000000c02aaa39b223fe8d0a0e5c4f27ead9083c756cc20002000000000000000000000000c4b78175ad66087739b2fb3a1261d535bb6c866300020000000000000000000000000000000000000000000000000000000000000000"
                                    },
                                    {
                                        "name": "guardianSetIndex",
                                        "type": "uint32",
                                        "value": "3"
                                    },
                                    {
                                        "name": "signatures",
                                        "type": "(bytes32,bytes32,uint8,uint8)[]",
                                        "value": [
                                            [
                                                {
                                                    "name": "r",
                                                    "type": "bytes32",
                                                    "value": "0xb3caf05d0a726439167c567bef6c89d08dc8efb2800458184b0b252431def9f9"
                                                },
                                                {
                                                    "name": "s",
                                                    "type": "bytes32",
                                                    "value": "0x40c9e394ca2d91a02195b1823d0a0ef07c7cb95d192e0eb657cb86b0ddc41667"
                                                },
                                                {
                                                    "name": "v",
                                                    "type": "uint8",
                                                    "value": "28"
                                                },
                                                {
                                                    "name": "guardianIndex",
                                                    "type": "uint8",
                                                    "value": "0"
                                                }
                                            ],
                                            [
                                                {
                                                    "name": "r",
                                                    "type": "bytes32",
                                                    "value": "0x5399916a01aefb443f3d1ca9128a66cc32510de3c6f600e0751313ab5237f6ef"
                                                },
                                                {
                                                    "name": "s",
                                                    "type": "bytes32",
                                                    "value": "0x33696af327bfac949c0488a25b730132931482bfb03ce9a5df98982c85813e10"
                                                },
                                                {
                                                    "name": "v",
                                                    "type": "uint8",
                                                    "value": "27"
                                                },
                                                {
                                                    "name": "guardianIndex",
                                                    "type": "uint8",
                                                    "value": "1"
                                                }
                                            ],
                                            [
                                                {
                                                    "name": "r",
                                                    "type": "bytes32",
                                                    "value": "0x5ae4a37fa2ad37c53d9ae3ac77dc711a92db41be0524a10fc6af8d80872d2fec"
                                                },
                                                {
                                                    "name": "s",
                                                    "type": "bytes32",
                                                    "value": "0x7f80b785e6bcf7d84e71e5ffe5fed51eb2e331dc674f81ae113c23dd9db603eb"
                                                },
                                                {
                                                    "name": "v",
                                                    "type": "uint8",
                                                    "value": "28"
                                                },
                                                {
                                                    "name": "guardianIndex",
                                                    "type": "uint8",
                                                    "value": "2"
                                                }
                                            ],
                                            [
                                                {
                                                    "name": "r",
                                                    "type": "bytes32",
                                                    "value": "0xff3f74ca78ede465f0d738ca9f4553c57ee2d4a0e16a3dceaaa2653a77c380ae"
                                                },
                                                {
                                                    "name": "s",
                                                    "type": "bytes32",
                                                    "value": "0x46b4a29881406a9c35b85e64c38cc893073ca9c72896c8d80ef719c4f2037c49"
                                                },
                                                {
                                                    "name": "v",
                                                    "type": "uint8",
                                                    "value": "27"
                                                },
                                                {
                                                    "name": "guardianIndex",
                                                    "type": "uint8",
                                                    "value": "4"
                                                }
                                            ],
                                            [
                                                {
                                                    "name": "r",
                                                    "type": "bytes32",
                                                    "value": "0x155eb2f42200f85bf72b7d6debaa462c824101d5ef42368af0a41812133a841c"
                                                },
                                                {
                                                    "name": "s",
                                                    "type": "bytes32",
                                                    "value": "0x2e25d884499613a838eb0b254d9acac7d830f6c9e222ef07bf35e834b55cfb12"
                                                },
                                                {
                                                    "name": "v",
                                                    "type": "uint8",
                                                    "value": "28"
                                                },
                                                {
                                                    "name": "guardianIndex",
                                                    "type": "uint8",
                                                    "value": "6"
                                                }
                                            ],
                                            [
                                                {
                                                    "name": "r",
                                                    "type": "bytes32",
                                                    "value": "0xd548312ced007fe825fb79eb48d6d41d3b6b39da4d94b3edeb8b447b18c94f59"
                                                },
                                                {
                                                    "name": "s",
                                                    "type": "bytes32",
                                                    "value": "0x160d3e98c53d551aecec0d2dfca4c5014f26ec27f15d8b891ec3ec445d59670e"
                                                },
                                                {
                                                    "name": "v",
                                                    "type": "uint8",
                                                    "value": "27"
                                                },
                                                {
                                                    "name": "guardianIndex",
                                                    "type": "uint8",
                                                    "value": "7"
                                                }
                                            ],
                                            [
                                                {
                                                    "name": "r",
                                                    "type": "bytes32",
                                                    "value": "0x134c00aa9147bdca3cab6891bf0de19fa0dc37156e5de4a3fb41516e963f96fa"
                                                },
                                                {
                                                    "name": "s",
                                                    "type": "bytes32",
                                                    "value": "0x747cf3755caa312ece5a462f7b843d718d9ff02747fa93a8611f92da2e3fdbd5"
                                                },
                                                {
                                                    "name": "v",
                                                    "type": "uint8",
                                                    "value": "28"
                                                },
                                                {
                                                    "name": "guardianIndex",
                                                    "type": "uint8",
                                                    "value": "10"
                                                }
                                            ],
                                            [
                                                {
                                                    "name": "r",
                                                    "type": "bytes32",
                                                    "value": "0x72d5df4b84f2ea323a45797dc90ebfe6e153c4c3458a210a5cd8dfa2b4588170"
                                                },
                                                {
                                                    "name": "s",
                                                    "type": "bytes32",
                                                    "value": "0x0237197586a0383de7f4ec6bc06186f0f2461fd687dedfba0e0ff83f9def10a7"
                                                },
                                                {
                                                    "name": "v",
                                                    "type": "uint8",
                                                    "value": "27"
                                                },
                                                {
                                                    "name": "guardianIndex",
                                                    "type": "uint8",
                                                    "value": "11"
                                                }
                                            ],
                                            [
                                                {
                                                    "name": "r",
                                                    "type": "bytes32",
                                                    "value": "0x86a298eaad4d45dce7d734b52b81a39ec59e8338a33142fef5bdaecf7d111cac"
                                                },
                                                {
                                                    "name": "s",
                                                    "type": "bytes32",
                                                    "value": "0x72f3fe98cde11349298339361dd1a849550bd2cd681da10631c6fea5128c609f"
                                                },
                                                {
                                                    "name": "v",
                                                    "type": "uint8",
                                                    "value": "28"
                                                },
                                                {
                                                    "name": "guardianIndex",
                                                    "type": "uint8",
                                                    "value": "13"
                                                }
                                            ],
                                            [
                                                {
                                                    "name": "r",
                                                    "type": "bytes32",
                                                    "value": "0x91b467b29ff6d4738febf16caae45406955966687f96ff04767c029ef2e67545"
                                                },
                                                {
                                                    "name": "s",
                                                    "type": "bytes32",
                                                    "value": "0x1264076d09412578108c7a333de6c2c5fdb59476ecb1082e141c00d293bf4aef"
                                                },
                                                {
                                                    "name": "v",
                                                    "type": "uint8",
                                                    "value": "28"
                                                },
                                                {
                                                    "name": "guardianIndex",
                                                    "type": "uint8",
                                                    "value": "14"
                                                }
                                            ],
                                            [
                                                {
                                                    "name": "r",
                                                    "type": "bytes32",
                                                    "value": "0xbebbcbaa811b7929ede9b60d1e2318e238785d261fa7846ae08332f5f0e59166"
                                                },
                                                {
                                                    "name": "s",
                                                    "type": "bytes32",
                                                    "value": "0x7b79285b62efdd2b9bf29d47b3846f847fc8ace0fdebb5aab09620701435cf6a"
                                                },
                                                {
                                                    "name": "v",
                                                    "type": "uint8",
                                                    "value": "28"
                                                },
                                                {
                                                    "name": "guardianIndex",
                                                    "type": "uint8",
                                                    "value": "15"
                                                }
                                            ],
                                            [
                                                {
                                                    "name": "r",
                                                    "type": "bytes32",
                                                    "value": "0x9755f4331514af94a42113bf1c9acb5f61c743cb18abdb06981572bf8339e4f1"
                                                },
                                                {
                                                    "name": "s",
                                                    "type": "bytes32",
                                                    "value": "0x5d37a65ff1116e816468b0f32ba938790bcc696be32381bdb798276a264c418c"
                                                },
                                                {
                                                    "name": "v",
                                                    "type": "uint8",
                                                    "value": "27"
                                                },
                                                {
                                                    "name": "guardianIndex",
                                                    "type": "uint8",
                                                    "value": "17"
                                                }
                                            ],
                                            [
                                                {
                                                    "name": "r",
                                                    "type": "bytes32",
                                                    "value": "0x674dbb3c6cba1034ead36150c8094fdbefb628bb573bea808580c878e93397d8"
                                                },
                                                {
                                                    "name": "s",
                                                    "type": "bytes32",
                                                    "value": "0x61199e58ce69cf27d84d913d8a84799e5f7b868b06e0c7073ad57bde238dc83e"
                                                },
                                                {
                                                    "name": "v",
                                                    "type": "uint8",
                                                    "value": "28"
                                                },
                                                {
                                                    "name": "guardianIndex",
                                                    "type": "uint8",
                                                    "value": "18"
                                                }
                                            ]
                                        ]
                                    },
                                    {
                                        "name": "hash",
                                        "type": "bytes32",
                                        "value": "0xf463ed25f84642b27ee80546f2acc7b1fc322b911455bdc2e581f99cf5f281bf"
                                    }
                                ]
                            },
                            {
                                "name": "valid",
                                "type": "bool",
                                "value": true
                            },
                            {
                                "name": "reason",
                                "type": "string",
                                "value": ""
                            }
                        ],
                        "signature": "parseAndVerifyVM(bytes)"
                    },
                    "errorInfo": "",
                    "fromAddress": "0x3ee18b2214aff97000d974cf647e7c347e8fa585",
                    "gasUsed": 134689,
                    "id": 2,
                    "methodDecoded": true,
                    "operation": "STATICCALL",
                    "output": "0x000000000000000000000000000000000000000000000000000000000000006000000000000000000000000000000000000000000000000000000000000000010000000000000000000000000000000000000000000000000000000000000920000000000000000000000000000000000000000000000000000000000000000100000000000000000000000000000000000000000000000000000000645e7da40000000000000000000000000000000000000000000000000000000000005b0e0000000000000000000000000000000000000000000000000000000000000001ec7372995d5cc8732397fb0ad35c0121e0eaa90d26f828a534cab54391b3a4f5000000000000000000000000000000000000000000000000000000000004726d0000000000000000000000000000000000000000000000000000000000000020000000000000000000000000000000000000000000000000000000000000016000000000000000000000000000000000000000000000000000000000000000030000000000000000000000000000000000000000000000000000000000000220f463ed25f84642b27ee80546f2acc7b1fc322b911455bdc2e581f99cf5f281bf000000000000000000000000000000000000000000000000000000000000008501000000000000000000000000000000000000000000000000000000000363bef5000000000000000000000000c02aaa39b223fe8d0a0e5c4f27ead9083c756cc20002000000000000000000000000c4b78175ad66087739b2fb3a1261d535bb6c866300020000000000000000000000000000000000000000000000000000000000000000000000000000000000000000000000000000000000000000000000000000000000000000000000000000000000000000000000000000000000000db3caf05d0a726439167c567bef6c89d08dc8efb2800458184b0b252431def9f940c9e394ca2d91a02195b1823d0a0ef07c7cb95d192e0eb657cb86b0ddc41667000000000000000000000000000000000000000000000000000000000000001c00000000000000000000000000000000000000000000000000000000000000005399916a01aefb443f3d1ca9128a66cc32510de3c6f600e0751313ab5237f6ef33696af327bfac949c0488a25b730132931482bfb03ce9a5df98982c85813e10000000000000000000000000000000000000000000000000000000000000001b00000000000000000000000000000000000000000000000000000000000000015ae4a37fa2ad37c53d9ae3ac77dc711a92db41be0524a10fc6af8d80872d2fec7f80b785e6bcf7d84e71e5ffe5fed51eb2e331dc674f81ae113c23dd9db603eb000000000000000000000000000000000000000000000000000000000000001c0000000000000000000000000000000000000000000000000000000000000002ff3f74ca78ede465f0d738ca9f4553c57ee2d4a0e16a3dceaaa2653a77c380ae46b4a29881406a9c35b85e64c38cc893073ca9c72896c8d80ef719c4f2037c49000000000000000000000000000000000000000000000000000000000000001b0000000000000000000000000000000000000000000000000000000000000004155eb2f42200f85bf72b7d6debaa462c824101d5ef42368af0a41812133a841c2e25d884499613a838eb0b254d9acac7d830f6c9e222ef07bf35e834b55cfb12000000000000000000000000000000000000000000000000000000000000001c0000000000000000000000000000000000000000000000000000000000000006d548312ced007fe825fb79eb48d6d41d3b6b39da4d94b3edeb8b447b18c94f59160d3e98c53d551aecec0d2dfca4c5014f26ec27f15d8b891ec3ec445d59670e000000000000000000000000000000000000000000000000000000000000001b0000000000000000000000000000000000000000000000000000000000000007134c00aa9147bdca3cab6891bf0de19fa0dc37156e5de4a3fb41516e963f96fa747cf3755caa312ece5a462f7b843d718d9ff02747fa93a8611f92da2e3fdbd5000000000000000000000000000000000000000000000000000000000000001c000000000000000000000000000000000000000000000000000000000000000a72d5df4b84f2ea323a45797dc90ebfe6e153c4c3458a210a5cd8dfa2b45881700237197586a0383de7f4ec6bc06186f0f2461fd687dedfba0e0ff83f9def10a7000000000000000000000000000000000000000000000000000000000000001b000000000000000000000000000000000000000000000000000000000000000b86a298eaad4d45dce7d734b52b81a39ec59e8338a33142fef5bdaecf7d111cac72f3fe98cde11349298339361dd1a849550bd2cd681da10631c6fea5128c609f000000000000000000000000000000000000000000000000000000000000001c000000000000000000000000000000000000000000000000000000000000000d91b467b29ff6d4738febf16caae45406955966687f96ff04767c029ef2e675451264076d09412578108c7a333de6c2c5fdb59476ecb1082e141c00d293bf4aef000000000000000000000000000000000000000000000000000000000000001c000000000000000000000000000000000000000000000000000000000000000ebebbcbaa811b7929ede9b60d1e2318e238785d261fa7846ae08332f5f0e591667b79285b62efdd2b9bf29d47b3846f847fc8ace0fdebb5aab09620701435cf6a000000000000000000000000000000000000000000000000000000000000001c000000000000000000000000000000000000000000000000000000000000000f9755f4331514af94a42113bf1c9acb5f61c743cb18abdb06981572bf8339e4f15d37a65ff1116e816468b0f32ba938790bcc696be32381bdb798276a264c418c000000000000000000000000000000000000000000000000000000000000001b0000000000000000000000000000000000000000000000000000000000000011674dbb3c6cba1034ead36150c8094fdbefb628bb573bea808580c878e93397d861199e58ce69cf27d84d913d8a84799e5f7b868b06e0c7073ad57bde238dc83e000000000000000000000000000000000000000000000000000000000000001c00000000000000000000000000000000000000000000000000000000000000120000000000000000000000000000000000000000000000000000000000000000",
                    "revert": false,
                    "revertMessage": "",
                    "selector": "0xc0fd8bde",
                    "status": true,
                    "value": "0"
                },
                "nodeType": 0
            },
            "20": {
                "invocation": {
                    "address": "0x299b4f6066d231521d11fae8331fb1a4fe794f58",
                    "callData": "0x",
                    "decodedMethod": null,
                    "errorInfo": "",
                    "fromAddress": "0x3ee18b2214aff97000d974cf647e7c347e8fa585",
                    "gasUsed": 55,
                    "id": 20,
                    "methodDecoded": false,
                    "operation": "DELEGATECALL",
                    "output": "",
                    "revert": false,
                    "revertMessage": "",
                    "selector": "fallback",
                    "status": true,
                    "value": "0.56868597"
                },
                "nodeType": 0
            },
            "21": {
                "event": {
                    "contract": "0xc02aaa39b223fe8d0a0e5c4f27ead9083c756cc2",
                    "decodedLog": {
                        "name": "Withdrawal",
                        "params": [
                            {
                                "name": "src",
                                "type": "address",
                                "value": "0x3ee18b2214aff97000d974cf647e7c347e8fa585"
                            },
                            {
                                "name": "wad",
                                "type": "uint256",
                                "value": "568,685,970,000,000,000"
                            }
                        ],
                        "signature": "Withdrawal(address,uint256)"
                    },
                    "id": 21,
                    "logData": "0x00000000000000000000000000000000000000000000000007e460e06e993400",
                    "logDecoded": true,
                    "operation": "EVENT",
                    "revert": false,
                    "status": true,
                    "topics": [
                        "0x7fcf532c15f0a6db0bd6d0e038bea71d30d808c7d98cb3bf7268a95bf5081b65",
                        "0x0000000000000000000000003ee18b2214aff97000d974cf647e7c347e8fa585"
                    ]
                },
                "nodeType": 1
            },
            "22": {
                "invocation": {
                    "address": "0xc4b78175ad66087739b2fb3a1261d535bb6c8663",
                    "callData": "0x",
                    "decodedMethod": null,
                    "errorInfo": "",
                    "fromAddress": "0x3ee18b2214aff97000d974cf647e7c347e8fa585",
                    "gasUsed": 0,
                    "id": 22,
                    "methodDecoded": false,
                    "operation": "CALL",
                    "output": "",
                    "revert": false,
                    "revertMessage": "",
                    "selector": "fallback",
                    "status": true,
                    "value": "0.56868597"
                },
                "nodeType": 0
            },
            "3": {
                "invocation": {
                    "address": "0x3c3d457f1522d3540ab3325aa5f1864e34cba9d0",
                    "callData": "0x0000000000000000000000000000000000000000000000000000000000000020000000000000000000000000000000000000000000000000000000000000041801000000030d00b3caf05d0a726439167c567bef6c89d08dc8efb2800458184b0b252431def9f940c9e394ca2d91a02195b1823d0a0ef07c7cb95d192e0eb657cb86b0ddc4166701015399916a01aefb443f3d1ca9128a66cc32510de3c6f600e0751313ab5237f6ef33696af327bfac949c0488a25b730132931482bfb03ce9a5df98982c85813e1000025ae4a37fa2ad37c53d9ae3ac77dc711a92db41be0524a10fc6af8d80872d2fec7f80b785e6bcf7d84e71e5ffe5fed51eb2e331dc674f81ae113c23dd9db603eb0104ff3f74ca78ede465f0d738ca9f4553c57ee2d4a0e16a3dceaaa2653a77c380ae46b4a29881406a9c35b85e64c38cc893073ca9c72896c8d80ef719c4f2037c490006155eb2f42200f85bf72b7d6debaa462c824101d5ef42368af0a41812133a841c2e25d884499613a838eb0b254d9acac7d830f6c9e222ef07bf35e834b55cfb120107d548312ced007fe825fb79eb48d6d41d3b6b39da4d94b3edeb8b447b18c94f59160d3e98c53d551aecec0d2dfca4c5014f26ec27f15d8b891ec3ec445d59670e000a134c00aa9147bdca3cab6891bf0de19fa0dc37156e5de4a3fb41516e963f96fa747cf3755caa312ece5a462f7b843d718d9ff02747fa93a8611f92da2e3fdbd5010b72d5df4b84f2ea323a45797dc90ebfe6e153c4c3458a210a5cd8dfa2b45881700237197586a0383de7f4ec6bc06186f0f2461fd687dedfba0e0ff83f9def10a7000d86a298eaad4d45dce7d734b52b81a39ec59e8338a33142fef5bdaecf7d111cac72f3fe98cde11349298339361dd1a849550bd2cd681da10631c6fea5128c609f010e91b467b29ff6d4738febf16caae45406955966687f96ff04767c029ef2e675451264076d09412578108c7a333de6c2c5fdb59476ecb1082e141c00d293bf4aef010fbebbcbaa811b7929ede9b60d1e2318e238785d261fa7846ae08332f5f0e591667b79285b62efdd2b9bf29d47b3846f847fc8ace0fdebb5aab09620701435cf6a01119755f4331514af94a42113bf1c9acb5f61c743cb18abdb06981572bf8339e4f15d37a65ff1116e816468b0f32ba938790bcc696be32381bdb798276a264c418c0012674dbb3c6cba1034ead36150c8094fdbefb628bb573bea808580c878e93397d861199e58ce69cf27d84d913d8a84799e5f7b868b06e0c7073ad57bde238dc83e01645e7da400005b0e0001ec7372995d5cc8732397fb0ad35c0121e0eaa90d26f828a534cab54391b3a4f5000000000004726d2001000000000000000000000000000000000000000000000000000000000363bef5000000000000000000000000c02aaa39b223fe8d0a0e5c4f27ead9083c756cc20002000000000000000000000000c4b78175ad66087739b2fb3a1261d535bb6c8663000200000000000000000000000000000000000000000000000000000000000000000000000000000000",
                    "decodedMethod": {
                        "callParams": [
                            {
                                "name": "encodedVM",
                                "type": "bytes",
                                "value": "0x01000000030d00b3caf05d0a726439167c567bef6c89d08dc8efb2800458184b0b252431def9f940c9e394ca2d91a02195b1823d0a0ef07c7cb95d192e0eb657cb86b0ddc4166701015399916a01aefb443f3d1ca9128a66cc32510de3c6f600e0751313ab5237f6ef33696af327bfac949c0488a25b730132931482bfb03ce9a5df98982c85813e1000025ae4a37fa2ad37c53d9ae3ac77dc711a92db41be0524a10fc6af8d80872d2fec7f80b785e6bcf7d84e71e5ffe5fed51eb2e331dc674f81ae113c23dd9db603eb0104ff3f74ca78ede465f0d738ca9f4553c57ee2d4a0e16a3dceaaa2653a77c380ae46b4a29881406a9c35b85e64c38cc893073ca9c72896c8d80ef719c4f2037c490006155eb2f42200f85bf72b7d6debaa462c824101d5ef42368af0a41812133a841c2e25d884499613a838eb0b254d9acac7d830f6c9e222ef07bf35e834b55cfb120107d548312ced007fe825fb79eb48d6d41d3b6b39da4d94b3edeb8b447b18c94f59160d3e98c53d551aecec0d2dfca4c5014f26ec27f15d8b891ec3ec445d59670e000a134c00aa9147bdca3cab6891bf0de19fa0dc37156e5de4a3fb41516e963f96fa747cf3755caa312ece5a462f7b843d718d9ff02747fa93a8611f92da2e3fdbd5010b72d5df4b84f2ea323a45797dc90ebfe6e153c4c3458a210a5cd8dfa2b45881700237197586a0383de7f4ec6bc06186f0f2461fd687dedfba0e0ff83f9def10a7000d86a298eaad4d45dce7d734b52b81a39ec59e8338a33142fef5bdaecf7d111cac72f3fe98cde11349298339361dd1a849550bd2cd681da10631c6fea5128c609f010e91b467b29ff6d4738febf16caae45406955966687f96ff04767c029ef2e675451264076d09412578108c7a333de6c2c5fdb59476ecb1082e141c00d293bf4aef010fbebbcbaa811b7929ede9b60d1e2318e238785d261fa7846ae08332f5f0e591667b79285b62efdd2b9bf29d47b3846f847fc8ace0fdebb5aab09620701435cf6a01119755f4331514af94a42113bf1c9acb5f61c743cb18abdb06981572bf8339e4f15d37a65ff1116e816468b0f32ba938790bcc696be32381bdb798276a264c418c0012674dbb3c6cba1034ead36150c8094fdbefb628bb573bea808580c878e93397d861199e58ce69cf27d84d913d8a84799e5f7b868b06e0c7073ad57bde238dc83e01645e7da400005b0e0001ec7372995d5cc8732397fb0ad35c0121e0eaa90d26f828a534cab54391b3a4f5000000000004726d2001000000000000000000000000000000000000000000000000000000000363bef5000000000000000000000000c02aaa39b223fe8d0a0e5c4f27ead9083c756cc20002000000000000000000000000c4b78175ad66087739b2fb3a1261d535bb6c866300020000000000000000000000000000000000000000000000000000000000000000"
                            }
                        ],
                        "constructorArguments": "",
                        "name": "parseAndVerifyVM",
                        "returnParams": [
                            {
                                "name": "vm",
                                "type": "(uint8,uint32,uint32,uint16,bytes32,uint64,uint8,bytes,uint32,(bytes32,bytes32,uint8,uint8)[],bytes32)",
                                "value": [
                                    {
                                        "name": "version",
                                        "type": "uint8",
                                        "value": "1"
                                    },
                                    {
                                        "name": "timestamp",
                                        "type": "uint32",
                                        "value": "1,683,914,148"
                                    },
                                    {
                                        "name": "nonce",
                                        "type": "uint32",
                                        "value": "23,310"
                                    },
                                    {
                                        "name": "emitterChainId",
                                        "type": "uint16",
                                        "value": "1"
                                    },
                                    {
                                        "name": "emitterAddress",
                                        "type": "bytes32",
                                        "value": "0xec7372995d5cc8732397fb0ad35c0121e0eaa90d26f828a534cab54391b3a4f5"
                                    },
                                    {
                                        "name": "sequence",
                                        "type": "uint64",
                                        "value": "291,437"
                                    },
                                    {
                                        "name": "consistencyLevel",
                                        "type": "uint8",
                                        "value": "32"
                                    },
                                    {
                                        "name": "payload",
                                        "type": "bytes",
                                        "value": "0x01000000000000000000000000000000000000000000000000000000000363bef5000000000000000000000000c02aaa39b223fe8d0a0e5c4f27ead9083c756cc20002000000000000000000000000c4b78175ad66087739b2fb3a1261d535bb6c866300020000000000000000000000000000000000000000000000000000000000000000"
                                    },
                                    {
                                        "name": "guardianSetIndex",
                                        "type": "uint32",
                                        "value": "3"
                                    },
                                    {
                                        "name": "signatures",
                                        "type": "(bytes32,bytes32,uint8,uint8)[]",
                                        "value": [
                                            [
                                                {
                                                    "name": "r",
                                                    "type": "bytes32",
                                                    "value": "0xb3caf05d0a726439167c567bef6c89d08dc8efb2800458184b0b252431def9f9"
                                                },
                                                {
                                                    "name": "s",
                                                    "type": "bytes32",
                                                    "value": "0x40c9e394ca2d91a02195b1823d0a0ef07c7cb95d192e0eb657cb86b0ddc41667"
                                                },
                                                {
                                                    "name": "v",
                                                    "type": "uint8",
                                                    "value": "28"
                                                },
                                                {
                                                    "name": "guardianIndex",
                                                    "type": "uint8",
                                                    "value": "0"
                                                }
                                            ],
                                            [
                                                {
                                                    "name": "r",
                                                    "type": "bytes32",
                                                    "value": "0x5399916a01aefb443f3d1ca9128a66cc32510de3c6f600e0751313ab5237f6ef"
                                                },
                                                {
                                                    "name": "s",
                                                    "type": "bytes32",
                                                    "value": "0x33696af327bfac949c0488a25b730132931482bfb03ce9a5df98982c85813e10"
                                                },
                                                {
                                                    "name": "v",
                                                    "type": "uint8",
                                                    "value": "27"
                                                },
                                                {
                                                    "name": "guardianIndex",
                                                    "type": "uint8",
                                                    "value": "1"
                                                }
                                            ],
                                            [
                                                {
                                                    "name": "r",
                                                    "type": "bytes32",
                                                    "value": "0x5ae4a37fa2ad37c53d9ae3ac77dc711a92db41be0524a10fc6af8d80872d2fec"
                                                },
                                                {
                                                    "name": "s",
                                                    "type": "bytes32",
                                                    "value": "0x7f80b785e6bcf7d84e71e5ffe5fed51eb2e331dc674f81ae113c23dd9db603eb"
                                                },
                                                {
                                                    "name": "v",
                                                    "type": "uint8",
                                                    "value": "28"
                                                },
                                                {
                                                    "name": "guardianIndex",
                                                    "type": "uint8",
                                                    "value": "2"
                                                }
                                            ],
                                            [
                                                {
                                                    "name": "r",
                                                    "type": "bytes32",
                                                    "value": "0xff3f74ca78ede465f0d738ca9f4553c57ee2d4a0e16a3dceaaa2653a77c380ae"
                                                },
                                                {
                                                    "name": "s",
                                                    "type": "bytes32",
                                                    "value": "0x46b4a29881406a9c35b85e64c38cc893073ca9c72896c8d80ef719c4f2037c49"
                                                },
                                                {
                                                    "name": "v",
                                                    "type": "uint8",
                                                    "value": "27"
                                                },
                                                {
                                                    "name": "guardianIndex",
                                                    "type": "uint8",
                                                    "value": "4"
                                                }
                                            ],
                                            [
                                                {
                                                    "name": "r",
                                                    "type": "bytes32",
                                                    "value": "0x155eb2f42200f85bf72b7d6debaa462c824101d5ef42368af0a41812133a841c"
                                                },
                                                {
                                                    "name": "s",
                                                    "type": "bytes32",
                                                    "value": "0x2e25d884499613a838eb0b254d9acac7d830f6c9e222ef07bf35e834b55cfb12"
                                                },
                                                {
                                                    "name": "v",
                                                    "type": "uint8",
                                                    "value": "28"
                                                },
                                                {
                                                    "name": "guardianIndex",
                                                    "type": "uint8",
                                                    "value": "6"
                                                }
                                            ],
                                            [
                                                {
                                                    "name": "r",
                                                    "type": "bytes32",
                                                    "value": "0xd548312ced007fe825fb79eb48d6d41d3b6b39da4d94b3edeb8b447b18c94f59"
                                                },
                                                {
                                                    "name": "s",
                                                    "type": "bytes32",
                                                    "value": "0x160d3e98c53d551aecec0d2dfca4c5014f26ec27f15d8b891ec3ec445d59670e"
                                                },
                                                {
                                                    "name": "v",
                                                    "type": "uint8",
                                                    "value": "27"
                                                },
                                                {
                                                    "name": "guardianIndex",
                                                    "type": "uint8",
                                                    "value": "7"
                                                }
                                            ],
                                            [
                                                {
                                                    "name": "r",
                                                    "type": "bytes32",
                                                    "value": "0x134c00aa9147bdca3cab6891bf0de19fa0dc37156e5de4a3fb41516e963f96fa"
                                                },
                                                {
                                                    "name": "s",
                                                    "type": "bytes32",
                                                    "value": "0x747cf3755caa312ece5a462f7b843d718d9ff02747fa93a8611f92da2e3fdbd5"
                                                },
                                                {
                                                    "name": "v",
                                                    "type": "uint8",
                                                    "value": "28"
                                                },
                                                {
                                                    "name": "guardianIndex",
                                                    "type": "uint8",
                                                    "value": "10"
                                                }
                                            ],
                                            [
                                                {
                                                    "name": "r",
                                                    "type": "bytes32",
                                                    "value": "0x72d5df4b84f2ea323a45797dc90ebfe6e153c4c3458a210a5cd8dfa2b4588170"
                                                },
                                                {
                                                    "name": "s",
                                                    "type": "bytes32",
                                                    "value": "0x0237197586a0383de7f4ec6bc06186f0f2461fd687dedfba0e0ff83f9def10a7"
                                                },
                                                {
                                                    "name": "v",
                                                    "type": "uint8",
                                                    "value": "27"
                                                },
                                                {
                                                    "name": "guardianIndex",
                                                    "type": "uint8",
                                                    "value": "11"
                                                }
                                            ],
                                            [
                                                {
                                                    "name": "r",
                                                    "type": "bytes32",
                                                    "value": "0x86a298eaad4d45dce7d734b52b81a39ec59e8338a33142fef5bdaecf7d111cac"
                                                },
                                                {
                                                    "name": "s",
                                                    "type": "bytes32",
                                                    "value": "0x72f3fe98cde11349298339361dd1a849550bd2cd681da10631c6fea5128c609f"
                                                },
                                                {
                                                    "name": "v",
                                                    "type": "uint8",
                                                    "value": "28"
                                                },
                                                {
                                                    "name": "guardianIndex",
                                                    "type": "uint8",
                                                    "value": "13"
                                                }
                                            ],
                                            [
                                                {
                                                    "name": "r",
                                                    "type": "bytes32",
                                                    "value": "0x91b467b29ff6d4738febf16caae45406955966687f96ff04767c029ef2e67545"
                                                },
                                                {
                                                    "name": "s",
                                                    "type": "bytes32",
                                                    "value": "0x1264076d09412578108c7a333de6c2c5fdb59476ecb1082e141c00d293bf4aef"
                                                },
                                                {
                                                    "name": "v",
                                                    "type": "uint8",
                                                    "value": "28"
                                                },
                                                {
                                                    "name": "guardianIndex",
                                                    "type": "uint8",
                                                    "value": "14"
                                                }
                                            ],
                                            [
                                                {
                                                    "name": "r",
                                                    "type": "bytes32",
                                                    "value": "0xbebbcbaa811b7929ede9b60d1e2318e238785d261fa7846ae08332f5f0e59166"
                                                },
                                                {
                                                    "name": "s",
                                                    "type": "bytes32",
                                                    "value": "0x7b79285b62efdd2b9bf29d47b3846f847fc8ace0fdebb5aab09620701435cf6a"
                                                },
                                                {
                                                    "name": "v",
                                                    "type": "uint8",
                                                    "value": "28"
                                                },
                                                {
                                                    "name": "guardianIndex",
                                                    "type": "uint8",
                                                    "value": "15"
                                                }
                                            ],
                                            [
                                                {
                                                    "name": "r",
                                                    "type": "bytes32",
                                                    "value": "0x9755f4331514af94a42113bf1c9acb5f61c743cb18abdb06981572bf8339e4f1"
                                                },
                                                {
                                                    "name": "s",
                                                    "type": "bytes32",
                                                    "value": "0x5d37a65ff1116e816468b0f32ba938790bcc696be32381bdb798276a264c418c"
                                                },
                                                {
                                                    "name": "v",
                                                    "type": "uint8",
                                                    "value": "27"
                                                },
                                                {
                                                    "name": "guardianIndex",
                                                    "type": "uint8",
                                                    "value": "17"
                                                }
                                            ],
                                            [
                                                {
                                                    "name": "r",
                                                    "type": "bytes32",
                                                    "value": "0x674dbb3c6cba1034ead36150c8094fdbefb628bb573bea808580c878e93397d8"
                                                },
                                                {
                                                    "name": "s",
                                                    "type": "bytes32",
                                                    "value": "0x61199e58ce69cf27d84d913d8a84799e5f7b868b06e0c7073ad57bde238dc83e"
                                                },
                                                {
                                                    "name": "v",
                                                    "type": "uint8",
                                                    "value": "28"
                                                },
                                                {
                                                    "name": "guardianIndex",
                                                    "type": "uint8",
                                                    "value": "18"
                                                }
                                            ]
                                        ]
                                    },
                                    {
                                        "name": "hash",
                                        "type": "bytes32",
                                        "value": "0xf463ed25f84642b27ee80546f2acc7b1fc322b911455bdc2e581f99cf5f281bf"
                                    }
                                ]
                            },
                            {
                                "name": "valid",
                                "type": "bool",
                                "value": true
                            },
                            {
                                "name": "reason",
                                "type": "string",
                                "value": ""
                            }
                        ],
                        "signature": "parseAndVerifyVM(bytes)"
                    },
                    "errorInfo": "",
                    "fromAddress": "0x98f3c9e6e3face36baad05fe09d375ef1464288b",
                    "gasUsed": 129247,
                    "id": 3,
                    "methodDecoded": true,
                    "operation": "DELEGATECALL",
                    "output": "0x000000000000000000000000000000000000000000000000000000000000006000000000000000000000000000000000000000000000000000000000000000010000000000000000000000000000000000000000000000000000000000000920000000000000000000000000000000000000000000000000000000000000000100000000000000000000000000000000000000000000000000000000645e7da40000000000000000000000000000000000000000000000000000000000005b0e0000000000000000000000000000000000000000000000000000000000000001ec7372995d5cc8732397fb0ad35c0121e0eaa90d26f828a534cab54391b3a4f5000000000000000000000000000000000000000000000000000000000004726d0000000000000000000000000000000000000000000000000000000000000020000000000000000000000000000000000000000000000000000000000000016000000000000000000000000000000000000000000000000000000000000000030000000000000000000000000000000000000000000000000000000000000220f463ed25f84642b27ee80546f2acc7b1fc322b911455bdc2e581f99cf5f281bf000000000000000000000000000000000000000000000000000000000000008501000000000000000000000000000000000000000000000000000000000363bef5000000000000000000000000c02aaa39b223fe8d0a0e5c4f27ead9083c756cc20002000000000000000000000000c4b78175ad66087739b2fb3a1261d535bb6c866300020000000000000000000000000000000000000000000000000000000000000000000000000000000000000000000000000000000000000000000000000000000000000000000000000000000000000000000000000000000000000db3caf05d0a726439167c567bef6c89d08dc8efb2800458184b0b252431def9f940c9e394ca2d91a02195b1823d0a0ef07c7cb95d192e0eb657cb86b0ddc41667000000000000000000000000000000000000000000000000000000000000001c00000000000000000000000000000000000000000000000000000000000000005399916a01aefb443f3d1ca9128a66cc32510de3c6f600e0751313ab5237f6ef33696af327bfac949c0488a25b730132931482bfb03ce9a5df98982c85813e10000000000000000000000000000000000000000000000000000000000000001b00000000000000000000000000000000000000000000000000000000000000015ae4a37fa2ad37c53d9ae3ac77dc711a92db41be0524a10fc6af8d80872d2fec7f80b785e6bcf7d84e71e5ffe5fed51eb2e331dc674f81ae113c23dd9db603eb000000000000000000000000000000000000000000000000000000000000001c0000000000000000000000000000000000000000000000000000000000000002ff3f74ca78ede465f0d738ca9f4553c57ee2d4a0e16a3dceaaa2653a77c380ae46b4a29881406a9c35b85e64c38cc893073ca9c72896c8d80ef719c4f2037c49000000000000000000000000000000000000000000000000000000000000001b0000000000000000000000000000000000000000000000000000000000000004155eb2f42200f85bf72b7d6debaa462c824101d5ef42368af0a41812133a841c2e25d884499613a838eb0b254d9acac7d830f6c9e222ef07bf35e834b55cfb12000000000000000000000000000000000000000000000000000000000000001c0000000000000000000000000000000000000000000000000000000000000006d548312ced007fe825fb79eb48d6d41d3b6b39da4d94b3edeb8b447b18c94f59160d3e98c53d551aecec0d2dfca4c5014f26ec27f15d8b891ec3ec445d59670e000000000000000000000000000000000000000000000000000000000000001b0000000000000000000000000000000000000000000000000000000000000007134c00aa9147bdca3cab6891bf0de19fa0dc37156e5de4a3fb41516e963f96fa747cf3755caa312ece5a462f7b843d718d9ff02747fa93a8611f92da2e3fdbd5000000000000000000000000000000000000000000000000000000000000001c000000000000000000000000000000000000000000000000000000000000000a72d5df4b84f2ea323a45797dc90ebfe6e153c4c3458a210a5cd8dfa2b45881700237197586a0383de7f4ec6bc06186f0f2461fd687dedfba0e0ff83f9def10a7000000000000000000000000000000000000000000000000000000000000001b000000000000000000000000000000000000000000000000000000000000000b86a298eaad4d45dce7d734b52b81a39ec59e8338a33142fef5bdaecf7d111cac72f3fe98cde11349298339361dd1a849550bd2cd681da10631c6fea5128c609f000000000000000000000000000000000000000000000000000000000000001c000000000000000000000000000000000000000000000000000000000000000d91b467b29ff6d4738febf16caae45406955966687f96ff04767c029ef2e675451264076d09412578108c7a333de6c2c5fdb59476ecb1082e141c00d293bf4aef000000000000000000000000000000000000000000000000000000000000001c000000000000000000000000000000000000000000000000000000000000000ebebbcbaa811b7929ede9b60d1e2318e238785d261fa7846ae08332f5f0e591667b79285b62efdd2b9bf29d47b3846f847fc8ace0fdebb5aab09620701435cf6a000000000000000000000000000000000000000000000000000000000000001c000000000000000000000000000000000000000000000000000000000000000f9755f4331514af94a42113bf1c9acb5f61c743cb18abdb06981572bf8339e4f15d37a65ff1116e816468b0f32ba938790bcc696be32381bdb798276a264c418c000000000000000000000000000000000000000000000000000000000000001b0000000000000000000000000000000000000000000000000000000000000011674dbb3c6cba1034ead36150c8094fdbefb628bb573bea808580c878e93397d861199e58ce69cf27d84d913d8a84799e5f7b868b06e0c7073ad57bde238dc83e000000000000000000000000000000000000000000000000000000000000001c00000000000000000000000000000000000000000000000000000000000000120000000000000000000000000000000000000000000000000000000000000000",
                    "revert": false,
                    "revertMessage": "",
                    "selector": "0xc0fd8bde",
                    "status": true,
                    "value": "0"
                },
                "nodeType": 0
            },
            "4": {
                "invocation": {
                    "address": "0x0000000000000000000000000000000000000001",
                    "callData": "0xf84642b27ee80546f2acc7b1fc322b911455bdc2e581f99cf5f281bf000000000000000000000000000000000000000000000000000000000000001cb3caf05d0a726439167c567bef6c89d08dc8efb2800458184b0b252431def9f940c9e394ca2d91a02195b1823d0a0ef07c7cb95d192e0eb657cb86b0ddc41667",
                    "decodedMethod": {
                        "callParams": [
                            {
                                "name": "hash",
                                "type": "bytes32",
                                "value": "0xf463ed25f84642b27ee80546f2acc7b1fc322b911455bdc2e581f99cf5f281bf"
                            },
                            {
                                "name": "v",
                                "type": "uint256",
                                "value": "28"
                            },
                            {
                                "name": "r",
                                "type": "bytes32",
                                "value": "0xb3caf05d0a726439167c567bef6c89d08dc8efb2800458184b0b252431def9f9"
                            },
                            {
                                "name": "s",
                                "type": "bytes32",
                                "value": "0x40c9e394ca2d91a02195b1823d0a0ef07c7cb95d192e0eb657cb86b0ddc41667"
                            }
                        ],
                        "constructorArguments": "",
                        "name": "ecrecover",
                        "returnParams": [
                            {
                                "name": "",
                                "type": "address",
                                "value": "0x58cc3ae5c097b213ce3c81979e1b9f9570746aa5"
                            }
                        ],
                        "signature": "ecrecover(bytes32,uint256,bytes32,bytes32)"
                    },
                    "errorInfo": "",
                    "fromAddress": "0x98f3c9e6e3face36baad05fe09d375ef1464288b",
                    "gasUsed": 3000,
                    "id": 4,
                    "methodDecoded": true,
                    "operation": "STATICCALL",
                    "output": "0x00000000000000000000000058cc3ae5c097b213ce3c81979e1b9f9570746aa5",
                    "revert": false,
                    "revertMessage": "",
                    "selector": "0xf463ed25",
                    "status": true,
                    "value": "0"
                },
                "nodeType": 0
            },
            "5": {
                "invocation": {
                    "address": "0x0000000000000000000000000000000000000001",
                    "callData": "0xf84642b27ee80546f2acc7b1fc322b911455bdc2e581f99cf5f281bf000000000000000000000000000000000000000000000000000000000000001b5399916a01aefb443f3d1ca9128a66cc32510de3c6f600e0751313ab5237f6ef33696af327bfac949c0488a25b730132931482bfb03ce9a5df98982c85813e10",
                    "decodedMethod": {
                        "callParams": [
                            {
                                "name": "hash",
                                "type": "bytes32",
                                "value": "0xf463ed25f84642b27ee80546f2acc7b1fc322b911455bdc2e581f99cf5f281bf"
                            },
                            {
                                "name": "v",
                                "type": "uint256",
                                "value": "27"
                            },
                            {
                                "name": "r",
                                "type": "bytes32",
                                "value": "0x5399916a01aefb443f3d1ca9128a66cc32510de3c6f600e0751313ab5237f6ef"
                            },
                            {
                                "name": "s",
                                "type": "bytes32",
                                "value": "0x33696af327bfac949c0488a25b730132931482bfb03ce9a5df98982c85813e10"
                            }
                        ],
                        "constructorArguments": "",
                        "name": "ecrecover",
                        "returnParams": [
                            {
                                "name": "",
                                "type": "address",
                                "value": "0xff6cb952589bde862c25ef4392132fb9d4a42157"
                            }
                        ],
                        "signature": "ecrecover(bytes32,uint256,bytes32,bytes32)"
                    },
                    "errorInfo": "",
                    "fromAddress": "0x98f3c9e6e3face36baad05fe09d375ef1464288b",
                    "gasUsed": 3000,
                    "id": 5,
                    "methodDecoded": true,
                    "operation": "STATICCALL",
                    "output": "0x000000000000000000000000ff6cb952589bde862c25ef4392132fb9d4a42157",
                    "revert": false,
                    "revertMessage": "",
                    "selector": "0xf463ed25",
                    "status": true,
                    "value": "0"
                },
                "nodeType": 0
            },
            "6": {
                "invocation": {
                    "address": "0x0000000000000000000000000000000000000001",
                    "callData": "0xf84642b27ee80546f2acc7b1fc322b911455bdc2e581f99cf5f281bf000000000000000000000000000000000000000000000000000000000000001c5ae4a37fa2ad37c53d9ae3ac77dc711a92db41be0524a10fc6af8d80872d2fec7f80b785e6bcf7d84e71e5ffe5fed51eb2e331dc674f81ae113c23dd9db603eb",
                    "decodedMethod": {
                        "callParams": [
                            {
                                "name": "hash",
                                "type": "bytes32",
                                "value": "0xf463ed25f84642b27ee80546f2acc7b1fc322b911455bdc2e581f99cf5f281bf"
                            },
                            {
                                "name": "v",
                                "type": "uint256",
                                "value": "28"
                            },
                            {
                                "name": "r",
                                "type": "bytes32",
                                "value": "0x5ae4a37fa2ad37c53d9ae3ac77dc711a92db41be0524a10fc6af8d80872d2fec"
                            },
                            {
                                "name": "s",
                                "type": "bytes32",
                                "value": "0x7f80b785e6bcf7d84e71e5ffe5fed51eb2e331dc674f81ae113c23dd9db603eb"
                            }
                        ],
                        "constructorArguments": "",
                        "name": "ecrecover",
                        "returnParams": [
                            {
                                "name": "",
                                "type": "address",
                                "value": "0x114de8460193bdf3a2fcf81f86a09765f4762fd1"
                            }
                        ],
                        "signature": "ecrecover(bytes32,uint256,bytes32,bytes32)"
                    },
                    "errorInfo": "",
                    "fromAddress": "0x98f3c9e6e3face36baad05fe09d375ef1464288b",
                    "gasUsed": 3000,
                    "id": 6,
                    "methodDecoded": true,
                    "operation": "STATICCALL",
                    "output": "0x000000000000000000000000114de8460193bdf3a2fcf81f86a09765f4762fd1",
                    "revert": false,
                    "revertMessage": "",
                    "selector": "0xf463ed25",
                    "status": true,
                    "value": "0"
                },
                "nodeType": 0
            },
            "7": {
                "invocation": {
                    "address": "0x0000000000000000000000000000000000000001",
                    "callData": "0xf84642b27ee80546f2acc7b1fc322b911455bdc2e581f99cf5f281bf000000000000000000000000000000000000000000000000000000000000001bff3f74ca78ede465f0d738ca9f4553c57ee2d4a0e16a3dceaaa2653a77c380ae46b4a29881406a9c35b85e64c38cc893073ca9c72896c8d80ef719c4f2037c49",
                    "decodedMethod": {
                        "callParams": [
                            {
                                "name": "hash",
                                "type": "bytes32",
                                "value": "0xf463ed25f84642b27ee80546f2acc7b1fc322b911455bdc2e581f99cf5f281bf"
                            },
                            {
                                "name": "v",
                                "type": "uint256",
                                "value": "27"
                            },
                            {
                                "name": "r",
                                "type": "bytes32",
                                "value": "0xff3f74ca78ede465f0d738ca9f4553c57ee2d4a0e16a3dceaaa2653a77c380ae"
                            },
                            {
                                "name": "s",
                                "type": "bytes32",
                                "value": "0x46b4a29881406a9c35b85e64c38cc893073ca9c72896c8d80ef719c4f2037c49"
                            }
                        ],
                        "constructorArguments": "",
                        "name": "ecrecover",
                        "returnParams": [
                            {
                                "name": "",
                                "type": "address",
                                "value": "0x8c82b2fd82faed2711d59af0f2499d16e726f6b2"
                            }
                        ],
                        "signature": "ecrecover(bytes32,uint256,bytes32,bytes32)"
                    },
                    "errorInfo": "",
                    "fromAddress": "0x98f3c9e6e3face36baad05fe09d375ef1464288b",
                    "gasUsed": 3000,
                    "id": 7,
                    "methodDecoded": true,
                    "operation": "STATICCALL",
                    "output": "0x0000000000000000000000008c82b2fd82faed2711d59af0f2499d16e726f6b2",
                    "revert": false,
                    "revertMessage": "",
                    "selector": "0xf463ed25",
                    "status": true,
                    "value": "0"
                },
                "nodeType": 0
            },
            "8": {
                "invocation": {
                    "address": "0x0000000000000000000000000000000000000001",
                    "callData": "0xf84642b27ee80546f2acc7b1fc322b911455bdc2e581f99cf5f281bf000000000000000000000000000000000000000000000000000000000000001c155eb2f42200f85bf72b7d6debaa462c824101d5ef42368af0a41812133a841c2e25d884499613a838eb0b254d9acac7d830f6c9e222ef07bf35e834b55cfb12",
                    "decodedMethod": {
                        "callParams": [
                            {
                                "name": "hash",
                                "type": "bytes32",
                                "value": "0xf463ed25f84642b27ee80546f2acc7b1fc322b911455bdc2e581f99cf5f281bf"
                            },
                            {
                                "name": "v",
                                "type": "uint256",
                                "value": "28"
                            },
                            {
                                "name": "r",
                                "type": "bytes32",
                                "value": "0x155eb2f42200f85bf72b7d6debaa462c824101d5ef42368af0a41812133a841c"
                            },
                            {
                                "name": "s",
                                "type": "bytes32",
                                "value": "0x2e25d884499613a838eb0b254d9acac7d830f6c9e222ef07bf35e834b55cfb12"
                            }
                        ],
                        "constructorArguments": "",
                        "name": "ecrecover",
                        "returnParams": [
                            {
                                "name": "",
                                "type": "address",
                                "value": "0x54ce5b4d348fb74b958e8966e2ec3dbd4958a7cd"
                            }
                        ],
                        "signature": "ecrecover(bytes32,uint256,bytes32,bytes32)"
                    },
                    "errorInfo": "",
                    "fromAddress": "0x98f3c9e6e3face36baad05fe09d375ef1464288b",
                    "gasUsed": 3000,
                    "id": 8,
                    "methodDecoded": true,
                    "operation": "STATICCALL",
                    "output": "0x00000000000000000000000054ce5b4d348fb74b958e8966e2ec3dbd4958a7cd",
                    "revert": false,
                    "revertMessage": "",
                    "selector": "0xf463ed25",
                    "status": true,
                    "value": "0"
                },
                "nodeType": 0
            },
            "9": {
                "invocation": {
                    "address": "0x0000000000000000000000000000000000000001",
                    "callData": "0xf84642b27ee80546f2acc7b1fc322b911455bdc2e581f99cf5f281bf000000000000000000000000000000000000000000000000000000000000001bd548312ced007fe825fb79eb48d6d41d3b6b39da4d94b3edeb8b447b18c94f59160d3e98c53d551aecec0d2dfca4c5014f26ec27f15d8b891ec3ec445d59670e",
                    "decodedMethod": {
                        "callParams": [
                            {
                                "name": "hash",
                                "type": "bytes32",
                                "value": "0xf463ed25f84642b27ee80546f2acc7b1fc322b911455bdc2e581f99cf5f281bf"
                            },
                            {
                                "name": "v",
                                "type": "uint256",
                                "value": "27"
                            },
                            {
                                "name": "r",
                                "type": "bytes32",
                                "value": "0xd548312ced007fe825fb79eb48d6d41d3b6b39da4d94b3edeb8b447b18c94f59"
                            },
                            {
                                "name": "s",
                                "type": "bytes32",
                                "value": "0x160d3e98c53d551aecec0d2dfca4c5014f26ec27f15d8b891ec3ec445d59670e"
                            }
                        ],
                        "constructorArguments": "",
                        "name": "ecrecover",
                        "returnParams": [
                            {
                                "name": "",
                                "type": "address",
                                "value": "0x15e7caf07c4e3dc8e7c469f92c8cd88fb8005a20"
                            }
                        ],
                        "signature": "ecrecover(bytes32,uint256,bytes32,bytes32)"
                    },
                    "errorInfo": "",
                    "fromAddress": "0x98f3c9e6e3face36baad05fe09d375ef1464288b",
                    "gasUsed": 3000,
                    "id": 9,
                    "methodDecoded": true,
                    "operation": "STATICCALL",
                    "output": "0x00000000000000000000000015e7caf07c4e3dc8e7c469f92c8cd88fb8005a20",
                    "revert": false,
                    "revertMessage": "",
                    "selector": "0xf463ed25",
                    "status": true,
                    "value": "0"
                },
                "nodeType": 0
            }
        },
        "gasFlame": [
            {
                "children": [
                    {
                        "children": [
                            {
                                "children": [],
                                "depth": 0,
                                "name": "Initial Gas",
                                "value": 36860
                            },
                            {
                                "children": [
                                    {
                                        "children": [
                                            {
                                                "children": [
                                                    {
                                                        "children": [
                                                            {
                                                                "children": [],
                                                                "depth": 4,
                                                                "name": "ecrecover",
                                                                "value": 3000
                                                            },
                                                            {
                                                                "children": [],
                                                                "depth": 4,
                                                                "name": "ecrecover",
                                                                "value": 3000
                                                            },
                                                            {
                                                                "children": [],
                                                                "depth": 4,
                                                                "name": "ecrecover",
                                                                "value": 3000
                                                            },
                                                            {
                                                                "children": [],
                                                                "depth": 4,
                                                                "name": "ecrecover",
                                                                "value": 3000
                                                            },
                                                            {
                                                                "children": [],
                                                                "depth": 4,
                                                                "name": "ecrecover",
                                                                "value": 3000
                                                            },
                                                            {
                                                                "children": [],
                                                                "depth": 4,
                                                                "name": "ecrecover",
                                                                "value": 3000
                                                            },
                                                            {
                                                                "children": [],
                                                                "depth": 4,
                                                                "name": "ecrecover",
                                                                "value": 3000
                                                            },
                                                            {
                                                                "children": [],
                                                                "depth": 4,
                                                                "name": "ecrecover",
                                                                "value": 3000
                                                            },
                                                            {
                                                                "children": [],
                                                                "depth": 4,
                                                                "name": "ecrecover",
                                                                "value": 3000
                                                            },
                                                            {
                                                                "children": [],
                                                                "depth": 4,
                                                                "name": "ecrecover",
                                                                "value": 3000
                                                            },
                                                            {
                                                                "children": [],
                                                                "depth": 4,
                                                                "name": "ecrecover",
                                                                "value": 3000
                                                            },
                                                            {
                                                                "children": [],
                                                                "depth": 4,
                                                                "name": "ecrecover",
                                                                "value": 3000
                                                            },
                                                            {
                                                                "children": [],
                                                                "depth": 4,
                                                                "name": "ecrecover",
                                                                "value": 3000
                                                            }
                                                        ],
                                                        "depth": 3,
                                                        "name": "parseAndVerifyVM",
                                                        "value": 129247
                                                    }
                                                ],
                                                "depth": 2,
                                                "name": "parseAndVerifyVM",
                                                "value": 134689
                                            },
                                            {
                                                "children": [],
                                                "depth": 2,
                                                "name": "decimals",
                                                "value": 2444
                                            },
                                            {
                                                "children": [
                                                    {
                                                        "children": [
                                                            {
                                                                "children": [],
                                                                "depth": 4,
                                                                "name": "fallback",
                                                                "value": 55
                                                            }
                                                        ],
                                                        "depth": 3,
                                                        "name": "fallback",
                                                        "value": 454
                                                    }
                                                ],
                                                "depth": 2,
                                                "name": "withdraw",
                                                "value": 14394
                                            },
                                            {
                                                "children": [],
                                                "depth": 2,
                                                "name": "fallback",
                                                "value": 0
                                            }
                                        ],
                                        "depth": 1,
                                        "name": "completeTransferAndUnwrapETH",
                                        "value": 220717
                                    }
                                ],
                                "depth": 0,
                                "name": "Executed Gas",
                                "value": 225815
                            }
                        ],
                        "depth": -1,
                        "name": "Actual Gas Used",
                        "value": 262675
                    },
                    {
                        "children": [],
                        "depth": -1,
                        "name": "Refunded Gas",
                        "value": 0
                    }
                ],
                "depth": -2,
                "name": "Total Gas",
                "value": 262675
            }
        ],
        "isConfirmed": true,
        "mainTrace": [
            {
                "children": [
                    {
                        "children": [
                            {
                                "children": [
                                    {
                                        "children": [
                                            {
                                                "children": [
                                                    {
                                                        "children": [],
                                                        "depth": 4,
                                                        "id": 4,
                                                        "order": 4
                                                    },
                                                    {
                                                        "children": [],
                                                        "depth": 4,
                                                        "id": 5,
                                                        "order": 5
                                                    },
                                                    {
                                                        "children": [],
                                                        "depth": 4,
                                                        "id": 6,
                                                        "order": 6
                                                    },
                                                    {
                                                        "children": [],
                                                        "depth": 4,
                                                        "id": 7,
                                                        "order": 7
                                                    },
                                                    {
                                                        "children": [],
                                                        "depth": 4,
                                                        "id": 8,
                                                        "order": 8
                                                    },
                                                    {
                                                        "children": [],
                                                        "depth": 4,
                                                        "id": 9,
                                                        "order": 9
                                                    },
                                                    {
                                                        "children": [],
                                                        "depth": 4,
                                                        "id": 10,
                                                        "order": 10
                                                    },
                                                    {
                                                        "children": [],
                                                        "depth": 4,
                                                        "id": 11,
                                                        "order": 11
                                                    },
                                                    {
                                                        "children": [],
                                                        "depth": 4,
                                                        "id": 12,
                                                        "order": 12
                                                    },
                                                    {
                                                        "children": [],
                                                        "depth": 4,
                                                        "id": 13,
                                                        "order": 13
                                                    },
                                                    {
                                                        "children": [],
                                                        "depth": 4,
                                                        "id": 14,
                                                        "order": 14
                                                    },
                                                    {
                                                        "children": [],
                                                        "depth": 4,
                                                        "id": 15,
                                                        "order": 15
                                                    },
                                                    {
                                                        "children": [],
                                                        "depth": 4,
                                                        "id": 16,
                                                        "order": 16
                                                    }
                                                ],
                                                "depth": 3,
                                                "id": 3,
                                                "order": 3
                                            }
                                        ],
                                        "depth": 2,
                                        "id": 2,
                                        "order": 2
                                    },
                                    {
                                        "children": [],
                                        "depth": 2,
                                        "id": 17,
                                        "order": 17
                                    },
                                    {
                                        "children": [
                                            {
                                                "children": [
                                                    {
                                                        "children": [],
                                                        "depth": 4,
                                                        "id": 20,
                                                        "order": 20
                                                    }
                                                ],
                                                "depth": 3,
                                                "id": 19,
                                                "order": 19
                                            },
                                            {
                                                "children": [],
                                                "depth": 3,
                                                "id": 21,
                                                "order": 21
                                            }
                                        ],
                                        "depth": 2,
                                        "id": 18,
                                        "order": 18
                                    },
                                    {
                                        "children": [],
                                        "depth": 2,
                                        "id": 22,
                                        "order": 22
                                    }
                                ],
                                "depth": 1,
                                "id": 1,
                                "order": 1
                            }
                        ],
                        "depth": 0,
                        "id": 0,
                        "order": 0
                    }
                ],
                "depth": -1,
                "id": -1,
                "order": -1
            }
        ],
        "mainTraceNodeCount": 23,
        "parentIdMap": {
            "0": -1,
            "1": 0,
            "10": 3,
            "11": 3,
            "12": 3,
            "13": 3,
            "14": 3,
            "15": 3,
            "16": 3,
            "17": 1,
            "18": 1,
            "19": 18,
            "2": 1,
            "20": 19,
            "21": 18,
            "22": 1,
            "3": 2,
            "4": 3,
            "5": 3,
            "6": 3,
            "7": 3,
            "8": 3,
            "9": 3
        },
        "tidyTrace": [
            {
                "children": [
                    {
                        "children": [
                            {
                                "children": [
                                    {
                                        "children": [
                                            {
                                                "children": [
                                                    {
                                                        "children": [],
                                                        "depth": 4,
                                                        "id": 20,
                                                        "order": 20
                                                    }
                                                ],
                                                "depth": 3,
                                                "id": 19,
                                                "order": 19
                                            },
                                            {
                                                "children": [],
                                                "depth": 3,
                                                "id": 21,
                                                "order": 21
                                            }
                                        ],
                                        "depth": 2,
                                        "id": 18,
                                        "order": 18
                                    },
                                    {
                                        "children": [],
                                        "depth": 2,
                                        "id": 22,
                                        "order": 22
                                    }
                                ],
                                "depth": 1,
                                "id": 1,
                                "order": 1
                            }
                        ],
                        "depth": 0,
                        "id": 0,
                        "order": 0
                    }
                ],
                "depth": -1,
                "id": -1,
                "order": -1
            }
        ],
        "tidyTraceNodeCount": 7
    },
    "state_change": {
        "stateChanges": [
            {
                "address": "0x3ee18b2214aff97000d974cf647e7c347e8fa585",
                "erc": "",
                "slots": [
                    {
                        "current": "0x0000000000000000000000000000000000000000000000000000000000000001",
                        "key": "0xeaf0f3b24ead8fef4aafe3612088f0914099ebdd15377acbab0c3a5ecf698aea",
                        "prev": "0x0000000000000000000000000000000000000000000000000000000000000000"
                    },
                    {
                        "current": "0x000000000000000000000000000000000000000000000000000003347c3e4014",
                        "key": "0xd0bcf4df132c65dad73803c5e5e1c826f151a3342680034a8a4c8e5f8eb0c13c",
                        "prev": "0x000000000000000000000000000000000000000000000000000003347fa1ff09"
                    }
                ],
                "storageVariables": [
                    {
                        "name": "_state",
                        "type": "struct BridgeStorage.State",
                        "value": {
                            "fields": [
                                {
                                    "name": "completedTransfers",
                                    "type": "mapping(bytes32 => bool)",
                                    "value": {
                                        "pairs": [
                                            {
                                                "key": "0xf463ed25f84642b27ee80546f2acc7b1fc322b911455bdc2e581f99cf5f281bf",
                                                "value": {
                                                    "current": "true",
                                                    "prev": "false",
                                                    "typeTag": 1
                                                }
                                            }
                                        ],
                                        "typeTag": 4
                                    }
                                },
                                {
                                    "name": "outstandingBridged",
                                    "type": "mapping(address => uint256)",
                                    "value": {
                                        "pairs": [
                                            {
                                                "key": "0xc02aaa39b223fe8d0a0e5c4f27ead9083c756cc2",
                                                "value": {
                                                    "current": "3523957637140",
                                                    "prev": "3524014505737",
                                                    "typeTag": 1
                                                }
                                            }
                                        ],
                                        "typeTag": 4
                                    }
                                }
                            ],
                            "typeTag": 3
                        }
                    }
                ]
            },
            {
                "address": "0xc02aaa39b223fe8d0a0e5c4f27ead9083c756cc2",
                "erc": "ERC-20",
                "slots": [
                    {
                        "current": "0x000000000000000000000000000000000000000000000776575d0282c1edd000",
                        "key": "0x43d1034aa65af501aae7495505331473a30972dd0c8f51ea4f813cf4480b2404",
                        "prev": "0x0000000000000000000000000000000000000000000007765f41636330870400"
                    }
                ],
                "storageVariables": [
                    {
                        "name": "balanceOf",
                        "type": "mapping(address => uint256)",
                        "value": {
                            "pairs": [
                                {
                                    "key": "0x3ee18b2214aff97000d974cf647e7c347e8fa585",
                                    "value": {
                                        "current": "35239576371400000000000",
                                        "prev": "35240145057370000000000",
                                        "typeTag": 1
                                    }
                                }
                            ],
                            "typeTag": 4
                        }
                    }
                ]
            }
        ]
    }
}