{
    "balance_change": {
        "balanceChanges": [
            {
                "account": "0x5d63bde8f8de8befab6e5dfb96b8ef73b4d6ed01",
                "assets": [
                    {
                        "address": "0xeeeeeeeeeeeeeeeeeeeeeeeeeeeeeeeeeeeeeeee",
                        "amount": "0.01",
                        "iconUrl": "https://assets.blocksec.com/image/1663669189317-3.png",
                        "isERC1155": false,
                        "isERC721": false,
                        "sign": false,
                        "value": ""
                    }
                ]
            },
            {
                "account": "0xc55e13adbe3b603b586e1da9c4a49467857c43c9",
                "assets": [
                    {
                        "address": "0x03cb0021808442ad5efb61197966aef72a1def96",
                        "amount": "0.0091",
                        "iconUrl": "",
                        "isERC1155": false,
                        "isERC721": false,
                        "sign": true,
                        "value": ""
                    }
                ]
            },
            {
                "account": "0x0000000000000000000000000000000000000000",
                "assets": [
                    {
                        "address": "0x03cb0021808442ad5efb61197966aef72a1def96",
                        "amount": "0.01",
                        "iconUrl": "",
                        "isERC1155": false,
                        "isERC721": false,
                        "sign": false,
                        "value": ""
                    }
                ]
            },
            {
                "account": "0x03cb0021808442ad5efb61197966aef72a1def96",
                "assets": [
                    {
                        "address": "0xeeeeeeeeeeeeeeeeeeeeeeeeeeeeeeeeeeeeeeee",
                        "amount": "0.01",
                        "iconUrl": "https://assets.blocksec.com/image/1663669189317-3.png",
                        "isERC1155": false,
                        "isERC721": false,
                        "sign": true,
                        "value": ""
                    }
                ]
            },
            {
                "account": "0x62a364f7cba3be8fc9dcfdde12cabec8244af381",
                "assets": [
                    {
                        "address": "0x03cb0021808442ad5efb61197966aef72a1def96",
                        "amount": "0.0009",
                        "iconUrl": "",
                        "isERC1155": false,
                        "isERC721": false,
                        "sign": true,
                        "value": ""
                    }
                ]
            }
        ]
    },
    "profile": {
        "basic_info": {
            "baseFee": "",
            "blockNumber": 7712835,
            "callData": "0x31c26b1100000000000000000000000000000000000000000000000000000000000000000000000000000000000000000000000000000000000000000000000000000001",
            "debugEnable": true,
            "errorInfo": "",
            "eventCount": 4,
            "feeRecipient": "0x5a0b54d5dc17e0aadc383d2db43b0a0d3e029c4c",
            "formatValue": "0.01",
            "gasLimit": 1000000,
            "gasPrice": "10.9",
            "gasUsed": 148063,
            "intTxnCount": 4,
            "internalRevert": false,
            "internalRevertMessage": "",
            "isContractCreation": false,
            "isFlashloan": false,
            "maxFee": "",
            "nonce": 1149,
            "overwritedBlockNumber": -1,
            "priorityFee": "",
            "receiver": "0xc55e13adbe3b603b586e1da9c4a49467857c43c9",
            "revertMessage": "",
            "sender": "0x5d63bde8f8de8befab6e5dfb96b8ef73b4d6ed01",
            "simulationEnable": true,
            "sourceTxnHash": "0x4518f5a442a992236a36f34785f80324af149018f75e70cf768e4bd40bc9e712",
            "status": true,
            "timestamp": "2019-05-07T09:21:20Z",
            "transactionFee": "0.0016138867",
            "txnHash": "0x4518f5a442a992236a36f34785f80324af149018f75e70cf768e4bd40bc9e712",
            "txnIndex": 53,
            "type": 0,
            "value": "10000000000000000"
        },
        "fund_flow": [
            {
                "amount": "0.01",
                "from": "0x5d63bde8f8de8befab6e5dfb96b8ef73b4d6ed01",
                "id": 1,
                "isERC1155": false,
                "isERC721": false,
                "isReverted": false,
                "order": 1,
                "to": "0xc55e13adbe3b603b586e1da9c4a49467857c43c9",
                "token": "0xeeeeeeeeeeeeeeeeeeeeeeeeeeeeeeeeeeeeeeee"
            },
            {
                "amount": "0.01",
                "from": "0xc55e13adbe3b603b586e1da9c4a49467857c43c9",
                "id": 2,
                "isERC1155": false,
                "isERC721": false,
                "isReverted": false,
                "order": 2,
                "to": "0x03cb0021808442ad5efb61197966aef72a1def96",
                "token": "0xeeeeeeeeeeeeeeeeeeeeeeeeeeeeeeeeeeeeeeee"
            },
            {
                "amount": "0.01",
                "from": "0x0000000000000000000000000000000000000000",
                "id": 3,
                "isERC1155": false,
                "isERC721": false,
                "isReverted": false,
                "order": 3,
                "to": "0x03cb0021808442ad5efb61197966aef72a1def96",
                "token": "0x03cb0021808442ad5efb61197966aef72a1def96"
            },
            {
                "amount": "0.01",
                "from": "0x03cb0021808442ad5efb61197966aef72a1def96",
                "id": 4,
                "isERC1155": false,
                "isERC721": false,
                "isReverted": false,
                "order": 4,
                "to": "0x5d63bde8f8de8befab6e5dfb96b8ef73b4d6ed01",
                "token": "0x03cb0021808442ad5efb61197966aef72a1def96"
            },
            {
                "amount": "0.01",
                "from": "0x5d63bde8f8de8befab6e5dfb96b8ef73b4d6ed01",
                "id": 5,
                "isERC1155": false,
                "isERC721": false,
                "isReverted": false,
                "order": 5,
                "to": "0xc55e13adbe3b603b586e1da9c4a49467857c43c9",
                "token": "0x03cb0021808442ad5efb61197966aef72a1def96"
            },
            {
                "amount": "0.0009",
                "from": "0xc55e13adbe3b603b586e1da9c4a49467857c43c9",
                "id": 6,
                "isERC1155": false,
                "isERC721": false,
                "isReverted": false,
                "order": 6,
                "to": "0x62a364f7cba3be8fc9dcfdde12cabec8244af381",
                "token": "0x03cb0021808442ad5efb61197966aef72a1def96"
            }
        ],
        "token_infos": [
            {
                "address": "0x03cb0021808442ad5efb61197966aef72a1def96",
                "decimals": 18
            },
            {
                "address": "0xc02aaa39b223fe8d0a0e5c4f27ead9083c756cc2",
                "decimals": 18
            },
            {
                "address": "0xeeeeeeeeeeeeeeeeeeeeeeeeeeeeeeeeeeeeeeee",
                "decimals": 18
            }
        ]
    },
    "address_label": {
        "labels": [
            {
                "address": "0x0000000000000000000000000000000000000004",
                "label": "Precompiled"
            },
            {
                "address": "0xeeeeeeeeeeeeeeeeeeeeeeeeeeeeeeeeeeeeeeee",
                "label": "Ether"
            },
            {
                "address": "0x03cb0021808442ad5efb61197966aef72a1def96",
                "label": "coToken (coToken)"
            },
            {
                "address": "0x0000000000000000000000000000000000000001",
                "label": "Precompiled"
            },
            {
                "address": "0x0000000000000000000000000000000000000002",
                "label": "Precompiled"
            },
            {
                "address": "0x0000000000000000000000000000000000000003",
                "label": "Precompiled"
            }
        ]
    },
    "trace": {
        "accountLabels": null,
        "dataMap": {
            "-1": {
                "invocation": {
                    "address": "0x5d63bde8f8de8befab6e5dfb96b8ef73b4d6ed01",
                    "callData": "",
                    "decodedMethod": null,
                    "errorInfo": "",
                    "fromAddress": "",
                    "gasUsed": 0,
                    "id": -1,
                    "methodDecoded": false,
                    "operation": "",
                    "output": "",
                    "revert": false,
                    "revertMessage": "",
                    "selector": "",
                    "status": false,
                    "value": ""
                },
                "nodeType": 0
            },
            "0": {
                "invocation": {
                    "address": "0xc55e13adbe3b603b586e1da9c4a49467857c43c9",
                    "callData": "0x00000000000000000000000000000000000000000000000000000000000000000000000000000000000000000000000000000000000000000000000000000001",
                    "decodedMethod": {
                        "callParams": [
                            {
                                "name": "qty",
                                "type": "uint256",
                                "value": "0"
                            },
                            {
                                "name": "boost_",
                                "type": "bool",
                                "value": true
                            }
                        ],
                        "constructorArguments": "",
                        "name": "buy",
                        "returnParams": [],
                        "signature": "buy(uint256,bool)"
                    },
                    "errorInfo": "",
                    "fromAddress": "0x5d63bde8f8de8befab6e5dfb96b8ef73b4d6ed01",
                    "gasUsed": 148063,
                    "id": 0,
                    "methodDecoded": true,
                    "operation": "CALL",
                    "output": "",
                    "revert": false,
                    "revertMessage": "",
                    "selector": "0x31c26b11",
                    "status": true,
                    "value": "0.01"
                },
                "nodeType": 0
            },
            "1": {
                "invocation": {
                    "address": "0x03cb0021808442ad5efb61197966aef72a1def96",
                    "callData": "0x0000000000000000000000005d63bde8f8de8befab6e5dfb96b8ef73b4d6ed01",
                    "decodedMethod": {
                        "callParams": [
                            {
                                "name": "_referer",
                                "type": "address",
                                "value": "0x5d63bde8f8de8befab6e5dfb96b8ef73b4d6ed01"
                            }
                        ],
                        "constructorArguments": "",
                        "name": "deposit",
                        "returnParams": [],
                        "signature": "deposit(address)"
                    },
                    "errorInfo": "",
                    "fromAddress": "0xc55e13adbe3b603b586e1da9c4a49467857c43c9",
                    "gasUsed": 14925,
                    "id": 1,
                    "methodDecoded": true,
                    "operation": "CALL",
                    "output": "",
                    "revert": false,
                    "revertMessage": "",
                    "selector": "0xf340fa01",
                    "status": true,
                    "value": "0.01"
                },
                "nodeType": 0
            },
            "2": {
                "event": {
                    "contract": "0x03cb0021808442ad5efb61197966aef72a1def96",
                    "decodedLog": {
                        "name": "Transfer",
                        "params": [
                            {
                                "name": "from",
                                "type": "address",
                                "value": "0x0000000000000000000000000000000000000000"
                            },
                            {
                                "name": "to",
                                "type": "address",
                                "value": "0x03cb0021808442ad5efb61197966aef72a1def96"
                            },
                            {
                                "decimalAvailable": true,
                                "name": "value",
                                "type": "uint256",
                                "value": "10,000,000,000,000,000"
                            }
                        ],
                        "signature": "Transfer(address,address,uint256)"
                    },
                    "id": 2,
                    "logData": "0x000000000000000000000000000000000000000000000000002386f26fc10000",
                    "logDecoded": true,
                    "operation": "EVENT",
                    "revert": false,
                    "status": true,
                    "topics": [
                        "0xddf252ad1be2c89b69c2b068fc378daa952ba7f163c4a11628f55a4df523b3ef",
                        "0x0000000000000000000000000000000000000000000000000000000000000000",
                        "0x00000000000000000000000003cb0021808442ad5efb61197966aef72a1def96"
                    ]
                },
                "nodeType": 1
            },
            "3": {
                "event": {
                    "contract": "0x03cb0021808442ad5efb61197966aef72a1def96",
                    "decodedLog": {
                        "name": "Transfer",
                        "params": [
                            {
                                "name": "from",
                                "type": "address",
                                "value": "0x03cb0021808442ad5efb61197966aef72a1def96"
                            },
                            {
                                "name": "to",
                                "type": "address",
                                "value": "0x5d63bde8f8de8befab6e5dfb96b8ef73b4d6ed01"
                            },
                            {
                                "decimalAvailable": true,
                                "name": "value",
                                "type": "uint256",
                                "value": "10,000,000,000,000,000"
                            }
                        ],
                        "signature": "Transfer(address,address,uint256)"
                    },
                    "id": 3,
                    "logData": "0x000000000000000000000000000000000000000000000000002386f26fc10000",
                    "logDecoded": true,
                    "operation": "EVENT",
                    "revert": false,
                    "status": true,
                    "topics": [
                        "0xddf252ad1be2c89b69c2b068fc378daa952ba7f163c4a11628f55a4df523b3ef",
                        "0x00000000000000000000000003cb0021808442ad5efb61197966aef72a1def96",
                        "0x0000000000000000000000005d63bde8f8de8befab6e5dfb96b8ef73b4d6ed01"
                    ]
                },
                "nodeType": 1
            },
            "4": {
                "invocation": {
                    "address": "0x03cb0021808442ad5efb61197966aef72a1def96",
                    "callData": "0x0000000000000000000000005d63bde8f8de8befab6e5dfb96b8ef73b4d6ed01000000000000000000000000000000000000000000000000002386f26fc10000",
                    "decodedMethod": {
                        "callParams": [
                            {
                                "name": "_to",
                                "type": "address",
                                "value": "0x5d63bde8f8de8befab6e5dfb96b8ef73b4d6ed01"
                            },
                            {
                                "name": "_value",
                                "type": "uint256",
                                "value": "10,000,000,000,000,000"
                            }
                        ],
                        "constructorArguments": "",
                        "name": "deduct",
                        "returnParams": [
                            {
                                "name": "success",
                                "type": "bool",
                                "value": true
                            }
                        ],
                        "signature": "deduct(address,uint256)"
                    },
                    "errorInfo": "",
                    "fromAddress": "0xc55e13adbe3b603b586e1da9c4a49467857c43c9",
                    "gasUsed": 14038,
                    "id": 4,
                    "methodDecoded": true,
                    "operation": "CALL",
                    "output": "0x0000000000000000000000000000000000000000000000000000000000000001",
                    "revert": false,
                    "revertMessage": "",
                    "selector": "0x47055321",
                    "status": true,
                    "value": "0"
                },
                "nodeType": 0
            },
            "5": {
                "event": {
                    "contract": "0x03cb0021808442ad5efb61197966aef72a1def96",
                    "decodedLog": {
                        "name": "Transfer",
                        "params": [
                            {
                                "name": "from",
                                "type": "address",
                                "value": "0x5d63bde8f8de8befab6e5dfb96b8ef73b4d6ed01"
                            },
                            {
                                "name": "to",
                                "type": "address",
                                "value": "0xc55e13adbe3b603b586e1da9c4a49467857c43c9"
                            },
                            {
                                "decimalAvailable": true,
                                "name": "value",
                                "type": "uint256",
                                "value": "10,000,000,000,000,000"
                            }
                        ],
                        "signature": "Transfer(address,address,uint256)"
                    },
                    "id": 5,
                    "logData": "0x000000000000000000000000000000000000000000000000002386f26fc10000",
                    "logDecoded": true,
                    "operation": "EVENT",
                    "revert": false,
                    "status": true,
                    "topics": [
                        "0xddf252ad1be2c89b69c2b068fc378daa952ba7f163c4a11628f55a4df523b3ef",
                        "0x0000000000000000000000005d63bde8f8de8befab6e5dfb96b8ef73b4d6ed01",
                        "0x000000000000000000000000c55e13adbe3b603b586e1da9c4a49467857c43c9"
                    ]
                },
                "nodeType": 1
            },
            "6": {
                "invocation": {
                    "address": "0x62a364f7cba3be8fc9dcfdde12cabec8244af381",
                    "callData": "0x7feac6d6168fc7091371796cfd3c79ce8c54fa90fb3c84b49b5911b28b16b055000000000000000000000000000000000000000000000000000221b262dd8000000000000000000000000000000000000000000000000000000110d9316ec000",
                    "decodedMethod": null,
                    "errorInfo": "",
                    "fromAddress": "0xc55e13adbe3b603b586e1da9c4a49467857c43c9",
                    "gasUsed": 34214,
                    "id": 6,
                    "methodDecoded": false,
                    "operation": "CALL",
                    "output": "",
                    "revert": false,
                    "revertMessage": "",
                    "selector": "0x7f2dc9b5",
                    "status": true,
                    "value": "0"
                },
                "nodeType": 0
            },
            "7": {
                "invocation": {
                    "address": "0x03cb0021808442ad5efb61197966aef72a1def96",
                    "callData": "0x000000000000000000000000c55e13adbe3b603b586e1da9c4a49467857c43c90000000000000000000000000000000000000000000000000003328b944c4000",
                    "decodedMethod": {
                        "callParams": [
                            {
                                "name": "_to",
                                "type": "address",
                                "value": "0xc55e13adbe3b603b586e1da9c4a49467857c43c9"
                            },
                            {
                                "name": "_value",
                                "type": "uint256",
                                "value": "900,000,000,000,000"
                            }
                        ],
                        "constructorArguments": "",
                        "name": "deduct",
                        "returnParams": [
                            {
                                "name": "success",
                                "type": "bool",
                                "value": true
                            }
                        ],
                        "signature": "deduct(address,uint256)"
                    },
                    "errorInfo": "",
                    "fromAddress": "0x62a364f7cba3be8fc9dcfdde12cabec8244af381",
                    "gasUsed": 14038,
                    "id": 7,
                    "methodDecoded": true,
                    "operation": "CALL",
                    "output": "0x0000000000000000000000000000000000000000000000000000000000000001",
                    "revert": false,
                    "revertMessage": "",
                    "selector": "0x47055321",
                    "status": true,
                    "value": "0"
                },
                "nodeType": 0
            },
            "8": {
                "event": {
                    "contract": "0x03cb0021808442ad5efb61197966aef72a1def96",
                    "decodedLog": {
                        "name": "Transfer",
                        "params": [
                            {
                                "name": "from",
                                "type": "address",
                                "value": "0xc55e13adbe3b603b586e1da9c4a49467857c43c9"
                            },
                            {
                                "name": "to",
                                "type": "address",
                                "value": "0x62a364f7cba3be8fc9dcfdde12cabec8244af381"
                            },
                            {
                                "decimalAvailable": true,
                                "name": "value",
                                "type": "uint256",
                                "value": "900,000,000,000,000"
                            }
                        ],
                        "signature": "Transfer(address,address,uint256)"
                    },
                    "id": 8,
                    "logData": "0x0000000000000000000000000000000000000000000000000003328b944c4000",
                    "logDecoded": true,
                    "operation": "EVENT",
                    "revert": false,
                    "status": true,
                    "topics": [
                        "0xddf252ad1be2c89b69c2b068fc378daa952ba7f163c4a11628f55a4df523b3ef",
                        "0x000000000000000000000000c55e13adbe3b603b586e1da9c4a49467857c43c9",
                        "0x00000000000000000000000062a364f7cba3be8fc9dcfdde12cabec8244af381"
                    ]
                },
                "nodeType": 1
            }
        },
        "gasFlame": [
            {
                "children": [
                    {
                        "children": [
                            {
                                "children": [],
                                "depth": 0,
                                "name": "Initial Gas",
                                "value": 21592
                            },
                            {
                                "children": [
                                    {
                                        "children": [],
                                        "depth": 1,
                                        "name": "deposit",
                                        "value": 14925
                                    },
                                    {
                                        "children": [],
                                        "depth": 1,
                                        "name": "deduct",
                                        "value": 14038
                                    },
                                    {
                                        "children": [
                                            {
                                                "children": [],
                                                "depth": 2,
                                                "name": "deduct",
                                                "value": 14038
                                            }
                                        ],
                                        "depth": 1,
                                        "name": "0x7f2dc9b5",
                                        "value": 34214
                                    }
                                ],
                                "depth": 0,
                                "name": "Executed Gas",
                                "value": 126471
                            }
                        ],
                        "depth": -1,
                        "name": "Actual Gas Used",
                        "value": 148063
                    },
                    {
                        "children": [],
                        "depth": -1,
                        "name": "Refunded Gas",
                        "value": 0
                    }
                ],
                "depth": -2,
                "name": "Total Gas",
                "value": 148063
            }
        ],
        "isConfirmed": true,
        "mainTrace": [
            {
                "children": [
                    {
                        "children": [
                            {
                                "children": [
                                    {
                                        "children": [],
                                        "depth": 2,
                                        "id": 2,
                                        "order": 2
                                    },
                                    {
                                        "children": [],
                                        "depth": 2,
                                        "id": 3,
                                        "order": 3
                                    }
                                ],
                                "depth": 1,
                                "id": 1,
                                "order": 1
                            },
                            {
                                "children": [
                                    {
                                        "children": [],
                                        "depth": 2,
                                        "id": 5,
                                        "order": 5
                                    }
                                ],
                                "depth": 1,
                                "id": 4,
                                "order": 4
                            },
                            {
                                "children": [
                                    {
                                        "children": [
                                            {
                                                "children": [],
                                                "depth": 3,
                                                "id": 8,
                                                "order": 8
                                            }
                                        ],
                                        "depth": 2,
                                        "id": 7,
                                        "order": 7
                                    }
                                ],
                                "depth": 1,
                                "id": 6,
                                "order": 6
                            }
                        ],
                        "depth": 0,
                        "id": 0,
                        "order": 0
                    }
                ],
                "depth": -1,
                "id": -1,
                "order": -1
            }
        ],
        "mainTraceNodeCount": 9,
        "parentIdMap": {
            "0": -1,
            "1": 0,
            "2": 1,
            "3": 1,
            "4": 0,
            "5": 4,
            "6": 0,
            "7": 6,
            "8": 7
        },
        "tidyTrace": [
            {
                "children": [
                    {
                        "children": [
                            {
                                "children": [
                                    {
                                        "children": [],
                                        "depth": 2,
                                        "id": 2,
                                        "order": 2
                                    },
                                    {
                                        "children": [],
                                        "depth": 2,
                                        "id": 3,
                                        "order": 3
                                    }
                                ],
                                "depth": 1,
                                "id": 1,
                                "order": 1
                            },
                            {
                                "children": [
                                    {
                                        "children": [],
                                        "depth": 2,
                                        "id": 5,
                                        "order": 5
                                    }
                                ],
                                "depth": 1,
                                "id": 4,
                                "order": 4
                            },
                            {
                                "children": [
                                    {
                                        "children": [
                                            {
                                                "children": [],
                                                "depth": 3,
                                                "id": 8,
                                                "order": 8
                                            }
                                        ],
                                        "depth": 2,
                                        "id": 7,
                                        "order": 7
                                    }
                                ],
                                "depth": 1,
                                "id": 6,
                                "order": 6
                            }
                        ],
                        "depth": 0,
                        "id": 0,
                        "order": 0
                    }
                ],
                "depth": -1,
                "id": -1,
                "order": -1
            }
        ],
        "tidyTraceNodeCount": 9
    },
    "state_change": {
        "stateChanges": [
            {
                "address": "0x03cb0021808442ad5efb61197966aef72a1def96",
                "erc": "",
                "slots": [
                    {
                        "current": "0x000000000000000000000000000000000000000000000189a44832b98c1b1f99",
                        "key": "0x0000000000000000000000000000000000000000000000000000000000000005",
                        "prev": "0x000000000000000000000000000000000000000000000189a424abc71c5a1f99"
                    },
                    {
                        "current": "0x000000000000000000000000000000000000000000000013279adc6524d2e066",
                        "key": "0xe5e55f7bd47953ece491cd324542d5e64b67a447dac813dc6a53a83a04b66171",
                        "prev": "0x000000000000000000000000000000000000000000000013277a87fe495e2066"
                    },
                    {
                        "current": "0x00000000000000000000000000000000000000000000003176958370bcc4c000",
                        "key": "0x2ae1781e2b15e18335d21665ed35f55f4489bb9a28dc7e5c8dd1f7abd6dbaf1c",
                        "prev": "0x000000000000000000000000000000000000000000000031769250e528788000"
                    }
                ],
                "storageVariables": []
            },
            {
                "address": "0x62a364f7cba3be8fc9dcfdde12cabec8244af381",
                "erc": "",
                "slots": [
                    {
                        "current": "0x00000000000000000000000000000000000000000000000ef7c5bbf72cfcc000",
                        "key": "0x0000000000000000000000000000000000000000000000000000000000000011",
                        "prev": "0x00000000000000000000000000000000000000000000000ef7c2896b98b08000"
                    },
                    {
                        "current": "0x000000000000000000000000000000000000000000000000046bae713ac0c000",
                        "key": "0x2b5c1abfbbd4ec2b921dcb259cd2a39032bf5588223ac5edaf4f4933216d4b99",
                        "prev": "0x000000000000000000000000000000000000000000000000046a9d9809520000"
                    },
                    {
                        "current": "0x00000000000000000000000000000000000000000000000005609b01cd918000",
                        "key": "0x8dff682a54fdbe5c145a498db867e2ab695bd88d88e3fcf11c77f4a7fe5b2fdf",
                        "prev": "0x000000000000000000000000000000000000000000000000055e794f6ab40000"
                    }
                ],
                "storageVariables": []
            },
            {
                "address": "0xc55e13adbe3b603b586e1da9c4a49467857c43c9",
                "erc": "",
                "slots": [
                    {
                        "current": "0x00000000000000000000000000018a44412a76f300000003cafe572ea69ca380",
                        "key": "0x0000000000000000000000000000000000000000000000000000000000000006",
                        "prev": "0x00000000000000000000000000018a2caa1efda400000003cafa13c9e0e1a380"
                    },
                    {
                        "current": "0x0003ac4ecddfbdba4c850003ac51fcf5796a0000000251c6684f5fdd00000005",
                        "key": "0x0000000000000000000000000000000000000000000000000000000000000007",
                        "prev": "0x0003ac4ecddfbdba4c850003ac51fcf5796a0000000251a2e15cf01c00000005"
                    },
                    {
                        "current": "0x0000000588251d5903f60000000000005cd14e49000000005cd0fec300000008",
                        "key": "0x0000000000000000000000000000000000000000000000000000000000000005",
                        "prev": "0x0000000588251d5903f60000000000005cd14e3f000000005cd0fec300000008"
                    },
                    {
                        "current": "0x00000000000000005cd14e495d63bde8f8de8befab6e5dfb96b8ef73b4d6ed01",
                        "key": "0x0000000000000000000000000000000000000000000000000000000000000003",
                        "prev": "0x00000000000000005cd14e3f1d26888bd1096773bb3c298496f22fcb509106e2"
                    },
                    {
                        "current": "0x00000000000000000000000000000000000000000000000008c6acf1c6f31297",
                        "key": "0x2b5c1abfbbd4ec2b921dcb259cd2a39032bf5588223ac5edaf4f4933216d4b99",
                        "prev": "0x00000000000000000000000000000000000000000000000008c651feb678d297"
                    },
                    {
                        "current": "0x00000000000000000000000000000000000000000000075b5879475b49238000",
                        "key": "0x000000000000000000000000000000000000000000000000000000000000000e",
                        "prev": "0x00000000000000000000000000000000000000000000075b5855c068d9628000"
                    },
                    {
                        "current": "0x00000000000000004139c1192c56000000000000000000004746bcc9ce680000",
                        "key": "0xfea92fffd6c687e4e4d4dd007411c61bc5fbdf3fec621e419b1322036cd431cc",
                        "prev": "0x00000000000000004139c1192c5600000000000000000000472335d75ea70000"
                    },
                    {
                        "current": "0x00000000000000000000000000000000000000000000000b620fa47b261c8000",
                        "key": "0xffedcb5c2329ce8592fea678aa3328951a25fcc7d4ca547bb04f5380cc266f95",
                        "prev": "0x00000000000000000000000000000000000000000000000b620b85779a2c0000"
                    }
                ],
                "storageVariables": []
            }
        ]
    }
}