{
    "balance_change": {
        "balanceChanges": [
            {
                "account": "0x8f588793bec57ed3230ac46e479eadfdd908fd18",
                "assets": [
                    {
                        "address": "0xf62baa1997f04f165edd100d78241e07617f6ce6",
                        "amount": "2,849.52096",
                        "iconUrl": "",
                        "isERC1155": false,
                        "isERC721": false,
                        "sign": false,
                        "value": ""
                    }
                ]
            },
            {
                "account": "0x6d120cb5529b897bdc694f57bf70b8dcf4a00639",
                "assets": [
                    {
                        "address": "0xf62baa1997f04f165edd100d78241e07617f6ce6",
                        "amount": "2,849.52096",
                        "iconUrl": "",
                        "isERC1155": false,
                        "isERC721": false,
                        "sign": true,
                        "value": ""
                    }
                ]
            }
        ]
    },
    "profile": {
        "basic_info": {
            "baseFee": "",
            "blockNumber": 9166343,
            "callData": "0xa9059cbb0000000000000000000000006d120cb5529b897bdc694f57bf70b8dcf4a0063900000000000000000000000000000000000000000000009a790c17b5fe140000",
            "debugEnable": true,
            "errorInfo": "",
            "eventCount": 1,
            "feeRecipient": "0x829bd824b016326a401d083b33d092293333a830",
            "formatValue": "0",
            "gasLimit": 250000,
            "gasPrice": "50",
            "gasUsed": 37587,
            "intTxnCount": 0,
            "internalRevert": false,
            "internalRevertMessage": "",
            "isContractCreation": false,
            "isFlashloan": false,
            "maxFee": "",
            "nonce": 57,
            "overwritedBlockNumber": -1,
            "priorityFee": "",
            "receiver": "0xf62baa1997f04f165edd100d78241e07617f6ce6",
            "revertMessage": "",
            "sender": "0x8f588793bec57ed3230ac46e479eadfdd908fd18",
            "simulationEnable": true,
            "sourceTxnHash": "0x459af84d3cd73a1f33affba3176ea87b967662b09e209dcbb6a9b7739b0221c3",
            "status": true,
            "timestamp": "2019-12-26T15:22:30Z",
            "transactionFee": "0.00187935",
            "txnHash": "0x459af84d3cd73a1f33affba3176ea87b967662b09e209dcbb6a9b7739b0221c3",
            "txnIndex": 1,
            "type": 0,
            "value": "0"
        },
        "fund_flow": [
            {
                "amount": "2,849.52096",
                "from": "0x8f588793bec57ed3230ac46e479eadfdd908fd18",
                "id": 1,
                "isERC1155": false,
                "isERC721": false,
                "isReverted": false,
                "order": 1,
                "to": "0x6d120cb5529b897bdc694f57bf70b8dcf4a00639",
                "token": "0xf62baa1997f04f165edd100d78241e07617f6ce6"
            }
        ],
        "token_infos": [
            {
                "address": "0xc02aaa39b223fe8d0a0e5c4f27ead9083c756cc2",
                "decimals": 18
            },
            {
                "address": "0xf62baa1997f04f165edd100d78241e07617f6ce6",
                "decimals": 18
            },
            {
                "address": "0xeeeeeeeeeeeeeeeeeeeeeeeeeeeeeeeeeeeeeeee",
                "decimals": 18
            }
        ]
    },
    "address_label": {
        "labels": [
            {
                "address": "0xeeeeeeeeeeeeeeeeeeeeeeeeeeeeeeeeeeeeeeee",
                "label": "Ether"
            },
            {
                "address": "0xf62baa1997f04f165edd100d78241e07617f6ce6",
                "label": "Uservice Token"
            },
            {
                "address": "0x0000000000000000000000000000000000000001",
                "label": "Precompiled"
            },
            {
                "address": "0x0000000000000000000000000000000000000002",
                "label": "Precompiled"
            },
            {
                "address": "0x0000000000000000000000000000000000000003",
                "label": "Precompiled"
            },
            {
                "address": "0x0000000000000000000000000000000000000004",
                "label": "Precompiled"
            }
        ]
    },
    "trace": {
        "accountLabels": null,
        "dataMap": {
            "-1": {
                "invocation": {
                    "address": "0x8f588793bec57ed3230ac46e479eadfdd908fd18",
                    "callData": "",
                    "decodedMethod": null,
                    "errorInfo": "",
                    "fromAddress": "",
                    "gasUsed": 0,
                    "id": -1,
                    "methodDecoded": false,
                    "operation": "",
                    "output": "",
                    "revert": false,
                    "revertMessage": "",
                    "selector": "",
                    "status": false,
                    "value": ""
                },
                "nodeType": 0
            },
            "0": {
                "invocation": {
                    "address": "0xf62baa1997f04f165edd100d78241e07617f6ce6",
                    "callData": "0x0000000000000000000000006d120cb5529b897bdc694f57bf70b8dcf4a0063900000000000000000000000000000000000000000000009a790c17b5fe140000",
                    "decodedMethod": {
                        "callParams": [
                            {
                                "name": "_to",
                                "type": "address",
                                "value": "0x6d120cb5529b897bdc694f57bf70b8dcf4a00639"
                            },
                            {
                                "decimalAvailable": true,
                                "name": "_value",
                                "type": "uint256",
                                "value": "2,849,520,960,000,000,000,000"
                            }
                        ],
                        "constructorArguments": "",
                        "name": "transfer",
                        "returnParams": [
                            {
                                "name": "",
                                "type": "bool",
                                "value": true
                            }
                        ],
                        "signature": "transfer(address,uint256)"
                    },
                    "errorInfo": "",
                    "fromAddress": "0x8f588793bec57ed3230ac46e479eadfdd908fd18",
                    "gasUsed": 37587,
                    "id": 0,
                    "methodDecoded": true,
                    "operation": "CALL",
                    "output": "0x0000000000000000000000000000000000000000000000000000000000000001",
                    "revert": false,
                    "revertMessage": "",
                    "selector": "0xa9059cbb",
                    "status": true,
                    "value": "0"
                },
                "nodeType": 0
            },
            "1": {
                "event": {
                    "contract": "0xf62baa1997f04f165edd100d78241e07617f6ce6",
                    "decodedLog": {
                        "name": "Transfer",
                        "params": [
                            {
                                "name": "_from",
                                "type": "address",
                                "value": "0x8f588793bec57ed3230ac46e479eadfdd908fd18"
                            },
                            {
                                "name": "_to",
                                "type": "address",
                                "value": "0x6d120cb5529b897bdc694f57bf70b8dcf4a00639"
                            },
                            {
                                "decimalAvailable": true,
                                "name": "_value",
                                "type": "uint256",
                                "value": "2,849,520,960,000,000,000,000"
                            }
                        ],
                        "signature": "Transfer(address,address,uint256)"
                    },
                    "id": 1,
                    "logData": "0x00000000000000000000000000000000000000000000009a790c17b5fe140000",
                    "logDecoded": true,
                    "operation": "EVENT",
                    "revert": false,
                    "status": true,
                    "topics": [
                        "0xddf252ad1be2c89b69c2b068fc378daa952ba7f163c4a11628f55a4df523b3ef",
                        "0x0000000000000000000000008f588793bec57ed3230ac46e479eadfdd908fd18",
                        "0x0000000000000000000000006d120cb5529b897bdc694f57bf70b8dcf4a00639"
                    ]
                },
                "nodeType": 1
            }
        },
        "gasFlame": [
            {
                "children": [
                    {
                        "children": [
                            {
                                "children": [],
                                "depth": 0,
                                "name": "Initial Gas",
                                "value": 21644
                            },
                            {
                                "children": [],
                                "depth": 0,
                                "name": "Executed Gas",
                                "value": 30943
                            }
                        ],
                        "depth": -1,
                        "name": "Actual Gas Used",
                        "value": 37587
                    },
                    {
                        "children": [],
                        "depth": -1,
                        "name": "Refunded Gas",
                        "value": 15000
                    }
                ],
                "depth": -2,
                "name": "Total Gas",
                "value": 52587
            }
        ],
        "isConfirmed": true,
        "mainTrace": [
            {
                "children": [
                    {
                        "children": [
                            {
                                "children": [],
                                "depth": 1,
                                "id": 1,
                                "order": 1
                            }
                        ],
                        "depth": 0,
                        "id": 0,
                        "order": 0
                    }
                ],
                "depth": -1,
                "id": -1,
                "order": -1
            }
        ],
        "mainTraceNodeCount": 2,
        "parentIdMap": {
            "0": -1,
            "1": 0
        },
        "tidyTrace": [
            {
                "children": [
                    {
                        "children": [
                            {
                                "children": [],
                                "depth": 1,
                                "id": 1,
                                "order": 1
                            }
                        ],
                        "depth": 0,
                        "id": 0,
                        "order": 0
                    }
                ],
                "depth": -1,
                "id": -1,
                "order": -1
            }
        ],
        "tidyTraceNodeCount": 2
    },
    "state_change": {
        "stateChanges": [
            {
                "address": "0xf62baa1997f04f165edd100d78241e07617f6ce6",
                "erc": "ERC-20",
                "slots": [
                    {
                        "current": "0x00000000000000000000000000000000000000000000009a790c17b5fe140000",
                        "key": "0x771e3e59258b118242cc5a1ce085a212b62f60a9d14382393619e116f6e75097",
                        "prev": "0x0000000000000000000000000000000000000000000000000000000000000000"
                    },
                    {
                        "current": "0x0000000000000000000000000000000000000000000000000000000000000000",
                        "key": "0x690fe9633081ac961b3c9e823a2843554ec32ef2dd318177905b1efc187e9de0",
                        "prev": "0x00000000000000000000000000000000000000000000009a790c17b5fe140000"
                    }
                ],
                "storageVariables": [
                    {
                        "name": "balances",
                        "type": "mapping(address => uint256)",
                        "value": {
                            "pairs": [
                                {
                                    "key": "0x6d120cb5529b897bdc694f57bf70b8dcf4a00639",
                                    "value": {
                                        "current": "2849520960000000000000",
                                        "prev": "0",
                                        "typeTag": 1
                                    }
                                },
                                {
                                    "key": "0x8f588793bec57ed3230ac46e479eadfdd908fd18",
                                    "value": {
                                        "current": "0",
                                        "prev": "2849520960000000000000",
                                        "typeTag": 1
                                    }
                                }
                            ],
                            "typeTag": 4
                        }
                    }
                ]
            }
        ]
    }
}