{
    "balance_change": {
        "balanceChanges": []
    },
    "profile": {
        "basic_info": {
            "baseFee": "",
            "blockNumber": 11598872,
            "callData": "0xecc1e98400000000000000000000000000000000000000000000000000000000000000600000000000000000000000000000000000000000000000000000000000000300000000000000000000000000000000000000000000000000000000000000046000000000000000000000000000000000000000000000000000000000000000020000000000000000000000000000000000000000000000000000000000000040000000000000000000000000000000000000000000000000000000000000016000000000000000000000000000000000000000000000000000000000000001000000000000000000000000000000000000000000000000000000000000000080000000000000000000000000000000000000000000000000000000005ff53c1400000000000000000000000000000000000000000000000000000000000000c0000000000000000000000000000000000000000000000000000000083e9a06a0000000000000000000000000000000000000000000000000000000000000000670726963657300000000000000000000000000000000000000000000000000000000000000000000000000000000000000000000000000000000000000000003425443000000000000000000000000000000000000000000000000000000000000000000000000000000000000000000000000000000000000000000000001000000000000000000000000000000000000000000000000000000000000000080000000000000000000000000000000000000000000000000000000005ff53c1400000000000000000000000000000000000000000000000000000000000000c0000000000000000000000000000000000000000000000000000000004346abe800000000000000000000000000000000000000000000000000000000000000067072696365730000000000000000000000000000000000000000000000000000000000000000000000000000000000000000000000000000000000000000000345544800000000000000000000000000000000000000000000000000000000000000000000000000000000000000000000000000000000000000000000000002000000000000000000000000000000000000000000000000000000000000004000000000000000000000000000000000000000000000000000000000000000c000000000000000000000000000000000000000000000000000000000000000604905d6cd90a5e620482078d81590452ba3813c66d6907c4fce16224f54fd2a0f4e854b966b866ae396459926736b276174dd79fee6c0977063c1794a72764784000000000000000000000000000000000000000000000000000000000000001c0000000000000000000000000000000000000000000000000000000000000060a084e4660454a4c641d21ad62c2a94f1570268d8f1a380cd968ccf9c423b8857a19c691e6de6b1e97c9eb06237f3818ff6b455e92b218a975cbbe0cb6ae2bb99000000000000000000000000000000000000000000000000000000000000001b0000000000000000000000000000000000000000000000000000000000000002000000000000000000000000000000000000000000000000000000000000004000000000000000000000000000000000000000000000000000000000000000800000000000000000000000000000000000000000000000000000000000000003425443000000000000000000000000000000000000000000000000000000000000000000000000000000000000000000000000000000000000000000000000034554480000000000000000000000000000000000000000000000000000000000",
            "debugEnable": true,
            "errorInfo": "",
            "eventCount": 8,
            "feeRecipient": "0x5a0b54d5dc17e0aadc383d2db43b0a0d3e029c4c",
            "formatValue": "0",
            "gasLimit": 455179,
            "gasPrice": "109.44",
            "gasUsed": 181223,
            "intTxnCount": 12,
            "internalRevert": false,
            "internalRevertMessage": "",
            "isContractCreation": false,
            "isFlashloan": false,
            "maxFee": "",
            "nonce": 3300,
            "overwritedBlockNumber": -1,
            "priorityFee": "",
            "receiver": "0x922018674c12a7f0d394ebeef9b58f186cde13c1",
            "revertMessage": "",
            "sender": "0x83563ba7f1b093aae57fe876f8d870f8a1508886",
            "simulationEnable": true,
            "sourceTxnHash": "0x45a0ea9005aea06eb3ce481acbf844729f9544d12e6d905e59a519285288fdd7",
            "status": true,
            "timestamp": "2021-01-06T04:37:12Z",
            "transactionFee": "0.01983304512",
            "txnHash": "0x45a0ea9005aea06eb3ce481acbf844729f9544d12e6d905e59a519285288fdd7",
            "txnIndex": 110,
            "type": 0,
            "value": "0"
        },
        "fund_flow": [],
        "token_infos": [
            {
                "address": "0xc02aaa39b223fe8d0a0e5c4f27ead9083c756cc2",
                "decimals": 18
            },
            {
                "address": "0xeeeeeeeeeeeeeeeeeeeeeeeeeeeeeeeeeeeeeeee",
                "decimals": 18
            }
        ]
    },
    "address_label": {
        "labels": [
            {
                "address": "0xeeeeeeeeeeeeeeeeeeeeeeeeeeeeeeeeeeeeeeee",
                "label": "Ether"
            },
            {
                "address": "0xc629c26dced4277419cde234012f8160a0278a79",
                "label": "OpenOraclePriceData"
            },
            {
                "address": "0x0000000000000000000000000000000000000002",
                "label": "Precompiled"
            },
            {
                "address": "0x922018674c12a7f0d394ebeef9b58f186cde13c1",
                "label": "UniswapAnchoredView"
            },
            {
                "address": "0xb4e16d0168e52d35cacd2c6185b44281ec28c9dc",
                "label": "Uniswap V2: USDC"
            },
            {
                "address": "0xbb2b8038a1640196fbe3e38816f3e67cba72d940",
                "label": "Uniswap V2: WBTC"
            },
            {
                "address": "0x0000000000000000000000000000000000000001",
                "label": "Precompiled"
            },
            {
                "address": "0x0000000000000000000000000000000000000003",
                "label": "Precompiled"
            },
            {
                "address": "0x0000000000000000000000000000000000000004",
                "label": "Precompiled"
            }
        ]
    },
    "trace": {
        "accountLabels": null,
        "dataMap": {
            "-1": {
                "invocation": {
                    "address": "0x83563ba7f1b093aae57fe876f8d870f8a1508886",
                    "callData": "",
                    "decodedMethod": null,
                    "errorInfo": "",
                    "fromAddress": "",
                    "gasUsed": 0,
                    "id": -1,
                    "methodDecoded": false,
                    "operation": "",
                    "output": "",
                    "revert": false,
                    "revertMessage": "",
                    "selector": "",
                    "status": false,
                    "value": ""
                },
                "nodeType": 0
            },
            "0": {
                "invocation": {
                    "address": "0x922018674c12a7f0d394ebeef9b58f186cde13c1",
                    "callData": "0x00000000000000000000000000000000000000000000000000000000000000600000000000000000000000000000000000000000000000000000000000000300000000000000000000000000000000000000000000000000000000000000046000000000000000000000000000000000000000000000000000000000000000020000000000000000000000000000000000000000000000000000000000000040000000000000000000000000000000000000000000000000000000000000016000000000000000000000000000000000000000000000000000000000000001000000000000000000000000000000000000000000000000000000000000000080000000000000000000000000000000000000000000000000000000005ff53c1400000000000000000000000000000000000000000000000000000000000000c0000000000000000000000000000000000000000000000000000000083e9a06a0000000000000000000000000000000000000000000000000000000000000000670726963657300000000000000000000000000000000000000000000000000000000000000000000000000000000000000000000000000000000000000000003425443000000000000000000000000000000000000000000000000000000000000000000000000000000000000000000000000000000000000000000000001000000000000000000000000000000000000000000000000000000000000000080000000000000000000000000000000000000000000000000000000005ff53c1400000000000000000000000000000000000000000000000000000000000000c0000000000000000000000000000000000000000000000000000000004346abe800000000000000000000000000000000000000000000000000000000000000067072696365730000000000000000000000000000000000000000000000000000000000000000000000000000000000000000000000000000000000000000000345544800000000000000000000000000000000000000000000000000000000000000000000000000000000000000000000000000000000000000000000000002000000000000000000000000000000000000000000000000000000000000004000000000000000000000000000000000000000000000000000000000000000c000000000000000000000000000000000000000000000000000000000000000604905d6cd90a5e620482078d81590452ba3813c66d6907c4fce16224f54fd2a0f4e854b966b866ae396459926736b276174dd79fee6c0977063c1794a72764784000000000000000000000000000000000000000000000000000000000000001c0000000000000000000000000000000000000000000000000000000000000060a084e4660454a4c641d21ad62c2a94f1570268d8f1a380cd968ccf9c423b8857a19c691e6de6b1e97c9eb06237f3818ff6b455e92b218a975cbbe0cb6ae2bb99000000000000000000000000000000000000000000000000000000000000001b0000000000000000000000000000000000000000000000000000000000000002000000000000000000000000000000000000000000000000000000000000004000000000000000000000000000000000000000000000000000000000000000800000000000000000000000000000000000000000000000000000000000000003425443000000000000000000000000000000000000000000000000000000000000000000000000000000000000000000000000000000000000000000000000034554480000000000000000000000000000000000000000000000000000000000",
                    "decodedMethod": {
                        "callParams": [
                            {
                                "name": "messages",
                                "type": "bytes[]",
                                "value": [
                                    "0x0000000000000000000000000000000000000000000000000000000000000080000000000000000000000000000000000000000000000000000000005ff53c1400000000000000000000000000000000000000000000000000000000000000c0000000000000000000000000000000000000000000000000000000083e9a06a00000000000000000000000000000000000000000000000000000000000000006707269636573000000000000000000000000000000000000000000000000000000000000000000000000000000000000000000000000000000000000000000034254430000000000000000000000000000000000000000000000000000000000",
                                    "0x0000000000000000000000000000000000000000000000000000000000000080000000000000000000000000000000000000000000000000000000005ff53c1400000000000000000000000000000000000000000000000000000000000000c0000000000000000000000000000000000000000000000000000000004346abe80000000000000000000000000000000000000000000000000000000000000006707269636573000000000000000000000000000000000000000000000000000000000000000000000000000000000000000000000000000000000000000000034554480000000000000000000000000000000000000000000000000000000000"
                                ]
                            },
                            {
                                "name": "signatures",
                                "type": "bytes[]",
                                "value": [
                                    "0x4905d6cd90a5e620482078d81590452ba3813c66d6907c4fce16224f54fd2a0f4e854b966b866ae396459926736b276174dd79fee6c0977063c1794a72764784000000000000000000000000000000000000000000000000000000000000001c",
                                    "0xa084e4660454a4c641d21ad62c2a94f1570268d8f1a380cd968ccf9c423b8857a19c691e6de6b1e97c9eb06237f3818ff6b455e92b218a975cbbe0cb6ae2bb99000000000000000000000000000000000000000000000000000000000000001b"
                                ]
                            },
                            {
                                "name": "symbols",
                                "type": "string[]",
                                "value": [
                                    "BTC",
                                    "ETH"
                                ]
                            }
                        ],
                        "constructorArguments": "",
                        "name": "postPrices",
                        "returnParams": [],
                        "signature": "postPrices(bytes[],bytes[],string[])"
                    },
                    "errorInfo": "",
                    "fromAddress": "0x83563ba7f1b093aae57fe876f8d870f8a1508886",
                    "gasUsed": 181223,
                    "id": 0,
                    "methodDecoded": true,
                    "operation": "CALL",
                    "output": "",
                    "revert": false,
                    "revertMessage": "",
                    "selector": "0xecc1e984",
                    "status": true,
                    "value": "0"
                },
                "nodeType": 0
            },
            "1": {
                "invocation": {
                    "address": "0xc629c26dced4277419cde234012f8160a0278a79",
                    "callData": "0x0000000000000000000000000000000000000000000000000000000000000040000000000000000000000000000000000000000000000000000000000000016000000000000000000000000000000000000000000000000000000000000001000000000000000000000000000000000000000000000000000000000000000080000000000000000000000000000000000000000000000000000000005ff53c1400000000000000000000000000000000000000000000000000000000000000c0000000000000000000000000000000000000000000000000000000083e9a06a0000000000000000000000000000000000000000000000000000000000000000670726963657300000000000000000000000000000000000000000000000000000000000000000000000000000000000000000000000000000000000000000003425443000000000000000000000000000000000000000000000000000000000000000000000000000000000000000000000000000000000000000000000000604905d6cd90a5e620482078d81590452ba3813c66d6907c4fce16224f54fd2a0f4e854b966b866ae396459926736b276174dd79fee6c0977063c1794a72764784000000000000000000000000000000000000000000000000000000000000001c",
                    "decodedMethod": {
                        "callParams": [
                            {
                                "name": "message",
                                "type": "bytes",
                                "value": "0x0000000000000000000000000000000000000000000000000000000000000080000000000000000000000000000000000000000000000000000000005ff53c1400000000000000000000000000000000000000000000000000000000000000c0000000000000000000000000000000000000000000000000000000083e9a06a00000000000000000000000000000000000000000000000000000000000000006707269636573000000000000000000000000000000000000000000000000000000000000000000000000000000000000000000000000000000000000000000034254430000000000000000000000000000000000000000000000000000000000"
                            },
                            {
                                "name": "signature",
                                "type": "bytes",
                                "value": "0x4905d6cd90a5e620482078d81590452ba3813c66d6907c4fce16224f54fd2a0f4e854b966b866ae396459926736b276174dd79fee6c0977063c1794a72764784000000000000000000000000000000000000000000000000000000000000001c"
                            }
                        ],
                        "constructorArguments": "",
                        "name": "put",
                        "returnParams": [
                            {
                                "name": "",
                                "type": "string",
                                "value": "BTC"
                            }
                        ],
                        "signature": "put(bytes,bytes)"
                    },
                    "errorInfo": "",
                    "fromAddress": "0x922018674c12a7f0d394ebeef9b58f186cde13c1",
                    "gasUsed": 17691,
                    "id": 1,
                    "methodDecoded": true,
                    "operation": "CALL",
                    "output": "0x000000000000000000000000000000000000000000000000000000000000002000000000000000000000000000000000000000000000000000000000000000034254430000000000000000000000000000000000000000000000000000000000",
                    "revert": false,
                    "revertMessage": "",
                    "selector": "0x38636e9a",
                    "status": true,
                    "value": "0"
                },
                "nodeType": 0
            },
            "10": {
                "event": {
                    "contract": "0x922018674c12a7f0d394ebeef9b58f186cde13c1",
                    "decodedLog": {
                        "name": "UniswapWindowUpdated",
                        "params": [
                            {
                                "name": "symbolHash",
                                "type": "bytes32",
                                "value": "0xaaaebeba3810b1e6b70781f14b2d72c1cb89c0b2b320c43bb67ff79f562f5ff4"
                            },
                            {
                                "name": "oldTimestamp",
                                "type": "uint256",
                                "value": "1,609,905,602"
                            },
                            {
                                "name": "newTimestamp",
                                "type": "uint256",
                                "value": "1,609,907,832"
                            },
                            {
                                "name": "oldPrice",
                                "type": "uint256",
                                "value": "42,053,773,075,133,937,001,818,756,354,069"
                            },
                            {
                                "name": "newPrice",
                                "type": "uint256",
                                "value": "42,066,514,949,904,667,615,296,481,369,081"
                            }
                        ],
                        "signature": "UniswapWindowUpdated(bytes32,uint256,uint256,uint256,uint256)"
                    },
                    "id": 10,
                    "logData": "0x000000000000000000000000000000000000000000000000000000005ff535c2000000000000000000000000000000000000000000000000000000005ff53e780000000000000000000000000000000000000212cb11c5bfa1a019106db210150000000000000000000000000000000000000212f43d9aaf0791bebc23a39bf9",
                    "logDecoded": true,
                    "operation": "EVENT",
                    "revert": false,
                    "status": true,
                    "topics": [
                        "0xe37d39315e3419c0937360f1ac88f2c52ecf67e3b22b367f82047ddb4591904a",
                        "0xaaaebeba3810b1e6b70781f14b2d72c1cb89c0b2b320c43bb67ff79f562f5ff4"
                    ]
                },
                "nodeType": 1
            },
            "11": {
                "event": {
                    "contract": "0x922018674c12a7f0d394ebeef9b58f186cde13c1",
                    "decodedLog": {
                        "name": "AnchorPriceUpdated",
                        "params": [
                            {
                                "name": "symbol",
                                "type": "string",
                                "value": "ETH"
                            },
                            {
                                "name": "anchorPrice",
                                "type": "uint256",
                                "value": "1,100,446,554"
                            },
                            {
                                "name": "oldTimestamp",
                                "type": "uint256",
                                "value": "1,609,905,602"
                            },
                            {
                                "name": "newTimestamp",
                                "type": "uint256",
                                "value": "1,609,907,832"
                            }
                        ],
                        "signature": "AnchorPriceUpdated(string,uint256,uint256,uint256)"
                    },
                    "id": 11,
                    "logData": "0x00000000000000000000000000000000000000000000000000000000000000800000000000000000000000000000000000000000000000000000000041977b5a000000000000000000000000000000000000000000000000000000005ff535c2000000000000000000000000000000000000000000000000000000005ff53e7800000000000000000000000000000000000000000000000000000000000000034554480000000000000000000000000000000000000000000000000000000000",
                    "logDecoded": true,
                    "operation": "EVENT",
                    "revert": false,
                    "status": true,
                    "topics": [
                        "0xf63d078e0de851897107641e96093a59e5ddc3c25e7b85a2585e3eba9e774a7b"
                    ]
                },
                "nodeType": 1
            },
            "12": {
                "invocation": {
                    "address": "0xc629c26dced4277419cde234012f8160a0278a79",
                    "callData": "0x000000000000000000000000fceadafab14d46e20144f48824d0c09b1a03f2bc000000000000000000000000000000000000000000000000000000000000004000000000000000000000000000000000000000000000000000000000000000034254430000000000000000000000000000000000000000000000000000000000",
                    "decodedMethod": {
                        "callParams": [
                            {
                                "name": "source",
                                "type": "address",
                                "value": "0xfceadafab14d46e20144f48824d0c09b1a03f2bc"
                            },
                            {
                                "name": "key",
                                "type": "string",
                                "value": "BTC"
                            }
                        ],
                        "constructorArguments": "",
                        "name": "getPrice",
                        "returnParams": [
                            {
                                "name": "",
                                "type": "uint64",
                                "value": "35,410,020,000"
                            }
                        ],
                        "signature": "getPrice(address,string)"
                    },
                    "errorInfo": "",
                    "fromAddress": "0x922018674c12a7f0d394ebeef9b58f186cde13c1",
                    "gasUsed": 1566,
                    "id": 12,
                    "methodDecoded": true,
                    "operation": "STATICCALL",
                    "output": "0x000000000000000000000000000000000000000000000000000000083e9a06a0",
                    "revert": false,
                    "revertMessage": "",
                    "selector": "0x76977a3a",
                    "status": true,
                    "value": "0"
                },
                "nodeType": 0
            },
            "13": {
                "invocation": {
                    "address": "0xbb2b8038a1640196fbe3e38816f3e67cba72d940",
                    "callData": "0x",
                    "decodedMethod": {
                        "callParams": [],
                        "constructorArguments": "",
                        "name": "price0CumulativeLast",
                        "returnParams": [
                            {
                                "name": "",
                                "type": "uint256",
                                "value": "35,953,796,387,672,831,200,671,261,396,484,634,597,439,310,479,685,400"
                            }
                        ],
                        "signature": "price0CumulativeLast()"
                    },
                    "errorInfo": "",
                    "fromAddress": "0x922018674c12a7f0d394ebeef9b58f186cde13c1",
                    "gasUsed": 1087,
                    "id": 13,
                    "methodDecoded": true,
                    "operation": "STATICCALL",
                    "output": "0x00000000000000000000601895f5452a736df0f06699ca2b85589253fc26f718",
                    "revert": false,
                    "revertMessage": "",
                    "selector": "0x5909c0d5",
                    "status": true,
                    "value": "0"
                },
                "nodeType": 0
            },
            "14": {
                "invocation": {
                    "address": "0xbb2b8038a1640196fbe3e38816f3e67cba72d940",
                    "callData": "0x",
                    "decodedMethod": {
                        "callParams": [],
                        "constructorArguments": "",
                        "name": "price1CumulativeLast",
                        "returnParams": [
                            {
                                "name": "",
                                "type": "uint256",
                                "value": "308,425,098,820,909,130,469,069,921,129"
                            }
                        ],
                        "signature": "price1CumulativeLast()"
                    },
                    "errorInfo": "",
                    "fromAddress": "0x922018674c12a7f0d394ebeef9b58f186cde13c1",
                    "gasUsed": 1109,
                    "id": 14,
                    "methodDecoded": true,
                    "operation": "STATICCALL",
                    "output": "0x0000000000000000000000000000000000000003e493431d88c81e5315f59b69",
                    "revert": false,
                    "revertMessage": "",
                    "selector": "0x5a3d5493",
                    "status": true,
                    "value": "0"
                },
                "nodeType": 0
            },
            "15": {
                "invocation": {
                    "address": "0xbb2b8038a1640196fbe3e38816f3e67cba72d940",
                    "callData": "0x",
                    "decodedMethod": {
                        "callParams": [],
                        "constructorArguments": "",
                        "name": "getReserves",
                        "returnParams": [
                            {
                                "name": "_reserve0",
                                "type": "uint112",
                                "value": "320,627,051,354"
                            },
                            {
                                "name": "_reserve1",
                                "type": "uint112",
                                "value": "100,960,929,134,815,488,574,289"
                            },
                            {
                                "name": "_blockTimestampLast",
                                "type": "uint32",
                                "value": "1,609,907,811"
                            }
                        ],
                        "signature": "getReserves()"
                    },
                    "errorInfo": "",
                    "fromAddress": "0x922018674c12a7f0d394ebeef9b58f186cde13c1",
                    "gasUsed": 1204,
                    "id": 15,
                    "methodDecoded": true,
                    "operation": "STATICCALL",
                    "output": "0x0000000000000000000000000000000000000000000000000000004aa6dc8b5a0000000000000000000000000000000000000000000015611a59f62fcf250351000000000000000000000000000000000000000000000000000000005ff53e63",
                    "revert": false,
                    "revertMessage": "",
                    "selector": "0x0902f1ac",
                    "status": true,
                    "value": "0"
                },
                "nodeType": 0
            },
            "16": {
                "event": {
                    "contract": "0x922018674c12a7f0d394ebeef9b58f186cde13c1",
                    "decodedLog": {
                        "name": "UniswapWindowUpdated",
                        "params": [
                            {
                                "name": "symbolHash",
                                "type": "bytes32",
                                "value": "0xe98e2830be1a7e4156d656a7505e65d08c67660dc618072422e9c78053c261e9"
                            },
                            {
                                "name": "oldTimestamp",
                                "type": "uint256",
                                "value": "1,609,905,674"
                            },
                            {
                                "name": "newTimestamp",
                                "type": "uint256",
                                "value": "1,609,907,832"
                            },
                            {
                                "name": "oldPrice",
                                "type": "uint256",
                                "value": "35,950,288,130,262,777,229,023,109,106,374,503,600,493,857,387,924,303"
                            },
                            {
                                "name": "newPrice",
                                "type": "uint256",
                                "value": "35,953,830,722,272,398,896,560,551,229,270,637,065,062,181,607,342,585"
                            }
                        ],
                        "signature": "UniswapWindowUpdated(bytes32,uint256,uint256,uint256,uint256)"
                    },
                    "id": 16,
                    "logData": "0x000000000000000000000000000000000000000000000000000000005ff5360a000000000000000000000000000000000000000000000000000000005ff53e780000000000000000000060162f71912d9426921c6313a18c522396eda8a54b4f0000000000000000000060189bf8e30a065aff2da825a695ebc16b624c9881f9",
                    "logDecoded": true,
                    "operation": "EVENT",
                    "revert": false,
                    "status": true,
                    "topics": [
                        "0xe37d39315e3419c0937360f1ac88f2c52ecf67e3b22b367f82047ddb4591904a",
                        "0xe98e2830be1a7e4156d656a7505e65d08c67660dc618072422e9c78053c261e9"
                    ]
                },
                "nodeType": 1
            },
            "17": {
                "event": {
                    "contract": "0x922018674c12a7f0d394ebeef9b58f186cde13c1",
                    "decodedLog": {
                        "name": "AnchorPriceUpdated",
                        "params": [
                            {
                                "name": "symbol",
                                "type": "string",
                                "value": "BTC"
                            },
                            {
                                "name": "anchorPrice",
                                "type": "uint256",
                                "value": "34,791,979,503"
                            },
                            {
                                "name": "oldTimestamp",
                                "type": "uint256",
                                "value": "1,609,905,674"
                            },
                            {
                                "name": "newTimestamp",
                                "type": "uint256",
                                "value": "1,609,907,832"
                            }
                        ],
                        "signature": "AnchorPriceUpdated(string,uint256,uint256,uint256)"
                    },
                    "id": 17,
                    "logData": "0x00000000000000000000000000000000000000000000000000000000000000800000000000000000000000000000000000000000000000000000000819c379ef000000000000000000000000000000000000000000000000000000005ff5360a000000000000000000000000000000000000000000000000000000005ff53e7800000000000000000000000000000000000000000000000000000000000000034254430000000000000000000000000000000000000000000000000000000000",
                    "logDecoded": true,
                    "operation": "EVENT",
                    "revert": false,
                    "status": true,
                    "topics": [
                        "0xf63d078e0de851897107641e96093a59e5ddc3c25e7b85a2585e3eba9e774a7b"
                    ]
                },
                "nodeType": 1
            },
            "18": {
                "event": {
                    "contract": "0x922018674c12a7f0d394ebeef9b58f186cde13c1",
                    "decodedLog": {
                        "name": "PriceUpdated",
                        "params": [
                            {
                                "name": "symbol",
                                "type": "string",
                                "value": "BTC"
                            },
                            {
                                "name": "price",
                                "type": "uint256",
                                "value": "35,410,020,000"
                            }
                        ],
                        "signature": "PriceUpdated(string,uint256)"
                    },
                    "id": 18,
                    "logData": "0x0000000000000000000000000000000000000000000000000000000000000040000000000000000000000000000000000000000000000000000000083e9a06a000000000000000000000000000000000000000000000000000000000000000034254430000000000000000000000000000000000000000000000000000000000",
                    "logDecoded": true,
                    "operation": "EVENT",
                    "revert": false,
                    "status": true,
                    "topics": [
                        "0x159e83f4712ba2552e68be9d848e49bf6dd35c24f19564ffd523b6549450a2f4"
                    ]
                },
                "nodeType": 1
            },
            "19": {
                "invocation": {
                    "address": "0xc629c26dced4277419cde234012f8160a0278a79",
                    "callData": "0x000000000000000000000000fceadafab14d46e20144f48824d0c09b1a03f2bc000000000000000000000000000000000000000000000000000000000000004000000000000000000000000000000000000000000000000000000000000000034554480000000000000000000000000000000000000000000000000000000000",
                    "decodedMethod": {
                        "callParams": [
                            {
                                "name": "source",
                                "type": "address",
                                "value": "0xfceadafab14d46e20144f48824d0c09b1a03f2bc"
                            },
                            {
                                "name": "key",
                                "type": "string",
                                "value": "ETH"
                            }
                        ],
                        "constructorArguments": "",
                        "name": "getPrice",
                        "returnParams": [
                            {
                                "name": "",
                                "type": "uint64",
                                "value": "1,128,705,000"
                            }
                        ],
                        "signature": "getPrice(address,string)"
                    },
                    "errorInfo": "",
                    "fromAddress": "0x922018674c12a7f0d394ebeef9b58f186cde13c1",
                    "gasUsed": 1566,
                    "id": 19,
                    "methodDecoded": true,
                    "operation": "STATICCALL",
                    "output": "0x000000000000000000000000000000000000000000000000000000004346abe8",
                    "revert": false,
                    "revertMessage": "",
                    "selector": "0x76977a3a",
                    "status": true,
                    "value": "0"
                },
                "nodeType": 0
            },
            "2": {
                "invocation": {
                    "address": "0x0000000000000000000000000000000000000001",
                    "callData": "0x094d5a7ca39165d3bde54bac93e4292f371b52c05ef9df2ff3350ddb000000000000000000000000000000000000000000000000000000000000001c4905d6cd90a5e620482078d81590452ba3813c66d6907c4fce16224f54fd2a0f4e854b966b866ae396459926736b276174dd79fee6c0977063c1794a72764784",
                    "decodedMethod": {
                        "callParams": [
                            {
                                "name": "hash",
                                "type": "bytes32",
                                "value": "0x61d1459c094d5a7ca39165d3bde54bac93e4292f371b52c05ef9df2ff3350ddb"
                            },
                            {
                                "name": "v",
                                "type": "uint256",
                                "value": "28"
                            },
                            {
                                "name": "r",
                                "type": "bytes32",
                                "value": "0x4905d6cd90a5e620482078d81590452ba3813c66d6907c4fce16224f54fd2a0f"
                            },
                            {
                                "name": "s",
                                "type": "bytes32",
                                "value": "0x4e854b966b866ae396459926736b276174dd79fee6c0977063c1794a72764784"
                            }
                        ],
                        "constructorArguments": "",
                        "name": "ecrecover",
                        "returnParams": [
                            {
                                "name": "",
                                "type": "address",
                                "value": "0xfceadafab14d46e20144f48824d0c09b1a03f2bc"
                            }
                        ],
                        "signature": "ecrecover(bytes32,uint256,bytes32,bytes32)"
                    },
                    "errorInfo": "",
                    "fromAddress": "0xc629c26dced4277419cde234012f8160a0278a79",
                    "gasUsed": 3000,
                    "id": 2,
                    "methodDecoded": true,
                    "operation": "STATICCALL",
                    "output": "0x000000000000000000000000fceadafab14d46e20144f48824d0c09b1a03f2bc",
                    "revert": false,
                    "revertMessage": "",
                    "selector": "0x61d1459c",
                    "status": true,
                    "value": "0"
                },
                "nodeType": 0
            },
            "20": {
                "event": {
                    "contract": "0x922018674c12a7f0d394ebeef9b58f186cde13c1",
                    "decodedLog": {
                        "name": "PriceUpdated",
                        "params": [
                            {
                                "name": "symbol",
                                "type": "string",
                                "value": "ETH"
                            },
                            {
                                "name": "price",
                                "type": "uint256",
                                "value": "1,128,705,000"
                            }
                        ],
                        "signature": "PriceUpdated(string,uint256)"
                    },
                    "id": 20,
                    "logData": "0x0000000000000000000000000000000000000000000000000000000000000040000000000000000000000000000000000000000000000000000000004346abe800000000000000000000000000000000000000000000000000000000000000034554480000000000000000000000000000000000000000000000000000000000",
                    "logDecoded": true,
                    "operation": "EVENT",
                    "revert": false,
                    "status": true,
                    "topics": [
                        "0x159e83f4712ba2552e68be9d848e49bf6dd35c24f19564ffd523b6549450a2f4"
                    ]
                },
                "nodeType": 1
            },
            "3": {
                "event": {
                    "contract": "0xc629c26dced4277419cde234012f8160a0278a79",
                    "decodedLog": {
                        "name": "Write",
                        "params": [
                            {
                                "name": "source",
                                "type": "address",
                                "value": "0xfceadafab14d46e20144f48824d0c09b1a03f2bc"
                            },
                            {
                                "name": "key",
                                "type": "string",
                                "value": "BTC"
                            },
                            {
                                "name": "timestamp",
                                "type": "uint64",
                                "value": "1,609,907,220"
                            },
                            {
                                "name": "value",
                                "type": "uint64",
                                "value": "35,410,020,000"
                            }
                        ],
                        "signature": "Write(address,string,uint64,uint64)"
                    },
                    "id": 3,
                    "logData": "0x0000000000000000000000000000000000000000000000000000000000000060000000000000000000000000000000000000000000000000000000005ff53c14000000000000000000000000000000000000000000000000000000083e9a06a000000000000000000000000000000000000000000000000000000000000000034254430000000000000000000000000000000000000000000000000000000000",
                    "logDecoded": true,
                    "operation": "EVENT",
                    "revert": false,
                    "status": true,
                    "topics": [
                        "0x4d3f5aa96531b83f5389343ecd20cd8ac1fba33b64634c1b547a4d85d31540d3",
                        "0x000000000000000000000000fceadafab14d46e20144f48824d0c09b1a03f2bc"
                    ]
                },
                "nodeType": 1
            },
            "4": {
                "invocation": {
                    "address": "0xc629c26dced4277419cde234012f8160a0278a79",
                    "callData": "0x0000000000000000000000000000000000000000000000000000000000000040000000000000000000000000000000000000000000000000000000000000016000000000000000000000000000000000000000000000000000000000000001000000000000000000000000000000000000000000000000000000000000000080000000000000000000000000000000000000000000000000000000005ff53c1400000000000000000000000000000000000000000000000000000000000000c0000000000000000000000000000000000000000000000000000000004346abe800000000000000000000000000000000000000000000000000000000000000067072696365730000000000000000000000000000000000000000000000000000000000000000000000000000000000000000000000000000000000000000000345544800000000000000000000000000000000000000000000000000000000000000000000000000000000000000000000000000000000000000000000000060a084e4660454a4c641d21ad62c2a94f1570268d8f1a380cd968ccf9c423b8857a19c691e6de6b1e97c9eb06237f3818ff6b455e92b218a975cbbe0cb6ae2bb99000000000000000000000000000000000000000000000000000000000000001b",
                    "decodedMethod": {
                        "callParams": [
                            {
                                "name": "message",
                                "type": "bytes",
                                "value": "0x0000000000000000000000000000000000000000000000000000000000000080000000000000000000000000000000000000000000000000000000005ff53c1400000000000000000000000000000000000000000000000000000000000000c0000000000000000000000000000000000000000000000000000000004346abe80000000000000000000000000000000000000000000000000000000000000006707269636573000000000000000000000000000000000000000000000000000000000000000000000000000000000000000000000000000000000000000000034554480000000000000000000000000000000000000000000000000000000000"
                            },
                            {
                                "name": "signature",
                                "type": "bytes",
                                "value": "0xa084e4660454a4c641d21ad62c2a94f1570268d8f1a380cd968ccf9c423b8857a19c691e6de6b1e97c9eb06237f3818ff6b455e92b218a975cbbe0cb6ae2bb99000000000000000000000000000000000000000000000000000000000000001b"
                            }
                        ],
                        "constructorArguments": "",
                        "name": "put",
                        "returnParams": [
                            {
                                "name": "",
                                "type": "string",
                                "value": "ETH"
                            }
                        ],
                        "signature": "put(bytes,bytes)"
                    },
                    "errorInfo": "",
                    "fromAddress": "0x922018674c12a7f0d394ebeef9b58f186cde13c1",
                    "gasUsed": 17691,
                    "id": 4,
                    "methodDecoded": true,
                    "operation": "CALL",
                    "output": "0x000000000000000000000000000000000000000000000000000000000000002000000000000000000000000000000000000000000000000000000000000000034554480000000000000000000000000000000000000000000000000000000000",
                    "revert": false,
                    "revertMessage": "",
                    "selector": "0x38636e9a",
                    "status": true,
                    "value": "0"
                },
                "nodeType": 0
            },
            "5": {
                "invocation": {
                    "address": "0x0000000000000000000000000000000000000001",
                    "callData": "0x7cccc12d47b7c0397417380ba4ec878669accc40abc97c635cf73924000000000000000000000000000000000000000000000000000000000000001ba084e4660454a4c641d21ad62c2a94f1570268d8f1a380cd968ccf9c423b8857a19c691e6de6b1e97c9eb06237f3818ff6b455e92b218a975cbbe0cb6ae2bb99",
                    "decodedMethod": {
                        "callParams": [
                            {
                                "name": "hash",
                                "type": "bytes32",
                                "value": "0xa85af2dd7cccc12d47b7c0397417380ba4ec878669accc40abc97c635cf73924"
                            },
                            {
                                "name": "v",
                                "type": "uint256",
                                "value": "27"
                            },
                            {
                                "name": "r",
                                "type": "bytes32",
                                "value": "0xa084e4660454a4c641d21ad62c2a94f1570268d8f1a380cd968ccf9c423b8857"
                            },
                            {
                                "name": "s",
                                "type": "bytes32",
                                "value": "0xa19c691e6de6b1e97c9eb06237f3818ff6b455e92b218a975cbbe0cb6ae2bb99"
                            }
                        ],
                        "constructorArguments": "",
                        "name": "ecrecover",
                        "returnParams": [
                            {
                                "name": "",
                                "type": "address",
                                "value": "0xfceadafab14d46e20144f48824d0c09b1a03f2bc"
                            }
                        ],
                        "signature": "ecrecover(bytes32,uint256,bytes32,bytes32)"
                    },
                    "errorInfo": "",
                    "fromAddress": "0xc629c26dced4277419cde234012f8160a0278a79",
                    "gasUsed": 3000,
                    "id": 5,
                    "methodDecoded": true,
                    "operation": "STATICCALL",
                    "output": "0x000000000000000000000000fceadafab14d46e20144f48824d0c09b1a03f2bc",
                    "revert": false,
                    "revertMessage": "",
                    "selector": "0xa85af2dd",
                    "status": true,
                    "value": "0"
                },
                "nodeType": 0
            },
            "6": {
                "event": {
                    "contract": "0xc629c26dced4277419cde234012f8160a0278a79",
                    "decodedLog": {
                        "name": "Write",
                        "params": [
                            {
                                "name": "source",
                                "type": "address",
                                "value": "0xfceadafab14d46e20144f48824d0c09b1a03f2bc"
                            },
                            {
                                "name": "key",
                                "type": "string",
                                "value": "ETH"
                            },
                            {
                                "name": "timestamp",
                                "type": "uint64",
                                "value": "1,609,907,220"
                            },
                            {
                                "name": "value",
                                "type": "uint64",
                                "value": "1,128,705,000"
                            }
                        ],
                        "signature": "Write(address,string,uint64,uint64)"
                    },
                    "id": 6,
                    "logData": "0x0000000000000000000000000000000000000000000000000000000000000060000000000000000000000000000000000000000000000000000000005ff53c14000000000000000000000000000000000000000000000000000000004346abe800000000000000000000000000000000000000000000000000000000000000034554480000000000000000000000000000000000000000000000000000000000",
                    "logDecoded": true,
                    "operation": "EVENT",
                    "revert": false,
                    "status": true,
                    "topics": [
                        "0x4d3f5aa96531b83f5389343ecd20cd8ac1fba33b64634c1b547a4d85d31540d3",
                        "0x000000000000000000000000fceadafab14d46e20144f48824d0c09b1a03f2bc"
                    ]
                },
                "nodeType": 1
            },
            "7": {
                "invocation": {
                    "address": "0xb4e16d0168e52d35cacd2c6185b44281ec28c9dc",
                    "callData": "0x",
                    "decodedMethod": {
                        "callParams": [],
                        "constructorArguments": "",
                        "name": "price0CumulativeLast",
                        "returnParams": [
                            {
                                "name": "",
                                "type": "uint256",
                                "value": "332,916,087,815,496,021,049,408,943,829,486,915,799,366,524,322,300"
                            }
                        ],
                        "signature": "price0CumulativeLast()"
                    },
                    "errorInfo": "",
                    "fromAddress": "0x922018674c12a7f0d394ebeef9b58f186cde13c1",
                    "gasUsed": 1087,
                    "id": 7,
                    "methodDecoded": true,
                    "operation": "STATICCALL",
                    "output": "0x0000000000000000000000e3ca59aef06e2df0fa5ec2b9868016f40bba2dc1fc",
                    "revert": false,
                    "revertMessage": "",
                    "selector": "0x5909c0d5",
                    "status": true,
                    "value": "0"
                },
                "nodeType": 0
            },
            "8": {
                "invocation": {
                    "address": "0xb4e16d0168e52d35cacd2c6185b44281ec28c9dc",
                    "callData": "0x",
                    "decodedMethod": {
                        "callParams": [],
                        "constructorArguments": "",
                        "name": "price1CumulativeLast",
                        "returnParams": [
                            {
                                "name": "",
                                "type": "uint256",
                                "value": "42,066,416,335,969,753,526,321,870,489,130"
                            }
                        ],
                        "signature": "price1CumulativeLast()"
                    },
                    "errorInfo": "",
                    "fromAddress": "0x922018674c12a7f0d394ebeef9b58f186cde13c1",
                    "gasUsed": 1109,
                    "id": 8,
                    "methodDecoded": true,
                    "operation": "STATICCALL",
                    "output": "0x0000000000000000000000000000000000000212f3ec085ee7f01e6d64e3462a",
                    "revert": false,
                    "revertMessage": "",
                    "selector": "0x5a3d5493",
                    "status": true,
                    "value": "0"
                },
                "nodeType": 0
            },
            "9": {
                "invocation": {
                    "address": "0xb4e16d0168e52d35cacd2c6185b44281ec28c9dc",
                    "callData": "0x",
                    "decodedMethod": {
                        "callParams": [],
                        "constructorArguments": "",
                        "name": "getReserves",
                        "returnParams": [
                            {
                                "name": "_reserve0",
                                "type": "uint112",
                                "value": "107,672,158,532,689"
                            },
                            {
                                "name": "_reserve1",
                                "type": "uint112",
                                "value": "96,377,036,235,253,319,120,673"
                            },
                            {
                                "name": "_blockTimestampLast",
                                "type": "uint32",
                                "value": "1,609,907,815"
                            }
                        ],
                        "signature": "getReserves()"
                    },
                    "errorInfo": "",
                    "fromAddress": "0x922018674c12a7f0d394ebeef9b58f186cde13c1",
                    "gasUsed": 1204,
                    "id": 9,
                    "methodDecoded": true,
                    "operation": "STATICCALL",
                    "output": "0x000000000000000000000000000000000000000000000000000061ed60c2f4510000000000000000000000000000000000000000000014689c0ef48a58b2b721000000000000000000000000000000000000000000000000000000005ff53e67",
                    "revert": false,
                    "revertMessage": "",
                    "selector": "0x0902f1ac",
                    "status": true,
                    "value": "0"
                },
                "nodeType": 0
            }
        },
        "gasFlame": [
            {
                "children": [
                    {
                        "children": [
                            {
                                "children": [],
                                "depth": 0,
                                "name": "Initial Gas",
                                "value": 28828
                            },
                            {
                                "children": [
                                    {
                                        "children": [
                                            {
                                                "children": [],
                                                "depth": 2,
                                                "name": "ecrecover",
                                                "value": 3000
                                            }
                                        ],
                                        "depth": 1,
                                        "name": "put",
                                        "value": 17691
                                    },
                                    {
                                        "children": [
                                            {
                                                "children": [],
                                                "depth": 2,
                                                "name": "ecrecover",
                                                "value": 3000
                                            }
                                        ],
                                        "depth": 1,
                                        "name": "put",
                                        "value": 17691
                                    },
                                    {
                                        "children": [],
                                        "depth": 1,
                                        "name": "price0CumulativeLast",
                                        "value": 1087
                                    },
                                    {
                                        "children": [],
                                        "depth": 1,
                                        "name": "price1CumulativeLast",
                                        "value": 1109
                                    },
                                    {
                                        "children": [],
                                        "depth": 1,
                                        "name": "getReserves",
                                        "value": 1204
                                    },
                                    {
                                        "children": [],
                                        "depth": 1,
                                        "name": "getPrice",
                                        "value": 1566
                                    },
                                    {
                                        "children": [],
                                        "depth": 1,
                                        "name": "price0CumulativeLast",
                                        "value": 1087
                                    },
                                    {
                                        "children": [],
                                        "depth": 1,
                                        "name": "price1CumulativeLast",
                                        "value": 1109
                                    },
                                    {
                                        "children": [],
                                        "depth": 1,
                                        "name": "getReserves",
                                        "value": 1204
                                    },
                                    {
                                        "children": [],
                                        "depth": 1,
                                        "name": "getPrice",
                                        "value": 1566
                                    }
                                ],
                                "depth": 0,
                                "name": "Executed Gas",
                                "value": 152395
                            }
                        ],
                        "depth": -1,
                        "name": "Actual Gas Used",
                        "value": 181223
                    },
                    {
                        "children": [],
                        "depth": -1,
                        "name": "Refunded Gas",
                        "value": 0
                    }
                ],
                "depth": -2,
                "name": "Total Gas",
                "value": 181223
            }
        ],
        "isConfirmed": true,
        "mainTrace": [
            {
                "children": [
                    {
                        "children": [
                            {
                                "children": [
                                    {
                                        "children": [],
                                        "depth": 2,
                                        "id": 2,
                                        "order": 2
                                    },
                                    {
                                        "children": [],
                                        "depth": 2,
                                        "id": 3,
                                        "order": 3
                                    }
                                ],
                                "depth": 1,
                                "id": 1,
                                "order": 1
                            },
                            {
                                "children": [
                                    {
                                        "children": [],
                                        "depth": 2,
                                        "id": 5,
                                        "order": 5
                                    },
                                    {
                                        "children": [],
                                        "depth": 2,
                                        "id": 6,
                                        "order": 6
                                    }
                                ],
                                "depth": 1,
                                "id": 4,
                                "order": 4
                            },
                            {
                                "children": [],
                                "depth": 1,
                                "id": 7,
                                "order": 7
                            },
                            {
                                "children": [],
                                "depth": 1,
                                "id": 8,
                                "order": 8
                            },
                            {
                                "children": [],
                                "depth": 1,
                                "id": 9,
                                "order": 9
                            },
                            {
                                "children": [],
                                "depth": 1,
                                "id": 10,
                                "order": 10
                            },
                            {
                                "children": [],
                                "depth": 1,
                                "id": 11,
                                "order": 11
                            },
                            {
                                "children": [],
                                "depth": 1,
                                "id": 12,
                                "order": 12
                            },
                            {
                                "children": [],
                                "depth": 1,
                                "id": 13,
                                "order": 13
                            },
                            {
                                "children": [],
                                "depth": 1,
                                "id": 14,
                                "order": 14
                            },
                            {
                                "children": [],
                                "depth": 1,
                                "id": 15,
                                "order": 15
                            },
                            {
                                "children": [],
                                "depth": 1,
                                "id": 16,
                                "order": 16
                            },
                            {
                                "children": [],
                                "depth": 1,
                                "id": 17,
                                "order": 17
                            },
                            {
                                "children": [],
                                "depth": 1,
                                "id": 18,
                                "order": 18
                            },
                            {
                                "children": [],
                                "depth": 1,
                                "id": 19,
                                "order": 19
                            },
                            {
                                "children": [],
                                "depth": 1,
                                "id": 20,
                                "order": 20
                            }
                        ],
                        "depth": 0,
                        "id": 0,
                        "order": 0
                    }
                ],
                "depth": -1,
                "id": -1,
                "order": -1
            }
        ],
        "mainTraceNodeCount": 21,
        "parentIdMap": {
            "0": -1,
            "1": 0,
            "10": 0,
            "11": 0,
            "12": 0,
            "13": 0,
            "14": 0,
            "15": 0,
            "16": 0,
            "17": 0,
            "18": 0,
            "19": 0,
            "2": 1,
            "20": 0,
            "3": 1,
            "4": 0,
            "5": 4,
            "6": 4,
            "7": 0,
            "8": 0,
            "9": 0
        },
        "tidyTrace": [
            {
                "children": [
                    {
                        "children": [
                            {
                                "children": [
                                    {
                                        "children": [],
                                        "depth": 2,
                                        "id": 3,
                                        "order": 3
                                    }
                                ],
                                "depth": 1,
                                "id": 1,
                                "order": 1
                            },
                            {
                                "children": [
                                    {
                                        "children": [],
                                        "depth": 2,
                                        "id": 6,
                                        "order": 6
                                    }
                                ],
                                "depth": 1,
                                "id": 4,
                                "order": 4
                            },
                            {
                                "children": [],
                                "depth": 1,
                                "id": 10,
                                "order": 10
                            },
                            {
                                "children": [],
                                "depth": 1,
                                "id": 11,
                                "order": 11
                            },
                            {
                                "children": [],
                                "depth": 1,
                                "id": 16,
                                "order": 16
                            },
                            {
                                "children": [],
                                "depth": 1,
                                "id": 17,
                                "order": 17
                            },
                            {
                                "children": [],
                                "depth": 1,
                                "id": 18,
                                "order": 18
                            },
                            {
                                "children": [],
                                "depth": 1,
                                "id": 20,
                                "order": 20
                            }
                        ],
                        "depth": 0,
                        "id": 0,
                        "order": 0
                    }
                ],
                "depth": -1,
                "id": -1,
                "order": -1
            }
        ],
        "tidyTraceNodeCount": 11
    },
    "state_change": {
        "stateChanges": [
            {
                "address": "0x922018674c12a7f0d394ebeef9b58f186cde13c1",
                "erc": "",
                "slots": [
                    {
                        "current": "0x000000000000000000000000000000000000000000000000000000005ff535c2",
                        "key": "0x6200d9c0606964564958e1edf0b5d67e485691a223ce33e3267306cb461a390e",
                        "prev": "0x000000000000000000000000000000000000000000000000000000005ff529e2"
                    },
                    {
                        "current": "0x0000000000000000000000000000000000000212cb11c5bfa1a019106db21015",
                        "key": "0x6200d9c0606964564958e1edf0b5d67e485691a223ce33e3267306cb461a390f",
                        "prev": "0x00000000000000000000000000000000000002129460e1710338b9df7c11e97d"
                    },
                    {
                        "current": "0x0000000000000000000060189bf8e30a065aff2da825a695ebc16b624c9881f9",
                        "key": "0x9512ef85800fa7bcfd09699948fb1d02222e4714ec562ff5051bf4c70552ca88",
                        "prev": "0x0000000000000000000060162f71912d9426921c6313a18c522396eda8a54b4f"
                    },
                    {
                        "current": "0x0000000000000000000060162f71912d9426921c6313a18c522396eda8a54b4f",
                        "key": "0xbe7270f3bbe7632c6562ae27d1d394c7f8466201a490612e0abe650345f92867",
                        "prev": "0x00000000000000000000600818dd6c560b808ca29a894b5e090f0117bc9f238b"
                    },
                    {
                        "current": "0x000000000000000000000000000000000000000000000000000000005ff53e78",
                        "key": "0x9512ef85800fa7bcfd09699948fb1d02222e4714ec562ff5051bf4c70552ca87",
                        "prev": "0x000000000000000000000000000000000000000000000000000000005ff5360a"
                    },
                    {
                        "current": "0x000000000000000000000000000000000000000000000000000000083e9a06a0",
                        "key": "0xea096290db83f3db0604a67de9ffe755ff1ab2992e64fb4421a0f12763c4921c",
                        "prev": "0x00000000000000000000000000000000000000000000000000000007f4bdde58"
                    },
                    {
                        "current": "0x000000000000000000000000000000000000000000000000000000004346abe8",
                        "key": "0x256a2183d136158d4ba22eba15fb3e724a6639b68cb3219af799436ea6a42959",
                        "prev": "0x00000000000000000000000000000000000000000000000000000000402a0298"
                    },
                    {
                        "current": "0x000000000000000000000000000000000000000000000000000000005ff53e78",
                        "key": "0xd2177d6caff40309ad6d8c013d8e3e034a17416e79175be33a7d454ebe4b60c1",
                        "prev": "0x000000000000000000000000000000000000000000000000000000005ff535c2"
                    },
                    {
                        "current": "0x0000000000000000000000000000000000000212f43d9aaf0791bebc23a39bf9",
                        "key": "0xd2177d6caff40309ad6d8c013d8e3e034a17416e79175be33a7d454ebe4b60c2",
                        "prev": "0x0000000000000000000000000000000000000212cb11c5bfa1a019106db21015"
                    },
                    {
                        "current": "0x000000000000000000000000000000000000000000000000000000005ff5360a",
                        "key": "0xbe7270f3bbe7632c6562ae27d1d394c7f8466201a490612e0abe650345f92866",
                        "prev": "0x000000000000000000000000000000000000000000000000000000005ff504d2"
                    }
                ],
                "storageVariables": [
                    {
                        "name": "prices",
                        "type": "mapping(bytes32 => uint256)",
                        "value": {
                            "pairs": [
                                {
                                    "key": "0xaaaebeba3810b1e6b70781f14b2d72c1cb89c0b2b320c43bb67ff79f562f5ff4",
                                    "value": {
                                        "current": "1128705000",
                                        "prev": "1076495000",
                                        "typeTag": 1
                                    }
                                },
                                {
                                    "key": "0xe98e2830be1a7e4156d656a7505e65d08c67660dc618072422e9c78053c261e9",
                                    "value": {
                                        "current": "35410020000",
                                        "prev": "34170855000",
                                        "typeTag": 1
                                    }
                                }
                            ],
                            "typeTag": 4
                        }
                    },
                    {
                        "name": "oldObservations",
                        "type": "mapping(bytes32 => struct Observation)",
                        "value": {
                            "pairs": [
                                {
                                    "key": "0xaaaebeba3810b1e6b70781f14b2d72c1cb89c0b2b320c43bb67ff79f562f5ff4",
                                    "value": {
                                        "fields": [
                                            {
                                                "name": "timestamp",
                                                "type": "uint256",
                                                "value": {
                                                    "current": "1609905602",
                                                    "prev": "1609902562",
                                                    "typeTag": 1
                                                }
                                            },
                                            {
                                                "name": "acc",
                                                "type": "uint256",
                                                "value": {
                                                    "current": "42053773075133937001818756354069",
                                                    "prev": "42036847035509513864900005456253",
                                                    "typeTag": 1
                                                }
                                            }
                                        ],
                                        "typeTag": 3
                                    }
                                },
                                {
                                    "key": "0xe98e2830be1a7e4156d656a7505e65d08c67660dc618072422e9c78053c261e9",
                                    "value": {
                                        "fields": [
                                            {
                                                "name": "timestamp",
                                                "type": "uint256",
                                                "value": {
                                                    "current": "1609905674",
                                                    "prev": "1609893074",
                                                    "typeTag": 1
                                                }
                                            },
                                            {
                                                "name": "acc",
                                                "type": "uint256",
                                                "value": {
                                                    "current": "35950288130262777229023109106374503600493857387924303",
                                                    "prev": "35929698205823512441695362808078483507623658394690443",
                                                    "typeTag": 1
                                                }
                                            }
                                        ],
                                        "typeTag": 3
                                    }
                                }
                            ],
                            "typeTag": 4
                        }
                    },
                    {
                        "name": "newObservations",
                        "type": "mapping(bytes32 => struct Observation)",
                        "value": {
                            "pairs": [
                                {
                                    "key": "0xaaaebeba3810b1e6b70781f14b2d72c1cb89c0b2b320c43bb67ff79f562f5ff4",
                                    "value": {
                                        "fields": [
                                            {
                                                "name": "timestamp",
                                                "type": "uint256",
                                                "value": {
                                                    "current": "1609907832",
                                                    "prev": "1609905602",
                                                    "typeTag": 1
                                                }
                                            },
                                            {
                                                "name": "acc",
                                                "type": "uint256",
                                                "value": {
                                                    "current": "42066514949904667615296481369081",
                                                    "prev": "42053773075133937001818756354069",
                                                    "typeTag": 1
                                                }
                                            }
                                        ],
                                        "typeTag": 3
                                    }
                                },
                                {
                                    "key": "0xe98e2830be1a7e4156d656a7505e65d08c67660dc618072422e9c78053c261e9",
                                    "value": {
                                        "fields": [
                                            {
                                                "name": "timestamp",
                                                "type": "uint256",
                                                "value": {
                                                    "current": "1609907832",
                                                    "prev": "1609905674",
                                                    "typeTag": 1
                                                }
                                            },
                                            {
                                                "name": "acc",
                                                "type": "uint256",
                                                "value": {
                                                    "current": "35953830722272398896560551229270637065062181607342585",
                                                    "prev": "35950288130262777229023109106374503600493857387924303",
                                                    "typeTag": 1
                                                }
                                            }
                                        ],
                                        "typeTag": 3
                                    }
                                }
                            ],
                            "typeTag": 4
                        }
                    }
                ]
            },
            {
                "address": "0xc629c26dced4277419cde234012f8160a0278a79",
                "erc": "",
                "slots": [
                    {
                        "current": "0x00000000000000000000000000000000000000004346abe8000000005ff53c14",
                        "key": "0x1e3d75cbcfa38fe9a8c0c204b730c4af2785bdbb401c111deef5407ee15d4d3f",
                        "prev": "0x0000000000000000000000000000000000000000402a0298000000005ff53548"
                    },
                    {
                        "current": "0x00000000000000000000000000000000000000083e9a06a0000000005ff53c14",
                        "key": "0x28efc1ebb439a412d14a723a90c35cacfedf20f8f03efe52280c59d67872cf65",
                        "prev": "0x0000000000000000000000000000000000000007f4bdde58000000005ff53548"
                    }
                ],
                "storageVariables": [
                    {
                        "name": "data",
                        "type": "mapping(address => mapping(string => struct OpenOraclePriceData.Datum))",
                        "value": {
                            "pairs": [
                                {
                                    "key": "0xfceadafab14d46e20144f48824d0c09b1a03f2bc",
                                    "value": {
                                        "pairs": [
                                            {
                                                "key": "BTC",
                                                "value": {
                                                    "fields": [
                                                        {
                                                            "name": "timestamp",
                                                            "type": "uint64",
                                                            "value": {
                                                                "current": "1609907220",
                                                                "prev": "1609905480",
                                                                "typeTag": 1
                                                            }
                                                        },
                                                        {
                                                            "name": "value",
                                                            "type": "uint64",
                                                            "value": {
                                                                "current": "35410020000",
                                                                "prev": "34170855000",
                                                                "typeTag": 1
                                                            }
                                                        }
                                                    ],
                                                    "typeTag": 3
                                                }
                                            },
                                            {
                                                "key": "ETH",
                                                "value": {
                                                    "fields": [
                                                        {
                                                            "name": "timestamp",
                                                            "type": "uint64",
                                                            "value": {
                                                                "current": "1609907220",
                                                                "prev": "1609905480",
                                                                "typeTag": 1
                                                            }
                                                        },
                                                        {
                                                            "name": "value",
                                                            "type": "uint64",
                                                            "value": {
                                                                "current": "1128705000",
                                                                "prev": "1076495000",
                                                                "typeTag": 1
                                                            }
                                                        }
                                                    ],
                                                    "typeTag": 3
                                                }
                                            }
                                        ],
                                        "typeTag": 4
                                    }
                                }
                            ],
                            "typeTag": 4
                        }
                    }
                ]
            }
        ]
    }
}