{
    "balance_change": {
        "balanceChanges": [
            {
                "account": "0xcb83ca9633ad057bd88a48a5b6e8108d97ad4472",
                "assets": [
                    {
                        "address": "0xc02aaa39b223fe8d0a0e5c4f27ead9083c756cc2",
                        "amount": "0.11831554240548056",
                        "iconUrl": "https://assets.blocksec.com/icon/f1cb2d02c471d545bbc7722daf3277fd852d98e63d118771af7047bd8256c516.png",
                        "isERC1155": false,
                        "isERC721": false,
                        "sign": false,
                        "value": "271.58504549123198063"
                    }
                ]
            },
            {
                "account": "0x37ac54dc7dd237eecfd0b61efdd57b15fe158be0",
                "assets": [
                    {
                        "address": "0xc02aaa39b223fe8d0a0e5c4f27ead9083c756cc2",
                        "amount": "0.11831554240548056",
                        "iconUrl": "https://assets.blocksec.com/icon/f1cb2d02c471d545bbc7722daf3277fd852d98e63d118771af7047bd8256c516.png",
                        "isERC1155": false,
                        "isERC721": false,
                        "sign": true,
                        "value": "271.58504549123198063"
                    },
                    {
                        "address": "0x7bef710a5759d197ec0bf621c3df802c2d60d848",
                        "amount": "11,928.890961794598179015",
                        "iconUrl": "",
                        "isERC1155": false,
                        "isERC721": false,
                        "sign": false,
                        "value": "282.71471575199998622"
                    }
                ]
            },
            {
                "account": "0xa701f9db977c98f9043b20225b4322f94dbd50db",
                "assets": [
                    {
                        "address": "0x7bef710a5759d197ec0bf621c3df802c2d60d848",
                        "amount": "11,928.890961794598179015",
                        "iconUrl": "",
                        "isERC1155": false,
                        "isERC721": false,
                        "sign": true,
                        "value": "282.71471575199998622"
                    }
                ]
            }
        ]
    },
    "profile": {
        "basic_info": {
            "baseFee": "15.325006558",
            "blockNumber": 18906561,
            "callData": "0x5e9833a500000000000000000000000000000000000000000000000001a4575be47c807000000000000000000000000000000000000000000000028520d1971d0a60000000000000000000000000000037ac54dc7dd237eecfd0b61efdd57b15fe158be0000000000000000000000000c02aaa39b223fe8d0a0e5c4f27ead9083c756cc2000000000000000000000000000000000000000000000000000000000000000000000000000000000000000000000000000000000000000000000000659192c8000000000000000000000000a701f9db977c98f9043b20225b4322f94dbd50db",
            "debugEnable": true,
            "errorInfo": "",
            "eventCount": 4,
            "feeRecipient": "0x4838b106fce9647bdf1e7877bf73ce8b0bad5f97",
            "formatValue": "0",
            "gasLimit": 888814,
            "gasPrice": "15.425006558",
            "gasUsed": 103456,
            "intTxnCount": 6,
            "internalRevert": false,
            "internalRevertMessage": "",
            "isContractCreation": false,
            "isFlashloan": false,
            "maxFee": "22.84284028",
            "nonce": 6711,
            "overwritedBlockNumber": -1,
            "priorityFee": "0.1",
            "receiver": "0xcb83ca9633ad057bd88a48a5b6e8108d97ad4472",
            "revertMessage": "",
            "sender": "0xa5a376007035761a7a6b2c897759324e69f92a60",
            "simulationEnable": true,
            "sourceTxnHash": "0x4578c74dba110d3c23942834214d7231b333976f2bc21a2d2c9376638bd8ff5c",
            "status": true,
            "timestamp": "2023-12-31T16:10:47Z",
            "transactionFee": "0.001595809478464448",
            "txnHash": "0x4578c74dba110d3c23942834214d7231b333976f2bc21a2d2c9376638bd8ff5c",
            "txnIndex": 51,
            "type": 2,
            "value": "0"
        },
        "fund_flow": [
            {
                "amount": "0.11831554240548056",
                "from": "0xcb83ca9633ad057bd88a48a5b6e8108d97ad4472",
                "id": 1,
                "isERC1155": false,
                "isERC721": false,
                "isReverted": false,
                "order": 1,
                "to": "0x37ac54dc7dd237eecfd0b61efdd57b15fe158be0",
                "token": "0xc02aaa39b223fe8d0a0e5c4f27ead9083c756cc2"
            },
            {
                "amount": "11,928.890961794598179015",
                "from": "0x37ac54dc7dd237eecfd0b61efdd57b15fe158be0",
                "id": 2,
                "isERC1155": false,
                "isERC721": false,
                "isReverted": false,
                "order": 2,
                "to": "0xa701f9db977c98f9043b20225b4322f94dbd50db",
                "token": "0x7bef710a5759d197ec0bf621c3df802c2d60d848"
            }
        ],
        "token_infos": [
            {
                "address": "0x7bef710a5759d197ec0bf621c3df802c2d60d848",
                "decimals": 18
            },
            {
                "address": "0xc02aaa39b223fe8d0a0e5c4f27ead9083c756cc2",
                "decimals": 18
            },
            {
                "address": "0xeeeeeeeeeeeeeeeeeeeeeeeeeeeeeeeeeeeeeeee",
                "decimals": 18
            }
        ]
    },
    "address_label": {
        "labels": [
            {
                "address": "0xa701f9db977c98f9043b20225b4322f94dbd50db",
                "label": "GATE.IO"
            },
            {
                "address": "0xcb83ca9633ad057bd88a48a5b6e8108d97ad4472",
                "label": "MEV Bot: 0xcb8...472"
            },
            {
                "address": "0x37ac54dc7dd237eecfd0b61efdd57b15fe158be0",
                "label": "Uniswap V2: SHOPX 2"
            },
            {
                "address": "0x0000000000000000000000000000000000000001",
                "label": "Precompiled"
            },
            {
                "address": "0xeeeeeeeeeeeeeeeeeeeeeeeeeeeeeeeeeeeeeeee",
                "label": "Ether"
            },
            {
                "address": "0xc02aaa39b223fe8d0a0e5c4f27ead9083c756cc2",
                "label": "Wrapped Ether (WETH)"
            },
            {
                "address": "0x0000000000000000000000000000000000000002",
                "label": "Precompiled"
            },
            {
                "address": "0x0000000000000000000000000000000000000003",
                "label": "Precompiled"
            },
            {
                "address": "0x0000000000000000000000000000000000000004",
                "label": "Precompiled"
            },
            {
                "address": "0x7bef710a5759d197ec0bf621c3df802c2d60d848",
                "label": "SPLYT SHOPX: SHOPX Token"
            }
        ]
    },
    "trace": {
        "accountLabels": null,
        "dataMap": {
            "-1": {
                "invocation": {
                    "address": "0xa5a376007035761a7a6b2c897759324e69f92a60",
                    "callData": "",
                    "decodedMethod": null,
                    "errorInfo": "",
                    "fromAddress": "",
                    "gasUsed": 0,
                    "id": -1,
                    "methodDecoded": false,
                    "operation": "",
                    "output": "",
                    "revert": false,
                    "revertMessage": "",
                    "selector": "",
                    "status": false,
                    "value": ""
                },
                "nodeType": 0
            },
            "0": {
                "invocation": {
                    "address": "0xcb83ca9633ad057bd88a48a5b6e8108d97ad4472",
                    "callData": "0x00000000000000000000000000000000000000000000000001a4575be47c807000000000000000000000000000000000000000000000028520d1971d0a60000000000000000000000000000037ac54dc7dd237eecfd0b61efdd57b15fe158be0000000000000000000000000c02aaa39b223fe8d0a0e5c4f27ead9083c756cc2000000000000000000000000000000000000000000000000000000000000000000000000000000000000000000000000000000000000000000000000659192c8000000000000000000000000a701f9db977c98f9043b20225b4322f94dbd50db",
                    "decodedMethod": null,
                    "errorInfo": "",
                    "fromAddress": "0xa5a376007035761a7a6b2c897759324e69f92a60",
                    "gasUsed": 103456,
                    "id": 0,
                    "methodDecoded": false,
                    "operation": "CALL",
                    "output": "",
                    "revert": false,
                    "revertMessage": "",
                    "selector": "0x5e9833a5",
                    "status": true,
                    "value": "0"
                },
                "nodeType": 0
            },
            "1": {
                "invocation": {
                    "address": "0x37ac54dc7dd237eecfd0b61efdd57b15fe158be0",
                    "callData": "0x",
                    "decodedMethod": {
                        "callParams": [],
                        "constructorArguments": "",
                        "name": "getReserves",
                        "returnParams": [
                            {
                                "name": "_reserve0",
                                "type": "uint112",
                                "value": "4,511,365,093,552,890,159,142,502"
                            },
                            {
                                "name": "_reserve1",
                                "type": "uint112",
                                "value": "44,493,337,798,444,278,866"
                            },
                            {
                                "name": "_blockTimestampLast",
                                "type": "uint32",
                                "value": "1,704,039,047"
                            }
                        ],
                        "signature": "getReserves()"
                    },
                    "errorInfo": "",
                    "fromAddress": "0xcb83ca9633ad057bd88a48a5b6e8108d97ad4472",
                    "gasUsed": 2504,
                    "id": 1,
                    "methodDecoded": true,
                    "operation": "STATICCALL",
                    "output": "0x00000000000000000000000000000000000000000003bb51977dedaf30999666000000000000000000000000000000000000000000000002697816fdebbb64520000000000000000000000000000000000000000000000000000000065919287",
                    "revert": false,
                    "revertMessage": "",
                    "selector": "0x0902f1ac",
                    "status": true,
                    "value": "0"
                },
                "nodeType": 0
            },
            "10": {
                "event": {
                    "contract": "0x37ac54dc7dd237eecfd0b61efdd57b15fe158be0",
                    "decodedLog": {
                        "name": "Swap",
                        "params": [
                            {
                                "name": "sender",
                                "type": "address",
                                "value": "0xcb83ca9633ad057bd88a48a5b6e8108d97ad4472"
                            },
                            {
                                "name": "to",
                                "type": "address",
                                "value": "0xa701f9db977c98f9043b20225b4322f94dbd50db"
                            },
                            {
                                "name": "amount0In",
                                "type": "uint256",
                                "value": "0"
                            },
                            {
                                "name": "amount1In",
                                "type": "uint256",
                                "value": "118,315,542,405,480,560"
                            },
                            {
                                "name": "amount0Out",
                                "type": "uint256",
                                "value": "11,928,890,961,794,598,179,015"
                            },
                            {
                                "name": "amount1Out",
                                "type": "uint256",
                                "value": "0"
                            }
                        ],
                        "signature": "Swap(address,uint256,uint256,uint256,uint256,address)"
                    },
                    "id": 10,
                    "logData": "0x000000000000000000000000000000000000000000000000000000000000000000000000000000000000000000000000000000000000000001a4575be47c8070000000000000000000000000000000000000000000000286aa9e17c776d810c70000000000000000000000000000000000000000000000000000000000000000",
                    "logDecoded": true,
                    "operation": "EVENT",
                    "revert": false,
                    "status": true,
                    "topics": [
                        "0xd78ad95fa46c994b6551d0da85fc275fe613ce37657fb8d5e3d130840159d822",
                        "0x000000000000000000000000cb83ca9633ad057bd88a48a5b6e8108d97ad4472",
                        "0x000000000000000000000000a701f9db977c98f9043b20225b4322f94dbd50db"
                    ]
                },
                "nodeType": 1
            },
            "2": {
                "invocation": {
                    "address": "0xc02aaa39b223fe8d0a0e5c4f27ead9083c756cc2",
                    "callData": "0x00000000000000000000000037ac54dc7dd237eecfd0b61efdd57b15fe158be000000000000000000000000000000000000000000000000001a4575be47c8070",
                    "decodedMethod": {
                        "callParams": [
                            {
                                "name": "dst",
                                "type": "address",
                                "value": "0x37ac54dc7dd237eecfd0b61efdd57b15fe158be0"
                            },
                            {
                                "decimalAvailable": true,
                                "name": "wad",
                                "type": "uint256",
                                "value": "118,315,542,405,480,560"
                            }
                        ],
                        "constructorArguments": "",
                        "name": "transfer",
                        "returnParams": [
                            {
                                "name": "",
                                "type": "bool",
                                "value": true
                            }
                        ],
                        "signature": "transfer(address,uint256)"
                    },
                    "errorInfo": "",
                    "fromAddress": "0xcb83ca9633ad057bd88a48a5b6e8108d97ad4472",
                    "gasUsed": 12862,
                    "id": 2,
                    "methodDecoded": true,
                    "operation": "CALL",
                    "output": "0x0000000000000000000000000000000000000000000000000000000000000001",
                    "revert": false,
                    "revertMessage": "",
                    "selector": "0xa9059cbb",
                    "status": true,
                    "value": "0"
                },
                "nodeType": 0
            },
            "3": {
                "event": {
                    "contract": "0xc02aaa39b223fe8d0a0e5c4f27ead9083c756cc2",
                    "decodedLog": {
                        "name": "Transfer",
                        "params": [
                            {
                                "name": "src",
                                "type": "address",
                                "value": "0xcb83ca9633ad057bd88a48a5b6e8108d97ad4472"
                            },
                            {
                                "name": "dst",
                                "type": "address",
                                "value": "0x37ac54dc7dd237eecfd0b61efdd57b15fe158be0"
                            },
                            {
                                "decimalAvailable": true,
                                "name": "wad",
                                "type": "uint256",
                                "value": "118,315,542,405,480,560"
                            }
                        ],
                        "signature": "Transfer(address,address,uint256)"
                    },
                    "id": 3,
                    "logData": "0x00000000000000000000000000000000000000000000000001a4575be47c8070",
                    "logDecoded": true,
                    "operation": "EVENT",
                    "revert": false,
                    "status": true,
                    "topics": [
                        "0xddf252ad1be2c89b69c2b068fc378daa952ba7f163c4a11628f55a4df523b3ef",
                        "0x000000000000000000000000cb83ca9633ad057bd88a48a5b6e8108d97ad4472",
                        "0x00000000000000000000000037ac54dc7dd237eecfd0b61efdd57b15fe158be0"
                    ]
                },
                "nodeType": 1
            },
            "4": {
                "invocation": {
                    "address": "0x37ac54dc7dd237eecfd0b61efdd57b15fe158be0",
                    "callData": "0x000000000000000000000000000000000000000000000286aa9e17c776d810c70000000000000000000000000000000000000000000000000000000000000000000000000000000000000000a701f9db977c98f9043b20225b4322f94dbd50db00000000000000000000000000000000000000000000000000000000000000800000000000000000000000000000000000000000000000000000000000000000",
                    "decodedMethod": {
                        "callParams": [
                            {
                                "name": "amount0Out",
                                "type": "uint256",
                                "value": "11,928,890,961,794,598,179,015"
                            },
                            {
                                "name": "amount1Out",
                                "type": "uint256",
                                "value": "0"
                            },
                            {
                                "name": "to",
                                "type": "address",
                                "value": "0xa701f9db977c98f9043b20225b4322f94dbd50db"
                            },
                            {
                                "name": "data",
                                "type": "bytes",
                                "value": "0x"
                            }
                        ],
                        "constructorArguments": "",
                        "name": "swap",
                        "returnParams": [],
                        "signature": "swap(uint256,uint256,address,bytes)"
                    },
                    "errorInfo": "",
                    "fromAddress": "0xcb83ca9633ad057bd88a48a5b6e8108d97ad4472",
                    "gasUsed": 54114,
                    "id": 4,
                    "methodDecoded": true,
                    "operation": "CALL",
                    "output": "",
                    "revert": false,
                    "revertMessage": "",
                    "selector": "0x022c0d9f",
                    "status": true,
                    "value": "0"
                },
                "nodeType": 0
            },
            "5": {
                "invocation": {
                    "address": "0x7bef710a5759d197ec0bf621c3df802c2d60d848",
                    "callData": "0x000000000000000000000000a701f9db977c98f9043b20225b4322f94dbd50db000000000000000000000000000000000000000000000286aa9e17c776d810c7",
                    "decodedMethod": {
                        "callParams": [
                            {
                                "name": "recipient",
                                "type": "address",
                                "value": "0xa701f9db977c98f9043b20225b4322f94dbd50db"
                            },
                            {
                                "decimalAvailable": true,
                                "name": "amount",
                                "type": "uint256",
                                "value": "11,928,890,961,794,598,179,015"
                            }
                        ],
                        "constructorArguments": "",
                        "name": "transfer",
                        "returnParams": [
                            {
                                "name": "",
                                "type": "bool",
                                "value": true
                            }
                        ],
                        "signature": "transfer(address,uint256)"
                    },
                    "errorInfo": "",
                    "fromAddress": "0x37ac54dc7dd237eecfd0b61efdd57b15fe158be0",
                    "gasUsed": 29708,
                    "id": 5,
                    "methodDecoded": true,
                    "operation": "CALL",
                    "output": "0x0000000000000000000000000000000000000000000000000000000000000001",
                    "revert": false,
                    "revertMessage": "",
                    "selector": "0xa9059cbb",
                    "status": true,
                    "value": "0"
                },
                "nodeType": 0
            },
            "6": {
                "event": {
                    "contract": "0x7bef710a5759d197ec0bf621c3df802c2d60d848",
                    "decodedLog": {
                        "name": "Transfer",
                        "params": [
                            {
                                "name": "from",
                                "type": "address",
                                "value": "0x37ac54dc7dd237eecfd0b61efdd57b15fe158be0"
                            },
                            {
                                "name": "to",
                                "type": "address",
                                "value": "0xa701f9db977c98f9043b20225b4322f94dbd50db"
                            },
                            {
                                "decimalAvailable": true,
                                "name": "value",
                                "type": "uint256",
                                "value": "11,928,890,961,794,598,179,015"
                            }
                        ],
                        "signature": "Transfer(address,address,uint256)"
                    },
                    "id": 6,
                    "logData": "0x000000000000000000000000000000000000000000000286aa9e17c776d810c7",
                    "logDecoded": true,
                    "operation": "EVENT",
                    "revert": false,
                    "status": true,
                    "topics": [
                        "0xddf252ad1be2c89b69c2b068fc378daa952ba7f163c4a11628f55a4df523b3ef",
                        "0x00000000000000000000000037ac54dc7dd237eecfd0b61efdd57b15fe158be0",
                        "0x000000000000000000000000a701f9db977c98f9043b20225b4322f94dbd50db"
                    ]
                },
                "nodeType": 1
            },
            "7": {
                "invocation": {
                    "address": "0x7bef710a5759d197ec0bf621c3df802c2d60d848",
                    "callData": "0x00000000000000000000000037ac54dc7dd237eecfd0b61efdd57b15fe158be0",
                    "decodedMethod": {
                        "callParams": [
                            {
                                "name": "account",
                                "type": "address",
                                "value": "0x37ac54dc7dd237eecfd0b61efdd57b15fe158be0"
                            }
                        ],
                        "constructorArguments": "",
                        "name": "balanceOf",
                        "returnParams": [
                            {
                                "decimalAvailable": true,
                                "name": "",
                                "type": "uint256",
                                "value": "4,499,436,202,591,095,560,963,487"
                            }
                        ],
                        "signature": "balanceOf(address)"
                    },
                    "errorInfo": "",
                    "fromAddress": "0x37ac54dc7dd237eecfd0b61efdd57b15fe158be0",
                    "gasUsed": 465,
                    "id": 7,
                    "methodDecoded": true,
                    "operation": "STATICCALL",
                    "output": "0x00000000000000000000000000000000000000000003b8caecdfd5e7b9c1859f",
                    "revert": false,
                    "revertMessage": "",
                    "selector": "0x70a08231",
                    "status": true,
                    "value": "0"
                },
                "nodeType": 0
            },
            "8": {
                "invocation": {
                    "address": "0xc02aaa39b223fe8d0a0e5c4f27ead9083c756cc2",
                    "callData": "0x00000000000000000000000037ac54dc7dd237eecfd0b61efdd57b15fe158be0",
                    "decodedMethod": {
                        "callParams": [
                            {
                                "name": "",
                                "type": "address",
                                "value": "0x37ac54dc7dd237eecfd0b61efdd57b15fe158be0"
                            }
                        ],
                        "constructorArguments": "",
                        "name": "balanceOf",
                        "returnParams": [
                            {
                                "decimalAvailable": true,
                                "name": "",
                                "type": "uint256",
                                "value": "44,611,653,340,849,759,426"
                            }
                        ],
                        "signature": "balanceOf(address)"
                    },
                    "errorInfo": "",
                    "fromAddress": "0x37ac54dc7dd237eecfd0b61efdd57b15fe158be0",
                    "gasUsed": 534,
                    "id": 8,
                    "methodDecoded": true,
                    "operation": "STATICCALL",
                    "output": "0x0000000000000000000000000000000000000000000000026b1c6e59d037e4c2",
                    "revert": false,
                    "revertMessage": "",
                    "selector": "0x70a08231",
                    "status": true,
                    "value": "0"
                },
                "nodeType": 0
            },
            "9": {
                "event": {
                    "contract": "0x37ac54dc7dd237eecfd0b61efdd57b15fe158be0",
                    "decodedLog": {
                        "name": "Sync",
                        "params": [
                            {
                                "name": "reserve0",
                                "type": "uint112",
                                "value": "4,499,436,202,591,095,560,963,487"
                            },
                            {
                                "name": "reserve1",
                                "type": "uint112",
                                "value": "44,611,653,340,849,759,426"
                            }
                        ],
                        "signature": "Sync(uint112,uint112)"
                    },
                    "id": 9,
                    "logData": "0x00000000000000000000000000000000000000000003b8caecdfd5e7b9c1859f0000000000000000000000000000000000000000000000026b1c6e59d037e4c2",
                    "logDecoded": true,
                    "operation": "EVENT",
                    "revert": false,
                    "status": true,
                    "topics": [
                        "0x1c411e9a96e071241c2f21f7726b17ae89e3cab4c78be50e062b03a9fffbbad1"
                    ]
                },
                "nodeType": 1
            }
        },
        "gasFlame": [
            {
                "children": [
                    {
                        "children": [
                            {
                                "children": [],
                                "depth": 0,
                                "name": "Initial Gas",
                                "value": 22920
                            },
                            {
                                "children": [
                                    {
                                        "children": [],
                                        "depth": 1,
                                        "name": "getReserves",
                                        "value": 2504
                                    },
                                    {
                                        "children": [],
                                        "depth": 1,
                                        "name": "transfer",
                                        "value": 12862
                                    },
                                    {
                                        "children": [
                                            {
                                                "children": [],
                                                "depth": 2,
                                                "name": "transfer",
                                                "value": 29708
                                            },
                                            {
                                                "children": [],
                                                "depth": 2,
                                                "name": "balanceOf",
                                                "value": 465
                                            },
                                            {
                                                "children": [],
                                                "depth": 2,
                                                "name": "balanceOf",
                                                "value": 534
                                            }
                                        ],
                                        "depth": 1,
                                        "name": "swap",
                                        "value": 54114
                                    }
                                ],
                                "depth": 0,
                                "name": "Executed Gas",
                                "value": 83336
                            }
                        ],
                        "depth": -1,
                        "name": "Actual Gas Used",
                        "value": 103456
                    },
                    {
                        "children": [],
                        "depth": -1,
                        "name": "Refunded Gas",
                        "value": 2800
                    }
                ],
                "depth": -2,
                "name": "Total Gas",
                "value": 106256
            }
        ],
        "isConfirmed": true,
        "mainTrace": [
            {
                "children": [
                    {
                        "children": [
                            {
                                "children": [],
                                "depth": 1,
                                "id": 1,
                                "order": 1
                            },
                            {
                                "children": [
                                    {
                                        "children": [],
                                        "depth": 2,
                                        "id": 3,
                                        "order": 3
                                    }
                                ],
                                "depth": 1,
                                "id": 2,
                                "order": 2
                            },
                            {
                                "children": [
                                    {
                                        "children": [
                                            {
                                                "children": [],
                                                "depth": 3,
                                                "id": 6,
                                                "order": 6
                                            }
                                        ],
                                        "depth": 2,
                                        "id": 5,
                                        "order": 5
                                    },
                                    {
                                        "children": [],
                                        "depth": 2,
                                        "id": 7,
                                        "order": 7
                                    },
                                    {
                                        "children": [],
                                        "depth": 2,
                                        "id": 8,
                                        "order": 8
                                    },
                                    {
                                        "children": [],
                                        "depth": 2,
                                        "id": 9,
                                        "order": 9
                                    },
                                    {
                                        "children": [],
                                        "depth": 2,
                                        "id": 10,
                                        "order": 10
                                    }
                                ],
                                "depth": 1,
                                "id": 4,
                                "order": 4
                            }
                        ],
                        "depth": 0,
                        "id": 0,
                        "order": 0
                    }
                ],
                "depth": -1,
                "id": -1,
                "order": -1
            }
        ],
        "mainTraceNodeCount": 11,
        "parentIdMap": {
            "0": -1,
            "1": 0,
            "10": 4,
            "2": 0,
            "3": 2,
            "4": 0,
            "5": 4,
            "6": 5,
            "7": 4,
            "8": 4,
            "9": 4
        },
        "tidyTrace": [
            {
                "children": [
                    {
                        "children": [
                            {
                                "children": [
                                    {
                                        "children": [],
                                        "depth": 2,
                                        "id": 3,
                                        "order": 3
                                    }
                                ],
                                "depth": 1,
                                "id": 2,
                                "order": 2
                            },
                            {
                                "children": [
                                    {
                                        "children": [
                                            {
                                                "children": [],
                                                "depth": 3,
                                                "id": 6,
                                                "order": 6
                                            }
                                        ],
                                        "depth": 2,
                                        "id": 5,
                                        "order": 5
                                    },
                                    {
                                        "children": [],
                                        "depth": 2,
                                        "id": 9,
                                        "order": 9
                                    },
                                    {
                                        "children": [],
                                        "depth": 2,
                                        "id": 10,
                                        "order": 10
                                    }
                                ],
                                "depth": 1,
                                "id": 4,
                                "order": 4
                            }
                        ],
                        "depth": 0,
                        "id": 0,
                        "order": 0
                    }
                ],
                "depth": -1,
                "id": -1,
                "order": -1
            }
        ],
        "tidyTraceNodeCount": 8
    },
    "state_change": {
        "stateChanges": [
            {
                "address": "0x37ac54dc7dd237eecfd0b61efdd57b15fe158be0",
                "erc": "ERC-20",
                "slots": [
                    {
                        "current": "0x659192870000000000026b1c6e59d037e4c200000003b8caecdfd5e7b9c1859f",
                        "key": "0x0000000000000000000000000000000000000000000000000000000000000008",
                        "prev": "0x65919287000000000002697816fdebbb645200000003bb51977dedaf30999666"
                    }
                ],
                "storageVariables": [
                    {
                        "name": "reserve0",
                        "type": "uint112",
                        "value": {
                            "current": "4499436202591095560963487",
                            "prev": "4511365093552890159142502",
                            "typeTag": 1
                        }
                    },
                    {
                        "name": "reserve1",
                        "type": "uint112",
                        "value": {
                            "current": "44611653340849759426",
                            "prev": "44493337798444278866",
                            "typeTag": 1
                        }
                    },
                    {
                        "name": "blockTimestampLast",
                        "type": "uint32",
                        "value": {
                            "current": "1704039047",
                            "prev": "1704039047",
                            "typeTag": 1
                        }
                    }
                ]
            },
            {
                "address": "0x7bef710a5759d197ec0bf621c3df802c2d60d848",
                "erc": "ERC-20",
                "slots": [
                    {
                        "current": "0x000000000000000000000000000000000000000000000286aa9e17c776d810c7",
                        "key": "0x8fd4b3707faf114547382104d6ea474bfbc038413273b6803ec025b46f217d41",
                        "prev": "0x0000000000000000000000000000000000000000000000000000000000000000"
                    },
                    {
                        "current": "0x00000000000000000000000000000000000000000003b8caecdfd5e7b9c1859f",
                        "key": "0x56b5940112798b9e5025e86d4aff477c2a285338158418626af3cc9c7d75ec5f",
                        "prev": "0x00000000000000000000000000000000000000000003bb51977dedaf30999666"
                    }
                ],
                "storageVariables": [
                    {
                        "name": "_balances",
                        "type": "mapping(address => uint256)",
                        "value": {
                            "pairs": [
                                {
                                    "key": "0x37ac54dc7dd237eecfd0b61efdd57b15fe158be0",
                                    "value": {
                                        "current": "4499436202591095560963487",
                                        "prev": "4511365093552890159142502",
                                        "typeTag": 1
                                    }
                                },
                                {
                                    "key": "0xa701f9db977c98f9043b20225b4322f94dbd50db",
                                    "value": {
                                        "current": "11928890961794598179015",
                                        "prev": "0",
                                        "typeTag": 1
                                    }
                                }
                            ],
                            "typeTag": 4
                        }
                    }
                ]
            },
            {
                "address": "0xc02aaa39b223fe8d0a0e5c4f27ead9083c756cc2",
                "erc": "ERC-20",
                "slots": [
                    {
                        "current": "0x0000000000000000000000000000000000000000000000026b1c6e59d037e4c2",
                        "key": "0xdb83bf49607030b150aa073e80d962c900ee9db5bb2bbc8296ef41288d59f3ca",
                        "prev": "0x000000000000000000000000000000000000000000000002697816fdebbb6452"
                    },
                    {
                        "current": "0x0000000000000000000000000000000000000000000000015d619d31c2ff24e2",
                        "key": "0xff41fc1a4467012a5b07073cde03267706f20f2b2e49c6972e0b0b071956a000",
                        "prev": "0x0000000000000000000000000000000000000000000000015f05f48da77ba552"
                    }
                ],
                "storageVariables": [
                    {
                        "name": "balanceOf",
                        "type": "mapping(address => uint256)",
                        "value": {
                            "pairs": [
                                {
                                    "key": "0x37ac54dc7dd237eecfd0b61efdd57b15fe158be0",
                                    "value": {
                                        "current": "44611653340849759426",
                                        "prev": "44493337798444278866",
                                        "typeTag": 1
                                    }
                                },
                                {
                                    "key": "0xcb83ca9633ad057bd88a48a5b6e8108d97ad4472",
                                    "value": {
                                        "current": "25175576229028242658",
                                        "prev": "25293891771433723218",
                                        "typeTag": 1
                                    }
                                }
                            ],
                            "typeTag": 4
                        }
                    }
                ]
            }
        ]
    }
}