{
    "balance_change": {
        "balanceChanges": [
            {
                "account": "0xf7f8005862813f49bd89a8edb7085759410df8cc",
                "assets": [
                    {
                        "address": "0x68e54af74b22acaccffa04ccaad13be16ed14eac",
                        "amount": "932.72",
                        "iconUrl": "",
                        "isERC1155": false,
                        "isERC721": false,
                        "sign": false,
                        "value": ""
                    }
                ]
            },
            {
                "account": "0xd397aac69706f73218aeb9130ed50cf8d1c04a6d",
                "assets": [
                    {
                        "address": "0x68e54af74b22acaccffa04ccaad13be16ed14eac",
                        "amount": "932.72",
                        "iconUrl": "",
                        "isERC1155": false,
                        "isERC721": false,
                        "sign": true,
                        "value": ""
                    }
                ]
            }
        ]
    },
    "profile": {
        "basic_info": {
            "baseFee": "",
            "blockNumber": 9029716,
            "callData": "0xa9059cbb000000000000000000000000d397aac69706f73218aeb9130ed50cf8d1c04a6d00000000000000000000000000000000000000000000000000000015b771c600",
            "debugEnable": true,
            "errorInfo": "",
            "eventCount": 1,
            "feeRecipient": "0x52bc44d5378309ee2abf1539bf71de1b7d7be3b5",
            "formatValue": "0",
            "gasLimit": 54466,
            "gasPrice": "30",
            "gasUsed": 36567,
            "intTxnCount": 0,
            "internalRevert": false,
            "internalRevertMessage": "",
            "isContractCreation": false,
            "isFlashloan": false,
            "maxFee": "",
            "nonce": 1,
            "overwritedBlockNumber": -1,
            "priorityFee": "",
            "receiver": "0x68e54af74b22acaccffa04ccaad13be16ed14eac",
            "revertMessage": "",
            "sender": "0xf7f8005862813f49bd89a8edb7085759410df8cc",
            "simulationEnable": true,
            "sourceTxnHash": "0x459f485624bcdd1df1fd126a5e1a6288dde2da828293b93c159520d8a3a21ec4",
            "status": true,
            "timestamp": "2019-12-01T00:58:12Z",
            "transactionFee": "0.00109701",
            "txnHash": "0x459f485624bcdd1df1fd126a5e1a6288dde2da828293b93c159520d8a3a21ec4",
            "txnIndex": 4,
            "type": 0,
            "value": "0"
        },
        "fund_flow": [
            {
                "amount": "932.72",
                "from": "0xf7f8005862813f49bd89a8edb7085759410df8cc",
                "id": 1,
                "isERC1155": false,
                "isERC721": false,
                "isReverted": false,
                "order": 1,
                "to": "0xd397aac69706f73218aeb9130ed50cf8d1c04a6d",
                "token": "0x68e54af74b22acaccffa04ccaad13be16ed14eac"
            }
        ],
        "token_infos": [
            {
                "address": "0x68e54af74b22acaccffa04ccaad13be16ed14eac",
                "decimals": 8
            },
            {
                "address": "0xc02aaa39b223fe8d0a0e5c4f27ead9083c756cc2",
                "decimals": 18
            },
            {
                "address": "0xeeeeeeeeeeeeeeeeeeeeeeeeeeeeeeeeeeeeeeee",
                "decimals": 18
            }
        ]
    },
    "address_label": {
        "labels": [
            {
                "address": "0xeeeeeeeeeeeeeeeeeeeeeeeeeeeeeeeeeeeeeeee",
                "label": "Ether"
            },
            {
                "address": "0x68e54af74b22acaccffa04ccaad13be16ed14eac",
                "label": "WENI (WENI)"
            },
            {
                "address": "0x0000000000000000000000000000000000000001",
                "label": "Precompiled"
            },
            {
                "address": "0x0000000000000000000000000000000000000002",
                "label": "Precompiled"
            },
            {
                "address": "0x0000000000000000000000000000000000000003",
                "label": "Precompiled"
            },
            {
                "address": "0x0000000000000000000000000000000000000004",
                "label": "Precompiled"
            }
        ]
    },
    "trace": {
        "accountLabels": null,
        "dataMap": {
            "-1": {
                "invocation": {
                    "address": "0xf7f8005862813f49bd89a8edb7085759410df8cc",
                    "callData": "",
                    "decodedMethod": null,
                    "errorInfo": "",
                    "fromAddress": "",
                    "gasUsed": 0,
                    "id": -1,
                    "methodDecoded": false,
                    "operation": "",
                    "output": "",
                    "revert": false,
                    "revertMessage": "",
                    "selector": "",
                    "status": false,
                    "value": ""
                },
                "nodeType": 0
            },
            "0": {
                "invocation": {
                    "address": "0x68e54af74b22acaccffa04ccaad13be16ed14eac",
                    "callData": "0x000000000000000000000000d397aac69706f73218aeb9130ed50cf8d1c04a6d00000000000000000000000000000000000000000000000000000015b771c600",
                    "decodedMethod": {
                        "callParams": [
                            {
                                "name": "to",
                                "type": "address",
                                "value": "0xd397aac69706f73218aeb9130ed50cf8d1c04a6d"
                            },
                            {
                                "decimalAvailable": true,
                                "name": "value",
                                "type": "uint256",
                                "value": "93,272,000,000"
                            }
                        ],
                        "constructorArguments": "",
                        "name": "transfer",
                        "returnParams": [
                            {
                                "name": "",
                                "type": "bool",
                                "value": true
                            }
                        ],
                        "signature": "transfer(address,uint256)"
                    },
                    "errorInfo": "",
                    "fromAddress": "0xf7f8005862813f49bd89a8edb7085759410df8cc",
                    "gasUsed": 36567,
                    "id": 0,
                    "methodDecoded": true,
                    "operation": "CALL",
                    "output": "0x0000000000000000000000000000000000000000000000000000000000000001",
                    "revert": false,
                    "revertMessage": "",
                    "selector": "0xa9059cbb",
                    "status": true,
                    "value": "0"
                },
                "nodeType": 0
            },
            "1": {
                "event": {
                    "contract": "0x68e54af74b22acaccffa04ccaad13be16ed14eac",
                    "decodedLog": {
                        "name": "Transfer",
                        "params": [
                            {
                                "name": "from",
                                "type": "address",
                                "value": "0xf7f8005862813f49bd89a8edb7085759410df8cc"
                            },
                            {
                                "name": "to",
                                "type": "address",
                                "value": "0xd397aac69706f73218aeb9130ed50cf8d1c04a6d"
                            },
                            {
                                "decimalAvailable": true,
                                "name": "value",
                                "type": "uint256",
                                "value": "93,272,000,000"
                            }
                        ],
                        "signature": "Transfer(address,address,uint256)"
                    },
                    "id": 1,
                    "logData": "0x00000000000000000000000000000000000000000000000000000015b771c600",
                    "logDecoded": true,
                    "operation": "EVENT",
                    "revert": false,
                    "status": true,
                    "topics": [
                        "0xddf252ad1be2c89b69c2b068fc378daa952ba7f163c4a11628f55a4df523b3ef",
                        "0x000000000000000000000000f7f8005862813f49bd89a8edb7085759410df8cc",
                        "0x000000000000000000000000d397aac69706f73218aeb9130ed50cf8d1c04a6d"
                    ]
                },
                "nodeType": 1
            }
        },
        "gasFlame": [
            {
                "children": [
                    {
                        "children": [
                            {
                                "children": [],
                                "depth": 0,
                                "name": "Initial Gas",
                                "value": 23064
                            },
                            {
                                "children": [],
                                "depth": 0,
                                "name": "Executed Gas",
                                "value": 13503
                            }
                        ],
                        "depth": -1,
                        "name": "Actual Gas Used",
                        "value": 36567
                    },
                    {
                        "children": [],
                        "depth": -1,
                        "name": "Refunded Gas",
                        "value": 0
                    }
                ],
                "depth": -2,
                "name": "Total Gas",
                "value": 36567
            }
        ],
        "isConfirmed": true,
        "mainTrace": [
            {
                "children": [
                    {
                        "children": [
                            {
                                "children": [],
                                "depth": 1,
                                "id": 1,
                                "order": 1
                            }
                        ],
                        "depth": 0,
                        "id": 0,
                        "order": 0
                    }
                ],
                "depth": -1,
                "id": -1,
                "order": -1
            }
        ],
        "mainTraceNodeCount": 2,
        "parentIdMap": {
            "0": -1,
            "1": 0
        },
        "tidyTrace": [
            {
                "children": [
                    {
                        "children": [
                            {
                                "children": [],
                                "depth": 1,
                                "id": 1,
                                "order": 1
                            }
                        ],
                        "depth": 0,
                        "id": 0,
                        "order": 0
                    }
                ],
                "depth": -1,
                "id": -1,
                "order": -1
            }
        ],
        "tidyTraceNodeCount": 2
    },
    "state_change": {
        "stateChanges": [
            {
                "address": "0x68e54af74b22acaccffa04ccaad13be16ed14eac",
                "erc": "ERC-20",
                "slots": [
                    {
                        "current": "0x000000000000000000000000000000000000000000000000000000001dcd6500",
                        "key": "0x017cb1478daa156c41bd8ff3236457e29d413db430e8257a160179af60f33055",
                        "prev": "0x00000000000000000000000000000000000000000000000000000015d53f2b00"
                    },
                    {
                        "current": "0x00000000000000000000000000000000000000000000000000000069b074a300",
                        "key": "0x2f236b13d92ec7fb9849251c03563f2ec14167992445c7d2fa3bc90b1ff02be8",
                        "prev": "0x00000000000000000000000000000000000000000000000000000053f902dd00"
                    }
                ],
                "storageVariables": [
                    {
                        "name": "_balances",
                        "type": "mapping(address => uint256)",
                        "value": {
                            "pairs": [
                                {
                                    "key": "0xd397aac69706f73218aeb9130ed50cf8d1c04a6d",
                                    "value": {
                                        "current": "453932000000",
                                        "prev": "360660000000",
                                        "typeTag": 1
                                    }
                                },
                                {
                                    "key": "0xf7f8005862813f49bd89a8edb7085759410df8cc",
                                    "value": {
                                        "current": "500000000",
                                        "prev": "93772000000",
                                        "typeTag": 1
                                    }
                                }
                            ],
                            "typeTag": 4
                        }
                    }
                ]
            }
        ]
    }
}