{
    "balance_change": {
        "balanceChanges": []
    },
    "profile": {
        "basic_info": {
            "baseFee": "",
            "blockNumber": 11900369,
            "callData": "0x202ee0ed000000000000000000000000000000000000000000000000000000000000365c00000000000000000000000000000000000000000000000000000531621c8505",
            "debugEnable": true,
            "errorInfo": "",
            "eventCount": 3,
            "feeRecipient": "0xea674fdde714fd979de3edf0f56aa9716b898ec8",
            "formatValue": "0",
            "gasLimit": 500000,
            "gasPrice": "123.2",
            "gasUsed": 128950,
            "intTxnCount": 0,
            "internalRevert": false,
            "internalRevertMessage": "",
            "isContractCreation": false,
            "isFlashloan": false,
            "maxFee": "",
            "nonce": 155443,
            "overwritedBlockNumber": -1,
            "priorityFee": "",
            "receiver": "0xf570deefff684d964dc3e15e1f9414283e3f7419",
            "revertMessage": "",
            "sender": "0xef53a3e5e20513a62a1b8072a689b1f8627a5145",
            "simulationEnable": true,
            "sourceTxnHash": "0x457e6242a8ec5251498c2076d244d017139c4411d4afdd5b97e243a8305ffed9",
            "status": true,
            "timestamp": "2021-02-21T12:50:57Z",
            "transactionFee": "0.01588664",
            "txnHash": "0x457e6242a8ec5251498c2076d244d017139c4411d4afdd5b97e243a8305ffed9",
            "txnIndex": 60,
            "type": 0,
            "value": "0"
        },
        "fund_flow": [],
        "token_infos": [
            {
                "address": "0xc02aaa39b223fe8d0a0e5c4f27ead9083c756cc2",
                "decimals": 18
            },
            {
                "address": "0xeeeeeeeeeeeeeeeeeeeeeeeeeeeeeeeeeeeeeeee",
                "decimals": 18
            }
        ]
    },
    "address_label": {
        "labels": [
            {
                "address": "0xeeeeeeeeeeeeeeeeeeeeeeeeeeeeeeeeeeeeeeee",
                "label": "Ether"
            },
            {
                "address": "0xf570deefff684d964dc3e15e1f9414283e3f7419",
                "label": "AccessControlledAggregator"
            },
            {
                "address": "0x0000000000000000000000000000000000000001",
                "label": "Precompiled"
            },
            {
                "address": "0x0000000000000000000000000000000000000002",
                "label": "Precompiled"
            },
            {
                "address": "0x0000000000000000000000000000000000000003",
                "label": "Precompiled"
            },
            {
                "address": "0x0000000000000000000000000000000000000004",
                "label": "Precompiled"
            }
        ]
    },
    "trace": {
        "accountLabels": null,
        "dataMap": {
            "-1": {
                "invocation": {
                    "address": "0xef53a3e5e20513a62a1b8072a689b1f8627a5145",
                    "callData": "",
                    "decodedMethod": null,
                    "errorInfo": "",
                    "fromAddress": "",
                    "gasUsed": 0,
                    "id": -1,
                    "methodDecoded": false,
                    "operation": "",
                    "output": "",
                    "revert": false,
                    "revertMessage": "",
                    "selector": "",
                    "status": false,
                    "value": ""
                },
                "nodeType": 0
            },
            "0": {
                "invocation": {
                    "address": "0xf570deefff684d964dc3e15e1f9414283e3f7419",
                    "callData": "0x000000000000000000000000000000000000000000000000000000000000365c00000000000000000000000000000000000000000000000000000531621c8505",
                    "decodedMethod": {
                        "callParams": [
                            {
                                "name": "_roundId",
                                "type": "uint256",
                                "value": "13,916"
                            },
                            {
                                "name": "_submission",
                                "type": "int256",
                                "value": "5,709,657,572,613"
                            }
                        ],
                        "constructorArguments": "",
                        "name": "submit",
                        "returnParams": [],
                        "signature": "submit(uint256,int256)"
                    },
                    "errorInfo": "",
                    "fromAddress": "0xef53a3e5e20513a62a1b8072a689b1f8627a5145",
                    "gasUsed": 128950,
                    "id": 0,
                    "methodDecoded": true,
                    "operation": "CALL",
                    "output": "",
                    "revert": false,
                    "revertMessage": "",
                    "selector": "0x202ee0ed",
                    "status": true,
                    "value": "0"
                },
                "nodeType": 0
            },
            "1": {
                "event": {
                    "contract": "0xf570deefff684d964dc3e15e1f9414283e3f7419",
                    "decodedLog": {
                        "name": "SubmissionReceived",
                        "params": [
                            {
                                "name": "submission",
                                "type": "int256",
                                "value": "5,709,657,572,613"
                            },
                            {
                                "name": "round",
                                "type": "uint32",
                                "value": "13,916"
                            },
                            {
                                "name": "oracle",
                                "type": "address",
                                "value": "0xef53a3e5e20513a62a1b8072a689b1f8627a5145"
                            }
                        ],
                        "signature": "SubmissionReceived(int256,uint32,address)"
                    },
                    "id": 1,
                    "logData": "0x",
                    "logDecoded": true,
                    "operation": "EVENT",
                    "revert": false,
                    "status": true,
                    "topics": [
                        "0x92e98423f8adac6e64d0608e519fd1cefb861498385c6dee70d58fc926ddc68c",
                        "0x00000000000000000000000000000000000000000000000000000531621c8505",
                        "0x000000000000000000000000000000000000000000000000000000000000365c",
                        "0x000000000000000000000000ef53a3e5e20513a62a1b8072a689b1f8627a5145"
                    ]
                },
                "nodeType": 1
            },
            "2": {
                "event": {
                    "contract": "0xf570deefff684d964dc3e15e1f9414283e3f7419",
                    "decodedLog": {
                        "name": "AnswerUpdated",
                        "params": [
                            {
                                "name": "current",
                                "type": "int256",
                                "value": "5,699,346,569,721"
                            },
                            {
                                "name": "roundId",
                                "type": "uint256",
                                "value": "13,916"
                            },
                            {
                                "name": "updatedAt",
                                "type": "uint256",
                                "value": "1,613,911,857"
                            }
                        ],
                        "signature": "AnswerUpdated(int256,uint256,uint256)"
                    },
                    "id": 2,
                    "logData": "0x0000000000000000000000000000000000000000000000000000000060325731",
                    "logDecoded": true,
                    "operation": "EVENT",
                    "revert": false,
                    "status": true,
                    "topics": [
                        "0x0559884fd3a460db3073b7fc896cc77986f16e378210ded43186175bf646fc5f",
                        "0x0000000000000000000000000000000000000000000000000000052efb8719f9",
                        "0x000000000000000000000000000000000000000000000000000000000000365c"
                    ]
                },
                "nodeType": 1
            },
            "3": {
                "event": {
                    "contract": "0xf570deefff684d964dc3e15e1f9414283e3f7419",
                    "decodedLog": {
                        "name": "AvailableFundsUpdated",
                        "params": [
                            {
                                "name": "amount",
                                "type": "uint256",
                                "value": "21,406,220,000,000,000,000,000"
                            }
                        ],
                        "signature": "AvailableFundsUpdated(uint256)"
                    },
                    "id": 3,
                    "logData": "0x",
                    "logDecoded": true,
                    "operation": "EVENT",
                    "revert": false,
                    "status": true,
                    "topics": [
                        "0xfe25c73e3b9089fac37d55c4c7efcba6f04af04cebd2fc4d6d7dbb07e1e5234f",
                        "0x0000000000000000000000000000000000000000000004886efa9afc564e0000"
                    ]
                },
                "nodeType": 1
            }
        },
        "gasFlame": [
            {
                "children": [
                    {
                        "children": [
                            {
                                "children": [],
                                "depth": 0,
                                "name": "Initial Gas",
                                "value": 21416
                            },
                            {
                                "children": [],
                                "depth": 0,
                                "name": "Executed Gas",
                                "value": 107534
                            }
                        ],
                        "depth": -1,
                        "name": "Actual Gas Used",
                        "value": 128950
                    },
                    {
                        "children": [],
                        "depth": -1,
                        "name": "Refunded Gas",
                        "value": 0
                    }
                ],
                "depth": -2,
                "name": "Total Gas",
                "value": 128950
            }
        ],
        "isConfirmed": true,
        "mainTrace": [
            {
                "children": [
                    {
                        "children": [
                            {
                                "children": [],
                                "depth": 1,
                                "id": 1,
                                "order": 1
                            },
                            {
                                "children": [],
                                "depth": 1,
                                "id": 2,
                                "order": 2
                            },
                            {
                                "children": [],
                                "depth": 1,
                                "id": 3,
                                "order": 3
                            }
                        ],
                        "depth": 0,
                        "id": 0,
                        "order": 0
                    }
                ],
                "depth": -1,
                "id": -1,
                "order": -1
            }
        ],
        "mainTraceNodeCount": 4,
        "parentIdMap": {
            "0": -1,
            "1": 0,
            "2": 0,
            "3": 0
        },
        "tidyTrace": [
            {
                "children": [
                    {
                        "children": [
                            {
                                "children": [],
                                "depth": 1,
                                "id": 1,
                                "order": 1
                            },
                            {
                                "children": [],
                                "depth": 1,
                                "id": 2,
                                "order": 2
                            },
                            {
                                "children": [],
                                "depth": 1,
                                "id": 3,
                                "order": 3
                            }
                        ],
                        "depth": 0,
                        "id": 0,
                        "order": 0
                    }
                ],
                "depth": -1,
                "id": -1,
                "order": -1
            }
        ],
        "tidyTraceNodeCount": 4
    },
    "state_change": {
        "stateChanges": [
            {
                "address": "0xf570deefff684d964dc3e15e1f9414283e3f7419",
                "erc": "",
                "slots": [
                    {
                        "current": "0x0000000000000000000000000000000000000000000000000000052efb8719f9",
                        "key": "0xd5ebe1670fc2cea0783fa8e78b182e4cb58b434cf8aee159443a8eea1d3cf1b0",
                        "prev": "0x0000000000000000000000000000000000000000000000000000000000000000"
                    },
                    {
                        "current": "0x0000000000000000000000000000365c00000000603257310000000060325718",
                        "key": "0xd5ebe1670fc2cea0783fa8e78b182e4cb58b434cf8aee159443a8eea1d3cf1b1",
                        "prev": "0x0000000000000000000000000000000000000000000000000000000060325718"
                    },
                    {
                        "current": "0x0000000000000000000000000000000000000000000000000000365c0000365c",
                        "key": "0x0000000000000000000000000000000000000000000000000000000000000007",
                        "prev": "0x0000000000000000000000000000000000000000000000000000365b0000365c"
                    },
                    {
                        "current": "0x0000000000000154f7ad55877d6e000000000000000004886efa9afc564e0000",
                        "key": "0x000000000000000000000000000000000000000000000000000000000000000d",
                        "prev": "0x0000000000000154e36a5f43c15c00000000000000000488833d914012600000"
                    },
                    {
                        "current": "0x0000000000000000000000000000000000000000000000000000000000000008",
                        "key": "0xb7f50a426b9dbf30027aacb102088308b31ee6c9939ac95e3af36fa3d933db0e",
                        "prev": "0x0000000000000000000000000000000000000000000000000000000000000007"
                    },
                    {
                        "current": "0x00000000000000000000000000000000000000000000000000000531621c8505",
                        "key": "0x4c42bc55dc22e4f9ae8c45580ffa1a3a8e1d70f782ca1fee7f1f08533456ea6f",
                        "prev": "0x0000000000000000000000000000000000000000000000000000000000000000"
                    },
                    {
                        "current": "0x0000363d0000365cffffffff00000051000000000000002885ec877824000000",
                        "key": "0x0805f6afde4cde90b5799732bb4dac679d5332a045762f7b4985b26e5cc6dd40",
                        "prev": "0x0000363d0000365bffffffff00000051000000000000002871a9913467ee0000"
                    },
                    {
                        "current": "0x00000000000000000000000000000000000000000000000000000531621c8505",
                        "key": "0x0805f6afde4cde90b5799732bb4dac679d5332a045762f7b4985b26e5cc6dd41",
                        "prev": "0x000000000000000000000000000000000000000000000000000005359d69ad7a"
                    }
                ],
                "storageVariables": [
                    {
                        "name": "recordedFunds",
                        "type": "struct FluxAggregator.Funds",
                        "value": {
                            "fields": [
                                {
                                    "name": "available",
                                    "type": "uint128",
                                    "value": {
                                        "current": "21406220000000000000000",
                                        "prev": "21407680000000000000000",
                                        "typeTag": 1
                                    }
                                },
                                {
                                    "name": "allocated",
                                    "type": "uint128",
                                    "value": {
                                        "current": "6289740000000000000000",
                                        "prev": "6288280000000000000000",
                                        "typeTag": 1
                                    }
                                }
                            ],
                            "typeTag": 3
                        }
                    },
                    {
                        "name": "details",
                        "type": "mapping(uint32 => struct FluxAggregator.RoundDetails)",
                        "value": {
                            "pairs": [
                                {
                                    "key": "13916",
                                    "value": {
                                        "fields": [
                                            {
                                                "name": "submissions",
                                                "type": "int256[]",
                                                "value": {
                                                    "elemType": "int256",
                                                    "elems": [
                                                        {
                                                            "index": 7,
                                                            "value": {
                                                                "current": "5709657572613",
                                                                "prev": "0",
                                                                "typeTag": 1
                                                            }
                                                        }
                                                    ],
                                                    "typeTag": 2
                                                }
                                            }
                                        ],
                                        "typeTag": 3
                                    }
                                }
                            ],
                            "typeTag": 4
                        }
                    },
                    {
                        "name": "oracles",
                        "type": "mapping(address => struct FluxAggregator.OracleStatus)",
                        "value": {
                            "pairs": [
                                {
                                    "key": "0xef53a3e5e20513a62a1b8072a689b1f8627a5145",
                                    "value": {
                                        "fields": [
                                            {
                                                "name": "withdrawable",
                                                "type": "uint128",
                                                "value": {
                                                    "current": "747520000000000000000",
                                                    "prev": "746060000000000000000",
                                                    "typeTag": 1
                                                }
                                            },
                                            {
                                                "name": "startingRound",
                                                "type": "uint32",
                                                "value": {
                                                    "current": "81",
                                                    "prev": "81",
                                                    "typeTag": 1
                                                }
                                            },
                                            {
                                                "name": "endingRound",
                                                "type": "uint32",
                                                "value": {
                                                    "current": "4294967295",
                                                    "prev": "4294967295",
                                                    "typeTag": 1
                                                }
                                            },
                                            {
                                                "name": "lastReportedRound",
                                                "type": "uint32",
                                                "value": {
                                                    "current": "13916",
                                                    "prev": "13915",
                                                    "typeTag": 1
                                                }
                                            },
                                            {
                                                "name": "lastStartedRound",
                                                "type": "uint32",
                                                "value": {
                                                    "current": "13885",
                                                    "prev": "13885",
                                                    "typeTag": 1
                                                }
                                            },
                                            {
                                                "name": "latestSubmission",
                                                "type": "int256",
                                                "value": {
                                                    "current": "5709657572613",
                                                    "prev": "5727832354170",
                                                    "typeTag": 1
                                                }
                                            }
                                        ],
                                        "typeTag": 3
                                    }
                                }
                            ],
                            "typeTag": 4
                        }
                    },
                    {
                        "name": "rounds",
                        "type": "mapping(uint32 => struct FluxAggregator.Round)",
                        "value": {
                            "pairs": [
                                {
                                    "key": "13916",
                                    "value": {
                                        "fields": [
                                            {
                                                "name": "answer",
                                                "type": "int256",
                                                "value": {
                                                    "current": "5699346569721",
                                                    "prev": "0",
                                                    "typeTag": 1
                                                }
                                            },
                                            {
                                                "name": "startedAt",
                                                "type": "uint64",
                                                "value": {
                                                    "current": "1613911832",
                                                    "prev": "1613911832",
                                                    "typeTag": 1
                                                }
                                            },
                                            {
                                                "name": "updatedAt",
                                                "type": "uint64",
                                                "value": {
                                                    "current": "1613911857",
                                                    "prev": "0",
                                                    "typeTag": 1
                                                }
                                            },
                                            {
                                                "name": "answeredInRound",
                                                "type": "uint32",
                                                "value": {
                                                    "current": "13916",
                                                    "prev": "0",
                                                    "typeTag": 1
                                                }
                                            }
                                        ],
                                        "typeTag": 3
                                    }
                                }
                            ],
                            "typeTag": 4
                        }
                    },
                    {
                        "name": "reportingRoundId",
                        "type": "uint32",
                        "value": {
                            "current": "13916",
                            "prev": "13916",
                            "typeTag": 1
                        }
                    },
                    {
                        "name": "latestRoundId",
                        "type": "uint32",
                        "value": {
                            "current": "13916",
                            "prev": "13915",
                            "typeTag": 1
                        }
                    }
                ]
            }
        ]
    }
}