{
    "balance_change": {
        "balanceChanges": [
            {
                "account": "0x19bac67934c922229959d0ad9cd9d9b9f7f0bf06",
                "assets": [
                    {
                        "address": "0xfe0c30065b384f05761f15d0cc899d4f9f9cc0eb",
                        "amount": "175.1",
                        "iconUrl": "",
                        "isERC1155": false,
                        "isERC721": false,
                        "sign": false,
                        "value": "555.06699999999998757"
                    }
                ]
            },
            {
                "account": "0xb7955d8d7eecb4d4a0f1f23512cc399fc052ec27",
                "assets": [
                    {
                        "address": "0xfe0c30065b384f05761f15d0cc899d4f9f9cc0eb",
                        "amount": "175.1",
                        "iconUrl": "",
                        "isERC1155": false,
                        "isERC721": false,
                        "sign": true,
                        "value": "555.06699999999998757"
                    }
                ]
            }
        ]
    },
    "profile": {
        "basic_info": {
            "baseFee": "36.906710656",
            "blockNumber": 19464292,
            "callData": "0xa9059cbb000000000000000000000000b7955d8d7eecb4d4a0f1f23512cc399fc052ec270000000000000000000000000000000000000000000000097e002a47cae60000",
            "debugEnable": true,
            "errorInfo": "",
            "eventCount": 1,
            "feeRecipient": "0xdafea492d9c6733ae3d56b7ed1adb60692c98bc5",
            "formatValue": "0",
            "gasLimit": 84864,
            "gasPrice": "36.916604154",
            "gasUsed": 51557,
            "intTxnCount": 0,
            "internalRevert": false,
            "internalRevertMessage": "",
            "isContractCreation": false,
            "isFlashloan": false,
            "maxFee": "57.220023439",
            "nonce": 76,
            "overwritedBlockNumber": -1,
            "priorityFee": "0.009893498",
            "receiver": "0xfe0c30065b384f05761f15d0cc899d4f9f9cc0eb",
            "revertMessage": "",
            "sender": "0x19bac67934c922229959d0ad9cd9d9b9f7f0bf06",
            "simulationEnable": true,
            "sourceTxnHash": "0x45d93663750522409c78b388e5dcfc06be4b3358b2c07554480603822b9ce5f3",
            "status": true,
            "timestamp": "2024-03-18T21:17:23Z",
            "transactionFee": "0.001903309360367778",
            "txnHash": "0x45d93663750522409c78b388e5dcfc06be4b3358b2c07554480603822b9ce5f3",
            "txnIndex": 190,
            "type": 2,
            "value": "0"
        },
        "fund_flow": [
            {
                "amount": "175.1",
                "from": "0x19bac67934c922229959d0ad9cd9d9b9f7f0bf06",
                "id": 1,
                "isERC1155": false,
                "isERC721": false,
                "isReverted": false,
                "order": 1,
                "to": "0xb7955d8d7eecb4d4a0f1f23512cc399fc052ec27",
                "token": "0xfe0c30065b384f05761f15d0cc899d4f9f9cc0eb"
            }
        ],
        "token_infos": [
            {
                "address": "0xc02aaa39b223fe8d0a0e5c4f27ead9083c756cc2",
                "decimals": 18
            },
            {
                "address": "0xfe0c30065b384f05761f15d0cc899d4f9f9cc0eb",
                "decimals": 18
            },
            {
                "address": "0xeeeeeeeeeeeeeeeeeeeeeeeeeeeeeeeeeeeeeeee",
                "decimals": 18
            }
        ]
    },
    "address_label": {
        "labels": [
            {
                "address": "0xfe0c30065b384f05761f15d0cc899d4f9f9cc0eb",
                "label": "Ether.fi: ETHFI Token"
            },
            {
                "address": "0x0000000000000000000000000000000000000001",
                "label": "Precompiled"
            },
            {
                "address": "0x0000000000000000000000000000000000000002",
                "label": "Precompiled"
            },
            {
                "address": "0x0000000000000000000000000000000000000003",
                "label": "Precompiled"
            },
            {
                "address": "0x0000000000000000000000000000000000000004",
                "label": "Precompiled"
            },
            {
                "address": "0xeeeeeeeeeeeeeeeeeeeeeeeeeeeeeeeeeeeeeeee",
                "label": "Ether"
            }
        ]
    },
    "trace": {
        "accountLabels": null,
        "dataMap": {
            "-1": {
                "invocation": {
                    "address": "0x19bac67934c922229959d0ad9cd9d9b9f7f0bf06",
                    "callData": "",
                    "decodedMethod": null,
                    "errorInfo": "",
                    "fromAddress": "",
                    "gasUsed": 0,
                    "id": -1,
                    "methodDecoded": false,
                    "operation": "",
                    "output": "",
                    "revert": false,
                    "revertMessage": "",
                    "selector": "",
                    "status": false,
                    "value": ""
                },
                "nodeType": 0
            },
            "0": {
                "invocation": {
                    "address": "0xfe0c30065b384f05761f15d0cc899d4f9f9cc0eb",
                    "callData": "0x000000000000000000000000b7955d8d7eecb4d4a0f1f23512cc399fc052ec270000000000000000000000000000000000000000000000097e002a47cae60000",
                    "decodedMethod": {
                        "callParams": [
                            {
                                "name": "to",
                                "type": "address",
                                "value": "0xb7955d8d7eecb4d4a0f1f23512cc399fc052ec27"
                            },
                            {
                                "decimalAvailable": true,
                                "name": "value",
                                "type": "uint256",
                                "value": "175,100,000,000,000,000,000"
                            }
                        ],
                        "constructorArguments": "",
                        "name": "transfer",
                        "returnParams": [
                            {
                                "name": "",
                                "type": "bool",
                                "value": true
                            }
                        ],
                        "signature": "transfer(address,uint256)"
                    },
                    "errorInfo": "",
                    "fromAddress": "0x19bac67934c922229959d0ad9cd9d9b9f7f0bf06",
                    "gasUsed": 51557,
                    "id": 0,
                    "methodDecoded": true,
                    "operation": "CALL",
                    "output": "0x0000000000000000000000000000000000000000000000000000000000000001",
                    "revert": false,
                    "revertMessage": "",
                    "selector": "0xa9059cbb",
                    "status": true,
                    "value": "0"
                },
                "nodeType": 0
            },
            "1": {
                "event": {
                    "contract": "0xfe0c30065b384f05761f15d0cc899d4f9f9cc0eb",
                    "decodedLog": {
                        "name": "Transfer",
                        "params": [
                            {
                                "name": "from",
                                "type": "address",
                                "value": "0x19bac67934c922229959d0ad9cd9d9b9f7f0bf06"
                            },
                            {
                                "name": "to",
                                "type": "address",
                                "value": "0xb7955d8d7eecb4d4a0f1f23512cc399fc052ec27"
                            },
                            {
                                "decimalAvailable": true,
                                "name": "value",
                                "type": "uint256",
                                "value": "175,100,000,000,000,000,000"
                            }
                        ],
                        "signature": "Transfer(address,address,uint256)"
                    },
                    "id": 1,
                    "logData": "0x0000000000000000000000000000000000000000000000097e002a47cae60000",
                    "logDecoded": true,
                    "operation": "EVENT",
                    "revert": false,
                    "status": true,
                    "topics": [
                        "0xddf252ad1be2c89b69c2b068fc378daa952ba7f163c4a11628f55a4df523b3ef",
                        "0x00000000000000000000000019bac67934c922229959d0ad9cd9d9b9f7f0bf06",
                        "0x000000000000000000000000b7955d8d7eecb4d4a0f1f23512cc399fc052ec27"
                    ]
                },
                "nodeType": 1
            }
        },
        "gasFlame": [
            {
                "children": [
                    {
                        "children": [
                            {
                                "children": [],
                                "depth": 0,
                                "name": "Initial Gas",
                                "value": 21632
                            },
                            {
                                "children": [],
                                "depth": 0,
                                "name": "Executed Gas",
                                "value": 34725
                            }
                        ],
                        "depth": -1,
                        "name": "Actual Gas Used",
                        "value": 51557
                    },
                    {
                        "children": [],
                        "depth": -1,
                        "name": "Refunded Gas",
                        "value": 4800
                    }
                ],
                "depth": -2,
                "name": "Total Gas",
                "value": 56357
            }
        ],
        "isConfirmed": true,
        "mainTrace": [
            {
                "children": [
                    {
                        "children": [
                            {
                                "children": [],
                                "depth": 1,
                                "id": 1,
                                "order": 1
                            }
                        ],
                        "depth": 0,
                        "id": 0,
                        "order": 0
                    }
                ],
                "depth": -1,
                "id": -1,
                "order": -1
            }
        ],
        "mainTraceNodeCount": 2,
        "parentIdMap": {
            "0": -1,
            "1": 0
        },
        "tidyTrace": [
            {
                "children": [
                    {
                        "children": [
                            {
                                "children": [],
                                "depth": 1,
                                "id": 1,
                                "order": 1
                            }
                        ],
                        "depth": 0,
                        "id": 0,
                        "order": 0
                    }
                ],
                "depth": -1,
                "id": -1,
                "order": -1
            }
        ],
        "tidyTraceNodeCount": 2
    },
    "state_change": {
        "stateChanges": [
            {
                "address": "0xfe0c30065b384f05761f15d0cc899d4f9f9cc0eb",
                "erc": "ERC-20",
                "slots": [
                    {
                        "current": "0x0000000000000000000000000000000000000000000000000000000000000000",
                        "key": "0xf7ddc7bd803fbe7d328072fb3599abf53455e4b7f812796bbf6f121f75a1206d",
                        "prev": "0x0000000000000000000000000000000000000000000000097e002a47cae60000"
                    },
                    {
                        "current": "0x0000000000000000000000000000000000000000000000097e002a47cae60000",
                        "key": "0x381f9f419140ff37022bb58476a5480bb029b6fa738c3081d5cfe9affa863d01",
                        "prev": "0x0000000000000000000000000000000000000000000000000000000000000000"
                    }
                ],
                "storageVariables": [
                    {
                        "name": "_balances",
                        "type": "mapping(address => uint256)",
                        "value": {
                            "pairs": [
                                {
                                    "key": "0x19bac67934c922229959d0ad9cd9d9b9f7f0bf06",
                                    "value": {
                                        "current": "0",
                                        "prev": "175100000000000000000",
                                        "typeTag": 1
                                    }
                                },
                                {
                                    "key": "0xb7955d8d7eecb4d4a0f1f23512cc399fc052ec27",
                                    "value": {
                                        "current": "175100000000000000000",
                                        "prev": "0",
                                        "typeTag": 1
                                    }
                                }
                            ],
                            "typeTag": 4
                        }
                    }
                ]
            }
        ]
    }
}