{
    "balance_change": {
        "balanceChanges": [
            {
                "account": "0x1151314c646ce4e0efd76d1af4760ae66a9fe30f",
                "assets": [
                    {
                        "address": "0x7c5a0ce9267ed19b22f8cae653f198e3e8daf098",
                        "amount": "19.9",
                        "iconUrl": "https://assets.blocksec.com/icon/dfbdf7bf2a4ddd9df5d2986ca162c6012710eec1ee534a0e94f5f9e2fc880aef.png",
                        "isERC1155": false,
                        "isERC721": false,
                        "sign": false,
                        "value": ""
                    }
                ]
            },
            {
                "account": "0x0fc9053333a0db48708e956edc964cad6f40a33f",
                "assets": [
                    {
                        "address": "0x7c5a0ce9267ed19b22f8cae653f198e3e8daf098",
                        "amount": "19.9",
                        "iconUrl": "https://assets.blocksec.com/icon/dfbdf7bf2a4ddd9df5d2986ca162c6012710eec1ee534a0e94f5f9e2fc880aef.png",
                        "isERC1155": false,
                        "isERC721": false,
                        "sign": true,
                        "value": ""
                    }
                ]
            }
        ]
    },
    "profile": {
        "basic_info": {
            "baseFee": "",
            "blockNumber": 4148474,
            "callData": "0xa9059cbb0000000000000000000000000fc9053333a0db48708e956edc964cad6f40a33f000000000000000000000000000000000000000000000001142b0090b6460000",
            "debugEnable": true,
            "errorInfo": "",
            "eventCount": 1,
            "feeRecipient": "0x2a65aca4d5fc5b5c859090a6c34d164135398226",
            "formatValue": "0",
            "gasLimit": 120000,
            "gasPrice": "35.5",
            "gasUsed": 52443,
            "intTxnCount": 0,
            "internalRevert": false,
            "internalRevertMessage": "",
            "isContractCreation": false,
            "isFlashloan": false,
            "maxFee": "",
            "nonce": 115791,
            "overwritedBlockNumber": -1,
            "priorityFee": "",
            "receiver": "0x7c5a0ce9267ed19b22f8cae653f198e3e8daf098",
            "revertMessage": "",
            "sender": "0x1151314c646ce4e0efd76d1af4760ae66a9fe30f",
            "simulationEnable": true,
            "sourceTxnHash": "0x455894c2f6a3f52bc1610b749948a63a568e1d60058728696f2d2c640ccbdb56",
            "status": true,
            "timestamp": "2017-08-12T12:25:51Z",
            "transactionFee": "0.0018617265",
            "txnHash": "0x455894c2f6a3f52bc1610b749948a63a568e1d60058728696f2d2c640ccbdb56",
            "txnIndex": 6,
            "type": 0,
            "value": "0"
        },
        "fund_flow": [
            {
                "amount": "19.9",
                "from": "0x1151314c646ce4e0efd76d1af4760ae66a9fe30f",
                "id": 1,
                "isERC1155": false,
                "isERC721": false,
                "isReverted": false,
                "order": 1,
                "to": "0x0fc9053333a0db48708e956edc964cad6f40a33f",
                "token": "0x7c5a0ce9267ed19b22f8cae653f198e3e8daf098"
            }
        ],
        "token_infos": [
            {
                "address": "0x7c5a0ce9267ed19b22f8cae653f198e3e8daf098",
                "decimals": 18
            },
            {
                "address": "0xc02aaa39b223fe8d0a0e5c4f27ead9083c756cc2",
                "decimals": 18
            },
            {
                "address": "0xeeeeeeeeeeeeeeeeeeeeeeeeeeeeeeeeeeeeeeee",
                "decimals": 18
            }
        ]
    },
    "address_label": {
        "labels": [
            {
                "address": "0xeeeeeeeeeeeeeeeeeeeeeeeeeeeeeeeeeeeeeeee",
                "label": "Ether"
            },
            {
                "address": "0x1151314c646ce4e0efd76d1af4760ae66a9fe30f",
                "label": "Bitfinex 1"
            },
            {
                "address": "0x7c5a0ce9267ed19b22f8cae653f198e3e8daf098",
                "label": "Santiment Token"
            },
            {
                "address": "0x0000000000000000000000000000000000000001",
                "label": "Precompiled"
            },
            {
                "address": "0x0000000000000000000000000000000000000002",
                "label": "Precompiled"
            },
            {
                "address": "0x0000000000000000000000000000000000000003",
                "label": "Precompiled"
            },
            {
                "address": "0x0000000000000000000000000000000000000004",
                "label": "Precompiled"
            }
        ]
    },
    "trace": {
        "accountLabels": null,
        "dataMap": {
            "-1": {
                "invocation": {
                    "address": "0x1151314c646ce4e0efd76d1af4760ae66a9fe30f",
                    "callData": "",
                    "decodedMethod": null,
                    "errorInfo": "",
                    "fromAddress": "",
                    "gasUsed": 0,
                    "id": -1,
                    "methodDecoded": false,
                    "operation": "",
                    "output": "",
                    "revert": false,
                    "revertMessage": "",
                    "selector": "",
                    "status": false,
                    "value": ""
                },
                "nodeType": 0
            },
            "0": {
                "invocation": {
                    "address": "0x7c5a0ce9267ed19b22f8cae653f198e3e8daf098",
                    "callData": "0x0000000000000000000000000fc9053333a0db48708e956edc964cad6f40a33f000000000000000000000000000000000000000000000001142b0090b6460000",
                    "decodedMethod": {
                        "callParams": [
                            {
                                "name": "_to",
                                "type": "address",
                                "value": "0x0fc9053333a0db48708e956edc964cad6f40a33f"
                            },
                            {
                                "decimalAvailable": true,
                                "name": "_value",
                                "type": "uint256",
                                "value": "19,900,000,000,000,000,000"
                            }
                        ],
                        "constructorArguments": "",
                        "name": "transfer",
                        "returnParams": [
                            {
                                "name": "success",
                                "type": "bool",
                                "value": true
                            }
                        ],
                        "signature": "transfer(address,uint256)"
                    },
                    "errorInfo": "",
                    "fromAddress": "0x1151314c646ce4e0efd76d1af4760ae66a9fe30f",
                    "gasUsed": 52443,
                    "id": 0,
                    "methodDecoded": true,
                    "operation": "CALL",
                    "output": "0x0000000000000000000000000000000000000000000000000000000000000001",
                    "revert": false,
                    "revertMessage": "",
                    "selector": "0xa9059cbb",
                    "status": true,
                    "value": "0"
                },
                "nodeType": 0
            },
            "1": {
                "event": {
                    "contract": "0x7c5a0ce9267ed19b22f8cae653f198e3e8daf098",
                    "decodedLog": {
                        "name": "Transfer",
                        "params": [
                            {
                                "name": "_from",
                                "type": "address",
                                "value": "0x1151314c646ce4e0efd76d1af4760ae66a9fe30f"
                            },
                            {
                                "name": "_to",
                                "type": "address",
                                "value": "0x0fc9053333a0db48708e956edc964cad6f40a33f"
                            },
                            {
                                "decimalAvailable": true,
                                "name": "_value",
                                "type": "uint256",
                                "value": "19,900,000,000,000,000,000"
                            }
                        ],
                        "signature": "Transfer(address,address,uint256)"
                    },
                    "id": 1,
                    "logData": "0x000000000000000000000000000000000000000000000001142b0090b6460000",
                    "logDecoded": true,
                    "operation": "EVENT",
                    "revert": false,
                    "status": true,
                    "topics": [
                        "0xddf252ad1be2c89b69c2b068fc378daa952ba7f163c4a11628f55a4df523b3ef",
                        "0x0000000000000000000000001151314c646ce4e0efd76d1af4760ae66a9fe30f",
                        "0x0000000000000000000000000fc9053333a0db48708e956edc964cad6f40a33f"
                    ]
                },
                "nodeType": 1
            }
        },
        "gasFlame": [
            {
                "children": [
                    {
                        "children": [
                            {
                                "children": [],
                                "depth": 0,
                                "name": "Initial Gas",
                                "value": 23192
                            },
                            {
                                "children": [],
                                "depth": 0,
                                "name": "Executed Gas",
                                "value": 29251
                            }
                        ],
                        "depth": -1,
                        "name": "Actual Gas Used",
                        "value": 52443
                    },
                    {
                        "children": [],
                        "depth": -1,
                        "name": "Refunded Gas",
                        "value": 0
                    }
                ],
                "depth": -2,
                "name": "Total Gas",
                "value": 52443
            }
        ],
        "isConfirmed": true,
        "mainTrace": [
            {
                "children": [
                    {
                        "children": [
                            {
                                "children": [],
                                "depth": 1,
                                "id": 1,
                                "order": 1
                            }
                        ],
                        "depth": 0,
                        "id": 0,
                        "order": 0
                    }
                ],
                "depth": -1,
                "id": -1,
                "order": -1
            }
        ],
        "mainTraceNodeCount": 2,
        "parentIdMap": {
            "0": -1,
            "1": 0
        },
        "tidyTrace": [
            {
                "children": [
                    {
                        "children": [
                            {
                                "children": [],
                                "depth": 1,
                                "id": 1,
                                "order": 1
                            }
                        ],
                        "depth": 0,
                        "id": 0,
                        "order": 0
                    }
                ],
                "depth": -1,
                "id": -1,
                "order": -1
            }
        ],
        "tidyTraceNodeCount": 2
    },
    "state_change": {
        "stateChanges": [
            {
                "address": "0x7c5a0ce9267ed19b22f8cae653f198e3e8daf098",
                "erc": "ERC-20",
                "slots": [
                    {
                        "current": "0x000000000000000000000000000000000000000000021265c6dcdba42da7c56b",
                        "key": "0x851ed43bb0f867d788fbe1e3d05c99009474d9f6a2f407f64aa2b63c6d8a2fbc",
                        "prev": "0x000000000000000000000000000000000000000000021266db07dc34e3edc56b"
                    },
                    {
                        "current": "0x000000000000000000000000000000000000000000000001142b0090b6460000",
                        "key": "0xe988693e2fa6eab0565dab426257f8cb23c4f12473ca6e47161e81d227244a26",
                        "prev": "0x0000000000000000000000000000000000000000000000000000000000000000"
                    }
                ],
                "storageVariables": []
            }
        ]
    }
}