{
    "balance_change": {
        "balanceChanges": []
    },
    "profile": {
        "basic_info": {
            "baseFee": "",
            "blockNumber": 11897076,
            "callData": "0x4ab0d1908c98ebeff3224bb7598b2705109e143c5148af016f0916da1cbc0542b3cb9f090000000000000000000000000000000000000000000000000a688906bd8b000000000000000000000000000028e0fd8e05c14034cba95c6bf3394d1b106f7ed86a9705b400000000000000000000000000000000000000000000000000000000000000000000000000000000000000000000000000000000000000006031a74c000000000000000000000000000000000000000000000000000000000058ad3a",
            "debugEnable": true,
            "errorInfo": "",
            "eventCount": 2,
            "feeRecipient": "0xea674fdde714fd979de3edf0f56aa9716b898ec8",
            "formatValue": "0",
            "gasLimit": 500000,
            "gasPrice": "193",
            "gasUsed": 54519,
            "intTxnCount": 1,
            "internalRevert": false,
            "internalRevertMessage": "",
            "isContractCreation": false,
            "isFlashloan": false,
            "maxFee": "",
            "nonce": 345022,
            "overwritedBlockNumber": -1,
            "priorityFee": "",
            "receiver": "0x240bae5a27233fd3ac5440b5a598467725f7d1cd",
            "revertMessage": "",
            "sender": "0x501698a6f6f762c79e4d28e3815c135e3f9af996",
            "simulationEnable": true,
            "sourceTxnHash": "0x4612c43b6925c6afdff7665f2c53e0d177945d32aad81c9201700d6bd56f55e2",
            "status": true,
            "timestamp": "2021-02-21T00:15:37Z",
            "transactionFee": "0.010522167",
            "txnHash": "0x4612c43b6925c6afdff7665f2c53e0d177945d32aad81c9201700d6bd56f55e2",
            "txnIndex": 44,
            "type": 0,
            "value": "0"
        },
        "fund_flow": [],
        "token_infos": [
            {
                "address": "0xc02aaa39b223fe8d0a0e5c4f27ead9083c756cc2",
                "decimals": 18
            },
            {
                "address": "0xeeeeeeeeeeeeeeeeeeeeeeeeeeeeeeeeeeeeeeee",
                "decimals": 18
            }
        ]
    },
    "address_label": {
        "labels": [
            {
                "address": "0x28e0fd8e05c14034cba95c6bf3394d1b106f7ed8",
                "label": "Aggregator"
            },
            {
                "address": "0x0000000000000000000000000000000000000001",
                "label": "Precompiled"
            },
            {
                "address": "0x0000000000000000000000000000000000000002",
                "label": "Precompiled"
            },
            {
                "address": "0x0000000000000000000000000000000000000003",
                "label": "Precompiled"
            },
            {
                "address": "0x0000000000000000000000000000000000000004",
                "label": "Precompiled"
            },
            {
                "address": "0xeeeeeeeeeeeeeeeeeeeeeeeeeeeeeeeeeeeeeeee",
                "label": "Ether"
            },
            {
                "address": "0x240bae5a27233fd3ac5440b5a598467725f7d1cd",
                "label": "Oracle"
            }
        ]
    },
    "trace": {
        "accountLabels": null,
        "dataMap": {
            "-1": {
                "invocation": {
                    "address": "0x501698a6f6f762c79e4d28e3815c135e3f9af996",
                    "callData": "",
                    "decodedMethod": null,
                    "errorInfo": "",
                    "fromAddress": "",
                    "gasUsed": 0,
                    "id": -1,
                    "methodDecoded": false,
                    "operation": "",
                    "output": "",
                    "revert": false,
                    "revertMessage": "",
                    "selector": "",
                    "status": false,
                    "value": ""
                },
                "nodeType": 0
            },
            "0": {
                "invocation": {
                    "address": "0x240bae5a27233fd3ac5440b5a598467725f7d1cd",
                    "callData": "0x8c98ebeff3224bb7598b2705109e143c5148af016f0916da1cbc0542b3cb9f090000000000000000000000000000000000000000000000000a688906bd8b000000000000000000000000000028e0fd8e05c14034cba95c6bf3394d1b106f7ed86a9705b400000000000000000000000000000000000000000000000000000000000000000000000000000000000000000000000000000000000000006031a74c000000000000000000000000000000000000000000000000000000000058ad3a",
                    "decodedMethod": {
                        "callParams": [
                            {
                                "name": "_requestId",
                                "type": "bytes32",
                                "value": "0x8c98ebeff3224bb7598b2705109e143c5148af016f0916da1cbc0542b3cb9f09"
                            },
                            {
                                "name": "_payment",
                                "type": "uint256",
                                "value": "750,000,000,000,000,000"
                            },
                            {
                                "name": "_callbackAddress",
                                "type": "address",
                                "value": "0x28e0fd8e05c14034cba95c6bf3394d1b106f7ed8"
                            },
                            {
                                "name": "_callbackFunctionId",
                                "type": "bytes4",
                                "value": "0x6a9705b4"
                            },
                            {
                                "name": "_expiration",
                                "type": "uint256",
                                "value": "1,613,866,828"
                            },
                            {
                                "name": "_data",
                                "type": "bytes32",
                                "value": "0x000000000000000000000000000000000000000000000000000000000058ad3a"
                            }
                        ],
                        "constructorArguments": "",
                        "name": "fulfillOracleRequest",
                        "returnParams": [
                            {
                                "name": "",
                                "type": "bool",
                                "value": true
                            }
                        ],
                        "signature": "fulfillOracleRequest(bytes32,uint256,address,bytes4,uint256,bytes32)"
                    },
                    "errorInfo": "",
                    "fromAddress": "0x501698a6f6f762c79e4d28e3815c135e3f9af996",
                    "gasUsed": 54519,
                    "id": 0,
                    "methodDecoded": true,
                    "operation": "CALL",
                    "output": "0x0000000000000000000000000000000000000000000000000000000000000001",
                    "revert": false,
                    "revertMessage": "",
                    "selector": "0x4ab0d190",
                    "status": true,
                    "value": "0"
                },
                "nodeType": 0
            },
            "1": {
                "invocation": {
                    "address": "0x28e0fd8e05c14034cba95c6bf3394d1b106f7ed8",
                    "callData": "0x8c98ebeff3224bb7598b2705109e143c5148af016f0916da1cbc0542b3cb9f09000000000000000000000000000000000000000000000000000000000058ad3a",
                    "decodedMethod": {
                        "callParams": [
                            {
                                "name": "_clRequestId",
                                "type": "bytes32",
                                "value": "0x8c98ebeff3224bb7598b2705109e143c5148af016f0916da1cbc0542b3cb9f09"
                            },
                            {
                                "name": "_response",
                                "type": "int256",
                                "value": "5,811,514"
                            }
                        ],
                        "constructorArguments": "",
                        "name": "chainlinkCallback",
                        "returnParams": [],
                        "signature": "chainlinkCallback(bytes32,int256)"
                    },
                    "errorInfo": "",
                    "fromAddress": "0x240bae5a27233fd3ac5440b5a598467725f7d1cd",
                    "gasUsed": 60918,
                    "id": 1,
                    "methodDecoded": true,
                    "operation": "CALL",
                    "output": "",
                    "revert": false,
                    "revertMessage": "",
                    "selector": "0x6a9705b4",
                    "status": true,
                    "value": "0"
                },
                "nodeType": 0
            },
            "2": {
                "event": {
                    "contract": "0x28e0fd8e05c14034cba95c6bf3394d1b106f7ed8",
                    "decodedLog": {
                        "name": "ChainlinkFulfilled",
                        "params": [
                            {
                                "name": "id",
                                "type": "bytes32",
                                "value": "0x8c98ebeff3224bb7598b2705109e143c5148af016f0916da1cbc0542b3cb9f09"
                            }
                        ],
                        "signature": "ChainlinkFulfilled(bytes32)"
                    },
                    "id": 2,
                    "logData": "0x",
                    "logDecoded": true,
                    "operation": "EVENT",
                    "revert": false,
                    "status": true,
                    "topics": [
                        "0x7cc135e0cebb02c3480ae5d74d377283180a2601f8f644edf7987b009316c63a",
                        "0x8c98ebeff3224bb7598b2705109e143c5148af016f0916da1cbc0542b3cb9f09"
                    ]
                },
                "nodeType": 1
            },
            "3": {
                "event": {
                    "contract": "0x28e0fd8e05c14034cba95c6bf3394d1b106f7ed8",
                    "decodedLog": {
                        "name": "ResponseReceived",
                        "params": [
                            {
                                "name": "response",
                                "type": "int256",
                                "value": "5,811,514"
                            },
                            {
                                "name": "answerId",
                                "type": "uint256",
                                "value": "717"
                            },
                            {
                                "name": "sender",
                                "type": "address",
                                "value": "0x240bae5a27233fd3ac5440b5a598467725f7d1cd"
                            }
                        ],
                        "signature": "ResponseReceived(int256,uint256,address)"
                    },
                    "id": 3,
                    "logData": "0x",
                    "logDecoded": true,
                    "operation": "EVENT",
                    "revert": false,
                    "status": true,
                    "topics": [
                        "0xb51168059c83c860caf5b830c5d2e64c2172c6fb2fe9f25447d9838e18d93b60",
                        "0x000000000000000000000000000000000000000000000000000000000058ad3a",
                        "0x00000000000000000000000000000000000000000000000000000000000002cd",
                        "0x000000000000000000000000240bae5a27233fd3ac5440b5a598467725f7d1cd"
                    ]
                },
                "nodeType": 1
            }
        },
        "gasFlame": [
            {
                "children": [
                    {
                        "children": [
                            {
                                "children": [],
                                "depth": 0,
                                "name": "Initial Gas",
                                "value": 22660
                            },
                            {
                                "children": [
                                    {
                                        "children": [],
                                        "depth": 1,
                                        "name": "chainlinkCallback",
                                        "value": 60918
                                    }
                                ],
                                "depth": 0,
                                "name": "Executed Gas",
                                "value": 76859
                            }
                        ],
                        "depth": -1,
                        "name": "Actual Gas Used",
                        "value": 54519
                    },
                    {
                        "children": [],
                        "depth": -1,
                        "name": "Refunded Gas",
                        "value": 45000
                    }
                ],
                "depth": -2,
                "name": "Total Gas",
                "value": 99519
            }
        ],
        "isConfirmed": true,
        "mainTrace": [
            {
                "children": [
                    {
                        "children": [
                            {
                                "children": [
                                    {
                                        "children": [],
                                        "depth": 2,
                                        "id": 2,
                                        "order": 2
                                    },
                                    {
                                        "children": [],
                                        "depth": 2,
                                        "id": 3,
                                        "order": 3
                                    }
                                ],
                                "depth": 1,
                                "id": 1,
                                "order": 1
                            }
                        ],
                        "depth": 0,
                        "id": 0,
                        "order": 0
                    }
                ],
                "depth": -1,
                "id": -1,
                "order": -1
            }
        ],
        "mainTraceNodeCount": 4,
        "parentIdMap": {
            "0": -1,
            "1": 0,
            "2": 1,
            "3": 1
        },
        "tidyTrace": [
            {
                "children": [
                    {
                        "children": [
                            {
                                "children": [
                                    {
                                        "children": [],
                                        "depth": 2,
                                        "id": 2,
                                        "order": 2
                                    },
                                    {
                                        "children": [],
                                        "depth": 2,
                                        "id": 3,
                                        "order": 3
                                    }
                                ],
                                "depth": 1,
                                "id": 1,
                                "order": 1
                            }
                        ],
                        "depth": 0,
                        "id": 0,
                        "order": 0
                    }
                ],
                "depth": -1,
                "id": -1,
                "order": -1
            }
        ],
        "tidyTraceNodeCount": 4
    },
    "state_change": {
        "stateChanges": [
            {
                "address": "0x240bae5a27233fd3ac5440b5a598467725f7d1cd",
                "erc": "",
                "slots": [
                    {
                        "current": "0x00000000000000000000000000000000000000000000001ad33126ed63cb5552",
                        "key": "0x0000000000000000000000000000000000000000000000000000000000000004",
                        "prev": "0x00000000000000000000000000000000000000000000001ac8c89de6a6405552"
                    },
                    {
                        "current": "0x0000000000000000000000000000000000000000000000000000000000000000",
                        "key": "0x29ec2fa7dc5dd1a08b85e5b4a8d9ad46752617af2019f33094ebc28d5c22d745",
                        "prev": "0xee16df63b0dece8634541b6a65bae79f919577f4ffa1c7f3be2f3162a1e7a919"
                    }
                ],
                "storageVariables": [
                    {
                        "name": "commitments",
                        "type": "mapping(bytes32 => bytes32)",
                        "value": {
                            "pairs": [
                                {
                                    "key": "0x8c98ebeff3224bb7598b2705109e143c5148af016f0916da1cbc0542b3cb9f09",
                                    "value": {
                                        "current": "0x0000000000000000000000000000000000000000000000000000000000000000",
                                        "prev": "0xee16df63b0dece8634541b6a65bae79f919577f4ffa1c7f3be2f3162a1e7a919",
                                        "typeTag": 1
                                    }
                                }
                            ],
                            "typeTag": 4
                        }
                    },
                    {
                        "name": "withdrawableTokens",
                        "type": "uint256",
                        "value": {
                            "current": "494833333333333333330",
                            "prev": "494083333333333333330",
                            "typeTag": 1
                        }
                    }
                ]
            },
            {
                "address": "0x28e0fd8e05c14034cba95c6bf3394d1b106f7ed8",
                "erc": "",
                "slots": [
                    {
                        "current": "0x0000000000000000000000000000000000000000000000000000000000000000",
                        "key": "0xec9ff81c4f3125d27d0f46e78b53fa1c261328ecbad37fbf7d623448f77b9e63",
                        "prev": "0x000000000000000000000000240bae5a27233fd3ac5440b5a598467725f7d1cd"
                    },
                    {
                        "current": "0x0000000000000000000000000000000000000000000000000000000000000000",
                        "key": "0xd082629bd8de03629af68bfc44e2876fbdd01ec73980b5d4bf6d3aa19ced5fba",
                        "prev": "0x00000000000000000000000000000000000000000000000000000000000002cd"
                    },
                    {
                        "current": "0x0000000000000000000000000000000000000000000000000000000000000001",
                        "key": "0xe6d41218f81ef4e0076cf4cb3b33097c50c58863f297c434b1a25d2a57b5e653",
                        "prev": "0x0000000000000000000000000000000000000000000000000000000000000000"
                    },
                    {
                        "current": "0x000000000000000000000000000000000000000000000000000000000058ad3a",
                        "key": "0xacec137048215286915731b14084626836f1a60db9aaa82a0296c0fb93415e0e",
                        "prev": "0x0000000000000000000000000000000000000000000000000000000000000000"
                    }
                ],
                "storageVariables": [
                    {
                        "name": "answers",
                        "type": "mapping(uint256 => struct Aggregator.Answer)",
                        "value": {
                            "pairs": [
                                {
                                    "key": "717",
                                    "value": {
                                        "fields": [
                                            {
                                                "name": "responses",
                                                "type": "int256[]",
                                                "value": {
                                                    "elemType": "int256",
                                                    "elems": [
                                                        {
                                                            "index": 0,
                                                            "value": {
                                                                "current": "5811514",
                                                                "prev": "0",
                                                                "typeTag": 1
                                                            }
                                                        }
                                                    ],
                                                    "typeTag": 2
                                                }
                                            }
                                        ],
                                        "typeTag": 3
                                    }
                                }
                            ],
                            "typeTag": 4
                        }
                    },
                    {
                        "name": "pendingRequests",
                        "type": "mapping(bytes32 => address)",
                        "value": {
                            "pairs": [
                                {
                                    "key": "0x8c98ebeff3224bb7598b2705109e143c5148af016f0916da1cbc0542b3cb9f09",
                                    "value": {
                                        "current": "0x0000000000000000000000000000000000000000",
                                        "prev": "0x240bae5a27233fd3ac5440b5a598467725f7d1cd",
                                        "typeTag": 1
                                    }
                                }
                            ],
                            "typeTag": 4
                        }
                    },
                    {
                        "name": "requestAnswers",
                        "type": "mapping(bytes32 => uint256)",
                        "value": {
                            "pairs": [
                                {
                                    "key": "0x8c98ebeff3224bb7598b2705109e143c5148af016f0916da1cbc0542b3cb9f09",
                                    "value": {
                                        "current": "0",
                                        "prev": "717",
                                        "typeTag": 1
                                    }
                                }
                            ],
                            "typeTag": 4
                        }
                    }
                ]
            }
        ]
    }
}