{
    "balance_change": {
        "balanceChanges": [
            {
                "account": "0xed150fb73edac50f5aab1ffa6c1483c0f5b2a564",
                "assets": [
                    {
                        "address": "0xc059a531b4234d05e9ef4ac51028f7e6156e2cce",
                        "amount": "77.09",
                        "iconUrl": "",
                        "isERC1155": false,
                        "isERC721": false,
                        "sign": true,
                        "value": "1.9812130000000000478"
                    },
                    {
                        "address": "0xb131f4a55907b10d1f0a50d8ab8fa09ec342cd74",
                        "amount": "77.09",
                        "iconUrl": "",
                        "isERC1155": false,
                        "isERC721": false,
                        "sign": false,
                        "value": "1.9812130000000000478"
                    }
                ]
            },
            {
                "account": "0xc059a531b4234d05e9ef4ac51028f7e6156e2cce",
                "assets": [
                    {
                        "address": "0xb131f4a55907b10d1f0a50d8ab8fa09ec342cd74",
                        "amount": "77.09",
                        "iconUrl": "",
                        "isERC1155": false,
                        "isERC721": false,
                        "sign": true,
                        "value": "1.9812130000000000478"
                    }
                ]
            },
            {
                "account": "0x0000000000000000000000000000000000000000",
                "assets": [
                    {
                        "address": "0xc059a531b4234d05e9ef4ac51028f7e6156e2cce",
                        "amount": "77.09",
                        "iconUrl": "",
                        "isERC1155": false,
                        "isERC721": false,
                        "sign": false,
                        "value": "1.9812130000000000478"
                    }
                ]
            }
        ]
    },
    "profile": {
        "basic_info": {
            "baseFee": "2.648729313",
            "blockNumber": 19899674,
            "callData": "0xd6b8f5000000000000000000000000000000000000000000000000042dd6b28f46dd000000000000000000000000000000000000000000000000000000000000000000600000000000000000000000000000000000000000000000000000000000000080000000000000000000000000000000000000000000000000000000000000000000000000000000000000000000000000000000000000000000000000000000a00000000000000000000000000000000000000000000000042dd6b28f46dd0000000000000000000000000000000000000000000000000000000000006649cd93000000000000000000000000000000000000000000000000000000000000001b8b90d2c3c800b91ea619b017089692b9bcd6740f52f54355a68861d98c640268374c0ec744fd854d6e4a690b06d3d006fdf52bd4da3367451d2f4fe71e0fe4ab",
            "debugEnable": true,
            "errorInfo": "",
            "eventCount": 5,
            "feeRecipient": "0x95222290dd7278aa3ddd389cc1e1d165cc4bafe5",
            "formatValue": "0",
            "gasLimit": 149009,
            "gasPrice": "2.676109503",
            "gasUsed": 116881,
            "intTxnCount": 6,
            "internalRevert": false,
            "internalRevertMessage": "",
            "isContractCreation": false,
            "isFlashloan": false,
            "maxFee": "3",
            "nonce": 0,
            "overwritedBlockNumber": -1,
            "priorityFee": "0.02738019",
            "receiver": "0xc059a531b4234d05e9ef4ac51028f7e6156e2cce",
            "revertMessage": "",
            "sender": "0xed150fb73edac50f5aab1ffa6c1483c0f5b2a564",
            "simulationEnable": true,
            "sourceTxnHash": "0x46c5c61c61f58e28a3eb90bff516a01122c041ffc3e5a6ddb6cd2eb861a45c46",
            "status": true,
            "timestamp": "2024-05-18T22:00:59Z",
            "transactionFee": "0.000312786354820143",
            "txnHash": "0x46c5c61c61f58e28a3eb90bff516a01122c041ffc3e5a6ddb6cd2eb861a45c46",
            "txnIndex": 294,
            "type": 2,
            "value": "0"
        },
        "fund_flow": [
            {
                "amount": "77.09",
                "from": "0xed150fb73edac50f5aab1ffa6c1483c0f5b2a564",
                "id": 1,
                "isERC1155": false,
                "isERC721": false,
                "isReverted": false,
                "order": 1,
                "to": "0xc059a531b4234d05e9ef4ac51028f7e6156e2cce",
                "token": "0xb131f4a55907b10d1f0a50d8ab8fa09ec342cd74"
            },
            {
                "amount": "77.09",
                "from": "0x0000000000000000000000000000000000000000",
                "id": 2,
                "isERC1155": false,
                "isERC721": false,
                "isReverted": false,
                "order": 2,
                "to": "0xed150fb73edac50f5aab1ffa6c1483c0f5b2a564",
                "token": "0xc059a531b4234d05e9ef4ac51028f7e6156e2cce"
            }
        ],
        "token_infos": [
            {
                "address": "0xb131f4a55907b10d1f0a50d8ab8fa09ec342cd74",
                "decimals": 18
            },
            {
                "address": "0xc02aaa39b223fe8d0a0e5c4f27ead9083c756cc2",
                "decimals": 18
            },
            {
                "address": "0xc059a531b4234d05e9ef4ac51028f7e6156e2cce",
                "decimals": 18
            },
            {
                "address": "0xeeeeeeeeeeeeeeeeeeeeeeeeeeeeeeeeeeeeeeee",
                "decimals": 18
            }
        ]
    },
    "address_label": {
        "labels": [
            {
                "address": "0x0000000000000000000000000000000000000001",
                "label": "Precompiled"
            },
            {
                "address": "0xb131f4a55907b10d1f0a50d8ab8fa09ec342cd74",
                "label": "Memecoin: MEME Token"
            },
            {
                "address": "0x319e9a7a3d4cf01625379e3c75ef7ae2e70960b2",
                "label": "MemecoinStaking"
            },
            {
                "address": "0x0000000000000000000000000000000000000002",
                "label": "Precompiled"
            },
            {
                "address": "0x0000000000000000000000000000000000000003",
                "label": "Precompiled"
            },
            {
                "address": "0x0000000000000000000000000000000000000004",
                "label": "Precompiled"
            },
            {
                "address": "0xeeeeeeeeeeeeeeeeeeeeeeeeeeeeeeeeeeeeeeee",
                "label": "Ether"
            },
            {
                "address": "0x32c1f663919102dc032dc3c22fe434af686f3b15",
                "label": "Memecoin: Delegate"
            },
            {
                "address": "0xc059a531b4234d05e9ef4ac51028f7e6156e2cce",
                "label": "Memecoin: Staked Memecoin Token"
            }
        ]
    },
    "trace": {
        "accountLabels": null,
        "dataMap": {
            "-1": {
                "invocation": {
                    "address": "0xed150fb73edac50f5aab1ffa6c1483c0f5b2a564",
                    "callData": "",
                    "decodedMethod": null,
                    "errorInfo": "",
                    "fromAddress": "",
                    "gasUsed": 0,
                    "id": -1,
                    "methodDecoded": false,
                    "operation": "",
                    "output": "",
                    "revert": false,
                    "revertMessage": "",
                    "selector": "",
                    "status": false,
                    "value": ""
                },
                "nodeType": 0
            },
            "0": {
                "invocation": {
                    "address": "0xc059a531b4234d05e9ef4ac51028f7e6156e2cce",
                    "callData": "0x0000000000000000000000000000000000000000000000042dd6b28f46dd000000000000000000000000000000000000000000000000000000000000000000600000000000000000000000000000000000000000000000000000000000000080000000000000000000000000000000000000000000000000000000000000000000000000000000000000000000000000000000000000000000000000000000a00000000000000000000000000000000000000000000000042dd6b28f46dd0000000000000000000000000000000000000000000000000000000000006649cd93000000000000000000000000000000000000000000000000000000000000001b8b90d2c3c800b91ea619b017089692b9bcd6740f52f54355a68861d98c640268374c0ec744fd854d6e4a690b06d3d006fdf52bd4da3367451d2f4fe71e0fe4ab",
                    "decodedMethod": {
                        "callParams": [
                            {
                                "name": "amount",
                                "type": "uint256",
                                "value": "77,090,000,000,000,000,000"
                            },
                            {
                                "name": "rewards",
                                "type": "(uint256,uint256,bytes32[])[]",
                                "value": []
                            },
                            {
                                "name": "permit",
                                "type": "bytes",
                                "value": "0x0000000000000000000000000000000000000000000000042dd6b28f46dd0000000000000000000000000000000000000000000000000000000000006649cd93000000000000000000000000000000000000000000000000000000000000001b8b90d2c3c800b91ea619b017089692b9bcd6740f52f54355a68861d98c640268374c0ec744fd854d6e4a690b06d3d006fdf52bd4da3367451d2f4fe71e0fe4ab"
                            }
                        ],
                        "constructorArguments": "",
                        "name": "stake",
                        "returnParams": [],
                        "signature": "stake(uint256,(uint256,uint256,bytes32[])[],bytes)"
                    },
                    "errorInfo": "",
                    "fromAddress": "0xed150fb73edac50f5aab1ffa6c1483c0f5b2a564",
                    "gasUsed": 116881,
                    "id": 0,
                    "methodDecoded": true,
                    "operation": "CALL",
                    "output": "",
                    "revert": false,
                    "revertMessage": "",
                    "selector": "0xd6b8f500",
                    "status": true,
                    "value": "0"
                },
                "nodeType": 0
            },
            "1": {
                "invocation": {
                    "address": "0x319e9a7a3d4cf01625379e3c75ef7ae2e70960b2",
                    "callData": "0x0000000000000000000000000000000000000000000000042dd6b28f46dd000000000000000000000000000000000000000000000000000000000000000000600000000000000000000000000000000000000000000000000000000000000080000000000000000000000000000000000000000000000000000000000000000000000000000000000000000000000000000000000000000000000000000000a00000000000000000000000000000000000000000000000042dd6b28f46dd0000000000000000000000000000000000000000000000000000000000006649cd93000000000000000000000000000000000000000000000000000000000000001b8b90d2c3c800b91ea619b017089692b9bcd6740f52f54355a68861d98c640268374c0ec744fd854d6e4a690b06d3d006fdf52bd4da3367451d2f4fe71e0fe4ab",
                    "decodedMethod": {
                        "callParams": [
                            {
                                "name": "amount",
                                "type": "uint256",
                                "value": "77,090,000,000,000,000,000"
                            },
                            {
                                "name": "rewards",
                                "type": "(uint256,uint256,bytes32[])[]",
                                "value": []
                            },
                            {
                                "name": "permit",
                                "type": "bytes",
                                "value": "0x0000000000000000000000000000000000000000000000042dd6b28f46dd0000000000000000000000000000000000000000000000000000000000006649cd93000000000000000000000000000000000000000000000000000000000000001b8b90d2c3c800b91ea619b017089692b9bcd6740f52f54355a68861d98c640268374c0ec744fd854d6e4a690b06d3d006fdf52bd4da3367451d2f4fe71e0fe4ab"
                            }
                        ],
                        "constructorArguments": "",
                        "name": "stake",
                        "returnParams": [],
                        "signature": "stake(uint256,(uint256,uint256,bytes32[])[],bytes)"
                    },
                    "errorInfo": "",
                    "fromAddress": "0xc059a531b4234d05e9ef4ac51028f7e6156e2cce",
                    "gasUsed": 116083,
                    "id": 1,
                    "methodDecoded": true,
                    "operation": "DELEGATECALL",
                    "output": "",
                    "revert": false,
                    "revertMessage": "",
                    "selector": "0xd6b8f500",
                    "status": true,
                    "value": "0"
                },
                "nodeType": 0
            },
            "10": {
                "event": {
                    "contract": "0xc059a531b4234d05e9ef4ac51028f7e6156e2cce",
                    "decodedLog": {
                        "name": "Transfer",
                        "params": [
                            {
                                "name": "from",
                                "type": "address",
                                "value": "0x0000000000000000000000000000000000000000"
                            },
                            {
                                "name": "to",
                                "type": "address",
                                "value": "0xed150fb73edac50f5aab1ffa6c1483c0f5b2a564"
                            },
                            {
                                "decimalAvailable": true,
                                "name": "value",
                                "type": "uint256",
                                "value": "77,090,000,000,000,000,000"
                            }
                        ],
                        "signature": "Transfer(address,address,uint256)"
                    },
                    "id": 10,
                    "logData": "0x0000000000000000000000000000000000000000000000042dd6b28f46dd0000",
                    "logDecoded": true,
                    "operation": "EVENT",
                    "revert": false,
                    "status": true,
                    "topics": [
                        "0xddf252ad1be2c89b69c2b068fc378daa952ba7f163c4a11628f55a4df523b3ef",
                        "0x0000000000000000000000000000000000000000000000000000000000000000",
                        "0x000000000000000000000000ed150fb73edac50f5aab1ffa6c1483c0f5b2a564"
                    ]
                },
                "nodeType": 1
            },
            "11": {
                "event": {
                    "contract": "0xc059a531b4234d05e9ef4ac51028f7e6156e2cce",
                    "decodedLog": {
                        "name": "Staked",
                        "params": [
                            {
                                "name": "user",
                                "type": "address",
                                "value": "0xed150fb73edac50f5aab1ffa6c1483c0f5b2a564"
                            },
                            {
                                "name": "amount",
                                "type": "uint256",
                                "value": "77,090,000,000,000,000,000"
                            },
                            {
                                "name": "timestamp",
                                "type": "uint256",
                                "value": "1,716,069,659"
                            }
                        ],
                        "signature": "Staked(address,uint256,uint256)"
                    },
                    "id": 11,
                    "logData": "0x0000000000000000000000000000000000000000000000042dd6b28f46dd0000000000000000000000000000000000000000000000000000000000006649251b",
                    "logDecoded": true,
                    "operation": "EVENT",
                    "revert": false,
                    "status": true,
                    "topics": [
                        "0x1449c6dd7851abc30abf37f57715f492010519147cc2652fbc38202c18a6ee90",
                        "0x000000000000000000000000ed150fb73edac50f5aab1ffa6c1483c0f5b2a564"
                    ]
                },
                "nodeType": 1
            },
            "2": {
                "invocation": {
                    "address": "0x32c1f663919102dc032dc3c22fe434af686f3b15",
                    "callData": "0x",
                    "decodedMethod": {
                        "callParams": [],
                        "constructorArguments": "",
                        "name": "memecoin",
                        "returnParams": [
                            {
                                "name": "",
                                "type": "address",
                                "value": "0xb131f4a55907b10d1f0a50d8ab8fa09ec342cd74"
                            }
                        ],
                        "signature": "memecoin()"
                    },
                    "errorInfo": "",
                    "fromAddress": "0xc059a531b4234d05e9ef4ac51028f7e6156e2cce",
                    "gasUsed": 205,
                    "id": 2,
                    "methodDecoded": true,
                    "operation": "STATICCALL",
                    "output": "0x000000000000000000000000b131f4a55907b10d1f0a50d8ab8fa09ec342cd74",
                    "revert": false,
                    "revertMessage": "",
                    "selector": "0x1a37ea11",
                    "status": true,
                    "value": "0"
                },
                "nodeType": 0
            },
            "3": {
                "invocation": {
                    "address": "0xb131f4a55907b10d1f0a50d8ab8fa09ec342cd74",
                    "callData": "0x000000000000000000000000ed150fb73edac50f5aab1ffa6c1483c0f5b2a56400000000000000000000000032c1f663919102dc032dc3c22fe434af686f3b150000000000000000000000000000000000000000000000042dd6b28f46dd0000000000000000000000000000000000000000000000000000000000006649cd93000000000000000000000000000000000000000000000000000000000000001b8b90d2c3c800b91ea619b017089692b9bcd6740f52f54355a68861d98c640268374c0ec744fd854d6e4a690b06d3d006fdf52bd4da3367451d2f4fe71e0fe4ab",
                    "decodedMethod": {
                        "callParams": [
                            {
                                "name": "owner",
                                "type": "address",
                                "value": "0xed150fb73edac50f5aab1ffa6c1483c0f5b2a564"
                            },
                            {
                                "name": "spender",
                                "type": "address",
                                "value": "0x32c1f663919102dc032dc3c22fe434af686f3b15"
                            },
                            {
                                "name": "value",
                                "type": "uint256",
                                "value": "77,090,000,000,000,000,000"
                            },
                            {
                                "name": "deadline",
                                "type": "uint256",
                                "value": "1,716,112,787"
                            },
                            {
                                "name": "v",
                                "type": "uint8",
                                "value": "27"
                            },
                            {
                                "name": "r",
                                "type": "bytes32",
                                "value": "0x8b90d2c3c800b91ea619b017089692b9bcd6740f52f54355a68861d98c640268"
                            },
                            {
                                "name": "s",
                                "type": "bytes32",
                                "value": "0x374c0ec744fd854d6e4a690b06d3d006fdf52bd4da3367451d2f4fe71e0fe4ab"
                            }
                        ],
                        "constructorArguments": "",
                        "name": "permit",
                        "returnParams": [],
                        "signature": "permit(address,address,uint256,uint256,uint8,bytes32,bytes32)"
                    },
                    "errorInfo": "",
                    "fromAddress": "0xc059a531b4234d05e9ef4ac51028f7e6156e2cce",
                    "gasUsed": 53573,
                    "id": 3,
                    "methodDecoded": true,
                    "operation": "CALL",
                    "output": "",
                    "revert": false,
                    "revertMessage": "",
                    "selector": "0xd505accf",
                    "status": true,
                    "value": "0"
                },
                "nodeType": 0
            },
            "4": {
                "invocation": {
                    "address": "0x0000000000000000000000000000000000000001",
                    "callData": "0x10a087b7b6c35a7279627292667d524e0e56bc5db1511d251145e2c5000000000000000000000000000000000000000000000000000000000000001b8b90d2c3c800b91ea619b017089692b9bcd6740f52f54355a68861d98c640268374c0ec744fd854d6e4a690b06d3d006fdf52bd4da3367451d2f4fe71e0fe4ab",
                    "decodedMethod": {
                        "callParams": [
                            {
                                "name": "hash",
                                "type": "bytes32",
                                "value": "0x366500b610a087b7b6c35a7279627292667d524e0e56bc5db1511d251145e2c5"
                            },
                            {
                                "name": "v",
                                "type": "uint256",
                                "value": "27"
                            },
                            {
                                "name": "r",
                                "type": "bytes32",
                                "value": "0x8b90d2c3c800b91ea619b017089692b9bcd6740f52f54355a68861d98c640268"
                            },
                            {
                                "name": "s",
                                "type": "bytes32",
                                "value": "0x374c0ec744fd854d6e4a690b06d3d006fdf52bd4da3367451d2f4fe71e0fe4ab"
                            }
                        ],
                        "constructorArguments": "",
                        "name": "ecrecover",
                        "returnParams": [
                            {
                                "name": "",
                                "type": "address",
                                "value": "0xed150fb73edac50f5aab1ffa6c1483c0f5b2a564"
                            }
                        ],
                        "signature": "ecrecover(bytes32,uint256,bytes32,bytes32)"
                    },
                    "errorInfo": "",
                    "fromAddress": "0xb131f4a55907b10d1f0a50d8ab8fa09ec342cd74",
                    "gasUsed": 3000,
                    "id": 4,
                    "methodDecoded": true,
                    "operation": "STATICCALL",
                    "output": "0x000000000000000000000000ed150fb73edac50f5aab1ffa6c1483c0f5b2a564",
                    "revert": false,
                    "revertMessage": "",
                    "selector": "0x366500b6",
                    "status": true,
                    "value": "0"
                },
                "nodeType": 0
            },
            "5": {
                "event": {
                    "contract": "0xb131f4a55907b10d1f0a50d8ab8fa09ec342cd74",
                    "decodedLog": {
                        "name": "Approval",
                        "params": [
                            {
                                "name": "owner",
                                "type": "address",
                                "value": "0xed150fb73edac50f5aab1ffa6c1483c0f5b2a564"
                            },
                            {
                                "name": "spender",
                                "type": "address",
                                "value": "0x32c1f663919102dc032dc3c22fe434af686f3b15"
                            },
                            {
                                "decimalAvailable": true,
                                "name": "value",
                                "type": "uint256",
                                "value": "77,090,000,000,000,000,000"
                            }
                        ],
                        "signature": "Approval(address,address,uint256)"
                    },
                    "id": 5,
                    "logData": "0x0000000000000000000000000000000000000000000000042dd6b28f46dd0000",
                    "logDecoded": true,
                    "operation": "EVENT",
                    "revert": false,
                    "status": true,
                    "topics": [
                        "0x8c5be1e5ebec7d5bd14f71427d1e84f3dd0314c0f7b2291e5b200ac8c7c3b925",
                        "0x000000000000000000000000ed150fb73edac50f5aab1ffa6c1483c0f5b2a564",
                        "0x00000000000000000000000032c1f663919102dc032dc3c22fe434af686f3b15"
                    ]
                },
                "nodeType": 1
            },
            "6": {
                "invocation": {
                    "address": "0x32c1f663919102dc032dc3c22fe434af686f3b15",
                    "callData": "0x000000000000000000000000ed150fb73edac50f5aab1ffa6c1483c0f5b2a564000000000000000000000000c059a531b4234d05e9ef4ac51028f7e6156e2cce0000000000000000000000000000000000000000000000042dd6b28f46dd0000",
                    "decodedMethod": {
                        "callParams": [
                            {
                                "name": "from",
                                "type": "address",
                                "value": "0xed150fb73edac50f5aab1ffa6c1483c0f5b2a564"
                            },
                            {
                                "name": "to",
                                "type": "address",
                                "value": "0xc059a531b4234d05e9ef4ac51028f7e6156e2cce"
                            },
                            {
                                "decimalAvailable": true,
                                "name": "amount",
                                "type": "uint256",
                                "value": "77,090,000,000,000,000,000"
                            }
                        ],
                        "constructorArguments": "",
                        "name": "transferFrom",
                        "returnParams": [
                            {
                                "name": "",
                                "type": "bool",
                                "value": true
                            }
                        ],
                        "signature": "transferFrom(address,address,uint256)"
                    },
                    "errorInfo": "",
                    "fromAddress": "0xc059a531b4234d05e9ef4ac51028f7e6156e2cce",
                    "gasUsed": 18652,
                    "id": 6,
                    "methodDecoded": true,
                    "operation": "CALL",
                    "output": "0x0000000000000000000000000000000000000000000000000000000000000001",
                    "revert": false,
                    "revertMessage": "",
                    "selector": "0x23b872dd",
                    "status": true,
                    "value": "0"
                },
                "nodeType": 0
            },
            "7": {
                "invocation": {
                    "address": "0xb131f4a55907b10d1f0a50d8ab8fa09ec342cd74",
                    "callData": "0x000000000000000000000000ed150fb73edac50f5aab1ffa6c1483c0f5b2a564000000000000000000000000c059a531b4234d05e9ef4ac51028f7e6156e2cce0000000000000000000000000000000000000000000000042dd6b28f46dd0000",
                    "decodedMethod": {
                        "callParams": [
                            {
                                "name": "from",
                                "type": "address",
                                "value": "0xed150fb73edac50f5aab1ffa6c1483c0f5b2a564"
                            },
                            {
                                "name": "to",
                                "type": "address",
                                "value": "0xc059a531b4234d05e9ef4ac51028f7e6156e2cce"
                            },
                            {
                                "decimalAvailable": true,
                                "name": "amount",
                                "type": "uint256",
                                "value": "77,090,000,000,000,000,000"
                            }
                        ],
                        "constructorArguments": "",
                        "name": "transferFrom",
                        "returnParams": [
                            {
                                "name": "",
                                "type": "bool",
                                "value": true
                            }
                        ],
                        "signature": "transferFrom(address,address,uint256)"
                    },
                    "errorInfo": "",
                    "fromAddress": "0x32c1f663919102dc032dc3c22fe434af686f3b15",
                    "gasUsed": 15467,
                    "id": 7,
                    "methodDecoded": true,
                    "operation": "CALL",
                    "output": "0x0000000000000000000000000000000000000000000000000000000000000001",
                    "revert": false,
                    "revertMessage": "",
                    "selector": "0x23b872dd",
                    "status": true,
                    "value": "0"
                },
                "nodeType": 0
            },
            "8": {
                "event": {
                    "contract": "0xb131f4a55907b10d1f0a50d8ab8fa09ec342cd74",
                    "decodedLog": {
                        "name": "Approval",
                        "params": [
                            {
                                "name": "owner",
                                "type": "address",
                                "value": "0xed150fb73edac50f5aab1ffa6c1483c0f5b2a564"
                            },
                            {
                                "name": "spender",
                                "type": "address",
                                "value": "0x32c1f663919102dc032dc3c22fe434af686f3b15"
                            },
                            {
                                "decimalAvailable": true,
                                "name": "value",
                                "type": "uint256",
                                "value": "0"
                            }
                        ],
                        "signature": "Approval(address,address,uint256)"
                    },
                    "id": 8,
                    "logData": "0x0000000000000000000000000000000000000000000000000000000000000000",
                    "logDecoded": true,
                    "operation": "EVENT",
                    "revert": false,
                    "status": true,
                    "topics": [
                        "0x8c5be1e5ebec7d5bd14f71427d1e84f3dd0314c0f7b2291e5b200ac8c7c3b925",
                        "0x000000000000000000000000ed150fb73edac50f5aab1ffa6c1483c0f5b2a564",
                        "0x00000000000000000000000032c1f663919102dc032dc3c22fe434af686f3b15"
                    ]
                },
                "nodeType": 1
            },
            "9": {
                "event": {
                    "contract": "0xb131f4a55907b10d1f0a50d8ab8fa09ec342cd74",
                    "decodedLog": {
                        "name": "Transfer",
                        "params": [
                            {
                                "name": "from",
                                "type": "address",
                                "value": "0xed150fb73edac50f5aab1ffa6c1483c0f5b2a564"
                            },
                            {
                                "name": "to",
                                "type": "address",
                                "value": "0xc059a531b4234d05e9ef4ac51028f7e6156e2cce"
                            },
                            {
                                "decimalAvailable": true,
                                "name": "value",
                                "type": "uint256",
                                "value": "77,090,000,000,000,000,000"
                            }
                        ],
                        "signature": "Transfer(address,address,uint256)"
                    },
                    "id": 9,
                    "logData": "0x0000000000000000000000000000000000000000000000042dd6b28f46dd0000",
                    "logDecoded": true,
                    "operation": "EVENT",
                    "revert": false,
                    "status": true,
                    "topics": [
                        "0xddf252ad1be2c89b69c2b068fc378daa952ba7f163c4a11628f55a4df523b3ef",
                        "0x000000000000000000000000ed150fb73edac50f5aab1ffa6c1483c0f5b2a564",
                        "0x000000000000000000000000c059a531b4234d05e9ef4ac51028f7e6156e2cce"
                    ]
                },
                "nodeType": 1
            }
        },
        "gasFlame": [
            {
                "children": [
                    {
                        "children": [
                            {
                                "children": [],
                                "depth": 0,
                                "name": "Initial Gas",
                                "value": 23352
                            },
                            {
                                "children": [
                                    {
                                        "children": [
                                            {
                                                "children": [],
                                                "depth": 2,
                                                "name": "memecoin",
                                                "value": 205
                                            },
                                            {
                                                "children": [
                                                    {
                                                        "children": [],
                                                        "depth": 3,
                                                        "name": "ecrecover",
                                                        "value": 3000
                                                    }
                                                ],
                                                "depth": 2,
                                                "name": "permit",
                                                "value": 53573
                                            },
                                            {
                                                "children": [
                                                    {
                                                        "children": [],
                                                        "depth": 3,
                                                        "name": "transferFrom",
                                                        "value": 15467
                                                    }
                                                ],
                                                "depth": 2,
                                                "name": "transferFrom",
                                                "value": 18652
                                            }
                                        ],
                                        "depth": 1,
                                        "name": "stake",
                                        "value": 116083
                                    }
                                ],
                                "depth": 0,
                                "name": "Executed Gas",
                                "value": 121029
                            }
                        ],
                        "depth": -1,
                        "name": "Actual Gas Used",
                        "value": 116881
                    },
                    {
                        "children": [],
                        "depth": -1,
                        "name": "Refunded Gas",
                        "value": 27500
                    }
                ],
                "depth": -2,
                "name": "Total Gas",
                "value": 144381
            }
        ],
        "isConfirmed": true,
        "mainTrace": [
            {
                "children": [
                    {
                        "children": [
                            {
                                "children": [
                                    {
                                        "children": [],
                                        "depth": 2,
                                        "id": 2,
                                        "order": 2
                                    },
                                    {
                                        "children": [
                                            {
                                                "children": [],
                                                "depth": 3,
                                                "id": 4,
                                                "order": 4
                                            },
                                            {
                                                "children": [],
                                                "depth": 3,
                                                "id": 5,
                                                "order": 5
                                            }
                                        ],
                                        "depth": 2,
                                        "id": 3,
                                        "order": 3
                                    },
                                    {
                                        "children": [
                                            {
                                                "children": [
                                                    {
                                                        "children": [],
                                                        "depth": 4,
                                                        "id": 8,
                                                        "order": 8
                                                    },
                                                    {
                                                        "children": [],
                                                        "depth": 4,
                                                        "id": 9,
                                                        "order": 9
                                                    }
                                                ],
                                                "depth": 3,
                                                "id": 7,
                                                "order": 7
                                            }
                                        ],
                                        "depth": 2,
                                        "id": 6,
                                        "order": 6
                                    },
                                    {
                                        "children": [],
                                        "depth": 2,
                                        "id": 10,
                                        "order": 10
                                    },
                                    {
                                        "children": [],
                                        "depth": 2,
                                        "id": 11,
                                        "order": 11
                                    }
                                ],
                                "depth": 1,
                                "id": 1,
                                "order": 1
                            }
                        ],
                        "depth": 0,
                        "id": 0,
                        "order": 0
                    }
                ],
                "depth": -1,
                "id": -1,
                "order": -1
            }
        ],
        "mainTraceNodeCount": 12,
        "parentIdMap": {
            "0": -1,
            "1": 0,
            "10": 1,
            "11": 1,
            "2": 1,
            "3": 1,
            "4": 3,
            "5": 3,
            "6": 1,
            "7": 6,
            "8": 7,
            "9": 7
        },
        "tidyTrace": [
            {
                "children": [
                    {
                        "children": [
                            {
                                "children": [
                                    {
                                        "children": [
                                            {
                                                "children": [],
                                                "depth": 3,
                                                "id": 5,
                                                "order": 5
                                            }
                                        ],
                                        "depth": 2,
                                        "id": 3,
                                        "order": 3
                                    },
                                    {
                                        "children": [
                                            {
                                                "children": [
                                                    {
                                                        "children": [],
                                                        "depth": 4,
                                                        "id": 8,
                                                        "order": 8
                                                    },
                                                    {
                                                        "children": [],
                                                        "depth": 4,
                                                        "id": 9,
                                                        "order": 9
                                                    }
                                                ],
                                                "depth": 3,
                                                "id": 7,
                                                "order": 7
                                            }
                                        ],
                                        "depth": 2,
                                        "id": 6,
                                        "order": 6
                                    },
                                    {
                                        "children": [],
                                        "depth": 2,
                                        "id": 10,
                                        "order": 10
                                    },
                                    {
                                        "children": [],
                                        "depth": 2,
                                        "id": 11,
                                        "order": 11
                                    }
                                ],
                                "depth": 1,
                                "id": 1,
                                "order": 1
                            }
                        ],
                        "depth": 0,
                        "id": 0,
                        "order": 0
                    }
                ],
                "depth": -1,
                "id": -1,
                "order": -1
            }
        ],
        "tidyTraceNodeCount": 10
    },
    "state_change": {
        "stateChanges": [
            {
                "address": "0xb131f4a55907b10d1f0a50d8ab8fa09ec342cd74",
                "erc": "ERC-20",
                "slots": [
                    {
                        "current": "0x0000000000000000000000000000000000000000000000000000000000000001",
                        "key": "0x877f2158a2021a0f2ac6afb225bcafdbd24e5a7fd2de0b44ef1fd836a4a299fe",
                        "prev": "0x0000000000000000000000000000000000000000000000000000000000000000"
                    },
                    {
                        "current": "0x00000000000000000000000000000000000000000a15e372a687e8a9a3583955",
                        "key": "0xfa41cde411bfcd78733609b1e3a2311ca5ccf4b94881539846ce5500d2e4a008",
                        "prev": "0x00000000000000000000000000000000000000000a15e36e78b1361a5c7b3955"
                    },
                    {
                        "current": "0x0000000000000000000000000000000000000000000000000000000000000000",
                        "key": "0x9f888960e09f2380994508f0abc9a6d411349c53433e7d39767766d8fe29c73d",
                        "prev": "0x0000000000000000000000000000000000000000000000042dd6b28f46dd0000"
                    }
                ],
                "storageVariables": [
                    {
                        "name": "_balances",
                        "type": "mapping(address => uint256)",
                        "value": {
                            "pairs": [
                                {
                                    "key": "0xc059a531b4234d05e9ef4ac51028f7e6156e2cce",
                                    "value": {
                                        "current": "3121311632545609259708594517",
                                        "prev": "3121311555455609259708594517",
                                        "typeTag": 1
                                    }
                                },
                                {
                                    "key": "0xed150fb73edac50f5aab1ffa6c1483c0f5b2a564",
                                    "value": {
                                        "current": "0",
                                        "prev": "77090000000000000000",
                                        "typeTag": 1
                                    }
                                }
                            ],
                            "typeTag": 4
                        }
                    },
                    {
                        "name": "_nonces",
                        "type": "mapping(address => struct Counters.Counter)",
                        "value": {
                            "pairs": [
                                {
                                    "key": "0xed150fb73edac50f5aab1ffa6c1483c0f5b2a564",
                                    "value": {
                                        "fields": [
                                            {
                                                "name": "_value",
                                                "type": "uint256",
                                                "value": {
                                                    "current": "1",
                                                    "prev": "0",
                                                    "typeTag": 1
                                                }
                                            }
                                        ],
                                        "typeTag": 3
                                    }
                                }
                            ],
                            "typeTag": 4
                        }
                    }
                ]
            },
            {
                "address": "0xc059a531b4234d05e9ef4ac51028f7e6156e2cce",
                "erc": "",
                "slots": [
                    {
                        "current": "0x0000000000000000000000000000000000000000000000042dd6b28f46dd0000",
                        "key": "0x778e16bd1480a50b813ec2221b8b0023812bd01ecc9f5f12ca0526d16672cd15",
                        "prev": "0x0000000000000000000000000000000000000000000000000000000000000000"
                    }
                ],
                "storageVariables": [
                    {
                        "name": "balanceOf",
                        "type": "mapping(address => uint256)",
                        "value": {
                            "pairs": [
                                {
                                    "key": "0xed150fb73edac50f5aab1ffa6c1483c0f5b2a564",
                                    "value": {
                                        "current": "77090000000000000000",
                                        "prev": "0",
                                        "typeTag": 1
                                    }
                                }
                            ],
                            "typeTag": 4
                        }
                    }
                ]
            }
        ]
    }
}