{
    "balance_change": {
        "balanceChanges": [
            {
                "account": "0xe3c050401b94f5623ee04ddf323e66f54c54e968",
                "assets": [
                    {
                        "address": "0xc02aaa39b223fe8d0a0e5c4f27ead9083c756cc2",
                        "amount": "0.396",
                        "iconUrl": "https://assets.blocksec.com/icon/f1cb2d02c471d545bbc7722daf3277fd852d98e63d118771af7047bd8256c516.png",
                        "isERC1155": false,
                        "isERC721": false,
                        "sign": true,
                        "value": "1294.7308703999999343"
                    },
                    {
                        "address": "0x3ad4f189f08cdc60496eebb3bd70b90df28b7455",
                        "amount": "79,371.631527966514616748",
                        "iconUrl": "",
                        "isERC1155": false,
                        "isERC721": false,
                        "sign": false,
                        "value": "1252.960889"
                    }
                ]
            },
            {
                "account": "0xef69cf9bc8e894c7f5a09b2b90d639a5b9fe1fa2",
                "assets": [
                    {
                        "address": "0xc02aaa39b223fe8d0a0e5c4f27ead9083c756cc2",
                        "amount": "0.396",
                        "iconUrl": "https://assets.blocksec.com/icon/f1cb2d02c471d545bbc7722daf3277fd852d98e63d118771af7047bd8256c516.png",
                        "isERC1155": false,
                        "isERC721": false,
                        "sign": false,
                        "value": "1294.7308703999999343"
                    },
                    {
                        "address": "0x3ad4f189f08cdc60496eebb3bd70b90df28b7455",
                        "amount": "79,371.631527966514616748",
                        "iconUrl": "",
                        "isERC1155": false,
                        "isERC721": false,
                        "sign": true,
                        "value": "1252.960889"
                    }
                ]
            }
        ]
    },
    "profile": {
        "basic_info": {
            "baseFee": "2.032172407",
            "blockNumber": 20405607,
            "callData": "0x8e7ba57c0000000000000000000000007a250d5630b4cf539739df2c5dacb4c659f2488d000000000000000000000000e3c050401b94f5623ee04ddf323e66f54c54e968000000000000000000000000000000000000000000000000000000000000001e000000000000000000000000c02aaa39b223fe8d0a0e5c4f27ead9083c756cc20000000000000000000000003ad4f189f08cdc60496eebb3bd70b90df28b7455000000000000000000000000000000000000000000000000057edfe6e30e0000000000000000000000000000000000000000000000000db01750c0bd33b4b6c40000000000000000000000000000000000000000000000000000000000000001",
            "debugEnable": true,
            "errorInfo": "",
            "eventCount": 4,
            "feeRecipient": "0x4838b106fce9647bdf1e7877bf73ce8b0bad5f97",
            "formatValue": "0",
            "gasLimit": 143243,
            "gasPrice": "3",
            "gasUsed": 127303,
            "intTxnCount": 9,
            "internalRevert": false,
            "internalRevertMessage": "",
            "isContractCreation": false,
            "isFlashloan": false,
            "maxFee": "3",
            "nonce": 8,
            "overwritedBlockNumber": -1,
            "priorityFee": "3",
            "receiver": "0x3b5f20043901c2f0226996920d36d873a8c487b3",
            "revertMessage": "",
            "sender": "0xb8ce5374b22034101d6d9fdb7291df8d247b51ef",
            "simulationEnable": true,
            "sourceTxnHash": "0x468e6d02537884bdb68e86eda552f1d365a75a0d30cc335d68826403a4f9ac54",
            "status": true,
            "timestamp": "2024-07-28T14:20:47Z",
            "transactionFee": "0.000381909",
            "txnHash": "0x468e6d02537884bdb68e86eda552f1d365a75a0d30cc335d68826403a4f9ac54",
            "txnIndex": 159,
            "type": 2,
            "value": "0"
        },
        "fund_flow": [
            {
                "amount": "0.396",
                "from": "0xef69cf9bc8e894c7f5a09b2b90d639a5b9fe1fa2",
                "id": 1,
                "isERC1155": false,
                "isERC721": false,
                "isReverted": false,
                "order": 1,
                "to": "0xe3c050401b94f5623ee04ddf323e66f54c54e968",
                "token": "0xc02aaa39b223fe8d0a0e5c4f27ead9083c756cc2"
            },
            {
                "amount": "79,371.631527966514616748",
                "from": "0xe3c050401b94f5623ee04ddf323e66f54c54e968",
                "id": 2,
                "isERC1155": false,
                "isERC721": false,
                "isReverted": false,
                "order": 2,
                "to": "0xef69cf9bc8e894c7f5a09b2b90d639a5b9fe1fa2",
                "token": "0x3ad4f189f08cdc60496eebb3bd70b90df28b7455"
            }
        ],
        "token_infos": [
            {
                "address": "0xeeeeeeeeeeeeeeeeeeeeeeeeeeeeeeeeeeeeeeee",
                "decimals": 18
            },
            {
                "address": "0x3ad4f189f08cdc60496eebb3bd70b90df28b7455",
                "decimals": 18
            },
            {
                "address": "0xc02aaa39b223fe8d0a0e5c4f27ead9083c756cc2",
                "decimals": 18
            }
        ]
    },
    "address_label": {
        "labels": [
            {
                "address": "0x0000000000000000000000000000000000000002",
                "label": "Precompiled"
            },
            {
                "address": "0x0000000000000000000000000000000000000003",
                "label": "Precompiled"
            },
            {
                "address": "0x0000000000000000000000000000000000000004",
                "label": "Precompiled"
            },
            {
                "address": "0xeeeeeeeeeeeeeeeeeeeeeeeeeeeeeeeeeeeeeeee",
                "label": "Ether"
            },
            {
                "address": "0xc02aaa39b223fe8d0a0e5c4f27ead9083c756cc2",
                "label": "Wrapped Ether (WETH)"
            },
            {
                "address": "0xe3c050401b94f5623ee04ddf323e66f54c54e968",
                "label": "Uniswap V2: NEIRO 38"
            },
            {
                "address": "0x3ad4f189f08cdc60496eebb3bd70b90df28b7455",
                "label": "NEIRO"
            },
            {
                "address": "0x0000000000000000000000000000000000000001",
                "label": "Precompiled"
            }
        ]
    },
    "trace": {
        "accountLabels": null,
        "dataMap": {
            "-1": {
                "invocation": {
                    "address": "0xb8ce5374b22034101d6d9fdb7291df8d247b51ef",
                    "callData": "",
                    "decodedMethod": null,
                    "errorInfo": "",
                    "fromAddress": "",
                    "gasUsed": 0,
                    "id": -1,
                    "methodDecoded": false,
                    "operation": "",
                    "output": "",
                    "revert": false,
                    "revertMessage": "",
                    "selector": "",
                    "status": false,
                    "value": ""
                },
                "nodeType": 0
            },
            "0": {
                "invocation": {
                    "address": "0x3b5f20043901c2f0226996920d36d873a8c487b3",
                    "callData": "0x0000000000000000000000007a250d5630b4cf539739df2c5dacb4c659f2488d000000000000000000000000e3c050401b94f5623ee04ddf323e66f54c54e968000000000000000000000000000000000000000000000000000000000000001e000000000000000000000000c02aaa39b223fe8d0a0e5c4f27ead9083c756cc20000000000000000000000003ad4f189f08cdc60496eebb3bd70b90df28b7455000000000000000000000000000000000000000000000000057edfe6e30e0000000000000000000000000000000000000000000000000db01750c0bd33b4b6c40000000000000000000000000000000000000000000000000000000000000001",
                    "decodedMethod": null,
                    "errorInfo": "",
                    "fromAddress": "0xb8ce5374b22034101d6d9fdb7291df8d247b51ef",
                    "gasUsed": 127303,
                    "id": 0,
                    "methodDecoded": false,
                    "operation": "CALL",
                    "output": "",
                    "revert": false,
                    "revertMessage": "",
                    "selector": "0x8e7ba57c",
                    "status": true,
                    "value": "0"
                },
                "nodeType": 0
            },
            "1": {
                "invocation": {
                    "address": "0xc02aaa39b223fe8d0a0e5c4f27ead9083c756cc2",
                    "callData": "0x000000000000000000000000ef69cf9bc8e894c7f5a09b2b90d639a5b9fe1fa2000000000000000000000000e3c050401b94f5623ee04ddf323e66f54c54e968000000000000000000000000000000000000000000000000057edfe6e30e0000",
                    "decodedMethod": {
                        "callParams": [
                            {
                                "name": "src",
                                "type": "address",
                                "value": "0xef69cf9bc8e894c7f5a09b2b90d639a5b9fe1fa2"
                            },
                            {
                                "name": "dst",
                                "type": "address",
                                "value": "0xe3c050401b94f5623ee04ddf323e66f54c54e968"
                            },
                            {
                                "decimalAvailable": true,
                                "name": "wad",
                                "type": "uint256",
                                "value": "396,000,000,000,000,000"
                            }
                        ],
                        "constructorArguments": "",
                        "name": "transferFrom",
                        "returnParams": [
                            {
                                "name": "",
                                "type": "bool",
                                "value": true
                            }
                        ],
                        "signature": "transferFrom(address,address,uint256)"
                    },
                    "errorInfo": "",
                    "fromAddress": "0x3b5f20043901c2f0226996920d36d873a8c487b3",
                    "gasUsed": 18548,
                    "id": 1,
                    "methodDecoded": true,
                    "operation": "CALL",
                    "output": "0x0000000000000000000000000000000000000000000000000000000000000001",
                    "revert": false,
                    "revertMessage": "",
                    "selector": "0x23b872dd",
                    "status": true,
                    "value": "0"
                },
                "nodeType": 0
            },
            "10": {
                "invocation": {
                    "address": "0xc02aaa39b223fe8d0a0e5c4f27ead9083c756cc2",
                    "callData": "0x000000000000000000000000e3c050401b94f5623ee04ddf323e66f54c54e968",
                    "decodedMethod": {
                        "callParams": [
                            {
                                "name": "",
                                "type": "address",
                                "value": "0xe3c050401b94f5623ee04ddf323e66f54c54e968"
                            }
                        ],
                        "constructorArguments": "",
                        "name": "balanceOf",
                        "returnParams": [
                            {
                                "decimalAvailable": true,
                                "name": "",
                                "type": "uint256",
                                "value": "71,447,212,712,531,254,773"
                            }
                        ],
                        "signature": "balanceOf(address)"
                    },
                    "errorInfo": "",
                    "fromAddress": "0xe3c050401b94f5623ee04ddf323e66f54c54e968",
                    "gasUsed": 534,
                    "id": 10,
                    "methodDecoded": true,
                    "operation": "STATICCALL",
                    "output": "0x000000000000000000000000000000000000000000000003df877d6b2232ddf5",
                    "revert": false,
                    "revertMessage": "",
                    "selector": "0x70a08231",
                    "status": true,
                    "value": "0"
                },
                "nodeType": 0
            },
            "11": {
                "event": {
                    "contract": "0xe3c050401b94f5623ee04ddf323e66f54c54e968",
                    "decodedLog": {
                        "name": "Sync",
                        "params": [
                            {
                                "name": "reserve0",
                                "type": "uint112",
                                "value": "14,283,888,724,340,194,738,097,909"
                            },
                            {
                                "name": "reserve1",
                                "type": "uint112",
                                "value": "71,447,212,712,531,254,773"
                            }
                        ],
                        "signature": "Sync(uint112,uint112)"
                    },
                    "id": 11,
                    "logData": "0x0000000000000000000000000000000000000000000bd0bb28c96d7a4fa6cef5000000000000000000000000000000000000000000000003df877d6b2232ddf5",
                    "logDecoded": true,
                    "operation": "EVENT",
                    "revert": false,
                    "status": true,
                    "topics": [
                        "0x1c411e9a96e071241c2f21f7726b17ae89e3cab4c78be50e062b03a9fffbbad1"
                    ]
                },
                "nodeType": 1
            },
            "12": {
                "event": {
                    "contract": "0xe3c050401b94f5623ee04ddf323e66f54c54e968",
                    "decodedLog": {
                        "name": "Swap",
                        "params": [
                            {
                                "name": "sender",
                                "type": "address",
                                "value": "0x3b5f20043901c2f0226996920d36d873a8c487b3"
                            },
                            {
                                "name": "to",
                                "type": "address",
                                "value": "0xef69cf9bc8e894c7f5a09b2b90d639a5b9fe1fa2"
                            },
                            {
                                "name": "amount0In",
                                "type": "uint256",
                                "value": "0"
                            },
                            {
                                "name": "amount1In",
                                "type": "uint256",
                                "value": "396,000,000,000,000,000"
                            },
                            {
                                "name": "amount0Out",
                                "type": "uint256",
                                "value": "79,371,631,527,966,514,616,748"
                            },
                            {
                                "name": "amount1Out",
                                "type": "uint256",
                                "value": "0"
                            }
                        ],
                        "signature": "Swap(address,uint256,uint256,uint256,uint256,address)"
                    },
                    "id": 12,
                    "logData": "0x0000000000000000000000000000000000000000000000000000000000000000000000000000000000000000000000000000000000000000057edfe6e30e00000000000000000000000000000000000000000000000010cebea909c2372019ac0000000000000000000000000000000000000000000000000000000000000000",
                    "logDecoded": true,
                    "operation": "EVENT",
                    "revert": false,
                    "status": true,
                    "topics": [
                        "0xd78ad95fa46c994b6551d0da85fc275fe613ce37657fb8d5e3d130840159d822",
                        "0x0000000000000000000000003b5f20043901c2f0226996920d36d873a8c487b3",
                        "0x000000000000000000000000ef69cf9bc8e894c7f5a09b2b90d639a5b9fe1fa2"
                    ]
                },
                "nodeType": 1
            },
            "13": {
                "invocation": {
                    "address": "0x3ad4f189f08cdc60496eebb3bd70b90df28b7455",
                    "callData": "0x000000000000000000000000ef69cf9bc8e894c7f5a09b2b90d639a5b9fe1fa2",
                    "decodedMethod": {
                        "callParams": [
                            {
                                "name": "account",
                                "type": "address",
                                "value": "0xef69cf9bc8e894c7f5a09b2b90d639a5b9fe1fa2"
                            }
                        ],
                        "constructorArguments": "",
                        "name": "balanceOf",
                        "returnParams": [
                            {
                                "decimalAvailable": true,
                                "name": "",
                                "type": "uint256",
                                "value": "983,970,690,199,440,333,985,989,236"
                            }
                        ],
                        "signature": "balanceOf(address)"
                    },
                    "errorInfo": "",
                    "fromAddress": "0x3b5f20043901c2f0226996920d36d873a8c487b3",
                    "gasUsed": 930,
                    "id": 13,
                    "methodDecoded": true,
                    "operation": "STATICCALL",
                    "output": "0x0000000000000000000000000000000000000000032debe5ffb2525941e6c274",
                    "revert": false,
                    "revertMessage": "",
                    "selector": "0x70a08231",
                    "status": true,
                    "value": "0"
                },
                "nodeType": 0
            },
            "2": {
                "event": {
                    "contract": "0xc02aaa39b223fe8d0a0e5c4f27ead9083c756cc2",
                    "decodedLog": {
                        "name": "Transfer",
                        "params": [
                            {
                                "name": "src",
                                "type": "address",
                                "value": "0xef69cf9bc8e894c7f5a09b2b90d639a5b9fe1fa2"
                            },
                            {
                                "name": "dst",
                                "type": "address",
                                "value": "0xe3c050401b94f5623ee04ddf323e66f54c54e968"
                            },
                            {
                                "decimalAvailable": true,
                                "name": "wad",
                                "type": "uint256",
                                "value": "396,000,000,000,000,000"
                            }
                        ],
                        "signature": "Transfer(address,address,uint256)"
                    },
                    "id": 2,
                    "logData": "0x000000000000000000000000000000000000000000000000057edfe6e30e0000",
                    "logDecoded": true,
                    "operation": "EVENT",
                    "revert": false,
                    "status": true,
                    "topics": [
                        "0xddf252ad1be2c89b69c2b068fc378daa952ba7f163c4a11628f55a4df523b3ef",
                        "0x000000000000000000000000ef69cf9bc8e894c7f5a09b2b90d639a5b9fe1fa2",
                        "0x000000000000000000000000e3c050401b94f5623ee04ddf323e66f54c54e968"
                    ]
                },
                "nodeType": 1
            },
            "3": {
                "invocation": {
                    "address": "0x3ad4f189f08cdc60496eebb3bd70b90df28b7455",
                    "callData": "0x000000000000000000000000ef69cf9bc8e894c7f5a09b2b90d639a5b9fe1fa2",
                    "decodedMethod": {
                        "callParams": [
                            {
                                "name": "account",
                                "type": "address",
                                "value": "0xef69cf9bc8e894c7f5a09b2b90d639a5b9fe1fa2"
                            }
                        ],
                        "constructorArguments": "",
                        "name": "balanceOf",
                        "returnParams": [
                            {
                                "decimalAvailable": true,
                                "name": "",
                                "type": "uint256",
                                "value": "983,891,318,567,912,367,471,372,488"
                            }
                        ],
                        "signature": "balanceOf(address)"
                    },
                    "errorInfo": "",
                    "fromAddress": "0x3b5f20043901c2f0226996920d36d873a8c487b3",
                    "gasUsed": 2930,
                    "id": 3,
                    "methodDecoded": true,
                    "operation": "STATICCALL",
                    "output": "0x0000000000000000000000000000000000000000032ddb17410948970ac6a8c8",
                    "revert": false,
                    "revertMessage": "",
                    "selector": "0x70a08231",
                    "status": true,
                    "value": "0"
                },
                "nodeType": 0
            },
            "4": {
                "invocation": {
                    "address": "0xe3c050401b94f5623ee04ddf323e66f54c54e968",
                    "callData": "0x",
                    "decodedMethod": {
                        "callParams": [],
                        "constructorArguments": "",
                        "name": "getReserves",
                        "returnParams": [
                            {
                                "name": "_reserve0",
                                "type": "uint112",
                                "value": "14,363,260,355,868,161,252,714,657"
                            },
                            {
                                "name": "_reserve1",
                                "type": "uint112",
                                "value": "71,051,212,712,531,254,773"
                            },
                            {
                                "name": "_blockTimestampLast",
                                "type": "uint32",
                                "value": "1,722,176,447"
                            }
                        ],
                        "signature": "getReserves()"
                    },
                    "errorInfo": "",
                    "fromAddress": "0x3b5f20043901c2f0226996920d36d873a8c487b3",
                    "gasUsed": 2504,
                    "id": 4,
                    "methodDecoded": true,
                    "operation": "STATICCALL",
                    "output": "0x0000000000000000000000000000000000000000000be189e772773c86c6e8a1000000000000000000000000000000000000000000000003da089d843f24ddf50000000000000000000000000000000000000000000000000000000066a653bf",
                    "revert": false,
                    "revertMessage": "",
                    "selector": "0x0902f1ac",
                    "status": true,
                    "value": "0"
                },
                "nodeType": 0
            },
            "5": {
                "invocation": {
                    "address": "0xc02aaa39b223fe8d0a0e5c4f27ead9083c756cc2",
                    "callData": "0x000000000000000000000000e3c050401b94f5623ee04ddf323e66f54c54e968",
                    "decodedMethod": {
                        "callParams": [
                            {
                                "name": "",
                                "type": "address",
                                "value": "0xe3c050401b94f5623ee04ddf323e66f54c54e968"
                            }
                        ],
                        "constructorArguments": "",
                        "name": "balanceOf",
                        "returnParams": [
                            {
                                "decimalAvailable": true,
                                "name": "",
                                "type": "uint256",
                                "value": "71,447,212,712,531,254,773"
                            }
                        ],
                        "signature": "balanceOf(address)"
                    },
                    "errorInfo": "",
                    "fromAddress": "0x3b5f20043901c2f0226996920d36d873a8c487b3",
                    "gasUsed": 534,
                    "id": 5,
                    "methodDecoded": true,
                    "operation": "STATICCALL",
                    "output": "0x000000000000000000000000000000000000000000000003df877d6b2232ddf5",
                    "revert": false,
                    "revertMessage": "",
                    "selector": "0x70a08231",
                    "status": true,
                    "value": "0"
                },
                "nodeType": 0
            },
            "6": {
                "invocation": {
                    "address": "0xe3c050401b94f5623ee04ddf323e66f54c54e968",
                    "callData": "0x0000000000000000000000000000000000000000000010cebea909c2372019ac0000000000000000000000000000000000000000000000000000000000000000000000000000000000000000ef69cf9bc8e894c7f5a09b2b90d639a5b9fe1fa200000000000000000000000000000000000000000000000000000000000000800000000000000000000000000000000000000000000000000000000000000000",
                    "decodedMethod": {
                        "callParams": [
                            {
                                "name": "amount0Out",
                                "type": "uint256",
                                "value": "79,371,631,527,966,514,616,748"
                            },
                            {
                                "name": "amount1Out",
                                "type": "uint256",
                                "value": "0"
                            },
                            {
                                "name": "to",
                                "type": "address",
                                "value": "0xef69cf9bc8e894c7f5a09b2b90d639a5b9fe1fa2"
                            },
                            {
                                "name": "data",
                                "type": "bytes",
                                "value": "0x"
                            }
                        ],
                        "constructorArguments": "",
                        "name": "swap",
                        "returnParams": [],
                        "signature": "swap(uint256,uint256,address,bytes)"
                    },
                    "errorInfo": "",
                    "fromAddress": "0x3b5f20043901c2f0226996920d36d873a8c487b3",
                    "gasUsed": 55124,
                    "id": 6,
                    "methodDecoded": true,
                    "operation": "CALL",
                    "output": "",
                    "revert": false,
                    "revertMessage": "",
                    "selector": "0x022c0d9f",
                    "status": true,
                    "value": "0"
                },
                "nodeType": 0
            },
            "7": {
                "invocation": {
                    "address": "0x3ad4f189f08cdc60496eebb3bd70b90df28b7455",
                    "callData": "0x000000000000000000000000ef69cf9bc8e894c7f5a09b2b90d639a5b9fe1fa20000000000000000000000000000000000000000000010cebea909c2372019ac",
                    "decodedMethod": {
                        "callParams": [
                            {
                                "name": "to",
                                "type": "address",
                                "value": "0xef69cf9bc8e894c7f5a09b2b90d639a5b9fe1fa2"
                            },
                            {
                                "decimalAvailable": true,
                                "name": "amount",
                                "type": "uint256",
                                "value": "79,371,631,527,966,514,616,748"
                            }
                        ],
                        "constructorArguments": "",
                        "name": "transfer",
                        "returnParams": [
                            {
                                "name": "",
                                "type": "bool",
                                "value": true
                            }
                        ],
                        "signature": "transfer(address,uint256)"
                    },
                    "errorInfo": "",
                    "fromAddress": "0xe3c050401b94f5623ee04ddf323e66f54c54e968",
                    "gasUsed": 32753,
                    "id": 7,
                    "methodDecoded": true,
                    "operation": "CALL",
                    "output": "0x0000000000000000000000000000000000000000000000000000000000000001",
                    "revert": false,
                    "revertMessage": "",
                    "selector": "0xa9059cbb",
                    "status": true,
                    "value": "0"
                },
                "nodeType": 0
            },
            "8": {
                "event": {
                    "contract": "0x3ad4f189f08cdc60496eebb3bd70b90df28b7455",
                    "decodedLog": {
                        "name": "Transfer",
                        "params": [
                            {
                                "name": "from",
                                "type": "address",
                                "value": "0xe3c050401b94f5623ee04ddf323e66f54c54e968"
                            },
                            {
                                "name": "to",
                                "type": "address",
                                "value": "0xef69cf9bc8e894c7f5a09b2b90d639a5b9fe1fa2"
                            },
                            {
                                "decimalAvailable": true,
                                "name": "value",
                                "type": "uint256",
                                "value": "79,371,631,527,966,514,616,748"
                            }
                        ],
                        "signature": "Transfer(address,address,uint256)"
                    },
                    "id": 8,
                    "logData": "0x0000000000000000000000000000000000000000000010cebea909c2372019ac",
                    "logDecoded": true,
                    "operation": "EVENT",
                    "revert": false,
                    "status": true,
                    "topics": [
                        "0xddf252ad1be2c89b69c2b068fc378daa952ba7f163c4a11628f55a4df523b3ef",
                        "0x000000000000000000000000e3c050401b94f5623ee04ddf323e66f54c54e968",
                        "0x000000000000000000000000ef69cf9bc8e894c7f5a09b2b90d639a5b9fe1fa2"
                    ]
                },
                "nodeType": 1
            },
            "9": {
                "invocation": {
                    "address": "0x3ad4f189f08cdc60496eebb3bd70b90df28b7455",
                    "callData": "0x000000000000000000000000e3c050401b94f5623ee04ddf323e66f54c54e968",
                    "decodedMethod": {
                        "callParams": [
                            {
                                "name": "account",
                                "type": "address",
                                "value": "0xe3c050401b94f5623ee04ddf323e66f54c54e968"
                            }
                        ],
                        "constructorArguments": "",
                        "name": "balanceOf",
                        "returnParams": [
                            {
                                "decimalAvailable": true,
                                "name": "",
                                "type": "uint256",
                                "value": "14,283,888,724,340,194,738,097,909"
                            }
                        ],
                        "signature": "balanceOf(address)"
                    },
                    "errorInfo": "",
                    "fromAddress": "0xe3c050401b94f5623ee04ddf323e66f54c54e968",
                    "gasUsed": 930,
                    "id": 9,
                    "methodDecoded": true,
                    "operation": "STATICCALL",
                    "output": "0x0000000000000000000000000000000000000000000bd0bb28c96d7a4fa6cef5",
                    "revert": false,
                    "revertMessage": "",
                    "selector": "0x70a08231",
                    "status": true,
                    "value": "0"
                },
                "nodeType": 0
            }
        },
        "gasFlame": [
            {
                "children": [
                    {
                        "children": [
                            {
                                "children": [],
                                "depth": 0,
                                "name": "Initial Gas",
                                "value": 23264
                            },
                            {
                                "children": [
                                    {
                                        "children": [],
                                        "depth": 1,
                                        "name": "transferFrom",
                                        "value": 18548
                                    },
                                    {
                                        "children": [],
                                        "depth": 1,
                                        "name": "balanceOf",
                                        "value": 2930
                                    },
                                    {
                                        "children": [],
                                        "depth": 1,
                                        "name": "getReserves",
                                        "value": 2504
                                    },
                                    {
                                        "children": [],
                                        "depth": 1,
                                        "name": "balanceOf",
                                        "value": 534
                                    },
                                    {
                                        "children": [
                                            {
                                                "children": [],
                                                "depth": 2,
                                                "name": "transfer",
                                                "value": 32753
                                            },
                                            {
                                                "children": [],
                                                "depth": 2,
                                                "name": "balanceOf",
                                                "value": 930
                                            },
                                            {
                                                "children": [],
                                                "depth": 2,
                                                "name": "balanceOf",
                                                "value": 534
                                            }
                                        ],
                                        "depth": 1,
                                        "name": "swap",
                                        "value": 55124
                                    },
                                    {
                                        "children": [],
                                        "depth": 1,
                                        "name": "balanceOf",
                                        "value": 930
                                    }
                                ],
                                "depth": 0,
                                "name": "Executed Gas",
                                "value": 106839
                            }
                        ],
                        "depth": -1,
                        "name": "Actual Gas Used",
                        "value": 127303
                    },
                    {
                        "children": [],
                        "depth": -1,
                        "name": "Refunded Gas",
                        "value": 2800
                    }
                ],
                "depth": -2,
                "name": "Total Gas",
                "value": 130103
            }
        ],
        "isConfirmed": true,
        "mainTrace": [
            {
                "children": [
                    {
                        "children": [
                            {
                                "children": [
                                    {
                                        "children": [],
                                        "depth": 2,
                                        "id": 2,
                                        "order": 2
                                    }
                                ],
                                "depth": 1,
                                "id": 1,
                                "order": 1
                            },
                            {
                                "children": [],
                                "depth": 1,
                                "id": 3,
                                "order": 3
                            },
                            {
                                "children": [],
                                "depth": 1,
                                "id": 4,
                                "order": 4
                            },
                            {
                                "children": [],
                                "depth": 1,
                                "id": 5,
                                "order": 5
                            },
                            {
                                "children": [
                                    {
                                        "children": [
                                            {
                                                "children": [],
                                                "depth": 3,
                                                "id": 8,
                                                "order": 8
                                            }
                                        ],
                                        "depth": 2,
                                        "id": 7,
                                        "order": 7
                                    },
                                    {
                                        "children": [],
                                        "depth": 2,
                                        "id": 9,
                                        "order": 9
                                    },
                                    {
                                        "children": [],
                                        "depth": 2,
                                        "id": 10,
                                        "order": 10
                                    },
                                    {
                                        "children": [],
                                        "depth": 2,
                                        "id": 11,
                                        "order": 11
                                    },
                                    {
                                        "children": [],
                                        "depth": 2,
                                        "id": 12,
                                        "order": 12
                                    }
                                ],
                                "depth": 1,
                                "id": 6,
                                "order": 6
                            },
                            {
                                "children": [],
                                "depth": 1,
                                "id": 13,
                                "order": 13
                            }
                        ],
                        "depth": 0,
                        "id": 0,
                        "order": 0
                    }
                ],
                "depth": -1,
                "id": -1,
                "order": -1
            }
        ],
        "mainTraceNodeCount": 14,
        "parentIdMap": {
            "0": -1,
            "1": 0,
            "10": 6,
            "11": 6,
            "12": 6,
            "13": 0,
            "2": 1,
            "3": 0,
            "4": 0,
            "5": 0,
            "6": 0,
            "7": 6,
            "8": 7,
            "9": 6
        },
        "tidyTrace": [
            {
                "children": [
                    {
                        "children": [
                            {
                                "children": [
                                    {
                                        "children": [],
                                        "depth": 2,
                                        "id": 2,
                                        "order": 2
                                    }
                                ],
                                "depth": 1,
                                "id": 1,
                                "order": 1
                            },
                            {
                                "children": [
                                    {
                                        "children": [
                                            {
                                                "children": [],
                                                "depth": 3,
                                                "id": 8,
                                                "order": 8
                                            }
                                        ],
                                        "depth": 2,
                                        "id": 7,
                                        "order": 7
                                    },
                                    {
                                        "children": [],
                                        "depth": 2,
                                        "id": 11,
                                        "order": 11
                                    },
                                    {
                                        "children": [],
                                        "depth": 2,
                                        "id": 12,
                                        "order": 12
                                    }
                                ],
                                "depth": 1,
                                "id": 6,
                                "order": 6
                            }
                        ],
                        "depth": 0,
                        "id": 0,
                        "order": 0
                    }
                ],
                "depth": -1,
                "id": -1,
                "order": -1
            }
        ],
        "tidyTraceNodeCount": 8
    },
    "state_change": {
        "stateChanges": [
            {
                "address": "0x3ad4f189f08cdc60496eebb3bd70b90df28b7455",
                "erc": "ERC-20",
                "slots": [
                    {
                        "current": "0x0000000000000000000000000000000000000000000bd0bb28c96d7a4fa6cef5",
                        "key": "0xffaf7cc98fe889025da110bb5884a98d19244b4fef518f728adf6ace60aed9d6",
                        "prev": "0x0000000000000000000000000000000000000000000be189e772773c86c6e8a1"
                    },
                    {
                        "current": "0x0000000000000000000000000000000000000000032debe5ffb2525941e6c274",
                        "key": "0x5514b739f98c0b7004668e96470dafec3d5b5447ea6428b9fc56b7b75e716e2e",
                        "prev": "0x0000000000000000000000000000000000000000032ddb17410948970ac6a8c8"
                    }
                ],
                "storageVariables": [
                    {
                        "name": "_balances",
                        "type": "mapping(address => uint256)",
                        "value": {
                            "pairs": [
                                {
                                    "key": "0xe3c050401b94f5623ee04ddf323e66f54c54e968",
                                    "value": {
                                        "current": "14283888724340194738097909",
                                        "prev": "14363260355868161252714657",
                                        "typeTag": 1
                                    }
                                },
                                {
                                    "key": "0xef69cf9bc8e894c7f5a09b2b90d639a5b9fe1fa2",
                                    "value": {
                                        "current": "983970690199440333985989236",
                                        "prev": "983891318567912367471372488",
                                        "typeTag": 1
                                    }
                                }
                            ],
                            "typeTag": 4
                        }
                    }
                ]
            },
            {
                "address": "0xc02aaa39b223fe8d0a0e5c4f27ead9083c756cc2",
                "erc": "ERC-20",
                "slots": [
                    {
                        "current": "0x00000000000000000051342b82fb82911971c2b81fc3b5ba2fe83a151f31dc71",
                        "key": "0x15e4ba804aad27369d12180a333db9e63e64e60d51db6d6665b670e69e677f23",
                        "prev": "0x00000000000000000051342b82fb82911971c2b81fc3b5ba356719fc023fdc71"
                    },
                    {
                        "current": "0x0000000000000000000000000000000000000000000000024bb0856d25fc6000",
                        "key": "0x6cd2acc11293fad85776c99fe7985fe20466f1efc53f57953e258a3b3c439ea8",
                        "prev": "0x000000000000000000000000000000000000000000000002512f6554090a6000"
                    },
                    {
                        "current": "0x000000000000000000000000000000000000000000000003df877d6b2232ddf5",
                        "key": "0x040443b342188c053e04416cac04e9b4455d261ea0e1ce7977fc8486187b804c",
                        "prev": "0x000000000000000000000000000000000000000000000003da089d843f24ddf5"
                    }
                ],
                "storageVariables": [
                    {
                        "name": "balanceOf",
                        "type": "mapping(address => uint256)",
                        "value": {
                            "pairs": [
                                {
                                    "key": "0xe3c050401b94f5623ee04ddf323e66f54c54e968",
                                    "value": {
                                        "current": "71447212712531254773",
                                        "prev": "71051212712531254773",
                                        "typeTag": 1
                                    }
                                },
                                {
                                    "key": "0xef69cf9bc8e894c7f5a09b2b90d639a5b9fe1fa2",
                                    "value": {
                                        "current": "42347494000000000000",
                                        "prev": "42743494000000000000",
                                        "typeTag": 1
                                    }
                                }
                            ],
                            "typeTag": 4
                        }
                    },
                    {
                        "name": "allowance",
                        "type": "mapping(address => mapping(address => uint256))",
                        "value": {
                            "pairs": [
                                {
                                    "key": "0xef69cf9bc8e894c7f5a09b2b90d639a5b9fe1fa2",
                                    "value": {
                                        "pairs": [
                                            {
                                                "key": "0x3b5f20043901c2f0226996920d36d873a8c487b3",
                                                "value": {
                                                    "current": "7777777777777777777777777777777776313708893777777777777",
                                                    "prev": "7777777777777777777777777777777776314104893777777777777",
                                                    "typeTag": 1
                                                }
                                            }
                                        ],
                                        "typeTag": 4
                                    }
                                }
                            ],
                            "typeTag": 4
                        }
                    }
                ]
            },
            {
                "address": "0xe3c050401b94f5623ee04ddf323e66f54c54e968",
                "erc": "ERC-20",
                "slots": [
                    {
                        "current": "0x66a653bf000000000003df877d6b2232ddf50000000bd0bb28c96d7a4fa6cef5",
                        "key": "0x0000000000000000000000000000000000000000000000000000000000000008",
                        "prev": "0x66a653bf000000000003da089d843f24ddf50000000be189e772773c86c6e8a1"
                    }
                ],
                "storageVariables": [
                    {
                        "name": "reserve0",
                        "type": "uint112",
                        "value": {
                            "current": "14283888724340194738097909",
                            "prev": "14363260355868161252714657",
                            "typeTag": 1
                        }
                    },
                    {
                        "name": "reserve1",
                        "type": "uint112",
                        "value": {
                            "current": "71447212712531254773",
                            "prev": "71051212712531254773",
                            "typeTag": 1
                        }
                    },
                    {
                        "name": "blockTimestampLast",
                        "type": "uint32",
                        "value": {
                            "current": "1722176447",
                            "prev": "1722176447",
                            "typeTag": 1
                        }
                    }
                ]
            }
        ]
    }
}