{
    "balance_change": {
        "balanceChanges": [
            {
                "account": "0x054ec88f41ae4f0ea39b81c8f7076c5143bedaf3",
                "assets": [
                    {
                        "address": "0x1f0480a66883de97d2b054929252aae8f664c15c",
                        "amount": "314.841911624443349559",
                        "iconUrl": "",
                        "isERC1155": false,
                        "isERC721": false,
                        "sign": false,
                        "value": ""
                    }
                ]
            },
            {
                "account": "0x24e6d6d615c43c778399942e39952bce41429d02",
                "assets": [
                    {
                        "address": "0x1f0480a66883de97d2b054929252aae8f664c15c",
                        "amount": "314.841911624443349559",
                        "iconUrl": "",
                        "isERC1155": false,
                        "isERC721": false,
                        "sign": true,
                        "value": ""
                    }
                ]
            }
        ]
    },
    "profile": {
        "basic_info": {
            "baseFee": "",
            "blockNumber": 5687501,
            "callData": "0xa9059cbb00000000000000000000000024e6d6d615c43c778399942e39952bce41429d02000000000000000000000000000000000000000000000011114f2a84bbdfca37",
            "debugEnable": true,
            "errorInfo": "",
            "eventCount": 1,
            "feeRecipient": "0xb2930b35844a230f00e51431acae96fe543a0347",
            "formatValue": "0",
            "gasLimit": 37393,
            "gasPrice": "6",
            "gasUsed": 22393,
            "intTxnCount": 0,
            "internalRevert": false,
            "internalRevertMessage": "",
            "isContractCreation": false,
            "isFlashloan": false,
            "maxFee": "",
            "nonce": 1,
            "overwritedBlockNumber": -1,
            "priorityFee": "",
            "receiver": "0x1f0480a66883de97d2b054929252aae8f664c15c",
            "revertMessage": "",
            "sender": "0x054ec88f41ae4f0ea39b81c8f7076c5143bedaf3",
            "simulationEnable": true,
            "sourceTxnHash": "0x467429fa386ef86cdcba1c8cb958bcdb37b129bc8861b9cd800c74c5366156c8",
            "status": true,
            "timestamp": "2018-05-27T20:24:27Z",
            "transactionFee": "0.000134358",
            "txnHash": "0x467429fa386ef86cdcba1c8cb958bcdb37b129bc8861b9cd800c74c5366156c8",
            "txnIndex": 38,
            "type": 0,
            "value": "0"
        },
        "fund_flow": [
            {
                "amount": "314.841911624443349559",
                "from": "0x054ec88f41ae4f0ea39b81c8f7076c5143bedaf3",
                "id": 1,
                "isERC1155": false,
                "isERC721": false,
                "isReverted": false,
                "order": 1,
                "to": "0x24e6d6d615c43c778399942e39952bce41429d02",
                "token": "0x1f0480a66883de97d2b054929252aae8f664c15c"
            }
        ],
        "token_infos": [
            {
                "address": "0x1f0480a66883de97d2b054929252aae8f664c15c",
                "decimals": 18
            },
            {
                "address": "0xc02aaa39b223fe8d0a0e5c4f27ead9083c756cc2",
                "decimals": 18
            },
            {
                "address": "0xeeeeeeeeeeeeeeeeeeeeeeeeeeeeeeeeeeeeeeee",
                "decimals": 18
            }
        ]
    },
    "address_label": {
        "labels": [
            {
                "address": "0x0000000000000000000000000000000000000002",
                "label": "Precompiled"
            },
            {
                "address": "0x0000000000000000000000000000000000000003",
                "label": "Precompiled"
            },
            {
                "address": "0x0000000000000000000000000000000000000004",
                "label": "Precompiled"
            },
            {
                "address": "0xeeeeeeeeeeeeeeeeeeeeeeeeeeeeeeeeeeeeeeee",
                "label": "Ether"
            },
            {
                "address": "0x1f0480a66883de97d2b054929252aae8f664c15c",
                "label": "NePay (NEP)"
            },
            {
                "address": "0x0000000000000000000000000000000000000001",
                "label": "Precompiled"
            }
        ]
    },
    "trace": {
        "accountLabels": null,
        "dataMap": {
            "-1": {
                "invocation": {
                    "address": "0x054ec88f41ae4f0ea39b81c8f7076c5143bedaf3",
                    "callData": "",
                    "decodedMethod": null,
                    "errorInfo": "",
                    "fromAddress": "",
                    "gasUsed": 0,
                    "id": -1,
                    "methodDecoded": false,
                    "operation": "",
                    "output": "",
                    "revert": false,
                    "revertMessage": "",
                    "selector": "",
                    "status": false,
                    "value": ""
                },
                "nodeType": 0
            },
            "0": {
                "invocation": {
                    "address": "0x1f0480a66883de97d2b054929252aae8f664c15c",
                    "callData": "0x00000000000000000000000024e6d6d615c43c778399942e39952bce41429d02000000000000000000000000000000000000000000000011114f2a84bbdfca37",
                    "decodedMethod": {
                        "callParams": [
                            {
                                "name": "_to",
                                "type": "address",
                                "value": "0x24e6d6d615c43c778399942e39952bce41429d02"
                            },
                            {
                                "decimalAvailable": true,
                                "name": "_amount",
                                "type": "uint256",
                                "value": "314,841,911,624,443,349,559"
                            }
                        ],
                        "constructorArguments": "",
                        "name": "transfer",
                        "returnParams": [
                            {
                                "name": "success",
                                "type": "bool",
                                "value": true
                            }
                        ],
                        "signature": "transfer(address,uint256)"
                    },
                    "errorInfo": "",
                    "fromAddress": "0x054ec88f41ae4f0ea39b81c8f7076c5143bedaf3",
                    "gasUsed": 22393,
                    "id": 0,
                    "methodDecoded": true,
                    "operation": "CALL",
                    "output": "0x0000000000000000000000000000000000000000000000000000000000000001",
                    "revert": false,
                    "revertMessage": "",
                    "selector": "0xa9059cbb",
                    "status": true,
                    "value": "0"
                },
                "nodeType": 0
            },
            "1": {
                "event": {
                    "contract": "0x1f0480a66883de97d2b054929252aae8f664c15c",
                    "decodedLog": {
                        "name": "Transfer",
                        "params": [
                            {
                                "name": "_from",
                                "type": "address",
                                "value": "0x054ec88f41ae4f0ea39b81c8f7076c5143bedaf3"
                            },
                            {
                                "name": "_to",
                                "type": "address",
                                "value": "0x24e6d6d615c43c778399942e39952bce41429d02"
                            },
                            {
                                "decimalAvailable": true,
                                "name": "_value",
                                "type": "uint256",
                                "value": "314,841,911,624,443,349,559"
                            }
                        ],
                        "signature": "Transfer(address,address,uint256)"
                    },
                    "id": 1,
                    "logData": "0x000000000000000000000000000000000000000000000011114f2a84bbdfca37",
                    "logDecoded": true,
                    "operation": "EVENT",
                    "revert": false,
                    "status": true,
                    "topics": [
                        "0xddf252ad1be2c89b69c2b068fc378daa952ba7f163c4a11628f55a4df523b3ef",
                        "0x000000000000000000000000054ec88f41ae4f0ea39b81c8f7076c5143bedaf3",
                        "0x00000000000000000000000024e6d6d615c43c778399942e39952bce41429d02"
                    ]
                },
                "nodeType": 1
            }
        },
        "gasFlame": [
            {
                "children": [
                    {
                        "children": [
                            {
                                "children": [],
                                "depth": 0,
                                "name": "Initial Gas",
                                "value": 23384
                            },
                            {
                                "children": [],
                                "depth": 0,
                                "name": "Executed Gas",
                                "value": 14009
                            }
                        ],
                        "depth": -1,
                        "name": "Actual Gas Used",
                        "value": 22393
                    },
                    {
                        "children": [],
                        "depth": -1,
                        "name": "Refunded Gas",
                        "value": 15000
                    }
                ],
                "depth": -2,
                "name": "Total Gas",
                "value": 37393
            }
        ],
        "isConfirmed": true,
        "mainTrace": [
            {
                "children": [
                    {
                        "children": [
                            {
                                "children": [],
                                "depth": 1,
                                "id": 1,
                                "order": 1
                            }
                        ],
                        "depth": 0,
                        "id": 0,
                        "order": 0
                    }
                ],
                "depth": -1,
                "id": -1,
                "order": -1
            }
        ],
        "mainTraceNodeCount": 2,
        "parentIdMap": {
            "0": -1,
            "1": 0
        },
        "tidyTrace": [
            {
                "children": [
                    {
                        "children": [
                            {
                                "children": [],
                                "depth": 1,
                                "id": 1,
                                "order": 1
                            }
                        ],
                        "depth": 0,
                        "id": 0,
                        "order": 0
                    }
                ],
                "depth": -1,
                "id": -1,
                "order": -1
            }
        ],
        "tidyTraceNodeCount": 2
    },
    "state_change": {
        "stateChanges": [
            {
                "address": "0x1f0480a66883de97d2b054929252aae8f664c15c",
                "erc": "ERC-20",
                "slots": [
                    {
                        "current": "0x0000000000000000000000000000000000000000000000000000000000000000",
                        "key": "0x06052d61c2d1eb6307afbe3bcc519ab9d7ec2090329935e25f655a8bc73c6d9f",
                        "prev": "0x000000000000000000000000000000000000000000000011114f2a84bbdfca37"
                    },
                    {
                        "current": "0x000000000000000000000000000000000000000000007edeb78ceb40d06f2ce0",
                        "key": "0xcf81b802f570c884a34bb4ca7308b839399702e9a249cca7737b36d2befdaee7",
                        "prev": "0x000000000000000000000000000000000000000000007ecda63dc0bc148f62a9"
                    }
                ],
                "storageVariables": [
                    {
                        "name": "balances",
                        "type": "mapping(address => uint256)",
                        "value": {
                            "pairs": [
                                {
                                    "key": "0x054ec88f41ae4f0ea39b81c8f7076c5143bedaf3",
                                    "value": {
                                        "current": "0",
                                        "prev": "314841911624443349559",
                                        "typeTag": 1
                                    }
                                },
                                {
                                    "key": "0x24e6d6d615c43c778399942e39952bce41429d02",
                                    "value": {
                                        "current": "599126580230808105069792",
                                        "prev": "598811738319183661720233",
                                        "typeTag": 1
                                    }
                                }
                            ],
                            "typeTag": 4
                        }
                    }
                ]
            }
        ]
    }
}