{
    "balance_change": {
        "balanceChanges": []
    },
    "profile": {
        "basic_info": {
            "baseFee": "61.572733395",
            "blockNumber": 13478168,
            "callData": "0xa22cb46500000000000000000000000040b1c0fc7c9849298ce4fe57d06aa44b03588ffc0000000000000000000000000000000000000000000000000000000000000001",
            "debugEnable": true,
            "errorInfo": "",
            "eventCount": 1,
            "feeRecipient": "0xea674fdde714fd979de3edf0f56aa9716b898ec8",
            "formatValue": "0",
            "gasLimit": 58467,
            "gasPrice": "65.393430086",
            "gasUsed": 46774,
            "intTxnCount": 0,
            "internalRevert": false,
            "internalRevertMessage": "",
            "isContractCreation": false,
            "isFlashloan": false,
            "maxFee": "65.393430086",
            "nonce": 30,
            "overwritedBlockNumber": -1,
            "priorityFee": "65.393430086",
            "receiver": "0x213fde8b7fbb8b9ecf7f34792e604eafb9bd292f",
            "revertMessage": "",
            "sender": "0x14e472ccc0facf211a28eabc3c9493783f77ac6b",
            "simulationEnable": true,
            "sourceTxnHash": "0x46240a3520dcf065b7a874ad091c04ea3774faa7bebfdd53c97156125c038164",
            "status": true,
            "timestamp": "2021-10-24T04:54:54Z",
            "transactionFee": "0.003058712298842564",
            "txnHash": "0x46240a3520dcf065b7a874ad091c04ea3774faa7bebfdd53c97156125c038164",
            "txnIndex": 160,
            "type": 2,
            "value": "0"
        },
        "fund_flow": [],
        "token_infos": [
            {
                "address": "0xc02aaa39b223fe8d0a0e5c4f27ead9083c756cc2",
                "decimals": 18
            },
            {
                "address": "0xeeeeeeeeeeeeeeeeeeeeeeeeeeeeeeeeeeeeeeee",
                "decimals": 18
            }
        ]
    },
    "address_label": {
        "labels": [
            {
                "address": "0xeeeeeeeeeeeeeeeeeeeeeeeeeeeeeeeeeeeeeeee",
                "label": "Ether"
            },
            {
                "address": "0x40b1c0fc7c9849298ce4fe57d06aa44b03588ffc",
                "label": "DemigodsOfRock: DGOR Token"
            },
            {
                "address": "0x213fde8b7fbb8b9ecf7f34792e604eafb9bd292f",
                "label": "Gods of Rock: GOR Token"
            },
            {
                "address": "0x0000000000000000000000000000000000000001",
                "label": "Precompiled"
            },
            {
                "address": "0x0000000000000000000000000000000000000002",
                "label": "Precompiled"
            },
            {
                "address": "0x0000000000000000000000000000000000000003",
                "label": "Precompiled"
            },
            {
                "address": "0x0000000000000000000000000000000000000004",
                "label": "Precompiled"
            }
        ]
    },
    "trace": {
        "accountLabels": null,
        "dataMap": {
            "-1": {
                "invocation": {
                    "address": "0x14e472ccc0facf211a28eabc3c9493783f77ac6b",
                    "callData": "",
                    "decodedMethod": null,
                    "errorInfo": "",
                    "fromAddress": "",
                    "gasUsed": 0,
                    "id": -1,
                    "methodDecoded": false,
                    "operation": "",
                    "output": "",
                    "revert": false,
                    "revertMessage": "",
                    "selector": "",
                    "status": false,
                    "value": ""
                },
                "nodeType": 0
            },
            "0": {
                "invocation": {
                    "address": "0x213fde8b7fbb8b9ecf7f34792e604eafb9bd292f",
                    "callData": "0x00000000000000000000000040b1c0fc7c9849298ce4fe57d06aa44b03588ffc0000000000000000000000000000000000000000000000000000000000000001",
                    "decodedMethod": {
                        "callParams": [
                            {
                                "name": "operator",
                                "type": "address",
                                "value": "0x40b1c0fc7c9849298ce4fe57d06aa44b03588ffc"
                            },
                            {
                                "name": "approved",
                                "type": "bool",
                                "value": true
                            }
                        ],
                        "constructorArguments": "",
                        "name": "setApprovalForAll",
                        "returnParams": [],
                        "signature": "setApprovalForAll(address,bool)"
                    },
                    "errorInfo": "",
                    "fromAddress": "0x14e472ccc0facf211a28eabc3c9493783f77ac6b",
                    "gasUsed": 46774,
                    "id": 0,
                    "methodDecoded": true,
                    "operation": "CALL",
                    "output": "",
                    "revert": false,
                    "revertMessage": "",
                    "selector": "0xa22cb465",
                    "status": true,
                    "value": "0"
                },
                "nodeType": 0
            },
            "1": {
                "event": {
                    "contract": "0x213fde8b7fbb8b9ecf7f34792e604eafb9bd292f",
                    "decodedLog": {
                        "name": "ApprovalForAll",
                        "params": [
                            {
                                "name": "owner",
                                "type": "address",
                                "value": "0x14e472ccc0facf211a28eabc3c9493783f77ac6b"
                            },
                            {
                                "name": "operator",
                                "type": "address",
                                "value": "0x40b1c0fc7c9849298ce4fe57d06aa44b03588ffc"
                            },
                            {
                                "name": "approved",
                                "type": "bool",
                                "value": true
                            }
                        ],
                        "signature": "ApprovalForAll(address,address,bool)"
                    },
                    "id": 1,
                    "logData": "0x0000000000000000000000000000000000000000000000000000000000000001",
                    "logDecoded": true,
                    "operation": "EVENT",
                    "revert": false,
                    "status": true,
                    "topics": [
                        "0x17307eab39ab6107e8899845ad3d59bd9653f200f220920489ca2b5937696c31",
                        "0x00000000000000000000000014e472ccc0facf211a28eabc3c9493783f77ac6b",
                        "0x00000000000000000000000040b1c0fc7c9849298ce4fe57d06aa44b03588ffc"
                    ]
                },
                "nodeType": 1
            }
        },
        "gasFlame": [
            {
                "children": [
                    {
                        "children": [
                            {
                                "children": [],
                                "depth": 0,
                                "name": "Initial Gas",
                                "value": 21572
                            },
                            {
                                "children": [],
                                "depth": 0,
                                "name": "Executed Gas",
                                "value": 25202
                            }
                        ],
                        "depth": -1,
                        "name": "Actual Gas Used",
                        "value": 46774
                    },
                    {
                        "children": [],
                        "depth": -1,
                        "name": "Refunded Gas",
                        "value": 0
                    }
                ],
                "depth": -2,
                "name": "Total Gas",
                "value": 46774
            }
        ],
        "isConfirmed": true,
        "mainTrace": [
            {
                "children": [
                    {
                        "children": [
                            {
                                "children": [],
                                "depth": 1,
                                "id": 1,
                                "order": 1
                            }
                        ],
                        "depth": 0,
                        "id": 0,
                        "order": 0
                    }
                ],
                "depth": -1,
                "id": -1,
                "order": -1
            }
        ],
        "mainTraceNodeCount": 2,
        "parentIdMap": {
            "0": -1,
            "1": 0
        },
        "tidyTrace": [
            {
                "children": [
                    {
                        "children": [
                            {
                                "children": [],
                                "depth": 1,
                                "id": 1,
                                "order": 1
                            }
                        ],
                        "depth": 0,
                        "id": 0,
                        "order": 0
                    }
                ],
                "depth": -1,
                "id": -1,
                "order": -1
            }
        ],
        "tidyTraceNodeCount": 2
    },
    "state_change": {
        "stateChanges": [
            {
                "address": "0x213fde8b7fbb8b9ecf7f34792e604eafb9bd292f",
                "erc": "ERC-721",
                "slots": [
                    {
                        "current": "0x0000000000000000000000000000000000000000000000000000000000000001",
                        "key": "0x012bdb67f34657936193b1136bc8dba59c8d5a83c3b95cd6c093470a54866e70",
                        "prev": "0x0000000000000000000000000000000000000000000000000000000000000000"
                    }
                ],
                "storageVariables": [
                    {
                        "name": "_operatorApprovals",
                        "type": "mapping(address => mapping(address => bool))",
                        "value": {
                            "pairs": [
                                {
                                    "key": "0x14e472ccc0facf211a28eabc3c9493783f77ac6b",
                                    "value": {
                                        "pairs": [
                                            {
                                                "key": "0x40b1c0fc7c9849298ce4fe57d06aa44b03588ffc",
                                                "value": {
                                                    "current": "true",
                                                    "prev": "false",
                                                    "typeTag": 1
                                                }
                                            }
                                        ],
                                        "typeTag": 4
                                    }
                                }
                            ],
                            "typeTag": 4
                        }
                    }
                ]
            }
        ]
    }
}