{
    "balance_change": {
        "balanceChanges": []
    },
    "profile": {
        "basic_info": {
            "baseFee": "10.645464952",
            "blockNumber": 16043498,
            "callData": "0x1b738b32000000000000000000000000d37bbe5744d730a1d98d8dc97c42f0ca46ad714600000000000000000000000071da23fe49562dde4fb013948e876e349f180ed60000000000000000000000006b175474e89094c44da98b954eedeac495271d0f00000000000000000000000000000000000000000000060209ee9a37acb0800000000000000000000000000000000000000000000000000000000000000000a0000000000000000000000000000000000000000000000000000000000000000f4d4947524154453a383337333432300000000000000000000000000000000000",
            "debugEnable": true,
            "errorInfo": "",
            "eventCount": 1,
            "feeRecipient": "0x199d5ed7f45f4ee35960cf22eade2076e95b253f",
            "formatValue": "0",
            "gasLimit": 45147,
            "gasPrice": "17.860888805",
            "gasUsed": 40161,
            "intTxnCount": 0,
            "internalRevert": false,
            "internalRevertMessage": "",
            "isContractCreation": false,
            "isFlashloan": false,
            "maxFee": "",
            "nonce": 180,
            "overwritedBlockNumber": -1,
            "priorityFee": "",
            "receiver": "0xd37bbe5744d730a1d98d8dc97c42f0ca46ad7146",
            "revertMessage": "",
            "sender": "0x754569f82e162e2e5fb378f7e25ce3f351376345",
            "simulationEnable": true,
            "sourceTxnHash": "0x469976d5fe0154bad5866efd9c0b7f9a6598a75e83d2d5f0c54bb862b4f5ca78",
            "status": true,
            "timestamp": "2022-11-25T00:43:35Z",
            "transactionFee": "0.000717311155297605",
            "txnHash": "0x469976d5fe0154bad5866efd9c0b7f9a6598a75e83d2d5f0c54bb862b4f5ca78",
            "txnIndex": 10,
            "type": 0,
            "value": "0"
        },
        "fund_flow": [],
        "token_infos": [
            {
                "address": "0xc02aaa39b223fe8d0a0e5c4f27ead9083c756cc2",
                "decimals": 18
            },
            {
                "address": "0xeeeeeeeeeeeeeeeeeeeeeeeeeeeeeeeeeeeeeeee",
                "decimals": 18
            }
        ]
    },
    "address_label": {
        "labels": [
            {
                "address": "0x0000000000000000000000000000000000000004",
                "label": "Precompiled"
            },
            {
                "address": "0x0000000000000000000000000000000000000002",
                "label": "Precompiled"
            },
            {
                "address": "0x0000000000000000000000000000000000000003",
                "label": "Precompiled"
            },
            {
                "address": "0xeeeeeeeeeeeeeeeeeeeeeeeeeeeeeeeeeeeeeeee",
                "label": "Ether"
            },
            {
                "address": "0x6b175474e89094c44da98b954eedeac495271d0f",
                "label": "Sky: Dai Stablecoin"
            },
            {
                "address": "0x71da23fe49562dde4fb013948e876e349f180ed6",
                "label": "THORChain_vault_71da_0ed6"
            },
            {
                "address": "0xd37bbe5744d730a1d98d8dc97c42f0ca46ad7146",
                "label": "THORChain: THORChain Router v4.1.1"
            },
            {
                "address": "0x754569f82e162e2e5fb378f7e25ce3f351376345",
                "label": "THORChain_vault_7545_6345"
            },
            {
                "address": "0x0000000000000000000000000000000000000001",
                "label": "Precompiled"
            }
        ]
    },
    "trace": {
        "accountLabels": null,
        "dataMap": {
            "-1": {
                "invocation": {
                    "address": "0x754569f82e162e2e5fb378f7e25ce3f351376345",
                    "callData": "",
                    "decodedMethod": null,
                    "errorInfo": "",
                    "fromAddress": "",
                    "gasUsed": 0,
                    "id": -1,
                    "methodDecoded": false,
                    "operation": "",
                    "output": "",
                    "revert": false,
                    "revertMessage": "",
                    "selector": "",
                    "status": false,
                    "value": ""
                },
                "nodeType": 0
            },
            "0": {
                "invocation": {
                    "address": "0xd37bbe5744d730a1d98d8dc97c42f0ca46ad7146",
                    "callData": "0x000000000000000000000000d37bbe5744d730a1d98d8dc97c42f0ca46ad714600000000000000000000000071da23fe49562dde4fb013948e876e349f180ed60000000000000000000000006b175474e89094c44da98b954eedeac495271d0f00000000000000000000000000000000000000000000060209ee9a37acb0800000000000000000000000000000000000000000000000000000000000000000a0000000000000000000000000000000000000000000000000000000000000000f4d4947524154453a383337333432300000000000000000000000000000000000",
                    "decodedMethod": {
                        "callParams": [
                            {
                                "name": "router",
                                "type": "address",
                                "value": "0xd37bbe5744d730a1d98d8dc97c42f0ca46ad7146"
                            },
                            {
                                "name": "newVault",
                                "type": "address",
                                "value": "0x71da23fe49562dde4fb013948e876e349f180ed6"
                            },
                            {
                                "name": "asset",
                                "type": "address",
                                "value": "0x6b175474e89094c44da98b954eedeac495271d0f"
                            },
                            {
                                "name": "amount",
                                "type": "uint256",
                                "value": "28,371,808,064,320,000,000,000"
                            },
                            {
                                "name": "memo",
                                "type": "string",
                                "value": "MIGRATE:8373420"
                            }
                        ],
                        "constructorArguments": "",
                        "name": "transferAllowance",
                        "returnParams": [],
                        "signature": "transferAllowance(address,address,address,uint256,string)"
                    },
                    "errorInfo": "",
                    "fromAddress": "0x754569f82e162e2e5fb378f7e25ce3f351376345",
                    "gasUsed": 40161,
                    "id": 0,
                    "methodDecoded": true,
                    "operation": "CALL",
                    "output": "",
                    "revert": false,
                    "revertMessage": "",
                    "selector": "0x1b738b32",
                    "status": true,
                    "value": "0"
                },
                "nodeType": 0
            },
            "1": {
                "event": {
                    "contract": "0xd37bbe5744d730a1d98d8dc97c42f0ca46ad7146",
                    "decodedLog": {
                        "name": "TransferAllowance",
                        "params": [
                            {
                                "name": "oldVault",
                                "type": "address",
                                "value": "0x754569f82e162e2e5fb378f7e25ce3f351376345"
                            },
                            {
                                "name": "newVault",
                                "type": "address",
                                "value": "0x71da23fe49562dde4fb013948e876e349f180ed6"
                            },
                            {
                                "name": "asset",
                                "type": "address",
                                "value": "0x6b175474e89094c44da98b954eedeac495271d0f"
                            },
                            {
                                "name": "amount",
                                "type": "uint256",
                                "value": "28,371,808,064,320,000,000,000"
                            },
                            {
                                "name": "memo",
                                "type": "string",
                                "value": "MIGRATE:8373420"
                            }
                        ],
                        "signature": "TransferAllowance(address,address,address,uint256,string)"
                    },
                    "id": 1,
                    "logData": "0x0000000000000000000000006b175474e89094c44da98b954eedeac495271d0f00000000000000000000000000000000000000000000060209ee9a37acb080000000000000000000000000000000000000000000000000000000000000000060000000000000000000000000000000000000000000000000000000000000000f4d4947524154453a383337333432300000000000000000000000000000000000",
                    "logDecoded": true,
                    "operation": "EVENT",
                    "revert": false,
                    "status": true,
                    "topics": [
                        "0x05b90458f953d3fcb2d7fb25616a2fddeca749d0c47cc5c9832d0266b5346eea",
                        "0x000000000000000000000000754569f82e162e2e5fb378f7e25ce3f351376345",
                        "0x00000000000000000000000071da23fe49562dde4fb013948e876e349f180ed6"
                    ]
                },
                "nodeType": 1
            }
        },
        "gasFlame": [
            {
                "children": [
                    {
                        "children": [
                            {
                                "children": [],
                                "depth": 0,
                                "name": "Initial Gas",
                                "value": 22992
                            },
                            {
                                "children": [],
                                "depth": 0,
                                "name": "Executed Gas",
                                "value": 19969
                            }
                        ],
                        "depth": -1,
                        "name": "Actual Gas Used",
                        "value": 40161
                    },
                    {
                        "children": [],
                        "depth": -1,
                        "name": "Refunded Gas",
                        "value": 2800
                    }
                ],
                "depth": -2,
                "name": "Total Gas",
                "value": 42961
            }
        ],
        "isConfirmed": true,
        "mainTrace": [
            {
                "children": [
                    {
                        "children": [
                            {
                                "children": [],
                                "depth": 1,
                                "id": 1,
                                "order": 1
                            }
                        ],
                        "depth": 0,
                        "id": 0,
                        "order": 0
                    }
                ],
                "depth": -1,
                "id": -1,
                "order": -1
            }
        ],
        "mainTraceNodeCount": 2,
        "parentIdMap": {
            "0": -1,
            "1": 0
        },
        "tidyTrace": [
            {
                "children": [
                    {
                        "children": [
                            {
                                "children": [],
                                "depth": 1,
                                "id": 1,
                                "order": 1
                            }
                        ],
                        "depth": 0,
                        "id": 0,
                        "order": 0
                    }
                ],
                "depth": -1,
                "id": -1,
                "order": -1
            }
        ],
        "tidyTraceNodeCount": 2
    },
    "state_change": {
        "stateChanges": [
            {
                "address": "0xd37bbe5744d730a1d98d8dc97c42f0ca46ad7146",
                "erc": "",
                "slots": [
                    {
                        "current": "0x000000000000000000000000000000000000000000000180827ba68deb2c2000",
                        "key": "0xf97105c2dca338bd675a44c5548d0e17f3f96b9b8bbb88a15d8e3b2307c41da2",
                        "prev": "0x0000000000000000000000000000000000000000000007828c6a40c597dca000"
                    },
                    {
                        "current": "0x0000000000000000000000000000000000000000000007d2cba8b5165f303800",
                        "key": "0xec7a9d21070ce45f87bc44ff6e8798549970f2ac3e171afbc61a7186703b6451",
                        "prev": "0x0000000000000000000000000000000000000000000001d0c1ba1adeb27fb800"
                    }
                ],
                "storageVariables": [
                    {
                        "name": "_vaultAllowance",
                        "type": "mapping(address => mapping(address => uint256))",
                        "value": {
                            "pairs": [
                                {
                                    "key": "0x71da23fe49562dde4fb013948e876e349f180ed6",
                                    "value": {
                                        "pairs": [
                                            {
                                                "key": "0x6b175474e89094c44da98b954eedeac495271d0f",
                                                "value": {
                                                    "current": "36945056814060000000000",
                                                    "prev": "8573248749740000000000",
                                                    "typeTag": 1
                                                }
                                            }
                                        ],
                                        "typeTag": 4
                                    }
                                },
                                {
                                    "key": "0x754569f82e162e2e5fb378f7e25ce3f351376345",
                                    "value": {
                                        "pairs": [
                                            {
                                                "key": "0x6b175474e89094c44da98b954eedeac495271d0f",
                                                "value": {
                                                    "current": "7092952016080000000000",
                                                    "prev": "35464760080400000000000",
                                                    "typeTag": 1
                                                }
                                            }
                                        ],
                                        "typeTag": 4
                                    }
                                }
                            ],
                            "typeTag": 4
                        }
                    }
                ]
            }
        ]
    }
}