{
    "balance_change": {
        "balanceChanges": [
            {
                "account": "0x96b5ab24da10c8c38dac32b305cad76a99fb4a36",
                "assets": [
                    {
                        "address": "0x47a16e51bcc89c0015622fe83eb482a4522f6c5c",
                        "amount": "159",
                        "iconUrl": "",
                        "isERC1155": false,
                        "isERC721": false,
                        "sign": false,
                        "value": ""
                    }
                ]
            },
            {
                "account": "0x598ea69dff63cd1af436812298a8163730d2eb33",
                "assets": [
                    {
                        "address": "0x47a16e51bcc89c0015622fe83eb482a4522f6c5c",
                        "amount": "159",
                        "iconUrl": "",
                        "isERC1155": false,
                        "isERC721": false,
                        "sign": true,
                        "value": ""
                    }
                ]
            }
        ]
    },
    "profile": {
        "basic_info": {
            "baseFee": "",
            "blockNumber": 5472006,
            "callData": "0xa9059cbb000000000000000000000000598ea69dff63cd1af436812298a8163730d2eb33000000000000000000000000000000000000000000000000000000000000009f",
            "debugEnable": true,
            "errorInfo": "",
            "eventCount": 1,
            "feeRecipient": "0x52bc44d5378309ee2abf1539bf71de1b7d7be3b5",
            "formatValue": "0",
            "gasLimit": 60000,
            "gasPrice": "4",
            "gasUsed": 51141,
            "intTxnCount": 0,
            "internalRevert": false,
            "internalRevertMessage": "",
            "isContractCreation": false,
            "isFlashloan": false,
            "maxFee": "",
            "nonce": 2591,
            "overwritedBlockNumber": -1,
            "priorityFee": "",
            "receiver": "0x47a16e51bcc89c0015622fe83eb482a4522f6c5c",
            "revertMessage": "",
            "sender": "0x96b5ab24da10c8c38dac32b305cad76a99fb4a36",
            "simulationEnable": true,
            "sourceTxnHash": "0x471c4e13a6f7471897d97e1fed9ed61ba4852f2bcbf670009fec3a9bfa928721",
            "status": true,
            "timestamp": "2018-04-20T03:26:43Z",
            "transactionFee": "0.000204564",
            "txnHash": "0x471c4e13a6f7471897d97e1fed9ed61ba4852f2bcbf670009fec3a9bfa928721",
            "txnIndex": 176,
            "type": 0,
            "value": "0"
        },
        "fund_flow": [
            {
                "amount": "159",
                "from": "0x96b5ab24da10c8c38dac32b305cad76a99fb4a36",
                "id": 1,
                "isERC1155": false,
                "isERC721": false,
                "isReverted": false,
                "order": 1,
                "to": "0x598ea69dff63cd1af436812298a8163730d2eb33",
                "token": "0x47a16e51bcc89c0015622fe83eb482a4522f6c5c"
            }
        ],
        "token_infos": [
            {
                "address": "0x47a16e51bcc89c0015622fe83eb482a4522f6c5c",
                "decimals": 0
            },
            {
                "address": "0xc02aaa39b223fe8d0a0e5c4f27ead9083c756cc2",
                "decimals": 18
            },
            {
                "address": "0xeeeeeeeeeeeeeeeeeeeeeeeeeeeeeeeeeeeeeeee",
                "decimals": 18
            }
        ]
    },
    "address_label": {
        "labels": [
            {
                "address": "0xeeeeeeeeeeeeeeeeeeeeeeeeeeeeeeeeeeeeeeee",
                "label": "Ether"
            },
            {
                "address": "0x47a16e51bcc89c0015622fe83eb482a4522f6c5c",
                "label": "POGO1"
            },
            {
                "address": "0x0000000000000000000000000000000000000001",
                "label": "Precompiled"
            },
            {
                "address": "0x0000000000000000000000000000000000000002",
                "label": "Precompiled"
            },
            {
                "address": "0x0000000000000000000000000000000000000003",
                "label": "Precompiled"
            },
            {
                "address": "0x0000000000000000000000000000000000000004",
                "label": "Precompiled"
            }
        ]
    },
    "trace": {
        "accountLabels": null,
        "dataMap": {
            "-1": {
                "invocation": {
                    "address": "0x96b5ab24da10c8c38dac32b305cad76a99fb4a36",
                    "callData": "",
                    "decodedMethod": null,
                    "errorInfo": "",
                    "fromAddress": "",
                    "gasUsed": 0,
                    "id": -1,
                    "methodDecoded": false,
                    "operation": "",
                    "output": "",
                    "revert": false,
                    "revertMessage": "",
                    "selector": "",
                    "status": false,
                    "value": ""
                },
                "nodeType": 0
            },
            "0": {
                "invocation": {
                    "address": "0x47a16e51bcc89c0015622fe83eb482a4522f6c5c",
                    "callData": "0x000000000000000000000000598ea69dff63cd1af436812298a8163730d2eb33000000000000000000000000000000000000000000000000000000000000009f",
                    "decodedMethod": {
                        "callParams": [
                            {
                                "name": "recipient",
                                "type": "address",
                                "value": "0x598ea69dff63cd1af436812298a8163730d2eb33"
                            },
                            {
                                "decimalAvailable": true,
                                "name": "amount",
                                "type": "uint256",
                                "value": "159"
                            }
                        ],
                        "constructorArguments": "",
                        "name": "transfer",
                        "returnParams": [
                            {
                                "name": "",
                                "type": "bool",
                                "value": true
                            }
                        ],
                        "signature": "transfer(address,uint256)"
                    },
                    "errorInfo": "",
                    "fromAddress": "0x96b5ab24da10c8c38dac32b305cad76a99fb4a36",
                    "gasUsed": 51141,
                    "id": 0,
                    "methodDecoded": true,
                    "operation": "CALL",
                    "output": "0x0000000000000000000000000000000000000000000000000000000000000001",
                    "revert": false,
                    "revertMessage": "",
                    "selector": "0xa9059cbb",
                    "status": true,
                    "value": "0"
                },
                "nodeType": 0
            },
            "1": {
                "event": {
                    "contract": "0x47a16e51bcc89c0015622fe83eb482a4522f6c5c",
                    "decodedLog": {
                        "name": "Transfer",
                        "params": [
                            {
                                "name": "from",
                                "type": "address",
                                "value": "0x96b5ab24da10c8c38dac32b305cad76a99fb4a36"
                            },
                            {
                                "name": "to",
                                "type": "address",
                                "value": "0x598ea69dff63cd1af436812298a8163730d2eb33"
                            },
                            {
                                "decimalAvailable": true,
                                "name": "value",
                                "type": "uint256",
                                "value": "159"
                            }
                        ],
                        "signature": "Transfer(address,address,uint256)"
                    },
                    "id": 1,
                    "logData": "0x000000000000000000000000000000000000000000000000000000000000009f",
                    "logDecoded": true,
                    "operation": "EVENT",
                    "revert": false,
                    "status": true,
                    "topics": [
                        "0xddf252ad1be2c89b69c2b068fc378daa952ba7f163c4a11628f55a4df523b3ef",
                        "0x00000000000000000000000096b5ab24da10c8c38dac32b305cad76a99fb4a36",
                        "0x000000000000000000000000598ea69dff63cd1af436812298a8163730d2eb33"
                    ]
                },
                "nodeType": 1
            }
        },
        "gasFlame": [
            {
                "children": [
                    {
                        "children": [
                            {
                                "children": [],
                                "depth": 0,
                                "name": "Initial Gas",
                                "value": 22872
                            },
                            {
                                "children": [],
                                "depth": 0,
                                "name": "Executed Gas",
                                "value": 28269
                            }
                        ],
                        "depth": -1,
                        "name": "Actual Gas Used",
                        "value": 51141
                    },
                    {
                        "children": [],
                        "depth": -1,
                        "name": "Refunded Gas",
                        "value": 0
                    }
                ],
                "depth": -2,
                "name": "Total Gas",
                "value": 51141
            }
        ],
        "isConfirmed": true,
        "mainTrace": [
            {
                "children": [
                    {
                        "children": [
                            {
                                "children": [],
                                "depth": 1,
                                "id": 1,
                                "order": 1
                            }
                        ],
                        "depth": 0,
                        "id": 0,
                        "order": 0
                    }
                ],
                "depth": -1,
                "id": -1,
                "order": -1
            }
        ],
        "mainTraceNodeCount": 2,
        "parentIdMap": {
            "0": -1,
            "1": 0
        },
        "tidyTrace": [
            {
                "children": [
                    {
                        "children": [
                            {
                                "children": [],
                                "depth": 1,
                                "id": 1,
                                "order": 1
                            }
                        ],
                        "depth": 0,
                        "id": 0,
                        "order": 0
                    }
                ],
                "depth": -1,
                "id": -1,
                "order": -1
            }
        ],
        "tidyTraceNodeCount": 2
    },
    "state_change": {
        "stateChanges": [
            {
                "address": "0x47a16e51bcc89c0015622fe83eb482a4522f6c5c",
                "erc": "",
                "slots": [
                    {
                        "current": "0x00000000000000000000000000000000000000000000003635c9adc5de9d7de1",
                        "key": "0xfc8b6022ed32b353c5142911eee2fdf9a0a6290876ff5a05d09bf8a82ba588c5",
                        "prev": "0x00000000000000000000000000000000000000000000003635c9adc5de9d7e80"
                    },
                    {
                        "current": "0x000000000000000000000000000000000000000000000000000000000000009f",
                        "key": "0x106951e121da97a6c6b29039ef76bce4d223b617441879f194385d90c747acf7",
                        "prev": "0x0000000000000000000000000000000000000000000000000000000000000000"
                    }
                ],
                "storageVariables": []
            }
        ]
    }
}