{
    "balance_change": {
        "balanceChanges": []
    },
    "profile": {
        "basic_info": {
            "baseFee": "53.827029954",
            "blockNumber": 19410709,
            "callData": "0xf123991e00000000000000000000000000000000000000000000000000000000000000a000000000000000000000000000000000000000000000000000000000000000e00000000000000000000000000000000000000000000000000000000000000120000000000000000000000000aa2b5756e708dd5db4b7ef204f6e9ce54e8d473400000000000000000000000000000000000000000000000000000000000000000000000000000000000000000000000000000000000000000000000000000001000000000000000000000000000000000000000000000000000000000000000000000000000000000000000000000000000000000000000000000000000000010000000000000000000000000fe4f44bee93503346a3ac9ee5a26b130a5796d600000000000000000000000000000000000000000000000000000000000000010000000000000000000000000000000000000000000000004248cfebbcf159a7",
            "debugEnable": true,
            "errorInfo": "",
            "eventCount": 2,
            "feeRecipient": "0x95222290dd7278aa3ddd389cc1e1d165cc4bafe5",
            "formatValue": "0",
            "gasLimit": 214432,
            "gasPrice": "53.836729954",
            "gasUsed": 121222,
            "intTxnCount": 9,
            "internalRevert": false,
            "internalRevertMessage": "",
            "isContractCreation": false,
            "isFlashloan": false,
            "maxFee": "73.866789223",
            "nonce": 954,
            "overwritedBlockNumber": -1,
            "priorityFee": "0.0097",
            "receiver": "0x858646372cc42e1a627fce94aa7a7033e7cf075a",
            "revertMessage": "",
            "sender": "0xaa2b5756e708dd5db4b7ef204f6e9ce54e8d4734",
            "simulationEnable": true,
            "sourceTxnHash": "0x4743c6d88fdacf88c47dea3b572b10ebeee0ff79dae187b69ba0de5748fbcdfc",
            "status": true,
            "timestamp": "2024-03-11T08:37:47Z",
            "transactionFee": "0.006526196078483788",
            "txnHash": "0x4743c6d88fdacf88c47dea3b572b10ebeee0ff79dae187b69ba0de5748fbcdfc",
            "txnIndex": 91,
            "type": 2,
            "value": "0"
        },
        "fund_flow": [],
        "token_infos": [
            {
                "address": "0xc02aaa39b223fe8d0a0e5c4f27ead9083c756cc2",
                "decimals": 18
            },
            {
                "address": "0xeeeeeeeeeeeeeeeeeeeeeeeeeeeeeeeeeeeeeeee",
                "decimals": 18
            }
        ]
    },
    "address_label": {
        "labels": [
            {
                "address": "0x5d25eef8cfedaa47d31fe2346726de1c21e342fb",
                "label": "StrategyManager"
            },
            {
                "address": "0xef31c292801f24f16479dd83197f1e6aebb8d6d8",
                "label": "Slasher"
            },
            {
                "address": "0x0000000000000000000000000000000000000004",
                "label": "Precompiled"
            },
            {
                "address": "0x0000000000000000000000000000000000000000",
                "label": "Null Address"
            },
            {
                "address": "0x0000000000000000000000000000000000000002",
                "label": "Precompiled"
            },
            {
                "address": "0xf97e97649da958d290e84e6d571c32f4b7f475e4",
                "label": "DelegationManager"
            },
            {
                "address": "0xd92145c07f8ed1d392c1b88017934e301cc1c3cd",
                "label": "EigenLayer: Slasher"
            },
            {
                "address": "0x0000000000000000000000000000000000000001",
                "label": "Precompiled"
            },
            {
                "address": "0x0000000000000000000000000000000000000003",
                "label": "Precompiled"
            },
            {
                "address": "0x858646372cc42e1a627fce94aa7a7033e7cf075a",
                "label": "EigenLayer: Strategy Manager"
            },
            {
                "address": "0x0fe4f44bee93503346a3ac9ee5a26b130a5796d6",
                "label": "TransparentUpgradeableProxy_0fe4_96d6"
            },
            {
                "address": "0xeeeeeeeeeeeeeeeeeeeeeeeeeeeeeeeeeeeeeeee",
                "label": "Ether"
            },
            {
                "address": "0x39053d51b77dc0d36036fc1fcc8cb819df8ef37a",
                "label": "EigenLayer: Delegation"
            }
        ]
    },
    "trace": {
        "accountLabels": null,
        "dataMap": {
            "-1": {
                "invocation": {
                    "address": "0xaa2b5756e708dd5db4b7ef204f6e9ce54e8d4734",
                    "callData": "",
                    "decodedMethod": null,
                    "errorInfo": "",
                    "fromAddress": "",
                    "gasUsed": 0,
                    "id": -1,
                    "methodDecoded": false,
                    "operation": "",
                    "output": "",
                    "revert": false,
                    "revertMessage": "",
                    "selector": "",
                    "status": false,
                    "value": ""
                },
                "nodeType": 0
            },
            "0": {
                "invocation": {
                    "address": "0x858646372cc42e1a627fce94aa7a7033e7cf075a",
                    "callData": "0x00000000000000000000000000000000000000000000000000000000000000a000000000000000000000000000000000000000000000000000000000000000e00000000000000000000000000000000000000000000000000000000000000120000000000000000000000000aa2b5756e708dd5db4b7ef204f6e9ce54e8d473400000000000000000000000000000000000000000000000000000000000000000000000000000000000000000000000000000000000000000000000000000001000000000000000000000000000000000000000000000000000000000000000000000000000000000000000000000000000000000000000000000000000000010000000000000000000000000fe4f44bee93503346a3ac9ee5a26b130a5796d600000000000000000000000000000000000000000000000000000000000000010000000000000000000000000000000000000000000000004248cfebbcf159a7",
                    "decodedMethod": {
                        "callParams": [
                            {
                                "name": "strategyIndexes",
                                "type": "uint256[]",
                                "value": [
                                    "0"
                                ]
                            },
                            {
                                "name": "strategies",
                                "type": "address[]",
                                "value": [
                                    "0x0fe4f44bee93503346a3ac9ee5a26b130a5796d6"
                                ]
                            },
                            {
                                "name": "shares",
                                "type": "uint256[]",
                                "value": [
                                    "4,776,296,016,220,608,935"
                                ]
                            },
                            {
                                "name": "withdrawer",
                                "type": "address",
                                "value": "0xaa2b5756e708dd5db4b7ef204f6e9ce54e8d4734"
                            },
                            {
                                "name": "undelegateIfPossible",
                                "type": "bool",
                                "value": false
                            }
                        ],
                        "constructorArguments": "",
                        "name": "queueWithdrawal",
                        "returnParams": [
                            {
                                "name": "",
                                "type": "bytes32",
                                "value": "0xfc411f79c475bfdb404ffb37bcf127a9bebc1a6fe04cba47f1819ffd4b6bb4d7"
                            }
                        ],
                        "signature": "queueWithdrawal(uint256[],address[],uint256[],address,bool)"
                    },
                    "errorInfo": "",
                    "fromAddress": "0xaa2b5756e708dd5db4b7ef204f6e9ce54e8d4734",
                    "gasUsed": 121222,
                    "id": 0,
                    "methodDecoded": true,
                    "operation": "CALL",
                    "output": "0xfc411f79c475bfdb404ffb37bcf127a9bebc1a6fe04cba47f1819ffd4b6bb4d7",
                    "revert": false,
                    "revertMessage": "",
                    "selector": "0xf123991e",
                    "status": true,
                    "value": "0"
                },
                "nodeType": 0
            },
            "1": {
                "invocation": {
                    "address": "0x5d25eef8cfedaa47d31fe2346726de1c21e342fb",
                    "callData": "0x00000000000000000000000000000000000000000000000000000000000000a000000000000000000000000000000000000000000000000000000000000000e00000000000000000000000000000000000000000000000000000000000000120000000000000000000000000aa2b5756e708dd5db4b7ef204f6e9ce54e8d473400000000000000000000000000000000000000000000000000000000000000000000000000000000000000000000000000000000000000000000000000000001000000000000000000000000000000000000000000000000000000000000000000000000000000000000000000000000000000000000000000000000000000010000000000000000000000000fe4f44bee93503346a3ac9ee5a26b130a5796d600000000000000000000000000000000000000000000000000000000000000010000000000000000000000000000000000000000000000004248cfebbcf159a7",
                    "decodedMethod": {
                        "callParams": [
                            {
                                "name": "strategyIndexes",
                                "type": "uint256[]",
                                "value": [
                                    "0"
                                ]
                            },
                            {
                                "name": "strategies",
                                "type": "address[]",
                                "value": [
                                    "0x0fe4f44bee93503346a3ac9ee5a26b130a5796d6"
                                ]
                            },
                            {
                                "name": "shares",
                                "type": "uint256[]",
                                "value": [
                                    "4,776,296,016,220,608,935"
                                ]
                            },
                            {
                                "name": "withdrawer",
                                "type": "address",
                                "value": "0xaa2b5756e708dd5db4b7ef204f6e9ce54e8d4734"
                            },
                            {
                                "name": "undelegateIfPossible",
                                "type": "bool",
                                "value": false
                            }
                        ],
                        "constructorArguments": "",
                        "name": "queueWithdrawal",
                        "returnParams": [
                            {
                                "name": "",
                                "type": "bytes32",
                                "value": "0xfc411f79c475bfdb404ffb37bcf127a9bebc1a6fe04cba47f1819ffd4b6bb4d7"
                            }
                        ],
                        "signature": "queueWithdrawal(uint256[],address[],uint256[],address,bool)"
                    },
                    "errorInfo": "",
                    "fromAddress": "0x858646372cc42e1a627fce94aa7a7033e7cf075a",
                    "gasUsed": 107914,
                    "id": 1,
                    "methodDecoded": true,
                    "operation": "DELEGATECALL",
                    "output": "0xfc411f79c475bfdb404ffb37bcf127a9bebc1a6fe04cba47f1819ffd4b6bb4d7",
                    "revert": false,
                    "revertMessage": "",
                    "selector": "0xf123991e",
                    "status": true,
                    "value": "0"
                },
                "nodeType": 0
            },
            "10": {
                "invocation": {
                    "address": "0xf97e97649da958d290e84e6d571c32f4b7f475e4",
                    "callData": "0x000000000000000000000000aa2b5756e708dd5db4b7ef204f6e9ce54e8d4734",
                    "decodedMethod": {
                        "callParams": [
                            {
                                "name": "",
                                "type": "address",
                                "value": "0xaa2b5756e708dd5db4b7ef204f6e9ce54e8d4734"
                            }
                        ],
                        "constructorArguments": "",
                        "name": "delegatedTo",
                        "returnParams": [
                            {
                                "name": "",
                                "type": "address",
                                "value": "0x0000000000000000000000000000000000000000"
                            }
                        ],
                        "signature": "delegatedTo(address)"
                    },
                    "errorInfo": "",
                    "fromAddress": "0x39053d51b77dc0d36036fc1fcc8cb819df8ef37a",
                    "gasUsed": 598,
                    "id": 10,
                    "methodDecoded": true,
                    "operation": "DELEGATECALL",
                    "output": "0x0000000000000000000000000000000000000000000000000000000000000000",
                    "revert": false,
                    "revertMessage": "",
                    "selector": "0x65da1264",
                    "status": true,
                    "value": "0"
                },
                "nodeType": 0
            },
            "11": {
                "event": {
                    "contract": "0x858646372cc42e1a627fce94aa7a7033e7cf075a",
                    "decodedLog": {
                        "name": "WithdrawalQueued",
                        "params": [
                            {
                                "name": "depositor",
                                "type": "address",
                                "value": "0xaa2b5756e708dd5db4b7ef204f6e9ce54e8d4734"
                            },
                            {
                                "name": "nonce",
                                "type": "uint96",
                                "value": "0"
                            },
                            {
                                "name": "withdrawer",
                                "type": "address",
                                "value": "0xaa2b5756e708dd5db4b7ef204f6e9ce54e8d4734"
                            },
                            {
                                "name": "delegatedAddress",
                                "type": "address",
                                "value": "0x0000000000000000000000000000000000000000"
                            },
                            {
                                "name": "withdrawalRoot",
                                "type": "bytes32",
                                "value": "0xfc411f79c475bfdb404ffb37bcf127a9bebc1a6fe04cba47f1819ffd4b6bb4d7"
                            }
                        ],
                        "signature": "WithdrawalQueued(address,uint96,address,address,bytes32)"
                    },
                    "id": 11,
                    "logData": "0x000000000000000000000000aa2b5756e708dd5db4b7ef204f6e9ce54e8d47340000000000000000000000000000000000000000000000000000000000000000000000000000000000000000aa2b5756e708dd5db4b7ef204f6e9ce54e8d47340000000000000000000000000000000000000000000000000000000000000000fc411f79c475bfdb404ffb37bcf127a9bebc1a6fe04cba47f1819ffd4b6bb4d7",
                    "logDecoded": true,
                    "operation": "EVENT",
                    "revert": false,
                    "status": true,
                    "topics": [
                        "0x32cf9fc97155f52860a59a99879a2e89c1e53f28126a9ab6a2ff29344299e674"
                    ]
                },
                "nodeType": 1
            },
            "2": {
                "invocation": {
                    "address": "0xd92145c07f8ed1d392c1b88017934e301cc1c3cd",
                    "callData": "0x000000000000000000000000aa2b5756e708dd5db4b7ef204f6e9ce54e8d4734",
                    "decodedMethod": {
                        "callParams": [
                            {
                                "name": "staker",
                                "type": "address",
                                "value": "0xaa2b5756e708dd5db4b7ef204f6e9ce54e8d4734"
                            }
                        ],
                        "constructorArguments": "",
                        "name": "isFrozen",
                        "returnParams": [
                            {
                                "name": "",
                                "type": "bool",
                                "value": false
                            }
                        ],
                        "signature": "isFrozen(address)"
                    },
                    "errorInfo": "",
                    "fromAddress": "0x858646372cc42e1a627fce94aa7a7033e7cf075a",
                    "gasUsed": 22795,
                    "id": 2,
                    "methodDecoded": true,
                    "operation": "STATICCALL",
                    "output": "0x0000000000000000000000000000000000000000000000000000000000000000",
                    "revert": false,
                    "revertMessage": "",
                    "selector": "0xe5839836",
                    "status": true,
                    "value": "0"
                },
                "nodeType": 0
            },
            "3": {
                "invocation": {
                    "address": "0xef31c292801f24f16479dd83197f1e6aebb8d6d8",
                    "callData": "0x000000000000000000000000aa2b5756e708dd5db4b7ef204f6e9ce54e8d4734",
                    "decodedMethod": {
                        "callParams": [
                            {
                                "name": "staker",
                                "type": "address",
                                "value": "0xaa2b5756e708dd5db4b7ef204f6e9ce54e8d4734"
                            }
                        ],
                        "constructorArguments": "",
                        "name": "isFrozen",
                        "returnParams": [
                            {
                                "name": "",
                                "type": "bool",
                                "value": false
                            }
                        ],
                        "signature": "isFrozen(address)"
                    },
                    "errorInfo": "",
                    "fromAddress": "0xd92145c07f8ed1d392c1b88017934e301cc1c3cd",
                    "gasUsed": 15476,
                    "id": 3,
                    "methodDecoded": true,
                    "operation": "DELEGATECALL",
                    "output": "0x0000000000000000000000000000000000000000000000000000000000000000",
                    "revert": false,
                    "revertMessage": "",
                    "selector": "0xe5839836",
                    "status": true,
                    "value": "0"
                },
                "nodeType": 0
            },
            "4": {
                "invocation": {
                    "address": "0x39053d51b77dc0d36036fc1fcc8cb819df8ef37a",
                    "callData": "0x000000000000000000000000aa2b5756e708dd5db4b7ef204f6e9ce54e8d4734",
                    "decodedMethod": {
                        "callParams": [
                            {
                                "name": "staker",
                                "type": "address",
                                "value": "0xaa2b5756e708dd5db4b7ef204f6e9ce54e8d4734"
                            }
                        ],
                        "constructorArguments": "",
                        "name": "isDelegated",
                        "returnParams": [
                            {
                                "name": "",
                                "type": "bool",
                                "value": false
                            }
                        ],
                        "signature": "isDelegated(address)"
                    },
                    "errorInfo": "",
                    "fromAddress": "0xd92145c07f8ed1d392c1b88017934e301cc1c3cd",
                    "gasUsed": 9928,
                    "id": 4,
                    "methodDecoded": true,
                    "operation": "STATICCALL",
                    "output": "0x0000000000000000000000000000000000000000000000000000000000000000",
                    "revert": false,
                    "revertMessage": "",
                    "selector": "0x3e28391d",
                    "status": true,
                    "value": "0"
                },
                "nodeType": 0
            },
            "5": {
                "invocation": {
                    "address": "0xf97e97649da958d290e84e6d571c32f4b7f475e4",
                    "callData": "0x000000000000000000000000aa2b5756e708dd5db4b7ef204f6e9ce54e8d4734",
                    "decodedMethod": {
                        "callParams": [
                            {
                                "name": "staker",
                                "type": "address",
                                "value": "0xaa2b5756e708dd5db4b7ef204f6e9ce54e8d4734"
                            }
                        ],
                        "constructorArguments": "",
                        "name": "isDelegated",
                        "returnParams": [
                            {
                                "name": "",
                                "type": "bool",
                                "value": false
                            }
                        ],
                        "signature": "isDelegated(address)"
                    },
                    "errorInfo": "",
                    "fromAddress": "0x39053d51b77dc0d36036fc1fcc8cb819df8ef37a",
                    "gasUsed": 2609,
                    "id": 5,
                    "methodDecoded": true,
                    "operation": "DELEGATECALL",
                    "output": "0x0000000000000000000000000000000000000000000000000000000000000000",
                    "revert": false,
                    "revertMessage": "",
                    "selector": "0x3e28391d",
                    "status": true,
                    "value": "0"
                },
                "nodeType": 0
            },
            "6": {
                "invocation": {
                    "address": "0x39053d51b77dc0d36036fc1fcc8cb819df8ef37a",
                    "callData": "0x000000000000000000000000aa2b5756e708dd5db4b7ef204f6e9ce54e8d4734000000000000000000000000000000000000000000000000000000000000006000000000000000000000000000000000000000000000000000000000000000a000000000000000000000000000000000000000000000000000000000000000010000000000000000000000000fe4f44bee93503346a3ac9ee5a26b130a5796d600000000000000000000000000000000000000000000000000000000000000010000000000000000000000000000000000000000000000004248cfebbcf159a7",
                    "decodedMethod": {
                        "callParams": [
                            {
                                "name": "staker",
                                "type": "address",
                                "value": "0xaa2b5756e708dd5db4b7ef204f6e9ce54e8d4734"
                            },
                            {
                                "name": "strategies",
                                "type": "address[]",
                                "value": [
                                    "0x0fe4f44bee93503346a3ac9ee5a26b130a5796d6"
                                ]
                            },
                            {
                                "name": "shares",
                                "type": "uint256[]",
                                "value": [
                                    "4,776,296,016,220,608,935"
                                ]
                            }
                        ],
                        "constructorArguments": "",
                        "name": "decreaseDelegatedShares",
                        "returnParams": [],
                        "signature": "decreaseDelegatedShares(address,address[],uint256[])"
                    },
                    "errorInfo": "",
                    "fromAddress": "0x858646372cc42e1a627fce94aa7a7033e7cf075a",
                    "gasUsed": 1949,
                    "id": 6,
                    "methodDecoded": true,
                    "operation": "CALL",
                    "output": "",
                    "revert": false,
                    "revertMessage": "",
                    "selector": "0x5820491c",
                    "status": true,
                    "value": "0"
                },
                "nodeType": 0
            },
            "7": {
                "invocation": {
                    "address": "0xf97e97649da958d290e84e6d571c32f4b7f475e4",
                    "callData": "0x000000000000000000000000aa2b5756e708dd5db4b7ef204f6e9ce54e8d4734000000000000000000000000000000000000000000000000000000000000006000000000000000000000000000000000000000000000000000000000000000a000000000000000000000000000000000000000000000000000000000000000010000000000000000000000000fe4f44bee93503346a3ac9ee5a26b130a5796d600000000000000000000000000000000000000000000000000000000000000010000000000000000000000000000000000000000000000004248cfebbcf159a7",
                    "decodedMethod": {
                        "callParams": [
                            {
                                "name": "staker",
                                "type": "address",
                                "value": "0xaa2b5756e708dd5db4b7ef204f6e9ce54e8d4734"
                            },
                            {
                                "name": "strategies",
                                "type": "address[]",
                                "value": [
                                    "0x0fe4f44bee93503346a3ac9ee5a26b130a5796d6"
                                ]
                            },
                            {
                                "name": "shares",
                                "type": "uint256[]",
                                "value": [
                                    "4,776,296,016,220,608,935"
                                ]
                            }
                        ],
                        "constructorArguments": "",
                        "name": "decreaseDelegatedShares",
                        "returnParams": [],
                        "signature": "decreaseDelegatedShares(address,address[],uint256[])"
                    },
                    "errorInfo": "",
                    "fromAddress": "0x39053d51b77dc0d36036fc1fcc8cb819df8ef37a",
                    "gasUsed": 1100,
                    "id": 7,
                    "methodDecoded": true,
                    "operation": "DELEGATECALL",
                    "output": "",
                    "revert": false,
                    "revertMessage": "",
                    "selector": "0x5820491c",
                    "status": true,
                    "value": "0"
                },
                "nodeType": 0
            },
            "8": {
                "event": {
                    "contract": "0x858646372cc42e1a627fce94aa7a7033e7cf075a",
                    "decodedLog": {
                        "name": "ShareWithdrawalQueued",
                        "params": [
                            {
                                "name": "depositor",
                                "type": "address",
                                "value": "0xaa2b5756e708dd5db4b7ef204f6e9ce54e8d4734"
                            },
                            {
                                "name": "nonce",
                                "type": "uint96",
                                "value": "0"
                            },
                            {
                                "name": "strategy",
                                "type": "address",
                                "value": "0x0fe4f44bee93503346a3ac9ee5a26b130a5796d6"
                            },
                            {
                                "name": "shares",
                                "type": "uint256",
                                "value": "4,776,296,016,220,608,935"
                            }
                        ],
                        "signature": "ShareWithdrawalQueued(address,uint96,address,uint256)"
                    },
                    "id": 8,
                    "logData": "0x000000000000000000000000aa2b5756e708dd5db4b7ef204f6e9ce54e8d473400000000000000000000000000000000000000000000000000000000000000000000000000000000000000000fe4f44bee93503346a3ac9ee5a26b130a5796d60000000000000000000000000000000000000000000000004248cfebbcf159a7",
                    "logDecoded": true,
                    "operation": "EVENT",
                    "revert": false,
                    "status": true,
                    "topics": [
                        "0xcf1c2370141bbd0a6d971beb0e3a2455f24d6e773ddc20ccc1c4e32f3dd9f9f7"
                    ]
                },
                "nodeType": 1
            },
            "9": {
                "invocation": {
                    "address": "0x39053d51b77dc0d36036fc1fcc8cb819df8ef37a",
                    "callData": "0x000000000000000000000000aa2b5756e708dd5db4b7ef204f6e9ce54e8d4734",
                    "decodedMethod": {
                        "callParams": [
                            {
                                "name": "",
                                "type": "address",
                                "value": "0xaa2b5756e708dd5db4b7ef204f6e9ce54e8d4734"
                            }
                        ],
                        "constructorArguments": "",
                        "name": "delegatedTo",
                        "returnParams": [
                            {
                                "name": "",
                                "type": "address",
                                "value": "0x0000000000000000000000000000000000000000"
                            }
                        ],
                        "signature": "delegatedTo(address)"
                    },
                    "errorInfo": "",
                    "fromAddress": "0x858646372cc42e1a627fce94aa7a7033e7cf075a",
                    "gasUsed": 1417,
                    "id": 9,
                    "methodDecoded": true,
                    "operation": "STATICCALL",
                    "output": "0x0000000000000000000000000000000000000000000000000000000000000000",
                    "revert": false,
                    "revertMessage": "",
                    "selector": "0x65da1264",
                    "status": true,
                    "value": "0"
                },
                "nodeType": 0
            }
        },
        "gasFlame": [
            {
                "children": [
                    {
                        "children": [
                            {
                                "children": [],
                                "depth": 0,
                                "name": "Initial Gas",
                                "value": 23132
                            },
                            {
                                "children": [
                                    {
                                        "children": [
                                            {
                                                "children": [
                                                    {
                                                        "children": [
                                                            {
                                                                "children": [
                                                                    {
                                                                        "children": [],
                                                                        "depth": 5,
                                                                        "name": "isDelegated",
                                                                        "value": 2609
                                                                    }
                                                                ],
                                                                "depth": 4,
                                                                "name": "isDelegated",
                                                                "value": 9928
                                                            }
                                                        ],
                                                        "depth": 3,
                                                        "name": "isFrozen",
                                                        "value": 15476
                                                    }
                                                ],
                                                "depth": 2,
                                                "name": "isFrozen",
                                                "value": 22795
                                            },
                                            {
                                                "children": [
                                                    {
                                                        "children": [],
                                                        "depth": 3,
                                                        "name": "decreaseDelegatedShares",
                                                        "value": 1100
                                                    }
                                                ],
                                                "depth": 2,
                                                "name": "decreaseDelegatedShares",
                                                "value": 1949
                                            },
                                            {
                                                "children": [
                                                    {
                                                        "children": [],
                                                        "depth": 3,
                                                        "name": "delegatedTo",
                                                        "value": 598
                                                    }
                                                ],
                                                "depth": 2,
                                                "name": "delegatedTo",
                                                "value": 1417
                                            }
                                        ],
                                        "depth": 1,
                                        "name": "queueWithdrawal",
                                        "value": 107914
                                    }
                                ],
                                "depth": 0,
                                "name": "Executed Gas",
                                "value": 115290
                            }
                        ],
                        "depth": -1,
                        "name": "Actual Gas Used",
                        "value": 121222
                    },
                    {
                        "children": [],
                        "depth": -1,
                        "name": "Refunded Gas",
                        "value": 17200
                    }
                ],
                "depth": -2,
                "name": "Total Gas",
                "value": 138422
            }
        ],
        "isConfirmed": true,
        "mainTrace": [
            {
                "children": [
                    {
                        "children": [
                            {
                                "children": [
                                    {
                                        "children": [
                                            {
                                                "children": [
                                                    {
                                                        "children": [
                                                            {
                                                                "children": [],
                                                                "depth": 5,
                                                                "id": 5,
                                                                "order": 5
                                                            }
                                                        ],
                                                        "depth": 4,
                                                        "id": 4,
                                                        "order": 4
                                                    }
                                                ],
                                                "depth": 3,
                                                "id": 3,
                                                "order": 3
                                            }
                                        ],
                                        "depth": 2,
                                        "id": 2,
                                        "order": 2
                                    },
                                    {
                                        "children": [
                                            {
                                                "children": [],
                                                "depth": 3,
                                                "id": 7,
                                                "order": 7
                                            }
                                        ],
                                        "depth": 2,
                                        "id": 6,
                                        "order": 6
                                    },
                                    {
                                        "children": [],
                                        "depth": 2,
                                        "id": 8,
                                        "order": 8
                                    },
                                    {
                                        "children": [
                                            {
                                                "children": [],
                                                "depth": 3,
                                                "id": 10,
                                                "order": 10
                                            }
                                        ],
                                        "depth": 2,
                                        "id": 9,
                                        "order": 9
                                    },
                                    {
                                        "children": [],
                                        "depth": 2,
                                        "id": 11,
                                        "order": 11
                                    }
                                ],
                                "depth": 1,
                                "id": 1,
                                "order": 1
                            }
                        ],
                        "depth": 0,
                        "id": 0,
                        "order": 0
                    }
                ],
                "depth": -1,
                "id": -1,
                "order": -1
            }
        ],
        "mainTraceNodeCount": 12,
        "parentIdMap": {
            "0": -1,
            "1": 0,
            "10": 9,
            "11": 1,
            "2": 1,
            "3": 2,
            "4": 3,
            "5": 4,
            "6": 1,
            "7": 6,
            "8": 1,
            "9": 1
        },
        "tidyTrace": [
            {
                "children": [
                    {
                        "children": [
                            {
                                "children": [
                                    {
                                        "children": [
                                            {
                                                "children": [],
                                                "depth": 3,
                                                "id": 7,
                                                "order": 7
                                            }
                                        ],
                                        "depth": 2,
                                        "id": 6,
                                        "order": 6
                                    },
                                    {
                                        "children": [],
                                        "depth": 2,
                                        "id": 8,
                                        "order": 8
                                    },
                                    {
                                        "children": [],
                                        "depth": 2,
                                        "id": 11,
                                        "order": 11
                                    }
                                ],
                                "depth": 1,
                                "id": 1,
                                "order": 1
                            }
                        ],
                        "depth": 0,
                        "id": 0,
                        "order": 0
                    }
                ],
                "depth": -1,
                "id": -1,
                "order": -1
            }
        ],
        "tidyTraceNodeCount": 6
    },
    "state_change": {
        "stateChanges": [
            {
                "address": "0x858646372cc42e1a627fce94aa7a7033e7cf075a",
                "erc": "",
                "slots": [
                    {
                        "current": "0x0000000000000000000000000000000000000000000000000000000000000000",
                        "key": "0x99b7c7885316db911bdbc4a4bdbdd8527db35df54366cdc2c6ae89db74a69d84",
                        "prev": "0x0000000000000000000000000000000000000000000000004248cfebbcf159a7"
                    },
                    {
                        "current": "0x0000000000000000000000000000000000000000000000000000000000000000",
                        "key": "0x9168395e7f61a25e0a99cb826c9e86ffcb3c1a3dffa58b36995fcb047f01fddc",
                        "prev": "0x0000000000000000000000000fe4f44bee93503346a3ac9ee5a26b130a5796d6"
                    },
                    {
                        "current": "0x0000000000000000000000000000000000000000000000000000000000000000",
                        "key": "0x9c27b7104667e815f4c133a28f2a057d28d90dd74828a9e67e2e156122f56197",
                        "prev": "0x0000000000000000000000000000000000000000000000000000000000000001"
                    },
                    {
                        "current": "0x0000000000000000000000000000000000000000000000000000000000000001",
                        "key": "0x514db8325b47cb1cbd9cc7cdd5550f18651413168ec7a85da2cc946c8a13875e",
                        "prev": "0x0000000000000000000000000000000000000000000000000000000000000000"
                    },
                    {
                        "current": "0x0000000000000000000000000000000000000000000000000000000000000001",
                        "key": "0x785ad856a8f36eed5a4fba577ba61b53917347cd12f72568517f0c254ed40ac2",
                        "prev": "0x0000000000000000000000000000000000000000000000000000000000000000"
                    }
                ],
                "storageVariables": [
                    {
                        "name": "numWithdrawalsQueued",
                        "type": "mapping(address => uint256)",
                        "value": {
                            "pairs": [
                                {
                                    "key": "0xaa2b5756e708dd5db4b7ef204f6e9ce54e8d4734",
                                    "value": {
                                        "current": "1",
                                        "prev": "0",
                                        "typeTag": 1
                                    }
                                }
                            ],
                            "typeTag": 4
                        }
                    },
                    {
                        "name": "withdrawalRootPending",
                        "type": "mapping(bytes32 => bool)",
                        "value": {
                            "pairs": [
                                {
                                    "key": "0xfc411f79c475bfdb404ffb37bcf127a9bebc1a6fe04cba47f1819ffd4b6bb4d7",
                                    "value": {
                                        "current": "true",
                                        "prev": "false",
                                        "typeTag": 1
                                    }
                                }
                            ],
                            "typeTag": 4
                        }
                    },
                    {
                        "name": "stakerStrategyShares",
                        "type": "mapping(address => mapping(contract IStrategy => uint256))",
                        "value": {
                            "pairs": [
                                {
                                    "key": "0xaa2b5756e708dd5db4b7ef204f6e9ce54e8d4734",
                                    "value": {
                                        "pairs": [
                                            {
                                                "key": "0x0fe4f44bee93503346a3ac9ee5a26b130a5796d6",
                                                "value": {
                                                    "current": "0",
                                                    "prev": "4776296016220608935",
                                                    "typeTag": 1
                                                }
                                            }
                                        ],
                                        "typeTag": 4
                                    }
                                }
                            ],
                            "typeTag": 4
                        }
                    }
                ]
            }
        ]
    }
}