{
    "balance_change": {
        "balanceChanges": []
    },
    "profile": {
        "basic_info": {
            "baseFee": "",
            "blockNumber": 7439923,
            "callData": "0x23b872dd000000000000000000000000c86e82274208a4e05df7930b85b21f6090e1080400000000000000000000000074775a236d94fba1d63e92d4f2a4ea700b38f5af000000000000000000000000000000000000000000000000000000000000e995",
            "debugEnable": true,
            "errorInfo": "execution reverted",
            "eventCount": 0,
            "feeRecipient": "0x52bc44d5378309ee2abf1539bf71de1b7d7be3b5",
            "formatValue": "0",
            "gasLimit": 7600027,
            "gasPrice": "1",
            "gasUsed": 26453,
            "intTxnCount": 0,
            "internalRevert": false,
            "internalRevertMessage": "",
            "isContractCreation": false,
            "isFlashloan": false,
            "maxFee": "",
            "nonce": 147,
            "overwritedBlockNumber": -1,
            "priorityFee": "",
            "receiver": "0x06a6a7af298129e3a2ab396c9c06f91d3c54aba8",
            "revertMessage": "",
            "sender": "0xc86e82274208a4e05df7930b85b21f6090e10804",
            "simulationEnable": true,
            "sourceTxnHash": "0x4729822c43b6ca352337c9c30e82044887933545ac8fc6eabc40251bc08a079d",
            "status": false,
            "timestamp": "2019-03-25T20:15:56Z",
            "transactionFee": "0.000026453",
            "txnHash": "0x4729822c43b6ca352337c9c30e82044887933545ac8fc6eabc40251bc08a079d",
            "txnIndex": 7,
            "type": 0,
            "value": "0"
        },
        "fund_flow": [],
        "token_infos": [
            {
                "address": "0xc02aaa39b223fe8d0a0e5c4f27ead9083c756cc2",
                "decimals": 18
            },
            {
                "address": "0xeeeeeeeeeeeeeeeeeeeeeeeeeeeeeeeeeeeeeeee",
                "decimals": 18
            }
        ]
    },
    "address_label": {
        "labels": [
            {
                "address": "0x0000000000000000000000000000000000000002",
                "label": "Precompiled"
            },
            {
                "address": "0x0000000000000000000000000000000000000003",
                "label": "Precompiled"
            },
            {
                "address": "0x0000000000000000000000000000000000000004",
                "label": "Precompiled"
            },
            {
                "address": "0xeeeeeeeeeeeeeeeeeeeeeeeeeeeeeeeeeeeeeeee",
                "label": "Ether"
            },
            {
                "address": "0x06a6a7af298129e3a2ab396c9c06f91d3c54aba8",
                "label": "0xUniverse: PLANET Token"
            },
            {
                "address": "0x0000000000000000000000000000000000000001",
                "label": "Precompiled"
            }
        ]
    },
    "trace": {
        "accountLabels": null,
        "dataMap": {
            "-1": {
                "invocation": {
                    "address": "0xc86e82274208a4e05df7930b85b21f6090e10804",
                    "callData": "",
                    "decodedMethod": null,
                    "errorInfo": "",
                    "fromAddress": "",
                    "gasUsed": 0,
                    "id": -1,
                    "methodDecoded": false,
                    "operation": "",
                    "output": "",
                    "revert": false,
                    "revertMessage": "",
                    "selector": "",
                    "status": false,
                    "value": ""
                },
                "nodeType": 0
            },
            "0": {
                "invocation": {
                    "address": "0x06a6a7af298129e3a2ab396c9c06f91d3c54aba8",
                    "callData": "0x000000000000000000000000c86e82274208a4e05df7930b85b21f6090e1080400000000000000000000000074775a236d94fba1d63e92d4f2a4ea700b38f5af000000000000000000000000000000000000000000000000000000000000e995",
                    "decodedMethod": {
                        "callParams": [
                            {
                                "name": "_from",
                                "type": "address",
                                "value": "0xc86e82274208a4e05df7930b85b21f6090e10804"
                            },
                            {
                                "name": "_to",
                                "type": "address",
                                "value": "0x74775a236d94fba1d63e92d4f2a4ea700b38f5af"
                            },
                            {
                                "decimalAvailable": true,
                                "name": "_tokenId",
                                "type": "uint256",
                                "value": "59,797"
                            }
                        ],
                        "constructorArguments": "",
                        "name": "transferFrom",
                        "returnParams": [],
                        "signature": "transferFrom(address,address,uint256)"
                    },
                    "errorInfo": "execution reverted",
                    "fromAddress": "0xc86e82274208a4e05df7930b85b21f6090e10804",
                    "gasUsed": 26453,
                    "id": 0,
                    "methodDecoded": true,
                    "operation": "CALL",
                    "output": "",
                    "revert": true,
                    "revertMessage": "",
                    "selector": "0x23b872dd",
                    "status": false,
                    "value": "0"
                },
                "nodeType": 0
            }
        },
        "gasFlame": [
            {
                "children": [
                    {
                        "children": [
                            {
                                "children": [],
                                "depth": 0,
                                "name": "Initial Gas",
                                "value": 24344
                            },
                            {
                                "children": [],
                                "depth": 0,
                                "name": "Executed Gas",
                                "value": 2109
                            }
                        ],
                        "depth": -1,
                        "name": "Actual Gas Used",
                        "value": 26453
                    },
                    {
                        "children": [],
                        "depth": -1,
                        "name": "Refunded Gas",
                        "value": 0
                    }
                ],
                "depth": -2,
                "name": "Total Gas",
                "value": 26453
            }
        ],
        "isConfirmed": true,
        "mainTrace": [
            {
                "children": [
                    {
                        "children": [],
                        "depth": 0,
                        "id": 0,
                        "order": 0
                    }
                ],
                "depth": -1,
                "id": -1,
                "order": -1
            }
        ],
        "mainTraceNodeCount": 1,
        "parentIdMap": {
            "0": -1
        },
        "tidyTrace": [
            {
                "children": [
                    {
                        "children": [],
                        "depth": 0,
                        "id": 0,
                        "order": 0
                    }
                ],
                "depth": -1,
                "id": -1,
                "order": -1
            }
        ],
        "tidyTraceNodeCount": 1
    },
    "state_change": {
        "stateChanges": []
    }
}