{
    "balance_change": {
        "balanceChanges": [
            {
                "account": "0xb4f2a56d5b9099add8b0bf5890652e4c721e33eb",
                "assets": [
                    {
                        "address": "0x08ceed1e8db59acbb687a5752f0a7db815cfda5e",
                        "amount": "36",
                        "iconUrl": "",
                        "isERC1155": false,
                        "isERC721": false,
                        "sign": false,
                        "value": ""
                    }
                ]
            },
            {
                "account": "0x33b18f8d406d53136efeef2f4bc05f69d7a47813",
                "assets": [
                    {
                        "address": "0x08ceed1e8db59acbb687a5752f0a7db815cfda5e",
                        "amount": "36",
                        "iconUrl": "",
                        "isERC1155": false,
                        "isERC721": false,
                        "sign": true,
                        "value": ""
                    }
                ]
            }
        ]
    },
    "profile": {
        "basic_info": {
            "baseFee": "",
            "blockNumber": 6656758,
            "callData": "0xa9059cbb00000000000000000000000033b18f8d406d53136efeef2f4bc05f69d7a47813000000000000000000000000000000000000000000000001f399b1438a100000",
            "debugEnable": true,
            "errorInfo": "",
            "eventCount": 1,
            "feeRecipient": "0xea674fdde714fd979de3edf0f56aa9716b898ec8",
            "formatValue": "0",
            "gasLimit": 52345,
            "gasPrice": "6",
            "gasUsed": 52345,
            "intTxnCount": 0,
            "internalRevert": false,
            "internalRevertMessage": "",
            "isContractCreation": false,
            "isFlashloan": false,
            "maxFee": "",
            "nonce": 1113,
            "overwritedBlockNumber": -1,
            "priorityFee": "",
            "receiver": "0x08ceed1e8db59acbb687a5752f0a7db815cfda5e",
            "revertMessage": "",
            "sender": "0xb4f2a56d5b9099add8b0bf5890652e4c721e33eb",
            "simulationEnable": true,
            "sourceTxnHash": "0x472fdfe6c777f7243149a2152266f438ba86c5dbbee17dabf52aa4c2ec257a84",
            "status": true,
            "timestamp": "2018-11-06T23:05:11Z",
            "transactionFee": "0.00031407",
            "txnHash": "0x472fdfe6c777f7243149a2152266f438ba86c5dbbee17dabf52aa4c2ec257a84",
            "txnIndex": 27,
            "type": 0,
            "value": "0"
        },
        "fund_flow": [
            {
                "amount": "36",
                "from": "0xb4f2a56d5b9099add8b0bf5890652e4c721e33eb",
                "id": 1,
                "isERC1155": false,
                "isERC721": false,
                "isReverted": false,
                "order": 1,
                "to": "0x33b18f8d406d53136efeef2f4bc05f69d7a47813",
                "token": "0x08ceed1e8db59acbb687a5752f0a7db815cfda5e"
            }
        ],
        "token_infos": [
            {
                "address": "0x08ceed1e8db59acbb687a5752f0a7db815cfda5e",
                "decimals": 18
            },
            {
                "address": "0xc02aaa39b223fe8d0a0e5c4f27ead9083c756cc2",
                "decimals": 18
            },
            {
                "address": "0xeeeeeeeeeeeeeeeeeeeeeeeeeeeeeeeeeeeeeeee",
                "decimals": 18
            }
        ]
    },
    "address_label": {
        "labels": [
            {
                "address": "0x0000000000000000000000000000000000000004",
                "label": "Precompiled"
            },
            {
                "address": "0xeeeeeeeeeeeeeeeeeeeeeeeeeeeeeeeeeeeeeeee",
                "label": "Ether"
            },
            {
                "address": "0x08ceed1e8db59acbb687a5752f0a7db815cfda5e",
                "label": "Electronic Energy Coin"
            },
            {
                "address": "0x0000000000000000000000000000000000000001",
                "label": "Precompiled"
            },
            {
                "address": "0x0000000000000000000000000000000000000002",
                "label": "Precompiled"
            },
            {
                "address": "0x0000000000000000000000000000000000000003",
                "label": "Precompiled"
            }
        ]
    },
    "trace": {
        "accountLabels": null,
        "dataMap": {
            "-1": {
                "invocation": {
                    "address": "0xb4f2a56d5b9099add8b0bf5890652e4c721e33eb",
                    "callData": "",
                    "decodedMethod": null,
                    "errorInfo": "",
                    "fromAddress": "",
                    "gasUsed": 0,
                    "id": -1,
                    "methodDecoded": false,
                    "operation": "",
                    "output": "",
                    "revert": false,
                    "revertMessage": "",
                    "selector": "",
                    "status": false,
                    "value": ""
                },
                "nodeType": 0
            },
            "0": {
                "invocation": {
                    "address": "0x08ceed1e8db59acbb687a5752f0a7db815cfda5e",
                    "callData": "0x00000000000000000000000033b18f8d406d53136efeef2f4bc05f69d7a47813000000000000000000000000000000000000000000000001f399b1438a100000",
                    "decodedMethod": {
                        "callParams": [
                            {
                                "name": "_to",
                                "type": "address",
                                "value": "0x33b18f8d406d53136efeef2f4bc05f69d7a47813"
                            },
                            {
                                "decimalAvailable": true,
                                "name": "_value",
                                "type": "uint256",
                                "value": "36,000,000,000,000,000,000"
                            }
                        ],
                        "constructorArguments": "",
                        "name": "transfer",
                        "returnParams": [
                            {
                                "name": "",
                                "type": "bool",
                                "value": true
                            }
                        ],
                        "signature": "transfer(address,uint256)"
                    },
                    "errorInfo": "",
                    "fromAddress": "0xb4f2a56d5b9099add8b0bf5890652e4c721e33eb",
                    "gasUsed": 52345,
                    "id": 0,
                    "methodDecoded": true,
                    "operation": "CALL",
                    "output": "0x0000000000000000000000000000000000000000000000000000000000000001",
                    "revert": false,
                    "revertMessage": "",
                    "selector": "0xa9059cbb",
                    "status": true,
                    "value": "0"
                },
                "nodeType": 0
            },
            "1": {
                "event": {
                    "contract": "0x08ceed1e8db59acbb687a5752f0a7db815cfda5e",
                    "decodedLog": {
                        "name": "Transfer",
                        "params": [
                            {
                                "name": "from",
                                "type": "address",
                                "value": "0xb4f2a56d5b9099add8b0bf5890652e4c721e33eb"
                            },
                            {
                                "name": "to",
                                "type": "address",
                                "value": "0x33b18f8d406d53136efeef2f4bc05f69d7a47813"
                            },
                            {
                                "decimalAvailable": true,
                                "name": "value",
                                "type": "uint256",
                                "value": "36,000,000,000,000,000,000"
                            }
                        ],
                        "signature": "Transfer(address,address,uint256)"
                    },
                    "id": 1,
                    "logData": "0x000000000000000000000000000000000000000000000001f399b1438a100000",
                    "logDecoded": true,
                    "operation": "EVENT",
                    "revert": false,
                    "status": true,
                    "topics": [
                        "0xddf252ad1be2c89b69c2b068fc378daa952ba7f163c4a11628f55a4df523b3ef",
                        "0x000000000000000000000000b4f2a56d5b9099add8b0bf5890652e4c721e33eb",
                        "0x00000000000000000000000033b18f8d406d53136efeef2f4bc05f69d7a47813"
                    ]
                },
                "nodeType": 1
            }
        },
        "gasFlame": [
            {
                "children": [
                    {
                        "children": [
                            {
                                "children": [],
                                "depth": 0,
                                "name": "Initial Gas",
                                "value": 23256
                            },
                            {
                                "children": [],
                                "depth": 0,
                                "name": "Executed Gas",
                                "value": 29089
                            }
                        ],
                        "depth": -1,
                        "name": "Actual Gas Used",
                        "value": 52345
                    },
                    {
                        "children": [],
                        "depth": -1,
                        "name": "Refunded Gas",
                        "value": 0
                    }
                ],
                "depth": -2,
                "name": "Total Gas",
                "value": 52345
            }
        ],
        "isConfirmed": true,
        "mainTrace": [
            {
                "children": [
                    {
                        "children": [
                            {
                                "children": [],
                                "depth": 1,
                                "id": 1,
                                "order": 1
                            }
                        ],
                        "depth": 0,
                        "id": 0,
                        "order": 0
                    }
                ],
                "depth": -1,
                "id": -1,
                "order": -1
            }
        ],
        "mainTraceNodeCount": 2,
        "parentIdMap": {
            "0": -1,
            "1": 0
        },
        "tidyTrace": [
            {
                "children": [
                    {
                        "children": [
                            {
                                "children": [],
                                "depth": 1,
                                "id": 1,
                                "order": 1
                            }
                        ],
                        "depth": 0,
                        "id": 0,
                        "order": 0
                    }
                ],
                "depth": -1,
                "id": -1,
                "order": -1
            }
        ],
        "tidyTraceNodeCount": 2
    },
    "state_change": {
        "stateChanges": [
            {
                "address": "0x08ceed1e8db59acbb687a5752f0a7db815cfda5e",
                "erc": "ERC-20",
                "slots": [
                    {
                        "current": "0x000000000000000000000000000000000000000000017221f5109a4e08380000",
                        "key": "0x107e569237940e6a10b7cf05e3f2e9d9f3914173acb5942df53b1c05f2466595",
                        "prev": "0x000000000000000000000000000000000000000000017223e8aa4b9192480000"
                    },
                    {
                        "current": "0x000000000000000000000000000000000000000000000001f399b1438a100000",
                        "key": "0xfb419b760cc0f05f27a8dc8974c4346cc7dcd071372ac9506c5e8c7642d13031",
                        "prev": "0x0000000000000000000000000000000000000000000000000000000000000000"
                    }
                ],
                "storageVariables": [
                    {
                        "name": "balances",
                        "type": "mapping(address => uint256)",
                        "value": {
                            "pairs": [
                                {
                                    "key": "0x33b18f8d406d53136efeef2f4bc05f69d7a47813",
                                    "value": {
                                        "current": "36000000000000000000",
                                        "prev": "0",
                                        "typeTag": 1
                                    }
                                },
                                {
                                    "key": "0xb4f2a56d5b9099add8b0bf5890652e4c721e33eb",
                                    "value": {
                                        "current": "1747902000000000000000000",
                                        "prev": "1747938000000000000000000",
                                        "typeTag": 1
                                    }
                                }
                            ],
                            "typeTag": 4
                        }
                    }
                ]
            }
        ]
    }
}