{
    "balance_change": {
        "balanceChanges": []
    },
    "profile": {
        "basic_info": {
            "baseFee": "61.960119799",
            "blockNumber": 14367628,
            "callData": "0xab834bab0000000000000000000000007f268357a8c2552623316e2562d90e642bb538e50000000000000000000000004b933cd816c86783b116d070818c6fcdf5bff17a000000000000000000000000298548ed73fa57deb8842443a007660334f67fac0000000000000000000000000000000000000000000000000000000000000000000000000000000000000000baf2127b49fc93cbca6269fade0f7f31df4c88a7000000000000000000000000000000000000000000000000000000000000000000000000000000000000000000000000000000000000000000000000000000000000000000000000000000007f268357a8c2552623316e2562d90e642bb538e5000000000000000000000000298548ed73fa57deb8842443a007660334f67fac00000000000000000000000000000000000000000000000000000000000000000000000000000000000000005b3256965e7c3cf26e11fcaf296dfc8807c01073000000000000000000000000baf2127b49fc93cbca6269fade0f7f31df4c88a70000000000000000000000000000000000000000000000000000000000000000000000000000000000000000000000000000000000000000000000000000000000000000000000000000000000000000000000000000000000000000000004e2000000000000000000000000000000000000000000000000000000000000000000000000000000000000000000000000000000000000000000000000000000000000000000000000000000000000000000000000000000000000000000000000000000000000000000000000000000000000000000000000083019dfc17b0000000000000000000000000000000000000000000000000000000000000000000000000000000000000000000000000000000000000000000000000000622baef80000000000000000000000000000000000000000000000000000000000000000cc4dd160a5af1dcf9c15661e725b2ce4c38064c4930632daf57ba05c88cd4aad00000000000000000000000000000000000000000000000000000000000004e2000000000000000000000000000000000000000000000000000000000000000000000000000000000000000000000000000000000000000000000000000000000000000000000000000000000000000000000000000000000000000000000000000000000000000000000000000000000000000000000000083019dfc17b0000000000000000000000000000000000000000000000000000000000000000000000000000000000000000000000000000000000000000000000000000622baed4000000000000000000000000000000000000000000000000000000006234e9ab9af3429a66fbf3f7fa096089704525008ae0d08fb1b6e86b81983f04f24d6f100000000000000000000000000000000000000000000000000000000000000001000000000000000000000000000000000000000000000000000000000000000000000000000000000000000000000000000000000000000000000000000000000000000000000000000000000000000000000000000000000000000000000001000000000000000000000000000000000000000000000000000000000000000100000000000000000000000000000000000000000000000000000000000000010000000000000000000000000000000000000000000000000000000000000000000000000000000000000000000000000000000000000000000000000000000100000000000000000000000000000000000000000000000000000000000006a000000000000000000000000000000000000000000000000000000000000007e000000000000000000000000000000000000000000000000000000000000009200000000000000000000000000000000000000000000000000000000000000a600000000000000000000000000000000000000000000000000000000000000ba00000000000000000000000000000000000000000000000000000000000000bc0000000000000000000000000000000000000000000000000000000000000001b000000000000000000000000000000000000000000000000000000000000001b50a12bebff94e68907529124b7304b465b5ff531302f32bf8b4e5d9f7a756f4a3f37b4a15857ed1b41247bdf45ab1a4b164627f341fb0e8b54ef8d2ac14d757550a12bebff94e68907529124b7304b465b5ff531302f32bf8b4e5d9f7a756f4a3f37b4a15857ed1b41247bdf45ab1a4b164627f341fb0e8b54ef8d2ac14d75750000000000000000000000000000000000000000000000000000000000000000000000000000000000000000000000000000000000000000000000000000010496809f9000000000000000000000000000000000000000000000000000000000000000000000000000000000000000004b933cd816c86783b116d070818c6fcdf5bff17a000000000000000000000000a6a5ec7b1b8a34ff2dcb2926b7c78f52a5ce3b9000000000000000000000000000000000000000000000000000000000000003cc0000000000000000000000000000000000000000000000000000000000000001000000000000000000000000000000000000000000000000000000000000000000000000000000000000000000000000000000000000000000000000000000e0000000000000000000000000000000000000000000000000000000000000000000000000000000000000000000000000000000000000000000000000000000000000000000000000000000000000000000000000000000000000010496809f90000000000000000000000000298548ed73fa57deb8842443a007660334f67fac0000000000000000000000000000000000000000000000000000000000000000000000000000000000000000a6a5ec7b1b8a34ff2dcb2926b7c78f52a5ce3b9000000000000000000000000000000000000000000000000000000000000003cc0000000000000000000000000000000000000000000000000000000000000001000000000000000000000000000000000000000000000000000000000000000000000000000000000000000000000000000000000000000000000000000000e0000000000000000000000000000000000000000000000000000000000000000000000000000000000000000000000000000000000000000000000000000000000000000000000000000000000000000000000000000000000000010400000000ffffffffffffffffffffffffffffffffffffffffffffffffffffffffffffffff0000000000000000000000000000000000000000000000000000000000000000000000000000000000000000000000000000000000000000000000000000000000000000000000000000000000000000000000000000000000000000000000000000000000000000000000000000000000000000000000000000000000000000000000000000000000000000000000000000000000000000000000000000000000000000000000000000000000000000000000000000000000000000000000000000000000000000000000000000000000000000000000000000000000000000000000000000000000000000000000000000000000000000000000000000000000000000000000000000000000000000000000000000000000000104000000000000000000000000000000000000000000000000000000000000000000000000ffffffffffffffffffffffffffffffffffffffffffffffffffffffffffffffff0000000000000000000000000000000000000000000000000000000000000000000000000000000000000000000000000000000000000000000000000000000000000000000000000000000000000000000000000000000000000000000000000000000000000000000000000000000000000000000000000000000000000000000000000000000000000000000000000000000000000000000000000000000000000000000000000000000000000000000000000000000000000000000000000000000000000000000000000000000000000000000000000000000000000000000000000000000000000000000000000000000000000000000000000000000000000000000000000000000000000000000000000000000000000000",
            "debugEnable": true,
            "errorInfo": "execution reverted",
            "eventCount": 0,
            "feeRecipient": "0xea674fdde714fd979de3edf0f56aa9716b898ec8",
            "formatValue": "0.59",
            "gasLimit": 268320,
            "gasPrice": "64.960119799",
            "gasUsed": 73090,
            "intTxnCount": 0,
            "internalRevert": false,
            "internalRevertMessage": "",
            "isContractCreation": false,
            "isFlashloan": false,
            "maxFee": "150",
            "nonce": 526,
            "overwritedBlockNumber": -1,
            "priorityFee": "3",
            "receiver": "0x7f268357a8c2552623316e2562d90e642bb538e5",
            "revertMessage": "",
            "sender": "0x4b933cd816c86783b116d070818c6fcdf5bff17a",
            "simulationEnable": true,
            "sourceTxnHash": "0x472e735f26666c200a0fd8f32aa9a5b37448f20f490fa4f103a359adc5b86bae",
            "status": false,
            "timestamp": "2022-03-11T20:21:59Z",
            "transactionFee": "0.00474793515610891",
            "txnHash": "0x472e735f26666c200a0fd8f32aa9a5b37448f20f490fa4f103a359adc5b86bae",
            "txnIndex": 47,
            "type": 2,
            "value": "590000000000000000"
        },
        "fund_flow": [],
        "token_infos": [
            {
                "address": "0xc02aaa39b223fe8d0a0e5c4f27ead9083c756cc2",
                "decimals": 18
            },
            {
                "address": "0xeeeeeeeeeeeeeeeeeeeeeeeeeeeeeeeeeeeeeeee",
                "decimals": 18
            }
        ]
    },
    "address_label": {
        "labels": [
            {
                "address": "0xeeeeeeeeeeeeeeeeeeeeeeeeeeeeeeeeeeeeeeee",
                "label": "Ether"
            },
            {
                "address": "0x7f268357a8c2552623316e2562d90e642bb538e5",
                "label": "OpenSea: Wyvern Exchange v2"
            },
            {
                "address": "0x0000000000000000000000000000000000000000",
                "label": "Null Address"
            },
            {
                "address": "0xbaf2127b49fc93cbca6269fade0f7f31df4c88a7",
                "label": "MerkleValidator"
            },
            {
                "address": "0x0000000000000000000000000000000000000002",
                "label": "Precompiled"
            },
            {
                "address": "0x0000000000000000000000000000000000000003",
                "label": "Precompiled"
            },
            {
                "address": "0x0000000000000000000000000000000000000004",
                "label": "Precompiled"
            },
            {
                "address": "0x5b3256965e7c3cf26e11fcaf296dfc8807c01073",
                "label": "OpenSea: Wallet"
            },
            {
                "address": "0x0000000000000000000000000000000000000001",
                "label": "Precompiled"
            }
        ]
    },
    "trace": {
        "accountLabels": null,
        "dataMap": {
            "-1": {
                "invocation": {
                    "address": "0x4b933cd816c86783b116d070818c6fcdf5bff17a",
                    "callData": "",
                    "decodedMethod": null,
                    "errorInfo": "",
                    "fromAddress": "",
                    "gasUsed": 0,
                    "id": -1,
                    "methodDecoded": false,
                    "operation": "",
                    "output": "",
                    "revert": false,
                    "revertMessage": "",
                    "selector": "",
                    "status": false,
                    "value": ""
                },
                "nodeType": 0
            },
            "0": {
                "invocation": {
                    "address": "0x7f268357a8c2552623316e2562d90e642bb538e5",
                    "callData": "0x0000000000000000000000007f268357a8c2552623316e2562d90e642bb538e50000000000000000000000004b933cd816c86783b116d070818c6fcdf5bff17a000000000000000000000000298548ed73fa57deb8842443a007660334f67fac0000000000000000000000000000000000000000000000000000000000000000000000000000000000000000baf2127b49fc93cbca6269fade0f7f31df4c88a7000000000000000000000000000000000000000000000000000000000000000000000000000000000000000000000000000000000000000000000000000000000000000000000000000000007f268357a8c2552623316e2562d90e642bb538e5000000000000000000000000298548ed73fa57deb8842443a007660334f67fac00000000000000000000000000000000000000000000000000000000000000000000000000000000000000005b3256965e7c3cf26e11fcaf296dfc8807c01073000000000000000000000000baf2127b49fc93cbca6269fade0f7f31df4c88a70000000000000000000000000000000000000000000000000000000000000000000000000000000000000000000000000000000000000000000000000000000000000000000000000000000000000000000000000000000000000000000004e2000000000000000000000000000000000000000000000000000000000000000000000000000000000000000000000000000000000000000000000000000000000000000000000000000000000000000000000000000000000000000000000000000000000000000000000000000000000000000000000000083019dfc17b0000000000000000000000000000000000000000000000000000000000000000000000000000000000000000000000000000000000000000000000000000622baef80000000000000000000000000000000000000000000000000000000000000000cc4dd160a5af1dcf9c15661e725b2ce4c38064c4930632daf57ba05c88cd4aad00000000000000000000000000000000000000000000000000000000000004e2000000000000000000000000000000000000000000000000000000000000000000000000000000000000000000000000000000000000000000000000000000000000000000000000000000000000000000000000000000000000000000000000000000000000000000000000000000000000000000000000083019dfc17b0000000000000000000000000000000000000000000000000000000000000000000000000000000000000000000000000000000000000000000000000000622baed4000000000000000000000000000000000000000000000000000000006234e9ab9af3429a66fbf3f7fa096089704525008ae0d08fb1b6e86b81983f04f24d6f100000000000000000000000000000000000000000000000000000000000000001000000000000000000000000000000000000000000000000000000000000000000000000000000000000000000000000000000000000000000000000000000000000000000000000000000000000000000000000000000000000000000000001000000000000000000000000000000000000000000000000000000000000000100000000000000000000000000000000000000000000000000000000000000010000000000000000000000000000000000000000000000000000000000000000000000000000000000000000000000000000000000000000000000000000000100000000000000000000000000000000000000000000000000000000000006a000000000000000000000000000000000000000000000000000000000000007e000000000000000000000000000000000000000000000000000000000000009200000000000000000000000000000000000000000000000000000000000000a600000000000000000000000000000000000000000000000000000000000000ba00000000000000000000000000000000000000000000000000000000000000bc0000000000000000000000000000000000000000000000000000000000000001b000000000000000000000000000000000000000000000000000000000000001b50a12bebff94e68907529124b7304b465b5ff531302f32bf8b4e5d9f7a756f4a3f37b4a15857ed1b41247bdf45ab1a4b164627f341fb0e8b54ef8d2ac14d757550a12bebff94e68907529124b7304b465b5ff531302f32bf8b4e5d9f7a756f4a3f37b4a15857ed1b41247bdf45ab1a4b164627f341fb0e8b54ef8d2ac14d75750000000000000000000000000000000000000000000000000000000000000000000000000000000000000000000000000000000000000000000000000000010496809f9000000000000000000000000000000000000000000000000000000000000000000000000000000000000000004b933cd816c86783b116d070818c6fcdf5bff17a000000000000000000000000a6a5ec7b1b8a34ff2dcb2926b7c78f52a5ce3b9000000000000000000000000000000000000000000000000000000000000003cc0000000000000000000000000000000000000000000000000000000000000001000000000000000000000000000000000000000000000000000000000000000000000000000000000000000000000000000000000000000000000000000000e0000000000000000000000000000000000000000000000000000000000000000000000000000000000000000000000000000000000000000000000000000000000000000000000000000000000000000000000000000000000000010496809f90000000000000000000000000298548ed73fa57deb8842443a007660334f67fac0000000000000000000000000000000000000000000000000000000000000000000000000000000000000000a6a5ec7b1b8a34ff2dcb2926b7c78f52a5ce3b9000000000000000000000000000000000000000000000000000000000000003cc0000000000000000000000000000000000000000000000000000000000000001000000000000000000000000000000000000000000000000000000000000000000000000000000000000000000000000000000000000000000000000000000e0000000000000000000000000000000000000000000000000000000000000000000000000000000000000000000000000000000000000000000000000000000000000000000000000000000000000000000000000000000000000010400000000ffffffffffffffffffffffffffffffffffffffffffffffffffffffffffffffff0000000000000000000000000000000000000000000000000000000000000000000000000000000000000000000000000000000000000000000000000000000000000000000000000000000000000000000000000000000000000000000000000000000000000000000000000000000000000000000000000000000000000000000000000000000000000000000000000000000000000000000000000000000000000000000000000000000000000000000000000000000000000000000000000000000000000000000000000000000000000000000000000000000000000000000000000000000000000000000000000000000000000000000000000000000000000000000000000000000000000000000000000000000000000104000000000000000000000000000000000000000000000000000000000000000000000000ffffffffffffffffffffffffffffffffffffffffffffffffffffffffffffffff0000000000000000000000000000000000000000000000000000000000000000000000000000000000000000000000000000000000000000000000000000000000000000000000000000000000000000000000000000000000000000000000000000000000000000000000000000000000000000000000000000000000000000000000000000000000000000000000000000000000000000000000000000000000000000000000000000000000000000000000000000000000000000000000000000000000000000000000000000000000000000000000000000000000000000000000000000000000000000000000000000000000000000000000000000000000000000000000000000000000000000000000000000000000000000",
                    "decodedMethod": {
                        "callParams": [
                            {
                                "name": "addrs",
                                "type": "address[14]",
                                "value": [
                                    "0x7f268357a8c2552623316e2562d90e642bb538e5",
                                    "0x4b933cd816c86783b116d070818c6fcdf5bff17a",
                                    "0x298548ed73fa57deb8842443a007660334f67fac",
                                    "0x0000000000000000000000000000000000000000",
                                    "0xbaf2127b49fc93cbca6269fade0f7f31df4c88a7",
                                    "0x0000000000000000000000000000000000000000",
                                    "0x0000000000000000000000000000000000000000",
                                    "0x7f268357a8c2552623316e2562d90e642bb538e5",
                                    "0x298548ed73fa57deb8842443a007660334f67fac",
                                    "0x0000000000000000000000000000000000000000",
                                    "0x5b3256965e7c3cf26e11fcaf296dfc8807c01073",
                                    "0xbaf2127b49fc93cbca6269fade0f7f31df4c88a7",
                                    "0x0000000000000000000000000000000000000000",
                                    "0x0000000000000000000000000000000000000000"
                                ]
                            },
                            {
                                "name": "uints",
                                "type": "uint256[18]",
                                "value": [
                                    "1,250",
                                    "0",
                                    "0",
                                    "0",
                                    "590,000,000,000,000,000",
                                    "0",
                                    "1,647,030,008",
                                    "0",
                                    "92,409,313,405,564,204,949,914,276,521,253,015,249,473,864,112,199,518,722,680,529,462,823,188,515,501",
                                    "1,250",
                                    "0",
                                    "0",
                                    "0",
                                    "590,000,000,000,000,000",
                                    "0",
                                    "1,647,029,972",
                                    "1,647,634,859",
                                    "70,085,982,196,500,347,323,673,663,642,992,755,751,810,254,655,546,304,272,202,307,954,010,909,142,800"
                                ]
                            },
                            {
                                "name": "feeMethodsSidesKindsHowToCalls",
                                "type": "uint8[8]",
                                "value": [
                                    "1",
                                    "0",
                                    "0",
                                    "1",
                                    "1",
                                    "1",
                                    "0",
                                    "1"
                                ]
                            },
                            {
                                "name": "calldataBuy",
                                "type": "bytes",
                                "value": "0x96809f9000000000000000000000000000000000000000000000000000000000000000000000000000000000000000004b933cd816c86783b116d070818c6fcdf5bff17a000000000000000000000000a6a5ec7b1b8a34ff2dcb2926b7c78f52a5ce3b9000000000000000000000000000000000000000000000000000000000000003cc0000000000000000000000000000000000000000000000000000000000000001000000000000000000000000000000000000000000000000000000000000000000000000000000000000000000000000000000000000000000000000000000e00000000000000000000000000000000000000000000000000000000000000000"
                            },
                            {
                                "name": "calldataSell",
                                "type": "bytes",
                                "value": "0x96809f90000000000000000000000000298548ed73fa57deb8842443a007660334f67fac0000000000000000000000000000000000000000000000000000000000000000000000000000000000000000a6a5ec7b1b8a34ff2dcb2926b7c78f52a5ce3b9000000000000000000000000000000000000000000000000000000000000003cc0000000000000000000000000000000000000000000000000000000000000001000000000000000000000000000000000000000000000000000000000000000000000000000000000000000000000000000000000000000000000000000000e00000000000000000000000000000000000000000000000000000000000000000"
                            },
                            {
                                "name": "replacementPatternBuy",
                                "type": "bytes",
                                "value": "0x00000000ffffffffffffffffffffffffffffffffffffffffffffffffffffffffffffffff0000000000000000000000000000000000000000000000000000000000000000000000000000000000000000000000000000000000000000000000000000000000000000000000000000000000000000000000000000000000000000000000000000000000000000000000000000000000000000000000000000000000000000000000000000000000000000000000000000000000000000000000000000000000000000000000000000000000000000000000000000000000000000000000000000000000000000000000000000000000000000000000000000000000000000"
                            },
                            {
                                "name": "replacementPatternSell",
                                "type": "bytes",
                                "value": "0x000000000000000000000000000000000000000000000000000000000000000000000000ffffffffffffffffffffffffffffffffffffffffffffffffffffffffffffffff000000000000000000000000000000000000000000000000000000000000000000000000000000000000000000000000000000000000000000000000000000000000000000000000000000000000000000000000000000000000000000000000000000000000000000000000000000000000000000000000000000000000000000000000000000000000000000000000000000000000000000000000000000000000000000000000000000000000000000000000000000000000000000000000"
                            },
                            {
                                "name": "staticExtradataBuy",
                                "type": "bytes",
                                "value": "0x"
                            },
                            {
                                "name": "staticExtradataSell",
                                "type": "bytes",
                                "value": "0x"
                            },
                            {
                                "name": "vs",
                                "type": "uint8[2]",
                                "value": [
                                    "27",
                                    "27"
                                ]
                            },
                            {
                                "name": "rssMetadata",
                                "type": "bytes32[5]",
                                "value": [
                                    "0x50a12bebff94e68907529124b7304b465b5ff531302f32bf8b4e5d9f7a756f4a",
                                    "0x3f37b4a15857ed1b41247bdf45ab1a4b164627f341fb0e8b54ef8d2ac14d7575",
                                    "0x50a12bebff94e68907529124b7304b465b5ff531302f32bf8b4e5d9f7a756f4a",
                                    "0x3f37b4a15857ed1b41247bdf45ab1a4b164627f341fb0e8b54ef8d2ac14d7575",
                                    "0x0000000000000000000000000000000000000000000000000000000000000000"
                                ]
                            }
                        ],
                        "constructorArguments": "",
                        "name": "atomicMatch_",
                        "returnParams": [],
                        "signature": "atomicMatch_(address[14],uint256[18],uint8[8],bytes,bytes,bytes,bytes,bytes,bytes,uint8[2],bytes32[5])"
                    },
                    "errorInfo": "execution reverted",
                    "fromAddress": "0x4b933cd816c86783b116d070818c6fcdf5bff17a",
                    "gasUsed": 73090,
                    "id": 0,
                    "methodDecoded": true,
                    "operation": "CALL",
                    "output": "",
                    "revert": true,
                    "revertMessage": "",
                    "selector": "0xab834bab",
                    "status": false,
                    "value": "0.59"
                },
                "nodeType": 0
            }
        },
        "gasFlame": [
            {
                "children": [
                    {
                        "children": [
                            {
                                "children": [],
                                "depth": 0,
                                "name": "Initial Gas",
                                "value": 40016
                            },
                            {
                                "children": [],
                                "depth": 0,
                                "name": "Executed Gas",
                                "value": 33074
                            }
                        ],
                        "depth": -1,
                        "name": "Actual Gas Used",
                        "value": 73090
                    },
                    {
                        "children": [],
                        "depth": -1,
                        "name": "Refunded Gas",
                        "value": 0
                    }
                ],
                "depth": -2,
                "name": "Total Gas",
                "value": 73090
            }
        ],
        "isConfirmed": true,
        "mainTrace": [
            {
                "children": [
                    {
                        "children": [],
                        "depth": 0,
                        "id": 0,
                        "order": 0
                    }
                ],
                "depth": -1,
                "id": -1,
                "order": -1
            }
        ],
        "mainTraceNodeCount": 1,
        "parentIdMap": {
            "0": -1
        },
        "tidyTrace": [
            {
                "children": [
                    {
                        "children": [],
                        "depth": 0,
                        "id": 0,
                        "order": 0
                    }
                ],
                "depth": -1,
                "id": -1,
                "order": -1
            }
        ],
        "tidyTraceNodeCount": 1
    },
    "state_change": {
        "stateChanges": []
    }
}