{
    "balance_change": {
        "balanceChanges": [
            {
                "account": "0x8e0b52c00992a97d158f8685be9874bd6fd0208a",
                "assets": [
                    {
                        "address": "0xeeeeeeeeeeeeeeeeeeeeeeeeeeeeeeeeeeeeeeee",
                        "amount": "0.035",
                        "iconUrl": "https://assets.blocksec.com/image/1663669189317-3.png",
                        "isERC1155": false,
                        "isERC721": false,
                        "sign": false,
                        "value": "127.6548"
                    },
                    {
                        "address": "0xda63feff6e6d75cd7a862cd56c625045dcf26e88",
                        "amount": "3,202.100812411",
                        "iconUrl": "",
                        "isERC1155": false,
                        "isERC721": false,
                        "sign": true,
                        "value": "120.3501976"
                    }
                ]
            },
            {
                "account": "0x281242be4b971235674823a13fbb34951e412972",
                "assets": [
                    {
                        "address": "0xc02aaa39b223fe8d0a0e5c4f27ead9083c756cc2",
                        "amount": "0.035",
                        "iconUrl": "https://assets.blocksec.com/icon/f1cb2d02c471d545bbc7722daf3277fd852d98e63d118771af7047bd8256c516.png",
                        "isERC1155": false,
                        "isERC721": false,
                        "sign": true,
                        "value": "127.6548"
                    },
                    {
                        "address": "0xda63feff6e6d75cd7a862cd56c625045dcf26e88",
                        "amount": "3,202.100812411",
                        "iconUrl": "",
                        "isERC1155": false,
                        "isERC721": false,
                        "sign": false,
                        "value": "120.3501976"
                    }
                ]
            },
            {
                "account": "0xc02aaa39b223fe8d0a0e5c4f27ead9083c756cc2",
                "assets": [
                    {
                        "address": "0xeeeeeeeeeeeeeeeeeeeeeeeeeeeeeeeeeeeeeeee",
                        "amount": "0.035",
                        "iconUrl": "https://assets.blocksec.com/image/1663669189317-3.png",
                        "isERC1155": false,
                        "isERC721": false,
                        "sign": true,
                        "value": "127.6548"
                    },
                    {
                        "address": "0xc02aaa39b223fe8d0a0e5c4f27ead9083c756cc2",
                        "amount": "0.035",
                        "iconUrl": "https://assets.blocksec.com/icon/f1cb2d02c471d545bbc7722daf3277fd852d98e63d118771af7047bd8256c516.png",
                        "isERC1155": false,
                        "isERC721": false,
                        "sign": false,
                        "value": "127.6548"
                    }
                ]
            }
        ]
    },
    "profile": {
        "basic_info": {
            "baseFee": "27.880051513",
            "blockNumber": 19611739,
            "callData": "0x9871efa40000000000000000000000000000000000000000000000000000000000000000000000000000000000000000000000000000000000000000007c585087238000000000000000000000000000000000000000000000000000000002ca27de14a50000000000000000000000000000000000000000000000000000000000000080000000000000000000000000000000000000000000000000000000000000000130000000000000003b6d0340281242be4b971235674823a13fbb34951e412972",
            "debugEnable": true,
            "errorInfo": "",
            "eventCount": 7,
            "feeRecipient": "0x1f9090aae28b8a3dceadf281b0f12828e676c326",
            "formatValue": "0.035",
            "gasLimit": 259515,
            "gasPrice": "28.570051513",
            "gasUsed": 182187,
            "intTxnCount": 12,
            "internalRevert": false,
            "internalRevertMessage": "",
            "isContractCreation": false,
            "isFlashloan": false,
            "maxFee": "30.206",
            "nonce": 0,
            "overwritedBlockNumber": -1,
            "priorityFee": "0.69",
            "receiver": "0xf3de3c0d654fda23dad170f0f320a92172509127",
            "revertMessage": "",
            "sender": "0x8e0b52c00992a97d158f8685be9874bd6fd0208a",
            "simulationEnable": true,
            "sourceTxnHash": "0x48c217525f11e98832fd713b85182f8beacb7d4f95d92b4bff0c14d610ffdb05",
            "status": true,
            "timestamp": "2024-04-08T15:07:35Z",
            "transactionFee": "0.005205091974998931",
            "txnHash": "0x48c217525f11e98832fd713b85182f8beacb7d4f95d92b4bff0c14d610ffdb05",
            "txnIndex": 109,
            "type": 2,
            "value": "35000000000000000"
        },
        "fund_flow": [
            {
                "amount": "0.035",
                "from": "0x8e0b52c00992a97d158f8685be9874bd6fd0208a",
                "id": 1,
                "isERC1155": false,
                "isERC721": false,
                "isReverted": false,
                "order": 1,
                "to": "0xf3de3c0d654fda23dad170f0f320a92172509127",
                "token": "0xeeeeeeeeeeeeeeeeeeeeeeeeeeeeeeeeeeeeeeee"
            },
            {
                "amount": "0.035",
                "from": "0xf3de3c0d654fda23dad170f0f320a92172509127",
                "id": 2,
                "isERC1155": false,
                "isERC721": false,
                "isReverted": false,
                "order": 2,
                "to": "0xc02aaa39b223fe8d0a0e5c4f27ead9083c756cc2",
                "token": "0xeeeeeeeeeeeeeeeeeeeeeeeeeeeeeeeeeeeeeeee"
            },
            {
                "amount": "0.035",
                "from": "0xc02aaa39b223fe8d0a0e5c4f27ead9083c756cc2",
                "id": 3,
                "isERC1155": false,
                "isERC721": false,
                "isReverted": false,
                "order": 3,
                "to": "0xf3de3c0d654fda23dad170f0f320a92172509127",
                "token": "0xc02aaa39b223fe8d0a0e5c4f27ead9083c756cc2"
            },
            {
                "amount": "0.035",
                "from": "0xf3de3c0d654fda23dad170f0f320a92172509127",
                "id": 4,
                "isERC1155": false,
                "isERC721": false,
                "isReverted": false,
                "order": 4,
                "to": "0x281242be4b971235674823a13fbb34951e412972",
                "token": "0xc02aaa39b223fe8d0a0e5c4f27ead9083c756cc2"
            },
            {
                "amount": "3,202.100812411",
                "from": "0x281242be4b971235674823a13fbb34951e412972",
                "id": 5,
                "isERC1155": false,
                "isERC721": false,
                "isReverted": false,
                "order": 5,
                "to": "0x8e0b52c00992a97d158f8685be9874bd6fd0208a",
                "token": "0xda63feff6e6d75cd7a862cd56c625045dcf26e88"
            }
        ],
        "token_infos": [
            {
                "address": "0xda63feff6e6d75cd7a862cd56c625045dcf26e88",
                "decimals": 9
            },
            {
                "address": "0xeeeeeeeeeeeeeeeeeeeeeeeeeeeeeeeeeeeeeeee",
                "decimals": 18
            },
            {
                "address": "0xc02aaa39b223fe8d0a0e5c4f27ead9083c756cc2",
                "decimals": 18
            }
        ]
    },
    "address_label": {
        "labels": [
            {
                "address": "0x0000000000000000000000000000000000000003",
                "label": "Precompiled"
            },
            {
                "address": "0x0000000000000000000000000000000000000004",
                "label": "Precompiled"
            },
            {
                "address": "0xeeeeeeeeeeeeeeeeeeeeeeeeeeeeeeeeeeeeeeee",
                "label": "Ether"
            },
            {
                "address": "0x281242be4b971235674823a13fbb34951e412972",
                "label": "Uniswap V2: CMINER 3"
            },
            {
                "address": "0xc02aaa39b223fe8d0a0e5c4f27ead9083c756cc2",
                "label": "Wrapped Ether (WETH)"
            },
            {
                "address": "0xda63feff6e6d75cd7a862cd56c625045dcf26e88",
                "label": "ChainMiner: CMINER Token"
            },
            {
                "address": "0x0000000000000000000000000000000000000001",
                "label": "Precompiled"
            },
            {
                "address": "0x0000000000000000000000000000000000000002",
                "label": "Precompiled"
            }
        ]
    },
    "trace": {
        "accountLabels": null,
        "dataMap": {
            "-1": {
                "invocation": {
                    "address": "0x8e0b52c00992a97d158f8685be9874bd6fd0208a",
                    "callData": "",
                    "decodedMethod": null,
                    "errorInfo": "",
                    "fromAddress": "",
                    "gasUsed": 0,
                    "id": -1,
                    "methodDecoded": false,
                    "operation": "",
                    "output": "",
                    "revert": false,
                    "revertMessage": "",
                    "selector": "",
                    "status": false,
                    "value": ""
                },
                "nodeType": 0
            },
            "0": {
                "invocation": {
                    "address": "0xf3de3c0d654fda23dad170f0f320a92172509127",
                    "callData": "0x0000000000000000000000000000000000000000000000000000000000000000000000000000000000000000000000000000000000000000007c585087238000000000000000000000000000000000000000000000000000000002ca27de14a50000000000000000000000000000000000000000000000000000000000000080000000000000000000000000000000000000000000000000000000000000000130000000000000003b6d0340281242be4b971235674823a13fbb34951e412972",
                    "decodedMethod": null,
                    "errorInfo": "",
                    "fromAddress": "0x8e0b52c00992a97d158f8685be9874bd6fd0208a",
                    "gasUsed": 182187,
                    "id": 0,
                    "methodDecoded": false,
                    "operation": "CALL",
                    "output": "0x000000000000000000000000000000000000000000000000000002e98c14da7b",
                    "revert": false,
                    "revertMessage": "",
                    "selector": "0x9871efa4",
                    "status": true,
                    "value": "0.035"
                },
                "nodeType": 0
            },
            "1": {
                "event": {
                    "contract": "0xf3de3c0d654fda23dad170f0f320a92172509127",
                    "decodedLog": null,
                    "id": 1,
                    "logData": "0x0000000000000000000000000000000000000000000000000000000000000000",
                    "logDecoded": false,
                    "operation": "EVENT",
                    "revert": false,
                    "status": true,
                    "topics": [
                        "0x7724394874fdd8ad13292ec739b441f85c6559f10dc4141b8d4c0fa4cbf55bdb"
                    ]
                },
                "nodeType": 1
            },
            "10": {
                "invocation": {
                    "address": "0xc02aaa39b223fe8d0a0e5c4f27ead9083c756cc2",
                    "callData": "0x000000000000000000000000281242be4b971235674823a13fbb34951e412972",
                    "decodedMethod": {
                        "callParams": [
                            {
                                "name": "",
                                "type": "address",
                                "value": "0x281242be4b971235674823a13fbb34951e412972"
                            }
                        ],
                        "constructorArguments": "",
                        "name": "balanceOf",
                        "returnParams": [
                            {
                                "decimalAvailable": true,
                                "name": "",
                                "type": "uint256",
                                "value": "41,900,798,116,288,598,626"
                            }
                        ],
                        "signature": "balanceOf(address)"
                    },
                    "errorInfo": "",
                    "fromAddress": "0xf3de3c0d654fda23dad170f0f320a92172509127",
                    "gasUsed": 534,
                    "id": 10,
                    "methodDecoded": true,
                    "operation": "STATICCALL",
                    "output": "0x000000000000000000000000000000000000000000000002457d89e306bd1262",
                    "revert": false,
                    "revertMessage": "",
                    "selector": "0x70a08231",
                    "status": true,
                    "value": "0"
                },
                "nodeType": 0
            },
            "11": {
                "invocation": {
                    "address": "0x281242be4b971235674823a13fbb34951e412972",
                    "callData": "0x000000000000000000000000000000000000000000000000000000000000000000000000000000000000000000000000000000000000000000000310c95951c40000000000000000000000008e0b52c00992a97d158f8685be9874bd6fd0208a00000000000000000000000000000000000000000000000000000000000000800000000000000000000000000000000000000000000000000000000000000000",
                    "decodedMethod": {
                        "callParams": [
                            {
                                "name": "amount0Out",
                                "type": "uint256",
                                "value": "0"
                            },
                            {
                                "name": "amount1Out",
                                "type": "uint256",
                                "value": "3,370,632,434,116"
                            },
                            {
                                "name": "to",
                                "type": "address",
                                "value": "0x8e0b52c00992a97d158f8685be9874bd6fd0208a"
                            },
                            {
                                "name": "data",
                                "type": "bytes",
                                "value": "0x"
                            }
                        ],
                        "constructorArguments": "",
                        "name": "swap",
                        "returnParams": [],
                        "signature": "swap(uint256,uint256,address,bytes)"
                    },
                    "errorInfo": "",
                    "fromAddress": "0xf3de3c0d654fda23dad170f0f320a92172509127",
                    "gasUsed": 112875,
                    "id": 11,
                    "methodDecoded": true,
                    "operation": "CALL",
                    "output": "",
                    "revert": false,
                    "revertMessage": "",
                    "selector": "0x022c0d9f",
                    "status": true,
                    "value": "0"
                },
                "nodeType": 0
            },
            "12": {
                "invocation": {
                    "address": "0xda63feff6e6d75cd7a862cd56c625045dcf26e88",
                    "callData": "0x0000000000000000000000008e0b52c00992a97d158f8685be9874bd6fd0208a00000000000000000000000000000000000000000000000000000310c95951c4",
                    "decodedMethod": {
                        "callParams": [
                            {
                                "name": "recipient",
                                "type": "address",
                                "value": "0x8e0b52c00992a97d158f8685be9874bd6fd0208a"
                            },
                            {
                                "decimalAvailable": true,
                                "name": "amount",
                                "type": "uint256",
                                "value": "3,370,632,434,116"
                            }
                        ],
                        "constructorArguments": "",
                        "name": "transfer",
                        "returnParams": [
                            {
                                "name": "",
                                "type": "bool",
                                "value": true
                            }
                        ],
                        "signature": "transfer(address,uint256)"
                    },
                    "errorInfo": "",
                    "fromAddress": "0x281242be4b971235674823a13fbb34951e412972",
                    "gasUsed": 82386,
                    "id": 12,
                    "methodDecoded": true,
                    "operation": "CALL",
                    "output": "0x0000000000000000000000000000000000000000000000000000000000000001",
                    "revert": false,
                    "revertMessage": "",
                    "selector": "0xa9059cbb",
                    "status": true,
                    "value": "0"
                },
                "nodeType": 0
            },
            "13": {
                "event": {
                    "contract": "0xda63feff6e6d75cd7a862cd56c625045dcf26e88",
                    "decodedLog": {
                        "name": "Transfer",
                        "params": [
                            {
                                "name": "from",
                                "type": "address",
                                "value": "0x281242be4b971235674823a13fbb34951e412972"
                            },
                            {
                                "name": "to",
                                "type": "address",
                                "value": "0x8e0b52c00992a97d158f8685be9874bd6fd0208a"
                            },
                            {
                                "decimalAvailable": true,
                                "name": "value",
                                "type": "uint256",
                                "value": "3,202,100,812,411"
                            }
                        ],
                        "signature": "Transfer(address,address,uint256)"
                    },
                    "id": 13,
                    "logData": "0x000000000000000000000000000000000000000000000000000002e98c14da7b",
                    "logDecoded": true,
                    "operation": "EVENT",
                    "revert": false,
                    "status": true,
                    "topics": [
                        "0xddf252ad1be2c89b69c2b068fc378daa952ba7f163c4a11628f55a4df523b3ef",
                        "0x000000000000000000000000281242be4b971235674823a13fbb34951e412972",
                        "0x0000000000000000000000008e0b52c00992a97d158f8685be9874bd6fd0208a"
                    ]
                },
                "nodeType": 1
            },
            "14": {
                "invocation": {
                    "address": "0xc02aaa39b223fe8d0a0e5c4f27ead9083c756cc2",
                    "callData": "0x000000000000000000000000281242be4b971235674823a13fbb34951e412972",
                    "decodedMethod": {
                        "callParams": [
                            {
                                "name": "",
                                "type": "address",
                                "value": "0x281242be4b971235674823a13fbb34951e412972"
                            }
                        ],
                        "constructorArguments": "",
                        "name": "balanceOf",
                        "returnParams": [
                            {
                                "decimalAvailable": true,
                                "name": "",
                                "type": "uint256",
                                "value": "41,900,798,116,288,598,626"
                            }
                        ],
                        "signature": "balanceOf(address)"
                    },
                    "errorInfo": "",
                    "fromAddress": "0x281242be4b971235674823a13fbb34951e412972",
                    "gasUsed": 534,
                    "id": 14,
                    "methodDecoded": true,
                    "operation": "STATICCALL",
                    "output": "0x000000000000000000000000000000000000000000000002457d89e306bd1262",
                    "revert": false,
                    "revertMessage": "",
                    "selector": "0x70a08231",
                    "status": true,
                    "value": "0"
                },
                "nodeType": 0
            },
            "15": {
                "invocation": {
                    "address": "0xda63feff6e6d75cd7a862cd56c625045dcf26e88",
                    "callData": "0x000000000000000000000000281242be4b971235674823a13fbb34951e412972",
                    "decodedMethod": {
                        "callParams": [
                            {
                                "name": "account",
                                "type": "address",
                                "value": "0x281242be4b971235674823a13fbb34951e412972"
                            }
                        ],
                        "constructorArguments": "",
                        "name": "balanceOf",
                        "returnParams": [
                            {
                                "decimalAvailable": true,
                                "name": "",
                                "type": "uint256",
                                "value": "4,043,966,671,756,540"
                            }
                        ],
                        "signature": "balanceOf(address)"
                    },
                    "errorInfo": "",
                    "fromAddress": "0x281242be4b971235674823a13fbb34951e412972",
                    "gasUsed": 2632,
                    "id": 15,
                    "methodDecoded": true,
                    "operation": "STATICCALL",
                    "output": "0x000000000000000000000000000000000000000000000000000e5df75cf41cfc",
                    "revert": false,
                    "revertMessage": "",
                    "selector": "0x70a08231",
                    "status": true,
                    "value": "0"
                },
                "nodeType": 0
            },
            "16": {
                "event": {
                    "contract": "0x281242be4b971235674823a13fbb34951e412972",
                    "decodedLog": {
                        "name": "Sync",
                        "params": [
                            {
                                "name": "reserve0",
                                "type": "uint112",
                                "value": "41,900,798,116,288,598,626"
                            },
                            {
                                "name": "reserve1",
                                "type": "uint112",
                                "value": "4,043,966,671,756,540"
                            }
                        ],
                        "signature": "Sync(uint112,uint112)"
                    },
                    "id": 16,
                    "logData": "0x000000000000000000000000000000000000000000000002457d89e306bd1262000000000000000000000000000000000000000000000000000e5df75cf41cfc",
                    "logDecoded": true,
                    "operation": "EVENT",
                    "revert": false,
                    "status": true,
                    "topics": [
                        "0x1c411e9a96e071241c2f21f7726b17ae89e3cab4c78be50e062b03a9fffbbad1"
                    ]
                },
                "nodeType": 1
            },
            "17": {
                "event": {
                    "contract": "0x281242be4b971235674823a13fbb34951e412972",
                    "decodedLog": {
                        "name": "Swap",
                        "params": [
                            {
                                "name": "sender",
                                "type": "address",
                                "value": "0xf3de3c0d654fda23dad170f0f320a92172509127"
                            },
                            {
                                "name": "to",
                                "type": "address",
                                "value": "0x8e0b52c00992a97d158f8685be9874bd6fd0208a"
                            },
                            {
                                "name": "amount0In",
                                "type": "uint256",
                                "value": "35,000,000,000,000,000"
                            },
                            {
                                "name": "amount1In",
                                "type": "uint256",
                                "value": "0"
                            },
                            {
                                "name": "amount0Out",
                                "type": "uint256",
                                "value": "0"
                            },
                            {
                                "name": "amount1Out",
                                "type": "uint256",
                                "value": "3,370,632,434,116"
                            }
                        ],
                        "signature": "Swap(address,uint256,uint256,uint256,uint256,address)"
                    },
                    "id": 17,
                    "logData": "0x000000000000000000000000000000000000000000000000007c5850872380000000000000000000000000000000000000000000000000000000000000000000000000000000000000000000000000000000000000000000000000000000000000000000000000000000000000000000000000000000000000000310c95951c4",
                    "logDecoded": true,
                    "operation": "EVENT",
                    "revert": false,
                    "status": true,
                    "topics": [
                        "0xd78ad95fa46c994b6551d0da85fc275fe613ce37657fb8d5e3d130840159d822",
                        "0x000000000000000000000000f3de3c0d654fda23dad170f0f320a92172509127",
                        "0x0000000000000000000000008e0b52c00992a97d158f8685be9874bd6fd0208a"
                    ]
                },
                "nodeType": 1
            },
            "18": {
                "invocation": {
                    "address": "0xda63feff6e6d75cd7a862cd56c625045dcf26e88",
                    "callData": "0x0000000000000000000000008e0b52c00992a97d158f8685be9874bd6fd0208a",
                    "decodedMethod": {
                        "callParams": [
                            {
                                "name": "account",
                                "type": "address",
                                "value": "0x8e0b52c00992a97d158f8685be9874bd6fd0208a"
                            }
                        ],
                        "constructorArguments": "",
                        "name": "balanceOf",
                        "returnParams": [
                            {
                                "decimalAvailable": true,
                                "name": "",
                                "type": "uint256",
                                "value": "3,202,100,812,411"
                            }
                        ],
                        "signature": "balanceOf(address)"
                    },
                    "errorInfo": "",
                    "fromAddress": "0xf3de3c0d654fda23dad170f0f320a92172509127",
                    "gasUsed": 2632,
                    "id": 18,
                    "methodDecoded": true,
                    "operation": "STATICCALL",
                    "output": "0x000000000000000000000000000000000000000000000000000002e98c14da7b",
                    "revert": false,
                    "revertMessage": "",
                    "selector": "0x70a08231",
                    "status": true,
                    "value": "0"
                },
                "nodeType": 0
            },
            "19": {
                "event": {
                    "contract": "0xf3de3c0d654fda23dad170f0f320a92172509127",
                    "decodedLog": {
                        "name": "OrderRecord",
                        "params": [
                            {
                                "name": "fromToken",
                                "type": "address",
                                "value": "0x0000000000000000000000000000000000000000"
                            },
                            {
                                "name": "toToken",
                                "type": "address",
                                "value": "0xda63feff6e6d75cd7a862cd56c625045dcf26e88"
                            },
                            {
                                "name": "sender",
                                "type": "address",
                                "value": "0x8e0b52c00992a97d158f8685be9874bd6fd0208a"
                            },
                            {
                                "name": "fromAmount",
                                "type": "uint256",
                                "value": "35,000,000,000,000,000"
                            },
                            {
                                "name": "returnAmount",
                                "type": "uint256",
                                "value": "3,202,100,812,411"
                            }
                        ],
                        "signature": "OrderRecord(address,address,address,uint256,uint256)"
                    },
                    "id": 19,
                    "logData": "0x0000000000000000000000000000000000000000000000000000000000000000000000000000000000000000da63feff6e6d75cd7a862cd56c625045dcf26e880000000000000000000000008e0b52c00992a97d158f8685be9874bd6fd0208a000000000000000000000000000000000000000000000000007c585087238000000000000000000000000000000000000000000000000000000002e98c14da7b",
                    "logDecoded": true,
                    "operation": "EVENT",
                    "revert": false,
                    "status": true,
                    "topics": [
                        "0x1bb43f2da90e35f7b0cf38521ca95a49e68eb42fac49924930a5bd73cdf7576c"
                    ]
                },
                "nodeType": 1
            },
            "2": {
                "invocation": {
                    "address": "0xc02aaa39b223fe8d0a0e5c4f27ead9083c756cc2",
                    "callData": "0x",
                    "decodedMethod": {
                        "callParams": [],
                        "constructorArguments": "",
                        "name": "deposit",
                        "returnParams": [],
                        "signature": "deposit()"
                    },
                    "errorInfo": "",
                    "fromAddress": "0xf3de3c0d654fda23dad170f0f320a92172509127",
                    "gasUsed": 23974,
                    "id": 2,
                    "methodDecoded": true,
                    "operation": "CALL",
                    "output": "",
                    "revert": false,
                    "revertMessage": "",
                    "selector": "0xd0e30db0",
                    "status": true,
                    "value": "0.035"
                },
                "nodeType": 0
            },
            "3": {
                "event": {
                    "contract": "0xc02aaa39b223fe8d0a0e5c4f27ead9083c756cc2",
                    "decodedLog": {
                        "name": "Deposit",
                        "params": [
                            {
                                "name": "dst",
                                "type": "address",
                                "value": "0xf3de3c0d654fda23dad170f0f320a92172509127"
                            },
                            {
                                "name": "wad",
                                "type": "uint256",
                                "value": "35,000,000,000,000,000"
                            }
                        ],
                        "signature": "Deposit(address,uint256)"
                    },
                    "id": 3,
                    "logData": "0x000000000000000000000000000000000000000000000000007c585087238000",
                    "logDecoded": true,
                    "operation": "EVENT",
                    "revert": false,
                    "status": true,
                    "topics": [
                        "0xe1fffcc4923d04b559f4d29a8bfc6cda04eb5b0d3c460751c2402c5c5cc9109c",
                        "0x000000000000000000000000f3de3c0d654fda23dad170f0f320a92172509127"
                    ]
                },
                "nodeType": 1
            },
            "4": {
                "invocation": {
                    "address": "0xc02aaa39b223fe8d0a0e5c4f27ead9083c756cc2",
                    "callData": "0x000000000000000000000000281242be4b971235674823a13fbb34951e412972000000000000000000000000000000000000000000000000007c585087238000",
                    "decodedMethod": {
                        "callParams": [
                            {
                                "name": "dst",
                                "type": "address",
                                "value": "0x281242be4b971235674823a13fbb34951e412972"
                            },
                            {
                                "decimalAvailable": true,
                                "name": "wad",
                                "type": "uint256",
                                "value": "35,000,000,000,000,000"
                            }
                        ],
                        "constructorArguments": "",
                        "name": "transfer",
                        "returnParams": [
                            {
                                "name": "",
                                "type": "bool",
                                "value": true
                            }
                        ],
                        "signature": "transfer(address,uint256)"
                    },
                    "errorInfo": "",
                    "fromAddress": "0xf3de3c0d654fda23dad170f0f320a92172509127",
                    "gasUsed": 8062,
                    "id": 4,
                    "methodDecoded": true,
                    "operation": "CALL",
                    "output": "0x0000000000000000000000000000000000000000000000000000000000000001",
                    "revert": false,
                    "revertMessage": "",
                    "selector": "0xa9059cbb",
                    "status": true,
                    "value": "0"
                },
                "nodeType": 0
            },
            "5": {
                "event": {
                    "contract": "0xc02aaa39b223fe8d0a0e5c4f27ead9083c756cc2",
                    "decodedLog": {
                        "name": "Transfer",
                        "params": [
                            {
                                "name": "src",
                                "type": "address",
                                "value": "0xf3de3c0d654fda23dad170f0f320a92172509127"
                            },
                            {
                                "name": "dst",
                                "type": "address",
                                "value": "0x281242be4b971235674823a13fbb34951e412972"
                            },
                            {
                                "decimalAvailable": true,
                                "name": "wad",
                                "type": "uint256",
                                "value": "35,000,000,000,000,000"
                            }
                        ],
                        "signature": "Transfer(address,address,uint256)"
                    },
                    "id": 5,
                    "logData": "0x000000000000000000000000000000000000000000000000007c585087238000",
                    "logDecoded": true,
                    "operation": "EVENT",
                    "revert": false,
                    "status": true,
                    "topics": [
                        "0xddf252ad1be2c89b69c2b068fc378daa952ba7f163c4a11628f55a4df523b3ef",
                        "0x000000000000000000000000f3de3c0d654fda23dad170f0f320a92172509127",
                        "0x000000000000000000000000281242be4b971235674823a13fbb34951e412972"
                    ]
                },
                "nodeType": 1
            },
            "6": {
                "invocation": {
                    "address": "0x281242be4b971235674823a13fbb34951e412972",
                    "callData": "0x",
                    "decodedMethod": {
                        "callParams": [],
                        "constructorArguments": "",
                        "name": "token1",
                        "returnParams": [
                            {
                                "name": "",
                                "type": "address",
                                "value": "0xda63feff6e6d75cd7a862cd56c625045dcf26e88"
                            }
                        ],
                        "signature": "token1()"
                    },
                    "errorInfo": "",
                    "fromAddress": "0xf3de3c0d654fda23dad170f0f320a92172509127",
                    "gasUsed": 2357,
                    "id": 6,
                    "methodDecoded": true,
                    "operation": "STATICCALL",
                    "output": "0x000000000000000000000000da63feff6e6d75cd7a862cd56c625045dcf26e88",
                    "revert": false,
                    "revertMessage": "",
                    "selector": "0xd21220a7",
                    "status": true,
                    "value": "0"
                },
                "nodeType": 0
            },
            "7": {
                "invocation": {
                    "address": "0xda63feff6e6d75cd7a862cd56c625045dcf26e88",
                    "callData": "0x0000000000000000000000008e0b52c00992a97d158f8685be9874bd6fd0208a",
                    "decodedMethod": {
                        "callParams": [
                            {
                                "name": "account",
                                "type": "address",
                                "value": "0x8e0b52c00992a97d158f8685be9874bd6fd0208a"
                            }
                        ],
                        "constructorArguments": "",
                        "name": "balanceOf",
                        "returnParams": [
                            {
                                "decimalAvailable": true,
                                "name": "",
                                "type": "uint256",
                                "value": "0"
                            }
                        ],
                        "signature": "balanceOf(address)"
                    },
                    "errorInfo": "",
                    "fromAddress": "0xf3de3c0d654fda23dad170f0f320a92172509127",
                    "gasUsed": 6632,
                    "id": 7,
                    "methodDecoded": true,
                    "operation": "STATICCALL",
                    "output": "0x0000000000000000000000000000000000000000000000000000000000000000",
                    "revert": false,
                    "revertMessage": "",
                    "selector": "0x70a08231",
                    "status": true,
                    "value": "0"
                },
                "nodeType": 0
            },
            "8": {
                "invocation": {
                    "address": "0x281242be4b971235674823a13fbb34951e412972",
                    "callData": "0x",
                    "decodedMethod": {
                        "callParams": [],
                        "constructorArguments": "",
                        "name": "getReserves",
                        "returnParams": [
                            {
                                "name": "_reserve0",
                                "type": "uint112",
                                "value": "41,865,798,116,288,598,626"
                            },
                            {
                                "name": "_reserve1",
                                "type": "uint112",
                                "value": "4,047,337,304,190,656"
                            },
                            {
                                "name": "_blockTimestampLast",
                                "type": "uint32",
                                "value": "1,712,588,771"
                            }
                        ],
                        "signature": "getReserves()"
                    },
                    "errorInfo": "",
                    "fromAddress": "0xf3de3c0d654fda23dad170f0f320a92172509127",
                    "gasUsed": 2504,
                    "id": 8,
                    "methodDecoded": true,
                    "operation": "STATICCALL",
                    "output": "0x000000000000000000000000000000000000000000000002450131927f999262000000000000000000000000000000000000000000000000000e6108264d6ec000000000000000000000000000000000000000000000000000000000661407e3",
                    "revert": false,
                    "revertMessage": "",
                    "selector": "0x0902f1ac",
                    "status": true,
                    "value": "0"
                },
                "nodeType": 0
            },
            "9": {
                "invocation": {
                    "address": "0x281242be4b971235674823a13fbb34951e412972",
                    "callData": "0x",
                    "decodedMethod": {
                        "callParams": [],
                        "constructorArguments": "",
                        "name": "token0",
                        "returnParams": [
                            {
                                "name": "",
                                "type": "address",
                                "value": "0xc02aaa39b223fe8d0a0e5c4f27ead9083c756cc2"
                            }
                        ],
                        "signature": "token0()"
                    },
                    "errorInfo": "",
                    "fromAddress": "0xf3de3c0d654fda23dad170f0f320a92172509127",
                    "gasUsed": 2381,
                    "id": 9,
                    "methodDecoded": true,
                    "operation": "STATICCALL",
                    "output": "0x000000000000000000000000c02aaa39b223fe8d0a0e5c4f27ead9083c756cc2",
                    "revert": false,
                    "revertMessage": "",
                    "selector": "0x0dfe1681",
                    "status": true,
                    "value": "0"
                },
                "nodeType": 0
            }
        },
        "gasFlame": [
            {
                "children": [
                    {
                        "children": [
                            {
                                "children": [],
                                "depth": 0,
                                "name": "Initial Gas",
                                "value": 22300
                            },
                            {
                                "children": [
                                    {
                                        "children": [],
                                        "depth": 1,
                                        "name": "deposit",
                                        "value": 23974
                                    },
                                    {
                                        "children": [],
                                        "depth": 1,
                                        "name": "transfer",
                                        "value": 8062
                                    },
                                    {
                                        "children": [],
                                        "depth": 1,
                                        "name": "token1",
                                        "value": 2357
                                    },
                                    {
                                        "children": [],
                                        "depth": 1,
                                        "name": "balanceOf",
                                        "value": 6632
                                    },
                                    {
                                        "children": [],
                                        "depth": 1,
                                        "name": "getReserves",
                                        "value": 2504
                                    },
                                    {
                                        "children": [],
                                        "depth": 1,
                                        "name": "token0",
                                        "value": 2381
                                    },
                                    {
                                        "children": [],
                                        "depth": 1,
                                        "name": "balanceOf",
                                        "value": 534
                                    },
                                    {
                                        "children": [
                                            {
                                                "children": [],
                                                "depth": 2,
                                                "name": "transfer",
                                                "value": 82386
                                            },
                                            {
                                                "children": [],
                                                "depth": 2,
                                                "name": "balanceOf",
                                                "value": 534
                                            },
                                            {
                                                "children": [],
                                                "depth": 2,
                                                "name": "balanceOf",
                                                "value": 2632
                                            }
                                        ],
                                        "depth": 1,
                                        "name": "swap",
                                        "value": 112875
                                    },
                                    {
                                        "children": [],
                                        "depth": 1,
                                        "name": "balanceOf",
                                        "value": 2632
                                    }
                                ],
                                "depth": 0,
                                "name": "Executed Gas",
                                "value": 182587
                            }
                        ],
                        "depth": -1,
                        "name": "Actual Gas Used",
                        "value": 182187
                    },
                    {
                        "children": [],
                        "depth": -1,
                        "name": "Refunded Gas",
                        "value": 22700
                    }
                ],
                "depth": -2,
                "name": "Total Gas",
                "value": 204887
            }
        ],
        "isConfirmed": true,
        "mainTrace": [
            {
                "children": [
                    {
                        "children": [
                            {
                                "children": [],
                                "depth": 1,
                                "id": 1,
                                "order": 1
                            },
                            {
                                "children": [
                                    {
                                        "children": [],
                                        "depth": 2,
                                        "id": 3,
                                        "order": 3
                                    }
                                ],
                                "depth": 1,
                                "id": 2,
                                "order": 2
                            },
                            {
                                "children": [
                                    {
                                        "children": [],
                                        "depth": 2,
                                        "id": 5,
                                        "order": 5
                                    }
                                ],
                                "depth": 1,
                                "id": 4,
                                "order": 4
                            },
                            {
                                "children": [],
                                "depth": 1,
                                "id": 6,
                                "order": 6
                            },
                            {
                                "children": [],
                                "depth": 1,
                                "id": 7,
                                "order": 7
                            },
                            {
                                "children": [],
                                "depth": 1,
                                "id": 8,
                                "order": 8
                            },
                            {
                                "children": [],
                                "depth": 1,
                                "id": 9,
                                "order": 9
                            },
                            {
                                "children": [],
                                "depth": 1,
                                "id": 10,
                                "order": 10
                            },
                            {
                                "children": [
                                    {
                                        "children": [
                                            {
                                                "children": [],
                                                "depth": 3,
                                                "id": 13,
                                                "order": 13
                                            }
                                        ],
                                        "depth": 2,
                                        "id": 12,
                                        "order": 12
                                    },
                                    {
                                        "children": [],
                                        "depth": 2,
                                        "id": 14,
                                        "order": 14
                                    },
                                    {
                                        "children": [],
                                        "depth": 2,
                                        "id": 15,
                                        "order": 15
                                    },
                                    {
                                        "children": [],
                                        "depth": 2,
                                        "id": 16,
                                        "order": 16
                                    },
                                    {
                                        "children": [],
                                        "depth": 2,
                                        "id": 17,
                                        "order": 17
                                    }
                                ],
                                "depth": 1,
                                "id": 11,
                                "order": 11
                            },
                            {
                                "children": [],
                                "depth": 1,
                                "id": 18,
                                "order": 18
                            },
                            {
                                "children": [],
                                "depth": 1,
                                "id": 19,
                                "order": 19
                            }
                        ],
                        "depth": 0,
                        "id": 0,
                        "order": 0
                    }
                ],
                "depth": -1,
                "id": -1,
                "order": -1
            }
        ],
        "mainTraceNodeCount": 20,
        "parentIdMap": {
            "0": -1,
            "1": 0,
            "10": 0,
            "11": 0,
            "12": 11,
            "13": 12,
            "14": 11,
            "15": 11,
            "16": 11,
            "17": 11,
            "18": 0,
            "19": 0,
            "2": 0,
            "3": 2,
            "4": 0,
            "5": 4,
            "6": 0,
            "7": 0,
            "8": 0,
            "9": 0
        },
        "tidyTrace": [
            {
                "children": [
                    {
                        "children": [
                            {
                                "children": [],
                                "depth": 1,
                                "id": 1,
                                "order": 1
                            },
                            {
                                "children": [
                                    {
                                        "children": [],
                                        "depth": 2,
                                        "id": 3,
                                        "order": 3
                                    }
                                ],
                                "depth": 1,
                                "id": 2,
                                "order": 2
                            },
                            {
                                "children": [
                                    {
                                        "children": [],
                                        "depth": 2,
                                        "id": 5,
                                        "order": 5
                                    }
                                ],
                                "depth": 1,
                                "id": 4,
                                "order": 4
                            },
                            {
                                "children": [
                                    {
                                        "children": [
                                            {
                                                "children": [],
                                                "depth": 3,
                                                "id": 13,
                                                "order": 13
                                            }
                                        ],
                                        "depth": 2,
                                        "id": 12,
                                        "order": 12
                                    },
                                    {
                                        "children": [],
                                        "depth": 2,
                                        "id": 16,
                                        "order": 16
                                    },
                                    {
                                        "children": [],
                                        "depth": 2,
                                        "id": 17,
                                        "order": 17
                                    }
                                ],
                                "depth": 1,
                                "id": 11,
                                "order": 11
                            },
                            {
                                "children": [],
                                "depth": 1,
                                "id": 19,
                                "order": 19
                            }
                        ],
                        "depth": 0,
                        "id": 0,
                        "order": 0
                    }
                ],
                "depth": -1,
                "id": -1,
                "order": -1
            }
        ],
        "tidyTraceNodeCount": 12
    },
    "state_change": {
        "stateChanges": [
            {
                "address": "0x281242be4b971235674823a13fbb34951e412972",
                "erc": "ERC-20",
                "slots": [
                    {
                        "current": "0x00000000000000000000000000000000008eac93cb3bb8a9ff3f6b3129255770",
                        "key": "0x0000000000000000000000000000000000000000000000000000000000000009",
                        "prev": "0x00000000000000000000000000000000008eaa7f99cc8b4c66041c3d77420898"
                    },
                    {
                        "current": "0x00000000000000000000000000005dd9c36bd972bdabc19b3e6e99d760ad6f48",
                        "key": "0x000000000000000000000000000000000000000000000000000000000000000a",
                        "prev": "0x00000000000000000000000000005dcc8148ec137cd501cc934426c4ac225154"
                    },
                    {
                        "current": "0x66140837000000000000000e5df75cf41cfc000000000002457d89e306bd1262",
                        "key": "0x0000000000000000000000000000000000000000000000000000000000000008",
                        "prev": "0x661407e3000000000000000e6108264d6ec0000000000002450131927f999262"
                    }
                ],
                "storageVariables": [
                    {
                        "name": "reserve0",
                        "type": "uint112",
                        "value": {
                            "current": "41900798116288598626",
                            "prev": "41865798116288598626",
                            "typeTag": 1
                        }
                    },
                    {
                        "name": "reserve1",
                        "type": "uint112",
                        "value": {
                            "current": "4043966671756540",
                            "prev": "4047337304190656",
                            "typeTag": 1
                        }
                    },
                    {
                        "name": "blockTimestampLast",
                        "type": "uint32",
                        "value": {
                            "current": "1712588855",
                            "prev": "1712588771",
                            "typeTag": 1
                        }
                    },
                    {
                        "name": "price0CumulativeLast",
                        "type": "uint256",
                        "value": {
                            "current": "740806437801318875837321463095187312",
                            "prev": "740764273119690806906155782786648216",
                            "typeTag": 1
                        }
                    },
                    {
                        "name": "price1CumulativeLast",
                        "type": "uint256",
                        "value": {
                            "current": "8175543624720862101355837918717383187197768",
                            "prev": "8171032043550597088538223700051649414451540",
                            "typeTag": 1
                        }
                    }
                ]
            },
            {
                "address": "0xc02aaa39b223fe8d0a0e5c4f27ead9083c756cc2",
                "erc": "ERC-20",
                "slots": [
                    {
                        "current": "0x000000000000000000000000000000000000000000000002457d89e306bd1262",
                        "key": "0xcf63a00725717b58e31447a66b75309f02443c5d8c0b74de4eb801b1dddf48ae",
                        "prev": "0x000000000000000000000000000000000000000000000002450131927f999262"
                    }
                ],
                "storageVariables": [
                    {
                        "name": "balanceOf",
                        "type": "mapping(address => uint256)",
                        "value": {
                            "pairs": [
                                {
                                    "key": "0x281242be4b971235674823a13fbb34951e412972",
                                    "value": {
                                        "current": "41900798116288598626",
                                        "prev": "41865798116288598626",
                                        "typeTag": 1
                                    }
                                }
                            ],
                            "typeTag": 4
                        }
                    }
                ]
            },
            {
                "address": "0xda63feff6e6d75cd7a862cd56c625045dcf26e88",
                "erc": "ERC-20",
                "slots": [
                    {
                        "current": "0x0a5a41060359695a4f50a29af46fbbc051579be518e10612ffdc92c0345b15c4",
                        "key": "0x3dfd7413cd725c260cd326fe31c62b8a8cb294b458fbb2e2827956447a9a5340",
                        "prev": "0x0a5c768592e457638bf2dc6d1106b3649e0e071ee610d8041258932d34706d40"
                    },
                    {
                        "current": "0x000219392ec3fc4f8c88abe68552d8e3e1ac4772c68d3d0b0fe91198ee1ed8f5",
                        "key": "0x80bce1a56c64fa5ce2d85ea0f7511e02944917520ab07561bb35c5deb2905867",
                        "prev": "0x0000000000000000000000000000000000000000000000000000000000000000"
                    },
                    {
                        "current": "0x00139560ea490146ba6d73e7ea4bbdad3e6f37f0a7325f86f9ce8b30ec44b84d",
                        "key": "0xa7219c9413187ffe7edc0ce1b15990b3fa33cc6c089eff0272b97c85e720cece",
                        "prev": "0x0013791a89820f8d0a53e5fc53079eecd3651429a08fcaa0f73b9c5cda4e39c6"
                    }
                ],
                "storageVariables": [
                    {
                        "name": "_rOwned",
                        "type": "mapping(address => uint256)",
                        "value": {
                            "pairs": [
                                {
                                    "key": "0x281242be4b971235674823a13fbb34951e412972",
                                    "value": {
                                        "current": "4682593497287658509730429856635229377978157261598443940401509712393936770500",
                                        "prev": "4686496423003632031468026850723636832660705690804280640889096350500868091200",
                                        "typeTag": 1
                                    }
                                },
                                {
                                    "key": "0x8e0b52c00992a97d158f8685be9874bd6fd0208a",
                                    "value": {
                                        "current": "3707779430175771987431042913550470516301077248807691623084631326097070325",
                                        "prev": "0",
                                        "typeTag": 1
                                    }
                                },
                                {
                                    "key": "0xda63feff6e6d75cd7a862cd56c625045dcf26e88",
                                    "value": {
                                        "current": "34601067264449902247680373852827033484628307638582236590345995980951042125",
                                        "prev": "34405920978652152497514422677970049318380955681553227725843989200116791750",
                                        "typeTag": 1
                                    }
                                }
                            ],
                            "typeTag": 4
                        }
                    }
                ]
            }
        ]
    }
}