{
    "balance_change": {
        "balanceChanges": [
            {
                "account": "0xc6bd3edd07e294cb66b8318356d688b3516ea950",
                "assets": [
                    {
                        "address": "0x0c54f67490a1876ec8638ace22aad2d1ff9e245d",
                        "amount": "144,000",
                        "iconUrl": "",
                        "isERC1155": false,
                        "isERC721": false,
                        "sign": false,
                        "value": ""
                    }
                ]
            },
            {
                "account": "0x1d052082add64c3dc4ecf89377318df318931ebf",
                "assets": [
                    {
                        "address": "0x0c54f67490a1876ec8638ace22aad2d1ff9e245d",
                        "amount": "144,000",
                        "iconUrl": "",
                        "isERC1155": false,
                        "isERC721": false,
                        "sign": true,
                        "value": ""
                    }
                ]
            }
        ]
    },
    "profile": {
        "basic_info": {
            "baseFee": "",
            "blockNumber": 10223291,
            "callData": "0xa9059cbb0000000000000000000000001d052082add64c3dc4ecf89377318df318931ebf0000000000000000000000000000000000000000000000000000000055d4a800",
            "debugEnable": true,
            "errorInfo": "",
            "eventCount": 1,
            "feeRecipient": "0x5a0b54d5dc17e0aadc383d2db43b0a0d3e029c4c",
            "formatValue": "0",
            "gasLimit": 200000,
            "gasPrice": "70",
            "gasUsed": 40441,
            "intTxnCount": 0,
            "internalRevert": false,
            "internalRevertMessage": "",
            "isContractCreation": false,
            "isFlashloan": false,
            "maxFee": "",
            "nonce": 436985,
            "overwritedBlockNumber": -1,
            "priorityFee": "",
            "receiver": "0x0c54f67490a1876ec8638ace22aad2d1ff9e245d",
            "revertMessage": "",
            "sender": "0xc6bd3edd07e294cb66b8318356d688b3516ea950",
            "simulationEnable": true,
            "sourceTxnHash": "0x48140c9d6d7db464b35c0efd03ad5ee7190e01363682112b08546d5e73d320b5",
            "status": true,
            "timestamp": "2020-06-08T05:37:41Z",
            "transactionFee": "0.00283087",
            "txnHash": "0x48140c9d6d7db464b35c0efd03ad5ee7190e01363682112b08546d5e73d320b5",
            "txnIndex": 14,
            "type": 0,
            "value": "0"
        },
        "fund_flow": [
            {
                "amount": "144,000",
                "from": "0xc6bd3edd07e294cb66b8318356d688b3516ea950",
                "id": 1,
                "isERC1155": false,
                "isERC721": false,
                "isReverted": false,
                "order": 1,
                "to": "0x1d052082add64c3dc4ecf89377318df318931ebf",
                "token": "0x0c54f67490a1876ec8638ace22aad2d1ff9e245d"
            }
        ],
        "token_infos": [
            {
                "address": "0x0c54f67490a1876ec8638ace22aad2d1ff9e245d",
                "decimals": 4
            },
            {
                "address": "0xc02aaa39b223fe8d0a0e5c4f27ead9083c756cc2",
                "decimals": 18
            },
            {
                "address": "0xeeeeeeeeeeeeeeeeeeeeeeeeeeeeeeeeeeeeeeee",
                "decimals": 18
            }
        ]
    },
    "address_label": {
        "labels": [
            {
                "address": "0xeeeeeeeeeeeeeeeeeeeeeeeeeeeeeeeeeeeeeeee",
                "label": "Ether"
            },
            {
                "address": "0x0c54f67490a1876ec8638ace22aad2d1ff9e245d",
                "label": "LuckyChain (LUC)"
            },
            {
                "address": "0x0000000000000000000000000000000000000001",
                "label": "Precompiled"
            },
            {
                "address": "0x0000000000000000000000000000000000000002",
                "label": "Precompiled"
            },
            {
                "address": "0x0000000000000000000000000000000000000003",
                "label": "Precompiled"
            },
            {
                "address": "0x0000000000000000000000000000000000000004",
                "label": "Precompiled"
            }
        ]
    },
    "trace": {
        "accountLabels": null,
        "dataMap": {
            "-1": {
                "invocation": {
                    "address": "0xc6bd3edd07e294cb66b8318356d688b3516ea950",
                    "callData": "",
                    "decodedMethod": null,
                    "errorInfo": "",
                    "fromAddress": "",
                    "gasUsed": 0,
                    "id": -1,
                    "methodDecoded": false,
                    "operation": "",
                    "output": "",
                    "revert": false,
                    "revertMessage": "",
                    "selector": "",
                    "status": false,
                    "value": ""
                },
                "nodeType": 0
            },
            "0": {
                "invocation": {
                    "address": "0x0c54f67490a1876ec8638ace22aad2d1ff9e245d",
                    "callData": "0x0000000000000000000000001d052082add64c3dc4ecf89377318df318931ebf0000000000000000000000000000000000000000000000000000000055d4a800",
                    "decodedMethod": {
                        "callParams": [
                            {
                                "name": "_to",
                                "type": "address",
                                "value": "0x1d052082add64c3dc4ecf89377318df318931ebf"
                            },
                            {
                                "decimalAvailable": true,
                                "name": "_value",
                                "type": "uint256",
                                "value": "1,440,000,000"
                            }
                        ],
                        "constructorArguments": "",
                        "name": "transfer",
                        "returnParams": [],
                        "signature": "transfer(address,uint256)"
                    },
                    "errorInfo": "",
                    "fromAddress": "0xc6bd3edd07e294cb66b8318356d688b3516ea950",
                    "gasUsed": 40441,
                    "id": 0,
                    "methodDecoded": true,
                    "operation": "CALL",
                    "output": "",
                    "revert": false,
                    "revertMessage": "",
                    "selector": "0xa9059cbb",
                    "status": true,
                    "value": "0"
                },
                "nodeType": 0
            },
            "1": {
                "event": {
                    "contract": "0x0c54f67490a1876ec8638ace22aad2d1ff9e245d",
                    "decodedLog": {
                        "name": "Transfer",
                        "params": [
                            {
                                "name": "from",
                                "type": "address",
                                "value": "0xc6bd3edd07e294cb66b8318356d688b3516ea950"
                            },
                            {
                                "name": "to",
                                "type": "address",
                                "value": "0x1d052082add64c3dc4ecf89377318df318931ebf"
                            },
                            {
                                "decimalAvailable": true,
                                "name": "value",
                                "type": "uint256",
                                "value": "1,440,000,000"
                            }
                        ],
                        "signature": "Transfer(address,address,uint256)"
                    },
                    "id": 1,
                    "logData": "0x0000000000000000000000000000000000000000000000000000000055d4a800",
                    "logDecoded": true,
                    "operation": "EVENT",
                    "revert": false,
                    "status": true,
                    "topics": [
                        "0xddf252ad1be2c89b69c2b068fc378daa952ba7f163c4a11628f55a4df523b3ef",
                        "0x000000000000000000000000c6bd3edd07e294cb66b8318356d688b3516ea950",
                        "0x0000000000000000000000001d052082add64c3dc4ecf89377318df318931ebf"
                    ]
                },
                "nodeType": 1
            }
        },
        "gasFlame": [
            {
                "children": [
                    {
                        "children": [
                            {
                                "children": [],
                                "depth": 0,
                                "name": "Initial Gas",
                                "value": 21596
                            },
                            {
                                "children": [],
                                "depth": 0,
                                "name": "Executed Gas",
                                "value": 18845
                            }
                        ],
                        "depth": -1,
                        "name": "Actual Gas Used",
                        "value": 40441
                    },
                    {
                        "children": [],
                        "depth": -1,
                        "name": "Refunded Gas",
                        "value": 0
                    }
                ],
                "depth": -2,
                "name": "Total Gas",
                "value": 40441
            }
        ],
        "isConfirmed": true,
        "mainTrace": [
            {
                "children": [
                    {
                        "children": [
                            {
                                "children": [],
                                "depth": 1,
                                "id": 1,
                                "order": 1
                            }
                        ],
                        "depth": 0,
                        "id": 0,
                        "order": 0
                    }
                ],
                "depth": -1,
                "id": -1,
                "order": -1
            }
        ],
        "mainTraceNodeCount": 2,
        "parentIdMap": {
            "0": -1,
            "1": 0
        },
        "tidyTrace": [
            {
                "children": [
                    {
                        "children": [
                            {
                                "children": [],
                                "depth": 1,
                                "id": 1,
                                "order": 1
                            }
                        ],
                        "depth": 0,
                        "id": 0,
                        "order": 0
                    }
                ],
                "depth": -1,
                "id": -1,
                "order": -1
            }
        ],
        "tidyTraceNodeCount": 2
    },
    "state_change": {
        "stateChanges": [
            {
                "address": "0x0c54f67490a1876ec8638ace22aad2d1ff9e245d",
                "erc": "",
                "slots": [
                    {
                        "current": "0x0000000000000000000000000000000000000000000000000002391ae818386d",
                        "key": "0x275e1fe8d8286ea87a7552bd9820264f2feaa1a81d8c85c650592d2838aa4677",
                        "prev": "0x0000000000000000000000000000000000000000000000000002391b3dece06d"
                    },
                    {
                        "current": "0x00000000000000000000000000000000000000000000000000000000e3b09300",
                        "key": "0xd11512a4b39c1efbb92eaa57c6edfd819540b0c51056c7a659f9c2b946a7e60f",
                        "prev": "0x000000000000000000000000000000000000000000000000000000008ddbeb00"
                    }
                ],
                "storageVariables": [
                    {
                        "name": "balanceOf",
                        "type": "mapping(address => uint256)",
                        "value": {
                            "pairs": [
                                {
                                    "key": "0x1d052082add64c3dc4ecf89377318df318931ebf",
                                    "value": {
                                        "current": "3820000000",
                                        "prev": "2380000000",
                                        "typeTag": 1
                                    }
                                },
                                {
                                    "key": "0xc6bd3edd07e294cb66b8318356d688b3516ea950",
                                    "value": {
                                        "current": "625737679255661",
                                        "prev": "625739119255661",
                                        "typeTag": 1
                                    }
                                }
                            ],
                            "typeTag": 4
                        }
                    }
                ]
            }
        ]
    }
}