{
    "balance_change": {
        "balanceChanges": [
            {
                "account": "0xa5803485066d909ddae043cc3cee3c7697fee464",
                "assets": [
                    {
                        "address": "0x0000000000a39bb272e79075ade125fd351887ac",
                        "amount": "0.107995",
                        "iconUrl": "",
                        "isERC1155": false,
                        "isERC721": false,
                        "sign": false,
                        "value": ""
                    },
                    {
                        "address": "0x3110ef5f612208724ca51f5761a69081809f03b7",
                        "amount": "1",
                        "iconUrl": "https://assets.blocksec.com/nft/icon/nft_d45a6529-64a2-4ab6-8b0c-e6bf47e61b8a.png",
                        "isERC1155": false,
                        "isERC721": true,
                        "sign": true,
                        "tokenID": "6624",
                        "value": ""
                    }
                ]
            },
            {
                "account": "0x0000000000000000000000000000000000000000",
                "assets": [
                    {
                        "address": "0x0000000000a39bb272e79075ade125fd351887ac",
                        "amount": "0.107995",
                        "iconUrl": "",
                        "isERC1155": false,
                        "isERC721": false,
                        "sign": true,
                        "value": ""
                    }
                ]
            },
            {
                "account": "0x0000000000a39bb272e79075ade125fd351887ac",
                "assets": [
                    {
                        "address": "0xeeeeeeeeeeeeeeeeeeeeeeeeeeeeeeeeeeeeeeee",
                        "amount": "0.107995",
                        "iconUrl": "https://assets.blocksec.com/image/1663669189317-3.png",
                        "isERC1155": false,
                        "isERC721": false,
                        "sign": false,
                        "value": "335.98508041500002042"
                    }
                ]
            },
            {
                "account": "0x0000a26b00c1f0df003000390027140000faa719",
                "assets": [
                    {
                        "address": "0xeeeeeeeeeeeeeeeeeeeeeeeeeeeeeeeeeeeeeeee",
                        "amount": "0.000539975",
                        "iconUrl": "https://assets.blocksec.com/image/1663669189317-3.png",
                        "isERC1155": false,
                        "isERC721": false,
                        "sign": true,
                        "value": "1.6799254020750001022"
                    }
                ]
            },
            {
                "account": "0x9e4ec32d0cb9663faee42724a5d194d1d7317fb9",
                "assets": [
                    {
                        "address": "0xeeeeeeeeeeeeeeeeeeeeeeeeeeeeeeeeeeeeeeee",
                        "amount": "0.107455025",
                        "iconUrl": "https://assets.blocksec.com/image/1663669189317-3.png",
                        "isERC1155": false,
                        "isERC721": false,
                        "sign": true,
                        "value": "334.3051550129250203"
                    },
                    {
                        "address": "0x3110ef5f612208724ca51f5761a69081809f03b7",
                        "amount": "1",
                        "iconUrl": "https://assets.blocksec.com/nft/icon/nft_d45a6529-64a2-4ab6-8b0c-e6bf47e61b8a.png",
                        "isERC1155": false,
                        "isERC721": true,
                        "sign": false,
                        "tokenID": "6624",
                        "value": ""
                    }
                ]
            }
        ]
    },
    "profile": {
        "basic_info": {
            "baseFee": "14.993788373",
            "blockNumber": 20434213,
            "callData": "0x09ba153d000000000000000000000000000000000000000000000000000000000000008000000000000000000000000000000000000000000000000000000000000001400000000000000000000000000000000000000000000000000000000000000a600000000000000000000000000000000000000000000000000000000000000b200000000000000000000000000000000000000000000000000000000000000040000000000000000000000000000000000000000000000000000000000000008000000000000000000000000000000000000000000000000000000000000000010000000000000000000000000000000000a39bb272e79075ade125fd351887ac0000000000000000000000000000000000000000000000000000000000000001000000000000000000000000000000000000000000000000017face15c84b00000000000000000000000000000000000000000000000000000000000000000010000000000000000000000000000000000000000000000000000000000000020000000000000000000000000000000000000000000000000000000000000000d000000000000000000000000000000000000000000000000017face15c84b0000000000000000000000000000000000000000000000000000000000000000060000000000000000000000000000000000000000000000000000000000000084409c5eabe000000000000000000000000000000000000000000000000000000000000002000000000000000000000000000000000000000000000000000000000000007e487201b4100000000000000000000000000000000000000000000000000000000000000e00000000000000000000000000000000000000000000000000000000000000600000000000000000000000000000000000000000000000000000000000000062000000000000000000000000000000000000000000000000000000000000006c000000000000000000000000000000000000000000000000000000000000000000000000000000000000000000000000000000000000000000000000000000001000000000000000000000000000000000000000000000000017face15c84b0000000000000000000000000000000000000000000000000000000000000000001000000000000000000000000000000000000000000000000000000000000002000000000000000000000000000000000000000000000000000000000000000a000000000000000000000000000000000000000000000000000000000000000010000000000000000000000000000000000000000000000000000000000000001000000000000000000000000000000000000000000000000000000000000046000000000000000000000000000000000000000000000000000000000000004c00000000000000000000000009e4ec32d0cb9663faee42724a5d194d1d7317fb9000000000000000000000000004c00500000ad104d7dbd00e3ae0a5c00560c000000000000000000000000000000000000000000000000000000000000000160000000000000000000000000000000000000000000000000000000000000022000000000000000000000000000000000000000000000000000000000000000000000000000000000000000000000000000000000000000000000000066ab8b710000000000000000000000000000000000000000000000000000000066ab9981000000000000000000000000000000000000000000000000000000000000000072db8c0b0000000000000000000000000000000000000000245182150ff07f720000007b02230091a7ed01230072f7006a004d60a8d4e71d599b8104250f00000000000000000000000000000000000000000000000000000000000000000002000000000000000000000000000000000000000000000000000000000000000100000000000000000000000000000000000000000000000000000000000000020000000000000000000000003110ef5f612208724ca51f5761a69081809f03b700000000000000000000000000000000000000000000000000000000000019e0000000000000000000000000000000000000000000000000000000000000000100000000000000000000000000000000000000000000000000000000000000010000000000000000000000000000000000000000000000000000000000000002000000000000000000000000000000000000000000000000000000000000000000000000000000000000000000000000000000000000000000000000000000000000000000000000000000000000000000000000000000000000000000000000000000000000000000000000000000000000000000000000017dc1c6a274aa00000000000000000000000000000000000000000000000000017dc1c6a274aa000000000000000000000000009e4ec32d0cb9663faee42724a5d194d1d7317fb90000000000000000000000000000000000000000000000000000000000000000000000000000000000000000000000000000000000000000000000000000000000000000000000000000000000000000000000000000000000000000000000000000000000000000000000000000000000000000000000000001eb1aba1006000000000000000000000000000000000000000000000000000001eb1aba1006000000000000000000000000000000a26b00c1f0df003000390027140000faa7190000000000000000000000000000000000000000000000000000000000000040bf077d1b2f20ce091eee62523df6736e21e375e0663443aad10aea4e22cec9f5037cbb0285dab68cc47c67ebe634b4de4be44942c5c52a04266ae82d86f655b400000000000000000000000000000000000000000000000000000000000000000000000000000000000000000000000000000000000000000000000000000000000000000000000000000000000000000000000000000000000000000000000100000000000000000000000000000000000000000000000000000000000000200000000000000000000000000000000000000000000000000000000000000001000000000000000000000000000000000000000000000000000000000000000000000000000000000000000000000000000000000000000000000000000000000000000000000000000000000000000000000000000000000000000000000002000000000000000000000000000000000000000000000000000000000000004000000000000000000000000000000000000000000000000000000000000000a0000000000000000000000000000000000000000000000000000000000000000100000000000000000000000000000000000000000000000000000000000000000000000000000000000000000000000000000000000000000000000000000000000000000000000000000000000000000000000000000000000000000000000100000000000000000000000000000000000000000000000000000000000000000000000000000000000000000000000000000000000000000000000000000001000000000000000000000000000000000000000000000000000000000000000000000000000000000000000000000000000000000000000000000000000000000000000000000000000000000000000000000000000000010000000000000000000000000000000000000000000000000000000000000020000000000000000000000000000000000000000000000000000000000000002000000000000000000000000000000000000000000000000000000000000000242e1a7d4d000000000000000000000000000000000000000000000000017face15c84b000000000000000000000000000000000000000000000000000000000000000000000000000000000000000000000000000000000000000000000000000",
            "debugEnable": true,
            "errorInfo": "",
            "eventCount": 5,
            "feeRecipient": "0x95222290dd7278aa3ddd389cc1e1d165cc4bafe5",
            "formatValue": "0",
            "gasLimit": 261335,
            "gasPrice": "16.820596573",
            "gasUsed": 222040,
            "intTxnCount": 14,
            "internalRevert": false,
            "internalRevertMessage": "",
            "isContractCreation": false,
            "isFlashloan": false,
            "maxFee": "22.464609759",
            "nonce": 92,
            "overwritedBlockNumber": -1,
            "priorityFee": "1.8268082",
            "receiver": "0x39da41747a83aee658334415666f3ef92dd0d541",
            "revertMessage": "",
            "sender": "0xa5803485066d909ddae043cc3cee3c7697fee464",
            "simulationEnable": true,
            "sourceTxnHash": "0x4815654e12af254c1d62ee2190ef59ae8d215c2a7f86d37ca695d2ecc3dcc78a",
            "status": true,
            "timestamp": "2024-08-01T14:12:11Z",
            "transactionFee": "0.00373484526306892",
            "txnHash": "0x4815654e12af254c1d62ee2190ef59ae8d215c2a7f86d37ca695d2ecc3dcc78a",
            "txnIndex": 83,
            "type": 2,
            "value": "0"
        },
        "fund_flow": [
            {
                "amount": "0.107995",
                "from": "0xa5803485066d909ddae043cc3cee3c7697fee464",
                "id": 1,
                "isERC1155": false,
                "isERC721": false,
                "isReverted": false,
                "order": 1,
                "to": "0x39da41747a83aee658334415666f3ef92dd0d541",
                "token": "0x0000000000a39bb272e79075ade125fd351887ac"
            },
            {
                "amount": "0.107995",
                "from": "0x0000000000a39bb272e79075ade125fd351887ac",
                "id": 2,
                "isERC1155": false,
                "isERC721": false,
                "isReverted": false,
                "order": 2,
                "to": "0x39da41747a83aee658334415666f3ef92dd0d541",
                "token": "0xeeeeeeeeeeeeeeeeeeeeeeeeeeeeeeeeeeeeeeee"
            },
            {
                "amount": "0.107995",
                "from": "0x39da41747a83aee658334415666f3ef92dd0d541",
                "id": 3,
                "isERC1155": false,
                "isERC721": false,
                "isReverted": false,
                "order": 3,
                "to": "0x0000000000000000000000000000000000000000",
                "token": "0x0000000000a39bb272e79075ade125fd351887ac"
            },
            {
                "amount": "0.107995",
                "from": "0x39da41747a83aee658334415666f3ef92dd0d541",
                "id": 4,
                "isERC1155": false,
                "isERC721": false,
                "isReverted": false,
                "order": 4,
                "to": "0x0000000000000068f116a894984e2db1123eb395",
                "token": "0xeeeeeeeeeeeeeeeeeeeeeeeeeeeeeeeeeeeeeeee"
            },
            {
                "amount": "0.107455025",
                "from": "0x0000000000000068f116a894984e2db1123eb395",
                "id": 5,
                "isERC1155": false,
                "isERC721": false,
                "isReverted": false,
                "order": 5,
                "to": "0x9e4ec32d0cb9663faee42724a5d194d1d7317fb9",
                "token": "0xeeeeeeeeeeeeeeeeeeeeeeeeeeeeeeeeeeeeeeee"
            },
            {
                "amount": "0.000539975",
                "from": "0x0000000000000068f116a894984e2db1123eb395",
                "id": 6,
                "isERC1155": false,
                "isERC721": false,
                "isReverted": false,
                "order": 6,
                "to": "0x0000a26b00c1f0df003000390027140000faa719",
                "token": "0xeeeeeeeeeeeeeeeeeeeeeeeeeeeeeeeeeeeeeeee"
            },
            {
                "amount": "1",
                "from": "0x9e4ec32d0cb9663faee42724a5d194d1d7317fb9",
                "id": 7,
                "isERC1155": false,
                "isERC721": true,
                "isReverted": false,
                "order": 7,
                "to": "0xa5803485066d909ddae043cc3cee3c7697fee464",
                "token": "0x3110ef5f612208724ca51f5761a69081809f03b7",
                "tokenID": "6624"
            }
        ],
        "token_infos": [
            {
                "address": "0x0000000000a39bb272e79075ade125fd351887ac",
                "decimals": 18
            },
            {
                "address": "0xc02aaa39b223fe8d0a0e5c4f27ead9083c756cc2",
                "decimals": 18
            },
            {
                "address": "0xeeeeeeeeeeeeeeeeeeeeeeeeeeeeeeeeeeeeeeee",
                "decimals": 18
            }
        ]
    },
    "address_label": {
        "labels": [
            {
                "address": "0x0000000000000000000000000000000000000001",
                "label": "Precompiled"
            },
            {
                "address": "0x0000000000000000000000000000000000000002",
                "label": "Precompiled"
            },
            {
                "address": "0x0000000000000000000000000000000000000004",
                "label": "Precompiled"
            },
            {
                "address": "0xeeeeeeeeeeeeeeeeeeeeeeeeeeeeeeeeeeeeeeee",
                "label": "Ether"
            },
            {
                "address": "0x39da41747a83aee658334415666f3ef92dd0d541",
                "label": "Blur.io: Marketplace 2"
            },
            {
                "address": "0x004c00500000ad104d7dbd00e3ae0a5c00560c00",
                "label": "OpenSea: Pausable Zone"
            },
            {
                "address": "0x0000000000000000000000000000000000000003",
                "label": "Precompiled"
            },
            {
                "address": "0x0000000000000000000000000000000000000000",
                "label": "Null Address"
            },
            {
                "address": "0x01a656024de4b89e2d0198bf4d468e8fd2358b17",
                "label": "Blur Pool"
            },
            {
                "address": "0x0000000000000068f116a894984e2db1123eb395",
                "label": "Seaport 1.6"
            },
            {
                "address": "0x1e0049783f008a0085193e00003d00cd54003c71",
                "label": "OpenSea: Conduit"
            },
            {
                "address": "0x0000000000a39bb272e79075ade125fd351887ac",
                "label": "Blur: Bidding"
            },
            {
                "address": "0x3110ef5f612208724ca51f5761a69081809f03b7",
                "label": "Impostors Genesis: IMPOSTORS Token"
            },
            {
                "address": "0x0000a26b00c1f0df003000390027140000faa719",
                "label": "OpenSea: Fees 3"
            }
        ]
    },
    "trace": {
        "accountLabels": null,
        "dataMap": {
            "-1": {
                "invocation": {
                    "address": "0xa5803485066d909ddae043cc3cee3c7697fee464",
                    "callData": "",
                    "decodedMethod": null,
                    "errorInfo": "",
                    "fromAddress": "",
                    "gasUsed": 0,
                    "id": -1,
                    "methodDecoded": false,
                    "operation": "",
                    "output": "",
                    "revert": false,
                    "revertMessage": "",
                    "selector": "",
                    "status": false,
                    "value": ""
                },
                "nodeType": 0
            },
            "0": {
                "invocation": {
                    "address": "0x39da41747a83aee658334415666f3ef92dd0d541",
                    "callData": "0x000000000000000000000000000000000000000000000000000000000000008000000000000000000000000000000000000000000000000000000000000001400000000000000000000000000000000000000000000000000000000000000a600000000000000000000000000000000000000000000000000000000000000b200000000000000000000000000000000000000000000000000000000000000040000000000000000000000000000000000000000000000000000000000000008000000000000000000000000000000000000000000000000000000000000000010000000000000000000000000000000000a39bb272e79075ade125fd351887ac0000000000000000000000000000000000000000000000000000000000000001000000000000000000000000000000000000000000000000017face15c84b00000000000000000000000000000000000000000000000000000000000000000010000000000000000000000000000000000000000000000000000000000000020000000000000000000000000000000000000000000000000000000000000000d000000000000000000000000000000000000000000000000017face15c84b0000000000000000000000000000000000000000000000000000000000000000060000000000000000000000000000000000000000000000000000000000000084409c5eabe000000000000000000000000000000000000000000000000000000000000002000000000000000000000000000000000000000000000000000000000000007e487201b4100000000000000000000000000000000000000000000000000000000000000e00000000000000000000000000000000000000000000000000000000000000600000000000000000000000000000000000000000000000000000000000000062000000000000000000000000000000000000000000000000000000000000006c000000000000000000000000000000000000000000000000000000000000000000000000000000000000000000000000000000000000000000000000000000001000000000000000000000000000000000000000000000000017face15c84b0000000000000000000000000000000000000000000000000000000000000000001000000000000000000000000000000000000000000000000000000000000002000000000000000000000000000000000000000000000000000000000000000a000000000000000000000000000000000000000000000000000000000000000010000000000000000000000000000000000000000000000000000000000000001000000000000000000000000000000000000000000000000000000000000046000000000000000000000000000000000000000000000000000000000000004c00000000000000000000000009e4ec32d0cb9663faee42724a5d194d1d7317fb9000000000000000000000000004c00500000ad104d7dbd00e3ae0a5c00560c000000000000000000000000000000000000000000000000000000000000000160000000000000000000000000000000000000000000000000000000000000022000000000000000000000000000000000000000000000000000000000000000000000000000000000000000000000000000000000000000000000000066ab8b710000000000000000000000000000000000000000000000000000000066ab9981000000000000000000000000000000000000000000000000000000000000000072db8c0b0000000000000000000000000000000000000000245182150ff07f720000007b02230091a7ed01230072f7006a004d60a8d4e71d599b8104250f00000000000000000000000000000000000000000000000000000000000000000002000000000000000000000000000000000000000000000000000000000000000100000000000000000000000000000000000000000000000000000000000000020000000000000000000000003110ef5f612208724ca51f5761a69081809f03b700000000000000000000000000000000000000000000000000000000000019e0000000000000000000000000000000000000000000000000000000000000000100000000000000000000000000000000000000000000000000000000000000010000000000000000000000000000000000000000000000000000000000000002000000000000000000000000000000000000000000000000000000000000000000000000000000000000000000000000000000000000000000000000000000000000000000000000000000000000000000000000000000000000000000000000000000000000000000000000000000000000000000000000017dc1c6a274aa00000000000000000000000000000000000000000000000000017dc1c6a274aa000000000000000000000000009e4ec32d0cb9663faee42724a5d194d1d7317fb90000000000000000000000000000000000000000000000000000000000000000000000000000000000000000000000000000000000000000000000000000000000000000000000000000000000000000000000000000000000000000000000000000000000000000000000000000000000000000000000000001eb1aba1006000000000000000000000000000000000000000000000000000001eb1aba1006000000000000000000000000000000a26b00c1f0df003000390027140000faa7190000000000000000000000000000000000000000000000000000000000000040bf077d1b2f20ce091eee62523df6736e21e375e0663443aad10aea4e22cec9f5037cbb0285dab68cc47c67ebe634b4de4be44942c5c52a04266ae82d86f655b400000000000000000000000000000000000000000000000000000000000000000000000000000000000000000000000000000000000000000000000000000000000000000000000000000000000000000000000000000000000000000000000100000000000000000000000000000000000000000000000000000000000000200000000000000000000000000000000000000000000000000000000000000001000000000000000000000000000000000000000000000000000000000000000000000000000000000000000000000000000000000000000000000000000000000000000000000000000000000000000000000000000000000000000000000002000000000000000000000000000000000000000000000000000000000000004000000000000000000000000000000000000000000000000000000000000000a0000000000000000000000000000000000000000000000000000000000000000100000000000000000000000000000000000000000000000000000000000000000000000000000000000000000000000000000000000000000000000000000000000000000000000000000000000000000000000000000000000000000000000100000000000000000000000000000000000000000000000000000000000000000000000000000000000000000000000000000000000000000000000000000001000000000000000000000000000000000000000000000000000000000000000000000000000000000000000000000000000000000000000000000000000000000000000000000000000000000000000000000000000000010000000000000000000000000000000000000000000000000000000000000020000000000000000000000000000000000000000000000000000000000000002000000000000000000000000000000000000000000000000000000000000000242e1a7d4d000000000000000000000000000000000000000000000000017face15c84b000000000000000000000000000000000000000000000000000000000000000000000000000000000000000000000000000000000000000000000000000",
                    "decodedMethod": {
                        "callParams": [
                            {
                                "name": "erc20Details",
                                "type": "(address[],uint256[])",
                                "value": [
                                    {
                                        "name": "tokenAddrs",
                                        "type": "address[]",
                                        "value": [
                                            "0x0000000000a39bb272e79075ade125fd351887ac"
                                        ]
                                    },
                                    {
                                        "name": "amounts",
                                        "type": "uint256[]",
                                        "value": [
                                            "107,995,000,000,000,000"
                                        ]
                                    }
                                ]
                            },
                            {
                                "name": "tradeDetails",
                                "type": "(uint256,uint256,bytes)[]",
                                "value": [
                                    [
                                        {
                                            "name": "marketId",
                                            "type": "uint256",
                                            "value": "13"
                                        },
                                        {
                                            "name": "value",
                                            "type": "uint256",
                                            "value": "107,995,000,000,000,000"
                                        },
                                        {
                                            "name": "tradeData",
                                            "type": "bytes",
                                            "value": "0x09c5eabe000000000000000000000000000000000000000000000000000000000000002000000000000000000000000000000000000000000000000000000000000007e487201b4100000000000000000000000000000000000000000000000000000000000000e00000000000000000000000000000000000000000000000000000000000000600000000000000000000000000000000000000000000000000000000000000062000000000000000000000000000000000000000000000000000000000000006c000000000000000000000000000000000000000000000000000000000000000000000000000000000000000000000000000000000000000000000000000000001000000000000000000000000000000000000000000000000017face15c84b0000000000000000000000000000000000000000000000000000000000000000001000000000000000000000000000000000000000000000000000000000000002000000000000000000000000000000000000000000000000000000000000000a000000000000000000000000000000000000000000000000000000000000000010000000000000000000000000000000000000000000000000000000000000001000000000000000000000000000000000000000000000000000000000000046000000000000000000000000000000000000000000000000000000000000004c00000000000000000000000009e4ec32d0cb9663faee42724a5d194d1d7317fb9000000000000000000000000004c00500000ad104d7dbd00e3ae0a5c00560c000000000000000000000000000000000000000000000000000000000000000160000000000000000000000000000000000000000000000000000000000000022000000000000000000000000000000000000000000000000000000000000000000000000000000000000000000000000000000000000000000000000066ab8b710000000000000000000000000000000000000000000000000000000066ab9981000000000000000000000000000000000000000000000000000000000000000072db8c0b0000000000000000000000000000000000000000245182150ff07f720000007b02230091a7ed01230072f7006a004d60a8d4e71d599b8104250f00000000000000000000000000000000000000000000000000000000000000000002000000000000000000000000000000000000000000000000000000000000000100000000000000000000000000000000000000000000000000000000000000020000000000000000000000003110ef5f612208724ca51f5761a69081809f03b700000000000000000000000000000000000000000000000000000000000019e0000000000000000000000000000000000000000000000000000000000000000100000000000000000000000000000000000000000000000000000000000000010000000000000000000000000000000000000000000000000000000000000002000000000000000000000000000000000000000000000000000000000000000000000000000000000000000000000000000000000000000000000000000000000000000000000000000000000000000000000000000000000000000000000000000000000000000000000000000000000000000000000000017dc1c6a274aa00000000000000000000000000000000000000000000000000017dc1c6a274aa000000000000000000000000009e4ec32d0cb9663faee42724a5d194d1d7317fb90000000000000000000000000000000000000000000000000000000000000000000000000000000000000000000000000000000000000000000000000000000000000000000000000000000000000000000000000000000000000000000000000000000000000000000000000000000000000000000000000001eb1aba1006000000000000000000000000000000000000000000000000000001eb1aba1006000000000000000000000000000000a26b00c1f0df003000390027140000faa7190000000000000000000000000000000000000000000000000000000000000040bf077d1b2f20ce091eee62523df6736e21e375e0663443aad10aea4e22cec9f5037cbb0285dab68cc47c67ebe634b4de4be44942c5c52a04266ae82d86f655b400000000000000000000000000000000000000000000000000000000000000000000000000000000000000000000000000000000000000000000000000000000000000000000000000000000000000000000000000000000000000000000000100000000000000000000000000000000000000000000000000000000000000200000000000000000000000000000000000000000000000000000000000000001000000000000000000000000000000000000000000000000000000000000000000000000000000000000000000000000000000000000000000000000000000000000000000000000000000000000000000000000000000000000000000000002000000000000000000000000000000000000000000000000000000000000004000000000000000000000000000000000000000000000000000000000000000a000000000000000000000000000000000000000000000000000000000000000010000000000000000000000000000000000000000000000000000000000000000000000000000000000000000000000000000000000000000000000000000000000000000000000000000000000000000000000000000000000000000000000010000000000000000000000000000000000000000000000000000000000000000000000000000000000000000000000000000000000000000000000000000000100000000000000000000000000000000000000000000000000000000"
                                        }
                                    ]
                                ]
                            },
                            {
                                "name": "converstionDetails",
                                "type": "(bytes)[]",
                                "value": [
                                    [
                                        {
                                            "name": "conversionData",
                                            "type": "bytes",
                                            "value": "0x2e1a7d4d000000000000000000000000000000000000000000000000017face15c84b000"
                                        }
                                    ]
                                ]
                            },
                            {
                                "name": "dustTokens",
                                "type": "address[]",
                                "value": []
                            }
                        ],
                        "constructorArguments": "",
                        "name": "batchBuyWithERC20s",
                        "returnParams": [],
                        "signature": "batchBuyWithERC20s((address[],uint256[]),(uint256,uint256,bytes)[],(bytes)[],address[])"
                    },
                    "errorInfo": "",
                    "fromAddress": "0xa5803485066d909ddae043cc3cee3c7697fee464",
                    "gasUsed": 222040,
                    "id": 0,
                    "methodDecoded": true,
                    "operation": "CALL",
                    "output": "",
                    "revert": false,
                    "revertMessage": "",
                    "selector": "0x09ba153d",
                    "status": true,
                    "value": "0"
                },
                "nodeType": 0
            },
            "1": {
                "invocation": {
                    "address": "0x0000000000a39bb272e79075ade125fd351887ac",
                    "callData": "0x000000000000000000000000a5803485066d909ddae043cc3cee3c7697fee46400000000000000000000000039da41747a83aee658334415666f3ef92dd0d541000000000000000000000000000000000000000000000000017face15c84b000",
                    "decodedMethod": {
                        "callParams": [
                            {
                                "name": "from",
                                "type": "address",
                                "value": "0xa5803485066d909ddae043cc3cee3c7697fee464"
                            },
                            {
                                "name": "to",
                                "type": "address",
                                "value": "0x39da41747a83aee658334415666f3ef92dd0d541"
                            },
                            {
                                "decimalAvailable": true,
                                "name": "amount",
                                "type": "uint256",
                                "value": "107,995,000,000,000,000"
                            }
                        ],
                        "constructorArguments": "",
                        "name": "transferFrom",
                        "returnParams": [
                            {
                                "name": "",
                                "type": "bool",
                                "value": true
                            }
                        ],
                        "signature": "transferFrom(address,address,uint256)"
                    },
                    "errorInfo": "",
                    "fromAddress": "0x39da41747a83aee658334415666f3ef92dd0d541",
                    "gasUsed": 34945,
                    "id": 1,
                    "methodDecoded": true,
                    "operation": "CALL",
                    "output": "0x0000000000000000000000000000000000000000000000000000000000000001",
                    "revert": false,
                    "revertMessage": "",
                    "selector": "0x23b872dd",
                    "status": true,
                    "value": "0"
                },
                "nodeType": 0
            },
            "10": {
                "invocation": {
                    "address": "0x0bc2f8668e86187bd9e8fe832f72683871cb5f21",
                    "callData": "0x000000000000000000000000000000000000000000000000000000000000002000000000000000000000000000000000000000000000000000000000000007e487201b4100000000000000000000000000000000000000000000000000000000000000e00000000000000000000000000000000000000000000000000000000000000600000000000000000000000000000000000000000000000000000000000000062000000000000000000000000000000000000000000000000000000000000006c000000000000000000000000000000000000000000000000000000000000000000000000000000000000000000000000000000000000000000000000000000001000000000000000000000000000000000000000000000000017face15c84b0000000000000000000000000000000000000000000000000000000000000000001000000000000000000000000000000000000000000000000000000000000002000000000000000000000000000000000000000000000000000000000000000a000000000000000000000000000000000000000000000000000000000000000010000000000000000000000000000000000000000000000000000000000000001000000000000000000000000000000000000000000000000000000000000046000000000000000000000000000000000000000000000000000000000000004c00000000000000000000000009e4ec32d0cb9663faee42724a5d194d1d7317fb9000000000000000000000000004c00500000ad104d7dbd00e3ae0a5c00560c000000000000000000000000000000000000000000000000000000000000000160000000000000000000000000000000000000000000000000000000000000022000000000000000000000000000000000000000000000000000000000000000000000000000000000000000000000000000000000000000000000000066ab8b710000000000000000000000000000000000000000000000000000000066ab9981000000000000000000000000000000000000000000000000000000000000000072db8c0b0000000000000000000000000000000000000000245182150ff07f720000007b02230091a7ed01230072f7006a004d60a8d4e71d599b8104250f00000000000000000000000000000000000000000000000000000000000000000002000000000000000000000000000000000000000000000000000000000000000100000000000000000000000000000000000000000000000000000000000000020000000000000000000000003110ef5f612208724ca51f5761a69081809f03b700000000000000000000000000000000000000000000000000000000000019e0000000000000000000000000000000000000000000000000000000000000000100000000000000000000000000000000000000000000000000000000000000010000000000000000000000000000000000000000000000000000000000000002000000000000000000000000000000000000000000000000000000000000000000000000000000000000000000000000000000000000000000000000000000000000000000000000000000000000000000000000000000000000000000000000000000000000000000000000000000000000000000000000017dc1c6a274aa00000000000000000000000000000000000000000000000000017dc1c6a274aa000000000000000000000000009e4ec32d0cb9663faee42724a5d194d1d7317fb90000000000000000000000000000000000000000000000000000000000000000000000000000000000000000000000000000000000000000000000000000000000000000000000000000000000000000000000000000000000000000000000000000000000000000000000000000000000000000000000000001eb1aba1006000000000000000000000000000000000000000000000000000001eb1aba1006000000000000000000000000000000a26b00c1f0df003000390027140000faa7190000000000000000000000000000000000000000000000000000000000000040bf077d1b2f20ce091eee62523df6736e21e375e0663443aad10aea4e22cec9f5037cbb0285dab68cc47c67ebe634b4de4be44942c5c52a04266ae82d86f655b400000000000000000000000000000000000000000000000000000000000000000000000000000000000000000000000000000000000000000000000000000000000000000000000000000000000000000000000000000000000000000000000100000000000000000000000000000000000000000000000000000000000000200000000000000000000000000000000000000000000000000000000000000001000000000000000000000000000000000000000000000000000000000000000000000000000000000000000000000000000000000000000000000000000000000000000000000000000000000000000000000000000000000000000000000002000000000000000000000000000000000000000000000000000000000000004000000000000000000000000000000000000000000000000000000000000000a000000000000000000000000000000000000000000000000000000000000000010000000000000000000000000000000000000000000000000000000000000000000000000000000000000000000000000000000000000000000000000000000000000000000000000000000000000000000000000000000000000000000000010000000000000000000000000000000000000000000000000000000000000000000000000000000000000000000000000000000000000000000000000000000100000000000000000000000000000000000000000000000000000000",
                    "decodedMethod": {
                        "callParams": [
                            {
                                "name": "data",
                                "type": "bytes",
                                "value": "0x87201b4100000000000000000000000000000000000000000000000000000000000000e00000000000000000000000000000000000000000000000000000000000000600000000000000000000000000000000000000000000000000000000000000062000000000000000000000000000000000000000000000000000000000000006c000000000000000000000000000000000000000000000000000000000000000000000000000000000000000000000000000000000000000000000000000000001000000000000000000000000000000000000000000000000017face15c84b0000000000000000000000000000000000000000000000000000000000000000001000000000000000000000000000000000000000000000000000000000000002000000000000000000000000000000000000000000000000000000000000000a000000000000000000000000000000000000000000000000000000000000000010000000000000000000000000000000000000000000000000000000000000001000000000000000000000000000000000000000000000000000000000000046000000000000000000000000000000000000000000000000000000000000004c00000000000000000000000009e4ec32d0cb9663faee42724a5d194d1d7317fb9000000000000000000000000004c00500000ad104d7dbd00e3ae0a5c00560c000000000000000000000000000000000000000000000000000000000000000160000000000000000000000000000000000000000000000000000000000000022000000000000000000000000000000000000000000000000000000000000000000000000000000000000000000000000000000000000000000000000066ab8b710000000000000000000000000000000000000000000000000000000066ab9981000000000000000000000000000000000000000000000000000000000000000072db8c0b0000000000000000000000000000000000000000245182150ff07f720000007b02230091a7ed01230072f7006a004d60a8d4e71d599b8104250f00000000000000000000000000000000000000000000000000000000000000000002000000000000000000000000000000000000000000000000000000000000000100000000000000000000000000000000000000000000000000000000000000020000000000000000000000003110ef5f612208724ca51f5761a69081809f03b700000000000000000000000000000000000000000000000000000000000019e0000000000000000000000000000000000000000000000000000000000000000100000000000000000000000000000000000000000000000000000000000000010000000000000000000000000000000000000000000000000000000000000002000000000000000000000000000000000000000000000000000000000000000000000000000000000000000000000000000000000000000000000000000000000000000000000000000000000000000000000000000000000000000000000000000000000000000000000000000000000000000000000000017dc1c6a274aa00000000000000000000000000000000000000000000000000017dc1c6a274aa000000000000000000000000009e4ec32d0cb9663faee42724a5d194d1d7317fb90000000000000000000000000000000000000000000000000000000000000000000000000000000000000000000000000000000000000000000000000000000000000000000000000000000000000000000000000000000000000000000000000000000000000000000000000000000000000000000000000001eb1aba1006000000000000000000000000000000000000000000000000000001eb1aba1006000000000000000000000000000000a26b00c1f0df003000390027140000faa7190000000000000000000000000000000000000000000000000000000000000040bf077d1b2f20ce091eee62523df6736e21e375e0663443aad10aea4e22cec9f5037cbb0285dab68cc47c67ebe634b4de4be44942c5c52a04266ae82d86f655b400000000000000000000000000000000000000000000000000000000000000000000000000000000000000000000000000000000000000000000000000000000000000000000000000000000000000000000000000000000000000000000000100000000000000000000000000000000000000000000000000000000000000200000000000000000000000000000000000000000000000000000000000000001000000000000000000000000000000000000000000000000000000000000000000000000000000000000000000000000000000000000000000000000000000000000000000000000000000000000000000000000000000000000000000000002000000000000000000000000000000000000000000000000000000000000004000000000000000000000000000000000000000000000000000000000000000a0000000000000000000000000000000000000000000000000000000000000000100000000000000000000000000000000000000000000000000000000000000000000000000000000000000000000000000000000000000000000000000000000000000000000000000000000000000000000000000000000000000000000000100000000000000000000000000000000000000000000000000000000000000000000000000000000000000000000000000000000000000000000000000000001"
                            }
                        ],
                        "constructorArguments": "",
                        "name": "execute",
                        "returnParams": [],
                        "signature": "execute(bytes)"
                    },
                    "errorInfo": "",
                    "fromAddress": "0x39da41747a83aee658334415666f3ef92dd0d541",
                    "gasUsed": 130151,
                    "id": 10,
                    "methodDecoded": true,
                    "operation": "DELEGATECALL",
                    "output": "",
                    "revert": false,
                    "revertMessage": "",
                    "selector": "0x09c5eabe",
                    "status": true,
                    "value": "0"
                },
                "nodeType": 0
            },
            "11": {
                "invocation": {
                    "address": "0x0000000000000068f116a894984e2db1123eb395",
                    "callData": "0x00000000000000000000000000000000000000000000000000000000000000e00000000000000000000000000000000000000000000000000000000000000600000000000000000000000000000000000000000000000000000000000000062000000000000000000000000000000000000000000000000000000000000006c00000000000000000000000000000000000000000000000000000000000000000000000000000000000000000a5803485066d909ddae043cc3cee3c7697fee46400000000000000000000000000000000000000000000000000000000000000200000000000000000000000000000000000000000000000000000000000000001000000000000000000000000000000000000000000000000000000000000002000000000000000000000000000000000000000000000000000000000000000a000000000000000000000000000000000000000000000000000000000000000010000000000000000000000000000000000000000000000000000000000000001000000000000000000000000000000000000000000000000000000000000046000000000000000000000000000000000000000000000000000000000000004c00000000000000000000000009e4ec32d0cb9663faee42724a5d194d1d7317fb9000000000000000000000000004c00500000ad104d7dbd00e3ae0a5c00560c000000000000000000000000000000000000000000000000000000000000000160000000000000000000000000000000000000000000000000000000000000022000000000000000000000000000000000000000000000000000000000000000000000000000000000000000000000000000000000000000000000000066ab8b710000000000000000000000000000000000000000000000000000000066ab9981000000000000000000000000000000000000000000000000000000000000000072db8c0b0000000000000000000000000000000000000000245182150ff07f720000007b02230091a7ed01230072f7006a004d60a8d4e71d599b8104250f00000000000000000000000000000000000000000000000000000000000000000002000000000000000000000000000000000000000000000000000000000000000100000000000000000000000000000000000000000000000000000000000000020000000000000000000000003110ef5f612208724ca51f5761a69081809f03b700000000000000000000000000000000000000000000000000000000000019e0000000000000000000000000000000000000000000000000000000000000000100000000000000000000000000000000000000000000000000000000000000010000000000000000000000000000000000000000000000000000000000000002000000000000000000000000000000000000000000000000000000000000000000000000000000000000000000000000000000000000000000000000000000000000000000000000000000000000000000000000000000000000000000000000000000000000000000000000000000000000000000000000017dc1c6a274aa00000000000000000000000000000000000000000000000000017dc1c6a274aa000000000000000000000000009e4ec32d0cb9663faee42724a5d194d1d7317fb90000000000000000000000000000000000000000000000000000000000000000000000000000000000000000000000000000000000000000000000000000000000000000000000000000000000000000000000000000000000000000000000000000000000000000000000000000000000000000000000000001eb1aba1006000000000000000000000000000000000000000000000000000001eb1aba1006000000000000000000000000000000a26b00c1f0df003000390027140000faa7190000000000000000000000000000000000000000000000000000000000000040bf077d1b2f20ce091eee62523df6736e21e375e0663443aad10aea4e22cec9f5037cbb0285dab68cc47c67ebe634b4de4be44942c5c52a04266ae82d86f655b400000000000000000000000000000000000000000000000000000000000000000000000000000000000000000000000000000000000000000000000000000000000000000000000000000000000000000000000000000000000000000000000100000000000000000000000000000000000000000000000000000000000000200000000000000000000000000000000000000000000000000000000000000001000000000000000000000000000000000000000000000000000000000000000000000000000000000000000000000000000000000000000000000000000000000000000000000000000000000000000000000000000000000000000000000002000000000000000000000000000000000000000000000000000000000000004000000000000000000000000000000000000000000000000000000000000000a0000000000000000000000000000000000000000000000000000000000000000100000000000000000000000000000000000000000000000000000000000000000000000000000000000000000000000000000000000000000000000000000000000000000000000000000000000000000000000000000000000000000000000100000000000000000000000000000000000000000000000000000000000000000000000000000000000000000000000000000000000000000000000000000001000000000000000000000000000000000000000000000000000000000000000000000000000000000000000000000000000000000000000000000000000000000000000000000000000000000000000000000000000000000000000000000000",
                    "decodedMethod": {
                        "callParams": [
                            {
                                "name": "",
                                "type": "((address,address,(uint8,address,uint256,uint256,uint256)[],(uint8,address,uint256,uint256,uint256,address)[],uint8,uint256,uint256,bytes32,uint256,bytes32,uint256),uint120,uint120,bytes,bytes)[]",
                                "value": [
                                    [
                                        {
                                            "name": "parameters",
                                            "type": "(address,address,(uint8,address,uint256,uint256,uint256)[],(uint8,address,uint256,uint256,uint256,address)[],uint8,uint256,uint256,bytes32,uint256,bytes32,uint256)",
                                            "value": [
                                                {
                                                    "name": "offerer",
                                                    "type": "address",
                                                    "value": "0x9e4ec32d0cb9663faee42724a5d194d1d7317fb9"
                                                },
                                                {
                                                    "name": "zone",
                                                    "type": "address",
                                                    "value": "0x004c00500000ad104d7dbd00e3ae0a5c00560c00"
                                                },
                                                {
                                                    "name": "offer",
                                                    "type": "(uint8,address,uint256,uint256,uint256)[]",
                                                    "value": [
                                                        [
                                                            {
                                                                "name": "itemType",
                                                                "type": "uint8",
                                                                "value": "2"
                                                            },
                                                            {
                                                                "name": "token",
                                                                "type": "address",
                                                                "value": "0x3110ef5f612208724ca51f5761a69081809f03b7"
                                                            },
                                                            {
                                                                "name": "identifierOrCriteria",
                                                                "type": "uint256",
                                                                "value": "6,624"
                                                            },
                                                            {
                                                                "name": "startAmount",
                                                                "type": "uint256",
                                                                "value": "1"
                                                            },
                                                            {
                                                                "name": "endAmount",
                                                                "type": "uint256",
                                                                "value": "1"
                                                            }
                                                        ]
                                                    ]
                                                },
                                                {
                                                    "name": "consideration",
                                                    "type": "(uint8,address,uint256,uint256,uint256,address)[]",
                                                    "value": [
                                                        [
                                                            {
                                                                "name": "itemType",
                                                                "type": "uint8",
                                                                "value": "0"
                                                            },
                                                            {
                                                                "name": "token",
                                                                "type": "address",
                                                                "value": "0x0000000000000000000000000000000000000000"
                                                            },
                                                            {
                                                                "name": "identifierOrCriteria",
                                                                "type": "uint256",
                                                                "value": "0"
                                                            },
                                                            {
                                                                "name": "startAmount",
                                                                "type": "uint256",
                                                                "value": "107,455,025,000,000,000"
                                                            },
                                                            {
                                                                "name": "endAmount",
                                                                "type": "uint256",
                                                                "value": "107,455,025,000,000,000"
                                                            },
                                                            {
                                                                "name": "recipient",
                                                                "type": "address",
                                                                "value": "0x9e4ec32d0cb9663faee42724a5d194d1d7317fb9"
                                                            }
                                                        ],
                                                        [
                                                            {
                                                                "name": "itemType",
                                                                "type": "uint8",
                                                                "value": "0"
                                                            },
                                                            {
                                                                "name": "token",
                                                                "type": "address",
                                                                "value": "0x0000000000000000000000000000000000000000"
                                                            },
                                                            {
                                                                "name": "identifierOrCriteria",
                                                                "type": "uint256",
                                                                "value": "0"
                                                            },
                                                            {
                                                                "name": "startAmount",
                                                                "type": "uint256",
                                                                "value": "539,975,000,000,000"
                                                            },
                                                            {
                                                                "name": "endAmount",
                                                                "type": "uint256",
                                                                "value": "539,975,000,000,000"
                                                            },
                                                            {
                                                                "name": "recipient",
                                                                "type": "address",
                                                                "value": "0x0000a26b00c1f0df003000390027140000faa719"
                                                            }
                                                        ]
                                                    ]
                                                },
                                                {
                                                    "name": "orderType",
                                                    "type": "uint8",
                                                    "value": "0"
                                                },
                                                {
                                                    "name": "startTime",
                                                    "type": "uint256",
                                                    "value": "1,722,518,385"
                                                },
                                                {
                                                    "name": "endTime",
                                                    "type": "uint256",
                                                    "value": "1,722,521,985"
                                                },
                                                {
                                                    "name": "zoneHash",
                                                    "type": "bytes32",
                                                    "value": "0x0000000000000000000000000000000000000000000000000000000000000000"
                                                },
                                                {
                                                    "name": "salt",
                                                    "type": "uint256",
                                                    "value": "51,951,570,786,726,798,460,324,975,021,501,917,861,654,789,585,098,516,727,716,224,198,023,396,228,978"
                                                },
                                                {
                                                    "name": "conduitKey",
                                                    "type": "bytes32",
                                                    "value": "0x0000007b02230091a7ed01230072f7006a004d60a8d4e71d599b8104250f0000"
                                                },
                                                {
                                                    "name": "totalOriginalConsiderationItems",
                                                    "type": "uint256",
                                                    "value": "2"
                                                }
                                            ]
                                        },
                                        {
                                            "name": "numerator",
                                            "type": "uint120",
                                            "value": "1"
                                        },
                                        {
                                            "name": "denominator",
                                            "type": "uint120",
                                            "value": "1"
                                        },
                                        {
                                            "name": "signature",
                                            "type": "bytes",
                                            "value": "0xbf077d1b2f20ce091eee62523df6736e21e375e0663443aad10aea4e22cec9f5037cbb0285dab68cc47c67ebe634b4de4be44942c5c52a04266ae82d86f655b4"
                                        },
                                        {
                                            "name": "extraData",
                                            "type": "bytes",
                                            "value": "0x"
                                        }
                                    ]
                                ]
                            },
                            {
                                "name": "",
                                "type": "(uint256,uint8,uint256,uint256,bytes32[])[]",
                                "value": []
                            },
                            {
                                "name": "",
                                "type": "(uint256,uint256)[][]",
                                "value": [
                                    [
                                        [
                                            {
                                                "name": "orderIndex",
                                                "type": "uint256",
                                                "value": "0"
                                            },
                                            {
                                                "name": "itemIndex",
                                                "type": "uint256",
                                                "value": "0"
                                            }
                                        ]
                                    ]
                                ]
                            },
                            {
                                "name": "",
                                "type": "(uint256,uint256)[][]",
                                "value": [
                                    [
                                        [
                                            {
                                                "name": "orderIndex",
                                                "type": "uint256",
                                                "value": "0"
                                            },
                                            {
                                                "name": "itemIndex",
                                                "type": "uint256",
                                                "value": "0"
                                            }
                                        ]
                                    ],
                                    [
                                        [
                                            {
                                                "name": "orderIndex",
                                                "type": "uint256",
                                                "value": "0"
                                            },
                                            {
                                                "name": "itemIndex",
                                                "type": "uint256",
                                                "value": "1"
                                            }
                                        ]
                                    ]
                                ]
                            },
                            {
                                "name": "fulfillerConduitKey",
                                "type": "bytes32",
                                "value": "0x0000000000000000000000000000000000000000000000000000000000000000"
                            },
                            {
                                "name": "recipient",
                                "type": "address",
                                "value": "0xa5803485066d909ddae043cc3cee3c7697fee464"
                            },
                            {
                                "name": "maximumFulfilled",
                                "type": "uint256",
                                "value": "32"
                            }
                        ],
                        "constructorArguments": "",
                        "name": "fulfillAvailableAdvancedOrders",
                        "returnParams": [
                            {
                                "name": "",
                                "type": "bool[]",
                                "value": [
                                    true
                                ]
                            },
                            {
                                "name": "",
                                "type": "((uint8,address,uint256,uint256,address),address,bytes32)[]",
                                "value": [
                                    [
                                        {
                                            "name": "item",
                                            "type": "(uint8,address,uint256,uint256,address)",
                                            "value": [
                                                {
                                                    "name": "itemType",
                                                    "type": "uint8",
                                                    "value": "2"
                                                },
                                                {
                                                    "name": "token",
                                                    "type": "address",
                                                    "value": "0x3110ef5f612208724ca51f5761a69081809f03b7"
                                                },
                                                {
                                                    "name": "identifier",
                                                    "type": "uint256",
                                                    "value": "6,624"
                                                },
                                                {
                                                    "name": "amount",
                                                    "type": "uint256",
                                                    "value": "1"
                                                },
                                                {
                                                    "name": "recipient",
                                                    "type": "address",
                                                    "value": "0xa5803485066d909ddae043cc3cee3c7697fee464"
                                                }
                                            ]
                                        },
                                        {
                                            "name": "offerer",
                                            "type": "address",
                                            "value": "0x9e4ec32d0cb9663faee42724a5d194d1d7317fb9"
                                        },
                                        {
                                            "name": "conduitKey",
                                            "type": "bytes32",
                                            "value": "0x0000007b02230091a7ed01230072f7006a004d60a8d4e71d599b8104250f0000"
                                        }
                                    ],
                                    [
                                        {
                                            "name": "item",
                                            "type": "(uint8,address,uint256,uint256,address)",
                                            "value": [
                                                {
                                                    "name": "itemType",
                                                    "type": "uint8",
                                                    "value": "0"
                                                },
                                                {
                                                    "name": "token",
                                                    "type": "address",
                                                    "value": "0x0000000000000000000000000000000000000000"
                                                },
                                                {
                                                    "name": "identifier",
                                                    "type": "uint256",
                                                    "value": "0"
                                                },
                                                {
                                                    "name": "amount",
                                                    "type": "uint256",
                                                    "value": "107,455,025,000,000,000"
                                                },
                                                {
                                                    "name": "recipient",
                                                    "type": "address",
                                                    "value": "0x9e4ec32d0cb9663faee42724a5d194d1d7317fb9"
                                                }
                                            ]
                                        },
                                        {
                                            "name": "offerer",
                                            "type": "address",
                                            "value": "0x39da41747a83aee658334415666f3ef92dd0d541"
                                        },
                                        {
                                            "name": "conduitKey",
                                            "type": "bytes32",
                                            "value": "0x0000000000000000000000000000000000000000000000000000000000000000"
                                        }
                                    ],
                                    [
                                        {
                                            "name": "item",
                                            "type": "(uint8,address,uint256,uint256,address)",
                                            "value": [
                                                {
                                                    "name": "itemType",
                                                    "type": "uint8",
                                                    "value": "0"
                                                },
                                                {
                                                    "name": "token",
                                                    "type": "address",
                                                    "value": "0x0000000000000000000000000000000000000000"
                                                },
                                                {
                                                    "name": "identifier",
                                                    "type": "uint256",
                                                    "value": "0"
                                                },
                                                {
                                                    "name": "amount",
                                                    "type": "uint256",
                                                    "value": "539,975,000,000,000"
                                                },
                                                {
                                                    "name": "recipient",
                                                    "type": "address",
                                                    "value": "0x0000a26b00c1f0df003000390027140000faa719"
                                                }
                                            ]
                                        },
                                        {
                                            "name": "offerer",
                                            "type": "address",
                                            "value": "0x39da41747a83aee658334415666f3ef92dd0d541"
                                        },
                                        {
                                            "name": "conduitKey",
                                            "type": "bytes32",
                                            "value": "0x0000000000000000000000000000000000000000000000000000000000000000"
                                        }
                                    ]
                                ]
                            }
                        ],
                        "signature": "fulfillAvailableAdvancedOrders(((address,address,(uint8,address,uint256,uint256,uint256)[],(uint8,address,uint256,uint256,uint256,address)[],uint8,uint256,uint256,bytes32,uint256,bytes32,uint256),uint120,uint120,bytes,bytes)[],(uint256,uint8,uint256,uint256,bytes32[])[],(uint256,uint256)[][],(uint256,uint256)[][],bytes32,address,uint256)"
                    },
                    "errorInfo": "",
                    "fromAddress": "0x39da41747a83aee658334415666f3ef92dd0d541",
                    "gasUsed": 119967,
                    "id": 11,
                    "methodDecoded": true,
                    "operation": "CALL",
                    "output": "0x0000000000000000000000000000000000000000000000000000000000000040000000000000000000000000000000000000000000000000000000000000008000000000000000000000000000000000000000000000000000000000000000010000000000000000000000000000000000000000000000000000000000000001000000000000000000000000000000000000000000000000000000000000000300000000000000000000000000000000000000000000000000000000000000020000000000000000000000003110ef5f612208724ca51f5761a69081809f03b700000000000000000000000000000000000000000000000000000000000019e00000000000000000000000000000000000000000000000000000000000000001000000000000000000000000a5803485066d909ddae043cc3cee3c7697fee4640000000000000000000000009e4ec32d0cb9663faee42724a5d194d1d7317fb90000007b02230091a7ed01230072f7006a004d60a8d4e71d599b8104250f0000000000000000000000000000000000000000000000000000000000000000000000000000000000000000000000000000000000000000000000000000000000000000000000000000000000000000000000000000000000000000000000000000000000000000000000000000000000000000000000000000017dc1c6a274aa000000000000000000000000009e4ec32d0cb9663faee42724a5d194d1d7317fb900000000000000000000000039da41747a83aee658334415666f3ef92dd0d54100000000000000000000000000000000000000000000000000000000000000000000000000000000000000000000000000000000000000000000000000000000000000000000000000000000000000000000000000000000000000000000000000000000000000000000000000000000000000000000000000000000000000000000000000000000000000000000000000000000000000000001eb1aba1006000000000000000000000000000000a26b00c1f0df003000390027140000faa71900000000000000000000000039da41747a83aee658334415666f3ef92dd0d5410000000000000000000000000000000000000000000000000000000000000000",
                    "revert": false,
                    "revertMessage": "",
                    "selector": "0x87201b41",
                    "status": true,
                    "value": "0.107995"
                },
                "nodeType": 0
            },
            "12": {
                "invocation": {
                    "address": "0x0000000000000000000000000000000000000001",
                    "callData": "0xb6ffdf2e9bb0da6b8bbf21d245223648473337836cbd5586d0ad0f28000000000000000000000000000000000000000000000000000000000000001bbf077d1b2f20ce091eee62523df6736e21e375e0663443aad10aea4e22cec9f5037cbb0285dab68cc47c67ebe634b4de4be44942c5c52a04266ae82d86f655b4",
                    "decodedMethod": {
                        "callParams": [
                            {
                                "name": "hash",
                                "type": "bytes32",
                                "value": "0x93a2b718b6ffdf2e9bb0da6b8bbf21d245223648473337836cbd5586d0ad0f28"
                            },
                            {
                                "name": "v",
                                "type": "uint256",
                                "value": "27"
                            },
                            {
                                "name": "r",
                                "type": "bytes32",
                                "value": "0xbf077d1b2f20ce091eee62523df6736e21e375e0663443aad10aea4e22cec9f5"
                            },
                            {
                                "name": "s",
                                "type": "bytes32",
                                "value": "0x037cbb0285dab68cc47c67ebe634b4de4be44942c5c52a04266ae82d86f655b4"
                            }
                        ],
                        "constructorArguments": "",
                        "name": "ecrecover",
                        "returnParams": [
                            {
                                "name": "",
                                "type": "address",
                                "value": "0x9e4ec32d0cb9663faee42724a5d194d1d7317fb9"
                            }
                        ],
                        "signature": "ecrecover(bytes32,uint256,bytes32,bytes32)"
                    },
                    "errorInfo": "",
                    "fromAddress": "0x0000000000000068f116a894984e2db1123eb395",
                    "gasUsed": 3000,
                    "id": 12,
                    "methodDecoded": true,
                    "operation": "STATICCALL",
                    "output": "0x0000000000000000000000009e4ec32d0cb9663faee42724a5d194d1d7317fb9",
                    "revert": false,
                    "revertMessage": "",
                    "selector": "0x93a2b718",
                    "status": true,
                    "value": "0"
                },
                "nodeType": 0
            },
            "13": {
                "event": {
                    "contract": "0x0000000000000068f116a894984e2db1123eb395",
                    "decodedLog": {
                        "name": "OrderFulfilled",
                        "params": [
                            {
                                "name": "offerer",
                                "type": "address",
                                "value": "0x9e4ec32d0cb9663faee42724a5d194d1d7317fb9"
                            },
                            {
                                "name": "zone",
                                "type": "address",
                                "value": "0x004c00500000ad104d7dbd00e3ae0a5c00560c00"
                            },
                            {
                                "name": "orderHash",
                                "type": "bytes32",
                                "value": "0x060b8b96d0f21b7e2ec6758f68c2968157451ed9044a204ec57ec0039d5b341c"
                            },
                            {
                                "name": "recipient",
                                "type": "address",
                                "value": "0xa5803485066d909ddae043cc3cee3c7697fee464"
                            },
                            {
                                "name": "offer",
                                "type": "(uint8,address,uint256,uint256)[]",
                                "value": [
                                    [
                                        {
                                            "name": "itemType",
                                            "type": "uint8",
                                            "value": "2"
                                        },
                                        {
                                            "name": "token",
                                            "type": "address",
                                            "value": "0x3110ef5f612208724ca51f5761a69081809f03b7"
                                        },
                                        {
                                            "name": "identifier",
                                            "type": "uint256",
                                            "value": "6,624"
                                        },
                                        {
                                            "name": "amount",
                                            "type": "uint256",
                                            "value": "1"
                                        }
                                    ]
                                ]
                            },
                            {
                                "name": "consideration",
                                "type": "(uint8,address,uint256,uint256,address)[]",
                                "value": [
                                    [
                                        {
                                            "name": "itemType",
                                            "type": "uint8",
                                            "value": "0"
                                        },
                                        {
                                            "name": "token",
                                            "type": "address",
                                            "value": "0x0000000000000000000000000000000000000000"
                                        },
                                        {
                                            "name": "identifier",
                                            "type": "uint256",
                                            "value": "0"
                                        },
                                        {
                                            "name": "amount",
                                            "type": "uint256",
                                            "value": "107,455,025,000,000,000"
                                        },
                                        {
                                            "name": "recipient",
                                            "type": "address",
                                            "value": "0x9e4ec32d0cb9663faee42724a5d194d1d7317fb9"
                                        }
                                    ],
                                    [
                                        {
                                            "name": "itemType",
                                            "type": "uint8",
                                            "value": "0"
                                        },
                                        {
                                            "name": "token",
                                            "type": "address",
                                            "value": "0x0000000000000000000000000000000000000000"
                                        },
                                        {
                                            "name": "identifier",
                                            "type": "uint256",
                                            "value": "0"
                                        },
                                        {
                                            "name": "amount",
                                            "type": "uint256",
                                            "value": "539,975,000,000,000"
                                        },
                                        {
                                            "name": "recipient",
                                            "type": "address",
                                            "value": "0x0000a26b00c1f0df003000390027140000faa719"
                                        }
                                    ]
                                ]
                            }
                        ],
                        "signature": "OrderFulfilled(bytes32,address,address,address,(uint8,address,uint256,uint256)[],(uint8,address,uint256,uint256,address)[])"
                    },
                    "id": 13,
                    "logData": "0x060b8b96d0f21b7e2ec6758f68c2968157451ed9044a204ec57ec0039d5b341c000000000000000000000000a5803485066d909ddae043cc3cee3c7697fee46400000000000000000000000000000000000000000000000000000000000000800000000000000000000000000000000000000000000000000000000000000120000000000000000000000000000000000000000000000000000000000000000100000000000000000000000000000000000000000000000000000000000000020000000000000000000000003110ef5f612208724ca51f5761a69081809f03b700000000000000000000000000000000000000000000000000000000000019e000000000000000000000000000000000000000000000000000000000000000010000000000000000000000000000000000000000000000000000000000000002000000000000000000000000000000000000000000000000000000000000000000000000000000000000000000000000000000000000000000000000000000000000000000000000000000000000000000000000000000000000000000000000000000000000000000000000000000000000000000000000017dc1c6a274aa000000000000000000000000009e4ec32d0cb9663faee42724a5d194d1d7317fb90000000000000000000000000000000000000000000000000000000000000000000000000000000000000000000000000000000000000000000000000000000000000000000000000000000000000000000000000000000000000000000000000000000000000000000000000000000000000000000000000001eb1aba1006000000000000000000000000000000a26b00c1f0df003000390027140000faa719",
                    "logDecoded": true,
                    "operation": "EVENT",
                    "revert": false,
                    "status": true,
                    "topics": [
                        "0x9d9af8e38d66c62e2c12f0225249fd9d721c54b83f48d9352c97c6cacdcb6f31",
                        "0x0000000000000000000000009e4ec32d0cb9663faee42724a5d194d1d7317fb9",
                        "0x000000000000000000000000004c00500000ad104d7dbd00e3ae0a5c00560c00"
                    ]
                },
                "nodeType": 1
            },
            "14": {
                "invocation": {
                    "address": "0x9e4ec32d0cb9663faee42724a5d194d1d7317fb9",
                    "callData": "0x",
                    "decodedMethod": null,
                    "errorInfo": "",
                    "fromAddress": "0x0000000000000068f116a894984e2db1123eb395",
                    "gasUsed": 0,
                    "id": 14,
                    "methodDecoded": false,
                    "operation": "CALL",
                    "output": "",
                    "revert": false,
                    "revertMessage": "",
                    "selector": "fallback",
                    "status": true,
                    "value": "0.107455025"
                },
                "nodeType": 0
            },
            "15": {
                "invocation": {
                    "address": "0x0000a26b00c1f0df003000390027140000faa719",
                    "callData": "0x",
                    "decodedMethod": null,
                    "errorInfo": "",
                    "fromAddress": "0x0000000000000068f116a894984e2db1123eb395",
                    "gasUsed": 85,
                    "id": 15,
                    "methodDecoded": false,
                    "operation": "CALL",
                    "output": "",
                    "revert": false,
                    "revertMessage": "",
                    "selector": "fallback",
                    "status": true,
                    "value": "0.000539975"
                },
                "nodeType": 0
            },
            "16": {
                "invocation": {
                    "address": "0x1e0049783f008a0085193e00003d00cd54003c71",
                    "callData": "0x0000000000000000000000000000000000000000000000000000000000000020000000000000000000000000000000000000000000000000000000000000000100000000000000000000000000000000000000000000000000000000000000020000000000000000000000003110ef5f612208724ca51f5761a69081809f03b70000000000000000000000009e4ec32d0cb9663faee42724a5d194d1d7317fb9000000000000000000000000a5803485066d909ddae043cc3cee3c7697fee46400000000000000000000000000000000000000000000000000000000000019e00000000000000000000000000000000000000000000000000000000000000001",
                    "decodedMethod": {
                        "callParams": [
                            {
                                "name": "transfers",
                                "type": "(uint8,address,address,address,uint256,uint256)[]",
                                "value": [
                                    [
                                        {
                                            "name": "itemType",
                                            "type": "uint8",
                                            "value": "2"
                                        },
                                        {
                                            "name": "token",
                                            "type": "address",
                                            "value": "0x3110ef5f612208724ca51f5761a69081809f03b7"
                                        },
                                        {
                                            "name": "from",
                                            "type": "address",
                                            "value": "0x9e4ec32d0cb9663faee42724a5d194d1d7317fb9"
                                        },
                                        {
                                            "name": "to",
                                            "type": "address",
                                            "value": "0xa5803485066d909ddae043cc3cee3c7697fee464"
                                        },
                                        {
                                            "name": "identifier",
                                            "type": "uint256",
                                            "value": "6,624"
                                        },
                                        {
                                            "name": "amount",
                                            "type": "uint256",
                                            "value": "1"
                                        }
                                    ]
                                ]
                            }
                        ],
                        "constructorArguments": "",
                        "name": "execute",
                        "returnParams": [
                            {
                                "name": "magicValue",
                                "type": "bytes4",
                                "value": "0x4ce34aa2"
                            }
                        ],
                        "signature": "execute((uint8,address,address,address,uint256,uint256)[])"
                    },
                    "errorInfo": "",
                    "fromAddress": "0x0000000000000068f116a894984e2db1123eb395",
                    "gasUsed": 39664,
                    "id": 16,
                    "methodDecoded": true,
                    "operation": "CALL",
                    "output": "0x4ce34aa200000000000000000000000000000000000000000000000000000000",
                    "revert": false,
                    "revertMessage": "",
                    "selector": "0x4ce34aa2",
                    "status": true,
                    "value": "0"
                },
                "nodeType": 0
            },
            "17": {
                "invocation": {
                    "address": "0x3110ef5f612208724ca51f5761a69081809f03b7",
                    "callData": "0x0000000000000000000000009e4ec32d0cb9663faee42724a5d194d1d7317fb9000000000000000000000000a5803485066d909ddae043cc3cee3c7697fee46400000000000000000000000000000000000000000000000000000000000019e0",
                    "decodedMethod": {
                        "callParams": [
                            {
                                "name": "_from",
                                "type": "address",
                                "value": "0x9e4ec32d0cb9663faee42724a5d194d1d7317fb9"
                            },
                            {
                                "name": "_to",
                                "type": "address",
                                "value": "0xa5803485066d909ddae043cc3cee3c7697fee464"
                            },
                            {
                                "decimalAvailable": true,
                                "name": "_id",
                                "type": "uint256",
                                "value": "6,624"
                            }
                        ],
                        "constructorArguments": "",
                        "name": "transferFrom",
                        "returnParams": [],
                        "signature": "transferFrom(address,address,uint256)"
                    },
                    "errorInfo": "",
                    "fromAddress": "0x1e0049783f008a0085193e00003d00cd54003c71",
                    "gasUsed": 33548,
                    "id": 17,
                    "methodDecoded": true,
                    "operation": "CALL",
                    "output": "",
                    "revert": false,
                    "revertMessage": "",
                    "selector": "0x23b872dd",
                    "status": true,
                    "value": "0"
                },
                "nodeType": 0
            },
            "18": {
                "event": {
                    "contract": "0x3110ef5f612208724ca51f5761a69081809f03b7",
                    "decodedLog": {
                        "name": "Approval",
                        "params": [
                            {
                                "name": "owner",
                                "type": "address",
                                "value": "0x9e4ec32d0cb9663faee42724a5d194d1d7317fb9"
                            },
                            {
                                "name": "approved",
                                "type": "address",
                                "value": "0x0000000000000000000000000000000000000000"
                            },
                            {
                                "decimalAvailable": true,
                                "name": "tokenId",
                                "type": "uint256",
                                "value": "6,624"
                            }
                        ],
                        "signature": "Approval(address,address,uint256)"
                    },
                    "id": 18,
                    "logData": "0x",
                    "logDecoded": true,
                    "operation": "EVENT",
                    "revert": false,
                    "status": true,
                    "topics": [
                        "0x8c5be1e5ebec7d5bd14f71427d1e84f3dd0314c0f7b2291e5b200ac8c7c3b925",
                        "0x0000000000000000000000009e4ec32d0cb9663faee42724a5d194d1d7317fb9",
                        "0x0000000000000000000000000000000000000000000000000000000000000000",
                        "0x00000000000000000000000000000000000000000000000000000000000019e0"
                    ]
                },
                "nodeType": 1
            },
            "19": {
                "event": {
                    "contract": "0x3110ef5f612208724ca51f5761a69081809f03b7",
                    "decodedLog": {
                        "name": "Transfer",
                        "params": [
                            {
                                "name": "from",
                                "type": "address",
                                "value": "0x9e4ec32d0cb9663faee42724a5d194d1d7317fb9"
                            },
                            {
                                "name": "to",
                                "type": "address",
                                "value": "0xa5803485066d909ddae043cc3cee3c7697fee464"
                            },
                            {
                                "decimalAvailable": true,
                                "name": "tokenId",
                                "type": "uint256",
                                "value": "6,624"
                            }
                        ],
                        "signature": "Transfer(address,address,uint256)"
                    },
                    "id": 19,
                    "logData": "0x",
                    "logDecoded": true,
                    "operation": "EVENT",
                    "revert": false,
                    "status": true,
                    "topics": [
                        "0xddf252ad1be2c89b69c2b068fc378daa952ba7f163c4a11628f55a4df523b3ef",
                        "0x0000000000000000000000009e4ec32d0cb9663faee42724a5d194d1d7317fb9",
                        "0x000000000000000000000000a5803485066d909ddae043cc3cee3c7697fee464",
                        "0x00000000000000000000000000000000000000000000000000000000000019e0"
                    ]
                },
                "nodeType": 1
            },
            "2": {
                "invocation": {
                    "address": "0x01a656024de4b89e2d0198bf4d468e8fd2358b17",
                    "callData": "0x000000000000000000000000a5803485066d909ddae043cc3cee3c7697fee46400000000000000000000000039da41747a83aee658334415666f3ef92dd0d541000000000000000000000000000000000000000000000000017face15c84b000",
                    "decodedMethod": {
                        "callParams": [
                            {
                                "name": "from",
                                "type": "address",
                                "value": "0xa5803485066d909ddae043cc3cee3c7697fee464"
                            },
                            {
                                "name": "to",
                                "type": "address",
                                "value": "0x39da41747a83aee658334415666f3ef92dd0d541"
                            },
                            {
                                "decimalAvailable": true,
                                "name": "amount",
                                "type": "uint256",
                                "value": "107,995,000,000,000,000"
                            }
                        ],
                        "constructorArguments": "",
                        "name": "transferFrom",
                        "returnParams": [
                            {
                                "name": "",
                                "type": "bool",
                                "value": true
                            }
                        ],
                        "signature": "transferFrom(address,address,uint256)"
                    },
                    "errorInfo": "",
                    "fromAddress": "0x0000000000a39bb272e79075ade125fd351887ac",
                    "gasUsed": 30050,
                    "id": 2,
                    "methodDecoded": true,
                    "operation": "DELEGATECALL",
                    "output": "0x0000000000000000000000000000000000000000000000000000000000000001",
                    "revert": false,
                    "revertMessage": "",
                    "selector": "0x23b872dd",
                    "status": true,
                    "value": "0"
                },
                "nodeType": 0
            },
            "3": {
                "event": {
                    "contract": "0x0000000000a39bb272e79075ade125fd351887ac",
                    "decodedLog": {
                        "name": "Transfer",
                        "params": [
                            {
                                "name": "from",
                                "type": "address",
                                "value": "0xa5803485066d909ddae043cc3cee3c7697fee464"
                            },
                            {
                                "name": "to",
                                "type": "address",
                                "value": "0x39da41747a83aee658334415666f3ef92dd0d541"
                            },
                            {
                                "decimalAvailable": true,
                                "name": "value",
                                "type": "uint256",
                                "value": "107,995,000,000,000,000"
                            }
                        ],
                        "signature": "Transfer(address,address,uint256)"
                    },
                    "id": 3,
                    "logData": "0x000000000000000000000000000000000000000000000000017face15c84b000",
                    "logDecoded": true,
                    "operation": "EVENT",
                    "revert": false,
                    "status": true,
                    "topics": [
                        "0xddf252ad1be2c89b69c2b068fc378daa952ba7f163c4a11628f55a4df523b3ef",
                        "0x000000000000000000000000a5803485066d909ddae043cc3cee3c7697fee464",
                        "0x00000000000000000000000039da41747a83aee658334415666f3ef92dd0d541"
                    ]
                },
                "nodeType": 1
            },
            "4": {
                "invocation": {
                    "address": "0xe9cf0d3e77fdf08bb74da6400094a313064de58e",
                    "callData": "0x000000000000000000000000000000000000000000000000017face15c84b000",
                    "decodedMethod": {
                        "callParams": [
                            {
                                "name": "amount",
                                "type": "uint256",
                                "value": "107,995,000,000,000,000"
                            }
                        ],
                        "constructorArguments": "",
                        "name": "withdraw",
                        "returnParams": [],
                        "signature": "withdraw(uint256)"
                    },
                    "errorInfo": "",
                    "fromAddress": "0x39da41747a83aee658334415666f3ef92dd0d541",
                    "gasUsed": 10228,
                    "id": 4,
                    "methodDecoded": true,
                    "operation": "DELEGATECALL",
                    "output": "",
                    "revert": false,
                    "revertMessage": "",
                    "selector": "0x2e1a7d4d",
                    "status": true,
                    "value": "0"
                },
                "nodeType": 0
            },
            "5": {
                "invocation": {
                    "address": "0x0000000000a39bb272e79075ade125fd351887ac",
                    "callData": "0x000000000000000000000000000000000000000000000000017face15c84b000",
                    "decodedMethod": {
                        "callParams": [
                            {
                                "name": "amount",
                                "type": "uint256",
                                "value": "107,995,000,000,000,000"
                            }
                        ],
                        "constructorArguments": "",
                        "name": "withdraw",
                        "returnParams": [],
                        "signature": "withdraw(uint256)"
                    },
                    "errorInfo": "",
                    "fromAddress": "0x39da41747a83aee658334415666f3ef92dd0d541",
                    "gasUsed": 9866,
                    "id": 5,
                    "methodDecoded": true,
                    "operation": "CALL",
                    "output": "",
                    "revert": false,
                    "revertMessage": "",
                    "selector": "0x2e1a7d4d",
                    "status": true,
                    "value": "0"
                },
                "nodeType": 0
            },
            "6": {
                "invocation": {
                    "address": "0x01a656024de4b89e2d0198bf4d468e8fd2358b17",
                    "callData": "0x000000000000000000000000000000000000000000000000017face15c84b000",
                    "decodedMethod": {
                        "callParams": [
                            {
                                "name": "amount",
                                "type": "uint256",
                                "value": "107,995,000,000,000,000"
                            }
                        ],
                        "constructorArguments": "",
                        "name": "withdraw",
                        "returnParams": [],
                        "signature": "withdraw(uint256)"
                    },
                    "errorInfo": "",
                    "fromAddress": "0x0000000000a39bb272e79075ade125fd351887ac",
                    "gasUsed": 9483,
                    "id": 6,
                    "methodDecoded": true,
                    "operation": "DELEGATECALL",
                    "output": "",
                    "revert": false,
                    "revertMessage": "",
                    "selector": "0x2e1a7d4d",
                    "status": true,
                    "value": "0"
                },
                "nodeType": 0
            },
            "7": {
                "invocation": {
                    "address": "0x39da41747a83aee658334415666f3ef92dd0d541",
                    "callData": "0x",
                    "decodedMethod": null,
                    "errorInfo": "",
                    "fromAddress": "0x0000000000a39bb272e79075ade125fd351887ac",
                    "gasUsed": 55,
                    "id": 7,
                    "methodDecoded": false,
                    "operation": "CALL",
                    "output": "",
                    "revert": false,
                    "revertMessage": "",
                    "selector": "fallback",
                    "status": true,
                    "value": "0.107995"
                },
                "nodeType": 0
            },
            "8": {
                "event": {
                    "contract": "0x0000000000a39bb272e79075ade125fd351887ac",
                    "decodedLog": {
                        "name": "Transfer",
                        "params": [
                            {
                                "name": "from",
                                "type": "address",
                                "value": "0x39da41747a83aee658334415666f3ef92dd0d541"
                            },
                            {
                                "name": "to",
                                "type": "address",
                                "value": "0x0000000000000000000000000000000000000000"
                            },
                            {
                                "decimalAvailable": true,
                                "name": "value",
                                "type": "uint256",
                                "value": "107,995,000,000,000,000"
                            }
                        ],
                        "signature": "Transfer(address,address,uint256)"
                    },
                    "id": 8,
                    "logData": "0x000000000000000000000000000000000000000000000000017face15c84b000",
                    "logDecoded": true,
                    "operation": "EVENT",
                    "revert": false,
                    "status": true,
                    "topics": [
                        "0xddf252ad1be2c89b69c2b068fc378daa952ba7f163c4a11628f55a4df523b3ef",
                        "0x00000000000000000000000039da41747a83aee658334415666f3ef92dd0d541",
                        "0x0000000000000000000000000000000000000000000000000000000000000000"
                    ]
                },
                "nodeType": 1
            },
            "9": {
                "invocation": {
                    "address": "0x3a574bac669f3b1cb54b92ccbaefbafd07054d96",
                    "callData": "0x000000000000000000000000000000000000000000000000000000000000000d",
                    "decodedMethod": {
                        "callParams": [
                            {
                                "name": "",
                                "type": "uint256",
                                "value": "13"
                            }
                        ],
                        "constructorArguments": "",
                        "name": "markets",
                        "returnParams": [
                            {
                                "name": "",
                                "type": "address",
                                "value": "0x0bc2f8668e86187bd9e8fe832f72683871cb5f21"
                            }
                        ],
                        "signature": "markets(uint256)"
                    },
                    "errorInfo": "",
                    "fromAddress": "0x39da41747a83aee658334415666f3ef92dd0d541",
                    "gasUsed": 4758,
                    "id": 9,
                    "methodDecoded": true,
                    "operation": "STATICCALL",
                    "output": "0x0000000000000000000000000bc2f8668e86187bd9e8fe832f72683871cb5f2100000000000000000000000000000000000000000000000000000000000000010000000000000000000000000000000000000000000000000000000000000001",
                    "revert": false,
                    "revertMessage": "",
                    "selector": "0xb1283e77",
                    "status": true,
                    "value": "0"
                },
                "nodeType": 0
            }
        },
        "gasFlame": [
            {
                "children": [
                    {
                        "children": [
                            {
                                "children": [],
                                "depth": 0,
                                "name": "Initial Gas",
                                "value": 36604
                            },
                            {
                                "children": [
                                    {
                                        "children": [
                                            {
                                                "children": [],
                                                "depth": 2,
                                                "name": "transferFrom",
                                                "value": 30050
                                            }
                                        ],
                                        "depth": 1,
                                        "name": "transferFrom",
                                        "value": 34945
                                    },
                                    {
                                        "children": [
                                            {
                                                "children": [
                                                    {
                                                        "children": [
                                                            {
                                                                "children": [],
                                                                "depth": 4,
                                                                "name": "fallback",
                                                                "value": 55
                                                            }
                                                        ],
                                                        "depth": 3,
                                                        "name": "withdraw",
                                                        "value": 9483
                                                    }
                                                ],
                                                "depth": 2,
                                                "name": "withdraw",
                                                "value": 9866
                                            }
                                        ],
                                        "depth": 1,
                                        "name": "withdraw",
                                        "value": 10228
                                    },
                                    {
                                        "children": [],
                                        "depth": 1,
                                        "name": "markets",
                                        "value": 4758
                                    },
                                    {
                                        "children": [
                                            {
                                                "children": [
                                                    {
                                                        "children": [],
                                                        "depth": 3,
                                                        "name": "ecrecover",
                                                        "value": 3000
                                                    },
                                                    {
                                                        "children": [],
                                                        "depth": 3,
                                                        "name": "fallback",
                                                        "value": 0
                                                    },
                                                    {
                                                        "children": [],
                                                        "depth": 3,
                                                        "name": "fallback",
                                                        "value": 85
                                                    },
                                                    {
                                                        "children": [
                                                            {
                                                                "children": [],
                                                                "depth": 4,
                                                                "name": "transferFrom",
                                                                "value": 33548
                                                            }
                                                        ],
                                                        "depth": 3,
                                                        "name": "execute",
                                                        "value": 39664
                                                    }
                                                ],
                                                "depth": 2,
                                                "name": "fulfillAvailableAdvancedOrders",
                                                "value": 119967
                                            }
                                        ],
                                        "depth": 1,
                                        "name": "execute",
                                        "value": 130151
                                    }
                                ],
                                "depth": 0,
                                "name": "Executed Gas",
                                "value": 212936
                            }
                        ],
                        "depth": -1,
                        "name": "Actual Gas Used",
                        "value": 222040
                    },
                    {
                        "children": [],
                        "depth": -1,
                        "name": "Refunded Gas",
                        "value": 27500
                    }
                ],
                "depth": -2,
                "name": "Total Gas",
                "value": 249540
            }
        ],
        "isConfirmed": true,
        "mainTrace": [
            {
                "children": [
                    {
                        "children": [
                            {
                                "children": [
                                    {
                                        "children": [
                                            {
                                                "children": [],
                                                "depth": 3,
                                                "id": 3,
                                                "order": 3
                                            }
                                        ],
                                        "depth": 2,
                                        "id": 2,
                                        "order": 2
                                    }
                                ],
                                "depth": 1,
                                "id": 1,
                                "order": 1
                            },
                            {
                                "children": [
                                    {
                                        "children": [
                                            {
                                                "children": [
                                                    {
                                                        "children": [],
                                                        "depth": 4,
                                                        "id": 7,
                                                        "order": 7
                                                    },
                                                    {
                                                        "children": [],
                                                        "depth": 4,
                                                        "id": 8,
                                                        "order": 8
                                                    }
                                                ],
                                                "depth": 3,
                                                "id": 6,
                                                "order": 6
                                            }
                                        ],
                                        "depth": 2,
                                        "id": 5,
                                        "order": 5
                                    }
                                ],
                                "depth": 1,
                                "id": 4,
                                "order": 4
                            },
                            {
                                "children": [],
                                "depth": 1,
                                "id": 9,
                                "order": 9
                            },
                            {
                                "children": [
                                    {
                                        "children": [
                                            {
                                                "children": [],
                                                "depth": 3,
                                                "id": 12,
                                                "order": 12
                                            },
                                            {
                                                "children": [],
                                                "depth": 3,
                                                "id": 13,
                                                "order": 13
                                            },
                                            {
                                                "children": [],
                                                "depth": 3,
                                                "id": 14,
                                                "order": 14
                                            },
                                            {
                                                "children": [],
                                                "depth": 3,
                                                "id": 15,
                                                "order": 15
                                            },
                                            {
                                                "children": [
                                                    {
                                                        "children": [
                                                            {
                                                                "children": [],
                                                                "depth": 5,
                                                                "id": 18,
                                                                "order": 18
                                                            },
                                                            {
                                                                "children": [],
                                                                "depth": 5,
                                                                "id": 19,
                                                                "order": 19
                                                            }
                                                        ],
                                                        "depth": 4,
                                                        "id": 17,
                                                        "order": 17
                                                    }
                                                ],
                                                "depth": 3,
                                                "id": 16,
                                                "order": 16
                                            }
                                        ],
                                        "depth": 2,
                                        "id": 11,
                                        "order": 11
                                    }
                                ],
                                "depth": 1,
                                "id": 10,
                                "order": 10
                            }
                        ],
                        "depth": 0,
                        "id": 0,
                        "order": 0
                    }
                ],
                "depth": -1,
                "id": -1,
                "order": -1
            }
        ],
        "mainTraceNodeCount": 20,
        "parentIdMap": {
            "0": -1,
            "1": 0,
            "10": 0,
            "11": 10,
            "12": 11,
            "13": 11,
            "14": 11,
            "15": 11,
            "16": 11,
            "17": 16,
            "18": 17,
            "19": 17,
            "2": 1,
            "3": 2,
            "4": 0,
            "5": 4,
            "6": 5,
            "7": 6,
            "8": 6,
            "9": 0
        },
        "tidyTrace": [
            {
                "children": [
                    {
                        "children": [
                            {
                                "children": [
                                    {
                                        "children": [
                                            {
                                                "children": [],
                                                "depth": 3,
                                                "id": 3,
                                                "order": 3
                                            }
                                        ],
                                        "depth": 2,
                                        "id": 2,
                                        "order": 2
                                    }
                                ],
                                "depth": 1,
                                "id": 1,
                                "order": 1
                            },
                            {
                                "children": [
                                    {
                                        "children": [
                                            {
                                                "children": [
                                                    {
                                                        "children": [],
                                                        "depth": 4,
                                                        "id": 7,
                                                        "order": 7
                                                    },
                                                    {
                                                        "children": [],
                                                        "depth": 4,
                                                        "id": 8,
                                                        "order": 8
                                                    }
                                                ],
                                                "depth": 3,
                                                "id": 6,
                                                "order": 6
                                            }
                                        ],
                                        "depth": 2,
                                        "id": 5,
                                        "order": 5
                                    }
                                ],
                                "depth": 1,
                                "id": 4,
                                "order": 4
                            },
                            {
                                "children": [
                                    {
                                        "children": [
                                            {
                                                "children": [],
                                                "depth": 3,
                                                "id": 13,
                                                "order": 13
                                            },
                                            {
                                                "children": [],
                                                "depth": 3,
                                                "id": 14,
                                                "order": 14
                                            },
                                            {
                                                "children": [],
                                                "depth": 3,
                                                "id": 15,
                                                "order": 15
                                            },
                                            {
                                                "children": [
                                                    {
                                                        "children": [
                                                            {
                                                                "children": [],
                                                                "depth": 5,
                                                                "id": 18,
                                                                "order": 18
                                                            },
                                                            {
                                                                "children": [],
                                                                "depth": 5,
                                                                "id": 19,
                                                                "order": 19
                                                            }
                                                        ],
                                                        "depth": 4,
                                                        "id": 17,
                                                        "order": 17
                                                    }
                                                ],
                                                "depth": 3,
                                                "id": 16,
                                                "order": 16
                                            }
                                        ],
                                        "depth": 2,
                                        "id": 11,
                                        "order": 11
                                    }
                                ],
                                "depth": 1,
                                "id": 10,
                                "order": 10
                            }
                        ],
                        "depth": 0,
                        "id": 0,
                        "order": 0
                    }
                ],
                "depth": -1,
                "id": -1,
                "order": -1
            }
        ],
        "tidyTraceNodeCount": 18
    },
    "state_change": {
        "stateChanges": [
            {
                "address": "0x0000000000000068f116a894984e2db1123eb395",
                "erc": "",
                "slots": [
                    {
                        "current": "0x0000000000000000000000000000010000000000000000000000000000010001",
                        "key": "0x17c44c8f0f09a2b03dcfe489fb6c5d63dd799800a44a400af55cd63b6deec7b9",
                        "prev": "0x0000000000000000000000000000000000000000000000000000000000000000"
                    }
                ],
                "storageVariables": [
                    {
                        "name": "_orderStatus",
                        "type": "mapping(bytes32 => struct OrderStatus)",
                        "value": {
                            "pairs": [
                                {
                                    "key": "0x060b8b96d0f21b7e2ec6758f68c2968157451ed9044a204ec57ec0039d5b341c",
                                    "value": {
                                        "fields": [
                                            {
                                                "name": "isValidated",
                                                "type": "bool",
                                                "value": {
                                                    "current": "true",
                                                    "prev": "false",
                                                    "typeTag": 1
                                                }
                                            },
                                            {
                                                "name": "isCancelled",
                                                "type": "bool",
                                                "value": {
                                                    "current": "false",
                                                    "prev": "false",
                                                    "typeTag": 1
                                                }
                                            },
                                            {
                                                "name": "numerator",
                                                "type": "uint120",
                                                "value": {
                                                    "current": "1",
                                                    "prev": "0",
                                                    "typeTag": 1
                                                }
                                            },
                                            {
                                                "name": "denominator",
                                                "type": "uint120",
                                                "value": {
                                                    "current": "1",
                                                    "prev": "0",
                                                    "typeTag": 1
                                                }
                                            }
                                        ],
                                        "typeTag": 3
                                    }
                                }
                            ],
                            "typeTag": 4
                        }
                    }
                ]
            },
            {
                "address": "0x0000000000a39bb272e79075ade125fd351887ac",
                "erc": "",
                "slots": [
                    {
                        "current": "0x00000000000000000000000000000000000000000000000001f9f15287647000",
                        "key": "0xd35f688f1cf499de211e85efe6d4123d1fb05a669d6a0c53dfe3a2952b18cb79",
                        "prev": "0x00000000000000000000000000000000000000000000000003799e33e3e92000"
                    }
                ],
                "storageVariables": [
                    {
                        "name": "_balances",
                        "type": "mapping(address => uint256)",
                        "value": {
                            "pairs": [
                                {
                                    "key": "0xa5803485066d909ddae043cc3cee3c7697fee464",
                                    "value": {
                                        "current": "142410200000000000",
                                        "prev": "250405200000000000",
                                        "typeTag": 1
                                    }
                                }
                            ],
                            "typeTag": 4
                        }
                    }
                ]
            },
            {
                "address": "0x3110ef5f612208724ca51f5761a69081809f03b7",
                "erc": "ERC-721",
                "slots": [
                    {
                        "current": "0x000000000000000000000000000000000000000000000000000000000000001c",
                        "key": "0x9bc143a6c47c71174847692b30e3b501dae5b496b0a7a33c70aa838ddf00b7ab",
                        "prev": "0x000000000000000000000000000000000000000000000000000000000000001b"
                    },
                    {
                        "current": "0x000000000000000000000000a5803485066d909ddae043cc3cee3c7697fee464",
                        "key": "0x73524c2541cb40ae3e3e73d86dc0484cfc7faa6340d3cb7e2ab4b6b7cc542037",
                        "prev": "0x0000000000000000000000009e4ec32d0cb9663faee42724a5d194d1d7317fb9"
                    },
                    {
                        "current": "0x0000000000000000000000000000000000000000000000000000000000000000",
                        "key": "0xed5192084da26e2a5fa6ae3f48f9f5b50aaf53f2ae40d5d88d0ebf492741343a",
                        "prev": "0x0000000000000000000000000000000000000000000000000000000000000001"
                    }
                ],
                "storageVariables": [
                    {
                        "name": "balances",
                        "type": "mapping(address => uint256)",
                        "value": {
                            "pairs": [
                                {
                                    "key": "0x9e4ec32d0cb9663faee42724a5d194d1d7317fb9",
                                    "value": {
                                        "current": "0",
                                        "prev": "1",
                                        "typeTag": 1
                                    }
                                },
                                {
                                    "key": "0xa5803485066d909ddae043cc3cee3c7697fee464",
                                    "value": {
                                        "current": "28",
                                        "prev": "27",
                                        "typeTag": 1
                                    }
                                }
                            ],
                            "typeTag": 4
                        }
                    },
                    {
                        "name": "owners",
                        "type": "mapping(uint256 => address)",
                        "value": {
                            "pairs": [
                                {
                                    "key": "6624",
                                    "value": {
                                        "current": "0xa5803485066d909ddae043cc3cee3c7697fee464",
                                        "prev": "0x9e4ec32d0cb9663faee42724a5d194d1d7317fb9",
                                        "typeTag": 1
                                    }
                                }
                            ],
                            "typeTag": 4
                        }
                    }
                ]
            }
        ]
    }
}