{
    "balance_change": {
        "balanceChanges": [
            {
                "account": "0xd19174a261842097bb3a4880ba4598aecf4dce15",
                "assets": [
                    {
                        "address": "0xdac17f958d2ee523a2206206994597c13d831ec7",
                        "amount": "60,000",
                        "iconUrl": "https://assets.blocksec.com/icon/fcea71f3193ce895be44bfdf941f7e4c9381dd587f273c2d1a27f1263d84e4ea.png",
                        "isERC1155": false,
                        "isERC721": false,
                        "sign": false,
                        "value": "60003.507"
                    },
                    {
                        "address": "0x77c6e4a580c0dce4e5c7a17d0bc077188a83a059",
                        "amount": "59,092.676238959022438899",
                        "iconUrl": "",
                        "isERC1155": false,
                        "isERC721": false,
                        "sign": true,
                        "value": ""
                    }
                ]
            },
            {
                "account": "0x329239599afb305da0a2ec69c58f8a6697f9f88d",
                "assets": [
                    {
                        "address": "0xdac17f958d2ee523a2206206994597c13d831ec7",
                        "amount": "60,000",
                        "iconUrl": "https://assets.blocksec.com/icon/fcea71f3193ce895be44bfdf941f7e4c9381dd587f273c2d1a27f1263d84e4ea.png",
                        "isERC1155": false,
                        "isERC721": false,
                        "sign": true,
                        "value": "60003.507"
                    }
                ]
            },
            {
                "account": "0x0000000000000000000000000000000000000000",
                "assets": [
                    {
                        "address": "0x77c6e4a580c0dce4e5c7a17d0bc077188a83a059",
                        "amount": "59,092.676238959022438899",
                        "iconUrl": "",
                        "isERC1155": false,
                        "isERC721": false,
                        "sign": false,
                        "value": ""
                    }
                ]
            }
        ]
    },
    "profile": {
        "basic_info": {
            "baseFee": "",
            "blockNumber": 12027349,
            "callData": "0x029b2f34000000000000000000000000000000000000000000000000000000000000000000000000000000000000000000000000000000000000000000000000000000000000000000000000000000000000000000000000000000000000000df847580000000000000000000000000000000000000000000000000000000000000000000000000000000000000000000000000000000000000000000000000000000000",
            "debugEnable": true,
            "errorInfo": "",
            "eventCount": 7,
            "feeRecipient": "0xea674fdde714fd979de3edf0f56aa9716b898ec8",
            "formatValue": "0",
            "gasLimit": 600000,
            "gasPrice": "177",
            "gasUsed": 254747,
            "intTxnCount": 9,
            "internalRevert": false,
            "internalRevertMessage": "",
            "isContractCreation": false,
            "isFlashloan": false,
            "maxFee": "",
            "nonce": 538,
            "overwritedBlockNumber": -1,
            "priorityFee": "",
            "receiver": "0x329239599afb305da0a2ec69c58f8a6697f9f88d",
            "revertMessage": "",
            "sender": "0xd19174a261842097bb3a4880ba4598aecf4dce15",
            "simulationEnable": true,
            "sourceTxnHash": "0x48758762cfd1ea8de4f43dcda593d42459f181d6f1d0ffe1a6102baf7bf21a9a",
            "status": true,
            "timestamp": "2021-03-13T01:58:45Z",
            "transactionFee": "0.045090219",
            "txnHash": "0x48758762cfd1ea8de4f43dcda593d42459f181d6f1d0ffe1a6102baf7bf21a9a",
            "txnIndex": 37,
            "type": 0,
            "value": "0"
        },
        "fund_flow": [
            {
                "amount": "0",
                "from": "0xd19174a261842097bb3a4880ba4598aecf4dce15",
                "id": 1,
                "isERC1155": false,
                "isERC721": false,
                "isReverted": false,
                "order": 1,
                "to": "0x329239599afb305da0a2ec69c58f8a6697f9f88d",
                "token": "0x6b175474e89094c44da98b954eedeac495271d0f"
            },
            {
                "amount": "0",
                "from": "0xd19174a261842097bb3a4880ba4598aecf4dce15",
                "id": 2,
                "isERC1155": false,
                "isERC721": false,
                "isReverted": false,
                "order": 2,
                "to": "0x329239599afb305da0a2ec69c58f8a6697f9f88d",
                "token": "0xa0b86991c6218b36c1d19d4a2e9eb0ce3606eb48"
            },
            {
                "amount": "60,000",
                "from": "0xd19174a261842097bb3a4880ba4598aecf4dce15",
                "id": 3,
                "isERC1155": false,
                "isERC721": false,
                "isReverted": false,
                "order": 3,
                "to": "0x329239599afb305da0a2ec69c58f8a6697f9f88d",
                "token": "0xdac17f958d2ee523a2206206994597c13d831ec7"
            },
            {
                "amount": "0",
                "from": "0xd19174a261842097bb3a4880ba4598aecf4dce15",
                "id": 4,
                "isERC1155": false,
                "isERC721": false,
                "isReverted": false,
                "order": 4,
                "to": "0x329239599afb305da0a2ec69c58f8a6697f9f88d",
                "token": "0x0000000000085d4780b73119b644ae5ecd22b376"
            },
            {
                "amount": "59,092.676238959022438899",
                "from": "0x0000000000000000000000000000000000000000",
                "id": 5,
                "isERC1155": false,
                "isERC721": false,
                "isReverted": false,
                "order": 5,
                "to": "0xd19174a261842097bb3a4880ba4598aecf4dce15",
                "token": "0x77c6e4a580c0dce4e5c7a17d0bc077188a83a059"
            }
        ],
        "token_infos": [
            {
                "address": "0xeeeeeeeeeeeeeeeeeeeeeeeeeeeeeeeeeeeeeeee",
                "decimals": 18
            },
            {
                "address": "0x0000000000085d4780b73119b644ae5ecd22b376",
                "decimals": 18
            },
            {
                "address": "0x6b175474e89094c44da98b954eedeac495271d0f",
                "decimals": 18
            },
            {
                "address": "0x77c6e4a580c0dce4e5c7a17d0bc077188a83a059",
                "decimals": 18
            },
            {
                "address": "0xa0b86991c6218b36c1d19d4a2e9eb0ce3606eb48",
                "decimals": 6
            },
            {
                "address": "0xc02aaa39b223fe8d0a0e5c4f27ead9083c756cc2",
                "decimals": 18
            },
            {
                "address": "0xdac17f958d2ee523a2206206994597c13d831ec7",
                "decimals": 6
            }
        ]
    },
    "address_label": {
        "labels": [
            {
                "address": "0x0000000000085d4780b73119b644ae5ecd22b376",
                "label": "TrueUSD: TUSD Token"
            },
            {
                "address": "0x6b175474e89094c44da98b954eedeac495271d0f",
                "label": "Sky: Dai Stablecoin"
            },
            {
                "address": "0x329239599afb305da0a2ec69c58f8a6697f9f88d",
                "label": "YPoolDelegator"
            },
            {
                "address": "0x0000000000000000000000000000000000000004",
                "label": "Precompiled"
            },
            {
                "address": "0xdac17f958d2ee523a2206206994597c13d831ec7",
                "label": "Tether: USDT Stablecoin"
            },
            {
                "address": "0xb7277a6e95992041568d9391d09d0122023778a2",
                "label": "FiatTokenV2"
            },
            {
                "address": "0xa0b86991c6218b36c1d19d4a2e9eb0ce3606eb48",
                "label": "Circle: USDC Token"
            },
            {
                "address": "0xeeeeeeeeeeeeeeeeeeeeeeeeeeeeeeeeeeeeeeee",
                "label": "Ether"
            },
            {
                "address": "0xffc40f39806f1400d8278bfd33823705b5a4c196",
                "label": "TrueUSD (TUSD)"
            },
            {
                "address": "0x0000000000000000000000000000000000000002",
                "label": "Precompiled"
            },
            {
                "address": "0x77c6e4a580c0dce4e5c7a17d0bc077188a83a059",
                "label": "Swerve.fi: swUSD Token"
            },
            {
                "address": "0xa5407eae9ba41422680e2e00537571bcc53efbfd",
                "label": "Curve.fi: sUSD v2 Swap"
            },
            {
                "address": "0x0000000000000000000000000000000000000001",
                "label": "Precompiled"
            },
            {
                "address": "0x0000000000000000000000000000000000000003",
                "label": "Precompiled"
            }
        ]
    },
    "trace": {
        "accountLabels": null,
        "dataMap": {
            "-1": {
                "invocation": {
                    "address": "0xd19174a261842097bb3a4880ba4598aecf4dce15",
                    "callData": "",
                    "decodedMethod": null,
                    "errorInfo": "",
                    "fromAddress": "",
                    "gasUsed": 0,
                    "id": -1,
                    "methodDecoded": false,
                    "operation": "",
                    "output": "",
                    "revert": false,
                    "revertMessage": "",
                    "selector": "",
                    "status": false,
                    "value": ""
                },
                "nodeType": 0
            },
            "0": {
                "invocation": {
                    "address": "0x329239599afb305da0a2ec69c58f8a6697f9f88d",
                    "callData": "0x000000000000000000000000000000000000000000000000000000000000000000000000000000000000000000000000000000000000000000000000000000000000000000000000000000000000000000000000000000000000000df847580000000000000000000000000000000000000000000000000000000000000000000000000000000000000000000000000000000000000000000000000000000000",
                    "decodedMethod": {
                        "callParams": [
                            {
                                "name": "amounts",
                                "type": "uint256[4]",
                                "value": [
                                    "0",
                                    "0",
                                    "60,000,000,000",
                                    "0"
                                ]
                            },
                            {
                                "name": "",
                                "type": "uint256",
                                "value": "0"
                            }
                        ],
                        "constructorArguments": "",
                        "name": "add_liquidity",
                        "returnParams": [],
                        "signature": "add_liquidity(uint256[4],uint256)"
                    },
                    "errorInfo": "",
                    "fromAddress": "0xd19174a261842097bb3a4880ba4598aecf4dce15",
                    "gasUsed": 254747,
                    "id": 0,
                    "methodDecoded": true,
                    "operation": "CALL",
                    "output": "",
                    "revert": false,
                    "revertMessage": "",
                    "selector": "0x029b2f34",
                    "status": true,
                    "value": "0"
                },
                "nodeType": 0
            },
            "1": {
                "invocation": {
                    "address": "0xa5407eae9ba41422680e2e00537571bcc53efbfd",
                    "callData": "0x000000000000000000000000000000000000000000000000000000000000000000000000000000000000000000000000000000000000000000000000000000000000000000000000000000000000000000000000000000000000000df847580000000000000000000000000000000000000000000000000000000000000000000000000000000000000000000000000000000000000000000000000000000000",
                    "decodedMethod": {
                        "callParams": [
                            {
                                "name": "amounts",
                                "type": "uint256[4]",
                                "value": [
                                    "0",
                                    "0",
                                    "60,000,000,000",
                                    "0"
                                ]
                            },
                            {
                                "name": "",
                                "type": "uint256",
                                "value": "0"
                            }
                        ],
                        "constructorArguments": "",
                        "name": "add_liquidity",
                        "returnParams": [],
                        "signature": "add_liquidity(uint256[4],uint256)"
                    },
                    "errorInfo": "",
                    "fromAddress": "0x329239599afb305da0a2ec69c58f8a6697f9f88d",
                    "gasUsed": 266117,
                    "id": 1,
                    "methodDecoded": true,
                    "operation": "DELEGATECALL",
                    "output": "",
                    "revert": false,
                    "revertMessage": "",
                    "selector": "0x029b2f34",
                    "status": true,
                    "value": "0"
                },
                "nodeType": 0
            },
            "10": {
                "invocation": {
                    "address": "0x0000000000085d4780b73119b644ae5ecd22b376",
                    "callData": "0x000000000000000000000000d19174a261842097bb3a4880ba4598aecf4dce15000000000000000000000000329239599afb305da0a2ec69c58f8a6697f9f88d0000000000000000000000000000000000000000000000000000000000000000",
                    "decodedMethod": {
                        "callParams": [
                            {
                                "name": "sender",
                                "type": "address",
                                "value": "0xd19174a261842097bb3a4880ba4598aecf4dce15"
                            },
                            {
                                "name": "recipient",
                                "type": "address",
                                "value": "0x329239599afb305da0a2ec69c58f8a6697f9f88d"
                            },
                            {
                                "decimalAvailable": true,
                                "name": "amount",
                                "type": "uint256",
                                "value": "0"
                            }
                        ],
                        "constructorArguments": "",
                        "name": "transferFrom",
                        "returnParams": [
                            {
                                "name": "",
                                "type": "bool",
                                "value": true
                            }
                        ],
                        "signature": "transferFrom(address,address,uint256)"
                    },
                    "errorInfo": "",
                    "fromAddress": "0x329239599afb305da0a2ec69c58f8a6697f9f88d",
                    "gasUsed": 16388,
                    "id": 10,
                    "methodDecoded": true,
                    "operation": "CALL",
                    "output": "0x0000000000000000000000000000000000000000000000000000000000000001",
                    "revert": false,
                    "revertMessage": "",
                    "selector": "0x23b872dd",
                    "status": true,
                    "value": "0"
                },
                "nodeType": 0
            },
            "11": {
                "invocation": {
                    "address": "0xffc40f39806f1400d8278bfd33823705b5a4c196",
                    "callData": "0x000000000000000000000000d19174a261842097bb3a4880ba4598aecf4dce15000000000000000000000000329239599afb305da0a2ec69c58f8a6697f9f88d0000000000000000000000000000000000000000000000000000000000000000",
                    "decodedMethod": {
                        "callParams": [
                            {
                                "name": "sender",
                                "type": "address",
                                "value": "0xd19174a261842097bb3a4880ba4598aecf4dce15"
                            },
                            {
                                "name": "recipient",
                                "type": "address",
                                "value": "0x329239599afb305da0a2ec69c58f8a6697f9f88d"
                            },
                            {
                                "decimalAvailable": true,
                                "name": "amount",
                                "type": "uint256",
                                "value": "0"
                            }
                        ],
                        "constructorArguments": "",
                        "name": "transferFrom",
                        "returnParams": [
                            {
                                "name": "",
                                "type": "bool",
                                "value": true
                            }
                        ],
                        "signature": "transferFrom(address,address,uint256)"
                    },
                    "errorInfo": "",
                    "fromAddress": "0x0000000000085d4780b73119b644ae5ecd22b376",
                    "gasUsed": 14377,
                    "id": 11,
                    "methodDecoded": true,
                    "operation": "DELEGATECALL",
                    "output": "0x0000000000000000000000000000000000000000000000000000000000000001",
                    "revert": false,
                    "revertMessage": "",
                    "selector": "0x23b872dd",
                    "status": true,
                    "value": "0"
                },
                "nodeType": 0
            },
            "12": {
                "event": {
                    "contract": "0x0000000000085d4780b73119b644ae5ecd22b376",
                    "decodedLog": {
                        "name": "Transfer",
                        "params": [
                            {
                                "name": "from",
                                "type": "address",
                                "value": "0xd19174a261842097bb3a4880ba4598aecf4dce15"
                            },
                            {
                                "name": "to",
                                "type": "address",
                                "value": "0x329239599afb305da0a2ec69c58f8a6697f9f88d"
                            },
                            {
                                "decimalAvailable": true,
                                "name": "value",
                                "type": "uint256",
                                "value": "0"
                            }
                        ],
                        "signature": "Transfer(address,address,uint256)"
                    },
                    "id": 12,
                    "logData": "0x0000000000000000000000000000000000000000000000000000000000000000",
                    "logDecoded": true,
                    "operation": "EVENT",
                    "revert": false,
                    "status": true,
                    "topics": [
                        "0xddf252ad1be2c89b69c2b068fc378daa952ba7f163c4a11628f55a4df523b3ef",
                        "0x000000000000000000000000d19174a261842097bb3a4880ba4598aecf4dce15",
                        "0x000000000000000000000000329239599afb305da0a2ec69c58f8a6697f9f88d"
                    ]
                },
                "nodeType": 1
            },
            "13": {
                "event": {
                    "contract": "0x0000000000085d4780b73119b644ae5ecd22b376",
                    "decodedLog": {
                        "name": "Approval",
                        "params": [
                            {
                                "name": "owner",
                                "type": "address",
                                "value": "0xd19174a261842097bb3a4880ba4598aecf4dce15"
                            },
                            {
                                "name": "spender",
                                "type": "address",
                                "value": "0x329239599afb305da0a2ec69c58f8a6697f9f88d"
                            },
                            {
                                "decimalAvailable": true,
                                "name": "value",
                                "type": "uint256",
                                "value": "0"
                            }
                        ],
                        "signature": "Approval(address,address,uint256)"
                    },
                    "id": 13,
                    "logData": "0x0000000000000000000000000000000000000000000000000000000000000000",
                    "logDecoded": true,
                    "operation": "EVENT",
                    "revert": false,
                    "status": true,
                    "topics": [
                        "0x8c5be1e5ebec7d5bd14f71427d1e84f3dd0314c0f7b2291e5b200ac8c7c3b925",
                        "0x000000000000000000000000d19174a261842097bb3a4880ba4598aecf4dce15",
                        "0x000000000000000000000000329239599afb305da0a2ec69c58f8a6697f9f88d"
                    ]
                },
                "nodeType": 1
            },
            "14": {
                "invocation": {
                    "address": "0x77c6e4a580c0dce4e5c7a17d0bc077188a83a059",
                    "callData": "0x000000000000000000000000d19174a261842097bb3a4880ba4598aecf4dce15000000000000000000000000000000000000000000000c836b9f30ea8e9ff9f3",
                    "decodedMethod": {
                        "callParams": [
                            {
                                "name": "to",
                                "type": "address",
                                "value": "0xd19174a261842097bb3a4880ba4598aecf4dce15"
                            },
                            {
                                "name": "amount",
                                "type": "uint256",
                                "value": "59,092,676,238,959,022,438,899"
                            }
                        ],
                        "constructorArguments": "",
                        "name": "mint",
                        "returnParams": [],
                        "signature": "mint(address,uint256)"
                    },
                    "errorInfo": "",
                    "fromAddress": "0x329239599afb305da0a2ec69c58f8a6697f9f88d",
                    "gasUsed": 29806,
                    "id": 14,
                    "methodDecoded": true,
                    "operation": "CALL",
                    "output": "",
                    "revert": false,
                    "revertMessage": "",
                    "selector": "0x40c10f19",
                    "status": true,
                    "value": "0"
                },
                "nodeType": 0
            },
            "15": {
                "event": {
                    "contract": "0x77c6e4a580c0dce4e5c7a17d0bc077188a83a059",
                    "decodedLog": {
                        "name": "Transfer",
                        "params": [
                            {
                                "name": "from",
                                "type": "address",
                                "value": "0x0000000000000000000000000000000000000000"
                            },
                            {
                                "name": "to",
                                "type": "address",
                                "value": "0xd19174a261842097bb3a4880ba4598aecf4dce15"
                            },
                            {
                                "decimalAvailable": true,
                                "name": "value",
                                "type": "uint256",
                                "value": "59,092,676,238,959,022,438,899"
                            }
                        ],
                        "signature": "Transfer(address,address,uint256)"
                    },
                    "id": 15,
                    "logData": "0x000000000000000000000000000000000000000000000c836b9f30ea8e9ff9f3",
                    "logDecoded": true,
                    "operation": "EVENT",
                    "revert": false,
                    "status": true,
                    "topics": [
                        "0xddf252ad1be2c89b69c2b068fc378daa952ba7f163c4a11628f55a4df523b3ef",
                        "0x0000000000000000000000000000000000000000000000000000000000000000",
                        "0x000000000000000000000000d19174a261842097bb3a4880ba4598aecf4dce15"
                    ]
                },
                "nodeType": 1
            },
            "16": {
                "event": {
                    "contract": "0x329239599afb305da0a2ec69c58f8a6697f9f88d",
                    "decodedLog": {
                        "name": "AddLiquidity",
                        "params": [
                            {
                                "name": "provider",
                                "type": "address",
                                "value": "0xd19174a261842097bb3a4880ba4598aecf4dce15"
                            },
                            {
                                "name": "token_amounts",
                                "type": "uint256[4]",
                                "value": [
                                    "0",
                                    "0",
                                    "60,000,000,000",
                                    "0"
                                ]
                            },
                            {
                                "name": "fees",
                                "type": "uint256[4]",
                                "value": [
                                    "1,391,221,474,287,064,662",
                                    "1,531,713",
                                    "4,404,563",
                                    "1,477,675,913,215,320,155"
                                ]
                            },
                            {
                                "name": "invariant",
                                "type": "uint256",
                                "value": "13,790,948,310,018,966,493,722,028"
                            },
                            {
                                "name": "token_supply",
                                "type": "uint256",
                                "value": "13,593,512,171,205,898,505,395,336"
                            }
                        ],
                        "signature": "AddLiquidity(address,uint256[4],uint256[4],uint256,uint256)"
                    },
                    "id": 16,
                    "logData": "0x000000000000000000000000000000000000000000000000000000000000000000000000000000000000000000000000000000000000000000000000000000000000000000000000000000000000000000000000000000000000000df84758000000000000000000000000000000000000000000000000000000000000000000000000000000000000000000000000000000000000000000134e9c8f52c696560000000000000000000000000000000000000000000000000000000000175f4100000000000000000000000000000000000000000000000000000000004335530000000000000000000000000000000000000000000000001481c269fc59a05b0000000000000000000000000000000000000000000b6858ce50a291908df5ac0000000000000000000000000000000000000000000b3e89c5799594317d9c88",
                    "logDecoded": true,
                    "operation": "EVENT",
                    "revert": false,
                    "status": true,
                    "topics": [
                        "0x3f1915775e0c9a38a57a7bb7f1f9005f486fb904e1f84aa215364d567319a58d",
                        "0x000000000000000000000000d19174a261842097bb3a4880ba4598aecf4dce15"
                    ]
                },
                "nodeType": 1
            },
            "2": {
                "invocation": {
                    "address": "0x77c6e4a580c0dce4e5c7a17d0bc077188a83a059",
                    "callData": "0x",
                    "decodedMethod": {
                        "callParams": [],
                        "constructorArguments": "",
                        "name": "totalSupply",
                        "returnParams": [
                            {
                                "name": "",
                                "type": "uint256",
                                "value": "13,534,419,494,966,939,482,956,437"
                            }
                        ],
                        "signature": "totalSupply()"
                    },
                    "errorInfo": "",
                    "fromAddress": "0x329239599afb305da0a2ec69c58f8a6697f9f88d",
                    "gasUsed": 991,
                    "id": 2,
                    "methodDecoded": true,
                    "operation": "STATICCALL",
                    "output": "0x0000000000000000000000000000000000000000000b320659da64a9a2dda295",
                    "revert": false,
                    "revertMessage": "",
                    "selector": "0x18160ddd",
                    "status": true,
                    "value": "0"
                },
                "nodeType": 0
            },
            "3": {
                "invocation": {
                    "address": "0x6b175474e89094c44da98b954eedeac495271d0f",
                    "callData": "0x000000000000000000000000d19174a261842097bb3a4880ba4598aecf4dce15000000000000000000000000329239599afb305da0a2ec69c58f8a6697f9f88d0000000000000000000000000000000000000000000000000000000000000000",
                    "decodedMethod": {
                        "callParams": [
                            {
                                "name": "src",
                                "type": "address",
                                "value": "0xd19174a261842097bb3a4880ba4598aecf4dce15"
                            },
                            {
                                "name": "dst",
                                "type": "address",
                                "value": "0x329239599afb305da0a2ec69c58f8a6697f9f88d"
                            },
                            {
                                "decimalAvailable": true,
                                "name": "wad",
                                "type": "uint256",
                                "value": "0"
                            }
                        ],
                        "constructorArguments": "",
                        "name": "transferFrom",
                        "returnParams": [
                            {
                                "name": "",
                                "type": "bool",
                                "value": true
                            }
                        ],
                        "signature": "transferFrom(address,address,uint256)"
                    },
                    "errorInfo": "",
                    "fromAddress": "0x329239599afb305da0a2ec69c58f8a6697f9f88d",
                    "gasUsed": 8018,
                    "id": 3,
                    "methodDecoded": true,
                    "operation": "CALL",
                    "output": "0x0000000000000000000000000000000000000000000000000000000000000001",
                    "revert": false,
                    "revertMessage": "",
                    "selector": "0x23b872dd",
                    "status": true,
                    "value": "0"
                },
                "nodeType": 0
            },
            "4": {
                "event": {
                    "contract": "0x6b175474e89094c44da98b954eedeac495271d0f",
                    "decodedLog": {
                        "name": "Transfer",
                        "params": [
                            {
                                "name": "src",
                                "type": "address",
                                "value": "0xd19174a261842097bb3a4880ba4598aecf4dce15"
                            },
                            {
                                "name": "dst",
                                "type": "address",
                                "value": "0x329239599afb305da0a2ec69c58f8a6697f9f88d"
                            },
                            {
                                "decimalAvailable": true,
                                "name": "wad",
                                "type": "uint256",
                                "value": "0"
                            }
                        ],
                        "signature": "Transfer(address,address,uint256)"
                    },
                    "id": 4,
                    "logData": "0x0000000000000000000000000000000000000000000000000000000000000000",
                    "logDecoded": true,
                    "operation": "EVENT",
                    "revert": false,
                    "status": true,
                    "topics": [
                        "0xddf252ad1be2c89b69c2b068fc378daa952ba7f163c4a11628f55a4df523b3ef",
                        "0x000000000000000000000000d19174a261842097bb3a4880ba4598aecf4dce15",
                        "0x000000000000000000000000329239599afb305da0a2ec69c58f8a6697f9f88d"
                    ]
                },
                "nodeType": 1
            },
            "5": {
                "invocation": {
                    "address": "0xa0b86991c6218b36c1d19d4a2e9eb0ce3606eb48",
                    "callData": "0x000000000000000000000000d19174a261842097bb3a4880ba4598aecf4dce15000000000000000000000000329239599afb305da0a2ec69c58f8a6697f9f88d0000000000000000000000000000000000000000000000000000000000000000",
                    "decodedMethod": {
                        "callParams": [
                            {
                                "name": "from",
                                "type": "address",
                                "value": "0xd19174a261842097bb3a4880ba4598aecf4dce15"
                            },
                            {
                                "name": "to",
                                "type": "address",
                                "value": "0x329239599afb305da0a2ec69c58f8a6697f9f88d"
                            },
                            {
                                "decimalAvailable": true,
                                "name": "value",
                                "type": "uint256",
                                "value": "0"
                            }
                        ],
                        "constructorArguments": "",
                        "name": "transferFrom",
                        "returnParams": [
                            {
                                "name": "",
                                "type": "bool",
                                "value": true
                            }
                        ],
                        "signature": "transferFrom(address,address,uint256)"
                    },
                    "errorInfo": "",
                    "fromAddress": "0x329239599afb305da0a2ec69c58f8a6697f9f88d",
                    "gasUsed": 16414,
                    "id": 5,
                    "methodDecoded": true,
                    "operation": "CALL",
                    "output": "0x0000000000000000000000000000000000000000000000000000000000000001",
                    "revert": false,
                    "revertMessage": "",
                    "selector": "0x23b872dd",
                    "status": true,
                    "value": "0"
                },
                "nodeType": 0
            },
            "6": {
                "invocation": {
                    "address": "0xb7277a6e95992041568d9391d09d0122023778a2",
                    "callData": "0x000000000000000000000000d19174a261842097bb3a4880ba4598aecf4dce15000000000000000000000000329239599afb305da0a2ec69c58f8a6697f9f88d0000000000000000000000000000000000000000000000000000000000000000",
                    "decodedMethod": {
                        "callParams": [
                            {
                                "name": "from",
                                "type": "address",
                                "value": "0xd19174a261842097bb3a4880ba4598aecf4dce15"
                            },
                            {
                                "name": "to",
                                "type": "address",
                                "value": "0x329239599afb305da0a2ec69c58f8a6697f9f88d"
                            },
                            {
                                "decimalAvailable": true,
                                "name": "value",
                                "type": "uint256",
                                "value": "0"
                            }
                        ],
                        "constructorArguments": "",
                        "name": "transferFrom",
                        "returnParams": [
                            {
                                "name": "",
                                "type": "bool",
                                "value": true
                            }
                        ],
                        "signature": "transferFrom(address,address,uint256)"
                    },
                    "errorInfo": "",
                    "fromAddress": "0xa0b86991c6218b36c1d19d4a2e9eb0ce3606eb48",
                    "gasUsed": 13619,
                    "id": 6,
                    "methodDecoded": true,
                    "operation": "DELEGATECALL",
                    "output": "0x0000000000000000000000000000000000000000000000000000000000000001",
                    "revert": false,
                    "revertMessage": "",
                    "selector": "0x23b872dd",
                    "status": true,
                    "value": "0"
                },
                "nodeType": 0
            },
            "7": {
                "event": {
                    "contract": "0xa0b86991c6218b36c1d19d4a2e9eb0ce3606eb48",
                    "decodedLog": {
                        "name": "Transfer",
                        "params": [
                            {
                                "name": "from",
                                "type": "address",
                                "value": "0xd19174a261842097bb3a4880ba4598aecf4dce15"
                            },
                            {
                                "name": "to",
                                "type": "address",
                                "value": "0x329239599afb305da0a2ec69c58f8a6697f9f88d"
                            },
                            {
                                "decimalAvailable": true,
                                "name": "value",
                                "type": "uint256",
                                "value": "0"
                            }
                        ],
                        "signature": "Transfer(address,address,uint256)"
                    },
                    "id": 7,
                    "logData": "0x0000000000000000000000000000000000000000000000000000000000000000",
                    "logDecoded": true,
                    "operation": "EVENT",
                    "revert": false,
                    "status": true,
                    "topics": [
                        "0xddf252ad1be2c89b69c2b068fc378daa952ba7f163c4a11628f55a4df523b3ef",
                        "0x000000000000000000000000d19174a261842097bb3a4880ba4598aecf4dce15",
                        "0x000000000000000000000000329239599afb305da0a2ec69c58f8a6697f9f88d"
                    ]
                },
                "nodeType": 1
            },
            "8": {
                "invocation": {
                    "address": "0xdac17f958d2ee523a2206206994597c13d831ec7",
                    "callData": "0x000000000000000000000000d19174a261842097bb3a4880ba4598aecf4dce15000000000000000000000000329239599afb305da0a2ec69c58f8a6697f9f88d0000000000000000000000000000000000000000000000000000000df8475800",
                    "decodedMethod": {
                        "callParams": [
                            {
                                "name": "_from",
                                "type": "address",
                                "value": "0xd19174a261842097bb3a4880ba4598aecf4dce15"
                            },
                            {
                                "name": "_to",
                                "type": "address",
                                "value": "0x329239599afb305da0a2ec69c58f8a6697f9f88d"
                            },
                            {
                                "decimalAvailable": true,
                                "name": "_value",
                                "type": "uint256",
                                "value": "60,000,000,000"
                            }
                        ],
                        "constructorArguments": "",
                        "name": "transferFrom",
                        "returnParams": [],
                        "signature": "transferFrom(address,address,uint256)"
                    },
                    "errorInfo": "",
                    "fromAddress": "0x329239599afb305da0a2ec69c58f8a6697f9f88d",
                    "gasUsed": 20330,
                    "id": 8,
                    "methodDecoded": true,
                    "operation": "CALL",
                    "output": "",
                    "revert": false,
                    "revertMessage": "",
                    "selector": "0x23b872dd",
                    "status": true,
                    "value": "0"
                },
                "nodeType": 0
            },
            "9": {
                "event": {
                    "contract": "0xdac17f958d2ee523a2206206994597c13d831ec7",
                    "decodedLog": {
                        "name": "Transfer",
                        "params": [
                            {
                                "name": "from",
                                "type": "address",
                                "value": "0xd19174a261842097bb3a4880ba4598aecf4dce15"
                            },
                            {
                                "name": "to",
                                "type": "address",
                                "value": "0x329239599afb305da0a2ec69c58f8a6697f9f88d"
                            },
                            {
                                "decimalAvailable": true,
                                "name": "value",
                                "type": "uint256",
                                "value": "60,000,000,000"
                            }
                        ],
                        "signature": "Transfer(address,address,uint256)"
                    },
                    "id": 9,
                    "logData": "0x0000000000000000000000000000000000000000000000000000000df8475800",
                    "logDecoded": true,
                    "operation": "EVENT",
                    "revert": false,
                    "status": true,
                    "topics": [
                        "0xddf252ad1be2c89b69c2b068fc378daa952ba7f163c4a11628f55a4df523b3ef",
                        "0x000000000000000000000000d19174a261842097bb3a4880ba4598aecf4dce15",
                        "0x000000000000000000000000329239599afb305da0a2ec69c58f8a6697f9f88d"
                    ]
                },
                "nodeType": 1
            }
        },
        "gasFlame": [
            {
                "children": [
                    {
                        "children": [
                            {
                                "children": [],
                                "depth": 0,
                                "name": "Initial Gas",
                                "value": 21752
                            },
                            {
                                "children": [
                                    {
                                        "children": [
                                            {
                                                "children": [],
                                                "depth": 2,
                                                "name": "totalSupply",
                                                "value": 991
                                            },
                                            {
                                                "children": [],
                                                "depth": 2,
                                                "name": "transferFrom",
                                                "value": 8018
                                            },
                                            {
                                                "children": [
                                                    {
                                                        "children": [],
                                                        "depth": 3,
                                                        "name": "transferFrom",
                                                        "value": 13619
                                                    }
                                                ],
                                                "depth": 2,
                                                "name": "transferFrom",
                                                "value": 16414
                                            },
                                            {
                                                "children": [],
                                                "depth": 2,
                                                "name": "transferFrom",
                                                "value": 20330
                                            },
                                            {
                                                "children": [
                                                    {
                                                        "children": [],
                                                        "depth": 3,
                                                        "name": "transferFrom",
                                                        "value": 14377
                                                    }
                                                ],
                                                "depth": 2,
                                                "name": "transferFrom",
                                                "value": 16388
                                            },
                                            {
                                                "children": [],
                                                "depth": 2,
                                                "name": "mint",
                                                "value": 29806
                                            }
                                        ],
                                        "depth": 1,
                                        "name": "add_liquidity",
                                        "value": 266117
                                    }
                                ],
                                "depth": 0,
                                "name": "Executed Gas",
                                "value": 267195
                            }
                        ],
                        "depth": -1,
                        "name": "Actual Gas Used",
                        "value": 254747
                    },
                    {
                        "children": [],
                        "depth": -1,
                        "name": "Refunded Gas",
                        "value": 34200
                    }
                ],
                "depth": -2,
                "name": "Total Gas",
                "value": 288947
            }
        ],
        "isConfirmed": true,
        "mainTrace": [
            {
                "children": [
                    {
                        "children": [
                            {
                                "children": [
                                    {
                                        "children": [],
                                        "depth": 2,
                                        "id": 2,
                                        "order": 2
                                    },
                                    {
                                        "children": [
                                            {
                                                "children": [],
                                                "depth": 3,
                                                "id": 4,
                                                "order": 4
                                            }
                                        ],
                                        "depth": 2,
                                        "id": 3,
                                        "order": 3
                                    },
                                    {
                                        "children": [
                                            {
                                                "children": [
                                                    {
                                                        "children": [],
                                                        "depth": 4,
                                                        "id": 7,
                                                        "order": 7
                                                    }
                                                ],
                                                "depth": 3,
                                                "id": 6,
                                                "order": 6
                                            }
                                        ],
                                        "depth": 2,
                                        "id": 5,
                                        "order": 5
                                    },
                                    {
                                        "children": [
                                            {
                                                "children": [],
                                                "depth": 3,
                                                "id": 9,
                                                "order": 9
                                            }
                                        ],
                                        "depth": 2,
                                        "id": 8,
                                        "order": 8
                                    },
                                    {
                                        "children": [
                                            {
                                                "children": [
                                                    {
                                                        "children": [],
                                                        "depth": 4,
                                                        "id": 12,
                                                        "order": 12
                                                    },
                                                    {
                                                        "children": [],
                                                        "depth": 4,
                                                        "id": 13,
                                                        "order": 13
                                                    }
                                                ],
                                                "depth": 3,
                                                "id": 11,
                                                "order": 11
                                            }
                                        ],
                                        "depth": 2,
                                        "id": 10,
                                        "order": 10
                                    },
                                    {
                                        "children": [
                                            {
                                                "children": [],
                                                "depth": 3,
                                                "id": 15,
                                                "order": 15
                                            }
                                        ],
                                        "depth": 2,
                                        "id": 14,
                                        "order": 14
                                    },
                                    {
                                        "children": [],
                                        "depth": 2,
                                        "id": 16,
                                        "order": 16
                                    }
                                ],
                                "depth": 1,
                                "id": 1,
                                "order": 1
                            }
                        ],
                        "depth": 0,
                        "id": 0,
                        "order": 0
                    }
                ],
                "depth": -1,
                "id": -1,
                "order": -1
            }
        ],
        "mainTraceNodeCount": 17,
        "parentIdMap": {
            "0": -1,
            "1": 0,
            "10": 1,
            "11": 10,
            "12": 11,
            "13": 11,
            "14": 1,
            "15": 14,
            "16": 1,
            "2": 1,
            "3": 1,
            "4": 3,
            "5": 1,
            "6": 5,
            "7": 6,
            "8": 1,
            "9": 8
        },
        "tidyTrace": [
            {
                "children": [
                    {
                        "children": [
                            {
                                "children": [
                                    {
                                        "children": [
                                            {
                                                "children": [],
                                                "depth": 3,
                                                "id": 4,
                                                "order": 4
                                            }
                                        ],
                                        "depth": 2,
                                        "id": 3,
                                        "order": 3
                                    },
                                    {
                                        "children": [
                                            {
                                                "children": [
                                                    {
                                                        "children": [],
                                                        "depth": 4,
                                                        "id": 7,
                                                        "order": 7
                                                    }
                                                ],
                                                "depth": 3,
                                                "id": 6,
                                                "order": 6
                                            }
                                        ],
                                        "depth": 2,
                                        "id": 5,
                                        "order": 5
                                    },
                                    {
                                        "children": [
                                            {
                                                "children": [],
                                                "depth": 3,
                                                "id": 9,
                                                "order": 9
                                            }
                                        ],
                                        "depth": 2,
                                        "id": 8,
                                        "order": 8
                                    },
                                    {
                                        "children": [
                                            {
                                                "children": [
                                                    {
                                                        "children": [],
                                                        "depth": 4,
                                                        "id": 12,
                                                        "order": 12
                                                    },
                                                    {
                                                        "children": [],
                                                        "depth": 4,
                                                        "id": 13,
                                                        "order": 13
                                                    }
                                                ],
                                                "depth": 3,
                                                "id": 11,
                                                "order": 11
                                            }
                                        ],
                                        "depth": 2,
                                        "id": 10,
                                        "order": 10
                                    },
                                    {
                                        "children": [
                                            {
                                                "children": [],
                                                "depth": 3,
                                                "id": 15,
                                                "order": 15
                                            }
                                        ],
                                        "depth": 2,
                                        "id": 14,
                                        "order": 14
                                    },
                                    {
                                        "children": [],
                                        "depth": 2,
                                        "id": 16,
                                        "order": 16
                                    }
                                ],
                                "depth": 1,
                                "id": 1,
                                "order": 1
                            }
                        ],
                        "depth": 0,
                        "id": 0,
                        "order": 0
                    }
                ],
                "depth": -1,
                "id": -1,
                "order": -1
            }
        ],
        "tidyTraceNodeCount": 16
    },
    "state_change": {
        "stateChanges": [
            {
                "address": "0x329239599afb305da0a2ec69c58f8a6697f9f88d",
                "erc": "",
                "slots": [
                    {
                        "current": "0x00000000000000000000000000000000000000000002a2a67b413055e0d5f4a0",
                        "key": "0x405787fa12a823e0f2b7631cc41b3ba8828b3321ca811111fa75cd3aa3bb5ace",
                        "prev": "0x00000000000000000000000000000000000000000002a2a681b0b9daf9a9df70"
                    },
                    {
                        "current": "0x00000000000000000000000000000000000000000000000000000330b1e464b5",
                        "key": "0x405787fa12a823e0f2b7631cc41b3ba8828b3321ca811111fa75cd3aa3bb5acf",
                        "prev": "0x00000000000000000000000000000000000000000000000000000330b1ec2f1f"
                    },
                    {
                        "current": "0x00000000000000000000000000000000000000000000000000000360a4068aa4",
                        "key": "0x405787fa12a823e0f2b7631cc41b3ba8828b3321ca811111fa75cd3aa3bb5ad0",
                        "prev": "0x00000000000000000000000000000000000000000000000000000352abd599bf"
                    },
                    {
                        "current": "0x00000000000000000000000000000000000000000002cc933310a4ccc872c10f",
                        "key": "0x405787fa12a823e0f2b7631cc41b3ba8828b3321ca811111fa75cd3aa3bb5ad1",
                        "prev": "0x00000000000000000000000000000000000000000002cc9339e690456ef660ca"
                    }
                ],
                "storageVariables": [
                    {
                        "name": "_balances",
                        "type": "uint256[]",
                        "value": {
                            "elemType": "uint256",
                            "elems": [
                                {
                                    "index": 0,
                                    "value": {
                                        "current": "3185946050403462213399712",
                                        "prev": "3185946514143953596047216",
                                        "typeTag": 1
                                    }
                                },
                                {
                                    "index": 1,
                                    "value": {
                                        "current": "3507677848757",
                                        "prev": "3507678359327",
                                        "typeTag": 1
                                    }
                                },
                                {
                                    "index": 2,
                                    "value": {
                                        "current": "3713603635876",
                                        "prev": "3653605104063",
                                        "typeTag": 1
                                    }
                                },
                                {
                                    "index": 3,
                                    "value": {
                                        "current": "3383929752735596282036495",
                                        "prev": "3383930245294233971220682",
                                        "typeTag": 1
                                    }
                                }
                            ],
                            "typeTag": 2
                        }
                    }
                ]
            },
            {
                "address": "0x77c6e4a580c0dce4e5c7a17d0bc077188a83a059",
                "erc": "",
                "slots": [
                    {
                        "current": "0x0000000000000000000000000000000000000000000b3e89c5799594317d9c88",
                        "key": "0x0000000000000000000000000000000000000000000000000000000000000005",
                        "prev": "0x0000000000000000000000000000000000000000000b320659da64a9a2dda295"
                    },
                    {
                        "current": "0x000000000000000000000000000000000000000000000c836b9f30ea8e9ff9f3",
                        "key": "0xbdf59c10e3134500b8af5ce9854a43e5a4a087cf8a684dcb2b13380736f3cb50",
                        "prev": "0x0000000000000000000000000000000000000000000000000000000000000000"
                    }
                ],
                "storageVariables": []
            },
            {
                "address": "0xdac17f958d2ee523a2206206994597c13d831ec7",
                "erc": "ERC-20",
                "slots": [
                    {
                        "current": "0x00000000000000000000000000000000000000000000000000000364f6a2ec1d",
                        "key": "0xc850d369869581a04db15422910bc7036738de0adcc47e191309bf88e291b6c6",
                        "prev": "0x00000000000000000000000000000000000000000000000000000356fe5b941d"
                    },
                    {
                        "current": "0x0000000000000000000000000000000000000000000000000000000000000000",
                        "key": "0x261a2d60b0f3ffcdc63075e5e420504c23092469cde5d7e7a4b20f3701f508e2",
                        "prev": "0x0000000000000000000000000000000000000000000000000000000df8475800"
                    }
                ],
                "storageVariables": [
                    {
                        "name": "balances",
                        "type": "mapping(address => uint256)",
                        "value": {
                            "pairs": [
                                {
                                    "key": "0x329239599afb305da0a2ec69c58f8a6697f9f88d",
                                    "value": {
                                        "current": "3732169485341",
                                        "prev": "3672169485341",
                                        "typeTag": 1
                                    }
                                },
                                {
                                    "key": "0xd19174a261842097bb3a4880ba4598aecf4dce15",
                                    "value": {
                                        "current": "0",
                                        "prev": "60000000000",
                                        "typeTag": 1
                                    }
                                }
                            ],
                            "typeTag": 4
                        }
                    }
                ]
            }
        ]
    }
}