{
    "balance_change": {
        "balanceChanges": [
            {
                "account": "0x675e0e6d555d0386385536211152a5f393d8d28c",
                "assets": [
                    {
                        "address": "0xeeeeeeeeeeeeeeeeeeeeeeeeeeeeeeeeeeeeeeee",
                        "amount": "0.19",
                        "iconUrl": "https://assets.blocksec.com/image/1663669189317-3.png",
                        "isERC1155": false,
                        "isERC721": false,
                        "sign": false,
                        "value": "231.21100000000001727"
                    }
                ]
            },
            {
                "account": "0xabea9132b05a70803a4e85094fd0e1800777fbef",
                "assets": [
                    {
                        "address": "0xeeeeeeeeeeeeeeeeeeeeeeeeeeeeeeeeeeeeeeee",
                        "amount": "0.19",
                        "iconUrl": "https://assets.blocksec.com/image/1663669189317-3.png",
                        "isERC1155": false,
                        "isERC721": false,
                        "sign": true,
                        "value": "231.21100000000001727"
                    }
                ]
            }
        ]
    },
    "profile": {
        "basic_info": {
            "baseFee": "13.648274734",
            "blockNumber": 16326559,
            "callData": "0x2d2da806000000000000000000000000675e0e6d555d0386385536211152a5f393d8d28c",
            "debugEnable": true,
            "errorInfo": "",
            "eventCount": 2,
            "feeRecipient": "0xdafea492d9c6733ae3d56b7ed1adb60692c98bc5",
            "formatValue": "0.19",
            "gasLimit": 90000,
            "gasPrice": "14.116307206",
            "gasUsed": 62618,
            "intTxnCount": 1,
            "internalRevert": false,
            "internalRevertMessage": "",
            "isContractCreation": false,
            "isFlashloan": false,
            "maxFee": "14.116307206",
            "nonce": 1,
            "overwritedBlockNumber": -1,
            "priorityFee": "14.116307206",
            "receiver": "0xabea9132b05a70803a4e85094fd0e1800777fbef",
            "revertMessage": "",
            "sender": "0x675e0e6d555d0386385536211152a5f393d8d28c",
            "simulationEnable": true,
            "sourceTxnHash": "0x4841297cf4478ab3660dd25548910c11fd1dd182ae56044f788d7ec36f4369ec",
            "status": true,
            "timestamp": "2023-01-03T13:28:47Z",
            "transactionFee": "0.000883934924625308",
            "txnHash": "0x4841297cf4478ab3660dd25548910c11fd1dd182ae56044f788d7ec36f4369ec",
            "txnIndex": 105,
            "type": 2,
            "value": "190000000000000000"
        },
        "fund_flow": [
            {
                "amount": "0.19",
                "from": "0x675e0e6d555d0386385536211152a5f393d8d28c",
                "id": 1,
                "isERC1155": false,
                "isERC721": false,
                "isReverted": false,
                "order": 1,
                "to": "0xabea9132b05a70803a4e85094fd0e1800777fbef",
                "token": "0xeeeeeeeeeeeeeeeeeeeeeeeeeeeeeeeeeeeeeeee"
            }
        ],
        "token_infos": [
            {
                "address": "0xc02aaa39b223fe8d0a0e5c4f27ead9083c756cc2",
                "decimals": 18
            },
            {
                "address": "0xeeeeeeeeeeeeeeeeeeeeeeeeeeeeeeeeeeeeeeee",
                "decimals": 18
            }
        ]
    },
    "address_label": {
        "labels": [
            {
                "address": "0x0000000000000000000000000000000000000003",
                "label": "Precompiled"
            },
            {
                "address": "0x0000000000000000000000000000000000000004",
                "label": "Precompiled"
            },
            {
                "address": "0xeeeeeeeeeeeeeeeeeeeeeeeeeeeeeeeeeeeeeeee",
                "label": "Ether"
            },
            {
                "address": "0xabea9132b05a70803a4e85094fd0e1800777fbef",
                "label": "zkSync"
            },
            {
                "address": "0x8e972b354e6933275513c355ee14d44a832ad2d9",
                "label": "ZkSync"
            },
            {
                "address": "0x0000000000000000000000000000000000000001",
                "label": "Precompiled"
            },
            {
                "address": "0x0000000000000000000000000000000000000002",
                "label": "Precompiled"
            }
        ]
    },
    "trace": {
        "accountLabels": null,
        "dataMap": {
            "-1": {
                "invocation": {
                    "address": "0x675e0e6d555d0386385536211152a5f393d8d28c",
                    "callData": "",
                    "decodedMethod": null,
                    "errorInfo": "",
                    "fromAddress": "",
                    "gasUsed": 0,
                    "id": -1,
                    "methodDecoded": false,
                    "operation": "",
                    "output": "",
                    "revert": false,
                    "revertMessage": "",
                    "selector": "",
                    "status": false,
                    "value": ""
                },
                "nodeType": 0
            },
            "0": {
                "invocation": {
                    "address": "0xabea9132b05a70803a4e85094fd0e1800777fbef",
                    "callData": "0x000000000000000000000000675e0e6d555d0386385536211152a5f393d8d28c",
                    "decodedMethod": {
                        "callParams": [
                            {
                                "name": "_zkSyncAddress",
                                "type": "address",
                                "value": "0x675e0e6d555d0386385536211152a5f393d8d28c"
                            }
                        ],
                        "constructorArguments": "",
                        "name": "depositETH",
                        "returnParams": [],
                        "signature": "depositETH(address)"
                    },
                    "errorInfo": "",
                    "fromAddress": "0x675e0e6d555d0386385536211152a5f393d8d28c",
                    "gasUsed": 62618,
                    "id": 0,
                    "methodDecoded": true,
                    "operation": "CALL",
                    "output": "",
                    "revert": false,
                    "revertMessage": "",
                    "selector": "0x2d2da806",
                    "status": true,
                    "value": "0.19"
                },
                "nodeType": 0
            },
            "1": {
                "invocation": {
                    "address": "0x8e972b354e6933275513c355ee14d44a832ad2d9",
                    "callData": "0x000000000000000000000000675e0e6d555d0386385536211152a5f393d8d28c",
                    "decodedMethod": {
                        "callParams": [
                            {
                                "name": "_zkSyncAddress",
                                "type": "address",
                                "value": "0x675e0e6d555d0386385536211152a5f393d8d28c"
                            }
                        ],
                        "constructorArguments": "",
                        "name": "depositETH",
                        "returnParams": [],
                        "signature": "depositETH(address)"
                    },
                    "errorInfo": "",
                    "fromAddress": "0xabea9132b05a70803a4e85094fd0e1800777fbef",
                    "gasUsed": 36151,
                    "id": 1,
                    "methodDecoded": true,
                    "operation": "DELEGATECALL",
                    "output": "",
                    "revert": false,
                    "revertMessage": "",
                    "selector": "0x2d2da806",
                    "status": true,
                    "value": "0.19"
                },
                "nodeType": 0
            },
            "2": {
                "event": {
                    "contract": "0xabea9132b05a70803a4e85094fd0e1800777fbef",
                    "decodedLog": {
                        "name": "NewPriorityRequest",
                        "params": [
                            {
                                "name": "sender",
                                "type": "address",
                                "value": "0x675e0e6d555d0386385536211152a5f393d8d28c"
                            },
                            {
                                "name": "serialId",
                                "type": "uint64",
                                "value": "734,126"
                            },
                            {
                                "name": "opType",
                                "type": "uint8",
                                "value": "1"
                            },
                            {
                                "name": "pubData",
                                "type": "bytes",
                                "value": "0x010000000000000000000000000000000002a303fe4b530000675e0e6d555d0386385536211152a5f393d8d28c"
                            },
                            {
                                "name": "expirationBlock",
                                "type": "uint256",
                                "value": "16,407,199"
                            }
                        ],
                        "signature": "NewPriorityRequest(address,uint64,uint8,bytes,uint256)"
                    },
                    "id": 2,
                    "logData": "0x000000000000000000000000675e0e6d555d0386385536211152a5f393d8d28c00000000000000000000000000000000000000000000000000000000000b33ae000000000000000000000000000000000000000000000000000000000000000100000000000000000000000000000000000000000000000000000000000000a00000000000000000000000000000000000000000000000000000000000fa5a9f000000000000000000000000000000000000000000000000000000000000002d010000000000000000000000000000000002a303fe4b530000675e0e6d555d0386385536211152a5f393d8d28c00000000000000000000000000000000000000",
                    "logDecoded": true,
                    "operation": "EVENT",
                    "revert": false,
                    "status": true,
                    "topics": [
                        "0xd0943372c08b438a88d4b39d77216901079eda9ca59d45349841c099083b6830"
                    ]
                },
                "nodeType": 1
            },
            "3": {
                "event": {
                    "contract": "0xabea9132b05a70803a4e85094fd0e1800777fbef",
                    "decodedLog": {
                        "name": "Deposit",
                        "params": [
                            {
                                "name": "tokenId",
                                "type": "uint16",
                                "value": "0"
                            },
                            {
                                "name": "amount",
                                "type": "uint128",
                                "value": "190,000,000,000,000,000"
                            }
                        ],
                        "signature": "Deposit(uint16,uint128)"
                    },
                    "id": 3,
                    "logData": "0x00000000000000000000000000000000000000000000000002a303fe4b530000",
                    "logDecoded": true,
                    "operation": "EVENT",
                    "revert": false,
                    "status": true,
                    "topics": [
                        "0x8f5f51448394699ad6a3b80cdadf4ec68c5d724c8c3fea09bea55b3c2d0e2dd0",
                        "0x0000000000000000000000000000000000000000000000000000000000000000"
                    ]
                },
                "nodeType": 1
            }
        },
        "gasFlame": [
            {
                "children": [
                    {
                        "children": [
                            {
                                "children": [],
                                "depth": 0,
                                "name": "Initial Gas",
                                "value": 21432
                            },
                            {
                                "children": [
                                    {
                                        "children": [],
                                        "depth": 1,
                                        "name": "depositETH",
                                        "value": 36151
                                    }
                                ],
                                "depth": 0,
                                "name": "Executed Gas",
                                "value": 41186
                            }
                        ],
                        "depth": -1,
                        "name": "Actual Gas Used",
                        "value": 62618
                    },
                    {
                        "children": [],
                        "depth": -1,
                        "name": "Refunded Gas",
                        "value": 0
                    }
                ],
                "depth": -2,
                "name": "Total Gas",
                "value": 62618
            }
        ],
        "isConfirmed": true,
        "mainTrace": [
            {
                "children": [
                    {
                        "children": [
                            {
                                "children": [
                                    {
                                        "children": [],
                                        "depth": 2,
                                        "id": 2,
                                        "order": 2
                                    },
                                    {
                                        "children": [],
                                        "depth": 2,
                                        "id": 3,
                                        "order": 3
                                    }
                                ],
                                "depth": 1,
                                "id": 1,
                                "order": 1
                            }
                        ],
                        "depth": 0,
                        "id": 0,
                        "order": 0
                    }
                ],
                "depth": -1,
                "id": -1,
                "order": -1
            }
        ],
        "mainTraceNodeCount": 4,
        "parentIdMap": {
            "0": -1,
            "1": 0,
            "2": 1,
            "3": 1
        },
        "tidyTrace": [
            {
                "children": [
                    {
                        "children": [
                            {
                                "children": [
                                    {
                                        "children": [],
                                        "depth": 2,
                                        "id": 2,
                                        "order": 2
                                    },
                                    {
                                        "children": [],
                                        "depth": 2,
                                        "id": 3,
                                        "order": 3
                                    }
                                ],
                                "depth": 1,
                                "id": 1,
                                "order": 1
                            }
                        ],
                        "depth": 0,
                        "id": 0,
                        "order": 0
                    }
                ],
                "depth": -1,
                "id": -1,
                "order": -1
            }
        ],
        "tidyTraceNodeCount": 4
    },
    "state_change": {
        "stateChanges": [
            {
                "address": "0xabea9132b05a70803a4e85094fd0e1800777fbef",
                "erc": "",
                "slots": [
                    {
                        "current": "0x000000010000000000fa5a9f93a86999e2c20b04f8b3290a43a279f679132f8c",
                        "key": "0x9ba6d2ca62d3103e6a3066bb556640aafe973028c8817fc426f08ea7ce50bfe5",
                        "prev": "0x0000000000000000000000000000000000000000000000000000000000000000"
                    },
                    {
                        "current": "0x00000000000000000000000000000020000000000000003000000000000b337f",
                        "key": "0x000000000000000000000000000000000000000000000000000000000000000c",
                        "prev": "0x00000000000000000000000000000020000000000000002f00000000000b337f"
                    }
                ],
                "storageVariables": [
                    {
                        "name": "priorityRequests",
                        "type": "mapping(uint64 => struct Storage.PriorityOperation)",
                        "value": {
                            "pairs": [
                                {
                                    "key": "734126",
                                    "value": {
                                        "fields": [
                                            {
                                                "name": "hashedPubData",
                                                "type": "bytes20",
                                                "value": {
                                                    "current": "0x93a86999e2c20b04f8b3290a43a279f679132f8c",
                                                    "prev": "0x0000000000000000000000000000000000000000",
                                                    "typeTag": 1
                                                }
                                            },
                                            {
                                                "name": "expirationBlock",
                                                "type": "uint64",
                                                "value": {
                                                    "current": "16407199",
                                                    "prev": "0",
                                                    "typeTag": 1
                                                }
                                            },
                                            {
                                                "name": "opType",
                                                "type": "enum Operations.OpType",
                                                "value": {
                                                    "current": "1",
                                                    "prev": "0",
                                                    "typeTag": 1
                                                }
                                            }
                                        ],
                                        "typeTag": 3
                                    }
                                }
                            ],
                            "typeTag": 4
                        }
                    },
                    {
                        "name": "firstPriorityRequestId",
                        "type": "uint64",
                        "value": {
                            "current": "734079",
                            "prev": "734079",
                            "typeTag": 1
                        }
                    },
                    {
                        "name": "totalOpenPriorityRequests",
                        "type": "uint64",
                        "value": {
                            "current": "48",
                            "prev": "47",
                            "typeTag": 1
                        }
                    },
                    {
                        "name": "totalCommittedPriorityRequests",
                        "type": "uint64",
                        "value": {
                            "current": "32",
                            "prev": "32",
                            "typeTag": 1
                        }
                    }
                ]
            }
        ]
    }
}