{
    "balance_change": {
        "balanceChanges": [
            {
                "account": "0xbbde9f0c24b6f59d7e828bb4e129992be0cdc237",
                "assets": [
                    {
                        "address": "0xeeeeeeeeeeeeeeeeeeeeeeeeeeeeeeeeeeeeeeee",
                        "amount": "0.000000000020151583",
                        "iconUrl": "https://assets.blocksec.com/image/1663669189317-3.png",
                        "isERC1155": false,
                        "isERC721": false,
                        "sign": false,
                        "value": "0.000000070838511097514104123"
                    }
                ]
            },
            {
                "account": "0x9def7cde171841a9f0724124ca0b01a622d749e4",
                "assets": [
                    {
                        "address": "0xeeeeeeeeeeeeeeeeeeeeeeeeeeeeeeeeeeeeeeee",
                        "amount": "0.000000000020151583",
                        "iconUrl": "https://assets.blocksec.com/image/1663669189317-3.png",
                        "isERC1155": false,
                        "isERC721": false,
                        "sign": true,
                        "value": "0.000000070838511097514104123"
                    },
                    {
                        "address": "0xc02aaa39b223fe8d0a0e5c4f27ead9083c756cc2",
                        "amount": "0.525989516866113777",
                        "iconUrl": "https://assets.blocksec.com/icon/f1cb2d02c471d545bbc7722daf3277fd852d98e63d118771af7047bd8256c516.png",
                        "isERC1155": false,
                        "isERC721": false,
                        "sign": true,
                        "value": "1849.0018491399277375"
                    },
                    {
                        "address": "0xd533a949740bb3306d119cc777fa900ba034cd52",
                        "amount": "5,451.966273925277398146",
                        "iconUrl": "",
                        "isERC1155": false,
                        "isERC721": false,
                        "sign": false,
                        "value": "1849.8521567681999481"
                    }
                ]
            },
            {
                "account": "0x919fa96e88d67499339577fa202345436bcdaf79",
                "assets": [
                    {
                        "address": "0xc02aaa39b223fe8d0a0e5c4f27ead9083c756cc2",
                        "amount": "0.525989516866113777",
                        "iconUrl": "https://assets.blocksec.com/icon/f1cb2d02c471d545bbc7722daf3277fd852d98e63d118771af7047bd8256c516.png",
                        "isERC1155": false,
                        "isERC721": false,
                        "sign": false,
                        "value": "1849.0018491399277375"
                    },
                    {
                        "address": "0xd533a949740bb3306d119cc777fa900ba034cd52",
                        "amount": "5,451.966273925277398146",
                        "iconUrl": "",
                        "isERC1155": false,
                        "isERC721": false,
                        "sign": true,
                        "value": "1849.8521567681999481"
                    }
                ]
            }
        ]
    },
    "profile": {
        "basic_info": {
            "baseFee": "1.686549111",
            "blockNumber": 20151583,
            "callData": "0xa0000000000000000000000000000000919fa96e88d67499339577fa202345436bcdaf7900000000000000000000000000000000000000000000000000000000000000000000000000000000000000000000000000000000000001278d3b2861362db482000000000000000000000000000000000000000000000000074cb0adc46250f1000000000000000000000000d533a949740bb3306d119cc777fa900ba034cd52",
            "debugEnable": true,
            "errorInfo": "",
            "eventCount": 3,
            "feeRecipient": "0x95222290dd7278aa3ddd389cc1e1d165cc4bafe5",
            "formatValue": "0.000000000020151583",
            "gasLimit": 400000,
            "gasPrice": "2.152456606",
            "gasUsed": 111146,
            "intTxnCount": 6,
            "internalRevert": false,
            "internalRevertMessage": "",
            "isContractCreation": false,
            "isFlashloan": false,
            "maxFee": "2.152456606",
            "nonce": 11361,
            "overwritedBlockNumber": -1,
            "priorityFee": "0.465907495",
            "receiver": "0x9def7cde171841a9f0724124ca0b01a622d749e4",
            "revertMessage": "",
            "sender": "0xbbde9f0c24b6f59d7e828bb4e129992be0cdc237",
            "simulationEnable": true,
            "sourceTxnHash": "0x481fa2bd9f44ce9a959ce2ccac805d80d08dad83845c2ace008d108df2d2cfeb",
            "status": true,
            "timestamp": "2024-06-23T03:01:47Z",
            "transactionFee": "0.000239236941930476",
            "txnHash": "0x481fa2bd9f44ce9a959ce2ccac805d80d08dad83845c2ace008d108df2d2cfeb",
            "txnIndex": 11,
            "type": 2,
            "value": "20151583"
        },
        "fund_flow": [
            {
                "amount": "0.000000000020151583",
                "from": "0xbbde9f0c24b6f59d7e828bb4e129992be0cdc237",
                "id": 1,
                "isERC1155": false,
                "isERC721": false,
                "isReverted": false,
                "order": 1,
                "to": "0x9def7cde171841a9f0724124ca0b01a622d749e4",
                "token": "0xeeeeeeeeeeeeeeeeeeeeeeeeeeeeeeeeeeeeeeee"
            },
            {
                "amount": "0.525989516866113777",
                "from": "0x919fa96e88d67499339577fa202345436bcdaf79",
                "id": 2,
                "isERC1155": false,
                "isERC721": false,
                "isReverted": false,
                "order": 2,
                "to": "0x9def7cde171841a9f0724124ca0b01a622d749e4",
                "token": "0xc02aaa39b223fe8d0a0e5c4f27ead9083c756cc2"
            },
            {
                "amount": "5,451.966273925277398146",
                "from": "0x9def7cde171841a9f0724124ca0b01a622d749e4",
                "id": 3,
                "isERC1155": false,
                "isERC721": false,
                "isReverted": false,
                "order": 3,
                "to": "0x919fa96e88d67499339577fa202345436bcdaf79",
                "token": "0xd533a949740bb3306d119cc777fa900ba034cd52"
            }
        ],
        "token_infos": [
            {
                "address": "0xc02aaa39b223fe8d0a0e5c4f27ead9083c756cc2",
                "decimals": 18
            },
            {
                "address": "0xd533a949740bb3306d119cc777fa900ba034cd52",
                "decimals": 18
            },
            {
                "address": "0xeeeeeeeeeeeeeeeeeeeeeeeeeeeeeeeeeeeeeeee",
                "decimals": 18
            }
        ]
    },
    "address_label": {
        "labels": [
            {
                "address": "0x0000000000000000000000000000000000000001",
                "label": "Precompiled"
            },
            {
                "address": "0x0000000000000000000000000000000000000002",
                "label": "Precompiled"
            },
            {
                "address": "0x0000000000000000000000000000000000000003",
                "label": "Precompiled"
            },
            {
                "address": "0x0000000000000000000000000000000000000004",
                "label": "Precompiled"
            },
            {
                "address": "0xeeeeeeeeeeeeeeeeeeeeeeeeeeeeeeeeeeeeeeee",
                "label": "Ether"
            },
            {
                "address": "0xc02aaa39b223fe8d0a0e5c4f27ead9083c756cc2",
                "label": "Wrapped Ether (WETH)"
            },
            {
                "address": "0xd533a949740bb3306d119cc777fa900ba034cd52",
                "label": "Curve.fi: CRV Token"
            },
            {
                "address": "0x919fa96e88d67499339577fa202345436bcdaf79",
                "label": "Uniswap V3: CRV"
            }
        ]
    },
    "trace": {
        "accountLabels": null,
        "dataMap": {
            "-1": {
                "invocation": {
                    "address": "0xbbde9f0c24b6f59d7e828bb4e129992be0cdc237",
                    "callData": "",
                    "decodedMethod": null,
                    "errorInfo": "",
                    "fromAddress": "",
                    "gasUsed": 0,
                    "id": -1,
                    "methodDecoded": false,
                    "operation": "",
                    "output": "",
                    "revert": false,
                    "revertMessage": "",
                    "selector": "",
                    "status": false,
                    "value": ""
                },
                "nodeType": 0
            },
            "0": {
                "invocation": {
                    "address": "0x9def7cde171841a9f0724124ca0b01a622d749e4",
                    "callData": "0x000000000000000000000000919fa96e88d67499339577fa202345436bcdaf7900000000000000000000000000000000000000000000000000000000000000000000000000000000000000000000000000000000000001278d3b2861362db482000000000000000000000000000000000000000000000000074cb0adc46250f1000000000000000000000000d533a949740bb3306d119cc777fa900ba034cd52",
                    "decodedMethod": null,
                    "errorInfo": "",
                    "fromAddress": "0xbbde9f0c24b6f59d7e828bb4e129992be0cdc237",
                    "gasUsed": 111146,
                    "id": 0,
                    "methodDecoded": false,
                    "operation": "CALL",
                    "output": "",
                    "revert": false,
                    "revertMessage": "",
                    "selector": "0xa0000000",
                    "status": true,
                    "value": "0.000000000020151583"
                },
                "nodeType": 0
            },
            "1": {
                "invocation": {
                    "address": "0x919fa96e88d67499339577fa202345436bcdaf79",
                    "callData": "0x0000000000000000000000009def7cde171841a9f0724124ca0b01a622d749e400000000000000000000000000000000000000000000000000000000000000000000000000000000000000000000000000000000000001278d3b2861362db482000000000000000000000000fffd8963efd1fc6a506488495d951d5263988d2500000000000000000000000000000000000000000000000000000000000000a00000000000000000000000000000000000000000000000000000000000000040000000000000000000000000d533a949740bb3306d119cc777fa900ba034cd520000000000000000000000000000000000000000000000000000000000000000",
                    "decodedMethod": {
                        "callParams": [
                            {
                                "name": "recipient",
                                "type": "address",
                                "value": "0x9def7cde171841a9f0724124ca0b01a622d749e4"
                            },
                            {
                                "name": "zeroForOne",
                                "type": "bool",
                                "value": false
                            },
                            {
                                "name": "amountSpecified",
                                "type": "int256",
                                "value": "5,451,966,273,925,277,398,146"
                            },
                            {
                                "name": "sqrtPriceLimitX96",
                                "type": "uint160",
                                "value": "1,461,446,703,485,210,103,287,273,052,203,988,822,378,723,970,341"
                            },
                            {
                                "name": "data",
                                "type": "bytes",
                                "value": "0x000000000000000000000000d533a949740bb3306d119cc777fa900ba034cd520000000000000000000000000000000000000000000000000000000000000000"
                            }
                        ],
                        "constructorArguments": "",
                        "name": "swap",
                        "returnParams": [
                            {
                                "name": "amount0",
                                "type": "int256",
                                "value": "-525,989,516,866,113,777"
                            },
                            {
                                "name": "amount1",
                                "type": "int256",
                                "value": "5,451,966,273,925,277,398,146"
                            }
                        ],
                        "signature": "swap(address,bool,int256,uint160,bytes)"
                    },
                    "errorInfo": "",
                    "fromAddress": "0x9def7cde171841a9f0724124ca0b01a622d749e4",
                    "gasUsed": 75230,
                    "id": 1,
                    "methodDecoded": true,
                    "operation": "CALL",
                    "output": "0xfffffffffffffffffffffffffffffffffffffffffffffffff8b34f523b9daf0f0000000000000000000000000000000000000000000001278d3b2861362db482",
                    "revert": false,
                    "revertMessage": "",
                    "selector": "0x128acb08",
                    "status": true,
                    "value": "0"
                },
                "nodeType": 0
            },
            "2": {
                "invocation": {
                    "address": "0xc02aaa39b223fe8d0a0e5c4f27ead9083c756cc2",
                    "callData": "0x0000000000000000000000009def7cde171841a9f0724124ca0b01a622d749e4000000000000000000000000000000000000000000000000074cb0adc46250f1",
                    "decodedMethod": {
                        "callParams": [
                            {
                                "name": "dst",
                                "type": "address",
                                "value": "0x9def7cde171841a9f0724124ca0b01a622d749e4"
                            },
                            {
                                "decimalAvailable": true,
                                "name": "wad",
                                "type": "uint256",
                                "value": "525,989,516,866,113,777"
                            }
                        ],
                        "constructorArguments": "",
                        "name": "transfer",
                        "returnParams": [
                            {
                                "name": "",
                                "type": "bool",
                                "value": true
                            }
                        ],
                        "signature": "transfer(address,uint256)"
                    },
                    "errorInfo": "",
                    "fromAddress": "0x919fa96e88d67499339577fa202345436bcdaf79",
                    "gasUsed": 12862,
                    "id": 2,
                    "methodDecoded": true,
                    "operation": "CALL",
                    "output": "0x0000000000000000000000000000000000000000000000000000000000000001",
                    "revert": false,
                    "revertMessage": "",
                    "selector": "0xa9059cbb",
                    "status": true,
                    "value": "0"
                },
                "nodeType": 0
            },
            "3": {
                "event": {
                    "contract": "0xc02aaa39b223fe8d0a0e5c4f27ead9083c756cc2",
                    "decodedLog": {
                        "name": "Transfer",
                        "params": [
                            {
                                "name": "src",
                                "type": "address",
                                "value": "0x919fa96e88d67499339577fa202345436bcdaf79"
                            },
                            {
                                "name": "dst",
                                "type": "address",
                                "value": "0x9def7cde171841a9f0724124ca0b01a622d749e4"
                            },
                            {
                                "decimalAvailable": true,
                                "name": "wad",
                                "type": "uint256",
                                "value": "525,989,516,866,113,777"
                            }
                        ],
                        "signature": "Transfer(address,address,uint256)"
                    },
                    "id": 3,
                    "logData": "0x000000000000000000000000000000000000000000000000074cb0adc46250f1",
                    "logDecoded": true,
                    "operation": "EVENT",
                    "revert": false,
                    "status": true,
                    "topics": [
                        "0xddf252ad1be2c89b69c2b068fc378daa952ba7f163c4a11628f55a4df523b3ef",
                        "0x000000000000000000000000919fa96e88d67499339577fa202345436bcdaf79",
                        "0x0000000000000000000000009def7cde171841a9f0724124ca0b01a622d749e4"
                    ]
                },
                "nodeType": 1
            },
            "4": {
                "invocation": {
                    "address": "0xd533a949740bb3306d119cc777fa900ba034cd52",
                    "callData": "0x000000000000000000000000919fa96e88d67499339577fa202345436bcdaf79",
                    "decodedMethod": {
                        "callParams": [
                            {
                                "name": "account",
                                "type": "address",
                                "value": "0x919fa96e88d67499339577fa202345436bcdaf79"
                            }
                        ],
                        "constructorArguments": "",
                        "name": "balanceOf",
                        "returnParams": [
                            {
                                "decimalAvailable": true,
                                "name": "",
                                "type": "uint256",
                                "value": "2,726,756,826,761,569,644,136,487"
                            }
                        ],
                        "signature": "balanceOf(address)"
                    },
                    "errorInfo": "",
                    "fromAddress": "0x919fa96e88d67499339577fa202345436bcdaf79",
                    "gasUsed": 2930,
                    "id": 4,
                    "methodDecoded": true,
                    "operation": "STATICCALL",
                    "output": "0x000000000000000000000000000000000000000000024169c8a532cf57a54827",
                    "revert": false,
                    "revertMessage": "",
                    "selector": "0x70a08231",
                    "status": true,
                    "value": "0"
                },
                "nodeType": 0
            },
            "5": {
                "invocation": {
                    "address": "0x9def7cde171841a9f0724124ca0b01a622d749e4",
                    "callData": "0xfffffffffffffffffffffffffffffffffffffffffffffffff8b34f523b9daf0f0000000000000000000000000000000000000000000001278d3b2861362db48200000000000000000000000000000000000000000000000000000000000000600000000000000000000000000000000000000000000000000000000000000040000000000000000000000000d533a949740bb3306d119cc777fa900ba034cd520000000000000000000000000000000000000000000000000000000000000000",
                    "decodedMethod": {
                        "callParams": [
                            {
                                "name": "amount0Delta",
                                "type": "int256",
                                "value": "-525,989,516,866,113,777"
                            },
                            {
                                "name": "amount1Delta",
                                "type": "int256",
                                "value": "5,451,966,273,925,277,398,146"
                            },
                            {
                                "name": "data",
                                "type": "bytes",
                                "value": "0x000000000000000000000000d533a949740bb3306d119cc777fa900ba034cd520000000000000000000000000000000000000000000000000000000000000000"
                            }
                        ],
                        "constructorArguments": "",
                        "name": "uniswapV3SwapCallback",
                        "returnParams": [],
                        "signature": "uniswapV3SwapCallback(int256,int256,bytes)"
                    },
                    "errorInfo": "",
                    "fromAddress": "0x919fa96e88d67499339577fa202345436bcdaf79",
                    "gasUsed": 12458,
                    "id": 5,
                    "methodDecoded": true,
                    "operation": "CALL",
                    "output": "",
                    "revert": false,
                    "revertMessage": "",
                    "selector": "0xfa461e33",
                    "status": true,
                    "value": "0"
                },
                "nodeType": 0
            },
            "6": {
                "invocation": {
                    "address": "0xd533a949740bb3306d119cc777fa900ba034cd52",
                    "callData": "0x000000000000000000000000919fa96e88d67499339577fa202345436bcdaf790000000000000000000000000000000000000000000001278d3b2861362db482",
                    "decodedMethod": {
                        "callParams": [
                            {
                                "name": "recipient",
                                "type": "address",
                                "value": "0x919fa96e88d67499339577fa202345436bcdaf79"
                            },
                            {
                                "decimalAvailable": true,
                                "name": "amount",
                                "type": "uint256",
                                "value": "5,451,966,273,925,277,398,146"
                            }
                        ],
                        "constructorArguments": "",
                        "name": "transfer",
                        "returnParams": [
                            {
                                "name": "",
                                "type": "bool",
                                "value": true
                            }
                        ],
                        "signature": "transfer(address,uint256)"
                    },
                    "errorInfo": "",
                    "fromAddress": "0x9def7cde171841a9f0724124ca0b01a622d749e4",
                    "gasUsed": 10581,
                    "id": 6,
                    "methodDecoded": true,
                    "operation": "CALL",
                    "output": "0x0000000000000000000000000000000000000000000000000000000000000001",
                    "revert": false,
                    "revertMessage": "",
                    "selector": "0xa9059cbb",
                    "status": true,
                    "value": "0"
                },
                "nodeType": 0
            },
            "7": {
                "event": {
                    "contract": "0xd533a949740bb3306d119cc777fa900ba034cd52",
                    "decodedLog": {
                        "name": "Transfer",
                        "params": [
                            {
                                "name": "from",
                                "type": "address",
                                "value": "0x9def7cde171841a9f0724124ca0b01a622d749e4"
                            },
                            {
                                "name": "to",
                                "type": "address",
                                "value": "0x919fa96e88d67499339577fa202345436bcdaf79"
                            },
                            {
                                "decimalAvailable": true,
                                "name": "value",
                                "type": "uint256",
                                "value": "5,451,966,273,925,277,398,146"
                            }
                        ],
                        "signature": "Transfer(address,address,uint256)"
                    },
                    "id": 7,
                    "logData": "0x0000000000000000000000000000000000000000000001278d3b2861362db482",
                    "logDecoded": true,
                    "operation": "EVENT",
                    "revert": false,
                    "status": true,
                    "topics": [
                        "0xddf252ad1be2c89b69c2b068fc378daa952ba7f163c4a11628f55a4df523b3ef",
                        "0x0000000000000000000000009def7cde171841a9f0724124ca0b01a622d749e4",
                        "0x000000000000000000000000919fa96e88d67499339577fa202345436bcdaf79"
                    ]
                },
                "nodeType": 1
            },
            "8": {
                "invocation": {
                    "address": "0xd533a949740bb3306d119cc777fa900ba034cd52",
                    "callData": "0x000000000000000000000000919fa96e88d67499339577fa202345436bcdaf79",
                    "decodedMethod": {
                        "callParams": [
                            {
                                "name": "account",
                                "type": "address",
                                "value": "0x919fa96e88d67499339577fa202345436bcdaf79"
                            }
                        ],
                        "constructorArguments": "",
                        "name": "balanceOf",
                        "returnParams": [
                            {
                                "decimalAvailable": true,
                                "name": "",
                                "type": "uint256",
                                "value": "2,732,208,793,035,494,921,534,633"
                            }
                        ],
                        "signature": "balanceOf(address)"
                    },
                    "errorInfo": "",
                    "fromAddress": "0x919fa96e88d67499339577fa202345436bcdaf79",
                    "gasUsed": 930,
                    "id": 8,
                    "methodDecoded": true,
                    "operation": "STATICCALL",
                    "output": "0x00000000000000000000000000000000000000000002429155e05b308dd2fca9",
                    "revert": false,
                    "revertMessage": "",
                    "selector": "0x70a08231",
                    "status": true,
                    "value": "0"
                },
                "nodeType": 0
            },
            "9": {
                "event": {
                    "contract": "0x919fa96e88d67499339577fa202345436bcdaf79",
                    "decodedLog": {
                        "name": "Swap",
                        "params": [
                            {
                                "name": "sender",
                                "type": "address",
                                "value": "0x9def7cde171841a9f0724124ca0b01a622d749e4"
                            },
                            {
                                "name": "recipient",
                                "type": "address",
                                "value": "0x9def7cde171841a9f0724124ca0b01a622d749e4"
                            },
                            {
                                "name": "amount0",
                                "type": "int256",
                                "value": "-525,989,516,866,113,777"
                            },
                            {
                                "name": "amount1",
                                "type": "int256",
                                "value": "5,451,966,273,925,277,398,146"
                            },
                            {
                                "name": "sqrtPriceX96",
                                "type": "uint160",
                                "value": "8,056,159,195,328,686,667,028,497,060,645"
                            },
                            {
                                "name": "liquidity",
                                "type": "uint128",
                                "value": "102,896,653,107,090,422,057,521"
                            },
                            {
                                "name": "tick",
                                "type": "int24",
                                "value": "92,441"
                            }
                        ],
                        "signature": "Swap(address,address,int256,int256,uint160,uint128,int24)"
                    },
                    "id": 9,
                    "logData": "0xfffffffffffffffffffffffffffffffffffffffffffffffff8b34f523b9daf0f0000000000000000000000000000000000000000000001278d3b2861362db4820000000000000000000000000000000000000065aedab2b138c5c029038a53250000000000000000000000000000000000000000000015ca09eaff10cea54a310000000000000000000000000000000000000000000000000000000000016919",
                    "logDecoded": true,
                    "operation": "EVENT",
                    "revert": false,
                    "status": true,
                    "topics": [
                        "0xc42079f94a6350d7e6235f29174924f928cc2ac818eb64fed8004e115fbcca67",
                        "0x0000000000000000000000009def7cde171841a9f0724124ca0b01a622d749e4",
                        "0x0000000000000000000000009def7cde171841a9f0724124ca0b01a622d749e4"
                    ]
                },
                "nodeType": 1
            }
        },
        "gasFlame": [
            {
                "children": [
                    {
                        "children": [
                            {
                                "children": [],
                                "depth": 0,
                                "name": "Initial Gas",
                                "value": 22364
                            },
                            {
                                "children": [
                                    {
                                        "children": [
                                            {
                                                "children": [],
                                                "depth": 2,
                                                "name": "transfer",
                                                "value": 12862
                                            },
                                            {
                                                "children": [],
                                                "depth": 2,
                                                "name": "balanceOf",
                                                "value": 2930
                                            },
                                            {
                                                "children": [
                                                    {
                                                        "children": [],
                                                        "depth": 3,
                                                        "name": "transfer",
                                                        "value": 10581
                                                    }
                                                ],
                                                "depth": 2,
                                                "name": "uniswapV3SwapCallback",
                                                "value": 12458
                                            },
                                            {
                                                "children": [],
                                                "depth": 2,
                                                "name": "balanceOf",
                                                "value": 930
                                            }
                                        ],
                                        "depth": 1,
                                        "name": "swap",
                                        "value": 75230
                                    }
                                ],
                                "depth": 0,
                                "name": "Executed Gas",
                                "value": 111482
                            }
                        ],
                        "depth": -1,
                        "name": "Actual Gas Used",
                        "value": 111146
                    },
                    {
                        "children": [],
                        "depth": -1,
                        "name": "Refunded Gas",
                        "value": 22700
                    }
                ],
                "depth": -2,
                "name": "Total Gas",
                "value": 133846
            }
        ],
        "isConfirmed": true,
        "mainTrace": [
            {
                "children": [
                    {
                        "children": [
                            {
                                "children": [
                                    {
                                        "children": [
                                            {
                                                "children": [],
                                                "depth": 3,
                                                "id": 3,
                                                "order": 3
                                            }
                                        ],
                                        "depth": 2,
                                        "id": 2,
                                        "order": 2
                                    },
                                    {
                                        "children": [],
                                        "depth": 2,
                                        "id": 4,
                                        "order": 4
                                    },
                                    {
                                        "children": [
                                            {
                                                "children": [
                                                    {
                                                        "children": [],
                                                        "depth": 4,
                                                        "id": 7,
                                                        "order": 7
                                                    }
                                                ],
                                                "depth": 3,
                                                "id": 6,
                                                "order": 6
                                            }
                                        ],
                                        "depth": 2,
                                        "id": 5,
                                        "order": 5
                                    },
                                    {
                                        "children": [],
                                        "depth": 2,
                                        "id": 8,
                                        "order": 8
                                    },
                                    {
                                        "children": [],
                                        "depth": 2,
                                        "id": 9,
                                        "order": 9
                                    }
                                ],
                                "depth": 1,
                                "id": 1,
                                "order": 1
                            }
                        ],
                        "depth": 0,
                        "id": 0,
                        "order": 0
                    }
                ],
                "depth": -1,
                "id": -1,
                "order": -1
            }
        ],
        "mainTraceNodeCount": 10,
        "parentIdMap": {
            "0": -1,
            "1": 0,
            "2": 1,
            "3": 2,
            "4": 1,
            "5": 1,
            "6": 5,
            "7": 6,
            "8": 1,
            "9": 1
        },
        "tidyTrace": [
            {
                "children": [
                    {
                        "children": [
                            {
                                "children": [
                                    {
                                        "children": [
                                            {
                                                "children": [],
                                                "depth": 3,
                                                "id": 3,
                                                "order": 3
                                            }
                                        ],
                                        "depth": 2,
                                        "id": 2,
                                        "order": 2
                                    },
                                    {
                                        "children": [
                                            {
                                                "children": [
                                                    {
                                                        "children": [],
                                                        "depth": 4,
                                                        "id": 7,
                                                        "order": 7
                                                    }
                                                ],
                                                "depth": 3,
                                                "id": 6,
                                                "order": 6
                                            }
                                        ],
                                        "depth": 2,
                                        "id": 5,
                                        "order": 5
                                    },
                                    {
                                        "children": [],
                                        "depth": 2,
                                        "id": 9,
                                        "order": 9
                                    }
                                ],
                                "depth": 1,
                                "id": 1,
                                "order": 1
                            }
                        ],
                        "depth": 0,
                        "id": 0,
                        "order": 0
                    }
                ],
                "depth": -1,
                "id": -1,
                "order": -1
            }
        ],
        "tidyTraceNodeCount": 8
    },
    "state_change": {
        "stateChanges": [
            {
                "address": "0x919fa96e88d67499339577fa202345436bcdaf79",
                "erc": "",
                "slots": [
                    {
                        "current": "0x00010000b400b400690169190000000000000065aedab2b138c5c029038a5325",
                        "key": "0x0000000000000000000000000000000000000000000000000000000000000000",
                        "prev": "0x00010000b400b4006801690f0000000000000065a154b2d20815249ab82292b6"
                    },
                    {
                        "current": "0x0100000000000000000010a9244e550886838f1f350006d8ce0b37096677901b",
                        "key": "0x0000000000000000000000000000000000000000000000000000000000000071",
                        "prev": "0x0100000000000000000010a9190deabb5b01e87ef00006d772e1b1b1667699eb"
                    },
                    {
                        "current": "0x0000000000000000000000000000b346022b355bac5e5d14947dd7874e3d7327",
                        "key": "0x0000000000000000000000000000000000000000000000000000000000000002",
                        "prev": "0x0000000000000000000000000000b3460220ca8ac2d160fa37cd2e88aa52069e"
                    }
                ],
                "storageVariables": []
            },
            {
                "address": "0xc02aaa39b223fe8d0a0e5c4f27ead9083c756cc2",
                "erc": "ERC-20",
                "slots": [
                    {
                        "current": "0x000000000000000000000000000000000000000000000004cdd445c6db8afbda",
                        "key": "0x60802b93a9ac49b8c74d6ade12cf6235f4ac8c52c84fd39da757d0b2d720d76f",
                        "prev": "0x000000000000000000000000000000000000000000000004d520f6749fed4ccb"
                    },
                    {
                        "current": "0x000000000000000000000000000000000000000000000000e6b1ce498adeaba9",
                        "key": "0xbedcb5df52f588f61ff32320302f7849d95752554baca3aee643459d2813fab3",
                        "prev": "0x000000000000000000000000000000000000000000000000df651d9bc67c5ab8"
                    }
                ],
                "storageVariables": [
                    {
                        "name": "balanceOf",
                        "type": "mapping(address => uint256)",
                        "value": {
                            "pairs": [
                                {
                                    "key": "0x919fa96e88d67499339577fa202345436bcdaf79",
                                    "value": {
                                        "current": "88618532488065252314",
                                        "prev": "89144522004931366091",
                                        "typeTag": 1
                                    }
                                },
                                {
                                    "key": "0x9def7cde171841a9f0724124ca0b01a622d749e4",
                                    "value": {
                                        "current": "16623294514858994601",
                                        "prev": "16097304997992880824",
                                        "typeTag": 1
                                    }
                                }
                            ],
                            "typeTag": 4
                        }
                    }
                ]
            },
            {
                "address": "0xd533a949740bb3306d119cc777fa900ba034cd52",
                "erc": "",
                "slots": [
                    {
                        "current": "0x00000000000000000000000000000000000000000002429155e05b308dd2fca9",
                        "key": "0x7a7ff188ddb962db42160fb3fb573f4af0ebe1a1d6b701f1f1464b5ea43f7638",
                        "prev": "0x000000000000000000000000000000000000000000024169c8a532cf57a54827"
                    },
                    {
                        "current": "0x0000000000000000000000000000000000000000000007e7b3e695b3d169006d",
                        "key": "0x3d42b5c9607893a2f5e7f056da0558ff58505cfbec93818b0d432f62537466cb",
                        "prev": "0x00000000000000000000000000000000000000000000090f4121be150796b4ef"
                    }
                ],
                "storageVariables": []
            }
        ]
    }
}