{
    "balance_change": {
        "balanceChanges": []
    },
    "profile": {
        "basic_info": {
            "baseFee": "20.681649127",
            "blockNumber": 14973353,
            "callData": "0x1b932d220000000000000000000000000000000000000000000000000000000000000eda00000000000000000000000000000000000000000000000000000000000459830000000000000000000000000000000000000000000000000000000000000060000000000000000000000000000000000000000000000000000000000000004120acee17ba21d84253e4bebd65564fbd0f836e7de80b972faedff1d35607ae9f51d64b821e1de5bd73bc3fa42be80a54807a0fcda26fe67b010c0a53b48a9ee61b00000000000000000000000000000000000000000000000000000000000000",
            "debugEnable": true,
            "errorInfo": "",
            "eventCount": 1,
            "feeRecipient": "0x00192fb10df37c9fb26829eb2cc623cd1bf599e8",
            "formatValue": "0",
            "gasLimit": 54421,
            "gasPrice": "21.681649127",
            "gasUsed": 36281,
            "intTxnCount": 1,
            "internalRevert": false,
            "internalRevertMessage": "",
            "isContractCreation": false,
            "isFlashloan": false,
            "maxFee": "22",
            "nonce": 63,
            "overwritedBlockNumber": -1,
            "priorityFee": "1",
            "receiver": "0x1c69d6bee307e726ca1164b93dfea512bdaeba2a",
            "revertMessage": "",
            "sender": "0x1d2f151766322aaec7171c0a367ab689830ccfbc",
            "simulationEnable": true,
            "sourceTxnHash": "0x481587fcb9e27cc90e74da4bdaacddadb23ec1389dd1532e978f36f8c5e187c1",
            "status": true,
            "timestamp": "2022-06-16T12:36:07Z",
            "transactionFee": "0.000786631911976687",
            "txnHash": "0x481587fcb9e27cc90e74da4bdaacddadb23ec1389dd1532e978f36f8c5e187c1",
            "txnIndex": 199,
            "type": 2,
            "value": "0"
        },
        "fund_flow": [],
        "token_infos": [
            {
                "address": "0xc02aaa39b223fe8d0a0e5c4f27ead9083c756cc2",
                "decimals": 18
            },
            {
                "address": "0xeeeeeeeeeeeeeeeeeeeeeeeeeeeeeeeeeeeeeeee",
                "decimals": 18
            }
        ]
    },
    "address_label": {
        "labels": [
            {
                "address": "0xeeeeeeeeeeeeeeeeeeeeeeeeeeeeeeeeeeeeeeee",
                "label": "Ether"
            },
            {
                "address": "0x1c69d6bee307e726ca1164b93dfea512bdaeba2a",
                "label": "ERC1155"
            },
            {
                "address": "0x0000000000000000000000000000000000000001",
                "label": "Precompiled"
            },
            {
                "address": "0x0000000000000000000000000000000000000002",
                "label": "Precompiled"
            },
            {
                "address": "0x0000000000000000000000000000000000000003",
                "label": "Precompiled"
            },
            {
                "address": "0x0000000000000000000000000000000000000004",
                "label": "Precompiled"
            }
        ]
    },
    "trace": {
        "accountLabels": null,
        "dataMap": {
            "-1": {
                "invocation": {
                    "address": "0x1d2f151766322aaec7171c0a367ab689830ccfbc",
                    "callData": "",
                    "decodedMethod": null,
                    "errorInfo": "",
                    "fromAddress": "",
                    "gasUsed": 0,
                    "id": -1,
                    "methodDecoded": false,
                    "operation": "",
                    "output": "",
                    "revert": false,
                    "revertMessage": "",
                    "selector": "",
                    "status": false,
                    "value": ""
                },
                "nodeType": 0
            },
            "0": {
                "invocation": {
                    "address": "0x1c69d6bee307e726ca1164b93dfea512bdaeba2a",
                    "callData": "0x0000000000000000000000000000000000000000000000000000000000000eda00000000000000000000000000000000000000000000000000000000000459830000000000000000000000000000000000000000000000000000000000000060000000000000000000000000000000000000000000000000000000000000004120acee17ba21d84253e4bebd65564fbd0f836e7de80b972faedff1d35607ae9f51d64b821e1de5bd73bc3fa42be80a54807a0fcda26fe67b010c0a53b48a9ee61b00000000000000000000000000000000000000000000000000000000000000",
                    "decodedMethod": null,
                    "errorInfo": "",
                    "fromAddress": "0x1d2f151766322aaec7171c0a367ab689830ccfbc",
                    "gasUsed": 36281,
                    "id": 0,
                    "methodDecoded": false,
                    "operation": "CALL",
                    "output": "",
                    "revert": false,
                    "revertMessage": "",
                    "selector": "0x1b932d22",
                    "status": true,
                    "value": "0"
                },
                "nodeType": 0
            },
            "1": {
                "invocation": {
                    "address": "0x0000000000000000000000000000000000000001",
                    "callData": "0x050a251f432be2618e567be5e7008284746fd72144a49dff7396425e000000000000000000000000000000000000000000000000000000000000001b20acee17ba21d84253e4bebd65564fbd0f836e7de80b972faedff1d35607ae9f51d64b821e1de5bd73bc3fa42be80a54807a0fcda26fe67b010c0a53b48a9ee6",
                    "decodedMethod": {
                        "callParams": [
                            {
                                "name": "hash",
                                "type": "bytes32",
                                "value": "0x884fcc88050a251f432be2618e567be5e7008284746fd72144a49dff7396425e"
                            },
                            {
                                "name": "v",
                                "type": "uint256",
                                "value": "27"
                            },
                            {
                                "name": "r",
                                "type": "bytes32",
                                "value": "0x20acee17ba21d84253e4bebd65564fbd0f836e7de80b972faedff1d35607ae9f"
                            },
                            {
                                "name": "s",
                                "type": "bytes32",
                                "value": "0x51d64b821e1de5bd73bc3fa42be80a54807a0fcda26fe67b010c0a53b48a9ee6"
                            }
                        ],
                        "constructorArguments": "",
                        "name": "ecrecover",
                        "returnParams": [
                            {
                                "name": "",
                                "type": "address",
                                "value": "0x111ae6fe1ad173def8dc36e9dff5144c713f2880"
                            }
                        ],
                        "signature": "ecrecover(bytes32,uint256,bytes32,bytes32)"
                    },
                    "errorInfo": "",
                    "fromAddress": "0x1c69d6bee307e726ca1164b93dfea512bdaeba2a",
                    "gasUsed": 3000,
                    "id": 1,
                    "methodDecoded": true,
                    "operation": "STATICCALL",
                    "output": "0x000000000000000000000000111ae6fe1ad173def8dc36e9dff5144c713f2880",
                    "revert": false,
                    "revertMessage": "",
                    "selector": "0x884fcc88",
                    "status": true,
                    "value": "0"
                },
                "nodeType": 0
            },
            "2": {
                "event": {
                    "contract": "0x1c69d6bee307e726ca1164b93dfea512bdaeba2a",
                    "decodedLog": null,
                    "id": 2,
                    "logData": "0x0000000000000000000000000000000000000000000000000000000000000eda0000000000000000000000000000000000000000000000000000000000045983",
                    "logDecoded": false,
                    "operation": "EVENT",
                    "revert": false,
                    "status": true,
                    "topics": [
                        "0x9e9ce73e34f9a468728a42704546c9c0f44124201f72513027d9029595353c04"
                    ]
                },
                "nodeType": 1
            }
        },
        "gasFlame": [
            {
                "children": [
                    {
                        "children": [
                            {
                                "children": [],
                                "depth": 0,
                                "name": "Initial Gas",
                                "value": 22824
                            },
                            {
                                "children": [
                                    {
                                        "children": [],
                                        "depth": 1,
                                        "name": "ecrecover",
                                        "value": 3000
                                    }
                                ],
                                "depth": 0,
                                "name": "Executed Gas",
                                "value": 13457
                            }
                        ],
                        "depth": -1,
                        "name": "Actual Gas Used",
                        "value": 36281
                    },
                    {
                        "children": [],
                        "depth": -1,
                        "name": "Refunded Gas",
                        "value": 0
                    }
                ],
                "depth": -2,
                "name": "Total Gas",
                "value": 36281
            }
        ],
        "isConfirmed": true,
        "mainTrace": [
            {
                "children": [
                    {
                        "children": [
                            {
                                "children": [],
                                "depth": 1,
                                "id": 1,
                                "order": 1
                            },
                            {
                                "children": [],
                                "depth": 1,
                                "id": 2,
                                "order": 2
                            }
                        ],
                        "depth": 0,
                        "id": 0,
                        "order": 0
                    }
                ],
                "depth": -1,
                "id": -1,
                "order": -1
            }
        ],
        "mainTraceNodeCount": 3,
        "parentIdMap": {
            "0": -1,
            "1": 0,
            "2": 0
        },
        "tidyTrace": [
            {
                "children": [
                    {
                        "children": [
                            {
                                "children": [],
                                "depth": 1,
                                "id": 2,
                                "order": 2
                            }
                        ],
                        "depth": 0,
                        "id": 0,
                        "order": 0
                    }
                ],
                "depth": -1,
                "id": -1,
                "order": -1
            }
        ],
        "tidyTraceNodeCount": 2
    },
    "state_change": {
        "stateChanges": [
            {
                "address": "0x1c69d6bee307e726ca1164b93dfea512bdaeba2a",
                "erc": "",
                "slots": [
                    {
                        "current": "0x0000000000000000000000000000000000000000000000000000000000045983",
                        "key": "0x336560b249f3e771780fe999a55caf2c4acb7ff960900267298cd315d69b1257",
                        "prev": "0x000000000000000000000000000000000000000000000000000000000001d4eb"
                    }
                ],
                "storageVariables": []
            }
        ]
    }
}