{
    "balance_change": {
        "balanceChanges": [
            {
                "account": "0x0d0707963952f2fba59dd06f2b425ace40b492fe",
                "assets": [
                    {
                        "address": "0xe25bcec5d3801ce3a794079bf94adf1b8ccd802d",
                        "amount": "49,990",
                        "iconUrl": "https://assets.blocksec.com/icon/b37600c89169ae1ff9cdc59e01e9a5cebb010984b8581e099133b48da8c5a8bd.png",
                        "isERC1155": false,
                        "isERC721": false,
                        "sign": false,
                        "value": ""
                    }
                ]
            },
            {
                "account": "0xc298db27c42c31b7bccd987a8625d1f10a674922",
                "assets": [
                    {
                        "address": "0xe25bcec5d3801ce3a794079bf94adf1b8ccd802d",
                        "amount": "49,990",
                        "iconUrl": "https://assets.blocksec.com/icon/b37600c89169ae1ff9cdc59e01e9a5cebb010984b8581e099133b48da8c5a8bd.png",
                        "isERC1155": false,
                        "isERC721": false,
                        "sign": true,
                        "value": ""
                    }
                ]
            }
        ]
    },
    "profile": {
        "basic_info": {
            "baseFee": "",
            "blockNumber": 5765701,
            "callData": "0xa9059cbb000000000000000000000000c298db27c42c31b7bccd987a8625d1f10a674922000000000000000000000000000000000000000000000a95f69ccda0f1580000",
            "debugEnable": true,
            "errorInfo": "",
            "eventCount": 1,
            "feeRecipient": "0x829bd824b016326a401d083b33d092293333a830",
            "formatValue": "0",
            "gasLimit": 200000,
            "gasPrice": "11",
            "gasUsed": 38361,
            "intTxnCount": 0,
            "internalRevert": false,
            "internalRevertMessage": "",
            "isContractCreation": false,
            "isFlashloan": false,
            "maxFee": "",
            "nonce": 324425,
            "overwritedBlockNumber": -1,
            "priorityFee": "",
            "receiver": "0xe25bcec5d3801ce3a794079bf94adf1b8ccd802d",
            "revertMessage": "",
            "sender": "0x0d0707963952f2fba59dd06f2b425ace40b492fe",
            "simulationEnable": true,
            "sourceTxnHash": "0x49a275d4c5a3af33a1f339915051544741c7b74d10f0002f7511f6ab0a5f2140",
            "status": true,
            "timestamp": "2018-06-10T17:11:51Z",
            "transactionFee": "0.000421971",
            "txnHash": "0x49a275d4c5a3af33a1f339915051544741c7b74d10f0002f7511f6ab0a5f2140",
            "txnIndex": 129,
            "type": 0,
            "value": "0"
        },
        "fund_flow": [
            {
                "amount": "49,990",
                "from": "0x0d0707963952f2fba59dd06f2b425ace40b492fe",
                "id": 1,
                "isERC1155": false,
                "isERC721": false,
                "isReverted": false,
                "order": 1,
                "to": "0xc298db27c42c31b7bccd987a8625d1f10a674922",
                "token": "0xe25bcec5d3801ce3a794079bf94adf1b8ccd802d"
            }
        ],
        "token_infos": [
            {
                "address": "0xc02aaa39b223fe8d0a0e5c4f27ead9083c756cc2",
                "decimals": 18
            },
            {
                "address": "0xe25bcec5d3801ce3a794079bf94adf1b8ccd802d",
                "decimals": 18
            },
            {
                "address": "0xeeeeeeeeeeeeeeeeeeeeeeeeeeeeeeeeeeeeeeee",
                "decimals": 18
            }
        ]
    },
    "address_label": {
        "labels": [
            {
                "address": "0xeeeeeeeeeeeeeeeeeeeeeeeeeeeeeeeeeeeeeeee",
                "label": "Ether"
            },
            {
                "address": "0x0d0707963952f2fba59dd06f2b425ace40b492fe",
                "label": "Gate.io"
            },
            {
                "address": "0xe25bcec5d3801ce3a794079bf94adf1b8ccd802d",
                "label": "MATRIX AI Network: Old Token"
            },
            {
                "address": "0x0000000000000000000000000000000000000001",
                "label": "Precompiled"
            },
            {
                "address": "0x0000000000000000000000000000000000000002",
                "label": "Precompiled"
            },
            {
                "address": "0x0000000000000000000000000000000000000003",
                "label": "Precompiled"
            },
            {
                "address": "0x0000000000000000000000000000000000000004",
                "label": "Precompiled"
            }
        ]
    },
    "trace": {
        "accountLabels": null,
        "dataMap": {
            "-1": {
                "invocation": {
                    "address": "0x0d0707963952f2fba59dd06f2b425ace40b492fe",
                    "callData": "",
                    "decodedMethod": null,
                    "errorInfo": "",
                    "fromAddress": "",
                    "gasUsed": 0,
                    "id": -1,
                    "methodDecoded": false,
                    "operation": "",
                    "output": "",
                    "revert": false,
                    "revertMessage": "",
                    "selector": "",
                    "status": false,
                    "value": ""
                },
                "nodeType": 0
            },
            "0": {
                "invocation": {
                    "address": "0xe25bcec5d3801ce3a794079bf94adf1b8ccd802d",
                    "callData": "0x000000000000000000000000c298db27c42c31b7bccd987a8625d1f10a674922000000000000000000000000000000000000000000000a95f69ccda0f1580000",
                    "decodedMethod": {
                        "callParams": [
                            {
                                "name": "_to",
                                "type": "address",
                                "value": "0xc298db27c42c31b7bccd987a8625d1f10a674922"
                            },
                            {
                                "decimalAvailable": true,
                                "name": "_value",
                                "type": "uint256",
                                "value": "49,990,000,000,000,000,000,000"
                            }
                        ],
                        "constructorArguments": "",
                        "name": "transfer",
                        "returnParams": [],
                        "signature": "transfer(address,uint256)"
                    },
                    "errorInfo": "",
                    "fromAddress": "0x0d0707963952f2fba59dd06f2b425ace40b492fe",
                    "gasUsed": 38361,
                    "id": 0,
                    "methodDecoded": true,
                    "operation": "CALL",
                    "output": "",
                    "revert": false,
                    "revertMessage": "",
                    "selector": "0xa9059cbb",
                    "status": true,
                    "value": "0"
                },
                "nodeType": 0
            },
            "1": {
                "event": {
                    "contract": "0xe25bcec5d3801ce3a794079bf94adf1b8ccd802d",
                    "decodedLog": {
                        "name": "Transfer",
                        "params": [
                            {
                                "name": "from",
                                "type": "address",
                                "value": "0x0d0707963952f2fba59dd06f2b425ace40b492fe"
                            },
                            {
                                "name": "to",
                                "type": "address",
                                "value": "0xc298db27c42c31b7bccd987a8625d1f10a674922"
                            },
                            {
                                "decimalAvailable": true,
                                "name": "value",
                                "type": "uint256",
                                "value": "49,990,000,000,000,000,000,000"
                            }
                        ],
                        "signature": "Transfer(address,address,uint256)"
                    },
                    "id": 1,
                    "logData": "0x000000000000000000000000000000000000000000000a95f69ccda0f1580000",
                    "logDecoded": true,
                    "operation": "EVENT",
                    "revert": false,
                    "status": true,
                    "topics": [
                        "0xddf252ad1be2c89b69c2b068fc378daa952ba7f163c4a11628f55a4df523b3ef",
                        "0x0000000000000000000000000d0707963952f2fba59dd06f2b425ace40b492fe",
                        "0x000000000000000000000000c298db27c42c31b7bccd987a8625d1f10a674922"
                    ]
                },
                "nodeType": 1
            }
        },
        "gasFlame": [
            {
                "children": [
                    {
                        "children": [
                            {
                                "children": [],
                                "depth": 0,
                                "name": "Initial Gas",
                                "value": 23320
                            },
                            {
                                "children": [],
                                "depth": 0,
                                "name": "Executed Gas",
                                "value": 15041
                            }
                        ],
                        "depth": -1,
                        "name": "Actual Gas Used",
                        "value": 38361
                    },
                    {
                        "children": [],
                        "depth": -1,
                        "name": "Refunded Gas",
                        "value": 0
                    }
                ],
                "depth": -2,
                "name": "Total Gas",
                "value": 38361
            }
        ],
        "isConfirmed": true,
        "mainTrace": [
            {
                "children": [
                    {
                        "children": [
                            {
                                "children": [],
                                "depth": 1,
                                "id": 1,
                                "order": 1
                            }
                        ],
                        "depth": 0,
                        "id": 0,
                        "order": 0
                    }
                ],
                "depth": -1,
                "id": -1,
                "order": -1
            }
        ],
        "mainTraceNodeCount": 2,
        "parentIdMap": {
            "0": -1,
            "1": 0
        },
        "tidyTrace": [
            {
                "children": [
                    {
                        "children": [
                            {
                                "children": [],
                                "depth": 1,
                                "id": 1,
                                "order": 1
                            }
                        ],
                        "depth": 0,
                        "id": 0,
                        "order": 0
                    }
                ],
                "depth": -1,
                "id": -1,
                "order": -1
            }
        ],
        "tidyTraceNodeCount": 2
    },
    "state_change": {
        "stateChanges": [
            {
                "address": "0xe25bcec5d3801ce3a794079bf94adf1b8ccd802d",
                "erc": "",
                "slots": [
                    {
                        "current": "0x000000000000000000000000000000000000000000011d489db293453db37500",
                        "key": "0x631d0113c624f9b5625f6b674a544689b923c849e8f3a609647aa9fd642ea454",
                        "prev": "0x0000000000000000000000000000000000000000000127de944f60e62f0b7500"
                    },
                    {
                        "current": "0x00000000000000000000000000000000000000000000c333c6d3c7be5bf55000",
                        "key": "0x7c0efdf8989482ba83fc29b3c54957007932d654e5546f2f9ab770045399bc15",
                        "prev": "0x00000000000000000000000000000000000000000000b89dd036fa1d6a9d5000"
                    }
                ],
                "storageVariables": [
                    {
                        "name": "balanceOf",
                        "type": "mapping(address => uint256)",
                        "value": {
                            "pairs": [
                                {
                                    "key": "0x0d0707963952f2fba59dd06f2b425ace40b492fe",
                                    "value": {
                                        "current": "1347213976497891380000000",
                                        "prev": "1397203976497891380000000",
                                        "typeTag": 1
                                    }
                                },
                                {
                                    "key": "0xc298db27c42c31b7bccd987a8625d1f10a674922",
                                    "value": {
                                        "current": "921816575121800000000000",
                                        "prev": "871826575121800000000000",
                                        "typeTag": 1
                                    }
                                }
                            ],
                            "typeTag": 4
                        }
                    }
                ]
            }
        ]
    }
}