{
    "balance_change": {
        "balanceChanges": [
            {
                "account": "0x46340b20830761efd32832a74d7169b29feb9758",
                "assets": [
                    {
                        "address": "0x0d8775f648430679a709e98d2b0cb6250d2887ef",
                        "amount": "375.31",
                        "iconUrl": "https://assets.blocksec.com/icon/c5e7cd8dfdc41ede0b39a767b7a8b9ac3f98749148ad9c0ffe838d1ca4891ff1.png",
                        "isERC1155": false,
                        "isERC721": false,
                        "sign": false,
                        "value": "89.21118699999999798"
                    }
                ]
            },
            {
                "account": "0xd0ab7539660f076c677849c41c5883c8f4d026cb",
                "assets": [
                    {
                        "address": "0x0d8775f648430679a709e98d2b0cb6250d2887ef",
                        "amount": "375.31",
                        "iconUrl": "https://assets.blocksec.com/icon/c5e7cd8dfdc41ede0b39a767b7a8b9ac3f98749148ad9c0ffe838d1ca4891ff1.png",
                        "isERC1155": false,
                        "isERC721": false,
                        "sign": true,
                        "value": "89.21118699999999798"
                    }
                ]
            }
        ]
    },
    "profile": {
        "basic_info": {
            "baseFee": "12.194663725",
            "blockNumber": 16118459,
            "callData": "0xa9059cbb000000000000000000000000d0ab7539660f076c677849c41c5883c8f4d026cb0000000000000000000000000000000000000000000000145878f885bbdb0000",
            "debugEnable": true,
            "errorInfo": "",
            "eventCount": 1,
            "feeRecipient": "0xf2f5c73fa04406b1995e397b55c24ab1f3ea726c",
            "formatValue": "0",
            "gasLimit": 350000,
            "gasPrice": "17.154856655",
            "gasUsed": 34740,
            "intTxnCount": 0,
            "internalRevert": false,
            "internalRevertMessage": "",
            "isContractCreation": false,
            "isFlashloan": false,
            "maxFee": "",
            "nonce": 7647591,
            "overwritedBlockNumber": -1,
            "priorityFee": "",
            "receiver": "0x0d8775f648430679a709e98d2b0cb6250d2887ef",
            "revertMessage": "",
            "sender": "0x46340b20830761efd32832a74d7169b29feb9758",
            "simulationEnable": true,
            "sourceTxnHash": "0x4961123bab91f4ebc2727b3bb9bc32b9232411913f3b92736d0fcbd4815b8ec7",
            "status": true,
            "timestamp": "2022-12-05T11:58:47Z",
            "transactionFee": "0.0005959597201947",
            "txnHash": "0x4961123bab91f4ebc2727b3bb9bc32b9232411913f3b92736d0fcbd4815b8ec7",
            "txnIndex": 10,
            "type": 0,
            "value": "0"
        },
        "fund_flow": [
            {
                "amount": "375.31",
                "from": "0x46340b20830761efd32832a74d7169b29feb9758",
                "id": 1,
                "isERC1155": false,
                "isERC721": false,
                "isReverted": false,
                "order": 1,
                "to": "0xd0ab7539660f076c677849c41c5883c8f4d026cb",
                "token": "0x0d8775f648430679a709e98d2b0cb6250d2887ef"
            }
        ],
        "token_infos": [
            {
                "address": "0x0d8775f648430679a709e98d2b0cb6250d2887ef",
                "decimals": 18
            },
            {
                "address": "0xc02aaa39b223fe8d0a0e5c4f27ead9083c756cc2",
                "decimals": 18
            },
            {
                "address": "0xeeeeeeeeeeeeeeeeeeeeeeeeeeeeeeeeeeeeeeee",
                "decimals": 18
            }
        ]
    },
    "address_label": {
        "labels": [
            {
                "address": "0x0d8775f648430679a709e98d2b0cb6250d2887ef",
                "label": "Basic Attention: BAT Token"
            },
            {
                "address": "0x46340b20830761efd32832a74d7169b29feb9758",
                "label": "Crypto.com 2"
            },
            {
                "address": "0x0000000000000000000000000000000000000001",
                "label": "Precompiled"
            },
            {
                "address": "0x0000000000000000000000000000000000000002",
                "label": "Precompiled"
            },
            {
                "address": "0x0000000000000000000000000000000000000003",
                "label": "Precompiled"
            },
            {
                "address": "0x0000000000000000000000000000000000000004",
                "label": "Precompiled"
            },
            {
                "address": "0xeeeeeeeeeeeeeeeeeeeeeeeeeeeeeeeeeeeeeeee",
                "label": "Ether"
            }
        ]
    },
    "trace": {
        "accountLabels": null,
        "dataMap": {
            "-1": {
                "invocation": {
                    "address": "0x46340b20830761efd32832a74d7169b29feb9758",
                    "callData": "",
                    "decodedMethod": null,
                    "errorInfo": "",
                    "fromAddress": "",
                    "gasUsed": 0,
                    "id": -1,
                    "methodDecoded": false,
                    "operation": "",
                    "output": "",
                    "revert": false,
                    "revertMessage": "",
                    "selector": "",
                    "status": false,
                    "value": ""
                },
                "nodeType": 0
            },
            "0": {
                "invocation": {
                    "address": "0x0d8775f648430679a709e98d2b0cb6250d2887ef",
                    "callData": "0x000000000000000000000000d0ab7539660f076c677849c41c5883c8f4d026cb0000000000000000000000000000000000000000000000145878f885bbdb0000",
                    "decodedMethod": {
                        "callParams": [
                            {
                                "name": "_to",
                                "type": "address",
                                "value": "0xd0ab7539660f076c677849c41c5883c8f4d026cb"
                            },
                            {
                                "decimalAvailable": true,
                                "name": "_value",
                                "type": "uint256",
                                "value": "375,310,000,000,000,000,000"
                            }
                        ],
                        "constructorArguments": "",
                        "name": "transfer",
                        "returnParams": [
                            {
                                "name": "success",
                                "type": "bool",
                                "value": true
                            }
                        ],
                        "signature": "transfer(address,uint256)"
                    },
                    "errorInfo": "",
                    "fromAddress": "0x46340b20830761efd32832a74d7169b29feb9758",
                    "gasUsed": 34740,
                    "id": 0,
                    "methodDecoded": true,
                    "operation": "CALL",
                    "output": "0x0000000000000000000000000000000000000000000000000000000000000001",
                    "revert": false,
                    "revertMessage": "",
                    "selector": "0xa9059cbb",
                    "status": true,
                    "value": "0"
                },
                "nodeType": 0
            },
            "1": {
                "event": {
                    "contract": "0x0d8775f648430679a709e98d2b0cb6250d2887ef",
                    "decodedLog": {
                        "name": "Transfer",
                        "params": [
                            {
                                "name": "_from",
                                "type": "address",
                                "value": "0x46340b20830761efd32832a74d7169b29feb9758"
                            },
                            {
                                "name": "_to",
                                "type": "address",
                                "value": "0xd0ab7539660f076c677849c41c5883c8f4d026cb"
                            },
                            {
                                "decimalAvailable": true,
                                "name": "_value",
                                "type": "uint256",
                                "value": "375,310,000,000,000,000,000"
                            }
                        ],
                        "signature": "Transfer(address,address,uint256)"
                    },
                    "id": 1,
                    "logData": "0x0000000000000000000000000000000000000000000000145878f885bbdb0000",
                    "logDecoded": true,
                    "operation": "EVENT",
                    "revert": false,
                    "status": true,
                    "topics": [
                        "0xddf252ad1be2c89b69c2b068fc378daa952ba7f163c4a11628f55a4df523b3ef",
                        "0x00000000000000000000000046340b20830761efd32832a74d7169b29feb9758",
                        "0x000000000000000000000000d0ab7539660f076c677849c41c5883c8f4d026cb"
                    ]
                },
                "nodeType": 1
            }
        },
        "gasFlame": [
            {
                "children": [
                    {
                        "children": [
                            {
                                "children": [],
                                "depth": 0,
                                "name": "Initial Gas",
                                "value": 21644
                            },
                            {
                                "children": [],
                                "depth": 0,
                                "name": "Executed Gas",
                                "value": 13096
                            }
                        ],
                        "depth": -1,
                        "name": "Actual Gas Used",
                        "value": 34740
                    },
                    {
                        "children": [],
                        "depth": -1,
                        "name": "Refunded Gas",
                        "value": 0
                    }
                ],
                "depth": -2,
                "name": "Total Gas",
                "value": 34740
            }
        ],
        "isConfirmed": true,
        "mainTrace": [
            {
                "children": [
                    {
                        "children": [
                            {
                                "children": [],
                                "depth": 1,
                                "id": 1,
                                "order": 1
                            }
                        ],
                        "depth": 0,
                        "id": 0,
                        "order": 0
                    }
                ],
                "depth": -1,
                "id": -1,
                "order": -1
            }
        ],
        "mainTraceNodeCount": 2,
        "parentIdMap": {
            "0": -1,
            "1": 0
        },
        "tidyTrace": [
            {
                "children": [
                    {
                        "children": [
                            {
                                "children": [],
                                "depth": 1,
                                "id": 1,
                                "order": 1
                            }
                        ],
                        "depth": 0,
                        "id": 0,
                        "order": 0
                    }
                ],
                "depth": -1,
                "id": -1,
                "order": -1
            }
        ],
        "tidyTraceNodeCount": 2
    },
    "state_change": {
        "stateChanges": [
            {
                "address": "0x0d8775f648430679a709e98d2b0cb6250d2887ef",
                "erc": "ERC-20",
                "slots": [
                    {
                        "current": "0x000000000000000000000000000000000000000000000014abbd40bba8330000",
                        "key": "0x2d129875a5171de34b452ef519da429f8d92de6a1c94bfc403a9eb1738c60328",
                        "prev": "0x00000000000000000000000000000000000000000000000053444835ec580000"
                    },
                    {
                        "current": "0x00000000000000000000000000000000000000000000450a94c0b77790d07ac7",
                        "key": "0x735258387f00dbdbdb9ed7917bbfc4e54ea6541541dbbaa303f4ed9aae81e240",
                        "prev": "0x00000000000000000000000000000000000000000000451eed39affd4cab7ac7"
                    }
                ],
                "storageVariables": []
            }
        ]
    }
}