{
    "balance_change": {
        "balanceChanges": [
            {
                "account": "0x601c2aa37548e0de6d57d463745d1b53337208dc",
                "assets": [
                    {
                        "address": "0xa0b86991c6218b36c1d19d4a2e9eb0ce3606eb48",
                        "amount": "700,000",
                        "iconUrl": "https://assets.blocksec.com/icon/0347a86cc07dbd03fdc5db01a4e5ac7e1217f90e0b6e4bb0f75cbcca09160989.png",
                        "isERC1155": false,
                        "isERC721": false,
                        "sign": true,
                        "value": "700025.221"
                    }
                ]
            },
            {
                "account": "0x49137256618079315718dfa2fa23088fb04dc596",
                "assets": [
                    {
                        "address": "0xa0b86991c6218b36c1d19d4a2e9eb0ce3606eb48",
                        "amount": "700,000",
                        "iconUrl": "https://assets.blocksec.com/icon/0347a86cc07dbd03fdc5db01a4e5ac7e1217f90e0b6e4bb0f75cbcca09160989.png",
                        "isERC1155": false,
                        "isERC721": false,
                        "sign": false,
                        "value": "700025.221"
                    }
                ]
            }
        ]
    },
    "profile": {
        "basic_info": {
            "baseFee": "109.056516306",
            "blockNumber": 13719404,
            "callData": "0x2da0340900000000000000000000000049137256618079315718dfa2fa23088fb04dc596000000000000000000000000a0b86991c6218b36c1d19d4a2e9eb0ce3606eb48",
            "debugEnable": true,
            "errorInfo": "",
            "eventCount": 1,
            "feeRecipient": "0x00192fb10df37c9fb26829eb2cc623cd1bf599e8",
            "formatValue": "0",
            "gasLimit": 500000,
            "gasPrice": "111.056516306",
            "gasUsed": 62668,
            "intTxnCount": 7,
            "internalRevert": false,
            "internalRevertMessage": "",
            "isContractCreation": false,
            "isFlashloan": false,
            "maxFee": "225.586443508",
            "nonce": 845,
            "overwritedBlockNumber": -1,
            "priorityFee": "2",
            "receiver": "0x601c2aa37548e0de6d57d463745d1b53337208dc",
            "revertMessage": "",
            "sender": "0x26d44e79c4bc04a0fb6b32b06cc6a887deb2c51c",
            "simulationEnable": true,
            "sourceTxnHash": "0x4909e5f17c3f5d8ac8c631431ba60474063cde206c38a21a8deeb802eb89728d",
            "status": true,
            "timestamp": "2021-12-01T05:56:09Z",
            "transactionFee": "0.006959689763864408",
            "txnHash": "0x4909e5f17c3f5d8ac8c631431ba60474063cde206c38a21a8deeb802eb89728d",
            "txnIndex": 88,
            "type": 2,
            "value": "0"
        },
        "fund_flow": [
            {
                "amount": "700,000",
                "from": "0x49137256618079315718dfa2fa23088fb04dc596",
                "id": 1,
                "isERC1155": false,
                "isERC721": false,
                "isReverted": false,
                "order": 1,
                "to": "0x601c2aa37548e0de6d57d463745d1b53337208dc",
                "token": "0xa0b86991c6218b36c1d19d4a2e9eb0ce3606eb48"
            }
        ],
        "token_infos": [
            {
                "address": "0xa0b86991c6218b36c1d19d4a2e9eb0ce3606eb48",
                "decimals": 6
            },
            {
                "address": "0xc02aaa39b223fe8d0a0e5c4f27ead9083c756cc2",
                "decimals": 18
            },
            {
                "address": "0xeeeeeeeeeeeeeeeeeeeeeeeeeeeeeeeeeeeeeeee",
                "decimals": 18
            }
        ]
    },
    "address_label": {
        "labels": [
            {
                "address": "0x0000000000000000000000000000000000000003",
                "label": "Precompiled"
            },
            {
                "address": "0x0000000000000000000000000000000000000004",
                "label": "Precompiled"
            },
            {
                "address": "0xa0b86991c6218b36c1d19d4a2e9eb0ce3606eb48",
                "label": "Circle: USDC Token"
            },
            {
                "address": "0x0000000000000000000000000000000000000001",
                "label": "Precompiled"
            },
            {
                "address": "0xdcd6f2f38823977c2a1e949daadd09947dfc024a",
                "label": "WalletSimple"
            },
            {
                "address": "0x059ffafdc6ef594230de44f824e2bd0a51ca5ded",
                "label": "Forwarder"
            },
            {
                "address": "0x0000000000000000000000000000000000000002",
                "label": "Precompiled"
            },
            {
                "address": "0xeeeeeeeeeeeeeeeeeeeeeeeeeeeeeeeeeeeeeeee",
                "label": "Ether"
            },
            {
                "address": "0xa2327a938febf5fec13bacfb16ae10ecbc4cbdcf",
                "label": "FiatTokenV2_1"
            }
        ]
    },
    "trace": {
        "accountLabels": null,
        "dataMap": {
            "-1": {
                "invocation": {
                    "address": "0x26d44e79c4bc04a0fb6b32b06cc6a887deb2c51c",
                    "callData": "",
                    "decodedMethod": null,
                    "errorInfo": "",
                    "fromAddress": "",
                    "gasUsed": 0,
                    "id": -1,
                    "methodDecoded": false,
                    "operation": "",
                    "output": "",
                    "revert": false,
                    "revertMessage": "",
                    "selector": "",
                    "status": false,
                    "value": ""
                },
                "nodeType": 0
            },
            "0": {
                "invocation": {
                    "address": "0x601c2aa37548e0de6d57d463745d1b53337208dc",
                    "callData": "0x00000000000000000000000049137256618079315718dfa2fa23088fb04dc596000000000000000000000000a0b86991c6218b36c1d19d4a2e9eb0ce3606eb48",
                    "decodedMethod": {
                        "callParams": [
                            {
                                "name": "forwarderAddress",
                                "type": "address",
                                "value": "0x49137256618079315718dfa2fa23088fb04dc596"
                            },
                            {
                                "name": "tokenContractAddress",
                                "type": "address",
                                "value": "0xa0b86991c6218b36c1d19d4a2e9eb0ce3606eb48"
                            }
                        ],
                        "constructorArguments": "",
                        "name": "flushForwarderTokens",
                        "returnParams": [],
                        "signature": "flushForwarderTokens(address,address)"
                    },
                    "errorInfo": "",
                    "fromAddress": "0x26d44e79c4bc04a0fb6b32b06cc6a887deb2c51c",
                    "gasUsed": 62668,
                    "id": 0,
                    "methodDecoded": true,
                    "operation": "CALL",
                    "output": "",
                    "revert": false,
                    "revertMessage": "",
                    "selector": "0x2da03409",
                    "status": true,
                    "value": "0"
                },
                "nodeType": 0
            },
            "1": {
                "invocation": {
                    "address": "0xdcd6f2f38823977c2a1e949daadd09947dfc024a",
                    "callData": "0x00000000000000000000000049137256618079315718dfa2fa23088fb04dc596000000000000000000000000a0b86991c6218b36c1d19d4a2e9eb0ce3606eb48",
                    "decodedMethod": {
                        "callParams": [
                            {
                                "name": "forwarderAddress",
                                "type": "address",
                                "value": "0x49137256618079315718dfa2fa23088fb04dc596"
                            },
                            {
                                "name": "tokenContractAddress",
                                "type": "address",
                                "value": "0xa0b86991c6218b36c1d19d4a2e9eb0ce3606eb48"
                            }
                        ],
                        "constructorArguments": "",
                        "name": "flushForwarderTokens",
                        "returnParams": [],
                        "signature": "flushForwarderTokens(address,address)"
                    },
                    "errorInfo": "",
                    "fromAddress": "0x601c2aa37548e0de6d57d463745d1b53337208dc",
                    "gasUsed": 42993,
                    "id": 1,
                    "methodDecoded": true,
                    "operation": "DELEGATECALL",
                    "output": "",
                    "revert": false,
                    "revertMessage": "",
                    "selector": "0x2da03409",
                    "status": true,
                    "value": "0"
                },
                "nodeType": 0
            },
            "2": {
                "invocation": {
                    "address": "0x49137256618079315718dfa2fa23088fb04dc596",
                    "callData": "0x000000000000000000000000a0b86991c6218b36c1d19d4a2e9eb0ce3606eb48",
                    "decodedMethod": {
                        "callParams": [
                            {
                                "name": "tokenContractAddress",
                                "type": "address",
                                "value": "0xa0b86991c6218b36c1d19d4a2e9eb0ce3606eb48"
                            }
                        ],
                        "constructorArguments": "",
                        "name": "flushTokens",
                        "returnParams": [],
                        "signature": "flushTokens(address)"
                    },
                    "errorInfo": "",
                    "fromAddress": "0x601c2aa37548e0de6d57d463745d1b53337208dc",
                    "gasUsed": 37505,
                    "id": 2,
                    "methodDecoded": true,
                    "operation": "CALL",
                    "output": "",
                    "revert": false,
                    "revertMessage": "",
                    "selector": "0x3ef13367",
                    "status": true,
                    "value": "0"
                },
                "nodeType": 0
            },
            "3": {
                "invocation": {
                    "address": "0x059ffafdc6ef594230de44f824e2bd0a51ca5ded",
                    "callData": "0x000000000000000000000000a0b86991c6218b36c1d19d4a2e9eb0ce3606eb48",
                    "decodedMethod": {
                        "callParams": [
                            {
                                "name": "tokenContractAddress",
                                "type": "address",
                                "value": "0xa0b86991c6218b36c1d19d4a2e9eb0ce3606eb48"
                            }
                        ],
                        "constructorArguments": "",
                        "name": "flushTokens",
                        "returnParams": [],
                        "signature": "flushTokens(address)"
                    },
                    "errorInfo": "",
                    "fromAddress": "0x49137256618079315718dfa2fa23088fb04dc596",
                    "gasUsed": 34836,
                    "id": 3,
                    "methodDecoded": true,
                    "operation": "DELEGATECALL",
                    "output": "",
                    "revert": false,
                    "revertMessage": "",
                    "selector": "0x3ef13367",
                    "status": true,
                    "value": "0"
                },
                "nodeType": 0
            },
            "4": {
                "invocation": {
                    "address": "0xa0b86991c6218b36c1d19d4a2e9eb0ce3606eb48",
                    "callData": "0x00000000000000000000000049137256618079315718dfa2fa23088fb04dc596",
                    "decodedMethod": {
                        "callParams": [
                            {
                                "name": "account",
                                "type": "address",
                                "value": "0x49137256618079315718dfa2fa23088fb04dc596"
                            }
                        ],
                        "constructorArguments": "",
                        "name": "balanceOf",
                        "returnParams": [
                            {
                                "decimalAvailable": true,
                                "name": "",
                                "type": "uint256",
                                "value": "700,000,000,000"
                            }
                        ],
                        "signature": "balanceOf(address)"
                    },
                    "errorInfo": "",
                    "fromAddress": "0x49137256618079315718dfa2fa23088fb04dc596",
                    "gasUsed": 9815,
                    "id": 4,
                    "methodDecoded": true,
                    "operation": "STATICCALL",
                    "output": "0x000000000000000000000000000000000000000000000000000000a2fb405800",
                    "revert": false,
                    "revertMessage": "",
                    "selector": "0x70a08231",
                    "status": true,
                    "value": "0"
                },
                "nodeType": 0
            },
            "5": {
                "invocation": {
                    "address": "0xa2327a938febf5fec13bacfb16ae10ecbc4cbdcf",
                    "callData": "0x00000000000000000000000049137256618079315718dfa2fa23088fb04dc596",
                    "decodedMethod": {
                        "callParams": [
                            {
                                "name": "account",
                                "type": "address",
                                "value": "0x49137256618079315718dfa2fa23088fb04dc596"
                            }
                        ],
                        "constructorArguments": "",
                        "name": "balanceOf",
                        "returnParams": [
                            {
                                "decimalAvailable": true,
                                "name": "",
                                "type": "uint256",
                                "value": "700,000,000,000"
                            }
                        ],
                        "signature": "balanceOf(address)"
                    },
                    "errorInfo": "",
                    "fromAddress": "0xa0b86991c6218b36c1d19d4a2e9eb0ce3606eb48",
                    "gasUsed": 2529,
                    "id": 5,
                    "methodDecoded": true,
                    "operation": "DELEGATECALL",
                    "output": "0x000000000000000000000000000000000000000000000000000000a2fb405800",
                    "revert": false,
                    "revertMessage": "",
                    "selector": "0x70a08231",
                    "status": true,
                    "value": "0"
                },
                "nodeType": 0
            },
            "6": {
                "invocation": {
                    "address": "0xa0b86991c6218b36c1d19d4a2e9eb0ce3606eb48",
                    "callData": "0x000000000000000000000000601c2aa37548e0de6d57d463745d1b53337208dc000000000000000000000000000000000000000000000000000000a2fb405800",
                    "decodedMethod": {
                        "callParams": [
                            {
                                "name": "to",
                                "type": "address",
                                "value": "0x601c2aa37548e0de6d57d463745d1b53337208dc"
                            },
                            {
                                "decimalAvailable": true,
                                "name": "value",
                                "type": "uint256",
                                "value": "700,000,000,000"
                            }
                        ],
                        "constructorArguments": "",
                        "name": "transfer",
                        "returnParams": [
                            {
                                "name": "",
                                "type": "bool",
                                "value": true
                            }
                        ],
                        "signature": "transfer(address,uint256)"
                    },
                    "errorInfo": "",
                    "fromAddress": "0x49137256618079315718dfa2fa23088fb04dc596",
                    "gasUsed": 18417,
                    "id": 6,
                    "methodDecoded": true,
                    "operation": "CALL",
                    "output": "0x0000000000000000000000000000000000000000000000000000000000000001",
                    "revert": false,
                    "revertMessage": "",
                    "selector": "0xa9059cbb",
                    "status": true,
                    "value": "0"
                },
                "nodeType": 0
            },
            "7": {
                "invocation": {
                    "address": "0xa2327a938febf5fec13bacfb16ae10ecbc4cbdcf",
                    "callData": "0x000000000000000000000000601c2aa37548e0de6d57d463745d1b53337208dc000000000000000000000000000000000000000000000000000000a2fb405800",
                    "decodedMethod": {
                        "callParams": [
                            {
                                "name": "to",
                                "type": "address",
                                "value": "0x601c2aa37548e0de6d57d463745d1b53337208dc"
                            },
                            {
                                "decimalAvailable": true,
                                "name": "value",
                                "type": "uint256",
                                "value": "700,000,000,000"
                            }
                        ],
                        "constructorArguments": "",
                        "name": "transfer",
                        "returnParams": [
                            {
                                "name": "",
                                "type": "bool",
                                "value": true
                            }
                        ],
                        "signature": "transfer(address,uint256)"
                    },
                    "errorInfo": "",
                    "fromAddress": "0xa0b86991c6218b36c1d19d4a2e9eb0ce3606eb48",
                    "gasUsed": 17628,
                    "id": 7,
                    "methodDecoded": true,
                    "operation": "DELEGATECALL",
                    "output": "0x0000000000000000000000000000000000000000000000000000000000000001",
                    "revert": false,
                    "revertMessage": "",
                    "selector": "0xa9059cbb",
                    "status": true,
                    "value": "0"
                },
                "nodeType": 0
            },
            "8": {
                "event": {
                    "contract": "0xa0b86991c6218b36c1d19d4a2e9eb0ce3606eb48",
                    "decodedLog": {
                        "name": "Transfer",
                        "params": [
                            {
                                "name": "from",
                                "type": "address",
                                "value": "0x49137256618079315718dfa2fa23088fb04dc596"
                            },
                            {
                                "name": "to",
                                "type": "address",
                                "value": "0x601c2aa37548e0de6d57d463745d1b53337208dc"
                            },
                            {
                                "decimalAvailable": true,
                                "name": "value",
                                "type": "uint256",
                                "value": "700,000,000,000"
                            }
                        ],
                        "signature": "Transfer(address,address,uint256)"
                    },
                    "id": 8,
                    "logData": "0x000000000000000000000000000000000000000000000000000000a2fb405800",
                    "logDecoded": true,
                    "operation": "EVENT",
                    "revert": false,
                    "status": true,
                    "topics": [
                        "0xddf252ad1be2c89b69c2b068fc378daa952ba7f163c4a11628f55a4df523b3ef",
                        "0x00000000000000000000000049137256618079315718dfa2fa23088fb04dc596",
                        "0x000000000000000000000000601c2aa37548e0de6d57d463745d1b53337208dc"
                    ]
                },
                "nodeType": 1
            }
        },
        "gasFlame": [
            {
                "children": [
                    {
                        "children": [
                            {
                                "children": [],
                                "depth": 0,
                                "name": "Initial Gas",
                                "value": 21800
                            },
                            {
                                "children": [
                                    {
                                        "children": [
                                            {
                                                "children": [
                                                    {
                                                        "children": [
                                                            {
                                                                "children": [
                                                                    {
                                                                        "children": [],
                                                                        "depth": 5,
                                                                        "name": "balanceOf",
                                                                        "value": 2529
                                                                    }
                                                                ],
                                                                "depth": 4,
                                                                "name": "balanceOf",
                                                                "value": 9815
                                                            },
                                                            {
                                                                "children": [
                                                                    {
                                                                        "children": [],
                                                                        "depth": 5,
                                                                        "name": "transfer",
                                                                        "value": 17628
                                                                    }
                                                                ],
                                                                "depth": 4,
                                                                "name": "transfer",
                                                                "value": 18417
                                                            }
                                                        ],
                                                        "depth": 3,
                                                        "name": "flushTokens",
                                                        "value": 34836
                                                    }
                                                ],
                                                "depth": 2,
                                                "name": "flushTokens",
                                                "value": 37505
                                            }
                                        ],
                                        "depth": 1,
                                        "name": "flushForwarderTokens",
                                        "value": 42993
                                    }
                                ],
                                "depth": 0,
                                "name": "Executed Gas",
                                "value": 45668
                            }
                        ],
                        "depth": -1,
                        "name": "Actual Gas Used",
                        "value": 62668
                    },
                    {
                        "children": [],
                        "depth": -1,
                        "name": "Refunded Gas",
                        "value": 4800
                    }
                ],
                "depth": -2,
                "name": "Total Gas",
                "value": 67468
            }
        ],
        "isConfirmed": true,
        "mainTrace": [
            {
                "children": [
                    {
                        "children": [
                            {
                                "children": [
                                    {
                                        "children": [
                                            {
                                                "children": [
                                                    {
                                                        "children": [
                                                            {
                                                                "children": [],
                                                                "depth": 5,
                                                                "id": 5,
                                                                "order": 5
                                                            }
                                                        ],
                                                        "depth": 4,
                                                        "id": 4,
                                                        "order": 4
                                                    },
                                                    {
                                                        "children": [
                                                            {
                                                                "children": [
                                                                    {
                                                                        "children": [],
                                                                        "depth": 6,
                                                                        "id": 8,
                                                                        "order": 8
                                                                    }
                                                                ],
                                                                "depth": 5,
                                                                "id": 7,
                                                                "order": 7
                                                            }
                                                        ],
                                                        "depth": 4,
                                                        "id": 6,
                                                        "order": 6
                                                    }
                                                ],
                                                "depth": 3,
                                                "id": 3,
                                                "order": 3
                                            }
                                        ],
                                        "depth": 2,
                                        "id": 2,
                                        "order": 2
                                    }
                                ],
                                "depth": 1,
                                "id": 1,
                                "order": 1
                            }
                        ],
                        "depth": 0,
                        "id": 0,
                        "order": 0
                    }
                ],
                "depth": -1,
                "id": -1,
                "order": -1
            }
        ],
        "mainTraceNodeCount": 9,
        "parentIdMap": {
            "0": -1,
            "1": 0,
            "2": 1,
            "3": 2,
            "4": 3,
            "5": 4,
            "6": 3,
            "7": 6,
            "8": 7
        },
        "tidyTrace": [
            {
                "children": [
                    {
                        "children": [
                            {
                                "children": [
                                    {
                                        "children": [
                                            {
                                                "children": [
                                                    {
                                                        "children": [
                                                            {
                                                                "children": [
                                                                    {
                                                                        "children": [],
                                                                        "depth": 6,
                                                                        "id": 8,
                                                                        "order": 8
                                                                    }
                                                                ],
                                                                "depth": 5,
                                                                "id": 7,
                                                                "order": 7
                                                            }
                                                        ],
                                                        "depth": 4,
                                                        "id": 6,
                                                        "order": 6
                                                    }
                                                ],
                                                "depth": 3,
                                                "id": 3,
                                                "order": 3
                                            }
                                        ],
                                        "depth": 2,
                                        "id": 2,
                                        "order": 2
                                    }
                                ],
                                "depth": 1,
                                "id": 1,
                                "order": 1
                            }
                        ],
                        "depth": 0,
                        "id": 0,
                        "order": 0
                    }
                ],
                "depth": -1,
                "id": -1,
                "order": -1
            }
        ],
        "tidyTraceNodeCount": 7
    },
    "state_change": {
        "stateChanges": [
            {
                "address": "0xa0b86991c6218b36c1d19d4a2e9eb0ce3606eb48",
                "erc": "ERC-20",
                "slots": [
                    {
                        "current": "0x0000000000000000000000000000000000000000000000000000000000000000",
                        "key": "0x30fd6bc061f6a24b4f37040634881d3e59ef5ef6c7f2aa5a0d79639518e13802",
                        "prev": "0x000000000000000000000000000000000000000000000000000000a2fb405800"
                    },
                    {
                        "current": "0x000000000000000000000000000000000000000000000000000000b0f38a5b33",
                        "key": "0x0b1f1391553e50640deb6f25906802ca4f072ff6971505ff71342a04bbbb0c98",
                        "prev": "0x0000000000000000000000000000000000000000000000000000000df84a0333"
                    }
                ],
                "storageVariables": [
                    {
                        "name": "balances",
                        "type": "mapping(address => uint256)",
                        "value": {
                            "pairs": [
                                {
                                    "key": "0x49137256618079315718dfa2fa23088fb04dc596",
                                    "value": {
                                        "current": "0",
                                        "prev": "700000000000",
                                        "typeTag": 1
                                    }
                                },
                                {
                                    "key": "0x601c2aa37548e0de6d57d463745d1b53337208dc",
                                    "value": {
                                        "current": "760000174899",
                                        "prev": "60000174899",
                                        "typeTag": 1
                                    }
                                }
                            ],
                            "typeTag": 4
                        }
                    }
                ]
            }
        ]
    }
}