{
    "balance_change": {
        "balanceChanges": [
            {
                "account": "0x3fda25f27211a138adf211f4c060f2149674be6d",
                "assets": [
                    {
                        "address": "0xeeeeeeeeeeeeeeeeeeeeeeeeeeeeeeeeeeeeeeee",
                        "amount": "0.043408",
                        "iconUrl": "https://assets.blocksec.com/image/1663669189317-3.png",
                        "isERC1155": false,
                        "isERC721": false,
                        "sign": false,
                        "value": "192.94734"
                    }
                ]
            },
            {
                "account": "0x56706cd651bf17c6b0f4e73648041c91168ea3cb",
                "assets": [
                    {
                        "address": "0xeeeeeeeeeeeeeeeeeeeeeeeeeeeeeeeeeeeeeeee",
                        "amount": "0.043408",
                        "iconUrl": "https://assets.blocksec.com/image/1663669189317-3.png",
                        "isERC1155": false,
                        "isERC721": false,
                        "sign": true,
                        "value": "192.94734"
                    }
                ]
            }
        ]
    },
    "profile": {
        "basic_info": {
            "baseFee": "86.8132602",
            "blockNumber": 13712040,
            "callData": "0x3912521500000000000000000000000056706cd651bf17c6b0f4e73648041c91168ea3cb000000000000000000000000000000000000000000000000009a37589469000000000000000000000000000000000000000000000000000000000000000000c00000000000000000000000000000000000000000000000000000000061aebbcc00000000000000000000000000000000000000000000000000000000000598d600000000000000000000000000000000000000000000000000000000000000e00000000000000000000000000000000000000000000000000000000000000000000000000000000000000000000000000000000000000000000000000000004196862049adbfbca1960ed0e92aca82fe4a9fe6f387b45f4fa129b7c2120cb1243a6830e6c2f4a8ea9ea94c60b0d07934136059126530c4df87aca7bd9b5de6bc1b00000000000000000000000000000000000000000000000000000000000000",
            "debugEnable": true,
            "errorInfo": "",
            "eventCount": 1,
            "feeRecipient": "0x829bd824b016326a401d083b33d092293333a830",
            "formatValue": "0",
            "gasLimit": 179044,
            "gasPrice": "89",
            "gasUsed": 109028,
            "intTxnCount": 2,
            "internalRevert": false,
            "internalRevertMessage": "",
            "isContractCreation": false,
            "isFlashloan": false,
            "maxFee": "",
            "nonce": 1012007,
            "overwritedBlockNumber": -1,
            "priorityFee": "",
            "receiver": "0x3fda25f27211a138adf211f4c060f2149674be6d",
            "revertMessage": "",
            "sender": "0x808b4da0be6c9512e948521452227efc619bea52",
            "simulationEnable": true,
            "sourceTxnHash": "0x4909f1464ab6cb9a70995c842e246ed55afea8a5a06e23bfce72c16e0133effc",
            "status": true,
            "timestamp": "2021-11-30T01:42:13Z",
            "transactionFee": "0.009703492",
            "txnHash": "0x4909f1464ab6cb9a70995c842e246ed55afea8a5a06e23bfce72c16e0133effc",
            "txnIndex": 281,
            "type": 0,
            "value": "0"
        },
        "fund_flow": [
            {
                "amount": "0.043408",
                "from": "0x3fda25f27211a138adf211f4c060f2149674be6d",
                "id": 1,
                "isERC1155": false,
                "isERC721": false,
                "isReverted": false,
                "order": 1,
                "to": "0x56706cd651bf17c6b0f4e73648041c91168ea3cb",
                "token": "0xeeeeeeeeeeeeeeeeeeeeeeeeeeeeeeeeeeeeeeee"
            }
        ],
        "token_infos": [
            {
                "address": "0xc02aaa39b223fe8d0a0e5c4f27ead9083c756cc2",
                "decimals": 18
            },
            {
                "address": "0xeeeeeeeeeeeeeeeeeeeeeeeeeeeeeeeeeeeeeeee",
                "decimals": 18
            }
        ]
    },
    "address_label": {
        "labels": [
            {
                "address": "0xeeeeeeeeeeeeeeeeeeeeeeeeeeeeeeeeeeeeeeee",
                "label": "Ether"
            },
            {
                "address": "0x808b4da0be6c9512e948521452227efc619bea52",
                "label": "BlockFi 5"
            },
            {
                "address": "0x3fda25f27211a138adf211f4c060f2149674be6d",
                "label": "BlockFi 4"
            },
            {
                "address": "0x0000000000000000000000000000000000000001",
                "label": "Precompiled"
            },
            {
                "address": "0x0000000000000000000000000000000000000002",
                "label": "Precompiled"
            },
            {
                "address": "0x0000000000000000000000000000000000000003",
                "label": "Precompiled"
            },
            {
                "address": "0x0000000000000000000000000000000000000004",
                "label": "Precompiled"
            }
        ]
    },
    "trace": {
        "accountLabels": null,
        "dataMap": {
            "-1": {
                "invocation": {
                    "address": "0x808b4da0be6c9512e948521452227efc619bea52",
                    "callData": "",
                    "decodedMethod": null,
                    "errorInfo": "",
                    "fromAddress": "",
                    "gasUsed": 0,
                    "id": -1,
                    "methodDecoded": false,
                    "operation": "",
                    "output": "",
                    "revert": false,
                    "revertMessage": "",
                    "selector": "",
                    "status": false,
                    "value": ""
                },
                "nodeType": 0
            },
            "0": {
                "invocation": {
                    "address": "0x3fda25f27211a138adf211f4c060f2149674be6d",
                    "callData": "0x00000000000000000000000056706cd651bf17c6b0f4e73648041c91168ea3cb000000000000000000000000000000000000000000000000009a37589469000000000000000000000000000000000000000000000000000000000000000000c00000000000000000000000000000000000000000000000000000000061aebbcc00000000000000000000000000000000000000000000000000000000000598d600000000000000000000000000000000000000000000000000000000000000e00000000000000000000000000000000000000000000000000000000000000000000000000000000000000000000000000000000000000000000000000000004196862049adbfbca1960ed0e92aca82fe4a9fe6f387b45f4fa129b7c2120cb1243a6830e6c2f4a8ea9ea94c60b0d07934136059126530c4df87aca7bd9b5de6bc1b00000000000000000000000000000000000000000000000000000000000000",
                    "decodedMethod": {
                        "callParams": [
                            {
                                "name": "toAddress",
                                "type": "address",
                                "value": "0x56706cd651bf17c6b0f4e73648041c91168ea3cb"
                            },
                            {
                                "name": "value",
                                "type": "uint256",
                                "value": "43,408,000,000,000,000"
                            },
                            {
                                "name": "data",
                                "type": "bytes",
                                "value": "0x"
                            },
                            {
                                "name": "expireTime",
                                "type": "uint256",
                                "value": "1,638,841,292"
                            },
                            {
                                "name": "sequenceId",
                                "type": "uint256",
                                "value": "366,806"
                            },
                            {
                                "name": "signature",
                                "type": "bytes",
                                "value": "0x96862049adbfbca1960ed0e92aca82fe4a9fe6f387b45f4fa129b7c2120cb1243a6830e6c2f4a8ea9ea94c60b0d07934136059126530c4df87aca7bd9b5de6bc1b"
                            }
                        ],
                        "constructorArguments": "",
                        "name": "sendMultiSig",
                        "returnParams": [],
                        "signature": "sendMultiSig(address,uint256,bytes,uint256,uint256,bytes)"
                    },
                    "errorInfo": "",
                    "fromAddress": "0x808b4da0be6c9512e948521452227efc619bea52",
                    "gasUsed": 109028,
                    "id": 0,
                    "methodDecoded": true,
                    "operation": "CALL",
                    "output": "",
                    "revert": false,
                    "revertMessage": "",
                    "selector": "0x39125215",
                    "status": true,
                    "value": "0"
                },
                "nodeType": 0
            },
            "1": {
                "invocation": {
                    "address": "0x0000000000000000000000000000000000000001",
                    "callData": "0xa25b7294817edf234a58315e28eb25fe77c0576285b24471c02f779d000000000000000000000000000000000000000000000000000000000000001b96862049adbfbca1960ed0e92aca82fe4a9fe6f387b45f4fa129b7c2120cb1243a6830e6c2f4a8ea9ea94c60b0d07934136059126530c4df87aca7bd9b5de6bc",
                    "decodedMethod": {
                        "callParams": [
                            {
                                "name": "hash",
                                "type": "bytes32",
                                "value": "0x4b5e44c7a25b7294817edf234a58315e28eb25fe77c0576285b24471c02f779d"
                            },
                            {
                                "name": "v",
                                "type": "uint256",
                                "value": "27"
                            },
                            {
                                "name": "r",
                                "type": "bytes32",
                                "value": "0x96862049adbfbca1960ed0e92aca82fe4a9fe6f387b45f4fa129b7c2120cb124"
                            },
                            {
                                "name": "s",
                                "type": "bytes32",
                                "value": "0x3a6830e6c2f4a8ea9ea94c60b0d07934136059126530c4df87aca7bd9b5de6bc"
                            }
                        ],
                        "constructorArguments": "",
                        "name": "ecrecover",
                        "returnParams": [
                            {
                                "name": "",
                                "type": "address",
                                "value": "0x689d84c5b5f4424954343c1458e32e4397923ddf"
                            }
                        ],
                        "signature": "ecrecover(bytes32,uint256,bytes32,bytes32)"
                    },
                    "errorInfo": "",
                    "fromAddress": "0x3fda25f27211a138adf211f4c060f2149674be6d",
                    "gasUsed": 3000,
                    "id": 1,
                    "methodDecoded": true,
                    "operation": "CALL",
                    "output": "0x000000000000000000000000689d84c5b5f4424954343c1458e32e4397923ddf",
                    "revert": false,
                    "revertMessage": "",
                    "selector": "0x4b5e44c7",
                    "status": true,
                    "value": "0"
                },
                "nodeType": 0
            },
            "2": {
                "invocation": {
                    "address": "0x56706cd651bf17c6b0f4e73648041c91168ea3cb",
                    "callData": "0x",
                    "decodedMethod": null,
                    "errorInfo": "",
                    "fromAddress": "0x3fda25f27211a138adf211f4c060f2149674be6d",
                    "gasUsed": 0,
                    "id": 2,
                    "methodDecoded": false,
                    "operation": "CALL",
                    "output": "",
                    "revert": false,
                    "revertMessage": "",
                    "selector": "fallback",
                    "status": true,
                    "value": "0.043408"
                },
                "nodeType": 0
            },
            "3": {
                "event": {
                    "contract": "0x3fda25f27211a138adf211f4c060f2149674be6d",
                    "decodedLog": {
                        "name": "Transacted",
                        "params": [
                            {
                                "name": "msgSender",
                                "type": "address",
                                "value": "0x808b4da0be6c9512e948521452227efc619bea52"
                            },
                            {
                                "name": "otherSigner",
                                "type": "address",
                                "value": "0x689d84c5b5f4424954343c1458e32e4397923ddf"
                            },
                            {
                                "name": "operation",
                                "type": "bytes32",
                                "value": "0x4b5e44c7a25b7294817edf234a58315e28eb25fe77c0576285b24471c02f779d"
                            },
                            {
                                "name": "toAddress",
                                "type": "address",
                                "value": "0x56706cd651bf17c6b0f4e73648041c91168ea3cb"
                            },
                            {
                                "name": "value",
                                "type": "uint256",
                                "value": "43,408,000,000,000,000"
                            },
                            {
                                "name": "data",
                                "type": "bytes",
                                "value": "0x"
                            }
                        ],
                        "signature": "Transacted(address,address,bytes32,address,uint256,bytes)"
                    },
                    "id": 3,
                    "logData": "0x000000000000000000000000808b4da0be6c9512e948521452227efc619bea52000000000000000000000000689d84c5b5f4424954343c1458e32e4397923ddf4b5e44c7a25b7294817edf234a58315e28eb25fe77c0576285b24471c02f779d00000000000000000000000056706cd651bf17c6b0f4e73648041c91168ea3cb000000000000000000000000000000000000000000000000009a37589469000000000000000000000000000000000000000000000000000000000000000000c00000000000000000000000000000000000000000000000000000000000000000",
                    "logDecoded": true,
                    "operation": "EVENT",
                    "revert": false,
                    "status": true,
                    "topics": [
                        "0x59bed9ab5d78073465dd642a9e3e76dfdb7d53bcae9d09df7d0b8f5234d5a806"
                    ]
                },
                "nodeType": 1
            }
        },
        "gasFlame": [
            {
                "children": [
                    {
                        "children": [
                            {
                                "children": [],
                                "depth": 0,
                                "name": "Initial Gas",
                                "value": 23672
                            },
                            {
                                "children": [
                                    {
                                        "children": [],
                                        "depth": 1,
                                        "name": "ecrecover",
                                        "value": 3000
                                    },
                                    {
                                        "children": [],
                                        "depth": 1,
                                        "name": "fallback",
                                        "value": 0
                                    }
                                ],
                                "depth": 0,
                                "name": "Executed Gas",
                                "value": 85356
                            }
                        ],
                        "depth": -1,
                        "name": "Actual Gas Used",
                        "value": 109028
                    },
                    {
                        "children": [],
                        "depth": -1,
                        "name": "Refunded Gas",
                        "value": 0
                    }
                ],
                "depth": -2,
                "name": "Total Gas",
                "value": 109028
            }
        ],
        "isConfirmed": true,
        "mainTrace": [
            {
                "children": [
                    {
                        "children": [
                            {
                                "children": [],
                                "depth": 1,
                                "id": 1,
                                "order": 1
                            },
                            {
                                "children": [],
                                "depth": 1,
                                "id": 2,
                                "order": 2
                            },
                            {
                                "children": [],
                                "depth": 1,
                                "id": 3,
                                "order": 3
                            }
                        ],
                        "depth": 0,
                        "id": 0,
                        "order": 0
                    }
                ],
                "depth": -1,
                "id": -1,
                "order": -1
            }
        ],
        "mainTraceNodeCount": 4,
        "parentIdMap": {
            "0": -1,
            "1": 0,
            "2": 0,
            "3": 0
        },
        "tidyTrace": [
            {
                "children": [
                    {
                        "children": [
                            {
                                "children": [],
                                "depth": 1,
                                "id": 1,
                                "order": 1
                            },
                            {
                                "children": [],
                                "depth": 1,
                                "id": 2,
                                "order": 2
                            },
                            {
                                "children": [],
                                "depth": 1,
                                "id": 3,
                                "order": 3
                            }
                        ],
                        "depth": 0,
                        "id": 0,
                        "order": 0
                    }
                ],
                "depth": -1,
                "id": -1,
                "order": -1
            }
        ],
        "tidyTraceNodeCount": 4
    },
    "state_change": {
        "stateChanges": [
            {
                "address": "0x3fda25f27211a138adf211f4c060f2149674be6d",
                "erc": "",
                "slots": [
                    {
                        "current": "0x00000000000000000000000000000000000000000000000000000000000598d6",
                        "key": "0x0000000000000000000000000000000000000000000000000000000000000007",
                        "prev": "0x00000000000000000000000000000000000000000000000000000000000598cb"
                    }
                ],
                "storageVariables": []
            }
        ]
    }
}