{
    "balance_change": {
        "balanceChanges": [
            {
                "account": "0x96af5cc7dc6d9aa1b2b6c7392a3d06f6301df66a",
                "assets": [
                    {
                        "address": "0x4e1945d8a75092923f39d4e332d8f3cb0afaeb51",
                        "amount": "5,850",
                        "iconUrl": "",
                        "isERC1155": false,
                        "isERC721": false,
                        "sign": false,
                        "value": ""
                    }
                ]
            },
            {
                "account": "0xc96f25abe8b877ae6d58ff4c816c9c8d54cbaf09",
                "assets": [
                    {
                        "address": "0x4e1945d8a75092923f39d4e332d8f3cb0afaeb51",
                        "amount": "5,850",
                        "iconUrl": "",
                        "isERC1155": false,
                        "isERC721": false,
                        "sign": true,
                        "value": ""
                    }
                ]
            }
        ]
    },
    "profile": {
        "basic_info": {
            "baseFee": "",
            "blockNumber": 5794762,
            "callData": "0xa9059cbb000000000000000000000000c96f25abe8b877ae6d58ff4c816c9c8d54cbaf0900000000000000000000000000000000000000000000013d210f055f23280000",
            "debugEnable": true,
            "errorInfo": "",
            "eventCount": 1,
            "feeRecipient": "0xb2930b35844a230f00e51431acae96fe543a0347",
            "formatValue": "0",
            "gasLimit": 60000,
            "gasPrice": "20",
            "gasUsed": 38380,
            "intTxnCount": 0,
            "internalRevert": false,
            "internalRevertMessage": "",
            "isContractCreation": false,
            "isFlashloan": false,
            "maxFee": "",
            "nonce": 35305,
            "overwritedBlockNumber": -1,
            "priorityFee": "",
            "receiver": "0x4e1945d8a75092923f39d4e332d8f3cb0afaeb51",
            "revertMessage": "",
            "sender": "0x96af5cc7dc6d9aa1b2b6c7392a3d06f6301df66a",
            "simulationEnable": true,
            "sourceTxnHash": "0x49dbf34c9c99636744c05c4cd6306a789d23304eddd61bf5b43ba1af6e96a941",
            "status": true,
            "timestamp": "2018-06-15T19:07:05Z",
            "transactionFee": "0.0007676",
            "txnHash": "0x49dbf34c9c99636744c05c4cd6306a789d23304eddd61bf5b43ba1af6e96a941",
            "txnIndex": 123,
            "type": 0,
            "value": "0"
        },
        "fund_flow": [
            {
                "amount": "5,850",
                "from": "0x96af5cc7dc6d9aa1b2b6c7392a3d06f6301df66a",
                "id": 1,
                "isERC1155": false,
                "isERC721": false,
                "isReverted": false,
                "order": 1,
                "to": "0xc96f25abe8b877ae6d58ff4c816c9c8d54cbaf09",
                "token": "0x4e1945d8a75092923f39d4e332d8f3cb0afaeb51"
            }
        ],
        "token_infos": [
            {
                "address": "0x4e1945d8a75092923f39d4e332d8f3cb0afaeb51",
                "decimals": 18
            },
            {
                "address": "0xc02aaa39b223fe8d0a0e5c4f27ead9083c756cc2",
                "decimals": 18
            },
            {
                "address": "0xeeeeeeeeeeeeeeeeeeeeeeeeeeeeeeeeeeeeeeee",
                "decimals": 18
            }
        ]
    },
    "address_label": {
        "labels": [
            {
                "address": "0x4e1945d8a75092923f39d4e332d8f3cb0afaeb51",
                "label": "Energy Saving Chain (ENSA)"
            },
            {
                "address": "0x0000000000000000000000000000000000000001",
                "label": "Precompiled"
            },
            {
                "address": "0x0000000000000000000000000000000000000002",
                "label": "Precompiled"
            },
            {
                "address": "0x0000000000000000000000000000000000000003",
                "label": "Precompiled"
            },
            {
                "address": "0x0000000000000000000000000000000000000004",
                "label": "Precompiled"
            },
            {
                "address": "0xeeeeeeeeeeeeeeeeeeeeeeeeeeeeeeeeeeeeeeee",
                "label": "Ether"
            }
        ]
    },
    "trace": {
        "accountLabels": null,
        "dataMap": {
            "-1": {
                "invocation": {
                    "address": "0x96af5cc7dc6d9aa1b2b6c7392a3d06f6301df66a",
                    "callData": "",
                    "decodedMethod": null,
                    "errorInfo": "",
                    "fromAddress": "",
                    "gasUsed": 0,
                    "id": -1,
                    "methodDecoded": false,
                    "operation": "",
                    "output": "",
                    "revert": false,
                    "revertMessage": "",
                    "selector": "",
                    "status": false,
                    "value": ""
                },
                "nodeType": 0
            },
            "0": {
                "invocation": {
                    "address": "0x4e1945d8a75092923f39d4e332d8f3cb0afaeb51",
                    "callData": "0x000000000000000000000000c96f25abe8b877ae6d58ff4c816c9c8d54cbaf0900000000000000000000000000000000000000000000013d210f055f23280000",
                    "decodedMethod": {
                        "callParams": [
                            {
                                "name": "_to",
                                "type": "address",
                                "value": "0xc96f25abe8b877ae6d58ff4c816c9c8d54cbaf09"
                            },
                            {
                                "decimalAvailable": true,
                                "name": "_value",
                                "type": "uint256",
                                "value": "5,850,000,000,000,000,000,000"
                            }
                        ],
                        "constructorArguments": "",
                        "name": "transfer",
                        "returnParams": [],
                        "signature": "transfer(address,uint256)"
                    },
                    "errorInfo": "",
                    "fromAddress": "0x96af5cc7dc6d9aa1b2b6c7392a3d06f6301df66a",
                    "gasUsed": 38380,
                    "id": 0,
                    "methodDecoded": true,
                    "operation": "CALL",
                    "output": "",
                    "revert": false,
                    "revertMessage": "",
                    "selector": "0xa9059cbb",
                    "status": true,
                    "value": "0"
                },
                "nodeType": 0
            },
            "1": {
                "event": {
                    "contract": "0x4e1945d8a75092923f39d4e332d8f3cb0afaeb51",
                    "decodedLog": {
                        "name": "Transfer",
                        "params": [
                            {
                                "name": "from",
                                "type": "address",
                                "value": "0x96af5cc7dc6d9aa1b2b6c7392a3d06f6301df66a"
                            },
                            {
                                "name": "to",
                                "type": "address",
                                "value": "0xc96f25abe8b877ae6d58ff4c816c9c8d54cbaf09"
                            },
                            {
                                "decimalAvailable": true,
                                "name": "value",
                                "type": "uint256",
                                "value": "5,850,000,000,000,000,000,000"
                            }
                        ],
                        "signature": "Transfer(address,address,uint256)"
                    },
                    "id": 1,
                    "logData": "0x00000000000000000000000000000000000000000000013d210f055f23280000",
                    "logDecoded": true,
                    "operation": "EVENT",
                    "revert": false,
                    "status": true,
                    "topics": [
                        "0xddf252ad1be2c89b69c2b068fc378daa952ba7f163c4a11628f55a4df523b3ef",
                        "0x00000000000000000000000096af5cc7dc6d9aa1b2b6c7392a3d06f6301df66a",
                        "0x000000000000000000000000c96f25abe8b877ae6d58ff4c816c9c8d54cbaf09"
                    ]
                },
                "nodeType": 1
            }
        },
        "gasFlame": [
            {
                "children": [
                    {
                        "children": [
                            {
                                "children": [],
                                "depth": 0,
                                "name": "Initial Gas",
                                "value": 23320
                            },
                            {
                                "children": [],
                                "depth": 0,
                                "name": "Executed Gas",
                                "value": 15060
                            }
                        ],
                        "depth": -1,
                        "name": "Actual Gas Used",
                        "value": 38380
                    },
                    {
                        "children": [],
                        "depth": -1,
                        "name": "Refunded Gas",
                        "value": 0
                    }
                ],
                "depth": -2,
                "name": "Total Gas",
                "value": 38380
            }
        ],
        "isConfirmed": true,
        "mainTrace": [
            {
                "children": [
                    {
                        "children": [
                            {
                                "children": [],
                                "depth": 1,
                                "id": 1,
                                "order": 1
                            }
                        ],
                        "depth": 0,
                        "id": 0,
                        "order": 0
                    }
                ],
                "depth": -1,
                "id": -1,
                "order": -1
            }
        ],
        "mainTraceNodeCount": 2,
        "parentIdMap": {
            "0": -1,
            "1": 0
        },
        "tidyTrace": [
            {
                "children": [
                    {
                        "children": [
                            {
                                "children": [],
                                "depth": 1,
                                "id": 1,
                                "order": 1
                            }
                        ],
                        "depth": 0,
                        "id": 0,
                        "order": 0
                    }
                ],
                "depth": -1,
                "id": -1,
                "order": -1
            }
        ],
        "tidyTraceNodeCount": 2
    },
    "state_change": {
        "stateChanges": [
            {
                "address": "0x4e1945d8a75092923f39d4e332d8f3cb0afaeb51",
                "erc": "",
                "slots": [
                    {
                        "current": "0x0000000000000000000000000000000000000000000bc972f15e115746f00000",
                        "key": "0x4112ba42c36256c883d893cf937ba1f0ebe3e5fa4c121f07e8d16b8255e72411",
                        "prev": "0x0000000000000000000000000000000000000000000bcab0126d16b66a180000"
                    },
                    {
                        "current": "0x00000000000000000000000000000000000000000000014d64651fe74c580000",
                        "key": "0xc0ed086c76d9e3e36881be6c3d2ffcdaa3157d4b5e53b95dd04f2670f7a13ebd",
                        "prev": "0x00000000000000000000000000000000000000000000001043561a8829300000"
                    }
                ],
                "storageVariables": []
            }
        ]
    }
}