{
    "balance_change": {
        "balanceChanges": [
            {
                "account": "0x0000000000000000000000000000000000000000",
                "assets": [
                    {
                        "address": "0x931abd3732f7eada74190c8f89b46f8ba7103d54",
                        "amount": "150",
                        "iconUrl": "",
                        "isERC1155": false,
                        "isERC721": false,
                        "sign": true,
                        "value": ""
                    }
                ]
            },
            {
                "account": "0x05c602ef0109bbb7e4da34e29ec63054b41c42a3",
                "assets": [
                    {
                        "address": "0x931abd3732f7eada74190c8f89b46f8ba7103d54",
                        "amount": "50",
                        "iconUrl": "",
                        "isERC1155": false,
                        "isERC721": false,
                        "sign": true,
                        "value": ""
                    }
                ]
            },
            {
                "account": "0x9d357f521059b94e5185151645c76b4af1b005a1",
                "assets": [
                    {
                        "address": "0x931abd3732f7eada74190c8f89b46f8ba7103d54",
                        "amount": "200",
                        "iconUrl": "",
                        "isERC1155": false,
                        "isERC721": false,
                        "sign": false,
                        "value": ""
                    }
                ]
            }
        ]
    },
    "profile": {
        "basic_info": {
            "baseFee": "",
            "blockNumber": 7666658,
            "callData": "0xb1c4907900000000000000000000000005c602ef0109bbb7e4da34e29ec63054b41c42a30000000000000000000000009d357f521059b94e5185151645c76b4af1b005a1",
            "debugEnable": true,
            "errorInfo": "",
            "eventCount": 5,
            "feeRecipient": "0x5a0b54d5dc17e0aadc383d2db43b0a0d3e029c4c",
            "formatValue": "0",
            "gasLimit": 133759,
            "gasPrice": "15",
            "gasUsed": 103759,
            "intTxnCount": 4,
            "internalRevert": false,
            "internalRevertMessage": "",
            "isContractCreation": false,
            "isFlashloan": false,
            "maxFee": "",
            "nonce": 4203,
            "overwritedBlockNumber": -1,
            "priorityFee": "",
            "receiver": "0xf0b83f6677959a6c517444cd9a498dd75c98defc",
            "revertMessage": "",
            "sender": "0xab8ba3d221f571002b103277f3b783a72971cbb9",
            "simulationEnable": true,
            "sourceTxnHash": "0x497a4ee97ba311dc84a1008a28cdf8aa31f710feaa9ff38798cfcc00c3b33bf0",
            "status": true,
            "timestamp": "2019-04-30T04:33:24Z",
            "transactionFee": "0.001556385",
            "txnHash": "0x497a4ee97ba311dc84a1008a28cdf8aa31f710feaa9ff38798cfcc00c3b33bf0",
            "txnIndex": 6,
            "type": 0,
            "value": "0"
        },
        "fund_flow": [
            {
                "amount": "50",
                "from": "0x9d357f521059b94e5185151645c76b4af1b005a1",
                "id": 1,
                "isERC1155": false,
                "isERC721": false,
                "isReverted": false,
                "order": 1,
                "to": "0x05c602ef0109bbb7e4da34e29ec63054b41c42a3",
                "token": "0x931abd3732f7eada74190c8f89b46f8ba7103d54"
            },
            {
                "amount": "150",
                "from": "0x9d357f521059b94e5185151645c76b4af1b005a1",
                "id": 2,
                "isERC1155": false,
                "isERC721": false,
                "isReverted": false,
                "order": 2,
                "to": "0x0000000000000000000000000000000000000000",
                "token": "0x931abd3732f7eada74190c8f89b46f8ba7103d54"
            }
        ],
        "token_infos": [
            {
                "address": "0x931abd3732f7eada74190c8f89b46f8ba7103d54",
                "decimals": 18
            },
            {
                "address": "0xc02aaa39b223fe8d0a0e5c4f27ead9083c756cc2",
                "decimals": 18
            },
            {
                "address": "0xeeeeeeeeeeeeeeeeeeeeeeeeeeeeeeeeeeeeeeee",
                "decimals": 18
            }
        ]
    },
    "address_label": {
        "labels": [
            {
                "address": "0xeeeeeeeeeeeeeeeeeeeeeeeeeeeeeeeeeeeeeeee",
                "label": "Ether"
            },
            {
                "address": "0x931abd3732f7eada74190c8f89b46f8ba7103d54",
                "label": "FairDollars (FDS)"
            },
            {
                "address": "0x0000000000000000000000000000000000000001",
                "label": "Precompiled"
            },
            {
                "address": "0x0000000000000000000000000000000000000002",
                "label": "Precompiled"
            },
            {
                "address": "0x0000000000000000000000000000000000000003",
                "label": "Precompiled"
            },
            {
                "address": "0x0000000000000000000000000000000000000004",
                "label": "Precompiled"
            }
        ]
    },
    "trace": {
        "accountLabels": null,
        "dataMap": {
            "-1": {
                "invocation": {
                    "address": "0xab8ba3d221f571002b103277f3b783a72971cbb9",
                    "callData": "",
                    "decodedMethod": null,
                    "errorInfo": "",
                    "fromAddress": "",
                    "gasUsed": 0,
                    "id": -1,
                    "methodDecoded": false,
                    "operation": "",
                    "output": "",
                    "revert": false,
                    "revertMessage": "",
                    "selector": "",
                    "status": false,
                    "value": ""
                },
                "nodeType": 0
            },
            "0": {
                "invocation": {
                    "address": "0xf0b83f6677959a6c517444cd9a498dd75c98defc",
                    "callData": "0x00000000000000000000000005c602ef0109bbb7e4da34e29ec63054b41c42a30000000000000000000000009d357f521059b94e5185151645c76b4af1b005a1",
                    "decodedMethod": {
                        "callParams": [
                            {
                                "name": "account",
                                "type": "address",
                                "value": "0x05c602ef0109bbb7e4da34e29ec63054b41c42a3"
                            },
                            {
                                "name": "recommender_",
                                "type": "address",
                                "value": "0x9d357f521059b94e5185151645c76b4af1b005a1"
                            }
                        ],
                        "constructorArguments": "",
                        "name": "join",
                        "returnParams": [
                            {
                                "name": "",
                                "type": "address",
                                "value": "0x0000000000000000000000000000000000000001"
                            }
                        ],
                        "signature": "join(address,address)"
                    },
                    "errorInfo": "",
                    "fromAddress": "0xab8ba3d221f571002b103277f3b783a72971cbb9",
                    "gasUsed": 103759,
                    "id": 0,
                    "methodDecoded": true,
                    "operation": "CALL",
                    "output": "0x0000000000000000000000000000000000000000000000000000000000000001",
                    "revert": false,
                    "revertMessage": "",
                    "selector": "0xb1c49079",
                    "status": true,
                    "value": "0"
                },
                "nodeType": 0
            },
            "1": {
                "invocation": {
                    "address": "0x931abd3732f7eada74190c8f89b46f8ba7103d54",
                    "callData": "0x0000000000000000000000009d357f521059b94e5185151645c76b4af1b005a1000000000000000000000000f0b83f6677959a6c517444cd9a498dd75c98defc",
                    "decodedMethod": {
                        "callParams": [
                            {
                                "name": "owner",
                                "type": "address",
                                "value": "0x9d357f521059b94e5185151645c76b4af1b005a1"
                            },
                            {
                                "name": "spender",
                                "type": "address",
                                "value": "0xf0b83f6677959a6c517444cd9a498dd75c98defc"
                            }
                        ],
                        "constructorArguments": "",
                        "name": "allowance",
                        "returnParams": [
                            {
                                "decimalAvailable": true,
                                "name": "",
                                "type": "uint256",
                                "value": "200,000,000,000,000,000,000"
                            }
                        ],
                        "signature": "allowance(address,address)"
                    },
                    "errorInfo": "",
                    "fromAddress": "0xf0b83f6677959a6c517444cd9a498dd75c98defc",
                    "gasUsed": 1030,
                    "id": 1,
                    "methodDecoded": true,
                    "operation": "STATICCALL",
                    "output": "0x00000000000000000000000000000000000000000000000ad78ebc5ac6200000",
                    "revert": false,
                    "revertMessage": "",
                    "selector": "0xdd62ed3e",
                    "status": true,
                    "value": "0"
                },
                "nodeType": 0
            },
            "2": {
                "invocation": {
                    "address": "0x931abd3732f7eada74190c8f89b46f8ba7103d54",
                    "callData": "0x0000000000000000000000009d357f521059b94e5185151645c76b4af1b005a1",
                    "decodedMethod": {
                        "callParams": [
                            {
                                "name": "owner",
                                "type": "address",
                                "value": "0x9d357f521059b94e5185151645c76b4af1b005a1"
                            }
                        ],
                        "constructorArguments": "",
                        "name": "balanceOf",
                        "returnParams": [
                            {
                                "decimalAvailable": true,
                                "name": "",
                                "type": "uint256",
                                "value": "200,000,000,000,000,000,000"
                            }
                        ],
                        "signature": "balanceOf(address)"
                    },
                    "errorInfo": "",
                    "fromAddress": "0xf0b83f6677959a6c517444cd9a498dd75c98defc",
                    "gasUsed": 793,
                    "id": 2,
                    "methodDecoded": true,
                    "operation": "STATICCALL",
                    "output": "0x00000000000000000000000000000000000000000000000ad78ebc5ac6200000",
                    "revert": false,
                    "revertMessage": "",
                    "selector": "0x70a08231",
                    "status": true,
                    "value": "0"
                },
                "nodeType": 0
            },
            "3": {
                "invocation": {
                    "address": "0x931abd3732f7eada74190c8f89b46f8ba7103d54",
                    "callData": "0x0000000000000000000000009d357f521059b94e5185151645c76b4af1b005a100000000000000000000000005c602ef0109bbb7e4da34e29ec63054b41c42a3000000000000000000000000000000000000000000000002b5e3af16b1880000",
                    "decodedMethod": {
                        "callParams": [
                            {
                                "name": "from",
                                "type": "address",
                                "value": "0x9d357f521059b94e5185151645c76b4af1b005a1"
                            },
                            {
                                "name": "to",
                                "type": "address",
                                "value": "0x05c602ef0109bbb7e4da34e29ec63054b41c42a3"
                            },
                            {
                                "decimalAvailable": true,
                                "name": "value",
                                "type": "uint256",
                                "value": "50,000,000,000,000,000,000"
                            }
                        ],
                        "constructorArguments": "",
                        "name": "transferFrom",
                        "returnParams": [
                            {
                                "name": "",
                                "type": "bool",
                                "value": true
                            }
                        ],
                        "signature": "transferFrom(address,address,uint256)"
                    },
                    "errorInfo": "",
                    "fromAddress": "0xf0b83f6677959a6c517444cd9a498dd75c98defc",
                    "gasUsed": 21466,
                    "id": 3,
                    "methodDecoded": true,
                    "operation": "CALL",
                    "output": "0x0000000000000000000000000000000000000000000000000000000000000001",
                    "revert": false,
                    "revertMessage": "",
                    "selector": "0x23b872dd",
                    "status": true,
                    "value": "0"
                },
                "nodeType": 0
            },
            "4": {
                "event": {
                    "contract": "0x931abd3732f7eada74190c8f89b46f8ba7103d54",
                    "decodedLog": {
                        "name": "Transfer",
                        "params": [
                            {
                                "name": "from",
                                "type": "address",
                                "value": "0x9d357f521059b94e5185151645c76b4af1b005a1"
                            },
                            {
                                "name": "to",
                                "type": "address",
                                "value": "0x05c602ef0109bbb7e4da34e29ec63054b41c42a3"
                            },
                            {
                                "decimalAvailable": true,
                                "name": "value",
                                "type": "uint256",
                                "value": "50,000,000,000,000,000,000"
                            }
                        ],
                        "signature": "Transfer(address,address,uint256)"
                    },
                    "id": 4,
                    "logData": "0x000000000000000000000000000000000000000000000002b5e3af16b1880000",
                    "logDecoded": true,
                    "operation": "EVENT",
                    "revert": false,
                    "status": true,
                    "topics": [
                        "0xddf252ad1be2c89b69c2b068fc378daa952ba7f163c4a11628f55a4df523b3ef",
                        "0x0000000000000000000000009d357f521059b94e5185151645c76b4af1b005a1",
                        "0x00000000000000000000000005c602ef0109bbb7e4da34e29ec63054b41c42a3"
                    ]
                },
                "nodeType": 1
            },
            "5": {
                "event": {
                    "contract": "0x931abd3732f7eada74190c8f89b46f8ba7103d54",
                    "decodedLog": {
                        "name": "Approval",
                        "params": [
                            {
                                "name": "owner",
                                "type": "address",
                                "value": "0x9d357f521059b94e5185151645c76b4af1b005a1"
                            },
                            {
                                "name": "spender",
                                "type": "address",
                                "value": "0xf0b83f6677959a6c517444cd9a498dd75c98defc"
                            },
                            {
                                "decimalAvailable": true,
                                "name": "value",
                                "type": "uint256",
                                "value": "150,000,000,000,000,000,000"
                            }
                        ],
                        "signature": "Approval(address,address,uint256)"
                    },
                    "id": 5,
                    "logData": "0x00000000000000000000000000000000000000000000000821ab0d4414980000",
                    "logDecoded": true,
                    "operation": "EVENT",
                    "revert": false,
                    "status": true,
                    "topics": [
                        "0x8c5be1e5ebec7d5bd14f71427d1e84f3dd0314c0f7b2291e5b200ac8c7c3b925",
                        "0x0000000000000000000000009d357f521059b94e5185151645c76b4af1b005a1",
                        "0x000000000000000000000000f0b83f6677959a6c517444cd9a498dd75c98defc"
                    ]
                },
                "nodeType": 1
            },
            "6": {
                "invocation": {
                    "address": "0x931abd3732f7eada74190c8f89b46f8ba7103d54",
                    "callData": "0x0000000000000000000000009d357f521059b94e5185151645c76b4af1b005a100000000000000000000000000000000000000000000000821ab0d4414980000",
                    "decodedMethod": {
                        "callParams": [
                            {
                                "name": "from",
                                "type": "address",
                                "value": "0x9d357f521059b94e5185151645c76b4af1b005a1"
                            },
                            {
                                "name": "value",
                                "type": "uint256",
                                "value": "150,000,000,000,000,000,000"
                            }
                        ],
                        "constructorArguments": "",
                        "name": "burnFrom",
                        "returnParams": [
                            {
                                "name": "",
                                "type": "bool",
                                "value": true
                            }
                        ],
                        "signature": "burnFrom(address,uint256)"
                    },
                    "errorInfo": "",
                    "fromAddress": "0xf0b83f6677959a6c517444cd9a498dd75c98defc",
                    "gasUsed": 26658,
                    "id": 6,
                    "methodDecoded": true,
                    "operation": "CALL",
                    "output": "0x0000000000000000000000000000000000000000000000000000000000000001",
                    "revert": false,
                    "revertMessage": "",
                    "selector": "0x79cc6790",
                    "status": true,
                    "value": "0"
                },
                "nodeType": 0
            },
            "7": {
                "event": {
                    "contract": "0x931abd3732f7eada74190c8f89b46f8ba7103d54",
                    "decodedLog": {
                        "name": "Transfer",
                        "params": [
                            {
                                "name": "from",
                                "type": "address",
                                "value": "0x9d357f521059b94e5185151645c76b4af1b005a1"
                            },
                            {
                                "name": "to",
                                "type": "address",
                                "value": "0x0000000000000000000000000000000000000000"
                            },
                            {
                                "decimalAvailable": true,
                                "name": "value",
                                "type": "uint256",
                                "value": "150,000,000,000,000,000,000"
                            }
                        ],
                        "signature": "Transfer(address,address,uint256)"
                    },
                    "id": 7,
                    "logData": "0x00000000000000000000000000000000000000000000000821ab0d4414980000",
                    "logDecoded": true,
                    "operation": "EVENT",
                    "revert": false,
                    "status": true,
                    "topics": [
                        "0xddf252ad1be2c89b69c2b068fc378daa952ba7f163c4a11628f55a4df523b3ef",
                        "0x0000000000000000000000009d357f521059b94e5185151645c76b4af1b005a1",
                        "0x0000000000000000000000000000000000000000000000000000000000000000"
                    ]
                },
                "nodeType": 1
            },
            "8": {
                "event": {
                    "contract": "0x931abd3732f7eada74190c8f89b46f8ba7103d54",
                    "decodedLog": {
                        "name": "Approval",
                        "params": [
                            {
                                "name": "owner",
                                "type": "address",
                                "value": "0x9d357f521059b94e5185151645c76b4af1b005a1"
                            },
                            {
                                "name": "spender",
                                "type": "address",
                                "value": "0xf0b83f6677959a6c517444cd9a498dd75c98defc"
                            },
                            {
                                "decimalAvailable": true,
                                "name": "value",
                                "type": "uint256",
                                "value": "0"
                            }
                        ],
                        "signature": "Approval(address,address,uint256)"
                    },
                    "id": 8,
                    "logData": "0x0000000000000000000000000000000000000000000000000000000000000000",
                    "logDecoded": true,
                    "operation": "EVENT",
                    "revert": false,
                    "status": true,
                    "topics": [
                        "0x8c5be1e5ebec7d5bd14f71427d1e84f3dd0314c0f7b2291e5b200ac8c7c3b925",
                        "0x0000000000000000000000009d357f521059b94e5185151645c76b4af1b005a1",
                        "0x000000000000000000000000f0b83f6677959a6c517444cd9a498dd75c98defc"
                    ]
                },
                "nodeType": 1
            },
            "9": {
                "event": {
                    "contract": "0xf0b83f6677959a6c517444cd9a498dd75c98defc",
                    "decodedLog": {
                        "name": "Join",
                        "params": [
                            {
                                "name": "user",
                                "type": "address",
                                "value": "0x9d357f521059b94e5185151645c76b4af1b005a1"
                            },
                            {
                                "name": "sponsor",
                                "type": "address",
                                "value": "0x05c602ef0109bbb7e4da34e29ec63054b41c42a3"
                            }
                        ],
                        "signature": "Join(address,address)"
                    },
                    "id": 9,
                    "logData": "0x",
                    "logDecoded": true,
                    "operation": "EVENT",
                    "revert": false,
                    "status": true,
                    "topics": [
                        "0x2d02e423de531208beb4f472c3dc736ffa9c141c9779e987230974ed64b0a8f0",
                        "0x0000000000000000000000009d357f521059b94e5185151645c76b4af1b005a1",
                        "0x00000000000000000000000005c602ef0109bbb7e4da34e29ec63054b41c42a3"
                    ]
                },
                "nodeType": 1
            }
        },
        "gasFlame": [
            {
                "children": [
                    {
                        "children": [
                            {
                                "children": [],
                                "depth": 0,
                                "name": "Initial Gas",
                                "value": 24088
                            },
                            {
                                "children": [
                                    {
                                        "children": [],
                                        "depth": 1,
                                        "name": "allowance",
                                        "value": 1030
                                    },
                                    {
                                        "children": [],
                                        "depth": 1,
                                        "name": "balanceOf",
                                        "value": 793
                                    },
                                    {
                                        "children": [],
                                        "depth": 1,
                                        "name": "transferFrom",
                                        "value": 21466
                                    },
                                    {
                                        "children": [],
                                        "depth": 1,
                                        "name": "burnFrom",
                                        "value": 26658
                                    }
                                ],
                                "depth": 0,
                                "name": "Executed Gas",
                                "value": 109671
                            }
                        ],
                        "depth": -1,
                        "name": "Actual Gas Used",
                        "value": 103759
                    },
                    {
                        "children": [],
                        "depth": -1,
                        "name": "Refunded Gas",
                        "value": 30000
                    }
                ],
                "depth": -2,
                "name": "Total Gas",
                "value": 133759
            }
        ],
        "isConfirmed": true,
        "mainTrace": [
            {
                "children": [
                    {
                        "children": [
                            {
                                "children": [],
                                "depth": 1,
                                "id": 1,
                                "order": 1
                            },
                            {
                                "children": [],
                                "depth": 1,
                                "id": 2,
                                "order": 2
                            },
                            {
                                "children": [
                                    {
                                        "children": [],
                                        "depth": 2,
                                        "id": 4,
                                        "order": 4
                                    },
                                    {
                                        "children": [],
                                        "depth": 2,
                                        "id": 5,
                                        "order": 5
                                    }
                                ],
                                "depth": 1,
                                "id": 3,
                                "order": 3
                            },
                            {
                                "children": [
                                    {
                                        "children": [],
                                        "depth": 2,
                                        "id": 7,
                                        "order": 7
                                    },
                                    {
                                        "children": [],
                                        "depth": 2,
                                        "id": 8,
                                        "order": 8
                                    }
                                ],
                                "depth": 1,
                                "id": 6,
                                "order": 6
                            },
                            {
                                "children": [],
                                "depth": 1,
                                "id": 9,
                                "order": 9
                            }
                        ],
                        "depth": 0,
                        "id": 0,
                        "order": 0
                    }
                ],
                "depth": -1,
                "id": -1,
                "order": -1
            }
        ],
        "mainTraceNodeCount": 10,
        "parentIdMap": {
            "0": -1,
            "1": 0,
            "2": 0,
            "3": 0,
            "4": 3,
            "5": 3,
            "6": 0,
            "7": 6,
            "8": 6,
            "9": 0
        },
        "tidyTrace": [
            {
                "children": [
                    {
                        "children": [
                            {
                                "children": [
                                    {
                                        "children": [],
                                        "depth": 2,
                                        "id": 4,
                                        "order": 4
                                    },
                                    {
                                        "children": [],
                                        "depth": 2,
                                        "id": 5,
                                        "order": 5
                                    }
                                ],
                                "depth": 1,
                                "id": 3,
                                "order": 3
                            },
                            {
                                "children": [
                                    {
                                        "children": [],
                                        "depth": 2,
                                        "id": 7,
                                        "order": 7
                                    },
                                    {
                                        "children": [],
                                        "depth": 2,
                                        "id": 8,
                                        "order": 8
                                    }
                                ],
                                "depth": 1,
                                "id": 6,
                                "order": 6
                            },
                            {
                                "children": [],
                                "depth": 1,
                                "id": 9,
                                "order": 9
                            }
                        ],
                        "depth": 0,
                        "id": 0,
                        "order": 0
                    }
                ],
                "depth": -1,
                "id": -1,
                "order": -1
            }
        ],
        "tidyTraceNodeCount": 8
    },
    "state_change": {
        "stateChanges": [
            {
                "address": "0x931abd3732f7eada74190c8f89b46f8ba7103d54",
                "erc": "ERC-20",
                "slots": [
                    {
                        "current": "0x000000000000000000000000000000000000000000012c433938daec70b80000",
                        "key": "0x0000000000000000000000000000000000000000000000000000000000000006",
                        "prev": "0x000000000000000000000000000000000000000000012c3b178dcda85c200000"
                    },
                    {
                        "current": "0x0000000000000000000000000000000000000000409e7079431129d5af480000",
                        "key": "0x0000000000000000000000000000000000000000000000000000000000000002",
                        "prev": "0x0000000000000000000000000000000000000000409e708164bc3719c3e00000"
                    },
                    {
                        "current": "0x0000000000000000000000000000000000000000000000000000000000000000",
                        "key": "0x9cfa6421ac718496405433aa65fd2b18e9d0a28226a60e9faba539abbb95ac8f",
                        "prev": "0x00000000000000000000000000000000000000000000000ad78ebc5ac6200000"
                    },
                    {
                        "current": "0x0000000000000000000000000000000000000000000000000000000000000000",
                        "key": "0xfdae3500e7561cb5d13f98d9046c25fd92e47afa3e81c746e75526e96fd8d402",
                        "prev": "0x00000000000000000000000000000000000000000000000ad78ebc5ac6200000"
                    },
                    {
                        "current": "0x00000000000000000000000000000000000000000000000821ab0d4414980000",
                        "key": "0xa782fd677517be880013ea21a27a90d3e8d3aa2d3d90da440fb0283998624cc9",
                        "prev": "0x0000000000000000000000000000000000000000000000056bc75e2d63100000"
                    }
                ],
                "storageVariables": [
                    {
                        "name": "_totalSupply",
                        "type": "uint256",
                        "value": {
                            "current": "19998582050000000000000000000",
                            "prev": "19998582200000000000000000000",
                            "typeTag": 1
                        }
                    },
                    {
                        "name": "_allowed",
                        "type": "mapping(address => mapping(address => uint256))",
                        "value": {
                            "pairs": [
                                {
                                    "key": "0x9d357f521059b94e5185151645c76b4af1b005a1",
                                    "value": {
                                        "pairs": [
                                            {
                                                "key": "0xf0b83f6677959a6c517444cd9a498dd75c98defc",
                                                "value": {
                                                    "current": "0",
                                                    "prev": "200000000000000000000",
                                                    "typeTag": 1
                                                }
                                            }
                                        ],
                                        "typeTag": 4
                                    }
                                }
                            ],
                            "typeTag": 4
                        }
                    },
                    {
                        "name": "_balances",
                        "type": "mapping(address => uint256)",
                        "value": {
                            "pairs": [
                                {
                                    "key": "0x05c602ef0109bbb7e4da34e29ec63054b41c42a3",
                                    "value": {
                                        "current": "150000000000000000000",
                                        "prev": "100000000000000000000",
                                        "typeTag": 1
                                    }
                                },
                                {
                                    "key": "0x9d357f521059b94e5185151645c76b4af1b005a1",
                                    "value": {
                                        "current": "0",
                                        "prev": "200000000000000000000",
                                        "typeTag": 1
                                    }
                                }
                            ],
                            "typeTag": 4
                        }
                    },
                    {
                        "name": "burned",
                        "type": "uint256",
                        "value": {
                            "current": "1417950000000000000000000",
                            "prev": "1417800000000000000000000",
                            "typeTag": 1
                        }
                    }
                ]
            },
            {
                "address": "0xf0b83f6677959a6c517444cd9a498dd75c98defc",
                "erc": "",
                "slots": [
                    {
                        "current": "0x0000000000000000000000000000000000000000000000000000000000000003",
                        "key": "0x3a625a0c37e76247b962f4d7eeaa17931f33db03218d29c4fa6a92b012773e7b",
                        "prev": "0x0000000000000000000000000000000000000000000000000000000000000002"
                    },
                    {
                        "current": "0x0000000000000000000000009d357f521059b94e5185151645c76b4af1b005a1",
                        "key": "0x0ea2e6aa2f25e2da289c04f98a93a0867337ad1e8026ec3e0596480099bdaeed",
                        "prev": "0x0000000000000000000000000000000000000000000000000000000000000000"
                    },
                    {
                        "current": "0x00000000000000000000000005c602ef0109bbb7e4da34e29ec63054b41c42a3",
                        "key": "0x19f698e01fd5155606c20f6c82989a5229acd683b55d45b44810e7ea5542cfc7",
                        "prev": "0x0000000000000000000000000000000000000000000000000000000000000000"
                    }
                ],
                "storageVariables": []
            }
        ]
    }
}