{
    "balance_change": {
        "balanceChanges": [
            {
                "account": "0x74d47cf2c8c91718725fe24eaddec21acc3effd8",
                "assets": [
                    {
                        "address": "0xaa7a9ca87d3694b5755f213b5d04094b8d0f0a6f",
                        "amount": "2,000",
                        "iconUrl": "https://assets.blocksec.com/icon/6015c1cdde7df0820da97162ea028774e3f8e86f578d7ecc4b580621eafcbce7.png",
                        "isERC1155": false,
                        "isERC721": false,
                        "sign": false,
                        "value": "5075.234126"
                    }
                ]
            },
            {
                "account": "0x8592c912e4a054327b9793be823418fd89f410bb",
                "assets": [
                    {
                        "address": "0xaa7a9ca87d3694b5755f213b5d04094b8d0f0a6f",
                        "amount": "2,000",
                        "iconUrl": "https://assets.blocksec.com/icon/6015c1cdde7df0820da97162ea028774e3f8e86f578d7ecc4b580621eafcbce7.png",
                        "isERC1155": false,
                        "isERC721": false,
                        "sign": true,
                        "value": "5075.234126"
                    }
                ]
            }
        ]
    },
    "profile": {
        "basic_info": {
            "baseFee": "155.203674044",
            "blockNumber": 13540764,
            "callData": "0xa9059cbb0000000000000000000000008592c912e4a054327b9793be823418fd89f410bb00000000000000000000000000000000000000000000006c6b935b8bbd400000",
            "debugEnable": true,
            "errorInfo": "",
            "eventCount": 1,
            "feeRecipient": "0xc3348b43d3881151224b490e4aa39e03d2b1cdea",
            "formatValue": "0",
            "gasLimit": 65261,
            "gasPrice": "249",
            "gasUsed": 54456,
            "intTxnCount": 0,
            "internalRevert": false,
            "internalRevertMessage": "",
            "isContractCreation": false,
            "isFlashloan": false,
            "maxFee": "",
            "nonce": 0,
            "overwritedBlockNumber": -1,
            "priorityFee": "",
            "receiver": "0xaa7a9ca87d3694b5755f213b5d04094b8d0f0a6f",
            "revertMessage": "",
            "sender": "0x74d47cf2c8c91718725fe24eaddec21acc3effd8",
            "simulationEnable": true,
            "sourceTxnHash": "0x49012f7c8974897475ca2b68bf9758115ec88ef5280fcce075fe77ac0cade8ad",
            "status": true,
            "timestamp": "2021-11-03T00:39:38Z",
            "transactionFee": "0.013559544",
            "txnHash": "0x49012f7c8974897475ca2b68bf9758115ec88ef5280fcce075fe77ac0cade8ad",
            "txnIndex": 1,
            "type": 0,
            "value": "0"
        },
        "fund_flow": [
            {
                "amount": "2,000",
                "from": "0x74d47cf2c8c91718725fe24eaddec21acc3effd8",
                "id": 1,
                "isERC1155": false,
                "isERC721": false,
                "isReverted": false,
                "order": 1,
                "to": "0x8592c912e4a054327b9793be823418fd89f410bb",
                "token": "0xaa7a9ca87d3694b5755f213b5d04094b8d0f0a6f"
            }
        ],
        "token_infos": [
            {
                "address": "0xaa7a9ca87d3694b5755f213b5d04094b8d0f0a6f",
                "decimals": 18
            },
            {
                "address": "0xc02aaa39b223fe8d0a0e5c4f27ead9083c756cc2",
                "decimals": 18
            },
            {
                "address": "0xeeeeeeeeeeeeeeeeeeeeeeeeeeeeeeeeeeeeeeee",
                "decimals": 18
            }
        ]
    },
    "address_label": {
        "labels": [
            {
                "address": "0x0000000000000000000000000000000000000002",
                "label": "Precompiled"
            },
            {
                "address": "0x0000000000000000000000000000000000000003",
                "label": "Precompiled"
            },
            {
                "address": "0x0000000000000000000000000000000000000004",
                "label": "Precompiled"
            },
            {
                "address": "0xeeeeeeeeeeeeeeeeeeeeeeeeeeeeeeeeeeeeeeee",
                "label": "Ether"
            },
            {
                "address": "0x8592c912e4a054327b9793be823418fd89f410bb",
                "label": "KUCOIN"
            },
            {
                "address": "0xaa7a9ca87d3694b5755f213b5d04094b8d0f0a6f",
                "label": "Origin Trail: TRAC Token"
            },
            {
                "address": "0x0000000000000000000000000000000000000001",
                "label": "Precompiled"
            }
        ]
    },
    "trace": {
        "accountLabels": null,
        "dataMap": {
            "-1": {
                "invocation": {
                    "address": "0x74d47cf2c8c91718725fe24eaddec21acc3effd8",
                    "callData": "",
                    "decodedMethod": null,
                    "errorInfo": "",
                    "fromAddress": "",
                    "gasUsed": 0,
                    "id": -1,
                    "methodDecoded": false,
                    "operation": "",
                    "output": "",
                    "revert": false,
                    "revertMessage": "",
                    "selector": "",
                    "status": false,
                    "value": ""
                },
                "nodeType": 0
            },
            "0": {
                "invocation": {
                    "address": "0xaa7a9ca87d3694b5755f213b5d04094b8d0f0a6f",
                    "callData": "0x0000000000000000000000008592c912e4a054327b9793be823418fd89f410bb00000000000000000000000000000000000000000000006c6b935b8bbd400000",
                    "decodedMethod": {
                        "callParams": [
                            {
                                "name": "to",
                                "type": "address",
                                "value": "0x8592c912e4a054327b9793be823418fd89f410bb"
                            },
                            {
                                "decimalAvailable": true,
                                "name": "value",
                                "type": "uint256",
                                "value": "2,000,000,000,000,000,000,000"
                            }
                        ],
                        "constructorArguments": "",
                        "name": "transfer",
                        "returnParams": [
                            {
                                "name": "",
                                "type": "bool",
                                "value": true
                            }
                        ],
                        "signature": "transfer(address,uint256)"
                    },
                    "errorInfo": "",
                    "fromAddress": "0x74d47cf2c8c91718725fe24eaddec21acc3effd8",
                    "gasUsed": 54456,
                    "id": 0,
                    "methodDecoded": true,
                    "operation": "CALL",
                    "output": "0x0000000000000000000000000000000000000000000000000000000000000001",
                    "revert": false,
                    "revertMessage": "",
                    "selector": "0xa9059cbb",
                    "status": true,
                    "value": "0"
                },
                "nodeType": 0
            },
            "1": {
                "event": {
                    "contract": "0xaa7a9ca87d3694b5755f213b5d04094b8d0f0a6f",
                    "decodedLog": {
                        "name": "Transfer",
                        "params": [
                            {
                                "name": "from",
                                "type": "address",
                                "value": "0x74d47cf2c8c91718725fe24eaddec21acc3effd8"
                            },
                            {
                                "name": "to",
                                "type": "address",
                                "value": "0x8592c912e4a054327b9793be823418fd89f410bb"
                            },
                            {
                                "decimalAvailable": true,
                                "name": "value",
                                "type": "uint256",
                                "value": "2,000,000,000,000,000,000,000"
                            }
                        ],
                        "signature": "Transfer(address,address,uint256)"
                    },
                    "id": 1,
                    "logData": "0x00000000000000000000000000000000000000000000006c6b935b8bbd400000",
                    "logDecoded": true,
                    "operation": "EVENT",
                    "revert": false,
                    "status": true,
                    "topics": [
                        "0xddf252ad1be2c89b69c2b068fc378daa952ba7f163c4a11628f55a4df523b3ef",
                        "0x00000000000000000000000074d47cf2c8c91718725fe24eaddec21acc3effd8",
                        "0x0000000000000000000000008592c912e4a054327b9793be823418fd89f410bb"
                    ]
                },
                "nodeType": 1
            }
        },
        "gasFlame": [
            {
                "children": [
                    {
                        "children": [
                            {
                                "children": [],
                                "depth": 0,
                                "name": "Initial Gas",
                                "value": 21644
                            },
                            {
                                "children": [],
                                "depth": 0,
                                "name": "Executed Gas",
                                "value": 32812
                            }
                        ],
                        "depth": -1,
                        "name": "Actual Gas Used",
                        "value": 54456
                    },
                    {
                        "children": [],
                        "depth": -1,
                        "name": "Refunded Gas",
                        "value": 0
                    }
                ],
                "depth": -2,
                "name": "Total Gas",
                "value": 54456
            }
        ],
        "isConfirmed": true,
        "mainTrace": [
            {
                "children": [
                    {
                        "children": [
                            {
                                "children": [],
                                "depth": 1,
                                "id": 1,
                                "order": 1
                            }
                        ],
                        "depth": 0,
                        "id": 0,
                        "order": 0
                    }
                ],
                "depth": -1,
                "id": -1,
                "order": -1
            }
        ],
        "mainTraceNodeCount": 2,
        "parentIdMap": {
            "0": -1,
            "1": 0
        },
        "tidyTrace": [
            {
                "children": [
                    {
                        "children": [
                            {
                                "children": [],
                                "depth": 1,
                                "id": 1,
                                "order": 1
                            }
                        ],
                        "depth": 0,
                        "id": 0,
                        "order": 0
                    }
                ],
                "depth": -1,
                "id": -1,
                "order": -1
            }
        ],
        "tidyTraceNodeCount": 2
    },
    "state_change": {
        "stateChanges": [
            {
                "address": "0xaa7a9ca87d3694b5755f213b5d04094b8d0f0a6f",
                "erc": "ERC-20",
                "slots": [
                    {
                        "current": "0x0000000000000000000000000000000000000000000001c0027ab5c18c400000",
                        "key": "0xae1d60d9e9985b9e46c0e9a5eab3ed72986fdae8a6b901463db2de2b6bf4fc46",
                        "prev": "0x00000000000000000000000000000000000000000000022c6e0e114d49800000"
                    },
                    {
                        "current": "0x00000000000000000000000000000000000000000000006c6b935b8bbd400000",
                        "key": "0x12ec32570a611b7fa7893cd7afdf0c4ecdc0b499efb6cf096184ced3b0368e0f",
                        "prev": "0x0000000000000000000000000000000000000000000000000000000000000000"
                    }
                ],
                "storageVariables": [
                    {
                        "name": "balances",
                        "type": "mapping(address => uint256)",
                        "value": {
                            "pairs": [
                                {
                                    "key": "0x74d47cf2c8c91718725fe24eaddec21acc3effd8",
                                    "value": {
                                        "current": "8264320000000000000000",
                                        "prev": "10264320000000000000000",
                                        "typeTag": 1
                                    }
                                },
                                {
                                    "key": "0x8592c912e4a054327b9793be823418fd89f410bb",
                                    "value": {
                                        "current": "2000000000000000000000",
                                        "prev": "0",
                                        "typeTag": 1
                                    }
                                }
                            ],
                            "typeTag": 4
                        }
                    }
                ]
            }
        ]
    }
}