{
    "balance_change": {
        "balanceChanges": [
            {
                "account": "0x91452794ca81769746c50a3d4773eff4e3f20742",
                "assets": [
                    {
                        "address": "0xeda8b016efa8b1161208cf041cd86972eee0f31e",
                        "amount": "36,858",
                        "iconUrl": "https://assets.blocksec.com/icon/9593d1e519507cf1bcfba2c3ca00f358bfd2ef1cab06a9c7a0d6f8b0128abb5a.png",
                        "isERC1155": false,
                        "isERC721": false,
                        "sign": false,
                        "value": ""
                    }
                ]
            },
            {
                "account": "0x1c4b70a3968436b9a0a9cf5205c787eb81bb558c",
                "assets": [
                    {
                        "address": "0xeda8b016efa8b1161208cf041cd86972eee0f31e",
                        "amount": "36,858",
                        "iconUrl": "https://assets.blocksec.com/icon/9593d1e519507cf1bcfba2c3ca00f358bfd2ef1cab06a9c7a0d6f8b0128abb5a.png",
                        "isERC1155": false,
                        "isERC721": false,
                        "sign": true,
                        "value": ""
                    }
                ]
            }
        ]
    },
    "profile": {
        "basic_info": {
            "baseFee": "",
            "blockNumber": 8140977,
            "callData": "0xa9059cbb0000000000000000000000001c4b70a3968436b9a0a9cf5205c787eb81bb558c0000000000000000000000000000000000000000000007ce1380c5f253a80000",
            "debugEnable": true,
            "errorInfo": "",
            "eventCount": 1,
            "feeRecipient": "0x829bd824b016326a401d083b33d092293333a830",
            "formatValue": "0",
            "gasLimit": 110000,
            "gasPrice": "4.0002",
            "gasUsed": 22958,
            "intTxnCount": 0,
            "internalRevert": false,
            "internalRevertMessage": "",
            "isContractCreation": false,
            "isFlashloan": false,
            "maxFee": "",
            "nonce": 5,
            "overwritedBlockNumber": -1,
            "priorityFee": "",
            "receiver": "0xeda8b016efa8b1161208cf041cd86972eee0f31e",
            "revertMessage": "",
            "sender": "0x91452794ca81769746c50a3d4773eff4e3f20742",
            "simulationEnable": true,
            "sourceTxnHash": "0x496bc90e0e6e65cd6b46c40f70ce74715c11f1f58170e574bf6ce265a072ffc8",
            "status": true,
            "timestamp": "2019-07-13T06:06:52Z",
            "transactionFee": "0.0000918365916",
            "txnHash": "0x496bc90e0e6e65cd6b46c40f70ce74715c11f1f58170e574bf6ce265a072ffc8",
            "txnIndex": 36,
            "type": 0,
            "value": "0"
        },
        "fund_flow": [
            {
                "amount": "36,858",
                "from": "0x91452794ca81769746c50a3d4773eff4e3f20742",
                "id": 1,
                "isERC1155": false,
                "isERC721": false,
                "isReverted": false,
                "order": 1,
                "to": "0x1c4b70a3968436b9a0a9cf5205c787eb81bb558c",
                "token": "0xeda8b016efa8b1161208cf041cd86972eee0f31e"
            }
        ],
        "token_infos": [
            {
                "address": "0xc02aaa39b223fe8d0a0e5c4f27ead9083c756cc2",
                "decimals": 18
            },
            {
                "address": "0xeda8b016efa8b1161208cf041cd86972eee0f31e",
                "decimals": 18
            },
            {
                "address": "0xeeeeeeeeeeeeeeeeeeeeeeeeeeeeeeeeeeeeeeee",
                "decimals": 18
            }
        ]
    },
    "address_label": {
        "labels": [
            {
                "address": "0xeda8b016efa8b1161208cf041cd86972eee0f31e",
                "label": "I HOUSE TOKEN (IHT)"
            },
            {
                "address": "0x91452794ca81769746c50a3d4773eff4e3f20742",
                "label": "GATE.IO"
            },
            {
                "address": "0x0000000000000000000000000000000000000001",
                "label": "Precompiled"
            },
            {
                "address": "0x0000000000000000000000000000000000000002",
                "label": "Precompiled"
            },
            {
                "address": "0x0000000000000000000000000000000000000003",
                "label": "Precompiled"
            },
            {
                "address": "0x0000000000000000000000000000000000000004",
                "label": "Precompiled"
            },
            {
                "address": "0xeeeeeeeeeeeeeeeeeeeeeeeeeeeeeeeeeeeeeeee",
                "label": "Ether"
            },
            {
                "address": "0x1c4b70a3968436b9a0a9cf5205c787eb81bb558c",
                "label": "Gate.io 3"
            }
        ]
    },
    "trace": {
        "accountLabels": null,
        "dataMap": {
            "-1": {
                "invocation": {
                    "address": "0x91452794ca81769746c50a3d4773eff4e3f20742",
                    "callData": "",
                    "decodedMethod": null,
                    "errorInfo": "",
                    "fromAddress": "",
                    "gasUsed": 0,
                    "id": -1,
                    "methodDecoded": false,
                    "operation": "",
                    "output": "",
                    "revert": false,
                    "revertMessage": "",
                    "selector": "",
                    "status": false,
                    "value": ""
                },
                "nodeType": 0
            },
            "0": {
                "invocation": {
                    "address": "0xeda8b016efa8b1161208cf041cd86972eee0f31e",
                    "callData": "0x0000000000000000000000001c4b70a3968436b9a0a9cf5205c787eb81bb558c0000000000000000000000000000000000000000000007ce1380c5f253a80000",
                    "decodedMethod": {
                        "callParams": [
                            {
                                "name": "_to",
                                "type": "address",
                                "value": "0x1c4b70a3968436b9a0a9cf5205c787eb81bb558c"
                            },
                            {
                                "decimalAvailable": true,
                                "name": "_value",
                                "type": "uint256",
                                "value": "36,858,000,000,000,000,000,000"
                            }
                        ],
                        "constructorArguments": "",
                        "name": "transfer",
                        "returnParams": [
                            {
                                "name": "success",
                                "type": "bool",
                                "value": true
                            }
                        ],
                        "signature": "transfer(address,uint256)"
                    },
                    "errorInfo": "",
                    "fromAddress": "0x91452794ca81769746c50a3d4773eff4e3f20742",
                    "gasUsed": 22958,
                    "id": 0,
                    "methodDecoded": true,
                    "operation": "CALL",
                    "output": "0x0000000000000000000000000000000000000000000000000000000000000001",
                    "revert": false,
                    "revertMessage": "",
                    "selector": "0xa9059cbb",
                    "status": true,
                    "value": "0"
                },
                "nodeType": 0
            },
            "1": {
                "event": {
                    "contract": "0xeda8b016efa8b1161208cf041cd86972eee0f31e",
                    "decodedLog": {
                        "name": "Transfer",
                        "params": [
                            {
                                "name": "from",
                                "type": "address",
                                "value": "0x91452794ca81769746c50a3d4773eff4e3f20742"
                            },
                            {
                                "name": "to",
                                "type": "address",
                                "value": "0x1c4b70a3968436b9a0a9cf5205c787eb81bb558c"
                            },
                            {
                                "decimalAvailable": true,
                                "name": "value",
                                "type": "uint256",
                                "value": "36,858,000,000,000,000,000,000"
                            }
                        ],
                        "signature": "Transfer(address,address,uint256)"
                    },
                    "id": 1,
                    "logData": "0x0000000000000000000000000000000000000000000007ce1380c5f253a80000",
                    "logDecoded": true,
                    "operation": "EVENT",
                    "revert": false,
                    "status": true,
                    "topics": [
                        "0xddf252ad1be2c89b69c2b068fc378daa952ba7f163c4a11628f55a4df523b3ef",
                        "0x00000000000000000000000091452794ca81769746c50a3d4773eff4e3f20742",
                        "0x0000000000000000000000001c4b70a3968436b9a0a9cf5205c787eb81bb558c"
                    ]
                },
                "nodeType": 1
            }
        },
        "gasFlame": [
            {
                "children": [
                    {
                        "children": [
                            {
                                "children": [],
                                "depth": 0,
                                "name": "Initial Gas",
                                "value": 23320
                            },
                            {
                                "children": [],
                                "depth": 0,
                                "name": "Executed Gas",
                                "value": 14638
                            }
                        ],
                        "depth": -1,
                        "name": "Actual Gas Used",
                        "value": 22958
                    },
                    {
                        "children": [],
                        "depth": -1,
                        "name": "Refunded Gas",
                        "value": 15000
                    }
                ],
                "depth": -2,
                "name": "Total Gas",
                "value": 37958
            }
        ],
        "isConfirmed": true,
        "mainTrace": [
            {
                "children": [
                    {
                        "children": [
                            {
                                "children": [],
                                "depth": 1,
                                "id": 1,
                                "order": 1
                            }
                        ],
                        "depth": 0,
                        "id": 0,
                        "order": 0
                    }
                ],
                "depth": -1,
                "id": -1,
                "order": -1
            }
        ],
        "mainTraceNodeCount": 2,
        "parentIdMap": {
            "0": -1,
            "1": 0
        },
        "tidyTrace": [
            {
                "children": [
                    {
                        "children": [
                            {
                                "children": [],
                                "depth": 1,
                                "id": 1,
                                "order": 1
                            }
                        ],
                        "depth": 0,
                        "id": 0,
                        "order": 0
                    }
                ],
                "depth": -1,
                "id": -1,
                "order": -1
            }
        ],
        "tidyTraceNodeCount": 2
    },
    "state_change": {
        "stateChanges": [
            {
                "address": "0xeda8b016efa8b1161208cf041cd86972eee0f31e",
                "erc": "ERC-20",
                "slots": [
                    {
                        "current": "0x0000000000000000000000000000000000000000000000000000000000000000",
                        "key": "0xf6a798f2606030733728d591224600b87a4148242f9f960318dde1d427f625d2",
                        "prev": "0x0000000000000000000000000000000000000000000007ce1380c5f253a80000"
                    },
                    {
                        "current": "0x000000000000000000000000000000000000000000f6709ed5056397adfa942a",
                        "key": "0x09f7f19c5dc289c9aab2c8cad21aa9dc0fc5f4b56417bc463e5e800485e849c2",
                        "prev": "0x000000000000000000000000000000000000000000f668d0c1849da55a52942a"
                    }
                ],
                "storageVariables": [
                    {
                        "name": "balances",
                        "type": "mapping(address => uint256)",
                        "value": {
                            "pairs": [
                                {
                                    "key": "0x1c4b70a3968436b9a0a9cf5205c787eb81bb558c",
                                    "value": {
                                        "current": "297927586606628231423104042",
                                        "prev": "297890728606628231423104042",
                                        "typeTag": 1
                                    }
                                },
                                {
                                    "key": "0x91452794ca81769746c50a3d4773eff4e3f20742",
                                    "value": {
                                        "current": "0",
                                        "prev": "36858000000000000000000",
                                        "typeTag": 1
                                    }
                                }
                            ],
                            "typeTag": 4
                        }
                    }
                ]
            }
        ]
    }
}