{
    "balance_change": {
        "balanceChanges": [
            {
                "account": "0x0aef7b88bf3bb98c1bb9c77d8780249f877e4aec",
                "assets": [
                    {
                        "address": "0xd9e24d0f97ab29d23734d5122f87e333a371321b",
                        "amount": "15.2387",
                        "iconUrl": "",
                        "isERC1155": false,
                        "isERC721": false,
                        "sign": false,
                        "value": ""
                    }
                ]
            },
            {
                "account": "0x2f7d3de6c44bf317d79a52070a5d919dce449bb6",
                "assets": [
                    {
                        "address": "0xd9e24d0f97ab29d23734d5122f87e333a371321b",
                        "amount": "15.2387",
                        "iconUrl": "",
                        "isERC1155": false,
                        "isERC721": false,
                        "sign": true,
                        "value": ""
                    }
                ]
            }
        ]
    },
    "profile": {
        "basic_info": {
            "baseFee": "",
            "blockNumber": 9256760,
            "callData": "0xa9059cbb0000000000000000000000002f7d3de6c44bf317d79a52070a5d919dce449bb6000000000000000000000000000000000000000000000000d37abce972bec000",
            "debugEnable": true,
            "errorInfo": "",
            "eventCount": 1,
            "feeRecipient": "0x5a0b54d5dc17e0aadc383d2db43b0a0d3e029c4c",
            "formatValue": "0",
            "gasLimit": 60000,
            "gasPrice": "8",
            "gasUsed": 36496,
            "intTxnCount": 0,
            "internalRevert": false,
            "internalRevertMessage": "",
            "isContractCreation": false,
            "isFlashloan": false,
            "maxFee": "",
            "nonce": 45589,
            "overwritedBlockNumber": -1,
            "priorityFee": "",
            "receiver": "0xd9e24d0f97ab29d23734d5122f87e333a371321b",
            "revertMessage": "",
            "sender": "0x0aef7b88bf3bb98c1bb9c77d8780249f877e4aec",
            "simulationEnable": true,
            "sourceTxnHash": "0x4926350c754686945c0ccdb6449fd309baa4b1f146a23f3158f149ff6f516731",
            "status": true,
            "timestamp": "2020-01-11T01:58:14Z",
            "transactionFee": "0.000291968",
            "txnHash": "0x4926350c754686945c0ccdb6449fd309baa4b1f146a23f3158f149ff6f516731",
            "txnIndex": 12,
            "type": 0,
            "value": "0"
        },
        "fund_flow": [
            {
                "amount": "15.2387",
                "from": "0x0aef7b88bf3bb98c1bb9c77d8780249f877e4aec",
                "id": 1,
                "isERC1155": false,
                "isERC721": false,
                "isReverted": false,
                "order": 1,
                "to": "0x2f7d3de6c44bf317d79a52070a5d919dce449bb6",
                "token": "0xd9e24d0f97ab29d23734d5122f87e333a371321b"
            }
        ],
        "token_infos": [
            {
                "address": "0xc02aaa39b223fe8d0a0e5c4f27ead9083c756cc2",
                "decimals": 18
            },
            {
                "address": "0xd9e24d0f97ab29d23734d5122f87e333a371321b",
                "decimals": 18
            },
            {
                "address": "0xeeeeeeeeeeeeeeeeeeeeeeeeeeeeeeeeeeeeeeee",
                "decimals": 18
            }
        ]
    },
    "address_label": {
        "labels": [
            {
                "address": "0x0000000000000000000000000000000000000004",
                "label": "Precompiled"
            },
            {
                "address": "0xeeeeeeeeeeeeeeeeeeeeeeeeeeeeeeeeeeeeeeee",
                "label": "Ether"
            },
            {
                "address": "0xd9e24d0f97ab29d23734d5122f87e333a371321b",
                "label": "Karl Benz (KAR)"
            },
            {
                "address": "0x0000000000000000000000000000000000000001",
                "label": "Precompiled"
            },
            {
                "address": "0x0000000000000000000000000000000000000002",
                "label": "Precompiled"
            },
            {
                "address": "0x0000000000000000000000000000000000000003",
                "label": "Precompiled"
            }
        ]
    },
    "trace": {
        "accountLabels": null,
        "dataMap": {
            "-1": {
                "invocation": {
                    "address": "0x0aef7b88bf3bb98c1bb9c77d8780249f877e4aec",
                    "callData": "",
                    "decodedMethod": null,
                    "errorInfo": "",
                    "fromAddress": "",
                    "gasUsed": 0,
                    "id": -1,
                    "methodDecoded": false,
                    "operation": "",
                    "output": "",
                    "revert": false,
                    "revertMessage": "",
                    "selector": "",
                    "status": false,
                    "value": ""
                },
                "nodeType": 0
            },
            "0": {
                "invocation": {
                    "address": "0xd9e24d0f97ab29d23734d5122f87e333a371321b",
                    "callData": "0x0000000000000000000000002f7d3de6c44bf317d79a52070a5d919dce449bb6000000000000000000000000000000000000000000000000d37abce972bec000",
                    "decodedMethod": {
                        "callParams": [
                            {
                                "name": "to",
                                "type": "address",
                                "value": "0x2f7d3de6c44bf317d79a52070a5d919dce449bb6"
                            },
                            {
                                "decimalAvailable": true,
                                "name": "value",
                                "type": "uint256",
                                "value": "15,238,700,000,000,000,000"
                            }
                        ],
                        "constructorArguments": "",
                        "name": "transfer",
                        "returnParams": [
                            {
                                "name": "success",
                                "type": "bool",
                                "value": true
                            }
                        ],
                        "signature": "transfer(address,uint256)"
                    },
                    "errorInfo": "",
                    "fromAddress": "0x0aef7b88bf3bb98c1bb9c77d8780249f877e4aec",
                    "gasUsed": 36496,
                    "id": 0,
                    "methodDecoded": true,
                    "operation": "CALL",
                    "output": "0x0000000000000000000000000000000000000000000000000000000000000001",
                    "revert": false,
                    "revertMessage": "",
                    "selector": "0xa9059cbb",
                    "status": true,
                    "value": "0"
                },
                "nodeType": 0
            },
            "1": {
                "event": {
                    "contract": "0xd9e24d0f97ab29d23734d5122f87e333a371321b",
                    "decodedLog": {
                        "name": "Transfer",
                        "params": [
                            {
                                "name": "from",
                                "type": "address",
                                "value": "0x0aef7b88bf3bb98c1bb9c77d8780249f877e4aec"
                            },
                            {
                                "name": "to",
                                "type": "address",
                                "value": "0x2f7d3de6c44bf317d79a52070a5d919dce449bb6"
                            },
                            {
                                "decimalAvailable": true,
                                "name": "value",
                                "type": "uint256",
                                "value": "15,238,700,000,000,000,000"
                            }
                        ],
                        "signature": "Transfer(address,address,uint256)"
                    },
                    "id": 1,
                    "logData": "0x000000000000000000000000000000000000000000000000d37abce972bec000",
                    "logDecoded": true,
                    "operation": "EVENT",
                    "revert": false,
                    "status": true,
                    "topics": [
                        "0xddf252ad1be2c89b69c2b068fc378daa952ba7f163c4a11628f55a4df523b3ef",
                        "0x0000000000000000000000000aef7b88bf3bb98c1bb9c77d8780249f877e4aec",
                        "0x0000000000000000000000002f7d3de6c44bf317d79a52070a5d919dce449bb6"
                    ]
                },
                "nodeType": 1
            }
        },
        "gasFlame": [
            {
                "children": [
                    {
                        "children": [
                            {
                                "children": [],
                                "depth": 0,
                                "name": "Initial Gas",
                                "value": 21644
                            },
                            {
                                "children": [],
                                "depth": 0,
                                "name": "Executed Gas",
                                "value": 14852
                            }
                        ],
                        "depth": -1,
                        "name": "Actual Gas Used",
                        "value": 36496
                    },
                    {
                        "children": [],
                        "depth": -1,
                        "name": "Refunded Gas",
                        "value": 0
                    }
                ],
                "depth": -2,
                "name": "Total Gas",
                "value": 36496
            }
        ],
        "isConfirmed": true,
        "mainTrace": [
            {
                "children": [
                    {
                        "children": [
                            {
                                "children": [],
                                "depth": 1,
                                "id": 1,
                                "order": 1
                            }
                        ],
                        "depth": 0,
                        "id": 0,
                        "order": 0
                    }
                ],
                "depth": -1,
                "id": -1,
                "order": -1
            }
        ],
        "mainTraceNodeCount": 2,
        "parentIdMap": {
            "0": -1,
            "1": 0
        },
        "tidyTrace": [
            {
                "children": [
                    {
                        "children": [
                            {
                                "children": [],
                                "depth": 1,
                                "id": 1,
                                "order": 1
                            }
                        ],
                        "depth": 0,
                        "id": 0,
                        "order": 0
                    }
                ],
                "depth": -1,
                "id": -1,
                "order": -1
            }
        ],
        "tidyTraceNodeCount": 2
    },
    "state_change": {
        "stateChanges": [
            {
                "address": "0xd9e24d0f97ab29d23734d5122f87e333a371321b",
                "erc": "ERC-20",
                "slots": [
                    {
                        "current": "0x0000000000000000000000000000000000000000000057bbdd233e6ff76b8000",
                        "key": "0xb127fe7b50da956662e70e5d8127777c002103dcdc554bdc0ed3401e32796d68",
                        "prev": "0x0000000000000000000000000000000000000000000057bcb09dfb596a2a4000"
                    },
                    {
                        "current": "0x0000000000000000000000000000000000000000000000022b993f55bf3dc000",
                        "key": "0x6e5ff71b0c84cbbda1d49297d9f12fa02475e895ad7d911f7be7daa4054e22f5",
                        "prev": "0x000000000000000000000000000000000000000000000001581e826c4c7f0000"
                    }
                ],
                "storageVariables": [
                    {
                        "name": "balanceOf",
                        "type": "mapping(address => uint256)",
                        "value": {
                            "pairs": [
                                {
                                    "key": "0x0aef7b88bf3bb98c1bb9c77d8780249f877e4aec",
                                    "value": {
                                        "current": "414311359800000000000000",
                                        "prev": "414326598500000000000000",
                                        "typeTag": 1
                                    }
                                },
                                {
                                    "key": "0x2f7d3de6c44bf317d79a52070a5d919dce449bb6",
                                    "value": {
                                        "current": "40035100000000000000",
                                        "prev": "24796400000000000000",
                                        "typeTag": 1
                                    }
                                }
                            ],
                            "typeTag": 4
                        }
                    }
                ]
            }
        ]
    }
}