{
    "balance_change": {
        "balanceChanges": [
            {
                "account": "0x9f5b0c7e1623793bf0620569b9749e79df6d0bc5",
                "assets": [
                    {
                        "address": "0xaa6bf83784570ce6e114aec683b6b23ca30cf763",
                        "amount": "50",
                        "iconUrl": "",
                        "isERC1155": false,
                        "isERC721": false,
                        "sign": false,
                        "value": ""
                    }
                ]
            },
            {
                "account": "0xf44d8d92aca584e1e238f88a3fcd1fbb7b7bc3d0",
                "assets": [
                    {
                        "address": "0xaa6bf83784570ce6e114aec683b6b23ca30cf763",
                        "amount": "50",
                        "iconUrl": "",
                        "isERC1155": false,
                        "isERC721": false,
                        "sign": true,
                        "value": ""
                    }
                ]
            }
        ]
    },
    "profile": {
        "basic_info": {
            "baseFee": "",
            "blockNumber": 7991306,
            "callData": "0xa9059cbb000000000000000000000000f44d8d92aca584e1e238f88a3fcd1fbb7b7bc3d0000000000000000000000000000000000000000000000000000000012a05f200",
            "debugEnable": true,
            "errorInfo": "",
            "eventCount": 1,
            "feeRecipient": "0x52bc44d5378309ee2abf1539bf71de1b7d7be3b5",
            "formatValue": "0",
            "gasLimit": 90000,
            "gasPrice": "3",
            "gasUsed": 51695,
            "intTxnCount": 0,
            "internalRevert": false,
            "internalRevertMessage": "",
            "isContractCreation": false,
            "isFlashloan": false,
            "maxFee": "",
            "nonce": 9581,
            "overwritedBlockNumber": -1,
            "priorityFee": "",
            "receiver": "0xaa6bf83784570ce6e114aec683b6b23ca30cf763",
            "revertMessage": "",
            "sender": "0x9f5b0c7e1623793bf0620569b9749e79df6d0bc5",
            "simulationEnable": true,
            "sourceTxnHash": "0x4a4debe213566bf369f4ddd3c9759678f9e49621468d1ae128b29e5585283328",
            "status": true,
            "timestamp": "2019-06-19T22:11:48Z",
            "transactionFee": "0.000155085",
            "txnHash": "0x4a4debe213566bf369f4ddd3c9759678f9e49621468d1ae128b29e5585283328",
            "txnIndex": 105,
            "type": 0,
            "value": "0"
        },
        "fund_flow": [
            {
                "amount": "50",
                "from": "0x9f5b0c7e1623793bf0620569b9749e79df6d0bc5",
                "id": 1,
                "isERC1155": false,
                "isERC721": false,
                "isReverted": false,
                "order": 1,
                "to": "0xf44d8d92aca584e1e238f88a3fcd1fbb7b7bc3d0",
                "token": "0xaa6bf83784570ce6e114aec683b6b23ca30cf763"
            }
        ],
        "token_infos": [
            {
                "address": "0xaa6bf83784570ce6e114aec683b6b23ca30cf763",
                "decimals": 8
            },
            {
                "address": "0xc02aaa39b223fe8d0a0e5c4f27ead9083c756cc2",
                "decimals": 18
            },
            {
                "address": "0xeeeeeeeeeeeeeeeeeeeeeeeeeeeeeeeeeeeeeeee",
                "decimals": 18
            }
        ]
    },
    "address_label": {
        "labels": [
            {
                "address": "0x0000000000000000000000000000000000000002",
                "label": "Precompiled"
            },
            {
                "address": "0x0000000000000000000000000000000000000003",
                "label": "Precompiled"
            },
            {
                "address": "0x0000000000000000000000000000000000000004",
                "label": "Precompiled"
            },
            {
                "address": "0xeeeeeeeeeeeeeeeeeeeeeeeeeeeeeeeeeeeeeeee",
                "label": "Ether"
            },
            {
                "address": "0xaa6bf83784570ce6e114aec683b6b23ca30cf763",
                "label": "Osmium Investment Coin (OICOIN)"
            },
            {
                "address": "0x0000000000000000000000000000000000000001",
                "label": "Precompiled"
            }
        ]
    },
    "trace": {
        "accountLabels": null,
        "dataMap": {
            "-1": {
                "invocation": {
                    "address": "0x9f5b0c7e1623793bf0620569b9749e79df6d0bc5",
                    "callData": "",
                    "decodedMethod": null,
                    "errorInfo": "",
                    "fromAddress": "",
                    "gasUsed": 0,
                    "id": -1,
                    "methodDecoded": false,
                    "operation": "",
                    "output": "",
                    "revert": false,
                    "revertMessage": "",
                    "selector": "",
                    "status": false,
                    "value": ""
                },
                "nodeType": 0
            },
            "0": {
                "invocation": {
                    "address": "0xaa6bf83784570ce6e114aec683b6b23ca30cf763",
                    "callData": "0x000000000000000000000000f44d8d92aca584e1e238f88a3fcd1fbb7b7bc3d0000000000000000000000000000000000000000000000000000000012a05f200",
                    "decodedMethod": {
                        "callParams": [
                            {
                                "name": "_to",
                                "type": "address",
                                "value": "0xf44d8d92aca584e1e238f88a3fcd1fbb7b7bc3d0"
                            },
                            {
                                "decimalAvailable": true,
                                "name": "_value",
                                "type": "uint256",
                                "value": "5,000,000,000"
                            }
                        ],
                        "constructorArguments": "",
                        "name": "transfer",
                        "returnParams": [
                            {
                                "name": "",
                                "type": "bool",
                                "value": true
                            }
                        ],
                        "signature": "transfer(address,uint256)"
                    },
                    "errorInfo": "",
                    "fromAddress": "0x9f5b0c7e1623793bf0620569b9749e79df6d0bc5",
                    "gasUsed": 51695,
                    "id": 0,
                    "methodDecoded": true,
                    "operation": "CALL",
                    "output": "0x0000000000000000000000000000000000000000000000000000000000000001",
                    "revert": false,
                    "revertMessage": "",
                    "selector": "0xa9059cbb",
                    "status": true,
                    "value": "0"
                },
                "nodeType": 0
            },
            "1": {
                "event": {
                    "contract": "0xaa6bf83784570ce6e114aec683b6b23ca30cf763",
                    "decodedLog": {
                        "name": "Transfer",
                        "params": [
                            {
                                "name": "from",
                                "type": "address",
                                "value": "0x9f5b0c7e1623793bf0620569b9749e79df6d0bc5"
                            },
                            {
                                "name": "to",
                                "type": "address",
                                "value": "0xf44d8d92aca584e1e238f88a3fcd1fbb7b7bc3d0"
                            },
                            {
                                "decimalAvailable": true,
                                "name": "value",
                                "type": "uint256",
                                "value": "5,000,000,000"
                            }
                        ],
                        "signature": "Transfer(address,address,uint256)"
                    },
                    "id": 1,
                    "logData": "0x000000000000000000000000000000000000000000000000000000012a05f200",
                    "logDecoded": true,
                    "operation": "EVENT",
                    "revert": false,
                    "status": true,
                    "topics": [
                        "0xddf252ad1be2c89b69c2b068fc378daa952ba7f163c4a11628f55a4df523b3ef",
                        "0x0000000000000000000000009f5b0c7e1623793bf0620569b9749e79df6d0bc5",
                        "0x000000000000000000000000f44d8d92aca584e1e238f88a3fcd1fbb7b7bc3d0"
                    ]
                },
                "nodeType": 1
            }
        },
        "gasFlame": [
            {
                "children": [
                    {
                        "children": [
                            {
                                "children": [],
                                "depth": 0,
                                "name": "Initial Gas",
                                "value": 23064
                            },
                            {
                                "children": [],
                                "depth": 0,
                                "name": "Executed Gas",
                                "value": 28631
                            }
                        ],
                        "depth": -1,
                        "name": "Actual Gas Used",
                        "value": 51695
                    },
                    {
                        "children": [],
                        "depth": -1,
                        "name": "Refunded Gas",
                        "value": 0
                    }
                ],
                "depth": -2,
                "name": "Total Gas",
                "value": 51695
            }
        ],
        "isConfirmed": true,
        "mainTrace": [
            {
                "children": [
                    {
                        "children": [
                            {
                                "children": [],
                                "depth": 1,
                                "id": 1,
                                "order": 1
                            }
                        ],
                        "depth": 0,
                        "id": 0,
                        "order": 0
                    }
                ],
                "depth": -1,
                "id": -1,
                "order": -1
            }
        ],
        "mainTraceNodeCount": 2,
        "parentIdMap": {
            "0": -1,
            "1": 0
        },
        "tidyTrace": [
            {
                "children": [
                    {
                        "children": [
                            {
                                "children": [],
                                "depth": 1,
                                "id": 1,
                                "order": 1
                            }
                        ],
                        "depth": 0,
                        "id": 0,
                        "order": 0
                    }
                ],
                "depth": -1,
                "id": -1,
                "order": -1
            }
        ],
        "tidyTraceNodeCount": 2
    },
    "state_change": {
        "stateChanges": [
            {
                "address": "0xaa6bf83784570ce6e114aec683b6b23ca30cf763",
                "erc": "ERC-20",
                "slots": [
                    {
                        "current": "0x00000000000000000000000000000000000000000000000000563920449d1b7f",
                        "key": "0x9b81c5a961913ae8fdc429455543e0e3ddeaea7b16fcf4b80fb398d412ef0838",
                        "prev": "0x000000000000000000000000000000000000000000000000005639216ea30d7f"
                    },
                    {
                        "current": "0x000000000000000000000000000000000000000000000000000000012a05f200",
                        "key": "0x887b682f96ec72234c888663cf15d6061bec5fc24f949b314b8b31983be7b204",
                        "prev": "0x0000000000000000000000000000000000000000000000000000000000000000"
                    }
                ],
                "storageVariables": [
                    {
                        "name": "balances",
                        "type": "mapping(address => uint256)",
                        "value": {
                            "pairs": [
                                {
                                    "key": "0x9f5b0c7e1623793bf0620569b9749e79df6d0bc5",
                                    "value": {
                                        "current": "24269658749999999",
                                        "prev": "24269663749999999",
                                        "typeTag": 1
                                    }
                                },
                                {
                                    "key": "0xf44d8d92aca584e1e238f88a3fcd1fbb7b7bc3d0",
                                    "value": {
                                        "current": "5000000000",
                                        "prev": "0",
                                        "typeTag": 1
                                    }
                                }
                            ],
                            "typeTag": 4
                        }
                    }
                ]
            }
        ]
    }
}