{
    "balance_change": {
        "balanceChanges": [
            {
                "account": "0xaef8951a0cbd763e0b892486bc948511c0209340",
                "assets": [
                    {
                        "address": "0xe251524df2bc0b83716749dc71975f173a5ef35c",
                        "amount": "2,320",
                        "iconUrl": "",
                        "isERC1155": false,
                        "isERC721": false,
                        "sign": false,
                        "value": ""
                    }
                ]
            },
            {
                "account": "0xbd75e5b512f240cdb37aed1f1c80fa0ff362dd81",
                "assets": [
                    {
                        "address": "0xe251524df2bc0b83716749dc71975f173a5ef35c",
                        "amount": "2,320",
                        "iconUrl": "",
                        "isERC1155": false,
                        "isERC721": false,
                        "sign": true,
                        "value": ""
                    }
                ]
            }
        ]
    },
    "profile": {
        "basic_info": {
            "baseFee": "",
            "blockNumber": 7681085,
            "callData": "0xa9059cbb000000000000000000000000bd75e5b512f240cdb37aed1f1c80fa0ff362dd81000000000000000000000000000000000000000000000000000000008a486400",
            "debugEnable": true,
            "errorInfo": "",
            "eventCount": 1,
            "feeRecipient": "0x5a0b54d5dc17e0aadc383d2db43b0a0d3e029c4c",
            "formatValue": "0",
            "gasLimit": 3000000,
            "gasPrice": "10",
            "gasUsed": 36458,
            "intTxnCount": 0,
            "internalRevert": false,
            "internalRevertMessage": "",
            "isContractCreation": false,
            "isFlashloan": false,
            "maxFee": "",
            "nonce": 14071,
            "overwritedBlockNumber": -1,
            "priorityFee": "",
            "receiver": "0xe251524df2bc0b83716749dc71975f173a5ef35c",
            "revertMessage": "",
            "sender": "0xaef8951a0cbd763e0b892486bc948511c0209340",
            "simulationEnable": true,
            "sourceTxnHash": "0x4ade7336ac1e4187ed4ebc34d489f21fb05ee67b9d37eb58fee84515b9d5e194",
            "status": true,
            "timestamp": "2019-05-02T10:31:08Z",
            "transactionFee": "0.00036458",
            "txnHash": "0x4ade7336ac1e4187ed4ebc34d489f21fb05ee67b9d37eb58fee84515b9d5e194",
            "txnIndex": 33,
            "type": 0,
            "value": "0"
        },
        "fund_flow": [
            {
                "amount": "2,320",
                "from": "0xaef8951a0cbd763e0b892486bc948511c0209340",
                "id": 1,
                "isERC1155": false,
                "isERC721": false,
                "isReverted": false,
                "order": 1,
                "to": "0xbd75e5b512f240cdb37aed1f1c80fa0ff362dd81",
                "token": "0xe251524df2bc0b83716749dc71975f173a5ef35c"
            }
        ],
        "token_infos": [
            {
                "address": "0xc02aaa39b223fe8d0a0e5c4f27ead9083c756cc2",
                "decimals": 18
            },
            {
                "address": "0xe251524df2bc0b83716749dc71975f173a5ef35c",
                "decimals": 6
            },
            {
                "address": "0xeeeeeeeeeeeeeeeeeeeeeeeeeeeeeeeeeeeeeeee",
                "decimals": 18
            }
        ]
    },
    "address_label": {
        "labels": [
            {
                "address": "0xeeeeeeeeeeeeeeeeeeeeeeeeeeeeeeeeeeeeeeee",
                "label": "Ether"
            },
            {
                "address": "0xe251524df2bc0b83716749dc71975f173a5ef35c",
                "label": "IPMCOIN (IPM)"
            },
            {
                "address": "0x0000000000000000000000000000000000000001",
                "label": "Precompiled"
            },
            {
                "address": "0x0000000000000000000000000000000000000002",
                "label": "Precompiled"
            },
            {
                "address": "0x0000000000000000000000000000000000000003",
                "label": "Precompiled"
            },
            {
                "address": "0x0000000000000000000000000000000000000004",
                "label": "Precompiled"
            }
        ]
    },
    "trace": {
        "accountLabels": null,
        "dataMap": {
            "-1": {
                "invocation": {
                    "address": "0xaef8951a0cbd763e0b892486bc948511c0209340",
                    "callData": "",
                    "decodedMethod": null,
                    "errorInfo": "",
                    "fromAddress": "",
                    "gasUsed": 0,
                    "id": -1,
                    "methodDecoded": false,
                    "operation": "",
                    "output": "",
                    "revert": false,
                    "revertMessage": "",
                    "selector": "",
                    "status": false,
                    "value": ""
                },
                "nodeType": 0
            },
            "0": {
                "invocation": {
                    "address": "0xe251524df2bc0b83716749dc71975f173a5ef35c",
                    "callData": "0x000000000000000000000000bd75e5b512f240cdb37aed1f1c80fa0ff362dd81000000000000000000000000000000000000000000000000000000008a486400",
                    "decodedMethod": {
                        "callParams": [
                            {
                                "name": "_to",
                                "type": "address",
                                "value": "0xbd75e5b512f240cdb37aed1f1c80fa0ff362dd81"
                            },
                            {
                                "decimalAvailable": true,
                                "name": "_value",
                                "type": "uint256",
                                "value": "2,320,000,000"
                            }
                        ],
                        "constructorArguments": "",
                        "name": "transfer",
                        "returnParams": [
                            {
                                "name": "success",
                                "type": "bool",
                                "value": true
                            }
                        ],
                        "signature": "transfer(address,uint256)"
                    },
                    "errorInfo": "",
                    "fromAddress": "0xaef8951a0cbd763e0b892486bc948511c0209340",
                    "gasUsed": 36458,
                    "id": 0,
                    "methodDecoded": true,
                    "operation": "CALL",
                    "output": "0x0000000000000000000000000000000000000000000000000000000000000001",
                    "revert": false,
                    "revertMessage": "",
                    "selector": "0xa9059cbb",
                    "status": true,
                    "value": "0"
                },
                "nodeType": 0
            },
            "1": {
                "event": {
                    "contract": "0xe251524df2bc0b83716749dc71975f173a5ef35c",
                    "decodedLog": {
                        "name": "Transfer",
                        "params": [
                            {
                                "name": "_from",
                                "type": "address",
                                "value": "0xaef8951a0cbd763e0b892486bc948511c0209340"
                            },
                            {
                                "name": "_to",
                                "type": "address",
                                "value": "0xbd75e5b512f240cdb37aed1f1c80fa0ff362dd81"
                            },
                            {
                                "decimalAvailable": true,
                                "name": "_value",
                                "type": "uint256",
                                "value": "2,320,000,000"
                            }
                        ],
                        "signature": "Transfer(address,address,uint256)"
                    },
                    "id": 1,
                    "logData": "0x000000000000000000000000000000000000000000000000000000008a486400",
                    "logDecoded": true,
                    "operation": "EVENT",
                    "revert": false,
                    "status": true,
                    "topics": [
                        "0xddf252ad1be2c89b69c2b068fc378daa952ba7f163c4a11628f55a4df523b3ef",
                        "0x000000000000000000000000aef8951a0cbd763e0b892486bc948511c0209340",
                        "0x000000000000000000000000bd75e5b512f240cdb37aed1f1c80fa0ff362dd81"
                    ]
                },
                "nodeType": 1
            }
        },
        "gasFlame": [
            {
                "children": [
                    {
                        "children": [
                            {
                                "children": [],
                                "depth": 0,
                                "name": "Initial Gas",
                                "value": 23000
                            },
                            {
                                "children": [],
                                "depth": 0,
                                "name": "Executed Gas",
                                "value": 13458
                            }
                        ],
                        "depth": -1,
                        "name": "Actual Gas Used",
                        "value": 36458
                    },
                    {
                        "children": [],
                        "depth": -1,
                        "name": "Refunded Gas",
                        "value": 0
                    }
                ],
                "depth": -2,
                "name": "Total Gas",
                "value": 36458
            }
        ],
        "isConfirmed": true,
        "mainTrace": [
            {
                "children": [
                    {
                        "children": [
                            {
                                "children": [],
                                "depth": 1,
                                "id": 1,
                                "order": 1
                            }
                        ],
                        "depth": 0,
                        "id": 0,
                        "order": 0
                    }
                ],
                "depth": -1,
                "id": -1,
                "order": -1
            }
        ],
        "mainTraceNodeCount": 2,
        "parentIdMap": {
            "0": -1,
            "1": 0
        },
        "tidyTrace": [
            {
                "children": [
                    {
                        "children": [
                            {
                                "children": [],
                                "depth": 1,
                                "id": 1,
                                "order": 1
                            }
                        ],
                        "depth": 0,
                        "id": 0,
                        "order": 0
                    }
                ],
                "depth": -1,
                "id": -1,
                "order": -1
            }
        ],
        "tidyTraceNodeCount": 2
    },
    "state_change": {
        "stateChanges": [
            {
                "address": "0xe251524df2bc0b83716749dc71975f173a5ef35c",
                "erc": "ERC-20",
                "slots": [
                    {
                        "current": "0x0000000000000000000000000000000000000000000000000000302fcc7310f2",
                        "key": "0x558d7d32c08687c945e28d79a4c3cb79b8b10dff630eb40d1bfe3e9d285eb3f8",
                        "prev": "0x0000000000000000000000000000000000000000000000000000303056bb74f2"
                    },
                    {
                        "current": "0x000000000000000000000000000000000000000000000000000000053feecbaa",
                        "key": "0x326ee0d38bef63b6321d39edfe7a400e59017fb73b127b671303bb9a252e17a4",
                        "prev": "0x00000000000000000000000000000000000000000000000000000004b5a667aa"
                    }
                ],
                "storageVariables": [
                    {
                        "name": "balances",
                        "type": "mapping(address => uint256)",
                        "value": {
                            "pairs": [
                                {
                                    "key": "0xaef8951a0cbd763e0b892486bc948511c0209340",
                                    "value": {
                                        "current": "52981851689202",
                                        "prev": "52984171689202",
                                        "typeTag": 1
                                    }
                                },
                                {
                                    "key": "0xbd75e5b512f240cdb37aed1f1c80fa0ff362dd81",
                                    "value": {
                                        "current": "22547450794",
                                        "prev": "20227450794",
                                        "typeTag": 1
                                    }
                                }
                            ],
                            "typeTag": 4
                        }
                    }
                ]
            }
        ]
    }
}