{
    "balance_change": {
        "balanceChanges": [
            {
                "account": "0x0c4b63063bedef6ea8a2f0a35110a070510821b0",
                "assets": [
                    {
                        "address": "0xb7fbe91752dd926a5ea103f1b2e8b6fd2cee4d91",
                        "amount": "13.045448",
                        "iconUrl": "",
                        "isERC1155": false,
                        "isERC721": false,
                        "sign": false,
                        "value": ""
                    }
                ]
            },
            {
                "account": "0xda34dd49b60499265bb23689906d52bb431d2798",
                "assets": [
                    {
                        "address": "0xb7fbe91752dd926a5ea103f1b2e8b6fd2cee4d91",
                        "amount": "13.045448",
                        "iconUrl": "",
                        "isERC1155": false,
                        "isERC721": false,
                        "sign": true,
                        "value": ""
                    }
                ]
            }
        ]
    },
    "profile": {
        "basic_info": {
            "baseFee": "",
            "blockNumber": 9121571,
            "callData": "0xa9059cbb000000000000000000000000da34dd49b60499265bb23689906d52bb431d27980000000000000000000000000000000000000000000000000000000000c70ec8",
            "debugEnable": true,
            "errorInfo": "",
            "eventCount": 1,
            "feeRecipient": "0x829bd824b016326a401d083b33d092293333a830",
            "formatValue": "0",
            "gasLimit": 60000,
            "gasPrice": "20",
            "gasUsed": 40631,
            "intTxnCount": 0,
            "internalRevert": false,
            "internalRevertMessage": "",
            "isContractCreation": false,
            "isFlashloan": false,
            "maxFee": "",
            "nonce": 59723,
            "overwritedBlockNumber": -1,
            "priorityFee": "",
            "receiver": "0xb7fbe91752dd926a5ea103f1b2e8b6fd2cee4d91",
            "revertMessage": "",
            "sender": "0x0c4b63063bedef6ea8a2f0a35110a070510821b0",
            "simulationEnable": true,
            "sourceTxnHash": "0x4a28ae42a1bb84e024885bed54599ac3c8270c36c67085602f1f0f73ef5e0507",
            "status": true,
            "timestamp": "2019-12-17T17:09:04Z",
            "transactionFee": "0.00081262",
            "txnHash": "0x4a28ae42a1bb84e024885bed54599ac3c8270c36c67085602f1f0f73ef5e0507",
            "txnIndex": 15,
            "type": 0,
            "value": "0"
        },
        "fund_flow": [
            {
                "amount": "13.045448",
                "from": "0x0c4b63063bedef6ea8a2f0a35110a070510821b0",
                "id": 1,
                "isERC1155": false,
                "isERC721": false,
                "isReverted": false,
                "order": 1,
                "to": "0xda34dd49b60499265bb23689906d52bb431d2798",
                "token": "0xb7fbe91752dd926a5ea103f1b2e8b6fd2cee4d91"
            }
        ],
        "token_infos": [
            {
                "address": "0xb7fbe91752dd926a5ea103f1b2e8b6fd2cee4d91",
                "decimals": 6
            },
            {
                "address": "0xc02aaa39b223fe8d0a0e5c4f27ead9083c756cc2",
                "decimals": 18
            },
            {
                "address": "0xeeeeeeeeeeeeeeeeeeeeeeeeeeeeeeeeeeeeeeee",
                "decimals": 18
            }
        ]
    },
    "address_label": {
        "labels": [
            {
                "address": "0x0000000000000000000000000000000000000002",
                "label": "Precompiled"
            },
            {
                "address": "0x0000000000000000000000000000000000000003",
                "label": "Precompiled"
            },
            {
                "address": "0x0000000000000000000000000000000000000004",
                "label": "Precompiled"
            },
            {
                "address": "0xeeeeeeeeeeeeeeeeeeeeeeeeeeeeeeeeeeeeeeee",
                "label": "Ether"
            },
            {
                "address": "0xb7fbe91752dd926a5ea103f1b2e8b6fd2cee4d91",
                "label": "Global Environment Fund (GEF)"
            },
            {
                "address": "0x0000000000000000000000000000000000000001",
                "label": "Precompiled"
            }
        ]
    },
    "trace": {
        "accountLabels": null,
        "dataMap": {
            "-1": {
                "invocation": {
                    "address": "0x0c4b63063bedef6ea8a2f0a35110a070510821b0",
                    "callData": "",
                    "decodedMethod": null,
                    "errorInfo": "",
                    "fromAddress": "",
                    "gasUsed": 0,
                    "id": -1,
                    "methodDecoded": false,
                    "operation": "",
                    "output": "",
                    "revert": false,
                    "revertMessage": "",
                    "selector": "",
                    "status": false,
                    "value": ""
                },
                "nodeType": 0
            },
            "0": {
                "invocation": {
                    "address": "0xb7fbe91752dd926a5ea103f1b2e8b6fd2cee4d91",
                    "callData": "0x000000000000000000000000da34dd49b60499265bb23689906d52bb431d27980000000000000000000000000000000000000000000000000000000000c70ec8",
                    "decodedMethod": {
                        "callParams": [
                            {
                                "name": "_to",
                                "type": "address",
                                "value": "0xda34dd49b60499265bb23689906d52bb431d2798"
                            },
                            {
                                "decimalAvailable": true,
                                "name": "_value",
                                "type": "uint256",
                                "value": "13,045,448"
                            }
                        ],
                        "constructorArguments": "",
                        "name": "transfer",
                        "returnParams": [
                            {
                                "name": "success",
                                "type": "bool",
                                "value": true
                            }
                        ],
                        "signature": "transfer(address,uint256)"
                    },
                    "errorInfo": "",
                    "fromAddress": "0x0c4b63063bedef6ea8a2f0a35110a070510821b0",
                    "gasUsed": 40631,
                    "id": 0,
                    "methodDecoded": true,
                    "operation": "CALL",
                    "output": "0x0000000000000000000000000000000000000000000000000000000000000001",
                    "revert": false,
                    "revertMessage": "",
                    "selector": "0xa9059cbb",
                    "status": true,
                    "value": "0"
                },
                "nodeType": 0
            },
            "1": {
                "event": {
                    "contract": "0xb7fbe91752dd926a5ea103f1b2e8b6fd2cee4d91",
                    "decodedLog": {
                        "name": "Transfer",
                        "params": [
                            {
                                "name": "from",
                                "type": "address",
                                "value": "0x0c4b63063bedef6ea8a2f0a35110a070510821b0"
                            },
                            {
                                "name": "to",
                                "type": "address",
                                "value": "0xda34dd49b60499265bb23689906d52bb431d2798"
                            },
                            {
                                "decimalAvailable": true,
                                "name": "value",
                                "type": "uint256",
                                "value": "13,045,448"
                            }
                        ],
                        "signature": "Transfer(address,address,uint256)"
                    },
                    "id": 1,
                    "logData": "0x0000000000000000000000000000000000000000000000000000000000c70ec8",
                    "logDecoded": true,
                    "operation": "EVENT",
                    "revert": false,
                    "status": true,
                    "topics": [
                        "0xddf252ad1be2c89b69c2b068fc378daa952ba7f163c4a11628f55a4df523b3ef",
                        "0x0000000000000000000000000c4b63063bedef6ea8a2f0a35110a070510821b0",
                        "0x000000000000000000000000da34dd49b60499265bb23689906d52bb431d2798"
                    ]
                },
                "nodeType": 1
            }
        },
        "gasFlame": [
            {
                "children": [
                    {
                        "children": [
                            {
                                "children": [],
                                "depth": 0,
                                "name": "Initial Gas",
                                "value": 21596
                            },
                            {
                                "children": [],
                                "depth": 0,
                                "name": "Executed Gas",
                                "value": 19035
                            }
                        ],
                        "depth": -1,
                        "name": "Actual Gas Used",
                        "value": 40631
                    },
                    {
                        "children": [],
                        "depth": -1,
                        "name": "Refunded Gas",
                        "value": 0
                    }
                ],
                "depth": -2,
                "name": "Total Gas",
                "value": 40631
            }
        ],
        "isConfirmed": true,
        "mainTrace": [
            {
                "children": [
                    {
                        "children": [
                            {
                                "children": [],
                                "depth": 1,
                                "id": 1,
                                "order": 1
                            }
                        ],
                        "depth": 0,
                        "id": 0,
                        "order": 0
                    }
                ],
                "depth": -1,
                "id": -1,
                "order": -1
            }
        ],
        "mainTraceNodeCount": 2,
        "parentIdMap": {
            "0": -1,
            "1": 0
        },
        "tidyTrace": [
            {
                "children": [
                    {
                        "children": [
                            {
                                "children": [],
                                "depth": 1,
                                "id": 1,
                                "order": 1
                            }
                        ],
                        "depth": 0,
                        "id": 0,
                        "order": 0
                    }
                ],
                "depth": -1,
                "id": -1,
                "order": -1
            }
        ],
        "tidyTraceNodeCount": 2
    },
    "state_change": {
        "stateChanges": [
            {
                "address": "0xb7fbe91752dd926a5ea103f1b2e8b6fd2cee4d91",
                "erc": "ERC-20",
                "slots": [
                    {
                        "current": "0x0000000000000000000000000000000000000000000000000000000003f2580e",
                        "key": "0xfe91ba4a3856ba7d04dc9f1d2f1473caa5caab14abeb5a5cbb93b254f9307dc0",
                        "prev": "0x00000000000000000000000000000000000000000000000000000000032b4946"
                    },
                    {
                        "current": "0x0000000000000000000000000000000000000000000000000000000d5ab6ae74",
                        "key": "0x29ce8b021128e965f998abc67e2e0f3e426aef3d22648b9f53f7bd1120316cd7",
                        "prev": "0x0000000000000000000000000000000000000000000000000000000d5b7dbd3c"
                    }
                ],
                "storageVariables": [
                    {
                        "name": "balanceOf",
                        "type": "mapping(address => uint256)",
                        "value": {
                            "pairs": [
                                {
                                    "key": "0x0c4b63063bedef6ea8a2f0a35110a070510821b0",
                                    "value": {
                                        "current": "57356496500",
                                        "prev": "57369541948",
                                        "typeTag": 1
                                    }
                                },
                                {
                                    "key": "0xda34dd49b60499265bb23689906d52bb431d2798",
                                    "value": {
                                        "current": "66213902",
                                        "prev": "53168454",
                                        "typeTag": 1
                                    }
                                }
                            ],
                            "typeTag": 4
                        }
                    }
                ]
            }
        ]
    }
}