{
    "balance_change": {
        "balanceChanges": [
            {
                "account": "0xf433750b4b3407104e53556fd9c6596c0434acf9",
                "assets": [
                    {
                        "address": "0xeeeeeeeeeeeeeeeeeeeeeeeeeeeeeeeeeeeeeeee",
                        "amount": "0.01338",
                        "iconUrl": "https://assets.blocksec.com/image/1663669189317-3.png",
                        "isERC1155": false,
                        "isERC721": false,
                        "sign": false,
                        "value": "34.5562607"
                    }
                ]
            },
            {
                "account": "0x5fdcca53617f4d2b9134b29090c87d01058e27e9",
                "assets": [
                    {
                        "address": "0xeeeeeeeeeeeeeeeeeeeeeeeeeeeeeeeeeeeeeeee",
                        "amount": "0.01338",
                        "iconUrl": "https://assets.blocksec.com/image/1663669189317-3.png",
                        "isERC1155": false,
                        "isERC721": false,
                        "sign": true,
                        "value": "34.5562607"
                    }
                ]
            }
        ]
    },
    "profile": {
        "basic_info": {
            "baseFee": "34.295785352",
            "blockNumber": 14380191,
            "callData": "0x8bdb9f80000000000000000000000000f433750b4b3407104e53556fd9c6596c0434acf903fbd3a618e41c0591e7e9abe26d3e3a9f44d1c1d931e52d32427a0b0032a8bf00000000000000000000000000000000000000000000000000000000000000a002705737cd248ac819034b5de474c8f0368224f72a0fda9e031499d519992d9e00000000000000000000000000000000000000000000000000000000019effd60000000000000000000000000000000000000000000000000000000000000041209faf9f075a749dcab5fccd80ecdce96e794d19b77aac07716d71ea1d02493925f0f4636a79035b34ee7758437e58e02ba0e2286507e35ed2078f094ff6142f1c00000000000000000000000000000000000000000000000000000000000000",
            "debugEnable": true,
            "errorInfo": "",
            "eventCount": 2,
            "feeRecipient": "0xea674fdde714fd979de3edf0f56aa9716b898ec8",
            "formatValue": "0.01338",
            "gasLimit": 127718,
            "gasPrice": "35.795785352",
            "gasUsed": 125915,
            "intTxnCount": 8,
            "internalRevert": false,
            "internalRevertMessage": "",
            "isContractCreation": false,
            "isFlashloan": false,
            "maxFee": "42.382580105",
            "nonce": 2,
            "overwritedBlockNumber": -1,
            "priorityFee": "1.5",
            "receiver": "0x72a06bf2a1ce5e39cba06c0cab824960b587d64c",
            "revertMessage": "",
            "sender": "0xf433750b4b3407104e53556fd9c6596c0434acf9",
            "simulationEnable": true,
            "sourceTxnHash": "0x4a8cc3e18c522bb6900807702e69fbcb2f67fb4ce8d352e09359147d49fd56cf",
            "status": true,
            "timestamp": "2022-03-13T19:33:14Z",
            "transactionFee": "0.00450722631259708",
            "txnHash": "0x4a8cc3e18c522bb6900807702e69fbcb2f67fb4ce8d352e09359147d49fd56cf",
            "txnIndex": 93,
            "type": 2,
            "value": "13380000000000000"
        },
        "fund_flow": [
            {
                "amount": "0.01338",
                "from": "0xf433750b4b3407104e53556fd9c6596c0434acf9",
                "id": 1,
                "isERC1155": false,
                "isERC721": false,
                "isReverted": false,
                "order": 1,
                "to": "0x72a06bf2a1ce5e39cba06c0cab824960b587d64c",
                "token": "0xeeeeeeeeeeeeeeeeeeeeeeeeeeeeeeeeeeeeeeee"
            },
            {
                "amount": "0.01338",
                "from": "0x72a06bf2a1ce5e39cba06c0cab824960b587d64c",
                "id": 2,
                "isERC1155": false,
                "isERC721": false,
                "isReverted": false,
                "order": 2,
                "to": "0x5fdcca53617f4d2b9134b29090c87d01058e27e9",
                "token": "0xeeeeeeeeeeeeeeeeeeeeeeeeeeeeeeeeeeeeeeee"
            }
        ],
        "token_infos": [
            {
                "address": "0xc02aaa39b223fe8d0a0e5c4f27ead9083c756cc2",
                "decimals": 18
            },
            {
                "address": "0xeeeeeeeeeeeeeeeeeeeeeeeeeeeeeeeeeeeeeeee",
                "decimals": 18
            }
        ]
    },
    "address_label": {
        "labels": [
            {
                "address": "0xeeeeeeeeeeeeeeeeeeeeeeeeeeeeeeeeeeeeeeee",
                "label": "Ether"
            },
            {
                "address": "0x97aa9658cfe27d6382b71ff9e72d773615bd529e",
                "label": "TokensAndRamping"
            },
            {
                "address": "0x0000000000000000000000000000000000000004",
                "label": "Precompiled"
            },
            {
                "address": "0x0000000000000000000000000000000000000003",
                "label": "Precompiled"
            },
            {
                "address": "0x0000000000000000000000000000000000000005",
                "label": "Null: 0x000...005"
            },
            {
                "address": "0xb8563ad5af1f79dd04937be8b572318c8e6f43ac",
                "label": "StarkExchange"
            },
            {
                "address": "0x5fdcca53617f4d2b9134b29090c87d01058e27e9",
                "label": "Immutable X: Bridge"
            },
            {
                "address": "0x72a06bf2a1ce5e39cba06c0cab824960b587d64c",
                "label": "Immutable X: Registration"
            },
            {
                "address": "0x0000000000000000000000000000000000000001",
                "label": "Precompiled"
            },
            {
                "address": "0x0000000000000000000000000000000000000002",
                "label": "Precompiled"
            }
        ]
    },
    "trace": {
        "accountLabels": null,
        "dataMap": {
            "-1": {
                "invocation": {
                    "address": "0xf433750b4b3407104e53556fd9c6596c0434acf9",
                    "callData": "",
                    "decodedMethod": null,
                    "errorInfo": "",
                    "fromAddress": "",
                    "gasUsed": 0,
                    "id": -1,
                    "methodDecoded": false,
                    "operation": "",
                    "output": "",
                    "revert": false,
                    "revertMessage": "",
                    "selector": "",
                    "status": false,
                    "value": ""
                },
                "nodeType": 0
            },
            "0": {
                "invocation": {
                    "address": "0x72a06bf2a1ce5e39cba06c0cab824960b587d64c",
                    "callData": "0x000000000000000000000000f433750b4b3407104e53556fd9c6596c0434acf903fbd3a618e41c0591e7e9abe26d3e3a9f44d1c1d931e52d32427a0b0032a8bf00000000000000000000000000000000000000000000000000000000000000a002705737cd248ac819034b5de474c8f0368224f72a0fda9e031499d519992d9e00000000000000000000000000000000000000000000000000000000019effd60000000000000000000000000000000000000000000000000000000000000041209faf9f075a749dcab5fccd80ecdce96e794d19b77aac07716d71ea1d02493925f0f4636a79035b34ee7758437e58e02ba0e2286507e35ed2078f094ff6142f1c00000000000000000000000000000000000000000000000000000000000000",
                    "decodedMethod": {
                        "callParams": [
                            {
                                "name": "ethKey",
                                "type": "address",
                                "value": "0xf433750b4b3407104e53556fd9c6596c0434acf9"
                            },
                            {
                                "name": "starkKey",
                                "type": "uint256",
                                "value": "1,801,877,905,460,826,976,851,766,441,321,688,802,596,972,088,967,150,866,448,089,313,605,642,791,103"
                            },
                            {
                                "name": "signature",
                                "type": "bytes",
                                "value": "0x209faf9f075a749dcab5fccd80ecdce96e794d19b77aac07716d71ea1d02493925f0f4636a79035b34ee7758437e58e02ba0e2286507e35ed2078f094ff6142f1c"
                            },
                            {
                                "name": "assetType",
                                "type": "uint256",
                                "value": "1,103,114,524,755,001,640,548,555,873,671,808,205,895,038,091,681,120,606,634,696,969,331,999,845,790"
                            },
                            {
                                "name": "vaultId",
                                "type": "uint256",
                                "value": "27,197,398"
                            }
                        ],
                        "constructorArguments": "",
                        "name": "registerAndDeposit",
                        "returnParams": [],
                        "signature": "registerAndDeposit(address,uint256,bytes,uint256,uint256)"
                    },
                    "errorInfo": "",
                    "fromAddress": "0xf433750b4b3407104e53556fd9c6596c0434acf9",
                    "gasUsed": 125915,
                    "id": 0,
                    "methodDecoded": true,
                    "operation": "CALL",
                    "output": "",
                    "revert": false,
                    "revertMessage": "",
                    "selector": "0x8bdb9f80",
                    "status": true,
                    "value": "0.01338"
                },
                "nodeType": 0
            },
            "1": {
                "invocation": {
                    "address": "0x5fdcca53617f4d2b9134b29090c87d01058e27e9",
                    "callData": "0x000000000000000000000000f433750b4b3407104e53556fd9c6596c0434acf903fbd3a618e41c0591e7e9abe26d3e3a9f44d1c1d931e52d32427a0b0032a8bf00000000000000000000000000000000000000000000000000000000000000600000000000000000000000000000000000000000000000000000000000000041209faf9f075a749dcab5fccd80ecdce96e794d19b77aac07716d71ea1d02493925f0f4636a79035b34ee7758437e58e02ba0e2286507e35ed2078f094ff6142f1c00000000000000000000000000000000000000000000000000000000000000",
                    "decodedMethod": {
                        "callParams": [
                            {
                                "name": "ethKey",
                                "type": "address",
                                "value": "0xf433750b4b3407104e53556fd9c6596c0434acf9"
                            },
                            {
                                "name": "starkKey",
                                "type": "uint256",
                                "value": "1,801,877,905,460,826,976,851,766,441,321,688,802,596,972,088,967,150,866,448,089,313,605,642,791,103"
                            },
                            {
                                "name": "signature",
                                "type": "bytes",
                                "value": "0x209faf9f075a749dcab5fccd80ecdce96e794d19b77aac07716d71ea1d02493925f0f4636a79035b34ee7758437e58e02ba0e2286507e35ed2078f094ff6142f1c"
                            }
                        ],
                        "constructorArguments": "",
                        "name": "registerUser",
                        "returnParams": [],
                        "signature": "registerUser(address,uint256,bytes)"
                    },
                    "errorInfo": "",
                    "fromAddress": "0x72a06bf2a1ce5e39cba06c0cab824960b587d64c",
                    "gasUsed": 44479,
                    "id": 1,
                    "methodDecoded": true,
                    "operation": "CALL",
                    "output": "",
                    "revert": false,
                    "revertMessage": "",
                    "selector": "0xdd2414d4",
                    "status": true,
                    "value": "0"
                },
                "nodeType": 0
            },
            "10": {
                "event": {
                    "contract": "0x5fdcca53617f4d2b9134b29090c87d01058e27e9",
                    "decodedLog": {
                        "name": "LogDeposit",
                        "params": [
                            {
                                "name": "depositorEthKey",
                                "type": "address",
                                "value": "0x72a06bf2a1ce5e39cba06c0cab824960b587d64c"
                            },
                            {
                                "name": "starkKey",
                                "type": "uint256",
                                "value": "1,801,877,905,460,826,976,851,766,441,321,688,802,596,972,088,967,150,866,448,089,313,605,642,791,103"
                            },
                            {
                                "name": "vaultId",
                                "type": "uint256",
                                "value": "27,197,398"
                            },
                            {
                                "name": "assetType",
                                "type": "uint256",
                                "value": "1,103,114,524,755,001,640,548,555,873,671,808,205,895,038,091,681,120,606,634,696,969,331,999,845,790"
                            },
                            {
                                "name": "nonQuantizedAmount",
                                "type": "uint256",
                                "value": "13,380,000,000,000,000"
                            },
                            {
                                "name": "quantizedAmount",
                                "type": "uint256",
                                "value": "133,800,000"
                            }
                        ],
                        "signature": "LogDeposit(address,uint256,uint256,uint256,uint256,uint256)"
                    },
                    "id": 10,
                    "logData": "0x00000000000000000000000072a06bf2a1ce5e39cba06c0cab824960b587d64c03fbd3a618e41c0591e7e9abe26d3e3a9f44d1c1d931e52d32427a0b0032a8bf00000000000000000000000000000000000000000000000000000000019effd602705737cd248ac819034b5de474c8f0368224f72a0fda9e031499d519992d9e000000000000000000000000000000000000000000000000002f890a031840000000000000000000000000000000000000000000000000000000000007f9a040",
                    "logDecoded": true,
                    "operation": "EVENT",
                    "revert": false,
                    "status": true,
                    "topics": [
                        "0x06724742ccc8c330a39a641ef02a0b419bd09248360680bb38159b0a8c2635d6"
                    ]
                },
                "nodeType": 1
            },
            "2": {
                "invocation": {
                    "address": "0xb8563ad5af1f79dd04937be8b572318c8e6f43ac",
                    "callData": "0x000000000000000000000000f433750b4b3407104e53556fd9c6596c0434acf903fbd3a618e41c0591e7e9abe26d3e3a9f44d1c1d931e52d32427a0b0032a8bf00000000000000000000000000000000000000000000000000000000000000600000000000000000000000000000000000000000000000000000000000000041209faf9f075a749dcab5fccd80ecdce96e794d19b77aac07716d71ea1d02493925f0f4636a79035b34ee7758437e58e02ba0e2286507e35ed2078f094ff6142f1c00000000000000000000000000000000000000000000000000000000000000",
                    "decodedMethod": {
                        "callParams": [
                            {
                                "name": "ethKey",
                                "type": "address",
                                "value": "0xf433750b4b3407104e53556fd9c6596c0434acf9"
                            },
                            {
                                "name": "starkKey",
                                "type": "uint256",
                                "value": "1,801,877,905,460,826,976,851,766,441,321,688,802,596,972,088,967,150,866,448,089,313,605,642,791,103"
                            },
                            {
                                "name": "signature",
                                "type": "bytes",
                                "value": "0x209faf9f075a749dcab5fccd80ecdce96e794d19b77aac07716d71ea1d02493925f0f4636a79035b34ee7758437e58e02ba0e2286507e35ed2078f094ff6142f1c"
                            }
                        ],
                        "constructorArguments": "",
                        "name": "registerUser",
                        "returnParams": [],
                        "signature": "registerUser(address,uint256,bytes)"
                    },
                    "errorInfo": "",
                    "fromAddress": "0x5fdcca53617f4d2b9134b29090c87d01058e27e9",
                    "gasUsed": 39363,
                    "id": 2,
                    "methodDecoded": true,
                    "operation": "DELEGATECALL",
                    "output": "",
                    "revert": false,
                    "revertMessage": "",
                    "selector": "0xdd2414d4",
                    "status": true,
                    "value": "0"
                },
                "nodeType": 0
            },
            "3": {
                "invocation": {
                    "address": "0x97aa9658cfe27d6382b71ff9e72d773615bd529e",
                    "callData": "0x000000000000000000000000f433750b4b3407104e53556fd9c6596c0434acf903fbd3a618e41c0591e7e9abe26d3e3a9f44d1c1d931e52d32427a0b0032a8bf00000000000000000000000000000000000000000000000000000000000000600000000000000000000000000000000000000000000000000000000000000041209faf9f075a749dcab5fccd80ecdce96e794d19b77aac07716d71ea1d02493925f0f4636a79035b34ee7758437e58e02ba0e2286507e35ed2078f094ff6142f1c00000000000000000000000000000000000000000000000000000000000000",
                    "decodedMethod": {
                        "callParams": [
                            {
                                "name": "ethKey",
                                "type": "address",
                                "value": "0xf433750b4b3407104e53556fd9c6596c0434acf9"
                            },
                            {
                                "name": "starkKey",
                                "type": "uint256",
                                "value": "1,801,877,905,460,826,976,851,766,441,321,688,802,596,972,088,967,150,866,448,089,313,605,642,791,103"
                            },
                            {
                                "name": "signature",
                                "type": "bytes",
                                "value": "0x209faf9f075a749dcab5fccd80ecdce96e794d19b77aac07716d71ea1d02493925f0f4636a79035b34ee7758437e58e02ba0e2286507e35ed2078f094ff6142f1c"
                            }
                        ],
                        "constructorArguments": "",
                        "name": "registerUser",
                        "returnParams": [],
                        "signature": "registerUser(address,uint256,bytes)"
                    },
                    "errorInfo": "",
                    "fromAddress": "0x5fdcca53617f4d2b9134b29090c87d01058e27e9",
                    "gasUsed": 33838,
                    "id": 3,
                    "methodDecoded": true,
                    "operation": "DELEGATECALL",
                    "output": "",
                    "revert": false,
                    "revertMessage": "",
                    "selector": "0xdd2414d4",
                    "status": true,
                    "value": "0"
                },
                "nodeType": 0
            },
            "4": {
                "invocation": {
                    "address": "0x0000000000000000000000000000000000000005",
                    "callData": "0x000000000000000000000000000000000000000000000000000000200000000000000000000000000000000000000000000000000000000000000020000000000000000000000000000000000000000000000000000000000000002002b66138bd316d374952737cd8b25060a99c226d895b8cff4ebe64202505352504000000000000088000000000000000000000000000000000000000000000000800000000000011000000000000000000000000000000000000000000000001",
                    "decodedMethod": {
                        "callParams": [],
                        "constructorArguments": "",
                        "name": "ROOT4146650865",
                        "returnParams": [
                            {
                                "name": "",
                                "type": "bytes4",
                                "value": "0x00000000"
                            }
                        ],
                        "signature": "ROOT4146650865()"
                    },
                    "errorInfo": "",
                    "fromAddress": "0x5fdcca53617f4d2b9134b29090c87d01058e27e9",
                    "gasUsed": 1333,
                    "id": 4,
                    "methodDecoded": true,
                    "operation": "STATICCALL",
                    "output": "0x0000000000000000000000000000000000000000000000000000000000000001",
                    "revert": false,
                    "revertMessage": "",
                    "selector": "0x00000000",
                    "status": true,
                    "value": "0"
                },
                "nodeType": 0
            },
            "5": {
                "invocation": {
                    "address": "0x0000000000000000000000000000000000000001",
                    "callData": "0x99a711246f97ee4125b088d5ed3223b6fa867502f7395b3785f1fe79000000000000000000000000000000000000000000000000000000000000001c209faf9f075a749dcab5fccd80ecdce96e794d19b77aac07716d71ea1d02493925f0f4636a79035b34ee7758437e58e02ba0e2286507e35ed2078f094ff6142f",
                    "decodedMethod": {
                        "callParams": [
                            {
                                "name": "hash",
                                "type": "bytes32",
                                "value": "0x19b1e94f99a711246f97ee4125b088d5ed3223b6fa867502f7395b3785f1fe79"
                            },
                            {
                                "name": "v",
                                "type": "uint256",
                                "value": "28"
                            },
                            {
                                "name": "r",
                                "type": "bytes32",
                                "value": "0x209faf9f075a749dcab5fccd80ecdce96e794d19b77aac07716d71ea1d024939"
                            },
                            {
                                "name": "s",
                                "type": "bytes32",
                                "value": "0x25f0f4636a79035b34ee7758437e58e02ba0e2286507e35ed2078f094ff6142f"
                            }
                        ],
                        "constructorArguments": "",
                        "name": "ecrecover",
                        "returnParams": [
                            {
                                "name": "",
                                "type": "address",
                                "value": "0xf613ba58aedbcdf846eb4cdfebced0848f95d3d2"
                            }
                        ],
                        "signature": "ecrecover(bytes32,uint256,bytes32,bytes32)"
                    },
                    "errorInfo": "",
                    "fromAddress": "0x5fdcca53617f4d2b9134b29090c87d01058e27e9",
                    "gasUsed": 3000,
                    "id": 5,
                    "methodDecoded": true,
                    "operation": "STATICCALL",
                    "output": "0x000000000000000000000000f613ba58aedbcdf846eb4cdfebced0848f95d3d2",
                    "revert": false,
                    "revertMessage": "",
                    "selector": "0x19b1e94f",
                    "status": true,
                    "value": "0"
                },
                "nodeType": 0
            },
            "6": {
                "event": {
                    "contract": "0x5fdcca53617f4d2b9134b29090c87d01058e27e9",
                    "decodedLog": {
                        "name": "LogUserRegistered",
                        "params": [
                            {
                                "name": "ethKey",
                                "type": "address",
                                "value": "0xf433750b4b3407104e53556fd9c6596c0434acf9"
                            },
                            {
                                "name": "starkKey",
                                "type": "uint256",
                                "value": "1,801,877,905,460,826,976,851,766,441,321,688,802,596,972,088,967,150,866,448,089,313,605,642,791,103"
                            },
                            {
                                "name": "sender",
                                "type": "address",
                                "value": "0x72a06bf2a1ce5e39cba06c0cab824960b587d64c"
                            }
                        ],
                        "signature": "LogUserRegistered(address,uint256,address)"
                    },
                    "id": 6,
                    "logData": "0x000000000000000000000000f433750b4b3407104e53556fd9c6596c0434acf903fbd3a618e41c0591e7e9abe26d3e3a9f44d1c1d931e52d32427a0b0032a8bf00000000000000000000000072a06bf2a1ce5e39cba06c0cab824960b587d64c",
                    "logDecoded": true,
                    "operation": "EVENT",
                    "revert": false,
                    "status": true,
                    "topics": [
                        "0xcab1cf17c190e4e2195a7b8f7b362023246fa774390432b4704ab6b29d56b07b"
                    ]
                },
                "nodeType": 1
            },
            "7": {
                "invocation": {
                    "address": "0x5fdcca53617f4d2b9134b29090c87d01058e27e9",
                    "callData": "0x03fbd3a618e41c0591e7e9abe26d3e3a9f44d1c1d931e52d32427a0b0032a8bf02705737cd248ac819034b5de474c8f0368224f72a0fda9e031499d519992d9e00000000000000000000000000000000000000000000000000000000019effd6",
                    "decodedMethod": {
                        "callParams": [
                            {
                                "name": "_amount",
                                "type": "uint256",
                                "value": "1,801,877,905,460,826,976,851,766,441,321,688,802,596,972,088,967,150,866,448,089,313,605,642,791,103"
                            },
                            {
                                "name": "_periods",
                                "type": "uint256",
                                "value": "1,103,114,524,755,001,640,548,555,873,671,808,205,895,038,091,681,120,606,634,696,969,331,999,845,790"
                            },
                            {
                                "name": "_userid",
                                "type": "uint256",
                                "value": "27,197,398"
                            }
                        ],
                        "constructorArguments": "",
                        "name": "deposit",
                        "returnParams": [],
                        "signature": "deposit(uint256,uint256,uint256)"
                    },
                    "errorInfo": "",
                    "fromAddress": "0x72a06bf2a1ce5e39cba06c0cab824960b587d64c",
                    "gasUsed": 42379,
                    "id": 7,
                    "methodDecoded": true,
                    "operation": "CALL",
                    "output": "",
                    "revert": false,
                    "revertMessage": "",
                    "selector": "0x00aeef8a",
                    "status": true,
                    "value": "0.01338"
                },
                "nodeType": 0
            },
            "8": {
                "invocation": {
                    "address": "0xb8563ad5af1f79dd04937be8b572318c8e6f43ac",
                    "callData": "0x03fbd3a618e41c0591e7e9abe26d3e3a9f44d1c1d931e52d32427a0b0032a8bf02705737cd248ac819034b5de474c8f0368224f72a0fda9e031499d519992d9e00000000000000000000000000000000000000000000000000000000019effd6",
                    "decodedMethod": {
                        "callParams": [
                            {
                                "name": "_amount",
                                "type": "uint256",
                                "value": "1,801,877,905,460,826,976,851,766,441,321,688,802,596,972,088,967,150,866,448,089,313,605,642,791,103"
                            },
                            {
                                "name": "_periods",
                                "type": "uint256",
                                "value": "1,103,114,524,755,001,640,548,555,873,671,808,205,895,038,091,681,120,606,634,696,969,331,999,845,790"
                            },
                            {
                                "name": "_userid",
                                "type": "uint256",
                                "value": "27,197,398"
                            }
                        ],
                        "constructorArguments": "",
                        "name": "deposit",
                        "returnParams": [],
                        "signature": "deposit(uint256,uint256,uint256)"
                    },
                    "errorInfo": "",
                    "fromAddress": "0x5fdcca53617f4d2b9134b29090c87d01058e27e9",
                    "gasUsed": 41797,
                    "id": 8,
                    "methodDecoded": true,
                    "operation": "DELEGATECALL",
                    "output": "",
                    "revert": false,
                    "revertMessage": "",
                    "selector": "0x00aeef8a",
                    "status": true,
                    "value": "0.01338"
                },
                "nodeType": 0
            },
            "9": {
                "invocation": {
                    "address": "0x97aa9658cfe27d6382b71ff9e72d773615bd529e",
                    "callData": "0x03fbd3a618e41c0591e7e9abe26d3e3a9f44d1c1d931e52d32427a0b0032a8bf02705737cd248ac819034b5de474c8f0368224f72a0fda9e031499d519992d9e00000000000000000000000000000000000000000000000000000000019effd6",
                    "decodedMethod": {
                        "callParams": [
                            {
                                "name": "starkKey",
                                "type": "uint256",
                                "value": "1,801,877,905,460,826,976,851,766,441,321,688,802,596,972,088,967,150,866,448,089,313,605,642,791,103"
                            },
                            {
                                "name": "assetType",
                                "type": "uint256",
                                "value": "1,103,114,524,755,001,640,548,555,873,671,808,205,895,038,091,681,120,606,634,696,969,331,999,845,790"
                            },
                            {
                                "name": "vaultId",
                                "type": "uint256",
                                "value": "27,197,398"
                            }
                        ],
                        "constructorArguments": "",
                        "name": "deposit",
                        "returnParams": [],
                        "signature": "deposit(uint256,uint256,uint256)"
                    },
                    "errorInfo": "",
                    "fromAddress": "0x5fdcca53617f4d2b9134b29090c87d01058e27e9",
                    "gasUsed": 40761,
                    "id": 9,
                    "methodDecoded": true,
                    "operation": "DELEGATECALL",
                    "output": "",
                    "revert": false,
                    "revertMessage": "",
                    "selector": "0x00aeef8a",
                    "status": true,
                    "value": "0.01338"
                },
                "nodeType": 0
            }
        },
        "gasFlame": [
            {
                "children": [
                    {
                        "children": [
                            {
                                "children": [],
                                "depth": 0,
                                "name": "Initial Gas",
                                "value": 24064
                            },
                            {
                                "children": [
                                    {
                                        "children": [
                                            {
                                                "children": [
                                                    {
                                                        "children": [
                                                            {
                                                                "children": [],
                                                                "depth": 4,
                                                                "name": "ROOT4146650865",
                                                                "value": 1333
                                                            },
                                                            {
                                                                "children": [],
                                                                "depth": 4,
                                                                "name": "ecrecover",
                                                                "value": 3000
                                                            }
                                                        ],
                                                        "depth": 3,
                                                        "name": "registerUser",
                                                        "value": 33838
                                                    }
                                                ],
                                                "depth": 2,
                                                "name": "registerUser",
                                                "value": 39363
                                            }
                                        ],
                                        "depth": 1,
                                        "name": "registerUser",
                                        "value": 44479
                                    },
                                    {
                                        "children": [
                                            {
                                                "children": [
                                                    {
                                                        "children": [],
                                                        "depth": 3,
                                                        "name": "deposit",
                                                        "value": 40761
                                                    }
                                                ],
                                                "depth": 2,
                                                "name": "deposit",
                                                "value": 41797
                                            }
                                        ],
                                        "depth": 1,
                                        "name": "deposit",
                                        "value": 42379
                                    }
                                ],
                                "depth": 0,
                                "name": "Executed Gas",
                                "value": 101851
                            }
                        ],
                        "depth": -1,
                        "name": "Actual Gas Used",
                        "value": 125915
                    },
                    {
                        "children": [],
                        "depth": -1,
                        "name": "Refunded Gas",
                        "value": 0
                    }
                ],
                "depth": -2,
                "name": "Total Gas",
                "value": 125915
            }
        ],
        "isConfirmed": true,
        "mainTrace": [
            {
                "children": [
                    {
                        "children": [
                            {
                                "children": [
                                    {
                                        "children": [
                                            {
                                                "children": [
                                                    {
                                                        "children": [],
                                                        "depth": 4,
                                                        "id": 4,
                                                        "order": 4
                                                    },
                                                    {
                                                        "children": [],
                                                        "depth": 4,
                                                        "id": 5,
                                                        "order": 5
                                                    },
                                                    {
                                                        "children": [],
                                                        "depth": 4,
                                                        "id": 6,
                                                        "order": 6
                                                    }
                                                ],
                                                "depth": 3,
                                                "id": 3,
                                                "order": 3
                                            }
                                        ],
                                        "depth": 2,
                                        "id": 2,
                                        "order": 2
                                    }
                                ],
                                "depth": 1,
                                "id": 1,
                                "order": 1
                            },
                            {
                                "children": [
                                    {
                                        "children": [
                                            {
                                                "children": [
                                                    {
                                                        "children": [],
                                                        "depth": 4,
                                                        "id": 10,
                                                        "order": 10
                                                    }
                                                ],
                                                "depth": 3,
                                                "id": 9,
                                                "order": 9
                                            }
                                        ],
                                        "depth": 2,
                                        "id": 8,
                                        "order": 8
                                    }
                                ],
                                "depth": 1,
                                "id": 7,
                                "order": 7
                            }
                        ],
                        "depth": 0,
                        "id": 0,
                        "order": 0
                    }
                ],
                "depth": -1,
                "id": -1,
                "order": -1
            }
        ],
        "mainTraceNodeCount": 11,
        "parentIdMap": {
            "0": -1,
            "1": 0,
            "10": 9,
            "2": 1,
            "3": 2,
            "4": 3,
            "5": 3,
            "6": 3,
            "7": 0,
            "8": 7,
            "9": 8
        },
        "tidyTrace": [
            {
                "children": [
                    {
                        "children": [
                            {
                                "children": [
                                    {
                                        "children": [
                                            {
                                                "children": [
                                                    {
                                                        "children": [],
                                                        "depth": 4,
                                                        "id": 6,
                                                        "order": 6
                                                    }
                                                ],
                                                "depth": 3,
                                                "id": 3,
                                                "order": 3
                                            }
                                        ],
                                        "depth": 2,
                                        "id": 2,
                                        "order": 2
                                    }
                                ],
                                "depth": 1,
                                "id": 1,
                                "order": 1
                            },
                            {
                                "children": [
                                    {
                                        "children": [
                                            {
                                                "children": [
                                                    {
                                                        "children": [],
                                                        "depth": 4,
                                                        "id": 10,
                                                        "order": 10
                                                    }
                                                ],
                                                "depth": 3,
                                                "id": 9,
                                                "order": 9
                                            }
                                        ],
                                        "depth": 2,
                                        "id": 8,
                                        "order": 8
                                    }
                                ],
                                "depth": 1,
                                "id": 7,
                                "order": 7
                            }
                        ],
                        "depth": 0,
                        "id": 0,
                        "order": 0
                    }
                ],
                "depth": -1,
                "id": -1,
                "order": -1
            }
        ],
        "tidyTraceNodeCount": 9
    },
    "state_change": {
        "stateChanges": [
            {
                "address": "0x5fdcca53617f4d2b9134b29090c87d01058e27e9",
                "erc": "",
                "slots": [
                    {
                        "current": "0x0000000000000000000000000000000000000000000000000000000007f9a040",
                        "key": "0x63319590fca077a78ae2732c71ab29bb729792423d4944102cbc3cfc6407af27",
                        "prev": "0x0000000000000000000000000000000000000000000000000000000000000000"
                    },
                    {
                        "current": "0x000000000000000000000000f433750b4b3407104e53556fd9c6596c0434acf9",
                        "key": "0xd145e142bab8eb2b93d3d9ce25e59120b4868446577984a75c6854bb2b74ae43",
                        "prev": "0x0000000000000000000000000000000000000000000000000000000000000000"
                    }
                ],
                "storageVariables": [
                    {
                        "name": "pendingDeposits",
                        "type": "mapping(uint256 => mapping(uint256 => mapping(uint256 => uint256)))",
                        "value": {
                            "pairs": [
                                {
                                    "key": "1801877905460826976851766441321688802596972088967150866448089313605642791103",
                                    "value": {
                                        "pairs": [
                                            {
                                                "key": "1103114524755001640548555873671808205895038091681120606634696969331999845790",
                                                "value": {
                                                    "pairs": [
                                                        {
                                                            "key": "27197398",
                                                            "value": {
                                                                "current": "133800000",
                                                                "prev": "0",
                                                                "typeTag": 1
                                                            }
                                                        }
                                                    ],
                                                    "typeTag": 4
                                                }
                                            }
                                        ],
                                        "typeTag": 4
                                    }
                                }
                            ],
                            "typeTag": 4
                        }
                    },
                    {
                        "name": "ethKeys",
                        "type": "mapping(uint256 => address)",
                        "value": {
                            "pairs": [
                                {
                                    "key": "1801877905460826976851766441321688802596972088967150866448089313605642791103",
                                    "value": {
                                        "current": "0xf433750b4b3407104e53556fd9c6596c0434acf9",
                                        "prev": "0x0000000000000000000000000000000000000000",
                                        "typeTag": 1
                                    }
                                }
                            ],
                            "typeTag": 4
                        }
                    }
                ]
            }
        ]
    }
}