{
    "balance_change": {
        "balanceChanges": []
    },
    "profile": {
        "basic_info": {
            "baseFee": "",
            "blockNumber": 8582514,
            "callData": "0x268c23a300000000000000000000000000000000000000000000000000000000000067eb00000000000000000000000000000000000000000000000000000000000067f50000000000000000000000000000000000000000000000000000000000000000",
            "debugEnable": true,
            "errorInfo": "",
            "eventCount": 0,
            "feeRecipient": "0x5a0b54d5dc17e0aadc383d2db43b0a0d3e029c4c",
            "formatValue": "0",
            "gasLimit": 1357850,
            "gasPrice": "14.96",
            "gasUsed": 1357850,
            "intTxnCount": 10,
            "internalRevert": false,
            "internalRevertMessage": "",
            "isContractCreation": false,
            "isFlashloan": false,
            "maxFee": "",
            "nonce": 39868,
            "overwritedBlockNumber": -1,
            "priorityFee": "",
            "receiver": "0x01eacc3ae59ee7fbbc191d63e8e1ccfdac11628c",
            "revertMessage": "",
            "sender": "0xcb104fa25a1a46040dbab9f554ff564ce325668b",
            "simulationEnable": true,
            "sourceTxnHash": "0x4be4df1d401b5b2d4d04496daa284f0bf335bdfab20fe8c135e55f1ea7c22ea6",
            "status": true,
            "timestamp": "2019-09-19T22:44:50Z",
            "transactionFee": "0.020313436",
            "txnHash": "0x4be4df1d401b5b2d4d04496daa284f0bf335bdfab20fe8c135e55f1ea7c22ea6",
            "txnIndex": 13,
            "type": 0,
            "value": "0"
        },
        "fund_flow": [],
        "token_infos": [
            {
                "address": "0xc02aaa39b223fe8d0a0e5c4f27ead9083c756cc2",
                "decimals": 18
            },
            {
                "address": "0xeeeeeeeeeeeeeeeeeeeeeeeeeeeeeeeeeeeeeeee",
                "decimals": 18
            }
        ]
    },
    "address_label": {
        "labels": [
            {
                "address": "0x0000000000000000000000000000000000000001",
                "label": "Precompiled"
            },
            {
                "address": "0x0000000000000000000000000000000000000002",
                "label": "Precompiled"
            },
            {
                "address": "0x0000000000000000000000000000000000000003",
                "label": "Precompiled"
            },
            {
                "address": "0x0000000000000000000000000000000000000004",
                "label": "Precompiled"
            },
            {
                "address": "0xeeeeeeeeeeeeeeeeeeeeeeeeeeeeeeeeeeeeeeee",
                "label": "Ether"
            },
            {
                "address": "0x5ec8515d15c758472f3e1a7b9eca3e996e8ba902",
                "label": "UtilFairWin"
            },
            {
                "address": "0x01eacc3ae59ee7fbbc191d63e8e1ccfdac11628c",
                "label": "FairWin"
            }
        ]
    },
    "trace": {
        "accountLabels": null,
        "dataMap": {
            "-1": {
                "invocation": {
                    "address": "0xcb104fa25a1a46040dbab9f554ff564ce325668b",
                    "callData": "",
                    "decodedMethod": null,
                    "errorInfo": "",
                    "fromAddress": "",
                    "gasUsed": 0,
                    "id": -1,
                    "methodDecoded": false,
                    "operation": "",
                    "output": "",
                    "revert": false,
                    "revertMessage": "",
                    "selector": "",
                    "status": false,
                    "value": ""
                },
                "nodeType": 0
            },
            "0": {
                "invocation": {
                    "address": "0x01eacc3ae59ee7fbbc191d63e8e1ccfdac11628c",
                    "callData": "0x00000000000000000000000000000000000000000000000000000000000067eb00000000000000000000000000000000000000000000000000000000000067f50000000000000000000000000000000000000000000000000000000000000000",
                    "decodedMethod": {
                        "callParams": [
                            {
                                "name": "startLength",
                                "type": "uint256",
                                "value": "26,603"
                            },
                            {
                                "name": "endLength",
                                "type": "uint256",
                                "value": "26,613"
                            },
                            {
                                "name": "times",
                                "type": "uint256",
                                "value": "0"
                            }
                        ],
                        "constructorArguments": "",
                        "name": "countShareAndRecommendedAward",
                        "returnParams": [],
                        "signature": "countShareAndRecommendedAward(uint256,uint256,uint256)"
                    },
                    "errorInfo": "",
                    "fromAddress": "0xcb104fa25a1a46040dbab9f554ff564ce325668b",
                    "gasUsed": 1357850,
                    "id": 0,
                    "methodDecoded": true,
                    "operation": "CALL",
                    "output": "",
                    "revert": false,
                    "revertMessage": "",
                    "selector": "0x268c23a3",
                    "status": true,
                    "value": "0"
                },
                "nodeType": 0
            },
            "1": {
                "invocation": {
                    "address": "0x5ec8515d15c758472f3e1a7b9eca3e996e8ba902",
                    "callData": "0x0000000000000000000000000000000000000000000000000000000000000003",
                    "decodedMethod": {
                        "callParams": [
                            {
                                "name": "level",
                                "type": "uint256",
                                "value": "3"
                            }
                        ],
                        "constructorArguments": "",
                        "name": "getScBylevel",
                        "returnParams": [
                            {
                                "name": "",
                                "type": "uint256",
                                "value": "10"
                            }
                        ],
                        "signature": "getScBylevel(uint256)"
                    },
                    "errorInfo": "",
                    "fromAddress": "0x01eacc3ae59ee7fbbc191d63e8e1ccfdac11628c",
                    "gasUsed": 440,
                    "id": 1,
                    "methodDecoded": true,
                    "operation": "CALL",
                    "output": "0x000000000000000000000000000000000000000000000000000000000000000a",
                    "revert": false,
                    "revertMessage": "",
                    "selector": "0x7306a381",
                    "status": true,
                    "value": "0"
                },
                "nodeType": 0
            },
            "10": {
                "invocation": {
                    "address": "0x5ec8515d15c758472f3e1a7b9eca3e996e8ba902",
                    "callData": "0x0000000000000000000000000000000000000000000000000000000000000003",
                    "decodedMethod": {
                        "callParams": [
                            {
                                "name": "level",
                                "type": "uint256",
                                "value": "3"
                            }
                        ],
                        "constructorArguments": "",
                        "name": "getScBylevel",
                        "returnParams": [
                            {
                                "name": "",
                                "type": "uint256",
                                "value": "10"
                            }
                        ],
                        "signature": "getScBylevel(uint256)"
                    },
                    "errorInfo": "",
                    "fromAddress": "0x01eacc3ae59ee7fbbc191d63e8e1ccfdac11628c",
                    "gasUsed": 440,
                    "id": 10,
                    "methodDecoded": true,
                    "operation": "CALL",
                    "output": "0x000000000000000000000000000000000000000000000000000000000000000a",
                    "revert": false,
                    "revertMessage": "",
                    "selector": "0x7306a381",
                    "status": true,
                    "value": "0"
                },
                "nodeType": 0
            },
            "2": {
                "invocation": {
                    "address": "0x5ec8515d15c758472f3e1a7b9eca3e996e8ba902",
                    "callData": "0x0000000000000000000000000000000000000000000000000000000000000003",
                    "decodedMethod": {
                        "callParams": [
                            {
                                "name": "level",
                                "type": "uint256",
                                "value": "3"
                            }
                        ],
                        "constructorArguments": "",
                        "name": "getScBylevel",
                        "returnParams": [
                            {
                                "name": "",
                                "type": "uint256",
                                "value": "10"
                            }
                        ],
                        "signature": "getScBylevel(uint256)"
                    },
                    "errorInfo": "",
                    "fromAddress": "0x01eacc3ae59ee7fbbc191d63e8e1ccfdac11628c",
                    "gasUsed": 440,
                    "id": 2,
                    "methodDecoded": true,
                    "operation": "CALL",
                    "output": "0x000000000000000000000000000000000000000000000000000000000000000a",
                    "revert": false,
                    "revertMessage": "",
                    "selector": "0x7306a381",
                    "status": true,
                    "value": "0"
                },
                "nodeType": 0
            },
            "3": {
                "invocation": {
                    "address": "0x5ec8515d15c758472f3e1a7b9eca3e996e8ba902",
                    "callData": "0x0000000000000000000000000000000000000000000000000000000000000001",
                    "decodedMethod": {
                        "callParams": [
                            {
                                "name": "level",
                                "type": "uint256",
                                "value": "1"
                            }
                        ],
                        "constructorArguments": "",
                        "name": "getScBylevel",
                        "returnParams": [
                            {
                                "name": "",
                                "type": "uint256",
                                "value": "5"
                            }
                        ],
                        "signature": "getScBylevel(uint256)"
                    },
                    "errorInfo": "",
                    "fromAddress": "0x01eacc3ae59ee7fbbc191d63e8e1ccfdac11628c",
                    "gasUsed": 388,
                    "id": 3,
                    "methodDecoded": true,
                    "operation": "CALL",
                    "output": "0x0000000000000000000000000000000000000000000000000000000000000005",
                    "revert": false,
                    "revertMessage": "",
                    "selector": "0x7306a381",
                    "status": true,
                    "value": "0"
                },
                "nodeType": 0
            },
            "4": {
                "invocation": {
                    "address": "0x5ec8515d15c758472f3e1a7b9eca3e996e8ba902",
                    "callData": "0x0000000000000000000000000000000000000000000000000000000000000003",
                    "decodedMethod": {
                        "callParams": [
                            {
                                "name": "level",
                                "type": "uint256",
                                "value": "3"
                            }
                        ],
                        "constructorArguments": "",
                        "name": "getScBylevel",
                        "returnParams": [
                            {
                                "name": "",
                                "type": "uint256",
                                "value": "10"
                            }
                        ],
                        "signature": "getScBylevel(uint256)"
                    },
                    "errorInfo": "",
                    "fromAddress": "0x01eacc3ae59ee7fbbc191d63e8e1ccfdac11628c",
                    "gasUsed": 440,
                    "id": 4,
                    "methodDecoded": true,
                    "operation": "CALL",
                    "output": "0x000000000000000000000000000000000000000000000000000000000000000a",
                    "revert": false,
                    "revertMessage": "",
                    "selector": "0x7306a381",
                    "status": true,
                    "value": "0"
                },
                "nodeType": 0
            },
            "5": {
                "invocation": {
                    "address": "0x5ec8515d15c758472f3e1a7b9eca3e996e8ba902",
                    "callData": "0x0000000000000000000000000000000000000000000000000000000000000003",
                    "decodedMethod": {
                        "callParams": [
                            {
                                "name": "level",
                                "type": "uint256",
                                "value": "3"
                            }
                        ],
                        "constructorArguments": "",
                        "name": "getScBylevel",
                        "returnParams": [
                            {
                                "name": "",
                                "type": "uint256",
                                "value": "10"
                            }
                        ],
                        "signature": "getScBylevel(uint256)"
                    },
                    "errorInfo": "",
                    "fromAddress": "0x01eacc3ae59ee7fbbc191d63e8e1ccfdac11628c",
                    "gasUsed": 440,
                    "id": 5,
                    "methodDecoded": true,
                    "operation": "CALL",
                    "output": "0x000000000000000000000000000000000000000000000000000000000000000a",
                    "revert": false,
                    "revertMessage": "",
                    "selector": "0x7306a381",
                    "status": true,
                    "value": "0"
                },
                "nodeType": 0
            },
            "6": {
                "invocation": {
                    "address": "0x5ec8515d15c758472f3e1a7b9eca3e996e8ba902",
                    "callData": "0x0000000000000000000000000000000000000000000000000000000000000003",
                    "decodedMethod": {
                        "callParams": [
                            {
                                "name": "level",
                                "type": "uint256",
                                "value": "3"
                            }
                        ],
                        "constructorArguments": "",
                        "name": "getScBylevel",
                        "returnParams": [
                            {
                                "name": "",
                                "type": "uint256",
                                "value": "10"
                            }
                        ],
                        "signature": "getScBylevel(uint256)"
                    },
                    "errorInfo": "",
                    "fromAddress": "0x01eacc3ae59ee7fbbc191d63e8e1ccfdac11628c",
                    "gasUsed": 440,
                    "id": 6,
                    "methodDecoded": true,
                    "operation": "CALL",
                    "output": "0x000000000000000000000000000000000000000000000000000000000000000a",
                    "revert": false,
                    "revertMessage": "",
                    "selector": "0x7306a381",
                    "status": true,
                    "value": "0"
                },
                "nodeType": 0
            },
            "7": {
                "invocation": {
                    "address": "0x5ec8515d15c758472f3e1a7b9eca3e996e8ba902",
                    "callData": "0x0000000000000000000000000000000000000000000000000000000000000003",
                    "decodedMethod": {
                        "callParams": [
                            {
                                "name": "level",
                                "type": "uint256",
                                "value": "3"
                            }
                        ],
                        "constructorArguments": "",
                        "name": "getScBylevel",
                        "returnParams": [
                            {
                                "name": "",
                                "type": "uint256",
                                "value": "10"
                            }
                        ],
                        "signature": "getScBylevel(uint256)"
                    },
                    "errorInfo": "",
                    "fromAddress": "0x01eacc3ae59ee7fbbc191d63e8e1ccfdac11628c",
                    "gasUsed": 440,
                    "id": 7,
                    "methodDecoded": true,
                    "operation": "CALL",
                    "output": "0x000000000000000000000000000000000000000000000000000000000000000a",
                    "revert": false,
                    "revertMessage": "",
                    "selector": "0x7306a381",
                    "status": true,
                    "value": "0"
                },
                "nodeType": 0
            },
            "8": {
                "invocation": {
                    "address": "0x5ec8515d15c758472f3e1a7b9eca3e996e8ba902",
                    "callData": "0x0000000000000000000000000000000000000000000000000000000000000003",
                    "decodedMethod": {
                        "callParams": [
                            {
                                "name": "level",
                                "type": "uint256",
                                "value": "3"
                            }
                        ],
                        "constructorArguments": "",
                        "name": "getScBylevel",
                        "returnParams": [
                            {
                                "name": "",
                                "type": "uint256",
                                "value": "10"
                            }
                        ],
                        "signature": "getScBylevel(uint256)"
                    },
                    "errorInfo": "",
                    "fromAddress": "0x01eacc3ae59ee7fbbc191d63e8e1ccfdac11628c",
                    "gasUsed": 440,
                    "id": 8,
                    "methodDecoded": true,
                    "operation": "CALL",
                    "output": "0x000000000000000000000000000000000000000000000000000000000000000a",
                    "revert": false,
                    "revertMessage": "",
                    "selector": "0x7306a381",
                    "status": true,
                    "value": "0"
                },
                "nodeType": 0
            },
            "9": {
                "invocation": {
                    "address": "0x5ec8515d15c758472f3e1a7b9eca3e996e8ba902",
                    "callData": "0x0000000000000000000000000000000000000000000000000000000000000003",
                    "decodedMethod": {
                        "callParams": [
                            {
                                "name": "level",
                                "type": "uint256",
                                "value": "3"
                            }
                        ],
                        "constructorArguments": "",
                        "name": "getScBylevel",
                        "returnParams": [
                            {
                                "name": "",
                                "type": "uint256",
                                "value": "10"
                            }
                        ],
                        "signature": "getScBylevel(uint256)"
                    },
                    "errorInfo": "",
                    "fromAddress": "0x01eacc3ae59ee7fbbc191d63e8e1ccfdac11628c",
                    "gasUsed": 440,
                    "id": 9,
                    "methodDecoded": true,
                    "operation": "CALL",
                    "output": "0x000000000000000000000000000000000000000000000000000000000000000a",
                    "revert": false,
                    "revertMessage": "",
                    "selector": "0x7306a381",
                    "status": true,
                    "value": "0"
                },
                "nodeType": 0
            }
        },
        "gasFlame": [
            {
                "children": [
                    {
                        "children": [
                            {
                                "children": [],
                                "depth": 0,
                                "name": "Initial Gas",
                                "value": 21912
                            },
                            {
                                "children": [
                                    {
                                        "children": [],
                                        "depth": 1,
                                        "name": "getScBylevel",
                                        "value": 440
                                    },
                                    {
                                        "children": [],
                                        "depth": 1,
                                        "name": "getScBylevel",
                                        "value": 440
                                    },
                                    {
                                        "children": [],
                                        "depth": 1,
                                        "name": "getScBylevel",
                                        "value": 388
                                    },
                                    {
                                        "children": [],
                                        "depth": 1,
                                        "name": "getScBylevel",
                                        "value": 440
                                    },
                                    {
                                        "children": [],
                                        "depth": 1,
                                        "name": "getScBylevel",
                                        "value": 440
                                    },
                                    {
                                        "children": [],
                                        "depth": 1,
                                        "name": "getScBylevel",
                                        "value": 440
                                    },
                                    {
                                        "children": [],
                                        "depth": 1,
                                        "name": "getScBylevel",
                                        "value": 440
                                    },
                                    {
                                        "children": [],
                                        "depth": 1,
                                        "name": "getScBylevel",
                                        "value": 440
                                    },
                                    {
                                        "children": [],
                                        "depth": 1,
                                        "name": "getScBylevel",
                                        "value": 440
                                    },
                                    {
                                        "children": [],
                                        "depth": 1,
                                        "name": "getScBylevel",
                                        "value": 440
                                    }
                                ],
                                "depth": 0,
                                "name": "Executed Gas",
                                "value": 1335938
                            }
                        ],
                        "depth": -1,
                        "name": "Actual Gas Used",
                        "value": 1357850
                    },
                    {
                        "children": [],
                        "depth": -1,
                        "name": "Refunded Gas",
                        "value": 0
                    }
                ],
                "depth": -2,
                "name": "Total Gas",
                "value": 1357850
            }
        ],
        "isConfirmed": true,
        "mainTrace": [
            {
                "children": [
                    {
                        "children": [
                            {
                                "children": [],
                                "depth": 1,
                                "id": 1,
                                "order": 1
                            },
                            {
                                "children": [],
                                "depth": 1,
                                "id": 2,
                                "order": 2
                            },
                            {
                                "children": [],
                                "depth": 1,
                                "id": 3,
                                "order": 3
                            },
                            {
                                "children": [],
                                "depth": 1,
                                "id": 4,
                                "order": 4
                            },
                            {
                                "children": [],
                                "depth": 1,
                                "id": 5,
                                "order": 5
                            },
                            {
                                "children": [],
                                "depth": 1,
                                "id": 6,
                                "order": 6
                            },
                            {
                                "children": [],
                                "depth": 1,
                                "id": 7,
                                "order": 7
                            },
                            {
                                "children": [],
                                "depth": 1,
                                "id": 8,
                                "order": 8
                            },
                            {
                                "children": [],
                                "depth": 1,
                                "id": 9,
                                "order": 9
                            },
                            {
                                "children": [],
                                "depth": 1,
                                "id": 10,
                                "order": 10
                            }
                        ],
                        "depth": 0,
                        "id": 0,
                        "order": 0
                    }
                ],
                "depth": -1,
                "id": -1,
                "order": -1
            }
        ],
        "mainTraceNodeCount": 11,
        "parentIdMap": {
            "0": -1,
            "1": 0,
            "10": 0,
            "2": 0,
            "3": 0,
            "4": 0,
            "5": 0,
            "6": 0,
            "7": 0,
            "8": 0,
            "9": 0
        },
        "tidyTrace": [
            {
                "children": [
                    {
                        "children": [
                            {
                                "children": [],
                                "depth": 1,
                                "id": 1,
                                "order": 1
                            },
                            {
                                "children": [],
                                "depth": 1,
                                "id": 2,
                                "order": 2
                            },
                            {
                                "children": [],
                                "depth": 1,
                                "id": 3,
                                "order": 3
                            },
                            {
                                "children": [],
                                "depth": 1,
                                "id": 4,
                                "order": 4
                            },
                            {
                                "children": [],
                                "depth": 1,
                                "id": 5,
                                "order": 5
                            },
                            {
                                "children": [],
                                "depth": 1,
                                "id": 6,
                                "order": 6
                            },
                            {
                                "children": [],
                                "depth": 1,
                                "id": 7,
                                "order": 7
                            },
                            {
                                "children": [],
                                "depth": 1,
                                "id": 8,
                                "order": 8
                            },
                            {
                                "children": [],
                                "depth": 1,
                                "id": 9,
                                "order": 9
                            },
                            {
                                "children": [],
                                "depth": 1,
                                "id": 10,
                                "order": 10
                            }
                        ],
                        "depth": 0,
                        "id": 0,
                        "order": 0
                    }
                ],
                "depth": -1,
                "id": -1,
                "order": -1
            }
        ],
        "tidyTraceNodeCount": 11
    },
    "state_change": {}
}