{
    "balance_change": {
        "balanceChanges": []
    },
    "profile": {
        "basic_info": {
            "baseFee": "20.235218816",
            "blockNumber": 18141798,
            "callData": "0xe2864fe300000000000000000000000000000000000000000000000000000000000000200000000000000000000000002b915ee11d745030106438f5febec59744e665f9000000000000000000000000000000000000000000000000000000000000012000000000000000000000000000000000000000000000000000000000000000000000000000000000000000000000000000000000000000000000000000000200d219f4f3813f74863c009fd47558eed9b489e5977cac799eb4208bd48c283fa40000000000000000000000000000000000000000000000000000000000000000000000000000000000000000000000000000000000000000000000000000000023d235ef0000000000000000000000000000000000000000000000000000000000000000000000000000000000000000000000000000000000000000000002a00000000000000000000000000000000000000000000000000000000000000040000000000000000000000000000000000000000000000000000000000000000173ad21460000000000000000000000000000000000000000000000000000000000000000000000000000000000000000000000000000000000000000000000400000000000000000000000000000000000000000000000000000000000000040000000000000000000000000ad8fddba70583a9f864c7f18661acba586f9f12800000000000000000000000000000000000000000000000000000000000001550000000000000000000000000000000000000000000000000000000000000040000000000000000000000000000000000000000000000000067c46e282298000aaaebeba000000000000000000000000000000000000000000000000000000000000000000000000000000000000000000000000000000000000000000000040000000000000000000000000000000000000000000000000000000000000000000000000000000000000000000000000000000000000000000000000000000c0000000000000000000000000000000000000000000000000000000000000002000000000000000000000000000000000000000000000000000000000000000600000000000000000000000000000000000000000000000000000000000000080000000000000000000000000000000000000000000000000000000000000000000000000000000000000000000000000000000000000000000000000000000000000000000000000000000000000000000000000000000000000000000000000",
            "debugEnable": true,
            "errorInfo": "",
            "eventCount": 1,
            "feeRecipient": "0x1f9090aae28b8a3dceadf281b0f12828e676c326",
            "formatValue": "0",
            "gasLimit": 99177,
            "gasPrice": "22.735218816",
            "gasUsed": 65647,
            "intTxnCount": 1,
            "internalRevert": false,
            "internalRevertMessage": "",
            "isContractCreation": false,
            "isFlashloan": false,
            "maxFee": "43.684920444",
            "nonce": 337,
            "overwritedBlockNumber": -1,
            "priorityFee": "2.5",
            "receiver": "0x043414e986c8545cbe599c92366ed166ef6ebf5f",
            "revertMessage": "",
            "sender": "0x2b915ee11d745030106438f5febec59744e665f9",
            "simulationEnable": true,
            "sourceTxnHash": "0x4b3771214d499895652ad08fe5b967308128d71ee0d9c3cae15b025932234c06",
            "status": true,
            "timestamp": "2023-09-15T13:04:35Z",
            "transactionFee": "0.001492498909613952",
            "txnHash": "0x4b3771214d499895652ad08fe5b967308128d71ee0d9c3cae15b025932234c06",
            "txnIndex": 22,
            "type": 2,
            "value": "0"
        },
        "fund_flow": [],
        "token_infos": [
            {
                "address": "0xc02aaa39b223fe8d0a0e5c4f27ead9083c756cc2",
                "decimals": 18
            },
            {
                "address": "0xeeeeeeeeeeeeeeeeeeeeeeeeeeeeeeeeeeeeeeee",
                "decimals": 18
            }
        ]
    },
    "address_label": {
        "labels": [
            {
                "address": "0x0000000000000000000000000000000000000001",
                "label": "Precompiled"
            },
            {
                "address": "0x0000000000000000000000000000000000000002",
                "label": "Precompiled"
            },
            {
                "address": "0x0000000000000000000000000000000000000003",
                "label": "Precompiled"
            },
            {
                "address": "0x0000000000000000000000000000000000000004",
                "label": "Precompiled"
            },
            {
                "address": "0xeeeeeeeeeeeeeeeeeeeeeeeeeeeeeeeeeeeeeeee",
                "label": "Ether"
            },
            {
                "address": "0x0000000000000000000000000000000000000000",
                "label": "Null Address"
            },
            {
                "address": "0xc58f79093b09d09be08b1d1848d7ec0d40b722b0",
                "label": "ExchangeV2"
            },
            {
                "address": "0x043414e986c8545cbe599c92366ed166ef6ebf5f",
                "label": "TransparentUpgradeableProxy"
            }
        ]
    },
    "trace": {
        "accountLabels": null,
        "dataMap": {
            "-1": {
                "invocation": {
                    "address": "0x2b915ee11d745030106438f5febec59744e665f9",
                    "callData": "",
                    "decodedMethod": null,
                    "errorInfo": "",
                    "fromAddress": "",
                    "gasUsed": 0,
                    "id": -1,
                    "methodDecoded": false,
                    "operation": "",
                    "output": "",
                    "revert": false,
                    "revertMessage": "",
                    "selector": "",
                    "status": false,
                    "value": ""
                },
                "nodeType": 0
            },
            "0": {
                "invocation": {
                    "address": "0x043414e986c8545cbe599c92366ed166ef6ebf5f",
                    "callData": "0x00000000000000000000000000000000000000000000000000000000000000200000000000000000000000002b915ee11d745030106438f5febec59744e665f9000000000000000000000000000000000000000000000000000000000000012000000000000000000000000000000000000000000000000000000000000000000000000000000000000000000000000000000000000000000000000000000200d219f4f3813f74863c009fd47558eed9b489e5977cac799eb4208bd48c283fa40000000000000000000000000000000000000000000000000000000000000000000000000000000000000000000000000000000000000000000000000000000023d235ef0000000000000000000000000000000000000000000000000000000000000000000000000000000000000000000000000000000000000000000002a00000000000000000000000000000000000000000000000000000000000000040000000000000000000000000000000000000000000000000000000000000000173ad21460000000000000000000000000000000000000000000000000000000000000000000000000000000000000000000000000000000000000000000000400000000000000000000000000000000000000000000000000000000000000040000000000000000000000000ad8fddba70583a9f864c7f18661acba586f9f12800000000000000000000000000000000000000000000000000000000000001550000000000000000000000000000000000000000000000000000000000000040000000000000000000000000000000000000000000000000067c46e282298000aaaebeba000000000000000000000000000000000000000000000000000000000000000000000000000000000000000000000000000000000000000000000040000000000000000000000000000000000000000000000000000000000000000000000000000000000000000000000000000000000000000000000000000000c0000000000000000000000000000000000000000000000000000000000000002000000000000000000000000000000000000000000000000000000000000000600000000000000000000000000000000000000000000000000000000000000080000000000000000000000000000000000000000000000000000000000000000000000000000000000000000000000000000000000000000000000000000000000000000000000000000000000000000000000000000000000000000000000000",
                    "decodedMethod": {
                        "callParams": [
                            {
                                "name": "order",
                                "type": "(address,((bytes4,bytes),uint256),address,((bytes4,bytes),uint256),uint256,uint256,uint256,bytes4,bytes)",
                                "value": [
                                    {
                                        "name": "maker",
                                        "type": "address",
                                        "value": "0x2b915ee11d745030106438f5febec59744e665f9"
                                    },
                                    {
                                        "name": "makeAsset",
                                        "type": "((bytes4,bytes),uint256)",
                                        "value": [
                                            {
                                                "name": "assetType",
                                                "type": "(bytes4,bytes)",
                                                "value": [
                                                    {
                                                        "name": "assetClass",
                                                        "type": "bytes4",
                                                        "value": "0x73ad2146"
                                                    },
                                                    {
                                                        "name": "data",
                                                        "type": "bytes",
                                                        "value": "0x000000000000000000000000ad8fddba70583a9f864c7f18661acba586f9f1280000000000000000000000000000000000000000000000000000000000000155"
                                                    }
                                                ]
                                            },
                                            {
                                                "name": "value",
                                                "type": "uint256",
                                                "value": "1"
                                            }
                                        ]
                                    },
                                    {
                                        "name": "taker",
                                        "type": "address",
                                        "value": "0x0000000000000000000000000000000000000000"
                                    },
                                    {
                                        "name": "takeAsset",
                                        "type": "((bytes4,bytes),uint256)",
                                        "value": [
                                            {
                                                "name": "assetType",
                                                "type": "(bytes4,bytes)",
                                                "value": [
                                                    {
                                                        "name": "assetClass",
                                                        "type": "bytes4",
                                                        "value": "0xaaaebeba"
                                                    },
                                                    {
                                                        "name": "data",
                                                        "type": "bytes",
                                                        "value": "0x"
                                                    }
                                                ]
                                            },
                                            {
                                                "name": "value",
                                                "type": "uint256",
                                                "value": "467,326,400,000,000,000"
                                            }
                                        ]
                                    },
                                    {
                                        "name": "salt",
                                        "type": "uint256",
                                        "value": "95,031,559,970,092,447,751,244,968,444,557,667,198,996,108,190,722,341,879,914,350,724,831,387,336,612"
                                    },
                                    {
                                        "name": "start",
                                        "type": "uint256",
                                        "value": "0"
                                    },
                                    {
                                        "name": "end",
                                        "type": "uint256",
                                        "value": "0"
                                    },
                                    {
                                        "name": "dataType",
                                        "type": "bytes4",
                                        "value": "0x23d235ef"
                                    },
                                    {
                                        "name": "data",
                                        "type": "bytes",
                                        "value": "0x000000000000000000000000000000000000000000000000000000000000002000000000000000000000000000000000000000000000000000000000000000600000000000000000000000000000000000000000000000000000000000000080000000000000000000000000000000000000000000000000000000000000000000000000000000000000000000000000000000000000000000000000000000000000000000000000000000000000000000000000000000000000000000000000"
                                    }
                                ]
                            }
                        ],
                        "constructorArguments": "",
                        "name": "cancel",
                        "returnParams": [],
                        "signature": "cancel((address,((bytes4,bytes),uint256),address,((bytes4,bytes),uint256),uint256,uint256,uint256,bytes4,bytes))"
                    },
                    "errorInfo": "",
                    "fromAddress": "0x2b915ee11d745030106438f5febec59744e665f9",
                    "gasUsed": 65647,
                    "id": 0,
                    "methodDecoded": true,
                    "operation": "CALL",
                    "output": "",
                    "revert": false,
                    "revertMessage": "",
                    "selector": "0xe2864fe3",
                    "status": true,
                    "value": "0"
                },
                "nodeType": 0
            },
            "1": {
                "invocation": {
                    "address": "0xc58f79093b09d09be08b1d1848d7ec0d40b722b0",
                    "callData": "0x00000000000000000000000000000000000000000000000000000000000000200000000000000000000000002b915ee11d745030106438f5febec59744e665f9000000000000000000000000000000000000000000000000000000000000012000000000000000000000000000000000000000000000000000000000000000000000000000000000000000000000000000000000000000000000000000000200d219f4f3813f74863c009fd47558eed9b489e5977cac799eb4208bd48c283fa40000000000000000000000000000000000000000000000000000000000000000000000000000000000000000000000000000000000000000000000000000000023d235ef0000000000000000000000000000000000000000000000000000000000000000000000000000000000000000000000000000000000000000000002a00000000000000000000000000000000000000000000000000000000000000040000000000000000000000000000000000000000000000000000000000000000173ad21460000000000000000000000000000000000000000000000000000000000000000000000000000000000000000000000000000000000000000000000400000000000000000000000000000000000000000000000000000000000000040000000000000000000000000ad8fddba70583a9f864c7f18661acba586f9f12800000000000000000000000000000000000000000000000000000000000001550000000000000000000000000000000000000000000000000000000000000040000000000000000000000000000000000000000000000000067c46e282298000aaaebeba000000000000000000000000000000000000000000000000000000000000000000000000000000000000000000000000000000000000000000000040000000000000000000000000000000000000000000000000000000000000000000000000000000000000000000000000000000000000000000000000000000c0000000000000000000000000000000000000000000000000000000000000002000000000000000000000000000000000000000000000000000000000000000600000000000000000000000000000000000000000000000000000000000000080000000000000000000000000000000000000000000000000000000000000000000000000000000000000000000000000000000000000000000000000000000000000000000000000000000000000000000000000000000000000000000000000",
                    "decodedMethod": {
                        "callParams": [
                            {
                                "name": "order",
                                "type": "(address,((bytes4,bytes),uint256),address,((bytes4,bytes),uint256),uint256,uint256,uint256,bytes4,bytes)",
                                "value": [
                                    {
                                        "name": "maker",
                                        "type": "address",
                                        "value": "0x2b915ee11d745030106438f5febec59744e665f9"
                                    },
                                    {
                                        "name": "makeAsset",
                                        "type": "((bytes4,bytes),uint256)",
                                        "value": [
                                            {
                                                "name": "assetType",
                                                "type": "(bytes4,bytes)",
                                                "value": [
                                                    {
                                                        "name": "assetClass",
                                                        "type": "bytes4",
                                                        "value": "0x73ad2146"
                                                    },
                                                    {
                                                        "name": "data",
                                                        "type": "bytes",
                                                        "value": "0x000000000000000000000000ad8fddba70583a9f864c7f18661acba586f9f1280000000000000000000000000000000000000000000000000000000000000155"
                                                    }
                                                ]
                                            },
                                            {
                                                "name": "value",
                                                "type": "uint256",
                                                "value": "1"
                                            }
                                        ]
                                    },
                                    {
                                        "name": "taker",
                                        "type": "address",
                                        "value": "0x0000000000000000000000000000000000000000"
                                    },
                                    {
                                        "name": "takeAsset",
                                        "type": "((bytes4,bytes),uint256)",
                                        "value": [
                                            {
                                                "name": "assetType",
                                                "type": "(bytes4,bytes)",
                                                "value": [
                                                    {
                                                        "name": "assetClass",
                                                        "type": "bytes4",
                                                        "value": "0xaaaebeba"
                                                    },
                                                    {
                                                        "name": "data",
                                                        "type": "bytes",
                                                        "value": "0x"
                                                    }
                                                ]
                                            },
                                            {
                                                "name": "value",
                                                "type": "uint256",
                                                "value": "467,326,400,000,000,000"
                                            }
                                        ]
                                    },
                                    {
                                        "name": "salt",
                                        "type": "uint256",
                                        "value": "95,031,559,970,092,447,751,244,968,444,557,667,198,996,108,190,722,341,879,914,350,724,831,387,336,612"
                                    },
                                    {
                                        "name": "start",
                                        "type": "uint256",
                                        "value": "0"
                                    },
                                    {
                                        "name": "end",
                                        "type": "uint256",
                                        "value": "0"
                                    },
                                    {
                                        "name": "dataType",
                                        "type": "bytes4",
                                        "value": "0x23d235ef"
                                    },
                                    {
                                        "name": "data",
                                        "type": "bytes",
                                        "value": "0x000000000000000000000000000000000000000000000000000000000000002000000000000000000000000000000000000000000000000000000000000000600000000000000000000000000000000000000000000000000000000000000080000000000000000000000000000000000000000000000000000000000000000000000000000000000000000000000000000000000000000000000000000000000000000000000000000000000000000000000000000000000000000000000000"
                                    }
                                ]
                            }
                        ],
                        "constructorArguments": "",
                        "name": "cancel",
                        "returnParams": [],
                        "signature": "cancel((address,((bytes4,bytes),uint256),address,((bytes4,bytes),uint256),uint256,uint256,uint256,bytes4,bytes))"
                    },
                    "errorInfo": "",
                    "fromAddress": "0x043414e986c8545cbe599c92366ed166ef6ebf5f",
                    "gasUsed": 32081,
                    "id": 1,
                    "methodDecoded": true,
                    "operation": "DELEGATECALL",
                    "output": "",
                    "revert": false,
                    "revertMessage": "",
                    "selector": "0xe2864fe3",
                    "status": true,
                    "value": "0"
                },
                "nodeType": 0
            },
            "2": {
                "event": {
                    "contract": "0x043414e986c8545cbe599c92366ed166ef6ebf5f",
                    "decodedLog": {
                        "name": "Cancel",
                        "params": [
                            {
                                "name": "hash",
                                "type": "bytes32",
                                "value": "0x42dc6850095045e6b3ec3e5db7ed7d80109c6a8b56cf488749f89aaea4de2cf6"
                            },
                            {
                                "name": "maker",
                                "type": "address",
                                "value": "0x2b915ee11d745030106438f5febec59744e665f9"
                            },
                            {
                                "name": "makeAssetType",
                                "type": "(bytes4,bytes)",
                                "value": [
                                    {
                                        "name": "assetClass",
                                        "type": "bytes4",
                                        "value": "0x73ad2146"
                                    },
                                    {
                                        "name": "data",
                                        "type": "bytes",
                                        "value": "0x000000000000000000000000ad8fddba70583a9f864c7f18661acba586f9f1280000000000000000000000000000000000000000000000000000000000000155"
                                    }
                                ]
                            },
                            {
                                "name": "takeAssetType",
                                "type": "(bytes4,bytes)",
                                "value": [
                                    {
                                        "name": "assetClass",
                                        "type": "bytes4",
                                        "value": "0xaaaebeba"
                                    },
                                    {
                                        "name": "data",
                                        "type": "bytes",
                                        "value": "0x"
                                    }
                                ]
                            }
                        ],
                        "signature": "Cancel(bytes32,address,(bytes4,bytes),(bytes4,bytes))"
                    },
                    "id": 2,
                    "logData": "0x42dc6850095045e6b3ec3e5db7ed7d80109c6a8b56cf488749f89aaea4de2cf60000000000000000000000002b915ee11d745030106438f5febec59744e665f90000000000000000000000000000000000000000000000000000000000000080000000000000000000000000000000000000000000000000000000000000012073ad21460000000000000000000000000000000000000000000000000000000000000000000000000000000000000000000000000000000000000000000000400000000000000000000000000000000000000000000000000000000000000040000000000000000000000000ad8fddba70583a9f864c7f18661acba586f9f1280000000000000000000000000000000000000000000000000000000000000155aaaebeba0000000000000000000000000000000000000000000000000000000000000000000000000000000000000000000000000000000000000000000000400000000000000000000000000000000000000000000000000000000000000000",
                    "logDecoded": true,
                    "operation": "EVENT",
                    "revert": false,
                    "status": true,
                    "topics": [
                        "0xbbdc98cb2835f4f846e6a63700d0498b4674f0e8858fd50c6379314227afa04e"
                    ]
                },
                "nodeType": 1
            }
        },
        "gasFlame": [
            {
                "children": [
                    {
                        "children": [
                            {
                                "children": [],
                                "depth": 0,
                                "name": "Initial Gas",
                                "value": 26072
                            },
                            {
                                "children": [
                                    {
                                        "children": [],
                                        "depth": 1,
                                        "name": "cancel",
                                        "value": 32081
                                    }
                                ],
                                "depth": 0,
                                "name": "Executed Gas",
                                "value": 39575
                            }
                        ],
                        "depth": -1,
                        "name": "Actual Gas Used",
                        "value": 65647
                    },
                    {
                        "children": [],
                        "depth": -1,
                        "name": "Refunded Gas",
                        "value": 0
                    }
                ],
                "depth": -2,
                "name": "Total Gas",
                "value": 65647
            }
        ],
        "isConfirmed": true,
        "mainTrace": [
            {
                "children": [
                    {
                        "children": [
                            {
                                "children": [
                                    {
                                        "children": [],
                                        "depth": 2,
                                        "id": 2,
                                        "order": 2
                                    }
                                ],
                                "depth": 1,
                                "id": 1,
                                "order": 1
                            }
                        ],
                        "depth": 0,
                        "id": 0,
                        "order": 0
                    }
                ],
                "depth": -1,
                "id": -1,
                "order": -1
            }
        ],
        "mainTraceNodeCount": 3,
        "parentIdMap": {
            "0": -1,
            "1": 0,
            "2": 1
        },
        "tidyTrace": [
            {
                "children": [
                    {
                        "children": [
                            {
                                "children": [
                                    {
                                        "children": [],
                                        "depth": 2,
                                        "id": 2,
                                        "order": 2
                                    }
                                ],
                                "depth": 1,
                                "id": 1,
                                "order": 1
                            }
                        ],
                        "depth": 0,
                        "id": 0,
                        "order": 0
                    }
                ],
                "depth": -1,
                "id": -1,
                "order": -1
            }
        ],
        "tidyTraceNodeCount": 3
    },
    "state_change": {
        "stateChanges": [
            {
                "address": "0x043414e986c8545cbe599c92366ed166ef6ebf5f",
                "erc": "",
                "slots": [
                    {
                        "current": "0xffffffffffffffffffffffffffffffffffffffffffffffffffffffffffffffff",
                        "key": "0x3b295b4ff485c8d0e1c7468173c0bb1aa963ffe227984559eecc93be23afccfd",
                        "prev": "0x0000000000000000000000000000000000000000000000000000000000000000"
                    }
                ],
                "storageVariables": [
                    {
                        "name": "fills",
                        "type": "mapping(bytes32 => uint256)",
                        "value": {
                            "pairs": [
                                {
                                    "key": "0x42dc6850095045e6b3ec3e5db7ed7d80109c6a8b56cf488749f89aaea4de2cf6",
                                    "value": {
                                        "current": "115792089237316195423570985008687907853269984665640564039457584007913129639935",
                                        "prev": "0",
                                        "typeTag": 1
                                    }
                                }
                            ],
                            "typeTag": 4
                        }
                    }
                ]
            }
        ]
    }
}