{
    "balance_change": {
        "balanceChanges": [
            {
                "account": "0x444f381ac5c625834516e77e859288fb07a50604",
                "assets": [
                    {
                        "address": "0xedbaf3c5100302dcdda53269322f3730b1f0416d",
                        "amount": "197",
                        "iconUrl": "",
                        "isERC1155": false,
                        "isERC721": false,
                        "sign": true,
                        "value": ""
                    }
                ]
            },
            {
                "account": "0x6a3685701297a9636a4237210914bcc1191164b5",
                "assets": [
                    {
                        "address": "0xedbaf3c5100302dcdda53269322f3730b1f0416d",
                        "amount": "197",
                        "iconUrl": "",
                        "isERC1155": false,
                        "isERC721": false,
                        "sign": false,
                        "value": ""
                    }
                ]
            }
        ]
    },
    "profile": {
        "basic_info": {
            "baseFee": "",
            "blockNumber": 3444017,
            "callData": "0x23b872dd0000000000000000000000006a3685701297a9636a4237210914bcc1191164b5000000000000000000000000444f381ac5c625834516e77e859288fb07a5060400000000000000000000000000000000000000000000000000000000012c9920",
            "debugEnable": true,
            "errorInfo": "",
            "eventCount": 1,
            "feeRecipient": "0x1e9939daaad6924ad004c2560e90804164900341",
            "formatValue": "0",
            "gasLimit": 90000,
            "gasPrice": "20",
            "gasUsed": 44221,
            "intTxnCount": 0,
            "internalRevert": false,
            "internalRevertMessage": "",
            "isContractCreation": false,
            "isFlashloan": false,
            "maxFee": "",
            "nonce": 6560,
            "overwritedBlockNumber": -1,
            "priorityFee": "",
            "receiver": "0xedbaf3c5100302dcdda53269322f3730b1f0416d",
            "revertMessage": "",
            "sender": "0x1746ee2f5b8719c518dd234cbe1ce203489a4181",
            "simulationEnable": true,
            "sourceTxnHash": "0x4c8aa6522b3ee45bb2c0ce7fe0e4f6e6121560afbb4f6219daf7bdb62d2fe608",
            "status": true,
            "timestamp": "2017-03-30T05:43:43Z",
            "transactionFee": "0.00088442",
            "txnHash": "0x4c8aa6522b3ee45bb2c0ce7fe0e4f6e6121560afbb4f6219daf7bdb62d2fe608",
            "txnIndex": 1,
            "type": 0,
            "value": "0"
        },
        "fund_flow": [
            {
                "amount": "197",
                "from": "0x6a3685701297a9636a4237210914bcc1191164b5",
                "id": 1,
                "isERC1155": false,
                "isERC721": false,
                "isReverted": false,
                "order": 1,
                "to": "0x444f381ac5c625834516e77e859288fb07a50604",
                "token": "0xedbaf3c5100302dcdda53269322f3730b1f0416d"
            }
        ],
        "token_infos": [
            {
                "address": "0xc02aaa39b223fe8d0a0e5c4f27ead9083c756cc2",
                "decimals": 18
            },
            {
                "address": "0xedbaf3c5100302dcdda53269322f3730b1f0416d",
                "decimals": 5
            },
            {
                "address": "0xeeeeeeeeeeeeeeeeeeeeeeeeeeeeeeeeeeeeeeee",
                "decimals": 18
            }
        ]
    },
    "address_label": {
        "labels": [
            {
                "address": "0xeeeeeeeeeeeeeeeeeeeeeeeeeeeeeeeeeeeeeeee",
                "label": "Ether"
            },
            {
                "address": "0xedbaf3c5100302dcdda53269322f3730b1f0416d",
                "label": "Veros (Veros)"
            },
            {
                "address": "0x0000000000000000000000000000000000000001",
                "label": "Precompiled"
            },
            {
                "address": "0x0000000000000000000000000000000000000002",
                "label": "Precompiled"
            },
            {
                "address": "0x0000000000000000000000000000000000000003",
                "label": "Precompiled"
            },
            {
                "address": "0x0000000000000000000000000000000000000004",
                "label": "Precompiled"
            }
        ]
    },
    "trace": {
        "accountLabels": null,
        "dataMap": {
            "-1": {
                "invocation": {
                    "address": "0x1746ee2f5b8719c518dd234cbe1ce203489a4181",
                    "callData": "",
                    "decodedMethod": null,
                    "errorInfo": "",
                    "fromAddress": "",
                    "gasUsed": 0,
                    "id": -1,
                    "methodDecoded": false,
                    "operation": "",
                    "output": "",
                    "revert": false,
                    "revertMessage": "",
                    "selector": "",
                    "status": false,
                    "value": ""
                },
                "nodeType": 0
            },
            "0": {
                "invocation": {
                    "address": "0xedbaf3c5100302dcdda53269322f3730b1f0416d",
                    "callData": "0x0000000000000000000000006a3685701297a9636a4237210914bcc1191164b5000000000000000000000000444f381ac5c625834516e77e859288fb07a5060400000000000000000000000000000000000000000000000000000000012c9920",
                    "decodedMethod": {
                        "callParams": [
                            {
                                "name": "sender",
                                "type": "address",
                                "value": "0x6a3685701297a9636a4237210914bcc1191164b5"
                            },
                            {
                                "name": "recipient",
                                "type": "address",
                                "value": "0x444f381ac5c625834516e77e859288fb07a50604"
                            },
                            {
                                "decimalAvailable": true,
                                "name": "amount",
                                "type": "uint256",
                                "value": "19,700,000"
                            }
                        ],
                        "constructorArguments": "",
                        "name": "transferFrom",
                        "returnParams": [
                            {
                                "name": "",
                                "type": "bool",
                                "value": true
                            }
                        ],
                        "signature": "transferFrom(address,address,uint256)"
                    },
                    "errorInfo": "",
                    "fromAddress": "0x1746ee2f5b8719c518dd234cbe1ce203489a4181",
                    "gasUsed": 44221,
                    "id": 0,
                    "methodDecoded": true,
                    "operation": "CALL",
                    "output": "0x0000000000000000000000000000000000000000000000000000000000000001",
                    "revert": false,
                    "revertMessage": "",
                    "selector": "0x23b872dd",
                    "status": true,
                    "value": "0"
                },
                "nodeType": 0
            },
            "1": {
                "event": {
                    "contract": "0xedbaf3c5100302dcdda53269322f3730b1f0416d",
                    "decodedLog": {
                        "name": "Transfer",
                        "params": [
                            {
                                "name": "from",
                                "type": "address",
                                "value": "0x6a3685701297a9636a4237210914bcc1191164b5"
                            },
                            {
                                "name": "to",
                                "type": "address",
                                "value": "0x444f381ac5c625834516e77e859288fb07a50604"
                            },
                            {
                                "decimalAvailable": true,
                                "name": "value",
                                "type": "uint256",
                                "value": "19,700,000"
                            }
                        ],
                        "signature": "Transfer(address,address,uint256)"
                    },
                    "id": 1,
                    "logData": "0x00000000000000000000000000000000000000000000000000000000012c9920",
                    "logDecoded": true,
                    "operation": "EVENT",
                    "revert": false,
                    "status": true,
                    "topics": [
                        "0xddf252ad1be2c89b69c2b068fc378daa952ba7f163c4a11628f55a4df523b3ef",
                        "0x0000000000000000000000006a3685701297a9636a4237210914bcc1191164b5",
                        "0x000000000000000000000000444f381ac5c625834516e77e859288fb07a50604"
                    ]
                },
                "nodeType": 1
            }
        },
        "gasFlame": [
            {
                "children": [
                    {
                        "children": [
                            {
                                "children": [],
                                "depth": 0,
                                "name": "Initial Gas",
                                "value": 24472
                            },
                            {
                                "children": [],
                                "depth": 0,
                                "name": "Executed Gas",
                                "value": 19749
                            }
                        ],
                        "depth": -1,
                        "name": "Actual Gas Used",
                        "value": 44221
                    },
                    {
                        "children": [],
                        "depth": -1,
                        "name": "Refunded Gas",
                        "value": 0
                    }
                ],
                "depth": -2,
                "name": "Total Gas",
                "value": 44221
            }
        ],
        "isConfirmed": true,
        "mainTrace": [
            {
                "children": [
                    {
                        "children": [
                            {
                                "children": [],
                                "depth": 1,
                                "id": 1,
                                "order": 1
                            }
                        ],
                        "depth": 0,
                        "id": 0,
                        "order": 0
                    }
                ],
                "depth": -1,
                "id": -1,
                "order": -1
            }
        ],
        "mainTraceNodeCount": 2,
        "parentIdMap": {
            "0": -1,
            "1": 0
        },
        "tidyTrace": [
            {
                "children": [
                    {
                        "children": [
                            {
                                "children": [],
                                "depth": 1,
                                "id": 1,
                                "order": 1
                            }
                        ],
                        "depth": 0,
                        "id": 0,
                        "order": 0
                    }
                ],
                "depth": -1,
                "id": -1,
                "order": -1
            }
        ],
        "tidyTraceNodeCount": 2
    },
    "state_change": {
        "stateChanges": [
            {
                "address": "0xedbaf3c5100302dcdda53269322f3730b1f0416d",
                "erc": "",
                "slots": [
                    {
                        "current": "0x00000000000000000000000000000000000000000000000000000002a1175720",
                        "key": "0x6d5257204ebe7d88fd91ae87941cb2dd9d8062b64ae5a2bd2d28ec40b9fbf6df",
                        "prev": "0x00000000000000000000000000000000000000000000000000000002a1174b68"
                    },
                    {
                        "current": "0x00000000000000000000000000000000000000000000000000000000000157c0",
                        "key": "0x0fbca23cc59c680e572c0b0d8cc64edad76a0c83e197770e3af09fdd36a58a34",
                        "prev": "0x00000000000000000000000000000000000000000000000000000000012dfc98"
                    },
                    {
                        "current": "0x0000000000000000000000000000000000000000000000000000000001c39190",
                        "key": "0x24f31385ed9ceb3df6d91177307de31659a7d61a49ae2d70193a5b88dddeef9b",
                        "prev": "0x000000000000000000000000000000000000000000000000000000000096f870"
                    }
                ],
                "storageVariables": []
            }
        ]
    }
}