{
    "balance_change": {
        "balanceChanges": [
            {
                "account": "0x00582c12d3b4a5f2b9d6f490d0536f8dcc3d56ef",
                "assets": [
                    {
                        "address": "0x9a642d6b3368ddc662ca244badf32cda716005bc",
                        "amount": "20",
                        "iconUrl": "",
                        "isERC1155": false,
                        "isERC721": false,
                        "sign": false,
                        "value": ""
                    }
                ]
            },
            {
                "account": "0x98a97b7838affe8e8b058959c9b25a0504a8d274",
                "assets": [
                    {
                        "address": "0x9a642d6b3368ddc662ca244badf32cda716005bc",
                        "amount": "20",
                        "iconUrl": "",
                        "isERC1155": false,
                        "isERC721": false,
                        "sign": true,
                        "value": ""
                    }
                ]
            }
        ]
    },
    "profile": {
        "basic_info": {
            "baseFee": "",
            "blockNumber": 4214794,
            "callData": "0xa9059cbb00000000000000000000000098a97b7838affe8e8b058959c9b25a0504a8d274000000000000000000000000000000000000000000000001158e460913d00000",
            "debugEnable": true,
            "errorInfo": "",
            "eventCount": 1,
            "feeRecipient": "0xb2930b35844a230f00e51431acae96fe543a0347",
            "formatValue": "0",
            "gasLimit": 300000,
            "gasPrice": "10",
            "gasUsed": 51539,
            "intTxnCount": 0,
            "internalRevert": false,
            "internalRevertMessage": "",
            "isContractCreation": false,
            "isFlashloan": false,
            "maxFee": "",
            "nonce": 355,
            "overwritedBlockNumber": -1,
            "priorityFee": "",
            "receiver": "0x9a642d6b3368ddc662ca244badf32cda716005bc",
            "revertMessage": "",
            "sender": "0x00582c12d3b4a5f2b9d6f490d0536f8dcc3d56ef",
            "simulationEnable": true,
            "sourceTxnHash": "0x4c5062b0dd625d0d8d7464cd03d134244b25661956d611d456b5e1a1025ef10f",
            "status": true,
            "timestamp": "2017-08-29T02:01:21Z",
            "transactionFee": "0.00051539",
            "txnHash": "0x4c5062b0dd625d0d8d7464cd03d134244b25661956d611d456b5e1a1025ef10f",
            "txnIndex": 94,
            "type": 0,
            "value": "0"
        },
        "fund_flow": [
            {
                "amount": "20",
                "from": "0x00582c12d3b4a5f2b9d6f490d0536f8dcc3d56ef",
                "id": 1,
                "isERC1155": false,
                "isERC721": false,
                "isReverted": false,
                "order": 1,
                "to": "0x98a97b7838affe8e8b058959c9b25a0504a8d274",
                "token": "0x9a642d6b3368ddc662ca244badf32cda716005bc"
            }
        ],
        "token_infos": [
            {
                "address": "0x9a642d6b3368ddc662ca244badf32cda716005bc",
                "decimals": 18
            },
            {
                "address": "0xc02aaa39b223fe8d0a0e5c4f27ead9083c756cc2",
                "decimals": 18
            },
            {
                "address": "0xeeeeeeeeeeeeeeeeeeeeeeeeeeeeeeeeeeeeeeee",
                "decimals": 18
            }
        ]
    },
    "address_label": {
        "labels": [
            {
                "address": "0x98a97b7838affe8e8b058959c9b25a0504a8d274",
                "label": "BITTREX"
            },
            {
                "address": "0x0000000000000000000000000000000000000001",
                "label": "Precompiled"
            },
            {
                "address": "0x0000000000000000000000000000000000000002",
                "label": "Precompiled"
            },
            {
                "address": "0x0000000000000000000000000000000000000003",
                "label": "Precompiled"
            },
            {
                "address": "0x0000000000000000000000000000000000000004",
                "label": "Precompiled"
            },
            {
                "address": "0xeeeeeeeeeeeeeeeeeeeeeeeeeeeeeeeeeeeeeeee",
                "label": "Ether"
            },
            {
                "address": "0x9a642d6b3368ddc662ca244badf32cda716005bc",
                "label": "Qtum Token"
            }
        ]
    },
    "trace": {
        "accountLabels": null,
        "dataMap": {
            "-1": {
                "invocation": {
                    "address": "0x00582c12d3b4a5f2b9d6f490d0536f8dcc3d56ef",
                    "callData": "",
                    "decodedMethod": null,
                    "errorInfo": "",
                    "fromAddress": "",
                    "gasUsed": 0,
                    "id": -1,
                    "methodDecoded": false,
                    "operation": "",
                    "output": "",
                    "revert": false,
                    "revertMessage": "",
                    "selector": "",
                    "status": false,
                    "value": ""
                },
                "nodeType": 0
            },
            "0": {
                "invocation": {
                    "address": "0x9a642d6b3368ddc662ca244badf32cda716005bc",
                    "callData": "0x00000000000000000000000098a97b7838affe8e8b058959c9b25a0504a8d274000000000000000000000000000000000000000000000001158e460913d00000",
                    "decodedMethod": {
                        "callParams": [
                            {
                                "name": "_to",
                                "type": "address",
                                "value": "0x98a97b7838affe8e8b058959c9b25a0504a8d274"
                            },
                            {
                                "decimalAvailable": true,
                                "name": "_value",
                                "type": "uint256",
                                "value": "20,000,000,000,000,000,000"
                            }
                        ],
                        "constructorArguments": "",
                        "name": "transfer",
                        "returnParams": [
                            {
                                "name": "success",
                                "type": "bool",
                                "value": true
                            }
                        ],
                        "signature": "transfer(address,uint256)"
                    },
                    "errorInfo": "",
                    "fromAddress": "0x00582c12d3b4a5f2b9d6f490d0536f8dcc3d56ef",
                    "gasUsed": 51539,
                    "id": 0,
                    "methodDecoded": true,
                    "operation": "CALL",
                    "output": "0x0000000000000000000000000000000000000000000000000000000000000001",
                    "revert": false,
                    "revertMessage": "",
                    "selector": "0xa9059cbb",
                    "status": true,
                    "value": "0"
                },
                "nodeType": 0
            },
            "1": {
                "event": {
                    "contract": "0x9a642d6b3368ddc662ca244badf32cda716005bc",
                    "decodedLog": {
                        "name": "Transfer",
                        "params": [
                            {
                                "name": "_from",
                                "type": "address",
                                "value": "0x00582c12d3b4a5f2b9d6f490d0536f8dcc3d56ef"
                            },
                            {
                                "name": "_to",
                                "type": "address",
                                "value": "0x98a97b7838affe8e8b058959c9b25a0504a8d274"
                            },
                            {
                                "decimalAvailable": true,
                                "name": "_value",
                                "type": "uint256",
                                "value": "20,000,000,000,000,000,000"
                            }
                        ],
                        "signature": "Transfer(address,address,uint256)"
                    },
                    "id": 1,
                    "logData": "0x000000000000000000000000000000000000000000000001158e460913d00000",
                    "logDecoded": true,
                    "operation": "EVENT",
                    "revert": false,
                    "status": true,
                    "topics": [
                        "0xddf252ad1be2c89b69c2b068fc378daa952ba7f163c4a11628f55a4df523b3ef",
                        "0x00000000000000000000000000582c12d3b4a5f2b9d6f490d0536f8dcc3d56ef",
                        "0x00000000000000000000000098a97b7838affe8e8b058959c9b25a0504a8d274"
                    ]
                },
                "nodeType": 1
            }
        },
        "gasFlame": [
            {
                "children": [
                    {
                        "children": [
                            {
                                "children": [],
                                "depth": 0,
                                "name": "Initial Gas",
                                "value": 23256
                            },
                            {
                                "children": [],
                                "depth": 0,
                                "name": "Executed Gas",
                                "value": 28283
                            }
                        ],
                        "depth": -1,
                        "name": "Actual Gas Used",
                        "value": 51539
                    },
                    {
                        "children": [],
                        "depth": -1,
                        "name": "Refunded Gas",
                        "value": 0
                    }
                ],
                "depth": -2,
                "name": "Total Gas",
                "value": 51539
            }
        ],
        "isConfirmed": true,
        "mainTrace": [
            {
                "children": [
                    {
                        "children": [
                            {
                                "children": [],
                                "depth": 1,
                                "id": 1,
                                "order": 1
                            }
                        ],
                        "depth": 0,
                        "id": 0,
                        "order": 0
                    }
                ],
                "depth": -1,
                "id": -1,
                "order": -1
            }
        ],
        "mainTraceNodeCount": 2,
        "parentIdMap": {
            "0": -1,
            "1": 0
        },
        "tidyTrace": [
            {
                "children": [
                    {
                        "children": [
                            {
                                "children": [],
                                "depth": 1,
                                "id": 1,
                                "order": 1
                            }
                        ],
                        "depth": 0,
                        "id": 0,
                        "order": 0
                    }
                ],
                "depth": -1,
                "id": -1,
                "order": -1
            }
        ],
        "tidyTraceNodeCount": 2
    },
    "state_change": {
        "stateChanges": [
            {
                "address": "0x9a642d6b3368ddc662ca244badf32cda716005bc",
                "erc": "ERC-20",
                "slots": [
                    {
                        "current": "0x0000000000000000000000000000000000000000000000461e9e0ef1c42ce13c",
                        "key": "0xbc93962260498a938d75e91a9392ad2a4ce9427e07f63da1dac2ba853cd9f01e",
                        "prev": "0x000000000000000000000000000000000000000000000047342c54fad7fce13c"
                    },
                    {
                        "current": "0x000000000000000000000000000000000000000000000001158e460913d00000",
                        "key": "0x2eb9ef4911e26e542860d0306ea5c420ddebecedacd221b92163e1eeebce0872",
                        "prev": "0x0000000000000000000000000000000000000000000000000000000000000000"
                    }
                ],
                "storageVariables": []
            }
        ]
    }
}