{
    "balance_change": {
        "balanceChanges": [
            {
                "account": "0xe7aa186e897ba8338001a7b4a0c410cadc2d168d",
                "assets": [
                    {
                        "address": "0xeeeeeeeeeeeeeeeeeeeeeeeeeeeeeeeeeeeeeeee",
                        "amount": "0.26279772509391131",
                        "iconUrl": "https://assets.blocksec.com/image/1663669189317-3.png",
                        "isERC1155": false,
                        "isERC721": false,
                        "sign": false,
                        "value": "573.91606791413697136"
                    },
                    {
                        "address": "0xd417144312dbf50465b1c641d016962017ef6240",
                        "amount": "2,498.934772935451414646",
                        "iconUrl": "https://assets.blocksec.com/icon/5d7c5db1c9811d69a9190609f710f7fe59496b4eb82d019557624bbf969b33d0.png",
                        "isERC1155": false,
                        "isERC721": false,
                        "sign": true,
                        "value": "564.2594717434000018"
                    }
                ]
            },
            {
                "account": "0x17890deb188f2de6c3e966e053da1c9a111ed4a5",
                "assets": [
                    {
                        "address": "0xa0b86991c6218b36c1d19d4a2e9eb0ce3606eb48",
                        "amount": "570.117448",
                        "iconUrl": "https://assets.blocksec.com/icon/0347a86cc07dbd03fdc5db01a4e5ac7e1217f90e0b6e4bb0f75cbcca09160989.png",
                        "isERC1155": false,
                        "isERC721": false,
                        "sign": true,
                        "value": "562.99097990000002534"
                    },
                    {
                        "address": "0xd417144312dbf50465b1c641d016962017ef6240",
                        "amount": "2,498.934772935451414646",
                        "iconUrl": "https://assets.blocksec.com/icon/5d7c5db1c9811d69a9190609f710f7fe59496b4eb82d019557624bbf969b33d0.png",
                        "isERC1155": false,
                        "isERC721": false,
                        "sign": false,
                        "value": "564.2594717434000018"
                    }
                ]
            },
            {
                "account": "0x397ff1542f962076d0bfe58ea045ffa2d347aca0",
                "assets": [
                    {
                        "address": "0xc02aaa39b223fe8d0a0e5c4f27ead9083c756cc2",
                        "amount": "0.26279772509391131",
                        "iconUrl": "https://assets.blocksec.com/icon/f1cb2d02c471d545bbc7722daf3277fd852d98e63d118771af7047bd8256c516.png",
                        "isERC1155": false,
                        "isERC721": false,
                        "sign": true,
                        "value": "573.91606791413697136"
                    },
                    {
                        "address": "0xa0b86991c6218b36c1d19d4a2e9eb0ce3606eb48",
                        "amount": "570.117448",
                        "iconUrl": "https://assets.blocksec.com/icon/0347a86cc07dbd03fdc5db01a4e5ac7e1217f90e0b6e4bb0f75cbcca09160989.png",
                        "isERC1155": false,
                        "isERC721": false,
                        "sign": false,
                        "value": "562.99097990000002534"
                    }
                ]
            },
            {
                "account": "0xc02aaa39b223fe8d0a0e5c4f27ead9083c756cc2",
                "assets": [
                    {
                        "address": "0xeeeeeeeeeeeeeeeeeeeeeeeeeeeeeeeeeeeeeeee",
                        "amount": "0.26279772509391131",
                        "iconUrl": "https://assets.blocksec.com/image/1663669189317-3.png",
                        "isERC1155": false,
                        "isERC721": false,
                        "sign": true,
                        "value": "573.91606791413697136"
                    },
                    {
                        "address": "0xc02aaa39b223fe8d0a0e5c4f27ead9083c756cc2",
                        "amount": "0.26279772509391131",
                        "iconUrl": "https://assets.blocksec.com/icon/f1cb2d02c471d545bbc7722daf3277fd852d98e63d118771af7047bd8256c516.png",
                        "isERC1155": false,
                        "isERC721": false,
                        "sign": false,
                        "value": "573.91606791413697136"
                    }
                ]
            }
        ]
    },
    "profile": {
        "basic_info": {
            "baseFee": "52.2719479",
            "blockNumber": 18764852,
            "callData": "0x2646478b000000000000000000000000eeeeeeeeeeeeeeeeeeeeeeeeeeeeeeeeeeeeeeee00000000000000000000000000000000000000000000000003a5a5237c00db0e000000000000000000000000d417144312dbf50465b1c641d016962017ef6240000000000000000000000000000000000000000000000086ca49c061709e0000000000000000000000000000e7aa186e897ba8338001a7b4a0c410cadc2d168d00000000000000000000000000000000000000000000000000000000000000c000000000000000000000000000000000000000000000000000000000000000ac0301ffff0201397ff1542f962076d0bfe58ea045ffa2d347aca0c02aaa39b223fe8d0a0e5c4f27ead9083c756cc204c02aaa39b223fe8d0a0e5c4f27ead9083c756cc200397ff1542f962076d0bfe58ea045ffa2d347aca00017890deb188f2de6c3e966e053da1c9a111ed4a504a0b86991c6218b36c1d19d4a2e9eb0ce3606eb480017890deb188f2de6c3e966e053da1c9a111ed4a501e7aa186e897ba8338001a7b4a0c410cadc2d168d0000000000000000000000000000000000000000",
            "debugEnable": true,
            "errorInfo": "",
            "eventCount": 9,
            "feeRecipient": "0x4675c7e5baafbffbca748158becba61ef3b0a263",
            "formatValue": "0.26279772509391131",
            "gasLimit": 279408,
            "gasPrice": "52.3719479",
            "gasUsed": 183498,
            "intTxnCount": 20,
            "internalRevert": false,
            "internalRevertMessage": "",
            "isContractCreation": false,
            "isFlashloan": false,
            "maxFee": "73.287516592",
            "nonce": 1,
            "overwritedBlockNumber": -1,
            "priorityFee": "0.1",
            "receiver": "0x5550d13389bb70f45fcef58f19f6b6e87f6e747d",
            "revertMessage": "",
            "sender": "0xe7aa186e897ba8338001a7b4a0c410cadc2d168d",
            "simulationEnable": true,
            "sourceTxnHash": "0x4cf1a7a62ac9585bf18fc91655b7b3e6d40d7e11c208c0326a1d42353f5f8686",
            "status": true,
            "timestamp": "2023-12-11T18:49:47Z",
            "transactionFee": "0.0096101476957542",
            "txnHash": "0x4cf1a7a62ac9585bf18fc91655b7b3e6d40d7e11c208c0326a1d42353f5f8686",
            "txnIndex": 78,
            "type": 2,
            "value": "262797725093911310"
        },
        "fund_flow": [
            {
                "amount": "0.26279772509391131",
                "from": "0xe7aa186e897ba8338001a7b4a0c410cadc2d168d",
                "id": 1,
                "isERC1155": false,
                "isERC721": false,
                "isReverted": false,
                "order": 1,
                "to": "0x5550d13389bb70f45fcef58f19f6b6e87f6e747d",
                "token": "0xeeeeeeeeeeeeeeeeeeeeeeeeeeeeeeeeeeeeeeee"
            },
            {
                "amount": "0.26279772509391131",
                "from": "0x5550d13389bb70f45fcef58f19f6b6e87f6e747d",
                "id": 2,
                "isERC1155": false,
                "isERC721": false,
                "isReverted": false,
                "order": 2,
                "to": "0xc02aaa39b223fe8d0a0e5c4f27ead9083c756cc2",
                "token": "0xeeeeeeeeeeeeeeeeeeeeeeeeeeeeeeeeeeeeeeee"
            },
            {
                "amount": "0.26279772509391131",
                "from": "0xc02aaa39b223fe8d0a0e5c4f27ead9083c756cc2",
                "id": 3,
                "isERC1155": false,
                "isERC721": false,
                "isReverted": false,
                "order": 3,
                "to": "0x5550d13389bb70f45fcef58f19f6b6e87f6e747d",
                "token": "0xc02aaa39b223fe8d0a0e5c4f27ead9083c756cc2"
            },
            {
                "amount": "0.26279772509391131",
                "from": "0x5550d13389bb70f45fcef58f19f6b6e87f6e747d",
                "id": 4,
                "isERC1155": false,
                "isERC721": false,
                "isReverted": false,
                "order": 4,
                "to": "0x397ff1542f962076d0bfe58ea045ffa2d347aca0",
                "token": "0xc02aaa39b223fe8d0a0e5c4f27ead9083c756cc2"
            },
            {
                "amount": "570.117448",
                "from": "0x397ff1542f962076d0bfe58ea045ffa2d347aca0",
                "id": 5,
                "isERC1155": false,
                "isERC721": false,
                "isReverted": false,
                "order": 5,
                "to": "0x17890deb188f2de6c3e966e053da1c9a111ed4a5",
                "token": "0xa0b86991c6218b36c1d19d4a2e9eb0ce3606eb48"
            },
            {
                "amount": "2,498.934772935451414646",
                "from": "0x17890deb188f2de6c3e966e053da1c9a111ed4a5",
                "id": 6,
                "isERC1155": false,
                "isERC721": false,
                "isReverted": false,
                "order": 6,
                "to": "0xe7aa186e897ba8338001a7b4a0c410cadc2d168d",
                "token": "0xd417144312dbf50465b1c641d016962017ef6240"
            }
        ],
        "token_infos": [
            {
                "address": "0xa0b86991c6218b36c1d19d4a2e9eb0ce3606eb48",
                "decimals": 6
            },
            {
                "address": "0xc02aaa39b223fe8d0a0e5c4f27ead9083c756cc2",
                "decimals": 18
            },
            {
                "address": "0xd417144312dbf50465b1c641d016962017ef6240",
                "decimals": 18
            },
            {
                "address": "0xeeeeeeeeeeeeeeeeeeeeeeeeeeeeeeeeeeeeeeee",
                "decimals": 18
            }
        ]
    },
    "address_label": {
        "labels": [
            {
                "address": "0xa2327a938febf5fec13bacfb16ae10ecbc4cbdcf",
                "label": "FiatTokenV2_1"
            },
            {
                "address": "0xc02aaa39b223fe8d0a0e5c4f27ead9083c756cc2",
                "label": "Wrapped Ether (WETH)"
            },
            {
                "address": "0x17890deb188f2de6c3e966e053da1c9a111ed4a5",
                "label": "SushiSwap: USDC-CQT"
            },
            {
                "address": "0x5550d13389bb70f45fcef58f19f6b6e87f6e747d",
                "label": "RouteProcessor3_2"
            },
            {
                "address": "0xa0b86991c6218b36c1d19d4a2e9eb0ce3606eb48",
                "label": "Circle: USDC Token"
            },
            {
                "address": "0x0000000000000000000000000000000000000002",
                "label": "Precompiled"
            },
            {
                "address": "0x0000000000000000000000000000000000000003",
                "label": "Precompiled"
            },
            {
                "address": "0x0000000000000000000000000000000000000004",
                "label": "Precompiled"
            },
            {
                "address": "0xeeeeeeeeeeeeeeeeeeeeeeeeeeeeeeeeeeeeeeee",
                "label": "Ether"
            },
            {
                "address": "0x397ff1542f962076d0bfe58ea045ffa2d347aca0",
                "label": "SushiSwap: USDC"
            },
            {
                "address": "0xd417144312dbf50465b1c641d016962017ef6240",
                "label": "Covalent: CQT Token"
            },
            {
                "address": "0x0000000000000000000000000000000000000001",
                "label": "Precompiled"
            }
        ]
    },
    "trace": {
        "accountLabels": null,
        "dataMap": {
            "-1": {
                "invocation": {
                    "address": "0xe7aa186e897ba8338001a7b4a0c410cadc2d168d",
                    "callData": "",
                    "decodedMethod": null,
                    "errorInfo": "",
                    "fromAddress": "",
                    "gasUsed": 0,
                    "id": -1,
                    "methodDecoded": false,
                    "operation": "",
                    "output": "",
                    "revert": false,
                    "revertMessage": "",
                    "selector": "",
                    "status": false,
                    "value": ""
                },
                "nodeType": 0
            },
            "0": {
                "invocation": {
                    "address": "0x5550d13389bb70f45fcef58f19f6b6e87f6e747d",
                    "callData": "0x000000000000000000000000eeeeeeeeeeeeeeeeeeeeeeeeeeeeeeeeeeeeeeee00000000000000000000000000000000000000000000000003a5a5237c00db0e000000000000000000000000d417144312dbf50465b1c641d016962017ef6240000000000000000000000000000000000000000000000086ca49c061709e0000000000000000000000000000e7aa186e897ba8338001a7b4a0c410cadc2d168d00000000000000000000000000000000000000000000000000000000000000c000000000000000000000000000000000000000000000000000000000000000ac0301ffff0201397ff1542f962076d0bfe58ea045ffa2d347aca0c02aaa39b223fe8d0a0e5c4f27ead9083c756cc204c02aaa39b223fe8d0a0e5c4f27ead9083c756cc200397ff1542f962076d0bfe58ea045ffa2d347aca00017890deb188f2de6c3e966e053da1c9a111ed4a504a0b86991c6218b36c1d19d4a2e9eb0ce3606eb480017890deb188f2de6c3e966e053da1c9a111ed4a501e7aa186e897ba8338001a7b4a0c410cadc2d168d0000000000000000000000000000000000000000",
                    "decodedMethod": {
                        "callParams": [
                            {
                                "name": "tokenIn",
                                "type": "address",
                                "value": "0xeeeeeeeeeeeeeeeeeeeeeeeeeeeeeeeeeeeeeeee"
                            },
                            {
                                "name": "amountIn",
                                "type": "uint256",
                                "value": "262,797,725,093,911,310"
                            },
                            {
                                "name": "tokenOut",
                                "type": "address",
                                "value": "0xd417144312dbf50465b1c641d016962017ef6240"
                            },
                            {
                                "name": "amountOutMin",
                                "type": "uint256",
                                "value": "2,486,440,099,070,775,001,088"
                            },
                            {
                                "name": "to",
                                "type": "address",
                                "value": "0xe7aa186e897ba8338001a7b4a0c410cadc2d168d"
                            },
                            {
                                "name": "route",
                                "type": "bytes",
                                "value": "0x0301ffff0201397ff1542f962076d0bfe58ea045ffa2d347aca0c02aaa39b223fe8d0a0e5c4f27ead9083c756cc204c02aaa39b223fe8d0a0e5c4f27ead9083c756cc200397ff1542f962076d0bfe58ea045ffa2d347aca00017890deb188f2de6c3e966e053da1c9a111ed4a504a0b86991c6218b36c1d19d4a2e9eb0ce3606eb480017890deb188f2de6c3e966e053da1c9a111ed4a501e7aa186e897ba8338001a7b4a0c410cadc2d168d"
                            }
                        ],
                        "constructorArguments": "",
                        "name": "processRoute",
                        "returnParams": [
                            {
                                "name": "amountOut",
                                "type": "uint256",
                                "value": "2,498,934,772,935,451,414,646"
                            }
                        ],
                        "signature": "processRoute(address,uint256,address,uint256,address,bytes)"
                    },
                    "errorInfo": "",
                    "fromAddress": "0xe7aa186e897ba8338001a7b4a0c410cadc2d168d",
                    "gasUsed": 183498,
                    "id": 0,
                    "methodDecoded": true,
                    "operation": "CALL",
                    "output": "0x00000000000000000000000000000000000000000000008777afc00f99031076",
                    "revert": false,
                    "revertMessage": "",
                    "selector": "0x2646478b",
                    "status": true,
                    "value": "0.26279772509391131"
                },
                "nodeType": 0
            },
            "1": {
                "invocation": {
                    "address": "0xd417144312dbf50465b1c641d016962017ef6240",
                    "callData": "0x000000000000000000000000e7aa186e897ba8338001a7b4a0c410cadc2d168d",
                    "decodedMethod": {
                        "callParams": [
                            {
                                "name": "account",
                                "type": "address",
                                "value": "0xe7aa186e897ba8338001a7b4a0c410cadc2d168d"
                            }
                        ],
                        "constructorArguments": "",
                        "name": "balanceOf",
                        "returnParams": [
                            {
                                "decimalAvailable": true,
                                "name": "",
                                "type": "uint256",
                                "value": "3,164,289,249,335,529,980,386"
                            }
                        ],
                        "signature": "balanceOf(address)"
                    },
                    "errorInfo": "",
                    "fromAddress": "0x5550d13389bb70f45fcef58f19f6b6e87f6e747d",
                    "gasUsed": 2607,
                    "id": 1,
                    "methodDecoded": true,
                    "operation": "STATICCALL",
                    "output": "0x0000000000000000000000000000000000000000000000ab8955b325cfb841e2",
                    "revert": false,
                    "revertMessage": "",
                    "selector": "0x70a08231",
                    "status": true,
                    "value": "0"
                },
                "nodeType": 0
            },
            "10": {
                "invocation": {
                    "address": "0xa2327a938febf5fec13bacfb16ae10ecbc4cbdcf",
                    "callData": "0x00000000000000000000000017890deb188f2de6c3e966e053da1c9a111ed4a50000000000000000000000000000000000000000000000000000000021fb4d48",
                    "decodedMethod": {
                        "callParams": [
                            {
                                "name": "to",
                                "type": "address",
                                "value": "0x17890deb188f2de6c3e966e053da1c9a111ed4a5"
                            },
                            {
                                "decimalAvailable": true,
                                "name": "value",
                                "type": "uint256",
                                "value": "570,117,448"
                            }
                        ],
                        "constructorArguments": "",
                        "name": "transfer",
                        "returnParams": [
                            {
                                "name": "",
                                "type": "bool",
                                "value": true
                            }
                        ],
                        "signature": "transfer(address,uint256)"
                    },
                    "errorInfo": "",
                    "fromAddress": "0xa0b86991c6218b36c1d19d4a2e9eb0ce3606eb48",
                    "gasUsed": 19628,
                    "id": 10,
                    "methodDecoded": true,
                    "operation": "DELEGATECALL",
                    "output": "0x0000000000000000000000000000000000000000000000000000000000000001",
                    "revert": false,
                    "revertMessage": "",
                    "selector": "0xa9059cbb",
                    "status": true,
                    "value": "0"
                },
                "nodeType": 0
            },
            "11": {
                "event": {
                    "contract": "0xa0b86991c6218b36c1d19d4a2e9eb0ce3606eb48",
                    "decodedLog": {
                        "name": "Transfer",
                        "params": [
                            {
                                "name": "from",
                                "type": "address",
                                "value": "0x397ff1542f962076d0bfe58ea045ffa2d347aca0"
                            },
                            {
                                "name": "to",
                                "type": "address",
                                "value": "0x17890deb188f2de6c3e966e053da1c9a111ed4a5"
                            },
                            {
                                "decimalAvailable": true,
                                "name": "value",
                                "type": "uint256",
                                "value": "570,117,448"
                            }
                        ],
                        "signature": "Transfer(address,address,uint256)"
                    },
                    "id": 11,
                    "logData": "0x0000000000000000000000000000000000000000000000000000000021fb4d48",
                    "logDecoded": true,
                    "operation": "EVENT",
                    "revert": false,
                    "status": true,
                    "topics": [
                        "0xddf252ad1be2c89b69c2b068fc378daa952ba7f163c4a11628f55a4df523b3ef",
                        "0x000000000000000000000000397ff1542f962076d0bfe58ea045ffa2d347aca0",
                        "0x00000000000000000000000017890deb188f2de6c3e966e053da1c9a111ed4a5"
                    ]
                },
                "nodeType": 1
            },
            "12": {
                "invocation": {
                    "address": "0xa0b86991c6218b36c1d19d4a2e9eb0ce3606eb48",
                    "callData": "0x000000000000000000000000397ff1542f962076d0bfe58ea045ffa2d347aca0",
                    "decodedMethod": {
                        "callParams": [
                            {
                                "name": "account",
                                "type": "address",
                                "value": "0x397ff1542f962076d0bfe58ea045ffa2d347aca0"
                            }
                        ],
                        "constructorArguments": "",
                        "name": "balanceOf",
                        "returnParams": [
                            {
                                "decimalAvailable": true,
                                "name": "",
                                "type": "uint256",
                                "value": "6,105,557,047,093"
                            }
                        ],
                        "signature": "balanceOf(address)"
                    },
                    "errorInfo": "",
                    "fromAddress": "0x397ff1542f962076d0bfe58ea045ffa2d347aca0",
                    "gasUsed": 1315,
                    "id": 12,
                    "methodDecoded": true,
                    "operation": "STATICCALL",
                    "output": "0x0000000000000000000000000000000000000000000000000000058d8f8f1735",
                    "revert": false,
                    "revertMessage": "",
                    "selector": "0x70a08231",
                    "status": true,
                    "value": "0"
                },
                "nodeType": 0
            },
            "13": {
                "invocation": {
                    "address": "0xa2327a938febf5fec13bacfb16ae10ecbc4cbdcf",
                    "callData": "0x000000000000000000000000397ff1542f962076d0bfe58ea045ffa2d347aca0",
                    "decodedMethod": {
                        "callParams": [
                            {
                                "name": "account",
                                "type": "address",
                                "value": "0x397ff1542f962076d0bfe58ea045ffa2d347aca0"
                            }
                        ],
                        "constructorArguments": "",
                        "name": "balanceOf",
                        "returnParams": [
                            {
                                "decimalAvailable": true,
                                "name": "",
                                "type": "uint256",
                                "value": "6,105,557,047,093"
                            }
                        ],
                        "signature": "balanceOf(address)"
                    },
                    "errorInfo": "",
                    "fromAddress": "0xa0b86991c6218b36c1d19d4a2e9eb0ce3606eb48",
                    "gasUsed": 529,
                    "id": 13,
                    "methodDecoded": true,
                    "operation": "DELEGATECALL",
                    "output": "0x0000000000000000000000000000000000000000000000000000058d8f8f1735",
                    "revert": false,
                    "revertMessage": "",
                    "selector": "0x70a08231",
                    "status": true,
                    "value": "0"
                },
                "nodeType": 0
            },
            "14": {
                "invocation": {
                    "address": "0xc02aaa39b223fe8d0a0e5c4f27ead9083c756cc2",
                    "callData": "0x000000000000000000000000397ff1542f962076d0bfe58ea045ffa2d347aca0",
                    "decodedMethod": {
                        "callParams": [
                            {
                                "name": "",
                                "type": "address",
                                "value": "0x397ff1542f962076d0bfe58ea045ffa2d347aca0"
                            }
                        ],
                        "constructorArguments": "",
                        "name": "balanceOf",
                        "returnParams": [
                            {
                                "decimalAvailable": true,
                                "name": "",
                                "type": "uint256",
                                "value": "2,806,198,536,924,573,323,229"
                            }
                        ],
                        "signature": "balanceOf(address)"
                    },
                    "errorInfo": "",
                    "fromAddress": "0x397ff1542f962076d0bfe58ea045ffa2d347aca0",
                    "gasUsed": 534,
                    "id": 14,
                    "methodDecoded": true,
                    "operation": "STATICCALL",
                    "output": "0x0000000000000000000000000000000000000000000000981fd3ed74b215cfdd",
                    "revert": false,
                    "revertMessage": "",
                    "selector": "0x70a08231",
                    "status": true,
                    "value": "0"
                },
                "nodeType": 0
            },
            "15": {
                "event": {
                    "contract": "0x397ff1542f962076d0bfe58ea045ffa2d347aca0",
                    "decodedLog": {
                        "name": "Sync",
                        "params": [
                            {
                                "name": "reserve0",
                                "type": "uint112",
                                "value": "6,105,557,047,093"
                            },
                            {
                                "name": "reserve1",
                                "type": "uint112",
                                "value": "2,806,198,536,924,573,323,229"
                            }
                        ],
                        "signature": "Sync(uint112,uint112)"
                    },
                    "id": 15,
                    "logData": "0x0000000000000000000000000000000000000000000000000000058d8f8f17350000000000000000000000000000000000000000000000981fd3ed74b215cfdd",
                    "logDecoded": true,
                    "operation": "EVENT",
                    "revert": false,
                    "status": true,
                    "topics": [
                        "0x1c411e9a96e071241c2f21f7726b17ae89e3cab4c78be50e062b03a9fffbbad1"
                    ]
                },
                "nodeType": 1
            },
            "16": {
                "event": {
                    "contract": "0x397ff1542f962076d0bfe58ea045ffa2d347aca0",
                    "decodedLog": {
                        "name": "Swap",
                        "params": [
                            {
                                "name": "sender",
                                "type": "address",
                                "value": "0x5550d13389bb70f45fcef58f19f6b6e87f6e747d"
                            },
                            {
                                "name": "to",
                                "type": "address",
                                "value": "0x17890deb188f2de6c3e966e053da1c9a111ed4a5"
                            },
                            {
                                "name": "amount0In",
                                "type": "uint256",
                                "value": "0"
                            },
                            {
                                "name": "amount1In",
                                "type": "uint256",
                                "value": "262,797,725,093,911,310"
                            },
                            {
                                "name": "amount0Out",
                                "type": "uint256",
                                "value": "570,117,448"
                            },
                            {
                                "name": "amount1Out",
                                "type": "uint256",
                                "value": "0"
                            }
                        ],
                        "signature": "Swap(address,uint256,uint256,uint256,uint256,address)"
                    },
                    "id": 16,
                    "logData": "0x000000000000000000000000000000000000000000000000000000000000000000000000000000000000000000000000000000000000000003a5a5237c00db0e0000000000000000000000000000000000000000000000000000000021fb4d480000000000000000000000000000000000000000000000000000000000000000",
                    "logDecoded": true,
                    "operation": "EVENT",
                    "revert": false,
                    "status": true,
                    "topics": [
                        "0xd78ad95fa46c994b6551d0da85fc275fe613ce37657fb8d5e3d130840159d822",
                        "0x0000000000000000000000005550d13389bb70f45fcef58f19f6b6e87f6e747d",
                        "0x00000000000000000000000017890deb188f2de6c3e966e053da1c9a111ed4a5"
                    ]
                },
                "nodeType": 1
            },
            "17": {
                "invocation": {
                    "address": "0x17890deb188f2de6c3e966e053da1c9a111ed4a5",
                    "callData": "0x",
                    "decodedMethod": {
                        "callParams": [],
                        "constructorArguments": "",
                        "name": "getReserves",
                        "returnParams": [
                            {
                                "name": "_reserve0",
                                "type": "uint112",
                                "value": "293,290,051,644"
                            },
                            {
                                "name": "_reserve1",
                                "type": "uint112",
                                "value": "1,291,914,063,842,303,655,220,437"
                            },
                            {
                                "name": "_blockTimestampLast",
                                "type": "uint32",
                                "value": "1,702,314,995"
                            }
                        ],
                        "signature": "getReserves()"
                    },
                    "errorInfo": "",
                    "fromAddress": "0x5550d13389bb70f45fcef58f19f6b6e87f6e747d",
                    "gasUsed": 2517,
                    "id": 17,
                    "methodDecoded": true,
                    "operation": "STATICCALL",
                    "output": "0x000000000000000000000000000000000000000000000000000000444973083c000000000000000000000000000000000000000000011192cd3e7281faeb14d500000000000000000000000000000000000000000000000000000000657743f3",
                    "revert": false,
                    "revertMessage": "",
                    "selector": "0x0902f1ac",
                    "status": true,
                    "value": "0"
                },
                "nodeType": 0
            },
            "18": {
                "invocation": {
                    "address": "0xa0b86991c6218b36c1d19d4a2e9eb0ce3606eb48",
                    "callData": "0x00000000000000000000000017890deb188f2de6c3e966e053da1c9a111ed4a5",
                    "decodedMethod": {
                        "callParams": [
                            {
                                "name": "account",
                                "type": "address",
                                "value": "0x17890deb188f2de6c3e966e053da1c9a111ed4a5"
                            }
                        ],
                        "constructorArguments": "",
                        "name": "balanceOf",
                        "returnParams": [
                            {
                                "decimalAvailable": true,
                                "name": "",
                                "type": "uint256",
                                "value": "293,860,169,092"
                            }
                        ],
                        "signature": "balanceOf(address)"
                    },
                    "errorInfo": "",
                    "fromAddress": "0x5550d13389bb70f45fcef58f19f6b6e87f6e747d",
                    "gasUsed": 1315,
                    "id": 18,
                    "methodDecoded": true,
                    "operation": "STATICCALL",
                    "output": "0x000000000000000000000000000000000000000000000000000000446b6e5584",
                    "revert": false,
                    "revertMessage": "",
                    "selector": "0x70a08231",
                    "status": true,
                    "value": "0"
                },
                "nodeType": 0
            },
            "19": {
                "invocation": {
                    "address": "0xa2327a938febf5fec13bacfb16ae10ecbc4cbdcf",
                    "callData": "0x00000000000000000000000017890deb188f2de6c3e966e053da1c9a111ed4a5",
                    "decodedMethod": {
                        "callParams": [
                            {
                                "name": "account",
                                "type": "address",
                                "value": "0x17890deb188f2de6c3e966e053da1c9a111ed4a5"
                            }
                        ],
                        "constructorArguments": "",
                        "name": "balanceOf",
                        "returnParams": [
                            {
                                "decimalAvailable": true,
                                "name": "",
                                "type": "uint256",
                                "value": "293,860,169,092"
                            }
                        ],
                        "signature": "balanceOf(address)"
                    },
                    "errorInfo": "",
                    "fromAddress": "0xa0b86991c6218b36c1d19d4a2e9eb0ce3606eb48",
                    "gasUsed": 529,
                    "id": 19,
                    "methodDecoded": true,
                    "operation": "DELEGATECALL",
                    "output": "0x000000000000000000000000000000000000000000000000000000446b6e5584",
                    "revert": false,
                    "revertMessage": "",
                    "selector": "0x70a08231",
                    "status": true,
                    "value": "0"
                },
                "nodeType": 0
            },
            "2": {
                "invocation": {
                    "address": "0xc02aaa39b223fe8d0a0e5c4f27ead9083c756cc2",
                    "callData": "0x",
                    "decodedMethod": {
                        "callParams": [],
                        "constructorArguments": "",
                        "name": "deposit",
                        "returnParams": [],
                        "signature": "deposit()"
                    },
                    "errorInfo": "",
                    "fromAddress": "0x5550d13389bb70f45fcef58f19f6b6e87f6e747d",
                    "gasUsed": 6874,
                    "id": 2,
                    "methodDecoded": true,
                    "operation": "CALL",
                    "output": "",
                    "revert": false,
                    "revertMessage": "",
                    "selector": "0xd0e30db0",
                    "status": true,
                    "value": "0.26279772509391131"
                },
                "nodeType": 0
            },
            "20": {
                "invocation": {
                    "address": "0x17890deb188f2de6c3e966e053da1c9a111ed4a5",
                    "callData": "0x000000000000000000000000000000000000000000000000000000000000000000000000000000000000000000000000000000000000008777afc00f99031076000000000000000000000000e7aa186e897ba8338001a7b4a0c410cadc2d168d00000000000000000000000000000000000000000000000000000000000000800000000000000000000000000000000000000000000000000000000000000000",
                    "decodedMethod": {
                        "callParams": [
                            {
                                "name": "amount0Out",
                                "type": "uint256",
                                "value": "0"
                            },
                            {
                                "name": "amount1Out",
                                "type": "uint256",
                                "value": "2,498,934,772,935,451,414,646"
                            },
                            {
                                "name": "to",
                                "type": "address",
                                "value": "0xe7aa186e897ba8338001a7b4a0c410cadc2d168d"
                            },
                            {
                                "name": "data",
                                "type": "bytes",
                                "value": "0x"
                            }
                        ],
                        "constructorArguments": "",
                        "name": "swap",
                        "returnParams": [],
                        "signature": "swap(uint256,uint256,address,bytes)"
                    },
                    "errorInfo": "",
                    "fromAddress": "0x5550d13389bb70f45fcef58f19f6b6e87f6e747d",
                    "gasUsed": 44674,
                    "id": 20,
                    "methodDecoded": true,
                    "operation": "CALL",
                    "output": "",
                    "revert": false,
                    "revertMessage": "",
                    "selector": "0x022c0d9f",
                    "status": true,
                    "value": "0"
                },
                "nodeType": 0
            },
            "21": {
                "invocation": {
                    "address": "0xd417144312dbf50465b1c641d016962017ef6240",
                    "callData": "0x000000000000000000000000e7aa186e897ba8338001a7b4a0c410cadc2d168d00000000000000000000000000000000000000000000008777afc00f99031076",
                    "decodedMethod": {
                        "callParams": [
                            {
                                "name": "recipient",
                                "type": "address",
                                "value": "0xe7aa186e897ba8338001a7b4a0c410cadc2d168d"
                            },
                            {
                                "decimalAvailable": true,
                                "name": "amount",
                                "type": "uint256",
                                "value": "2,498,934,772,935,451,414,646"
                            }
                        ],
                        "constructorArguments": "",
                        "name": "transfer",
                        "returnParams": [
                            {
                                "name": "",
                                "type": "bool",
                                "value": true
                            }
                        ],
                        "signature": "transfer(address,uint256)"
                    },
                    "errorInfo": "",
                    "fromAddress": "0x17890deb188f2de6c3e966e053da1c9a111ed4a5",
                    "gasUsed": 11056,
                    "id": 21,
                    "methodDecoded": true,
                    "operation": "CALL",
                    "output": "0x0000000000000000000000000000000000000000000000000000000000000001",
                    "revert": false,
                    "revertMessage": "",
                    "selector": "0xa9059cbb",
                    "status": true,
                    "value": "0"
                },
                "nodeType": 0
            },
            "22": {
                "event": {
                    "contract": "0xd417144312dbf50465b1c641d016962017ef6240",
                    "decodedLog": {
                        "name": "Transfer",
                        "params": [
                            {
                                "name": "from",
                                "type": "address",
                                "value": "0x17890deb188f2de6c3e966e053da1c9a111ed4a5"
                            },
                            {
                                "name": "to",
                                "type": "address",
                                "value": "0xe7aa186e897ba8338001a7b4a0c410cadc2d168d"
                            },
                            {
                                "decimalAvailable": true,
                                "name": "value",
                                "type": "uint256",
                                "value": "2,498,934,772,935,451,414,646"
                            }
                        ],
                        "signature": "Transfer(address,address,uint256)"
                    },
                    "id": 22,
                    "logData": "0x00000000000000000000000000000000000000000000008777afc00f99031076",
                    "logDecoded": true,
                    "operation": "EVENT",
                    "revert": false,
                    "status": true,
                    "topics": [
                        "0xddf252ad1be2c89b69c2b068fc378daa952ba7f163c4a11628f55a4df523b3ef",
                        "0x00000000000000000000000017890deb188f2de6c3e966e053da1c9a111ed4a5",
                        "0x000000000000000000000000e7aa186e897ba8338001a7b4a0c410cadc2d168d"
                    ]
                },
                "nodeType": 1
            },
            "23": {
                "invocation": {
                    "address": "0xa0b86991c6218b36c1d19d4a2e9eb0ce3606eb48",
                    "callData": "0x00000000000000000000000017890deb188f2de6c3e966e053da1c9a111ed4a5",
                    "decodedMethod": {
                        "callParams": [
                            {
                                "name": "account",
                                "type": "address",
                                "value": "0x17890deb188f2de6c3e966e053da1c9a111ed4a5"
                            }
                        ],
                        "constructorArguments": "",
                        "name": "balanceOf",
                        "returnParams": [
                            {
                                "decimalAvailable": true,
                                "name": "",
                                "type": "uint256",
                                "value": "293,860,169,092"
                            }
                        ],
                        "signature": "balanceOf(address)"
                    },
                    "errorInfo": "",
                    "fromAddress": "0x17890deb188f2de6c3e966e053da1c9a111ed4a5",
                    "gasUsed": 1315,
                    "id": 23,
                    "methodDecoded": true,
                    "operation": "STATICCALL",
                    "output": "0x000000000000000000000000000000000000000000000000000000446b6e5584",
                    "revert": false,
                    "revertMessage": "",
                    "selector": "0x70a08231",
                    "status": true,
                    "value": "0"
                },
                "nodeType": 0
            },
            "24": {
                "invocation": {
                    "address": "0xa2327a938febf5fec13bacfb16ae10ecbc4cbdcf",
                    "callData": "0x00000000000000000000000017890deb188f2de6c3e966e053da1c9a111ed4a5",
                    "decodedMethod": {
                        "callParams": [
                            {
                                "name": "account",
                                "type": "address",
                                "value": "0x17890deb188f2de6c3e966e053da1c9a111ed4a5"
                            }
                        ],
                        "constructorArguments": "",
                        "name": "balanceOf",
                        "returnParams": [
                            {
                                "decimalAvailable": true,
                                "name": "",
                                "type": "uint256",
                                "value": "293,860,169,092"
                            }
                        ],
                        "signature": "balanceOf(address)"
                    },
                    "errorInfo": "",
                    "fromAddress": "0xa0b86991c6218b36c1d19d4a2e9eb0ce3606eb48",
                    "gasUsed": 529,
                    "id": 24,
                    "methodDecoded": true,
                    "operation": "DELEGATECALL",
                    "output": "0x000000000000000000000000000000000000000000000000000000446b6e5584",
                    "revert": false,
                    "revertMessage": "",
                    "selector": "0x70a08231",
                    "status": true,
                    "value": "0"
                },
                "nodeType": 0
            },
            "25": {
                "invocation": {
                    "address": "0xd417144312dbf50465b1c641d016962017ef6240",
                    "callData": "0x00000000000000000000000017890deb188f2de6c3e966e053da1c9a111ed4a5",
                    "decodedMethod": {
                        "callParams": [
                            {
                                "name": "account",
                                "type": "address",
                                "value": "0x17890deb188f2de6c3e966e053da1c9a111ed4a5"
                            }
                        ],
                        "constructorArguments": "",
                        "name": "balanceOf",
                        "returnParams": [
                            {
                                "decimalAvailable": true,
                                "name": "",
                                "type": "uint256",
                                "value": "1,289,415,129,069,368,203,805,791"
                            }
                        ],
                        "signature": "balanceOf(address)"
                    },
                    "errorInfo": "",
                    "fromAddress": "0x17890deb188f2de6c3e966e053da1c9a111ed4a5",
                    "gasUsed": 607,
                    "id": 25,
                    "methodDecoded": true,
                    "operation": "STATICCALL",
                    "output": "0x00000000000000000000000000000000000000000001110b558eb27261e8045f",
                    "revert": false,
                    "revertMessage": "",
                    "selector": "0x70a08231",
                    "status": true,
                    "value": "0"
                },
                "nodeType": 0
            },
            "26": {
                "event": {
                    "contract": "0x17890deb188f2de6c3e966e053da1c9a111ed4a5",
                    "decodedLog": {
                        "name": "Sync",
                        "params": [
                            {
                                "name": "reserve0",
                                "type": "uint112",
                                "value": "293,860,169,092"
                            },
                            {
                                "name": "reserve1",
                                "type": "uint112",
                                "value": "1,289,415,129,069,368,203,805,791"
                            }
                        ],
                        "signature": "Sync(uint112,uint112)"
                    },
                    "id": 26,
                    "logData": "0x000000000000000000000000000000000000000000000000000000446b6e558400000000000000000000000000000000000000000001110b558eb27261e8045f",
                    "logDecoded": true,
                    "operation": "EVENT",
                    "revert": false,
                    "status": true,
                    "topics": [
                        "0x1c411e9a96e071241c2f21f7726b17ae89e3cab4c78be50e062b03a9fffbbad1"
                    ]
                },
                "nodeType": 1
            },
            "27": {
                "event": {
                    "contract": "0x17890deb188f2de6c3e966e053da1c9a111ed4a5",
                    "decodedLog": {
                        "name": "Swap",
                        "params": [
                            {
                                "name": "sender",
                                "type": "address",
                                "value": "0x5550d13389bb70f45fcef58f19f6b6e87f6e747d"
                            },
                            {
                                "name": "to",
                                "type": "address",
                                "value": "0xe7aa186e897ba8338001a7b4a0c410cadc2d168d"
                            },
                            {
                                "name": "amount0In",
                                "type": "uint256",
                                "value": "570,117,448"
                            },
                            {
                                "name": "amount1In",
                                "type": "uint256",
                                "value": "0"
                            },
                            {
                                "name": "amount0Out",
                                "type": "uint256",
                                "value": "0"
                            },
                            {
                                "name": "amount1Out",
                                "type": "uint256",
                                "value": "2,498,934,772,935,451,414,646"
                            }
                        ],
                        "signature": "Swap(address,uint256,uint256,uint256,uint256,address)"
                    },
                    "id": 27,
                    "logData": "0x0000000000000000000000000000000000000000000000000000000021fb4d480000000000000000000000000000000000000000000000000000000000000000000000000000000000000000000000000000000000000000000000000000000000000000000000000000000000000000000000000000008777afc00f99031076",
                    "logDecoded": true,
                    "operation": "EVENT",
                    "revert": false,
                    "status": true,
                    "topics": [
                        "0xd78ad95fa46c994b6551d0da85fc275fe613ce37657fb8d5e3d130840159d822",
                        "0x0000000000000000000000005550d13389bb70f45fcef58f19f6b6e87f6e747d",
                        "0x000000000000000000000000e7aa186e897ba8338001a7b4a0c410cadc2d168d"
                    ]
                },
                "nodeType": 1
            },
            "28": {
                "invocation": {
                    "address": "0xd417144312dbf50465b1c641d016962017ef6240",
                    "callData": "0x000000000000000000000000e7aa186e897ba8338001a7b4a0c410cadc2d168d",
                    "decodedMethod": {
                        "callParams": [
                            {
                                "name": "account",
                                "type": "address",
                                "value": "0xe7aa186e897ba8338001a7b4a0c410cadc2d168d"
                            }
                        ],
                        "constructorArguments": "",
                        "name": "balanceOf",
                        "returnParams": [
                            {
                                "decimalAvailable": true,
                                "name": "",
                                "type": "uint256",
                                "value": "5,663,224,022,270,981,395,032"
                            }
                        ],
                        "signature": "balanceOf(address)"
                    },
                    "errorInfo": "",
                    "fromAddress": "0x5550d13389bb70f45fcef58f19f6b6e87f6e747d",
                    "gasUsed": 607,
                    "id": 28,
                    "methodDecoded": true,
                    "operation": "STATICCALL",
                    "output": "0x0000000000000000000000000000000000000000000001330105733568bb5258",
                    "revert": false,
                    "revertMessage": "",
                    "selector": "0x70a08231",
                    "status": true,
                    "value": "0"
                },
                "nodeType": 0
            },
            "29": {
                "event": {
                    "contract": "0x5550d13389bb70f45fcef58f19f6b6e87f6e747d",
                    "decodedLog": {
                        "name": "Route",
                        "params": [
                            {
                                "name": "from",
                                "type": "address",
                                "value": "0xe7aa186e897ba8338001a7b4a0c410cadc2d168d"
                            },
                            {
                                "name": "tokenIn",
                                "type": "address",
                                "value": "0xeeeeeeeeeeeeeeeeeeeeeeeeeeeeeeeeeeeeeeee"
                            },
                            {
                                "name": "tokenOut",
                                "type": "address",
                                "value": "0xd417144312dbf50465b1c641d016962017ef6240"
                            },
                            {
                                "name": "to",
                                "type": "address",
                                "value": "0xe7aa186e897ba8338001a7b4a0c410cadc2d168d"
                            },
                            {
                                "name": "amountIn",
                                "type": "uint256",
                                "value": "262,797,725,093,911,310"
                            },
                            {
                                "name": "amountOutMin",
                                "type": "uint256",
                                "value": "2,486,440,099,070,775,001,088"
                            },
                            {
                                "name": "amountOut",
                                "type": "uint256",
                                "value": "2,498,934,772,935,451,414,646"
                            }
                        ],
                        "signature": "Route(address,address,address,address,uint256,uint256,uint256)"
                    },
                    "id": 29,
                    "logData": "0x000000000000000000000000e7aa186e897ba8338001a7b4a0c410cadc2d168d00000000000000000000000000000000000000000000000003a5a5237c00db0e000000000000000000000000000000000000000000000086ca49c061709e000000000000000000000000000000000000000000000000008777afc00f99031076",
                    "logDecoded": true,
                    "operation": "EVENT",
                    "revert": false,
                    "status": true,
                    "topics": [
                        "0x2db5ddd0b42bdbca0d69ea16f234a870a485854ae0d91f16643d6f317d8b8994",
                        "0x000000000000000000000000e7aa186e897ba8338001a7b4a0c410cadc2d168d",
                        "0x000000000000000000000000eeeeeeeeeeeeeeeeeeeeeeeeeeeeeeeeeeeeeeee",
                        "0x000000000000000000000000d417144312dbf50465b1c641d016962017ef6240"
                    ]
                },
                "nodeType": 1
            },
            "3": {
                "event": {
                    "contract": "0xc02aaa39b223fe8d0a0e5c4f27ead9083c756cc2",
                    "decodedLog": {
                        "name": "Deposit",
                        "params": [
                            {
                                "name": "dst",
                                "type": "address",
                                "value": "0x5550d13389bb70f45fcef58f19f6b6e87f6e747d"
                            },
                            {
                                "name": "wad",
                                "type": "uint256",
                                "value": "262,797,725,093,911,310"
                            }
                        ],
                        "signature": "Deposit(address,uint256)"
                    },
                    "id": 3,
                    "logData": "0x00000000000000000000000000000000000000000000000003a5a5237c00db0e",
                    "logDecoded": true,
                    "operation": "EVENT",
                    "revert": false,
                    "status": true,
                    "topics": [
                        "0xe1fffcc4923d04b559f4d29a8bfc6cda04eb5b0d3c460751c2402c5c5cc9109c",
                        "0x0000000000000000000000005550d13389bb70f45fcef58f19f6b6e87f6e747d"
                    ]
                },
                "nodeType": 1
            },
            "4": {
                "invocation": {
                    "address": "0xc02aaa39b223fe8d0a0e5c4f27ead9083c756cc2",
                    "callData": "0x000000000000000000000000397ff1542f962076d0bfe58ea045ffa2d347aca000000000000000000000000000000000000000000000000003a5a5237c00db0e",
                    "decodedMethod": {
                        "callParams": [
                            {
                                "name": "dst",
                                "type": "address",
                                "value": "0x397ff1542f962076d0bfe58ea045ffa2d347aca0"
                            },
                            {
                                "decimalAvailable": true,
                                "name": "wad",
                                "type": "uint256",
                                "value": "262,797,725,093,911,310"
                            }
                        ],
                        "constructorArguments": "",
                        "name": "transfer",
                        "returnParams": [
                            {
                                "name": "",
                                "type": "bool",
                                "value": true
                            }
                        ],
                        "signature": "transfer(address,uint256)"
                    },
                    "errorInfo": "",
                    "fromAddress": "0x5550d13389bb70f45fcef58f19f6b6e87f6e747d",
                    "gasUsed": 8062,
                    "id": 4,
                    "methodDecoded": true,
                    "operation": "CALL",
                    "output": "0x0000000000000000000000000000000000000000000000000000000000000001",
                    "revert": false,
                    "revertMessage": "",
                    "selector": "0xa9059cbb",
                    "status": true,
                    "value": "0"
                },
                "nodeType": 0
            },
            "5": {
                "event": {
                    "contract": "0xc02aaa39b223fe8d0a0e5c4f27ead9083c756cc2",
                    "decodedLog": {
                        "name": "Transfer",
                        "params": [
                            {
                                "name": "src",
                                "type": "address",
                                "value": "0x5550d13389bb70f45fcef58f19f6b6e87f6e747d"
                            },
                            {
                                "name": "dst",
                                "type": "address",
                                "value": "0x397ff1542f962076d0bfe58ea045ffa2d347aca0"
                            },
                            {
                                "decimalAvailable": true,
                                "name": "wad",
                                "type": "uint256",
                                "value": "262,797,725,093,911,310"
                            }
                        ],
                        "signature": "Transfer(address,address,uint256)"
                    },
                    "id": 5,
                    "logData": "0x00000000000000000000000000000000000000000000000003a5a5237c00db0e",
                    "logDecoded": true,
                    "operation": "EVENT",
                    "revert": false,
                    "status": true,
                    "topics": [
                        "0xddf252ad1be2c89b69c2b068fc378daa952ba7f163c4a11628f55a4df523b3ef",
                        "0x0000000000000000000000005550d13389bb70f45fcef58f19f6b6e87f6e747d",
                        "0x000000000000000000000000397ff1542f962076d0bfe58ea045ffa2d347aca0"
                    ]
                },
                "nodeType": 1
            },
            "6": {
                "invocation": {
                    "address": "0x397ff1542f962076d0bfe58ea045ffa2d347aca0",
                    "callData": "0x",
                    "decodedMethod": {
                        "callParams": [],
                        "constructorArguments": "",
                        "name": "getReserves",
                        "returnParams": [
                            {
                                "name": "_reserve0",
                                "type": "uint112",
                                "value": "6,106,127,164,541"
                            },
                            {
                                "name": "_reserve1",
                                "type": "uint112",
                                "value": "2,805,935,739,199,479,411,919"
                            },
                            {
                                "name": "_blockTimestampLast",
                                "type": "uint32",
                                "value": "1,702,320,563"
                            }
                        ],
                        "signature": "getReserves()"
                    },
                    "errorInfo": "",
                    "fromAddress": "0x5550d13389bb70f45fcef58f19f6b6e87f6e747d",
                    "gasUsed": 2517,
                    "id": 6,
                    "methodDecoded": true,
                    "operation": "STATICCALL",
                    "output": "0x0000000000000000000000000000000000000000000000000000058db18a647d0000000000000000000000000000000000000000000000981c2e48513614f4cf00000000000000000000000000000000000000000000000000000000657759b3",
                    "revert": false,
                    "revertMessage": "",
                    "selector": "0x0902f1ac",
                    "status": true,
                    "value": "0"
                },
                "nodeType": 0
            },
            "7": {
                "invocation": {
                    "address": "0xc02aaa39b223fe8d0a0e5c4f27ead9083c756cc2",
                    "callData": "0x000000000000000000000000397ff1542f962076d0bfe58ea045ffa2d347aca0",
                    "decodedMethod": {
                        "callParams": [
                            {
                                "name": "",
                                "type": "address",
                                "value": "0x397ff1542f962076d0bfe58ea045ffa2d347aca0"
                            }
                        ],
                        "constructorArguments": "",
                        "name": "balanceOf",
                        "returnParams": [
                            {
                                "decimalAvailable": true,
                                "name": "",
                                "type": "uint256",
                                "value": "2,806,198,536,924,573,323,229"
                            }
                        ],
                        "signature": "balanceOf(address)"
                    },
                    "errorInfo": "",
                    "fromAddress": "0x5550d13389bb70f45fcef58f19f6b6e87f6e747d",
                    "gasUsed": 534,
                    "id": 7,
                    "methodDecoded": true,
                    "operation": "STATICCALL",
                    "output": "0x0000000000000000000000000000000000000000000000981fd3ed74b215cfdd",
                    "revert": false,
                    "revertMessage": "",
                    "selector": "0x70a08231",
                    "status": true,
                    "value": "0"
                },
                "nodeType": 0
            },
            "8": {
                "invocation": {
                    "address": "0x397ff1542f962076d0bfe58ea045ffa2d347aca0",
                    "callData": "0x0000000000000000000000000000000000000000000000000000000021fb4d48000000000000000000000000000000000000000000000000000000000000000000000000000000000000000017890deb188f2de6c3e966e053da1c9a111ed4a500000000000000000000000000000000000000000000000000000000000000800000000000000000000000000000000000000000000000000000000000000000",
                    "decodedMethod": {
                        "callParams": [
                            {
                                "name": "amount0Out",
                                "type": "uint256",
                                "value": "570,117,448"
                            },
                            {
                                "name": "amount1Out",
                                "type": "uint256",
                                "value": "0"
                            },
                            {
                                "name": "to",
                                "type": "address",
                                "value": "0x17890deb188f2de6c3e966e053da1c9a111ed4a5"
                            },
                            {
                                "name": "data",
                                "type": "bytes",
                                "value": "0x"
                            }
                        ],
                        "constructorArguments": "",
                        "name": "swap",
                        "returnParams": [],
                        "signature": "swap(uint256,uint256,address,bytes)"
                    },
                    "errorInfo": "",
                    "fromAddress": "0x5550d13389bb70f45fcef58f19f6b6e87f6e747d",
                    "gasUsed": 62962,
                    "id": 8,
                    "methodDecoded": true,
                    "operation": "CALL",
                    "output": "",
                    "revert": false,
                    "revertMessage": "",
                    "selector": "0x022c0d9f",
                    "status": true,
                    "value": "0"
                },
                "nodeType": 0
            },
            "9": {
                "invocation": {
                    "address": "0xa0b86991c6218b36c1d19d4a2e9eb0ce3606eb48",
                    "callData": "0x00000000000000000000000017890deb188f2de6c3e966e053da1c9a111ed4a50000000000000000000000000000000000000000000000000000000021fb4d48",
                    "decodedMethod": {
                        "callParams": [
                            {
                                "name": "to",
                                "type": "address",
                                "value": "0x17890deb188f2de6c3e966e053da1c9a111ed4a5"
                            },
                            {
                                "decimalAvailable": true,
                                "name": "value",
                                "type": "uint256",
                                "value": "570,117,448"
                            }
                        ],
                        "constructorArguments": "",
                        "name": "transfer",
                        "returnParams": [
                            {
                                "name": "",
                                "type": "bool",
                                "value": true
                            }
                        ],
                        "signature": "transfer(address,uint256)"
                    },
                    "errorInfo": "",
                    "fromAddress": "0x397ff1542f962076d0bfe58ea045ffa2d347aca0",
                    "gasUsed": 26917,
                    "id": 9,
                    "methodDecoded": true,
                    "operation": "CALL",
                    "output": "0x0000000000000000000000000000000000000000000000000000000000000001",
                    "revert": false,
                    "revertMessage": "",
                    "selector": "0xa9059cbb",
                    "status": true,
                    "value": "0"
                },
                "nodeType": 0
            }
        },
        "gasFlame": [
            {
                "children": [
                    {
                        "children": [
                            {
                                "children": [],
                                "depth": 0,
                                "name": "Initial Gas",
                                "value": 25668
                            },
                            {
                                "children": [
                                    {
                                        "children": [],
                                        "depth": 1,
                                        "name": "balanceOf",
                                        "value": 2607
                                    },
                                    {
                                        "children": [],
                                        "depth": 1,
                                        "name": "deposit",
                                        "value": 6874
                                    },
                                    {
                                        "children": [],
                                        "depth": 1,
                                        "name": "transfer",
                                        "value": 8062
                                    },
                                    {
                                        "children": [],
                                        "depth": 1,
                                        "name": "getReserves",
                                        "value": 2517
                                    },
                                    {
                                        "children": [],
                                        "depth": 1,
                                        "name": "balanceOf",
                                        "value": 534
                                    },
                                    {
                                        "children": [
                                            {
                                                "children": [
                                                    {
                                                        "children": [],
                                                        "depth": 3,
                                                        "name": "transfer",
                                                        "value": 19628
                                                    }
                                                ],
                                                "depth": 2,
                                                "name": "transfer",
                                                "value": 26917
                                            },
                                            {
                                                "children": [
                                                    {
                                                        "children": [],
                                                        "depth": 3,
                                                        "name": "balanceOf",
                                                        "value": 529
                                                    }
                                                ],
                                                "depth": 2,
                                                "name": "balanceOf",
                                                "value": 1315
                                            },
                                            {
                                                "children": [],
                                                "depth": 2,
                                                "name": "balanceOf",
                                                "value": 534
                                            }
                                        ],
                                        "depth": 1,
                                        "name": "swap",
                                        "value": 62962
                                    },
                                    {
                                        "children": [],
                                        "depth": 1,
                                        "name": "getReserves",
                                        "value": 2517
                                    },
                                    {
                                        "children": [
                                            {
                                                "children": [],
                                                "depth": 2,
                                                "name": "balanceOf",
                                                "value": 529
                                            }
                                        ],
                                        "depth": 1,
                                        "name": "balanceOf",
                                        "value": 1315
                                    },
                                    {
                                        "children": [
                                            {
                                                "children": [],
                                                "depth": 2,
                                                "name": "transfer",
                                                "value": 11056
                                            },
                                            {
                                                "children": [
                                                    {
                                                        "children": [],
                                                        "depth": 3,
                                                        "name": "balanceOf",
                                                        "value": 529
                                                    }
                                                ],
                                                "depth": 2,
                                                "name": "balanceOf",
                                                "value": 1315
                                            },
                                            {
                                                "children": [],
                                                "depth": 2,
                                                "name": "balanceOf",
                                                "value": 607
                                            }
                                        ],
                                        "depth": 1,
                                        "name": "swap",
                                        "value": 44674
                                    },
                                    {
                                        "children": [],
                                        "depth": 1,
                                        "name": "balanceOf",
                                        "value": 607
                                    }
                                ],
                                "depth": 0,
                                "name": "Executed Gas",
                                "value": 169030
                            }
                        ],
                        "depth": -1,
                        "name": "Actual Gas Used",
                        "value": 183498
                    },
                    {
                        "children": [],
                        "depth": -1,
                        "name": "Refunded Gas",
                        "value": 11200
                    }
                ],
                "depth": -2,
                "name": "Total Gas",
                "value": 194698
            }
        ],
        "isConfirmed": true,
        "mainTrace": [
            {
                "children": [
                    {
                        "children": [
                            {
                                "children": [],
                                "depth": 1,
                                "id": 1,
                                "order": 1
                            },
                            {
                                "children": [
                                    {
                                        "children": [],
                                        "depth": 2,
                                        "id": 3,
                                        "order": 3
                                    }
                                ],
                                "depth": 1,
                                "id": 2,
                                "order": 2
                            },
                            {
                                "children": [
                                    {
                                        "children": [],
                                        "depth": 2,
                                        "id": 5,
                                        "order": 5
                                    }
                                ],
                                "depth": 1,
                                "id": 4,
                                "order": 4
                            },
                            {
                                "children": [],
                                "depth": 1,
                                "id": 6,
                                "order": 6
                            },
                            {
                                "children": [],
                                "depth": 1,
                                "id": 7,
                                "order": 7
                            },
                            {
                                "children": [
                                    {
                                        "children": [
                                            {
                                                "children": [
                                                    {
                                                        "children": [],
                                                        "depth": 4,
                                                        "id": 11,
                                                        "order": 11
                                                    }
                                                ],
                                                "depth": 3,
                                                "id": 10,
                                                "order": 10
                                            }
                                        ],
                                        "depth": 2,
                                        "id": 9,
                                        "order": 9
                                    },
                                    {
                                        "children": [
                                            {
                                                "children": [],
                                                "depth": 3,
                                                "id": 13,
                                                "order": 13
                                            }
                                        ],
                                        "depth": 2,
                                        "id": 12,
                                        "order": 12
                                    },
                                    {
                                        "children": [],
                                        "depth": 2,
                                        "id": 14,
                                        "order": 14
                                    },
                                    {
                                        "children": [],
                                        "depth": 2,
                                        "id": 15,
                                        "order": 15
                                    },
                                    {
                                        "children": [],
                                        "depth": 2,
                                        "id": 16,
                                        "order": 16
                                    }
                                ],
                                "depth": 1,
                                "id": 8,
                                "order": 8
                            },
                            {
                                "children": [],
                                "depth": 1,
                                "id": 17,
                                "order": 17
                            },
                            {
                                "children": [
                                    {
                                        "children": [],
                                        "depth": 2,
                                        "id": 19,
                                        "order": 19
                                    }
                                ],
                                "depth": 1,
                                "id": 18,
                                "order": 18
                            },
                            {
                                "children": [
                                    {
                                        "children": [
                                            {
                                                "children": [],
                                                "depth": 3,
                                                "id": 22,
                                                "order": 22
                                            }
                                        ],
                                        "depth": 2,
                                        "id": 21,
                                        "order": 21
                                    },
                                    {
                                        "children": [
                                            {
                                                "children": [],
                                                "depth": 3,
                                                "id": 24,
                                                "order": 24
                                            }
                                        ],
                                        "depth": 2,
                                        "id": 23,
                                        "order": 23
                                    },
                                    {
                                        "children": [],
                                        "depth": 2,
                                        "id": 25,
                                        "order": 25
                                    },
                                    {
                                        "children": [],
                                        "depth": 2,
                                        "id": 26,
                                        "order": 26
                                    },
                                    {
                                        "children": [],
                                        "depth": 2,
                                        "id": 27,
                                        "order": 27
                                    }
                                ],
                                "depth": 1,
                                "id": 20,
                                "order": 20
                            },
                            {
                                "children": [],
                                "depth": 1,
                                "id": 28,
                                "order": 28
                            },
                            {
                                "children": [],
                                "depth": 1,
                                "id": 29,
                                "order": 29
                            }
                        ],
                        "depth": 0,
                        "id": 0,
                        "order": 0
                    }
                ],
                "depth": -1,
                "id": -1,
                "order": -1
            }
        ],
        "mainTraceNodeCount": 30,
        "parentIdMap": {
            "0": -1,
            "1": 0,
            "10": 9,
            "11": 10,
            "12": 8,
            "13": 12,
            "14": 8,
            "15": 8,
            "16": 8,
            "17": 0,
            "18": 0,
            "19": 18,
            "2": 0,
            "20": 0,
            "21": 20,
            "22": 21,
            "23": 20,
            "24": 23,
            "25": 20,
            "26": 20,
            "27": 20,
            "28": 0,
            "29": 0,
            "3": 2,
            "4": 0,
            "5": 4,
            "6": 0,
            "7": 0,
            "8": 0,
            "9": 8
        },
        "tidyTrace": [
            {
                "children": [
                    {
                        "children": [
                            {
                                "children": [
                                    {
                                        "children": [],
                                        "depth": 2,
                                        "id": 3,
                                        "order": 3
                                    }
                                ],
                                "depth": 1,
                                "id": 2,
                                "order": 2
                            },
                            {
                                "children": [
                                    {
                                        "children": [],
                                        "depth": 2,
                                        "id": 5,
                                        "order": 5
                                    }
                                ],
                                "depth": 1,
                                "id": 4,
                                "order": 4
                            },
                            {
                                "children": [
                                    {
                                        "children": [
                                            {
                                                "children": [
                                                    {
                                                        "children": [],
                                                        "depth": 4,
                                                        "id": 11,
                                                        "order": 11
                                                    }
                                                ],
                                                "depth": 3,
                                                "id": 10,
                                                "order": 10
                                            }
                                        ],
                                        "depth": 2,
                                        "id": 9,
                                        "order": 9
                                    },
                                    {
                                        "children": [],
                                        "depth": 2,
                                        "id": 15,
                                        "order": 15
                                    },
                                    {
                                        "children": [],
                                        "depth": 2,
                                        "id": 16,
                                        "order": 16
                                    }
                                ],
                                "depth": 1,
                                "id": 8,
                                "order": 8
                            },
                            {
                                "children": [
                                    {
                                        "children": [
                                            {
                                                "children": [],
                                                "depth": 3,
                                                "id": 22,
                                                "order": 22
                                            }
                                        ],
                                        "depth": 2,
                                        "id": 21,
                                        "order": 21
                                    },
                                    {
                                        "children": [],
                                        "depth": 2,
                                        "id": 26,
                                        "order": 26
                                    },
                                    {
                                        "children": [],
                                        "depth": 2,
                                        "id": 27,
                                        "order": 27
                                    }
                                ],
                                "depth": 1,
                                "id": 20,
                                "order": 20
                            },
                            {
                                "children": [],
                                "depth": 1,
                                "id": 29,
                                "order": 29
                            }
                        ],
                        "depth": 0,
                        "id": 0,
                        "order": 0
                    }
                ],
                "depth": -1,
                "id": -1,
                "order": -1
            }
        ],
        "tidyTraceNodeCount": 17
    },
    "state_change": {
        "stateChanges": [
            {
                "address": "0x17890deb188f2de6c3e966e053da1c9a111ed4a5",
                "erc": "ERC-20",
                "slots": [
                    {
                        "current": "0x0000000000000000001c00bb031dac016cf47a565b601e55da95339d59f70ae5",
                        "key": "0x0000000000000000000000000000000000000000000000000000000000000009",
                        "prev": "0x0000000000000000001c0063803f5451fedd208d492073b78bba4d2376a0d7e5"
                    },
                    {
                        "current": "0x0000000000000000000000000000000000000001ab0bc0b0d0c0ddc3a71f025a",
                        "key": "0x000000000000000000000000000000000000000000000000000000000000000a",
                        "prev": "0x0000000000000000000000000000000000000001ab064cddd7f11fe8bd152d82"
                    },
                    {
                        "current": "0x657759cb00000001110b558eb27261e8045f000000000000000000446b6e5584",
                        "key": "0x0000000000000000000000000000000000000000000000000000000000000008",
                        "prev": "0x657743f3000000011192cd3e7281faeb14d5000000000000000000444973083c"
                    }
                ],
                "storageVariables": [
                    {
                        "name": "price0CumulativeLast",
                        "type": "uint256",
                        "value": {
                            "current": "2682140515110164102490372987868779226288304549277403877",
                            "prev": "2682012617340512208136955044819201322922909102730434533",
                            "typeTag": 1
                        }
                    },
                    {
                        "name": "price1CumulativeLast",
                        "type": "uint256",
                        "value": {
                            "current": "132164307333764039798975038042",
                            "prev": "132157715740775423775383825794",
                            "typeTag": 1
                        }
                    },
                    {
                        "name": "reserve0",
                        "type": "uint112",
                        "value": {
                            "current": "293860169092",
                            "prev": "293290051644",
                            "typeTag": 1
                        }
                    },
                    {
                        "name": "reserve1",
                        "type": "uint112",
                        "value": {
                            "current": "1289415129069368203805791",
                            "prev": "1291914063842303655220437",
                            "typeTag": 1
                        }
                    },
                    {
                        "name": "blockTimestampLast",
                        "type": "uint32",
                        "value": {
                            "current": "1702320587",
                            "prev": "1702314995",
                            "typeTag": 1
                        }
                    }
                ]
            },
            {
                "address": "0x397ff1542f962076d0bfe58ea045ffa2d347aca0",
                "erc": "ERC-20",
                "slots": [
                    {
                        "current": "0x0000000000000000000000fb7c818c54535aad46460c465209a583b2ccec2cec",
                        "key": "0x0000000000000000000000000000000000000000000000000000000000000009",
                        "prev": "0x0000000000000000000000fb7c7efaf82f8e5a4ea7617ae669e559107c153a84"
                    },
                    {
                        "current": "0x0000000000000000000000000000000000003513a049e6cd9ef7967333674bcc",
                        "key": "0x000000000000000000000000000000000000000000000000000000000000000a",
                        "prev": "0x00000000000000000000000000000000000035139f69960af2c1a4d41fcbbf0c"
                    },
                    {
                        "current": "0x657759cb0000000000981fd3ed74b215cfdd0000000000000000058d8f8f1735",
                        "key": "0x0000000000000000000000000000000000000000000000000000000000000008",
                        "prev": "0x657759b30000000000981c2e48513614f4cf0000000000000000058db18a647d"
                    }
                ],
                "storageVariables": [
                    {
                        "name": "price0CumulativeLast",
                        "type": "uint256",
                        "value": {
                            "current": "367547714846183945033100350168111938695657501240556",
                            "prev": "367547657582058526218704302787164566136567566252676",
                            "typeTag": 1
                        }
                    },
                    {
                        "name": "price1CumulativeLast",
                        "type": "uint256",
                        "value": {
                            "current": "1076522651024403130347134996925388",
                            "prev": "1076522379843639140600314772307724",
                            "typeTag": 1
                        }
                    },
                    {
                        "name": "reserve0",
                        "type": "uint112",
                        "value": {
                            "current": "6105557047093",
                            "prev": "6106127164541",
                            "typeTag": 1
                        }
                    },
                    {
                        "name": "reserve1",
                        "type": "uint112",
                        "value": {
                            "current": "2806198536924573323229",
                            "prev": "2805935739199479411919",
                            "typeTag": 1
                        }
                    },
                    {
                        "name": "blockTimestampLast",
                        "type": "uint32",
                        "value": {
                            "current": "1702320587",
                            "prev": "1702320563",
                            "typeTag": 1
                        }
                    }
                ]
            },
            {
                "address": "0xa0b86991c6218b36c1d19d4a2e9eb0ce3606eb48",
                "erc": "ERC-20",
                "slots": [
                    {
                        "current": "0x0000000000000000000000000000000000000000000000000000058d8f8f1735",
                        "key": "0xcd1718b39694c8b71b5b7030a9f4416a979d5bffcde56263723356d0f75e4776",
                        "prev": "0x0000000000000000000000000000000000000000000000000000058db18a647d"
                    },
                    {
                        "current": "0x000000000000000000000000000000000000000000000000000000446b6e5584",
                        "key": "0x9eab3066fe199c27f610e6010f9a296ba475ea39e66615c79696654c6dcb8701",
                        "prev": "0x000000000000000000000000000000000000000000000000000000444973083c"
                    }
                ],
                "storageVariables": [
                    {
                        "name": "balances",
                        "type": "mapping(address => uint256)",
                        "value": {
                            "pairs": [
                                {
                                    "key": "0x17890deb188f2de6c3e966e053da1c9a111ed4a5",
                                    "value": {
                                        "current": "293860169092",
                                        "prev": "293290051644",
                                        "typeTag": 1
                                    }
                                },
                                {
                                    "key": "0x397ff1542f962076d0bfe58ea045ffa2d347aca0",
                                    "value": {
                                        "current": "6105557047093",
                                        "prev": "6106127164541",
                                        "typeTag": 1
                                    }
                                }
                            ],
                            "typeTag": 4
                        }
                    }
                ]
            },
            {
                "address": "0xc02aaa39b223fe8d0a0e5c4f27ead9083c756cc2",
                "erc": "ERC-20",
                "slots": [
                    {
                        "current": "0x0000000000000000000000000000000000000000000000981fd3ed74b215cfdd",
                        "key": "0xb440be4deffff278a0a54bece4d5bba517a3236073012092c2f7526f6434fd2c",
                        "prev": "0x0000000000000000000000000000000000000000000000981c2e48513614f4cf"
                    }
                ],
                "storageVariables": [
                    {
                        "name": "balanceOf",
                        "type": "mapping(address => uint256)",
                        "value": {
                            "pairs": [
                                {
                                    "key": "0x397ff1542f962076d0bfe58ea045ffa2d347aca0",
                                    "value": {
                                        "current": "2806198536924573323229",
                                        "prev": "2805935739199479411919",
                                        "typeTag": 1
                                    }
                                }
                            ],
                            "typeTag": 4
                        }
                    }
                ]
            },
            {
                "address": "0xd417144312dbf50465b1c641d016962017ef6240",
                "erc": "ERC-20",
                "slots": [
                    {
                        "current": "0x00000000000000000000000000000000000000000001110b558eb27261e8045f",
                        "key": "0x6f6eaf75e467318d012b2c36fe4ab194919fc1bd66b19682ae5ce6dcc46d1a5d",
                        "prev": "0x000000000000000000000000000000000000000000011192cd3e7281faeb14d5"
                    },
                    {
                        "current": "0x0000000000000000000000000000000000000000000001330105733568bb5258",
                        "key": "0x43619404db1baa19bf622a9126d07d60408a668d60d9ef39c93008a3df2ec363",
                        "prev": "0x0000000000000000000000000000000000000000000000ab8955b325cfb841e2"
                    }
                ],
                "storageVariables": [
                    {
                        "name": "_balances",
                        "type": "mapping(address => uint256)",
                        "value": {
                            "pairs": [
                                {
                                    "key": "0x17890deb188f2de6c3e966e053da1c9a111ed4a5",
                                    "value": {
                                        "current": "1289415129069368203805791",
                                        "prev": "1291914063842303655220437",
                                        "typeTag": 1
                                    }
                                },
                                {
                                    "key": "0xe7aa186e897ba8338001a7b4a0c410cadc2d168d",
                                    "value": {
                                        "current": "5663224022270981395032",
                                        "prev": "3164289249335529980386",
                                        "typeTag": 1
                                    }
                                }
                            ],
                            "typeTag": 4
                        }
                    }
                ]
            }
        ]
    }
}