{
    "balance_change": {
        "balanceChanges": [
            {
                "account": "0xba6744de58ab9afb36d5c82ac85eb8f31c0d2f40",
                "assets": [
                    {
                        "address": "0x419d0d8bdd9af5e606ae2232ed285aff190e711b",
                        "amount": "119,166",
                        "iconUrl": "https://assets.blocksec.com/icon/416669ea5112a0c54fce100e8c150455ffe791ed46d87ba051143f3ba702dd7c.png",
                        "isERC1155": false,
                        "isERC721": false,
                        "sign": false,
                        "value": ""
                    }
                ]
            },
            {
                "account": "0x3f5ce5fbfe3e9af3971dd833d26ba9b5c936f0be",
                "assets": [
                    {
                        "address": "0x419d0d8bdd9af5e606ae2232ed285aff190e711b",
                        "amount": "119,166",
                        "iconUrl": "https://assets.blocksec.com/icon/416669ea5112a0c54fce100e8c150455ffe791ed46d87ba051143f3ba702dd7c.png",
                        "isERC1155": false,
                        "isERC721": false,
                        "sign": true,
                        "value": ""
                    }
                ]
            }
        ]
    },
    "profile": {
        "basic_info": {
            "baseFee": "",
            "blockNumber": 5719379,
            "callData": "0xa9059cbb0000000000000000000000003f5ce5fbfe3e9af3971dd833d26ba9b5c936f0be00000000000000000000000000000000000000000000000000000ad68cb5be00",
            "debugEnable": true,
            "errorInfo": "",
            "eventCount": 1,
            "feeRecipient": "0x829bd824b016326a401d083b33d092293333a830",
            "formatValue": "0",
            "gasLimit": 88350,
            "gasPrice": "20",
            "gasUsed": 29175,
            "intTxnCount": 2,
            "internalRevert": false,
            "internalRevertMessage": "",
            "isContractCreation": false,
            "isFlashloan": false,
            "maxFee": "",
            "nonce": 569,
            "overwritedBlockNumber": -1,
            "priorityFee": "",
            "receiver": "0x419d0d8bdd9af5e606ae2232ed285aff190e711b",
            "revertMessage": "",
            "sender": "0xba6744de58ab9afb36d5c82ac85eb8f31c0d2f40",
            "simulationEnable": true,
            "sourceTxnHash": "0x4c550d009418b6e25eded3a61b3b4411f51ba30af1a7977789f1398c722bafd5",
            "status": true,
            "timestamp": "2018-06-02T11:53:07Z",
            "transactionFee": "0.0005835",
            "txnHash": "0x4c550d009418b6e25eded3a61b3b4411f51ba30af1a7977789f1398c722bafd5",
            "txnIndex": 18,
            "type": 0,
            "value": "0"
        },
        "fund_flow": [
            {
                "amount": "119,166",
                "from": "0xba6744de58ab9afb36d5c82ac85eb8f31c0d2f40",
                "id": 1,
                "isERC1155": false,
                "isERC721": false,
                "isReverted": false,
                "order": 1,
                "to": "0x3f5ce5fbfe3e9af3971dd833d26ba9b5c936f0be",
                "token": "0x419d0d8bdd9af5e606ae2232ed285aff190e711b"
            }
        ],
        "token_infos": [
            {
                "address": "0x419d0d8bdd9af5e606ae2232ed285aff190e711b",
                "decimals": 8
            },
            {
                "address": "0xc02aaa39b223fe8d0a0e5c4f27ead9083c756cc2",
                "decimals": 18
            },
            {
                "address": "0xeeeeeeeeeeeeeeeeeeeeeeeeeeeeeeeeeeeeeeee",
                "decimals": 18
            }
        ]
    },
    "address_label": {
        "labels": [
            {
                "address": "0x0000000000000000000000000000000000000002",
                "label": "Precompiled"
            },
            {
                "address": "0x0000000000000000000000000000000000000003",
                "label": "Precompiled"
            },
            {
                "address": "0x0000000000000000000000000000000000000004",
                "label": "Precompiled"
            },
            {
                "address": "0xeeeeeeeeeeeeeeeeeeeeeeeeeeeeeeeeeeeeeeee",
                "label": "Ether"
            },
            {
                "address": "0x3f5ce5fbfe3e9af3971dd833d26ba9b5c936f0be",
                "label": "Binance"
            },
            {
                "address": "0x419d0d8bdd9af5e606ae2232ed285aff190e711b",
                "label": "FunFair Token"
            },
            {
                "address": "0xe6a51bd48f93abcd6c1d532112094044971d8d4e",
                "label": "Ledger"
            },
            {
                "address": "0x0000000000000000000000000000000000000001",
                "label": "Precompiled"
            }
        ]
    },
    "trace": {
        "accountLabels": null,
        "dataMap": {
            "-1": {
                "invocation": {
                    "address": "0xba6744de58ab9afb36d5c82ac85eb8f31c0d2f40",
                    "callData": "",
                    "decodedMethod": null,
                    "errorInfo": "",
                    "fromAddress": "",
                    "gasUsed": 0,
                    "id": -1,
                    "methodDecoded": false,
                    "operation": "",
                    "output": "",
                    "revert": false,
                    "revertMessage": "",
                    "selector": "",
                    "status": false,
                    "value": ""
                },
                "nodeType": 0
            },
            "0": {
                "invocation": {
                    "address": "0x419d0d8bdd9af5e606ae2232ed285aff190e711b",
                    "callData": "0x0000000000000000000000003f5ce5fbfe3e9af3971dd833d26ba9b5c936f0be00000000000000000000000000000000000000000000000000000ad68cb5be00",
                    "decodedMethod": {
                        "callParams": [
                            {
                                "name": "_to",
                                "type": "address",
                                "value": "0x3f5ce5fbfe3e9af3971dd833d26ba9b5c936f0be"
                            },
                            {
                                "decimalAvailable": true,
                                "name": "_value",
                                "type": "uint256",
                                "value": "11,916,600,000,000"
                            }
                        ],
                        "constructorArguments": "",
                        "name": "transfer",
                        "returnParams": [
                            {
                                "name": "success",
                                "type": "bool",
                                "value": true
                            }
                        ],
                        "signature": "transfer(address,uint256)"
                    },
                    "errorInfo": "",
                    "fromAddress": "0xba6744de58ab9afb36d5c82ac85eb8f31c0d2f40",
                    "gasUsed": 29175,
                    "id": 0,
                    "methodDecoded": true,
                    "operation": "CALL",
                    "output": "0x0000000000000000000000000000000000000000000000000000000000000001",
                    "revert": false,
                    "revertMessage": "",
                    "selector": "0xa9059cbb",
                    "status": true,
                    "value": "0"
                },
                "nodeType": 0
            },
            "1": {
                "invocation": {
                    "address": "0x8f19f89675422fa420a56a3e20b2e8c8cb295c71",
                    "callData": "0x000000000000000000000000ba6744de58ab9afb36d5c82ac85eb8f31c0d2f400000000000000000000000003f5ce5fbfe3e9af3971dd833d26ba9b5c936f0be00000000000000000000000000000000000000000000000000000ad68cb5be00",
                    "decodedMethod": {
                        "callParams": [
                            {
                                "name": "_from",
                                "type": "address",
                                "value": "0xba6744de58ab9afb36d5c82ac85eb8f31c0d2f40"
                            },
                            {
                                "name": "_to",
                                "type": "address",
                                "value": "0x3f5ce5fbfe3e9af3971dd833d26ba9b5c936f0be"
                            },
                            {
                                "name": "_wad",
                                "type": "uint256",
                                "value": "11,916,600,000,000"
                            }
                        ],
                        "constructorArguments": "",
                        "name": "transfer",
                        "returnParams": [],
                        "signature": "transfer(address,address,uint256)"
                    },
                    "errorInfo": "",
                    "fromAddress": "0x419d0d8bdd9af5e606ae2232ed285aff190e711b",
                    "gasUsed": 16204,
                    "id": 1,
                    "methodDecoded": true,
                    "operation": "CALL",
                    "output": "0x0000000000000000000000000000000000000000000000000000000000000001",
                    "revert": false,
                    "revertMessage": "",
                    "selector": "0xbeabacc8",
                    "status": true,
                    "value": "0"
                },
                "nodeType": 0
            },
            "2": {
                "invocation": {
                    "address": "0xe6a51bd48f93abcd6c1d532112094044971d8d4e",
                    "callData": "0x000000000000000000000000ba6744de58ab9afb36d5c82ac85eb8f31c0d2f400000000000000000000000003f5ce5fbfe3e9af3971dd833d26ba9b5c936f0be00000000000000000000000000000000000000000000000000000ad68cb5be00",
                    "decodedMethod": {
                        "callParams": [
                            {
                                "name": "_from",
                                "type": "address",
                                "value": "0xba6744de58ab9afb36d5c82ac85eb8f31c0d2f40"
                            },
                            {
                                "name": "_to",
                                "type": "address",
                                "value": "0x3f5ce5fbfe3e9af3971dd833d26ba9b5c936f0be"
                            },
                            {
                                "name": "_value",
                                "type": "uint256",
                                "value": "11,916,600,000,000"
                            }
                        ],
                        "constructorArguments": "",
                        "name": "transfer",
                        "returnParams": [
                            {
                                "name": "success",
                                "type": "bool",
                                "value": true
                            }
                        ],
                        "signature": "transfer(address,address,uint256)"
                    },
                    "errorInfo": "",
                    "fromAddress": "0x8f19f89675422fa420a56a3e20b2e8c8cb295c71",
                    "gasUsed": 12481,
                    "id": 2,
                    "methodDecoded": true,
                    "operation": "CALL",
                    "output": "0x0000000000000000000000000000000000000000000000000000000000000001",
                    "revert": false,
                    "revertMessage": "",
                    "selector": "0xbeabacc8",
                    "status": true,
                    "value": "0"
                },
                "nodeType": 0
            },
            "3": {
                "event": {
                    "contract": "0x419d0d8bdd9af5e606ae2232ed285aff190e711b",
                    "decodedLog": {
                        "name": "Transfer",
                        "params": [
                            {
                                "name": "from",
                                "type": "address",
                                "value": "0xba6744de58ab9afb36d5c82ac85eb8f31c0d2f40"
                            },
                            {
                                "name": "to",
                                "type": "address",
                                "value": "0x3f5ce5fbfe3e9af3971dd833d26ba9b5c936f0be"
                            },
                            {
                                "decimalAvailable": true,
                                "name": "value",
                                "type": "uint256",
                                "value": "11,916,600,000,000"
                            }
                        ],
                        "signature": "Transfer(address,address,uint256)"
                    },
                    "id": 3,
                    "logData": "0x00000000000000000000000000000000000000000000000000000ad68cb5be00",
                    "logDecoded": true,
                    "operation": "EVENT",
                    "revert": false,
                    "status": true,
                    "topics": [
                        "0xddf252ad1be2c89b69c2b068fc378daa952ba7f163c4a11628f55a4df523b3ef",
                        "0x000000000000000000000000ba6744de58ab9afb36d5c82ac85eb8f31c0d2f40",
                        "0x0000000000000000000000003f5ce5fbfe3e9af3971dd833d26ba9b5c936f0be"
                    ]
                },
                "nodeType": 1
            }
        },
        "gasFlame": [
            {
                "children": [
                    {
                        "children": [
                            {
                                "children": [],
                                "depth": 0,
                                "name": "Initial Gas",
                                "value": 23128
                            },
                            {
                                "children": [
                                    {
                                        "children": [
                                            {
                                                "children": [],
                                                "depth": 2,
                                                "name": "transfer",
                                                "value": 12481
                                            }
                                        ],
                                        "depth": 1,
                                        "name": "transfer",
                                        "value": 16204
                                    }
                                ],
                                "depth": 0,
                                "name": "Executed Gas",
                                "value": 21047
                            }
                        ],
                        "depth": -1,
                        "name": "Actual Gas Used",
                        "value": 29175
                    },
                    {
                        "children": [],
                        "depth": -1,
                        "name": "Refunded Gas",
                        "value": 15000
                    }
                ],
                "depth": -2,
                "name": "Total Gas",
                "value": 44175
            }
        ],
        "isConfirmed": true,
        "mainTrace": [
            {
                "children": [
                    {
                        "children": [
                            {
                                "children": [
                                    {
                                        "children": [],
                                        "depth": 2,
                                        "id": 2,
                                        "order": 2
                                    }
                                ],
                                "depth": 1,
                                "id": 1,
                                "order": 1
                            },
                            {
                                "children": [],
                                "depth": 1,
                                "id": 3,
                                "order": 3
                            }
                        ],
                        "depth": 0,
                        "id": 0,
                        "order": 0
                    }
                ],
                "depth": -1,
                "id": -1,
                "order": -1
            }
        ],
        "mainTraceNodeCount": 4,
        "parentIdMap": {
            "0": -1,
            "1": 0,
            "2": 1,
            "3": 0
        },
        "tidyTrace": [
            {
                "children": [
                    {
                        "children": [
                            {
                                "children": [
                                    {
                                        "children": [],
                                        "depth": 2,
                                        "id": 2,
                                        "order": 2
                                    }
                                ],
                                "depth": 1,
                                "id": 1,
                                "order": 1
                            },
                            {
                                "children": [],
                                "depth": 1,
                                "id": 3,
                                "order": 3
                            }
                        ],
                        "depth": 0,
                        "id": 0,
                        "order": 0
                    }
                ],
                "depth": -1,
                "id": -1,
                "order": -1
            }
        ],
        "tidyTraceNodeCount": 4
    },
    "state_change": {
        "stateChanges": [
            {
                "address": "0xe6a51bd48f93abcd6c1d532112094044971d8d4e",
                "erc": "",
                "slots": [
                    {
                        "current": "0x0000000000000000000000000000000000000000000000000000000000000000",
                        "key": "0x2cf315056585fef52de7874bbe1fc386a53ccd572d61cf6325cf1b0d879956a7",
                        "prev": "0x00000000000000000000000000000000000000000000000000000ad68cb5be00"
                    },
                    {
                        "current": "0x00000000000000000000000000000000000000000000000000279f6dc6f5967f",
                        "key": "0xa9165cf1171ca6778796cbe77186a3de16e0048336a054868a863bae74862026",
                        "prev": "0x000000000000000000000000000000000000000000000000002794973a3fd87f"
                    }
                ],
                "storageVariables": []
            }
        ]
    }
}