{
    "balance_change": {
        "balanceChanges": [
            {
                "account": "0x45311f1945284364cbe28d5d4d83edb141849865",
                "assets": [
                    {
                        "address": "0x48d0035cb30980fe119116c4b4339ab1edc4abfa",
                        "amount": "13,605,350,000,000,000,000,000",
                        "iconUrl": "",
                        "isERC1155": false,
                        "isERC721": false,
                        "sign": false,
                        "value": ""
                    }
                ]
            },
            {
                "account": "0xbf7bdbca257d64c8938de9b5c5235419ceeb53ff",
                "assets": [
                    {
                        "address": "0x48d0035cb30980fe119116c4b4339ab1edc4abfa",
                        "amount": "13,605,350,000,000,000,000,000",
                        "iconUrl": "",
                        "isERC1155": false,
                        "isERC721": false,
                        "sign": true,
                        "value": ""
                    }
                ]
            }
        ]
    },
    "profile": {
        "basic_info": {
            "baseFee": "",
            "blockNumber": 7147233,
            "callData": "0xa9059cbb000000000000000000000000bf7bdbca257d64c8938de9b5c5235419ceeb53ff0000000000000000000000000000000000000000000002e18c290cc42cd70000",
            "debugEnable": true,
            "errorInfo": "",
            "eventCount": 1,
            "feeRecipient": "0xea674fdde714fd979de3edf0f56aa9716b898ec8",
            "formatValue": "0",
            "gasLimit": 60000,
            "gasPrice": "5",
            "gasUsed": 51806,
            "intTxnCount": 0,
            "internalRevert": false,
            "internalRevertMessage": "",
            "isContractCreation": false,
            "isFlashloan": false,
            "maxFee": "",
            "nonce": 100,
            "overwritedBlockNumber": -1,
            "priorityFee": "",
            "receiver": "0x48d0035cb30980fe119116c4b4339ab1edc4abfa",
            "revertMessage": "",
            "sender": "0x45311f1945284364cbe28d5d4d83edb141849865",
            "simulationEnable": true,
            "sourceTxnHash": "0x4c5702aae699dfb767ea2a61325c14ef85ca4a7ec0c1648550a86f3a0d1ad4cd",
            "status": true,
            "timestamp": "2019-01-30T04:41:46Z",
            "transactionFee": "0.00025903",
            "txnHash": "0x4c5702aae699dfb767ea2a61325c14ef85ca4a7ec0c1648550a86f3a0d1ad4cd",
            "txnIndex": 137,
            "type": 0,
            "value": "0"
        },
        "fund_flow": [
            {
                "amount": "13,605,350,000,000,000,000,000",
                "from": "0x45311f1945284364cbe28d5d4d83edb141849865",
                "id": 1,
                "isERC1155": false,
                "isERC721": false,
                "isReverted": false,
                "order": 1,
                "to": "0xbf7bdbca257d64c8938de9b5c5235419ceeb53ff",
                "token": "0x48d0035cb30980fe119116c4b4339ab1edc4abfa"
            }
        ],
        "token_infos": [
            {
                "address": "0xc02aaa39b223fe8d0a0e5c4f27ead9083c756cc2",
                "decimals": 18
            },
            {
                "address": "0xeeeeeeeeeeeeeeeeeeeeeeeeeeeeeeeeeeeeeeee",
                "decimals": 18
            }
        ]
    },
    "address_label": {
        "labels": [
            {
                "address": "0x48d0035cb30980fe119116c4b4339ab1edc4abfa",
                "label": "AtacToken"
            },
            {
                "address": "0x0000000000000000000000000000000000000001",
                "label": "Precompiled"
            },
            {
                "address": "0x0000000000000000000000000000000000000002",
                "label": "Precompiled"
            },
            {
                "address": "0x0000000000000000000000000000000000000003",
                "label": "Precompiled"
            },
            {
                "address": "0x0000000000000000000000000000000000000004",
                "label": "Precompiled"
            },
            {
                "address": "0xeeeeeeeeeeeeeeeeeeeeeeeeeeeeeeeeeeeeeeee",
                "label": "Ether"
            }
        ]
    },
    "trace": {
        "accountLabels": null,
        "dataMap": {
            "-1": {
                "invocation": {
                    "address": "0x45311f1945284364cbe28d5d4d83edb141849865",
                    "callData": "",
                    "decodedMethod": null,
                    "errorInfo": "",
                    "fromAddress": "",
                    "gasUsed": 0,
                    "id": -1,
                    "methodDecoded": false,
                    "operation": "",
                    "output": "",
                    "revert": false,
                    "revertMessage": "",
                    "selector": "",
                    "status": false,
                    "value": ""
                },
                "nodeType": 0
            },
            "0": {
                "invocation": {
                    "address": "0x48d0035cb30980fe119116c4b4339ab1edc4abfa",
                    "callData": "0x000000000000000000000000bf7bdbca257d64c8938de9b5c5235419ceeb53ff0000000000000000000000000000000000000000000002e18c290cc42cd70000",
                    "decodedMethod": {
                        "callParams": [
                            {
                                "name": "_to",
                                "type": "address",
                                "value": "0xbf7bdbca257d64c8938de9b5c5235419ceeb53ff"
                            },
                            {
                                "decimalAvailable": true,
                                "name": "_value",
                                "type": "uint256",
                                "value": "13,605,350,000,000,000,000,000"
                            }
                        ],
                        "constructorArguments": "",
                        "name": "transfer",
                        "returnParams": [
                            {
                                "name": "",
                                "type": "bool",
                                "value": true
                            }
                        ],
                        "signature": "transfer(address,uint256)"
                    },
                    "errorInfo": "",
                    "fromAddress": "0x45311f1945284364cbe28d5d4d83edb141849865",
                    "gasUsed": 51806,
                    "id": 0,
                    "methodDecoded": true,
                    "operation": "CALL",
                    "output": "0x0000000000000000000000000000000000000000000000000000000000000001",
                    "revert": false,
                    "revertMessage": "",
                    "selector": "0xa9059cbb",
                    "status": true,
                    "value": "0"
                },
                "nodeType": 0
            },
            "1": {
                "event": {
                    "contract": "0x48d0035cb30980fe119116c4b4339ab1edc4abfa",
                    "decodedLog": {
                        "name": "Transfer",
                        "params": [
                            {
                                "name": "from",
                                "type": "address",
                                "value": "0x45311f1945284364cbe28d5d4d83edb141849865"
                            },
                            {
                                "name": "to",
                                "type": "address",
                                "value": "0xbf7bdbca257d64c8938de9b5c5235419ceeb53ff"
                            },
                            {
                                "decimalAvailable": true,
                                "name": "value",
                                "type": "uint256",
                                "value": "13,605,350,000,000,000,000,000"
                            }
                        ],
                        "signature": "Transfer(address,address,uint256)"
                    },
                    "id": 1,
                    "logData": "0x0000000000000000000000000000000000000000000002e18c290cc42cd70000",
                    "logDecoded": true,
                    "operation": "EVENT",
                    "revert": false,
                    "status": true,
                    "topics": [
                        "0xddf252ad1be2c89b69c2b068fc378daa952ba7f163c4a11628f55a4df523b3ef",
                        "0x00000000000000000000000045311f1945284364cbe28d5d4d83edb141849865",
                        "0x000000000000000000000000bf7bdbca257d64c8938de9b5c5235419ceeb53ff"
                    ]
                },
                "nodeType": 1
            }
        },
        "gasFlame": [
            {
                "children": [
                    {
                        "children": [
                            {
                                "children": [],
                                "depth": 0,
                                "name": "Initial Gas",
                                "value": 23320
                            },
                            {
                                "children": [],
                                "depth": 0,
                                "name": "Executed Gas",
                                "value": 28486
                            }
                        ],
                        "depth": -1,
                        "name": "Actual Gas Used",
                        "value": 51806
                    },
                    {
                        "children": [],
                        "depth": -1,
                        "name": "Refunded Gas",
                        "value": 0
                    }
                ],
                "depth": -2,
                "name": "Total Gas",
                "value": 51806
            }
        ],
        "isConfirmed": true,
        "mainTrace": [
            {
                "children": [
                    {
                        "children": [
                            {
                                "children": [],
                                "depth": 1,
                                "id": 1,
                                "order": 1
                            }
                        ],
                        "depth": 0,
                        "id": 0,
                        "order": 0
                    }
                ],
                "depth": -1,
                "id": -1,
                "order": -1
            }
        ],
        "mainTraceNodeCount": 2,
        "parentIdMap": {
            "0": -1,
            "1": 0
        },
        "tidyTrace": [
            {
                "children": [
                    {
                        "children": [
                            {
                                "children": [],
                                "depth": 1,
                                "id": 1,
                                "order": 1
                            }
                        ],
                        "depth": 0,
                        "id": 0,
                        "order": 0
                    }
                ],
                "depth": -1,
                "id": -1,
                "order": -1
            }
        ],
        "tidyTraceNodeCount": 2
    },
    "state_change": {
        "stateChanges": [
            {
                "address": "0x48d0035cb30980fe119116c4b4339ab1edc4abfa",
                "erc": "ERC-20",
                "slots": [
                    {
                        "current": "0x0000000000000000000000000000000000000000000002e18c290cc42cd70000",
                        "key": "0xbae8ed8f1aef114760118e7a08141545c8e01003fac149967b8119df9745f1db",
                        "prev": "0x0000000000000000000000000000000000000000000000000000000000000000"
                    },
                    {
                        "current": "0x0000000000000000000000000000000000000000000312d90b22b2f879bb8000",
                        "key": "0x6e54b37ca3e2f16eb471811d98e35461237f8f91d53e3ab52b19f3581cfe2a55",
                        "prev": "0x0000000000000000000000000000000000000000000315ba974bbfbca6928000"
                    }
                ],
                "storageVariables": [
                    {
                        "name": "balances",
                        "type": "mapping(address => uint256)",
                        "value": {
                            "pairs": [
                                {
                                    "key": "0x45311f1945284364cbe28d5d4d83edb141849865",
                                    "value": {
                                        "current": "3715783801400000000000000",
                                        "prev": "3729389151400000000000000",
                                        "typeTag": 1
                                    }
                                },
                                {
                                    "key": "0xbf7bdbca257d64c8938de9b5c5235419ceeb53ff",
                                    "value": {
                                        "current": "13605350000000000000000",
                                        "prev": "0",
                                        "typeTag": 1
                                    }
                                }
                            ],
                            "typeTag": 4
                        }
                    }
                ]
            }
        ]
    }
}