{
    "balance_change": {
        "balanceChanges": [
            {
                "account": "0xb85c8d5f6e85b064b686e52b13c1f9b279999177",
                "assets": [
                    {
                        "address": "0x4d224452801aced8b2f0aebe155379bb5d594381",
                        "amount": "1,846.86",
                        "iconUrl": "https://assets.blocksec.com/icon/2edd169b33ddc44d0c2362c907ae50b3b0aed7e6e08bf6f72599647136aeddd0.png",
                        "isERC1155": false,
                        "isERC721": false,
                        "sign": false,
                        "value": "3490.5653999999998196"
                    }
                ]
            },
            {
                "account": "0x551568a9430b888f93d31fa6df4973c55a6c667d",
                "assets": [
                    {
                        "address": "0x4d224452801aced8b2f0aebe155379bb5d594381",
                        "amount": "1,846.86",
                        "iconUrl": "https://assets.blocksec.com/icon/2edd169b33ddc44d0c2362c907ae50b3b0aed7e6e08bf6f72599647136aeddd0.png",
                        "isERC1155": false,
                        "isERC721": false,
                        "sign": true,
                        "value": "3490.5653999999998196"
                    }
                ]
            }
        ]
    },
    "profile": {
        "basic_info": {
            "baseFee": "19.406922747",
            "blockNumber": 17641327,
            "callData": "0xa9059cbb000000000000000000000000551568a9430b888f93d31fa6df4973c55a6c667d0000000000000000000000000000000000000000000000641e54c8ea95ee0000",
            "debugEnable": true,
            "errorInfo": "",
            "eventCount": 1,
            "feeRecipient": "0xdafea492d9c6733ae3d56b7ed1adb60692c98bc5",
            "formatValue": "0",
            "gasLimit": 72000,
            "gasPrice": "20.406922747",
            "gasUsed": 29697,
            "intTxnCount": 0,
            "internalRevert": false,
            "internalRevertMessage": "",
            "isContractCreation": false,
            "isFlashloan": false,
            "maxFee": "25.268137007",
            "nonce": 172,
            "overwritedBlockNumber": -1,
            "priorityFee": "1",
            "receiver": "0x4d224452801aced8b2f0aebe155379bb5d594381",
            "revertMessage": "",
            "sender": "0xb85c8d5f6e85b064b686e52b13c1f9b279999177",
            "simulationEnable": true,
            "sourceTxnHash": "0x4d31d9d6a62f5594c7c6d686734ca982a2c8716421a801b3388991f28544c99e",
            "status": true,
            "timestamp": "2023-07-07T10:27:23Z",
            "transactionFee": "0.000606024384817659",
            "txnHash": "0x4d31d9d6a62f5594c7c6d686734ca982a2c8716421a801b3388991f28544c99e",
            "txnIndex": 55,
            "type": 2,
            "value": "0"
        },
        "fund_flow": [
            {
                "amount": "1,846.86",
                "from": "0xb85c8d5f6e85b064b686e52b13c1f9b279999177",
                "id": 1,
                "isERC1155": false,
                "isERC721": false,
                "isReverted": false,
                "order": 1,
                "to": "0x551568a9430b888f93d31fa6df4973c55a6c667d",
                "token": "0x4d224452801aced8b2f0aebe155379bb5d594381"
            }
        ],
        "token_infos": [
            {
                "address": "0xeeeeeeeeeeeeeeeeeeeeeeeeeeeeeeeeeeeeeeee",
                "decimals": 18
            },
            {
                "address": "0x4d224452801aced8b2f0aebe155379bb5d594381",
                "decimals": 18
            },
            {
                "address": "0xc02aaa39b223fe8d0a0e5c4f27ead9083c756cc2",
                "decimals": 18
            }
        ]
    },
    "address_label": {
        "labels": [
            {
                "address": "0x0000000000000000000000000000000000000002",
                "label": "Precompiled"
            },
            {
                "address": "0x0000000000000000000000000000000000000003",
                "label": "Precompiled"
            },
            {
                "address": "0x0000000000000000000000000000000000000004",
                "label": "Precompiled"
            },
            {
                "address": "0xeeeeeeeeeeeeeeeeeeeeeeeeeeeeeeeeeeeeeeee",
                "label": "Ether"
            },
            {
                "address": "0x4d224452801aced8b2f0aebe155379bb5d594381",
                "label": "Apecoin: APE Token"
            },
            {
                "address": "0x0000000000000000000000000000000000000001",
                "label": "Precompiled"
            }
        ]
    },
    "trace": {
        "accountLabels": null,
        "dataMap": {
            "-1": {
                "invocation": {
                    "address": "0xb85c8d5f6e85b064b686e52b13c1f9b279999177",
                    "callData": "",
                    "decodedMethod": null,
                    "errorInfo": "",
                    "fromAddress": "",
                    "gasUsed": 0,
                    "id": -1,
                    "methodDecoded": false,
                    "operation": "",
                    "output": "",
                    "revert": false,
                    "revertMessage": "",
                    "selector": "",
                    "status": false,
                    "value": ""
                },
                "nodeType": 0
            },
            "0": {
                "invocation": {
                    "address": "0x4d224452801aced8b2f0aebe155379bb5d594381",
                    "callData": "0x000000000000000000000000551568a9430b888f93d31fa6df4973c55a6c667d0000000000000000000000000000000000000000000000641e54c8ea95ee0000",
                    "decodedMethod": {
                        "callParams": [
                            {
                                "name": "recipient",
                                "type": "address",
                                "value": "0x551568a9430b888f93d31fa6df4973c55a6c667d"
                            },
                            {
                                "decimalAvailable": true,
                                "name": "amount",
                                "type": "uint256",
                                "value": "1,846,860,000,000,000,000,000"
                            }
                        ],
                        "constructorArguments": "",
                        "name": "transfer",
                        "returnParams": [
                            {
                                "name": "",
                                "type": "bool",
                                "value": true
                            }
                        ],
                        "signature": "transfer(address,uint256)"
                    },
                    "errorInfo": "",
                    "fromAddress": "0xb85c8d5f6e85b064b686e52b13c1f9b279999177",
                    "gasUsed": 29697,
                    "id": 0,
                    "methodDecoded": true,
                    "operation": "CALL",
                    "output": "0x0000000000000000000000000000000000000000000000000000000000000001",
                    "revert": false,
                    "revertMessage": "",
                    "selector": "0xa9059cbb",
                    "status": true,
                    "value": "0"
                },
                "nodeType": 0
            },
            "1": {
                "event": {
                    "contract": "0x4d224452801aced8b2f0aebe155379bb5d594381",
                    "decodedLog": {
                        "name": "Transfer",
                        "params": [
                            {
                                "name": "from",
                                "type": "address",
                                "value": "0xb85c8d5f6e85b064b686e52b13c1f9b279999177"
                            },
                            {
                                "name": "to",
                                "type": "address",
                                "value": "0x551568a9430b888f93d31fa6df4973c55a6c667d"
                            },
                            {
                                "decimalAvailable": true,
                                "name": "value",
                                "type": "uint256",
                                "value": "1,846,860,000,000,000,000,000"
                            }
                        ],
                        "signature": "Transfer(address,address,uint256)"
                    },
                    "id": 1,
                    "logData": "0x0000000000000000000000000000000000000000000000641e54c8ea95ee0000",
                    "logDecoded": true,
                    "operation": "EVENT",
                    "revert": false,
                    "status": true,
                    "topics": [
                        "0xddf252ad1be2c89b69c2b068fc378daa952ba7f163c4a11628f55a4df523b3ef",
                        "0x000000000000000000000000b85c8d5f6e85b064b686e52b13c1f9b279999177",
                        "0x000000000000000000000000551568a9430b888f93d31fa6df4973c55a6c667d"
                    ]
                },
                "nodeType": 1
            }
        },
        "gasFlame": [
            {
                "children": [
                    {
                        "children": [
                            {
                                "children": [],
                                "depth": 0,
                                "name": "Initial Gas",
                                "value": 21644
                            },
                            {
                                "children": [],
                                "depth": 0,
                                "name": "Executed Gas",
                                "value": 12853
                            }
                        ],
                        "depth": -1,
                        "name": "Actual Gas Used",
                        "value": 29697
                    },
                    {
                        "children": [],
                        "depth": -1,
                        "name": "Refunded Gas",
                        "value": 4800
                    }
                ],
                "depth": -2,
                "name": "Total Gas",
                "value": 34497
            }
        ],
        "isConfirmed": true,
        "mainTrace": [
            {
                "children": [
                    {
                        "children": [
                            {
                                "children": [],
                                "depth": 1,
                                "id": 1,
                                "order": 1
                            }
                        ],
                        "depth": 0,
                        "id": 0,
                        "order": 0
                    }
                ],
                "depth": -1,
                "id": -1,
                "order": -1
            }
        ],
        "mainTraceNodeCount": 2,
        "parentIdMap": {
            "0": -1,
            "1": 0
        },
        "tidyTrace": [
            {
                "children": [
                    {
                        "children": [
                            {
                                "children": [],
                                "depth": 1,
                                "id": 1,
                                "order": 1
                            }
                        ],
                        "depth": 0,
                        "id": 0,
                        "order": 0
                    }
                ],
                "depth": -1,
                "id": -1,
                "order": -1
            }
        ],
        "tidyTraceNodeCount": 2
    },
    "state_change": {
        "stateChanges": [
            {
                "address": "0x4d224452801aced8b2f0aebe155379bb5d594381",
                "erc": "ERC-20",
                "slots": [
                    {
                        "current": "0x0000000000000000000000000000000000000000000000000000000000000000",
                        "key": "0x041d0ac58d1affb707a24c04e6593431aaf6629884b72ba932dec308db37b213",
                        "prev": "0x0000000000000000000000000000000000000000000000641e54c8ea95ee0000"
                    },
                    {
                        "current": "0x00000000000000000000000000000000000000000000139a989148b928472000",
                        "key": "0x57ac1460702461e6310eec43854dec8bc0412f2ae6591127c225772d33f7b4cc",
                        "prev": "0x0000000000000000000000000000000000000000000013367a3c7fce92592000"
                    }
                ],
                "storageVariables": [
                    {
                        "name": "_balances",
                        "type": "mapping(address => uint256)",
                        "value": {
                            "pairs": [
                                {
                                    "key": "0x551568a9430b888f93d31fa6df4973c55a6c667d",
                                    "value": {
                                        "current": "92576755410000000000000",
                                        "prev": "90729895410000000000000",
                                        "typeTag": 1
                                    }
                                },
                                {
                                    "key": "0xb85c8d5f6e85b064b686e52b13c1f9b279999177",
                                    "value": {
                                        "current": "0",
                                        "prev": "1846860000000000000000",
                                        "typeTag": 1
                                    }
                                }
                            ],
                            "typeTag": 4
                        }
                    }
                ]
            }
        ]
    }
}