{
    "balance_change": {
        "balanceChanges": [
            {
                "account": "0x0000000000000000000000000000000000000000",
                "assets": [
                    {
                        "address": "0xc4192c2888771f7c90397836cb7438ef16839ef9",
                        "amount": "1",
                        "iconUrl": "",
                        "isERC1155": false,
                        "isERC721": true,
                        "sign": false,
                        "tokenID": "622",
                        "value": ""
                    }
                ]
            },
            {
                "account": "0xb4b81b693f322f6dadac99c9de4366970e99f6d8",
                "assets": [
                    {
                        "address": "0xc4192c2888771f7c90397836cb7438ef16839ef9",
                        "amount": "1",
                        "iconUrl": "",
                        "isERC1155": false,
                        "isERC721": true,
                        "sign": true,
                        "tokenID": "622",
                        "value": ""
                    }
                ]
            }
        ]
    },
    "profile": {
        "basic_info": {
            "baseFee": "24.222807587",
            "blockNumber": 15232582,
            "callData": "0x219795510000000000000000000000000000000000000000000000000000000000000001000000000000000000000000000000000000000000000000000000000000004000000000000000000000000000000000000000000000000000000000000000410a7d063f9d233e24086a787121929a2e6bcac647c2f4ca906583a378de18cc233d354897a55532d9ee1d48099fb4bd2f42665a5f8846bf545f49abc837df7d0f1b00000000000000000000000000000000000000000000000000000000000000",
            "debugEnable": true,
            "errorInfo": "",
            "eventCount": 1,
            "feeRecipient": "0xea674fdde714fd979de3edf0f56aa9716b898ec8",
            "formatValue": "0",
            "gasLimit": 171483,
            "gasPrice": "26.722807587",
            "gasUsed": 114322,
            "intTxnCount": 1,
            "internalRevert": false,
            "internalRevertMessage": "",
            "isContractCreation": false,
            "isFlashloan": false,
            "maxFee": "66.315213076",
            "nonce": 710,
            "overwritedBlockNumber": -1,
            "priorityFee": "2.5",
            "receiver": "0xc4192c2888771f7c90397836cb7438ef16839ef9",
            "revertMessage": "",
            "sender": "0xb4b81b693f322f6dadac99c9de4366970e99f6d8",
            "simulationEnable": true,
            "sourceTxnHash": "0x4d8e236c43a58904b0b8545716276bff94204b0b925c5b1196262d1fcc326861",
            "status": true,
            "timestamp": "2022-07-28T18:22:29Z",
            "transactionFee": "0.003055004808961014",
            "txnHash": "0x4d8e236c43a58904b0b8545716276bff94204b0b925c5b1196262d1fcc326861",
            "txnIndex": 143,
            "type": 2,
            "value": "0"
        },
        "fund_flow": [
            {
                "amount": "1",
                "from": "0x0000000000000000000000000000000000000000",
                "id": 1,
                "isERC1155": false,
                "isERC721": true,
                "isReverted": false,
                "order": 1,
                "to": "0xb4b81b693f322f6dadac99c9de4366970e99f6d8",
                "token": "0xc4192c2888771f7c90397836cb7438ef16839ef9",
                "tokenID": "622"
            }
        ],
        "token_infos": [
            {
                "address": "0xc02aaa39b223fe8d0a0e5c4f27ead9083c756cc2",
                "decimals": 18
            },
            {
                "address": "0xeeeeeeeeeeeeeeeeeeeeeeeeeeeeeeeeeeeeeeee",
                "decimals": 18
            }
        ]
    },
    "address_label": {
        "labels": [
            {
                "address": "0xc4192c2888771f7c90397836cb7438ef16839ef9",
                "label": "ItAllSucks"
            },
            {
                "address": "0x0000000000000000000000000000000000000001",
                "label": "Precompiled"
            },
            {
                "address": "0x0000000000000000000000000000000000000002",
                "label": "Precompiled"
            },
            {
                "address": "0x0000000000000000000000000000000000000003",
                "label": "Precompiled"
            },
            {
                "address": "0x0000000000000000000000000000000000000004",
                "label": "Precompiled"
            },
            {
                "address": "0xeeeeeeeeeeeeeeeeeeeeeeeeeeeeeeeeeeeeeeee",
                "label": "Ether"
            }
        ]
    },
    "trace": {
        "accountLabels": null,
        "dataMap": {
            "-1": {
                "invocation": {
                    "address": "0xb4b81b693f322f6dadac99c9de4366970e99f6d8",
                    "callData": "",
                    "decodedMethod": null,
                    "errorInfo": "",
                    "fromAddress": "",
                    "gasUsed": 0,
                    "id": -1,
                    "methodDecoded": false,
                    "operation": "",
                    "output": "",
                    "revert": false,
                    "revertMessage": "",
                    "selector": "",
                    "status": false,
                    "value": ""
                },
                "nodeType": 0
            },
            "0": {
                "invocation": {
                    "address": "0xc4192c2888771f7c90397836cb7438ef16839ef9",
                    "callData": "0x0000000000000000000000000000000000000000000000000000000000000001000000000000000000000000000000000000000000000000000000000000004000000000000000000000000000000000000000000000000000000000000000410a7d063f9d233e24086a787121929a2e6bcac647c2f4ca906583a378de18cc233d354897a55532d9ee1d48099fb4bd2f42665a5f8846bf545f49abc837df7d0f1b00000000000000000000000000000000000000000000000000000000000000",
                    "decodedMethod": {
                        "callParams": [
                            {
                                "name": "count",
                                "type": "uint256",
                                "value": "1"
                            },
                            {
                                "name": "signature",
                                "type": "bytes",
                                "value": "0x0a7d063f9d233e24086a787121929a2e6bcac647c2f4ca906583a378de18cc233d354897a55532d9ee1d48099fb4bd2f42665a5f8846bf545f49abc837df7d0f1b"
                            }
                        ],
                        "constructorArguments": "",
                        "name": "mintSucklist",
                        "returnParams": [],
                        "signature": "mintSucklist(uint256,bytes)"
                    },
                    "errorInfo": "",
                    "fromAddress": "0xb4b81b693f322f6dadac99c9de4366970e99f6d8",
                    "gasUsed": 114322,
                    "id": 0,
                    "methodDecoded": true,
                    "operation": "CALL",
                    "output": "",
                    "revert": false,
                    "revertMessage": "",
                    "selector": "0x21979551",
                    "status": true,
                    "value": "0"
                },
                "nodeType": 0
            },
            "1": {
                "invocation": {
                    "address": "0x0000000000000000000000000000000000000001",
                    "callData": "0x9848aa01ad72e5b6370c497fa32d3ea425597b8cdf8838fa5ef9fa76000000000000000000000000000000000000000000000000000000000000001b0a7d063f9d233e24086a787121929a2e6bcac647c2f4ca906583a378de18cc233d354897a55532d9ee1d48099fb4bd2f42665a5f8846bf545f49abc837df7d0f",
                    "decodedMethod": {
                        "callParams": [
                            {
                                "name": "hash",
                                "type": "bytes32",
                                "value": "0xa215336b9848aa01ad72e5b6370c497fa32d3ea425597b8cdf8838fa5ef9fa76"
                            },
                            {
                                "name": "v",
                                "type": "uint256",
                                "value": "27"
                            },
                            {
                                "name": "r",
                                "type": "bytes32",
                                "value": "0x0a7d063f9d233e24086a787121929a2e6bcac647c2f4ca906583a378de18cc23"
                            },
                            {
                                "name": "s",
                                "type": "bytes32",
                                "value": "0x3d354897a55532d9ee1d48099fb4bd2f42665a5f8846bf545f49abc837df7d0f"
                            }
                        ],
                        "constructorArguments": "",
                        "name": "ecrecover",
                        "returnParams": [
                            {
                                "name": "",
                                "type": "address",
                                "value": "0x35f9a10578b9fb077c602d30d48d6829f1c498d4"
                            }
                        ],
                        "signature": "ecrecover(bytes32,uint256,bytes32,bytes32)"
                    },
                    "errorInfo": "",
                    "fromAddress": "0xc4192c2888771f7c90397836cb7438ef16839ef9",
                    "gasUsed": 3000,
                    "id": 1,
                    "methodDecoded": true,
                    "operation": "STATICCALL",
                    "output": "0x00000000000000000000000035f9a10578b9fb077c602d30d48d6829f1c498d4",
                    "revert": false,
                    "revertMessage": "",
                    "selector": "0xa215336b",
                    "status": true,
                    "value": "0"
                },
                "nodeType": 0
            },
            "2": {
                "event": {
                    "contract": "0xc4192c2888771f7c90397836cb7438ef16839ef9",
                    "decodedLog": {
                        "name": "Transfer",
                        "params": [
                            {
                                "name": "from",
                                "type": "address",
                                "value": "0x0000000000000000000000000000000000000000"
                            },
                            {
                                "name": "to",
                                "type": "address",
                                "value": "0xb4b81b693f322f6dadac99c9de4366970e99f6d8"
                            },
                            {
                                "decimalAvailable": true,
                                "name": "tokenId",
                                "type": "uint256",
                                "value": "622"
                            }
                        ],
                        "signature": "Transfer(address,address,uint256)"
                    },
                    "id": 2,
                    "logData": "0x",
                    "logDecoded": true,
                    "operation": "EVENT",
                    "revert": false,
                    "status": true,
                    "topics": [
                        "0xddf252ad1be2c89b69c2b068fc378daa952ba7f163c4a11628f55a4df523b3ef",
                        "0x0000000000000000000000000000000000000000000000000000000000000000",
                        "0x000000000000000000000000b4b81b693f322f6dadac99c9de4366970e99f6d8",
                        "0x000000000000000000000000000000000000000000000000000000000000026e"
                    ]
                },
                "nodeType": 1
            }
        },
        "gasFlame": [
            {
                "children": [
                    {
                        "children": [
                            {
                                "children": [],
                                "depth": 0,
                                "name": "Initial Gas",
                                "value": 22648
                            },
                            {
                                "children": [
                                    {
                                        "children": [],
                                        "depth": 1,
                                        "name": "ecrecover",
                                        "value": 3000
                                    }
                                ],
                                "depth": 0,
                                "name": "Executed Gas",
                                "value": 91674
                            }
                        ],
                        "depth": -1,
                        "name": "Actual Gas Used",
                        "value": 114322
                    },
                    {
                        "children": [],
                        "depth": -1,
                        "name": "Refunded Gas",
                        "value": 0
                    }
                ],
                "depth": -2,
                "name": "Total Gas",
                "value": 114322
            }
        ],
        "isConfirmed": true,
        "mainTrace": [
            {
                "children": [
                    {
                        "children": [
                            {
                                "children": [],
                                "depth": 1,
                                "id": 1,
                                "order": 1
                            },
                            {
                                "children": [],
                                "depth": 1,
                                "id": 2,
                                "order": 2
                            }
                        ],
                        "depth": 0,
                        "id": 0,
                        "order": 0
                    }
                ],
                "depth": -1,
                "id": -1,
                "order": -1
            }
        ],
        "mainTraceNodeCount": 3,
        "parentIdMap": {
            "0": -1,
            "1": 0,
            "2": 0
        },
        "tidyTrace": [
            {
                "children": [
                    {
                        "children": [
                            {
                                "children": [],
                                "depth": 1,
                                "id": 2,
                                "order": 2
                            }
                        ],
                        "depth": 0,
                        "id": 0,
                        "order": 0
                    }
                ],
                "depth": -1,
                "id": -1,
                "order": -1
            }
        ],
        "tidyTraceNodeCount": 2
    },
    "state_change": {
        "stateChanges": [
            {
                "address": "0xc4192c2888771f7c90397836cb7438ef16839ef9",
                "erc": "ERC-721",
                "slots": [
                    {
                        "current": "0x000000020000000062e2d3e5b4b81b693f322f6dadac99c9de4366970e99f6d8",
                        "key": "0xfba877baa9fc91ef98a5458a083fc325130ac008ce40abefbfbece66fa430cb1",
                        "prev": "0x0000000000000000000000000000000000000000000000000000000000000000"
                    },
                    {
                        "current": "0x000000000000000000000000000000000000000000000000000000000000026f",
                        "key": "0x0000000000000000000000000000000000000000000000000000000000000000",
                        "prev": "0x000000000000000000000000000000000000000000000000000000000000026e"
                    },
                    {
                        "current": "0x0000000000000000000000000000000000000000000000010000000000000001",
                        "key": "0x7ae5f85b386093aea013a6c044cfcb623445af9cf1fa08a4b9739ddc8f1735c2",
                        "prev": "0x0000000000000000000000000000000000000000000000000000000000000000"
                    }
                ],
                "storageVariables": [
                    {
                        "name": "_packedOwnerships",
                        "type": "mapping(uint256 => uint256)",
                        "value": {
                            "pairs": [
                                {
                                    "key": "622",
                                    "value": {
                                        "current": "53919893336725958377114515662608450470273676144895406678691792156376",
                                        "prev": "0",
                                        "typeTag": 1
                                    }
                                }
                            ],
                            "typeTag": 4
                        }
                    },
                    {
                        "name": "_currentIndex",
                        "type": "uint256",
                        "value": {
                            "current": "623",
                            "prev": "622",
                            "typeTag": 1
                        }
                    },
                    {
                        "name": "_packedAddressData",
                        "type": "mapping(address => uint256)",
                        "value": {
                            "pairs": [
                                {
                                    "key": "0xb4b81b693f322f6dadac99c9de4366970e99f6d8",
                                    "value": {
                                        "current": "18446744073709551617",
                                        "prev": "0",
                                        "typeTag": 1
                                    }
                                }
                            ],
                            "typeTag": 4
                        }
                    }
                ]
            }
        ]
    }
}