{
    "balance_change": {
        "balanceChanges": [
            {
                "account": "0x454c78664ed3d7a205438f232299d57d1ad0ffa7",
                "assets": [
                    {
                        "address": "0x5d3d1598e70a2fce9ebe13ac613185da05febbe8",
                        "amount": "150",
                        "iconUrl": "",
                        "isERC1155": false,
                        "isERC721": false,
                        "sign": false,
                        "value": ""
                    }
                ]
            },
            {
                "account": "0xb34a4684372b36e1acad393942fb55b929e224cb",
                "assets": [
                    {
                        "address": "0x5d3d1598e70a2fce9ebe13ac613185da05febbe8",
                        "amount": "150",
                        "iconUrl": "",
                        "isERC1155": false,
                        "isERC721": false,
                        "sign": true,
                        "value": ""
                    }
                ]
            }
        ]
    },
    "profile": {
        "basic_info": {
            "baseFee": "",
            "blockNumber": 8303167,
            "callData": "0xa9059cbb000000000000000000000000b34a4684372b36e1acad393942fb55b929e224cb00000000000000000000000000000000000000000000000821ab0d4414980000",
            "debugEnable": true,
            "errorInfo": "",
            "eventCount": 1,
            "feeRecipient": "0xb2930b35844a230f00e51431acae96fe543a0347",
            "formatValue": "0",
            "gasLimit": 60000,
            "gasPrice": "6",
            "gasUsed": 22757,
            "intTxnCount": 0,
            "internalRevert": false,
            "internalRevertMessage": "",
            "isContractCreation": false,
            "isFlashloan": false,
            "maxFee": "",
            "nonce": 2,
            "overwritedBlockNumber": -1,
            "priorityFee": "",
            "receiver": "0x5d3d1598e70a2fce9ebe13ac613185da05febbe8",
            "revertMessage": "",
            "sender": "0x454c78664ed3d7a205438f232299d57d1ad0ffa7",
            "simulationEnable": true,
            "sourceTxnHash": "0x4db87cea072fc4fd997f842c8f32d845cca0592aedf4133ed1968c5fad91a617",
            "status": true,
            "timestamp": "2019-08-07T11:07:11Z",
            "transactionFee": "0.000136542",
            "txnHash": "0x4db87cea072fc4fd997f842c8f32d845cca0592aedf4133ed1968c5fad91a617",
            "txnIndex": 74,
            "type": 0,
            "value": "0"
        },
        "fund_flow": [
            {
                "amount": "150",
                "from": "0x454c78664ed3d7a205438f232299d57d1ad0ffa7",
                "id": 1,
                "isERC1155": false,
                "isERC721": false,
                "isReverted": false,
                "order": 1,
                "to": "0xb34a4684372b36e1acad393942fb55b929e224cb",
                "token": "0x5d3d1598e70a2fce9ebe13ac613185da05febbe8"
            }
        ],
        "token_infos": [
            {
                "address": "0x5d3d1598e70a2fce9ebe13ac613185da05febbe8",
                "decimals": 18
            },
            {
                "address": "0xc02aaa39b223fe8d0a0e5c4f27ead9083c756cc2",
                "decimals": 18
            },
            {
                "address": "0xeeeeeeeeeeeeeeeeeeeeeeeeeeeeeeeeeeeeeeee",
                "decimals": 18
            }
        ]
    },
    "address_label": {
        "labels": [
            {
                "address": "0x0000000000000000000000000000000000000004",
                "label": "Precompiled"
            },
            {
                "address": "0xeeeeeeeeeeeeeeeeeeeeeeeeeeeeeeeeeeeeeeee",
                "label": "Ether"
            },
            {
                "address": "0x5d3d1598e70a2fce9ebe13ac613185da05febbe8",
                "label": "YANWO"
            },
            {
                "address": "0x0000000000000000000000000000000000000001",
                "label": "Precompiled"
            },
            {
                "address": "0x0000000000000000000000000000000000000002",
                "label": "Precompiled"
            },
            {
                "address": "0x0000000000000000000000000000000000000003",
                "label": "Precompiled"
            }
        ]
    },
    "trace": {
        "accountLabels": null,
        "dataMap": {
            "-1": {
                "invocation": {
                    "address": "0x454c78664ed3d7a205438f232299d57d1ad0ffa7",
                    "callData": "",
                    "decodedMethod": null,
                    "errorInfo": "",
                    "fromAddress": "",
                    "gasUsed": 0,
                    "id": -1,
                    "methodDecoded": false,
                    "operation": "",
                    "output": "",
                    "revert": false,
                    "revertMessage": "",
                    "selector": "",
                    "status": false,
                    "value": ""
                },
                "nodeType": 0
            },
            "0": {
                "invocation": {
                    "address": "0x5d3d1598e70a2fce9ebe13ac613185da05febbe8",
                    "callData": "0x000000000000000000000000b34a4684372b36e1acad393942fb55b929e224cb00000000000000000000000000000000000000000000000821ab0d4414980000",
                    "decodedMethod": {
                        "callParams": [
                            {
                                "name": "_to",
                                "type": "address",
                                "value": "0xb34a4684372b36e1acad393942fb55b929e224cb"
                            },
                            {
                                "decimalAvailable": true,
                                "name": "_value",
                                "type": "uint256",
                                "value": "150,000,000,000,000,000,000"
                            }
                        ],
                        "constructorArguments": "",
                        "name": "transfer",
                        "returnParams": [
                            {
                                "name": "",
                                "type": "bool",
                                "value": true
                            }
                        ],
                        "signature": "transfer(address,uint256)"
                    },
                    "errorInfo": "",
                    "fromAddress": "0x454c78664ed3d7a205438f232299d57d1ad0ffa7",
                    "gasUsed": 22757,
                    "id": 0,
                    "methodDecoded": true,
                    "operation": "CALL",
                    "output": "0x0000000000000000000000000000000000000000000000000000000000000001",
                    "revert": false,
                    "revertMessage": "",
                    "selector": "0xa9059cbb",
                    "status": true,
                    "value": "0"
                },
                "nodeType": 0
            },
            "1": {
                "event": {
                    "contract": "0x5d3d1598e70a2fce9ebe13ac613185da05febbe8",
                    "decodedLog": {
                        "name": "Transfer",
                        "params": [
                            {
                                "name": "from",
                                "type": "address",
                                "value": "0x454c78664ed3d7a205438f232299d57d1ad0ffa7"
                            },
                            {
                                "name": "to",
                                "type": "address",
                                "value": "0xb34a4684372b36e1acad393942fb55b929e224cb"
                            },
                            {
                                "decimalAvailable": true,
                                "name": "value",
                                "type": "uint256",
                                "value": "150,000,000,000,000,000,000"
                            }
                        ],
                        "signature": "Transfer(address,address,uint256)"
                    },
                    "id": 1,
                    "logData": "0x00000000000000000000000000000000000000000000000821ab0d4414980000",
                    "logDecoded": true,
                    "operation": "EVENT",
                    "revert": false,
                    "status": true,
                    "topics": [
                        "0xddf252ad1be2c89b69c2b068fc378daa952ba7f163c4a11628f55a4df523b3ef",
                        "0x000000000000000000000000454c78664ed3d7a205438f232299d57d1ad0ffa7",
                        "0x000000000000000000000000b34a4684372b36e1acad393942fb55b929e224cb"
                    ]
                },
                "nodeType": 1
            }
        },
        "gasFlame": [
            {
                "children": [
                    {
                        "children": [
                            {
                                "children": [],
                                "depth": 0,
                                "name": "Initial Gas",
                                "value": 23256
                            },
                            {
                                "children": [],
                                "depth": 0,
                                "name": "Executed Gas",
                                "value": 14501
                            }
                        ],
                        "depth": -1,
                        "name": "Actual Gas Used",
                        "value": 22757
                    },
                    {
                        "children": [],
                        "depth": -1,
                        "name": "Refunded Gas",
                        "value": 15000
                    }
                ],
                "depth": -2,
                "name": "Total Gas",
                "value": 37757
            }
        ],
        "isConfirmed": true,
        "mainTrace": [
            {
                "children": [
                    {
                        "children": [
                            {
                                "children": [],
                                "depth": 1,
                                "id": 1,
                                "order": 1
                            }
                        ],
                        "depth": 0,
                        "id": 0,
                        "order": 0
                    }
                ],
                "depth": -1,
                "id": -1,
                "order": -1
            }
        ],
        "mainTraceNodeCount": 2,
        "parentIdMap": {
            "0": -1,
            "1": 0
        },
        "tidyTrace": [
            {
                "children": [
                    {
                        "children": [
                            {
                                "children": [],
                                "depth": 1,
                                "id": 1,
                                "order": 1
                            }
                        ],
                        "depth": 0,
                        "id": 0,
                        "order": 0
                    }
                ],
                "depth": -1,
                "id": -1,
                "order": -1
            }
        ],
        "tidyTraceNodeCount": 2
    },
    "state_change": {
        "stateChanges": [
            {
                "address": "0x5d3d1598e70a2fce9ebe13ac613185da05febbe8",
                "erc": "ERC-20",
                "slots": [
                    {
                        "current": "0x0000000000000000000000000000000000000000000000000000000000000000",
                        "key": "0x78c899a7337c7c2fdaecdab6284f6121faefbf1cb57fba9631aca120a4418fd6",
                        "prev": "0x00000000000000000000000000000000000000000000000821ab0d4414980000"
                    },
                    {
                        "current": "0x00000000000000000000000000000000000000000000002086ac351052600000",
                        "key": "0xd18427ef78ba29cc80829b7485f4c68582ae5c1403680f6f109982d6d47f10da",
                        "prev": "0x000000000000000000000000000000000000000000000018650127cc3dc80000"
                    }
                ],
                "storageVariables": [
                    {
                        "name": "balances",
                        "type": "mapping(address => uint256)",
                        "value": {
                            "pairs": [
                                {
                                    "key": "0x454c78664ed3d7a205438f232299d57d1ad0ffa7",
                                    "value": {
                                        "current": "0",
                                        "prev": "150000000000000000000",
                                        "typeTag": 1
                                    }
                                },
                                {
                                    "key": "0xb34a4684372b36e1acad393942fb55b929e224cb",
                                    "value": {
                                        "current": "600000000000000000000",
                                        "prev": "450000000000000000000",
                                        "typeTag": 1
                                    }
                                }
                            ],
                            "typeTag": 4
                        }
                    }
                ]
            }
        ]
    }
}