{
    "balance_change": {
        "balanceChanges": [
            {
                "account": "0x0000000000000000000000000000000000000000",
                "assets": [
                    {
                        "address": "0x20bd491fee75b6af6c2100c83b83312d620f2958",
                        "amount": "1",
                        "iconUrl": "",
                        "isERC1155": false,
                        "isERC721": true,
                        "sign": false,
                        "tokenID": "15181",
                        "value": ""
                    }
                ]
            },
            {
                "account": "0x4a533445d1fe66c262b9f5c0bf839dd86043a212",
                "assets": [
                    {
                        "address": "0x20bd491fee75b6af6c2100c83b83312d620f2958",
                        "amount": "1",
                        "iconUrl": "",
                        "isERC1155": false,
                        "isERC721": true,
                        "sign": true,
                        "tokenID": "15181",
                        "value": ""
                    }
                ]
            }
        ]
    },
    "profile": {
        "basic_info": {
            "baseFee": "",
            "blockNumber": 8350868,
            "callData": "0xc8ab0edf0000000000000000000000000000000000000000000000000000000000003b4d0000000000000000000000004a533445d1fe66c262b9f5c0bf839dd86043a2120000000000000000000000000000000000000000000000000000000000000060000000000000000000000000000000000000000000000000000000000000003668747470733a2f2f7265616c697479636c6173682e73746f72652f7263632f776561706f6e2f64657461696c732f69642f313531383100000000000000000000",
            "debugEnable": true,
            "errorInfo": "",
            "eventCount": 2,
            "feeRecipient": "0xd224ca0c819e8e97ba0136b3b95ceff503b79f53",
            "formatValue": "0",
            "gasLimit": 245122,
            "gasPrice": "3",
            "gasUsed": 215122,
            "intTxnCount": 0,
            "internalRevert": false,
            "internalRevertMessage": "",
            "isContractCreation": false,
            "isFlashloan": false,
            "maxFee": "",
            "nonce": 20643,
            "overwritedBlockNumber": -1,
            "priorityFee": "",
            "receiver": "0x20bd491fee75b6af6c2100c83b83312d620f2958",
            "revertMessage": "",
            "sender": "0xb9686f97daecdfc07e8d567ad0546f1c12b12804",
            "simulationEnable": true,
            "sourceTxnHash": "0x4d50fd460ab2708339936655cb314c329e02d8f0b4e3ecbbaccb271f6bee40a7",
            "status": true,
            "timestamp": "2019-08-14T20:42:14Z",
            "transactionFee": "0.000645366",
            "txnHash": "0x4d50fd460ab2708339936655cb314c329e02d8f0b4e3ecbbaccb271f6bee40a7",
            "txnIndex": 108,
            "type": 0,
            "value": "0"
        },
        "fund_flow": [
            {
                "amount": "1",
                "from": "0x0000000000000000000000000000000000000000",
                "id": 1,
                "isERC1155": false,
                "isERC721": true,
                "isReverted": false,
                "order": 1,
                "to": "0x4a533445d1fe66c262b9f5c0bf839dd86043a212",
                "token": "0x20bd491fee75b6af6c2100c83b83312d620f2958",
                "tokenID": "15181"
            }
        ],
        "token_infos": [
            {
                "address": "0xc02aaa39b223fe8d0a0e5c4f27ead9083c756cc2",
                "decimals": 18
            },
            {
                "address": "0xeeeeeeeeeeeeeeeeeeeeeeeeeeeeeeeeeeeeeeee",
                "decimals": 18
            }
        ]
    },
    "address_label": {
        "labels": [
            {
                "address": "0x0000000000000000000000000000000000000003",
                "label": "Precompiled"
            },
            {
                "address": "0x0000000000000000000000000000000000000004",
                "label": "Precompiled"
            },
            {
                "address": "0xeeeeeeeeeeeeeeeeeeeeeeeeeeeeeeeeeeeeeeee",
                "label": "Ether"
            },
            {
                "address": "0x20bd491fee75b6af6c2100c83b83312d620f2958",
                "label": "Reality Clash Weapon: RC GUN Token"
            },
            {
                "address": "0xb9686f97daecdfc07e8d567ad0546f1c12b12804",
                "label": "Reality Clash Weapon: Deployer"
            },
            {
                "address": "0x0000000000000000000000000000000000000001",
                "label": "Precompiled"
            },
            {
                "address": "0x0000000000000000000000000000000000000002",
                "label": "Precompiled"
            }
        ]
    },
    "trace": {
        "accountLabels": null,
        "dataMap": {
            "-1": {
                "invocation": {
                    "address": "0xb9686f97daecdfc07e8d567ad0546f1c12b12804",
                    "callData": "",
                    "decodedMethod": null,
                    "errorInfo": "",
                    "fromAddress": "",
                    "gasUsed": 0,
                    "id": -1,
                    "methodDecoded": false,
                    "operation": "",
                    "output": "",
                    "revert": false,
                    "revertMessage": "",
                    "selector": "",
                    "status": false,
                    "value": ""
                },
                "nodeType": 0
            },
            "0": {
                "invocation": {
                    "address": "0x20bd491fee75b6af6c2100c83b83312d620f2958",
                    "callData": "0x0000000000000000000000000000000000000000000000000000000000003b4d0000000000000000000000004a533445d1fe66c262b9f5c0bf839dd86043a2120000000000000000000000000000000000000000000000000000000000000060000000000000000000000000000000000000000000000000000000000000003668747470733a2f2f7265616c697479636c6173682e73746f72652f7263632f776561706f6e2f64657461696c732f69642f313531383100000000000000000000",
                    "decodedMethod": {
                        "callParams": [
                            {
                                "name": "_id",
                                "type": "uint256",
                                "value": "15,181"
                            },
                            {
                                "name": "_to",
                                "type": "address",
                                "value": "0x4a533445d1fe66c262b9f5c0bf839dd86043a212"
                            },
                            {
                                "name": "_uri",
                                "type": "string",
                                "value": "https://realityclash.store/rcc/weapon/details/id/15181"
                            }
                        ],
                        "constructorArguments": "",
                        "name": "mintWithURI",
                        "returnParams": [],
                        "signature": "mintWithURI(uint256,address,string)"
                    },
                    "errorInfo": "",
                    "fromAddress": "0xb9686f97daecdfc07e8d567ad0546f1c12b12804",
                    "gasUsed": 215122,
                    "id": 0,
                    "methodDecoded": true,
                    "operation": "CALL",
                    "output": "",
                    "revert": false,
                    "revertMessage": "",
                    "selector": "0xc8ab0edf",
                    "status": true,
                    "value": "0"
                },
                "nodeType": 0
            },
            "1": {
                "event": {
                    "contract": "0x20bd491fee75b6af6c2100c83b83312d620f2958",
                    "decodedLog": {
                        "name": "Transfer",
                        "params": [
                            {
                                "name": "_from",
                                "type": "address",
                                "value": "0x0000000000000000000000000000000000000000"
                            },
                            {
                                "name": "_to",
                                "type": "address",
                                "value": "0x4a533445d1fe66c262b9f5c0bf839dd86043a212"
                            },
                            {
                                "decimalAvailable": true,
                                "name": "_tokenId",
                                "type": "uint256",
                                "value": "15,181"
                            }
                        ],
                        "signature": "Transfer(address,address,uint256)"
                    },
                    "id": 1,
                    "logData": "0x",
                    "logDecoded": true,
                    "operation": "EVENT",
                    "revert": false,
                    "status": true,
                    "topics": [
                        "0xddf252ad1be2c89b69c2b068fc378daa952ba7f163c4a11628f55a4df523b3ef",
                        "0x0000000000000000000000000000000000000000000000000000000000000000",
                        "0x0000000000000000000000004a533445d1fe66c262b9f5c0bf839dd86043a212",
                        "0x0000000000000000000000000000000000000000000000000000000000003b4d"
                    ]
                },
                "nodeType": 1
            },
            "2": {
                "event": {
                    "contract": "0x20bd491fee75b6af6c2100c83b83312d620f2958",
                    "decodedLog": {
                        "name": "WeaponAdded",
                        "params": [
                            {
                                "name": "weaponId",
                                "type": "uint256",
                                "value": "15,181"
                            },
                            {
                                "name": "gameData",
                                "type": "string",
                                "value": ""
                            },
                            {
                                "name": "weaponData",
                                "type": "string",
                                "value": ""
                            },
                            {
                                "name": "ownerData",
                                "type": "string",
                                "value": ""
                            },
                            {
                                "name": "tokenURI",
                                "type": "string",
                                "value": "https://realityclash.store/rcc/weapon/details/id/15181"
                            }
                        ],
                        "signature": "WeaponAdded(uint256,string,string,string,string)"
                    },
                    "id": 2,
                    "logData": "0x000000000000000000000000000000000000000000000000000000000000008000000000000000000000000000000000000000000000000000000000000000c000000000000000000000000000000000000000000000000000000000000001000000000000000000000000000000000000000000000000000000000000000140000000000000000000000000000000000000000000000000000000000000000000000000000000000000000000000000000000000000000000000000000000000000000000000000000000000000000000000000000000000000000000000000000000000000000000000000000000000000000000000000000000000000000000000000000000000000000000000000000000000000000000000000000000000000000000000000000000000000000000000000000000000000000000000000000000000000000000000000000000000000000000000000000000000000003668747470733a2f2f7265616c697479636c6173682e73746f72652f7263632f776561706f6e2f64657461696c732f69642f313531383100000000000000000000",
                    "logDecoded": true,
                    "operation": "EVENT",
                    "revert": false,
                    "status": true,
                    "topics": [
                        "0xad449d2e420087437aaa3ad11b8c4270ae919b93be767c46d518286561e03e1e",
                        "0x0000000000000000000000000000000000000000000000000000000000003b4d"
                    ]
                },
                "nodeType": 1
            }
        },
        "gasFlame": [
            {
                "children": [
                    {
                        "children": [
                            {
                                "children": [],
                                "depth": 0,
                                "name": "Initial Gas",
                                "value": 27032
                            },
                            {
                                "children": [],
                                "depth": 0,
                                "name": "Executed Gas",
                                "value": 188090
                            }
                        ],
                        "depth": -1,
                        "name": "Actual Gas Used",
                        "value": 215122
                    },
                    {
                        "children": [],
                        "depth": -1,
                        "name": "Refunded Gas",
                        "value": 0
                    }
                ],
                "depth": -2,
                "name": "Total Gas",
                "value": 215122
            }
        ],
        "isConfirmed": true,
        "mainTrace": [
            {
                "children": [
                    {
                        "children": [
                            {
                                "children": [],
                                "depth": 1,
                                "id": 1,
                                "order": 1
                            },
                            {
                                "children": [],
                                "depth": 1,
                                "id": 2,
                                "order": 2
                            }
                        ],
                        "depth": 0,
                        "id": 0,
                        "order": 0
                    }
                ],
                "depth": -1,
                "id": -1,
                "order": -1
            }
        ],
        "mainTraceNodeCount": 3,
        "parentIdMap": {
            "0": -1,
            "1": 0,
            "2": 0
        },
        "tidyTrace": [
            {
                "children": [
                    {
                        "children": [
                            {
                                "children": [],
                                "depth": 1,
                                "id": 1,
                                "order": 1
                            },
                            {
                                "children": [],
                                "depth": 1,
                                "id": 2,
                                "order": 2
                            }
                        ],
                        "depth": 0,
                        "id": 0,
                        "order": 0
                    }
                ],
                "depth": -1,
                "id": -1,
                "order": -1
            }
        ],
        "tidyTraceNodeCount": 3
    },
    "state_change": {
        "stateChanges": [
            {
                "address": "0x20bd491fee75b6af6c2100c83b83312d620f2958",
                "erc": "ERC-721",
                "slots": [
                    {
                        "current": "0x000000000000000000000000000000000000000000000000000000000000006d",
                        "key": "0xabcbb38026f3f7eafa8f885356e72e8a5ffaaebef54b243021d0dc54290114aa",
                        "prev": "0x0000000000000000000000000000000000000000000000000000000000000000"
                    },
                    {
                        "current": "0x6561706f6e2f64657461696c732f69642f313531383100000000000000000000",
                        "key": "0x040d85e7d95434cfb599396534463a884b9cf3ea1d47ac581151b402fa49dbd0",
                        "prev": "0x0000000000000000000000000000000000000000000000000000000000000000"
                    },
                    {
                        "current": "0x000000000000000000000000000000000000000000000000000000000000001b",
                        "key": "0x7e97f154306a816a73998ea2ff029c69cae01dcd40d537c4bfff6158795e05d1",
                        "prev": "0x0000000000000000000000000000000000000000000000000000000000000000"
                    },
                    {
                        "current": "0x000000000000000000000000000000000000000000000000000000000000199e",
                        "key": "0x000000000000000000000000000000000000000000000000000000000000000a",
                        "prev": "0x000000000000000000000000000000000000000000000000000000000000199d"
                    },
                    {
                        "current": "0x000000000000000000000000000000000000000000000000000000000000199d",
                        "key": "0xfe82508f1bfb1ad03ae78ec7917846eaa734b3f0a5f63bb3ddf4c0ee6f5c381d",
                        "prev": "0x0000000000000000000000000000000000000000000000000000000000000000"
                    },
                    {
                        "current": "0x0000000000000000000000000000000000000000000000000000000000003b4d",
                        "key": "0xc65a7bb8d6351c1cf70c95a316cc6a92839c986682d98bc35f958f4883f9ec45",
                        "prev": "0x0000000000000000000000000000000000000000000000000000000000000000"
                    },
                    {
                        "current": "0x68747470733a2f2f7265616c697479636c6173682e73746f72652f7263632f77",
                        "key": "0x040d85e7d95434cfb599396534463a884b9cf3ea1d47ac581151b402fa49dbcf",
                        "prev": "0x0000000000000000000000000000000000000000000000000000000000000000"
                    },
                    {
                        "current": "0x0000000000000000000000004a533445d1fe66c262b9f5c0bf839dd86043a212",
                        "key": "0x61af4760e9165241b29547d1404d8d49366ac0c572980178a95cf78d4e3e8e21",
                        "prev": "0x0000000000000000000000000000000000000000000000000000000000000000"
                    },
                    {
                        "current": "0x000000000000000000000000000000000000000000000000000000000000001c",
                        "key": "0x70b0ffb4bdd9977d3ffaf00811de235713e148b0652a0ec068e9b0f2fee8e2ab",
                        "prev": "0x000000000000000000000000000000000000000000000000000000000000001b"
                    },
                    {
                        "current": "0x000000000000000000000000000000000000000000000000000000000000001c",
                        "key": "0x04d07a4a1aefbde00646c46e86ef73443be4450ced9ab2d288ba907b277a6b15",
                        "prev": "0x000000000000000000000000000000000000000000000000000000000000001b"
                    },
                    {
                        "current": "0x0000000000000000000000000000000000000000000000000000000000003b4d",
                        "key": "0xa92691b930b66372cbbc4c90dc2b54193817c8c53c0dfb0f3a72aac739aee3d1",
                        "prev": "0x0000000000000000000000000000000000000000000000000000000000000000"
                    }
                ],
                "storageVariables": [
                    {
                        "name": "allTokensIndex",
                        "type": "mapping(uint256 => uint256)",
                        "value": {
                            "pairs": [
                                {
                                    "key": "15181",
                                    "value": {
                                        "current": "6557",
                                        "prev": "0",
                                        "typeTag": 1
                                    }
                                }
                            ],
                            "typeTag": 4
                        }
                    },
                    {
                        "name": "tokenOwner",
                        "type": "mapping(uint256 => address)",
                        "value": {
                            "pairs": [
                                {
                                    "key": "15181",
                                    "value": {
                                        "current": "0x4a533445d1fe66c262b9f5c0bf839dd86043a212",
                                        "prev": "0x0000000000000000000000000000000000000000",
                                        "typeTag": 1
                                    }
                                }
                            ],
                            "typeTag": 4
                        }
                    },
                    {
                        "name": "tokenURIs",
                        "type": "mapping(uint256 => string)",
                        "value": {
                            "pairs": [
                                {
                                    "key": "15181",
                                    "value": {
                                        "current": "https://realityclash.store/rcc/weapon/details/id/15181",
                                        "prev": "",
                                        "typeTag": 1
                                    }
                                }
                            ],
                            "typeTag": 4
                        }
                    },
                    {
                        "name": "ownedTokensCount",
                        "type": "mapping(address => uint256)",
                        "value": {
                            "pairs": [
                                {
                                    "key": "0x4a533445d1fe66c262b9f5c0bf839dd86043a212",
                                    "value": {
                                        "current": "28",
                                        "prev": "27",
                                        "typeTag": 1
                                    }
                                }
                            ],
                            "typeTag": 4
                        }
                    },
                    {
                        "name": "ownedTokens",
                        "type": "mapping(address => uint256[])",
                        "value": {
                            "pairs": [
                                {
                                    "key": "0x4a533445d1fe66c262b9f5c0bf839dd86043a212",
                                    "value": {
                                        "elemType": "uint256",
                                        "elems": [
                                            {
                                                "index": 27,
                                                "value": {
                                                    "current": "15181",
                                                    "prev": "0",
                                                    "typeTag": 1
                                                }
                                            }
                                        ],
                                        "typeTag": 2
                                    }
                                }
                            ],
                            "typeTag": 4
                        }
                    },
                    {
                        "name": "ownedTokensIndex",
                        "type": "mapping(uint256 => uint256)",
                        "value": {
                            "pairs": [
                                {
                                    "key": "15181",
                                    "value": {
                                        "current": "27",
                                        "prev": "0",
                                        "typeTag": 1
                                    }
                                }
                            ],
                            "typeTag": 4
                        }
                    },
                    {
                        "name": "allTokens",
                        "type": "uint256[]",
                        "value": {
                            "elemType": "uint256",
                            "elems": [
                                {
                                    "index": 6557,
                                    "value": {
                                        "current": "15181",
                                        "prev": "0",
                                        "typeTag": 1
                                    }
                                }
                            ],
                            "typeTag": 2
                        }
                    }
                ]
            }
        ]
    }
}