{
    "balance_change": {
        "balanceChanges": []
    },
    "profile": {
        "basic_info": {
            "baseFee": "",
            "blockNumber": 7575239,
            "callData": "0x9f744745000000000000000000000000f09be4dd312e6eb77313e5901c24ec8b1af7d04700000000000000000000000040b469b080c4b034091448d0e59880d823b2fc1800000000000000000000000040b469b080c4b034091448d0e59880d823b2fc1800000000000000000000000000000000000000000000000000000000000000000000000000000000000000000000000000000000000000000000000000000120eaf6cdc58862b7dde4ae866d3e762e25fd6fdcb5f4ee5311ee40c5bc2db4a5e408f9d770111bd02cf0029485cb79bb0b929565445a3c5dc641f64cdd2d10c0a200000000000000000000000000000000000000000000000000000000000001a00000000000000000000000000000000000000000000000000000000000000220000000000000000000000000000000000000000000000000000000000000004126e4244d597cfa7e2c335060c170d36c749002f664650179a584d864000fe9216492d8f995ef3a2cd8d78492a2907dbc0633c09ddc65d7db4a2844d636b662531b00000000000000000000000000000000000000000000000000000000000000000000000000000000000000000000000000000000000000000000000000004109f566ab371105d801627b728f9af8ba3409e155a5bf120d731e2b322a18ba41396abff7690be9d5eb84f8cfae59ca7ad0a99846fc0956937a925cfc7334efae1b00000000000000000000000000000000000000000000000000000000000000000000000000000000000000000000000000000000000000000000000000004111b2136f5cb3c1c415136d6a43c6b3a04399bed98e4271253d24efa2b334b09658e16fcfea39de7c6aae6bd5bf1cc5a1deea6f95c66fbe8330fe8c5a4b9be2ed1b00000000000000000000000000000000000000000000000000000000000000",
            "debugEnable": true,
            "errorInfo": "",
            "eventCount": 1,
            "feeRecipient": "0x6c3183792fbb4a4dd276451af6baf5c66d5f5e48",
            "formatValue": "0",
            "gasLimit": 500000,
            "gasPrice": "4",
            "gasUsed": 109209,
            "intTxnCount": 4,
            "internalRevert": false,
            "internalRevertMessage": "",
            "isContractCreation": false,
            "isFlashloan": false,
            "maxFee": "",
            "nonce": 224304,
            "overwritedBlockNumber": -1,
            "priorityFee": "",
            "receiver": "0xceec7aaa57e3a77c73a9954b9b7d5b32ab688318",
            "revertMessage": "",
            "sender": "0xa83996cace93b2af6c54222a51da5dbda8526172",
            "simulationEnable": true,
            "sourceTxnHash": "0x4dc2a538fba40a6462b2b8a9f16b1a560cb5e853e5add01b2ce6d9229f8d6a00",
            "status": true,
            "timestamp": "2019-04-15T22:36:02Z",
            "transactionFee": "0.000436836",
            "txnHash": "0x4dc2a538fba40a6462b2b8a9f16b1a560cb5e853e5add01b2ce6d9229f8d6a00",
            "txnIndex": 17,
            "type": 0,
            "value": "0"
        },
        "fund_flow": [],
        "token_infos": [
            {
                "address": "0xc02aaa39b223fe8d0a0e5c4f27ead9083c756cc2",
                "decimals": 18
            },
            {
                "address": "0xeeeeeeeeeeeeeeeeeeeeeeeeeeeeeeeeeeeeeeee",
                "decimals": 18
            }
        ]
    },
    "address_label": {
        "labels": [
            {
                "address": "0x0000000000000000000000000000000000000001",
                "label": "Precompiled"
            },
            {
                "address": "0x0000000000000000000000000000000000000002",
                "label": "Precompiled"
            },
            {
                "address": "0x0000000000000000000000000000000000000003",
                "label": "Precompiled"
            },
            {
                "address": "0x0000000000000000000000000000000000000004",
                "label": "Precompiled"
            },
            {
                "address": "0xeeeeeeeeeeeeeeeeeeeeeeeeeeeeeeeeeeeeeeee",
                "label": "Ether"
            },
            {
                "address": "0xceec7aaa57e3a77c73a9954b9b7d5b32ab688318",
                "label": "Bloom: Attestation Logic"
            }
        ]
    },
    "trace": {
        "accountLabels": null,
        "dataMap": {
            "-1": {
                "invocation": {
                    "address": "0xa83996cace93b2af6c54222a51da5dbda8526172",
                    "callData": "",
                    "decodedMethod": null,
                    "errorInfo": "",
                    "fromAddress": "",
                    "gasUsed": 0,
                    "id": -1,
                    "methodDecoded": false,
                    "operation": "",
                    "output": "",
                    "revert": false,
                    "revertMessage": "",
                    "selector": "",
                    "status": false,
                    "value": ""
                },
                "nodeType": 0
            },
            "0": {
                "invocation": {
                    "address": "0xceec7aaa57e3a77c73a9954b9b7d5b32ab688318",
                    "callData": "0x000000000000000000000000f09be4dd312e6eb77313e5901c24ec8b1af7d04700000000000000000000000040b469b080c4b034091448d0e59880d823b2fc1800000000000000000000000040b469b080c4b034091448d0e59880d823b2fc1800000000000000000000000000000000000000000000000000000000000000000000000000000000000000000000000000000000000000000000000000000120eaf6cdc58862b7dde4ae866d3e762e25fd6fdcb5f4ee5311ee40c5bc2db4a5e408f9d770111bd02cf0029485cb79bb0b929565445a3c5dc641f64cdd2d10c0a200000000000000000000000000000000000000000000000000000000000001a00000000000000000000000000000000000000000000000000000000000000220000000000000000000000000000000000000000000000000000000000000004126e4244d597cfa7e2c335060c170d36c749002f664650179a584d864000fe9216492d8f995ef3a2cd8d78492a2907dbc0633c09ddc65d7db4a2844d636b662531b00000000000000000000000000000000000000000000000000000000000000000000000000000000000000000000000000000000000000000000000000004109f566ab371105d801627b728f9af8ba3409e155a5bf120d731e2b322a18ba41396abff7690be9d5eb84f8cfae59ca7ad0a99846fc0956937a925cfc7334efae1b00000000000000000000000000000000000000000000000000000000000000000000000000000000000000000000000000000000000000000000000000004111b2136f5cb3c1c415136d6a43c6b3a04399bed98e4271253d24efa2b334b09658e16fcfea39de7c6aae6bd5bf1cc5a1deea6f95c66fbe8330fe8c5a4b9be2ed1b00000000000000000000000000000000000000000000000000000000000000",
                    "decodedMethod": {
                        "callParams": [
                            {
                                "name": "_subject",
                                "type": "address",
                                "value": "0xf09be4dd312e6eb77313e5901c24ec8b1af7d047"
                            },
                            {
                                "name": "_attester",
                                "type": "address",
                                "value": "0x40b469b080c4b034091448d0e59880d823b2fc18"
                            },
                            {
                                "name": "_requester",
                                "type": "address",
                                "value": "0x40b469b080c4b034091448d0e59880d823b2fc18"
                            },
                            {
                                "name": "_reward",
                                "type": "uint256",
                                "value": "0"
                            },
                            {
                                "name": "_requesterSig",
                                "type": "bytes",
                                "value": "0x26e4244d597cfa7e2c335060c170d36c749002f664650179a584d864000fe9216492d8f995ef3a2cd8d78492a2907dbc0633c09ddc65d7db4a2844d636b662531b"
                            },
                            {
                                "name": "_dataHash",
                                "type": "bytes32",
                                "value": "0xeaf6cdc58862b7dde4ae866d3e762e25fd6fdcb5f4ee5311ee40c5bc2db4a5e4"
                            },
                            {
                                "name": "_requestNonce",
                                "type": "bytes32",
                                "value": "0x08f9d770111bd02cf0029485cb79bb0b929565445a3c5dc641f64cdd2d10c0a2"
                            },
                            {
                                "name": "_subjectSig",
                                "type": "bytes",
                                "value": "0x09f566ab371105d801627b728f9af8ba3409e155a5bf120d731e2b322a18ba41396abff7690be9d5eb84f8cfae59ca7ad0a99846fc0956937a925cfc7334efae1b"
                            },
                            {
                                "name": "_delegationSig",
                                "type": "bytes",
                                "value": "0x11b2136f5cb3c1c415136d6a43c6b3a04399bed98e4271253d24efa2b334b09658e16fcfea39de7c6aae6bd5bf1cc5a1deea6f95c66fbe8330fe8c5a4b9be2ed1b"
                            }
                        ],
                        "constructorArguments": "",
                        "name": "attestFor",
                        "returnParams": [],
                        "signature": "attestFor(address,address,address,uint256,bytes,bytes32,bytes32,bytes,bytes)"
                    },
                    "errorInfo": "",
                    "fromAddress": "0xa83996cace93b2af6c54222a51da5dbda8526172",
                    "gasUsed": 109209,
                    "id": 0,
                    "methodDecoded": true,
                    "operation": "CALL",
                    "output": "",
                    "revert": false,
                    "revertMessage": "",
                    "selector": "0x9f744745",
                    "status": true,
                    "value": "0"
                },
                "nodeType": 0
            },
            "1": {
                "invocation": {
                    "address": "0x7a75cb349d9a9d4c2d3eb8a22cb3090222d8557b",
                    "callData": "0xe873c35b90196588393581f15eb6fa23023f722e99b94d72ee8a4806ce79ee220000000000000000000000000000000000000000000000000000000000000040000000000000000000000000000000000000000000000000000000000000004111b2136f5cb3c1c415136d6a43c6b3a04399bed98e4271253d24efa2b334b09658e16fcfea39de7c6aae6bd5bf1cc5a1deea6f95c66fbe8330fe8c5a4b9be2ed1b00000000000000000000000000000000000000000000000000000000000000",
                    "decodedMethod": {
                        "callParams": [
                            {
                                "name": "hash",
                                "type": "bytes32",
                                "value": "0xe873c35b90196588393581f15eb6fa23023f722e99b94d72ee8a4806ce79ee22"
                            },
                            {
                                "name": "signature",
                                "type": "bytes",
                                "value": "0x11b2136f5cb3c1c415136d6a43c6b3a04399bed98e4271253d24efa2b334b09658e16fcfea39de7c6aae6bd5bf1cc5a1deea6f95c66fbe8330fe8c5a4b9be2ed1b"
                            }
                        ],
                        "constructorArguments": "",
                        "name": "recover",
                        "returnParams": [
                            {
                                "name": "",
                                "type": "address",
                                "value": "0x40b469b080c4b034091448d0e59880d823b2fc18"
                            }
                        ],
                        "signature": "recover(bytes32,bytes)"
                    },
                    "errorInfo": "",
                    "fromAddress": "0xceec7aaa57e3a77c73a9954b9b7d5b32ab688318",
                    "gasUsed": 4651,
                    "id": 1,
                    "methodDecoded": true,
                    "operation": "DELEGATECALL",
                    "output": "0x00000000000000000000000040b469b080c4b034091448d0e59880d823b2fc18",
                    "revert": false,
                    "revertMessage": "",
                    "selector": "0x19045a25",
                    "status": true,
                    "value": "0"
                },
                "nodeType": 0
            },
            "2": {
                "invocation": {
                    "address": "0x0000000000000000000000000000000000000001",
                    "callData": "0x90196588393581f15eb6fa23023f722e99b94d72ee8a4806ce79ee22000000000000000000000000000000000000000000000000000000000000001b11b2136f5cb3c1c415136d6a43c6b3a04399bed98e4271253d24efa2b334b09658e16fcfea39de7c6aae6bd5bf1cc5a1deea6f95c66fbe8330fe8c5a4b9be2ed",
                    "decodedMethod": {
                        "callParams": [
                            {
                                "name": "hash",
                                "type": "bytes32",
                                "value": "0xe873c35b90196588393581f15eb6fa23023f722e99b94d72ee8a4806ce79ee22"
                            },
                            {
                                "name": "v",
                                "type": "uint256",
                                "value": "27"
                            },
                            {
                                "name": "r",
                                "type": "bytes32",
                                "value": "0x11b2136f5cb3c1c415136d6a43c6b3a04399bed98e4271253d24efa2b334b096"
                            },
                            {
                                "name": "s",
                                "type": "bytes32",
                                "value": "0x58e16fcfea39de7c6aae6bd5bf1cc5a1deea6f95c66fbe8330fe8c5a4b9be2ed"
                            }
                        ],
                        "constructorArguments": "",
                        "name": "ecrecover",
                        "returnParams": [
                            {
                                "name": "",
                                "type": "address",
                                "value": "0x40b469b080c4b034091448d0e59880d823b2fc18"
                            }
                        ],
                        "signature": "ecrecover(bytes32,uint256,bytes32,bytes32)"
                    },
                    "errorInfo": "",
                    "fromAddress": "0xceec7aaa57e3a77c73a9954b9b7d5b32ab688318",
                    "gasUsed": 3000,
                    "id": 2,
                    "methodDecoded": true,
                    "operation": "CALL",
                    "output": "0x00000000000000000000000040b469b080c4b034091448d0e59880d823b2fc18",
                    "revert": false,
                    "revertMessage": "",
                    "selector": "0xe873c35b",
                    "status": true,
                    "value": "0"
                },
                "nodeType": 0
            },
            "3": {
                "invocation": {
                    "address": "0x7a75cb349d9a9d4c2d3eb8a22cb3090222d8557b",
                    "callData": "0x0c32fe0606e12fff9bb627302f4bf9369e63cbab29bf4c45931d05f6c247cef20000000000000000000000000000000000000000000000000000000000000040000000000000000000000000000000000000000000000000000000000000004109f566ab371105d801627b728f9af8ba3409e155a5bf120d731e2b322a18ba41396abff7690be9d5eb84f8cfae59ca7ad0a99846fc0956937a925cfc7334efae1b00000000000000000000000000000000000000000000000000000000000000",
                    "decodedMethod": {
                        "callParams": [
                            {
                                "name": "hash",
                                "type": "bytes32",
                                "value": "0x0c32fe0606e12fff9bb627302f4bf9369e63cbab29bf4c45931d05f6c247cef2"
                            },
                            {
                                "name": "signature",
                                "type": "bytes",
                                "value": "0x09f566ab371105d801627b728f9af8ba3409e155a5bf120d731e2b322a18ba41396abff7690be9d5eb84f8cfae59ca7ad0a99846fc0956937a925cfc7334efae1b"
                            }
                        ],
                        "constructorArguments": "",
                        "name": "recover",
                        "returnParams": [
                            {
                                "name": "",
                                "type": "address",
                                "value": "0xf09be4dd312e6eb77313e5901c24ec8b1af7d047"
                            }
                        ],
                        "signature": "recover(bytes32,bytes)"
                    },
                    "errorInfo": "",
                    "fromAddress": "0xceec7aaa57e3a77c73a9954b9b7d5b32ab688318",
                    "gasUsed": 4651,
                    "id": 3,
                    "methodDecoded": true,
                    "operation": "DELEGATECALL",
                    "output": "0x000000000000000000000000f09be4dd312e6eb77313e5901c24ec8b1af7d047",
                    "revert": false,
                    "revertMessage": "",
                    "selector": "0x19045a25",
                    "status": true,
                    "value": "0"
                },
                "nodeType": 0
            },
            "4": {
                "invocation": {
                    "address": "0x0000000000000000000000000000000000000001",
                    "callData": "0x06e12fff9bb627302f4bf9369e63cbab29bf4c45931d05f6c247cef2000000000000000000000000000000000000000000000000000000000000001b09f566ab371105d801627b728f9af8ba3409e155a5bf120d731e2b322a18ba41396abff7690be9d5eb84f8cfae59ca7ad0a99846fc0956937a925cfc7334efae",
                    "decodedMethod": {
                        "callParams": [
                            {
                                "name": "hash",
                                "type": "bytes32",
                                "value": "0x0c32fe0606e12fff9bb627302f4bf9369e63cbab29bf4c45931d05f6c247cef2"
                            },
                            {
                                "name": "v",
                                "type": "uint256",
                                "value": "27"
                            },
                            {
                                "name": "r",
                                "type": "bytes32",
                                "value": "0x09f566ab371105d801627b728f9af8ba3409e155a5bf120d731e2b322a18ba41"
                            },
                            {
                                "name": "s",
                                "type": "bytes32",
                                "value": "0x396abff7690be9d5eb84f8cfae59ca7ad0a99846fc0956937a925cfc7334efae"
                            }
                        ],
                        "constructorArguments": "",
                        "name": "ecrecover",
                        "returnParams": [
                            {
                                "name": "",
                                "type": "address",
                                "value": "0xf09be4dd312e6eb77313e5901c24ec8b1af7d047"
                            }
                        ],
                        "signature": "ecrecover(bytes32,uint256,bytes32,bytes32)"
                    },
                    "errorInfo": "",
                    "fromAddress": "0xceec7aaa57e3a77c73a9954b9b7d5b32ab688318",
                    "gasUsed": 3000,
                    "id": 4,
                    "methodDecoded": true,
                    "operation": "CALL",
                    "output": "0x000000000000000000000000f09be4dd312e6eb77313e5901c24ec8b1af7d047",
                    "revert": false,
                    "revertMessage": "",
                    "selector": "0x0c32fe06",
                    "status": true,
                    "value": "0"
                },
                "nodeType": 0
            },
            "5": {
                "event": {
                    "contract": "0xceec7aaa57e3a77c73a9954b9b7d5b32ab688318",
                    "decodedLog": {
                        "name": "TraitAttested",
                        "params": [
                            {
                                "name": "subject",
                                "type": "address",
                                "value": "0xf09be4dd312e6eb77313e5901c24ec8b1af7d047"
                            },
                            {
                                "name": "attester",
                                "type": "address",
                                "value": "0x40b469b080c4b034091448d0e59880d823b2fc18"
                            },
                            {
                                "name": "requester",
                                "type": "address",
                                "value": "0x40b469b080c4b034091448d0e59880d823b2fc18"
                            },
                            {
                                "name": "dataHash",
                                "type": "bytes32",
                                "value": "0xeaf6cdc58862b7dde4ae866d3e762e25fd6fdcb5f4ee5311ee40c5bc2db4a5e4"
                            }
                        ],
                        "signature": "TraitAttested(address,address,address,bytes32)"
                    },
                    "id": 5,
                    "logData": "0x000000000000000000000000f09be4dd312e6eb77313e5901c24ec8b1af7d04700000000000000000000000040b469b080c4b034091448d0e59880d823b2fc1800000000000000000000000040b469b080c4b034091448d0e59880d823b2fc18eaf6cdc58862b7dde4ae866d3e762e25fd6fdcb5f4ee5311ee40c5bc2db4a5e4",
                    "logDecoded": true,
                    "operation": "EVENT",
                    "revert": false,
                    "status": true,
                    "topics": [
                        "0x53931139c48182587fa8ce0ac76dd9cd86655899a636bffdce8138a0cdb2c1b5"
                    ]
                },
                "nodeType": 1
            }
        },
        "gasFlame": [
            {
                "children": [
                    {
                        "children": [
                            {
                                "children": [],
                                "depth": 0,
                                "name": "Initial Gas",
                                "value": 44888
                            },
                            {
                                "children": [
                                    {
                                        "children": [
                                            {
                                                "children": [],
                                                "depth": 2,
                                                "name": "ecrecover",
                                                "value": 3000
                                            }
                                        ],
                                        "depth": 1,
                                        "name": "recover",
                                        "value": 4651
                                    },
                                    {
                                        "children": [
                                            {
                                                "children": [],
                                                "depth": 2,
                                                "name": "ecrecover",
                                                "value": 3000
                                            }
                                        ],
                                        "depth": 1,
                                        "name": "recover",
                                        "value": 4651
                                    }
                                ],
                                "depth": 0,
                                "name": "Executed Gas",
                                "value": 64321
                            }
                        ],
                        "depth": -1,
                        "name": "Actual Gas Used",
                        "value": 109209
                    },
                    {
                        "children": [],
                        "depth": -1,
                        "name": "Refunded Gas",
                        "value": 0
                    }
                ],
                "depth": -2,
                "name": "Total Gas",
                "value": 109209
            }
        ],
        "isConfirmed": true,
        "mainTrace": [
            {
                "children": [
                    {
                        "children": [
                            {
                                "children": [
                                    {
                                        "children": [],
                                        "depth": 2,
                                        "id": 2,
                                        "order": 2
                                    }
                                ],
                                "depth": 1,
                                "id": 1,
                                "order": 1
                            },
                            {
                                "children": [
                                    {
                                        "children": [],
                                        "depth": 2,
                                        "id": 4,
                                        "order": 4
                                    }
                                ],
                                "depth": 1,
                                "id": 3,
                                "order": 3
                            },
                            {
                                "children": [],
                                "depth": 1,
                                "id": 5,
                                "order": 5
                            }
                        ],
                        "depth": 0,
                        "id": 0,
                        "order": 0
                    }
                ],
                "depth": -1,
                "id": -1,
                "order": -1
            }
        ],
        "mainTraceNodeCount": 6,
        "parentIdMap": {
            "0": -1,
            "1": 0,
            "2": 1,
            "3": 0,
            "4": 3,
            "5": 0
        },
        "tidyTrace": [
            {
                "children": [
                    {
                        "children": [
                            {
                                "children": [
                                    {
                                        "children": [],
                                        "depth": 2,
                                        "id": 2,
                                        "order": 2
                                    }
                                ],
                                "depth": 1,
                                "id": 1,
                                "order": 1
                            },
                            {
                                "children": [
                                    {
                                        "children": [],
                                        "depth": 2,
                                        "id": 4,
                                        "order": 4
                                    }
                                ],
                                "depth": 1,
                                "id": 3,
                                "order": 3
                            },
                            {
                                "children": [],
                                "depth": 1,
                                "id": 5,
                                "order": 5
                            }
                        ],
                        "depth": 0,
                        "id": 0,
                        "order": 0
                    }
                ],
                "depth": -1,
                "id": -1,
                "order": -1
            }
        ],
        "tidyTraceNodeCount": 6
    },
    "state_change": {
        "stateChanges": [
            {
                "address": "0xceec7aaa57e3a77c73a9954b9b7d5b32ab688318",
                "erc": "",
                "slots": [
                    {
                        "current": "0x0000000000000000000000000000000000000000000000000000000000000001",
                        "key": "0xb2eaca8002a75ffc104b69f3ca9913e55e68fc56ccc638dec78438de1a32e91d",
                        "prev": "0x0000000000000000000000000000000000000000000000000000000000000000"
                    },
                    {
                        "current": "0x0000000000000000000000000000000000000000000000000000000000000001",
                        "key": "0x11677be4cd0212d190c7ebd9b8be3b644f188abdbad62aa8eb1294b69de80a61",
                        "prev": "0x0000000000000000000000000000000000000000000000000000000000000000"
                    }
                ],
                "storageVariables": [
                    {
                        "name": "usedSignatures",
                        "type": "mapping(bytes32 => bool)",
                        "value": {
                            "pairs": [
                                {
                                    "key": "0x289ede9983a2997e92e6a061f6d60833a4280fdc9fad8382960f7414c7bfd35d",
                                    "value": {
                                        "current": "true",
                                        "prev": "false",
                                        "typeTag": 1
                                    }
                                },
                                {
                                    "key": "0x6e71f10dc5784637b34885495d56c70a7e90a395bd16807ef027b0db4141a171",
                                    "value": {
                                        "current": "true",
                                        "prev": "false",
                                        "typeTag": 1
                                    }
                                }
                            ],
                            "typeTag": 4
                        }
                    }
                ]
            }
        ]
    }
}