{
    "balance_change": {
        "balanceChanges": [
            {
                "account": "0x13d2ac2ad13b7bbe14d32bcc4408a4ac05d5cc69",
                "assets": [
                    {
                        "address": "0x967da4048cd07ab37855c090aaf366e4ce1b9f48",
                        "amount": "1,176",
                        "iconUrl": "https://assets.blocksec.com/icon/d04f3c1fedb0e68f6cad4aa54211b27acced2b1974dd8e4a30988d3bae166079.png",
                        "isERC1155": false,
                        "isERC721": false,
                        "sign": false,
                        "value": "591.8807999999999643"
                    }
                ]
            },
            {
                "account": "0x28c6c06298d514db089934071355e5743bf21d60",
                "assets": [
                    {
                        "address": "0x967da4048cd07ab37855c090aaf366e4ce1b9f48",
                        "amount": "1,176",
                        "iconUrl": "https://assets.blocksec.com/icon/d04f3c1fedb0e68f6cad4aa54211b27acced2b1974dd8e4a30988d3bae166079.png",
                        "isERC1155": false,
                        "isERC721": false,
                        "sign": true,
                        "value": "591.8807999999999643"
                    }
                ]
            }
        ]
    },
    "profile": {
        "basic_info": {
            "baseFee": "3.716337804",
            "blockNumber": 20269240,
            "callData": "0xa9059cbb00000000000000000000000028c6c06298d514db089934071355e5743bf21d6000000000000000000000000000000000000000000000003fc0474948f3600000",
            "debugEnable": true,
            "errorInfo": "",
            "eventCount": 1,
            "feeRecipient": "0x95222290dd7278aa3ddd389cc1e1d165cc4bafe5",
            "formatValue": "0",
            "gasLimit": 50024,
            "gasPrice": "5",
            "gasUsed": 36886,
            "intTxnCount": 0,
            "internalRevert": false,
            "internalRevertMessage": "",
            "isContractCreation": false,
            "isFlashloan": false,
            "maxFee": "5",
            "nonce": 0,
            "overwritedBlockNumber": -1,
            "priorityFee": "2",
            "receiver": "0x967da4048cd07ab37855c090aaf366e4ce1b9f48",
            "revertMessage": "",
            "sender": "0x13d2ac2ad13b7bbe14d32bcc4408a4ac05d5cc69",
            "simulationEnable": true,
            "sourceTxnHash": "0x4d1ca67751d224f3c5f047fb233f14eeb48473217df2eba8786f4de24495b503",
            "status": true,
            "timestamp": "2024-07-09T13:30:11Z",
            "transactionFee": "0.00018443",
            "txnHash": "0x4d1ca67751d224f3c5f047fb233f14eeb48473217df2eba8786f4de24495b503",
            "txnIndex": 146,
            "type": 2,
            "value": "0"
        },
        "fund_flow": [
            {
                "amount": "1,176",
                "from": "0x13d2ac2ad13b7bbe14d32bcc4408a4ac05d5cc69",
                "id": 1,
                "isERC1155": false,
                "isERC721": false,
                "isReverted": false,
                "order": 1,
                "to": "0x28c6c06298d514db089934071355e5743bf21d60",
                "token": "0x967da4048cd07ab37855c090aaf366e4ce1b9f48"
            }
        ],
        "token_infos": [
            {
                "address": "0xeeeeeeeeeeeeeeeeeeeeeeeeeeeeeeeeeeeeeeee",
                "decimals": 18
            },
            {
                "address": "0x967da4048cd07ab37855c090aaf366e4ce1b9f48",
                "decimals": 18
            },
            {
                "address": "0xc02aaa39b223fe8d0a0e5c4f27ead9083c756cc2",
                "decimals": 18
            }
        ]
    },
    "address_label": {
        "labels": [
            {
                "address": "0x0000000000000000000000000000000000000001",
                "label": "Precompiled"
            },
            {
                "address": "0x0000000000000000000000000000000000000002",
                "label": "Precompiled"
            },
            {
                "address": "0x0000000000000000000000000000000000000003",
                "label": "Precompiled"
            },
            {
                "address": "0x0000000000000000000000000000000000000004",
                "label": "Precompiled"
            },
            {
                "address": "0xeeeeeeeeeeeeeeeeeeeeeeeeeeeeeeeeeeeeeeee",
                "label": "Ether"
            },
            {
                "address": "0x28c6c06298d514db089934071355e5743bf21d60",
                "label": "Binance 14"
            },
            {
                "address": "0x967da4048cd07ab37855c090aaf366e4ce1b9f48",
                "label": "Ocean Protocol: OCEAN Token"
            }
        ]
    },
    "trace": {
        "accountLabels": null,
        "dataMap": {
            "-1": {
                "invocation": {
                    "address": "0x13d2ac2ad13b7bbe14d32bcc4408a4ac05d5cc69",
                    "callData": "",
                    "decodedMethod": null,
                    "errorInfo": "",
                    "fromAddress": "",
                    "gasUsed": 0,
                    "id": -1,
                    "methodDecoded": false,
                    "operation": "",
                    "output": "",
                    "revert": false,
                    "revertMessage": "",
                    "selector": "",
                    "status": false,
                    "value": ""
                },
                "nodeType": 0
            },
            "0": {
                "invocation": {
                    "address": "0x967da4048cd07ab37855c090aaf366e4ce1b9f48",
                    "callData": "0x00000000000000000000000028c6c06298d514db089934071355e5743bf21d6000000000000000000000000000000000000000000000003fc0474948f3600000",
                    "decodedMethod": {
                        "callParams": [
                            {
                                "name": "_to",
                                "type": "address",
                                "value": "0x28c6c06298d514db089934071355e5743bf21d60"
                            },
                            {
                                "decimalAvailable": true,
                                "name": "_value",
                                "type": "uint256",
                                "value": "1,176,000,000,000,000,000,000"
                            }
                        ],
                        "constructorArguments": "",
                        "name": "transfer",
                        "returnParams": [
                            {
                                "name": "",
                                "type": "bool",
                                "value": true
                            }
                        ],
                        "signature": "transfer(address,uint256)"
                    },
                    "errorInfo": "",
                    "fromAddress": "0x13d2ac2ad13b7bbe14d32bcc4408a4ac05d5cc69",
                    "gasUsed": 36886,
                    "id": 0,
                    "methodDecoded": true,
                    "operation": "CALL",
                    "output": "0x0000000000000000000000000000000000000000000000000000000000000001",
                    "revert": false,
                    "revertMessage": "",
                    "selector": "0xa9059cbb",
                    "status": true,
                    "value": "0"
                },
                "nodeType": 0
            },
            "1": {
                "event": {
                    "contract": "0x967da4048cd07ab37855c090aaf366e4ce1b9f48",
                    "decodedLog": {
                        "name": "Transfer",
                        "params": [
                            {
                                "name": "from",
                                "type": "address",
                                "value": "0x13d2ac2ad13b7bbe14d32bcc4408a4ac05d5cc69"
                            },
                            {
                                "name": "to",
                                "type": "address",
                                "value": "0x28c6c06298d514db089934071355e5743bf21d60"
                            },
                            {
                                "decimalAvailable": true,
                                "name": "value",
                                "type": "uint256",
                                "value": "1,176,000,000,000,000,000,000"
                            }
                        ],
                        "signature": "Transfer(address,address,uint256)"
                    },
                    "id": 1,
                    "logData": "0x00000000000000000000000000000000000000000000003fc0474948f3600000",
                    "logDecoded": true,
                    "operation": "EVENT",
                    "revert": false,
                    "status": true,
                    "topics": [
                        "0xddf252ad1be2c89b69c2b068fc378daa952ba7f163c4a11628f55a4df523b3ef",
                        "0x00000000000000000000000013d2ac2ad13b7bbe14d32bcc4408a4ac05d5cc69",
                        "0x00000000000000000000000028c6c06298d514db089934071355e5743bf21d60"
                    ]
                },
                "nodeType": 1
            }
        },
        "gasFlame": [
            {
                "children": [
                    {
                        "children": [
                            {
                                "children": [],
                                "depth": 0,
                                "name": "Initial Gas",
                                "value": 21644
                            },
                            {
                                "children": [],
                                "depth": 0,
                                "name": "Executed Gas",
                                "value": 20042
                            }
                        ],
                        "depth": -1,
                        "name": "Actual Gas Used",
                        "value": 36886
                    },
                    {
                        "children": [],
                        "depth": -1,
                        "name": "Refunded Gas",
                        "value": 4800
                    }
                ],
                "depth": -2,
                "name": "Total Gas",
                "value": 41686
            }
        ],
        "isConfirmed": true,
        "mainTrace": [
            {
                "children": [
                    {
                        "children": [
                            {
                                "children": [],
                                "depth": 1,
                                "id": 1,
                                "order": 1
                            }
                        ],
                        "depth": 0,
                        "id": 0,
                        "order": 0
                    }
                ],
                "depth": -1,
                "id": -1,
                "order": -1
            }
        ],
        "mainTraceNodeCount": 2,
        "parentIdMap": {
            "0": -1,
            "1": 0
        },
        "tidyTrace": [
            {
                "children": [
                    {
                        "children": [
                            {
                                "children": [],
                                "depth": 1,
                                "id": 1,
                                "order": 1
                            }
                        ],
                        "depth": 0,
                        "id": 0,
                        "order": 0
                    }
                ],
                "depth": -1,
                "id": -1,
                "order": -1
            }
        ],
        "tidyTraceNodeCount": 2
    },
    "state_change": {
        "stateChanges": [
            {
                "address": "0x967da4048cd07ab37855c090aaf366e4ce1b9f48",
                "erc": "ERC-20",
                "slots": [
                    {
                        "current": "0x0000000000000000000000000000000000000000000000000000000000000000",
                        "key": "0xb9627f678829af0d25005af59143becf2d915cf4cb0f5f6406b8b6faeb8dad8a",
                        "prev": "0x00000000000000000000000000000000000000000000003fc0474948f3600000"
                    },
                    {
                        "current": "0x00000000000000000000000000000000000000000004826261964a2c490c9322",
                        "key": "0x83bdb921ef22306a5d1cd2076713b14c9c19f333dd4229674ec19884e7413404",
                        "prev": "0x000000000000000000000000000000000000000000048222a14f00e355ac9322"
                    }
                ],
                "storageVariables": [
                    {
                        "name": "_balances",
                        "type": "mapping(address => uint256)",
                        "value": {
                            "pairs": [
                                {
                                    "key": "0x13d2ac2ad13b7bbe14d32bcc4408a4ac05d5cc69",
                                    "value": {
                                        "current": "0",
                                        "prev": "1176000000000000000000",
                                        "typeTag": 1
                                    }
                                },
                                {
                                    "key": "0x28c6c06298d514db089934071355e5743bf21d60",
                                    "value": {
                                        "current": "5451425734040216362849058",
                                        "prev": "5450249734040216362849058",
                                        "typeTag": 1
                                    }
                                }
                            ],
                            "typeTag": 4
                        }
                    }
                ]
            }
        ]
    }
}