{
    "balance_change": {
        "balanceChanges": [
            {
                "account": "0x185ae85fd1875998ab7d6a81e1fa3a9049674afa",
                "assets": [
                    {
                        "address": "0x8fe19c447821b4cdcdd5012bca1b5469ca96d80d",
                        "amount": "10",
                        "iconUrl": "",
                        "isERC1155": false,
                        "isERC721": false,
                        "sign": false,
                        "value": ""
                    }
                ]
            },
            {
                "account": "0x9022a78192061d3d1048f10016050a3dc7339283",
                "assets": [
                    {
                        "address": "0x8fe19c447821b4cdcdd5012bca1b5469ca96d80d",
                        "amount": "10",
                        "iconUrl": "",
                        "isERC1155": false,
                        "isERC721": false,
                        "sign": true,
                        "value": ""
                    }
                ]
            }
        ]
    },
    "profile": {
        "basic_info": {
            "baseFee": "",
            "blockNumber": 5349869,
            "callData": "0x411cc7910000000000000000000000009022a78192061d3d1048f10016050a3dc73392830000000000000000000000000000000000000000000000008ac7230489e80000000000000000000000000000000000000000000000000000000000000000000200000000000000000000000000000000000000000000000000000000000000000000000000000000000000000000000000000000000000000000000000000000",
            "debugEnable": true,
            "errorInfo": "",
            "eventCount": 2,
            "feeRecipient": "0x5a0b54d5dc17e0aadc383d2db43b0a0d3e029c4c",
            "formatValue": "0",
            "gasLimit": 200000,
            "gasPrice": "2",
            "gasUsed": 109816,
            "intTxnCount": 1,
            "internalRevert": false,
            "internalRevertMessage": "",
            "isContractCreation": false,
            "isFlashloan": false,
            "maxFee": "",
            "nonce": 7,
            "overwritedBlockNumber": -1,
            "priorityFee": "",
            "receiver": "0x8fe19c447821b4cdcdd5012bca1b5469ca96d80d",
            "revertMessage": "",
            "sender": "0x185ae85fd1875998ab7d6a81e1fa3a9049674afa",
            "simulationEnable": true,
            "sourceTxnHash": "0x4dc91fe9e50923318f33dd5ffd46eb3f8124f483ce85f3b9be01b195537b706f",
            "status": true,
            "timestamp": "2018-03-30T16:25:50Z",
            "transactionFee": "0.000219632",
            "txnHash": "0x4dc91fe9e50923318f33dd5ffd46eb3f8124f483ce85f3b9be01b195537b706f",
            "txnIndex": 132,
            "type": 0,
            "value": "0"
        },
        "fund_flow": [
            {
                "amount": "10",
                "from": "0x185ae85fd1875998ab7d6a81e1fa3a9049674afa",
                "id": 1,
                "isERC1155": false,
                "isERC721": false,
                "isReverted": false,
                "order": 1,
                "to": "0x9022a78192061d3d1048f10016050a3dc7339283",
                "token": "0x8fe19c447821b4cdcdd5012bca1b5469ca96d80d"
            }
        ],
        "token_infos": [
            {
                "address": "0x8fe19c447821b4cdcdd5012bca1b5469ca96d80d",
                "decimals": 18
            },
            {
                "address": "0xc02aaa39b223fe8d0a0e5c4f27ead9083c756cc2",
                "decimals": 18
            },
            {
                "address": "0xeeeeeeeeeeeeeeeeeeeeeeeeeeeeeeeeeeeeeeee",
                "decimals": 18
            }
        ]
    },
    "address_label": {
        "labels": [
            {
                "address": "0x0000000000000000000000000000000000000001",
                "label": "Precompiled"
            },
            {
                "address": "0x0000000000000000000000000000000000000002",
                "label": "Precompiled"
            },
            {
                "address": "0x0000000000000000000000000000000000000003",
                "label": "Precompiled"
            },
            {
                "address": "0x0000000000000000000000000000000000000004",
                "label": "Precompiled"
            },
            {
                "address": "0xeeeeeeeeeeeeeeeeeeeeeeeeeeeeeeeeeeeeeeee",
                "label": "Ether"
            },
            {
                "address": "0x8fe19c447821b4cdcdd5012bca1b5469ca96d80d",
                "label": "ETH.TOWN Token (ETIT)"
            },
            {
                "address": "0x9022a78192061d3d1048f10016050a3dc7339283",
                "label": "CauldronsMinigamePresale"
            }
        ]
    },
    "trace": {
        "accountLabels": null,
        "dataMap": {
            "-1": {
                "invocation": {
                    "address": "0x185ae85fd1875998ab7d6a81e1fa3a9049674afa",
                    "callData": "",
                    "decodedMethod": null,
                    "errorInfo": "",
                    "fromAddress": "",
                    "gasUsed": 0,
                    "id": -1,
                    "methodDecoded": false,
                    "operation": "",
                    "output": "",
                    "revert": false,
                    "revertMessage": "",
                    "selector": "",
                    "status": false,
                    "value": ""
                },
                "nodeType": 0
            },
            "0": {
                "invocation": {
                    "address": "0x8fe19c447821b4cdcdd5012bca1b5469ca96d80d",
                    "callData": "0x0000000000000000000000009022a78192061d3d1048f10016050a3dc73392830000000000000000000000000000000000000000000000008ac7230489e80000000000000000000000000000000000000000000000000000000000000000000200000000000000000000000000000000000000000000000000000000000000000000000000000000000000000000000000000000000000000000000000000000",
                    "decodedMethod": {
                        "callParams": [
                            {
                                "name": "_to",
                                "type": "address",
                                "value": "0x9022a78192061d3d1048f10016050a3dc7339283"
                            },
                            {
                                "name": "_value",
                                "type": "uint256",
                                "value": "10,000,000,000,000,000,000"
                            },
                            {
                                "name": "_param1",
                                "type": "uint256",
                                "value": "2"
                            },
                            {
                                "name": "_param2",
                                "type": "uint256",
                                "value": "0"
                            },
                            {
                                "name": "_param3",
                                "type": "uint256",
                                "value": "0"
                            }
                        ],
                        "constructorArguments": "",
                        "name": "transferWithParams",
                        "returnParams": [
                            {
                                "name": "",
                                "type": "bool",
                                "value": true
                            }
                        ],
                        "signature": "transferWithParams(address,uint256,uint256,uint256,uint256)"
                    },
                    "errorInfo": "",
                    "fromAddress": "0x185ae85fd1875998ab7d6a81e1fa3a9049674afa",
                    "gasUsed": 109816,
                    "id": 0,
                    "methodDecoded": true,
                    "operation": "CALL",
                    "output": "0x0000000000000000000000000000000000000000000000000000000000000001",
                    "revert": false,
                    "revertMessage": "",
                    "selector": "0x411cc791",
                    "status": true,
                    "value": "0"
                },
                "nodeType": 0
            },
            "1": {
                "event": {
                    "contract": "0x8fe19c447821b4cdcdd5012bca1b5469ca96d80d",
                    "decodedLog": {
                        "name": "Transfer",
                        "params": [
                            {
                                "name": "from",
                                "type": "address",
                                "value": "0x185ae85fd1875998ab7d6a81e1fa3a9049674afa"
                            },
                            {
                                "name": "to",
                                "type": "address",
                                "value": "0x9022a78192061d3d1048f10016050a3dc7339283"
                            },
                            {
                                "decimalAvailable": true,
                                "name": "value",
                                "type": "uint256",
                                "value": "10,000,000,000,000,000,000"
                            }
                        ],
                        "signature": "Transfer(address,address,uint256)"
                    },
                    "id": 1,
                    "logData": "0x0000000000000000000000000000000000000000000000008ac7230489e80000",
                    "logDecoded": true,
                    "operation": "EVENT",
                    "revert": false,
                    "status": true,
                    "topics": [
                        "0xddf252ad1be2c89b69c2b068fc378daa952ba7f163c4a11628f55a4df523b3ef",
                        "0x000000000000000000000000185ae85fd1875998ab7d6a81e1fa3a9049674afa",
                        "0x0000000000000000000000009022a78192061d3d1048f10016050a3dc7339283"
                    ]
                },
                "nodeType": 1
            },
            "2": {
                "invocation": {
                    "address": "0x9022a78192061d3d1048f10016050a3dc7339283",
                    "callData": "0x000000000000000000000000185ae85fd1875998ab7d6a81e1fa3a9049674afa0000000000000000000000000000000000000000000000008ac7230489e80000000000000000000000000000000000000000000000000000000000000000000200000000000000000000000000000000000000000000000000000000000000000000000000000000000000000000000000000000000000000000000000000000",
                    "decodedMethod": {
                        "callParams": [
                            {
                                "name": "_from",
                                "type": "address",
                                "value": "0x185ae85fd1875998ab7d6a81e1fa3a9049674afa"
                            },
                            {
                                "name": "_value",
                                "type": "uint256",
                                "value": "10,000,000,000,000,000,000"
                            },
                            {
                                "name": "_cauldronId",
                                "type": "uint256",
                                "value": "2"
                            },
                            {
                                "name": "",
                                "type": "uint256",
                                "value": "0"
                            },
                            {
                                "name": "",
                                "type": "uint256",
                                "value": "0"
                            }
                        ],
                        "constructorArguments": "",
                        "name": "acceptTokens",
                        "returnParams": [],
                        "signature": "acceptTokens(address,uint256,uint256,uint256,uint256)"
                    },
                    "errorInfo": "",
                    "fromAddress": "0x8fe19c447821b4cdcdd5012bca1b5469ca96d80d",
                    "gasUsed": 69996,
                    "id": 2,
                    "methodDecoded": true,
                    "operation": "CALL",
                    "output": "",
                    "revert": false,
                    "revertMessage": "",
                    "selector": "0x9c908f61",
                    "status": true,
                    "value": "0"
                },
                "nodeType": 0
            },
            "3": {
                "event": {
                    "contract": "0x9022a78192061d3d1048f10016050a3dc7339283",
                    "decodedLog": {
                        "name": "Contribution",
                        "params": [
                            {
                                "name": "from",
                                "type": "address",
                                "value": "0x185ae85fd1875998ab7d6a81e1fa3a9049674afa"
                            },
                            {
                                "name": "value",
                                "type": "uint256",
                                "value": "10,000,000,000,000,000,000"
                            },
                            {
                                "name": "cauldronId",
                                "type": "uint8",
                                "value": "2"
                            },
                            {
                                "name": "round",
                                "type": "uint32",
                                "value": "4"
                            }
                        ],
                        "signature": "Contribution(address,uint256,uint8,uint32)"
                    },
                    "id": 3,
                    "logData": "0x0000000000000000000000000000000000000000000000008ac7230489e8000000000000000000000000000000000000000000000000000000000000000000020000000000000000000000000000000000000000000000000000000000000004",
                    "logDecoded": true,
                    "operation": "EVENT",
                    "revert": false,
                    "status": true,
                    "topics": [
                        "0x721c3710ca0082eeb491c73364459555744cac001ee81a88a2c468f49c4506d7",
                        "0x000000000000000000000000185ae85fd1875998ab7d6a81e1fa3a9049674afa"
                    ]
                },
                "nodeType": 1
            }
        },
        "gasFlame": [
            {
                "children": [
                    {
                        "children": [
                            {
                                "children": [],
                                "depth": 0,
                                "name": "Initial Gas",
                                "value": 23576
                            },
                            {
                                "children": [
                                    {
                                        "children": [],
                                        "depth": 1,
                                        "name": "acceptTokens",
                                        "value": 69996
                                    }
                                ],
                                "depth": 0,
                                "name": "Executed Gas",
                                "value": 86240
                            }
                        ],
                        "depth": -1,
                        "name": "Actual Gas Used",
                        "value": 109816
                    },
                    {
                        "children": [],
                        "depth": -1,
                        "name": "Refunded Gas",
                        "value": 0
                    }
                ],
                "depth": -2,
                "name": "Total Gas",
                "value": 109816
            }
        ],
        "isConfirmed": true,
        "mainTrace": [
            {
                "children": [
                    {
                        "children": [
                            {
                                "children": [],
                                "depth": 1,
                                "id": 1,
                                "order": 1
                            },
                            {
                                "children": [
                                    {
                                        "children": [],
                                        "depth": 2,
                                        "id": 3,
                                        "order": 3
                                    }
                                ],
                                "depth": 1,
                                "id": 2,
                                "order": 2
                            }
                        ],
                        "depth": 0,
                        "id": 0,
                        "order": 0
                    }
                ],
                "depth": -1,
                "id": -1,
                "order": -1
            }
        ],
        "mainTraceNodeCount": 4,
        "parentIdMap": {
            "0": -1,
            "1": 0,
            "2": 0,
            "3": 2
        },
        "tidyTrace": [
            {
                "children": [
                    {
                        "children": [
                            {
                                "children": [],
                                "depth": 1,
                                "id": 1,
                                "order": 1
                            },
                            {
                                "children": [
                                    {
                                        "children": [],
                                        "depth": 2,
                                        "id": 3,
                                        "order": 3
                                    }
                                ],
                                "depth": 1,
                                "id": 2,
                                "order": 2
                            }
                        ],
                        "depth": 0,
                        "id": 0,
                        "order": 0
                    }
                ],
                "depth": -1,
                "id": -1,
                "order": -1
            }
        ],
        "tidyTraceNodeCount": 4
    },
    "state_change": {
        "stateChanges": [
            {
                "address": "0x8fe19c447821b4cdcdd5012bca1b5469ca96d80d",
                "erc": "ERC-20",
                "slots": [
                    {
                        "current": "0x0000000000000000000000000000000000000000000000107e843c03510e1c00",
                        "key": "0x89e65a0383f32b62784cbdc988d877be8cfb327faa9b9022ce452908633d2d93",
                        "prev": "0x000000000000000000000000000000000000000000000011094b5f07daf61c00"
                    },
                    {
                        "current": "0x00000000000000000000000000000000000000000000000dbe4bf8cb21080000",
                        "key": "0x8f99deeb2e014aacd088c6e8233c26486a0cf07ebc3905d6e17e724273a2d9d3",
                        "prev": "0x00000000000000000000000000000000000000000000000d3384d5c697200000"
                    }
                ],
                "storageVariables": [
                    {
                        "name": "balances",
                        "type": "mapping(address => uint256)",
                        "value": {
                            "pairs": [
                                {
                                    "key": "0x185ae85fd1875998ab7d6a81e1fa3a9049674afa",
                                    "value": {
                                        "current": "304264382710000000000",
                                        "prev": "314264382710000000000",
                                        "typeTag": 1
                                    }
                                },
                                {
                                    "key": "0x9022a78192061d3d1048f10016050a3dc7339283",
                                    "value": {
                                        "current": "253520000000000000000",
                                        "prev": "243520000000000000000",
                                        "typeTag": 1
                                    }
                                }
                            ],
                            "typeTag": 4
                        }
                    }
                ]
            },
            {
                "address": "0x9022a78192061d3d1048f10016050a3dc7339283",
                "erc": "",
                "slots": [
                    {
                        "current": "0x000000000000000000000000185ae85fd1875998ab7d6a81e1fa3a9049674afa",
                        "key": "0xa02b716b9b621a8139810904030336e9db980fc9d4840738c4ffbe9d13677b46",
                        "prev": "0x0000000000000000000000000000000000000000000000000000000000000000"
                    },
                    {
                        "current": "0x0000000000000000000000000000000000000000000000000000000000000002",
                        "key": "0x91da3fd0782e51c6b3986e9e672fd566868e71f3dbc2d6c2cd6fbb3e361af2ab",
                        "prev": "0x0000000000000000000000000000000000000000000000000000000000000001"
                    },
                    {
                        "current": "0x0000000000000000000000000000000000000000000000008ac7230489e80000",
                        "key": "0xc8e06e1afae29b3eff02fdffae947e28d237058168280b77bafae98b10206ae5",
                        "prev": "0x0000000000000000000000000000000000000000000000000000000000000000"
                    },
                    {
                        "current": "0x00000000000000000000000000000000000000000000000098a7d9b8314c0000",
                        "key": "0x91da3fd0782e51c6b3986e9e672fd566868e71f3dbc2d6c2cd6fbb3e361af2ad",
                        "prev": "0x0000000000000000000000000000000000000000000000000de0b6b3a7640000"
                    },
                    {
                        "current": "0x000000000000000000000000185ae85fd1875998ab7d6a81e1fa3a9049674afa",
                        "key": "0x91da3fd0782e51c6b3986e9e672fd566868e71f3dbc2d6c2cd6fbb3e361af2ae",
                        "prev": "0x00000000000000000000000080f1fa8cb7edbef7ded85729bf26057e17e42a1e"
                    },
                    {
                        "current": "0x0000000000000000000000000000000000000000000000000000000000000002",
                        "key": "0xc5c928ef4a3914cfae7099473c2709c673c5bf61b018209f05129235e0d5e9da",
                        "prev": "0x0000000000000000000000000000000000000000000000000000000000000001"
                    }
                ],
                "storageVariables": [
                    {
                        "name": "cauldrons",
                        "type": "mapping(uint8 => struct CauldronsMinigamePresale.Cauldron)",
                        "value": {
                            "pairs": [
                                {
                                    "key": "2",
                                    "value": {
                                        "fields": [
                                            {
                                                "name": "contributors",
                                                "type": "mapping(uint32 => address[])",
                                                "value": {
                                                    "pairs": [
                                                        {
                                                            "key": "4",
                                                            "value": {
                                                                "elemType": "address",
                                                                "elems": [
                                                                    {
                                                                        "index": 1,
                                                                        "value": {
                                                                            "current": "0x185ae85fd1875998ab7d6a81e1fa3a9049674afa",
                                                                            "prev": "0x0000000000000000000000000000000000000000",
                                                                            "typeTag": 1
                                                                        }
                                                                    }
                                                                ],
                                                                "typeTag": 2
                                                            }
                                                        }
                                                    ],
                                                    "typeTag": 4
                                                }
                                            },
                                            {
                                                "name": "contributorsCount",
                                                "type": "uint32",
                                                "value": {
                                                    "current": "2",
                                                    "prev": "1",
                                                    "typeTag": 1
                                                }
                                            },
                                            {
                                                "name": "contributions",
                                                "type": "mapping(uint32 => mapping(address => uint256))",
                                                "value": {
                                                    "pairs": [
                                                        {
                                                            "key": "4",
                                                            "value": {
                                                                "pairs": [
                                                                    {
                                                                        "key": "0x185ae85fd1875998ab7d6a81e1fa3a9049674afa",
                                                                        "value": {
                                                                            "current": "10000000000000000000",
                                                                            "prev": "0",
                                                                            "typeTag": 1
                                                                        }
                                                                    }
                                                                ],
                                                                "typeTag": 4
                                                            }
                                                        }
                                                    ],
                                                    "typeTag": 4
                                                }
                                            },
                                            {
                                                "name": "totalContribution",
                                                "type": "uint256",
                                                "value": {
                                                    "current": "11000000000000000000",
                                                    "prev": "1000000000000000000",
                                                    "typeTag": 1
                                                }
                                            },
                                            {
                                                "name": "topContributor",
                                                "type": "address",
                                                "value": {
                                                    "current": "0x185ae85fd1875998ab7d6a81e1fa3a9049674afa",
                                                    "prev": "0x80f1fa8cb7edbef7ded85729bf26057e17e42a1e",
                                                    "typeTag": 1
                                                }
                                            }
                                        ],
                                        "typeTag": 3
                                    }
                                }
                            ],
                            "typeTag": 4
                        }
                    }
                ]
            }
        ]
    }
}