{
    "balance_change": {
        "balanceChanges": []
    },
    "profile": {
        "basic_info": {
            "baseFee": "",
            "blockNumber": 4645137,
            "callData": "0x278b8c0e0000000000000000000000000000000000000000000000000000000000000000000000000000000000000000000000000000000000000000382d628d82c800000000000000000000000000007b22938ca841aa392c93dbb7f4c42178e3d65e880000000000000000000000000000000000000000000000000000000000989680000000000000000000000000000000000000000000000000000000000047018c000000000000000000000000000000000000000000000000000000004c2efdc6000000000000000000000000000000000000000000000000000000000000001c5edf985ef9999e15b0fc79a6c7e23c829c532e29fb94bcc380f1a2a9bc2aa5fb6d1a84439c81a723f9c1603d7fe473c2c7b27ed26a5741219ab0fbf125a00e05",
            "debugEnable": true,
            "errorInfo": "",
            "eventCount": 1,
            "feeRecipient": "0xea674fdde714fd979de3edf0f56aa9716b898ec8",
            "formatValue": "0",
            "gasLimit": 250000,
            "gasPrice": "6",
            "gasUsed": 44034,
            "intTxnCount": 2,
            "internalRevert": false,
            "internalRevertMessage": "",
            "isContractCreation": false,
            "isFlashloan": false,
            "maxFee": "",
            "nonce": 7745,
            "overwritedBlockNumber": -1,
            "priorityFee": "",
            "receiver": "0x8d12a197cb00d4747a1fe03395095ce2a5cc6819",
            "revertMessage": "",
            "sender": "0xda896bd9e964386f7343414a646c8ef75d5ae009",
            "simulationEnable": true,
            "sourceTxnHash": "0x4dc4220e2167d4046d9c1796baff833e23d63f0b4df4925ff7c2842b99f0c7c0",
            "status": true,
            "timestamp": "2017-11-29T17:26:59Z",
            "transactionFee": "0.000264204",
            "txnHash": "0x4dc4220e2167d4046d9c1796baff833e23d63f0b4df4925ff7c2842b99f0c7c0",
            "txnIndex": 75,
            "type": 0,
            "value": "0"
        },
        "fund_flow": [],
        "token_infos": [
            {
                "address": "0xc02aaa39b223fe8d0a0e5c4f27ead9083c756cc2",
                "decimals": 18
            },
            {
                "address": "0xeeeeeeeeeeeeeeeeeeeeeeeeeeeeeeeeeeeeeeee",
                "decimals": 18
            }
        ]
    },
    "address_label": {
        "labels": [
            {
                "address": "0xeeeeeeeeeeeeeeeeeeeeeeeeeeeeeeeeeeeeeeee",
                "label": "Ether"
            },
            {
                "address": "0x7b22938ca841aa392c93dbb7f4c42178e3d65e88",
                "label": "Astronaut Capital: ASTRO Token"
            },
            {
                "address": "0x8d12a197cb00d4747a1fe03395095ce2a5cc6819",
                "label": "EtherDelta"
            },
            {
                "address": "0x0000000000000000000000000000000000000002",
                "label": "Precompiled"
            },
            {
                "address": "0x0000000000000000000000000000000000000000",
                "label": "Null Address"
            },
            {
                "address": "0x0000000000000000000000000000000000000001",
                "label": "Precompiled"
            },
            {
                "address": "0x0000000000000000000000000000000000000003",
                "label": "Precompiled"
            },
            {
                "address": "0x0000000000000000000000000000000000000004",
                "label": "Precompiled"
            }
        ]
    },
    "trace": {
        "accountLabels": null,
        "dataMap": {
            "-1": {
                "invocation": {
                    "address": "0xda896bd9e964386f7343414a646c8ef75d5ae009",
                    "callData": "",
                    "decodedMethod": null,
                    "errorInfo": "",
                    "fromAddress": "",
                    "gasUsed": 0,
                    "id": -1,
                    "methodDecoded": false,
                    "operation": "",
                    "output": "",
                    "revert": false,
                    "revertMessage": "",
                    "selector": "",
                    "status": false,
                    "value": ""
                },
                "nodeType": 0
            },
            "0": {
                "invocation": {
                    "address": "0x8d12a197cb00d4747a1fe03395095ce2a5cc6819",
                    "callData": "0x0000000000000000000000000000000000000000000000000000000000000000000000000000000000000000000000000000000000000000382d628d82c800000000000000000000000000007b22938ca841aa392c93dbb7f4c42178e3d65e880000000000000000000000000000000000000000000000000000000000989680000000000000000000000000000000000000000000000000000000000047018c000000000000000000000000000000000000000000000000000000004c2efdc6000000000000000000000000000000000000000000000000000000000000001c5edf985ef9999e15b0fc79a6c7e23c829c532e29fb94bcc380f1a2a9bc2aa5fb6d1a84439c81a723f9c1603d7fe473c2c7b27ed26a5741219ab0fbf125a00e05",
                    "decodedMethod": {
                        "callParams": [
                            {
                                "name": "tokenGet",
                                "type": "address",
                                "value": "0x0000000000000000000000000000000000000000"
                            },
                            {
                                "name": "amountGet",
                                "type": "uint256",
                                "value": "4,048,000,000,000,000,000"
                            },
                            {
                                "name": "tokenGive",
                                "type": "address",
                                "value": "0x7b22938ca841aa392c93dbb7f4c42178e3d65e88"
                            },
                            {
                                "name": "amountGive",
                                "type": "uint256",
                                "value": "10,000,000"
                            },
                            {
                                "name": "expires",
                                "type": "uint256",
                                "value": "4,653,452"
                            },
                            {
                                "name": "nonce",
                                "type": "uint256",
                                "value": "1,278,148,038"
                            },
                            {
                                "name": "v",
                                "type": "uint8",
                                "value": "28"
                            },
                            {
                                "name": "r",
                                "type": "bytes32",
                                "value": "0x5edf985ef9999e15b0fc79a6c7e23c829c532e29fb94bcc380f1a2a9bc2aa5fb"
                            },
                            {
                                "name": "s",
                                "type": "bytes32",
                                "value": "0x6d1a84439c81a723f9c1603d7fe473c2c7b27ed26a5741219ab0fbf125a00e05"
                            }
                        ],
                        "constructorArguments": "",
                        "name": "cancelOrder",
                        "returnParams": [],
                        "signature": "cancelOrder(address,uint256,address,uint256,uint256,uint256,uint8,bytes32,bytes32)"
                    },
                    "errorInfo": "",
                    "fromAddress": "0xda896bd9e964386f7343414a646c8ef75d5ae009",
                    "gasUsed": 44034,
                    "id": 0,
                    "methodDecoded": true,
                    "operation": "CALL",
                    "output": "",
                    "revert": false,
                    "revertMessage": "",
                    "selector": "0x278b8c0e",
                    "status": true,
                    "value": "0"
                },
                "nodeType": 0
            },
            "1": {
                "invocation": {
                    "address": "0x0000000000000000000000000000000000000002",
                    "callData": "0xcb00d4747a1fe03395095ce2a5cc68190000000000000000000000000000000000000000000000000000000000000000000000000000000000000000382d628d82c800007b22938ca841aa392c93dbb7f4c42178e3d65e880000000000000000000000000000000000000000000000000000000000989680000000000000000000000000000000000000000000000000000000000047018c000000000000000000000000000000000000000000000000000000004c2efdc6",
                    "decodedMethod": {
                        "callParams": [
                            {
                                "name": "data",
                                "type": "bytes",
                                "value": "0x8d12a197cb00d4747a1fe03395095ce2a5cc68190000000000000000000000000000000000000000000000000000000000000000000000000000000000000000382d628d82c800007b22938ca841aa392c93dbb7f4c42178e3d65e880000000000000000000000000000000000000000000000000000000000989680000000000000000000000000000000000000000000000000000000000047018c000000000000000000000000000000000000000000000000000000004c2efdc6"
                            }
                        ],
                        "constructorArguments": "",
                        "name": "sha256hash",
                        "returnParams": [
                            {
                                "name": "hash",
                                "type": "bytes32",
                                "value": "0x600f9ae1204249ee79355c5fb038ba7aebdba456af84ceb4920cb34053cde4e7"
                            }
                        ],
                        "signature": "sha256hash(bytes)"
                    },
                    "errorInfo": "",
                    "fromAddress": "0x8d12a197cb00d4747a1fe03395095ce2a5cc6819",
                    "gasUsed": 132,
                    "id": 1,
                    "methodDecoded": true,
                    "operation": "CALL",
                    "output": "0x600f9ae1204249ee79355c5fb038ba7aebdba456af84ceb4920cb34053cde4e7",
                    "revert": false,
                    "revertMessage": "",
                    "selector": "0x8d12a197",
                    "status": true,
                    "value": "0"
                },
                "nodeType": 0
            },
            "2": {
                "invocation": {
                    "address": "0x0000000000000000000000000000000000000001",
                    "callData": "0xdfa82e92dea2e309a4a751fd29f68053cccff3cdc45d0d71b54cfdb9000000000000000000000000000000000000000000000000000000000000001c5edf985ef9999e15b0fc79a6c7e23c829c532e29fb94bcc380f1a2a9bc2aa5fb6d1a84439c81a723f9c1603d7fe473c2c7b27ed26a5741219ab0fbf125a00e05",
                    "decodedMethod": {
                        "callParams": [
                            {
                                "name": "hash",
                                "type": "bytes32",
                                "value": "0x28d6f57bdfa82e92dea2e309a4a751fd29f68053cccff3cdc45d0d71b54cfdb9"
                            },
                            {
                                "name": "v",
                                "type": "uint256",
                                "value": "28"
                            },
                            {
                                "name": "r",
                                "type": "bytes32",
                                "value": "0x5edf985ef9999e15b0fc79a6c7e23c829c532e29fb94bcc380f1a2a9bc2aa5fb"
                            },
                            {
                                "name": "s",
                                "type": "bytes32",
                                "value": "0x6d1a84439c81a723f9c1603d7fe473c2c7b27ed26a5741219ab0fbf125a00e05"
                            }
                        ],
                        "constructorArguments": "",
                        "name": "ecrecover",
                        "returnParams": [
                            {
                                "name": "",
                                "type": "address",
                                "value": "0xda896bd9e964386f7343414a646c8ef75d5ae009"
                            }
                        ],
                        "signature": "ecrecover(bytes32,uint256,bytes32,bytes32)"
                    },
                    "errorInfo": "",
                    "fromAddress": "0x8d12a197cb00d4747a1fe03395095ce2a5cc6819",
                    "gasUsed": 3000,
                    "id": 2,
                    "methodDecoded": true,
                    "operation": "CALL",
                    "output": "0x000000000000000000000000da896bd9e964386f7343414a646c8ef75d5ae009",
                    "revert": false,
                    "revertMessage": "",
                    "selector": "0x28d6f57b",
                    "status": true,
                    "value": "0"
                },
                "nodeType": 0
            },
            "3": {
                "event": {
                    "contract": "0x8d12a197cb00d4747a1fe03395095ce2a5cc6819",
                    "decodedLog": {
                        "name": "Cancel",
                        "params": [
                            {
                                "name": "tokenGet",
                                "type": "address",
                                "value": "0x0000000000000000000000000000000000000000"
                            },
                            {
                                "name": "amountGet",
                                "type": "uint256",
                                "value": "4,048,000,000,000,000,000"
                            },
                            {
                                "name": "tokenGive",
                                "type": "address",
                                "value": "0x7b22938ca841aa392c93dbb7f4c42178e3d65e88"
                            },
                            {
                                "name": "amountGive",
                                "type": "uint256",
                                "value": "10,000,000"
                            },
                            {
                                "name": "expires",
                                "type": "uint256",
                                "value": "4,653,452"
                            },
                            {
                                "name": "nonce",
                                "type": "uint256",
                                "value": "1,278,148,038"
                            },
                            {
                                "name": "user",
                                "type": "address",
                                "value": "0xda896bd9e964386f7343414a646c8ef75d5ae009"
                            },
                            {
                                "name": "v",
                                "type": "uint8",
                                "value": "28"
                            },
                            {
                                "name": "r",
                                "type": "bytes32",
                                "value": "0x5edf985ef9999e15b0fc79a6c7e23c829c532e29fb94bcc380f1a2a9bc2aa5fb"
                            },
                            {
                                "name": "s",
                                "type": "bytes32",
                                "value": "0x6d1a84439c81a723f9c1603d7fe473c2c7b27ed26a5741219ab0fbf125a00e05"
                            }
                        ],
                        "signature": "Cancel(address,uint256,address,uint256,uint256,uint256,address,uint8,bytes32,bytes32)"
                    },
                    "id": 3,
                    "logData": "0x0000000000000000000000000000000000000000000000000000000000000000000000000000000000000000000000000000000000000000382d628d82c800000000000000000000000000007b22938ca841aa392c93dbb7f4c42178e3d65e880000000000000000000000000000000000000000000000000000000000989680000000000000000000000000000000000000000000000000000000000047018c000000000000000000000000000000000000000000000000000000004c2efdc6000000000000000000000000da896bd9e964386f7343414a646c8ef75d5ae009000000000000000000000000000000000000000000000000000000000000001c5edf985ef9999e15b0fc79a6c7e23c829c532e29fb94bcc380f1a2a9bc2aa5fb6d1a84439c81a723f9c1603d7fe473c2c7b27ed26a5741219ab0fbf125a00e05",
                    "logDecoded": true,
                    "operation": "EVENT",
                    "revert": false,
                    "status": true,
                    "topics": [
                        "0x1e0b760c386003e9cb9bcf4fcf3997886042859d9b6ed6320e804597fcdb28b0"
                    ]
                },
                "nodeType": 1
            }
        },
        "gasFlame": [
            {
                "children": [
                    {
                        "children": [
                            {
                                "children": [],
                                "depth": 0,
                                "name": "Initial Gas",
                                "value": 28888
                            },
                            {
                                "children": [
                                    {
                                        "children": [],
                                        "depth": 1,
                                        "name": "sha256hash",
                                        "value": 132
                                    },
                                    {
                                        "children": [],
                                        "depth": 1,
                                        "name": "ecrecover",
                                        "value": 3000
                                    }
                                ],
                                "depth": 0,
                                "name": "Executed Gas",
                                "value": 15146
                            }
                        ],
                        "depth": -1,
                        "name": "Actual Gas Used",
                        "value": 44034
                    },
                    {
                        "children": [],
                        "depth": -1,
                        "name": "Refunded Gas",
                        "value": 0
                    }
                ],
                "depth": -2,
                "name": "Total Gas",
                "value": 44034
            }
        ],
        "isConfirmed": true,
        "mainTrace": [
            {
                "children": [
                    {
                        "children": [
                            {
                                "children": [],
                                "depth": 1,
                                "id": 1,
                                "order": 1
                            },
                            {
                                "children": [],
                                "depth": 1,
                                "id": 2,
                                "order": 2
                            },
                            {
                                "children": [],
                                "depth": 1,
                                "id": 3,
                                "order": 3
                            }
                        ],
                        "depth": 0,
                        "id": 0,
                        "order": 0
                    }
                ],
                "depth": -1,
                "id": -1,
                "order": -1
            }
        ],
        "mainTraceNodeCount": 4,
        "parentIdMap": {
            "0": -1,
            "1": 0,
            "2": 0,
            "3": 0
        },
        "tidyTrace": [
            {
                "children": [
                    {
                        "children": [
                            {
                                "children": [],
                                "depth": 1,
                                "id": 1,
                                "order": 1
                            },
                            {
                                "children": [],
                                "depth": 1,
                                "id": 2,
                                "order": 2
                            },
                            {
                                "children": [],
                                "depth": 1,
                                "id": 3,
                                "order": 3
                            }
                        ],
                        "depth": 0,
                        "id": 0,
                        "order": 0
                    }
                ],
                "depth": -1,
                "id": -1,
                "order": -1
            }
        ],
        "tidyTraceNodeCount": 4
    },
    "state_change": {
        "stateChanges": [
            {
                "address": "0x8d12a197cb00d4747a1fe03395095ce2a5cc6819",
                "erc": "",
                "slots": [
                    {
                        "current": "0x000000000000000000000000000000000000000000000000382d628d82c80000",
                        "key": "0x0cd67ecdb6721558d7df50bd3806b8da3703d139ddb8abdc3e6ae5adf83d6ff4",
                        "prev": "0x0000000000000000000000000000000000000000000000000999f6aee07a5efd"
                    }
                ],
                "storageVariables": []
            }
        ]
    }
}