{
    "balance_change": {
        "balanceChanges": [
            {
                "account": "0x15652636f3898f550b257b89926d5566821c32e1",
                "assets": [
                    {
                        "address": "0xc02aaa39b223fe8d0a0e5c4f27ead9083c756cc2",
                        "amount": "1.177011713005156833",
                        "iconUrl": "https://assets.blocksec.com/icon/f1cb2d02c471d545bbc7722daf3277fd852d98e63d118771af7047bd8256c516.png",
                        "isERC1155": false,
                        "isERC721": false,
                        "sign": false,
                        "value": "2007.6759593326200107"
                    }
                ]
            },
            {
                "account": "0x0c2c40f59d416d17879508fb977aabf05c7a51f6",
                "assets": [
                    {
                        "address": "0xeeeeeeeeeeeeeeeeeeeeeeeeeeeeeeeeeeeeeeee",
                        "amount": "1.177011713005156833",
                        "iconUrl": "https://assets.blocksec.com/image/1663669189317-3.png",
                        "isERC1155": false,
                        "isERC721": false,
                        "sign": true,
                        "value": "2007.6759593326200107"
                    }
                ]
            },
            {
                "account": "0xc02aaa39b223fe8d0a0e5c4f27ead9083c756cc2",
                "assets": [
                    {
                        "address": "0xeeeeeeeeeeeeeeeeeeeeeeeeeeeeeeeeeeeeeeee",
                        "amount": "1.177011713005156833",
                        "iconUrl": "https://assets.blocksec.com/image/1663669189317-3.png",
                        "isERC1155": false,
                        "isERC721": false,
                        "sign": false,
                        "value": "2007.6759593326200107"
                    },
                    {
                        "address": "0xc02aaa39b223fe8d0a0e5c4f27ead9083c756cc2",
                        "amount": "1.177011713005156833",
                        "iconUrl": "https://assets.blocksec.com/icon/f1cb2d02c471d545bbc7722daf3277fd852d98e63d118771af7047bd8256c516.png",
                        "isERC1155": false,
                        "isERC721": false,
                        "sign": true,
                        "value": "2007.6759593326200107"
                    }
                ]
            }
        ]
    },
    "profile": {
        "basic_info": {
            "baseFee": "13.672323452",
            "blockNumber": 18033171,
            "callData": "0x44b8be680000000000000000000000000c2c40f59d416d17879508fb977aabf05c7a51f60000000000000000000000000c2c40f59d416d17879508fb977aabf05c7a51f6000000000000000000000000c02aaa39b223fe8d0a0e5c4f27ead9083c756cc2000000000000000000000000000000000000000000000000106033bf82f60000000000000000000000000000000000000000000000000000106033bf82f600000000000000000000000000000000000000000000000000000000000000000001000000000000000000000000000000000000000000000000000000000000014400000000000000000000000000000000000000000000000000016b90ac9223cb000000000000000000000000000000000000000000000000000793ae7fc7cbb300000000000000000000000000000000000000000000000000000000000f8cd20000000000000000000000000000000000000000000000000000000000000180ffffffffffffffffffffffffffffffffffffffffffffffffffffffffffffffff0000000000000000000000000000000000000000000000000000000000000000",
            "debugEnable": true,
            "errorInfo": "",
            "eventCount": 3,
            "feeRecipient": "0xea8a4324d99e70057e988837e14dd5f5b72f05eb",
            "formatValue": "0",
            "gasLimit": 250000,
            "gasPrice": "14.004185452",
            "gasUsed": 114543,
            "intTxnCount": 6,
            "internalRevert": false,
            "internalRevertMessage": "",
            "isContractCreation": false,
            "isFlashloan": false,
            "maxFee": "33.38",
            "nonce": 93343,
            "overwritedBlockNumber": -1,
            "priorityFee": "0.331862",
            "receiver": "0x5c7bcd6e7de5423a257d81b442095a1a6ced35c5",
            "revertMessage": "",
            "sender": "0x15652636f3898f550b257b89926d5566821c32e1",
            "simulationEnable": true,
            "sourceTxnHash": "0x4d7116dfca039afc1b7f240689289a34b8f2e945889205b8a9a026036e46f4c9",
            "status": true,
            "timestamp": "2023-08-31T07:50:23Z",
            "transactionFee": "0.001604081414228436",
            "txnHash": "0x4d7116dfca039afc1b7f240689289a34b8f2e945889205b8a9a026036e46f4c9",
            "txnIndex": 4,
            "type": 2,
            "value": "0"
        },
        "fund_flow": [
            {
                "amount": "1.177011713005156833",
                "from": "0x15652636f3898f550b257b89926d5566821c32e1",
                "id": 1,
                "isERC1155": false,
                "isERC721": false,
                "isReverted": false,
                "order": 1,
                "to": "0x5c7bcd6e7de5423a257d81b442095a1a6ced35c5",
                "token": "0xc02aaa39b223fe8d0a0e5c4f27ead9083c756cc2"
            },
            {
                "amount": "1.177011713005156833",
                "from": "0xc02aaa39b223fe8d0a0e5c4f27ead9083c756cc2",
                "id": 2,
                "isERC1155": false,
                "isERC721": false,
                "isReverted": false,
                "order": 2,
                "to": "0x5c7bcd6e7de5423a257d81b442095a1a6ced35c5",
                "token": "0xeeeeeeeeeeeeeeeeeeeeeeeeeeeeeeeeeeeeeeee"
            },
            {
                "amount": "1.177011713005156833",
                "from": "0x5c7bcd6e7de5423a257d81b442095a1a6ced35c5",
                "id": 3,
                "isERC1155": false,
                "isERC721": false,
                "isReverted": false,
                "order": 3,
                "to": "0xc02aaa39b223fe8d0a0e5c4f27ead9083c756cc2",
                "token": "0xc02aaa39b223fe8d0a0e5c4f27ead9083c756cc2"
            },
            {
                "amount": "1.177011713005156833",
                "from": "0x5c7bcd6e7de5423a257d81b442095a1a6ced35c5",
                "id": 4,
                "isERC1155": false,
                "isERC721": false,
                "isReverted": false,
                "order": 4,
                "to": "0x0c2c40f59d416d17879508fb977aabf05c7a51f6",
                "token": "0xeeeeeeeeeeeeeeeeeeeeeeeeeeeeeeeeeeeeeeee"
            }
        ],
        "token_infos": [
            {
                "address": "0xc02aaa39b223fe8d0a0e5c4f27ead9083c756cc2",
                "decimals": 18
            },
            {
                "address": "0xeeeeeeeeeeeeeeeeeeeeeeeeeeeeeeeeeeeeeeee",
                "decimals": 18
            }
        ]
    },
    "address_label": {
        "labels": [
            {
                "address": "0x15652636f3898f550b257b89926d5566821c32e1",
                "label": "ACROSS PROTOCOL"
            },
            {
                "address": "0x326510c1bf9d85fb73d0ab8d20aa5bbe9c7561e9",
                "label": "Ethereum_SpokePool"
            },
            {
                "address": "0x0000000000000000000000000000000000000003",
                "label": "Precompiled"
            },
            {
                "address": "0xeeeeeeeeeeeeeeeeeeeeeeeeeeeeeeeeeeeeeeee",
                "label": "Ether"
            },
            {
                "address": "0x5c7bcd6e7de5423a257d81b442095a1a6ced35c5",
                "label": "Across Protocol: Ethereum Spoke Pool V2"
            },
            {
                "address": "0xc02aaa39b223fe8d0a0e5c4f27ead9083c756cc2",
                "label": "Wrapped Ether (WETH)"
            },
            {
                "address": "0x0000000000000000000000000000000000000001",
                "label": "Precompiled"
            },
            {
                "address": "0x0000000000000000000000000000000000000002",
                "label": "Precompiled"
            },
            {
                "address": "0x0000000000000000000000000000000000000004",
                "label": "Precompiled"
            }
        ]
    },
    "trace": {
        "accountLabels": null,
        "dataMap": {
            "-1": {
                "invocation": {
                    "address": "0x15652636f3898f550b257b89926d5566821c32e1",
                    "callData": "",
                    "decodedMethod": null,
                    "errorInfo": "",
                    "fromAddress": "",
                    "gasUsed": 0,
                    "id": -1,
                    "methodDecoded": false,
                    "operation": "",
                    "output": "",
                    "revert": false,
                    "revertMessage": "",
                    "selector": "",
                    "status": false,
                    "value": ""
                },
                "nodeType": 0
            },
            "0": {
                "invocation": {
                    "address": "0x5c7bcd6e7de5423a257d81b442095a1a6ced35c5",
                    "callData": "0x0000000000000000000000000c2c40f59d416d17879508fb977aabf05c7a51f60000000000000000000000000c2c40f59d416d17879508fb977aabf05c7a51f6000000000000000000000000c02aaa39b223fe8d0a0e5c4f27ead9083c756cc2000000000000000000000000000000000000000000000000106033bf82f60000000000000000000000000000000000000000000000000000106033bf82f600000000000000000000000000000000000000000000000000000000000000000001000000000000000000000000000000000000000000000000000000000000014400000000000000000000000000000000000000000000000000016b90ac9223cb000000000000000000000000000000000000000000000000000793ae7fc7cbb300000000000000000000000000000000000000000000000000000000000f8cd20000000000000000000000000000000000000000000000000000000000000180ffffffffffffffffffffffffffffffffffffffffffffffffffffffffffffffff0000000000000000000000000000000000000000000000000000000000000000",
                    "decodedMethod": {
                        "callParams": [
                            {
                                "name": "depositor",
                                "type": "address",
                                "value": "0x0c2c40f59d416d17879508fb977aabf05c7a51f6"
                            },
                            {
                                "name": "recipient",
                                "type": "address",
                                "value": "0x0c2c40f59d416d17879508fb977aabf05c7a51f6"
                            },
                            {
                                "name": "destinationToken",
                                "type": "address",
                                "value": "0xc02aaa39b223fe8d0a0e5c4f27ead9083c756cc2"
                            },
                            {
                                "name": "amount",
                                "type": "uint256",
                                "value": "1,180,000,000,000,000,000"
                            },
                            {
                                "name": "maxTokensToSend",
                                "type": "uint256",
                                "value": "1,180,000,000,000,000,000"
                            },
                            {
                                "name": "repaymentChainId",
                                "type": "uint256",
                                "value": "1"
                            },
                            {
                                "name": "originChainId",
                                "type": "uint256",
                                "value": "324"
                            },
                            {
                                "name": "realizedLpFeePct",
                                "type": "int64",
                                "value": "399,744,091,431,883"
                            },
                            {
                                "name": "relayerFeePct",
                                "type": "int64",
                                "value": "2,132,702,514,367,411"
                            },
                            {
                                "name": "depositId",
                                "type": "uint32",
                                "value": "1,019,090"
                            },
                            {
                                "name": "message",
                                "type": "bytes",
                                "value": "0x"
                            },
                            {
                                "name": "maxCount",
                                "type": "uint256",
                                "value": "115,792,089,237,316,195,423,570,985,008,687,907,853,269,984,665,640,564,039,457,584,007,913,129,639,935"
                            }
                        ],
                        "constructorArguments": "",
                        "name": "fillRelay",
                        "returnParams": [],
                        "signature": "fillRelay(address,address,address,uint256,uint256,uint256,uint256,int64,int64,uint32,bytes,uint256)"
                    },
                    "errorInfo": "",
                    "fromAddress": "0x15652636f3898f550b257b89926d5566821c32e1",
                    "gasUsed": 114543,
                    "id": 0,
                    "methodDecoded": true,
                    "operation": "CALL",
                    "output": "",
                    "revert": false,
                    "revertMessage": "",
                    "selector": "0x44b8be68",
                    "status": true,
                    "value": "0"
                },
                "nodeType": 0
            },
            "1": {
                "invocation": {
                    "address": "0x326510c1bf9d85fb73d0ab8d20aa5bbe9c7561e9",
                    "callData": "0x0000000000000000000000000c2c40f59d416d17879508fb977aabf05c7a51f60000000000000000000000000c2c40f59d416d17879508fb977aabf05c7a51f6000000000000000000000000c02aaa39b223fe8d0a0e5c4f27ead9083c756cc2000000000000000000000000000000000000000000000000106033bf82f60000000000000000000000000000000000000000000000000000106033bf82f600000000000000000000000000000000000000000000000000000000000000000001000000000000000000000000000000000000000000000000000000000000014400000000000000000000000000000000000000000000000000016b90ac9223cb000000000000000000000000000000000000000000000000000793ae7fc7cbb300000000000000000000000000000000000000000000000000000000000f8cd20000000000000000000000000000000000000000000000000000000000000180ffffffffffffffffffffffffffffffffffffffffffffffffffffffffffffffff0000000000000000000000000000000000000000000000000000000000000000",
                    "decodedMethod": {
                        "callParams": [
                            {
                                "name": "depositor",
                                "type": "address",
                                "value": "0x0c2c40f59d416d17879508fb977aabf05c7a51f6"
                            },
                            {
                                "name": "recipient",
                                "type": "address",
                                "value": "0x0c2c40f59d416d17879508fb977aabf05c7a51f6"
                            },
                            {
                                "name": "destinationToken",
                                "type": "address",
                                "value": "0xc02aaa39b223fe8d0a0e5c4f27ead9083c756cc2"
                            },
                            {
                                "name": "amount",
                                "type": "uint256",
                                "value": "1,180,000,000,000,000,000"
                            },
                            {
                                "name": "maxTokensToSend",
                                "type": "uint256",
                                "value": "1,180,000,000,000,000,000"
                            },
                            {
                                "name": "repaymentChainId",
                                "type": "uint256",
                                "value": "1"
                            },
                            {
                                "name": "originChainId",
                                "type": "uint256",
                                "value": "324"
                            },
                            {
                                "name": "realizedLpFeePct",
                                "type": "int64",
                                "value": "399,744,091,431,883"
                            },
                            {
                                "name": "relayerFeePct",
                                "type": "int64",
                                "value": "2,132,702,514,367,411"
                            },
                            {
                                "name": "depositId",
                                "type": "uint32",
                                "value": "1,019,090"
                            },
                            {
                                "name": "message",
                                "type": "bytes",
                                "value": "0x"
                            },
                            {
                                "name": "maxCount",
                                "type": "uint256",
                                "value": "115,792,089,237,316,195,423,570,985,008,687,907,853,269,984,665,640,564,039,457,584,007,913,129,639,935"
                            }
                        ],
                        "constructorArguments": "",
                        "name": "fillRelay",
                        "returnParams": [],
                        "signature": "fillRelay(address,address,address,uint256,uint256,uint256,uint256,int64,int64,uint32,bytes,uint256)"
                    },
                    "errorInfo": "",
                    "fromAddress": "0x5c7bcd6e7de5423a257d81b442095a1a6ced35c5",
                    "gasUsed": 90939,
                    "id": 1,
                    "methodDecoded": true,
                    "operation": "DELEGATECALL",
                    "output": "",
                    "revert": false,
                    "revertMessage": "",
                    "selector": "0x44b8be68",
                    "status": true,
                    "value": "0"
                },
                "nodeType": 0
            },
            "2": {
                "invocation": {
                    "address": "0xc02aaa39b223fe8d0a0e5c4f27ead9083c756cc2",
                    "callData": "0x00000000000000000000000015652636f3898f550b257b89926d5566821c32e10000000000000000000000005c7bcd6e7de5423a257d81b442095a1a6ced35c5000000000000000000000000000000000000000000000000105595eaba2579e1",
                    "decodedMethod": {
                        "callParams": [
                            {
                                "name": "src",
                                "type": "address",
                                "value": "0x15652636f3898f550b257b89926d5566821c32e1"
                            },
                            {
                                "name": "dst",
                                "type": "address",
                                "value": "0x5c7bcd6e7de5423a257d81b442095a1a6ced35c5"
                            },
                            {
                                "decimalAvailable": true,
                                "name": "wad",
                                "type": "uint256",
                                "value": "1,177,011,713,005,156,833"
                            }
                        ],
                        "constructorArguments": "",
                        "name": "transferFrom",
                        "returnParams": [
                            {
                                "name": "",
                                "type": "bool",
                                "value": true
                            }
                        ],
                        "signature": "transferFrom(address,address,uint256)"
                    },
                    "errorInfo": "",
                    "fromAddress": "0x5c7bcd6e7de5423a257d81b442095a1a6ced35c5",
                    "gasUsed": 18548,
                    "id": 2,
                    "methodDecoded": true,
                    "operation": "CALL",
                    "output": "0x0000000000000000000000000000000000000000000000000000000000000001",
                    "revert": false,
                    "revertMessage": "",
                    "selector": "0x23b872dd",
                    "status": true,
                    "value": "0"
                },
                "nodeType": 0
            },
            "3": {
                "event": {
                    "contract": "0xc02aaa39b223fe8d0a0e5c4f27ead9083c756cc2",
                    "decodedLog": {
                        "name": "Transfer",
                        "params": [
                            {
                                "name": "src",
                                "type": "address",
                                "value": "0x15652636f3898f550b257b89926d5566821c32e1"
                            },
                            {
                                "name": "dst",
                                "type": "address",
                                "value": "0x5c7bcd6e7de5423a257d81b442095a1a6ced35c5"
                            },
                            {
                                "decimalAvailable": true,
                                "name": "wad",
                                "type": "uint256",
                                "value": "1,177,011,713,005,156,833"
                            }
                        ],
                        "signature": "Transfer(address,address,uint256)"
                    },
                    "id": 3,
                    "logData": "0x000000000000000000000000000000000000000000000000105595eaba2579e1",
                    "logDecoded": true,
                    "operation": "EVENT",
                    "revert": false,
                    "status": true,
                    "topics": [
                        "0xddf252ad1be2c89b69c2b068fc378daa952ba7f163c4a11628f55a4df523b3ef",
                        "0x00000000000000000000000015652636f3898f550b257b89926d5566821c32e1",
                        "0x0000000000000000000000005c7bcd6e7de5423a257d81b442095a1a6ced35c5"
                    ]
                },
                "nodeType": 1
            },
            "4": {
                "invocation": {
                    "address": "0xc02aaa39b223fe8d0a0e5c4f27ead9083c756cc2",
                    "callData": "0x000000000000000000000000000000000000000000000000105595eaba2579e1",
                    "decodedMethod": {
                        "callParams": [
                            {
                                "name": "wad",
                                "type": "uint256",
                                "value": "1,177,011,713,005,156,833"
                            }
                        ],
                        "constructorArguments": "",
                        "name": "withdraw",
                        "returnParams": [],
                        "signature": "withdraw(uint256)"
                    },
                    "errorInfo": "",
                    "fromAddress": "0x5c7bcd6e7de5423a257d81b442095a1a6ced35c5",
                    "gasUsed": 9601,
                    "id": 4,
                    "methodDecoded": true,
                    "operation": "CALL",
                    "output": "",
                    "revert": false,
                    "revertMessage": "",
                    "selector": "0x2e1a7d4d",
                    "status": true,
                    "value": "0"
                },
                "nodeType": 0
            },
            "5": {
                "invocation": {
                    "address": "0x5c7bcd6e7de5423a257d81b442095a1a6ced35c5",
                    "callData": "0x",
                    "decodedMethod": null,
                    "errorInfo": "",
                    "fromAddress": "0xc02aaa39b223fe8d0a0e5c4f27ead9083c756cc2",
                    "gasUsed": 461,
                    "id": 5,
                    "methodDecoded": false,
                    "operation": "CALL",
                    "output": "",
                    "revert": false,
                    "revertMessage": "",
                    "selector": "fallback",
                    "status": true,
                    "value": "1.177011713005156833"
                },
                "nodeType": 0
            },
            "6": {
                "invocation": {
                    "address": "0x326510c1bf9d85fb73d0ab8d20aa5bbe9c7561e9",
                    "callData": "0x",
                    "decodedMethod": null,
                    "errorInfo": "",
                    "fromAddress": "0x5c7bcd6e7de5423a257d81b442095a1a6ced35c5",
                    "gasUsed": 62,
                    "id": 6,
                    "methodDecoded": false,
                    "operation": "DELEGATECALL",
                    "output": "",
                    "revert": false,
                    "revertMessage": "",
                    "selector": "fallback",
                    "status": true,
                    "value": "1.177011713005156833"
                },
                "nodeType": 0
            },
            "7": {
                "event": {
                    "contract": "0xc02aaa39b223fe8d0a0e5c4f27ead9083c756cc2",
                    "decodedLog": {
                        "name": "Withdrawal",
                        "params": [
                            {
                                "name": "src",
                                "type": "address",
                                "value": "0x5c7bcd6e7de5423a257d81b442095a1a6ced35c5"
                            },
                            {
                                "name": "wad",
                                "type": "uint256",
                                "value": "1,177,011,713,005,156,833"
                            }
                        ],
                        "signature": "Withdrawal(address,uint256)"
                    },
                    "id": 7,
                    "logData": "0x000000000000000000000000000000000000000000000000105595eaba2579e1",
                    "logDecoded": true,
                    "operation": "EVENT",
                    "revert": false,
                    "status": true,
                    "topics": [
                        "0x7fcf532c15f0a6db0bd6d0e038bea71d30d808c7d98cb3bf7268a95bf5081b65",
                        "0x0000000000000000000000005c7bcd6e7de5423a257d81b442095a1a6ced35c5"
                    ]
                },
                "nodeType": 1
            },
            "8": {
                "invocation": {
                    "address": "0x0c2c40f59d416d17879508fb977aabf05c7a51f6",
                    "callData": "0x",
                    "decodedMethod": null,
                    "errorInfo": "",
                    "fromAddress": "0x5c7bcd6e7de5423a257d81b442095a1a6ced35c5",
                    "gasUsed": 0,
                    "id": 8,
                    "methodDecoded": false,
                    "operation": "CALL",
                    "output": "",
                    "revert": false,
                    "revertMessage": "",
                    "selector": "fallback",
                    "status": true,
                    "value": "1.177011713005156833"
                },
                "nodeType": 0
            },
            "9": {
                "event": {
                    "contract": "0x5c7bcd6e7de5423a257d81b442095a1a6ced35c5",
                    "decodedLog": {
                        "name": "FilledRelay",
                        "params": [
                            {
                                "name": "originChainId",
                                "type": "uint256",
                                "value": "324"
                            },
                            {
                                "name": "depositId",
                                "type": "uint32",
                                "value": "1,019,090"
                            },
                            {
                                "name": "depositor",
                                "type": "address",
                                "value": "0x0c2c40f59d416d17879508fb977aabf05c7a51f6"
                            },
                            {
                                "name": "amount",
                                "type": "uint256",
                                "value": "1,180,000,000,000,000,000"
                            },
                            {
                                "name": "totalFilledAmount",
                                "type": "uint256",
                                "value": "1,180,000,000,000,000,000"
                            },
                            {
                                "name": "fillAmount",
                                "type": "uint256",
                                "value": "1,180,000,000,000,000,000"
                            },
                            {
                                "name": "repaymentChainId",
                                "type": "uint256",
                                "value": "1"
                            },
                            {
                                "name": "destinationChainId",
                                "type": "uint256",
                                "value": "1"
                            },
                            {
                                "name": "relayerFeePct",
                                "type": "int64",
                                "value": "2,132,702,514,367,411"
                            },
                            {
                                "name": "realizedLpFeePct",
                                "type": "int64",
                                "value": "399,744,091,431,883"
                            },
                            {
                                "name": "destinationToken",
                                "type": "address",
                                "value": "0xc02aaa39b223fe8d0a0e5c4f27ead9083c756cc2"
                            },
                            {
                                "name": "relayer",
                                "type": "address",
                                "value": "0x15652636f3898f550b257b89926d5566821c32e1"
                            },
                            {
                                "name": "recipient",
                                "type": "address",
                                "value": "0x0c2c40f59d416d17879508fb977aabf05c7a51f6"
                            },
                            {
                                "name": "message",
                                "type": "bytes",
                                "value": "0x"
                            },
                            {
                                "name": "updatableRelayData",
                                "type": "(address,bytes,int64,bool,int256)",
                                "value": [
                                    {
                                        "name": "recipient",
                                        "type": "address",
                                        "value": "0x0c2c40f59d416d17879508fb977aabf05c7a51f6"
                                    },
                                    {
                                        "name": "message",
                                        "type": "bytes",
                                        "value": "0x"
                                    },
                                    {
                                        "name": "relayerFeePct",
                                        "type": "int64",
                                        "value": "2,132,702,514,367,411"
                                    },
                                    {
                                        "name": "isSlowRelay",
                                        "type": "bool",
                                        "value": false
                                    },
                                    {
                                        "name": "payoutAdjustmentPct",
                                        "type": "int256",
                                        "value": "0"
                                    }
                                ]
                            }
                        ],
                        "signature": "FilledRelay(uint256,uint256,uint256,uint256,uint256,uint256,int64,int64,uint32,address,address,address,address,bytes,(address,bytes,int64,bool,int256))"
                    },
                    "id": 9,
                    "logData": "0x000000000000000000000000000000000000000000000000106033bf82f60000000000000000000000000000000000000000000000000000106033bf82f60000000000000000000000000000000000000000000000000000106033bf82f6000000000000000000000000000000000000000000000000000000000000000000010000000000000000000000000000000000000000000000000000000000000001000000000000000000000000000000000000000000000000000793ae7fc7cbb300000000000000000000000000000000000000000000000000016b90ac9223cb000000000000000000000000c02aaa39b223fe8d0a0e5c4f27ead9083c756cc200000000000000000000000015652636f3898f550b257b89926d5566821c32e10000000000000000000000000c2c40f59d416d17879508fb977aabf05c7a51f6000000000000000000000000000000000000000000000000000000000000018000000000000000000000000000000000000000000000000000000000000001a000000000000000000000000000000000000000000000000000000000000000000000000000000000000000000c2c40f59d416d17879508fb977aabf05c7a51f600000000000000000000000000000000000000000000000000000000000000a0000000000000000000000000000000000000000000000000000793ae7fc7cbb3000000000000000000000000000000000000000000000000000000000000000000000000000000000000000000000000000000000000000000000000000000000000000000000000000000000000000000000000000000000000000000000000",
                    "logDecoded": true,
                    "operation": "EVENT",
                    "revert": false,
                    "status": true,
                    "topics": [
                        "0x8ab9dc6c19fe88e69bc70221b339c84332752fdd49591b7c51e66bae3947b73c",
                        "0x0000000000000000000000000000000000000000000000000000000000000144",
                        "0x00000000000000000000000000000000000000000000000000000000000f8cd2",
                        "0x0000000000000000000000000c2c40f59d416d17879508fb977aabf05c7a51f6"
                    ]
                },
                "nodeType": 1
            }
        },
        "gasFlame": [
            {
                "children": [
                    {
                        "children": [
                            {
                                "children": [],
                                "depth": 0,
                                "name": "Initial Gas",
                                "value": 24240
                            },
                            {
                                "children": [
                                    {
                                        "children": [
                                            {
                                                "children": [],
                                                "depth": 2,
                                                "name": "transferFrom",
                                                "value": 18548
                                            },
                                            {
                                                "children": [
                                                    {
                                                        "children": [
                                                            {
                                                                "children": [],
                                                                "depth": 4,
                                                                "name": "fallback",
                                                                "value": 62
                                                            }
                                                        ],
                                                        "depth": 3,
                                                        "name": "fallback",
                                                        "value": 461
                                                    }
                                                ],
                                                "depth": 2,
                                                "name": "withdraw",
                                                "value": 9601
                                            },
                                            {
                                                "children": [],
                                                "depth": 2,
                                                "name": "fallback",
                                                "value": 0
                                            }
                                        ],
                                        "depth": 1,
                                        "name": "fillRelay",
                                        "value": 90939
                                    }
                                ],
                                "depth": 0,
                                "name": "Executed Gas",
                                "value": 95903
                            }
                        ],
                        "depth": -1,
                        "name": "Actual Gas Used",
                        "value": 114543
                    },
                    {
                        "children": [],
                        "depth": -1,
                        "name": "Refunded Gas",
                        "value": 5600
                    }
                ],
                "depth": -2,
                "name": "Total Gas",
                "value": 120143
            }
        ],
        "isConfirmed": true,
        "mainTrace": [
            {
                "children": [
                    {
                        "children": [
                            {
                                "children": [
                                    {
                                        "children": [
                                            {
                                                "children": [],
                                                "depth": 3,
                                                "id": 3,
                                                "order": 3
                                            }
                                        ],
                                        "depth": 2,
                                        "id": 2,
                                        "order": 2
                                    },
                                    {
                                        "children": [
                                            {
                                                "children": [
                                                    {
                                                        "children": [],
                                                        "depth": 4,
                                                        "id": 6,
                                                        "order": 6
                                                    }
                                                ],
                                                "depth": 3,
                                                "id": 5,
                                                "order": 5
                                            },
                                            {
                                                "children": [],
                                                "depth": 3,
                                                "id": 7,
                                                "order": 7
                                            }
                                        ],
                                        "depth": 2,
                                        "id": 4,
                                        "order": 4
                                    },
                                    {
                                        "children": [],
                                        "depth": 2,
                                        "id": 8,
                                        "order": 8
                                    },
                                    {
                                        "children": [],
                                        "depth": 2,
                                        "id": 9,
                                        "order": 9
                                    }
                                ],
                                "depth": 1,
                                "id": 1,
                                "order": 1
                            }
                        ],
                        "depth": 0,
                        "id": 0,
                        "order": 0
                    }
                ],
                "depth": -1,
                "id": -1,
                "order": -1
            }
        ],
        "mainTraceNodeCount": 10,
        "parentIdMap": {
            "0": -1,
            "1": 0,
            "2": 1,
            "3": 2,
            "4": 1,
            "5": 4,
            "6": 5,
            "7": 4,
            "8": 1,
            "9": 1
        },
        "tidyTrace": [
            {
                "children": [
                    {
                        "children": [
                            {
                                "children": [
                                    {
                                        "children": [
                                            {
                                                "children": [],
                                                "depth": 3,
                                                "id": 3,
                                                "order": 3
                                            }
                                        ],
                                        "depth": 2,
                                        "id": 2,
                                        "order": 2
                                    },
                                    {
                                        "children": [
                                            {
                                                "children": [
                                                    {
                                                        "children": [],
                                                        "depth": 4,
                                                        "id": 6,
                                                        "order": 6
                                                    }
                                                ],
                                                "depth": 3,
                                                "id": 5,
                                                "order": 5
                                            },
                                            {
                                                "children": [],
                                                "depth": 3,
                                                "id": 7,
                                                "order": 7
                                            }
                                        ],
                                        "depth": 2,
                                        "id": 4,
                                        "order": 4
                                    },
                                    {
                                        "children": [],
                                        "depth": 2,
                                        "id": 8,
                                        "order": 8
                                    },
                                    {
                                        "children": [],
                                        "depth": 2,
                                        "id": 9,
                                        "order": 9
                                    }
                                ],
                                "depth": 1,
                                "id": 1,
                                "order": 1
                            }
                        ],
                        "depth": 0,
                        "id": 0,
                        "order": 0
                    }
                ],
                "depth": -1,
                "id": -1,
                "order": -1
            }
        ],
        "tidyTraceNodeCount": 10
    },
    "state_change": {
        "stateChanges": [
            {
                "address": "0x5c7bcd6e7de5423a257d81b442095a1a6ced35c5",
                "erc": "",
                "slots": [
                    {
                        "current": "0x00000000000000000000000000000000000000000000149ca4ee877bd121a5e7",
                        "key": "0x5e3545ce10dc62a0ef5fb5b163b6283b1717fa03b916bb43d34c3bff956524d3",
                        "prev": "0x00000000000000000000000000000000000000000000149c949000be0f9069bd"
                    },
                    {
                        "current": "0x000000000000000000000000000000000000000000000000106033bf82f60000",
                        "key": "0x480a62da953a5ac98df9e31b590d7b670e7bef65addcf50e591d50fdab6fcdc1",
                        "prev": "0x0000000000000000000000000000000000000000000000000000000000000000"
                    }
                ],
                "storageVariables": [
                    {
                        "name": "fillCounter",
                        "type": "mapping(address => uint256)",
                        "value": {
                            "pairs": [
                                {
                                    "key": "0xc02aaa39b223fe8d0a0e5c4f27ead9083c756cc2",
                                    "value": {
                                        "current": "97336906318324131014119",
                                        "prev": "97335726790022158903741",
                                        "typeTag": 1
                                    }
                                }
                            ],
                            "typeTag": 4
                        }
                    },
                    {
                        "name": "relayFills",
                        "type": "mapping(bytes32 => uint256)",
                        "value": {
                            "pairs": [
                                {
                                    "key": "0x5183b3ec0ac828c9a26c0824f389fdf0d2002e4856649256a6271fbb5801501e",
                                    "value": {
                                        "current": "1180000000000000000",
                                        "prev": "0",
                                        "typeTag": 1
                                    }
                                }
                            ],
                            "typeTag": 4
                        }
                    }
                ]
            },
            {
                "address": "0xc02aaa39b223fe8d0a0e5c4f27ead9083c756cc2",
                "erc": "ERC-20",
                "slots": [
                    {
                        "current": "0x000000000000000000000000000000000000000000000000acd9519ac86e9b43",
                        "key": "0x3cd3295a0f13ec3fafbb1d7c5777ede262740674a0bc1387052aa225454bbbff",
                        "prev": "0x000000000000000000000000000000000000000000000000bd2ee78582941524"
                    },
                    {
                        "current": "0x00000000000000000000000000000000000000000000d1f07825b0ce35152b7c",
                        "key": "0x2869decb6909cdebc8c2cdb57e27e46c6ffb413985b701c5456e7356130c3537",
                        "prev": "0x00000000000000000000000000000000000000000000d1f0887b46b8ef3aa55d"
                    }
                ],
                "storageVariables": [
                    {
                        "name": "balanceOf",
                        "type": "mapping(address => uint256)",
                        "value": {
                            "pairs": [
                                {
                                    "key": "0x15652636f3898f550b257b89926d5566821c32e1",
                                    "value": {
                                        "current": "12455075969699322691",
                                        "prev": "13632087682704479524",
                                        "typeTag": 1
                                    }
                                }
                            ],
                            "typeTag": 4
                        }
                    },
                    {
                        "name": "allowance",
                        "type": "mapping(address => mapping(address => uint256))",
                        "value": {
                            "pairs": [
                                {
                                    "key": "0x15652636f3898f550b257b89926d5566821c32e1",
                                    "value": {
                                        "pairs": [
                                            {
                                                "key": "0x5c7bcd6e7de5423a257d81b442095a1a6ced35c5",
                                                "value": {
                                                    "current": "991410471017704532028284",
                                                    "prev": "991411648029417537185117",
                                                    "typeTag": 1
                                                }
                                            }
                                        ],
                                        "typeTag": 4
                                    }
                                }
                            ],
                            "typeTag": 4
                        }
                    }
                ]
            }
        ]
    }
}