{
    "balance_change": {
        "balanceChanges": [
            {
                "account": "0xf16e9b0d03470827a95cdfd0cb8a8a3b46969b91",
                "assets": [
                    {
                        "address": "0x0bb217e40f8a5cb79adf04e1aab60e5abd0dfc1e",
                        "amount": "595,952.3676",
                        "iconUrl": "https://assets.blocksec.com/icon/af8bcb27696fd970c041f52f0616dbd0b9b8a024e966122beb7e9b051657ad82.png",
                        "isERC1155": false,
                        "isERC721": false,
                        "sign": false,
                        "value": "715.1428411199999373"
                    }
                ]
            },
            {
                "account": "0x81153f0889ab398c4acb42cb58b565a5392bba95",
                "assets": [
                    {
                        "address": "0x0bb217e40f8a5cb79adf04e1aab60e5abd0dfc1e",
                        "amount": "595,952.3676",
                        "iconUrl": "https://assets.blocksec.com/icon/af8bcb27696fd970c041f52f0616dbd0b9b8a024e966122beb7e9b051657ad82.png",
                        "isERC1155": false,
                        "isERC721": false,
                        "sign": true,
                        "value": "715.1428411199999373"
                    }
                ]
            }
        ]
    },
    "profile": {
        "basic_info": {
            "baseFee": "37.198684619",
            "blockNumber": 16876204,
            "callData": "0xa9059cbb00000000000000000000000081153f0889ab398c4acb42cb58b565a5392bba950000000000000000000000000000000000000000000000000000363398ead9c0",
            "debugEnable": true,
            "errorInfo": "",
            "eventCount": 1,
            "feeRecipient": "0x1f9090aae28b8a3dceadf281b0f12828e676c326",
            "formatValue": "0",
            "gasLimit": 100000,
            "gasPrice": "40.816863472",
            "gasUsed": 54174,
            "intTxnCount": 0,
            "internalRevert": false,
            "internalRevertMessage": "",
            "isContractCreation": false,
            "isFlashloan": false,
            "maxFee": "80",
            "nonce": 1702962,
            "overwritedBlockNumber": -1,
            "priorityFee": "3.618178853",
            "receiver": "0x0bb217e40f8a5cb79adf04e1aab60e5abd0dfc1e",
            "revertMessage": "",
            "sender": "0xf16e9b0d03470827a95cdfd0cb8a8a3b46969b91",
            "simulationEnable": true,
            "sourceTxnHash": "0x4e036ca1dc62ecc55b1fa0ead7fbc28e6064a9630a2876ffb9ae4e19b77c0932",
            "status": true,
            "timestamp": "2023-03-21T13:06:47Z",
            "transactionFee": "0.002211212761732128",
            "txnHash": "0x4e036ca1dc62ecc55b1fa0ead7fbc28e6064a9630a2876ffb9ae4e19b77c0932",
            "txnIndex": 13,
            "type": 2,
            "value": "0"
        },
        "fund_flow": [
            {
                "amount": "595,952.3676",
                "from": "0xf16e9b0d03470827a95cdfd0cb8a8a3b46969b91",
                "id": 1,
                "isERC1155": false,
                "isERC721": false,
                "isReverted": false,
                "order": 1,
                "to": "0x81153f0889ab398c4acb42cb58b565a5392bba95",
                "token": "0x0bb217e40f8a5cb79adf04e1aab60e5abd0dfc1e"
            }
        ],
        "token_infos": [
            {
                "address": "0xc02aaa39b223fe8d0a0e5c4f27ead9083c756cc2",
                "decimals": 18
            },
            {
                "address": "0xeeeeeeeeeeeeeeeeeeeeeeeeeeeeeeeeeeeeeeee",
                "decimals": 18
            },
            {
                "address": "0x0bb217e40f8a5cb79adf04e1aab60e5abd0dfc1e",
                "decimals": 8
            }
        ]
    },
    "address_label": {
        "labels": [
            {
                "address": "0x0000000000000000000000000000000000000004",
                "label": "Precompiled"
            },
            {
                "address": "0xeeeeeeeeeeeeeeeeeeeeeeeeeeeeeeeeeeeeeeee",
                "label": "Ether"
            },
            {
                "address": "0x0bb217e40f8a5cb79adf04e1aab60e5abd0dfc1e",
                "label": "Swft Coin"
            },
            {
                "address": "0xf16e9b0d03470827a95cdfd0cb8a8a3b46969b91",
                "label": "KuCoin 9"
            },
            {
                "address": "0x81153f0889ab398c4acb42cb58b565a5392bba95",
                "label": "MEV Bot: 0x811...a95"
            },
            {
                "address": "0x0000000000000000000000000000000000000001",
                "label": "Precompiled"
            },
            {
                "address": "0x0000000000000000000000000000000000000002",
                "label": "Precompiled"
            },
            {
                "address": "0x0000000000000000000000000000000000000003",
                "label": "Precompiled"
            }
        ]
    },
    "trace": {
        "accountLabels": null,
        "dataMap": {
            "-1": {
                "invocation": {
                    "address": "0xf16e9b0d03470827a95cdfd0cb8a8a3b46969b91",
                    "callData": "",
                    "decodedMethod": null,
                    "errorInfo": "",
                    "fromAddress": "",
                    "gasUsed": 0,
                    "id": -1,
                    "methodDecoded": false,
                    "operation": "",
                    "output": "",
                    "revert": false,
                    "revertMessage": "",
                    "selector": "",
                    "status": false,
                    "value": ""
                },
                "nodeType": 0
            },
            "0": {
                "invocation": {
                    "address": "0x0bb217e40f8a5cb79adf04e1aab60e5abd0dfc1e",
                    "callData": "0x00000000000000000000000081153f0889ab398c4acb42cb58b565a5392bba950000000000000000000000000000000000000000000000000000363398ead9c0",
                    "decodedMethod": {
                        "callParams": [
                            {
                                "name": "_to",
                                "type": "address",
                                "value": "0x81153f0889ab398c4acb42cb58b565a5392bba95"
                            },
                            {
                                "decimalAvailable": true,
                                "name": "_value",
                                "type": "uint256",
                                "value": "59,595,236,760,000"
                            }
                        ],
                        "constructorArguments": "",
                        "name": "transfer",
                        "returnParams": [],
                        "signature": "transfer(address,uint256)"
                    },
                    "errorInfo": "",
                    "fromAddress": "0xf16e9b0d03470827a95cdfd0cb8a8a3b46969b91",
                    "gasUsed": 54174,
                    "id": 0,
                    "methodDecoded": true,
                    "operation": "CALL",
                    "output": "",
                    "revert": false,
                    "revertMessage": "",
                    "selector": "0xa9059cbb",
                    "status": true,
                    "value": "0"
                },
                "nodeType": 0
            },
            "1": {
                "event": {
                    "contract": "0x0bb217e40f8a5cb79adf04e1aab60e5abd0dfc1e",
                    "decodedLog": {
                        "name": "Transfer",
                        "params": [
                            {
                                "name": "from",
                                "type": "address",
                                "value": "0xf16e9b0d03470827a95cdfd0cb8a8a3b46969b91"
                            },
                            {
                                "name": "to",
                                "type": "address",
                                "value": "0x81153f0889ab398c4acb42cb58b565a5392bba95"
                            },
                            {
                                "decimalAvailable": true,
                                "name": "value",
                                "type": "uint256",
                                "value": "59,595,236,760,000"
                            }
                        ],
                        "signature": "Transfer(address,address,uint256)"
                    },
                    "id": 1,
                    "logData": "0x0000000000000000000000000000000000000000000000000000363398ead9c0",
                    "logDecoded": true,
                    "operation": "EVENT",
                    "revert": false,
                    "status": true,
                    "topics": [
                        "0xddf252ad1be2c89b69c2b068fc378daa952ba7f163c4a11628f55a4df523b3ef",
                        "0x000000000000000000000000f16e9b0d03470827a95cdfd0cb8a8a3b46969b91",
                        "0x00000000000000000000000081153f0889ab398c4acb42cb58b565a5392bba95"
                    ]
                },
                "nodeType": 1
            }
        },
        "gasFlame": [
            {
                "children": [
                    {
                        "children": [
                            {
                                "children": [],
                                "depth": 0,
                                "name": "Initial Gas",
                                "value": 21632
                            },
                            {
                                "children": [],
                                "depth": 0,
                                "name": "Executed Gas",
                                "value": 32542
                            }
                        ],
                        "depth": -1,
                        "name": "Actual Gas Used",
                        "value": 54174
                    },
                    {
                        "children": [],
                        "depth": -1,
                        "name": "Refunded Gas",
                        "value": 0
                    }
                ],
                "depth": -2,
                "name": "Total Gas",
                "value": 54174
            }
        ],
        "isConfirmed": true,
        "mainTrace": [
            {
                "children": [
                    {
                        "children": [
                            {
                                "children": [],
                                "depth": 1,
                                "id": 1,
                                "order": 1
                            }
                        ],
                        "depth": 0,
                        "id": 0,
                        "order": 0
                    }
                ],
                "depth": -1,
                "id": -1,
                "order": -1
            }
        ],
        "mainTraceNodeCount": 2,
        "parentIdMap": {
            "0": -1,
            "1": 0
        },
        "tidyTrace": [
            {
                "children": [
                    {
                        "children": [
                            {
                                "children": [],
                                "depth": 1,
                                "id": 1,
                                "order": 1
                            }
                        ],
                        "depth": 0,
                        "id": 0,
                        "order": 0
                    }
                ],
                "depth": -1,
                "id": -1,
                "order": -1
            }
        ],
        "tidyTraceNodeCount": 2
    },
    "state_change": {
        "stateChanges": [
            {
                "address": "0x0bb217e40f8a5cb79adf04e1aab60e5abd0dfc1e",
                "erc": "",
                "slots": [
                    {
                        "current": "0x0000000000000000000000000000000000000000000000000029519368b47df9",
                        "key": "0x2cf10eca447a4be127225e18352ceba8e2e86f1902f62483acf1a063a345488a",
                        "prev": "0x000000000000000000000000000000000000000000000000002987c7019f57b9"
                    },
                    {
                        "current": "0x0000000000000000000000000000000000000000000000000000363398ead9c0",
                        "key": "0x98aa31b420f96c3add98bab1ae49180fd45c809d67ed6fefca9b7d31e1a376d3",
                        "prev": "0x0000000000000000000000000000000000000000000000000000000000000000"
                    }
                ],
                "storageVariables": []
            }
        ]
    }
}