{
    "balance_change": {
        "balanceChanges": [
            {
                "account": "0xc1a012e58ad5a229e4a7051e07bc5bdf2ecb91a2",
                "assets": [
                    {
                        "address": "0x78a52e12c7b63d05c12f9608307587cf654ec3d0",
                        "amount": "88,822,146,901.1658",
                        "iconUrl": "",
                        "isERC1155": false,
                        "isERC721": false,
                        "sign": false,
                        "value": ""
                    }
                ]
            },
            {
                "account": "0x50752c1269c215a1471f4d3922bd79b011711dbf",
                "assets": [
                    {
                        "address": "0x78a52e12c7b63d05c12f9608307587cf654ec3d0",
                        "amount": "88,822,146,901.1658",
                        "iconUrl": "",
                        "isERC1155": false,
                        "isERC721": false,
                        "sign": true,
                        "value": ""
                    }
                ]
            }
        ]
    },
    "profile": {
        "basic_info": {
            "baseFee": "",
            "blockNumber": 12812754,
            "callData": "0xa9059cbb00000000000000000000000050752c1269c215a1471f4d3922bd79b011711dbf00000000000000000000000000000000000000011efff537c0e7435087f68000",
            "debugEnable": true,
            "errorInfo": "",
            "eventCount": 1,
            "feeRecipient": "0xea674fdde714fd979de3edf0f56aa9716b898ec8",
            "formatValue": "0",
            "gasLimit": 150000,
            "gasPrice": "37",
            "gasUsed": 54752,
            "intTxnCount": 0,
            "internalRevert": false,
            "internalRevertMessage": "",
            "isContractCreation": false,
            "isFlashloan": false,
            "maxFee": "",
            "nonce": 27503,
            "overwritedBlockNumber": -1,
            "priorityFee": "",
            "receiver": "0x78a52e12c7b63d05c12f9608307587cf654ec3d0",
            "revertMessage": "",
            "sender": "0xc1a012e58ad5a229e4a7051e07bc5bdf2ecb91a2",
            "simulationEnable": true,
            "sourceTxnHash": "0x4ee446e97d67a8b1374ee8c21543103b799dfc332c2572fc0826aeeb92faba92",
            "status": true,
            "timestamp": "2021-07-12T13:42:26Z",
            "transactionFee": "0.002025824",
            "txnHash": "0x4ee446e97d67a8b1374ee8c21543103b799dfc332c2572fc0826aeeb92faba92",
            "txnIndex": 114,
            "type": 0,
            "value": "0"
        },
        "fund_flow": [
            {
                "amount": "88,822,146,901.1658",
                "from": "0xc1a012e58ad5a229e4a7051e07bc5bdf2ecb91a2",
                "id": 1,
                "isERC1155": false,
                "isERC721": false,
                "isReverted": false,
                "order": 1,
                "to": "0x50752c1269c215a1471f4d3922bd79b011711dbf",
                "token": "0x78a52e12c7b63d05c12f9608307587cf654ec3d0"
            }
        ],
        "token_infos": [
            {
                "address": "0x78a52e12c7b63d05c12f9608307587cf654ec3d0",
                "decimals": 18
            },
            {
                "address": "0xc02aaa39b223fe8d0a0e5c4f27ead9083c756cc2",
                "decimals": 18
            },
            {
                "address": "0xeeeeeeeeeeeeeeeeeeeeeeeeeeeeeeeeeeeeeeee",
                "decimals": 18
            }
        ]
    },
    "address_label": {
        "labels": [
            {
                "address": "0x0000000000000000000000000000000000000002",
                "label": "Precompiled"
            },
            {
                "address": "0x0000000000000000000000000000000000000003",
                "label": "Precompiled"
            },
            {
                "address": "0x0000000000000000000000000000000000000004",
                "label": "Precompiled"
            },
            {
                "address": "0xeeeeeeeeeeeeeeeeeeeeeeeeeeeeeeeeeeeeeeee",
                "label": "Ether"
            },
            {
                "address": "0x78a52e12c7b63d05c12f9608307587cf654ec3d0",
                "label": "Crypto Village Accelerator: Old CVA Token"
            },
            {
                "address": "0x0000000000000000000000000000000000000001",
                "label": "Precompiled"
            }
        ]
    },
    "trace": {
        "accountLabels": null,
        "dataMap": {
            "-1": {
                "invocation": {
                    "address": "0xc1a012e58ad5a229e4a7051e07bc5bdf2ecb91a2",
                    "callData": "",
                    "decodedMethod": null,
                    "errorInfo": "",
                    "fromAddress": "",
                    "gasUsed": 0,
                    "id": -1,
                    "methodDecoded": false,
                    "operation": "",
                    "output": "",
                    "revert": false,
                    "revertMessage": "",
                    "selector": "",
                    "status": false,
                    "value": ""
                },
                "nodeType": 0
            },
            "0": {
                "invocation": {
                    "address": "0x78a52e12c7b63d05c12f9608307587cf654ec3d0",
                    "callData": "0x00000000000000000000000050752c1269c215a1471f4d3922bd79b011711dbf00000000000000000000000000000000000000011efff537c0e7435087f68000",
                    "decodedMethod": {
                        "callParams": [
                            {
                                "name": "_to",
                                "type": "address",
                                "value": "0x50752c1269c215a1471f4d3922bd79b011711dbf"
                            },
                            {
                                "decimalAvailable": true,
                                "name": "_value",
                                "type": "uint256",
                                "value": "88,822,146,901,165,800,000,000,000,000"
                            }
                        ],
                        "constructorArguments": "",
                        "name": "transfer",
                        "returnParams": [
                            {
                                "name": "_success",
                                "type": "bool",
                                "value": true
                            }
                        ],
                        "signature": "transfer(address,uint256)"
                    },
                    "errorInfo": "",
                    "fromAddress": "0xc1a012e58ad5a229e4a7051e07bc5bdf2ecb91a2",
                    "gasUsed": 54752,
                    "id": 0,
                    "methodDecoded": true,
                    "operation": "CALL",
                    "output": "0x0000000000000000000000000000000000000000000000000000000000000001",
                    "revert": false,
                    "revertMessage": "",
                    "selector": "0xa9059cbb",
                    "status": true,
                    "value": "0"
                },
                "nodeType": 0
            },
            "1": {
                "event": {
                    "contract": "0x78a52e12c7b63d05c12f9608307587cf654ec3d0",
                    "decodedLog": {
                        "name": "Transfer",
                        "params": [
                            {
                                "name": "from",
                                "type": "address",
                                "value": "0xc1a012e58ad5a229e4a7051e07bc5bdf2ecb91a2"
                            },
                            {
                                "name": "to",
                                "type": "address",
                                "value": "0x50752c1269c215a1471f4d3922bd79b011711dbf"
                            },
                            {
                                "decimalAvailable": true,
                                "name": "value",
                                "type": "uint256",
                                "value": "88,822,146,901,165,800,000,000,000,000"
                            }
                        ],
                        "signature": "Transfer(address,address,uint256)"
                    },
                    "id": 1,
                    "logData": "0x00000000000000000000000000000000000000011efff537c0e7435087f68000",
                    "logDecoded": true,
                    "operation": "EVENT",
                    "revert": false,
                    "status": true,
                    "topics": [
                        "0xddf252ad1be2c89b69c2b068fc378daa952ba7f163c4a11628f55a4df523b3ef",
                        "0x000000000000000000000000c1a012e58ad5a229e4a7051e07bc5bdf2ecb91a2",
                        "0x00000000000000000000000050752c1269c215a1471f4d3922bd79b011711dbf"
                    ]
                },
                "nodeType": 1
            }
        },
        "gasFlame": [
            {
                "children": [
                    {
                        "children": [
                            {
                                "children": [],
                                "depth": 0,
                                "name": "Initial Gas",
                                "value": 21704
                            },
                            {
                                "children": [],
                                "depth": 0,
                                "name": "Executed Gas",
                                "value": 33048
                            }
                        ],
                        "depth": -1,
                        "name": "Actual Gas Used",
                        "value": 54752
                    },
                    {
                        "children": [],
                        "depth": -1,
                        "name": "Refunded Gas",
                        "value": 0
                    }
                ],
                "depth": -2,
                "name": "Total Gas",
                "value": 54752
            }
        ],
        "isConfirmed": true,
        "mainTrace": [
            {
                "children": [
                    {
                        "children": [
                            {
                                "children": [],
                                "depth": 1,
                                "id": 1,
                                "order": 1
                            }
                        ],
                        "depth": 0,
                        "id": 0,
                        "order": 0
                    }
                ],
                "depth": -1,
                "id": -1,
                "order": -1
            }
        ],
        "mainTraceNodeCount": 2,
        "parentIdMap": {
            "0": -1,
            "1": 0
        },
        "tidyTrace": [
            {
                "children": [
                    {
                        "children": [
                            {
                                "children": [],
                                "depth": 1,
                                "id": 1,
                                "order": 1
                            }
                        ],
                        "depth": 0,
                        "id": 0,
                        "order": 0
                    }
                ],
                "depth": -1,
                "id": -1,
                "order": -1
            }
        ],
        "tidyTraceNodeCount": 2
    },
    "state_change": {
        "stateChanges": [
            {
                "address": "0x78a52e12c7b63d05c12f9608307587cf654ec3d0",
                "erc": "ERC-20",
                "slots": [
                    {
                        "current": "0x0000000000000000000000000000000000000011990f8b6d1c96c4b78dc94400",
                        "key": "0x3d0b3671df98a507ed5488ef9e3a8c5e3907cd6ca70cf0bc5817c74dd825ea71",
                        "prev": "0x0000000000000000000000000000000000000012b80f80a4dd7e080815bfc400"
                    },
                    {
                        "current": "0x00000000000000000000000000000000000000011efff537c0e7435087f68000",
                        "key": "0x76b166353efb712ee69e16080c0fcbf3835b96a0c6539355554823873883f249",
                        "prev": "0x0000000000000000000000000000000000000000000000000000000000000000"
                    }
                ],
                "storageVariables": [
                    {
                        "name": "balances",
                        "type": "mapping(address => uint256)",
                        "value": {
                            "pairs": [
                                {
                                    "key": "0x50752c1269c215a1471f4d3922bd79b011711dbf",
                                    "value": {
                                        "current": "88822146901165800000000000000",
                                        "prev": "0",
                                        "typeTag": 1
                                    }
                                },
                                {
                                    "key": "0xc1a012e58ad5a229e4a7051e07bc5bdf2ecb91a2",
                                    "value": {
                                        "current": "1394248761554150027129990497280",
                                        "prev": "1483070908455315827129990497280",
                                        "typeTag": 1
                                    }
                                }
                            ],
                            "typeTag": 4
                        }
                    }
                ]
            }
        ]
    }
}