{
    "balance_change": {
        "balanceChanges": [
            {
                "account": "0x0000000000000000000000000000000000000000",
                "assets": [
                    {
                        "address": "0x72dd4b6bd852a3aa172be4d6c5a6dbec588cf131",
                        "amount": "100.82678707992349",
                        "iconUrl": "https://assets.blocksec.com/icon/f6d38655bb947a2bad5861af173877fe4eb1b38efa1a62ec4726e9fc0a2af2b6.png",
                        "isERC1155": false,
                        "isERC721": false,
                        "sign": false,
                        "value": ""
                    }
                ]
            },
            {
                "account": "0xaa4639577a1b32ad87adbab538a210d41277a2be",
                "assets": [
                    {
                        "address": "0x72dd4b6bd852a3aa172be4d6c5a6dbec588cf131",
                        "amount": "100.82678707992349",
                        "iconUrl": "https://assets.blocksec.com/icon/f6d38655bb947a2bad5861af173877fe4eb1b38efa1a62ec4726e9fc0a2af2b6.png",
                        "isERC1155": false,
                        "isERC721": false,
                        "sign": true,
                        "value": ""
                    }
                ]
            }
        ]
    },
    "profile": {
        "basic_info": {
            "baseFee": "",
            "blockNumber": 4809692,
            "callData": "0x40c10f19000000000000000000000000aa4639577a1b32ad87adbab538a210d41277a2be0000000000000000000000000000000000000000000000057740b4a55ec8dcd0",
            "debugEnable": true,
            "errorInfo": "",
            "eventCount": 2,
            "feeRecipient": "0x829bd824b016326a401d083b33d092293333a830",
            "formatValue": "0",
            "gasLimit": 90000,
            "gasPrice": "2",
            "gasUsed": 53535,
            "intTxnCount": 0,
            "internalRevert": false,
            "internalRevertMessage": "",
            "isContractCreation": false,
            "isFlashloan": false,
            "maxFee": "",
            "nonce": 35619,
            "overwritedBlockNumber": -1,
            "priorityFee": "",
            "receiver": "0x72dd4b6bd852a3aa172be4d6c5a6dbec588cf131",
            "revertMessage": "",
            "sender": "0x54c474fd5b203a70ec9e018a24fa8cf3d882a8c0",
            "simulationEnable": true,
            "sourceTxnHash": "0x4e3e8283d99059775cc572148d2798476d50d6d46cd207abfb0a5e90489b1bc5",
            "status": true,
            "timestamp": "2017-12-28T01:33:42Z",
            "transactionFee": "0.00010707",
            "txnHash": "0x4e3e8283d99059775cc572148d2798476d50d6d46cd207abfb0a5e90489b1bc5",
            "txnIndex": 70,
            "type": 0,
            "value": "0"
        },
        "fund_flow": [
            {
                "amount": "100.82678707992349",
                "from": "0x0000000000000000000000000000000000000000",
                "id": 1,
                "isERC1155": false,
                "isERC721": false,
                "isReverted": false,
                "order": 1,
                "to": "0xaa4639577a1b32ad87adbab538a210d41277a2be",
                "token": "0x72dd4b6bd852a3aa172be4d6c5a6dbec588cf131"
            }
        ],
        "token_infos": [
            {
                "address": "0xc02aaa39b223fe8d0a0e5c4f27ead9083c756cc2",
                "decimals": 18
            },
            {
                "address": "0xeeeeeeeeeeeeeeeeeeeeeeeeeeeeeeeeeeeeeeee",
                "decimals": 18
            },
            {
                "address": "0x72dd4b6bd852a3aa172be4d6c5a6dbec588cf131",
                "decimals": 18
            }
        ]
    },
    "address_label": {
        "labels": [
            {
                "address": "0x0000000000000000000000000000000000000003",
                "label": "Precompiled"
            },
            {
                "address": "0x0000000000000000000000000000000000000004",
                "label": "Precompiled"
            },
            {
                "address": "0xeeeeeeeeeeeeeeeeeeeeeeeeeeeeeeeeeeeeeeee",
                "label": "Ether"
            },
            {
                "address": "0x54c474fd5b203a70ec9e018a24fa8cf3d882a8c0",
                "label": "NAGACoin: Deployer"
            },
            {
                "address": "0x72dd4b6bd852a3aa172be4d6c5a6dbec588cf131",
                "label": "NAGACoin"
            },
            {
                "address": "0x0000000000000000000000000000000000000001",
                "label": "Precompiled"
            },
            {
                "address": "0x0000000000000000000000000000000000000002",
                "label": "Precompiled"
            }
        ]
    },
    "trace": {
        "accountLabels": null,
        "dataMap": {
            "-1": {
                "invocation": {
                    "address": "0x54c474fd5b203a70ec9e018a24fa8cf3d882a8c0",
                    "callData": "",
                    "decodedMethod": null,
                    "errorInfo": "",
                    "fromAddress": "",
                    "gasUsed": 0,
                    "id": -1,
                    "methodDecoded": false,
                    "operation": "",
                    "output": "",
                    "revert": false,
                    "revertMessage": "",
                    "selector": "",
                    "status": false,
                    "value": ""
                },
                "nodeType": 0
            },
            "0": {
                "invocation": {
                    "address": "0x72dd4b6bd852a3aa172be4d6c5a6dbec588cf131",
                    "callData": "0x000000000000000000000000aa4639577a1b32ad87adbab538a210d41277a2be0000000000000000000000000000000000000000000000057740b4a55ec8dcd0",
                    "decodedMethod": {
                        "callParams": [
                            {
                                "name": "_to",
                                "type": "address",
                                "value": "0xaa4639577a1b32ad87adbab538a210d41277a2be"
                            },
                            {
                                "name": "_amount",
                                "type": "uint256",
                                "value": "100,826,787,079,923,490,000"
                            }
                        ],
                        "constructorArguments": "",
                        "name": "mint",
                        "returnParams": [
                            {
                                "name": "",
                                "type": "bool",
                                "value": true
                            }
                        ],
                        "signature": "mint(address,uint256)"
                    },
                    "errorInfo": "",
                    "fromAddress": "0x54c474fd5b203a70ec9e018a24fa8cf3d882a8c0",
                    "gasUsed": 53535,
                    "id": 0,
                    "methodDecoded": true,
                    "operation": "CALL",
                    "output": "0x0000000000000000000000000000000000000000000000000000000000000001",
                    "revert": false,
                    "revertMessage": "",
                    "selector": "0x40c10f19",
                    "status": true,
                    "value": "0"
                },
                "nodeType": 0
            },
            "1": {
                "event": {
                    "contract": "0x72dd4b6bd852a3aa172be4d6c5a6dbec588cf131",
                    "decodedLog": {
                        "name": "Mint",
                        "params": [
                            {
                                "name": "to",
                                "type": "address",
                                "value": "0xaa4639577a1b32ad87adbab538a210d41277a2be"
                            },
                            {
                                "name": "amount",
                                "type": "uint256",
                                "value": "100,826,787,079,923,490,000"
                            }
                        ],
                        "signature": "Mint(address,uint256)"
                    },
                    "id": 1,
                    "logData": "0x0000000000000000000000000000000000000000000000057740b4a55ec8dcd0",
                    "logDecoded": true,
                    "operation": "EVENT",
                    "revert": false,
                    "status": true,
                    "topics": [
                        "0x0f6798a560793a54c3bcfe86a93cde1e73087d944c0ea20544137d4121396885",
                        "0x000000000000000000000000aa4639577a1b32ad87adbab538a210d41277a2be"
                    ]
                },
                "nodeType": 1
            },
            "2": {
                "event": {
                    "contract": "0x72dd4b6bd852a3aa172be4d6c5a6dbec588cf131",
                    "decodedLog": {
                        "name": "Transfer",
                        "params": [
                            {
                                "name": "from",
                                "type": "address",
                                "value": "0x0000000000000000000000000000000000000000"
                            },
                            {
                                "name": "to",
                                "type": "address",
                                "value": "0xaa4639577a1b32ad87adbab538a210d41277a2be"
                            },
                            {
                                "decimalAvailable": true,
                                "name": "value",
                                "type": "uint256",
                                "value": "100,826,787,079,923,490,000"
                            }
                        ],
                        "signature": "Transfer(address,address,uint256)"
                    },
                    "id": 2,
                    "logData": "0x0000000000000000000000000000000000000000000000057740b4a55ec8dcd0",
                    "logDecoded": true,
                    "operation": "EVENT",
                    "revert": false,
                    "status": true,
                    "topics": [
                        "0xddf252ad1be2c89b69c2b068fc378daa952ba7f163c4a11628f55a4df523b3ef",
                        "0x0000000000000000000000000000000000000000000000000000000000000000",
                        "0x000000000000000000000000aa4639577a1b32ad87adbab538a210d41277a2be"
                    ]
                },
                "nodeType": 1
            }
        },
        "gasFlame": [
            {
                "children": [
                    {
                        "children": [
                            {
                                "children": [],
                                "depth": 0,
                                "name": "Initial Gas",
                                "value": 23384
                            },
                            {
                                "children": [],
                                "depth": 0,
                                "name": "Executed Gas",
                                "value": 30151
                            }
                        ],
                        "depth": -1,
                        "name": "Actual Gas Used",
                        "value": 53535
                    },
                    {
                        "children": [],
                        "depth": -1,
                        "name": "Refunded Gas",
                        "value": 0
                    }
                ],
                "depth": -2,
                "name": "Total Gas",
                "value": 53535
            }
        ],
        "isConfirmed": true,
        "mainTrace": [
            {
                "children": [
                    {
                        "children": [
                            {
                                "children": [],
                                "depth": 1,
                                "id": 1,
                                "order": 1
                            },
                            {
                                "children": [],
                                "depth": 1,
                                "id": 2,
                                "order": 2
                            }
                        ],
                        "depth": 0,
                        "id": 0,
                        "order": 0
                    }
                ],
                "depth": -1,
                "id": -1,
                "order": -1
            }
        ],
        "mainTraceNodeCount": 3,
        "parentIdMap": {
            "0": -1,
            "1": 0,
            "2": 0
        },
        "tidyTrace": [
            {
                "children": [
                    {
                        "children": [
                            {
                                "children": [],
                                "depth": 1,
                                "id": 1,
                                "order": 1
                            },
                            {
                                "children": [],
                                "depth": 1,
                                "id": 2,
                                "order": 2
                            }
                        ],
                        "depth": 0,
                        "id": 0,
                        "order": 0
                    }
                ],
                "depth": -1,
                "id": -1,
                "order": -1
            }
        ],
        "tidyTraceNodeCount": 3
    },
    "state_change": {
        "stateChanges": [
            {
                "address": "0x72dd4b6bd852a3aa172be4d6c5a6dbec588cf131",
                "erc": "ERC-20",
                "slots": [
                    {
                        "current": "0x0000000000000000000000000000000000000000002e25aaff1b6be7bc0baad0",
                        "key": "0x0000000000000000000000000000000000000000000000000000000000000000",
                        "prev": "0x0000000000000000000000000000000000000000002e25a587dab7425d42ce00"
                    },
                    {
                        "current": "0x0000000000000000000000000000000000000000000000057740b4a55ec8dcd0",
                        "key": "0x44b741dc1030b5f835754930ce5d0555c1a31bd9e9fe6aabb44b6d7dbd5f6509",
                        "prev": "0x0000000000000000000000000000000000000000000000000000000000000000"
                    }
                ],
                "storageVariables": [
                    {
                        "name": "totalSupply",
                        "type": "uint256",
                        "value": {
                            "current": "55788469591036596612475600",
                            "prev": "55788368764249516688985600",
                            "typeTag": 1
                        }
                    },
                    {
                        "name": "balances",
                        "type": "mapping(address => uint256)",
                        "value": {
                            "pairs": [
                                {
                                    "key": "0xaa4639577a1b32ad87adbab538a210d41277a2be",
                                    "value": {
                                        "current": "100826787079923490000",
                                        "prev": "0",
                                        "typeTag": 1
                                    }
                                }
                            ],
                            "typeTag": 4
                        }
                    }
                ]
            }
        ]
    }
}