{
    "balance_change": {
        "balanceChanges": [
            {
                "account": "0x73a8a6f5d9762ea5f1de193ec19cdf476c7e86b1",
                "assets": [
                    {
                        "address": "0x594daad7d77592a2b97b725a7ad59d7e188b5bfa",
                        "amount": "3,865,368.973582904359773745",
                        "iconUrl": "",
                        "isERC1155": false,
                        "isERC721": false,
                        "sign": true,
                        "value": "734.4706324"
                    },
                    {
                        "address": "0xc02aaa39b223fe8d0a0e5c4f27ead9083c756cc2",
                        "amount": "0.30486070688312704",
                        "iconUrl": "https://assets.blocksec.com/icon/f1cb2d02c471d545bbc7722daf3277fd852d98e63d118771af7047bd8256c516.png",
                        "isERC1155": false,
                        "isERC721": false,
                        "sign": false,
                        "value": "737.9670454273402928"
                    }
                ]
            },
            {
                "account": "0x120ffad35bb97a5baf9ab68f9dd7667864530245",
                "assets": [
                    {
                        "address": "0x594daad7d77592a2b97b725a7ad59d7e188b5bfa",
                        "amount": "3,865,368.973582904359773745",
                        "iconUrl": "",
                        "isERC1155": false,
                        "isERC721": false,
                        "sign": false,
                        "value": "734.4706324"
                    },
                    {
                        "address": "0xc02aaa39b223fe8d0a0e5c4f27ead9083c756cc2",
                        "amount": "0.30486070688312704",
                        "iconUrl": "https://assets.blocksec.com/icon/f1cb2d02c471d545bbc7722daf3277fd852d98e63d118771af7047bd8256c516.png",
                        "isERC1155": false,
                        "isERC721": false,
                        "sign": true,
                        "value": "737.9670454273402928"
                    }
                ]
            }
        ]
    },
    "profile": {
        "basic_info": {
            "baseFee": "1.489991837",
            "blockNumber": 20753758,
            "callData": "0x49c36c07000000000000000000000000120ffad35bb97a5baf9ab68f9dd7667864530245000000000000000000000000000000000000000000000000043b15329bbe4700000000000000000000000000000000000000000000124b9c68ecc914000000000000000000000000000000000000000000000000001254f9322478fe000000000000000000000000000000000000000000000000000000000000000000000000",
            "debugEnable": true,
            "errorInfo": "",
            "eventCount": 3,
            "feeRecipient": "0x95222290dd7278aa3ddd389cc1e1d165cc4bafe5",
            "formatValue": "0",
            "gasLimit": 500007,
            "gasPrice": "5.033585235",
            "gasUsed": 105283,
            "intTxnCount": 7,
            "internalRevert": false,
            "internalRevertMessage": "",
            "isContractCreation": false,
            "isFlashloan": false,
            "maxFee": "5.43588303",
            "nonce": 99870,
            "overwritedBlockNumber": -1,
            "priorityFee": "3.543593398",
            "receiver": "0x73a8a6f5d9762ea5f1de193ec19cdf476c7e86b1",
            "revertMessage": "",
            "sender": "0x2a0eff97bb68298e36bea8c86852436e96af92b9",
            "simulationEnable": true,
            "sourceTxnHash": "0x4e06a6501205b0ab7ee959d79f1c682729d64fb53db296e9f16d704c163b9b25",
            "status": true,
            "timestamp": "2024-09-15T04:55:11Z",
            "transactionFee": "0.000529950954296505",
            "txnHash": "0x4e06a6501205b0ab7ee959d79f1c682729d64fb53db296e9f16d704c163b9b25",
            "txnIndex": 6,
            "type": 2,
            "value": "0"
        },
        "fund_flow": [
            {
                "amount": "3,865,368.973582904359773745",
                "from": "0x120ffad35bb97a5baf9ab68f9dd7667864530245",
                "id": 1,
                "isERC1155": false,
                "isERC721": false,
                "isReverted": false,
                "order": 1,
                "to": "0x73a8a6f5d9762ea5f1de193ec19cdf476c7e86b1",
                "token": "0x594daad7d77592a2b97b725a7ad59d7e188b5bfa"
            },
            {
                "amount": "0.30486070688312704",
                "from": "0x73a8a6f5d9762ea5f1de193ec19cdf476c7e86b1",
                "id": 2,
                "isERC1155": false,
                "isERC721": false,
                "isReverted": false,
                "order": 2,
                "to": "0x120ffad35bb97a5baf9ab68f9dd7667864530245",
                "token": "0xc02aaa39b223fe8d0a0e5c4f27ead9083c756cc2"
            }
        ],
        "token_infos": [
            {
                "address": "0xc02aaa39b223fe8d0a0e5c4f27ead9083c756cc2",
                "decimals": 18
            },
            {
                "address": "0xeeeeeeeeeeeeeeeeeeeeeeeeeeeeeeeeeeeeeeee",
                "decimals": 18
            },
            {
                "address": "0x594daad7d77592a2b97b725a7ad59d7e188b5bfa",
                "decimals": 18
            }
        ]
    },
    "address_label": {
        "labels": [
            {
                "address": "0x0000000000000000000000000000000000000001",
                "label": "Precompiled"
            },
            {
                "address": "0x0000000000000000000000000000000000000003",
                "label": "Precompiled"
            },
            {
                "address": "0x594daad7d77592a2b97b725a7ad59d7e188b5bfa",
                "label": "Apu's Club: APU Token"
            },
            {
                "address": "0x0000000000000000000000000000000000000002",
                "label": "Precompiled"
            },
            {
                "address": "0x0000000000000000000000000000000000000004",
                "label": "Precompiled"
            },
            {
                "address": "0xeeeeeeeeeeeeeeeeeeeeeeeeeeeeeeeeeeeeeeee",
                "label": "Ether"
            },
            {
                "address": "0x120ffad35bb97a5baf9ab68f9dd7667864530245",
                "label": "Uniswap V3: APU 3"
            },
            {
                "address": "0x73a8a6f5d9762ea5f1de193ec19cdf476c7e86b1",
                "label": "MEV Bot: 0x73a...6b1"
            },
            {
                "address": "0xc02aaa39b223fe8d0a0e5c4f27ead9083c756cc2",
                "label": "Wrapped Ether (WETH)"
            }
        ]
    },
    "trace": {
        "accountLabels": null,
        "dataMap": {
            "-1": {
                "invocation": {
                    "address": "0x2a0eff97bb68298e36bea8c86852436e96af92b9",
                    "callData": "",
                    "decodedMethod": null,
                    "errorInfo": "",
                    "fromAddress": "",
                    "gasUsed": 0,
                    "id": -1,
                    "methodDecoded": false,
                    "operation": "",
                    "output": "",
                    "revert": false,
                    "revertMessage": "",
                    "selector": "",
                    "status": false,
                    "value": ""
                },
                "nodeType": 0
            },
            "0": {
                "invocation": {
                    "address": "0x73a8a6f5d9762ea5f1de193ec19cdf476c7e86b1",
                    "callData": "0x000000000000000000000000120ffad35bb97a5baf9ab68f9dd7667864530245000000000000000000000000000000000000000000000000043b15329bbe4700000000000000000000000000000000000000000000124b9c68ecc914000000000000000000000000000000000000000000000000001254f9322478fe000000000000000000000000000000000000000000000000000000000000000000000000",
                    "decodedMethod": null,
                    "errorInfo": "",
                    "fromAddress": "0x2a0eff97bb68298e36bea8c86852436e96af92b9",
                    "gasUsed": 105283,
                    "id": 0,
                    "methodDecoded": false,
                    "operation": "CALL",
                    "output": "",
                    "revert": false,
                    "revertMessage": "",
                    "selector": "0x49c36c07",
                    "status": true,
                    "value": "0"
                },
                "nodeType": 0
            },
            "1": {
                "invocation": {
                    "address": "0x120ffad35bb97a5baf9ab68f9dd7667864530245",
                    "callData": "0x",
                    "decodedMethod": {
                        "callParams": [],
                        "constructorArguments": "",
                        "name": "slot0",
                        "returnParams": [
                            {
                                "name": "sqrtPriceX96",
                                "type": "uint160",
                                "value": "22,116,621,688,552,977,809,513,398"
                            },
                            {
                                "name": "tick",
                                "type": "int24",
                                "value": "-163,684"
                            },
                            {
                                "name": "observationIndex",
                                "type": "uint16",
                                "value": "0"
                            },
                            {
                                "name": "observationCardinality",
                                "type": "uint16",
                                "value": "1"
                            },
                            {
                                "name": "observationCardinalityNext",
                                "type": "uint16",
                                "value": "1"
                            },
                            {
                                "name": "feeProtocol",
                                "type": "uint8",
                                "value": "0"
                            },
                            {
                                "name": "unlocked",
                                "type": "bool",
                                "value": true
                            }
                        ],
                        "signature": "slot0()"
                    },
                    "errorInfo": "",
                    "fromAddress": "0x73a8a6f5d9762ea5f1de193ec19cdf476c7e86b1",
                    "gasUsed": 696,
                    "id": 1,
                    "methodDecoded": true,
                    "operation": "STATICCALL",
                    "output": "0x000000000000000000000000000000000000000000124b6076d1c72ac7739bb6fffffffffffffffffffffffffffffffffffffffffffffffffffffffffffd809c00000000000000000000000000000000000000000000000000000000000000000000000000000000000000000000000000000000000000000000000000000001000000000000000000000000000000000000000000000000000000000000000100000000000000000000000000000000000000000000000000000000000000000000000000000000000000000000000000000000000000000000000000000001",
                    "revert": false,
                    "revertMessage": "",
                    "selector": "0x3850c7bd",
                    "status": true,
                    "value": "0"
                },
                "nodeType": 0
            },
            "10": {
                "event": {
                    "contract": "0x120ffad35bb97a5baf9ab68f9dd7667864530245",
                    "decodedLog": {
                        "name": "Swap",
                        "params": [
                            {
                                "name": "sender",
                                "type": "address",
                                "value": "0x73a8a6f5d9762ea5f1de193ec19cdf476c7e86b1"
                            },
                            {
                                "name": "recipient",
                                "type": "address",
                                "value": "0x73a8a6f5d9762ea5f1de193ec19cdf476c7e86b1"
                            },
                            {
                                "name": "amount0",
                                "type": "int256",
                                "value": "-3,865,368,973,582,904,359,773,745"
                            },
                            {
                                "name": "amount1",
                                "type": "int256",
                                "value": "304,860,706,883,127,040"
                            },
                            {
                                "name": "sqrtPriceX96",
                                "type": "uint160",
                                "value": "22,160,832,376,125,412,999,188,110"
                            },
                            {
                                "name": "liquidity",
                                "type": "uint128",
                                "value": "540,865,103,119,708,969,874,144"
                            },
                            {
                                "name": "tick",
                                "type": "int24",
                                "value": "-163,644"
                            }
                        ],
                        "signature": "Swap(address,address,int256,int256,uint160,uint128,int24)"
                    },
                    "id": 10,
                    "logData": "0xfffffffffffffffffffffffffffffffffffffffffffccd79ed95f0e2fcde19cf000000000000000000000000000000000000000000000000043b15329bbe47000000000000000000000000000000000000000000001254bd215c4408ffd04e8e0000000000000000000000000000000000000000000072885b223d3e68e1b2e0fffffffffffffffffffffffffffffffffffffffffffffffffffffffffffd80c4",
                    "logDecoded": true,
                    "operation": "EVENT",
                    "revert": false,
                    "status": true,
                    "topics": [
                        "0xc42079f94a6350d7e6235f29174924f928cc2ac818eb64fed8004e115fbcca67",
                        "0x00000000000000000000000073a8a6f5d9762ea5f1de193ec19cdf476c7e86b1",
                        "0x00000000000000000000000073a8a6f5d9762ea5f1de193ec19cdf476c7e86b1"
                    ]
                },
                "nodeType": 1
            },
            "2": {
                "invocation": {
                    "address": "0x120ffad35bb97a5baf9ab68f9dd7667864530245",
                    "callData": "0x00000000000000000000000073a8a6f5d9762ea5f1de193ec19cdf476c7e86b10000000000000000000000000000000000000000000000000000000000000000000000000000000000000000000000000000000000000000043b15329bbe47000000000000000000000000000000000000000000001254f9322478fe0000000000000000000000000000000000000000000000000000000000000000000000a00000000000000000000000000000000000000000000000000000000000000000",
                    "decodedMethod": {
                        "callParams": [
                            {
                                "name": "recipient",
                                "type": "address",
                                "value": "0x73a8a6f5d9762ea5f1de193ec19cdf476c7e86b1"
                            },
                            {
                                "name": "zeroForOne",
                                "type": "bool",
                                "value": false
                            },
                            {
                                "name": "amountSpecified",
                                "type": "int256",
                                "value": "304,860,706,883,127,040"
                            },
                            {
                                "name": "sqrtPriceLimitX96",
                                "type": "uint160",
                                "value": "22,161,940,390,044,562,396,020,736"
                            },
                            {
                                "name": "data",
                                "type": "bytes",
                                "value": "0x"
                            }
                        ],
                        "constructorArguments": "",
                        "name": "swap",
                        "returnParams": [
                            {
                                "name": "amount0",
                                "type": "int256",
                                "value": "-3,865,368,973,582,904,359,773,745"
                            },
                            {
                                "name": "amount1",
                                "type": "int256",
                                "value": "304,860,706,883,127,040"
                            }
                        ],
                        "signature": "swap(address,bool,int256,uint160,bytes)"
                    },
                    "errorInfo": "",
                    "fromAddress": "0x73a8a6f5d9762ea5f1de193ec19cdf476c7e86b1",
                    "gasUsed": 50753,
                    "id": 2,
                    "methodDecoded": true,
                    "operation": "CALL",
                    "output": "0xfffffffffffffffffffffffffffffffffffffffffffccd79ed95f0e2fcde19cf000000000000000000000000000000000000000000000000043b15329bbe4700",
                    "revert": false,
                    "revertMessage": "",
                    "selector": "0x128acb08",
                    "status": true,
                    "value": "0"
                },
                "nodeType": 0
            },
            "3": {
                "invocation": {
                    "address": "0x594daad7d77592a2b97b725a7ad59d7e188b5bfa",
                    "callData": "0x00000000000000000000000073a8a6f5d9762ea5f1de193ec19cdf476c7e86b1000000000000000000000000000000000000000000033286126a0f1d0321e631",
                    "decodedMethod": {
                        "callParams": [
                            {
                                "name": "to",
                                "type": "address",
                                "value": "0x73a8a6f5d9762ea5f1de193ec19cdf476c7e86b1"
                            },
                            {
                                "decimalAvailable": true,
                                "name": "value",
                                "type": "uint256",
                                "value": "3,865,368,973,582,904,359,773,745"
                            }
                        ],
                        "constructorArguments": "",
                        "name": "transfer",
                        "returnParams": [
                            {
                                "name": "",
                                "type": "bool",
                                "value": true
                            }
                        ],
                        "signature": "transfer(address,uint256)"
                    },
                    "errorInfo": "",
                    "fromAddress": "0x120ffad35bb97a5baf9ab68f9dd7667864530245",
                    "gasUsed": 9450,
                    "id": 3,
                    "methodDecoded": true,
                    "operation": "CALL",
                    "output": "0x0000000000000000000000000000000000000000000000000000000000000001",
                    "revert": false,
                    "revertMessage": "",
                    "selector": "0xa9059cbb",
                    "status": true,
                    "value": "0"
                },
                "nodeType": 0
            },
            "4": {
                "event": {
                    "contract": "0x594daad7d77592a2b97b725a7ad59d7e188b5bfa",
                    "decodedLog": {
                        "name": "Transfer",
                        "params": [
                            {
                                "name": "from",
                                "type": "address",
                                "value": "0x120ffad35bb97a5baf9ab68f9dd7667864530245"
                            },
                            {
                                "name": "to",
                                "type": "address",
                                "value": "0x73a8a6f5d9762ea5f1de193ec19cdf476c7e86b1"
                            },
                            {
                                "decimalAvailable": true,
                                "name": "value",
                                "type": "uint256",
                                "value": "3,865,368,973,582,904,359,773,745"
                            }
                        ],
                        "signature": "Transfer(address,address,uint256)"
                    },
                    "id": 4,
                    "logData": "0x000000000000000000000000000000000000000000033286126a0f1d0321e631",
                    "logDecoded": true,
                    "operation": "EVENT",
                    "revert": false,
                    "status": true,
                    "topics": [
                        "0xddf252ad1be2c89b69c2b068fc378daa952ba7f163c4a11628f55a4df523b3ef",
                        "0x000000000000000000000000120ffad35bb97a5baf9ab68f9dd7667864530245",
                        "0x00000000000000000000000073a8a6f5d9762ea5f1de193ec19cdf476c7e86b1"
                    ]
                },
                "nodeType": 1
            },
            "5": {
                "invocation": {
                    "address": "0xc02aaa39b223fe8d0a0e5c4f27ead9083c756cc2",
                    "callData": "0x000000000000000000000000120ffad35bb97a5baf9ab68f9dd7667864530245",
                    "decodedMethod": {
                        "callParams": [
                            {
                                "name": "",
                                "type": "address",
                                "value": "0x120ffad35bb97a5baf9ab68f9dd7667864530245"
                            }
                        ],
                        "constructorArguments": "",
                        "name": "balanceOf",
                        "returnParams": [
                            {
                                "decimalAvailable": true,
                                "name": "",
                                "type": "uint256",
                                "value": "39,068,085,375,992,099,595"
                            }
                        ],
                        "signature": "balanceOf(address)"
                    },
                    "errorInfo": "",
                    "fromAddress": "0x120ffad35bb97a5baf9ab68f9dd7667864530245",
                    "gasUsed": 534,
                    "id": 5,
                    "methodDecoded": true,
                    "operation": "STATICCALL",
                    "output": "0x0000000000000000000000000000000000000000000000021e2db8a86aa4730b",
                    "revert": false,
                    "revertMessage": "",
                    "selector": "0x70a08231",
                    "status": true,
                    "value": "0"
                },
                "nodeType": 0
            },
            "6": {
                "invocation": {
                    "address": "0x73a8a6f5d9762ea5f1de193ec19cdf476c7e86b1",
                    "callData": "0xfffffffffffffffffffffffffffffffffffffffffffccd79ed95f0e2fcde19cf000000000000000000000000000000000000000000000000043b15329bbe470000000000000000000000000000000000000000000000000000000000000000600000000000000000000000000000000000000000000000000000000000000000",
                    "decodedMethod": {
                        "callParams": [
                            {
                                "name": "amount0Delta",
                                "type": "int256",
                                "value": "-3,865,368,973,582,904,359,773,745"
                            },
                            {
                                "name": "amount1Delta",
                                "type": "int256",
                                "value": "304,860,706,883,127,040"
                            },
                            {
                                "name": "data",
                                "type": "bytes",
                                "value": "0x"
                            }
                        ],
                        "constructorArguments": "",
                        "name": "uniswapV3SwapCallback",
                        "returnParams": [],
                        "signature": "uniswapV3SwapCallback(int256,int256,bytes)"
                    },
                    "errorInfo": "",
                    "fromAddress": "0x120ffad35bb97a5baf9ab68f9dd7667864530245",
                    "gasUsed": 11479,
                    "id": 6,
                    "methodDecoded": true,
                    "operation": "CALL",
                    "output": "",
                    "revert": false,
                    "revertMessage": "",
                    "selector": "0xfa461e33",
                    "status": true,
                    "value": "0"
                },
                "nodeType": 0
            },
            "7": {
                "invocation": {
                    "address": "0xc02aaa39b223fe8d0a0e5c4f27ead9083c756cc2",
                    "callData": "0x000000000000000000000000120ffad35bb97a5baf9ab68f9dd7667864530245000000000000000000000000000000000000000000000000043b15329bbe4700",
                    "decodedMethod": {
                        "callParams": [
                            {
                                "name": "dst",
                                "type": "address",
                                "value": "0x120ffad35bb97a5baf9ab68f9dd7667864530245"
                            },
                            {
                                "decimalAvailable": true,
                                "name": "wad",
                                "type": "uint256",
                                "value": "304,860,706,883,127,040"
                            }
                        ],
                        "constructorArguments": "",
                        "name": "transfer",
                        "returnParams": [
                            {
                                "name": "",
                                "type": "bool",
                                "value": true
                            }
                        ],
                        "signature": "transfer(address,uint256)"
                    },
                    "errorInfo": "",
                    "fromAddress": "0x73a8a6f5d9762ea5f1de193ec19cdf476c7e86b1",
                    "gasUsed": 8862,
                    "id": 7,
                    "methodDecoded": true,
                    "operation": "CALL",
                    "output": "0x0000000000000000000000000000000000000000000000000000000000000001",
                    "revert": false,
                    "revertMessage": "",
                    "selector": "0xa9059cbb",
                    "status": true,
                    "value": "0"
                },
                "nodeType": 0
            },
            "8": {
                "event": {
                    "contract": "0xc02aaa39b223fe8d0a0e5c4f27ead9083c756cc2",
                    "decodedLog": {
                        "name": "Transfer",
                        "params": [
                            {
                                "name": "src",
                                "type": "address",
                                "value": "0x73a8a6f5d9762ea5f1de193ec19cdf476c7e86b1"
                            },
                            {
                                "name": "dst",
                                "type": "address",
                                "value": "0x120ffad35bb97a5baf9ab68f9dd7667864530245"
                            },
                            {
                                "decimalAvailable": true,
                                "name": "wad",
                                "type": "uint256",
                                "value": "304,860,706,883,127,040"
                            }
                        ],
                        "signature": "Transfer(address,address,uint256)"
                    },
                    "id": 8,
                    "logData": "0x000000000000000000000000000000000000000000000000043b15329bbe4700",
                    "logDecoded": true,
                    "operation": "EVENT",
                    "revert": false,
                    "status": true,
                    "topics": [
                        "0xddf252ad1be2c89b69c2b068fc378daa952ba7f163c4a11628f55a4df523b3ef",
                        "0x00000000000000000000000073a8a6f5d9762ea5f1de193ec19cdf476c7e86b1",
                        "0x000000000000000000000000120ffad35bb97a5baf9ab68f9dd7667864530245"
                    ]
                },
                "nodeType": 1
            },
            "9": {
                "invocation": {
                    "address": "0xc02aaa39b223fe8d0a0e5c4f27ead9083c756cc2",
                    "callData": "0x000000000000000000000000120ffad35bb97a5baf9ab68f9dd7667864530245",
                    "decodedMethod": {
                        "callParams": [
                            {
                                "name": "",
                                "type": "address",
                                "value": "0x120ffad35bb97a5baf9ab68f9dd7667864530245"
                            }
                        ],
                        "constructorArguments": "",
                        "name": "balanceOf",
                        "returnParams": [
                            {
                                "decimalAvailable": true,
                                "name": "",
                                "type": "uint256",
                                "value": "39,372,946,082,875,226,635"
                            }
                        ],
                        "signature": "balanceOf(address)"
                    },
                    "errorInfo": "",
                    "fromAddress": "0x120ffad35bb97a5baf9ab68f9dd7667864530245",
                    "gasUsed": 534,
                    "id": 9,
                    "methodDecoded": true,
                    "operation": "STATICCALL",
                    "output": "0x0000000000000000000000000000000000000000000000022268cddb0662ba0b",
                    "revert": false,
                    "revertMessage": "",
                    "selector": "0x70a08231",
                    "status": true,
                    "value": "0"
                },
                "nodeType": 0
            }
        },
        "gasFlame": [
            {
                "children": [
                    {
                        "children": [
                            {
                                "children": [],
                                "depth": 0,
                                "name": "Initial Gas",
                                "value": 50796
                            },
                            {
                                "children": [
                                    {
                                        "children": [],
                                        "depth": 1,
                                        "name": "slot0",
                                        "value": 696
                                    },
                                    {
                                        "children": [
                                            {
                                                "children": [],
                                                "depth": 2,
                                                "name": "transfer",
                                                "value": 9450
                                            },
                                            {
                                                "children": [],
                                                "depth": 2,
                                                "name": "balanceOf",
                                                "value": 534
                                            },
                                            {
                                                "children": [
                                                    {
                                                        "children": [],
                                                        "depth": 3,
                                                        "name": "transfer",
                                                        "value": 8862
                                                    }
                                                ],
                                                "depth": 2,
                                                "name": "uniswapV3SwapCallback",
                                                "value": 11479
                                            },
                                            {
                                                "children": [],
                                                "depth": 2,
                                                "name": "balanceOf",
                                                "value": 534
                                            }
                                        ],
                                        "depth": 1,
                                        "name": "swap",
                                        "value": 50753
                                    }
                                ],
                                "depth": 0,
                                "name": "Executed Gas",
                                "value": 54487
                            }
                        ],
                        "depth": -1,
                        "name": "Actual Gas Used",
                        "value": 105283
                    },
                    {
                        "children": [],
                        "depth": -1,
                        "name": "Refunded Gas",
                        "value": 0
                    }
                ],
                "depth": -2,
                "name": "Total Gas",
                "value": 105283
            }
        ],
        "isConfirmed": true,
        "mainTrace": [
            {
                "children": [
                    {
                        "children": [
                            {
                                "children": [],
                                "depth": 1,
                                "id": 1,
                                "order": 1
                            },
                            {
                                "children": [
                                    {
                                        "children": [
                                            {
                                                "children": [],
                                                "depth": 3,
                                                "id": 4,
                                                "order": 4
                                            }
                                        ],
                                        "depth": 2,
                                        "id": 3,
                                        "order": 3
                                    },
                                    {
                                        "children": [],
                                        "depth": 2,
                                        "id": 5,
                                        "order": 5
                                    },
                                    {
                                        "children": [
                                            {
                                                "children": [
                                                    {
                                                        "children": [],
                                                        "depth": 4,
                                                        "id": 8,
                                                        "order": 8
                                                    }
                                                ],
                                                "depth": 3,
                                                "id": 7,
                                                "order": 7
                                            }
                                        ],
                                        "depth": 2,
                                        "id": 6,
                                        "order": 6
                                    },
                                    {
                                        "children": [],
                                        "depth": 2,
                                        "id": 9,
                                        "order": 9
                                    },
                                    {
                                        "children": [],
                                        "depth": 2,
                                        "id": 10,
                                        "order": 10
                                    }
                                ],
                                "depth": 1,
                                "id": 2,
                                "order": 2
                            }
                        ],
                        "depth": 0,
                        "id": 0,
                        "order": 0
                    }
                ],
                "depth": -1,
                "id": -1,
                "order": -1
            }
        ],
        "mainTraceNodeCount": 11,
        "parentIdMap": {
            "0": -1,
            "1": 0,
            "10": 2,
            "2": 0,
            "3": 2,
            "4": 3,
            "5": 2,
            "6": 2,
            "7": 6,
            "8": 7,
            "9": 2
        },
        "tidyTrace": [
            {
                "children": [
                    {
                        "children": [
                            {
                                "children": [
                                    {
                                        "children": [
                                            {
                                                "children": [],
                                                "depth": 3,
                                                "id": 4,
                                                "order": 4
                                            }
                                        ],
                                        "depth": 2,
                                        "id": 3,
                                        "order": 3
                                    },
                                    {
                                        "children": [
                                            {
                                                "children": [
                                                    {
                                                        "children": [],
                                                        "depth": 4,
                                                        "id": 8,
                                                        "order": 8
                                                    }
                                                ],
                                                "depth": 3,
                                                "id": 7,
                                                "order": 7
                                            }
                                        ],
                                        "depth": 2,
                                        "id": 6,
                                        "order": 6
                                    },
                                    {
                                        "children": [],
                                        "depth": 2,
                                        "id": 10,
                                        "order": 10
                                    }
                                ],
                                "depth": 1,
                                "id": 2,
                                "order": 2
                            }
                        ],
                        "depth": 0,
                        "id": 0,
                        "order": 0
                    }
                ],
                "depth": -1,
                "id": -1,
                "order": -1
            }
        ],
        "tidyTraceNodeCount": 8
    },
    "state_change": {
        "stateChanges": [
            {
                "address": "0x120ffad35bb97a5baf9ab68f9dd7667864530245",
                "erc": "",
                "slots": [
                    {
                        "current": "0x000100000100010000fd80c40000000000000000001254bd215c4408ffd04e8e",
                        "key": "0x0000000000000000000000000000000000000000000000000000000000000000",
                        "prev": "0x000100000100010000fd809c000000000000000000124b6076d1c72ac7739bb6"
                    },
                    {
                        "current": "0x01000000000000000000000737477cf05191e598fdfffda82f8f3f1466e668af",
                        "key": "0x0000000000000000000000000000000000000000000000000000000000000008",
                        "prev": "0x010000000000000000000007373da3aa8d55da9378fffda83a908fb466e66447"
                    },
                    {
                        "current": "0x00000000000000000000000000000000001162e3f26782e6743be9dc140bff92",
                        "key": "0x0000000000000000000000000000000000000000000000000000000000000002",
                        "prev": "0x00000000000000000000000000000000001162cbbcf6eba8bc103faff0cf82b0"
                    }
                ],
                "storageVariables": []
            },
            {
                "address": "0x594daad7d77592a2b97b725a7ad59d7e188b5bfa",
                "erc": "ERC-20",
                "slots": [
                    {
                        "current": "0x000000000000000000000000000000000000000014b06feca00d890fbe258e8b",
                        "key": "0xf5c6d0b075e55fb9e303c650df099af94b31c44806531f73284a0b59e17776f5",
                        "prev": "0x000000000000000000000000000000000000000014b3a272b277982cc14774bc"
                    },
                    {
                        "current": "0x000000000000000000000000000000000000000000188acb40324ec9b65280c9",
                        "key": "0x9dc5eb3d27cb2c08cfea59d257220807b368ce2ca650d08908c0f15ad6adb23b",
                        "prev": "0x0000000000000000000000000000000000000000001558452dc83facb3309a98"
                    }
                ],
                "storageVariables": [
                    {
                        "name": "_balances",
                        "type": "mapping(address => uint256)",
                        "value": {
                            "pairs": [
                                {
                                    "key": "0x120ffad35bb97a5baf9ab68f9dd7667864530245",
                                    "value": {
                                        "current": "6402999688323300956790165131",
                                        "prev": "6406865057296883861149938876",
                                        "typeTag": 1
                                    }
                                },
                                {
                                    "key": "0x73a8a6f5d9762ea5f1de193ec19cdf476c7e86b1",
                                    "value": {
                                        "current": "29669655560280469788590281",
                                        "prev": "25804286586697565428816536",
                                        "typeTag": 1
                                    }
                                }
                            ],
                            "typeTag": 4
                        }
                    }
                ]
            },
            {
                "address": "0xc02aaa39b223fe8d0a0e5c4f27ead9083c756cc2",
                "erc": "ERC-20",
                "slots": [
                    {
                        "current": "0x0000000000000000000000000000000000000000000000037398d5a8ec69a2bc",
                        "key": "0xef05b70d6922602045a2d6c3284661dacec00eddb1e1ad3169291e4e16e6a863",
                        "prev": "0x00000000000000000000000000000000000000000000000377d3eadb8827e9bc"
                    },
                    {
                        "current": "0x0000000000000000000000000000000000000000000000022268cddb0662ba0b",
                        "key": "0xc45e29962d4f976cc18ad71b45cc6d9a3af609009751adb6724cffb4416a5fb4",
                        "prev": "0x0000000000000000000000000000000000000000000000021e2db8a86aa4730b"
                    }
                ],
                "storageVariables": [
                    {
                        "name": "balanceOf",
                        "type": "mapping(address => uint256)",
                        "value": {
                            "pairs": [
                                {
                                    "key": "0x120ffad35bb97a5baf9ab68f9dd7667864530245",
                                    "value": {
                                        "current": "39372946082875226635",
                                        "prev": "39068085375992099595",
                                        "typeTag": 1
                                    }
                                },
                                {
                                    "key": "0x73a8a6f5d9762ea5f1de193ec19cdf476c7e86b1",
                                    "value": {
                                        "current": "63669874653447955132",
                                        "prev": "63974735360331082172",
                                        "typeTag": 1
                                    }
                                }
                            ],
                            "typeTag": 4
                        }
                    }
                ]
            }
        ]
    }
}