{
    "balance_change": {
        "balanceChanges": [
            {
                "account": "0x708396f17127c42383e3b9014072679b2f60b82f",
                "assets": [
                    {
                        "address": "0xa91ac63d040deb1b7a5e4d4134ad23eb0ba07e14",
                        "amount": "5,236.06",
                        "iconUrl": "",
                        "isERC1155": false,
                        "isERC721": false,
                        "sign": false,
                        "value": "7652.25838"
                    }
                ]
            },
            {
                "account": "0x1717373356e1b76af9ab4d6f31390581c23f28dd",
                "assets": [
                    {
                        "address": "0xa91ac63d040deb1b7a5e4d4134ad23eb0ba07e14",
                        "amount": "5,236.06",
                        "iconUrl": "",
                        "isERC1155": false,
                        "isERC721": false,
                        "sign": true,
                        "value": "7652.25838"
                    }
                ]
            }
        ]
    },
    "profile": {
        "basic_info": {
            "baseFee": "",
            "blockNumber": 11730421,
            "callData": "0xa9059cbb0000000000000000000000001717373356e1b76af9ab4d6f31390581c23f28dd00000000000000000000000000000000000000000000011bd8edfc2a47d60000",
            "debugEnable": true,
            "errorInfo": "",
            "eventCount": 1,
            "feeRecipient": "0x99c85bb64564d9ef9a99621301f22c9993cb89e3",
            "formatValue": "0",
            "gasLimit": 207128,
            "gasPrice": "94",
            "gasUsed": 53828,
            "intTxnCount": 0,
            "internalRevert": false,
            "internalRevertMessage": "",
            "isContractCreation": false,
            "isFlashloan": false,
            "maxFee": "",
            "nonce": 121061,
            "overwritedBlockNumber": -1,
            "priorityFee": "",
            "receiver": "0xa91ac63d040deb1b7a5e4d4134ad23eb0ba07e14",
            "revertMessage": "",
            "sender": "0x708396f17127c42383e3b9014072679b2f60b82f",
            "simulationEnable": true,
            "sourceTxnHash": "0x4ed5f0e2a9aa17a81cc8173d6629753c1bb0719de7383b4da3c89a15e8717178",
            "status": true,
            "timestamp": "2021-01-26T09:16:12Z",
            "transactionFee": "0.005059832",
            "txnHash": "0x4ed5f0e2a9aa17a81cc8173d6629753c1bb0719de7383b4da3c89a15e8717178",
            "txnIndex": 74,
            "type": 0,
            "value": "0"
        },
        "fund_flow": [
            {
                "amount": "5,236.06",
                "from": "0x708396f17127c42383e3b9014072679b2f60b82f",
                "id": 1,
                "isERC1155": false,
                "isERC721": false,
                "isReverted": false,
                "order": 1,
                "to": "0x1717373356e1b76af9ab4d6f31390581c23f28dd",
                "token": "0xa91ac63d040deb1b7a5e4d4134ad23eb0ba07e14"
            }
        ],
        "token_infos": [
            {
                "address": "0xa91ac63d040deb1b7a5e4d4134ad23eb0ba07e14",
                "decimals": 18
            },
            {
                "address": "0xc02aaa39b223fe8d0a0e5c4f27ead9083c756cc2",
                "decimals": 18
            },
            {
                "address": "0xeeeeeeeeeeeeeeeeeeeeeeeeeeeeeeeeeeeeeeee",
                "decimals": 18
            }
        ]
    },
    "address_label": {
        "labels": [
            {
                "address": "0xa91ac63d040deb1b7a5e4d4134ad23eb0ba07e14",
                "label": "Bella: BEL Token"
            },
            {
                "address": "0x708396f17127c42383e3b9014072679b2f60b82f",
                "label": "Binance 11"
            },
            {
                "address": "0x0000000000000000000000000000000000000001",
                "label": "Precompiled"
            },
            {
                "address": "0x0000000000000000000000000000000000000002",
                "label": "Precompiled"
            },
            {
                "address": "0x0000000000000000000000000000000000000003",
                "label": "Precompiled"
            },
            {
                "address": "0x0000000000000000000000000000000000000004",
                "label": "Precompiled"
            },
            {
                "address": "0xeeeeeeeeeeeeeeeeeeeeeeeeeeeeeeeeeeeeeeee",
                "label": "Ether"
            }
        ]
    },
    "trace": {
        "accountLabels": null,
        "dataMap": {
            "-1": {
                "invocation": {
                    "address": "0x708396f17127c42383e3b9014072679b2f60b82f",
                    "callData": "",
                    "decodedMethod": null,
                    "errorInfo": "",
                    "fromAddress": "",
                    "gasUsed": 0,
                    "id": -1,
                    "methodDecoded": false,
                    "operation": "",
                    "output": "",
                    "revert": false,
                    "revertMessage": "",
                    "selector": "",
                    "status": false,
                    "value": ""
                },
                "nodeType": 0
            },
            "0": {
                "invocation": {
                    "address": "0xa91ac63d040deb1b7a5e4d4134ad23eb0ba07e14",
                    "callData": "0x0000000000000000000000001717373356e1b76af9ab4d6f31390581c23f28dd00000000000000000000000000000000000000000000011bd8edfc2a47d60000",
                    "decodedMethod": {
                        "callParams": [
                            {
                                "name": "to",
                                "type": "address",
                                "value": "0x1717373356e1b76af9ab4d6f31390581c23f28dd"
                            },
                            {
                                "decimalAvailable": true,
                                "name": "value",
                                "type": "uint256",
                                "value": "5,236,060,000,000,000,000,000"
                            }
                        ],
                        "constructorArguments": "",
                        "name": "transfer",
                        "returnParams": [
                            {
                                "name": "",
                                "type": "bool",
                                "value": true
                            }
                        ],
                        "signature": "transfer(address,uint256)"
                    },
                    "errorInfo": "",
                    "fromAddress": "0x708396f17127c42383e3b9014072679b2f60b82f",
                    "gasUsed": 53828,
                    "id": 0,
                    "methodDecoded": true,
                    "operation": "CALL",
                    "output": "0x0000000000000000000000000000000000000000000000000000000000000001",
                    "revert": false,
                    "revertMessage": "",
                    "selector": "0xa9059cbb",
                    "status": true,
                    "value": "0"
                },
                "nodeType": 0
            },
            "1": {
                "event": {
                    "contract": "0xa91ac63d040deb1b7a5e4d4134ad23eb0ba07e14",
                    "decodedLog": {
                        "name": "Transfer",
                        "params": [
                            {
                                "name": "from",
                                "type": "address",
                                "value": "0x708396f17127c42383e3b9014072679b2f60b82f"
                            },
                            {
                                "name": "to",
                                "type": "address",
                                "value": "0x1717373356e1b76af9ab4d6f31390581c23f28dd"
                            },
                            {
                                "decimalAvailable": true,
                                "name": "value",
                                "type": "uint256",
                                "value": "5,236,060,000,000,000,000,000"
                            }
                        ],
                        "signature": "Transfer(address,address,uint256)"
                    },
                    "id": 1,
                    "logData": "0x00000000000000000000000000000000000000000000011bd8edfc2a47d60000",
                    "logDecoded": true,
                    "operation": "EVENT",
                    "revert": false,
                    "status": true,
                    "topics": [
                        "0xddf252ad1be2c89b69c2b068fc378daa952ba7f163c4a11628f55a4df523b3ef",
                        "0x000000000000000000000000708396f17127c42383e3b9014072679b2f60b82f",
                        "0x0000000000000000000000001717373356e1b76af9ab4d6f31390581c23f28dd"
                    ]
                },
                "nodeType": 1
            }
        },
        "gasFlame": [
            {
                "children": [
                    {
                        "children": [
                            {
                                "children": [],
                                "depth": 0,
                                "name": "Initial Gas",
                                "value": 21656
                            },
                            {
                                "children": [],
                                "depth": 0,
                                "name": "Executed Gas",
                                "value": 32172
                            }
                        ],
                        "depth": -1,
                        "name": "Actual Gas Used",
                        "value": 53828
                    },
                    {
                        "children": [],
                        "depth": -1,
                        "name": "Refunded Gas",
                        "value": 0
                    }
                ],
                "depth": -2,
                "name": "Total Gas",
                "value": 53828
            }
        ],
        "isConfirmed": true,
        "mainTrace": [
            {
                "children": [
                    {
                        "children": [
                            {
                                "children": [],
                                "depth": 1,
                                "id": 1,
                                "order": 1
                            }
                        ],
                        "depth": 0,
                        "id": 0,
                        "order": 0
                    }
                ],
                "depth": -1,
                "id": -1,
                "order": -1
            }
        ],
        "mainTraceNodeCount": 2,
        "parentIdMap": {
            "0": -1,
            "1": 0
        },
        "tidyTrace": [
            {
                "children": [
                    {
                        "children": [
                            {
                                "children": [],
                                "depth": 1,
                                "id": 1,
                                "order": 1
                            }
                        ],
                        "depth": 0,
                        "id": 0,
                        "order": 0
                    }
                ],
                "depth": -1,
                "id": -1,
                "order": -1
            }
        ],
        "tidyTraceNodeCount": 2
    },
    "state_change": {
        "stateChanges": [
            {
                "address": "0xa91ac63d040deb1b7a5e4d4134ad23eb0ba07e14",
                "erc": "ERC-20",
                "slots": [
                    {
                        "current": "0x00000000000000000000000000000000000000000000097e768ea22ef87d6800",
                        "key": "0x4cfd15e622d534a28b9554a080f266850741d6ea4003de1f38c135fdb17f265a",
                        "prev": "0x000000000000000000000000000000000000000000000a9a4f7c9e5940536800"
                    },
                    {
                        "current": "0x00000000000000000000000000000000000000000000011bd8edfc2a47d60000",
                        "key": "0x3f447aa65e964c9bbd272740e5db67ebac5ebfae3795a4ad3390c7616e591d44",
                        "prev": "0x0000000000000000000000000000000000000000000000000000000000000000"
                    }
                ],
                "storageVariables": [
                    {
                        "name": "_balances",
                        "type": "mapping(address => uint256)",
                        "value": {
                            "pairs": [
                                {
                                    "key": "0x1717373356e1b76af9ab4d6f31390581c23f28dd",
                                    "value": {
                                        "current": "5236060000000000000000",
                                        "prev": "0",
                                        "typeTag": 1
                                    }
                                },
                                {
                                    "key": "0x708396f17127c42383e3b9014072679b2f60b82f",
                                    "value": {
                                        "current": "44834131042980000000000",
                                        "prev": "50070191042980000000000",
                                        "typeTag": 1
                                    }
                                }
                            ],
                            "typeTag": 4
                        }
                    }
                ]
            }
        ]
    }
}