{
    "balance_change": {
        "balanceChanges": [
            {
                "account": "0x405721adec69d6aa4b6a52daed99a933a4ac6b13",
                "assets": [
                    {
                        "address": "0x8c130499d33097d4d000d3332e1672f75b431543",
                        "amount": "200,158,997,883.05908644",
                        "iconUrl": "",
                        "isERC1155": false,
                        "isERC721": false,
                        "sign": true,
                        "value": "588.5700453"
                    },
                    {
                        "address": "0xeeeeeeeeeeeeeeeeeeeeeeeeeeeeeeeeeeeeeeee",
                        "amount": "0.32",
                        "iconUrl": "https://assets.blocksec.com/image/1663669189317-3.png",
                        "isERC1155": false,
                        "isERC721": false,
                        "sign": false,
                        "value": "607.77279999999998833"
                    }
                ]
            },
            {
                "account": "0x25942771b17f3790bf32cae7af7d539ce42cdc79",
                "assets": [
                    {
                        "address": "0xc02aaa39b223fe8d0a0e5c4f27ead9083c756cc2",
                        "amount": "0.32",
                        "iconUrl": "https://assets.blocksec.com/icon/f1cb2d02c471d545bbc7722daf3277fd852d98e63d118771af7047bd8256c516.png",
                        "isERC1155": false,
                        "isERC721": false,
                        "sign": true,
                        "value": "607.77279999999998833"
                    },
                    {
                        "address": "0x8c130499d33097d4d000d3332e1672f75b431543",
                        "amount": "202,180,805,942.48392569",
                        "iconUrl": "",
                        "isERC1155": false,
                        "isERC721": false,
                        "sign": false,
                        "value": "586.2277225"
                    }
                ]
            },
            {
                "account": "0x8c130499d33097d4d000d3332e1672f75b431543",
                "assets": [
                    {
                        "address": "0x8c130499d33097d4d000d3332e1672f75b431543",
                        "amount": "2,021,808,059.42483925",
                        "iconUrl": "",
                        "isERC1155": false,
                        "isERC721": false,
                        "sign": true,
                        "value": "5.98732745"
                    }
                ]
            },
            {
                "account": "0xc02aaa39b223fe8d0a0e5c4f27ead9083c756cc2",
                "assets": [
                    {
                        "address": "0xeeeeeeeeeeeeeeeeeeeeeeeeeeeeeeeeeeeeeeee",
                        "amount": "0.32",
                        "iconUrl": "https://assets.blocksec.com/image/1663669189317-3.png",
                        "isERC1155": false,
                        "isERC721": false,
                        "sign": true,
                        "value": "607.77279999999998833"
                    },
                    {
                        "address": "0xc02aaa39b223fe8d0a0e5c4f27ead9083c756cc2",
                        "amount": "0.32",
                        "iconUrl": "https://assets.blocksec.com/icon/f1cb2d02c471d545bbc7722daf3277fd852d98e63d118771af7047bd8256c516.png",
                        "isERC1155": false,
                        "isERC721": false,
                        "sign": false,
                        "value": "607.77279999999998833"
                    }
                ]
            }
        ]
    },
    "profile": {
        "basic_info": {
            "baseFee": "19.435955983",
            "blockNumber": 17738549,
            "callData": "0x3593564c000000000000000000000000000000000000000000000000000000000000006000000000000000000000000000000000000000000000000000000000000000a00000000000000000000000000000000000000000000000000000000064b9f45b00000000000000000000000000000000000000000000000000000000000000020b080000000000000000000000000000000000000000000000000000000000000000000000000000000000000000000000000000000000000000000000000002000000000000000000000000000000000000000000000000000000000000004000000000000000000000000000000000000000000000000000000000000000a0000000000000000000000000000000000000000000000000000000000000004000000000000000000000000000000000000000000000000000000000000000020000000000000000000000000000000000000000000000000470de4df8200000000000000000000000000000000000000000000000000000000000000000010000000000000000000000000000000000000000000000000000000000000000010000000000000000000000000000000000000000000000000470de4df820000000000000000000000000000000000000000000000000000115ace89b3c98389d00000000000000000000000000000000000000000000000000000000000000a000000000000000000000000000000000000000000000000000000000000000000000000000000000000000000000000000000000000000000000000000000002000000000000000000000000c02aaa39b223fe8d0a0e5c4f27ead9083c756cc20000000000000000000000008c130499d33097d4d000d3332e1672f75b431543",
            "debugEnable": true,
            "errorInfo": "",
            "eventCount": 6,
            "feeRecipient": "0x199d5ed7f45f4ee35960cf22eade2076e95b253f",
            "formatValue": "0.32",
            "gasLimit": 203983,
            "gasPrice": "19.556955983",
            "gasUsed": 152704,
            "intTxnCount": 10,
            "internalRevert": false,
            "internalRevertMessage": "",
            "isContractCreation": false,
            "isFlashloan": false,
            "maxFee": "26.27",
            "nonce": 83,
            "overwritedBlockNumber": -1,
            "priorityFee": "0.121",
            "receiver": "0x3fc91a3afd70395cd496c647d5a6cc9d4b2b7fad",
            "revertMessage": "",
            "sender": "0x405721adec69d6aa4b6a52daed99a933a4ac6b13",
            "simulationEnable": true,
            "sourceTxnHash": "0x4e3ce398ec35cf2f58aa839b75923dbfc8423a4241c6b2171e59ecc5f9b88561",
            "status": true,
            "timestamp": "2023-07-21T02:28:59Z",
            "transactionFee": "0.002986425406428032",
            "txnHash": "0x4e3ce398ec35cf2f58aa839b75923dbfc8423a4241c6b2171e59ecc5f9b88561",
            "txnIndex": 100,
            "type": 2,
            "value": "320000000000000000"
        },
        "fund_flow": [
            {
                "amount": "0.32",
                "from": "0x405721adec69d6aa4b6a52daed99a933a4ac6b13",
                "id": 1,
                "isERC1155": false,
                "isERC721": false,
                "isReverted": false,
                "order": 1,
                "to": "0x3fc91a3afd70395cd496c647d5a6cc9d4b2b7fad",
                "token": "0xeeeeeeeeeeeeeeeeeeeeeeeeeeeeeeeeeeeeeeee"
            },
            {
                "amount": "0.32",
                "from": "0x3fc91a3afd70395cd496c647d5a6cc9d4b2b7fad",
                "id": 2,
                "isERC1155": false,
                "isERC721": false,
                "isReverted": false,
                "order": 2,
                "to": "0xc02aaa39b223fe8d0a0e5c4f27ead9083c756cc2",
                "token": "0xeeeeeeeeeeeeeeeeeeeeeeeeeeeeeeeeeeeeeeee"
            },
            {
                "amount": "0.32",
                "from": "0xc02aaa39b223fe8d0a0e5c4f27ead9083c756cc2",
                "id": 3,
                "isERC1155": false,
                "isERC721": false,
                "isReverted": false,
                "order": 3,
                "to": "0x3fc91a3afd70395cd496c647d5a6cc9d4b2b7fad",
                "token": "0xc02aaa39b223fe8d0a0e5c4f27ead9083c756cc2"
            },
            {
                "amount": "0.32",
                "from": "0x3fc91a3afd70395cd496c647d5a6cc9d4b2b7fad",
                "id": 4,
                "isERC1155": false,
                "isERC721": false,
                "isReverted": false,
                "order": 4,
                "to": "0x25942771b17f3790bf32cae7af7d539ce42cdc79",
                "token": "0xc02aaa39b223fe8d0a0e5c4f27ead9083c756cc2"
            },
            {
                "amount": "2,021,808,059.42483925",
                "from": "0x25942771b17f3790bf32cae7af7d539ce42cdc79",
                "id": 5,
                "isERC1155": false,
                "isERC721": false,
                "isReverted": false,
                "order": 5,
                "to": "0x8c130499d33097d4d000d3332e1672f75b431543",
                "token": "0x8c130499d33097d4d000d3332e1672f75b431543"
            },
            {
                "amount": "200,158,997,883.05908644",
                "from": "0x25942771b17f3790bf32cae7af7d539ce42cdc79",
                "id": 6,
                "isERC1155": false,
                "isERC721": false,
                "isReverted": false,
                "order": 6,
                "to": "0x405721adec69d6aa4b6a52daed99a933a4ac6b13",
                "token": "0x8c130499d33097d4d000d3332e1672f75b431543"
            }
        ],
        "token_infos": [
            {
                "address": "0x8c130499d33097d4d000d3332e1672f75b431543",
                "decimals": 8
            },
            {
                "address": "0xc02aaa39b223fe8d0a0e5c4f27ead9083c756cc2",
                "decimals": 18
            },
            {
                "address": "0xeeeeeeeeeeeeeeeeeeeeeeeeeeeeeeeeeeeeeeee",
                "decimals": 18
            }
        ]
    },
    "address_label": {
        "labels": [
            {
                "address": "0xc02aaa39b223fe8d0a0e5c4f27ead9083c756cc2",
                "label": "Wrapped Ether (WETH)"
            },
            {
                "address": "0x25942771b17f3790bf32cae7af7d539ce42cdc79",
                "label": "Uniswap V2: HOPPY 2"
            },
            {
                "address": "0x0000000000000000000000000000000000000001",
                "label": "Precompiled"
            },
            {
                "address": "0x0000000000000000000000000000000000000003",
                "label": "Precompiled"
            },
            {
                "address": "0xeeeeeeeeeeeeeeeeeeeeeeeeeeeeeeeeeeeeeeee",
                "label": "Ether"
            },
            {
                "address": "0x8c130499d33097d4d000d3332e1672f75b431543",
                "label": "Hoppy (HOPPY)"
            },
            {
                "address": "0x3fc91a3afd70395cd496c647d5a6cc9d4b2b7fad",
                "label": "Uniswap: Universal Router"
            },
            {
                "address": "0x0000000000000000000000000000000000000002",
                "label": "Precompiled"
            },
            {
                "address": "0x0000000000000000000000000000000000000004",
                "label": "Precompiled"
            }
        ]
    },
    "trace": {
        "accountLabels": null,
        "dataMap": {
            "-1": {
                "invocation": {
                    "address": "0x405721adec69d6aa4b6a52daed99a933a4ac6b13",
                    "callData": "",
                    "decodedMethod": null,
                    "errorInfo": "",
                    "fromAddress": "",
                    "gasUsed": 0,
                    "id": -1,
                    "methodDecoded": false,
                    "operation": "",
                    "output": "",
                    "revert": false,
                    "revertMessage": "",
                    "selector": "",
                    "status": false,
                    "value": ""
                },
                "nodeType": 0
            },
            "0": {
                "invocation": {
                    "address": "0x3fc91a3afd70395cd496c647d5a6cc9d4b2b7fad",
                    "callData": "0x000000000000000000000000000000000000000000000000000000000000006000000000000000000000000000000000000000000000000000000000000000a00000000000000000000000000000000000000000000000000000000064b9f45b00000000000000000000000000000000000000000000000000000000000000020b080000000000000000000000000000000000000000000000000000000000000000000000000000000000000000000000000000000000000000000000000002000000000000000000000000000000000000000000000000000000000000004000000000000000000000000000000000000000000000000000000000000000a0000000000000000000000000000000000000000000000000000000000000004000000000000000000000000000000000000000000000000000000000000000020000000000000000000000000000000000000000000000000470de4df8200000000000000000000000000000000000000000000000000000000000000000010000000000000000000000000000000000000000000000000000000000000000010000000000000000000000000000000000000000000000000470de4df820000000000000000000000000000000000000000000000000000115ace89b3c98389d00000000000000000000000000000000000000000000000000000000000000a000000000000000000000000000000000000000000000000000000000000000000000000000000000000000000000000000000000000000000000000000000002000000000000000000000000c02aaa39b223fe8d0a0e5c4f27ead9083c756cc20000000000000000000000008c130499d33097d4d000d3332e1672f75b431543",
                    "decodedMethod": {
                        "callParams": [
                            {
                                "name": "commands",
                                "type": "bytes",
                                "value": "0x0b08"
                            },
                            {
                                "name": "inputs",
                                "type": "bytes[]",
                                "value": [
                                    "0x00000000000000000000000000000000000000000000000000000000000000020000000000000000000000000000000000000000000000000470de4df8200000",
                                    "0x00000000000000000000000000000000000000000000000000000000000000010000000000000000000000000000000000000000000000000470de4df820000000000000000000000000000000000000000000000000000115ace89b3c98389d00000000000000000000000000000000000000000000000000000000000000a000000000000000000000000000000000000000000000000000000000000000000000000000000000000000000000000000000000000000000000000000000002000000000000000000000000c02aaa39b223fe8d0a0e5c4f27ead9083c756cc20000000000000000000000008c130499d33097d4d000d3332e1672f75b431543"
                                ]
                            },
                            {
                                "name": "deadline",
                                "type": "uint256",
                                "value": "1,689,908,315"
                            }
                        ],
                        "constructorArguments": "",
                        "name": "execute",
                        "returnParams": [],
                        "signature": "execute(bytes,bytes[],uint256)"
                    },
                    "errorInfo": "",
                    "fromAddress": "0x405721adec69d6aa4b6a52daed99a933a4ac6b13",
                    "gasUsed": 152704,
                    "id": 0,
                    "methodDecoded": true,
                    "operation": "CALL",
                    "output": "",
                    "revert": false,
                    "revertMessage": "",
                    "selector": "0x3593564c",
                    "status": true,
                    "value": "0.32"
                },
                "nodeType": 0
            },
            "1": {
                "invocation": {
                    "address": "0xc02aaa39b223fe8d0a0e5c4f27ead9083c756cc2",
                    "callData": "0x",
                    "decodedMethod": {
                        "callParams": [],
                        "constructorArguments": "",
                        "name": "deposit",
                        "returnParams": [],
                        "signature": "deposit()"
                    },
                    "errorInfo": "",
                    "fromAddress": "0x3fc91a3afd70395cd496c647d5a6cc9d4b2b7fad",
                    "gasUsed": 23974,
                    "id": 1,
                    "methodDecoded": true,
                    "operation": "CALL",
                    "output": "",
                    "revert": false,
                    "revertMessage": "",
                    "selector": "0xd0e30db0",
                    "status": true,
                    "value": "0.32"
                },
                "nodeType": 0
            },
            "10": {
                "event": {
                    "contract": "0x8c130499d33097d4d000d3332e1672f75b431543",
                    "decodedLog": {
                        "name": "Transfer",
                        "params": [
                            {
                                "name": "from",
                                "type": "address",
                                "value": "0x25942771b17f3790bf32cae7af7d539ce42cdc79"
                            },
                            {
                                "name": "to",
                                "type": "address",
                                "value": "0x8c130499d33097d4d000d3332e1672f75b431543"
                            },
                            {
                                "decimalAvailable": true,
                                "name": "value",
                                "type": "uint256",
                                "value": "202,180,805,942,483,925"
                            }
                        ],
                        "signature": "Transfer(address,address,uint256)"
                    },
                    "id": 10,
                    "logData": "0x00000000000000000000000000000000000000000000000002ce4a5f2e9a9bd5",
                    "logDecoded": true,
                    "operation": "EVENT",
                    "revert": false,
                    "status": true,
                    "topics": [
                        "0xddf252ad1be2c89b69c2b068fc378daa952ba7f163c4a11628f55a4df523b3ef",
                        "0x00000000000000000000000025942771b17f3790bf32cae7af7d539ce42cdc79",
                        "0x0000000000000000000000008c130499d33097d4d000d3332e1672f75b431543"
                    ]
                },
                "nodeType": 1
            },
            "11": {
                "event": {
                    "contract": "0x8c130499d33097d4d000d3332e1672f75b431543",
                    "decodedLog": {
                        "name": "Transfer",
                        "params": [
                            {
                                "name": "from",
                                "type": "address",
                                "value": "0x25942771b17f3790bf32cae7af7d539ce42cdc79"
                            },
                            {
                                "name": "to",
                                "type": "address",
                                "value": "0x405721adec69d6aa4b6a52daed99a933a4ac6b13"
                            },
                            {
                                "decimalAvailable": true,
                                "name": "value",
                                "type": "uint256",
                                "value": "20,015,899,788,305,908,644"
                            }
                        ],
                        "signature": "Transfer(address,address,uint256)"
                    },
                    "id": 11,
                    "logData": "0x00000000000000000000000000000000000000000000000115c6c2cf05ca43a4",
                    "logDecoded": true,
                    "operation": "EVENT",
                    "revert": false,
                    "status": true,
                    "topics": [
                        "0xddf252ad1be2c89b69c2b068fc378daa952ba7f163c4a11628f55a4df523b3ef",
                        "0x00000000000000000000000025942771b17f3790bf32cae7af7d539ce42cdc79",
                        "0x000000000000000000000000405721adec69d6aa4b6a52daed99a933a4ac6b13"
                    ]
                },
                "nodeType": 1
            },
            "12": {
                "invocation": {
                    "address": "0x8c130499d33097d4d000d3332e1672f75b431543",
                    "callData": "0x00000000000000000000000025942771b17f3790bf32cae7af7d539ce42cdc79",
                    "decodedMethod": {
                        "callParams": [
                            {
                                "name": "account",
                                "type": "address",
                                "value": "0x25942771b17f3790bf32cae7af7d539ce42cdc79"
                            }
                        ],
                        "constructorArguments": "",
                        "name": "balanceOf",
                        "returnParams": [
                            {
                                "decimalAvailable": true,
                                "name": "",
                                "type": "uint256",
                                "value": "2,821,303,952,311,827,116,655"
                            }
                        ],
                        "signature": "balanceOf(address)"
                    },
                    "errorInfo": "",
                    "fromAddress": "0x25942771b17f3790bf32cae7af7d539ce42cdc79",
                    "gasUsed": 918,
                    "id": 12,
                    "methodDecoded": true,
                    "operation": "STATICCALL",
                    "output": "0x000000000000000000000000000000000000000000000098f17524b7f811326f",
                    "revert": false,
                    "revertMessage": "",
                    "selector": "0x70a08231",
                    "status": true,
                    "value": "0"
                },
                "nodeType": 0
            },
            "13": {
                "invocation": {
                    "address": "0xc02aaa39b223fe8d0a0e5c4f27ead9083c756cc2",
                    "callData": "0x00000000000000000000000025942771b17f3790bf32cae7af7d539ce42cdc79",
                    "decodedMethod": {
                        "callParams": [
                            {
                                "name": "",
                                "type": "address",
                                "value": "0x25942771b17f3790bf32cae7af7d539ce42cdc79"
                            }
                        ],
                        "constructorArguments": "",
                        "name": "balanceOf",
                        "returnParams": [
                            {
                                "decimalAvailable": true,
                                "name": "",
                                "type": "uint256",
                                "value": "44,839,993,317,349,167,540"
                            }
                        ],
                        "signature": "balanceOf(address)"
                    },
                    "errorInfo": "",
                    "fromAddress": "0x25942771b17f3790bf32cae7af7d539ce42cdc79",
                    "gasUsed": 534,
                    "id": 13,
                    "methodDecoded": true,
                    "operation": "STATICCALL",
                    "output": "0x0000000000000000000000000000000000000000000000026e47a859837c91b4",
                    "revert": false,
                    "revertMessage": "",
                    "selector": "0x70a08231",
                    "status": true,
                    "value": "0"
                },
                "nodeType": 0
            },
            "14": {
                "event": {
                    "contract": "0x25942771b17f3790bf32cae7af7d539ce42cdc79",
                    "decodedLog": {
                        "name": "Sync",
                        "params": [
                            {
                                "name": "reserve0",
                                "type": "uint112",
                                "value": "2,821,303,952,311,827,116,655"
                            },
                            {
                                "name": "reserve1",
                                "type": "uint112",
                                "value": "44,839,993,317,349,167,540"
                            }
                        ],
                        "signature": "Sync(uint112,uint112)"
                    },
                    "id": 14,
                    "logData": "0x000000000000000000000000000000000000000000000098f17524b7f811326f0000000000000000000000000000000000000000000000026e47a859837c91b4",
                    "logDecoded": true,
                    "operation": "EVENT",
                    "revert": false,
                    "status": true,
                    "topics": [
                        "0x1c411e9a96e071241c2f21f7726b17ae89e3cab4c78be50e062b03a9fffbbad1"
                    ]
                },
                "nodeType": 1
            },
            "15": {
                "event": {
                    "contract": "0x25942771b17f3790bf32cae7af7d539ce42cdc79",
                    "decodedLog": {
                        "name": "Swap",
                        "params": [
                            {
                                "name": "sender",
                                "type": "address",
                                "value": "0x3fc91a3afd70395cd496c647d5a6cc9d4b2b7fad"
                            },
                            {
                                "name": "to",
                                "type": "address",
                                "value": "0x405721adec69d6aa4b6a52daed99a933a4ac6b13"
                            },
                            {
                                "name": "amount0In",
                                "type": "uint256",
                                "value": "0"
                            },
                            {
                                "name": "amount1In",
                                "type": "uint256",
                                "value": "320,000,000,000,000,000"
                            },
                            {
                                "name": "amount0Out",
                                "type": "uint256",
                                "value": "20,218,080,594,248,392,569"
                            },
                            {
                                "name": "amount1Out",
                                "type": "uint256",
                                "value": "0"
                            }
                        ],
                        "signature": "Swap(address,uint256,uint256,uint256,uint256,address)"
                    },
                    "id": 15,
                    "logData": "0x00000000000000000000000000000000000000000000000000000000000000000000000000000000000000000000000000000000000000000470de4df820000000000000000000000000000000000000000000000000000118950d2e3464df790000000000000000000000000000000000000000000000000000000000000000",
                    "logDecoded": true,
                    "operation": "EVENT",
                    "revert": false,
                    "status": true,
                    "topics": [
                        "0xd78ad95fa46c994b6551d0da85fc275fe613ce37657fb8d5e3d130840159d822",
                        "0x0000000000000000000000003fc91a3afd70395cd496c647d5a6cc9d4b2b7fad",
                        "0x000000000000000000000000405721adec69d6aa4b6a52daed99a933a4ac6b13"
                    ]
                },
                "nodeType": 1
            },
            "16": {
                "invocation": {
                    "address": "0x8c130499d33097d4d000d3332e1672f75b431543",
                    "callData": "0x000000000000000000000000405721adec69d6aa4b6a52daed99a933a4ac6b13",
                    "decodedMethod": {
                        "callParams": [
                            {
                                "name": "account",
                                "type": "address",
                                "value": "0x405721adec69d6aa4b6a52daed99a933a4ac6b13"
                            }
                        ],
                        "constructorArguments": "",
                        "name": "balanceOf",
                        "returnParams": [
                            {
                                "decimalAvailable": true,
                                "name": "",
                                "type": "uint256",
                                "value": "40,833,730,683,805,627,272"
                            }
                        ],
                        "signature": "balanceOf(address)"
                    },
                    "errorInfo": "",
                    "fromAddress": "0x3fc91a3afd70395cd496c647d5a6cc9d4b2b7fad",
                    "gasUsed": 918,
                    "id": 16,
                    "methodDecoded": true,
                    "operation": "STATICCALL",
                    "output": "0x00000000000000000000000000000000000000000000000236ae8db5e633f388",
                    "revert": false,
                    "revertMessage": "",
                    "selector": "0x70a08231",
                    "status": true,
                    "value": "0"
                },
                "nodeType": 0
            },
            "2": {
                "event": {
                    "contract": "0xc02aaa39b223fe8d0a0e5c4f27ead9083c756cc2",
                    "decodedLog": {
                        "name": "Deposit",
                        "params": [
                            {
                                "name": "dst",
                                "type": "address",
                                "value": "0x3fc91a3afd70395cd496c647d5a6cc9d4b2b7fad"
                            },
                            {
                                "name": "wad",
                                "type": "uint256",
                                "value": "320,000,000,000,000,000"
                            }
                        ],
                        "signature": "Deposit(address,uint256)"
                    },
                    "id": 2,
                    "logData": "0x0000000000000000000000000000000000000000000000000470de4df8200000",
                    "logDecoded": true,
                    "operation": "EVENT",
                    "revert": false,
                    "status": true,
                    "topics": [
                        "0xe1fffcc4923d04b559f4d29a8bfc6cda04eb5b0d3c460751c2402c5c5cc9109c",
                        "0x0000000000000000000000003fc91a3afd70395cd496c647d5a6cc9d4b2b7fad"
                    ]
                },
                "nodeType": 1
            },
            "3": {
                "invocation": {
                    "address": "0xc02aaa39b223fe8d0a0e5c4f27ead9083c756cc2",
                    "callData": "0x00000000000000000000000025942771b17f3790bf32cae7af7d539ce42cdc790000000000000000000000000000000000000000000000000470de4df8200000",
                    "decodedMethod": {
                        "callParams": [
                            {
                                "name": "dst",
                                "type": "address",
                                "value": "0x25942771b17f3790bf32cae7af7d539ce42cdc79"
                            },
                            {
                                "decimalAvailable": true,
                                "name": "wad",
                                "type": "uint256",
                                "value": "320,000,000,000,000,000"
                            }
                        ],
                        "constructorArguments": "",
                        "name": "transfer",
                        "returnParams": [
                            {
                                "name": "",
                                "type": "bool",
                                "value": true
                            }
                        ],
                        "signature": "transfer(address,uint256)"
                    },
                    "errorInfo": "",
                    "fromAddress": "0x3fc91a3afd70395cd496c647d5a6cc9d4b2b7fad",
                    "gasUsed": 8062,
                    "id": 3,
                    "methodDecoded": true,
                    "operation": "CALL",
                    "output": "0x0000000000000000000000000000000000000000000000000000000000000001",
                    "revert": false,
                    "revertMessage": "",
                    "selector": "0xa9059cbb",
                    "status": true,
                    "value": "0"
                },
                "nodeType": 0
            },
            "4": {
                "event": {
                    "contract": "0xc02aaa39b223fe8d0a0e5c4f27ead9083c756cc2",
                    "decodedLog": {
                        "name": "Transfer",
                        "params": [
                            {
                                "name": "src",
                                "type": "address",
                                "value": "0x3fc91a3afd70395cd496c647d5a6cc9d4b2b7fad"
                            },
                            {
                                "name": "dst",
                                "type": "address",
                                "value": "0x25942771b17f3790bf32cae7af7d539ce42cdc79"
                            },
                            {
                                "decimalAvailable": true,
                                "name": "wad",
                                "type": "uint256",
                                "value": "320,000,000,000,000,000"
                            }
                        ],
                        "signature": "Transfer(address,address,uint256)"
                    },
                    "id": 4,
                    "logData": "0x0000000000000000000000000000000000000000000000000470de4df8200000",
                    "logDecoded": true,
                    "operation": "EVENT",
                    "revert": false,
                    "status": true,
                    "topics": [
                        "0xddf252ad1be2c89b69c2b068fc378daa952ba7f163c4a11628f55a4df523b3ef",
                        "0x0000000000000000000000003fc91a3afd70395cd496c647d5a6cc9d4b2b7fad",
                        "0x00000000000000000000000025942771b17f3790bf32cae7af7d539ce42cdc79"
                    ]
                },
                "nodeType": 1
            },
            "5": {
                "invocation": {
                    "address": "0x8c130499d33097d4d000d3332e1672f75b431543",
                    "callData": "0x000000000000000000000000405721adec69d6aa4b6a52daed99a933a4ac6b13",
                    "decodedMethod": {
                        "callParams": [
                            {
                                "name": "account",
                                "type": "address",
                                "value": "0x405721adec69d6aa4b6a52daed99a933a4ac6b13"
                            }
                        ],
                        "constructorArguments": "",
                        "name": "balanceOf",
                        "returnParams": [
                            {
                                "decimalAvailable": true,
                                "name": "",
                                "type": "uint256",
                                "value": "20,817,830,895,499,718,628"
                            }
                        ],
                        "signature": "balanceOf(address)"
                    },
                    "errorInfo": "",
                    "fromAddress": "0x3fc91a3afd70395cd496c647d5a6cc9d4b2b7fad",
                    "gasUsed": 2918,
                    "id": 5,
                    "methodDecoded": true,
                    "operation": "STATICCALL",
                    "output": "0x00000000000000000000000000000000000000000000000120e7cae6e069afe4",
                    "revert": false,
                    "revertMessage": "",
                    "selector": "0x70a08231",
                    "status": true,
                    "value": "0"
                },
                "nodeType": 0
            },
            "6": {
                "invocation": {
                    "address": "0x25942771b17f3790bf32cae7af7d539ce42cdc79",
                    "callData": "0x",
                    "decodedMethod": {
                        "callParams": [],
                        "constructorArguments": "",
                        "name": "getReserves",
                        "returnParams": [
                            {
                                "name": "_reserve0",
                                "type": "uint112",
                                "value": "2,841,522,032,906,075,509,224"
                            },
                            {
                                "name": "_reserve1",
                                "type": "uint112",
                                "value": "44,519,993,317,349,167,540"
                            },
                            {
                                "name": "_blockTimestampLast",
                                "type": "uint32",
                                "value": "1,689,906,527"
                            }
                        ],
                        "signature": "getReserves()"
                    },
                    "errorInfo": "",
                    "fromAddress": "0x3fc91a3afd70395cd496c647d5a6cc9d4b2b7fad",
                    "gasUsed": 2504,
                    "id": 6,
                    "methodDecoded": true,
                    "operation": "STATICCALL",
                    "output": "0x00000000000000000000000000000000000000000000009a0a0a31e62c7611e800000000000000000000000000000000000000000000000269d6ca0b8b5c91b40000000000000000000000000000000000000000000000000000000064b9ed5f",
                    "revert": false,
                    "revertMessage": "",
                    "selector": "0x0902f1ac",
                    "status": true,
                    "value": "0"
                },
                "nodeType": 0
            },
            "7": {
                "invocation": {
                    "address": "0xc02aaa39b223fe8d0a0e5c4f27ead9083c756cc2",
                    "callData": "0x00000000000000000000000025942771b17f3790bf32cae7af7d539ce42cdc79",
                    "decodedMethod": {
                        "callParams": [
                            {
                                "name": "",
                                "type": "address",
                                "value": "0x25942771b17f3790bf32cae7af7d539ce42cdc79"
                            }
                        ],
                        "constructorArguments": "",
                        "name": "balanceOf",
                        "returnParams": [
                            {
                                "decimalAvailable": true,
                                "name": "",
                                "type": "uint256",
                                "value": "44,839,993,317,349,167,540"
                            }
                        ],
                        "signature": "balanceOf(address)"
                    },
                    "errorInfo": "",
                    "fromAddress": "0x3fc91a3afd70395cd496c647d5a6cc9d4b2b7fad",
                    "gasUsed": 534,
                    "id": 7,
                    "methodDecoded": true,
                    "operation": "STATICCALL",
                    "output": "0x0000000000000000000000000000000000000000000000026e47a859837c91b4",
                    "revert": false,
                    "revertMessage": "",
                    "selector": "0x70a08231",
                    "status": true,
                    "value": "0"
                },
                "nodeType": 0
            },
            "8": {
                "invocation": {
                    "address": "0x25942771b17f3790bf32cae7af7d539ce42cdc79",
                    "callData": "0x00000000000000000000000000000000000000000000000118950d2e3464df790000000000000000000000000000000000000000000000000000000000000000000000000000000000000000405721adec69d6aa4b6a52daed99a933a4ac6b1300000000000000000000000000000000000000000000000000000000000000800000000000000000000000000000000000000000000000000000000000000000",
                    "decodedMethod": {
                        "callParams": [
                            {
                                "name": "amount0Out",
                                "type": "uint256",
                                "value": "20,218,080,594,248,392,569"
                            },
                            {
                                "name": "amount1Out",
                                "type": "uint256",
                                "value": "0"
                            },
                            {
                                "name": "to",
                                "type": "address",
                                "value": "0x405721adec69d6aa4b6a52daed99a933a4ac6b13"
                            },
                            {
                                "name": "data",
                                "type": "bytes",
                                "value": "0x"
                            }
                        ],
                        "constructorArguments": "",
                        "name": "swap",
                        "returnParams": [],
                        "signature": "swap(uint256,uint256,address,bytes)"
                    },
                    "errorInfo": "",
                    "fromAddress": "0x3fc91a3afd70395cd496c647d5a6cc9d4b2b7fad",
                    "gasUsed": 86913,
                    "id": 8,
                    "methodDecoded": true,
                    "operation": "CALL",
                    "output": "",
                    "revert": false,
                    "revertMessage": "",
                    "selector": "0x022c0d9f",
                    "status": true,
                    "value": "0"
                },
                "nodeType": 0
            },
            "9": {
                "invocation": {
                    "address": "0x8c130499d33097d4d000d3332e1672f75b431543",
                    "callData": "0x000000000000000000000000405721adec69d6aa4b6a52daed99a933a4ac6b1300000000000000000000000000000000000000000000000118950d2e3464df79",
                    "decodedMethod": {
                        "callParams": [
                            {
                                "name": "recipient",
                                "type": "address",
                                "value": "0x405721adec69d6aa4b6a52daed99a933a4ac6b13"
                            },
                            {
                                "decimalAvailable": true,
                                "name": "amount",
                                "type": "uint256",
                                "value": "20,218,080,594,248,392,569"
                            }
                        ],
                        "constructorArguments": "",
                        "name": "transfer",
                        "returnParams": [
                            {
                                "name": "",
                                "type": "bool",
                                "value": true
                            }
                        ],
                        "signature": "transfer(address,uint256)"
                    },
                    "errorInfo": "",
                    "fromAddress": "0x25942771b17f3790bf32cae7af7d539ce42cdc79",
                    "gasUsed": 54138,
                    "id": 9,
                    "methodDecoded": true,
                    "operation": "CALL",
                    "output": "0x0000000000000000000000000000000000000000000000000000000000000001",
                    "revert": false,
                    "revertMessage": "",
                    "selector": "0xa9059cbb",
                    "status": true,
                    "value": "0"
                },
                "nodeType": 0
            }
        },
        "gasFlame": [
            {
                "children": [
                    {
                        "children": [
                            {
                                "children": [],
                                "depth": 0,
                                "name": "Initial Gas",
                                "value": 24560
                            },
                            {
                                "children": [
                                    {
                                        "children": [],
                                        "depth": 1,
                                        "name": "deposit",
                                        "value": 23974
                                    },
                                    {
                                        "children": [],
                                        "depth": 1,
                                        "name": "transfer",
                                        "value": 8062
                                    },
                                    {
                                        "children": [],
                                        "depth": 1,
                                        "name": "balanceOf",
                                        "value": 2918
                                    },
                                    {
                                        "children": [],
                                        "depth": 1,
                                        "name": "getReserves",
                                        "value": 2504
                                    },
                                    {
                                        "children": [],
                                        "depth": 1,
                                        "name": "balanceOf",
                                        "value": 534
                                    },
                                    {
                                        "children": [
                                            {
                                                "children": [],
                                                "depth": 2,
                                                "name": "transfer",
                                                "value": 54138
                                            },
                                            {
                                                "children": [],
                                                "depth": 2,
                                                "name": "balanceOf",
                                                "value": 918
                                            },
                                            {
                                                "children": [],
                                                "depth": 2,
                                                "name": "balanceOf",
                                                "value": 534
                                            }
                                        ],
                                        "depth": 1,
                                        "name": "swap",
                                        "value": 86913
                                    },
                                    {
                                        "children": [],
                                        "depth": 1,
                                        "name": "balanceOf",
                                        "value": 918
                                    }
                                ],
                                "depth": 0,
                                "name": "Executed Gas",
                                "value": 153644
                            }
                        ],
                        "depth": -1,
                        "name": "Actual Gas Used",
                        "value": 152704
                    },
                    {
                        "children": [],
                        "depth": -1,
                        "name": "Refunded Gas",
                        "value": 25500
                    }
                ],
                "depth": -2,
                "name": "Total Gas",
                "value": 178204
            }
        ],
        "isConfirmed": true,
        "mainTrace": [
            {
                "children": [
                    {
                        "children": [
                            {
                                "children": [
                                    {
                                        "children": [],
                                        "depth": 2,
                                        "id": 2,
                                        "order": 2
                                    }
                                ],
                                "depth": 1,
                                "id": 1,
                                "order": 1
                            },
                            {
                                "children": [
                                    {
                                        "children": [],
                                        "depth": 2,
                                        "id": 4,
                                        "order": 4
                                    }
                                ],
                                "depth": 1,
                                "id": 3,
                                "order": 3
                            },
                            {
                                "children": [],
                                "depth": 1,
                                "id": 5,
                                "order": 5
                            },
                            {
                                "children": [],
                                "depth": 1,
                                "id": 6,
                                "order": 6
                            },
                            {
                                "children": [],
                                "depth": 1,
                                "id": 7,
                                "order": 7
                            },
                            {
                                "children": [
                                    {
                                        "children": [
                                            {
                                                "children": [],
                                                "depth": 3,
                                                "id": 10,
                                                "order": 10
                                            },
                                            {
                                                "children": [],
                                                "depth": 3,
                                                "id": 11,
                                                "order": 11
                                            }
                                        ],
                                        "depth": 2,
                                        "id": 9,
                                        "order": 9
                                    },
                                    {
                                        "children": [],
                                        "depth": 2,
                                        "id": 12,
                                        "order": 12
                                    },
                                    {
                                        "children": [],
                                        "depth": 2,
                                        "id": 13,
                                        "order": 13
                                    },
                                    {
                                        "children": [],
                                        "depth": 2,
                                        "id": 14,
                                        "order": 14
                                    },
                                    {
                                        "children": [],
                                        "depth": 2,
                                        "id": 15,
                                        "order": 15
                                    }
                                ],
                                "depth": 1,
                                "id": 8,
                                "order": 8
                            },
                            {
                                "children": [],
                                "depth": 1,
                                "id": 16,
                                "order": 16
                            }
                        ],
                        "depth": 0,
                        "id": 0,
                        "order": 0
                    }
                ],
                "depth": -1,
                "id": -1,
                "order": -1
            }
        ],
        "mainTraceNodeCount": 17,
        "parentIdMap": {
            "0": -1,
            "1": 0,
            "10": 9,
            "11": 9,
            "12": 8,
            "13": 8,
            "14": 8,
            "15": 8,
            "16": 0,
            "2": 1,
            "3": 0,
            "4": 3,
            "5": 0,
            "6": 0,
            "7": 0,
            "8": 0,
            "9": 8
        },
        "tidyTrace": [
            {
                "children": [
                    {
                        "children": [
                            {
                                "children": [
                                    {
                                        "children": [],
                                        "depth": 2,
                                        "id": 2,
                                        "order": 2
                                    }
                                ],
                                "depth": 1,
                                "id": 1,
                                "order": 1
                            },
                            {
                                "children": [
                                    {
                                        "children": [],
                                        "depth": 2,
                                        "id": 4,
                                        "order": 4
                                    }
                                ],
                                "depth": 1,
                                "id": 3,
                                "order": 3
                            },
                            {
                                "children": [
                                    {
                                        "children": [
                                            {
                                                "children": [],
                                                "depth": 3,
                                                "id": 10,
                                                "order": 10
                                            },
                                            {
                                                "children": [],
                                                "depth": 3,
                                                "id": 11,
                                                "order": 11
                                            }
                                        ],
                                        "depth": 2,
                                        "id": 9,
                                        "order": 9
                                    },
                                    {
                                        "children": [],
                                        "depth": 2,
                                        "id": 14,
                                        "order": 14
                                    },
                                    {
                                        "children": [],
                                        "depth": 2,
                                        "id": 15,
                                        "order": 15
                                    }
                                ],
                                "depth": 1,
                                "id": 8,
                                "order": 8
                            }
                        ],
                        "depth": 0,
                        "id": 0,
                        "order": 0
                    }
                ],
                "depth": -1,
                "id": -1,
                "order": -1
            }
        ],
        "tidyTraceNodeCount": 11
    },
    "state_change": {
        "stateChanges": [
            {
                "address": "0x25942771b17f3790bf32cae7af7d539ce42cdc79",
                "erc": "ERC-20",
                "slots": [
                    {
                        "current": "0x000000000000000000000000000000006f0822edb5f6a75953b4730d54a7b6bc",
                        "key": "0x0000000000000000000000000000000000000000000000000000000000000009",
                        "prev": "0x000000000000000000000000000000006f07f2cc29ec0cd5078c10d678be9458"
                    },
                    {
                        "current": "0x000000000000000000000000000001fcfc28ca859d79b1089f27736791dc0c24",
                        "key": "0x000000000000000000000000000000000000000000000000000000000000000a",
                        "prev": "0x000000000000000000000000000001fcf92ae1d02a26e4642581ed7803454680"
                    },
                    {
                        "current": "0x64b9ed6b0000000000026e47a859837c91b4000000000098f17524b7f811326f",
                        "key": "0x0000000000000000000000000000000000000000000000000000000000000008",
                        "prev": "0x64b9ed5f00000000000269d6ca0b8b5c91b400000000009a0a0a31e62c7611e8"
                    }
                ],
                "storageVariables": [
                    {
                        "name": "price0CumulativeLast",
                        "type": "uint256",
                        "value": {
                            "current": "147586554342309953363076341847323817660",
                            "prev": "147585578128778894794092072090363401304",
                            "typeTag": 1
                        }
                    },
                    {
                        "name": "price1CumulativeLast",
                        "type": "uint256",
                        "value": {
                            "current": "173198619650281701447089817939969769737252",
                            "prev": "173194642823289905967241151474578814748288",
                            "typeTag": 1
                        }
                    },
                    {
                        "name": "reserve0",
                        "type": "uint112",
                        "value": {
                            "current": "2821303952311827116655",
                            "prev": "2841522032906075509224",
                            "typeTag": 1
                        }
                    },
                    {
                        "name": "reserve1",
                        "type": "uint112",
                        "value": {
                            "current": "44839993317349167540",
                            "prev": "44519993317349167540",
                            "typeTag": 1
                        }
                    },
                    {
                        "name": "blockTimestampLast",
                        "type": "uint32",
                        "value": {
                            "current": "1689906539",
                            "prev": "1689906527",
                            "typeTag": 1
                        }
                    }
                ]
            },
            {
                "address": "0x8c130499d33097d4d000d3332e1672f75b431543",
                "erc": "ERC-20",
                "slots": [
                    {
                        "current": "0x000000000000000000000000000000000000000000000098f17524b7f811326f",
                        "key": "0x1837d4b4b39900888a40477703a1324036ad5587df87f79b03c867e474d3ef9e",
                        "prev": "0x00000000000000000000000000000000000000000000009a0a0a31e62c7611e8"
                    },
                    {
                        "current": "0x00000000000000000000000000000000000000000000000236ae8db5e633f388",
                        "key": "0xf8356fc0b6ffd6e29740bca2846372f98d6c755167fef0120431238e46ca0d90",
                        "prev": "0x00000000000000000000000000000000000000000000000120e7cae6e069afe4"
                    },
                    {
                        "current": "0x000000000000000000000000000000000000000000000000000000000000423e",
                        "key": "0x000000000000000000000000000000000000000000000000000000000000000e",
                        "prev": "0x000000000000000000000000000000000000000000000000000000000000423d"
                    },
                    {
                        "current": "0x00000000000000000000000000000000000000000000000005379864d1203b8c",
                        "key": "0x7fb64e12723eefab9db90818aebd8aa1845fc0ef723edcf1c025462f5f39a051",
                        "prev": "0x00000000000000000000000000000000000000000000000002694e05a2859fb7"
                    }
                ],
                "storageVariables": [
                    {
                        "name": "_balances",
                        "type": "mapping(address => uint256)",
                        "value": {
                            "pairs": [
                                {
                                    "key": "0x25942771b17f3790bf32cae7af7d539ce42cdc79",
                                    "value": {
                                        "current": "2821303952311827116655",
                                        "prev": "2841522032906075509224",
                                        "typeTag": 1
                                    }
                                },
                                {
                                    "key": "0x405721adec69d6aa4b6a52daed99a933a4ac6b13",
                                    "value": {
                                        "current": "40833730683805627272",
                                        "prev": "20817830895499718628",
                                        "typeTag": 1
                                    }
                                },
                                {
                                    "key": "0x8c130499d33097d4d000d3332e1672f75b431543",
                                    "value": {
                                        "current": "375936652681427852",
                                        "prev": "173755846738943927",
                                        "typeTag": 1
                                    }
                                }
                            ],
                            "typeTag": 4
                        }
                    },
                    {
                        "name": "_buyCount",
                        "type": "uint256",
                        "value": {
                            "current": "16958",
                            "prev": "16957",
                            "typeTag": 1
                        }
                    }
                ]
            },
            {
                "address": "0xc02aaa39b223fe8d0a0e5c4f27ead9083c756cc2",
                "erc": "ERC-20",
                "slots": [
                    {
                        "current": "0x0000000000000000000000000000000000000000000000026e47a859837c91b4",
                        "key": "0x7e65891cc905d3cb3ccc4336600fdf3cb0e32b39aad1360c6384fbdd66d5f7dc",
                        "prev": "0x00000000000000000000000000000000000000000000000269d6ca0b8b5c91b4"
                    }
                ],
                "storageVariables": [
                    {
                        "name": "balanceOf",
                        "type": "mapping(address => uint256)",
                        "value": {
                            "pairs": [
                                {
                                    "key": "0x25942771b17f3790bf32cae7af7d539ce42cdc79",
                                    "value": {
                                        "current": "44839993317349167540",
                                        "prev": "44519993317349167540",
                                        "typeTag": 1
                                    }
                                }
                            ],
                            "typeTag": 4
                        }
                    }
                ]
            }
        ]
    }
}