{
    "balance_change": {
        "balanceChanges": [
            {
                "account": "0x48c04ed5691981c42154c6167398f95e8f38a7ff",
                "assets": [
                    {
                        "address": "0x95ad61b0a150d79219dcf64e1e6cc01f0b64c4ce",
                        "amount": "2,165,171.253666",
                        "iconUrl": "https://assets.blocksec.com/icon/56235cdcac277d59ed89deae8cb8e206f4c4384e75186903e74565b748deabf5.png",
                        "isERC1155": false,
                        "isERC721": false,
                        "sign": false,
                        "value": "19.74382918"
                    }
                ]
            },
            {
                "account": "0xca84d2d9f83cd16bcc2f640b6e9895f5399ad264",
                "assets": [
                    {
                        "address": "0x95ad61b0a150d79219dcf64e1e6cc01f0b64c4ce",
                        "amount": "2,165,171.253666",
                        "iconUrl": "https://assets.blocksec.com/icon/56235cdcac277d59ed89deae8cb8e206f4c4384e75186903e74565b748deabf5.png",
                        "isERC1155": false,
                        "isERC721": false,
                        "sign": true,
                        "value": "19.74382918"
                    }
                ]
            }
        ]
    },
    "profile": {
        "basic_info": {
            "baseFee": "",
            "blockNumber": 12647093,
            "callData": "0xa9059cbb000000000000000000000000ca84d2d9f83cd16bcc2f640b6e9895f5399ad26400000000000000000000000000000000000000000001ca7e2b39d8469c842000",
            "debugEnable": true,
            "errorInfo": "",
            "eventCount": 1,
            "feeRecipient": "0x5a0b54d5dc17e0aadc383d2db43b0a0d3e029c4c",
            "formatValue": "0",
            "gasLimit": 180000,
            "gasPrice": "19",
            "gasUsed": 34807,
            "intTxnCount": 0,
            "internalRevert": false,
            "internalRevertMessage": "",
            "isContractCreation": false,
            "isFlashloan": false,
            "maxFee": "",
            "nonce": 65418,
            "overwritedBlockNumber": -1,
            "priorityFee": "",
            "receiver": "0x95ad61b0a150d79219dcf64e1e6cc01f0b64c4ce",
            "revertMessage": "",
            "sender": "0x48c04ed5691981c42154c6167398f95e8f38a7ff",
            "simulationEnable": true,
            "sourceTxnHash": "0x4e9b541c111a20cd4261d3cb3e4899aad1f416de5bb8f2bd586b71a67f07633d",
            "status": true,
            "timestamp": "2021-06-16T18:17:40Z",
            "transactionFee": "0.000661333",
            "txnHash": "0x4e9b541c111a20cd4261d3cb3e4899aad1f416de5bb8f2bd586b71a67f07633d",
            "txnIndex": 109,
            "type": 0,
            "value": "0"
        },
        "fund_flow": [
            {
                "amount": "2,165,171.253666",
                "from": "0x48c04ed5691981c42154c6167398f95e8f38a7ff",
                "id": 1,
                "isERC1155": false,
                "isERC721": false,
                "isReverted": false,
                "order": 1,
                "to": "0xca84d2d9f83cd16bcc2f640b6e9895f5399ad264",
                "token": "0x95ad61b0a150d79219dcf64e1e6cc01f0b64c4ce"
            }
        ],
        "token_infos": [
            {
                "address": "0x95ad61b0a150d79219dcf64e1e6cc01f0b64c4ce",
                "decimals": 18
            },
            {
                "address": "0xc02aaa39b223fe8d0a0e5c4f27ead9083c756cc2",
                "decimals": 18
            },
            {
                "address": "0xeeeeeeeeeeeeeeeeeeeeeeeeeeeeeeeeeeeeeeee",
                "decimals": 18
            }
        ]
    },
    "address_label": {
        "labels": [
            {
                "address": "0x0000000000000000000000000000000000000001",
                "label": "Precompiled"
            },
            {
                "address": "0x0000000000000000000000000000000000000002",
                "label": "Precompiled"
            },
            {
                "address": "0x0000000000000000000000000000000000000003",
                "label": "Precompiled"
            },
            {
                "address": "0x0000000000000000000000000000000000000004",
                "label": "Precompiled"
            },
            {
                "address": "0xeeeeeeeeeeeeeeeeeeeeeeeeeeeeeeeeeeeeeeee",
                "label": "Ether"
            },
            {
                "address": "0x95ad61b0a150d79219dcf64e1e6cc01f0b64c4ce",
                "label": "Shiba Inu: SHIB Token"
            },
            {
                "address": "0x48c04ed5691981c42154c6167398f95e8f38a7ff",
                "label": "ChangeNOW 3"
            }
        ]
    },
    "trace": {
        "accountLabels": null,
        "dataMap": {
            "-1": {
                "invocation": {
                    "address": "0x48c04ed5691981c42154c6167398f95e8f38a7ff",
                    "callData": "",
                    "decodedMethod": null,
                    "errorInfo": "",
                    "fromAddress": "",
                    "gasUsed": 0,
                    "id": -1,
                    "methodDecoded": false,
                    "operation": "",
                    "output": "",
                    "revert": false,
                    "revertMessage": "",
                    "selector": "",
                    "status": false,
                    "value": ""
                },
                "nodeType": 0
            },
            "0": {
                "invocation": {
                    "address": "0x95ad61b0a150d79219dcf64e1e6cc01f0b64c4ce",
                    "callData": "0x000000000000000000000000ca84d2d9f83cd16bcc2f640b6e9895f5399ad26400000000000000000000000000000000000000000001ca7e2b39d8469c842000",
                    "decodedMethod": {
                        "callParams": [
                            {
                                "name": "recipient",
                                "type": "address",
                                "value": "0xca84d2d9f83cd16bcc2f640b6e9895f5399ad264"
                            },
                            {
                                "decimalAvailable": true,
                                "name": "amount",
                                "type": "uint256",
                                "value": "2,165,171,253,666,000,000,000,000"
                            }
                        ],
                        "constructorArguments": "",
                        "name": "transfer",
                        "returnParams": [
                            {
                                "name": "",
                                "type": "bool",
                                "value": true
                            }
                        ],
                        "signature": "transfer(address,uint256)"
                    },
                    "errorInfo": "",
                    "fromAddress": "0x48c04ed5691981c42154c6167398f95e8f38a7ff",
                    "gasUsed": 34807,
                    "id": 0,
                    "methodDecoded": true,
                    "operation": "CALL",
                    "output": "0x0000000000000000000000000000000000000000000000000000000000000001",
                    "revert": false,
                    "revertMessage": "",
                    "selector": "0xa9059cbb",
                    "status": true,
                    "value": "0"
                },
                "nodeType": 0
            },
            "1": {
                "event": {
                    "contract": "0x95ad61b0a150d79219dcf64e1e6cc01f0b64c4ce",
                    "decodedLog": {
                        "name": "Transfer",
                        "params": [
                            {
                                "name": "from",
                                "type": "address",
                                "value": "0x48c04ed5691981c42154c6167398f95e8f38a7ff"
                            },
                            {
                                "name": "to",
                                "type": "address",
                                "value": "0xca84d2d9f83cd16bcc2f640b6e9895f5399ad264"
                            },
                            {
                                "decimalAvailable": true,
                                "name": "value",
                                "type": "uint256",
                                "value": "2,165,171,253,666,000,000,000,000"
                            }
                        ],
                        "signature": "Transfer(address,address,uint256)"
                    },
                    "id": 1,
                    "logData": "0x00000000000000000000000000000000000000000001ca7e2b39d8469c842000",
                    "logDecoded": true,
                    "operation": "EVENT",
                    "revert": false,
                    "status": true,
                    "topics": [
                        "0xddf252ad1be2c89b69c2b068fc378daa952ba7f163c4a11628f55a4df523b3ef",
                        "0x00000000000000000000000048c04ed5691981c42154c6167398f95e8f38a7ff",
                        "0x000000000000000000000000ca84d2d9f83cd16bcc2f640b6e9895f5399ad264"
                    ]
                },
                "nodeType": 1
            }
        },
        "gasFlame": [
            {
                "children": [
                    {
                        "children": [
                            {
                                "children": [],
                                "depth": 0,
                                "name": "Initial Gas",
                                "value": 21680
                            },
                            {
                                "children": [],
                                "depth": 0,
                                "name": "Executed Gas",
                                "value": 13127
                            }
                        ],
                        "depth": -1,
                        "name": "Actual Gas Used",
                        "value": 34807
                    },
                    {
                        "children": [],
                        "depth": -1,
                        "name": "Refunded Gas",
                        "value": 0
                    }
                ],
                "depth": -2,
                "name": "Total Gas",
                "value": 34807
            }
        ],
        "isConfirmed": true,
        "mainTrace": [
            {
                "children": [
                    {
                        "children": [
                            {
                                "children": [],
                                "depth": 1,
                                "id": 1,
                                "order": 1
                            }
                        ],
                        "depth": 0,
                        "id": 0,
                        "order": 0
                    }
                ],
                "depth": -1,
                "id": -1,
                "order": -1
            }
        ],
        "mainTraceNodeCount": 2,
        "parentIdMap": {
            "0": -1,
            "1": 0
        },
        "tidyTrace": [
            {
                "children": [
                    {
                        "children": [
                            {
                                "children": [],
                                "depth": 1,
                                "id": 1,
                                "order": 1
                            }
                        ],
                        "depth": 0,
                        "id": 0,
                        "order": 0
                    }
                ],
                "depth": -1,
                "id": -1,
                "order": -1
            }
        ],
        "tidyTraceNodeCount": 2
    },
    "state_change": {
        "stateChanges": [
            {
                "address": "0x95ad61b0a150d79219dcf64e1e6cc01f0b64c4ce",
                "erc": "ERC-20",
                "slots": [
                    {
                        "current": "0x00000000000000000000000000000000000000000005c86cbf53b0c9a7407800",
                        "key": "0x4fc0b01f48ed7da77301f5dc1ab13748282ad6c1d27477bc51786acddc169b75",
                        "prev": "0x00000000000000000000000000000000000000000003fdee9419d8830abc5800"
                    },
                    {
                        "current": "0x00000000000000000000000000000000000000000b20ad799d2842ea1ce451d4",
                        "key": "0x63a4b27473c52fc9e4605676abee691526031e2c3cb3b90c26dda6ab7d12351c",
                        "prev": "0x00000000000000000000000000000000000000000b2277f7c8621b30b96871d4"
                    }
                ],
                "storageVariables": [
                    {
                        "name": "_balances",
                        "type": "mapping(address => uint256)",
                        "value": {
                            "pairs": [
                                {
                                    "key": "0x48c04ed5691981c42154c6167398f95e8f38a7ff",
                                    "value": {
                                        "current": "3443839947044408093338522068",
                                        "prev": "3446005118298074093338522068",
                                        "typeTag": 1
                                    }
                                },
                                {
                                    "key": "0xca84d2d9f83cd16bcc2f640b6e9895f5399ad264",
                                    "value": {
                                        "current": "6991108429564300000000000",
                                        "prev": "4825937175898300000000000",
                                        "typeTag": 1
                                    }
                                }
                            ],
                            "typeTag": 4
                        }
                    }
                ]
            }
        ]
    }
}