{
    "balance_change": {
        "balanceChanges": [
            {
                "account": "0xe9a37a394abb7ea1c9dbc4e5a0443863565ff155",
                "assets": [
                    {
                        "address": "0xe2fb6529ef566a080e6d23de0bd351311087d567",
                        "amount": "1,200",
                        "iconUrl": "",
                        "isERC1155": false,
                        "isERC721": false,
                        "sign": false,
                        "value": ""
                    }
                ]
            },
            {
                "account": "0x59a5208b32e627891c389ebafc644145224006e8",
                "assets": [
                    {
                        "address": "0xe2fb6529ef566a080e6d23de0bd351311087d567",
                        "amount": "1,200",
                        "iconUrl": "",
                        "isERC1155": false,
                        "isERC721": false,
                        "sign": true,
                        "value": ""
                    }
                ]
            }
        ]
    },
    "profile": {
        "basic_info": {
            "baseFee": "",
            "blockNumber": 5073466,
            "callData": "0xa9059cbb00000000000000000000000059a5208b32e627891c389ebafc644145224006e80000000000000000000000000000000000000000000000410d586a20a4c00000",
            "debugEnable": true,
            "errorInfo": "",
            "eventCount": 1,
            "feeRecipient": "0x5a0b54d5dc17e0aadc383d2db43b0a0d3e029c4c",
            "formatValue": "0",
            "gasLimit": 37136,
            "gasPrice": "1.000000001",
            "gasUsed": 22136,
            "intTxnCount": 0,
            "internalRevert": false,
            "internalRevertMessage": "",
            "isContractCreation": false,
            "isFlashloan": false,
            "maxFee": "",
            "nonce": 0,
            "overwritedBlockNumber": -1,
            "priorityFee": "",
            "receiver": "0xe2fb6529ef566a080e6d23de0bd351311087d567",
            "revertMessage": "",
            "sender": "0xe9a37a394abb7ea1c9dbc4e5a0443863565ff155",
            "simulationEnable": true,
            "sourceTxnHash": "0x4f5bbebf23722d6ef06b06d018eba7f0ae72963836b5a75b2e92368849364579",
            "status": true,
            "timestamp": "2018-02-11T22:49:55Z",
            "transactionFee": "0.000022136000022136",
            "txnHash": "0x4f5bbebf23722d6ef06b06d018eba7f0ae72963836b5a75b2e92368849364579",
            "txnIndex": 98,
            "type": 0,
            "value": "0"
        },
        "fund_flow": [
            {
                "amount": "1,200",
                "from": "0xe9a37a394abb7ea1c9dbc4e5a0443863565ff155",
                "id": 1,
                "isERC1155": false,
                "isERC721": false,
                "isReverted": false,
                "order": 1,
                "to": "0x59a5208b32e627891c389ebafc644145224006e8",
                "token": "0xe2fb6529ef566a080e6d23de0bd351311087d567"
            }
        ],
        "token_infos": [
            {
                "address": "0xc02aaa39b223fe8d0a0e5c4f27ead9083c756cc2",
                "decimals": 18
            },
            {
                "address": "0xe2fb6529ef566a080e6d23de0bd351311087d567",
                "decimals": 18
            },
            {
                "address": "0xeeeeeeeeeeeeeeeeeeeeeeeeeeeeeeeeeeeeeeee",
                "decimals": 18
            }
        ]
    },
    "address_label": {
        "labels": [
            {
                "address": "0xe9a37a394abb7ea1c9dbc4e5a0443863565ff155",
                "label": "HITBTC"
            },
            {
                "address": "0x0000000000000000000000000000000000000001",
                "label": "Precompiled"
            },
            {
                "address": "0x0000000000000000000000000000000000000002",
                "label": "Precompiled"
            },
            {
                "address": "0x0000000000000000000000000000000000000003",
                "label": "Precompiled"
            },
            {
                "address": "0x0000000000000000000000000000000000000004",
                "label": "Precompiled"
            },
            {
                "address": "0xeeeeeeeeeeeeeeeeeeeeeeeeeeeeeeeeeeeeeeee",
                "label": "Ether"
            },
            {
                "address": "0xe2fb6529ef566a080e6d23de0bd351311087d567",
                "label": "Covesting: Old COV Token"
            },
            {
                "address": "0x59a5208b32e627891c389ebafc644145224006e8",
                "label": "HitBTC 2"
            }
        ]
    },
    "trace": {
        "accountLabels": null,
        "dataMap": {
            "-1": {
                "invocation": {
                    "address": "0xe9a37a394abb7ea1c9dbc4e5a0443863565ff155",
                    "callData": "",
                    "decodedMethod": null,
                    "errorInfo": "",
                    "fromAddress": "",
                    "gasUsed": 0,
                    "id": -1,
                    "methodDecoded": false,
                    "operation": "",
                    "output": "",
                    "revert": false,
                    "revertMessage": "",
                    "selector": "",
                    "status": false,
                    "value": ""
                },
                "nodeType": 0
            },
            "0": {
                "invocation": {
                    "address": "0xe2fb6529ef566a080e6d23de0bd351311087d567",
                    "callData": "0x00000000000000000000000059a5208b32e627891c389ebafc644145224006e80000000000000000000000000000000000000000000000410d586a20a4c00000",
                    "decodedMethod": {
                        "callParams": [
                            {
                                "name": "_to",
                                "type": "address",
                                "value": "0x59a5208b32e627891c389ebafc644145224006e8"
                            },
                            {
                                "decimalAvailable": true,
                                "name": "_value",
                                "type": "uint256",
                                "value": "1,200,000,000,000,000,000,000"
                            }
                        ],
                        "constructorArguments": "",
                        "name": "transfer",
                        "returnParams": [
                            {
                                "name": "",
                                "type": "bool",
                                "value": true
                            }
                        ],
                        "signature": "transfer(address,uint256)"
                    },
                    "errorInfo": "",
                    "fromAddress": "0xe9a37a394abb7ea1c9dbc4e5a0443863565ff155",
                    "gasUsed": 22136,
                    "id": 0,
                    "methodDecoded": true,
                    "operation": "CALL",
                    "output": "0x0000000000000000000000000000000000000000000000000000000000000001",
                    "revert": false,
                    "revertMessage": "",
                    "selector": "0xa9059cbb",
                    "status": true,
                    "value": "0"
                },
                "nodeType": 0
            },
            "1": {
                "event": {
                    "contract": "0xe2fb6529ef566a080e6d23de0bd351311087d567",
                    "decodedLog": {
                        "name": "Transfer",
                        "params": [
                            {
                                "name": "from",
                                "type": "address",
                                "value": "0xe9a37a394abb7ea1c9dbc4e5a0443863565ff155"
                            },
                            {
                                "name": "to",
                                "type": "address",
                                "value": "0x59a5208b32e627891c389ebafc644145224006e8"
                            },
                            {
                                "decimalAvailable": true,
                                "name": "value",
                                "type": "uint256",
                                "value": "1,200,000,000,000,000,000,000"
                            }
                        ],
                        "signature": "Transfer(address,address,uint256)"
                    },
                    "id": 1,
                    "logData": "0x0000000000000000000000000000000000000000000000410d586a20a4c00000",
                    "logDecoded": true,
                    "operation": "EVENT",
                    "revert": false,
                    "status": true,
                    "topics": [
                        "0xddf252ad1be2c89b69c2b068fc378daa952ba7f163c4a11628f55a4df523b3ef",
                        "0x000000000000000000000000e9a37a394abb7ea1c9dbc4e5a0443863565ff155",
                        "0x00000000000000000000000059a5208b32e627891c389ebafc644145224006e8"
                    ]
                },
                "nodeType": 1
            }
        },
        "gasFlame": [
            {
                "children": [
                    {
                        "children": [
                            {
                                "children": [],
                                "depth": 0,
                                "name": "Initial Gas",
                                "value": 23256
                            },
                            {
                                "children": [],
                                "depth": 0,
                                "name": "Executed Gas",
                                "value": 13880
                            }
                        ],
                        "depth": -1,
                        "name": "Actual Gas Used",
                        "value": 22136
                    },
                    {
                        "children": [],
                        "depth": -1,
                        "name": "Refunded Gas",
                        "value": 15000
                    }
                ],
                "depth": -2,
                "name": "Total Gas",
                "value": 37136
            }
        ],
        "isConfirmed": true,
        "mainTrace": [
            {
                "children": [
                    {
                        "children": [
                            {
                                "children": [],
                                "depth": 1,
                                "id": 1,
                                "order": 1
                            }
                        ],
                        "depth": 0,
                        "id": 0,
                        "order": 0
                    }
                ],
                "depth": -1,
                "id": -1,
                "order": -1
            }
        ],
        "mainTraceNodeCount": 2,
        "parentIdMap": {
            "0": -1,
            "1": 0
        },
        "tidyTrace": [
            {
                "children": [
                    {
                        "children": [
                            {
                                "children": [],
                                "depth": 1,
                                "id": 1,
                                "order": 1
                            }
                        ],
                        "depth": 0,
                        "id": 0,
                        "order": 0
                    }
                ],
                "depth": -1,
                "id": -1,
                "order": -1
            }
        ],
        "tidyTraceNodeCount": 2
    },
    "state_change": {
        "stateChanges": [
            {
                "address": "0xe2fb6529ef566a080e6d23de0bd351311087d567",
                "erc": "ERC-20",
                "slots": [
                    {
                        "current": "0x0000000000000000000000000000000000000000000000000000000000000000",
                        "key": "0x95f51480ef9faa337d9274c55dfb4495e377d8cec1498c9bd92bfb91bf9fb464",
                        "prev": "0x0000000000000000000000000000000000000000000000410d586a20a4c00000"
                    },
                    {
                        "current": "0x000000000000000000000000000000000000000000000ae9e931b02940303e43",
                        "key": "0x2454d1bafa996bd64a29c8b5bf292cf823fb79d55818e0580394d0f3fedf7abb",
                        "prev": "0x000000000000000000000000000000000000000000000aa8dbd946089b703e43"
                    }
                ],
                "storageVariables": [
                    {
                        "name": "balances",
                        "type": "mapping(address => uint256)",
                        "value": {
                            "pairs": [
                                {
                                    "key": "0x59a5208b32e627891c389ebafc644145224006e8",
                                    "value": {
                                        "current": "51538559603246690745923",
                                        "prev": "50338559603246690745923",
                                        "typeTag": 1
                                    }
                                },
                                {
                                    "key": "0xe9a37a394abb7ea1c9dbc4e5a0443863565ff155",
                                    "value": {
                                        "current": "0",
                                        "prev": "1200000000000000000000",
                                        "typeTag": 1
                                    }
                                }
                            ],
                            "typeTag": 4
                        }
                    }
                ]
            }
        ]
    }
}