{
    "balance_change": {
        "balanceChanges": [
            {
                "account": "0xd2e36d367412d5a8a15bf7a9543e0d288a1ed49e",
                "assets": [
                    {
                        "address": "0x471a202f69d6e975da55e363dab1bdb2e86e0c0f",
                        "amount": "92,285,713,704.2661826207279045",
                        "iconUrl": "",
                        "isERC1155": false,
                        "isERC721": false,
                        "sign": false,
                        "value": "963.6021839"
                    },
                    {
                        "address": "0xeeeeeeeeeeeeeeeeeeeeeeeeeeeeeeeeeeeeeeee",
                        "amount": "0.50758648542480377",
                        "iconUrl": "https://assets.blocksec.com/image/1663669189317-3.png",
                        "isERC1155": false,
                        "isERC721": false,
                        "sign": true,
                        "value": "968.3836485758279677"
                    }
                ]
            },
            {
                "account": "0xc02aaa39b223fe8d0a0e5c4f27ead9083c756cc2",
                "assets": [
                    {
                        "address": "0xeeeeeeeeeeeeeeeeeeeeeeeeeeeeeeeeeeeeeeee",
                        "amount": "0.50758648542480377",
                        "iconUrl": "https://assets.blocksec.com/image/1663669189317-3.png",
                        "isERC1155": false,
                        "isERC721": false,
                        "sign": false,
                        "value": "968.3836485758279677"
                    },
                    {
                        "address": "0xc02aaa39b223fe8d0a0e5c4f27ead9083c756cc2",
                        "amount": "0.50758648542480377",
                        "iconUrl": "https://assets.blocksec.com/icon/f1cb2d02c471d545bbc7722daf3277fd852d98e63d118771af7047bd8256c516.png",
                        "isERC1155": false,
                        "isERC721": false,
                        "sign": true,
                        "value": "968.3836485758279677"
                    }
                ]
            },
            {
                "account": "0xdad1bfa1a3bb330a2389f12fb094b3824585592f",
                "assets": [
                    {
                        "address": "0x471a202f69d6e975da55e363dab1bdb2e86e0c0f",
                        "amount": "92,285,713,704.2661826207279045",
                        "iconUrl": "",
                        "isERC1155": false,
                        "isERC721": false,
                        "sign": true,
                        "value": "963.6021839"
                    },
                    {
                        "address": "0xc02aaa39b223fe8d0a0e5c4f27ead9083c756cc2",
                        "amount": "0.50758648542480377",
                        "iconUrl": "https://assets.blocksec.com/icon/f1cb2d02c471d545bbc7722daf3277fd852d98e63d118771af7047bd8256c516.png",
                        "isERC1155": false,
                        "isERC721": false,
                        "sign": false,
                        "value": "968.3836485758279677"
                    }
                ]
            }
        ]
    },
    "profile": {
        "basic_info": {
            "baseFee": "87.556636511",
            "blockNumber": 17206693,
            "callData": "0x21938f7500000000000000000000000000000000000000012a30f40460855043e57e88f4000000000000000000000000000000000000000000000000053444835ec5800000000000000000000000000000000000000000000000000000000000000000a00000000000000000000000000000000000000000000000000000000000000100000000000000000000000000d2e36d367412d5a8a15bf7a9543e0d288a1ed49e0000000000000000000000000000000000000000000000000000000000000002000000000000000000000000471a202f69d6e975da55e363dab1bdb2e86e0c0f000000000000000000000000c02aaa39b223fe8d0a0e5c4f27ead9083c756cc200000000000000000000000000000000000000000000000000000000000000010000000000000000000000001a75f7db182ce7fca969f029e1ef573f7aee9cb5",
            "debugEnable": true,
            "errorInfo": "",
            "eventCount": 6,
            "feeRecipient": "0x1f9090aae28b8a3dceadf281b0f12828e676c326",
            "formatValue": "0",
            "gasLimit": 157460,
            "gasPrice": "87.856636511",
            "gasUsed": 128674,
            "intTxnCount": 14,
            "internalRevert": false,
            "internalRevertMessage": "",
            "isContractCreation": false,
            "isFlashloan": false,
            "maxFee": "140.616656479",
            "nonce": 174,
            "overwritedBlockNumber": -1,
            "priorityFee": "0.3",
            "receiver": "0x8967ba97f39334c9e6f8e34b8a3d7556306af568",
            "revertMessage": "",
            "sender": "0xd2e36d367412d5a8a15bf7a9543e0d288a1ed49e",
            "simulationEnable": true,
            "sourceTxnHash": "0x4ffc1a4bc71592664f83f5f684a72caef5c0444093d44157f29807bd795aa07f",
            "status": true,
            "timestamp": "2023-05-07T05:48:47Z",
            "transactionFee": "0.011304864846416414",
            "txnHash": "0x4ffc1a4bc71592664f83f5f684a72caef5c0444093d44157f29807bd795aa07f",
            "txnIndex": 45,
            "type": 2,
            "value": "0"
        },
        "fund_flow": [
            {
                "amount": "92,285,713,704.2661826207279045",
                "from": "0xd2e36d367412d5a8a15bf7a9543e0d288a1ed49e",
                "id": 1,
                "isERC1155": false,
                "isERC721": false,
                "isReverted": false,
                "order": 1,
                "to": "0xdad1bfa1a3bb330a2389f12fb094b3824585592f",
                "token": "0x471a202f69d6e975da55e363dab1bdb2e86e0c0f"
            },
            {
                "amount": "0.50758648542480377",
                "from": "0xdad1bfa1a3bb330a2389f12fb094b3824585592f",
                "id": 2,
                "isERC1155": false,
                "isERC721": false,
                "isReverted": false,
                "order": 2,
                "to": "0x8967ba97f39334c9e6f8e34b8a3d7556306af568",
                "token": "0xc02aaa39b223fe8d0a0e5c4f27ead9083c756cc2"
            },
            {
                "amount": "0.50758648542480377",
                "from": "0xc02aaa39b223fe8d0a0e5c4f27ead9083c756cc2",
                "id": 3,
                "isERC1155": false,
                "isERC721": false,
                "isReverted": false,
                "order": 3,
                "to": "0x8967ba97f39334c9e6f8e34b8a3d7556306af568",
                "token": "0xeeeeeeeeeeeeeeeeeeeeeeeeeeeeeeeeeeeeeeee"
            },
            {
                "amount": "0.50758648542480377",
                "from": "0x8967ba97f39334c9e6f8e34b8a3d7556306af568",
                "id": 4,
                "isERC1155": false,
                "isERC721": false,
                "isReverted": false,
                "order": 4,
                "to": "0xc02aaa39b223fe8d0a0e5c4f27ead9083c756cc2",
                "token": "0xc02aaa39b223fe8d0a0e5c4f27ead9083c756cc2"
            },
            {
                "amount": "0.50758648542480377",
                "from": "0x8967ba97f39334c9e6f8e34b8a3d7556306af568",
                "id": 5,
                "isERC1155": false,
                "isERC721": false,
                "isReverted": false,
                "order": 5,
                "to": "0xd2e36d367412d5a8a15bf7a9543e0d288a1ed49e",
                "token": "0xeeeeeeeeeeeeeeeeeeeeeeeeeeeeeeeeeeeeeeee"
            }
        ],
        "token_infos": [
            {
                "address": "0x471a202f69d6e975da55e363dab1bdb2e86e0c0f",
                "decimals": 18
            },
            {
                "address": "0xc02aaa39b223fe8d0a0e5c4f27ead9083c756cc2",
                "decimals": 18
            },
            {
                "address": "0xeeeeeeeeeeeeeeeeeeeeeeeeeeeeeeeeeeeeeeee",
                "decimals": 18
            }
        ]
    },
    "address_label": {
        "labels": [
            {
                "address": "0x0000000000000000000000000000000000000004",
                "label": "Precompiled"
            },
            {
                "address": "0xc02aaa39b223fe8d0a0e5c4f27ead9083c756cc2",
                "label": "Wrapped Ether (WETH)"
            },
            {
                "address": "0x471a202f69d6e975da55e363dab1bdb2e86e0c0f",
                "label": "Geke (GEKE)"
            },
            {
                "address": "0x1a75f7db182ce7fca969f029e1ef573f7aee9cb5",
                "label": "Uniswap V2"
            },
            {
                "address": "0x0000000000000000000000000000000000000003",
                "label": "Precompiled"
            },
            {
                "address": "0xeeeeeeeeeeeeeeeeeeeeeeeeeeeeeeeeeeeeeeee",
                "label": "Ether"
            },
            {
                "address": "0xdad1bfa1a3bb330a2389f12fb094b3824585592f",
                "label": "Uniswap V2: GEKE"
            },
            {
                "address": "0x0000000000000000000000000000000000000001",
                "label": "Precompiled"
            },
            {
                "address": "0x0000000000000000000000000000000000000002",
                "label": "Precompiled"
            }
        ]
    },
    "trace": {
        "accountLabels": null,
        "dataMap": {
            "-1": {
                "invocation": {
                    "address": "0xd2e36d367412d5a8a15bf7a9543e0d288a1ed49e",
                    "callData": "",
                    "decodedMethod": null,
                    "errorInfo": "",
                    "fromAddress": "",
                    "gasUsed": 0,
                    "id": -1,
                    "methodDecoded": false,
                    "operation": "",
                    "output": "",
                    "revert": false,
                    "revertMessage": "",
                    "selector": "",
                    "status": false,
                    "value": ""
                },
                "nodeType": 0
            },
            "0": {
                "invocation": {
                    "address": "0x8967ba97f39334c9e6f8e34b8a3d7556306af568",
                    "callData": "0x00000000000000000000000000000000000000012a30f40460855043e57e88f4000000000000000000000000000000000000000000000000053444835ec5800000000000000000000000000000000000000000000000000000000000000000a00000000000000000000000000000000000000000000000000000000000000100000000000000000000000000d2e36d367412d5a8a15bf7a9543e0d288a1ed49e0000000000000000000000000000000000000000000000000000000000000002000000000000000000000000471a202f69d6e975da55e363dab1bdb2e86e0c0f000000000000000000000000c02aaa39b223fe8d0a0e5c4f27ead9083c756cc200000000000000000000000000000000000000000000000000000000000000010000000000000000000000001a75f7db182ce7fca969f029e1ef573f7aee9cb5",
                    "decodedMethod": null,
                    "errorInfo": "",
                    "fromAddress": "0xd2e36d367412d5a8a15bf7a9543e0d288a1ed49e",
                    "gasUsed": 128674,
                    "id": 0,
                    "methodDecoded": false,
                    "operation": "CALL",
                    "output": "",
                    "revert": false,
                    "revertMessage": "",
                    "selector": "0x21938f75",
                    "status": true,
                    "value": "0"
                },
                "nodeType": 0
            },
            "1": {
                "invocation": {
                    "address": "0x1a75f7db182ce7fca969f029e1ef573f7aee9cb5",
                    "callData": "0x000000000000000000000000471a202f69d6e975da55e363dab1bdb2e86e0c0f000000000000000000000000c02aaa39b223fe8d0a0e5c4f27ead9083c756cc2",
                    "decodedMethod": null,
                    "errorInfo": "",
                    "fromAddress": "0x8967ba97f39334c9e6f8e34b8a3d7556306af568",
                    "gasUsed": 3323,
                    "id": 1,
                    "methodDecoded": false,
                    "operation": "STATICCALL",
                    "output": "0x000000000000000000000000dad1bfa1a3bb330a2389f12fb094b3824585592f",
                    "revert": false,
                    "revertMessage": "",
                    "selector": "0xe98a5b85",
                    "status": true,
                    "value": "0"
                },
                "nodeType": 0
            },
            "10": {
                "event": {
                    "contract": "0xc02aaa39b223fe8d0a0e5c4f27ead9083c756cc2",
                    "decodedLog": {
                        "name": "Transfer",
                        "params": [
                            {
                                "name": "src",
                                "type": "address",
                                "value": "0xdad1bfa1a3bb330a2389f12fb094b3824585592f"
                            },
                            {
                                "name": "dst",
                                "type": "address",
                                "value": "0x8967ba97f39334c9e6f8e34b8a3d7556306af568"
                            },
                            {
                                "decimalAvailable": true,
                                "name": "wad",
                                "type": "uint256",
                                "value": "507,586,485,424,803,770"
                            }
                        ],
                        "signature": "Transfer(address,address,uint256)"
                    },
                    "id": 10,
                    "logData": "0x000000000000000000000000000000000000000000000000070b4f381c88cfba",
                    "logDecoded": true,
                    "operation": "EVENT",
                    "revert": false,
                    "status": true,
                    "topics": [
                        "0xddf252ad1be2c89b69c2b068fc378daa952ba7f163c4a11628f55a4df523b3ef",
                        "0x000000000000000000000000dad1bfa1a3bb330a2389f12fb094b3824585592f",
                        "0x0000000000000000000000008967ba97f39334c9e6f8e34b8a3d7556306af568"
                    ]
                },
                "nodeType": 1
            },
            "11": {
                "invocation": {
                    "address": "0x471a202f69d6e975da55e363dab1bdb2e86e0c0f",
                    "callData": "0x000000000000000000000000dad1bfa1a3bb330a2389f12fb094b3824585592f",
                    "decodedMethod": {
                        "callParams": [
                            {
                                "name": "account",
                                "type": "address",
                                "value": "0xdad1bfa1a3bb330a2389f12fb094b3824585592f"
                            }
                        ],
                        "constructorArguments": "",
                        "name": "balanceOf",
                        "returnParams": [
                            {
                                "decimalAvailable": true,
                                "name": "",
                                "type": "uint256",
                                "value": "5,986,594,661,321,363,526,567,386,078,523"
                            }
                        ],
                        "signature": "balanceOf(address)"
                    },
                    "errorInfo": "",
                    "fromAddress": "0xdad1bfa1a3bb330a2389f12fb094b3824585592f",
                    "gasUsed": 629,
                    "id": 11,
                    "methodDecoded": true,
                    "operation": "STATICCALL",
                    "output": "0x000000000000000000000000000000000000004b8fbb09ffbcbc5831c4fadd3b",
                    "revert": false,
                    "revertMessage": "",
                    "selector": "0x70a08231",
                    "status": true,
                    "value": "0"
                },
                "nodeType": 0
            },
            "12": {
                "invocation": {
                    "address": "0xc02aaa39b223fe8d0a0e5c4f27ead9083c756cc2",
                    "callData": "0x000000000000000000000000dad1bfa1a3bb330a2389f12fb094b3824585592f",
                    "decodedMethod": {
                        "callParams": [
                            {
                                "name": "",
                                "type": "address",
                                "value": "0xdad1bfa1a3bb330a2389f12fb094b3824585592f"
                            }
                        ],
                        "constructorArguments": "",
                        "name": "balanceOf",
                        "returnParams": [
                            {
                                "decimalAvailable": true,
                                "name": "",
                                "type": "uint256",
                                "value": "32,517,212,738,921,108,151"
                            }
                        ],
                        "signature": "balanceOf(address)"
                    },
                    "errorInfo": "",
                    "fromAddress": "0xdad1bfa1a3bb330a2389f12fb094b3824585592f",
                    "gasUsed": 534,
                    "id": 12,
                    "methodDecoded": true,
                    "operation": "STATICCALL",
                    "output": "0x000000000000000000000000000000000000000000000001c34458b3d53312b7",
                    "revert": false,
                    "revertMessage": "",
                    "selector": "0x70a08231",
                    "status": true,
                    "value": "0"
                },
                "nodeType": 0
            },
            "13": {
                "event": {
                    "contract": "0xdad1bfa1a3bb330a2389f12fb094b3824585592f",
                    "decodedLog": {
                        "name": "Sync",
                        "params": [
                            {
                                "name": "reserve0",
                                "type": "uint112",
                                "value": "5,986,594,661,321,363,526,567,386,078,523"
                            },
                            {
                                "name": "reserve1",
                                "type": "uint112",
                                "value": "32,517,212,738,921,108,151"
                            }
                        ],
                        "signature": "Sync(uint112,uint112)"
                    },
                    "id": 13,
                    "logData": "0x000000000000000000000000000000000000004b8fbb09ffbcbc5831c4fadd3b000000000000000000000000000000000000000000000001c34458b3d53312b7",
                    "logDecoded": true,
                    "operation": "EVENT",
                    "revert": false,
                    "status": true,
                    "topics": [
                        "0x1c411e9a96e071241c2f21f7726b17ae89e3cab4c78be50e062b03a9fffbbad1"
                    ]
                },
                "nodeType": 1
            },
            "14": {
                "event": {
                    "contract": "0xdad1bfa1a3bb330a2389f12fb094b3824585592f",
                    "decodedLog": {
                        "name": "Swap",
                        "params": [
                            {
                                "name": "sender",
                                "type": "address",
                                "value": "0x1a75f7db182ce7fca969f029e1ef573f7aee9cb5"
                            },
                            {
                                "name": "to",
                                "type": "address",
                                "value": "0x8967ba97f39334c9e6f8e34b8a3d7556306af568"
                            },
                            {
                                "name": "amount0In",
                                "type": "uint256",
                                "value": "92,285,713,704,266,182,620,727,904,500"
                            },
                            {
                                "name": "amount1In",
                                "type": "uint256",
                                "value": "0"
                            },
                            {
                                "name": "amount0Out",
                                "type": "uint256",
                                "value": "0"
                            },
                            {
                                "name": "amount1Out",
                                "type": "uint256",
                                "value": "507,586,485,424,803,770"
                            }
                        ],
                        "signature": "Swap(address,uint256,uint256,uint256,uint256,address)"
                    },
                    "id": 14,
                    "logData": "0x00000000000000000000000000000000000000012a30f40460855043e57e88f400000000000000000000000000000000000000000000000000000000000000000000000000000000000000000000000000000000000000000000000000000000000000000000000000000000000000000000000000000000070b4f381c88cfba",
                    "logDecoded": true,
                    "operation": "EVENT",
                    "revert": false,
                    "status": true,
                    "topics": [
                        "0xd78ad95fa46c994b6551d0da85fc275fe613ce37657fb8d5e3d130840159d822",
                        "0x0000000000000000000000001a75f7db182ce7fca969f029e1ef573f7aee9cb5",
                        "0x0000000000000000000000008967ba97f39334c9e6f8e34b8a3d7556306af568"
                    ]
                },
                "nodeType": 1
            },
            "15": {
                "invocation": {
                    "address": "0xc02aaa39b223fe8d0a0e5c4f27ead9083c756cc2",
                    "callData": "0x0000000000000000000000008967ba97f39334c9e6f8e34b8a3d7556306af568",
                    "decodedMethod": {
                        "callParams": [
                            {
                                "name": "",
                                "type": "address",
                                "value": "0x8967ba97f39334c9e6f8e34b8a3d7556306af568"
                            }
                        ],
                        "constructorArguments": "",
                        "name": "balanceOf",
                        "returnParams": [
                            {
                                "decimalAvailable": true,
                                "name": "",
                                "type": "uint256",
                                "value": "507,586,485,424,803,770"
                            }
                        ],
                        "signature": "balanceOf(address)"
                    },
                    "errorInfo": "",
                    "fromAddress": "0x8967ba97f39334c9e6f8e34b8a3d7556306af568",
                    "gasUsed": 534,
                    "id": 15,
                    "methodDecoded": true,
                    "operation": "STATICCALL",
                    "output": "0x000000000000000000000000000000000000000000000000070b4f381c88cfba",
                    "revert": false,
                    "revertMessage": "",
                    "selector": "0x70a08231",
                    "status": true,
                    "value": "0"
                },
                "nodeType": 0
            },
            "16": {
                "event": {
                    "contract": "0x8967ba97f39334c9e6f8e34b8a3d7556306af568",
                    "decodedLog": null,
                    "id": 16,
                    "logData": "0x00000000000000000000000000000000000000012a30f40460855043e57e88f4000000000000000000000000000000000000000000000000053444835ec58000000000000000000000000000000000000000000000000000070b4f381c88cfba",
                    "logDecoded": false,
                    "operation": "EVENT",
                    "revert": false,
                    "status": true,
                    "topics": [
                        "0x75579d79b5f47d9948c4ef1a2ca6debf5b1305937f0eff4fc71cd7fb3053428e"
                    ]
                },
                "nodeType": 1
            },
            "17": {
                "invocation": {
                    "address": "0xc02aaa39b223fe8d0a0e5c4f27ead9083c756cc2",
                    "callData": "0x000000000000000000000000000000000000000000000000070b4f381c88cfba",
                    "decodedMethod": {
                        "callParams": [
                            {
                                "name": "wad",
                                "type": "uint256",
                                "value": "507,586,485,424,803,770"
                            }
                        ],
                        "constructorArguments": "",
                        "name": "withdraw",
                        "returnParams": [],
                        "signature": "withdraw(uint256)"
                    },
                    "errorInfo": "",
                    "fromAddress": "0x8967ba97f39334c9e6f8e34b8a3d7556306af568",
                    "gasUsed": 9195,
                    "id": 17,
                    "methodDecoded": true,
                    "operation": "CALL",
                    "output": "",
                    "revert": false,
                    "revertMessage": "",
                    "selector": "0x2e1a7d4d",
                    "status": true,
                    "value": "0"
                },
                "nodeType": 0
            },
            "18": {
                "invocation": {
                    "address": "0x8967ba97f39334c9e6f8e34b8a3d7556306af568",
                    "callData": "0x",
                    "decodedMethod": null,
                    "errorInfo": "",
                    "fromAddress": "0xc02aaa39b223fe8d0a0e5c4f27ead9083c756cc2",
                    "gasUsed": 55,
                    "id": 18,
                    "methodDecoded": false,
                    "operation": "CALL",
                    "output": "",
                    "revert": false,
                    "revertMessage": "",
                    "selector": "fallback",
                    "status": true,
                    "value": "0.50758648542480377"
                },
                "nodeType": 0
            },
            "19": {
                "event": {
                    "contract": "0xc02aaa39b223fe8d0a0e5c4f27ead9083c756cc2",
                    "decodedLog": {
                        "name": "Withdrawal",
                        "params": [
                            {
                                "name": "src",
                                "type": "address",
                                "value": "0x8967ba97f39334c9e6f8e34b8a3d7556306af568"
                            },
                            {
                                "name": "wad",
                                "type": "uint256",
                                "value": "507,586,485,424,803,770"
                            }
                        ],
                        "signature": "Withdrawal(address,uint256)"
                    },
                    "id": 19,
                    "logData": "0x000000000000000000000000000000000000000000000000070b4f381c88cfba",
                    "logDecoded": true,
                    "operation": "EVENT",
                    "revert": false,
                    "status": true,
                    "topics": [
                        "0x7fcf532c15f0a6db0bd6d0e038bea71d30d808c7d98cb3bf7268a95bf5081b65",
                        "0x0000000000000000000000008967ba97f39334c9e6f8e34b8a3d7556306af568"
                    ]
                },
                "nodeType": 1
            },
            "2": {
                "invocation": {
                    "address": "0x471a202f69d6e975da55e363dab1bdb2e86e0c0f",
                    "callData": "0x000000000000000000000000d2e36d367412d5a8a15bf7a9543e0d288a1ed49e000000000000000000000000dad1bfa1a3bb330a2389f12fb094b3824585592f00000000000000000000000000000000000000012a30f40460855043e57e88f4",
                    "decodedMethod": {
                        "callParams": [
                            {
                                "name": "from",
                                "type": "address",
                                "value": "0xd2e36d367412d5a8a15bf7a9543e0d288a1ed49e"
                            },
                            {
                                "name": "to",
                                "type": "address",
                                "value": "0xdad1bfa1a3bb330a2389f12fb094b3824585592f"
                            },
                            {
                                "decimalAvailable": true,
                                "name": "amount",
                                "type": "uint256",
                                "value": "92,285,713,704,266,182,620,727,904,500"
                            }
                        ],
                        "constructorArguments": "",
                        "name": "transferFrom",
                        "returnParams": [
                            {
                                "name": "",
                                "type": "bool",
                                "value": true
                            }
                        ],
                        "signature": "transferFrom(address,address,uint256)"
                    },
                    "errorInfo": "",
                    "fromAddress": "0x8967ba97f39334c9e6f8e34b8a3d7556306af568",
                    "gasUsed": 15174,
                    "id": 2,
                    "methodDecoded": true,
                    "operation": "CALL",
                    "output": "0x0000000000000000000000000000000000000000000000000000000000000001",
                    "revert": false,
                    "revertMessage": "",
                    "selector": "0x23b872dd",
                    "status": true,
                    "value": "0"
                },
                "nodeType": 0
            },
            "20": {
                "invocation": {
                    "address": "0xd2e36d367412d5a8a15bf7a9543e0d288a1ed49e",
                    "callData": "0x",
                    "decodedMethod": null,
                    "errorInfo": "",
                    "fromAddress": "0x8967ba97f39334c9e6f8e34b8a3d7556306af568",
                    "gasUsed": 0,
                    "id": 20,
                    "methodDecoded": false,
                    "operation": "CALL",
                    "output": "",
                    "revert": false,
                    "revertMessage": "",
                    "selector": "fallback",
                    "status": true,
                    "value": "0.50758648542480377"
                },
                "nodeType": 0
            },
            "3": {
                "event": {
                    "contract": "0x471a202f69d6e975da55e363dab1bdb2e86e0c0f",
                    "decodedLog": {
                        "name": "Transfer",
                        "params": [
                            {
                                "name": "from",
                                "type": "address",
                                "value": "0xd2e36d367412d5a8a15bf7a9543e0d288a1ed49e"
                            },
                            {
                                "name": "to",
                                "type": "address",
                                "value": "0xdad1bfa1a3bb330a2389f12fb094b3824585592f"
                            },
                            {
                                "decimalAvailable": true,
                                "name": "value",
                                "type": "uint256",
                                "value": "92,285,713,704,266,182,620,727,904,500"
                            }
                        ],
                        "signature": "Transfer(address,address,uint256)"
                    },
                    "id": 3,
                    "logData": "0x00000000000000000000000000000000000000012a30f40460855043e57e88f4",
                    "logDecoded": true,
                    "operation": "EVENT",
                    "revert": false,
                    "status": true,
                    "topics": [
                        "0xddf252ad1be2c89b69c2b068fc378daa952ba7f163c4a11628f55a4df523b3ef",
                        "0x000000000000000000000000d2e36d367412d5a8a15bf7a9543e0d288a1ed49e",
                        "0x000000000000000000000000dad1bfa1a3bb330a2389f12fb094b3824585592f"
                    ]
                },
                "nodeType": 1
            },
            "4": {
                "invocation": {
                    "address": "0xc02aaa39b223fe8d0a0e5c4f27ead9083c756cc2",
                    "callData": "0x0000000000000000000000008967ba97f39334c9e6f8e34b8a3d7556306af568",
                    "decodedMethod": {
                        "callParams": [
                            {
                                "name": "",
                                "type": "address",
                                "value": "0x8967ba97f39334c9e6f8e34b8a3d7556306af568"
                            }
                        ],
                        "constructorArguments": "",
                        "name": "balanceOf",
                        "returnParams": [
                            {
                                "decimalAvailable": true,
                                "name": "",
                                "type": "uint256",
                                "value": "0"
                            }
                        ],
                        "signature": "balanceOf(address)"
                    },
                    "errorInfo": "",
                    "fromAddress": "0x8967ba97f39334c9e6f8e34b8a3d7556306af568",
                    "gasUsed": 2534,
                    "id": 4,
                    "methodDecoded": true,
                    "operation": "STATICCALL",
                    "output": "0x0000000000000000000000000000000000000000000000000000000000000000",
                    "revert": false,
                    "revertMessage": "",
                    "selector": "0x70a08231",
                    "status": true,
                    "value": "0"
                },
                "nodeType": 0
            },
            "5": {
                "invocation": {
                    "address": "0x1a75f7db182ce7fca969f029e1ef573f7aee9cb5",
                    "callData": "0x000000000000000000000000471a202f69d6e975da55e363dab1bdb2e86e0c0f000000000000000000000000c02aaa39b223fe8d0a0e5c4f27ead9083c756cc20000000000000000000000008967ba97f39334c9e6f8e34b8a3d7556306af568",
                    "decodedMethod": {
                        "callParams": [
                            {
                                "name": "token1",
                                "type": "address",
                                "value": "0x471a202f69d6e975da55e363dab1bdb2e86e0c0f"
                            },
                            {
                                "name": "token2",
                                "type": "address",
                                "value": "0xc02aaa39b223fe8d0a0e5c4f27ead9083c756cc2"
                            },
                            {
                                "name": "reseller",
                                "type": "address",
                                "value": "0x8967ba97f39334c9e6f8e34b8a3d7556306af568"
                            }
                        ],
                        "constructorArguments": "",
                        "name": "swap",
                        "returnParams": [],
                        "signature": "swap(address,address,address)"
                    },
                    "errorInfo": "",
                    "fromAddress": "0x8967ba97f39334c9e6f8e34b8a3d7556306af568",
                    "gasUsed": 71910,
                    "id": 5,
                    "methodDecoded": true,
                    "operation": "CALL",
                    "output": "",
                    "revert": false,
                    "revertMessage": "",
                    "selector": "0x93316212",
                    "status": true,
                    "value": "0"
                },
                "nodeType": 0
            },
            "6": {
                "invocation": {
                    "address": "0xdad1bfa1a3bb330a2389f12fb094b3824585592f",
                    "callData": "0x",
                    "decodedMethod": {
                        "callParams": [],
                        "constructorArguments": "",
                        "name": "getReserves",
                        "returnParams": [
                            {
                                "name": "_reserve0",
                                "type": "uint112",
                                "value": "5,894,308,947,617,097,343,946,658,174,023"
                            },
                            {
                                "name": "_reserve1",
                                "type": "uint112",
                                "value": "33,024,799,224,345,911,921"
                            },
                            {
                                "name": "_blockTimestampLast",
                                "type": "uint32",
                                "value": "1,683,438,515"
                            }
                        ],
                        "signature": "getReserves()"
                    },
                    "errorInfo": "",
                    "fromAddress": "0x1a75f7db182ce7fca969f029e1ef573f7aee9cb5",
                    "gasUsed": 2504,
                    "id": 6,
                    "methodDecoded": true,
                    "operation": "STATICCALL",
                    "output": "0x000000000000000000000000000000000000004a658a15fb5c3707eddf7c5447000000000000000000000000000000000000000000000001ca4fa7ebf1bbe2710000000000000000000000000000000000000000000000000000000064573bb3",
                    "revert": false,
                    "revertMessage": "",
                    "selector": "0x0902f1ac",
                    "status": true,
                    "value": "0"
                },
                "nodeType": 0
            },
            "7": {
                "invocation": {
                    "address": "0x471a202f69d6e975da55e363dab1bdb2e86e0c0f",
                    "callData": "0x000000000000000000000000dad1bfa1a3bb330a2389f12fb094b3824585592f",
                    "decodedMethod": {
                        "callParams": [
                            {
                                "name": "account",
                                "type": "address",
                                "value": "0xdad1bfa1a3bb330a2389f12fb094b3824585592f"
                            }
                        ],
                        "constructorArguments": "",
                        "name": "balanceOf",
                        "returnParams": [
                            {
                                "decimalAvailable": true,
                                "name": "",
                                "type": "uint256",
                                "value": "5,986,594,661,321,363,526,567,386,078,523"
                            }
                        ],
                        "signature": "balanceOf(address)"
                    },
                    "errorInfo": "",
                    "fromAddress": "0x1a75f7db182ce7fca969f029e1ef573f7aee9cb5",
                    "gasUsed": 629,
                    "id": 7,
                    "methodDecoded": true,
                    "operation": "STATICCALL",
                    "output": "0x000000000000000000000000000000000000004b8fbb09ffbcbc5831c4fadd3b",
                    "revert": false,
                    "revertMessage": "",
                    "selector": "0x70a08231",
                    "status": true,
                    "value": "0"
                },
                "nodeType": 0
            },
            "8": {
                "invocation": {
                    "address": "0xdad1bfa1a3bb330a2389f12fb094b3824585592f",
                    "callData": "0x0000000000000000000000000000000000000000000000000000000000000000000000000000000000000000000000000000000000000000070b4f381c88cfba0000000000000000000000008967ba97f39334c9e6f8e34b8a3d7556306af56800000000000000000000000000000000000000000000000000000000000000800000000000000000000000000000000000000000000000000000000000000000",
                    "decodedMethod": {
                        "callParams": [
                            {
                                "name": "amount0Out",
                                "type": "uint256",
                                "value": "0"
                            },
                            {
                                "name": "amount1Out",
                                "type": "uint256",
                                "value": "507,586,485,424,803,770"
                            },
                            {
                                "name": "to",
                                "type": "address",
                                "value": "0x8967ba97f39334c9e6f8e34b8a3d7556306af568"
                            },
                            {
                                "name": "data",
                                "type": "bytes",
                                "value": "0x"
                            }
                        ],
                        "constructorArguments": "",
                        "name": "swap",
                        "returnParams": [],
                        "signature": "swap(uint256,uint256,address,bytes)"
                    },
                    "errorInfo": "",
                    "fromAddress": "0x1a75f7db182ce7fca969f029e1ef573f7aee9cb5",
                    "gasUsed": 60448,
                    "id": 8,
                    "methodDecoded": true,
                    "operation": "CALL",
                    "output": "",
                    "revert": false,
                    "revertMessage": "",
                    "selector": "0x022c0d9f",
                    "status": true,
                    "value": "0"
                },
                "nodeType": 0
            },
            "9": {
                "invocation": {
                    "address": "0xc02aaa39b223fe8d0a0e5c4f27ead9083c756cc2",
                    "callData": "0x0000000000000000000000008967ba97f39334c9e6f8e34b8a3d7556306af568000000000000000000000000000000000000000000000000070b4f381c88cfba",
                    "decodedMethod": {
                        "callParams": [
                            {
                                "name": "dst",
                                "type": "address",
                                "value": "0x8967ba97f39334c9e6f8e34b8a3d7556306af568"
                            },
                            {
                                "decimalAvailable": true,
                                "name": "wad",
                                "type": "uint256",
                                "value": "507,586,485,424,803,770"
                            }
                        ],
                        "constructorArguments": "",
                        "name": "transfer",
                        "returnParams": [
                            {
                                "name": "",
                                "type": "bool",
                                "value": true
                            }
                        ],
                        "signature": "transfer(address,uint256)"
                    },
                    "errorInfo": "",
                    "fromAddress": "0xdad1bfa1a3bb330a2389f12fb094b3824585592f",
                    "gasUsed": 27962,
                    "id": 9,
                    "methodDecoded": true,
                    "operation": "CALL",
                    "output": "0x0000000000000000000000000000000000000000000000000000000000000001",
                    "revert": false,
                    "revertMessage": "",
                    "selector": "0xa9059cbb",
                    "status": true,
                    "value": "0"
                },
                "nodeType": 0
            }
        },
        "gasFlame": [
            {
                "children": [
                    {
                        "children": [
                            {
                                "children": [],
                                "depth": 0,
                                "name": "Initial Gas",
                                "value": 23592
                            },
                            {
                                "children": [
                                    {
                                        "children": [],
                                        "depth": 1,
                                        "name": "0xe98a5b85",
                                        "value": 3323
                                    },
                                    {
                                        "children": [],
                                        "depth": 1,
                                        "name": "transferFrom",
                                        "value": 15174
                                    },
                                    {
                                        "children": [],
                                        "depth": 1,
                                        "name": "balanceOf",
                                        "value": 2534
                                    },
                                    {
                                        "children": [
                                            {
                                                "children": [],
                                                "depth": 2,
                                                "name": "getReserves",
                                                "value": 2504
                                            },
                                            {
                                                "children": [],
                                                "depth": 2,
                                                "name": "balanceOf",
                                                "value": 629
                                            },
                                            {
                                                "children": [
                                                    {
                                                        "children": [],
                                                        "depth": 3,
                                                        "name": "transfer",
                                                        "value": 27962
                                                    },
                                                    {
                                                        "children": [],
                                                        "depth": 3,
                                                        "name": "balanceOf",
                                                        "value": 629
                                                    },
                                                    {
                                                        "children": [],
                                                        "depth": 3,
                                                        "name": "balanceOf",
                                                        "value": 534
                                                    }
                                                ],
                                                "depth": 2,
                                                "name": "swap",
                                                "value": 60448
                                            }
                                        ],
                                        "depth": 1,
                                        "name": "swap",
                                        "value": 71910
                                    },
                                    {
                                        "children": [],
                                        "depth": 1,
                                        "name": "balanceOf",
                                        "value": 534
                                    },
                                    {
                                        "children": [
                                            {
                                                "children": [],
                                                "depth": 2,
                                                "name": "fallback",
                                                "value": 55
                                            }
                                        ],
                                        "depth": 1,
                                        "name": "withdraw",
                                        "value": 9195
                                    },
                                    {
                                        "children": [],
                                        "depth": 1,
                                        "name": "fallback",
                                        "value": 0
                                    }
                                ],
                                "depth": 0,
                                "name": "Executed Gas",
                                "value": 127782
                            }
                        ],
                        "depth": -1,
                        "name": "Actual Gas Used",
                        "value": 128674
                    },
                    {
                        "children": [],
                        "depth": -1,
                        "name": "Refunded Gas",
                        "value": 22700
                    }
                ],
                "depth": -2,
                "name": "Total Gas",
                "value": 151374
            }
        ],
        "isConfirmed": true,
        "mainTrace": [
            {
                "children": [
                    {
                        "children": [
                            {
                                "children": [],
                                "depth": 1,
                                "id": 1,
                                "order": 1
                            },
                            {
                                "children": [
                                    {
                                        "children": [],
                                        "depth": 2,
                                        "id": 3,
                                        "order": 3
                                    }
                                ],
                                "depth": 1,
                                "id": 2,
                                "order": 2
                            },
                            {
                                "children": [],
                                "depth": 1,
                                "id": 4,
                                "order": 4
                            },
                            {
                                "children": [
                                    {
                                        "children": [],
                                        "depth": 2,
                                        "id": 6,
                                        "order": 6
                                    },
                                    {
                                        "children": [],
                                        "depth": 2,
                                        "id": 7,
                                        "order": 7
                                    },
                                    {
                                        "children": [
                                            {
                                                "children": [
                                                    {
                                                        "children": [],
                                                        "depth": 4,
                                                        "id": 10,
                                                        "order": 10
                                                    }
                                                ],
                                                "depth": 3,
                                                "id": 9,
                                                "order": 9
                                            },
                                            {
                                                "children": [],
                                                "depth": 3,
                                                "id": 11,
                                                "order": 11
                                            },
                                            {
                                                "children": [],
                                                "depth": 3,
                                                "id": 12,
                                                "order": 12
                                            },
                                            {
                                                "children": [],
                                                "depth": 3,
                                                "id": 13,
                                                "order": 13
                                            },
                                            {
                                                "children": [],
                                                "depth": 3,
                                                "id": 14,
                                                "order": 14
                                            }
                                        ],
                                        "depth": 2,
                                        "id": 8,
                                        "order": 8
                                    }
                                ],
                                "depth": 1,
                                "id": 5,
                                "order": 5
                            },
                            {
                                "children": [],
                                "depth": 1,
                                "id": 15,
                                "order": 15
                            },
                            {
                                "children": [],
                                "depth": 1,
                                "id": 16,
                                "order": 16
                            },
                            {
                                "children": [
                                    {
                                        "children": [],
                                        "depth": 2,
                                        "id": 18,
                                        "order": 18
                                    },
                                    {
                                        "children": [],
                                        "depth": 2,
                                        "id": 19,
                                        "order": 19
                                    }
                                ],
                                "depth": 1,
                                "id": 17,
                                "order": 17
                            },
                            {
                                "children": [],
                                "depth": 1,
                                "id": 20,
                                "order": 20
                            }
                        ],
                        "depth": 0,
                        "id": 0,
                        "order": 0
                    }
                ],
                "depth": -1,
                "id": -1,
                "order": -1
            }
        ],
        "mainTraceNodeCount": 21,
        "parentIdMap": {
            "0": -1,
            "1": 0,
            "10": 9,
            "11": 8,
            "12": 8,
            "13": 8,
            "14": 8,
            "15": 0,
            "16": 0,
            "17": 0,
            "18": 17,
            "19": 17,
            "2": 0,
            "20": 0,
            "3": 2,
            "4": 0,
            "5": 0,
            "6": 5,
            "7": 5,
            "8": 5,
            "9": 8
        },
        "tidyTrace": [
            {
                "children": [
                    {
                        "children": [
                            {
                                "children": [
                                    {
                                        "children": [],
                                        "depth": 2,
                                        "id": 3,
                                        "order": 3
                                    }
                                ],
                                "depth": 1,
                                "id": 2,
                                "order": 2
                            },
                            {
                                "children": [
                                    {
                                        "children": [
                                            {
                                                "children": [
                                                    {
                                                        "children": [],
                                                        "depth": 4,
                                                        "id": 10,
                                                        "order": 10
                                                    }
                                                ],
                                                "depth": 3,
                                                "id": 9,
                                                "order": 9
                                            },
                                            {
                                                "children": [],
                                                "depth": 3,
                                                "id": 13,
                                                "order": 13
                                            },
                                            {
                                                "children": [],
                                                "depth": 3,
                                                "id": 14,
                                                "order": 14
                                            }
                                        ],
                                        "depth": 2,
                                        "id": 8,
                                        "order": 8
                                    }
                                ],
                                "depth": 1,
                                "id": 5,
                                "order": 5
                            },
                            {
                                "children": [],
                                "depth": 1,
                                "id": 16,
                                "order": 16
                            },
                            {
                                "children": [
                                    {
                                        "children": [],
                                        "depth": 2,
                                        "id": 18,
                                        "order": 18
                                    },
                                    {
                                        "children": [],
                                        "depth": 2,
                                        "id": 19,
                                        "order": 19
                                    }
                                ],
                                "depth": 1,
                                "id": 17,
                                "order": 17
                            },
                            {
                                "children": [],
                                "depth": 1,
                                "id": 20,
                                "order": 20
                            }
                        ],
                        "depth": 0,
                        "id": 0,
                        "order": 0
                    }
                ],
                "depth": -1,
                "id": -1,
                "order": -1
            }
        ],
        "tidyTraceNodeCount": 14
    },
    "state_change": {
        "stateChanges": [
            {
                "address": "0x471a202f69d6e975da55e363dab1bdb2e86e0c0f",
                "erc": "ERC-20",
                "slots": [
                    {
                        "current": "0x00000000000000000000000000000000000000031114de0c485da79fd59bd821",
                        "key": "0x3889108a597e742d0755d4640f1fe37973030729cb562864cbd77f53d2712430",
                        "prev": "0x00000000000000000000000000000000000000043b45d210a8e2f7e3bb1a6115"
                    },
                    {
                        "current": "0x000000000000000000000000000000000000004b8fbb09ffbcbc5831c4fadd3b",
                        "key": "0x750c5948511b740a98d2efcc13c535346ba613f8ade35ce7047e81d77d19e01f",
                        "prev": "0x000000000000000000000000000000000000004a658a15fb5c3707eddf7c5447"
                    }
                ],
                "storageVariables": [
                    {
                        "name": "_balances",
                        "type": "mapping(address => uint256)",
                        "value": {
                            "pairs": [
                                {
                                    "key": "0xd2e36d367412d5a8a15bf7a9543e0d288a1ed49e",
                                    "value": {
                                        "current": "242970959818082805726689613857",
                                        "prev": "335256673522348988347417518357",
                                        "typeTag": 1
                                    }
                                },
                                {
                                    "key": "0xdad1bfa1a3bb330a2389f12fb094b3824585592f",
                                    "value": {
                                        "current": "5986594661321363526567386078523",
                                        "prev": "5894308947617097343946658174023",
                                        "typeTag": 1
                                    }
                                }
                            ],
                            "typeTag": 4
                        }
                    }
                ]
            },
            {
                "address": "0xc02aaa39b223fe8d0a0e5c4f27ead9083c756cc2",
                "erc": "ERC-20",
                "slots": [
                    {
                        "current": "0x000000000000000000000000000000000000000000000001c34458b3d53312b7",
                        "key": "0x0f1e50a15592407a86226e63ba03d0a944cbc3862696de22b47ea0f47ed9c3f5",
                        "prev": "0x000000000000000000000000000000000000000000000001ca4fa7ebf1bbe271"
                    }
                ],
                "storageVariables": [
                    {
                        "name": "balanceOf",
                        "type": "mapping(address => uint256)",
                        "value": {
                            "pairs": [
                                {
                                    "key": "0xdad1bfa1a3bb330a2389f12fb094b3824585592f",
                                    "value": {
                                        "current": "32517212738921108151",
                                        "prev": "33024799224345911921",
                                        "typeTag": 1
                                    }
                                }
                            ],
                            "typeTag": 4
                        }
                    }
                ]
            },
            {
                "address": "0xdad1bfa1a3bb330a2389f12fb094b3824585592f",
                "erc": "ERC-20",
                "slots": [
                    {
                        "current": "0x000000000000000000000014ed19b67afd21c9e3f802e8bc9c243ab724685320",
                        "key": "0x000000000000000000000000000000000000000000000000000000000000000a",
                        "prev": "0x000000000000000000000014eb270ab5b8ccd59f74f0e2e3bf17f80538b19648"
                    },
                    {
                        "current": "0x64573bbf000000000001c34458b3d53312b7004b8fbb09ffbcbc5831c4fadd3b",
                        "key": "0x0000000000000000000000000000000000000000000000000000000000000008",
                        "prev": "0x64573bb3000000000001ca4fa7ebf1bbe271004a658a15fb5c3707eddf7c5447"
                    },
                    {
                        "current": "0x0000000000000000000000000000000000000000001b8a236d2d9298a1726fa8",
                        "key": "0x0000000000000000000000000000000000000000000000000000000000000009",
                        "prev": "0x0000000000000000000000000000000000000000001b4036c182a98e568bc358"
                    }
                ],
                "storageVariables": [
                    {
                        "name": "price1CumulativeLast",
                        "type": "uint256",
                        "value": {
                            "current": "30583636974220230065170666763637769999073673761568",
                            "prev": "30572516239784012589433614229546958095707498714696",
                            "typeTag": 1
                        }
                    },
                    {
                        "name": "reserve0",
                        "type": "uint112",
                        "value": {
                            "current": "5986594661321363526567386078523",
                            "prev": "5894308947617097343946658174023",
                            "typeTag": 1
                        }
                    },
                    {
                        "name": "reserve1",
                        "type": "uint112",
                        "value": {
                            "current": "32517212738921108151",
                            "prev": "33024799224345911921",
                            "typeTag": 1
                        }
                    },
                    {
                        "name": "blockTimestampLast",
                        "type": "uint32",
                        "value": {
                            "current": "1683438527",
                            "prev": "1683438515",
                            "typeTag": 1
                        }
                    },
                    {
                        "name": "price0CumulativeLast",
                        "type": "uint256",
                        "value": {
                            "current": "33293337207378886918303656",
                            "prev": "32944238652572450421457752",
                            "typeTag": 1
                        }
                    }
                ]
            }
        ]
    }
}