{
    "balance_change": {
        "balanceChanges": []
    },
    "profile": {
        "basic_info": {
            "baseFee": "61.714008506",
            "blockNumber": 17241469,
            "callData": "0xe21fd0e90000000000000000000000000000000000000000000000000000000000000020000000000000000000000000555b6ee8fab3dfdbcca9121721c435fd4c7a1fd1000000000000000000000000000000000000000000000000000000000000000000000000000000000000000000000000000000000000000000000000000000a000000000000000000000000000000000000000000000000000000000000003c000000000000000000000000000000000000000000000000000000000000006000000000000000000000000000000000000000000000000000000000000000300000000000000000000000000000000000000000000000000000000000000002000000000000000000000000000000000000000000000000000000000000000e0000000000000000000000000eeeeeeeeeeeeeeeeeeeeeeeeeeeeeeeeeeeeeeee0000000000000000000000009bf1d7d63dd7a4ce167cf4866388226eeefa702e00000000000000000000000000000000000000000d0c843de140ba199fcc4c0e0000000000000000000000006131b5fae19ea4f9d964eac0408e4408b66337b500000000000000000000000000000000000000000000000000000000645da9b700000000000000000000000000000000000000000000000000000000000002c0000000000000000000000000000000000000000000000000000000000000000100000000000000000000000000000000000000000000000000000000000000200000000000000000000000000000000000000000000000000000000000000001000000000000000000000000000000000000000000000000000000000000002000000000000000000000000000000000000000000000000000000000000000409e8aa935000000000000000000000000000000000000000000000000000000000000000000000000000000000000000000000000000000000000000000000100000000000000000000000000555b6ee8fab3dfdbcca9121721c435fd4c7a1fd100000000000000000000000018052adacd380cb006e0344b6c1d3a6107819d93000000000000000000000000c02aaa39b223fe8d0a0e5c4f27ead9083c756cc20000000000000000000000009bf1d7d63dd7a4ce167cf4866388226eeefa702e00000000000000000000000000000000000000000000000002134eeec228e0000000000000000000000000000000000000000000000000000000000000000000000000000000000000000000000000000000000000000000000000000000000000000000000000000000000000000000000000000000000000000000000000010000000000000000000000000000000000000000000000000000000000000000000000000000000000000000eeeeeeeeeeeeeeeeeeeeeeeeeeeeeeeeeeeeeeee0000000000000000000000009bf1d7d63dd7a4ce167cf4866388226eeefa702e0000000000000000000000000000000000000000000000000000000000000160000000000000000000000000000000000000000000000000000000000000018000000000000000000000000000000000000000000000000000000000000001a000000000000000000000000000000000000000000000000000000000000001e000000000000000000000000061c0e657a2bb407699be1da92fa96bc416e8335b0000000000000000000000000000000000000000000000000214e8348c4f000000000000000000000000000000000000000000000d0c843de140ba199fcc4c0e0000000000000000000000000000000000000000000000000000000000000080000000000000000000000000000000000000000000000000000000000000022000000000000000000000000000000000000000000000000000000000000000000000000000000000000000000000000000000000000000000000000000000000000000000000000000000000000000000000000000000000000000000000000100000000000000000000000096c195f6643a3d797cb90cb6ba0ae2776d51b5f30000000000000000000000000000000000000000000000000000000000000001000000000000000000000000000000000000000000000000000000000000001e000000000000000000000000000000000000000000000000000000000000000000000000000000000000000000000000000000000000000000000000000001ee7b22536f75726365223a22646578746f6f6c73222c22416d6f756e74496e555344223a223236382e353432222c22416d6f756e744f7574555344223a223236382e3337343437343532303734303134222c22526566657272616c223a22222c22466c616773223a332c22496e74656772697479496e666f223a7b224b65794944223a2231222c225369676e6174757265223a2257722b6a663650484666644e526e5a6466663867415a344841476676657a4b676c4469734f414876354d7431532b4572564f5145362f4f5453345969662f554448576461685a3155684f48794336452b3353713047343365374a34306e5063456e4942763138304738444a4439705a47674344657a4b384b4f5046394962765553393268794d7046365568417731332f3961615156644b695a766b514e58572f696c322b77664c30696475396d4a7665495833707365536b662f786d5348596454595155584775325a707075346c53305861395a2f76656845567669462f2f6d5a74433232704d31682b7a5a393556357133724a5971744c69547a6a7a64363838652f7767344655327150786b4261464b6455372f7a4b544655725155766d383059706e4933445748624453626e354c523664613565354a34616b466464314764637849636a487831313770413437315a46456b51413d3d227d7d000000000000000000000000000000000000",
            "debugEnable": true,
            "errorInfo": "execution reverted",
            "eventCount": 1,
            "feeRecipient": "0xdafea492d9c6733ae3d56b7ed1adb60692c98bc5",
            "formatValue": "0.15",
            "gasLimit": 314735,
            "gasPrice": "62.31327874",
            "gasUsed": 83686,
            "intTxnCount": 4,
            "internalRevert": true,
            "internalRevertMessage": "",
            "isContractCreation": false,
            "isFlashloan": false,
            "maxFee": "62.31327874",
            "nonce": 31,
            "overwritedBlockNumber": -1,
            "priorityFee": "62.31327874",
            "receiver": "0x6131b5fae19ea4f9d964eac0408e4408b66337b5",
            "revertMessage": "Call failed",
            "sender": "0x61c0e657a2bb407699be1da92fa96bc416e8335b",
            "simulationEnable": true,
            "sourceTxnHash": "0x4f272a3f41f8ce9e89ee5c0bee67cd5dbf2314f53709e4b5900cdac80c3504ad",
            "status": false,
            "timestamp": "2023-05-12T03:25:47Z",
            "transactionFee": "0.00521474904463564",
            "txnHash": "0x4f272a3f41f8ce9e89ee5c0bee67cd5dbf2314f53709e4b5900cdac80c3504ad",
            "txnIndex": 80,
            "type": 2,
            "value": "150000000000000000"
        },
        "fund_flow": [],
        "token_infos": [
            {
                "address": "0xc02aaa39b223fe8d0a0e5c4f27ead9083c756cc2",
                "decimals": 18
            },
            {
                "address": "0xeeeeeeeeeeeeeeeeeeeeeeeeeeeeeeeeeeeeeeee",
                "decimals": 18
            }
        ]
    },
    "address_label": {
        "labels": [
            {
                "address": "0x6131b5fae19ea4f9d964eac0408e4408b66337b5",
                "label": "KyberSwap: Meta Aggregation Router v2"
            },
            {
                "address": "0x9bf1d7d63dd7a4ce167cf4866388226eeefa702e",
                "label": "Ben (BEN)"
            },
            {
                "address": "0x0000000000000000000000000000000000000001",
                "label": "Precompiled"
            },
            {
                "address": "0x0000000000000000000000000000000000000002",
                "label": "Precompiled"
            },
            {
                "address": "0x0000000000000000000000000000000000000003",
                "label": "Precompiled"
            },
            {
                "address": "0x0000000000000000000000000000000000000004",
                "label": "Precompiled"
            },
            {
                "address": "0x0000000000000000000000000000000000000000",
                "label": "Null Address"
            },
            {
                "address": "0x555b6ee8fab3dfdbcca9121721c435fd4c7a1fd1",
                "label": "KYBERSWAP"
            },
            {
                "address": "0xeeeeeeeeeeeeeeeeeeeeeeeeeeeeeeeeeeeeeeee",
                "label": "Ether"
            }
        ]
    },
    "trace": {
        "accountLabels": null,
        "dataMap": {
            "-1": {
                "invocation": {
                    "address": "0x61c0e657a2bb407699be1da92fa96bc416e8335b",
                    "callData": "",
                    "decodedMethod": null,
                    "errorInfo": "",
                    "fromAddress": "",
                    "gasUsed": 0,
                    "id": -1,
                    "methodDecoded": false,
                    "operation": "",
                    "output": "",
                    "revert": false,
                    "revertMessage": "",
                    "selector": "",
                    "status": false,
                    "value": ""
                },
                "nodeType": 0
            },
            "0": {
                "invocation": {
                    "address": "0x6131b5fae19ea4f9d964eac0408e4408b66337b5",
                    "callData": "0x0000000000000000000000000000000000000000000000000000000000000020000000000000000000000000555b6ee8fab3dfdbcca9121721c435fd4c7a1fd1000000000000000000000000000000000000000000000000000000000000000000000000000000000000000000000000000000000000000000000000000000a000000000000000000000000000000000000000000000000000000000000003c000000000000000000000000000000000000000000000000000000000000006000000000000000000000000000000000000000000000000000000000000000300000000000000000000000000000000000000000000000000000000000000002000000000000000000000000000000000000000000000000000000000000000e0000000000000000000000000eeeeeeeeeeeeeeeeeeeeeeeeeeeeeeeeeeeeeeee0000000000000000000000009bf1d7d63dd7a4ce167cf4866388226eeefa702e00000000000000000000000000000000000000000d0c843de140ba199fcc4c0e0000000000000000000000006131b5fae19ea4f9d964eac0408e4408b66337b500000000000000000000000000000000000000000000000000000000645da9b700000000000000000000000000000000000000000000000000000000000002c0000000000000000000000000000000000000000000000000000000000000000100000000000000000000000000000000000000000000000000000000000000200000000000000000000000000000000000000000000000000000000000000001000000000000000000000000000000000000000000000000000000000000002000000000000000000000000000000000000000000000000000000000000000409e8aa935000000000000000000000000000000000000000000000000000000000000000000000000000000000000000000000000000000000000000000000100000000000000000000000000555b6ee8fab3dfdbcca9121721c435fd4c7a1fd100000000000000000000000018052adacd380cb006e0344b6c1d3a6107819d93000000000000000000000000c02aaa39b223fe8d0a0e5c4f27ead9083c756cc20000000000000000000000009bf1d7d63dd7a4ce167cf4866388226eeefa702e00000000000000000000000000000000000000000000000002134eeec228e0000000000000000000000000000000000000000000000000000000000000000000000000000000000000000000000000000000000000000000000000000000000000000000000000000000000000000000000000000000000000000000000000010000000000000000000000000000000000000000000000000000000000000000000000000000000000000000eeeeeeeeeeeeeeeeeeeeeeeeeeeeeeeeeeeeeeee0000000000000000000000009bf1d7d63dd7a4ce167cf4866388226eeefa702e0000000000000000000000000000000000000000000000000000000000000160000000000000000000000000000000000000000000000000000000000000018000000000000000000000000000000000000000000000000000000000000001a000000000000000000000000000000000000000000000000000000000000001e000000000000000000000000061c0e657a2bb407699be1da92fa96bc416e8335b0000000000000000000000000000000000000000000000000214e8348c4f000000000000000000000000000000000000000000000d0c843de140ba199fcc4c0e0000000000000000000000000000000000000000000000000000000000000080000000000000000000000000000000000000000000000000000000000000022000000000000000000000000000000000000000000000000000000000000000000000000000000000000000000000000000000000000000000000000000000000000000000000000000000000000000000000000000000000000000000000000100000000000000000000000096c195f6643a3d797cb90cb6ba0ae2776d51b5f30000000000000000000000000000000000000000000000000000000000000001000000000000000000000000000000000000000000000000000000000000001e000000000000000000000000000000000000000000000000000000000000000000000000000000000000000000000000000000000000000000000000000001ee7b22536f75726365223a22646578746f6f6c73222c22416d6f756e74496e555344223a223236382e353432222c22416d6f756e744f7574555344223a223236382e3337343437343532303734303134222c22526566657272616c223a22222c22466c616773223a332c22496e74656772697479496e666f223a7b224b65794944223a2231222c225369676e6174757265223a2257722b6a663650484666644e526e5a6466663867415a344841476676657a4b676c4469734f414876354d7431532b4572564f5145362f4f5453345969662f554448576461685a3155684f48794336452b3353713047343365374a34306e5063456e4942763138304738444a4439705a47674344657a4b384b4f5046394962765553393268794d7046365568417731332f3961615156644b695a766b514e58572f696c322b77664c30696475396d4a7665495833707365536b662f786d5348596454595155584775325a707075346c53305861395a2f76656845567669462f2f6d5a74433232704d31682b7a5a393556357133724a5971744c69547a6a7a64363838652f7767344655327150786b4261464b6455372f7a4b544655725155766d383059706e4933445748624453626e354c523664613565354a34616b466464314764637849636a487831313770413437315a46456b51413d3d227d7d000000000000000000000000000000000000",
                    "decodedMethod": {
                        "callParams": [
                            {
                                "name": "execution",
                                "type": "(address,address,bytes,(address,address,address[],uint256[],address[],uint256[],address,uint256,uint256,uint256,bytes),bytes)",
                                "value": [
                                    {
                                        "name": "callTarget",
                                        "type": "address",
                                        "value": "0x555b6ee8fab3dfdbcca9121721c435fd4c7a1fd1"
                                    },
                                    {
                                        "name": "approveTarget",
                                        "type": "address",
                                        "value": "0x0000000000000000000000000000000000000000"
                                    },
                                    {
                                        "name": "targetData",
                                        "type": "bytes",
                                        "value": "0x000000000000000000000000000000000000000000000000000000000000002000000000000000000000000000000000000000000000000000000000000000e0000000000000000000000000eeeeeeeeeeeeeeeeeeeeeeeeeeeeeeeeeeeeeeee0000000000000000000000009bf1d7d63dd7a4ce167cf4866388226eeefa702e00000000000000000000000000000000000000000d0c843de140ba199fcc4c0e0000000000000000000000006131b5fae19ea4f9d964eac0408e4408b66337b500000000000000000000000000000000000000000000000000000000645da9b700000000000000000000000000000000000000000000000000000000000002c0000000000000000000000000000000000000000000000000000000000000000100000000000000000000000000000000000000000000000000000000000000200000000000000000000000000000000000000000000000000000000000000001000000000000000000000000000000000000000000000000000000000000002000000000000000000000000000000000000000000000000000000000000000409e8aa935000000000000000000000000000000000000000000000000000000000000000000000000000000000000000000000000000000000000000000000100000000000000000000000000555b6ee8fab3dfdbcca9121721c435fd4c7a1fd100000000000000000000000018052adacd380cb006e0344b6c1d3a6107819d93000000000000000000000000c02aaa39b223fe8d0a0e5c4f27ead9083c756cc20000000000000000000000009bf1d7d63dd7a4ce167cf4866388226eeefa702e00000000000000000000000000000000000000000000000002134eeec228e0000000000000000000000000000000000000000000000000000000000000000000000000000000000000000000000000000000000000000000000000000000000000000000000000000000000000000000000000000000000000000000000000010000000000000000000000000000000000000000000000000000000000000000"
                                    },
                                    {
                                        "name": "desc",
                                        "type": "(address,address,address[],uint256[],address[],uint256[],address,uint256,uint256,uint256,bytes)",
                                        "value": [
                                            {
                                                "name": "srcToken",
                                                "type": "address",
                                                "value": "0xeeeeeeeeeeeeeeeeeeeeeeeeeeeeeeeeeeeeeeee"
                                            },
                                            {
                                                "name": "dstToken",
                                                "type": "address",
                                                "value": "0x9bf1d7d63dd7a4ce167cf4866388226eeefa702e"
                                            },
                                            {
                                                "name": "srcReceivers",
                                                "type": "address[]",
                                                "value": []
                                            },
                                            {
                                                "name": "srcAmounts",
                                                "type": "uint256[]",
                                                "value": []
                                            },
                                            {
                                                "name": "feeReceivers",
                                                "type": "address[]",
                                                "value": [
                                                    "0x96c195f6643a3d797cb90cb6ba0ae2776d51b5f3"
                                                ]
                                            },
                                            {
                                                "name": "feeAmounts",
                                                "type": "uint256[]",
                                                "value": [
                                                    "30"
                                                ]
                                            },
                                            {
                                                "name": "dstReceiver",
                                                "type": "address",
                                                "value": "0x61c0e657a2bb407699be1da92fa96bc416e8335b"
                                            },
                                            {
                                                "name": "amount",
                                                "type": "uint256",
                                                "value": "150,000,000,000,000,000"
                                            },
                                            {
                                                "name": "minReturnAmount",
                                                "type": "uint256",
                                                "value": "4,038,436,731,371,166,409,230,666,766"
                                            },
                                            {
                                                "name": "flags",
                                                "type": "uint256",
                                                "value": "128"
                                            },
                                            {
                                                "name": "permit",
                                                "type": "bytes",
                                                "value": "0x"
                                            }
                                        ]
                                    },
                                    {
                                        "name": "clientData",
                                        "type": "bytes",
                                        "value": "0x7b22536f75726365223a22646578746f6f6c73222c22416d6f756e74496e555344223a223236382e353432222c22416d6f756e744f7574555344223a223236382e3337343437343532303734303134222c22526566657272616c223a22222c22466c616773223a332c22496e74656772697479496e666f223a7b224b65794944223a2231222c225369676e6174757265223a2257722b6a663650484666644e526e5a6466663867415a344841476676657a4b676c4469734f414876354d7431532b4572564f5145362f4f5453345969662f554448576461685a3155684f48794336452b3353713047343365374a34306e5063456e4942763138304738444a4439705a47674344657a4b384b4f5046394962765553393268794d7046365568417731332f3961615156644b695a766b514e58572f696c322b77664c30696475396d4a7665495833707365536b662f786d5348596454595155584775325a707075346c53305861395a2f76656845567669462f2f6d5a74433232704d31682b7a5a393556357133724a5971744c69547a6a7a64363838652f7767344655327150786b4261464b6455372f7a4b544655725155766d383059706e4933445748624453626e354c523664613565354a34616b466464314764637849636a487831313770413437315a46456b51413d3d227d7d"
                                    }
                                ]
                            }
                        ],
                        "constructorArguments": "",
                        "name": "swap",
                        "returnParams": [],
                        "signature": "swap((address,address,bytes,(address,address,address[],uint256[],address[],uint256[],address,uint256,uint256,uint256,bytes),bytes))"
                    },
                    "errorInfo": "execution reverted",
                    "fromAddress": "0x61c0e657a2bb407699be1da92fa96bc416e8335b",
                    "gasUsed": 83686,
                    "id": 0,
                    "methodDecoded": true,
                    "operation": "CALL",
                    "output": "0x08c379a00000000000000000000000000000000000000000000000000000000000000020000000000000000000000000000000000000000000000000000000000000000b43616c6c206661696c6564000000000000000000000000000000000000000000",
                    "revert": true,
                    "revertMessage": "Call failed",
                    "selector": "0xe21fd0e9",
                    "status": false,
                    "value": "0.15"
                },
                "nodeType": 0
            },
            "1": {
                "invocation": {
                    "address": "0x96c195f6643a3d797cb90cb6ba0ae2776d51b5f3",
                    "callData": "0x",
                    "decodedMethod": null,
                    "errorInfo": "",
                    "fromAddress": "0x6131b5fae19ea4f9d964eac0408e4408b66337b5",
                    "gasUsed": 0,
                    "id": 1,
                    "methodDecoded": false,
                    "operation": "CALL",
                    "output": "",
                    "revert": true,
                    "revertMessage": "",
                    "selector": "fallback",
                    "status": true,
                    "value": "0.00045"
                },
                "nodeType": 0
            },
            "2": {
                "event": {
                    "contract": "0x6131b5fae19ea4f9d964eac0408e4408b66337b5",
                    "decodedLog": {
                        "name": "Fee",
                        "params": [
                            {
                                "name": "token",
                                "type": "address",
                                "value": "0xeeeeeeeeeeeeeeeeeeeeeeeeeeeeeeeeeeeeeeee"
                            },
                            {
                                "name": "totalAmount",
                                "type": "uint256",
                                "value": "150,000,000,000,000,000"
                            },
                            {
                                "name": "totalFee",
                                "type": "uint256",
                                "value": "450,000,000,000,000"
                            },
                            {
                                "name": "recipients",
                                "type": "address[]",
                                "value": [
                                    "0x96c195f6643a3d797cb90cb6ba0ae2776d51b5f3"
                                ]
                            },
                            {
                                "name": "amounts",
                                "type": "uint256[]",
                                "value": [
                                    "30"
                                ]
                            },
                            {
                                "name": "isBps",
                                "type": "bool",
                                "value": true
                            }
                        ],
                        "signature": "Fee(address,uint256,uint256,address[],uint256[],bool)"
                    },
                    "id": 2,
                    "logData": "0x000000000000000000000000eeeeeeeeeeeeeeeeeeeeeeeeeeeeeeeeeeeeeeee0000000000000000000000000000000000000000000000000214e8348c4f000000000000000000000000000000000000000000000000000000019945ca26200000000000000000000000000000000000000000000000000000000000000000c000000000000000000000000000000000000000000000000000000000000001000000000000000000000000000000000000000000000000000000000000000001000000000000000000000000000000000000000000000000000000000000000100000000000000000000000096c195f6643a3d797cb90cb6ba0ae2776d51b5f30000000000000000000000000000000000000000000000000000000000000001000000000000000000000000000000000000000000000000000000000000001e",
                    "logDecoded": true,
                    "operation": "EVENT",
                    "revert": true,
                    "status": false,
                    "topics": [
                        "0x4c39b7ce5f4f514f45cb6f82b171b8b0b7f2cbf488ad28e4eff451588e2f014b"
                    ]
                },
                "nodeType": 1
            },
            "3": {
                "invocation": {
                    "address": "0x9bf1d7d63dd7a4ce167cf4866388226eeefa702e",
                    "callData": "0x00000000000000000000000061c0e657a2bb407699be1da92fa96bc416e8335b",
                    "decodedMethod": {
                        "callParams": [
                            {
                                "name": "account",
                                "type": "address",
                                "value": "0x61c0e657a2bb407699be1da92fa96bc416e8335b"
                            }
                        ],
                        "constructorArguments": "",
                        "name": "balanceOf",
                        "returnParams": [
                            {
                                "decimalAvailable": true,
                                "name": "",
                                "type": "uint256",
                                "value": "0"
                            }
                        ],
                        "signature": "balanceOf(address)"
                    },
                    "errorInfo": "",
                    "fromAddress": "0x6131b5fae19ea4f9d964eac0408e4408b66337b5",
                    "gasUsed": 2562,
                    "id": 3,
                    "methodDecoded": true,
                    "operation": "STATICCALL",
                    "output": "0x0000000000000000000000000000000000000000000000000000000000000000",
                    "revert": true,
                    "revertMessage": "",
                    "selector": "0x70a08231",
                    "status": true,
                    "value": "0"
                },
                "nodeType": 0
            },
            "4": {
                "invocation": {
                    "address": "0x9bf1d7d63dd7a4ce167cf4866388226eeefa702e",
                    "callData": "0x0000000000000000000000006131b5fae19ea4f9d964eac0408e4408b66337b5",
                    "decodedMethod": {
                        "callParams": [
                            {
                                "name": "account",
                                "type": "address",
                                "value": "0x6131b5fae19ea4f9d964eac0408e4408b66337b5"
                            }
                        ],
                        "constructorArguments": "",
                        "name": "balanceOf",
                        "returnParams": [
                            {
                                "decimalAvailable": true,
                                "name": "",
                                "type": "uint256",
                                "value": "0"
                            }
                        ],
                        "signature": "balanceOf(address)"
                    },
                    "errorInfo": "",
                    "fromAddress": "0x6131b5fae19ea4f9d964eac0408e4408b66337b5",
                    "gasUsed": 2562,
                    "id": 4,
                    "methodDecoded": true,
                    "operation": "STATICCALL",
                    "output": "0x0000000000000000000000000000000000000000000000000000000000000000",
                    "revert": true,
                    "revertMessage": "",
                    "selector": "0x70a08231",
                    "status": true,
                    "value": "0"
                },
                "nodeType": 0
            },
            "5": {
                "invocation": {
                    "address": "0x555b6ee8fab3dfdbcca9121721c435fd4c7a1fd1",
                    "callData": "0x00000000000000000000000000000000000000000000000000000000000000200000000000000000000000000000000000000000000000000000000000000300000000000000000000000000000000000000000000000000000000000000002000000000000000000000000000000000000000000000000000000000000000e0000000000000000000000000eeeeeeeeeeeeeeeeeeeeeeeeeeeeeeeeeeeeeeee0000000000000000000000009bf1d7d63dd7a4ce167cf4866388226eeefa702e00000000000000000000000000000000000000000d0c843de140ba199fcc4c0e0000000000000000000000006131b5fae19ea4f9d964eac0408e4408b66337b500000000000000000000000000000000000000000000000000000000645da9b700000000000000000000000000000000000000000000000000000000000002c0000000000000000000000000000000000000000000000000000000000000000100000000000000000000000000000000000000000000000000000000000000200000000000000000000000000000000000000000000000000000000000000001000000000000000000000000000000000000000000000000000000000000002000000000000000000000000000000000000000000000000000000000000000409e8aa935000000000000000000000000000000000000000000000000000000000000000000000000000000000000000000000000000000000000000000000100000000000000000000000000555b6ee8fab3dfdbcca9121721c435fd4c7a1fd100000000000000000000000018052adacd380cb006e0344b6c1d3a6107819d93000000000000000000000000c02aaa39b223fe8d0a0e5c4f27ead9083c756cc20000000000000000000000009bf1d7d63dd7a4ce167cf4866388226eeefa702e00000000000000000000000000000000000000000000000002134eeec228e0000000000000000000000000000000000000000000000000000000000000000000000000000000000000000000000000000000000000000000000000000000000000000000000000000000000000000000000000000000000000000000000000010000000000000000000000000000000000000000000000000000000000000000",
                    "decodedMethod": {
                        "callParams": [
                            {
                                "name": "callerCallData",
                                "type": "bytes",
                                "value": "0x000000000000000000000000000000000000000000000000000000000000002000000000000000000000000000000000000000000000000000000000000000e0000000000000000000000000eeeeeeeeeeeeeeeeeeeeeeeeeeeeeeeeeeeeeeee0000000000000000000000009bf1d7d63dd7a4ce167cf4866388226eeefa702e00000000000000000000000000000000000000000d0c843de140ba199fcc4c0e0000000000000000000000006131b5fae19ea4f9d964eac0408e4408b66337b500000000000000000000000000000000000000000000000000000000645da9b700000000000000000000000000000000000000000000000000000000000002c0000000000000000000000000000000000000000000000000000000000000000100000000000000000000000000000000000000000000000000000000000000200000000000000000000000000000000000000000000000000000000000000001000000000000000000000000000000000000000000000000000000000000002000000000000000000000000000000000000000000000000000000000000000409e8aa935000000000000000000000000000000000000000000000000000000000000000000000000000000000000000000000000000000000000000000000100000000000000000000000000555b6ee8fab3dfdbcca9121721c435fd4c7a1fd100000000000000000000000018052adacd380cb006e0344b6c1d3a6107819d93000000000000000000000000c02aaa39b223fe8d0a0e5c4f27ead9083c756cc20000000000000000000000009bf1d7d63dd7a4ce167cf4866388226eeefa702e00000000000000000000000000000000000000000000000002134eeec228e0000000000000000000000000000000000000000000000000000000000000000000000000000000000000000000000000000000000000000000000000000000000000000000000000000000000000000000000000000000000000000000000000010000000000000000000000000000000000000000000000000000000000000000"
                            }
                        ],
                        "constructorArguments": "",
                        "name": "callBytes",
                        "returnParams": [],
                        "signature": "callBytes(bytes)"
                    },
                    "errorInfo": "execution reverted",
                    "fromAddress": "0x6131b5fae19ea4f9d964eac0408e4408b66337b5",
                    "gasUsed": 3445,
                    "id": 5,
                    "methodDecoded": true,
                    "operation": "CALL",
                    "output": "0x08c379a00000000000000000000000000000000000000000000000000000000000000020000000000000000000000000000000000000000000000000000000000000000f526f757465723a20455850495245440000000000000000000000000000000000",
                    "revert": true,
                    "revertMessage": "Router: EXPIRED",
                    "selector": "0xd9c45357",
                    "status": false,
                    "value": "0.14955"
                },
                "nodeType": 0
            }
        },
        "gasFlame": [
            {
                "children": [
                    {
                        "children": [
                            {
                                "children": [],
                                "depth": 0,
                                "name": "Initial Gas",
                                "value": 39256
                            },
                            {
                                "children": [
                                    {
                                        "children": [],
                                        "depth": 1,
                                        "name": "fallback",
                                        "value": 0
                                    },
                                    {
                                        "children": [],
                                        "depth": 1,
                                        "name": "balanceOf",
                                        "value": 2562
                                    },
                                    {
                                        "children": [],
                                        "depth": 1,
                                        "name": "balanceOf",
                                        "value": 2562
                                    },
                                    {
                                        "children": [],
                                        "depth": 1,
                                        "name": "callBytes",
                                        "value": 3445
                                    }
                                ],
                                "depth": 0,
                                "name": "Executed Gas",
                                "value": 44430
                            }
                        ],
                        "depth": -1,
                        "name": "Actual Gas Used",
                        "value": 83686
                    },
                    {
                        "children": [],
                        "depth": -1,
                        "name": "Refunded Gas",
                        "value": 0
                    }
                ],
                "depth": -2,
                "name": "Total Gas",
                "value": 83686
            }
        ],
        "isConfirmed": true,
        "mainTrace": [
            {
                "children": [
                    {
                        "children": [
                            {
                                "children": [],
                                "depth": 1,
                                "id": 1,
                                "order": 1
                            },
                            {
                                "children": [],
                                "depth": 1,
                                "id": 2,
                                "order": 2
                            },
                            {
                                "children": [],
                                "depth": 1,
                                "id": 3,
                                "order": 3
                            },
                            {
                                "children": [],
                                "depth": 1,
                                "id": 4,
                                "order": 4
                            },
                            {
                                "children": [],
                                "depth": 1,
                                "id": 5,
                                "order": 5
                            }
                        ],
                        "depth": 0,
                        "id": 0,
                        "order": 0
                    }
                ],
                "depth": -1,
                "id": -1,
                "order": -1
            }
        ],
        "mainTraceNodeCount": 6,
        "parentIdMap": {
            "0": -1,
            "1": 0,
            "2": 0,
            "3": 0,
            "4": 0,
            "5": 0
        },
        "tidyTrace": [
            {
                "children": [
                    {
                        "children": [
                            {
                                "children": [],
                                "depth": 1,
                                "id": 1,
                                "order": 1
                            },
                            {
                                "children": [],
                                "depth": 1,
                                "id": 2,
                                "order": 2
                            },
                            {
                                "children": [],
                                "depth": 1,
                                "id": 5,
                                "order": 5
                            }
                        ],
                        "depth": 0,
                        "id": 0,
                        "order": 0
                    }
                ],
                "depth": -1,
                "id": -1,
                "order": -1
            }
        ],
        "tidyTraceNodeCount": 4
    },
    "state_change": {
        "stateChanges": []
    }
}