{
    "balance_change": {
        "balanceChanges": [
            {
                "account": "0xe93381fb4c4f14bda253907b18fad305d799241a",
                "assets": [
                    {
                        "address": "0xbbbbca6a901c926f240b89eacb641d8aec7aeafd",
                        "amount": "26,756",
                        "iconUrl": "https://assets.blocksec.com/icon/b44c7803f30d044afb35b86db54944b24bd583cd9e51110a0bd435181df22ae6.png",
                        "isERC1155": false,
                        "isERC721": false,
                        "sign": false,
                        "value": "23047.20175"
                    }
                ]
            },
            {
                "account": "0xc463316e5720cbb36a108bda26119b0115766026",
                "assets": [
                    {
                        "address": "0xbbbbca6a901c926f240b89eacb641d8aec7aeafd",
                        "amount": "26,756",
                        "iconUrl": "https://assets.blocksec.com/icon/b44c7803f30d044afb35b86db54944b24bd583cd9e51110a0bd435181df22ae6.png",
                        "isERC1155": false,
                        "isERC721": false,
                        "sign": true,
                        "value": "23047.20175"
                    }
                ]
            }
        ]
    },
    "profile": {
        "basic_info": {
            "baseFee": "336.070911474",
            "blockNumber": 14090675,
            "callData": "0xa9059cbb000000000000000000000000c463316e5720cbb36a108bda26119b01157660260000000000000000000000000000000000000000000005aa721730a2ef900000",
            "debugEnable": true,
            "errorInfo": "",
            "eventCount": 1,
            "feeRecipient": "0xea674fdde714fd979de3edf0f56aa9716b898ec8",
            "formatValue": "0",
            "gasLimit": 95000,
            "gasPrice": "435",
            "gasUsed": 51615,
            "intTxnCount": 0,
            "internalRevert": false,
            "internalRevertMessage": "",
            "isContractCreation": false,
            "isFlashloan": false,
            "maxFee": "",
            "nonce": 2559331,
            "overwritedBlockNumber": -1,
            "priorityFee": "",
            "receiver": "0xbbbbca6a901c926f240b89eacb641d8aec7aeafd",
            "revertMessage": "",
            "sender": "0xe93381fb4c4f14bda253907b18fad305d799241a",
            "simulationEnable": true,
            "sourceTxnHash": "0x4f5ff66cabb0202e565413992914e793f0673ca135d6baf0633ed07b16005e31",
            "status": true,
            "timestamp": "2022-01-27T23:26:51Z",
            "transactionFee": "0.022452525",
            "txnHash": "0x4f5ff66cabb0202e565413992914e793f0673ca135d6baf0633ed07b16005e31",
            "txnIndex": 2,
            "type": 0,
            "value": "0"
        },
        "fund_flow": [
            {
                "amount": "26,756",
                "from": "0xe93381fb4c4f14bda253907b18fad305d799241a",
                "id": 1,
                "isERC1155": false,
                "isERC721": false,
                "isReverted": false,
                "order": 1,
                "to": "0xc463316e5720cbb36a108bda26119b0115766026",
                "token": "0xbbbbca6a901c926f240b89eacb641d8aec7aeafd"
            }
        ],
        "token_infos": [
            {
                "address": "0xbbbbca6a901c926f240b89eacb641d8aec7aeafd",
                "decimals": 18
            },
            {
                "address": "0xc02aaa39b223fe8d0a0e5c4f27ead9083c756cc2",
                "decimals": 18
            },
            {
                "address": "0xeeeeeeeeeeeeeeeeeeeeeeeeeeeeeeeeeeeeeeee",
                "decimals": 18
            }
        ]
    },
    "address_label": {
        "labels": [
            {
                "address": "0xeeeeeeeeeeeeeeeeeeeeeeeeeeeeeeeeeeeeeeee",
                "label": "Ether"
            },
            {
                "address": "0xe93381fb4c4f14bda253907b18fad305d799241a",
                "label": "HTX 10"
            },
            {
                "address": "0xbbbbca6a901c926f240b89eacb641d8aec7aeafd",
                "label": "Loopring: LRC Token"
            },
            {
                "address": "0x0000000000000000000000000000000000000001",
                "label": "Precompiled"
            },
            {
                "address": "0x0000000000000000000000000000000000000002",
                "label": "Precompiled"
            },
            {
                "address": "0x0000000000000000000000000000000000000003",
                "label": "Precompiled"
            },
            {
                "address": "0x0000000000000000000000000000000000000004",
                "label": "Precompiled"
            }
        ]
    },
    "trace": {
        "accountLabels": null,
        "dataMap": {
            "-1": {
                "invocation": {
                    "address": "0xe93381fb4c4f14bda253907b18fad305d799241a",
                    "callData": "",
                    "decodedMethod": null,
                    "errorInfo": "",
                    "fromAddress": "",
                    "gasUsed": 0,
                    "id": -1,
                    "methodDecoded": false,
                    "operation": "",
                    "output": "",
                    "revert": false,
                    "revertMessage": "",
                    "selector": "",
                    "status": false,
                    "value": ""
                },
                "nodeType": 0
            },
            "0": {
                "invocation": {
                    "address": "0xbbbbca6a901c926f240b89eacb641d8aec7aeafd",
                    "callData": "0x000000000000000000000000c463316e5720cbb36a108bda26119b01157660260000000000000000000000000000000000000000000005aa721730a2ef900000",
                    "decodedMethod": {
                        "callParams": [
                            {
                                "name": "_to",
                                "type": "address",
                                "value": "0xc463316e5720cbb36a108bda26119b0115766026"
                            },
                            {
                                "decimalAvailable": true,
                                "name": "_value",
                                "type": "uint256",
                                "value": "26,756,000,000,000,000,000,000"
                            }
                        ],
                        "constructorArguments": "",
                        "name": "transfer",
                        "returnParams": [
                            {
                                "name": "",
                                "type": "bool",
                                "value": true
                            }
                        ],
                        "signature": "transfer(address,uint256)"
                    },
                    "errorInfo": "",
                    "fromAddress": "0xe93381fb4c4f14bda253907b18fad305d799241a",
                    "gasUsed": 51615,
                    "id": 0,
                    "methodDecoded": true,
                    "operation": "CALL",
                    "output": "0x0000000000000000000000000000000000000000000000000000000000000001",
                    "revert": false,
                    "revertMessage": "",
                    "selector": "0xa9059cbb",
                    "status": true,
                    "value": "0"
                },
                "nodeType": 0
            },
            "1": {
                "event": {
                    "contract": "0xbbbbca6a901c926f240b89eacb641d8aec7aeafd",
                    "decodedLog": {
                        "name": "Transfer",
                        "params": [
                            {
                                "name": "from",
                                "type": "address",
                                "value": "0xe93381fb4c4f14bda253907b18fad305d799241a"
                            },
                            {
                                "name": "to",
                                "type": "address",
                                "value": "0xc463316e5720cbb36a108bda26119b0115766026"
                            },
                            {
                                "decimalAvailable": true,
                                "name": "value",
                                "type": "uint256",
                                "value": "26,756,000,000,000,000,000,000"
                            }
                        ],
                        "signature": "Transfer(address,address,uint256)"
                    },
                    "id": 1,
                    "logData": "0x0000000000000000000000000000000000000000000005aa721730a2ef900000",
                    "logDecoded": true,
                    "operation": "EVENT",
                    "revert": false,
                    "status": true,
                    "topics": [
                        "0xddf252ad1be2c89b69c2b068fc378daa952ba7f163c4a11628f55a4df523b3ef",
                        "0x000000000000000000000000e93381fb4c4f14bda253907b18fad305d799241a",
                        "0x000000000000000000000000c463316e5720cbb36a108bda26119b0115766026"
                    ]
                },
                "nodeType": 1
            }
        },
        "gasFlame": [
            {
                "children": [
                    {
                        "children": [
                            {
                                "children": [],
                                "depth": 0,
                                "name": "Initial Gas",
                                "value": 21656
                            },
                            {
                                "children": [],
                                "depth": 0,
                                "name": "Executed Gas",
                                "value": 29959
                            }
                        ],
                        "depth": -1,
                        "name": "Actual Gas Used",
                        "value": 51615
                    },
                    {
                        "children": [],
                        "depth": -1,
                        "name": "Refunded Gas",
                        "value": 0
                    }
                ],
                "depth": -2,
                "name": "Total Gas",
                "value": 51615
            }
        ],
        "isConfirmed": true,
        "mainTrace": [
            {
                "children": [
                    {
                        "children": [
                            {
                                "children": [],
                                "depth": 1,
                                "id": 1,
                                "order": 1
                            }
                        ],
                        "depth": 0,
                        "id": 0,
                        "order": 0
                    }
                ],
                "depth": -1,
                "id": -1,
                "order": -1
            }
        ],
        "mainTraceNodeCount": 2,
        "parentIdMap": {
            "0": -1,
            "1": 0
        },
        "tidyTrace": [
            {
                "children": [
                    {
                        "children": [
                            {
                                "children": [],
                                "depth": 1,
                                "id": 1,
                                "order": 1
                            }
                        ],
                        "depth": 0,
                        "id": 0,
                        "order": 0
                    }
                ],
                "depth": -1,
                "id": -1,
                "order": -1
            }
        ],
        "tidyTraceNodeCount": 2
    },
    "state_change": {
        "stateChanges": [
            {
                "address": "0xbbbbca6a901c926f240b89eacb641d8aec7aeafd",
                "erc": "ERC-20",
                "slots": [
                    {
                        "current": "0x0000000000000000000000000000000000000000000005aa721730a2ef900000",
                        "key": "0xc20dd9a121098e95f35f168363ca016dfba31b6f2fd237f40c051bf2062179e8",
                        "prev": "0x0000000000000000000000000000000000000000000000000000000000000000"
                    },
                    {
                        "current": "0x000000000000000000000000000000000000000000025fa0f036b282d493ca00",
                        "key": "0x553db2ad166707e74afbfea2ccd0e64900a3cbbbed2064d16f9923b4b8ba4be1",
                        "prev": "0x00000000000000000000000000000000000000000002654b624de325c423ca00"
                    }
                ],
                "storageVariables": [
                    {
                        "name": "balances",
                        "type": "mapping(address => uint256)",
                        "value": {
                            "pairs": [
                                {
                                    "key": "0xc463316e5720cbb36a108bda26119b0115766026",
                                    "value": {
                                        "current": "26756000000000000000000",
                                        "prev": "0",
                                        "typeTag": 1
                                    }
                                },
                                {
                                    "key": "0xe93381fb4c4f14bda253907b18fad305d799241a",
                                    "value": {
                                        "current": "2869445243372161000000000",
                                        "prev": "2896201243372161000000000",
                                        "typeTag": 1
                                    }
                                }
                            ],
                            "typeTag": 4
                        }
                    }
                ]
            }
        ]
    }
}