{
    "balance_change": {
        "balanceChanges": [
            {
                "account": "0x4fb312915b779b1339388e14b6d079741ca83128",
                "assets": [
                    {
                        "address": "0xf3b9569f82b18aef890de263b84189bd33ebe452",
                        "amount": "100,000,000,000",
                        "iconUrl": "",
                        "isERC1155": false,
                        "isERC721": false,
                        "sign": false,
                        "value": "9879.648698"
                    }
                ]
            },
            {
                "account": "0xa03400e098f4421b34a3a44a1b4e571419517687",
                "assets": [
                    {
                        "address": "0xf3b9569f82b18aef890de263b84189bd33ebe452",
                        "amount": "100,000,000,000",
                        "iconUrl": "",
                        "isERC1155": false,
                        "isERC721": false,
                        "sign": true,
                        "value": "9879.648698"
                    }
                ]
            }
        ]
    },
    "profile": {
        "basic_info": {
            "baseFee": "11.471430143",
            "blockNumber": 19646385,
            "callData": "0x6a761202000000000000000000000000f3b9569f82b18aef890de263b84189bd33ebe4520000000000000000000000000000000000000000000000000000000000000000000000000000000000000000000000000000000000000000000000000000014000000000000000000000000000000000000000000000000000000000000000000000000000000000000000000000000000000000000000000000000000000000000000000000000000000000000000000000000000000000000000000000000000000000000000000000000000000000000000000000000000000000000000000000000000000000000000000000000000000000000000000000000000000000000000000000000000000000000000000000000000000000000000000000000000000000000000000000000000000000000000000000000000000000000001c00000000000000000000000000000000000000000000000000000000000000044a9059cbb000000000000000000000000a03400e098f4421b34a3a44a1b4e5714195176870000000000000000000000000000000000000001431e0fae6d7217caa00000000000000000000000000000000000000000000000000000000000000000000000000000000000000000000000000000000000000000000000000000c30ea89f89775949889b33eeed446bc9435054f8cc6a481716aaf707822bc7dbaf01ff48cd0ea4b9c6f6d0e9096f6d3c5e5426f04c1d0805684d62295711b5a9171b000000000000000000000000b865d3112b3cf67f09027d209c0b866bc6312a03000000000000000000000000000000000000000000000000000000000000000001e9f67b4ba12e461071d041ceb90a14135892fdb177ebeee08a7102d98b9c12ba73b7846fc4b4fc76b4119c67f58254dc67dbdd27234614339a7983dbfef469f61b0000000000000000000000000000000000000000000000000000000000",
            "debugEnable": true,
            "errorInfo": "",
            "eventCount": 2,
            "feeRecipient": "0x4838b106fce9647bdf1e7877bf73ce8b0bad5f97",
            "formatValue": "0",
            "gasLimit": 76795,
            "gasPrice": "12.886831411",
            "gasUsed": 75911,
            "intTxnCount": 4,
            "internalRevert": false,
            "internalRevertMessage": "",
            "isContractCreation": false,
            "isFlashloan": false,
            "maxFee": "13",
            "nonce": 173,
            "overwritedBlockNumber": -1,
            "priorityFee": "1.415401268",
            "receiver": "0x4fb312915b779b1339388e14b6d079741ca83128",
            "revertMessage": "",
            "sender": "0xb865d3112b3cf67f09027d209c0b866bc6312a03",
            "simulationEnable": true,
            "sourceTxnHash": "0x4fb9d928e9eaac9fa604391170e5a3698aaa49a6a69b3b1d1df9eeac629518e2",
            "status": true,
            "timestamp": "2024-04-13T11:34:59Z",
            "transactionFee": "0.000978252259240421",
            "txnHash": "0x4fb9d928e9eaac9fa604391170e5a3698aaa49a6a69b3b1d1df9eeac629518e2",
            "txnIndex": 35,
            "type": 2,
            "value": "0"
        },
        "fund_flow": [
            {
                "amount": "100,000,000,000",
                "from": "0x4fb312915b779b1339388e14b6d079741ca83128",
                "id": 1,
                "isERC1155": false,
                "isERC721": false,
                "isReverted": false,
                "order": 1,
                "to": "0xa03400e098f4421b34a3a44a1b4e571419517687",
                "token": "0xf3b9569f82b18aef890de263b84189bd33ebe452"
            }
        ],
        "token_infos": [
            {
                "address": "0xeeeeeeeeeeeeeeeeeeeeeeeeeeeeeeeeeeeeeeee",
                "decimals": 18
            },
            {
                "address": "0xc02aaa39b223fe8d0a0e5c4f27ead9083c756cc2",
                "decimals": 18
            },
            {
                "address": "0xf3b9569f82b18aef890de263b84189bd33ebe452",
                "decimals": 18
            }
        ]
    },
    "address_label": {
        "labels": [
            {
                "address": "0x4fb312915b779b1339388e14b6d079741ca83128",
                "label": "HTX 60"
            },
            {
                "address": "0xd9db270c1b5e3bd161e8c8503c55ceabee709552",
                "label": "Safe: Singleton 1.3.0"
            },
            {
                "address": "0x0000000000000000000000000000000000000004",
                "label": "Precompiled"
            },
            {
                "address": "0x0000000000000000000000000000000000000002",
                "label": "Precompiled"
            },
            {
                "address": "0x0000000000000000000000000000000000000003",
                "label": "Precompiled"
            },
            {
                "address": "0xeeeeeeeeeeeeeeeeeeeeeeeeeeeeeeeeeeeeeeee",
                "label": "Ether"
            },
            {
                "address": "0xf3b9569f82b18aef890de263b84189bd33ebe452",
                "label": "A Hunters Dream: CAW Token"
            },
            {
                "address": "0xa03400e098f4421b34a3a44a1b4e571419517687",
                "label": "HTX 52"
            },
            {
                "address": "0x0000000000000000000000000000000000000000",
                "label": "Null Address"
            },
            {
                "address": "0x0000000000000000000000000000000000000001",
                "label": "Precompiled"
            }
        ]
    },
    "trace": {
        "accountLabels": null,
        "dataMap": {
            "-1": {
                "invocation": {
                    "address": "0xb865d3112b3cf67f09027d209c0b866bc6312a03",
                    "callData": "",
                    "decodedMethod": null,
                    "errorInfo": "",
                    "fromAddress": "",
                    "gasUsed": 0,
                    "id": -1,
                    "methodDecoded": false,
                    "operation": "",
                    "output": "",
                    "revert": false,
                    "revertMessage": "",
                    "selector": "",
                    "status": false,
                    "value": ""
                },
                "nodeType": 0
            },
            "0": {
                "invocation": {
                    "address": "0x4fb312915b779b1339388e14b6d079741ca83128",
                    "callData": "0x000000000000000000000000f3b9569f82b18aef890de263b84189bd33ebe4520000000000000000000000000000000000000000000000000000000000000000000000000000000000000000000000000000000000000000000000000000014000000000000000000000000000000000000000000000000000000000000000000000000000000000000000000000000000000000000000000000000000000000000000000000000000000000000000000000000000000000000000000000000000000000000000000000000000000000000000000000000000000000000000000000000000000000000000000000000000000000000000000000000000000000000000000000000000000000000000000000000000000000000000000000000000000000000000000000000000000000000000000000000000000000000001c00000000000000000000000000000000000000000000000000000000000000044a9059cbb000000000000000000000000a03400e098f4421b34a3a44a1b4e5714195176870000000000000000000000000000000000000001431e0fae6d7217caa00000000000000000000000000000000000000000000000000000000000000000000000000000000000000000000000000000000000000000000000000000c30ea89f89775949889b33eeed446bc9435054f8cc6a481716aaf707822bc7dbaf01ff48cd0ea4b9c6f6d0e9096f6d3c5e5426f04c1d0805684d62295711b5a9171b000000000000000000000000b865d3112b3cf67f09027d209c0b866bc6312a03000000000000000000000000000000000000000000000000000000000000000001e9f67b4ba12e461071d041ceb90a14135892fdb177ebeee08a7102d98b9c12ba73b7846fc4b4fc76b4119c67f58254dc67dbdd27234614339a7983dbfef469f61b0000000000000000000000000000000000000000000000000000000000",
                    "decodedMethod": {
                        "callParams": [
                            {
                                "name": "to",
                                "type": "address",
                                "value": "0xf3b9569f82b18aef890de263b84189bd33ebe452"
                            },
                            {
                                "name": "value",
                                "type": "uint256",
                                "value": "0"
                            },
                            {
                                "name": "data",
                                "type": "bytes",
                                "value": "0xa9059cbb000000000000000000000000a03400e098f4421b34a3a44a1b4e5714195176870000000000000000000000000000000000000001431e0fae6d7217caa0000000"
                            },
                            {
                                "name": "operation",
                                "type": "uint8",
                                "value": "0"
                            },
                            {
                                "name": "safeTxGas",
                                "type": "uint256",
                                "value": "0"
                            },
                            {
                                "name": "baseGas",
                                "type": "uint256",
                                "value": "0"
                            },
                            {
                                "name": "gasPrice",
                                "type": "uint256",
                                "value": "0"
                            },
                            {
                                "name": "gasToken",
                                "type": "address",
                                "value": "0x0000000000000000000000000000000000000000"
                            },
                            {
                                "name": "refundReceiver",
                                "type": "address",
                                "value": "0x0000000000000000000000000000000000000000"
                            },
                            {
                                "name": "signatures",
                                "type": "bytes",
                                "value": "0x0ea89f89775949889b33eeed446bc9435054f8cc6a481716aaf707822bc7dbaf01ff48cd0ea4b9c6f6d0e9096f6d3c5e5426f04c1d0805684d62295711b5a9171b000000000000000000000000b865d3112b3cf67f09027d209c0b866bc6312a03000000000000000000000000000000000000000000000000000000000000000001e9f67b4ba12e461071d041ceb90a14135892fdb177ebeee08a7102d98b9c12ba73b7846fc4b4fc76b4119c67f58254dc67dbdd27234614339a7983dbfef469f61b"
                            }
                        ],
                        "constructorArguments": "",
                        "name": "execTransaction",
                        "returnParams": [
                            {
                                "name": "success",
                                "type": "bool",
                                "value": true
                            }
                        ],
                        "signature": "execTransaction(address,uint256,bytes,uint8,uint256,uint256,uint256,address,address,bytes)"
                    },
                    "errorInfo": "",
                    "fromAddress": "0xb865d3112b3cf67f09027d209c0b866bc6312a03",
                    "gasUsed": 75911,
                    "id": 0,
                    "methodDecoded": true,
                    "operation": "CALL",
                    "output": "0x0000000000000000000000000000000000000000000000000000000000000001",
                    "revert": false,
                    "revertMessage": "",
                    "selector": "0x6a761202",
                    "status": true,
                    "value": "0"
                },
                "nodeType": 0
            },
            "1": {
                "invocation": {
                    "address": "0xd9db270c1b5e3bd161e8c8503c55ceabee709552",
                    "callData": "0x000000000000000000000000f3b9569f82b18aef890de263b84189bd33ebe4520000000000000000000000000000000000000000000000000000000000000000000000000000000000000000000000000000000000000000000000000000014000000000000000000000000000000000000000000000000000000000000000000000000000000000000000000000000000000000000000000000000000000000000000000000000000000000000000000000000000000000000000000000000000000000000000000000000000000000000000000000000000000000000000000000000000000000000000000000000000000000000000000000000000000000000000000000000000000000000000000000000000000000000000000000000000000000000000000000000000000000000000000000000000000000000001c00000000000000000000000000000000000000000000000000000000000000044a9059cbb000000000000000000000000a03400e098f4421b34a3a44a1b4e5714195176870000000000000000000000000000000000000001431e0fae6d7217caa00000000000000000000000000000000000000000000000000000000000000000000000000000000000000000000000000000000000000000000000000000c30ea89f89775949889b33eeed446bc9435054f8cc6a481716aaf707822bc7dbaf01ff48cd0ea4b9c6f6d0e9096f6d3c5e5426f04c1d0805684d62295711b5a9171b000000000000000000000000b865d3112b3cf67f09027d209c0b866bc6312a03000000000000000000000000000000000000000000000000000000000000000001e9f67b4ba12e461071d041ceb90a14135892fdb177ebeee08a7102d98b9c12ba73b7846fc4b4fc76b4119c67f58254dc67dbdd27234614339a7983dbfef469f61b0000000000000000000000000000000000000000000000000000000000",
                    "decodedMethod": {
                        "callParams": [
                            {
                                "name": "to",
                                "type": "address",
                                "value": "0xf3b9569f82b18aef890de263b84189bd33ebe452"
                            },
                            {
                                "name": "value",
                                "type": "uint256",
                                "value": "0"
                            },
                            {
                                "name": "data",
                                "type": "bytes",
                                "value": "0xa9059cbb000000000000000000000000a03400e098f4421b34a3a44a1b4e5714195176870000000000000000000000000000000000000001431e0fae6d7217caa0000000"
                            },
                            {
                                "name": "operation",
                                "type": "uint8",
                                "value": "0"
                            },
                            {
                                "name": "safeTxGas",
                                "type": "uint256",
                                "value": "0"
                            },
                            {
                                "name": "baseGas",
                                "type": "uint256",
                                "value": "0"
                            },
                            {
                                "name": "gasPrice",
                                "type": "uint256",
                                "value": "0"
                            },
                            {
                                "name": "gasToken",
                                "type": "address",
                                "value": "0x0000000000000000000000000000000000000000"
                            },
                            {
                                "name": "refundReceiver",
                                "type": "address",
                                "value": "0x0000000000000000000000000000000000000000"
                            },
                            {
                                "name": "signatures",
                                "type": "bytes",
                                "value": "0x0ea89f89775949889b33eeed446bc9435054f8cc6a481716aaf707822bc7dbaf01ff48cd0ea4b9c6f6d0e9096f6d3c5e5426f04c1d0805684d62295711b5a9171b000000000000000000000000b865d3112b3cf67f09027d209c0b866bc6312a03000000000000000000000000000000000000000000000000000000000000000001e9f67b4ba12e461071d041ceb90a14135892fdb177ebeee08a7102d98b9c12ba73b7846fc4b4fc76b4119c67f58254dc67dbdd27234614339a7983dbfef469f61b"
                            }
                        ],
                        "constructorArguments": "",
                        "name": "execTransaction",
                        "returnParams": [
                            {
                                "name": "success",
                                "type": "bool",
                                "value": true
                            }
                        ],
                        "signature": "execTransaction(address,uint256,bytes,uint8,uint256,uint256,uint256,address,address,bytes)"
                    },
                    "errorInfo": "",
                    "fromAddress": "0x4fb312915b779b1339388e14b6d079741ca83128",
                    "gasUsed": 44553,
                    "id": 1,
                    "methodDecoded": true,
                    "operation": "DELEGATECALL",
                    "output": "0x0000000000000000000000000000000000000000000000000000000000000001",
                    "revert": false,
                    "revertMessage": "",
                    "selector": "0x6a761202",
                    "status": true,
                    "value": "0"
                },
                "nodeType": 0
            },
            "2": {
                "invocation": {
                    "address": "0x0000000000000000000000000000000000000001",
                    "callData": "0x456e3916f022d6c6a2901d08c263049f53758b26cb5b22613ec4ff63000000000000000000000000000000000000000000000000000000000000001b0ea89f89775949889b33eeed446bc9435054f8cc6a481716aaf707822bc7dbaf01ff48cd0ea4b9c6f6d0e9096f6d3c5e5426f04c1d0805684d62295711b5a917",
                    "decodedMethod": {
                        "callParams": [
                            {
                                "name": "hash",
                                "type": "bytes32",
                                "value": "0x9e242093456e3916f022d6c6a2901d08c263049f53758b26cb5b22613ec4ff63"
                            },
                            {
                                "name": "v",
                                "type": "uint256",
                                "value": "27"
                            },
                            {
                                "name": "r",
                                "type": "bytes32",
                                "value": "0x0ea89f89775949889b33eeed446bc9435054f8cc6a481716aaf707822bc7dbaf"
                            },
                            {
                                "name": "s",
                                "type": "bytes32",
                                "value": "0x01ff48cd0ea4b9c6f6d0e9096f6d3c5e5426f04c1d0805684d62295711b5a917"
                            }
                        ],
                        "constructorArguments": "",
                        "name": "ecrecover",
                        "returnParams": [
                            {
                                "name": "",
                                "type": "address",
                                "value": "0x1d8133ba1cf2c1d8b7066976acdddc31245a2870"
                            }
                        ],
                        "signature": "ecrecover(bytes32,uint256,bytes32,bytes32)"
                    },
                    "errorInfo": "",
                    "fromAddress": "0x4fb312915b779b1339388e14b6d079741ca83128",
                    "gasUsed": 3000,
                    "id": 2,
                    "methodDecoded": true,
                    "operation": "STATICCALL",
                    "output": "0x0000000000000000000000001d8133ba1cf2c1d8b7066976acdddc31245a2870",
                    "revert": false,
                    "revertMessage": "",
                    "selector": "0x9e242093",
                    "status": true,
                    "value": "0"
                },
                "nodeType": 0
            },
            "3": {
                "invocation": {
                    "address": "0x0000000000000000000000000000000000000001",
                    "callData": "0x456e3916f022d6c6a2901d08c263049f53758b26cb5b22613ec4ff63000000000000000000000000000000000000000000000000000000000000001be9f67b4ba12e461071d041ceb90a14135892fdb177ebeee08a7102d98b9c12ba73b7846fc4b4fc76b4119c67f58254dc67dbdd27234614339a7983dbfef469f6",
                    "decodedMethod": {
                        "callParams": [
                            {
                                "name": "hash",
                                "type": "bytes32",
                                "value": "0x9e242093456e3916f022d6c6a2901d08c263049f53758b26cb5b22613ec4ff63"
                            },
                            {
                                "name": "v",
                                "type": "uint256",
                                "value": "27"
                            },
                            {
                                "name": "r",
                                "type": "bytes32",
                                "value": "0xe9f67b4ba12e461071d041ceb90a14135892fdb177ebeee08a7102d98b9c12ba"
                            },
                            {
                                "name": "s",
                                "type": "bytes32",
                                "value": "0x73b7846fc4b4fc76b4119c67f58254dc67dbdd27234614339a7983dbfef469f6"
                            }
                        ],
                        "constructorArguments": "",
                        "name": "ecrecover",
                        "returnParams": [
                            {
                                "name": "",
                                "type": "address",
                                "value": "0xd0388ddedf55c5a0f962ca9405fb088d5303614a"
                            }
                        ],
                        "signature": "ecrecover(bytes32,uint256,bytes32,bytes32)"
                    },
                    "errorInfo": "",
                    "fromAddress": "0x4fb312915b779b1339388e14b6d079741ca83128",
                    "gasUsed": 3000,
                    "id": 3,
                    "methodDecoded": true,
                    "operation": "STATICCALL",
                    "output": "0x000000000000000000000000d0388ddedf55c5a0f962ca9405fb088d5303614a",
                    "revert": false,
                    "revertMessage": "",
                    "selector": "0x9e242093",
                    "status": true,
                    "value": "0"
                },
                "nodeType": 0
            },
            "4": {
                "invocation": {
                    "address": "0xf3b9569f82b18aef890de263b84189bd33ebe452",
                    "callData": "0x000000000000000000000000a03400e098f4421b34a3a44a1b4e5714195176870000000000000000000000000000000000000001431e0fae6d7217caa0000000",
                    "decodedMethod": {
                        "callParams": [
                            {
                                "name": "recipient",
                                "type": "address",
                                "value": "0xa03400e098f4421b34a3a44a1b4e571419517687"
                            },
                            {
                                "decimalAvailable": true,
                                "name": "amount",
                                "type": "uint256",
                                "value": "100,000,000,000,000,000,000,000,000,000"
                            }
                        ],
                        "constructorArguments": "",
                        "name": "transfer",
                        "returnParams": [
                            {
                                "name": "",
                                "type": "bool",
                                "value": true
                            }
                        ],
                        "signature": "transfer(address,uint256)"
                    },
                    "errorInfo": "",
                    "fromAddress": "0x4fb312915b779b1339388e14b6d079741ca83128",
                    "gasUsed": 12853,
                    "id": 4,
                    "methodDecoded": true,
                    "operation": "CALL",
                    "output": "0x0000000000000000000000000000000000000000000000000000000000000001",
                    "revert": false,
                    "revertMessage": "",
                    "selector": "0xa9059cbb",
                    "status": true,
                    "value": "0"
                },
                "nodeType": 0
            },
            "5": {
                "event": {
                    "contract": "0xf3b9569f82b18aef890de263b84189bd33ebe452",
                    "decodedLog": {
                        "name": "Transfer",
                        "params": [
                            {
                                "name": "from",
                                "type": "address",
                                "value": "0x4fb312915b779b1339388e14b6d079741ca83128"
                            },
                            {
                                "name": "to",
                                "type": "address",
                                "value": "0xa03400e098f4421b34a3a44a1b4e571419517687"
                            },
                            {
                                "decimalAvailable": true,
                                "name": "value",
                                "type": "uint256",
                                "value": "100,000,000,000,000,000,000,000,000,000"
                            }
                        ],
                        "signature": "Transfer(address,address,uint256)"
                    },
                    "id": 5,
                    "logData": "0x0000000000000000000000000000000000000001431e0fae6d7217caa0000000",
                    "logDecoded": true,
                    "operation": "EVENT",
                    "revert": false,
                    "status": true,
                    "topics": [
                        "0xddf252ad1be2c89b69c2b068fc378daa952ba7f163c4a11628f55a4df523b3ef",
                        "0x0000000000000000000000004fb312915b779b1339388e14b6d079741ca83128",
                        "0x000000000000000000000000a03400e098f4421b34a3a44a1b4e571419517687"
                    ]
                },
                "nodeType": 1
            },
            "6": {
                "event": {
                    "contract": "0x4fb312915b779b1339388e14b6d079741ca83128",
                    "decodedLog": {
                        "name": "ExecutionSuccess",
                        "params": [
                            {
                                "name": "txHash",
                                "type": "bytes32",
                                "value": "0x9e242093456e3916f022d6c6a2901d08c263049f53758b26cb5b22613ec4ff63"
                            },
                            {
                                "name": "payment",
                                "type": "uint256",
                                "value": "0"
                            }
                        ],
                        "signature": "ExecutionSuccess(bytes32,uint256)"
                    },
                    "id": 6,
                    "logData": "0x9e242093456e3916f022d6c6a2901d08c263049f53758b26cb5b22613ec4ff630000000000000000000000000000000000000000000000000000000000000000",
                    "logDecoded": true,
                    "operation": "EVENT",
                    "revert": false,
                    "status": true,
                    "topics": [
                        "0x442e715f626346e8c54381002da614f62bee8d27386535b2521ec8540898556e"
                    ]
                },
                "nodeType": 1
            }
        },
        "gasFlame": [
            {
                "children": [
                    {
                        "children": [
                            {
                                "children": [],
                                "depth": 0,
                                "name": "Initial Gas",
                                "value": 26400
                            },
                            {
                                "children": [
                                    {
                                        "children": [
                                            {
                                                "children": [],
                                                "depth": 2,
                                                "name": "ecrecover",
                                                "value": 3000
                                            },
                                            {
                                                "children": [],
                                                "depth": 2,
                                                "name": "ecrecover",
                                                "value": 3000
                                            },
                                            {
                                                "children": [],
                                                "depth": 2,
                                                "name": "transfer",
                                                "value": 12853
                                            }
                                        ],
                                        "depth": 1,
                                        "name": "execTransaction",
                                        "value": 44553
                                    }
                                ],
                                "depth": 0,
                                "name": "Executed Gas",
                                "value": 49511
                            }
                        ],
                        "depth": -1,
                        "name": "Actual Gas Used",
                        "value": 75911
                    },
                    {
                        "children": [],
                        "depth": -1,
                        "name": "Refunded Gas",
                        "value": 0
                    }
                ],
                "depth": -2,
                "name": "Total Gas",
                "value": 75911
            }
        ],
        "isConfirmed": true,
        "mainTrace": [
            {
                "children": [
                    {
                        "children": [
                            {
                                "children": [
                                    {
                                        "children": [],
                                        "depth": 2,
                                        "id": 2,
                                        "order": 2
                                    },
                                    {
                                        "children": [],
                                        "depth": 2,
                                        "id": 3,
                                        "order": 3
                                    },
                                    {
                                        "children": [
                                            {
                                                "children": [],
                                                "depth": 3,
                                                "id": 5,
                                                "order": 5
                                            }
                                        ],
                                        "depth": 2,
                                        "id": 4,
                                        "order": 4
                                    },
                                    {
                                        "children": [],
                                        "depth": 2,
                                        "id": 6,
                                        "order": 6
                                    }
                                ],
                                "depth": 1,
                                "id": 1,
                                "order": 1
                            }
                        ],
                        "depth": 0,
                        "id": 0,
                        "order": 0
                    }
                ],
                "depth": -1,
                "id": -1,
                "order": -1
            }
        ],
        "mainTraceNodeCount": 7,
        "parentIdMap": {
            "0": -1,
            "1": 0,
            "2": 1,
            "3": 1,
            "4": 1,
            "5": 4,
            "6": 1
        },
        "tidyTrace": [
            {
                "children": [
                    {
                        "children": [
                            {
                                "children": [
                                    {
                                        "children": [
                                            {
                                                "children": [],
                                                "depth": 3,
                                                "id": 5,
                                                "order": 5
                                            }
                                        ],
                                        "depth": 2,
                                        "id": 4,
                                        "order": 4
                                    },
                                    {
                                        "children": [],
                                        "depth": 2,
                                        "id": 6,
                                        "order": 6
                                    }
                                ],
                                "depth": 1,
                                "id": 1,
                                "order": 1
                            }
                        ],
                        "depth": 0,
                        "id": 0,
                        "order": 0
                    }
                ],
                "depth": -1,
                "id": -1,
                "order": -1
            }
        ],
        "tidyTraceNodeCount": 5
    },
    "state_change": {
        "stateChanges": [
            {
                "address": "0x4fb312915b779b1339388e14b6d079741ca83128",
                "erc": "",
                "slots": [
                    {
                        "current": "0x0000000000000000000000000000000000000000000000000000000000001978",
                        "key": "0x0000000000000000000000000000000000000000000000000000000000000005",
                        "prev": "0x0000000000000000000000000000000000000000000000000000000000001977"
                    }
                ],
                "storageVariables": [
                    {
                        "name": "nonce",
                        "type": "uint256",
                        "value": {
                            "current": "6520",
                            "prev": "6519",
                            "typeTag": 1
                        }
                    }
                ]
            },
            {
                "address": "0xf3b9569f82b18aef890de263b84189bd33ebe452",
                "erc": "ERC-20",
                "slots": [
                    {
                        "current": "0x00000000000000000000000000000000000000663c82f630a119871ca0000000",
                        "key": "0x07a9efbbeb607d02185736cf6756bbb3a38859384ea7384248a20aabd7deadb5",
                        "prev": "0x00000000000000000000000000000000000000677fa105df0e8b9ee740000000"
                    },
                    {
                        "current": "0x0000000000000000000000000000000000000001bfa4bbaf8a03d180cf52e5b9",
                        "key": "0x5316930b04afac8db34f1f9389f7a0b53e7e6a2b598b01394bd78e148be06b24",
                        "prev": "0x00000000000000000000000000000000000000007c86ac011c91b9b62f52e5b9"
                    }
                ],
                "storageVariables": [
                    {
                        "name": "_balances",
                        "type": "mapping(address => uint256)",
                        "value": {
                            "pairs": [
                                {
                                    "key": "0x4fb312915b779b1339388e14b6d079741ca83128",
                                    "value": {
                                        "current": "8100000000000000000000000000000",
                                        "prev": "8200000000000000000000000000000",
                                        "typeTag": 1
                                    }
                                },
                                {
                                    "key": "0xa03400e098f4421b34a3a44a1b4e571419517687",
                                    "value": {
                                        "current": "138538949545215577180783961529",
                                        "prev": "38538949545215577180783961529",
                                        "typeTag": 1
                                    }
                                }
                            ],
                            "typeTag": 4
                        }
                    }
                ]
            }
        ]
    }
}