{
    "balance_change": {
        "balanceChanges": [
            {
                "account": "0x0000006daea1723962647b7e189d311d757fb793",
                "assets": [
                    {
                        "address": "0xc011a73ee8576fb46f5e1c5751ca3b9fe0af2a6f",
                        "amount": "2,789.820058517411924639",
                        "iconUrl": "https://assets.blocksec.com/icon/c1e3b6af03ce5f020e733ca697c33400586b436d22b539a9570605e485361831.png",
                        "isERC1155": false,
                        "isERC721": false,
                        "sign": false,
                        "value": "29876.97119"
                    },
                    {
                        "address": "0xc02aaa39b223fe8d0a0e5c4f27ead9083c756cc2",
                        "amount": "8.813000000000001024",
                        "iconUrl": "https://assets.blocksec.com/icon/f1cb2d02c471d545bbc7722daf3277fd852d98e63d118771af7047bd8256c516.png",
                        "isERC1155": false,
                        "isERC721": false,
                        "sign": true,
                        "value": "31637.756717622998389"
                    }
                ]
            },
            {
                "account": "0xba12222222228d8ba445958a75a0704d566bf2c8",
                "assets": [
                    {
                        "address": "0xc011a73ee8576fb46f5e1c5751ca3b9fe0af2a6f",
                        "amount": "2,789.820058517411924639",
                        "iconUrl": "https://assets.blocksec.com/icon/c1e3b6af03ce5f020e733ca697c33400586b436d22b539a9570605e485361831.png",
                        "isERC1155": false,
                        "isERC721": false,
                        "sign": true,
                        "value": "29876.97119"
                    },
                    {
                        "address": "0xc02aaa39b223fe8d0a0e5c4f27ead9083c756cc2",
                        "amount": "8.813000000000001024",
                        "iconUrl": "https://assets.blocksec.com/icon/f1cb2d02c471d545bbc7722daf3277fd852d98e63d118771af7047bd8256c516.png",
                        "isERC1155": false,
                        "isERC721": false,
                        "sign": false,
                        "value": "31637.756717622998389"
                    }
                ]
            }
        ]
    },
    "profile": {
        "basic_info": {
            "baseFee": "74.715203039",
            "blockNumber": 13348684,
            "callData": "0x178979ae000000000000000000000000ba12222222228d8ba445958a75a0704d566bf2c80000000000000000000000000000000000000000000000000000000000000000000000000000000000000000000000000000000000000000000000000000006000000000000000000000000000000000000000000000000000000000000001e452bbbe2900000000000000000000000000000000000000000000000000000000000000e00000000000000000000000000000006daea1723962647b7e189d311d757fb79300000000000000000000000000000000000000000000000000000000000000000000000000000000000000000000006daea1723962647b7e189d311d757fb7930000000000000000000000000000000000000000000000000000000000000000000000000000000000000000000000000000000000000097eb19c664fb18000000000000000000000000000000000000000000000000000000000000615a221c072f14b85add63488ddad88f855fda4a99d6ac9b0002000000000000000000270000000000000000000000000000000000000000000000000000000000000001000000000000000000000000c011a73ee8576fb46f5e1c5751ca3b9fe0af2a6f000000000000000000000000c02aaa39b223fe8d0a0e5c4f27ead9083c756cc20000000000000000000000000000000000000000000000007a4e10ce8584840000000000000000000000000000000000000000000000000000000000000000c00000000000000000000000000000000000000000000000000000000000000000000000000000000000000000000000000000000000000000000000000000000000000000000000000000000000000000000000000000000000000000",
            "debugEnable": true,
            "errorInfo": "",
            "eventCount": 3,
            "feeRecipient": "0xea674fdde714fd979de3edf0f56aa9716b898ec8",
            "formatValue": "0",
            "gasLimit": 220000,
            "gasPrice": "111.598683653",
            "gasUsed": 176948,
            "intTxnCount": 15,
            "internalRevert": false,
            "internalRevertMessage": "",
            "isContractCreation": false,
            "isFlashloan": false,
            "maxFee": "137.55",
            "nonce": 341907,
            "overwritedBlockNumber": -1,
            "priorityFee": "36.883480614",
            "receiver": "0x0000006daea1723962647b7e189d311d757fb793",
            "revertMessage": "",
            "sender": "0x000002cba8dfb0a86a47a415592835e17fac080a",
            "simulationEnable": true,
            "sourceTxnHash": "0x4f14e73e4eed130d566ec8dd593feef49fdd1e5535b1b13f606673c8689d6dd4",
            "status": true,
            "timestamp": "2021-10-03T21:32:00Z",
            "transactionFee": "0.019747163875031044",
            "txnHash": "0x4f14e73e4eed130d566ec8dd593feef49fdd1e5535b1b13f606673c8689d6dd4",
            "txnIndex": 42,
            "type": 2,
            "value": "0"
        },
        "fund_flow": [
            {
                "amount": "2,789.820058517411924639",
                "from": "0x0000006daea1723962647b7e189d311d757fb793",
                "id": 1,
                "isERC1155": false,
                "isERC721": false,
                "isReverted": false,
                "order": 1,
                "to": "0xba12222222228d8ba445958a75a0704d566bf2c8",
                "token": "0xc011a73ee8576fb46f5e1c5751ca3b9fe0af2a6f"
            },
            {
                "amount": "8.813000000000001024",
                "from": "0xba12222222228d8ba445958a75a0704d566bf2c8",
                "id": 2,
                "isERC1155": false,
                "isERC721": false,
                "isReverted": false,
                "order": 2,
                "to": "0x0000006daea1723962647b7e189d311d757fb793",
                "token": "0xc02aaa39b223fe8d0a0e5c4f27ead9083c756cc2"
            }
        ],
        "token_infos": [
            {
                "address": "0xc011a73ee8576fb46f5e1c5751ca3b9fe0af2a6f",
                "decimals": 18
            },
            {
                "address": "0xc02aaa39b223fe8d0a0e5c4f27ead9083c756cc2",
                "decimals": 18
            },
            {
                "address": "0xeeeeeeeeeeeeeeeeeeeeeeeeeeeeeeeeeeeeeeee",
                "decimals": 18
            }
        ]
    },
    "address_label": {
        "labels": [
            {
                "address": "0xba12222222228d8ba445958a75a0704d566bf2c8",
                "label": "Balancer: Vault"
            },
            {
                "address": "0x1c86b3cdf2a60ae3a574f7f71d44e2c50bddb87e",
                "label": "Synthetix: System Status"
            },
            {
                "address": "0x0000000000000000000000000000000000000001",
                "label": "Precompiled"
            },
            {
                "address": "0xeeeeeeeeeeeeeeeeeeeeeeeeeeeeeeeeeeeeeeee",
                "label": "Ether"
            },
            {
                "address": "0x4b9ca5607f1ff8019c1c6a3c2f0cc8de622d5b82",
                "label": "Synthetix: State"
            },
            {
                "address": "0x0000000000000000000000000000000000000004",
                "label": "Precompiled"
            },
            {
                "address": "0x072f14b85add63488ddad88f855fda4a99d6ac9b",
                "label": "Balancer 50 SNX 50 WETH (B-50SNX-5...)"
            },
            {
                "address": "0x0000006daea1723962647b7e189d311d757fb793",
                "label": "Wintermute 1"
            },
            {
                "address": "0xc011a73ee8576fb46f5e1c5751ca3b9fe0af2a6f",
                "label": "Synthetix: Proxy SNX Token"
            },
            {
                "address": "0x5b1b5fea1b99d83ad479df0c222f0492385381dd",
                "label": "Synthetix: Token State Synthetix"
            },
            {
                "address": "0x0000000000000000000000000000000000000002",
                "label": "Precompiled"
            },
            {
                "address": "0x0000000000000000000000000000000000000003",
                "label": "Precompiled"
            },
            {
                "address": "0xc02aaa39b223fe8d0a0e5c4f27ead9083c756cc2",
                "label": "Wrapped Ether (WETH)"
            },
            {
                "address": "0x000002cba8dfb0a86a47a415592835e17fac080a",
                "label": "Wintermute 2"
            },
            {
                "address": "0x54f25546260c7539088982bcf4b7dc8edef19f21",
                "label": "Synthetix Network Token (SNX)"
            }
        ]
    },
    "trace": {
        "accountLabels": null,
        "dataMap": {
            "-1": {
                "invocation": {
                    "address": "0x000002cba8dfb0a86a47a415592835e17fac080a",
                    "callData": "",
                    "decodedMethod": null,
                    "errorInfo": "",
                    "fromAddress": "",
                    "gasUsed": 0,
                    "id": -1,
                    "methodDecoded": false,
                    "operation": "",
                    "output": "",
                    "revert": false,
                    "revertMessage": "",
                    "selector": "",
                    "status": false,
                    "value": ""
                },
                "nodeType": 0
            },
            "0": {
                "invocation": {
                    "address": "0x0000006daea1723962647b7e189d311d757fb793",
                    "callData": "0x000000000000000000000000ba12222222228d8ba445958a75a0704d566bf2c80000000000000000000000000000000000000000000000000000000000000000000000000000000000000000000000000000000000000000000000000000006000000000000000000000000000000000000000000000000000000000000001e452bbbe2900000000000000000000000000000000000000000000000000000000000000e00000000000000000000000000000006daea1723962647b7e189d311d757fb79300000000000000000000000000000000000000000000000000000000000000000000000000000000000000000000006daea1723962647b7e189d311d757fb7930000000000000000000000000000000000000000000000000000000000000000000000000000000000000000000000000000000000000097eb19c664fb18000000000000000000000000000000000000000000000000000000000000615a221c072f14b85add63488ddad88f855fda4a99d6ac9b0002000000000000000000270000000000000000000000000000000000000000000000000000000000000001000000000000000000000000c011a73ee8576fb46f5e1c5751ca3b9fe0af2a6f000000000000000000000000c02aaa39b223fe8d0a0e5c4f27ead9083c756cc20000000000000000000000000000000000000000000000007a4e10ce8584840000000000000000000000000000000000000000000000000000000000000000c00000000000000000000000000000000000000000000000000000000000000000000000000000000000000000000000000000000000000000000000000000000000000000000000000000000000000000000000000000000000000000",
                    "decodedMethod": null,
                    "errorInfo": "",
                    "fromAddress": "0x000002cba8dfb0a86a47a415592835e17fac080a",
                    "gasUsed": 176948,
                    "id": 0,
                    "methodDecoded": false,
                    "operation": "CALL",
                    "output": "",
                    "revert": false,
                    "revertMessage": "",
                    "selector": "0x178979ae",
                    "status": true,
                    "value": "0"
                },
                "nodeType": 0
            },
            "1": {
                "invocation": {
                    "address": "0xba12222222228d8ba445958a75a0704d566bf2c8",
                    "callData": "0x00000000000000000000000000000000000000000000000000000000000000e00000000000000000000000000000006daea1723962647b7e189d311d757fb79300000000000000000000000000000000000000000000000000000000000000000000000000000000000000000000006daea1723962647b7e189d311d757fb7930000000000000000000000000000000000000000000000000000000000000000000000000000000000000000000000000000000000000097eb19c664fb18000000000000000000000000000000000000000000000000000000000000615a221c072f14b85add63488ddad88f855fda4a99d6ac9b0002000000000000000000270000000000000000000000000000000000000000000000000000000000000001000000000000000000000000c011a73ee8576fb46f5e1c5751ca3b9fe0af2a6f000000000000000000000000c02aaa39b223fe8d0a0e5c4f27ead9083c756cc20000000000000000000000000000000000000000000000007a4e10ce8584840000000000000000000000000000000000000000000000000000000000000000c000000000000000000000000000000000000000000000000000000000000000000000000000000000000000000000000000000000000000000000000000000000",
                    "decodedMethod": {
                        "callParams": [
                            {
                                "name": "singleSwap",
                                "type": "(bytes32,uint8,address,address,uint256,bytes)",
                                "value": [
                                    {
                                        "name": "poolId",
                                        "type": "bytes32",
                                        "value": "0x072f14b85add63488ddad88f855fda4a99d6ac9b000200000000000000000027"
                                    },
                                    {
                                        "name": "kind",
                                        "type": "uint8",
                                        "value": "1"
                                    },
                                    {
                                        "name": "assetIn",
                                        "type": "address",
                                        "value": "0xc011a73ee8576fb46f5e1c5751ca3b9fe0af2a6f"
                                    },
                                    {
                                        "name": "assetOut",
                                        "type": "address",
                                        "value": "0xc02aaa39b223fe8d0a0e5c4f27ead9083c756cc2"
                                    },
                                    {
                                        "name": "amount",
                                        "type": "uint256",
                                        "value": "8,813,000,000,000,001,024"
                                    },
                                    {
                                        "name": "userData",
                                        "type": "bytes",
                                        "value": "0x"
                                    }
                                ]
                            },
                            {
                                "name": "funds",
                                "type": "(address,bool,address,bool)",
                                "value": [
                                    {
                                        "name": "sender",
                                        "type": "address",
                                        "value": "0x0000006daea1723962647b7e189d311d757fb793"
                                    },
                                    {
                                        "name": "fromInternalBalance",
                                        "type": "bool",
                                        "value": false
                                    },
                                    {
                                        "name": "recipient",
                                        "type": "address",
                                        "value": "0x0000006daea1723962647b7e189d311d757fb793"
                                    },
                                    {
                                        "name": "toInternalBalance",
                                        "type": "bool",
                                        "value": false
                                    }
                                ]
                            },
                            {
                                "name": "limit",
                                "type": "uint256",
                                "value": "2,802,399,144,740,484,808,704"
                            },
                            {
                                "name": "deadline",
                                "type": "uint256",
                                "value": "1,633,296,924"
                            }
                        ],
                        "constructorArguments": "",
                        "name": "swap",
                        "returnParams": [
                            {
                                "name": "amountCalculated",
                                "type": "uint256",
                                "value": "2,789,820,058,517,411,924,639"
                            }
                        ],
                        "signature": "swap((bytes32,uint8,address,address,uint256,bytes),(address,bool,address,bool),uint256,uint256)"
                    },
                    "errorInfo": "",
                    "fromAddress": "0x0000006daea1723962647b7e189d311d757fb793",
                    "gasUsed": 142662,
                    "id": 1,
                    "methodDecoded": true,
                    "operation": "CALL",
                    "output": "0x0000000000000000000000000000000000000000000000973c87e21f15d30a9f",
                    "revert": false,
                    "revertMessage": "",
                    "selector": "0x52bbbe29",
                    "status": true,
                    "value": "0"
                },
                "nodeType": 0
            },
            "10": {
                "invocation": {
                    "address": "0x5b1b5fea1b99d83ad479df0c222f0492385381dd",
                    "callData": "0x0000000000000000000000000000006daea1723962647b7e189d311d757fb793000000000000000000000000ba12222222228d8ba445958a75a0704d566bf2c8fffffffffffffffffffffffffffffffffffffffffffe839db6208fb92bcebc68",
                    "decodedMethod": {
                        "callParams": [
                            {
                                "name": "tokenOwner",
                                "type": "address",
                                "value": "0x0000006daea1723962647b7e189d311d757fb793"
                            },
                            {
                                "name": "spender",
                                "type": "address",
                                "value": "0xba12222222228d8ba445958a75a0704d566bf2c8"
                            },
                            {
                                "name": "value",
                                "type": "uint256",
                                "value": "115,792,089,237,316,195,423,570,985,008,687,907,853,269,984,665,640,562,243,145,216,501,490,327,141,480"
                            }
                        ],
                        "constructorArguments": "",
                        "name": "setAllowance",
                        "returnParams": [],
                        "signature": "setAllowance(address,address,uint256)"
                    },
                    "errorInfo": "",
                    "fromAddress": "0x54f25546260c7539088982bcf4b7dc8edef19f21",
                    "gasUsed": 5749,
                    "id": 10,
                    "methodDecoded": true,
                    "operation": "CALL",
                    "output": "",
                    "revert": false,
                    "revertMessage": "",
                    "selector": "0xda46098c",
                    "status": true,
                    "value": "0"
                },
                "nodeType": 0
            },
            "11": {
                "invocation": {
                    "address": "0x5b1b5fea1b99d83ad479df0c222f0492385381dd",
                    "callData": "0x0000000000000000000000000000006daea1723962647b7e189d311d757fb793",
                    "decodedMethod": {
                        "callParams": [
                            {
                                "name": "",
                                "type": "address",
                                "value": "0x0000006daea1723962647b7e189d311d757fb793"
                            }
                        ],
                        "constructorArguments": "",
                        "name": "balanceOf",
                        "returnParams": [
                            {
                                "decimalAvailable": true,
                                "name": "",
                                "type": "uint256",
                                "value": "29,156,321,032,155,596,677,485"
                            }
                        ],
                        "signature": "balanceOf(address)"
                    },
                    "errorInfo": "",
                    "fromAddress": "0x54f25546260c7539088982bcf4b7dc8edef19f21",
                    "gasUsed": 2486,
                    "id": 11,
                    "methodDecoded": true,
                    "operation": "STATICCALL",
                    "output": "0x00000000000000000000000000000000000000000000062c913c8defa4e1616d",
                    "revert": false,
                    "revertMessage": "",
                    "selector": "0x70a08231",
                    "status": true,
                    "value": "0"
                },
                "nodeType": 0
            },
            "12": {
                "invocation": {
                    "address": "0x5b1b5fea1b99d83ad479df0c222f0492385381dd",
                    "callData": "0x0000000000000000000000000000006daea1723962647b7e189d311d757fb79300000000000000000000000000000000000000000000059554b4abd08f0e56ce",
                    "decodedMethod": {
                        "callParams": [
                            {
                                "name": "account",
                                "type": "address",
                                "value": "0x0000006daea1723962647b7e189d311d757fb793"
                            },
                            {
                                "name": "value",
                                "type": "uint256",
                                "value": "26,366,500,973,638,184,752,846"
                            }
                        ],
                        "constructorArguments": "",
                        "name": "setBalanceOf",
                        "returnParams": [],
                        "signature": "setBalanceOf(address,uint256)"
                    },
                    "errorInfo": "",
                    "fromAddress": "0x54f25546260c7539088982bcf4b7dc8edef19f21",
                    "gasUsed": 3625,
                    "id": 12,
                    "methodDecoded": true,
                    "operation": "CALL",
                    "output": "",
                    "revert": false,
                    "revertMessage": "",
                    "selector": "0xb46310f6",
                    "status": true,
                    "value": "0"
                },
                "nodeType": 0
            },
            "13": {
                "invocation": {
                    "address": "0x5b1b5fea1b99d83ad479df0c222f0492385381dd",
                    "callData": "0x000000000000000000000000ba12222222228d8ba445958a75a0704d566bf2c8",
                    "decodedMethod": {
                        "callParams": [
                            {
                                "name": "",
                                "type": "address",
                                "value": "0xba12222222228d8ba445958a75a0704d566bf2c8"
                            }
                        ],
                        "constructorArguments": "",
                        "name": "balanceOf",
                        "returnParams": [
                            {
                                "decimalAvailable": true,
                                "name": "",
                                "type": "uint256",
                                "value": "726,030,711,665,882,459,301,772"
                            }
                        ],
                        "signature": "balanceOf(address)"
                    },
                    "errorInfo": "",
                    "fromAddress": "0x54f25546260c7539088982bcf4b7dc8edef19f21",
                    "gasUsed": 2486,
                    "id": 13,
                    "methodDecoded": true,
                    "operation": "STATICCALL",
                    "output": "0x0000000000000000000000000000000000000000000099be3428908c7238678c",
                    "revert": false,
                    "revertMessage": "",
                    "selector": "0x70a08231",
                    "status": true,
                    "value": "0"
                },
                "nodeType": 0
            },
            "14": {
                "invocation": {
                    "address": "0x5b1b5fea1b99d83ad479df0c222f0492385381dd",
                    "callData": "0x000000000000000000000000ba12222222228d8ba445958a75a0704d566bf2c8000000000000000000000000000000000000000000009a5570b072ab880b722b",
                    "decodedMethod": {
                        "callParams": [
                            {
                                "name": "account",
                                "type": "address",
                                "value": "0xba12222222228d8ba445958a75a0704d566bf2c8"
                            },
                            {
                                "name": "value",
                                "type": "uint256",
                                "value": "728,820,531,724,399,871,226,411"
                            }
                        ],
                        "constructorArguments": "",
                        "name": "setBalanceOf",
                        "returnParams": [],
                        "signature": "setBalanceOf(address,uint256)"
                    },
                    "errorInfo": "",
                    "fromAddress": "0x54f25546260c7539088982bcf4b7dc8edef19f21",
                    "gasUsed": 3625,
                    "id": 14,
                    "methodDecoded": true,
                    "operation": "CALL",
                    "output": "",
                    "revert": false,
                    "revertMessage": "",
                    "selector": "0xb46310f6",
                    "status": true,
                    "value": "0"
                },
                "nodeType": 0
            },
            "15": {
                "invocation": {
                    "address": "0xc011a73ee8576fb46f5e1c5751ca3b9fe0af2a6f",
                    "callData": "0x00000000000000000000000000000000000000000000000000000000000000c00000000000000000000000000000000000000000000000000000000000000003ddf252ad1be2c89b69c2b068fc378daa952ba7f163c4a11628f55a4df523b3ef0000000000000000000000000000006daea1723962647b7e189d311d757fb793000000000000000000000000ba12222222228d8ba445958a75a0704d566bf2c8000000000000000000000000000000000000000000000000000000000000000000000000000000000000000000000000000000000000000000000000000000200000000000000000000000000000000000000000000000973c87e21f15d30a9f",
                    "decodedMethod": {
                        "callParams": [
                            {
                                "name": "callData",
                                "type": "bytes",
                                "value": "0x0000000000000000000000000000000000000000000000973c87e21f15d30a9f"
                            },
                            {
                                "name": "numTopics",
                                "type": "uint256",
                                "value": "3"
                            },
                            {
                                "name": "topic1",
                                "type": "bytes32",
                                "value": "0xddf252ad1be2c89b69c2b068fc378daa952ba7f163c4a11628f55a4df523b3ef"
                            },
                            {
                                "name": "topic2",
                                "type": "bytes32",
                                "value": "0x0000000000000000000000000000006daea1723962647b7e189d311d757fb793"
                            },
                            {
                                "name": "topic3",
                                "type": "bytes32",
                                "value": "0x000000000000000000000000ba12222222228d8ba445958a75a0704d566bf2c8"
                            },
                            {
                                "name": "topic4",
                                "type": "bytes32",
                                "value": "0x0000000000000000000000000000000000000000000000000000000000000000"
                            }
                        ],
                        "constructorArguments": "",
                        "name": "_emit",
                        "returnParams": [],
                        "signature": "_emit(bytes,uint256,bytes32,bytes32,bytes32,bytes32)"
                    },
                    "errorInfo": "",
                    "fromAddress": "0x54f25546260c7539088982bcf4b7dc8edef19f21",
                    "gasUsed": 2706,
                    "id": 15,
                    "methodDecoded": true,
                    "operation": "CALL",
                    "output": "",
                    "revert": false,
                    "revertMessage": "",
                    "selector": "0x907dff97",
                    "status": true,
                    "value": "0"
                },
                "nodeType": 0
            },
            "16": {
                "event": {
                    "contract": "0xc011a73ee8576fb46f5e1c5751ca3b9fe0af2a6f",
                    "decodedLog": {
                        "name": "Transfer",
                        "params": [
                            {
                                "name": "from",
                                "type": "address",
                                "value": "0x0000006daea1723962647b7e189d311d757fb793"
                            },
                            {
                                "name": "to",
                                "type": "address",
                                "value": "0xba12222222228d8ba445958a75a0704d566bf2c8"
                            },
                            {
                                "decimalAvailable": true,
                                "name": "value",
                                "type": "uint256",
                                "value": "2,789,820,058,517,411,924,639"
                            }
                        ],
                        "signature": "Transfer(address,address,uint256)"
                    },
                    "id": 16,
                    "logData": "0x0000000000000000000000000000000000000000000000973c87e21f15d30a9f",
                    "logDecoded": true,
                    "operation": "EVENT",
                    "revert": false,
                    "status": true,
                    "topics": [
                        "0xddf252ad1be2c89b69c2b068fc378daa952ba7f163c4a11628f55a4df523b3ef",
                        "0x0000000000000000000000000000006daea1723962647b7e189d311d757fb793",
                        "0x000000000000000000000000ba12222222228d8ba445958a75a0704d566bf2c8"
                    ]
                },
                "nodeType": 1
            },
            "17": {
                "invocation": {
                    "address": "0xc02aaa39b223fe8d0a0e5c4f27ead9083c756cc2",
                    "callData": "0x0000000000000000000000000000006daea1723962647b7e189d311d757fb7930000000000000000000000000000000000000000000000007a4e10ce85848400",
                    "decodedMethod": {
                        "callParams": [
                            {
                                "name": "dst",
                                "type": "address",
                                "value": "0x0000006daea1723962647b7e189d311d757fb793"
                            },
                            {
                                "decimalAvailable": true,
                                "name": "wad",
                                "type": "uint256",
                                "value": "8,813,000,000,000,001,024"
                            }
                        ],
                        "constructorArguments": "",
                        "name": "transfer",
                        "returnParams": [
                            {
                                "name": "",
                                "type": "bool",
                                "value": true
                            }
                        ],
                        "signature": "transfer(address,uint256)"
                    },
                    "errorInfo": "",
                    "fromAddress": "0xba12222222228d8ba445958a75a0704d566bf2c8",
                    "gasUsed": 12862,
                    "id": 17,
                    "methodDecoded": true,
                    "operation": "CALL",
                    "output": "0x0000000000000000000000000000000000000000000000000000000000000001",
                    "revert": false,
                    "revertMessage": "",
                    "selector": "0xa9059cbb",
                    "status": true,
                    "value": "0"
                },
                "nodeType": 0
            },
            "18": {
                "event": {
                    "contract": "0xc02aaa39b223fe8d0a0e5c4f27ead9083c756cc2",
                    "decodedLog": {
                        "name": "Transfer",
                        "params": [
                            {
                                "name": "src",
                                "type": "address",
                                "value": "0xba12222222228d8ba445958a75a0704d566bf2c8"
                            },
                            {
                                "name": "dst",
                                "type": "address",
                                "value": "0x0000006daea1723962647b7e189d311d757fb793"
                            },
                            {
                                "decimalAvailable": true,
                                "name": "wad",
                                "type": "uint256",
                                "value": "8,813,000,000,000,001,024"
                            }
                        ],
                        "signature": "Transfer(address,address,uint256)"
                    },
                    "id": 18,
                    "logData": "0x0000000000000000000000000000000000000000000000007a4e10ce85848400",
                    "logDecoded": true,
                    "operation": "EVENT",
                    "revert": false,
                    "status": true,
                    "topics": [
                        "0xddf252ad1be2c89b69c2b068fc378daa952ba7f163c4a11628f55a4df523b3ef",
                        "0x000000000000000000000000ba12222222228d8ba445958a75a0704d566bf2c8",
                        "0x0000000000000000000000000000006daea1723962647b7e189d311d757fb793"
                    ]
                },
                "nodeType": 1
            },
            "2": {
                "invocation": {
                    "address": "0x072f14b85add63488ddad88f855fda4a99d6ac9b",
                    "callData": "0x00000000000000000000000000000000000000000000000000000000000000600000000000000000000000000000000000000000000099ba6ef50477fd5883b400000000000000000000000000000000000000000000007d4f441fff9aa6217a0000000000000000000000000000000000000000000000000000000000000001000000000000000000000000c011a73ee8576fb46f5e1c5751ca3b9fe0af2a6f000000000000000000000000c02aaa39b223fe8d0a0e5c4f27ead9083c756cc20000000000000000000000000000000000000000000000007a4e10ce85848400072f14b85add63488ddad88f855fda4a99d6ac9b0002000000000000000000270000000000000000000000000000000000000000000000000000000000cbab1c0000000000000000000000000000006daea1723962647b7e189d311d757fb7930000000000000000000000000000006daea1723962647b7e189d311d757fb79300000000000000000000000000000000000000000000000000000000000001200000000000000000000000000000000000000000000000000000000000000000",
                    "decodedMethod": {
                        "callParams": [
                            {
                                "name": "request",
                                "type": "(uint8,address,address,uint256,bytes32,uint256,address,address,bytes)",
                                "value": [
                                    {
                                        "name": "kind",
                                        "type": "uint8",
                                        "value": "1"
                                    },
                                    {
                                        "name": "tokenIn",
                                        "type": "address",
                                        "value": "0xc011a73ee8576fb46f5e1c5751ca3b9fe0af2a6f"
                                    },
                                    {
                                        "name": "tokenOut",
                                        "type": "address",
                                        "value": "0xc02aaa39b223fe8d0a0e5c4f27ead9083c756cc2"
                                    },
                                    {
                                        "name": "amount",
                                        "type": "uint256",
                                        "value": "8,813,000,000,000,001,024"
                                    },
                                    {
                                        "name": "poolId",
                                        "type": "bytes32",
                                        "value": "0x072f14b85add63488ddad88f855fda4a99d6ac9b000200000000000000000027"
                                    },
                                    {
                                        "name": "lastChangeBlock",
                                        "type": "uint256",
                                        "value": "13,347,612"
                                    },
                                    {
                                        "name": "from",
                                        "type": "address",
                                        "value": "0x0000006daea1723962647b7e189d311d757fb793"
                                    },
                                    {
                                        "name": "to",
                                        "type": "address",
                                        "value": "0x0000006daea1723962647b7e189d311d757fb793"
                                    },
                                    {
                                        "name": "userData",
                                        "type": "bytes",
                                        "value": "0x"
                                    }
                                ]
                            },
                            {
                                "name": "balanceTokenIn",
                                "type": "uint256",
                                "value": "725,961,161,578,392,558,535,604"
                            },
                            {
                                "name": "balanceTokenOut",
                                "type": "uint256",
                                "value": "2,311,554,734,623,778,283,898"
                            }
                        ],
                        "constructorArguments": "",
                        "name": "onSwap",
                        "returnParams": [
                            {
                                "name": "",
                                "type": "uint256",
                                "value": "2,789,820,058,517,411,924,639"
                            }
                        ],
                        "signature": "onSwap((uint8,address,address,uint256,bytes32,uint256,address,address,bytes),uint256,uint256)"
                    },
                    "errorInfo": "",
                    "fromAddress": "0xba12222222228d8ba445958a75a0704d566bf2c8",
                    "gasUsed": 25890,
                    "id": 2,
                    "methodDecoded": true,
                    "operation": "CALL",
                    "output": "0x0000000000000000000000000000000000000000000000973c87e21f15d30a9f",
                    "revert": false,
                    "revertMessage": "",
                    "selector": "0x9d2c110c",
                    "status": true,
                    "value": "0"
                },
                "nodeType": 0
            },
            "3": {
                "event": {
                    "contract": "0xba12222222228d8ba445958a75a0704d566bf2c8",
                    "decodedLog": {
                        "name": "Swap",
                        "params": [
                            {
                                "name": "poolId",
                                "type": "bytes32",
                                "value": "0x072f14b85add63488ddad88f855fda4a99d6ac9b000200000000000000000027"
                            },
                            {
                                "name": "tokenIn",
                                "type": "address",
                                "value": "0xc011a73ee8576fb46f5e1c5751ca3b9fe0af2a6f"
                            },
                            {
                                "name": "tokenOut",
                                "type": "address",
                                "value": "0xc02aaa39b223fe8d0a0e5c4f27ead9083c756cc2"
                            },
                            {
                                "name": "amountIn",
                                "type": "uint256",
                                "value": "2,789,820,058,517,411,924,639"
                            },
                            {
                                "name": "amountOut",
                                "type": "uint256",
                                "value": "8,813,000,000,000,001,024"
                            }
                        ],
                        "signature": "Swap(bytes32,address,address,uint256,uint256)"
                    },
                    "id": 3,
                    "logData": "0x0000000000000000000000000000000000000000000000973c87e21f15d30a9f0000000000000000000000000000000000000000000000007a4e10ce85848400",
                    "logDecoded": true,
                    "operation": "EVENT",
                    "revert": false,
                    "status": true,
                    "topics": [
                        "0x2170c741c41531aec20e7c107c24eecfdd15e69c9bb0a8dd37b1840b9e0b207b",
                        "0x072f14b85add63488ddad88f855fda4a99d6ac9b000200000000000000000027",
                        "0x000000000000000000000000c011a73ee8576fb46f5e1c5751ca3b9fe0af2a6f",
                        "0x000000000000000000000000c02aaa39b223fe8d0a0e5c4f27ead9083c756cc2"
                    ]
                },
                "nodeType": 1
            },
            "4": {
                "invocation": {
                    "address": "0xc011a73ee8576fb46f5e1c5751ca3b9fe0af2a6f",
                    "callData": "0x0000000000000000000000000000006daea1723962647b7e189d311d757fb793000000000000000000000000ba12222222228d8ba445958a75a0704d566bf2c80000000000000000000000000000000000000000000000973c87e21f15d30a9f",
                    "decodedMethod": {
                        "callParams": [
                            {
                                "name": "from",
                                "type": "address",
                                "value": "0x0000006daea1723962647b7e189d311d757fb793"
                            },
                            {
                                "name": "to",
                                "type": "address",
                                "value": "0xba12222222228d8ba445958a75a0704d566bf2c8"
                            },
                            {
                                "decimalAvailable": true,
                                "name": "value",
                                "type": "uint256",
                                "value": "2,789,820,058,517,411,924,639"
                            }
                        ],
                        "constructorArguments": "",
                        "name": "transferFrom",
                        "returnParams": [
                            {
                                "name": "",
                                "type": "bool",
                                "value": true
                            }
                        ],
                        "signature": "transferFrom(address,address,uint256)"
                    },
                    "errorInfo": "",
                    "fromAddress": "0xba12222222228d8ba445958a75a0704d566bf2c8",
                    "gasUsed": 69393,
                    "id": 4,
                    "methodDecoded": true,
                    "operation": "CALL",
                    "output": "0x0000000000000000000000000000000000000000000000000000000000000001",
                    "revert": false,
                    "revertMessage": "",
                    "selector": "0x23b872dd",
                    "status": true,
                    "value": "0"
                },
                "nodeType": 0
            },
            "5": {
                "invocation": {
                    "address": "0x54f25546260c7539088982bcf4b7dc8edef19f21",
                    "callData": "0x000000000000000000000000ba12222222228d8ba445958a75a0704d566bf2c8",
                    "decodedMethod": {
                        "callParams": [
                            {
                                "name": "sender",
                                "type": "address",
                                "value": "0xba12222222228d8ba445958a75a0704d566bf2c8"
                            }
                        ],
                        "constructorArguments": "",
                        "name": "setMessageSender",
                        "returnParams": [],
                        "signature": "setMessageSender(address)"
                    },
                    "errorInfo": "",
                    "fromAddress": "0xc011a73ee8576fb46f5e1c5751ca3b9fe0af2a6f",
                    "gasUsed": 7725,
                    "id": 5,
                    "methodDecoded": true,
                    "operation": "CALL",
                    "output": "",
                    "revert": false,
                    "revertMessage": "",
                    "selector": "0xbc67f832",
                    "status": true,
                    "value": "0"
                },
                "nodeType": 0
            },
            "6": {
                "invocation": {
                    "address": "0x54f25546260c7539088982bcf4b7dc8edef19f21",
                    "callData": "0x0000000000000000000000000000006daea1723962647b7e189d311d757fb793000000000000000000000000ba12222222228d8ba445958a75a0704d566bf2c80000000000000000000000000000000000000000000000973c87e21f15d30a9f",
                    "decodedMethod": {
                        "callParams": [
                            {
                                "name": "from",
                                "type": "address",
                                "value": "0x0000006daea1723962647b7e189d311d757fb793"
                            },
                            {
                                "name": "to",
                                "type": "address",
                                "value": "0xba12222222228d8ba445958a75a0704d566bf2c8"
                            },
                            {
                                "decimalAvailable": true,
                                "name": "value",
                                "type": "uint256",
                                "value": "2,789,820,058,517,411,924,639"
                            }
                        ],
                        "constructorArguments": "",
                        "name": "transferFrom",
                        "returnParams": [
                            {
                                "name": "",
                                "type": "bool",
                                "value": true
                            }
                        ],
                        "signature": "transferFrom(address,address,uint256)"
                    },
                    "errorInfo": "",
                    "fromAddress": "0xc011a73ee8576fb46f5e1c5751ca3b9fe0af2a6f",
                    "gasUsed": 55530,
                    "id": 6,
                    "methodDecoded": true,
                    "operation": "CALL",
                    "output": "0x0000000000000000000000000000000000000000000000000000000000000001",
                    "revert": false,
                    "revertMessage": "",
                    "selector": "0x23b872dd",
                    "status": true,
                    "value": "0"
                },
                "nodeType": 0
            },
            "7": {
                "invocation": {
                    "address": "0x1c86b3cdf2a60ae3a574f7f71d44e2c50bddb87e",
                    "callData": "0x",
                    "decodedMethod": {
                        "callParams": [],
                        "constructorArguments": "",
                        "name": "requireSystemActive",
                        "returnParams": [],
                        "signature": "requireSystemActive()"
                    },
                    "errorInfo": "",
                    "fromAddress": "0x54f25546260c7539088982bcf4b7dc8edef19f21",
                    "gasUsed": 2481,
                    "id": 7,
                    "methodDecoded": true,
                    "operation": "STATICCALL",
                    "output": "",
                    "revert": false,
                    "revertMessage": "",
                    "selector": "0x086dabd1",
                    "status": true,
                    "value": "0"
                },
                "nodeType": 0
            },
            "8": {
                "invocation": {
                    "address": "0x4b9ca5607f1ff8019c1c6a3c2f0cc8de622d5b82",
                    "callData": "0x0000000000000000000000000000006daea1723962647b7e189d311d757fb793",
                    "decodedMethod": {
                        "callParams": [
                            {
                                "name": "",
                                "type": "address",
                                "value": "0x0000006daea1723962647b7e189d311d757fb793"
                            }
                        ],
                        "constructorArguments": "",
                        "name": "issuanceData",
                        "returnParams": [
                            {
                                "name": "initialDebtOwnership",
                                "type": "uint256",
                                "value": "0"
                            },
                            {
                                "name": "debtEntryIndex",
                                "type": "uint256",
                                "value": "0"
                            }
                        ],
                        "signature": "issuanceData(address)"
                    },
                    "errorInfo": "",
                    "fromAddress": "0x54f25546260c7539088982bcf4b7dc8edef19f21",
                    "gasUsed": 4875,
                    "id": 8,
                    "methodDecoded": true,
                    "operation": "STATICCALL",
                    "output": "0x00000000000000000000000000000000000000000000000000000000000000000000000000000000000000000000000000000000000000000000000000000000",
                    "revert": false,
                    "revertMessage": "",
                    "selector": "0x8b3f8088",
                    "status": true,
                    "value": "0"
                },
                "nodeType": 0
            },
            "9": {
                "invocation": {
                    "address": "0x5b1b5fea1b99d83ad479df0c222f0492385381dd",
                    "callData": "0x0000000000000000000000000000006daea1723962647b7e189d311d757fb793000000000000000000000000ba12222222228d8ba445958a75a0704d566bf2c8",
                    "decodedMethod": {
                        "callParams": [
                            {
                                "name": "",
                                "type": "address",
                                "value": "0x0000006daea1723962647b7e189d311d757fb793"
                            },
                            {
                                "name": "",
                                "type": "address",
                                "value": "0xba12222222228d8ba445958a75a0704d566bf2c8"
                            }
                        ],
                        "constructorArguments": "",
                        "name": "allowance",
                        "returnParams": [
                            {
                                "decimalAvailable": true,
                                "name": "",
                                "type": "uint256",
                                "value": "115,792,089,237,316,195,423,570,985,008,687,907,853,269,984,665,640,562,245,935,036,560,007,739,066,119"
                            }
                        ],
                        "signature": "allowance(address,address)"
                    },
                    "errorInfo": "",
                    "fromAddress": "0x54f25546260c7539088982bcf4b7dc8edef19f21",
                    "gasUsed": 2705,
                    "id": 9,
                    "methodDecoded": true,
                    "operation": "STATICCALL",
                    "output": "0xfffffffffffffffffffffffffffffffffffffffffffe8434f2a871d841a1c707",
                    "revert": false,
                    "revertMessage": "",
                    "selector": "0xdd62ed3e",
                    "status": true,
                    "value": "0"
                },
                "nodeType": 0
            }
        },
        "gasFlame": [
            {
                "children": [
                    {
                        "children": [
                            {
                                "children": [],
                                "depth": 0,
                                "name": "Initial Gas",
                                "value": 25352
                            },
                            {
                                "children": [
                                    {
                                        "children": [
                                            {
                                                "children": [],
                                                "depth": 2,
                                                "name": "onSwap",
                                                "value": 25890
                                            },
                                            {
                                                "children": [
                                                    {
                                                        "children": [],
                                                        "depth": 3,
                                                        "name": "setMessageSender",
                                                        "value": 7725
                                                    },
                                                    {
                                                        "children": [
                                                            {
                                                                "children": [],
                                                                "depth": 4,
                                                                "name": "requireSystemActive",
                                                                "value": 2481
                                                            },
                                                            {
                                                                "children": [],
                                                                "depth": 4,
                                                                "name": "issuanceData",
                                                                "value": 4875
                                                            },
                                                            {
                                                                "children": [],
                                                                "depth": 4,
                                                                "name": "allowance",
                                                                "value": 2705
                                                            },
                                                            {
                                                                "children": [],
                                                                "depth": 4,
                                                                "name": "setAllowance",
                                                                "value": 5749
                                                            },
                                                            {
                                                                "children": [],
                                                                "depth": 4,
                                                                "name": "balanceOf",
                                                                "value": 2486
                                                            },
                                                            {
                                                                "children": [],
                                                                "depth": 4,
                                                                "name": "setBalanceOf",
                                                                "value": 3625
                                                            },
                                                            {
                                                                "children": [],
                                                                "depth": 4,
                                                                "name": "balanceOf",
                                                                "value": 2486
                                                            },
                                                            {
                                                                "children": [],
                                                                "depth": 4,
                                                                "name": "setBalanceOf",
                                                                "value": 3625
                                                            },
                                                            {
                                                                "children": [],
                                                                "depth": 4,
                                                                "name": "_emit",
                                                                "value": 2706
                                                            }
                                                        ],
                                                        "depth": 3,
                                                        "name": "transferFrom",
                                                        "value": 55530
                                                    }
                                                ],
                                                "depth": 2,
                                                "name": "transferFrom",
                                                "value": 69393
                                            },
                                            {
                                                "children": [],
                                                "depth": 2,
                                                "name": "transfer",
                                                "value": 12862
                                            }
                                        ],
                                        "depth": 1,
                                        "name": "swap",
                                        "value": 142662
                                    }
                                ],
                                "depth": 0,
                                "name": "Executed Gas",
                                "value": 157196
                            }
                        ],
                        "depth": -1,
                        "name": "Actual Gas Used",
                        "value": 176948
                    },
                    {
                        "children": [],
                        "depth": -1,
                        "name": "Refunded Gas",
                        "value": 5600
                    }
                ],
                "depth": -2,
                "name": "Total Gas",
                "value": 182548
            }
        ],
        "isConfirmed": true,
        "mainTrace": [
            {
                "children": [
                    {
                        "children": [
                            {
                                "children": [
                                    {
                                        "children": [],
                                        "depth": 2,
                                        "id": 2,
                                        "order": 2
                                    },
                                    {
                                        "children": [],
                                        "depth": 2,
                                        "id": 3,
                                        "order": 3
                                    },
                                    {
                                        "children": [
                                            {
                                                "children": [],
                                                "depth": 3,
                                                "id": 5,
                                                "order": 5
                                            },
                                            {
                                                "children": [
                                                    {
                                                        "children": [],
                                                        "depth": 4,
                                                        "id": 7,
                                                        "order": 7
                                                    },
                                                    {
                                                        "children": [],
                                                        "depth": 4,
                                                        "id": 8,
                                                        "order": 8
                                                    },
                                                    {
                                                        "children": [],
                                                        "depth": 4,
                                                        "id": 9,
                                                        "order": 9
                                                    },
                                                    {
                                                        "children": [],
                                                        "depth": 4,
                                                        "id": 10,
                                                        "order": 10
                                                    },
                                                    {
                                                        "children": [],
                                                        "depth": 4,
                                                        "id": 11,
                                                        "order": 11
                                                    },
                                                    {
                                                        "children": [],
                                                        "depth": 4,
                                                        "id": 12,
                                                        "order": 12
                                                    },
                                                    {
                                                        "children": [],
                                                        "depth": 4,
                                                        "id": 13,
                                                        "order": 13
                                                    },
                                                    {
                                                        "children": [],
                                                        "depth": 4,
                                                        "id": 14,
                                                        "order": 14
                                                    },
                                                    {
                                                        "children": [
                                                            {
                                                                "children": [],
                                                                "depth": 5,
                                                                "id": 16,
                                                                "order": 16
                                                            }
                                                        ],
                                                        "depth": 4,
                                                        "id": 15,
                                                        "order": 15
                                                    }
                                                ],
                                                "depth": 3,
                                                "id": 6,
                                                "order": 6
                                            }
                                        ],
                                        "depth": 2,
                                        "id": 4,
                                        "order": 4
                                    },
                                    {
                                        "children": [
                                            {
                                                "children": [],
                                                "depth": 3,
                                                "id": 18,
                                                "order": 18
                                            }
                                        ],
                                        "depth": 2,
                                        "id": 17,
                                        "order": 17
                                    }
                                ],
                                "depth": 1,
                                "id": 1,
                                "order": 1
                            }
                        ],
                        "depth": 0,
                        "id": 0,
                        "order": 0
                    }
                ],
                "depth": -1,
                "id": -1,
                "order": -1
            }
        ],
        "mainTraceNodeCount": 19,
        "parentIdMap": {
            "0": -1,
            "1": 0,
            "10": 6,
            "11": 6,
            "12": 6,
            "13": 6,
            "14": 6,
            "15": 6,
            "16": 15,
            "17": 1,
            "18": 17,
            "2": 1,
            "3": 1,
            "4": 1,
            "5": 4,
            "6": 4,
            "7": 6,
            "8": 6,
            "9": 6
        },
        "tidyTrace": [
            {
                "children": [
                    {
                        "children": [
                            {
                                "children": [
                                    {
                                        "children": [],
                                        "depth": 2,
                                        "id": 2,
                                        "order": 2
                                    },
                                    {
                                        "children": [],
                                        "depth": 2,
                                        "id": 3,
                                        "order": 3
                                    },
                                    {
                                        "children": [
                                            {
                                                "children": [],
                                                "depth": 3,
                                                "id": 5,
                                                "order": 5
                                            },
                                            {
                                                "children": [
                                                    {
                                                        "children": [],
                                                        "depth": 4,
                                                        "id": 10,
                                                        "order": 10
                                                    },
                                                    {
                                                        "children": [],
                                                        "depth": 4,
                                                        "id": 12,
                                                        "order": 12
                                                    },
                                                    {
                                                        "children": [],
                                                        "depth": 4,
                                                        "id": 14,
                                                        "order": 14
                                                    },
                                                    {
                                                        "children": [
                                                            {
                                                                "children": [],
                                                                "depth": 5,
                                                                "id": 16,
                                                                "order": 16
                                                            }
                                                        ],
                                                        "depth": 4,
                                                        "id": 15,
                                                        "order": 15
                                                    }
                                                ],
                                                "depth": 3,
                                                "id": 6,
                                                "order": 6
                                            }
                                        ],
                                        "depth": 2,
                                        "id": 4,
                                        "order": 4
                                    },
                                    {
                                        "children": [
                                            {
                                                "children": [],
                                                "depth": 3,
                                                "id": 18,
                                                "order": 18
                                            }
                                        ],
                                        "depth": 2,
                                        "id": 17,
                                        "order": 17
                                    }
                                ],
                                "depth": 1,
                                "id": 1,
                                "order": 1
                            }
                        ],
                        "depth": 0,
                        "id": 0,
                        "order": 0
                    }
                ],
                "depth": -1,
                "id": -1,
                "order": -1
            }
        ],
        "tidyTraceNodeCount": 14
    },
    "state_change": {
        "stateChanges": [
            {
                "address": "0x072f14b85add63488ddad88f855fda4a99d6ac9b",
                "erc": "ERC-20",
                "slots": [
                    {
                        "current": "0x03826009a088ce43e0e038ce009a0beacfe4c419ed7005ad4853212d615a2150",
                        "key": "0x08f4b8e2bd0148834b618f172d6e0fe4fcf4be1c196b1a4c426cdb12619a7040",
                        "prev": "0x036448099afb6cb3c32036b90099b2305210581a727005831588678ee126bd91"
                    },
                    {
                        "current": "0x000000000000000000000000000003a43b68e510003b4615a215006e28019ed7",
                        "key": "0x0000000000000000000000000000000000000000000000000000000000000008",
                        "prev": "0x000000000000000000000000000003a43b68e510003b3e159e93e06e28019ed7"
                    }
                ],
                "storageVariables": [
                    {
                        "name": "_miscData",
                        "type": "bytes32",
                        "value": {
                            "current": "0x000000000000000000000000000003a43b68e510003b4615a215006e28019ed7",
                            "prev": "0x000000000000000000000000000003a43b68e510003b3e159e93e06e28019ed7",
                            "typeTag": 1
                        }
                    },
                    {
                        "name": "_samples",
                        "type": "mapping(uint256 => bytes32)",
                        "value": {
                            "pairs": [
                                {
                                    "key": "872",
                                    "value": {
                                        "current": "0x03826009a088ce43e0e038ce009a0beacfe4c419ed7005ad4853212d615a2150",
                                        "prev": "0x036448099afb6cb3c32036b90099b2305210581a727005831588678ee126bd91",
                                        "typeTag": 1
                                    }
                                }
                            ],
                            "typeTag": 4
                        }
                    }
                ]
            },
            {
                "address": "0x54f25546260c7539088982bcf4b7dc8edef19f21",
                "erc": "ERC-20",
                "slots": [
                    {
                        "current": "0x000000000000000000000000ba12222222228d8ba445958a75a0704d566bf2c8",
                        "key": "0x0000000000000000000000000000000000000000000000000000000000000004",
                        "prev": "0x00000000000000000000000001bde3023980fd48cd9fdcfee29362281d8cd3e8"
                    }
                ],
                "storageVariables": [
                    {
                        "name": "messageSender",
                        "type": "address",
                        "value": {
                            "current": "0xba12222222228d8ba445958a75a0704d566bf2c8",
                            "prev": "0x01bde3023980fd48cd9fdcfee29362281d8cd3e8",
                            "typeTag": 1
                        }
                    }
                ]
            },
            {
                "address": "0x5b1b5fea1b99d83ad479df0c222f0492385381dd",
                "erc": "",
                "slots": [
                    {
                        "current": "0x000000000000000000000000000000000000000000009a5570b072ab880b722b",
                        "key": "0x3a0f132b80eb284c2ac247698d2ec7dce851ca420b700161ad6082d0e9762150",
                        "prev": "0x0000000000000000000000000000000000000000000099be3428908c7238678c"
                    },
                    {
                        "current": "0xfffffffffffffffffffffffffffffffffffffffffffe839db6208fb92bcebc68",
                        "key": "0xca691a744fa32628f9ae3bcb28083533070075160e0e1c947d42182fbbec5ae2",
                        "prev": "0xfffffffffffffffffffffffffffffffffffffffffffe8434f2a871d841a1c707"
                    },
                    {
                        "current": "0x00000000000000000000000000000000000000000000059554b4abd08f0e56ce",
                        "key": "0xec54f6f317d22d3ca625286705096c283a0789c369269c0118af570fcb3322ff",
                        "prev": "0x00000000000000000000000000000000000000000000062c913c8defa4e1616d"
                    }
                ],
                "storageVariables": [
                    {
                        "name": "balanceOf",
                        "type": "mapping(address => uint256)",
                        "value": {
                            "pairs": [
                                {
                                    "key": "0x0000006daea1723962647b7e189d311d757fb793",
                                    "value": {
                                        "current": "26366500973638184752846",
                                        "prev": "29156321032155596677485",
                                        "typeTag": 1
                                    }
                                },
                                {
                                    "key": "0xba12222222228d8ba445958a75a0704d566bf2c8",
                                    "value": {
                                        "current": "728820531724399871226411",
                                        "prev": "726030711665882459301772",
                                        "typeTag": 1
                                    }
                                }
                            ],
                            "typeTag": 4
                        }
                    },
                    {
                        "name": "allowance",
                        "type": "mapping(address => mapping(address => uint256))",
                        "value": {
                            "pairs": [
                                {
                                    "key": "0x0000006daea1723962647b7e189d311d757fb793",
                                    "value": {
                                        "pairs": [
                                            {
                                                "key": "0xba12222222228d8ba445958a75a0704d566bf2c8",
                                                "value": {
                                                    "current": "115792089237316195423570985008687907853269984665640562243145216501490327141480",
                                                    "prev": "115792089237316195423570985008687907853269984665640562245935036560007739066119",
                                                    "typeTag": 1
                                                }
                                            }
                                        ],
                                        "typeTag": 4
                                    }
                                }
                            ],
                            "typeTag": 4
                        }
                    }
                ]
            },
            {
                "address": "0xba12222222228d8ba445958a75a0704d566bf2c8",
                "erc": "",
                "slots": [
                    {
                        "current": "0x00cbaf4c00000000007cd4f60f3115219d7a000000009a51ab7ce697132b8e53",
                        "key": "0x4f793667ac5ba9de9265f6a19723e8a1bb158956c3a1ba65ab0c3c8c86d3035a",
                        "prev": "0x00cbab1c00000000007d4f441fff9aa6217a0000000099ba6ef50477fd5883b4"
                    }
                ],
                "storageVariables": [
                    {
                        "name": "_twoTokenPoolTokens",
                        "type": "mapping(bytes32 => struct TwoTokenPoolsBalance.TwoTokenPoolTokens)",
                        "value": {
                            "pairs": [
                                {
                                    "key": "0x072f14b85add63488ddad88f855fda4a99d6ac9b000200000000000000000027",
                                    "value": {
                                        "fields": [
                                            {
                                                "name": "balances",
                                                "type": "mapping(bytes32 => struct TwoTokenPoolsBalance.TwoTokenPoolBalances)",
                                                "value": {
                                                    "pairs": [
                                                        {
                                                            "key": "0x5aa47fcf4514c3a5a8ffbcf6ab927d0b1f8e24f7e07bcc0021f2b969cb7415af",
                                                            "value": {
                                                                "fields": [
                                                                    {
                                                                        "name": "sharedCash",
                                                                        "type": "bytes32",
                                                                        "value": {
                                                                            "current": "0x00cbaf4c00000000007cd4f60f3115219d7a000000009a51ab7ce697132b8e53",
                                                                            "prev": "0x00cbab1c00000000007d4f441fff9aa6217a0000000099ba6ef50477fd5883b4",
                                                                            "typeTag": 1
                                                                        }
                                                                    }
                                                                ],
                                                                "typeTag": 3
                                                            }
                                                        }
                                                    ],
                                                    "typeTag": 4
                                                }
                                            }
                                        ],
                                        "typeTag": 3
                                    }
                                }
                            ],
                            "typeTag": 4
                        }
                    }
                ]
            },
            {
                "address": "0xc02aaa39b223fe8d0a0e5c4f27ead9083c756cc2",
                "erc": "ERC-20",
                "slots": [
                    {
                        "current": "0x0000000000000000000000000000000000000000000021d6294749b45e7265f7",
                        "key": "0x3a0f132b80eb284c2ac247698d2ec7dce851ca420b700161ad6082d0e9762150",
                        "prev": "0x0000000000000000000000000000000000000000000021d6a3955a82e3f6e9f7"
                    },
                    {
                        "current": "0x0000000000000000000000000000000000000000000000b3f0f07570ec2da19e",
                        "key": "0xec54f6f317d22d3ca625286705096c283a0789c369269c0118af570fcb3322ff",
                        "prev": "0x0000000000000000000000000000000000000000000000b376a264a266a91d9e"
                    }
                ],
                "storageVariables": [
                    {
                        "name": "balanceOf",
                        "type": "mapping(address => uint256)",
                        "value": {
                            "pairs": [
                                {
                                    "key": "0x0000006daea1723962647b7e189d311d757fb793",
                                    "value": {
                                        "current": "3319328694885382201758",
                                        "prev": "3310515694885382200734",
                                        "typeTag": 1
                                    }
                                },
                                {
                                    "key": "0xba12222222228d8ba445958a75a0704d566bf2c8",
                                    "value": {
                                        "current": "159788671593590065096183",
                                        "prev": "159797484593590065097207",
                                        "typeTag": 1
                                    }
                                }
                            ],
                            "typeTag": 4
                        }
                    }
                ]
            }
        ]
    }
}