{
    "balance_change": {
        "balanceChanges": []
    },
    "profile": {
        "basic_info": {
            "baseFee": "9.483501461",
            "blockNumber": 15623627,
            "callData": "0xa42379c8000000000000000000000000e7578598aac020abfb918f33a20fad5b71d670b40000000000000000000000009469d013805bffb7d3debe5e7839237e535ec48300000000000000000000000000000000000000000000006c6b935b8bbd400000",
            "debugEnable": true,
            "errorInfo": "",
            "eventCount": 2,
            "feeRecipient": "0xb646d87963da1fb9d192ddba775f24f33e857128",
            "formatValue": "0",
            "gasLimit": 143118,
            "gasPrice": "10.483501461",
            "gasUsed": 94417,
            "intTxnCount": 1,
            "internalRevert": false,
            "internalRevertMessage": "",
            "isContractCreation": false,
            "isFlashloan": false,
            "maxFee": "11",
            "nonce": 14,
            "overwritedBlockNumber": -1,
            "priorityFee": "1",
            "receiver": "0xfbad806bdf9cec2943be281fb355da05068de925",
            "revertMessage": "",
            "sender": "0x88a39b052d477cfde47600a7c9950a441ce61cb4",
            "simulationEnable": true,
            "sourceTxnHash": "0x4f930d67b089f9fdac30c0c20b1af0d217ea904e085de574dff6b10677c724c4",
            "status": true,
            "timestamp": "2022-09-27T08:53:47Z",
            "transactionFee": "0.000989820757443237",
            "txnHash": "0x4f930d67b089f9fdac30c0c20b1af0d217ea904e085de574dff6b10677c724c4",
            "txnIndex": 156,
            "type": 2,
            "value": "0"
        },
        "fund_flow": [],
        "token_infos": [
            {
                "address": "0xc02aaa39b223fe8d0a0e5c4f27ead9083c756cc2",
                "decimals": 18
            },
            {
                "address": "0xeeeeeeeeeeeeeeeeeeeeeeeeeeeeeeeeeeeeeeee",
                "decimals": 18
            }
        ]
    },
    "address_label": {
        "labels": [
            {
                "address": "0x0000000000000000000000000000000000000002",
                "label": "Precompiled"
            },
            {
                "address": "0x0000000000000000000000000000000000000003",
                "label": "Precompiled"
            },
            {
                "address": "0x0000000000000000000000000000000000000004",
                "label": "Precompiled"
            },
            {
                "address": "0xeeeeeeeeeeeeeeeeeeeeeeeeeeeeeeeeeeeeeeee",
                "label": "Ether"
            },
            {
                "address": "0x9469d013805bffb7d3debe5e7839237e535ec483",
                "label": "Darwinia Network Native: RING Token"
            },
            {
                "address": "0xfbad806bdf9cec2943be281fb355da05068de925",
                "label": "TransparentUpgradeableProxy"
            },
            {
                "address": "0x1928c29b8ecd6c877a2e6bef01bd50c72e1be0cc",
                "label": "Erc20Sub2EthMappingTokenFactory"
            },
            {
                "address": "0x0000000000000000000000000000000000000001",
                "label": "Precompiled"
            }
        ]
    },
    "trace": {
        "accountLabels": null,
        "dataMap": {
            "-1": {
                "invocation": {
                    "address": "0x88a39b052d477cfde47600a7c9950a441ce61cb4",
                    "callData": "",
                    "decodedMethod": null,
                    "errorInfo": "",
                    "fromAddress": "",
                    "gasUsed": 0,
                    "id": -1,
                    "methodDecoded": false,
                    "operation": "",
                    "output": "",
                    "revert": false,
                    "revertMessage": "",
                    "selector": "",
                    "status": false,
                    "value": ""
                },
                "nodeType": 0
            },
            "0": {
                "invocation": {
                    "address": "0xfbad806bdf9cec2943be281fb355da05068de925",
                    "callData": "0x000000000000000000000000e7578598aac020abfb918f33a20fad5b71d670b40000000000000000000000009469d013805bffb7d3debe5e7839237e535ec48300000000000000000000000000000000000000000000006c6b935b8bbd400000",
                    "decodedMethod": {
                        "callParams": [
                            {
                                "name": "originalToken",
                                "type": "address",
                                "value": "0xe7578598aac020abfb918f33a20fad5b71d670b4"
                            },
                            {
                                "name": "mappingToken",
                                "type": "address",
                                "value": "0x9469d013805bffb7d3debe5e7839237e535ec483"
                            },
                            {
                                "name": "dailyLimit",
                                "type": "uint256",
                                "value": "2,000,000,000,000,000,000,000"
                            }
                        ],
                        "constructorArguments": "",
                        "name": "setMappingToken",
                        "returnParams": [],
                        "signature": "setMappingToken(address,address,uint256)"
                    },
                    "errorInfo": "",
                    "fromAddress": "0x88a39b052d477cfde47600a7c9950a441ce61cb4",
                    "gasUsed": 94417,
                    "id": 0,
                    "methodDecoded": true,
                    "operation": "CALL",
                    "output": "",
                    "revert": false,
                    "revertMessage": "",
                    "selector": "0xa42379c8",
                    "status": true,
                    "value": "0"
                },
                "nodeType": 0
            },
            "1": {
                "invocation": {
                    "address": "0x1928c29b8ecd6c877a2e6bef01bd50c72e1be0cc",
                    "callData": "0x000000000000000000000000e7578598aac020abfb918f33a20fad5b71d670b40000000000000000000000009469d013805bffb7d3debe5e7839237e535ec48300000000000000000000000000000000000000000000006c6b935b8bbd400000",
                    "decodedMethod": {
                        "callParams": [
                            {
                                "name": "originalToken",
                                "type": "address",
                                "value": "0xe7578598aac020abfb918f33a20fad5b71d670b4"
                            },
                            {
                                "name": "mappingToken",
                                "type": "address",
                                "value": "0x9469d013805bffb7d3debe5e7839237e535ec483"
                            },
                            {
                                "name": "dailyLimit",
                                "type": "uint256",
                                "value": "2,000,000,000,000,000,000,000"
                            }
                        ],
                        "constructorArguments": "",
                        "name": "setMappingToken",
                        "returnParams": [],
                        "signature": "setMappingToken(address,address,uint256)"
                    },
                    "errorInfo": "",
                    "fromAddress": "0xfbad806bdf9cec2943be281fb355da05068de925",
                    "gasUsed": 65080,
                    "id": 1,
                    "methodDecoded": true,
                    "operation": "DELEGATECALL",
                    "output": "",
                    "revert": false,
                    "revertMessage": "",
                    "selector": "0xa42379c8",
                    "status": true,
                    "value": "0"
                },
                "nodeType": 0
            },
            "2": {
                "event": {
                    "contract": "0xfbad806bdf9cec2943be281fb355da05068de925",
                    "decodedLog": {
                        "name": "DailyLimitChange",
                        "params": [
                            {
                                "name": "token",
                                "type": "address",
                                "value": "0x9469d013805bffb7d3debe5e7839237e535ec483"
                            },
                            {
                                "name": "dailyLimit",
                                "type": "uint256",
                                "value": "2,000,000,000,000,000,000,000"
                            }
                        ],
                        "signature": "DailyLimitChange(address,uint256)"
                    },
                    "id": 2,
                    "logData": "0x0000000000000000000000009469d013805bffb7d3debe5e7839237e535ec48300000000000000000000000000000000000000000000006c6b935b8bbd400000",
                    "logDecoded": true,
                    "operation": "EVENT",
                    "revert": false,
                    "status": true,
                    "topics": [
                        "0x9cf57ddcfa91b59f4d736ce39ea043954e4ea1e05929dea3e544ecb29cd78c26"
                    ]
                },
                "nodeType": 1
            },
            "3": {
                "event": {
                    "contract": "0xfbad806bdf9cec2943be281fb355da05068de925",
                    "decodedLog": {
                        "name": "IssuingERC20Created",
                        "params": [
                            {
                                "name": "originalToken",
                                "type": "address",
                                "value": "0xe7578598aac020abfb918f33a20fad5b71d670b4"
                            },
                            {
                                "name": "mappingToken",
                                "type": "address",
                                "value": "0x9469d013805bffb7d3debe5e7839237e535ec483"
                            }
                        ],
                        "signature": "IssuingERC20Created(address,address)"
                    },
                    "id": 3,
                    "logData": "0x000000000000000000000000e7578598aac020abfb918f33a20fad5b71d670b40000000000000000000000009469d013805bffb7d3debe5e7839237e535ec483",
                    "logDecoded": true,
                    "operation": "EVENT",
                    "revert": false,
                    "status": true,
                    "topics": [
                        "0x251072b4aeda0d34f0a8d4502a89589404ae4e49612d3f87ef4a4b1c2cb3572f"
                    ]
                },
                "nodeType": 1
            }
        },
        "gasFlame": [
            {
                "children": [
                    {
                        "children": [
                            {
                                "children": [],
                                "depth": 0,
                                "name": "Initial Gas",
                                "value": 22012
                            },
                            {
                                "children": [
                                    {
                                        "children": [],
                                        "depth": 1,
                                        "name": "setMappingToken",
                                        "value": 65080
                                    }
                                ],
                                "depth": 0,
                                "name": "Executed Gas",
                                "value": 72405
                            }
                        ],
                        "depth": -1,
                        "name": "Actual Gas Used",
                        "value": 94417
                    },
                    {
                        "children": [],
                        "depth": -1,
                        "name": "Refunded Gas",
                        "value": 0
                    }
                ],
                "depth": -2,
                "name": "Total Gas",
                "value": 94417
            }
        ],
        "isConfirmed": true,
        "mainTrace": [
            {
                "children": [
                    {
                        "children": [
                            {
                                "children": [
                                    {
                                        "children": [],
                                        "depth": 2,
                                        "id": 2,
                                        "order": 2
                                    },
                                    {
                                        "children": [],
                                        "depth": 2,
                                        "id": 3,
                                        "order": 3
                                    }
                                ],
                                "depth": 1,
                                "id": 1,
                                "order": 1
                            }
                        ],
                        "depth": 0,
                        "id": 0,
                        "order": 0
                    }
                ],
                "depth": -1,
                "id": -1,
                "order": -1
            }
        ],
        "mainTraceNodeCount": 4,
        "parentIdMap": {
            "0": -1,
            "1": 0,
            "2": 1,
            "3": 1
        },
        "tidyTrace": [
            {
                "children": [
                    {
                        "children": [
                            {
                                "children": [
                                    {
                                        "children": [],
                                        "depth": 2,
                                        "id": 2,
                                        "order": 2
                                    },
                                    {
                                        "children": [],
                                        "depth": 2,
                                        "id": 3,
                                        "order": 3
                                    }
                                ],
                                "depth": 1,
                                "id": 1,
                                "order": 1
                            }
                        ],
                        "depth": 0,
                        "id": 0,
                        "order": 0
                    }
                ],
                "depth": -1,
                "id": -1,
                "order": -1
            }
        ],
        "tidyTraceNodeCount": 4
    },
    "state_change": {
        "stateChanges": [
            {
                "address": "0xfbad806bdf9cec2943be281fb355da05068de925",
                "erc": "",
                "slots": [
                    {
                        "current": "0x0000000000000000000000000000000000000000000000000000000000000003",
                        "key": "0x0000000000000000000000000000000000000000000000000000000000000006",
                        "prev": "0x0000000000000000000000000000000000000000000000000000000000000002"
                    },
                    {
                        "current": "0x0000000000000000000000009469d013805bffb7d3debe5e7839237e535ec483",
                        "key": "0xf652222313e28459528d920b65115c16c04f3efc82aaedc97be59f3f377c0d41",
                        "prev": "0x0000000000000000000000000000000000000000000000000000000000000000"
                    },
                    {
                        "current": "0x0000000000000000000000009469d013805bffb7d3debe5e7839237e535ec483",
                        "key": "0x111162d9fa6186fbbe78871f5c48398042436e74d3113c8b22078c9b46583009",
                        "prev": "0x0000000000000000000000000000000000000000000000000000000000000000"
                    },
                    {
                        "current": "0x00000000000000000000000000000000000000000000006c6b935b8bbd400000",
                        "key": "0x244f2d46ce05fba8de88c315b8c2b1ae24aff639a924b0b44c48a5306ca13050",
                        "prev": "0x000000000000000000000000000000000000000000027b46536c66c8e3000000"
                    }
                ],
                "storageVariables": [
                    {
                        "name": "dailyLimit",
                        "type": "mapping(address => uint256)",
                        "value": {
                            "pairs": [
                                {
                                    "key": "0x9469d013805bffb7d3debe5e7839237e535ec483",
                                    "value": {
                                        "current": "2000000000000000000000",
                                        "prev": "3000000000000000000000000",
                                        "typeTag": 1
                                    }
                                }
                            ],
                            "typeTag": 4
                        }
                    },
                    {
                        "name": "allMappingTokens",
                        "type": "address[]",
                        "value": {
                            "elemType": "address",
                            "elems": [
                                {
                                    "index": 2,
                                    "value": {
                                        "current": "0x9469d013805bffb7d3debe5e7839237e535ec483",
                                        "prev": "0x0000000000000000000000000000000000000000",
                                        "typeTag": 1
                                    }
                                }
                            ],
                            "typeTag": 2
                        }
                    },
                    {
                        "name": "salt2MappingToken",
                        "type": "mapping(bytes32 => address)",
                        "value": {
                            "pairs": [
                                {
                                    "key": "0x56c29e82d7683852330085ee5afe6bb00f7f8653335bcd7c832c22cac4f9bcd7",
                                    "value": {
                                        "current": "0x9469d013805bffb7d3debe5e7839237e535ec483",
                                        "prev": "0x0000000000000000000000000000000000000000",
                                        "typeTag": 1
                                    }
                                }
                            ],
                            "typeTag": 4
                        }
                    }
                ]
            }
        ]
    }
}