{
    "balance_change": {
        "balanceChanges": [
            {
                "account": "0xa2da7ea673ed6052768922a7e822fe736191d652",
                "assets": [
                    {
                        "address": "0xeeeeeeeeeeeeeeeeeeeeeeeeeeeeeeeeeeeeeeee",
                        "amount": "0.016912720001484",
                        "iconUrl": "https://assets.blocksec.com/image/1663669189317-3.png",
                        "isERC1155": false,
                        "isERC721": false,
                        "sign": false,
                        "value": "60.66411190514399792"
                    }
                ]
            },
            {
                "account": "0xd19d4b5d358258f05d7b411e21a1460d11b0876f",
                "assets": [
                    {
                        "address": "0xeeeeeeeeeeeeeeeeeeeeeeeeeeeeeeeeeeeeeeee",
                        "amount": "0.016912720001484",
                        "iconUrl": "https://assets.blocksec.com/image/1663669189317-3.png",
                        "isERC1155": false,
                        "isERC721": false,
                        "sign": true,
                        "value": "60.66411190514399792"
                    }
                ]
            }
        ]
    },
    "profile": {
        "basic_info": {
            "baseFee": "4.586823967",
            "blockNumber": 20130663,
            "callData": "0x9f3ce55a000000000000000000000000a2da7ea673ed6052768922a7e822fe736191d65200000000000000000000000000000000000000000000000000000b919b2b84e000000000000000000000000000000000000000000000000000000000000000600000000000000000000000000000000000000000000000000000000000000000",
            "debugEnable": true,
            "errorInfo": "",
            "eventCount": 2,
            "feeRecipient": "0x95222290dd7278aa3ddd389cc1e1d165cc4bafe5",
            "formatValue": "0.016912720001484",
            "gasLimit": 102429,
            "gasPrice": "4.686823967",
            "gasUsed": 67436,
            "intTxnCount": 1,
            "internalRevert": false,
            "internalRevertMessage": "",
            "isContractCreation": false,
            "isFlashloan": false,
            "maxFee": "6.331229309",
            "nonce": 4,
            "overwritedBlockNumber": -1,
            "priorityFee": "0.1",
            "receiver": "0xd19d4b5d358258f05d7b411e21a1460d11b0876f",
            "revertMessage": "",
            "sender": "0xa2da7ea673ed6052768922a7e822fe736191d652",
            "simulationEnable": true,
            "sourceTxnHash": "0x506ecefd2fec678f5c22d9711ae234580cebae1f9a427ecb97daf79406400265",
            "status": true,
            "timestamp": "2024-06-20T04:49:47Z",
            "transactionFee": "0.000316060661038612",
            "txnHash": "0x506ecefd2fec678f5c22d9711ae234580cebae1f9a427ecb97daf79406400265",
            "txnIndex": 164,
            "type": 2,
            "value": "16912720001484000"
        },
        "fund_flow": [
            {
                "amount": "0.016912720001484",
                "from": "0xa2da7ea673ed6052768922a7e822fe736191d652",
                "id": 1,
                "isERC1155": false,
                "isERC721": false,
                "isReverted": false,
                "order": 1,
                "to": "0xd19d4b5d358258f05d7b411e21a1460d11b0876f",
                "token": "0xeeeeeeeeeeeeeeeeeeeeeeeeeeeeeeeeeeeeeeee"
            }
        ],
        "token_infos": [
            {
                "address": "0xc02aaa39b223fe8d0a0e5c4f27ead9083c756cc2",
                "decimals": 18
            },
            {
                "address": "0xeeeeeeeeeeeeeeeeeeeeeeeeeeeeeeeeeeeeeeee",
                "decimals": 18
            }
        ]
    },
    "address_label": {
        "labels": [
            {
                "address": "0xeeeeeeeeeeeeeeeeeeeeeeeeeeeeeeeeeeeeeeee",
                "label": "Ether"
            },
            {
                "address": "0xd19d4b5d358258f05d7b411e21a1460d11b0876f",
                "label": "Linea: L1 Message Service"
            },
            {
                "address": "0x53fc68bffc03d17804e5a901de42d1eef2e64562",
                "label": "LineaRollup"
            },
            {
                "address": "0x0000000000000000000000000000000000000001",
                "label": "Precompiled"
            },
            {
                "address": "0x0000000000000000000000000000000000000002",
                "label": "Precompiled"
            },
            {
                "address": "0x0000000000000000000000000000000000000003",
                "label": "Precompiled"
            },
            {
                "address": "0x0000000000000000000000000000000000000004",
                "label": "Precompiled"
            }
        ]
    },
    "trace": {
        "accountLabels": null,
        "dataMap": {
            "-1": {
                "invocation": {
                    "address": "0xa2da7ea673ed6052768922a7e822fe736191d652",
                    "callData": "",
                    "decodedMethod": null,
                    "errorInfo": "",
                    "fromAddress": "",
                    "gasUsed": 0,
                    "id": -1,
                    "methodDecoded": false,
                    "operation": "",
                    "output": "",
                    "revert": false,
                    "revertMessage": "",
                    "selector": "",
                    "status": false,
                    "value": ""
                },
                "nodeType": 0
            },
            "0": {
                "invocation": {
                    "address": "0xd19d4b5d358258f05d7b411e21a1460d11b0876f",
                    "callData": "0x000000000000000000000000a2da7ea673ed6052768922a7e822fe736191d65200000000000000000000000000000000000000000000000000000b919b2b84e000000000000000000000000000000000000000000000000000000000000000600000000000000000000000000000000000000000000000000000000000000000",
                    "decodedMethod": {
                        "callParams": [
                            {
                                "name": "_to",
                                "type": "address",
                                "value": "0xa2da7ea673ed6052768922a7e822fe736191d652"
                            },
                            {
                                "name": "_fee",
                                "type": "uint256",
                                "value": "12,720,001,484,000"
                            },
                            {
                                "name": "_calldata",
                                "type": "bytes",
                                "value": "0x"
                            }
                        ],
                        "constructorArguments": "",
                        "name": "sendMessage",
                        "returnParams": [],
                        "signature": "sendMessage(address,uint256,bytes)"
                    },
                    "errorInfo": "",
                    "fromAddress": "0xa2da7ea673ed6052768922a7e822fe736191d652",
                    "gasUsed": 67436,
                    "id": 0,
                    "methodDecoded": true,
                    "operation": "CALL",
                    "output": "",
                    "revert": false,
                    "revertMessage": "",
                    "selector": "0x9f3ce55a",
                    "status": true,
                    "value": "0.016912720001484"
                },
                "nodeType": 0
            },
            "1": {
                "invocation": {
                    "address": "0x53fc68bffc03d17804e5a901de42d1eef2e64562",
                    "callData": "0x000000000000000000000000a2da7ea673ed6052768922a7e822fe736191d65200000000000000000000000000000000000000000000000000000b919b2b84e000000000000000000000000000000000000000000000000000000000000000600000000000000000000000000000000000000000000000000000000000000000",
                    "decodedMethod": {
                        "callParams": [
                            {
                                "name": "_to",
                                "type": "address",
                                "value": "0xa2da7ea673ed6052768922a7e822fe736191d652"
                            },
                            {
                                "name": "_fee",
                                "type": "uint256",
                                "value": "12,720,001,484,000"
                            },
                            {
                                "name": "_calldata",
                                "type": "bytes",
                                "value": "0x"
                            }
                        ],
                        "constructorArguments": "",
                        "name": "sendMessage",
                        "returnParams": [],
                        "signature": "sendMessage(address,uint256,bytes)"
                    },
                    "errorInfo": "",
                    "fromAddress": "0xd19d4b5d358258f05d7b411e21a1460d11b0876f",
                    "gasUsed": 38364,
                    "id": 1,
                    "methodDecoded": true,
                    "operation": "DELEGATECALL",
                    "output": "",
                    "revert": false,
                    "revertMessage": "",
                    "selector": "0x9f3ce55a",
                    "status": true,
                    "value": "0.016912720001484"
                },
                "nodeType": 0
            },
            "2": {
                "event": {
                    "contract": "0xd19d4b5d358258f05d7b411e21a1460d11b0876f",
                    "decodedLog": {
                        "name": "RollingHashUpdated",
                        "params": [
                            {
                                "name": "messageNumber",
                                "type": "uint256",
                                "value": "644,273"
                            },
                            {
                                "name": "rollingHash",
                                "type": "bytes32",
                                "value": "0x7a413d4505d03b7cfd0b80d014e74da69274f8d11b12d03dc8a3f3fa26e506aa"
                            },
                            {
                                "name": "messageHash",
                                "type": "bytes32",
                                "value": "0x45883da4fb172faba19fd7c2c42630d7b2dc8ebd2b28fb5a5aa18d2603398ec8"
                            }
                        ],
                        "signature": "RollingHashUpdated(uint256,bytes32,bytes32)"
                    },
                    "id": 2,
                    "logData": "0x",
                    "logDecoded": true,
                    "operation": "EVENT",
                    "revert": false,
                    "status": true,
                    "topics": [
                        "0xea3b023b4c8680d4b4824f0143132c95476359a2bb70a81d6c5a36f6918f6339",
                        "0x000000000000000000000000000000000000000000000000000000000009d4b1",
                        "0x7a413d4505d03b7cfd0b80d014e74da69274f8d11b12d03dc8a3f3fa26e506aa",
                        "0x45883da4fb172faba19fd7c2c42630d7b2dc8ebd2b28fb5a5aa18d2603398ec8"
                    ]
                },
                "nodeType": 1
            },
            "3": {
                "event": {
                    "contract": "0xd19d4b5d358258f05d7b411e21a1460d11b0876f",
                    "decodedLog": {
                        "name": "MessageSent",
                        "params": [
                            {
                                "name": "_from",
                                "type": "address",
                                "value": "0xa2da7ea673ed6052768922a7e822fe736191d652"
                            },
                            {
                                "name": "_to",
                                "type": "address",
                                "value": "0xa2da7ea673ed6052768922a7e822fe736191d652"
                            },
                            {
                                "name": "_messageHash",
                                "type": "bytes32",
                                "value": "0x45883da4fb172faba19fd7c2c42630d7b2dc8ebd2b28fb5a5aa18d2603398ec8"
                            },
                            {
                                "name": "_fee",
                                "type": "uint256",
                                "value": "12,720,001,484,000"
                            },
                            {
                                "name": "_value",
                                "type": "uint256",
                                "value": "16,900,000,000,000,000"
                            },
                            {
                                "name": "_nonce",
                                "type": "uint256",
                                "value": "644,273"
                            },
                            {
                                "name": "_calldata",
                                "type": "bytes",
                                "value": "0x"
                            }
                        ],
                        "signature": "MessageSent(address,address,uint256,uint256,uint256,bytes,bytes32)"
                    },
                    "id": 3,
                    "logData": "0x00000000000000000000000000000000000000000000000000000b919b2b84e0000000000000000000000000000000000000000000000000003c0a75e0b44000000000000000000000000000000000000000000000000000000000000009d4b100000000000000000000000000000000000000000000000000000000000000800000000000000000000000000000000000000000000000000000000000000000",
                    "logDecoded": true,
                    "operation": "EVENT",
                    "revert": false,
                    "status": true,
                    "topics": [
                        "0xe856c2b8bd4eb0027ce32eeaf595c21b0b6b4644b326e5b7bd80a1cf8db72e6c",
                        "0x000000000000000000000000a2da7ea673ed6052768922a7e822fe736191d652",
                        "0x000000000000000000000000a2da7ea673ed6052768922a7e822fe736191d652",
                        "0x45883da4fb172faba19fd7c2c42630d7b2dc8ebd2b28fb5a5aa18d2603398ec8"
                    ]
                },
                "nodeType": 1
            }
        },
        "gasFlame": [
            {
                "children": [
                    {
                        "children": [
                            {
                                "children": [],
                                "depth": 0,
                                "name": "Initial Gas",
                                "value": 21900
                            },
                            {
                                "children": [
                                    {
                                        "children": [],
                                        "depth": 1,
                                        "name": "sendMessage",
                                        "value": 38364
                                    }
                                ],
                                "depth": 0,
                                "name": "Executed Gas",
                                "value": 45536
                            }
                        ],
                        "depth": -1,
                        "name": "Actual Gas Used",
                        "value": 67436
                    },
                    {
                        "children": [],
                        "depth": -1,
                        "name": "Refunded Gas",
                        "value": 0
                    }
                ],
                "depth": -2,
                "name": "Total Gas",
                "value": 67436
            }
        ],
        "isConfirmed": true,
        "mainTrace": [
            {
                "children": [
                    {
                        "children": [
                            {
                                "children": [
                                    {
                                        "children": [],
                                        "depth": 2,
                                        "id": 2,
                                        "order": 2
                                    },
                                    {
                                        "children": [],
                                        "depth": 2,
                                        "id": 3,
                                        "order": 3
                                    }
                                ],
                                "depth": 1,
                                "id": 1,
                                "order": 1
                            }
                        ],
                        "depth": 0,
                        "id": 0,
                        "order": 0
                    }
                ],
                "depth": -1,
                "id": -1,
                "order": -1
            }
        ],
        "mainTraceNodeCount": 4,
        "parentIdMap": {
            "0": -1,
            "1": 0,
            "2": 1,
            "3": 1
        },
        "tidyTrace": [
            {
                "children": [
                    {
                        "children": [
                            {
                                "children": [
                                    {
                                        "children": [],
                                        "depth": 2,
                                        "id": 2,
                                        "order": 2
                                    },
                                    {
                                        "children": [],
                                        "depth": 2,
                                        "id": 3,
                                        "order": 3
                                    }
                                ],
                                "depth": 1,
                                "id": 1,
                                "order": 1
                            }
                        ],
                        "depth": 0,
                        "id": 0,
                        "order": 0
                    }
                ],
                "depth": -1,
                "id": -1,
                "order": -1
            }
        ],
        "tidyTraceNodeCount": 4
    },
    "state_change": {
        "stateChanges": [
            {
                "address": "0xd19d4b5d358258f05d7b411e21a1460d11b0876f",
                "erc": "",
                "slots": [
                    {
                        "current": "0x000000000000000000000000000000000000000000000000000000000009d4b2",
                        "key": "0x00000000000000000000000000000000000000000000000000000000000000e4",
                        "prev": "0x000000000000000000000000000000000000000000000000000000000009d4b1"
                    },
                    {
                        "current": "0x7a413d4505d03b7cfd0b80d014e74da69274f8d11b12d03dc8a3f3fa26e506aa",
                        "key": "0xdd0b16379b35f75c6f0afe2f6d230394b0d08dccaaf68b1958e1127e643d8272",
                        "prev": "0x0000000000000000000000000000000000000000000000000000000000000000"
                    }
                ],
                "storageVariables": [
                    {
                        "name": "nextMessageNumber",
                        "type": "uint256",
                        "value": {
                            "current": "644274",
                            "prev": "644273",
                            "typeTag": 1
                        }
                    },
                    {
                        "name": "rollingHashes",
                        "type": "mapping(uint256 => bytes32)",
                        "value": {
                            "pairs": [
                                {
                                    "key": "644273",
                                    "value": {
                                        "current": "0x7a413d4505d03b7cfd0b80d014e74da69274f8d11b12d03dc8a3f3fa26e506aa",
                                        "prev": "0x0000000000000000000000000000000000000000000000000000000000000000",
                                        "typeTag": 1
                                    }
                                }
                            ],
                            "typeTag": 4
                        }
                    }
                ]
            }
        ]
    }
}