{
    "balance_change": {
        "balanceChanges": [
            {
                "account": "0x00413793a34097c1a89f70a0c6917d67948eca8a",
                "assets": [
                    {
                        "address": "0x1985365e9f78359a9b6ad760e32412f4a445e862",
                        "amount": "11.800169174047384233",
                        "iconUrl": "",
                        "isERC1155": false,
                        "isERC721": false,
                        "sign": false,
                        "value": ""
                    },
                    {
                        "address": "0xeeeeeeeeeeeeeeeeeeeeeeeeeeeeeeeeeeeeeeee",
                        "amount": "0.706497057001246612",
                        "iconUrl": "https://assets.blocksec.com/image/1663669189317-3.png",
                        "isERC1155": false,
                        "isERC721": false,
                        "sign": true,
                        "value": ""
                    }
                ]
            },
            {
                "account": "0x48b04d2a05b6b604d8d5223fd1984f191ded51af",
                "assets": [
                    {
                        "address": "0xeeeeeeeeeeeeeeeeeeeeeeeeeeeeeeeeeeeeeeee",
                        "amount": "0.706497057001246612",
                        "iconUrl": "https://assets.blocksec.com/image/1663669189317-3.png",
                        "isERC1155": false,
                        "isERC721": false,
                        "sign": false,
                        "value": ""
                    },
                    {
                        "address": "0x1985365e9f78359a9b6ad760e32412f4a445e862",
                        "amount": "11.800169174047384233",
                        "iconUrl": "",
                        "isERC1155": false,
                        "isERC721": false,
                        "sign": true,
                        "value": ""
                    }
                ]
            }
        ]
    },
    "profile": {
        "basic_info": {
            "baseFee": "",
            "blockNumber": 8868541,
            "callData": "0x95e3c50b000000000000000000000000000000000000000000000000a3c29f58049be2a900000000000000000000000000000000000000000000000009c01b0c77e0f6e8000000000000000000000000000000000000000000000000000000005dbf7f3e",
            "debugEnable": true,
            "errorInfo": "",
            "eventCount": 3,
            "feeRecipient": "0x829bd824b016326a401d083b33d092293333a830",
            "formatValue": "0",
            "gasLimit": 88603,
            "gasPrice": "12",
            "gasUsed": 85959,
            "intTxnCount": 13,
            "internalRevert": false,
            "internalRevertMessage": "",
            "isContractCreation": false,
            "isFlashloan": false,
            "maxFee": "",
            "nonce": 7796,
            "overwritedBlockNumber": -1,
            "priorityFee": "",
            "receiver": "0x48b04d2a05b6b604d8d5223fd1984f191ded51af",
            "revertMessage": "",
            "sender": "0x00413793a34097c1a89f70a0c6917d67948eca8a",
            "simulationEnable": true,
            "sourceTxnHash": "0x506f41af18f7156e3aaa7758df969db0cc22ac107c6d5d1d4388a14bb86e2ca3",
            "status": true,
            "timestamp": "2019-11-04T01:26:03Z",
            "transactionFee": "0.001031508",
            "txnHash": "0x506f41af18f7156e3aaa7758df969db0cc22ac107c6d5d1d4388a14bb86e2ca3",
            "txnIndex": 108,
            "type": 0,
            "value": "0"
        },
        "fund_flow": [
            {
                "amount": "0.706497057001246612",
                "from": "0x48b04d2a05b6b604d8d5223fd1984f191ded51af",
                "id": 1,
                "isERC1155": false,
                "isERC721": false,
                "isReverted": false,
                "order": 1,
                "to": "0x00413793a34097c1a89f70a0c6917d67948eca8a",
                "token": "0xeeeeeeeeeeeeeeeeeeeeeeeeeeeeeeeeeeeeeeee"
            },
            {
                "amount": "11.800169174047384233",
                "from": "0x00413793a34097c1a89f70a0c6917d67948eca8a",
                "id": 2,
                "isERC1155": false,
                "isERC721": false,
                "isReverted": false,
                "order": 2,
                "to": "0x48b04d2a05b6b604d8d5223fd1984f191ded51af",
                "token": "0x1985365e9f78359a9b6ad760e32412f4a445e862"
            }
        ],
        "token_infos": [
            {
                "address": "0x1985365e9f78359a9b6ad760e32412f4a445e862",
                "decimals": 18
            },
            {
                "address": "0xc02aaa39b223fe8d0a0e5c4f27ead9083c756cc2",
                "decimals": 18
            },
            {
                "address": "0xeeeeeeeeeeeeeeeeeeeeeeeeeeeeeeeeeeeeeeee",
                "decimals": 18
            }
        ]
    },
    "address_label": {
        "labels": [
            {
                "address": "0x0000000000000000000000000000000000000002",
                "label": "Precompiled"
            },
            {
                "address": "0x1985365e9f78359a9b6ad760e32412f4a445e862",
                "label": "Augur: REP Token"
            },
            {
                "address": "0xb3337164e91b9f05c87c7662c7ac684e8e0ff3e7",
                "label": "Controller"
            },
            {
                "address": "0x75228dce4d82566d93068a8d5d49435216551599",
                "label": "Augur"
            },
            {
                "address": "0x2157a7894439191e520825fe9399ab8655e0f708",
                "label": "Uniswap Exchange Template"
            },
            {
                "address": "0xfbcd5e4dbf9e95ce56d55cb3a4fd72415ca400ff",
                "label": "Universe"
            },
            {
                "address": "0x0000000000000000000000000000000000000001",
                "label": "Precompiled"
            },
            {
                "address": "0x0000000000000000000000000000000000000003",
                "label": "Precompiled"
            },
            {
                "address": "0x0000000000000000000000000000000000000004",
                "label": "Precompiled"
            },
            {
                "address": "0xeeeeeeeeeeeeeeeeeeeeeeeeeeeeeeeeeeeeeeee",
                "label": "Ether"
            },
            {
                "address": "0x48b04d2a05b6b604d8d5223fd1984f191ded51af",
                "label": "Uniswap: REP"
            },
            {
                "address": "0x6c114b96b7a0e679c2594e3884f11526797e43d1",
                "label": "Reputation (REP)"
            }
        ]
    },
    "trace": {
        "accountLabels": null,
        "dataMap": {
            "-1": {
                "invocation": {
                    "address": "0x00413793a34097c1a89f70a0c6917d67948eca8a",
                    "callData": "",
                    "decodedMethod": null,
                    "errorInfo": "",
                    "fromAddress": "",
                    "gasUsed": 0,
                    "id": -1,
                    "methodDecoded": false,
                    "operation": "",
                    "output": "",
                    "revert": false,
                    "revertMessage": "",
                    "selector": "",
                    "status": false,
                    "value": ""
                },
                "nodeType": 0
            },
            "0": {
                "invocation": {
                    "address": "0x48b04d2a05b6b604d8d5223fd1984f191ded51af",
                    "callData": "0x000000000000000000000000000000000000000000000000a3c29f58049be2a900000000000000000000000000000000000000000000000009c01b0c77e0f6e8000000000000000000000000000000000000000000000000000000005dbf7f3e",
                    "decodedMethod": {
                        "callParams": [
                            {
                                "name": "tokens_sold",
                                "type": "uint256",
                                "value": "11,800,169,174,047,384,233"
                            },
                            {
                                "name": "min_eth",
                                "type": "uint256",
                                "value": "702,591,282,234,586,856"
                            },
                            {
                                "name": "deadline",
                                "type": "uint256",
                                "value": "1,572,831,038"
                            }
                        ],
                        "constructorArguments": "",
                        "name": "tokenToEthSwapInput",
                        "returnParams": [
                            {
                                "name": "out",
                                "type": "uint256",
                                "value": "706,497,057,001,246,612"
                            }
                        ],
                        "signature": "tokenToEthSwapInput(uint256,uint256,uint256)"
                    },
                    "errorInfo": "",
                    "fromAddress": "0x00413793a34097c1a89f70a0c6917d67948eca8a",
                    "gasUsed": 85959,
                    "id": 0,
                    "methodDecoded": true,
                    "operation": "CALL",
                    "output": "0x00000000000000000000000000000000000000000000000009cdfb54856b0f94049be2a900000000000000000000000000000000000000000000000009c01b0c77e0f6e8000000000000000000000000000000000000000000000000000000005dbf7f3e000000000000000000000000000000000000000000000000000000000000000000000000000000000000000000000000000000000000000000000000000000000000000000000000000000000000000000000000000000000000000000000000000000000000000000000000000000000000000000000000000000000000000000000000000000000000000000000000000000000000000000000000000000000000000000000000000000000000000000000000000000000000000000000000000000000000000000000000000000000000000000000000000000000000000000000000000000000000000000000000000000000000000000000000000000000000000000000000000000000000000000000000000000000000000000000000000000000000000000000000000000000000000000000000000000000000000000000000000000000000000000000000000000000000000000000000000000000000000000000000000000000000000000000000000000000000000000000000000000000000000000000000000000000000000000000000000000000000000000000000000000000000000000000000000000000000000000000000000000000000000000000000000000000000000000000000000000000000000000000000000000000000000000000000000000000000000000000000000000000000000000000000000000000000000000000000000000000000000000000000000000000000000000000000000000000000000000000000000000000000000000000000000000000000000000000000000000000000000000000000000000000000000000000000000000000000000000000000000000000000000000000000000000000000000000000000000000000000000000000000000000000000000000000000000000000000000000000000000000000000000000000000000000000000000000000000000000000000000000000000000000000000000000000000000000000000000000000000000000000000000000000000000000000000000000000000000000000000000000000000000000000000000000000000000000000000000000000000000000000000000000000000000000000000000000000000000000000000000000000000000000000000000000000000000000000000000000000000000000000000000000000000000000000000000000000000000000000000000000000000000000000000000000000000000000000000000000000000000000000000000000000000000000000000000000000000000000000000000000000000000000000000000000000000000000000000000000000000000000000000000000000000000000000000000000000000000000000000000000000000000000000000000000000000000000000000000000000000000000000000000000000000000000000000000000000000000000000000000000000000000000000000000000000000000000000000000000000000000000000000000000000000000000000000000000000000000000000000000000000000000000000000000000000000000000000000000000000000000000000000000000000000000000000000000000000000000000000000000000000000000000000000000000000000000000000000000000000000000000000000000000000000000000000000000000000000000000000000000000000000000000000000000000000000000000000000000000000000000000000000000000000000000000000000000000000000000000000000000000000000000000000000000000000000000000000000000000000000000000000000000000000000000000000000000000000000000000000000000000000000000000000000000000000000000000000000000000000000000000000000000000000000000000000000000000000000000000000000000000000000000000000000000000000000000000000000000000000000000000000000000000000000000000000000000000000000000000000000000000000000000000000000000000000000000000000000000000000000000000000000000000000000000000000000000000000000000000000000000000000000000000000000000000000000000000000000000000000000000000000000000000000000000000000000000000000000000000000000000000000000000000000000000000000000000000000000000000000000000000000000000000000000000000000000000000000000000000000000000000000000000000000000000000000000000000000000000000000000000000000000000000000000000000000000000000000000000000000000000000000000000000000000000000000000000000000000000000000000000000000000000000000000000000000000000000000000000000000000000000000000000000000000000000000000000000000000000000000000000000000000000000000000000000000000000000000000000000000000000000000000000000000000000000000000000000000000000000000000000000000000000000000000000000000000000000000000000000000000000000000000000000000000000000000000000000000000000000000000000000000000000000000000000000000000000000000000000000000000000000000000000000000000000000000000000000000000000000000000000000000000000000000000000000000000000000000000000000000000000000000000000000000000000000000000000000000000000000000000000000000000000000000000000000000000000000000000000000000000000000000000000000000000000000000000000000000000000000000000000000000000000000000000000000000000000000000000000000000000000000000000000000000000000000000000000000000000000000000000000000000000000000000000000000000000000000000000000000000000000000000000000000000000000000000000000000000000000000000000000000000000000000000000000000000000000000000000000000000000000000000000000000000000000000000000000000000000000000000000000000000000000000000000000000000000000000000000000000000000000000000000000000000000000000000000000000000000000000000000000000000000000000000000000000000000000000000000000000000000000000000000000000000000000000000000000000000000000000000000000000000000000000000000000000000000000000000000000000000000000000000000000000000000000000000000000000000000000000000000000000000000000000000000000000000000000000000000000000000000000000000000000000000000000000000000000000000000000000000000000000000000000000000000000000000000000000000000000000000000000000000000000000000000000000000000000000000000000000000000000000000000000000000000000000000000000000000000000000000000000000000000000000000000000000000000000000000000000000000000000000000000000000000000000000000000000000000000000000000000000000000000000000000000000000000000000000000000000000000000000000000000000000000000000000000000000000000000000000000000000000000000000000000000000000000000000000000000000000000000000000000000000000000000000000000000000000000000000000000000000000000000000000000000000000000000000000000000000000000000000000000000000000000000000000000000000000000000000000000000000000000000000000000000000000000000000000000000000000000000000000000000000000000000000000000000000000000000000000000000000000000000000000000000000000000000000000000000000000000000000000000000000000000000000000000000000000000000000000000000000000000000000000000000000000000000000000000000000000000000000000000000000000000000000000000000000000000000000000000000000000000000000000000000000000000000000000000000000000000000000000000000000000000000000000000000000000000000000000000000000000000000000000000000000000000000000000000000000000000000000000000000000000000000000000000000000000000000000000000000000000000000000000000000000000000000000000000000000000000000000000000000000000000000000000000000000000000000000000000000000000000000000000000000000000000000000000000000000000000000000000000000000000000000000000000000000000000000000000000000000000000000000000000000000000000000000000000000000000000000000000000000000000000000000000000000000000000000000000000000000000000000000000000000000000000000000000000000000000000000000000000000000000000000000000000000000000000000000000000000000000000000000000000000000000000000000000000000000000000000000000000000000000000000000000000000000000000000000000000000000000000000000000000000000000000000000000000000000000000000000000000000000000000000000000000000000000000000000000000000000000000000000000000000000000000000000000000000000000000000000000000000000000000000000000000000000000000000000000000000000000000000000000000000000000000000000000000000000000000000000000000000000000000000000000000000000000000000000000000000000000000000000000000000000000000000000000000000000000000000000000000000000000000000000000000000000000000000000000000000000000000000000000000000000000000000000000000000000000000000000000000000000000000000000000000000000000000000000000000000000000000000000000000000000000000000000000000000000000000000000000000000000000000000000000000000000000000000000000000000000000000000000000000000000000000000000000000000000000000000000000000000000000000000000000000000000000000000000000000000000000000000000000000000000000000000000000000000000000000000000000000000000000000000000000000000000000000000000000000000000000000000000000000000000000000000000000000000000000000000000000000000000000000000",
                    "revert": false,
                    "revertMessage": "",
                    "selector": "0x95e3c50b",
                    "status": true,
                    "value": "0"
                },
                "nodeType": 0
            },
            "1": {
                "invocation": {
                    "address": "0x2157a7894439191e520825fe9399ab8655e0f708",
                    "callData": "0x000000000000000000000000000000000000000000000000a3c29f58049be2a900000000000000000000000000000000000000000000000009c01b0c77e0f6e8000000000000000000000000000000000000000000000000000000005dbf7f3e",
                    "decodedMethod": {
                        "callParams": [
                            {
                                "name": "tokens_sold",
                                "type": "uint256",
                                "value": "11,800,169,174,047,384,233"
                            },
                            {
                                "name": "min_eth",
                                "type": "uint256",
                                "value": "702,591,282,234,586,856"
                            },
                            {
                                "name": "deadline",
                                "type": "uint256",
                                "value": "1,572,831,038"
                            }
                        ],
                        "constructorArguments": "",
                        "name": "tokenToEthSwapInput",
                        "returnParams": [
                            {
                                "name": "out",
                                "type": "uint256",
                                "value": "706,497,057,001,246,612"
                            }
                        ],
                        "signature": "tokenToEthSwapInput(uint256,uint256,uint256)"
                    },
                    "errorInfo": "",
                    "fromAddress": "0x48b04d2a05b6b604d8d5223fd1984f191ded51af",
                    "gasUsed": 61847,
                    "id": 1,
                    "methodDecoded": true,
                    "operation": "DELEGATECALL",
                    "output": "0x00000000000000000000000000000000000000000000000009cdfb54856b0f94",
                    "revert": false,
                    "revertMessage": "",
                    "selector": "0x95e3c50b",
                    "status": true,
                    "value": "0"
                },
                "nodeType": 0
            },
            "10": {
                "invocation": {
                    "address": "0xb3337164e91b9f05c87c7662c7ac684e8e0ff3e7",
                    "callData": "0x",
                    "decodedMethod": {
                        "callParams": [],
                        "constructorArguments": "",
                        "name": "getAugur",
                        "returnParams": [
                            {
                                "name": "",
                                "type": "address",
                                "value": "0x75228dce4d82566d93068a8d5d49435216551599"
                            }
                        ],
                        "signature": "getAugur()"
                    },
                    "errorInfo": "",
                    "fromAddress": "0x1985365e9f78359a9b6ad760e32412f4a445e862",
                    "gasUsed": 768,
                    "id": 10,
                    "methodDecoded": true,
                    "operation": "CALL",
                    "output": "0x00000000000000000000000075228dce4d82566d93068a8d5d49435216551599",
                    "revert": false,
                    "revertMessage": "",
                    "selector": "0x4e94c829",
                    "status": true,
                    "value": "0"
                },
                "nodeType": 0
            },
            "11": {
                "invocation": {
                    "address": "0x75228dce4d82566d93068a8d5d49435216551599",
                    "callData": "0x000000000000000000000000e991247b78f937d7b69cfc00f1a487a29355767700000000000000000000000000413793a34097c1a89f70a0c6917d67948eca8a00000000000000000000000048b04d2a05b6b604d8d5223fd1984f191ded51af000000000000000000000000000000000000000000000000a3c29f58049be2a9",
                    "decodedMethod": {
                        "callParams": [
                            {
                                "name": "_universe",
                                "type": "address",
                                "value": "0xe991247b78f937d7b69cfc00f1a487a293557677"
                            },
                            {
                                "name": "_from",
                                "type": "address",
                                "value": "0x00413793a34097c1a89f70a0c6917d67948eca8a"
                            },
                            {
                                "name": "_to",
                                "type": "address",
                                "value": "0x48b04d2a05b6b604d8d5223fd1984f191ded51af"
                            },
                            {
                                "name": "_value",
                                "type": "uint256",
                                "value": "11,800,169,174,047,384,233"
                            }
                        ],
                        "constructorArguments": "",
                        "name": "logReputationTokensTransferred",
                        "returnParams": [
                            {
                                "name": "",
                                "type": "bool",
                                "value": true
                            }
                        ],
                        "signature": "logReputationTokensTransferred(address,address,address,uint256)"
                    },
                    "errorInfo": "",
                    "fromAddress": "0x1985365e9f78359a9b6ad760e32412f4a445e862",
                    "gasUsed": 12638,
                    "id": 11,
                    "methodDecoded": true,
                    "operation": "CALL",
                    "output": "0x0000000000000000000000000000000000000000000000000000000000000001",
                    "revert": false,
                    "revertMessage": "",
                    "selector": "0xec37a6e4",
                    "status": true,
                    "value": "0"
                },
                "nodeType": 0
            },
            "12": {
                "invocation": {
                    "address": "0xe991247b78f937d7b69cfc00f1a487a293557677",
                    "callData": "0x",
                    "decodedMethod": {
                        "callParams": [],
                        "constructorArguments": "",
                        "name": "getReputationToken",
                        "returnParams": [
                            {
                                "name": "",
                                "type": "address",
                                "value": "0x1985365e9f78359a9b6ad760e32412f4a445e862"
                            }
                        ],
                        "signature": "getReputationToken()"
                    },
                    "errorInfo": "",
                    "fromAddress": "0x75228dce4d82566d93068a8d5d49435216551599",
                    "gasUsed": 5537,
                    "id": 12,
                    "methodDecoded": true,
                    "operation": "CALL",
                    "output": "0x0000000000000000000000001985365e9f78359a9b6ad760e32412f4a445e862",
                    "revert": false,
                    "revertMessage": "",
                    "selector": "0xb80907f2",
                    "status": true,
                    "value": "0"
                },
                "nodeType": 0
            },
            "13": {
                "invocation": {
                    "address": "0xb3337164e91b9f05c87c7662c7ac684e8e0ff3e7",
                    "callData": "0x556e697665727365000000000000000000000000000000000000000000000000",
                    "decodedMethod": {
                        "callParams": [
                            {
                                "name": "_key",
                                "type": "bytes32",
                                "value": "0x556e697665727365000000000000000000000000000000000000000000000000"
                            }
                        ],
                        "constructorArguments": "",
                        "name": "lookup",
                        "returnParams": [
                            {
                                "name": "",
                                "type": "address",
                                "value": "0xfbcd5e4dbf9e95ce56d55cb3a4fd72415ca400ff"
                            }
                        ],
                        "signature": "lookup(bytes32)"
                    },
                    "errorInfo": "",
                    "fromAddress": "0xe991247b78f937d7b69cfc00f1a487a293557677",
                    "gasUsed": 934,
                    "id": 13,
                    "methodDecoded": true,
                    "operation": "CALL",
                    "output": "0x000000000000000000000000fbcd5e4dbf9e95ce56d55cb3a4fd72415ca400ff",
                    "revert": false,
                    "revertMessage": "",
                    "selector": "0xf39ec1f7",
                    "status": true,
                    "value": "0"
                },
                "nodeType": 0
            },
            "14": {
                "invocation": {
                    "address": "0xfbcd5e4dbf9e95ce56d55cb3a4fd72415ca400ff",
                    "callData": "0x",
                    "decodedMethod": {
                        "callParams": [],
                        "constructorArguments": "",
                        "name": "getReputationToken",
                        "returnParams": [
                            {
                                "name": "",
                                "type": "address",
                                "value": "0x1985365e9f78359a9b6ad760e32412f4a445e862"
                            }
                        ],
                        "signature": "getReputationToken()"
                    },
                    "errorInfo": "",
                    "fromAddress": "0xe991247b78f937d7b69cfc00f1a487a293557677",
                    "gasUsed": 1403,
                    "id": 14,
                    "methodDecoded": true,
                    "operation": "DELEGATECALL",
                    "output": "0x0000000000000000000000001985365e9f78359a9b6ad760e32412f4a445e862",
                    "revert": false,
                    "revertMessage": "",
                    "selector": "0xb80907f2",
                    "status": true,
                    "value": "0"
                },
                "nodeType": 0
            },
            "15": {
                "event": {
                    "contract": "0x75228dce4d82566d93068a8d5d49435216551599",
                    "decodedLog": {
                        "name": "TokensTransferred",
                        "params": [
                            {
                                "name": "universe",
                                "type": "address",
                                "value": "0xe991247b78f937d7b69cfc00f1a487a293557677"
                            },
                            {
                                "name": "token",
                                "type": "address",
                                "value": "0x1985365e9f78359a9b6ad760e32412f4a445e862"
                            },
                            {
                                "name": "from",
                                "type": "address",
                                "value": "0x00413793a34097c1a89f70a0c6917d67948eca8a"
                            },
                            {
                                "name": "to",
                                "type": "address",
                                "value": "0x48b04d2a05b6b604d8d5223fd1984f191ded51af"
                            },
                            {
                                "name": "value",
                                "type": "uint256",
                                "value": "11,800,169,174,047,384,233"
                            },
                            {
                                "name": "tokenType",
                                "type": "uint8",
                                "value": "0"
                            },
                            {
                                "name": "market",
                                "type": "address",
                                "value": "0x0000000000000000000000000000000000000000"
                            }
                        ],
                        "signature": "TokensTransferred(address,address,address,address,uint256,uint8,address)"
                    },
                    "id": 15,
                    "logData": "0x00000000000000000000000048b04d2a05b6b604d8d5223fd1984f191ded51af000000000000000000000000000000000000000000000000a3c29f58049be2a900000000000000000000000000000000000000000000000000000000000000000000000000000000000000000000000000000000000000000000000000000000",
                    "logDecoded": true,
                    "operation": "EVENT",
                    "revert": false,
                    "status": true,
                    "topics": [
                        "0x3c67396e9c55d2fc8ad68875fc5beca1d96ad2a2f23b210ccc1d986551ab6fdf",
                        "0x000000000000000000000000e991247b78f937d7b69cfc00f1a487a293557677",
                        "0x0000000000000000000000001985365e9f78359a9b6ad760e32412f4a445e862",
                        "0x00000000000000000000000000413793a34097c1a89f70a0c6917d67948eca8a"
                    ]
                },
                "nodeType": 1
            },
            "16": {
                "event": {
                    "contract": "0x48b04d2a05b6b604d8d5223fd1984f191ded51af",
                    "decodedLog": {
                        "name": "EthPurchase",
                        "params": [
                            {
                                "name": "buyer",
                                "type": "address",
                                "value": "0x00413793a34097c1a89f70a0c6917d67948eca8a"
                            },
                            {
                                "name": "tokens_sold",
                                "type": "uint256",
                                "value": "11,800,169,174,047,384,233"
                            },
                            {
                                "name": "eth_bought",
                                "type": "uint256",
                                "value": "706,497,057,001,246,612"
                            }
                        ],
                        "signature": "EthPurchase(address,uint256,uint256)"
                    },
                    "id": 16,
                    "logData": "0x",
                    "logDecoded": true,
                    "operation": "EVENT",
                    "revert": false,
                    "status": true,
                    "topics": [
                        "0x7f4091b46c33e918a0f3aa42307641d17bb67029427a5369e54b353984238705",
                        "0x00000000000000000000000000413793a34097c1a89f70a0c6917d67948eca8a",
                        "0x000000000000000000000000000000000000000000000000a3c29f58049be2a9",
                        "0x00000000000000000000000000000000000000000000000009cdfb54856b0f94"
                    ]
                },
                "nodeType": 1
            },
            "2": {
                "invocation": {
                    "address": "0x1985365e9f78359a9b6ad760e32412f4a445e862",
                    "callData": "0x00000000000000000000000048b04d2a05b6b604d8d5223fd1984f191ded51af",
                    "decodedMethod": {
                        "callParams": [
                            {
                                "name": "account",
                                "type": "address",
                                "value": "0x48b04d2a05b6b604d8d5223fd1984f191ded51af"
                            }
                        ],
                        "constructorArguments": "",
                        "name": "balanceOf",
                        "returnParams": [
                            {
                                "decimalAvailable": true,
                                "name": "",
                                "type": "uint256",
                                "value": "9,485,262,086,189,448,660,979"
                            }
                        ],
                        "signature": "balanceOf(address)"
                    },
                    "errorInfo": "",
                    "fromAddress": "0x48b04d2a05b6b604d8d5223fd1984f191ded51af",
                    "gasUsed": 5040,
                    "id": 2,
                    "methodDecoded": true,
                    "operation": "STATICCALL",
                    "output": "0x00000000000000000000000000000000000000000000020232745c5122b387f3",
                    "revert": false,
                    "revertMessage": "",
                    "selector": "0x70a08231",
                    "status": true,
                    "value": "0"
                },
                "nodeType": 0
            },
            "3": {
                "invocation": {
                    "address": "0xb3337164e91b9f05c87c7662c7ac684e8e0ff3e7",
                    "callData": "0x52657075746174696f6e546f6b656e0000000000000000000000000000000000",
                    "decodedMethod": {
                        "callParams": [
                            {
                                "name": "_key",
                                "type": "bytes32",
                                "value": "0x52657075746174696f6e546f6b656e0000000000000000000000000000000000"
                            }
                        ],
                        "constructorArguments": "",
                        "name": "lookup",
                        "returnParams": [
                            {
                                "name": "",
                                "type": "address",
                                "value": "0x6c114b96b7a0e679c2594e3884f11526797e43d1"
                            }
                        ],
                        "signature": "lookup(bytes32)"
                    },
                    "errorInfo": "",
                    "fromAddress": "0x1985365e9f78359a9b6ad760e32412f4a445e862",
                    "gasUsed": 934,
                    "id": 3,
                    "methodDecoded": true,
                    "operation": "CALL",
                    "output": "0x0000000000000000000000006c114b96b7a0e679c2594e3884f11526797e43d1",
                    "revert": false,
                    "revertMessage": "",
                    "selector": "0xf39ec1f7",
                    "status": true,
                    "value": "0"
                },
                "nodeType": 0
            },
            "4": {
                "invocation": {
                    "address": "0x6c114b96b7a0e679c2594e3884f11526797e43d1",
                    "callData": "0x00000000000000000000000048b04d2a05b6b604d8d5223fd1984f191ded51af",
                    "decodedMethod": {
                        "callParams": [
                            {
                                "name": "_owner",
                                "type": "address",
                                "value": "0x48b04d2a05b6b604d8d5223fd1984f191ded51af"
                            }
                        ],
                        "constructorArguments": "",
                        "name": "balanceOf",
                        "returnParams": [
                            {
                                "decimalAvailable": true,
                                "name": "",
                                "type": "uint256",
                                "value": "9,485,262,086,189,448,660,979"
                            }
                        ],
                        "signature": "balanceOf(address)"
                    },
                    "errorInfo": "",
                    "fromAddress": "0x1985365e9f78359a9b6ad760e32412f4a445e862",
                    "gasUsed": 900,
                    "id": 4,
                    "methodDecoded": true,
                    "operation": "DELEGATECALL",
                    "output": "0x00000000000000000000000000000000000000000000020232745c5122b387f3",
                    "revert": false,
                    "revertMessage": "",
                    "selector": "0x70a08231",
                    "status": true,
                    "value": "0"
                },
                "nodeType": 0
            },
            "5": {
                "invocation": {
                    "address": "0x00413793a34097c1a89f70a0c6917d67948eca8a",
                    "callData": "0x",
                    "decodedMethod": null,
                    "errorInfo": "",
                    "fromAddress": "0x48b04d2a05b6b604d8d5223fd1984f191ded51af",
                    "gasUsed": 0,
                    "id": 5,
                    "methodDecoded": false,
                    "operation": "CALL",
                    "output": "",
                    "revert": false,
                    "revertMessage": "",
                    "selector": "fallback",
                    "status": true,
                    "value": "0.706497057001246612"
                },
                "nodeType": 0
            },
            "6": {
                "invocation": {
                    "address": "0x1985365e9f78359a9b6ad760e32412f4a445e862",
                    "callData": "0x00000000000000000000000000413793a34097c1a89f70a0c6917d67948eca8a00000000000000000000000048b04d2a05b6b604d8d5223fd1984f191ded51af000000000000000000000000000000000000000000000000a3c29f58049be2a9",
                    "decodedMethod": {
                        "callParams": [
                            {
                                "name": "sender",
                                "type": "address",
                                "value": "0x00413793a34097c1a89f70a0c6917d67948eca8a"
                            },
                            {
                                "name": "recipient",
                                "type": "address",
                                "value": "0x48b04d2a05b6b604d8d5223fd1984f191ded51af"
                            },
                            {
                                "decimalAvailable": true,
                                "name": "amount",
                                "type": "uint256",
                                "value": "11,800,169,174,047,384,233"
                            }
                        ],
                        "constructorArguments": "",
                        "name": "transferFrom",
                        "returnParams": [
                            {
                                "name": "",
                                "type": "bool",
                                "value": true
                            }
                        ],
                        "signature": "transferFrom(address,address,uint256)"
                    },
                    "errorInfo": "",
                    "fromAddress": "0x48b04d2a05b6b604d8d5223fd1984f191ded51af",
                    "gasUsed": 41044,
                    "id": 6,
                    "methodDecoded": true,
                    "operation": "CALL",
                    "output": "0x0000000000000000000000000000000000000000000000000000000000000001",
                    "revert": false,
                    "revertMessage": "",
                    "selector": "0x23b872dd",
                    "status": true,
                    "value": "0"
                },
                "nodeType": 0
            },
            "7": {
                "invocation": {
                    "address": "0xb3337164e91b9f05c87c7662c7ac684e8e0ff3e7",
                    "callData": "0x52657075746174696f6e546f6b656e0000000000000000000000000000000000",
                    "decodedMethod": {
                        "callParams": [
                            {
                                "name": "_key",
                                "type": "bytes32",
                                "value": "0x52657075746174696f6e546f6b656e0000000000000000000000000000000000"
                            }
                        ],
                        "constructorArguments": "",
                        "name": "lookup",
                        "returnParams": [
                            {
                                "name": "",
                                "type": "address",
                                "value": "0x6c114b96b7a0e679c2594e3884f11526797e43d1"
                            }
                        ],
                        "signature": "lookup(bytes32)"
                    },
                    "errorInfo": "",
                    "fromAddress": "0x1985365e9f78359a9b6ad760e32412f4a445e862",
                    "gasUsed": 934,
                    "id": 7,
                    "methodDecoded": true,
                    "operation": "CALL",
                    "output": "0x0000000000000000000000006c114b96b7a0e679c2594e3884f11526797e43d1",
                    "revert": false,
                    "revertMessage": "",
                    "selector": "0xf39ec1f7",
                    "status": true,
                    "value": "0"
                },
                "nodeType": 0
            },
            "8": {
                "invocation": {
                    "address": "0x6c114b96b7a0e679c2594e3884f11526797e43d1",
                    "callData": "0x00000000000000000000000000413793a34097c1a89f70a0c6917d67948eca8a00000000000000000000000048b04d2a05b6b604d8d5223fd1984f191ded51af000000000000000000000000000000000000000000000000a3c29f58049be2a9",
                    "decodedMethod": {
                        "callParams": [
                            {
                                "name": "_from",
                                "type": "address",
                                "value": "0x00413793a34097c1a89f70a0c6917d67948eca8a"
                            },
                            {
                                "name": "_to",
                                "type": "address",
                                "value": "0x48b04d2a05b6b604d8d5223fd1984f191ded51af"
                            },
                            {
                                "decimalAvailable": true,
                                "name": "_value",
                                "type": "uint256",
                                "value": "11,800,169,174,047,384,233"
                            }
                        ],
                        "constructorArguments": "",
                        "name": "transferFrom",
                        "returnParams": [
                            {
                                "name": "",
                                "type": "bool",
                                "value": true
                            }
                        ],
                        "signature": "transferFrom(address,address,uint256)"
                    },
                    "errorInfo": "",
                    "fromAddress": "0x1985365e9f78359a9b6ad760e32412f4a445e862",
                    "gasUsed": 36892,
                    "id": 8,
                    "methodDecoded": true,
                    "operation": "DELEGATECALL",
                    "output": "0x0000000000000000000000000000000000000000000000000000000000000001",
                    "revert": false,
                    "revertMessage": "",
                    "selector": "0x23b872dd",
                    "status": true,
                    "value": "0"
                },
                "nodeType": 0
            },
            "9": {
                "event": {
                    "contract": "0x1985365e9f78359a9b6ad760e32412f4a445e862",
                    "decodedLog": {
                        "name": "Transfer",
                        "params": [
                            {
                                "name": "from",
                                "type": "address",
                                "value": "0x00413793a34097c1a89f70a0c6917d67948eca8a"
                            },
                            {
                                "name": "to",
                                "type": "address",
                                "value": "0x48b04d2a05b6b604d8d5223fd1984f191ded51af"
                            },
                            {
                                "decimalAvailable": true,
                                "name": "value",
                                "type": "uint256",
                                "value": "11,800,169,174,047,384,233"
                            }
                        ],
                        "signature": "Transfer(address,address,uint256)"
                    },
                    "id": 9,
                    "logData": "0x000000000000000000000000000000000000000000000000a3c29f58049be2a9",
                    "logDecoded": true,
                    "operation": "EVENT",
                    "revert": false,
                    "status": true,
                    "topics": [
                        "0xddf252ad1be2c89b69c2b068fc378daa952ba7f163c4a11628f55a4df523b3ef",
                        "0x00000000000000000000000000413793a34097c1a89f70a0c6917d67948eca8a",
                        "0x00000000000000000000000048b04d2a05b6b604d8d5223fd1984f191ded51af"
                    ]
                },
                "nodeType": 1
            }
        },
        "gasFlame": [
            {
                "children": [
                    {
                        "children": [
                            {
                                "children": [],
                                "depth": 0,
                                "name": "Initial Gas",
                                "value": 22936
                            },
                            {
                                "children": [
                                    {
                                        "children": [
                                            {
                                                "children": [
                                                    {
                                                        "children": [],
                                                        "depth": 3,
                                                        "name": "lookup",
                                                        "value": 934
                                                    },
                                                    {
                                                        "children": [],
                                                        "depth": 3,
                                                        "name": "balanceOf",
                                                        "value": 900
                                                    }
                                                ],
                                                "depth": 2,
                                                "name": "balanceOf",
                                                "value": 5040
                                            },
                                            {
                                                "children": [],
                                                "depth": 2,
                                                "name": "fallback",
                                                "value": 0
                                            },
                                            {
                                                "children": [
                                                    {
                                                        "children": [],
                                                        "depth": 3,
                                                        "name": "lookup",
                                                        "value": 934
                                                    },
                                                    {
                                                        "children": [
                                                            {
                                                                "children": [],
                                                                "depth": 4,
                                                                "name": "getAugur",
                                                                "value": 768
                                                            },
                                                            {
                                                                "children": [
                                                                    {
                                                                        "children": [
                                                                            {
                                                                                "children": [],
                                                                                "depth": 6,
                                                                                "name": "lookup",
                                                                                "value": 934
                                                                            },
                                                                            {
                                                                                "children": [],
                                                                                "depth": 6,
                                                                                "name": "getReputationToken",
                                                                                "value": 1403
                                                                            }
                                                                        ],
                                                                        "depth": 5,
                                                                        "name": "getReputationToken",
                                                                        "value": 5537
                                                                    }
                                                                ],
                                                                "depth": 4,
                                                                "name": "logReputationTokensTransferred",
                                                                "value": 12638
                                                            }
                                                        ],
                                                        "depth": 3,
                                                        "name": "transferFrom",
                                                        "value": 36892
                                                    }
                                                ],
                                                "depth": 2,
                                                "name": "transferFrom",
                                                "value": 41044
                                            }
                                        ],
                                        "depth": 1,
                                        "name": "tokenToEthSwapInput",
                                        "value": 61847
                                    }
                                ],
                                "depth": 0,
                                "name": "Executed Gas",
                                "value": 63023
                            }
                        ],
                        "depth": -1,
                        "name": "Actual Gas Used",
                        "value": 85959
                    },
                    {
                        "children": [],
                        "depth": -1,
                        "name": "Refunded Gas",
                        "value": 0
                    }
                ],
                "depth": -2,
                "name": "Total Gas",
                "value": 85959
            }
        ],
        "isConfirmed": true,
        "mainTrace": [
            {
                "children": [
                    {
                        "children": [
                            {
                                "children": [
                                    {
                                        "children": [
                                            {
                                                "children": [],
                                                "depth": 3,
                                                "id": 3,
                                                "order": 3
                                            },
                                            {
                                                "children": [],
                                                "depth": 3,
                                                "id": 4,
                                                "order": 4
                                            }
                                        ],
                                        "depth": 2,
                                        "id": 2,
                                        "order": 2
                                    },
                                    {
                                        "children": [],
                                        "depth": 2,
                                        "id": 5,
                                        "order": 5
                                    },
                                    {
                                        "children": [
                                            {
                                                "children": [],
                                                "depth": 3,
                                                "id": 7,
                                                "order": 7
                                            },
                                            {
                                                "children": [
                                                    {
                                                        "children": [],
                                                        "depth": 4,
                                                        "id": 9,
                                                        "order": 9
                                                    },
                                                    {
                                                        "children": [],
                                                        "depth": 4,
                                                        "id": 10,
                                                        "order": 10
                                                    },
                                                    {
                                                        "children": [
                                                            {
                                                                "children": [
                                                                    {
                                                                        "children": [],
                                                                        "depth": 6,
                                                                        "id": 13,
                                                                        "order": 13
                                                                    },
                                                                    {
                                                                        "children": [],
                                                                        "depth": 6,
                                                                        "id": 14,
                                                                        "order": 14
                                                                    }
                                                                ],
                                                                "depth": 5,
                                                                "id": 12,
                                                                "order": 12
                                                            },
                                                            {
                                                                "children": [],
                                                                "depth": 5,
                                                                "id": 15,
                                                                "order": 15
                                                            }
                                                        ],
                                                        "depth": 4,
                                                        "id": 11,
                                                        "order": 11
                                                    }
                                                ],
                                                "depth": 3,
                                                "id": 8,
                                                "order": 8
                                            }
                                        ],
                                        "depth": 2,
                                        "id": 6,
                                        "order": 6
                                    },
                                    {
                                        "children": [],
                                        "depth": 2,
                                        "id": 16,
                                        "order": 16
                                    }
                                ],
                                "depth": 1,
                                "id": 1,
                                "order": 1
                            }
                        ],
                        "depth": 0,
                        "id": 0,
                        "order": 0
                    }
                ],
                "depth": -1,
                "id": -1,
                "order": -1
            }
        ],
        "mainTraceNodeCount": 17,
        "parentIdMap": {
            "0": -1,
            "1": 0,
            "10": 8,
            "11": 8,
            "12": 11,
            "13": 12,
            "14": 12,
            "15": 11,
            "16": 1,
            "2": 1,
            "3": 2,
            "4": 2,
            "5": 1,
            "6": 1,
            "7": 6,
            "8": 6,
            "9": 8
        },
        "tidyTrace": [
            {
                "children": [
                    {
                        "children": [
                            {
                                "children": [
                                    {
                                        "children": [],
                                        "depth": 2,
                                        "id": 5,
                                        "order": 5
                                    },
                                    {
                                        "children": [
                                            {
                                                "children": [],
                                                "depth": 3,
                                                "id": 7,
                                                "order": 7
                                            },
                                            {
                                                "children": [
                                                    {
                                                        "children": [],
                                                        "depth": 4,
                                                        "id": 9,
                                                        "order": 9
                                                    },
                                                    {
                                                        "children": [],
                                                        "depth": 4,
                                                        "id": 10,
                                                        "order": 10
                                                    },
                                                    {
                                                        "children": [
                                                            {
                                                                "children": [
                                                                    {
                                                                        "children": [],
                                                                        "depth": 6,
                                                                        "id": 13,
                                                                        "order": 13
                                                                    },
                                                                    {
                                                                        "children": [],
                                                                        "depth": 6,
                                                                        "id": 14,
                                                                        "order": 14
                                                                    }
                                                                ],
                                                                "depth": 5,
                                                                "id": 12,
                                                                "order": 12
                                                            },
                                                            {
                                                                "children": [],
                                                                "depth": 5,
                                                                "id": 15,
                                                                "order": 15
                                                            }
                                                        ],
                                                        "depth": 4,
                                                        "id": 11,
                                                        "order": 11
                                                    }
                                                ],
                                                "depth": 3,
                                                "id": 8,
                                                "order": 8
                                            }
                                        ],
                                        "depth": 2,
                                        "id": 6,
                                        "order": 6
                                    },
                                    {
                                        "children": [],
                                        "depth": 2,
                                        "id": 16,
                                        "order": 16
                                    }
                                ],
                                "depth": 1,
                                "id": 1,
                                "order": 1
                            }
                        ],
                        "depth": 0,
                        "id": 0,
                        "order": 0
                    }
                ],
                "depth": -1,
                "id": -1,
                "order": -1
            }
        ],
        "tidyTraceNodeCount": 14
    },
    "state_change": {
        "stateChanges": [
            {
                "address": "0x1985365e9f78359a9b6ad760e32412f4a445e862",
                "erc": "",
                "slots": [
                    {
                        "current": "0x000000000000000000000000000000000000000000000001a834c789a3dd6df7",
                        "key": "0x6ae67fe25aed0ad4074b735210154ab1963eff119a88deb2620ccb78cf54f4d1",
                        "prev": "0x0000000000000000000000000000000000000000000000024bf766e1a87950a0"
                    },
                    {
                        "current": "0x000000000000000000000000000000000000000000000202d636fba9274f6a9c",
                        "key": "0x2701e6c4defa15a27a965f2bfce4caa57ec073b331909cdfc712454f1b511525",
                        "prev": "0x00000000000000000000000000000000000000000000020232745c5122b387f3"
                    },
                    {
                        "current": "0x00000000000000000000000000000000000000000000044d4fbdb079be7d9546",
                        "key": "0xd4b430da0732bff3b5e3962400af994d5febf28a3d5221084fb23bc946385ef7",
                        "prev": "0x00000000000000000000000000000000000000000000044df3804fd1c31977ef"
                    }
                ],
                "storageVariables": []
            }
        ]
    }
}