{
    "balance_change": {
        "balanceChanges": [
            {
                "account": "0xfe1dee06961c2bc95e674d49efaf53955abb69ca",
                "assets": [
                    {
                        "address": "0x95ad61b0a150d79219dcf64e1e6cc01f0b64c4ce",
                        "amount": "1,675,347.66",
                        "iconUrl": "https://assets.blocksec.com/icon/56235cdcac277d59ed89deae8cb8e206f4c4384e75186903e74565b748deabf5.png",
                        "isERC1155": false,
                        "isERC721": false,
                        "sign": false,
                        "value": ""
                    }
                ]
            },
            {
                "account": "0x20e9fcecd7a4f54d0f0106929f3bacb11e889992",
                "assets": [
                    {
                        "address": "0x95ad61b0a150d79219dcf64e1e6cc01f0b64c4ce",
                        "amount": "1,675,347.66",
                        "iconUrl": "https://assets.blocksec.com/icon/56235cdcac277d59ed89deae8cb8e206f4c4384e75186903e74565b748deabf5.png",
                        "isERC1155": false,
                        "isERC721": false,
                        "sign": true,
                        "value": ""
                    }
                ]
            }
        ]
    },
    "profile": {
        "basic_info": {
            "baseFee": "23.290015298",
            "blockNumber": 19572532,
            "callData": "0xa9059cbb00000000000000000000000020e9fcecd7a4f54d0f0106929f3bacb11e8899920000000000000000000000000000000000000000000162c4c7546dac552e0000",
            "debugEnable": true,
            "errorInfo": "",
            "eventCount": 1,
            "feeRecipient": "0x1f9090aae28b8a3dceadf281b0f12828e676c326",
            "formatValue": "0",
            "gasLimit": 100000,
            "gasPrice": "24.290015298",
            "gasUsed": 51895,
            "intTxnCount": 0,
            "internalRevert": false,
            "internalRevertMessage": "",
            "isContractCreation": false,
            "isFlashloan": false,
            "maxFee": "32",
            "nonce": 545,
            "overwritedBlockNumber": -1,
            "priorityFee": "1",
            "receiver": "0x95ad61b0a150d79219dcf64e1e6cc01f0b64c4ce",
            "revertMessage": "",
            "sender": "0xfe1dee06961c2bc95e674d49efaf53955abb69ca",
            "simulationEnable": true,
            "sourceTxnHash": "0x5063654ccc2f2cc624cc062a9774fb038f0e8a948c2f42f1c9b4c55f47a44e70",
            "status": true,
            "timestamp": "2024-04-03T03:21:23Z",
            "transactionFee": "0.00126053034388971",
            "txnHash": "0x5063654ccc2f2cc624cc062a9774fb038f0e8a948c2f42f1c9b4c55f47a44e70",
            "txnIndex": 108,
            "type": 2,
            "value": "0"
        },
        "fund_flow": [
            {
                "amount": "1,675,347.66",
                "from": "0xfe1dee06961c2bc95e674d49efaf53955abb69ca",
                "id": 1,
                "isERC1155": false,
                "isERC721": false,
                "isReverted": false,
                "order": 1,
                "to": "0x20e9fcecd7a4f54d0f0106929f3bacb11e889992",
                "token": "0x95ad61b0a150d79219dcf64e1e6cc01f0b64c4ce"
            }
        ],
        "token_infos": [
            {
                "address": "0x95ad61b0a150d79219dcf64e1e6cc01f0b64c4ce",
                "decimals": 18
            },
            {
                "address": "0xc02aaa39b223fe8d0a0e5c4f27ead9083c756cc2",
                "decimals": 18
            },
            {
                "address": "0xeeeeeeeeeeeeeeeeeeeeeeeeeeeeeeeeeeeeeeee",
                "decimals": 18
            }
        ]
    },
    "address_label": {
        "labels": [
            {
                "address": "0x20e9fcecd7a4f54d0f0106929f3bacb11e889992",
                "label": "BINANCE"
            },
            {
                "address": "0x0000000000000000000000000000000000000001",
                "label": "Precompiled"
            },
            {
                "address": "0x0000000000000000000000000000000000000002",
                "label": "Precompiled"
            },
            {
                "address": "0x0000000000000000000000000000000000000003",
                "label": "Precompiled"
            },
            {
                "address": "0x0000000000000000000000000000000000000004",
                "label": "Precompiled"
            },
            {
                "address": "0xeeeeeeeeeeeeeeeeeeeeeeeeeeeeeeeeeeeeeeee",
                "label": "Ether"
            },
            {
                "address": "0x95ad61b0a150d79219dcf64e1e6cc01f0b64c4ce",
                "label": "Shiba Inu: SHIB Token"
            }
        ]
    },
    "trace": {
        "accountLabels": null,
        "dataMap": {
            "-1": {
                "invocation": {
                    "address": "0xfe1dee06961c2bc95e674d49efaf53955abb69ca",
                    "callData": "",
                    "decodedMethod": null,
                    "errorInfo": "",
                    "fromAddress": "",
                    "gasUsed": 0,
                    "id": -1,
                    "methodDecoded": false,
                    "operation": "",
                    "output": "",
                    "revert": false,
                    "revertMessage": "",
                    "selector": "",
                    "status": false,
                    "value": ""
                },
                "nodeType": 0
            },
            "0": {
                "invocation": {
                    "address": "0x95ad61b0a150d79219dcf64e1e6cc01f0b64c4ce",
                    "callData": "0x00000000000000000000000020e9fcecd7a4f54d0f0106929f3bacb11e8899920000000000000000000000000000000000000000000162c4c7546dac552e0000",
                    "decodedMethod": {
                        "callParams": [
                            {
                                "name": "recipient",
                                "type": "address",
                                "value": "0x20e9fcecd7a4f54d0f0106929f3bacb11e889992"
                            },
                            {
                                "decimalAvailable": true,
                                "name": "amount",
                                "type": "uint256",
                                "value": "1,675,347,660,000,000,000,000,000"
                            }
                        ],
                        "constructorArguments": "",
                        "name": "transfer",
                        "returnParams": [
                            {
                                "name": "",
                                "type": "bool",
                                "value": true
                            }
                        ],
                        "signature": "transfer(address,uint256)"
                    },
                    "errorInfo": "",
                    "fromAddress": "0xfe1dee06961c2bc95e674d49efaf53955abb69ca",
                    "gasUsed": 51895,
                    "id": 0,
                    "methodDecoded": true,
                    "operation": "CALL",
                    "output": "0x0000000000000000000000000000000000000000000000000000000000000001",
                    "revert": false,
                    "revertMessage": "",
                    "selector": "0xa9059cbb",
                    "status": true,
                    "value": "0"
                },
                "nodeType": 0
            },
            "1": {
                "event": {
                    "contract": "0x95ad61b0a150d79219dcf64e1e6cc01f0b64c4ce",
                    "decodedLog": {
                        "name": "Transfer",
                        "params": [
                            {
                                "name": "from",
                                "type": "address",
                                "value": "0xfe1dee06961c2bc95e674d49efaf53955abb69ca"
                            },
                            {
                                "name": "to",
                                "type": "address",
                                "value": "0x20e9fcecd7a4f54d0f0106929f3bacb11e889992"
                            },
                            {
                                "decimalAvailable": true,
                                "name": "value",
                                "type": "uint256",
                                "value": "1,675,347,660,000,000,000,000,000"
                            }
                        ],
                        "signature": "Transfer(address,address,uint256)"
                    },
                    "id": 1,
                    "logData": "0x0000000000000000000000000000000000000000000162c4c7546dac552e0000",
                    "logDecoded": true,
                    "operation": "EVENT",
                    "revert": false,
                    "status": true,
                    "topics": [
                        "0xddf252ad1be2c89b69c2b068fc378daa952ba7f163c4a11628f55a4df523b3ef",
                        "0x000000000000000000000000fe1dee06961c2bc95e674d49efaf53955abb69ca",
                        "0x00000000000000000000000020e9fcecd7a4f54d0f0106929f3bacb11e889992"
                    ]
                },
                "nodeType": 1
            }
        },
        "gasFlame": [
            {
                "children": [
                    {
                        "children": [
                            {
                                "children": [],
                                "depth": 0,
                                "name": "Initial Gas",
                                "value": 21668
                            },
                            {
                                "children": [],
                                "depth": 0,
                                "name": "Executed Gas",
                                "value": 30227
                            }
                        ],
                        "depth": -1,
                        "name": "Actual Gas Used",
                        "value": 51895
                    },
                    {
                        "children": [],
                        "depth": -1,
                        "name": "Refunded Gas",
                        "value": 0
                    }
                ],
                "depth": -2,
                "name": "Total Gas",
                "value": 51895
            }
        ],
        "isConfirmed": true,
        "mainTrace": [
            {
                "children": [
                    {
                        "children": [
                            {
                                "children": [],
                                "depth": 1,
                                "id": 1,
                                "order": 1
                            }
                        ],
                        "depth": 0,
                        "id": 0,
                        "order": 0
                    }
                ],
                "depth": -1,
                "id": -1,
                "order": -1
            }
        ],
        "mainTraceNodeCount": 2,
        "parentIdMap": {
            "0": -1,
            "1": 0
        },
        "tidyTrace": [
            {
                "children": [
                    {
                        "children": [
                            {
                                "children": [],
                                "depth": 1,
                                "id": 1,
                                "order": 1
                            }
                        ],
                        "depth": 0,
                        "id": 0,
                        "order": 0
                    }
                ],
                "depth": -1,
                "id": -1,
                "order": -1
            }
        ],
        "tidyTraceNodeCount": 2
    },
    "state_change": {
        "stateChanges": [
            {
                "address": "0x95ad61b0a150d79219dcf64e1e6cc01f0b64c4ce",
                "erc": "ERC-20",
                "slots": [
                    {
                        "current": "0x0000000000000000000000000000000000000000000da84abe52135d1672f000",
                        "key": "0x89c75d14db496e8c79012379d6fb8652c623e17f6b0336d27ff55c2d6956f811",
                        "prev": "0x0000000000000000000000000000000000000000000f0b0f85a681096ba0f000"
                    },
                    {
                        "current": "0x0000000000000000000000000000000000000000000162c4c7546dac552e0000",
                        "key": "0xf4e0bb1de76e00bc599197df714cd6bed92e6752b8581e7630e660ad315c74ea",
                        "prev": "0x0000000000000000000000000000000000000000000000000000000000000000"
                    }
                ],
                "storageVariables": [
                    {
                        "name": "_balances",
                        "type": "mapping(address => uint256)",
                        "value": {
                            "pairs": [
                                {
                                    "key": "0x20e9fcecd7a4f54d0f0106929f3bacb11e889992",
                                    "value": {
                                        "current": "1675347660000000000000000",
                                        "prev": "0",
                                        "typeTag": 1
                                    }
                                },
                                {
                                    "key": "0xfe1dee06961c2bc95e674d49efaf53955abb69ca",
                                    "value": {
                                        "current": "16510771997218840000000000",
                                        "prev": "18186119657218840000000000",
                                        "typeTag": 1
                                    }
                                }
                            ],
                            "typeTag": 4
                        }
                    }
                ]
            }
        ]
    }
}