{
    "balance_change": {
        "balanceChanges": []
    },
    "profile": {
        "basic_info": {
            "baseFee": "",
            "blockNumber": 12337436,
            "callData": "0xf0995961937c472fbdc95fe27650591871055f44b47405409957135e7fe4d2d204643b8400000000000000000000000000000000000000000000000000000000608b0d50",
            "debugEnable": true,
            "errorInfo": "",
            "eventCount": 1,
            "feeRecipient": "0x04668ec2f57cc15c381b461b9fedab5d451c8f7f",
            "formatValue": "0",
            "gasLimit": 2100000,
            "gasPrice": "40",
            "gasUsed": 53005,
            "intTxnCount": 0,
            "internalRevert": false,
            "internalRevertMessage": "",
            "isContractCreation": false,
            "isFlashloan": false,
            "maxFee": "",
            "nonce": 5748,
            "overwritedBlockNumber": -1,
            "priorityFee": "",
            "receiver": "0xb277fa7b40414464159040c8a0a0b4b5e221dca3",
            "revertMessage": "",
            "sender": "0xb9479541811331d547d692dc3b68523f64e90b57",
            "simulationEnable": true,
            "sourceTxnHash": "0x50baa3b0ec408ac5dddfde5c564d367580e8be5e105b44953242e1d20fb8bac0",
            "status": true,
            "timestamp": "2021-04-29T20:04:22Z",
            "transactionFee": "0.0021202",
            "txnHash": "0x50baa3b0ec408ac5dddfde5c564d367580e8be5e105b44953242e1d20fb8bac0",
            "txnIndex": 38,
            "type": 0,
            "value": "0"
        },
        "fund_flow": [],
        "token_infos": [
            {
                "address": "0xeeeeeeeeeeeeeeeeeeeeeeeeeeeeeeeeeeeeeeee",
                "decimals": 18
            },
            {
                "address": "0xc02aaa39b223fe8d0a0e5c4f27ead9083c756cc2",
                "decimals": 18
            }
        ]
    },
    "address_label": {
        "labels": [
            {
                "address": "0xb277fa7b40414464159040c8a0a0b4b5e221dca3",
                "label": "Notarize"
            },
            {
                "address": "0x0000000000000000000000000000000000000001",
                "label": "Precompiled"
            },
            {
                "address": "0x0000000000000000000000000000000000000002",
                "label": "Precompiled"
            },
            {
                "address": "0x0000000000000000000000000000000000000003",
                "label": "Precompiled"
            },
            {
                "address": "0x0000000000000000000000000000000000000004",
                "label": "Precompiled"
            },
            {
                "address": "0xeeeeeeeeeeeeeeeeeeeeeeeeeeeeeeeeeeeeeeee",
                "label": "Ether"
            }
        ]
    },
    "trace": {
        "accountLabels": null,
        "dataMap": {
            "-1": {
                "invocation": {
                    "address": "0xb9479541811331d547d692dc3b68523f64e90b57",
                    "callData": "",
                    "decodedMethod": null,
                    "errorInfo": "",
                    "fromAddress": "",
                    "gasUsed": 0,
                    "id": -1,
                    "methodDecoded": false,
                    "operation": "",
                    "output": "",
                    "revert": false,
                    "revertMessage": "",
                    "selector": "",
                    "status": false,
                    "value": ""
                },
                "nodeType": 0
            },
            "0": {
                "invocation": {
                    "address": "0xb277fa7b40414464159040c8a0a0b4b5e221dca3",
                    "callData": "0x937c472fbdc95fe27650591871055f44b47405409957135e7fe4d2d204643b8400000000000000000000000000000000000000000000000000000000608b0d50",
                    "decodedMethod": {
                        "callParams": [
                            {
                                "name": "_hash",
                                "type": "bytes32",
                                "value": "0x937c472fbdc95fe27650591871055f44b47405409957135e7fe4d2d204643b84"
                            },
                            {
                                "name": "_timestamp",
                                "type": "uint256",
                                "value": "1,619,725,648"
                            }
                        ],
                        "constructorArguments": "",
                        "name": "notarize",
                        "returnParams": [],
                        "signature": "notarize(bytes32,uint256)"
                    },
                    "errorInfo": "",
                    "fromAddress": "0xb9479541811331d547d692dc3b68523f64e90b57",
                    "gasUsed": 53005,
                    "id": 0,
                    "methodDecoded": true,
                    "operation": "CALL",
                    "output": "",
                    "revert": false,
                    "revertMessage": "",
                    "selector": "0xf0995961",
                    "status": true,
                    "value": "0"
                },
                "nodeType": 0
            },
            "1": {
                "event": {
                    "contract": "0xb277fa7b40414464159040c8a0a0b4b5e221dca3",
                    "decodedLog": {
                        "name": "RecordAdded",
                        "params": [
                            {
                                "name": "hash",
                                "type": "bytes32",
                                "value": "0x937c472fbdc95fe27650591871055f44b47405409957135e7fe4d2d204643b84"
                            },
                            {
                                "name": "timestamp",
                                "type": "uint256",
                                "value": "1,619,725,648"
                            }
                        ],
                        "signature": "RecordAdded(bytes32,uint256)"
                    },
                    "id": 1,
                    "logData": "0x937c472fbdc95fe27650591871055f44b47405409957135e7fe4d2d204643b8400000000000000000000000000000000000000000000000000000000608b0d50",
                    "logDecoded": true,
                    "operation": "EVENT",
                    "revert": false,
                    "status": true,
                    "topics": [
                        "0xff8a4ee3798e601fb415954573480c094847562cb9c22cc9f117d422417c28da"
                    ]
                },
                "nodeType": 1
            }
        },
        "gasFlame": [
            {
                "children": [
                    {
                        "children": [
                            {
                                "children": [],
                                "depth": 0,
                                "name": "Initial Gas",
                                "value": 21752
                            },
                            {
                                "children": [],
                                "depth": 0,
                                "name": "Executed Gas",
                                "value": 31253
                            }
                        ],
                        "depth": -1,
                        "name": "Actual Gas Used",
                        "value": 53005
                    },
                    {
                        "children": [],
                        "depth": -1,
                        "name": "Refunded Gas",
                        "value": 0
                    }
                ],
                "depth": -2,
                "name": "Total Gas",
                "value": 53005
            }
        ],
        "isConfirmed": true,
        "mainTrace": [
            {
                "children": [
                    {
                        "children": [
                            {
                                "children": [],
                                "depth": 1,
                                "id": 1,
                                "order": 1
                            }
                        ],
                        "depth": 0,
                        "id": 0,
                        "order": 0
                    }
                ],
                "depth": -1,
                "id": -1,
                "order": -1
            }
        ],
        "mainTraceNodeCount": 2,
        "parentIdMap": {
            "0": -1,
            "1": 0
        },
        "tidyTrace": [
            {
                "children": [
                    {
                        "children": [
                            {
                                "children": [],
                                "depth": 1,
                                "id": 1,
                                "order": 1
                            }
                        ],
                        "depth": 0,
                        "id": 0,
                        "order": 0
                    }
                ],
                "depth": -1,
                "id": -1,
                "order": -1
            }
        ],
        "tidyTraceNodeCount": 2
    },
    "state_change": {
        "stateChanges": [
            {
                "address": "0xb277fa7b40414464159040c8a0a0b4b5e221dca3",
                "erc": "",
                "slots": [
                    {
                        "current": "0x0000000000000000000000000000000000000000000000000000000000001672",
                        "key": "0x0000000000000000000000000000000000000000000000000000000000000002",
                        "prev": "0x0000000000000000000000000000000000000000000000000000000000001671"
                    },
                    {
                        "current": "0x00000000000000000000000000000000000000000000000000000000608b0d50",
                        "key": "0x8c76e941264ab694619a4be5952839cc70d8de4a0482b0d9b56c411008b87c9a",
                        "prev": "0x0000000000000000000000000000000000000000000000000000000000000000"
                    }
                ],
                "storageVariables": [
                    {
                        "name": "notaryBook",
                        "type": "mapping(bytes32 => uint256)",
                        "value": {
                            "pairs": [
                                {
                                    "key": "0x937c472fbdc95fe27650591871055f44b47405409957135e7fe4d2d204643b84",
                                    "value": {
                                        "current": "1619725648",
                                        "prev": "0",
                                        "typeTag": 1
                                    }
                                }
                            ],
                            "typeTag": 4
                        }
                    },
                    {
                        "name": "notaryBookSize",
                        "type": "uint256",
                        "value": {
                            "current": "5746",
                            "prev": "5745",
                            "typeTag": 1
                        }
                    }
                ]
            }
        ]
    }
}