{
    "balance_change": {
        "balanceChanges": []
    },
    "profile": {
        "basic_info": {
            "baseFee": "",
            "blockNumber": 4379975,
            "callData": "0x095ea7b30000000000000000000000008d12a197cb00d4747a1fe03395095ce2a5cc6819000000000000000000000000000000000000000000000000000000191255335f",
            "debugEnable": true,
            "errorInfo": "",
            "eventCount": 2,
            "feeRecipient": "0x5a0b54d5dc17e0aadc383d2db43b0a0d3e029c4c",
            "formatValue": "0",
            "gasLimit": 250000,
            "gasPrice": "10",
            "gasUsed": 71623,
            "intTxnCount": 7,
            "internalRevert": false,
            "internalRevertMessage": "",
            "isContractCreation": false,
            "isFlashloan": false,
            "maxFee": "",
            "nonce": 75,
            "overwritedBlockNumber": -1,
            "priorityFee": "",
            "receiver": "0x226bb599a12c826476e3a771454697ea52e9e220",
            "revertMessage": "",
            "sender": "0x3655f0eb5edc49d7be2b3338a3fd641dbdc53798",
            "simulationEnable": true,
            "sourceTxnHash": "0x500bf70a90bd285650e561adf7166aa4eb74e6093708c036a67eb7582388f840",
            "status": true,
            "timestamp": "2017-10-18T00:05:27Z",
            "transactionFee": "0.00071623",
            "txnHash": "0x500bf70a90bd285650e561adf7166aa4eb74e6093708c036a67eb7582388f840",
            "txnIndex": 137,
            "type": 0,
            "value": "0"
        },
        "fund_flow": [],
        "token_infos": [
            {
                "address": "0xc02aaa39b223fe8d0a0e5c4f27ead9083c756cc2",
                "decimals": 18
            },
            {
                "address": "0xeeeeeeeeeeeeeeeeeeeeeeeeeeeeeeeeeeeeeeee",
                "decimals": 18
            }
        ]
    },
    "address_label": {
        "labels": [
            {
                "address": "0x226bb599a12c826476e3a771454697ea52e9e220",
                "label": "Propy Token"
            },
            {
                "address": "0x4e8703a59fec01a97d4d2d76271e4f086dbb52fc",
                "label": "MultiAssetEmitter"
            },
            {
                "address": "0x0000000000000000000000000000000000000001",
                "label": "Precompiled"
            },
            {
                "address": "0x0000000000000000000000000000000000000004",
                "label": "Precompiled"
            },
            {
                "address": "0xeeeeeeeeeeeeeeeeeeeeeeeeeeeeeeeeeeeeeeee",
                "label": "Ether"
            },
            {
                "address": "0x60bf91ac87fee5a78c28f7b67701fbcfa79c18ec",
                "label": "historyEToken"
            },
            {
                "address": "0x331d077518216c07c87f4f18ba64cd384c411f84",
                "label": "EToken2"
            },
            {
                "address": "0x8d342b9474033a8ed04ff1ab654c64cf5b71daa1",
                "label": "AssetWithWhitelist"
            },
            {
                "address": "0x0000000000000000000000000000000000000002",
                "label": "Precompiled"
            },
            {
                "address": "0x0000000000000000000000000000000000000003",
                "label": "Precompiled"
            },
            {
                "address": "0x8d12a197cb00d4747a1fe03395095ce2a5cc6819",
                "label": "EtherDelta"
            }
        ]
    },
    "trace": {
        "accountLabels": null,
        "dataMap": {
            "-1": {
                "invocation": {
                    "address": "0x3655f0eb5edc49d7be2b3338a3fd641dbdc53798",
                    "callData": "",
                    "decodedMethod": null,
                    "errorInfo": "",
                    "fromAddress": "",
                    "gasUsed": 0,
                    "id": -1,
                    "methodDecoded": false,
                    "operation": "",
                    "output": "",
                    "revert": false,
                    "revertMessage": "",
                    "selector": "",
                    "status": false,
                    "value": ""
                },
                "nodeType": 0
            },
            "0": {
                "invocation": {
                    "address": "0x226bb599a12c826476e3a771454697ea52e9e220",
                    "callData": "0x0000000000000000000000008d12a197cb00d4747a1fe03395095ce2a5cc6819000000000000000000000000000000000000000000000000000000191255335f",
                    "decodedMethod": {
                        "callParams": [
                            {
                                "name": "_spender",
                                "type": "address",
                                "value": "0x8d12a197cb00d4747a1fe03395095ce2a5cc6819"
                            },
                            {
                                "decimalAvailable": true,
                                "name": "_value",
                                "type": "uint256",
                                "value": "107,681,755,999"
                            }
                        ],
                        "constructorArguments": "",
                        "name": "approve",
                        "returnParams": [
                            {
                                "name": "",
                                "type": "bool",
                                "value": true
                            }
                        ],
                        "signature": "approve(address,uint256)"
                    },
                    "errorInfo": "",
                    "fromAddress": "0x3655f0eb5edc49d7be2b3338a3fd641dbdc53798",
                    "gasUsed": 71623,
                    "id": 0,
                    "methodDecoded": true,
                    "operation": "CALL",
                    "output": "0x0000000000000000000000000000000000000000000000000000000000000001",
                    "revert": false,
                    "revertMessage": "",
                    "selector": "0x095ea7b3",
                    "status": true,
                    "value": "0"
                },
                "nodeType": 0
            },
            "1": {
                "invocation": {
                    "address": "0x8d342b9474033a8ed04ff1ab654c64cf5b71daa1",
                    "callData": "0x0000000000000000000000008d12a197cb00d4747a1fe03395095ce2a5cc6819000000000000000000000000000000000000000000000000000000191255335f0000000000000000000000003655f0eb5edc49d7be2b3338a3fd641dbdc53798",
                    "decodedMethod": {
                        "callParams": [
                            {
                                "name": "_spender",
                                "type": "address",
                                "value": "0x8d12a197cb00d4747a1fe03395095ce2a5cc6819"
                            },
                            {
                                "name": "_value",
                                "type": "uint256",
                                "value": "107,681,755,999"
                            },
                            {
                                "name": "_sender",
                                "type": "address",
                                "value": "0x3655f0eb5edc49d7be2b3338a3fd641dbdc53798"
                            }
                        ],
                        "constructorArguments": "",
                        "name": "_performApprove",
                        "returnParams": [
                            {
                                "name": "",
                                "type": "bool",
                                "value": true
                            }
                        ],
                        "signature": "_performApprove(address,uint256,address)"
                    },
                    "errorInfo": "",
                    "fromAddress": "0x226bb599a12c826476e3a771454697ea52e9e220",
                    "gasUsed": 45391,
                    "id": 1,
                    "methodDecoded": true,
                    "operation": "CALL",
                    "output": "0x0000000000000000000000000000000000000000000000000000000000000001",
                    "revert": false,
                    "revertMessage": "",
                    "selector": "0xe34f7137",
                    "status": true,
                    "value": "0"
                },
                "nodeType": 0
            },
            "2": {
                "invocation": {
                    "address": "0x226bb599a12c826476e3a771454697ea52e9e220",
                    "callData": "0x0000000000000000000000008d12a197cb00d4747a1fe03395095ce2a5cc6819000000000000000000000000000000000000000000000000000000191255335f0000000000000000000000003655f0eb5edc49d7be2b3338a3fd641dbdc53798",
                    "decodedMethod": {
                        "callParams": [
                            {
                                "name": "_spender",
                                "type": "address",
                                "value": "0x8d12a197cb00d4747a1fe03395095ce2a5cc6819"
                            },
                            {
                                "name": "_value",
                                "type": "uint256",
                                "value": "107,681,755,999"
                            },
                            {
                                "name": "_sender",
                                "type": "address",
                                "value": "0x3655f0eb5edc49d7be2b3338a3fd641dbdc53798"
                            }
                        ],
                        "constructorArguments": "",
                        "name": "_forwardApprove",
                        "returnParams": [
                            {
                                "name": "",
                                "type": "bool",
                                "value": true
                            }
                        ],
                        "signature": "_forwardApprove(address,uint256,address)"
                    },
                    "errorInfo": "",
                    "fromAddress": "0x8d342b9474033a8ed04ff1ab654c64cf5b71daa1",
                    "gasUsed": 42725,
                    "id": 2,
                    "methodDecoded": true,
                    "operation": "CALL",
                    "output": "0x0000000000000000000000000000000000000000000000000000000000000001",
                    "revert": false,
                    "revertMessage": "",
                    "selector": "0x7bcdc2f0",
                    "status": true,
                    "value": "0"
                },
                "nodeType": 0
            },
            "3": {
                "invocation": {
                    "address": "0x331d077518216c07c87f4f18ba64cd384c411f84",
                    "callData": "0x0000000000000000000000008d12a197cb00d4747a1fe03395095ce2a5cc6819000000000000000000000000000000000000000000000000000000191255335f50524f50590000000000000000000000000000000000000000000000000000000000000000000000000000003655f0eb5edc49d7be2b3338a3fd641dbdc53798",
                    "decodedMethod": {
                        "callParams": [
                            {
                                "name": "_spender",
                                "type": "address",
                                "value": "0x8d12a197cb00d4747a1fe03395095ce2a5cc6819"
                            },
                            {
                                "name": "_value",
                                "type": "uint256",
                                "value": "107,681,755,999"
                            },
                            {
                                "name": "_symbol",
                                "type": "bytes32",
                                "value": "0x50524f5059000000000000000000000000000000000000000000000000000000"
                            },
                            {
                                "name": "_sender",
                                "type": "address",
                                "value": "0x3655f0eb5edc49d7be2b3338a3fd641dbdc53798"
                            }
                        ],
                        "constructorArguments": "",
                        "name": "proxyApprove",
                        "returnParams": [
                            {
                                "name": "",
                                "type": "bool",
                                "value": true
                            }
                        ],
                        "signature": "proxyApprove(address,uint256,bytes32,address)"
                    },
                    "errorInfo": "",
                    "fromAddress": "0x226bb599a12c826476e3a771454697ea52e9e220",
                    "gasUsed": 38895,
                    "id": 3,
                    "methodDecoded": true,
                    "operation": "CALL",
                    "output": "0x0000000000000000000000000000000000000000000000000000000000000001",
                    "revert": false,
                    "revertMessage": "",
                    "selector": "0x14712e2f",
                    "status": true,
                    "value": "0"
                },
                "nodeType": 0
            },
            "4": {
                "invocation": {
                    "address": "0x60bf91ac87fee5a78c28f7b67701fbcfa79c18ec",
                    "callData": "0x0000000000000000000000003655f0eb5edc49d7be2b3338a3fd641dbdc537980000000000000000000000008d12a197cb00d4747a1fe03395095ce2a5cc681950524f5059000000000000000000000000000000000000000000000000000000000000000000000000000000000000000000000000000000000000191255335f",
                    "decodedMethod": {
                        "callParams": [
                            {
                                "name": "_from",
                                "type": "address",
                                "value": "0x3655f0eb5edc49d7be2b3338a3fd641dbdc53798"
                            },
                            {
                                "name": "_spender",
                                "type": "address",
                                "value": "0x8d12a197cb00d4747a1fe03395095ce2a5cc6819"
                            },
                            {
                                "name": "_symbol",
                                "type": "bytes32",
                                "value": "0x50524f5059000000000000000000000000000000000000000000000000000000"
                            },
                            {
                                "name": "_value",
                                "type": "uint256",
                                "value": "107,681,755,999"
                            }
                        ],
                        "constructorArguments": "",
                        "name": "emitApprove",
                        "returnParams": [],
                        "signature": "emitApprove(address,address,bytes32,uint256)"
                    },
                    "errorInfo": "",
                    "fromAddress": "0x331d077518216c07c87f4f18ba64cd384c411f84",
                    "gasUsed": 6604,
                    "id": 4,
                    "methodDecoded": true,
                    "operation": "CALL",
                    "output": "",
                    "revert": false,
                    "revertMessage": "",
                    "selector": "0xd54c8c87",
                    "status": true,
                    "value": "0"
                },
                "nodeType": 0
            },
            "5": {
                "invocation": {
                    "address": "0x4e8703a59fec01a97d4d2d76271e4f086dbb52fc",
                    "callData": "0x0000000000000000000000003655f0eb5edc49d7be2b3338a3fd641dbdc537980000000000000000000000008d12a197cb00d4747a1fe03395095ce2a5cc681950524f5059000000000000000000000000000000000000000000000000000000000000000000000000000000000000000000000000000000000000191255335f",
                    "decodedMethod": {
                        "callParams": [
                            {
                                "name": "_from",
                                "type": "address",
                                "value": "0x3655f0eb5edc49d7be2b3338a3fd641dbdc53798"
                            },
                            {
                                "name": "_spender",
                                "type": "address",
                                "value": "0x8d12a197cb00d4747a1fe03395095ce2a5cc6819"
                            },
                            {
                                "name": "_symbol",
                                "type": "bytes32",
                                "value": "0x50524f5059000000000000000000000000000000000000000000000000000000"
                            },
                            {
                                "name": "_value",
                                "type": "uint256",
                                "value": "107,681,755,999"
                            }
                        ],
                        "constructorArguments": "",
                        "name": "emitApprove",
                        "returnParams": [],
                        "signature": "emitApprove(address,address,bytes32,uint256)"
                    },
                    "errorInfo": "",
                    "fromAddress": "0x60bf91ac87fee5a78c28f7b67701fbcfa79c18ec",
                    "gasUsed": 4462,
                    "id": 5,
                    "methodDecoded": true,
                    "operation": "DELEGATECALL",
                    "output": "",
                    "revert": false,
                    "revertMessage": "",
                    "selector": "0xd54c8c87",
                    "status": true,
                    "value": "0"
                },
                "nodeType": 0
            },
            "6": {
                "invocation": {
                    "address": "0x60bf91ac87fee5a78c28f7b67701fbcfa79c18ec",
                    "callData": "0x000000000000000000000000331d077518216c07c87f4f18ba64cd384c411f84",
                    "decodedMethod": {
                        "callParams": [
                            {
                                "name": "",
                                "type": "address",
                                "value": "0x331d077518216c07c87f4f18ba64cd384c411f84"
                            }
                        ],
                        "constructorArguments": "",
                        "name": "versions",
                        "returnParams": [
                            {
                                "name": "",
                                "type": "uint256",
                                "value": "2"
                            }
                        ],
                        "signature": "versions(address)"
                    },
                    "errorInfo": "",
                    "fromAddress": "0x60bf91ac87fee5a78c28f7b67701fbcfa79c18ec",
                    "gasUsed": 559,
                    "id": 6,
                    "methodDecoded": true,
                    "operation": "CALL",
                    "output": "0x0000000000000000000000000000000000000000000000000000000000000002",
                    "revert": false,
                    "revertMessage": "",
                    "selector": "0x488725a0",
                    "status": true,
                    "value": "0"
                },
                "nodeType": 0
            },
            "7": {
                "event": {
                    "contract": "0x60bf91ac87fee5a78c28f7b67701fbcfa79c18ec",
                    "decodedLog": {
                        "name": "Approve",
                        "params": [
                            {
                                "name": "from",
                                "type": "address",
                                "value": "0x3655f0eb5edc49d7be2b3338a3fd641dbdc53798"
                            },
                            {
                                "name": "spender",
                                "type": "address",
                                "value": "0x8d12a197cb00d4747a1fe03395095ce2a5cc6819"
                            },
                            {
                                "name": "symbol",
                                "type": "bytes32",
                                "value": "0x50524f5059000000000000000000000000000000000000000000000000000000"
                            },
                            {
                                "name": "value",
                                "type": "uint256",
                                "value": "107,681,755,999"
                            },
                            {
                                "name": "version",
                                "type": "uint256",
                                "value": "2"
                            }
                        ],
                        "signature": "Approve(address,address,bytes32,uint256,uint256)"
                    },
                    "id": 7,
                    "logData": "0x000000000000000000000000000000000000000000000000000000191255335f0000000000000000000000000000000000000000000000000000000000000002",
                    "logDecoded": true,
                    "operation": "EVENT",
                    "revert": false,
                    "status": true,
                    "topics": [
                        "0x389385fc5633d833d54b67ef0b0b6f5d82b17f93ecc47a4912173ddbb63e3745",
                        "0x0000000000000000000000003655f0eb5edc49d7be2b3338a3fd641dbdc53798",
                        "0x0000000000000000000000008d12a197cb00d4747a1fe03395095ce2a5cc6819",
                        "0x50524f5059000000000000000000000000000000000000000000000000000000"
                    ]
                },
                "nodeType": 1
            },
            "8": {
                "invocation": {
                    "address": "0x226bb599a12c826476e3a771454697ea52e9e220",
                    "callData": "0x0000000000000000000000003655f0eb5edc49d7be2b3338a3fd641dbdc537980000000000000000000000008d12a197cb00d4747a1fe03395095ce2a5cc6819000000000000000000000000000000000000000000000000000000191255335f",
                    "decodedMethod": {
                        "callParams": [
                            {
                                "name": "_from",
                                "type": "address",
                                "value": "0x3655f0eb5edc49d7be2b3338a3fd641dbdc53798"
                            },
                            {
                                "name": "_spender",
                                "type": "address",
                                "value": "0x8d12a197cb00d4747a1fe03395095ce2a5cc6819"
                            },
                            {
                                "name": "_value",
                                "type": "uint256",
                                "value": "107,681,755,999"
                            }
                        ],
                        "constructorArguments": "",
                        "name": "emitApprove",
                        "returnParams": [],
                        "signature": "emitApprove(address,address,uint256)"
                    },
                    "errorInfo": "",
                    "fromAddress": "0x331d077518216c07c87f4f18ba64cd384c411f84",
                    "gasUsed": 2727,
                    "id": 8,
                    "methodDecoded": true,
                    "operation": "CALL",
                    "output": "",
                    "revert": false,
                    "revertMessage": "",
                    "selector": "0x23385089",
                    "status": true,
                    "value": "0"
                },
                "nodeType": 0
            },
            "9": {
                "event": {
                    "contract": "0x226bb599a12c826476e3a771454697ea52e9e220",
                    "decodedLog": {
                        "name": "Approval",
                        "params": [
                            {
                                "name": "from",
                                "type": "address",
                                "value": "0x3655f0eb5edc49d7be2b3338a3fd641dbdc53798"
                            },
                            {
                                "name": "spender",
                                "type": "address",
                                "value": "0x8d12a197cb00d4747a1fe03395095ce2a5cc6819"
                            },
                            {
                                "decimalAvailable": true,
                                "name": "value",
                                "type": "uint256",
                                "value": "107,681,755,999"
                            }
                        ],
                        "signature": "Approval(address,address,uint256)"
                    },
                    "id": 9,
                    "logData": "0x000000000000000000000000000000000000000000000000000000191255335f",
                    "logDecoded": true,
                    "operation": "EVENT",
                    "revert": false,
                    "status": true,
                    "topics": [
                        "0x8c5be1e5ebec7d5bd14f71427d1e84f3dd0314c0f7b2291e5b200ac8c7c3b925",
                        "0x0000000000000000000000003655f0eb5edc49d7be2b3338a3fd641dbdc53798",
                        "0x0000000000000000000000008d12a197cb00d4747a1fe03395095ce2a5cc6819"
                    ]
                },
                "nodeType": 1
            }
        },
        "gasFlame": [
            {
                "children": [
                    {
                        "children": [
                            {
                                "children": [],
                                "depth": 0,
                                "name": "Initial Gas",
                                "value": 23064
                            },
                            {
                                "children": [
                                    {
                                        "children": [
                                            {
                                                "children": [
                                                    {
                                                        "children": [
                                                            {
                                                                "children": [
                                                                    {
                                                                        "children": [
                                                                            {
                                                                                "children": [],
                                                                                "depth": 6,
                                                                                "name": "versions",
                                                                                "value": 559
                                                                            }
                                                                        ],
                                                                        "depth": 5,
                                                                        "name": "emitApprove",
                                                                        "value": 4462
                                                                    }
                                                                ],
                                                                "depth": 4,
                                                                "name": "emitApprove",
                                                                "value": 6604
                                                            },
                                                            {
                                                                "children": [],
                                                                "depth": 4,
                                                                "name": "emitApprove",
                                                                "value": 2727
                                                            }
                                                        ],
                                                        "depth": 3,
                                                        "name": "proxyApprove",
                                                        "value": 38895
                                                    }
                                                ],
                                                "depth": 2,
                                                "name": "_forwardApprove",
                                                "value": 42725
                                            }
                                        ],
                                        "depth": 1,
                                        "name": "_performApprove",
                                        "value": 45391
                                    }
                                ],
                                "depth": 0,
                                "name": "Executed Gas",
                                "value": 48559
                            }
                        ],
                        "depth": -1,
                        "name": "Actual Gas Used",
                        "value": 71623
                    },
                    {
                        "children": [],
                        "depth": -1,
                        "name": "Refunded Gas",
                        "value": 0
                    }
                ],
                "depth": -2,
                "name": "Total Gas",
                "value": 71623
            }
        ],
        "isConfirmed": true,
        "mainTrace": [
            {
                "children": [
                    {
                        "children": [
                            {
                                "children": [
                                    {
                                        "children": [
                                            {
                                                "children": [
                                                    {
                                                        "children": [
                                                            {
                                                                "children": [
                                                                    {
                                                                        "children": [],
                                                                        "depth": 6,
                                                                        "id": 6,
                                                                        "order": 6
                                                                    },
                                                                    {
                                                                        "children": [],
                                                                        "depth": 6,
                                                                        "id": 7,
                                                                        "order": 7
                                                                    }
                                                                ],
                                                                "depth": 5,
                                                                "id": 5,
                                                                "order": 5
                                                            }
                                                        ],
                                                        "depth": 4,
                                                        "id": 4,
                                                        "order": 4
                                                    },
                                                    {
                                                        "children": [
                                                            {
                                                                "children": [],
                                                                "depth": 5,
                                                                "id": 9,
                                                                "order": 9
                                                            }
                                                        ],
                                                        "depth": 4,
                                                        "id": 8,
                                                        "order": 8
                                                    }
                                                ],
                                                "depth": 3,
                                                "id": 3,
                                                "order": 3
                                            }
                                        ],
                                        "depth": 2,
                                        "id": 2,
                                        "order": 2
                                    }
                                ],
                                "depth": 1,
                                "id": 1,
                                "order": 1
                            }
                        ],
                        "depth": 0,
                        "id": 0,
                        "order": 0
                    }
                ],
                "depth": -1,
                "id": -1,
                "order": -1
            }
        ],
        "mainTraceNodeCount": 10,
        "parentIdMap": {
            "0": -1,
            "1": 0,
            "2": 1,
            "3": 2,
            "4": 3,
            "5": 4,
            "6": 5,
            "7": 5,
            "8": 3,
            "9": 8
        },
        "tidyTrace": [
            {
                "children": [
                    {
                        "children": [
                            {
                                "children": [
                                    {
                                        "children": [
                                            {
                                                "children": [
                                                    {
                                                        "children": [
                                                            {
                                                                "children": [
                                                                    {
                                                                        "children": [],
                                                                        "depth": 6,
                                                                        "id": 6,
                                                                        "order": 6
                                                                    },
                                                                    {
                                                                        "children": [],
                                                                        "depth": 6,
                                                                        "id": 7,
                                                                        "order": 7
                                                                    }
                                                                ],
                                                                "depth": 5,
                                                                "id": 5,
                                                                "order": 5
                                                            }
                                                        ],
                                                        "depth": 4,
                                                        "id": 4,
                                                        "order": 4
                                                    },
                                                    {
                                                        "children": [
                                                            {
                                                                "children": [],
                                                                "depth": 5,
                                                                "id": 9,
                                                                "order": 9
                                                            }
                                                        ],
                                                        "depth": 4,
                                                        "id": 8,
                                                        "order": 8
                                                    }
                                                ],
                                                "depth": 3,
                                                "id": 3,
                                                "order": 3
                                            }
                                        ],
                                        "depth": 2,
                                        "id": 2,
                                        "order": 2
                                    }
                                ],
                                "depth": 1,
                                "id": 1,
                                "order": 1
                            }
                        ],
                        "depth": 0,
                        "id": 0,
                        "order": 0
                    }
                ],
                "depth": -1,
                "id": -1,
                "order": -1
            }
        ],
        "tidyTraceNodeCount": 10
    },
    "state_change": {
        "stateChanges": [
            {
                "address": "0x331d077518216c07c87f4f18ba64cd384c411f84",
                "erc": "",
                "slots": [
                    {
                        "current": "0x000000000000000000000000000000000000000000000000000000191255335f",
                        "key": "0x9125bde25a3fe59f1dbc02cc23f189011d8568eb1f569986e45d9f4356fbbc94",
                        "prev": "0x0000000000000000000000000000000000000000000000000000000000000000"
                    }
                ],
                "storageVariables": []
            }
        ]
    }
}