{
    "balance_change": {
        "balanceChanges": [
            {
                "account": "0xdff2aea378e41632e45306a6de26a7e0fd93ab07",
                "assets": [
                    {
                        "address": "0xeeeeeeeeeeeeeeeeeeeeeeeeeeeeeeeeeeeeeeee",
                        "amount": "1",
                        "iconUrl": "https://assets.blocksec.com/image/1663669189317-3.png",
                        "isERC1155": false,
                        "isERC721": false,
                        "sign": false,
                        "value": "2606.536458"
                    }
                ]
            },
            {
                "account": "0x66b416a3114a737f0353dc74d1e12a7e23f686f9",
                "assets": [
                    {
                        "address": "0xeeeeeeeeeeeeeeeeeeeeeeeeeeeeeeeeeeeeeeee",
                        "amount": "1",
                        "iconUrl": "https://assets.blocksec.com/image/1663669189317-3.png",
                        "isERC1155": false,
                        "isERC721": false,
                        "sign": true,
                        "value": "2606.536458"
                    }
                ]
            }
        ]
    },
    "profile": {
        "basic_info": {
            "baseFee": "110.954040324",
            "blockNumber": 14108878,
            "callData": "0x6a76120200000000000000000000000066b416a3114a737f0353dc74d1e12a7e23f686f90000000000000000000000000000000000000000000000000de0b6b3a7640000000000000000000000000000000000000000000000000000000000000000014000000000000000000000000000000000000000000000000000000000000000000000000000000000000000000000000000000000000000000000000000000000000000000000000000000000000000000000000000000000000000000000000000000000000000000000000000000000000000000000000000000000000000000000000000000000000000000000000000000000000000000000000000000000000000000000000000000000000000000000000000000000000000000000000000000000000000000000000000000000000000000000000000000000000001600000000000000000000000000000000000000000000000000000000000000000000000000000000000000000000000000000000000000000000000000000008253805fabbbbabef6cca525fcb864d0d3cc95faa44fa01097e61b9f71058e2b1e574aa479e4b29e56ca5cb37f01f3467f3ba01f261c89dcf098f9cb7c7e2a94151f0000000000000000000000009b8b04b6f82cd5e1dae58ca3614d445f93defc5c000000000000000000000000000000000000000000000000000000000000000001000000000000000000000000000000000000000000000000000000000000",
            "debugEnable": true,
            "errorInfo": "",
            "eventCount": 1,
            "feeRecipient": "0xea674fdde714fd979de3edf0f56aa9716b898ec8",
            "formatValue": "0",
            "gasLimit": 63128,
            "gasPrice": "113",
            "gasUsed": 62082,
            "intTxnCount": 3,
            "internalRevert": false,
            "internalRevertMessage": "",
            "isContractCreation": false,
            "isFlashloan": false,
            "maxFee": "113",
            "nonce": 44,
            "overwritedBlockNumber": -1,
            "priorityFee": "2.5",
            "receiver": "0xdff2aea378e41632e45306a6de26a7e0fd93ab07",
            "revertMessage": "",
            "sender": "0x9b8b04b6f82cd5e1dae58ca3614d445f93defc5c",
            "simulationEnable": true,
            "sourceTxnHash": "0x5135e5cc3735b9e2b14ca5d10aaf188fd4d1dad342347e9e05313855cbd7ddf8",
            "status": true,
            "timestamp": "2022-01-30T18:45:45Z",
            "transactionFee": "0.007015266",
            "txnHash": "0x5135e5cc3735b9e2b14ca5d10aaf188fd4d1dad342347e9e05313855cbd7ddf8",
            "txnIndex": 65,
            "type": 2,
            "value": "0"
        },
        "fund_flow": [
            {
                "amount": "1",
                "from": "0xdff2aea378e41632e45306a6de26a7e0fd93ab07",
                "id": 1,
                "isERC1155": false,
                "isERC721": false,
                "isReverted": false,
                "order": 1,
                "to": "0x66b416a3114a737f0353dc74d1e12a7e23f686f9",
                "token": "0xeeeeeeeeeeeeeeeeeeeeeeeeeeeeeeeeeeeeeeee"
            }
        ],
        "token_infos": [
            {
                "address": "0xc02aaa39b223fe8d0a0e5c4f27ead9083c756cc2",
                "decimals": 18
            },
            {
                "address": "0xeeeeeeeeeeeeeeeeeeeeeeeeeeeeeeeeeeeeeeee",
                "decimals": 18
            }
        ]
    },
    "address_label": {
        "labels": [
            {
                "address": "0x0000000000000000000000000000000000000004",
                "label": "Precompiled"
            },
            {
                "address": "0xeeeeeeeeeeeeeeeeeeeeeeeeeeeeeeeeeeeeeeee",
                "label": "Ether"
            },
            {
                "address": "0xd9db270c1b5e3bd161e8c8503c55ceabee709552",
                "label": "Safe: Singleton 1.3.0"
            },
            {
                "address": "0x0000000000000000000000000000000000000000",
                "label": "Null Address"
            },
            {
                "address": "0xdff2aea378e41632e45306a6de26a7e0fd93ab07",
                "label": "Silo: Treasury"
            },
            {
                "address": "0x0000000000000000000000000000000000000001",
                "label": "Precompiled"
            },
            {
                "address": "0x0000000000000000000000000000000000000002",
                "label": "Precompiled"
            },
            {
                "address": "0x0000000000000000000000000000000000000003",
                "label": "Precompiled"
            }
        ]
    },
    "trace": {
        "accountLabels": null,
        "dataMap": {
            "-1": {
                "invocation": {
                    "address": "0x9b8b04b6f82cd5e1dae58ca3614d445f93defc5c",
                    "callData": "",
                    "decodedMethod": null,
                    "errorInfo": "",
                    "fromAddress": "",
                    "gasUsed": 0,
                    "id": -1,
                    "methodDecoded": false,
                    "operation": "",
                    "output": "",
                    "revert": false,
                    "revertMessage": "",
                    "selector": "",
                    "status": false,
                    "value": ""
                },
                "nodeType": 0
            },
            "0": {
                "invocation": {
                    "address": "0xdff2aea378e41632e45306a6de26a7e0fd93ab07",
                    "callData": "0x00000000000000000000000066b416a3114a737f0353dc74d1e12a7e23f686f90000000000000000000000000000000000000000000000000de0b6b3a7640000000000000000000000000000000000000000000000000000000000000000014000000000000000000000000000000000000000000000000000000000000000000000000000000000000000000000000000000000000000000000000000000000000000000000000000000000000000000000000000000000000000000000000000000000000000000000000000000000000000000000000000000000000000000000000000000000000000000000000000000000000000000000000000000000000000000000000000000000000000000000000000000000000000000000000000000000000000000000000000000000000000000000000000000000000001600000000000000000000000000000000000000000000000000000000000000000000000000000000000000000000000000000000000000000000000000000008253805fabbbbabef6cca525fcb864d0d3cc95faa44fa01097e61b9f71058e2b1e574aa479e4b29e56ca5cb37f01f3467f3ba01f261c89dcf098f9cb7c7e2a94151f0000000000000000000000009b8b04b6f82cd5e1dae58ca3614d445f93defc5c000000000000000000000000000000000000000000000000000000000000000001000000000000000000000000000000000000000000000000000000000000",
                    "decodedMethod": {
                        "callParams": [
                            {
                                "name": "to",
                                "type": "address",
                                "value": "0x66b416a3114a737f0353dc74d1e12a7e23f686f9"
                            },
                            {
                                "name": "value",
                                "type": "uint256",
                                "value": "1,000,000,000,000,000,000"
                            },
                            {
                                "name": "data",
                                "type": "bytes",
                                "value": "0x"
                            },
                            {
                                "name": "operation",
                                "type": "uint8",
                                "value": "0"
                            },
                            {
                                "name": "safeTxGas",
                                "type": "uint256",
                                "value": "0"
                            },
                            {
                                "name": "baseGas",
                                "type": "uint256",
                                "value": "0"
                            },
                            {
                                "name": "gasPrice",
                                "type": "uint256",
                                "value": "0"
                            },
                            {
                                "name": "gasToken",
                                "type": "address",
                                "value": "0x0000000000000000000000000000000000000000"
                            },
                            {
                                "name": "refundReceiver",
                                "type": "address",
                                "value": "0x0000000000000000000000000000000000000000"
                            },
                            {
                                "name": "signatures",
                                "type": "bytes",
                                "value": "0x53805fabbbbabef6cca525fcb864d0d3cc95faa44fa01097e61b9f71058e2b1e574aa479e4b29e56ca5cb37f01f3467f3ba01f261c89dcf098f9cb7c7e2a94151f0000000000000000000000009b8b04b6f82cd5e1dae58ca3614d445f93defc5c000000000000000000000000000000000000000000000000000000000000000001"
                            }
                        ],
                        "constructorArguments": "",
                        "name": "execTransaction",
                        "returnParams": [
                            {
                                "name": "success",
                                "type": "bool",
                                "value": true
                            }
                        ],
                        "signature": "execTransaction(address,uint256,bytes,uint8,uint256,uint256,uint256,address,address,bytes)"
                    },
                    "errorInfo": "",
                    "fromAddress": "0x9b8b04b6f82cd5e1dae58ca3614d445f93defc5c",
                    "gasUsed": 62082,
                    "id": 0,
                    "methodDecoded": true,
                    "operation": "CALL",
                    "output": "0x0000000000000000000000000000000000000000000000000000000000000001",
                    "revert": false,
                    "revertMessage": "",
                    "selector": "0x6a761202",
                    "status": true,
                    "value": "0"
                },
                "nodeType": 0
            },
            "1": {
                "invocation": {
                    "address": "0xd9db270c1b5e3bd161e8c8503c55ceabee709552",
                    "callData": "0x00000000000000000000000066b416a3114a737f0353dc74d1e12a7e23f686f90000000000000000000000000000000000000000000000000de0b6b3a7640000000000000000000000000000000000000000000000000000000000000000014000000000000000000000000000000000000000000000000000000000000000000000000000000000000000000000000000000000000000000000000000000000000000000000000000000000000000000000000000000000000000000000000000000000000000000000000000000000000000000000000000000000000000000000000000000000000000000000000000000000000000000000000000000000000000000000000000000000000000000000000000000000000000000000000000000000000000000000000000000000000000000000000000000000000001600000000000000000000000000000000000000000000000000000000000000000000000000000000000000000000000000000000000000000000000000000008253805fabbbbabef6cca525fcb864d0d3cc95faa44fa01097e61b9f71058e2b1e574aa479e4b29e56ca5cb37f01f3467f3ba01f261c89dcf098f9cb7c7e2a94151f0000000000000000000000009b8b04b6f82cd5e1dae58ca3614d445f93defc5c000000000000000000000000000000000000000000000000000000000000000001000000000000000000000000000000000000000000000000000000000000",
                    "decodedMethod": {
                        "callParams": [
                            {
                                "name": "to",
                                "type": "address",
                                "value": "0x66b416a3114a737f0353dc74d1e12a7e23f686f9"
                            },
                            {
                                "name": "value",
                                "type": "uint256",
                                "value": "1,000,000,000,000,000,000"
                            },
                            {
                                "name": "data",
                                "type": "bytes",
                                "value": "0x"
                            },
                            {
                                "name": "operation",
                                "type": "uint8",
                                "value": "0"
                            },
                            {
                                "name": "safeTxGas",
                                "type": "uint256",
                                "value": "0"
                            },
                            {
                                "name": "baseGas",
                                "type": "uint256",
                                "value": "0"
                            },
                            {
                                "name": "gasPrice",
                                "type": "uint256",
                                "value": "0"
                            },
                            {
                                "name": "gasToken",
                                "type": "address",
                                "value": "0x0000000000000000000000000000000000000000"
                            },
                            {
                                "name": "refundReceiver",
                                "type": "address",
                                "value": "0x0000000000000000000000000000000000000000"
                            },
                            {
                                "name": "signatures",
                                "type": "bytes",
                                "value": "0x53805fabbbbabef6cca525fcb864d0d3cc95faa44fa01097e61b9f71058e2b1e574aa479e4b29e56ca5cb37f01f3467f3ba01f261c89dcf098f9cb7c7e2a94151f0000000000000000000000009b8b04b6f82cd5e1dae58ca3614d445f93defc5c000000000000000000000000000000000000000000000000000000000000000001"
                            }
                        ],
                        "constructorArguments": "",
                        "name": "execTransaction",
                        "returnParams": [
                            {
                                "name": "success",
                                "type": "bool",
                                "value": true
                            }
                        ],
                        "signature": "execTransaction(address,uint256,bytes,uint8,uint256,uint256,uint256,address,address,bytes)"
                    },
                    "errorInfo": "",
                    "fromAddress": "0xdff2aea378e41632e45306a6de26a7e0fd93ab07",
                    "gasUsed": 32511,
                    "id": 1,
                    "methodDecoded": true,
                    "operation": "DELEGATECALL",
                    "output": "0x0000000000000000000000000000000000000000000000000000000000000001",
                    "revert": false,
                    "revertMessage": "",
                    "selector": "0x6a761202",
                    "status": true,
                    "value": "0"
                },
                "nodeType": 0
            },
            "2": {
                "invocation": {
                    "address": "0x0000000000000000000000000000000000000001",
                    "callData": "0xccbe470d80ab003e63d0e8bf1dd0b7709d68f90c6a477dde67caf591000000000000000000000000000000000000000000000000000000000000001b53805fabbbbabef6cca525fcb864d0d3cc95faa44fa01097e61b9f71058e2b1e574aa479e4b29e56ca5cb37f01f3467f3ba01f261c89dcf098f9cb7c7e2a9415",
                    "decodedMethod": {
                        "callParams": [
                            {
                                "name": "hash",
                                "type": "bytes32",
                                "value": "0xad54a6c4ccbe470d80ab003e63d0e8bf1dd0b7709d68f90c6a477dde67caf591"
                            },
                            {
                                "name": "v",
                                "type": "uint256",
                                "value": "27"
                            },
                            {
                                "name": "r",
                                "type": "bytes32",
                                "value": "0x53805fabbbbabef6cca525fcb864d0d3cc95faa44fa01097e61b9f71058e2b1e"
                            },
                            {
                                "name": "s",
                                "type": "bytes32",
                                "value": "0x574aa479e4b29e56ca5cb37f01f3467f3ba01f261c89dcf098f9cb7c7e2a9415"
                            }
                        ],
                        "constructorArguments": "",
                        "name": "ecrecover",
                        "returnParams": [
                            {
                                "name": "",
                                "type": "address",
                                "value": "0x66b416a3114a737f0353dc74d1e12a7e23f686f9"
                            }
                        ],
                        "signature": "ecrecover(bytes32,uint256,bytes32,bytes32)"
                    },
                    "errorInfo": "",
                    "fromAddress": "0xdff2aea378e41632e45306a6de26a7e0fd93ab07",
                    "gasUsed": 3000,
                    "id": 2,
                    "methodDecoded": true,
                    "operation": "STATICCALL",
                    "output": "0x00000000000000000000000066b416a3114a737f0353dc74d1e12a7e23f686f9",
                    "revert": false,
                    "revertMessage": "",
                    "selector": "0xad54a6c4",
                    "status": true,
                    "value": "0"
                },
                "nodeType": 0
            },
            "3": {
                "invocation": {
                    "address": "0x66b416a3114a737f0353dc74d1e12a7e23f686f9",
                    "callData": "0x",
                    "decodedMethod": null,
                    "errorInfo": "",
                    "fromAddress": "0xdff2aea378e41632e45306a6de26a7e0fd93ab07",
                    "gasUsed": 0,
                    "id": 3,
                    "methodDecoded": false,
                    "operation": "CALL",
                    "output": "",
                    "revert": false,
                    "revertMessage": "",
                    "selector": "fallback",
                    "status": true,
                    "value": "1"
                },
                "nodeType": 0
            },
            "4": {
                "event": {
                    "contract": "0xdff2aea378e41632e45306a6de26a7e0fd93ab07",
                    "decodedLog": {
                        "name": "ExecutionSuccess",
                        "params": [
                            {
                                "name": "txHash",
                                "type": "bytes32",
                                "value": "0x785296c239bd56db345b2a5ef8bc49f69c08e67bac742f7bcd17f021ec27bc00"
                            },
                            {
                                "name": "payment",
                                "type": "uint256",
                                "value": "0"
                            }
                        ],
                        "signature": "ExecutionSuccess(bytes32,uint256)"
                    },
                    "id": 4,
                    "logData": "0x785296c239bd56db345b2a5ef8bc49f69c08e67bac742f7bcd17f021ec27bc000000000000000000000000000000000000000000000000000000000000000000",
                    "logDecoded": true,
                    "operation": "EVENT",
                    "revert": false,
                    "status": true,
                    "topics": [
                        "0x442e715f626346e8c54381002da614f62bee8d27386535b2521ec8540898556e"
                    ]
                },
                "nodeType": 1
            }
        },
        "gasFlame": [
            {
                "children": [
                    {
                        "children": [
                            {
                                "children": [],
                                "depth": 0,
                                "name": "Initial Gas",
                                "value": 24644
                            },
                            {
                                "children": [
                                    {
                                        "children": [
                                            {
                                                "children": [],
                                                "depth": 2,
                                                "name": "ecrecover",
                                                "value": 3000
                                            },
                                            {
                                                "children": [],
                                                "depth": 2,
                                                "name": "fallback",
                                                "value": 0
                                            }
                                        ],
                                        "depth": 1,
                                        "name": "execTransaction",
                                        "value": 32511
                                    }
                                ],
                                "depth": 0,
                                "name": "Executed Gas",
                                "value": 37438
                            }
                        ],
                        "depth": -1,
                        "name": "Actual Gas Used",
                        "value": 62082
                    },
                    {
                        "children": [],
                        "depth": -1,
                        "name": "Refunded Gas",
                        "value": 0
                    }
                ],
                "depth": -2,
                "name": "Total Gas",
                "value": 62082
            }
        ],
        "isConfirmed": true,
        "mainTrace": [
            {
                "children": [
                    {
                        "children": [
                            {
                                "children": [
                                    {
                                        "children": [],
                                        "depth": 2,
                                        "id": 2,
                                        "order": 2
                                    },
                                    {
                                        "children": [],
                                        "depth": 2,
                                        "id": 3,
                                        "order": 3
                                    },
                                    {
                                        "children": [],
                                        "depth": 2,
                                        "id": 4,
                                        "order": 4
                                    }
                                ],
                                "depth": 1,
                                "id": 1,
                                "order": 1
                            }
                        ],
                        "depth": 0,
                        "id": 0,
                        "order": 0
                    }
                ],
                "depth": -1,
                "id": -1,
                "order": -1
            }
        ],
        "mainTraceNodeCount": 5,
        "parentIdMap": {
            "0": -1,
            "1": 0,
            "2": 1,
            "3": 1,
            "4": 1
        },
        "tidyTrace": [
            {
                "children": [
                    {
                        "children": [
                            {
                                "children": [
                                    {
                                        "children": [],
                                        "depth": 2,
                                        "id": 3,
                                        "order": 3
                                    },
                                    {
                                        "children": [],
                                        "depth": 2,
                                        "id": 4,
                                        "order": 4
                                    }
                                ],
                                "depth": 1,
                                "id": 1,
                                "order": 1
                            }
                        ],
                        "depth": 0,
                        "id": 0,
                        "order": 0
                    }
                ],
                "depth": -1,
                "id": -1,
                "order": -1
            }
        ],
        "tidyTraceNodeCount": 4
    },
    "state_change": {
        "stateChanges": [
            {
                "address": "0xdff2aea378e41632e45306a6de26a7e0fd93ab07",
                "erc": "",
                "slots": [
                    {
                        "current": "0x0000000000000000000000000000000000000000000000000000000000000032",
                        "key": "0x0000000000000000000000000000000000000000000000000000000000000005",
                        "prev": "0x0000000000000000000000000000000000000000000000000000000000000031"
                    }
                ],
                "storageVariables": [
                    {
                        "name": "nonce",
                        "type": "uint256",
                        "value": {
                            "current": "50",
                            "prev": "49",
                            "typeTag": 1
                        }
                    }
                ]
            }
        ]
    }
}