{
    "balance_change": {
        "balanceChanges": [
            {
                "account": "0x0332c502a82910e2feba2cf57c127a8b3d6c6b51",
                "assets": [
                    {
                        "address": "0x85effd6e815c6e267e7d063b54ff9120634a0a4a",
                        "amount": "2,000,000,000,000,000,000,000",
                        "iconUrl": "",
                        "isERC1155": false,
                        "isERC721": false,
                        "sign": false,
                        "value": ""
                    }
                ]
            },
            {
                "account": "0x216f7599aa742298248353175a32776f4bc3caf9",
                "assets": [
                    {
                        "address": "0x85effd6e815c6e267e7d063b54ff9120634a0a4a",
                        "amount": "2,000,000,000,000,000,000,000",
                        "iconUrl": "",
                        "isERC1155": false,
                        "isERC721": false,
                        "sign": true,
                        "value": ""
                    }
                ]
            }
        ]
    },
    "profile": {
        "basic_info": {
            "baseFee": "",
            "blockNumber": 10115014,
            "callData": "0xa9059cbb000000000000000000000000216f7599aa742298248353175a32776f4bc3caf900000000000000000000000000000000000000000000006c6b935b8bbd400000",
            "debugEnable": true,
            "errorInfo": "",
            "eventCount": 1,
            "feeRecipient": "0xea674fdde714fd979de3edf0f56aa9716b898ec8",
            "formatValue": "0",
            "gasLimit": 36105,
            "gasPrice": "30",
            "gasUsed": 36105,
            "intTxnCount": 0,
            "internalRevert": false,
            "internalRevertMessage": "",
            "isContractCreation": false,
            "isFlashloan": false,
            "maxFee": "",
            "nonce": 16,
            "overwritedBlockNumber": -1,
            "priorityFee": "",
            "receiver": "0x85effd6e815c6e267e7d063b54ff9120634a0a4a",
            "revertMessage": "",
            "sender": "0x0332c502a82910e2feba2cf57c127a8b3d6c6b51",
            "simulationEnable": true,
            "sourceTxnHash": "0x51eb35c88261bdb5a7afa696745843133d588cdd78ff21f75ceda57fdd0571d4",
            "status": true,
            "timestamp": "2020-05-22T09:54:03Z",
            "transactionFee": "0.00108315",
            "txnHash": "0x51eb35c88261bdb5a7afa696745843133d588cdd78ff21f75ceda57fdd0571d4",
            "txnIndex": 173,
            "type": 0,
            "value": "0"
        },
        "fund_flow": [
            {
                "amount": "2,000,000,000,000,000,000,000",
                "from": "0x0332c502a82910e2feba2cf57c127a8b3d6c6b51",
                "id": 1,
                "isERC1155": false,
                "isERC721": false,
                "isReverted": false,
                "order": 1,
                "to": "0x216f7599aa742298248353175a32776f4bc3caf9",
                "token": "0x85effd6e815c6e267e7d063b54ff9120634a0a4a"
            }
        ],
        "token_infos": [
            {
                "address": "0xeeeeeeeeeeeeeeeeeeeeeeeeeeeeeeeeeeeeeeee",
                "decimals": 18
            },
            {
                "address": "0xc02aaa39b223fe8d0a0e5c4f27ead9083c756cc2",
                "decimals": 18
            }
        ]
    },
    "address_label": {
        "labels": [
            {
                "address": "0x0000000000000000000000000000000000000002",
                "label": "Precompiled"
            },
            {
                "address": "0x0000000000000000000000000000000000000003",
                "label": "Precompiled"
            },
            {
                "address": "0x0000000000000000000000000000000000000004",
                "label": "Precompiled"
            },
            {
                "address": "0xeeeeeeeeeeeeeeeeeeeeeeeeeeeeeeeeeeeeeeee",
                "label": "Ether"
            },
            {
                "address": "0x85effd6e815c6e267e7d063b54ff9120634a0a4a",
                "label": "ALS"
            },
            {
                "address": "0x0000000000000000000000000000000000000001",
                "label": "Precompiled"
            }
        ]
    },
    "trace": {
        "accountLabels": null,
        "dataMap": {
            "-1": {
                "invocation": {
                    "address": "0x0332c502a82910e2feba2cf57c127a8b3d6c6b51",
                    "callData": "",
                    "decodedMethod": null,
                    "errorInfo": "",
                    "fromAddress": "",
                    "gasUsed": 0,
                    "id": -1,
                    "methodDecoded": false,
                    "operation": "",
                    "output": "",
                    "revert": false,
                    "revertMessage": "",
                    "selector": "",
                    "status": false,
                    "value": ""
                },
                "nodeType": 0
            },
            "0": {
                "invocation": {
                    "address": "0x85effd6e815c6e267e7d063b54ff9120634a0a4a",
                    "callData": "0x000000000000000000000000216f7599aa742298248353175a32776f4bc3caf900000000000000000000000000000000000000000000006c6b935b8bbd400000",
                    "decodedMethod": {
                        "callParams": [
                            {
                                "name": "to",
                                "type": "address",
                                "value": "0x216f7599aa742298248353175a32776f4bc3caf9"
                            },
                            {
                                "decimalAvailable": true,
                                "name": "tokens",
                                "type": "uint256",
                                "value": "2,000,000,000,000,000,000,000"
                            }
                        ],
                        "constructorArguments": "",
                        "name": "transfer",
                        "returnParams": [
                            {
                                "name": "success",
                                "type": "bool",
                                "value": true
                            }
                        ],
                        "signature": "transfer(address,uint256)"
                    },
                    "errorInfo": "",
                    "fromAddress": "0x0332c502a82910e2feba2cf57c127a8b3d6c6b51",
                    "gasUsed": 36105,
                    "id": 0,
                    "methodDecoded": true,
                    "operation": "CALL",
                    "output": "0x0000000000000000000000000000000000000000000000000000000000000001",
                    "revert": false,
                    "revertMessage": "",
                    "selector": "0xa9059cbb",
                    "status": true,
                    "value": "0"
                },
                "nodeType": 0
            },
            "1": {
                "event": {
                    "contract": "0x85effd6e815c6e267e7d063b54ff9120634a0a4a",
                    "decodedLog": {
                        "name": "Transfer",
                        "params": [
                            {
                                "name": "from",
                                "type": "address",
                                "value": "0x0332c502a82910e2feba2cf57c127a8b3d6c6b51"
                            },
                            {
                                "name": "to",
                                "type": "address",
                                "value": "0x216f7599aa742298248353175a32776f4bc3caf9"
                            },
                            {
                                "decimalAvailable": true,
                                "name": "tokens",
                                "type": "uint256",
                                "value": "2,000,000,000,000,000,000,000"
                            }
                        ],
                        "signature": "Transfer(address,address,uint256)"
                    },
                    "id": 1,
                    "logData": "0x00000000000000000000000000000000000000000000006c6b935b8bbd400000",
                    "logDecoded": true,
                    "operation": "EVENT",
                    "revert": false,
                    "status": true,
                    "topics": [
                        "0xddf252ad1be2c89b69c2b068fc378daa952ba7f163c4a11628f55a4df523b3ef",
                        "0x0000000000000000000000000332c502a82910e2feba2cf57c127a8b3d6c6b51",
                        "0x000000000000000000000000216f7599aa742298248353175a32776f4bc3caf9"
                    ]
                },
                "nodeType": 1
            }
        },
        "gasFlame": [
            {
                "children": [
                    {
                        "children": [
                            {
                                "children": [],
                                "depth": 0,
                                "name": "Initial Gas",
                                "value": 21644
                            },
                            {
                                "children": [],
                                "depth": 0,
                                "name": "Executed Gas",
                                "value": 14461
                            }
                        ],
                        "depth": -1,
                        "name": "Actual Gas Used",
                        "value": 36105
                    },
                    {
                        "children": [],
                        "depth": -1,
                        "name": "Refunded Gas",
                        "value": 0
                    }
                ],
                "depth": -2,
                "name": "Total Gas",
                "value": 36105
            }
        ],
        "isConfirmed": true,
        "mainTrace": [
            {
                "children": [
                    {
                        "children": [
                            {
                                "children": [],
                                "depth": 1,
                                "id": 1,
                                "order": 1
                            }
                        ],
                        "depth": 0,
                        "id": 0,
                        "order": 0
                    }
                ],
                "depth": -1,
                "id": -1,
                "order": -1
            }
        ],
        "mainTraceNodeCount": 2,
        "parentIdMap": {
            "0": -1,
            "1": 0
        },
        "tidyTrace": [
            {
                "children": [
                    {
                        "children": [
                            {
                                "children": [],
                                "depth": 1,
                                "id": 1,
                                "order": 1
                            }
                        ],
                        "depth": 0,
                        "id": 0,
                        "order": 0
                    }
                ],
                "depth": -1,
                "id": -1,
                "order": -1
            }
        ],
        "tidyTraceNodeCount": 2
    },
    "state_change": {
        "stateChanges": [
            {
                "address": "0x85effd6e815c6e267e7d063b54ff9120634a0a4a",
                "erc": "ERC-20",
                "slots": [
                    {
                        "current": "0x000000000000000000000000000000000000000000000004e1c829e22690004b",
                        "key": "0x808e3c0e17624ca827afec339b7a72b7f39d75b341321ebf7d0aeb7aae63f205",
                        "prev": "0x0000000000000000000000000000000000000000000000714d5b856de3d0004b"
                    },
                    {
                        "current": "0x0000000000000000000000000000000000000000000021ce8fb4693467b8aff1",
                        "key": "0x89f66ebb66f4d12c05fc17bc0840b137f8b8c9e794c78bd325a0abf7dfb504d0",
                        "prev": "0x00000000000000000000000000000000000000000000216224210da8aa78aff1"
                    }
                ],
                "storageVariables": [
                    {
                        "name": "balances",
                        "type": "mapping(address => uint256)",
                        "value": {
                            "pairs": [
                                {
                                    "key": "0x0332c502a82910e2feba2cf57c127a8b3d6c6b51",
                                    "value": {
                                        "current": "90056276000000442443",
                                        "prev": "2090056276000000442443",
                                        "typeTag": 1
                                    }
                                },
                                {
                                    "key": "0x216f7599aa742298248353175a32776f4bc3caf9",
                                    "value": {
                                        "current": "159648478230999490670577",
                                        "prev": "157648478230999490670577",
                                        "typeTag": 1
                                    }
                                }
                            ],
                            "typeTag": 4
                        }
                    }
                ]
            }
        ]
    }
}