{
    "balance_change": {
        "balanceChanges": [
            {
                "account": "0xa902479cab22abf7c2b3008b20919405a8c961da",
                "assets": [
                    {
                        "address": "0xeeeeeeeeeeeeeeeeeeeeeeeeeeeeeeeeeeeeeeee",
                        "amount": "8.09476359451543232",
                        "iconUrl": "https://assets.blocksec.com/image/1663669189317-3.png",
                        "isERC1155": false,
                        "isERC721": false,
                        "sign": false,
                        "value": ""
                    }
                ]
            },
            {
                "account": "0x04a736945d15305ee9668fbace39d6185b811b48",
                "assets": [
                    {
                        "address": "0xeeeeeeeeeeeeeeeeeeeeeeeeeeeeeeeeeeeeeeee",
                        "amount": "0.901303503243586304",
                        "iconUrl": "https://assets.blocksec.com/image/1663669189317-3.png",
                        "isERC1155": false,
                        "isERC721": false,
                        "sign": true,
                        "value": ""
                    }
                ]
            },
            {
                "account": "0x0d5acf84ccf5e1f4f9f544434b83c3714899884f",
                "assets": [
                    {
                        "address": "0xeeeeeeeeeeeeeeeeeeeeeeeeeeeeeeeeeeeeeeee",
                        "amount": "0.904741457083641216",
                        "iconUrl": "https://assets.blocksec.com/image/1663669189317-3.png",
                        "isERC1155": false,
                        "isERC721": false,
                        "sign": true,
                        "value": ""
                    }
                ]
            },
            {
                "account": "0x16312a2ea534b80c24f3c9ea54a03cb53b27b7b2",
                "assets": [
                    {
                        "address": "0xeeeeeeeeeeeeeeeeeeeeeeeeeeeeeeeeeeeeeeee",
                        "amount": "0.52086168",
                        "iconUrl": "https://assets.blocksec.com/image/1663669189317-3.png",
                        "isERC1155": false,
                        "isERC721": false,
                        "sign": true,
                        "value": ""
                    }
                ]
            },
            {
                "account": "0x1e82f795ea5f1ac83b716504323c5ed20cdb8639",
                "assets": [
                    {
                        "address": "0xeeeeeeeeeeeeeeeeeeeeeeeeeeeeeeeeeeeeeeee",
                        "amount": "0.520875836364660544",
                        "iconUrl": "https://assets.blocksec.com/image/1663669189317-3.png",
                        "isERC1155": false,
                        "isERC721": false,
                        "sign": true,
                        "value": ""
                    }
                ]
            },
            {
                "account": "0x261fc5e792ed7808aa2b27535b16ef1543a90ed4",
                "assets": [
                    {
                        "address": "0xeeeeeeeeeeeeeeeeeeeeeeeeeeeeeeeeeeeeeeee",
                        "amount": "0.902865138341755136",
                        "iconUrl": "https://assets.blocksec.com/image/1663669189317-3.png",
                        "isERC1155": false,
                        "isERC721": false,
                        "sign": true,
                        "value": ""
                    }
                ]
            },
            {
                "account": "0x4669882e1d6297cd75714c8242313e3f159be43f",
                "assets": [
                    {
                        "address": "0xeeeeeeeeeeeeeeeeeeeeeeeeeeeeeeeeeeeeeeee",
                        "amount": "0.778138910219556864",
                        "iconUrl": "https://assets.blocksec.com/image/1663669189317-3.png",
                        "isERC1155": false,
                        "isERC721": false,
                        "sign": true,
                        "value": ""
                    }
                ]
            },
            {
                "account": "0x5570123b953b9955a15fdb8d7d8d40c8462e1f9a",
                "assets": [
                    {
                        "address": "0xeeeeeeeeeeeeeeeeeeeeeeeeeeeeeeeeeeeeeeee",
                        "amount": "0.90378913681278976",
                        "iconUrl": "https://assets.blocksec.com/image/1663669189317-3.png",
                        "isERC1155": false,
                        "isERC721": false,
                        "sign": true,
                        "value": ""
                    }
                ]
            },
            {
                "account": "0x605f23922a7797f7d5cee51979de37e371e7e87c",
                "assets": [
                    {
                        "address": "0xeeeeeeeeeeeeeeeeeeeeeeeeeeeeeeeeeeeeeeee",
                        "amount": "0.902153566815853184",
                        "iconUrl": "https://assets.blocksec.com/image/1663669189317-3.png",
                        "isERC1155": false,
                        "isERC721": false,
                        "sign": true,
                        "value": ""
                    }
                ]
            },
            {
                "account": "0x60adf0edc7eccbf25a500906c3958a080909f3bb",
                "assets": [
                    {
                        "address": "0xeeeeeeeeeeeeeeeeeeeeeeeeeeeeeeeeeeeeeeee",
                        "amount": "0.545436789225084992",
                        "iconUrl": "https://assets.blocksec.com/image/1663669189317-3.png",
                        "isERC1155": false,
                        "isERC721": false,
                        "sign": true,
                        "value": ""
                    }
                ]
            },
            {
                "account": "0xeb5c4df4dbb6ebda746dfa64746723c882ae63bf",
                "assets": [
                    {
                        "address": "0xeeeeeeeeeeeeeeeeeeeeeeeeeeeeeeeeeeeeeeee",
                        "amount": "0.587120601010827008",
                        "iconUrl": "https://assets.blocksec.com/image/1663669189317-3.png",
                        "isERC1155": false,
                        "isERC721": false,
                        "sign": true,
                        "value": ""
                    }
                ]
            },
            {
                "account": "0xfe5ee1b6c49bc357d7a32c094a4820bbf56b877a",
                "assets": [
                    {
                        "address": "0xeeeeeeeeeeeeeeeeeeeeeeeeeeeeeeeeeeeeeeee",
                        "amount": "0.627476975397677312",
                        "iconUrl": "https://assets.blocksec.com/image/1663669189317-3.png",
                        "isERC1155": false,
                        "isERC721": false,
                        "sign": true,
                        "value": ""
                    }
                ]
            }
        ]
    },
    "profile": {
        "basic_info": {
            "baseFee": "",
            "blockNumber": 11472333,
            "callData": "0xa645ff5f000000000000000000000000000000000000000000000000000000000000004000000000000000000000000000000000000000000000000000000000000001c0000000000000000000000000000000000000000000000000000000000000000b000000000000000000000000c9063e2653a576f4f0325a4c4677350cdf0f178e0000000000000000000000008f46d853eb3f990b8fd7980664bfedfaed41f126000000000000000000000000e24334450dbdef08a3ec395c56e21968d43f9115000000000000000000000000ba69e9fa547397a9fb46a69260ec9ad1da8806c0000000000000000000000000ebbecd559c5d3ea2b37ff2a5d3580c01c727021200000000000000000000000011471a7705d3cdab8dba51165729faa269cd9e20000000000000000000000000a97073efdc2a99312f68319d5f50e426893dfd650000000000000000000000000445b6351afee5262e74877b6906f9d11e087ae50000000000000000000000008fb40b2c06a4c50e00497419def4501195afeae1000000000000000000000000f928d1ef647cb6f07eeab4f549c1e6aca781aee8000000000000000000000000f19b0c542b1714346168181b2f5d84cb907d9f63000000000000000000000000000000000000000000000000000000000000000b0000000000000000000000000000000000000000000000000c879f0f4af1b9000000000000000000000000000000000000000000000000000c8517e3a2e91a800000000000000000000000000000000000000000000000000c8e498fcb0a2d800000000000000000000000000000000000000000000000000c8ae76e739550000000000000000000000000000000000000000000000000000c8212c2c9a62b0000000000000000000000000000000000000000000000000008b53efc0f50a9000000000000000000000000000000000000000000000000000acc8137518bd8000000000000000000000000000000000000000000000000000825df136f906f000000000000000000000000000000000000000000000000000791c7deb530d840000000000000000000000000000000000000000000000000073a78f035836000000000000000000000000000000000000000000000000000073a85d03e999f40",
            "debugEnable": true,
            "errorInfo": "",
            "eventCount": 0,
            "feeRecipient": "0x829bd824b016326a401d083b33d092293333a830",
            "formatValue": "8.09476359451543232",
            "gasLimit": 215386,
            "gasPrice": "275",
            "gasUsed": 113189,
            "intTxnCount": 11,
            "internalRevert": false,
            "internalRevertMessage": "",
            "isContractCreation": false,
            "isFlashloan": false,
            "maxFee": "",
            "nonce": 4038,
            "overwritedBlockNumber": -1,
            "priorityFee": "",
            "receiver": "0xe7ef1db0d66a017a03a08398bddbe5bcd7b1d94a",
            "revertMessage": "",
            "sender": "0xa902479cab22abf7c2b3008b20919405a8c961da",
            "simulationEnable": true,
            "sourceTxnHash": "0x517abaf5a1d3aba23edf576d0eacbc31e27d2d030b4473585b55ec655c03e3f6",
            "status": true,
            "timestamp": "2020-12-17T18:42:29Z",
            "transactionFee": "0.031126975",
            "txnHash": "0x517abaf5a1d3aba23edf576d0eacbc31e27d2d030b4473585b55ec655c03e3f6",
            "txnIndex": 102,
            "type": 0,
            "value": "8094763594515432320"
        },
        "fund_flow": [
            {
                "amount": "8.09476359451543232",
                "from": "0xa902479cab22abf7c2b3008b20919405a8c961da",
                "id": 1,
                "isERC1155": false,
                "isERC721": false,
                "isReverted": false,
                "order": 1,
                "to": "0xe7ef1db0d66a017a03a08398bddbe5bcd7b1d94a",
                "token": "0xeeeeeeeeeeeeeeeeeeeeeeeeeeeeeeeeeeeeeeee"
            },
            {
                "amount": "0.902865138341755136",
                "from": "0xe7ef1db0d66a017a03a08398bddbe5bcd7b1d94a",
                "id": 2,
                "isERC1155": false,
                "isERC721": false,
                "isReverted": false,
                "order": 2,
                "to": "0x261fc5e792ed7808aa2b27535b16ef1543a90ed4",
                "token": "0xeeeeeeeeeeeeeeeeeeeeeeeeeeeeeeeeeeeeeeee"
            },
            {
                "amount": "0.902153566815853184",
                "from": "0xe7ef1db0d66a017a03a08398bddbe5bcd7b1d94a",
                "id": 3,
                "isERC1155": false,
                "isERC721": false,
                "isReverted": false,
                "order": 3,
                "to": "0x605f23922a7797f7d5cee51979de37e371e7e87c",
                "token": "0xeeeeeeeeeeeeeeeeeeeeeeeeeeeeeeeeeeeeeeee"
            },
            {
                "amount": "0.904741457083641216",
                "from": "0xe7ef1db0d66a017a03a08398bddbe5bcd7b1d94a",
                "id": 4,
                "isERC1155": false,
                "isERC721": false,
                "isReverted": false,
                "order": 4,
                "to": "0x0d5acf84ccf5e1f4f9f544434b83c3714899884f",
                "token": "0xeeeeeeeeeeeeeeeeeeeeeeeeeeeeeeeeeeeeeeee"
            },
            {
                "amount": "0.90378913681278976",
                "from": "0xe7ef1db0d66a017a03a08398bddbe5bcd7b1d94a",
                "id": 5,
                "isERC1155": false,
                "isERC721": false,
                "isReverted": false,
                "order": 5,
                "to": "0x5570123b953b9955a15fdb8d7d8d40c8462e1f9a",
                "token": "0xeeeeeeeeeeeeeeeeeeeeeeeeeeeeeeeeeeeeeeee"
            },
            {
                "amount": "0.901303503243586304",
                "from": "0xe7ef1db0d66a017a03a08398bddbe5bcd7b1d94a",
                "id": 6,
                "isERC1155": false,
                "isERC721": false,
                "isReverted": false,
                "order": 6,
                "to": "0x04a736945d15305ee9668fbace39d6185b811b48",
                "token": "0xeeeeeeeeeeeeeeeeeeeeeeeeeeeeeeeeeeeeeeee"
            },
            {
                "amount": "0.627476975397677312",
                "from": "0xe7ef1db0d66a017a03a08398bddbe5bcd7b1d94a",
                "id": 7,
                "isERC1155": false,
                "isERC721": false,
                "isReverted": false,
                "order": 7,
                "to": "0xfe5ee1b6c49bc357d7a32c094a4820bbf56b877a",
                "token": "0xeeeeeeeeeeeeeeeeeeeeeeeeeeeeeeeeeeeeeeee"
            },
            {
                "amount": "0.778138910219556864",
                "from": "0xe7ef1db0d66a017a03a08398bddbe5bcd7b1d94a",
                "id": 8,
                "isERC1155": false,
                "isERC721": false,
                "isReverted": false,
                "order": 8,
                "to": "0x4669882e1d6297cd75714c8242313e3f159be43f",
                "token": "0xeeeeeeeeeeeeeeeeeeeeeeeeeeeeeeeeeeeeeeee"
            },
            {
                "amount": "0.587120601010827008",
                "from": "0xe7ef1db0d66a017a03a08398bddbe5bcd7b1d94a",
                "id": 9,
                "isERC1155": false,
                "isERC721": false,
                "isReverted": false,
                "order": 9,
                "to": "0xeb5c4df4dbb6ebda746dfa64746723c882ae63bf",
                "token": "0xeeeeeeeeeeeeeeeeeeeeeeeeeeeeeeeeeeeeeeee"
            },
            {
                "amount": "0.545436789225084992",
                "from": "0xe7ef1db0d66a017a03a08398bddbe5bcd7b1d94a",
                "id": 10,
                "isERC1155": false,
                "isERC721": false,
                "isReverted": false,
                "order": 10,
                "to": "0x60adf0edc7eccbf25a500906c3958a080909f3bb",
                "token": "0xeeeeeeeeeeeeeeeeeeeeeeeeeeeeeeeeeeeeeeee"
            },
            {
                "amount": "0.52086168",
                "from": "0xe7ef1db0d66a017a03a08398bddbe5bcd7b1d94a",
                "id": 11,
                "isERC1155": false,
                "isERC721": false,
                "isReverted": false,
                "order": 11,
                "to": "0x16312a2ea534b80c24f3c9ea54a03cb53b27b7b2",
                "token": "0xeeeeeeeeeeeeeeeeeeeeeeeeeeeeeeeeeeeeeeee"
            },
            {
                "amount": "0.520875836364660544",
                "from": "0xe7ef1db0d66a017a03a08398bddbe5bcd7b1d94a",
                "id": 12,
                "isERC1155": false,
                "isERC721": false,
                "isReverted": false,
                "order": 12,
                "to": "0x1e82f795ea5f1ac83b716504323c5ed20cdb8639",
                "token": "0xeeeeeeeeeeeeeeeeeeeeeeeeeeeeeeeeeeeeeeee"
            }
        ],
        "token_infos": [
            {
                "address": "0xeeeeeeeeeeeeeeeeeeeeeeeeeeeeeeeeeeeeeeee",
                "decimals": 18
            },
            {
                "address": "0xc02aaa39b223fe8d0a0e5c4f27ead9083c756cc2",
                "decimals": 18
            }
        ]
    },
    "address_label": {
        "labels": [
            {
                "address": "0x0000000000000000000000000000000000000002",
                "label": "Precompiled"
            },
            {
                "address": "0x0000000000000000000000000000000000000003",
                "label": "Precompiled"
            },
            {
                "address": "0x0000000000000000000000000000000000000004",
                "label": "Precompiled"
            },
            {
                "address": "0xeeeeeeeeeeeeeeeeeeeeeeeeeeeeeeeeeeeeeeee",
                "label": "Ether"
            },
            {
                "address": "0x0000000000000000000000000000000000000001",
                "label": "Precompiled"
            }
        ]
    },
    "trace": {
        "accountLabels": null,
        "dataMap": {
            "-1": {
                "invocation": {
                    "address": "0xa902479cab22abf7c2b3008b20919405a8c961da",
                    "callData": "",
                    "decodedMethod": null,
                    "errorInfo": "",
                    "fromAddress": "",
                    "gasUsed": 0,
                    "id": -1,
                    "methodDecoded": false,
                    "operation": "",
                    "output": "",
                    "revert": false,
                    "revertMessage": "",
                    "selector": "",
                    "status": false,
                    "value": ""
                },
                "nodeType": 0
            },
            "0": {
                "invocation": {
                    "address": "0xe7ef1db0d66a017a03a08398bddbe5bcd7b1d94a",
                    "callData": "0x000000000000000000000000000000000000000000000000000000000000004000000000000000000000000000000000000000000000000000000000000001c0000000000000000000000000000000000000000000000000000000000000000b000000000000000000000000c9063e2653a576f4f0325a4c4677350cdf0f178e0000000000000000000000008f46d853eb3f990b8fd7980664bfedfaed41f126000000000000000000000000e24334450dbdef08a3ec395c56e21968d43f9115000000000000000000000000ba69e9fa547397a9fb46a69260ec9ad1da8806c0000000000000000000000000ebbecd559c5d3ea2b37ff2a5d3580c01c727021200000000000000000000000011471a7705d3cdab8dba51165729faa269cd9e20000000000000000000000000a97073efdc2a99312f68319d5f50e426893dfd650000000000000000000000000445b6351afee5262e74877b6906f9d11e087ae50000000000000000000000008fb40b2c06a4c50e00497419def4501195afeae1000000000000000000000000f928d1ef647cb6f07eeab4f549c1e6aca781aee8000000000000000000000000f19b0c542b1714346168181b2f5d84cb907d9f63000000000000000000000000000000000000000000000000000000000000000b0000000000000000000000000000000000000000000000000c879f0f4af1b9000000000000000000000000000000000000000000000000000c8517e3a2e91a800000000000000000000000000000000000000000000000000c8e498fcb0a2d800000000000000000000000000000000000000000000000000c8ae76e739550000000000000000000000000000000000000000000000000000c8212c2c9a62b0000000000000000000000000000000000000000000000000008b53efc0f50a9000000000000000000000000000000000000000000000000000acc8137518bd8000000000000000000000000000000000000000000000000000825df136f906f000000000000000000000000000000000000000000000000000791c7deb530d840000000000000000000000000000000000000000000000000073a78f035836000000000000000000000000000000000000000000000000000073a85d03e999f40",
                    "decodedMethod": {
                        "callParams": [
                            {
                                "name": "recipients",
                                "type": "address[]",
                                "value": [
                                    "0xc9063e2653a576f4f0325a4c4677350cdf0f178e",
                                    "0x8f46d853eb3f990b8fd7980664bfedfaed41f126",
                                    "0xe24334450dbdef08a3ec395c56e21968d43f9115",
                                    "0xba69e9fa547397a9fb46a69260ec9ad1da8806c0",
                                    "0xebbecd559c5d3ea2b37ff2a5d3580c01c7270212",
                                    "0x11471a7705d3cdab8dba51165729faa269cd9e20",
                                    "0xa97073efdc2a99312f68319d5f50e426893dfd65",
                                    "0x0445b6351afee5262e74877b6906f9d11e087ae5",
                                    "0x8fb40b2c06a4c50e00497419def4501195afeae1",
                                    "0xf928d1ef647cb6f07eeab4f549c1e6aca781aee8",
                                    "0xf19b0c542b1714346168181b2f5d84cb907d9f63"
                                ]
                            },
                            {
                                "name": "values",
                                "type": "uint256[]",
                                "value": [
                                    "902,865,138,341,755,136",
                                    "902,153,566,815,853,184",
                                    "904,741,457,083,641,216",
                                    "903,789,136,812,789,760",
                                    "901,303,503,243,586,304",
                                    "627,476,975,397,677,312",
                                    "778,138,910,219,556,864",
                                    "587,120,601,010,827,008",
                                    "545,436,789,225,084,992",
                                    "520,861,680,000,000,000",
                                    "520,875,836,364,660,544"
                                ]
                            }
                        ],
                        "constructorArguments": "",
                        "name": "send",
                        "returnParams": [],
                        "signature": "send(address[],uint256[])"
                    },
                    "errorInfo": "",
                    "fromAddress": "0xa902479cab22abf7c2b3008b20919405a8c961da",
                    "gasUsed": 113189,
                    "id": 0,
                    "methodDecoded": true,
                    "operation": "CALL",
                    "output": "",
                    "revert": false,
                    "revertMessage": "",
                    "selector": "0xa645ff5f",
                    "status": true,
                    "value": "8.09476359451543232"
                },
                "nodeType": 0
            },
            "1": {
                "invocation": {
                    "address": "0x261fc5e792ed7808aa2b27535b16ef1543a90ed4",
                    "callData": "0x",
                    "decodedMethod": null,
                    "errorInfo": "",
                    "fromAddress": "0xe7ef1db0d66a017a03a08398bddbe5bcd7b1d94a",
                    "gasUsed": 0,
                    "id": 1,
                    "methodDecoded": false,
                    "operation": "CALL",
                    "output": "",
                    "revert": false,
                    "revertMessage": "",
                    "selector": "fallback",
                    "status": true,
                    "value": "0.902865138341755136"
                },
                "nodeType": 0
            },
            "10": {
                "invocation": {
                    "address": "0x16312a2ea534b80c24f3c9ea54a03cb53b27b7b2",
                    "callData": "0x",
                    "decodedMethod": null,
                    "errorInfo": "",
                    "fromAddress": "0xe7ef1db0d66a017a03a08398bddbe5bcd7b1d94a",
                    "gasUsed": 0,
                    "id": 10,
                    "methodDecoded": false,
                    "operation": "CALL",
                    "output": "",
                    "revert": false,
                    "revertMessage": "",
                    "selector": "fallback",
                    "status": true,
                    "value": "0.52086168"
                },
                "nodeType": 0
            },
            "11": {
                "invocation": {
                    "address": "0x1e82f795ea5f1ac83b716504323c5ed20cdb8639",
                    "callData": "0x",
                    "decodedMethod": null,
                    "errorInfo": "",
                    "fromAddress": "0xe7ef1db0d66a017a03a08398bddbe5bcd7b1d94a",
                    "gasUsed": 0,
                    "id": 11,
                    "methodDecoded": false,
                    "operation": "CALL",
                    "output": "",
                    "revert": false,
                    "revertMessage": "",
                    "selector": "fallback",
                    "status": true,
                    "value": "0.520875836364660544"
                },
                "nodeType": 0
            },
            "2": {
                "invocation": {
                    "address": "0x605f23922a7797f7d5cee51979de37e371e7e87c",
                    "callData": "0x",
                    "decodedMethod": null,
                    "errorInfo": "",
                    "fromAddress": "0xe7ef1db0d66a017a03a08398bddbe5bcd7b1d94a",
                    "gasUsed": 0,
                    "id": 2,
                    "methodDecoded": false,
                    "operation": "CALL",
                    "output": "",
                    "revert": false,
                    "revertMessage": "",
                    "selector": "fallback",
                    "status": true,
                    "value": "0.902153566815853184"
                },
                "nodeType": 0
            },
            "3": {
                "invocation": {
                    "address": "0x0d5acf84ccf5e1f4f9f544434b83c3714899884f",
                    "callData": "0x",
                    "decodedMethod": null,
                    "errorInfo": "",
                    "fromAddress": "0xe7ef1db0d66a017a03a08398bddbe5bcd7b1d94a",
                    "gasUsed": 0,
                    "id": 3,
                    "methodDecoded": false,
                    "operation": "CALL",
                    "output": "",
                    "revert": false,
                    "revertMessage": "",
                    "selector": "fallback",
                    "status": true,
                    "value": "0.904741457083641216"
                },
                "nodeType": 0
            },
            "4": {
                "invocation": {
                    "address": "0x5570123b953b9955a15fdb8d7d8d40c8462e1f9a",
                    "callData": "0x",
                    "decodedMethod": null,
                    "errorInfo": "",
                    "fromAddress": "0xe7ef1db0d66a017a03a08398bddbe5bcd7b1d94a",
                    "gasUsed": 0,
                    "id": 4,
                    "methodDecoded": false,
                    "operation": "CALL",
                    "output": "",
                    "revert": false,
                    "revertMessage": "",
                    "selector": "fallback",
                    "status": true,
                    "value": "0.90378913681278976"
                },
                "nodeType": 0
            },
            "5": {
                "invocation": {
                    "address": "0x04a736945d15305ee9668fbace39d6185b811b48",
                    "callData": "0x",
                    "decodedMethod": null,
                    "errorInfo": "",
                    "fromAddress": "0xe7ef1db0d66a017a03a08398bddbe5bcd7b1d94a",
                    "gasUsed": 0,
                    "id": 5,
                    "methodDecoded": false,
                    "operation": "CALL",
                    "output": "",
                    "revert": false,
                    "revertMessage": "",
                    "selector": "fallback",
                    "status": true,
                    "value": "0.901303503243586304"
                },
                "nodeType": 0
            },
            "6": {
                "invocation": {
                    "address": "0xfe5ee1b6c49bc357d7a32c094a4820bbf56b877a",
                    "callData": "0x",
                    "decodedMethod": null,
                    "errorInfo": "",
                    "fromAddress": "0xe7ef1db0d66a017a03a08398bddbe5bcd7b1d94a",
                    "gasUsed": 0,
                    "id": 6,
                    "methodDecoded": false,
                    "operation": "CALL",
                    "output": "",
                    "revert": false,
                    "revertMessage": "",
                    "selector": "fallback",
                    "status": true,
                    "value": "0.627476975397677312"
                },
                "nodeType": 0
            },
            "7": {
                "invocation": {
                    "address": "0x4669882e1d6297cd75714c8242313e3f159be43f",
                    "callData": "0x",
                    "decodedMethod": null,
                    "errorInfo": "",
                    "fromAddress": "0xe7ef1db0d66a017a03a08398bddbe5bcd7b1d94a",
                    "gasUsed": 0,
                    "id": 7,
                    "methodDecoded": false,
                    "operation": "CALL",
                    "output": "",
                    "revert": false,
                    "revertMessage": "",
                    "selector": "fallback",
                    "status": true,
                    "value": "0.778138910219556864"
                },
                "nodeType": 0
            },
            "8": {
                "invocation": {
                    "address": "0xeb5c4df4dbb6ebda746dfa64746723c882ae63bf",
                    "callData": "0x",
                    "decodedMethod": null,
                    "errorInfo": "",
                    "fromAddress": "0xe7ef1db0d66a017a03a08398bddbe5bcd7b1d94a",
                    "gasUsed": 0,
                    "id": 8,
                    "methodDecoded": false,
                    "operation": "CALL",
                    "output": "",
                    "revert": false,
                    "revertMessage": "",
                    "selector": "fallback",
                    "status": true,
                    "value": "0.587120601010827008"
                },
                "nodeType": 0
            },
            "9": {
                "invocation": {
                    "address": "0x60adf0edc7eccbf25a500906c3958a080909f3bb",
                    "callData": "0x",
                    "decodedMethod": null,
                    "errorInfo": "",
                    "fromAddress": "0xe7ef1db0d66a017a03a08398bddbe5bcd7b1d94a",
                    "gasUsed": 0,
                    "id": 9,
                    "methodDecoded": false,
                    "operation": "CALL",
                    "output": "",
                    "revert": false,
                    "revertMessage": "",
                    "selector": "fallback",
                    "status": true,
                    "value": "0.545436789225084992"
                },
                "nodeType": 0
            }
        },
        "gasFlame": [
            {
                "children": [
                    {
                        "children": [
                            {
                                "children": [],
                                "depth": 0,
                                "name": "Initial Gas",
                                "value": 28052
                            },
                            {
                                "children": [
                                    {
                                        "children": [],
                                        "depth": 1,
                                        "name": "fallback",
                                        "value": 0
                                    },
                                    {
                                        "children": [],
                                        "depth": 1,
                                        "name": "fallback",
                                        "value": 0
                                    },
                                    {
                                        "children": [],
                                        "depth": 1,
                                        "name": "fallback",
                                        "value": 0
                                    },
                                    {
                                        "children": [],
                                        "depth": 1,
                                        "name": "fallback",
                                        "value": 0
                                    },
                                    {
                                        "children": [],
                                        "depth": 1,
                                        "name": "fallback",
                                        "value": 0
                                    },
                                    {
                                        "children": [],
                                        "depth": 1,
                                        "name": "fallback",
                                        "value": 0
                                    },
                                    {
                                        "children": [],
                                        "depth": 1,
                                        "name": "fallback",
                                        "value": 0
                                    },
                                    {
                                        "children": [],
                                        "depth": 1,
                                        "name": "fallback",
                                        "value": 0
                                    },
                                    {
                                        "children": [],
                                        "depth": 1,
                                        "name": "fallback",
                                        "value": 0
                                    },
                                    {
                                        "children": [],
                                        "depth": 1,
                                        "name": "fallback",
                                        "value": 0
                                    },
                                    {
                                        "children": [],
                                        "depth": 1,
                                        "name": "fallback",
                                        "value": 0
                                    }
                                ],
                                "depth": 0,
                                "name": "Executed Gas",
                                "value": 85137
                            }
                        ],
                        "depth": -1,
                        "name": "Actual Gas Used",
                        "value": 113189
                    },
                    {
                        "children": [],
                        "depth": -1,
                        "name": "Refunded Gas",
                        "value": 0
                    }
                ],
                "depth": -2,
                "name": "Total Gas",
                "value": 113189
            }
        ],
        "isConfirmed": true,
        "mainTrace": [
            {
                "children": [
                    {
                        "children": [
                            {
                                "children": [],
                                "depth": 1,
                                "id": 1,
                                "order": 1
                            },
                            {
                                "children": [],
                                "depth": 1,
                                "id": 2,
                                "order": 2
                            },
                            {
                                "children": [],
                                "depth": 1,
                                "id": 3,
                                "order": 3
                            },
                            {
                                "children": [],
                                "depth": 1,
                                "id": 4,
                                "order": 4
                            },
                            {
                                "children": [],
                                "depth": 1,
                                "id": 5,
                                "order": 5
                            },
                            {
                                "children": [],
                                "depth": 1,
                                "id": 6,
                                "order": 6
                            },
                            {
                                "children": [],
                                "depth": 1,
                                "id": 7,
                                "order": 7
                            },
                            {
                                "children": [],
                                "depth": 1,
                                "id": 8,
                                "order": 8
                            },
                            {
                                "children": [],
                                "depth": 1,
                                "id": 9,
                                "order": 9
                            },
                            {
                                "children": [],
                                "depth": 1,
                                "id": 10,
                                "order": 10
                            },
                            {
                                "children": [],
                                "depth": 1,
                                "id": 11,
                                "order": 11
                            }
                        ],
                        "depth": 0,
                        "id": 0,
                        "order": 0
                    }
                ],
                "depth": -1,
                "id": -1,
                "order": -1
            }
        ],
        "mainTraceNodeCount": 12,
        "parentIdMap": {
            "0": -1,
            "1": 0,
            "10": 0,
            "11": 0,
            "2": 0,
            "3": 0,
            "4": 0,
            "5": 0,
            "6": 0,
            "7": 0,
            "8": 0,
            "9": 0
        },
        "tidyTrace": [
            {
                "children": [
                    {
                        "children": [
                            {
                                "children": [],
                                "depth": 1,
                                "id": 1,
                                "order": 1
                            },
                            {
                                "children": [],
                                "depth": 1,
                                "id": 2,
                                "order": 2
                            },
                            {
                                "children": [],
                                "depth": 1,
                                "id": 3,
                                "order": 3
                            },
                            {
                                "children": [],
                                "depth": 1,
                                "id": 4,
                                "order": 4
                            },
                            {
                                "children": [],
                                "depth": 1,
                                "id": 5,
                                "order": 5
                            },
                            {
                                "children": [],
                                "depth": 1,
                                "id": 6,
                                "order": 6
                            },
                            {
                                "children": [],
                                "depth": 1,
                                "id": 7,
                                "order": 7
                            },
                            {
                                "children": [],
                                "depth": 1,
                                "id": 8,
                                "order": 8
                            },
                            {
                                "children": [],
                                "depth": 1,
                                "id": 9,
                                "order": 9
                            },
                            {
                                "children": [],
                                "depth": 1,
                                "id": 10,
                                "order": 10
                            },
                            {
                                "children": [],
                                "depth": 1,
                                "id": 11,
                                "order": 11
                            }
                        ],
                        "depth": 0,
                        "id": 0,
                        "order": 0
                    }
                ],
                "depth": -1,
                "id": -1,
                "order": -1
            }
        ],
        "tidyTraceNodeCount": 12
    },
    "state_change": {
        "stateChanges": []
    }
}