{
    "balance_change": {
        "balanceChanges": [
            {
                "account": "0x29b9d8b112f97b637c134579b9d10a4f4fcac7ec",
                "assets": [
                    {
                        "address": "0xca9b78435be8267922e7ac5cde70401e7502c9cc",
                        "amount": "1,000",
                        "iconUrl": "",
                        "isERC1155": false,
                        "isERC721": false,
                        "sign": true,
                        "value": ""
                    }
                ]
            },
            {
                "account": "0x0000000000000000000000000000000000000000",
                "assets": [
                    {
                        "address": "0xca9b78435be8267922e7ac5cde70401e7502c9cc",
                        "amount": "1,000",
                        "iconUrl": "",
                        "isERC1155": false,
                        "isERC721": false,
                        "sign": false,
                        "value": ""
                    }
                ]
            }
        ]
    },
    "profile": {
        "basic_info": {
            "baseFee": "103.576975814",
            "blockNumber": 18770702,
            "callData": "0x4d474898b9d64a71acc57218c47ff7169f53a356b7afb6b04b1a797692e77dc2d314296b",
            "debugEnable": true,
            "errorInfo": "",
            "eventCount": 1,
            "feeRecipient": "0x388c818ca8b9251b393131c08a736a67ccb19297",
            "formatValue": "0",
            "gasLimit": 200000,
            "gasPrice": "104.576975814",
            "gasUsed": 74403,
            "intTxnCount": 0,
            "internalRevert": false,
            "internalRevertMessage": "",
            "isContractCreation": false,
            "isFlashloan": false,
            "maxFee": "200",
            "nonce": 5986,
            "overwritedBlockNumber": -1,
            "priorityFee": "1",
            "receiver": "0xca9b78435be8267922e7ac5cde70401e7502c9cc",
            "revertMessage": "",
            "sender": "0x29b9d8b112f97b637c134579b9d10a4f4fcac7ec",
            "simulationEnable": true,
            "sourceTxnHash": "0x5115e1266461aadf1c4699ece5433d6791061a9245601c94001fa62b8a7a9477",
            "status": true,
            "timestamp": "2023-12-12T14:28:59Z",
            "transactionFee": "0.007780840731489042",
            "txnHash": "0x5115e1266461aadf1c4699ece5433d6791061a9245601c94001fa62b8a7a9477",
            "txnIndex": 54,
            "type": 2,
            "value": "0"
        },
        "fund_flow": [
            {
                "amount": "1,000",
                "from": "0x0000000000000000000000000000000000000000",
                "id": 1,
                "isERC1155": false,
                "isERC721": false,
                "isReverted": false,
                "order": 1,
                "to": "0x29b9d8b112f97b637c134579b9d10a4f4fcac7ec",
                "token": "0xca9b78435be8267922e7ac5cde70401e7502c9cc"
            }
        ],
        "token_infos": [
            {
                "address": "0xc02aaa39b223fe8d0a0e5c4f27ead9083c756cc2",
                "decimals": 18
            },
            {
                "address": "0xca9b78435be8267922e7ac5cde70401e7502c9cc",
                "decimals": 18
            },
            {
                "address": "0xeeeeeeeeeeeeeeeeeeeeeeeeeeeeeeeeeeeeeeee",
                "decimals": 18
            }
        ]
    },
    "address_label": {
        "labels": [
            {
                "address": "0x0000000000000000000000000000000000000002",
                "label": "Precompiled"
            },
            {
                "address": "0x0000000000000000000000000000000000000003",
                "label": "Precompiled"
            },
            {
                "address": "0x0000000000000000000000000000000000000004",
                "label": "Precompiled"
            },
            {
                "address": "0xeeeeeeeeeeeeeeeeeeeeeeeeeeeeeeeeeeeeeeee",
                "label": "Ether"
            },
            {
                "address": "0xca9b78435be8267922e7ac5cde70401e7502c9cc",
                "label": "PoWERC20: PETH Token"
            },
            {
                "address": "0x388c818ca8b9251b393131c08a736a67ccb19297",
                "label": "LidoExecutionLayerRewardsVault"
            },
            {
                "address": "0x0000000000000000000000000000000000000001",
                "label": "Precompiled"
            }
        ]
    },
    "trace": {
        "accountLabels": null,
        "dataMap": {
            "-1": {
                "invocation": {
                    "address": "0x29b9d8b112f97b637c134579b9d10a4f4fcac7ec",
                    "callData": "",
                    "decodedMethod": null,
                    "errorInfo": "",
                    "fromAddress": "",
                    "gasUsed": 0,
                    "id": -1,
                    "methodDecoded": false,
                    "operation": "",
                    "output": "",
                    "revert": false,
                    "revertMessage": "",
                    "selector": "",
                    "status": false,
                    "value": ""
                },
                "nodeType": 0
            },
            "0": {
                "invocation": {
                    "address": "0xca9b78435be8267922e7ac5cde70401e7502c9cc",
                    "callData": "0xb9d64a71acc57218c47ff7169f53a356b7afb6b04b1a797692e77dc2d314296b",
                    "decodedMethod": {
                        "callParams": [
                            {
                                "name": "nonce",
                                "type": "uint256",
                                "value": "84,056,496,053,665,430,598,183,917,599,685,114,819,429,907,085,054,337,798,806,084,239,249,632,405,867"
                            }
                        ],
                        "constructorArguments": "",
                        "name": "mine",
                        "returnParams": [],
                        "signature": "mine(uint256)"
                    },
                    "errorInfo": "",
                    "fromAddress": "0x29b9d8b112f97b637c134579b9d10a4f4fcac7ec",
                    "gasUsed": 74403,
                    "id": 0,
                    "methodDecoded": true,
                    "operation": "CALL",
                    "output": "",
                    "revert": false,
                    "revertMessage": "",
                    "selector": "0x4d474898",
                    "status": true,
                    "value": "0"
                },
                "nodeType": 0
            },
            "1": {
                "event": {
                    "contract": "0xca9b78435be8267922e7ac5cde70401e7502c9cc",
                    "decodedLog": {
                        "name": "Transfer",
                        "params": [
                            {
                                "name": "from",
                                "type": "address",
                                "value": "0x0000000000000000000000000000000000000000"
                            },
                            {
                                "name": "to",
                                "type": "address",
                                "value": "0x29b9d8b112f97b637c134579b9d10a4f4fcac7ec"
                            },
                            {
                                "decimalAvailable": true,
                                "name": "value",
                                "type": "uint256",
                                "value": "1,000,000,000,000,000,000,000"
                            }
                        ],
                        "signature": "Transfer(address,address,uint256)"
                    },
                    "id": 1,
                    "logData": "0x00000000000000000000000000000000000000000000003635c9adc5dea00000",
                    "logDecoded": true,
                    "operation": "EVENT",
                    "revert": false,
                    "status": true,
                    "topics": [
                        "0xddf252ad1be2c89b69c2b068fc378daa952ba7f163c4a11628f55a4df523b3ef",
                        "0x0000000000000000000000000000000000000000000000000000000000000000",
                        "0x00000000000000000000000029b9d8b112f97b637c134579b9d10a4f4fcac7ec"
                    ]
                },
                "nodeType": 1
            }
        },
        "gasFlame": [
            {
                "children": [
                    {
                        "children": [
                            {
                                "children": [],
                                "depth": 0,
                                "name": "Initial Gas",
                                "value": 21576
                            },
                            {
                                "children": [],
                                "depth": 0,
                                "name": "Executed Gas",
                                "value": 52827
                            }
                        ],
                        "depth": -1,
                        "name": "Actual Gas Used",
                        "value": 74403
                    },
                    {
                        "children": [],
                        "depth": -1,
                        "name": "Refunded Gas",
                        "value": 0
                    }
                ],
                "depth": -2,
                "name": "Total Gas",
                "value": 74403
            }
        ],
        "isConfirmed": true,
        "mainTrace": [
            {
                "children": [
                    {
                        "children": [
                            {
                                "children": [],
                                "depth": 1,
                                "id": 1,
                                "order": 1
                            }
                        ],
                        "depth": 0,
                        "id": 0,
                        "order": 0
                    }
                ],
                "depth": -1,
                "id": -1,
                "order": -1
            }
        ],
        "mainTraceNodeCount": 2,
        "parentIdMap": {
            "0": -1,
            "1": 0
        },
        "tidyTrace": [
            {
                "children": [
                    {
                        "children": [
                            {
                                "children": [],
                                "depth": 1,
                                "id": 1,
                                "order": 1
                            }
                        ],
                        "depth": 0,
                        "id": 0,
                        "order": 0
                    }
                ],
                "depth": -1,
                "id": -1,
                "order": -1
            }
        ],
        "tidyTraceNodeCount": 2
    },
    "state_change": {
        "stateChanges": [
            {
                "address": "0xca9b78435be8267922e7ac5cde70401e7502c9cc",
                "erc": "ERC-20",
                "slots": [
                    {
                        "current": "0x0000000000000000000000000000000000000000000000000000000000000001",
                        "key": "0x7ddb88e083d3ceb6c5e080bd5d0ef420033029db0092610f352078cf9c1bbc77",
                        "prev": "0x0000000000000000000000000000000000000000000000000000000000000000"
                    },
                    {
                        "current": "0x00000000000000000000000000000000000000000010dba20385f44709800000",
                        "key": "0x0000000000000000000000000000000000000000000000000000000000000002",
                        "prev": "0x00000000000000000000000000000000000000000010db6bcdbc46812ae00000"
                    },
                    {
                        "current": "0x00000000000000000000000000000000000000000000006c6b935b8bbd400000",
                        "key": "0x7414b9ef7937fb693257deb4ce84d3d5d6e0438d066b86fc63984e8ad0f9cf4f",
                        "prev": "0x00000000000000000000000000000000000000000000003635c9adc5dea00000"
                    },
                    {
                        "current": "0x0000000000000000000000000000000000000000000000000000000000000002",
                        "key": "0xcf1f61375529132a77ed8c574dcced754ce58295ba2a19fba94582ba08a0ea46",
                        "prev": "0x0000000000000000000000000000000000000000000000000000000000000001"
                    }
                ],
                "storageVariables": [
                    {
                        "name": "miningTimes",
                        "type": "mapping(address => uint256)",
                        "value": {
                            "pairs": [
                                {
                                    "key": "0x29b9d8b112f97b637c134579b9d10a4f4fcac7ec",
                                    "value": {
                                        "current": "2",
                                        "prev": "1",
                                        "typeTag": 1
                                    }
                                }
                            ],
                            "typeTag": 4
                        }
                    },
                    {
                        "name": "minedNonces",
                        "type": "mapping(address => mapping(uint256 => bool))",
                        "value": {
                            "pairs": [
                                {
                                    "key": "0x29b9d8b112f97b637c134579b9d10a4f4fcac7ec",
                                    "value": {
                                        "pairs": [
                                            {
                                                "key": "84056496053665430598183917599685114819429907085054337798806084239249632405867",
                                                "value": {
                                                    "current": "true",
                                                    "prev": "false",
                                                    "typeTag": 1
                                                }
                                            }
                                        ],
                                        "typeTag": 4
                                    }
                                }
                            ],
                            "typeTag": 4
                        }
                    },
                    {
                        "name": "_totalSupply",
                        "type": "uint256",
                        "value": {
                            "current": "20380000000000000000000000",
                            "prev": "20379000000000000000000000",
                            "typeTag": 1
                        }
                    },
                    {
                        "name": "_balances",
                        "type": "mapping(address => uint256)",
                        "value": {
                            "pairs": [
                                {
                                    "key": "0x29b9d8b112f97b637c134579b9d10a4f4fcac7ec",
                                    "value": {
                                        "current": "2000000000000000000000",
                                        "prev": "1000000000000000000000",
                                        "typeTag": 1
                                    }
                                }
                            ],
                            "typeTag": 4
                        }
                    }
                ]
            }
        ]
    }
}