{
    "balance_change": {
        "balanceChanges": [
            {
                "account": "0x8deb2fd04daa9b60d5d3f34bf46fa8eda59361b0",
                "assets": [
                    {
                        "address": "0xeeeeeeeeeeeeeeeeeeeeeeeeeeeeeeeeeeeeeeee",
                        "amount": "0.482917983624251175",
                        "iconUrl": "https://assets.blocksec.com/image/1663669189317-3.png",
                        "isERC1155": false,
                        "isERC721": false,
                        "sign": false,
                        "value": "1988.731337"
                    },
                    {
                        "address": "0x8b3192f5eebd8579568a2ed41e6feb402f93f73f",
                        "amount": "42,408,091,069.46764402",
                        "iconUrl": "",
                        "isERC1155": false,
                        "isERC721": false,
                        "sign": true,
                        "value": "1878.350008"
                    }
                ]
            },
            {
                "account": "0xe66b31678d6c16e9ebf358268a790b763c133750",
                "assets": [
                    {
                        "address": "0x8b3192f5eebd8579568a2ed41e6feb402f93f73f",
                        "amount": "865,470,864.152160294",
                        "iconUrl": "",
                        "isERC1155": false,
                        "isERC721": false,
                        "sign": true,
                        "value": "38.32753183"
                    }
                ]
            },
            {
                "account": "0x382ffce2287252f930e1c8dc9328dac5bf282ba1",
                "assets": [
                    {
                        "address": "0xeeeeeeeeeeeeeeeeeeeeeeeeeeeeeeeeeeeeeeee",
                        "amount": "0.004829179836242511",
                        "iconUrl": "https://assets.blocksec.com/image/1663669189317-3.png",
                        "isERC1155": false,
                        "isERC721": false,
                        "sign": true,
                        "value": "19.88731336"
                    }
                ]
            },
            {
                "account": "0x9cbfb60a09a9a33a10312da0f39977cbdb7fde23",
                "assets": [
                    {
                        "address": "0xc02aaa39b223fe8d0a0e5c4f27ead9083c756cc2",
                        "amount": "0.478088803788008664",
                        "iconUrl": "https://assets.blocksec.com/icon/f1cb2d02c471d545bbc7722daf3277fd852d98e63d118771af7047bd8256c516.png",
                        "isERC1155": false,
                        "isERC721": false,
                        "sign": true,
                        "value": "1968.844023"
                    },
                    {
                        "address": "0x8b3192f5eebd8579568a2ed41e6feb402f93f73f",
                        "amount": "43,273,561,933.619804314",
                        "iconUrl": "",
                        "isERC1155": false,
                        "isERC721": false,
                        "sign": false,
                        "value": "1938.217862"
                    }
                ]
            },
            {
                "account": "0xc02aaa39b223fe8d0a0e5c4f27ead9083c756cc2",
                "assets": [
                    {
                        "address": "0xc02aaa39b223fe8d0a0e5c4f27ead9083c756cc2",
                        "amount": "0.478088803788008664",
                        "iconUrl": "https://assets.blocksec.com/icon/f1cb2d02c471d545bbc7722daf3277fd852d98e63d118771af7047bd8256c516.png",
                        "isERC1155": false,
                        "isERC721": false,
                        "sign": false,
                        "value": "1968.844023"
                    },
                    {
                        "address": "0xeeeeeeeeeeeeeeeeeeeeeeeeeeeeeeeeeeeeeeee",
                        "amount": "0.478088803788008664",
                        "iconUrl": "https://assets.blocksec.com/image/1663669189317-3.png",
                        "isERC1155": false,
                        "isERC721": false,
                        "sign": true,
                        "value": "1968.844023"
                    }
                ]
            }
        ]
    },
    "profile": {
        "basic_info": {
            "baseFee": "145.101031372",
            "blockNumber": 13742815,
            "callData": "0x5cf5402600000000000000000000000000000000000000000000000000000000000000c0000000000000000000000000eeeeeeeeeeeeeeeeeeeeeeeeeeeeeeeeeeeeeeee000000000000000000000000eeeeeeeeeeeeeeeeeeeeeeeeeeeeeeeeeeeeeeee00000000000000000000000000000000000000000000000006a2833be8e02cd80000000000000000000000008b3192f5eebd8579568a2ed41e6feb402f93f73f0000000000000000000000000000000000000000000000000011281d0cb21a4f0000000000000000000000000000000000000000000000000000000000000128d9627aa4000000000000000000000000000000000000000000000000000000000000008000000000000000000000000000000000000000000000000006a2833be8e02cd80000000000000000000000000000000000000000000000025269d07f08f4866200000000000000000000000000000000000000000000000000000000000000000000000000000000000000000000000000000000000000000000000000000002000000000000000000000000eeeeeeeeeeeeeeeeeeeeeeeeeeeeeeeeeeeeeeee0000000000000000000000008b3192f5eebd8579568a2ed41e6feb402f93f73f869584cd000000000000000000000000382ffce2287252f930e1c8dc9328dac5bf282ba1000000000000000000000000000000000000000000000085d5a754ac61ac0213000000000000000000000000000000000000000000000000",
            "debugEnable": true,
            "errorInfo": "",
            "eventCount": 6,
            "feeRecipient": "0x8f03f1a3f10c05e7cccf75c1fd10168e06659be7",
            "formatValue": "0.482917983624251175",
            "gasLimit": 206248,
            "gasPrice": "218",
            "gasUsed": 176690,
            "intTxnCount": 12,
            "internalRevert": false,
            "internalRevertMessage": "",
            "isContractCreation": false,
            "isFlashloan": false,
            "maxFee": "",
            "nonce": 36,
            "overwritedBlockNumber": -1,
            "priorityFee": "",
            "receiver": "0xe66b31678d6c16e9ebf358268a790b763c133750",
            "revertMessage": "",
            "sender": "0x8deb2fd04daa9b60d5d3f34bf46fa8eda59361b0",
            "simulationEnable": true,
            "sourceTxnHash": "0x511a20cd531c6a2c4e47743b2e841aa2fa76dc62064c52de5a74c78a4ced3b52",
            "status": true,
            "timestamp": "2021-12-05T00:04:32Z",
            "transactionFee": "0.03851842",
            "txnHash": "0x511a20cd531c6a2c4e47743b2e841aa2fa76dc62064c52de5a74c78a4ced3b52",
            "txnIndex": 7,
            "type": 0,
            "value": "482917983624251175"
        },
        "fund_flow": [
            {
                "amount": "0.482917983624251175",
                "from": "0x8deb2fd04daa9b60d5d3f34bf46fa8eda59361b0",
                "id": 1,
                "isERC1155": false,
                "isERC721": false,
                "isReverted": false,
                "order": 1,
                "to": "0xe66b31678d6c16e9ebf358268a790b763c133750",
                "token": "0xeeeeeeeeeeeeeeeeeeeeeeeeeeeeeeeeeeeeeeee"
            },
            {
                "amount": "0.004829179836242511",
                "from": "0xe66b31678d6c16e9ebf358268a790b763c133750",
                "id": 2,
                "isERC1155": false,
                "isERC721": false,
                "isReverted": false,
                "order": 2,
                "to": "0x382ffce2287252f930e1c8dc9328dac5bf282ba1",
                "token": "0xeeeeeeeeeeeeeeeeeeeeeeeeeeeeeeeeeeeeeeee"
            },
            {
                "amount": "0.478088803788008664",
                "from": "0xe66b31678d6c16e9ebf358268a790b763c133750",
                "id": 3,
                "isERC1155": false,
                "isERC721": false,
                "isReverted": false,
                "order": 3,
                "to": "0xdef1c0ded9bec7f1a1670819833240f027b25eff",
                "token": "0xeeeeeeeeeeeeeeeeeeeeeeeeeeeeeeeeeeeeeeee"
            },
            {
                "amount": "0.478088803788008664",
                "from": "0xdef1c0ded9bec7f1a1670819833240f027b25eff",
                "id": 4,
                "isERC1155": false,
                "isERC721": false,
                "isReverted": false,
                "order": 4,
                "to": "0xc02aaa39b223fe8d0a0e5c4f27ead9083c756cc2",
                "token": "0xeeeeeeeeeeeeeeeeeeeeeeeeeeeeeeeeeeeeeeee"
            },
            {
                "amount": "0.478088803788008664",
                "from": "0xc02aaa39b223fe8d0a0e5c4f27ead9083c756cc2",
                "id": 5,
                "isERC1155": false,
                "isERC721": false,
                "isReverted": false,
                "order": 5,
                "to": "0xdef1c0ded9bec7f1a1670819833240f027b25eff",
                "token": "0xc02aaa39b223fe8d0a0e5c4f27ead9083c756cc2"
            },
            {
                "amount": "0.478088803788008664",
                "from": "0xdef1c0ded9bec7f1a1670819833240f027b25eff",
                "id": 6,
                "isERC1155": false,
                "isERC721": false,
                "isReverted": false,
                "order": 6,
                "to": "0x9cbfb60a09a9a33a10312da0f39977cbdb7fde23",
                "token": "0xc02aaa39b223fe8d0a0e5c4f27ead9083c756cc2"
            },
            {
                "amount": "43,273,561,933.619804314",
                "from": "0x9cbfb60a09a9a33a10312da0f39977cbdb7fde23",
                "id": 7,
                "isERC1155": false,
                "isERC721": false,
                "isReverted": false,
                "order": 7,
                "to": "0xe66b31678d6c16e9ebf358268a790b763c133750",
                "token": "0x8b3192f5eebd8579568a2ed41e6feb402f93f73f"
            },
            {
                "amount": "42,408,091,069.46764402",
                "from": "0xe66b31678d6c16e9ebf358268a790b763c133750",
                "id": 8,
                "isERC1155": false,
                "isERC721": false,
                "isReverted": false,
                "order": 8,
                "to": "0x8deb2fd04daa9b60d5d3f34bf46fa8eda59361b0",
                "token": "0x8b3192f5eebd8579568a2ed41e6feb402f93f73f"
            }
        ],
        "token_infos": [
            {
                "address": "0xeeeeeeeeeeeeeeeeeeeeeeeeeeeeeeeeeeeeeeee",
                "decimals": 18
            },
            {
                "address": "0x8b3192f5eebd8579568a2ed41e6feb402f93f73f",
                "decimals": 9
            },
            {
                "address": "0xc02aaa39b223fe8d0a0e5c4f27ead9083c756cc2",
                "decimals": 18
            }
        ]
    },
    "address_label": {
        "labels": [
            {
                "address": "0xf9b30557afcf76ea82c04015d80057fa2147dfa9",
                "label": "UniswapFeature"
            },
            {
                "address": "0x0000000000000000000000000000000000000001",
                "label": "Precompiled"
            },
            {
                "address": "0x0000000000000000000000000000000000000002",
                "label": "Precompiled"
            },
            {
                "address": "0x0000000000000000000000000000000000000003",
                "label": "Precompiled"
            },
            {
                "address": "0x382ffce2287252f930e1c8dc9328dac5bf282ba1",
                "label": "Coinbase Fees"
            },
            {
                "address": "0x8b3192f5eebd8579568a2ed41e6feb402f93f73f",
                "label": "Saitama Inu: Old SAITAMA Token"
            },
            {
                "address": "0x9cbfb60a09a9a33a10312da0f39977cbdb7fde23",
                "label": "Uniswap V2: SAITAMA"
            },
            {
                "address": "0xdef1c0ded9bec7f1a1670819833240f027b25eff",
                "label": "0x: Exchange Proxy"
            },
            {
                "address": "0x0000000000000000000000000000000000000004",
                "label": "Precompiled"
            },
            {
                "address": "0xeeeeeeeeeeeeeeeeeeeeeeeeeeeeeeeeeeeeeeee",
                "label": "Ether"
            },
            {
                "address": "0xc02aaa39b223fe8d0a0e5c4f27ead9083c756cc2",
                "label": "Wrapped Ether (WETH)"
            },
            {
                "address": "0xe66b31678d6c16e9ebf358268a790b763c133750",
                "label": "0x: Coinbase Wallet Proxy"
            }
        ]
    },
    "trace": {
        "accountLabels": null,
        "dataMap": {
            "-1": {
                "invocation": {
                    "address": "0x8deb2fd04daa9b60d5d3f34bf46fa8eda59361b0",
                    "callData": "",
                    "decodedMethod": null,
                    "errorInfo": "",
                    "fromAddress": "",
                    "gasUsed": 0,
                    "id": -1,
                    "methodDecoded": false,
                    "operation": "",
                    "output": "",
                    "revert": false,
                    "revertMessage": "",
                    "selector": "",
                    "status": false,
                    "value": ""
                },
                "nodeType": 0
            },
            "0": {
                "invocation": {
                    "address": "0xe66b31678d6c16e9ebf358268a790b763c133750",
                    "callData": "0x00000000000000000000000000000000000000000000000000000000000000c0000000000000000000000000eeeeeeeeeeeeeeeeeeeeeeeeeeeeeeeeeeeeeeee000000000000000000000000eeeeeeeeeeeeeeeeeeeeeeeeeeeeeeeeeeeeeeee00000000000000000000000000000000000000000000000006a2833be8e02cd80000000000000000000000008b3192f5eebd8579568a2ed41e6feb402f93f73f0000000000000000000000000000000000000000000000000011281d0cb21a4f0000000000000000000000000000000000000000000000000000000000000128d9627aa4000000000000000000000000000000000000000000000000000000000000008000000000000000000000000000000000000000000000000006a2833be8e02cd80000000000000000000000000000000000000000000000025269d07f08f4866200000000000000000000000000000000000000000000000000000000000000000000000000000000000000000000000000000000000000000000000000000002000000000000000000000000eeeeeeeeeeeeeeeeeeeeeeeeeeeeeeeeeeeeeeee0000000000000000000000008b3192f5eebd8579568a2ed41e6feb402f93f73f869584cd000000000000000000000000382ffce2287252f930e1c8dc9328dac5bf282ba1000000000000000000000000000000000000000000000085d5a754ac61ac0213000000000000000000000000000000000000000000000000",
                    "decodedMethod": null,
                    "errorInfo": "",
                    "fromAddress": "0x8deb2fd04daa9b60d5d3f34bf46fa8eda59361b0",
                    "gasUsed": 176690,
                    "id": 0,
                    "methodDecoded": false,
                    "operation": "CALL",
                    "output": "0x00000000000000000000000000000000000000000000000264cc18ec87e99d04",
                    "revert": false,
                    "revertMessage": "",
                    "selector": "0x5cf54026",
                    "status": true,
                    "value": "0.482917983624251175"
                },
                "nodeType": 0
            },
            "1": {
                "invocation": {
                    "address": "0x382ffce2287252f930e1c8dc9328dac5bf282ba1",
                    "callData": "0x",
                    "decodedMethod": null,
                    "errorInfo": "",
                    "fromAddress": "0xe66b31678d6c16e9ebf358268a790b763c133750",
                    "gasUsed": 0,
                    "id": 1,
                    "methodDecoded": false,
                    "operation": "CALL",
                    "output": "",
                    "revert": false,
                    "revertMessage": "",
                    "selector": "fallback",
                    "status": true,
                    "value": "0.004829179836242511"
                },
                "nodeType": 0
            },
            "10": {
                "invocation": {
                    "address": "0x8b3192f5eebd8579568a2ed41e6feb402f93f73f",
                    "callData": "0x000000000000000000000000e66b31678d6c16e9ebf358268a790b763c13375000000000000000000000000000000000000000000000000264cc18ec87e99d04",
                    "decodedMethod": {
                        "callParams": [
                            {
                                "name": "recipient",
                                "type": "address",
                                "value": "0xe66b31678d6c16e9ebf358268a790b763c133750"
                            },
                            {
                                "decimalAvailable": true,
                                "name": "amount",
                                "type": "uint256",
                                "value": "44,156,695,850,632,453,380"
                            }
                        ],
                        "constructorArguments": "",
                        "name": "transfer",
                        "returnParams": [
                            {
                                "name": "",
                                "type": "bool",
                                "value": true
                            }
                        ],
                        "signature": "transfer(address,uint256)"
                    },
                    "errorInfo": "",
                    "fromAddress": "0x9cbfb60a09a9a33a10312da0f39977cbdb7fde23",
                    "gasUsed": 38017,
                    "id": 10,
                    "methodDecoded": true,
                    "operation": "CALL",
                    "output": "0x0000000000000000000000000000000000000000000000000000000000000001",
                    "revert": false,
                    "revertMessage": "",
                    "selector": "0xa9059cbb",
                    "status": true,
                    "value": "0"
                },
                "nodeType": 0
            },
            "11": {
                "event": {
                    "contract": "0x8b3192f5eebd8579568a2ed41e6feb402f93f73f",
                    "decodedLog": {
                        "name": "Transfer",
                        "params": [
                            {
                                "name": "from",
                                "type": "address",
                                "value": "0x9cbfb60a09a9a33a10312da0f39977cbdb7fde23"
                            },
                            {
                                "name": "to",
                                "type": "address",
                                "value": "0xe66b31678d6c16e9ebf358268a790b763c133750"
                            },
                            {
                                "decimalAvailable": true,
                                "name": "value",
                                "type": "uint256",
                                "value": "43,273,561,933,619,804,314"
                            }
                        ],
                        "signature": "Transfer(address,address,uint256)"
                    },
                    "id": 11,
                    "logData": "0x000000000000000000000000000000000000000000000002588a934e3346389a",
                    "logDecoded": true,
                    "operation": "EVENT",
                    "revert": false,
                    "status": true,
                    "topics": [
                        "0xddf252ad1be2c89b69c2b068fc378daa952ba7f163c4a11628f55a4df523b3ef",
                        "0x0000000000000000000000009cbfb60a09a9a33a10312da0f39977cbdb7fde23",
                        "0x000000000000000000000000e66b31678d6c16e9ebf358268a790b763c133750"
                    ]
                },
                "nodeType": 1
            },
            "12": {
                "invocation": {
                    "address": "0x8b3192f5eebd8579568a2ed41e6feb402f93f73f",
                    "callData": "0x0000000000000000000000009cbfb60a09a9a33a10312da0f39977cbdb7fde23",
                    "decodedMethod": {
                        "callParams": [
                            {
                                "name": "account",
                                "type": "address",
                                "value": "0x9cbfb60a09a9a33a10312da0f39977cbdb7fde23"
                            }
                        ],
                        "constructorArguments": "",
                        "name": "balanceOf",
                        "returnParams": [
                            {
                                "decimalAvailable": true,
                                "name": "",
                                "type": "uint256",
                                "value": "270,688,852,312,412,956,895,434"
                            }
                        ],
                        "signature": "balanceOf(address)"
                    },
                    "errorInfo": "",
                    "fromAddress": "0x9cbfb60a09a9a33a10312da0f39977cbdb7fde23",
                    "gasUsed": 2272,
                    "id": 12,
                    "methodDecoded": true,
                    "operation": "STATICCALL",
                    "output": "0x00000000000000000000000000000000000000000000395212744f225d73a8ca",
                    "revert": false,
                    "revertMessage": "",
                    "selector": "0x70a08231",
                    "status": true,
                    "value": "0"
                },
                "nodeType": 0
            },
            "13": {
                "invocation": {
                    "address": "0xc02aaa39b223fe8d0a0e5c4f27ead9083c756cc2",
                    "callData": "0x0000000000000000000000009cbfb60a09a9a33a10312da0f39977cbdb7fde23",
                    "decodedMethod": {
                        "callParams": [
                            {
                                "name": "",
                                "type": "address",
                                "value": "0x9cbfb60a09a9a33a10312da0f39977cbdb7fde23"
                            }
                        ],
                        "constructorArguments": "",
                        "name": "balanceOf",
                        "returnParams": [
                            {
                                "decimalAvailable": true,
                                "name": "",
                                "type": "uint256",
                                "value": "2,922,460,045,265,684,670,805"
                            }
                        ],
                        "signature": "balanceOf(address)"
                    },
                    "errorInfo": "",
                    "fromAddress": "0x9cbfb60a09a9a33a10312da0f39977cbdb7fde23",
                    "gasUsed": 534,
                    "id": 13,
                    "methodDecoded": true,
                    "operation": "STATICCALL",
                    "output": "0x00000000000000000000000000000000000000000000009e6d47c74fed242955",
                    "revert": false,
                    "revertMessage": "",
                    "selector": "0x70a08231",
                    "status": true,
                    "value": "0"
                },
                "nodeType": 0
            },
            "14": {
                "event": {
                    "contract": "0x9cbfb60a09a9a33a10312da0f39977cbdb7fde23",
                    "decodedLog": {
                        "name": "Sync",
                        "params": [
                            {
                                "name": "reserve0",
                                "type": "uint112",
                                "value": "270,688,852,312,412,956,895,434"
                            },
                            {
                                "name": "reserve1",
                                "type": "uint112",
                                "value": "2,922,460,045,265,684,670,805"
                            }
                        ],
                        "signature": "Sync(uint112,uint112)"
                    },
                    "id": 14,
                    "logData": "0x00000000000000000000000000000000000000000000395212744f225d73a8ca00000000000000000000000000000000000000000000009e6d47c74fed242955",
                    "logDecoded": true,
                    "operation": "EVENT",
                    "revert": false,
                    "status": true,
                    "topics": [
                        "0x1c411e9a96e071241c2f21f7726b17ae89e3cab4c78be50e062b03a9fffbbad1"
                    ]
                },
                "nodeType": 1
            },
            "15": {
                "event": {
                    "contract": "0x9cbfb60a09a9a33a10312da0f39977cbdb7fde23",
                    "decodedLog": {
                        "name": "Swap",
                        "params": [
                            {
                                "name": "sender",
                                "type": "address",
                                "value": "0xdef1c0ded9bec7f1a1670819833240f027b25eff"
                            },
                            {
                                "name": "to",
                                "type": "address",
                                "value": "0xe66b31678d6c16e9ebf358268a790b763c133750"
                            },
                            {
                                "name": "amount0In",
                                "type": "uint256",
                                "value": "2,390,545,064,343,197"
                            },
                            {
                                "name": "amount1In",
                                "type": "uint256",
                                "value": "478,088,803,788,008,664"
                            },
                            {
                                "name": "amount0Out",
                                "type": "uint256",
                                "value": "44,156,695,850,632,453,380"
                            },
                            {
                                "name": "amount1Out",
                                "type": "uint256",
                                "value": "0"
                            }
                        ],
                        "signature": "Swap(address,uint256,uint256,uint256,uint256,address)"
                    },
                    "id": 15,
                    "logData": "0x00000000000000000000000000000000000000000000000000087e302561369d00000000000000000000000000000000000000000000000006a2833be8e02cd800000000000000000000000000000000000000000000000264cc18ec87e99d040000000000000000000000000000000000000000000000000000000000000000",
                    "logDecoded": true,
                    "operation": "EVENT",
                    "revert": false,
                    "status": true,
                    "topics": [
                        "0xd78ad95fa46c994b6551d0da85fc275fe613ce37657fb8d5e3d130840159d822",
                        "0x000000000000000000000000def1c0ded9bec7f1a1670819833240f027b25eff",
                        "0x000000000000000000000000e66b31678d6c16e9ebf358268a790b763c133750"
                    ]
                },
                "nodeType": 1
            },
            "16": {
                "invocation": {
                    "address": "0x8b3192f5eebd8579568a2ed41e6feb402f93f73f",
                    "callData": "0x000000000000000000000000e66b31678d6c16e9ebf358268a790b763c133750",
                    "decodedMethod": {
                        "callParams": [
                            {
                                "name": "account",
                                "type": "address",
                                "value": "0xe66b31678d6c16e9ebf358268a790b763c133750"
                            }
                        ],
                        "constructorArguments": "",
                        "name": "balanceOf",
                        "returnParams": [
                            {
                                "decimalAvailable": true,
                                "name": "",
                                "type": "uint256",
                                "value": "43,273,562,315,783,310,224"
                            }
                        ],
                        "signature": "balanceOf(address)"
                    },
                    "errorInfo": "",
                    "fromAddress": "0xe66b31678d6c16e9ebf358268a790b763c133750",
                    "gasUsed": 2272,
                    "id": 16,
                    "methodDecoded": true,
                    "operation": "STATICCALL",
                    "output": "0x000000000000000000000000000000000000000000000002588a93a72dfe8b90",
                    "revert": false,
                    "revertMessage": "",
                    "selector": "0x70a08231",
                    "status": true,
                    "value": "0"
                },
                "nodeType": 0
            },
            "17": {
                "invocation": {
                    "address": "0x8b3192f5eebd8579568a2ed41e6feb402f93f73f",
                    "callData": "0x0000000000000000000000008deb2fd04daa9b60d5d3f34bf46fa8eda59361b0000000000000000000000000000000000000000000000002588a93a72dfe8b90",
                    "decodedMethod": {
                        "callParams": [
                            {
                                "name": "recipient",
                                "type": "address",
                                "value": "0x8deb2fd04daa9b60d5d3f34bf46fa8eda59361b0"
                            },
                            {
                                "decimalAvailable": true,
                                "name": "amount",
                                "type": "uint256",
                                "value": "43,273,562,315,783,310,224"
                            }
                        ],
                        "constructorArguments": "",
                        "name": "transfer",
                        "returnParams": [
                            {
                                "name": "",
                                "type": "bool",
                                "value": true
                            }
                        ],
                        "signature": "transfer(address,uint256)"
                    },
                    "errorInfo": "",
                    "fromAddress": "0xe66b31678d6c16e9ebf358268a790b763c133750",
                    "gasUsed": 15617,
                    "id": 17,
                    "methodDecoded": true,
                    "operation": "CALL",
                    "output": "0x0000000000000000000000000000000000000000000000000000000000000001",
                    "revert": false,
                    "revertMessage": "",
                    "selector": "0xa9059cbb",
                    "status": true,
                    "value": "0"
                },
                "nodeType": 0
            },
            "18": {
                "event": {
                    "contract": "0x8b3192f5eebd8579568a2ed41e6feb402f93f73f",
                    "decodedLog": {
                        "name": "Transfer",
                        "params": [
                            {
                                "name": "from",
                                "type": "address",
                                "value": "0xe66b31678d6c16e9ebf358268a790b763c133750"
                            },
                            {
                                "name": "to",
                                "type": "address",
                                "value": "0x8deb2fd04daa9b60d5d3f34bf46fa8eda59361b0"
                            },
                            {
                                "decimalAvailable": true,
                                "name": "value",
                                "type": "uint256",
                                "value": "42,408,091,069,467,644,020"
                            }
                        ],
                        "signature": "Transfer(address,address,uint256)"
                    },
                    "id": 18,
                    "logData": "0x0000000000000000000000000000000000000000000000024c87ce23d608d074",
                    "logDecoded": true,
                    "operation": "EVENT",
                    "revert": false,
                    "status": true,
                    "topics": [
                        "0xddf252ad1be2c89b69c2b068fc378daa952ba7f163c4a11628f55a4df523b3ef",
                        "0x000000000000000000000000e66b31678d6c16e9ebf358268a790b763c133750",
                        "0x0000000000000000000000008deb2fd04daa9b60d5d3f34bf46fa8eda59361b0"
                    ]
                },
                "nodeType": 1
            },
            "2": {
                "invocation": {
                    "address": "0xdef1c0ded9bec7f1a1670819833240f027b25eff",
                    "callData": "0x000000000000000000000000000000000000000000000000000000000000008000000000000000000000000000000000000000000000000006a2833be8e02cd80000000000000000000000000000000000000000000000025269d07f08f4866200000000000000000000000000000000000000000000000000000000000000000000000000000000000000000000000000000000000000000000000000000002000000000000000000000000eeeeeeeeeeeeeeeeeeeeeeeeeeeeeeeeeeeeeeee0000000000000000000000008b3192f5eebd8579568a2ed41e6feb402f93f73f869584cd000000000000000000000000382ffce2287252f930e1c8dc9328dac5bf282ba1000000000000000000000000000000000000000000000085d5a754ac61ac0213",
                    "decodedMethod": {
                        "callParams": [
                            {
                                "name": "tokens",
                                "type": "address[]",
                                "value": [
                                    "0xeeeeeeeeeeeeeeeeeeeeeeeeeeeeeeeeeeeeeeee",
                                    "0x8b3192f5eebd8579568a2ed41e6feb402f93f73f"
                                ]
                            },
                            {
                                "name": "sellAmount",
                                "type": "uint256",
                                "value": "478,088,803,788,008,664"
                            },
                            {
                                "name": "minBuyAmount",
                                "type": "uint256",
                                "value": "42,831,994,975,113,479,778"
                            },
                            {
                                "name": "isSushi",
                                "type": "bool",
                                "value": false
                            }
                        ],
                        "constructorArguments": "",
                        "name": "sellToUniswap",
                        "returnParams": [
                            {
                                "name": "buyAmount",
                                "type": "uint256",
                                "value": "44,156,695,850,632,453,380"
                            }
                        ],
                        "signature": "sellToUniswap(address[],uint256,uint256,bool)"
                    },
                    "errorInfo": "",
                    "fromAddress": "0xe66b31678d6c16e9ebf358268a790b763c133750",
                    "gasUsed": 112470,
                    "id": 2,
                    "methodDecoded": true,
                    "operation": "CALL",
                    "output": "0x00000000000000000000000000000000000000000000000264cc18ec87e99d04",
                    "revert": false,
                    "revertMessage": "",
                    "selector": "0xd9627aa4",
                    "status": true,
                    "value": "0.478088803788008664"
                },
                "nodeType": 0
            },
            "3": {
                "invocation": {
                    "address": "0xf9b30557afcf76ea82c04015d80057fa2147dfa9",
                    "callData": "0x000000000000000000000000000000000000000000000000000000000000008000000000000000000000000000000000000000000000000006a2833be8e02cd80000000000000000000000000000000000000000000000025269d07f08f4866200000000000000000000000000000000000000000000000000000000000000000000000000000000000000000000000000000000000000000000000000000002000000000000000000000000eeeeeeeeeeeeeeeeeeeeeeeeeeeeeeeeeeeeeeee0000000000000000000000008b3192f5eebd8579568a2ed41e6feb402f93f73f869584cd000000000000000000000000382ffce2287252f930e1c8dc9328dac5bf282ba1000000000000000000000000000000000000000000000085d5a754ac61ac0213",
                    "decodedMethod": {
                        "callParams": [
                            {
                                "name": "tokens",
                                "type": "address[]",
                                "value": [
                                    "0xeeeeeeeeeeeeeeeeeeeeeeeeeeeeeeeeeeeeeeee",
                                    "0x8b3192f5eebd8579568a2ed41e6feb402f93f73f"
                                ]
                            },
                            {
                                "name": "sellAmount",
                                "type": "uint256",
                                "value": "478,088,803,788,008,664"
                            },
                            {
                                "name": "minBuyAmount",
                                "type": "uint256",
                                "value": "42,831,994,975,113,479,778"
                            },
                            {
                                "name": "isSushi",
                                "type": "bool",
                                "value": false
                            }
                        ],
                        "constructorArguments": "",
                        "name": "sellToUniswap",
                        "returnParams": [
                            {
                                "name": "buyAmount",
                                "type": "uint256",
                                "value": "44,156,695,850,632,453,380"
                            }
                        ],
                        "signature": "sellToUniswap(address[],uint256,uint256,bool)"
                    },
                    "errorInfo": "",
                    "fromAddress": "0xdef1c0ded9bec7f1a1670819833240f027b25eff",
                    "gasUsed": 106716,
                    "id": 3,
                    "methodDecoded": true,
                    "operation": "DELEGATECALL",
                    "output": "0x00000000000000000000000000000000000000000000000264cc18ec87e99d04",
                    "revert": false,
                    "revertMessage": "",
                    "selector": "0xd9627aa4",
                    "status": true,
                    "value": "0.478088803788008664"
                },
                "nodeType": 0
            },
            "4": {
                "invocation": {
                    "address": "0xc02aaa39b223fe8d0a0e5c4f27ead9083c756cc2",
                    "callData": "0x",
                    "decodedMethod": {
                        "callParams": [],
                        "constructorArguments": "",
                        "name": "deposit",
                        "returnParams": [],
                        "signature": "deposit()"
                    },
                    "errorInfo": "",
                    "fromAddress": "0xdef1c0ded9bec7f1a1670819833240f027b25eff",
                    "gasUsed": 6874,
                    "id": 4,
                    "methodDecoded": true,
                    "operation": "CALL",
                    "output": "",
                    "revert": false,
                    "revertMessage": "",
                    "selector": "0xd0e30db0",
                    "status": true,
                    "value": "0.478088803788008664"
                },
                "nodeType": 0
            },
            "5": {
                "event": {
                    "contract": "0xc02aaa39b223fe8d0a0e5c4f27ead9083c756cc2",
                    "decodedLog": {
                        "name": "Deposit",
                        "params": [
                            {
                                "name": "dst",
                                "type": "address",
                                "value": "0xdef1c0ded9bec7f1a1670819833240f027b25eff"
                            },
                            {
                                "name": "wad",
                                "type": "uint256",
                                "value": "478,088,803,788,008,664"
                            }
                        ],
                        "signature": "Deposit(address,uint256)"
                    },
                    "id": 5,
                    "logData": "0x00000000000000000000000000000000000000000000000006a2833be8e02cd8",
                    "logDecoded": true,
                    "operation": "EVENT",
                    "revert": false,
                    "status": true,
                    "topics": [
                        "0xe1fffcc4923d04b559f4d29a8bfc6cda04eb5b0d3c460751c2402c5c5cc9109c",
                        "0x000000000000000000000000def1c0ded9bec7f1a1670819833240f027b25eff"
                    ]
                },
                "nodeType": 1
            },
            "6": {
                "invocation": {
                    "address": "0xc02aaa39b223fe8d0a0e5c4f27ead9083c756cc2",
                    "callData": "0x0000000000000000000000009cbfb60a09a9a33a10312da0f39977cbdb7fde2300000000000000000000000000000000000000000000000006a2833be8e02cd8",
                    "decodedMethod": {
                        "callParams": [
                            {
                                "name": "dst",
                                "type": "address",
                                "value": "0x9cbfb60a09a9a33a10312da0f39977cbdb7fde23"
                            },
                            {
                                "decimalAvailable": true,
                                "name": "wad",
                                "type": "uint256",
                                "value": "478,088,803,788,008,664"
                            }
                        ],
                        "constructorArguments": "",
                        "name": "transfer",
                        "returnParams": [
                            {
                                "name": "",
                                "type": "bool",
                                "value": true
                            }
                        ],
                        "signature": "transfer(address,uint256)"
                    },
                    "errorInfo": "",
                    "fromAddress": "0xdef1c0ded9bec7f1a1670819833240f027b25eff",
                    "gasUsed": 8062,
                    "id": 6,
                    "methodDecoded": true,
                    "operation": "CALL",
                    "output": "0x0000000000000000000000000000000000000000000000000000000000000001",
                    "revert": false,
                    "revertMessage": "",
                    "selector": "0xa9059cbb",
                    "status": true,
                    "value": "0"
                },
                "nodeType": 0
            },
            "7": {
                "event": {
                    "contract": "0xc02aaa39b223fe8d0a0e5c4f27ead9083c756cc2",
                    "decodedLog": {
                        "name": "Transfer",
                        "params": [
                            {
                                "name": "src",
                                "type": "address",
                                "value": "0xdef1c0ded9bec7f1a1670819833240f027b25eff"
                            },
                            {
                                "name": "dst",
                                "type": "address",
                                "value": "0x9cbfb60a09a9a33a10312da0f39977cbdb7fde23"
                            },
                            {
                                "decimalAvailable": true,
                                "name": "wad",
                                "type": "uint256",
                                "value": "478,088,803,788,008,664"
                            }
                        ],
                        "signature": "Transfer(address,address,uint256)"
                    },
                    "id": 7,
                    "logData": "0x00000000000000000000000000000000000000000000000006a2833be8e02cd8",
                    "logDecoded": true,
                    "operation": "EVENT",
                    "revert": false,
                    "status": true,
                    "topics": [
                        "0xddf252ad1be2c89b69c2b068fc378daa952ba7f163c4a11628f55a4df523b3ef",
                        "0x000000000000000000000000def1c0ded9bec7f1a1670819833240f027b25eff",
                        "0x0000000000000000000000009cbfb60a09a9a33a10312da0f39977cbdb7fde23"
                    ]
                },
                "nodeType": 1
            },
            "8": {
                "invocation": {
                    "address": "0x9cbfb60a09a9a33a10312da0f39977cbdb7fde23",
                    "callData": "0x",
                    "decodedMethod": {
                        "callParams": [],
                        "constructorArguments": "",
                        "name": "getReserves",
                        "returnParams": [
                            {
                                "name": "_reserve0",
                                "type": "uint112",
                                "value": "270,733,006,617,718,525,005,617"
                            },
                            {
                                "name": "_reserve1",
                                "type": "uint112",
                                "value": "2,921,981,956,461,896,662,141"
                            },
                            {
                                "name": "_blockTimestampLast",
                                "type": "uint32",
                                "value": "1,638,662,671"
                            }
                        ],
                        "signature": "getReserves()"
                    },
                    "errorInfo": "",
                    "fromAddress": "0xdef1c0ded9bec7f1a1670819833240f027b25eff",
                    "gasUsed": 2504,
                    "id": 8,
                    "methodDecoded": true,
                    "operation": "STATICCALL",
                    "output": "0x0000000000000000000000000000000000000000000039547737e9debffc0f3100000000000000000000000000000000000000000000009e66a544140443fc7d0000000000000000000000000000000000000000000000000000000061ac020f",
                    "revert": false,
                    "revertMessage": "",
                    "selector": "0x0902f1ac",
                    "status": true,
                    "value": "0"
                },
                "nodeType": 0
            },
            "9": {
                "invocation": {
                    "address": "0x9cbfb60a09a9a33a10312da0f39977cbdb7fde23",
                    "callData": "0x00000000000000000000000000000000000000000000000264cc18ec87e99d040000000000000000000000000000000000000000000000000000000000000000000000000000000000000000e66b31678d6c16e9ebf358268a790b763c13375000000000000000000000000000000000000000000000000000000000000000800000000000000000000000000000000000000000000000000000000000000000",
                    "decodedMethod": {
                        "callParams": [
                            {
                                "name": "amount0Out",
                                "type": "uint256",
                                "value": "44,156,695,850,632,453,380"
                            },
                            {
                                "name": "amount1Out",
                                "type": "uint256",
                                "value": "0"
                            },
                            {
                                "name": "to",
                                "type": "address",
                                "value": "0xe66b31678d6c16e9ebf358268a790b763c133750"
                            },
                            {
                                "name": "data",
                                "type": "bytes",
                                "value": "0x"
                            }
                        ],
                        "constructorArguments": "",
                        "name": "swap",
                        "returnParams": [],
                        "signature": "swap(uint256,uint256,address,bytes)"
                    },
                    "errorInfo": "",
                    "fromAddress": "0xdef1c0ded9bec7f1a1670819833240f027b25eff",
                    "gasUsed": 74643,
                    "id": 9,
                    "methodDecoded": true,
                    "operation": "CALL",
                    "output": "",
                    "revert": false,
                    "revertMessage": "",
                    "selector": "0x022c0d9f",
                    "status": true,
                    "value": "0"
                },
                "nodeType": 0
            }
        },
        "gasFlame": [
            {
                "children": [
                    {
                        "children": [
                            {
                                "children": [],
                                "depth": 0,
                                "name": "Initial Gas",
                                "value": 25328
                            },
                            {
                                "children": [
                                    {
                                        "children": [],
                                        "depth": 1,
                                        "name": "fallback",
                                        "value": 0
                                    },
                                    {
                                        "children": [
                                            {
                                                "children": [
                                                    {
                                                        "children": [],
                                                        "depth": 3,
                                                        "name": "deposit",
                                                        "value": 6874
                                                    },
                                                    {
                                                        "children": [],
                                                        "depth": 3,
                                                        "name": "transfer",
                                                        "value": 8062
                                                    },
                                                    {
                                                        "children": [],
                                                        "depth": 3,
                                                        "name": "getReserves",
                                                        "value": 2504
                                                    },
                                                    {
                                                        "children": [
                                                            {
                                                                "children": [],
                                                                "depth": 4,
                                                                "name": "transfer",
                                                                "value": 38017
                                                            },
                                                            {
                                                                "children": [],
                                                                "depth": 4,
                                                                "name": "balanceOf",
                                                                "value": 2272
                                                            },
                                                            {
                                                                "children": [],
                                                                "depth": 4,
                                                                "name": "balanceOf",
                                                                "value": 534
                                                            }
                                                        ],
                                                        "depth": 3,
                                                        "name": "swap",
                                                        "value": 74643
                                                    }
                                                ],
                                                "depth": 2,
                                                "name": "sellToUniswap",
                                                "value": 106716
                                            }
                                        ],
                                        "depth": 1,
                                        "name": "sellToUniswap",
                                        "value": 112470
                                    },
                                    {
                                        "children": [],
                                        "depth": 1,
                                        "name": "balanceOf",
                                        "value": 2272
                                    },
                                    {
                                        "children": [],
                                        "depth": 1,
                                        "name": "transfer",
                                        "value": 15617
                                    }
                                ],
                                "depth": 0,
                                "name": "Executed Gas",
                                "value": 156962
                            }
                        ],
                        "depth": -1,
                        "name": "Actual Gas Used",
                        "value": 176690
                    },
                    {
                        "children": [],
                        "depth": -1,
                        "name": "Refunded Gas",
                        "value": 5600
                    }
                ],
                "depth": -2,
                "name": "Total Gas",
                "value": 182290
            }
        ],
        "isConfirmed": true,
        "mainTrace": [
            {
                "children": [
                    {
                        "children": [
                            {
                                "children": [],
                                "depth": 1,
                                "id": 1,
                                "order": 1
                            },
                            {
                                "children": [
                                    {
                                        "children": [
                                            {
                                                "children": [
                                                    {
                                                        "children": [],
                                                        "depth": 4,
                                                        "id": 5,
                                                        "order": 5
                                                    }
                                                ],
                                                "depth": 3,
                                                "id": 4,
                                                "order": 4
                                            },
                                            {
                                                "children": [
                                                    {
                                                        "children": [],
                                                        "depth": 4,
                                                        "id": 7,
                                                        "order": 7
                                                    }
                                                ],
                                                "depth": 3,
                                                "id": 6,
                                                "order": 6
                                            },
                                            {
                                                "children": [],
                                                "depth": 3,
                                                "id": 8,
                                                "order": 8
                                            },
                                            {
                                                "children": [
                                                    {
                                                        "children": [
                                                            {
                                                                "children": [],
                                                                "depth": 5,
                                                                "id": 11,
                                                                "order": 11
                                                            }
                                                        ],
                                                        "depth": 4,
                                                        "id": 10,
                                                        "order": 10
                                                    },
                                                    {
                                                        "children": [],
                                                        "depth": 4,
                                                        "id": 12,
                                                        "order": 12
                                                    },
                                                    {
                                                        "children": [],
                                                        "depth": 4,
                                                        "id": 13,
                                                        "order": 13
                                                    },
                                                    {
                                                        "children": [],
                                                        "depth": 4,
                                                        "id": 14,
                                                        "order": 14
                                                    },
                                                    {
                                                        "children": [],
                                                        "depth": 4,
                                                        "id": 15,
                                                        "order": 15
                                                    }
                                                ],
                                                "depth": 3,
                                                "id": 9,
                                                "order": 9
                                            }
                                        ],
                                        "depth": 2,
                                        "id": 3,
                                        "order": 3
                                    }
                                ],
                                "depth": 1,
                                "id": 2,
                                "order": 2
                            },
                            {
                                "children": [],
                                "depth": 1,
                                "id": 16,
                                "order": 16
                            },
                            {
                                "children": [
                                    {
                                        "children": [],
                                        "depth": 2,
                                        "id": 18,
                                        "order": 18
                                    }
                                ],
                                "depth": 1,
                                "id": 17,
                                "order": 17
                            }
                        ],
                        "depth": 0,
                        "id": 0,
                        "order": 0
                    }
                ],
                "depth": -1,
                "id": -1,
                "order": -1
            }
        ],
        "mainTraceNodeCount": 19,
        "parentIdMap": {
            "0": -1,
            "1": 0,
            "10": 9,
            "11": 10,
            "12": 9,
            "13": 9,
            "14": 9,
            "15": 9,
            "16": 0,
            "17": 0,
            "18": 17,
            "2": 0,
            "3": 2,
            "4": 3,
            "5": 4,
            "6": 3,
            "7": 6,
            "8": 3,
            "9": 3
        },
        "tidyTrace": [
            {
                "children": [
                    {
                        "children": [
                            {
                                "children": [],
                                "depth": 1,
                                "id": 1,
                                "order": 1
                            },
                            {
                                "children": [
                                    {
                                        "children": [
                                            {
                                                "children": [
                                                    {
                                                        "children": [],
                                                        "depth": 4,
                                                        "id": 5,
                                                        "order": 5
                                                    }
                                                ],
                                                "depth": 3,
                                                "id": 4,
                                                "order": 4
                                            },
                                            {
                                                "children": [
                                                    {
                                                        "children": [],
                                                        "depth": 4,
                                                        "id": 7,
                                                        "order": 7
                                                    }
                                                ],
                                                "depth": 3,
                                                "id": 6,
                                                "order": 6
                                            },
                                            {
                                                "children": [
                                                    {
                                                        "children": [
                                                            {
                                                                "children": [],
                                                                "depth": 5,
                                                                "id": 11,
                                                                "order": 11
                                                            }
                                                        ],
                                                        "depth": 4,
                                                        "id": 10,
                                                        "order": 10
                                                    },
                                                    {
                                                        "children": [],
                                                        "depth": 4,
                                                        "id": 14,
                                                        "order": 14
                                                    },
                                                    {
                                                        "children": [],
                                                        "depth": 4,
                                                        "id": 15,
                                                        "order": 15
                                                    }
                                                ],
                                                "depth": 3,
                                                "id": 9,
                                                "order": 9
                                            }
                                        ],
                                        "depth": 2,
                                        "id": 3,
                                        "order": 3
                                    }
                                ],
                                "depth": 1,
                                "id": 2,
                                "order": 2
                            },
                            {
                                "children": [
                                    {
                                        "children": [],
                                        "depth": 2,
                                        "id": 18,
                                        "order": 18
                                    }
                                ],
                                "depth": 1,
                                "id": 17,
                                "order": 17
                            }
                        ],
                        "depth": 0,
                        "id": 0,
                        "order": 0
                    }
                ],
                "depth": -1,
                "id": -1,
                "order": -1
            }
        ],
        "tidyTraceNodeCount": 15
    },
    "state_change": {
        "stateChanges": [
            {
                "address": "0x8b3192f5eebd8579568a2ed41e6feb402f93f73f",
                "erc": "ERC-20",
                "slots": [
                    {
                        "current": "0x00000000000000000000021c50f1a556f8d58322d507e382dca1e77e7d412ea7",
                        "key": "0x5d0c6a47c027b68914ab5918468453f17b2f700aa32f331226a88cd4df7aeae8",
                        "prev": "0x00000000000000000000015d5362d16ec40e30e8976ec494d861f1f4858264f1"
                    },
                    {
                        "current": "0xd734f44e8b111979892d6ee0a94266ef513b1744fea8ca316f47213396aa078a",
                        "key": "0x0000000000000000000000000000000000000000000000000000000000000006",
                        "prev": "0xd734f48dad894e4822ae00d91cceebd4f5ae2dd180c6a93d955978a957c605f4"
                    },
                    {
                        "current": "0x00007ad4bf31e67cf9a979d98d56ad5f90f116d51e11b9a6812317090bc98efe",
                        "key": "0xae1ad3bb09ba9705100d051f305a8b3a5da822f199c50cb367a1f347b0cf1fa0",
                        "prev": "0x000074d9927e6ed5b9d54e0f115c842b70963912113fd452009611ad2d764622"
                    },
                    {
                        "current": "0x0000000000000000000000000000000000000000000e597f3f594384a116a56e",
                        "key": "0x0000000000000000000000000000000000000000000000000000000000000007",
                        "prev": "0x0000000000000000000000000000000000000000000e597f2714f862f47d85e8"
                    },
                    {
                        "current": "0x00952167997d09a88f20521a8996e593e8e98bef75049e2d73bc4c777a4636af",
                        "key": "0x38402a1112572b94f3ae0210c4d91db96dd5779e685b8af0cb890333acd7b505",
                        "prev": "0x009527a1e8a8b61e6875109c76ac6795e27ed279418d817c1e9b9ed3117447ab"
                    }
                ],
                "storageVariables": [
                    {
                        "name": "_tFeeTotal",
                        "type": "uint256",
                        "value": {
                            "current": "17347599392831502217028974",
                            "prev": "17347597644226338888713704",
                            "typeTag": 1
                        }
                    },
                    {
                        "name": "_rOwned",
                        "type": "mapping(address => uint256)",
                        "value": {
                            "pairs": [
                                {
                                    "key": "0x8deb2fd04daa9b60d5d3f34bf46fa8eda59361b0",
                                    "value": {
                                        "current": "847748698177404471800507040498363592387728848253559576574218172415708926",
                                        "prev": "806468312260559017300602076666876998510394663221041268193280082241275426",
                                        "typeTag": 1
                                    }
                                },
                                {
                                    "key": "0x9cbfb60a09a9a33a10312da0f39977cbdb7fde23",
                                    "value": {
                                        "current": "263490763320148233439268161940148941333507843683914577282040718419288274607",
                                        "prev": "263533745812773020459778558622703819749108023292851470965252378994714888107",
                                        "typeTag": 1
                                    }
                                },
                                {
                                    "key": "0xe66b31678d6c16e9ebf358268a790b763c133750",
                                    "value": {
                                        "current": "789672992303068548329687848338496696017652728016551",
                                        "prev": "510540121379652375605173332009515102402745402025201",
                                        "typeTag": 1
                                    }
                                }
                            ],
                            "typeTag": 4
                        }
                    },
                    {
                        "name": "_rTotal",
                        "type": "uint256",
                        "value": {
                            "current": "97340824636400649293359126362136952642573237777548172577427273961436357461898",
                            "prev": "97340826338507357234925136574722805110978787898457560623820511069014283650548",
                            "typeTag": 1
                        }
                    }
                ]
            },
            {
                "address": "0x9cbfb60a09a9a33a10312da0f39977cbdb7fde23",
                "erc": "ERC-20",
                "slots": [
                    {
                        "current": "0x000000000000000000000000000000012d7e3d3e81fbb0fb006afe010167cdb0",
                        "key": "0x0000000000000000000000000000000000000000000000000000000000000009",
                        "prev": "0x000000000000000000000000000000012d7e3a7b2fee761b9658dc33d614862e"
                    },
                    {
                        "current": "0x000000000000000000000000006d7aaff37412eedb03ad7e077a10943ce6a2ee",
                        "key": "0x000000000000000000000000000000000000000000000000000000000000000a",
                        "prev": "0x000000000000000000000000006d7aaff3176b89414094b2eb108f68f9b391b5"
                    },
                    {
                        "current": "0x61ac021000000000009e6d47c74fed24295500000000395212744f225d73a8ca",
                        "key": "0x0000000000000000000000000000000000000000000000000000000000000008",
                        "prev": "0x61ac020f00000000009e66a544140443fc7d0000000039547737e9debffc0f31"
                    }
                ],
                "storageVariables": [
                    {
                        "name": "price1CumulativeLast",
                        "type": "uint256",
                        "value": {
                            "current": "2441468798542817255531191966092377493229445870",
                            "prev": "2441468798061730732510699933586082125126537653",
                            "typeTag": 1
                        }
                    },
                    {
                        "name": "reserve0",
                        "type": "uint112",
                        "value": {
                            "current": "270688852312412956895434",
                            "prev": "270733006617718525005617",
                            "typeTag": 1
                        }
                    },
                    {
                        "name": "reserve1",
                        "type": "uint112",
                        "value": {
                            "current": "2922460045265684670805",
                            "prev": "2921981956461896662141",
                            "typeTag": 1
                        }
                    },
                    {
                        "name": "blockTimestampLast",
                        "type": "uint32",
                        "value": {
                            "current": "1638662672",
                            "prev": "1638662671",
                            "typeTag": 1
                        }
                    },
                    {
                        "name": "price0CumulativeLast",
                        "type": "uint256",
                        "value": {
                            "current": "400753098314794807075866208238725221808",
                            "prev": "400753042275090144631451100229116659246",
                            "typeTag": 1
                        }
                    }
                ]
            },
            {
                "address": "0xc02aaa39b223fe8d0a0e5c4f27ead9083c756cc2",
                "erc": "ERC-20",
                "slots": [
                    {
                        "current": "0x00000000000000000000000000000000000000000000009e6d47c74fed242955",
                        "key": "0xdf29a6c4d759a2eb5672c49e042e19a1c09dda4c923ce4e135a3d384e03afd61",
                        "prev": "0x00000000000000000000000000000000000000000000009e66a544140443fc7d"
                    }
                ],
                "storageVariables": [
                    {
                        "name": "balanceOf",
                        "type": "mapping(address => uint256)",
                        "value": {
                            "pairs": [
                                {
                                    "key": "0x9cbfb60a09a9a33a10312da0f39977cbdb7fde23",
                                    "value": {
                                        "current": "2922460045265684670805",
                                        "prev": "2921981956461896662141",
                                        "typeTag": 1
                                    }
                                }
                            ],
                            "typeTag": 4
                        }
                    }
                ]
            }
        ]
    }
}