{
    "balance_change": {
        "balanceChanges": [
            {
                "account": "0xfb90835d33e7ca1b5f7fabbf897fbf6e6299638b",
                "assets": [
                    {
                        "address": "0xeeeeeeeeeeeeeeeeeeeeeeeeeeeeeeeeeeeeeeee",
                        "amount": "0.01",
                        "iconUrl": "https://assets.blocksec.com/image/1663669189317-3.png",
                        "isERC1155": false,
                        "isERC721": false,
                        "sign": false,
                        "value": ""
                    },
                    {
                        "address": "0x2af75676692817d85121353f0d6e8e9ae6ad5576",
                        "amount": "2",
                        "iconUrl": "",
                        "isERC1155": false,
                        "isERC721": true,
                        "sign": true,
                        "tokenID": "57901352115518672989640171449677812196039726878478726934554285721815674258559",
                        "value": ""
                    }
                ]
            },
            {
                "account": "0x5b3256965e7c3cf26e11fcaf296dfc8807c01073",
                "assets": [
                    {
                        "address": "0xeeeeeeeeeeeeeeeeeeeeeeeeeeeeeeeeeeeeeeee",
                        "amount": "0.0006",
                        "iconUrl": "https://assets.blocksec.com/image/1663669189317-3.png",
                        "isERC1155": false,
                        "isERC721": false,
                        "sign": true,
                        "value": ""
                    }
                ]
            },
            {
                "account": "0x7d21dac0342215cf5c4b46d0300bbf8c9c5978cd",
                "assets": [
                    {
                        "address": "0x2af75676692817d85121353f0d6e8e9ae6ad5576",
                        "amount": "2",
                        "iconUrl": "",
                        "isERC1155": false,
                        "isERC721": true,
                        "sign": false,
                        "tokenID": "57901352115518672989640171449677812196039726878478726934554285721815674258559",
                        "value": ""
                    },
                    {
                        "address": "0xeeeeeeeeeeeeeeeeeeeeeeeeeeeeeeeeeeeeeeee",
                        "amount": "0.0094",
                        "iconUrl": "https://assets.blocksec.com/image/1663669189317-3.png",
                        "isERC1155": false,
                        "isERC721": false,
                        "sign": true,
                        "value": ""
                    }
                ]
            }
        ]
    },
    "profile": {
        "basic_info": {
            "baseFee": "",
            "blockNumber": 9709940,
            "callData": "0xab834bab0000000000000000000000007be8076f4ea4a4ad08075c2508e481d6c946d12b000000000000000000000000fb90835d33e7ca1b5f7fabbf897fbf6e6299638b0000000000000000000000007d21dac0342215cf5c4b46d0300bbf8c9c5978cd00000000000000000000000000000000000000000000000000000000000000000000000000000000000000002af75676692817d85121353f0d6e8e9ae6ad5576000000000000000000000000000000000000000000000000000000000000000000000000000000000000000000000000000000000000000000000000000000000000000000000000000000007be8076f4ea4a4ad08075c2508e481d6c946d12b0000000000000000000000007d21dac0342215cf5c4b46d0300bbf8c9c5978cd00000000000000000000000000000000000000000000000000000000000000000000000000000000000000005b3256965e7c3cf26e11fcaf296dfc8807c010730000000000000000000000002af75676692817d85121353f0d6e8e9ae6ad5576000000000000000000000000000000000000000000000000000000000000000000000000000000000000000000000000000000000000000000000000000000000000000000000000000000000000000000000000000000000000000000000258000000000000000000000000000000000000000000000000000000000000000000000000000000000000000000000000000000000000000000000000000000000000000000000000000000000000000000000000000000000000000000000000000000000000000000000000000000000000000000000000002386f26fc100000000000000000000000000000000000000000000000000000000000000000000000000000000000000000000000000000000000000000000000000005e74fe9e000000000000000000000000000000000000000000000000000000000000000061eaaa73b89fc68c05f5d6294862b349bee44bdf4e0040a174f5e77bc7ba7c590000000000000000000000000000000000000000000000000000000000000258000000000000000000000000000000000000000000000000000000000000000000000000000000000000000000000000000000000000000000000000000000000000000000000000000000000000000000000000000000000000000000000000000000000000000000000000000000000000000000000000002386f26fc100000000000000000000000000000000000000000000000000000000000000000000000000000000000000000000000000000000000000000000000000005e74505f000000000000000000000000000000000000000000000000000000000000000042b74bbb018b39858a5a4d05752394294f74a23cccb1952a30884ca839906c3a0000000000000000000000000000000000000000000000000000000000000001000000000000000000000000000000000000000000000000000000000000000000000000000000000000000000000000000000000000000000000000000000000000000000000000000000000000000000000000000000000000000000000000000000000000000000000000000000000000000000000000000000000000000100000000000000000000000000000000000000000000000000000000000000010000000000000000000000000000000000000000000000000000000000000000000000000000000000000000000000000000000000000000000000000000000000000000000000000000000000000000000000000000000000000000000006a000000000000000000000000000000000000000000000000000000000000007a000000000000000000000000000000000000000000000000000000000000008a000000000000000000000000000000000000000000000000000000000000009a00000000000000000000000000000000000000000000000000000000000000aa00000000000000000000000000000000000000000000000000000000000000ac0000000000000000000000000000000000000000000000000000000000000001b000000000000000000000000000000000000000000000000000000000000001bd705e03c681aa5657736d1b4ac39af4acdab24695cf99db34b4f39d5d577ff1166074ed0456dee1216238782a1b530c91c21daba0a11f73c65747073a2578252d705e03c681aa5657736d1b4ac39af4acdab24695cf99db34b4f39d5d577ff1166074ed0456dee1216238782a1b530c91c21daba0a11f73c65747073a2578252000000000000000000000000000000000000000000000000000000000000000000000000000000000000000000000000000000000000000000000000000000c4f242432a0000000000000000000000000000000000000000000000000000000000000000000000000000000000000000fb90835d33e7ca1b5f7fabbf897fbf6e6299638b80030102000000000009000000000000e9004f00ad000000000000000000047f000000000000000000000000000000000000000000000000000000000000000100000000000000000000000000000000000000000000000000000000000000a000000000000000000000000000000000000000000000000000000000000000000000000000000000000000000000000000000000000000000000000000000000000000000000000000000000000000000000000000000000000000c4f242432a0000000000000000000000007d21dac0342215cf5c4b46d0300bbf8c9c5978cd000000000000000000000000000000000000000000000000000000000000000080030102000000000009000000000000e9004f00ad000000000000000000047f000000000000000000000000000000000000000000000000000000000000000100000000000000000000000000000000000000000000000000000000000000a000000000000000000000000000000000000000000000000000000000000000000000000000000000000000000000000000000000000000000000000000000000000000000000000000000000000000000000000000000000000000c400000000ffffffffffffffffffffffffffffffffffffffffffffffffffffffffffffffff000000000000000000000000000000000000000000000000000000000000000000000000000000000000000000000000000000000000000000000000000000000000000000000000000000000000000000000000000000000000000000000000000000000000000000000000000000000000000000000000000000000000000000000000000000000000000000000000000000000000000000000000000000000000000000000000000000000000000000000000000000000000000000000000000000000000000000000000000000000000000000000000000000c4000000000000000000000000000000000000000000000000000000000000000000000000ffffffffffffffffffffffffffffffffffffffffffffffffffffffffffffffff00000000000000000000000000000000000000000000000000000000000000000000000000000000000000000000000000000000000000000000000000000000000000000000000000000000000000000000000000000000000000000000000000000000000000000000000000000000000000000000000000000000000000000000000000000000000000000000000000000000000000000000000000000000000000000000000000000000000000000000000000000000000000000000000000000000000000000000000000000000000000000000000000000000",
            "debugEnable": true,
            "errorInfo": "",
            "eventCount": 3,
            "feeRecipient": "0x4c549990a7ef3fea8784406c1eecc98bf4211fa5",
            "formatValue": "0.01",
            "gasLimit": 214463,
            "gasPrice": "1.660981434",
            "gasUsed": 189325,
            "intTxnCount": 10,
            "internalRevert": false,
            "internalRevertMessage": "",
            "isContractCreation": false,
            "isFlashloan": false,
            "maxFee": "",
            "nonce": 94,
            "overwritedBlockNumber": -1,
            "priorityFee": "",
            "receiver": "0x7be8076f4ea4a4ad08075c2508e481d6c946d12b",
            "revertMessage": "",
            "sender": "0xfb90835d33e7ca1b5f7fabbf897fbf6e6299638b",
            "simulationEnable": true,
            "sourceTxnHash": "0x51b3d1c9447421ba18fd2b6a18dbf924d2c6b93f7473f0cf5ed7074bd41f823d",
            "status": true,
            "timestamp": "2020-03-20T17:42:10Z",
            "transactionFee": "0.00031446530999205",
            "txnHash": "0x51b3d1c9447421ba18fd2b6a18dbf924d2c6b93f7473f0cf5ed7074bd41f823d",
            "txnIndex": 51,
            "type": 0,
            "value": "10000000000000000"
        },
        "fund_flow": [
            {
                "amount": "0.01",
                "from": "0xfb90835d33e7ca1b5f7fabbf897fbf6e6299638b",
                "id": 1,
                "isERC1155": false,
                "isERC721": false,
                "isReverted": false,
                "order": 1,
                "to": "0x7be8076f4ea4a4ad08075c2508e481d6c946d12b",
                "token": "0xeeeeeeeeeeeeeeeeeeeeeeeeeeeeeeeeeeeeeeee"
            },
            {
                "amount": "0.0006",
                "from": "0x7be8076f4ea4a4ad08075c2508e481d6c946d12b",
                "id": 2,
                "isERC1155": false,
                "isERC721": false,
                "isReverted": false,
                "order": 2,
                "to": "0x5b3256965e7c3cf26e11fcaf296dfc8807c01073",
                "token": "0xeeeeeeeeeeeeeeeeeeeeeeeeeeeeeeeeeeeeeeee"
            },
            {
                "amount": "0.0094",
                "from": "0x7be8076f4ea4a4ad08075c2508e481d6c946d12b",
                "id": 3,
                "isERC1155": false,
                "isERC721": false,
                "isReverted": false,
                "order": 3,
                "to": "0x7d21dac0342215cf5c4b46d0300bbf8c9c5978cd",
                "token": "0xeeeeeeeeeeeeeeeeeeeeeeeeeeeeeeeeeeeeeeee"
            },
            {
                "amount": "2",
                "from": "0x7d21dac0342215cf5c4b46d0300bbf8c9c5978cd",
                "id": 4,
                "isERC1155": false,
                "isERC721": true,
                "isReverted": false,
                "order": 4,
                "to": "0xfb90835d33e7ca1b5f7fabbf897fbf6e6299638b",
                "token": "0x2af75676692817d85121353f0d6e8e9ae6ad5576",
                "tokenID": "57901352115518672989640171449677812196039726878478726934554285721815674258559"
            }
        ],
        "token_infos": [
            {
                "address": "0xc02aaa39b223fe8d0a0e5c4f27ead9083c756cc2",
                "decimals": 18
            },
            {
                "address": "0xeeeeeeeeeeeeeeeeeeeeeeeeeeeeeeeeeeeeeeee",
                "decimals": 18
            }
        ]
    },
    "address_label": {
        "labels": [
            {
                "address": "0xa5409ec958c83c3f309868babaca7c86dcb077c1",
                "label": "OpenSea: Registry"
            },
            {
                "address": "0x5b3256965e7c3cf26e11fcaf296dfc8807c01073",
                "label": "OpenSea: Wallet"
            },
            {
                "address": "0x7be8076f4ea4a4ad08075c2508e481d6c946d12b",
                "label": "OpenSea: Wyvern Exchange v1"
            },
            {
                "address": "0x9c4fd58ecf57c218fc9d4abaf44ed8626f97f9f3",
                "label": "OwnableDelegateProxy"
            },
            {
                "address": "0xf9e266af4bca5890e2781812cc6a6e89495a79f2",
                "label": "AuthenticatedProxy"
            },
            {
                "address": "0x2af75676692817d85121353f0d6e8e9ae6ad5576",
                "label": "F1\u00ae Delta Time: F1DTI Token"
            },
            {
                "address": "0x0000000000000000000000000000000000000001",
                "label": "Precompiled"
            },
            {
                "address": "0xeeeeeeeeeeeeeeeeeeeeeeeeeeeeeeeeeeeeeeee",
                "label": "Ether"
            },
            {
                "address": "0x0000000000000000000000000000000000000000",
                "label": "Null Address"
            },
            {
                "address": "0x0000000000000000000000000000000000000002",
                "label": "Precompiled"
            },
            {
                "address": "0x0000000000000000000000000000000000000003",
                "label": "Precompiled"
            },
            {
                "address": "0x0000000000000000000000000000000000000004",
                "label": "Precompiled"
            }
        ]
    },
    "trace": {
        "accountLabels": null,
        "dataMap": {
            "-1": {
                "invocation": {
                    "address": "0xfb90835d33e7ca1b5f7fabbf897fbf6e6299638b",
                    "callData": "",
                    "decodedMethod": null,
                    "errorInfo": "",
                    "fromAddress": "",
                    "gasUsed": 0,
                    "id": -1,
                    "methodDecoded": false,
                    "operation": "",
                    "output": "",
                    "revert": false,
                    "revertMessage": "",
                    "selector": "",
                    "status": false,
                    "value": ""
                },
                "nodeType": 0
            },
            "0": {
                "invocation": {
                    "address": "0x7be8076f4ea4a4ad08075c2508e481d6c946d12b",
                    "callData": "0x0000000000000000000000007be8076f4ea4a4ad08075c2508e481d6c946d12b000000000000000000000000fb90835d33e7ca1b5f7fabbf897fbf6e6299638b0000000000000000000000007d21dac0342215cf5c4b46d0300bbf8c9c5978cd00000000000000000000000000000000000000000000000000000000000000000000000000000000000000002af75676692817d85121353f0d6e8e9ae6ad5576000000000000000000000000000000000000000000000000000000000000000000000000000000000000000000000000000000000000000000000000000000000000000000000000000000007be8076f4ea4a4ad08075c2508e481d6c946d12b0000000000000000000000007d21dac0342215cf5c4b46d0300bbf8c9c5978cd00000000000000000000000000000000000000000000000000000000000000000000000000000000000000005b3256965e7c3cf26e11fcaf296dfc8807c010730000000000000000000000002af75676692817d85121353f0d6e8e9ae6ad5576000000000000000000000000000000000000000000000000000000000000000000000000000000000000000000000000000000000000000000000000000000000000000000000000000000000000000000000000000000000000000000000258000000000000000000000000000000000000000000000000000000000000000000000000000000000000000000000000000000000000000000000000000000000000000000000000000000000000000000000000000000000000000000000000000000000000000000000000000000000000000000000000002386f26fc100000000000000000000000000000000000000000000000000000000000000000000000000000000000000000000000000000000000000000000000000005e74fe9e000000000000000000000000000000000000000000000000000000000000000061eaaa73b89fc68c05f5d6294862b349bee44bdf4e0040a174f5e77bc7ba7c590000000000000000000000000000000000000000000000000000000000000258000000000000000000000000000000000000000000000000000000000000000000000000000000000000000000000000000000000000000000000000000000000000000000000000000000000000000000000000000000000000000000000000000000000000000000000000000000000000000000000000002386f26fc100000000000000000000000000000000000000000000000000000000000000000000000000000000000000000000000000000000000000000000000000005e74505f000000000000000000000000000000000000000000000000000000000000000042b74bbb018b39858a5a4d05752394294f74a23cccb1952a30884ca839906c3a0000000000000000000000000000000000000000000000000000000000000001000000000000000000000000000000000000000000000000000000000000000000000000000000000000000000000000000000000000000000000000000000000000000000000000000000000000000000000000000000000000000000000000000000000000000000000000000000000000000000000000000000000000000100000000000000000000000000000000000000000000000000000000000000010000000000000000000000000000000000000000000000000000000000000000000000000000000000000000000000000000000000000000000000000000000000000000000000000000000000000000000000000000000000000000000006a000000000000000000000000000000000000000000000000000000000000007a000000000000000000000000000000000000000000000000000000000000008a000000000000000000000000000000000000000000000000000000000000009a00000000000000000000000000000000000000000000000000000000000000aa00000000000000000000000000000000000000000000000000000000000000ac0000000000000000000000000000000000000000000000000000000000000001b000000000000000000000000000000000000000000000000000000000000001bd705e03c681aa5657736d1b4ac39af4acdab24695cf99db34b4f39d5d577ff1166074ed0456dee1216238782a1b530c91c21daba0a11f73c65747073a2578252d705e03c681aa5657736d1b4ac39af4acdab24695cf99db34b4f39d5d577ff1166074ed0456dee1216238782a1b530c91c21daba0a11f73c65747073a2578252000000000000000000000000000000000000000000000000000000000000000000000000000000000000000000000000000000000000000000000000000000c4f242432a0000000000000000000000000000000000000000000000000000000000000000000000000000000000000000fb90835d33e7ca1b5f7fabbf897fbf6e6299638b80030102000000000009000000000000e9004f00ad000000000000000000047f000000000000000000000000000000000000000000000000000000000000000100000000000000000000000000000000000000000000000000000000000000a000000000000000000000000000000000000000000000000000000000000000000000000000000000000000000000000000000000000000000000000000000000000000000000000000000000000000000000000000000000000000c4f242432a0000000000000000000000007d21dac0342215cf5c4b46d0300bbf8c9c5978cd000000000000000000000000000000000000000000000000000000000000000080030102000000000009000000000000e9004f00ad000000000000000000047f000000000000000000000000000000000000000000000000000000000000000100000000000000000000000000000000000000000000000000000000000000a000000000000000000000000000000000000000000000000000000000000000000000000000000000000000000000000000000000000000000000000000000000000000000000000000000000000000000000000000000000000000c400000000ffffffffffffffffffffffffffffffffffffffffffffffffffffffffffffffff000000000000000000000000000000000000000000000000000000000000000000000000000000000000000000000000000000000000000000000000000000000000000000000000000000000000000000000000000000000000000000000000000000000000000000000000000000000000000000000000000000000000000000000000000000000000000000000000000000000000000000000000000000000000000000000000000000000000000000000000000000000000000000000000000000000000000000000000000000000000000000000000000000c4000000000000000000000000000000000000000000000000000000000000000000000000ffffffffffffffffffffffffffffffffffffffffffffffffffffffffffffffff00000000000000000000000000000000000000000000000000000000000000000000000000000000000000000000000000000000000000000000000000000000000000000000000000000000000000000000000000000000000000000000000000000000000000000000000000000000000000000000000000000000000000000000000000000000000000000000000000000000000000000000000000000000000000000000000000000000000000000000000000000000000000000000000000000000000000000000000000000000000000000000000000000000",
                    "decodedMethod": {
                        "callParams": [
                            {
                                "name": "addrs",
                                "type": "address[14]",
                                "value": [
                                    "0x7be8076f4ea4a4ad08075c2508e481d6c946d12b",
                                    "0xfb90835d33e7ca1b5f7fabbf897fbf6e6299638b",
                                    "0x7d21dac0342215cf5c4b46d0300bbf8c9c5978cd",
                                    "0x0000000000000000000000000000000000000000",
                                    "0x2af75676692817d85121353f0d6e8e9ae6ad5576",
                                    "0x0000000000000000000000000000000000000000",
                                    "0x0000000000000000000000000000000000000000",
                                    "0x7be8076f4ea4a4ad08075c2508e481d6c946d12b",
                                    "0x7d21dac0342215cf5c4b46d0300bbf8c9c5978cd",
                                    "0x0000000000000000000000000000000000000000",
                                    "0x5b3256965e7c3cf26e11fcaf296dfc8807c01073",
                                    "0x2af75676692817d85121353f0d6e8e9ae6ad5576",
                                    "0x0000000000000000000000000000000000000000",
                                    "0x0000000000000000000000000000000000000000"
                                ]
                            },
                            {
                                "name": "uints",
                                "type": "uint256[18]",
                                "value": [
                                    "600",
                                    "0",
                                    "0",
                                    "0",
                                    "10,000,000,000,000,000",
                                    "0",
                                    "1,584,725,662",
                                    "0",
                                    "44,288,964,942,450,992,249,343,568,084,107,054,108,910,048,731,326,653,876,498,772,515,299,843,013,721",
                                    "600",
                                    "0",
                                    "0",
                                    "0",
                                    "10,000,000,000,000,000",
                                    "0",
                                    "1,584,681,055",
                                    "0",
                                    "30,176,503,691,998,648,023,157,759,148,892,629,900,614,443,882,432,293,936,145,832,595,220,841,131,066"
                                ]
                            },
                            {
                                "name": "feeMethodsSidesKindsHowToCalls",
                                "type": "uint8[8]",
                                "value": [
                                    "1",
                                    "0",
                                    "0",
                                    "0",
                                    "1",
                                    "1",
                                    "0",
                                    "0"
                                ]
                            },
                            {
                                "name": "calldataBuy",
                                "type": "bytes",
                                "value": "0xf242432a0000000000000000000000000000000000000000000000000000000000000000000000000000000000000000fb90835d33e7ca1b5f7fabbf897fbf6e6299638b80030102000000000009000000000000e9004f00ad000000000000000000047f000000000000000000000000000000000000000000000000000000000000000100000000000000000000000000000000000000000000000000000000000000a00000000000000000000000000000000000000000000000000000000000000000"
                            },
                            {
                                "name": "calldataSell",
                                "type": "bytes",
                                "value": "0xf242432a0000000000000000000000007d21dac0342215cf5c4b46d0300bbf8c9c5978cd000000000000000000000000000000000000000000000000000000000000000080030102000000000009000000000000e9004f00ad000000000000000000047f000000000000000000000000000000000000000000000000000000000000000100000000000000000000000000000000000000000000000000000000000000a00000000000000000000000000000000000000000000000000000000000000000"
                            },
                            {
                                "name": "replacementPatternBuy",
                                "type": "bytes",
                                "value": "0x00000000ffffffffffffffffffffffffffffffffffffffffffffffffffffffffffffffff00000000000000000000000000000000000000000000000000000000000000000000000000000000000000000000000000000000000000000000000000000000000000000000000000000000000000000000000000000000000000000000000000000000000000000000000000000000000000000000000000000000000000000000000000000000000000000000000000000000000000000000000000000000"
                            },
                            {
                                "name": "replacementPatternSell",
                                "type": "bytes",
                                "value": "0x000000000000000000000000000000000000000000000000000000000000000000000000ffffffffffffffffffffffffffffffffffffffffffffffffffffffffffffffff0000000000000000000000000000000000000000000000000000000000000000000000000000000000000000000000000000000000000000000000000000000000000000000000000000000000000000000000000000000000000000000000000000000000000000000000000000000000000000000000000000000000000000"
                            },
                            {
                                "name": "staticExtradataBuy",
                                "type": "bytes",
                                "value": "0x"
                            },
                            {
                                "name": "staticExtradataSell",
                                "type": "bytes",
                                "value": "0x"
                            },
                            {
                                "name": "vs",
                                "type": "uint8[2]",
                                "value": [
                                    "27",
                                    "27"
                                ]
                            },
                            {
                                "name": "rssMetadata",
                                "type": "bytes32[5]",
                                "value": [
                                    "0xd705e03c681aa5657736d1b4ac39af4acdab24695cf99db34b4f39d5d577ff11",
                                    "0x66074ed0456dee1216238782a1b530c91c21daba0a11f73c65747073a2578252",
                                    "0xd705e03c681aa5657736d1b4ac39af4acdab24695cf99db34b4f39d5d577ff11",
                                    "0x66074ed0456dee1216238782a1b530c91c21daba0a11f73c65747073a2578252",
                                    "0x0000000000000000000000000000000000000000000000000000000000000000"
                                ]
                            }
                        ],
                        "constructorArguments": "",
                        "name": "atomicMatch_",
                        "returnParams": [],
                        "signature": "atomicMatch_(address[14],uint256[18],uint8[8],bytes,bytes,bytes,bytes,bytes,bytes,uint8[2],bytes32[5])"
                    },
                    "errorInfo": "",
                    "fromAddress": "0xfb90835d33e7ca1b5f7fabbf897fbf6e6299638b",
                    "gasUsed": 189325,
                    "id": 0,
                    "methodDecoded": true,
                    "operation": "CALL",
                    "output": "",
                    "revert": false,
                    "revertMessage": "",
                    "selector": "0xab834bab",
                    "status": true,
                    "value": "0.01"
                },
                "nodeType": 0
            },
            "1": {
                "invocation": {
                    "address": "0x0000000000000000000000000000000000000001",
                    "callData": "0x7cd62613303a4340e6b59b443e34d35ba5b696ca92f5b9c61646ab71000000000000000000000000000000000000000000000000000000000000001bd705e03c681aa5657736d1b4ac39af4acdab24695cf99db34b4f39d5d577ff1166074ed0456dee1216238782a1b530c91c21daba0a11f73c65747073a2578252",
                    "decodedMethod": {
                        "callParams": [
                            {
                                "name": "hash",
                                "type": "bytes32",
                                "value": "0x3cf48a5c7cd62613303a4340e6b59b443e34d35ba5b696ca92f5b9c61646ab71"
                            },
                            {
                                "name": "v",
                                "type": "uint256",
                                "value": "27"
                            },
                            {
                                "name": "r",
                                "type": "bytes32",
                                "value": "0xd705e03c681aa5657736d1b4ac39af4acdab24695cf99db34b4f39d5d577ff11"
                            },
                            {
                                "name": "s",
                                "type": "bytes32",
                                "value": "0x66074ed0456dee1216238782a1b530c91c21daba0a11f73c65747073a2578252"
                            }
                        ],
                        "constructorArguments": "",
                        "name": "ecrecover",
                        "returnParams": [
                            {
                                "name": "",
                                "type": "address",
                                "value": "0x7d21dac0342215cf5c4b46d0300bbf8c9c5978cd"
                            }
                        ],
                        "signature": "ecrecover(bytes32,uint256,bytes32,bytes32)"
                    },
                    "errorInfo": "",
                    "fromAddress": "0x7be8076f4ea4a4ad08075c2508e481d6c946d12b",
                    "gasUsed": 3000,
                    "id": 1,
                    "methodDecoded": true,
                    "operation": "CALL",
                    "output": "0x0000000000000000000000007d21dac0342215cf5c4b46d0300bbf8c9c5978cd",
                    "revert": false,
                    "revertMessage": "",
                    "selector": "0x3cf48a5c",
                    "status": true,
                    "value": "0"
                },
                "nodeType": 0
            },
            "10": {
                "invocation": {
                    "address": "0x2af75676692817d85121353f0d6e8e9ae6ad5576",
                    "callData": "0x0000000000000000000000007d21dac0342215cf5c4b46d0300bbf8c9c5978cd000000000000000000000000fb90835d33e7ca1b5f7fabbf897fbf6e6299638b80030102000000000009000000000000e9004f00ad000000000000000000047f000000000000000000000000000000000000000000000000000000000000000100000000000000000000000000000000000000000000000000000000000000a0000000000000000000000000000000000000000000000000000000000000000000000000000000000000000000000000000000000000000000000000",
                    "decodedMethod": {
                        "callParams": [
                            {
                                "name": "from",
                                "type": "address",
                                "value": "0x7d21dac0342215cf5c4b46d0300bbf8c9c5978cd"
                            },
                            {
                                "name": "to",
                                "type": "address",
                                "value": "0xfb90835d33e7ca1b5f7fabbf897fbf6e6299638b"
                            },
                            {
                                "name": "id",
                                "type": "uint256",
                                "value": "57,901,352,115,518,672,989,640,171,449,677,812,196,039,726,878,478,726,934,554,285,721,815,674,258,559"
                            },
                            {
                                "name": "value",
                                "type": "uint256",
                                "value": "1"
                            },
                            {
                                "name": "data",
                                "type": "bytes",
                                "value": "0x"
                            }
                        ],
                        "constructorArguments": "",
                        "name": "safeTransferFrom",
                        "returnParams": [],
                        "signature": "safeTransferFrom(address,address,uint256,uint256,bytes)"
                    },
                    "errorInfo": "",
                    "fromAddress": "0x9c4fd58ecf57c218fc9d4abaf44ed8626f97f9f3",
                    "gasUsed": 47816,
                    "id": 10,
                    "methodDecoded": true,
                    "operation": "CALL",
                    "output": "",
                    "revert": false,
                    "revertMessage": "",
                    "selector": "0xf242432a",
                    "status": true,
                    "value": "0"
                },
                "nodeType": 0
            },
            "11": {
                "event": {
                    "contract": "0x2af75676692817d85121353f0d6e8e9ae6ad5576",
                    "decodedLog": {
                        "name": "Transfer",
                        "params": [
                            {
                                "name": "_from",
                                "type": "address",
                                "value": "0x7d21dac0342215cf5c4b46d0300bbf8c9c5978cd"
                            },
                            {
                                "name": "_to",
                                "type": "address",
                                "value": "0xfb90835d33e7ca1b5f7fabbf897fbf6e6299638b"
                            },
                            {
                                "decimalAvailable": true,
                                "name": "_tokenId",
                                "type": "uint256",
                                "value": "57,901,352,115,518,672,989,640,171,449,677,812,196,039,726,878,478,726,934,554,285,721,815,674,258,559"
                            }
                        ],
                        "signature": "Transfer(address,address,uint256)"
                    },
                    "id": 11,
                    "logData": "0x",
                    "logDecoded": true,
                    "operation": "EVENT",
                    "revert": false,
                    "status": true,
                    "topics": [
                        "0xddf252ad1be2c89b69c2b068fc378daa952ba7f163c4a11628f55a4df523b3ef",
                        "0x0000000000000000000000007d21dac0342215cf5c4b46d0300bbf8c9c5978cd",
                        "0x000000000000000000000000fb90835d33e7ca1b5f7fabbf897fbf6e6299638b",
                        "0x80030102000000000009000000000000e9004f00ad000000000000000000047f"
                    ]
                },
                "nodeType": 1
            },
            "12": {
                "event": {
                    "contract": "0x2af75676692817d85121353f0d6e8e9ae6ad5576",
                    "decodedLog": {
                        "name": "TransferSingle",
                        "params": [
                            {
                                "name": "_operator",
                                "type": "address",
                                "value": "0x9c4fd58ecf57c218fc9d4abaf44ed8626f97f9f3"
                            },
                            {
                                "name": "_from",
                                "type": "address",
                                "value": "0x7d21dac0342215cf5c4b46d0300bbf8c9c5978cd"
                            },
                            {
                                "name": "_to",
                                "type": "address",
                                "value": "0xfb90835d33e7ca1b5f7fabbf897fbf6e6299638b"
                            },
                            {
                                "name": "_id",
                                "type": "uint256",
                                "value": "57,901,352,115,518,672,989,640,171,449,677,812,196,039,726,878,478,726,934,554,285,721,815,674,258,559"
                            },
                            {
                                "name": "_value",
                                "type": "uint256",
                                "value": "1"
                            }
                        ],
                        "signature": "TransferSingle(address,address,address,uint256,uint256)"
                    },
                    "id": 12,
                    "logData": "0x80030102000000000009000000000000e9004f00ad000000000000000000047f0000000000000000000000000000000000000000000000000000000000000001",
                    "logDecoded": true,
                    "operation": "EVENT",
                    "revert": false,
                    "status": true,
                    "topics": [
                        "0xc3d58168c5ae7397731d063d5bbf3d657854427343f4c083240f7aacaa2d0f62",
                        "0x0000000000000000000000009c4fd58ecf57c218fc9d4abaf44ed8626f97f9f3",
                        "0x0000000000000000000000007d21dac0342215cf5c4b46d0300bbf8c9c5978cd",
                        "0x000000000000000000000000fb90835d33e7ca1b5f7fabbf897fbf6e6299638b"
                    ]
                },
                "nodeType": 1
            },
            "13": {
                "event": {
                    "contract": "0x7be8076f4ea4a4ad08075c2508e481d6c946d12b",
                    "decodedLog": {
                        "name": "OrdersMatched",
                        "params": [
                            {
                                "name": "maker",
                                "type": "address",
                                "value": "0x7d21dac0342215cf5c4b46d0300bbf8c9c5978cd"
                            },
                            {
                                "name": "taker",
                                "type": "address",
                                "value": "0xfb90835d33e7ca1b5f7fabbf897fbf6e6299638b"
                            },
                            {
                                "name": "metadata",
                                "type": "bytes32",
                                "value": "0x0000000000000000000000000000000000000000000000000000000000000000"
                            },
                            {
                                "name": "buyHash",
                                "type": "bytes32",
                                "value": "0x0000000000000000000000000000000000000000000000000000000000000000"
                            },
                            {
                                "name": "sellHash",
                                "type": "bytes32",
                                "value": "0x3cf48a5c7cd62613303a4340e6b59b443e34d35ba5b696ca92f5b9c61646ab71"
                            },
                            {
                                "name": "price",
                                "type": "uint256",
                                "value": "10,000,000,000,000,000"
                            }
                        ],
                        "signature": "OrdersMatched(bytes32,bytes32,address,address,uint256,bytes32)"
                    },
                    "id": 13,
                    "logData": "0x00000000000000000000000000000000000000000000000000000000000000003cf48a5c7cd62613303a4340e6b59b443e34d35ba5b696ca92f5b9c61646ab71000000000000000000000000000000000000000000000000002386f26fc10000",
                    "logDecoded": true,
                    "operation": "EVENT",
                    "revert": false,
                    "status": true,
                    "topics": [
                        "0xc4109843e0b7d514e4c093114b863f8e7d8d9a458c372cd51bfe526b588006c9",
                        "0x0000000000000000000000007d21dac0342215cf5c4b46d0300bbf8c9c5978cd",
                        "0x000000000000000000000000fb90835d33e7ca1b5f7fabbf897fbf6e6299638b",
                        "0x0000000000000000000000000000000000000000000000000000000000000000"
                    ]
                },
                "nodeType": 1
            },
            "2": {
                "invocation": {
                    "address": "0xa5409ec958c83c3f309868babaca7c86dcb077c1",
                    "callData": "0x0000000000000000000000007d21dac0342215cf5c4b46d0300bbf8c9c5978cd",
                    "decodedMethod": {
                        "callParams": [
                            {
                                "name": "",
                                "type": "address",
                                "value": "0x7d21dac0342215cf5c4b46d0300bbf8c9c5978cd"
                            }
                        ],
                        "constructorArguments": "",
                        "name": "proxies",
                        "returnParams": [
                            {
                                "name": "",
                                "type": "address",
                                "value": "0x9c4fd58ecf57c218fc9d4abaf44ed8626f97f9f3"
                            }
                        ],
                        "signature": "proxies(address)"
                    },
                    "errorInfo": "",
                    "fromAddress": "0x7be8076f4ea4a4ad08075c2508e481d6c946d12b",
                    "gasUsed": 1482,
                    "id": 2,
                    "methodDecoded": true,
                    "operation": "CALL",
                    "output": "0x0000000000000000000000009c4fd58ecf57c218fc9d4abaf44ed8626f97f9f3",
                    "revert": false,
                    "revertMessage": "",
                    "selector": "0xc4552791",
                    "status": true,
                    "value": "0"
                },
                "nodeType": 0
            },
            "3": {
                "invocation": {
                    "address": "0xa5409ec958c83c3f309868babaca7c86dcb077c1",
                    "callData": "0x",
                    "decodedMethod": {
                        "callParams": [],
                        "constructorArguments": "",
                        "name": "delegateProxyImplementation",
                        "returnParams": [
                            {
                                "name": "",
                                "type": "address",
                                "value": "0xf9e266af4bca5890e2781812cc6a6e89495a79f2"
                            }
                        ],
                        "signature": "delegateProxyImplementation()"
                    },
                    "errorInfo": "",
                    "fromAddress": "0x7be8076f4ea4a4ad08075c2508e481d6c946d12b",
                    "gasUsed": 1313,
                    "id": 3,
                    "methodDecoded": true,
                    "operation": "CALL",
                    "output": "0x000000000000000000000000f9e266af4bca5890e2781812cc6a6e89495a79f2",
                    "revert": false,
                    "revertMessage": "",
                    "selector": "0x97204d8e",
                    "status": true,
                    "value": "0"
                },
                "nodeType": 0
            },
            "4": {
                "invocation": {
                    "address": "0x9c4fd58ecf57c218fc9d4abaf44ed8626f97f9f3",
                    "callData": "0x",
                    "decodedMethod": {
                        "callParams": [],
                        "constructorArguments": "",
                        "name": "implementation",
                        "returnParams": [
                            {
                                "name": "",
                                "type": "address",
                                "value": "0xf9e266af4bca5890e2781812cc6a6e89495a79f2"
                            }
                        ],
                        "signature": "implementation()"
                    },
                    "errorInfo": "",
                    "fromAddress": "0x7be8076f4ea4a4ad08075c2508e481d6c946d12b",
                    "gasUsed": 1225,
                    "id": 4,
                    "methodDecoded": true,
                    "operation": "CALL",
                    "output": "0x000000000000000000000000f9e266af4bca5890e2781812cc6a6e89495a79f2",
                    "revert": false,
                    "revertMessage": "",
                    "selector": "0x5c60da1b",
                    "status": true,
                    "value": "0"
                },
                "nodeType": 0
            },
            "5": {
                "invocation": {
                    "address": "0x5b3256965e7c3cf26e11fcaf296dfc8807c01073",
                    "callData": "0x",
                    "decodedMethod": null,
                    "errorInfo": "",
                    "fromAddress": "0x7be8076f4ea4a4ad08075c2508e481d6c946d12b",
                    "gasUsed": 0,
                    "id": 5,
                    "methodDecoded": false,
                    "operation": "CALL",
                    "output": "",
                    "revert": false,
                    "revertMessage": "",
                    "selector": "fallback",
                    "status": true,
                    "value": "0.0006"
                },
                "nodeType": 0
            },
            "6": {
                "invocation": {
                    "address": "0x7d21dac0342215cf5c4b46d0300bbf8c9c5978cd",
                    "callData": "0x",
                    "decodedMethod": null,
                    "errorInfo": "",
                    "fromAddress": "0x7be8076f4ea4a4ad08075c2508e481d6c946d12b",
                    "gasUsed": 0,
                    "id": 6,
                    "methodDecoded": false,
                    "operation": "CALL",
                    "output": "",
                    "revert": false,
                    "revertMessage": "",
                    "selector": "fallback",
                    "status": true,
                    "value": "0.0094"
                },
                "nodeType": 0
            },
            "7": {
                "invocation": {
                    "address": "0x9c4fd58ecf57c218fc9d4abaf44ed8626f97f9f3",
                    "callData": "0x0000000000000000000000002af75676692817d85121353f0d6e8e9ae6ad55760000000000000000000000000000000000000000000000000000000000000000000000000000000000000000000000000000000000000000000000000000006000000000000000000000000000000000000000000000000000000000000000c4f242432a0000000000000000000000007d21dac0342215cf5c4b46d0300bbf8c9c5978cd000000000000000000000000fb90835d33e7ca1b5f7fabbf897fbf6e6299638b80030102000000000009000000000000e9004f00ad000000000000000000047f000000000000000000000000000000000000000000000000000000000000000100000000000000000000000000000000000000000000000000000000000000a0000000000000000000000000000000000000000000000000000000000000000000000000000000000000000000000000000000000000000000000000",
                    "decodedMethod": {
                        "callParams": [
                            {
                                "name": "dest",
                                "type": "address",
                                "value": "0x2af75676692817d85121353f0d6e8e9ae6ad5576"
                            },
                            {
                                "name": "howToCall",
                                "type": "uint8",
                                "value": "0"
                            },
                            {
                                "name": "calldata",
                                "type": "bytes",
                                "value": "0xf242432a0000000000000000000000007d21dac0342215cf5c4b46d0300bbf8c9c5978cd000000000000000000000000fb90835d33e7ca1b5f7fabbf897fbf6e6299638b80030102000000000009000000000000e9004f00ad000000000000000000047f000000000000000000000000000000000000000000000000000000000000000100000000000000000000000000000000000000000000000000000000000000a00000000000000000000000000000000000000000000000000000000000000000"
                            }
                        ],
                        "constructorArguments": "",
                        "name": "proxy",
                        "returnParams": [
                            {
                                "name": "result",
                                "type": "bool",
                                "value": true
                            }
                        ],
                        "signature": "proxy(address,uint8,bytes)"
                    },
                    "errorInfo": "",
                    "fromAddress": "0x7be8076f4ea4a4ad08075c2508e481d6c946d12b",
                    "gasUsed": 57619,
                    "id": 7,
                    "methodDecoded": true,
                    "operation": "CALL",
                    "output": "0x0000000000000000000000000000000000000000000000000000000000000001",
                    "revert": false,
                    "revertMessage": "",
                    "selector": "0x1b0f7ba9",
                    "status": true,
                    "value": "0"
                },
                "nodeType": 0
            },
            "8": {
                "invocation": {
                    "address": "0xf9e266af4bca5890e2781812cc6a6e89495a79f2",
                    "callData": "0x0000000000000000000000002af75676692817d85121353f0d6e8e9ae6ad55760000000000000000000000000000000000000000000000000000000000000000000000000000000000000000000000000000000000000000000000000000006000000000000000000000000000000000000000000000000000000000000000c4f242432a0000000000000000000000007d21dac0342215cf5c4b46d0300bbf8c9c5978cd000000000000000000000000fb90835d33e7ca1b5f7fabbf897fbf6e6299638b80030102000000000009000000000000e9004f00ad000000000000000000047f000000000000000000000000000000000000000000000000000000000000000100000000000000000000000000000000000000000000000000000000000000a0000000000000000000000000000000000000000000000000000000000000000000000000000000000000000000000000000000000000000000000000",
                    "decodedMethod": {
                        "callParams": [
                            {
                                "name": "dest",
                                "type": "address",
                                "value": "0x2af75676692817d85121353f0d6e8e9ae6ad5576"
                            },
                            {
                                "name": "howToCall",
                                "type": "uint8",
                                "value": "0"
                            },
                            {
                                "name": "calldata",
                                "type": "bytes",
                                "value": "0xf242432a0000000000000000000000007d21dac0342215cf5c4b46d0300bbf8c9c5978cd000000000000000000000000fb90835d33e7ca1b5f7fabbf897fbf6e6299638b80030102000000000009000000000000e9004f00ad000000000000000000047f000000000000000000000000000000000000000000000000000000000000000100000000000000000000000000000000000000000000000000000000000000a00000000000000000000000000000000000000000000000000000000000000000"
                            }
                        ],
                        "constructorArguments": "",
                        "name": "proxy",
                        "returnParams": [
                            {
                                "name": "result",
                                "type": "bool",
                                "value": true
                            }
                        ],
                        "signature": "proxy(address,uint8,bytes)"
                    },
                    "errorInfo": "",
                    "fromAddress": "0x9c4fd58ecf57c218fc9d4abaf44ed8626f97f9f3",
                    "gasUsed": 55541,
                    "id": 8,
                    "methodDecoded": true,
                    "operation": "DELEGATECALL",
                    "output": "0x0000000000000000000000000000000000000000000000000000000000000001",
                    "revert": false,
                    "revertMessage": "",
                    "selector": "0x1b0f7ba9",
                    "status": true,
                    "value": "0"
                },
                "nodeType": 0
            },
            "9": {
                "invocation": {
                    "address": "0xa5409ec958c83c3f309868babaca7c86dcb077c1",
                    "callData": "0x0000000000000000000000007be8076f4ea4a4ad08075c2508e481d6c946d12b",
                    "decodedMethod": {
                        "callParams": [
                            {
                                "name": "",
                                "type": "address",
                                "value": "0x7be8076f4ea4a4ad08075c2508e481d6c946d12b"
                            }
                        ],
                        "constructorArguments": "",
                        "name": "contracts",
                        "returnParams": [
                            {
                                "name": "",
                                "type": "bool",
                                "value": true
                            }
                        ],
                        "signature": "contracts(address)"
                    },
                    "errorInfo": "",
                    "fromAddress": "0x9c4fd58ecf57c218fc9d4abaf44ed8626f97f9f3",
                    "gasUsed": 1253,
                    "id": 9,
                    "methodDecoded": true,
                    "operation": "CALL",
                    "output": "0x0000000000000000000000000000000000000000000000000000000000000001",
                    "revert": false,
                    "revertMessage": "",
                    "selector": "0x69dc9ff3",
                    "status": true,
                    "value": "0"
                },
                "nodeType": 0
            }
        },
        "gasFlame": [
            {
                "children": [
                    {
                        "children": [
                            {
                                "children": [],
                                "depth": 0,
                                "name": "Initial Gas",
                                "value": 38560
                            },
                            {
                                "children": [
                                    {
                                        "children": [],
                                        "depth": 1,
                                        "name": "ecrecover",
                                        "value": 3000
                                    },
                                    {
                                        "children": [],
                                        "depth": 1,
                                        "name": "proxies",
                                        "value": 1482
                                    },
                                    {
                                        "children": [],
                                        "depth": 1,
                                        "name": "delegateProxyImplementation",
                                        "value": 1313
                                    },
                                    {
                                        "children": [],
                                        "depth": 1,
                                        "name": "implementation",
                                        "value": 1225
                                    },
                                    {
                                        "children": [],
                                        "depth": 1,
                                        "name": "fallback",
                                        "value": 0
                                    },
                                    {
                                        "children": [],
                                        "depth": 1,
                                        "name": "fallback",
                                        "value": 0
                                    },
                                    {
                                        "children": [
                                            {
                                                "children": [
                                                    {
                                                        "children": [],
                                                        "depth": 3,
                                                        "name": "contracts",
                                                        "value": 1253
                                                    },
                                                    {
                                                        "children": [],
                                                        "depth": 3,
                                                        "name": "safeTransferFrom",
                                                        "value": 47816
                                                    }
                                                ],
                                                "depth": 2,
                                                "name": "proxy",
                                                "value": 55541
                                            }
                                        ],
                                        "depth": 1,
                                        "name": "proxy",
                                        "value": 57619
                                    }
                                ],
                                "depth": 0,
                                "name": "Executed Gas",
                                "value": 154965
                            }
                        ],
                        "depth": -1,
                        "name": "Actual Gas Used",
                        "value": 189325
                    },
                    {
                        "children": [],
                        "depth": -1,
                        "name": "Refunded Gas",
                        "value": 4200
                    }
                ],
                "depth": -2,
                "name": "Total Gas",
                "value": 193525
            }
        ],
        "isConfirmed": true,
        "mainTrace": [
            {
                "children": [
                    {
                        "children": [
                            {
                                "children": [],
                                "depth": 1,
                                "id": 1,
                                "order": 1
                            },
                            {
                                "children": [],
                                "depth": 1,
                                "id": 2,
                                "order": 2
                            },
                            {
                                "children": [],
                                "depth": 1,
                                "id": 3,
                                "order": 3
                            },
                            {
                                "children": [],
                                "depth": 1,
                                "id": 4,
                                "order": 4
                            },
                            {
                                "children": [],
                                "depth": 1,
                                "id": 5,
                                "order": 5
                            },
                            {
                                "children": [],
                                "depth": 1,
                                "id": 6,
                                "order": 6
                            },
                            {
                                "children": [
                                    {
                                        "children": [
                                            {
                                                "children": [],
                                                "depth": 3,
                                                "id": 9,
                                                "order": 9
                                            },
                                            {
                                                "children": [
                                                    {
                                                        "children": [],
                                                        "depth": 4,
                                                        "id": 11,
                                                        "order": 11
                                                    },
                                                    {
                                                        "children": [],
                                                        "depth": 4,
                                                        "id": 12,
                                                        "order": 12
                                                    }
                                                ],
                                                "depth": 3,
                                                "id": 10,
                                                "order": 10
                                            }
                                        ],
                                        "depth": 2,
                                        "id": 8,
                                        "order": 8
                                    }
                                ],
                                "depth": 1,
                                "id": 7,
                                "order": 7
                            },
                            {
                                "children": [],
                                "depth": 1,
                                "id": 13,
                                "order": 13
                            }
                        ],
                        "depth": 0,
                        "id": 0,
                        "order": 0
                    }
                ],
                "depth": -1,
                "id": -1,
                "order": -1
            }
        ],
        "mainTraceNodeCount": 14,
        "parentIdMap": {
            "0": -1,
            "1": 0,
            "10": 8,
            "11": 10,
            "12": 10,
            "13": 0,
            "2": 0,
            "3": 0,
            "4": 0,
            "5": 0,
            "6": 0,
            "7": 0,
            "8": 7,
            "9": 8
        },
        "tidyTrace": [
            {
                "children": [
                    {
                        "children": [
                            {
                                "children": [],
                                "depth": 1,
                                "id": 1,
                                "order": 1
                            },
                            {
                                "children": [],
                                "depth": 1,
                                "id": 2,
                                "order": 2
                            },
                            {
                                "children": [],
                                "depth": 1,
                                "id": 3,
                                "order": 3
                            },
                            {
                                "children": [],
                                "depth": 1,
                                "id": 4,
                                "order": 4
                            },
                            {
                                "children": [],
                                "depth": 1,
                                "id": 5,
                                "order": 5
                            },
                            {
                                "children": [],
                                "depth": 1,
                                "id": 6,
                                "order": 6
                            },
                            {
                                "children": [
                                    {
                                        "children": [
                                            {
                                                "children": [],
                                                "depth": 3,
                                                "id": 9,
                                                "order": 9
                                            },
                                            {
                                                "children": [
                                                    {
                                                        "children": [],
                                                        "depth": 4,
                                                        "id": 11,
                                                        "order": 11
                                                    },
                                                    {
                                                        "children": [],
                                                        "depth": 4,
                                                        "id": 12,
                                                        "order": 12
                                                    }
                                                ],
                                                "depth": 3,
                                                "id": 10,
                                                "order": 10
                                            }
                                        ],
                                        "depth": 2,
                                        "id": 8,
                                        "order": 8
                                    }
                                ],
                                "depth": 1,
                                "id": 7,
                                "order": 7
                            },
                            {
                                "children": [],
                                "depth": 1,
                                "id": 13,
                                "order": 13
                            }
                        ],
                        "depth": 0,
                        "id": 0,
                        "order": 0
                    }
                ],
                "depth": -1,
                "id": -1,
                "order": -1
            }
        ],
        "tidyTraceNodeCount": 14
    },
    "state_change": {
        "stateChanges": [
            {
                "address": "0x2af75676692817d85121353f0d6e8e9ae6ad5576",
                "erc": "ERC-721",
                "slots": [
                    {
                        "current": "0x000000000000000000000000000000000000000000000000000000000000000c",
                        "key": "0xc7f8f7858fb422939da1cafe1eb0874e3bc60f19eb8d0341194b936e89da8338",
                        "prev": "0x000000000000000000000000000000000000000000000000000000000000000d"
                    },
                    {
                        "current": "0x0000000000000000000000000000000000000000000000000000000000000008",
                        "key": "0x6b8f424a667d0861e6425b112f4469a478802f9e1800538d1777653448fc9b29",
                        "prev": "0x0000000000000000000000000000000000000000000000000000000000000007"
                    },
                    {
                        "current": "0x00000000000000000000000000000000000000000000000000000000000000bf",
                        "key": "0x84a253cfda1421ae7c00a2d6aa6ca1b6279c2e5ecf8c05cd61d6b473c6fa772d",
                        "prev": "0x00000000000000000000000000000000000000000000000000000000000000c0"
                    },
                    {
                        "current": "0x0000000000000000000000000000000000000000000000000000000000000069",
                        "key": "0x0a07b9a2dc4da71e6653bfa09ab7367e2a916cdf985af5d427d0da6776b82d6f",
                        "prev": "0x0000000000000000000000000000000000000000000000000000000000000068"
                    },
                    {
                        "current": "0x000000000000000000000000fb90835d33e7ca1b5f7fabbf897fbf6e6299638b",
                        "key": "0x12ee349a179c32345f4be00aa82d882b3985e85d2bebe569843584e7462fe794",
                        "prev": "0x0000000000000000000000007d21dac0342215cf5c4b46d0300bbf8c9c5978cd"
                    }
                ],
                "storageVariables": [
                    {
                        "name": "_balances",
                        "type": "mapping(uint256 => mapping(address => uint256))",
                        "value": {
                            "pairs": [
                                {
                                    "key": "57901352115518672989639309420936075133247188582894169892070856947291886977024",
                                    "value": {
                                        "pairs": [
                                            {
                                                "key": "0x7d21dac0342215cf5c4b46d0300bbf8c9c5978cd",
                                                "value": {
                                                    "current": "12",
                                                    "prev": "13",
                                                    "typeTag": 1
                                                }
                                            },
                                            {
                                                "key": "0xfb90835d33e7ca1b5f7fabbf897fbf6e6299638b",
                                                "value": {
                                                    "current": "8",
                                                    "prev": "7",
                                                    "typeTag": 1
                                                }
                                            }
                                        ],
                                        "typeTag": 4
                                    }
                                }
                            ],
                            "typeTag": 4
                        }
                    },
                    {
                        "name": "_nftBalances",
                        "type": "mapping(address => uint256)",
                        "value": {
                            "pairs": [
                                {
                                    "key": "0x7d21dac0342215cf5c4b46d0300bbf8c9c5978cd",
                                    "value": {
                                        "current": "191",
                                        "prev": "192",
                                        "typeTag": 1
                                    }
                                },
                                {
                                    "key": "0xfb90835d33e7ca1b5f7fabbf897fbf6e6299638b",
                                    "value": {
                                        "current": "105",
                                        "prev": "104",
                                        "typeTag": 1
                                    }
                                }
                            ],
                            "typeTag": 4
                        }
                    },
                    {
                        "name": "_owners",
                        "type": "mapping(uint256 => address)",
                        "value": {
                            "pairs": [
                                {
                                    "key": "57901352115518672989640171449677812196039726878478726934554285721815674258559",
                                    "value": {
                                        "current": "0xfb90835d33e7ca1b5f7fabbf897fbf6e6299638b",
                                        "prev": "0x7d21dac0342215cf5c4b46d0300bbf8c9c5978cd",
                                        "typeTag": 1
                                    }
                                }
                            ],
                            "typeTag": 4
                        }
                    }
                ]
            },
            {
                "address": "0x7be8076f4ea4a4ad08075c2508e481d6c946d12b",
                "erc": "",
                "slots": [
                    {
                        "current": "0x0000000000000000000000000000000000000000000000000000000000000001",
                        "key": "0x8f0c1d231b631267db5aa169a73e4b55414fd5ea77c27b8f6252cb92c462f347",
                        "prev": "0x0000000000000000000000000000000000000000000000000000000000000000"
                    }
                ],
                "storageVariables": [
                    {
                        "name": "cancelledOrFinalized",
                        "type": "mapping(bytes32 => bool)",
                        "value": {
                            "pairs": [
                                {
                                    "key": "0x3cf48a5c7cd62613303a4340e6b59b443e34d35ba5b696ca92f5b9c61646ab71",
                                    "value": {
                                        "current": "true",
                                        "prev": "false",
                                        "typeTag": 1
                                    }
                                }
                            ],
                            "typeTag": 4
                        }
                    }
                ]
            }
        ]
    }
}