{
    "balance_change": {
        "balanceChanges": [
            {
                "account": "0x236f9f97e0e62388479bf9e5ba4889e46b0273c3",
                "assets": [
                    {
                        "address": "0xaf30d2a7e90d7dc361c8c4585e9bb7d2f6f15bc7",
                        "amount": "1,240.816",
                        "iconUrl": "",
                        "isERC1155": false,
                        "isERC721": false,
                        "sign": false,
                        "value": ""
                    }
                ]
            },
            {
                "account": "0xda17837bf859468622515172bff2f0cd429b301a",
                "assets": [
                    {
                        "address": "0xaf30d2a7e90d7dc361c8c4585e9bb7d2f6f15bc7",
                        "amount": "1,240.816",
                        "iconUrl": "",
                        "isERC1155": false,
                        "isERC721": false,
                        "sign": true,
                        "value": ""
                    }
                ]
            }
        ]
    },
    "profile": {
        "basic_info": {
            "baseFee": "",
            "blockNumber": 4944230,
            "callData": "0xa9059cbb000000000000000000000000da17837bf859468622515172bff2f0cd429b301a00000000000000000000000000000000000000000000004343c7f9e005180000",
            "debugEnable": true,
            "errorInfo": "",
            "eventCount": 1,
            "feeRecipient": "0x84990f5d2e09f56cabdabf6409ad31bdd8363b50",
            "formatValue": "0",
            "gasLimit": 420000,
            "gasPrice": "50",
            "gasUsed": 52712,
            "intTxnCount": 0,
            "internalRevert": false,
            "internalRevertMessage": "",
            "isContractCreation": false,
            "isFlashloan": false,
            "maxFee": "",
            "nonce": 222989,
            "overwritedBlockNumber": -1,
            "priorityFee": "",
            "receiver": "0xaf30d2a7e90d7dc361c8c4585e9bb7d2f6f15bc7",
            "revertMessage": "",
            "sender": "0x236f9f97e0e62388479bf9e5ba4889e46b0273c3",
            "simulationEnable": true,
            "sourceTxnHash": "0x512a6a338359681ce0bbe8b2b38cdabb6c396aaa1f8ecd433cfa09e22c50e6b1",
            "status": true,
            "timestamp": "2018-01-21T03:40:43Z",
            "transactionFee": "0.0026356",
            "txnHash": "0x512a6a338359681ce0bbe8b2b38cdabb6c396aaa1f8ecd433cfa09e22c50e6b1",
            "txnIndex": 98,
            "type": 0,
            "value": "0"
        },
        "fund_flow": [
            {
                "amount": "1,240.816",
                "from": "0x236f9f97e0e62388479bf9e5ba4889e46b0273c3",
                "id": 1,
                "isERC1155": false,
                "isERC721": false,
                "isReverted": false,
                "order": 1,
                "to": "0xda17837bf859468622515172bff2f0cd429b301a",
                "token": "0xaf30d2a7e90d7dc361c8c4585e9bb7d2f6f15bc7"
            }
        ],
        "token_infos": [
            {
                "address": "0xaf30d2a7e90d7dc361c8c4585e9bb7d2f6f15bc7",
                "decimals": 18
            },
            {
                "address": "0xc02aaa39b223fe8d0a0e5c4f27ead9083c756cc2",
                "decimals": 18
            },
            {
                "address": "0xeeeeeeeeeeeeeeeeeeeeeeeeeeeeeeeeeeeeeeee",
                "decimals": 18
            }
        ]
    },
    "address_label": {
        "labels": [
            {
                "address": "0xeeeeeeeeeeeeeeeeeeeeeeeeeeeeeeeeeeeeeeee",
                "label": "Ether"
            },
            {
                "address": "0xaf30d2a7e90d7dc361c8c4585e9bb7d2f6f15bc7",
                "label": "FirstBlood"
            },
            {
                "address": "0xda17837bf859468622515172bff2f0cd429b301a",
                "label": "ZB.COM"
            },
            {
                "address": "0x236f9f97e0e62388479bf9e5ba4889e46b0273c3",
                "label": "OKX 2"
            },
            {
                "address": "0x0000000000000000000000000000000000000001",
                "label": "Precompiled"
            },
            {
                "address": "0x0000000000000000000000000000000000000002",
                "label": "Precompiled"
            },
            {
                "address": "0x0000000000000000000000000000000000000003",
                "label": "Precompiled"
            },
            {
                "address": "0x0000000000000000000000000000000000000004",
                "label": "Precompiled"
            }
        ]
    },
    "trace": {
        "accountLabels": null,
        "dataMap": {
            "-1": {
                "invocation": {
                    "address": "0x236f9f97e0e62388479bf9e5ba4889e46b0273c3",
                    "callData": "",
                    "decodedMethod": null,
                    "errorInfo": "",
                    "fromAddress": "",
                    "gasUsed": 0,
                    "id": -1,
                    "methodDecoded": false,
                    "operation": "",
                    "output": "",
                    "revert": false,
                    "revertMessage": "",
                    "selector": "",
                    "status": false,
                    "value": ""
                },
                "nodeType": 0
            },
            "0": {
                "invocation": {
                    "address": "0xaf30d2a7e90d7dc361c8c4585e9bb7d2f6f15bc7",
                    "callData": "0x000000000000000000000000da17837bf859468622515172bff2f0cd429b301a00000000000000000000000000000000000000000000004343c7f9e005180000",
                    "decodedMethod": {
                        "callParams": [
                            {
                                "name": "_to",
                                "type": "address",
                                "value": "0xda17837bf859468622515172bff2f0cd429b301a"
                            },
                            {
                                "decimalAvailable": true,
                                "name": "_value",
                                "type": "uint256",
                                "value": "1,240,816,000,000,000,000,000"
                            }
                        ],
                        "constructorArguments": "",
                        "name": "transfer",
                        "returnParams": [
                            {
                                "name": "success",
                                "type": "bool",
                                "value": true
                            }
                        ],
                        "signature": "transfer(address,uint256)"
                    },
                    "errorInfo": "",
                    "fromAddress": "0x236f9f97e0e62388479bf9e5ba4889e46b0273c3",
                    "gasUsed": 52712,
                    "id": 0,
                    "methodDecoded": true,
                    "operation": "CALL",
                    "output": "0x0000000000000000000000000000000000000000000000000000000000000001",
                    "revert": false,
                    "revertMessage": "",
                    "selector": "0xa9059cbb",
                    "status": true,
                    "value": "0"
                },
                "nodeType": 0
            },
            "1": {
                "event": {
                    "contract": "0xaf30d2a7e90d7dc361c8c4585e9bb7d2f6f15bc7",
                    "decodedLog": {
                        "name": "Transfer",
                        "params": [
                            {
                                "name": "_from",
                                "type": "address",
                                "value": "0x236f9f97e0e62388479bf9e5ba4889e46b0273c3"
                            },
                            {
                                "name": "_to",
                                "type": "address",
                                "value": "0xda17837bf859468622515172bff2f0cd429b301a"
                            },
                            {
                                "decimalAvailable": true,
                                "name": "_value",
                                "type": "uint256",
                                "value": "1,240,816,000,000,000,000,000"
                            }
                        ],
                        "signature": "Transfer(address,address,uint256)"
                    },
                    "id": 1,
                    "logData": "0x00000000000000000000000000000000000000000000004343c7f9e005180000",
                    "logDecoded": true,
                    "operation": "EVENT",
                    "revert": false,
                    "status": true,
                    "topics": [
                        "0xddf252ad1be2c89b69c2b068fc378daa952ba7f163c4a11628f55a4df523b3ef",
                        "0x000000000000000000000000236f9f97e0e62388479bf9e5ba4889e46b0273c3",
                        "0x000000000000000000000000da17837bf859468622515172bff2f0cd429b301a"
                    ]
                },
                "nodeType": 1
            }
        },
        "gasFlame": [
            {
                "children": [
                    {
                        "children": [
                            {
                                "children": [],
                                "depth": 0,
                                "name": "Initial Gas",
                                "value": 23256
                            },
                            {
                                "children": [],
                                "depth": 0,
                                "name": "Executed Gas",
                                "value": 29456
                            }
                        ],
                        "depth": -1,
                        "name": "Actual Gas Used",
                        "value": 52712
                    },
                    {
                        "children": [],
                        "depth": -1,
                        "name": "Refunded Gas",
                        "value": 0
                    }
                ],
                "depth": -2,
                "name": "Total Gas",
                "value": 52712
            }
        ],
        "isConfirmed": true,
        "mainTrace": [
            {
                "children": [
                    {
                        "children": [
                            {
                                "children": [],
                                "depth": 1,
                                "id": 1,
                                "order": 1
                            }
                        ],
                        "depth": 0,
                        "id": 0,
                        "order": 0
                    }
                ],
                "depth": -1,
                "id": -1,
                "order": -1
            }
        ],
        "mainTraceNodeCount": 2,
        "parentIdMap": {
            "0": -1,
            "1": 0
        },
        "tidyTrace": [
            {
                "children": [
                    {
                        "children": [
                            {
                                "children": [],
                                "depth": 1,
                                "id": 1,
                                "order": 1
                            }
                        ],
                        "depth": 0,
                        "id": 0,
                        "order": 0
                    }
                ],
                "depth": -1,
                "id": -1,
                "order": -1
            }
        ],
        "tidyTraceNodeCount": 2
    },
    "state_change": {
        "stateChanges": [
            {
                "address": "0xaf30d2a7e90d7dc361c8c4585e9bb7d2f6f15bc7",
                "erc": "ERC-20",
                "slots": [
                    {
                        "current": "0x00000000000000000000000000000000000000000000004343c7f9e005180000",
                        "key": "0xaf1afbd67cdc07d607127d690332949ef5b87edf6c65eac7a8a4cd9a62985ee9",
                        "prev": "0x0000000000000000000000000000000000000000000000000000000000000000"
                    },
                    {
                        "current": "0x000000000000000000000000000000000000000000034cc0e89c0c30df04a3c1",
                        "key": "0xa7b618a65c0de18643d6e14f8b626de9102c2134ebcaf067b9c5aa5c6572adeb",
                        "prev": "0x000000000000000000000000000000000000000000034d042c640610e41ca3c1"
                    }
                ],
                "storageVariables": []
            }
        ]
    }
}