{
    "balance_change": {
        "balanceChanges": [
            {
                "account": "0xb7a0946b3057148d0618b7c1857127bbddad8940",
                "assets": [
                    {
                        "address": "0xe9e73e1ae76d17a16cc53e3e87a9a7da78834d37",
                        "amount": "7",
                        "iconUrl": "",
                        "isERC1155": false,
                        "isERC721": false,
                        "sign": false,
                        "value": ""
                    }
                ]
            },
            {
                "account": "0xc3c739ee1c72b4c2e94454a60844a3d58a6867dd",
                "assets": [
                    {
                        "address": "0xe9e73e1ae76d17a16cc53e3e87a9a7da78834d37",
                        "amount": "7",
                        "iconUrl": "",
                        "isERC1155": false,
                        "isERC721": false,
                        "sign": true,
                        "value": ""
                    }
                ]
            }
        ]
    },
    "profile": {
        "basic_info": {
            "baseFee": "",
            "blockNumber": 12336117,
            "callData": "0xa9059cbb000000000000000000000000c3c739ee1c72b4c2e94454a60844a3d58a6867dd0000000000000000000000000000000000000000000000006124fee993bc0000",
            "debugEnable": true,
            "errorInfo": "",
            "eventCount": 1,
            "feeRecipient": "0x5a0b54d5dc17e0aadc383d2db43b0a0d3e029c4c",
            "formatValue": "0",
            "gasLimit": 58510,
            "gasPrice": "100",
            "gasUsed": 58510,
            "intTxnCount": 0,
            "internalRevert": false,
            "internalRevertMessage": "",
            "isContractCreation": false,
            "isFlashloan": false,
            "maxFee": "",
            "nonce": 9693,
            "overwritedBlockNumber": -1,
            "priorityFee": "",
            "receiver": "0xe9e73e1ae76d17a16cc53e3e87a9a7da78834d37",
            "revertMessage": "",
            "sender": "0xb7a0946b3057148d0618b7c1857127bbddad8940",
            "simulationEnable": true,
            "sourceTxnHash": "0x52e97a776faef719b1c055f1bc81ddf793e3a6749a6baca3117241992061742b",
            "status": true,
            "timestamp": "2021-04-29T15:16:42Z",
            "transactionFee": "0.005851",
            "txnHash": "0x52e97a776faef719b1c055f1bc81ddf793e3a6749a6baca3117241992061742b",
            "txnIndex": 173,
            "type": 0,
            "value": "0"
        },
        "fund_flow": [
            {
                "amount": "7",
                "from": "0xb7a0946b3057148d0618b7c1857127bbddad8940",
                "id": 1,
                "isERC1155": false,
                "isERC721": false,
                "isReverted": false,
                "order": 1,
                "to": "0xc3c739ee1c72b4c2e94454a60844a3d58a6867dd",
                "token": "0xe9e73e1ae76d17a16cc53e3e87a9a7da78834d37"
            }
        ],
        "token_infos": [
            {
                "address": "0xe9e73e1ae76d17a16cc53e3e87a9a7da78834d37",
                "decimals": 18
            },
            {
                "address": "0xeeeeeeeeeeeeeeeeeeeeeeeeeeeeeeeeeeeeeeee",
                "decimals": 18
            },
            {
                "address": "0xc02aaa39b223fe8d0a0e5c4f27ead9083c756cc2",
                "decimals": 18
            }
        ]
    },
    "address_label": {
        "labels": [
            {
                "address": "0x0000000000000000000000000000000000000002",
                "label": "Precompiled"
            },
            {
                "address": "0x0000000000000000000000000000000000000003",
                "label": "Precompiled"
            },
            {
                "address": "0x0000000000000000000000000000000000000004",
                "label": "Precompiled"
            },
            {
                "address": "0xeeeeeeeeeeeeeeeeeeeeeeeeeeeeeeeeeeeeeeee",
                "label": "Ether"
            },
            {
                "address": "0xe9e73e1ae76d17a16cc53e3e87a9a7da78834d37",
                "label": "Camp Global: CAMP Token"
            },
            {
                "address": "0x0000000000000000000000000000000000000001",
                "label": "Precompiled"
            }
        ]
    },
    "trace": {
        "accountLabels": null,
        "dataMap": {
            "-1": {
                "invocation": {
                    "address": "0xb7a0946b3057148d0618b7c1857127bbddad8940",
                    "callData": "",
                    "decodedMethod": null,
                    "errorInfo": "",
                    "fromAddress": "",
                    "gasUsed": 0,
                    "id": -1,
                    "methodDecoded": false,
                    "operation": "",
                    "output": "",
                    "revert": false,
                    "revertMessage": "",
                    "selector": "",
                    "status": false,
                    "value": ""
                },
                "nodeType": 0
            },
            "0": {
                "invocation": {
                    "address": "0xe9e73e1ae76d17a16cc53e3e87a9a7da78834d37",
                    "callData": "0x000000000000000000000000c3c739ee1c72b4c2e94454a60844a3d58a6867dd0000000000000000000000000000000000000000000000006124fee993bc0000",
                    "decodedMethod": {
                        "callParams": [
                            {
                                "name": "to",
                                "type": "address",
                                "value": "0xc3c739ee1c72b4c2e94454a60844a3d58a6867dd"
                            },
                            {
                                "decimalAvailable": true,
                                "name": "value",
                                "type": "uint256",
                                "value": "7,000,000,000,000,000,000"
                            }
                        ],
                        "constructorArguments": "",
                        "name": "transfer",
                        "returnParams": [
                            {
                                "name": "",
                                "type": "bool",
                                "value": true
                            }
                        ],
                        "signature": "transfer(address,uint256)"
                    },
                    "errorInfo": "",
                    "fromAddress": "0xb7a0946b3057148d0618b7c1857127bbddad8940",
                    "gasUsed": 58510,
                    "id": 0,
                    "methodDecoded": true,
                    "operation": "CALL",
                    "output": "0x0000000000000000000000000000000000000000000000000000000000000001",
                    "revert": false,
                    "revertMessage": "",
                    "selector": "0xa9059cbb",
                    "status": true,
                    "value": "0"
                },
                "nodeType": 0
            },
            "1": {
                "event": {
                    "contract": "0xe9e73e1ae76d17a16cc53e3e87a9a7da78834d37",
                    "decodedLog": {
                        "name": "Transfer",
                        "params": [
                            {
                                "name": "from",
                                "type": "address",
                                "value": "0xb7a0946b3057148d0618b7c1857127bbddad8940"
                            },
                            {
                                "name": "to",
                                "type": "address",
                                "value": "0xc3c739ee1c72b4c2e94454a60844a3d58a6867dd"
                            },
                            {
                                "decimalAvailable": true,
                                "name": "value",
                                "type": "uint256",
                                "value": "7,000,000,000,000,000,000"
                            }
                        ],
                        "signature": "Transfer(address,address,uint256)"
                    },
                    "id": 1,
                    "logData": "0x0000000000000000000000000000000000000000000000006124fee993bc0000",
                    "logDecoded": true,
                    "operation": "EVENT",
                    "revert": false,
                    "status": true,
                    "topics": [
                        "0xddf252ad1be2c89b69c2b068fc378daa952ba7f163c4a11628f55a4df523b3ef",
                        "0x000000000000000000000000b7a0946b3057148d0618b7c1857127bbddad8940",
                        "0x000000000000000000000000c3c739ee1c72b4c2e94454a60844a3d58a6867dd"
                    ]
                },
                "nodeType": 1
            }
        },
        "gasFlame": [
            {
                "children": [
                    {
                        "children": [
                            {
                                "children": [],
                                "depth": 0,
                                "name": "Initial Gas",
                                "value": 21632
                            },
                            {
                                "children": [],
                                "depth": 0,
                                "name": "Executed Gas",
                                "value": 36878
                            }
                        ],
                        "depth": -1,
                        "name": "Actual Gas Used",
                        "value": 58510
                    },
                    {
                        "children": [],
                        "depth": -1,
                        "name": "Refunded Gas",
                        "value": 0
                    }
                ],
                "depth": -2,
                "name": "Total Gas",
                "value": 58510
            }
        ],
        "isConfirmed": true,
        "mainTrace": [
            {
                "children": [
                    {
                        "children": [
                            {
                                "children": [],
                                "depth": 1,
                                "id": 1,
                                "order": 1
                            }
                        ],
                        "depth": 0,
                        "id": 0,
                        "order": 0
                    }
                ],
                "depth": -1,
                "id": -1,
                "order": -1
            }
        ],
        "mainTraceNodeCount": 2,
        "parentIdMap": {
            "0": -1,
            "1": 0
        },
        "tidyTrace": [
            {
                "children": [
                    {
                        "children": [
                            {
                                "children": [],
                                "depth": 1,
                                "id": 1,
                                "order": 1
                            }
                        ],
                        "depth": 0,
                        "id": 0,
                        "order": 0
                    }
                ],
                "depth": -1,
                "id": -1,
                "order": -1
            }
        ],
        "tidyTraceNodeCount": 2
    },
    "state_change": {
        "stateChanges": [
            {
                "address": "0xe9e73e1ae76d17a16cc53e3e87a9a7da78834d37",
                "erc": "ERC-20",
                "slots": [
                    {
                        "current": "0x0000000000000000000000000000000000000000000000006124fee993bc0000",
                        "key": "0x3047ef0a2f4d78305047ca017134318b20d5010b4a1fb5f80376edeaf76de364",
                        "prev": "0x0000000000000000000000000000000000000000000000000000000000000000"
                    },
                    {
                        "current": "0x000000000000000000000000000000000000000000078b699084027d4df40000",
                        "key": "0x6cab58d9d8c7f211583b1396f8248152318db5e46abec4950e6185c1f12cd61e",
                        "prev": "0x000000000000000000000000000000000000000000078b69f1a90166e1b00000"
                    }
                ],
                "storageVariables": [
                    {
                        "name": "_balances",
                        "type": "mapping(address => uint256)",
                        "value": {
                            "pairs": [
                                {
                                    "key": "0xb7a0946b3057148d0618b7c1857127bbddad8940",
                                    "value": {
                                        "current": "9120837000000000000000000",
                                        "prev": "9120844000000000000000000",
                                        "typeTag": 1
                                    }
                                },
                                {
                                    "key": "0xc3c739ee1c72b4c2e94454a60844a3d58a6867dd",
                                    "value": {
                                        "current": "7000000000000000000",
                                        "prev": "0",
                                        "typeTag": 1
                                    }
                                }
                            ],
                            "typeTag": 4
                        }
                    }
                ]
            }
        ]
    }
}