{
    "balance_change": {
        "balanceChanges": [
            {
                "account": "0xfbb1b73c4f0bda4f67dca266ce6ef42f520fbb98",
                "assets": [
                    {
                        "address": "0xf7b098298f7c69fc14610bf71d5e02c60792894c",
                        "amount": "1,977.812",
                        "iconUrl": "https://assets.blocksec.com/icon/42febef9692b7c9442aec194a562bca1a727dc7c70810b73444b5763a07cb3e1.png",
                        "isERC1155": false,
                        "isERC721": false,
                        "sign": false,
                        "value": ""
                    }
                ]
            },
            {
                "account": "0x3b407ced99f2d1e37ed14a1f844b1c19dc4e8b12",
                "assets": [
                    {
                        "address": "0xf7b098298f7c69fc14610bf71d5e02c60792894c",
                        "amount": "1,977.812",
                        "iconUrl": "https://assets.blocksec.com/icon/42febef9692b7c9442aec194a562bca1a727dc7c70810b73444b5763a07cb3e1.png",
                        "isERC1155": false,
                        "isERC721": false,
                        "sign": true,
                        "value": ""
                    }
                ]
            }
        ]
    },
    "profile": {
        "basic_info": {
            "baseFee": "",
            "blockNumber": 4115760,
            "callData": "0xa9059cbb0000000000000000000000003b407ced99f2d1e37ed14a1f844b1c19dc4e8b1200000000000000000000000000000000000000000000000000000000001e2dd4",
            "debugEnable": true,
            "errorInfo": "",
            "eventCount": 1,
            "feeRecipient": "0x1e9939daaad6924ad004c2560e90804164900341",
            "formatValue": "0",
            "gasLimit": 202240,
            "gasPrice": "51",
            "gasUsed": 52239,
            "intTxnCount": 0,
            "internalRevert": false,
            "internalRevertMessage": "",
            "isContractCreation": false,
            "isFlashloan": false,
            "maxFee": "",
            "nonce": 716284,
            "overwritedBlockNumber": -1,
            "priorityFee": "",
            "receiver": "0xf7b098298f7c69fc14610bf71d5e02c60792894c",
            "revertMessage": "",
            "sender": "0xfbb1b73c4f0bda4f67dca266ce6ef42f520fbb98",
            "simulationEnable": true,
            "sourceTxnHash": "0x5228b0fc21e72a0e6c9a3a9403cf02f3aba7d2b1fc88647f3a6f8120e00ea9c6",
            "status": true,
            "timestamp": "2017-08-04T11:37:34Z",
            "transactionFee": "0.002664189",
            "txnHash": "0x5228b0fc21e72a0e6c9a3a9403cf02f3aba7d2b1fc88647f3a6f8120e00ea9c6",
            "txnIndex": 76,
            "type": 0,
            "value": "0"
        },
        "fund_flow": [
            {
                "amount": "1,977.812",
                "from": "0xfbb1b73c4f0bda4f67dca266ce6ef42f520fbb98",
                "id": 1,
                "isERC1155": false,
                "isERC721": false,
                "isReverted": false,
                "order": 1,
                "to": "0x3b407ced99f2d1e37ed14a1f844b1c19dc4e8b12",
                "token": "0xf7b098298f7c69fc14610bf71d5e02c60792894c"
            }
        ],
        "token_infos": [
            {
                "address": "0xc02aaa39b223fe8d0a0e5c4f27ead9083c756cc2",
                "decimals": 18
            },
            {
                "address": "0xf7b098298f7c69fc14610bf71d5e02c60792894c",
                "decimals": 3
            },
            {
                "address": "0xeeeeeeeeeeeeeeeeeeeeeeeeeeeeeeeeeeeeeeee",
                "decimals": 18
            }
        ]
    },
    "address_label": {
        "labels": [
            {
                "address": "0xeeeeeeeeeeeeeeeeeeeeeeeeeeeeeeeeeeeeeeee",
                "label": "Ether"
            },
            {
                "address": "0xfbb1b73c4f0bda4f67dca266ce6ef42f520fbb98",
                "label": "Bittrex"
            },
            {
                "address": "0xf7b098298f7c69fc14610bf71d5e02c60792894c",
                "label": "Matchpool Token"
            },
            {
                "address": "0x0000000000000000000000000000000000000001",
                "label": "Precompiled"
            },
            {
                "address": "0x0000000000000000000000000000000000000002",
                "label": "Precompiled"
            },
            {
                "address": "0x0000000000000000000000000000000000000003",
                "label": "Precompiled"
            },
            {
                "address": "0x0000000000000000000000000000000000000004",
                "label": "Precompiled"
            }
        ]
    },
    "trace": {
        "accountLabels": null,
        "dataMap": {
            "-1": {
                "invocation": {
                    "address": "0xfbb1b73c4f0bda4f67dca266ce6ef42f520fbb98",
                    "callData": "",
                    "decodedMethod": null,
                    "errorInfo": "",
                    "fromAddress": "",
                    "gasUsed": 0,
                    "id": -1,
                    "methodDecoded": false,
                    "operation": "",
                    "output": "",
                    "revert": false,
                    "revertMessage": "",
                    "selector": "",
                    "status": false,
                    "value": ""
                },
                "nodeType": 0
            },
            "0": {
                "invocation": {
                    "address": "0xf7b098298f7c69fc14610bf71d5e02c60792894c",
                    "callData": "0x0000000000000000000000003b407ced99f2d1e37ed14a1f844b1c19dc4e8b1200000000000000000000000000000000000000000000000000000000001e2dd4",
                    "decodedMethod": {
                        "callParams": [
                            {
                                "name": "_recipient",
                                "type": "address",
                                "value": "0x3b407ced99f2d1e37ed14a1f844b1c19dc4e8b12"
                            },
                            {
                                "decimalAvailable": true,
                                "name": "_amount",
                                "type": "uint256",
                                "value": "1,977,812"
                            }
                        ],
                        "constructorArguments": "",
                        "name": "transfer",
                        "returnParams": [
                            {
                                "name": "o_success",
                                "type": "bool",
                                "value": true
                            }
                        ],
                        "signature": "transfer(address,uint256)"
                    },
                    "errorInfo": "",
                    "fromAddress": "0xfbb1b73c4f0bda4f67dca266ce6ef42f520fbb98",
                    "gasUsed": 52239,
                    "id": 0,
                    "methodDecoded": true,
                    "operation": "CALL",
                    "output": "0x0000000000000000000000000000000000000000000000000000000000000001",
                    "revert": false,
                    "revertMessage": "",
                    "selector": "0xa9059cbb",
                    "status": true,
                    "value": "0"
                },
                "nodeType": 0
            },
            "1": {
                "event": {
                    "contract": "0xf7b098298f7c69fc14610bf71d5e02c60792894c",
                    "decodedLog": {
                        "name": "Transfer",
                        "params": [
                            {
                                "name": "_from",
                                "type": "address",
                                "value": "0xfbb1b73c4f0bda4f67dca266ce6ef42f520fbb98"
                            },
                            {
                                "name": "_recipient",
                                "type": "address",
                                "value": "0x3b407ced99f2d1e37ed14a1f844b1c19dc4e8b12"
                            },
                            {
                                "decimalAvailable": true,
                                "name": "_value",
                                "type": "uint256",
                                "value": "1,977,812"
                            }
                        ],
                        "signature": "Transfer(address,address,uint256)"
                    },
                    "id": 1,
                    "logData": "0x00000000000000000000000000000000000000000000000000000000001e2dd4",
                    "logDecoded": true,
                    "operation": "EVENT",
                    "revert": false,
                    "status": true,
                    "topics": [
                        "0xddf252ad1be2c89b69c2b068fc378daa952ba7f163c4a11628f55a4df523b3ef",
                        "0x000000000000000000000000fbb1b73c4f0bda4f67dca266ce6ef42f520fbb98",
                        "0x0000000000000000000000003b407ced99f2d1e37ed14a1f844b1c19dc4e8b12"
                    ]
                },
                "nodeType": 1
            }
        },
        "gasFlame": [
            {
                "children": [
                    {
                        "children": [
                            {
                                "children": [],
                                "depth": 0,
                                "name": "Initial Gas",
                                "value": 23000
                            },
                            {
                                "children": [],
                                "depth": 0,
                                "name": "Executed Gas",
                                "value": 29239
                            }
                        ],
                        "depth": -1,
                        "name": "Actual Gas Used",
                        "value": 52239
                    },
                    {
                        "children": [],
                        "depth": -1,
                        "name": "Refunded Gas",
                        "value": 0
                    }
                ],
                "depth": -2,
                "name": "Total Gas",
                "value": 52239
            }
        ],
        "isConfirmed": true,
        "mainTrace": [
            {
                "children": [
                    {
                        "children": [
                            {
                                "children": [],
                                "depth": 1,
                                "id": 1,
                                "order": 1
                            }
                        ],
                        "depth": 0,
                        "id": 0,
                        "order": 0
                    }
                ],
                "depth": -1,
                "id": -1,
                "order": -1
            }
        ],
        "mainTraceNodeCount": 2,
        "parentIdMap": {
            "0": -1,
            "1": 0
        },
        "tidyTrace": [
            {
                "children": [
                    {
                        "children": [
                            {
                                "children": [],
                                "depth": 1,
                                "id": 1,
                                "order": 1
                            }
                        ],
                        "depth": 0,
                        "id": 0,
                        "order": 0
                    }
                ],
                "depth": -1,
                "id": -1,
                "order": -1
            }
        ],
        "tidyTraceNodeCount": 2
    },
    "state_change": {
        "stateChanges": [
            {
                "address": "0xf7b098298f7c69fc14610bf71d5e02c60792894c",
                "erc": "ERC-20",
                "slots": [
                    {
                        "current": "0x000000000000000000000000000000000000000000000000000000057c7f40d9",
                        "key": "0x36ade940784f9137a5fb2fc91e9d24433e995d4fecfa6710c692a54c9ad82f1b",
                        "prev": "0x000000000000000000000000000000000000000000000000000000057c9d6ead"
                    },
                    {
                        "current": "0x00000000000000000000000000000000000000000000000000000000001e2dd4",
                        "key": "0xd629e79aba314c867b414c366fcf088f7c09fff6344dc19d79312dafaf225d64",
                        "prev": "0x0000000000000000000000000000000000000000000000000000000000000000"
                    }
                ],
                "storageVariables": []
            }
        ]
    }
}