{
    "balance_change": {
        "balanceChanges": [
            {
                "account": "0x10d300d42286b946193e351fdeadadfe73161e40",
                "assets": [
                    {
                        "address": "0xcee1d3c3a02267e37e6b373060f79d5d7b9e1669",
                        "amount": "10",
                        "iconUrl": "",
                        "isERC1155": false,
                        "isERC721": false,
                        "sign": false,
                        "value": "1309.39847"
                    },
                    {
                        "address": "0x6f87d756daf0503d08eb8993686c7fc01dc44fb1",
                        "amount": "1,240.159129367774551481",
                        "iconUrl": "",
                        "isERC1155": false,
                        "isERC721": false,
                        "sign": true,
                        "value": "1325.097915"
                    }
                ]
            },
            {
                "account": "0x6e07a1c50d4db0979a0a65bc8b13744a8a1501de",
                "assets": [
                    {
                        "address": "0xc02aaa39b223fe8d0a0e5c4f27ead9083c756cc2",
                        "amount": "3.459608579596040361",
                        "iconUrl": "https://assets.blocksec.com/icon/f1cb2d02c471d545bbc7722daf3277fd852d98e63d118771af7047bd8256c516.png",
                        "isERC1155": false,
                        "isERC721": false,
                        "sign": false,
                        "value": "1164.6590343754778162"
                    },
                    {
                        "address": "0xcee1d3c3a02267e37e6b373060f79d5d7b9e1669",
                        "amount": "10",
                        "iconUrl": "",
                        "isERC1155": false,
                        "isERC721": false,
                        "sign": true,
                        "value": "1309.39847"
                    }
                ]
            },
            {
                "account": "0xd2e0c4928789e5db620e53af29f5fc7bca262635",
                "assets": [
                    {
                        "address": "0xc02aaa39b223fe8d0a0e5c4f27ead9083c756cc2",
                        "amount": "3.459608579596040361",
                        "iconUrl": "https://assets.blocksec.com/icon/f1cb2d02c471d545bbc7722daf3277fd852d98e63d118771af7047bd8256c516.png",
                        "isERC1155": false,
                        "isERC721": false,
                        "sign": true,
                        "value": "1164.6590343754778162"
                    },
                    {
                        "address": "0x6f87d756daf0503d08eb8993686c7fc01dc44fb1",
                        "amount": "1,240.159129367774551481",
                        "iconUrl": "",
                        "isERC1155": false,
                        "isERC721": false,
                        "sign": false,
                        "value": "1325.097915"
                    }
                ]
            }
        ]
    },
    "profile": {
        "basic_info": {
            "baseFee": "",
            "blockNumber": 10849328,
            "callData": "0x38ed17390000000000000000000000000000000000000000000000008ac7230489e800000000000000000000000000000000000000000000000000418e4a8fe4adee881600000000000000000000000000000000000000000000000000000000000000a000000000000000000000000010d300d42286b946193e351fdeadadfe73161e40000000000000000000000000000000000000000000000000000000005f5d34e60000000000000000000000000000000000000000000000000000000000000003000000000000000000000000cee1d3c3a02267e37e6b373060f79d5d7b9e1669000000000000000000000000c02aaa39b223fe8d0a0e5c4f27ead9083c756cc20000000000000000000000006f87d756daf0503d08eb8993686c7fc01dc44fb1",
            "debugEnable": true,
            "errorInfo": "",
            "eventCount": 8,
            "feeRecipient": "0x2a5994b501e6a560e727b6c2de5d856396aadd38",
            "formatValue": "0",
            "gasLimit": 199718,
            "gasPrice": "109",
            "gasUsed": 147266,
            "intTxnCount": 11,
            "internalRevert": false,
            "internalRevertMessage": "",
            "isContractCreation": false,
            "isFlashloan": false,
            "maxFee": "",
            "nonce": 79,
            "overwritedBlockNumber": -1,
            "priorityFee": "",
            "receiver": "0x7a250d5630b4cf539739df2c5dacb4c659f2488d",
            "revertMessage": "",
            "sender": "0x10d300d42286b946193e351fdeadadfe73161e40",
            "simulationEnable": true,
            "sourceTxnHash": "0x5262fd930f337486f257c677749a763f606f0d5d301927ddd1fd13d6a0d8fbb7",
            "status": true,
            "timestamp": "2020-09-12T20:32:25Z",
            "transactionFee": "0.016051994",
            "txnHash": "0x5262fd930f337486f257c677749a763f606f0d5d301927ddd1fd13d6a0d8fbb7",
            "txnIndex": 78,
            "type": 0,
            "value": "0"
        },
        "fund_flow": [
            {
                "amount": "10",
                "from": "0x10d300d42286b946193e351fdeadadfe73161e40",
                "id": 1,
                "isERC1155": false,
                "isERC721": false,
                "isReverted": false,
                "order": 1,
                "to": "0x6e07a1c50d4db0979a0a65bc8b13744a8a1501de",
                "token": "0xcee1d3c3a02267e37e6b373060f79d5d7b9e1669"
            },
            {
                "amount": "3.459608579596040361",
                "from": "0x6e07a1c50d4db0979a0a65bc8b13744a8a1501de",
                "id": 2,
                "isERC1155": false,
                "isERC721": false,
                "isReverted": false,
                "order": 2,
                "to": "0xd2e0c4928789e5db620e53af29f5fc7bca262635",
                "token": "0xc02aaa39b223fe8d0a0e5c4f27ead9083c756cc2"
            },
            {
                "amount": "1,240.159129367774551481",
                "from": "0xd2e0c4928789e5db620e53af29f5fc7bca262635",
                "id": 3,
                "isERC1155": false,
                "isERC721": false,
                "isReverted": false,
                "order": 3,
                "to": "0x10d300d42286b946193e351fdeadadfe73161e40",
                "token": "0x6f87d756daf0503d08eb8993686c7fc01dc44fb1"
            }
        ],
        "token_infos": [
            {
                "address": "0x6f87d756daf0503d08eb8993686c7fc01dc44fb1",
                "decimals": 18
            },
            {
                "address": "0xc02aaa39b223fe8d0a0e5c4f27ead9083c756cc2",
                "decimals": 18
            },
            {
                "address": "0xcee1d3c3a02267e37e6b373060f79d5d7b9e1669",
                "decimals": 18
            },
            {
                "address": "0xeeeeeeeeeeeeeeeeeeeeeeeeeeeeeeeeeeeeeeee",
                "decimals": 18
            }
        ]
    },
    "address_label": {
        "labels": [
            {
                "address": "0x6f87d756daf0503d08eb8993686c7fc01dc44fb1",
                "label": "UniTrade.app: TRADE Token"
            },
            {
                "address": "0x7a250d5630b4cf539739df2c5dacb4c659f2488d",
                "label": "Uniswap V2: Router 2"
            },
            {
                "address": "0xcee1d3c3a02267e37e6b373060f79d5d7b9e1669",
                "label": "YFFI.finance: YFFI Token"
            },
            {
                "address": "0x0000000000000000000000000000000000000001",
                "label": "Precompiled"
            },
            {
                "address": "0xeeeeeeeeeeeeeeeeeeeeeeeeeeeeeeeeeeeeeeee",
                "label": "Ether"
            },
            {
                "address": "0xc02aaa39b223fe8d0a0e5c4f27ead9083c756cc2",
                "label": "Wrapped Ether (WETH)"
            },
            {
                "address": "0x6e07a1c50d4db0979a0a65bc8b13744a8a1501de",
                "label": "Uniswap V2: YFFI"
            },
            {
                "address": "0x0000000000000000000000000000000000000002",
                "label": "Precompiled"
            },
            {
                "address": "0x0000000000000000000000000000000000000003",
                "label": "Precompiled"
            },
            {
                "address": "0x0000000000000000000000000000000000000004",
                "label": "Precompiled"
            },
            {
                "address": "0xd2e0c4928789e5db620e53af29f5fc7bca262635",
                "label": "Uniswap V2: TRADE 2"
            }
        ]
    },
    "trace": {
        "accountLabels": null,
        "dataMap": {
            "-1": {
                "invocation": {
                    "address": "0x10d300d42286b946193e351fdeadadfe73161e40",
                    "callData": "",
                    "decodedMethod": null,
                    "errorInfo": "",
                    "fromAddress": "",
                    "gasUsed": 0,
                    "id": -1,
                    "methodDecoded": false,
                    "operation": "",
                    "output": "",
                    "revert": false,
                    "revertMessage": "",
                    "selector": "",
                    "status": false,
                    "value": ""
                },
                "nodeType": 0
            },
            "0": {
                "invocation": {
                    "address": "0x7a250d5630b4cf539739df2c5dacb4c659f2488d",
                    "callData": "0x0000000000000000000000000000000000000000000000008ac7230489e800000000000000000000000000000000000000000000000000418e4a8fe4adee881600000000000000000000000000000000000000000000000000000000000000a000000000000000000000000010d300d42286b946193e351fdeadadfe73161e40000000000000000000000000000000000000000000000000000000005f5d34e60000000000000000000000000000000000000000000000000000000000000003000000000000000000000000cee1d3c3a02267e37e6b373060f79d5d7b9e1669000000000000000000000000c02aaa39b223fe8d0a0e5c4f27ead9083c756cc20000000000000000000000006f87d756daf0503d08eb8993686c7fc01dc44fb1",
                    "decodedMethod": {
                        "callParams": [
                            {
                                "name": "amountIn",
                                "type": "uint256",
                                "value": "10,000,000,000,000,000,000"
                            },
                            {
                                "name": "amountOutMin",
                                "type": "uint256",
                                "value": "1,209,291,530,505,116,616,726"
                            },
                            {
                                "name": "path",
                                "type": "address[]",
                                "value": [
                                    "0xcee1d3c3a02267e37e6b373060f79d5d7b9e1669",
                                    "0xc02aaa39b223fe8d0a0e5c4f27ead9083c756cc2",
                                    "0x6f87d756daf0503d08eb8993686c7fc01dc44fb1"
                                ]
                            },
                            {
                                "name": "to",
                                "type": "address",
                                "value": "0x10d300d42286b946193e351fdeadadfe73161e40"
                            },
                            {
                                "name": "deadline",
                                "type": "uint256",
                                "value": "1,599,943,910"
                            }
                        ],
                        "constructorArguments": "",
                        "name": "swapExactTokensForTokens",
                        "returnParams": [
                            {
                                "name": "amounts",
                                "type": "uint256[]",
                                "value": [
                                    "10,000,000,000,000,000,000",
                                    "3,459,608,579,596,040,361",
                                    "1,240,159,129,367,774,551,481"
                                ]
                            }
                        ],
                        "signature": "swapExactTokensForTokens(uint256,uint256,address[],address,uint256)"
                    },
                    "errorInfo": "",
                    "fromAddress": "0x10d300d42286b946193e351fdeadadfe73161e40",
                    "gasUsed": 147266,
                    "id": 0,
                    "methodDecoded": true,
                    "operation": "CALL",
                    "output": "0x000000000000000000000000000000000000000000000000000000000000002000000000000000000000000000000000000000000000000000000000000000030000000000000000000000000000000000000000000000008ac7230489e800000000000000000000000000000000000000000000000000003002ffac60b738a90000000000000000000000000000000000000000000000433aaa4d83ebe8ddb9",
                    "revert": false,
                    "revertMessage": "",
                    "selector": "0x38ed1739",
                    "status": true,
                    "value": "0"
                },
                "nodeType": 0
            },
            "1": {
                "invocation": {
                    "address": "0x6e07a1c50d4db0979a0a65bc8b13744a8a1501de",
                    "callData": "0x",
                    "decodedMethod": {
                        "callParams": [],
                        "constructorArguments": "",
                        "name": "getReserves",
                        "returnParams": [
                            {
                                "name": "_reserve0",
                                "type": "uint112",
                                "value": "64,081,564,510,933,823,060"
                            },
                            {
                                "name": "_reserve1",
                                "type": "uint112",
                                "value": "174,702,104,798,806,543,785"
                            },
                            {
                                "name": "_blockTimestampLast",
                                "type": "uint32",
                                "value": "1,599,942,745"
                            }
                        ],
                        "signature": "getReserves()"
                    },
                    "errorInfo": "",
                    "fromAddress": "0x7a250d5630b4cf539739df2c5dacb4c659f2488d",
                    "gasUsed": 1204,
                    "id": 1,
                    "methodDecoded": true,
                    "operation": "STATICCALL",
                    "output": "0x000000000000000000000000000000000000000000000003794f73676d7d2e54000000000000000000000000000000000000000000000009787a8eb3fdee0da9000000000000000000000000000000000000000000000000000000005f5d3059",
                    "revert": false,
                    "revertMessage": "",
                    "selector": "0x0902f1ac",
                    "status": true,
                    "value": "0"
                },
                "nodeType": 0
            },
            "10": {
                "invocation": {
                    "address": "0xcee1d3c3a02267e37e6b373060f79d5d7b9e1669",
                    "callData": "0x0000000000000000000000006e07a1c50d4db0979a0a65bc8b13744a8a1501de",
                    "decodedMethod": {
                        "callParams": [
                            {
                                "name": "account",
                                "type": "address",
                                "value": "0x6e07a1c50d4db0979a0a65bc8b13744a8a1501de"
                            }
                        ],
                        "constructorArguments": "",
                        "name": "balanceOf",
                        "returnParams": [
                            {
                                "decimalAvailable": true,
                                "name": "",
                                "type": "uint256",
                                "value": "184,702,104,798,806,543,785"
                            }
                        ],
                        "signature": "balanceOf(address)"
                    },
                    "errorInfo": "",
                    "fromAddress": "0x6e07a1c50d4db0979a0a65bc8b13744a8a1501de",
                    "gasUsed": 1190,
                    "id": 10,
                    "methodDecoded": true,
                    "operation": "STATICCALL",
                    "output": "0x00000000000000000000000000000000000000000000000a0341b1b887d60da9",
                    "revert": false,
                    "revertMessage": "",
                    "selector": "0x70a08231",
                    "status": true,
                    "value": "0"
                },
                "nodeType": 0
            },
            "11": {
                "event": {
                    "contract": "0x6e07a1c50d4db0979a0a65bc8b13744a8a1501de",
                    "decodedLog": {
                        "name": "Sync",
                        "params": [
                            {
                                "name": "reserve0",
                                "type": "uint112",
                                "value": "60,621,955,931,337,782,699"
                            },
                            {
                                "name": "reserve1",
                                "type": "uint112",
                                "value": "184,702,104,798,806,543,785"
                            }
                        ],
                        "signature": "Sync(uint112,uint112)"
                    },
                    "id": 11,
                    "logData": "0x000000000000000000000000000000000000000000000003494c73bb0cc5f5ab00000000000000000000000000000000000000000000000a0341b1b887d60da9",
                    "logDecoded": true,
                    "operation": "EVENT",
                    "revert": false,
                    "status": true,
                    "topics": [
                        "0x1c411e9a96e071241c2f21f7726b17ae89e3cab4c78be50e062b03a9fffbbad1"
                    ]
                },
                "nodeType": 1
            },
            "12": {
                "event": {
                    "contract": "0x6e07a1c50d4db0979a0a65bc8b13744a8a1501de",
                    "decodedLog": {
                        "name": "Swap",
                        "params": [
                            {
                                "name": "sender",
                                "type": "address",
                                "value": "0x7a250d5630b4cf539739df2c5dacb4c659f2488d"
                            },
                            {
                                "name": "to",
                                "type": "address",
                                "value": "0xd2e0c4928789e5db620e53af29f5fc7bca262635"
                            },
                            {
                                "name": "amount0In",
                                "type": "uint256",
                                "value": "0"
                            },
                            {
                                "name": "amount1In",
                                "type": "uint256",
                                "value": "10,000,000,000,000,000,000"
                            },
                            {
                                "name": "amount0Out",
                                "type": "uint256",
                                "value": "3,459,608,579,596,040,361"
                            },
                            {
                                "name": "amount1Out",
                                "type": "uint256",
                                "value": "0"
                            }
                        ],
                        "signature": "Swap(address,uint256,uint256,uint256,uint256,address)"
                    },
                    "id": 12,
                    "logData": "0x00000000000000000000000000000000000000000000000000000000000000000000000000000000000000000000000000000000000000008ac7230489e800000000000000000000000000000000000000000000000000003002ffac60b738a90000000000000000000000000000000000000000000000000000000000000000",
                    "logDecoded": true,
                    "operation": "EVENT",
                    "revert": false,
                    "status": true,
                    "topics": [
                        "0xd78ad95fa46c994b6551d0da85fc275fe613ce37657fb8d5e3d130840159d822",
                        "0x0000000000000000000000007a250d5630b4cf539739df2c5dacb4c659f2488d",
                        "0x000000000000000000000000d2e0c4928789e5db620e53af29f5fc7bca262635"
                    ]
                },
                "nodeType": 1
            },
            "13": {
                "invocation": {
                    "address": "0xd2e0c4928789e5db620e53af29f5fc7bca262635",
                    "callData": "0x0000000000000000000000000000000000000000000000433aaa4d83ebe8ddb9000000000000000000000000000000000000000000000000000000000000000000000000000000000000000010d300d42286b946193e351fdeadadfe73161e4000000000000000000000000000000000000000000000000000000000000000800000000000000000000000000000000000000000000000000000000000000000",
                    "decodedMethod": {
                        "callParams": [
                            {
                                "name": "amount0Out",
                                "type": "uint256",
                                "value": "1,240,159,129,367,774,551,481"
                            },
                            {
                                "name": "amount1Out",
                                "type": "uint256",
                                "value": "0"
                            },
                            {
                                "name": "to",
                                "type": "address",
                                "value": "0x10d300d42286b946193e351fdeadadfe73161e40"
                            },
                            {
                                "name": "data",
                                "type": "bytes",
                                "value": "0x"
                            }
                        ],
                        "constructorArguments": "",
                        "name": "swap",
                        "returnParams": [],
                        "signature": "swap(uint256,uint256,address,bytes)"
                    },
                    "errorInfo": "",
                    "fromAddress": "0x7a250d5630b4cf539739df2c5dacb4c659f2488d",
                    "gasUsed": 44194,
                    "id": 13,
                    "methodDecoded": true,
                    "operation": "CALL",
                    "output": "",
                    "revert": false,
                    "revertMessage": "",
                    "selector": "0x022c0d9f",
                    "status": true,
                    "value": "0"
                },
                "nodeType": 0
            },
            "14": {
                "invocation": {
                    "address": "0x6f87d756daf0503d08eb8993686c7fc01dc44fb1",
                    "callData": "0x00000000000000000000000010d300d42286b946193e351fdeadadfe73161e400000000000000000000000000000000000000000000000433aaa4d83ebe8ddb9",
                    "decodedMethod": {
                        "callParams": [
                            {
                                "name": "recipient",
                                "type": "address",
                                "value": "0x10d300d42286b946193e351fdeadadfe73161e40"
                            },
                            {
                                "decimalAvailable": true,
                                "name": "amount",
                                "type": "uint256",
                                "value": "1,240,159,129,367,774,551,481"
                            }
                        ],
                        "constructorArguments": "",
                        "name": "transfer",
                        "returnParams": [
                            {
                                "name": "",
                                "type": "bool",
                                "value": true
                            }
                        ],
                        "signature": "transfer(address,uint256)"
                    },
                    "errorInfo": "",
                    "fromAddress": "0xd2e0c4928789e5db620e53af29f5fc7bca262635",
                    "gasUsed": 14735,
                    "id": 14,
                    "methodDecoded": true,
                    "operation": "CALL",
                    "output": "0x0000000000000000000000000000000000000000000000000000000000000001",
                    "revert": false,
                    "revertMessage": "",
                    "selector": "0xa9059cbb",
                    "status": true,
                    "value": "0"
                },
                "nodeType": 0
            },
            "15": {
                "event": {
                    "contract": "0x6f87d756daf0503d08eb8993686c7fc01dc44fb1",
                    "decodedLog": {
                        "name": "Transfer",
                        "params": [
                            {
                                "name": "from",
                                "type": "address",
                                "value": "0xd2e0c4928789e5db620e53af29f5fc7bca262635"
                            },
                            {
                                "name": "to",
                                "type": "address",
                                "value": "0x10d300d42286b946193e351fdeadadfe73161e40"
                            },
                            {
                                "decimalAvailable": true,
                                "name": "value",
                                "type": "uint256",
                                "value": "1,240,159,129,367,774,551,481"
                            }
                        ],
                        "signature": "Transfer(address,address,uint256)"
                    },
                    "id": 15,
                    "logData": "0x0000000000000000000000000000000000000000000000433aaa4d83ebe8ddb9",
                    "logDecoded": true,
                    "operation": "EVENT",
                    "revert": false,
                    "status": true,
                    "topics": [
                        "0xddf252ad1be2c89b69c2b068fc378daa952ba7f163c4a11628f55a4df523b3ef",
                        "0x000000000000000000000000d2e0c4928789e5db620e53af29f5fc7bca262635",
                        "0x00000000000000000000000010d300d42286b946193e351fdeadadfe73161e40"
                    ]
                },
                "nodeType": 1
            },
            "16": {
                "invocation": {
                    "address": "0x6f87d756daf0503d08eb8993686c7fc01dc44fb1",
                    "callData": "0x000000000000000000000000d2e0c4928789e5db620e53af29f5fc7bca262635",
                    "decodedMethod": {
                        "callParams": [
                            {
                                "name": "account",
                                "type": "address",
                                "value": "0xd2e0c4928789e5db620e53af29f5fc7bca262635"
                            }
                        ],
                        "constructorArguments": "",
                        "name": "balanceOf",
                        "returnParams": [
                            {
                                "decimalAvailable": true,
                                "name": "",
                                "type": "uint256",
                                "value": "1,069,608,386,569,834,011,141,429"
                            }
                        ],
                        "signature": "balanceOf(address)"
                    },
                    "errorInfo": "",
                    "fromAddress": "0xd2e0c4928789e5db620e53af29f5fc7bca262635",
                    "gasUsed": 1218,
                    "id": 16,
                    "methodDecoded": true,
                    "operation": "STATICCALL",
                    "output": "0x00000000000000000000000000000000000000000000e27f9639ed2774bda535",
                    "revert": false,
                    "revertMessage": "",
                    "selector": "0x70a08231",
                    "status": true,
                    "value": "0"
                },
                "nodeType": 0
            },
            "17": {
                "invocation": {
                    "address": "0xc02aaa39b223fe8d0a0e5c4f27ead9083c756cc2",
                    "callData": "0x000000000000000000000000d2e0c4928789e5db620e53af29f5fc7bca262635",
                    "decodedMethod": {
                        "callParams": [
                            {
                                "name": "",
                                "type": "address",
                                "value": "0xd2e0c4928789e5db620e53af29f5fc7bca262635"
                            }
                        ],
                        "constructorArguments": "",
                        "name": "balanceOf",
                        "returnParams": [
                            {
                                "decimalAvailable": true,
                                "name": "",
                                "type": "uint256",
                                "value": "2,978,339,996,560,706,461,490"
                            }
                        ],
                        "signature": "balanceOf(address)"
                    },
                    "errorInfo": "",
                    "fromAddress": "0xd2e0c4928789e5db620e53af29f5fc7bca262635",
                    "gasUsed": 1234,
                    "id": 17,
                    "methodDecoded": true,
                    "operation": "STATICCALL",
                    "output": "0x0000000000000000000000000000000000000000000000a174c53ef34b0b5f32",
                    "revert": false,
                    "revertMessage": "",
                    "selector": "0x70a08231",
                    "status": true,
                    "value": "0"
                },
                "nodeType": 0
            },
            "18": {
                "event": {
                    "contract": "0xd2e0c4928789e5db620e53af29f5fc7bca262635",
                    "decodedLog": {
                        "name": "Sync",
                        "params": [
                            {
                                "name": "reserve0",
                                "type": "uint112",
                                "value": "1,069,608,386,569,834,011,141,429"
                            },
                            {
                                "name": "reserve1",
                                "type": "uint112",
                                "value": "2,978,339,996,560,706,461,490"
                            }
                        ],
                        "signature": "Sync(uint112,uint112)"
                    },
                    "id": 18,
                    "logData": "0x00000000000000000000000000000000000000000000e27f9639ed2774bda5350000000000000000000000000000000000000000000000a174c53ef34b0b5f32",
                    "logDecoded": true,
                    "operation": "EVENT",
                    "revert": false,
                    "status": true,
                    "topics": [
                        "0x1c411e9a96e071241c2f21f7726b17ae89e3cab4c78be50e062b03a9fffbbad1"
                    ]
                },
                "nodeType": 1
            },
            "19": {
                "event": {
                    "contract": "0xd2e0c4928789e5db620e53af29f5fc7bca262635",
                    "decodedLog": {
                        "name": "Swap",
                        "params": [
                            {
                                "name": "sender",
                                "type": "address",
                                "value": "0x7a250d5630b4cf539739df2c5dacb4c659f2488d"
                            },
                            {
                                "name": "to",
                                "type": "address",
                                "value": "0x10d300d42286b946193e351fdeadadfe73161e40"
                            },
                            {
                                "name": "amount0In",
                                "type": "uint256",
                                "value": "0"
                            },
                            {
                                "name": "amount1In",
                                "type": "uint256",
                                "value": "3,459,608,579,596,040,361"
                            },
                            {
                                "name": "amount0Out",
                                "type": "uint256",
                                "value": "1,240,159,129,367,774,551,481"
                            },
                            {
                                "name": "amount1Out",
                                "type": "uint256",
                                "value": "0"
                            }
                        ],
                        "signature": "Swap(address,uint256,uint256,uint256,uint256,address)"
                    },
                    "id": 19,
                    "logData": "0x00000000000000000000000000000000000000000000000000000000000000000000000000000000000000000000000000000000000000003002ffac60b738a90000000000000000000000000000000000000000000000433aaa4d83ebe8ddb90000000000000000000000000000000000000000000000000000000000000000",
                    "logDecoded": true,
                    "operation": "EVENT",
                    "revert": false,
                    "status": true,
                    "topics": [
                        "0xd78ad95fa46c994b6551d0da85fc275fe613ce37657fb8d5e3d130840159d822",
                        "0x0000000000000000000000007a250d5630b4cf539739df2c5dacb4c659f2488d",
                        "0x00000000000000000000000010d300d42286b946193e351fdeadadfe73161e40"
                    ]
                },
                "nodeType": 1
            },
            "2": {
                "invocation": {
                    "address": "0xd2e0c4928789e5db620e53af29f5fc7bca262635",
                    "callData": "0x",
                    "decodedMethod": {
                        "callParams": [],
                        "constructorArguments": "",
                        "name": "getReserves",
                        "returnParams": [
                            {
                                "name": "_reserve0",
                                "type": "uint112",
                                "value": "1,070,848,545,699,201,785,692,910"
                            },
                            {
                                "name": "_reserve1",
                                "type": "uint112",
                                "value": "2,974,880,387,981,110,421,129"
                            },
                            {
                                "name": "_blockTimestampLast",
                                "type": "uint32",
                                "value": "1,599,942,745"
                            }
                        ],
                        "signature": "getReserves()"
                    },
                    "errorInfo": "",
                    "fromAddress": "0x7a250d5630b4cf539739df2c5dacb4c659f2488d",
                    "gasUsed": 1204,
                    "id": 2,
                    "methodDecoded": true,
                    "operation": "STATICCALL",
                    "output": "0x00000000000000000000000000000000000000000000e2c2d0e43aab60a682ee0000000000000000000000000000000000000000000000a144c23f46ea542689000000000000000000000000000000000000000000000000000000005f5d3059",
                    "revert": false,
                    "revertMessage": "",
                    "selector": "0x0902f1ac",
                    "status": true,
                    "value": "0"
                },
                "nodeType": 0
            },
            "3": {
                "invocation": {
                    "address": "0xcee1d3c3a02267e37e6b373060f79d5d7b9e1669",
                    "callData": "0x00000000000000000000000010d300d42286b946193e351fdeadadfe73161e400000000000000000000000006e07a1c50d4db0979a0a65bc8b13744a8a1501de0000000000000000000000000000000000000000000000008ac7230489e80000",
                    "decodedMethod": {
                        "callParams": [
                            {
                                "name": "sender",
                                "type": "address",
                                "value": "0x10d300d42286b946193e351fdeadadfe73161e40"
                            },
                            {
                                "name": "recipient",
                                "type": "address",
                                "value": "0x6e07a1c50d4db0979a0a65bc8b13744a8a1501de"
                            },
                            {
                                "decimalAvailable": true,
                                "name": "amount",
                                "type": "uint256",
                                "value": "10,000,000,000,000,000,000"
                            }
                        ],
                        "constructorArguments": "",
                        "name": "transferFrom",
                        "returnParams": [
                            {
                                "name": "",
                                "type": "bool",
                                "value": true
                            }
                        ],
                        "signature": "transferFrom(address,address,uint256)"
                    },
                    "errorInfo": "",
                    "fromAddress": "0x7a250d5630b4cf539739df2c5dacb4c659f2488d",
                    "gasUsed": 22837,
                    "id": 3,
                    "methodDecoded": true,
                    "operation": "CALL",
                    "output": "0x0000000000000000000000000000000000000000000000000000000000000001",
                    "revert": false,
                    "revertMessage": "",
                    "selector": "0x23b872dd",
                    "status": true,
                    "value": "0"
                },
                "nodeType": 0
            },
            "4": {
                "event": {
                    "contract": "0xcee1d3c3a02267e37e6b373060f79d5d7b9e1669",
                    "decodedLog": {
                        "name": "Transfer",
                        "params": [
                            {
                                "name": "from",
                                "type": "address",
                                "value": "0x10d300d42286b946193e351fdeadadfe73161e40"
                            },
                            {
                                "name": "to",
                                "type": "address",
                                "value": "0x6e07a1c50d4db0979a0a65bc8b13744a8a1501de"
                            },
                            {
                                "decimalAvailable": true,
                                "name": "value",
                                "type": "uint256",
                                "value": "10,000,000,000,000,000,000"
                            }
                        ],
                        "signature": "Transfer(address,address,uint256)"
                    },
                    "id": 4,
                    "logData": "0x0000000000000000000000000000000000000000000000008ac7230489e80000",
                    "logDecoded": true,
                    "operation": "EVENT",
                    "revert": false,
                    "status": true,
                    "topics": [
                        "0xddf252ad1be2c89b69c2b068fc378daa952ba7f163c4a11628f55a4df523b3ef",
                        "0x00000000000000000000000010d300d42286b946193e351fdeadadfe73161e40",
                        "0x0000000000000000000000006e07a1c50d4db0979a0a65bc8b13744a8a1501de"
                    ]
                },
                "nodeType": 1
            },
            "5": {
                "event": {
                    "contract": "0xcee1d3c3a02267e37e6b373060f79d5d7b9e1669",
                    "decodedLog": {
                        "name": "Approval",
                        "params": [
                            {
                                "name": "owner",
                                "type": "address",
                                "value": "0x10d300d42286b946193e351fdeadadfe73161e40"
                            },
                            {
                                "name": "spender",
                                "type": "address",
                                "value": "0x7a250d5630b4cf539739df2c5dacb4c659f2488d"
                            },
                            {
                                "decimalAvailable": true,
                                "name": "value",
                                "type": "uint256",
                                "value": "115,792,089,237,316,195,423,570,985,008,687,907,853,269,984,665,640,564,039,437,317,707,913,129,639,935"
                            }
                        ],
                        "signature": "Approval(address,address,uint256)"
                    },
                    "id": 5,
                    "logData": "0xfffffffffffffffffffffffffffffffffffffffffffffffee6bfa38684803fff",
                    "logDecoded": true,
                    "operation": "EVENT",
                    "revert": false,
                    "status": true,
                    "topics": [
                        "0x8c5be1e5ebec7d5bd14f71427d1e84f3dd0314c0f7b2291e5b200ac8c7c3b925",
                        "0x00000000000000000000000010d300d42286b946193e351fdeadadfe73161e40",
                        "0x0000000000000000000000007a250d5630b4cf539739df2c5dacb4c659f2488d"
                    ]
                },
                "nodeType": 1
            },
            "6": {
                "invocation": {
                    "address": "0x6e07a1c50d4db0979a0a65bc8b13744a8a1501de",
                    "callData": "0x0000000000000000000000000000000000000000000000003002ffac60b738a90000000000000000000000000000000000000000000000000000000000000000000000000000000000000000d2e0c4928789e5db620e53af29f5fc7bca26263500000000000000000000000000000000000000000000000000000000000000800000000000000000000000000000000000000000000000000000000000000000",
                    "decodedMethod": {
                        "callParams": [
                            {
                                "name": "amount0Out",
                                "type": "uint256",
                                "value": "3,459,608,579,596,040,361"
                            },
                            {
                                "name": "amount1Out",
                                "type": "uint256",
                                "value": "0"
                            },
                            {
                                "name": "to",
                                "type": "address",
                                "value": "0xd2e0c4928789e5db620e53af29f5fc7bca262635"
                            },
                            {
                                "name": "data",
                                "type": "bytes",
                                "value": "0x"
                            }
                        ],
                        "constructorArguments": "",
                        "name": "swap",
                        "returnParams": [],
                        "signature": "swap(uint256,uint256,address,bytes)"
                    },
                    "errorInfo": "",
                    "fromAddress": "0x7a250d5630b4cf539739df2c5dacb4c659f2488d",
                    "gasUsed": 44593,
                    "id": 6,
                    "methodDecoded": true,
                    "operation": "CALL",
                    "output": "",
                    "revert": false,
                    "revertMessage": "",
                    "selector": "0x022c0d9f",
                    "status": true,
                    "value": "0"
                },
                "nodeType": 0
            },
            "7": {
                "invocation": {
                    "address": "0xc02aaa39b223fe8d0a0e5c4f27ead9083c756cc2",
                    "callData": "0x000000000000000000000000d2e0c4928789e5db620e53af29f5fc7bca2626350000000000000000000000000000000000000000000000003002ffac60b738a9",
                    "decodedMethod": {
                        "callParams": [
                            {
                                "name": "dst",
                                "type": "address",
                                "value": "0xd2e0c4928789e5db620e53af29f5fc7bca262635"
                            },
                            {
                                "decimalAvailable": true,
                                "name": "wad",
                                "type": "uint256",
                                "value": "3,459,608,579,596,040,361"
                            }
                        ],
                        "constructorArguments": "",
                        "name": "transfer",
                        "returnParams": [
                            {
                                "name": "",
                                "type": "bool",
                                "value": true
                            }
                        ],
                        "signature": "transfer(address,uint256)"
                    },
                    "errorInfo": "",
                    "fromAddress": "0x6e07a1c50d4db0979a0a65bc8b13744a8a1501de",
                    "gasUsed": 15162,
                    "id": 7,
                    "methodDecoded": true,
                    "operation": "CALL",
                    "output": "0x0000000000000000000000000000000000000000000000000000000000000001",
                    "revert": false,
                    "revertMessage": "",
                    "selector": "0xa9059cbb",
                    "status": true,
                    "value": "0"
                },
                "nodeType": 0
            },
            "8": {
                "event": {
                    "contract": "0xc02aaa39b223fe8d0a0e5c4f27ead9083c756cc2",
                    "decodedLog": {
                        "name": "Transfer",
                        "params": [
                            {
                                "name": "src",
                                "type": "address",
                                "value": "0x6e07a1c50d4db0979a0a65bc8b13744a8a1501de"
                            },
                            {
                                "name": "dst",
                                "type": "address",
                                "value": "0xd2e0c4928789e5db620e53af29f5fc7bca262635"
                            },
                            {
                                "decimalAvailable": true,
                                "name": "wad",
                                "type": "uint256",
                                "value": "3,459,608,579,596,040,361"
                            }
                        ],
                        "signature": "Transfer(address,address,uint256)"
                    },
                    "id": 8,
                    "logData": "0x0000000000000000000000000000000000000000000000003002ffac60b738a9",
                    "logDecoded": true,
                    "operation": "EVENT",
                    "revert": false,
                    "status": true,
                    "topics": [
                        "0xddf252ad1be2c89b69c2b068fc378daa952ba7f163c4a11628f55a4df523b3ef",
                        "0x0000000000000000000000006e07a1c50d4db0979a0a65bc8b13744a8a1501de",
                        "0x000000000000000000000000d2e0c4928789e5db620e53af29f5fc7bca262635"
                    ]
                },
                "nodeType": 1
            },
            "9": {
                "invocation": {
                    "address": "0xc02aaa39b223fe8d0a0e5c4f27ead9083c756cc2",
                    "callData": "0x0000000000000000000000006e07a1c50d4db0979a0a65bc8b13744a8a1501de",
                    "decodedMethod": {
                        "callParams": [
                            {
                                "name": "",
                                "type": "address",
                                "value": "0x6e07a1c50d4db0979a0a65bc8b13744a8a1501de"
                            }
                        ],
                        "constructorArguments": "",
                        "name": "balanceOf",
                        "returnParams": [
                            {
                                "decimalAvailable": true,
                                "name": "",
                                "type": "uint256",
                                "value": "60,621,955,931,337,782,699"
                            }
                        ],
                        "signature": "balanceOf(address)"
                    },
                    "errorInfo": "",
                    "fromAddress": "0x6e07a1c50d4db0979a0a65bc8b13744a8a1501de",
                    "gasUsed": 1234,
                    "id": 9,
                    "methodDecoded": true,
                    "operation": "STATICCALL",
                    "output": "0x000000000000000000000000000000000000000000000003494c73bb0cc5f5ab",
                    "revert": false,
                    "revertMessage": "",
                    "selector": "0x70a08231",
                    "status": true,
                    "value": "0"
                },
                "nodeType": 0
            }
        },
        "gasFlame": [
            {
                "children": [
                    {
                        "children": [
                            {
                                "children": [],
                                "depth": 0,
                                "name": "Initial Gas",
                                "value": 23416
                            },
                            {
                                "children": [
                                    {
                                        "children": [],
                                        "depth": 1,
                                        "name": "getReserves",
                                        "value": 1204
                                    },
                                    {
                                        "children": [],
                                        "depth": 1,
                                        "name": "getReserves",
                                        "value": 1204
                                    },
                                    {
                                        "children": [],
                                        "depth": 1,
                                        "name": "transferFrom",
                                        "value": 22837
                                    },
                                    {
                                        "children": [
                                            {
                                                "children": [],
                                                "depth": 2,
                                                "name": "transfer",
                                                "value": 15162
                                            },
                                            {
                                                "children": [],
                                                "depth": 2,
                                                "name": "balanceOf",
                                                "value": 1234
                                            },
                                            {
                                                "children": [],
                                                "depth": 2,
                                                "name": "balanceOf",
                                                "value": 1190
                                            }
                                        ],
                                        "depth": 1,
                                        "name": "swap",
                                        "value": 44593
                                    },
                                    {
                                        "children": [
                                            {
                                                "children": [],
                                                "depth": 2,
                                                "name": "transfer",
                                                "value": 14735
                                            },
                                            {
                                                "children": [],
                                                "depth": 2,
                                                "name": "balanceOf",
                                                "value": 1218
                                            },
                                            {
                                                "children": [],
                                                "depth": 2,
                                                "name": "balanceOf",
                                                "value": 1234
                                            }
                                        ],
                                        "depth": 1,
                                        "name": "swap",
                                        "value": 44194
                                    }
                                ],
                                "depth": 0,
                                "name": "Executed Gas",
                                "value": 132250
                            }
                        ],
                        "depth": -1,
                        "name": "Actual Gas Used",
                        "value": 147266
                    },
                    {
                        "children": [],
                        "depth": -1,
                        "name": "Refunded Gas",
                        "value": 8400
                    }
                ],
                "depth": -2,
                "name": "Total Gas",
                "value": 155666
            }
        ],
        "isConfirmed": true,
        "mainTrace": [
            {
                "children": [
                    {
                        "children": [
                            {
                                "children": [],
                                "depth": 1,
                                "id": 1,
                                "order": 1
                            },
                            {
                                "children": [],
                                "depth": 1,
                                "id": 2,
                                "order": 2
                            },
                            {
                                "children": [
                                    {
                                        "children": [],
                                        "depth": 2,
                                        "id": 4,
                                        "order": 4
                                    },
                                    {
                                        "children": [],
                                        "depth": 2,
                                        "id": 5,
                                        "order": 5
                                    }
                                ],
                                "depth": 1,
                                "id": 3,
                                "order": 3
                            },
                            {
                                "children": [
                                    {
                                        "children": [
                                            {
                                                "children": [],
                                                "depth": 3,
                                                "id": 8,
                                                "order": 8
                                            }
                                        ],
                                        "depth": 2,
                                        "id": 7,
                                        "order": 7
                                    },
                                    {
                                        "children": [],
                                        "depth": 2,
                                        "id": 9,
                                        "order": 9
                                    },
                                    {
                                        "children": [],
                                        "depth": 2,
                                        "id": 10,
                                        "order": 10
                                    },
                                    {
                                        "children": [],
                                        "depth": 2,
                                        "id": 11,
                                        "order": 11
                                    },
                                    {
                                        "children": [],
                                        "depth": 2,
                                        "id": 12,
                                        "order": 12
                                    }
                                ],
                                "depth": 1,
                                "id": 6,
                                "order": 6
                            },
                            {
                                "children": [
                                    {
                                        "children": [
                                            {
                                                "children": [],
                                                "depth": 3,
                                                "id": 15,
                                                "order": 15
                                            }
                                        ],
                                        "depth": 2,
                                        "id": 14,
                                        "order": 14
                                    },
                                    {
                                        "children": [],
                                        "depth": 2,
                                        "id": 16,
                                        "order": 16
                                    },
                                    {
                                        "children": [],
                                        "depth": 2,
                                        "id": 17,
                                        "order": 17
                                    },
                                    {
                                        "children": [],
                                        "depth": 2,
                                        "id": 18,
                                        "order": 18
                                    },
                                    {
                                        "children": [],
                                        "depth": 2,
                                        "id": 19,
                                        "order": 19
                                    }
                                ],
                                "depth": 1,
                                "id": 13,
                                "order": 13
                            }
                        ],
                        "depth": 0,
                        "id": 0,
                        "order": 0
                    }
                ],
                "depth": -1,
                "id": -1,
                "order": -1
            }
        ],
        "mainTraceNodeCount": 20,
        "parentIdMap": {
            "0": -1,
            "1": 0,
            "10": 6,
            "11": 6,
            "12": 6,
            "13": 0,
            "14": 13,
            "15": 14,
            "16": 13,
            "17": 13,
            "18": 13,
            "19": 13,
            "2": 0,
            "3": 0,
            "4": 3,
            "5": 3,
            "6": 0,
            "7": 6,
            "8": 7,
            "9": 6
        },
        "tidyTrace": [
            {
                "children": [
                    {
                        "children": [
                            {
                                "children": [
                                    {
                                        "children": [],
                                        "depth": 2,
                                        "id": 4,
                                        "order": 4
                                    },
                                    {
                                        "children": [],
                                        "depth": 2,
                                        "id": 5,
                                        "order": 5
                                    }
                                ],
                                "depth": 1,
                                "id": 3,
                                "order": 3
                            },
                            {
                                "children": [
                                    {
                                        "children": [
                                            {
                                                "children": [],
                                                "depth": 3,
                                                "id": 8,
                                                "order": 8
                                            }
                                        ],
                                        "depth": 2,
                                        "id": 7,
                                        "order": 7
                                    },
                                    {
                                        "children": [],
                                        "depth": 2,
                                        "id": 11,
                                        "order": 11
                                    },
                                    {
                                        "children": [],
                                        "depth": 2,
                                        "id": 12,
                                        "order": 12
                                    }
                                ],
                                "depth": 1,
                                "id": 6,
                                "order": 6
                            },
                            {
                                "children": [
                                    {
                                        "children": [
                                            {
                                                "children": [],
                                                "depth": 3,
                                                "id": 15,
                                                "order": 15
                                            }
                                        ],
                                        "depth": 2,
                                        "id": 14,
                                        "order": 14
                                    },
                                    {
                                        "children": [],
                                        "depth": 2,
                                        "id": 18,
                                        "order": 18
                                    },
                                    {
                                        "children": [],
                                        "depth": 2,
                                        "id": 19,
                                        "order": 19
                                    }
                                ],
                                "depth": 1,
                                "id": 13,
                                "order": 13
                            }
                        ],
                        "depth": 0,
                        "id": 0,
                        "order": 0
                    }
                ],
                "depth": -1,
                "id": -1,
                "order": -1
            }
        ],
        "tidyTraceNodeCount": 14
    },
    "state_change": {
        "stateChanges": [
            {
                "address": "0x6e07a1c50d4db0979a0a65bc8b13744a8a1501de",
                "erc": "ERC-20",
                "slots": [
                    {
                        "current": "0x5f5d305900000000000a0341b1b887d60da9000000000003494c73bb0cc5f5ab",
                        "key": "0x0000000000000000000000000000000000000000000000000000000000000008",
                        "prev": "0x5f5d3059000000000009787a8eb3fdee0da9000000000003794f73676d7d2e54"
                    }
                ],
                "storageVariables": [
                    {
                        "name": "reserve0",
                        "type": "uint112",
                        "value": {
                            "current": "60621955931337782699",
                            "prev": "64081564510933823060",
                            "typeTag": 1
                        }
                    },
                    {
                        "name": "reserve1",
                        "type": "uint112",
                        "value": {
                            "current": "184702104798806543785",
                            "prev": "174702104798806543785",
                            "typeTag": 1
                        }
                    },
                    {
                        "name": "blockTimestampLast",
                        "type": "uint32",
                        "value": {
                            "current": "1599942745",
                            "prev": "1599942745",
                            "typeTag": 1
                        }
                    }
                ]
            },
            {
                "address": "0x6f87d756daf0503d08eb8993686c7fc01dc44fb1",
                "erc": "ERC-20",
                "slots": [
                    {
                        "current": "0x00000000000000000000000000000000000000000000e27f9639ed2774bda535",
                        "key": "0x9543a21196ca5d7bc5fcf21940a9ea0010f9385e384ea6a7ce565d4bcc5cb1c7",
                        "prev": "0x00000000000000000000000000000000000000000000e2c2d0e43aab60a682ee"
                    },
                    {
                        "current": "0x0000000000000000000000000000000000000000000002a8286bb48546556515",
                        "key": "0x2ad38627f0ad3823a01d4c04120316d244d5432d47223d59d8d32e9bd6c7c336",
                        "prev": "0x000000000000000000000000000000000000000000000264edc167015a6c875c"
                    }
                ],
                "storageVariables": [
                    {
                        "name": "_balances",
                        "type": "mapping(address => uint256)",
                        "value": {
                            "pairs": [
                                {
                                    "key": "0x10d300d42286b946193e351fdeadadfe73161e40",
                                    "value": {
                                        "current": "12546698590191023908117",
                                        "prev": "11306539460823249356636",
                                        "typeTag": 1
                                    }
                                },
                                {
                                    "key": "0xd2e0c4928789e5db620e53af29f5fc7bca262635",
                                    "value": {
                                        "current": "1069608386569834011141429",
                                        "prev": "1070848545699201785692910",
                                        "typeTag": 1
                                    }
                                }
                            ],
                            "typeTag": 4
                        }
                    }
                ]
            },
            {
                "address": "0xc02aaa39b223fe8d0a0e5c4f27ead9083c756cc2",
                "erc": "ERC-20",
                "slots": [
                    {
                        "current": "0x000000000000000000000000000000000000000000000003494c73bb0cc5f5ab",
                        "key": "0xfc78abf1b789680c76cdcd6ef7c658b6d3f7d5a94197d0b809f847251129d1de",
                        "prev": "0x000000000000000000000000000000000000000000000003794f73676d7d2e54"
                    },
                    {
                        "current": "0x0000000000000000000000000000000000000000000000a174c53ef34b0b5f32",
                        "key": "0xebfaa5915c565e29a0ebb51bfade68a649b752d36618f9ce8da4998d3fe4a3b3",
                        "prev": "0x0000000000000000000000000000000000000000000000a144c23f46ea542689"
                    }
                ],
                "storageVariables": [
                    {
                        "name": "balanceOf",
                        "type": "mapping(address => uint256)",
                        "value": {
                            "pairs": [
                                {
                                    "key": "0x6e07a1c50d4db0979a0a65bc8b13744a8a1501de",
                                    "value": {
                                        "current": "60621955931337782699",
                                        "prev": "64081564510933823060",
                                        "typeTag": 1
                                    }
                                },
                                {
                                    "key": "0xd2e0c4928789e5db620e53af29f5fc7bca262635",
                                    "value": {
                                        "current": "2978339996560706461490",
                                        "prev": "2974880387981110421129",
                                        "typeTag": 1
                                    }
                                }
                            ],
                            "typeTag": 4
                        }
                    }
                ]
            },
            {
                "address": "0xcee1d3c3a02267e37e6b373060f79d5d7b9e1669",
                "erc": "ERC-20",
                "slots": [
                    {
                        "current": "0x000000000000000000000000000000000000000000000001a0559d9ae3e37a61",
                        "key": "0x2ad38627f0ad3823a01d4c04120316d244d5432d47223d59d8d32e9bd6c7c336",
                        "prev": "0x0000000000000000000000000000000000000000000000022b1cc09f6dcb7a61"
                    },
                    {
                        "current": "0x00000000000000000000000000000000000000000000000a0341b1b887d60da9",
                        "key": "0xd45f7077bd612c1ab7c455d376af466f03631e37163bf3a7d7a78248d68d680d",
                        "prev": "0x000000000000000000000000000000000000000000000009787a8eb3fdee0da9"
                    },
                    {
                        "current": "0xfffffffffffffffffffffffffffffffffffffffffffffffee6bfa38684803fff",
                        "key": "0x7408c701c1def8246158f31851a172bc02e8c58b901fd864a9548f4f4c4b898c",
                        "prev": "0xffffffffffffffffffffffffffffffffffffffffffffffff7186c68b0e683fff"
                    }
                ],
                "storageVariables": [
                    {
                        "name": "_balances",
                        "type": "mapping(address => uint256)",
                        "value": {
                            "pairs": [
                                {
                                    "key": "0x10d300d42286b946193e351fdeadadfe73161e40",
                                    "value": {
                                        "current": "30000057781372287585",
                                        "prev": "40000057781372287585",
                                        "typeTag": 1
                                    }
                                },
                                {
                                    "key": "0x6e07a1c50d4db0979a0a65bc8b13744a8a1501de",
                                    "value": {
                                        "current": "184702104798806543785",
                                        "prev": "174702104798806543785",
                                        "typeTag": 1
                                    }
                                }
                            ],
                            "typeTag": 4
                        }
                    },
                    {
                        "name": "_allowances",
                        "type": "mapping(address => mapping(address => uint256))",
                        "value": {
                            "pairs": [
                                {
                                    "key": "0x10d300d42286b946193e351fdeadadfe73161e40",
                                    "value": {
                                        "pairs": [
                                            {
                                                "key": "0x7a250d5630b4cf539739df2c5dacb4c659f2488d",
                                                "value": {
                                                    "current": "115792089237316195423570985008687907853269984665640564039437317707913129639935",
                                                    "prev": "115792089237316195423570985008687907853269984665640564039447317707913129639935",
                                                    "typeTag": 1
                                                }
                                            }
                                        ],
                                        "typeTag": 4
                                    }
                                }
                            ],
                            "typeTag": 4
                        }
                    }
                ]
            },
            {
                "address": "0xd2e0c4928789e5db620e53af29f5fc7bca262635",
                "erc": "ERC-20",
                "slots": [
                    {
                        "current": "0x5f5d30590000000000a174c53ef34b0b5f3200000000e27f9639ed2774bda535",
                        "key": "0x0000000000000000000000000000000000000000000000000000000000000008",
                        "prev": "0x5f5d30590000000000a144c23f46ea54268900000000e2c2d0e43aab60a682ee"
                    }
                ],
                "storageVariables": [
                    {
                        "name": "reserve0",
                        "type": "uint112",
                        "value": {
                            "current": "1069608386569834011141429",
                            "prev": "1070848545699201785692910",
                            "typeTag": 1
                        }
                    },
                    {
                        "name": "reserve1",
                        "type": "uint112",
                        "value": {
                            "current": "2978339996560706461490",
                            "prev": "2974880387981110421129",
                            "typeTag": 1
                        }
                    },
                    {
                        "name": "blockTimestampLast",
                        "type": "uint32",
                        "value": {
                            "current": "1599942745",
                            "prev": "1599942745",
                            "typeTag": 1
                        }
                    }
                ]
            }
        ]
    }
}