{
    "balance_change": {
        "balanceChanges": [
            {
                "account": "0xf32519d9bd86d99c26d50213a8c316f2d0396050",
                "assets": [
                    {
                        "address": "0x70447f1579ec2d6007f99753427794a466c16f4d",
                        "amount": "173.509",
                        "iconUrl": "",
                        "isERC1155": false,
                        "isERC721": false,
                        "sign": false,
                        "value": ""
                    }
                ]
            },
            {
                "account": "0x9e3a62963173eec4c9308c86b8d4e9d13106ee0a",
                "assets": [
                    {
                        "address": "0x70447f1579ec2d6007f99753427794a466c16f4d",
                        "amount": "173.509",
                        "iconUrl": "",
                        "isERC1155": false,
                        "isERC721": false,
                        "sign": true,
                        "value": ""
                    }
                ]
            }
        ]
    },
    "profile": {
        "basic_info": {
            "baseFee": "",
            "blockNumber": 9302543,
            "callData": "0xa9059cbb0000000000000000000000009e3a62963173eec4c9308c86b8d4e9d13106ee0a00000000000000000000000000000000000000000000000967ebcc35bd408000",
            "debugEnable": true,
            "errorInfo": "",
            "eventCount": 1,
            "feeRecipient": "0x5a0b54d5dc17e0aadc383d2db43b0a0d3e029c4c",
            "formatValue": "0",
            "gasLimit": 60000,
            "gasPrice": "11",
            "gasUsed": 51745,
            "intTxnCount": 0,
            "internalRevert": false,
            "internalRevertMessage": "",
            "isContractCreation": false,
            "isFlashloan": false,
            "maxFee": "",
            "nonce": 15673,
            "overwritedBlockNumber": -1,
            "priorityFee": "",
            "receiver": "0x70447f1579ec2d6007f99753427794a466c16f4d",
            "revertMessage": "",
            "sender": "0xf32519d9bd86d99c26d50213a8c316f2d0396050",
            "simulationEnable": true,
            "sourceTxnHash": "0x52aec1176dc2a62da6303f23c2b5cc966078339f19310ee9fb2e4bf7f19dd09d",
            "status": true,
            "timestamp": "2020-01-18T02:15:37Z",
            "transactionFee": "0.000569195",
            "txnHash": "0x52aec1176dc2a62da6303f23c2b5cc966078339f19310ee9fb2e4bf7f19dd09d",
            "txnIndex": 1,
            "type": 0,
            "value": "0"
        },
        "fund_flow": [
            {
                "amount": "173.509",
                "from": "0xf32519d9bd86d99c26d50213a8c316f2d0396050",
                "id": 1,
                "isERC1155": false,
                "isERC721": false,
                "isReverted": false,
                "order": 1,
                "to": "0x9e3a62963173eec4c9308c86b8d4e9d13106ee0a",
                "token": "0x70447f1579ec2d6007f99753427794a466c16f4d"
            }
        ],
        "token_infos": [
            {
                "address": "0x70447f1579ec2d6007f99753427794a466c16f4d",
                "decimals": 18
            },
            {
                "address": "0xc02aaa39b223fe8d0a0e5c4f27ead9083c756cc2",
                "decimals": 18
            },
            {
                "address": "0xeeeeeeeeeeeeeeeeeeeeeeeeeeeeeeeeeeeeeeee",
                "decimals": 18
            }
        ]
    },
    "address_label": {
        "labels": [
            {
                "address": "0x0000000000000000000000000000000000000002",
                "label": "Precompiled"
            },
            {
                "address": "0x0000000000000000000000000000000000000003",
                "label": "Precompiled"
            },
            {
                "address": "0x0000000000000000000000000000000000000004",
                "label": "Precompiled"
            },
            {
                "address": "0xeeeeeeeeeeeeeeeeeeeeeeeeeeeeeeeeeeeeeeee",
                "label": "Ether"
            },
            {
                "address": "0x70447f1579ec2d6007f99753427794a466c16f4d",
                "label": "PCP (PCP)"
            },
            {
                "address": "0x0000000000000000000000000000000000000001",
                "label": "Precompiled"
            }
        ]
    },
    "trace": {
        "accountLabels": null,
        "dataMap": {
            "-1": {
                "invocation": {
                    "address": "0xf32519d9bd86d99c26d50213a8c316f2d0396050",
                    "callData": "",
                    "decodedMethod": null,
                    "errorInfo": "",
                    "fromAddress": "",
                    "gasUsed": 0,
                    "id": -1,
                    "methodDecoded": false,
                    "operation": "",
                    "output": "",
                    "revert": false,
                    "revertMessage": "",
                    "selector": "",
                    "status": false,
                    "value": ""
                },
                "nodeType": 0
            },
            "0": {
                "invocation": {
                    "address": "0x70447f1579ec2d6007f99753427794a466c16f4d",
                    "callData": "0x0000000000000000000000009e3a62963173eec4c9308c86b8d4e9d13106ee0a00000000000000000000000000000000000000000000000967ebcc35bd408000",
                    "decodedMethod": {
                        "callParams": [
                            {
                                "name": "_to",
                                "type": "address",
                                "value": "0x9e3a62963173eec4c9308c86b8d4e9d13106ee0a"
                            },
                            {
                                "decimalAvailable": true,
                                "name": "_value",
                                "type": "uint256",
                                "value": "173,509,000,000,000,000,000"
                            }
                        ],
                        "constructorArguments": "",
                        "name": "transfer",
                        "returnParams": [
                            {
                                "name": "success",
                                "type": "bool",
                                "value": true
                            }
                        ],
                        "signature": "transfer(address,uint256)"
                    },
                    "errorInfo": "",
                    "fromAddress": "0xf32519d9bd86d99c26d50213a8c316f2d0396050",
                    "gasUsed": 51745,
                    "id": 0,
                    "methodDecoded": true,
                    "operation": "CALL",
                    "output": "0x0000000000000000000000000000000000000000000000000000000000000001",
                    "revert": false,
                    "revertMessage": "",
                    "selector": "0xa9059cbb",
                    "status": true,
                    "value": "0"
                },
                "nodeType": 0
            },
            "1": {
                "event": {
                    "contract": "0x70447f1579ec2d6007f99753427794a466c16f4d",
                    "decodedLog": {
                        "name": "Transfer",
                        "params": [
                            {
                                "name": "_from",
                                "type": "address",
                                "value": "0xf32519d9bd86d99c26d50213a8c316f2d0396050"
                            },
                            {
                                "name": "_to",
                                "type": "address",
                                "value": "0x9e3a62963173eec4c9308c86b8d4e9d13106ee0a"
                            },
                            {
                                "decimalAvailable": true,
                                "name": "_value",
                                "type": "uint256",
                                "value": "173,509,000,000,000,000,000"
                            }
                        ],
                        "signature": "Transfer(address,address,uint256)"
                    },
                    "id": 1,
                    "logData": "0x00000000000000000000000000000000000000000000000967ebcc35bd408000",
                    "logDecoded": true,
                    "operation": "EVENT",
                    "revert": false,
                    "status": true,
                    "topics": [
                        "0xddf252ad1be2c89b69c2b068fc378daa952ba7f163c4a11628f55a4df523b3ef",
                        "0x000000000000000000000000f32519d9bd86d99c26d50213a8c316f2d0396050",
                        "0x0000000000000000000000009e3a62963173eec4c9308c86b8d4e9d13106ee0a"
                    ]
                },
                "nodeType": 1
            }
        },
        "gasFlame": [
            {
                "children": [
                    {
                        "children": [
                            {
                                "children": [],
                                "depth": 0,
                                "name": "Initial Gas",
                                "value": 21656
                            },
                            {
                                "children": [],
                                "depth": 0,
                                "name": "Executed Gas",
                                "value": 30089
                            }
                        ],
                        "depth": -1,
                        "name": "Actual Gas Used",
                        "value": 51745
                    },
                    {
                        "children": [],
                        "depth": -1,
                        "name": "Refunded Gas",
                        "value": 0
                    }
                ],
                "depth": -2,
                "name": "Total Gas",
                "value": 51745
            }
        ],
        "isConfirmed": true,
        "mainTrace": [
            {
                "children": [
                    {
                        "children": [
                            {
                                "children": [],
                                "depth": 1,
                                "id": 1,
                                "order": 1
                            }
                        ],
                        "depth": 0,
                        "id": 0,
                        "order": 0
                    }
                ],
                "depth": -1,
                "id": -1,
                "order": -1
            }
        ],
        "mainTraceNodeCount": 2,
        "parentIdMap": {
            "0": -1,
            "1": 0
        },
        "tidyTrace": [
            {
                "children": [
                    {
                        "children": [
                            {
                                "children": [],
                                "depth": 1,
                                "id": 1,
                                "order": 1
                            }
                        ],
                        "depth": 0,
                        "id": 0,
                        "order": 0
                    }
                ],
                "depth": -1,
                "id": -1,
                "order": -1
            }
        ],
        "tidyTraceNodeCount": 2
    },
    "state_change": {
        "stateChanges": [
            {
                "address": "0x70447f1579ec2d6007f99753427794a466c16f4d",
                "erc": "ERC-20",
                "slots": [
                    {
                        "current": "0x000000000000000000000000000000000000000000000a9b7bc5767435b82fc0",
                        "key": "0xbe818432c42108e49487bae580301fdd48f8a280cb6b18439370cc1f5fe6c9ed",
                        "prev": "0x000000000000000000000000000000000000000000000aa4e3b142a9f2f8afc0"
                    },
                    {
                        "current": "0x00000000000000000000000000000000000000000000000967ebcc35bd408000",
                        "key": "0xb2d776cbb409d92632ef2e64f3530a6d66bf7611f6e019174c2427603eff5bac",
                        "prev": "0x0000000000000000000000000000000000000000000000000000000000000000"
                    }
                ],
                "storageVariables": []
            }
        ]
    }
}