{
    "balance_change": {
        "balanceChanges": []
    },
    "profile": {
        "basic_info": {
            "baseFee": "",
            "blockNumber": 10770947,
            "callData": "0xdedfc1f1000000000000000000000000000000000000000000000000000000000000002000000000000000000000000000000000000000000000000000000000000000010000000000000000000000000000000000000000000000000000000000000020000000000000000000000000998497ffc64240d6a70c38e544521d09dcd2329300000000000000000000000022f9dcf4647084d6c31b2765f6910cd85c178c18000000000000000000000000100000000000000000000000000000000000001100000000000000000000000000000000000000000000000000000000000000000000000000000000000000000000000000000000000000000000000005f2e5d60000000000000000000000000000000000000000000000000337af198697ac0000000000000000000000000000000000000000000000000000000000000000000000000000000000000000000000000000000000000000000000000000000000000000000000000000000000000000000000000000000000000000005f4d5fa100000000000000000000000000000000000000000000000000000174463bb8dd00000000000000000000000000000000000000000000000000000000000001c00000000000000000000000000000000000000000000000000000000000000220000000000000000000000000000000000000000000000000000000000000028000000000000000000000000000000000000000000000000000000000000002800000000000000000000000000000000000000000000000000000000000000024f47261b0000000000000000000000000a0b86991c6218b36c1d19d4a2e9eb0ce3606eb48000000000000000000000000000000000000000000000000000000000000000000000000000000000000000000000000000000000000000000000024f47261b0000000000000000000000000c02aaa39b223fe8d0a0e5c4f27ead9083c756cc2000000000000000000000000000000000000000000000000000000000000000000000000000000000000000000000000000000000000000000000000",
            "debugEnable": true,
            "errorInfo": "",
            "eventCount": 0,
            "feeRecipient": "0x52bc44d5378309ee2abf1539bf71de1b7d7be3b5",
            "formatValue": "0",
            "gasLimit": 72253,
            "gasPrice": "286",
            "gasUsed": 38653,
            "intTxnCount": 0,
            "internalRevert": false,
            "internalRevertMessage": "",
            "isContractCreation": false,
            "isFlashloan": false,
            "maxFee": "",
            "nonce": 244867,
            "overwritedBlockNumber": -1,
            "priorityFee": "",
            "receiver": "0x61935cbdd02287b511119ddb11aeb42f1593b7ef",
            "revertMessage": "",
            "sender": "0x998497ffc64240d6a70c38e544521d09dcd23293",
            "simulationEnable": true,
            "sourceTxnHash": "0x52fb3e1af72c9b7ea26607409a306b1db6a0c6a689ab43a7a368ad4e75b4a53d",
            "status": true,
            "timestamp": "2020-08-31T20:38:35Z",
            "transactionFee": "0.011054758",
            "txnHash": "0x52fb3e1af72c9b7ea26607409a306b1db6a0c6a689ab43a7a368ad4e75b4a53d",
            "txnIndex": 202,
            "type": 0,
            "value": "0"
        },
        "fund_flow": [],
        "token_infos": [
            {
                "address": "0xc02aaa39b223fe8d0a0e5c4f27ead9083c756cc2",
                "decimals": 18
            },
            {
                "address": "0xeeeeeeeeeeeeeeeeeeeeeeeeeeeeeeeeeeeeeeee",
                "decimals": 18
            }
        ]
    },
    "address_label": {
        "labels": [
            {
                "address": "0x0000000000000000000000000000000000000000",
                "label": "Null Address"
            },
            {
                "address": "0x22f9dcf4647084d6c31b2765f6910cd85c178c18",
                "label": "0x: Exchange Proxy Flash Wallet"
            },
            {
                "address": "0x0000000000000000000000000000000000000001",
                "label": "Precompiled"
            },
            {
                "address": "0x0000000000000000000000000000000000000002",
                "label": "Precompiled"
            },
            {
                "address": "0x0000000000000000000000000000000000000003",
                "label": "Precompiled"
            },
            {
                "address": "0x0000000000000000000000000000000000000004",
                "label": "Precompiled"
            },
            {
                "address": "0xeeeeeeeeeeeeeeeeeeeeeeeeeeeeeeeeeeeeeeee",
                "label": "Ether"
            },
            {
                "address": "0x61935cbdd02287b511119ddb11aeb42f1593b7ef",
                "label": "0x: Exchange v3"
            }
        ]
    },
    "trace": {
        "accountLabels": null,
        "dataMap": {
            "-1": {
                "invocation": {
                    "address": "0x998497ffc64240d6a70c38e544521d09dcd23293",
                    "callData": "",
                    "decodedMethod": null,
                    "errorInfo": "",
                    "fromAddress": "",
                    "gasUsed": 0,
                    "id": -1,
                    "methodDecoded": false,
                    "operation": "",
                    "output": "",
                    "revert": false,
                    "revertMessage": "",
                    "selector": "",
                    "status": false,
                    "value": ""
                },
                "nodeType": 0
            },
            "0": {
                "invocation": {
                    "address": "0x61935cbdd02287b511119ddb11aeb42f1593b7ef",
                    "callData": "0x000000000000000000000000000000000000000000000000000000000000002000000000000000000000000000000000000000000000000000000000000000010000000000000000000000000000000000000000000000000000000000000020000000000000000000000000998497ffc64240d6a70c38e544521d09dcd2329300000000000000000000000022f9dcf4647084d6c31b2765f6910cd85c178c18000000000000000000000000100000000000000000000000000000000000001100000000000000000000000000000000000000000000000000000000000000000000000000000000000000000000000000000000000000000000000005f2e5d60000000000000000000000000000000000000000000000000337af198697ac0000000000000000000000000000000000000000000000000000000000000000000000000000000000000000000000000000000000000000000000000000000000000000000000000000000000000000000000000000000000000000005f4d5fa100000000000000000000000000000000000000000000000000000174463bb8dd00000000000000000000000000000000000000000000000000000000000001c00000000000000000000000000000000000000000000000000000000000000220000000000000000000000000000000000000000000000000000000000000028000000000000000000000000000000000000000000000000000000000000002800000000000000000000000000000000000000000000000000000000000000024f47261b0000000000000000000000000a0b86991c6218b36c1d19d4a2e9eb0ce3606eb48000000000000000000000000000000000000000000000000000000000000000000000000000000000000000000000000000000000000000000000024f47261b0000000000000000000000000c02aaa39b223fe8d0a0e5c4f27ead9083c756cc2000000000000000000000000000000000000000000000000000000000000000000000000000000000000000000000000000000000000000000000000",
                    "decodedMethod": {
                        "callParams": [
                            {
                                "name": "orders",
                                "type": "(address,address,address,address,uint256,uint256,uint256,uint256,uint256,uint256,bytes,bytes,bytes,bytes)[]",
                                "value": [
                                    [
                                        {
                                            "name": "makerAddress",
                                            "type": "address",
                                            "value": "0x998497ffc64240d6a70c38e544521d09dcd23293"
                                        },
                                        {
                                            "name": "takerAddress",
                                            "type": "address",
                                            "value": "0x22f9dcf4647084d6c31b2765f6910cd85c178c18"
                                        },
                                        {
                                            "name": "feeRecipientAddress",
                                            "type": "address",
                                            "value": "0x1000000000000000000000000000000000000011"
                                        },
                                        {
                                            "name": "senderAddress",
                                            "type": "address",
                                            "value": "0x0000000000000000000000000000000000000000"
                                        },
                                        {
                                            "name": "makerAssetAmount",
                                            "type": "uint256",
                                            "value": "99,804,630"
                                        },
                                        {
                                            "name": "takerAssetAmount",
                                            "type": "uint256",
                                            "value": "231,846,430,000,000,000"
                                        },
                                        {
                                            "name": "makerFee",
                                            "type": "uint256",
                                            "value": "0"
                                        },
                                        {
                                            "name": "takerFee",
                                            "type": "uint256",
                                            "value": "0"
                                        },
                                        {
                                            "name": "expirationTimeSeconds",
                                            "type": "uint256",
                                            "value": "1,598,906,273"
                                        },
                                        {
                                            "name": "salt",
                                            "type": "uint256",
                                            "value": "1,598,906,153,181"
                                        },
                                        {
                                            "name": "makerAssetData",
                                            "type": "bytes",
                                            "value": "0xf47261b0000000000000000000000000a0b86991c6218b36c1d19d4a2e9eb0ce3606eb48"
                                        },
                                        {
                                            "name": "takerAssetData",
                                            "type": "bytes",
                                            "value": "0xf47261b0000000000000000000000000c02aaa39b223fe8d0a0e5c4f27ead9083c756cc2"
                                        },
                                        {
                                            "name": "makerFeeAssetData",
                                            "type": "bytes",
                                            "value": "0x"
                                        },
                                        {
                                            "name": "takerFeeAssetData",
                                            "type": "bytes",
                                            "value": "0x"
                                        }
                                    ]
                                ]
                            }
                        ],
                        "constructorArguments": "",
                        "name": "batchCancelOrders",
                        "returnParams": [],
                        "signature": "batchCancelOrders((address,address,address,address,uint256,uint256,uint256,uint256,uint256,uint256,bytes,bytes,bytes,bytes)[])"
                    },
                    "errorInfo": "",
                    "fromAddress": "0x998497ffc64240d6a70c38e544521d09dcd23293",
                    "gasUsed": 38653,
                    "id": 0,
                    "methodDecoded": true,
                    "operation": "CALL",
                    "output": "",
                    "revert": false,
                    "revertMessage": "",
                    "selector": "0xdedfc1f1",
                    "status": true,
                    "value": "0"
                },
                "nodeType": 0
            }
        },
        "gasFlame": [
            {
                "children": [
                    {
                        "children": [
                            {
                                "children": [],
                                "depth": 0,
                                "name": "Initial Gas",
                                "value": 25624
                            },
                            {
                                "children": [],
                                "depth": 0,
                                "name": "Executed Gas",
                                "value": 17229
                            }
                        ],
                        "depth": -1,
                        "name": "Actual Gas Used",
                        "value": 38653
                    },
                    {
                        "children": [],
                        "depth": -1,
                        "name": "Refunded Gas",
                        "value": 4200
                    }
                ],
                "depth": -2,
                "name": "Total Gas",
                "value": 42853
            }
        ],
        "isConfirmed": true,
        "mainTrace": [
            {
                "children": [
                    {
                        "children": [],
                        "depth": 0,
                        "id": 0,
                        "order": 0
                    }
                ],
                "depth": -1,
                "id": -1,
                "order": -1
            }
        ],
        "mainTraceNodeCount": 1,
        "parentIdMap": {
            "0": -1
        },
        "tidyTrace": [
            {
                "children": [
                    {
                        "children": [],
                        "depth": 0,
                        "id": 0,
                        "order": 0
                    }
                ],
                "depth": -1,
                "id": -1,
                "order": -1
            }
        ],
        "tidyTraceNodeCount": 1
    },
    "state_change": {
        "stateChanges": []
    }
}