{
    "balance_change": {
        "balanceChanges": [
            {
                "account": "0x1389754c167d737a6e9a0b15dc5d869195d009bf",
                "assets": [
                    {
                        "address": "0xec010f8ff68a152a9c99d773d47f8cc5e2a86f84",
                        "amount": "1",
                        "iconUrl": "",
                        "isERC1155": false,
                        "isERC721": true,
                        "sign": true,
                        "tokenID": "1505",
                        "value": ""
                    },
                    {
                        "address": "0xec010f8ff68a152a9c99d773d47f8cc5e2a86f84",
                        "amount": "1",
                        "iconUrl": "",
                        "isERC1155": false,
                        "isERC721": true,
                        "sign": true,
                        "tokenID": "1506",
                        "value": ""
                    },
                    {
                        "address": "0xeeeeeeeeeeeeeeeeeeeeeeeeeeeeeeeeeeeeeeee",
                        "amount": "0.025",
                        "iconUrl": "https://assets.blocksec.com/image/1663669189317-3.png",
                        "isERC1155": false,
                        "isERC721": false,
                        "sign": false,
                        "value": "42.472863074999997936"
                    }
                ]
            },
            {
                "account": "0x0000a26b00c1f0df003000390027140000faa719",
                "assets": [
                    {
                        "address": "0xeeeeeeeeeeeeeeeeeeeeeeeeeeeeeeeeeeeeeeee",
                        "amount": "0.000625",
                        "iconUrl": "https://assets.blocksec.com/image/1663669189317-3.png",
                        "isERC1155": false,
                        "isERC721": false,
                        "sign": true,
                        "value": "1.0618215768749999483"
                    }
                ]
            },
            {
                "account": "0x0df3a74629fd00139dbd2e77c1ae78171ebd34af",
                "assets": [
                    {
                        "address": "0xeeeeeeeeeeeeeeeeeeeeeeeeeeeeeeeeeeeeeeee",
                        "amount": "0.0025",
                        "iconUrl": "https://assets.blocksec.com/image/1663669189317-3.png",
                        "isERC1155": false,
                        "isERC721": false,
                        "sign": true,
                        "value": "4.247286307499999793"
                    }
                ]
            },
            {
                "account": "0xbedf5bee5ac9c701e7db4cd6839130d019878505",
                "assets": [
                    {
                        "address": "0xeeeeeeeeeeeeeeeeeeeeeeeeeeeeeeeeeeeeeeee",
                        "amount": "0.021875",
                        "iconUrl": "https://assets.blocksec.com/image/1663669189317-3.png",
                        "isERC1155": false,
                        "isERC721": false,
                        "sign": true,
                        "value": "37.16375519062499819"
                    },
                    {
                        "address": "0xec010f8ff68a152a9c99d773d47f8cc5e2a86f84",
                        "amount": "1",
                        "iconUrl": "",
                        "isERC1155": false,
                        "isERC721": true,
                        "sign": false,
                        "tokenID": "1505",
                        "value": ""
                    },
                    {
                        "address": "0xec010f8ff68a152a9c99d773d47f8cc5e2a86f84",
                        "amount": "1",
                        "iconUrl": "",
                        "isERC1155": false,
                        "isERC721": true,
                        "sign": false,
                        "tokenID": "1506",
                        "value": ""
                    }
                ]
            }
        ]
    },
    "profile": {
        "basic_info": {
            "baseFee": "4.58394915",
            "blockNumber": 15421337,
            "callData": "0xb3a34c4c00000000000000000000000000000000000000000000000000000000000000400000007b02230091a7ed01230072f7006a004d60a8d4e71d599b8104250f000000000000000000000000000000000000000000000000000000000000000000400000000000000000000000000000000000000000000000000000000000000560000000000000000000000000bedf5bee5ac9c701e7db4cd6839130d019878505000000000000000000000000004c00500000ad104d7dbd00e3ae0a5c00560c00000000000000000000000000000000000000000000000000000000000000016000000000000000000000000000000000000000000000000000000000000002c00000000000000000000000000000000000000000000000000000000000000002000000000000000000000000000000000000000000000000000000006309cc8d000000000000000000000000000000000000000000000000000000006332ab0d0000000000000000000000000000000000000000000000000000000000000000000000000000000000000000000000000000000000000000010af5f9a3b5257d0000007b02230091a7ed01230072f7006a004d60a8d4e71d599b8104250f0000000000000000000000000000000000000000000000000000000000000000000300000000000000000000000000000000000000000000000000000000000000020000000000000000000000000000000000000000000000000000000000000002000000000000000000000000ec010f8ff68a152a9c99d773d47f8cc5e2a86f8400000000000000000000000000000000000000000000000000000000000005e1000000000000000000000000000000000000000000000000000000000000000100000000000000000000000000000000000000000000000000000000000000010000000000000000000000000000000000000000000000000000000000000002000000000000000000000000ec010f8ff68a152a9c99d773d47f8cc5e2a86f8400000000000000000000000000000000000000000000000000000000000005e2000000000000000000000000000000000000000000000000000000000000000100000000000000000000000000000000000000000000000000000000000000010000000000000000000000000000000000000000000000000000000000000003000000000000000000000000000000000000000000000000000000000000000000000000000000000000000000000000000000000000000000000000000000000000000000000000000000000000000000000000000000000000000000000000000000000000000000000000000000000000000000000000004db73254763000000000000000000000000000000000000000000000000000004db73254763000000000000000000000000000bedf5bee5ac9c701e7db4cd6839130d0198785050000000000000000000000000000000000000000000000000000000000000000000000000000000000000000000000000000000000000000000000000000000000000000000000000000000000000000000000000000000000000000000000000000000000000000000000000000000000000000000000000002386f26fc10000000000000000000000000000000000000000000000000000002386f26fc10000000000000000000000000000000a26b00c1f0df003000390027140000faa7190000000000000000000000000000000000000000000000000000000000000000000000000000000000000000000000000000000000000000000000000000000000000000000000000000000000000000000000000000000000000000000000000000000000000000000000000000000000000000000000000008e1bc9bf040000000000000000000000000000000000000000000000000000008e1bc9bf040000000000000000000000000000df3a74629fd00139dbd2e77c1ae78171ebd34af000000000000000000000000000000000000000000000000000000000000004140e7006d8d69e98bf2dd2180129f9cf3cc2191f5b8cea9c62ab0584599e64d0537758022ccd82ce11cec9f6e8e012715c8c70aa52c70bf8f3ead73e74173da8c1c00000000000000000000000000000000000000000000000000000000000000",
            "debugEnable": true,
            "errorInfo": "",
            "eventCount": 5,
            "feeRecipient": "0x829bd824b016326a401d083b33d092293333a830",
            "formatValue": "0.025",
            "gasLimit": 217478,
            "gasPrice": "6.08394915",
            "gasUsed": 212522,
            "intTxnCount": 8,
            "internalRevert": false,
            "internalRevertMessage": "",
            "isContractCreation": false,
            "isFlashloan": false,
            "maxFee": "7.424114997",
            "nonce": 1057,
            "overwritedBlockNumber": -1,
            "priorityFee": "1.5",
            "receiver": "0x00000000006c3852cbef3e08e8df289169ede581",
            "revertMessage": "",
            "sender": "0x1389754c167d737a6e9a0b15dc5d869195d009bf",
            "simulationEnable": true,
            "sourceTxnHash": "0x52fc15ac32c56726bce4ccdd1e87b894e2f325cb1f9bdc4cab4a2b14226edfdf",
            "status": true,
            "timestamp": "2022-08-27T11:31:28Z",
            "transactionFee": "0.0012929730412563",
            "txnHash": "0x52fc15ac32c56726bce4ccdd1e87b894e2f325cb1f9bdc4cab4a2b14226edfdf",
            "txnIndex": 99,
            "type": 2,
            "value": "25000000000000000"
        },
        "fund_flow": [
            {
                "amount": "0.025",
                "from": "0x1389754c167d737a6e9a0b15dc5d869195d009bf",
                "id": 1,
                "isERC1155": false,
                "isERC721": false,
                "isReverted": false,
                "order": 1,
                "to": "0x00000000006c3852cbef3e08e8df289169ede581",
                "token": "0xeeeeeeeeeeeeeeeeeeeeeeeeeeeeeeeeeeeeeeee"
            },
            {
                "amount": "0.021875",
                "from": "0x00000000006c3852cbef3e08e8df289169ede581",
                "id": 2,
                "isERC1155": false,
                "isERC721": false,
                "isReverted": false,
                "order": 2,
                "to": "0xbedf5bee5ac9c701e7db4cd6839130d019878505",
                "token": "0xeeeeeeeeeeeeeeeeeeeeeeeeeeeeeeeeeeeeeeee"
            },
            {
                "amount": "0.000625",
                "from": "0x00000000006c3852cbef3e08e8df289169ede581",
                "id": 3,
                "isERC1155": false,
                "isERC721": false,
                "isReverted": false,
                "order": 3,
                "to": "0x0000a26b00c1f0df003000390027140000faa719",
                "token": "0xeeeeeeeeeeeeeeeeeeeeeeeeeeeeeeeeeeeeeeee"
            },
            {
                "amount": "0.0025",
                "from": "0x00000000006c3852cbef3e08e8df289169ede581",
                "id": 4,
                "isERC1155": false,
                "isERC721": false,
                "isReverted": false,
                "order": 4,
                "to": "0x0df3a74629fd00139dbd2e77c1ae78171ebd34af",
                "token": "0xeeeeeeeeeeeeeeeeeeeeeeeeeeeeeeeeeeeeeeee"
            },
            {
                "amount": "1",
                "from": "0xbedf5bee5ac9c701e7db4cd6839130d019878505",
                "id": 5,
                "isERC1155": false,
                "isERC721": true,
                "isReverted": false,
                "order": 5,
                "to": "0x1389754c167d737a6e9a0b15dc5d869195d009bf",
                "token": "0xec010f8ff68a152a9c99d773d47f8cc5e2a86f84",
                "tokenID": "1505"
            },
            {
                "amount": "1",
                "from": "0xbedf5bee5ac9c701e7db4cd6839130d019878505",
                "id": 6,
                "isERC1155": false,
                "isERC721": true,
                "isReverted": false,
                "order": 6,
                "to": "0x1389754c167d737a6e9a0b15dc5d869195d009bf",
                "token": "0xec010f8ff68a152a9c99d773d47f8cc5e2a86f84",
                "tokenID": "1506"
            }
        ],
        "token_infos": [
            {
                "address": "0xeeeeeeeeeeeeeeeeeeeeeeeeeeeeeeeeeeeeeeee",
                "decimals": 18
            },
            {
                "address": "0xc02aaa39b223fe8d0a0e5c4f27ead9083c756cc2",
                "decimals": 18
            }
        ]
    },
    "address_label": {
        "labels": [
            {
                "address": "0xec010f8ff68a152a9c99d773d47f8cc5e2a86f84",
                "label": "Command Z: CMNDZ Token"
            },
            {
                "address": "0x00000000006c3852cbef3e08e8df289169ede581",
                "label": "Seaport 1.1"
            },
            {
                "address": "0x0000000000000000000000000000000000000001",
                "label": "Precompiled"
            },
            {
                "address": "0x0000000000000000000000000000000000000002",
                "label": "Precompiled"
            },
            {
                "address": "0x0000000000000000000000000000000000000003",
                "label": "Precompiled"
            },
            {
                "address": "0x0000000000000000000000000000000000000004",
                "label": "Precompiled"
            },
            {
                "address": "0xeeeeeeeeeeeeeeeeeeeeeeeeeeeeeeeeeeeeeeee",
                "label": "Ether"
            },
            {
                "address": "0x0df3a74629fd00139dbd2e77c1ae78171ebd34af",
                "label": "Command Z: Deployer"
            },
            {
                "address": "0x1e0049783f008a0085193e00003d00cd54003c71",
                "label": "OpenSea: Conduit"
            },
            {
                "address": "0x0000000000000000000000000000000000000000",
                "label": "Null Address"
            },
            {
                "address": "0x004c00500000ad104d7dbd00e3ae0a5c00560c00",
                "label": "OpenSea: Pausable Zone"
            },
            {
                "address": "0x0000a26b00c1f0df003000390027140000faa719",
                "label": "OpenSea: Fees 3"
            }
        ]
    },
    "trace": {
        "accountLabels": null,
        "dataMap": {
            "-1": {
                "invocation": {
                    "address": "0x1389754c167d737a6e9a0b15dc5d869195d009bf",
                    "callData": "",
                    "decodedMethod": null,
                    "errorInfo": "",
                    "fromAddress": "",
                    "gasUsed": 0,
                    "id": -1,
                    "methodDecoded": false,
                    "operation": "",
                    "output": "",
                    "revert": false,
                    "revertMessage": "",
                    "selector": "",
                    "status": false,
                    "value": ""
                },
                "nodeType": 0
            },
            "0": {
                "invocation": {
                    "address": "0x00000000006c3852cbef3e08e8df289169ede581",
                    "callData": "0x00000000000000000000000000000000000000000000000000000000000000400000007b02230091a7ed01230072f7006a004d60a8d4e71d599b8104250f000000000000000000000000000000000000000000000000000000000000000000400000000000000000000000000000000000000000000000000000000000000560000000000000000000000000bedf5bee5ac9c701e7db4cd6839130d019878505000000000000000000000000004c00500000ad104d7dbd00e3ae0a5c00560c00000000000000000000000000000000000000000000000000000000000000016000000000000000000000000000000000000000000000000000000000000002c00000000000000000000000000000000000000000000000000000000000000002000000000000000000000000000000000000000000000000000000006309cc8d000000000000000000000000000000000000000000000000000000006332ab0d0000000000000000000000000000000000000000000000000000000000000000000000000000000000000000000000000000000000000000010af5f9a3b5257d0000007b02230091a7ed01230072f7006a004d60a8d4e71d599b8104250f0000000000000000000000000000000000000000000000000000000000000000000300000000000000000000000000000000000000000000000000000000000000020000000000000000000000000000000000000000000000000000000000000002000000000000000000000000ec010f8ff68a152a9c99d773d47f8cc5e2a86f8400000000000000000000000000000000000000000000000000000000000005e1000000000000000000000000000000000000000000000000000000000000000100000000000000000000000000000000000000000000000000000000000000010000000000000000000000000000000000000000000000000000000000000002000000000000000000000000ec010f8ff68a152a9c99d773d47f8cc5e2a86f8400000000000000000000000000000000000000000000000000000000000005e2000000000000000000000000000000000000000000000000000000000000000100000000000000000000000000000000000000000000000000000000000000010000000000000000000000000000000000000000000000000000000000000003000000000000000000000000000000000000000000000000000000000000000000000000000000000000000000000000000000000000000000000000000000000000000000000000000000000000000000000000000000000000000000000000000000000000000000000000000000000000000000000000004db73254763000000000000000000000000000000000000000000000000000004db73254763000000000000000000000000000bedf5bee5ac9c701e7db4cd6839130d0198785050000000000000000000000000000000000000000000000000000000000000000000000000000000000000000000000000000000000000000000000000000000000000000000000000000000000000000000000000000000000000000000000000000000000000000000000000000000000000000000000000002386f26fc10000000000000000000000000000000000000000000000000000002386f26fc10000000000000000000000000000000a26b00c1f0df003000390027140000faa7190000000000000000000000000000000000000000000000000000000000000000000000000000000000000000000000000000000000000000000000000000000000000000000000000000000000000000000000000000000000000000000000000000000000000000000000000000000000000000000000000008e1bc9bf040000000000000000000000000000000000000000000000000000008e1bc9bf040000000000000000000000000000df3a74629fd00139dbd2e77c1ae78171ebd34af000000000000000000000000000000000000000000000000000000000000004140e7006d8d69e98bf2dd2180129f9cf3cc2191f5b8cea9c62ab0584599e64d0537758022ccd82ce11cec9f6e8e012715c8c70aa52c70bf8f3ead73e74173da8c1c00000000000000000000000000000000000000000000000000000000000000",
                    "decodedMethod": {
                        "callParams": [
                            {
                                "name": "order",
                                "type": "((address,address,(uint8,address,uint256,uint256,uint256)[],(uint8,address,uint256,uint256,uint256,address)[],uint8,uint256,uint256,bytes32,uint256,bytes32,uint256),bytes)",
                                "value": [
                                    {
                                        "name": "parameters",
                                        "type": "(address,address,(uint8,address,uint256,uint256,uint256)[],(uint8,address,uint256,uint256,uint256,address)[],uint8,uint256,uint256,bytes32,uint256,bytes32,uint256)",
                                        "value": [
                                            {
                                                "name": "offerer",
                                                "type": "address",
                                                "value": "0xbedf5bee5ac9c701e7db4cd6839130d019878505"
                                            },
                                            {
                                                "name": "zone",
                                                "type": "address",
                                                "value": "0x004c00500000ad104d7dbd00e3ae0a5c00560c00"
                                            },
                                            {
                                                "name": "offer",
                                                "type": "(uint8,address,uint256,uint256,uint256)[]",
                                                "value": [
                                                    [
                                                        {
                                                            "name": "itemType",
                                                            "type": "uint8",
                                                            "value": "2"
                                                        },
                                                        {
                                                            "name": "token",
                                                            "type": "address",
                                                            "value": "0xec010f8ff68a152a9c99d773d47f8cc5e2a86f84"
                                                        },
                                                        {
                                                            "name": "identifierOrCriteria",
                                                            "type": "uint256",
                                                            "value": "1,505"
                                                        },
                                                        {
                                                            "name": "startAmount",
                                                            "type": "uint256",
                                                            "value": "1"
                                                        },
                                                        {
                                                            "name": "endAmount",
                                                            "type": "uint256",
                                                            "value": "1"
                                                        }
                                                    ],
                                                    [
                                                        {
                                                            "name": "itemType",
                                                            "type": "uint8",
                                                            "value": "2"
                                                        },
                                                        {
                                                            "name": "token",
                                                            "type": "address",
                                                            "value": "0xec010f8ff68a152a9c99d773d47f8cc5e2a86f84"
                                                        },
                                                        {
                                                            "name": "identifierOrCriteria",
                                                            "type": "uint256",
                                                            "value": "1,506"
                                                        },
                                                        {
                                                            "name": "startAmount",
                                                            "type": "uint256",
                                                            "value": "1"
                                                        },
                                                        {
                                                            "name": "endAmount",
                                                            "type": "uint256",
                                                            "value": "1"
                                                        }
                                                    ]
                                                ]
                                            },
                                            {
                                                "name": "consideration",
                                                "type": "(uint8,address,uint256,uint256,uint256,address)[]",
                                                "value": [
                                                    [
                                                        {
                                                            "name": "itemType",
                                                            "type": "uint8",
                                                            "value": "0"
                                                        },
                                                        {
                                                            "name": "token",
                                                            "type": "address",
                                                            "value": "0x0000000000000000000000000000000000000000"
                                                        },
                                                        {
                                                            "name": "identifierOrCriteria",
                                                            "type": "uint256",
                                                            "value": "0"
                                                        },
                                                        {
                                                            "name": "startAmount",
                                                            "type": "uint256",
                                                            "value": "21,875,000,000,000,000"
                                                        },
                                                        {
                                                            "name": "endAmount",
                                                            "type": "uint256",
                                                            "value": "21,875,000,000,000,000"
                                                        },
                                                        {
                                                            "name": "recipient",
                                                            "type": "address",
                                                            "value": "0xbedf5bee5ac9c701e7db4cd6839130d019878505"
                                                        }
                                                    ],
                                                    [
                                                        {
                                                            "name": "itemType",
                                                            "type": "uint8",
                                                            "value": "0"
                                                        },
                                                        {
                                                            "name": "token",
                                                            "type": "address",
                                                            "value": "0x0000000000000000000000000000000000000000"
                                                        },
                                                        {
                                                            "name": "identifierOrCriteria",
                                                            "type": "uint256",
                                                            "value": "0"
                                                        },
                                                        {
                                                            "name": "startAmount",
                                                            "type": "uint256",
                                                            "value": "625,000,000,000,000"
                                                        },
                                                        {
                                                            "name": "endAmount",
                                                            "type": "uint256",
                                                            "value": "625,000,000,000,000"
                                                        },
                                                        {
                                                            "name": "recipient",
                                                            "type": "address",
                                                            "value": "0x0000a26b00c1f0df003000390027140000faa719"
                                                        }
                                                    ],
                                                    [
                                                        {
                                                            "name": "itemType",
                                                            "type": "uint8",
                                                            "value": "0"
                                                        },
                                                        {
                                                            "name": "token",
                                                            "type": "address",
                                                            "value": "0x0000000000000000000000000000000000000000"
                                                        },
                                                        {
                                                            "name": "identifierOrCriteria",
                                                            "type": "uint256",
                                                            "value": "0"
                                                        },
                                                        {
                                                            "name": "startAmount",
                                                            "type": "uint256",
                                                            "value": "2,500,000,000,000,000"
                                                        },
                                                        {
                                                            "name": "endAmount",
                                                            "type": "uint256",
                                                            "value": "2,500,000,000,000,000"
                                                        },
                                                        {
                                                            "name": "recipient",
                                                            "type": "address",
                                                            "value": "0x0df3a74629fd00139dbd2e77c1ae78171ebd34af"
                                                        }
                                                    ]
                                                ]
                                            },
                                            {
                                                "name": "orderType",
                                                "type": "uint8",
                                                "value": "2"
                                            },
                                            {
                                                "name": "startTime",
                                                "type": "uint256",
                                                "value": "1,661,586,573"
                                            },
                                            {
                                                "name": "endTime",
                                                "type": "uint256",
                                                "value": "1,664,264,973"
                                            },
                                            {
                                                "name": "zoneHash",
                                                "type": "bytes32",
                                                "value": "0x0000000000000000000000000000000000000000000000000000000000000000"
                                            },
                                            {
                                                "name": "salt",
                                                "type": "uint256",
                                                "value": "75,142,796,347,254,141"
                                            },
                                            {
                                                "name": "conduitKey",
                                                "type": "bytes32",
                                                "value": "0x0000007b02230091a7ed01230072f7006a004d60a8d4e71d599b8104250f0000"
                                            },
                                            {
                                                "name": "totalOriginalConsiderationItems",
                                                "type": "uint256",
                                                "value": "3"
                                            }
                                        ]
                                    },
                                    {
                                        "name": "signature",
                                        "type": "bytes",
                                        "value": "0x40e7006d8d69e98bf2dd2180129f9cf3cc2191f5b8cea9c62ab0584599e64d0537758022ccd82ce11cec9f6e8e012715c8c70aa52c70bf8f3ead73e74173da8c1c"
                                    }
                                ]
                            },
                            {
                                "name": "fulfillerConduitKey",
                                "type": "bytes32",
                                "value": "0x0000007b02230091a7ed01230072f7006a004d60a8d4e71d599b8104250f0000"
                            }
                        ],
                        "constructorArguments": "",
                        "name": "fulfillOrder",
                        "returnParams": [
                            {
                                "name": "fulfilled",
                                "type": "bool",
                                "value": true
                            }
                        ],
                        "signature": "fulfillOrder(((address,address,(uint8,address,uint256,uint256,uint256)[],(uint8,address,uint256,uint256,uint256,address)[],uint8,uint256,uint256,bytes32,uint256,bytes32,uint256),bytes),bytes32)"
                    },
                    "errorInfo": "",
                    "fromAddress": "0x1389754c167d737a6e9a0b15dc5d869195d009bf",
                    "gasUsed": 212522,
                    "id": 0,
                    "methodDecoded": true,
                    "operation": "CALL",
                    "output": "0x0000000000000000000000000000000000000000000000000000000000000001",
                    "revert": false,
                    "revertMessage": "",
                    "selector": "0xb3a34c4c",
                    "status": true,
                    "value": "0.025"
                },
                "nodeType": 0
            },
            "1": {
                "invocation": {
                    "address": "0x004c00500000ad104d7dbd00e3ae0a5c00560c00",
                    "callData": "0x8ae47954d3ab6f4c44a43f7ba7d35bf82e45eaed38779b2e5a5de524cd9ec8bb0000000000000000000000001389754c167d737a6e9a0b15dc5d869195d009bf000000000000000000000000bedf5bee5ac9c701e7db4cd6839130d0198785050000000000000000000000000000000000000000000000000000000000000000",
                    "decodedMethod": {
                        "callParams": [
                            {
                                "name": "orderHash",
                                "type": "bytes32",
                                "value": "0x8ae47954d3ab6f4c44a43f7ba7d35bf82e45eaed38779b2e5a5de524cd9ec8bb"
                            },
                            {
                                "name": "caller",
                                "type": "address",
                                "value": "0x1389754c167d737a6e9a0b15dc5d869195d009bf"
                            },
                            {
                                "name": "offerer",
                                "type": "address",
                                "value": "0xbedf5bee5ac9c701e7db4cd6839130d019878505"
                            },
                            {
                                "name": "zoneHash",
                                "type": "bytes32",
                                "value": "0x0000000000000000000000000000000000000000000000000000000000000000"
                            }
                        ],
                        "constructorArguments": "",
                        "name": "isValidOrder",
                        "returnParams": [
                            {
                                "name": "validOrderMagicValue",
                                "type": "bytes4",
                                "value": "0x0e1d31dc"
                            }
                        ],
                        "signature": "isValidOrder(bytes32,address,address,bytes32)"
                    },
                    "errorInfo": "",
                    "fromAddress": "0x00000000006c3852cbef3e08e8df289169ede581",
                    "gasUsed": 257,
                    "id": 1,
                    "methodDecoded": true,
                    "operation": "STATICCALL",
                    "output": "0x0e1d31dc00000000000000000000000000000000000000000000000000000000",
                    "revert": false,
                    "revertMessage": "",
                    "selector": "0x0e1d31dc",
                    "status": true,
                    "value": "0"
                },
                "nodeType": 0
            },
            "10": {
                "invocation": {
                    "address": "0xec010f8ff68a152a9c99d773d47f8cc5e2a86f84",
                    "callData": "0x000000000000000000000000bedf5bee5ac9c701e7db4cd6839130d0198785050000000000000000000000001389754c167d737a6e9a0b15dc5d869195d009bf00000000000000000000000000000000000000000000000000000000000005e2",
                    "decodedMethod": {
                        "callParams": [
                            {
                                "name": "from",
                                "type": "address",
                                "value": "0xbedf5bee5ac9c701e7db4cd6839130d019878505"
                            },
                            {
                                "name": "to",
                                "type": "address",
                                "value": "0x1389754c167d737a6e9a0b15dc5d869195d009bf"
                            },
                            {
                                "decimalAvailable": true,
                                "name": "tokenId",
                                "type": "uint256",
                                "value": "1,506"
                            }
                        ],
                        "constructorArguments": "",
                        "name": "transferFrom",
                        "returnParams": [],
                        "signature": "transferFrom(address,address,uint256)"
                    },
                    "errorInfo": "",
                    "fromAddress": "0x1e0049783f008a0085193e00003d00cd54003c71",
                    "gasUsed": 12412,
                    "id": 10,
                    "methodDecoded": true,
                    "operation": "CALL",
                    "output": "",
                    "revert": false,
                    "revertMessage": "",
                    "selector": "0x23b872dd",
                    "status": true,
                    "value": "0"
                },
                "nodeType": 0
            },
            "11": {
                "event": {
                    "contract": "0xec010f8ff68a152a9c99d773d47f8cc5e2a86f84",
                    "decodedLog": {
                        "name": "Approval",
                        "params": [
                            {
                                "name": "owner",
                                "type": "address",
                                "value": "0xbedf5bee5ac9c701e7db4cd6839130d019878505"
                            },
                            {
                                "name": "approved",
                                "type": "address",
                                "value": "0x0000000000000000000000000000000000000000"
                            },
                            {
                                "decimalAvailable": true,
                                "name": "tokenId",
                                "type": "uint256",
                                "value": "1,506"
                            }
                        ],
                        "signature": "Approval(address,address,uint256)"
                    },
                    "id": 11,
                    "logData": "0x",
                    "logDecoded": true,
                    "operation": "EVENT",
                    "revert": false,
                    "status": true,
                    "topics": [
                        "0x8c5be1e5ebec7d5bd14f71427d1e84f3dd0314c0f7b2291e5b200ac8c7c3b925",
                        "0x000000000000000000000000bedf5bee5ac9c701e7db4cd6839130d019878505",
                        "0x0000000000000000000000000000000000000000000000000000000000000000",
                        "0x00000000000000000000000000000000000000000000000000000000000005e2"
                    ]
                },
                "nodeType": 1
            },
            "12": {
                "event": {
                    "contract": "0xec010f8ff68a152a9c99d773d47f8cc5e2a86f84",
                    "decodedLog": {
                        "name": "Transfer",
                        "params": [
                            {
                                "name": "from",
                                "type": "address",
                                "value": "0xbedf5bee5ac9c701e7db4cd6839130d019878505"
                            },
                            {
                                "name": "to",
                                "type": "address",
                                "value": "0x1389754c167d737a6e9a0b15dc5d869195d009bf"
                            },
                            {
                                "decimalAvailable": true,
                                "name": "tokenId",
                                "type": "uint256",
                                "value": "1,506"
                            }
                        ],
                        "signature": "Transfer(address,address,uint256)"
                    },
                    "id": 12,
                    "logData": "0x",
                    "logDecoded": true,
                    "operation": "EVENT",
                    "revert": false,
                    "status": true,
                    "topics": [
                        "0xddf252ad1be2c89b69c2b068fc378daa952ba7f163c4a11628f55a4df523b3ef",
                        "0x000000000000000000000000bedf5bee5ac9c701e7db4cd6839130d019878505",
                        "0x0000000000000000000000001389754c167d737a6e9a0b15dc5d869195d009bf",
                        "0x00000000000000000000000000000000000000000000000000000000000005e2"
                    ]
                },
                "nodeType": 1
            },
            "13": {
                "event": {
                    "contract": "0x00000000006c3852cbef3e08e8df289169ede581",
                    "decodedLog": {
                        "name": "OrderFulfilled",
                        "params": [
                            {
                                "name": "offerer",
                                "type": "address",
                                "value": "0xbedf5bee5ac9c701e7db4cd6839130d019878505"
                            },
                            {
                                "name": "zone",
                                "type": "address",
                                "value": "0x004c00500000ad104d7dbd00e3ae0a5c00560c00"
                            },
                            {
                                "name": "orderHash",
                                "type": "bytes32",
                                "value": "0x8ae47954d3ab6f4c44a43f7ba7d35bf82e45eaed38779b2e5a5de524cd9ec8bb"
                            },
                            {
                                "name": "recipient",
                                "type": "address",
                                "value": "0x1389754c167d737a6e9a0b15dc5d869195d009bf"
                            },
                            {
                                "name": "offer",
                                "type": "(uint8,address,uint256,uint256)[]",
                                "value": [
                                    [
                                        {
                                            "name": "itemType",
                                            "type": "uint8",
                                            "value": "2"
                                        },
                                        {
                                            "name": "token",
                                            "type": "address",
                                            "value": "0xec010f8ff68a152a9c99d773d47f8cc5e2a86f84"
                                        },
                                        {
                                            "name": "identifier",
                                            "type": "uint256",
                                            "value": "1,505"
                                        },
                                        {
                                            "name": "amount",
                                            "type": "uint256",
                                            "value": "1"
                                        }
                                    ],
                                    [
                                        {
                                            "name": "itemType",
                                            "type": "uint8",
                                            "value": "2"
                                        },
                                        {
                                            "name": "token",
                                            "type": "address",
                                            "value": "0xec010f8ff68a152a9c99d773d47f8cc5e2a86f84"
                                        },
                                        {
                                            "name": "identifier",
                                            "type": "uint256",
                                            "value": "1,506"
                                        },
                                        {
                                            "name": "amount",
                                            "type": "uint256",
                                            "value": "1"
                                        }
                                    ]
                                ]
                            },
                            {
                                "name": "consideration",
                                "type": "(uint8,address,uint256,uint256,address)[]",
                                "value": [
                                    [
                                        {
                                            "name": "itemType",
                                            "type": "uint8",
                                            "value": "0"
                                        },
                                        {
                                            "name": "token",
                                            "type": "address",
                                            "value": "0x0000000000000000000000000000000000000000"
                                        },
                                        {
                                            "name": "identifier",
                                            "type": "uint256",
                                            "value": "0"
                                        },
                                        {
                                            "name": "amount",
                                            "type": "uint256",
                                            "value": "21,875,000,000,000,000"
                                        },
                                        {
                                            "name": "recipient",
                                            "type": "address",
                                            "value": "0xbedf5bee5ac9c701e7db4cd6839130d019878505"
                                        }
                                    ],
                                    [
                                        {
                                            "name": "itemType",
                                            "type": "uint8",
                                            "value": "0"
                                        },
                                        {
                                            "name": "token",
                                            "type": "address",
                                            "value": "0x0000000000000000000000000000000000000000"
                                        },
                                        {
                                            "name": "identifier",
                                            "type": "uint256",
                                            "value": "0"
                                        },
                                        {
                                            "name": "amount",
                                            "type": "uint256",
                                            "value": "625,000,000,000,000"
                                        },
                                        {
                                            "name": "recipient",
                                            "type": "address",
                                            "value": "0x0000a26b00c1f0df003000390027140000faa719"
                                        }
                                    ],
                                    [
                                        {
                                            "name": "itemType",
                                            "type": "uint8",
                                            "value": "0"
                                        },
                                        {
                                            "name": "token",
                                            "type": "address",
                                            "value": "0x0000000000000000000000000000000000000000"
                                        },
                                        {
                                            "name": "identifier",
                                            "type": "uint256",
                                            "value": "0"
                                        },
                                        {
                                            "name": "amount",
                                            "type": "uint256",
                                            "value": "2,500,000,000,000,000"
                                        },
                                        {
                                            "name": "recipient",
                                            "type": "address",
                                            "value": "0x0df3a74629fd00139dbd2e77c1ae78171ebd34af"
                                        }
                                    ]
                                ]
                            }
                        ],
                        "signature": "OrderFulfilled(bytes32,address,address,address,(uint8,address,uint256,uint256)[],(uint8,address,uint256,uint256,address)[])"
                    },
                    "id": 13,
                    "logData": "0x8ae47954d3ab6f4c44a43f7ba7d35bf82e45eaed38779b2e5a5de524cd9ec8bb0000000000000000000000001389754c167d737a6e9a0b15dc5d869195d009bf000000000000000000000000000000000000000000000000000000000000008000000000000000000000000000000000000000000000000000000000000001a000000000000000000000000000000000000000000000000000000000000000020000000000000000000000000000000000000000000000000000000000000002000000000000000000000000ec010f8ff68a152a9c99d773d47f8cc5e2a86f8400000000000000000000000000000000000000000000000000000000000005e100000000000000000000000000000000000000000000000000000000000000010000000000000000000000000000000000000000000000000000000000000002000000000000000000000000ec010f8ff68a152a9c99d773d47f8cc5e2a86f8400000000000000000000000000000000000000000000000000000000000005e200000000000000000000000000000000000000000000000000000000000000010000000000000000000000000000000000000000000000000000000000000003000000000000000000000000000000000000000000000000000000000000000000000000000000000000000000000000000000000000000000000000000000000000000000000000000000000000000000000000000000000000000000000000000000000000000000000000000000000000000000000000004db73254763000000000000000000000000000bedf5bee5ac9c701e7db4cd6839130d0198785050000000000000000000000000000000000000000000000000000000000000000000000000000000000000000000000000000000000000000000000000000000000000000000000000000000000000000000000000000000000000000000000000000000000000000000000000000000000000000000000000002386f26fc10000000000000000000000000000000a26b00c1f0df003000390027140000faa7190000000000000000000000000000000000000000000000000000000000000000000000000000000000000000000000000000000000000000000000000000000000000000000000000000000000000000000000000000000000000000000000000000000000000000000000000000000000000000000000000008e1bc9bf040000000000000000000000000000df3a74629fd00139dbd2e77c1ae78171ebd34af",
                    "logDecoded": true,
                    "operation": "EVENT",
                    "revert": false,
                    "status": true,
                    "topics": [
                        "0x9d9af8e38d66c62e2c12f0225249fd9d721c54b83f48d9352c97c6cacdcb6f31",
                        "0x000000000000000000000000bedf5bee5ac9c701e7db4cd6839130d019878505",
                        "0x000000000000000000000000004c00500000ad104d7dbd00e3ae0a5c00560c00"
                    ]
                },
                "nodeType": 1
            },
            "2": {
                "invocation": {
                    "address": "0x0000000000000000000000000000000000000001",
                    "callData": "0xacc8b0d7f97d1e2d5ad3c397dee6191ce5cd409f12cd3fbd5f05838b000000000000000000000000000000000000000000000000000000000000001c40e7006d8d69e98bf2dd2180129f9cf3cc2191f5b8cea9c62ab0584599e64d0537758022ccd82ce11cec9f6e8e012715c8c70aa52c70bf8f3ead73e74173da8c",
                    "decodedMethod": {
                        "callParams": [
                            {
                                "name": "hash",
                                "type": "bytes32",
                                "value": "0x44536860acc8b0d7f97d1e2d5ad3c397dee6191ce5cd409f12cd3fbd5f05838b"
                            },
                            {
                                "name": "v",
                                "type": "uint256",
                                "value": "28"
                            },
                            {
                                "name": "r",
                                "type": "bytes32",
                                "value": "0x40e7006d8d69e98bf2dd2180129f9cf3cc2191f5b8cea9c62ab0584599e64d05"
                            },
                            {
                                "name": "s",
                                "type": "bytes32",
                                "value": "0x37758022ccd82ce11cec9f6e8e012715c8c70aa52c70bf8f3ead73e74173da8c"
                            }
                        ],
                        "constructorArguments": "",
                        "name": "ecrecover",
                        "returnParams": [
                            {
                                "name": "",
                                "type": "address",
                                "value": "0xbedf5bee5ac9c701e7db4cd6839130d019878505"
                            }
                        ],
                        "signature": "ecrecover(bytes32,uint256,bytes32,bytes32)"
                    },
                    "errorInfo": "",
                    "fromAddress": "0x00000000006c3852cbef3e08e8df289169ede581",
                    "gasUsed": 3000,
                    "id": 2,
                    "methodDecoded": true,
                    "operation": "STATICCALL",
                    "output": "0x000000000000000000000000bedf5bee5ac9c701e7db4cd6839130d019878505",
                    "revert": false,
                    "revertMessage": "",
                    "selector": "0x44536860",
                    "status": true,
                    "value": "0"
                },
                "nodeType": 0
            },
            "3": {
                "invocation": {
                    "address": "0xbedf5bee5ac9c701e7db4cd6839130d019878505",
                    "callData": "0x",
                    "decodedMethod": null,
                    "errorInfo": "",
                    "fromAddress": "0x00000000006c3852cbef3e08e8df289169ede581",
                    "gasUsed": 0,
                    "id": 3,
                    "methodDecoded": false,
                    "operation": "CALL",
                    "output": "",
                    "revert": false,
                    "revertMessage": "",
                    "selector": "fallback",
                    "status": true,
                    "value": "0.021875"
                },
                "nodeType": 0
            },
            "4": {
                "invocation": {
                    "address": "0x0000a26b00c1f0df003000390027140000faa719",
                    "callData": "0x",
                    "decodedMethod": null,
                    "errorInfo": "",
                    "fromAddress": "0x00000000006c3852cbef3e08e8df289169ede581",
                    "gasUsed": 85,
                    "id": 4,
                    "methodDecoded": false,
                    "operation": "CALL",
                    "output": "",
                    "revert": false,
                    "revertMessage": "",
                    "selector": "fallback",
                    "status": true,
                    "value": "0.000625"
                },
                "nodeType": 0
            },
            "5": {
                "invocation": {
                    "address": "0x0df3a74629fd00139dbd2e77c1ae78171ebd34af",
                    "callData": "0x",
                    "decodedMethod": null,
                    "errorInfo": "",
                    "fromAddress": "0x00000000006c3852cbef3e08e8df289169ede581",
                    "gasUsed": 0,
                    "id": 5,
                    "methodDecoded": false,
                    "operation": "CALL",
                    "output": "",
                    "revert": false,
                    "revertMessage": "",
                    "selector": "fallback",
                    "status": true,
                    "value": "0.0025"
                },
                "nodeType": 0
            },
            "6": {
                "invocation": {
                    "address": "0x1e0049783f008a0085193e00003d00cd54003c71",
                    "callData": "0x000000000000000000000000000000000000000000000000000000000000002000000000000000000000000000000000000000000000000000000000000000020000000000000000000000000000000000000000000000000000000000000002000000000000000000000000ec010f8ff68a152a9c99d773d47f8cc5e2a86f84000000000000000000000000bedf5bee5ac9c701e7db4cd6839130d0198785050000000000000000000000001389754c167d737a6e9a0b15dc5d869195d009bf00000000000000000000000000000000000000000000000000000000000005e100000000000000000000000000000000000000000000000000000000000000010000000000000000000000000000000000000000000000000000000000000002000000000000000000000000ec010f8ff68a152a9c99d773d47f8cc5e2a86f84000000000000000000000000bedf5bee5ac9c701e7db4cd6839130d0198785050000000000000000000000001389754c167d737a6e9a0b15dc5d869195d009bf00000000000000000000000000000000000000000000000000000000000005e20000000000000000000000000000000000000000000000000000000000000001",
                    "decodedMethod": {
                        "callParams": [
                            {
                                "name": "transfers",
                                "type": "(uint8,address,address,address,uint256,uint256)[]",
                                "value": [
                                    [
                                        {
                                            "name": "itemType",
                                            "type": "uint8",
                                            "value": "2"
                                        },
                                        {
                                            "name": "token",
                                            "type": "address",
                                            "value": "0xec010f8ff68a152a9c99d773d47f8cc5e2a86f84"
                                        },
                                        {
                                            "name": "from",
                                            "type": "address",
                                            "value": "0xbedf5bee5ac9c701e7db4cd6839130d019878505"
                                        },
                                        {
                                            "name": "to",
                                            "type": "address",
                                            "value": "0x1389754c167d737a6e9a0b15dc5d869195d009bf"
                                        },
                                        {
                                            "name": "identifier",
                                            "type": "uint256",
                                            "value": "1,505"
                                        },
                                        {
                                            "name": "amount",
                                            "type": "uint256",
                                            "value": "1"
                                        }
                                    ],
                                    [
                                        {
                                            "name": "itemType",
                                            "type": "uint8",
                                            "value": "2"
                                        },
                                        {
                                            "name": "token",
                                            "type": "address",
                                            "value": "0xec010f8ff68a152a9c99d773d47f8cc5e2a86f84"
                                        },
                                        {
                                            "name": "from",
                                            "type": "address",
                                            "value": "0xbedf5bee5ac9c701e7db4cd6839130d019878505"
                                        },
                                        {
                                            "name": "to",
                                            "type": "address",
                                            "value": "0x1389754c167d737a6e9a0b15dc5d869195d009bf"
                                        },
                                        {
                                            "name": "identifier",
                                            "type": "uint256",
                                            "value": "1,506"
                                        },
                                        {
                                            "name": "amount",
                                            "type": "uint256",
                                            "value": "1"
                                        }
                                    ]
                                ]
                            }
                        ],
                        "constructorArguments": "",
                        "name": "execute",
                        "returnParams": [
                            {
                                "name": "magicValue",
                                "type": "bytes4",
                                "value": "0x4ce34aa2"
                            }
                        ],
                        "signature": "execute((uint8,address,address,address,uint256,uint256)[])"
                    },
                    "errorInfo": "",
                    "fromAddress": "0x00000000006c3852cbef3e08e8df289169ede581",
                    "gasUsed": 88094,
                    "id": 6,
                    "methodDecoded": true,
                    "operation": "CALL",
                    "output": "0x4ce34aa200000000000000000000000000000000000000000000000000000000",
                    "revert": false,
                    "revertMessage": "",
                    "selector": "0x4ce34aa2",
                    "status": true,
                    "value": "0"
                },
                "nodeType": 0
            },
            "7": {
                "invocation": {
                    "address": "0xec010f8ff68a152a9c99d773d47f8cc5e2a86f84",
                    "callData": "0x000000000000000000000000bedf5bee5ac9c701e7db4cd6839130d0198785050000000000000000000000001389754c167d737a6e9a0b15dc5d869195d009bf00000000000000000000000000000000000000000000000000000000000005e1",
                    "decodedMethod": {
                        "callParams": [
                            {
                                "name": "from",
                                "type": "address",
                                "value": "0xbedf5bee5ac9c701e7db4cd6839130d019878505"
                            },
                            {
                                "name": "to",
                                "type": "address",
                                "value": "0x1389754c167d737a6e9a0b15dc5d869195d009bf"
                            },
                            {
                                "decimalAvailable": true,
                                "name": "tokenId",
                                "type": "uint256",
                                "value": "1,505"
                            }
                        ],
                        "constructorArguments": "",
                        "name": "transferFrom",
                        "returnParams": [],
                        "signature": "transferFrom(address,address,uint256)"
                    },
                    "errorInfo": "",
                    "fromAddress": "0x1e0049783f008a0085193e00003d00cd54003c71",
                    "gasUsed": 68489,
                    "id": 7,
                    "methodDecoded": true,
                    "operation": "CALL",
                    "output": "",
                    "revert": false,
                    "revertMessage": "",
                    "selector": "0x23b872dd",
                    "status": true,
                    "value": "0"
                },
                "nodeType": 0
            },
            "8": {
                "event": {
                    "contract": "0xec010f8ff68a152a9c99d773d47f8cc5e2a86f84",
                    "decodedLog": {
                        "name": "Approval",
                        "params": [
                            {
                                "name": "owner",
                                "type": "address",
                                "value": "0xbedf5bee5ac9c701e7db4cd6839130d019878505"
                            },
                            {
                                "name": "approved",
                                "type": "address",
                                "value": "0x0000000000000000000000000000000000000000"
                            },
                            {
                                "decimalAvailable": true,
                                "name": "tokenId",
                                "type": "uint256",
                                "value": "1,505"
                            }
                        ],
                        "signature": "Approval(address,address,uint256)"
                    },
                    "id": 8,
                    "logData": "0x",
                    "logDecoded": true,
                    "operation": "EVENT",
                    "revert": false,
                    "status": true,
                    "topics": [
                        "0x8c5be1e5ebec7d5bd14f71427d1e84f3dd0314c0f7b2291e5b200ac8c7c3b925",
                        "0x000000000000000000000000bedf5bee5ac9c701e7db4cd6839130d019878505",
                        "0x0000000000000000000000000000000000000000000000000000000000000000",
                        "0x00000000000000000000000000000000000000000000000000000000000005e1"
                    ]
                },
                "nodeType": 1
            },
            "9": {
                "event": {
                    "contract": "0xec010f8ff68a152a9c99d773d47f8cc5e2a86f84",
                    "decodedLog": {
                        "name": "Transfer",
                        "params": [
                            {
                                "name": "from",
                                "type": "address",
                                "value": "0xbedf5bee5ac9c701e7db4cd6839130d019878505"
                            },
                            {
                                "name": "to",
                                "type": "address",
                                "value": "0x1389754c167d737a6e9a0b15dc5d869195d009bf"
                            },
                            {
                                "decimalAvailable": true,
                                "name": "tokenId",
                                "type": "uint256",
                                "value": "1,505"
                            }
                        ],
                        "signature": "Transfer(address,address,uint256)"
                    },
                    "id": 9,
                    "logData": "0x",
                    "logDecoded": true,
                    "operation": "EVENT",
                    "revert": false,
                    "status": true,
                    "topics": [
                        "0xddf252ad1be2c89b69c2b068fc378daa952ba7f163c4a11628f55a4df523b3ef",
                        "0x000000000000000000000000bedf5bee5ac9c701e7db4cd6839130d019878505",
                        "0x0000000000000000000000001389754c167d737a6e9a0b15dc5d869195d009bf",
                        "0x00000000000000000000000000000000000000000000000000000000000005e1"
                    ]
                },
                "nodeType": 1
            }
        },
        "gasFlame": [
            {
                "children": [
                    {
                        "children": [
                            {
                                "children": [],
                                "depth": 0,
                                "name": "Initial Gas",
                                "value": 31044
                            },
                            {
                                "children": [
                                    {
                                        "children": [],
                                        "depth": 1,
                                        "name": "isValidOrder",
                                        "value": 257
                                    },
                                    {
                                        "children": [],
                                        "depth": 1,
                                        "name": "ecrecover",
                                        "value": 3000
                                    },
                                    {
                                        "children": [],
                                        "depth": 1,
                                        "name": "fallback",
                                        "value": 0
                                    },
                                    {
                                        "children": [],
                                        "depth": 1,
                                        "name": "fallback",
                                        "value": 85
                                    },
                                    {
                                        "children": [],
                                        "depth": 1,
                                        "name": "fallback",
                                        "value": 0
                                    },
                                    {
                                        "children": [
                                            {
                                                "children": [],
                                                "depth": 2,
                                                "name": "transferFrom",
                                                "value": 68489
                                            },
                                            {
                                                "children": [],
                                                "depth": 2,
                                                "name": "transferFrom",
                                                "value": 12412
                                            }
                                        ],
                                        "depth": 1,
                                        "name": "execute",
                                        "value": 88094
                                    }
                                ],
                                "depth": 0,
                                "name": "Executed Gas",
                                "value": 184278
                            }
                        ],
                        "depth": -1,
                        "name": "Actual Gas Used",
                        "value": 212522
                    },
                    {
                        "children": [],
                        "depth": -1,
                        "name": "Refunded Gas",
                        "value": 2800
                    }
                ],
                "depth": -2,
                "name": "Total Gas",
                "value": 215322
            }
        ],
        "isConfirmed": true,
        "mainTrace": [
            {
                "children": [
                    {
                        "children": [
                            {
                                "children": [],
                                "depth": 1,
                                "id": 1,
                                "order": 1
                            },
                            {
                                "children": [],
                                "depth": 1,
                                "id": 2,
                                "order": 2
                            },
                            {
                                "children": [],
                                "depth": 1,
                                "id": 3,
                                "order": 3
                            },
                            {
                                "children": [],
                                "depth": 1,
                                "id": 4,
                                "order": 4
                            },
                            {
                                "children": [],
                                "depth": 1,
                                "id": 5,
                                "order": 5
                            },
                            {
                                "children": [
                                    {
                                        "children": [
                                            {
                                                "children": [],
                                                "depth": 3,
                                                "id": 8,
                                                "order": 8
                                            },
                                            {
                                                "children": [],
                                                "depth": 3,
                                                "id": 9,
                                                "order": 9
                                            }
                                        ],
                                        "depth": 2,
                                        "id": 7,
                                        "order": 7
                                    },
                                    {
                                        "children": [
                                            {
                                                "children": [],
                                                "depth": 3,
                                                "id": 11,
                                                "order": 11
                                            },
                                            {
                                                "children": [],
                                                "depth": 3,
                                                "id": 12,
                                                "order": 12
                                            }
                                        ],
                                        "depth": 2,
                                        "id": 10,
                                        "order": 10
                                    }
                                ],
                                "depth": 1,
                                "id": 6,
                                "order": 6
                            },
                            {
                                "children": [],
                                "depth": 1,
                                "id": 13,
                                "order": 13
                            }
                        ],
                        "depth": 0,
                        "id": 0,
                        "order": 0
                    }
                ],
                "depth": -1,
                "id": -1,
                "order": -1
            }
        ],
        "mainTraceNodeCount": 14,
        "parentIdMap": {
            "0": -1,
            "1": 0,
            "10": 6,
            "11": 10,
            "12": 10,
            "13": 0,
            "2": 0,
            "3": 0,
            "4": 0,
            "5": 0,
            "6": 0,
            "7": 6,
            "8": 7,
            "9": 7
        },
        "tidyTrace": [
            {
                "children": [
                    {
                        "children": [
                            {
                                "children": [],
                                "depth": 1,
                                "id": 3,
                                "order": 3
                            },
                            {
                                "children": [],
                                "depth": 1,
                                "id": 4,
                                "order": 4
                            },
                            {
                                "children": [],
                                "depth": 1,
                                "id": 5,
                                "order": 5
                            },
                            {
                                "children": [
                                    {
                                        "children": [
                                            {
                                                "children": [],
                                                "depth": 3,
                                                "id": 8,
                                                "order": 8
                                            },
                                            {
                                                "children": [],
                                                "depth": 3,
                                                "id": 9,
                                                "order": 9
                                            }
                                        ],
                                        "depth": 2,
                                        "id": 7,
                                        "order": 7
                                    },
                                    {
                                        "children": [
                                            {
                                                "children": [],
                                                "depth": 3,
                                                "id": 11,
                                                "order": 11
                                            },
                                            {
                                                "children": [],
                                                "depth": 3,
                                                "id": 12,
                                                "order": 12
                                            }
                                        ],
                                        "depth": 2,
                                        "id": 10,
                                        "order": 10
                                    }
                                ],
                                "depth": 1,
                                "id": 6,
                                "order": 6
                            },
                            {
                                "children": [],
                                "depth": 1,
                                "id": 13,
                                "order": 13
                            }
                        ],
                        "depth": 0,
                        "id": 0,
                        "order": 0
                    }
                ],
                "depth": -1,
                "id": -1,
                "order": -1
            }
        ],
        "tidyTraceNodeCount": 12
    },
    "state_change": {
        "stateChanges": [
            {
                "address": "0x00000000006c3852cbef3e08e8df289169ede581",
                "erc": "",
                "slots": [
                    {
                        "current": "0x0000000000000000000000000000010000000000000000000000000000010001",
                        "key": "0x138a07a8f2b7aacbe5225af1a27c76b3a24ab3225c58a496e3279e859de2bf31",
                        "prev": "0x0000000000000000000000000000000000000000000000000000000000000000"
                    }
                ],
                "storageVariables": [
                    {
                        "name": "_orderStatus",
                        "type": "mapping(bytes32 => struct OrderStatus)",
                        "value": {
                            "pairs": [
                                {
                                    "key": "0x8ae47954d3ab6f4c44a43f7ba7d35bf82e45eaed38779b2e5a5de524cd9ec8bb",
                                    "value": {
                                        "fields": [
                                            {
                                                "name": "isValidated",
                                                "type": "bool",
                                                "value": {
                                                    "current": "true",
                                                    "prev": "false",
                                                    "typeTag": 1
                                                }
                                            },
                                            {
                                                "name": "isCancelled",
                                                "type": "bool",
                                                "value": {
                                                    "current": "false",
                                                    "prev": "false",
                                                    "typeTag": 1
                                                }
                                            },
                                            {
                                                "name": "numerator",
                                                "type": "uint120",
                                                "value": {
                                                    "current": "1",
                                                    "prev": "0",
                                                    "typeTag": 1
                                                }
                                            },
                                            {
                                                "name": "denominator",
                                                "type": "uint120",
                                                "value": {
                                                    "current": "1",
                                                    "prev": "0",
                                                    "typeTag": 1
                                                }
                                            }
                                        ],
                                        "typeTag": 3
                                    }
                                }
                            ],
                            "typeTag": 4
                        }
                    }
                ]
            },
            {
                "address": "0xec010f8ff68a152a9c99d773d47f8cc5e2a86f84",
                "erc": "ERC-721",
                "slots": [
                    {
                        "current": "0x0000000000000000630a00901389754c167d737a6e9a0b15dc5d869195d009bf",
                        "key": "0x2d4b8fc6afccf38d6df5d6520a27d888ef98ffa0342a02ce219a0802aa458ecb",
                        "prev": "0x00000000000000006306e47bbedf5bee5ac9c701e7db4cd6839130d019878505"
                    },
                    {
                        "current": "0x0000000000000000630a00901389754c167d737a6e9a0b15dc5d869195d009bf",
                        "key": "0x21f6d2f0c9a2c637741a2f34f0e266baffa02dc8e3ffb9ce3aa19f0c137f2458",
                        "prev": "0x0000000000000000000000000000000000000000000000000000000000000000"
                    },
                    {
                        "current": "0x0000000000000000000000000000000200000000000000000000000000000000",
                        "key": "0x62f08279c6c5075a38342bb48cbe1dc3655641518b0808ca795944c70d117210",
                        "prev": "0x0000000000000000000000000000000200000000000000000000000000000002"
                    },
                    {
                        "current": "0x0000000000000000000000000000000000000000000000000000000000000002",
                        "key": "0xa363f4bb67bbb593454ada10edee051c24a5157643fc95f3427405eded2c88ca",
                        "prev": "0x0000000000000000000000000000000000000000000000000000000000000000"
                    }
                ],
                "storageVariables": [
                    {
                        "name": "_ownerships",
                        "type": "mapping(uint256 => struct ERC721A.TokenOwnership)",
                        "value": {
                            "pairs": [
                                {
                                    "key": "1505",
                                    "value": {
                                        "fields": [
                                            {
                                                "name": "addr",
                                                "type": "address",
                                                "value": {
                                                    "current": "0x1389754c167d737a6e9a0b15dc5d869195d009bf",
                                                    "prev": "0xbedf5bee5ac9c701e7db4cd6839130d019878505",
                                                    "typeTag": 1
                                                }
                                            },
                                            {
                                                "name": "startTimestamp",
                                                "type": "uint64",
                                                "value": {
                                                    "current": "1661599888",
                                                    "prev": "1661396091",
                                                    "typeTag": 1
                                                }
                                            }
                                        ],
                                        "typeTag": 3
                                    }
                                },
                                {
                                    "key": "1506",
                                    "value": {
                                        "fields": [
                                            {
                                                "name": "addr",
                                                "type": "address",
                                                "value": {
                                                    "current": "0x1389754c167d737a6e9a0b15dc5d869195d009bf",
                                                    "prev": "0x0000000000000000000000000000000000000000",
                                                    "typeTag": 1
                                                }
                                            },
                                            {
                                                "name": "startTimestamp",
                                                "type": "uint64",
                                                "value": {
                                                    "current": "1661599888",
                                                    "prev": "0",
                                                    "typeTag": 1
                                                }
                                            }
                                        ],
                                        "typeTag": 3
                                    }
                                }
                            ],
                            "typeTag": 4
                        }
                    },
                    {
                        "name": "_addressData",
                        "type": "mapping(address => struct ERC721A.AddressData)",
                        "value": {
                            "pairs": [
                                {
                                    "key": "0x1389754c167d737a6e9a0b15dc5d869195d009bf",
                                    "value": {
                                        "fields": [
                                            {
                                                "name": "balance",
                                                "type": "uint128",
                                                "value": {
                                                    "current": "2",
                                                    "prev": "0",
                                                    "typeTag": 1
                                                }
                                            },
                                            {
                                                "name": "numberMinted",
                                                "type": "uint128",
                                                "value": {
                                                    "current": "0",
                                                    "prev": "0",
                                                    "typeTag": 1
                                                }
                                            }
                                        ],
                                        "typeTag": 3
                                    }
                                },
                                {
                                    "key": "0xbedf5bee5ac9c701e7db4cd6839130d019878505",
                                    "value": {
                                        "fields": [
                                            {
                                                "name": "balance",
                                                "type": "uint128",
                                                "value": {
                                                    "current": "0",
                                                    "prev": "2",
                                                    "typeTag": 1
                                                }
                                            },
                                            {
                                                "name": "numberMinted",
                                                "type": "uint128",
                                                "value": {
                                                    "current": "2",
                                                    "prev": "2",
                                                    "typeTag": 1
                                                }
                                            }
                                        ],
                                        "typeTag": 3
                                    }
                                }
                            ],
                            "typeTag": 4
                        }
                    }
                ]
            }
        ]
    }
}