{
    "balance_change": {
        "balanceChanges": [
            {
                "account": "0x8388f757332371f89c397d1ee9cf68e856fb249c",
                "assets": [
                    {
                        "address": "0xeeeeeeeeeeeeeeeeeeeeeeeeeeeeeeeeeeeeeeee",
                        "amount": "0.005",
                        "iconUrl": "https://assets.blocksec.com/image/1663669189317-3.png",
                        "isERC1155": false,
                        "isERC721": false,
                        "sign": false,
                        "value": ""
                    }
                ]
            },
            {
                "account": "0x491c05896ef656d7fee0fb90ce487315ff0ac14c",
                "assets": [
                    {
                        "address": "0xeeeeeeeeeeeeeeeeeeeeeeeeeeeeeeeeeeeeeeee",
                        "amount": "0.00015",
                        "iconUrl": "https://assets.blocksec.com/image/1663669189317-3.png",
                        "isERC1155": false,
                        "isERC721": false,
                        "sign": true,
                        "value": ""
                    }
                ]
            },
            {
                "account": "0x5aeb1fcb423e89f5258bb653569aa671aa68f6e6",
                "assets": [
                    {
                        "address": "0xeeeeeeeeeeeeeeeeeeeeeeeeeeeeeeeeeeeeeeee",
                        "amount": "0.00485",
                        "iconUrl": "https://assets.blocksec.com/image/1663669189317-3.png",
                        "isERC1155": false,
                        "isERC721": false,
                        "sign": true,
                        "value": ""
                    }
                ]
            }
        ]
    },
    "profile": {
        "basic_info": {
            "baseFee": "",
            "blockNumber": 5590232,
            "callData": "0x454a2ab30000000000000000000000000000000000000000000000000000000000000d28",
            "debugEnable": true,
            "errorInfo": "",
            "eventCount": 2,
            "feeRecipient": "0xb2930b35844a230f00e51431acae96fe543a0347",
            "formatValue": "0.005",
            "gasLimit": 210000,
            "gasPrice": "10",
            "gasUsed": 65428,
            "intTxnCount": 3,
            "internalRevert": false,
            "internalRevertMessage": "",
            "isContractCreation": false,
            "isFlashloan": false,
            "maxFee": "",
            "nonce": 198,
            "overwritedBlockNumber": -1,
            "priorityFee": "",
            "receiver": "0x491c05896ef656d7fee0fb90ce487315ff0ac14c",
            "revertMessage": "",
            "sender": "0x8388f757332371f89c397d1ee9cf68e856fb249c",
            "simulationEnable": true,
            "sourceTxnHash": "0x52c9e1488162fe513e19b4247ebd7d5c64a8dfcbed88cec2a6e5a51ea9775d23",
            "status": true,
            "timestamp": "2018-05-10T16:38:14Z",
            "transactionFee": "0.00065428",
            "txnHash": "0x52c9e1488162fe513e19b4247ebd7d5c64a8dfcbed88cec2a6e5a51ea9775d23",
            "txnIndex": 68,
            "type": 0,
            "value": "5000000000000000"
        },
        "fund_flow": [
            {
                "amount": "0.005",
                "from": "0x8388f757332371f89c397d1ee9cf68e856fb249c",
                "id": 1,
                "isERC1155": false,
                "isERC721": false,
                "isReverted": false,
                "order": 1,
                "to": "0x491c05896ef656d7fee0fb90ce487315ff0ac14c",
                "token": "0xeeeeeeeeeeeeeeeeeeeeeeeeeeeeeeeeeeeeeeee"
            },
            {
                "amount": "0.00485",
                "from": "0x491c05896ef656d7fee0fb90ce487315ff0ac14c",
                "id": 2,
                "isERC1155": false,
                "isERC721": false,
                "isReverted": false,
                "order": 2,
                "to": "0x5aeb1fcb423e89f5258bb653569aa671aa68f6e6",
                "token": "0xeeeeeeeeeeeeeeeeeeeeeeeeeeeeeeeeeeeeeeee"
            }
        ],
        "token_infos": [
            {
                "address": "0xc02aaa39b223fe8d0a0e5c4f27ead9083c756cc2",
                "decimals": 18
            },
            {
                "address": "0xeeeeeeeeeeeeeeeeeeeeeeeeeeeeeeeeeeeeeeee",
                "decimals": 18
            }
        ]
    },
    "address_label": {
        "labels": [
            {
                "address": "0x0000000000000000000000000000000000000004",
                "label": "Precompiled"
            },
            {
                "address": "0xeeeeeeeeeeeeeeeeeeeeeeeeeeeeeeeeeeeeeeee",
                "label": "Ether"
            },
            {
                "address": "0xf7a6e15dfd5cdd9ef12711bd757a9b6021abf643",
                "label": "CryptoBots: CBT Token"
            },
            {
                "address": "0x491c05896ef656d7fee0fb90ce487315ff0ac14c",
                "label": "SaleClockAuction"
            },
            {
                "address": "0x0000000000000000000000000000000000000001",
                "label": "Precompiled"
            },
            {
                "address": "0x0000000000000000000000000000000000000002",
                "label": "Precompiled"
            },
            {
                "address": "0x0000000000000000000000000000000000000003",
                "label": "Precompiled"
            }
        ]
    },
    "trace": {
        "accountLabels": null,
        "dataMap": {
            "-1": {
                "invocation": {
                    "address": "0x8388f757332371f89c397d1ee9cf68e856fb249c",
                    "callData": "",
                    "decodedMethod": null,
                    "errorInfo": "",
                    "fromAddress": "",
                    "gasUsed": 0,
                    "id": -1,
                    "methodDecoded": false,
                    "operation": "",
                    "output": "",
                    "revert": false,
                    "revertMessage": "",
                    "selector": "",
                    "status": false,
                    "value": ""
                },
                "nodeType": 0
            },
            "0": {
                "invocation": {
                    "address": "0x491c05896ef656d7fee0fb90ce487315ff0ac14c",
                    "callData": "0x0000000000000000000000000000000000000000000000000000000000000d28",
                    "decodedMethod": {
                        "callParams": [
                            {
                                "name": "_tokenId",
                                "type": "uint256",
                                "value": "3,368"
                            }
                        ],
                        "constructorArguments": "",
                        "name": "bid",
                        "returnParams": [],
                        "signature": "bid(uint256)"
                    },
                    "errorInfo": "",
                    "fromAddress": "0x8388f757332371f89c397d1ee9cf68e856fb249c",
                    "gasUsed": 65428,
                    "id": 0,
                    "methodDecoded": true,
                    "operation": "CALL",
                    "output": "",
                    "revert": false,
                    "revertMessage": "",
                    "selector": "0x454a2ab3",
                    "status": true,
                    "value": "0.005"
                },
                "nodeType": 0
            },
            "1": {
                "invocation": {
                    "address": "0x5aeb1fcb423e89f5258bb653569aa671aa68f6e6",
                    "callData": "0x",
                    "decodedMethod": null,
                    "errorInfo": "",
                    "fromAddress": "0x491c05896ef656d7fee0fb90ce487315ff0ac14c",
                    "gasUsed": 0,
                    "id": 1,
                    "methodDecoded": false,
                    "operation": "CALL",
                    "output": "",
                    "revert": false,
                    "revertMessage": "",
                    "selector": "fallback",
                    "status": true,
                    "value": "0.00485"
                },
                "nodeType": 0
            },
            "2": {
                "invocation": {
                    "address": "0x8388f757332371f89c397d1ee9cf68e856fb249c",
                    "callData": "0x",
                    "decodedMethod": null,
                    "errorInfo": "",
                    "fromAddress": "0x491c05896ef656d7fee0fb90ce487315ff0ac14c",
                    "gasUsed": 0,
                    "id": 2,
                    "methodDecoded": false,
                    "operation": "CALL",
                    "output": "",
                    "revert": false,
                    "revertMessage": "",
                    "selector": "fallback",
                    "status": true,
                    "value": "0"
                },
                "nodeType": 0
            },
            "3": {
                "event": {
                    "contract": "0x491c05896ef656d7fee0fb90ce487315ff0ac14c",
                    "decodedLog": {
                        "name": "AuctionSuccessful",
                        "params": [
                            {
                                "name": "tokenId",
                                "type": "uint256",
                                "value": "3,368"
                            },
                            {
                                "name": "totalPrice",
                                "type": "uint256",
                                "value": "5,000,000,000,000,000"
                            },
                            {
                                "name": "seller",
                                "type": "address",
                                "value": "0x5aeb1fcb423e89f5258bb653569aa671aa68f6e6"
                            },
                            {
                                "name": "winner",
                                "type": "address",
                                "value": "0x8388f757332371f89c397d1ee9cf68e856fb249c"
                            },
                            {
                                "name": "time",
                                "type": "uint256",
                                "value": "1,525,970,294"
                            }
                        ],
                        "signature": "AuctionSuccessful(uint256,uint256,address,address,uint256)"
                    },
                    "id": 3,
                    "logData": "0x0000000000000000000000000000000000000000000000000000000000000d280000000000000000000000000000000000000000000000000011c37937e080000000000000000000000000005aeb1fcb423e89f5258bb653569aa671aa68f6e60000000000000000000000008388f757332371f89c397d1ee9cf68e856fb249c000000000000000000000000000000000000000000000000000000005af47576",
                    "logDecoded": true,
                    "operation": "EVENT",
                    "revert": false,
                    "status": true,
                    "topics": [
                        "0xc2a394cb356728b3540b84dee72ea6de41f44fd94de223565258efe1549ee06f"
                    ]
                },
                "nodeType": 1
            },
            "4": {
                "invocation": {
                    "address": "0xf7a6e15dfd5cdd9ef12711bd757a9b6021abf643",
                    "callData": "0x0000000000000000000000008388f757332371f89c397d1ee9cf68e856fb249c0000000000000000000000000000000000000000000000000000000000000d28",
                    "decodedMethod": {
                        "callParams": [
                            {
                                "name": "_to",
                                "type": "address",
                                "value": "0x8388f757332371f89c397d1ee9cf68e856fb249c"
                            },
                            {
                                "decimalAvailable": true,
                                "name": "_tokenId",
                                "type": "uint256",
                                "value": "3,368"
                            }
                        ],
                        "constructorArguments": "",
                        "name": "transfer",
                        "returnParams": [],
                        "signature": "transfer(address,uint256)"
                    },
                    "errorInfo": "",
                    "fromAddress": "0x491c05896ef656d7fee0fb90ce487315ff0ac14c",
                    "gasUsed": 46446,
                    "id": 4,
                    "methodDecoded": true,
                    "operation": "CALL",
                    "output": "",
                    "revert": false,
                    "revertMessage": "",
                    "selector": "0xa9059cbb",
                    "status": true,
                    "value": "0"
                },
                "nodeType": 0
            },
            "5": {
                "event": {
                    "contract": "0xf7a6e15dfd5cdd9ef12711bd757a9b6021abf643",
                    "decodedLog": {
                        "name": "Transfer",
                        "params": [
                            {
                                "name": "from",
                                "type": "address",
                                "value": "0x491c05896ef656d7fee0fb90ce487315ff0ac14c"
                            },
                            {
                                "name": "to",
                                "type": "address",
                                "value": "0x8388f757332371f89c397d1ee9cf68e856fb249c"
                            },
                            {
                                "decimalAvailable": true,
                                "name": "tokenId",
                                "type": "uint256",
                                "value": "3,368"
                            }
                        ],
                        "signature": "Transfer(address,address,uint256)"
                    },
                    "id": 5,
                    "logData": "0x000000000000000000000000491c05896ef656d7fee0fb90ce487315ff0ac14c0000000000000000000000008388f757332371f89c397d1ee9cf68e856fb249c0000000000000000000000000000000000000000000000000000000000000d28",
                    "logDecoded": true,
                    "operation": "EVENT",
                    "revert": false,
                    "status": true,
                    "topics": [
                        "0xddf252ad1be2c89b69c2b068fc378daa952ba7f163c4a11628f55a4df523b3ef"
                    ]
                },
                "nodeType": 1
            }
        },
        "gasFlame": [
            {
                "children": [
                    {
                        "children": [
                            {
                                "children": [],
                                "depth": 0,
                                "name": "Initial Gas",
                                "value": 21528
                            },
                            {
                                "children": [
                                    {
                                        "children": [],
                                        "depth": 1,
                                        "name": "fallback",
                                        "value": 0
                                    },
                                    {
                                        "children": [],
                                        "depth": 1,
                                        "name": "fallback",
                                        "value": 0
                                    },
                                    {
                                        "children": [],
                                        "depth": 1,
                                        "name": "transfer",
                                        "value": 46446
                                    }
                                ],
                                "depth": 0,
                                "name": "Executed Gas",
                                "value": 88900
                            }
                        ],
                        "depth": -1,
                        "name": "Actual Gas Used",
                        "value": 65428
                    },
                    {
                        "children": [],
                        "depth": -1,
                        "name": "Refunded Gas",
                        "value": 45000
                    }
                ],
                "depth": -2,
                "name": "Total Gas",
                "value": 110428
            }
        ],
        "isConfirmed": true,
        "mainTrace": [
            {
                "children": [
                    {
                        "children": [
                            {
                                "children": [],
                                "depth": 1,
                                "id": 1,
                                "order": 1
                            },
                            {
                                "children": [],
                                "depth": 1,
                                "id": 2,
                                "order": 2
                            },
                            {
                                "children": [],
                                "depth": 1,
                                "id": 3,
                                "order": 3
                            },
                            {
                                "children": [
                                    {
                                        "children": [],
                                        "depth": 2,
                                        "id": 5,
                                        "order": 5
                                    }
                                ],
                                "depth": 1,
                                "id": 4,
                                "order": 4
                            }
                        ],
                        "depth": 0,
                        "id": 0,
                        "order": 0
                    }
                ],
                "depth": -1,
                "id": -1,
                "order": -1
            }
        ],
        "mainTraceNodeCount": 6,
        "parentIdMap": {
            "0": -1,
            "1": 0,
            "2": 0,
            "3": 0,
            "4": 0,
            "5": 4
        },
        "tidyTrace": [
            {
                "children": [
                    {
                        "children": [
                            {
                                "children": [],
                                "depth": 1,
                                "id": 1,
                                "order": 1
                            },
                            {
                                "children": [],
                                "depth": 1,
                                "id": 2,
                                "order": 2
                            },
                            {
                                "children": [],
                                "depth": 1,
                                "id": 3,
                                "order": 3
                            },
                            {
                                "children": [
                                    {
                                        "children": [],
                                        "depth": 2,
                                        "id": 5,
                                        "order": 5
                                    }
                                ],
                                "depth": 1,
                                "id": 4,
                                "order": 4
                            }
                        ],
                        "depth": 0,
                        "id": 0,
                        "order": 0
                    }
                ],
                "depth": -1,
                "id": -1,
                "order": -1
            }
        ],
        "tidyTraceNodeCount": 6
    },
    "state_change": {
        "stateChanges": [
            {
                "address": "0x491c05896ef656d7fee0fb90ce487315ff0ac14c",
                "erc": "",
                "slots": [
                    {
                        "current": "0x0000000000000000000000000000000000000000000000000000000000000000",
                        "key": "0x2e38c174dc64d750cf29bb0f948cb94a8b05def6e759f89c1556ee2bdafea9ce",
                        "prev": "0x0000000000000000000000005aeb1fcb423e89f5258bb653569aa671aa68f6e6"
                    },
                    {
                        "current": "0x0000000000000000000000000000000000000000000000000000000000000000",
                        "key": "0x2e38c174dc64d750cf29bb0f948cb94a8b05def6e759f89c1556ee2bdafea9cf",
                        "prev": "0x00000000000000000011c37937e0800000000000000000000011c37937e08000"
                    },
                    {
                        "current": "0x0000000000000000000000000000000000000000000000000000000000000000",
                        "key": "0x2e38c174dc64d750cf29bb0f948cb94a8b05def6e759f89c1556ee2bdafea9d0",
                        "prev": "0x00000000000000000000000000000000000000005af443e5000000000013c680"
                    }
                ],
                "storageVariables": [
                    {
                        "name": "tokenIdToAuction",
                        "type": "mapping(uint256 => struct ClockAuctionBase.Auction)",
                        "value": {
                            "pairs": [
                                {
                                    "key": "3368",
                                    "value": {
                                        "fields": [
                                            {
                                                "name": "seller",
                                                "type": "address",
                                                "value": {
                                                    "current": "0x0000000000000000000000000000000000000000",
                                                    "prev": "0x5aeb1fcb423e89f5258bb653569aa671aa68f6e6",
                                                    "typeTag": 1
                                                }
                                            },
                                            {
                                                "name": "startingPrice",
                                                "type": "uint128",
                                                "value": {
                                                    "current": "0",
                                                    "prev": "5000000000000000",
                                                    "typeTag": 1
                                                }
                                            },
                                            {
                                                "name": "endingPrice",
                                                "type": "uint128",
                                                "value": {
                                                    "current": "0",
                                                    "prev": "5000000000000000",
                                                    "typeTag": 1
                                                }
                                            },
                                            {
                                                "name": "duration",
                                                "type": "uint64",
                                                "value": {
                                                    "current": "0",
                                                    "prev": "1296000",
                                                    "typeTag": 1
                                                }
                                            },
                                            {
                                                "name": "startedAt",
                                                "type": "uint64",
                                                "value": {
                                                    "current": "0",
                                                    "prev": "1525957605",
                                                    "typeTag": 1
                                                }
                                            }
                                        ],
                                        "typeTag": 3
                                    }
                                }
                            ],
                            "typeTag": 4
                        }
                    }
                ]
            },
            {
                "address": "0xf7a6e15dfd5cdd9ef12711bd757a9b6021abf643",
                "erc": "",
                "slots": [
                    {
                        "current": "0x0000000000000000000000000000000000000000000000000000000000000001",
                        "key": "0x130d2195edf35edaf4cf84ec1c97726e608deb355d1e003fbdd9ca4a55788082",
                        "prev": "0x0000000000000000000000000000000000000000000000000000000000000000"
                    },
                    {
                        "current": "0x0000000000000000000000008388f757332371f89c397d1ee9cf68e856fb249c",
                        "key": "0xc79979e7b440218093ce4d859041276343a1535c8e581f46c5259a373ede8dc7",
                        "prev": "0x000000000000000000000000491c05896ef656d7fee0fb90ce487315ff0ac14c"
                    },
                    {
                        "current": "0x00000000000000000000000000000000000000000000000000000000000005a3",
                        "key": "0xd799c37356eb8718aece774994138c86e69341619bce0ffb8c230366a7f06ad6",
                        "prev": "0x00000000000000000000000000000000000000000000000000000000000005a4"
                    }
                ],
                "storageVariables": [
                    {
                        "name": "botIndexToOwner",
                        "type": "mapping(uint256 => address)",
                        "value": {
                            "pairs": [
                                {
                                    "key": "3368",
                                    "value": {
                                        "current": "0x8388f757332371f89c397d1ee9cf68e856fb249c",
                                        "prev": "0x491c05896ef656d7fee0fb90ce487315ff0ac14c",
                                        "typeTag": 1
                                    }
                                }
                            ],
                            "typeTag": 4
                        }
                    },
                    {
                        "name": "ownershipTokenCount",
                        "type": "mapping(address => uint256)",
                        "value": {
                            "pairs": [
                                {
                                    "key": "0x491c05896ef656d7fee0fb90ce487315ff0ac14c",
                                    "value": {
                                        "current": "1443",
                                        "prev": "1444",
                                        "typeTag": 1
                                    }
                                },
                                {
                                    "key": "0x8388f757332371f89c397d1ee9cf68e856fb249c",
                                    "value": {
                                        "current": "1",
                                        "prev": "0",
                                        "typeTag": 1
                                    }
                                }
                            ],
                            "typeTag": 4
                        }
                    }
                ]
            }
        ]
    }
}