{
    "balance_change": {
        "balanceChanges": [
            {
                "account": "0x6abba9f6f33361f1e363deeed2bf48d5f1fd9399",
                "assets": [
                    {
                        "address": "0xc18b4c1e0b4d4d0f1e9627f25399f5073079ac3d",
                        "amount": "668",
                        "iconUrl": "",
                        "isERC1155": false,
                        "isERC721": false,
                        "sign": false,
                        "value": ""
                    }
                ]
            },
            {
                "account": "0x32554aba738d49e2a330aa083d2e79dab67a0d3b",
                "assets": [
                    {
                        "address": "0xc18b4c1e0b4d4d0f1e9627f25399f5073079ac3d",
                        "amount": "668",
                        "iconUrl": "",
                        "isERC1155": false,
                        "isERC721": false,
                        "sign": true,
                        "value": ""
                    }
                ]
            }
        ]
    },
    "profile": {
        "basic_info": {
            "baseFee": "1.875973251",
            "blockNumber": 20741148,
            "callData": "0xa9059cbb00000000000000000000000032554aba738d49e2a330aa083d2e79dab67a0d3b000000000000000000000000000000000000000000000024365cbcc8c8f00000",
            "debugEnable": true,
            "errorInfo": "",
            "eventCount": 1,
            "feeRecipient": "0x95222290dd7278aa3ddd389cc1e1d165cc4bafe5",
            "formatValue": "0",
            "gasLimit": 51861,
            "gasPrice": "2.400038043",
            "gasUsed": 51468,
            "intTxnCount": 0,
            "internalRevert": false,
            "internalRevertMessage": "",
            "isContractCreation": false,
            "isFlashloan": false,
            "maxFee": "2.498984072",
            "nonce": 88,
            "overwritedBlockNumber": -1,
            "priorityFee": "0.524064792",
            "receiver": "0xc18b4c1e0b4d4d0f1e9627f25399f5073079ac3d",
            "revertMessage": "",
            "sender": "0x6abba9f6f33361f1e363deeed2bf48d5f1fd9399",
            "simulationEnable": true,
            "sourceTxnHash": "0x53efc50bc43353c8145721d440ca2ea7f4554206cb51063015c9e778079743a8",
            "status": true,
            "timestamp": "2024-09-13T10:38:23Z",
            "transactionFee": "0.000123525157997124",
            "txnHash": "0x53efc50bc43353c8145721d440ca2ea7f4554206cb51063015c9e778079743a8",
            "txnIndex": 105,
            "type": 2,
            "value": "0"
        },
        "fund_flow": [
            {
                "amount": "668",
                "from": "0x6abba9f6f33361f1e363deeed2bf48d5f1fd9399",
                "id": 1,
                "isERC1155": false,
                "isERC721": false,
                "isReverted": false,
                "order": 1,
                "to": "0x32554aba738d49e2a330aa083d2e79dab67a0d3b",
                "token": "0xc18b4c1e0b4d4d0f1e9627f25399f5073079ac3d"
            }
        ],
        "token_infos": [
            {
                "address": "0xc02aaa39b223fe8d0a0e5c4f27ead9083c756cc2",
                "decimals": 18
            },
            {
                "address": "0xc18b4c1e0b4d4d0f1e9627f25399f5073079ac3d",
                "decimals": 18
            },
            {
                "address": "0xeeeeeeeeeeeeeeeeeeeeeeeeeeeeeeeeeeeeeeee",
                "decimals": 18
            }
        ]
    },
    "address_label": {
        "labels": [
            {
                "address": "0x0000000000000000000000000000000000000003",
                "label": "Precompiled"
            },
            {
                "address": "0x0000000000000000000000000000000000000004",
                "label": "Precompiled"
            },
            {
                "address": "0xeeeeeeeeeeeeeeeeeeeeeeeeeeeeeeeeeeeeeeee",
                "label": "Ether"
            },
            {
                "address": "0xc18b4c1e0b4d4d0f1e9627f25399f5073079ac3d",
                "label": "BOOH"
            },
            {
                "address": "0x0000000000000000000000000000000000000001",
                "label": "Precompiled"
            },
            {
                "address": "0x0000000000000000000000000000000000000002",
                "label": "Precompiled"
            }
        ]
    },
    "trace": {
        "accountLabels": null,
        "dataMap": {
            "-1": {
                "invocation": {
                    "address": "0x6abba9f6f33361f1e363deeed2bf48d5f1fd9399",
                    "callData": "",
                    "decodedMethod": null,
                    "errorInfo": "",
                    "fromAddress": "",
                    "gasUsed": 0,
                    "id": -1,
                    "methodDecoded": false,
                    "operation": "",
                    "output": "",
                    "revert": false,
                    "revertMessage": "",
                    "selector": "",
                    "status": false,
                    "value": ""
                },
                "nodeType": 0
            },
            "0": {
                "invocation": {
                    "address": "0xc18b4c1e0b4d4d0f1e9627f25399f5073079ac3d",
                    "callData": "0x00000000000000000000000032554aba738d49e2a330aa083d2e79dab67a0d3b000000000000000000000000000000000000000000000024365cbcc8c8f00000",
                    "decodedMethod": {
                        "callParams": [
                            {
                                "name": "to",
                                "type": "address",
                                "value": "0x32554aba738d49e2a330aa083d2e79dab67a0d3b"
                            },
                            {
                                "decimalAvailable": true,
                                "name": "value",
                                "type": "uint256",
                                "value": "668,000,000,000,000,000,000"
                            }
                        ],
                        "constructorArguments": "",
                        "name": "transfer",
                        "returnParams": [
                            {
                                "name": "",
                                "type": "bool",
                                "value": true
                            }
                        ],
                        "signature": "transfer(address,uint256)"
                    },
                    "errorInfo": "",
                    "fromAddress": "0x6abba9f6f33361f1e363deeed2bf48d5f1fd9399",
                    "gasUsed": 51468,
                    "id": 0,
                    "methodDecoded": true,
                    "operation": "CALL",
                    "output": "0x0000000000000000000000000000000000000000000000000000000000000001",
                    "revert": false,
                    "revertMessage": "",
                    "selector": "0xa9059cbb",
                    "status": true,
                    "value": "0"
                },
                "nodeType": 0
            },
            "1": {
                "event": {
                    "contract": "0xc18b4c1e0b4d4d0f1e9627f25399f5073079ac3d",
                    "decodedLog": {
                        "name": "Transfer",
                        "params": [
                            {
                                "name": "from",
                                "type": "address",
                                "value": "0x6abba9f6f33361f1e363deeed2bf48d5f1fd9399"
                            },
                            {
                                "name": "to",
                                "type": "address",
                                "value": "0x32554aba738d49e2a330aa083d2e79dab67a0d3b"
                            },
                            {
                                "decimalAvailable": true,
                                "name": "value",
                                "type": "uint256",
                                "value": "668,000,000,000,000,000,000"
                            }
                        ],
                        "signature": "Transfer(address,address,uint256)"
                    },
                    "id": 1,
                    "logData": "0x000000000000000000000000000000000000000000000024365cbcc8c8f00000",
                    "logDecoded": true,
                    "operation": "EVENT",
                    "revert": false,
                    "status": true,
                    "topics": [
                        "0xddf252ad1be2c89b69c2b068fc378daa952ba7f163c4a11628f55a4df523b3ef",
                        "0x0000000000000000000000006abba9f6f33361f1e363deeed2bf48d5f1fd9399",
                        "0x00000000000000000000000032554aba738d49e2a330aa083d2e79dab67a0d3b"
                    ]
                },
                "nodeType": 1
            }
        },
        "gasFlame": [
            {
                "children": [
                    {
                        "children": [
                            {
                                "children": [],
                                "depth": 0,
                                "name": "Initial Gas",
                                "value": 21644
                            },
                            {
                                "children": [],
                                "depth": 0,
                                "name": "Executed Gas",
                                "value": 29824
                            }
                        ],
                        "depth": -1,
                        "name": "Actual Gas Used",
                        "value": 51468
                    },
                    {
                        "children": [],
                        "depth": -1,
                        "name": "Refunded Gas",
                        "value": 0
                    }
                ],
                "depth": -2,
                "name": "Total Gas",
                "value": 51468
            }
        ],
        "isConfirmed": true,
        "mainTrace": [
            {
                "children": [
                    {
                        "children": [
                            {
                                "children": [],
                                "depth": 1,
                                "id": 1,
                                "order": 1
                            }
                        ],
                        "depth": 0,
                        "id": 0,
                        "order": 0
                    }
                ],
                "depth": -1,
                "id": -1,
                "order": -1
            }
        ],
        "mainTraceNodeCount": 2,
        "parentIdMap": {
            "0": -1,
            "1": 0
        },
        "tidyTrace": [
            {
                "children": [
                    {
                        "children": [
                            {
                                "children": [],
                                "depth": 1,
                                "id": 1,
                                "order": 1
                            }
                        ],
                        "depth": 0,
                        "id": 0,
                        "order": 0
                    }
                ],
                "depth": -1,
                "id": -1,
                "order": -1
            }
        ],
        "tidyTraceNodeCount": 2
    },
    "state_change": {
        "stateChanges": [
            {
                "address": "0xc18b4c1e0b4d4d0f1e9627f25399f5073079ac3d",
                "erc": "ERC-20",
                "slots": [
                    {
                        "current": "0x000000000000000000000000000000000000000000000482ace15bc36c4fffba",
                        "key": "0xfbdba4e753f2b29418fe1d852c9683a36174cfeab924d916f4603c4713a2053d",
                        "prev": "0x0000000000000000000000000000000000000000000004a6e33e188c353fffba"
                    },
                    {
                        "current": "0x000000000000000000000000000000000000000000000024365cbcc8c8f00000",
                        "key": "0x2b820499f4209b86dd5feeb3544e91ea64bf97fa5595ab1862388deff81d404b",
                        "prev": "0x0000000000000000000000000000000000000000000000000000000000000000"
                    }
                ],
                "storageVariables": [
                    {
                        "name": "_balances",
                        "type": "mapping(address => uint256)",
                        "value": {
                            "pairs": [
                                {
                                    "key": "0x32554aba738d49e2a330aa083d2e79dab67a0d3b",
                                    "value": {
                                        "current": "668000000000000000000",
                                        "prev": "0",
                                        "typeTag": 1
                                    }
                                },
                                {
                                    "key": "0x6abba9f6f33361f1e363deeed2bf48d5f1fd9399",
                                    "value": {
                                        "current": "21299999999999999999930",
                                        "prev": "21967999999999999999930",
                                        "typeTag": 1
                                    }
                                }
                            ],
                            "typeTag": 4
                        }
                    }
                ]
            }
        ]
    }
}