{
    "balance_change": {
        "balanceChanges": []
    },
    "profile": {
        "basic_info": {
            "baseFee": "",
            "blockNumber": 8107777,
            "callData": "0xef3435880000000000000000000000000000000000000000000000000000000004c243000000000000000000000000000000000000000000000000000c7030f5a7eece0300000000000000000000000000000000000000000000000000000000000027100000000000000000000000000000000000000000000000000000000451f7657d000000000000000000000000000000000000000000000000000000000149662000000000000000000000000000000000000000000000000000000000003bdb5100000000000000000000000000000000000000000000000000038d7ea4c6800000000000000000000000000000000000000000000000000000149040875e5af8000000000000000000000000cc13fc627effd6e35d2d2706ea3c4d7396c610ea000000000000000000000000000000000000000000000000000000000000000000000000000000000000000007f8fd71341b8b8c044e7ad2cd8f248ea99801de000000000000000000000000a7494c1710494daf2915b59f95ed05e24f77c5ea000000000000000000000000000000000000000000000000000000000000001b000000000000000000000000000000000000000000000000000000000000001c96ee1a59d2dc8f8d7fefdf46ebe040e0013f54ad34fbe6f2477cfa2be6541ede1b9b48d0ef6a2b407f77e8edda63f8efc3b8c441c4d5653609a509cdd21b4cd70fd1df713c3d2b646c6ebac4661c46d58d3ad5fb6d794b2595320185468277d124bbceffb8ff6157d7c46e27f01d5e08b201a4ae94c92b99ee25a6d1c8debce7",
            "debugEnable": true,
            "errorInfo": "",
            "eventCount": 0,
            "feeRecipient": "0xaa5c4244f05c92781c4f259913319d8ba1acf05e",
            "formatValue": "0",
            "gasLimit": 400000,
            "gasPrice": "5",
            "gasUsed": 142452,
            "intTxnCount": 2,
            "internalRevert": false,
            "internalRevertMessage": "",
            "isContractCreation": false,
            "isFlashloan": false,
            "maxFee": "",
            "nonce": 3688435,
            "overwritedBlockNumber": -1,
            "priorityFee": "",
            "receiver": "0x2a0c0dbecc7e4d658f48e01e3fa353f44050c208",
            "revertMessage": "",
            "sender": "0xa7a7899d944fe658c4b0a1803bab2f490bd3849e",
            "simulationEnable": true,
            "sourceTxnHash": "0x53d7bae5235c9ed2e0608c351650337c1e25eea3898cce26d8184d1d6e841738",
            "status": true,
            "timestamp": "2019-07-08T01:55:50Z",
            "transactionFee": "0.00071226",
            "txnHash": "0x53d7bae5235c9ed2e0608c351650337c1e25eea3898cce26d8184d1d6e841738",
            "txnIndex": 57,
            "type": 0,
            "value": "0"
        },
        "fund_flow": [],
        "token_infos": [
            {
                "address": "0xc02aaa39b223fe8d0a0e5c4f27ead9083c756cc2",
                "decimals": 18
            },
            {
                "address": "0xeeeeeeeeeeeeeeeeeeeeeeeeeeeeeeeeeeeeeeee",
                "decimals": 18
            }
        ]
    },
    "address_label": {
        "labels": [
            {
                "address": "0x0000000000000000000000000000000000000001",
                "label": "Precompiled"
            },
            {
                "address": "0x0000000000000000000000000000000000000002",
                "label": "Precompiled"
            },
            {
                "address": "0x0000000000000000000000000000000000000003",
                "label": "Precompiled"
            },
            {
                "address": "0x0000000000000000000000000000000000000004",
                "label": "Precompiled"
            },
            {
                "address": "0xeeeeeeeeeeeeeeeeeeeeeeeeeeeeeeeeeeeeeeee",
                "label": "Ether"
            },
            {
                "address": "0xa7a7899d944fe658c4b0a1803bab2f490bd3849e",
                "label": "IDEX 2"
            },
            {
                "address": "0x2a0c0dbecc7e4d658f48e01e3fa353f44050c208",
                "label": "IDEX"
            },
            {
                "address": "0xcc13fc627effd6e35d2d2706ea3c4d7396c610ea",
                "label": "IDEX Membership Token"
            },
            {
                "address": "0x0000000000000000000000000000000000000000",
                "label": "Null Address"
            }
        ]
    },
    "trace": {
        "accountLabels": null,
        "dataMap": {
            "-1": {
                "invocation": {
                    "address": "0xa7a7899d944fe658c4b0a1803bab2f490bd3849e",
                    "callData": "",
                    "decodedMethod": null,
                    "errorInfo": "",
                    "fromAddress": "",
                    "gasUsed": 0,
                    "id": -1,
                    "methodDecoded": false,
                    "operation": "",
                    "output": "",
                    "revert": false,
                    "revertMessage": "",
                    "selector": "",
                    "status": false,
                    "value": ""
                },
                "nodeType": 0
            },
            "0": {
                "invocation": {
                    "address": "0x2a0c0dbecc7e4d658f48e01e3fa353f44050c208",
                    "callData": "0x0000000000000000000000000000000000000000000000000000000004c243000000000000000000000000000000000000000000000000000c7030f5a7eece0300000000000000000000000000000000000000000000000000000000000027100000000000000000000000000000000000000000000000000000000451f7657d000000000000000000000000000000000000000000000000000000000149662000000000000000000000000000000000000000000000000000000000003bdb5100000000000000000000000000000000000000000000000000038d7ea4c6800000000000000000000000000000000000000000000000000000149040875e5af8000000000000000000000000cc13fc627effd6e35d2d2706ea3c4d7396c610ea000000000000000000000000000000000000000000000000000000000000000000000000000000000000000007f8fd71341b8b8c044e7ad2cd8f248ea99801de000000000000000000000000a7494c1710494daf2915b59f95ed05e24f77c5ea000000000000000000000000000000000000000000000000000000000000001b000000000000000000000000000000000000000000000000000000000000001c96ee1a59d2dc8f8d7fefdf46ebe040e0013f54ad34fbe6f2477cfa2be6541ede1b9b48d0ef6a2b407f77e8edda63f8efc3b8c441c4d5653609a509cdd21b4cd70fd1df713c3d2b646c6ebac4661c46d58d3ad5fb6d794b2595320185468277d124bbceffb8ff6157d7c46e27f01d5e08b201a4ae94c92b99ee25a6d1c8debce7",
                    "decodedMethod": {
                        "callParams": [
                            {
                                "name": "tradeValues",
                                "type": "uint256[8]",
                                "value": [
                                    "79,840,000",
                                    "896,270,157,489,294,851",
                                    "10,000",
                                    "18,555,037,053",
                                    "21,587,488",
                                    "3,922,769",
                                    "1,000,000,000,000,000",
                                    "5,788,106,357,627,640"
                                ]
                            },
                            {
                                "name": "tradeAddresses",
                                "type": "address[4]",
                                "value": [
                                    "0xcc13fc627effd6e35d2d2706ea3c4d7396c610ea",
                                    "0x0000000000000000000000000000000000000000",
                                    "0x07f8fd71341b8b8c044e7ad2cd8f248ea99801de",
                                    "0xa7494c1710494daf2915b59f95ed05e24f77c5ea"
                                ]
                            },
                            {
                                "name": "v",
                                "type": "uint8[2]",
                                "value": [
                                    "27",
                                    "28"
                                ]
                            },
                            {
                                "name": "rs",
                                "type": "bytes32[4]",
                                "value": [
                                    "0x96ee1a59d2dc8f8d7fefdf46ebe040e0013f54ad34fbe6f2477cfa2be6541ede",
                                    "0x1b9b48d0ef6a2b407f77e8edda63f8efc3b8c441c4d5653609a509cdd21b4cd7",
                                    "0x0fd1df713c3d2b646c6ebac4661c46d58d3ad5fb6d794b2595320185468277d1",
                                    "0x24bbceffb8ff6157d7c46e27f01d5e08b201a4ae94c92b99ee25a6d1c8debce7"
                                ]
                            }
                        ],
                        "constructorArguments": "",
                        "name": "trade",
                        "returnParams": [
                            {
                                "name": "success",
                                "type": "bool",
                                "value": false
                            }
                        ],
                        "signature": "trade(uint256[8],address[4],uint8[2],bytes32[4])"
                    },
                    "errorInfo": "",
                    "fromAddress": "0xa7a7899d944fe658c4b0a1803bab2f490bd3849e",
                    "gasUsed": 142452,
                    "id": 0,
                    "methodDecoded": true,
                    "operation": "CALL",
                    "output": "0x0000000000000000000000000000000000000000000000000000000000000000",
                    "revert": false,
                    "revertMessage": "",
                    "selector": "0xef343588",
                    "status": true,
                    "value": "0"
                },
                "nodeType": 0
            },
            "1": {
                "invocation": {
                    "address": "0x0000000000000000000000000000000000000001",
                    "callData": "0x6eef7ee6fdca6052420d6ebb255a3f8d433b913eb26aaac224c4922f000000000000000000000000000000000000000000000000000000000000001b96ee1a59d2dc8f8d7fefdf46ebe040e0013f54ad34fbe6f2477cfa2be6541ede1b9b48d0ef6a2b407f77e8edda63f8efc3b8c441c4d5653609a509cdd21b4cd7",
                    "decodedMethod": {
                        "callParams": [
                            {
                                "name": "hash",
                                "type": "bytes32",
                                "value": "0x12ef77636eef7ee6fdca6052420d6ebb255a3f8d433b913eb26aaac224c4922f"
                            },
                            {
                                "name": "v",
                                "type": "uint256",
                                "value": "27"
                            },
                            {
                                "name": "r",
                                "type": "bytes32",
                                "value": "0x96ee1a59d2dc8f8d7fefdf46ebe040e0013f54ad34fbe6f2477cfa2be6541ede"
                            },
                            {
                                "name": "s",
                                "type": "bytes32",
                                "value": "0x1b9b48d0ef6a2b407f77e8edda63f8efc3b8c441c4d5653609a509cdd21b4cd7"
                            }
                        ],
                        "constructorArguments": "",
                        "name": "ecrecover",
                        "returnParams": [
                            {
                                "name": "",
                                "type": "address",
                                "value": "0x07f8fd71341b8b8c044e7ad2cd8f248ea99801de"
                            }
                        ],
                        "signature": "ecrecover(bytes32,uint256,bytes32,bytes32)"
                    },
                    "errorInfo": "",
                    "fromAddress": "0x2a0c0dbecc7e4d658f48e01e3fa353f44050c208",
                    "gasUsed": 3000,
                    "id": 1,
                    "methodDecoded": true,
                    "operation": "CALL",
                    "output": "0x00000000000000000000000007f8fd71341b8b8c044e7ad2cd8f248ea99801de",
                    "revert": false,
                    "revertMessage": "",
                    "selector": "0x12ef7763",
                    "status": true,
                    "value": "0"
                },
                "nodeType": 0
            },
            "2": {
                "invocation": {
                    "address": "0x0000000000000000000000000000000000000001",
                    "callData": "0x8c8a24c7151bd931662e56fdedfe21b3361a1f21d348cd1acc432196000000000000000000000000000000000000000000000000000000000000001c0fd1df713c3d2b646c6ebac4661c46d58d3ad5fb6d794b2595320185468277d124bbceffb8ff6157d7c46e27f01d5e08b201a4ae94c92b99ee25a6d1c8debce7",
                    "decodedMethod": {
                        "callParams": [
                            {
                                "name": "hash",
                                "type": "bytes32",
                                "value": "0xd40fb7398c8a24c7151bd931662e56fdedfe21b3361a1f21d348cd1acc432196"
                            },
                            {
                                "name": "v",
                                "type": "uint256",
                                "value": "28"
                            },
                            {
                                "name": "r",
                                "type": "bytes32",
                                "value": "0x0fd1df713c3d2b646c6ebac4661c46d58d3ad5fb6d794b2595320185468277d1"
                            },
                            {
                                "name": "s",
                                "type": "bytes32",
                                "value": "0x24bbceffb8ff6157d7c46e27f01d5e08b201a4ae94c92b99ee25a6d1c8debce7"
                            }
                        ],
                        "constructorArguments": "",
                        "name": "ecrecover",
                        "returnParams": [
                            {
                                "name": "",
                                "type": "address",
                                "value": "0xa7494c1710494daf2915b59f95ed05e24f77c5ea"
                            }
                        ],
                        "signature": "ecrecover(bytes32,uint256,bytes32,bytes32)"
                    },
                    "errorInfo": "",
                    "fromAddress": "0x2a0c0dbecc7e4d658f48e01e3fa353f44050c208",
                    "gasUsed": 3000,
                    "id": 2,
                    "methodDecoded": true,
                    "operation": "CALL",
                    "output": "0x000000000000000000000000a7494c1710494daf2915b59f95ed05e24f77c5ea",
                    "revert": false,
                    "revertMessage": "",
                    "selector": "0xd40fb739",
                    "status": true,
                    "value": "0"
                },
                "nodeType": 0
            }
        },
        "gasFlame": [
            {
                "children": [
                    {
                        "children": [
                            {
                                "children": [],
                                "depth": 0,
                                "name": "Initial Gas",
                                "value": 38168
                            },
                            {
                                "children": [
                                    {
                                        "children": [],
                                        "depth": 1,
                                        "name": "ecrecover",
                                        "value": 3000
                                    },
                                    {
                                        "children": [],
                                        "depth": 1,
                                        "name": "ecrecover",
                                        "value": 3000
                                    }
                                ],
                                "depth": 0,
                                "name": "Executed Gas",
                                "value": 104284
                            }
                        ],
                        "depth": -1,
                        "name": "Actual Gas Used",
                        "value": 142452
                    },
                    {
                        "children": [],
                        "depth": -1,
                        "name": "Refunded Gas",
                        "value": 0
                    }
                ],
                "depth": -2,
                "name": "Total Gas",
                "value": 142452
            }
        ],
        "isConfirmed": true,
        "mainTrace": [
            {
                "children": [
                    {
                        "children": [
                            {
                                "children": [],
                                "depth": 1,
                                "id": 1,
                                "order": 1
                            },
                            {
                                "children": [],
                                "depth": 1,
                                "id": 2,
                                "order": 2
                            }
                        ],
                        "depth": 0,
                        "id": 0,
                        "order": 0
                    }
                ],
                "depth": -1,
                "id": -1,
                "order": -1
            }
        ],
        "mainTraceNodeCount": 3,
        "parentIdMap": {
            "0": -1,
            "1": 0,
            "2": 0
        },
        "tidyTrace": [
            {
                "children": [
                    {
                        "children": [
                            {
                                "children": [],
                                "depth": 1,
                                "id": 1,
                                "order": 1
                            },
                            {
                                "children": [],
                                "depth": 1,
                                "id": 2,
                                "order": 2
                            }
                        ],
                        "depth": 0,
                        "id": 0,
                        "order": 0
                    }
                ],
                "depth": -1,
                "id": -1,
                "order": -1
            }
        ],
        "tidyTraceNodeCount": 3
    },
    "state_change": {
        "stateChanges": [
            {
                "address": "0x2a0c0dbecc7e4d658f48e01e3fa353f44050c208",
                "erc": "",
                "slots": [
                    {
                        "current": "0x00000000000000000000000000000000000000000000000009d54e742e2d88d3",
                        "key": "0x3ccb72d91c5c66cba135a4135963ed23443b8a63817f501517468fcd5097e277",
                        "prev": "0x00000000000000000000000000000000000000000000000009d052ba7c216dcb"
                    },
                    {
                        "current": "0x0000000000000000000000000000000000000000000000000000000009c7cc4c",
                        "key": "0x26b23617a0a2a251a8f7d13bddeedca6cb15e79b83bd9f70b147055beef5ca2f",
                        "prev": "0x000000000000000000000000000000000000000000000000000000000b11326c"
                    },
                    {
                        "current": "0x0000000000000000000000000000000000000000000000000000000006bb5665",
                        "key": "0x0ccf937b29383db1edc313c5792655cf1b271539aecb8b31eeaacce3977d77ad",
                        "prev": "0x0000000000000000000000000000000000000000000000000000000005724499"
                    },
                    {
                        "current": "0x0000000000000000000000000000000000000000000000000000000000011df0",
                        "key": "0xbb291e0d757d234898d6f228643002528bd2a581b00b3e10c0a6f1e30c6c3a53",
                        "prev": "0x000000000000000000000000000000000000000000000000000000000000c99d"
                    },
                    {
                        "current": "0x0000000000000000000000000000000000000000000000000000000000000001",
                        "key": "0x6e5e71ec38d61a356a881cab1b6b6fe66ba82caa9016c7d09d98555fca55ed77",
                        "prev": "0x0000000000000000000000000000000000000000000000000000000000000000"
                    },
                    {
                        "current": "0x000000000000000000000000000000000000000000000000fb01e20a55c48483",
                        "key": "0x139320e4017678096ee743594e3081bcfe1cd12ba14bf473bbd66a40239dd844",
                        "prev": "0x000000000000000000000000000000000000000000000000fe5ed6a8a581d117"
                    },
                    {
                        "current": "0x0000000000000000000000000000000000000000000000000357fc3c0e250ac4",
                        "key": "0xad252ec69f9a2957adfdd33e1f16990fd3ea43224d7faf7cef9b391bb3fed481",
                        "prev": "0x000000000000000000000000000000000000000000000000000003577073d938"
                    },
                    {
                        "current": "0x0000000000000000000000000000000000000000000000000000000001496620",
                        "key": "0xb0c6c3d1dae80569d7ef40359a8d138a3dc1ee049da4f9ae244ee2b7c00a35ca",
                        "prev": "0x0000000000000000000000000000000000000000000000000000000000000000"
                    },
                    {
                        "current": "0x00000000000000000000000000000000000000000000000000000000007bb701",
                        "key": "0x355974ca586827c4762a32d8c166977b82728ec1edb37e0f7247ae70413c1e16",
                        "prev": "0x00000000000000000000000000000000000000000000000000000000007bb58d"
                    },
                    {
                        "current": "0x00000000000000000000000000000000000000000000000000000000007bb701",
                        "key": "0xbae4099cdf674277fe59a3454b1f33efbe9ddbfb6b9e90eb161baeac85a683f8",
                        "prev": "0x00000000000000000000000000000000000000000000000000000000007ae755"
                    }
                ],
                "storageVariables": [
                    {
                        "name": "tokens",
                        "type": "mapping(address => mapping(address => uint256))",
                        "value": {
                            "pairs": [
                                {
                                    "key": "0x0000000000000000000000000000000000000000",
                                    "value": {
                                        "pairs": [
                                            {
                                                "key": "0x034767f3c519f361c5ecf46ebfc08981c629d381",
                                                "value": {
                                                    "current": "708558777278630099",
                                                    "prev": "707156102397128139",
                                                    "typeTag": 1
                                                }
                                            },
                                            {
                                                "key": "0x07f8fd71341b8b8c044e7ad2cd8f248ea99801de",
                                                "value": {
                                                    "current": "18086986112513115267",
                                                    "prev": "18329323553264095511",
                                                    "typeTag": 1
                                                }
                                            },
                                            {
                                                "key": "0xa7494c1710494daf2915b59f95ed05e24f77c5ea",
                                                "value": {
                                                    "current": "240938439953156804",
                                                    "prev": "3674083678520",
                                                    "typeTag": 1
                                                }
                                            }
                                        ],
                                        "typeTag": 4
                                    }
                                },
                                {
                                    "key": "0xcc13fc627effd6e35d2d2706ea3c4d7396c610ea",
                                    "value": {
                                        "pairs": [
                                            {
                                                "key": "0x034767f3c519f361c5ecf46ebfc08981c629d381",
                                                "value": {
                                                    "current": "73200",
                                                    "prev": "51613",
                                                    "typeTag": 1
                                                }
                                            },
                                            {
                                                "key": "0x07f8fd71341b8b8c044e7ad2cd8f248ea99801de",
                                                "value": {
                                                    "current": "112940645",
                                                    "prev": "91374745",
                                                    "typeTag": 1
                                                }
                                            },
                                            {
                                                "key": "0xa7494c1710494daf2915b59f95ed05e24f77c5ea",
                                                "value": {
                                                    "current": "164088908",
                                                    "prev": "185676396",
                                                    "typeTag": 1
                                                }
                                            }
                                        ],
                                        "typeTag": 4
                                    }
                                }
                            ],
                            "typeTag": 4
                        }
                    },
                    {
                        "name": "traded",
                        "type": "mapping(bytes32 => bool)",
                        "value": {
                            "pairs": [
                                {
                                    "key": "0x11c7d3b690b56496ea7ac3164fe4847241a91a9c6b1cbccc6ce4c3dbf5c1e789",
                                    "value": {
                                        "current": "true",
                                        "prev": "false",
                                        "typeTag": 1
                                    }
                                }
                            ],
                            "typeTag": 4
                        }
                    },
                    {
                        "name": "lastActiveTransaction",
                        "type": "mapping(address => uint256)",
                        "value": {
                            "pairs": [
                                {
                                    "key": "0x07f8fd71341b8b8c044e7ad2cd8f248ea99801de",
                                    "value": {
                                        "current": "8107777",
                                        "prev": "8107405",
                                        "typeTag": 1
                                    }
                                },
                                {
                                    "key": "0xa7494c1710494daf2915b59f95ed05e24f77c5ea",
                                    "value": {
                                        "current": "8107777",
                                        "prev": "8054613",
                                        "typeTag": 1
                                    }
                                }
                            ],
                            "typeTag": 4
                        }
                    },
                    {
                        "name": "orderFills",
                        "type": "mapping(bytes32 => uint256)",
                        "value": {
                            "pairs": [
                                {
                                    "key": "0x1501fcd00dd37eae7e710ccd00276a842183945806fe93bdb613ae7ff87f2130",
                                    "value": {
                                        "current": "21587488",
                                        "prev": "0",
                                        "typeTag": 1
                                    }
                                }
                            ],
                            "typeTag": 4
                        }
                    }
                ]
            }
        ]
    }
}