{
    "balance_change": {
        "balanceChanges": [
            {
                "account": "0x4f335cb0aae3a698639e27a6a45f2c38523f7442",
                "assets": [
                    {
                        "address": "0x9195e00402abe385f2d00a32af40b271f2e87925",
                        "amount": "1,900,000",
                        "iconUrl": "",
                        "isERC1155": false,
                        "isERC721": false,
                        "sign": false,
                        "value": ""
                    }
                ]
            },
            {
                "account": "0x8eeaddba91704d51cf69935928ed9ae100ae4cda",
                "assets": [
                    {
                        "address": "0x9195e00402abe385f2d00a32af40b271f2e87925",
                        "amount": "1,900,000",
                        "iconUrl": "",
                        "isERC1155": false,
                        "isERC721": false,
                        "sign": true,
                        "value": ""
                    }
                ]
            }
        ]
    },
    "profile": {
        "basic_info": {
            "baseFee": "",
            "blockNumber": 7466274,
            "callData": "0xa9059cbb0000000000000000000000008eeaddba91704d51cf69935928ed9ae100ae4cda00000000000000000000000000000000000000000001925734d5b8904b800000",
            "debugEnable": true,
            "errorInfo": "",
            "eventCount": 1,
            "feeRecipient": "0x2a65aca4d5fc5b5c859090a6c34d164135398226",
            "formatValue": "0",
            "gasLimit": 100000,
            "gasPrice": "8",
            "gasUsed": 37099,
            "intTxnCount": 0,
            "internalRevert": false,
            "internalRevertMessage": "",
            "isContractCreation": false,
            "isFlashloan": false,
            "maxFee": "",
            "nonce": 1311,
            "overwritedBlockNumber": -1,
            "priorityFee": "",
            "receiver": "0x9195e00402abe385f2d00a32af40b271f2e87925",
            "revertMessage": "",
            "sender": "0x4f335cb0aae3a698639e27a6a45f2c38523f7442",
            "simulationEnable": true,
            "sourceTxnHash": "0x5345a3e947e60f3cb13805225fabd50b144807f5d3ec7f69e5debb0f226b01ed",
            "status": true,
            "timestamp": "2019-03-29T23:21:33Z",
            "transactionFee": "0.000296792",
            "txnHash": "0x5345a3e947e60f3cb13805225fabd50b144807f5d3ec7f69e5debb0f226b01ed",
            "txnIndex": 6,
            "type": 0,
            "value": "0"
        },
        "fund_flow": [
            {
                "amount": "1,900,000",
                "from": "0x4f335cb0aae3a698639e27a6a45f2c38523f7442",
                "id": 1,
                "isERC1155": false,
                "isERC721": false,
                "isReverted": false,
                "order": 1,
                "to": "0x8eeaddba91704d51cf69935928ed9ae100ae4cda",
                "token": "0x9195e00402abe385f2d00a32af40b271f2e87925"
            }
        ],
        "token_infos": [
            {
                "address": "0x9195e00402abe385f2d00a32af40b271f2e87925",
                "decimals": 18
            },
            {
                "address": "0xc02aaa39b223fe8d0a0e5c4f27ead9083c756cc2",
                "decimals": 18
            },
            {
                "address": "0xeeeeeeeeeeeeeeeeeeeeeeeeeeeeeeeeeeeeeeee",
                "decimals": 18
            }
        ]
    },
    "address_label": {
        "labels": [
            {
                "address": "0xeeeeeeeeeeeeeeeeeeeeeeeeeeeeeeeeeeeeeeee",
                "label": "Ether"
            },
            {
                "address": "0x9195e00402abe385f2d00a32af40b271f2e87925",
                "label": "Etheera Token"
            },
            {
                "address": "0x0000000000000000000000000000000000000001",
                "label": "Precompiled"
            },
            {
                "address": "0x0000000000000000000000000000000000000002",
                "label": "Precompiled"
            },
            {
                "address": "0x0000000000000000000000000000000000000003",
                "label": "Precompiled"
            },
            {
                "address": "0x0000000000000000000000000000000000000004",
                "label": "Precompiled"
            }
        ]
    },
    "trace": {
        "accountLabels": null,
        "dataMap": {
            "-1": {
                "invocation": {
                    "address": "0x4f335cb0aae3a698639e27a6a45f2c38523f7442",
                    "callData": "",
                    "decodedMethod": null,
                    "errorInfo": "",
                    "fromAddress": "",
                    "gasUsed": 0,
                    "id": -1,
                    "methodDecoded": false,
                    "operation": "",
                    "output": "",
                    "revert": false,
                    "revertMessage": "",
                    "selector": "",
                    "status": false,
                    "value": ""
                },
                "nodeType": 0
            },
            "0": {
                "invocation": {
                    "address": "0x9195e00402abe385f2d00a32af40b271f2e87925",
                    "callData": "0x0000000000000000000000008eeaddba91704d51cf69935928ed9ae100ae4cda00000000000000000000000000000000000000000001925734d5b8904b800000",
                    "decodedMethod": {
                        "callParams": [
                            {
                                "name": "_to",
                                "type": "address",
                                "value": "0x8eeaddba91704d51cf69935928ed9ae100ae4cda"
                            },
                            {
                                "decimalAvailable": true,
                                "name": "_value",
                                "type": "uint256",
                                "value": "1,900,000,000,000,000,000,000,000"
                            }
                        ],
                        "constructorArguments": "",
                        "name": "transfer",
                        "returnParams": [
                            {
                                "name": "",
                                "type": "bool",
                                "value": true
                            }
                        ],
                        "signature": "transfer(address,uint256)"
                    },
                    "errorInfo": "",
                    "fromAddress": "0x4f335cb0aae3a698639e27a6a45f2c38523f7442",
                    "gasUsed": 37099,
                    "id": 0,
                    "methodDecoded": true,
                    "operation": "CALL",
                    "output": "0x0000000000000000000000000000000000000000000000000000000000000001",
                    "revert": false,
                    "revertMessage": "",
                    "selector": "0xa9059cbb",
                    "status": true,
                    "value": "0"
                },
                "nodeType": 0
            },
            "1": {
                "event": {
                    "contract": "0x9195e00402abe385f2d00a32af40b271f2e87925",
                    "decodedLog": {
                        "name": "Transfer",
                        "params": [
                            {
                                "name": "from",
                                "type": "address",
                                "value": "0x4f335cb0aae3a698639e27a6a45f2c38523f7442"
                            },
                            {
                                "name": "to",
                                "type": "address",
                                "value": "0x8eeaddba91704d51cf69935928ed9ae100ae4cda"
                            },
                            {
                                "decimalAvailable": true,
                                "name": "tokens",
                                "type": "uint256",
                                "value": "1,900,000,000,000,000,000,000,000"
                            }
                        ],
                        "signature": "Transfer(address,address,uint256)"
                    },
                    "id": 1,
                    "logData": "0x00000000000000000000000000000000000000000001925734d5b8904b800000",
                    "logDecoded": true,
                    "operation": "EVENT",
                    "revert": false,
                    "status": true,
                    "topics": [
                        "0xddf252ad1be2c89b69c2b068fc378daa952ba7f163c4a11628f55a4df523b3ef",
                        "0x0000000000000000000000004f335cb0aae3a698639e27a6a45f2c38523f7442",
                        "0x0000000000000000000000008eeaddba91704d51cf69935928ed9ae100ae4cda"
                    ]
                },
                "nodeType": 1
            }
        },
        "gasFlame": [
            {
                "children": [
                    {
                        "children": [
                            {
                                "children": [],
                                "depth": 0,
                                "name": "Initial Gas",
                                "value": 23320
                            },
                            {
                                "children": [],
                                "depth": 0,
                                "name": "Executed Gas",
                                "value": 13779
                            }
                        ],
                        "depth": -1,
                        "name": "Actual Gas Used",
                        "value": 37099
                    },
                    {
                        "children": [],
                        "depth": -1,
                        "name": "Refunded Gas",
                        "value": 0
                    }
                ],
                "depth": -2,
                "name": "Total Gas",
                "value": 37099
            }
        ],
        "isConfirmed": true,
        "mainTrace": [
            {
                "children": [
                    {
                        "children": [
                            {
                                "children": [],
                                "depth": 1,
                                "id": 1,
                                "order": 1
                            }
                        ],
                        "depth": 0,
                        "id": 0,
                        "order": 0
                    }
                ],
                "depth": -1,
                "id": -1,
                "order": -1
            }
        ],
        "mainTraceNodeCount": 2,
        "parentIdMap": {
            "0": -1,
            "1": 0
        },
        "tidyTrace": [
            {
                "children": [
                    {
                        "children": [
                            {
                                "children": [],
                                "depth": 1,
                                "id": 1,
                                "order": 1
                            }
                        ],
                        "depth": 0,
                        "id": 0,
                        "order": 0
                    }
                ],
                "depth": -1,
                "id": -1,
                "order": -1
            }
        ],
        "tidyTraceNodeCount": 2
    },
    "state_change": {
        "stateChanges": [
            {
                "address": "0x9195e00402abe385f2d00a32af40b271f2e87925",
                "erc": "ERC-20",
                "slots": [
                    {
                        "current": "0x0000000000000000000000000000000000000000000258a6fbe61fd27e515000",
                        "key": "0xba90121dd7f4d440b0808ab755f7d493849a2d2e422cc9087f949239c06a7038",
                        "prev": "0x00000000000000000000000000000000000000000003eafe30bbd862c9d15000"
                    },
                    {
                        "current": "0x00000000000000000000000000000000000000000003f195dd20a595fd5c0000",
                        "key": "0xc87d05d14b81d71d19c1e2b8e69728b6c6f483896e096f7567381ead5ee1e519",
                        "prev": "0x000000000000000000000000000000000000000000025f3ea84aed05b1dc0000"
                    }
                ],
                "storageVariables": [
                    {
                        "name": "tokenBalances",
                        "type": "mapping(address => uint256)",
                        "value": {
                            "pairs": [
                                {
                                    "key": "0x4f335cb0aae3a698639e27a6a45f2c38523f7442",
                                    "value": {
                                        "current": "2836500200468360000000000",
                                        "prev": "4736500200468360000000000",
                                        "typeTag": 1
                                    }
                                },
                                {
                                    "key": "0x8eeaddba91704d51cf69935928ed9ae100ae4cda",
                                    "value": {
                                        "current": "4767632280000000000000000",
                                        "prev": "2867632280000000000000000",
                                        "typeTag": 1
                                    }
                                }
                            ],
                            "typeTag": 4
                        }
                    }
                ]
            }
        ]
    }
}