{
    "balance_change": {
        "balanceChanges": [
            {
                "account": "0x3acdead11d850e647929b89dde5068204ab1f0c9",
                "assets": [
                    {
                        "address": "0xdac17f958d2ee523a2206206994597c13d831ec7",
                        "amount": "104",
                        "iconUrl": "https://assets.blocksec.com/icon/fcea71f3193ce895be44bfdf941f7e4c9381dd587f273c2d1a27f1263d84e4ea.png",
                        "isERC1155": false,
                        "isERC721": false,
                        "sign": true,
                        "value": "104.103999999999988546"
                    }
                ]
            },
            {
                "account": "0xb7e4fc46c6bc3e7b3a9a612181fade67dc93e5a5",
                "assets": [
                    {
                        "address": "0xdac17f958d2ee523a2206206994597c13d831ec7",
                        "amount": "104",
                        "iconUrl": "https://assets.blocksec.com/icon/fcea71f3193ce895be44bfdf941f7e4c9381dd587f273c2d1a27f1263d84e4ea.png",
                        "isERC1155": false,
                        "isERC721": false,
                        "sign": false,
                        "value": "104.103999999999988546"
                    }
                ]
            }
        ]
    },
    "profile": {
        "basic_info": {
            "baseFee": "35.555789129",
            "blockNumber": 19583378,
            "callData": "0x23b872dd000000000000000000000000b7e4fc46c6bc3e7b3a9a612181fade67dc93e5a50000000000000000000000003acdead11d850e647929b89dde5068204ab1f0c9000000000000000000000000000000000000000000000000000000000632ea00",
            "debugEnable": true,
            "errorInfo": "",
            "eventCount": 1,
            "feeRecipient": "0x1f9090aae28b8a3dceadf281b0f12828e676c326",
            "formatValue": "0",
            "gasLimit": 70000,
            "gasPrice": "37",
            "gasUsed": 51688,
            "intTxnCount": 0,
            "internalRevert": false,
            "internalRevertMessage": "",
            "isContractCreation": false,
            "isFlashloan": false,
            "maxFee": "",
            "nonce": 290,
            "overwritedBlockNumber": -1,
            "priorityFee": "",
            "receiver": "0xdac17f958d2ee523a2206206994597c13d831ec7",
            "revertMessage": "",
            "sender": "0x891fff2732f8f1d7a1b68398578c864f46467336",
            "simulationEnable": true,
            "sourceTxnHash": "0x531b8d127c66c18bb37c374f14769dcaffa6a661ee014f96e5f4e3fd3cbeb57c",
            "status": true,
            "timestamp": "2024-04-04T15:46:23Z",
            "transactionFee": "0.001912456",
            "txnHash": "0x531b8d127c66c18bb37c374f14769dcaffa6a661ee014f96e5f4e3fd3cbeb57c",
            "txnIndex": 77,
            "type": 0,
            "value": "0"
        },
        "fund_flow": [
            {
                "amount": "104",
                "from": "0xb7e4fc46c6bc3e7b3a9a612181fade67dc93e5a5",
                "id": 1,
                "isERC1155": false,
                "isERC721": false,
                "isReverted": false,
                "order": 1,
                "to": "0x3acdead11d850e647929b89dde5068204ab1f0c9",
                "token": "0xdac17f958d2ee523a2206206994597c13d831ec7"
            }
        ],
        "token_infos": [
            {
                "address": "0xeeeeeeeeeeeeeeeeeeeeeeeeeeeeeeeeeeeeeeee",
                "decimals": 18
            },
            {
                "address": "0xc02aaa39b223fe8d0a0e5c4f27ead9083c756cc2",
                "decimals": 18
            },
            {
                "address": "0xdac17f958d2ee523a2206206994597c13d831ec7",
                "decimals": 6
            }
        ]
    },
    "address_label": {
        "labels": [
            {
                "address": "0x0000000000000000000000000000000000000004",
                "label": "Precompiled"
            },
            {
                "address": "0xeeeeeeeeeeeeeeeeeeeeeeeeeeeeeeeeeeeeeeee",
                "label": "Ether"
            },
            {
                "address": "0xdac17f958d2ee523a2206206994597c13d831ec7",
                "label": "Tether: USDT Stablecoin"
            },
            {
                "address": "0x0000000000000000000000000000000000000001",
                "label": "Precompiled"
            },
            {
                "address": "0x0000000000000000000000000000000000000002",
                "label": "Precompiled"
            },
            {
                "address": "0x0000000000000000000000000000000000000003",
                "label": "Precompiled"
            }
        ]
    },
    "trace": {
        "accountLabels": null,
        "dataMap": {
            "-1": {
                "invocation": {
                    "address": "0x891fff2732f8f1d7a1b68398578c864f46467336",
                    "callData": "",
                    "decodedMethod": null,
                    "errorInfo": "",
                    "fromAddress": "",
                    "gasUsed": 0,
                    "id": -1,
                    "methodDecoded": false,
                    "operation": "",
                    "output": "",
                    "revert": false,
                    "revertMessage": "",
                    "selector": "",
                    "status": false,
                    "value": ""
                },
                "nodeType": 0
            },
            "0": {
                "invocation": {
                    "address": "0xdac17f958d2ee523a2206206994597c13d831ec7",
                    "callData": "0x000000000000000000000000b7e4fc46c6bc3e7b3a9a612181fade67dc93e5a50000000000000000000000003acdead11d850e647929b89dde5068204ab1f0c9000000000000000000000000000000000000000000000000000000000632ea00",
                    "decodedMethod": {
                        "callParams": [
                            {
                                "name": "_from",
                                "type": "address",
                                "value": "0xb7e4fc46c6bc3e7b3a9a612181fade67dc93e5a5"
                            },
                            {
                                "name": "_to",
                                "type": "address",
                                "value": "0x3acdead11d850e647929b89dde5068204ab1f0c9"
                            },
                            {
                                "decimalAvailable": true,
                                "name": "_value",
                                "type": "uint256",
                                "value": "104,000,000"
                            }
                        ],
                        "constructorArguments": "",
                        "name": "transferFrom",
                        "returnParams": [],
                        "signature": "transferFrom(address,address,uint256)"
                    },
                    "errorInfo": "",
                    "fromAddress": "0x891fff2732f8f1d7a1b68398578c864f46467336",
                    "gasUsed": 51688,
                    "id": 0,
                    "methodDecoded": true,
                    "operation": "CALL",
                    "output": "",
                    "revert": false,
                    "revertMessage": "",
                    "selector": "0x23b872dd",
                    "status": true,
                    "value": "0"
                },
                "nodeType": 0
            },
            "1": {
                "event": {
                    "contract": "0xdac17f958d2ee523a2206206994597c13d831ec7",
                    "decodedLog": {
                        "name": "Transfer",
                        "params": [
                            {
                                "name": "from",
                                "type": "address",
                                "value": "0xb7e4fc46c6bc3e7b3a9a612181fade67dc93e5a5"
                            },
                            {
                                "name": "to",
                                "type": "address",
                                "value": "0x3acdead11d850e647929b89dde5068204ab1f0c9"
                            },
                            {
                                "decimalAvailable": true,
                                "name": "value",
                                "type": "uint256",
                                "value": "104,000,000"
                            }
                        ],
                        "signature": "Transfer(address,address,uint256)"
                    },
                    "id": 1,
                    "logData": "0x000000000000000000000000000000000000000000000000000000000632ea00",
                    "logDecoded": true,
                    "operation": "EVENT",
                    "revert": false,
                    "status": true,
                    "topics": [
                        "0xddf252ad1be2c89b69c2b068fc378daa952ba7f163c4a11628f55a4df523b3ef",
                        "0x000000000000000000000000b7e4fc46c6bc3e7b3a9a612181fade67dc93e5a5",
                        "0x0000000000000000000000003acdead11d850e647929b89dde5068204ab1f0c9"
                    ]
                },
                "nodeType": 1
            }
        },
        "gasFlame": [
            {
                "children": [
                    {
                        "children": [
                            {
                                "children": [],
                                "depth": 0,
                                "name": "Initial Gas",
                                "value": 21964
                            },
                            {
                                "children": [],
                                "depth": 0,
                                "name": "Executed Gas",
                                "value": 29724
                            }
                        ],
                        "depth": -1,
                        "name": "Actual Gas Used",
                        "value": 51688
                    },
                    {
                        "children": [],
                        "depth": -1,
                        "name": "Refunded Gas",
                        "value": 0
                    }
                ],
                "depth": -2,
                "name": "Total Gas",
                "value": 51688
            }
        ],
        "isConfirmed": true,
        "mainTrace": [
            {
                "children": [
                    {
                        "children": [
                            {
                                "children": [],
                                "depth": 1,
                                "id": 1,
                                "order": 1
                            }
                        ],
                        "depth": 0,
                        "id": 0,
                        "order": 0
                    }
                ],
                "depth": -1,
                "id": -1,
                "order": -1
            }
        ],
        "mainTraceNodeCount": 2,
        "parentIdMap": {
            "0": -1,
            "1": 0
        },
        "tidyTrace": [
            {
                "children": [
                    {
                        "children": [
                            {
                                "children": [],
                                "depth": 1,
                                "id": 1,
                                "order": 1
                            }
                        ],
                        "depth": 0,
                        "id": 0,
                        "order": 0
                    }
                ],
                "depth": -1,
                "id": -1,
                "order": -1
            }
        ],
        "tidyTraceNodeCount": 2
    },
    "state_change": {
        "stateChanges": [
            {
                "address": "0xdac17f958d2ee523a2206206994597c13d831ec7",
                "erc": "ERC-20",
                "slots": [
                    {
                        "current": "0x0ef772882872ff15bc06ca96caceb6d09a63e2d4affffffffffffffff9cd15ff",
                        "key": "0x8e47466d15cb9f961a8d08e2810e0b189829e1f0d4cc1bcffd0b33292769e569",
                        "prev": "0x0ef772882872ff15bc06ca96caceb6d09a63e2d4afffffffffffffffffffffff"
                    },
                    {
                        "current": "0x0000000000000000000000000000000000000000000000000000000000007a1c",
                        "key": "0x759b2cb951c8ccd478d1fcdc30b491ae57b8b75c75e5667bc7ac01a06555e110",
                        "prev": "0x000000000000000000000000000000000000000000000000000000000633641c"
                    },
                    {
                        "current": "0x000000000000000000000000000000000000000000000000000000000b739c0f",
                        "key": "0x11d56768acb71cddfd1996dca85a710512b75bc0e4aa638d5a7d64794e22d9b7",
                        "prev": "0x000000000000000000000000000000000000000000000000000000000540b20f"
                    }
                ],
                "storageVariables": [
                    {
                        "name": "allowed",
                        "type": "mapping(address => mapping(address => uint256))",
                        "value": {
                            "pairs": [
                                {
                                    "key": "0xb7e4fc46c6bc3e7b3a9a612181fade67dc93e5a5",
                                    "value": {
                                        "pairs": [
                                            {
                                                "key": "0x891fff2732f8f1d7a1b68398578c864f46467336",
                                                "value": {
                                                    "current": "6769581575062069675649153758295328883829509174881144267996917799717891282431",
                                                    "prev": "6769581575062069675649153758295328883829509174881144267996917799717995282431",
                                                    "typeTag": 1
                                                }
                                            }
                                        ],
                                        "typeTag": 4
                                    }
                                }
                            ],
                            "typeTag": 4
                        }
                    },
                    {
                        "name": "balances",
                        "type": "mapping(address => uint256)",
                        "value": {
                            "pairs": [
                                {
                                    "key": "0x3acdead11d850e647929b89dde5068204ab1f0c9",
                                    "value": {
                                        "current": "192125967",
                                        "prev": "88125967",
                                        "typeTag": 1
                                    }
                                },
                                {
                                    "key": "0xb7e4fc46c6bc3e7b3a9a612181fade67dc93e5a5",
                                    "value": {
                                        "current": "31260",
                                        "prev": "104031260",
                                        "typeTag": 1
                                    }
                                }
                            ],
                            "typeTag": 4
                        }
                    }
                ]
            }
        ]
    }
}