{
    "balance_change": {
        "balanceChanges": [
            {
                "account": "0x5195427ca88df768c298721da791b93ad11eca65",
                "assets": [
                    {
                        "address": "0x8e870d67f660d95d5be530380d0ec0bd388289e1",
                        "amount": "576,922.31",
                        "iconUrl": "https://assets.blocksec.com/icon/df4a16322c8ca2faeeb21a6d029f24de2efeb58e57edadd9ecbfa6a35afa986d.png",
                        "isERC1155": false,
                        "isERC721": false,
                        "sign": true,
                        "value": ""
                    }
                ]
            },
            {
                "account": "0x0000000000000000000000000000000000000000",
                "assets": [
                    {
                        "address": "0x8e870d67f660d95d5be530380d0ec0bd388289e1",
                        "amount": "576,922.31",
                        "iconUrl": "https://assets.blocksec.com/icon/df4a16322c8ca2faeeb21a6d029f24de2efeb58e57edadd9ecbfa6a35afa986d.png",
                        "isERC1155": false,
                        "isERC721": false,
                        "sign": false,
                        "value": ""
                    }
                ]
            }
        ]
    },
    "profile": {
        "basic_info": {
            "baseFee": "",
            "blockNumber": 8915183,
            "callData": "0xb921e163000000000000000000000000000000000000000000007a2b056657994e870000",
            "debugEnable": true,
            "errorInfo": "",
            "eventCount": 2,
            "feeRecipient": "0x04668ec2f57cc15c381b461b9fedab5d451c8f7f",
            "formatValue": "0",
            "gasLimit": 100000,
            "gasPrice": "20",
            "gasUsed": 39485,
            "intTxnCount": 1,
            "internalRevert": false,
            "internalRevertMessage": "",
            "isContractCreation": false,
            "isFlashloan": false,
            "maxFee": "",
            "nonce": 13939,
            "overwritedBlockNumber": -1,
            "priorityFee": "",
            "receiver": "0x8e870d67f660d95d5be530380d0ec0bd388289e1",
            "revertMessage": "",
            "sender": "0x5195427ca88df768c298721da791b93ad11eca65",
            "simulationEnable": true,
            "sourceTxnHash": "0x5368dd427db9a06a3bbde7e0c40353b3ce4ca23102841926b1d492ea70cf80a2",
            "status": true,
            "timestamp": "2019-11-11T15:30:23Z",
            "transactionFee": "0.0007897",
            "txnHash": "0x5368dd427db9a06a3bbde7e0c40353b3ce4ca23102841926b1d492ea70cf80a2",
            "txnIndex": 12,
            "type": 0,
            "value": "0"
        },
        "fund_flow": [
            {
                "amount": "576,922.31",
                "from": "0x0000000000000000000000000000000000000000",
                "id": 1,
                "isERC1155": false,
                "isERC721": false,
                "isReverted": false,
                "order": 1,
                "to": "0x5195427ca88df768c298721da791b93ad11eca65",
                "token": "0x8e870d67f660d95d5be530380d0ec0bd388289e1"
            }
        ],
        "token_infos": [
            {
                "address": "0x8e870d67f660d95d5be530380d0ec0bd388289e1",
                "decimals": 18
            },
            {
                "address": "0xc02aaa39b223fe8d0a0e5c4f27ead9083c756cc2",
                "decimals": 18
            },
            {
                "address": "0xeeeeeeeeeeeeeeeeeeeeeeeeeeeeeeeeeeeeeeee",
                "decimals": 18
            }
        ]
    },
    "address_label": {
        "labels": [
            {
                "address": "0x0000000000000000000000000000000000000004",
                "label": "Precompiled"
            },
            {
                "address": "0xeeeeeeeeeeeeeeeeeeeeeeeeeeeeeeeeeeeeeeee",
                "label": "Ether"
            },
            {
                "address": "0x6ffcb0f00c3ad2575e443152d8861aec1bda9ce6",
                "label": "Paxos: Implementation"
            },
            {
                "address": "0x8e870d67f660d95d5be530380d0ec0bd388289e1",
                "label": "Paxos: USDP Token"
            },
            {
                "address": "0x0000000000000000000000000000000000000001",
                "label": "Precompiled"
            },
            {
                "address": "0x0000000000000000000000000000000000000002",
                "label": "Precompiled"
            },
            {
                "address": "0x0000000000000000000000000000000000000003",
                "label": "Precompiled"
            }
        ]
    },
    "trace": {
        "accountLabels": null,
        "dataMap": {
            "-1": {
                "invocation": {
                    "address": "0x5195427ca88df768c298721da791b93ad11eca65",
                    "callData": "",
                    "decodedMethod": null,
                    "errorInfo": "",
                    "fromAddress": "",
                    "gasUsed": 0,
                    "id": -1,
                    "methodDecoded": false,
                    "operation": "",
                    "output": "",
                    "revert": false,
                    "revertMessage": "",
                    "selector": "",
                    "status": false,
                    "value": ""
                },
                "nodeType": 0
            },
            "0": {
                "invocation": {
                    "address": "0x8e870d67f660d95d5be530380d0ec0bd388289e1",
                    "callData": "0x000000000000000000000000000000000000000000007a2b056657994e870000",
                    "decodedMethod": {
                        "callParams": [
                            {
                                "name": "_value",
                                "type": "uint256",
                                "value": "576,922,310,000,000,000,000,000"
                            }
                        ],
                        "constructorArguments": "",
                        "name": "increaseSupply",
                        "returnParams": [
                            {
                                "name": "success",
                                "type": "bool",
                                "value": true
                            }
                        ],
                        "signature": "increaseSupply(uint256)"
                    },
                    "errorInfo": "",
                    "fromAddress": "0x5195427ca88df768c298721da791b93ad11eca65",
                    "gasUsed": 39485,
                    "id": 0,
                    "methodDecoded": true,
                    "operation": "CALL",
                    "output": "0x0000000000000000000000000000000000000000000000000000000000000001",
                    "revert": false,
                    "revertMessage": "",
                    "selector": "0xb921e163",
                    "status": true,
                    "value": "0"
                },
                "nodeType": 0
            },
            "1": {
                "invocation": {
                    "address": "0x6ffcb0f00c3ad2575e443152d8861aec1bda9ce6",
                    "callData": "0x000000000000000000000000000000000000000000007a2b056657994e870000",
                    "decodedMethod": {
                        "callParams": [
                            {
                                "name": "_value",
                                "type": "uint256",
                                "value": "576,922,310,000,000,000,000,000"
                            }
                        ],
                        "constructorArguments": "",
                        "name": "increaseSupply",
                        "returnParams": [
                            {
                                "name": "success",
                                "type": "bool",
                                "value": true
                            }
                        ],
                        "signature": "increaseSupply(uint256)"
                    },
                    "errorInfo": "",
                    "fromAddress": "0x8e870d67f660d95d5be530380d0ec0bd388289e1",
                    "gasUsed": 15994,
                    "id": 1,
                    "methodDecoded": true,
                    "operation": "DELEGATECALL",
                    "output": "0x0000000000000000000000000000000000000000000000000000000000000001",
                    "revert": false,
                    "revertMessage": "",
                    "selector": "0xb921e163",
                    "status": true,
                    "value": "0"
                },
                "nodeType": 0
            },
            "2": {
                "event": {
                    "contract": "0x8e870d67f660d95d5be530380d0ec0bd388289e1",
                    "decodedLog": {
                        "name": "SupplyIncreased",
                        "params": [
                            {
                                "name": "to",
                                "type": "address",
                                "value": "0x5195427ca88df768c298721da791b93ad11eca65"
                            },
                            {
                                "name": "value",
                                "type": "uint256",
                                "value": "576,922,310,000,000,000,000,000"
                            }
                        ],
                        "signature": "SupplyIncreased(address,uint256)"
                    },
                    "id": 2,
                    "logData": "0x000000000000000000000000000000000000000000007a2b056657994e870000",
                    "logDecoded": true,
                    "operation": "EVENT",
                    "revert": false,
                    "status": true,
                    "topics": [
                        "0xf5c174d57843e57fea3c649fdde37f015ef08750759cbee88060390566a98797",
                        "0x0000000000000000000000005195427ca88df768c298721da791b93ad11eca65"
                    ]
                },
                "nodeType": 1
            },
            "3": {
                "event": {
                    "contract": "0x8e870d67f660d95d5be530380d0ec0bd388289e1",
                    "decodedLog": {
                        "name": "Transfer",
                        "params": [
                            {
                                "name": "from",
                                "type": "address",
                                "value": "0x0000000000000000000000000000000000000000"
                            },
                            {
                                "name": "to",
                                "type": "address",
                                "value": "0x5195427ca88df768c298721da791b93ad11eca65"
                            },
                            {
                                "decimalAvailable": true,
                                "name": "value",
                                "type": "uint256",
                                "value": "576,922,310,000,000,000,000,000"
                            }
                        ],
                        "signature": "Transfer(address,address,uint256)"
                    },
                    "id": 3,
                    "logData": "0x000000000000000000000000000000000000000000007a2b056657994e870000",
                    "logDecoded": true,
                    "operation": "EVENT",
                    "revert": false,
                    "status": true,
                    "topics": [
                        "0xddf252ad1be2c89b69c2b068fc378daa952ba7f163c4a11628f55a4df523b3ef",
                        "0x0000000000000000000000000000000000000000000000000000000000000000",
                        "0x0000000000000000000000005195427ca88df768c298721da791b93ad11eca65"
                    ]
                },
                "nodeType": 1
            }
        },
        "gasFlame": [
            {
                "children": [
                    {
                        "children": [
                            {
                                "children": [],
                                "depth": 0,
                                "name": "Initial Gas",
                                "value": 21912
                            },
                            {
                                "children": [
                                    {
                                        "children": [],
                                        "depth": 1,
                                        "name": "increaseSupply",
                                        "value": 15994
                                    }
                                ],
                                "depth": 0,
                                "name": "Executed Gas",
                                "value": 17573
                            }
                        ],
                        "depth": -1,
                        "name": "Actual Gas Used",
                        "value": 39485
                    },
                    {
                        "children": [],
                        "depth": -1,
                        "name": "Refunded Gas",
                        "value": 0
                    }
                ],
                "depth": -2,
                "name": "Total Gas",
                "value": 39485
            }
        ],
        "isConfirmed": true,
        "mainTrace": [
            {
                "children": [
                    {
                        "children": [
                            {
                                "children": [
                                    {
                                        "children": [],
                                        "depth": 2,
                                        "id": 2,
                                        "order": 2
                                    },
                                    {
                                        "children": [],
                                        "depth": 2,
                                        "id": 3,
                                        "order": 3
                                    }
                                ],
                                "depth": 1,
                                "id": 1,
                                "order": 1
                            }
                        ],
                        "depth": 0,
                        "id": 0,
                        "order": 0
                    }
                ],
                "depth": -1,
                "id": -1,
                "order": -1
            }
        ],
        "mainTraceNodeCount": 4,
        "parentIdMap": {
            "0": -1,
            "1": 0,
            "2": 1,
            "3": 1
        },
        "tidyTrace": [
            {
                "children": [
                    {
                        "children": [
                            {
                                "children": [
                                    {
                                        "children": [],
                                        "depth": 2,
                                        "id": 2,
                                        "order": 2
                                    },
                                    {
                                        "children": [],
                                        "depth": 2,
                                        "id": 3,
                                        "order": 3
                                    }
                                ],
                                "depth": 1,
                                "id": 1,
                                "order": 1
                            }
                        ],
                        "depth": 0,
                        "id": 0,
                        "order": 0
                    }
                ],
                "depth": -1,
                "id": -1,
                "order": -1
            }
        ],
        "tidyTraceNodeCount": 4
    },
    "state_change": {
        "stateChanges": [
            {
                "address": "0x8e870d67f660d95d5be530380d0ec0bd388289e1",
                "erc": "ERC-20",
                "slots": [
                    {
                        "current": "0x000000000000000000000000000000000000000000bfe91f393b804475330000",
                        "key": "0x0000000000000000000000000000000000000000000000000000000000000002",
                        "prev": "0x000000000000000000000000000000000000000000bf6ef433d528ab26ac0000"
                    },
                    {
                        "current": "0x000000000000000000000000000000000000000000011254639e915dca964753",
                        "key": "0xd6a2f47330e691c4ec4ed012c927655a7753bde6244b40beb11ac5aa8818ee13",
                        "prev": "0x0000000000000000000000000000000000000000000098295e3839c47c0f4753"
                    }
                ],
                "storageVariables": [
                    {
                        "name": "totalSupply_",
                        "type": "uint256",
                        "value": {
                            "current": "232005718910000000000000000",
                            "prev": "231428796600000000000000000",
                            "typeTag": 1
                        }
                    },
                    {
                        "name": "balances",
                        "type": "mapping(address => uint256)",
                        "value": {
                            "pairs": [
                                {
                                    "key": "0x5195427ca88df768c298721da791b93ad11eca65",
                                    "value": {
                                        "current": "1295485121143162482870099",
                                        "prev": "718562811143162482870099",
                                        "typeTag": 1
                                    }
                                }
                            ],
                            "typeTag": 4
                        }
                    }
                ]
            }
        ]
    }
}