{
    "balance_change": {
        "balanceChanges": [
            {
                "account": "0x670ea8f7348594b9fb0f10685ec77a3745467de5",
                "assets": [
                    {
                        "address": "0x4d3814d4da8083b41861dec2f45b4840e8b72d68",
                        "amount": "100,661",
                        "iconUrl": "",
                        "isERC1155": false,
                        "isERC721": false,
                        "sign": false,
                        "value": ""
                    }
                ]
            },
            {
                "account": "0xc8a974a97f6a7f57b6ce09aed5905d5547039f11",
                "assets": [
                    {
                        "address": "0x4d3814d4da8083b41861dec2f45b4840e8b72d68",
                        "amount": "100,661",
                        "iconUrl": "",
                        "isERC1155": false,
                        "isERC721": false,
                        "sign": true,
                        "value": ""
                    }
                ]
            }
        ]
    },
    "profile": {
        "basic_info": {
            "baseFee": "",
            "blockNumber": 8143061,
            "callData": "0x7396a23c000000000000000000000000000000000000000000000000000000000000006000000000000000000000000000000000000000000000000000000000000000a000000000000000000000000000000000000000000000000000000000000000e000000000000000000000000000000000000000000000000000000000000000010000000000000000000000004d3814d4da8083b41861dec2f45b4840e8b72d680000000000000000000000000000000000000000000000000000000000000001000000000000000000000000c8a974a97f6a7f57b6ce09aed5905d5547039f1100000000000000000000000000000000000000000000000000000000000000010000000000000000000000000000000000000000000000000000000000018935",
            "debugEnable": true,
            "errorInfo": "",
            "eventCount": 1,
            "feeRecipient": "0x09ab1303d3ccaf5f018cd511146b07a240c70294",
            "formatValue": "0",
            "gasLimit": 157394,
            "gasPrice": "4",
            "gasUsed": 110573,
            "intTxnCount": 2,
            "internalRevert": false,
            "internalRevertMessage": "",
            "isContractCreation": false,
            "isFlashloan": false,
            "maxFee": "",
            "nonce": 20601,
            "overwritedBlockNumber": -1,
            "priorityFee": "",
            "receiver": "0x670ea8f7348594b9fb0f10685ec77a3745467de5",
            "revertMessage": "",
            "sender": "0xf37c7e281c6bb8507467a0acf1f1a5f095bb5151",
            "simulationEnable": true,
            "sourceTxnHash": "0x53a204d1340c02381d6c4db44e924102dd19835cce108c7206ec5c6ddc88260c",
            "status": true,
            "timestamp": "2019-07-13T13:55:07Z",
            "transactionFee": "0.000442292",
            "txnHash": "0x53a204d1340c02381d6c4db44e924102dd19835cce108c7206ec5c6ddc88260c",
            "txnIndex": 78,
            "type": 0,
            "value": "0"
        },
        "fund_flow": [
            {
                "amount": "100,661",
                "from": "0x670ea8f7348594b9fb0f10685ec77a3745467de5",
                "id": 1,
                "isERC1155": false,
                "isERC721": false,
                "isReverted": false,
                "order": 1,
                "to": "0xc8a974a97f6a7f57b6ce09aed5905d5547039f11",
                "token": "0x4d3814d4da8083b41861dec2f45b4840e8b72d68"
            }
        ],
        "token_infos": [
            {
                "address": "0x4d3814d4da8083b41861dec2f45b4840e8b72d68",
                "decimals": -1
            },
            {
                "address": "0xc02aaa39b223fe8d0a0e5c4f27ead9083c756cc2",
                "decimals": 18
            },
            {
                "address": "0xeeeeeeeeeeeeeeeeeeeeeeeeeeeeeeeeeeeeeeee",
                "decimals": 18
            }
        ]
    },
    "address_label": {
        "labels": [
            {
                "address": "0x0000000000000000000000000000000000000003",
                "label": "Precompiled"
            },
            {
                "address": "0x0000000000000000000000000000000000000004",
                "label": "Precompiled"
            },
            {
                "address": "0xeeeeeeeeeeeeeeeeeeeeeeeeeeeeeeeeeeeeeeee",
                "label": "Ether"
            },
            {
                "address": "0x4d3814d4da8083b41861dec2f45b4840e8b72d68",
                "label": "CryptoSpaceCommanders: CSCNFT Token"
            },
            {
                "address": "0x0000000000000000000000000000000000000001",
                "label": "Precompiled"
            },
            {
                "address": "0x0000000000000000000000000000000000000002",
                "label": "Precompiled"
            }
        ]
    },
    "trace": {
        "accountLabels": null,
        "dataMap": {
            "-1": {
                "invocation": {
                    "address": "0xf37c7e281c6bb8507467a0acf1f1a5f095bb5151",
                    "callData": "",
                    "decodedMethod": null,
                    "errorInfo": "",
                    "fromAddress": "",
                    "gasUsed": 0,
                    "id": -1,
                    "methodDecoded": false,
                    "operation": "",
                    "output": "",
                    "revert": false,
                    "revertMessage": "",
                    "selector": "",
                    "status": false,
                    "value": ""
                },
                "nodeType": 0
            },
            "0": {
                "invocation": {
                    "address": "0x670ea8f7348594b9fb0f10685ec77a3745467de5",
                    "callData": "0x000000000000000000000000000000000000000000000000000000000000006000000000000000000000000000000000000000000000000000000000000000a000000000000000000000000000000000000000000000000000000000000000e000000000000000000000000000000000000000000000000000000000000000010000000000000000000000004d3814d4da8083b41861dec2f45b4840e8b72d680000000000000000000000000000000000000000000000000000000000000001000000000000000000000000c8a974a97f6a7f57b6ce09aed5905d5547039f1100000000000000000000000000000000000000000000000000000000000000010000000000000000000000000000000000000000000000000000000000018935",
                    "decodedMethod": null,
                    "errorInfo": "",
                    "fromAddress": "0xf37c7e281c6bb8507467a0acf1f1a5f095bb5151",
                    "gasUsed": 110573,
                    "id": 0,
                    "methodDecoded": false,
                    "operation": "CALL",
                    "output": "",
                    "revert": false,
                    "revertMessage": "",
                    "selector": "0x7396a23c",
                    "status": true,
                    "value": "0"
                },
                "nodeType": 0
            },
            "1": {
                "invocation": {
                    "address": "0x4d3814d4da8083b41861dec2f45b4840e8b72d68",
                    "callData": "0x0000000000000000000000000000000000000000000000000000000000018935",
                    "decodedMethod": {
                        "callParams": [
                            {
                                "name": "_tokenId",
                                "type": "uint256",
                                "value": "100,661"
                            }
                        ],
                        "constructorArguments": "",
                        "name": "ownerOf",
                        "returnParams": [
                            {
                                "name": "",
                                "type": "address",
                                "value": "0x670ea8f7348594b9fb0f10685ec77a3745467de5"
                            }
                        ],
                        "signature": "ownerOf(uint256)"
                    },
                    "errorInfo": "",
                    "fromAddress": "0x670ea8f7348594b9fb0f10685ec77a3745467de5",
                    "gasUsed": 1324,
                    "id": 1,
                    "methodDecoded": true,
                    "operation": "STATICCALL",
                    "output": "0x000000000000000000000000670ea8f7348594b9fb0f10685ec77a3745467de5",
                    "revert": false,
                    "revertMessage": "",
                    "selector": "0x6352211e",
                    "status": true,
                    "value": "0"
                },
                "nodeType": 0
            },
            "2": {
                "invocation": {
                    "address": "0x4d3814d4da8083b41861dec2f45b4840e8b72d68",
                    "callData": "0x000000000000000000000000670ea8f7348594b9fb0f10685ec77a3745467de5000000000000000000000000c8a974a97f6a7f57b6ce09aed5905d5547039f110000000000000000000000000000000000000000000000000000000000018935",
                    "decodedMethod": {
                        "callParams": [
                            {
                                "name": "_from",
                                "type": "address",
                                "value": "0x670ea8f7348594b9fb0f10685ec77a3745467de5"
                            },
                            {
                                "name": "_to",
                                "type": "address",
                                "value": "0xc8a974a97f6a7f57b6ce09aed5905d5547039f11"
                            },
                            {
                                "decimalAvailable": true,
                                "name": "_tokenId",
                                "type": "uint256",
                                "value": "100,661"
                            }
                        ],
                        "constructorArguments": "",
                        "name": "transferFrom",
                        "returnParams": [],
                        "signature": "transferFrom(address,address,uint256)"
                    },
                    "errorInfo": "",
                    "fromAddress": "0x670ea8f7348594b9fb0f10685ec77a3745467de5",
                    "gasUsed": 121824,
                    "id": 2,
                    "methodDecoded": true,
                    "operation": "CALL",
                    "output": "",
                    "revert": false,
                    "revertMessage": "",
                    "selector": "0x23b872dd",
                    "status": true,
                    "value": "0"
                },
                "nodeType": 0
            },
            "3": {
                "event": {
                    "contract": "0x4d3814d4da8083b41861dec2f45b4840e8b72d68",
                    "decodedLog": {
                        "name": "Transfer",
                        "params": [
                            {
                                "name": "_from",
                                "type": "address",
                                "value": "0x670ea8f7348594b9fb0f10685ec77a3745467de5"
                            },
                            {
                                "name": "_to",
                                "type": "address",
                                "value": "0xc8a974a97f6a7f57b6ce09aed5905d5547039f11"
                            },
                            {
                                "decimalAvailable": true,
                                "name": "_tokenId",
                                "type": "uint256",
                                "value": "100,661"
                            }
                        ],
                        "signature": "Transfer(address,address,uint256)"
                    },
                    "id": 3,
                    "logData": "0x0000000000000000000000000000000000000000000000000000000000018935",
                    "logDecoded": true,
                    "operation": "EVENT",
                    "revert": false,
                    "status": true,
                    "topics": [
                        "0xddf252ad1be2c89b69c2b068fc378daa952ba7f163c4a11628f55a4df523b3ef",
                        "0x000000000000000000000000670ea8f7348594b9fb0f10685ec77a3745467de5",
                        "0x000000000000000000000000c8a974a97f6a7f57b6ce09aed5905d5547039f11"
                    ]
                },
                "nodeType": 1
            }
        },
        "gasFlame": [
            {
                "children": [
                    {
                        "children": [
                            {
                                "children": [],
                                "depth": 0,
                                "name": "Initial Gas",
                                "value": 25560
                            },
                            {
                                "children": [
                                    {
                                        "children": [],
                                        "depth": 1,
                                        "name": "ownerOf",
                                        "value": 1324
                                    },
                                    {
                                        "children": [],
                                        "depth": 1,
                                        "name": "transferFrom",
                                        "value": 121824
                                    }
                                ],
                                "depth": 0,
                                "name": "Executed Gas",
                                "value": 130013
                            }
                        ],
                        "depth": -1,
                        "name": "Actual Gas Used",
                        "value": 110573
                    },
                    {
                        "children": [],
                        "depth": -1,
                        "name": "Refunded Gas",
                        "value": 45000
                    }
                ],
                "depth": -2,
                "name": "Total Gas",
                "value": 155573
            }
        ],
        "isConfirmed": true,
        "mainTrace": [
            {
                "children": [
                    {
                        "children": [
                            {
                                "children": [],
                                "depth": 1,
                                "id": 1,
                                "order": 1
                            },
                            {
                                "children": [
                                    {
                                        "children": [],
                                        "depth": 2,
                                        "id": 3,
                                        "order": 3
                                    }
                                ],
                                "depth": 1,
                                "id": 2,
                                "order": 2
                            }
                        ],
                        "depth": 0,
                        "id": 0,
                        "order": 0
                    }
                ],
                "depth": -1,
                "id": -1,
                "order": -1
            }
        ],
        "mainTraceNodeCount": 4,
        "parentIdMap": {
            "0": -1,
            "1": 0,
            "2": 0,
            "3": 2
        },
        "tidyTrace": [
            {
                "children": [
                    {
                        "children": [
                            {
                                "children": [
                                    {
                                        "children": [],
                                        "depth": 2,
                                        "id": 3,
                                        "order": 3
                                    }
                                ],
                                "depth": 1,
                                "id": 2,
                                "order": 2
                            }
                        ],
                        "depth": 0,
                        "id": 0,
                        "order": 0
                    }
                ],
                "depth": -1,
                "id": -1,
                "order": -1
            }
        ],
        "tidyTraceNodeCount": 3
    },
    "state_change": {
        "stateChanges": [
            {
                "address": "0x4d3814d4da8083b41861dec2f45b4840e8b72d68",
                "erc": "ERC-721",
                "slots": [
                    {
                        "current": "0x000000000000000000000000000000000000000000000000000000000000823b",
                        "key": "0xff6db28b9f8169a568c47cc2958280b8a5ea505253bbc74d3e5be4074aa94109",
                        "prev": "0x000000000000000000000000000000000000000000000000000000000000823c"
                    },
                    {
                        "current": "0x000000000000000000000000c8a974a97f6a7f57b6ce09aed5905d5547039f11",
                        "key": "0xe3477e9e9f90ed3432b612ae0caa9ddc9773ed36978da31c165a28ce1fbcecba",
                        "prev": "0x000000000000000000000000670ea8f7348594b9fb0f10685ec77a3745467de5"
                    },
                    {
                        "current": "0x0000000000000000000000000000000000000000000000000000000000000000",
                        "key": "0xbe389c7054a47b0dbee9b1dd94a671b132562a1b41d1d4f7f26631d9ef7a2b18",
                        "prev": "0x0000000000000000000000000000000000000000000000000000000000018935"
                    },
                    {
                        "current": "0x000000000000000000000000000000000000000000000000000000000000823b",
                        "key": "0x88a50bb18aff364d0d3df612edf565785cb348dac6070dbf1125fcd6be66e984",
                        "prev": "0x000000000000000000000000000000000000000000000000000000000000823c"
                    },
                    {
                        "current": "0x0000000000000000000000000000000000000000000000000000000000000063",
                        "key": "0x9f43990a5f23961690180421eb57ad1511051c43910f61df155360f8447ef00d",
                        "prev": "0x000000000000000000000000000000000000000000000000000000000000823b"
                    },
                    {
                        "current": "0x0000000000000000000000000000000000000000000000000000000000000064",
                        "key": "0x2d3d6dbfe54545d0c15812181654c94dff8eb15c43804192403e4a490d9518f9",
                        "prev": "0x0000000000000000000000000000000000000000000000000000000000000063"
                    },
                    {
                        "current": "0x0000000000000000000000000000000000000000000000000000000000000064",
                        "key": "0x526926e79918ebf4c800c8a56a19333420b878155d67628fccf3aaf451299ff4",
                        "prev": "0x0000000000000000000000000000000000000000000000000000000000000063"
                    },
                    {
                        "current": "0x0000000000000000000000000000000000000000000000000000000000018935",
                        "key": "0x6c5523574431f6af542cb4596906aa6e6a5f20c7504973d7ec0345c1b4937b2f",
                        "prev": "0x0000000000000000000000000000000000000000000000000000000000000000"
                    }
                ],
                "storageVariables": [
                    {
                        "name": "ownedTokens",
                        "type": "mapping(address => uint256[])",
                        "value": {
                            "pairs": [
                                {
                                    "key": "0xc8a974a97f6a7f57b6ce09aed5905d5547039f11",
                                    "value": {
                                        "elemType": "uint256",
                                        "elems": [
                                            {
                                                "index": 99,
                                                "value": {
                                                    "current": "100661",
                                                    "prev": "0",
                                                    "typeTag": 1
                                                }
                                            }
                                        ],
                                        "typeTag": 2
                                    }
                                }
                            ],
                            "typeTag": 4
                        }
                    },
                    {
                        "name": "ownedTokensCount",
                        "type": "mapping(address => uint256)",
                        "value": {
                            "pairs": [
                                {
                                    "key": "0x670ea8f7348594b9fb0f10685ec77a3745467de5",
                                    "value": {
                                        "current": "33339",
                                        "prev": "33340",
                                        "typeTag": 1
                                    }
                                },
                                {
                                    "key": "0xc8a974a97f6a7f57b6ce09aed5905d5547039f11",
                                    "value": {
                                        "current": "100",
                                        "prev": "99",
                                        "typeTag": 1
                                    }
                                }
                            ],
                            "typeTag": 4
                        }
                    },
                    {
                        "name": "tokenOwner",
                        "type": "mapping(uint256 => address)",
                        "value": {
                            "pairs": [
                                {
                                    "key": "100661",
                                    "value": {
                                        "current": "0xc8a974a97f6a7f57b6ce09aed5905d5547039f11",
                                        "prev": "0x670ea8f7348594b9fb0f10685ec77a3745467de5",
                                        "typeTag": 1
                                    }
                                }
                            ],
                            "typeTag": 4
                        }
                    },
                    {
                        "name": "ownedTokensIndex",
                        "type": "mapping(uint256 => uint256)",
                        "value": {
                            "pairs": [
                                {
                                    "key": "100661",
                                    "value": {
                                        "current": "99",
                                        "prev": "33339",
                                        "typeTag": 1
                                    }
                                }
                            ],
                            "typeTag": 4
                        }
                    }
                ]
            }
        ]
    }
}