{
    "balance_change": {
        "balanceChanges": [
            {
                "account": "0x4162ad6eec341e438eabe85f52a941b078210819",
                "assets": [
                    {
                        "address": "0xe3818504c1b32bf1557b16c238b2e01fd3149c17",
                        "amount": "6,600",
                        "iconUrl": "https://assets.blocksec.com/icon/fd242cac0b62404e26d134e25b68ed4338ddac3874efbff3bed6c5620d98226e.png",
                        "isERC1155": false,
                        "isERC721": false,
                        "sign": false,
                        "value": ""
                    }
                ]
            },
            {
                "account": "0xd22d59780f74139252dc3d04e62c2e2adb5db528",
                "assets": [
                    {
                        "address": "0xe3818504c1b32bf1557b16c238b2e01fd3149c17",
                        "amount": "6,600",
                        "iconUrl": "https://assets.blocksec.com/icon/fd242cac0b62404e26d134e25b68ed4338ddac3874efbff3bed6c5620d98226e.png",
                        "isERC1155": false,
                        "isERC721": false,
                        "sign": true,
                        "value": ""
                    }
                ]
            }
        ]
    },
    "profile": {
        "basic_info": {
            "baseFee": "",
            "blockNumber": 4333297,
            "callData": "0xa9059cbb000000000000000000000000d22d59780f74139252dc3d04e62c2e2adb5db528000000000000000000000000000000000000000000000165c96647b38a200000",
            "debugEnable": true,
            "errorInfo": "",
            "eventCount": 1,
            "feeRecipient": "0xb2930b35844a230f00e51431acae96fe543a0347",
            "formatValue": "0",
            "gasLimit": 52250,
            "gasPrice": "21",
            "gasUsed": 52250,
            "intTxnCount": 0,
            "internalRevert": false,
            "internalRevertMessage": "",
            "isContractCreation": false,
            "isFlashloan": false,
            "maxFee": "",
            "nonce": 53,
            "overwritedBlockNumber": -1,
            "priorityFee": "",
            "receiver": "0xe3818504c1b32bf1557b16c238b2e01fd3149c17",
            "revertMessage": "",
            "sender": "0x4162ad6eec341e438eabe85f52a941b078210819",
            "simulationEnable": true,
            "sourceTxnHash": "0x535e5bf3a180066c1df77f59f110b23cfc2be5584bdcb84b1a6fed482790bfcd",
            "status": true,
            "timestamp": "2017-10-03T13:01:56Z",
            "transactionFee": "0.00109725",
            "txnHash": "0x535e5bf3a180066c1df77f59f110b23cfc2be5584bdcb84b1a6fed482790bfcd",
            "txnIndex": 29,
            "type": 0,
            "value": "0"
        },
        "fund_flow": [
            {
                "amount": "6,600",
                "from": "0x4162ad6eec341e438eabe85f52a941b078210819",
                "id": 1,
                "isERC1155": false,
                "isERC721": false,
                "isReverted": false,
                "order": 1,
                "to": "0xd22d59780f74139252dc3d04e62c2e2adb5db528",
                "token": "0xe3818504c1b32bf1557b16c238b2e01fd3149c17"
            }
        ],
        "token_infos": [
            {
                "address": "0xc02aaa39b223fe8d0a0e5c4f27ead9083c756cc2",
                "decimals": 18
            },
            {
                "address": "0xe3818504c1b32bf1557b16c238b2e01fd3149c17",
                "decimals": 18
            },
            {
                "address": "0xeeeeeeeeeeeeeeeeeeeeeeeeeeeeeeeeeeeeeeee",
                "decimals": 18
            }
        ]
    },
    "address_label": {
        "labels": [
            {
                "address": "0x0000000000000000000000000000000000000003",
                "label": "Precompiled"
            },
            {
                "address": "0x0000000000000000000000000000000000000004",
                "label": "Precompiled"
            },
            {
                "address": "0xeeeeeeeeeeeeeeeeeeeeeeeeeeeeeeeeeeeeeeee",
                "label": "Ether"
            },
            {
                "address": "0xe3818504c1b32bf1557b16c238b2e01fd3149c17",
                "label": "Pillar Project: PLR Token"
            },
            {
                "address": "0x0000000000000000000000000000000000000001",
                "label": "Precompiled"
            },
            {
                "address": "0x0000000000000000000000000000000000000002",
                "label": "Precompiled"
            }
        ]
    },
    "trace": {
        "accountLabels": null,
        "dataMap": {
            "-1": {
                "invocation": {
                    "address": "0x4162ad6eec341e438eabe85f52a941b078210819",
                    "callData": "",
                    "decodedMethod": null,
                    "errorInfo": "",
                    "fromAddress": "",
                    "gasUsed": 0,
                    "id": -1,
                    "methodDecoded": false,
                    "operation": "",
                    "output": "",
                    "revert": false,
                    "revertMessage": "",
                    "selector": "",
                    "status": false,
                    "value": ""
                },
                "nodeType": 0
            },
            "0": {
                "invocation": {
                    "address": "0xe3818504c1b32bf1557b16c238b2e01fd3149c17",
                    "callData": "0x000000000000000000000000d22d59780f74139252dc3d04e62c2e2adb5db528000000000000000000000000000000000000000000000165c96647b38a200000",
                    "decodedMethod": {
                        "callParams": [
                            {
                                "name": "_to",
                                "type": "address",
                                "value": "0xd22d59780f74139252dc3d04e62c2e2adb5db528"
                            },
                            {
                                "decimalAvailable": true,
                                "name": "_value",
                                "type": "uint256",
                                "value": "6,600,000,000,000,000,000,000"
                            }
                        ],
                        "constructorArguments": "",
                        "name": "transfer",
                        "returnParams": [],
                        "signature": "transfer(address,uint256)"
                    },
                    "errorInfo": "",
                    "fromAddress": "0x4162ad6eec341e438eabe85f52a941b078210819",
                    "gasUsed": 52250,
                    "id": 0,
                    "methodDecoded": true,
                    "operation": "CALL",
                    "output": "",
                    "revert": false,
                    "revertMessage": "",
                    "selector": "0xa9059cbb",
                    "status": true,
                    "value": "0"
                },
                "nodeType": 0
            },
            "1": {
                "event": {
                    "contract": "0xe3818504c1b32bf1557b16c238b2e01fd3149c17",
                    "decodedLog": {
                        "name": "Transfer",
                        "params": [
                            {
                                "name": "from",
                                "type": "address",
                                "value": "0x4162ad6eec341e438eabe85f52a941b078210819"
                            },
                            {
                                "name": "to",
                                "type": "address",
                                "value": "0xd22d59780f74139252dc3d04e62c2e2adb5db528"
                            },
                            {
                                "decimalAvailable": true,
                                "name": "value",
                                "type": "uint256",
                                "value": "6,600,000,000,000,000,000,000"
                            }
                        ],
                        "signature": "Transfer(address,address,uint256)"
                    },
                    "id": 1,
                    "logData": "0x000000000000000000000000000000000000000000000165c96647b38a200000",
                    "logDecoded": true,
                    "operation": "EVENT",
                    "revert": false,
                    "status": true,
                    "topics": [
                        "0xddf252ad1be2c89b69c2b068fc378daa952ba7f163c4a11628f55a4df523b3ef",
                        "0x0000000000000000000000004162ad6eec341e438eabe85f52a941b078210819",
                        "0x000000000000000000000000d22d59780f74139252dc3d04e62c2e2adb5db528"
                    ]
                },
                "nodeType": 1
            }
        },
        "gasFlame": [
            {
                "children": [
                    {
                        "children": [
                            {
                                "children": [],
                                "depth": 0,
                                "name": "Initial Gas",
                                "value": 23320
                            },
                            {
                                "children": [],
                                "depth": 0,
                                "name": "Executed Gas",
                                "value": 28930
                            }
                        ],
                        "depth": -1,
                        "name": "Actual Gas Used",
                        "value": 52250
                    },
                    {
                        "children": [],
                        "depth": -1,
                        "name": "Refunded Gas",
                        "value": 0
                    }
                ],
                "depth": -2,
                "name": "Total Gas",
                "value": 52250
            }
        ],
        "isConfirmed": true,
        "mainTrace": [
            {
                "children": [
                    {
                        "children": [
                            {
                                "children": [],
                                "depth": 1,
                                "id": 1,
                                "order": 1
                            }
                        ],
                        "depth": 0,
                        "id": 0,
                        "order": 0
                    }
                ],
                "depth": -1,
                "id": -1,
                "order": -1
            }
        ],
        "mainTraceNodeCount": 2,
        "parentIdMap": {
            "0": -1,
            "1": 0
        },
        "tidyTrace": [
            {
                "children": [
                    {
                        "children": [
                            {
                                "children": [],
                                "depth": 1,
                                "id": 1,
                                "order": 1
                            }
                        ],
                        "depth": 0,
                        "id": 0,
                        "order": 0
                    }
                ],
                "depth": -1,
                "id": -1,
                "order": -1
            }
        ],
        "tidyTraceNodeCount": 2
    },
    "state_change": {
        "stateChanges": [
            {
                "address": "0xe3818504c1b32bf1557b16c238b2e01fd3149c17",
                "erc": "ERC-20",
                "slots": [
                    {
                        "current": "0x0000000000000000000000000000000000000000000226891ef4450387fc0000",
                        "key": "0x62bc07b7c22043f57fedee8b6eba76c5be5d0422a1cb6a5527399c2b5cbef4c0",
                        "prev": "0x0000000000000000000000000000000000000000000227eee85a8cb7121c0000"
                    },
                    {
                        "current": "0x000000000000000000000000000000000000000000000165c96647b38a200000",
                        "key": "0x33e50b746a5cc2ee56303960902bf5016a5c7f1b22f16965f6e5dce124818e5c",
                        "prev": "0x0000000000000000000000000000000000000000000000000000000000000000"
                    }
                ],
                "storageVariables": []
            }
        ]
    }
}