{
    "balance_change": {
        "balanceChanges": [
            {
                "account": "0xa272204a3b65018c3881ece9dc89a27a34d60362",
                "assets": [
                    {
                        "address": "0x0e50e6d6bb434938d8fe670a2d7a14cd128eb50f",
                        "amount": "0.000001",
                        "iconUrl": "",
                        "isERC1155": false,
                        "isERC721": false,
                        "sign": false,
                        "value": ""
                    }
                ]
            },
            {
                "account": "0x2600da3fe0ec87a86fe98db2a04cd8ddea6d8407",
                "assets": [
                    {
                        "address": "0x0e50e6d6bb434938d8fe670a2d7a14cd128eb50f",
                        "amount": "0.000001",
                        "iconUrl": "",
                        "isERC1155": false,
                        "isERC721": false,
                        "sign": true,
                        "value": ""
                    }
                ]
            }
        ]
    },
    "profile": {
        "basic_info": {
            "baseFee": "",
            "blockNumber": 6936873,
            "callData": "0xa9059cbb0000000000000000000000002600da3fe0ec87a86fe98db2a04cd8ddea6d840700000000000000000000000000000000000000000000000000000000000003e8",
            "debugEnable": true,
            "errorInfo": "",
            "eventCount": 1,
            "feeRecipient": "0xea674fdde714fd979de3edf0f56aa9716b898ec8",
            "formatValue": "0",
            "gasLimit": 70000,
            "gasPrice": "20",
            "gasUsed": 52582,
            "intTxnCount": 0,
            "internalRevert": false,
            "internalRevertMessage": "",
            "isContractCreation": false,
            "isFlashloan": false,
            "maxFee": "",
            "nonce": 19681,
            "overwritedBlockNumber": -1,
            "priorityFee": "",
            "receiver": "0x0e50e6d6bb434938d8fe670a2d7a14cd128eb50f",
            "revertMessage": "",
            "sender": "0xa272204a3b65018c3881ece9dc89a27a34d60362",
            "simulationEnable": true,
            "sourceTxnHash": "0x54547b813d736be5912c00db4425dec2a63f2d11ae8bb77df2b6b67dbe0559f8",
            "status": true,
            "timestamp": "2018-12-23T06:29:08Z",
            "transactionFee": "0.00105164",
            "txnHash": "0x54547b813d736be5912c00db4425dec2a63f2d11ae8bb77df2b6b67dbe0559f8",
            "txnIndex": 59,
            "type": 0,
            "value": "0"
        },
        "fund_flow": [
            {
                "amount": "0.000001",
                "from": "0xa272204a3b65018c3881ece9dc89a27a34d60362",
                "id": 1,
                "isERC1155": false,
                "isERC721": false,
                "isReverted": false,
                "order": 1,
                "to": "0x2600da3fe0ec87a86fe98db2a04cd8ddea6d8407",
                "token": "0x0e50e6d6bb434938d8fe670a2d7a14cd128eb50f"
            }
        ],
        "token_infos": [
            {
                "address": "0x0e50e6d6bb434938d8fe670a2d7a14cd128eb50f",
                "decimals": 9
            },
            {
                "address": "0xc02aaa39b223fe8d0a0e5c4f27ead9083c756cc2",
                "decimals": 18
            },
            {
                "address": "0xeeeeeeeeeeeeeeeeeeeeeeeeeeeeeeeeeeeeeeee",
                "decimals": 18
            }
        ]
    },
    "address_label": {
        "labels": [
            {
                "address": "0x0e50e6d6bb434938d8fe670a2d7a14cd128eb50f",
                "label": "SUM TOKEN: SUM Token"
            },
            {
                "address": "0x0000000000000000000000000000000000000001",
                "label": "Precompiled"
            },
            {
                "address": "0x0000000000000000000000000000000000000002",
                "label": "Precompiled"
            },
            {
                "address": "0x0000000000000000000000000000000000000003",
                "label": "Precompiled"
            },
            {
                "address": "0x0000000000000000000000000000000000000004",
                "label": "Precompiled"
            },
            {
                "address": "0xeeeeeeeeeeeeeeeeeeeeeeeeeeeeeeeeeeeeeeee",
                "label": "Ether"
            }
        ]
    },
    "trace": {
        "accountLabels": null,
        "dataMap": {
            "-1": {
                "invocation": {
                    "address": "0xa272204a3b65018c3881ece9dc89a27a34d60362",
                    "callData": "",
                    "decodedMethod": null,
                    "errorInfo": "",
                    "fromAddress": "",
                    "gasUsed": 0,
                    "id": -1,
                    "methodDecoded": false,
                    "operation": "",
                    "output": "",
                    "revert": false,
                    "revertMessage": "",
                    "selector": "",
                    "status": false,
                    "value": ""
                },
                "nodeType": 0
            },
            "0": {
                "invocation": {
                    "address": "0x0e50e6d6bb434938d8fe670a2d7a14cd128eb50f",
                    "callData": "0x0000000000000000000000002600da3fe0ec87a86fe98db2a04cd8ddea6d840700000000000000000000000000000000000000000000000000000000000003e8",
                    "decodedMethod": {
                        "callParams": [
                            {
                                "name": "_to",
                                "type": "address",
                                "value": "0x2600da3fe0ec87a86fe98db2a04cd8ddea6d8407"
                            },
                            {
                                "decimalAvailable": true,
                                "name": "_value",
                                "type": "uint256",
                                "value": "1,000"
                            }
                        ],
                        "constructorArguments": "",
                        "name": "transfer",
                        "returnParams": [
                            {
                                "name": "success",
                                "type": "bool",
                                "value": true
                            }
                        ],
                        "signature": "transfer(address,uint256)"
                    },
                    "errorInfo": "",
                    "fromAddress": "0xa272204a3b65018c3881ece9dc89a27a34d60362",
                    "gasUsed": 52582,
                    "id": 0,
                    "methodDecoded": true,
                    "operation": "CALL",
                    "output": "0x0000000000000000000000000000000000000000000000000000000000000001",
                    "revert": false,
                    "revertMessage": "",
                    "selector": "0xa9059cbb",
                    "status": true,
                    "value": "0"
                },
                "nodeType": 0
            },
            "1": {
                "event": {
                    "contract": "0x0e50e6d6bb434938d8fe670a2d7a14cd128eb50f",
                    "decodedLog": {
                        "name": "Transfer",
                        "params": [
                            {
                                "name": "from",
                                "type": "address",
                                "value": "0xa272204a3b65018c3881ece9dc89a27a34d60362"
                            },
                            {
                                "name": "to",
                                "type": "address",
                                "value": "0x2600da3fe0ec87a86fe98db2a04cd8ddea6d8407"
                            },
                            {
                                "decimalAvailable": true,
                                "name": "value",
                                "type": "uint256",
                                "value": "1,000"
                            }
                        ],
                        "signature": "Transfer(address,address,uint256)"
                    },
                    "id": 1,
                    "logData": "0x00000000000000000000000000000000000000000000000000000000000003e8",
                    "logDecoded": true,
                    "operation": "EVENT",
                    "revert": false,
                    "status": true,
                    "topics": [
                        "0xddf252ad1be2c89b69c2b068fc378daa952ba7f163c4a11628f55a4df523b3ef",
                        "0x000000000000000000000000a272204a3b65018c3881ece9dc89a27a34d60362",
                        "0x0000000000000000000000002600da3fe0ec87a86fe98db2a04cd8ddea6d8407"
                    ]
                },
                "nodeType": 1
            }
        },
        "gasFlame": [
            {
                "children": [
                    {
                        "children": [
                            {
                                "children": [],
                                "depth": 0,
                                "name": "Initial Gas",
                                "value": 22872
                            },
                            {
                                "children": [],
                                "depth": 0,
                                "name": "Executed Gas",
                                "value": 29710
                            }
                        ],
                        "depth": -1,
                        "name": "Actual Gas Used",
                        "value": 52582
                    },
                    {
                        "children": [],
                        "depth": -1,
                        "name": "Refunded Gas",
                        "value": 0
                    }
                ],
                "depth": -2,
                "name": "Total Gas",
                "value": 52582
            }
        ],
        "isConfirmed": true,
        "mainTrace": [
            {
                "children": [
                    {
                        "children": [
                            {
                                "children": [],
                                "depth": 1,
                                "id": 1,
                                "order": 1
                            }
                        ],
                        "depth": 0,
                        "id": 0,
                        "order": 0
                    }
                ],
                "depth": -1,
                "id": -1,
                "order": -1
            }
        ],
        "mainTraceNodeCount": 2,
        "parentIdMap": {
            "0": -1,
            "1": 0
        },
        "tidyTrace": [
            {
                "children": [
                    {
                        "children": [
                            {
                                "children": [],
                                "depth": 1,
                                "id": 1,
                                "order": 1
                            }
                        ],
                        "depth": 0,
                        "id": 0,
                        "order": 0
                    }
                ],
                "depth": -1,
                "id": -1,
                "order": -1
            }
        ],
        "tidyTraceNodeCount": 2
    },
    "state_change": {
        "stateChanges": [
            {
                "address": "0x0e50e6d6bb434938d8fe670a2d7a14cd128eb50f",
                "erc": "ERC-20",
                "slots": [
                    {
                        "current": "0x000000000000000000000000000000000000000000000000000134d71a9da654",
                        "key": "0x5e4c1622ee939a30f7ac27de30c69dbac13e480c5064712ceeb74d2b71f9f08e",
                        "prev": "0x000000000000000000000000000000000000000000000000000134d71a9daa3c"
                    },
                    {
                        "current": "0x00000000000000000000000000000000000000000000000000000000000003e8",
                        "key": "0xf19daef6f1b7828c0b03574709e68eae2c2544ddeefe5ceea66fc4e4dff4516a",
                        "prev": "0x0000000000000000000000000000000000000000000000000000000000000000"
                    }
                ],
                "storageVariables": [
                    {
                        "name": "balanceOf",
                        "type": "mapping(address => uint256)",
                        "value": {
                            "pairs": [
                                {
                                    "key": "0x2600da3fe0ec87a86fe98db2a04cd8ddea6d8407",
                                    "value": {
                                        "current": "1000",
                                        "prev": "0",
                                        "typeTag": 1
                                    }
                                },
                                {
                                    "key": "0xa272204a3b65018c3881ece9dc89a27a34d60362",
                                    "value": {
                                        "current": "339573445862996",
                                        "prev": "339573445863996",
                                        "typeTag": 1
                                    }
                                }
                            ],
                            "typeTag": 4
                        }
                    }
                ]
            }
        ]
    }
}