{
    "balance_change": {
        "balanceChanges": [
            {
                "account": "0x667d04d0f2b86e6a8ea9d5b67834e709c633c3c0",
                "assets": [
                    {
                        "address": "0xaf4dce16da2877f8c9e00544c93b62ac40631f16",
                        "amount": "500",
                        "iconUrl": "https://assets.blocksec.com/icon/76dc6c5be1f87d30d3bfaf03d20d6e06087d568f4c552fdaab53133a0fa580e9.png",
                        "isERC1155": false,
                        "isERC721": false,
                        "sign": false,
                        "value": ""
                    }
                ]
            },
            {
                "account": "0x80664ce072802486ba992c3256086082434062c3",
                "assets": [
                    {
                        "address": "0xaf4dce16da2877f8c9e00544c93b62ac40631f16",
                        "amount": "500",
                        "iconUrl": "https://assets.blocksec.com/icon/76dc6c5be1f87d30d3bfaf03d20d6e06087d568f4c552fdaab53133a0fa580e9.png",
                        "isERC1155": false,
                        "isERC721": false,
                        "sign": true,
                        "value": ""
                    }
                ]
            }
        ]
    },
    "profile": {
        "basic_info": {
            "baseFee": "",
            "blockNumber": 4404071,
            "callData": "0xa9059cbb00000000000000000000000080664ce072802486ba992c3256086082434062c30000000000000000000000000000000000000000000000000000000002faf080",
            "debugEnable": true,
            "errorInfo": "",
            "eventCount": 1,
            "feeRecipient": "0x2a65aca4d5fc5b5c859090a6c34d164135398226",
            "formatValue": "0",
            "gasLimit": 250000,
            "gasPrice": "7",
            "gasUsed": 22169,
            "intTxnCount": 0,
            "internalRevert": false,
            "internalRevertMessage": "",
            "isContractCreation": false,
            "isFlashloan": false,
            "maxFee": "",
            "nonce": 31,
            "overwritedBlockNumber": -1,
            "priorityFee": "",
            "receiver": "0xaf4dce16da2877f8c9e00544c93b62ac40631f16",
            "revertMessage": "",
            "sender": "0x667d04d0f2b86e6a8ea9d5b67834e709c633c3c0",
            "simulationEnable": true,
            "sourceTxnHash": "0x5472ea88118327b3256f0ef7c8648a8ead4e305c9fe7734b63c23f281a922542",
            "status": true,
            "timestamp": "2017-10-21T20:52:26Z",
            "transactionFee": "0.000155183",
            "txnHash": "0x5472ea88118327b3256f0ef7c8648a8ead4e305c9fe7734b63c23f281a922542",
            "txnIndex": 2,
            "type": 0,
            "value": "0"
        },
        "fund_flow": [
            {
                "amount": "500",
                "from": "0x667d04d0f2b86e6a8ea9d5b67834e709c633c3c0",
                "id": 1,
                "isERC1155": false,
                "isERC721": false,
                "isReverted": false,
                "order": 1,
                "to": "0x80664ce072802486ba992c3256086082434062c3",
                "token": "0xaf4dce16da2877f8c9e00544c93b62ac40631f16"
            }
        ],
        "token_infos": [
            {
                "address": "0xaf4dce16da2877f8c9e00544c93b62ac40631f16",
                "decimals": 5
            },
            {
                "address": "0xc02aaa39b223fe8d0a0e5c4f27ead9083c756cc2",
                "decimals": 18
            },
            {
                "address": "0xeeeeeeeeeeeeeeeeeeeeeeeeeeeeeeeeeeeeeeee",
                "decimals": 18
            }
        ]
    },
    "address_label": {
        "labels": [
            {
                "address": "0x0000000000000000000000000000000000000001",
                "label": "Precompiled"
            },
            {
                "address": "0x0000000000000000000000000000000000000002",
                "label": "Precompiled"
            },
            {
                "address": "0x0000000000000000000000000000000000000003",
                "label": "Precompiled"
            },
            {
                "address": "0x0000000000000000000000000000000000000004",
                "label": "Precompiled"
            },
            {
                "address": "0xeeeeeeeeeeeeeeeeeeeeeeeeeeeeeeeeeeeeeeee",
                "label": "Ether"
            },
            {
                "address": "0xaf4dce16da2877f8c9e00544c93b62ac40631f16",
                "label": "Monetha Token"
            }
        ]
    },
    "trace": {
        "accountLabels": null,
        "dataMap": {
            "-1": {
                "invocation": {
                    "address": "0x667d04d0f2b86e6a8ea9d5b67834e709c633c3c0",
                    "callData": "",
                    "decodedMethod": null,
                    "errorInfo": "",
                    "fromAddress": "",
                    "gasUsed": 0,
                    "id": -1,
                    "methodDecoded": false,
                    "operation": "",
                    "output": "",
                    "revert": false,
                    "revertMessage": "",
                    "selector": "",
                    "status": false,
                    "value": ""
                },
                "nodeType": 0
            },
            "0": {
                "invocation": {
                    "address": "0xaf4dce16da2877f8c9e00544c93b62ac40631f16",
                    "callData": "0x00000000000000000000000080664ce072802486ba992c3256086082434062c30000000000000000000000000000000000000000000000000000000002faf080",
                    "decodedMethod": {
                        "callParams": [
                            {
                                "name": "_to",
                                "type": "address",
                                "value": "0x80664ce072802486ba992c3256086082434062c3"
                            },
                            {
                                "decimalAvailable": true,
                                "name": "_value",
                                "type": "uint256",
                                "value": "50,000,000"
                            }
                        ],
                        "constructorArguments": "",
                        "name": "transfer",
                        "returnParams": [
                            {
                                "name": "success",
                                "type": "bool",
                                "value": true
                            }
                        ],
                        "signature": "transfer(address,uint256)"
                    },
                    "errorInfo": "",
                    "fromAddress": "0x667d04d0f2b86e6a8ea9d5b67834e709c633c3c0",
                    "gasUsed": 22169,
                    "id": 0,
                    "methodDecoded": true,
                    "operation": "CALL",
                    "output": "0x0000000000000000000000000000000000000000000000000000000000000001",
                    "revert": false,
                    "revertMessage": "",
                    "selector": "0xa9059cbb",
                    "status": true,
                    "value": "0"
                },
                "nodeType": 0
            },
            "1": {
                "event": {
                    "contract": "0xaf4dce16da2877f8c9e00544c93b62ac40631f16",
                    "decodedLog": {
                        "name": "Transfer",
                        "params": [
                            {
                                "name": "from",
                                "type": "address",
                                "value": "0x667d04d0f2b86e6a8ea9d5b67834e709c633c3c0"
                            },
                            {
                                "name": "to",
                                "type": "address",
                                "value": "0x80664ce072802486ba992c3256086082434062c3"
                            },
                            {
                                "decimalAvailable": true,
                                "name": "value",
                                "type": "uint256",
                                "value": "50,000,000"
                            }
                        ],
                        "signature": "Transfer(address,address,uint256)"
                    },
                    "id": 1,
                    "logData": "0x0000000000000000000000000000000000000000000000000000000002faf080",
                    "logDecoded": true,
                    "operation": "EVENT",
                    "revert": false,
                    "status": true,
                    "topics": [
                        "0xddf252ad1be2c89b69c2b068fc378daa952ba7f163c4a11628f55a4df523b3ef",
                        "0x000000000000000000000000667d04d0f2b86e6a8ea9d5b67834e709c633c3c0",
                        "0x00000000000000000000000080664ce072802486ba992c3256086082434062c3"
                    ]
                },
                "nodeType": 1
            }
        },
        "gasFlame": [
            {
                "children": [
                    {
                        "children": [
                            {
                                "children": [],
                                "depth": 0,
                                "name": "Initial Gas",
                                "value": 23064
                            },
                            {
                                "children": [],
                                "depth": 0,
                                "name": "Executed Gas",
                                "value": 14105
                            }
                        ],
                        "depth": -1,
                        "name": "Actual Gas Used",
                        "value": 22169
                    },
                    {
                        "children": [],
                        "depth": -1,
                        "name": "Refunded Gas",
                        "value": 15000
                    }
                ],
                "depth": -2,
                "name": "Total Gas",
                "value": 37169
            }
        ],
        "isConfirmed": true,
        "mainTrace": [
            {
                "children": [
                    {
                        "children": [
                            {
                                "children": [],
                                "depth": 1,
                                "id": 1,
                                "order": 1
                            }
                        ],
                        "depth": 0,
                        "id": 0,
                        "order": 0
                    }
                ],
                "depth": -1,
                "id": -1,
                "order": -1
            }
        ],
        "mainTraceNodeCount": 2,
        "parentIdMap": {
            "0": -1,
            "1": 0
        },
        "tidyTrace": [
            {
                "children": [
                    {
                        "children": [
                            {
                                "children": [],
                                "depth": 1,
                                "id": 1,
                                "order": 1
                            }
                        ],
                        "depth": 0,
                        "id": 0,
                        "order": 0
                    }
                ],
                "depth": -1,
                "id": -1,
                "order": -1
            }
        ],
        "tidyTraceNodeCount": 2
    },
    "state_change": {
        "stateChanges": [
            {
                "address": "0xaf4dce16da2877f8c9e00544c93b62ac40631f16",
                "erc": "ERC-20",
                "slots": [
                    {
                        "current": "0x0000000000000000000000000000000000000000000000000000000000000000",
                        "key": "0xab3be9474b1799e5af1ee8bb3171b3957e45b6d956eafa1882bd6c124b35af73",
                        "prev": "0x0000000000000000000000000000000000000000000000000000000002faf080"
                    },
                    {
                        "current": "0x000000000000000000000000000000000000000000000000000000000516ec0c",
                        "key": "0x8a133ee324f89630c6c8d02a6f3ece8e10bd0938dc29af90fcf0bbb64b54093e",
                        "prev": "0x00000000000000000000000000000000000000000000000000000000021bfb8c"
                    }
                ],
                "storageVariables": [
                    {
                        "name": "balanceOf",
                        "type": "mapping(address => uint256)",
                        "value": {
                            "pairs": [
                                {
                                    "key": "0x667d04d0f2b86e6a8ea9d5b67834e709c633c3c0",
                                    "value": {
                                        "current": "0",
                                        "prev": "50000000",
                                        "typeTag": 1
                                    }
                                },
                                {
                                    "key": "0x80664ce072802486ba992c3256086082434062c3",
                                    "value": {
                                        "current": "85388300",
                                        "prev": "35388300",
                                        "typeTag": 1
                                    }
                                }
                            ],
                            "typeTag": 4
                        }
                    }
                ]
            }
        ]
    }
}