{
    "balance_change": {
        "balanceChanges": [
            {
                "account": "0x27aa9f1f479ece342210965cfa92133d5b5308a6",
                "assets": [
                    {
                        "address": "0xf8ebf4849f1fa4faf0dff2106a173d3a6cb2eb3a",
                        "amount": "12,234,983,713.898204054949346897",
                        "iconUrl": "",
                        "isERC1155": false,
                        "isERC721": false,
                        "sign": false,
                        "value": "668.5844355"
                    },
                    {
                        "address": "0xeeeeeeeeeeeeeeeeeeeeeeeeeeeeeeeeeeeeeeee",
                        "amount": "0.261754494922066966",
                        "iconUrl": "https://assets.blocksec.com/image/1663669189317-3.png",
                        "isERC1155": false,
                        "isERC721": false,
                        "sign": true,
                        "value": "664.46378530365"
                    }
                ]
            },
            {
                "account": "0xed12310d5a37326e6506209c4838146950166760",
                "assets": [
                    {
                        "address": "0xeeeeeeeeeeeeeeeeeeeeeeeeeeeeeeeeeeeeeeee",
                        "amount": "0.002643984797192595",
                        "iconUrl": "https://assets.blocksec.com/image/1663669189317-3.png",
                        "isERC1155": false,
                        "isERC721": false,
                        "sign": true,
                        "value": "6.7117554071845"
                    }
                ]
            },
            {
                "account": "0xb7426bfd2abf64428fa82a71b0d44b056ffcc286",
                "assets": [
                    {
                        "address": "0xf8ebf4849f1fa4faf0dff2106a173d3a6cb2eb3a",
                        "amount": "12,234,983,713.898204054949346897",
                        "iconUrl": "",
                        "isERC1155": false,
                        "isERC721": false,
                        "sign": true,
                        "value": "668.5844355"
                    },
                    {
                        "address": "0xc02aaa39b223fe8d0a0e5c4f27ead9083c756cc2",
                        "amount": "0.264398479719259561",
                        "iconUrl": "https://assets.blocksec.com/icon/f1cb2d02c471d545bbc7722daf3277fd852d98e63d118771af7047bd8256c516.png",
                        "isERC1155": false,
                        "isERC721": false,
                        "sign": false,
                        "value": "671.17554071844999997"
                    }
                ]
            },
            {
                "account": "0xc02aaa39b223fe8d0a0e5c4f27ead9083c756cc2",
                "assets": [
                    {
                        "address": "0xc02aaa39b223fe8d0a0e5c4f27ead9083c756cc2",
                        "amount": "0.264398479719259561",
                        "iconUrl": "https://assets.blocksec.com/icon/f1cb2d02c471d545bbc7722daf3277fd852d98e63d118771af7047bd8256c516.png",
                        "isERC1155": false,
                        "isERC721": false,
                        "sign": true,
                        "value": "671.17554071844999997"
                    },
                    {
                        "address": "0xeeeeeeeeeeeeeeeeeeeeeeeeeeeeeeeeeeeeeeee",
                        "amount": "0.264398479719259561",
                        "iconUrl": "https://assets.blocksec.com/image/1663669189317-3.png",
                        "isERC1155": false,
                        "isERC721": false,
                        "sign": false,
                        "value": "671.17554071844999997"
                    }
                ]
            }
        ]
    },
    "profile": {
        "basic_info": {
            "baseFee": "18.373309985",
            "blockNumber": 19011624,
            "callData": "0xde05e6a0000000000000000000000000000000000000000027888a94258b810b56f63e5100000000000000000000000000000000000000000000000000000000000000a000000000000000000000000000000000000000000000000000000000000000000000000000000000000000000000000000000000000000000000000065a5063f00000000000000000000000000000000000000000000000000000000000000640000000000000000000000000000000000000000000000000000000000000002000000000000000000000000f8ebf4849f1fa4faf0dff2106a173d3a6cb2eb3a000000000000000000000000c02aaa39b223fe8d0a0e5c4f27ead9083c756cc2",
            "debugEnable": true,
            "errorInfo": "",
            "eventCount": 6,
            "feeRecipient": "0xdcca982701a264e8d629a6e8cfba9c1a27912623",
            "formatValue": "0",
            "gasLimit": 288200,
            "gasPrice": "24.373309985",
            "gasUsed": 161981,
            "intTxnCount": 13,
            "internalRevert": false,
            "internalRevertMessage": "",
            "isContractCreation": false,
            "isFlashloan": false,
            "maxFee": "29.025",
            "nonce": 5182,
            "overwritedBlockNumber": -1,
            "priorityFee": "6",
            "receiver": "0xed12310d5a37326e6506209c4838146950166760",
            "revertMessage": "",
            "sender": "0x27aa9f1f479ece342210965cfa92133d5b5308a6",
            "simulationEnable": true,
            "sourceTxnHash": "0x544f428ad3cfaffb996b72c3a3b660ad4c4311b5118b7841782bf43bb56f71ba",
            "status": true,
            "timestamp": "2024-01-15T10:15:47Z",
            "transactionFee": "0.003948013124680285",
            "txnHash": "0x544f428ad3cfaffb996b72c3a3b660ad4c4311b5118b7841782bf43bb56f71ba",
            "txnIndex": 0,
            "type": 2,
            "value": "0"
        },
        "fund_flow": [
            {
                "amount": "12,234,983,713.898204054949346897",
                "from": "0x27aa9f1f479ece342210965cfa92133d5b5308a6",
                "id": 1,
                "isERC1155": false,
                "isERC721": false,
                "isReverted": false,
                "order": 1,
                "to": "0xb7426bfd2abf64428fa82a71b0d44b056ffcc286",
                "token": "0xf8ebf4849f1fa4faf0dff2106a173d3a6cb2eb3a"
            },
            {
                "amount": "0.264398479719259561",
                "from": "0xb7426bfd2abf64428fa82a71b0d44b056ffcc286",
                "id": 2,
                "isERC1155": false,
                "isERC721": false,
                "isReverted": false,
                "order": 2,
                "to": "0xed12310d5a37326e6506209c4838146950166760",
                "token": "0xc02aaa39b223fe8d0a0e5c4f27ead9083c756cc2"
            },
            {
                "amount": "0.264398479719259561",
                "from": "0xc02aaa39b223fe8d0a0e5c4f27ead9083c756cc2",
                "id": 3,
                "isERC1155": false,
                "isERC721": false,
                "isReverted": false,
                "order": 3,
                "to": "0xed12310d5a37326e6506209c4838146950166760",
                "token": "0xeeeeeeeeeeeeeeeeeeeeeeeeeeeeeeeeeeeeeeee"
            },
            {
                "amount": "0.264398479719259561",
                "from": "0xed12310d5a37326e6506209c4838146950166760",
                "id": 4,
                "isERC1155": false,
                "isERC721": false,
                "isReverted": false,
                "order": 4,
                "to": "0xc02aaa39b223fe8d0a0e5c4f27ead9083c756cc2",
                "token": "0xc02aaa39b223fe8d0a0e5c4f27ead9083c756cc2"
            },
            {
                "amount": "0.264398479719259561",
                "from": "0xed12310d5a37326e6506209c4838146950166760",
                "id": 5,
                "isERC1155": false,
                "isERC721": false,
                "isReverted": false,
                "order": 5,
                "to": "0xed12310d5a37326e6506209c4838146950166760",
                "token": "0xeeeeeeeeeeeeeeeeeeeeeeeeeeeeeeeeeeeeeeee"
            },
            {
                "amount": "0.261754494922066966",
                "from": "0xed12310d5a37326e6506209c4838146950166760",
                "id": 6,
                "isERC1155": false,
                "isERC721": false,
                "isReverted": false,
                "order": 6,
                "to": "0x27aa9f1f479ece342210965cfa92133d5b5308a6",
                "token": "0xeeeeeeeeeeeeeeeeeeeeeeeeeeeeeeeeeeeeeeee"
            }
        ],
        "token_infos": [
            {
                "address": "0xeeeeeeeeeeeeeeeeeeeeeeeeeeeeeeeeeeeeeeee",
                "decimals": 18
            },
            {
                "address": "0xc02aaa39b223fe8d0a0e5c4f27ead9083c756cc2",
                "decimals": 18
            },
            {
                "address": "0xf8ebf4849f1fa4faf0dff2106a173d3a6cb2eb3a",
                "decimals": 18
            }
        ]
    },
    "address_label": {
        "labels": [
            {
                "address": "0x7a250d5630b4cf539739df2c5dacb4c659f2488d",
                "label": "Uniswap V2: Router 2"
            },
            {
                "address": "0xf8ebf4849f1fa4faf0dff2106a173d3a6cb2eb3a",
                "label": "TROLL (TROLL)"
            },
            {
                "address": "0xeeeeeeeeeeeeeeeeeeeeeeeeeeeeeeeeeeeeeeee",
                "label": "Ether"
            },
            {
                "address": "0xb7426bfd2abf64428fa82a71b0d44b056ffcc286",
                "label": "Uniswap V2: TROLL 17"
            },
            {
                "address": "0x0000000000000000000000000000000000000001",
                "label": "Precompiled"
            },
            {
                "address": "0x0000000000000000000000000000000000000002",
                "label": "Precompiled"
            },
            {
                "address": "0x0000000000000000000000000000000000000003",
                "label": "Precompiled"
            },
            {
                "address": "0x0000000000000000000000000000000000000004",
                "label": "Precompiled"
            },
            {
                "address": "0xc02aaa39b223fe8d0a0e5c4f27ead9083c756cc2",
                "label": "Wrapped Ether (WETH)"
            }
        ]
    },
    "trace": {
        "accountLabels": null,
        "dataMap": {
            "-1": {
                "invocation": {
                    "address": "0x27aa9f1f479ece342210965cfa92133d5b5308a6",
                    "callData": "",
                    "decodedMethod": null,
                    "errorInfo": "",
                    "fromAddress": "",
                    "gasUsed": 0,
                    "id": -1,
                    "methodDecoded": false,
                    "operation": "",
                    "output": "",
                    "revert": false,
                    "revertMessage": "",
                    "selector": "",
                    "status": false,
                    "value": ""
                },
                "nodeType": 0
            },
            "0": {
                "invocation": {
                    "address": "0xed12310d5a37326e6506209c4838146950166760",
                    "callData": "0x000000000000000000000000000000000000000027888a94258b810b56f63e5100000000000000000000000000000000000000000000000000000000000000a000000000000000000000000000000000000000000000000000000000000000000000000000000000000000000000000000000000000000000000000065a5063f00000000000000000000000000000000000000000000000000000000000000640000000000000000000000000000000000000000000000000000000000000002000000000000000000000000f8ebf4849f1fa4faf0dff2106a173d3a6cb2eb3a000000000000000000000000c02aaa39b223fe8d0a0e5c4f27ead9083c756cc2",
                    "decodedMethod": null,
                    "errorInfo": "",
                    "fromAddress": "0x27aa9f1f479ece342210965cfa92133d5b5308a6",
                    "gasUsed": 161981,
                    "id": 0,
                    "methodDecoded": false,
                    "operation": "CALL",
                    "output": "",
                    "revert": false,
                    "revertMessage": "",
                    "selector": "0xde05e6a0",
                    "status": true,
                    "value": "0"
                },
                "nodeType": 0
            },
            "1": {
                "invocation": {
                    "address": "0x7a250d5630b4cf539739df2c5dacb4c659f2488d",
                    "callData": "0x000000000000000000000000000000000000000027888a94258b810b56f63e51000000000000000000000000000000000000000000000000000000000000000000000000000000000000000000000000000000000000000000000000000000a0000000000000000000000000ed12310d5a37326e6506209c48381469501667600000000000000000000000000000000000000000000000000000000065a5063f0000000000000000000000000000000000000000000000000000000000000002000000000000000000000000f8ebf4849f1fa4faf0dff2106a173d3a6cb2eb3a000000000000000000000000c02aaa39b223fe8d0a0e5c4f27ead9083c756cc2",
                    "decodedMethod": {
                        "callParams": [
                            {
                                "name": "amountIn",
                                "type": "uint256",
                                "value": "12,234,983,713,898,204,054,949,346,897"
                            },
                            {
                                "name": "amountOutMin",
                                "type": "uint256",
                                "value": "0"
                            },
                            {
                                "name": "path",
                                "type": "address[]",
                                "value": [
                                    "0xf8ebf4849f1fa4faf0dff2106a173d3a6cb2eb3a",
                                    "0xc02aaa39b223fe8d0a0e5c4f27ead9083c756cc2"
                                ]
                            },
                            {
                                "name": "to",
                                "type": "address",
                                "value": "0xed12310d5a37326e6506209c4838146950166760"
                            },
                            {
                                "name": "deadline",
                                "type": "uint256",
                                "value": "1,705,313,855"
                            }
                        ],
                        "constructorArguments": "",
                        "name": "swapExactTokensForETHSupportingFeeOnTransferTokens",
                        "returnParams": [],
                        "signature": "swapExactTokensForETHSupportingFeeOnTransferTokens(uint256,uint256,address[],address,uint256)"
                    },
                    "errorInfo": "",
                    "fromAddress": "0xed12310d5a37326e6506209c4838146950166760",
                    "gasUsed": 144774,
                    "id": 1,
                    "methodDecoded": true,
                    "operation": "DELEGATECALL",
                    "output": "",
                    "revert": false,
                    "revertMessage": "",
                    "selector": "0x791ac947",
                    "status": true,
                    "value": "0"
                },
                "nodeType": 0
            },
            "10": {
                "invocation": {
                    "address": "0xc02aaa39b223fe8d0a0e5c4f27ead9083c756cc2",
                    "callData": "0x000000000000000000000000b7426bfd2abf64428fa82a71b0d44b056ffcc286",
                    "decodedMethod": {
                        "callParams": [
                            {
                                "name": "",
                                "type": "address",
                                "value": "0xb7426bfd2abf64428fa82a71b0d44b056ffcc286"
                            }
                        ],
                        "constructorArguments": "",
                        "name": "balanceOf",
                        "returnParams": [
                            {
                                "decimalAvailable": true,
                                "name": "",
                                "type": "uint256",
                                "value": "331,833,592,194,850,448,953"
                            }
                        ],
                        "signature": "balanceOf(address)"
                    },
                    "errorInfo": "",
                    "fromAddress": "0xb7426bfd2abf64428fa82a71b0d44b056ffcc286",
                    "gasUsed": 534,
                    "id": 10,
                    "methodDecoded": true,
                    "operation": "STATICCALL",
                    "output": "0x000000000000000000000000000000000000000000000011fd1dbdf8b3e56639",
                    "revert": false,
                    "revertMessage": "",
                    "selector": "0x70a08231",
                    "status": true,
                    "value": "0"
                },
                "nodeType": 0
            },
            "11": {
                "invocation": {
                    "address": "0xf8ebf4849f1fa4faf0dff2106a173d3a6cb2eb3a",
                    "callData": "0x000000000000000000000000b7426bfd2abf64428fa82a71b0d44b056ffcc286",
                    "decodedMethod": {
                        "callParams": [
                            {
                                "name": "account",
                                "type": "address",
                                "value": "0xb7426bfd2abf64428fa82a71b0d44b056ffcc286"
                            }
                        ],
                        "constructorArguments": "",
                        "name": "balanceOf",
                        "returnParams": [
                            {
                                "decimalAvailable": true,
                                "name": "",
                                "type": "uint256",
                                "value": "15,321,697,673,278,655,563,678,202,049,035"
                            }
                        ],
                        "signature": "balanceOf(address)"
                    },
                    "errorInfo": "",
                    "fromAddress": "0xb7426bfd2abf64428fa82a71b0d44b056ffcc286",
                    "gasUsed": 623,
                    "id": 11,
                    "methodDecoded": true,
                    "operation": "STATICCALL",
                    "output": "0x00000000000000000000000000000000000000c163134448bda7f40b3119b20b",
                    "revert": false,
                    "revertMessage": "",
                    "selector": "0x70a08231",
                    "status": true,
                    "value": "0"
                },
                "nodeType": 0
            },
            "12": {
                "event": {
                    "contract": "0xb7426bfd2abf64428fa82a71b0d44b056ffcc286",
                    "decodedLog": {
                        "name": "Sync",
                        "params": [
                            {
                                "name": "reserve0",
                                "type": "uint112",
                                "value": "331,833,592,194,850,448,953"
                            },
                            {
                                "name": "reserve1",
                                "type": "uint112",
                                "value": "15,321,697,673,278,655,563,678,202,049,035"
                            }
                        ],
                        "signature": "Sync(uint112,uint112)"
                    },
                    "id": 12,
                    "logData": "0x000000000000000000000000000000000000000000000011fd1dbdf8b3e5663900000000000000000000000000000000000000c163134448bda7f40b3119b20b",
                    "logDecoded": true,
                    "operation": "EVENT",
                    "revert": false,
                    "status": true,
                    "topics": [
                        "0x1c411e9a96e071241c2f21f7726b17ae89e3cab4c78be50e062b03a9fffbbad1"
                    ]
                },
                "nodeType": 1
            },
            "13": {
                "event": {
                    "contract": "0xb7426bfd2abf64428fa82a71b0d44b056ffcc286",
                    "decodedLog": {
                        "name": "Swap",
                        "params": [
                            {
                                "name": "sender",
                                "type": "address",
                                "value": "0xed12310d5a37326e6506209c4838146950166760"
                            },
                            {
                                "name": "to",
                                "type": "address",
                                "value": "0xed12310d5a37326e6506209c4838146950166760"
                            },
                            {
                                "name": "amount0In",
                                "type": "uint256",
                                "value": "0"
                            },
                            {
                                "name": "amount1In",
                                "type": "uint256",
                                "value": "12,234,983,713,898,204,054,949,346,897"
                            },
                            {
                                "name": "amount0Out",
                                "type": "uint256",
                                "value": "264,398,479,719,259,561"
                            },
                            {
                                "name": "amount1Out",
                                "type": "uint256",
                                "value": "0"
                            }
                        ],
                        "signature": "Swap(address,uint256,uint256,uint256,uint256,address)"
                    },
                    "id": 13,
                    "logData": "0x0000000000000000000000000000000000000000000000000000000000000000000000000000000000000000000000000000000027888a94258b810b56f63e5100000000000000000000000000000000000000000000000003ab550436d1dda90000000000000000000000000000000000000000000000000000000000000000",
                    "logDecoded": true,
                    "operation": "EVENT",
                    "revert": false,
                    "status": true,
                    "topics": [
                        "0xd78ad95fa46c994b6551d0da85fc275fe613ce37657fb8d5e3d130840159d822",
                        "0x000000000000000000000000ed12310d5a37326e6506209c4838146950166760",
                        "0x000000000000000000000000ed12310d5a37326e6506209c4838146950166760"
                    ]
                },
                "nodeType": 1
            },
            "14": {
                "invocation": {
                    "address": "0xc02aaa39b223fe8d0a0e5c4f27ead9083c756cc2",
                    "callData": "0x000000000000000000000000ed12310d5a37326e6506209c4838146950166760",
                    "decodedMethod": {
                        "callParams": [
                            {
                                "name": "",
                                "type": "address",
                                "value": "0xed12310d5a37326e6506209c4838146950166760"
                            }
                        ],
                        "constructorArguments": "",
                        "name": "balanceOf",
                        "returnParams": [
                            {
                                "decimalAvailable": true,
                                "name": "",
                                "type": "uint256",
                                "value": "264,398,479,719,259,561"
                            }
                        ],
                        "signature": "balanceOf(address)"
                    },
                    "errorInfo": "",
                    "fromAddress": "0xed12310d5a37326e6506209c4838146950166760",
                    "gasUsed": 534,
                    "id": 14,
                    "methodDecoded": true,
                    "operation": "STATICCALL",
                    "output": "0x00000000000000000000000000000000000000000000000003ab550436d1dda9",
                    "revert": false,
                    "revertMessage": "",
                    "selector": "0x70a08231",
                    "status": true,
                    "value": "0"
                },
                "nodeType": 0
            },
            "15": {
                "invocation": {
                    "address": "0xc02aaa39b223fe8d0a0e5c4f27ead9083c756cc2",
                    "callData": "0x00000000000000000000000000000000000000000000000003ab550436d1dda9",
                    "decodedMethod": {
                        "callParams": [
                            {
                                "name": "wad",
                                "type": "uint256",
                                "value": "264,398,479,719,259,561"
                            }
                        ],
                        "constructorArguments": "",
                        "name": "withdraw",
                        "returnParams": [],
                        "signature": "withdraw(uint256)"
                    },
                    "errorInfo": "",
                    "fromAddress": "0xed12310d5a37326e6506209c4838146950166760",
                    "gasUsed": 9195,
                    "id": 15,
                    "methodDecoded": true,
                    "operation": "CALL",
                    "output": "",
                    "revert": false,
                    "revertMessage": "",
                    "selector": "0x2e1a7d4d",
                    "status": true,
                    "value": "0"
                },
                "nodeType": 0
            },
            "16": {
                "invocation": {
                    "address": "0xed12310d5a37326e6506209c4838146950166760",
                    "callData": "0x",
                    "decodedMethod": null,
                    "errorInfo": "",
                    "fromAddress": "0xc02aaa39b223fe8d0a0e5c4f27ead9083c756cc2",
                    "gasUsed": 55,
                    "id": 16,
                    "methodDecoded": false,
                    "operation": "CALL",
                    "output": "",
                    "revert": false,
                    "revertMessage": "",
                    "selector": "fallback",
                    "status": true,
                    "value": "0.264398479719259561"
                },
                "nodeType": 0
            },
            "17": {
                "event": {
                    "contract": "0xc02aaa39b223fe8d0a0e5c4f27ead9083c756cc2",
                    "decodedLog": {
                        "name": "Withdrawal",
                        "params": [
                            {
                                "name": "src",
                                "type": "address",
                                "value": "0xed12310d5a37326e6506209c4838146950166760"
                            },
                            {
                                "name": "wad",
                                "type": "uint256",
                                "value": "264,398,479,719,259,561"
                            }
                        ],
                        "signature": "Withdrawal(address,uint256)"
                    },
                    "id": 17,
                    "logData": "0x00000000000000000000000000000000000000000000000003ab550436d1dda9",
                    "logDecoded": true,
                    "operation": "EVENT",
                    "revert": false,
                    "status": true,
                    "topics": [
                        "0x7fcf532c15f0a6db0bd6d0e038bea71d30d808c7d98cb3bf7268a95bf5081b65",
                        "0x000000000000000000000000ed12310d5a37326e6506209c4838146950166760"
                    ]
                },
                "nodeType": 1
            },
            "18": {
                "invocation": {
                    "address": "0xed12310d5a37326e6506209c4838146950166760",
                    "callData": "0x",
                    "decodedMethod": null,
                    "errorInfo": "",
                    "fromAddress": "0xed12310d5a37326e6506209c4838146950166760",
                    "gasUsed": 55,
                    "id": 18,
                    "methodDecoded": false,
                    "operation": "CALL",
                    "output": "",
                    "revert": false,
                    "revertMessage": "",
                    "selector": "fallback",
                    "status": true,
                    "value": "0.264398479719259561"
                },
                "nodeType": 0
            },
            "19": {
                "invocation": {
                    "address": "0x27aa9f1f479ece342210965cfa92133d5b5308a6",
                    "callData": "0x",
                    "decodedMethod": null,
                    "errorInfo": "",
                    "fromAddress": "0xed12310d5a37326e6506209c4838146950166760",
                    "gasUsed": 0,
                    "id": 19,
                    "methodDecoded": false,
                    "operation": "CALL",
                    "output": "",
                    "revert": false,
                    "revertMessage": "",
                    "selector": "fallback",
                    "status": true,
                    "value": "0.261754494922066966"
                },
                "nodeType": 0
            },
            "2": {
                "invocation": {
                    "address": "0xf8ebf4849f1fa4faf0dff2106a173d3a6cb2eb3a",
                    "callData": "0x00000000000000000000000027aa9f1f479ece342210965cfa92133d5b5308a6000000000000000000000000b7426bfd2abf64428fa82a71b0d44b056ffcc286000000000000000000000000000000000000000027888a94258b810b56f63e51",
                    "decodedMethod": {
                        "callParams": [
                            {
                                "name": "sender",
                                "type": "address",
                                "value": "0x27aa9f1f479ece342210965cfa92133d5b5308a6"
                            },
                            {
                                "name": "recipient",
                                "type": "address",
                                "value": "0xb7426bfd2abf64428fa82a71b0d44b056ffcc286"
                            },
                            {
                                "decimalAvailable": true,
                                "name": "amount",
                                "type": "uint256",
                                "value": "12,234,983,713,898,204,054,949,346,897"
                            }
                        ],
                        "constructorArguments": "",
                        "name": "transferFrom",
                        "returnParams": [
                            {
                                "name": "",
                                "type": "bool",
                                "value": true
                            }
                        ],
                        "signature": "transferFrom(address,address,uint256)"
                    },
                    "errorInfo": "",
                    "fromAddress": "0xed12310d5a37326e6506209c4838146950166760",
                    "gasUsed": 47734,
                    "id": 2,
                    "methodDecoded": true,
                    "operation": "CALL",
                    "output": "0x0000000000000000000000000000000000000000000000000000000000000001",
                    "revert": false,
                    "revertMessage": "",
                    "selector": "0x23b872dd",
                    "status": true,
                    "value": "0"
                },
                "nodeType": 0
            },
            "3": {
                "event": {
                    "contract": "0xf8ebf4849f1fa4faf0dff2106a173d3a6cb2eb3a",
                    "decodedLog": {
                        "name": "Transfer",
                        "params": [
                            {
                                "name": "from",
                                "type": "address",
                                "value": "0x27aa9f1f479ece342210965cfa92133d5b5308a6"
                            },
                            {
                                "name": "to",
                                "type": "address",
                                "value": "0xb7426bfd2abf64428fa82a71b0d44b056ffcc286"
                            },
                            {
                                "decimalAvailable": true,
                                "name": "value",
                                "type": "uint256",
                                "value": "12,234,983,713,898,204,054,949,346,897"
                            }
                        ],
                        "signature": "Transfer(address,address,uint256)"
                    },
                    "id": 3,
                    "logData": "0x000000000000000000000000000000000000000027888a94258b810b56f63e51",
                    "logDecoded": true,
                    "operation": "EVENT",
                    "revert": false,
                    "status": true,
                    "topics": [
                        "0xddf252ad1be2c89b69c2b068fc378daa952ba7f163c4a11628f55a4df523b3ef",
                        "0x00000000000000000000000027aa9f1f479ece342210965cfa92133d5b5308a6",
                        "0x000000000000000000000000b7426bfd2abf64428fa82a71b0d44b056ffcc286"
                    ]
                },
                "nodeType": 1
            },
            "4": {
                "event": {
                    "contract": "0xf8ebf4849f1fa4faf0dff2106a173d3a6cb2eb3a",
                    "decodedLog": {
                        "name": "Approval",
                        "params": [
                            {
                                "name": "owner",
                                "type": "address",
                                "value": "0x27aa9f1f479ece342210965cfa92133d5b5308a6"
                            },
                            {
                                "name": "spender",
                                "type": "address",
                                "value": "0xed12310d5a37326e6506209c4838146950166760"
                            },
                            {
                                "decimalAvailable": true,
                                "name": "value",
                                "type": "uint256",
                                "value": "115,792,089,237,316,195,423,570,985,008,687,907,853,269,984,665,582,769,026,154,031,598,325,500,756,516"
                            }
                        ],
                        "signature": "Approval(address,address,uint256)"
                    },
                    "id": 4,
                    "logData": "0xffffffffffffffffffffffffffffffffffffffff454115e2df7c6d3616604224",
                    "logDecoded": true,
                    "operation": "EVENT",
                    "revert": false,
                    "status": true,
                    "topics": [
                        "0x8c5be1e5ebec7d5bd14f71427d1e84f3dd0314c0f7b2291e5b200ac8c7c3b925",
                        "0x00000000000000000000000027aa9f1f479ece342210965cfa92133d5b5308a6",
                        "0x000000000000000000000000ed12310d5a37326e6506209c4838146950166760"
                    ]
                },
                "nodeType": 1
            },
            "5": {
                "invocation": {
                    "address": "0xb7426bfd2abf64428fa82a71b0d44b056ffcc286",
                    "callData": "0x",
                    "decodedMethod": {
                        "callParams": [],
                        "constructorArguments": "",
                        "name": "getReserves",
                        "returnParams": [
                            {
                                "name": "_reserve0",
                                "type": "uint112",
                                "value": "332,097,990,674,569,708,514"
                            },
                            {
                                "name": "_reserve1",
                                "type": "uint112",
                                "value": "15,309,462,689,564,757,359,623,252,702,138"
                            },
                            {
                                "name": "_blockTimestampLast",
                                "type": "uint32",
                                "value": "1,705,313,735"
                            }
                        ],
                        "signature": "getReserves()"
                    },
                    "errorInfo": "",
                    "fromAddress": "0xed12310d5a37326e6506209c4838146950166760",
                    "gasUsed": 2504,
                    "id": 5,
                    "methodDecoded": true,
                    "operation": "STATICCALL",
                    "output": "0x00000000000000000000000000000000000000000000001200c912fceab743e200000000000000000000000000000000000000c13b8ab9b4981c72ffda2373ba0000000000000000000000000000000000000000000000000000000065a505c7",
                    "revert": false,
                    "revertMessage": "",
                    "selector": "0x0902f1ac",
                    "status": true,
                    "value": "0"
                },
                "nodeType": 0
            },
            "6": {
                "invocation": {
                    "address": "0xf8ebf4849f1fa4faf0dff2106a173d3a6cb2eb3a",
                    "callData": "0x000000000000000000000000b7426bfd2abf64428fa82a71b0d44b056ffcc286",
                    "decodedMethod": {
                        "callParams": [
                            {
                                "name": "account",
                                "type": "address",
                                "value": "0xb7426bfd2abf64428fa82a71b0d44b056ffcc286"
                            }
                        ],
                        "constructorArguments": "",
                        "name": "balanceOf",
                        "returnParams": [
                            {
                                "decimalAvailable": true,
                                "name": "",
                                "type": "uint256",
                                "value": "15,321,697,673,278,655,563,678,202,049,035"
                            }
                        ],
                        "signature": "balanceOf(address)"
                    },
                    "errorInfo": "",
                    "fromAddress": "0xed12310d5a37326e6506209c4838146950166760",
                    "gasUsed": 623,
                    "id": 6,
                    "methodDecoded": true,
                    "operation": "STATICCALL",
                    "output": "0x00000000000000000000000000000000000000c163134448bda7f40b3119b20b",
                    "revert": false,
                    "revertMessage": "",
                    "selector": "0x70a08231",
                    "status": true,
                    "value": "0"
                },
                "nodeType": 0
            },
            "7": {
                "invocation": {
                    "address": "0xb7426bfd2abf64428fa82a71b0d44b056ffcc286",
                    "callData": "0x00000000000000000000000000000000000000000000000003ab550436d1dda90000000000000000000000000000000000000000000000000000000000000000000000000000000000000000ed12310d5a37326e6506209c483814695016676000000000000000000000000000000000000000000000000000000000000000800000000000000000000000000000000000000000000000000000000000000000",
                    "decodedMethod": {
                        "callParams": [
                            {
                                "name": "amount0Out",
                                "type": "uint256",
                                "value": "264,398,479,719,259,561"
                            },
                            {
                                "name": "amount1Out",
                                "type": "uint256",
                                "value": "0"
                            },
                            {
                                "name": "to",
                                "type": "address",
                                "value": "0xed12310d5a37326e6506209c4838146950166760"
                            },
                            {
                                "name": "data",
                                "type": "bytes",
                                "value": "0x"
                            }
                        ],
                        "constructorArguments": "",
                        "name": "swap",
                        "returnParams": [],
                        "signature": "swap(uint256,uint256,address,bytes)"
                    },
                    "errorInfo": "",
                    "fromAddress": "0xed12310d5a37326e6506209c4838146950166760",
                    "gasUsed": 64942,
                    "id": 7,
                    "methodDecoded": true,
                    "operation": "CALL",
                    "output": "",
                    "revert": false,
                    "revertMessage": "",
                    "selector": "0x022c0d9f",
                    "status": true,
                    "value": "0"
                },
                "nodeType": 0
            },
            "8": {
                "invocation": {
                    "address": "0xc02aaa39b223fe8d0a0e5c4f27ead9083c756cc2",
                    "callData": "0x000000000000000000000000ed12310d5a37326e6506209c483814695016676000000000000000000000000000000000000000000000000003ab550436d1dda9",
                    "decodedMethod": {
                        "callParams": [
                            {
                                "name": "dst",
                                "type": "address",
                                "value": "0xed12310d5a37326e6506209c4838146950166760"
                            },
                            {
                                "decimalAvailable": true,
                                "name": "wad",
                                "type": "uint256",
                                "value": "264,398,479,719,259,561"
                            }
                        ],
                        "constructorArguments": "",
                        "name": "transfer",
                        "returnParams": [
                            {
                                "name": "",
                                "type": "bool",
                                "value": true
                            }
                        ],
                        "signature": "transfer(address,uint256)"
                    },
                    "errorInfo": "",
                    "fromAddress": "0xb7426bfd2abf64428fa82a71b0d44b056ffcc286",
                    "gasUsed": 29962,
                    "id": 8,
                    "methodDecoded": true,
                    "operation": "CALL",
                    "output": "0x0000000000000000000000000000000000000000000000000000000000000001",
                    "revert": false,
                    "revertMessage": "",
                    "selector": "0xa9059cbb",
                    "status": true,
                    "value": "0"
                },
                "nodeType": 0
            },
            "9": {
                "event": {
                    "contract": "0xc02aaa39b223fe8d0a0e5c4f27ead9083c756cc2",
                    "decodedLog": {
                        "name": "Transfer",
                        "params": [
                            {
                                "name": "src",
                                "type": "address",
                                "value": "0xb7426bfd2abf64428fa82a71b0d44b056ffcc286"
                            },
                            {
                                "name": "dst",
                                "type": "address",
                                "value": "0xed12310d5a37326e6506209c4838146950166760"
                            },
                            {
                                "decimalAvailable": true,
                                "name": "wad",
                                "type": "uint256",
                                "value": "264,398,479,719,259,561"
                            }
                        ],
                        "signature": "Transfer(address,address,uint256)"
                    },
                    "id": 9,
                    "logData": "0x00000000000000000000000000000000000000000000000003ab550436d1dda9",
                    "logDecoded": true,
                    "operation": "EVENT",
                    "revert": false,
                    "status": true,
                    "topics": [
                        "0xddf252ad1be2c89b69c2b068fc378daa952ba7f163c4a11628f55a4df523b3ef",
                        "0x000000000000000000000000b7426bfd2abf64428fa82a71b0d44b056ffcc286",
                        "0x000000000000000000000000ed12310d5a37326e6506209c4838146950166760"
                    ]
                },
                "nodeType": 1
            }
        },
        "gasFlame": [
            {
                "children": [
                    {
                        "children": [
                            {
                                "children": [],
                                "depth": 0,
                                "name": "Initial Gas",
                                "value": 22796
                            },
                            {
                                "children": [
                                    {
                                        "children": [
                                            {
                                                "children": [],
                                                "depth": 2,
                                                "name": "transferFrom",
                                                "value": 47734
                                            },
                                            {
                                                "children": [],
                                                "depth": 2,
                                                "name": "getReserves",
                                                "value": 2504
                                            },
                                            {
                                                "children": [],
                                                "depth": 2,
                                                "name": "balanceOf",
                                                "value": 623
                                            },
                                            {
                                                "children": [
                                                    {
                                                        "children": [],
                                                        "depth": 3,
                                                        "name": "transfer",
                                                        "value": 29962
                                                    },
                                                    {
                                                        "children": [],
                                                        "depth": 3,
                                                        "name": "balanceOf",
                                                        "value": 534
                                                    },
                                                    {
                                                        "children": [],
                                                        "depth": 3,
                                                        "name": "balanceOf",
                                                        "value": 623
                                                    }
                                                ],
                                                "depth": 2,
                                                "name": "swap",
                                                "value": 64942
                                            },
                                            {
                                                "children": [],
                                                "depth": 2,
                                                "name": "balanceOf",
                                                "value": 534
                                            },
                                            {
                                                "children": [
                                                    {
                                                        "children": [],
                                                        "depth": 3,
                                                        "name": "fallback",
                                                        "value": 55
                                                    }
                                                ],
                                                "depth": 2,
                                                "name": "withdraw",
                                                "value": 9195
                                            },
                                            {
                                                "children": [],
                                                "depth": 2,
                                                "name": "fallback",
                                                "value": 55
                                            }
                                        ],
                                        "depth": 1,
                                        "name": "swapExactTokensForETHSupportingFeeOnTransferTokens",
                                        "value": 144774
                                    },
                                    {
                                        "children": [],
                                        "depth": 1,
                                        "name": "fallback",
                                        "value": 0
                                    }
                                ],
                                "depth": 0,
                                "name": "Executed Gas",
                                "value": 161885
                            }
                        ],
                        "depth": -1,
                        "name": "Actual Gas Used",
                        "value": 161981
                    },
                    {
                        "children": [],
                        "depth": -1,
                        "name": "Refunded Gas",
                        "value": 22700
                    }
                ],
                "depth": -2,
                "name": "Total Gas",
                "value": 184681
            }
        ],
        "isConfirmed": true,
        "mainTrace": [
            {
                "children": [
                    {
                        "children": [
                            {
                                "children": [
                                    {
                                        "children": [
                                            {
                                                "children": [],
                                                "depth": 3,
                                                "id": 3,
                                                "order": 3
                                            },
                                            {
                                                "children": [],
                                                "depth": 3,
                                                "id": 4,
                                                "order": 4
                                            }
                                        ],
                                        "depth": 2,
                                        "id": 2,
                                        "order": 2
                                    },
                                    {
                                        "children": [],
                                        "depth": 2,
                                        "id": 5,
                                        "order": 5
                                    },
                                    {
                                        "children": [],
                                        "depth": 2,
                                        "id": 6,
                                        "order": 6
                                    },
                                    {
                                        "children": [
                                            {
                                                "children": [
                                                    {
                                                        "children": [],
                                                        "depth": 4,
                                                        "id": 9,
                                                        "order": 9
                                                    }
                                                ],
                                                "depth": 3,
                                                "id": 8,
                                                "order": 8
                                            },
                                            {
                                                "children": [],
                                                "depth": 3,
                                                "id": 10,
                                                "order": 10
                                            },
                                            {
                                                "children": [],
                                                "depth": 3,
                                                "id": 11,
                                                "order": 11
                                            },
                                            {
                                                "children": [],
                                                "depth": 3,
                                                "id": 12,
                                                "order": 12
                                            },
                                            {
                                                "children": [],
                                                "depth": 3,
                                                "id": 13,
                                                "order": 13
                                            }
                                        ],
                                        "depth": 2,
                                        "id": 7,
                                        "order": 7
                                    },
                                    {
                                        "children": [],
                                        "depth": 2,
                                        "id": 14,
                                        "order": 14
                                    },
                                    {
                                        "children": [
                                            {
                                                "children": [],
                                                "depth": 3,
                                                "id": 16,
                                                "order": 16
                                            },
                                            {
                                                "children": [],
                                                "depth": 3,
                                                "id": 17,
                                                "order": 17
                                            }
                                        ],
                                        "depth": 2,
                                        "id": 15,
                                        "order": 15
                                    },
                                    {
                                        "children": [],
                                        "depth": 2,
                                        "id": 18,
                                        "order": 18
                                    }
                                ],
                                "depth": 1,
                                "id": 1,
                                "order": 1
                            },
                            {
                                "children": [],
                                "depth": 1,
                                "id": 19,
                                "order": 19
                            }
                        ],
                        "depth": 0,
                        "id": 0,
                        "order": 0
                    }
                ],
                "depth": -1,
                "id": -1,
                "order": -1
            }
        ],
        "mainTraceNodeCount": 20,
        "parentIdMap": {
            "0": -1,
            "1": 0,
            "10": 7,
            "11": 7,
            "12": 7,
            "13": 7,
            "14": 1,
            "15": 1,
            "16": 15,
            "17": 15,
            "18": 1,
            "19": 0,
            "2": 1,
            "3": 2,
            "4": 2,
            "5": 1,
            "6": 1,
            "7": 1,
            "8": 7,
            "9": 8
        },
        "tidyTrace": [
            {
                "children": [
                    {
                        "children": [
                            {
                                "children": [
                                    {
                                        "children": [
                                            {
                                                "children": [],
                                                "depth": 3,
                                                "id": 3,
                                                "order": 3
                                            },
                                            {
                                                "children": [],
                                                "depth": 3,
                                                "id": 4,
                                                "order": 4
                                            }
                                        ],
                                        "depth": 2,
                                        "id": 2,
                                        "order": 2
                                    },
                                    {
                                        "children": [
                                            {
                                                "children": [
                                                    {
                                                        "children": [],
                                                        "depth": 4,
                                                        "id": 9,
                                                        "order": 9
                                                    }
                                                ],
                                                "depth": 3,
                                                "id": 8,
                                                "order": 8
                                            },
                                            {
                                                "children": [],
                                                "depth": 3,
                                                "id": 12,
                                                "order": 12
                                            },
                                            {
                                                "children": [],
                                                "depth": 3,
                                                "id": 13,
                                                "order": 13
                                            }
                                        ],
                                        "depth": 2,
                                        "id": 7,
                                        "order": 7
                                    },
                                    {
                                        "children": [
                                            {
                                                "children": [],
                                                "depth": 3,
                                                "id": 16,
                                                "order": 16
                                            },
                                            {
                                                "children": [],
                                                "depth": 3,
                                                "id": 17,
                                                "order": 17
                                            }
                                        ],
                                        "depth": 2,
                                        "id": 15,
                                        "order": 15
                                    },
                                    {
                                        "children": [],
                                        "depth": 2,
                                        "id": 18,
                                        "order": 18
                                    }
                                ],
                                "depth": 1,
                                "id": 1,
                                "order": 1
                            },
                            {
                                "children": [],
                                "depth": 1,
                                "id": 19,
                                "order": 19
                            }
                        ],
                        "depth": 0,
                        "id": 0,
                        "order": 0
                    }
                ],
                "depth": -1,
                "id": -1,
                "order": -1
            }
        ],
        "tidyTraceNodeCount": 15
    },
    "state_change": {
        "stateChanges": [
            {
                "address": "0xb7426bfd2abf64428fa82a71b0d44b056ffcc286",
                "erc": "ERC-20",
                "slots": [
                    {
                        "current": "0x000000000000000000000000000000000000000073d347ab5b96c636f75b4988",
                        "key": "0x000000000000000000000000000000000000000000000000000000000000000a",
                        "prev": "0x000000000000000000000000000000000000000073d229752a1becc07bdecaa8"
                    },
                    {
                        "current": "0x65a505d300c163134448bda7f40b3119b20b000000000011fd1dbdf8b3e56639",
                        "key": "0x0000000000000000000000000000000000000000000000000000000000000008",
                        "prev": "0x65a505c700c13b8ab9b4981c72ffda2373ba00000000001200c912fceab743e2"
                    },
                    {
                        "current": "0x0000000000000000000d818020852897d8e45bf7b6a24b4e0630e2a252caa218",
                        "key": "0x0000000000000000000000000000000000000000000000000000000000000009",
                        "prev": "0x0000000000000000000d818020045bda2890a7206ede3215537c96bedcd8e890"
                    }
                ],
                "storageVariables": [
                    {
                        "name": "price1CumulativeLast",
                        "type": "uint256",
                        "value": {
                            "current": "35846197926406570251694852488",
                            "prev": "35844846329902888394929654440",
                            "typeTag": 1
                        }
                    },
                    {
                        "name": "reserve0",
                        "type": "uint112",
                        "value": {
                            "current": "331833592194850448953",
                            "prev": "332097990674569708514",
                            "typeTag": 1
                        }
                    },
                    {
                        "name": "reserve1",
                        "type": "uint112",
                        "value": {
                            "current": "15321697673278655563678202049035",
                            "prev": "15309462689564757359623252702138",
                            "typeTag": 1
                        }
                    },
                    {
                        "name": "blockTimestampLast",
                        "type": "uint32",
                        "value": {
                            "current": "1705313747",
                            "prev": "1705313735",
                            "typeTag": 1
                        }
                    },
                    {
                        "name": "price0CumulativeLast",
                        "type": "uint256",
                        "value": {
                            "current": "1293604514891568731101514742432854930569265998910366232",
                            "prev": "1293604512019237891613412045233090683607279795596486800",
                            "typeTag": 1
                        }
                    }
                ]
            },
            {
                "address": "0xc02aaa39b223fe8d0a0e5c4f27ead9083c756cc2",
                "erc": "ERC-20",
                "slots": [
                    {
                        "current": "0x000000000000000000000000000000000000000000000011fd1dbdf8b3e56639",
                        "key": "0xd2a4fb9256d3f682816966e368ba172afa53032ac6b97796def30f968cf794af",
                        "prev": "0x00000000000000000000000000000000000000000000001200c912fceab743e2"
                    }
                ],
                "storageVariables": [
                    {
                        "name": "balanceOf",
                        "type": "mapping(address => uint256)",
                        "value": {
                            "pairs": [
                                {
                                    "key": "0xb7426bfd2abf64428fa82a71b0d44b056ffcc286",
                                    "value": {
                                        "current": "331833592194850448953",
                                        "prev": "332097990674569708514",
                                        "typeTag": 1
                                    }
                                }
                            ],
                            "typeTag": 4
                        }
                    }
                ]
            },
            {
                "address": "0xf8ebf4849f1fa4faf0dff2106a173d3a6cb2eb3a",
                "erc": "ERC-20",
                "slots": [
                    {
                        "current": "0xffffffffffffffffffffffffffffffffffffffff454115e2df7c6d3616604224",
                        "key": "0x9d9a70de7ceb0f8bf98d9b4c0ebf915123e3f58a9361d1931acc4245ba7ce595",
                        "prev": "0xffffffffffffffffffffffffffffffffffffffff6cc9a0770507ee416d568075"
                    },
                    {
                        "current": "0x000000000000000000000000000000000000000027888a94258b810b56f63e52",
                        "key": "0xacc1602f72e461b35a23b19f7afd27134a9ce79fb1c5144481c2938600e87cba",
                        "prev": "0x00000000000000000000000000000000000000004f1115284b170216adec7ca3"
                    },
                    {
                        "current": "0x00000000000000000000000000000000000000c163134448bda7f40b3119b20b",
                        "key": "0xd424e95c832c4730df380be02bd67bf07cc292583e313a6e7d13f769a76fe99d",
                        "prev": "0x00000000000000000000000000000000000000c13b8ab9b4981c72ffda2373ba"
                    }
                ],
                "storageVariables": [
                    {
                        "name": "_allowances",
                        "type": "mapping(address => mapping(address => uint256))",
                        "value": {
                            "pairs": [
                                {
                                    "key": "0x27aa9f1f479ece342210965cfa92133d5b5308a6",
                                    "value": {
                                        "pairs": [
                                            {
                                                "key": "0xed12310d5a37326e6506209c4838146950166760",
                                                "value": {
                                                    "current": "115792089237316195423570985008687907853269984665582769026154031598325500756516",
                                                    "prev": "115792089237316195423570985008687907853269984665595004009867929802380450103413",
                                                    "typeTag": 1
                                                }
                                            }
                                        ],
                                        "typeTag": 4
                                    }
                                }
                            ],
                            "typeTag": 4
                        }
                    },
                    {
                        "name": "_balances",
                        "type": "mapping(address => uint256)",
                        "value": {
                            "pairs": [
                                {
                                    "key": "0x27aa9f1f479ece342210965cfa92133d5b5308a6",
                                    "value": {
                                        "current": "12234983713898204054949346898",
                                        "prev": "24469967427796408109898693795",
                                        "typeTag": 1
                                    }
                                },
                                {
                                    "key": "0xb7426bfd2abf64428fa82a71b0d44b056ffcc286",
                                    "value": {
                                        "current": "15321697673278655563678202049035",
                                        "prev": "15309462689564757359623252702138",
                                        "typeTag": 1
                                    }
                                }
                            ],
                            "typeTag": 4
                        }
                    }
                ]
            }
        ]
    }
}