{
    "balance_change": {
        "balanceChanges": [
            {
                "account": "0x4dda01c36d0eac7db876ea8ffa75ffe72faa7aac",
                "assets": [
                    {
                        "address": "0x97a9a15168c22b3c137e6381037e1499c8ad0978",
                        "amount": "467.76",
                        "iconUrl": "",
                        "isERC1155": false,
                        "isERC721": false,
                        "sign": true,
                        "value": ""
                    }
                ]
            },
            {
                "account": "0x6e97eac711f309bf18d536a92428b13280d6f6e7",
                "assets": [
                    {
                        "address": "0x97a9a15168c22b3c137e6381037e1499c8ad0978",
                        "amount": "467.76",
                        "iconUrl": "",
                        "isERC1155": false,
                        "isERC721": false,
                        "sign": false,
                        "value": ""
                    }
                ]
            }
        ]
    },
    "profile": {
        "basic_info": {
            "baseFee": "5.139508351",
            "blockNumber": 19846268,
            "callData": "0x83092e470000000000000000000000000000000000000000000000195b7959b388b80000000000000000000000000000000000000000000000000000000000000000012000000000000000000000000000000000000000000000000000000000000003c000000000000000000000000000000000000000000000000000000000000003e0000000000000000000000000000000000000000000000000000000000000000000000000000000000000000000000000000000000000000000000000000000000000000000000000000000000000000000000000000000000000000000000000000000000000000000000000000000000000000000000000000000000000000000000000000000000000000000000000000000000000000000000000000000000000000000000000000000000000000000000000000000000000000000000014b93138624538111fa1332c9d471835a11cded78e94800b57d819d707ee3b13ad02d94f597ee76d243e45a13b9cea672e3a7299596b8ff1a5c3ece47f7a2a011a0aa9e46612b2d211c16621357a15803631e40722e41544123a15992005ef47f8da43a8d29024f47724394900bb2c420c0cb654ee8c8d1b4c09260db85bfb1793a382a5ec1c99601e23a938db9c867fb7c26a4f7287cffb2c953ef0266e1a4dcb300544496c8c3df3318b8c06cf90b8f4583510c185cb0fcea787cf2923a6114326091ba86eaee61415937479be186ac7434958e51702807785f0878071171245c80c6ea51768df0c410f9c8700d577c94fe1a3940fb199c52d00e22b7893b258d748749bd4439b857a337522cffca8c9be62387ff678f01274423f778db55cd8cbef40f65fa5c345ccee658543ff78c421084aa5d689d6b5a57f50b31b781f5803256317f69588cf1cbbc7570e8fe0f787a945d1543721fdcc4c1dd947429cca84e25a307cf32b042194d553344ed3cff4646f33082e1d09e8c3a93ca896afe21ebf016e2923f5a1bf017bf51927a92ebe547f977372cb3f476ac9349346acc52bebeb9ecd0c8151c939ff6cfa58f324bd2017f0b1d2d1f85767f757d01b2fec5df380c65ee019bc5dfc14ef1db48dcb43778d8f967f9a336a52816a2880e88b2983d9c9be31414f6acc7c18a11ec240c5705547880d227fca9b37637ca6272b70af66395a6d48b193d29385458bd152f59d1ebffd7ff957617cd3c436b9a8fac852d8c4bb565591ea8d7323451a8c37f134eebe430418a8f0a1673fa9703ea78e585ed41a83f638b4165bdbd0adae40c4bc22b09173eda61e52db88fa2b25b313873d0cedc2e2e752fe449bb7c0a0ca3fbeca803ffab475b40171e94f031b5700000000000000000000000000000000000000000000000000000000000000000000000000000000000000000000000000000000000000000000000000000000",
            "debugEnable": true,
            "errorInfo": "",
            "eventCount": 2,
            "feeRecipient": "0x95222290dd7278aa3ddd389cc1e1d165cc4bafe5",
            "formatValue": "0",
            "gasLimit": 131064,
            "gasPrice": "8.057115338",
            "gasUsed": 125683,
            "intTxnCount": 1,
            "internalRevert": false,
            "internalRevertMessage": "",
            "isContractCreation": false,
            "isFlashloan": false,
            "maxFee": "8.057115338",
            "nonce": 4,
            "overwritedBlockNumber": -1,
            "priorityFee": "8.057115338",
            "receiver": "0x35f4817b14718c66dbbdba085f5f8d2c3a4aa420",
            "revertMessage": "",
            "sender": "0x4dda01c36d0eac7db876ea8ffa75ffe72faa7aac",
            "simulationEnable": true,
            "sourceTxnHash": "0x54c0007406cf847ee5f2afafd23db19dda1c4f361505c2b284a8cb63b3e35594",
            "status": true,
            "timestamp": "2024-05-11T10:43:11Z",
            "transactionFee": "0.001012642427025854",
            "txnHash": "0x54c0007406cf847ee5f2afafd23db19dda1c4f361505c2b284a8cb63b3e35594",
            "txnIndex": 28,
            "type": 2,
            "value": "0"
        },
        "fund_flow": [
            {
                "amount": "467.76",
                "from": "0x6e97eac711f309bf18d536a92428b13280d6f6e7",
                "id": 1,
                "isERC1155": false,
                "isERC721": false,
                "isReverted": false,
                "order": 1,
                "to": "0x4dda01c36d0eac7db876ea8ffa75ffe72faa7aac",
                "token": "0x97a9a15168c22b3c137e6381037e1499c8ad0978"
            }
        ],
        "token_infos": [
            {
                "address": "0xc02aaa39b223fe8d0a0e5c4f27ead9083c756cc2",
                "decimals": 18
            },
            {
                "address": "0xeeeeeeeeeeeeeeeeeeeeeeeeeeeeeeeeeeeeeeee",
                "decimals": 18
            },
            {
                "address": "0x97a9a15168c22b3c137e6381037e1499c8ad0978",
                "decimals": 18
            }
        ]
    },
    "address_label": {
        "labels": [
            {
                "address": "0x97a9a15168c22b3c137e6381037e1499c8ad0978",
                "label": "Data Ownership Protocol: DOP Token"
            },
            {
                "address": "0x6e97eac711f309bf18d536a92428b13280d6f6e7",
                "label": "GnosisSafeProxy_6e97_f6e7"
            },
            {
                "address": "0x35f4817b14718c66dbbdba085f5f8d2c3a4aa420",
                "label": "DopClaims"
            },
            {
                "address": "0x0000000000000000000000000000000000000001",
                "label": "Precompiled"
            },
            {
                "address": "0x0000000000000000000000000000000000000002",
                "label": "Precompiled"
            },
            {
                "address": "0x0000000000000000000000000000000000000003",
                "label": "Precompiled"
            },
            {
                "address": "0x0000000000000000000000000000000000000004",
                "label": "Precompiled"
            },
            {
                "address": "0xeeeeeeeeeeeeeeeeeeeeeeeeeeeeeeeeeeeeeeee",
                "label": "Ether"
            }
        ]
    },
    "trace": {
        "accountLabels": null,
        "dataMap": {
            "-1": {
                "invocation": {
                    "address": "0x4dda01c36d0eac7db876ea8ffa75ffe72faa7aac",
                    "callData": "",
                    "decodedMethod": null,
                    "errorInfo": "",
                    "fromAddress": "",
                    "gasUsed": 0,
                    "id": -1,
                    "methodDecoded": false,
                    "operation": "",
                    "output": "",
                    "revert": false,
                    "revertMessage": "",
                    "selector": "",
                    "status": false,
                    "value": ""
                },
                "nodeType": 0
            },
            "0": {
                "invocation": {
                    "address": "0x35f4817b14718c66dbbdba085f5f8d2c3a4aa420",
                    "callData": "0x0000000000000000000000000000000000000000000000195b7959b388b80000000000000000000000000000000000000000000000000000000000000000012000000000000000000000000000000000000000000000000000000000000003c000000000000000000000000000000000000000000000000000000000000003e0000000000000000000000000000000000000000000000000000000000000000000000000000000000000000000000000000000000000000000000000000000000000000000000000000000000000000000000000000000000000000000000000000000000000000000000000000000000000000000000000000000000000000000000000000000000000000000000000000000000000000000000000000000000000000000000000000000000000000000000000000000000000000000000014b93138624538111fa1332c9d471835a11cded78e94800b57d819d707ee3b13ad02d94f597ee76d243e45a13b9cea672e3a7299596b8ff1a5c3ece47f7a2a011a0aa9e46612b2d211c16621357a15803631e40722e41544123a15992005ef47f8da43a8d29024f47724394900bb2c420c0cb654ee8c8d1b4c09260db85bfb1793a382a5ec1c99601e23a938db9c867fb7c26a4f7287cffb2c953ef0266e1a4dcb300544496c8c3df3318b8c06cf90b8f4583510c185cb0fcea787cf2923a6114326091ba86eaee61415937479be186ac7434958e51702807785f0878071171245c80c6ea51768df0c410f9c8700d577c94fe1a3940fb199c52d00e22b7893b258d748749bd4439b857a337522cffca8c9be62387ff678f01274423f778db55cd8cbef40f65fa5c345ccee658543ff78c421084aa5d689d6b5a57f50b31b781f5803256317f69588cf1cbbc7570e8fe0f787a945d1543721fdcc4c1dd947429cca84e25a307cf32b042194d553344ed3cff4646f33082e1d09e8c3a93ca896afe21ebf016e2923f5a1bf017bf51927a92ebe547f977372cb3f476ac9349346acc52bebeb9ecd0c8151c939ff6cfa58f324bd2017f0b1d2d1f85767f757d01b2fec5df380c65ee019bc5dfc14ef1db48dcb43778d8f967f9a336a52816a2880e88b2983d9c9be31414f6acc7c18a11ec240c5705547880d227fca9b37637ca6272b70af66395a6d48b193d29385458bd152f59d1ebffd7ff957617cd3c436b9a8fac852d8c4bb565591ea8d7323451a8c37f134eebe430418a8f0a1673fa9703ea78e585ed41a83f638b4165bdbd0adae40c4bc22b09173eda61e52db88fa2b25b313873d0cedc2e2e752fe449bb7c0a0ca3fbeca803ffab475b40171e94f031b5700000000000000000000000000000000000000000000000000000000000000000000000000000000000000000000000000000000000000000000000000000000",
                    "decodedMethod": {
                        "callParams": [
                            {
                                "name": "amountToClaim",
                                "type": "uint256",
                                "value": "467,760,000,000,000,000,000"
                            },
                            {
                                "name": "merkleProof",
                                "type": "bytes32[]",
                                "value": [
                                    "0xb93138624538111fa1332c9d471835a11cded78e94800b57d819d707ee3b13ad",
                                    "0x02d94f597ee76d243e45a13b9cea672e3a7299596b8ff1a5c3ece47f7a2a011a",
                                    "0x0aa9e46612b2d211c16621357a15803631e40722e41544123a15992005ef47f8",
                                    "0xda43a8d29024f47724394900bb2c420c0cb654ee8c8d1b4c09260db85bfb1793",
                                    "0xa382a5ec1c99601e23a938db9c867fb7c26a4f7287cffb2c953ef0266e1a4dcb",
                                    "0x300544496c8c3df3318b8c06cf90b8f4583510c185cb0fcea787cf2923a61143",
                                    "0x26091ba86eaee61415937479be186ac7434958e51702807785f0878071171245",
                                    "0xc80c6ea51768df0c410f9c8700d577c94fe1a3940fb199c52d00e22b7893b258",
                                    "0xd748749bd4439b857a337522cffca8c9be62387ff678f01274423f778db55cd8",
                                    "0xcbef40f65fa5c345ccee658543ff78c421084aa5d689d6b5a57f50b31b781f58",
                                    "0x03256317f69588cf1cbbc7570e8fe0f787a945d1543721fdcc4c1dd947429cca",
                                    "0x84e25a307cf32b042194d553344ed3cff4646f33082e1d09e8c3a93ca896afe2",
                                    "0x1ebf016e2923f5a1bf017bf51927a92ebe547f977372cb3f476ac9349346acc5",
                                    "0x2bebeb9ecd0c8151c939ff6cfa58f324bd2017f0b1d2d1f85767f757d01b2fec",
                                    "0x5df380c65ee019bc5dfc14ef1db48dcb43778d8f967f9a336a52816a2880e88b",
                                    "0x2983d9c9be31414f6acc7c18a11ec240c5705547880d227fca9b37637ca6272b",
                                    "0x70af66395a6d48b193d29385458bd152f59d1ebffd7ff957617cd3c436b9a8fa",
                                    "0xc852d8c4bb565591ea8d7323451a8c37f134eebe430418a8f0a1673fa9703ea7",
                                    "0x8e585ed41a83f638b4165bdbd0adae40c4bc22b09173eda61e52db88fa2b25b3",
                                    "0x13873d0cedc2e2e752fe449bb7c0a0ca3fbeca803ffab475b40171e94f031b57"
                                ]
                            },
                            {
                                "name": "ids",
                                "type": "uint256[]",
                                "value": []
                            },
                            {
                                "name": "quantity",
                                "type": "uint256[]",
                                "value": []
                            },
                            {
                                "name": "claimNFT",
                                "type": "bool",
                                "value": false
                            },
                            {
                                "name": "isKycRequired",
                                "type": "bool",
                                "value": false
                            },
                            {
                                "name": "v",
                                "type": "uint8",
                                "value": "0"
                            },
                            {
                                "name": "r",
                                "type": "bytes32",
                                "value": "0x0000000000000000000000000000000000000000000000000000000000000000"
                            },
                            {
                                "name": "s",
                                "type": "bytes32",
                                "value": "0x0000000000000000000000000000000000000000000000000000000000000000"
                            }
                        ],
                        "constructorArguments": "",
                        "name": "claimDop",
                        "returnParams": [],
                        "signature": "claimDop(uint256,bytes32[],uint256[],uint256[],bool,bool,uint8,bytes32,bytes32)"
                    },
                    "errorInfo": "",
                    "fromAddress": "0x4dda01c36d0eac7db876ea8ffa75ffe72faa7aac",
                    "gasUsed": 125683,
                    "id": 0,
                    "methodDecoded": true,
                    "operation": "CALL",
                    "output": "",
                    "revert": false,
                    "revertMessage": "",
                    "selector": "0x83092e47",
                    "status": true,
                    "value": "0"
                },
                "nodeType": 0
            },
            "1": {
                "invocation": {
                    "address": "0x97a9a15168c22b3c137e6381037e1499c8ad0978",
                    "callData": "0x0000000000000000000000006e97eac711f309bf18d536a92428b13280d6f6e70000000000000000000000004dda01c36d0eac7db876ea8ffa75ffe72faa7aac0000000000000000000000000000000000000000000000195b7959b388b80000",
                    "decodedMethod": {
                        "callParams": [
                            {
                                "name": "from",
                                "type": "address",
                                "value": "0x6e97eac711f309bf18d536a92428b13280d6f6e7"
                            },
                            {
                                "name": "to",
                                "type": "address",
                                "value": "0x4dda01c36d0eac7db876ea8ffa75ffe72faa7aac"
                            },
                            {
                                "decimalAvailable": true,
                                "name": "value",
                                "type": "uint256",
                                "value": "467,760,000,000,000,000,000"
                            }
                        ],
                        "constructorArguments": "",
                        "name": "transferFrom",
                        "returnParams": [
                            {
                                "name": "",
                                "type": "bool",
                                "value": true
                            }
                        ],
                        "signature": "transferFrom(address,address,uint256)"
                    },
                    "errorInfo": "",
                    "fromAddress": "0x35f4817b14718c66dbbdba085f5f8d2c3a4aa420",
                    "gasUsed": 39836,
                    "id": 1,
                    "methodDecoded": true,
                    "operation": "CALL",
                    "output": "0x0000000000000000000000000000000000000000000000000000000000000001",
                    "revert": false,
                    "revertMessage": "",
                    "selector": "0x23b872dd",
                    "status": true,
                    "value": "0"
                },
                "nodeType": 0
            },
            "2": {
                "event": {
                    "contract": "0x97a9a15168c22b3c137e6381037e1499c8ad0978",
                    "decodedLog": {
                        "name": "Transfer",
                        "params": [
                            {
                                "name": "from",
                                "type": "address",
                                "value": "0x6e97eac711f309bf18d536a92428b13280d6f6e7"
                            },
                            {
                                "name": "to",
                                "type": "address",
                                "value": "0x4dda01c36d0eac7db876ea8ffa75ffe72faa7aac"
                            },
                            {
                                "decimalAvailable": true,
                                "name": "value",
                                "type": "uint256",
                                "value": "467,760,000,000,000,000,000"
                            }
                        ],
                        "signature": "Transfer(address,address,uint256)"
                    },
                    "id": 2,
                    "logData": "0x0000000000000000000000000000000000000000000000195b7959b388b80000",
                    "logDecoded": true,
                    "operation": "EVENT",
                    "revert": false,
                    "status": true,
                    "topics": [
                        "0xddf252ad1be2c89b69c2b068fc378daa952ba7f163c4a11628f55a4df523b3ef",
                        "0x0000000000000000000000006e97eac711f309bf18d536a92428b13280d6f6e7",
                        "0x0000000000000000000000004dda01c36d0eac7db876ea8ffa75ffe72faa7aac"
                    ]
                },
                "nodeType": 1
            },
            "3": {
                "event": {
                    "contract": "0x35f4817b14718c66dbbdba085f5f8d2c3a4aa420",
                    "decodedLog": {
                        "name": "Claimed",
                        "params": [
                            {
                                "name": "by",
                                "type": "address",
                                "value": "0x4dda01c36d0eac7db876ea8ffa75ffe72faa7aac"
                            },
                            {
                                "name": "ids",
                                "type": "uint256[]",
                                "value": "0xc5d2460186f7233c927e7db2dcc703c0e500b653ca82273b7bfad8045d85a470"
                            },
                            {
                                "name": "quantity",
                                "type": "uint256[]",
                                "value": "0xc5d2460186f7233c927e7db2dcc703c0e500b653ca82273b7bfad8045d85a470"
                            },
                            {
                                "name": "dopAmount",
                                "type": "uint256",
                                "value": "467,760,000,000,000,000,000"
                            }
                        ],
                        "signature": "Claimed(address,uint256,uint256[],uint256[])"
                    },
                    "id": 3,
                    "logData": "0x0000000000000000000000000000000000000000000000195b7959b388b80000",
                    "logDecoded": true,
                    "operation": "EVENT",
                    "revert": false,
                    "status": true,
                    "topics": [
                        "0x42103fa0eeaa26645ba1c99347e3c5a902bdf5fe04e611affb25c41d72e438aa",
                        "0x0000000000000000000000004dda01c36d0eac7db876ea8ffa75ffe72faa7aac",
                        "0xc5d2460186f7233c927e7db2dcc703c0e500b653ca82273b7bfad8045d85a470",
                        "0xc5d2460186f7233c927e7db2dcc703c0e500b653ca82273b7bfad8045d85a470"
                    ]
                },
                "nodeType": 1
            }
        },
        "gasFlame": [
            {
                "children": [
                    {
                        "children": [
                            {
                                "children": [],
                                "depth": 0,
                                "name": "Initial Gas",
                                "value": 32972
                            },
                            {
                                "children": [
                                    {
                                        "children": [],
                                        "depth": 1,
                                        "name": "transferFrom",
                                        "value": 39836
                                    }
                                ],
                                "depth": 0,
                                "name": "Executed Gas",
                                "value": 95511
                            }
                        ],
                        "depth": -1,
                        "name": "Actual Gas Used",
                        "value": 125683
                    },
                    {
                        "children": [],
                        "depth": -1,
                        "name": "Refunded Gas",
                        "value": 2800
                    }
                ],
                "depth": -2,
                "name": "Total Gas",
                "value": 128483
            }
        ],
        "isConfirmed": true,
        "mainTrace": [
            {
                "children": [
                    {
                        "children": [
                            {
                                "children": [
                                    {
                                        "children": [],
                                        "depth": 2,
                                        "id": 2,
                                        "order": 2
                                    }
                                ],
                                "depth": 1,
                                "id": 1,
                                "order": 1
                            },
                            {
                                "children": [],
                                "depth": 1,
                                "id": 3,
                                "order": 3
                            }
                        ],
                        "depth": 0,
                        "id": 0,
                        "order": 0
                    }
                ],
                "depth": -1,
                "id": -1,
                "order": -1
            }
        ],
        "mainTraceNodeCount": 4,
        "parentIdMap": {
            "0": -1,
            "1": 0,
            "2": 1,
            "3": 0
        },
        "tidyTrace": [
            {
                "children": [
                    {
                        "children": [
                            {
                                "children": [
                                    {
                                        "children": [],
                                        "depth": 2,
                                        "id": 2,
                                        "order": 2
                                    }
                                ],
                                "depth": 1,
                                "id": 1,
                                "order": 1
                            },
                            {
                                "children": [],
                                "depth": 1,
                                "id": 3,
                                "order": 3
                            }
                        ],
                        "depth": 0,
                        "id": 0,
                        "order": 0
                    }
                ],
                "depth": -1,
                "id": -1,
                "order": -1
            }
        ],
        "tidyTraceNodeCount": 4
    },
    "state_change": {
        "stateChanges": [
            {
                "address": "0x35f4817b14718c66dbbdba085f5f8d2c3a4aa420",
                "erc": "",
                "slots": [
                    {
                        "current": "0x0000000000000000000000000000000000000000000000000000000000000001",
                        "key": "0xd21bae06b8b58420e65f12771f7336a1f3b87b49431c64e50f113449bd92d1e4",
                        "prev": "0x0000000000000000000000000000000000000000000000000000000000000000"
                    }
                ],
                "storageVariables": [
                    {
                        "name": "isClaimed",
                        "type": "mapping(address => bool)",
                        "value": {
                            "pairs": [
                                {
                                    "key": "0x4dda01c36d0eac7db876ea8ffa75ffe72faa7aac",
                                    "value": {
                                        "current": "true",
                                        "prev": "false",
                                        "typeTag": 1
                                    }
                                }
                            ],
                            "typeTag": 4
                        }
                    }
                ]
            },
            {
                "address": "0x97a9a15168c22b3c137e6381037e1499c8ad0978",
                "erc": "ERC-20",
                "slots": [
                    {
                        "current": "0x000000000000000000000000000000000000000007acbab874795764b8b9fc38",
                        "key": "0x4fae244fabdd309b0e1e052bc26e5224005d090a62bda53784800c82c9830278",
                        "prev": "0x000000000000000000000000000000000000000007acbad1cff2b1184171fc38"
                    },
                    {
                        "current": "0x000000000000000000000000000000000000000007acbab874795764b8b9fc38",
                        "key": "0xd5e3b5e1e724bdb681be1901ce0c972ff36a91739e0eb13a8af11d7fee2930b6",
                        "prev": "0x000000000000000000000000000000000000000007acbad1cff2b1184171fc38"
                    },
                    {
                        "current": "0x0000000000000000000000000000000000000000000000195b7959b388b80000",
                        "key": "0xaee3b522958138be5f713032cabc173aa73e60fa8b16ebd86b0da8cd397f362a",
                        "prev": "0x0000000000000000000000000000000000000000000000000000000000000000"
                    }
                ],
                "storageVariables": [
                    {
                        "name": "_allowances",
                        "type": "mapping(address => mapping(address => uint256))",
                        "value": {
                            "pairs": [
                                {
                                    "key": "0x6e97eac711f309bf18d536a92428b13280d6f6e7",
                                    "value": {
                                        "pairs": [
                                            {
                                                "key": "0x35f4817b14718c66dbbdba085f5f8d2c3a4aa420",
                                                "value": {
                                                    "current": "2375212072482690486379347000",
                                                    "prev": "2375212540242690486379347000",
                                                    "typeTag": 1
                                                }
                                            }
                                        ],
                                        "typeTag": 4
                                    }
                                }
                            ],
                            "typeTag": 4
                        }
                    },
                    {
                        "name": "_balances",
                        "type": "mapping(address => uint256)",
                        "value": {
                            "pairs": [
                                {
                                    "key": "0x4dda01c36d0eac7db876ea8ffa75ffe72faa7aac",
                                    "value": {
                                        "current": "467760000000000000000",
                                        "prev": "0",
                                        "typeTag": 1
                                    }
                                },
                                {
                                    "key": "0x6e97eac711f309bf18d536a92428b13280d6f6e7",
                                    "value": {
                                        "current": "2375212072482690486379347000",
                                        "prev": "2375212540242690486379347000",
                                        "typeTag": 1
                                    }
                                }
                            ],
                            "typeTag": 4
                        }
                    }
                ]
            }
        ]
    }
}