{
    "balance_change": {
        "balanceChanges": [
            {
                "account": "0x46340b20830761efd32832a74d7169b29feb9758",
                "assets": [
                    {
                        "address": "0xdac17f958d2ee523a2206206994597c13d831ec7",
                        "amount": "260",
                        "iconUrl": "https://assets.blocksec.com/icon/fcea71f3193ce895be44bfdf941f7e4c9381dd587f273c2d1a27f1263d84e4ea.png",
                        "isERC1155": false,
                        "isERC721": false,
                        "sign": false,
                        "value": "260.261521"
                    }
                ]
            },
            {
                "account": "0xd69f1fd09382e6e0138cefd6aa3de11d14313d25",
                "assets": [
                    {
                        "address": "0xdac17f958d2ee523a2206206994597c13d831ec7",
                        "amount": "260",
                        "iconUrl": "https://assets.blocksec.com/icon/fcea71f3193ce895be44bfdf941f7e4c9381dd587f273c2d1a27f1263d84e4ea.png",
                        "isERC1155": false,
                        "isERC721": false,
                        "sign": true,
                        "value": "260.261521"
                    }
                ]
            }
        ]
    },
    "profile": {
        "basic_info": {
            "baseFee": "",
            "blockNumber": 12327610,
            "callData": "0xa9059cbb000000000000000000000000d69f1fd09382e6e0138cefd6aa3de11d14313d25000000000000000000000000000000000000000000000000000000000f7f4900",
            "debugEnable": true,
            "errorInfo": "",
            "eventCount": 1,
            "feeRecipient": "0x2f731c3e8cd264371ffdb635d07c14a6303df52a",
            "formatValue": "0",
            "gasLimit": 300000,
            "gasPrice": "46",
            "gasUsed": 63197,
            "intTxnCount": 0,
            "internalRevert": false,
            "internalRevertMessage": "",
            "isContractCreation": false,
            "isFlashloan": false,
            "maxFee": "",
            "nonce": 1963816,
            "overwritedBlockNumber": -1,
            "priorityFee": "",
            "receiver": "0xdac17f958d2ee523a2206206994597c13d831ec7",
            "revertMessage": "",
            "sender": "0x46340b20830761efd32832a74d7169b29feb9758",
            "simulationEnable": true,
            "sourceTxnHash": "0x543d1d3cdcb60e8ebb4043a6c5ffdf123e6f579a68c82d9d48131785e30a9908",
            "status": true,
            "timestamp": "2021-04-28T07:39:13Z",
            "transactionFee": "0.002907062",
            "txnHash": "0x543d1d3cdcb60e8ebb4043a6c5ffdf123e6f579a68c82d9d48131785e30a9908",
            "txnIndex": 189,
            "type": 0,
            "value": "0"
        },
        "fund_flow": [
            {
                "amount": "260",
                "from": "0x46340b20830761efd32832a74d7169b29feb9758",
                "id": 1,
                "isERC1155": false,
                "isERC721": false,
                "isReverted": false,
                "order": 1,
                "to": "0xd69f1fd09382e6e0138cefd6aa3de11d14313d25",
                "token": "0xdac17f958d2ee523a2206206994597c13d831ec7"
            }
        ],
        "token_infos": [
            {
                "address": "0xdac17f958d2ee523a2206206994597c13d831ec7",
                "decimals": 6
            },
            {
                "address": "0xeeeeeeeeeeeeeeeeeeeeeeeeeeeeeeeeeeeeeeee",
                "decimals": 18
            },
            {
                "address": "0xc02aaa39b223fe8d0a0e5c4f27ead9083c756cc2",
                "decimals": 18
            }
        ]
    },
    "address_label": {
        "labels": [
            {
                "address": "0xeeeeeeeeeeeeeeeeeeeeeeeeeeeeeeeeeeeeeeee",
                "label": "Ether"
            },
            {
                "address": "0x46340b20830761efd32832a74d7169b29feb9758",
                "label": "Crypto.com 2"
            },
            {
                "address": "0xdac17f958d2ee523a2206206994597c13d831ec7",
                "label": "Tether: USDT Stablecoin"
            },
            {
                "address": "0x0000000000000000000000000000000000000001",
                "label": "Precompiled"
            },
            {
                "address": "0x0000000000000000000000000000000000000002",
                "label": "Precompiled"
            },
            {
                "address": "0x0000000000000000000000000000000000000003",
                "label": "Precompiled"
            },
            {
                "address": "0x0000000000000000000000000000000000000004",
                "label": "Precompiled"
            }
        ]
    },
    "trace": {
        "accountLabels": null,
        "dataMap": {
            "-1": {
                "invocation": {
                    "address": "0x46340b20830761efd32832a74d7169b29feb9758",
                    "callData": "",
                    "decodedMethod": null,
                    "errorInfo": "",
                    "fromAddress": "",
                    "gasUsed": 0,
                    "id": -1,
                    "methodDecoded": false,
                    "operation": "",
                    "output": "",
                    "revert": false,
                    "revertMessage": "",
                    "selector": "",
                    "status": false,
                    "value": ""
                },
                "nodeType": 0
            },
            "0": {
                "invocation": {
                    "address": "0xdac17f958d2ee523a2206206994597c13d831ec7",
                    "callData": "0x000000000000000000000000d69f1fd09382e6e0138cefd6aa3de11d14313d25000000000000000000000000000000000000000000000000000000000f7f4900",
                    "decodedMethod": {
                        "callParams": [
                            {
                                "name": "_to",
                                "type": "address",
                                "value": "0xd69f1fd09382e6e0138cefd6aa3de11d14313d25"
                            },
                            {
                                "decimalAvailable": true,
                                "name": "_value",
                                "type": "uint256",
                                "value": "260,000,000"
                            }
                        ],
                        "constructorArguments": "",
                        "name": "transfer",
                        "returnParams": [],
                        "signature": "transfer(address,uint256)"
                    },
                    "errorInfo": "",
                    "fromAddress": "0x46340b20830761efd32832a74d7169b29feb9758",
                    "gasUsed": 63197,
                    "id": 0,
                    "methodDecoded": true,
                    "operation": "CALL",
                    "output": "",
                    "revert": false,
                    "revertMessage": "",
                    "selector": "0xa9059cbb",
                    "status": true,
                    "value": "0"
                },
                "nodeType": 0
            },
            "1": {
                "event": {
                    "contract": "0xdac17f958d2ee523a2206206994597c13d831ec7",
                    "decodedLog": {
                        "name": "Transfer",
                        "params": [
                            {
                                "name": "from",
                                "type": "address",
                                "value": "0x46340b20830761efd32832a74d7169b29feb9758"
                            },
                            {
                                "name": "to",
                                "type": "address",
                                "value": "0xd69f1fd09382e6e0138cefd6aa3de11d14313d25"
                            },
                            {
                                "decimalAvailable": true,
                                "name": "value",
                                "type": "uint256",
                                "value": "260,000,000"
                            }
                        ],
                        "signature": "Transfer(address,address,uint256)"
                    },
                    "id": 1,
                    "logData": "0x000000000000000000000000000000000000000000000000000000000f7f4900",
                    "logDecoded": true,
                    "operation": "EVENT",
                    "revert": false,
                    "status": true,
                    "topics": [
                        "0xddf252ad1be2c89b69c2b068fc378daa952ba7f163c4a11628f55a4df523b3ef",
                        "0x00000000000000000000000046340b20830761efd32832a74d7169b29feb9758",
                        "0x000000000000000000000000d69f1fd09382e6e0138cefd6aa3de11d14313d25"
                    ]
                },
                "nodeType": 1
            }
        },
        "gasFlame": [
            {
                "children": [
                    {
                        "children": [
                            {
                                "children": [],
                                "depth": 0,
                                "name": "Initial Gas",
                                "value": 21596
                            },
                            {
                                "children": [],
                                "depth": 0,
                                "name": "Executed Gas",
                                "value": 41601
                            }
                        ],
                        "depth": -1,
                        "name": "Actual Gas Used",
                        "value": 63197
                    },
                    {
                        "children": [],
                        "depth": -1,
                        "name": "Refunded Gas",
                        "value": 0
                    }
                ],
                "depth": -2,
                "name": "Total Gas",
                "value": 63197
            }
        ],
        "isConfirmed": true,
        "mainTrace": [
            {
                "children": [
                    {
                        "children": [
                            {
                                "children": [],
                                "depth": 1,
                                "id": 1,
                                "order": 1
                            }
                        ],
                        "depth": 0,
                        "id": 0,
                        "order": 0
                    }
                ],
                "depth": -1,
                "id": -1,
                "order": -1
            }
        ],
        "mainTraceNodeCount": 2,
        "parentIdMap": {
            "0": -1,
            "1": 0
        },
        "tidyTrace": [
            {
                "children": [
                    {
                        "children": [
                            {
                                "children": [],
                                "depth": 1,
                                "id": 1,
                                "order": 1
                            }
                        ],
                        "depth": 0,
                        "id": 0,
                        "order": 0
                    }
                ],
                "depth": -1,
                "id": -1,
                "order": -1
            }
        ],
        "tidyTraceNodeCount": 2
    },
    "state_change": {
        "stateChanges": [
            {
                "address": "0xdac17f958d2ee523a2206206994597c13d831ec7",
                "erc": "ERC-20",
                "slots": [
                    {
                        "current": "0x0000000000000000000000000000000000000000000000000000194e5acfb0a4",
                        "key": "0xfec1b1259f1b4c5b13b2e3b744ed4c90ed15fecc17f3a59cf9e3b807ab5883b9",
                        "prev": "0x0000000000000000000000000000000000000000000000000000194e6a4ef9a4"
                    },
                    {
                        "current": "0x000000000000000000000000000000000000000000000000000000000f7f4900",
                        "key": "0x2629eb5c2e17696c02aa213b8c72ccb83a959e45c8c921a9efbfda7e42068adf",
                        "prev": "0x0000000000000000000000000000000000000000000000000000000000000000"
                    }
                ],
                "storageVariables": [
                    {
                        "name": "balances",
                        "type": "mapping(address => uint256)",
                        "value": {
                            "pairs": [
                                {
                                    "key": "0x46340b20830761efd32832a74d7169b29feb9758",
                                    "value": {
                                        "current": "27824321704100",
                                        "prev": "27824581704100",
                                        "typeTag": 1
                                    }
                                },
                                {
                                    "key": "0xd69f1fd09382e6e0138cefd6aa3de11d14313d25",
                                    "value": {
                                        "current": "260000000",
                                        "prev": "0",
                                        "typeTag": 1
                                    }
                                }
                            ],
                            "typeTag": 4
                        }
                    }
                ]
            }
        ]
    }
}