{
    "balance_change": {
        "balanceChanges": [
            {
                "account": "0x1522900b6dafac587d499a862861c0869be6e428",
                "assets": [
                    {
                        "address": "0xeeeeeeeeeeeeeeeeeeeeeeeeeeeeeeeeeeeeeeee",
                        "amount": "5.376099",
                        "iconUrl": "https://assets.blocksec.com/image/1663669189317-3.png",
                        "isERC1155": false,
                        "isERC721": false,
                        "sign": false,
                        "value": ""
                    }
                ]
            },
            {
                "account": "0xf55bf6ed1da965b878ead1f47d2d5b6808924cc7",
                "assets": [
                    {
                        "address": "0xeeeeeeeeeeeeeeeeeeeeeeeeeeeeeeeeeeeeeeee",
                        "amount": "5.376099",
                        "iconUrl": "https://assets.blocksec.com/image/1663669189317-3.png",
                        "isERC1155": false,
                        "isERC721": false,
                        "sign": true,
                        "value": ""
                    }
                ]
            }
        ]
    },
    "profile": {
        "basic_info": {
            "baseFee": "",
            "blockNumber": 5159660,
            "callData": "0x39125215000000000000000000000000f55bf6ed1da965b878ead1f47d2d5b6808924cc70000000000000000000000000000000000000000000000004a9bbd8e8455300000000000000000000000000000000000000000000000000000000000000000c0000000000000000000000000000000000000000000000000000000005a9d3d6d0000000000000000000000000000000000000000000000000000000000037bcd00000000000000000000000000000000000000000000000000000000000001000000000000000000000000000000000000000000000000000000000000000000000000000000000000000000000000000000000000000000000000000000000000000000000000000000000000000000000000000000000000000000000000414a821535b5de6bffa783eb11380c56d5c180903ee2bcf25fd1248e7dddb57fc42a888e647a71b92b5f83ee4e3b7bcae25733bebb9a9cf659ebc65b164b59e6af1c00000000000000000000000000000000000000000000000000000000000000",
            "debugEnable": true,
            "errorInfo": "",
            "eventCount": 1,
            "feeRecipient": "0x829bd824b016326a401d083b33d092293333a830",
            "formatValue": "0",
            "gasLimit": 500000,
            "gasPrice": "10",
            "gasUsed": 67677,
            "intTxnCount": 3,
            "internalRevert": false,
            "internalRevertMessage": "",
            "isContractCreation": false,
            "isFlashloan": false,
            "maxFee": "",
            "nonce": 297522,
            "overwritedBlockNumber": -1,
            "priorityFee": "",
            "receiver": "0x1522900b6dafac587d499a862861c0869be6e428",
            "revertMessage": "",
            "sender": "0x00bdb5699745f5b860228c8f939abf1b9ae374ed",
            "simulationEnable": true,
            "sourceTxnHash": "0x5450c1666aa1c86abd3fe4faf0233df0ca3ca3c08cece3b6cc0a4b6f54c613f1",
            "status": true,
            "timestamp": "2018-02-26T12:53:12Z",
            "transactionFee": "0.00067677",
            "txnHash": "0x5450c1666aa1c86abd3fe4faf0233df0ca3ca3c08cece3b6cc0a4b6f54c613f1",
            "txnIndex": 26,
            "type": 0,
            "value": "0"
        },
        "fund_flow": [
            {
                "amount": "5.376099",
                "from": "0x1522900b6dafac587d499a862861c0869be6e428",
                "id": 1,
                "isERC1155": false,
                "isERC721": false,
                "isReverted": false,
                "order": 1,
                "to": "0xf55bf6ed1da965b878ead1f47d2d5b6808924cc7",
                "token": "0xeeeeeeeeeeeeeeeeeeeeeeeeeeeeeeeeeeeeeeee"
            }
        ],
        "token_infos": [
            {
                "address": "0xc02aaa39b223fe8d0a0e5c4f27ead9083c756cc2",
                "decimals": 18
            },
            {
                "address": "0xeeeeeeeeeeeeeeeeeeeeeeeeeeeeeeeeeeeeeeee",
                "decimals": 18
            }
        ]
    },
    "address_label": {
        "labels": [
            {
                "address": "0x00bdb5699745f5b860228c8f939abf1b9ae374ed",
                "label": "Bitstamp 1"
            },
            {
                "address": "0x1522900b6dafac587d499a862861c0869be6e428",
                "label": "Bitstamp 2"
            },
            {
                "address": "0xf55bf6ed1da965b878ead1f47d2d5b6808924cc7",
                "label": "BINANCE"
            },
            {
                "address": "0x0000000000000000000000000000000000000001",
                "label": "Precompiled"
            },
            {
                "address": "0x0000000000000000000000000000000000000002",
                "label": "Precompiled"
            },
            {
                "address": "0x0000000000000000000000000000000000000004",
                "label": "Precompiled"
            },
            {
                "address": "0xeeeeeeeeeeeeeeeeeeeeeeeeeeeeeeeeeeeeeeee",
                "label": "Ether"
            },
            {
                "address": "0x5b9e8728e316bbeb692d22daaab74f6cbf2c4691",
                "label": "WalletSimple"
            },
            {
                "address": "0x0000000000000000000000000000000000000003",
                "label": "Precompiled"
            }
        ]
    },
    "trace": {
        "accountLabels": null,
        "dataMap": {
            "-1": {
                "invocation": {
                    "address": "0x00bdb5699745f5b860228c8f939abf1b9ae374ed",
                    "callData": "",
                    "decodedMethod": null,
                    "errorInfo": "",
                    "fromAddress": "",
                    "gasUsed": 0,
                    "id": -1,
                    "methodDecoded": false,
                    "operation": "",
                    "output": "",
                    "revert": false,
                    "revertMessage": "",
                    "selector": "",
                    "status": false,
                    "value": ""
                },
                "nodeType": 0
            },
            "0": {
                "invocation": {
                    "address": "0x1522900b6dafac587d499a862861c0869be6e428",
                    "callData": "0x000000000000000000000000f55bf6ed1da965b878ead1f47d2d5b6808924cc70000000000000000000000000000000000000000000000004a9bbd8e8455300000000000000000000000000000000000000000000000000000000000000000c0000000000000000000000000000000000000000000000000000000005a9d3d6d0000000000000000000000000000000000000000000000000000000000037bcd00000000000000000000000000000000000000000000000000000000000001000000000000000000000000000000000000000000000000000000000000000000000000000000000000000000000000000000000000000000000000000000000000000000000000000000000000000000000000000000000000000000000000414a821535b5de6bffa783eb11380c56d5c180903ee2bcf25fd1248e7dddb57fc42a888e647a71b92b5f83ee4e3b7bcae25733bebb9a9cf659ebc65b164b59e6af1c00000000000000000000000000000000000000000000000000000000000000",
                    "decodedMethod": {
                        "callParams": [
                            {
                                "name": "toAddress",
                                "type": "address",
                                "value": "0xf55bf6ed1da965b878ead1f47d2d5b6808924cc7"
                            },
                            {
                                "name": "value",
                                "type": "uint256",
                                "value": "5,376,099,000,000,000,000"
                            },
                            {
                                "name": "data",
                                "type": "bytes",
                                "value": "0x"
                            },
                            {
                                "name": "expireTime",
                                "type": "uint256",
                                "value": "1,520,254,317"
                            },
                            {
                                "name": "sequenceId",
                                "type": "uint256",
                                "value": "228,301"
                            },
                            {
                                "name": "signature",
                                "type": "bytes",
                                "value": "0x4a821535b5de6bffa783eb11380c56d5c180903ee2bcf25fd1248e7dddb57fc42a888e647a71b92b5f83ee4e3b7bcae25733bebb9a9cf659ebc65b164b59e6af1c"
                            }
                        ],
                        "constructorArguments": "",
                        "name": "sendMultiSig",
                        "returnParams": [],
                        "signature": "sendMultiSig(address,uint256,bytes,uint256,uint256,bytes)"
                    },
                    "errorInfo": "",
                    "fromAddress": "0x00bdb5699745f5b860228c8f939abf1b9ae374ed",
                    "gasUsed": 67677,
                    "id": 0,
                    "methodDecoded": true,
                    "operation": "CALL",
                    "output": "0x39125215000000000000000000000000f55bf6ed1da965b878ead1f47d2d5b68",
                    "revert": false,
                    "revertMessage": "",
                    "selector": "0x39125215",
                    "status": true,
                    "value": "0"
                },
                "nodeType": 0
            },
            "1": {
                "invocation": {
                    "address": "0x5b9e8728e316bbeb692d22daaab74f6cbf2c4691",
                    "callData": "0x000000000000000000000000f55bf6ed1da965b878ead1f47d2d5b6808924cc70000000000000000000000000000000000000000000000004a9bbd8e8455300000000000000000000000000000000000000000000000000000000000000000c0000000000000000000000000000000000000000000000000000000005a9d3d6d0000000000000000000000000000000000000000000000000000000000037bcd00000000000000000000000000000000000000000000000000000000000001000000000000000000000000000000000000000000000000000000000000000000000000000000000000000000000000000000000000000000000000000000000000000000000000000000000000000000000000000000000000000000000000414a821535b5de6bffa783eb11380c56d5c180903ee2bcf25fd1248e7dddb57fc42a888e647a71b92b5f83ee4e3b7bcae25733bebb9a9cf659ebc65b164b59e6af1c00000000000000000000000000000000000000000000000000000000000000",
                    "decodedMethod": {
                        "callParams": [
                            {
                                "name": "toAddress",
                                "type": "address",
                                "value": "0xf55bf6ed1da965b878ead1f47d2d5b6808924cc7"
                            },
                            {
                                "name": "value",
                                "type": "uint256",
                                "value": "5,376,099,000,000,000,000"
                            },
                            {
                                "name": "data",
                                "type": "bytes",
                                "value": "0x"
                            },
                            {
                                "name": "expireTime",
                                "type": "uint256",
                                "value": "1,520,254,317"
                            },
                            {
                                "name": "sequenceId",
                                "type": "uint256",
                                "value": "228,301"
                            },
                            {
                                "name": "signature",
                                "type": "bytes",
                                "value": "0x4a821535b5de6bffa783eb11380c56d5c180903ee2bcf25fd1248e7dddb57fc42a888e647a71b92b5f83ee4e3b7bcae25733bebb9a9cf659ebc65b164b59e6af1c"
                            }
                        ],
                        "constructorArguments": "",
                        "name": "sendMultiSig",
                        "returnParams": [],
                        "signature": "sendMultiSig(address,uint256,bytes,uint256,uint256,bytes)"
                    },
                    "errorInfo": "",
                    "fromAddress": "0x1522900b6dafac587d499a862861c0869be6e428",
                    "gasUsed": 37504,
                    "id": 1,
                    "methodDecoded": true,
                    "operation": "DELEGATECALL",
                    "output": "",
                    "revert": false,
                    "revertMessage": "",
                    "selector": "0x39125215",
                    "status": true,
                    "value": "0"
                },
                "nodeType": 0
            },
            "2": {
                "invocation": {
                    "address": "0x0000000000000000000000000000000000000001",
                    "callData": "0x9fd3648dc0fb4672e36f168853bb95cf948f2d9d4ffb5fc19b99f8d5000000000000000000000000000000000000000000000000000000000000001c4a821535b5de6bffa783eb11380c56d5c180903ee2bcf25fd1248e7dddb57fc42a888e647a71b92b5f83ee4e3b7bcae25733bebb9a9cf659ebc65b164b59e6af",
                    "decodedMethod": {
                        "callParams": [
                            {
                                "name": "hash",
                                "type": "bytes32",
                                "value": "0xf96308d79fd3648dc0fb4672e36f168853bb95cf948f2d9d4ffb5fc19b99f8d5"
                            },
                            {
                                "name": "v",
                                "type": "uint256",
                                "value": "28"
                            },
                            {
                                "name": "r",
                                "type": "bytes32",
                                "value": "0x4a821535b5de6bffa783eb11380c56d5c180903ee2bcf25fd1248e7dddb57fc4"
                            },
                            {
                                "name": "s",
                                "type": "bytes32",
                                "value": "0x2a888e647a71b92b5f83ee4e3b7bcae25733bebb9a9cf659ebc65b164b59e6af"
                            }
                        ],
                        "constructorArguments": "",
                        "name": "ecrecover",
                        "returnParams": [
                            {
                                "name": "",
                                "type": "address",
                                "value": "0x3e071255695b527e6e85f5e367b1c173bcea5b0f"
                            }
                        ],
                        "signature": "ecrecover(bytes32,uint256,bytes32,bytes32)"
                    },
                    "errorInfo": "",
                    "fromAddress": "0x1522900b6dafac587d499a862861c0869be6e428",
                    "gasUsed": 3000,
                    "id": 2,
                    "methodDecoded": true,
                    "operation": "CALL",
                    "output": "0x0000000000000000000000003e071255695b527e6e85f5e367b1c173bcea5b0f",
                    "revert": false,
                    "revertMessage": "",
                    "selector": "0xf96308d7",
                    "status": true,
                    "value": "0"
                },
                "nodeType": 0
            },
            "3": {
                "invocation": {
                    "address": "0xf55bf6ed1da965b878ead1f47d2d5b6808924cc7",
                    "callData": "0x",
                    "decodedMethod": null,
                    "errorInfo": "",
                    "fromAddress": "0x1522900b6dafac587d499a862861c0869be6e428",
                    "gasUsed": 0,
                    "id": 3,
                    "methodDecoded": false,
                    "operation": "CALL",
                    "output": "",
                    "revert": false,
                    "revertMessage": "",
                    "selector": "fallback",
                    "status": true,
                    "value": "5.376099"
                },
                "nodeType": 0
            },
            "4": {
                "event": {
                    "contract": "0x1522900b6dafac587d499a862861c0869be6e428",
                    "decodedLog": {
                        "name": "Transacted",
                        "params": [
                            {
                                "name": "msgSender",
                                "type": "address",
                                "value": "0x00bdb5699745f5b860228c8f939abf1b9ae374ed"
                            },
                            {
                                "name": "otherSigner",
                                "type": "address",
                                "value": "0x3e071255695b527e6e85f5e367b1c173bcea5b0f"
                            },
                            {
                                "name": "operation",
                                "type": "bytes32",
                                "value": "0xf96308d79fd3648dc0fb4672e36f168853bb95cf948f2d9d4ffb5fc19b99f8d5"
                            },
                            {
                                "name": "toAddress",
                                "type": "address",
                                "value": "0xf55bf6ed1da965b878ead1f47d2d5b6808924cc7"
                            },
                            {
                                "name": "value",
                                "type": "uint256",
                                "value": "5,376,099,000,000,000,000"
                            },
                            {
                                "name": "data",
                                "type": "bytes",
                                "value": "0x"
                            }
                        ],
                        "signature": "Transacted(address,address,bytes32,address,uint256,bytes)"
                    },
                    "id": 4,
                    "logData": "0x00000000000000000000000000bdb5699745f5b860228c8f939abf1b9ae374ed0000000000000000000000003e071255695b527e6e85f5e367b1c173bcea5b0ff96308d79fd3648dc0fb4672e36f168853bb95cf948f2d9d4ffb5fc19b99f8d5000000000000000000000000f55bf6ed1da965b878ead1f47d2d5b6808924cc70000000000000000000000000000000000000000000000004a9bbd8e8455300000000000000000000000000000000000000000000000000000000000000000c00000000000000000000000000000000000000000000000000000000000000000",
                    "logDecoded": true,
                    "operation": "EVENT",
                    "revert": false,
                    "status": true,
                    "topics": [
                        "0x59bed9ab5d78073465dd642a9e3e76dfdb7d53bcae9d09df7d0b8f5234d5a806"
                    ]
                },
                "nodeType": 1
            }
        },
        "gasFlame": [
            {
                "children": [
                    {
                        "children": [
                            {
                                "children": [],
                                "depth": 0,
                                "name": "Initial Gas",
                                "value": 29336
                            },
                            {
                                "children": [
                                    {
                                        "children": [
                                            {
                                                "children": [],
                                                "depth": 2,
                                                "name": "ecrecover",
                                                "value": 3000
                                            },
                                            {
                                                "children": [],
                                                "depth": 2,
                                                "name": "fallback",
                                                "value": 0
                                            }
                                        ],
                                        "depth": 1,
                                        "name": "sendMultiSig",
                                        "value": 37504
                                    }
                                ],
                                "depth": 0,
                                "name": "Executed Gas",
                                "value": 38341
                            }
                        ],
                        "depth": -1,
                        "name": "Actual Gas Used",
                        "value": 67677
                    },
                    {
                        "children": [],
                        "depth": -1,
                        "name": "Refunded Gas",
                        "value": 0
                    }
                ],
                "depth": -2,
                "name": "Total Gas",
                "value": 67677
            }
        ],
        "isConfirmed": true,
        "mainTrace": [
            {
                "children": [
                    {
                        "children": [
                            {
                                "children": [
                                    {
                                        "children": [],
                                        "depth": 2,
                                        "id": 2,
                                        "order": 2
                                    },
                                    {
                                        "children": [],
                                        "depth": 2,
                                        "id": 3,
                                        "order": 3
                                    },
                                    {
                                        "children": [],
                                        "depth": 2,
                                        "id": 4,
                                        "order": 4
                                    }
                                ],
                                "depth": 1,
                                "id": 1,
                                "order": 1
                            }
                        ],
                        "depth": 0,
                        "id": 0,
                        "order": 0
                    }
                ],
                "depth": -1,
                "id": -1,
                "order": -1
            }
        ],
        "mainTraceNodeCount": 5,
        "parentIdMap": {
            "0": -1,
            "1": 0,
            "2": 1,
            "3": 1,
            "4": 1
        },
        "tidyTrace": [
            {
                "children": [
                    {
                        "children": [
                            {
                                "children": [
                                    {
                                        "children": [],
                                        "depth": 2,
                                        "id": 2,
                                        "order": 2
                                    },
                                    {
                                        "children": [],
                                        "depth": 2,
                                        "id": 3,
                                        "order": 3
                                    },
                                    {
                                        "children": [],
                                        "depth": 2,
                                        "id": 4,
                                        "order": 4
                                    }
                                ],
                                "depth": 1,
                                "id": 1,
                                "order": 1
                            }
                        ],
                        "depth": 0,
                        "id": 0,
                        "order": 0
                    }
                ],
                "depth": -1,
                "id": -1,
                "order": -1
            }
        ],
        "tidyTraceNodeCount": 5
    },
    "state_change": {
        "stateChanges": [
            {
                "address": "0x1522900b6dafac587d499a862861c0869be6e428",
                "erc": "",
                "slots": [
                    {
                        "current": "0x0000000000000000000000000000000000000000000000000000000000037bcd",
                        "key": "0x0000000000000000000000000000000000000000000000000000000000000006",
                        "prev": "0x0000000000000000000000000000000000000000000000000000000000037bc3"
                    }
                ],
                "storageVariables": []
            }
        ]
    }
}