{
    "balance_change": {
        "balanceChanges": [
            {
                "account": "0x9f5280455e38b49d6055160ce9ccc117e1458c28",
                "assets": [
                    {
                        "address": "0x737fa0372c8d001904ae6acaf0552d4015f9c947",
                        "amount": "12,496",
                        "iconUrl": "https://assets.blocksec.com/icon/4c1099824a8dbd52380ce2d9e257b1b0fc28a69247216ebc661f3837ce80b18d.png",
                        "isERC1155": false,
                        "isERC721": false,
                        "sign": false,
                        "value": ""
                    }
                ]
            },
            {
                "account": "0x60a8f7216368203e046b90d96792e361842138cf",
                "assets": [
                    {
                        "address": "0x737fa0372c8d001904ae6acaf0552d4015f9c947",
                        "amount": "12,496",
                        "iconUrl": "https://assets.blocksec.com/icon/4c1099824a8dbd52380ce2d9e257b1b0fc28a69247216ebc661f3837ce80b18d.png",
                        "isERC1155": false,
                        "isERC721": false,
                        "sign": true,
                        "value": ""
                    }
                ]
            }
        ]
    },
    "profile": {
        "basic_info": {
            "baseFee": "",
            "blockNumber": 6409225,
            "callData": "0xa9059cbb00000000000000000000000060a8f7216368203e046b90d96792e361842138cf0000000000000000000000000000000000000000000002a568d6215ac1400000",
            "debugEnable": true,
            "errorInfo": "",
            "eventCount": 1,
            "feeRecipient": "0xea674fdde714fd979de3edf0f56aa9716b898ec8",
            "formatValue": "0",
            "gasLimit": 55851,
            "gasPrice": "8",
            "gasUsed": 22746,
            "intTxnCount": 0,
            "internalRevert": false,
            "internalRevertMessage": "",
            "isContractCreation": false,
            "isFlashloan": false,
            "maxFee": "",
            "nonce": 7,
            "overwritedBlockNumber": -1,
            "priorityFee": "",
            "receiver": "0x737fa0372c8d001904ae6acaf0552d4015f9c947",
            "revertMessage": "",
            "sender": "0x9f5280455e38b49d6055160ce9ccc117e1458c28",
            "simulationEnable": true,
            "sourceTxnHash": "0x54a33e93447058a8ed545073250b6818a4fa4093eac5b6d36198b849db584cd6",
            "status": true,
            "timestamp": "2018-09-27T13:12:04Z",
            "transactionFee": "0.000181968",
            "txnHash": "0x54a33e93447058a8ed545073250b6818a4fa4093eac5b6d36198b849db584cd6",
            "txnIndex": 53,
            "type": 0,
            "value": "0"
        },
        "fund_flow": [
            {
                "amount": "12,496",
                "from": "0x9f5280455e38b49d6055160ce9ccc117e1458c28",
                "id": 1,
                "isERC1155": false,
                "isERC721": false,
                "isReverted": false,
                "order": 1,
                "to": "0x60a8f7216368203e046b90d96792e361842138cf",
                "token": "0x737fa0372c8d001904ae6acaf0552d4015f9c947"
            }
        ],
        "token_infos": [
            {
                "address": "0x737fa0372c8d001904ae6acaf0552d4015f9c947",
                "decimals": 18
            },
            {
                "address": "0xc02aaa39b223fe8d0a0e5c4f27ead9083c756cc2",
                "decimals": 18
            },
            {
                "address": "0xeeeeeeeeeeeeeeeeeeeeeeeeeeeeeeeeeeeeeeee",
                "decimals": 18
            }
        ]
    },
    "address_label": {
        "labels": [
            {
                "address": "0x0000000000000000000000000000000000000002",
                "label": "Precompiled"
            },
            {
                "address": "0x0000000000000000000000000000000000000003",
                "label": "Precompiled"
            },
            {
                "address": "0x0000000000000000000000000000000000000004",
                "label": "Precompiled"
            },
            {
                "address": "0xeeeeeeeeeeeeeeeeeeeeeeeeeeeeeeeeeeeeeeee",
                "label": "Ether"
            },
            {
                "address": "0x737fa0372c8d001904ae6acaf0552d4015f9c947",
                "label": "MediBit Token"
            },
            {
                "address": "0x60a8f7216368203e046b90d96792e361842138cf",
                "label": "HOTBIT"
            },
            {
                "address": "0x0000000000000000000000000000000000000001",
                "label": "Precompiled"
            }
        ]
    },
    "trace": {
        "accountLabels": null,
        "dataMap": {
            "-1": {
                "invocation": {
                    "address": "0x9f5280455e38b49d6055160ce9ccc117e1458c28",
                    "callData": "",
                    "decodedMethod": null,
                    "errorInfo": "",
                    "fromAddress": "",
                    "gasUsed": 0,
                    "id": -1,
                    "methodDecoded": false,
                    "operation": "",
                    "output": "",
                    "revert": false,
                    "revertMessage": "",
                    "selector": "",
                    "status": false,
                    "value": ""
                },
                "nodeType": 0
            },
            "0": {
                "invocation": {
                    "address": "0x737fa0372c8d001904ae6acaf0552d4015f9c947",
                    "callData": "0x00000000000000000000000060a8f7216368203e046b90d96792e361842138cf0000000000000000000000000000000000000000000002a568d6215ac1400000",
                    "decodedMethod": {
                        "callParams": [
                            {
                                "name": "_to",
                                "type": "address",
                                "value": "0x60a8f7216368203e046b90d96792e361842138cf"
                            },
                            {
                                "decimalAvailable": true,
                                "name": "_value",
                                "type": "uint256",
                                "value": "12,496,000,000,000,000,000,000"
                            }
                        ],
                        "constructorArguments": "",
                        "name": "transfer",
                        "returnParams": [
                            {
                                "name": "",
                                "type": "bool",
                                "value": true
                            }
                        ],
                        "signature": "transfer(address,uint256)"
                    },
                    "errorInfo": "",
                    "fromAddress": "0x9f5280455e38b49d6055160ce9ccc117e1458c28",
                    "gasUsed": 22746,
                    "id": 0,
                    "methodDecoded": true,
                    "operation": "CALL",
                    "output": "0x0000000000000000000000000000000000000000000000000000000000000001",
                    "revert": false,
                    "revertMessage": "",
                    "selector": "0xa9059cbb",
                    "status": true,
                    "value": "0"
                },
                "nodeType": 0
            },
            "1": {
                "event": {
                    "contract": "0x737fa0372c8d001904ae6acaf0552d4015f9c947",
                    "decodedLog": {
                        "name": "Transfer",
                        "params": [
                            {
                                "name": "from",
                                "type": "address",
                                "value": "0x9f5280455e38b49d6055160ce9ccc117e1458c28"
                            },
                            {
                                "name": "to",
                                "type": "address",
                                "value": "0x60a8f7216368203e046b90d96792e361842138cf"
                            },
                            {
                                "decimalAvailable": true,
                                "name": "value",
                                "type": "uint256",
                                "value": "12,496,000,000,000,000,000,000"
                            }
                        ],
                        "signature": "Transfer(address,address,uint256)"
                    },
                    "id": 1,
                    "logData": "0x0000000000000000000000000000000000000000000002a568d6215ac1400000",
                    "logDecoded": true,
                    "operation": "EVENT",
                    "revert": false,
                    "status": true,
                    "topics": [
                        "0xddf252ad1be2c89b69c2b068fc378daa952ba7f163c4a11628f55a4df523b3ef",
                        "0x0000000000000000000000009f5280455e38b49d6055160ce9ccc117e1458c28",
                        "0x00000000000000000000000060a8f7216368203e046b90d96792e361842138cf"
                    ]
                },
                "nodeType": 1
            }
        },
        "gasFlame": [
            {
                "children": [
                    {
                        "children": [
                            {
                                "children": [],
                                "depth": 0,
                                "name": "Initial Gas",
                                "value": 23320
                            },
                            {
                                "children": [],
                                "depth": 0,
                                "name": "Executed Gas",
                                "value": 14426
                            }
                        ],
                        "depth": -1,
                        "name": "Actual Gas Used",
                        "value": 22746
                    },
                    {
                        "children": [],
                        "depth": -1,
                        "name": "Refunded Gas",
                        "value": 15000
                    }
                ],
                "depth": -2,
                "name": "Total Gas",
                "value": 37746
            }
        ],
        "isConfirmed": true,
        "mainTrace": [
            {
                "children": [
                    {
                        "children": [
                            {
                                "children": [],
                                "depth": 1,
                                "id": 1,
                                "order": 1
                            }
                        ],
                        "depth": 0,
                        "id": 0,
                        "order": 0
                    }
                ],
                "depth": -1,
                "id": -1,
                "order": -1
            }
        ],
        "mainTraceNodeCount": 2,
        "parentIdMap": {
            "0": -1,
            "1": 0
        },
        "tidyTrace": [
            {
                "children": [
                    {
                        "children": [
                            {
                                "children": [],
                                "depth": 1,
                                "id": 1,
                                "order": 1
                            }
                        ],
                        "depth": 0,
                        "id": 0,
                        "order": 0
                    }
                ],
                "depth": -1,
                "id": -1,
                "order": -1
            }
        ],
        "tidyTraceNodeCount": 2
    },
    "state_change": {
        "stateChanges": [
            {
                "address": "0x737fa0372c8d001904ae6acaf0552d4015f9c947",
                "erc": "ERC-20",
                "slots": [
                    {
                        "current": "0x0000000000000000000000000000000000000000000000000000000000000000",
                        "key": "0xe4b646e9d77940d9cb3f7f8545fc028c5dedbbe5567a938befd92da138bf7ae5",
                        "prev": "0x0000000000000000000000000000000000000000000002a568d6215ac1400000"
                    },
                    {
                        "current": "0x0000000000000000000000000000000000000000000018a4604a169d27a40000",
                        "key": "0x3838257963426fd1d168da2bd39dba35ae01cd1defd85666f7e90dfa750dc196",
                        "prev": "0x0000000000000000000000000000000000000000000015fef773f54266640000"
                    }
                ],
                "storageVariables": [
                    {
                        "name": "balances",
                        "type": "mapping(address => uint256)",
                        "value": {
                            "pairs": [
                                {
                                    "key": "0x60a8f7216368203e046b90d96792e361842138cf",
                                    "value": {
                                        "current": "116369000000000000000000",
                                        "prev": "103873000000000000000000",
                                        "typeTag": 1
                                    }
                                },
                                {
                                    "key": "0x9f5280455e38b49d6055160ce9ccc117e1458c28",
                                    "value": {
                                        "current": "0",
                                        "prev": "12496000000000000000000",
                                        "typeTag": 1
                                    }
                                }
                            ],
                            "typeTag": 4
                        }
                    }
                ]
            }
        ]
    }
}