{
    "balance_change": {
        "balanceChanges": [
            {
                "account": "0xb364b4db2e46474b86f411e272e64b59c488e1cc",
                "assets": [
                    {
                        "address": "0x1f3f677ecc58f6a1f9e2cf410df4776a8546b5de",
                        "amount": "10,000",
                        "iconUrl": "",
                        "isERC1155": false,
                        "isERC721": false,
                        "sign": false,
                        "value": ""
                    }
                ]
            },
            {
                "account": "0xef1125fc1c55f127adbc48b8c31c26ae869cf349",
                "assets": [
                    {
                        "address": "0x1f3f677ecc58f6a1f9e2cf410df4776a8546b5de",
                        "amount": "10,000",
                        "iconUrl": "",
                        "isERC1155": false,
                        "isERC721": false,
                        "sign": true,
                        "value": ""
                    }
                ]
            }
        ]
    },
    "profile": {
        "basic_info": {
            "baseFee": "",
            "blockNumber": 9222920,
            "callData": "0xa9059cbb000000000000000000000000ef1125fc1c55f127adbc48b8c31c26ae869cf3490000000000000000000000000000000000000000000000000000000000002710",
            "debugEnable": true,
            "errorInfo": "",
            "eventCount": 2,
            "feeRecipient": "0xea674fdde714fd979de3edf0f56aa9716b898ec8",
            "formatValue": "0",
            "gasLimit": 100000,
            "gasPrice": "1",
            "gasUsed": 64503,
            "intTxnCount": 0,
            "internalRevert": false,
            "internalRevertMessage": "",
            "isContractCreation": false,
            "isFlashloan": false,
            "maxFee": "",
            "nonce": 28530,
            "overwritedBlockNumber": -1,
            "priorityFee": "",
            "receiver": "0x1f3f677ecc58f6a1f9e2cf410df4776a8546b5de",
            "revertMessage": "",
            "sender": "0xb364b4db2e46474b86f411e272e64b59c488e1cc",
            "simulationEnable": true,
            "sourceTxnHash": "0x54d0f14edce539c2cfe260a25b38d8cbe651360ec25ac6179adec1d935bd9fef",
            "status": true,
            "timestamp": "2020-01-05T21:47:25Z",
            "transactionFee": "0.000064503",
            "txnHash": "0x54d0f14edce539c2cfe260a25b38d8cbe651360ec25ac6179adec1d935bd9fef",
            "txnIndex": 65,
            "type": 0,
            "value": "0"
        },
        "fund_flow": [
            {
                "amount": "10,000",
                "from": "0xb364b4db2e46474b86f411e272e64b59c488e1cc",
                "id": 1,
                "isERC1155": false,
                "isERC721": false,
                "isReverted": false,
                "order": 1,
                "to": "0xef1125fc1c55f127adbc48b8c31c26ae869cf349",
                "token": "0x1f3f677ecc58f6a1f9e2cf410df4776a8546b5de"
            },
            {
                "amount": "0",
                "from": "0xb364b4db2e46474b86f411e272e64b59c488e1cc",
                "id": 2,
                "isERC1155": false,
                "isERC721": false,
                "isReverted": false,
                "order": 2,
                "to": "0x004d050267b7cbdd223a591824c34f69a8a7a7b7",
                "token": "0x1f3f677ecc58f6a1f9e2cf410df4776a8546b5de"
            }
        ],
        "token_infos": [
            {
                "address": "0x1f3f677ecc58f6a1f9e2cf410df4776a8546b5de",
                "decimals": 0
            },
            {
                "address": "0xc02aaa39b223fe8d0a0e5c4f27ead9083c756cc2",
                "decimals": 18
            },
            {
                "address": "0xeeeeeeeeeeeeeeeeeeeeeeeeeeeeeeeeeeeeeeee",
                "decimals": 18
            }
        ]
    },
    "address_label": {
        "labels": [
            {
                "address": "0x0000000000000000000000000000000000000003",
                "label": "Precompiled"
            },
            {
                "address": "0x0000000000000000000000000000000000000004",
                "label": "Precompiled"
            },
            {
                "address": "0xeeeeeeeeeeeeeeeeeeeeeeeeeeeeeeeeeeeeeeee",
                "label": "Ether"
            },
            {
                "address": "0x1f3f677ecc58f6a1f9e2cf410df4776a8546b5de",
                "label": "VNDC Stablecoin"
            },
            {
                "address": "0x0000000000000000000000000000000000000001",
                "label": "Precompiled"
            },
            {
                "address": "0x0000000000000000000000000000000000000002",
                "label": "Precompiled"
            }
        ]
    },
    "trace": {
        "accountLabels": null,
        "dataMap": {
            "-1": {
                "invocation": {
                    "address": "0xb364b4db2e46474b86f411e272e64b59c488e1cc",
                    "callData": "",
                    "decodedMethod": null,
                    "errorInfo": "",
                    "fromAddress": "",
                    "gasUsed": 0,
                    "id": -1,
                    "methodDecoded": false,
                    "operation": "",
                    "output": "",
                    "revert": false,
                    "revertMessage": "",
                    "selector": "",
                    "status": false,
                    "value": ""
                },
                "nodeType": 0
            },
            "0": {
                "invocation": {
                    "address": "0x1f3f677ecc58f6a1f9e2cf410df4776a8546b5de",
                    "callData": "0x000000000000000000000000ef1125fc1c55f127adbc48b8c31c26ae869cf3490000000000000000000000000000000000000000000000000000000000002710",
                    "decodedMethod": {
                        "callParams": [
                            {
                                "name": "_to",
                                "type": "address",
                                "value": "0xef1125fc1c55f127adbc48b8c31c26ae869cf349"
                            },
                            {
                                "decimalAvailable": true,
                                "name": "_value",
                                "type": "uint256",
                                "value": "10,000"
                            }
                        ],
                        "constructorArguments": "",
                        "name": "transfer",
                        "returnParams": [],
                        "signature": "transfer(address,uint256)"
                    },
                    "errorInfo": "",
                    "fromAddress": "0xb364b4db2e46474b86f411e272e64b59c488e1cc",
                    "gasUsed": 64503,
                    "id": 0,
                    "methodDecoded": true,
                    "operation": "CALL",
                    "output": "",
                    "revert": false,
                    "revertMessage": "",
                    "selector": "0xa9059cbb",
                    "status": true,
                    "value": "0"
                },
                "nodeType": 0
            },
            "1": {
                "event": {
                    "contract": "0x1f3f677ecc58f6a1f9e2cf410df4776a8546b5de",
                    "decodedLog": {
                        "name": "Transfer",
                        "params": [
                            {
                                "name": "from",
                                "type": "address",
                                "value": "0xb364b4db2e46474b86f411e272e64b59c488e1cc"
                            },
                            {
                                "name": "to",
                                "type": "address",
                                "value": "0xef1125fc1c55f127adbc48b8c31c26ae869cf349"
                            },
                            {
                                "decimalAvailable": true,
                                "name": "value",
                                "type": "uint256",
                                "value": "10,000"
                            }
                        ],
                        "signature": "Transfer(address,address,uint256)"
                    },
                    "id": 1,
                    "logData": "0x0000000000000000000000000000000000000000000000000000000000002710",
                    "logDecoded": true,
                    "operation": "EVENT",
                    "revert": false,
                    "status": true,
                    "topics": [
                        "0xddf252ad1be2c89b69c2b068fc378daa952ba7f163c4a11628f55a4df523b3ef",
                        "0x000000000000000000000000b364b4db2e46474b86f411e272e64b59c488e1cc",
                        "0x000000000000000000000000ef1125fc1c55f127adbc48b8c31c26ae869cf349"
                    ]
                },
                "nodeType": 1
            },
            "2": {
                "event": {
                    "contract": "0x1f3f677ecc58f6a1f9e2cf410df4776a8546b5de",
                    "decodedLog": {
                        "name": "Transfer",
                        "params": [
                            {
                                "name": "from",
                                "type": "address",
                                "value": "0xb364b4db2e46474b86f411e272e64b59c488e1cc"
                            },
                            {
                                "name": "to",
                                "type": "address",
                                "value": "0x004d050267b7cbdd223a591824c34f69a8a7a7b7"
                            },
                            {
                                "decimalAvailable": true,
                                "name": "value",
                                "type": "uint256",
                                "value": "0"
                            }
                        ],
                        "signature": "Transfer(address,address,uint256)"
                    },
                    "id": 2,
                    "logData": "0x0000000000000000000000000000000000000000000000000000000000000000",
                    "logDecoded": true,
                    "operation": "EVENT",
                    "revert": false,
                    "status": true,
                    "topics": [
                        "0xddf252ad1be2c89b69c2b068fc378daa952ba7f163c4a11628f55a4df523b3ef",
                        "0x000000000000000000000000b364b4db2e46474b86f411e272e64b59c488e1cc",
                        "0x000000000000000000000000004d050267b7cbdd223a591824c34f69a8a7a7b7"
                    ]
                },
                "nodeType": 1
            }
        },
        "gasFlame": [
            {
                "children": [
                    {
                        "children": [
                            {
                                "children": [],
                                "depth": 0,
                                "name": "Initial Gas",
                                "value": 21584
                            },
                            {
                                "children": [],
                                "depth": 0,
                                "name": "Executed Gas",
                                "value": 42919
                            }
                        ],
                        "depth": -1,
                        "name": "Actual Gas Used",
                        "value": 64503
                    },
                    {
                        "children": [],
                        "depth": -1,
                        "name": "Refunded Gas",
                        "value": 0
                    }
                ],
                "depth": -2,
                "name": "Total Gas",
                "value": 64503
            }
        ],
        "isConfirmed": true,
        "mainTrace": [
            {
                "children": [
                    {
                        "children": [
                            {
                                "children": [],
                                "depth": 1,
                                "id": 1,
                                "order": 1
                            },
                            {
                                "children": [],
                                "depth": 1,
                                "id": 2,
                                "order": 2
                            }
                        ],
                        "depth": 0,
                        "id": 0,
                        "order": 0
                    }
                ],
                "depth": -1,
                "id": -1,
                "order": -1
            }
        ],
        "mainTraceNodeCount": 3,
        "parentIdMap": {
            "0": -1,
            "1": 0,
            "2": 0
        },
        "tidyTrace": [
            {
                "children": [
                    {
                        "children": [
                            {
                                "children": [],
                                "depth": 1,
                                "id": 1,
                                "order": 1
                            },
                            {
                                "children": [],
                                "depth": 1,
                                "id": 2,
                                "order": 2
                            }
                        ],
                        "depth": 0,
                        "id": 0,
                        "order": 0
                    }
                ],
                "depth": -1,
                "id": -1,
                "order": -1
            }
        ],
        "tidyTraceNodeCount": 3
    },
    "state_change": {
        "stateChanges": [
            {
                "address": "0x1f3f677ecc58f6a1f9e2cf410df4776a8546b5de",
                "erc": "ERC-20",
                "slots": [
                    {
                        "current": "0x0000000000000000000000000000000000000000000000000000000000002710",
                        "key": "0x9c83a943d758a21bfee38826bd66f134cb21d1838b6bd5b6818965bd630b88a0",
                        "prev": "0x0000000000000000000000000000000000000000000000000000000000000000"
                    },
                    {
                        "current": "0x00000000000000000000000000000000000000000000000000000000312a758a",
                        "key": "0x00c48761c399ac9f8cafd1c088b9afd054201b3939ce1d60229bed503ffa01cb",
                        "prev": "0x00000000000000000000000000000000000000000000000000000000312a9c9a"
                    }
                ],
                "storageVariables": []
            }
        ]
    }
}