{
    "balance_change": {
        "balanceChanges": [
            {
                "account": "0x78f70464f7dc733b9b08252d1e3fc8a89d741af0",
                "assets": [
                    {
                        "address": "0x4d2e6e16857710711ec8f0dae43037cca7e6478d",
                        "amount": "500",
                        "iconUrl": "",
                        "isERC1155": false,
                        "isERC721": false,
                        "sign": false,
                        "value": ""
                    }
                ]
            },
            {
                "account": "0x37681cca9f968c40ca477cd8cd03a529e4a73a9b",
                "assets": [
                    {
                        "address": "0x4d2e6e16857710711ec8f0dae43037cca7e6478d",
                        "amount": "500",
                        "iconUrl": "",
                        "isERC1155": false,
                        "isERC721": false,
                        "sign": true,
                        "value": ""
                    }
                ]
            }
        ]
    },
    "profile": {
        "basic_info": {
            "baseFee": "",
            "blockNumber": 2960680,
            "callData": "0xa9059cbb00000000000000000000000037681cca9f968c40ca477cd8cd03a529e4a73a9b00000000000000000000000000000000000000000000000000000000000001f4",
            "debugEnable": true,
            "errorInfo": "",
            "eventCount": 1,
            "feeRecipient": "0x4bb96091ee9d802ed039c4d1a5f6216f90f81b01",
            "formatValue": "0",
            "gasLimit": 151522,
            "gasPrice": "20",
            "gasUsed": 51522,
            "intTxnCount": 0,
            "internalRevert": false,
            "internalRevertMessage": "",
            "isContractCreation": false,
            "isFlashloan": false,
            "maxFee": "",
            "nonce": 83,
            "overwritedBlockNumber": -1,
            "priorityFee": "",
            "receiver": "0x4d2e6e16857710711ec8f0dae43037cca7e6478d",
            "revertMessage": "",
            "sender": "0x78f70464f7dc733b9b08252d1e3fc8a89d741af0",
            "simulationEnable": true,
            "sourceTxnHash": "0x5594b223ff2ba3dda4f55fe4c62b11d5c42b9eb4a50830160dcbe019e5914677",
            "status": true,
            "timestamp": "2017-01-08T22:30:35Z",
            "transactionFee": "0.00103044",
            "txnHash": "0x5594b223ff2ba3dda4f55fe4c62b11d5c42b9eb4a50830160dcbe019e5914677",
            "txnIndex": 4,
            "type": 0,
            "value": "0"
        },
        "fund_flow": [
            {
                "amount": "500",
                "from": "0x78f70464f7dc733b9b08252d1e3fc8a89d741af0",
                "id": 1,
                "isERC1155": false,
                "isERC721": false,
                "isReverted": false,
                "order": 1,
                "to": "0x37681cca9f968c40ca477cd8cd03a529e4a73a9b",
                "token": "0x4d2e6e16857710711ec8f0dae43037cca7e6478d"
            }
        ],
        "token_infos": [
            {
                "address": "0xc02aaa39b223fe8d0a0e5c4f27ead9083c756cc2",
                "decimals": 18
            },
            {
                "address": "0xeeeeeeeeeeeeeeeeeeeeeeeeeeeeeeeeeeeeeeee",
                "decimals": 18
            }
        ]
    },
    "address_label": {
        "labels": [
            {
                "address": "0x0000000000000000000000000000000000000003",
                "label": "Precompiled"
            },
            {
                "address": "0x0000000000000000000000000000000000000004",
                "label": "Precompiled"
            },
            {
                "address": "0xeeeeeeeeeeeeeeeeeeeeeeeeeeeeeeeeeeeeeeee",
                "label": "Ether"
            },
            {
                "address": "0x4d2e6e16857710711ec8f0dae43037cca7e6478d",
                "label": "MyToken"
            },
            {
                "address": "0x0000000000000000000000000000000000000001",
                "label": "Precompiled"
            },
            {
                "address": "0x0000000000000000000000000000000000000002",
                "label": "Precompiled"
            }
        ]
    },
    "trace": {
        "accountLabels": null,
        "dataMap": {
            "-1": {
                "invocation": {
                    "address": "0x78f70464f7dc733b9b08252d1e3fc8a89d741af0",
                    "callData": "",
                    "decodedMethod": null,
                    "errorInfo": "",
                    "fromAddress": "",
                    "gasUsed": 0,
                    "id": -1,
                    "methodDecoded": false,
                    "operation": "",
                    "output": "",
                    "revert": false,
                    "revertMessage": "",
                    "selector": "",
                    "status": false,
                    "value": ""
                },
                "nodeType": 0
            },
            "0": {
                "invocation": {
                    "address": "0x4d2e6e16857710711ec8f0dae43037cca7e6478d",
                    "callData": "0x00000000000000000000000037681cca9f968c40ca477cd8cd03a529e4a73a9b00000000000000000000000000000000000000000000000000000000000001f4",
                    "decodedMethod": {
                        "callParams": [
                            {
                                "name": "_to",
                                "type": "address",
                                "value": "0x37681cca9f968c40ca477cd8cd03a529e4a73a9b"
                            },
                            {
                                "decimalAvailable": true,
                                "name": "_value",
                                "type": "uint256",
                                "value": "500"
                            }
                        ],
                        "constructorArguments": "",
                        "name": "transfer",
                        "returnParams": [],
                        "signature": "transfer(address,uint256)"
                    },
                    "errorInfo": "",
                    "fromAddress": "0x78f70464f7dc733b9b08252d1e3fc8a89d741af0",
                    "gasUsed": 51522,
                    "id": 0,
                    "methodDecoded": true,
                    "operation": "CALL",
                    "output": "",
                    "revert": false,
                    "revertMessage": "",
                    "selector": "0xa9059cbb",
                    "status": true,
                    "value": "0"
                },
                "nodeType": 0
            },
            "1": {
                "event": {
                    "contract": "0x4d2e6e16857710711ec8f0dae43037cca7e6478d",
                    "decodedLog": {
                        "name": "Transfer",
                        "params": [
                            {
                                "name": "from",
                                "type": "address",
                                "value": "0x78f70464f7dc733b9b08252d1e3fc8a89d741af0"
                            },
                            {
                                "name": "to",
                                "type": "address",
                                "value": "0x37681cca9f968c40ca477cd8cd03a529e4a73a9b"
                            },
                            {
                                "decimalAvailable": true,
                                "name": "value",
                                "type": "uint256",
                                "value": "500"
                            }
                        ],
                        "signature": "Transfer(address,address,uint256)"
                    },
                    "id": 1,
                    "logData": "0x00000000000000000000000000000000000000000000000000000000000001f4",
                    "logDecoded": true,
                    "operation": "EVENT",
                    "revert": false,
                    "status": true,
                    "topics": [
                        "0xddf252ad1be2c89b69c2b068fc378daa952ba7f163c4a11628f55a4df523b3ef",
                        "0x00000000000000000000000078f70464f7dc733b9b08252d1e3fc8a89d741af0",
                        "0x00000000000000000000000037681cca9f968c40ca477cd8cd03a529e4a73a9b"
                    ]
                },
                "nodeType": 1
            }
        },
        "gasFlame": [
            {
                "children": [
                    {
                        "children": [
                            {
                                "children": [],
                                "depth": 0,
                                "name": "Initial Gas",
                                "value": 22936
                            },
                            {
                                "children": [],
                                "depth": 0,
                                "name": "Executed Gas",
                                "value": 28586
                            }
                        ],
                        "depth": -1,
                        "name": "Actual Gas Used",
                        "value": 51522
                    },
                    {
                        "children": [],
                        "depth": -1,
                        "name": "Refunded Gas",
                        "value": 0
                    }
                ],
                "depth": -2,
                "name": "Total Gas",
                "value": 51522
            }
        ],
        "isConfirmed": true,
        "mainTrace": [
            {
                "children": [
                    {
                        "children": [
                            {
                                "children": [],
                                "depth": 1,
                                "id": 1,
                                "order": 1
                            }
                        ],
                        "depth": 0,
                        "id": 0,
                        "order": 0
                    }
                ],
                "depth": -1,
                "id": -1,
                "order": -1
            }
        ],
        "mainTraceNodeCount": 2,
        "parentIdMap": {
            "0": -1,
            "1": 0
        },
        "tidyTrace": [
            {
                "children": [
                    {
                        "children": [
                            {
                                "children": [],
                                "depth": 1,
                                "id": 1,
                                "order": 1
                            }
                        ],
                        "depth": 0,
                        "id": 0,
                        "order": 0
                    }
                ],
                "depth": -1,
                "id": -1,
                "order": -1
            }
        ],
        "tidyTraceNodeCount": 2
    },
    "state_change": {
        "stateChanges": [
            {
                "address": "0x4d2e6e16857710711ec8f0dae43037cca7e6478d",
                "erc": "",
                "slots": [
                    {
                        "current": "0x00000000000000000000000000000000000000000000000000000000000001f4",
                        "key": "0x825d7fa0f6a64811182fb18fb3af1bc885d7e1cbb94fc1570496f57858a6b6fc",
                        "prev": "0x0000000000000000000000000000000000000000000000000000000000000000"
                    },
                    {
                        "current": "0x00000000000000000000000000000000000000000000002a29d5bf5695ef2c96",
                        "key": "0x7909e04174b2adf299006f732669dd15db174198efc80f1866c1935635560e6a",
                        "prev": "0x00000000000000000000000000000000000000000000002a29d5bf5695ef2e8a"
                    }
                ],
                "storageVariables": []
            }
        ]
    }
}