{
    "balance_change": {
        "balanceChanges": [
            {
                "account": "0x84295d5e054d8cff5a22428b195f5a1615bd644f",
                "assets": [
                    {
                        "address": "0x8fdcc30eda7e94f1c12ce0280df6cd531e8365c5",
                        "amount": "123.85638",
                        "iconUrl": "",
                        "isERC1155": false,
                        "isERC721": false,
                        "sign": false,
                        "value": ""
                    }
                ]
            },
            {
                "account": "0x1a22cce492fdda4f089e1bc7e2b22650ef7bf9db",
                "assets": [
                    {
                        "address": "0x8fdcc30eda7e94f1c12ce0280df6cd531e8365c5",
                        "amount": "123.85638",
                        "iconUrl": "",
                        "isERC1155": false,
                        "isERC721": false,
                        "sign": true,
                        "value": ""
                    }
                ]
            }
        ]
    },
    "profile": {
        "basic_info": {
            "baseFee": "",
            "blockNumber": 9670587,
            "callData": "0xa9059cbb0000000000000000000000001a22cce492fdda4f089e1bc7e2b22650ef7bf9db000000000000000000000000000000000000000000000006b6da416409cbc000",
            "debugEnable": true,
            "errorInfo": "",
            "eventCount": 1,
            "feeRecipient": "0xda466bf1ce3c69dbef918817305cf989a6353423",
            "formatValue": "0",
            "gasLimit": 90000,
            "gasPrice": "4",
            "gasUsed": 38580,
            "intTxnCount": 0,
            "internalRevert": false,
            "internalRevertMessage": "",
            "isContractCreation": false,
            "isFlashloan": false,
            "maxFee": "",
            "nonce": 976480,
            "overwritedBlockNumber": -1,
            "priorityFee": "",
            "receiver": "0x8fdcc30eda7e94f1c12ce0280df6cd531e8365c5",
            "revertMessage": "",
            "sender": "0x84295d5e054d8cff5a22428b195f5a1615bd644f",
            "simulationEnable": true,
            "sourceTxnHash": "0x553e539c6291fb89c2353f50df68372663698ffcbb1201f8da103fd1b2da9ca0",
            "status": true,
            "timestamp": "2020-03-14T16:13:33Z",
            "transactionFee": "0.00015432",
            "txnHash": "0x553e539c6291fb89c2353f50df68372663698ffcbb1201f8da103fd1b2da9ca0",
            "txnIndex": 25,
            "type": 0,
            "value": "0"
        },
        "fund_flow": [
            {
                "amount": "123.85638",
                "from": "0x84295d5e054d8cff5a22428b195f5a1615bd644f",
                "id": 1,
                "isERC1155": false,
                "isERC721": false,
                "isReverted": false,
                "order": 1,
                "to": "0x1a22cce492fdda4f089e1bc7e2b22650ef7bf9db",
                "token": "0x8fdcc30eda7e94f1c12ce0280df6cd531e8365c5"
            }
        ],
        "token_infos": [
            {
                "address": "0x8fdcc30eda7e94f1c12ce0280df6cd531e8365c5",
                "decimals": 18
            },
            {
                "address": "0xc02aaa39b223fe8d0a0e5c4f27ead9083c756cc2",
                "decimals": 18
            },
            {
                "address": "0xeeeeeeeeeeeeeeeeeeeeeeeeeeeeeeeeeeeeeeee",
                "decimals": 18
            }
        ]
    },
    "address_label": {
        "labels": [
            {
                "address": "0x8fdcc30eda7e94f1c12ce0280df6cd531e8365c5",
                "label": "CpcToken (CPCT)"
            },
            {
                "address": "0x0000000000000000000000000000000000000001",
                "label": "Precompiled"
            },
            {
                "address": "0x0000000000000000000000000000000000000002",
                "label": "Precompiled"
            },
            {
                "address": "0x0000000000000000000000000000000000000003",
                "label": "Precompiled"
            },
            {
                "address": "0x0000000000000000000000000000000000000004",
                "label": "Precompiled"
            },
            {
                "address": "0xeeeeeeeeeeeeeeeeeeeeeeeeeeeeeeeeeeeeeeee",
                "label": "Ether"
            }
        ]
    },
    "trace": {
        "accountLabels": null,
        "dataMap": {
            "-1": {
                "invocation": {
                    "address": "0x84295d5e054d8cff5a22428b195f5a1615bd644f",
                    "callData": "",
                    "decodedMethod": null,
                    "errorInfo": "",
                    "fromAddress": "",
                    "gasUsed": 0,
                    "id": -1,
                    "methodDecoded": false,
                    "operation": "",
                    "output": "",
                    "revert": false,
                    "revertMessage": "",
                    "selector": "",
                    "status": false,
                    "value": ""
                },
                "nodeType": 0
            },
            "0": {
                "invocation": {
                    "address": "0x8fdcc30eda7e94f1c12ce0280df6cd531e8365c5",
                    "callData": "0x0000000000000000000000001a22cce492fdda4f089e1bc7e2b22650ef7bf9db000000000000000000000000000000000000000000000006b6da416409cbc000",
                    "decodedMethod": {
                        "callParams": [
                            {
                                "name": "_to",
                                "type": "address",
                                "value": "0x1a22cce492fdda4f089e1bc7e2b22650ef7bf9db"
                            },
                            {
                                "decimalAvailable": true,
                                "name": "_value",
                                "type": "uint256",
                                "value": "123,856,380,000,000,000,000"
                            }
                        ],
                        "constructorArguments": "",
                        "name": "transfer",
                        "returnParams": [
                            {
                                "name": "success",
                                "type": "bool",
                                "value": true
                            }
                        ],
                        "signature": "transfer(address,uint256)"
                    },
                    "errorInfo": "",
                    "fromAddress": "0x84295d5e054d8cff5a22428b195f5a1615bd644f",
                    "gasUsed": 38580,
                    "id": 0,
                    "methodDecoded": true,
                    "operation": "CALL",
                    "output": "0x0000000000000000000000000000000000000000000000000000000000000001",
                    "revert": false,
                    "revertMessage": "",
                    "selector": "0xa9059cbb",
                    "status": true,
                    "value": "0"
                },
                "nodeType": 0
            },
            "1": {
                "event": {
                    "contract": "0x8fdcc30eda7e94f1c12ce0280df6cd531e8365c5",
                    "decodedLog": {
                        "name": "Transfer",
                        "params": [
                            {
                                "name": "_from",
                                "type": "address",
                                "value": "0x84295d5e054d8cff5a22428b195f5a1615bd644f"
                            },
                            {
                                "name": "_to",
                                "type": "address",
                                "value": "0x1a22cce492fdda4f089e1bc7e2b22650ef7bf9db"
                            },
                            {
                                "decimalAvailable": true,
                                "name": "_value",
                                "type": "uint256",
                                "value": "123,856,380,000,000,000,000"
                            }
                        ],
                        "signature": "Transfer(address,address,uint256)"
                    },
                    "id": 1,
                    "logData": "0x000000000000000000000000000000000000000000000006b6da416409cbc000",
                    "logDecoded": true,
                    "operation": "EVENT",
                    "revert": false,
                    "status": true,
                    "topics": [
                        "0xddf252ad1be2c89b69c2b068fc378daa952ba7f163c4a11628f55a4df523b3ef",
                        "0x00000000000000000000000084295d5e054d8cff5a22428b195f5a1615bd644f",
                        "0x0000000000000000000000001a22cce492fdda4f089e1bc7e2b22650ef7bf9db"
                    ]
                },
                "nodeType": 1
            }
        },
        "gasFlame": [
            {
                "children": [
                    {
                        "children": [
                            {
                                "children": [],
                                "depth": 0,
                                "name": "Initial Gas",
                                "value": 21656
                            },
                            {
                                "children": [],
                                "depth": 0,
                                "name": "Executed Gas",
                                "value": 16924
                            }
                        ],
                        "depth": -1,
                        "name": "Actual Gas Used",
                        "value": 38580
                    },
                    {
                        "children": [],
                        "depth": -1,
                        "name": "Refunded Gas",
                        "value": 0
                    }
                ],
                "depth": -2,
                "name": "Total Gas",
                "value": 38580
            }
        ],
        "isConfirmed": true,
        "mainTrace": [
            {
                "children": [
                    {
                        "children": [
                            {
                                "children": [],
                                "depth": 1,
                                "id": 1,
                                "order": 1
                            }
                        ],
                        "depth": 0,
                        "id": 0,
                        "order": 0
                    }
                ],
                "depth": -1,
                "id": -1,
                "order": -1
            }
        ],
        "mainTraceNodeCount": 2,
        "parentIdMap": {
            "0": -1,
            "1": 0
        },
        "tidyTrace": [
            {
                "children": [
                    {
                        "children": [
                            {
                                "children": [],
                                "depth": 1,
                                "id": 1,
                                "order": 1
                            }
                        ],
                        "depth": 0,
                        "id": 0,
                        "order": 0
                    }
                ],
                "depth": -1,
                "id": -1,
                "order": -1
            }
        ],
        "tidyTraceNodeCount": 2
    },
    "state_change": {
        "stateChanges": [
            {
                "address": "0x8fdcc30eda7e94f1c12ce0280df6cd531e8365c5",
                "erc": "ERC-20",
                "slots": [
                    {
                        "current": "0x00000000000000000000000000000000000000000000b2b394d0c033fda4bc61",
                        "key": "0x6e4fee96a2374e1333fc77db62e543f2a9d566d72bb3d224b61c7120b02d562f",
                        "prev": "0x00000000000000000000000000000000000000000000b2ba4bab019807707c61"
                    },
                    {
                        "current": "0x0000000000000000000000000000000000000000000001bb2443cd20203e9160",
                        "key": "0xbceb4c6303aa0561055d4f4dc7964fca51b748e0c48de4b7dc21451290f3db4e",
                        "prev": "0x0000000000000000000000000000000000000000000001b46d698bbc1672d160"
                    }
                ],
                "storageVariables": [
                    {
                        "name": "balances",
                        "type": "mapping(address => uint256)",
                        "value": {
                            "pairs": [
                                {
                                    "key": "0x1a22cce492fdda4f089e1bc7e2b22650ef7bf9db",
                                    "value": {
                                        "current": "8174520782400000004448",
                                        "prev": "8050664402400000004448",
                                        "typeTag": 1
                                    }
                                },
                                {
                                    "key": "0x84295d5e054d8cff5a22428b195f5a1615bd644f",
                                    "value": {
                                        "current": "843893924422033158224993",
                                        "prev": "844017780802033158224993",
                                        "typeTag": 1
                                    }
                                }
                            ],
                            "typeTag": 4
                        }
                    }
                ]
            }
        ]
    }
}