{
    "balance_change": {
        "balanceChanges": [
            {
                "account": "0xe83b3c8fc65f6dacfccc90c8cac45a1f1dd38a2d",
                "assets": [
                    {
                        "address": "0xeeeeeeeeeeeeeeeeeeeeeeeeeeeeeeeeeeeeeeee",
                        "amount": "0.006130183150445531",
                        "iconUrl": "https://assets.blocksec.com/image/1663669189317-3.png",
                        "isERC1155": false,
                        "isERC721": false,
                        "sign": false,
                        "value": "10.00664383"
                    },
                    {
                        "address": "0x57f1887a8bf19b14fc0df6fd9b2acc9af147ea85",
                        "amount": "1",
                        "iconUrl": "https://assets.blocksec.com/nft/icon/nft_be0542b7-4f14-457c-a46f-8a69d57f084c.png",
                        "isERC1155": false,
                        "isERC721": true,
                        "sign": true,
                        "tokenID": "111393965451502129275343997937311711656180976047103881506356513593514358665617",
                        "value": ""
                    }
                ]
            },
            {
                "account": "0x283af0b28c62c092c9727f1ee09c02ca627eb7f5",
                "assets": [
                    {
                        "address": "0xeeeeeeeeeeeeeeeeeeeeeeeeeeeeeeeeeeeeeeee",
                        "amount": "0.006130183150445531",
                        "iconUrl": "https://assets.blocksec.com/image/1663669189317-3.png",
                        "isERC1155": false,
                        "isERC721": false,
                        "sign": true,
                        "value": "10.00664383"
                    }
                ]
            },
            {
                "account": "0x0000000000000000000000000000000000000000",
                "assets": [
                    {
                        "address": "0x57f1887a8bf19b14fc0df6fd9b2acc9af147ea85",
                        "amount": "1",
                        "iconUrl": "https://assets.blocksec.com/nft/icon/nft_be0542b7-4f14-457c-a46f-8a69d57f084c.png",
                        "isERC1155": false,
                        "isERC721": true,
                        "sign": false,
                        "tokenID": "111393965451502129275343997937311711656180976047103881506356513593514358665617",
                        "value": ""
                    }
                ]
            }
        ]
    },
    "profile": {
        "basic_info": {
            "baseFee": "20.881959768",
            "blockNumber": 15497107,
            "callData": "0xf7a1696300000000000000000000000000000000000000000000000000000000000000c0000000000000000000000000e83b3c8fc65f6dacfccc90c8cac45a1f1dd38a2d0000000000000000000000000000000000000000000000000000000003c30ab05789f250e59d45db20dc75ead8a3c038554d78bae58038faea87cd7db68f8e820000000000000000000000004976fb03c32e5b8cfe2b6ccb31c09ba78ebaba41000000000000000000000000e83b3c8fc65f6dacfccc90c8cac45a1f1dd38a2d000000000000000000000000000000000000000000000000000000000000000b707a656e63686172697479000000000000000000000000000000000000000000",
            "debugEnable": true,
            "errorInfo": "",
            "eventCount": 9,
            "feeRecipient": "0x5b310960a7922092fdcb9295ece336012f9cf87e",
            "formatValue": "0.006708925004460732",
            "gasLimit": 307547,
            "gasPrice": "22.381959768",
            "gasUsed": 276715,
            "intTxnCount": 19,
            "internalRevert": false,
            "internalRevertMessage": "",
            "isContractCreation": false,
            "isFlashloan": false,
            "maxFee": "23.863906247",
            "nonce": 4,
            "overwritedBlockNumber": -1,
            "priorityFee": "1.5",
            "receiver": "0x283af0b28c62c092c9727f1ee09c02ca627eb7f5",
            "revertMessage": "",
            "sender": "0xe83b3c8fc65f6dacfccc90c8cac45a1f1dd38a2d",
            "simulationEnable": true,
            "sourceTxnHash": "0x55df49568a64f68c2af4559686bf03276e29f11b0031a4dd6840d2116c4c4e61",
            "status": true,
            "timestamp": "2022-09-08T14:25:58Z",
            "transactionFee": "0.00619342399720212",
            "txnHash": "0x55df49568a64f68c2af4559686bf03276e29f11b0031a4dd6840d2116c4c4e61",
            "txnIndex": 31,
            "type": 2,
            "value": "6708925004460732"
        },
        "fund_flow": [
            {
                "amount": "0.006708925004460732",
                "from": "0xe83b3c8fc65f6dacfccc90c8cac45a1f1dd38a2d",
                "id": 1,
                "isERC1155": false,
                "isERC721": false,
                "isReverted": false,
                "order": 1,
                "to": "0x283af0b28c62c092c9727f1ee09c02ca627eb7f5",
                "token": "0xeeeeeeeeeeeeeeeeeeeeeeeeeeeeeeeeeeeeeeee"
            },
            {
                "amount": "1",
                "from": "0x0000000000000000000000000000000000000000",
                "id": 2,
                "isERC1155": false,
                "isERC721": true,
                "isReverted": false,
                "order": 2,
                "to": "0x283af0b28c62c092c9727f1ee09c02ca627eb7f5",
                "token": "0x57f1887a8bf19b14fc0df6fd9b2acc9af147ea85",
                "tokenID": "111393965451502129275343997937311711656180976047103881506356513593514358665617"
            },
            {
                "amount": "1",
                "from": "0x283af0b28c62c092c9727f1ee09c02ca627eb7f5",
                "id": 3,
                "isERC1155": false,
                "isERC721": true,
                "isReverted": false,
                "order": 3,
                "to": "0xe83b3c8fc65f6dacfccc90c8cac45a1f1dd38a2d",
                "token": "0x57f1887a8bf19b14fc0df6fd9b2acc9af147ea85",
                "tokenID": "111393965451502129275343997937311711656180976047103881506356513593514358665617"
            },
            {
                "amount": "0.000578741854015201",
                "from": "0x283af0b28c62c092c9727f1ee09c02ca627eb7f5",
                "id": 4,
                "isERC1155": false,
                "isERC721": false,
                "isReverted": false,
                "order": 4,
                "to": "0xe83b3c8fc65f6dacfccc90c8cac45a1f1dd38a2d",
                "token": "0xeeeeeeeeeeeeeeeeeeeeeeeeeeeeeeeeeeeeeeee"
            }
        ],
        "token_infos": [
            {
                "address": "0xc02aaa39b223fe8d0a0e5c4f27ead9083c756cc2",
                "decimals": 18
            },
            {
                "address": "0xeeeeeeeeeeeeeeeeeeeeeeeeeeeeeeeeeeeeeeee",
                "decimals": 18
            }
        ]
    },
    "address_label": {
        "labels": [
            {
                "address": "0xcf7fe2e614f568989869f4aade060f4eb8a105be",
                "label": "ExponentialPremiumPriceOracle"
            },
            {
                "address": "0x00000000000c2e074ec69a0dfb2997ba6c7d2e1e",
                "label": "ENS: Registry with Fallback"
            },
            {
                "address": "0xeeeeeeeeeeeeeeeeeeeeeeeeeeeeeeeeeeeeeeee",
                "label": "Ether"
            },
            {
                "address": "0x37bc7498f4ff12c19678ee8fe19d713b87f6a9e6",
                "label": "AccessControlledOffchainAggregator"
            },
            {
                "address": "0x57f1887a8bf19b14fc0df6fd9b2acc9af147ea85",
                "label": "ENS: Base Registrar Implementation"
            },
            {
                "address": "0x0000000000000000000000000000000000000001",
                "label": "Precompiled"
            },
            {
                "address": "0x0000000000000000000000000000000000000002",
                "label": "Precompiled"
            },
            {
                "address": "0x0000000000000000000000000000000000000003",
                "label": "Precompiled"
            },
            {
                "address": "0x0000000000000000000000000000000000000004",
                "label": "Precompiled"
            },
            {
                "address": "0x4976fb03c32e5b8cfe2b6ccb31c09ba78ebaba41",
                "label": "ENS: Public Resolver 2"
            },
            {
                "address": "0x5f4ec3df9cbd43714fe2740f5e3616155c5b8419",
                "label": "EACAggregatorProxy"
            },
            {
                "address": "0x283af0b28c62c092c9727f1ee09c02ca627eb7f5",
                "label": "ENS: Old ETH Registrar Controller"
            }
        ]
    },
    "trace": {
        "accountLabels": null,
        "dataMap": {
            "-1": {
                "invocation": {
                    "address": "0xe83b3c8fc65f6dacfccc90c8cac45a1f1dd38a2d",
                    "callData": "",
                    "decodedMethod": null,
                    "errorInfo": "",
                    "fromAddress": "",
                    "gasUsed": 0,
                    "id": -1,
                    "methodDecoded": false,
                    "operation": "",
                    "output": "",
                    "revert": false,
                    "revertMessage": "",
                    "selector": "",
                    "status": false,
                    "value": ""
                },
                "nodeType": 0
            },
            "0": {
                "invocation": {
                    "address": "0x283af0b28c62c092c9727f1ee09c02ca627eb7f5",
                    "callData": "0x00000000000000000000000000000000000000000000000000000000000000c0000000000000000000000000e83b3c8fc65f6dacfccc90c8cac45a1f1dd38a2d0000000000000000000000000000000000000000000000000000000003c30ab05789f250e59d45db20dc75ead8a3c038554d78bae58038faea87cd7db68f8e820000000000000000000000004976fb03c32e5b8cfe2b6ccb31c09ba78ebaba41000000000000000000000000e83b3c8fc65f6dacfccc90c8cac45a1f1dd38a2d000000000000000000000000000000000000000000000000000000000000000b707a656e63686172697479000000000000000000000000000000000000000000",
                    "decodedMethod": {
                        "callParams": [
                            {
                                "name": "name",
                                "type": "string",
                                "value": "pzencharity"
                            },
                            {
                                "name": "owner",
                                "type": "address",
                                "value": "0xe83b3c8fc65f6dacfccc90c8cac45a1f1dd38a2d"
                            },
                            {
                                "name": "duration",
                                "type": "uint256",
                                "value": "63,113,904"
                            },
                            {
                                "name": "secret",
                                "type": "bytes32",
                                "value": "0x5789f250e59d45db20dc75ead8a3c038554d78bae58038faea87cd7db68f8e82"
                            },
                            {
                                "name": "resolver",
                                "type": "address",
                                "value": "0x4976fb03c32e5b8cfe2b6ccb31c09ba78ebaba41"
                            },
                            {
                                "name": "addr",
                                "type": "address",
                                "value": "0xe83b3c8fc65f6dacfccc90c8cac45a1f1dd38a2d"
                            }
                        ],
                        "constructorArguments": "",
                        "name": "registerWithConfig",
                        "returnParams": [],
                        "signature": "registerWithConfig(string,address,uint256,bytes32,address,address)"
                    },
                    "errorInfo": "",
                    "fromAddress": "0xe83b3c8fc65f6dacfccc90c8cac45a1f1dd38a2d",
                    "gasUsed": 276715,
                    "id": 0,
                    "methodDecoded": true,
                    "operation": "CALL",
                    "output": "",
                    "revert": false,
                    "revertMessage": "",
                    "selector": "0xf7a16963",
                    "status": true,
                    "value": "0.006708925004460732"
                },
                "nodeType": 0
            },
            "1": {
                "invocation": {
                    "address": "0x57f1887a8bf19b14fc0df6fd9b2acc9af147ea85",
                    "callData": "0xf646c00a0590a243ea5c49a482fd02d563fdfeaacaf3ef46a9b8e72d7e9af191",
                    "decodedMethod": {
                        "callParams": [
                            {
                                "name": "id",
                                "type": "uint256",
                                "value": "111,393,965,451,502,129,275,343,997,937,311,711,656,180,976,047,103,881,506,356,513,593,514,358,665,617"
                            }
                        ],
                        "constructorArguments": "",
                        "name": "available",
                        "returnParams": [
                            {
                                "name": "",
                                "type": "bool",
                                "value": true
                            }
                        ],
                        "signature": "available(uint256)"
                    },
                    "errorInfo": "",
                    "fromAddress": "0x283af0b28c62c092c9727f1ee09c02ca627eb7f5",
                    "gasUsed": 2569,
                    "id": 1,
                    "methodDecoded": true,
                    "operation": "STATICCALL",
                    "output": "0x0000000000000000000000000000000000000000000000000000000000000001",
                    "revert": false,
                    "revertMessage": "",
                    "selector": "0x96e494e8",
                    "status": true,
                    "value": "0"
                },
                "nodeType": 0
            },
            "10": {
                "event": {
                    "contract": "0x00000000000c2e074ec69a0dfb2997ba6c7d2e1e",
                    "decodedLog": {
                        "name": "NewOwner",
                        "params": [
                            {
                                "name": "node",
                                "type": "bytes32",
                                "value": "0x93cdeb708b7545dc668eb9280176169d1c33cfd8ed6f04690a0bcc88a93fc4ae"
                            },
                            {
                                "name": "label",
                                "type": "bytes32",
                                "value": "0xf646c00a0590a243ea5c49a482fd02d563fdfeaacaf3ef46a9b8e72d7e9af191"
                            },
                            {
                                "name": "owner",
                                "type": "address",
                                "value": "0x283af0b28c62c092c9727f1ee09c02ca627eb7f5"
                            }
                        ],
                        "signature": "NewOwner(bytes32,bytes32,address)"
                    },
                    "id": 10,
                    "logData": "0x000000000000000000000000283af0b28c62c092c9727f1ee09c02ca627eb7f5",
                    "logDecoded": true,
                    "operation": "EVENT",
                    "revert": false,
                    "status": true,
                    "topics": [
                        "0xce0457fe73731f824cc272376169235128c118b49d344817417c6d108d155e82",
                        "0x93cdeb708b7545dc668eb9280176169d1c33cfd8ed6f04690a0bcc88a93fc4ae",
                        "0xf646c00a0590a243ea5c49a482fd02d563fdfeaacaf3ef46a9b8e72d7e9af191"
                    ]
                },
                "nodeType": 1
            },
            "11": {
                "event": {
                    "contract": "0x57f1887a8bf19b14fc0df6fd9b2acc9af147ea85",
                    "decodedLog": {
                        "name": "NameRegistered",
                        "params": [
                            {
                                "name": "id",
                                "type": "uint256",
                                "value": "111,393,965,451,502,129,275,343,997,937,311,711,656,180,976,047,103,881,506,356,513,593,514,358,665,617"
                            },
                            {
                                "name": "owner",
                                "type": "address",
                                "value": "0x283af0b28c62c092c9727f1ee09c02ca627eb7f5"
                            },
                            {
                                "name": "expires",
                                "type": "uint256",
                                "value": "1,725,761,062"
                            }
                        ],
                        "signature": "NameRegistered(uint256,address,uint256)"
                    },
                    "id": 11,
                    "logData": "0x0000000000000000000000000000000000000000000000000000000066dd0626",
                    "logDecoded": true,
                    "operation": "EVENT",
                    "revert": false,
                    "status": true,
                    "topics": [
                        "0xb3d987963d01b2f68493b4bdb130988f157ea43070d4ad840fee0466ed9370d9",
                        "0xf646c00a0590a243ea5c49a482fd02d563fdfeaacaf3ef46a9b8e72d7e9af191",
                        "0x000000000000000000000000283af0b28c62c092c9727f1ee09c02ca627eb7f5"
                    ]
                },
                "nodeType": 1
            },
            "12": {
                "invocation": {
                    "address": "0x57f1887a8bf19b14fc0df6fd9b2acc9af147ea85",
                    "callData": "0x",
                    "decodedMethod": {
                        "callParams": [],
                        "constructorArguments": "",
                        "name": "baseNode",
                        "returnParams": [
                            {
                                "name": "",
                                "type": "bytes32",
                                "value": "0x93cdeb708b7545dc668eb9280176169d1c33cfd8ed6f04690a0bcc88a93fc4ae"
                            }
                        ],
                        "signature": "baseNode()"
                    },
                    "errorInfo": "",
                    "fromAddress": "0x283af0b28c62c092c9727f1ee09c02ca627eb7f5",
                    "gasUsed": 394,
                    "id": 12,
                    "methodDecoded": true,
                    "operation": "STATICCALL",
                    "output": "0x93cdeb708b7545dc668eb9280176169d1c33cfd8ed6f04690a0bcc88a93fc4ae",
                    "revert": false,
                    "revertMessage": "",
                    "selector": "0xddf7fcb0",
                    "status": true,
                    "value": "0"
                },
                "nodeType": 0
            },
            "13": {
                "invocation": {
                    "address": "0x57f1887a8bf19b14fc0df6fd9b2acc9af147ea85",
                    "callData": "0x",
                    "decodedMethod": {
                        "callParams": [],
                        "constructorArguments": "",
                        "name": "ens",
                        "returnParams": [
                            {
                                "name": "",
                                "type": "address",
                                "value": "0x00000000000c2e074ec69a0dfb2997ba6c7d2e1e"
                            }
                        ],
                        "signature": "ens()"
                    },
                    "errorInfo": "",
                    "fromAddress": "0x283af0b28c62c092c9727f1ee09c02ca627eb7f5",
                    "gasUsed": 399,
                    "id": 13,
                    "methodDecoded": true,
                    "operation": "STATICCALL",
                    "output": "0x00000000000000000000000000000000000c2e074ec69a0dfb2997ba6c7d2e1e",
                    "revert": false,
                    "revertMessage": "",
                    "selector": "0x3f15457f",
                    "status": true,
                    "value": "0"
                },
                "nodeType": 0
            },
            "14": {
                "invocation": {
                    "address": "0x00000000000c2e074ec69a0dfb2997ba6c7d2e1e",
                    "callData": "0x2a7cf37e3385b5509ce7b170e7f0d0beec13389d19e6cda95ed671902a13d5540000000000000000000000004976fb03c32e5b8cfe2b6ccb31c09ba78ebaba41",
                    "decodedMethod": {
                        "callParams": [
                            {
                                "name": "node",
                                "type": "bytes32",
                                "value": "0x2a7cf37e3385b5509ce7b170e7f0d0beec13389d19e6cda95ed671902a13d554"
                            },
                            {
                                "name": "resolver",
                                "type": "address",
                                "value": "0x4976fb03c32e5b8cfe2b6ccb31c09ba78ebaba41"
                            }
                        ],
                        "constructorArguments": "",
                        "name": "setResolver",
                        "returnParams": [],
                        "signature": "setResolver(bytes32,address)"
                    },
                    "errorInfo": "",
                    "fromAddress": "0x283af0b28c62c092c9727f1ee09c02ca627eb7f5",
                    "gasUsed": 24371,
                    "id": 14,
                    "methodDecoded": true,
                    "operation": "CALL",
                    "output": "",
                    "revert": false,
                    "revertMessage": "",
                    "selector": "0x1896f70a",
                    "status": true,
                    "value": "0"
                },
                "nodeType": 0
            },
            "15": {
                "event": {
                    "contract": "0x00000000000c2e074ec69a0dfb2997ba6c7d2e1e",
                    "decodedLog": {
                        "name": "NewResolver",
                        "params": [
                            {
                                "name": "node",
                                "type": "bytes32",
                                "value": "0x2a7cf37e3385b5509ce7b170e7f0d0beec13389d19e6cda95ed671902a13d554"
                            },
                            {
                                "name": "resolver",
                                "type": "address",
                                "value": "0x4976fb03c32e5b8cfe2b6ccb31c09ba78ebaba41"
                            }
                        ],
                        "signature": "NewResolver(bytes32,address)"
                    },
                    "id": 15,
                    "logData": "0x0000000000000000000000004976fb03c32e5b8cfe2b6ccb31c09ba78ebaba41",
                    "logDecoded": true,
                    "operation": "EVENT",
                    "revert": false,
                    "status": true,
                    "topics": [
                        "0x335721b01866dc23fbee8b6b2c7b1e14d6f05c28cd35a2c934239f94095602a0",
                        "0x2a7cf37e3385b5509ce7b170e7f0d0beec13389d19e6cda95ed671902a13d554"
                    ]
                },
                "nodeType": 1
            },
            "16": {
                "invocation": {
                    "address": "0x4976fb03c32e5b8cfe2b6ccb31c09ba78ebaba41",
                    "callData": "0x2a7cf37e3385b5509ce7b170e7f0d0beec13389d19e6cda95ed671902a13d554000000000000000000000000e83b3c8fc65f6dacfccc90c8cac45a1f1dd38a2d",
                    "decodedMethod": {
                        "callParams": [
                            {
                                "name": "node",
                                "type": "bytes32",
                                "value": "0x2a7cf37e3385b5509ce7b170e7f0d0beec13389d19e6cda95ed671902a13d554"
                            },
                            {
                                "name": "a",
                                "type": "address",
                                "value": "0xe83b3c8fc65f6dacfccc90c8cac45a1f1dd38a2d"
                            }
                        ],
                        "constructorArguments": "",
                        "name": "setAddr",
                        "returnParams": [],
                        "signature": "setAddr(bytes32,address)"
                    },
                    "errorInfo": "",
                    "fromAddress": "0x283af0b28c62c092c9727f1ee09c02ca627eb7f5",
                    "gasUsed": 34332,
                    "id": 16,
                    "methodDecoded": true,
                    "operation": "CALL",
                    "output": "",
                    "revert": false,
                    "revertMessage": "",
                    "selector": "0xd5fa2b00",
                    "status": true,
                    "value": "0"
                },
                "nodeType": 0
            },
            "17": {
                "invocation": {
                    "address": "0x00000000000c2e074ec69a0dfb2997ba6c7d2e1e",
                    "callData": "0x2a7cf37e3385b5509ce7b170e7f0d0beec13389d19e6cda95ed671902a13d554",
                    "decodedMethod": {
                        "callParams": [
                            {
                                "name": "node",
                                "type": "bytes32",
                                "value": "0x2a7cf37e3385b5509ce7b170e7f0d0beec13389d19e6cda95ed671902a13d554"
                            }
                        ],
                        "constructorArguments": "",
                        "name": "owner",
                        "returnParams": [
                            {
                                "name": "",
                                "type": "address",
                                "value": "0x283af0b28c62c092c9727f1ee09c02ca627eb7f5"
                            }
                        ],
                        "signature": "owner(bytes32)"
                    },
                    "errorInfo": "",
                    "fromAddress": "0x4976fb03c32e5b8cfe2b6ccb31c09ba78ebaba41",
                    "gasUsed": 951,
                    "id": 17,
                    "methodDecoded": true,
                    "operation": "STATICCALL",
                    "output": "0x000000000000000000000000283af0b28c62c092c9727f1ee09c02ca627eb7f5",
                    "revert": false,
                    "revertMessage": "",
                    "selector": "0x02571be3",
                    "status": true,
                    "value": "0"
                },
                "nodeType": 0
            },
            "18": {
                "invocation": {
                    "address": "0x00000000000c2e074ec69a0dfb2997ba6c7d2e1e",
                    "callData": "0x2a7cf37e3385b5509ce7b170e7f0d0beec13389d19e6cda95ed671902a13d554",
                    "decodedMethod": {
                        "callParams": [
                            {
                                "name": "node",
                                "type": "bytes32",
                                "value": "0x2a7cf37e3385b5509ce7b170e7f0d0beec13389d19e6cda95ed671902a13d554"
                            }
                        ],
                        "constructorArguments": "",
                        "name": "owner",
                        "returnParams": [
                            {
                                "name": "",
                                "type": "address",
                                "value": "0x283af0b28c62c092c9727f1ee09c02ca627eb7f5"
                            }
                        ],
                        "signature": "owner(bytes32)"
                    },
                    "errorInfo": "",
                    "fromAddress": "0x4976fb03c32e5b8cfe2b6ccb31c09ba78ebaba41",
                    "gasUsed": 951,
                    "id": 18,
                    "methodDecoded": true,
                    "operation": "STATICCALL",
                    "output": "0x000000000000000000000000283af0b28c62c092c9727f1ee09c02ca627eb7f5",
                    "revert": false,
                    "revertMessage": "",
                    "selector": "0x02571be3",
                    "status": true,
                    "value": "0"
                },
                "nodeType": 0
            },
            "19": {
                "event": {
                    "contract": "0x4976fb03c32e5b8cfe2b6ccb31c09ba78ebaba41",
                    "decodedLog": {
                        "name": "AddressChanged",
                        "params": [
                            {
                                "name": "node",
                                "type": "bytes32",
                                "value": "0x2a7cf37e3385b5509ce7b170e7f0d0beec13389d19e6cda95ed671902a13d554"
                            },
                            {
                                "name": "coinType",
                                "type": "uint256",
                                "value": "60"
                            },
                            {
                                "name": "newAddress",
                                "type": "bytes",
                                "value": "0xe83b3c8fc65f6dacfccc90c8cac45a1f1dd38a2d"
                            }
                        ],
                        "signature": "AddressChanged(bytes32,uint256,bytes)"
                    },
                    "id": 19,
                    "logData": "0x000000000000000000000000000000000000000000000000000000000000003c00000000000000000000000000000000000000000000000000000000000000400000000000000000000000000000000000000000000000000000000000000014e83b3c8fc65f6dacfccc90c8cac45a1f1dd38a2d000000000000000000000000",
                    "logDecoded": true,
                    "operation": "EVENT",
                    "revert": false,
                    "status": true,
                    "topics": [
                        "0x65412581168e88a1e60c6459d7f44ae83ad0832e670826c05a4e2476b57af752",
                        "0x2a7cf37e3385b5509ce7b170e7f0d0beec13389d19e6cda95ed671902a13d554"
                    ]
                },
                "nodeType": 1
            },
            "2": {
                "invocation": {
                    "address": "0x57f1887a8bf19b14fc0df6fd9b2acc9af147ea85",
                    "callData": "0xf646c00a0590a243ea5c49a482fd02d563fdfeaacaf3ef46a9b8e72d7e9af191",
                    "decodedMethod": {
                        "callParams": [
                            {
                                "name": "id",
                                "type": "uint256",
                                "value": "111,393,965,451,502,129,275,343,997,937,311,711,656,180,976,047,103,881,506,356,513,593,514,358,665,617"
                            }
                        ],
                        "constructorArguments": "",
                        "name": "nameExpires",
                        "returnParams": [
                            {
                                "name": "",
                                "type": "uint256",
                                "value": "0"
                            }
                        ],
                        "signature": "nameExpires(uint256)"
                    },
                    "errorInfo": "",
                    "fromAddress": "0x283af0b28c62c092c9727f1ee09c02ca627eb7f5",
                    "gasUsed": 523,
                    "id": 2,
                    "methodDecoded": true,
                    "operation": "STATICCALL",
                    "output": "0x0000000000000000000000000000000000000000000000000000000000000000",
                    "revert": false,
                    "revertMessage": "",
                    "selector": "0xd6e4fa86",
                    "status": true,
                    "value": "0"
                },
                "nodeType": 0
            },
            "20": {
                "event": {
                    "contract": "0x4976fb03c32e5b8cfe2b6ccb31c09ba78ebaba41",
                    "decodedLog": {
                        "name": "AddrChanged",
                        "params": [
                            {
                                "name": "node",
                                "type": "bytes32",
                                "value": "0x2a7cf37e3385b5509ce7b170e7f0d0beec13389d19e6cda95ed671902a13d554"
                            },
                            {
                                "name": "a",
                                "type": "address",
                                "value": "0xe83b3c8fc65f6dacfccc90c8cac45a1f1dd38a2d"
                            }
                        ],
                        "signature": "AddrChanged(bytes32,address)"
                    },
                    "id": 20,
                    "logData": "0x000000000000000000000000e83b3c8fc65f6dacfccc90c8cac45a1f1dd38a2d",
                    "logDecoded": true,
                    "operation": "EVENT",
                    "revert": false,
                    "status": true,
                    "topics": [
                        "0x52d7d861f09ab3d26239d492e8968629f95e9e318cf0b73bfddc441522a15fd2",
                        "0x2a7cf37e3385b5509ce7b170e7f0d0beec13389d19e6cda95ed671902a13d554"
                    ]
                },
                "nodeType": 1
            },
            "21": {
                "invocation": {
                    "address": "0x57f1887a8bf19b14fc0df6fd9b2acc9af147ea85",
                    "callData": "0xf646c00a0590a243ea5c49a482fd02d563fdfeaacaf3ef46a9b8e72d7e9af191000000000000000000000000e83b3c8fc65f6dacfccc90c8cac45a1f1dd38a2d",
                    "decodedMethod": {
                        "callParams": [
                            {
                                "name": "id",
                                "type": "uint256",
                                "value": "111,393,965,451,502,129,275,343,997,937,311,711,656,180,976,047,103,881,506,356,513,593,514,358,665,617"
                            },
                            {
                                "name": "owner",
                                "type": "address",
                                "value": "0xe83b3c8fc65f6dacfccc90c8cac45a1f1dd38a2d"
                            }
                        ],
                        "constructorArguments": "",
                        "name": "reclaim",
                        "returnParams": [],
                        "signature": "reclaim(uint256,address)"
                    },
                    "errorInfo": "",
                    "fromAddress": "0x283af0b28c62c092c9727f1ee09c02ca627eb7f5",
                    "gasUsed": 6652,
                    "id": 21,
                    "methodDecoded": true,
                    "operation": "CALL",
                    "output": "",
                    "revert": false,
                    "revertMessage": "",
                    "selector": "0x28ed4f6c",
                    "status": true,
                    "value": "0"
                },
                "nodeType": 0
            },
            "22": {
                "invocation": {
                    "address": "0x00000000000c2e074ec69a0dfb2997ba6c7d2e1e",
                    "callData": "0x93cdeb708b7545dc668eb9280176169d1c33cfd8ed6f04690a0bcc88a93fc4ae",
                    "decodedMethod": {
                        "callParams": [
                            {
                                "name": "node",
                                "type": "bytes32",
                                "value": "0x93cdeb708b7545dc668eb9280176169d1c33cfd8ed6f04690a0bcc88a93fc4ae"
                            }
                        ],
                        "constructorArguments": "",
                        "name": "owner",
                        "returnParams": [
                            {
                                "name": "",
                                "type": "address",
                                "value": "0x57f1887a8bf19b14fc0df6fd9b2acc9af147ea85"
                            }
                        ],
                        "signature": "owner(bytes32)"
                    },
                    "errorInfo": "",
                    "fromAddress": "0x57f1887a8bf19b14fc0df6fd9b2acc9af147ea85",
                    "gasUsed": 951,
                    "id": 22,
                    "methodDecoded": true,
                    "operation": "STATICCALL",
                    "output": "0x00000000000000000000000057f1887a8bf19b14fc0df6fd9b2acc9af147ea85",
                    "revert": false,
                    "revertMessage": "",
                    "selector": "0x02571be3",
                    "status": true,
                    "value": "0"
                },
                "nodeType": 0
            },
            "23": {
                "invocation": {
                    "address": "0x00000000000c2e074ec69a0dfb2997ba6c7d2e1e",
                    "callData": "0x93cdeb708b7545dc668eb9280176169d1c33cfd8ed6f04690a0bcc88a93fc4aef646c00a0590a243ea5c49a482fd02d563fdfeaacaf3ef46a9b8e72d7e9af191000000000000000000000000e83b3c8fc65f6dacfccc90c8cac45a1f1dd38a2d",
                    "decodedMethod": {
                        "callParams": [
                            {
                                "name": "node",
                                "type": "bytes32",
                                "value": "0x93cdeb708b7545dc668eb9280176169d1c33cfd8ed6f04690a0bcc88a93fc4ae"
                            },
                            {
                                "name": "label",
                                "type": "bytes32",
                                "value": "0xf646c00a0590a243ea5c49a482fd02d563fdfeaacaf3ef46a9b8e72d7e9af191"
                            },
                            {
                                "name": "owner",
                                "type": "address",
                                "value": "0xe83b3c8fc65f6dacfccc90c8cac45a1f1dd38a2d"
                            }
                        ],
                        "constructorArguments": "",
                        "name": "setSubnodeOwner",
                        "returnParams": [
                            {
                                "name": "",
                                "type": "bytes32",
                                "value": "0x2a7cf37e3385b5509ce7b170e7f0d0beec13389d19e6cda95ed671902a13d554"
                            }
                        ],
                        "signature": "setSubnodeOwner(bytes32,bytes32,address)"
                    },
                    "errorInfo": "",
                    "fromAddress": "0x57f1887a8bf19b14fc0df6fd9b2acc9af147ea85",
                    "gasUsed": 3169,
                    "id": 23,
                    "methodDecoded": true,
                    "operation": "CALL",
                    "output": "0x2a7cf37e3385b5509ce7b170e7f0d0beec13389d19e6cda95ed671902a13d554",
                    "revert": false,
                    "revertMessage": "",
                    "selector": "0x06ab5923",
                    "status": true,
                    "value": "0"
                },
                "nodeType": 0
            },
            "24": {
                "event": {
                    "contract": "0x00000000000c2e074ec69a0dfb2997ba6c7d2e1e",
                    "decodedLog": {
                        "name": "NewOwner",
                        "params": [
                            {
                                "name": "node",
                                "type": "bytes32",
                                "value": "0x93cdeb708b7545dc668eb9280176169d1c33cfd8ed6f04690a0bcc88a93fc4ae"
                            },
                            {
                                "name": "label",
                                "type": "bytes32",
                                "value": "0xf646c00a0590a243ea5c49a482fd02d563fdfeaacaf3ef46a9b8e72d7e9af191"
                            },
                            {
                                "name": "owner",
                                "type": "address",
                                "value": "0xe83b3c8fc65f6dacfccc90c8cac45a1f1dd38a2d"
                            }
                        ],
                        "signature": "NewOwner(bytes32,bytes32,address)"
                    },
                    "id": 24,
                    "logData": "0x000000000000000000000000e83b3c8fc65f6dacfccc90c8cac45a1f1dd38a2d",
                    "logDecoded": true,
                    "operation": "EVENT",
                    "revert": false,
                    "status": true,
                    "topics": [
                        "0xce0457fe73731f824cc272376169235128c118b49d344817417c6d108d155e82",
                        "0x93cdeb708b7545dc668eb9280176169d1c33cfd8ed6f04690a0bcc88a93fc4ae",
                        "0xf646c00a0590a243ea5c49a482fd02d563fdfeaacaf3ef46a9b8e72d7e9af191"
                    ]
                },
                "nodeType": 1
            },
            "25": {
                "invocation": {
                    "address": "0x57f1887a8bf19b14fc0df6fd9b2acc9af147ea85",
                    "callData": "0x000000000000000000000000283af0b28c62c092c9727f1ee09c02ca627eb7f5000000000000000000000000e83b3c8fc65f6dacfccc90c8cac45a1f1dd38a2df646c00a0590a243ea5c49a482fd02d563fdfeaacaf3ef46a9b8e72d7e9af191",
                    "decodedMethod": {
                        "callParams": [
                            {
                                "name": "from",
                                "type": "address",
                                "value": "0x283af0b28c62c092c9727f1ee09c02ca627eb7f5"
                            },
                            {
                                "name": "to",
                                "type": "address",
                                "value": "0xe83b3c8fc65f6dacfccc90c8cac45a1f1dd38a2d"
                            },
                            {
                                "decimalAvailable": true,
                                "name": "tokenId",
                                "type": "uint256",
                                "value": "111,393,965,451,502,129,275,343,997,937,311,711,656,180,976,047,103,881,506,356,513,593,514,358,665,617"
                            }
                        ],
                        "constructorArguments": "",
                        "name": "transferFrom",
                        "returnParams": [],
                        "signature": "transferFrom(address,address,uint256)"
                    },
                    "errorInfo": "",
                    "fromAddress": "0x283af0b28c62c092c9727f1ee09c02ca627eb7f5",
                    "gasUsed": 29203,
                    "id": 25,
                    "methodDecoded": true,
                    "operation": "CALL",
                    "output": "",
                    "revert": false,
                    "revertMessage": "",
                    "selector": "0x23b872dd",
                    "status": true,
                    "value": "0"
                },
                "nodeType": 0
            },
            "26": {
                "event": {
                    "contract": "0x57f1887a8bf19b14fc0df6fd9b2acc9af147ea85",
                    "decodedLog": {
                        "name": "Transfer",
                        "params": [
                            {
                                "name": "from",
                                "type": "address",
                                "value": "0x283af0b28c62c092c9727f1ee09c02ca627eb7f5"
                            },
                            {
                                "name": "to",
                                "type": "address",
                                "value": "0xe83b3c8fc65f6dacfccc90c8cac45a1f1dd38a2d"
                            },
                            {
                                "decimalAvailable": true,
                                "name": "tokenId",
                                "type": "uint256",
                                "value": "111,393,965,451,502,129,275,343,997,937,311,711,656,180,976,047,103,881,506,356,513,593,514,358,665,617"
                            }
                        ],
                        "signature": "Transfer(address,address,uint256)"
                    },
                    "id": 26,
                    "logData": "0x",
                    "logDecoded": true,
                    "operation": "EVENT",
                    "revert": false,
                    "status": true,
                    "topics": [
                        "0xddf252ad1be2c89b69c2b068fc378daa952ba7f163c4a11628f55a4df523b3ef",
                        "0x000000000000000000000000283af0b28c62c092c9727f1ee09c02ca627eb7f5",
                        "0x000000000000000000000000e83b3c8fc65f6dacfccc90c8cac45a1f1dd38a2d",
                        "0xf646c00a0590a243ea5c49a482fd02d563fdfeaacaf3ef46a9b8e72d7e9af191"
                    ]
                },
                "nodeType": 1
            },
            "27": {
                "event": {
                    "contract": "0x283af0b28c62c092c9727f1ee09c02ca627eb7f5",
                    "decodedLog": {
                        "name": "NameRegistered",
                        "params": [
                            {
                                "name": "label",
                                "type": "bytes32",
                                "value": "0xf646c00a0590a243ea5c49a482fd02d563fdfeaacaf3ef46a9b8e72d7e9af191"
                            },
                            {
                                "name": "owner",
                                "type": "address",
                                "value": "0xe83b3c8fc65f6dacfccc90c8cac45a1f1dd38a2d"
                            },
                            {
                                "name": "name",
                                "type": "string",
                                "value": "pzencharity"
                            },
                            {
                                "name": "cost",
                                "type": "uint256",
                                "value": "6,130,183,150,445,531"
                            },
                            {
                                "name": "expires",
                                "type": "uint256",
                                "value": "1,725,761,062"
                            }
                        ],
                        "signature": "NameRegistered(string,bytes32,address,uint256,uint256)"
                    },
                    "id": 27,
                    "logData": "0x00000000000000000000000000000000000000000000000000000000000000600000000000000000000000000000000000000000000000000015c75e7d1723db0000000000000000000000000000000000000000000000000000000066dd0626000000000000000000000000000000000000000000000000000000000000000b707a656e63686172697479000000000000000000000000000000000000000000",
                    "logDecoded": true,
                    "operation": "EVENT",
                    "revert": false,
                    "status": true,
                    "topics": [
                        "0xca6abbe9d7f11422cb6ca7629fbf6fe9efb1c621f71ce8f02b9f2a230097404f",
                        "0xf646c00a0590a243ea5c49a482fd02d563fdfeaacaf3ef46a9b8e72d7e9af191",
                        "0x000000000000000000000000e83b3c8fc65f6dacfccc90c8cac45a1f1dd38a2d"
                    ]
                },
                "nodeType": 1
            },
            "28": {
                "invocation": {
                    "address": "0xe83b3c8fc65f6dacfccc90c8cac45a1f1dd38a2d",
                    "callData": "0x",
                    "decodedMethod": null,
                    "errorInfo": "",
                    "fromAddress": "0x283af0b28c62c092c9727f1ee09c02ca627eb7f5",
                    "gasUsed": 0,
                    "id": 28,
                    "methodDecoded": false,
                    "operation": "CALL",
                    "output": "",
                    "revert": false,
                    "revertMessage": "",
                    "selector": "fallback",
                    "status": true,
                    "value": "0.000578741854015201"
                },
                "nodeType": 0
            },
            "3": {
                "invocation": {
                    "address": "0xcf7fe2e614f568989869f4aade060f4eb8a105be",
                    "callData": "0x000000000000000000000000000000000000000000000000000000000000006000000000000000000000000000000000000000000000000000000000000000000000000000000000000000000000000000000000000000000000000003c30ab0000000000000000000000000000000000000000000000000000000000000000b707a656e63686172697479000000000000000000000000000000000000000000",
                    "decodedMethod": {
                        "callParams": [
                            {
                                "name": "name",
                                "type": "string",
                                "value": "pzencharity"
                            },
                            {
                                "name": "expires",
                                "type": "uint256",
                                "value": "0"
                            },
                            {
                                "name": "duration",
                                "type": "uint256",
                                "value": "63,113,904"
                            }
                        ],
                        "constructorArguments": "",
                        "name": "price",
                        "returnParams": [
                            {
                                "name": "",
                                "type": "uint256",
                                "value": "6,130,183,150,445,531"
                            }
                        ],
                        "signature": "price(string,uint256,uint256)"
                    },
                    "errorInfo": "",
                    "fromAddress": "0x283af0b28c62c092c9727f1ee09c02ca627eb7f5",
                    "gasUsed": 30040,
                    "id": 3,
                    "methodDecoded": true,
                    "operation": "STATICCALL",
                    "output": "0x0000000000000000000000000000000000000000000000000015c75e7d1723db",
                    "revert": false,
                    "revertMessage": "",
                    "selector": "0x50e9a715",
                    "status": true,
                    "value": "0"
                },
                "nodeType": 0
            },
            "4": {
                "invocation": {
                    "address": "0x5f4ec3df9cbd43714fe2740f5e3616155c5b8419",
                    "callData": "0x",
                    "decodedMethod": {
                        "callParams": [],
                        "constructorArguments": "",
                        "name": "latestAnswer",
                        "returnParams": [
                            {
                                "name": "",
                                "type": "int256",
                                "value": "163,235,642,232"
                            }
                        ],
                        "signature": "latestAnswer()"
                    },
                    "errorInfo": "",
                    "fromAddress": "0xcf7fe2e614f568989869f4aade060f4eb8a105be",
                    "gasUsed": 14637,
                    "id": 4,
                    "methodDecoded": true,
                    "operation": "STATICCALL",
                    "output": "0x00000000000000000000000000000000000000000000000000000026019a3b78",
                    "revert": false,
                    "revertMessage": "",
                    "selector": "0x50d25bcd",
                    "status": true,
                    "value": "0"
                },
                "nodeType": 0
            },
            "5": {
                "invocation": {
                    "address": "0x37bc7498f4ff12c19678ee8fe19d713b87f6a9e6",
                    "callData": "0x",
                    "decodedMethod": {
                        "callParams": [],
                        "constructorArguments": "",
                        "name": "latestAnswer",
                        "returnParams": [
                            {
                                "name": "",
                                "type": "int256",
                                "value": "163,235,642,232"
                            }
                        ],
                        "signature": "latestAnswer()"
                    },
                    "errorInfo": "",
                    "fromAddress": "0x5f4ec3df9cbd43714fe2740f5e3616155c5b8419",
                    "gasUsed": 7141,
                    "id": 5,
                    "methodDecoded": true,
                    "operation": "STATICCALL",
                    "output": "0x00000000000000000000000000000000000000000000000000000026019a3b78",
                    "revert": false,
                    "revertMessage": "",
                    "selector": "0x50d25bcd",
                    "status": true,
                    "value": "0"
                },
                "nodeType": 0
            },
            "6": {
                "invocation": {
                    "address": "0x57f1887a8bf19b14fc0df6fd9b2acc9af147ea85",
                    "callData": "0xf646c00a0590a243ea5c49a482fd02d563fdfeaacaf3ef46a9b8e72d7e9af191000000000000000000000000283af0b28c62c092c9727f1ee09c02ca627eb7f50000000000000000000000000000000000000000000000000000000003c30ab0",
                    "decodedMethod": {
                        "callParams": [
                            {
                                "name": "id",
                                "type": "uint256",
                                "value": "111,393,965,451,502,129,275,343,997,937,311,711,656,180,976,047,103,881,506,356,513,593,514,358,665,617"
                            },
                            {
                                "name": "owner",
                                "type": "address",
                                "value": "0x283af0b28c62c092c9727f1ee09c02ca627eb7f5"
                            },
                            {
                                "name": "duration",
                                "type": "uint256",
                                "value": "63,113,904"
                            }
                        ],
                        "constructorArguments": "",
                        "name": "register",
                        "returnParams": [
                            {
                                "name": "",
                                "type": "uint256",
                                "value": "1,725,761,062"
                            }
                        ],
                        "signature": "register(uint256,address,uint256)"
                    },
                    "errorInfo": "",
                    "fromAddress": "0x283af0b28c62c092c9727f1ee09c02ca627eb7f5",
                    "gasUsed": 91145,
                    "id": 6,
                    "methodDecoded": true,
                    "operation": "CALL",
                    "output": "0x0000000000000000000000000000000000000000000000000000000066dd0626",
                    "revert": false,
                    "revertMessage": "",
                    "selector": "0xfca247ac",
                    "status": true,
                    "value": "0"
                },
                "nodeType": 0
            },
            "7": {
                "invocation": {
                    "address": "0x00000000000c2e074ec69a0dfb2997ba6c7d2e1e",
                    "callData": "0x93cdeb708b7545dc668eb9280176169d1c33cfd8ed6f04690a0bcc88a93fc4ae",
                    "decodedMethod": {
                        "callParams": [
                            {
                                "name": "node",
                                "type": "bytes32",
                                "value": "0x93cdeb708b7545dc668eb9280176169d1c33cfd8ed6f04690a0bcc88a93fc4ae"
                            }
                        ],
                        "constructorArguments": "",
                        "name": "owner",
                        "returnParams": [
                            {
                                "name": "",
                                "type": "address",
                                "value": "0x57f1887a8bf19b14fc0df6fd9b2acc9af147ea85"
                            }
                        ],
                        "signature": "owner(bytes32)"
                    },
                    "errorInfo": "",
                    "fromAddress": "0x57f1887a8bf19b14fc0df6fd9b2acc9af147ea85",
                    "gasUsed": 2951,
                    "id": 7,
                    "methodDecoded": true,
                    "operation": "STATICCALL",
                    "output": "0x00000000000000000000000057f1887a8bf19b14fc0df6fd9b2acc9af147ea85",
                    "revert": false,
                    "revertMessage": "",
                    "selector": "0x02571be3",
                    "status": true,
                    "value": "0"
                },
                "nodeType": 0
            },
            "8": {
                "event": {
                    "contract": "0x57f1887a8bf19b14fc0df6fd9b2acc9af147ea85",
                    "decodedLog": {
                        "name": "Transfer",
                        "params": [
                            {
                                "name": "from",
                                "type": "address",
                                "value": "0x0000000000000000000000000000000000000000"
                            },
                            {
                                "name": "to",
                                "type": "address",
                                "value": "0x283af0b28c62c092c9727f1ee09c02ca627eb7f5"
                            },
                            {
                                "decimalAvailable": true,
                                "name": "tokenId",
                                "type": "uint256",
                                "value": "111,393,965,451,502,129,275,343,997,937,311,711,656,180,976,047,103,881,506,356,513,593,514,358,665,617"
                            }
                        ],
                        "signature": "Transfer(address,address,uint256)"
                    },
                    "id": 8,
                    "logData": "0x",
                    "logDecoded": true,
                    "operation": "EVENT",
                    "revert": false,
                    "status": true,
                    "topics": [
                        "0xddf252ad1be2c89b69c2b068fc378daa952ba7f163c4a11628f55a4df523b3ef",
                        "0x0000000000000000000000000000000000000000000000000000000000000000",
                        "0x000000000000000000000000283af0b28c62c092c9727f1ee09c02ca627eb7f5",
                        "0xf646c00a0590a243ea5c49a482fd02d563fdfeaacaf3ef46a9b8e72d7e9af191"
                    ]
                },
                "nodeType": 1
            },
            "9": {
                "invocation": {
                    "address": "0x00000000000c2e074ec69a0dfb2997ba6c7d2e1e",
                    "callData": "0x93cdeb708b7545dc668eb9280176169d1c33cfd8ed6f04690a0bcc88a93fc4aef646c00a0590a243ea5c49a482fd02d563fdfeaacaf3ef46a9b8e72d7e9af191000000000000000000000000283af0b28c62c092c9727f1ee09c02ca627eb7f5",
                    "decodedMethod": {
                        "callParams": [
                            {
                                "name": "node",
                                "type": "bytes32",
                                "value": "0x93cdeb708b7545dc668eb9280176169d1c33cfd8ed6f04690a0bcc88a93fc4ae"
                            },
                            {
                                "name": "label",
                                "type": "bytes32",
                                "value": "0xf646c00a0590a243ea5c49a482fd02d563fdfeaacaf3ef46a9b8e72d7e9af191"
                            },
                            {
                                "name": "owner",
                                "type": "address",
                                "value": "0x283af0b28c62c092c9727f1ee09c02ca627eb7f5"
                            }
                        ],
                        "constructorArguments": "",
                        "name": "setSubnodeOwner",
                        "returnParams": [
                            {
                                "name": "",
                                "type": "bytes32",
                                "value": "0x2a7cf37e3385b5509ce7b170e7f0d0beec13389d19e6cda95ed671902a13d554"
                            }
                        ],
                        "signature": "setSubnodeOwner(bytes32,bytes32,address)"
                    },
                    "errorInfo": "",
                    "fromAddress": "0x57f1887a8bf19b14fc0df6fd9b2acc9af147ea85",
                    "gasUsed": 25069,
                    "id": 9,
                    "methodDecoded": true,
                    "operation": "CALL",
                    "output": "0x2a7cf37e3385b5509ce7b170e7f0d0beec13389d19e6cda95ed671902a13d554",
                    "revert": false,
                    "revertMessage": "",
                    "selector": "0x06ab5923",
                    "status": true,
                    "value": "0"
                },
                "nodeType": 0
            }
        },
        "gasFlame": [
            {
                "children": [
                    {
                        "children": [
                            {
                                "children": [],
                                "depth": 0,
                                "name": "Initial Gas",
                                "value": 23396
                            },
                            {
                                "children": [
                                    {
                                        "children": [],
                                        "depth": 1,
                                        "name": "available",
                                        "value": 2569
                                    },
                                    {
                                        "children": [],
                                        "depth": 1,
                                        "name": "nameExpires",
                                        "value": 523
                                    },
                                    {
                                        "children": [
                                            {
                                                "children": [
                                                    {
                                                        "children": [],
                                                        "depth": 3,
                                                        "name": "latestAnswer",
                                                        "value": 7141
                                                    }
                                                ],
                                                "depth": 2,
                                                "name": "latestAnswer",
                                                "value": 14637
                                            }
                                        ],
                                        "depth": 1,
                                        "name": "price",
                                        "value": 30040
                                    },
                                    {
                                        "children": [
                                            {
                                                "children": [],
                                                "depth": 2,
                                                "name": "owner",
                                                "value": 2951
                                            },
                                            {
                                                "children": [],
                                                "depth": 2,
                                                "name": "setSubnodeOwner",
                                                "value": 25069
                                            }
                                        ],
                                        "depth": 1,
                                        "name": "register",
                                        "value": 91145
                                    },
                                    {
                                        "children": [],
                                        "depth": 1,
                                        "name": "baseNode",
                                        "value": 394
                                    },
                                    {
                                        "children": [],
                                        "depth": 1,
                                        "name": "ens",
                                        "value": 399
                                    },
                                    {
                                        "children": [],
                                        "depth": 1,
                                        "name": "setResolver",
                                        "value": 24371
                                    },
                                    {
                                        "children": [
                                            {
                                                "children": [],
                                                "depth": 2,
                                                "name": "owner",
                                                "value": 951
                                            },
                                            {
                                                "children": [],
                                                "depth": 2,
                                                "name": "owner",
                                                "value": 951
                                            }
                                        ],
                                        "depth": 1,
                                        "name": "setAddr",
                                        "value": 34332
                                    },
                                    {
                                        "children": [
                                            {
                                                "children": [],
                                                "depth": 2,
                                                "name": "owner",
                                                "value": 951
                                            },
                                            {
                                                "children": [],
                                                "depth": 2,
                                                "name": "setSubnodeOwner",
                                                "value": 3169
                                            }
                                        ],
                                        "depth": 1,
                                        "name": "reclaim",
                                        "value": 6652
                                    },
                                    {
                                        "children": [],
                                        "depth": 1,
                                        "name": "transferFrom",
                                        "value": 29203
                                    },
                                    {
                                        "children": [],
                                        "depth": 1,
                                        "name": "fallback",
                                        "value": 0
                                    }
                                ],
                                "depth": 0,
                                "name": "Executed Gas",
                                "value": 260919
                            }
                        ],
                        "depth": -1,
                        "name": "Actual Gas Used",
                        "value": 276715
                    },
                    {
                        "children": [],
                        "depth": -1,
                        "name": "Refunded Gas",
                        "value": 7600
                    }
                ],
                "depth": -2,
                "name": "Total Gas",
                "value": 284315
            }
        ],
        "isConfirmed": true,
        "mainTrace": [
            {
                "children": [
                    {
                        "children": [
                            {
                                "children": [],
                                "depth": 1,
                                "id": 1,
                                "order": 1
                            },
                            {
                                "children": [],
                                "depth": 1,
                                "id": 2,
                                "order": 2
                            },
                            {
                                "children": [
                                    {
                                        "children": [
                                            {
                                                "children": [],
                                                "depth": 3,
                                                "id": 5,
                                                "order": 5
                                            }
                                        ],
                                        "depth": 2,
                                        "id": 4,
                                        "order": 4
                                    }
                                ],
                                "depth": 1,
                                "id": 3,
                                "order": 3
                            },
                            {
                                "children": [
                                    {
                                        "children": [],
                                        "depth": 2,
                                        "id": 7,
                                        "order": 7
                                    },
                                    {
                                        "children": [],
                                        "depth": 2,
                                        "id": 8,
                                        "order": 8
                                    },
                                    {
                                        "children": [
                                            {
                                                "children": [],
                                                "depth": 3,
                                                "id": 10,
                                                "order": 10
                                            }
                                        ],
                                        "depth": 2,
                                        "id": 9,
                                        "order": 9
                                    },
                                    {
                                        "children": [],
                                        "depth": 2,
                                        "id": 11,
                                        "order": 11
                                    }
                                ],
                                "depth": 1,
                                "id": 6,
                                "order": 6
                            },
                            {
                                "children": [],
                                "depth": 1,
                                "id": 12,
                                "order": 12
                            },
                            {
                                "children": [],
                                "depth": 1,
                                "id": 13,
                                "order": 13
                            },
                            {
                                "children": [
                                    {
                                        "children": [],
                                        "depth": 2,
                                        "id": 15,
                                        "order": 15
                                    }
                                ],
                                "depth": 1,
                                "id": 14,
                                "order": 14
                            },
                            {
                                "children": [
                                    {
                                        "children": [],
                                        "depth": 2,
                                        "id": 17,
                                        "order": 17
                                    },
                                    {
                                        "children": [],
                                        "depth": 2,
                                        "id": 18,
                                        "order": 18
                                    },
                                    {
                                        "children": [],
                                        "depth": 2,
                                        "id": 19,
                                        "order": 19
                                    },
                                    {
                                        "children": [],
                                        "depth": 2,
                                        "id": 20,
                                        "order": 20
                                    }
                                ],
                                "depth": 1,
                                "id": 16,
                                "order": 16
                            },
                            {
                                "children": [
                                    {
                                        "children": [],
                                        "depth": 2,
                                        "id": 22,
                                        "order": 22
                                    },
                                    {
                                        "children": [
                                            {
                                                "children": [],
                                                "depth": 3,
                                                "id": 24,
                                                "order": 24
                                            }
                                        ],
                                        "depth": 2,
                                        "id": 23,
                                        "order": 23
                                    }
                                ],
                                "depth": 1,
                                "id": 21,
                                "order": 21
                            },
                            {
                                "children": [
                                    {
                                        "children": [],
                                        "depth": 2,
                                        "id": 26,
                                        "order": 26
                                    }
                                ],
                                "depth": 1,
                                "id": 25,
                                "order": 25
                            },
                            {
                                "children": [],
                                "depth": 1,
                                "id": 27,
                                "order": 27
                            },
                            {
                                "children": [],
                                "depth": 1,
                                "id": 28,
                                "order": 28
                            }
                        ],
                        "depth": 0,
                        "id": 0,
                        "order": 0
                    }
                ],
                "depth": -1,
                "id": -1,
                "order": -1
            }
        ],
        "mainTraceNodeCount": 29,
        "parentIdMap": {
            "0": -1,
            "1": 0,
            "10": 9,
            "11": 6,
            "12": 0,
            "13": 0,
            "14": 0,
            "15": 14,
            "16": 0,
            "17": 16,
            "18": 16,
            "19": 16,
            "2": 0,
            "20": 16,
            "21": 0,
            "22": 21,
            "23": 21,
            "24": 23,
            "25": 0,
            "26": 25,
            "27": 0,
            "28": 0,
            "3": 0,
            "4": 3,
            "5": 4,
            "6": 0,
            "7": 6,
            "8": 6,
            "9": 6
        },
        "tidyTrace": [
            {
                "children": [
                    {
                        "children": [
                            {
                                "children": [
                                    {
                                        "children": [],
                                        "depth": 2,
                                        "id": 8,
                                        "order": 8
                                    },
                                    {
                                        "children": [
                                            {
                                                "children": [],
                                                "depth": 3,
                                                "id": 10,
                                                "order": 10
                                            }
                                        ],
                                        "depth": 2,
                                        "id": 9,
                                        "order": 9
                                    },
                                    {
                                        "children": [],
                                        "depth": 2,
                                        "id": 11,
                                        "order": 11
                                    }
                                ],
                                "depth": 1,
                                "id": 6,
                                "order": 6
                            },
                            {
                                "children": [
                                    {
                                        "children": [],
                                        "depth": 2,
                                        "id": 15,
                                        "order": 15
                                    }
                                ],
                                "depth": 1,
                                "id": 14,
                                "order": 14
                            },
                            {
                                "children": [
                                    {
                                        "children": [],
                                        "depth": 2,
                                        "id": 19,
                                        "order": 19
                                    },
                                    {
                                        "children": [],
                                        "depth": 2,
                                        "id": 20,
                                        "order": 20
                                    }
                                ],
                                "depth": 1,
                                "id": 16,
                                "order": 16
                            },
                            {
                                "children": [
                                    {
                                        "children": [
                                            {
                                                "children": [],
                                                "depth": 3,
                                                "id": 24,
                                                "order": 24
                                            }
                                        ],
                                        "depth": 2,
                                        "id": 23,
                                        "order": 23
                                    }
                                ],
                                "depth": 1,
                                "id": 21,
                                "order": 21
                            },
                            {
                                "children": [
                                    {
                                        "children": [],
                                        "depth": 2,
                                        "id": 26,
                                        "order": 26
                                    }
                                ],
                                "depth": 1,
                                "id": 25,
                                "order": 25
                            },
                            {
                                "children": [],
                                "depth": 1,
                                "id": 27,
                                "order": 27
                            },
                            {
                                "children": [],
                                "depth": 1,
                                "id": 28,
                                "order": 28
                            }
                        ],
                        "depth": 0,
                        "id": 0,
                        "order": 0
                    }
                ],
                "depth": -1,
                "id": -1,
                "order": -1
            }
        ],
        "tidyTraceNodeCount": 18
    },
    "state_change": {
        "stateChanges": [
            {
                "address": "0x00000000000c2e074ec69a0dfb2997ba6c7d2e1e",
                "erc": "",
                "slots": [
                    {
                        "current": "0x000000000000000000000000e83b3c8fc65f6dacfccc90c8cac45a1f1dd38a2d",
                        "key": "0xd65e705481a70d4136139e42c68f6c92fb80e47c9342b3861245d061d69fd68e",
                        "prev": "0x0000000000000000000000000000000000000000000000000000000000000000"
                    },
                    {
                        "current": "0x0000000000000000000000004976fb03c32e5b8cfe2b6ccb31c09ba78ebaba41",
                        "key": "0xd65e705481a70d4136139e42c68f6c92fb80e47c9342b3861245d061d69fd68f",
                        "prev": "0x0000000000000000000000000000000000000000000000000000000000000000"
                    }
                ],
                "storageVariables": [
                    {
                        "name": "records",
                        "type": "mapping(bytes32 => struct ENSRegistry.Record)",
                        "value": {
                            "pairs": [
                                {
                                    "key": "0x2a7cf37e3385b5509ce7b170e7f0d0beec13389d19e6cda95ed671902a13d554",
                                    "value": {
                                        "fields": [
                                            {
                                                "name": "owner",
                                                "type": "address",
                                                "value": {
                                                    "current": "0xe83b3c8fc65f6dacfccc90c8cac45a1f1dd38a2d",
                                                    "prev": "0x0000000000000000000000000000000000000000",
                                                    "typeTag": 1
                                                }
                                            },
                                            {
                                                "name": "resolver",
                                                "type": "address",
                                                "value": {
                                                    "current": "0x4976fb03c32e5b8cfe2b6ccb31c09ba78ebaba41",
                                                    "prev": "0x0000000000000000000000000000000000000000",
                                                    "typeTag": 1
                                                }
                                            },
                                            {
                                                "name": "ttl",
                                                "type": "uint64",
                                                "value": {
                                                    "current": "0",
                                                    "prev": "0",
                                                    "typeTag": 1
                                                }
                                            }
                                        ],
                                        "typeTag": 3
                                    }
                                }
                            ],
                            "typeTag": 4
                        }
                    }
                ]
            },
            {
                "address": "0x283af0b28c62c092c9727f1ee09c02ca627eb7f5",
                "erc": "",
                "slots": [
                    {
                        "current": "0x0000000000000000000000000000000000000000000000000000000000000000",
                        "key": "0xcc36f44be0aa68d4d70fa79c0a6a21c2d670af19d6b31c7ec52f52e9f408bde6",
                        "prev": "0x000000000000000000000000000000000000000000000000000000006319fa75"
                    }
                ],
                "storageVariables": [
                    {
                        "name": "commitments",
                        "type": "mapping(bytes32 => uint256)",
                        "value": {
                            "pairs": [
                                {
                                    "key": "0x13c06cf966275e6067064d553e89d18479d1599cc35e8483c9c26f4cc20a794d",
                                    "value": {
                                        "current": "0",
                                        "prev": "1662646901",
                                        "typeTag": 1
                                    }
                                }
                            ],
                            "typeTag": 4
                        }
                    }
                ]
            },
            {
                "address": "0x4976fb03c32e5b8cfe2b6ccb31c09ba78ebaba41",
                "erc": "",
                "slots": [
                    {
                        "current": "0xe83b3c8fc65f6dacfccc90c8cac45a1f1dd38a2d000000000000000000000028",
                        "key": "0x40077eb1c8b4bada1f725d395468fef0a30598598e5066228d7d2f5f87ea32e2",
                        "prev": "0x0000000000000000000000000000000000000000000000000000000000000000"
                    }
                ],
                "storageVariables": [
                    {
                        "name": "_addresses",
                        "type": "mapping(bytes32 => mapping(uint256 => bytes))",
                        "value": {
                            "pairs": [
                                {
                                    "key": "0x2a7cf37e3385b5509ce7b170e7f0d0beec13389d19e6cda95ed671902a13d554",
                                    "value": {
                                        "pairs": [
                                            {
                                                "key": "60",
                                                "value": {
                                                    "current": "0xe83b3c8fc65f6dacfccc90c8cac45a1f1dd38a2d",
                                                    "prev": "0x",
                                                    "typeTag": 1
                                                }
                                            }
                                        ],
                                        "typeTag": 4
                                    }
                                }
                            ],
                            "typeTag": 4
                        }
                    }
                ]
            },
            {
                "address": "0x57f1887a8bf19b14fc0df6fd9b2acc9af147ea85",
                "erc": "ERC-721",
                "slots": [
                    {
                        "current": "0x0000000000000000000000000000000000000000000000000000000066dd0626",
                        "key": "0xba9468fc727786f4c472660b020338bacab60003e15fecdee3cd361522c880e8",
                        "prev": "0x0000000000000000000000000000000000000000000000000000000000000000"
                    },
                    {
                        "current": "0x000000000000000000000000e83b3c8fc65f6dacfccc90c8cac45a1f1dd38a2d",
                        "key": "0x99dc4d0bafb3d21bbaddf9d6724934190bf83c6d3bafe463076599b64af98612",
                        "prev": "0x0000000000000000000000000000000000000000000000000000000000000000"
                    },
                    {
                        "current": "0x0000000000000000000000000000000000000000000000000000000000000001",
                        "key": "0xd6b10af72949b2bd78745312739dd9d89d98e91bba2c8fa0a063853eab69dbae",
                        "prev": "0x0000000000000000000000000000000000000000000000000000000000000000"
                    }
                ],
                "storageVariables": [
                    {
                        "name": "expiries",
                        "type": "mapping(uint256 => uint256)",
                        "value": {
                            "pairs": [
                                {
                                    "key": "111393965451502129275343997937311711656180976047103881506356513593514358665617",
                                    "value": {
                                        "current": "1725761062",
                                        "prev": "0",
                                        "typeTag": 1
                                    }
                                }
                            ],
                            "typeTag": 4
                        }
                    },
                    {
                        "name": "_tokenOwner",
                        "type": "mapping(uint256 => address)",
                        "value": {
                            "pairs": [
                                {
                                    "key": "111393965451502129275343997937311711656180976047103881506356513593514358665617",
                                    "value": {
                                        "current": "0xe83b3c8fc65f6dacfccc90c8cac45a1f1dd38a2d",
                                        "prev": "0x0000000000000000000000000000000000000000",
                                        "typeTag": 1
                                    }
                                }
                            ],
                            "typeTag": 4
                        }
                    },
                    {
                        "name": "_ownedTokensCount",
                        "type": "mapping(address => uint256)",
                        "value": {
                            "pairs": [
                                {
                                    "key": "0xe83b3c8fc65f6dacfccc90c8cac45a1f1dd38a2d",
                                    "value": {
                                        "current": "1",
                                        "prev": "0",
                                        "typeTag": 1
                                    }
                                }
                            ],
                            "typeTag": 4
                        }
                    }
                ]
            }
        ]
    }
}