{
    "balance_change": {
        "balanceChanges": [
            {
                "account": "0x2a0c0dbecc7e4d658f48e01e3fa353f44050c208",
                "assets": [
                    {
                        "address": "0xeeeeeeeeeeeeeeeeeeeeeeeeeeeeeeeeeeeeeeee",
                        "amount": "1.147345255351139803",
                        "iconUrl": "https://assets.blocksec.com/image/1663669189317-3.png",
                        "isERC1155": false,
                        "isERC721": false,
                        "sign": false,
                        "value": ""
                    }
                ]
            },
            {
                "account": "0x7ce5e0b222f5ed90708197b1df2000419a4d2212",
                "assets": [
                    {
                        "address": "0xeeeeeeeeeeeeeeeeeeeeeeeeeeeeeeeeeeeeeeee",
                        "amount": "1.147345255351139803",
                        "iconUrl": "https://assets.blocksec.com/image/1663669189317-3.png",
                        "isERC1155": false,
                        "isERC721": false,
                        "sign": true,
                        "value": ""
                    }
                ]
            }
        ]
    },
    "profile": {
        "basic_info": {
            "baseFee": "",
            "blockNumber": 5714235,
            "callData": "0x2295115b00000000000000000000000000000000000000000000000000000000000000000000000000000000000000000000000000000000000000000ff2f0788501fddb0000000000000000000000007ce5e0b222f5ed90708197b1df2000419a4d22120000000000000000000000000000000000000000000000000000000000000033000000000000000000000000000000000000000000000000000000000000001b8e92f53e136d2809fe3cc4d770c0fd5a08995923ab4fc2f09bad61d7380c5fca706350d9b5ede4e77c04476162c10b784fca4726d84373c661770e5cbe64b3e50000000000000000000000000000000000000000000000000005dfa158389522",
            "debugEnable": true,
            "errorInfo": "",
            "eventCount": 1,
            "feeRecipient": "0x829bd824b016326a401d083b33d092293333a830",
            "formatValue": "0",
            "gasLimit": 410000,
            "gasPrice": "19",
            "gasUsed": 67877,
            "intTxnCount": 2,
            "internalRevert": false,
            "internalRevertMessage": "",
            "isContractCreation": false,
            "isFlashloan": false,
            "maxFee": "",
            "nonce": 57746,
            "overwritedBlockNumber": -1,
            "priorityFee": "",
            "receiver": "0x2a0c0dbecc7e4d658f48e01e3fa353f44050c208",
            "revertMessage": "",
            "sender": "0xa7a7899d944fe658c4b0a1803bab2f490bd3849e",
            "simulationEnable": true,
            "sourceTxnHash": "0x55a86d6ca975b4a49ad87aca2f162d81b74e21156e8defc737d16484fe0bd101",
            "status": true,
            "timestamp": "2018-06-01T14:12:24Z",
            "transactionFee": "0.001289663",
            "txnHash": "0x55a86d6ca975b4a49ad87aca2f162d81b74e21156e8defc737d16484fe0bd101",
            "txnIndex": 81,
            "type": 0,
            "value": "0"
        },
        "fund_flow": [
            {
                "amount": "1.147345255351139803",
                "from": "0x2a0c0dbecc7e4d658f48e01e3fa353f44050c208",
                "id": 1,
                "isERC1155": false,
                "isERC721": false,
                "isReverted": false,
                "order": 1,
                "to": "0x7ce5e0b222f5ed90708197b1df2000419a4d2212",
                "token": "0xeeeeeeeeeeeeeeeeeeeeeeeeeeeeeeeeeeeeeeee"
            }
        ],
        "token_infos": [
            {
                "address": "0xc02aaa39b223fe8d0a0e5c4f27ead9083c756cc2",
                "decimals": 18
            },
            {
                "address": "0xeeeeeeeeeeeeeeeeeeeeeeeeeeeeeeeeeeeeeeee",
                "decimals": 18
            }
        ]
    },
    "address_label": {
        "labels": [
            {
                "address": "0x0000000000000000000000000000000000000003",
                "label": "Precompiled"
            },
            {
                "address": "0x0000000000000000000000000000000000000004",
                "label": "Precompiled"
            },
            {
                "address": "0xeeeeeeeeeeeeeeeeeeeeeeeeeeeeeeeeeeeeeeee",
                "label": "Ether"
            },
            {
                "address": "0xa7a7899d944fe658c4b0a1803bab2f490bd3849e",
                "label": "IDEX 2"
            },
            {
                "address": "0x0000000000000000000000000000000000000000",
                "label": "Null Address"
            },
            {
                "address": "0x2a0c0dbecc7e4d658f48e01e3fa353f44050c208",
                "label": "IDEX"
            },
            {
                "address": "0x0000000000000000000000000000000000000001",
                "label": "Precompiled"
            },
            {
                "address": "0x0000000000000000000000000000000000000002",
                "label": "Precompiled"
            }
        ]
    },
    "trace": {
        "accountLabels": null,
        "dataMap": {
            "-1": {
                "invocation": {
                    "address": "0xa7a7899d944fe658c4b0a1803bab2f490bd3849e",
                    "callData": "",
                    "decodedMethod": null,
                    "errorInfo": "",
                    "fromAddress": "",
                    "gasUsed": 0,
                    "id": -1,
                    "methodDecoded": false,
                    "operation": "",
                    "output": "",
                    "revert": false,
                    "revertMessage": "",
                    "selector": "",
                    "status": false,
                    "value": ""
                },
                "nodeType": 0
            },
            "0": {
                "invocation": {
                    "address": "0x2a0c0dbecc7e4d658f48e01e3fa353f44050c208",
                    "callData": "0x00000000000000000000000000000000000000000000000000000000000000000000000000000000000000000000000000000000000000000ff2f0788501fddb0000000000000000000000007ce5e0b222f5ed90708197b1df2000419a4d22120000000000000000000000000000000000000000000000000000000000000033000000000000000000000000000000000000000000000000000000000000001b8e92f53e136d2809fe3cc4d770c0fd5a08995923ab4fc2f09bad61d7380c5fca706350d9b5ede4e77c04476162c10b784fca4726d84373c661770e5cbe64b3e50000000000000000000000000000000000000000000000000005dfa158389522",
                    "decodedMethod": {
                        "callParams": [
                            {
                                "name": "token",
                                "type": "address",
                                "value": "0x0000000000000000000000000000000000000000"
                            },
                            {
                                "name": "amount",
                                "type": "uint256",
                                "value": "1,149,245,255,351,139,803"
                            },
                            {
                                "name": "user",
                                "type": "address",
                                "value": "0x7ce5e0b222f5ed90708197b1df2000419a4d2212"
                            },
                            {
                                "name": "nonce",
                                "type": "uint256",
                                "value": "51"
                            },
                            {
                                "name": "v",
                                "type": "uint8",
                                "value": "27"
                            },
                            {
                                "name": "r",
                                "type": "bytes32",
                                "value": "0x8e92f53e136d2809fe3cc4d770c0fd5a08995923ab4fc2f09bad61d7380c5fca"
                            },
                            {
                                "name": "s",
                                "type": "bytes32",
                                "value": "0x706350d9b5ede4e77c04476162c10b784fca4726d84373c661770e5cbe64b3e5"
                            },
                            {
                                "name": "feeWithdrawal",
                                "type": "uint256",
                                "value": "1,653,258,946,385,186"
                            }
                        ],
                        "constructorArguments": "",
                        "name": "adminWithdraw",
                        "returnParams": [
                            {
                                "name": "success",
                                "type": "bool",
                                "value": false
                            }
                        ],
                        "signature": "adminWithdraw(address,uint256,address,uint256,uint8,bytes32,bytes32,uint256)"
                    },
                    "errorInfo": "",
                    "fromAddress": "0xa7a7899d944fe658c4b0a1803bab2f490bd3849e",
                    "gasUsed": 67877,
                    "id": 0,
                    "methodDecoded": true,
                    "operation": "CALL",
                    "output": "0x0000000000000000000000000000000000000000000000000000000000000000",
                    "revert": false,
                    "revertMessage": "",
                    "selector": "0x2295115b",
                    "status": true,
                    "value": "0"
                },
                "nodeType": 0
            },
            "1": {
                "invocation": {
                    "address": "0x0000000000000000000000000000000000000001",
                    "callData": "0x1fe27a1ce28bf1aaba2deface6ed53a1c7888d10e6dd0f0dbd64f0a5000000000000000000000000000000000000000000000000000000000000001b8e92f53e136d2809fe3cc4d770c0fd5a08995923ab4fc2f09bad61d7380c5fca706350d9b5ede4e77c04476162c10b784fca4726d84373c661770e5cbe64b3e5",
                    "decodedMethod": {
                        "callParams": [
                            {
                                "name": "hash",
                                "type": "bytes32",
                                "value": "0x33356c2b1fe27a1ce28bf1aaba2deface6ed53a1c7888d10e6dd0f0dbd64f0a5"
                            },
                            {
                                "name": "v",
                                "type": "uint256",
                                "value": "27"
                            },
                            {
                                "name": "r",
                                "type": "bytes32",
                                "value": "0x8e92f53e136d2809fe3cc4d770c0fd5a08995923ab4fc2f09bad61d7380c5fca"
                            },
                            {
                                "name": "s",
                                "type": "bytes32",
                                "value": "0x706350d9b5ede4e77c04476162c10b784fca4726d84373c661770e5cbe64b3e5"
                            }
                        ],
                        "constructorArguments": "",
                        "name": "ecrecover",
                        "returnParams": [
                            {
                                "name": "",
                                "type": "address",
                                "value": "0x7ce5e0b222f5ed90708197b1df2000419a4d2212"
                            }
                        ],
                        "signature": "ecrecover(bytes32,uint256,bytes32,bytes32)"
                    },
                    "errorInfo": "",
                    "fromAddress": "0x2a0c0dbecc7e4d658f48e01e3fa353f44050c208",
                    "gasUsed": 3000,
                    "id": 1,
                    "methodDecoded": true,
                    "operation": "CALL",
                    "output": "0x0000000000000000000000007ce5e0b222f5ed90708197b1df2000419a4d2212",
                    "revert": false,
                    "revertMessage": "",
                    "selector": "0x33356c2b",
                    "status": true,
                    "value": "0"
                },
                "nodeType": 0
            },
            "2": {
                "invocation": {
                    "address": "0x7ce5e0b222f5ed90708197b1df2000419a4d2212",
                    "callData": "0x",
                    "decodedMethod": null,
                    "errorInfo": "",
                    "fromAddress": "0x2a0c0dbecc7e4d658f48e01e3fa353f44050c208",
                    "gasUsed": 0,
                    "id": 2,
                    "methodDecoded": false,
                    "operation": "CALL",
                    "output": "",
                    "revert": false,
                    "revertMessage": "",
                    "selector": "fallback",
                    "status": true,
                    "value": "1.147345255351139803"
                },
                "nodeType": 0
            },
            "3": {
                "event": {
                    "contract": "0x2a0c0dbecc7e4d658f48e01e3fa353f44050c208",
                    "decodedLog": {
                        "name": "Withdraw",
                        "params": [
                            {
                                "name": "token",
                                "type": "address",
                                "value": "0x0000000000000000000000000000000000000000"
                            },
                            {
                                "name": "user",
                                "type": "address",
                                "value": "0x7ce5e0b222f5ed90708197b1df2000419a4d2212"
                            },
                            {
                                "name": "amount",
                                "type": "uint256",
                                "value": "1,147,345,255,351,139,803"
                            },
                            {
                                "name": "balance",
                                "type": "uint256",
                                "value": "0"
                            }
                        ],
                        "signature": "Withdraw(address,address,uint256,uint256)"
                    },
                    "id": 3,
                    "logData": "0x00000000000000000000000000000000000000000000000000000000000000000000000000000000000000007ce5e0b222f5ed90708197b1df2000419a4d22120000000000000000000000000000000000000000000000000fec306e4bef3ddb0000000000000000000000000000000000000000000000000000000000000000",
                    "logDecoded": true,
                    "operation": "EVENT",
                    "revert": false,
                    "status": true,
                    "topics": [
                        "0xf341246adaac6f497bc2a656f546ab9e182111d630394f0c57c710a59a2cb567"
                    ]
                },
                "nodeType": 1
            }
        },
        "gasFlame": [
            {
                "children": [
                    {
                        "children": [
                            {
                                "children": [],
                                "depth": 0,
                                "name": "Initial Gas",
                                "value": 28696
                            },
                            {
                                "children": [
                                    {
                                        "children": [],
                                        "depth": 1,
                                        "name": "ecrecover",
                                        "value": 3000
                                    },
                                    {
                                        "children": [],
                                        "depth": 1,
                                        "name": "fallback",
                                        "value": 0
                                    }
                                ],
                                "depth": 0,
                                "name": "Executed Gas",
                                "value": 54181
                            }
                        ],
                        "depth": -1,
                        "name": "Actual Gas Used",
                        "value": 67877
                    },
                    {
                        "children": [],
                        "depth": -1,
                        "name": "Refunded Gas",
                        "value": 15000
                    }
                ],
                "depth": -2,
                "name": "Total Gas",
                "value": 82877
            }
        ],
        "isConfirmed": true,
        "mainTrace": [
            {
                "children": [
                    {
                        "children": [
                            {
                                "children": [],
                                "depth": 1,
                                "id": 1,
                                "order": 1
                            },
                            {
                                "children": [],
                                "depth": 1,
                                "id": 2,
                                "order": 2
                            },
                            {
                                "children": [],
                                "depth": 1,
                                "id": 3,
                                "order": 3
                            }
                        ],
                        "depth": 0,
                        "id": 0,
                        "order": 0
                    }
                ],
                "depth": -1,
                "id": -1,
                "order": -1
            }
        ],
        "mainTraceNodeCount": 4,
        "parentIdMap": {
            "0": -1,
            "1": 0,
            "2": 0,
            "3": 0
        },
        "tidyTrace": [
            {
                "children": [
                    {
                        "children": [
                            {
                                "children": [],
                                "depth": 1,
                                "id": 1,
                                "order": 1
                            },
                            {
                                "children": [],
                                "depth": 1,
                                "id": 2,
                                "order": 2
                            },
                            {
                                "children": [],
                                "depth": 1,
                                "id": 3,
                                "order": 3
                            }
                        ],
                        "depth": 0,
                        "id": 0,
                        "order": 0
                    }
                ],
                "depth": -1,
                "id": -1,
                "order": -1
            }
        ],
        "tidyTraceNodeCount": 4
    },
    "state_change": {
        "stateChanges": [
            {
                "address": "0x2a0c0dbecc7e4d658f48e01e3fa353f44050c208",
                "erc": "",
                "slots": [
                    {
                        "current": "0x0000000000000000000000000000000000000000000000000000000000000001",
                        "key": "0x814e34b23af2ca3c5fd0182f247e6f1fe69c8cedb5e685381b1fbf1b8215005f",
                        "prev": "0x0000000000000000000000000000000000000000000000000000000000000000"
                    },
                    {
                        "current": "0x0000000000000000000000000000000000000000000000000000000000000000",
                        "key": "0x454b105923c81bc3e4a11aaf9191e5b1769334db131b54c10c8590d27cfcd064",
                        "prev": "0x0000000000000000000000000000000000000000000000000ff2f0788501fddb"
                    },
                    {
                        "current": "0x00000000000000000000000000000000000000000000005de2ab971d6cc9b425",
                        "key": "0x3ccb72d91c5c66cba135a4135963ed23443b8a63817f501517468fcd5097e277",
                        "prev": "0x00000000000000000000000000000000000000000000005de2a4d71333b6f426"
                    },
                    {
                        "current": "0x000000000000000000000000000000000000000000000000000000000057313b",
                        "key": "0xbadae418dae5c4137d8f5550ab46917435c7276d8f9274473cea338b114e9319",
                        "prev": "0x0000000000000000000000000000000000000000000000000000000000573135"
                    }
                ],
                "storageVariables": [
                    {
                        "name": "withdrawn",
                        "type": "mapping(bytes32 => bool)",
                        "value": {
                            "pairs": [
                                {
                                    "key": "0x1ce6b207126ecbf4b1bbe8fa8523c92b4683d5f399bd8e045df70b79e374816c",
                                    "value": {
                                        "current": "true",
                                        "prev": "false",
                                        "typeTag": 1
                                    }
                                }
                            ],
                            "typeTag": 4
                        }
                    },
                    {
                        "name": "tokens",
                        "type": "mapping(address => mapping(address => uint256))",
                        "value": {
                            "pairs": [
                                {
                                    "key": "0x0000000000000000000000000000000000000000",
                                    "value": {
                                        "pairs": [
                                            {
                                                "key": "0x034767f3c519f361c5ecf46ebfc08981c629d381",
                                                "value": {
                                                    "current": "1731880513481212539941",
                                                    "prev": "1731878613481212539942",
                                                    "typeTag": 1
                                                }
                                            },
                                            {
                                                "key": "0x7ce5e0b222f5ed90708197b1df2000419a4d2212",
                                                "value": {
                                                    "current": "0",
                                                    "prev": "1149245255351139803",
                                                    "typeTag": 1
                                                }
                                            }
                                        ],
                                        "typeTag": 4
                                    }
                                }
                            ],
                            "typeTag": 4
                        }
                    },
                    {
                        "name": "lastActiveTransaction",
                        "type": "mapping(address => uint256)",
                        "value": {
                            "pairs": [
                                {
                                    "key": "0x7ce5e0b222f5ed90708197b1df2000419a4d2212",
                                    "value": {
                                        "current": "5714235",
                                        "prev": "5714229",
                                        "typeTag": 1
                                    }
                                }
                            ],
                            "typeTag": 4
                        }
                    }
                ]
            }
        ]
    }
}