{
    "balance_change": {
        "balanceChanges": [
            {
                "account": "0x9263e48402cd29d1623ebd586a76950369b794d0",
                "assets": [
                    {
                        "address": "0x252b9f56359901a0bde52d0675b1f1130d86f471",
                        "amount": "350.8421",
                        "iconUrl": "",
                        "isERC1155": false,
                        "isERC721": false,
                        "sign": false,
                        "value": ""
                    }
                ]
            },
            {
                "account": "0xf34b2055e6d3b71d6c9b077a1ac60828432f2f0d",
                "assets": [
                    {
                        "address": "0x252b9f56359901a0bde52d0675b1f1130d86f471",
                        "amount": "350.8421",
                        "iconUrl": "",
                        "isERC1155": false,
                        "isERC721": false,
                        "sign": true,
                        "value": ""
                    }
                ]
            }
        ]
    },
    "profile": {
        "basic_info": {
            "baseFee": "",
            "blockNumber": 12937324,
            "callData": "0xa9059cbb000000000000000000000000f34b2055e6d3b71d6c9b077a1ac60828432f2f0d00000000000000000000000000000000000000000000001304e9871be0134000",
            "debugEnable": true,
            "errorInfo": "",
            "eventCount": 1,
            "feeRecipient": "0x829bd824b016326a401d083b33d092293333a830",
            "formatValue": "0",
            "gasLimit": 58768,
            "gasPrice": "30",
            "gasUsed": 39179,
            "intTxnCount": 0,
            "internalRevert": false,
            "internalRevertMessage": "",
            "isContractCreation": false,
            "isFlashloan": false,
            "maxFee": "",
            "nonce": 142,
            "overwritedBlockNumber": -1,
            "priorityFee": "",
            "receiver": "0x252b9f56359901a0bde52d0675b1f1130d86f471",
            "revertMessage": "",
            "sender": "0x9263e48402cd29d1623ebd586a76950369b794d0",
            "simulationEnable": true,
            "sourceTxnHash": "0x553bbc532f84396da2541448c5de27122688c2c9b293ceee425b0b1f61cd5f45",
            "status": true,
            "timestamp": "2021-08-01T03:40:37Z",
            "transactionFee": "0.00117537",
            "txnHash": "0x553bbc532f84396da2541448c5de27122688c2c9b293ceee425b0b1f61cd5f45",
            "txnIndex": 192,
            "type": 0,
            "value": "0"
        },
        "fund_flow": [
            {
                "amount": "350.8421",
                "from": "0x9263e48402cd29d1623ebd586a76950369b794d0",
                "id": 1,
                "isERC1155": false,
                "isERC721": false,
                "isReverted": false,
                "order": 1,
                "to": "0xf34b2055e6d3b71d6c9b077a1ac60828432f2f0d",
                "token": "0x252b9f56359901a0bde52d0675b1f1130d86f471"
            }
        ],
        "token_infos": [
            {
                "address": "0x252b9f56359901a0bde52d0675b1f1130d86f471",
                "decimals": 18
            },
            {
                "address": "0xc02aaa39b223fe8d0a0e5c4f27ead9083c756cc2",
                "decimals": 18
            },
            {
                "address": "0xeeeeeeeeeeeeeeeeeeeeeeeeeeeeeeeeeeeeeeee",
                "decimals": 18
            }
        ]
    },
    "address_label": {
        "labels": [
            {
                "address": "0xeeeeeeeeeeeeeeeeeeeeeeeeeeeeeeeeeeeeeeee",
                "label": "Ether"
            },
            {
                "address": "0x252b9f56359901a0bde52d0675b1f1130d86f471",
                "label": "Pando Browser: PANDO Token"
            },
            {
                "address": "0x0000000000000000000000000000000000000001",
                "label": "Precompiled"
            },
            {
                "address": "0x0000000000000000000000000000000000000002",
                "label": "Precompiled"
            },
            {
                "address": "0x0000000000000000000000000000000000000003",
                "label": "Precompiled"
            },
            {
                "address": "0x0000000000000000000000000000000000000004",
                "label": "Precompiled"
            }
        ]
    },
    "trace": {
        "accountLabels": null,
        "dataMap": {
            "-1": {
                "invocation": {
                    "address": "0x9263e48402cd29d1623ebd586a76950369b794d0",
                    "callData": "",
                    "decodedMethod": null,
                    "errorInfo": "",
                    "fromAddress": "",
                    "gasUsed": 0,
                    "id": -1,
                    "methodDecoded": false,
                    "operation": "",
                    "output": "",
                    "revert": false,
                    "revertMessage": "",
                    "selector": "",
                    "status": false,
                    "value": ""
                },
                "nodeType": 0
            },
            "0": {
                "invocation": {
                    "address": "0x252b9f56359901a0bde52d0675b1f1130d86f471",
                    "callData": "0x000000000000000000000000f34b2055e6d3b71d6c9b077a1ac60828432f2f0d00000000000000000000000000000000000000000000001304e9871be0134000",
                    "decodedMethod": {
                        "callParams": [
                            {
                                "name": "_to",
                                "type": "address",
                                "value": "0xf34b2055e6d3b71d6c9b077a1ac60828432f2f0d"
                            },
                            {
                                "decimalAvailable": true,
                                "name": "_value",
                                "type": "uint256",
                                "value": "350,842,100,000,000,000,000"
                            }
                        ],
                        "constructorArguments": "",
                        "name": "transfer",
                        "returnParams": [
                            {
                                "name": "",
                                "type": "bool",
                                "value": true
                            }
                        ],
                        "signature": "transfer(address,uint256)"
                    },
                    "errorInfo": "",
                    "fromAddress": "0x9263e48402cd29d1623ebd586a76950369b794d0",
                    "gasUsed": 39179,
                    "id": 0,
                    "methodDecoded": true,
                    "operation": "CALL",
                    "output": "0x0000000000000000000000000000000000000000000000000000000000000001",
                    "revert": false,
                    "revertMessage": "",
                    "selector": "0xa9059cbb",
                    "status": true,
                    "value": "0"
                },
                "nodeType": 0
            },
            "1": {
                "event": {
                    "contract": "0x252b9f56359901a0bde52d0675b1f1130d86f471",
                    "decodedLog": {
                        "name": "Transfer",
                        "params": [
                            {
                                "name": "_from",
                                "type": "address",
                                "value": "0x9263e48402cd29d1623ebd586a76950369b794d0"
                            },
                            {
                                "name": "_to",
                                "type": "address",
                                "value": "0xf34b2055e6d3b71d6c9b077a1ac60828432f2f0d"
                            },
                            {
                                "decimalAvailable": true,
                                "name": "_value",
                                "type": "uint256",
                                "value": "350,842,100,000,000,000,000"
                            }
                        ],
                        "signature": "Transfer(address,address,uint256)"
                    },
                    "id": 1,
                    "logData": "0x00000000000000000000000000000000000000000000001304e9871be0134000",
                    "logDecoded": true,
                    "operation": "EVENT",
                    "revert": false,
                    "status": true,
                    "topics": [
                        "0xddf252ad1be2c89b69c2b068fc378daa952ba7f163c4a11628f55a4df523b3ef",
                        "0x0000000000000000000000009263e48402cd29d1623ebd586a76950369b794d0",
                        "0x000000000000000000000000f34b2055e6d3b71d6c9b077a1ac60828432f2f0d"
                    ]
                },
                "nodeType": 1
            }
        },
        "gasFlame": [
            {
                "children": [
                    {
                        "children": [
                            {
                                "children": [],
                                "depth": 0,
                                "name": "Initial Gas",
                                "value": 21656
                            },
                            {
                                "children": [],
                                "depth": 0,
                                "name": "Executed Gas",
                                "value": 17523
                            }
                        ],
                        "depth": -1,
                        "name": "Actual Gas Used",
                        "value": 39179
                    },
                    {
                        "children": [],
                        "depth": -1,
                        "name": "Refunded Gas",
                        "value": 0
                    }
                ],
                "depth": -2,
                "name": "Total Gas",
                "value": 39179
            }
        ],
        "isConfirmed": true,
        "mainTrace": [
            {
                "children": [
                    {
                        "children": [
                            {
                                "children": [],
                                "depth": 1,
                                "id": 1,
                                "order": 1
                            }
                        ],
                        "depth": 0,
                        "id": 0,
                        "order": 0
                    }
                ],
                "depth": -1,
                "id": -1,
                "order": -1
            }
        ],
        "mainTraceNodeCount": 2,
        "parentIdMap": {
            "0": -1,
            "1": 0
        },
        "tidyTrace": [
            {
                "children": [
                    {
                        "children": [
                            {
                                "children": [],
                                "depth": 1,
                                "id": 1,
                                "order": 1
                            }
                        ],
                        "depth": 0,
                        "id": 0,
                        "order": 0
                    }
                ],
                "depth": -1,
                "id": -1,
                "order": -1
            }
        ],
        "tidyTraceNodeCount": 2
    },
    "state_change": {
        "stateChanges": [
            {
                "address": "0x252b9f56359901a0bde52d0675b1f1130d86f471",
                "erc": "ERC-20",
                "slots": [
                    {
                        "current": "0x0000000000000000000000000000000000000000000a847eec6b8e58d7682800",
                        "key": "0x19fef7bbb91bd7636a80c45604a886d2e3226490cfaa291bad4958385d1b57f8",
                        "prev": "0x0000000000000000000000000000000000000000000a8491f1551574b77b6800"
                    },
                    {
                        "current": "0x00000000000000000000000000000000000000000000001c9a4e809bacd98000",
                        "key": "0x37e0683c8662723b3b888aa041cf80841f5a692f687560a7cfc691068145a7f2",
                        "prev": "0x0000000000000000000000000000000000000000000000099564f97fccc64000"
                    }
                ],
                "storageVariables": [
                    {
                        "name": "balances",
                        "type": "mapping(address => uint256)",
                        "value": {
                            "pairs": [
                                {
                                    "key": "0x9263e48402cd29d1623ebd586a76950369b794d0",
                                    "value": {
                                        "current": "12714951897504900000000000",
                                        "prev": "12715302739604900000000000",
                                        "typeTag": 1
                                    }
                                },
                                {
                                    "key": "0xf34b2055e6d3b71d6c9b077a1ac60828432f2f0d",
                                    "value": {
                                        "current": "527627800000000000000",
                                        "prev": "176785700000000000000",
                                        "typeTag": 1
                                    }
                                }
                            ],
                            "typeTag": 4
                        }
                    }
                ]
            }
        ]
    }
}