{
    "balance_change": {
        "balanceChanges": [
            {
                "account": "0x0000000000000000000000000000000000000000",
                "assets": [
                    {
                        "address": "0x79817fd8f2eb22688d183392e1de1a48eed51d83",
                        "amount": "1,832",
                        "iconUrl": "",
                        "isERC1155": false,
                        "isERC721": false,
                        "sign": false,
                        "value": ""
                    }
                ]
            },
            {
                "account": "0x0985f53f9adea925ab2246a0cb76d68f1e066928",
                "assets": [
                    {
                        "address": "0x79817fd8f2eb22688d183392e1de1a48eed51d83",
                        "amount": "1,832",
                        "iconUrl": "",
                        "isERC1155": false,
                        "isERC721": false,
                        "sign": true,
                        "value": ""
                    }
                ]
            }
        ]
    },
    "profile": {
        "basic_info": {
            "baseFee": "",
            "blockNumber": 6910996,
            "callData": "0x1d6680dc0000000000000000000000000985f53f9adea925ab2246a0cb76d68f1e06692800000000000000000000000000000000000000000000000000000000000000e0000000000000000000000000000000000000000000000000000000000000012000000000000000000000000000000000000000000000000000000000000001a00000000000000000000000000000000000000000000000000000000000000220000000000000000000000000000000000000000000000000000000000000024000000000000000000000000000000000000000000000000000000000000002c000000000000000000000000000000000000000000000000000000000000000203866643936666330373261393535373938303439643333383766613364393766000000000000000000000000000000000000000000000000000000000000004368747470733a2f2f697066732e696f2f697066732f516d546351446e48453150795267334870644659324a53354d4d5070385344787a34556a4e627a6947526e6458530000000000000000000000000000000000000000000000000000000000000000000000000000000000000000000000000000000000000000000000004368747470733a2f2f697066732e696f2f697066732f516d64726448394472644a6b76346e5a584a67424179325a486f6f4478477134637056656256324e3171366b78590000000000000000000000000000000000000000000000000000000000000000000000000000000000000000000000000000000000000000000000000000000000000000000000000000000000000000000000000000000000000000030000000000000000000000000000000000000000000000000000000000000001000000000000000000000000000000000000000000000000000000000000000f0000000000000000000000000000000000000000000000000000000000000001000000000000000000000000000000000000000000000000000000000000000200000000000000000000000000000000000000000000000000000000000000010000000000000000000000000000000000000000000000000000000000000001",
            "debugEnable": true,
            "errorInfo": "",
            "eventCount": 2,
            "feeRecipient": "0xea674fdde714fd979de3edf0f56aa9716b898ec8",
            "formatValue": "0",
            "gasLimit": 7800000,
            "gasPrice": "20",
            "gasUsed": 655750,
            "intTxnCount": 39,
            "internalRevert": false,
            "internalRevertMessage": "",
            "isContractCreation": false,
            "isFlashloan": false,
            "maxFee": "",
            "nonce": 1940,
            "overwritedBlockNumber": -1,
            "priorityFee": "",
            "receiver": "0xf194c4f6cd4e0518f224c04650f396165b5a69e3",
            "revertMessage": "",
            "sender": "0xc5a3d99e05c39a18d6342b5f27c08c64a486df00",
            "simulationEnable": true,
            "sourceTxnHash": "0x55e007b533efd7fafa225d85e6a1d10e3829fe11f487ec8f837463e0ef171a67",
            "status": true,
            "timestamp": "2018-12-18T20:29:52Z",
            "transactionFee": "0.013115",
            "txnHash": "0x55e007b533efd7fafa225d85e6a1d10e3829fe11f487ec8f837463e0ef171a67",
            "txnIndex": 2,
            "type": 0,
            "value": "0"
        },
        "fund_flow": [
            {
                "amount": "1,832",
                "from": "0x0000000000000000000000000000000000000000",
                "id": 1,
                "isERC1155": false,
                "isERC721": false,
                "isReverted": false,
                "order": 1,
                "to": "0x0985f53f9adea925ab2246a0cb76d68f1e066928",
                "token": "0x79817fd8f2eb22688d183392e1de1a48eed51d83"
            }
        ],
        "token_infos": [
            {
                "address": "0x79817fd8f2eb22688d183392e1de1a48eed51d83",
                "decimals": 0
            },
            {
                "address": "0xc02aaa39b223fe8d0a0e5c4f27ead9083c756cc2",
                "decimals": 18
            },
            {
                "address": "0xeeeeeeeeeeeeeeeeeeeeeeeeeeeeeeeeeeeeeeee",
                "decimals": 18
            }
        ]
    },
    "address_label": {
        "labels": [
            {
                "address": "0x79817fd8f2eb22688d183392e1de1a48eed51d83",
                "label": "SNP001"
            },
            {
                "address": "0x0000000000000000000000000000000000000001",
                "label": "Precompiled"
            },
            {
                "address": "0x0000000000000000000000000000000000000002",
                "label": "Precompiled"
            },
            {
                "address": "0x0000000000000000000000000000000000000003",
                "label": "Precompiled"
            },
            {
                "address": "0x0000000000000000000000000000000000000004",
                "label": "Precompiled"
            },
            {
                "address": "0xeeeeeeeeeeeeeeeeeeeeeeeeeeeeeeeeeeeeeeee",
                "label": "Ether"
            }
        ]
    },
    "trace": {
        "accountLabels": null,
        "dataMap": {
            "-1": {
                "invocation": {
                    "address": "0xc5a3d99e05c39a18d6342b5f27c08c64a486df00",
                    "callData": "",
                    "decodedMethod": null,
                    "errorInfo": "",
                    "fromAddress": "",
                    "gasUsed": 0,
                    "id": -1,
                    "methodDecoded": false,
                    "operation": "",
                    "output": "",
                    "revert": false,
                    "revertMessage": "",
                    "selector": "",
                    "status": false,
                    "value": ""
                },
                "nodeType": 0
            },
            "0": {
                "invocation": {
                    "address": "0xf194c4f6cd4e0518f224c04650f396165b5a69e3",
                    "callData": "0x0000000000000000000000000985f53f9adea925ab2246a0cb76d68f1e06692800000000000000000000000000000000000000000000000000000000000000e0000000000000000000000000000000000000000000000000000000000000012000000000000000000000000000000000000000000000000000000000000001a00000000000000000000000000000000000000000000000000000000000000220000000000000000000000000000000000000000000000000000000000000024000000000000000000000000000000000000000000000000000000000000002c000000000000000000000000000000000000000000000000000000000000000203866643936666330373261393535373938303439643333383766613364393766000000000000000000000000000000000000000000000000000000000000004368747470733a2f2f697066732e696f2f697066732f516d546351446e48453150795267334870644659324a53354d4d5070385344787a34556a4e627a6947526e6458530000000000000000000000000000000000000000000000000000000000000000000000000000000000000000000000000000000000000000000000004368747470733a2f2f697066732e696f2f697066732f516d64726448394472644a6b76346e5a584a67424179325a486f6f4478477134637056656256324e3171366b78590000000000000000000000000000000000000000000000000000000000000000000000000000000000000000000000000000000000000000000000000000000000000000000000000000000000000000000000000000000000000000030000000000000000000000000000000000000000000000000000000000000001000000000000000000000000000000000000000000000000000000000000000f0000000000000000000000000000000000000000000000000000000000000001000000000000000000000000000000000000000000000000000000000000000200000000000000000000000000000000000000000000000000000000000000010000000000000000000000000000000000000000000000000000000000000001",
                    "decodedMethod": null,
                    "errorInfo": "",
                    "fromAddress": "0xc5a3d99e05c39a18d6342b5f27c08c64a486df00",
                    "gasUsed": 655750,
                    "id": 0,
                    "methodDecoded": false,
                    "operation": "CALL",
                    "output": "",
                    "revert": false,
                    "revertMessage": "",
                    "selector": "0x1d6680dc",
                    "status": true,
                    "value": "0"
                },
                "nodeType": 0
            },
            "1": {
                "invocation": {
                    "address": "0x31ec5b84668b1a5597b508934c5f6a1b4ede245f",
                    "callData": "0x0000000000000000000000003007b07667826a4a4aa17a7619e46dd0f0e75157",
                    "decodedMethod": null,
                    "errorInfo": "",
                    "fromAddress": "0xf194c4f6cd4e0518f224c04650f396165b5a69e3",
                    "gasUsed": 3843,
                    "id": 1,
                    "methodDecoded": false,
                    "operation": "DELEGATECALL",
                    "output": "0x0000000000000000000000000000000000000000000000000000000000000001",
                    "revert": false,
                    "revertMessage": "",
                    "selector": "0xcf935ac7",
                    "status": true,
                    "value": "0"
                },
                "nodeType": 0
            },
            "10": {
                "invocation": {
                    "address": "0x3007b07667826a4a4aa17a7619e46dd0f0e75157",
                    "callData": "0xb4ba5777fb38f2db5fba6f93c665f3e890e885444c1ba6bf64279491ab3c39270000000000000000000000000000000000000000000000000000000000000728",
                    "decodedMethod": {
                        "callParams": [
                            {
                                "name": "_key",
                                "type": "bytes32",
                                "value": "0xb4ba5777fb38f2db5fba6f93c665f3e890e885444c1ba6bf64279491ab3c3927"
                            },
                            {
                                "name": "_value",
                                "type": "uint256",
                                "value": "1,832"
                            }
                        ],
                        "constructorArguments": "",
                        "name": "setUint",
                        "returnParams": [],
                        "signature": "setUint(bytes32,uint256)"
                    },
                    "errorInfo": "",
                    "fromAddress": "0xf194c4f6cd4e0518f224c04650f396165b5a69e3",
                    "gasUsed": 6620,
                    "id": 10,
                    "methodDecoded": true,
                    "operation": "CALL",
                    "output": "",
                    "revert": false,
                    "revertMessage": "",
                    "selector": "0xe2a4853a",
                    "status": true,
                    "value": "0"
                },
                "nodeType": 0
            },
            "11": {
                "invocation": {
                    "address": "0x3007b07667826a4a4aa17a7619e46dd0f0e75157",
                    "callData": "0x0120b677dea262a4d393ca73b531248c10c1ff332d67bf1ba763ea469905feea0000000000000000000000000985f53f9adea925ab2246a0cb76d68f1e066928",
                    "decodedMethod": {
                        "callParams": [
                            {
                                "name": "id",
                                "type": "bytes32",
                                "value": "0x0120b677dea262a4d393ca73b531248c10c1ff332d67bf1ba763ea469905feea"
                            },
                            {
                                "name": "newAddress",
                                "type": "address",
                                "value": "0x0985f53f9adea925ab2246a0cb76d68f1e066928"
                            }
                        ],
                        "constructorArguments": "",
                        "name": "setAddress",
                        "returnParams": [],
                        "signature": "setAddress(bytes32,address)"
                    },
                    "errorInfo": "",
                    "fromAddress": "0xf194c4f6cd4e0518f224c04650f396165b5a69e3",
                    "gasUsed": 21959,
                    "id": 11,
                    "methodDecoded": true,
                    "operation": "CALL",
                    "output": "",
                    "revert": false,
                    "revertMessage": "",
                    "selector": "0xca446dd9",
                    "status": true,
                    "value": "0"
                },
                "nodeType": 0
            },
            "12": {
                "invocation": {
                    "address": "0x3007b07667826a4a4aa17a7619e46dd0f0e75157",
                    "callData": "0x64efe0f156310cba1f879e80eddeb6eb49fce85045416edd810e437f253c941d000000000000000000000000000000000000000000000000000000000000004000000000000000000000000000000000000000000000000000000000000000203866643936666330373261393535373938303439643333383766613364393766",
                    "decodedMethod": {
                        "callParams": [
                            {
                                "name": "_key",
                                "type": "bytes32",
                                "value": "0x64efe0f156310cba1f879e80eddeb6eb49fce85045416edd810e437f253c941d"
                            },
                            {
                                "name": "_value",
                                "type": "string",
                                "value": "8fd96fc072a955798049d3387fa3d97f"
                            }
                        ],
                        "constructorArguments": "",
                        "name": "setString",
                        "returnParams": [],
                        "signature": "setString(bytes32,string)"
                    },
                    "errorInfo": "",
                    "fromAddress": "0xf194c4f6cd4e0518f224c04650f396165b5a69e3",
                    "gasUsed": 41983,
                    "id": 12,
                    "methodDecoded": true,
                    "operation": "CALL",
                    "output": "",
                    "revert": false,
                    "revertMessage": "",
                    "selector": "0x6e899550",
                    "status": true,
                    "value": "0"
                },
                "nodeType": 0
            },
            "13": {
                "invocation": {
                    "address": "0x3007b07667826a4a4aa17a7619e46dd0f0e75157",
                    "callData": "0x4d35d05439954137445a329d8c9d6f70faf583848f97c0c32fe28bf90c5b8e7b0000000000000000000000000000000000000000000000000000000000000001",
                    "decodedMethod": {
                        "callParams": [
                            {
                                "name": "_key",
                                "type": "bytes32",
                                "value": "0x4d35d05439954137445a329d8c9d6f70faf583848f97c0c32fe28bf90c5b8e7b"
                            },
                            {
                                "name": "_value",
                                "type": "uint256",
                                "value": "1"
                            }
                        ],
                        "constructorArguments": "",
                        "name": "setUint",
                        "returnParams": [],
                        "signature": "setUint(bytes32,uint256)"
                    },
                    "errorInfo": "",
                    "fromAddress": "0xf194c4f6cd4e0518f224c04650f396165b5a69e3",
                    "gasUsed": 21620,
                    "id": 13,
                    "methodDecoded": true,
                    "operation": "CALL",
                    "output": "",
                    "revert": false,
                    "revertMessage": "",
                    "selector": "0xe2a4853a",
                    "status": true,
                    "value": "0"
                },
                "nodeType": 0
            },
            "14": {
                "invocation": {
                    "address": "0x3007b07667826a4a4aa17a7619e46dd0f0e75157",
                    "callData": "0x12ba3f00becc74a5847710c90e4f95d531671cbbaeb4675db6119639a2522c1a0000000000000000000000000000000000000000000000000000000000000001",
                    "decodedMethod": {
                        "callParams": [
                            {
                                "name": "_key",
                                "type": "bytes32",
                                "value": "0x12ba3f00becc74a5847710c90e4f95d531671cbbaeb4675db6119639a2522c1a"
                            },
                            {
                                "name": "_value",
                                "type": "uint256",
                                "value": "1"
                            }
                        ],
                        "constructorArguments": "",
                        "name": "setUint",
                        "returnParams": [],
                        "signature": "setUint(bytes32,uint256)"
                    },
                    "errorInfo": "",
                    "fromAddress": "0xf194c4f6cd4e0518f224c04650f396165b5a69e3",
                    "gasUsed": 21620,
                    "id": 14,
                    "methodDecoded": true,
                    "operation": "CALL",
                    "output": "",
                    "revert": false,
                    "revertMessage": "",
                    "selector": "0xe2a4853a",
                    "status": true,
                    "value": "0"
                },
                "nodeType": 0
            },
            "15": {
                "invocation": {
                    "address": "0x3007b07667826a4a4aa17a7619e46dd0f0e75157",
                    "callData": "0x0bf87ede30709ce43aa98aadcd6410892c12bf41d3fd592f011e7a3ac3d0f2240000000000000000000000000000000000000000000000000000000000000000",
                    "decodedMethod": {
                        "callParams": [
                            {
                                "name": "_key",
                                "type": "bytes32",
                                "value": "0x0bf87ede30709ce43aa98aadcd6410892c12bf41d3fd592f011e7a3ac3d0f224"
                            },
                            {
                                "name": "_value",
                                "type": "uint256",
                                "value": "0"
                            }
                        ],
                        "constructorArguments": "",
                        "name": "setUint",
                        "returnParams": [],
                        "signature": "setUint(bytes32,uint256)"
                    },
                    "errorInfo": "",
                    "fromAddress": "0xf194c4f6cd4e0518f224c04650f396165b5a69e3",
                    "gasUsed": 6620,
                    "id": 15,
                    "methodDecoded": true,
                    "operation": "CALL",
                    "output": "",
                    "revert": false,
                    "revertMessage": "",
                    "selector": "0xe2a4853a",
                    "status": true,
                    "value": "0"
                },
                "nodeType": 0
            },
            "16": {
                "invocation": {
                    "address": "0x3007b07667826a4a4aa17a7619e46dd0f0e75157",
                    "callData": "0x42922a04dbb13e77efb72ad1c4dd63a672fb7f7208d886eaf077eb8cae38e2b10000000000000000000000000000000000000000000000000000000000000001",
                    "decodedMethod": {
                        "callParams": [
                            {
                                "name": "_key",
                                "type": "bytes32",
                                "value": "0x42922a04dbb13e77efb72ad1c4dd63a672fb7f7208d886eaf077eb8cae38e2b1"
                            },
                            {
                                "name": "_value",
                                "type": "uint256",
                                "value": "1"
                            }
                        ],
                        "constructorArguments": "",
                        "name": "setUint",
                        "returnParams": [],
                        "signature": "setUint(bytes32,uint256)"
                    },
                    "errorInfo": "",
                    "fromAddress": "0xf194c4f6cd4e0518f224c04650f396165b5a69e3",
                    "gasUsed": 21620,
                    "id": 16,
                    "methodDecoded": true,
                    "operation": "CALL",
                    "output": "",
                    "revert": false,
                    "revertMessage": "",
                    "selector": "0xe2a4853a",
                    "status": true,
                    "value": "0"
                },
                "nodeType": 0
            },
            "17": {
                "invocation": {
                    "address": "0x3007b07667826a4a4aa17a7619e46dd0f0e75157",
                    "callData": "0xe78093f110db51899c75377d00be33d4b95b9564be936faf2c6c4698c32d8b23000000000000000000000000000000000000000000000000000000000000000f",
                    "decodedMethod": {
                        "callParams": [
                            {
                                "name": "_key",
                                "type": "bytes32",
                                "value": "0xe78093f110db51899c75377d00be33d4b95b9564be936faf2c6c4698c32d8b23"
                            },
                            {
                                "name": "_value",
                                "type": "uint256",
                                "value": "15"
                            }
                        ],
                        "constructorArguments": "",
                        "name": "setUint",
                        "returnParams": [],
                        "signature": "setUint(bytes32,uint256)"
                    },
                    "errorInfo": "",
                    "fromAddress": "0xf194c4f6cd4e0518f224c04650f396165b5a69e3",
                    "gasUsed": 21620,
                    "id": 17,
                    "methodDecoded": true,
                    "operation": "CALL",
                    "output": "",
                    "revert": false,
                    "revertMessage": "",
                    "selector": "0xe2a4853a",
                    "status": true,
                    "value": "0"
                },
                "nodeType": 0
            },
            "18": {
                "invocation": {
                    "address": "0x3007b07667826a4a4aa17a7619e46dd0f0e75157",
                    "callData": "0xa95da1c4cf8cf90d1b1e12222071040e39048aae112424988b4935b2b46bf5f80000000000000000000000000000000000000000000000000000000000000040000000000000000000000000000000000000000000000000000000000000004368747470733a2f2f697066732e696f2f697066732f516d546351446e48453150795267334870644659324a53354d4d5070385344787a34556a4e627a6947526e6458530000000000000000000000000000000000000000000000000000000000",
                    "decodedMethod": {
                        "callParams": [
                            {
                                "name": "_key",
                                "type": "bytes32",
                                "value": "0xa95da1c4cf8cf90d1b1e12222071040e39048aae112424988b4935b2b46bf5f8"
                            },
                            {
                                "name": "_value",
                                "type": "string",
                                "value": "https://ipfs.io/ipfs/QmTcQDnHE1PyRg3HpdFY2JS5MMPp8SDxz4UjNbziGRndXS"
                            }
                        ],
                        "constructorArguments": "",
                        "name": "setString",
                        "returnParams": [],
                        "signature": "setString(bytes32,string)"
                    },
                    "errorInfo": "",
                    "fromAddress": "0xf194c4f6cd4e0518f224c04650f396165b5a69e3",
                    "gasUsed": 82123,
                    "id": 18,
                    "methodDecoded": true,
                    "operation": "CALL",
                    "output": "",
                    "revert": false,
                    "revertMessage": "",
                    "selector": "0x6e899550",
                    "status": true,
                    "value": "0"
                },
                "nodeType": 0
            },
            "19": {
                "invocation": {
                    "address": "0x3007b07667826a4a4aa17a7619e46dd0f0e75157",
                    "callData": "0x2fed5a78f31eb733c6ad4643c4f6c7036ff10c5f2dcd2c530639b69e0c1623f2",
                    "decodedMethod": {
                        "callParams": [
                            {
                                "name": "",
                                "type": "bytes32",
                                "value": "0x2fed5a78f31eb733c6ad4643c4f6c7036ff10c5f2dcd2c530639b69e0c1623f2"
                            }
                        ],
                        "constructorArguments": "",
                        "name": "boolStorage",
                        "returnParams": [
                            {
                                "name": "",
                                "type": "bool",
                                "value": true
                            }
                        ],
                        "signature": "boolStorage(bytes32)"
                    },
                    "errorInfo": "",
                    "fromAddress": "0xf194c4f6cd4e0518f224c04650f396165b5a69e3",
                    "gasUsed": 578,
                    "id": 19,
                    "methodDecoded": true,
                    "operation": "CALL",
                    "output": "0x0000000000000000000000000000000000000000000000000000000000000001",
                    "revert": false,
                    "revertMessage": "",
                    "selector": "0x3b7bfda0",
                    "status": true,
                    "value": "0"
                },
                "nodeType": 0
            },
            "2": {
                "invocation": {
                    "address": "0x3007b07667826a4a4aa17a7619e46dd0f0e75157",
                    "callData": "0x5945ce0bafaa581da1e774f3f6a00ae17e9bd58f926a1ca2c7bede13853b04c1",
                    "decodedMethod": {
                        "callParams": [
                            {
                                "name": "",
                                "type": "bytes32",
                                "value": "0x5945ce0bafaa581da1e774f3f6a00ae17e9bd58f926a1ca2c7bede13853b04c1"
                            }
                        ],
                        "constructorArguments": "",
                        "name": "boolStorage",
                        "returnParams": [
                            {
                                "name": "",
                                "type": "bool",
                                "value": true
                            }
                        ],
                        "signature": "boolStorage(bytes32)"
                    },
                    "errorInfo": "",
                    "fromAddress": "0xf194c4f6cd4e0518f224c04650f396165b5a69e3",
                    "gasUsed": 578,
                    "id": 2,
                    "methodDecoded": true,
                    "operation": "CALL",
                    "output": "0x0000000000000000000000000000000000000000000000000000000000000001",
                    "revert": false,
                    "revertMessage": "",
                    "selector": "0x3b7bfda0",
                    "status": true,
                    "value": "0"
                },
                "nodeType": 0
            },
            "20": {
                "invocation": {
                    "address": "0x3007b07667826a4a4aa17a7619e46dd0f0e75157",
                    "callData": "0xf25ce542ecc69d3eede6c9d03dba41dea9d06994f2fd6be1834a7b14e889afa80000000000000000000000000000000000000000000000000000000000000001",
                    "decodedMethod": {
                        "callParams": [
                            {
                                "name": "_key",
                                "type": "bytes32",
                                "value": "0xf25ce542ecc69d3eede6c9d03dba41dea9d06994f2fd6be1834a7b14e889afa8"
                            },
                            {
                                "name": "_value",
                                "type": "bool",
                                "value": true
                            }
                        ],
                        "constructorArguments": "",
                        "name": "setBool",
                        "returnParams": [],
                        "signature": "setBool(bytes32,bool)"
                    },
                    "errorInfo": "",
                    "fromAddress": "0xf194c4f6cd4e0518f224c04650f396165b5a69e3",
                    "gasUsed": 21730,
                    "id": 20,
                    "methodDecoded": true,
                    "operation": "CALL",
                    "output": "",
                    "revert": false,
                    "revertMessage": "",
                    "selector": "0xabfdcced",
                    "status": true,
                    "value": "0"
                },
                "nodeType": 0
            },
            "21": {
                "invocation": {
                    "address": "0x3007b07667826a4a4aa17a7619e46dd0f0e75157",
                    "callData": "0xe1e7b47247695f04246e7ef5d88a821ff2eaedfa93b0c5dd75af25137a96ee190000000000000000000000000000000000000000000000000000000000000001",
                    "decodedMethod": {
                        "callParams": [
                            {
                                "name": "_key",
                                "type": "bytes32",
                                "value": "0xe1e7b47247695f04246e7ef5d88a821ff2eaedfa93b0c5dd75af25137a96ee19"
                            },
                            {
                                "name": "_value",
                                "type": "bool",
                                "value": true
                            }
                        ],
                        "constructorArguments": "",
                        "name": "setBool",
                        "returnParams": [],
                        "signature": "setBool(bytes32,bool)"
                    },
                    "errorInfo": "",
                    "fromAddress": "0xf194c4f6cd4e0518f224c04650f396165b5a69e3",
                    "gasUsed": 21730,
                    "id": 21,
                    "methodDecoded": true,
                    "operation": "CALL",
                    "output": "",
                    "revert": false,
                    "revertMessage": "",
                    "selector": "0xabfdcced",
                    "status": true,
                    "value": "0"
                },
                "nodeType": 0
            },
            "22": {
                "invocation": {
                    "address": "0x31ec5b84668b1a5597b508934c5f6a1b4ede245f",
                    "callData": "0x0000000000000000000000003007b07667826a4a4aa17a7619e46dd0f0e751570000000000000000000000000000000000000000000000000000000000000060000000000000000000000000000000000000000000000000000000000000000100000000000000000000000000000000000000000000000000000000000000203866643936666330373261393535373938303439643333383766613364393766",
                    "decodedMethod": null,
                    "errorInfo": "",
                    "fromAddress": "0xf194c4f6cd4e0518f224c04650f396165b5a69e3",
                    "gasUsed": 26025,
                    "id": 22,
                    "methodDecoded": false,
                    "operation": "DELEGATECALL",
                    "output": "",
                    "revert": false,
                    "revertMessage": "",
                    "selector": "0xeb063e1d",
                    "status": true,
                    "value": "0"
                },
                "nodeType": 0
            },
            "23": {
                "invocation": {
                    "address": "0x3007b07667826a4a4aa17a7619e46dd0f0e75157",
                    "callData": "0x69c1f625e8900b07d1c78e48d76359773fff0b216cf652a13ea854e95eb2dc8a0000000000000000000000000000000000000000000000000000000000000001",
                    "decodedMethod": {
                        "callParams": [
                            {
                                "name": "_key",
                                "type": "bytes32",
                                "value": "0x69c1f625e8900b07d1c78e48d76359773fff0b216cf652a13ea854e95eb2dc8a"
                            },
                            {
                                "name": "_value",
                                "type": "bool",
                                "value": true
                            }
                        ],
                        "constructorArguments": "",
                        "name": "setBool",
                        "returnParams": [],
                        "signature": "setBool(bytes32,bool)"
                    },
                    "errorInfo": "",
                    "fromAddress": "0xf194c4f6cd4e0518f224c04650f396165b5a69e3",
                    "gasUsed": 21730,
                    "id": 23,
                    "methodDecoded": true,
                    "operation": "CALL",
                    "output": "",
                    "revert": false,
                    "revertMessage": "",
                    "selector": "0xabfdcced",
                    "status": true,
                    "value": "0"
                },
                "nodeType": 0
            },
            "24": {
                "invocation": {
                    "address": "0x31ec5b84668b1a5597b508934c5f6a1b4ede245f",
                    "callData": "0x0000000000000000000000003007b07667826a4a4aa17a7619e46dd0f0e7515700000000000000000000000000000000000000000000000000000000000007280000000000000000000000000985f53f9adea925ab2246a0cb76d68f1e066928",
                    "decodedMethod": null,
                    "errorInfo": "",
                    "fromAddress": "0xf194c4f6cd4e0518f224c04650f396165b5a69e3",
                    "gasUsed": 37966,
                    "id": 24,
                    "methodDecoded": false,
                    "operation": "DELEGATECALL",
                    "output": "",
                    "revert": false,
                    "revertMessage": "",
                    "selector": "0xb364e8ce",
                    "status": true,
                    "value": "0"
                },
                "nodeType": 0
            },
            "25": {
                "invocation": {
                    "address": "0x3007b07667826a4a4aa17a7619e46dd0f0e75157",
                    "callData": "0xc47966b4e6e8977e6fb6de20c07f9e8b771e9a51737e89d8735f3a915d3c99c6",
                    "decodedMethod": {
                        "callParams": [
                            {
                                "name": "",
                                "type": "bytes32",
                                "value": "0xc47966b4e6e8977e6fb6de20c07f9e8b771e9a51737e89d8735f3a915d3c99c6"
                            }
                        ],
                        "constructorArguments": "",
                        "name": "uintStorage",
                        "returnParams": [
                            {
                                "name": "",
                                "type": "uint256",
                                "value": "1,831"
                            }
                        ],
                        "signature": "uintStorage(bytes32)"
                    },
                    "errorInfo": "",
                    "fromAddress": "0xf194c4f6cd4e0518f224c04650f396165b5a69e3",
                    "gasUsed": 808,
                    "id": 25,
                    "methodDecoded": true,
                    "operation": "CALL",
                    "output": "0x0000000000000000000000000000000000000000000000000000000000000727",
                    "revert": false,
                    "revertMessage": "",
                    "selector": "0xa855d4ce",
                    "status": true,
                    "value": "0"
                },
                "nodeType": 0
            },
            "26": {
                "invocation": {
                    "address": "0x3007b07667826a4a4aa17a7619e46dd0f0e75157",
                    "callData": "0xfcf1d00f55583228f4c10815c0ade5cc062f486a2c41607c7ad509af313e9ab70000000000000000000000000000000000000000000000000000000000000728",
                    "decodedMethod": {
                        "callParams": [
                            {
                                "name": "_key",
                                "type": "bytes32",
                                "value": "0xfcf1d00f55583228f4c10815c0ade5cc062f486a2c41607c7ad509af313e9ab7"
                            },
                            {
                                "name": "_value",
                                "type": "uint256",
                                "value": "1,832"
                            }
                        ],
                        "constructorArguments": "",
                        "name": "setUint",
                        "returnParams": [],
                        "signature": "setUint(bytes32,uint256)"
                    },
                    "errorInfo": "",
                    "fromAddress": "0xf194c4f6cd4e0518f224c04650f396165b5a69e3",
                    "gasUsed": 21620,
                    "id": 26,
                    "methodDecoded": true,
                    "operation": "CALL",
                    "output": "",
                    "revert": false,
                    "revertMessage": "",
                    "selector": "0xe2a4853a",
                    "status": true,
                    "value": "0"
                },
                "nodeType": 0
            },
            "27": {
                "invocation": {
                    "address": "0x3007b07667826a4a4aa17a7619e46dd0f0e75157",
                    "callData": "0xc47966b4e6e8977e6fb6de20c07f9e8b771e9a51737e89d8735f3a915d3c99c60000000000000000000000000000000000000000000000000000000000000728",
                    "decodedMethod": {
                        "callParams": [
                            {
                                "name": "_key",
                                "type": "bytes32",
                                "value": "0xc47966b4e6e8977e6fb6de20c07f9e8b771e9a51737e89d8735f3a915d3c99c6"
                            },
                            {
                                "name": "_value",
                                "type": "uint256",
                                "value": "1,832"
                            }
                        ],
                        "constructorArguments": "",
                        "name": "setUint",
                        "returnParams": [],
                        "signature": "setUint(bytes32,uint256)"
                    },
                    "errorInfo": "",
                    "fromAddress": "0xf194c4f6cd4e0518f224c04650f396165b5a69e3",
                    "gasUsed": 6620,
                    "id": 27,
                    "methodDecoded": true,
                    "operation": "CALL",
                    "output": "",
                    "revert": false,
                    "revertMessage": "",
                    "selector": "0xe2a4853a",
                    "status": true,
                    "value": "0"
                },
                "nodeType": 0
            },
            "28": {
                "invocation": {
                    "address": "0x31ec5b84668b1a5597b508934c5f6a1b4ede245f",
                    "callData": "0x0000000000000000000000003007b07667826a4a4aa17a7619e46dd0f0e75157000000000000000000000000000000000000000000000000000000000000072800000000000000000000000000000000000000000000000000000000000000600000000000000000000000000000000000000000000000000000000000000000",
                    "decodedMethod": null,
                    "errorInfo": "",
                    "fromAddress": "0xf194c4f6cd4e0518f224c04650f396165b5a69e3",
                    "gasUsed": 10048,
                    "id": 28,
                    "methodDecoded": false,
                    "operation": "DELEGATECALL",
                    "output": "",
                    "revert": false,
                    "revertMessage": "",
                    "selector": "0x38356c94",
                    "status": true,
                    "value": "0"
                },
                "nodeType": 0
            },
            "29": {
                "invocation": {
                    "address": "0x3007b07667826a4a4aa17a7619e46dd0f0e75157",
                    "callData": "0xeaf2a20a3f33ee0b494034ee6cfec1ecd8f9e70aba3e8ecbc4de71ae456d398a00000000000000000000000000000000000000000000000000000000000000400000000000000000000000000000000000000000000000000000000000000000",
                    "decodedMethod": {
                        "callParams": [
                            {
                                "name": "_key",
                                "type": "bytes32",
                                "value": "0xeaf2a20a3f33ee0b494034ee6cfec1ecd8f9e70aba3e8ecbc4de71ae456d398a"
                            },
                            {
                                "name": "_value",
                                "type": "string",
                                "value": ""
                            }
                        ],
                        "constructorArguments": "",
                        "name": "setString",
                        "returnParams": [],
                        "signature": "setString(bytes32,string)"
                    },
                    "errorInfo": "",
                    "fromAddress": "0xf194c4f6cd4e0518f224c04650f396165b5a69e3",
                    "gasUsed": 6881,
                    "id": 29,
                    "methodDecoded": true,
                    "operation": "CALL",
                    "output": "",
                    "revert": false,
                    "revertMessage": "",
                    "selector": "0x6e899550",
                    "status": true,
                    "value": "0"
                },
                "nodeType": 0
            },
            "3": {
                "invocation": {
                    "address": "0x38c7a695979c942161d5718e22cdf1d11793bb5e",
                    "callData": "0x0000000000000000000000003007b07667826a4a4aa17a7619e46dd0f0e751570000000000000000000000000985f53f9adea925ab2246a0cb76d68f1e0669280000000000000000000000000000000000000000000000000000000000000001",
                    "decodedMethod": null,
                    "errorInfo": "",
                    "fromAddress": "0xf194c4f6cd4e0518f224c04650f396165b5a69e3",
                    "gasUsed": 7260,
                    "id": 3,
                    "methodDecoded": false,
                    "operation": "DELEGATECALL",
                    "output": "0x0000000000000000000000000000000000000000000000000000000000000001",
                    "revert": false,
                    "revertMessage": "",
                    "selector": "0x643943d7",
                    "status": true,
                    "value": "0"
                },
                "nodeType": 0
            },
            "30": {
                "invocation": {
                    "address": "0x31ec5b84668b1a5597b508934c5f6a1b4ede245f",
                    "callData": "0x0000000000000000000000003007b07667826a4a4aa17a7619e46dd0f0e7515700000000000000000000000000000000000000000000000000000000000007280000000000000000000000000000000000000000000000000000000000000060000000000000000000000000000000000000000000000000000000000000004368747470733a2f2f697066732e696f2f697066732f516d64726448394472644a6b76346e5a584a67424179325a486f6f4478477134637056656256324e3171366b78590000000000000000000000000000000000000000000000000000000000",
                    "decodedMethod": null,
                    "errorInfo": "",
                    "fromAddress": "0xf194c4f6cd4e0518f224c04650f396165b5a69e3",
                    "gasUsed": 86401,
                    "id": 30,
                    "methodDecoded": false,
                    "operation": "DELEGATECALL",
                    "output": "",
                    "revert": false,
                    "revertMessage": "",
                    "selector": "0xc593a366",
                    "status": true,
                    "value": "0"
                },
                "nodeType": 0
            },
            "31": {
                "invocation": {
                    "address": "0x3007b07667826a4a4aa17a7619e46dd0f0e75157",
                    "callData": "0x65301bffd3bbb761feccf3238f6346dc7fe439cb3628e8255d05f0c88c42f6870000000000000000000000000000000000000000000000000000000000000040000000000000000000000000000000000000000000000000000000000000004368747470733a2f2f697066732e696f2f697066732f516d64726448394472644a6b76346e5a584a67424179325a486f6f4478477134637056656256324e3171366b78590000000000000000000000000000000000000000000000000000000000",
                    "decodedMethod": {
                        "callParams": [
                            {
                                "name": "_key",
                                "type": "bytes32",
                                "value": "0x65301bffd3bbb761feccf3238f6346dc7fe439cb3628e8255d05f0c88c42f687"
                            },
                            {
                                "name": "_value",
                                "type": "string",
                                "value": "https://ipfs.io/ipfs/QmdrdH9DrdJkv4nZXJgBAy2ZHooDxGq4cpVebV2N1q6kxY"
                            }
                        ],
                        "constructorArguments": "",
                        "name": "setString",
                        "returnParams": [],
                        "signature": "setString(bytes32,string)"
                    },
                    "errorInfo": "",
                    "fromAddress": "0xf194c4f6cd4e0518f224c04650f396165b5a69e3",
                    "gasUsed": 82123,
                    "id": 31,
                    "methodDecoded": true,
                    "operation": "CALL",
                    "output": "",
                    "revert": false,
                    "revertMessage": "",
                    "selector": "0x6e899550",
                    "status": true,
                    "value": "0"
                },
                "nodeType": 0
            },
            "32": {
                "invocation": {
                    "address": "0x31ec5b84668b1a5597b508934c5f6a1b4ede245f",
                    "callData": "0x0000000000000000000000003007b07667826a4a4aa17a7619e46dd0f0e7515700000000000000000000000000000000000000000000000000000000000007280000000000000000000000000985f53f9adea925ab2246a0cb76d68f1e066928",
                    "decodedMethod": null,
                    "errorInfo": "",
                    "fromAddress": "0xf194c4f6cd4e0518f224c04650f396165b5a69e3",
                    "gasUsed": 25523,
                    "id": 32,
                    "methodDecoded": false,
                    "operation": "DELEGATECALL",
                    "output": "",
                    "revert": false,
                    "revertMessage": "",
                    "selector": "0xafcc06f9",
                    "status": true,
                    "value": "0"
                },
                "nodeType": 0
            },
            "33": {
                "invocation": {
                    "address": "0x3007b07667826a4a4aa17a7619e46dd0f0e75157",
                    "callData": "0xf0bbd96f4d3492b0cb965c5f33381aa5f6edf95980077c2ee63ad1aacc9a19500000000000000000000000000985f53f9adea925ab2246a0cb76d68f1e066928",
                    "decodedMethod": {
                        "callParams": [
                            {
                                "name": "id",
                                "type": "bytes32",
                                "value": "0xf0bbd96f4d3492b0cb965c5f33381aa5f6edf95980077c2ee63ad1aacc9a1950"
                            },
                            {
                                "name": "newAddress",
                                "type": "address",
                                "value": "0x0985f53f9adea925ab2246a0cb76d68f1e066928"
                            }
                        ],
                        "constructorArguments": "",
                        "name": "setAddress",
                        "returnParams": [],
                        "signature": "setAddress(bytes32,address)"
                    },
                    "errorInfo": "",
                    "fromAddress": "0xf194c4f6cd4e0518f224c04650f396165b5a69e3",
                    "gasUsed": 21959,
                    "id": 33,
                    "methodDecoded": true,
                    "operation": "CALL",
                    "output": "",
                    "revert": false,
                    "revertMessage": "",
                    "selector": "0xca446dd9",
                    "status": true,
                    "value": "0"
                },
                "nodeType": 0
            },
            "34": {
                "invocation": {
                    "address": "0x31ec5b84668b1a5597b508934c5f6a1b4ede245f",
                    "callData": "0x0000000000000000000000003007b07667826a4a4aa17a7619e46dd0f0e751570000000000000000000000000985f53f9adea925ab2246a0cb76d68f1e0669280000000000000000000000000000000000000000000000000000000000000728",
                    "decodedMethod": null,
                    "errorInfo": "",
                    "fromAddress": "0xf194c4f6cd4e0518f224c04650f396165b5a69e3",
                    "gasUsed": 61659,
                    "id": 34,
                    "methodDecoded": false,
                    "operation": "DELEGATECALL",
                    "output": "",
                    "revert": false,
                    "revertMessage": "",
                    "selector": "0x7357353b",
                    "status": true,
                    "value": "0"
                },
                "nodeType": 0
            },
            "35": {
                "invocation": {
                    "address": "0x3007b07667826a4a4aa17a7619e46dd0f0e75157",
                    "callData": "0x52c5384a0588e8a3dfd2dbfd547ead667b3d200caa76d50e298a09aa83f67f0e",
                    "decodedMethod": {
                        "callParams": [
                            {
                                "name": "",
                                "type": "bytes32",
                                "value": "0x52c5384a0588e8a3dfd2dbfd547ead667b3d200caa76d50e298a09aa83f67f0e"
                            }
                        ],
                        "constructorArguments": "",
                        "name": "uintStorage",
                        "returnParams": [
                            {
                                "name": "",
                                "type": "uint256",
                                "value": "1,826"
                            }
                        ],
                        "signature": "uintStorage(bytes32)"
                    },
                    "errorInfo": "",
                    "fromAddress": "0xf194c4f6cd4e0518f224c04650f396165b5a69e3",
                    "gasUsed": 808,
                    "id": 35,
                    "methodDecoded": true,
                    "operation": "CALL",
                    "output": "0x0000000000000000000000000000000000000000000000000000000000000722",
                    "revert": false,
                    "revertMessage": "",
                    "selector": "0xa855d4ce",
                    "status": true,
                    "value": "0"
                },
                "nodeType": 0
            },
            "36": {
                "invocation": {
                    "address": "0x3007b07667826a4a4aa17a7619e46dd0f0e75157",
                    "callData": "0x62ee3cf5cda4ea07f6bdc091683ee44864b8d5bfd93bb403628b05269e887d9e0000000000000000000000000000000000000000000000000000000000000728",
                    "decodedMethod": {
                        "callParams": [
                            {
                                "name": "_key",
                                "type": "bytes32",
                                "value": "0x62ee3cf5cda4ea07f6bdc091683ee44864b8d5bfd93bb403628b05269e887d9e"
                            },
                            {
                                "name": "_value",
                                "type": "uint256",
                                "value": "1,832"
                            }
                        ],
                        "constructorArguments": "",
                        "name": "setUint",
                        "returnParams": [],
                        "signature": "setUint(bytes32,uint256)"
                    },
                    "errorInfo": "",
                    "fromAddress": "0xf194c4f6cd4e0518f224c04650f396165b5a69e3",
                    "gasUsed": 21620,
                    "id": 36,
                    "methodDecoded": true,
                    "operation": "CALL",
                    "output": "",
                    "revert": false,
                    "revertMessage": "",
                    "selector": "0xe2a4853a",
                    "status": true,
                    "value": "0"
                },
                "nodeType": 0
            },
            "37": {
                "invocation": {
                    "address": "0x3007b07667826a4a4aa17a7619e46dd0f0e75157",
                    "callData": "0x222c5edce1e4da9dbf87fca4ea00c24607169ec99f5598cb973ecd279b1760830000000000000000000000000000000000000000000000000000000000000722",
                    "decodedMethod": {
                        "callParams": [
                            {
                                "name": "_key",
                                "type": "bytes32",
                                "value": "0x222c5edce1e4da9dbf87fca4ea00c24607169ec99f5598cb973ecd279b176083"
                            },
                            {
                                "name": "_value",
                                "type": "uint256",
                                "value": "1,826"
                            }
                        ],
                        "constructorArguments": "",
                        "name": "setUint",
                        "returnParams": [],
                        "signature": "setUint(bytes32,uint256)"
                    },
                    "errorInfo": "",
                    "fromAddress": "0xf194c4f6cd4e0518f224c04650f396165b5a69e3",
                    "gasUsed": 21620,
                    "id": 37,
                    "methodDecoded": true,
                    "operation": "CALL",
                    "output": "",
                    "revert": false,
                    "revertMessage": "",
                    "selector": "0xe2a4853a",
                    "status": true,
                    "value": "0"
                },
                "nodeType": 0
            },
            "38": {
                "invocation": {
                    "address": "0x3007b07667826a4a4aa17a7619e46dd0f0e75157",
                    "callData": "0x52c5384a0588e8a3dfd2dbfd547ead667b3d200caa76d50e298a09aa83f67f0e0000000000000000000000000000000000000000000000000000000000000723",
                    "decodedMethod": {
                        "callParams": [
                            {
                                "name": "_key",
                                "type": "bytes32",
                                "value": "0x52c5384a0588e8a3dfd2dbfd547ead667b3d200caa76d50e298a09aa83f67f0e"
                            },
                            {
                                "name": "_value",
                                "type": "uint256",
                                "value": "1,827"
                            }
                        ],
                        "constructorArguments": "",
                        "name": "setUint",
                        "returnParams": [],
                        "signature": "setUint(bytes32,uint256)"
                    },
                    "errorInfo": "",
                    "fromAddress": "0xf194c4f6cd4e0518f224c04650f396165b5a69e3",
                    "gasUsed": 6620,
                    "id": 38,
                    "methodDecoded": true,
                    "operation": "CALL",
                    "output": "",
                    "revert": false,
                    "revertMessage": "",
                    "selector": "0xe2a4853a",
                    "status": true,
                    "value": "0"
                },
                "nodeType": 0
            },
            "39": {
                "event": {
                    "contract": "0xf194c4f6cd4e0518f224c04650f396165b5a69e3",
                    "decodedLog": {
                        "name": "TokenCreated",
                        "params": [
                            {
                                "name": "token",
                                "type": "address",
                                "value": "0x0985f53f9adea925ab2246a0cb76d68f1e066928"
                            },
                            {
                                "name": "tokenType",
                                "type": "string",
                                "value": "8fd96fc072a955798049d3387fa3d97f"
                            },
                            {
                                "name": "version",
                                "type": "uint256",
                                "value": "1,832"
                            }
                        ],
                        "signature": "TokenCreated(address,string,uint256)"
                    },
                    "id": 39,
                    "logData": "0x0000000000000000000000000000000000000000000000000000000000000040000000000000000000000000000000000000000000000000000000000000072800000000000000000000000000000000000000000000000000000000000000203866643936666330373261393535373938303439643333383766613364393766",
                    "logDecoded": true,
                    "operation": "EVENT",
                    "revert": false,
                    "status": true,
                    "topics": [
                        "0x245219c91d644a43a38d1479b1e5a7cc4b5c371d7049bff40dfd12c136c4e72a",
                        "0x0000000000000000000000000985f53f9adea925ab2246a0cb76d68f1e066928"
                    ]
                },
                "nodeType": 1
            },
            "4": {
                "invocation": {
                    "address": "0x3007b07667826a4a4aa17a7619e46dd0f0e75157",
                    "callData": "0x1a55c530e361b2ba9331c5951878b0b090ee1531891288ad0153aa1bcbecf110",
                    "decodedMethod": {
                        "callParams": [
                            {
                                "name": "",
                                "type": "bytes32",
                                "value": "0x1a55c530e361b2ba9331c5951878b0b090ee1531891288ad0153aa1bcbecf110"
                            }
                        ],
                        "constructorArguments": "",
                        "name": "uintStorage",
                        "returnParams": [
                            {
                                "name": "",
                                "type": "uint256",
                                "value": "1"
                            }
                        ],
                        "signature": "uintStorage(bytes32)"
                    },
                    "errorInfo": "",
                    "fromAddress": "0xf194c4f6cd4e0518f224c04650f396165b5a69e3",
                    "gasUsed": 808,
                    "id": 4,
                    "methodDecoded": true,
                    "operation": "CALL",
                    "output": "0x0000000000000000000000000000000000000000000000000000000000000001",
                    "revert": false,
                    "revertMessage": "",
                    "selector": "0xa855d4ce",
                    "status": true,
                    "value": "0"
                },
                "nodeType": 0
            },
            "40": {
                "invocation": {
                    "address": "0x79817fd8f2eb22688d183392e1de1a48eed51d83",
                    "callData": "0x00000000000000000000000000000000000000000000000000000000000000000000000000000000000000000985f53f9adea925ab2246a0cb76d68f1e0669280000000000000000000000000000000000000000000000000000000000000728",
                    "decodedMethod": null,
                    "errorInfo": "",
                    "fromAddress": "0xf194c4f6cd4e0518f224c04650f396165b5a69e3",
                    "gasUsed": 2692,
                    "id": 40,
                    "methodDecoded": false,
                    "operation": "CALL",
                    "output": "",
                    "revert": false,
                    "revertMessage": "",
                    "selector": "0xe62b9ee4",
                    "status": true,
                    "value": "0"
                },
                "nodeType": 0
            },
            "41": {
                "event": {
                    "contract": "0x79817fd8f2eb22688d183392e1de1a48eed51d83",
                    "decodedLog": {
                        "name": "Transfer",
                        "params": [
                            {
                                "name": "from",
                                "type": "address",
                                "value": "0x0000000000000000000000000000000000000000"
                            },
                            {
                                "name": "to",
                                "type": "address",
                                "value": "0x0985f53f9adea925ab2246a0cb76d68f1e066928"
                            },
                            {
                                "decimalAvailable": true,
                                "name": "value",
                                "type": "uint256",
                                "value": "1,832"
                            }
                        ],
                        "signature": "Transfer(address,address,uint256)"
                    },
                    "id": 41,
                    "logData": "0x0000000000000000000000000000000000000000000000000000000000000728",
                    "logDecoded": true,
                    "operation": "EVENT",
                    "revert": false,
                    "status": true,
                    "topics": [
                        "0xddf252ad1be2c89b69c2b068fc378daa952ba7f163c4a11628f55a4df523b3ef",
                        "0x0000000000000000000000000000000000000000000000000000000000000000",
                        "0x0000000000000000000000000985f53f9adea925ab2246a0cb76d68f1e066928"
                    ]
                },
                "nodeType": 1
            },
            "5": {
                "invocation": {
                    "address": "0x3007b07667826a4a4aa17a7619e46dd0f0e75157",
                    "callData": "0x0d842509e306efdafd3bcb0326026d22fa8100736b38079202e1d71f6570c8a5",
                    "decodedMethod": {
                        "callParams": [
                            {
                                "name": "",
                                "type": "bytes32",
                                "value": "0x0d842509e306efdafd3bcb0326026d22fa8100736b38079202e1d71f6570c8a5"
                            }
                        ],
                        "constructorArguments": "",
                        "name": "uintStorage",
                        "returnParams": [
                            {
                                "name": "",
                                "type": "uint256",
                                "value": "1"
                            }
                        ],
                        "signature": "uintStorage(bytes32)"
                    },
                    "errorInfo": "",
                    "fromAddress": "0xf194c4f6cd4e0518f224c04650f396165b5a69e3",
                    "gasUsed": 808,
                    "id": 5,
                    "methodDecoded": true,
                    "operation": "CALL",
                    "output": "0x0000000000000000000000000000000000000000000000000000000000000001",
                    "revert": false,
                    "revertMessage": "",
                    "selector": "0xa855d4ce",
                    "status": true,
                    "value": "0"
                },
                "nodeType": 0
            },
            "6": {
                "invocation": {
                    "address": "0x31ec5b84668b1a5597b508934c5f6a1b4ede245f",
                    "callData": "0x0000000000000000000000003007b07667826a4a4aa17a7619e46dd0f0e75157000000000000000000000000000000000000000000000000000000000000004000000000000000000000000000000000000000000000000000000000000000203866643936666330373261393535373938303439643333383766613364393766",
                    "decodedMethod": null,
                    "errorInfo": "",
                    "fromAddress": "0xf194c4f6cd4e0518f224c04650f396165b5a69e3",
                    "gasUsed": 3930,
                    "id": 6,
                    "methodDecoded": false,
                    "operation": "DELEGATECALL",
                    "output": "0x0000000000000000000000000000000000000000000000000000000000000000",
                    "revert": false,
                    "revertMessage": "",
                    "selector": "0x44f7ff19",
                    "status": true,
                    "value": "0"
                },
                "nodeType": 0
            },
            "7": {
                "invocation": {
                    "address": "0x3007b07667826a4a4aa17a7619e46dd0f0e75157",
                    "callData": "0x69c1f625e8900b07d1c78e48d76359773fff0b216cf652a13ea854e95eb2dc8a",
                    "decodedMethod": {
                        "callParams": [
                            {
                                "name": "",
                                "type": "bytes32",
                                "value": "0x69c1f625e8900b07d1c78e48d76359773fff0b216cf652a13ea854e95eb2dc8a"
                            }
                        ],
                        "constructorArguments": "",
                        "name": "boolStorage",
                        "returnParams": [
                            {
                                "name": "",
                                "type": "bool",
                                "value": false
                            }
                        ],
                        "signature": "boolStorage(bytes32)"
                    },
                    "errorInfo": "",
                    "fromAddress": "0xf194c4f6cd4e0518f224c04650f396165b5a69e3",
                    "gasUsed": 578,
                    "id": 7,
                    "methodDecoded": true,
                    "operation": "CALL",
                    "output": "0x0000000000000000000000000000000000000000000000000000000000000000",
                    "revert": false,
                    "revertMessage": "",
                    "selector": "0x3b7bfda0",
                    "status": true,
                    "value": "0"
                },
                "nodeType": 0
            },
            "8": {
                "invocation": {
                    "address": "0x31ec5b84668b1a5597b508934c5f6a1b4ede245f",
                    "callData": "0x0000000000000000000000003007b07667826a4a4aa17a7619e46dd0f0e751570000000000000000000000000985f53f9adea925ab2246a0cb76d68f1e06692800000000000000000000000000000000000000000000000000000000000000c0000000000000000000000000000000000000000000000000000000000000010000000000000000000000000000000000000000000000000000000000000001c000000000000000000000000000000000000000000000000000000000000002400000000000000000000000000000000000000000000000000000000000000020386664393666633037326139353537393830343964333338376661336439376600000000000000000000000000000000000000000000000000000000000000050000000000000000000000000000000000000000000000000000000000000001000000000000000000000000000000000000000000000000000000000000000100000000000000000000000000000000000000000000000000000000000000000000000000000000000000000000000000000000000000000000000000000001000000000000000000000000000000000000000000000000000000000000000f000000000000000000000000000000000000000000000000000000000000004368747470733a2f2f697066732e696f2f697066732f516d546351446e48453150795267334870644659324a53354d4d5070385344787a34556a4e627a6947526e6458530000000000000000000000000000000000000000000000000000000000000000000000000000000000000000000000000000000000000000000000000200000000000000000000000000000000000000000000000000000000000000010000000000000000000000000000000000000000000000000000000000000001",
                    "decodedMethod": null,
                    "errorInfo": "",
                    "fromAddress": "0xf194c4f6cd4e0518f224c04650f396165b5a69e3",
                    "gasUsed": 322590,
                    "id": 8,
                    "methodDecoded": false,
                    "operation": "DELEGATECALL",
                    "output": "0x0000000000000000000000000000000000000000000000000000000000000728",
                    "revert": false,
                    "revertMessage": "",
                    "selector": "0x585ced66",
                    "status": true,
                    "value": "0"
                },
                "nodeType": 0
            },
            "9": {
                "invocation": {
                    "address": "0x3007b07667826a4a4aa17a7619e46dd0f0e75157",
                    "callData": "0xb4ba5777fb38f2db5fba6f93c665f3e890e885444c1ba6bf64279491ab3c3927",
                    "decodedMethod": {
                        "callParams": [
                            {
                                "name": "",
                                "type": "bytes32",
                                "value": "0xb4ba5777fb38f2db5fba6f93c665f3e890e885444c1ba6bf64279491ab3c3927"
                            }
                        ],
                        "constructorArguments": "",
                        "name": "uintStorage",
                        "returnParams": [
                            {
                                "name": "",
                                "type": "uint256",
                                "value": "1,831"
                            }
                        ],
                        "signature": "uintStorage(bytes32)"
                    },
                    "errorInfo": "",
                    "fromAddress": "0xf194c4f6cd4e0518f224c04650f396165b5a69e3",
                    "gasUsed": 808,
                    "id": 9,
                    "methodDecoded": true,
                    "operation": "CALL",
                    "output": "0x0000000000000000000000000000000000000000000000000000000000000727",
                    "revert": false,
                    "revertMessage": "",
                    "selector": "0xa855d4ce",
                    "status": true,
                    "value": "0"
                },
                "nodeType": 0
            }
        },
        "gasFlame": [
            {
                "children": [
                    {
                        "children": [
                            {
                                "children": [],
                                "depth": 0,
                                "name": "Initial Gas",
                                "value": 37720
                            },
                            {
                                "children": [
                                    {
                                        "children": [
                                            {
                                                "children": [],
                                                "depth": 2,
                                                "name": "boolStorage",
                                                "value": 578
                                            }
                                        ],
                                        "depth": 1,
                                        "name": "0xcf935ac7",
                                        "value": 3843
                                    },
                                    {
                                        "children": [
                                            {
                                                "children": [],
                                                "depth": 2,
                                                "name": "uintStorage",
                                                "value": 808
                                            },
                                            {
                                                "children": [],
                                                "depth": 2,
                                                "name": "uintStorage",
                                                "value": 808
                                            }
                                        ],
                                        "depth": 1,
                                        "name": "0x643943d7",
                                        "value": 7260
                                    },
                                    {
                                        "children": [
                                            {
                                                "children": [],
                                                "depth": 2,
                                                "name": "boolStorage",
                                                "value": 578
                                            }
                                        ],
                                        "depth": 1,
                                        "name": "0x44f7ff19",
                                        "value": 3930
                                    },
                                    {
                                        "children": [
                                            {
                                                "children": [],
                                                "depth": 2,
                                                "name": "uintStorage",
                                                "value": 808
                                            },
                                            {
                                                "children": [],
                                                "depth": 2,
                                                "name": "setUint",
                                                "value": 6620
                                            },
                                            {
                                                "children": [],
                                                "depth": 2,
                                                "name": "setAddress",
                                                "value": 21959
                                            },
                                            {
                                                "children": [],
                                                "depth": 2,
                                                "name": "setString",
                                                "value": 41983
                                            },
                                            {
                                                "children": [],
                                                "depth": 2,
                                                "name": "setUint",
                                                "value": 21620
                                            },
                                            {
                                                "children": [],
                                                "depth": 2,
                                                "name": "setUint",
                                                "value": 21620
                                            },
                                            {
                                                "children": [],
                                                "depth": 2,
                                                "name": "setUint",
                                                "value": 6620
                                            },
                                            {
                                                "children": [],
                                                "depth": 2,
                                                "name": "setUint",
                                                "value": 21620
                                            },
                                            {
                                                "children": [],
                                                "depth": 2,
                                                "name": "setUint",
                                                "value": 21620
                                            },
                                            {
                                                "children": [],
                                                "depth": 2,
                                                "name": "setString",
                                                "value": 82123
                                            },
                                            {
                                                "children": [],
                                                "depth": 2,
                                                "name": "boolStorage",
                                                "value": 578
                                            },
                                            {
                                                "children": [],
                                                "depth": 2,
                                                "name": "setBool",
                                                "value": 21730
                                            },
                                            {
                                                "children": [],
                                                "depth": 2,
                                                "name": "setBool",
                                                "value": 21730
                                            }
                                        ],
                                        "depth": 1,
                                        "name": "0x585ced66",
                                        "value": 322590
                                    },
                                    {
                                        "children": [
                                            {
                                                "children": [],
                                                "depth": 2,
                                                "name": "setBool",
                                                "value": 21730
                                            }
                                        ],
                                        "depth": 1,
                                        "name": "0xeb063e1d",
                                        "value": 26025
                                    },
                                    {
                                        "children": [
                                            {
                                                "children": [],
                                                "depth": 2,
                                                "name": "uintStorage",
                                                "value": 808
                                            },
                                            {
                                                "children": [],
                                                "depth": 2,
                                                "name": "setUint",
                                                "value": 21620
                                            },
                                            {
                                                "children": [],
                                                "depth": 2,
                                                "name": "setUint",
                                                "value": 6620
                                            }
                                        ],
                                        "depth": 1,
                                        "name": "0xb364e8ce",
                                        "value": 37966
                                    },
                                    {
                                        "children": [
                                            {
                                                "children": [],
                                                "depth": 2,
                                                "name": "setString",
                                                "value": 6881
                                            }
                                        ],
                                        "depth": 1,
                                        "name": "0x38356c94",
                                        "value": 10048
                                    },
                                    {
                                        "children": [
                                            {
                                                "children": [],
                                                "depth": 2,
                                                "name": "setString",
                                                "value": 82123
                                            }
                                        ],
                                        "depth": 1,
                                        "name": "0xc593a366",
                                        "value": 86401
                                    },
                                    {
                                        "children": [
                                            {
                                                "children": [],
                                                "depth": 2,
                                                "name": "setAddress",
                                                "value": 21959
                                            }
                                        ],
                                        "depth": 1,
                                        "name": "0xafcc06f9",
                                        "value": 25523
                                    },
                                    {
                                        "children": [
                                            {
                                                "children": [],
                                                "depth": 2,
                                                "name": "uintStorage",
                                                "value": 808
                                            },
                                            {
                                                "children": [],
                                                "depth": 2,
                                                "name": "setUint",
                                                "value": 21620
                                            },
                                            {
                                                "children": [],
                                                "depth": 2,
                                                "name": "setUint",
                                                "value": 21620
                                            },
                                            {
                                                "children": [],
                                                "depth": 2,
                                                "name": "setUint",
                                                "value": 6620
                                            }
                                        ],
                                        "depth": 1,
                                        "name": "0x7357353b",
                                        "value": 61659
                                    },
                                    {
                                        "children": [],
                                        "depth": 1,
                                        "name": "0xe62b9ee4",
                                        "value": 2692
                                    }
                                ],
                                "depth": 0,
                                "name": "Executed Gas",
                                "value": 618030
                            }
                        ],
                        "depth": -1,
                        "name": "Actual Gas Used",
                        "value": 655750
                    },
                    {
                        "children": [],
                        "depth": -1,
                        "name": "Refunded Gas",
                        "value": 0
                    }
                ],
                "depth": -2,
                "name": "Total Gas",
                "value": 655750
            }
        ],
        "isConfirmed": true,
        "mainTrace": [
            {
                "children": [
                    {
                        "children": [
                            {
                                "children": [
                                    {
                                        "children": [],
                                        "depth": 2,
                                        "id": 2,
                                        "order": 2
                                    }
                                ],
                                "depth": 1,
                                "id": 1,
                                "order": 1
                            },
                            {
                                "children": [
                                    {
                                        "children": [],
                                        "depth": 2,
                                        "id": 4,
                                        "order": 4
                                    },
                                    {
                                        "children": [],
                                        "depth": 2,
                                        "id": 5,
                                        "order": 5
                                    }
                                ],
                                "depth": 1,
                                "id": 3,
                                "order": 3
                            },
                            {
                                "children": [
                                    {
                                        "children": [],
                                        "depth": 2,
                                        "id": 7,
                                        "order": 7
                                    }
                                ],
                                "depth": 1,
                                "id": 6,
                                "order": 6
                            },
                            {
                                "children": [
                                    {
                                        "children": [],
                                        "depth": 2,
                                        "id": 9,
                                        "order": 9
                                    },
                                    {
                                        "children": [],
                                        "depth": 2,
                                        "id": 10,
                                        "order": 10
                                    },
                                    {
                                        "children": [],
                                        "depth": 2,
                                        "id": 11,
                                        "order": 11
                                    },
                                    {
                                        "children": [],
                                        "depth": 2,
                                        "id": 12,
                                        "order": 12
                                    },
                                    {
                                        "children": [],
                                        "depth": 2,
                                        "id": 13,
                                        "order": 13
                                    },
                                    {
                                        "children": [],
                                        "depth": 2,
                                        "id": 14,
                                        "order": 14
                                    },
                                    {
                                        "children": [],
                                        "depth": 2,
                                        "id": 15,
                                        "order": 15
                                    },
                                    {
                                        "children": [],
                                        "depth": 2,
                                        "id": 16,
                                        "order": 16
                                    },
                                    {
                                        "children": [],
                                        "depth": 2,
                                        "id": 17,
                                        "order": 17
                                    },
                                    {
                                        "children": [],
                                        "depth": 2,
                                        "id": 18,
                                        "order": 18
                                    },
                                    {
                                        "children": [],
                                        "depth": 2,
                                        "id": 19,
                                        "order": 19
                                    },
                                    {
                                        "children": [],
                                        "depth": 2,
                                        "id": 20,
                                        "order": 20
                                    },
                                    {
                                        "children": [],
                                        "depth": 2,
                                        "id": 21,
                                        "order": 21
                                    }
                                ],
                                "depth": 1,
                                "id": 8,
                                "order": 8
                            },
                            {
                                "children": [
                                    {
                                        "children": [],
                                        "depth": 2,
                                        "id": 23,
                                        "order": 23
                                    }
                                ],
                                "depth": 1,
                                "id": 22,
                                "order": 22
                            },
                            {
                                "children": [
                                    {
                                        "children": [],
                                        "depth": 2,
                                        "id": 25,
                                        "order": 25
                                    },
                                    {
                                        "children": [],
                                        "depth": 2,
                                        "id": 26,
                                        "order": 26
                                    },
                                    {
                                        "children": [],
                                        "depth": 2,
                                        "id": 27,
                                        "order": 27
                                    }
                                ],
                                "depth": 1,
                                "id": 24,
                                "order": 24
                            },
                            {
                                "children": [
                                    {
                                        "children": [],
                                        "depth": 2,
                                        "id": 29,
                                        "order": 29
                                    }
                                ],
                                "depth": 1,
                                "id": 28,
                                "order": 28
                            },
                            {
                                "children": [
                                    {
                                        "children": [],
                                        "depth": 2,
                                        "id": 31,
                                        "order": 31
                                    }
                                ],
                                "depth": 1,
                                "id": 30,
                                "order": 30
                            },
                            {
                                "children": [
                                    {
                                        "children": [],
                                        "depth": 2,
                                        "id": 33,
                                        "order": 33
                                    }
                                ],
                                "depth": 1,
                                "id": 32,
                                "order": 32
                            },
                            {
                                "children": [
                                    {
                                        "children": [],
                                        "depth": 2,
                                        "id": 35,
                                        "order": 35
                                    },
                                    {
                                        "children": [],
                                        "depth": 2,
                                        "id": 36,
                                        "order": 36
                                    },
                                    {
                                        "children": [],
                                        "depth": 2,
                                        "id": 37,
                                        "order": 37
                                    },
                                    {
                                        "children": [],
                                        "depth": 2,
                                        "id": 38,
                                        "order": 38
                                    }
                                ],
                                "depth": 1,
                                "id": 34,
                                "order": 34
                            },
                            {
                                "children": [],
                                "depth": 1,
                                "id": 39,
                                "order": 39
                            },
                            {
                                "children": [
                                    {
                                        "children": [],
                                        "depth": 2,
                                        "id": 41,
                                        "order": 41
                                    }
                                ],
                                "depth": 1,
                                "id": 40,
                                "order": 40
                            }
                        ],
                        "depth": 0,
                        "id": 0,
                        "order": 0
                    }
                ],
                "depth": -1,
                "id": -1,
                "order": -1
            }
        ],
        "mainTraceNodeCount": 42,
        "parentIdMap": {
            "0": -1,
            "1": 0,
            "10": 8,
            "11": 8,
            "12": 8,
            "13": 8,
            "14": 8,
            "15": 8,
            "16": 8,
            "17": 8,
            "18": 8,
            "19": 8,
            "2": 1,
            "20": 8,
            "21": 8,
            "22": 0,
            "23": 22,
            "24": 0,
            "25": 24,
            "26": 24,
            "27": 24,
            "28": 0,
            "29": 28,
            "3": 0,
            "30": 0,
            "31": 30,
            "32": 0,
            "33": 32,
            "34": 0,
            "35": 34,
            "36": 34,
            "37": 34,
            "38": 34,
            "39": 0,
            "4": 3,
            "40": 0,
            "41": 40,
            "5": 3,
            "6": 0,
            "7": 6,
            "8": 0,
            "9": 8
        },
        "tidyTrace": [
            {
                "children": [
                    {
                        "children": [
                            {
                                "children": [
                                    {
                                        "children": [],
                                        "depth": 2,
                                        "id": 2,
                                        "order": 2
                                    }
                                ],
                                "depth": 1,
                                "id": 1,
                                "order": 1
                            },
                            {
                                "children": [
                                    {
                                        "children": [],
                                        "depth": 2,
                                        "id": 4,
                                        "order": 4
                                    },
                                    {
                                        "children": [],
                                        "depth": 2,
                                        "id": 5,
                                        "order": 5
                                    }
                                ],
                                "depth": 1,
                                "id": 3,
                                "order": 3
                            },
                            {
                                "children": [
                                    {
                                        "children": [],
                                        "depth": 2,
                                        "id": 7,
                                        "order": 7
                                    }
                                ],
                                "depth": 1,
                                "id": 6,
                                "order": 6
                            },
                            {
                                "children": [
                                    {
                                        "children": [],
                                        "depth": 2,
                                        "id": 9,
                                        "order": 9
                                    },
                                    {
                                        "children": [],
                                        "depth": 2,
                                        "id": 10,
                                        "order": 10
                                    },
                                    {
                                        "children": [],
                                        "depth": 2,
                                        "id": 11,
                                        "order": 11
                                    },
                                    {
                                        "children": [],
                                        "depth": 2,
                                        "id": 12,
                                        "order": 12
                                    },
                                    {
                                        "children": [],
                                        "depth": 2,
                                        "id": 13,
                                        "order": 13
                                    },
                                    {
                                        "children": [],
                                        "depth": 2,
                                        "id": 14,
                                        "order": 14
                                    },
                                    {
                                        "children": [],
                                        "depth": 2,
                                        "id": 15,
                                        "order": 15
                                    },
                                    {
                                        "children": [],
                                        "depth": 2,
                                        "id": 16,
                                        "order": 16
                                    },
                                    {
                                        "children": [],
                                        "depth": 2,
                                        "id": 17,
                                        "order": 17
                                    },
                                    {
                                        "children": [],
                                        "depth": 2,
                                        "id": 18,
                                        "order": 18
                                    },
                                    {
                                        "children": [],
                                        "depth": 2,
                                        "id": 19,
                                        "order": 19
                                    },
                                    {
                                        "children": [],
                                        "depth": 2,
                                        "id": 20,
                                        "order": 20
                                    },
                                    {
                                        "children": [],
                                        "depth": 2,
                                        "id": 21,
                                        "order": 21
                                    }
                                ],
                                "depth": 1,
                                "id": 8,
                                "order": 8
                            },
                            {
                                "children": [
                                    {
                                        "children": [],
                                        "depth": 2,
                                        "id": 23,
                                        "order": 23
                                    }
                                ],
                                "depth": 1,
                                "id": 22,
                                "order": 22
                            },
                            {
                                "children": [
                                    {
                                        "children": [],
                                        "depth": 2,
                                        "id": 25,
                                        "order": 25
                                    },
                                    {
                                        "children": [],
                                        "depth": 2,
                                        "id": 26,
                                        "order": 26
                                    },
                                    {
                                        "children": [],
                                        "depth": 2,
                                        "id": 27,
                                        "order": 27
                                    }
                                ],
                                "depth": 1,
                                "id": 24,
                                "order": 24
                            },
                            {
                                "children": [
                                    {
                                        "children": [],
                                        "depth": 2,
                                        "id": 29,
                                        "order": 29
                                    }
                                ],
                                "depth": 1,
                                "id": 28,
                                "order": 28
                            },
                            {
                                "children": [
                                    {
                                        "children": [],
                                        "depth": 2,
                                        "id": 31,
                                        "order": 31
                                    }
                                ],
                                "depth": 1,
                                "id": 30,
                                "order": 30
                            },
                            {
                                "children": [
                                    {
                                        "children": [],
                                        "depth": 2,
                                        "id": 33,
                                        "order": 33
                                    }
                                ],
                                "depth": 1,
                                "id": 32,
                                "order": 32
                            },
                            {
                                "children": [
                                    {
                                        "children": [],
                                        "depth": 2,
                                        "id": 35,
                                        "order": 35
                                    },
                                    {
                                        "children": [],
                                        "depth": 2,
                                        "id": 36,
                                        "order": 36
                                    },
                                    {
                                        "children": [],
                                        "depth": 2,
                                        "id": 37,
                                        "order": 37
                                    },
                                    {
                                        "children": [],
                                        "depth": 2,
                                        "id": 38,
                                        "order": 38
                                    }
                                ],
                                "depth": 1,
                                "id": 34,
                                "order": 34
                            },
                            {
                                "children": [],
                                "depth": 1,
                                "id": 39,
                                "order": 39
                            },
                            {
                                "children": [
                                    {
                                        "children": [],
                                        "depth": 2,
                                        "id": 41,
                                        "order": 41
                                    }
                                ],
                                "depth": 1,
                                "id": 40,
                                "order": 40
                            }
                        ],
                        "depth": 0,
                        "id": 0,
                        "order": 0
                    }
                ],
                "depth": -1,
                "id": -1,
                "order": -1
            }
        ],
        "tidyTraceNodeCount": 42
    },
    "state_change": {
        "stateChanges": [
            {
                "address": "0x3007b07667826a4a4aa17a7619e46dd0f0e75157",
                "erc": "",
                "slots": [
                    {
                        "current": "0x0000000000000000000000000000000000000000000000000000000000000001",
                        "key": "0x3f68d88c1eff86ed011d98a7c906fbd16741624ba0a49f9b4aee4581bf785d62",
                        "prev": "0x0000000000000000000000000000000000000000000000000000000000000000"
                    },
                    {
                        "current": "0x0000000000000000000000000000000000000000000000000000000000000001",
                        "key": "0xa3badb2353b1bc534b8c6dbbcdae7c7c8dcc1827156fd6dedc84607b30442c9a",
                        "prev": "0x0000000000000000000000000000000000000000000000000000000000000000"
                    },
                    {
                        "current": "0x0000000000000000000000000000000000000000000000000000000000000001",
                        "key": "0x66cf534be4dadd08fea6cb2d7ac8be4235beecb3e32b180ad1240ed65037907a",
                        "prev": "0x0000000000000000000000000000000000000000000000000000000000000000"
                    },
                    {
                        "current": "0x0000000000000000000000000000000000000000000000000000000000000087",
                        "key": "0x367498c09f54c352ed313ab45b56281cdf6dab279d2d23ef581676e79fd64549",
                        "prev": "0x0000000000000000000000000000000000000000000000000000000000000000"
                    },
                    {
                        "current": "0x0000000000000000000000000000000000000000000000000000000000000728",
                        "key": "0x111c070c4404182afa4e406ac65279e5fd40ec8a0302429ffab161d32bf722b2",
                        "prev": "0x0000000000000000000000000000000000000000000000000000000000000000"
                    },
                    {
                        "current": "0x0000000000000000000000000000000000000000000000000000000000000041",
                        "key": "0xe51dc1dec2a1b9627d24ae248385fc123fcf2f7b6adb1cd3edf8f24d3cf58a85",
                        "prev": "0x0000000000000000000000000000000000000000000000000000000000000000"
                    },
                    {
                        "current": "0x000000000000000000000000000000000000000000000000000000000000000f",
                        "key": "0x1b4bd33648e4d8d12af1567b93039b91f5ec1797b5495a3c140890d564f333fe",
                        "prev": "0x0000000000000000000000000000000000000000000000000000000000000000"
                    },
                    {
                        "current": "0x0000000000000000000000000000000000000000000000000000000000000087",
                        "key": "0x7cadccd362f9e35e0677521e9e020eb8e8de5e8d0733c3ba9bffc3f0b6824dbf",
                        "prev": "0x0000000000000000000000000000000000000000000000000000000000000000"
                    },
                    {
                        "current": "0x0000000000000000000000000000000000000000000000000000000000000728",
                        "key": "0x1bb067d10c954cf30661ad4792a354022ecd1a6dab1ce686252bd11f80ed14d7",
                        "prev": "0x0000000000000000000000000000000000000000000000000000000000000000"
                    },
                    {
                        "current": "0x6b76346e5a584a67424179325a486f6f4478477134637056656256324e317136",
                        "key": "0x86df49e10e8c1a1acc4c106787537588cd2862f4661229ff458fef109cb7b660",
                        "prev": "0x0000000000000000000000000000000000000000000000000000000000000000"
                    },
                    {
                        "current": "0x0000000000000000000000000000000000000000000000000000000000000001",
                        "key": "0xe9f7c654ef6944685b50246f01f802bab6ec01a3f38ce77275eef16c834c40bc",
                        "prev": "0x0000000000000000000000000000000000000000000000000000000000000000"
                    },
                    {
                        "current": "0x795267334870644659324a53354d4d5070385344787a34556a4e627a6947526e",
                        "key": "0x981786fa7bb32d58a6c46dfe958016893921dbfa3aa93c788dbc3ef9680f846e",
                        "prev": "0x0000000000000000000000000000000000000000000000000000000000000000"
                    },
                    {
                        "current": "0x6458530000000000000000000000000000000000000000000000000000000000",
                        "key": "0x981786fa7bb32d58a6c46dfe958016893921dbfa3aa93c788dbc3ef9680f846f",
                        "prev": "0x0000000000000000000000000000000000000000000000000000000000000000"
                    },
                    {
                        "current": "0x68747470733a2f2f697066732e696f2f697066732f516d64726448394472644a",
                        "key": "0x86df49e10e8c1a1acc4c106787537588cd2862f4661229ff458fef109cb7b65f",
                        "prev": "0x0000000000000000000000000000000000000000000000000000000000000000"
                    },
                    {
                        "current": "0x3866643936666330373261393535373938303439643333383766613364393766",
                        "key": "0x665a6a4874bac8a261139866cdc11f51d505a32dab8ada86a4828ea7ddba25a0",
                        "prev": "0x0000000000000000000000000000000000000000000000000000000000000000"
                    },
                    {
                        "current": "0x68747470733a2f2f697066732e696f2f697066732f516d546351446e48453150",
                        "key": "0x981786fa7bb32d58a6c46dfe958016893921dbfa3aa93c788dbc3ef9680f846d",
                        "prev": "0x0000000000000000000000000000000000000000000000000000000000000000"
                    },
                    {
                        "current": "0x0000000000000000000000000000000000000000000000000000000000000728",
                        "key": "0x57183a45f80be99ac55abe45c478b09075c307fc74800b889092bfdbab65231b",
                        "prev": "0x0000000000000000000000000000000000000000000000000000000000000727"
                    },
                    {
                        "current": "0x6b78590000000000000000000000000000000000000000000000000000000000",
                        "key": "0x86df49e10e8c1a1acc4c106787537588cd2862f4661229ff458fef109cb7b661",
                        "prev": "0x0000000000000000000000000000000000000000000000000000000000000000"
                    },
                    {
                        "current": "0x0000000000000000000000000000000000000000000000000000000000000722",
                        "key": "0x6b90ed6902e3c980c29f50f4fc49362f3acda1ac11965e2bfdafbc5bc550c18e",
                        "prev": "0x0000000000000000000000000000000000000000000000000000000000000000"
                    },
                    {
                        "current": "0x0000000000000000000000000000000000000000000000000000000000000723",
                        "key": "0x4318031fcaf79a015da94e2881f7ddd6f1ef755e8aeeae8e864ef1db731f43b1",
                        "prev": "0x0000000000000000000000000000000000000000000000000000000000000722"
                    },
                    {
                        "current": "0x0000000000000000000000000000000000000000000000000000000000000728",
                        "key": "0xb9106a8c9723c5a3e8e457fd07e3dc4a9290dfac17e0ff570efb8bc25ad594cc",
                        "prev": "0x0000000000000000000000000000000000000000000000000000000000000727"
                    },
                    {
                        "current": "0x0000000000000000000000000000000000000000000000000000000000000001",
                        "key": "0x443bd8806abe0a45e77de3874e437686b976f12b865d0d54b5f656753b9e168b",
                        "prev": "0x0000000000000000000000000000000000000000000000000000000000000000"
                    },
                    {
                        "current": "0x0000000000000000000000000000000000000000000000000000000000000001",
                        "key": "0xa1849d23357f7ed048ada71944740b9fee8fe3f63f2f15f178f5cb94d11b59dd",
                        "prev": "0x0000000000000000000000000000000000000000000000000000000000000000"
                    },
                    {
                        "current": "0x0000000000000000000000000985f53f9adea925ab2246a0cb76d68f1e066928",
                        "key": "0x019f4fee47e8cebec65e8bac2274f7a5029bc09187ed2364c63c3e817653fd48",
                        "prev": "0x0000000000000000000000000000000000000000000000000000000000000000"
                    },
                    {
                        "current": "0x0000000000000000000000000985f53f9adea925ab2246a0cb76d68f1e066928",
                        "key": "0xab734009e688615e2245d7d2626f1b1a7e78eddd9fd27de3a1715251ee782afe",
                        "prev": "0x0000000000000000000000000000000000000000000000000000000000000000"
                    }
                ],
                "storageVariables": []
            }
        ]
    }
}