{
    "balance_change": {
        "balanceChanges": [
            {
                "account": "0x07e868cd017bad31c5068ea44332b92e065a0fb1",
                "assets": [
                    {
                        "address": "0xeeeeeeeeeeeeeeeeeeeeeeeeeeeeeeeeeeeeeeee",
                        "amount": "0.04",
                        "iconUrl": "https://assets.blocksec.com/image/1663669189317-3.png",
                        "isERC1155": false,
                        "isERC721": false,
                        "sign": false,
                        "value": ""
                    }
                ]
            },
            {
                "account": "0xd62c8f882a69b0ad1c91950f0f4617b5f9a7f580",
                "assets": [
                    {
                        "address": "0xeeeeeeeeeeeeeeeeeeeeeeeeeeeeeeeeeeeeeeee",
                        "amount": "0.04",
                        "iconUrl": "https://assets.blocksec.com/image/1663669189317-3.png",
                        "isERC1155": false,
                        "isERC721": false,
                        "sign": true,
                        "value": ""
                    }
                ]
            }
        ]
    },
    "profile": {
        "basic_info": {
            "baseFee": "",
            "blockNumber": 10477033,
            "callData": "0x0840605a000000000000000000000000d62c8f882a69b0ad1c91950f0f4617b5f9a7f580",
            "debugEnable": true,
            "errorInfo": "",
            "eventCount": 5,
            "feeRecipient": "0x5a0b54d5dc17e0aadc383d2db43b0a0d3e029c4c",
            "formatValue": "0.04",
            "gasLimit": 1200000,
            "gasPrice": "58.000001235",
            "gasUsed": 375779,
            "intTxnCount": 2,
            "internalRevert": false,
            "internalRevertMessage": "",
            "isContractCreation": false,
            "isFlashloan": false,
            "maxFee": "",
            "nonce": 0,
            "overwritedBlockNumber": -1,
            "priorityFee": "",
            "receiver": "0x9047237b16c918d94db3d1a9a86d7a2a605cdfe7",
            "revertMessage": "",
            "sender": "0x07e868cd017bad31c5068ea44332b92e065a0fb1",
            "simulationEnable": true,
            "sourceTxnHash": "0x569199828fbc18483285c6371b92c7ffe5717066b25467c7bd2dc97faa307487",
            "status": true,
            "timestamp": "2020-07-17T12:43:09Z",
            "transactionFee": "0.021795182464087065",
            "txnHash": "0x569199828fbc18483285c6371b92c7ffe5717066b25467c7bd2dc97faa307487",
            "txnIndex": 170,
            "type": 0,
            "value": "40000000000000000"
        },
        "fund_flow": [
            {
                "amount": "0.04",
                "from": "0x07e868cd017bad31c5068ea44332b92e065a0fb1",
                "id": 1,
                "isERC1155": false,
                "isERC721": false,
                "isReverted": false,
                "order": 1,
                "to": "0x9047237b16c918d94db3d1a9a86d7a2a605cdfe7",
                "token": "0xeeeeeeeeeeeeeeeeeeeeeeeeeeeeeeeeeeeeeeee"
            },
            {
                "amount": "0.04",
                "from": "0x9047237b16c918d94db3d1a9a86d7a2a605cdfe7",
                "id": 2,
                "isERC1155": false,
                "isERC721": false,
                "isReverted": false,
                "order": 2,
                "to": "0xd62c8f882a69b0ad1c91950f0f4617b5f9a7f580",
                "token": "0xeeeeeeeeeeeeeeeeeeeeeeeeeeeeeeeeeeeeeeee"
            }
        ],
        "token_infos": [
            {
                "address": "0xc02aaa39b223fe8d0a0e5c4f27ead9083c756cc2",
                "decimals": 18
            },
            {
                "address": "0xeeeeeeeeeeeeeeeeeeeeeeeeeeeeeeeeeeeeeeee",
                "decimals": 18
            }
        ]
    },
    "address_label": {
        "labels": [
            {
                "address": "0xeeeeeeeeeeeeeeeeeeeeeeeeeeeeeeeeeeeeeeee",
                "label": "Ether"
            },
            {
                "address": "0x9047237b16c918d94db3d1a9a86d7a2a605cdfe7",
                "label": "LionsShare.io"
            },
            {
                "address": "0x0000000000000000000000000000000000000001",
                "label": "Precompiled"
            },
            {
                "address": "0x0000000000000000000000000000000000000002",
                "label": "Precompiled"
            },
            {
                "address": "0x0000000000000000000000000000000000000003",
                "label": "Precompiled"
            },
            {
                "address": "0x0000000000000000000000000000000000000004",
                "label": "Precompiled"
            }
        ]
    },
    "trace": {
        "accountLabels": null,
        "dataMap": {
            "-1": {
                "invocation": {
                    "address": "0x07e868cd017bad31c5068ea44332b92e065a0fb1",
                    "callData": "",
                    "decodedMethod": null,
                    "errorInfo": "",
                    "fromAddress": "",
                    "gasUsed": 0,
                    "id": -1,
                    "methodDecoded": false,
                    "operation": "",
                    "output": "",
                    "revert": false,
                    "revertMessage": "",
                    "selector": "",
                    "status": false,
                    "value": ""
                },
                "nodeType": 0
            },
            "0": {
                "invocation": {
                    "address": "0x9047237b16c918d94db3d1a9a86d7a2a605cdfe7",
                    "callData": "0x000000000000000000000000d62c8f882a69b0ad1c91950f0f4617b5f9a7f580",
                    "decodedMethod": {
                        "callParams": [
                            {
                                "name": "_sponsor",
                                "type": "address",
                                "value": "0xd62c8f882a69b0ad1c91950f0f4617b5f9a7f580"
                            }
                        ],
                        "constructorArguments": "",
                        "name": "registration",
                        "returnParams": [],
                        "signature": "registration(address)"
                    },
                    "errorInfo": "",
                    "fromAddress": "0x07e868cd017bad31c5068ea44332b92e065a0fb1",
                    "gasUsed": 375779,
                    "id": 0,
                    "methodDecoded": true,
                    "operation": "CALL",
                    "output": "",
                    "revert": false,
                    "revertMessage": "",
                    "selector": "0x0840605a",
                    "status": true,
                    "value": "0.04"
                },
                "nodeType": 0
            },
            "1": {
                "event": {
                    "contract": "0x9047237b16c918d94db3d1a9a86d7a2a605cdfe7",
                    "decodedLog": {
                        "name": "Registration",
                        "params": [
                            {
                                "name": "member",
                                "type": "address",
                                "value": "0x07e868cd017bad31c5068ea44332b92e065a0fb1"
                            },
                            {
                                "name": "memberId",
                                "type": "uint256",
                                "value": "33,958"
                            },
                            {
                                "name": "sponsor",
                                "type": "address",
                                "value": "0xd62c8f882a69b0ad1c91950f0f4617b5f9a7f580"
                            }
                        ],
                        "signature": "Registration(address,uint256,address)"
                    },
                    "id": 1,
                    "logData": "0x00000000000000000000000007e868cd017bad31c5068ea44332b92e065a0fb100000000000000000000000000000000000000000000000000000000000084a6000000000000000000000000d62c8f882a69b0ad1c91950f0f4617b5f9a7f580",
                    "logDecoded": true,
                    "operation": "EVENT",
                    "revert": false,
                    "status": true,
                    "topics": [
                        "0xf6c21a7ac3d366bc7ad22dd21433c86cb88a57fdff3acdd76408fc302241af37"
                    ]
                },
                "nodeType": 1
            },
            "2": {
                "event": {
                    "contract": "0x9047237b16c918d94db3d1a9a86d7a2a605cdfe7",
                    "decodedLog": {
                        "name": "PlacementL1",
                        "params": [
                            {
                                "name": "member",
                                "type": "address",
                                "value": "0x07e868cd017bad31c5068ea44332b92e065a0fb1"
                            },
                            {
                                "name": "sponsor",
                                "type": "address",
                                "value": "0xd62c8f882a69b0ad1c91950f0f4617b5f9a7f580"
                            },
                            {
                                "name": "level",
                                "type": "uint8",
                                "value": "1"
                            },
                            {
                                "name": "placement",
                                "type": "uint8",
                                "value": "1"
                            },
                            {
                                "name": "passup",
                                "type": "bool",
                                "value": false
                            }
                        ],
                        "signature": "PlacementL1(address,address,uint8,uint8,bool)"
                    },
                    "id": 2,
                    "logData": "0x00000000000000000000000007e868cd017bad31c5068ea44332b92e065a0fb1000000000000000000000000d62c8f882a69b0ad1c91950f0f4617b5f9a7f580000000000000000000000000000000000000000000000000000000000000000100000000000000000000000000000000000000000000000000000000000000010000000000000000000000000000000000000000000000000000000000000000",
                    "logDecoded": true,
                    "operation": "EVENT",
                    "revert": false,
                    "status": true,
                    "topics": [
                        "0x3177570e9575b071562484c332319d7abd50dd64dae2cc34a42ff5d65264ce6d"
                    ]
                },
                "nodeType": 1
            },
            "3": {
                "event": {
                    "contract": "0x9047237b16c918d94db3d1a9a86d7a2a605cdfe7",
                    "decodedLog": {
                        "name": "PlacementL2",
                        "params": [
                            {
                                "name": "member",
                                "type": "address",
                                "value": "0x07e868cd017bad31c5068ea44332b92e065a0fb1"
                            },
                            {
                                "name": "sponsor",
                                "type": "address",
                                "value": "0xd62c8f882a69b0ad1c91950f0f4617b5f9a7f580"
                            },
                            {
                                "name": "level",
                                "type": "uint8",
                                "value": "1"
                            },
                            {
                                "name": "placementSide",
                                "type": "uint8",
                                "value": "2"
                            },
                            {
                                "name": "placedUnder",
                                "type": "address",
                                "value": "0xa2dd954a1931e9df5f06bba48d110be545d368b8"
                            },
                            {
                                "name": "passup",
                                "type": "bool",
                                "value": false
                            }
                        ],
                        "signature": "PlacementL2(address,address,uint8,uint8,address,bool)"
                    },
                    "id": 3,
                    "logData": "0x00000000000000000000000007e868cd017bad31c5068ea44332b92e065a0fb1000000000000000000000000d62c8f882a69b0ad1c91950f0f4617b5f9a7f58000000000000000000000000000000000000000000000000000000000000000010000000000000000000000000000000000000000000000000000000000000002000000000000000000000000a2dd954a1931e9df5f06bba48d110be545d368b80000000000000000000000000000000000000000000000000000000000000000",
                    "logDecoded": true,
                    "operation": "EVENT",
                    "revert": false,
                    "status": true,
                    "topics": [
                        "0x24ba8014500fa35b0f3c906afcf122c44bbbe189dd2df854b412c2e1d8e36b2e"
                    ]
                },
                "nodeType": 1
            },
            "4": {
                "event": {
                    "contract": "0x9047237b16c918d94db3d1a9a86d7a2a605cdfe7",
                    "decodedLog": {
                        "name": "FundsPayout",
                        "params": [
                            {
                                "name": "member",
                                "type": "address",
                                "value": "0xd62c8f882a69b0ad1c91950f0f4617b5f9a7f580"
                            },
                            {
                                "name": "payoutFrom",
                                "type": "address",
                                "value": "0x07e868cd017bad31c5068ea44332b92e065a0fb1"
                            },
                            {
                                "name": "matrix",
                                "type": "uint8",
                                "value": "1"
                            },
                            {
                                "name": "level",
                                "type": "uint8",
                                "value": "1"
                            }
                        ],
                        "signature": "FundsPayout(address,address,uint8,uint8)"
                    },
                    "id": 4,
                    "logData": "0x00000000000000000000000007e868cd017bad31c5068ea44332b92e065a0fb100000000000000000000000000000000000000000000000000000000000000010000000000000000000000000000000000000000000000000000000000000001",
                    "logDecoded": true,
                    "operation": "EVENT",
                    "revert": false,
                    "status": true,
                    "topics": [
                        "0x859f8e4639bbeb354f6ae9358c3af9b160b03299dd61675031305d65ca3db5ca",
                        "0x000000000000000000000000d62c8f882a69b0ad1c91950f0f4617b5f9a7f580"
                    ]
                },
                "nodeType": 1
            },
            "5": {
                "invocation": {
                    "address": "0xd62c8f882a69b0ad1c91950f0f4617b5f9a7f580",
                    "callData": "0x",
                    "decodedMethod": null,
                    "errorInfo": "",
                    "fromAddress": "0x9047237b16c918d94db3d1a9a86d7a2a605cdfe7",
                    "gasUsed": 0,
                    "id": 5,
                    "methodDecoded": false,
                    "operation": "CALL",
                    "output": "",
                    "revert": false,
                    "revertMessage": "",
                    "selector": "fallback",
                    "status": true,
                    "value": "0.02"
                },
                "nodeType": 0
            },
            "6": {
                "event": {
                    "contract": "0x9047237b16c918d94db3d1a9a86d7a2a605cdfe7",
                    "decodedLog": {
                        "name": "FundsPayout",
                        "params": [
                            {
                                "name": "member",
                                "type": "address",
                                "value": "0xd62c8f882a69b0ad1c91950f0f4617b5f9a7f580"
                            },
                            {
                                "name": "payoutFrom",
                                "type": "address",
                                "value": "0x07e868cd017bad31c5068ea44332b92e065a0fb1"
                            },
                            {
                                "name": "matrix",
                                "type": "uint8",
                                "value": "2"
                            },
                            {
                                "name": "level",
                                "type": "uint8",
                                "value": "1"
                            }
                        ],
                        "signature": "FundsPayout(address,address,uint8,uint8)"
                    },
                    "id": 6,
                    "logData": "0x00000000000000000000000007e868cd017bad31c5068ea44332b92e065a0fb100000000000000000000000000000000000000000000000000000000000000020000000000000000000000000000000000000000000000000000000000000001",
                    "logDecoded": true,
                    "operation": "EVENT",
                    "revert": false,
                    "status": true,
                    "topics": [
                        "0x859f8e4639bbeb354f6ae9358c3af9b160b03299dd61675031305d65ca3db5ca",
                        "0x000000000000000000000000d62c8f882a69b0ad1c91950f0f4617b5f9a7f580"
                    ]
                },
                "nodeType": 1
            },
            "7": {
                "invocation": {
                    "address": "0xd62c8f882a69b0ad1c91950f0f4617b5f9a7f580",
                    "callData": "0x",
                    "decodedMethod": null,
                    "errorInfo": "",
                    "fromAddress": "0x9047237b16c918d94db3d1a9a86d7a2a605cdfe7",
                    "gasUsed": 0,
                    "id": 7,
                    "methodDecoded": false,
                    "operation": "CALL",
                    "output": "",
                    "revert": false,
                    "revertMessage": "",
                    "selector": "fallback",
                    "status": true,
                    "value": "0.02"
                },
                "nodeType": 0
            }
        },
        "gasFlame": [
            {
                "children": [
                    {
                        "children": [
                            {
                                "children": [],
                                "depth": 0,
                                "name": "Initial Gas",
                                "value": 21432
                            },
                            {
                                "children": [
                                    {
                                        "children": [],
                                        "depth": 1,
                                        "name": "fallback",
                                        "value": 0
                                    },
                                    {
                                        "children": [],
                                        "depth": 1,
                                        "name": "fallback",
                                        "value": 0
                                    }
                                ],
                                "depth": 0,
                                "name": "Executed Gas",
                                "value": 358547
                            }
                        ],
                        "depth": -1,
                        "name": "Actual Gas Used",
                        "value": 375779
                    },
                    {
                        "children": [],
                        "depth": -1,
                        "name": "Refunded Gas",
                        "value": 4200
                    }
                ],
                "depth": -2,
                "name": "Total Gas",
                "value": 379979
            }
        ],
        "isConfirmed": true,
        "mainTrace": [
            {
                "children": [
                    {
                        "children": [
                            {
                                "children": [],
                                "depth": 1,
                                "id": 1,
                                "order": 1
                            },
                            {
                                "children": [],
                                "depth": 1,
                                "id": 2,
                                "order": 2
                            },
                            {
                                "children": [],
                                "depth": 1,
                                "id": 3,
                                "order": 3
                            },
                            {
                                "children": [],
                                "depth": 1,
                                "id": 4,
                                "order": 4
                            },
                            {
                                "children": [],
                                "depth": 1,
                                "id": 5,
                                "order": 5
                            },
                            {
                                "children": [],
                                "depth": 1,
                                "id": 6,
                                "order": 6
                            },
                            {
                                "children": [],
                                "depth": 1,
                                "id": 7,
                                "order": 7
                            }
                        ],
                        "depth": 0,
                        "id": 0,
                        "order": 0
                    }
                ],
                "depth": -1,
                "id": -1,
                "order": -1
            }
        ],
        "mainTraceNodeCount": 8,
        "parentIdMap": {
            "0": -1,
            "1": 0,
            "2": 0,
            "3": 0,
            "4": 0,
            "5": 0,
            "6": 0,
            "7": 0
        },
        "tidyTrace": [
            {
                "children": [
                    {
                        "children": [
                            {
                                "children": [],
                                "depth": 1,
                                "id": 1,
                                "order": 1
                            },
                            {
                                "children": [],
                                "depth": 1,
                                "id": 2,
                                "order": 2
                            },
                            {
                                "children": [],
                                "depth": 1,
                                "id": 3,
                                "order": 3
                            },
                            {
                                "children": [],
                                "depth": 1,
                                "id": 4,
                                "order": 4
                            },
                            {
                                "children": [],
                                "depth": 1,
                                "id": 5,
                                "order": 5
                            },
                            {
                                "children": [],
                                "depth": 1,
                                "id": 6,
                                "order": 6
                            },
                            {
                                "children": [],
                                "depth": 1,
                                "id": 7,
                                "order": 7
                            }
                        ],
                        "depth": 0,
                        "id": 0,
                        "order": 0
                    }
                ],
                "depth": -1,
                "id": -1,
                "order": -1
            }
        ],
        "tidyTraceNodeCount": 8
    },
    "state_change": {
        "stateChanges": [
            {
                "address": "0x9047237b16c918d94db3d1a9a86d7a2a605cdfe7",
                "erc": "",
                "slots": [
                    {
                        "current": "0x00000000000000ef9bb7173ab4abdfef958ac9b513cfc78aca161210000084a6",
                        "key": "0x0000000000000000000000000000000000000000000000000000000000000004",
                        "prev": "0x00000000000000ef9bb7173ab4abdfef958ac9b513cfc78aca161210000084a5"
                    },
                    {
                        "current": "0x0000000000000000000000000000000000000000000000000000000e0000051b",
                        "key": "0xd70cb9710ef12cec019571dd7343aebd619b444a3ef16cc7f063078a3017bca9",
                        "prev": "0x0000000000000000000000000000000000000000000000000000000d0000051b"
                    },
                    {
                        "current": "0x0000000000000000000000000000000000000000000000000000000000000101",
                        "key": "0x3aff258677286ffca17bee9554c8454af784fb912dcd2ed0f02377a903c7d4ef",
                        "prev": "0x0000000000000000000000000000000000000000000000000000000000000000"
                    },
                    {
                        "current": "0x0000000000000000000000000000000000000000000000000000000000000002",
                        "key": "0xf6eeaadfe855c4a38ba58a35434a3d55204cc505ece451e02cbc9722a8c470e1",
                        "prev": "0x0000000000000000000000000000000000000000000000000000000000000000"
                    },
                    {
                        "current": "0x00000000000000000000000007e868cd017bad31c5068ea44332b92e065a0fb1",
                        "key": "0xc227ba928e4cd651525c83b4c332791a3b4ac22633c8d454d572cc596bd4525a",
                        "prev": "0x0000000000000000000000000000000000000000000000000000000000000000"
                    },
                    {
                        "current": "0x004484696ad504d87d3dc7d018943ab2b741eb0d8f014e00000000010000000e",
                        "key": "0xe6cd177a614eb2d601c735f3c433a7a222a6d2f2f9d70c1934332247e8cb0861",
                        "prev": "0x004484696ad504d87d3dc7d018943ab2b741eb0d8f014600000000010000000d"
                    },
                    {
                        "current": "0x00000000000000000000000007e868cd017bad31c5068ea44332b92e065a0fb1",
                        "key": "0xcd2cf8c728a996667534152932a561e8f53b9233698c612faeb7537faa099154",
                        "prev": "0x0000000000000000000000000000000000000000000000000000000000000000"
                    },
                    {
                        "current": "0x000000d62c8f882a69b0ad1c91950f0f4617b5f9a7f580000000000000000000",
                        "key": "0xc7167ab84336c89d21cebb1073fb40fa0df89ef8095a72c9b433dd712b706cec",
                        "prev": "0x0000000000000000000000000000000000000000000000000000000000000000"
                    },
                    {
                        "current": "0x00d62c8f882a69b0ad1c91950f0f4617b5f9a7f5800200000000000000000000",
                        "key": "0x9c3967acf46cf5cf05971d6de2533cbab5ee20b09800c13e40bc4e68adf02193",
                        "prev": "0x0000000000000000000000000000000000000000000000000000000000000000"
                    },
                    {
                        "current": "0x00000000000000000000000000000000000000000000000000000000000084a6",
                        "key": "0xf6eeaadfe855c4a38ba58a35434a3d55204cc505ece451e02cbc9722a8c470e0",
                        "prev": "0x0000000000000000000000000000000000000000000000000000000000000000"
                    },
                    {
                        "current": "0x000000000000000000000000a2dd954a1931e9df5f06bba48d110be545d368b8",
                        "key": "0x9c3967acf46cf5cf05971d6de2533cbab5ee20b09800c13e40bc4e68adf02194",
                        "prev": "0x0000000000000000000000000000000000000000000000000000000000000000"
                    },
                    {
                        "current": "0x0000000000000000000000d62c8f882a69b0ad1c91950f0f4617b5f9a7f58001",
                        "key": "0xf6eeaadfe855c4a38ba58a35434a3d55204cc505ece451e02cbc9722a8c470e2",
                        "prev": "0x0000000000000000000000000000000000000000000000000000000000000000"
                    },
                    {
                        "current": "0x0000004484696ad504d87d3dc7d018943ab2b741eb0d8f01000000060000000e",
                        "key": "0xa620a325b7313b1f2704269602869c9a87a51e8fb6d07b5a9291b70cd589efc8",
                        "prev": "0x0000004484696ad504d87d3dc7d018943ab2b741eb0d8f00000000060000000d"
                    },
                    {
                        "current": "0x0000000000000000000000000000000000000000000000000000000000000006",
                        "key": "0x7ccf57bea183c876536cb492d20dd9fbb055d43e108914949066a8b7b8d0f768",
                        "prev": "0x0000000000000000000000000000000000000000000000000000000000000005"
                    }
                ],
                "storageVariables": [
                    {
                        "name": "lastId",
                        "type": "uint32",
                        "value": {
                            "current": "33958",
                            "prev": "33957",
                            "typeTag": 1
                        }
                    },
                    {
                        "name": "topLevel",
                        "type": "uint8",
                        "value": {
                            "current": "16",
                            "prev": "16",
                            "typeTag": 1
                        }
                    },
                    {
                        "name": "owner",
                        "type": "address",
                        "value": {
                            "current": "0xef9bb7173ab4abdfef958ac9b513cfc78aca1612",
                            "prev": "0xef9bb7173ab4abdfef958ac9b513cfc78aca1612",
                            "typeTag": 1
                        }
                    },
                    {
                        "name": "members",
                        "type": "mapping(address => struct LionShare.Account)",
                        "value": {
                            "pairs": [
                                {
                                    "key": "0x07e868cd017bad31c5068ea44332b92e065a0fb1",
                                    "value": {
                                        "fields": [
                                            {
                                                "name": "id",
                                                "type": "uint32",
                                                "value": {
                                                    "current": "33958",
                                                    "prev": "0",
                                                    "typeTag": 1
                                                }
                                            },
                                            {
                                                "name": "directSales",
                                                "type": "uint32",
                                                "value": {
                                                    "current": "0",
                                                    "prev": "0",
                                                    "typeTag": 1
                                                }
                                            },
                                            {
                                                "name": "activeLevel",
                                                "type": "uint8[]",
                                                "value": {
                                                    "elemType": "uint8",
                                                    "elems": [
                                                        {
                                                            "index": 0,
                                                            "value": {
                                                                "current": "1",
                                                                "prev": "0",
                                                                "typeTag": 1
                                                            }
                                                        },
                                                        {
                                                            "index": 1,
                                                            "value": {
                                                                "current": "1",
                                                                "prev": "0",
                                                                "typeTag": 1
                                                            }
                                                        }
                                                    ],
                                                    "typeTag": 2
                                                }
                                            },
                                            {
                                                "name": "exists",
                                                "type": "bool",
                                                "value": {
                                                    "current": "true",
                                                    "prev": "false",
                                                    "typeTag": 1
                                                }
                                            },
                                            {
                                                "name": "sponsor",
                                                "type": "address",
                                                "value": {
                                                    "current": "0xd62c8f882a69b0ad1c91950f0f4617b5f9a7f580",
                                                    "prev": "0x0000000000000000000000000000000000000000",
                                                    "typeTag": 1
                                                }
                                            },
                                            {
                                                "name": "x31Positions",
                                                "type": "mapping(uint8 => struct LionShare.L1)",
                                                "value": {
                                                    "pairs": [
                                                        {
                                                            "key": "1",
                                                            "value": {
                                                                "fields": [
                                                                    {
                                                                        "name": "directSales",
                                                                        "type": "uint32",
                                                                        "value": {
                                                                            "current": "0",
                                                                            "prev": "0",
                                                                            "typeTag": 1
                                                                        }
                                                                    },
                                                                    {
                                                                        "name": "cycles",
                                                                        "type": "uint16",
                                                                        "value": {
                                                                            "current": "0",
                                                                            "prev": "0",
                                                                            "typeTag": 1
                                                                        }
                                                                    },
                                                                    {
                                                                        "name": "passup",
                                                                        "type": "uint8",
                                                                        "value": {
                                                                            "current": "0",
                                                                            "prev": "0",
                                                                            "typeTag": 1
                                                                        }
                                                                    },
                                                                    {
                                                                        "name": "reEntryCheck",
                                                                        "type": "uint8",
                                                                        "value": {
                                                                            "current": "0",
                                                                            "prev": "0",
                                                                            "typeTag": 1
                                                                        }
                                                                    },
                                                                    {
                                                                        "name": "placement",
                                                                        "type": "uint8",
                                                                        "value": {
                                                                            "current": "0",
                                                                            "prev": "0",
                                                                            "typeTag": 1
                                                                        }
                                                                    },
                                                                    {
                                                                        "name": "sponsor",
                                                                        "type": "address",
                                                                        "value": {
                                                                            "current": "0xd62c8f882a69b0ad1c91950f0f4617b5f9a7f580",
                                                                            "prev": "0x0000000000000000000000000000000000000000",
                                                                            "typeTag": 1
                                                                        }
                                                                    }
                                                                ],
                                                                "typeTag": 3
                                                            }
                                                        }
                                                    ],
                                                    "typeTag": 4
                                                }
                                            },
                                            {
                                                "name": "x22Positions",
                                                "type": "mapping(uint8 => struct LionShare.L2)",
                                                "value": {
                                                    "pairs": [
                                                        {
                                                            "key": "1",
                                                            "value": {
                                                                "fields": [
                                                                    {
                                                                        "name": "directSales",
                                                                        "type": "uint32",
                                                                        "value": {
                                                                            "current": "0",
                                                                            "prev": "0",
                                                                            "typeTag": 1
                                                                        }
                                                                    },
                                                                    {
                                                                        "name": "cycles",
                                                                        "type": "uint16",
                                                                        "value": {
                                                                            "current": "0",
                                                                            "prev": "0",
                                                                            "typeTag": 1
                                                                        }
                                                                    },
                                                                    {
                                                                        "name": "passup",
                                                                        "type": "uint8",
                                                                        "value": {
                                                                            "current": "0",
                                                                            "prev": "0",
                                                                            "typeTag": 1
                                                                        }
                                                                    },
                                                                    {
                                                                        "name": "cycle",
                                                                        "type": "uint8",
                                                                        "value": {
                                                                            "current": "0",
                                                                            "prev": "0",
                                                                            "typeTag": 1
                                                                        }
                                                                    },
                                                                    {
                                                                        "name": "reEntryCheck",
                                                                        "type": "uint8",
                                                                        "value": {
                                                                            "current": "0",
                                                                            "prev": "0",
                                                                            "typeTag": 1
                                                                        }
                                                                    },
                                                                    {
                                                                        "name": "placementLastLevel",
                                                                        "type": "uint8",
                                                                        "value": {
                                                                            "current": "0",
                                                                            "prev": "0",
                                                                            "typeTag": 1
                                                                        }
                                                                    },
                                                                    {
                                                                        "name": "placementSide",
                                                                        "type": "uint8",
                                                                        "value": {
                                                                            "current": "2",
                                                                            "prev": "0",
                                                                            "typeTag": 1
                                                                        }
                                                                    },
                                                                    {
                                                                        "name": "sponsor",
                                                                        "type": "address",
                                                                        "value": {
                                                                            "current": "0xd62c8f882a69b0ad1c91950f0f4617b5f9a7f580",
                                                                            "prev": "0x0000000000000000000000000000000000000000",
                                                                            "typeTag": 1
                                                                        }
                                                                    },
                                                                    {
                                                                        "name": "placedUnder",
                                                                        "type": "address",
                                                                        "value": {
                                                                            "current": "0xa2dd954a1931e9df5f06bba48d110be545d368b8",
                                                                            "prev": "0x0000000000000000000000000000000000000000",
                                                                            "typeTag": 1
                                                                        }
                                                                    }
                                                                ],
                                                                "typeTag": 3
                                                            }
                                                        }
                                                    ],
                                                    "typeTag": 4
                                                }
                                            }
                                        ],
                                        "typeTag": 3
                                    }
                                },
                                {
                                    "key": "0xa2dd954a1931e9df5f06bba48d110be545d368b8",
                                    "value": {
                                        "fields": [
                                            {
                                                "name": "x22Positions",
                                                "type": "mapping(uint8 => struct LionShare.L2)",
                                                "value": {
                                                    "pairs": [
                                                        {
                                                            "key": "1",
                                                            "value": {
                                                                "fields": [
                                                                    {
                                                                        "name": "placementFirstLevel",
                                                                        "type": "address[]",
                                                                        "value": {
                                                                            "elemType": "address",
                                                                            "elems": [
                                                                                {
                                                                                    "index": 5,
                                                                                    "value": {
                                                                                        "current": "0x07e868cd017bad31c5068ea44332b92e065a0fb1",
                                                                                        "prev": "0x0000000000000000000000000000000000000000",
                                                                                        "typeTag": 1
                                                                                    }
                                                                                }
                                                                            ],
                                                                            "typeTag": 2
                                                                        }
                                                                    }
                                                                ],
                                                                "typeTag": 3
                                                            }
                                                        }
                                                    ],
                                                    "typeTag": 4
                                                }
                                            }
                                        ],
                                        "typeTag": 3
                                    }
                                },
                                {
                                    "key": "0xd62c8f882a69b0ad1c91950f0f4617b5f9a7f580",
                                    "value": {
                                        "fields": [
                                            {
                                                "name": "id",
                                                "type": "uint32",
                                                "value": {
                                                    "current": "1307",
                                                    "prev": "1307",
                                                    "typeTag": 1
                                                }
                                            },
                                            {
                                                "name": "directSales",
                                                "type": "uint32",
                                                "value": {
                                                    "current": "14",
                                                    "prev": "13",
                                                    "typeTag": 1
                                                }
                                            },
                                            {
                                                "name": "x31Positions",
                                                "type": "mapping(uint8 => struct LionShare.L1)",
                                                "value": {
                                                    "pairs": [
                                                        {
                                                            "key": "1",
                                                            "value": {
                                                                "fields": [
                                                                    {
                                                                        "name": "directSales",
                                                                        "type": "uint32",
                                                                        "value": {
                                                                            "current": "14",
                                                                            "prev": "13",
                                                                            "typeTag": 1
                                                                        }
                                                                    },
                                                                    {
                                                                        "name": "cycles",
                                                                        "type": "uint16",
                                                                        "value": {
                                                                            "current": "6",
                                                                            "prev": "6",
                                                                            "typeTag": 1
                                                                        }
                                                                    },
                                                                    {
                                                                        "name": "passup",
                                                                        "type": "uint8",
                                                                        "value": {
                                                                            "current": "0",
                                                                            "prev": "0",
                                                                            "typeTag": 1
                                                                        }
                                                                    },
                                                                    {
                                                                        "name": "reEntryCheck",
                                                                        "type": "uint8",
                                                                        "value": {
                                                                            "current": "0",
                                                                            "prev": "0",
                                                                            "typeTag": 1
                                                                        }
                                                                    },
                                                                    {
                                                                        "name": "placement",
                                                                        "type": "uint8",
                                                                        "value": {
                                                                            "current": "1",
                                                                            "prev": "0",
                                                                            "typeTag": 1
                                                                        }
                                                                    },
                                                                    {
                                                                        "name": "sponsor",
                                                                        "type": "address",
                                                                        "value": {
                                                                            "current": "0x4484696ad504d87d3dc7d018943ab2b741eb0d8f",
                                                                            "prev": "0x4484696ad504d87d3dc7d018943ab2b741eb0d8f",
                                                                            "typeTag": 1
                                                                        }
                                                                    }
                                                                ],
                                                                "typeTag": 3
                                                            }
                                                        }
                                                    ],
                                                    "typeTag": 4
                                                }
                                            },
                                            {
                                                "name": "x22Positions",
                                                "type": "mapping(uint8 => struct LionShare.L2)",
                                                "value": {
                                                    "pairs": [
                                                        {
                                                            "key": "1",
                                                            "value": {
                                                                "fields": [
                                                                    {
                                                                        "name": "directSales",
                                                                        "type": "uint32",
                                                                        "value": {
                                                                            "current": "14",
                                                                            "prev": "13",
                                                                            "typeTag": 1
                                                                        }
                                                                    },
                                                                    {
                                                                        "name": "cycles",
                                                                        "type": "uint16",
                                                                        "value": {
                                                                            "current": "1",
                                                                            "prev": "1",
                                                                            "typeTag": 1
                                                                        }
                                                                    },
                                                                    {
                                                                        "name": "passup",
                                                                        "type": "uint8",
                                                                        "value": {
                                                                            "current": "0",
                                                                            "prev": "0",
                                                                            "typeTag": 1
                                                                        }
                                                                    },
                                                                    {
                                                                        "name": "cycle",
                                                                        "type": "uint8",
                                                                        "value": {
                                                                            "current": "0",
                                                                            "prev": "0",
                                                                            "typeTag": 1
                                                                        }
                                                                    },
                                                                    {
                                                                        "name": "reEntryCheck",
                                                                        "type": "uint8",
                                                                        "value": {
                                                                            "current": "0",
                                                                            "prev": "0",
                                                                            "typeTag": 1
                                                                        }
                                                                    },
                                                                    {
                                                                        "name": "placementLastLevel",
                                                                        "type": "uint8",
                                                                        "value": {
                                                                            "current": "78",
                                                                            "prev": "70",
                                                                            "typeTag": 1
                                                                        }
                                                                    },
                                                                    {
                                                                        "name": "placementSide",
                                                                        "type": "uint8",
                                                                        "value": {
                                                                            "current": "1",
                                                                            "prev": "1",
                                                                            "typeTag": 1
                                                                        }
                                                                    },
                                                                    {
                                                                        "name": "sponsor",
                                                                        "type": "address",
                                                                        "value": {
                                                                            "current": "0x4484696ad504d87d3dc7d018943ab2b741eb0d8f",
                                                                            "prev": "0x4484696ad504d87d3dc7d018943ab2b741eb0d8f",
                                                                            "typeTag": 1
                                                                        }
                                                                    }
                                                                ],
                                                                "typeTag": 3
                                                            }
                                                        }
                                                    ],
                                                    "typeTag": 4
                                                }
                                            }
                                        ],
                                        "typeTag": 3
                                    }
                                }
                            ],
                            "typeTag": 4
                        }
                    },
                    {
                        "name": "idToMember",
                        "type": "mapping(uint32 => address)",
                        "value": {
                            "pairs": [
                                {
                                    "key": "33958",
                                    "value": {
                                        "current": "0x07e868cd017bad31c5068ea44332b92e065a0fb1",
                                        "prev": "0x0000000000000000000000000000000000000000",
                                        "typeTag": 1
                                    }
                                }
                            ],
                            "typeTag": 4
                        }
                    }
                ]
            }
        ]
    }
}