{
    "balance_change": {
        "balanceChanges": [
            {
                "account": "0x92d2b5622eaa7306ac7430fc024aac15e2f94f7e",
                "assets": [
                    {
                        "address": "0xeeeeeeeeeeeeeeeeeeeeeeeeeeeeeeeeeeeeeeee",
                        "amount": "0.24691",
                        "iconUrl": "https://assets.blocksec.com/image/1663669189317-3.png",
                        "isERC1155": false,
                        "isERC721": false,
                        "sign": false,
                        "value": ""
                    }
                ]
            },
            {
                "account": "0xdd9fd6b6f8f7ea932997992bbe67eabb3e316f3c",
                "assets": [
                    {
                        "address": "0xeeeeeeeeeeeeeeeeeeeeeeeeeeeeeeeeeeeeeeee",
                        "amount": "0.2370336",
                        "iconUrl": "https://assets.blocksec.com/image/1663669189317-3.png",
                        "isERC1155": false,
                        "isERC721": false,
                        "sign": true,
                        "value": ""
                    }
                ]
            },
            {
                "account": "0x79f77200c65076c5b8494899097cf9ccd01c8293",
                "assets": [
                    {
                        "address": "0xeeeeeeeeeeeeeeeeeeeeeeeeeeeeeeeeeeeeeeee",
                        "amount": "0.0049382",
                        "iconUrl": "https://assets.blocksec.com/image/1663669189317-3.png",
                        "isERC1155": false,
                        "isERC721": false,
                        "sign": true,
                        "value": ""
                    }
                ]
            },
            {
                "account": "0xd71cbd05fc1935b21753991ee9c83bf21404a739",
                "assets": [
                    {
                        "address": "0xeeeeeeeeeeeeeeeeeeeeeeeeeeeeeeeeeeeeeeee",
                        "amount": "0.0049382",
                        "iconUrl": "https://assets.blocksec.com/image/1663669189317-3.png",
                        "isERC1155": false,
                        "isERC721": false,
                        "sign": true,
                        "value": ""
                    }
                ]
            }
        ]
    },
    "profile": {
        "basic_info": {
            "baseFee": "",
            "blockNumber": 6118096,
            "callData": "0x8f38f309000000000000000000000000000000000000000000000000000000000000487e0000000000000000000000000000000000000000000000000000000000000000",
            "debugEnable": true,
            "errorInfo": "",
            "eventCount": 2,
            "feeRecipient": "0x35f61dfb08ada13eba64bf156b80df3d5b3a738d",
            "formatValue": "0.24691",
            "gasLimit": 800000,
            "gasPrice": "60",
            "gasUsed": 375618,
            "intTxnCount": 5,
            "internalRevert": false,
            "internalRevertMessage": "",
            "isContractCreation": false,
            "isFlashloan": false,
            "maxFee": "",
            "nonce": 4,
            "overwritedBlockNumber": -1,
            "priorityFee": "",
            "receiver": "0xdd9fd6b6f8f7ea932997992bbe67eabb3e316f3c",
            "revertMessage": "",
            "sender": "0x92d2b5622eaa7306ac7430fc024aac15e2f94f7e",
            "simulationEnable": true,
            "sourceTxnHash": "0x56e5c572138c6b8bf3eb05e0fbf2c8fa79af57e499b029973c022df6c09a84f2",
            "status": true,
            "timestamp": "2018-08-09T19:31:38Z",
            "transactionFee": "0.02253708",
            "txnHash": "0x56e5c572138c6b8bf3eb05e0fbf2c8fa79af57e499b029973c022df6c09a84f2",
            "txnIndex": 19,
            "type": 0,
            "value": "246910000000000000"
        },
        "fund_flow": [
            {
                "amount": "0.24691",
                "from": "0x92d2b5622eaa7306ac7430fc024aac15e2f94f7e",
                "id": 1,
                "isERC1155": false,
                "isERC721": false,
                "isReverted": false,
                "order": 1,
                "to": "0xdd9fd6b6f8f7ea932997992bbe67eabb3e316f3c",
                "token": "0xeeeeeeeeeeeeeeeeeeeeeeeeeeeeeeeeeeeeeeee"
            },
            {
                "amount": "0.0049382",
                "from": "0xdd9fd6b6f8f7ea932997992bbe67eabb3e316f3c",
                "id": 2,
                "isERC1155": false,
                "isERC721": false,
                "isReverted": false,
                "order": 2,
                "to": "0xd71cbd05fc1935b21753991ee9c83bf21404a739",
                "token": "0xeeeeeeeeeeeeeeeeeeeeeeeeeeeeeeeeeeeeeeee"
            },
            {
                "amount": "0.0049382",
                "from": "0xdd9fd6b6f8f7ea932997992bbe67eabb3e316f3c",
                "id": 3,
                "isERC1155": false,
                "isERC721": false,
                "isReverted": false,
                "order": 3,
                "to": "0x79f77200c65076c5b8494899097cf9ccd01c8293",
                "token": "0xeeeeeeeeeeeeeeeeeeeeeeeeeeeeeeeeeeeeeeee"
            }
        ],
        "token_infos": [
            {
                "address": "0xc02aaa39b223fe8d0a0e5c4f27ead9083c756cc2",
                "decimals": 18
            },
            {
                "address": "0xeeeeeeeeeeeeeeeeeeeeeeeeeeeeeeeeeeeeeeee",
                "decimals": 18
            }
        ]
    },
    "address_label": {
        "labels": [
            {
                "address": "0xeeeeeeeeeeeeeeeeeeeeeeeeeeeeeeeeeeeeeeee",
                "label": "Ether"
            },
            {
                "address": "0x0000000000000000000000000000000000000001",
                "label": "Precompiled"
            },
            {
                "address": "0x0000000000000000000000000000000000000002",
                "label": "Precompiled"
            },
            {
                "address": "0x0000000000000000000000000000000000000003",
                "label": "Precompiled"
            },
            {
                "address": "0x0000000000000000000000000000000000000004",
                "label": "Precompiled"
            }
        ]
    },
    "trace": {
        "accountLabels": null,
        "dataMap": {
            "-1": {
                "invocation": {
                    "address": "0x92d2b5622eaa7306ac7430fc024aac15e2f94f7e",
                    "callData": "",
                    "decodedMethod": null,
                    "errorInfo": "",
                    "fromAddress": "",
                    "gasUsed": 0,
                    "id": -1,
                    "methodDecoded": false,
                    "operation": "",
                    "output": "",
                    "revert": false,
                    "revertMessage": "",
                    "selector": "",
                    "status": false,
                    "value": ""
                },
                "nodeType": 0
            },
            "0": {
                "invocation": {
                    "address": "0xdd9fd6b6f8f7ea932997992bbe67eabb3e316f3c",
                    "callData": "0x000000000000000000000000000000000000000000000000000000000000487e0000000000000000000000000000000000000000000000000000000000000000",
                    "decodedMethod": {
                        "callParams": [
                            {
                                "name": "_affCode",
                                "type": "uint256",
                                "value": "18,558"
                            },
                            {
                                "name": "_team",
                                "type": "uint256",
                                "value": "0"
                            }
                        ],
                        "constructorArguments": "",
                        "name": "buyXid",
                        "returnParams": [],
                        "signature": "buyXid(uint256,uint256)"
                    },
                    "errorInfo": "",
                    "fromAddress": "0x92d2b5622eaa7306ac7430fc024aac15e2f94f7e",
                    "gasUsed": 375618,
                    "id": 0,
                    "methodDecoded": true,
                    "operation": "CALL",
                    "output": "",
                    "revert": false,
                    "revertMessage": "",
                    "selector": "0x8f38f309",
                    "status": true,
                    "value": "0.24691"
                },
                "nodeType": 0
            },
            "1": {
                "invocation": {
                    "address": "0x21d99b904aee07012929d21fcc40bfff4d942f5d",
                    "callData": "0x00000000000000000000000092d2b5622eaa7306ac7430fc024aac15e2f94f7e",
                    "decodedMethod": {
                        "callParams": [
                            {
                                "name": "_addr",
                                "type": "address",
                                "value": "0x92d2b5622eaa7306ac7430fc024aac15e2f94f7e"
                            }
                        ],
                        "constructorArguments": "",
                        "name": "getPlayerID",
                        "returnParams": [
                            {
                                "name": "",
                                "type": "uint256",
                                "value": "66,267"
                            }
                        ],
                        "signature": "getPlayerID(address)"
                    },
                    "errorInfo": "",
                    "fromAddress": "0xdd9fd6b6f8f7ea932997992bbe67eabb3e316f3c",
                    "gasUsed": 47595,
                    "id": 1,
                    "methodDecoded": true,
                    "operation": "CALL",
                    "output": "0x00000000000000000000000000000000000000000000000000000000000102db",
                    "revert": false,
                    "revertMessage": "",
                    "selector": "0xe56556a9",
                    "status": true,
                    "value": "0"
                },
                "nodeType": 0
            },
            "2": {
                "invocation": {
                    "address": "0x21d99b904aee07012929d21fcc40bfff4d942f5d",
                    "callData": "0x00000000000000000000000000000000000000000000000000000000000102db",
                    "decodedMethod": {
                        "callParams": [
                            {
                                "name": "_pID",
                                "type": "uint256",
                                "value": "66,267"
                            }
                        ],
                        "constructorArguments": "",
                        "name": "getPlayerName",
                        "returnParams": [
                            {
                                "name": "",
                                "type": "bytes32",
                                "value": "0x0000000000000000000000000000000000000000000000000000000000000000"
                            }
                        ],
                        "signature": "getPlayerName(uint256)"
                    },
                    "errorInfo": "",
                    "fromAddress": "0xdd9fd6b6f8f7ea932997992bbe67eabb3e316f3c",
                    "gasUsed": 792,
                    "id": 2,
                    "methodDecoded": true,
                    "operation": "CALL",
                    "output": "0x0000000000000000000000000000000000000000000000000000000000000000",
                    "revert": false,
                    "revertMessage": "",
                    "selector": "0x82e37b2c",
                    "status": true,
                    "value": "0"
                },
                "nodeType": 0
            },
            "3": {
                "invocation": {
                    "address": "0x21d99b904aee07012929d21fcc40bfff4d942f5d",
                    "callData": "0x00000000000000000000000000000000000000000000000000000000000102db",
                    "decodedMethod": {
                        "callParams": [
                            {
                                "name": "_pID",
                                "type": "uint256",
                                "value": "66,267"
                            }
                        ],
                        "constructorArguments": "",
                        "name": "getPlayerLAff",
                        "returnParams": [
                            {
                                "name": "",
                                "type": "uint256",
                                "value": "0"
                            }
                        ],
                        "signature": "getPlayerLAff(uint256)"
                    },
                    "errorInfo": "",
                    "fromAddress": "0xdd9fd6b6f8f7ea932997992bbe67eabb3e316f3c",
                    "gasUsed": 1034,
                    "id": 3,
                    "methodDecoded": true,
                    "operation": "CALL",
                    "output": "0x0000000000000000000000000000000000000000000000000000000000000000",
                    "revert": false,
                    "revertMessage": "",
                    "selector": "0xe3c08adf",
                    "status": true,
                    "value": "0"
                },
                "nodeType": 0
            },
            "4": {
                "invocation": {
                    "address": "0xd71cbd05fc1935b21753991ee9c83bf21404a739",
                    "callData": "0x",
                    "decodedMethod": null,
                    "errorInfo": "",
                    "fromAddress": "0xdd9fd6b6f8f7ea932997992bbe67eabb3e316f3c",
                    "gasUsed": 0,
                    "id": 4,
                    "methodDecoded": false,
                    "operation": "CALL",
                    "output": "",
                    "revert": false,
                    "revertMessage": "",
                    "selector": "fallback",
                    "status": true,
                    "value": "0.0049382"
                },
                "nodeType": 0
            },
            "5": {
                "invocation": {
                    "address": "0x79f77200c65076c5b8494899097cf9ccd01c8293",
                    "callData": "0x",
                    "decodedMethod": null,
                    "errorInfo": "",
                    "fromAddress": "0xdd9fd6b6f8f7ea932997992bbe67eabb3e316f3c",
                    "gasUsed": 0,
                    "id": 5,
                    "methodDecoded": false,
                    "operation": "CALL",
                    "output": "",
                    "revert": false,
                    "revertMessage": "",
                    "selector": "fallback",
                    "status": true,
                    "value": "0.0049382"
                },
                "nodeType": 0
            },
            "6": {
                "event": {
                    "contract": "0xdd9fd6b6f8f7ea932997992bbe67eabb3e316f3c",
                    "decodedLog": {
                        "name": "onAffiliatePayout",
                        "params": [
                            {
                                "name": "affiliateID",
                                "type": "uint256",
                                "value": "18,558"
                            },
                            {
                                "name": "roundID",
                                "type": "uint256",
                                "value": "1"
                            },
                            {
                                "name": "buyerID",
                                "type": "uint256",
                                "value": "66,267"
                            },
                            {
                                "name": "affiliateAddress",
                                "type": "address",
                                "value": "0x1040ca35140f109fbd593916ec04e40e4083f38c"
                            },
                            {
                                "name": "affiliateName",
                                "type": "bytes32",
                                "value": "0x7661787a736c6c796d616c637a78753135333336343836323839373000000000"
                            },
                            {
                                "name": "amount",
                                "type": "uint256",
                                "value": "24,691,000,000,000,000"
                            },
                            {
                                "name": "timeStamp",
                                "type": "uint256",
                                "value": "1,533,843,098"
                            }
                        ],
                        "signature": "onAffiliatePayout(uint256,address,bytes32,uint256,uint256,uint256,uint256)"
                    },
                    "id": 6,
                    "logData": "0x0000000000000000000000001040ca35140f109fbd593916ec04e40e4083f38c7661787a736c6c796d616c637a787531353333363438363238393730000000000000000000000000000000000000000000000000000000000057b8556c263000000000000000000000000000000000000000000000000000000000005b6c969a",
                    "logDecoded": true,
                    "operation": "EVENT",
                    "revert": false,
                    "status": true,
                    "topics": [
                        "0x590bbc0fc16915a85269a48f74783c39842b7ae9eceb7c295c95dbe8b3ec7331",
                        "0x000000000000000000000000000000000000000000000000000000000000487e",
                        "0x0000000000000000000000000000000000000000000000000000000000000001",
                        "0x00000000000000000000000000000000000000000000000000000000000102db"
                    ]
                },
                "nodeType": 1
            },
            "7": {
                "event": {
                    "contract": "0xdd9fd6b6f8f7ea932997992bbe67eabb3e316f3c",
                    "decodedLog": {
                        "name": "onEndTx",
                        "params": [
                            {
                                "name": "compressedData",
                                "type": "uint256",
                                "value": "1,533,843,098,000,000,000,000,005,111"
                            },
                            {
                                "name": "compressedIDs",
                                "type": "uint256",
                                "value": "10,000,000,000,000,000,000,000,000,000,000,000,000,000,000,000,066,267"
                            },
                            {
                                "name": "playerName",
                                "type": "bytes32",
                                "value": "0x0000000000000000000000000000000000000000000000000000000000000000"
                            },
                            {
                                "name": "playerAddress",
                                "type": "address",
                                "value": "0x92d2b5622eaa7306ac7430fc024aac15e2f94f7e"
                            },
                            {
                                "name": "ethIn",
                                "type": "uint256",
                                "value": "246,910,000,000,000,000"
                            },
                            {
                                "name": "keysBought",
                                "type": "uint256",
                                "value": "47,999,545,193,165,850,098"
                            },
                            {
                                "name": "winnerAddr",
                                "type": "address",
                                "value": "0x0000000000000000000000000000000000000000"
                            },
                            {
                                "name": "winnerName",
                                "type": "bytes32",
                                "value": "0x0000000000000000000000000000000000000000000000000000000000000000"
                            },
                            {
                                "name": "amountWon",
                                "type": "uint256",
                                "value": "0"
                            },
                            {
                                "name": "newPot",
                                "type": "uint256",
                                "value": "0"
                            },
                            {
                                "name": "P3DAmount",
                                "type": "uint256",
                                "value": "0"
                            },
                            {
                                "name": "genAmount",
                                "type": "uint256",
                                "value": "155,553,299,979,309,792"
                            },
                            {
                                "name": "potAmount",
                                "type": "uint256",
                                "value": "24,691,000,000,000,000"
                            },
                            {
                                "name": "airDropPot",
                                "type": "uint256",
                                "value": "1,014,690,565,946,958,850"
                            }
                        ],
                        "signature": "onEndTx(uint256,uint256,bytes32,address,uint256,uint256,address,bytes32,uint256,uint256,uint256,uint256,uint256,uint256)"
                    },
                    "id": 7,
                    "logData": "0x000000000000000000000000000000000000000004f4c3e8f48656574a2813f7000000000000000000001aba4714957d300d0e549208b31adb100000000102db000000000000000000000000000000000000000000000000000000000000000000000000000000000000000092d2b5622eaa7306ac7430fc024aac15e2f94f7e000000000000000000000000000000000000000000000000036d3356397de0000000000000000000000000000000000000000000000000029a20a40a6af585f2000000000000000000000000000000000000000000000000000000000000000000000000000000000000000000000000000000000000000000000000000000000000000000000000000000000000000000000000000000000000000000000000000000000000000000000000000000000000000000000000000000000000000000000000000000000000000000000000000000000000000000000000000000000000000000000000000000000000000000000000000000000228a2e6f4e812e00000000000000000000000000000000000000000000000000057b8556c2630000000000000000000000000000000000000000000000000000e14e7b194356402",
                    "logDecoded": true,
                    "operation": "EVENT",
                    "revert": false,
                    "status": true,
                    "topics": [
                        "0x500e72a0e114930aebdbcb371ccdbf43922c49f979794b5de4257ff7e310c746"
                    ]
                },
                "nodeType": 1
            }
        },
        "gasFlame": [
            {
                "children": [
                    {
                        "children": [
                            {
                                "children": [],
                                "depth": 0,
                                "name": "Initial Gas",
                                "value": 21656
                            },
                            {
                                "children": [
                                    {
                                        "children": [],
                                        "depth": 1,
                                        "name": "getPlayerID",
                                        "value": 47595
                                    },
                                    {
                                        "children": [],
                                        "depth": 1,
                                        "name": "getPlayerName",
                                        "value": 792
                                    },
                                    {
                                        "children": [],
                                        "depth": 1,
                                        "name": "getPlayerLAff",
                                        "value": 1034
                                    },
                                    {
                                        "children": [],
                                        "depth": 1,
                                        "name": "fallback",
                                        "value": 0
                                    },
                                    {
                                        "children": [],
                                        "depth": 1,
                                        "name": "fallback",
                                        "value": 0
                                    }
                                ],
                                "depth": 0,
                                "name": "Executed Gas",
                                "value": 368962
                            }
                        ],
                        "depth": -1,
                        "name": "Actual Gas Used",
                        "value": 375618
                    },
                    {
                        "children": [],
                        "depth": -1,
                        "name": "Refunded Gas",
                        "value": 15000
                    }
                ],
                "depth": -2,
                "name": "Total Gas",
                "value": 390618
            }
        ],
        "isConfirmed": true,
        "mainTrace": [
            {
                "children": [
                    {
                        "children": [
                            {
                                "children": [],
                                "depth": 1,
                                "id": 1,
                                "order": 1
                            },
                            {
                                "children": [],
                                "depth": 1,
                                "id": 2,
                                "order": 2
                            },
                            {
                                "children": [],
                                "depth": 1,
                                "id": 3,
                                "order": 3
                            },
                            {
                                "children": [],
                                "depth": 1,
                                "id": 4,
                                "order": 4
                            },
                            {
                                "children": [],
                                "depth": 1,
                                "id": 5,
                                "order": 5
                            },
                            {
                                "children": [],
                                "depth": 1,
                                "id": 6,
                                "order": 6
                            },
                            {
                                "children": [],
                                "depth": 1,
                                "id": 7,
                                "order": 7
                            }
                        ],
                        "depth": 0,
                        "id": 0,
                        "order": 0
                    }
                ],
                "depth": -1,
                "id": -1,
                "order": -1
            }
        ],
        "mainTraceNodeCount": 8,
        "parentIdMap": {
            "0": -1,
            "1": 0,
            "2": 0,
            "3": 0,
            "4": 0,
            "5": 0,
            "6": 0,
            "7": 0
        },
        "tidyTrace": [
            {
                "children": [
                    {
                        "children": [
                            {
                                "children": [],
                                "depth": 1,
                                "id": 1,
                                "order": 1
                            },
                            {
                                "children": [],
                                "depth": 1,
                                "id": 2,
                                "order": 2
                            },
                            {
                                "children": [],
                                "depth": 1,
                                "id": 3,
                                "order": 3
                            },
                            {
                                "children": [],
                                "depth": 1,
                                "id": 4,
                                "order": 4
                            },
                            {
                                "children": [],
                                "depth": 1,
                                "id": 5,
                                "order": 5
                            },
                            {
                                "children": [],
                                "depth": 1,
                                "id": 6,
                                "order": 6
                            },
                            {
                                "children": [],
                                "depth": 1,
                                "id": 7,
                                "order": 7
                            }
                        ],
                        "depth": 0,
                        "id": 0,
                        "order": 0
                    }
                ],
                "depth": -1,
                "id": -1,
                "order": -1
            }
        ],
        "tidyTraceNodeCount": 8
    },
    "state_change": {
        "stateChanges": [
            {
                "address": "0x21d99b904aee07012929d21fcc40bfff4d942f5d",
                "erc": "",
                "slots": [
                    {
                        "current": "0x00000000000000000000000000000000000000000000000000000000000102db",
                        "key": "0x000000000000000000000000000000000000000000000000000000000000000d",
                        "prev": "0x00000000000000000000000000000000000000000000000000000000000102da"
                    },
                    {
                        "current": "0x00000000000000000000000000000000000000000000000000000000000102db",
                        "key": "0x2e7d025fe838453dbf5e4400d9e6244c13f05acbaa6485a0a2e2d8eb14f1b3a9",
                        "prev": "0x0000000000000000000000000000000000000000000000000000000000000000"
                    },
                    {
                        "current": "0x00000000000000000000000092d2b5622eaa7306ac7430fc024aac15e2f94f7e",
                        "key": "0x60e38197b6c826fe40294a79ce8139f001778750ae0f30d551091c2052765f45",
                        "prev": "0x0000000000000000000000000000000000000000000000000000000000000000"
                    }
                ],
                "storageVariables": []
            },
            {
                "address": "0xdd9fd6b6f8f7ea932997992bbe67eabb3e316f3c",
                "erc": "",
                "slots": [
                    {
                        "current": "0x0000000000000000000000000000000000000000000000000239c3c10055dd6d",
                        "key": "0x5f67d30305412d19b7af7fb666c800a8a7bf7bd076dac5644e1544767126e1c5",
                        "prev": "0x0000000000000000000000000000000000000000000000000000000000000000"
                    },
                    {
                        "current": "0x0000000000000000000000000000000000000000000000000424afed85c9cc00",
                        "key": "0x445fc3ca8b96e9c9677974bb4048e634aca8f41a0601708cada4d3108cf2adf0",
                        "prev": "0x000000000000000000000000000000000000000000000000040a5f07188b2400"
                    },
                    {
                        "current": "0x0000000000000000000000000000000000000000000000000000000000000001",
                        "key": "0x11f66596e99ec1e0d03a1c2a16be3d176d245abbf6af779082f036b3b8ce6723",
                        "prev": "0x0000000000000000000000000000000000000000000000000000000000000000"
                    },
                    {
                        "current": "0x00000000000000000000000092d2b5622eaa7306ac7430fc024aac15e2f94f7e",
                        "key": "0x11f66596e99ec1e0d03a1c2a16be3d176d245abbf6af779082f036b3b8ce671e",
                        "prev": "0x0000000000000000000000000000000000000000000000000000000000000000"
                    },
                    {
                        "current": "0x0000000000000000000000000000000000000000000000000000000000000000",
                        "key": "0xfd54ff1ed53f34a900b24c5ba64f85761163b5d82d98a47b9bd80e45466993c6",
                        "prev": "0x0000000000000000000000000000000000000000000000000000000000000001"
                    },
                    {
                        "current": "0x000000000000000000000000000000000000000000000000000bdec72cc4cedd",
                        "key": "0xfd54ff1ed53f34a900b24c5ba64f85761163b5d82d98a47b9bd80e45466993ce",
                        "prev": "0x000000000000000000000000000000000000000000000000000bdec60ef908be"
                    },
                    {
                        "current": "0x000000000000000000000000000000000000000000000000000000000000487e",
                        "key": "0x11f66596e99ec1e0d03a1c2a16be3d176d245abbf6af779082f036b3b8ce6724",
                        "prev": "0x0000000000000000000000000000000000000000000000000000000000000000"
                    },
                    {
                        "current": "0x00000000000000000000000000000000000000000000029d4c949528c81f0dc0",
                        "key": "0xfd54ff1ed53f34a900b24c5ba64f85761163b5d82d98a47b9bd80e45466993cd",
                        "prev": "0x00000000000000000000000000000000000000000000029d4c3cdcd35abd28a0"
                    },
                    {
                        "current": "0x0000000000000000000000000000000000000000000000000000000000000005",
                        "key": "0x0000000000000000000000000000000000000000000000000000000000000006",
                        "prev": "0x0000000000000000000000000000000000000000000000000000000000000000"
                    },
                    {
                        "current": "0x000000000000000000000000000000000000000000000fe62afa932a07ab6e09",
                        "key": "0x14c59eed989372b13b9ffdad3c397c178450139af216ccc91acde49544dcd980",
                        "prev": "0x000000000000000000000000000000000000000000000fe6278d5fd3ce2d8e09"
                    },
                    {
                        "current": "0x0000000000000000000000000000000000000000000000029a20a40a6af585f2",
                        "key": "0x5f67d30305412d19b7af7fb666c800a8a7bf7bd076dac5644e1544767126e1c4",
                        "prev": "0x0000000000000000000000000000000000000000000000000000000000000000"
                    },
                    {
                        "current": "0x0000000000000000000000000000000000000000001ad5ca71345d9275da4634",
                        "key": "0xfd54ff1ed53f34a900b24c5ba64f85761163b5d82d98a47b9bd80e45466993cb",
                        "prev": "0x0000000000000000000000000000000000000000001ad5c7d713b9880ae4c042"
                    },
                    {
                        "current": "0x00000000000000000000000000000000000000000000000004d20cfc872b4000",
                        "key": "0x3857d972655f9ec05d95a82152f5ad17d3c49b6d83282d08048988b9b20a6acf",
                        "prev": "0x000000000000000000000000000000000000000000000000047a54a71b051000"
                    },
                    {
                        "current": "0x0000000000000000000000000000000000000000000000000e14e7b194356402",
                        "key": "0x0000000000000000000000000000000000000000000000000000000000000005",
                        "prev": "0x0000000000000000000000000000000000000000000000000dbd2f5c280f3402"
                    },
                    {
                        "current": "0x00000000000000000000000092d2b5622eaa7306ac7430fc024aac15e2f94f7e",
                        "key": "0xfd54ff1ed53f34a900b24c5ba64f85761163b5d82d98a47b9bd80e45466993c7",
                        "prev": "0x00000000000000000000000017326b46e9d8cce806d26b8708d0f84ad868dc6b"
                    },
                    {
                        "current": "0x00000000000000000000000000000000000000000000000000000000000102db",
                        "key": "0xfd54ff1ed53f34a900b24c5ba64f85761163b5d82d98a47b9bd80e45466993c5",
                        "prev": "0x00000000000000000000000000000000000000000000000000000000000102da"
                    },
                    {
                        "current": "0x0000000000000000000000000000000000000000000011ed3fe12da1f16899d2",
                        "key": "0xfd54ff1ed53f34a900b24c5ba64f85761163b5d82d98a47b9bd80e45466993cc",
                        "prev": "0x0000000000000000000000000000000000000000000011ed3c73fa4bb7eab9d2"
                    },
                    {
                        "current": "0x000000000000000000000000000000000000000000000000036d3356397de000",
                        "key": "0x5f67d30305412d19b7af7fb666c800a8a7bf7bd076dac5644e1544767126e1c3",
                        "prev": "0x0000000000000000000000000000000000000000000000000000000000000000"
                    },
                    {
                        "current": "0x00000000000000000000000000000000000000000000000000000000000102db",
                        "key": "0x6ac60e08d38be73212de35e61cb261b4d2db72597e1ee4b2b3f0403e9df59f15",
                        "prev": "0x0000000000000000000000000000000000000000000000000000000000000000"
                    }
                ],
                "storageVariables": []
            }
        ]
    }
}