{
    "balance_change": {
        "balanceChanges": [
            {
                "account": "0x96e1ddde9f672127f9d0caf017911861ff08f475",
                "assets": [
                    {
                        "address": "0xae7ab96520de3a18e5e111b5eaab095312d7fe84",
                        "amount": "0.535",
                        "iconUrl": "https://assets.blocksec.com/icon/3968fd5c98727016afc635f2849cea0c6ddf42095e660b8a3497ee09185b175e.png",
                        "isERC1155": false,
                        "isERC721": false,
                        "sign": false,
                        "value": "1009.4433499999999708"
                    }
                ]
            },
            {
                "account": "0x93c4b944d05dfe6df7645a86cd2206016c51564d",
                "assets": [
                    {
                        "address": "0xae7ab96520de3a18e5e111b5eaab095312d7fe84",
                        "amount": "0.535",
                        "iconUrl": "https://assets.blocksec.com/icon/3968fd5c98727016afc635f2849cea0c6ddf42095e660b8a3497ee09185b175e.png",
                        "isERC1155": false,
                        "isERC721": false,
                        "sign": true,
                        "value": "1009.4433499999999708"
                    }
                ]
            }
        ]
    },
    "profile": {
        "basic_info": {
            "baseFee": "104.226898227",
            "blockNumber": 17678838,
            "callData": "0xe7a050aa00000000000000000000000093c4b944d05dfe6df7645a86cd2206016c51564d000000000000000000000000ae7ab96520de3a18e5e111b5eaab095312d7fe84000000000000000000000000000000000000000000000000076cb3aa5ad58000",
            "debugEnable": true,
            "errorInfo": "",
            "eventCount": 4,
            "feeRecipient": "0x5124fcc2b3f99f571ad67d075643c743f38f1c34",
            "formatValue": "0",
            "gasLimit": 241265,
            "gasPrice": "104.326898227",
            "gasUsed": 233061,
            "intTxnCount": 21,
            "internalRevert": false,
            "internalRevertMessage": "",
            "isContractCreation": false,
            "isFlashloan": false,
            "maxFee": "115.797642324",
            "nonce": 178,
            "overwritedBlockNumber": -1,
            "priorityFee": "0.1",
            "receiver": "0x858646372cc42e1a627fce94aa7a7033e7cf075a",
            "revertMessage": "",
            "sender": "0x96e1ddde9f672127f9d0caf017911861ff08f475",
            "simulationEnable": true,
            "sourceTxnHash": "0x5628559900c28a4b238322b075b8bdf9346592793d6fb4cb93c826bc1f5f4ac8",
            "status": true,
            "timestamp": "2023-07-12T17:03:35Z",
            "transactionFee": "0.024314531227682847",
            "txnHash": "0x5628559900c28a4b238322b075b8bdf9346592793d6fb4cb93c826bc1f5f4ac8",
            "txnIndex": 99,
            "type": 2,
            "value": "0"
        },
        "fund_flow": [
            {
                "amount": "0.535",
                "from": "0x96e1ddde9f672127f9d0caf017911861ff08f475",
                "id": 1,
                "isERC1155": false,
                "isERC721": false,
                "isReverted": false,
                "order": 1,
                "to": "0x93c4b944d05dfe6df7645a86cd2206016c51564d",
                "token": "0xae7ab96520de3a18e5e111b5eaab095312d7fe84"
            }
        ],
        "token_infos": [
            {
                "address": "0xae7ab96520de3a18e5e111b5eaab095312d7fe84",
                "decimals": 18
            },
            {
                "address": "0xc02aaa39b223fe8d0a0e5c4f27ead9083c756cc2",
                "decimals": 18
            },
            {
                "address": "0xeeeeeeeeeeeeeeeeeeeeeeeeeeeeeeeeeeeeeeee",
                "decimals": 18
            }
        ]
    },
    "address_label": {
        "labels": [
            {
                "address": "0xb8ffc3cd6e7cf5a098a1c92f48009765b24088dc",
                "label": "Lido: DAO"
            },
            {
                "address": "0x5d25eef8cfedaa47d31fe2346726de1c21e342fb",
                "label": "StrategyManager"
            },
            {
                "address": "0xd92145c07f8ed1d392c1b88017934e301cc1c3cd",
                "label": "EigenLayer: Slasher"
            },
            {
                "address": "0x0000000000000000000000000000000000000003",
                "label": "Precompiled"
            },
            {
                "address": "0x39053d51b77dc0d36036fc1fcc8cb819df8ef37a",
                "label": "EigenLayer: Delegation"
            },
            {
                "address": "0xdfda04f980be6a64e3607c95ca26012ab9aa46d3",
                "label": "EigenLayer: Base Strategy Implementation"
            },
            {
                "address": "0x858646372cc42e1a627fce94aa7a7033e7cf075a",
                "label": "EigenLayer: Strategy Manager"
            },
            {
                "address": "0xef31c292801f24f16479dd83197f1e6aebb8d6d8",
                "label": "Slasher"
            },
            {
                "address": "0x2b33cf282f867a7ff693a66e11b0fcc5552e4425",
                "label": "Lido: DAO Impl 1.0.0"
            },
            {
                "address": "0x17144556fd3424edc8fc8a4c940b2d04936d17eb",
                "label": "Lido: stETH Token Impl 2.0.0"
            },
            {
                "address": "0x93c4b944d05dfe6df7645a86cd2206016c51564d",
                "label": "EigenLayer: stETH Strategies"
            },
            {
                "address": "0xae7ab96520de3a18e5e111b5eaab095312d7fe84",
                "label": "Lido: stETH Token"
            },
            {
                "address": "0xf97e97649da958d290e84e6d571c32f4b7f475e4",
                "label": "DelegationManager"
            },
            {
                "address": "0x0000000000000000000000000000000000000001",
                "label": "Precompiled"
            },
            {
                "address": "0x0000000000000000000000000000000000000002",
                "label": "Precompiled"
            },
            {
                "address": "0x0000000000000000000000000000000000000004",
                "label": "Precompiled"
            },
            {
                "address": "0xeeeeeeeeeeeeeeeeeeeeeeeeeeeeeeeeeeeeeeee",
                "label": "Ether"
            }
        ]
    },
    "trace": {
        "accountLabels": null,
        "dataMap": {
            "-1": {
                "invocation": {
                    "address": "0x96e1ddde9f672127f9d0caf017911861ff08f475",
                    "callData": "",
                    "decodedMethod": null,
                    "errorInfo": "",
                    "fromAddress": "",
                    "gasUsed": 0,
                    "id": -1,
                    "methodDecoded": false,
                    "operation": "",
                    "output": "",
                    "revert": false,
                    "revertMessage": "",
                    "selector": "",
                    "status": false,
                    "value": ""
                },
                "nodeType": 0
            },
            "0": {
                "invocation": {
                    "address": "0x858646372cc42e1a627fce94aa7a7033e7cf075a",
                    "callData": "0x00000000000000000000000093c4b944d05dfe6df7645a86cd2206016c51564d000000000000000000000000ae7ab96520de3a18e5e111b5eaab095312d7fe84000000000000000000000000000000000000000000000000076cb3aa5ad58000",
                    "decodedMethod": {
                        "callParams": [
                            {
                                "name": "strategy",
                                "type": "address",
                                "value": "0x93c4b944d05dfe6df7645a86cd2206016c51564d"
                            },
                            {
                                "name": "token",
                                "type": "address",
                                "value": "0xae7ab96520de3a18e5e111b5eaab095312d7fe84"
                            },
                            {
                                "name": "amount",
                                "type": "uint256",
                                "value": "535,000,000,000,000,000"
                            }
                        ],
                        "constructorArguments": "",
                        "name": "depositIntoStrategy",
                        "returnParams": [
                            {
                                "name": "shares",
                                "type": "uint256",
                                "value": "533,397,863,924,587,484"
                            }
                        ],
                        "signature": "depositIntoStrategy(address,address,uint256)"
                    },
                    "errorInfo": "",
                    "fromAddress": "0x96e1ddde9f672127f9d0caf017911861ff08f475",
                    "gasUsed": 233061,
                    "id": 0,
                    "methodDecoded": true,
                    "operation": "CALL",
                    "output": "0x00000000000000000000000000000000000000000000000007670287fb2d5bdc",
                    "revert": false,
                    "revertMessage": "",
                    "selector": "0xe7a050aa",
                    "status": true,
                    "value": "0"
                },
                "nodeType": 0
            },
            "1": {
                "invocation": {
                    "address": "0x5d25eef8cfedaa47d31fe2346726de1c21e342fb",
                    "callData": "0x00000000000000000000000093c4b944d05dfe6df7645a86cd2206016c51564d000000000000000000000000ae7ab96520de3a18e5e111b5eaab095312d7fe84000000000000000000000000000000000000000000000000076cb3aa5ad58000",
                    "decodedMethod": {
                        "callParams": [
                            {
                                "name": "strategy",
                                "type": "address",
                                "value": "0x93c4b944d05dfe6df7645a86cd2206016c51564d"
                            },
                            {
                                "name": "token",
                                "type": "address",
                                "value": "0xae7ab96520de3a18e5e111b5eaab095312d7fe84"
                            },
                            {
                                "name": "amount",
                                "type": "uint256",
                                "value": "535,000,000,000,000,000"
                            }
                        ],
                        "constructorArguments": "",
                        "name": "depositIntoStrategy",
                        "returnParams": [
                            {
                                "name": "shares",
                                "type": "uint256",
                                "value": "533,397,863,924,587,484"
                            }
                        ],
                        "signature": "depositIntoStrategy(address,address,uint256)"
                    },
                    "errorInfo": "",
                    "fromAddress": "0x858646372cc42e1a627fce94aa7a7033e7cf075a",
                    "gasUsed": 206521,
                    "id": 1,
                    "methodDecoded": true,
                    "operation": "DELEGATECALL",
                    "output": "0x00000000000000000000000000000000000000000000000007670287fb2d5bdc",
                    "revert": false,
                    "revertMessage": "",
                    "selector": "0xe7a050aa",
                    "status": true,
                    "value": "0"
                },
                "nodeType": 0
            },
            "10": {
                "event": {
                    "contract": "0xae7ab96520de3a18e5e111b5eaab095312d7fe84",
                    "decodedLog": {
                        "name": "Approval",
                        "params": [
                            {
                                "name": "owner",
                                "type": "address",
                                "value": "0x96e1ddde9f672127f9d0caf017911861ff08f475"
                            },
                            {
                                "name": "spender",
                                "type": "address",
                                "value": "0x858646372cc42e1a627fce94aa7a7033e7cf075a"
                            },
                            {
                                "decimalAvailable": true,
                                "name": "value",
                                "type": "uint256",
                                "value": "10,695,865,781,272,285"
                            }
                        ],
                        "signature": "Approval(address,address,uint256)"
                    },
                    "id": 10,
                    "logData": "0x0000000000000000000000000000000000000000000000000025ffd550753edd",
                    "logDecoded": true,
                    "operation": "EVENT",
                    "revert": false,
                    "status": true,
                    "topics": [
                        "0x8c5be1e5ebec7d5bd14f71427d1e84f3dd0314c0f7b2291e5b200ac8c7c3b925",
                        "0x00000000000000000000000096e1ddde9f672127f9d0caf017911861ff08f475",
                        "0x000000000000000000000000858646372cc42e1a627fce94aa7a7033e7cf075a"
                    ]
                },
                "nodeType": 1
            },
            "11": {
                "event": {
                    "contract": "0xae7ab96520de3a18e5e111b5eaab095312d7fe84",
                    "decodedLog": {
                        "name": "Transfer",
                        "params": [
                            {
                                "name": "from",
                                "type": "address",
                                "value": "0x96e1ddde9f672127f9d0caf017911861ff08f475"
                            },
                            {
                                "name": "to",
                                "type": "address",
                                "value": "0x93c4b944d05dfe6df7645a86cd2206016c51564d"
                            },
                            {
                                "decimalAvailable": true,
                                "name": "value",
                                "type": "uint256",
                                "value": "535,000,000,000,000,000"
                            }
                        ],
                        "signature": "Transfer(address,address,uint256)"
                    },
                    "id": 11,
                    "logData": "0x000000000000000000000000000000000000000000000000076cb3aa5ad58000",
                    "logDecoded": true,
                    "operation": "EVENT",
                    "revert": false,
                    "status": true,
                    "topics": [
                        "0xddf252ad1be2c89b69c2b068fc378daa952ba7f163c4a11628f55a4df523b3ef",
                        "0x00000000000000000000000096e1ddde9f672127f9d0caf017911861ff08f475",
                        "0x00000000000000000000000093c4b944d05dfe6df7645a86cd2206016c51564d"
                    ]
                },
                "nodeType": 1
            },
            "12": {
                "event": {
                    "contract": "0xae7ab96520de3a18e5e111b5eaab095312d7fe84",
                    "decodedLog": {
                        "name": "TransferShares",
                        "params": [
                            {
                                "name": "from",
                                "type": "address",
                                "value": "0x96e1ddde9f672127f9d0caf017911861ff08f475"
                            },
                            {
                                "name": "to",
                                "type": "address",
                                "value": "0x93c4b944d05dfe6df7645a86cd2206016c51564d"
                            },
                            {
                                "name": "sharesValue",
                                "type": "uint256",
                                "value": "472,711,120,857,947,626"
                            }
                        ],
                        "signature": "TransferShares(address,address,uint256)"
                    },
                    "id": 12,
                    "logData": "0x000000000000000000000000000000000000000000000000068f6842881d5dea",
                    "logDecoded": true,
                    "operation": "EVENT",
                    "revert": false,
                    "status": true,
                    "topics": [
                        "0x9d9c909296d9c674451c0c24f02cb64981eb3b727f99865939192f880a755dcb",
                        "0x00000000000000000000000096e1ddde9f672127f9d0caf017911861ff08f475",
                        "0x00000000000000000000000093c4b944d05dfe6df7645a86cd2206016c51564d"
                    ]
                },
                "nodeType": 1
            },
            "13": {
                "invocation": {
                    "address": "0x93c4b944d05dfe6df7645a86cd2206016c51564d",
                    "callData": "0x000000000000000000000000ae7ab96520de3a18e5e111b5eaab095312d7fe84000000000000000000000000000000000000000000000000076cb3aa5ad58000",
                    "decodedMethod": {
                        "callParams": [
                            {
                                "name": "token",
                                "type": "address",
                                "value": "0xae7ab96520de3a18e5e111b5eaab095312d7fe84"
                            },
                            {
                                "name": "amount",
                                "type": "uint256",
                                "value": "535,000,000,000,000,000"
                            }
                        ],
                        "constructorArguments": "",
                        "name": "deposit",
                        "returnParams": [
                            {
                                "name": "newShares",
                                "type": "uint256",
                                "value": "533,397,863,924,587,484"
                            }
                        ],
                        "signature": "deposit(address,uint256)"
                    },
                    "errorInfo": "",
                    "fromAddress": "0x858646372cc42e1a627fce94aa7a7033e7cf075a",
                    "gasUsed": 35844,
                    "id": 13,
                    "methodDecoded": true,
                    "operation": "CALL",
                    "output": "0x00000000000000000000000000000000000000000000000007670287fb2d5bdc",
                    "revert": false,
                    "revertMessage": "",
                    "selector": "0x47e7ef24",
                    "status": true,
                    "value": "0"
                },
                "nodeType": 0
            },
            "14": {
                "invocation": {
                    "address": "0xdfda04f980be6a64e3607c95ca26012ab9aa46d3",
                    "callData": "0x000000000000000000000000ae7ab96520de3a18e5e111b5eaab095312d7fe84000000000000000000000000000000000000000000000000076cb3aa5ad58000",
                    "decodedMethod": {
                        "callParams": [
                            {
                                "name": "token",
                                "type": "address",
                                "value": "0xae7ab96520de3a18e5e111b5eaab095312d7fe84"
                            },
                            {
                                "name": "amount",
                                "type": "uint256",
                                "value": "535,000,000,000,000,000"
                            }
                        ],
                        "constructorArguments": "",
                        "name": "deposit",
                        "returnParams": [
                            {
                                "name": "newShares",
                                "type": "uint256",
                                "value": "533,397,863,924,587,484"
                            }
                        ],
                        "signature": "deposit(address,uint256)"
                    },
                    "errorInfo": "",
                    "fromAddress": "0x93c4b944d05dfe6df7645a86cd2206016c51564d",
                    "gasUsed": 28522,
                    "id": 14,
                    "methodDecoded": true,
                    "operation": "DELEGATECALL",
                    "output": "0x00000000000000000000000000000000000000000000000007670287fb2d5bdc",
                    "revert": false,
                    "revertMessage": "",
                    "selector": "0x47e7ef24",
                    "status": true,
                    "value": "0"
                },
                "nodeType": 0
            },
            "15": {
                "invocation": {
                    "address": "0xae7ab96520de3a18e5e111b5eaab095312d7fe84",
                    "callData": "0x00000000000000000000000093c4b944d05dfe6df7645a86cd2206016c51564d",
                    "decodedMethod": {
                        "callParams": [
                            {
                                "name": "account",
                                "type": "address",
                                "value": "0x93c4b944d05dfe6df7645a86cd2206016c51564d"
                            }
                        ],
                        "constructorArguments": "",
                        "name": "balanceOf",
                        "returnParams": [
                            {
                                "decimalAvailable": true,
                                "name": "",
                                "type": "uint256",
                                "value": "10,346,869,959,718,172,039,875"
                            }
                        ],
                        "signature": "balanceOf(address)"
                    },
                    "errorInfo": "",
                    "fromAddress": "0x93c4b944d05dfe6df7645a86cd2206016c51564d",
                    "gasUsed": 6468,
                    "id": 15,
                    "methodDecoded": true,
                    "operation": "STATICCALL",
                    "output": "0x000000000000000000000000000000000000000000000230e7aa704c11f31ac3",
                    "revert": false,
                    "revertMessage": "",
                    "selector": "0x70a08231",
                    "status": true,
                    "value": "0"
                },
                "nodeType": 0
            },
            "16": {
                "invocation": {
                    "address": "0xb8ffc3cd6e7cf5a098a1c92f48009765b24088dc",
                    "callData": "0xf1f3eb40f5bc1ad1344716ced8b8a0431d840b5783aea1fd01786bc26f35ac0f3ca7c3e38968823ccb4c78ea688df41356f182ae1d159e4ee608d30d68cef320",
                    "decodedMethod": {
                        "callParams": [
                            {
                                "name": "_namespace",
                                "type": "bytes32",
                                "value": "0xf1f3eb40f5bc1ad1344716ced8b8a0431d840b5783aea1fd01786bc26f35ac0f"
                            },
                            {
                                "name": "_appId",
                                "type": "bytes32",
                                "value": "0x3ca7c3e38968823ccb4c78ea688df41356f182ae1d159e4ee608d30d68cef320"
                            }
                        ],
                        "constructorArguments": "",
                        "name": "getApp",
                        "returnParams": [
                            {
                                "name": "",
                                "type": "address",
                                "value": "0x17144556fd3424edc8fc8a4c940b2d04936d17eb"
                            }
                        ],
                        "signature": "getApp(bytes32,bytes32)"
                    },
                    "errorInfo": "",
                    "fromAddress": "0xae7ab96520de3a18e5e111b5eaab095312d7fe84",
                    "gasUsed": 1763,
                    "id": 16,
                    "methodDecoded": true,
                    "operation": "CALL",
                    "output": "0x00000000000000000000000017144556fd3424edc8fc8a4c940b2d04936d17eb",
                    "revert": false,
                    "revertMessage": "",
                    "selector": "0xbe00bbd8",
                    "status": true,
                    "value": "0"
                },
                "nodeType": 0
            },
            "17": {
                "invocation": {
                    "address": "0x2b33cf282f867a7ff693a66e11b0fcc5552e4425",
                    "callData": "0xf1f3eb40f5bc1ad1344716ced8b8a0431d840b5783aea1fd01786bc26f35ac0f3ca7c3e38968823ccb4c78ea688df41356f182ae1d159e4ee608d30d68cef320",
                    "decodedMethod": {
                        "callParams": [
                            {
                                "name": "_namespace",
                                "type": "bytes32",
                                "value": "0xf1f3eb40f5bc1ad1344716ced8b8a0431d840b5783aea1fd01786bc26f35ac0f"
                            },
                            {
                                "name": "_appId",
                                "type": "bytes32",
                                "value": "0x3ca7c3e38968823ccb4c78ea688df41356f182ae1d159e4ee608d30d68cef320"
                            }
                        ],
                        "constructorArguments": "",
                        "name": "getApp",
                        "returnParams": [
                            {
                                "name": "",
                                "type": "address",
                                "value": "0x17144556fd3424edc8fc8a4c940b2d04936d17eb"
                            }
                        ],
                        "signature": "getApp(bytes32,bytes32)"
                    },
                    "errorInfo": "",
                    "fromAddress": "0xb8ffc3cd6e7cf5a098a1c92f48009765b24088dc",
                    "gasUsed": 820,
                    "id": 17,
                    "methodDecoded": true,
                    "operation": "DELEGATECALL",
                    "output": "0x00000000000000000000000017144556fd3424edc8fc8a4c940b2d04936d17eb",
                    "revert": false,
                    "revertMessage": "",
                    "selector": "0xbe00bbd8",
                    "status": true,
                    "value": "0"
                },
                "nodeType": 0
            },
            "18": {
                "invocation": {
                    "address": "0x17144556fd3424edc8fc8a4c940b2d04936d17eb",
                    "callData": "0x00000000000000000000000093c4b944d05dfe6df7645a86cd2206016c51564d",
                    "decodedMethod": {
                        "callParams": [
                            {
                                "name": "_account",
                                "type": "address",
                                "value": "0x93c4b944d05dfe6df7645a86cd2206016c51564d"
                            }
                        ],
                        "constructorArguments": "",
                        "name": "balanceOf",
                        "returnParams": [
                            {
                                "decimalAvailable": true,
                                "name": "",
                                "type": "uint256",
                                "value": "10,346,869,959,718,172,039,875"
                            }
                        ],
                        "signature": "balanceOf(address)"
                    },
                    "errorInfo": "",
                    "fromAddress": "0xae7ab96520de3a18e5e111b5eaab095312d7fe84",
                    "gasUsed": 3088,
                    "id": 18,
                    "methodDecoded": true,
                    "operation": "DELEGATECALL",
                    "output": "0x000000000000000000000000000000000000000000000230e7aa704c11f31ac3",
                    "revert": false,
                    "revertMessage": "",
                    "selector": "0x70a08231",
                    "status": true,
                    "value": "0"
                },
                "nodeType": 0
            },
            "19": {
                "invocation": {
                    "address": "0xae7ab96520de3a18e5e111b5eaab095312d7fe84",
                    "callData": "0x00000000000000000000000093c4b944d05dfe6df7645a86cd2206016c51564d",
                    "decodedMethod": {
                        "callParams": [
                            {
                                "name": "account",
                                "type": "address",
                                "value": "0x93c4b944d05dfe6df7645a86cd2206016c51564d"
                            }
                        ],
                        "constructorArguments": "",
                        "name": "balanceOf",
                        "returnParams": [
                            {
                                "decimalAvailable": true,
                                "name": "",
                                "type": "uint256",
                                "value": "10,346,869,959,718,172,039,875"
                            }
                        ],
                        "signature": "balanceOf(address)"
                    },
                    "errorInfo": "",
                    "fromAddress": "0x93c4b944d05dfe6df7645a86cd2206016c51564d",
                    "gasUsed": 6468,
                    "id": 19,
                    "methodDecoded": true,
                    "operation": "STATICCALL",
                    "output": "0x000000000000000000000000000000000000000000000230e7aa704c11f31ac3",
                    "revert": false,
                    "revertMessage": "",
                    "selector": "0x70a08231",
                    "status": true,
                    "value": "0"
                },
                "nodeType": 0
            },
            "2": {
                "invocation": {
                    "address": "0xd92145c07f8ed1d392c1b88017934e301cc1c3cd",
                    "callData": "0x00000000000000000000000096e1ddde9f672127f9d0caf017911861ff08f475",
                    "decodedMethod": {
                        "callParams": [
                            {
                                "name": "staker",
                                "type": "address",
                                "value": "0x96e1ddde9f672127f9d0caf017911861ff08f475"
                            }
                        ],
                        "constructorArguments": "",
                        "name": "isFrozen",
                        "returnParams": [
                            {
                                "name": "",
                                "type": "bool",
                                "value": false
                            }
                        ],
                        "signature": "isFrozen(address)"
                    },
                    "errorInfo": "",
                    "fromAddress": "0x858646372cc42e1a627fce94aa7a7033e7cf075a",
                    "gasUsed": 22795,
                    "id": 2,
                    "methodDecoded": true,
                    "operation": "STATICCALL",
                    "output": "0x0000000000000000000000000000000000000000000000000000000000000000",
                    "revert": false,
                    "revertMessage": "",
                    "selector": "0xe5839836",
                    "status": true,
                    "value": "0"
                },
                "nodeType": 0
            },
            "20": {
                "invocation": {
                    "address": "0xb8ffc3cd6e7cf5a098a1c92f48009765b24088dc",
                    "callData": "0xf1f3eb40f5bc1ad1344716ced8b8a0431d840b5783aea1fd01786bc26f35ac0f3ca7c3e38968823ccb4c78ea688df41356f182ae1d159e4ee608d30d68cef320",
                    "decodedMethod": {
                        "callParams": [
                            {
                                "name": "_namespace",
                                "type": "bytes32",
                                "value": "0xf1f3eb40f5bc1ad1344716ced8b8a0431d840b5783aea1fd01786bc26f35ac0f"
                            },
                            {
                                "name": "_appId",
                                "type": "bytes32",
                                "value": "0x3ca7c3e38968823ccb4c78ea688df41356f182ae1d159e4ee608d30d68cef320"
                            }
                        ],
                        "constructorArguments": "",
                        "name": "getApp",
                        "returnParams": [
                            {
                                "name": "",
                                "type": "address",
                                "value": "0x17144556fd3424edc8fc8a4c940b2d04936d17eb"
                            }
                        ],
                        "signature": "getApp(bytes32,bytes32)"
                    },
                    "errorInfo": "",
                    "fromAddress": "0xae7ab96520de3a18e5e111b5eaab095312d7fe84",
                    "gasUsed": 1763,
                    "id": 20,
                    "methodDecoded": true,
                    "operation": "CALL",
                    "output": "0x00000000000000000000000017144556fd3424edc8fc8a4c940b2d04936d17eb",
                    "revert": false,
                    "revertMessage": "",
                    "selector": "0xbe00bbd8",
                    "status": true,
                    "value": "0"
                },
                "nodeType": 0
            },
            "21": {
                "invocation": {
                    "address": "0x2b33cf282f867a7ff693a66e11b0fcc5552e4425",
                    "callData": "0xf1f3eb40f5bc1ad1344716ced8b8a0431d840b5783aea1fd01786bc26f35ac0f3ca7c3e38968823ccb4c78ea688df41356f182ae1d159e4ee608d30d68cef320",
                    "decodedMethod": {
                        "callParams": [
                            {
                                "name": "_namespace",
                                "type": "bytes32",
                                "value": "0xf1f3eb40f5bc1ad1344716ced8b8a0431d840b5783aea1fd01786bc26f35ac0f"
                            },
                            {
                                "name": "_appId",
                                "type": "bytes32",
                                "value": "0x3ca7c3e38968823ccb4c78ea688df41356f182ae1d159e4ee608d30d68cef320"
                            }
                        ],
                        "constructorArguments": "",
                        "name": "getApp",
                        "returnParams": [
                            {
                                "name": "",
                                "type": "address",
                                "value": "0x17144556fd3424edc8fc8a4c940b2d04936d17eb"
                            }
                        ],
                        "signature": "getApp(bytes32,bytes32)"
                    },
                    "errorInfo": "",
                    "fromAddress": "0xb8ffc3cd6e7cf5a098a1c92f48009765b24088dc",
                    "gasUsed": 820,
                    "id": 21,
                    "methodDecoded": true,
                    "operation": "DELEGATECALL",
                    "output": "0x00000000000000000000000017144556fd3424edc8fc8a4c940b2d04936d17eb",
                    "revert": false,
                    "revertMessage": "",
                    "selector": "0xbe00bbd8",
                    "status": true,
                    "value": "0"
                },
                "nodeType": 0
            },
            "22": {
                "invocation": {
                    "address": "0x17144556fd3424edc8fc8a4c940b2d04936d17eb",
                    "callData": "0x00000000000000000000000093c4b944d05dfe6df7645a86cd2206016c51564d",
                    "decodedMethod": {
                        "callParams": [
                            {
                                "name": "_account",
                                "type": "address",
                                "value": "0x93c4b944d05dfe6df7645a86cd2206016c51564d"
                            }
                        ],
                        "constructorArguments": "",
                        "name": "balanceOf",
                        "returnParams": [
                            {
                                "decimalAvailable": true,
                                "name": "",
                                "type": "uint256",
                                "value": "10,346,869,959,718,172,039,875"
                            }
                        ],
                        "signature": "balanceOf(address)"
                    },
                    "errorInfo": "",
                    "fromAddress": "0xae7ab96520de3a18e5e111b5eaab095312d7fe84",
                    "gasUsed": 3088,
                    "id": 22,
                    "methodDecoded": true,
                    "operation": "DELEGATECALL",
                    "output": "0x000000000000000000000000000000000000000000000230e7aa704c11f31ac3",
                    "revert": false,
                    "revertMessage": "",
                    "selector": "0x70a08231",
                    "status": true,
                    "value": "0"
                },
                "nodeType": 0
            },
            "23": {
                "invocation": {
                    "address": "0x39053d51b77dc0d36036fc1fcc8cb819df8ef37a",
                    "callData": "0x00000000000000000000000096e1ddde9f672127f9d0caf017911861ff08f47500000000000000000000000093c4b944d05dfe6df7645a86cd2206016c51564d00000000000000000000000000000000000000000000000007670287fb2d5bdc",
                    "decodedMethod": {
                        "callParams": [
                            {
                                "name": "staker",
                                "type": "address",
                                "value": "0x96e1ddde9f672127f9d0caf017911861ff08f475"
                            },
                            {
                                "name": "strategy",
                                "type": "address",
                                "value": "0x93c4b944d05dfe6df7645a86cd2206016c51564d"
                            },
                            {
                                "name": "shares",
                                "type": "uint256",
                                "value": "533,397,863,924,587,484"
                            }
                        ],
                        "constructorArguments": "",
                        "name": "increaseDelegatedShares",
                        "returnParams": [],
                        "signature": "increaseDelegatedShares(address,address,uint256)"
                    },
                    "errorInfo": "",
                    "fromAddress": "0x858646372cc42e1a627fce94aa7a7033e7cf075a",
                    "gasUsed": 1590,
                    "id": 23,
                    "methodDecoded": true,
                    "operation": "CALL",
                    "output": "",
                    "revert": false,
                    "revertMessage": "",
                    "selector": "0x28a573ae",
                    "status": true,
                    "value": "0"
                },
                "nodeType": 0
            },
            "24": {
                "invocation": {
                    "address": "0xf97e97649da958d290e84e6d571c32f4b7f475e4",
                    "callData": "0x00000000000000000000000096e1ddde9f672127f9d0caf017911861ff08f47500000000000000000000000093c4b944d05dfe6df7645a86cd2206016c51564d00000000000000000000000000000000000000000000000007670287fb2d5bdc",
                    "decodedMethod": {
                        "callParams": [
                            {
                                "name": "staker",
                                "type": "address",
                                "value": "0x96e1ddde9f672127f9d0caf017911861ff08f475"
                            },
                            {
                                "name": "strategy",
                                "type": "address",
                                "value": "0x93c4b944d05dfe6df7645a86cd2206016c51564d"
                            },
                            {
                                "name": "shares",
                                "type": "uint256",
                                "value": "533,397,863,924,587,484"
                            }
                        ],
                        "constructorArguments": "",
                        "name": "increaseDelegatedShares",
                        "returnParams": [],
                        "signature": "increaseDelegatedShares(address,address,uint256)"
                    },
                    "errorInfo": "",
                    "fromAddress": "0x39053d51b77dc0d36036fc1fcc8cb819df8ef37a",
                    "gasUsed": 765,
                    "id": 24,
                    "methodDecoded": true,
                    "operation": "DELEGATECALL",
                    "output": "",
                    "revert": false,
                    "revertMessage": "",
                    "selector": "0x28a573ae",
                    "status": true,
                    "value": "0"
                },
                "nodeType": 0
            },
            "25": {
                "event": {
                    "contract": "0x858646372cc42e1a627fce94aa7a7033e7cf075a",
                    "decodedLog": {
                        "name": "Deposit",
                        "params": [
                            {
                                "name": "staker",
                                "type": "address",
                                "value": "0x96e1ddde9f672127f9d0caf017911861ff08f475"
                            },
                            {
                                "name": "token",
                                "type": "address",
                                "value": "0xae7ab96520de3a18e5e111b5eaab095312d7fe84"
                            },
                            {
                                "name": "strategy",
                                "type": "address",
                                "value": "0x93c4b944d05dfe6df7645a86cd2206016c51564d"
                            },
                            {
                                "name": "shares",
                                "type": "uint256",
                                "value": "533,397,863,924,587,484"
                            }
                        ],
                        "signature": "Deposit(address,address,address,uint256)"
                    },
                    "id": 25,
                    "logData": "0x00000000000000000000000096e1ddde9f672127f9d0caf017911861ff08f475000000000000000000000000ae7ab96520de3a18e5e111b5eaab095312d7fe8400000000000000000000000093c4b944d05dfe6df7645a86cd2206016c51564d00000000000000000000000000000000000000000000000007670287fb2d5bdc",
                    "logDecoded": true,
                    "operation": "EVENT",
                    "revert": false,
                    "status": true,
                    "topics": [
                        "0x7cfff908a4b583f36430b25d75964c458d8ede8a99bd61be750e97ee1b2f3a96"
                    ]
                },
                "nodeType": 1
            },
            "3": {
                "invocation": {
                    "address": "0xef31c292801f24f16479dd83197f1e6aebb8d6d8",
                    "callData": "0x00000000000000000000000096e1ddde9f672127f9d0caf017911861ff08f475",
                    "decodedMethod": {
                        "callParams": [
                            {
                                "name": "staker",
                                "type": "address",
                                "value": "0x96e1ddde9f672127f9d0caf017911861ff08f475"
                            }
                        ],
                        "constructorArguments": "",
                        "name": "isFrozen",
                        "returnParams": [
                            {
                                "name": "",
                                "type": "bool",
                                "value": false
                            }
                        ],
                        "signature": "isFrozen(address)"
                    },
                    "errorInfo": "",
                    "fromAddress": "0xd92145c07f8ed1d392c1b88017934e301cc1c3cd",
                    "gasUsed": 15476,
                    "id": 3,
                    "methodDecoded": true,
                    "operation": "DELEGATECALL",
                    "output": "0x0000000000000000000000000000000000000000000000000000000000000000",
                    "revert": false,
                    "revertMessage": "",
                    "selector": "0xe5839836",
                    "status": true,
                    "value": "0"
                },
                "nodeType": 0
            },
            "4": {
                "invocation": {
                    "address": "0x39053d51b77dc0d36036fc1fcc8cb819df8ef37a",
                    "callData": "0x00000000000000000000000096e1ddde9f672127f9d0caf017911861ff08f475",
                    "decodedMethod": {
                        "callParams": [
                            {
                                "name": "staker",
                                "type": "address",
                                "value": "0x96e1ddde9f672127f9d0caf017911861ff08f475"
                            }
                        ],
                        "constructorArguments": "",
                        "name": "isDelegated",
                        "returnParams": [
                            {
                                "name": "",
                                "type": "bool",
                                "value": false
                            }
                        ],
                        "signature": "isDelegated(address)"
                    },
                    "errorInfo": "",
                    "fromAddress": "0xd92145c07f8ed1d392c1b88017934e301cc1c3cd",
                    "gasUsed": 9928,
                    "id": 4,
                    "methodDecoded": true,
                    "operation": "STATICCALL",
                    "output": "0x0000000000000000000000000000000000000000000000000000000000000000",
                    "revert": false,
                    "revertMessage": "",
                    "selector": "0x3e28391d",
                    "status": true,
                    "value": "0"
                },
                "nodeType": 0
            },
            "5": {
                "invocation": {
                    "address": "0xf97e97649da958d290e84e6d571c32f4b7f475e4",
                    "callData": "0x00000000000000000000000096e1ddde9f672127f9d0caf017911861ff08f475",
                    "decodedMethod": {
                        "callParams": [
                            {
                                "name": "staker",
                                "type": "address",
                                "value": "0x96e1ddde9f672127f9d0caf017911861ff08f475"
                            }
                        ],
                        "constructorArguments": "",
                        "name": "isDelegated",
                        "returnParams": [
                            {
                                "name": "",
                                "type": "bool",
                                "value": false
                            }
                        ],
                        "signature": "isDelegated(address)"
                    },
                    "errorInfo": "",
                    "fromAddress": "0x39053d51b77dc0d36036fc1fcc8cb819df8ef37a",
                    "gasUsed": 2609,
                    "id": 5,
                    "methodDecoded": true,
                    "operation": "DELEGATECALL",
                    "output": "0x0000000000000000000000000000000000000000000000000000000000000000",
                    "revert": false,
                    "revertMessage": "",
                    "selector": "0x3e28391d",
                    "status": true,
                    "value": "0"
                },
                "nodeType": 0
            },
            "6": {
                "invocation": {
                    "address": "0xae7ab96520de3a18e5e111b5eaab095312d7fe84",
                    "callData": "0x00000000000000000000000096e1ddde9f672127f9d0caf017911861ff08f47500000000000000000000000093c4b944d05dfe6df7645a86cd2206016c51564d000000000000000000000000000000000000000000000000076cb3aa5ad58000",
                    "decodedMethod": {
                        "callParams": [
                            {
                                "name": "sender",
                                "type": "address",
                                "value": "0x96e1ddde9f672127f9d0caf017911861ff08f475"
                            },
                            {
                                "name": "recipient",
                                "type": "address",
                                "value": "0x93c4b944d05dfe6df7645a86cd2206016c51564d"
                            },
                            {
                                "decimalAvailable": true,
                                "name": "amount",
                                "type": "uint256",
                                "value": "535,000,000,000,000,000"
                            }
                        ],
                        "constructorArguments": "",
                        "name": "transferFrom",
                        "returnParams": [
                            {
                                "name": "",
                                "type": "bool",
                                "value": true
                            }
                        ],
                        "signature": "transferFrom(address,address,uint256)"
                    },
                    "errorInfo": "",
                    "fromAddress": "0x858646372cc42e1a627fce94aa7a7033e7cf075a",
                    "gasUsed": 56309,
                    "id": 6,
                    "methodDecoded": true,
                    "operation": "CALL",
                    "output": "0x0000000000000000000000000000000000000000000000000000000000000001",
                    "revert": false,
                    "revertMessage": "",
                    "selector": "0x23b872dd",
                    "status": true,
                    "value": "0"
                },
                "nodeType": 0
            },
            "7": {
                "invocation": {
                    "address": "0xb8ffc3cd6e7cf5a098a1c92f48009765b24088dc",
                    "callData": "0xf1f3eb40f5bc1ad1344716ced8b8a0431d840b5783aea1fd01786bc26f35ac0f3ca7c3e38968823ccb4c78ea688df41356f182ae1d159e4ee608d30d68cef320",
                    "decodedMethod": {
                        "callParams": [
                            {
                                "name": "_namespace",
                                "type": "bytes32",
                                "value": "0xf1f3eb40f5bc1ad1344716ced8b8a0431d840b5783aea1fd01786bc26f35ac0f"
                            },
                            {
                                "name": "_appId",
                                "type": "bytes32",
                                "value": "0x3ca7c3e38968823ccb4c78ea688df41356f182ae1d159e4ee608d30d68cef320"
                            }
                        ],
                        "constructorArguments": "",
                        "name": "getApp",
                        "returnParams": [
                            {
                                "name": "",
                                "type": "address",
                                "value": "0x17144556fd3424edc8fc8a4c940b2d04936d17eb"
                            }
                        ],
                        "signature": "getApp(bytes32,bytes32)"
                    },
                    "errorInfo": "",
                    "fromAddress": "0xae7ab96520de3a18e5e111b5eaab095312d7fe84",
                    "gasUsed": 8263,
                    "id": 7,
                    "methodDecoded": true,
                    "operation": "CALL",
                    "output": "0x00000000000000000000000017144556fd3424edc8fc8a4c940b2d04936d17eb",
                    "revert": false,
                    "revertMessage": "",
                    "selector": "0xbe00bbd8",
                    "status": true,
                    "value": "0"
                },
                "nodeType": 0
            },
            "8": {
                "invocation": {
                    "address": "0x2b33cf282f867a7ff693a66e11b0fcc5552e4425",
                    "callData": "0xf1f3eb40f5bc1ad1344716ced8b8a0431d840b5783aea1fd01786bc26f35ac0f3ca7c3e38968823ccb4c78ea688df41356f182ae1d159e4ee608d30d68cef320",
                    "decodedMethod": {
                        "callParams": [
                            {
                                "name": "_namespace",
                                "type": "bytes32",
                                "value": "0xf1f3eb40f5bc1ad1344716ced8b8a0431d840b5783aea1fd01786bc26f35ac0f"
                            },
                            {
                                "name": "_appId",
                                "type": "bytes32",
                                "value": "0x3ca7c3e38968823ccb4c78ea688df41356f182ae1d159e4ee608d30d68cef320"
                            }
                        ],
                        "constructorArguments": "",
                        "name": "getApp",
                        "returnParams": [
                            {
                                "name": "",
                                "type": "address",
                                "value": "0x17144556fd3424edc8fc8a4c940b2d04936d17eb"
                            }
                        ],
                        "signature": "getApp(bytes32,bytes32)"
                    },
                    "errorInfo": "",
                    "fromAddress": "0xb8ffc3cd6e7cf5a098a1c92f48009765b24088dc",
                    "gasUsed": 2820,
                    "id": 8,
                    "methodDecoded": true,
                    "operation": "DELEGATECALL",
                    "output": "0x00000000000000000000000017144556fd3424edc8fc8a4c940b2d04936d17eb",
                    "revert": false,
                    "revertMessage": "",
                    "selector": "0xbe00bbd8",
                    "status": true,
                    "value": "0"
                },
                "nodeType": 0
            },
            "9": {
                "invocation": {
                    "address": "0x17144556fd3424edc8fc8a4c940b2d04936d17eb",
                    "callData": "0x00000000000000000000000096e1ddde9f672127f9d0caf017911861ff08f47500000000000000000000000093c4b944d05dfe6df7645a86cd2206016c51564d000000000000000000000000000000000000000000000000076cb3aa5ad58000",
                    "decodedMethod": {
                        "callParams": [
                            {
                                "name": "_sender",
                                "type": "address",
                                "value": "0x96e1ddde9f672127f9d0caf017911861ff08f475"
                            },
                            {
                                "name": "_recipient",
                                "type": "address",
                                "value": "0x93c4b944d05dfe6df7645a86cd2206016c51564d"
                            },
                            {
                                "decimalAvailable": true,
                                "name": "_amount",
                                "type": "uint256",
                                "value": "535,000,000,000,000,000"
                            }
                        ],
                        "constructorArguments": "",
                        "name": "transferFrom",
                        "returnParams": [
                            {
                                "name": "",
                                "type": "bool",
                                "value": true
                            }
                        ],
                        "signature": "transferFrom(address,address,uint256)"
                    },
                    "errorInfo": "",
                    "fromAddress": "0xae7ab96520de3a18e5e111b5eaab095312d7fe84",
                    "gasUsed": 37417,
                    "id": 9,
                    "methodDecoded": true,
                    "operation": "DELEGATECALL",
                    "output": "0x0000000000000000000000000000000000000000000000000000000000000001",
                    "revert": false,
                    "revertMessage": "",
                    "selector": "0x23b872dd",
                    "status": true,
                    "value": "0"
                },
                "nodeType": 0
            }
        },
        "gasFlame": [
            {
                "children": [
                    {
                        "children": [
                            {
                                "children": [],
                                "depth": 0,
                                "name": "Initial Gas",
                                "value": 22012
                            },
                            {
                                "children": [
                                    {
                                        "children": [
                                            {
                                                "children": [
                                                    {
                                                        "children": [
                                                            {
                                                                "children": [
                                                                    {
                                                                        "children": [],
                                                                        "depth": 5,
                                                                        "name": "isDelegated",
                                                                        "value": 2609
                                                                    }
                                                                ],
                                                                "depth": 4,
                                                                "name": "isDelegated",
                                                                "value": 9928
                                                            }
                                                        ],
                                                        "depth": 3,
                                                        "name": "isFrozen",
                                                        "value": 15476
                                                    }
                                                ],
                                                "depth": 2,
                                                "name": "isFrozen",
                                                "value": 22795
                                            },
                                            {
                                                "children": [
                                                    {
                                                        "children": [
                                                            {
                                                                "children": [],
                                                                "depth": 4,
                                                                "name": "getApp",
                                                                "value": 2820
                                                            }
                                                        ],
                                                        "depth": 3,
                                                        "name": "getApp",
                                                        "value": 8263
                                                    },
                                                    {
                                                        "children": [],
                                                        "depth": 3,
                                                        "name": "transferFrom",
                                                        "value": 37417
                                                    }
                                                ],
                                                "depth": 2,
                                                "name": "transferFrom",
                                                "value": 56309
                                            },
                                            {
                                                "children": [
                                                    {
                                                        "children": [
                                                            {
                                                                "children": [
                                                                    {
                                                                        "children": [
                                                                            {
                                                                                "children": [],
                                                                                "depth": 6,
                                                                                "name": "getApp",
                                                                                "value": 820
                                                                            }
                                                                        ],
                                                                        "depth": 5,
                                                                        "name": "getApp",
                                                                        "value": 1763
                                                                    },
                                                                    {
                                                                        "children": [],
                                                                        "depth": 5,
                                                                        "name": "balanceOf",
                                                                        "value": 3088
                                                                    }
                                                                ],
                                                                "depth": 4,
                                                                "name": "balanceOf",
                                                                "value": 6468
                                                            },
                                                            {
                                                                "children": [
                                                                    {
                                                                        "children": [
                                                                            {
                                                                                "children": [],
                                                                                "depth": 6,
                                                                                "name": "getApp",
                                                                                "value": 820
                                                                            }
                                                                        ],
                                                                        "depth": 5,
                                                                        "name": "getApp",
                                                                        "value": 1763
                                                                    },
                                                                    {
                                                                        "children": [],
                                                                        "depth": 5,
                                                                        "name": "balanceOf",
                                                                        "value": 3088
                                                                    }
                                                                ],
                                                                "depth": 4,
                                                                "name": "balanceOf",
                                                                "value": 6468
                                                            }
                                                        ],
                                                        "depth": 3,
                                                        "name": "deposit",
                                                        "value": 28522
                                                    }
                                                ],
                                                "depth": 2,
                                                "name": "deposit",
                                                "value": 35844
                                            },
                                            {
                                                "children": [
                                                    {
                                                        "children": [],
                                                        "depth": 3,
                                                        "name": "increaseDelegatedShares",
                                                        "value": 765
                                                    }
                                                ],
                                                "depth": 2,
                                                "name": "increaseDelegatedShares",
                                                "value": 1590
                                            }
                                        ],
                                        "depth": 1,
                                        "name": "depositIntoStrategy",
                                        "value": 206521
                                    }
                                ],
                                "depth": 0,
                                "name": "Executed Gas",
                                "value": 213849
                            }
                        ],
                        "depth": -1,
                        "name": "Actual Gas Used",
                        "value": 233061
                    },
                    {
                        "children": [],
                        "depth": -1,
                        "name": "Refunded Gas",
                        "value": 2800
                    }
                ],
                "depth": -2,
                "name": "Total Gas",
                "value": 235861
            }
        ],
        "isConfirmed": true,
        "mainTrace": [
            {
                "children": [
                    {
                        "children": [
                            {
                                "children": [
                                    {
                                        "children": [
                                            {
                                                "children": [
                                                    {
                                                        "children": [
                                                            {
                                                                "children": [],
                                                                "depth": 5,
                                                                "id": 5,
                                                                "order": 5
                                                            }
                                                        ],
                                                        "depth": 4,
                                                        "id": 4,
                                                        "order": 4
                                                    }
                                                ],
                                                "depth": 3,
                                                "id": 3,
                                                "order": 3
                                            }
                                        ],
                                        "depth": 2,
                                        "id": 2,
                                        "order": 2
                                    },
                                    {
                                        "children": [
                                            {
                                                "children": [
                                                    {
                                                        "children": [],
                                                        "depth": 4,
                                                        "id": 8,
                                                        "order": 8
                                                    }
                                                ],
                                                "depth": 3,
                                                "id": 7,
                                                "order": 7
                                            },
                                            {
                                                "children": [
                                                    {
                                                        "children": [],
                                                        "depth": 4,
                                                        "id": 10,
                                                        "order": 10
                                                    },
                                                    {
                                                        "children": [],
                                                        "depth": 4,
                                                        "id": 11,
                                                        "order": 11
                                                    },
                                                    {
                                                        "children": [],
                                                        "depth": 4,
                                                        "id": 12,
                                                        "order": 12
                                                    }
                                                ],
                                                "depth": 3,
                                                "id": 9,
                                                "order": 9
                                            }
                                        ],
                                        "depth": 2,
                                        "id": 6,
                                        "order": 6
                                    },
                                    {
                                        "children": [
                                            {
                                                "children": [
                                                    {
                                                        "children": [
                                                            {
                                                                "children": [
                                                                    {
                                                                        "children": [],
                                                                        "depth": 6,
                                                                        "id": 17,
                                                                        "order": 17
                                                                    }
                                                                ],
                                                                "depth": 5,
                                                                "id": 16,
                                                                "order": 16
                                                            },
                                                            {
                                                                "children": [],
                                                                "depth": 5,
                                                                "id": 18,
                                                                "order": 18
                                                            }
                                                        ],
                                                        "depth": 4,
                                                        "id": 15,
                                                        "order": 15
                                                    },
                                                    {
                                                        "children": [
                                                            {
                                                                "children": [
                                                                    {
                                                                        "children": [],
                                                                        "depth": 6,
                                                                        "id": 21,
                                                                        "order": 21
                                                                    }
                                                                ],
                                                                "depth": 5,
                                                                "id": 20,
                                                                "order": 20
                                                            },
                                                            {
                                                                "children": [],
                                                                "depth": 5,
                                                                "id": 22,
                                                                "order": 22
                                                            }
                                                        ],
                                                        "depth": 4,
                                                        "id": 19,
                                                        "order": 19
                                                    }
                                                ],
                                                "depth": 3,
                                                "id": 14,
                                                "order": 14
                                            }
                                        ],
                                        "depth": 2,
                                        "id": 13,
                                        "order": 13
                                    },
                                    {
                                        "children": [
                                            {
                                                "children": [],
                                                "depth": 3,
                                                "id": 24,
                                                "order": 24
                                            }
                                        ],
                                        "depth": 2,
                                        "id": 23,
                                        "order": 23
                                    },
                                    {
                                        "children": [],
                                        "depth": 2,
                                        "id": 25,
                                        "order": 25
                                    }
                                ],
                                "depth": 1,
                                "id": 1,
                                "order": 1
                            }
                        ],
                        "depth": 0,
                        "id": 0,
                        "order": 0
                    }
                ],
                "depth": -1,
                "id": -1,
                "order": -1
            }
        ],
        "mainTraceNodeCount": 26,
        "parentIdMap": {
            "0": -1,
            "1": 0,
            "10": 9,
            "11": 9,
            "12": 9,
            "13": 1,
            "14": 13,
            "15": 14,
            "16": 15,
            "17": 16,
            "18": 15,
            "19": 14,
            "2": 1,
            "20": 19,
            "21": 20,
            "22": 19,
            "23": 1,
            "24": 23,
            "25": 1,
            "3": 2,
            "4": 3,
            "5": 4,
            "6": 1,
            "7": 6,
            "8": 7,
            "9": 6
        },
        "tidyTrace": [
            {
                "children": [
                    {
                        "children": [
                            {
                                "children": [
                                    {
                                        "children": [
                                            {
                                                "children": [
                                                    {
                                                        "children": [],
                                                        "depth": 4,
                                                        "id": 8,
                                                        "order": 8
                                                    }
                                                ],
                                                "depth": 3,
                                                "id": 7,
                                                "order": 7
                                            },
                                            {
                                                "children": [
                                                    {
                                                        "children": [],
                                                        "depth": 4,
                                                        "id": 10,
                                                        "order": 10
                                                    },
                                                    {
                                                        "children": [],
                                                        "depth": 4,
                                                        "id": 11,
                                                        "order": 11
                                                    },
                                                    {
                                                        "children": [],
                                                        "depth": 4,
                                                        "id": 12,
                                                        "order": 12
                                                    }
                                                ],
                                                "depth": 3,
                                                "id": 9,
                                                "order": 9
                                            }
                                        ],
                                        "depth": 2,
                                        "id": 6,
                                        "order": 6
                                    },
                                    {
                                        "children": [
                                            {
                                                "children": [],
                                                "depth": 3,
                                                "id": 14,
                                                "order": 14
                                            }
                                        ],
                                        "depth": 2,
                                        "id": 13,
                                        "order": 13
                                    },
                                    {
                                        "children": [
                                            {
                                                "children": [],
                                                "depth": 3,
                                                "id": 24,
                                                "order": 24
                                            }
                                        ],
                                        "depth": 2,
                                        "id": 23,
                                        "order": 23
                                    },
                                    {
                                        "children": [],
                                        "depth": 2,
                                        "id": 25,
                                        "order": 25
                                    }
                                ],
                                "depth": 1,
                                "id": 1,
                                "order": 1
                            }
                        ],
                        "depth": 0,
                        "id": 0,
                        "order": 0
                    }
                ],
                "depth": -1,
                "id": -1,
                "order": -1
            }
        ],
        "tidyTraceNodeCount": 14
    },
    "state_change": {
        "stateChanges": [
            {
                "address": "0x858646372cc42e1a627fce94aa7a7033e7cf075a",
                "erc": "",
                "slots": [
                    {
                        "current": "0x0000000000000000000000000000000000000000000000000000000000000001",
                        "key": "0xdade5d81f656111a9e087352a67bdbca1022f69ff695e1008354440fb88866ca",
                        "prev": "0x0000000000000000000000000000000000000000000000000000000000000000"
                    },
                    {
                        "current": "0x00000000000000000000000093c4b944d05dfe6df7645a86cd2206016c51564d",
                        "key": "0xee397efd2f1007118e9a75efd4b17bb27b77ede8f78d494246852f73ca80a54f",
                        "prev": "0x0000000000000000000000000000000000000000000000000000000000000000"
                    },
                    {
                        "current": "0x00000000000000000000000000000000000000000000000007670287fb2d5bdc",
                        "key": "0x5bc50a545711b46dbdbc06951424bfdbdab9495f44dcf3fd392d8d3045333a88",
                        "prev": "0x0000000000000000000000000000000000000000000000000000000000000000"
                    }
                ],
                "storageVariables": [
                    {
                        "name": "stakerStrategyShares",
                        "type": "mapping(address => mapping(contract IStrategy => uint256))",
                        "value": {
                            "pairs": [
                                {
                                    "key": "0x96e1ddde9f672127f9d0caf017911861ff08f475",
                                    "value": {
                                        "pairs": [
                                            {
                                                "key": "0x93c4b944d05dfe6df7645a86cd2206016c51564d",
                                                "value": {
                                                    "current": "533397863924587484",
                                                    "prev": "0",
                                                    "typeTag": 1
                                                }
                                            }
                                        ],
                                        "typeTag": 4
                                    }
                                }
                            ],
                            "typeTag": 4
                        }
                    },
                    {
                        "name": "stakerStrategyList",
                        "type": "mapping(address => contract IStrategy[])",
                        "value": {
                            "pairs": [
                                {
                                    "key": "0x96e1ddde9f672127f9d0caf017911861ff08f475",
                                    "value": {
                                        "elemType": "contract IStrategy",
                                        "elems": [
                                            {
                                                "index": 0,
                                                "value": {
                                                    "current": "0x93c4b944d05dfe6df7645a86cd2206016c51564d",
                                                    "prev": "0x0000000000000000000000000000000000000000",
                                                    "typeTag": 1
                                                }
                                            }
                                        ],
                                        "typeTag": 2
                                    }
                                }
                            ],
                            "typeTag": 4
                        }
                    }
                ]
            },
            {
                "address": "0x93c4b944d05dfe6df7645a86cd2206016c51564d",
                "erc": "",
                "slots": [
                    {
                        "current": "0x00000000000000000000000000000000000000000000022f39a8d14af3658ffa",
                        "key": "0x0000000000000000000000000000000000000000000000000000000000000033",
                        "prev": "0x00000000000000000000000000000000000000000000022f3241cec2f838341e"
                    }
                ],
                "storageVariables": [
                    {
                        "name": "totalShares",
                        "type": "uint256",
                        "value": {
                            "current": "10315884737979729940474",
                            "prev": "10315351340115805352990",
                            "typeTag": 1
                        }
                    }
                ]
            },
            {
                "address": "0xae7ab96520de3a18e5e111b5eaab095312d7fe84",
                "erc": "",
                "slots": [
                    {
                        "current": "0x0000000000000000000000000000000000000000000000000025ffd550753edd",
                        "key": "0x9543d202382386fd6ea35ac3b83a794b17b4bcf2c1269cdbe41d39d20634a068",
                        "prev": "0x0000000000000000000000000000000000000000000000000792b37fab4abedd"
                    },
                    {
                        "current": "0x0000000000000000000000000000000000000000000000000021933e30257b80",
                        "key": "0xd9522c65c0e3c73282475bb54636cbdfdddbdc1bc5f163e392e911ac4da9ff95",
                        "prev": "0x00000000000000000000000000000000000000000000000006b0fb80b842d96a"
                    },
                    {
                        "current": "0x0000000000000000000000000000000000000000000001ef999a35c3b6f1367a",
                        "key": "0xc54c9146675d1ea44e83e3c06f1f7f70a045536b699583b1aabf2b1db71b565f",
                        "prev": "0x0000000000000000000000000000000000000000000001ef930acd812ed3d890"
                    }
                ],
                "storageVariables": []
            }
        ]
    }
}