{
    "balance_change": {
        "balanceChanges": []
    },
    "profile": {
        "basic_info": {
            "baseFee": "",
            "blockNumber": 8139802,
            "callData": "0x85db6d660000000000000000000000002afc685845d28d127e3bd2b94c760bacbd71bd04000000000000000000000000b0655fd6200da2e8c34308e9f2adc781a0aa0261",
            "debugEnable": true,
            "errorInfo": "",
            "eventCount": 2,
            "feeRecipient": "0xea674fdde714fd979de3edf0f56aa9716b898ec8",
            "formatValue": "0",
            "gasLimit": 62305,
            "gasPrice": "8",
            "gasUsed": 36982,
            "intTxnCount": 4,
            "internalRevert": false,
            "internalRevertMessage": "",
            "isContractCreation": false,
            "isFlashloan": false,
            "maxFee": "",
            "nonce": 8516,
            "overwritedBlockNumber": -1,
            "priorityFee": "",
            "receiver": "0x85b4e5d92311e087edb59f49212f8ea37e7b13e7",
            "revertMessage": "",
            "sender": "0x9d207257f410303a779837fa0b55e7cafb15fec6",
            "simulationEnable": true,
            "sourceTxnHash": "0x568da1be79dc05100c992c6f95daab909fc50e55e41c8aacdf6f84aa95cc7ae2",
            "status": true,
            "timestamp": "2019-07-13T01:39:08Z",
            "transactionFee": "0.000295856",
            "txnHash": "0x568da1be79dc05100c992c6f95daab909fc50e55e41c8aacdf6f84aa95cc7ae2",
            "txnIndex": 28,
            "type": 0,
            "value": "0"
        },
        "fund_flow": [],
        "token_infos": [
            {
                "address": "0xc02aaa39b223fe8d0a0e5c4f27ead9083c756cc2",
                "decimals": 18
            },
            {
                "address": "0xeeeeeeeeeeeeeeeeeeeeeeeeeeeeeeeeeeeeeeee",
                "decimals": 18
            }
        ]
    },
    "address_label": {
        "labels": [
            {
                "address": "0x0000000000000000000000000000000000000002",
                "label": "Precompiled"
            },
            {
                "address": "0x0000000000000000000000000000000000000003",
                "label": "Precompiled"
            },
            {
                "address": "0x0000000000000000000000000000000000000004",
                "label": "Precompiled"
            },
            {
                "address": "0xeeeeeeeeeeeeeeeeeeeeeeeeeeeeeeeeeeeeeeee",
                "label": "Ether"
            },
            {
                "address": "0x0000000000000000000000000000000000000001",
                "label": "Precompiled"
            }
        ]
    },
    "trace": {
        "accountLabels": null,
        "dataMap": {
            "-1": {
                "invocation": {
                    "address": "0x9d207257f410303a779837fa0b55e7cafb15fec6",
                    "callData": "",
                    "decodedMethod": null,
                    "errorInfo": "",
                    "fromAddress": "",
                    "gasUsed": 0,
                    "id": -1,
                    "methodDecoded": false,
                    "operation": "",
                    "output": "",
                    "revert": false,
                    "revertMessage": "",
                    "selector": "",
                    "status": false,
                    "value": ""
                },
                "nodeType": 0
            },
            "0": {
                "invocation": {
                    "address": "0x85b4e5d92311e087edb59f49212f8ea37e7b13e7",
                    "callData": "0x0000000000000000000000002afc685845d28d127e3bd2b94c760bacbd71bd04000000000000000000000000b0655fd6200da2e8c34308e9f2adc781a0aa0261",
                    "decodedMethod": null,
                    "errorInfo": "",
                    "fromAddress": "0x9d207257f410303a779837fa0b55e7cafb15fec6",
                    "gasUsed": 36982,
                    "id": 0,
                    "methodDecoded": false,
                    "operation": "CALL",
                    "output": "0x0000000000000000000000000000000000000000000000000000000000000001",
                    "revert": false,
                    "revertMessage": "",
                    "selector": "0x85db6d66",
                    "status": true,
                    "value": "0"
                },
                "nodeType": 0
            },
            "1": {
                "invocation": {
                    "address": "0xce24a670c8ca0827a638ac9f46c6212bb8c2e7c4",
                    "callData": "0x0000000000000000000000009d207257f410303a779837fa0b55e7cafb15fec600000000000000000000000085b4e5d92311e087edb59f49212f8ea37e7b13e785db6d6600000000000000000000000000000000000000000000000000000000",
                    "decodedMethod": {
                        "callParams": [
                            {
                                "name": "user",
                                "type": "address",
                                "value": "0x9d207257f410303a779837fa0b55e7cafb15fec6"
                            },
                            {
                                "name": "target",
                                "type": "address",
                                "value": "0x85b4e5d92311e087edb59f49212f8ea37e7b13e7"
                            },
                            {
                                "name": "functionSig",
                                "type": "bytes4",
                                "value": "0x85db6d66"
                            }
                        ],
                        "constructorArguments": "",
                        "name": "canCall",
                        "returnParams": [
                            {
                                "name": "",
                                "type": "bool",
                                "value": true
                            }
                        ],
                        "signature": "canCall(address,address,bytes4)"
                    },
                    "errorInfo": "",
                    "fromAddress": "0x85b4e5d92311e087edb59f49212f8ea37e7b13e7",
                    "gasUsed": 4010,
                    "id": 1,
                    "methodDecoded": true,
                    "operation": "CALL",
                    "output": "0x0000000000000000000000000000000000000000000000000000000000000001",
                    "revert": false,
                    "revertMessage": "",
                    "selector": "0xb7009613",
                    "status": true,
                    "value": "0"
                },
                "nodeType": 0
            },
            "2": {
                "invocation": {
                    "address": "0xe447bc92203eaf559b13b6ddbfdb54376ee256ee",
                    "callData": "0x526f6c65734c69627261727900000000000000000000000000000000000000000ad718c9cc22714d8f3583379e7103cbcf95d6f88e222c6fa80986f064332744",
                    "decodedMethod": {
                        "callParams": [
                            {
                                "name": "namespace",
                                "type": "bytes32",
                                "value": "0x526f6c65734c6962726172790000000000000000000000000000000000000000"
                            },
                            {
                                "name": "key",
                                "type": "bytes32",
                                "value": "0x0ad718c9cc22714d8f3583379e7103cbcf95d6f88e222c6fa80986f064332744"
                            }
                        ],
                        "constructorArguments": "",
                        "name": "getBytes32",
                        "returnParams": [
                            {
                                "name": "",
                                "type": "bytes32",
                                "value": "0x0000000000000000000000000000000000000000000000000000000000000001"
                            }
                        ],
                        "signature": "getBytes32(bytes32,bytes32)"
                    },
                    "errorInfo": "",
                    "fromAddress": "0xce24a670c8ca0827a638ac9f46c6212bb8c2e7c4",
                    "gasUsed": 576,
                    "id": 2,
                    "methodDecoded": true,
                    "operation": "CALL",
                    "output": "0x0000000000000000000000000000000000000000000000000000000000000001",
                    "revert": false,
                    "revertMessage": "",
                    "selector": "0x37d9d7fc",
                    "status": true,
                    "value": "0"
                },
                "nodeType": 0
            },
            "3": {
                "invocation": {
                    "address": "0x2afc685845d28d127e3bd2b94c760bacbd71bd04",
                    "callData": "0x000000000000000000000000b0655fd6200da2e8c34308e9f2adc781a0aa0261",
                    "decodedMethod": {
                        "callParams": [
                            {
                                "name": "controller_",
                                "type": "address",
                                "value": "0xb0655fd6200da2e8c34308e9f2adc781a0aa0261"
                            }
                        ],
                        "constructorArguments": "",
                        "name": "init",
                        "returnParams": [],
                        "signature": "init(address)"
                    },
                    "errorInfo": "",
                    "fromAddress": "0x85b4e5d92311e087edb59f49212f8ea37e7b13e7",
                    "gasUsed": 2651,
                    "id": 3,
                    "methodDecoded": true,
                    "operation": "CALL",
                    "output": "",
                    "revert": false,
                    "revertMessage": "",
                    "selector": "0x19ab453c",
                    "status": true,
                    "value": "0"
                },
                "nodeType": 0
            },
            "4": {
                "invocation": {
                    "address": "0xf98ee39029c0f57b7d1d85be0b5579f813a58308",
                    "callData": "0x000000000000000000000000b0655fd6200da2e8c34308e9f2adc781a0aa0261",
                    "decodedMethod": {
                        "callParams": [
                            {
                                "name": "controller_",
                                "type": "address",
                                "value": "0xb0655fd6200da2e8c34308e9f2adc781a0aa0261"
                            }
                        ],
                        "constructorArguments": "",
                        "name": "init",
                        "returnParams": [],
                        "signature": "init(address)"
                    },
                    "errorInfo": "",
                    "fromAddress": "0x2afc685845d28d127e3bd2b94c760bacbd71bd04",
                    "gasUsed": 1806,
                    "id": 4,
                    "methodDecoded": true,
                    "operation": "DELEGATECALL",
                    "output": "",
                    "revert": false,
                    "revertMessage": "",
                    "selector": "0x19ab453c",
                    "status": true,
                    "value": "0"
                },
                "nodeType": 0
            },
            "5": {
                "event": {
                    "contract": "0x2afc685845d28d127e3bd2b94c760bacbd71bd04",
                    "decodedLog": {
                        "name": "Error",
                        "params": [
                            {
                                "name": "message",
                                "type": "bytes32",
                                "value": "0x4163636573732064656e69656400000000000000000000000000000000000000"
                            }
                        ],
                        "signature": "Error(bytes32)"
                    },
                    "id": 5,
                    "logData": "0x4163636573732064656e69656400000000000000000000000000000000000000",
                    "logDecoded": true,
                    "operation": "EVENT",
                    "revert": false,
                    "status": true,
                    "topics": [
                        "0xc0feee4291bd5b20db53763b87864bd1434da2717d6a9ba76efa4bafa8f6a99c"
                    ]
                },
                "nodeType": 1
            },
            "6": {
                "event": {
                    "contract": "0x85b4e5d92311e087edb59f49212f8ea37e7b13e7",
                    "decodedLog": null,
                    "id": 6,
                    "logData": "0x0000000000000000000000002afc685845d28d127e3bd2b94c760bacbd71bd04",
                    "logDecoded": false,
                    "operation": "EVENT",
                    "revert": false,
                    "status": true,
                    "topics": [
                        "0xa9e1ee75e4263e8342f99947ca4f1085ef453a8540f800cd48c7d1e0a7621bae",
                        "0x000000000000000000000000b0655fd6200da2e8c34308e9f2adc781a0aa0261"
                    ]
                },
                "nodeType": 1
            }
        },
        "gasFlame": [
            {
                "children": [
                    {
                        "children": [
                            {
                                "children": [],
                                "depth": 0,
                                "name": "Initial Gas",
                                "value": 24088
                            },
                            {
                                "children": [
                                    {
                                        "children": [
                                            {
                                                "children": [],
                                                "depth": 2,
                                                "name": "getBytes32",
                                                "value": 576
                                            }
                                        ],
                                        "depth": 1,
                                        "name": "canCall",
                                        "value": 4010
                                    },
                                    {
                                        "children": [
                                            {
                                                "children": [],
                                                "depth": 2,
                                                "name": "init",
                                                "value": 1806
                                            }
                                        ],
                                        "depth": 1,
                                        "name": "init",
                                        "value": 2651
                                    }
                                ],
                                "depth": 0,
                                "name": "Executed Gas",
                                "value": 12894
                            }
                        ],
                        "depth": -1,
                        "name": "Actual Gas Used",
                        "value": 36982
                    },
                    {
                        "children": [],
                        "depth": -1,
                        "name": "Refunded Gas",
                        "value": 0
                    }
                ],
                "depth": -2,
                "name": "Total Gas",
                "value": 36982
            }
        ],
        "isConfirmed": true,
        "mainTrace": [
            {
                "children": [
                    {
                        "children": [
                            {
                                "children": [
                                    {
                                        "children": [],
                                        "depth": 2,
                                        "id": 2,
                                        "order": 2
                                    }
                                ],
                                "depth": 1,
                                "id": 1,
                                "order": 1
                            },
                            {
                                "children": [
                                    {
                                        "children": [
                                            {
                                                "children": [],
                                                "depth": 3,
                                                "id": 5,
                                                "order": 5
                                            }
                                        ],
                                        "depth": 2,
                                        "id": 4,
                                        "order": 4
                                    }
                                ],
                                "depth": 1,
                                "id": 3,
                                "order": 3
                            },
                            {
                                "children": [],
                                "depth": 1,
                                "id": 6,
                                "order": 6
                            }
                        ],
                        "depth": 0,
                        "id": 0,
                        "order": 0
                    }
                ],
                "depth": -1,
                "id": -1,
                "order": -1
            }
        ],
        "mainTraceNodeCount": 7,
        "parentIdMap": {
            "0": -1,
            "1": 0,
            "2": 1,
            "3": 0,
            "4": 3,
            "5": 4,
            "6": 0
        },
        "tidyTrace": [
            {
                "children": [
                    {
                        "children": [
                            {
                                "children": [
                                    {
                                        "children": [],
                                        "depth": 2,
                                        "id": 2,
                                        "order": 2
                                    }
                                ],
                                "depth": 1,
                                "id": 1,
                                "order": 1
                            },
                            {
                                "children": [
                                    {
                                        "children": [
                                            {
                                                "children": [],
                                                "depth": 3,
                                                "id": 5,
                                                "order": 5
                                            }
                                        ],
                                        "depth": 2,
                                        "id": 4,
                                        "order": 4
                                    }
                                ],
                                "depth": 1,
                                "id": 3,
                                "order": 3
                            },
                            {
                                "children": [],
                                "depth": 1,
                                "id": 6,
                                "order": 6
                            }
                        ],
                        "depth": 0,
                        "id": 0,
                        "order": 0
                    }
                ],
                "depth": -1,
                "id": -1,
                "order": -1
            }
        ],
        "tidyTraceNodeCount": 7
    },
    "state_change": {
        "stateChanges": []
    }
}