{
    "balance_change": {
        "balanceChanges": [
            {
                "account": "0x2711301985fd072c3c94b45781d4897f44c562d5",
                "assets": [
                    {
                        "address": "0x7537aef853f63f114e6152956faf26488c08cc84",
                        "amount": "474.999999999999999999",
                        "iconUrl": "",
                        "isERC1155": false,
                        "isERC721": false,
                        "sign": false,
                        "value": ""
                    }
                ]
            },
            {
                "account": "0x5ebc5db2594ed501536e722f5d5546264fe9e7ac",
                "assets": [
                    {
                        "address": "0x7537aef853f63f114e6152956faf26488c08cc84",
                        "amount": "474.999999999999999999",
                        "iconUrl": "",
                        "isERC1155": false,
                        "isERC721": false,
                        "sign": true,
                        "value": ""
                    }
                ]
            }
        ]
    },
    "profile": {
        "basic_info": {
            "baseFee": "",
            "blockNumber": 5439393,
            "callData": "0xa9059cbb0000000000000000000000005ebc5db2594ed501536e722f5d5546264fe9e7ac000000000000000000000000000000000000000000000019bff2ff57968bffff",
            "debugEnable": true,
            "errorInfo": "",
            "eventCount": 1,
            "feeRecipient": "0x52e44f279f4203dcf680395379e5f9990a69f13c",
            "formatValue": "0",
            "gasLimit": 90000,
            "gasPrice": "35",
            "gasUsed": 38008,
            "intTxnCount": 0,
            "internalRevert": false,
            "internalRevertMessage": "",
            "isContractCreation": false,
            "isFlashloan": false,
            "maxFee": "",
            "nonce": 7786,
            "overwritedBlockNumber": -1,
            "priorityFee": "",
            "receiver": "0x7537aef853f63f114e6152956faf26488c08cc84",
            "revertMessage": "",
            "sender": "0x2711301985fd072c3c94b45781d4897f44c562d5",
            "simulationEnable": true,
            "sourceTxnHash": "0x5787f1d63475c7b22b95c91308b3de19105123f920b8c3fb6b592cdc0e23b384",
            "status": true,
            "timestamp": "2018-04-14T13:51:31Z",
            "transactionFee": "0.00133028",
            "txnHash": "0x5787f1d63475c7b22b95c91308b3de19105123f920b8c3fb6b592cdc0e23b384",
            "txnIndex": 74,
            "type": 0,
            "value": "0"
        },
        "fund_flow": [
            {
                "amount": "474.999999999999999999",
                "from": "0x2711301985fd072c3c94b45781d4897f44c562d5",
                "id": 1,
                "isERC1155": false,
                "isERC721": false,
                "isReverted": false,
                "order": 1,
                "to": "0x5ebc5db2594ed501536e722f5d5546264fe9e7ac",
                "token": "0x7537aef853f63f114e6152956faf26488c08cc84"
            }
        ],
        "token_infos": [
            {
                "address": "0x7537aef853f63f114e6152956faf26488c08cc84",
                "decimals": 18
            },
            {
                "address": "0xc02aaa39b223fe8d0a0e5c4f27ead9083c756cc2",
                "decimals": 18
            },
            {
                "address": "0xeeeeeeeeeeeeeeeeeeeeeeeeeeeeeeeeeeeeeeee",
                "decimals": 18
            }
        ]
    },
    "address_label": {
        "labels": [
            {
                "address": "0x7537aef853f63f114e6152956faf26488c08cc84",
                "label": "chain of consumption (COCC)"
            },
            {
                "address": "0x0000000000000000000000000000000000000001",
                "label": "Precompiled"
            },
            {
                "address": "0x0000000000000000000000000000000000000002",
                "label": "Precompiled"
            },
            {
                "address": "0x0000000000000000000000000000000000000003",
                "label": "Precompiled"
            },
            {
                "address": "0x0000000000000000000000000000000000000004",
                "label": "Precompiled"
            },
            {
                "address": "0xeeeeeeeeeeeeeeeeeeeeeeeeeeeeeeeeeeeeeeee",
                "label": "Ether"
            }
        ]
    },
    "trace": {
        "accountLabels": null,
        "dataMap": {
            "-1": {
                "invocation": {
                    "address": "0x2711301985fd072c3c94b45781d4897f44c562d5",
                    "callData": "",
                    "decodedMethod": null,
                    "errorInfo": "",
                    "fromAddress": "",
                    "gasUsed": 0,
                    "id": -1,
                    "methodDecoded": false,
                    "operation": "",
                    "output": "",
                    "revert": false,
                    "revertMessage": "",
                    "selector": "",
                    "status": false,
                    "value": ""
                },
                "nodeType": 0
            },
            "0": {
                "invocation": {
                    "address": "0x7537aef853f63f114e6152956faf26488c08cc84",
                    "callData": "0x0000000000000000000000005ebc5db2594ed501536e722f5d5546264fe9e7ac000000000000000000000000000000000000000000000019bff2ff57968bffff",
                    "decodedMethod": {
                        "callParams": [
                            {
                                "name": "_to",
                                "type": "address",
                                "value": "0x5ebc5db2594ed501536e722f5d5546264fe9e7ac"
                            },
                            {
                                "decimalAvailable": true,
                                "name": "_value",
                                "type": "uint256",
                                "value": "474,999,999,999,999,999,999"
                            }
                        ],
                        "constructorArguments": "",
                        "name": "transfer",
                        "returnParams": [],
                        "signature": "transfer(address,uint256)"
                    },
                    "errorInfo": "",
                    "fromAddress": "0x2711301985fd072c3c94b45781d4897f44c562d5",
                    "gasUsed": 38008,
                    "id": 0,
                    "methodDecoded": true,
                    "operation": "CALL",
                    "output": "",
                    "revert": false,
                    "revertMessage": "",
                    "selector": "0xa9059cbb",
                    "status": true,
                    "value": "0"
                },
                "nodeType": 0
            },
            "1": {
                "event": {
                    "contract": "0x7537aef853f63f114e6152956faf26488c08cc84",
                    "decodedLog": {
                        "name": "Transfer",
                        "params": [
                            {
                                "name": "from",
                                "type": "address",
                                "value": "0x2711301985fd072c3c94b45781d4897f44c562d5"
                            },
                            {
                                "name": "to",
                                "type": "address",
                                "value": "0x5ebc5db2594ed501536e722f5d5546264fe9e7ac"
                            },
                            {
                                "decimalAvailable": true,
                                "name": "value",
                                "type": "uint256",
                                "value": "474,999,999,999,999,999,999"
                            }
                        ],
                        "signature": "Transfer(address,address,uint256)"
                    },
                    "id": 1,
                    "logData": "0x000000000000000000000000000000000000000000000019bff2ff57968bffff",
                    "logDecoded": true,
                    "operation": "EVENT",
                    "revert": false,
                    "status": true,
                    "topics": [
                        "0xddf252ad1be2c89b69c2b068fc378daa952ba7f163c4a11628f55a4df523b3ef",
                        "0x0000000000000000000000002711301985fd072c3c94b45781d4897f44c562d5",
                        "0x0000000000000000000000005ebc5db2594ed501536e722f5d5546264fe9e7ac"
                    ]
                },
                "nodeType": 1
            }
        },
        "gasFlame": [
            {
                "children": [
                    {
                        "children": [
                            {
                                "children": [],
                                "depth": 0,
                                "name": "Initial Gas",
                                "value": 23384
                            },
                            {
                                "children": [],
                                "depth": 0,
                                "name": "Executed Gas",
                                "value": 14624
                            }
                        ],
                        "depth": -1,
                        "name": "Actual Gas Used",
                        "value": 38008
                    },
                    {
                        "children": [],
                        "depth": -1,
                        "name": "Refunded Gas",
                        "value": 0
                    }
                ],
                "depth": -2,
                "name": "Total Gas",
                "value": 38008
            }
        ],
        "isConfirmed": true,
        "mainTrace": [
            {
                "children": [
                    {
                        "children": [
                            {
                                "children": [],
                                "depth": 1,
                                "id": 1,
                                "order": 1
                            }
                        ],
                        "depth": 0,
                        "id": 0,
                        "order": 0
                    }
                ],
                "depth": -1,
                "id": -1,
                "order": -1
            }
        ],
        "mainTraceNodeCount": 2,
        "parentIdMap": {
            "0": -1,
            "1": 0
        },
        "tidyTrace": [
            {
                "children": [
                    {
                        "children": [
                            {
                                "children": [],
                                "depth": 1,
                                "id": 1,
                                "order": 1
                            }
                        ],
                        "depth": 0,
                        "id": 0,
                        "order": 0
                    }
                ],
                "depth": -1,
                "id": -1,
                "order": -1
            }
        ],
        "tidyTraceNodeCount": 2
    },
    "state_change": {
        "stateChanges": [
            {
                "address": "0x7537aef853f63f114e6152956faf26488c08cc84",
                "erc": "",
                "slots": [
                    {
                        "current": "0x00000000000000000000000000000000000000000015beabc355d57c55b9b897",
                        "key": "0x00c00567235d819ee4b1f9cfdfdb0f12c0034b762fde60c1751a110a9e64bf67",
                        "prev": "0x00000000000000000000000000000000000000000015bec58348d4d3ec45b896"
                    },
                    {
                        "current": "0x000000000000000000000000000000000000000000000283bebaef8db3abffd8",
                        "key": "0x9dfae78cd5bcc505f5c2b28be2657597d419f92a0072ae985907bf3e105fc351",
                        "prev": "0x000000000000000000000000000000000000000000000269fec7f0361d1fffd9"
                    }
                ],
                "storageVariables": []
            }
        ]
    }
}