{
    "balance_change": {
        "balanceChanges": [
            {
                "account": "0xd1ceeeeee83f8bcf3bedad437202b6154e9f5405",
                "assets": [
                    {
                        "address": "0xeeeeeeeeeeeeeeeeeeeeeeeeeeeeeeeeeeeeeeee",
                        "amount": "0.0194",
                        "iconUrl": "https://assets.blocksec.com/image/1663669189317-3.png",
                        "isERC1155": false,
                        "isERC721": false,
                        "sign": false,
                        "value": ""
                    }
                ]
            },
            {
                "account": "0x9efd55edb14de5fbafc8e73e3b279b939d477287",
                "assets": [
                    {
                        "address": "0xeeeeeeeeeeeeeeeeeeeeeeeeeeeeeeeeeeeeeeee",
                        "amount": "0.0194",
                        "iconUrl": "https://assets.blocksec.com/image/1663669189317-3.png",
                        "isERC1155": false,
                        "isERC721": false,
                        "sign": true,
                        "value": ""
                    }
                ]
            }
        ]
    },
    "profile": {
        "basic_info": {
            "baseFee": "",
            "blockNumber": 8293587,
            "callData": "0xca722cdc964eee9c792a749a26ce84c7d028c1c2534aed995bb47a2a6fbac6d81896fcdc42069deb93f57b792fd26971c067da8299b60e72932f28f3f54e69c3722b68ae",
            "debugEnable": true,
            "errorInfo": "",
            "eventCount": 1,
            "feeRecipient": "0x829bd824b016326a401d083b33d092293333a830",
            "formatValue": "0",
            "gasLimit": 65000,
            "gasPrice": "5",
            "gasUsed": 33713,
            "intTxnCount": 1,
            "internalRevert": false,
            "internalRevertMessage": "",
            "isContractCreation": false,
            "isFlashloan": false,
            "maxFee": "",
            "nonce": 1179974,
            "overwritedBlockNumber": -1,
            "priorityFee": "",
            "receiver": "0xd1ceeeeee83f8bcf3bedad437202b6154e9f5405",
            "revertMessage": "",
            "sender": "0x00000000c0293c8ca34dac9bcc0f953532d34e4d",
            "simulationEnable": true,
            "sourceTxnHash": "0x574680e678da1615174603d5fe6f39e0ec2da374e37d02fc2e5c7bef6909daf1",
            "status": true,
            "timestamp": "2019-08-05T23:32:36Z",
            "transactionFee": "0.000168565",
            "txnHash": "0x574680e678da1615174603d5fe6f39e0ec2da374e37d02fc2e5c7bef6909daf1",
            "txnIndex": 36,
            "type": 0,
            "value": "0"
        },
        "fund_flow": [
            {
                "amount": "0.0194",
                "from": "0xd1ceeeeee83f8bcf3bedad437202b6154e9f5405",
                "id": 1,
                "isERC1155": false,
                "isERC721": false,
                "isReverted": false,
                "order": 1,
                "to": "0x9efd55edb14de5fbafc8e73e3b279b939d477287",
                "token": "0xeeeeeeeeeeeeeeeeeeeeeeeeeeeeeeeeeeeeeeee"
            }
        ],
        "token_infos": [
            {
                "address": "0xc02aaa39b223fe8d0a0e5c4f27ead9083c756cc2",
                "decimals": 18
            },
            {
                "address": "0xeeeeeeeeeeeeeeeeeeeeeeeeeeeeeeeeeeeeeeee",
                "decimals": 18
            }
        ]
    },
    "address_label": {
        "labels": [
            {
                "address": "0x0000000000000000000000000000000000000001",
                "label": "Precompiled"
            },
            {
                "address": "0x0000000000000000000000000000000000000002",
                "label": "Precompiled"
            },
            {
                "address": "0x0000000000000000000000000000000000000003",
                "label": "Precompiled"
            },
            {
                "address": "0x0000000000000000000000000000000000000004",
                "label": "Precompiled"
            },
            {
                "address": "0xeeeeeeeeeeeeeeeeeeeeeeeeeeeeeeeeeeeeeeee",
                "label": "Ether"
            },
            {
                "address": "0xd1ceeeeee83f8bcf3bedad437202b6154e9f5405",
                "label": "Dice2Win"
            },
            {
                "address": "0x00000000c0293c8ca34dac9bcc0f953532d34e4d",
                "label": "Dice2Win 2"
            }
        ]
    },
    "trace": {
        "accountLabels": null,
        "dataMap": {
            "-1": {
                "invocation": {
                    "address": "0x00000000c0293c8ca34dac9bcc0f953532d34e4d",
                    "callData": "",
                    "decodedMethod": null,
                    "errorInfo": "",
                    "fromAddress": "",
                    "gasUsed": 0,
                    "id": -1,
                    "methodDecoded": false,
                    "operation": "",
                    "output": "",
                    "revert": false,
                    "revertMessage": "",
                    "selector": "",
                    "status": false,
                    "value": ""
                },
                "nodeType": 0
            },
            "0": {
                "invocation": {
                    "address": "0xd1ceeeeee83f8bcf3bedad437202b6154e9f5405",
                    "callData": "0x964eee9c792a749a26ce84c7d028c1c2534aed995bb47a2a6fbac6d81896fcdc42069deb93f57b792fd26971c067da8299b60e72932f28f3f54e69c3722b68ae",
                    "decodedMethod": {
                        "callParams": [
                            {
                                "name": "reveal",
                                "type": "uint256",
                                "value": "67,986,388,192,685,140,925,572,970,067,872,745,432,175,561,278,029,081,647,750,440,475,474,842,287,324"
                            },
                            {
                                "name": "blockHash",
                                "type": "bytes32",
                                "value": "0x42069deb93f57b792fd26971c067da8299b60e72932f28f3f54e69c3722b68ae"
                            }
                        ],
                        "constructorArguments": "",
                        "name": "settleBet",
                        "returnParams": [],
                        "signature": "settleBet(uint256,bytes32)"
                    },
                    "errorInfo": "",
                    "fromAddress": "0x00000000c0293c8ca34dac9bcc0f953532d34e4d",
                    "gasUsed": 33713,
                    "id": 0,
                    "methodDecoded": true,
                    "operation": "CALL",
                    "output": "",
                    "revert": false,
                    "revertMessage": "",
                    "selector": "0xca722cdc",
                    "status": true,
                    "value": "0"
                },
                "nodeType": 0
            },
            "1": {
                "invocation": {
                    "address": "0x9efd55edb14de5fbafc8e73e3b279b939d477287",
                    "callData": "0x",
                    "decodedMethod": null,
                    "errorInfo": "",
                    "fromAddress": "0xd1ceeeeee83f8bcf3bedad437202b6154e9f5405",
                    "gasUsed": 0,
                    "id": 1,
                    "methodDecoded": false,
                    "operation": "CALL",
                    "output": "",
                    "revert": false,
                    "revertMessage": "",
                    "selector": "fallback",
                    "status": true,
                    "value": "0.0194"
                },
                "nodeType": 0
            },
            "2": {
                "event": {
                    "contract": "0xd1ceeeeee83f8bcf3bedad437202b6154e9f5405",
                    "decodedLog": {
                        "name": "Payment",
                        "params": [
                            {
                                "name": "beneficiary",
                                "type": "address",
                                "value": "0x9efd55edb14de5fbafc8e73e3b279b939d477287"
                            },
                            {
                                "name": "amount",
                                "type": "uint256",
                                "value": "19,400,000,000,000,000"
                            }
                        ],
                        "signature": "Payment(address,uint256)"
                    },
                    "id": 2,
                    "logData": "0x0000000000000000000000000000000000000000000000000044ec327ca48000",
                    "logDecoded": true,
                    "operation": "EVENT",
                    "revert": false,
                    "status": true,
                    "topics": [
                        "0xd4f43975feb89f48dd30cabbb32011045be187d1e11c8ea9faa43efc35282519",
                        "0x0000000000000000000000009efd55edb14de5fbafc8e73e3b279b939d477287"
                    ]
                },
                "nodeType": 1
            }
        },
        "gasFlame": [
            {
                "children": [
                    {
                        "children": [
                            {
                                "children": [],
                                "depth": 0,
                                "name": "Initial Gas",
                                "value": 25624
                            },
                            {
                                "children": [
                                    {
                                        "children": [],
                                        "depth": 1,
                                        "name": "fallback",
                                        "value": 0
                                    }
                                ],
                                "depth": 0,
                                "name": "Executed Gas",
                                "value": 23089
                            }
                        ],
                        "depth": -1,
                        "name": "Actual Gas Used",
                        "value": 33713
                    },
                    {
                        "children": [],
                        "depth": -1,
                        "name": "Refunded Gas",
                        "value": 15000
                    }
                ],
                "depth": -2,
                "name": "Total Gas",
                "value": 48713
            }
        ],
        "isConfirmed": true,
        "mainTrace": [
            {
                "children": [
                    {
                        "children": [
                            {
                                "children": [],
                                "depth": 1,
                                "id": 1,
                                "order": 1
                            },
                            {
                                "children": [],
                                "depth": 1,
                                "id": 2,
                                "order": 2
                            }
                        ],
                        "depth": 0,
                        "id": 0,
                        "order": 0
                    }
                ],
                "depth": -1,
                "id": -1,
                "order": -1
            }
        ],
        "mainTraceNodeCount": 3,
        "parentIdMap": {
            "0": -1,
            "1": 0,
            "2": 0
        },
        "tidyTrace": [
            {
                "children": [
                    {
                        "children": [
                            {
                                "children": [],
                                "depth": 1,
                                "id": 1,
                                "order": 1
                            },
                            {
                                "children": [],
                                "depth": 1,
                                "id": 2,
                                "order": 2
                            }
                        ],
                        "depth": 0,
                        "id": 0,
                        "order": 0
                    }
                ],
                "depth": -1,
                "id": -1,
                "order": -1
            }
        ],
        "tidyTraceNodeCount": 3
    },
    "state_change": {
        "stateChanges": [
            {
                "address": "0xd1ceeeeee83f8bcf3bedad437202b6154e9f5405",
                "erc": "",
                "slots": [
                    {
                        "current": "0x0000000000000000000000000000000000000000000000000000000000000000",
                        "key": "0xeb33480f044a6eb98c8518ddbc64907c81e8f0cf03ab289e98f5f6e0ccb9a665",
                        "prev": "0x000000000000000000000000000000000000000000000000002386f26fc10000"
                    },
                    {
                        "current": "0x00000000000000002291081457f9cf3c000000000000000005f7aab8c56b0000",
                        "key": "0x0000000000000000000000000000000000000000000000000000000000000004",
                        "prev": "0x000000000000000022d5f446d49e4f3c000000000000000005f7aab8c56b0000"
                    }
                ],
                "storageVariables": [
                    {
                        "name": "bets",
                        "type": "mapping(uint256 => struct Dice2Win.Bet)",
                        "value": {
                            "pairs": [
                                {
                                    "key": "28571611620634532091472736753695608946396767977888374525415106934428986927899",
                                    "value": {
                                        "fields": [
                                            {
                                                "name": "amount",
                                                "type": "uint256",
                                                "value": {
                                                    "current": "0",
                                                    "prev": "10000000000000000",
                                                    "typeTag": 1
                                                }
                                            }
                                        ],
                                        "typeTag": 3
                                    }
                                }
                            ],
                            "typeTag": 4
                        }
                    },
                    {
                        "name": "jackpotSize",
                        "type": "uint128",
                        "value": {
                            "current": "430000000000000000",
                            "prev": "430000000000000000",
                            "typeTag": 1
                        }
                    },
                    {
                        "name": "lockedInBets",
                        "type": "uint128",
                        "value": {
                            "current": "2490780952380952380",
                            "prev": "2510180952380952380",
                            "typeTag": 1
                        }
                    }
                ]
            }
        ]
    }
}