{
    "balance_change": {
        "balanceChanges": [
            {
                "account": "0xa351e7b33f0fb40ed3f145a9cef8740505e7576f",
                "assets": [
                    {
                        "address": "0x8207c1ffc5b6804f6024322ccf34f29c3541ae26",
                        "amount": "5,000",
                        "iconUrl": "https://assets.blocksec.com/icon/ac011413d2bbf74e9d35627a6675cd00d961b46be3f96ac04318bccd24c92cfd.png",
                        "isERC1155": false,
                        "isERC721": false,
                        "sign": false,
                        "value": "9071.473348"
                    },
                    {
                        "address": "0xf0939011a9bb95c3b791f0cb546377ed2693a574",
                        "amount": "32,508.278107794681649635",
                        "iconUrl": "",
                        "isERC1155": false,
                        "isERC721": false,
                        "sign": true,
                        "value": "8918.088087"
                    }
                ]
            },
            {
                "account": "0x40f0e70a7d565985b967bcdb0ba5801994fc2e80",
                "assets": [
                    {
                        "address": "0xc02aaa39b223fe8d0a0e5c4f27ead9083c756cc2",
                        "amount": "3.296174079362590348",
                        "iconUrl": "https://assets.blocksec.com/icon/f1cb2d02c471d545bbc7722daf3277fd852d98e63d118771af7047bd8256c516.png",
                        "isERC1155": false,
                        "isERC721": false,
                        "sign": true,
                        "value": "9069.372907"
                    },
                    {
                        "address": "0xf0939011a9bb95c3b791f0cb546377ed2693a574",
                        "amount": "32,508.278107794681649635",
                        "iconUrl": "",
                        "isERC1155": false,
                        "isERC721": false,
                        "sign": false,
                        "value": "8918.088087"
                    }
                ]
            },
            {
                "account": "0xce2cc0513634cef3a7c9c257e294ef5e3092f185",
                "assets": [
                    {
                        "address": "0x8207c1ffc5b6804f6024322ccf34f29c3541ae26",
                        "amount": "5,000",
                        "iconUrl": "https://assets.blocksec.com/icon/ac011413d2bbf74e9d35627a6675cd00d961b46be3f96ac04318bccd24c92cfd.png",
                        "isERC1155": false,
                        "isERC721": false,
                        "sign": true,
                        "value": "9071.473348"
                    },
                    {
                        "address": "0xc02aaa39b223fe8d0a0e5c4f27ead9083c756cc2",
                        "amount": "3.296174079362590348",
                        "iconUrl": "https://assets.blocksec.com/icon/f1cb2d02c471d545bbc7722daf3277fd852d98e63d118771af7047bd8256c516.png",
                        "isERC1155": false,
                        "isERC721": false,
                        "sign": false,
                        "value": "9069.372907"
                    }
                ]
            }
        ]
    },
    "profile": {
        "basic_info": {
            "baseFee": "",
            "blockNumber": 12341948,
            "callData": "0x38ed173900000000000000000000000000000000000000000000010f0cf064dd592000000000000000000000000000000000000000000000000006d9827e3c93c6a19f7d00000000000000000000000000000000000000000000000000000000000000a0000000000000000000000000a351e7b33f0fb40ed3f145a9cef8740505e7576f00000000000000000000000000000000000000000000000000000000608c039b00000000000000000000000000000000000000000000000000000000000000030000000000000000000000008207c1ffc5b6804f6024322ccf34f29c3541ae26000000000000000000000000c02aaa39b223fe8d0a0e5c4f27ead9083c756cc2000000000000000000000000f0939011a9bb95c3b791f0cb546377ed2693a574",
            "debugEnable": true,
            "errorInfo": "",
            "eventCount": 7,
            "feeRecipient": "0x5a0b54d5dc17e0aadc383d2db43b0a0d3e029c4c",
            "formatValue": "0",
            "gasLimit": 187360,
            "gasPrice": "49",
            "gasUsed": 147290,
            "intTxnCount": 11,
            "internalRevert": false,
            "internalRevertMessage": "",
            "isContractCreation": false,
            "isFlashloan": false,
            "maxFee": "",
            "nonce": 12,
            "overwritedBlockNumber": -1,
            "priorityFee": "",
            "receiver": "0x7a250d5630b4cf539739df2c5dacb4c659f2488d",
            "revertMessage": "",
            "sender": "0xa351e7b33f0fb40ed3f145a9cef8740505e7576f",
            "simulationEnable": true,
            "sourceTxnHash": "0x579f832684507845f07daf7c67cd289fc266ccc8eadf55960dfa6bf7404593ea",
            "status": true,
            "timestamp": "2021-04-30T12:58:38Z",
            "transactionFee": "0.00721721",
            "txnHash": "0x579f832684507845f07daf7c67cd289fc266ccc8eadf55960dfa6bf7404593ea",
            "txnIndex": 132,
            "type": 0,
            "value": "0"
        },
        "fund_flow": [
            {
                "amount": "5,000",
                "from": "0xa351e7b33f0fb40ed3f145a9cef8740505e7576f",
                "id": 1,
                "isERC1155": false,
                "isERC721": false,
                "isReverted": false,
                "order": 1,
                "to": "0xce2cc0513634cef3a7c9c257e294ef5e3092f185",
                "token": "0x8207c1ffc5b6804f6024322ccf34f29c3541ae26"
            },
            {
                "amount": "3.296174079362590348",
                "from": "0xce2cc0513634cef3a7c9c257e294ef5e3092f185",
                "id": 2,
                "isERC1155": false,
                "isERC721": false,
                "isReverted": false,
                "order": 2,
                "to": "0x40f0e70a7d565985b967bcdb0ba5801994fc2e80",
                "token": "0xc02aaa39b223fe8d0a0e5c4f27ead9083c756cc2"
            },
            {
                "amount": "32,508.278107794681649635",
                "from": "0x40f0e70a7d565985b967bcdb0ba5801994fc2e80",
                "id": 3,
                "isERC1155": false,
                "isERC721": false,
                "isReverted": false,
                "order": 3,
                "to": "0xa351e7b33f0fb40ed3f145a9cef8740505e7576f",
                "token": "0xf0939011a9bb95c3b791f0cb546377ed2693a574"
            }
        ],
        "token_infos": [
            {
                "address": "0xeeeeeeeeeeeeeeeeeeeeeeeeeeeeeeeeeeeeeeee",
                "decimals": 18
            },
            {
                "address": "0x8207c1ffc5b6804f6024322ccf34f29c3541ae26",
                "decimals": 18
            },
            {
                "address": "0xc02aaa39b223fe8d0a0e5c4f27ead9083c756cc2",
                "decimals": 18
            },
            {
                "address": "0xf0939011a9bb95c3b791f0cb546377ed2693a574",
                "decimals": 18
            }
        ]
    },
    "address_label": {
        "labels": [
            {
                "address": "0xeeeeeeeeeeeeeeeeeeeeeeeeeeeeeeeeeeeeeeee",
                "label": "Ether"
            },
            {
                "address": "0xc02aaa39b223fe8d0a0e5c4f27ead9083c756cc2",
                "label": "Wrapped Ether (WETH)"
            },
            {
                "address": "0x0000000000000000000000000000000000000002",
                "label": "Precompiled"
            },
            {
                "address": "0x0000000000000000000000000000000000000004",
                "label": "Precompiled"
            },
            {
                "address": "0x0000000000000000000000000000000000000003",
                "label": "Precompiled"
            },
            {
                "address": "0xce2cc0513634cef3a7c9c257e294ef5e3092f185",
                "label": "Uniswap V2: OGN"
            },
            {
                "address": "0x7a250d5630b4cf539739df2c5dacb4c659f2488d",
                "label": "Uniswap V2: Router 2"
            },
            {
                "address": "0xf0939011a9bb95c3b791f0cb546377ed2693a574",
                "label": "Zero Exchange: ZERO Token"
            },
            {
                "address": "0x40f0e70a7d565985b967bcdb0ba5801994fc2e80",
                "label": "Uniswap V2: ZERO 3"
            },
            {
                "address": "0x8207c1ffc5b6804f6024322ccf34f29c3541ae26",
                "label": "Origin: OGN Token"
            },
            {
                "address": "0x0000000000000000000000000000000000000001",
                "label": "Precompiled"
            }
        ]
    },
    "trace": {
        "accountLabels": null,
        "dataMap": {
            "-1": {
                "invocation": {
                    "address": "0xa351e7b33f0fb40ed3f145a9cef8740505e7576f",
                    "callData": "",
                    "decodedMethod": null,
                    "errorInfo": "",
                    "fromAddress": "",
                    "gasUsed": 0,
                    "id": -1,
                    "methodDecoded": false,
                    "operation": "",
                    "output": "",
                    "revert": false,
                    "revertMessage": "",
                    "selector": "",
                    "status": false,
                    "value": ""
                },
                "nodeType": 0
            },
            "0": {
                "invocation": {
                    "address": "0x7a250d5630b4cf539739df2c5dacb4c659f2488d",
                    "callData": "0x00000000000000000000000000000000000000000000010f0cf064dd592000000000000000000000000000000000000000000000000006d9827e3c93c6a19f7d00000000000000000000000000000000000000000000000000000000000000a0000000000000000000000000a351e7b33f0fb40ed3f145a9cef8740505e7576f00000000000000000000000000000000000000000000000000000000608c039b00000000000000000000000000000000000000000000000000000000000000030000000000000000000000008207c1ffc5b6804f6024322ccf34f29c3541ae26000000000000000000000000c02aaa39b223fe8d0a0e5c4f27ead9083c756cc2000000000000000000000000f0939011a9bb95c3b791f0cb546377ed2693a574",
                    "decodedMethod": {
                        "callParams": [
                            {
                                "name": "amountIn",
                                "type": "uint256",
                                "value": "5,000,000,000,000,000,000,000"
                            },
                            {
                                "name": "amountOutMin",
                                "type": "uint256",
                                "value": "32,346,545,380,890,230,497,149"
                            },
                            {
                                "name": "path",
                                "type": "address[]",
                                "value": [
                                    "0x8207c1ffc5b6804f6024322ccf34f29c3541ae26",
                                    "0xc02aaa39b223fe8d0a0e5c4f27ead9083c756cc2",
                                    "0xf0939011a9bb95c3b791f0cb546377ed2693a574"
                                ]
                            },
                            {
                                "name": "to",
                                "type": "address",
                                "value": "0xa351e7b33f0fb40ed3f145a9cef8740505e7576f"
                            },
                            {
                                "name": "deadline",
                                "type": "uint256",
                                "value": "1,619,788,699"
                            }
                        ],
                        "constructorArguments": "",
                        "name": "swapExactTokensForTokens",
                        "returnParams": [
                            {
                                "name": "amounts",
                                "type": "uint256[]",
                                "value": [
                                    "5,000,000,000,000,000,000,000",
                                    "3,296,174,079,362,590,348",
                                    "32,508,278,107,794,681,649,635"
                                ]
                            }
                        ],
                        "signature": "swapExactTokensForTokens(uint256,uint256,address[],address,uint256)"
                    },
                    "errorInfo": "",
                    "fromAddress": "0xa351e7b33f0fb40ed3f145a9cef8740505e7576f",
                    "gasUsed": 147290,
                    "id": 0,
                    "methodDecoded": true,
                    "operation": "CALL",
                    "output": "0x0000000000000000000000000000000000000000000000000000000000000020000000000000000000000000000000000000000000000000000000000000000300000000000000000000000000000000000000000000010f0cf064dd592000000000000000000000000000000000000000000000000000002dbe5cdc7e41e68c0000000000000000000000000000000000000000000006e246fc4eccd5b459e3",
                    "revert": false,
                    "revertMessage": "",
                    "selector": "0x38ed1739",
                    "status": true,
                    "value": "0"
                },
                "nodeType": 0
            },
            "1": {
                "invocation": {
                    "address": "0xce2cc0513634cef3a7c9c257e294ef5e3092f185",
                    "callData": "0x",
                    "decodedMethod": {
                        "callParams": [],
                        "constructorArguments": "",
                        "name": "getReserves",
                        "returnParams": [
                            {
                                "name": "_reserve0",
                                "type": "uint112",
                                "value": "1,683,007,828,583,244,027,953,385"
                            },
                            {
                                "name": "_reserve1",
                                "type": "uint112",
                                "value": "1,116,132,037,658,180,374,336"
                            },
                            {
                                "name": "_blockTimestampLast",
                                "type": "uint32",
                                "value": "1,619,786,322"
                            }
                        ],
                        "signature": "getReserves()"
                    },
                    "errorInfo": "",
                    "fromAddress": "0x7a250d5630b4cf539739df2c5dacb4c659f2488d",
                    "gasUsed": 2504,
                    "id": 1,
                    "methodDecoded": true,
                    "operation": "STATICCALL",
                    "output": "0x000000000000000000000000000000000000000000016464098622d230bc80e900000000000000000000000000000000000000000000003c81718ebaa8c0cf4000000000000000000000000000000000000000000000000000000000608bfa52",
                    "revert": false,
                    "revertMessage": "",
                    "selector": "0x0902f1ac",
                    "status": true,
                    "value": "0"
                },
                "nodeType": 0
            },
            "10": {
                "event": {
                    "contract": "0xce2cc0513634cef3a7c9c257e294ef5e3092f185",
                    "decodedLog": {
                        "name": "Sync",
                        "params": [
                            {
                                "name": "reserve0",
                                "type": "uint112",
                                "value": "1,688,007,828,583,244,027,953,385"
                            },
                            {
                                "name": "reserve1",
                                "type": "uint112",
                                "value": "1,112,835,863,578,817,783,988"
                            }
                        ],
                        "signature": "Sync(uint112,uint112)"
                    },
                    "id": 10,
                    "logData": "0x000000000000000000000000000000000000000000016573167687af89dc80e900000000000000000000000000000000000000000000003c53b331de2a7ee8b4",
                    "logDecoded": true,
                    "operation": "EVENT",
                    "revert": false,
                    "status": true,
                    "topics": [
                        "0x1c411e9a96e071241c2f21f7726b17ae89e3cab4c78be50e062b03a9fffbbad1"
                    ]
                },
                "nodeType": 1
            },
            "11": {
                "event": {
                    "contract": "0xce2cc0513634cef3a7c9c257e294ef5e3092f185",
                    "decodedLog": {
                        "name": "Swap",
                        "params": [
                            {
                                "name": "sender",
                                "type": "address",
                                "value": "0x7a250d5630b4cf539739df2c5dacb4c659f2488d"
                            },
                            {
                                "name": "to",
                                "type": "address",
                                "value": "0x40f0e70a7d565985b967bcdb0ba5801994fc2e80"
                            },
                            {
                                "name": "amount0In",
                                "type": "uint256",
                                "value": "5,000,000,000,000,000,000,000"
                            },
                            {
                                "name": "amount1In",
                                "type": "uint256",
                                "value": "0"
                            },
                            {
                                "name": "amount0Out",
                                "type": "uint256",
                                "value": "0"
                            },
                            {
                                "name": "amount1Out",
                                "type": "uint256",
                                "value": "3,296,174,079,362,590,348"
                            }
                        ],
                        "signature": "Swap(address,uint256,uint256,uint256,uint256,address)"
                    },
                    "id": 11,
                    "logData": "0x00000000000000000000000000000000000000000000010f0cf064dd59200000000000000000000000000000000000000000000000000000000000000000000000000000000000000000000000000000000000000000000000000000000000000000000000000000000000000000000000000000000000002dbe5cdc7e41e68c",
                    "logDecoded": true,
                    "operation": "EVENT",
                    "revert": false,
                    "status": true,
                    "topics": [
                        "0xd78ad95fa46c994b6551d0da85fc275fe613ce37657fb8d5e3d130840159d822",
                        "0x0000000000000000000000007a250d5630b4cf539739df2c5dacb4c659f2488d",
                        "0x00000000000000000000000040f0e70a7d565985b967bcdb0ba5801994fc2e80"
                    ]
                },
                "nodeType": 1
            },
            "12": {
                "invocation": {
                    "address": "0x40f0e70a7d565985b967bcdb0ba5801994fc2e80",
                    "callData": "0x00000000000000000000000000000000000000000000000000000000000000000000000000000000000000000000000000000000000006e246fc4eccd5b459e3000000000000000000000000a351e7b33f0fb40ed3f145a9cef8740505e7576f00000000000000000000000000000000000000000000000000000000000000800000000000000000000000000000000000000000000000000000000000000000",
                    "decodedMethod": {
                        "callParams": [
                            {
                                "name": "amount0Out",
                                "type": "uint256",
                                "value": "0"
                            },
                            {
                                "name": "amount1Out",
                                "type": "uint256",
                                "value": "32,508,278,107,794,681,649,635"
                            },
                            {
                                "name": "to",
                                "type": "address",
                                "value": "0xa351e7b33f0fb40ed3f145a9cef8740505e7576f"
                            },
                            {
                                "name": "data",
                                "type": "bytes",
                                "value": "0x"
                            }
                        ],
                        "constructorArguments": "",
                        "name": "swap",
                        "returnParams": [],
                        "signature": "swap(uint256,uint256,address,bytes)"
                    },
                    "errorInfo": "",
                    "fromAddress": "0x7a250d5630b4cf539739df2c5dacb4c659f2488d",
                    "gasUsed": 47579,
                    "id": 12,
                    "methodDecoded": true,
                    "operation": "CALL",
                    "output": "",
                    "revert": false,
                    "revertMessage": "",
                    "selector": "0x022c0d9f",
                    "status": true,
                    "value": "0"
                },
                "nodeType": 0
            },
            "13": {
                "invocation": {
                    "address": "0xf0939011a9bb95c3b791f0cb546377ed2693a574",
                    "callData": "0x000000000000000000000000a351e7b33f0fb40ed3f145a9cef8740505e7576f0000000000000000000000000000000000000000000006e246fc4eccd5b459e3",
                    "decodedMethod": {
                        "callParams": [
                            {
                                "name": "to",
                                "type": "address",
                                "value": "0xa351e7b33f0fb40ed3f145a9cef8740505e7576f"
                            },
                            {
                                "decimalAvailable": true,
                                "name": "value",
                                "type": "uint256",
                                "value": "32,508,278,107,794,681,649,635"
                            }
                        ],
                        "constructorArguments": "",
                        "name": "transfer",
                        "returnParams": [
                            {
                                "name": "",
                                "type": "bool",
                                "value": true
                            }
                        ],
                        "signature": "transfer(address,uint256)"
                    },
                    "errorInfo": "",
                    "fromAddress": "0x40f0e70a7d565985b967bcdb0ba5801994fc2e80",
                    "gasUsed": 12742,
                    "id": 13,
                    "methodDecoded": true,
                    "operation": "CALL",
                    "output": "0x0000000000000000000000000000000000000000000000000000000000000001",
                    "revert": false,
                    "revertMessage": "",
                    "selector": "0xa9059cbb",
                    "status": true,
                    "value": "0"
                },
                "nodeType": 0
            },
            "14": {
                "event": {
                    "contract": "0xf0939011a9bb95c3b791f0cb546377ed2693a574",
                    "decodedLog": {
                        "name": "Transfer",
                        "params": [
                            {
                                "name": "from",
                                "type": "address",
                                "value": "0x40f0e70a7d565985b967bcdb0ba5801994fc2e80"
                            },
                            {
                                "name": "to",
                                "type": "address",
                                "value": "0xa351e7b33f0fb40ed3f145a9cef8740505e7576f"
                            },
                            {
                                "decimalAvailable": true,
                                "name": "value",
                                "type": "uint256",
                                "value": "32,508,278,107,794,681,649,635"
                            }
                        ],
                        "signature": "Transfer(address,address,uint256)"
                    },
                    "id": 14,
                    "logData": "0x0000000000000000000000000000000000000000000006e246fc4eccd5b459e3",
                    "logDecoded": true,
                    "operation": "EVENT",
                    "revert": false,
                    "status": true,
                    "topics": [
                        "0xddf252ad1be2c89b69c2b068fc378daa952ba7f163c4a11628f55a4df523b3ef",
                        "0x00000000000000000000000040f0e70a7d565985b967bcdb0ba5801994fc2e80",
                        "0x000000000000000000000000a351e7b33f0fb40ed3f145a9cef8740505e7576f"
                    ]
                },
                "nodeType": 1
            },
            "15": {
                "invocation": {
                    "address": "0xc02aaa39b223fe8d0a0e5c4f27ead9083c756cc2",
                    "callData": "0x00000000000000000000000040f0e70a7d565985b967bcdb0ba5801994fc2e80",
                    "decodedMethod": {
                        "callParams": [
                            {
                                "name": "",
                                "type": "address",
                                "value": "0x40f0e70a7d565985b967bcdb0ba5801994fc2e80"
                            }
                        ],
                        "constructorArguments": "",
                        "name": "balanceOf",
                        "returnParams": [
                            {
                                "decimalAvailable": true,
                                "name": "",
                                "type": "uint256",
                                "value": "606,975,598,833,654,950,718"
                            }
                        ],
                        "signature": "balanceOf(address)"
                    },
                    "errorInfo": "",
                    "fromAddress": "0x40f0e70a7d565985b967bcdb0ba5801994fc2e80",
                    "gasUsed": 534,
                    "id": 15,
                    "methodDecoded": true,
                    "operation": "STATICCALL",
                    "output": "0x000000000000000000000000000000000000000000000020e77a833ea201eb3e",
                    "revert": false,
                    "revertMessage": "",
                    "selector": "0x70a08231",
                    "status": true,
                    "value": "0"
                },
                "nodeType": 0
            },
            "16": {
                "invocation": {
                    "address": "0xf0939011a9bb95c3b791f0cb546377ed2693a574",
                    "callData": "0x00000000000000000000000040f0e70a7d565985b967bcdb0ba5801994fc2e80",
                    "decodedMethod": {
                        "callParams": [
                            {
                                "name": "",
                                "type": "address",
                                "value": "0x40f0e70a7d565985b967bcdb0ba5801994fc2e80"
                            }
                        ],
                        "constructorArguments": "",
                        "name": "balanceOf",
                        "returnParams": [
                            {
                                "decimalAvailable": true,
                                "name": "",
                                "type": "uint256",
                                "value": "5,971,659,579,405,978,610,661,554"
                            }
                        ],
                        "signature": "balanceOf(address)"
                    },
                    "errorInfo": "",
                    "fromAddress": "0x40f0e70a7d565985b967bcdb0ba5801994fc2e80",
                    "gasUsed": 480,
                    "id": 16,
                    "methodDecoded": true,
                    "operation": "STATICCALL",
                    "output": "0x00000000000000000000000000000000000000000004f08c5080e54a641f78b2",
                    "revert": false,
                    "revertMessage": "",
                    "selector": "0x70a08231",
                    "status": true,
                    "value": "0"
                },
                "nodeType": 0
            },
            "17": {
                "event": {
                    "contract": "0x40f0e70a7d565985b967bcdb0ba5801994fc2e80",
                    "decodedLog": {
                        "name": "Sync",
                        "params": [
                            {
                                "name": "reserve0",
                                "type": "uint112",
                                "value": "606,975,598,833,654,950,718"
                            },
                            {
                                "name": "reserve1",
                                "type": "uint112",
                                "value": "5,971,659,579,405,978,610,661,554"
                            }
                        ],
                        "signature": "Sync(uint112,uint112)"
                    },
                    "id": 17,
                    "logData": "0x000000000000000000000000000000000000000000000020e77a833ea201eb3e00000000000000000000000000000000000000000004f08c5080e54a641f78b2",
                    "logDecoded": true,
                    "operation": "EVENT",
                    "revert": false,
                    "status": true,
                    "topics": [
                        "0x1c411e9a96e071241c2f21f7726b17ae89e3cab4c78be50e062b03a9fffbbad1"
                    ]
                },
                "nodeType": 1
            },
            "18": {
                "event": {
                    "contract": "0x40f0e70a7d565985b967bcdb0ba5801994fc2e80",
                    "decodedLog": {
                        "name": "Swap",
                        "params": [
                            {
                                "name": "sender",
                                "type": "address",
                                "value": "0x7a250d5630b4cf539739df2c5dacb4c659f2488d"
                            },
                            {
                                "name": "to",
                                "type": "address",
                                "value": "0xa351e7b33f0fb40ed3f145a9cef8740505e7576f"
                            },
                            {
                                "name": "amount0In",
                                "type": "uint256",
                                "value": "3,296,174,079,362,590,348"
                            },
                            {
                                "name": "amount1In",
                                "type": "uint256",
                                "value": "0"
                            },
                            {
                                "name": "amount0Out",
                                "type": "uint256",
                                "value": "0"
                            },
                            {
                                "name": "amount1Out",
                                "type": "uint256",
                                "value": "32,508,278,107,794,681,649,635"
                            }
                        ],
                        "signature": "Swap(address,uint256,uint256,uint256,uint256,address)"
                    },
                    "id": 18,
                    "logData": "0x0000000000000000000000000000000000000000000000002dbe5cdc7e41e68c000000000000000000000000000000000000000000000000000000000000000000000000000000000000000000000000000000000000000000000000000000000000000000000000000000000000000000000000000006e246fc4eccd5b459e3",
                    "logDecoded": true,
                    "operation": "EVENT",
                    "revert": false,
                    "status": true,
                    "topics": [
                        "0xd78ad95fa46c994b6551d0da85fc275fe613ce37657fb8d5e3d130840159d822",
                        "0x0000000000000000000000007a250d5630b4cf539739df2c5dacb4c659f2488d",
                        "0x000000000000000000000000a351e7b33f0fb40ed3f145a9cef8740505e7576f"
                    ]
                },
                "nodeType": 1
            },
            "2": {
                "invocation": {
                    "address": "0x40f0e70a7d565985b967bcdb0ba5801994fc2e80",
                    "callData": "0x",
                    "decodedMethod": {
                        "callParams": [],
                        "constructorArguments": "",
                        "name": "getReserves",
                        "returnParams": [
                            {
                                "name": "_reserve0",
                                "type": "uint112",
                                "value": "603,679,424,754,292,360,370"
                            },
                            {
                                "name": "_reserve1",
                                "type": "uint112",
                                "value": "6,004,167,857,513,773,292,311,189"
                            },
                            {
                                "name": "_blockTimestampLast",
                                "type": "uint32",
                                "value": "1,619,787,499"
                            }
                        ],
                        "signature": "getReserves()"
                    },
                    "errorInfo": "",
                    "fromAddress": "0x7a250d5630b4cf539739df2c5dacb4c659f2488d",
                    "gasUsed": 2504,
                    "id": 2,
                    "methodDecoded": true,
                    "operation": "STATICCALL",
                    "output": "0x000000000000000000000000000000000000000000000020b9bc266223c004b200000000000000000000000000000000000000000004f76e977d341739d3d29500000000000000000000000000000000000000000000000000000000608bfeeb",
                    "revert": false,
                    "revertMessage": "",
                    "selector": "0x0902f1ac",
                    "status": true,
                    "value": "0"
                },
                "nodeType": 0
            },
            "3": {
                "invocation": {
                    "address": "0x8207c1ffc5b6804f6024322ccf34f29c3541ae26",
                    "callData": "0x000000000000000000000000a351e7b33f0fb40ed3f145a9cef8740505e7576f000000000000000000000000ce2cc0513634cef3a7c9c257e294ef5e3092f18500000000000000000000000000000000000000000000010f0cf064dd59200000",
                    "decodedMethod": {
                        "callParams": [
                            {
                                "name": "_from",
                                "type": "address",
                                "value": "0xa351e7b33f0fb40ed3f145a9cef8740505e7576f"
                            },
                            {
                                "name": "_to",
                                "type": "address",
                                "value": "0xce2cc0513634cef3a7c9c257e294ef5e3092f185"
                            },
                            {
                                "decimalAvailable": true,
                                "name": "_value",
                                "type": "uint256",
                                "value": "5,000,000,000,000,000,000,000"
                            }
                        ],
                        "constructorArguments": "",
                        "name": "transferFrom",
                        "returnParams": [
                            {
                                "name": "",
                                "type": "bool",
                                "value": true
                            }
                        ],
                        "signature": "transferFrom(address,address,uint256)"
                    },
                    "errorInfo": "",
                    "fromAddress": "0x7a250d5630b4cf539739df2c5dacb4c659f2488d",
                    "gasUsed": 23625,
                    "id": 3,
                    "methodDecoded": true,
                    "operation": "CALL",
                    "output": "0x0000000000000000000000000000000000000000000000000000000000000001",
                    "revert": false,
                    "revertMessage": "",
                    "selector": "0x23b872dd",
                    "status": true,
                    "value": "0"
                },
                "nodeType": 0
            },
            "4": {
                "event": {
                    "contract": "0x8207c1ffc5b6804f6024322ccf34f29c3541ae26",
                    "decodedLog": {
                        "name": "Transfer",
                        "params": [
                            {
                                "name": "from",
                                "type": "address",
                                "value": "0xa351e7b33f0fb40ed3f145a9cef8740505e7576f"
                            },
                            {
                                "name": "to",
                                "type": "address",
                                "value": "0xce2cc0513634cef3a7c9c257e294ef5e3092f185"
                            },
                            {
                                "decimalAvailable": true,
                                "name": "value",
                                "type": "uint256",
                                "value": "5,000,000,000,000,000,000,000"
                            }
                        ],
                        "signature": "Transfer(address,address,uint256)"
                    },
                    "id": 4,
                    "logData": "0x00000000000000000000000000000000000000000000010f0cf064dd59200000",
                    "logDecoded": true,
                    "operation": "EVENT",
                    "revert": false,
                    "status": true,
                    "topics": [
                        "0xddf252ad1be2c89b69c2b068fc378daa952ba7f163c4a11628f55a4df523b3ef",
                        "0x000000000000000000000000a351e7b33f0fb40ed3f145a9cef8740505e7576f",
                        "0x000000000000000000000000ce2cc0513634cef3a7c9c257e294ef5e3092f185"
                    ]
                },
                "nodeType": 1
            },
            "5": {
                "invocation": {
                    "address": "0xce2cc0513634cef3a7c9c257e294ef5e3092f185",
                    "callData": "0x00000000000000000000000000000000000000000000000000000000000000000000000000000000000000000000000000000000000000002dbe5cdc7e41e68c00000000000000000000000040f0e70a7d565985b967bcdb0ba5801994fc2e8000000000000000000000000000000000000000000000000000000000000000800000000000000000000000000000000000000000000000000000000000000000",
                    "decodedMethod": {
                        "callParams": [
                            {
                                "name": "amount0Out",
                                "type": "uint256",
                                "value": "0"
                            },
                            {
                                "name": "amount1Out",
                                "type": "uint256",
                                "value": "3,296,174,079,362,590,348"
                            },
                            {
                                "name": "to",
                                "type": "address",
                                "value": "0x40f0e70a7d565985b967bcdb0ba5801994fc2e80"
                            },
                            {
                                "name": "data",
                                "type": "bytes",
                                "value": "0x"
                            }
                        ],
                        "constructorArguments": "",
                        "name": "swap",
                        "returnParams": [],
                        "signature": "swap(uint256,uint256,address,bytes)"
                    },
                    "errorInfo": "",
                    "fromAddress": "0x7a250d5630b4cf539739df2c5dacb4c659f2488d",
                    "gasUsed": 48036,
                    "id": 5,
                    "methodDecoded": true,
                    "operation": "CALL",
                    "output": "",
                    "revert": false,
                    "revertMessage": "",
                    "selector": "0x022c0d9f",
                    "status": true,
                    "value": "0"
                },
                "nodeType": 0
            },
            "6": {
                "invocation": {
                    "address": "0xc02aaa39b223fe8d0a0e5c4f27ead9083c756cc2",
                    "callData": "0x00000000000000000000000040f0e70a7d565985b967bcdb0ba5801994fc2e800000000000000000000000000000000000000000000000002dbe5cdc7e41e68c",
                    "decodedMethod": {
                        "callParams": [
                            {
                                "name": "dst",
                                "type": "address",
                                "value": "0x40f0e70a7d565985b967bcdb0ba5801994fc2e80"
                            },
                            {
                                "decimalAvailable": true,
                                "name": "wad",
                                "type": "uint256",
                                "value": "3,296,174,079,362,590,348"
                            }
                        ],
                        "constructorArguments": "",
                        "name": "transfer",
                        "returnParams": [
                            {
                                "name": "",
                                "type": "bool",
                                "value": true
                            }
                        ],
                        "signature": "transfer(address,uint256)"
                    },
                    "errorInfo": "",
                    "fromAddress": "0xce2cc0513634cef3a7c9c257e294ef5e3092f185",
                    "gasUsed": 12862,
                    "id": 6,
                    "methodDecoded": true,
                    "operation": "CALL",
                    "output": "0x0000000000000000000000000000000000000000000000000000000000000001",
                    "revert": false,
                    "revertMessage": "",
                    "selector": "0xa9059cbb",
                    "status": true,
                    "value": "0"
                },
                "nodeType": 0
            },
            "7": {
                "event": {
                    "contract": "0xc02aaa39b223fe8d0a0e5c4f27ead9083c756cc2",
                    "decodedLog": {
                        "name": "Transfer",
                        "params": [
                            {
                                "name": "src",
                                "type": "address",
                                "value": "0xce2cc0513634cef3a7c9c257e294ef5e3092f185"
                            },
                            {
                                "name": "dst",
                                "type": "address",
                                "value": "0x40f0e70a7d565985b967bcdb0ba5801994fc2e80"
                            },
                            {
                                "decimalAvailable": true,
                                "name": "wad",
                                "type": "uint256",
                                "value": "3,296,174,079,362,590,348"
                            }
                        ],
                        "signature": "Transfer(address,address,uint256)"
                    },
                    "id": 7,
                    "logData": "0x0000000000000000000000000000000000000000000000002dbe5cdc7e41e68c",
                    "logDecoded": true,
                    "operation": "EVENT",
                    "revert": false,
                    "status": true,
                    "topics": [
                        "0xddf252ad1be2c89b69c2b068fc378daa952ba7f163c4a11628f55a4df523b3ef",
                        "0x000000000000000000000000ce2cc0513634cef3a7c9c257e294ef5e3092f185",
                        "0x00000000000000000000000040f0e70a7d565985b967bcdb0ba5801994fc2e80"
                    ]
                },
                "nodeType": 1
            },
            "8": {
                "invocation": {
                    "address": "0x8207c1ffc5b6804f6024322ccf34f29c3541ae26",
                    "callData": "0x000000000000000000000000ce2cc0513634cef3a7c9c257e294ef5e3092f185",
                    "decodedMethod": {
                        "callParams": [
                            {
                                "name": "_owner",
                                "type": "address",
                                "value": "0xce2cc0513634cef3a7c9c257e294ef5e3092f185"
                            }
                        ],
                        "constructorArguments": "",
                        "name": "balanceOf",
                        "returnParams": [
                            {
                                "decimalAvailable": true,
                                "name": "",
                                "type": "uint256",
                                "value": "1,688,007,828,583,244,027,953,385"
                            }
                        ],
                        "signature": "balanceOf(address)"
                    },
                    "errorInfo": "",
                    "fromAddress": "0xce2cc0513634cef3a7c9c257e294ef5e3092f185",
                    "gasUsed": 817,
                    "id": 8,
                    "methodDecoded": true,
                    "operation": "STATICCALL",
                    "output": "0x000000000000000000000000000000000000000000016573167687af89dc80e9",
                    "revert": false,
                    "revertMessage": "",
                    "selector": "0x70a08231",
                    "status": true,
                    "value": "0"
                },
                "nodeType": 0
            },
            "9": {
                "invocation": {
                    "address": "0xc02aaa39b223fe8d0a0e5c4f27ead9083c756cc2",
                    "callData": "0x000000000000000000000000ce2cc0513634cef3a7c9c257e294ef5e3092f185",
                    "decodedMethod": {
                        "callParams": [
                            {
                                "name": "",
                                "type": "address",
                                "value": "0xce2cc0513634cef3a7c9c257e294ef5e3092f185"
                            }
                        ],
                        "constructorArguments": "",
                        "name": "balanceOf",
                        "returnParams": [
                            {
                                "decimalAvailable": true,
                                "name": "",
                                "type": "uint256",
                                "value": "1,112,835,863,578,817,783,988"
                            }
                        ],
                        "signature": "balanceOf(address)"
                    },
                    "errorInfo": "",
                    "fromAddress": "0xce2cc0513634cef3a7c9c257e294ef5e3092f185",
                    "gasUsed": 534,
                    "id": 9,
                    "methodDecoded": true,
                    "operation": "STATICCALL",
                    "output": "0x00000000000000000000000000000000000000000000003c53b331de2a7ee8b4",
                    "revert": false,
                    "revertMessage": "",
                    "selector": "0x70a08231",
                    "status": true,
                    "value": "0"
                },
                "nodeType": 0
            }
        },
        "gasFlame": [
            {
                "children": [
                    {
                        "children": [
                            {
                                "children": [],
                                "depth": 0,
                                "name": "Initial Gas",
                                "value": 23464
                            },
                            {
                                "children": [
                                    {
                                        "children": [],
                                        "depth": 1,
                                        "name": "getReserves",
                                        "value": 2504
                                    },
                                    {
                                        "children": [],
                                        "depth": 1,
                                        "name": "getReserves",
                                        "value": 2504
                                    },
                                    {
                                        "children": [],
                                        "depth": 1,
                                        "name": "transferFrom",
                                        "value": 23625
                                    },
                                    {
                                        "children": [
                                            {
                                                "children": [],
                                                "depth": 2,
                                                "name": "transfer",
                                                "value": 12862
                                            },
                                            {
                                                "children": [],
                                                "depth": 2,
                                                "name": "balanceOf",
                                                "value": 817
                                            },
                                            {
                                                "children": [],
                                                "depth": 2,
                                                "name": "balanceOf",
                                                "value": 534
                                            }
                                        ],
                                        "depth": 1,
                                        "name": "swap",
                                        "value": 48036
                                    },
                                    {
                                        "children": [
                                            {
                                                "children": [],
                                                "depth": 2,
                                                "name": "transfer",
                                                "value": 12742
                                            },
                                            {
                                                "children": [],
                                                "depth": 2,
                                                "name": "balanceOf",
                                                "value": 534
                                            },
                                            {
                                                "children": [],
                                                "depth": 2,
                                                "name": "balanceOf",
                                                "value": 480
                                            }
                                        ],
                                        "depth": 1,
                                        "name": "swap",
                                        "value": 47579
                                    }
                                ],
                                "depth": 0,
                                "name": "Executed Gas",
                                "value": 144426
                            }
                        ],
                        "depth": -1,
                        "name": "Actual Gas Used",
                        "value": 147290
                    },
                    {
                        "children": [],
                        "depth": -1,
                        "name": "Refunded Gas",
                        "value": 20600
                    }
                ],
                "depth": -2,
                "name": "Total Gas",
                "value": 167890
            }
        ],
        "isConfirmed": true,
        "mainTrace": [
            {
                "children": [
                    {
                        "children": [
                            {
                                "children": [],
                                "depth": 1,
                                "id": 1,
                                "order": 1
                            },
                            {
                                "children": [],
                                "depth": 1,
                                "id": 2,
                                "order": 2
                            },
                            {
                                "children": [
                                    {
                                        "children": [],
                                        "depth": 2,
                                        "id": 4,
                                        "order": 4
                                    }
                                ],
                                "depth": 1,
                                "id": 3,
                                "order": 3
                            },
                            {
                                "children": [
                                    {
                                        "children": [
                                            {
                                                "children": [],
                                                "depth": 3,
                                                "id": 7,
                                                "order": 7
                                            }
                                        ],
                                        "depth": 2,
                                        "id": 6,
                                        "order": 6
                                    },
                                    {
                                        "children": [],
                                        "depth": 2,
                                        "id": 8,
                                        "order": 8
                                    },
                                    {
                                        "children": [],
                                        "depth": 2,
                                        "id": 9,
                                        "order": 9
                                    },
                                    {
                                        "children": [],
                                        "depth": 2,
                                        "id": 10,
                                        "order": 10
                                    },
                                    {
                                        "children": [],
                                        "depth": 2,
                                        "id": 11,
                                        "order": 11
                                    }
                                ],
                                "depth": 1,
                                "id": 5,
                                "order": 5
                            },
                            {
                                "children": [
                                    {
                                        "children": [
                                            {
                                                "children": [],
                                                "depth": 3,
                                                "id": 14,
                                                "order": 14
                                            }
                                        ],
                                        "depth": 2,
                                        "id": 13,
                                        "order": 13
                                    },
                                    {
                                        "children": [],
                                        "depth": 2,
                                        "id": 15,
                                        "order": 15
                                    },
                                    {
                                        "children": [],
                                        "depth": 2,
                                        "id": 16,
                                        "order": 16
                                    },
                                    {
                                        "children": [],
                                        "depth": 2,
                                        "id": 17,
                                        "order": 17
                                    },
                                    {
                                        "children": [],
                                        "depth": 2,
                                        "id": 18,
                                        "order": 18
                                    }
                                ],
                                "depth": 1,
                                "id": 12,
                                "order": 12
                            }
                        ],
                        "depth": 0,
                        "id": 0,
                        "order": 0
                    }
                ],
                "depth": -1,
                "id": -1,
                "order": -1
            }
        ],
        "mainTraceNodeCount": 19,
        "parentIdMap": {
            "0": -1,
            "1": 0,
            "10": 5,
            "11": 5,
            "12": 0,
            "13": 12,
            "14": 13,
            "15": 12,
            "16": 12,
            "17": 12,
            "18": 12,
            "2": 0,
            "3": 0,
            "4": 3,
            "5": 0,
            "6": 5,
            "7": 6,
            "8": 5,
            "9": 5
        },
        "tidyTrace": [
            {
                "children": [
                    {
                        "children": [
                            {
                                "children": [
                                    {
                                        "children": [],
                                        "depth": 2,
                                        "id": 4,
                                        "order": 4
                                    }
                                ],
                                "depth": 1,
                                "id": 3,
                                "order": 3
                            },
                            {
                                "children": [
                                    {
                                        "children": [
                                            {
                                                "children": [],
                                                "depth": 3,
                                                "id": 7,
                                                "order": 7
                                            }
                                        ],
                                        "depth": 2,
                                        "id": 6,
                                        "order": 6
                                    },
                                    {
                                        "children": [],
                                        "depth": 2,
                                        "id": 10,
                                        "order": 10
                                    },
                                    {
                                        "children": [],
                                        "depth": 2,
                                        "id": 11,
                                        "order": 11
                                    }
                                ],
                                "depth": 1,
                                "id": 5,
                                "order": 5
                            },
                            {
                                "children": [
                                    {
                                        "children": [
                                            {
                                                "children": [],
                                                "depth": 3,
                                                "id": 14,
                                                "order": 14
                                            }
                                        ],
                                        "depth": 2,
                                        "id": 13,
                                        "order": 13
                                    },
                                    {
                                        "children": [],
                                        "depth": 2,
                                        "id": 17,
                                        "order": 17
                                    },
                                    {
                                        "children": [],
                                        "depth": 2,
                                        "id": 18,
                                        "order": 18
                                    }
                                ],
                                "depth": 1,
                                "id": 12,
                                "order": 12
                            }
                        ],
                        "depth": 0,
                        "id": 0,
                        "order": 0
                    }
                ],
                "depth": -1,
                "id": -1,
                "order": -1
            }
        ],
        "tidyTraceNodeCount": 13
    },
    "state_change": {
        "stateChanges": [
            {
                "address": "0x40f0e70a7d565985b967bcdb0ba5801994fc2e80",
                "erc": "ERC-20",
                "slots": [
                    {
                        "current": "0x000000000000000000000000002b2c5265bb03babc2825f619a157fe97d911f3",
                        "key": "0x0000000000000000000000000000000000000000000000000000000000000009",
                        "prev": "0x000000000000000000000000002b2c4f838de2ec9b1e373c48603ecf9e22d563"
                    },
                    {
                        "current": "0x0000000000000000000000000000000003ec50596c9282b10ed63605b6ae8744",
                        "key": "0x000000000000000000000000000000000000000000000000000000000000000a",
                        "prev": "0x0000000000000000000000000000000003ec4fdc3aa52df87a7a160c142a13eb"
                    },
                    {
                        "current": "0x608bfefe00000004f08c5080e54a641f78b2000000000020e77a833ea201eb3e",
                        "key": "0x0000000000000000000000000000000000000000000000000000000000000008",
                        "prev": "0x608bfeeb00000004f76e977d341739d3d295000000000020b9bc266223c004b2"
                    }
                ],
                "storageVariables": [
                    {
                        "name": "price1CumulativeLast",
                        "type": "uint256",
                        "value": {
                            "current": "5214695723645224246359158662018008900",
                            "prev": "5214685804673228979146458601844511723",
                            "typeTag": 1
                        }
                    },
                    {
                        "name": "reserve0",
                        "type": "uint112",
                        "value": {
                            "current": "606975598833654950718",
                            "prev": "603679424754292360370",
                            "typeTag": 1
                        }
                    },
                    {
                        "name": "reserve1",
                        "type": "uint112",
                        "value": {
                            "current": "5971659579405978610661554",
                            "prev": "6004167857513773292311189",
                            "typeTag": 1
                        }
                    },
                    {
                        "name": "blockTimestampLast",
                        "type": "uint32",
                        "value": {
                            "current": "1619787518",
                            "prev": "1619787499",
                            "typeTag": 1
                        }
                    },
                    {
                        "name": "price0CumulativeLast",
                        "type": "uint256",
                        "value": {
                            "current": "962793022494964491613764018520800999541117427",
                            "prev": "962792041290384875377974772890351336457164131",
                            "typeTag": 1
                        }
                    }
                ]
            },
            {
                "address": "0x8207c1ffc5b6804f6024322ccf34f29c3541ae26",
                "erc": "ERC-20",
                "slots": [
                    {
                        "current": "0x0000000000000000000000000000000000000000000000000000000000000000",
                        "key": "0xae711af754a968f4a3569b0d37a501856eb139c2132cdd1dcdf5a1398d7b5596",
                        "prev": "0x00000000000000000000000000000000000000000000010f0cf064dd59200000"
                    },
                    {
                        "current": "0x000000000000000000000000000000000000000000016573167687af89dc80e9",
                        "key": "0x7c09e0e36b7b2eb949f0809ca071f5ef0c699f657b2bdb3eb59262207ebef234",
                        "prev": "0x000000000000000000000000000000000000000000016464098622d230bc80e9"
                    },
                    {
                        "current": "0xfffffffffffffffffffffffffffffffffffffffffffffef0f30f9b22a6dfffff",
                        "key": "0x8f6579861c01bd8a1e82084e384261bff26bd75a206dd779792fabf1d14936f9",
                        "prev": "0xffffffffffffffffffffffffffffffffffffffffffffffffffffffffffffffff"
                    }
                ],
                "storageVariables": [
                    {
                        "name": "balances",
                        "type": "mapping(address => uint256)",
                        "value": {
                            "pairs": [
                                {
                                    "key": "0xa351e7b33f0fb40ed3f145a9cef8740505e7576f",
                                    "value": {
                                        "current": "0",
                                        "prev": "5000000000000000000000",
                                        "typeTag": 1
                                    }
                                },
                                {
                                    "key": "0xce2cc0513634cef3a7c9c257e294ef5e3092f185",
                                    "value": {
                                        "current": "1688007828583244027953385",
                                        "prev": "1683007828583244027953385",
                                        "typeTag": 1
                                    }
                                }
                            ],
                            "typeTag": 4
                        }
                    },
                    {
                        "name": "allowed",
                        "type": "mapping(address => mapping(address => uint256))",
                        "value": {
                            "pairs": [
                                {
                                    "key": "0xa351e7b33f0fb40ed3f145a9cef8740505e7576f",
                                    "value": {
                                        "pairs": [
                                            {
                                                "key": "0x7a250d5630b4cf539739df2c5dacb4c659f2488d",
                                                "value": {
                                                    "current": "115792089237316195423570985008687907853269984665640564034457584007913129639935",
                                                    "prev": "115792089237316195423570985008687907853269984665640564039457584007913129639935",
                                                    "typeTag": 1
                                                }
                                            }
                                        ],
                                        "typeTag": 4
                                    }
                                }
                            ],
                            "typeTag": 4
                        }
                    }
                ]
            },
            {
                "address": "0xc02aaa39b223fe8d0a0e5c4f27ead9083c756cc2",
                "erc": "ERC-20",
                "slots": [
                    {
                        "current": "0x00000000000000000000000000000000000000000000003c53b331de2a7ee8b4",
                        "key": "0x3abce20e0c4df616d0c651566c97f394ba5a2f406b4f46ab294c03bcf8e58861",
                        "prev": "0x00000000000000000000000000000000000000000000003c81718ebaa8c0cf40"
                    },
                    {
                        "current": "0x000000000000000000000000000000000000000000000020e77a833ea201eb3e",
                        "key": "0x2f6afe62a61001215d0289d9433b242ce86d24881ce05805bfb6660aead3f313",
                        "prev": "0x000000000000000000000000000000000000000000000020b9bc266223c004b2"
                    }
                ],
                "storageVariables": [
                    {
                        "name": "balanceOf",
                        "type": "mapping(address => uint256)",
                        "value": {
                            "pairs": [
                                {
                                    "key": "0x40f0e70a7d565985b967bcdb0ba5801994fc2e80",
                                    "value": {
                                        "current": "606975598833654950718",
                                        "prev": "603679424754292360370",
                                        "typeTag": 1
                                    }
                                },
                                {
                                    "key": "0xce2cc0513634cef3a7c9c257e294ef5e3092f185",
                                    "value": {
                                        "current": "1112835863578817783988",
                                        "prev": "1116132037658180374336",
                                        "typeTag": 1
                                    }
                                }
                            ],
                            "typeTag": 4
                        }
                    }
                ]
            },
            {
                "address": "0xce2cc0513634cef3a7c9c257e294ef5e3092f185",
                "erc": "ERC-20",
                "slots": [
                    {
                        "current": "0x000000000000000000000000000000004a1248f767ad8904f2530181b82b2220",
                        "key": "0x0000000000000000000000000000000000000000000000000000000000000009",
                        "prev": "0x000000000000000000000000000000004a117deae4bd798e4b8c0b531273f9e4"
                    },
                    {
                        "current": "0x0000000000000000000000000012b005dac931ab8dcc4ce1042b13b8156bbbe6",
                        "key": "0x000000000000000000000000000000000000000000000000000000000000000a",
                        "prev": "0x0000000000000000000000000012afea56190391ef4a7f3c1ce9d454b4981c3a"
                    },
                    {
                        "current": "0x608bfefe00000000003c53b331de2a7ee8b4000000016573167687af89dc80e9",
                        "key": "0x0000000000000000000000000000000000000000000000000000000000000008",
                        "prev": "0x608bfa5200000000003c81718ebaa8c0cf40000000016464098622d230bc80e9"
                    }
                ],
                "storageVariables": [
                    {
                        "name": "price1CumulativeLast",
                        "type": "uint256",
                        "value": {
                            "current": "416747168125737804297665872191733430125050854",
                            "prev": "416737804128956227646742532143997869283089466",
                            "typeTag": 1
                        }
                    },
                    {
                        "name": "reserve0",
                        "type": "uint112",
                        "value": {
                            "current": "1688007828583244027953385",
                            "prev": "1683007828583244027953385",
                            "typeTag": 1
                        }
                    },
                    {
                        "name": "reserve1",
                        "type": "uint112",
                        "value": {
                            "current": "1112835863578817783988",
                            "prev": "1116132037658180374336",
                            "typeTag": 1
                        }
                    },
                    {
                        "name": "blockTimestampLast",
                        "type": "uint32",
                        "value": {
                            "current": "1619787518",
                            "prev": "1619786322",
                            "typeTag": 1
                        }
                    },
                    {
                        "name": "price0CumulativeLast",
                        "type": "uint256",
                        "value": {
                            "current": "98457812966471752669605485401126674976",
                            "prev": "98453694646060994711624395972137974244",
                            "typeTag": 1
                        }
                    }
                ]
            },
            {
                "address": "0xf0939011a9bb95c3b791f0cb546377ed2693a574",
                "erc": "ERC-20",
                "slots": [
                    {
                        "current": "0x0000000000000000000000000000000000000000000011ae62342b6402f73ce8",
                        "key": "0x1281e7d62107127eaefeaba86e1f4535aae9e152ea264671cd2965b5e2e60fe6",
                        "prev": "0x000000000000000000000000000000000000000000000acc1b37dc972d42e305"
                    },
                    {
                        "current": "0x00000000000000000000000000000000000000000004f08c5080e54a641f78b2",
                        "key": "0xf7728c38e74b35748e5b5e4c52ae49deea434285304f47d9466dc75ea3707657",
                        "prev": "0x00000000000000000000000000000000000000000004f76e977d341739d3d295"
                    }
                ],
                "storageVariables": [
                    {
                        "name": "balanceOf",
                        "type": "mapping(address => uint256)",
                        "value": {
                            "pairs": [
                                {
                                    "key": "0x40f0e70a7d565985b967bcdb0ba5801994fc2e80",
                                    "value": {
                                        "current": "5971659579405978610661554",
                                        "prev": "6004167857513773292311189",
                                        "typeTag": 1
                                    }
                                },
                                {
                                    "key": "0xa351e7b33f0fb40ed3f145a9cef8740505e7576f",
                                    "value": {
                                        "current": "83497040006232482987240",
                                        "prev": "50988761898437801337605",
                                        "typeTag": 1
                                    }
                                }
                            ],
                            "typeTag": 4
                        }
                    }
                ]
            }
        ]
    }
}