{
    "balance_change": {
        "balanceChanges": [
            {
                "account": "0x29d5b3c621606fc8b1a76395f3cc091dd7fb5152",
                "assets": [
                    {
                        "address": "0x03495bd33e4f184106933a075cb43a6604b2c436",
                        "amount": "216.4833",
                        "iconUrl": "",
                        "isERC1155": false,
                        "isERC721": false,
                        "sign": false,
                        "value": ""
                    }
                ]
            },
            {
                "account": "0xa2bae0b6cb8f2aab9ff70a78a9f27d6572fa5e5d",
                "assets": [
                    {
                        "address": "0x03495bd33e4f184106933a075cb43a6604b2c436",
                        "amount": "216.4833",
                        "iconUrl": "",
                        "isERC1155": false,
                        "isERC721": false,
                        "sign": true,
                        "value": ""
                    }
                ]
            }
        ]
    },
    "profile": {
        "basic_info": {
            "baseFee": "",
            "blockNumber": 9247528,
            "callData": "0xa9059cbb000000000000000000000000a2bae0b6cb8f2aab9ff70a78a9f27d6572fa5e5d0000000000000000000000000000000000000000000000000000000000210861",
            "debugEnable": true,
            "errorInfo": "",
            "eventCount": 1,
            "feeRecipient": "0x5a0b54d5dc17e0aadc383d2db43b0a0d3e029c4c",
            "formatValue": "0",
            "gasLimit": 90000,
            "gasPrice": "6",
            "gasUsed": 53511,
            "intTxnCount": 0,
            "internalRevert": false,
            "internalRevertMessage": "",
            "isContractCreation": false,
            "isFlashloan": false,
            "maxFee": "",
            "nonce": 2758,
            "overwritedBlockNumber": -1,
            "priorityFee": "",
            "receiver": "0x03495bd33e4f184106933a075cb43a6604b2c436",
            "revertMessage": "",
            "sender": "0x29d5b3c621606fc8b1a76395f3cc091dd7fb5152",
            "simulationEnable": true,
            "sourceTxnHash": "0x578d6998d17e39bc35d97b374af16da49ddb8d999d41c286391e78e9037a8f35",
            "status": true,
            "timestamp": "2020-01-09T16:24:43Z",
            "transactionFee": "0.000321066",
            "txnHash": "0x578d6998d17e39bc35d97b374af16da49ddb8d999d41c286391e78e9037a8f35",
            "txnIndex": 49,
            "type": 0,
            "value": "0"
        },
        "fund_flow": [
            {
                "amount": "216.4833",
                "from": "0x29d5b3c621606fc8b1a76395f3cc091dd7fb5152",
                "id": 1,
                "isERC1155": false,
                "isERC721": false,
                "isReverted": false,
                "order": 1,
                "to": "0xa2bae0b6cb8f2aab9ff70a78a9f27d6572fa5e5d",
                "token": "0x03495bd33e4f184106933a075cb43a6604b2c436"
            }
        ],
        "token_infos": [
            {
                "address": "0x03495bd33e4f184106933a075cb43a6604b2c436",
                "decimals": 4
            },
            {
                "address": "0xc02aaa39b223fe8d0a0e5c4f27ead9083c756cc2",
                "decimals": 18
            },
            {
                "address": "0xeeeeeeeeeeeeeeeeeeeeeeeeeeeeeeeeeeeeeeee",
                "decimals": 18
            }
        ]
    },
    "address_label": {
        "labels": [
            {
                "address": "0x0000000000000000000000000000000000000004",
                "label": "Precompiled"
            },
            {
                "address": "0xeeeeeeeeeeeeeeeeeeeeeeeeeeeeeeeeeeeeeeee",
                "label": "Ether"
            },
            {
                "address": "0x03495bd33e4f184106933a075cb43a6604b2c436",
                "label": "Green Space Token (GST)"
            },
            {
                "address": "0x0000000000000000000000000000000000000001",
                "label": "Precompiled"
            },
            {
                "address": "0x0000000000000000000000000000000000000002",
                "label": "Precompiled"
            },
            {
                "address": "0x0000000000000000000000000000000000000003",
                "label": "Precompiled"
            }
        ]
    },
    "trace": {
        "accountLabels": null,
        "dataMap": {
            "-1": {
                "invocation": {
                    "address": "0x29d5b3c621606fc8b1a76395f3cc091dd7fb5152",
                    "callData": "",
                    "decodedMethod": null,
                    "errorInfo": "",
                    "fromAddress": "",
                    "gasUsed": 0,
                    "id": -1,
                    "methodDecoded": false,
                    "operation": "",
                    "output": "",
                    "revert": false,
                    "revertMessage": "",
                    "selector": "",
                    "status": false,
                    "value": ""
                },
                "nodeType": 0
            },
            "0": {
                "invocation": {
                    "address": "0x03495bd33e4f184106933a075cb43a6604b2c436",
                    "callData": "0x000000000000000000000000a2bae0b6cb8f2aab9ff70a78a9f27d6572fa5e5d0000000000000000000000000000000000000000000000000000000000210861",
                    "decodedMethod": {
                        "callParams": [
                            {
                                "name": "_to",
                                "type": "address",
                                "value": "0xa2bae0b6cb8f2aab9ff70a78a9f27d6572fa5e5d"
                            },
                            {
                                "decimalAvailable": true,
                                "name": "_value",
                                "type": "uint256",
                                "value": "2,164,833"
                            }
                        ],
                        "constructorArguments": "",
                        "name": "transfer",
                        "returnParams": [
                            {
                                "name": "success",
                                "type": "bool",
                                "value": true
                            }
                        ],
                        "signature": "transfer(address,uint256)"
                    },
                    "errorInfo": "",
                    "fromAddress": "0x29d5b3c621606fc8b1a76395f3cc091dd7fb5152",
                    "gasUsed": 53511,
                    "id": 0,
                    "methodDecoded": true,
                    "operation": "CALL",
                    "output": "0x0000000000000000000000000000000000000000000000000000000000000001",
                    "revert": false,
                    "revertMessage": "",
                    "selector": "0xa9059cbb",
                    "status": true,
                    "value": "0"
                },
                "nodeType": 0
            },
            "1": {
                "event": {
                    "contract": "0x03495bd33e4f184106933a075cb43a6604b2c436",
                    "decodedLog": {
                        "name": "Transfer",
                        "params": [
                            {
                                "name": "_from",
                                "type": "address",
                                "value": "0x29d5b3c621606fc8b1a76395f3cc091dd7fb5152"
                            },
                            {
                                "name": "_to",
                                "type": "address",
                                "value": "0xa2bae0b6cb8f2aab9ff70a78a9f27d6572fa5e5d"
                            },
                            {
                                "decimalAvailable": true,
                                "name": "_value",
                                "type": "uint256",
                                "value": "2,164,833"
                            }
                        ],
                        "signature": "Transfer(address,address,uint256)"
                    },
                    "id": 1,
                    "logData": "0x0000000000000000000000000000000000000000000000000000000000210861",
                    "logDecoded": true,
                    "operation": "EVENT",
                    "revert": false,
                    "status": true,
                    "topics": [
                        "0xddf252ad1be2c89b69c2b068fc378daa952ba7f163c4a11628f55a4df523b3ef",
                        "0x00000000000000000000000029d5b3c621606fc8b1a76395f3cc091dd7fb5152",
                        "0x000000000000000000000000a2bae0b6cb8f2aab9ff70a78a9f27d6572fa5e5d"
                    ]
                },
                "nodeType": 1
            }
        },
        "gasFlame": [
            {
                "children": [
                    {
                        "children": [
                            {
                                "children": [],
                                "depth": 0,
                                "name": "Initial Gas",
                                "value": 21596
                            },
                            {
                                "children": [],
                                "depth": 0,
                                "name": "Executed Gas",
                                "value": 31915
                            }
                        ],
                        "depth": -1,
                        "name": "Actual Gas Used",
                        "value": 53511
                    },
                    {
                        "children": [],
                        "depth": -1,
                        "name": "Refunded Gas",
                        "value": 0
                    }
                ],
                "depth": -2,
                "name": "Total Gas",
                "value": 53511
            }
        ],
        "isConfirmed": true,
        "mainTrace": [
            {
                "children": [
                    {
                        "children": [
                            {
                                "children": [],
                                "depth": 1,
                                "id": 1,
                                "order": 1
                            }
                        ],
                        "depth": 0,
                        "id": 0,
                        "order": 0
                    }
                ],
                "depth": -1,
                "id": -1,
                "order": -1
            }
        ],
        "mainTraceNodeCount": 2,
        "parentIdMap": {
            "0": -1,
            "1": 0
        },
        "tidyTrace": [
            {
                "children": [
                    {
                        "children": [
                            {
                                "children": [],
                                "depth": 1,
                                "id": 1,
                                "order": 1
                            }
                        ],
                        "depth": 0,
                        "id": 0,
                        "order": 0
                    }
                ],
                "depth": -1,
                "id": -1,
                "order": -1
            }
        ],
        "tidyTraceNodeCount": 2
    },
    "state_change": {
        "stateChanges": [
            {
                "address": "0x03495bd33e4f184106933a075cb43a6604b2c436",
                "erc": "ERC-20",
                "slots": [
                    {
                        "current": "0x00000000000000000000000000000000000000000000000000000001171c86f9",
                        "key": "0x1a3900d444ead93ae3df8927a26d21b5905052a54ac9f9809f6ecb0314763434",
                        "prev": "0x00000000000000000000000000000000000000000000000000000001173d8f5a"
                    },
                    {
                        "current": "0x0000000000000000000000000000000000000000000000000000000000210861",
                        "key": "0x07b5c639d7d6d18e67bbc7fb33dc967aa1c7db0501069949236bbd6b00627510",
                        "prev": "0x0000000000000000000000000000000000000000000000000000000000000000"
                    }
                ],
                "storageVariables": [
                    {
                        "name": "balances",
                        "type": "mapping(address => uint256)",
                        "value": {
                            "pairs": [
                                {
                                    "key": "0x29d5b3c621606fc8b1a76395f3cc091dd7fb5152",
                                    "value": {
                                        "current": "4682712825",
                                        "prev": "4684877658",
                                        "typeTag": 1
                                    }
                                },
                                {
                                    "key": "0xa2bae0b6cb8f2aab9ff70a78a9f27d6572fa5e5d",
                                    "value": {
                                        "current": "2164833",
                                        "prev": "0",
                                        "typeTag": 1
                                    }
                                }
                            ],
                            "typeTag": 4
                        }
                    }
                ]
            }
        ]
    }
}