{
    "balance_change": {
        "balanceChanges": [
            {
                "account": "0x735b1c7fde46d12e16952f650ba05211d37b0e17",
                "assets": [
                    {
                        "address": "0x8a2279d4a90b6fe1c4b30fa660cc9f926797baa2",
                        "amount": "9,965",
                        "iconUrl": "https://assets.blocksec.com/icon/194920f84f1770f21ed32d2b5773bc3a34b3e63236061794a210390833b73e55.png",
                        "isERC1155": false,
                        "isERC721": false,
                        "sign": false,
                        "value": "5064.2129999999998513"
                    }
                ]
            },
            {
                "account": "0xbede75f0dfd98f7ce50afc17f6a2dc1f88cf97ca",
                "assets": [
                    {
                        "address": "0x8a2279d4a90b6fe1c4b30fa660cc9f926797baa2",
                        "amount": "9,965",
                        "iconUrl": "https://assets.blocksec.com/icon/194920f84f1770f21ed32d2b5773bc3a34b3e63236061794a210390833b73e55.png",
                        "isERC1155": false,
                        "isERC721": false,
                        "sign": true,
                        "value": "5064.2129999999998513"
                    }
                ]
            }
        ]
    },
    "profile": {
        "basic_info": {
            "baseFee": "28.243326984",
            "blockNumber": 19510670,
            "callData": "0xa9059cbb000000000000000000000000bede75f0dfd98f7ce50afc17f6a2dc1f88cf97ca0000000000000000000000000000000000000000000000000000000251f5d540",
            "debugEnable": true,
            "errorInfo": "",
            "eventCount": 1,
            "feeRecipient": "0x95222290dd7278aa3ddd389cc1e1d165cc4bafe5",
            "formatValue": "0",
            "gasLimit": 500000,
            "gasPrice": "30.243326984",
            "gasUsed": 51478,
            "intTxnCount": 0,
            "internalRevert": false,
            "internalRevertMessage": "",
            "isContractCreation": false,
            "isFlashloan": false,
            "maxFee": "113.314928483",
            "nonce": 1017,
            "overwritedBlockNumber": -1,
            "priorityFee": "2",
            "receiver": "0x8a2279d4a90b6fe1c4b30fa660cc9f926797baa2",
            "revertMessage": "",
            "sender": "0x735b1c7fde46d12e16952f650ba05211d37b0e17",
            "simulationEnable": true,
            "sourceTxnHash": "0x57be69cf564c550e7555593cb09d0c6aa1b99992f61cd08c8d31265b1cfc995d",
            "status": true,
            "timestamp": "2024-03-25T09:40:47Z",
            "transactionFee": "0.001556865986482352",
            "txnHash": "0x57be69cf564c550e7555593cb09d0c6aa1b99992f61cd08c8d31265b1cfc995d",
            "txnIndex": 34,
            "type": 2,
            "value": "0"
        },
        "fund_flow": [
            {
                "amount": "9,965",
                "from": "0x735b1c7fde46d12e16952f650ba05211d37b0e17",
                "id": 1,
                "isERC1155": false,
                "isERC721": false,
                "isReverted": false,
                "order": 1,
                "to": "0xbede75f0dfd98f7ce50afc17f6a2dc1f88cf97ca",
                "token": "0x8a2279d4a90b6fe1c4b30fa660cc9f926797baa2"
            }
        ],
        "token_infos": [
            {
                "address": "0x8a2279d4a90b6fe1c4b30fa660cc9f926797baa2",
                "decimals": 6
            },
            {
                "address": "0xc02aaa39b223fe8d0a0e5c4f27ead9083c756cc2",
                "decimals": 18
            },
            {
                "address": "0xeeeeeeeeeeeeeeeeeeeeeeeeeeeeeeeeeeeeeeee",
                "decimals": 18
            }
        ]
    },
    "address_label": {
        "labels": [
            {
                "address": "0x0000000000000000000000000000000000000001",
                "label": "Precompiled"
            },
            {
                "address": "0x0000000000000000000000000000000000000002",
                "label": "Precompiled"
            },
            {
                "address": "0x0000000000000000000000000000000000000003",
                "label": "Precompiled"
            },
            {
                "address": "0x0000000000000000000000000000000000000004",
                "label": "Precompiled"
            },
            {
                "address": "0xeeeeeeeeeeeeeeeeeeeeeeeeeeeeeeeeeeeeeeee",
                "label": "Ether"
            },
            {
                "address": "0x8a2279d4a90b6fe1c4b30fa660cc9f926797baa2",
                "label": "Chromia: CHR Token"
            },
            {
                "address": "0x735b1c7fde46d12e16952f650ba05211d37b0e17",
                "label": "Kraken: CHR"
            }
        ]
    },
    "trace": {
        "accountLabels": null,
        "dataMap": {
            "-1": {
                "invocation": {
                    "address": "0x735b1c7fde46d12e16952f650ba05211d37b0e17",
                    "callData": "",
                    "decodedMethod": null,
                    "errorInfo": "",
                    "fromAddress": "",
                    "gasUsed": 0,
                    "id": -1,
                    "methodDecoded": false,
                    "operation": "",
                    "output": "",
                    "revert": false,
                    "revertMessage": "",
                    "selector": "",
                    "status": false,
                    "value": ""
                },
                "nodeType": 0
            },
            "0": {
                "invocation": {
                    "address": "0x8a2279d4a90b6fe1c4b30fa660cc9f926797baa2",
                    "callData": "0x000000000000000000000000bede75f0dfd98f7ce50afc17f6a2dc1f88cf97ca0000000000000000000000000000000000000000000000000000000251f5d540",
                    "decodedMethod": {
                        "callParams": [
                            {
                                "name": "to",
                                "type": "address",
                                "value": "0xbede75f0dfd98f7ce50afc17f6a2dc1f88cf97ca"
                            },
                            {
                                "decimalAvailable": true,
                                "name": "value",
                                "type": "uint256",
                                "value": "9,965,000,000"
                            }
                        ],
                        "constructorArguments": "",
                        "name": "transfer",
                        "returnParams": [
                            {
                                "name": "",
                                "type": "bool",
                                "value": true
                            }
                        ],
                        "signature": "transfer(address,uint256)"
                    },
                    "errorInfo": "",
                    "fromAddress": "0x735b1c7fde46d12e16952f650ba05211d37b0e17",
                    "gasUsed": 51478,
                    "id": 0,
                    "methodDecoded": true,
                    "operation": "CALL",
                    "output": "0x0000000000000000000000000000000000000000000000000000000000000001",
                    "revert": false,
                    "revertMessage": "",
                    "selector": "0xa9059cbb",
                    "status": true,
                    "value": "0"
                },
                "nodeType": 0
            },
            "1": {
                "event": {
                    "contract": "0x8a2279d4a90b6fe1c4b30fa660cc9f926797baa2",
                    "decodedLog": {
                        "name": "Transfer",
                        "params": [
                            {
                                "name": "from",
                                "type": "address",
                                "value": "0x735b1c7fde46d12e16952f650ba05211d37b0e17"
                            },
                            {
                                "name": "to",
                                "type": "address",
                                "value": "0xbede75f0dfd98f7ce50afc17f6a2dc1f88cf97ca"
                            },
                            {
                                "decimalAvailable": true,
                                "name": "value",
                                "type": "uint256",
                                "value": "9,965,000,000"
                            }
                        ],
                        "signature": "Transfer(address,address,uint256)"
                    },
                    "id": 1,
                    "logData": "0x0000000000000000000000000000000000000000000000000000000251f5d540",
                    "logDecoded": true,
                    "operation": "EVENT",
                    "revert": false,
                    "status": true,
                    "topics": [
                        "0xddf252ad1be2c89b69c2b068fc378daa952ba7f163c4a11628f55a4df523b3ef",
                        "0x000000000000000000000000735b1c7fde46d12e16952f650ba05211d37b0e17",
                        "0x000000000000000000000000bede75f0dfd98f7ce50afc17f6a2dc1f88cf97ca"
                    ]
                },
                "nodeType": 1
            }
        },
        "gasFlame": [
            {
                "children": [
                    {
                        "children": [
                            {
                                "children": [],
                                "depth": 0,
                                "name": "Initial Gas",
                                "value": 21620
                            },
                            {
                                "children": [],
                                "depth": 0,
                                "name": "Executed Gas",
                                "value": 29858
                            }
                        ],
                        "depth": -1,
                        "name": "Actual Gas Used",
                        "value": 51478
                    },
                    {
                        "children": [],
                        "depth": -1,
                        "name": "Refunded Gas",
                        "value": 0
                    }
                ],
                "depth": -2,
                "name": "Total Gas",
                "value": 51478
            }
        ],
        "isConfirmed": true,
        "mainTrace": [
            {
                "children": [
                    {
                        "children": [
                            {
                                "children": [],
                                "depth": 1,
                                "id": 1,
                                "order": 1
                            }
                        ],
                        "depth": 0,
                        "id": 0,
                        "order": 0
                    }
                ],
                "depth": -1,
                "id": -1,
                "order": -1
            }
        ],
        "mainTraceNodeCount": 2,
        "parentIdMap": {
            "0": -1,
            "1": 0
        },
        "tidyTrace": [
            {
                "children": [
                    {
                        "children": [
                            {
                                "children": [],
                                "depth": 1,
                                "id": 1,
                                "order": 1
                            }
                        ],
                        "depth": 0,
                        "id": 0,
                        "order": 0
                    }
                ],
                "depth": -1,
                "id": -1,
                "order": -1
            }
        ],
        "tidyTraceNodeCount": 2
    },
    "state_change": {
        "stateChanges": [
            {
                "address": "0x8a2279d4a90b6fe1c4b30fa660cc9f926797baa2",
                "erc": "ERC-20",
                "slots": [
                    {
                        "current": "0x0000000000000000000000000000000000000000000000000000039134cbcb13",
                        "key": "0x2fa83065bc945364e7b09ca650f9bd0c661abd679dbb309c65e4a646a493233d",
                        "prev": "0x0000000000000000000000000000000000000000000000000000039386c1a053"
                    },
                    {
                        "current": "0x0000000000000000000000000000000000000000000000000000000251f5d540",
                        "key": "0x2cc711fc8b2b6f7bce303f8b944bada12847ba96d388e4126d84f789fbaf543f",
                        "prev": "0x0000000000000000000000000000000000000000000000000000000000000000"
                    }
                ],
                "storageVariables": [
                    {
                        "name": "_balances",
                        "type": "mapping(address => uint256)",
                        "value": {
                            "pairs": [
                                {
                                    "key": "0x735b1c7fde46d12e16952f650ba05211d37b0e17",
                                    "value": {
                                        "current": "3922190912275",
                                        "prev": "3932155912275",
                                        "typeTag": 1
                                    }
                                },
                                {
                                    "key": "0xbede75f0dfd98f7ce50afc17f6a2dc1f88cf97ca",
                                    "value": {
                                        "current": "9965000000",
                                        "prev": "0",
                                        "typeTag": 1
                                    }
                                }
                            ],
                            "typeTag": 4
                        }
                    }
                ]
            }
        ]
    }
}