{
    "balance_change": {
        "balanceChanges": []
    },
    "profile": {
        "basic_info": {
            "baseFee": "",
            "blockNumber": 4734004,
            "callData": "0x0a19b14a000000000000000000000000000000000000000000000000000000000000000000000000000000000000000000000000000000000000000004d2c7fa82228000000000000000000000000000d26114cd6ee289accf82350c8d8487fedb8a0c07000000000000000000000000000000000000000000000001158e460913d000000000000000000000000000000000000000000000000000000000000000484f9d00000000000000000000000000000000000000000000000000000000e543b0db00000000000000000000000018e96886612735f0d509d139f304f108f79bc18c000000000000000000000000000000000000000000000000000000000000001bd43f6a5ceb1b7a43c0c9fd17b1442443b9c8191be82174a8c1b1b45485ed6194038e3cb2cff9bd3e906864c6781277b81b564a90719eccdc871dc6d7308a41c40000000000000000000000000000000000000000000000000006d5672781de0c",
            "debugEnable": true,
            "errorInfo": "",
            "eventCount": 1,
            "feeRecipient": "0xb2930b35844a230f00e51431acae96fe543a0347",
            "formatValue": "0",
            "gasLimit": 250000,
            "gasPrice": "60",
            "gasUsed": 78178,
            "intTxnCount": 2,
            "internalRevert": false,
            "internalRevertMessage": "",
            "isContractCreation": false,
            "isFlashloan": false,
            "maxFee": "",
            "nonce": 126,
            "overwritedBlockNumber": -1,
            "priorityFee": "",
            "receiver": "0x8d12a197cb00d4747a1fe03395095ce2a5cc6819",
            "revertMessage": "",
            "sender": "0x6f104f67915883ce4ecfef813a7a27bad2f1c085",
            "simulationEnable": true,
            "sourceTxnHash": "0x570b44082db756a9e9f5e21d2c19026dc0efc92dfcb18d7309e2cdaad5457eb7",
            "status": true,
            "timestamp": "2017-12-15T00:31:53Z",
            "transactionFee": "0.00469068",
            "txnHash": "0x570b44082db756a9e9f5e21d2c19026dc0efc92dfcb18d7309e2cdaad5457eb7",
            "txnIndex": 10,
            "type": 0,
            "value": "0"
        },
        "fund_flow": [],
        "token_infos": [
            {
                "address": "0xc02aaa39b223fe8d0a0e5c4f27ead9083c756cc2",
                "decimals": 18
            },
            {
                "address": "0xeeeeeeeeeeeeeeeeeeeeeeeeeeeeeeeeeeeeeeee",
                "decimals": 18
            }
        ]
    },
    "address_label": {
        "labels": [
            {
                "address": "0x0000000000000000000000000000000000000004",
                "label": "Precompiled"
            },
            {
                "address": "0xeeeeeeeeeeeeeeeeeeeeeeeeeeeeeeeeeeeeeeee",
                "label": "Ether"
            },
            {
                "address": "0x8d12a197cb00d4747a1fe03395095ce2a5cc6819",
                "label": "EtherDelta"
            },
            {
                "address": "0xd26114cd6ee289accf82350c8d8487fedb8a0c07",
                "label": "OMG Network: OMG Token"
            },
            {
                "address": "0x0000000000000000000000000000000000000002",
                "label": "Precompiled"
            },
            {
                "address": "0x0000000000000000000000000000000000000000",
                "label": "Null Address"
            },
            {
                "address": "0x0000000000000000000000000000000000000001",
                "label": "Precompiled"
            },
            {
                "address": "0x0000000000000000000000000000000000000003",
                "label": "Precompiled"
            }
        ]
    },
    "trace": {
        "accountLabels": null,
        "dataMap": {
            "-1": {
                "invocation": {
                    "address": "0x6f104f67915883ce4ecfef813a7a27bad2f1c085",
                    "callData": "",
                    "decodedMethod": null,
                    "errorInfo": "",
                    "fromAddress": "",
                    "gasUsed": 0,
                    "id": -1,
                    "methodDecoded": false,
                    "operation": "",
                    "output": "",
                    "revert": false,
                    "revertMessage": "",
                    "selector": "",
                    "status": false,
                    "value": ""
                },
                "nodeType": 0
            },
            "0": {
                "invocation": {
                    "address": "0x8d12a197cb00d4747a1fe03395095ce2a5cc6819",
                    "callData": "0x000000000000000000000000000000000000000000000000000000000000000000000000000000000000000000000000000000000000000004d2c7fa82228000000000000000000000000000d26114cd6ee289accf82350c8d8487fedb8a0c07000000000000000000000000000000000000000000000001158e460913d000000000000000000000000000000000000000000000000000000000000000484f9d00000000000000000000000000000000000000000000000000000000e543b0db00000000000000000000000018e96886612735f0d509d139f304f108f79bc18c000000000000000000000000000000000000000000000000000000000000001bd43f6a5ceb1b7a43c0c9fd17b1442443b9c8191be82174a8c1b1b45485ed6194038e3cb2cff9bd3e906864c6781277b81b564a90719eccdc871dc6d7308a41c40000000000000000000000000000000000000000000000000006d5672781de0c",
                    "decodedMethod": {
                        "callParams": [
                            {
                                "name": "tokenGet",
                                "type": "address",
                                "value": "0x0000000000000000000000000000000000000000"
                            },
                            {
                                "name": "amountGet",
                                "type": "uint256",
                                "value": "347,560,000,000,000,000"
                            },
                            {
                                "name": "tokenGive",
                                "type": "address",
                                "value": "0xd26114cd6ee289accf82350c8d8487fedb8a0c07"
                            },
                            {
                                "name": "amountGive",
                                "type": "uint256",
                                "value": "20,000,000,000,000,000,000"
                            },
                            {
                                "name": "expires",
                                "type": "uint256",
                                "value": "4,738,973"
                            },
                            {
                                "name": "nonce",
                                "type": "uint256",
                                "value": "3,846,418,651"
                            },
                            {
                                "name": "user",
                                "type": "address",
                                "value": "0x18e96886612735f0d509d139f304f108f79bc18c"
                            },
                            {
                                "name": "v",
                                "type": "uint8",
                                "value": "27"
                            },
                            {
                                "name": "r",
                                "type": "bytes32",
                                "value": "0xd43f6a5ceb1b7a43c0c9fd17b1442443b9c8191be82174a8c1b1b45485ed6194"
                            },
                            {
                                "name": "s",
                                "type": "bytes32",
                                "value": "0x038e3cb2cff9bd3e906864c6781277b81b564a90719eccdc871dc6d7308a41c4"
                            },
                            {
                                "name": "amount",
                                "type": "uint256",
                                "value": "1,923,488,881,434,124"
                            }
                        ],
                        "constructorArguments": "",
                        "name": "trade",
                        "returnParams": [],
                        "signature": "trade(address,uint256,address,uint256,uint256,uint256,address,uint8,bytes32,bytes32,uint256)"
                    },
                    "errorInfo": "",
                    "fromAddress": "0x6f104f67915883ce4ecfef813a7a27bad2f1c085",
                    "gasUsed": 78178,
                    "id": 0,
                    "methodDecoded": true,
                    "operation": "CALL",
                    "output": "",
                    "revert": false,
                    "revertMessage": "",
                    "selector": "0x0a19b14a",
                    "status": true,
                    "value": "0"
                },
                "nodeType": 0
            },
            "1": {
                "invocation": {
                    "address": "0x0000000000000000000000000000000000000002",
                    "callData": "0xcb00d4747a1fe03395095ce2a5cc6819000000000000000000000000000000000000000000000000000000000000000000000000000000000000000004d2c7fa82228000d26114cd6ee289accf82350c8d8487fedb8a0c07000000000000000000000000000000000000000000000001158e460913d000000000000000000000000000000000000000000000000000000000000000484f9d00000000000000000000000000000000000000000000000000000000e543b0db",
                    "decodedMethod": {
                        "callParams": [
                            {
                                "name": "data",
                                "type": "bytes",
                                "value": "0x8d12a197cb00d4747a1fe03395095ce2a5cc6819000000000000000000000000000000000000000000000000000000000000000000000000000000000000000004d2c7fa82228000d26114cd6ee289accf82350c8d8487fedb8a0c07000000000000000000000000000000000000000000000001158e460913d000000000000000000000000000000000000000000000000000000000000000484f9d00000000000000000000000000000000000000000000000000000000e543b0db"
                            }
                        ],
                        "constructorArguments": "",
                        "name": "sha256hash",
                        "returnParams": [
                            {
                                "name": "hash",
                                "type": "bytes32",
                                "value": "0xb3e4070f9875854d0d77a20667464386cdf5e05ef48eaf3aa9d9a636d8cf9f87"
                            }
                        ],
                        "signature": "sha256hash(bytes)"
                    },
                    "errorInfo": "",
                    "fromAddress": "0x8d12a197cb00d4747a1fe03395095ce2a5cc6819",
                    "gasUsed": 132,
                    "id": 1,
                    "methodDecoded": true,
                    "operation": "CALL",
                    "output": "0xb3e4070f9875854d0d77a20667464386cdf5e05ef48eaf3aa9d9a636d8cf9f87",
                    "revert": false,
                    "revertMessage": "",
                    "selector": "0x8d12a197",
                    "status": true,
                    "value": "0"
                },
                "nodeType": 0
            },
            "2": {
                "invocation": {
                    "address": "0x0000000000000000000000000000000000000001",
                    "callData": "0x716b07de7ce5d196452da0fde4998e37fc15deb65791aae4251abd3d000000000000000000000000000000000000000000000000000000000000001bd43f6a5ceb1b7a43c0c9fd17b1442443b9c8191be82174a8c1b1b45485ed6194038e3cb2cff9bd3e906864c6781277b81b564a90719eccdc871dc6d7308a41c4",
                    "decodedMethod": {
                        "callParams": [
                            {
                                "name": "hash",
                                "type": "bytes32",
                                "value": "0x03ed6cc0716b07de7ce5d196452da0fde4998e37fc15deb65791aae4251abd3d"
                            },
                            {
                                "name": "v",
                                "type": "uint256",
                                "value": "27"
                            },
                            {
                                "name": "r",
                                "type": "bytes32",
                                "value": "0xd43f6a5ceb1b7a43c0c9fd17b1442443b9c8191be82174a8c1b1b45485ed6194"
                            },
                            {
                                "name": "s",
                                "type": "bytes32",
                                "value": "0x038e3cb2cff9bd3e906864c6781277b81b564a90719eccdc871dc6d7308a41c4"
                            }
                        ],
                        "constructorArguments": "",
                        "name": "ecrecover",
                        "returnParams": [
                            {
                                "name": "",
                                "type": "address",
                                "value": "0x18e96886612735f0d509d139f304f108f79bc18c"
                            }
                        ],
                        "signature": "ecrecover(bytes32,uint256,bytes32,bytes32)"
                    },
                    "errorInfo": "",
                    "fromAddress": "0x8d12a197cb00d4747a1fe03395095ce2a5cc6819",
                    "gasUsed": 3000,
                    "id": 2,
                    "methodDecoded": true,
                    "operation": "CALL",
                    "output": "0x00000000000000000000000018e96886612735f0d509d139f304f108f79bc18c",
                    "revert": false,
                    "revertMessage": "",
                    "selector": "0x03ed6cc0",
                    "status": true,
                    "value": "0"
                },
                "nodeType": 0
            },
            "3": {
                "event": {
                    "contract": "0x8d12a197cb00d4747a1fe03395095ce2a5cc6819",
                    "decodedLog": {
                        "name": "Trade",
                        "params": [
                            {
                                "name": "tokenGet",
                                "type": "address",
                                "value": "0x0000000000000000000000000000000000000000"
                            },
                            {
                                "name": "amountGet",
                                "type": "uint256",
                                "value": "1,923,488,881,434,124"
                            },
                            {
                                "name": "tokenGive",
                                "type": "address",
                                "value": "0xd26114cd6ee289accf82350c8d8487fedb8a0c07"
                            },
                            {
                                "name": "amountGive",
                                "type": "uint256",
                                "value": "110,685,284,925,430,084"
                            },
                            {
                                "name": "get",
                                "type": "address",
                                "value": "0x18e96886612735f0d509d139f304f108f79bc18c"
                            },
                            {
                                "name": "give",
                                "type": "address",
                                "value": "0x6f104f67915883ce4ecfef813a7a27bad2f1c085"
                            }
                        ],
                        "signature": "Trade(address,uint256,address,uint256,address,address)"
                    },
                    "id": 3,
                    "logData": "0x00000000000000000000000000000000000000000000000000000000000000000000000000000000000000000000000000000000000000000006d5672781de0c000000000000000000000000d26114cd6ee289accf82350c8d8487fedb8a0c0700000000000000000000000000000000000000000000000001893bae21d7d94400000000000000000000000018e96886612735f0d509d139f304f108f79bc18c0000000000000000000000006f104f67915883ce4ecfef813a7a27bad2f1c085",
                    "logDecoded": true,
                    "operation": "EVENT",
                    "revert": false,
                    "status": true,
                    "topics": [
                        "0x6effdda786735d5033bfad5f53e5131abcced9e52be6c507b62d639685fbed6d"
                    ]
                },
                "nodeType": 1
            }
        },
        "gasFlame": [
            {
                "children": [
                    {
                        "children": [
                            {
                                "children": [],
                                "depth": 0,
                                "name": "Initial Gas",
                                "value": 31192
                            },
                            {
                                "children": [
                                    {
                                        "children": [],
                                        "depth": 1,
                                        "name": "sha256hash",
                                        "value": 132
                                    },
                                    {
                                        "children": [],
                                        "depth": 1,
                                        "name": "ecrecover",
                                        "value": 3000
                                    }
                                ],
                                "depth": 0,
                                "name": "Executed Gas",
                                "value": 46986
                            }
                        ],
                        "depth": -1,
                        "name": "Actual Gas Used",
                        "value": 78178
                    },
                    {
                        "children": [],
                        "depth": -1,
                        "name": "Refunded Gas",
                        "value": 0
                    }
                ],
                "depth": -2,
                "name": "Total Gas",
                "value": 78178
            }
        ],
        "isConfirmed": true,
        "mainTrace": [
            {
                "children": [
                    {
                        "children": [
                            {
                                "children": [],
                                "depth": 1,
                                "id": 1,
                                "order": 1
                            },
                            {
                                "children": [],
                                "depth": 1,
                                "id": 2,
                                "order": 2
                            },
                            {
                                "children": [],
                                "depth": 1,
                                "id": 3,
                                "order": 3
                            }
                        ],
                        "depth": 0,
                        "id": 0,
                        "order": 0
                    }
                ],
                "depth": -1,
                "id": -1,
                "order": -1
            }
        ],
        "mainTraceNodeCount": 4,
        "parentIdMap": {
            "0": -1,
            "1": 0,
            "2": 0,
            "3": 0
        },
        "tidyTrace": [
            {
                "children": [
                    {
                        "children": [
                            {
                                "children": [],
                                "depth": 1,
                                "id": 1,
                                "order": 1
                            },
                            {
                                "children": [],
                                "depth": 1,
                                "id": 2,
                                "order": 2
                            },
                            {
                                "children": [],
                                "depth": 1,
                                "id": 3,
                                "order": 3
                            }
                        ],
                        "depth": 0,
                        "id": 0,
                        "order": 0
                    }
                ],
                "depth": -1,
                "id": -1,
                "order": -1
            }
        ],
        "tidyTraceNodeCount": 4
    },
    "state_change": {
        "stateChanges": [
            {
                "address": "0x8d12a197cb00d4747a1fe03395095ce2a5cc6819",
                "erc": "",
                "slots": [
                    {
                        "current": "0x0000000000000000000000000000000000000000000000000270396468931e0c",
                        "key": "0x5edd82c57a870fbc78cb4f2cd5160daa240143480178d0efd64d2597492c68ec",
                        "prev": "0x000000000000000000000000000000000000000000000000026963fd41114000"
                    },
                    {
                        "current": "0x0000000000000000000000000000000000000000000000000000002cc8e31c50",
                        "key": "0x6a2fcff1f2cd2301efb327b1f9cc6d960687aa7dec12a279586f6eea3ac583d4",
                        "prev": "0x0000000000000000000000000000000000000000000000000006dad37b024baa"
                    },
                    {
                        "current": "0x0000000000000000000000000000000000000000000000002ee6782f472eb51f",
                        "key": "0x07128a51d059301ba54dd4db3907dc7376ef164e9bea1f01aa278202b5993ab4",
                        "prev": "0x0000000000000000000000000000000000000000000000002edfa2c81facd713"
                    },
                    {
                        "current": "0x00000000000000000000000000000000000000000000000370b0a5fcd7ee2989",
                        "key": "0x9db71ea29ae27159ae6b0bc7608a91ca5e83d8e7e559f64559591e0344fb950e",
                        "prev": "0x00000000000000000000000000000000000000000000000370b0a0bd4d50d83b"
                    },
                    {
                        "current": "0x00000000000000000000000000000000000000000000000ace6433d85b8633fd",
                        "key": "0xf28fa16bc2e50d48c0ee061fedb519559cc83b1f1e93cc3645da58cede3d4bbc",
                        "prev": "0x00000000000000000000000000000000000000000000000acfed6f867d5e0d41"
                    },
                    {
                        "current": "0x00000000000000000000000000000000000000000000000001899c73b6dafc11",
                        "key": "0xb7a9ead8493798ef4ed4edd42eae06dafafa682dc6de7a3eff06d75fbfeef78d",
                        "prev": "0x000000000000000000000000000000000000000000000000000060c5950322cd"
                    }
                ],
                "storageVariables": []
            }
        ]
    }
}