{
    "balance_change": {
        "balanceChanges": []
    },
    "profile": {
        "basic_info": {
            "baseFee": "",
            "blockNumber": 10536727,
            "callData": "0x8fcbaf0c0000000000000000000000006a11c5e27de7a88f01cebf558a9dbde786c7e10300000000000000000000000058857661197cdc6a869c82b41b307412d066ef12000000000000000000000000000000000000000000000000000000000000000000000000000000000000000000000000000000000000000000000000000000000000000000000000000000000000000000000000000000000000000000000001000000000000000000000000000000000000000000000000000000000000001bb0d5d6b7d0d19101d774b463e535427e1c1c8c49b3fc3c6ddc55db93e4aad5615d6bd9ad1bcedc3ebe5562207456f839c083b7df7886516534032bc9937e59b2",
            "debugEnable": true,
            "errorInfo": "execution reverted",
            "eventCount": 0,
            "feeRecipient": "0x7d6dabd6b5c75291a3258c29b418f5805792a875",
            "formatValue": "0",
            "gasLimit": 79445,
            "gasPrice": "39",
            "gasUsed": 35249,
            "intTxnCount": 1,
            "internalRevert": true,
            "internalRevertMessage": "",
            "isContractCreation": false,
            "isFlashloan": false,
            "maxFee": "",
            "nonce": 750,
            "overwritedBlockNumber": -1,
            "priorityFee": "",
            "receiver": "0x6b175474e89094c44da98b954eedeac495271d0f",
            "revertMessage": "Dai/invalid-nonce",
            "sender": "0x58857661197cdc6a869c82b41b307412d066ef12",
            "simulationEnable": true,
            "sourceTxnHash": "0x58a32ec4c5f73562a18a055d30190903a18b42c1bac2604ea8011c9645b7936d",
            "status": false,
            "timestamp": "2020-07-26T18:26:09Z",
            "transactionFee": "0.001374711",
            "txnHash": "0x58a32ec4c5f73562a18a055d30190903a18b42c1bac2604ea8011c9645b7936d",
            "txnIndex": 102,
            "type": 0,
            "value": "0"
        },
        "fund_flow": [],
        "token_infos": [
            {
                "address": "0xc02aaa39b223fe8d0a0e5c4f27ead9083c756cc2",
                "decimals": 18
            },
            {
                "address": "0xeeeeeeeeeeeeeeeeeeeeeeeeeeeeeeeeeeeeeeee",
                "decimals": 18
            }
        ]
    },
    "address_label": {
        "labels": [
            {
                "address": "0xeeeeeeeeeeeeeeeeeeeeeeeeeeeeeeeeeeeeeeee",
                "label": "Ether"
            },
            {
                "address": "0x6b175474e89094c44da98b954eedeac495271d0f",
                "label": "Sky: Dai Stablecoin"
            },
            {
                "address": "0x0000000000000000000000000000000000000001",
                "label": "Precompiled"
            },
            {
                "address": "0x0000000000000000000000000000000000000002",
                "label": "Precompiled"
            },
            {
                "address": "0x0000000000000000000000000000000000000003",
                "label": "Precompiled"
            },
            {
                "address": "0x0000000000000000000000000000000000000004",
                "label": "Precompiled"
            }
        ]
    },
    "trace": {
        "accountLabels": null,
        "dataMap": {
            "-1": {
                "invocation": {
                    "address": "0x58857661197cdc6a869c82b41b307412d066ef12",
                    "callData": "",
                    "decodedMethod": null,
                    "errorInfo": "",
                    "fromAddress": "",
                    "gasUsed": 0,
                    "id": -1,
                    "methodDecoded": false,
                    "operation": "",
                    "output": "",
                    "revert": false,
                    "revertMessage": "",
                    "selector": "",
                    "status": false,
                    "value": ""
                },
                "nodeType": 0
            },
            "0": {
                "invocation": {
                    "address": "0x6b175474e89094c44da98b954eedeac495271d0f",
                    "callData": "0x0000000000000000000000006a11c5e27de7a88f01cebf558a9dbde786c7e10300000000000000000000000058857661197cdc6a869c82b41b307412d066ef12000000000000000000000000000000000000000000000000000000000000000000000000000000000000000000000000000000000000000000000000000000000000000000000000000000000000000000000000000000000000000000000001000000000000000000000000000000000000000000000000000000000000001bb0d5d6b7d0d19101d774b463e535427e1c1c8c49b3fc3c6ddc55db93e4aad5615d6bd9ad1bcedc3ebe5562207456f839c083b7df7886516534032bc9937e59b2",
                    "decodedMethod": {
                        "callParams": [
                            {
                                "name": "holder",
                                "type": "address",
                                "value": "0x6a11c5e27de7a88f01cebf558a9dbde786c7e103"
                            },
                            {
                                "name": "spender",
                                "type": "address",
                                "value": "0x58857661197cdc6a869c82b41b307412d066ef12"
                            },
                            {
                                "name": "nonce",
                                "type": "uint256",
                                "value": "0"
                            },
                            {
                                "name": "expiry",
                                "type": "uint256",
                                "value": "0"
                            },
                            {
                                "name": "allowed",
                                "type": "bool",
                                "value": true
                            },
                            {
                                "name": "v",
                                "type": "uint8",
                                "value": "27"
                            },
                            {
                                "name": "r",
                                "type": "bytes32",
                                "value": "0xb0d5d6b7d0d19101d774b463e535427e1c1c8c49b3fc3c6ddc55db93e4aad561"
                            },
                            {
                                "name": "s",
                                "type": "bytes32",
                                "value": "0x5d6bd9ad1bcedc3ebe5562207456f839c083b7df7886516534032bc9937e59b2"
                            }
                        ],
                        "constructorArguments": "",
                        "name": "permit",
                        "returnParams": [],
                        "signature": "permit(address,address,uint256,uint256,bool,uint8,bytes32,bytes32)"
                    },
                    "errorInfo": "execution reverted",
                    "fromAddress": "0x58857661197cdc6a869c82b41b307412d066ef12",
                    "gasUsed": 35249,
                    "id": 0,
                    "methodDecoded": true,
                    "operation": "CALL",
                    "output": "0x08c379a0000000000000000000000000000000000000000000000000000000000000002000000000000000000000000000000000000000000000000000000000000000114461692f696e76616c69642d6e6f6e6365000000000000000000000000000000",
                    "revert": true,
                    "revertMessage": "Dai/invalid-nonce",
                    "selector": "0x8fcbaf0c",
                    "status": false,
                    "value": "0"
                },
                "nodeType": 0
            },
            "1": {
                "invocation": {
                    "address": "0x0000000000000000000000000000000000000001",
                    "callData": "0x529ea0a7a8fda5c46435b7a1fe3a868e2a93ad71428eadf1de8dd8e1000000000000000000000000000000000000000000000000000000000000001bb0d5d6b7d0d19101d774b463e535427e1c1c8c49b3fc3c6ddc55db93e4aad5615d6bd9ad1bcedc3ebe5562207456f839c083b7df7886516534032bc9937e59b2",
                    "decodedMethod": {
                        "callParams": [
                            {
                                "name": "hash",
                                "type": "bytes32",
                                "value": "0x3987a2ad529ea0a7a8fda5c46435b7a1fe3a868e2a93ad71428eadf1de8dd8e1"
                            },
                            {
                                "name": "v",
                                "type": "uint256",
                                "value": "27"
                            },
                            {
                                "name": "r",
                                "type": "bytes32",
                                "value": "0xb0d5d6b7d0d19101d774b463e535427e1c1c8c49b3fc3c6ddc55db93e4aad561"
                            },
                            {
                                "name": "s",
                                "type": "bytes32",
                                "value": "0x5d6bd9ad1bcedc3ebe5562207456f839c083b7df7886516534032bc9937e59b2"
                            }
                        ],
                        "constructorArguments": "",
                        "name": "ecrecover",
                        "returnParams": [
                            {
                                "name": "",
                                "type": "address",
                                "value": "0x6a11c5e27de7a88f01cebf558a9dbde786c7e103"
                            }
                        ],
                        "signature": "ecrecover(bytes32,uint256,bytes32,bytes32)"
                    },
                    "errorInfo": "",
                    "fromAddress": "0x6b175474e89094c44da98b954eedeac495271d0f",
                    "gasUsed": 3000,
                    "id": 1,
                    "methodDecoded": true,
                    "operation": "STATICCALL",
                    "output": "0x0000000000000000000000006a11c5e27de7a88f01cebf558a9dbde786c7e103",
                    "revert": true,
                    "revertMessage": "",
                    "selector": "0x3987a2ad",
                    "status": true,
                    "value": "0"
                },
                "nodeType": 0
            }
        },
        "gasFlame": [
            {
                "children": [
                    {
                        "children": [
                            {
                                "children": [],
                                "depth": 0,
                                "name": "Initial Gas",
                                "value": 23360
                            },
                            {
                                "children": [
                                    {
                                        "children": [],
                                        "depth": 1,
                                        "name": "ecrecover",
                                        "value": 3000
                                    }
                                ],
                                "depth": 0,
                                "name": "Executed Gas",
                                "value": 11889
                            }
                        ],
                        "depth": -1,
                        "name": "Actual Gas Used",
                        "value": 35249
                    },
                    {
                        "children": [],
                        "depth": -1,
                        "name": "Refunded Gas",
                        "value": 0
                    }
                ],
                "depth": -2,
                "name": "Total Gas",
                "value": 35249
            }
        ],
        "isConfirmed": true,
        "mainTrace": [
            {
                "children": [
                    {
                        "children": [
                            {
                                "children": [],
                                "depth": 1,
                                "id": 1,
                                "order": 1
                            }
                        ],
                        "depth": 0,
                        "id": 0,
                        "order": 0
                    }
                ],
                "depth": -1,
                "id": -1,
                "order": -1
            }
        ],
        "mainTraceNodeCount": 2,
        "parentIdMap": {
            "0": -1,
            "1": 0
        },
        "tidyTrace": [
            {
                "children": [
                    {
                        "children": [],
                        "depth": 0,
                        "id": 0,
                        "order": 0
                    }
                ],
                "depth": -1,
                "id": -1,
                "order": -1
            }
        ],
        "tidyTraceNodeCount": 1
    },
    "state_change": {
        "stateChanges": []
    }
}