{
    "balance_change": {
        "balanceChanges": [
            {
                "account": "0xd2a66c0c6c9f38b4d94fabe0b96a909a37ed0f92",
                "assets": [
                    {
                        "address": "0x43dfc4159d86f3a37a5a4b3d4580b888ad7d4ddd",
                        "amount": "44,199.029000000004685824",
                        "iconUrl": "https://assets.blocksec.com/icon/74f5d58085566f2f712f2eb7a78141dcbcca32570934b3f56d5a763c88d6a685.png",
                        "isERC1155": false,
                        "isERC721": false,
                        "sign": true,
                        "value": "4451.749985"
                    },
                    {
                        "address": "0xdac17f958d2ee523a2206206994597c13d831ec7",
                        "amount": "4,972.24165",
                        "iconUrl": "https://assets.blocksec.com/icon/fcea71f3193ce895be44bfdf941f7e4c9381dd587f273c2d1a27f1263d84e4ea.png",
                        "isERC1155": false,
                        "isERC721": false,
                        "sign": false,
                        "value": "4967.16877"
                    }
                ]
            },
            {
                "account": "0x8876819535b48b551c9e97ebc07332c7482b4b2d",
                "assets": [
                    {
                        "address": "0x43dfc4159d86f3a37a5a4b3d4580b888ad7d4ddd",
                        "amount": "44,199.029000000004685824",
                        "iconUrl": "https://assets.blocksec.com/icon/74f5d58085566f2f712f2eb7a78141dcbcca32570934b3f56d5a763c88d6a685.png",
                        "isERC1155": false,
                        "isERC721": false,
                        "sign": false,
                        "value": "4451.749985"
                    },
                    {
                        "address": "0xdac17f958d2ee523a2206206994597c13d831ec7",
                        "amount": "4,972.24165",
                        "iconUrl": "https://assets.blocksec.com/icon/fcea71f3193ce895be44bfdf941f7e4c9381dd587f273c2d1a27f1263d84e4ea.png",
                        "isERC1155": false,
                        "isERC721": false,
                        "sign": true,
                        "value": "4967.16877"
                    }
                ]
            }
        ]
    },
    "profile": {
        "basic_info": {
            "baseFee": "29.345300646",
            "blockNumber": 14987709,
            "callData": "0xe67ce70600000000000000000000000000000000000000000000095c08beeb020d00000000000000000000000000000000000000000000000000000000000001291fe99a000000000000000000000000000000000000000000000000000000000000006000000000000000000000000000000000000000000000000000000000000000000000000000000000000000000000000000000000000000000000000000000000",
            "debugEnable": true,
            "errorInfo": "",
            "eventCount": 4,
            "feeRecipient": "0x2a20380dca5bc24d052acfbf79ba23e988ad0050",
            "formatValue": "0",
            "gasLimit": 500001,
            "gasPrice": "58.8",
            "gasUsed": 132819,
            "intTxnCount": 5,
            "internalRevert": false,
            "internalRevertMessage": "",
            "isContractCreation": false,
            "isFlashloan": false,
            "maxFee": "",
            "nonce": 6114,
            "overwritedBlockNumber": -1,
            "priorityFee": "",
            "receiver": "0x8876819535b48b551c9e97ebc07332c7482b4b2d",
            "revertMessage": "",
            "sender": "0xd2a66c0c6c9f38b4d94fabe0b96a909a37ed0f92",
            "simulationEnable": true,
            "sourceTxnHash": "0x5818e3ce6c7d93a4da348b29c8b7136c5969ab5b10b2cd50c6a2641c9245e9fe",
            "status": true,
            "timestamp": "2022-06-18T23:38:00Z",
            "transactionFee": "0.0078097572",
            "txnHash": "0x5818e3ce6c7d93a4da348b29c8b7136c5969ab5b10b2cd50c6a2641c9245e9fe",
            "txnIndex": 0,
            "type": 0,
            "value": "0"
        },
        "fund_flow": [
            {
                "amount": "44,199.029000000004685824",
                "from": "0x8876819535b48b551c9e97ebc07332c7482b4b2d",
                "id": 1,
                "isERC1155": false,
                "isERC721": false,
                "isReverted": false,
                "order": 1,
                "to": "0xd2a66c0c6c9f38b4d94fabe0b96a909a37ed0f92",
                "token": "0x43dfc4159d86f3a37a5a4b3d4580b888ad7d4ddd"
            },
            {
                "amount": "4,972.24165",
                "from": "0xd2a66c0c6c9f38b4d94fabe0b96a909a37ed0f92",
                "id": 2,
                "isERC1155": false,
                "isERC721": false,
                "isReverted": false,
                "order": 2,
                "to": "0x8876819535b48b551c9e97ebc07332c7482b4b2d",
                "token": "0xdac17f958d2ee523a2206206994597c13d831ec7"
            }
        ],
        "token_infos": [
            {
                "address": "0x43dfc4159d86f3a37a5a4b3d4580b888ad7d4ddd",
                "decimals": 18
            },
            {
                "address": "0xc02aaa39b223fe8d0a0e5c4f27ead9083c756cc2",
                "decimals": 18
            },
            {
                "address": "0xdac17f958d2ee523a2206206994597c13d831ec7",
                "decimals": 6
            },
            {
                "address": "0xeeeeeeeeeeeeeeeeeeeeeeeeeeeeeeeeeeeeeeee",
                "decimals": 18
            }
        ]
    },
    "address_label": {
        "labels": [
            {
                "address": "0x8876819535b48b551c9e97ebc07332c7482b4b2d",
                "label": "DODO: DODO-USDT Pair"
            },
            {
                "address": "0xdac17f958d2ee523a2206206994597c13d831ec7",
                "label": "Tether: USDT Stablecoin"
            },
            {
                "address": "0xf6a8e47daeeddcce297e7541523e27df2f167bf3",
                "label": "DODO"
            },
            {
                "address": "0x0000000000000000000000000000000000000004",
                "label": "Precompiled"
            },
            {
                "address": "0x0000000000000000000000000000000000000002",
                "label": "Precompiled"
            },
            {
                "address": "0x0000000000000000000000000000000000000003",
                "label": "Precompiled"
            },
            {
                "address": "0xeeeeeeeeeeeeeeeeeeeeeeeeeeeeeeeeeeeeeeee",
                "label": "Ether"
            },
            {
                "address": "0x43dfc4159d86f3a37a5a4b3d4580b888ad7d4ddd",
                "label": "DODO: DODO Token"
            },
            {
                "address": "0x09b6ca7001487aa9e98a1d115123f6adee093af1",
                "label": "ConstOracle"
            },
            {
                "address": "0x0000000000000000000000000000000000000001",
                "label": "Precompiled"
            }
        ]
    },
    "trace": {
        "accountLabels": null,
        "dataMap": {
            "-1": {
                "invocation": {
                    "address": "0xd2a66c0c6c9f38b4d94fabe0b96a909a37ed0f92",
                    "callData": "",
                    "decodedMethod": null,
                    "errorInfo": "",
                    "fromAddress": "",
                    "gasUsed": 0,
                    "id": -1,
                    "methodDecoded": false,
                    "operation": "",
                    "output": "",
                    "revert": false,
                    "revertMessage": "",
                    "selector": "",
                    "status": false,
                    "value": ""
                },
                "nodeType": 0
            },
            "0": {
                "invocation": {
                    "address": "0x8876819535b48b551c9e97ebc07332c7482b4b2d",
                    "callData": "0x00000000000000000000000000000000000000000000095c08beeb020d00000000000000000000000000000000000000000000000000000000000001291fe99a000000000000000000000000000000000000000000000000000000000000006000000000000000000000000000000000000000000000000000000000000000000000000000000000000000000000000000000000000000000000000000000000",
                    "decodedMethod": {
                        "callParams": [
                            {
                                "name": "amount",
                                "type": "uint256",
                                "value": "44,199,029,000,000,004,685,824"
                            },
                            {
                                "name": "maxPayQuote",
                                "type": "uint256",
                                "value": "4,984,924,570"
                            },
                            {
                                "name": "data",
                                "type": "bytes",
                                "value": "0x"
                            }
                        ],
                        "constructorArguments": "",
                        "name": "buyBaseToken",
                        "returnParams": [
                            {
                                "name": "",
                                "type": "uint256",
                                "value": "4,972,241,650"
                            }
                        ],
                        "signature": "buyBaseToken(uint256,uint256,bytes)"
                    },
                    "errorInfo": "",
                    "fromAddress": "0xd2a66c0c6c9f38b4d94fabe0b96a909a37ed0f92",
                    "gasUsed": 132819,
                    "id": 0,
                    "methodDecoded": true,
                    "operation": "CALL",
                    "output": "0x00000000000000000000000000000000000000000000000000000001285e62f2",
                    "revert": false,
                    "revertMessage": "",
                    "selector": "0xe67ce706",
                    "status": true,
                    "value": "0"
                },
                "nodeType": 0
            },
            "1": {
                "invocation": {
                    "address": "0xf6a8e47daeeddcce297e7541523e27df2f167bf3",
                    "callData": "0x00000000000000000000000000000000000000000000095c08beeb020d00000000000000000000000000000000000000000000000000000000000001291fe99a000000000000000000000000000000000000000000000000000000000000006000000000000000000000000000000000000000000000000000000000000000000000000000000000000000000000000000000000000000000000000000000000",
                    "decodedMethod": {
                        "callParams": [
                            {
                                "name": "amount",
                                "type": "uint256",
                                "value": "44,199,029,000,000,004,685,824"
                            },
                            {
                                "name": "maxPayQuote",
                                "type": "uint256",
                                "value": "4,984,924,570"
                            },
                            {
                                "name": "data",
                                "type": "bytes",
                                "value": "0x"
                            }
                        ],
                        "constructorArguments": "",
                        "name": "buyBaseToken",
                        "returnParams": [
                            {
                                "name": "",
                                "type": "uint256",
                                "value": "4,972,241,650"
                            }
                        ],
                        "signature": "buyBaseToken(uint256,uint256,bytes)"
                    },
                    "errorInfo": "",
                    "fromAddress": "0x8876819535b48b551c9e97ebc07332c7482b4b2d",
                    "gasUsed": 111063,
                    "id": 1,
                    "methodDecoded": true,
                    "operation": "DELEGATECALL",
                    "output": "0x00000000000000000000000000000000000000000000000000000001285e62f2",
                    "revert": false,
                    "revertMessage": "",
                    "selector": "0xe67ce706",
                    "status": true,
                    "value": "0"
                },
                "nodeType": 0
            },
            "2": {
                "invocation": {
                    "address": "0x09b6ca7001487aa9e98a1d115123f6adee093af1",
                    "callData": "0x",
                    "decodedMethod": {
                        "callParams": [],
                        "constructorArguments": "",
                        "name": "getPrice",
                        "returnParams": [
                            {
                                "name": "",
                                "type": "uint256",
                                "value": "100,000"
                            }
                        ],
                        "signature": "getPrice()"
                    },
                    "errorInfo": "",
                    "fromAddress": "0x8876819535b48b551c9e97ebc07332c7482b4b2d",
                    "gasUsed": 2328,
                    "id": 2,
                    "methodDecoded": true,
                    "operation": "STATICCALL",
                    "output": "0x00000000000000000000000000000000000000000000000000000000000186a0",
                    "revert": false,
                    "revertMessage": "",
                    "selector": "0x98d5fdca",
                    "status": true,
                    "value": "0"
                },
                "nodeType": 0
            },
            "3": {
                "invocation": {
                    "address": "0x09b6ca7001487aa9e98a1d115123f6adee093af1",
                    "callData": "0x",
                    "decodedMethod": {
                        "callParams": [],
                        "constructorArguments": "",
                        "name": "getPrice",
                        "returnParams": [
                            {
                                "name": "",
                                "type": "uint256",
                                "value": "100,000"
                            }
                        ],
                        "signature": "getPrice()"
                    },
                    "errorInfo": "",
                    "fromAddress": "0x8876819535b48b551c9e97ebc07332c7482b4b2d",
                    "gasUsed": 328,
                    "id": 3,
                    "methodDecoded": true,
                    "operation": "STATICCALL",
                    "output": "0x00000000000000000000000000000000000000000000000000000000000186a0",
                    "revert": false,
                    "revertMessage": "",
                    "selector": "0x98d5fdca",
                    "status": true,
                    "value": "0"
                },
                "nodeType": 0
            },
            "4": {
                "invocation": {
                    "address": "0x43dfc4159d86f3a37a5a4b3d4580b888ad7d4ddd",
                    "callData": "0x000000000000000000000000d2a66c0c6c9f38b4d94fabe0b96a909a37ed0f9200000000000000000000000000000000000000000000095c08beeb020d000000",
                    "decodedMethod": {
                        "callParams": [
                            {
                                "name": "to",
                                "type": "address",
                                "value": "0xd2a66c0c6c9f38b4d94fabe0b96a909a37ed0f92"
                            },
                            {
                                "decimalAvailable": true,
                                "name": "amount",
                                "type": "uint256",
                                "value": "44,199,029,000,000,004,685,824"
                            }
                        ],
                        "constructorArguments": "",
                        "name": "transfer",
                        "returnParams": [
                            {
                                "name": "",
                                "type": "bool",
                                "value": true
                            }
                        ],
                        "signature": "transfer(address,uint256)"
                    },
                    "errorInfo": "",
                    "fromAddress": "0x8876819535b48b551c9e97ebc07332c7482b4b2d",
                    "gasUsed": 13020,
                    "id": 4,
                    "methodDecoded": true,
                    "operation": "CALL",
                    "output": "0x0000000000000000000000000000000000000000000000000000000000000001",
                    "revert": false,
                    "revertMessage": "",
                    "selector": "0xa9059cbb",
                    "status": true,
                    "value": "0"
                },
                "nodeType": 0
            },
            "5": {
                "event": {
                    "contract": "0x43dfc4159d86f3a37a5a4b3d4580b888ad7d4ddd",
                    "decodedLog": {
                        "name": "Transfer",
                        "params": [
                            {
                                "name": "from",
                                "type": "address",
                                "value": "0x8876819535b48b551c9e97ebc07332c7482b4b2d"
                            },
                            {
                                "name": "to",
                                "type": "address",
                                "value": "0xd2a66c0c6c9f38b4d94fabe0b96a909a37ed0f92"
                            },
                            {
                                "decimalAvailable": true,
                                "name": "amount",
                                "type": "uint256",
                                "value": "44,199,029,000,000,004,685,824"
                            }
                        ],
                        "signature": "Transfer(address,address,uint256)"
                    },
                    "id": 5,
                    "logData": "0x00000000000000000000000000000000000000000000095c08beeb020d000000",
                    "logDecoded": true,
                    "operation": "EVENT",
                    "revert": false,
                    "status": true,
                    "topics": [
                        "0xddf252ad1be2c89b69c2b068fc378daa952ba7f163c4a11628f55a4df523b3ef",
                        "0x0000000000000000000000008876819535b48b551c9e97ebc07332c7482b4b2d",
                        "0x000000000000000000000000d2a66c0c6c9f38b4d94fabe0b96a909a37ed0f92"
                    ]
                },
                "nodeType": 1
            },
            "6": {
                "invocation": {
                    "address": "0xdac17f958d2ee523a2206206994597c13d831ec7",
                    "callData": "0x000000000000000000000000d2a66c0c6c9f38b4d94fabe0b96a909a37ed0f920000000000000000000000008876819535b48b551c9e97ebc07332c7482b4b2d00000000000000000000000000000000000000000000000000000001285e62f2",
                    "decodedMethod": {
                        "callParams": [
                            {
                                "name": "_from",
                                "type": "address",
                                "value": "0xd2a66c0c6c9f38b4d94fabe0b96a909a37ed0f92"
                            },
                            {
                                "name": "_to",
                                "type": "address",
                                "value": "0x8876819535b48b551c9e97ebc07332c7482b4b2d"
                            },
                            {
                                "decimalAvailable": true,
                                "name": "_value",
                                "type": "uint256",
                                "value": "4,972,241,650"
                            }
                        ],
                        "constructorArguments": "",
                        "name": "transferFrom",
                        "returnParams": [],
                        "signature": "transferFrom(address,address,uint256)"
                    },
                    "errorInfo": "",
                    "fromAddress": "0x8876819535b48b551c9e97ebc07332c7482b4b2d",
                    "gasUsed": 26530,
                    "id": 6,
                    "methodDecoded": true,
                    "operation": "CALL",
                    "output": "",
                    "revert": false,
                    "revertMessage": "",
                    "selector": "0x23b872dd",
                    "status": true,
                    "value": "0"
                },
                "nodeType": 0
            },
            "7": {
                "event": {
                    "contract": "0xdac17f958d2ee523a2206206994597c13d831ec7",
                    "decodedLog": {
                        "name": "Transfer",
                        "params": [
                            {
                                "name": "from",
                                "type": "address",
                                "value": "0xd2a66c0c6c9f38b4d94fabe0b96a909a37ed0f92"
                            },
                            {
                                "name": "to",
                                "type": "address",
                                "value": "0x8876819535b48b551c9e97ebc07332c7482b4b2d"
                            },
                            {
                                "decimalAvailable": true,
                                "name": "value",
                                "type": "uint256",
                                "value": "4,972,241,650"
                            }
                        ],
                        "signature": "Transfer(address,address,uint256)"
                    },
                    "id": 7,
                    "logData": "0x00000000000000000000000000000000000000000000000000000001285e62f2",
                    "logDecoded": true,
                    "operation": "EVENT",
                    "revert": false,
                    "status": true,
                    "topics": [
                        "0xddf252ad1be2c89b69c2b068fc378daa952ba7f163c4a11628f55a4df523b3ef",
                        "0x000000000000000000000000d2a66c0c6c9f38b4d94fabe0b96a909a37ed0f92",
                        "0x0000000000000000000000008876819535b48b551c9e97ebc07332c7482b4b2d"
                    ]
                },
                "nodeType": 1
            },
            "8": {
                "event": {
                    "contract": "0x8876819535b48b551c9e97ebc07332c7482b4b2d",
                    "decodedLog": {
                        "name": "Donate",
                        "params": [
                            {
                                "name": "amount",
                                "type": "uint256",
                                "value": "132,597,087,000,000,014,057"
                            },
                            {
                                "name": "isBaseToken",
                                "type": "bool",
                                "value": true
                            }
                        ],
                        "signature": "Donate(uint256,bool)"
                    },
                    "id": 8,
                    "logData": "0x00000000000000000000000000000000000000000000000730277c18d69126e90000000000000000000000000000000000000000000000000000000000000001",
                    "logDecoded": true,
                    "operation": "EVENT",
                    "revert": false,
                    "status": true,
                    "topics": [
                        "0xa259c93818139b6bc90fb80e8feb75122b42edaae49560f81392cf4e1946726e"
                    ]
                },
                "nodeType": 1
            },
            "9": {
                "event": {
                    "contract": "0x8876819535b48b551c9e97ebc07332c7482b4b2d",
                    "decodedLog": {
                        "name": "BuyBaseToken",
                        "params": [
                            {
                                "name": "buyer",
                                "type": "address",
                                "value": "0xd2a66c0c6c9f38b4d94fabe0b96a909a37ed0f92"
                            },
                            {
                                "name": "receiveBase",
                                "type": "uint256",
                                "value": "44,199,029,000,000,004,685,824"
                            },
                            {
                                "name": "payQuote",
                                "type": "uint256",
                                "value": "4,972,241,650"
                            }
                        ],
                        "signature": "BuyBaseToken(address,uint256,uint256)"
                    },
                    "id": 9,
                    "logData": "0x00000000000000000000000000000000000000000000095c08beeb020d00000000000000000000000000000000000000000000000000000000000001285e62f2",
                    "logDecoded": true,
                    "operation": "EVENT",
                    "revert": false,
                    "status": true,
                    "topics": [
                        "0xe93ad76094f247c0dafc1c61adc2187de1ac2738f7a3b49cb20b2263420251a3",
                        "0x000000000000000000000000d2a66c0c6c9f38b4d94fabe0b96a909a37ed0f92"
                    ]
                },
                "nodeType": 1
            }
        },
        "gasFlame": [
            {
                "children": [
                    {
                        "children": [
                            {
                                "children": [],
                                "depth": 0,
                                "name": "Initial Gas",
                                "value": 21860
                            },
                            {
                                "children": [
                                    {
                                        "children": [
                                            {
                                                "children": [],
                                                "depth": 2,
                                                "name": "getPrice",
                                                "value": 2328
                                            },
                                            {
                                                "children": [],
                                                "depth": 2,
                                                "name": "getPrice",
                                                "value": 328
                                            },
                                            {
                                                "children": [],
                                                "depth": 2,
                                                "name": "transfer",
                                                "value": 13020
                                            },
                                            {
                                                "children": [],
                                                "depth": 2,
                                                "name": "transferFrom",
                                                "value": 26530
                                            }
                                        ],
                                        "depth": 1,
                                        "name": "buyBaseToken",
                                        "value": 111063
                                    }
                                ],
                                "depth": 0,
                                "name": "Executed Gas",
                                "value": 113759
                            }
                        ],
                        "depth": -1,
                        "name": "Actual Gas Used",
                        "value": 132819
                    },
                    {
                        "children": [],
                        "depth": -1,
                        "name": "Refunded Gas",
                        "value": 2800
                    }
                ],
                "depth": -2,
                "name": "Total Gas",
                "value": 135619
            }
        ],
        "isConfirmed": true,
        "mainTrace": [
            {
                "children": [
                    {
                        "children": [
                            {
                                "children": [
                                    {
                                        "children": [],
                                        "depth": 2,
                                        "id": 2,
                                        "order": 2
                                    },
                                    {
                                        "children": [],
                                        "depth": 2,
                                        "id": 3,
                                        "order": 3
                                    },
                                    {
                                        "children": [
                                            {
                                                "children": [],
                                                "depth": 3,
                                                "id": 5,
                                                "order": 5
                                            }
                                        ],
                                        "depth": 2,
                                        "id": 4,
                                        "order": 4
                                    },
                                    {
                                        "children": [
                                            {
                                                "children": [],
                                                "depth": 3,
                                                "id": 7,
                                                "order": 7
                                            }
                                        ],
                                        "depth": 2,
                                        "id": 6,
                                        "order": 6
                                    },
                                    {
                                        "children": [],
                                        "depth": 2,
                                        "id": 8,
                                        "order": 8
                                    },
                                    {
                                        "children": [],
                                        "depth": 2,
                                        "id": 9,
                                        "order": 9
                                    }
                                ],
                                "depth": 1,
                                "id": 1,
                                "order": 1
                            }
                        ],
                        "depth": 0,
                        "id": 0,
                        "order": 0
                    }
                ],
                "depth": -1,
                "id": -1,
                "order": -1
            }
        ],
        "mainTraceNodeCount": 10,
        "parentIdMap": {
            "0": -1,
            "1": 0,
            "2": 1,
            "3": 1,
            "4": 1,
            "5": 4,
            "6": 1,
            "7": 6,
            "8": 1,
            "9": 1
        },
        "tidyTrace": [
            {
                "children": [
                    {
                        "children": [
                            {
                                "children": [
                                    {
                                        "children": [
                                            {
                                                "children": [],
                                                "depth": 3,
                                                "id": 5,
                                                "order": 5
                                            }
                                        ],
                                        "depth": 2,
                                        "id": 4,
                                        "order": 4
                                    },
                                    {
                                        "children": [
                                            {
                                                "children": [],
                                                "depth": 3,
                                                "id": 7,
                                                "order": 7
                                            }
                                        ],
                                        "depth": 2,
                                        "id": 6,
                                        "order": 6
                                    },
                                    {
                                        "children": [],
                                        "depth": 2,
                                        "id": 8,
                                        "order": 8
                                    },
                                    {
                                        "children": [],
                                        "depth": 2,
                                        "id": 9,
                                        "order": 9
                                    }
                                ],
                                "depth": 1,
                                "id": 1,
                                "order": 1
                            }
                        ],
                        "depth": 0,
                        "id": 0,
                        "order": 0
                    }
                ],
                "depth": -1,
                "id": -1,
                "order": -1
            }
        ],
        "tidyTraceNodeCount": 8
    },
    "state_change": {
        "stateChanges": [
            {
                "address": "0x43dfc4159d86f3a37a5a4b3d4580b888ad7d4ddd",
                "erc": "ERC-20",
                "slots": [
                    {
                        "current": "0x000000000000000000000000000000000000000000083207e6404d217b0ad9b5",
                        "key": "0xc2614317d500f798bc1e3cce06c5528eb23a17ab163e96368326a90cd5c2855f",
                        "prev": "0x000000000000000000000000000000000000000000083b63eeff3823880ad9b5"
                    },
                    {
                        "current": "0x000000000000000000000000000000000000000000004c8ca65b4febf5ced00c",
                        "key": "0x9612cdf3066c1e33f35efa75ff62441cf0042f9a30f56c5fdf79925e70681029",
                        "prev": "0x0000000000000000000000000000000000000000000043309d9c64e9e8ced00c"
                    }
                ],
                "storageVariables": [
                    {
                        "name": "balances",
                        "type": "mapping(address => uint256)",
                        "value": {
                            "pairs": [
                                {
                                    "key": "0x8876819535b48b551c9e97ebc07332c7482b4b2d",
                                    "value": {
                                        "current": "9907670599614865051670965",
                                        "prev": "9951869628614865056356789",
                                        "typeTag": 1
                                    }
                                },
                                {
                                    "key": "0xd2a66c0c6c9f38b4d94fabe0b96a909a37ed0f92",
                                    "value": {
                                        "current": "361494384131120410054668",
                                        "prev": "317295355131120405368844",
                                        "typeTag": 1
                                    }
                                }
                            ],
                            "typeTag": 4
                        }
                    }
                ]
            },
            {
                "address": "0x8876819535b48b551c9e97ebc07332c7482b4b2d",
                "erc": "",
                "slots": [
                    {
                        "current": "0x000000000000000000000000000000000000000000083207e6404d217b0ad9b5",
                        "key": "0x000000000000000000000000000000000000000000000000000000000000000e",
                        "prev": "0x000000000000000000000000000000000000000000083b63eeff3823880ad9b5"
                    },
                    {
                        "current": "0x0000000000000000000000000000000000000000000000000000005bd8a98dc3",
                        "key": "0x000000000000000000000000000000000000000000000000000000000000000f",
                        "prev": "0x0000000000000000000000000000000000000000000000000000005ab04b2ad1"
                    },
                    {
                        "current": "0x00000000000000000000000000000000000000000008b304c43d27af8272ceb9",
                        "key": "0x000000000000000000000000000000000000000000000000000000000000000c",
                        "prev": "0x00000000000000000000000000000000000000000008b2fd8da48c9c6b6ad8a7"
                    }
                ],
                "storageVariables": [
                    {
                        "name": "_BASE_BALANCE_",
                        "type": "uint256",
                        "value": {
                            "current": "9907670599614865051670965",
                            "prev": "9951869628614865056356789",
                            "typeTag": 1
                        }
                    },
                    {
                        "name": "_QUOTE_BALANCE_",
                        "type": "uint256",
                        "value": {
                            "current": "394477014467",
                            "prev": "389504772817",
                            "typeTag": 1
                        }
                    },
                    {
                        "name": "_TARGET_BASE_TOKEN_AMOUNT_",
                        "type": "uint256",
                        "value": {
                            "current": "10516798084829034503655097",
                            "prev": "10516665023555737735583911",
                            "typeTag": 1
                        }
                    }
                ]
            },
            {
                "address": "0xdac17f958d2ee523a2206206994597c13d831ec7",
                "erc": "ERC-20",
                "slots": [
                    {
                        "current": "0x0000000000000000000000000000000000000000000000000000002f5ffcf07f",
                        "key": "0x808d4590d6481ec47444c3d4735b4c338daace9fc07aac773284740c61119bc3",
                        "prev": "0x00000000000000000000000000000000000000000000000000000030885b5371"
                    },
                    {
                        "current": "0x0000000000000000000000000000000000000000000000000000005bd8a98dc3",
                        "key": "0x98838913f26878d360210cb6120d4675489bcf919ad2806299a5aefe8f1c40b5",
                        "prev": "0x0000000000000000000000000000000000000000000000000000005ab04b2ad1"
                    }
                ],
                "storageVariables": [
                    {
                        "name": "balances",
                        "type": "mapping(address => uint256)",
                        "value": {
                            "pairs": [
                                {
                                    "key": "0x8876819535b48b551c9e97ebc07332c7482b4b2d",
                                    "value": {
                                        "current": "394477014467",
                                        "prev": "389504772817",
                                        "typeTag": 1
                                    }
                                },
                                {
                                    "key": "0xd2a66c0c6c9f38b4d94fabe0b96a909a37ed0f92",
                                    "value": {
                                        "current": "203473875071",
                                        "prev": "208446116721",
                                        "typeTag": 1
                                    }
                                }
                            ],
                            "typeTag": 4
                        }
                    }
                ]
            }
        ]
    }
}