{
    "balance_change": {
        "balanceChanges": [
            {
                "account": "0x59a5208b32e627891c389ebafc644145224006e8",
                "assets": [
                    {
                        "address": "0x514910771af9ca656af840dff83e8264ecf986ca",
                        "amount": "690",
                        "iconUrl": "https://assets.blocksec.com/icon/f97453a18956674db69f16b525216d646fc76f3c7f90f0cd6147f8534d5af3e9.png",
                        "isERC1155": false,
                        "isERC721": false,
                        "sign": false,
                        "value": ""
                    }
                ]
            },
            {
                "account": "0x0a811397d6b657a387772394bbf987fbafc00eb1",
                "assets": [
                    {
                        "address": "0x514910771af9ca656af840dff83e8264ecf986ca",
                        "amount": "690",
                        "iconUrl": "https://assets.blocksec.com/icon/f97453a18956674db69f16b525216d646fc76f3c7f90f0cd6147f8534d5af3e9.png",
                        "isERC1155": false,
                        "isERC721": false,
                        "sign": true,
                        "value": ""
                    }
                ]
            }
        ]
    },
    "profile": {
        "basic_info": {
            "baseFee": "",
            "blockNumber": 10358327,
            "callData": "0xa9059cbb0000000000000000000000000a811397d6b657a387772394bbf987fbafc00eb100000000000000000000000000000000000000000000002567ac70392b880000",
            "debugEnable": true,
            "errorInfo": "",
            "eventCount": 1,
            "feeRecipient": "0x829bd824b016326a401d083b33d092293333a830",
            "formatValue": "0",
            "gasLimit": 103178,
            "gasPrice": "36.1",
            "gasUsed": 51589,
            "intTxnCount": 0,
            "internalRevert": false,
            "internalRevertMessage": "",
            "isContractCreation": false,
            "isFlashloan": false,
            "maxFee": "",
            "nonce": 1058047,
            "overwritedBlockNumber": -1,
            "priorityFee": "",
            "receiver": "0x514910771af9ca656af840dff83e8264ecf986ca",
            "revertMessage": "",
            "sender": "0x59a5208b32e627891c389ebafc644145224006e8",
            "simulationEnable": true,
            "sourceTxnHash": "0x58d93f107040cceeb3cee23813cf1664610ef24121617cc3136072277d3d4272",
            "status": true,
            "timestamp": "2020-06-29T03:24:43Z",
            "transactionFee": "0.0018623629",
            "txnHash": "0x58d93f107040cceeb3cee23813cf1664610ef24121617cc3136072277d3d4272",
            "txnIndex": 37,
            "type": 0,
            "value": "0"
        },
        "fund_flow": [
            {
                "amount": "690",
                "from": "0x59a5208b32e627891c389ebafc644145224006e8",
                "id": 1,
                "isERC1155": false,
                "isERC721": false,
                "isReverted": false,
                "order": 1,
                "to": "0x0a811397d6b657a387772394bbf987fbafc00eb1",
                "token": "0x514910771af9ca656af840dff83e8264ecf986ca"
            }
        ],
        "token_infos": [
            {
                "address": "0x514910771af9ca656af840dff83e8264ecf986ca",
                "decimals": 18
            },
            {
                "address": "0xc02aaa39b223fe8d0a0e5c4f27ead9083c756cc2",
                "decimals": 18
            },
            {
                "address": "0xeeeeeeeeeeeeeeeeeeeeeeeeeeeeeeeeeeeeeeee",
                "decimals": 18
            }
        ]
    },
    "address_label": {
        "labels": [
            {
                "address": "0x0000000000000000000000000000000000000002",
                "label": "Precompiled"
            },
            {
                "address": "0x0000000000000000000000000000000000000003",
                "label": "Precompiled"
            },
            {
                "address": "0x0000000000000000000000000000000000000004",
                "label": "Precompiled"
            },
            {
                "address": "0xeeeeeeeeeeeeeeeeeeeeeeeeeeeeeeeeeeeeeeee",
                "label": "Ether"
            },
            {
                "address": "0x514910771af9ca656af840dff83e8264ecf986ca",
                "label": "Chainlink: LINK Token"
            },
            {
                "address": "0x59a5208b32e627891c389ebafc644145224006e8",
                "label": "HitBTC 2"
            },
            {
                "address": "0x0000000000000000000000000000000000000001",
                "label": "Precompiled"
            }
        ]
    },
    "trace": {
        "accountLabels": null,
        "dataMap": {
            "-1": {
                "invocation": {
                    "address": "0x59a5208b32e627891c389ebafc644145224006e8",
                    "callData": "",
                    "decodedMethod": null,
                    "errorInfo": "",
                    "fromAddress": "",
                    "gasUsed": 0,
                    "id": -1,
                    "methodDecoded": false,
                    "operation": "",
                    "output": "",
                    "revert": false,
                    "revertMessage": "",
                    "selector": "",
                    "status": false,
                    "value": ""
                },
                "nodeType": 0
            },
            "0": {
                "invocation": {
                    "address": "0x514910771af9ca656af840dff83e8264ecf986ca",
                    "callData": "0x0000000000000000000000000a811397d6b657a387772394bbf987fbafc00eb100000000000000000000000000000000000000000000002567ac70392b880000",
                    "decodedMethod": {
                        "callParams": [
                            {
                                "name": "_to",
                                "type": "address",
                                "value": "0x0a811397d6b657a387772394bbf987fbafc00eb1"
                            },
                            {
                                "decimalAvailable": true,
                                "name": "_value",
                                "type": "uint256",
                                "value": "690,000,000,000,000,000,000"
                            }
                        ],
                        "constructorArguments": "",
                        "name": "transfer",
                        "returnParams": [
                            {
                                "name": "success",
                                "type": "bool",
                                "value": true
                            }
                        ],
                        "signature": "transfer(address,uint256)"
                    },
                    "errorInfo": "",
                    "fromAddress": "0x59a5208b32e627891c389ebafc644145224006e8",
                    "gasUsed": 51589,
                    "id": 0,
                    "methodDecoded": true,
                    "operation": "CALL",
                    "output": "0x0000000000000000000000000000000000000000000000000000000000000001",
                    "revert": false,
                    "revertMessage": "",
                    "selector": "0xa9059cbb",
                    "status": true,
                    "value": "0"
                },
                "nodeType": 0
            },
            "1": {
                "event": {
                    "contract": "0x514910771af9ca656af840dff83e8264ecf986ca",
                    "decodedLog": {
                        "name": "Transfer",
                        "params": [
                            {
                                "name": "from",
                                "type": "address",
                                "value": "0x59a5208b32e627891c389ebafc644145224006e8"
                            },
                            {
                                "name": "to",
                                "type": "address",
                                "value": "0x0a811397d6b657a387772394bbf987fbafc00eb1"
                            },
                            {
                                "decimalAvailable": true,
                                "name": "value",
                                "type": "uint256",
                                "value": "690,000,000,000,000,000,000"
                            }
                        ],
                        "signature": "Transfer(address,address,uint256)"
                    },
                    "id": 1,
                    "logData": "0x00000000000000000000000000000000000000000000002567ac70392b880000",
                    "logDecoded": true,
                    "operation": "EVENT",
                    "revert": false,
                    "status": true,
                    "topics": [
                        "0xddf252ad1be2c89b69c2b068fc378daa952ba7f163c4a11628f55a4df523b3ef",
                        "0x00000000000000000000000059a5208b32e627891c389ebafc644145224006e8",
                        "0x0000000000000000000000000a811397d6b657a387772394bbf987fbafc00eb1"
                    ]
                },
                "nodeType": 1
            }
        },
        "gasFlame": [
            {
                "children": [
                    {
                        "children": [
                            {
                                "children": [],
                                "depth": 0,
                                "name": "Initial Gas",
                                "value": 21644
                            },
                            {
                                "children": [],
                                "depth": 0,
                                "name": "Executed Gas",
                                "value": 29945
                            }
                        ],
                        "depth": -1,
                        "name": "Actual Gas Used",
                        "value": 51589
                    },
                    {
                        "children": [],
                        "depth": -1,
                        "name": "Refunded Gas",
                        "value": 0
                    }
                ],
                "depth": -2,
                "name": "Total Gas",
                "value": 51589
            }
        ],
        "isConfirmed": true,
        "mainTrace": [
            {
                "children": [
                    {
                        "children": [
                            {
                                "children": [],
                                "depth": 1,
                                "id": 1,
                                "order": 1
                            }
                        ],
                        "depth": 0,
                        "id": 0,
                        "order": 0
                    }
                ],
                "depth": -1,
                "id": -1,
                "order": -1
            }
        ],
        "mainTraceNodeCount": 2,
        "parentIdMap": {
            "0": -1,
            "1": 0
        },
        "tidyTrace": [
            {
                "children": [
                    {
                        "children": [
                            {
                                "children": [],
                                "depth": 1,
                                "id": 1,
                                "order": 1
                            }
                        ],
                        "depth": 0,
                        "id": 0,
                        "order": 0
                    }
                ],
                "depth": -1,
                "id": -1,
                "order": -1
            }
        ],
        "tidyTraceNodeCount": 2
    },
    "state_change": {
        "stateChanges": [
            {
                "address": "0x514910771af9ca656af840dff83e8264ecf986ca",
                "erc": "",
                "slots": [
                    {
                        "current": "0x000000000000000000000000000000000000000000000013c99bd88c29981000",
                        "key": "0x2454d1bafa996bd64a29c8b5bf292cf823fb79d55818e0580394d0f3fedf7abb",
                        "prev": "0x000000000000000000000000000000000000000000000039314848c555201000"
                    },
                    {
                        "current": "0x00000000000000000000000000000000000000000000002567ac70392b880000",
                        "key": "0xc577c985e8a9b125b07b27a83032a75f82f2fd3ff65d0200bbfbdf0ede6d3b21",
                        "prev": "0x0000000000000000000000000000000000000000000000000000000000000000"
                    }
                ],
                "storageVariables": [
                    {
                        "name": "balances",
                        "type": "mapping(address => uint256)",
                        "value": {
                            "pairs": [
                                {
                                    "key": "0x0a811397d6b657a387772394bbf987fbafc00eb1",
                                    "value": {
                                        "current": "690000000000000000000",
                                        "prev": "0",
                                        "typeTag": 1
                                    }
                                },
                                {
                                    "key": "0x59a5208b32e627891c389ebafc644145224006e8",
                                    "value": {
                                        "current": "365015580520000000000",
                                        "prev": "1055015580520000000000",
                                        "typeTag": 1
                                    }
                                }
                            ],
                            "typeTag": 4
                        }
                    }
                ]
            }
        ]
    }
}