{
    "balance_change": {
        "balanceChanges": [
            {
                "account": "0xa7fb5ca286fc3fd67525629048a4de3ba24cba2e",
                "assets": [
                    {
                        "address": "0xeeeeeeeeeeeeeeeeeeeeeeeeeeeeeeeeeeeeeeee",
                        "amount": "0.006919316638157",
                        "iconUrl": "https://assets.blocksec.com/image/1663669189317-3.png",
                        "isERC1155": false,
                        "isERC721": false,
                        "sign": true,
                        "value": "21.32547226"
                    }
                ]
            },
            {
                "account": "0x87970ff66cee8f57da092a89bc89a43e842ab045",
                "assets": [
                    {
                        "address": "0xeeeeeeeeeeeeeeeeeeeeeeeeeeeeeeeeeeeeeeee",
                        "amount": "0.006919316638157",
                        "iconUrl": "https://assets.blocksec.com/image/1663669189317-3.png",
                        "isERC1155": false,
                        "isERC721": false,
                        "sign": false,
                        "value": "21.32547226"
                    }
                ]
            }
        ]
    },
    "profile": {
        "basic_info": {
            "baseFee": "10.561175872",
            "blockNumber": 19666357,
            "callData": "0xf3fef3a300000000000000000000000000000000000000000000000000000000000000000000000000000000000000000000000000000000000000000000000000104eec",
            "debugEnable": true,
            "errorInfo": "",
            "eventCount": 1,
            "feeRecipient": "0x4838b106fce9647bdf1e7877bf73ce8b0bad5f97",
            "formatValue": "0",
            "gasLimit": 100000,
            "gasPrice": "12.155601891",
            "gasUsed": 72826,
            "intTxnCount": 4,
            "internalRevert": false,
            "internalRevertMessage": "",
            "isContractCreation": false,
            "isFlashloan": false,
            "maxFee": "18.433439623",
            "nonce": 245794,
            "overwritedBlockNumber": -1,
            "priorityFee": "1.594426019",
            "receiver": "0xc77ad0a71008d7094a62cfbd250a2eb2afdf2776",
            "revertMessage": "",
            "sender": "0xa7fb5ca286fc3fd67525629048a4de3ba24cba2e",
            "simulationEnable": true,
            "sourceTxnHash": "0x58199831f6ee9255f9c51a67089243d83313865b224f8de0fe1c72ea77f49bf2",
            "status": true,
            "timestamp": "2024-04-16T06:48:23Z",
            "transactionFee": "0.000885243863313966",
            "txnHash": "0x58199831f6ee9255f9c51a67089243d83313865b224f8de0fe1c72ea77f49bf2",
            "txnIndex": 132,
            "type": 2,
            "value": "0"
        },
        "fund_flow": [
            {
                "amount": "0.006919316638157",
                "from": "0x87970ff66cee8f57da092a89bc89a43e842ab045",
                "id": 1,
                "isERC1155": false,
                "isERC721": false,
                "isReverted": false,
                "order": 1,
                "to": "0xa7fb5ca286fc3fd67525629048a4de3ba24cba2e",
                "token": "0xeeeeeeeeeeeeeeeeeeeeeeeeeeeeeeeeeeeeeeee"
            }
        ],
        "token_infos": [
            {
                "address": "0xc02aaa39b223fe8d0a0e5c4f27ead9083c756cc2",
                "decimals": 18
            },
            {
                "address": "0xeeeeeeeeeeeeeeeeeeeeeeeeeeeeeeeeeeeeeeee",
                "decimals": 18
            }
        ]
    },
    "address_label": {
        "labels": [
            {
                "address": "0x0000000000000000000000000000000000000002",
                "label": "Precompiled"
            },
            {
                "address": "0x0000000000000000000000000000000000000003",
                "label": "Precompiled"
            },
            {
                "address": "0x0000000000000000000000000000000000000004",
                "label": "Precompiled"
            },
            {
                "address": "0xeeeeeeeeeeeeeeeeeeeeeeeeeeeeeeeeeeeeeeee",
                "label": "Ether"
            },
            {
                "address": "0xa7fb5ca286fc3fd67525629048a4de3ba24cba2e",
                "label": "B2BinPay 3"
            },
            {
                "address": "0x0000000000000000000000000000000000000000",
                "label": "Null Address"
            },
            {
                "address": "0x0000000000000000000000000000000000000001",
                "label": "Precompiled"
            }
        ]
    },
    "trace": {
        "accountLabels": null,
        "dataMap": {
            "-1": {
                "invocation": {
                    "address": "0xa7fb5ca286fc3fd67525629048a4de3ba24cba2e",
                    "callData": "",
                    "decodedMethod": null,
                    "errorInfo": "",
                    "fromAddress": "",
                    "gasUsed": 0,
                    "id": -1,
                    "methodDecoded": false,
                    "operation": "",
                    "output": "",
                    "revert": false,
                    "revertMessage": "",
                    "selector": "",
                    "status": false,
                    "value": ""
                },
                "nodeType": 0
            },
            "0": {
                "invocation": {
                    "address": "0xc77ad0a71008d7094a62cfbd250a2eb2afdf2776",
                    "callData": "0x00000000000000000000000000000000000000000000000000000000000000000000000000000000000000000000000000000000000000000000000000104eec",
                    "decodedMethod": {
                        "callParams": [
                            {
                                "name": "_token",
                                "type": "address",
                                "value": "0x0000000000000000000000000000000000000000"
                            },
                            {
                                "name": "_amount",
                                "type": "uint256",
                                "value": "1,068,780"
                            }
                        ],
                        "constructorArguments": "",
                        "name": "withdraw",
                        "returnParams": [],
                        "signature": "withdraw(address,uint256)"
                    },
                    "errorInfo": "",
                    "fromAddress": "0xa7fb5ca286fc3fd67525629048a4de3ba24cba2e",
                    "gasUsed": 72826,
                    "id": 0,
                    "methodDecoded": true,
                    "operation": "CALL",
                    "output": "",
                    "revert": false,
                    "revertMessage": "",
                    "selector": "0xf3fef3a3",
                    "status": true,
                    "value": "0"
                },
                "nodeType": 0
            },
            "1": {
                "invocation": {
                    "address": "0x87970ff66cee8f57da092a89bc89a43e842ab045",
                    "callData": "0x608060408190526319b400eb60e21b8152339060009082906366d003ac9060849060209060048186803b15801561003557600080fd5b505afa158015610049573d6000803e3d6000fd5b505050506040513d601f19601f8201168201806040525081019061006d9190610271565b90506000826001600160a01b031663fc0c546a6040518163ffffffff1660e01b815260040160206040518083038186803b1580156100aa57600080fd5b505afa1580156100be573d6000803e3d6000fd5b505050506040513d601f19601f820116820180604052508101906100e29190610271565b90506001600160a01b0381161561018d576040516370a0823160e01b815230600482015261018d9083906001600160a01b038416906370a082319060240160206040518083038186803b15801561013857600080fd5b505afa15801561014c573d6000803e3d6000fd5b505050506040513d601f19601f8201168201806040525081019061017091906102bf565b836001600160a01b031661019960201b610009179092919060201c565b816001600160a01b0316ff5b604080516001600160a01b038481166024830152604480830185905283518084039091018152606490920183526020820180516001600160e01b031663a9059cbb60e01b17905291516000928392908716916101f591906102d7565b6000604051808303816000865af19150503d8060008114610232576040519150601f19603f3d011682016040523d82523d6000602084013e610237565b606091505b5091509150818015610261575080511580610261575080806020019051810190610261919061029f565b61026a57600080fd5b5050505050565b600060208284031215610282578081fd5b81516001600160a01b0381168114610298578182fd5b9392505050565b6000602082840312156102b0578081fd5b81518015158114610298578182fd5b6000602082840312156102d0578081fd5b5051919050565b60008251815b818110156102f757602081860181015185830152016102dd565b818111156103055782828501525b50919091019291505056fe",
                    "decodedMethod": null,
                    "errorInfo": "",
                    "fromAddress": "0xc77ad0a71008d7094a62cfbd250a2eb2afdf2776",
                    "gasUsed": 8931,
                    "id": 1,
                    "methodDecoded": false,
                    "operation": "CREATE2",
                    "output": "",
                    "revert": false,
                    "revertMessage": "",
                    "selector": "",
                    "status": true,
                    "value": "0"
                },
                "nodeType": 0
            },
            "2": {
                "invocation": {
                    "address": "0xc77ad0a71008d7094a62cfbd250a2eb2afdf2776",
                    "callData": "0x",
                    "decodedMethod": {
                        "callParams": [],
                        "constructorArguments": "",
                        "name": "recipient",
                        "returnParams": [
                            {
                                "name": "",
                                "type": "address",
                                "value": "0xa7fb5ca286fc3fd67525629048a4de3ba24cba2e"
                            }
                        ],
                        "signature": "recipient()"
                    },
                    "errorInfo": "",
                    "fromAddress": "0x87970ff66cee8f57da092a89bc89a43e842ab045",
                    "gasUsed": 2387,
                    "id": 2,
                    "methodDecoded": true,
                    "operation": "STATICCALL",
                    "output": "0x000000000000000000000000a7fb5ca286fc3fd67525629048a4de3ba24cba2e",
                    "revert": false,
                    "revertMessage": "",
                    "selector": "0x66d003ac",
                    "status": true,
                    "value": "0"
                },
                "nodeType": 0
            },
            "3": {
                "invocation": {
                    "address": "0xc77ad0a71008d7094a62cfbd250a2eb2afdf2776",
                    "callData": "0x",
                    "decodedMethod": {
                        "callParams": [],
                        "constructorArguments": "",
                        "name": "token",
                        "returnParams": [
                            {
                                "name": "",
                                "type": "address",
                                "value": "0x0000000000000000000000000000000000000000"
                            }
                        ],
                        "signature": "token()"
                    },
                    "errorInfo": "",
                    "fromAddress": "0x87970ff66cee8f57da092a89bc89a43e842ab045",
                    "gasUsed": 425,
                    "id": 3,
                    "methodDecoded": true,
                    "operation": "STATICCALL",
                    "output": "0x0000000000000000000000000000000000000000000000000000000000000000",
                    "revert": false,
                    "revertMessage": "",
                    "selector": "0xfc0c546a",
                    "status": true,
                    "value": "0"
                },
                "nodeType": 0
            },
            "4": {
                "invocation": {
                    "address": "0xa7fb5ca286fc3fd67525629048a4de3ba24cba2e",
                    "callData": "",
                    "decodedMethod": null,
                    "errorInfo": "",
                    "fromAddress": "0x87970ff66cee8f57da092a89bc89a43e842ab045",
                    "gasUsed": 0,
                    "id": 4,
                    "methodDecoded": false,
                    "operation": "SELFDESTRUCT",
                    "output": "",
                    "revert": false,
                    "revertMessage": "",
                    "selector": "",
                    "status": true,
                    "value": "0.006919316638157"
                },
                "nodeType": 0
            },
            "5": {
                "event": {
                    "contract": "0xc77ad0a71008d7094a62cfbd250a2eb2afdf2776",
                    "decodedLog": {
                        "name": "Withdrawn",
                        "params": [
                            {
                                "name": "sender",
                                "type": "address",
                                "value": "0xa7fb5ca286fc3fd67525629048a4de3ba24cba2e"
                            },
                            {
                                "name": "to",
                                "type": "address",
                                "value": "0x87970ff66cee8f57da092a89bc89a43e842ab045"
                            },
                            {
                                "name": "amount",
                                "type": "uint256",
                                "value": "6,919,316,638,157,000"
                            }
                        ],
                        "signature": "Withdrawn(address,address,uint256)"
                    },
                    "id": 5,
                    "logData": "0x000000000000000000000000a7fb5ca286fc3fd67525629048a4de3ba24cba2e00000000000000000000000087970ff66cee8f57da092a89bc89a43e842ab04500000000000000000000000000000000000000000000000000189514f24e48c8",
                    "logDecoded": true,
                    "operation": "EVENT",
                    "revert": false,
                    "status": true,
                    "topics": [
                        "0xd1c19fbcd4551a5edfb66d43d2e337c04837afda3482b42bdf569a8fccdae5fb"
                    ]
                },
                "nodeType": 1
            }
        },
        "gasFlame": [
            {
                "children": [
                    {
                        "children": [
                            {
                                "children": [],
                                "depth": 0,
                                "name": "Initial Gas",
                                "value": 21356
                            },
                            {
                                "children": [
                                    {
                                        "children": [
                                            {
                                                "children": [],
                                                "depth": 2,
                                                "name": "recipient",
                                                "value": 2387
                                            },
                                            {
                                                "children": [],
                                                "depth": 2,
                                                "name": "token",
                                                "value": 425
                                            },
                                            {
                                                "children": [],
                                                "depth": 2,
                                                "name": "",
                                                "value": 0
                                            }
                                        ],
                                        "depth": 1,
                                        "name": "contract creation",
                                        "value": 8931
                                    }
                                ],
                                "depth": 0,
                                "name": "Executed Gas",
                                "value": 51470
                            }
                        ],
                        "depth": -1,
                        "name": "Actual Gas Used",
                        "value": 72826
                    },
                    {
                        "children": [],
                        "depth": -1,
                        "name": "Refunded Gas",
                        "value": 0
                    }
                ],
                "depth": -2,
                "name": "Total Gas",
                "value": 72826
            }
        ],
        "isConfirmed": true,
        "mainTrace": [
            {
                "children": [
                    {
                        "children": [
                            {
                                "children": [
                                    {
                                        "children": [],
                                        "depth": 2,
                                        "id": 2,
                                        "order": 2
                                    },
                                    {
                                        "children": [],
                                        "depth": 2,
                                        "id": 3,
                                        "order": 3
                                    },
                                    {
                                        "children": [],
                                        "depth": 2,
                                        "id": 4,
                                        "order": 4
                                    }
                                ],
                                "depth": 1,
                                "id": 1,
                                "order": 1
                            },
                            {
                                "children": [],
                                "depth": 1,
                                "id": 5,
                                "order": 5
                            }
                        ],
                        "depth": 0,
                        "id": 0,
                        "order": 0
                    }
                ],
                "depth": -1,
                "id": -1,
                "order": -1
            }
        ],
        "mainTraceNodeCount": 6,
        "parentIdMap": {
            "0": -1,
            "1": 0,
            "2": 1,
            "3": 1,
            "4": 1,
            "5": 0
        },
        "tidyTrace": [
            {
                "children": [
                    {
                        "children": [
                            {
                                "children": [
                                    {
                                        "children": [],
                                        "depth": 2,
                                        "id": 4,
                                        "order": 4
                                    }
                                ],
                                "depth": 1,
                                "id": 1,
                                "order": 1
                            },
                            {
                                "children": [],
                                "depth": 1,
                                "id": 5,
                                "order": 5
                            }
                        ],
                        "depth": 0,
                        "id": 0,
                        "order": 0
                    }
                ],
                "depth": -1,
                "id": -1,
                "order": -1
            }
        ],
        "tidyTraceNodeCount": 4
    },
    "state_change": {
        "stateChanges": []
    }
}