{
    "balance_change": {
        "balanceChanges": []
    },
    "profile": {
        "basic_info": {
            "baseFee": "64.40973108",
            "blockNumber": 13787364,
            "callData": "0xc98075390000000000000000000000000000000000000000000000000000000000000080000000000000000000000000000000000000000000000000000000000000032000000000000000000000000000000000000000000000000000000000000004000101010100000000000000000000000000000000000000000000000000000000000000000000000000000000000000000000000000000000000000000000028000000000000000000000006bfad662ae28b302e3e013f1b6f2d4e8000013230405040a080d0f0c00010e020907030b0600000000000000000000000000000000000000000000000000000000000000000000000000000000000000000000006000000000000000000000000000000000000000000000000000000000000000100000000000000000000000000000000000000000000000000000000003f57d380000000000000000000000000000000000000000000000000000000003f651a50000000000000000000000000000000000000000000000000000000003f69e260000000000000000000000000000000000000000000000000000000003f69e260000000000000000000000000000000000000000000000000000000003f6f2f80000000000000000000000000000000000000000000000000000000003f6f2f80000000000000000000000000000000000000000000000000000000003f6fc820000000000000000000000000000000000000000000000000000000003f6fc820000000000000000000000000000000000000000000000000000000003f6feac0000000000000000000000000000000000000000000000000000000003f6feac0000000000000000000000000000000000000000000000000000000003f6feac0000000000000000000000000000000000000000000000000000000003f6feac0000000000000000000000000000000000000000000000000000000003f7229c0000000000000000000000000000000000000000000000000000000003f7229c0000000000000000000000000000000000000000000000000000000003f72ff10000000000000000000000000000000000000000000000000000000003f7c29b000000000000000000000000000000000000000000000000000000000000000686e56aba5732355a82c77734de4c0b5c414b74560e9a536660ed25af92087454570fee94eb38508ec43d28d054d921375b46246dd50863b97838595cc16e0337a87708267d055a3227d38f268376aeef9e4403ef63c85fda7166bcd550bacd86659de6f38d2978cf2a3367978c339f7f36b57efa299c3b60db592eed4c41fb9521546fdf37f52ef55137676e94e799606b1335fddeb1eab773fe8ad05e51bcacfee11f8b034f5ae98f4b4e9cc1b2e34b2715e78a647624a922870dca8f8422ab00000000000000000000000000000000000000000000000000000000000000065a2d3de994a54a452b4a84c8bb9ebec1316cf6440dcf9b940963fb22a875b7ea410b4f784c346e8283310feb69c71cccaf8f8f2c1ab07537e61bad0fa5bfb5851c9e881773366b6334bd6ba636b1de037c391ae9c562e4df64981d1b1910fc9658976871f3c642e560cef6b36a035504f1cb143e2505ed4f4be5475691b9af4959c50d76d9234f9e6fb3ce2b908018d274943553535ac4012bfac01b20056f5a17fd0df6a04506d1df4759ce08efb11b9a077f8b23bd4cf7585a0ddc0d96572a",
            "debugEnable": true,
            "errorInfo": "",
            "eventCount": 3,
            "feeRecipient": "0x52bc44d5378309ee2abf1539bf71de1b7d7be3b5",
            "formatValue": "0",
            "gasLimit": 500000,
            "gasPrice": "65.801401336",
            "gasUsed": 176523,
            "intTxnCount": 6,
            "internalRevert": false,
            "internalRevertMessage": "",
            "isContractCreation": false,
            "isFlashloan": false,
            "maxFee": "",
            "nonce": 1162,
            "overwritedBlockNumber": -1,
            "priorityFee": "",
            "receiver": "0xbcf115a75179cca65c9a6be13505fcb0c8564e85",
            "revertMessage": "",
            "sender": "0xa7767cdb3252397d9d6050acd84819afabcd2ff1",
            "simulationEnable": true,
            "sourceTxnHash": "0x58a6fd9541f57c21ab268aa210f1478e07c0df9f5e9e75b100e79f91b129438e",
            "status": true,
            "timestamp": "2021-12-12T01:24:00Z",
            "transactionFee": "0.011615460768034728",
            "txnHash": "0x58a6fd9541f57c21ab268aa210f1478e07c0df9f5e9e75b100e79f91b129438e",
            "txnIndex": 134,
            "type": 0,
            "value": "0"
        },
        "fund_flow": [],
        "token_infos": [
            {
                "address": "0xc02aaa39b223fe8d0a0e5c4f27ead9083c756cc2",
                "decimals": 18
            },
            {
                "address": "0xeeeeeeeeeeeeeeeeeeeeeeeeeeeeeeeeeeeeeeee",
                "decimals": 18
            }
        ]
    },
    "address_label": {
        "labels": [
            {
                "address": "0xeeeeeeeeeeeeeeeeeeeeeeeeeeeeeeeeeeeeeeee",
                "label": "Ether"
            },
            {
                "address": "0xbcf115a75179cca65c9a6be13505fcb0c8564e85",
                "label": "AccessControlledOffchainAggregator"
            },
            {
                "address": "0x0000000000000000000000000000000000000001",
                "label": "Precompiled"
            },
            {
                "address": "0x0000000000000000000000000000000000000002",
                "label": "Precompiled"
            },
            {
                "address": "0x0000000000000000000000000000000000000003",
                "label": "Precompiled"
            },
            {
                "address": "0x0000000000000000000000000000000000000004",
                "label": "Precompiled"
            }
        ]
    },
    "trace": {
        "accountLabels": null,
        "dataMap": {
            "-1": {
                "invocation": {
                    "address": "0xa7767cdb3252397d9d6050acd84819afabcd2ff1",
                    "callData": "",
                    "decodedMethod": null,
                    "errorInfo": "",
                    "fromAddress": "",
                    "gasUsed": 0,
                    "id": -1,
                    "methodDecoded": false,
                    "operation": "",
                    "output": "",
                    "revert": false,
                    "revertMessage": "",
                    "selector": "",
                    "status": false,
                    "value": ""
                },
                "nodeType": 0
            },
            "0": {
                "invocation": {
                    "address": "0xbcf115a75179cca65c9a6be13505fcb0c8564e85",
                    "callData": "0x0000000000000000000000000000000000000000000000000000000000000080000000000000000000000000000000000000000000000000000000000000032000000000000000000000000000000000000000000000000000000000000004000101010100000000000000000000000000000000000000000000000000000000000000000000000000000000000000000000000000000000000000000000028000000000000000000000006bfad662ae28b302e3e013f1b6f2d4e8000013230405040a080d0f0c00010e020907030b0600000000000000000000000000000000000000000000000000000000000000000000000000000000000000000000006000000000000000000000000000000000000000000000000000000000000000100000000000000000000000000000000000000000000000000000000003f57d380000000000000000000000000000000000000000000000000000000003f651a50000000000000000000000000000000000000000000000000000000003f69e260000000000000000000000000000000000000000000000000000000003f69e260000000000000000000000000000000000000000000000000000000003f6f2f80000000000000000000000000000000000000000000000000000000003f6f2f80000000000000000000000000000000000000000000000000000000003f6fc820000000000000000000000000000000000000000000000000000000003f6fc820000000000000000000000000000000000000000000000000000000003f6feac0000000000000000000000000000000000000000000000000000000003f6feac0000000000000000000000000000000000000000000000000000000003f6feac0000000000000000000000000000000000000000000000000000000003f6feac0000000000000000000000000000000000000000000000000000000003f7229c0000000000000000000000000000000000000000000000000000000003f7229c0000000000000000000000000000000000000000000000000000000003f72ff10000000000000000000000000000000000000000000000000000000003f7c29b000000000000000000000000000000000000000000000000000000000000000686e56aba5732355a82c77734de4c0b5c414b74560e9a536660ed25af92087454570fee94eb38508ec43d28d054d921375b46246dd50863b97838595cc16e0337a87708267d055a3227d38f268376aeef9e4403ef63c85fda7166bcd550bacd86659de6f38d2978cf2a3367978c339f7f36b57efa299c3b60db592eed4c41fb9521546fdf37f52ef55137676e94e799606b1335fddeb1eab773fe8ad05e51bcacfee11f8b034f5ae98f4b4e9cc1b2e34b2715e78a647624a922870dca8f8422ab00000000000000000000000000000000000000000000000000000000000000065a2d3de994a54a452b4a84c8bb9ebec1316cf6440dcf9b940963fb22a875b7ea410b4f784c346e8283310feb69c71cccaf8f8f2c1ab07537e61bad0fa5bfb5851c9e881773366b6334bd6ba636b1de037c391ae9c562e4df64981d1b1910fc9658976871f3c642e560cef6b36a035504f1cb143e2505ed4f4be5475691b9af4959c50d76d9234f9e6fb3ce2b908018d274943553535ac4012bfac01b20056f5a17fd0df6a04506d1df4759ce08efb11b9a077f8b23bd4cf7585a0ddc0d96572a",
                    "decodedMethod": {
                        "callParams": [
                            {
                                "name": "_report",
                                "type": "bytes",
                                "value": "0x00000000000000000000006bfad662ae28b302e3e013f1b6f2d4e8000013230405040a080d0f0c00010e020907030b0600000000000000000000000000000000000000000000000000000000000000000000000000000000000000000000006000000000000000000000000000000000000000000000000000000000000000100000000000000000000000000000000000000000000000000000000003f57d380000000000000000000000000000000000000000000000000000000003f651a50000000000000000000000000000000000000000000000000000000003f69e260000000000000000000000000000000000000000000000000000000003f69e260000000000000000000000000000000000000000000000000000000003f6f2f80000000000000000000000000000000000000000000000000000000003f6f2f80000000000000000000000000000000000000000000000000000000003f6fc820000000000000000000000000000000000000000000000000000000003f6fc820000000000000000000000000000000000000000000000000000000003f6feac0000000000000000000000000000000000000000000000000000000003f6feac0000000000000000000000000000000000000000000000000000000003f6feac0000000000000000000000000000000000000000000000000000000003f6feac0000000000000000000000000000000000000000000000000000000003f7229c0000000000000000000000000000000000000000000000000000000003f7229c0000000000000000000000000000000000000000000000000000000003f72ff10000000000000000000000000000000000000000000000000000000003f7c29b"
                            },
                            {
                                "name": "_rs",
                                "type": "bytes32[]",
                                "value": [
                                    "0x86e56aba5732355a82c77734de4c0b5c414b74560e9a536660ed25af92087454",
                                    "0x570fee94eb38508ec43d28d054d921375b46246dd50863b97838595cc16e0337",
                                    "0xa87708267d055a3227d38f268376aeef9e4403ef63c85fda7166bcd550bacd86",
                                    "0x659de6f38d2978cf2a3367978c339f7f36b57efa299c3b60db592eed4c41fb95",
                                    "0x21546fdf37f52ef55137676e94e799606b1335fddeb1eab773fe8ad05e51bcac",
                                    "0xfee11f8b034f5ae98f4b4e9cc1b2e34b2715e78a647624a922870dca8f8422ab"
                                ]
                            },
                            {
                                "name": "_ss",
                                "type": "bytes32[]",
                                "value": [
                                    "0x5a2d3de994a54a452b4a84c8bb9ebec1316cf6440dcf9b940963fb22a875b7ea",
                                    "0x410b4f784c346e8283310feb69c71cccaf8f8f2c1ab07537e61bad0fa5bfb585",
                                    "0x1c9e881773366b6334bd6ba636b1de037c391ae9c562e4df64981d1b1910fc96",
                                    "0x58976871f3c642e560cef6b36a035504f1cb143e2505ed4f4be5475691b9af49",
                                    "0x59c50d76d9234f9e6fb3ce2b908018d274943553535ac4012bfac01b20056f5a",
                                    "0x17fd0df6a04506d1df4759ce08efb11b9a077f8b23bd4cf7585a0ddc0d96572a"
                                ]
                            },
                            {
                                "name": "_rawVs",
                                "type": "bytes32",
                                "value": "0x0101010100000000000000000000000000000000000000000000000000000000"
                            }
                        ],
                        "constructorArguments": "",
                        "name": "transmit",
                        "returnParams": [],
                        "signature": "transmit(bytes,bytes32[],bytes32[],bytes32)"
                    },
                    "errorInfo": "",
                    "fromAddress": "0xa7767cdb3252397d9d6050acd84819afabcd2ff1",
                    "gasUsed": 176523,
                    "id": 0,
                    "methodDecoded": true,
                    "operation": "CALL",
                    "output": "",
                    "revert": false,
                    "revertMessage": "",
                    "selector": "0xc9807539",
                    "status": true,
                    "value": "0"
                },
                "nodeType": 0
            },
            "1": {
                "invocation": {
                    "address": "0x0000000000000000000000000000000000000001",
                    "callData": "0xe3970e00d4ff0ab944e260a790e0d31e7c124e4ab14486596e33f61e000000000000000000000000000000000000000000000000000000000000001c86e56aba5732355a82c77734de4c0b5c414b74560e9a536660ed25af920874545a2d3de994a54a452b4a84c8bb9ebec1316cf6440dcf9b940963fb22a875b7ea",
                    "decodedMethod": {
                        "callParams": [
                            {
                                "name": "hash",
                                "type": "bytes32",
                                "value": "0xf34d8842e3970e00d4ff0ab944e260a790e0d31e7c124e4ab14486596e33f61e"
                            },
                            {
                                "name": "v",
                                "type": "uint256",
                                "value": "28"
                            },
                            {
                                "name": "r",
                                "type": "bytes32",
                                "value": "0x86e56aba5732355a82c77734de4c0b5c414b74560e9a536660ed25af92087454"
                            },
                            {
                                "name": "s",
                                "type": "bytes32",
                                "value": "0x5a2d3de994a54a452b4a84c8bb9ebec1316cf6440dcf9b940963fb22a875b7ea"
                            }
                        ],
                        "constructorArguments": "",
                        "name": "ecrecover",
                        "returnParams": [
                            {
                                "name": "",
                                "type": "address",
                                "value": "0xdb1e4435b65cd7fb89a3a86e8d9b6f979ebb6f46"
                            }
                        ],
                        "signature": "ecrecover(bytes32,uint256,bytes32,bytes32)"
                    },
                    "errorInfo": "",
                    "fromAddress": "0xbcf115a75179cca65c9a6be13505fcb0c8564e85",
                    "gasUsed": 3000,
                    "id": 1,
                    "methodDecoded": true,
                    "operation": "STATICCALL",
                    "output": "0x000000000000000000000000db1e4435b65cd7fb89a3a86e8d9b6f979ebb6f46",
                    "revert": false,
                    "revertMessage": "",
                    "selector": "0xf34d8842",
                    "status": true,
                    "value": "0"
                },
                "nodeType": 0
            },
            "2": {
                "invocation": {
                    "address": "0x0000000000000000000000000000000000000001",
                    "callData": "0xe3970e00d4ff0ab944e260a790e0d31e7c124e4ab14486596e33f61e000000000000000000000000000000000000000000000000000000000000001c570fee94eb38508ec43d28d054d921375b46246dd50863b97838595cc16e0337410b4f784c346e8283310feb69c71cccaf8f8f2c1ab07537e61bad0fa5bfb585",
                    "decodedMethod": {
                        "callParams": [
                            {
                                "name": "hash",
                                "type": "bytes32",
                                "value": "0xf34d8842e3970e00d4ff0ab944e260a790e0d31e7c124e4ab14486596e33f61e"
                            },
                            {
                                "name": "v",
                                "type": "uint256",
                                "value": "28"
                            },
                            {
                                "name": "r",
                                "type": "bytes32",
                                "value": "0x570fee94eb38508ec43d28d054d921375b46246dd50863b97838595cc16e0337"
                            },
                            {
                                "name": "s",
                                "type": "bytes32",
                                "value": "0x410b4f784c346e8283310feb69c71cccaf8f8f2c1ab07537e61bad0fa5bfb585"
                            }
                        ],
                        "constructorArguments": "",
                        "name": "ecrecover",
                        "returnParams": [
                            {
                                "name": "",
                                "type": "address",
                                "value": "0x1279bc6171e0b3e4a75e3a66894363ddecef1116"
                            }
                        ],
                        "signature": "ecrecover(bytes32,uint256,bytes32,bytes32)"
                    },
                    "errorInfo": "",
                    "fromAddress": "0xbcf115a75179cca65c9a6be13505fcb0c8564e85",
                    "gasUsed": 3000,
                    "id": 2,
                    "methodDecoded": true,
                    "operation": "STATICCALL",
                    "output": "0x0000000000000000000000001279bc6171e0b3e4a75e3a66894363ddecef1116",
                    "revert": false,
                    "revertMessage": "",
                    "selector": "0xf34d8842",
                    "status": true,
                    "value": "0"
                },
                "nodeType": 0
            },
            "3": {
                "invocation": {
                    "address": "0x0000000000000000000000000000000000000001",
                    "callData": "0xe3970e00d4ff0ab944e260a790e0d31e7c124e4ab14486596e33f61e000000000000000000000000000000000000000000000000000000000000001ca87708267d055a3227d38f268376aeef9e4403ef63c85fda7166bcd550bacd861c9e881773366b6334bd6ba636b1de037c391ae9c562e4df64981d1b1910fc96",
                    "decodedMethod": {
                        "callParams": [
                            {
                                "name": "hash",
                                "type": "bytes32",
                                "value": "0xf34d8842e3970e00d4ff0ab944e260a790e0d31e7c124e4ab14486596e33f61e"
                            },
                            {
                                "name": "v",
                                "type": "uint256",
                                "value": "28"
                            },
                            {
                                "name": "r",
                                "type": "bytes32",
                                "value": "0xa87708267d055a3227d38f268376aeef9e4403ef63c85fda7166bcd550bacd86"
                            },
                            {
                                "name": "s",
                                "type": "bytes32",
                                "value": "0x1c9e881773366b6334bd6ba636b1de037c391ae9c562e4df64981d1b1910fc96"
                            }
                        ],
                        "constructorArguments": "",
                        "name": "ecrecover",
                        "returnParams": [
                            {
                                "name": "",
                                "type": "address",
                                "value": "0x84b3f3e08ba1d03729122ce2c81c963fc1db969d"
                            }
                        ],
                        "signature": "ecrecover(bytes32,uint256,bytes32,bytes32)"
                    },
                    "errorInfo": "",
                    "fromAddress": "0xbcf115a75179cca65c9a6be13505fcb0c8564e85",
                    "gasUsed": 3000,
                    "id": 3,
                    "methodDecoded": true,
                    "operation": "STATICCALL",
                    "output": "0x00000000000000000000000084b3f3e08ba1d03729122ce2c81c963fc1db969d",
                    "revert": false,
                    "revertMessage": "",
                    "selector": "0xf34d8842",
                    "status": true,
                    "value": "0"
                },
                "nodeType": 0
            },
            "4": {
                "invocation": {
                    "address": "0x0000000000000000000000000000000000000001",
                    "callData": "0xe3970e00d4ff0ab944e260a790e0d31e7c124e4ab14486596e33f61e000000000000000000000000000000000000000000000000000000000000001c659de6f38d2978cf2a3367978c339f7f36b57efa299c3b60db592eed4c41fb9558976871f3c642e560cef6b36a035504f1cb143e2505ed4f4be5475691b9af49",
                    "decodedMethod": {
                        "callParams": [
                            {
                                "name": "hash",
                                "type": "bytes32",
                                "value": "0xf34d8842e3970e00d4ff0ab944e260a790e0d31e7c124e4ab14486596e33f61e"
                            },
                            {
                                "name": "v",
                                "type": "uint256",
                                "value": "28"
                            },
                            {
                                "name": "r",
                                "type": "bytes32",
                                "value": "0x659de6f38d2978cf2a3367978c339f7f36b57efa299c3b60db592eed4c41fb95"
                            },
                            {
                                "name": "s",
                                "type": "bytes32",
                                "value": "0x58976871f3c642e560cef6b36a035504f1cb143e2505ed4f4be5475691b9af49"
                            }
                        ],
                        "constructorArguments": "",
                        "name": "ecrecover",
                        "returnParams": [
                            {
                                "name": "",
                                "type": "address",
                                "value": "0x5bfd9e5264e346dc5efe2d67e953ed52f9424ddc"
                            }
                        ],
                        "signature": "ecrecover(bytes32,uint256,bytes32,bytes32)"
                    },
                    "errorInfo": "",
                    "fromAddress": "0xbcf115a75179cca65c9a6be13505fcb0c8564e85",
                    "gasUsed": 3000,
                    "id": 4,
                    "methodDecoded": true,
                    "operation": "STATICCALL",
                    "output": "0x0000000000000000000000005bfd9e5264e346dc5efe2d67e953ed52f9424ddc",
                    "revert": false,
                    "revertMessage": "",
                    "selector": "0xf34d8842",
                    "status": true,
                    "value": "0"
                },
                "nodeType": 0
            },
            "5": {
                "invocation": {
                    "address": "0x0000000000000000000000000000000000000001",
                    "callData": "0xe3970e00d4ff0ab944e260a790e0d31e7c124e4ab14486596e33f61e000000000000000000000000000000000000000000000000000000000000001b21546fdf37f52ef55137676e94e799606b1335fddeb1eab773fe8ad05e51bcac59c50d76d9234f9e6fb3ce2b908018d274943553535ac4012bfac01b20056f5a",
                    "decodedMethod": {
                        "callParams": [
                            {
                                "name": "hash",
                                "type": "bytes32",
                                "value": "0xf34d8842e3970e00d4ff0ab944e260a790e0d31e7c124e4ab14486596e33f61e"
                            },
                            {
                                "name": "v",
                                "type": "uint256",
                                "value": "27"
                            },
                            {
                                "name": "r",
                                "type": "bytes32",
                                "value": "0x21546fdf37f52ef55137676e94e799606b1335fddeb1eab773fe8ad05e51bcac"
                            },
                            {
                                "name": "s",
                                "type": "bytes32",
                                "value": "0x59c50d76d9234f9e6fb3ce2b908018d274943553535ac4012bfac01b20056f5a"
                            }
                        ],
                        "constructorArguments": "",
                        "name": "ecrecover",
                        "returnParams": [
                            {
                                "name": "",
                                "type": "address",
                                "value": "0xd2920c9f629332e06e577db2072b2545bc4379ab"
                            }
                        ],
                        "signature": "ecrecover(bytes32,uint256,bytes32,bytes32)"
                    },
                    "errorInfo": "",
                    "fromAddress": "0xbcf115a75179cca65c9a6be13505fcb0c8564e85",
                    "gasUsed": 3000,
                    "id": 5,
                    "methodDecoded": true,
                    "operation": "STATICCALL",
                    "output": "0x000000000000000000000000d2920c9f629332e06e577db2072b2545bc4379ab",
                    "revert": false,
                    "revertMessage": "",
                    "selector": "0xf34d8842",
                    "status": true,
                    "value": "0"
                },
                "nodeType": 0
            },
            "6": {
                "invocation": {
                    "address": "0x0000000000000000000000000000000000000001",
                    "callData": "0xe3970e00d4ff0ab944e260a790e0d31e7c124e4ab14486596e33f61e000000000000000000000000000000000000000000000000000000000000001bfee11f8b034f5ae98f4b4e9cc1b2e34b2715e78a647624a922870dca8f8422ab17fd0df6a04506d1df4759ce08efb11b9a077f8b23bd4cf7585a0ddc0d96572a",
                    "decodedMethod": {
                        "callParams": [
                            {
                                "name": "hash",
                                "type": "bytes32",
                                "value": "0xf34d8842e3970e00d4ff0ab944e260a790e0d31e7c124e4ab14486596e33f61e"
                            },
                            {
                                "name": "v",
                                "type": "uint256",
                                "value": "27"
                            },
                            {
                                "name": "r",
                                "type": "bytes32",
                                "value": "0xfee11f8b034f5ae98f4b4e9cc1b2e34b2715e78a647624a922870dca8f8422ab"
                            },
                            {
                                "name": "s",
                                "type": "bytes32",
                                "value": "0x17fd0df6a04506d1df4759ce08efb11b9a077f8b23bd4cf7585a0ddc0d96572a"
                            }
                        ],
                        "constructorArguments": "",
                        "name": "ecrecover",
                        "returnParams": [
                            {
                                "name": "",
                                "type": "address",
                                "value": "0x2de4682ded9924c7d52257cd510bd564310acb8c"
                            }
                        ],
                        "signature": "ecrecover(bytes32,uint256,bytes32,bytes32)"
                    },
                    "errorInfo": "",
                    "fromAddress": "0xbcf115a75179cca65c9a6be13505fcb0c8564e85",
                    "gasUsed": 3000,
                    "id": 6,
                    "methodDecoded": true,
                    "operation": "STATICCALL",
                    "output": "0x0000000000000000000000002de4682ded9924c7d52257cd510bd564310acb8c",
                    "revert": false,
                    "revertMessage": "",
                    "selector": "0xf34d8842",
                    "status": true,
                    "value": "0"
                },
                "nodeType": 0
            },
            "7": {
                "event": {
                    "contract": "0xbcf115a75179cca65c9a6be13505fcb0c8564e85",
                    "decodedLog": {
                        "name": "NewTransmission",
                        "params": [
                            {
                                "name": "aggregatorRoundId",
                                "type": "uint32",
                                "value": "11"
                            },
                            {
                                "name": "answer",
                                "type": "int192",
                                "value": "66,518,700"
                            },
                            {
                                "name": "transmitter",
                                "type": "address",
                                "value": "0xa7767cdb3252397d9d6050acd84819afabcd2ff1"
                            },
                            {
                                "name": "observations",
                                "type": "int192[]",
                                "value": [
                                    "66,420,024",
                                    "66,474,405",
                                    "66,493,990",
                                    "66,493,990",
                                    "66,515,704",
                                    "66,515,704",
                                    "66,518,146",
                                    "66,518,146",
                                    "66,518,700",
                                    "66,518,700",
                                    "66,518,700",
                                    "66,518,700",
                                    "66,527,900",
                                    "66,527,900",
                                    "66,531,313",
                                    "66,568,859"
                                ]
                            },
                            {
                                "name": "observers",
                                "type": "bytes",
                                "value": "0x05040a080d0f0c00010e020907030b06"
                            },
                            {
                                "name": "rawReportContext",
                                "type": "bytes32",
                                "value": "0x00000000000000000000006bfad662ae28b302e3e013f1b6f2d4e80000132304"
                            }
                        ],
                        "signature": "NewTransmission(uint32,int192,address,int192[],bytes,bytes32)"
                    },
                    "id": 7,
                    "logData": "0x0000000000000000000000000000000000000000000000000000000003f6feac000000000000000000000000a7767cdb3252397d9d6050acd84819afabcd2ff100000000000000000000000000000000000000000000000000000000000000a000000000000000000000000000000000000000000000000000000000000002c000000000000000000000006bfad662ae28b302e3e013f1b6f2d4e8000013230400000000000000000000000000000000000000000000000000000000000000100000000000000000000000000000000000000000000000000000000003f57d380000000000000000000000000000000000000000000000000000000003f651a50000000000000000000000000000000000000000000000000000000003f69e260000000000000000000000000000000000000000000000000000000003f69e260000000000000000000000000000000000000000000000000000000003f6f2f80000000000000000000000000000000000000000000000000000000003f6f2f80000000000000000000000000000000000000000000000000000000003f6fc820000000000000000000000000000000000000000000000000000000003f6fc820000000000000000000000000000000000000000000000000000000003f6feac0000000000000000000000000000000000000000000000000000000003f6feac0000000000000000000000000000000000000000000000000000000003f6feac0000000000000000000000000000000000000000000000000000000003f6feac0000000000000000000000000000000000000000000000000000000003f7229c0000000000000000000000000000000000000000000000000000000003f7229c0000000000000000000000000000000000000000000000000000000003f72ff10000000000000000000000000000000000000000000000000000000003f7c29b000000000000000000000000000000000000000000000000000000000000001005040a080d0f0c00010e020907030b0600000000000000000000000000000000",
                    "logDecoded": true,
                    "operation": "EVENT",
                    "revert": false,
                    "status": true,
                    "topics": [
                        "0xf6a97944f31ea060dfde0566e4167c1a1082551e64b60ecb14d599a9d023d451",
                        "0x000000000000000000000000000000000000000000000000000000000000000b"
                    ]
                },
                "nodeType": 1
            },
            "8": {
                "event": {
                    "contract": "0xbcf115a75179cca65c9a6be13505fcb0c8564e85",
                    "decodedLog": {
                        "name": "NewRound",
                        "params": [
                            {
                                "name": "roundId",
                                "type": "uint256",
                                "value": "11"
                            },
                            {
                                "name": "startedBy",
                                "type": "address",
                                "value": "0x0000000000000000000000000000000000000000"
                            },
                            {
                                "name": "startedAt",
                                "type": "uint256",
                                "value": "1,639,272,240"
                            }
                        ],
                        "signature": "NewRound(uint256,address,uint256)"
                    },
                    "id": 8,
                    "logData": "0x0000000000000000000000000000000000000000000000000000000061b54f30",
                    "logDecoded": true,
                    "operation": "EVENT",
                    "revert": false,
                    "status": true,
                    "topics": [
                        "0x0109fc6f55cf40689f02fbaad7af7fe7bbac8a3d2186600afc7d3e10cac60271",
                        "0x000000000000000000000000000000000000000000000000000000000000000b",
                        "0x0000000000000000000000000000000000000000000000000000000000000000"
                    ]
                },
                "nodeType": 1
            },
            "9": {
                "event": {
                    "contract": "0xbcf115a75179cca65c9a6be13505fcb0c8564e85",
                    "decodedLog": {
                        "name": "AnswerUpdated",
                        "params": [
                            {
                                "name": "current",
                                "type": "int256",
                                "value": "66,518,700"
                            },
                            {
                                "name": "roundId",
                                "type": "uint256",
                                "value": "11"
                            },
                            {
                                "name": "updatedAt",
                                "type": "uint256",
                                "value": "1,639,272,240"
                            }
                        ],
                        "signature": "AnswerUpdated(int256,uint256,uint256)"
                    },
                    "id": 9,
                    "logData": "0x0000000000000000000000000000000000000000000000000000000061b54f30",
                    "logDecoded": true,
                    "operation": "EVENT",
                    "revert": false,
                    "status": true,
                    "topics": [
                        "0x0559884fd3a460db3073b7fc896cc77986f16e378210ded43186175bf646fc5f",
                        "0x0000000000000000000000000000000000000000000000000000000003f6feac",
                        "0x000000000000000000000000000000000000000000000000000000000000000b"
                    ]
                },
                "nodeType": 1
            }
        },
        "gasFlame": [
            {
                "children": [
                    {
                        "children": [
                            {
                                "children": [],
                                "depth": 0,
                                "name": "Initial Gas",
                                "value": 32008
                            },
                            {
                                "children": [
                                    {
                                        "children": [],
                                        "depth": 1,
                                        "name": "ecrecover",
                                        "value": 3000
                                    },
                                    {
                                        "children": [],
                                        "depth": 1,
                                        "name": "ecrecover",
                                        "value": 3000
                                    },
                                    {
                                        "children": [],
                                        "depth": 1,
                                        "name": "ecrecover",
                                        "value": 3000
                                    },
                                    {
                                        "children": [],
                                        "depth": 1,
                                        "name": "ecrecover",
                                        "value": 3000
                                    },
                                    {
                                        "children": [],
                                        "depth": 1,
                                        "name": "ecrecover",
                                        "value": 3000
                                    },
                                    {
                                        "children": [],
                                        "depth": 1,
                                        "name": "ecrecover",
                                        "value": 3000
                                    }
                                ],
                                "depth": 0,
                                "name": "Executed Gas",
                                "value": 144515
                            }
                        ],
                        "depth": -1,
                        "name": "Actual Gas Used",
                        "value": 176523
                    },
                    {
                        "children": [],
                        "depth": -1,
                        "name": "Refunded Gas",
                        "value": 0
                    }
                ],
                "depth": -2,
                "name": "Total Gas",
                "value": 176523
            }
        ],
        "isConfirmed": true,
        "mainTrace": [
            {
                "children": [
                    {
                        "children": [
                            {
                                "children": [],
                                "depth": 1,
                                "id": 1,
                                "order": 1
                            },
                            {
                                "children": [],
                                "depth": 1,
                                "id": 2,
                                "order": 2
                            },
                            {
                                "children": [],
                                "depth": 1,
                                "id": 3,
                                "order": 3
                            },
                            {
                                "children": [],
                                "depth": 1,
                                "id": 4,
                                "order": 4
                            },
                            {
                                "children": [],
                                "depth": 1,
                                "id": 5,
                                "order": 5
                            },
                            {
                                "children": [],
                                "depth": 1,
                                "id": 6,
                                "order": 6
                            },
                            {
                                "children": [],
                                "depth": 1,
                                "id": 7,
                                "order": 7
                            },
                            {
                                "children": [],
                                "depth": 1,
                                "id": 8,
                                "order": 8
                            },
                            {
                                "children": [],
                                "depth": 1,
                                "id": 9,
                                "order": 9
                            }
                        ],
                        "depth": 0,
                        "id": 0,
                        "order": 0
                    }
                ],
                "depth": -1,
                "id": -1,
                "order": -1
            }
        ],
        "mainTraceNodeCount": 10,
        "parentIdMap": {
            "0": -1,
            "1": 0,
            "2": 0,
            "3": 0,
            "4": 0,
            "5": 0,
            "6": 0,
            "7": 0,
            "8": 0,
            "9": 0
        },
        "tidyTrace": [
            {
                "children": [
                    {
                        "children": [
                            {
                                "children": [],
                                "depth": 1,
                                "id": 7,
                                "order": 7
                            },
                            {
                                "children": [],
                                "depth": 1,
                                "id": 8,
                                "order": 8
                            },
                            {
                                "children": [],
                                "depth": 1,
                                "id": 9,
                                "order": 9
                            }
                        ],
                        "depth": 0,
                        "id": 0,
                        "order": 0
                    }
                ],
                "depth": -1,
                "id": -1,
                "order": -1
            }
        ],
        "tidyTraceNodeCount": 4
    },
    "state_change": {
        "stateChanges": [
            {
                "address": "0xbcf115a75179cca65c9a6be13505fcb0c8564e85",
                "erc": "",
                "slots": [
                    {
                        "current": "0x0000000061b54f30000000000000000000000000000000000000000003f6feac",
                        "key": "0xeeb9dff0609658d79b2ab6d65135525ce10bf80481bf8325bc6c6c5f123d8012",
                        "prev": "0x0000000000000000000000000000000000000000000000000000000000000000"
                    },
                    {
                        "current": "0x0000000000000000000b0500001323046bfad662ae28b302e3e013f1b6f2d4e8",
                        "key": "0x000000000000000000000000000000000000000000000000000000000000002b",
                        "prev": "0x0000000000000000000a0500001140046bfad662ae28b302e3e013f1b6f2d4e8"
                    },
                    {
                        "current": "0x0003000300030003000300030003000300030003000300030003000300030003",
                        "key": "0x0000000000000000000000000000000000000000000000000000000000000005",
                        "prev": "0x0002000200020002000200020002000200020002000200020002000200020002"
                    },
                    {
                        "current": "0x0000000000000000000000000000000000000000000000002d133b82e2bbb801",
                        "key": "0x0000000000000000000000000000000000000000000000000000000000000018",
                        "prev": "0x0000000000000000000000000000000000000000000000000000000000000001"
                    }
                ],
                "storageVariables": [
                    {
                        "name": "s_hotVars",
                        "type": "struct OffchainAggregator.HotVars",
                        "value": {
                            "fields": [
                                {
                                    "name": "latestConfigDigest",
                                    "type": "bytes16",
                                    "value": {
                                        "current": "0x6bfad662ae28b302e3e013f1b6f2d4e8",
                                        "prev": "0x6bfad662ae28b302e3e013f1b6f2d4e8",
                                        "typeTag": 1
                                    }
                                },
                                {
                                    "name": "latestEpochAndRound",
                                    "type": "uint40",
                                    "value": {
                                        "current": "1254148",
                                        "prev": "1130500",
                                        "typeTag": 1
                                    }
                                },
                                {
                                    "name": "threshold",
                                    "type": "uint8",
                                    "value": {
                                        "current": "5",
                                        "prev": "5",
                                        "typeTag": 1
                                    }
                                },
                                {
                                    "name": "latestAggregatorRoundId",
                                    "type": "uint32",
                                    "value": {
                                        "current": "11",
                                        "prev": "10",
                                        "typeTag": 1
                                    }
                                }
                            ],
                            "typeTag": 3
                        }
                    },
                    {
                        "name": "s_oracleObservationsCounts",
                        "type": "uint16[31]",
                        "value": {
                            "elemType": "uint16",
                            "elems": [
                                {
                                    "index": 0,
                                    "value": {
                                        "current": "3",
                                        "prev": "2",
                                        "typeTag": 1
                                    }
                                },
                                {
                                    "index": 1,
                                    "value": {
                                        "current": "3",
                                        "prev": "2",
                                        "typeTag": 1
                                    }
                                },
                                {
                                    "index": 2,
                                    "value": {
                                        "current": "3",
                                        "prev": "2",
                                        "typeTag": 1
                                    }
                                },
                                {
                                    "index": 3,
                                    "value": {
                                        "current": "3",
                                        "prev": "2",
                                        "typeTag": 1
                                    }
                                },
                                {
                                    "index": 4,
                                    "value": {
                                        "current": "3",
                                        "prev": "2",
                                        "typeTag": 1
                                    }
                                },
                                {
                                    "index": 5,
                                    "value": {
                                        "current": "3",
                                        "prev": "2",
                                        "typeTag": 1
                                    }
                                },
                                {
                                    "index": 6,
                                    "value": {
                                        "current": "3",
                                        "prev": "2",
                                        "typeTag": 1
                                    }
                                },
                                {
                                    "index": 7,
                                    "value": {
                                        "current": "3",
                                        "prev": "2",
                                        "typeTag": 1
                                    }
                                },
                                {
                                    "index": 8,
                                    "value": {
                                        "current": "3",
                                        "prev": "2",
                                        "typeTag": 1
                                    }
                                },
                                {
                                    "index": 9,
                                    "value": {
                                        "current": "3",
                                        "prev": "2",
                                        "typeTag": 1
                                    }
                                },
                                {
                                    "index": 10,
                                    "value": {
                                        "current": "3",
                                        "prev": "2",
                                        "typeTag": 1
                                    }
                                },
                                {
                                    "index": 11,
                                    "value": {
                                        "current": "3",
                                        "prev": "2",
                                        "typeTag": 1
                                    }
                                },
                                {
                                    "index": 12,
                                    "value": {
                                        "current": "3",
                                        "prev": "2",
                                        "typeTag": 1
                                    }
                                },
                                {
                                    "index": 13,
                                    "value": {
                                        "current": "3",
                                        "prev": "2",
                                        "typeTag": 1
                                    }
                                },
                                {
                                    "index": 14,
                                    "value": {
                                        "current": "3",
                                        "prev": "2",
                                        "typeTag": 1
                                    }
                                }
                            ],
                            "typeTag": 2
                        }
                    },
                    {
                        "name": "s_transmissions",
                        "type": "mapping(uint32 => struct OffchainAggregator.Transmission)",
                        "value": {
                            "pairs": [
                                {
                                    "key": "11",
                                    "value": {
                                        "fields": [
                                            {
                                                "name": "answer",
                                                "type": "int192",
                                                "value": {
                                                    "current": "66518700",
                                                    "prev": "0",
                                                    "typeTag": 1
                                                }
                                            },
                                            {
                                                "name": "timestamp",
                                                "type": "uint64",
                                                "value": {
                                                    "current": "1639272240",
                                                    "prev": "0",
                                                    "typeTag": 1
                                                }
                                            }
                                        ],
                                        "typeTag": 3
                                    }
                                }
                            ],
                            "typeTag": 4
                        }
                    }
                ]
            }
        ]
    }
}