{
    "balance_change": {
        "balanceChanges": [
            {
                "account": "0x1348550eff161a0ac890dbf524993382ddb1cc6f",
                "assets": [
                    {
                        "address": "0x7da2641000cbb407c329310c461b2cb9c70c3046",
                        "amount": "171,073.2",
                        "iconUrl": "",
                        "isERC1155": false,
                        "isERC721": false,
                        "sign": false,
                        "value": "1143.021873"
                    }
                ]
            },
            {
                "account": "0xf89d7b9c864f589bbf53a82105107622b35eaa40",
                "assets": [
                    {
                        "address": "0x7da2641000cbb407c329310c461b2cb9c70c3046",
                        "amount": "171,073.2",
                        "iconUrl": "",
                        "isERC1155": false,
                        "isERC721": false,
                        "sign": true,
                        "value": "1143.021873"
                    }
                ]
            }
        ]
    },
    "profile": {
        "basic_info": {
            "baseFee": "18.528840921",
            "blockNumber": 18872099,
            "callData": "0xa9059cbb000000000000000000000000f89d7b9c864f589bbf53a82105107622b35eaa40000000000000000000000000000000000000000000002439e591b7572b780000",
            "debugEnable": true,
            "errorInfo": "",
            "eventCount": 1,
            "feeRecipient": "0xfeebabe6b0418ec13b30aadf129f5dcdd4f70cea",
            "formatValue": "0",
            "gasLimit": 90000,
            "gasPrice": "20.528840921",
            "gasUsed": 29594,
            "intTxnCount": 0,
            "internalRevert": false,
            "internalRevertMessage": "",
            "isContractCreation": false,
            "isFlashloan": false,
            "maxFee": "200",
            "nonce": 1794,
            "overwritedBlockNumber": -1,
            "priorityFee": "2",
            "receiver": "0x7da2641000cbb407c329310c461b2cb9c70c3046",
            "revertMessage": "",
            "sender": "0x1348550eff161a0ac890dbf524993382ddb1cc6f",
            "simulationEnable": true,
            "sourceTxnHash": "0x589b63b5f8e1de5d94ff01d11204f88c0407123ad612e4d4713c359c53fa41c2",
            "status": true,
            "timestamp": "2023-12-26T19:58:59Z",
            "transactionFee": "0.000607530518216074",
            "txnHash": "0x589b63b5f8e1de5d94ff01d11204f88c0407123ad612e4d4713c359c53fa41c2",
            "txnIndex": 32,
            "type": 2,
            "value": "0"
        },
        "fund_flow": [
            {
                "amount": "171,073.2",
                "from": "0x1348550eff161a0ac890dbf524993382ddb1cc6f",
                "id": 1,
                "isERC1155": false,
                "isERC721": false,
                "isReverted": false,
                "order": 1,
                "to": "0xf89d7b9c864f589bbf53a82105107622b35eaa40",
                "token": "0x7da2641000cbb407c329310c461b2cb9c70c3046"
            }
        ],
        "token_infos": [
            {
                "address": "0x7da2641000cbb407c329310c461b2cb9c70c3046",
                "decimals": 18
            },
            {
                "address": "0xc02aaa39b223fe8d0a0e5c4f27ead9083c756cc2",
                "decimals": 18
            },
            {
                "address": "0xeeeeeeeeeeeeeeeeeeeeeeeeeeeeeeeeeeeeeeee",
                "decimals": 18
            }
        ]
    },
    "address_label": {
        "labels": [
            {
                "address": "0xeeeeeeeeeeeeeeeeeeeeeeeeeeeeeeeeeeeeeeee",
                "label": "Ether"
            },
            {
                "address": "0xf89d7b9c864f589bbf53a82105107622b35eaa40",
                "label": "Bybit: Hot Wallet"
            },
            {
                "address": "0x7da2641000cbb407c329310c461b2cb9c70c3046",
                "label": "Delysium: AGI Token"
            },
            {
                "address": "0x0000000000000000000000000000000000000001",
                "label": "Precompiled"
            },
            {
                "address": "0x0000000000000000000000000000000000000002",
                "label": "Precompiled"
            },
            {
                "address": "0x0000000000000000000000000000000000000003",
                "label": "Precompiled"
            },
            {
                "address": "0x0000000000000000000000000000000000000004",
                "label": "Precompiled"
            }
        ]
    },
    "trace": {
        "accountLabels": null,
        "dataMap": {
            "-1": {
                "invocation": {
                    "address": "0x1348550eff161a0ac890dbf524993382ddb1cc6f",
                    "callData": "",
                    "decodedMethod": null,
                    "errorInfo": "",
                    "fromAddress": "",
                    "gasUsed": 0,
                    "id": -1,
                    "methodDecoded": false,
                    "operation": "",
                    "output": "",
                    "revert": false,
                    "revertMessage": "",
                    "selector": "",
                    "status": false,
                    "value": ""
                },
                "nodeType": 0
            },
            "0": {
                "invocation": {
                    "address": "0x7da2641000cbb407c329310c461b2cb9c70c3046",
                    "callData": "0x000000000000000000000000f89d7b9c864f589bbf53a82105107622b35eaa40000000000000000000000000000000000000000000002439e591b7572b780000",
                    "decodedMethod": {
                        "callParams": [
                            {
                                "name": "to",
                                "type": "address",
                                "value": "0xf89d7b9c864f589bbf53a82105107622b35eaa40"
                            },
                            {
                                "decimalAvailable": true,
                                "name": "amount",
                                "type": "uint256",
                                "value": "171,073,200,000,000,000,000,000"
                            }
                        ],
                        "constructorArguments": "",
                        "name": "transfer",
                        "returnParams": [
                            {
                                "name": "",
                                "type": "bool",
                                "value": true
                            }
                        ],
                        "signature": "transfer(address,uint256)"
                    },
                    "errorInfo": "",
                    "fromAddress": "0x1348550eff161a0ac890dbf524993382ddb1cc6f",
                    "gasUsed": 29594,
                    "id": 0,
                    "methodDecoded": true,
                    "operation": "CALL",
                    "output": "0x0000000000000000000000000000000000000000000000000000000000000001",
                    "revert": false,
                    "revertMessage": "",
                    "selector": "0xa9059cbb",
                    "status": true,
                    "value": "0"
                },
                "nodeType": 0
            },
            "1": {
                "event": {
                    "contract": "0x7da2641000cbb407c329310c461b2cb9c70c3046",
                    "decodedLog": {
                        "name": "Transfer",
                        "params": [
                            {
                                "name": "from",
                                "type": "address",
                                "value": "0x1348550eff161a0ac890dbf524993382ddb1cc6f"
                            },
                            {
                                "name": "to",
                                "type": "address",
                                "value": "0xf89d7b9c864f589bbf53a82105107622b35eaa40"
                            },
                            {
                                "decimalAvailable": true,
                                "name": "value",
                                "type": "uint256",
                                "value": "171,073,200,000,000,000,000,000"
                            }
                        ],
                        "signature": "Transfer(address,address,uint256)"
                    },
                    "id": 1,
                    "logData": "0x000000000000000000000000000000000000000000002439e591b7572b780000",
                    "logDecoded": true,
                    "operation": "EVENT",
                    "revert": false,
                    "status": true,
                    "topics": [
                        "0xddf252ad1be2c89b69c2b068fc378daa952ba7f163c4a11628f55a4df523b3ef",
                        "0x0000000000000000000000001348550eff161a0ac890dbf524993382ddb1cc6f",
                        "0x000000000000000000000000f89d7b9c864f589bbf53a82105107622b35eaa40"
                    ]
                },
                "nodeType": 1
            }
        },
        "gasFlame": [
            {
                "children": [
                    {
                        "children": [
                            {
                                "children": [],
                                "depth": 0,
                                "name": "Initial Gas",
                                "value": 21656
                            },
                            {
                                "children": [],
                                "depth": 0,
                                "name": "Executed Gas",
                                "value": 12738
                            }
                        ],
                        "depth": -1,
                        "name": "Actual Gas Used",
                        "value": 29594
                    },
                    {
                        "children": [],
                        "depth": -1,
                        "name": "Refunded Gas",
                        "value": 4800
                    }
                ],
                "depth": -2,
                "name": "Total Gas",
                "value": 34394
            }
        ],
        "isConfirmed": true,
        "mainTrace": [
            {
                "children": [
                    {
                        "children": [
                            {
                                "children": [],
                                "depth": 1,
                                "id": 1,
                                "order": 1
                            }
                        ],
                        "depth": 0,
                        "id": 0,
                        "order": 0
                    }
                ],
                "depth": -1,
                "id": -1,
                "order": -1
            }
        ],
        "mainTraceNodeCount": 2,
        "parentIdMap": {
            "0": -1,
            "1": 0
        },
        "tidyTrace": [
            {
                "children": [
                    {
                        "children": [
                            {
                                "children": [],
                                "depth": 1,
                                "id": 1,
                                "order": 1
                            }
                        ],
                        "depth": 0,
                        "id": 0,
                        "order": 0
                    }
                ],
                "depth": -1,
                "id": -1,
                "order": -1
            }
        ],
        "tidyTraceNodeCount": 2
    },
    "state_change": {
        "stateChanges": [
            {
                "address": "0x7da2641000cbb407c329310c461b2cb9c70c3046",
                "erc": "ERC-20",
                "slots": [
                    {
                        "current": "0x0000000000000000000000000000000000000000000000000000000000000000",
                        "key": "0x0a45ed0e209272ead94e1ac43a06954962f60ce43c17d10ef106c04b01402384",
                        "prev": "0x000000000000000000000000000000000000000000002439e591b7572b780000"
                    },
                    {
                        "current": "0x0000000000000000000000000000000000000000003e9a9d8d0927d69be4c83a",
                        "key": "0x164c0d431a999b5e9f4dfeeb03c48841235e3d171aa85ecb5a0f46085a773b96",
                        "prev": "0x0000000000000000000000000000000000000000003e7663a777707f706cc83a"
                    }
                ],
                "storageVariables": [
                    {
                        "name": "_balances",
                        "type": "mapping(address => uint256)",
                        "value": {
                            "pairs": [
                                {
                                    "key": "0x1348550eff161a0ac890dbf524993382ddb1cc6f",
                                    "value": {
                                        "current": "0",
                                        "prev": "171073200000000000000000",
                                        "typeTag": 1
                                    }
                                },
                                {
                                    "key": "0xf89d7b9c864f589bbf53a82105107622b35eaa40",
                                    "value": {
                                        "current": "75683551555986343424477242",
                                        "prev": "75512478355986343424477242",
                                        "typeTag": 1
                                    }
                                }
                            ],
                            "typeTag": 4
                        }
                    }
                ]
            }
        ]
    }
}