{
    "balance_change": {
        "balanceChanges": [
            {
                "account": "0x442a14ffc7df4aac5d8fa7b1728abc9951bfe333",
                "assets": [
                    {
                        "address": "0x2c15559489ce4034c95ef2f4923879071ec0a309",
                        "amount": "110",
                        "iconUrl": "",
                        "isERC1155": false,
                        "isERC721": false,
                        "sign": false,
                        "value": ""
                    }
                ]
            },
            {
                "account": "0x2ad55c79384a7c8be9ac7828a06ab58d125dc459",
                "assets": [
                    {
                        "address": "0x2c15559489ce4034c95ef2f4923879071ec0a309",
                        "amount": "110",
                        "iconUrl": "",
                        "isERC1155": false,
                        "isERC721": false,
                        "sign": true,
                        "value": ""
                    }
                ]
            }
        ]
    },
    "profile": {
        "basic_info": {
            "baseFee": "",
            "blockNumber": 8516630,
            "callData": "0xa9059cbb0000000000000000000000002ad55c79384a7c8be9ac7828a06ab58d125dc459000000000000000000000000000000000000000000000005f68e8131ecf80000",
            "debugEnable": true,
            "errorInfo": "",
            "eventCount": 1,
            "feeRecipient": "0xea674fdde714fd979de3edf0f56aa9716b898ec8",
            "formatValue": "0",
            "gasLimit": 90000,
            "gasPrice": "67.150780416",
            "gasUsed": 36882,
            "intTxnCount": 0,
            "internalRevert": false,
            "internalRevertMessage": "",
            "isContractCreation": false,
            "isFlashloan": false,
            "maxFee": "",
            "nonce": 6,
            "overwritedBlockNumber": -1,
            "priorityFee": "",
            "receiver": "0x2c15559489ce4034c95ef2f4923879071ec0a309",
            "revertMessage": "",
            "sender": "0x442a14ffc7df4aac5d8fa7b1728abc9951bfe333",
            "simulationEnable": true,
            "sourceTxnHash": "0x58be34489c8bd05a66f31c8f587cde470425ee18bebcbf8a894d5d76d8bc9c23",
            "status": true,
            "timestamp": "2019-09-09T16:01:18Z",
            "transactionFee": "0.002476655083302912",
            "txnHash": "0x58be34489c8bd05a66f31c8f587cde470425ee18bebcbf8a894d5d76d8bc9c23",
            "txnIndex": 48,
            "type": 0,
            "value": "0"
        },
        "fund_flow": [
            {
                "amount": "110",
                "from": "0x442a14ffc7df4aac5d8fa7b1728abc9951bfe333",
                "id": 1,
                "isERC1155": false,
                "isERC721": false,
                "isReverted": false,
                "order": 1,
                "to": "0x2ad55c79384a7c8be9ac7828a06ab58d125dc459",
                "token": "0x2c15559489ce4034c95ef2f4923879071ec0a309"
            }
        ],
        "token_infos": [
            {
                "address": "0xc02aaa39b223fe8d0a0e5c4f27ead9083c756cc2",
                "decimals": 18
            },
            {
                "address": "0xeeeeeeeeeeeeeeeeeeeeeeeeeeeeeeeeeeeeeeee",
                "decimals": 18
            },
            {
                "address": "0x2c15559489ce4034c95ef2f4923879071ec0a309",
                "decimals": 18
            }
        ]
    },
    "address_label": {
        "labels": [
            {
                "address": "0x0000000000000000000000000000000000000003",
                "label": "Precompiled"
            },
            {
                "address": "0x0000000000000000000000000000000000000004",
                "label": "Precompiled"
            },
            {
                "address": "0xeeeeeeeeeeeeeeeeeeeeeeeeeeeeeeeeeeeeeeee",
                "label": "Ether"
            },
            {
                "address": "0x2c15559489ce4034c95ef2f4923879071ec0a309",
                "label": "Token Pay (TP)"
            },
            {
                "address": "0x0000000000000000000000000000000000000001",
                "label": "Precompiled"
            },
            {
                "address": "0x0000000000000000000000000000000000000002",
                "label": "Precompiled"
            }
        ]
    },
    "trace": {
        "accountLabels": null,
        "dataMap": {
            "-1": {
                "invocation": {
                    "address": "0x442a14ffc7df4aac5d8fa7b1728abc9951bfe333",
                    "callData": "",
                    "decodedMethod": null,
                    "errorInfo": "",
                    "fromAddress": "",
                    "gasUsed": 0,
                    "id": -1,
                    "methodDecoded": false,
                    "operation": "",
                    "output": "",
                    "revert": false,
                    "revertMessage": "",
                    "selector": "",
                    "status": false,
                    "value": ""
                },
                "nodeType": 0
            },
            "0": {
                "invocation": {
                    "address": "0x2c15559489ce4034c95ef2f4923879071ec0a309",
                    "callData": "0x0000000000000000000000002ad55c79384a7c8be9ac7828a06ab58d125dc459000000000000000000000000000000000000000000000005f68e8131ecf80000",
                    "decodedMethod": {
                        "callParams": [
                            {
                                "name": "recipient",
                                "type": "address",
                                "value": "0x2ad55c79384a7c8be9ac7828a06ab58d125dc459"
                            },
                            {
                                "decimalAvailable": true,
                                "name": "amount",
                                "type": "uint256",
                                "value": "110,000,000,000,000,000,000"
                            }
                        ],
                        "constructorArguments": "",
                        "name": "transfer",
                        "returnParams": [
                            {
                                "name": "",
                                "type": "bool",
                                "value": true
                            }
                        ],
                        "signature": "transfer(address,uint256)"
                    },
                    "errorInfo": "",
                    "fromAddress": "0x442a14ffc7df4aac5d8fa7b1728abc9951bfe333",
                    "gasUsed": 36882,
                    "id": 0,
                    "methodDecoded": true,
                    "operation": "CALL",
                    "output": "0x0000000000000000000000000000000000000000000000000000000000000001",
                    "revert": false,
                    "revertMessage": "",
                    "selector": "0xa9059cbb",
                    "status": true,
                    "value": "0"
                },
                "nodeType": 0
            },
            "1": {
                "event": {
                    "contract": "0x2c15559489ce4034c95ef2f4923879071ec0a309",
                    "decodedLog": {
                        "name": "Transfer",
                        "params": [
                            {
                                "name": "from",
                                "type": "address",
                                "value": "0x442a14ffc7df4aac5d8fa7b1728abc9951bfe333"
                            },
                            {
                                "name": "to",
                                "type": "address",
                                "value": "0x2ad55c79384a7c8be9ac7828a06ab58d125dc459"
                            },
                            {
                                "decimalAvailable": true,
                                "name": "value",
                                "type": "uint256",
                                "value": "110,000,000,000,000,000,000"
                            }
                        ],
                        "signature": "Transfer(address,address,uint256)"
                    },
                    "id": 1,
                    "logData": "0x000000000000000000000000000000000000000000000005f68e8131ecf80000",
                    "logDecoded": true,
                    "operation": "EVENT",
                    "revert": false,
                    "status": true,
                    "topics": [
                        "0xddf252ad1be2c89b69c2b068fc378daa952ba7f163c4a11628f55a4df523b3ef",
                        "0x000000000000000000000000442a14ffc7df4aac5d8fa7b1728abc9951bfe333",
                        "0x0000000000000000000000002ad55c79384a7c8be9ac7828a06ab58d125dc459"
                    ]
                },
                "nodeType": 1
            }
        },
        "gasFlame": [
            {
                "children": [
                    {
                        "children": [
                            {
                                "children": [],
                                "depth": 0,
                                "name": "Initial Gas",
                                "value": 23256
                            },
                            {
                                "children": [],
                                "depth": 0,
                                "name": "Executed Gas",
                                "value": 13626
                            }
                        ],
                        "depth": -1,
                        "name": "Actual Gas Used",
                        "value": 36882
                    },
                    {
                        "children": [],
                        "depth": -1,
                        "name": "Refunded Gas",
                        "value": 0
                    }
                ],
                "depth": -2,
                "name": "Total Gas",
                "value": 36882
            }
        ],
        "isConfirmed": true,
        "mainTrace": [
            {
                "children": [
                    {
                        "children": [
                            {
                                "children": [],
                                "depth": 1,
                                "id": 1,
                                "order": 1
                            }
                        ],
                        "depth": 0,
                        "id": 0,
                        "order": 0
                    }
                ],
                "depth": -1,
                "id": -1,
                "order": -1
            }
        ],
        "mainTraceNodeCount": 2,
        "parentIdMap": {
            "0": -1,
            "1": 0
        },
        "tidyTrace": [
            {
                "children": [
                    {
                        "children": [
                            {
                                "children": [],
                                "depth": 1,
                                "id": 1,
                                "order": 1
                            }
                        ],
                        "depth": 0,
                        "id": 0,
                        "order": 0
                    }
                ],
                "depth": -1,
                "id": -1,
                "order": -1
            }
        ],
        "tidyTraceNodeCount": 2
    },
    "state_change": {
        "stateChanges": [
            {
                "address": "0x2c15559489ce4034c95ef2f4923879071ec0a309",
                "erc": "",
                "slots": [
                    {
                        "current": "0x000000000000000000000000000000000000000000000014def2c42ebd640000",
                        "key": "0xb97e0c1e7940fd8e769933f8d1eafa37968f39fc2567e833e3ab17b898256fba",
                        "prev": "0x00000000000000000000000000000000000000000000001ad5814560aa5c0000"
                    },
                    {
                        "current": "0x0000000000000000000000000000000000000000000653586a35770931b68c00",
                        "key": "0x6a7d8034d2eee7a917a26bedf76ebc82e11dd37faa937a676f7869a1a8f177bb",
                        "prev": "0x00000000000000000000000000000000000000000006535273a6f5d744be8c00"
                    }
                ],
                "storageVariables": []
            }
        ]
    }
}