{
    "balance_change": {
        "balanceChanges": [
            {
                "account": "0xb539b0107628089e40b6e4053eb291bbf078eda7",
                "assets": [
                    {
                        "address": "0x174bfa6600bf90c885c7c01c7031389ed1461ab9",
                        "amount": "5.86362948",
                        "iconUrl": "",
                        "isERC1155": false,
                        "isERC721": false,
                        "sign": false,
                        "value": ""
                    }
                ]
            },
            {
                "account": "0xf555b51d1ddfdb758db1026516ceb95ef1ef8743",
                "assets": [
                    {
                        "address": "0x174bfa6600bf90c885c7c01c7031389ed1461ab9",
                        "amount": "5.86362948",
                        "iconUrl": "",
                        "isERC1155": false,
                        "isERC721": false,
                        "sign": true,
                        "value": ""
                    }
                ]
            }
        ]
    },
    "profile": {
        "basic_info": {
            "baseFee": "",
            "blockNumber": 8159624,
            "callData": "0xa9059cbb000000000000000000000000f555b51d1ddfdb758db1026516ceb95ef1ef8743000000000000000000000000000000000000000000000000515fcbf1f9e89000",
            "debugEnable": true,
            "errorInfo": "",
            "eventCount": 1,
            "feeRecipient": "0x5a0b54d5dc17e0aadc383d2db43b0a0d3e029c4c",
            "formatValue": "0",
            "gasLimit": 116280,
            "gasPrice": "20",
            "gasUsed": 38123,
            "intTxnCount": 0,
            "internalRevert": false,
            "internalRevertMessage": "",
            "isContractCreation": false,
            "isFlashloan": false,
            "maxFee": "",
            "nonce": 3927,
            "overwritedBlockNumber": -1,
            "priorityFee": "",
            "receiver": "0x174bfa6600bf90c885c7c01c7031389ed1461ab9",
            "revertMessage": "",
            "sender": "0xb539b0107628089e40b6e4053eb291bbf078eda7",
            "simulationEnable": true,
            "sourceTxnHash": "0x58b2a8f3f364377ead1ad7a1fa931b7b25a22d625c0017f5b16992d672daba2c",
            "status": true,
            "timestamp": "2019-07-16T03:46:27Z",
            "transactionFee": "0.00076246",
            "txnHash": "0x58b2a8f3f364377ead1ad7a1fa931b7b25a22d625c0017f5b16992d672daba2c",
            "txnIndex": 162,
            "type": 0,
            "value": "0"
        },
        "fund_flow": [
            {
                "amount": "5.86362948",
                "from": "0xb539b0107628089e40b6e4053eb291bbf078eda7",
                "id": 1,
                "isERC1155": false,
                "isERC721": false,
                "isReverted": false,
                "order": 1,
                "to": "0xf555b51d1ddfdb758db1026516ceb95ef1ef8743",
                "token": "0x174bfa6600bf90c885c7c01c7031389ed1461ab9"
            }
        ],
        "token_infos": [
            {
                "address": "0x174bfa6600bf90c885c7c01c7031389ed1461ab9",
                "decimals": 18
            },
            {
                "address": "0xc02aaa39b223fe8d0a0e5c4f27ead9083c756cc2",
                "decimals": 18
            },
            {
                "address": "0xeeeeeeeeeeeeeeeeeeeeeeeeeeeeeeeeeeeeeeee",
                "decimals": 18
            }
        ]
    },
    "address_label": {
        "labels": [
            {
                "address": "0xeeeeeeeeeeeeeeeeeeeeeeeeeeeeeeeeeeeeeeee",
                "label": "Ether"
            },
            {
                "address": "0x174bfa6600bf90c885c7c01c7031389ed1461ab9",
                "label": "More Gold: MGC Token"
            },
            {
                "address": "0x0000000000000000000000000000000000000001",
                "label": "Precompiled"
            },
            {
                "address": "0x0000000000000000000000000000000000000002",
                "label": "Precompiled"
            },
            {
                "address": "0x0000000000000000000000000000000000000003",
                "label": "Precompiled"
            },
            {
                "address": "0x0000000000000000000000000000000000000004",
                "label": "Precompiled"
            }
        ]
    },
    "trace": {
        "accountLabels": null,
        "dataMap": {
            "-1": {
                "invocation": {
                    "address": "0xb539b0107628089e40b6e4053eb291bbf078eda7",
                    "callData": "",
                    "decodedMethod": null,
                    "errorInfo": "",
                    "fromAddress": "",
                    "gasUsed": 0,
                    "id": -1,
                    "methodDecoded": false,
                    "operation": "",
                    "output": "",
                    "revert": false,
                    "revertMessage": "",
                    "selector": "",
                    "status": false,
                    "value": ""
                },
                "nodeType": 0
            },
            "0": {
                "invocation": {
                    "address": "0x174bfa6600bf90c885c7c01c7031389ed1461ab9",
                    "callData": "0x000000000000000000000000f555b51d1ddfdb758db1026516ceb95ef1ef8743000000000000000000000000000000000000000000000000515fcbf1f9e89000",
                    "decodedMethod": {
                        "callParams": [
                            {
                                "name": "_to",
                                "type": "address",
                                "value": "0xf555b51d1ddfdb758db1026516ceb95ef1ef8743"
                            },
                            {
                                "decimalAvailable": true,
                                "name": "_value",
                                "type": "uint256",
                                "value": "5,863,629,480,000,000,000"
                            }
                        ],
                        "constructorArguments": "",
                        "name": "transfer",
                        "returnParams": [
                            {
                                "name": "success",
                                "type": "bool",
                                "value": true
                            }
                        ],
                        "signature": "transfer(address,uint256)"
                    },
                    "errorInfo": "",
                    "fromAddress": "0xb539b0107628089e40b6e4053eb291bbf078eda7",
                    "gasUsed": 38123,
                    "id": 0,
                    "methodDecoded": true,
                    "operation": "CALL",
                    "output": "0x0000000000000000000000000000000000000000000000000000000000000001",
                    "revert": false,
                    "revertMessage": "",
                    "selector": "0xa9059cbb",
                    "status": true,
                    "value": "0"
                },
                "nodeType": 0
            },
            "1": {
                "event": {
                    "contract": "0x174bfa6600bf90c885c7c01c7031389ed1461ab9",
                    "decodedLog": {
                        "name": "Transfer",
                        "params": [
                            {
                                "name": "from",
                                "type": "address",
                                "value": "0xb539b0107628089e40b6e4053eb291bbf078eda7"
                            },
                            {
                                "name": "to",
                                "type": "address",
                                "value": "0xf555b51d1ddfdb758db1026516ceb95ef1ef8743"
                            },
                            {
                                "decimalAvailable": true,
                                "name": "value",
                                "type": "uint256",
                                "value": "5,863,629,480,000,000,000"
                            }
                        ],
                        "signature": "Transfer(address,address,uint256)"
                    },
                    "id": 1,
                    "logData": "0x000000000000000000000000000000000000000000000000515fcbf1f9e89000",
                    "logDecoded": true,
                    "operation": "EVENT",
                    "revert": false,
                    "status": true,
                    "topics": [
                        "0xddf252ad1be2c89b69c2b068fc378daa952ba7f163c4a11628f55a4df523b3ef",
                        "0x000000000000000000000000b539b0107628089e40b6e4053eb291bbf078eda7",
                        "0x000000000000000000000000f555b51d1ddfdb758db1026516ceb95ef1ef8743"
                    ]
                },
                "nodeType": 1
            }
        },
        "gasFlame": [
            {
                "children": [
                    {
                        "children": [
                            {
                                "children": [],
                                "depth": 0,
                                "name": "Initial Gas",
                                "value": 23256
                            },
                            {
                                "children": [],
                                "depth": 0,
                                "name": "Executed Gas",
                                "value": 14867
                            }
                        ],
                        "depth": -1,
                        "name": "Actual Gas Used",
                        "value": 38123
                    },
                    {
                        "children": [],
                        "depth": -1,
                        "name": "Refunded Gas",
                        "value": 0
                    }
                ],
                "depth": -2,
                "name": "Total Gas",
                "value": 38123
            }
        ],
        "isConfirmed": true,
        "mainTrace": [
            {
                "children": [
                    {
                        "children": [
                            {
                                "children": [],
                                "depth": 1,
                                "id": 1,
                                "order": 1
                            }
                        ],
                        "depth": 0,
                        "id": 0,
                        "order": 0
                    }
                ],
                "depth": -1,
                "id": -1,
                "order": -1
            }
        ],
        "mainTraceNodeCount": 2,
        "parentIdMap": {
            "0": -1,
            "1": 0
        },
        "tidyTrace": [
            {
                "children": [
                    {
                        "children": [
                            {
                                "children": [],
                                "depth": 1,
                                "id": 1,
                                "order": 1
                            }
                        ],
                        "depth": 0,
                        "id": 0,
                        "order": 0
                    }
                ],
                "depth": -1,
                "id": -1,
                "order": -1
            }
        ],
        "tidyTraceNodeCount": 2
    },
    "state_change": {
        "stateChanges": [
            {
                "address": "0x174bfa6600bf90c885c7c01c7031389ed1461ab9",
                "erc": "ERC-20",
                "slots": [
                    {
                        "current": "0x0000000000000000000000000000000000000000000005a52e2febc25ede9800",
                        "key": "0x2bb9f4347a485e73b4163eedecd6b64f6f51dc530d56242323c7aa334794dd6a",
                        "prev": "0x0000000000000000000000000000000000000000000005a57f8fb7b458c72800"
                    },
                    {
                        "current": "0x000000000000000000000000000000000000000000000005c50b37be7a62fc00",
                        "key": "0x079e32835c20e5550a384d85ebe6bc64e4e9566998dc3c337adb9f8ff983960c",
                        "prev": "0x00000000000000000000000000000000000000000000000573ab6bcc807a6c00"
                    }
                ],
                "storageVariables": [
                    {
                        "name": "balanceOf",
                        "type": "mapping(address => uint256)",
                        "value": {
                            "pairs": [
                                {
                                    "key": "0xb539b0107628089e40b6e4053eb291bbf078eda7",
                                    "value": {
                                        "current": "26658873324380000000000",
                                        "prev": "26664736953860000000000",
                                        "typeTag": 1
                                    }
                                },
                                {
                                    "key": "0xf555b51d1ddfdb758db1026516ceb95ef1ef8743",
                                    "value": {
                                        "current": "106432223910000000000",
                                        "prev": "100568594430000000000",
                                        "typeTag": 1
                                    }
                                }
                            ],
                            "typeTag": 4
                        }
                    }
                ]
            }
        ]
    }
}