{
    "balance_change": {
        "balanceChanges": [
            {
                "account": "0x46340b20830761efd32832a74d7169b29feb9758",
                "assets": [
                    {
                        "address": "0xa0b73e1ff0b80914ab6fe0444e65848c4c34450b",
                        "amount": "18,716.76",
                        "iconUrl": "https://assets.blocksec.com/icon/c63eb011a529b5a138fe837b28152548f9dd51dd5dac5c193d96379dd6e9d02f.png",
                        "isERC1155": false,
                        "isERC721": false,
                        "sign": false,
                        "value": "3070.01376"
                    }
                ]
            },
            {
                "account": "0x193c62f661351f732d4c7c912411aa77e66e50f0",
                "assets": [
                    {
                        "address": "0xa0b73e1ff0b80914ab6fe0444e65848c4c34450b",
                        "amount": "18,716.76",
                        "iconUrl": "https://assets.blocksec.com/icon/c63eb011a529b5a138fe837b28152548f9dd51dd5dac5c193d96379dd6e9d02f.png",
                        "isERC1155": false,
                        "isERC721": false,
                        "sign": true,
                        "value": "3070.01376"
                    }
                ]
            }
        ]
    },
    "profile": {
        "basic_info": {
            "baseFee": "39.193009515",
            "blockNumber": 14941376,
            "callData": "0xa9059cbb000000000000000000000000193c62f661351f732d4c7c912411aa77e66e50f0000000000000000000000000000000000000000000000000000001b3c8954700",
            "debugEnable": true,
            "errorInfo": "",
            "eventCount": 1,
            "feeRecipient": "0xea674fdde714fd979de3edf0f56aa9716b898ec8",
            "formatValue": "0",
            "gasLimit": 350000,
            "gasPrice": "60.324422004",
            "gasUsed": 54549,
            "intTxnCount": 0,
            "internalRevert": false,
            "internalRevertMessage": "",
            "isContractCreation": false,
            "isFlashloan": false,
            "maxFee": "",
            "nonce": 6263341,
            "overwritedBlockNumber": -1,
            "priorityFee": "",
            "receiver": "0xa0b73e1ff0b80914ab6fe0444e65848c4c34450b",
            "revertMessage": "",
            "sender": "0x46340b20830761efd32832a74d7169b29feb9758",
            "simulationEnable": true,
            "sourceTxnHash": "0x592f6ec437893f62f8fc39d214b178bb28a59599b4243656ec5f83947a1844f5",
            "status": true,
            "timestamp": "2022-06-11T00:30:53Z",
            "transactionFee": "0.003290636895896196",
            "txnHash": "0x592f6ec437893f62f8fc39d214b178bb28a59599b4243656ec5f83947a1844f5",
            "txnIndex": 17,
            "type": 0,
            "value": "0"
        },
        "fund_flow": [
            {
                "amount": "18,716.76",
                "from": "0x46340b20830761efd32832a74d7169b29feb9758",
                "id": 1,
                "isERC1155": false,
                "isERC721": false,
                "isReverted": false,
                "order": 1,
                "to": "0x193c62f661351f732d4c7c912411aa77e66e50f0",
                "token": "0xa0b73e1ff0b80914ab6fe0444e65848c4c34450b"
            }
        ],
        "token_infos": [
            {
                "address": "0xa0b73e1ff0b80914ab6fe0444e65848c4c34450b",
                "decimals": 8
            },
            {
                "address": "0xc02aaa39b223fe8d0a0e5c4f27ead9083c756cc2",
                "decimals": 18
            },
            {
                "address": "0xeeeeeeeeeeeeeeeeeeeeeeeeeeeeeeeeeeeeeeee",
                "decimals": 18
            }
        ]
    },
    "address_label": {
        "labels": [
            {
                "address": "0xa0b73e1ff0b80914ab6fe0444e65848c4c34450b",
                "label": "Cronos Coin: CRO Token"
            },
            {
                "address": "0x0000000000000000000000000000000000000001",
                "label": "Precompiled"
            },
            {
                "address": "0x0000000000000000000000000000000000000002",
                "label": "Precompiled"
            },
            {
                "address": "0x0000000000000000000000000000000000000003",
                "label": "Precompiled"
            },
            {
                "address": "0x0000000000000000000000000000000000000004",
                "label": "Precompiled"
            },
            {
                "address": "0xeeeeeeeeeeeeeeeeeeeeeeeeeeeeeeeeeeeeeeee",
                "label": "Ether"
            },
            {
                "address": "0x193c62f661351f732d4c7c912411aa77e66e50f0",
                "label": "KUCOIN"
            },
            {
                "address": "0x46340b20830761efd32832a74d7169b29feb9758",
                "label": "Crypto.com 2"
            }
        ]
    },
    "trace": {
        "accountLabels": null,
        "dataMap": {
            "-1": {
                "invocation": {
                    "address": "0x46340b20830761efd32832a74d7169b29feb9758",
                    "callData": "",
                    "decodedMethod": null,
                    "errorInfo": "",
                    "fromAddress": "",
                    "gasUsed": 0,
                    "id": -1,
                    "methodDecoded": false,
                    "operation": "",
                    "output": "",
                    "revert": false,
                    "revertMessage": "",
                    "selector": "",
                    "status": false,
                    "value": ""
                },
                "nodeType": 0
            },
            "0": {
                "invocation": {
                    "address": "0xa0b73e1ff0b80914ab6fe0444e65848c4c34450b",
                    "callData": "0x000000000000000000000000193c62f661351f732d4c7c912411aa77e66e50f0000000000000000000000000000000000000000000000000000001b3c8954700",
                    "decodedMethod": {
                        "callParams": [
                            {
                                "name": "_to",
                                "type": "address",
                                "value": "0x193c62f661351f732d4c7c912411aa77e66e50f0"
                            },
                            {
                                "decimalAvailable": true,
                                "name": "_value",
                                "type": "uint256",
                                "value": "1,871,676,000,000"
                            }
                        ],
                        "constructorArguments": "",
                        "name": "transfer",
                        "returnParams": [
                            {
                                "name": "success",
                                "type": "bool",
                                "value": true
                            }
                        ],
                        "signature": "transfer(address,uint256)"
                    },
                    "errorInfo": "",
                    "fromAddress": "0x46340b20830761efd32832a74d7169b29feb9758",
                    "gasUsed": 54549,
                    "id": 0,
                    "methodDecoded": true,
                    "operation": "CALL",
                    "output": "0x0000000000000000000000000000000000000000000000000000000000000001",
                    "revert": false,
                    "revertMessage": "",
                    "selector": "0xa9059cbb",
                    "status": true,
                    "value": "0"
                },
                "nodeType": 0
            },
            "1": {
                "event": {
                    "contract": "0xa0b73e1ff0b80914ab6fe0444e65848c4c34450b",
                    "decodedLog": {
                        "name": "Transfer",
                        "params": [
                            {
                                "name": "from",
                                "type": "address",
                                "value": "0x46340b20830761efd32832a74d7169b29feb9758"
                            },
                            {
                                "name": "to",
                                "type": "address",
                                "value": "0x193c62f661351f732d4c7c912411aa77e66e50f0"
                            },
                            {
                                "decimalAvailable": true,
                                "name": "value",
                                "type": "uint256",
                                "value": "1,871,676,000,000"
                            }
                        ],
                        "signature": "Transfer(address,address,uint256)"
                    },
                    "id": 1,
                    "logData": "0x000000000000000000000000000000000000000000000000000001b3c8954700",
                    "logDecoded": true,
                    "operation": "EVENT",
                    "revert": false,
                    "status": true,
                    "topics": [
                        "0xddf252ad1be2c89b69c2b068fc378daa952ba7f163c4a11628f55a4df523b3ef",
                        "0x00000000000000000000000046340b20830761efd32832a74d7169b29feb9758",
                        "0x000000000000000000000000193c62f661351f732d4c7c912411aa77e66e50f0"
                    ]
                },
                "nodeType": 1
            }
        },
        "gasFlame": [
            {
                "children": [
                    {
                        "children": [
                            {
                                "children": [],
                                "depth": 0,
                                "name": "Initial Gas",
                                "value": 21620
                            },
                            {
                                "children": [],
                                "depth": 0,
                                "name": "Executed Gas",
                                "value": 32929
                            }
                        ],
                        "depth": -1,
                        "name": "Actual Gas Used",
                        "value": 54549
                    },
                    {
                        "children": [],
                        "depth": -1,
                        "name": "Refunded Gas",
                        "value": 0
                    }
                ],
                "depth": -2,
                "name": "Total Gas",
                "value": 54549
            }
        ],
        "isConfirmed": true,
        "mainTrace": [
            {
                "children": [
                    {
                        "children": [
                            {
                                "children": [],
                                "depth": 1,
                                "id": 1,
                                "order": 1
                            }
                        ],
                        "depth": 0,
                        "id": 0,
                        "order": 0
                    }
                ],
                "depth": -1,
                "id": -1,
                "order": -1
            }
        ],
        "mainTraceNodeCount": 2,
        "parentIdMap": {
            "0": -1,
            "1": 0
        },
        "tidyTrace": [
            {
                "children": [
                    {
                        "children": [
                            {
                                "children": [],
                                "depth": 1,
                                "id": 1,
                                "order": 1
                            }
                        ],
                        "depth": 0,
                        "id": 0,
                        "order": 0
                    }
                ],
                "depth": -1,
                "id": -1,
                "order": -1
            }
        ],
        "tidyTraceNodeCount": 2
    },
    "state_change": {
        "stateChanges": [
            {
                "address": "0xa0b73e1ff0b80914ab6fe0444e65848c4c34450b",
                "erc": "ERC-20",
                "slots": [
                    {
                        "current": "0x00000000000000000000000000000000000000000000000000172ddbc1eba479",
                        "key": "0x06572fba9f3b891296e0e9534f23636d9ea20bdee276064a284ffd8870e435be",
                        "prev": "0x00000000000000000000000000000000000000000000000000172f8f8a80eb79"
                    },
                    {
                        "current": "0x000000000000000000000000000000000000000000000000000001b3c8954700",
                        "key": "0xcefa680d2c22e9ba6a54b7ac0ce22383aaecceeba032f9840e181456afc78b0c",
                        "prev": "0x0000000000000000000000000000000000000000000000000000000000000000"
                    }
                ],
                "storageVariables": [
                    {
                        "name": "balances",
                        "type": "mapping(address => uint256)",
                        "value": {
                            "pairs": [
                                {
                                    "key": "0x193c62f661351f732d4c7c912411aa77e66e50f0",
                                    "value": {
                                        "current": "1871676000000",
                                        "prev": "0",
                                        "typeTag": 1
                                    }
                                },
                                {
                                    "key": "0x46340b20830761efd32832a74d7169b29feb9758",
                                    "value": {
                                        "current": "6524346338878585",
                                        "prev": "6526218014878585",
                                        "typeTag": 1
                                    }
                                }
                            ],
                            "typeTag": 4
                        }
                    }
                ]
            }
        ]
    }
}