{
    "balance_change": {
        "balanceChanges": [
            {
                "account": "0x885ecc9c31320993e0fe6148cd90f5159db19d36",
                "assets": [
                    {
                        "address": "0x0d8775f648430679a709e98d2b0cb6250d2887ef",
                        "amount": "100",
                        "iconUrl": "https://assets.blocksec.com/icon/c5e7cd8dfdc41ede0b39a767b7a8b9ac3f98749148ad9c0ffe838d1ca4891ff1.png",
                        "isERC1155": false,
                        "isERC721": false,
                        "sign": false,
                        "value": ""
                    }
                ]
            },
            {
                "account": "0xa94c02e8386f816068e98d4749d730ebc82a0652",
                "assets": [
                    {
                        "address": "0x0d8775f648430679a709e98d2b0cb6250d2887ef",
                        "amount": "100",
                        "iconUrl": "https://assets.blocksec.com/icon/c5e7cd8dfdc41ede0b39a767b7a8b9ac3f98749148ad9c0ffe838d1ca4891ff1.png",
                        "isERC1155": false,
                        "isERC721": false,
                        "sign": true,
                        "value": ""
                    }
                ]
            }
        ]
    },
    "profile": {
        "basic_info": {
            "baseFee": "",
            "blockNumber": 7511477,
            "callData": "0xa9059cbb000000000000000000000000a94c02e8386f816068e98d4749d730ebc82a06520000000000000000000000000000000000000000000000056bc75e2d63100000",
            "debugEnable": true,
            "errorInfo": "",
            "eventCount": 1,
            "feeRecipient": "0x829bd824b016326a401d083b33d092293333a830",
            "formatValue": "0",
            "gasLimit": 70000,
            "gasPrice": "10",
            "gasUsed": 51852,
            "intTxnCount": 0,
            "internalRevert": false,
            "internalRevertMessage": "",
            "isContractCreation": false,
            "isFlashloan": false,
            "maxFee": "",
            "nonce": 27673,
            "overwritedBlockNumber": -1,
            "priorityFee": "",
            "receiver": "0x0d8775f648430679a709e98d2b0cb6250d2887ef",
            "revertMessage": "",
            "sender": "0x885ecc9c31320993e0fe6148cd90f5159db19d36",
            "simulationEnable": true,
            "sourceTxnHash": "0x5915eb04a85f073d8c3c035df910977c599cc796573ae9d0228d8f50924abb83",
            "status": true,
            "timestamp": "2019-04-06T01:02:57Z",
            "transactionFee": "0.00051852",
            "txnHash": "0x5915eb04a85f073d8c3c035df910977c599cc796573ae9d0228d8f50924abb83",
            "txnIndex": 0,
            "type": 0,
            "value": "0"
        },
        "fund_flow": [
            {
                "amount": "100",
                "from": "0x885ecc9c31320993e0fe6148cd90f5159db19d36",
                "id": 1,
                "isERC1155": false,
                "isERC721": false,
                "isReverted": false,
                "order": 1,
                "to": "0xa94c02e8386f816068e98d4749d730ebc82a0652",
                "token": "0x0d8775f648430679a709e98d2b0cb6250d2887ef"
            }
        ],
        "token_infos": [
            {
                "address": "0x0d8775f648430679a709e98d2b0cb6250d2887ef",
                "decimals": 18
            },
            {
                "address": "0xc02aaa39b223fe8d0a0e5c4f27ead9083c756cc2",
                "decimals": 18
            },
            {
                "address": "0xeeeeeeeeeeeeeeeeeeeeeeeeeeeeeeeeeeeeeeee",
                "decimals": 18
            }
        ]
    },
    "address_label": {
        "labels": [
            {
                "address": "0x0000000000000000000000000000000000000003",
                "label": "Precompiled"
            },
            {
                "address": "0x0000000000000000000000000000000000000004",
                "label": "Precompiled"
            },
            {
                "address": "0xeeeeeeeeeeeeeeeeeeeeeeeeeeeeeeeeeeeeeeee",
                "label": "Ether"
            },
            {
                "address": "0x0d8775f648430679a709e98d2b0cb6250d2887ef",
                "label": "Basic Attention: BAT Token"
            },
            {
                "address": "0xa94c02e8386f816068e98d4749d730ebc82a0652",
                "label": "HUOBI"
            },
            {
                "address": "0x0000000000000000000000000000000000000001",
                "label": "Precompiled"
            },
            {
                "address": "0x0000000000000000000000000000000000000002",
                "label": "Precompiled"
            }
        ]
    },
    "trace": {
        "accountLabels": null,
        "dataMap": {
            "-1": {
                "invocation": {
                    "address": "0x885ecc9c31320993e0fe6148cd90f5159db19d36",
                    "callData": "",
                    "decodedMethod": null,
                    "errorInfo": "",
                    "fromAddress": "",
                    "gasUsed": 0,
                    "id": -1,
                    "methodDecoded": false,
                    "operation": "",
                    "output": "",
                    "revert": false,
                    "revertMessage": "",
                    "selector": "",
                    "status": false,
                    "value": ""
                },
                "nodeType": 0
            },
            "0": {
                "invocation": {
                    "address": "0x0d8775f648430679a709e98d2b0cb6250d2887ef",
                    "callData": "0x000000000000000000000000a94c02e8386f816068e98d4749d730ebc82a06520000000000000000000000000000000000000000000000056bc75e2d63100000",
                    "decodedMethod": {
                        "callParams": [
                            {
                                "name": "_to",
                                "type": "address",
                                "value": "0xa94c02e8386f816068e98d4749d730ebc82a0652"
                            },
                            {
                                "decimalAvailable": true,
                                "name": "_value",
                                "type": "uint256",
                                "value": "100,000,000,000,000,000,000"
                            }
                        ],
                        "constructorArguments": "",
                        "name": "transfer",
                        "returnParams": [
                            {
                                "name": "success",
                                "type": "bool",
                                "value": true
                            }
                        ],
                        "signature": "transfer(address,uint256)"
                    },
                    "errorInfo": "",
                    "fromAddress": "0x885ecc9c31320993e0fe6148cd90f5159db19d36",
                    "gasUsed": 51852,
                    "id": 0,
                    "methodDecoded": true,
                    "operation": "CALL",
                    "output": "0x0000000000000000000000000000000000000000000000000000000000000001",
                    "revert": false,
                    "revertMessage": "",
                    "selector": "0xa9059cbb",
                    "status": true,
                    "value": "0"
                },
                "nodeType": 0
            },
            "1": {
                "event": {
                    "contract": "0x0d8775f648430679a709e98d2b0cb6250d2887ef",
                    "decodedLog": {
                        "name": "Transfer",
                        "params": [
                            {
                                "name": "_from",
                                "type": "address",
                                "value": "0x885ecc9c31320993e0fe6148cd90f5159db19d36"
                            },
                            {
                                "name": "_to",
                                "type": "address",
                                "value": "0xa94c02e8386f816068e98d4749d730ebc82a0652"
                            },
                            {
                                "decimalAvailable": true,
                                "name": "_value",
                                "type": "uint256",
                                "value": "100,000,000,000,000,000,000"
                            }
                        ],
                        "signature": "Transfer(address,address,uint256)"
                    },
                    "id": 1,
                    "logData": "0x0000000000000000000000000000000000000000000000056bc75e2d63100000",
                    "logDecoded": true,
                    "operation": "EVENT",
                    "revert": false,
                    "status": true,
                    "topics": [
                        "0xddf252ad1be2c89b69c2b068fc378daa952ba7f163c4a11628f55a4df523b3ef",
                        "0x000000000000000000000000885ecc9c31320993e0fe6148cd90f5159db19d36",
                        "0x000000000000000000000000a94c02e8386f816068e98d4749d730ebc82a0652"
                    ]
                },
                "nodeType": 1
            }
        },
        "gasFlame": [
            {
                "children": [
                    {
                        "children": [
                            {
                                "children": [],
                                "depth": 0,
                                "name": "Initial Gas",
                                "value": 23256
                            },
                            {
                                "children": [],
                                "depth": 0,
                                "name": "Executed Gas",
                                "value": 28596
                            }
                        ],
                        "depth": -1,
                        "name": "Actual Gas Used",
                        "value": 51852
                    },
                    {
                        "children": [],
                        "depth": -1,
                        "name": "Refunded Gas",
                        "value": 0
                    }
                ],
                "depth": -2,
                "name": "Total Gas",
                "value": 51852
            }
        ],
        "isConfirmed": true,
        "mainTrace": [
            {
                "children": [
                    {
                        "children": [
                            {
                                "children": [],
                                "depth": 1,
                                "id": 1,
                                "order": 1
                            }
                        ],
                        "depth": 0,
                        "id": 0,
                        "order": 0
                    }
                ],
                "depth": -1,
                "id": -1,
                "order": -1
            }
        ],
        "mainTraceNodeCount": 2,
        "parentIdMap": {
            "0": -1,
            "1": 0
        },
        "tidyTrace": [
            {
                "children": [
                    {
                        "children": [
                            {
                                "children": [],
                                "depth": 1,
                                "id": 1,
                                "order": 1
                            }
                        ],
                        "depth": 0,
                        "id": 0,
                        "order": 0
                    }
                ],
                "depth": -1,
                "id": -1,
                "order": -1
            }
        ],
        "tidyTraceNodeCount": 2
    },
    "state_change": {
        "stateChanges": [
            {
                "address": "0x0d8775f648430679a709e98d2b0cb6250d2887ef",
                "erc": "ERC-20",
                "slots": [
                    {
                        "current": "0x00000000000000000000000000000000000000000000234ee4e37a545a58bc00",
                        "key": "0x0080091922f0370bb33fbd5025d414bc2d72c66e14c2235de493fe743803d01c",
                        "prev": "0x00000000000000000000000000000000000000000000235450aad881bd68bc00"
                    },
                    {
                        "current": "0x0000000000000000000000000000000000000000000000056bc75e2d63100000",
                        "key": "0xbeafde1a90d3d5109090f3dba720fd8002a50c4c163008f1efea9f61178da182",
                        "prev": "0x0000000000000000000000000000000000000000000000000000000000000000"
                    }
                ],
                "storageVariables": []
            }
        ]
    }
}