{
    "balance_change": {
        "balanceChanges": [
            {
                "account": "0x4ccfa6a0f7cd2b1b308a7cc6f4974b65949860f0",
                "assets": [
                    {
                        "address": "0x8a77e40936bbc27e80e9a3f526368c967869c86d",
                        "amount": "97,999.999999999999999999",
                        "iconUrl": "",
                        "isERC1155": false,
                        "isERC721": false,
                        "sign": false,
                        "value": ""
                    }
                ]
            },
            {
                "account": "0x6cc5f688a315f3dc28a7781717a9a798a59fda7b",
                "assets": [
                    {
                        "address": "0x8a77e40936bbc27e80e9a3f526368c967869c86d",
                        "amount": "97,999.999999999999999999",
                        "iconUrl": "",
                        "isERC1155": false,
                        "isERC721": false,
                        "sign": true,
                        "value": ""
                    }
                ]
            }
        ]
    },
    "profile": {
        "basic_info": {
            "baseFee": "",
            "blockNumber": 6086234,
            "callData": "0xa9059cbb0000000000000000000000006cc5f688a315f3dc28a7781717a9a798a59fda7b0000000000000000000000000000000000000000000014c0973485bf393fffff",
            "debugEnable": true,
            "errorInfo": "",
            "eventCount": 1,
            "feeRecipient": "0xea674fdde714fd979de3edf0f56aa9716b898ec8",
            "formatValue": "0",
            "gasLimit": 105000,
            "gasPrice": "80",
            "gasUsed": 37148,
            "intTxnCount": 0,
            "internalRevert": false,
            "internalRevertMessage": "",
            "isContractCreation": false,
            "isFlashloan": false,
            "maxFee": "",
            "nonce": 0,
            "overwritedBlockNumber": -1,
            "priorityFee": "",
            "receiver": "0x8a77e40936bbc27e80e9a3f526368c967869c86d",
            "revertMessage": "",
            "sender": "0x4ccfa6a0f7cd2b1b308a7cc6f4974b65949860f0",
            "simulationEnable": true,
            "sourceTxnHash": "0x59a09c9c32ae57b0534d2c7e148d0553ee7f3ccd30cc973fdad7afc15fb4af8a",
            "status": true,
            "timestamp": "2018-08-04T10:21:16Z",
            "transactionFee": "0.00297184",
            "txnHash": "0x59a09c9c32ae57b0534d2c7e148d0553ee7f3ccd30cc973fdad7afc15fb4af8a",
            "txnIndex": 8,
            "type": 0,
            "value": "0"
        },
        "fund_flow": [
            {
                "amount": "97,999.999999999999999999",
                "from": "0x4ccfa6a0f7cd2b1b308a7cc6f4974b65949860f0",
                "id": 1,
                "isERC1155": false,
                "isERC721": false,
                "isReverted": false,
                "order": 1,
                "to": "0x6cc5f688a315f3dc28a7781717a9a798a59fda7b",
                "token": "0x8a77e40936bbc27e80e9a3f526368c967869c86d"
            }
        ],
        "token_infos": [
            {
                "address": "0x8a77e40936bbc27e80e9a3f526368c967869c86d",
                "decimals": 18
            },
            {
                "address": "0xc02aaa39b223fe8d0a0e5c4f27ead9083c756cc2",
                "decimals": 18
            },
            {
                "address": "0xeeeeeeeeeeeeeeeeeeeeeeeeeeeeeeeeeeeeeeee",
                "decimals": 18
            }
        ]
    },
    "address_label": {
        "labels": [
            {
                "address": "0x6cc5f688a315f3dc28a7781717a9a798a59fda7b",
                "label": "OKX"
            },
            {
                "address": "0x4ccfa6a0f7cd2b1b308a7cc6f4974b65949860f0",
                "label": "OKEX"
            },
            {
                "address": "0x8a77e40936bbc27e80e9a3f526368c967869c86d",
                "label": "Merculet: Old MVP Token"
            },
            {
                "address": "0x0000000000000000000000000000000000000001",
                "label": "Precompiled"
            },
            {
                "address": "0x0000000000000000000000000000000000000002",
                "label": "Precompiled"
            },
            {
                "address": "0x0000000000000000000000000000000000000003",
                "label": "Precompiled"
            },
            {
                "address": "0x0000000000000000000000000000000000000004",
                "label": "Precompiled"
            },
            {
                "address": "0xeeeeeeeeeeeeeeeeeeeeeeeeeeeeeeeeeeeeeeee",
                "label": "Ether"
            }
        ]
    },
    "trace": {
        "accountLabels": null,
        "dataMap": {
            "-1": {
                "invocation": {
                    "address": "0x4ccfa6a0f7cd2b1b308a7cc6f4974b65949860f0",
                    "callData": "",
                    "decodedMethod": null,
                    "errorInfo": "",
                    "fromAddress": "",
                    "gasUsed": 0,
                    "id": -1,
                    "methodDecoded": false,
                    "operation": "",
                    "output": "",
                    "revert": false,
                    "revertMessage": "",
                    "selector": "",
                    "status": false,
                    "value": ""
                },
                "nodeType": 0
            },
            "0": {
                "invocation": {
                    "address": "0x8a77e40936bbc27e80e9a3f526368c967869c86d",
                    "callData": "0x0000000000000000000000006cc5f688a315f3dc28a7781717a9a798a59fda7b0000000000000000000000000000000000000000000014c0973485bf393fffff",
                    "decodedMethod": {
                        "callParams": [
                            {
                                "name": "_to",
                                "type": "address",
                                "value": "0x6cc5f688a315f3dc28a7781717a9a798a59fda7b"
                            },
                            {
                                "decimalAvailable": true,
                                "name": "_value",
                                "type": "uint256",
                                "value": "97,999,999,999,999,999,999,999"
                            }
                        ],
                        "constructorArguments": "",
                        "name": "transfer",
                        "returnParams": [
                            {
                                "name": "success",
                                "type": "bool",
                                "value": true
                            }
                        ],
                        "signature": "transfer(address,uint256)"
                    },
                    "errorInfo": "",
                    "fromAddress": "0x4ccfa6a0f7cd2b1b308a7cc6f4974b65949860f0",
                    "gasUsed": 37148,
                    "id": 0,
                    "methodDecoded": true,
                    "operation": "CALL",
                    "output": "0x0000000000000000000000000000000000000000000000000000000000000001",
                    "revert": false,
                    "revertMessage": "",
                    "selector": "0xa9059cbb",
                    "status": true,
                    "value": "0"
                },
                "nodeType": 0
            },
            "1": {
                "event": {
                    "contract": "0x8a77e40936bbc27e80e9a3f526368c967869c86d",
                    "decodedLog": {
                        "name": "Transfer",
                        "params": [
                            {
                                "name": "_from",
                                "type": "address",
                                "value": "0x4ccfa6a0f7cd2b1b308a7cc6f4974b65949860f0"
                            },
                            {
                                "name": "_to",
                                "type": "address",
                                "value": "0x6cc5f688a315f3dc28a7781717a9a798a59fda7b"
                            },
                            {
                                "decimalAvailable": true,
                                "name": "_value",
                                "type": "uint256",
                                "value": "97,999,999,999,999,999,999,999"
                            }
                        ],
                        "signature": "Transfer(address,address,uint256)"
                    },
                    "id": 1,
                    "logData": "0x0000000000000000000000000000000000000000000014c0973485bf393fffff",
                    "logDecoded": true,
                    "operation": "EVENT",
                    "revert": false,
                    "status": true,
                    "topics": [
                        "0xddf252ad1be2c89b69c2b068fc378daa952ba7f163c4a11628f55a4df523b3ef",
                        "0x0000000000000000000000004ccfa6a0f7cd2b1b308a7cc6f4974b65949860f0",
                        "0x0000000000000000000000006cc5f688a315f3dc28a7781717a9a798a59fda7b"
                    ]
                },
                "nodeType": 1
            }
        },
        "gasFlame": [
            {
                "children": [
                    {
                        "children": [
                            {
                                "children": [],
                                "depth": 0,
                                "name": "Initial Gas",
                                "value": 23448
                            },
                            {
                                "children": [],
                                "depth": 0,
                                "name": "Executed Gas",
                                "value": 13700
                            }
                        ],
                        "depth": -1,
                        "name": "Actual Gas Used",
                        "value": 37148
                    },
                    {
                        "children": [],
                        "depth": -1,
                        "name": "Refunded Gas",
                        "value": 0
                    }
                ],
                "depth": -2,
                "name": "Total Gas",
                "value": 37148
            }
        ],
        "isConfirmed": true,
        "mainTrace": [
            {
                "children": [
                    {
                        "children": [
                            {
                                "children": [],
                                "depth": 1,
                                "id": 1,
                                "order": 1
                            }
                        ],
                        "depth": 0,
                        "id": 0,
                        "order": 0
                    }
                ],
                "depth": -1,
                "id": -1,
                "order": -1
            }
        ],
        "mainTraceNodeCount": 2,
        "parentIdMap": {
            "0": -1,
            "1": 0
        },
        "tidyTrace": [
            {
                "children": [
                    {
                        "children": [
                            {
                                "children": [],
                                "depth": 1,
                                "id": 1,
                                "order": 1
                            }
                        ],
                        "depth": 0,
                        "id": 0,
                        "order": 0
                    }
                ],
                "depth": -1,
                "id": -1,
                "order": -1
            }
        ],
        "tidyTraceNodeCount": 2
    },
    "state_change": {
        "stateChanges": [
            {
                "address": "0x8a77e40936bbc27e80e9a3f526368c967869c86d",
                "erc": "ERC-20",
                "slots": [
                    {
                        "current": "0x0000000000000000000000000000000000000000000000000000000000000001",
                        "key": "0xa45ef299782ac6690ad7160769c6732d1450f16e3c7f8c83c669f4ffb5f53acb",
                        "prev": "0x0000000000000000000000000000000000000000000014c0973485bf39400000"
                    },
                    {
                        "current": "0x000000000000000000000000000000000000000001762534f371a5d8acbbc7f9",
                        "key": "0xb0c86e9b81cc33f480ad0d1717460fbad99accc1c5deec69a6063d6af332ad0c",
                        "prev": "0x0000000000000000000000000000000000000000017610745c3d2019737bc7fa"
                    }
                ],
                "storageVariables": [
                    {
                        "name": "balances",
                        "type": "mapping(address => uint256)",
                        "value": {
                            "pairs": [
                                {
                                    "key": "0x4ccfa6a0f7cd2b1b308a7cc6f4974b65949860f0",
                                    "value": {
                                        "current": "1",
                                        "prev": "98000000000000000000000",
                                        "typeTag": 1
                                    }
                                },
                                {
                                    "key": "0x6cc5f688a315f3dc28a7781717a9a798a59fda7b",
                                    "value": {
                                        "current": "452313960868413694723999737",
                                        "prev": "452215960868413694723999738",
                                        "typeTag": 1
                                    }
                                }
                            ],
                            "typeTag": 4
                        }
                    }
                ]
            }
        ]
    }
}