{
    "balance_change": {
        "balanceChanges": []
    },
    "profile": {
        "basic_info": {
            "baseFee": "",
            "blockNumber": 8927067,
            "callData": "0x71b773440000000000000000000000000000000000000000000000000000000000000040000000000000000000000000000000000000000000000000000000005dcc1a1800000000000000000000000000000000000000000000000000000000000000411205132c30f61c669313ed3390e07afe2b8cc33a89c178c896e8fd000ea448d610620fed19b21d64ac67e5b3577d817cbe0d7c71df5e67ed892da7ba49923e000100000000000000000000000000000000000000000000000000000000000000",
            "debugEnable": true,
            "errorInfo": "",
            "eventCount": 1,
            "feeRecipient": "0xea674fdde714fd979de3edf0f56aa9716b898ec8",
            "formatValue": "0",
            "gasLimit": 40064,
            "gasPrice": "1",
            "gasUsed": 40064,
            "intTxnCount": 1,
            "internalRevert": false,
            "internalRevertMessage": "",
            "isContractCreation": false,
            "isFlashloan": false,
            "maxFee": "",
            "nonce": 288,
            "overwritedBlockNumber": -1,
            "priorityFee": "",
            "receiver": "0x5e07b6f1b98a11f7e04e7ffa8707b63f1c177753",
            "revertMessage": "",
            "sender": "0x4d26a1eac08b42f02da53f8b9f61cf6f1aee9366",
            "simulationEnable": true,
            "sourceTxnHash": "0x594d7c5021276229f73a7d8ce19290ae3f82c3478e5ec14a44dc85bffa5c4056",
            "status": true,
            "timestamp": "2019-11-13T15:01:16Z",
            "transactionFee": "0.000040064",
            "txnHash": "0x594d7c5021276229f73a7d8ce19290ae3f82c3478e5ec14a44dc85bffa5c4056",
            "txnIndex": 40,
            "type": 0,
            "value": "0"
        },
        "fund_flow": [],
        "token_infos": [
            {
                "address": "0xc02aaa39b223fe8d0a0e5c4f27ead9083c756cc2",
                "decimals": 18
            },
            {
                "address": "0xeeeeeeeeeeeeeeeeeeeeeeeeeeeeeeeeeeeeeeee",
                "decimals": 18
            }
        ]
    },
    "address_label": {
        "labels": [
            {
                "address": "0x0000000000000000000000000000000000000004",
                "label": "Precompiled"
            },
            {
                "address": "0xeeeeeeeeeeeeeeeeeeeeeeeeeeeeeeeeeeeeeeee",
                "label": "Ether"
            },
            {
                "address": "0x5e07b6f1b98a11f7e04e7ffa8707b63f1c177753",
                "label": "MCH: Daily Action 3"
            },
            {
                "address": "0x0000000000000000000000000000000000000001",
                "label": "Precompiled"
            },
            {
                "address": "0x0000000000000000000000000000000000000002",
                "label": "Precompiled"
            },
            {
                "address": "0x0000000000000000000000000000000000000003",
                "label": "Precompiled"
            }
        ]
    },
    "trace": {
        "accountLabels": null,
        "dataMap": {
            "-1": {
                "invocation": {
                    "address": "0x4d26a1eac08b42f02da53f8b9f61cf6f1aee9366",
                    "callData": "",
                    "decodedMethod": null,
                    "errorInfo": "",
                    "fromAddress": "",
                    "gasUsed": 0,
                    "id": -1,
                    "methodDecoded": false,
                    "operation": "",
                    "output": "",
                    "revert": false,
                    "revertMessage": "",
                    "selector": "",
                    "status": false,
                    "value": ""
                },
                "nodeType": 0
            },
            "0": {
                "invocation": {
                    "address": "0x5e07b6f1b98a11f7e04e7ffa8707b63f1c177753",
                    "callData": "0x0000000000000000000000000000000000000000000000000000000000000040000000000000000000000000000000000000000000000000000000005dcc1a1800000000000000000000000000000000000000000000000000000000000000411205132c30f61c669313ed3390e07afe2b8cc33a89c178c896e8fd000ea448d610620fed19b21d64ac67e5b3577d817cbe0d7c71df5e67ed892da7ba49923e000100000000000000000000000000000000000000000000000000000000000000",
                    "decodedMethod": {
                        "callParams": [
                            {
                                "name": "_signature",
                                "type": "bytes",
                                "value": "0x1205132c30f61c669313ed3390e07afe2b8cc33a89c178c896e8fd000ea448d610620fed19b21d64ac67e5b3577d817cbe0d7c71df5e67ed892da7ba49923e0001"
                            },
                            {
                                "name": "_time",
                                "type": "int64",
                                "value": "1,573,657,112"
                            }
                        ],
                        "constructorArguments": "",
                        "name": "requestDailyActionReward",
                        "returnParams": [],
                        "signature": "requestDailyActionReward(bytes,int64)"
                    },
                    "errorInfo": "",
                    "fromAddress": "0x4d26a1eac08b42f02da53f8b9f61cf6f1aee9366",
                    "gasUsed": 40064,
                    "id": 0,
                    "methodDecoded": true,
                    "operation": "CALL",
                    "output": "",
                    "revert": false,
                    "revertMessage": "",
                    "selector": "0x71b77344",
                    "status": true,
                    "value": "0"
                },
                "nodeType": 0
            },
            "1": {
                "invocation": {
                    "address": "0x0000000000000000000000000000000000000001",
                    "callData": "0xfa9c93a57348bbbb0b098624ee20d6bb5be1a4bb1400ea31c459a4a1000000000000000000000000000000000000000000000000000000000000001c1205132c30f61c669313ed3390e07afe2b8cc33a89c178c896e8fd000ea448d610620fed19b21d64ac67e5b3577d817cbe0d7c71df5e67ed892da7ba49923e00",
                    "decodedMethod": {
                        "callParams": [
                            {
                                "name": "hash",
                                "type": "bytes32",
                                "value": "0xa275da24fa9c93a57348bbbb0b098624ee20d6bb5be1a4bb1400ea31c459a4a1"
                            },
                            {
                                "name": "v",
                                "type": "uint256",
                                "value": "28"
                            },
                            {
                                "name": "r",
                                "type": "bytes32",
                                "value": "0x1205132c30f61c669313ed3390e07afe2b8cc33a89c178c896e8fd000ea448d6"
                            },
                            {
                                "name": "s",
                                "type": "bytes32",
                                "value": "0x10620fed19b21d64ac67e5b3577d817cbe0d7c71df5e67ed892da7ba49923e00"
                            }
                        ],
                        "constructorArguments": "",
                        "name": "ecrecover",
                        "returnParams": [
                            {
                                "name": "",
                                "type": "address",
                                "value": "0x984e7b0f2cb06b847dd465eec65a3a41c1e27c06"
                            }
                        ],
                        "signature": "ecrecover(bytes32,uint256,bytes32,bytes32)"
                    },
                    "errorInfo": "",
                    "fromAddress": "0x5e07b6f1b98a11f7e04e7ffa8707b63f1c177753",
                    "gasUsed": 3000,
                    "id": 1,
                    "methodDecoded": true,
                    "operation": "STATICCALL",
                    "output": "0x000000000000000000000000984e7b0f2cb06b847dd465eec65a3a41c1e27c06",
                    "revert": false,
                    "revertMessage": "",
                    "selector": "0xa275da24",
                    "status": true,
                    "value": "0"
                },
                "nodeType": 0
            },
            "2": {
                "event": {
                    "contract": "0x5e07b6f1b98a11f7e04e7ffa8707b63f1c177753",
                    "decodedLog": {
                        "name": "Action",
                        "params": [
                            {
                                "name": "user",
                                "type": "address",
                                "value": "0x4d26a1eac08b42f02da53f8b9f61cf6f1aee9366"
                            },
                            {
                                "name": "at",
                                "type": "int64",
                                "value": "1,573,657,112"
                            }
                        ],
                        "signature": "Action(address,int64)"
                    },
                    "id": 2,
                    "logData": "0x000000000000000000000000000000000000000000000000000000005dcc1a18",
                    "logDecoded": true,
                    "operation": "EVENT",
                    "revert": false,
                    "status": true,
                    "topics": [
                        "0x708861da4aa6afa7c59ec1b6595bfacef3b852515c06faafba359c70bc640e8c",
                        "0x0000000000000000000000004d26a1eac08b42f02da53f8b9f61cf6f1aee9366"
                    ]
                },
                "nodeType": 1
            }
        },
        "gasFlame": [
            {
                "children": [
                    {
                        "children": [
                            {
                                "children": [],
                                "depth": 0,
                                "name": "Initial Gas",
                                "value": 26456
                            },
                            {
                                "children": [
                                    {
                                        "children": [],
                                        "depth": 1,
                                        "name": "ecrecover",
                                        "value": 3000
                                    }
                                ],
                                "depth": 0,
                                "name": "Executed Gas",
                                "value": 13608
                            }
                        ],
                        "depth": -1,
                        "name": "Actual Gas Used",
                        "value": 40064
                    },
                    {
                        "children": [],
                        "depth": -1,
                        "name": "Refunded Gas",
                        "value": 0
                    }
                ],
                "depth": -2,
                "name": "Total Gas",
                "value": 40064
            }
        ],
        "isConfirmed": true,
        "mainTrace": [
            {
                "children": [
                    {
                        "children": [
                            {
                                "children": [],
                                "depth": 1,
                                "id": 1,
                                "order": 1
                            },
                            {
                                "children": [],
                                "depth": 1,
                                "id": 2,
                                "order": 2
                            }
                        ],
                        "depth": 0,
                        "id": 0,
                        "order": 0
                    }
                ],
                "depth": -1,
                "id": -1,
                "order": -1
            }
        ],
        "mainTraceNodeCount": 3,
        "parentIdMap": {
            "0": -1,
            "1": 0,
            "2": 0
        },
        "tidyTrace": [
            {
                "children": [
                    {
                        "children": [
                            {
                                "children": [],
                                "depth": 1,
                                "id": 2,
                                "order": 2
                            }
                        ],
                        "depth": 0,
                        "id": 0,
                        "order": 0
                    }
                ],
                "depth": -1,
                "id": -1,
                "order": -1
            }
        ],
        "tidyTraceNodeCount": 2
    },
    "state_change": {
        "stateChanges": [
            {
                "address": "0x5e07b6f1b98a11f7e04e7ffa8707b63f1c177753",
                "erc": "",
                "slots": [
                    {
                        "current": "0x0000000000000000000000000000000000000000000000000000000000004725",
                        "key": "0xa211367fda98512a8719ac3d645a22438081d3acb3d9f78e29aa20e2c6b3394a",
                        "prev": "0x0000000000000000000000000000000000000000000000000000000000004724"
                    }
                ],
                "storageVariables": [
                    {
                        "name": "lastActionDate",
                        "type": "mapping(address => int64)",
                        "value": {
                            "pairs": [
                                {
                                    "key": "0x4d26a1eac08b42f02da53f8b9f61cf6f1aee9366",
                                    "value": {
                                        "current": "18213",
                                        "prev": "18212",
                                        "typeTag": 1
                                    }
                                }
                            ],
                            "typeTag": 4
                        }
                    }
                ]
            }
        ]
    }
}