{
    "balance_change": {
        "balanceChanges": []
    },
    "profile": {
        "basic_info": {
            "baseFee": "",
            "blockNumber": 3840755,
            "callData": "0xede8acdb9450992ff1ae24afced51a7fee85c942b15db77893d1ec6de692ed0ff8eb01f4",
            "debugEnable": true,
            "errorInfo": "",
            "eventCount": 1,
            "feeRecipient": "0xea674fdde714fd979de3edf0f56aa9716b898ec8",
            "formatValue": "0",
            "gasLimit": 100000,
            "gasPrice": "20",
            "gasUsed": 59865,
            "intTxnCount": 1,
            "internalRevert": false,
            "internalRevertMessage": "",
            "isContractCreation": false,
            "isFlashloan": false,
            "maxFee": "",
            "nonce": 2,
            "overwritedBlockNumber": -1,
            "priorityFee": "",
            "receiver": "0x6090a6e47849629b7245dfa1ca21d94cd15878ef",
            "revertMessage": "",
            "sender": "0x510f7b2cfc0cb903549983c5d072b21605e23ac9",
            "simulationEnable": true,
            "sourceTxnHash": "0x5915136e13838ad94091b3255274716884fb814770c39ffba48f7d6c2c9dc55f",
            "status": true,
            "timestamp": "2017-06-08T16:31:50Z",
            "transactionFee": "0.0011973",
            "txnHash": "0x5915136e13838ad94091b3255274716884fb814770c39ffba48f7d6c2c9dc55f",
            "txnIndex": 30,
            "type": 0,
            "value": "0"
        },
        "fund_flow": [],
        "token_infos": [
            {
                "address": "0xc02aaa39b223fe8d0a0e5c4f27ead9083c756cc2",
                "decimals": 18
            },
            {
                "address": "0xeeeeeeeeeeeeeeeeeeeeeeeeeeeeeeeeeeeeeeee",
                "decimals": 18
            }
        ]
    },
    "address_label": {
        "labels": [
            {
                "address": "0x0000000000000000000000000000000000000001",
                "label": "Precompiled"
            },
            {
                "address": "0x0000000000000000000000000000000000000002",
                "label": "Precompiled"
            },
            {
                "address": "0x0000000000000000000000000000000000000003",
                "label": "Precompiled"
            },
            {
                "address": "0x0000000000000000000000000000000000000004",
                "label": "Precompiled"
            },
            {
                "address": "0xeeeeeeeeeeeeeeeeeeeeeeeeeeeeeeeeeeeeeeee",
                "label": "Ether"
            },
            {
                "address": "0x6090a6e47849629b7245dfa1ca21d94cd15878ef",
                "label": "ENS: Old Registrar"
            },
            {
                "address": "0x314159265dd8dbb310642f98f50c066173c1259b",
                "label": "ENS: Eth Name Service"
            }
        ]
    },
    "trace": {
        "accountLabels": null,
        "dataMap": {
            "-1": {
                "invocation": {
                    "address": "0x510f7b2cfc0cb903549983c5d072b21605e23ac9",
                    "callData": "",
                    "decodedMethod": null,
                    "errorInfo": "",
                    "fromAddress": "",
                    "gasUsed": 0,
                    "id": -1,
                    "methodDecoded": false,
                    "operation": "",
                    "output": "",
                    "revert": false,
                    "revertMessage": "",
                    "selector": "",
                    "status": false,
                    "value": ""
                },
                "nodeType": 0
            },
            "0": {
                "invocation": {
                    "address": "0x6090a6e47849629b7245dfa1ca21d94cd15878ef",
                    "callData": "0x9450992ff1ae24afced51a7fee85c942b15db77893d1ec6de692ed0ff8eb01f4",
                    "decodedMethod": {
                        "callParams": [
                            {
                                "name": "_hash",
                                "type": "bytes32",
                                "value": "0x9450992ff1ae24afced51a7fee85c942b15db77893d1ec6de692ed0ff8eb01f4"
                            }
                        ],
                        "constructorArguments": "",
                        "name": "startAuction",
                        "returnParams": [],
                        "signature": "startAuction(bytes32)"
                    },
                    "errorInfo": "",
                    "fromAddress": "0x510f7b2cfc0cb903549983c5d072b21605e23ac9",
                    "gasUsed": 59865,
                    "id": 0,
                    "methodDecoded": true,
                    "operation": "CALL",
                    "output": "",
                    "revert": false,
                    "revertMessage": "",
                    "selector": "0xede8acdb",
                    "status": true,
                    "value": "0"
                },
                "nodeType": 0
            },
            "1": {
                "invocation": {
                    "address": "0x314159265dd8dbb310642f98f50c066173c1259b",
                    "callData": "0x93cdeb708b7545dc668eb9280176169d1c33cfd8ed6f04690a0bcc88a93fc4ae",
                    "decodedMethod": {
                        "callParams": [
                            {
                                "name": "node",
                                "type": "bytes32",
                                "value": "0x93cdeb708b7545dc668eb9280176169d1c33cfd8ed6f04690a0bcc88a93fc4ae"
                            }
                        ],
                        "constructorArguments": "",
                        "name": "owner",
                        "returnParams": [
                            {
                                "name": "",
                                "type": "address",
                                "value": "0x6090a6e47849629b7245dfa1ca21d94cd15878ef"
                            }
                        ],
                        "signature": "owner(bytes32)"
                    },
                    "errorInfo": "",
                    "fromAddress": "0x6090a6e47849629b7245dfa1ca21d94cd15878ef",
                    "gasUsed": 432,
                    "id": 1,
                    "methodDecoded": true,
                    "operation": "CALL",
                    "output": "0x0000000000000000000000006090a6e47849629b7245dfa1ca21d94cd15878ef",
                    "revert": false,
                    "revertMessage": "",
                    "selector": "0x02571be3",
                    "status": true,
                    "value": "0"
                },
                "nodeType": 0
            },
            "2": {
                "event": {
                    "contract": "0x6090a6e47849629b7245dfa1ca21d94cd15878ef",
                    "decodedLog": {
                        "name": "AuctionStarted",
                        "params": [
                            {
                                "name": "hash",
                                "type": "bytes32",
                                "value": "0x9450992ff1ae24afced51a7fee85c942b15db77893d1ec6de692ed0ff8eb01f4"
                            },
                            {
                                "name": "registrationDate",
                                "type": "uint256",
                                "value": "1,497,371,510"
                            }
                        ],
                        "signature": "AuctionStarted(bytes32,uint256)"
                    },
                    "id": 2,
                    "logData": "0x0000000000000000000000000000000000000000000000000000000059401376",
                    "logDecoded": true,
                    "operation": "EVENT",
                    "revert": false,
                    "status": true,
                    "topics": [
                        "0x87e97e825a1d1fa0c54e1d36c7506c1dea8b1efd451fe68b000cf96f7cf40003",
                        "0x9450992ff1ae24afced51a7fee85c942b15db77893d1ec6de692ed0ff8eb01f4"
                    ]
                },
                "nodeType": 1
            }
        },
        "gasFlame": [
            {
                "children": [
                    {
                        "children": [
                            {
                                "children": [],
                                "depth": 0,
                                "name": "Initial Gas",
                                "value": 23448
                            },
                            {
                                "children": [
                                    {
                                        "children": [],
                                        "depth": 1,
                                        "name": "owner",
                                        "value": 432
                                    }
                                ],
                                "depth": 0,
                                "name": "Executed Gas",
                                "value": 36417
                            }
                        ],
                        "depth": -1,
                        "name": "Actual Gas Used",
                        "value": 59865
                    },
                    {
                        "children": [],
                        "depth": -1,
                        "name": "Refunded Gas",
                        "value": 0
                    }
                ],
                "depth": -2,
                "name": "Total Gas",
                "value": 59865
            }
        ],
        "isConfirmed": true,
        "mainTrace": [
            {
                "children": [
                    {
                        "children": [
                            {
                                "children": [],
                                "depth": 1,
                                "id": 1,
                                "order": 1
                            },
                            {
                                "children": [],
                                "depth": 1,
                                "id": 2,
                                "order": 2
                            }
                        ],
                        "depth": 0,
                        "id": 0,
                        "order": 0
                    }
                ],
                "depth": -1,
                "id": -1,
                "order": -1
            }
        ],
        "mainTraceNodeCount": 3,
        "parentIdMap": {
            "0": -1,
            "1": 0,
            "2": 0
        },
        "tidyTrace": [
            {
                "children": [
                    {
                        "children": [
                            {
                                "children": [],
                                "depth": 1,
                                "id": 1,
                                "order": 1
                            },
                            {
                                "children": [],
                                "depth": 1,
                                "id": 2,
                                "order": 2
                            }
                        ],
                        "depth": 0,
                        "id": 0,
                        "order": 0
                    }
                ],
                "depth": -1,
                "id": -1,
                "order": -1
            }
        ],
        "tidyTraceNodeCount": 3
    },
    "state_change": {
        "stateChanges": [
            {
                "address": "0x6090a6e47849629b7245dfa1ca21d94cd15878ef",
                "erc": "",
                "slots": [
                    {
                        "current": "0x0000000000000000000000000000000000000000000000000000000059401376",
                        "key": "0x789966ec526675007591096ae93a03b642831602338f30988cd3c8f8f736a5f1",
                        "prev": "0x0000000000000000000000000000000000000000000000000000000000000000"
                    }
                ],
                "storageVariables": []
            }
        ]
    }
}