{
    "balance_change": {
        "balanceChanges": [
            {
                "account": "0x39104885cfe1ca0e2cacd0edd2821d365a078534",
                "assets": [
                    {
                        "address": "0xeeeeeeeeeeeeeeeeeeeeeeeeeeeeeeeeeeeeeeee",
                        "amount": "0.50330789375217901",
                        "iconUrl": "https://assets.blocksec.com/image/1663669189317-3.png",
                        "isERC1155": false,
                        "isERC721": false,
                        "sign": true,
                        "value": "702.89463908638997713"
                    }
                ]
            },
            {
                "account": "0x442931c2de01bf5d9b9b1761a205f607f2de324a",
                "assets": [
                    {
                        "address": "0x43647239ede197099b57bf72d0373f8049acfb0f",
                        "amount": "24.97745169",
                        "iconUrl": "",
                        "isERC1155": false,
                        "isERC721": false,
                        "sign": false,
                        "value": ""
                    }
                ]
            },
            {
                "account": "0x43647239ede197099b57bf72d0373f8049acfb0f",
                "assets": [
                    {
                        "address": "0xeeeeeeeeeeeeeeeeeeeeeeeeeeeeeeeeeeeeeeee",
                        "amount": "0.50330789375217901",
                        "iconUrl": "https://assets.blocksec.com/image/1663669189317-3.png",
                        "isERC1155": false,
                        "isERC721": false,
                        "sign": false,
                        "value": "702.89463908638997713"
                    },
                    {
                        "address": "0x43647239ede197099b57bf72d0373f8049acfb0f",
                        "amount": "24.97745169",
                        "iconUrl": "",
                        "isERC1155": false,
                        "isERC721": false,
                        "sign": true,
                        "value": ""
                    }
                ]
            }
        ]
    },
    "profile": {
        "basic_info": {
            "baseFee": "14.223661662",
            "blockNumber": 16390385,
            "callData": "0x1cff79cd0000000000000000000000006d5ba3b95f0379c7073f06f230277ea50ec3f8eb00000000000000000000000000000000000000000000000000000000000000400000000000000000000000000000000000000000000000000000000000000264ec17afc9000000000000000000000000000000000000000000000000000000000000002000000000000000000000000000000000000000000000000000000000000000020000000000000000000000000000000000000000000000000000000000000040000000000000000000000000000000000000000000000000000000000000012000000000000000000000000043647239ede197099b57bf72d0373f8049acfb0f0000000000000000000000000000000000000000000000000000000000000080000000000000000000000000000000000000000000000000000000000000000000000000000000000000000000000000000000000000000000000000000000010000000000000000000000000000000000000000000000000000000000000024db006a750000000000000000000000000000000000000000000000000000000094e0911100000000000000000000000000000000000000000000000000000000000000000000000000000000de1ede1ede1ede1ede1ede1ede1ede1ede1ede1e00000000000000000000000000000000000000000000000000000000000000800000000000000000000000000000000000000000000000000000000000000000000000000000000000000000000000000000000000000000000000000000000100000000000000000000000000000000000000000000000000000000000000444b14e003000000000000000000000000eeeeeeeeeeeeeeeeeeeeeeeeeeeeeeeeeeeeeeee00000000000000000000000039104885cfe1ca0e2cacd0edd2821d365a0785340000000000000000000000000000000000000000000000000000000000000000000000000000000000000000000000000000000000000000",
            "debugEnable": true,
            "errorInfo": "",
            "eventCount": 5,
            "feeRecipient": "0x199d5ed7f45f4ee35960cf22eade2076e95b253f",
            "formatValue": "0",
            "gasLimit": 287178,
            "gasPrice": "15.723661662",
            "gasUsed": 261232,
            "intTxnCount": 21,
            "internalRevert": false,
            "internalRevertMessage": "",
            "isContractCreation": false,
            "isFlashloan": false,
            "maxFee": "19.872579618",
            "nonce": 38,
            "overwritedBlockNumber": -1,
            "priorityFee": "1.5",
            "receiver": "0x442931c2de01bf5d9b9b1761a205f607f2de324a",
            "revertMessage": "",
            "sender": "0x39104885cfe1ca0e2cacd0edd2821d365a078534",
            "simulationEnable": true,
            "sourceTxnHash": "0x5928f1fb0be181b09dde3ef7f01a81da0b46574c8889633781f43a3f7dbe3567",
            "status": true,
            "timestamp": "2023-01-12T11:20:35Z",
            "transactionFee": "0.004107523583287584",
            "txnHash": "0x5928f1fb0be181b09dde3ef7f01a81da0b46574c8889633781f43a3f7dbe3567",
            "txnIndex": 93,
            "type": 2,
            "value": "0"
        },
        "fund_flow": [
            {
                "amount": "0.50330789375217901",
                "from": "0x43647239ede197099b57bf72d0373f8049acfb0f",
                "id": 1,
                "isERC1155": false,
                "isERC721": false,
                "isReverted": false,
                "order": 1,
                "to": "0x442931c2de01bf5d9b9b1761a205f607f2de324a",
                "token": "0xeeeeeeeeeeeeeeeeeeeeeeeeeeeeeeeeeeeeeeee"
            },
            {
                "amount": "24.97745169",
                "from": "0x442931c2de01bf5d9b9b1761a205f607f2de324a",
                "id": 2,
                "isERC1155": false,
                "isERC721": false,
                "isReverted": false,
                "order": 2,
                "to": "0x43647239ede197099b57bf72d0373f8049acfb0f",
                "token": "0x43647239ede197099b57bf72d0373f8049acfb0f"
            },
            {
                "amount": "0.50330789375217901",
                "from": "0x442931c2de01bf5d9b9b1761a205f607f2de324a",
                "id": 3,
                "isERC1155": false,
                "isERC721": false,
                "isReverted": false,
                "order": 3,
                "to": "0x39104885cfe1ca0e2cacd0edd2821d365a078534",
                "token": "0xeeeeeeeeeeeeeeeeeeeeeeeeeeeeeeeeeeeeeeee"
            }
        ],
        "token_infos": [
            {
                "address": "0x43647239ede197099b57bf72d0373f8049acfb0f",
                "decimals": 8
            },
            {
                "address": "0xc02aaa39b223fe8d0a0e5c4f27ead9083c756cc2",
                "decimals": 18
            },
            {
                "address": "0xeeeeeeeeeeeeeeeeeeeeeeeeeeeeeeeeeeeeeeee",
                "decimals": 18
            }
        ]
    },
    "address_label": {
        "labels": [
            {
                "address": "0xeeeeeeeeeeeeeeeeeeeeeeeeeeeeeeeeeeeeeeee",
                "label": "Ether"
            },
            {
                "address": "0x8f68f4810cce3194b6cb6f3d50fa58c2c9bdd1d5",
                "label": "0x8f68_Vyper_contract"
            },
            {
                "address": "0x895879b2c1fbb6ccfcd101f2d3f3c76363664f92",
                "label": "Cozy Finance: Comptroller"
            },
            {
                "address": "0x43647239ede197099b57bf72d0373f8049acfb0f",
                "label": "Cozy-ETH-3-Yearn Curve 3Crypto Tri... (Cozy-ETH-3)"
            },
            {
                "address": "0xbc4f34c71c95ff8c47bbf54e6b221fdb98aced5c",
                "label": "Yearn Curve 3Crypto Trigger (yCRV-3CRY...)"
            },
            {
                "address": "0x0000000000000000000000000000000000000001",
                "label": "Precompiled"
            },
            {
                "address": "0x0000000000000000000000000000000000000004",
                "label": "Precompiled"
            },
            {
                "address": "0xc02aaa39b223fe8d0a0e5c4f27ead9083c756cc2",
                "label": "Wrapped Ether (WETH)"
            },
            {
                "address": "0xd51a44d3fae010294c616388b506acda1bfaae46",
                "label": "Curve.fi: USDT/WBTC/WETH Pool"
            },
            {
                "address": "0x9c13e225ae007731caa49fd17a41379ab1a489f4",
                "label": "0x9c13_Vyper_contract"
            },
            {
                "address": "0xdac17f958d2ee523a2206206994597c13d831ec7",
                "label": "Tether: USDT Stablecoin"
            },
            {
                "address": "0xe537b5cc158eb71037d4125bdd7538421981e6aa",
                "label": "yearn: yvCurve-3Crypto Token"
            },
            {
                "address": "0x2260fac5e5542a773aa44fbcfedf7c193bc2c599",
                "label": "Wrapped BTC: WBTC Token"
            },
            {
                "address": "0xc4ad29ba4b3c580e6d59105fff484999997675ff",
                "label": "Curve.fi USD-BTC-ETH (crv3crypto)"
            },
            {
                "address": "0x442931c2de01bf5d9b9b1761a205f607f2de324a",
                "label": "DSProxy"
            },
            {
                "address": "0x6dd912974769d2ac2a6b676a6ace52fc0bfcb41a",
                "label": "JumpRateModelV2"
            },
            {
                "address": "0x0000000000000000000000000000000000000002",
                "label": "Precompiled"
            },
            {
                "address": "0x0000000000000000000000000000000000000003",
                "label": "Precompiled"
            }
        ]
    },
    "trace": {
        "accountLabels": null,
        "dataMap": {
            "-1": {
                "invocation": {
                    "address": "0x39104885cfe1ca0e2cacd0edd2821d365a078534",
                    "callData": "",
                    "decodedMethod": null,
                    "errorInfo": "",
                    "fromAddress": "",
                    "gasUsed": 0,
                    "id": -1,
                    "methodDecoded": false,
                    "operation": "",
                    "output": "",
                    "revert": false,
                    "revertMessage": "",
                    "selector": "",
                    "status": false,
                    "value": ""
                },
                "nodeType": 0
            },
            "0": {
                "invocation": {
                    "address": "0x442931c2de01bf5d9b9b1761a205f607f2de324a",
                    "callData": "0x0000000000000000000000006d5ba3b95f0379c7073f06f230277ea50ec3f8eb00000000000000000000000000000000000000000000000000000000000000400000000000000000000000000000000000000000000000000000000000000264ec17afc9000000000000000000000000000000000000000000000000000000000000002000000000000000000000000000000000000000000000000000000000000000020000000000000000000000000000000000000000000000000000000000000040000000000000000000000000000000000000000000000000000000000000012000000000000000000000000043647239ede197099b57bf72d0373f8049acfb0f0000000000000000000000000000000000000000000000000000000000000080000000000000000000000000000000000000000000000000000000000000000000000000000000000000000000000000000000000000000000000000000000010000000000000000000000000000000000000000000000000000000000000024db006a750000000000000000000000000000000000000000000000000000000094e0911100000000000000000000000000000000000000000000000000000000000000000000000000000000de1ede1ede1ede1ede1ede1ede1ede1ede1ede1e00000000000000000000000000000000000000000000000000000000000000800000000000000000000000000000000000000000000000000000000000000000000000000000000000000000000000000000000000000000000000000000000100000000000000000000000000000000000000000000000000000000000000444b14e003000000000000000000000000eeeeeeeeeeeeeeeeeeeeeeeeeeeeeeeeeeeeeeee00000000000000000000000039104885cfe1ca0e2cacd0edd2821d365a0785340000000000000000000000000000000000000000000000000000000000000000000000000000000000000000000000000000000000000000",
                    "decodedMethod": {
                        "callParams": [
                            {
                                "name": "_target",
                                "type": "address",
                                "value": "0x6d5ba3b95f0379c7073f06f230277ea50ec3f8eb"
                            },
                            {
                                "name": "_data",
                                "type": "bytes",
                                "value": "0xec17afc9000000000000000000000000000000000000000000000000000000000000002000000000000000000000000000000000000000000000000000000000000000020000000000000000000000000000000000000000000000000000000000000040000000000000000000000000000000000000000000000000000000000000012000000000000000000000000043647239ede197099b57bf72d0373f8049acfb0f0000000000000000000000000000000000000000000000000000000000000080000000000000000000000000000000000000000000000000000000000000000000000000000000000000000000000000000000000000000000000000000000010000000000000000000000000000000000000000000000000000000000000024db006a750000000000000000000000000000000000000000000000000000000094e0911100000000000000000000000000000000000000000000000000000000000000000000000000000000de1ede1ede1ede1ede1ede1ede1ede1ede1ede1e00000000000000000000000000000000000000000000000000000000000000800000000000000000000000000000000000000000000000000000000000000000000000000000000000000000000000000000000000000000000000000000000100000000000000000000000000000000000000000000000000000000000000444b14e003000000000000000000000000eeeeeeeeeeeeeeeeeeeeeeeeeeeeeeeeeeeeeeee00000000000000000000000039104885cfe1ca0e2cacd0edd2821d365a07853400000000000000000000000000000000000000000000000000000000"
                            }
                        ],
                        "constructorArguments": "",
                        "name": "execute",
                        "returnParams": [
                            {
                                "name": "response",
                                "type": "bytes32",
                                "value": "0x0000000000000000000000000000000000000000000000000000000000000020"
                            }
                        ],
                        "signature": "execute(address,bytes)"
                    },
                    "errorInfo": "",
                    "fromAddress": "0x39104885cfe1ca0e2cacd0edd2821d365a078534",
                    "gasUsed": 261232,
                    "id": 0,
                    "methodDecoded": true,
                    "operation": "CALL",
                    "output": "0x0000000000000000000000000000000000000000000000000000000000000020",
                    "revert": false,
                    "revertMessage": "",
                    "selector": "0x1cff79cd",
                    "status": true,
                    "value": "0"
                },
                "nodeType": 0
            },
            "1": {
                "event": {
                    "contract": "0x442931c2de01bf5d9b9b1761a205f607f2de324a",
                    "decodedLog": null,
                    "id": 1,
                    "logData": "0x0000000000000000000000000000000000000000000000000000000000000000000000000000000000000000000000000000000000000000000000000000004000000000000000000000000000000000000000000000000000000000000002e41cff79cd0000000000000000000000006d5ba3b95f0379c7073f06f230277ea50ec3f8eb00000000000000000000000000000000000000000000000000000000000000400000000000000000000000000000000000000000000000000000000000000264ec17afc9000000000000000000000000000000000000000000000000000000000000002000000000000000000000000000000000000000000000000000000000000000020000000000000000000000000000000000000000000000000000000000000040000000000000000000000000000000000000000000000000000000000000012000000000000000000000000043647239ede197099b57bf72d0373f8049acfb0f0000000000000000000000000000000000000000000000000000000000000080000000000000000000000000000000000000000000000000000000000000000000000000000000000000000000000000000000000000000000000000000000010000000000000000000000000000000000000000000000000000000000000024db006a750000000000000000000000000000000000000000000000000000000094e0911100000000000000000000000000000000000000000000000000000000000000000000000000000000de1ede1ede1ede1ede1ede1ede1ede1ede1ede1e00000000000000000000000000000000000000000000000000000000000000800000000000000000000000000000000000000000000000000000000000000000000000000000000000000000000000000000000000000000000000000000000100000000000000000000000000000000000000000000000000000000000000444b14e003000000000000000000000000eeeeeeeeeeeeeeeeeeeeeeeeeeeeeeeeeeeeeeee00000000000000000000000039104885cfe1ca0e2cacd0edd2821d365a0785340000000000000000000000000000000000000000000000000000000000000000000000000000000000000000000000000000000000000000",
                    "logDecoded": false,
                    "operation": "EVENT",
                    "revert": false,
                    "status": true,
                    "topics": [
                        "0x1cff79cd00000000000000000000000000000000000000000000000000000000",
                        "0x00000000000000000000000039104885cfe1ca0e2cacd0edd2821d365a078534",
                        "0x0000000000000000000000006d5ba3b95f0379c7073f06f230277ea50ec3f8eb",
                        "0x0000000000000000000000000000000000000000000000000000000000000040"
                    ]
                },
                "nodeType": 1
            },
            "10": {
                "invocation": {
                    "address": "0xd51a44d3fae010294c616388b506acda1bfaae46",
                    "callData": "0x",
                    "decodedMethod": {
                        "callParams": [],
                        "constructorArguments": "",
                        "name": "get_virtual_price",
                        "returnParams": [
                            {
                                "name": "",
                                "type": "uint256",
                                "value": "1,027,497,365,108,341,803"
                            }
                        ],
                        "signature": "get_virtual_price()"
                    },
                    "errorInfo": "",
                    "fromAddress": "0xbc4f34c71c95ff8c47bbf54e6b221fdb98aced5c",
                    "gasUsed": 35154,
                    "id": 10,
                    "methodDecoded": true,
                    "operation": "STATICCALL",
                    "output": "0x0000000000000000000000000000000000000000000000000e426768deeebc2b",
                    "revert": false,
                    "revertMessage": "",
                    "selector": "0xbb7b8b80",
                    "status": true,
                    "value": "0"
                },
                "nodeType": 0
            },
            "11": {
                "invocation": {
                    "address": "0x8f68f4810cce3194b6cb6f3d50fa58c2c9bdd1d5",
                    "callData": "0x0000000000000000000000000000000000000000002bddd3d74d1976394f58810000000000000000000000000000000000000000000000a089d9d0a14a2f944d00000000000000000000000000000000000000000000081be5a74cfbc2855ad4",
                    "decodedMethod": {
                        "callParams": [
                            {
                                "name": "_x",
                                "type": "uint256[3]",
                                "value": [
                                    "53,031,361,013,227,085,739,546,753",
                                    "2,961,412,251,637,823,542,349",
                                    "38,293,542,232,947,299,801,812"
                                ]
                            }
                        ],
                        "constructorArguments": "",
                        "name": "geometric_mean",
                        "returnParams": [
                            {
                                "name": "",
                                "type": "uint256",
                                "value": "181,852,410,069,708,653,736,761"
                            }
                        ],
                        "signature": "geometric_mean(uint256[3])"
                    },
                    "errorInfo": "",
                    "fromAddress": "0xd51a44d3fae010294c616388b506acda1bfaae46",
                    "gasUsed": 24102,
                    "id": 11,
                    "methodDecoded": true,
                    "operation": "STATICCALL",
                    "output": "0x0000000000000000000000000000000000000000000026823d28c709b5643339",
                    "revert": false,
                    "revertMessage": "",
                    "selector": "0xbad1dc26",
                    "status": true,
                    "value": "0"
                },
                "nodeType": 0
            },
            "12": {
                "invocation": {
                    "address": "0xc4ad29ba4b3c580e6d59105fff484999997675ff",
                    "callData": "0x",
                    "decodedMethod": {
                        "callParams": [],
                        "constructorArguments": "",
                        "name": "totalSupply",
                        "returnParams": [
                            {
                                "name": "",
                                "type": "uint256",
                                "value": "176,985,767,793,704,946,777,820"
                            }
                        ],
                        "signature": "totalSupply()"
                    },
                    "errorInfo": "",
                    "fromAddress": "0xd51a44d3fae010294c616388b506acda1bfaae46",
                    "gasUsed": 2598,
                    "id": 12,
                    "methodDecoded": true,
                    "operation": "STATICCALL",
                    "output": "0x00000000000000000000000000000000000000000000257a6aee3196a1e63edc",
                    "revert": false,
                    "revertMessage": "",
                    "selector": "0x18160ddd",
                    "status": true,
                    "value": "0"
                },
                "nodeType": 0
            },
            "13": {
                "invocation": {
                    "address": "0xd51a44d3fae010294c616388b506acda1bfaae46",
                    "callData": "0x0000000000000000000000000000000000000000000000000000000000000000",
                    "decodedMethod": {
                        "callParams": [
                            {
                                "name": "i",
                                "type": "uint256",
                                "value": "0"
                            }
                        ],
                        "constructorArguments": "",
                        "name": "balances",
                        "returnParams": [
                            {
                                "name": "",
                                "type": "uint256",
                                "value": "53,664,870,473,151"
                            }
                        ],
                        "signature": "balances(uint256)"
                    },
                    "errorInfo": "",
                    "fromAddress": "0xbc4f34c71c95ff8c47bbf54e6b221fdb98aced5c",
                    "gasUsed": 3615,
                    "id": 13,
                    "methodDecoded": true,
                    "operation": "STATICCALL",
                    "output": "0x000000000000000000000000000000000000000000000000000030ced38a9dbf",
                    "revert": false,
                    "revertMessage": "",
                    "selector": "0x4903b0d1",
                    "status": true,
                    "value": "0"
                },
                "nodeType": 0
            },
            "14": {
                "invocation": {
                    "address": "0xdac17f958d2ee523a2206206994597c13d831ec7",
                    "callData": "0x000000000000000000000000d51a44d3fae010294c616388b506acda1bfaae46",
                    "decodedMethod": {
                        "callParams": [
                            {
                                "name": "who",
                                "type": "address",
                                "value": "0xd51a44d3fae010294c616388b506acda1bfaae46"
                            }
                        ],
                        "constructorArguments": "",
                        "name": "balanceOf",
                        "returnParams": [
                            {
                                "decimalAvailable": true,
                                "name": "",
                                "type": "uint256",
                                "value": "53,664,870,473,151"
                            }
                        ],
                        "signature": "balanceOf(address)"
                    },
                    "errorInfo": "",
                    "fromAddress": "0xbc4f34c71c95ff8c47bbf54e6b221fdb98aced5c",
                    "gasUsed": 5031,
                    "id": 14,
                    "methodDecoded": true,
                    "operation": "STATICCALL",
                    "output": "0x000000000000000000000000000000000000000000000000000030ced38a9dbf",
                    "revert": false,
                    "revertMessage": "",
                    "selector": "0x70a08231",
                    "status": true,
                    "value": "0"
                },
                "nodeType": 0
            },
            "15": {
                "invocation": {
                    "address": "0xd51a44d3fae010294c616388b506acda1bfaae46",
                    "callData": "0x0000000000000000000000000000000000000000000000000000000000000001",
                    "decodedMethod": {
                        "callParams": [
                            {
                                "name": "i",
                                "type": "uint256",
                                "value": "1"
                            }
                        ],
                        "constructorArguments": "",
                        "name": "balances",
                        "returnParams": [
                            {
                                "name": "",
                                "type": "uint256",
                                "value": "293,356,310,420"
                            }
                        ],
                        "signature": "balances(uint256)"
                    },
                    "errorInfo": "",
                    "fromAddress": "0xbc4f34c71c95ff8c47bbf54e6b221fdb98aced5c",
                    "gasUsed": 3615,
                    "id": 15,
                    "methodDecoded": true,
                    "operation": "STATICCALL",
                    "output": "0x000000000000000000000000000000000000000000000000000000444d660f94",
                    "revert": false,
                    "revertMessage": "",
                    "selector": "0x4903b0d1",
                    "status": true,
                    "value": "0"
                },
                "nodeType": 0
            },
            "16": {
                "invocation": {
                    "address": "0x2260fac5e5542a773aa44fbcfedf7c193bc2c599",
                    "callData": "0x000000000000000000000000d51a44d3fae010294c616388b506acda1bfaae46",
                    "decodedMethod": {
                        "callParams": [
                            {
                                "name": "_owner",
                                "type": "address",
                                "value": "0xd51a44d3fae010294c616388b506acda1bfaae46"
                            }
                        ],
                        "constructorArguments": "",
                        "name": "balanceOf",
                        "returnParams": [
                            {
                                "decimalAvailable": true,
                                "name": "",
                                "type": "uint256",
                                "value": "293,356,310,420"
                            }
                        ],
                        "signature": "balanceOf(address)"
                    },
                    "errorInfo": "",
                    "fromAddress": "0xbc4f34c71c95ff8c47bbf54e6b221fdb98aced5c",
                    "gasUsed": 2795,
                    "id": 16,
                    "methodDecoded": true,
                    "operation": "STATICCALL",
                    "output": "0x000000000000000000000000000000000000000000000000000000444d660f94",
                    "revert": false,
                    "revertMessage": "",
                    "selector": "0x70a08231",
                    "status": true,
                    "value": "0"
                },
                "nodeType": 0
            },
            "17": {
                "invocation": {
                    "address": "0xd51a44d3fae010294c616388b506acda1bfaae46",
                    "callData": "0x0000000000000000000000000000000000000000000000000000000000000002",
                    "decodedMethod": {
                        "callParams": [
                            {
                                "name": "i",
                                "type": "uint256",
                                "value": "2"
                            }
                        ],
                        "constructorArguments": "",
                        "name": "balances",
                        "returnParams": [
                            {
                                "name": "",
                                "type": "uint256",
                                "value": "38,198,183,373,624,886,348,524"
                            }
                        ],
                        "signature": "balances(uint256)"
                    },
                    "errorInfo": "",
                    "fromAddress": "0xbc4f34c71c95ff8c47bbf54e6b221fdb98aced5c",
                    "gasUsed": 3615,
                    "id": 17,
                    "methodDecoded": true,
                    "operation": "STATICCALL",
                    "output": "0x000000000000000000000000000000000000000000000816ba4893a99f9ecaec",
                    "revert": false,
                    "revertMessage": "",
                    "selector": "0x4903b0d1",
                    "status": true,
                    "value": "0"
                },
                "nodeType": 0
            },
            "18": {
                "invocation": {
                    "address": "0xc02aaa39b223fe8d0a0e5c4f27ead9083c756cc2",
                    "callData": "0x000000000000000000000000d51a44d3fae010294c616388b506acda1bfaae46",
                    "decodedMethod": {
                        "callParams": [
                            {
                                "name": "",
                                "type": "address",
                                "value": "0xd51a44d3fae010294c616388b506acda1bfaae46"
                            }
                        ],
                        "constructorArguments": "",
                        "name": "balanceOf",
                        "returnParams": [
                            {
                                "decimalAvailable": true,
                                "name": "",
                                "type": "uint256",
                                "value": "38,198,183,373,624,886,348,524"
                            }
                        ],
                        "signature": "balanceOf(address)"
                    },
                    "errorInfo": "",
                    "fromAddress": "0xbc4f34c71c95ff8c47bbf54e6b221fdb98aced5c",
                    "gasUsed": 2534,
                    "id": 18,
                    "methodDecoded": true,
                    "operation": "STATICCALL",
                    "output": "0x000000000000000000000000000000000000000000000816ba4893a99f9ecaec",
                    "revert": false,
                    "revertMessage": "",
                    "selector": "0x70a08231",
                    "status": true,
                    "value": "0"
                },
                "nodeType": 0
            },
            "19": {
                "invocation": {
                    "address": "0x895879b2c1fbb6ccfcd101f2d3f3c76363664f92",
                    "callData": "0x00000000000000000000000043647239ede197099b57bf72d0373f8049acfb0f000000000000000000000000442931c2de01bf5d9b9b1761a205f607f2de324a0000000000000000000000000000000000000000000000000000000094e09111",
                    "decodedMethod": {
                        "callParams": [
                            {
                                "name": "cToken",
                                "type": "address",
                                "value": "0x43647239ede197099b57bf72d0373f8049acfb0f"
                            },
                            {
                                "name": "redeemer",
                                "type": "address",
                                "value": "0x442931c2de01bf5d9b9b1761a205f607f2de324a"
                            },
                            {
                                "name": "redeemTokens",
                                "type": "uint256",
                                "value": "2,497,745,169"
                            }
                        ],
                        "constructorArguments": "",
                        "name": "redeemAllowed",
                        "returnParams": [
                            {
                                "name": "",
                                "type": "uint256",
                                "value": "0"
                            }
                        ],
                        "signature": "redeemAllowed(address,address,uint256)"
                    },
                    "errorInfo": "",
                    "fromAddress": "0x43647239ede197099b57bf72d0373f8049acfb0f",
                    "gasUsed": 26434,
                    "id": 19,
                    "methodDecoded": true,
                    "operation": "CALL",
                    "output": "0x0000000000000000000000000000000000000000000000000000000000000000",
                    "revert": false,
                    "revertMessage": "",
                    "selector": "0xeabe7d91",
                    "status": true,
                    "value": "0"
                },
                "nodeType": 0
            },
            "2": {
                "invocation": {
                    "address": "0x6d5ba3b95f0379c7073f06f230277ea50ec3f8eb",
                    "callData": "0x000000000000000000000000000000000000000000000000000000000000002000000000000000000000000000000000000000000000000000000000000000020000000000000000000000000000000000000000000000000000000000000040000000000000000000000000000000000000000000000000000000000000012000000000000000000000000043647239ede197099b57bf72d0373f8049acfb0f0000000000000000000000000000000000000000000000000000000000000080000000000000000000000000000000000000000000000000000000000000000000000000000000000000000000000000000000000000000000000000000000010000000000000000000000000000000000000000000000000000000000000024db006a750000000000000000000000000000000000000000000000000000000094e0911100000000000000000000000000000000000000000000000000000000000000000000000000000000de1ede1ede1ede1ede1ede1ede1ede1ede1ede1e00000000000000000000000000000000000000000000000000000000000000800000000000000000000000000000000000000000000000000000000000000000000000000000000000000000000000000000000000000000000000000000000100000000000000000000000000000000000000000000000000000000000000444b14e003000000000000000000000000eeeeeeeeeeeeeeeeeeeeeeeeeeeeeeeeeeeeeeee00000000000000000000000039104885cfe1ca0e2cacd0edd2821d365a07853400000000000000000000000000000000000000000000000000000000",
                    "decodedMethod": null,
                    "errorInfo": "",
                    "fromAddress": "0x442931c2de01bf5d9b9b1761a205f607f2de324a",
                    "gasUsed": 228310,
                    "id": 2,
                    "methodDecoded": false,
                    "operation": "DELEGATECALL",
                    "output": "0x0000000000000000000000000000000000000000000000000000000000000020000000000000000000000000000000000000000000000000000000000000000200000000000000000000000000000000000000000000000000000000000000400000000000000000000000000000000000000000000000000000000000000080000000000000000000000000000000000000000000000000000000000000002000000000000000000000000000000000000000000000000000000000000000000000000000000000000000000000000000000000000000000000000000000000",
                    "revert": false,
                    "revertMessage": "",
                    "selector": "0xec17afc9",
                    "status": true,
                    "value": "0"
                },
                "nodeType": 0
            },
            "20": {
                "invocation": {
                    "address": "0x43647239ede197099b57bf72d0373f8049acfb0f",
                    "callData": "0x000000000000000000000000442931c2de01bf5d9b9b1761a205f607f2de324a",
                    "decodedMethod": {
                        "callParams": [
                            {
                                "name": "account",
                                "type": "address",
                                "value": "0x442931c2de01bf5d9b9b1761a205f607f2de324a"
                            }
                        ],
                        "constructorArguments": "",
                        "name": "balanceOf",
                        "returnParams": [
                            {
                                "decimalAvailable": true,
                                "name": "",
                                "type": "uint256",
                                "value": "2,497,745,169"
                            }
                        ],
                        "signature": "balanceOf(address)"
                    },
                    "errorInfo": "",
                    "fromAddress": "0x895879b2c1fbb6ccfcd101f2d3f3c76363664f92",
                    "gasUsed": 2838,
                    "id": 20,
                    "methodDecoded": true,
                    "operation": "STATICCALL",
                    "output": "0x0000000000000000000000000000000000000000000000000000000094e09111",
                    "revert": false,
                    "revertMessage": "",
                    "selector": "0x70a08231",
                    "status": true,
                    "value": "0"
                },
                "nodeType": 0
            },
            "21": {
                "event": {
                    "contract": "0x895879b2c1fbb6ccfcd101f2d3f3c76363664f92",
                    "decodedLog": null,
                    "id": 21,
                    "logData": "0x00000000000000000000000000000000000000000000000000000000000000000000000000000000000000000000000000000000000000000000000000000000",
                    "logDecoded": false,
                    "operation": "EVENT",
                    "revert": false,
                    "status": true,
                    "topics": [
                        "0xd0f77573853eaa400d7b8ec3f72a5b210c6c833dc52560e3f372216b3be677eb",
                        "0x00000000000000000000000043647239ede197099b57bf72d0373f8049acfb0f",
                        "0x000000000000000000000000442931c2de01bf5d9b9b1761a205f607f2de324a"
                    ]
                },
                "nodeType": 1
            },
            "22": {
                "invocation": {
                    "address": "0x442931c2de01bf5d9b9b1761a205f607f2de324a",
                    "callData": "0x",
                    "decodedMethod": null,
                    "errorInfo": "",
                    "fromAddress": "0x43647239ede197099b57bf72d0373f8049acfb0f",
                    "gasUsed": 40,
                    "id": 22,
                    "methodDecoded": false,
                    "operation": "CALL",
                    "output": "",
                    "revert": false,
                    "revertMessage": "",
                    "selector": "fallback",
                    "status": true,
                    "value": "0.50330789375217901"
                },
                "nodeType": 0
            },
            "23": {
                "event": {
                    "contract": "0x43647239ede197099b57bf72d0373f8049acfb0f",
                    "decodedLog": {
                        "name": "Transfer",
                        "params": [
                            {
                                "name": "from",
                                "type": "address",
                                "value": "0x442931c2de01bf5d9b9b1761a205f607f2de324a"
                            },
                            {
                                "name": "to",
                                "type": "address",
                                "value": "0x43647239ede197099b57bf72d0373f8049acfb0f"
                            },
                            {
                                "decimalAvailable": true,
                                "name": "value",
                                "type": "uint256",
                                "value": "2,497,745,169"
                            }
                        ],
                        "signature": "Transfer(address,address,uint256)"
                    },
                    "id": 23,
                    "logData": "0x0000000000000000000000000000000000000000000000000000000094e09111",
                    "logDecoded": true,
                    "operation": "EVENT",
                    "revert": false,
                    "status": true,
                    "topics": [
                        "0xddf252ad1be2c89b69c2b068fc378daa952ba7f163c4a11628f55a4df523b3ef",
                        "0x000000000000000000000000442931c2de01bf5d9b9b1761a205f607f2de324a",
                        "0x00000000000000000000000043647239ede197099b57bf72d0373f8049acfb0f"
                    ]
                },
                "nodeType": 1
            },
            "24": {
                "event": {
                    "contract": "0x43647239ede197099b57bf72d0373f8049acfb0f",
                    "decodedLog": {
                        "name": "Redeem",
                        "params": [
                            {
                                "name": "redeemer",
                                "type": "address",
                                "value": "0x442931c2de01bf5d9b9b1761a205f607f2de324a"
                            },
                            {
                                "name": "redeemAmount",
                                "type": "uint256",
                                "value": "503,307,893,752,179,010"
                            },
                            {
                                "name": "redeemTokens",
                                "type": "uint256",
                                "value": "2,497,745,169"
                            }
                        ],
                        "signature": "Redeem(address,uint256,uint256)"
                    },
                    "id": 24,
                    "logData": "0x000000000000000000000000442931c2de01bf5d9b9b1761a205f607f2de324a00000000000000000000000000000000000000000000000006fc1bdcdbbfa9420000000000000000000000000000000000000000000000000000000094e09111",
                    "logDecoded": true,
                    "operation": "EVENT",
                    "revert": false,
                    "status": true,
                    "topics": [
                        "0xe5b754fb1abb7f01b499791d0b820ae3b6af3424ac1c59768edb53f4ec31a929"
                    ]
                },
                "nodeType": 1
            },
            "25": {
                "invocation": {
                    "address": "0x6d5ba3b95f0379c7073f06f230277ea50ec3f8eb",
                    "callData": "0x000000000000000000000000eeeeeeeeeeeeeeeeeeeeeeeeeeeeeeeeeeeeeeee00000000000000000000000039104885cfe1ca0e2cacd0edd2821d365a078534",
                    "decodedMethod": {
                        "callParams": [
                            {
                                "name": "to",
                                "type": "address",
                                "value": "0xeeeeeeeeeeeeeeeeeeeeeeeeeeeeeeeeeeeeeeee"
                            },
                            {
                                "name": "token",
                                "type": "address",
                                "value": "0x39104885cfe1ca0e2cacd0edd2821d365a078534"
                            }
                        ],
                        "constructorArguments": "",
                        "name": "transferAll",
                        "returnParams": [],
                        "signature": "transferAll(address,address)"
                    },
                    "errorInfo": "",
                    "fromAddress": "0x442931c2de01bf5d9b9b1761a205f607f2de324a",
                    "gasUsed": 7401,
                    "id": 25,
                    "methodDecoded": true,
                    "operation": "DELEGATECALL",
                    "output": "",
                    "revert": false,
                    "revertMessage": "",
                    "selector": "0x4b14e003",
                    "status": true,
                    "value": "0"
                },
                "nodeType": 0
            },
            "26": {
                "invocation": {
                    "address": "0x39104885cfe1ca0e2cacd0edd2821d365a078534",
                    "callData": "0x",
                    "decodedMethod": null,
                    "errorInfo": "",
                    "fromAddress": "0x442931c2de01bf5d9b9b1761a205f607f2de324a",
                    "gasUsed": 0,
                    "id": 26,
                    "methodDecoded": false,
                    "operation": "CALL",
                    "output": "",
                    "revert": false,
                    "revertMessage": "",
                    "selector": "fallback",
                    "status": true,
                    "value": "0.50330789375217901"
                },
                "nodeType": 0
            },
            "3": {
                "invocation": {
                    "address": "0x43647239ede197099b57bf72d0373f8049acfb0f",
                    "callData": "0x0000000000000000000000000000000000000000000000000000000094e09111",
                    "decodedMethod": {
                        "callParams": [
                            {
                                "name": "amount",
                                "type": "uint256",
                                "value": "2,497,745,169"
                            }
                        ],
                        "constructorArguments": "",
                        "name": "redeem",
                        "returnParams": [],
                        "signature": "redeem(uint256)"
                    },
                    "errorInfo": "",
                    "fromAddress": "0x442931c2de01bf5d9b9b1761a205f607f2de324a",
                    "gasUsed": 212606,
                    "id": 3,
                    "methodDecoded": true,
                    "operation": "CALL",
                    "output": "0x0000000000000000000000000000000000000000000000000000000000000000",
                    "revert": false,
                    "revertMessage": "",
                    "selector": "0xdb006a75",
                    "status": true,
                    "value": "0"
                },
                "nodeType": 0
            },
            "4": {
                "invocation": {
                    "address": "0x6dd912974769d2ac2a6b676a6ace52fc0bfcb41a",
                    "callData": "0x0000000000000000000000000000000000000000000000011c7153caba0a2a720000000000000000000000000000000000000000000000001d75e50db73af4cc0000000000000000000000000000000000000000000000000000000000000000",
                    "decodedMethod": {
                        "callParams": [
                            {
                                "name": "cash",
                                "type": "uint256",
                                "value": "20,496,255,509,309,565,554"
                            },
                            {
                                "name": "borrows",
                                "type": "uint256",
                                "value": "2,122,854,646,446,486,732"
                            },
                            {
                                "name": "reserves",
                                "type": "uint256",
                                "value": "0"
                            }
                        ],
                        "constructorArguments": "",
                        "name": "getBorrowRate",
                        "returnParams": [
                            {
                                "name": "",
                                "type": "uint256",
                                "value": "18,441,044,685"
                            }
                        ],
                        "signature": "getBorrowRate(uint256,uint256,uint256)"
                    },
                    "errorInfo": "",
                    "fromAddress": "0x43647239ede197099b57bf72d0373f8049acfb0f",
                    "gasUsed": 7839,
                    "id": 4,
                    "methodDecoded": true,
                    "operation": "STATICCALL",
                    "output": "0x000000000000000000000000000000000000000000000000000000044b2c02cd",
                    "revert": false,
                    "revertMessage": "",
                    "selector": "0x15f24053",
                    "status": true,
                    "value": "0"
                },
                "nodeType": 0
            },
            "5": {
                "event": {
                    "contract": "0x43647239ede197099b57bf72d0373f8049acfb0f",
                    "decodedLog": {
                        "name": "AccrueInterest",
                        "params": [
                            {
                                "name": "cashPrior",
                                "type": "uint256",
                                "value": "20,496,255,509,309,565,554"
                            },
                            {
                                "name": "interestAccumulated",
                                "type": "uint256",
                                "value": "782,953,147,897"
                            },
                            {
                                "name": "borrowIndex",
                                "type": "uint256",
                                "value": "1,064,277,197,155,360,225"
                            },
                            {
                                "name": "totalBorrows",
                                "type": "uint256",
                                "value": "2,122,855,429,399,634,629"
                            }
                        ],
                        "signature": "AccrueInterest(uint256,uint256,uint256,uint256)"
                    },
                    "id": 5,
                    "logData": "0x0000000000000000000000000000000000000000000000011c7153caba0a2a72000000000000000000000000000000000000000000000000000000b64ba4edf90000000000000000000000000000000000000000000000000ec51278d6fe5de10000000000000000000000000000000000000000000000001d75e5c402dfe2c5",
                    "logDecoded": true,
                    "operation": "EVENT",
                    "revert": false,
                    "status": true,
                    "topics": [
                        "0x4dec04e750ca11537cabcd8a9eab06494de08da3735bc8871cd41250e190bc04"
                    ]
                },
                "nodeType": 1
            },
            "6": {
                "invocation": {
                    "address": "0xbc4f34c71c95ff8c47bbf54e6b221fdb98aced5c",
                    "callData": "0x",
                    "decodedMethod": {
                        "callParams": [],
                        "constructorArguments": "",
                        "name": "checkAndToggleTrigger",
                        "returnParams": [
                            {
                                "name": "",
                                "type": "bool",
                                "value": false
                            }
                        ],
                        "signature": "checkAndToggleTrigger()"
                    },
                    "errorInfo": "",
                    "fromAddress": "0x43647239ede197099b57bf72d0373f8049acfb0f",
                    "gasUsed": 106234,
                    "id": 6,
                    "methodDecoded": true,
                    "operation": "CALL",
                    "output": "0x0000000000000000000000000000000000000000000000000000000000000000",
                    "revert": false,
                    "revertMessage": "",
                    "selector": "0xfad960a3",
                    "status": true,
                    "value": "0"
                },
                "nodeType": 0
            },
            "7": {
                "invocation": {
                    "address": "0xe537b5cc158eb71037d4125bdd7538421981e6aa",
                    "callData": "0x",
                    "decodedMethod": {
                        "callParams": [],
                        "constructorArguments": "",
                        "name": "pricePerShare",
                        "returnParams": [
                            {
                                "name": "",
                                "type": "uint256",
                                "value": "1,134,688,558,006,527,330"
                            }
                        ],
                        "signature": "pricePerShare()"
                    },
                    "errorInfo": "",
                    "fromAddress": "0xbc4f34c71c95ff8c47bbf54e6b221fdb98aced5c",
                    "gasUsed": 22646,
                    "id": 7,
                    "methodDecoded": true,
                    "operation": "STATICCALL",
                    "output": "0x0000000000000000000000000000000000000000000000000fbf393b4eade562",
                    "revert": false,
                    "revertMessage": "",
                    "selector": "0x99530b06",
                    "status": true,
                    "value": "0"
                },
                "nodeType": 0
            },
            "8": {
                "invocation": {
                    "address": "0x9c13e225ae007731caa49fd17a41379ab1a489f4",
                    "callData": "0x",
                    "decodedMethod": {
                        "callParams": [],
                        "constructorArguments": "",
                        "name": "pricePerShare",
                        "returnParams": [
                            {
                                "name": "",
                                "type": "uint256",
                                "value": "1,134,688,558,006,527,330"
                            }
                        ],
                        "signature": "pricePerShare()"
                    },
                    "errorInfo": "",
                    "fromAddress": "0xe537b5cc158eb71037d4125bdd7538421981e6aa",
                    "gasUsed": 19980,
                    "id": 8,
                    "methodDecoded": true,
                    "operation": "DELEGATECALL",
                    "output": "0x0000000000000000000000000000000000000000000000000fbf393b4eade562",
                    "revert": false,
                    "revertMessage": "",
                    "selector": "0x99530b06",
                    "status": true,
                    "value": "0"
                },
                "nodeType": 0
            },
            "9": {
                "invocation": {
                    "address": "0xc4ad29ba4b3c580e6d59105fff484999997675ff",
                    "callData": "0x000000000000000000000000e537b5cc158eb71037d4125bdd7538421981e6aa",
                    "decodedMethod": {
                        "callParams": [
                            {
                                "name": "account",
                                "type": "address",
                                "value": "0xe537b5cc158eb71037d4125bdd7538421981e6aa"
                            }
                        ],
                        "constructorArguments": "",
                        "name": "balanceOf",
                        "returnParams": [
                            {
                                "decimalAvailable": true,
                                "name": "",
                                "type": "uint256",
                                "value": "0"
                            }
                        ],
                        "signature": "balanceOf(address)"
                    },
                    "errorInfo": "",
                    "fromAddress": "0xe537b5cc158eb71037d4125bdd7538421981e6aa",
                    "gasUsed": 2659,
                    "id": 9,
                    "methodDecoded": true,
                    "operation": "STATICCALL",
                    "output": "0x0000000000000000000000000000000000000000000000000000000000000000",
                    "revert": false,
                    "revertMessage": "",
                    "selector": "0x70a08231",
                    "status": true,
                    "value": "0"
                },
                "nodeType": 0
            }
        },
        "gasFlame": [
            {
                "children": [
                    {
                        "children": [
                            {
                                "children": [],
                                "depth": 0,
                                "name": "Initial Gas",
                                "value": 25556
                            },
                            {
                                "children": [
                                    {
                                        "children": [
                                            {
                                                "children": [
                                                    {
                                                        "children": [],
                                                        "depth": 3,
                                                        "name": "getBorrowRate",
                                                        "value": 7839
                                                    },
                                                    {
                                                        "children": [
                                                            {
                                                                "children": [
                                                                    {
                                                                        "children": [
                                                                            {
                                                                                "children": [],
                                                                                "depth": 6,
                                                                                "name": "balanceOf",
                                                                                "value": 2659
                                                                            }
                                                                        ],
                                                                        "depth": 5,
                                                                        "name": "pricePerShare",
                                                                        "value": 19980
                                                                    }
                                                                ],
                                                                "depth": 4,
                                                                "name": "pricePerShare",
                                                                "value": 22646
                                                            },
                                                            {
                                                                "children": [
                                                                    {
                                                                        "children": [],
                                                                        "depth": 5,
                                                                        "name": "geometric_mean",
                                                                        "value": 24102
                                                                    },
                                                                    {
                                                                        "children": [],
                                                                        "depth": 5,
                                                                        "name": "totalSupply",
                                                                        "value": 2598
                                                                    }
                                                                ],
                                                                "depth": 4,
                                                                "name": "get_virtual_price",
                                                                "value": 35154
                                                            },
                                                            {
                                                                "children": [],
                                                                "depth": 4,
                                                                "name": "balances",
                                                                "value": 3615
                                                            },
                                                            {
                                                                "children": [],
                                                                "depth": 4,
                                                                "name": "balanceOf",
                                                                "value": 5031
                                                            },
                                                            {
                                                                "children": [],
                                                                "depth": 4,
                                                                "name": "balances",
                                                                "value": 3615
                                                            },
                                                            {
                                                                "children": [],
                                                                "depth": 4,
                                                                "name": "balanceOf",
                                                                "value": 2795
                                                            },
                                                            {
                                                                "children": [],
                                                                "depth": 4,
                                                                "name": "balances",
                                                                "value": 3615
                                                            },
                                                            {
                                                                "children": [],
                                                                "depth": 4,
                                                                "name": "balanceOf",
                                                                "value": 2534
                                                            }
                                                        ],
                                                        "depth": 3,
                                                        "name": "checkAndToggleTrigger",
                                                        "value": 106234
                                                    },
                                                    {
                                                        "children": [
                                                            {
                                                                "children": [],
                                                                "depth": 4,
                                                                "name": "balanceOf",
                                                                "value": 2838
                                                            }
                                                        ],
                                                        "depth": 3,
                                                        "name": "redeemAllowed",
                                                        "value": 26434
                                                    },
                                                    {
                                                        "children": [],
                                                        "depth": 3,
                                                        "name": "fallback",
                                                        "value": 40
                                                    }
                                                ],
                                                "depth": 2,
                                                "name": "redeem",
                                                "value": 212606
                                            },
                                            {
                                                "children": [
                                                    {
                                                        "children": [],
                                                        "depth": 3,
                                                        "name": "fallback",
                                                        "value": 0
                                                    }
                                                ],
                                                "depth": 2,
                                                "name": "transferAll",
                                                "value": 7401
                                            }
                                        ],
                                        "depth": 1,
                                        "name": "0xec17afc9",
                                        "value": 228310
                                    }
                                ],
                                "depth": 0,
                                "name": "Executed Gas",
                                "value": 243276
                            }
                        ],
                        "depth": -1,
                        "name": "Actual Gas Used",
                        "value": 261232
                    },
                    {
                        "children": [],
                        "depth": -1,
                        "name": "Refunded Gas",
                        "value": 7600
                    }
                ],
                "depth": -2,
                "name": "Total Gas",
                "value": 268832
            }
        ],
        "isConfirmed": true,
        "mainTrace": [
            {
                "children": [
                    {
                        "children": [
                            {
                                "children": [],
                                "depth": 1,
                                "id": 1,
                                "order": 1
                            },
                            {
                                "children": [
                                    {
                                        "children": [
                                            {
                                                "children": [],
                                                "depth": 3,
                                                "id": 4,
                                                "order": 4
                                            },
                                            {
                                                "children": [],
                                                "depth": 3,
                                                "id": 5,
                                                "order": 5
                                            },
                                            {
                                                "children": [
                                                    {
                                                        "children": [
                                                            {
                                                                "children": [
                                                                    {
                                                                        "children": [],
                                                                        "depth": 6,
                                                                        "id": 9,
                                                                        "order": 9
                                                                    }
                                                                ],
                                                                "depth": 5,
                                                                "id": 8,
                                                                "order": 8
                                                            }
                                                        ],
                                                        "depth": 4,
                                                        "id": 7,
                                                        "order": 7
                                                    },
                                                    {
                                                        "children": [
                                                            {
                                                                "children": [],
                                                                "depth": 5,
                                                                "id": 11,
                                                                "order": 11
                                                            },
                                                            {
                                                                "children": [],
                                                                "depth": 5,
                                                                "id": 12,
                                                                "order": 12
                                                            }
                                                        ],
                                                        "depth": 4,
                                                        "id": 10,
                                                        "order": 10
                                                    },
                                                    {
                                                        "children": [],
                                                        "depth": 4,
                                                        "id": 13,
                                                        "order": 13
                                                    },
                                                    {
                                                        "children": [],
                                                        "depth": 4,
                                                        "id": 14,
                                                        "order": 14
                                                    },
                                                    {
                                                        "children": [],
                                                        "depth": 4,
                                                        "id": 15,
                                                        "order": 15
                                                    },
                                                    {
                                                        "children": [],
                                                        "depth": 4,
                                                        "id": 16,
                                                        "order": 16
                                                    },
                                                    {
                                                        "children": [],
                                                        "depth": 4,
                                                        "id": 17,
                                                        "order": 17
                                                    },
                                                    {
                                                        "children": [],
                                                        "depth": 4,
                                                        "id": 18,
                                                        "order": 18
                                                    }
                                                ],
                                                "depth": 3,
                                                "id": 6,
                                                "order": 6
                                            },
                                            {
                                                "children": [
                                                    {
                                                        "children": [],
                                                        "depth": 4,
                                                        "id": 20,
                                                        "order": 20
                                                    },
                                                    {
                                                        "children": [],
                                                        "depth": 4,
                                                        "id": 21,
                                                        "order": 21
                                                    }
                                                ],
                                                "depth": 3,
                                                "id": 19,
                                                "order": 19
                                            },
                                            {
                                                "children": [],
                                                "depth": 3,
                                                "id": 22,
                                                "order": 22
                                            },
                                            {
                                                "children": [],
                                                "depth": 3,
                                                "id": 23,
                                                "order": 23
                                            },
                                            {
                                                "children": [],
                                                "depth": 3,
                                                "id": 24,
                                                "order": 24
                                            }
                                        ],
                                        "depth": 2,
                                        "id": 3,
                                        "order": 3
                                    },
                                    {
                                        "children": [
                                            {
                                                "children": [],
                                                "depth": 3,
                                                "id": 26,
                                                "order": 26
                                            }
                                        ],
                                        "depth": 2,
                                        "id": 25,
                                        "order": 25
                                    }
                                ],
                                "depth": 1,
                                "id": 2,
                                "order": 2
                            }
                        ],
                        "depth": 0,
                        "id": 0,
                        "order": 0
                    }
                ],
                "depth": -1,
                "id": -1,
                "order": -1
            }
        ],
        "mainTraceNodeCount": 27,
        "parentIdMap": {
            "0": -1,
            "1": 0,
            "10": 6,
            "11": 10,
            "12": 10,
            "13": 6,
            "14": 6,
            "15": 6,
            "16": 6,
            "17": 6,
            "18": 6,
            "19": 3,
            "2": 0,
            "20": 19,
            "21": 19,
            "22": 3,
            "23": 3,
            "24": 3,
            "25": 2,
            "26": 25,
            "3": 2,
            "4": 3,
            "5": 3,
            "6": 3,
            "7": 6,
            "8": 7,
            "9": 8
        },
        "tidyTrace": [
            {
                "children": [
                    {
                        "children": [
                            {
                                "children": [],
                                "depth": 1,
                                "id": 1,
                                "order": 1
                            },
                            {
                                "children": [
                                    {
                                        "children": [
                                            {
                                                "children": [],
                                                "depth": 3,
                                                "id": 5,
                                                "order": 5
                                            },
                                            {
                                                "children": [],
                                                "depth": 3,
                                                "id": 6,
                                                "order": 6
                                            },
                                            {
                                                "children": [
                                                    {
                                                        "children": [],
                                                        "depth": 4,
                                                        "id": 21,
                                                        "order": 21
                                                    }
                                                ],
                                                "depth": 3,
                                                "id": 19,
                                                "order": 19
                                            },
                                            {
                                                "children": [],
                                                "depth": 3,
                                                "id": 22,
                                                "order": 22
                                            },
                                            {
                                                "children": [],
                                                "depth": 3,
                                                "id": 23,
                                                "order": 23
                                            },
                                            {
                                                "children": [],
                                                "depth": 3,
                                                "id": 24,
                                                "order": 24
                                            }
                                        ],
                                        "depth": 2,
                                        "id": 3,
                                        "order": 3
                                    },
                                    {
                                        "children": [
                                            {
                                                "children": [],
                                                "depth": 3,
                                                "id": 26,
                                                "order": 26
                                            }
                                        ],
                                        "depth": 2,
                                        "id": 25,
                                        "order": 25
                                    }
                                ],
                                "depth": 1,
                                "id": 2,
                                "order": 2
                            }
                        ],
                        "depth": 0,
                        "id": 0,
                        "order": 0
                    }
                ],
                "depth": -1,
                "id": -1,
                "order": -1
            }
        ],
        "tidyTraceNodeCount": 13
    },
    "state_change": {
        "stateChanges": [
            {
                "address": "0x43647239ede197099b57bf72d0373f8049acfb0f",
                "erc": "",
                "slots": [
                    {
                        "current": "0x000000000000000000000000000000000000000000000000000000198dcc929d",
                        "key": "0x000000000000000000000000000000000000000000000000000000000000000e",
                        "prev": "0x0000000000000000000000000000000000000000000000000000001a22ad23ae"
                    },
                    {
                        "current": "0x0000000000000000000000000000000000000000000000000000000000000000",
                        "key": "0xa8101a870d11d5aca78ced18dd3685ea3dc636e89bcc3946bc8a801dc81db1f3",
                        "prev": "0x0000000000000000000000000000000000000000000000000000000094e09111"
                    },
                    {
                        "current": "0x0000000000000000000000000000000000000000000000000000000000fa18f1",
                        "key": "0x000000000000000000000000000000000000000000000000000000000000000a",
                        "prev": "0x0000000000000000000000000000000000000000000000000000000000fa18dd"
                    },
                    {
                        "current": "0x0000000000000000000000000000000000000000000000000ec51278d6fe5de1",
                        "key": "0x000000000000000000000000000000000000000000000000000000000000000b",
                        "prev": "0x0000000000000000000000000000000000000000000000000ec5121d7287b42e"
                    },
                    {
                        "current": "0x0000000000000000000000000000000000000000000000001d75e5c402dfe2c5",
                        "key": "0x000000000000000000000000000000000000000000000000000000000000000c",
                        "prev": "0x0000000000000000000000000000000000000000000000001d75e50db73af4cc"
                    }
                ],
                "storageVariables": []
            },
            {
                "address": "0x895879b2c1fbb6ccfcd101f2d3f3c76363664f92",
                "erc": "",
                "slots": [
                    {
                        "current": "0x00fa18f100000000000000000000000000000000000000000000000000000000",
                        "key": "0x957b90b7901d94a1305e59c9e5d271c67146a8e31921dd5e8c8318843d97ac38",
                        "prev": "0x00fa18dd00000000000000000000000000000000000000000000000000000000"
                    }
                ],
                "storageVariables": []
            },
            {
                "address": "0xbc4f34c71c95ff8c47bbf54e6b221fdb98aced5c",
                "erc": "",
                "slots": [
                    {
                        "current": "0x0000000000000000000000000000000000000000000000000e426768deeebc2b",
                        "key": "0x0000000000000000000000000000000000000000000000000000000000000006",
                        "prev": "0x0000000000000000000000000000000000000000000000000e42673fe98ff0cc"
                    }
                ],
                "storageVariables": [
                    {
                        "name": "lastVirtualPrice",
                        "type": "uint256",
                        "value": {
                            "current": "1027497365108341803",
                            "prev": "1027497189193019596",
                            "typeTag": 1
                        }
                    }
                ]
            }
        ]
    }
}