{
    "balance_change": {
        "balanceChanges": [
            {
                "account": "0x3c72e00a6333feff7e2835bbbe126a5ce5119a66",
                "assets": [
                    {
                        "address": "0xf4faea455575354d2699bc209b0a65ca99f69982",
                        "amount": "13,750",
                        "iconUrl": "",
                        "isERC1155": false,
                        "isERC721": false,
                        "sign": false,
                        "value": ""
                    }
                ]
            },
            {
                "account": "0xf959b6abcd6852eec1c3bdd1a260c0161698307c",
                "assets": [
                    {
                        "address": "0xf4faea455575354d2699bc209b0a65ca99f69982",
                        "amount": "13,750",
                        "iconUrl": "",
                        "isERC1155": false,
                        "isERC721": false,
                        "sign": true,
                        "value": ""
                    }
                ]
            }
        ]
    },
    "profile": {
        "basic_info": {
            "baseFee": "",
            "blockNumber": 5925843,
            "callData": "0xa9059cbb000000000000000000000000f959b6abcd6852eec1c3bdd1a260c0161698307c0000000000000000000000000000000000000000000002e963951560b5180000",
            "debugEnable": true,
            "errorInfo": "",
            "eventCount": 1,
            "feeRecipient": "0xb2930b35844a230f00e51431acae96fe543a0347",
            "formatValue": "0",
            "gasLimit": 37198,
            "gasPrice": "15",
            "gasUsed": 22198,
            "intTxnCount": 0,
            "internalRevert": false,
            "internalRevertMessage": "",
            "isContractCreation": false,
            "isFlashloan": false,
            "maxFee": "",
            "nonce": 0,
            "overwritedBlockNumber": -1,
            "priorityFee": "",
            "receiver": "0xf4faea455575354d2699bc209b0a65ca99f69982",
            "revertMessage": "",
            "sender": "0x3c72e00a6333feff7e2835bbbe126a5ce5119a66",
            "simulationEnable": true,
            "sourceTxnHash": "0x59030e37f6d0f4d6e55677d03a618479a06960236db63394e64c1dd73ed706ae",
            "status": true,
            "timestamp": "2018-07-08T06:18:38Z",
            "transactionFee": "0.00033297",
            "txnHash": "0x59030e37f6d0f4d6e55677d03a618479a06960236db63394e64c1dd73ed706ae",
            "txnIndex": 38,
            "type": 0,
            "value": "0"
        },
        "fund_flow": [
            {
                "amount": "13,750",
                "from": "0x3c72e00a6333feff7e2835bbbe126a5ce5119a66",
                "id": 1,
                "isERC1155": false,
                "isERC721": false,
                "isReverted": false,
                "order": 1,
                "to": "0xf959b6abcd6852eec1c3bdd1a260c0161698307c",
                "token": "0xf4faea455575354d2699bc209b0a65ca99f69982"
            }
        ],
        "token_infos": [
            {
                "address": "0xf4faea455575354d2699bc209b0a65ca99f69982",
                "decimals": 18
            },
            {
                "address": "0xeeeeeeeeeeeeeeeeeeeeeeeeeeeeeeeeeeeeeeee",
                "decimals": 18
            },
            {
                "address": "0xc02aaa39b223fe8d0a0e5c4f27ead9083c756cc2",
                "decimals": 18
            }
        ]
    },
    "address_label": {
        "labels": [
            {
                "address": "0xeeeeeeeeeeeeeeeeeeeeeeeeeeeeeeeeeeeeeeee",
                "label": "Ether"
            },
            {
                "address": "0xf4faea455575354d2699bc209b0a65ca99f69982",
                "label": "No BS Crypto (NOBS)"
            },
            {
                "address": "0x0000000000000000000000000000000000000001",
                "label": "Precompiled"
            },
            {
                "address": "0x0000000000000000000000000000000000000002",
                "label": "Precompiled"
            },
            {
                "address": "0x0000000000000000000000000000000000000003",
                "label": "Precompiled"
            },
            {
                "address": "0x0000000000000000000000000000000000000004",
                "label": "Precompiled"
            }
        ]
    },
    "trace": {
        "accountLabels": null,
        "dataMap": {
            "-1": {
                "invocation": {
                    "address": "0x3c72e00a6333feff7e2835bbbe126a5ce5119a66",
                    "callData": "",
                    "decodedMethod": null,
                    "errorInfo": "",
                    "fromAddress": "",
                    "gasUsed": 0,
                    "id": -1,
                    "methodDecoded": false,
                    "operation": "",
                    "output": "",
                    "revert": false,
                    "revertMessage": "",
                    "selector": "",
                    "status": false,
                    "value": ""
                },
                "nodeType": 0
            },
            "0": {
                "invocation": {
                    "address": "0xf4faea455575354d2699bc209b0a65ca99f69982",
                    "callData": "0x000000000000000000000000f959b6abcd6852eec1c3bdd1a260c0161698307c0000000000000000000000000000000000000000000002e963951560b5180000",
                    "decodedMethod": {
                        "callParams": [
                            {
                                "name": "recipient",
                                "type": "address",
                                "value": "0xf959b6abcd6852eec1c3bdd1a260c0161698307c"
                            },
                            {
                                "decimalAvailable": true,
                                "name": "amount",
                                "type": "uint256",
                                "value": "13,750,000,000,000,000,000,000"
                            }
                        ],
                        "constructorArguments": "",
                        "name": "transfer",
                        "returnParams": [
                            {
                                "name": "",
                                "type": "bool",
                                "value": true
                            }
                        ],
                        "signature": "transfer(address,uint256)"
                    },
                    "errorInfo": "",
                    "fromAddress": "0x3c72e00a6333feff7e2835bbbe126a5ce5119a66",
                    "gasUsed": 22198,
                    "id": 0,
                    "methodDecoded": true,
                    "operation": "CALL",
                    "output": "0x0000000000000000000000000000000000000000000000000000000000000001",
                    "revert": false,
                    "revertMessage": "",
                    "selector": "0xa9059cbb",
                    "status": true,
                    "value": "0"
                },
                "nodeType": 0
            },
            "1": {
                "event": {
                    "contract": "0xf4faea455575354d2699bc209b0a65ca99f69982",
                    "decodedLog": {
                        "name": "Transfer",
                        "params": [
                            {
                                "name": "from",
                                "type": "address",
                                "value": "0x3c72e00a6333feff7e2835bbbe126a5ce5119a66"
                            },
                            {
                                "name": "to",
                                "type": "address",
                                "value": "0xf959b6abcd6852eec1c3bdd1a260c0161698307c"
                            },
                            {
                                "decimalAvailable": true,
                                "name": "value",
                                "type": "uint256",
                                "value": "13,750,000,000,000,000,000,000"
                            }
                        ],
                        "signature": "Transfer(address,address,uint256)"
                    },
                    "id": 1,
                    "logData": "0x0000000000000000000000000000000000000000000002e963951560b5180000",
                    "logDecoded": true,
                    "operation": "EVENT",
                    "revert": false,
                    "status": true,
                    "topics": [
                        "0xddf252ad1be2c89b69c2b068fc378daa952ba7f163c4a11628f55a4df523b3ef",
                        "0x0000000000000000000000003c72e00a6333feff7e2835bbbe126a5ce5119a66",
                        "0x000000000000000000000000f959b6abcd6852eec1c3bdd1a260c0161698307c"
                    ]
                },
                "nodeType": 1
            }
        },
        "gasFlame": [
            {
                "children": [
                    {
                        "children": [
                            {
                                "children": [],
                                "depth": 0,
                                "name": "Initial Gas",
                                "value": 23320
                            },
                            {
                                "children": [],
                                "depth": 0,
                                "name": "Executed Gas",
                                "value": 13878
                            }
                        ],
                        "depth": -1,
                        "name": "Actual Gas Used",
                        "value": 22198
                    },
                    {
                        "children": [],
                        "depth": -1,
                        "name": "Refunded Gas",
                        "value": 15000
                    }
                ],
                "depth": -2,
                "name": "Total Gas",
                "value": 37198
            }
        ],
        "isConfirmed": true,
        "mainTrace": [
            {
                "children": [
                    {
                        "children": [
                            {
                                "children": [],
                                "depth": 1,
                                "id": 1,
                                "order": 1
                            }
                        ],
                        "depth": 0,
                        "id": 0,
                        "order": 0
                    }
                ],
                "depth": -1,
                "id": -1,
                "order": -1
            }
        ],
        "mainTraceNodeCount": 2,
        "parentIdMap": {
            "0": -1,
            "1": 0
        },
        "tidyTrace": [
            {
                "children": [
                    {
                        "children": [
                            {
                                "children": [],
                                "depth": 1,
                                "id": 1,
                                "order": 1
                            }
                        ],
                        "depth": 0,
                        "id": 0,
                        "order": 0
                    }
                ],
                "depth": -1,
                "id": -1,
                "order": -1
            }
        ],
        "tidyTraceNodeCount": 2
    },
    "state_change": {
        "stateChanges": [
            {
                "address": "0xf4faea455575354d2699bc209b0a65ca99f69982",
                "erc": "",
                "slots": [
                    {
                        "current": "0x0000000000000000000000000000000000000000000000000000000000000000",
                        "key": "0x92884b2d10ac0d0e03f8b4348afabc9cd01757ce7594a54b0c4cdc760021f0a4",
                        "prev": "0x0000000000000000000000000000000000000000000002e963951560b5180000"
                    },
                    {
                        "current": "0x000000000000000000000000000000000000000000001b1ae4d6e2ef50000000",
                        "key": "0xf295d32f1cb2942529663d8ab3120d19e273ba31e7b29e73f8c089d7748636dc",
                        "prev": "0x0000000000000000000000000000000000000000000018318141cd8e9ae80000"
                    }
                ],
                "storageVariables": []
            }
        ]
    }
}