{
    "balance_change": {
        "balanceChanges": [
            {
                "account": "0x4738cbd2e7ee262caf8df656cab85c1c5596a5c8",
                "assets": [
                    {
                        "address": "0x5f98805a4e8be255a32880fdec7f6728c6568ba0",
                        "amount": "299.996359561436007958",
                        "iconUrl": "",
                        "isERC1155": false,
                        "isERC721": false,
                        "sign": true,
                        "value": "304.2269023"
                    }
                ]
            },
            {
                "account": "0x0000000000000000000000000000000000000000",
                "assets": [
                    {
                        "address": "0x5f98805a4e8be255a32880fdec7f6728c6568ba0",
                        "amount": "301.496441066445553933",
                        "iconUrl": "",
                        "isERC1155": false,
                        "isERC721": false,
                        "sign": false,
                        "value": "305.7481379"
                    }
                ]
            },
            {
                "account": "0x4f9fbb3f1e99b56e0fe2892e623ed36a76fc605d",
                "assets": [
                    {
                        "address": "0x5f98805a4e8be255a32880fdec7f6728c6568ba0",
                        "amount": "1.500081505009545975",
                        "iconUrl": "",
                        "isERC1155": false,
                        "isERC721": false,
                        "sign": true,
                        "value": "1.52123562"
                    }
                ]
            }
        ]
    },
    "profile": {
        "basic_info": {
            "baseFee": "13.676192623",
            "blockNumber": 16894676,
            "callData": "0xc6a6cf200000000000000000000000000000000000000000000000000023873fe51dbeaa000000000000000000000000000000000000000000000000000000000000000000000000000000000000000000000000000000000000001043492b9281c10e16000000000000000000000000000000000000000000000000000000000000000100000000000000000000000053abe19f1ff92c6281ec8aee4083c810667823200000000000000000000000002e291e566165604d6ccfbfc099014d1b02c50396",
            "debugEnable": true,
            "errorInfo": "",
            "eventCount": 14,
            "feeRecipient": "0xdafea492d9c6733ae3d56b7ed1adb60692c98bc5",
            "formatValue": "0",
            "gasLimit": 545775,
            "gasPrice": "13.776192623",
            "gasUsed": 445142,
            "intTxnCount": 47,
            "internalRevert": true,
            "internalRevertMessage": "",
            "isContractCreation": false,
            "isFlashloan": false,
            "maxFee": "18.52683848",
            "nonce": 913,
            "overwritedBlockNumber": -1,
            "priorityFee": "0.1",
            "receiver": "0x24179cd81c9e782a4096035f7ec97fb8b783e007",
            "revertMessage": "",
            "sender": "0x4738cbd2e7ee262caf8df656cab85c1c5596a5c8",
            "simulationEnable": true,
            "sourceTxnHash": "0x5a1cf61fe8099b39866f0f8e25f91e79a514840cd93c5d3bd6ebeb3b5fd83af5",
            "status": true,
            "timestamp": "2023-03-24T03:26:11Z",
            "transactionFee": "0.006132361936587466",
            "txnHash": "0x5a1cf61fe8099b39866f0f8e25f91e79a514840cd93c5d3bd6ebeb3b5fd83af5",
            "txnIndex": 117,
            "type": 2,
            "value": "0"
        },
        "fund_flow": [
            {
                "amount": "1.500081505009545975",
                "from": "0x0000000000000000000000000000000000000000",
                "id": 1,
                "isERC1155": false,
                "isERC721": false,
                "isReverted": false,
                "order": 1,
                "to": "0x4f9fbb3f1e99b56e0fe2892e623ed36a76fc605d",
                "token": "0x5f98805a4e8be255a32880fdec7f6728c6568ba0"
            },
            {
                "amount": "299.996359561436007958",
                "from": "0x0000000000000000000000000000000000000000",
                "id": 2,
                "isERC1155": false,
                "isERC721": false,
                "isReverted": false,
                "order": 2,
                "to": "0x4738cbd2e7ee262caf8df656cab85c1c5596a5c8",
                "token": "0x5f98805a4e8be255a32880fdec7f6728c6568ba0"
            }
        ],
        "token_infos": [
            {
                "address": "0xc02aaa39b223fe8d0a0e5c4f27ead9083c756cc2",
                "decimals": 18
            },
            {
                "address": "0xeeeeeeeeeeeeeeeeeeeeeeeeeeeeeeeeeeeeeeee",
                "decimals": 18
            },
            {
                "address": "0x5f98805a4e8be255a32880fdec7f6728c6568ba0",
                "decimals": 18
            }
        ]
    },
    "address_label": {
        "labels": [
            {
                "address": "0x0000000000000000000000000000000000000001",
                "label": "Precompiled"
            },
            {
                "address": "0xdf9eb223bafbe5c5271415c75aecd68c21fe3d7f",
                "label": "Liquity: Active Pool"
            },
            {
                "address": "0xad430500ecda11e38c9bcb08a702274b94641112",
                "label": "TellorCaller"
            },
            {
                "address": "0x5f4ec3df9cbd43714fe2740f5e3616155c5b8419",
                "label": "EACAggregatorProxy"
            },
            {
                "address": "0x0000000000000000000000000000000000000002",
                "label": "Precompiled"
            },
            {
                "address": "0x37bc7498f4ff12c19678ee8fe19d713b87f6a9e6",
                "label": "AccessControlledOffchainAggregator"
            },
            {
                "address": "0x896a3f03176f05cfbb4f006bfcd8723f2b0d741c",
                "label": "Liquity: Default Pool"
            },
            {
                "address": "0x5f98805a4e8be255a32880fdec7f6728c6568ba0",
                "label": "LUSD Stablecoin (LUSD)"
            },
            {
                "address": "0x2e291e566165604d6ccfbfc099014d1b02c50396",
                "label": "DSProxy #191,400"
            },
            {
                "address": "0x0000000000000000000000000000000000000004",
                "label": "Precompiled"
            },
            {
                "address": "0x24179cd81c9e782a4096035f7ec97fb8b783e007",
                "label": "Liquity: Borrower Operations"
            },
            {
                "address": "0x8fdd3fbfeb32b28fb73555518f8b361bcea741a6",
                "label": "Liquity: Sorted Troves"
            },
            {
                "address": "0xd9157453e2668b2fc45b7a803d3fef3642430cc0",
                "label": "Tellor Protocol: Oracle"
            },
            {
                "address": "0x4f9fbb3f1e99b56e0fe2892e623ed36a76fc605d",
                "label": "Liquity: LQTY Staking"
            },
            {
                "address": "0x88df592f8eb5d7bd38bfef7deb0fbc02cf3778a0",
                "label": "Tellor Tributes: TRB Token"
            },
            {
                "address": "0xd3b9a1dcabd16c482785fd4265cb4580b84cded7",
                "label": "Tellor Tributes (TRB)"
            },
            {
                "address": "0x0000000000000000000000000000000000000003",
                "label": "Precompiled"
            },
            {
                "address": "0xeeeeeeeeeeeeeeeeeeeeeeeeeeeeeeeeeeeeeeee",
                "label": "Ether"
            },
            {
                "address": "0x4c517d4e2c851ca76d7ec94b805269df0f2201de",
                "label": "Liquity: Price Feed"
            },
            {
                "address": "0xa39739ef8b0231dbfa0dcda07d7e29faabcf4bb2",
                "label": "Liquity: Trove Manager"
            }
        ]
    },
    "trace": {
        "accountLabels": null,
        "dataMap": {
            "-1": {
                "invocation": {
                    "address": "0x4738cbd2e7ee262caf8df656cab85c1c5596a5c8",
                    "callData": "",
                    "decodedMethod": null,
                    "errorInfo": "",
                    "fromAddress": "",
                    "gasUsed": 0,
                    "id": -1,
                    "methodDecoded": false,
                    "operation": "",
                    "output": "",
                    "revert": false,
                    "revertMessage": "",
                    "selector": "",
                    "status": false,
                    "value": ""
                },
                "nodeType": 0
            },
            "0": {
                "invocation": {
                    "address": "0x24179cd81c9e782a4096035f7ec97fb8b783e007",
                    "callData": "0x0000000000000000000000000000000000000000000000000023873fe51dbeaa000000000000000000000000000000000000000000000000000000000000000000000000000000000000000000000000000000000000001043492b9281c10e16000000000000000000000000000000000000000000000000000000000000000100000000000000000000000053abe19f1ff92c6281ec8aee4083c810667823200000000000000000000000002e291e566165604d6ccfbfc099014d1b02c50396",
                    "decodedMethod": {
                        "callParams": [
                            {
                                "name": "_maxFeePercentage",
                                "type": "uint256",
                                "value": "10,000,332,681,494,186"
                            },
                            {
                                "name": "_collWithdrawal",
                                "type": "uint256",
                                "value": "0"
                            },
                            {
                                "name": "_LUSDChange",
                                "type": "uint256",
                                "value": "299,996,359,561,436,007,958"
                            },
                            {
                                "name": "_isDebtIncrease",
                                "type": "bool",
                                "value": true
                            },
                            {
                                "name": "_upperHint",
                                "type": "address",
                                "value": "0x53abe19f1ff92c6281ec8aee4083c81066782320"
                            },
                            {
                                "name": "_lowerHint",
                                "type": "address",
                                "value": "0x2e291e566165604d6ccfbfc099014d1b02c50396"
                            }
                        ],
                        "constructorArguments": "",
                        "name": "adjustTrove",
                        "returnParams": [],
                        "signature": "adjustTrove(uint256,uint256,uint256,bool,address,address)"
                    },
                    "errorInfo": "",
                    "fromAddress": "0x4738cbd2e7ee262caf8df656cab85c1c5596a5c8",
                    "gasUsed": 445142,
                    "id": 0,
                    "methodDecoded": true,
                    "operation": "CALL",
                    "output": "",
                    "revert": false,
                    "revertMessage": "",
                    "selector": "0xc6a6cf20",
                    "status": true,
                    "value": "0"
                },
                "nodeType": 0
            },
            "1": {
                "invocation": {
                    "address": "0x4c517d4e2c851ca76d7ec94b805269df0f2201de",
                    "callData": "0x",
                    "decodedMethod": {
                        "callParams": [],
                        "constructorArguments": "",
                        "name": "fetchPrice",
                        "returnParams": [
                            {
                                "name": "",
                                "type": "uint256",
                                "value": "1,813,780,000,000,000,000,000"
                            }
                        ],
                        "signature": "fetchPrice()"
                    },
                    "errorInfo": "",
                    "fromAddress": "0x24179cd81c9e782a4096035f7ec97fb8b783e007",
                    "gasUsed": 163463,
                    "id": 1,
                    "methodDecoded": true,
                    "operation": "CALL",
                    "output": "0x0000000000000000000000000000000000000000000000625341042e84020000",
                    "revert": false,
                    "revertMessage": "",
                    "selector": "0x0fdb11cf",
                    "status": true,
                    "value": "0"
                },
                "nodeType": 0
            },
            "10": {
                "invocation": {
                    "address": "0xd3b9a1dcabd16c482785fd4265cb4580b84cded7",
                    "callData": "0x0000000000000000000000000000000000000000000000000000000000000001",
                    "decodedMethod": {
                        "callParams": [
                            {
                                "name": "_requestId",
                                "type": "uint256",
                                "value": "1"
                            }
                        ],
                        "constructorArguments": "",
                        "name": "getNewValueCountbyRequestId",
                        "returnParams": [
                            {
                                "name": "",
                                "type": "uint256",
                                "value": "1,289"
                            }
                        ],
                        "signature": "getNewValueCountbyRequestId(uint256)"
                    },
                    "errorInfo": "",
                    "fromAddress": "0x88df592f8eb5d7bd38bfef7deb0fbc02cf3778a0",
                    "gasUsed": 14959,
                    "id": 10,
                    "methodDecoded": true,
                    "operation": "DELEGATECALL",
                    "output": "0x0000000000000000000000000000000000000000000000000000000000000509",
                    "revert": false,
                    "revertMessage": "",
                    "selector": "0x46eee1c4",
                    "status": true,
                    "value": "0"
                },
                "nodeType": 0
            },
            "11": {
                "invocation": {
                    "address": "0xd9157453e2668b2fc45b7a803d3fef3642430cc0",
                    "callData": "0x83a7f3d48786ac2667503a61e8c415438ed2922eb86a2906e4ee66d9a2ce4992",
                    "decodedMethod": {
                        "callParams": [
                            {
                                "name": "_queryId",
                                "type": "bytes32",
                                "value": "0x83a7f3d48786ac2667503a61e8c415438ed2922eb86a2906e4ee66d9a2ce4992"
                            }
                        ],
                        "constructorArguments": "",
                        "name": "getNewValueCountbyQueryId",
                        "returnParams": [
                            {
                                "name": "",
                                "type": "uint256",
                                "value": "1,289"
                            }
                        ],
                        "signature": "getNewValueCountbyQueryId(bytes32)"
                    },
                    "errorInfo": "",
                    "fromAddress": "0x88df592f8eb5d7bd38bfef7deb0fbc02cf3778a0",
                    "gasUsed": 2540,
                    "id": 11,
                    "methodDecoded": true,
                    "operation": "STATICCALL",
                    "output": "0x0000000000000000000000000000000000000000000000000000000000000509",
                    "revert": false,
                    "revertMessage": "",
                    "selector": "0x77b03e0d",
                    "status": true,
                    "value": "0"
                },
                "nodeType": 0
            },
            "12": {
                "invocation": {
                    "address": "0xd9157453e2668b2fc45b7a803d3fef3642430cc0",
                    "callData": "0x83a7f3d48786ac2667503a61e8c415438ed2922eb86a2906e4ee66d9a2ce49920000000000000000000000000000000000000000000000000000000000000508",
                    "decodedMethod": {
                        "callParams": [
                            {
                                "name": "_queryId",
                                "type": "bytes32",
                                "value": "0x83a7f3d48786ac2667503a61e8c415438ed2922eb86a2906e4ee66d9a2ce4992"
                            },
                            {
                                "name": "_index",
                                "type": "uint256",
                                "value": "1,288"
                            }
                        ],
                        "constructorArguments": "",
                        "name": "getTimestampbyQueryIdandIndex",
                        "returnParams": [
                            {
                                "name": "",
                                "type": "uint256",
                                "value": "1,679,628,299"
                            }
                        ],
                        "signature": "getTimestampbyQueryIdandIndex(bytes32,uint256)"
                    },
                    "errorInfo": "",
                    "fromAddress": "0x88df592f8eb5d7bd38bfef7deb0fbc02cf3778a0",
                    "gasUsed": 2724,
                    "id": 12,
                    "methodDecoded": true,
                    "operation": "STATICCALL",
                    "output": "0x00000000000000000000000000000000000000000000000000000000641d180b",
                    "revert": false,
                    "revertMessage": "",
                    "selector": "0xce5e11bf",
                    "status": true,
                    "value": "0"
                },
                "nodeType": 0
            },
            "13": {
                "invocation": {
                    "address": "0xd9157453e2668b2fc45b7a803d3fef3642430cc0",
                    "callData": "0x83a7f3d48786ac2667503a61e8c415438ed2922eb86a2906e4ee66d9a2ce499200000000000000000000000000000000000000000000000000000000641d180b",
                    "decodedMethod": {
                        "callParams": [
                            {
                                "name": "_queryId",
                                "type": "bytes32",
                                "value": "0x83a7f3d48786ac2667503a61e8c415438ed2922eb86a2906e4ee66d9a2ce4992"
                            },
                            {
                                "name": "_timestamp",
                                "type": "uint256",
                                "value": "1,679,628,299"
                            }
                        ],
                        "constructorArguments": "",
                        "name": "isInDispute",
                        "returnParams": [
                            {
                                "name": "",
                                "type": "bool",
                                "value": false
                            }
                        ],
                        "signature": "isInDispute(bytes32,uint256)"
                    },
                    "errorInfo": "",
                    "fromAddress": "0x88df592f8eb5d7bd38bfef7deb0fbc02cf3778a0",
                    "gasUsed": 2645,
                    "id": 13,
                    "methodDecoded": true,
                    "operation": "STATICCALL",
                    "output": "0x0000000000000000000000000000000000000000000000000000000000000000",
                    "revert": false,
                    "revertMessage": "",
                    "selector": "0x44e87f91",
                    "status": true,
                    "value": "0"
                },
                "nodeType": 0
            },
            "14": {
                "invocation": {
                    "address": "0x88df592f8eb5d7bd38bfef7deb0fbc02cf3778a0",
                    "callData": "0x00000000000000000000000000000000000000000000000000000000000000010000000000000000000000000000000000000000000000000000000000000508",
                    "decodedMethod": {
                        "callParams": [
                            {
                                "name": "_requestId",
                                "type": "uint256",
                                "value": "1"
                            },
                            {
                                "name": "_index",
                                "type": "uint256",
                                "value": "1,288"
                            }
                        ],
                        "constructorArguments": "",
                        "name": "getTimestampbyRequestIDandIndex",
                        "returnParams": [
                            {
                                "name": "",
                                "type": "uint256",
                                "value": "1,679,627,195"
                            }
                        ],
                        "signature": "getTimestampbyRequestIDandIndex(uint256,uint256)"
                    },
                    "errorInfo": "",
                    "fromAddress": "0xad430500ecda11e38c9bcb08a702274b94641112",
                    "gasUsed": 61493,
                    "id": 14,
                    "methodDecoded": true,
                    "operation": "STATICCALL",
                    "output": "0x00000000000000000000000000000000000000000000000000000000641d13bb",
                    "revert": false,
                    "revertMessage": "",
                    "selector": "0x77fbb663",
                    "status": true,
                    "value": "0"
                },
                "nodeType": 0
            },
            "15": {
                "invocation": {
                    "address": "0xd3b9a1dcabd16c482785fd4265cb4580b84cded7",
                    "callData": "0x00000000000000000000000000000000000000000000000000000000000000010000000000000000000000000000000000000000000000000000000000000508",
                    "decodedMethod": {
                        "callParams": [
                            {
                                "name": "_requestId",
                                "type": "uint256",
                                "value": "1"
                            },
                            {
                                "name": "_index",
                                "type": "uint256",
                                "value": "1,288"
                            }
                        ],
                        "constructorArguments": "",
                        "name": "getTimestampbyRequestIDandIndex",
                        "returnParams": [
                            {
                                "name": "",
                                "type": "uint256",
                                "value": "1,679,627,195"
                            }
                        ],
                        "signature": "getTimestampbyRequestIDandIndex(uint256,uint256)"
                    },
                    "errorInfo": "",
                    "fromAddress": "0x88df592f8eb5d7bd38bfef7deb0fbc02cf3778a0",
                    "gasUsed": 60975,
                    "id": 15,
                    "methodDecoded": true,
                    "operation": "DELEGATECALL",
                    "output": "0x00000000000000000000000000000000000000000000000000000000641d13bb",
                    "revert": false,
                    "revertMessage": "",
                    "selector": "0x77fbb663",
                    "status": true,
                    "value": "0"
                },
                "nodeType": 0
            },
            "16": {
                "invocation": {
                    "address": "0xd9157453e2668b2fc45b7a803d3fef3642430cc0",
                    "callData": "0x83a7f3d48786ac2667503a61e8c415438ed2922eb86a2906e4ee66d9a2ce49920000000000000000000000000000000000000000000000000000000000000508",
                    "decodedMethod": {
                        "callParams": [
                            {
                                "name": "_queryId",
                                "type": "bytes32",
                                "value": "0x83a7f3d48786ac2667503a61e8c415438ed2922eb86a2906e4ee66d9a2ce4992"
                            },
                            {
                                "name": "_index",
                                "type": "uint256",
                                "value": "1,288"
                            }
                        ],
                        "constructorArguments": "",
                        "name": "getTimestampbyQueryIdandIndex",
                        "returnParams": [
                            {
                                "name": "",
                                "type": "uint256",
                                "value": "1,679,628,299"
                            }
                        ],
                        "signature": "getTimestampbyQueryIdandIndex(bytes32,uint256)"
                    },
                    "errorInfo": "",
                    "fromAddress": "0x88df592f8eb5d7bd38bfef7deb0fbc02cf3778a0",
                    "gasUsed": 724,
                    "id": 16,
                    "methodDecoded": true,
                    "operation": "STATICCALL",
                    "output": "0x00000000000000000000000000000000000000000000000000000000641d180b",
                    "revert": false,
                    "revertMessage": "",
                    "selector": "0xce5e11bf",
                    "status": true,
                    "value": "0"
                },
                "nodeType": 0
            },
            "17": {
                "invocation": {
                    "address": "0xd9157453e2668b2fc45b7a803d3fef3642430cc0",
                    "callData": "0x83a7f3d48786ac2667503a61e8c415438ed2922eb86a2906e4ee66d9a2ce499200000000000000000000000000000000000000000000000000000000641d14cf",
                    "decodedMethod": {
                        "callParams": [
                            {
                                "name": "_queryId",
                                "type": "bytes32",
                                "value": "0x83a7f3d48786ac2667503a61e8c415438ed2922eb86a2906e4ee66d9a2ce4992"
                            },
                            {
                                "name": "_timestamp",
                                "type": "uint256",
                                "value": "1,679,627,471"
                            }
                        ],
                        "constructorArguments": "",
                        "name": "getDataBefore",
                        "returnParams": [
                            {
                                "name": "_ifRetrieve",
                                "type": "bool",
                                "value": true
                            },
                            {
                                "name": "_value",
                                "type": "bytes",
                                "value": "0x0000000000000000000000000000000000000000000000624db3ee4d0ddbaa53"
                            },
                            {
                                "name": "_timestampRetrieved",
                                "type": "uint256",
                                "value": "1,679,627,195"
                            }
                        ],
                        "signature": "getDataBefore(bytes32,uint256)"
                    },
                    "errorInfo": "",
                    "fromAddress": "0x88df592f8eb5d7bd38bfef7deb0fbc02cf3778a0",
                    "gasUsed": 57424,
                    "id": 17,
                    "methodDecoded": true,
                    "operation": "STATICCALL",
                    "output": "0x0000000000000000000000000000000000000000000000000000000000000001000000000000000000000000000000000000000000000000000000000000006000000000000000000000000000000000000000000000000000000000641d13bb00000000000000000000000000000000000000000000000000000000000000200000000000000000000000000000000000000000000000624db3ee4d0ddbaa53",
                    "revert": false,
                    "revertMessage": "",
                    "selector": "0xa792765f",
                    "status": true,
                    "value": "0"
                },
                "nodeType": 0
            },
            "18": {
                "invocation": {
                    "address": "0x88df592f8eb5d7bd38bfef7deb0fbc02cf3778a0",
                    "callData": "0x000000000000000000000000000000000000000000000000000000000000000100000000000000000000000000000000000000000000000000000000641d13bb",
                    "decodedMethod": {
                        "callParams": [
                            {
                                "name": "_requestId",
                                "type": "uint256",
                                "value": "1"
                            },
                            {
                                "name": "_timestamp",
                                "type": "uint256",
                                "value": "1,679,627,195"
                            }
                        ],
                        "constructorArguments": "",
                        "name": "retrieveData",
                        "returnParams": [
                            {
                                "name": "",
                                "type": "uint256",
                                "value": "1,813,380,000"
                            }
                        ],
                        "signature": "retrieveData(uint256,uint256)"
                    },
                    "errorInfo": "",
                    "fromAddress": "0xad430500ecda11e38c9bcb08a702274b94641112",
                    "gasUsed": 30180,
                    "id": 18,
                    "methodDecoded": true,
                    "operation": "STATICCALL",
                    "output": "0x000000000000000000000000000000000000000000000000000000006c15fba0",
                    "revert": false,
                    "revertMessage": "",
                    "selector": "0x93fa4915",
                    "status": true,
                    "value": "0"
                },
                "nodeType": 0
            },
            "19": {
                "invocation": {
                    "address": "0xd3b9a1dcabd16c482785fd4265cb4580b84cded7",
                    "callData": "0x000000000000000000000000000000000000000000000000000000000000000100000000000000000000000000000000000000000000000000000000641d13bb",
                    "decodedMethod": {
                        "callParams": [
                            {
                                "name": "_requestId",
                                "type": "uint256",
                                "value": "1"
                            },
                            {
                                "name": "_timestamp",
                                "type": "uint256",
                                "value": "1,679,627,195"
                            }
                        ],
                        "constructorArguments": "",
                        "name": "retrieveData",
                        "returnParams": [
                            {
                                "name": "",
                                "type": "uint256",
                                "value": "1,813,380,000"
                            }
                        ],
                        "signature": "retrieveData(uint256,uint256)"
                    },
                    "errorInfo": "",
                    "fromAddress": "0x88df592f8eb5d7bd38bfef7deb0fbc02cf3778a0",
                    "gasUsed": 29662,
                    "id": 19,
                    "methodDecoded": true,
                    "operation": "DELEGATECALL",
                    "output": "0x000000000000000000000000000000000000000000000000000000006c15fba0",
                    "revert": false,
                    "revertMessage": "",
                    "selector": "0x93fa4915",
                    "status": true,
                    "value": "0"
                },
                "nodeType": 0
            },
            "2": {
                "invocation": {
                    "address": "0x5f4ec3df9cbd43714fe2740f5e3616155c5b8419",
                    "callData": "0x",
                    "decodedMethod": {
                        "callParams": [],
                        "constructorArguments": "",
                        "name": "decimals",
                        "returnParams": [
                            {
                                "name": "",
                                "type": "uint8",
                                "value": "8"
                            }
                        ],
                        "signature": "decimals()"
                    },
                    "errorInfo": "",
                    "fromAddress": "0x4c517d4e2c851ca76d7ec94b805269df0f2201de",
                    "gasUsed": 5640,
                    "id": 2,
                    "methodDecoded": true,
                    "operation": "STATICCALL",
                    "output": "0x0000000000000000000000000000000000000000000000000000000000000008",
                    "revert": false,
                    "revertMessage": "",
                    "selector": "0x313ce567",
                    "status": true,
                    "value": "0"
                },
                "nodeType": 0
            },
            "20": {
                "invocation": {
                    "address": "0xd9157453e2668b2fc45b7a803d3fef3642430cc0",
                    "callData": "0x000000000000000000000000000000000000000000000000000000000000000100000000000000000000000000000000000000000000000000000000641d13bb",
                    "decodedMethod": {
                        "callParams": [
                            {
                                "name": "_queryId",
                                "type": "bytes32",
                                "value": "0x0000000000000000000000000000000000000000000000000000000000000001"
                            },
                            {
                                "name": "_timestamp",
                                "type": "uint256",
                                "value": "1,679,627,195"
                            }
                        ],
                        "constructorArguments": "",
                        "name": "getValueByTimestamp",
                        "returnParams": [],
                        "signature": "getValueByTimestamp(bytes32,uint256)"
                    },
                    "errorInfo": "execution reverted",
                    "fromAddress": "0x88df592f8eb5d7bd38bfef7deb0fbc02cf3778a0",
                    "gasUsed": 240,
                    "id": 20,
                    "methodDecoded": true,
                    "operation": "STATICCALL",
                    "output": "",
                    "revert": true,
                    "revertMessage": "",
                    "selector": "0x0b2d2b0d",
                    "status": false,
                    "value": "0"
                },
                "nodeType": 0
            },
            "21": {
                "invocation": {
                    "address": "0xd9157453e2668b2fc45b7a803d3fef3642430cc0",
                    "callData": "0x83a7f3d48786ac2667503a61e8c415438ed2922eb86a2906e4ee66d9a2ce499200000000000000000000000000000000000000000000000000000000641d14cf",
                    "decodedMethod": {
                        "callParams": [
                            {
                                "name": "_queryId",
                                "type": "bytes32",
                                "value": "0x83a7f3d48786ac2667503a61e8c415438ed2922eb86a2906e4ee66d9a2ce4992"
                            },
                            {
                                "name": "_timestamp",
                                "type": "uint256",
                                "value": "1,679,627,471"
                            }
                        ],
                        "constructorArguments": "",
                        "name": "getDataBefore",
                        "returnParams": [
                            {
                                "name": "_ifRetrieve",
                                "type": "bool",
                                "value": true
                            },
                            {
                                "name": "_value",
                                "type": "bytes",
                                "value": "0x0000000000000000000000000000000000000000000000624db3ee4d0ddbaa53"
                            },
                            {
                                "name": "_timestampRetrieved",
                                "type": "uint256",
                                "value": "1,679,627,195"
                            }
                        ],
                        "signature": "getDataBefore(bytes32,uint256)"
                    },
                    "errorInfo": "",
                    "fromAddress": "0x88df592f8eb5d7bd38bfef7deb0fbc02cf3778a0",
                    "gasUsed": 15424,
                    "id": 21,
                    "methodDecoded": true,
                    "operation": "STATICCALL",
                    "output": "0x0000000000000000000000000000000000000000000000000000000000000001000000000000000000000000000000000000000000000000000000000000006000000000000000000000000000000000000000000000000000000000641d13bb00000000000000000000000000000000000000000000000000000000000000200000000000000000000000000000000000000000000000624db3ee4d0ddbaa53",
                    "revert": false,
                    "revertMessage": "",
                    "selector": "0xa792765f",
                    "status": true,
                    "value": "0"
                },
                "nodeType": 0
            },
            "22": {
                "event": {
                    "contract": "0x4c517d4e2c851ca76d7ec94b805269df0f2201de",
                    "decodedLog": {
                        "name": "LastGoodPriceUpdated",
                        "params": [
                            {
                                "name": "_lastGoodPrice",
                                "type": "uint256",
                                "value": "1,813,780,000,000,000,000,000"
                            }
                        ],
                        "signature": "LastGoodPriceUpdated(uint256)"
                    },
                    "id": 22,
                    "logData": "0x0000000000000000000000000000000000000000000000625341042e84020000",
                    "logDecoded": true,
                    "operation": "EVENT",
                    "revert": false,
                    "status": true,
                    "topics": [
                        "0x4d29de21de555af78a62fc82dd4bc05e9ae5b0660a37f04729527e0f22780cd3"
                    ]
                },
                "nodeType": 1
            },
            "23": {
                "invocation": {
                    "address": "0xdf9eb223bafbe5c5271415c75aecd68c21fe3d7f",
                    "callData": "0x",
                    "decodedMethod": {
                        "callParams": [],
                        "constructorArguments": "",
                        "name": "getETH",
                        "returnParams": [
                            {
                                "name": "",
                                "type": "uint256",
                                "value": "398,867,965,095,589,200,304,474"
                            }
                        ],
                        "signature": "getETH()"
                    },
                    "errorInfo": "",
                    "fromAddress": "0x24179cd81c9e782a4096035f7ec97fb8b783e007",
                    "gasUsed": 2321,
                    "id": 23,
                    "methodDecoded": true,
                    "operation": "STATICCALL",
                    "output": "0x000000000000000000000000000000000000000000005476acfba1633d00995a",
                    "revert": false,
                    "revertMessage": "",
                    "selector": "0x14f6c3be",
                    "status": true,
                    "value": "0"
                },
                "nodeType": 0
            },
            "24": {
                "invocation": {
                    "address": "0x896a3f03176f05cfbb4f006bfcd8723f2b0d741c",
                    "callData": "0x",
                    "decodedMethod": {
                        "callParams": [],
                        "constructorArguments": "",
                        "name": "getETH",
                        "returnParams": [
                            {
                                "name": "",
                                "type": "uint256",
                                "value": "0"
                            }
                        ],
                        "signature": "getETH()"
                    },
                    "errorInfo": "",
                    "fromAddress": "0x24179cd81c9e782a4096035f7ec97fb8b783e007",
                    "gasUsed": 2299,
                    "id": 24,
                    "methodDecoded": true,
                    "operation": "STATICCALL",
                    "output": "0x0000000000000000000000000000000000000000000000000000000000000000",
                    "revert": false,
                    "revertMessage": "",
                    "selector": "0x14f6c3be",
                    "status": true,
                    "value": "0"
                },
                "nodeType": 0
            },
            "25": {
                "invocation": {
                    "address": "0xdf9eb223bafbe5c5271415c75aecd68c21fe3d7f",
                    "callData": "0x",
                    "decodedMethod": {
                        "callParams": [],
                        "constructorArguments": "",
                        "name": "getLUSDDebt",
                        "returnParams": [
                            {
                                "name": "",
                                "type": "uint256",
                                "value": "262,236,406,843,574,575,284,386,432"
                            }
                        ],
                        "signature": "getLUSDDebt()"
                    },
                    "errorInfo": "",
                    "fromAddress": "0x24179cd81c9e782a4096035f7ec97fb8b783e007",
                    "gasUsed": 2409,
                    "id": 25,
                    "methodDecoded": true,
                    "operation": "STATICCALL",
                    "output": "0x000000000000000000000000000000000000000000d8eab819a8a922cf787a80",
                    "revert": false,
                    "revertMessage": "",
                    "selector": "0x5eb52fca",
                    "status": true,
                    "value": "0"
                },
                "nodeType": 0
            },
            "26": {
                "invocation": {
                    "address": "0x896a3f03176f05cfbb4f006bfcd8723f2b0d741c",
                    "callData": "0x",
                    "decodedMethod": {
                        "callParams": [],
                        "constructorArguments": "",
                        "name": "getLUSDDebt",
                        "returnParams": [
                            {
                                "name": "",
                                "type": "uint256",
                                "value": "0"
                            }
                        ],
                        "signature": "getLUSDDebt()"
                    },
                    "errorInfo": "",
                    "fromAddress": "0x24179cd81c9e782a4096035f7ec97fb8b783e007",
                    "gasUsed": 2365,
                    "id": 26,
                    "methodDecoded": true,
                    "operation": "STATICCALL",
                    "output": "0x0000000000000000000000000000000000000000000000000000000000000000",
                    "revert": false,
                    "revertMessage": "",
                    "selector": "0x5eb52fca",
                    "status": true,
                    "value": "0"
                },
                "nodeType": 0
            },
            "27": {
                "invocation": {
                    "address": "0xa39739ef8b0231dbfa0dcda07d7e29faabcf4bb2",
                    "callData": "0x0000000000000000000000004738cbd2e7ee262caf8df656cab85c1c5596a5c8",
                    "decodedMethod": {
                        "callParams": [
                            {
                                "name": "_borrower",
                                "type": "address",
                                "value": "0x4738cbd2e7ee262caf8df656cab85c1c5596a5c8"
                            }
                        ],
                        "constructorArguments": "",
                        "name": "getTroveStatus",
                        "returnParams": [
                            {
                                "name": "",
                                "type": "uint256",
                                "value": "1"
                            }
                        ],
                        "signature": "getTroveStatus(address)"
                    },
                    "errorInfo": "",
                    "fromAddress": "0x24179cd81c9e782a4096035f7ec97fb8b783e007",
                    "gasUsed": 2625,
                    "id": 27,
                    "methodDecoded": true,
                    "operation": "STATICCALL",
                    "output": "0x0000000000000000000000000000000000000000000000000000000000000001",
                    "revert": false,
                    "revertMessage": "",
                    "selector": "0x21e37801",
                    "status": true,
                    "value": "0"
                },
                "nodeType": 0
            },
            "28": {
                "invocation": {
                    "address": "0xa39739ef8b0231dbfa0dcda07d7e29faabcf4bb2",
                    "callData": "0x0000000000000000000000004738cbd2e7ee262caf8df656cab85c1c5596a5c8",
                    "decodedMethod": {
                        "callParams": [
                            {
                                "name": "_borrower",
                                "type": "address",
                                "value": "0x4738cbd2e7ee262caf8df656cab85c1c5596a5c8"
                            }
                        ],
                        "constructorArguments": "",
                        "name": "applyPendingRewards",
                        "returnParams": [],
                        "signature": "applyPendingRewards(address)"
                    },
                    "errorInfo": "",
                    "fromAddress": "0x24179cd81c9e782a4096035f7ec97fb8b783e007",
                    "gasUsed": 11356,
                    "id": 28,
                    "methodDecoded": true,
                    "operation": "CALL",
                    "output": "",
                    "revert": false,
                    "revertMessage": "",
                    "selector": "0x0b076557",
                    "status": true,
                    "value": "0"
                },
                "nodeType": 0
            },
            "29": {
                "invocation": {
                    "address": "0xa39739ef8b0231dbfa0dcda07d7e29faabcf4bb2",
                    "callData": "0x",
                    "decodedMethod": {
                        "callParams": [],
                        "constructorArguments": "",
                        "name": "decayBaseRateFromBorrowing",
                        "returnParams": [],
                        "signature": "decayBaseRateFromBorrowing()"
                    },
                    "errorInfo": "",
                    "fromAddress": "0x24179cd81c9e782a4096035f7ec97fb8b783e007",
                    "gasUsed": 22228,
                    "id": 29,
                    "methodDecoded": true,
                    "operation": "CALL",
                    "output": "",
                    "revert": false,
                    "revertMessage": "",
                    "selector": "0x5dba4c4a",
                    "status": true,
                    "value": "0"
                },
                "nodeType": 0
            },
            "3": {
                "invocation": {
                    "address": "0x37bc7498f4ff12c19678ee8fe19d713b87f6a9e6",
                    "callData": "0x",
                    "decodedMethod": {
                        "callParams": [],
                        "constructorArguments": "",
                        "name": "decimals",
                        "returnParams": [
                            {
                                "name": "",
                                "type": "uint8",
                                "value": "8"
                            }
                        ],
                        "signature": "decimals()"
                    },
                    "errorInfo": "",
                    "fromAddress": "0x5f4ec3df9cbd43714fe2740f5e3616155c5b8419",
                    "gasUsed": 298,
                    "id": 3,
                    "methodDecoded": true,
                    "operation": "STATICCALL",
                    "output": "0x0000000000000000000000000000000000000000000000000000000000000008",
                    "revert": false,
                    "revertMessage": "",
                    "selector": "0x313ce567",
                    "status": true,
                    "value": "0"
                },
                "nodeType": 0
            },
            "30": {
                "event": {
                    "contract": "0xa39739ef8b0231dbfa0dcda07d7e29faabcf4bb2",
                    "decodedLog": {
                        "name": "BaseRateUpdated",
                        "params": [
                            {
                                "name": "_baseRate",
                                "type": "uint256",
                                "value": "332,361,374,357"
                            }
                        ],
                        "signature": "BaseRateUpdated(uint256)"
                    },
                    "id": 30,
                    "logData": "0x0000000000000000000000000000000000000000000000000000004d62481a95",
                    "logDecoded": true,
                    "operation": "EVENT",
                    "revert": false,
                    "status": true,
                    "topics": [
                        "0xc454ee9b76c52f782a256af821b857ca6e125d1e3333bcede402fec2bed9600c"
                    ]
                },
                "nodeType": 1
            },
            "31": {
                "event": {
                    "contract": "0xa39739ef8b0231dbfa0dcda07d7e29faabcf4bb2",
                    "decodedLog": {
                        "name": "LastFeeOpTimeUpdated",
                        "params": [
                            {
                                "name": "_lastFeeOpTime",
                                "type": "uint256",
                                "value": "1,679,628,371"
                            }
                        ],
                        "signature": "LastFeeOpTimeUpdated(uint256)"
                    },
                    "id": 31,
                    "logData": "0x00000000000000000000000000000000000000000000000000000000641d1853",
                    "logDecoded": true,
                    "operation": "EVENT",
                    "revert": false,
                    "status": true,
                    "topics": [
                        "0x860f8d2f0c74dd487e89e2883e3b25b8159ce1e1b3433a291cba7b82c508f3bc"
                    ]
                },
                "nodeType": 1
            },
            "32": {
                "invocation": {
                    "address": "0xa39739ef8b0231dbfa0dcda07d7e29faabcf4bb2",
                    "callData": "0x00000000000000000000000000000000000000000000001043492b9281c10e16",
                    "decodedMethod": {
                        "callParams": [
                            {
                                "name": "_LUSDDebt",
                                "type": "uint256",
                                "value": "299,996,359,561,436,007,958"
                            }
                        ],
                        "constructorArguments": "",
                        "name": "getBorrowingFee",
                        "returnParams": [
                            {
                                "name": "",
                                "type": "uint256",
                                "value": "1,500,081,505,009,545,975"
                            }
                        ],
                        "signature": "getBorrowingFee(uint256)"
                    },
                    "errorInfo": "",
                    "fromAddress": "0x24179cd81c9e782a4096035f7ec97fb8b783e007",
                    "gasUsed": 1057,
                    "id": 32,
                    "methodDecoded": true,
                    "operation": "STATICCALL",
                    "output": "0x00000000000000000000000000000000000000000000000014d15c2e583a32f7",
                    "revert": false,
                    "revertMessage": "",
                    "selector": "0x631203b0",
                    "status": true,
                    "value": "0"
                },
                "nodeType": 0
            },
            "33": {
                "invocation": {
                    "address": "0x4f9fbb3f1e99b56e0fe2892e623ed36a76fc605d",
                    "callData": "0x00000000000000000000000000000000000000000000000014d15c2e583a32f7",
                    "decodedMethod": {
                        "callParams": [
                            {
                                "name": "_LUSDFee",
                                "type": "uint256",
                                "value": "1,500,081,505,009,545,975"
                            }
                        ],
                        "constructorArguments": "",
                        "name": "increaseF_LUSD",
                        "returnParams": [],
                        "signature": "increaseF_LUSD(uint256)"
                    },
                    "errorInfo": "",
                    "fromAddress": "0x24179cd81c9e782a4096035f7ec97fb8b783e007",
                    "gasUsed": 11124,
                    "id": 33,
                    "methodDecoded": true,
                    "operation": "CALL",
                    "output": "",
                    "revert": false,
                    "revertMessage": "",
                    "selector": "0x4677ffb3",
                    "status": true,
                    "value": "0"
                },
                "nodeType": 0
            },
            "34": {
                "event": {
                    "contract": "0x4f9fbb3f1e99b56e0fe2892e623ed36a76fc605d",
                    "decodedLog": {
                        "name": "F_LUSDUpdated",
                        "params": [
                            {
                                "name": "_F_LUSD",
                                "type": "uint256",
                                "value": "601,196,201,908,253,208,399"
                            }
                        ],
                        "signature": "F_LUSDUpdated(uint256)"
                    },
                    "id": 34,
                    "logData": "0x0000000000000000000000000000000000000000000000209745f85c8f73af4f",
                    "logDecoded": true,
                    "operation": "EVENT",
                    "revert": false,
                    "status": true,
                    "topics": [
                        "0xdc043c079acfe2ef669592e1598aa8f95877fa0ba0e91d06c214a9f73d3521f9"
                    ]
                },
                "nodeType": 1
            },
            "35": {
                "invocation": {
                    "address": "0x5f98805a4e8be255a32880fdec7f6728c6568ba0",
                    "callData": "0x0000000000000000000000004f9fbb3f1e99b56e0fe2892e623ed36a76fc605d00000000000000000000000000000000000000000000000014d15c2e583a32f7",
                    "decodedMethod": {
                        "callParams": [
                            {
                                "name": "_account",
                                "type": "address",
                                "value": "0x4f9fbb3f1e99b56e0fe2892e623ed36a76fc605d"
                            },
                            {
                                "name": "_amount",
                                "type": "uint256",
                                "value": "1,500,081,505,009,545,975"
                            }
                        ],
                        "constructorArguments": "",
                        "name": "mint",
                        "returnParams": [],
                        "signature": "mint(address,uint256)"
                    },
                    "errorInfo": "",
                    "fromAddress": "0x24179cd81c9e782a4096035f7ec97fb8b783e007",
                    "gasUsed": 12698,
                    "id": 35,
                    "methodDecoded": true,
                    "operation": "CALL",
                    "output": "",
                    "revert": false,
                    "revertMessage": "",
                    "selector": "0x40c10f19",
                    "status": true,
                    "value": "0"
                },
                "nodeType": 0
            },
            "36": {
                "event": {
                    "contract": "0x5f98805a4e8be255a32880fdec7f6728c6568ba0",
                    "decodedLog": {
                        "name": "Transfer",
                        "params": [
                            {
                                "name": "from",
                                "type": "address",
                                "value": "0x0000000000000000000000000000000000000000"
                            },
                            {
                                "name": "to",
                                "type": "address",
                                "value": "0x4f9fbb3f1e99b56e0fe2892e623ed36a76fc605d"
                            },
                            {
                                "decimalAvailable": true,
                                "name": "value",
                                "type": "uint256",
                                "value": "1,500,081,505,009,545,975"
                            }
                        ],
                        "signature": "Transfer(address,address,uint256)"
                    },
                    "id": 36,
                    "logData": "0x00000000000000000000000000000000000000000000000014d15c2e583a32f7",
                    "logDecoded": true,
                    "operation": "EVENT",
                    "revert": false,
                    "status": true,
                    "topics": [
                        "0xddf252ad1be2c89b69c2b068fc378daa952ba7f163c4a11628f55a4df523b3ef",
                        "0x0000000000000000000000000000000000000000000000000000000000000000",
                        "0x0000000000000000000000004f9fbb3f1e99b56e0fe2892e623ed36a76fc605d"
                    ]
                },
                "nodeType": 1
            },
            "37": {
                "invocation": {
                    "address": "0xa39739ef8b0231dbfa0dcda07d7e29faabcf4bb2",
                    "callData": "0x0000000000000000000000004738cbd2e7ee262caf8df656cab85c1c5596a5c8",
                    "decodedMethod": {
                        "callParams": [
                            {
                                "name": "_borrower",
                                "type": "address",
                                "value": "0x4738cbd2e7ee262caf8df656cab85c1c5596a5c8"
                            }
                        ],
                        "constructorArguments": "",
                        "name": "getTroveDebt",
                        "returnParams": [
                            {
                                "name": "",
                                "type": "uint256",
                                "value": "3,623,936,213,802,808,346,970"
                            }
                        ],
                        "signature": "getTroveDebt(address)"
                    },
                    "errorInfo": "",
                    "fromAddress": "0x24179cd81c9e782a4096035f7ec97fb8b783e007",
                    "gasUsed": 2553,
                    "id": 37,
                    "methodDecoded": true,
                    "operation": "STATICCALL",
                    "output": "0x0000000000000000000000000000000000000000000000c47437c2044671895a",
                    "revert": false,
                    "revertMessage": "",
                    "selector": "0xd66a2553",
                    "status": true,
                    "value": "0"
                },
                "nodeType": 0
            },
            "38": {
                "invocation": {
                    "address": "0xa39739ef8b0231dbfa0dcda07d7e29faabcf4bb2",
                    "callData": "0x0000000000000000000000004738cbd2e7ee262caf8df656cab85c1c5596a5c8",
                    "decodedMethod": {
                        "callParams": [
                            {
                                "name": "_borrower",
                                "type": "address",
                                "value": "0x4738cbd2e7ee262caf8df656cab85c1c5596a5c8"
                            }
                        ],
                        "constructorArguments": "",
                        "name": "getTroveColl",
                        "returnParams": [
                            {
                                "name": "",
                                "type": "uint256",
                                "value": "3,600,000,000,000,000,000"
                            }
                        ],
                        "signature": "getTroveColl(address)"
                    },
                    "errorInfo": "",
                    "fromAddress": "0x24179cd81c9e782a4096035f7ec97fb8b783e007",
                    "gasUsed": 2539,
                    "id": 38,
                    "methodDecoded": true,
                    "operation": "STATICCALL",
                    "output": "0x00000000000000000000000000000000000000000000000031f5c4ed27680000",
                    "revert": false,
                    "revertMessage": "",
                    "selector": "0x480cd578",
                    "status": true,
                    "value": "0"
                },
                "nodeType": 0
            },
            "39": {
                "invocation": {
                    "address": "0xdf9eb223bafbe5c5271415c75aecd68c21fe3d7f",
                    "callData": "0x",
                    "decodedMethod": {
                        "callParams": [],
                        "constructorArguments": "",
                        "name": "getETH",
                        "returnParams": [
                            {
                                "name": "",
                                "type": "uint256",
                                "value": "398,867,965,095,589,200,304,474"
                            }
                        ],
                        "signature": "getETH()"
                    },
                    "errorInfo": "",
                    "fromAddress": "0x24179cd81c9e782a4096035f7ec97fb8b783e007",
                    "gasUsed": 321,
                    "id": 39,
                    "methodDecoded": true,
                    "operation": "STATICCALL",
                    "output": "0x000000000000000000000000000000000000000000005476acfba1633d00995a",
                    "revert": false,
                    "revertMessage": "",
                    "selector": "0x14f6c3be",
                    "status": true,
                    "value": "0"
                },
                "nodeType": 0
            },
            "4": {
                "invocation": {
                    "address": "0x5f4ec3df9cbd43714fe2740f5e3616155c5b8419",
                    "callData": "0x",
                    "decodedMethod": {
                        "callParams": [],
                        "constructorArguments": "",
                        "name": "latestRoundData",
                        "returnParams": [
                            {
                                "name": "roundId",
                                "type": "uint80",
                                "value": "92,233,720,368,547,801,180"
                            },
                            {
                                "name": "answer",
                                "type": "int256",
                                "value": "181,378,000,000"
                            },
                            {
                                "name": "startedAt",
                                "type": "uint256",
                                "value": "1,679,626,535"
                            },
                            {
                                "name": "updatedAt",
                                "type": "uint256",
                                "value": "1,679,626,535"
                            },
                            {
                                "name": "answeredInRound",
                                "type": "uint80",
                                "value": "92,233,720,368,547,801,180"
                            }
                        ],
                        "signature": "latestRoundData()"
                    },
                    "errorInfo": "",
                    "fromAddress": "0x4c517d4e2c851ca76d7ec94b805269df0f2201de",
                    "gasUsed": 11143,
                    "id": 4,
                    "methodDecoded": true,
                    "operation": "STATICCALL",
                    "output": "0x000000000000000000000000000000000000000000000005000000000000a85c0000000000000000000000000000000000000000000000000000002a3af8a48000000000000000000000000000000000000000000000000000000000641d112700000000000000000000000000000000000000000000000000000000641d1127000000000000000000000000000000000000000000000005000000000000a85c",
                    "revert": false,
                    "revertMessage": "",
                    "selector": "0xfeaf968c",
                    "status": true,
                    "value": "0"
                },
                "nodeType": 0
            },
            "40": {
                "invocation": {
                    "address": "0x896a3f03176f05cfbb4f006bfcd8723f2b0d741c",
                    "callData": "0x",
                    "decodedMethod": {
                        "callParams": [],
                        "constructorArguments": "",
                        "name": "getETH",
                        "returnParams": [
                            {
                                "name": "",
                                "type": "uint256",
                                "value": "0"
                            }
                        ],
                        "signature": "getETH()"
                    },
                    "errorInfo": "",
                    "fromAddress": "0x24179cd81c9e782a4096035f7ec97fb8b783e007",
                    "gasUsed": 299,
                    "id": 40,
                    "methodDecoded": true,
                    "operation": "STATICCALL",
                    "output": "0x0000000000000000000000000000000000000000000000000000000000000000",
                    "revert": false,
                    "revertMessage": "",
                    "selector": "0x14f6c3be",
                    "status": true,
                    "value": "0"
                },
                "nodeType": 0
            },
            "41": {
                "invocation": {
                    "address": "0xdf9eb223bafbe5c5271415c75aecd68c21fe3d7f",
                    "callData": "0x",
                    "decodedMethod": {
                        "callParams": [],
                        "constructorArguments": "",
                        "name": "getLUSDDebt",
                        "returnParams": [
                            {
                                "name": "",
                                "type": "uint256",
                                "value": "262,236,406,843,574,575,284,386,432"
                            }
                        ],
                        "signature": "getLUSDDebt()"
                    },
                    "errorInfo": "",
                    "fromAddress": "0x24179cd81c9e782a4096035f7ec97fb8b783e007",
                    "gasUsed": 409,
                    "id": 41,
                    "methodDecoded": true,
                    "operation": "STATICCALL",
                    "output": "0x000000000000000000000000000000000000000000d8eab819a8a922cf787a80",
                    "revert": false,
                    "revertMessage": "",
                    "selector": "0x5eb52fca",
                    "status": true,
                    "value": "0"
                },
                "nodeType": 0
            },
            "42": {
                "invocation": {
                    "address": "0x896a3f03176f05cfbb4f006bfcd8723f2b0d741c",
                    "callData": "0x",
                    "decodedMethod": {
                        "callParams": [],
                        "constructorArguments": "",
                        "name": "getLUSDDebt",
                        "returnParams": [
                            {
                                "name": "",
                                "type": "uint256",
                                "value": "0"
                            }
                        ],
                        "signature": "getLUSDDebt()"
                    },
                    "errorInfo": "",
                    "fromAddress": "0x24179cd81c9e782a4096035f7ec97fb8b783e007",
                    "gasUsed": 365,
                    "id": 42,
                    "methodDecoded": true,
                    "operation": "STATICCALL",
                    "output": "0x0000000000000000000000000000000000000000000000000000000000000000",
                    "revert": false,
                    "revertMessage": "",
                    "selector": "0x5eb52fca",
                    "status": true,
                    "value": "0"
                },
                "nodeType": 0
            },
            "43": {
                "invocation": {
                    "address": "0xa39739ef8b0231dbfa0dcda07d7e29faabcf4bb2",
                    "callData": "0x0000000000000000000000004738cbd2e7ee262caf8df656cab85c1c5596a5c80000000000000000000000000000000000000000000000000000000000000000",
                    "decodedMethod": {
                        "callParams": [
                            {
                                "name": "_borrower",
                                "type": "address",
                                "value": "0x4738cbd2e7ee262caf8df656cab85c1c5596a5c8"
                            },
                            {
                                "name": "_collDecrease",
                                "type": "uint256",
                                "value": "0"
                            }
                        ],
                        "constructorArguments": "",
                        "name": "decreaseTroveColl",
                        "returnParams": [
                            {
                                "name": "",
                                "type": "uint256",
                                "value": "3,600,000,000,000,000,000"
                            }
                        ],
                        "signature": "decreaseTroveColl(address,uint256)"
                    },
                    "errorInfo": "",
                    "fromAddress": "0x24179cd81c9e782a4096035f7ec97fb8b783e007",
                    "gasUsed": 1100,
                    "id": 43,
                    "methodDecoded": true,
                    "operation": "CALL",
                    "output": "0x00000000000000000000000000000000000000000000000031f5c4ed27680000",
                    "revert": false,
                    "revertMessage": "",
                    "selector": "0xd3d6f843",
                    "status": true,
                    "value": "0"
                },
                "nodeType": 0
            },
            "44": {
                "invocation": {
                    "address": "0xa39739ef8b0231dbfa0dcda07d7e29faabcf4bb2",
                    "callData": "0x0000000000000000000000004738cbd2e7ee262caf8df656cab85c1c5596a5c8000000000000000000000000000000000000000000000010581a87c0d9fb410d",
                    "decodedMethod": {
                        "callParams": [
                            {
                                "name": "_borrower",
                                "type": "address",
                                "value": "0x4738cbd2e7ee262caf8df656cab85c1c5596a5c8"
                            },
                            {
                                "name": "_debtIncrease",
                                "type": "uint256",
                                "value": "301,496,441,066,445,553,933"
                            }
                        ],
                        "constructorArguments": "",
                        "name": "increaseTroveDebt",
                        "returnParams": [
                            {
                                "name": "",
                                "type": "uint256",
                                "value": "3,925,432,654,869,253,900,903"
                            }
                        ],
                        "signature": "increaseTroveDebt(address,uint256)"
                    },
                    "errorInfo": "",
                    "fromAddress": "0x24179cd81c9e782a4096035f7ec97fb8b783e007",
                    "gasUsed": 3814,
                    "id": 44,
                    "methodDecoded": true,
                    "operation": "CALL",
                    "output": "0x0000000000000000000000000000000000000000000000d4cc5249c5206cca67",
                    "revert": false,
                    "revertMessage": "",
                    "selector": "0x9976cf45",
                    "status": true,
                    "value": "0"
                },
                "nodeType": 0
            },
            "45": {
                "invocation": {
                    "address": "0xa39739ef8b0231dbfa0dcda07d7e29faabcf4bb2",
                    "callData": "0x0000000000000000000000004738cbd2e7ee262caf8df656cab85c1c5596a5c8",
                    "decodedMethod": {
                        "callParams": [
                            {
                                "name": "_borrower",
                                "type": "address",
                                "value": "0x4738cbd2e7ee262caf8df656cab85c1c5596a5c8"
                            }
                        ],
                        "constructorArguments": "",
                        "name": "updateStakeAndTotalStakes",
                        "returnParams": [
                            {
                                "name": "",
                                "type": "uint256",
                                "value": "3,600,000,000,000,000,000"
                            }
                        ],
                        "signature": "updateStakeAndTotalStakes(address)"
                    },
                    "errorInfo": "",
                    "fromAddress": "0x24179cd81c9e782a4096035f7ec97fb8b783e007",
                    "gasUsed": 11568,
                    "id": 45,
                    "methodDecoded": true,
                    "operation": "CALL",
                    "output": "0x00000000000000000000000000000000000000000000000031f5c4ed27680000",
                    "revert": false,
                    "revertMessage": "",
                    "selector": "0x18f2817a",
                    "status": true,
                    "value": "0"
                },
                "nodeType": 0
            },
            "46": {
                "event": {
                    "contract": "0xa39739ef8b0231dbfa0dcda07d7e29faabcf4bb2",
                    "decodedLog": {
                        "name": "TotalStakesUpdated",
                        "params": [
                            {
                                "name": "_newTotalStakes",
                                "type": "uint256",
                                "value": "398,867,965,095,589,200,304,474"
                            }
                        ],
                        "signature": "TotalStakesUpdated(uint256)"
                    },
                    "id": 46,
                    "logData": "0x000000000000000000000000000000000000000000005476acfba1633d00995a",
                    "logDecoded": true,
                    "operation": "EVENT",
                    "revert": false,
                    "status": true,
                    "topics": [
                        "0x6bac5e0eb3c44eb03a60ab11ec3a2c051771616aecadbcfff2630aabae520382"
                    ]
                },
                "nodeType": 1
            },
            "47": {
                "invocation": {
                    "address": "0x8fdd3fbfeb32b28fb73555518f8b361bcea741a6",
                    "callData": "0x0000000000000000000000004738cbd2e7ee262caf8df656cab85c1c5596a5c80000000000000000000000000000000000000000000000000145d16d957766f400000000000000000000000053abe19f1ff92c6281ec8aee4083c810667823200000000000000000000000002e291e566165604d6ccfbfc099014d1b02c50396",
                    "decodedMethod": {
                        "callParams": [
                            {
                                "name": "_id",
                                "type": "address",
                                "value": "0x4738cbd2e7ee262caf8df656cab85c1c5596a5c8"
                            },
                            {
                                "name": "_newNICR",
                                "type": "uint256",
                                "value": "91,709,636,020,233,972"
                            },
                            {
                                "name": "_prevId",
                                "type": "address",
                                "value": "0x53abe19f1ff92c6281ec8aee4083c81066782320"
                            },
                            {
                                "name": "_nextId",
                                "type": "address",
                                "value": "0x2e291e566165604d6ccfbfc099014d1b02c50396"
                            }
                        ],
                        "constructorArguments": "",
                        "name": "reInsert",
                        "returnParams": [],
                        "signature": "reInsert(address,uint256,address,address)"
                    },
                    "errorInfo": "",
                    "fromAddress": "0x24179cd81c9e782a4096035f7ec97fb8b783e007",
                    "gasUsed": 76954,
                    "id": 47,
                    "methodDecoded": true,
                    "operation": "CALL",
                    "output": "",
                    "revert": false,
                    "revertMessage": "",
                    "selector": "0x2be21260",
                    "status": true,
                    "value": "0"
                },
                "nodeType": 0
            },
            "48": {
                "event": {
                    "contract": "0x8fdd3fbfeb32b28fb73555518f8b361bcea741a6",
                    "decodedLog": {
                        "name": "NodeRemoved",
                        "params": [
                            {
                                "name": "_id",
                                "type": "address",
                                "value": "0x4738cbd2e7ee262caf8df656cab85c1c5596a5c8"
                            }
                        ],
                        "signature": "NodeRemoved(address)"
                    },
                    "id": 48,
                    "logData": "0x0000000000000000000000004738cbd2e7ee262caf8df656cab85c1c5596a5c8",
                    "logDecoded": true,
                    "operation": "EVENT",
                    "revert": false,
                    "status": true,
                    "topics": [
                        "0xcfc24166db4bb677e857cacabd1541fb2b30645021b27c5130419589b84db52b"
                    ]
                },
                "nodeType": 1
            },
            "49": {
                "invocation": {
                    "address": "0xa39739ef8b0231dbfa0dcda07d7e29faabcf4bb2",
                    "callData": "0x00000000000000000000000053abe19f1ff92c6281ec8aee4083c81066782320",
                    "decodedMethod": {
                        "callParams": [
                            {
                                "name": "_borrower",
                                "type": "address",
                                "value": "0x53abe19f1ff92c6281ec8aee4083c81066782320"
                            }
                        ],
                        "constructorArguments": "",
                        "name": "getNominalICR",
                        "returnParams": [
                            {
                                "name": "",
                                "type": "uint256",
                                "value": "91,719,541,494,256,377"
                            }
                        ],
                        "signature": "getNominalICR(address)"
                    },
                    "errorInfo": "",
                    "fromAddress": "0x8fdd3fbfeb32b28fb73555518f8b361bcea741a6",
                    "gasUsed": 12648,
                    "id": 49,
                    "methodDecoded": true,
                    "operation": "STATICCALL",
                    "output": "0x0000000000000000000000000000000000000000000000000145da6fe1ba12f9",
                    "revert": false,
                    "revertMessage": "",
                    "selector": "0xb0d8e181",
                    "status": true,
                    "value": "0"
                },
                "nodeType": 0
            },
            "5": {
                "invocation": {
                    "address": "0x37bc7498f4ff12c19678ee8fe19d713b87f6a9e6",
                    "callData": "0x",
                    "decodedMethod": {
                        "callParams": [],
                        "constructorArguments": "",
                        "name": "latestRoundData",
                        "returnParams": [
                            {
                                "name": "roundId",
                                "type": "uint80",
                                "value": "43,100"
                            },
                            {
                                "name": "answer",
                                "type": "int256",
                                "value": "181,378,000,000"
                            },
                            {
                                "name": "startedAt",
                                "type": "uint256",
                                "value": "1,679,626,535"
                            },
                            {
                                "name": "updatedAt",
                                "type": "uint256",
                                "value": "1,679,626,535"
                            },
                            {
                                "name": "answeredInRound",
                                "type": "uint80",
                                "value": "43,100"
                            }
                        ],
                        "signature": "latestRoundData()"
                    },
                    "errorInfo": "",
                    "fromAddress": "0x5f4ec3df9cbd43714fe2740f5e3616155c5b8419",
                    "gasUsed": 7410,
                    "id": 5,
                    "methodDecoded": true,
                    "operation": "STATICCALL",
                    "output": "0x000000000000000000000000000000000000000000000000000000000000a85c0000000000000000000000000000000000000000000000000000002a3af8a48000000000000000000000000000000000000000000000000000000000641d112700000000000000000000000000000000000000000000000000000000641d1127000000000000000000000000000000000000000000000000000000000000a85c",
                    "revert": false,
                    "revertMessage": "",
                    "selector": "0xfeaf968c",
                    "status": true,
                    "value": "0"
                },
                "nodeType": 0
            },
            "50": {
                "invocation": {
                    "address": "0xa39739ef8b0231dbfa0dcda07d7e29faabcf4bb2",
                    "callData": "0x0000000000000000000000002e291e566165604d6ccfbfc099014d1b02c50396",
                    "decodedMethod": {
                        "callParams": [
                            {
                                "name": "_borrower",
                                "type": "address",
                                "value": "0x2e291e566165604d6ccfbfc099014d1b02c50396"
                            }
                        ],
                        "constructorArguments": "",
                        "name": "getNominalICR",
                        "returnParams": [
                            {
                                "name": "",
                                "type": "uint256",
                                "value": "91,259,977,740,260,030"
                            }
                        ],
                        "signature": "getNominalICR(address)"
                    },
                    "errorInfo": "",
                    "fromAddress": "0x8fdd3fbfeb32b28fb73555518f8b361bcea741a6",
                    "gasUsed": 10648,
                    "id": 50,
                    "methodDecoded": true,
                    "operation": "STATICCALL",
                    "output": "0x000000000000000000000000000000000000000000000000014438775b6b12be",
                    "revert": false,
                    "revertMessage": "",
                    "selector": "0xb0d8e181",
                    "status": true,
                    "value": "0"
                },
                "nodeType": 0
            },
            "51": {
                "event": {
                    "contract": "0x8fdd3fbfeb32b28fb73555518f8b361bcea741a6",
                    "decodedLog": {
                        "name": "NodeAdded",
                        "params": [
                            {
                                "name": "_id",
                                "type": "address",
                                "value": "0x4738cbd2e7ee262caf8df656cab85c1c5596a5c8"
                            },
                            {
                                "name": "_NICR",
                                "type": "uint256",
                                "value": "91,709,636,020,233,972"
                            }
                        ],
                        "signature": "NodeAdded(address,uint256)"
                    },
                    "id": 51,
                    "logData": "0x0000000000000000000000004738cbd2e7ee262caf8df656cab85c1c5596a5c80000000000000000000000000000000000000000000000000145d16d957766f4",
                    "logDecoded": true,
                    "operation": "EVENT",
                    "revert": false,
                    "status": true,
                    "topics": [
                        "0xe02b43adbee0c123de070a04554a71877a0007e2fc161466299cae3c094fe82f"
                    ]
                },
                "nodeType": 1
            },
            "52": {
                "event": {
                    "contract": "0x24179cd81c9e782a4096035f7ec97fb8b783e007",
                    "decodedLog": {
                        "name": "TroveUpdated",
                        "params": [
                            {
                                "name": "_borrower",
                                "type": "address",
                                "value": "0x4738cbd2e7ee262caf8df656cab85c1c5596a5c8"
                            },
                            {
                                "name": "_debt",
                                "type": "uint256",
                                "value": "3,925,432,654,869,253,900,903"
                            },
                            {
                                "name": "_coll",
                                "type": "uint256",
                                "value": "3,600,000,000,000,000,000"
                            },
                            {
                                "name": "stake",
                                "type": "uint256",
                                "value": "3,600,000,000,000,000,000"
                            },
                            {
                                "name": "operation",
                                "type": "uint8",
                                "value": "2"
                            }
                        ],
                        "signature": "TroveUpdated(address,uint256,uint256,uint256,uint8)"
                    },
                    "id": 52,
                    "logData": "0x0000000000000000000000000000000000000000000000d4cc5249c5206cca6700000000000000000000000000000000000000000000000031f5c4ed2768000000000000000000000000000000000000000000000000000031f5c4ed276800000000000000000000000000000000000000000000000000000000000000000002",
                    "logDecoded": true,
                    "operation": "EVENT",
                    "revert": false,
                    "status": true,
                    "topics": [
                        "0xc3770d654ed33aeea6bf11ac8ef05d02a6a04ed4686dd2f624d853bbec43cc8b",
                        "0x0000000000000000000000004738cbd2e7ee262caf8df656cab85c1c5596a5c8"
                    ]
                },
                "nodeType": 1
            },
            "53": {
                "event": {
                    "contract": "0x24179cd81c9e782a4096035f7ec97fb8b783e007",
                    "decodedLog": {
                        "name": "LUSDBorrowingFeePaid",
                        "params": [
                            {
                                "name": "_borrower",
                                "type": "address",
                                "value": "0x4738cbd2e7ee262caf8df656cab85c1c5596a5c8"
                            },
                            {
                                "name": "_LUSDFee",
                                "type": "uint256",
                                "value": "1,500,081,505,009,545,975"
                            }
                        ],
                        "signature": "LUSDBorrowingFeePaid(address,uint256)"
                    },
                    "id": 53,
                    "logData": "0x00000000000000000000000000000000000000000000000014d15c2e583a32f7",
                    "logDecoded": true,
                    "operation": "EVENT",
                    "revert": false,
                    "status": true,
                    "topics": [
                        "0xa55c5f48fd29482ad55f4b59bf070cd1ac1a7132a31f7a136ebe8877ae37e1ff",
                        "0x0000000000000000000000004738cbd2e7ee262caf8df656cab85c1c5596a5c8"
                    ]
                },
                "nodeType": 1
            },
            "54": {
                "invocation": {
                    "address": "0xdf9eb223bafbe5c5271415c75aecd68c21fe3d7f",
                    "callData": "0x000000000000000000000000000000000000000000000010581a87c0d9fb410d",
                    "decodedMethod": {
                        "callParams": [
                            {
                                "name": "_amount",
                                "type": "uint256",
                                "value": "301,496,441,066,445,553,933"
                            }
                        ],
                        "constructorArguments": "",
                        "name": "increaseLUSDDebt",
                        "returnParams": [],
                        "signature": "increaseLUSDDebt(uint256)"
                    },
                    "errorInfo": "",
                    "fromAddress": "0x24179cd81c9e782a4096035f7ec97fb8b783e007",
                    "gasUsed": 6656,
                    "id": 54,
                    "methodDecoded": true,
                    "operation": "CALL",
                    "output": "",
                    "revert": false,
                    "revertMessage": "",
                    "selector": "0xcfb9329a",
                    "status": true,
                    "value": "0"
                },
                "nodeType": 0
            },
            "55": {
                "event": {
                    "contract": "0xdf9eb223bafbe5c5271415c75aecd68c21fe3d7f",
                    "decodedLog": {
                        "name": "ActivePoolLUSDDebtUpdated",
                        "params": [
                            {
                                "name": "_LUSDDebt",
                                "type": "uint256",
                                "value": "262,236,708,340,015,641,729,940,365"
                            }
                        ],
                        "signature": "ActivePoolLUSDDebtUpdated(uint256)"
                    },
                    "id": 55,
                    "logData": "0x000000000000000000000000000000000000000000d8eac871c330e3a973bb8d",
                    "logDecoded": true,
                    "operation": "EVENT",
                    "revert": false,
                    "status": true,
                    "topics": [
                        "0x0d4c964e4ceac5d740869d39789a7b91888a787b9c33e9365b1a658a21ffb696"
                    ]
                },
                "nodeType": 1
            },
            "56": {
                "invocation": {
                    "address": "0x5f98805a4e8be255a32880fdec7f6728c6568ba0",
                    "callData": "0x0000000000000000000000004738cbd2e7ee262caf8df656cab85c1c5596a5c800000000000000000000000000000000000000000000001043492b9281c10e16",
                    "decodedMethod": {
                        "callParams": [
                            {
                                "name": "_account",
                                "type": "address",
                                "value": "0x4738cbd2e7ee262caf8df656cab85c1c5596a5c8"
                            },
                            {
                                "name": "_amount",
                                "type": "uint256",
                                "value": "299,996,359,561,436,007,958"
                            }
                        ],
                        "constructorArguments": "",
                        "name": "mint",
                        "returnParams": [],
                        "signature": "mint(address,uint256)"
                    },
                    "errorInfo": "",
                    "fromAddress": "0x24179cd81c9e782a4096035f7ec97fb8b783e007",
                    "gasUsed": 24998,
                    "id": 56,
                    "methodDecoded": true,
                    "operation": "CALL",
                    "output": "",
                    "revert": false,
                    "revertMessage": "",
                    "selector": "0x40c10f19",
                    "status": true,
                    "value": "0"
                },
                "nodeType": 0
            },
            "57": {
                "event": {
                    "contract": "0x5f98805a4e8be255a32880fdec7f6728c6568ba0",
                    "decodedLog": {
                        "name": "Transfer",
                        "params": [
                            {
                                "name": "from",
                                "type": "address",
                                "value": "0x0000000000000000000000000000000000000000"
                            },
                            {
                                "name": "to",
                                "type": "address",
                                "value": "0x4738cbd2e7ee262caf8df656cab85c1c5596a5c8"
                            },
                            {
                                "decimalAvailable": true,
                                "name": "value",
                                "type": "uint256",
                                "value": "299,996,359,561,436,007,958"
                            }
                        ],
                        "signature": "Transfer(address,address,uint256)"
                    },
                    "id": 57,
                    "logData": "0x00000000000000000000000000000000000000000000001043492b9281c10e16",
                    "logDecoded": true,
                    "operation": "EVENT",
                    "revert": false,
                    "status": true,
                    "topics": [
                        "0xddf252ad1be2c89b69c2b068fc378daa952ba7f163c4a11628f55a4df523b3ef",
                        "0x0000000000000000000000000000000000000000000000000000000000000000",
                        "0x0000000000000000000000004738cbd2e7ee262caf8df656cab85c1c5596a5c8"
                    ]
                },
                "nodeType": 1
            },
            "58": {
                "invocation": {
                    "address": "0xdf9eb223bafbe5c5271415c75aecd68c21fe3d7f",
                    "callData": "0x0000000000000000000000004738cbd2e7ee262caf8df656cab85c1c5596a5c80000000000000000000000000000000000000000000000000000000000000000",
                    "decodedMethod": {
                        "callParams": [
                            {
                                "name": "_account",
                                "type": "address",
                                "value": "0x4738cbd2e7ee262caf8df656cab85c1c5596a5c8"
                            },
                            {
                                "name": "_amount",
                                "type": "uint256",
                                "value": "0"
                            }
                        ],
                        "constructorArguments": "",
                        "name": "sendETH",
                        "returnParams": [],
                        "signature": "sendETH(address,uint256)"
                    },
                    "errorInfo": "",
                    "fromAddress": "0x24179cd81c9e782a4096035f7ec97fb8b783e007",
                    "gasUsed": 3465,
                    "id": 58,
                    "methodDecoded": true,
                    "operation": "CALL",
                    "output": "",
                    "revert": false,
                    "revertMessage": "",
                    "selector": "0x64a197f3",
                    "status": true,
                    "value": "0"
                },
                "nodeType": 0
            },
            "59": {
                "event": {
                    "contract": "0xdf9eb223bafbe5c5271415c75aecd68c21fe3d7f",
                    "decodedLog": {
                        "name": "ActivePoolETHBalanceUpdated",
                        "params": [
                            {
                                "name": "_ETH",
                                "type": "uint256",
                                "value": "398,867,965,095,589,200,304,474"
                            }
                        ],
                        "signature": "ActivePoolETHBalanceUpdated(uint256)"
                    },
                    "id": 59,
                    "logData": "0x000000000000000000000000000000000000000000005476acfba1633d00995a",
                    "logDecoded": true,
                    "operation": "EVENT",
                    "revert": false,
                    "status": true,
                    "topics": [
                        "0xca232b5abb988c540b959ff6c3bfae3e97fff964fd098c508f9613c0a6bf1a80"
                    ]
                },
                "nodeType": 1
            },
            "6": {
                "invocation": {
                    "address": "0x5f4ec3df9cbd43714fe2740f5e3616155c5b8419",
                    "callData": "0x000000000000000000000000000000000000000000000005000000000000a85b",
                    "decodedMethod": {
                        "callParams": [
                            {
                                "name": "_roundId",
                                "type": "uint80",
                                "value": "92,233,720,368,547,801,179"
                            }
                        ],
                        "constructorArguments": "",
                        "name": "getRoundData",
                        "returnParams": [
                            {
                                "name": "roundId",
                                "type": "uint80",
                                "value": "92,233,720,368,547,801,179"
                            },
                            {
                                "name": "answer",
                                "type": "int256",
                                "value": "181,982,532,200"
                            },
                            {
                                "name": "startedAt",
                                "type": "uint256",
                                "value": "1,679,622,923"
                            },
                            {
                                "name": "updatedAt",
                                "type": "uint256",
                                "value": "1,679,622,923"
                            },
                            {
                                "name": "answeredInRound",
                                "type": "uint80",
                                "value": "92,233,720,368,547,801,179"
                            }
                        ],
                        "signature": "getRoundData(uint80)"
                    },
                    "errorInfo": "",
                    "fromAddress": "0x4c517d4e2c851ca76d7ec94b805269df0f2201de",
                    "gasUsed": 7273,
                    "id": 6,
                    "methodDecoded": true,
                    "operation": "STATICCALL",
                    "output": "0x000000000000000000000000000000000000000000000005000000000000a85b0000000000000000000000000000000000000000000000000000002a5f01126800000000000000000000000000000000000000000000000000000000641d030b00000000000000000000000000000000000000000000000000000000641d030b000000000000000000000000000000000000000000000005000000000000a85b",
                    "revert": false,
                    "revertMessage": "",
                    "selector": "0x9a6fc8f5",
                    "status": true,
                    "value": "0"
                },
                "nodeType": 0
            },
            "60": {
                "event": {
                    "contract": "0xdf9eb223bafbe5c5271415c75aecd68c21fe3d7f",
                    "decodedLog": {
                        "name": "EtherSent",
                        "params": [
                            {
                                "name": "_to",
                                "type": "address",
                                "value": "0x4738cbd2e7ee262caf8df656cab85c1c5596a5c8"
                            },
                            {
                                "name": "_amount",
                                "type": "uint256",
                                "value": "0"
                            }
                        ],
                        "signature": "EtherSent(address,uint256)"
                    },
                    "id": 60,
                    "logData": "0x0000000000000000000000004738cbd2e7ee262caf8df656cab85c1c5596a5c80000000000000000000000000000000000000000000000000000000000000000",
                    "logDecoded": true,
                    "operation": "EVENT",
                    "revert": false,
                    "status": true,
                    "topics": [
                        "0x6109e2559dfa766aaec7118351d48a523f0a4157f49c8d68749c8ac41318ad12"
                    ]
                },
                "nodeType": 1
            },
            "61": {
                "invocation": {
                    "address": "0x4738cbd2e7ee262caf8df656cab85c1c5596a5c8",
                    "callData": "0x",
                    "decodedMethod": null,
                    "errorInfo": "",
                    "fromAddress": "0xdf9eb223bafbe5c5271415c75aecd68c21fe3d7f",
                    "gasUsed": 0,
                    "id": 61,
                    "methodDecoded": false,
                    "operation": "CALL",
                    "output": "",
                    "revert": false,
                    "revertMessage": "",
                    "selector": "fallback",
                    "status": true,
                    "value": "0"
                },
                "nodeType": 0
            },
            "7": {
                "invocation": {
                    "address": "0x37bc7498f4ff12c19678ee8fe19d713b87f6a9e6",
                    "callData": "0x000000000000000000000000000000000000000000000000000000000000a85b",
                    "decodedMethod": {
                        "callParams": [
                            {
                                "name": "_roundId",
                                "type": "uint80",
                                "value": "43,099"
                            }
                        ],
                        "constructorArguments": "",
                        "name": "getRoundData",
                        "returnParams": [
                            {
                                "name": "roundId",
                                "type": "uint80",
                                "value": "43,099"
                            },
                            {
                                "name": "answer",
                                "type": "int256",
                                "value": "181,982,532,200"
                            },
                            {
                                "name": "startedAt",
                                "type": "uint256",
                                "value": "1,679,622,923"
                            },
                            {
                                "name": "updatedAt",
                                "type": "uint256",
                                "value": "1,679,622,923"
                            },
                            {
                                "name": "answeredInRound",
                                "type": "uint80",
                                "value": "43,099"
                            }
                        ],
                        "signature": "getRoundData(uint80)"
                    },
                    "errorInfo": "",
                    "fromAddress": "0x5f4ec3df9cbd43714fe2740f5e3616155c5b8419",
                    "gasUsed": 3484,
                    "id": 7,
                    "methodDecoded": true,
                    "operation": "STATICCALL",
                    "output": "0x000000000000000000000000000000000000000000000000000000000000a85b0000000000000000000000000000000000000000000000000000002a5f01126800000000000000000000000000000000000000000000000000000000641d030b00000000000000000000000000000000000000000000000000000000641d030b000000000000000000000000000000000000000000000000000000000000a85b",
                    "revert": false,
                    "revertMessage": "",
                    "selector": "0x9a6fc8f5",
                    "status": true,
                    "value": "0"
                },
                "nodeType": 0
            },
            "8": {
                "invocation": {
                    "address": "0xad430500ecda11e38c9bcb08a702274b94641112",
                    "callData": "0x0000000000000000000000000000000000000000000000000000000000000001",
                    "decodedMethod": {
                        "callParams": [
                            {
                                "name": "_requestId",
                                "type": "uint256",
                                "value": "1"
                            }
                        ],
                        "constructorArguments": "",
                        "name": "getTellorCurrentValue",
                        "returnParams": [
                            {
                                "name": "ifRetrieve",
                                "type": "bool",
                                "value": true
                            },
                            {
                                "name": "value",
                                "type": "uint256",
                                "value": "1,813,380,000"
                            },
                            {
                                "name": "_timestampRetrieved",
                                "type": "uint256",
                                "value": "1,679,627,195"
                            }
                        ],
                        "signature": "getTellorCurrentValue(uint256)"
                    },
                    "errorInfo": "",
                    "fromAddress": "0x4c517d4e2c851ca76d7ec94b805269df0f2201de",
                    "gasUsed": 118308,
                    "id": 8,
                    "methodDecoded": true,
                    "operation": "STATICCALL",
                    "output": "0x0000000000000000000000000000000000000000000000000000000000000001000000000000000000000000000000000000000000000000000000006c15fba000000000000000000000000000000000000000000000000000000000641d13bb",
                    "revert": false,
                    "revertMessage": "",
                    "selector": "0x32e6aadb",
                    "status": true,
                    "value": "0"
                },
                "nodeType": 0
            },
            "9": {
                "invocation": {
                    "address": "0x88df592f8eb5d7bd38bfef7deb0fbc02cf3778a0",
                    "callData": "0x0000000000000000000000000000000000000000000000000000000000000001",
                    "decodedMethod": {
                        "callParams": [
                            {
                                "name": "_requestId",
                                "type": "uint256",
                                "value": "1"
                            }
                        ],
                        "constructorArguments": "",
                        "name": "getNewValueCountbyRequestId",
                        "returnParams": [
                            {
                                "name": "",
                                "type": "uint256",
                                "value": "1,289"
                            }
                        ],
                        "signature": "getNewValueCountbyRequestId(uint256)"
                    },
                    "errorInfo": "",
                    "fromAddress": "0xad430500ecda11e38c9bcb08a702274b94641112",
                    "gasUsed": 19942,
                    "id": 9,
                    "methodDecoded": true,
                    "operation": "STATICCALL",
                    "output": "0x0000000000000000000000000000000000000000000000000000000000000509",
                    "revert": false,
                    "revertMessage": "",
                    "selector": "0x46eee1c4",
                    "status": true,
                    "value": "0"
                },
                "nodeType": 0
            }
        },
        "gasFlame": [
            {
                "children": [
                    {
                        "children": [
                            {
                                "children": [],
                                "depth": 0,
                                "name": "Initial Gas",
                                "value": 22516
                            },
                            {
                                "children": [
                                    {
                                        "children": [
                                            {
                                                "children": [
                                                    {
                                                        "children": [],
                                                        "depth": 3,
                                                        "name": "decimals",
                                                        "value": 298
                                                    }
                                                ],
                                                "depth": 2,
                                                "name": "decimals",
                                                "value": 5640
                                            },
                                            {
                                                "children": [
                                                    {
                                                        "children": [],
                                                        "depth": 3,
                                                        "name": "latestRoundData",
                                                        "value": 7410
                                                    }
                                                ],
                                                "depth": 2,
                                                "name": "latestRoundData",
                                                "value": 11143
                                            },
                                            {
                                                "children": [
                                                    {
                                                        "children": [],
                                                        "depth": 3,
                                                        "name": "getRoundData",
                                                        "value": 3484
                                                    }
                                                ],
                                                "depth": 2,
                                                "name": "getRoundData",
                                                "value": 7273
                                            },
                                            {
                                                "children": [
                                                    {
                                                        "children": [
                                                            {
                                                                "children": [
                                                                    {
                                                                        "children": [],
                                                                        "depth": 5,
                                                                        "name": "getNewValueCountbyQueryId",
                                                                        "value": 2540
                                                                    },
                                                                    {
                                                                        "children": [],
                                                                        "depth": 5,
                                                                        "name": "getTimestampbyQueryIdandIndex",
                                                                        "value": 2724
                                                                    },
                                                                    {
                                                                        "children": [],
                                                                        "depth": 5,
                                                                        "name": "isInDispute",
                                                                        "value": 2645
                                                                    }
                                                                ],
                                                                "depth": 4,
                                                                "name": "getNewValueCountbyRequestId",
                                                                "value": 14959
                                                            }
                                                        ],
                                                        "depth": 3,
                                                        "name": "getNewValueCountbyRequestId",
                                                        "value": 19942
                                                    },
                                                    {
                                                        "children": [
                                                            {
                                                                "children": [
                                                                    {
                                                                        "children": [],
                                                                        "depth": 5,
                                                                        "name": "getTimestampbyQueryIdandIndex",
                                                                        "value": 724
                                                                    },
                                                                    {
                                                                        "children": [],
                                                                        "depth": 5,
                                                                        "name": "getDataBefore",
                                                                        "value": 57424
                                                                    }
                                                                ],
                                                                "depth": 4,
                                                                "name": "getTimestampbyRequestIDandIndex",
                                                                "value": 60975
                                                            }
                                                        ],
                                                        "depth": 3,
                                                        "name": "getTimestampbyRequestIDandIndex",
                                                        "value": 61493
                                                    },
                                                    {
                                                        "children": [
                                                            {
                                                                "children": [
                                                                    {
                                                                        "children": [],
                                                                        "depth": 5,
                                                                        "name": "getValueByTimestamp",
                                                                        "value": 240
                                                                    },
                                                                    {
                                                                        "children": [],
                                                                        "depth": 5,
                                                                        "name": "getDataBefore",
                                                                        "value": 15424
                                                                    }
                                                                ],
                                                                "depth": 4,
                                                                "name": "retrieveData",
                                                                "value": 29662
                                                            }
                                                        ],
                                                        "depth": 3,
                                                        "name": "retrieveData",
                                                        "value": 30180
                                                    }
                                                ],
                                                "depth": 2,
                                                "name": "getTellorCurrentValue",
                                                "value": 118308
                                            }
                                        ],
                                        "depth": 1,
                                        "name": "fetchPrice",
                                        "value": 163463
                                    },
                                    {
                                        "children": [],
                                        "depth": 1,
                                        "name": "getETH",
                                        "value": 2321
                                    },
                                    {
                                        "children": [],
                                        "depth": 1,
                                        "name": "getETH",
                                        "value": 2299
                                    },
                                    {
                                        "children": [],
                                        "depth": 1,
                                        "name": "getLUSDDebt",
                                        "value": 2409
                                    },
                                    {
                                        "children": [],
                                        "depth": 1,
                                        "name": "getLUSDDebt",
                                        "value": 2365
                                    },
                                    {
                                        "children": [],
                                        "depth": 1,
                                        "name": "getTroveStatus",
                                        "value": 2625
                                    },
                                    {
                                        "children": [],
                                        "depth": 1,
                                        "name": "applyPendingRewards",
                                        "value": 11356
                                    },
                                    {
                                        "children": [],
                                        "depth": 1,
                                        "name": "decayBaseRateFromBorrowing",
                                        "value": 22228
                                    },
                                    {
                                        "children": [],
                                        "depth": 1,
                                        "name": "getBorrowingFee",
                                        "value": 1057
                                    },
                                    {
                                        "children": [],
                                        "depth": 1,
                                        "name": "increaseF_LUSD",
                                        "value": 11124
                                    },
                                    {
                                        "children": [],
                                        "depth": 1,
                                        "name": "mint",
                                        "value": 12698
                                    },
                                    {
                                        "children": [],
                                        "depth": 1,
                                        "name": "getTroveDebt",
                                        "value": 2553
                                    },
                                    {
                                        "children": [],
                                        "depth": 1,
                                        "name": "getTroveColl",
                                        "value": 2539
                                    },
                                    {
                                        "children": [],
                                        "depth": 1,
                                        "name": "getETH",
                                        "value": 321
                                    },
                                    {
                                        "children": [],
                                        "depth": 1,
                                        "name": "getETH",
                                        "value": 299
                                    },
                                    {
                                        "children": [],
                                        "depth": 1,
                                        "name": "getLUSDDebt",
                                        "value": 409
                                    },
                                    {
                                        "children": [],
                                        "depth": 1,
                                        "name": "getLUSDDebt",
                                        "value": 365
                                    },
                                    {
                                        "children": [],
                                        "depth": 1,
                                        "name": "decreaseTroveColl",
                                        "value": 1100
                                    },
                                    {
                                        "children": [],
                                        "depth": 1,
                                        "name": "increaseTroveDebt",
                                        "value": 3814
                                    },
                                    {
                                        "children": [],
                                        "depth": 1,
                                        "name": "updateStakeAndTotalStakes",
                                        "value": 11568
                                    },
                                    {
                                        "children": [
                                            {
                                                "children": [],
                                                "depth": 2,
                                                "name": "getNominalICR",
                                                "value": 12648
                                            },
                                            {
                                                "children": [],
                                                "depth": 2,
                                                "name": "getNominalICR",
                                                "value": 10648
                                            }
                                        ],
                                        "depth": 1,
                                        "name": "reInsert",
                                        "value": 76954
                                    },
                                    {
                                        "children": [],
                                        "depth": 1,
                                        "name": "increaseLUSDDebt",
                                        "value": 6656
                                    },
                                    {
                                        "children": [],
                                        "depth": 1,
                                        "name": "mint",
                                        "value": 24998
                                    },
                                    {
                                        "children": [
                                            {
                                                "children": [],
                                                "depth": 2,
                                                "name": "fallback",
                                                "value": 0
                                            }
                                        ],
                                        "depth": 1,
                                        "name": "sendETH",
                                        "value": 3465
                                    }
                                ],
                                "depth": 0,
                                "name": "Executed Gas",
                                "value": 425426
                            }
                        ],
                        "depth": -1,
                        "name": "Actual Gas Used",
                        "value": 445142
                    },
                    {
                        "children": [],
                        "depth": -1,
                        "name": "Refunded Gas",
                        "value": 2800
                    }
                ],
                "depth": -2,
                "name": "Total Gas",
                "value": 447942
            }
        ],
        "isConfirmed": true,
        "mainTrace": [
            {
                "children": [
                    {
                        "children": [
                            {
                                "children": [
                                    {
                                        "children": [
                                            {
                                                "children": [],
                                                "depth": 3,
                                                "id": 3,
                                                "order": 3
                                            }
                                        ],
                                        "depth": 2,
                                        "id": 2,
                                        "order": 2
                                    },
                                    {
                                        "children": [
                                            {
                                                "children": [],
                                                "depth": 3,
                                                "id": 5,
                                                "order": 5
                                            }
                                        ],
                                        "depth": 2,
                                        "id": 4,
                                        "order": 4
                                    },
                                    {
                                        "children": [
                                            {
                                                "children": [],
                                                "depth": 3,
                                                "id": 7,
                                                "order": 7
                                            }
                                        ],
                                        "depth": 2,
                                        "id": 6,
                                        "order": 6
                                    },
                                    {
                                        "children": [
                                            {
                                                "children": [
                                                    {
                                                        "children": [
                                                            {
                                                                "children": [],
                                                                "depth": 5,
                                                                "id": 11,
                                                                "order": 11
                                                            },
                                                            {
                                                                "children": [],
                                                                "depth": 5,
                                                                "id": 12,
                                                                "order": 12
                                                            },
                                                            {
                                                                "children": [],
                                                                "depth": 5,
                                                                "id": 13,
                                                                "order": 13
                                                            }
                                                        ],
                                                        "depth": 4,
                                                        "id": 10,
                                                        "order": 10
                                                    }
                                                ],
                                                "depth": 3,
                                                "id": 9,
                                                "order": 9
                                            },
                                            {
                                                "children": [
                                                    {
                                                        "children": [
                                                            {
                                                                "children": [],
                                                                "depth": 5,
                                                                "id": 16,
                                                                "order": 16
                                                            },
                                                            {
                                                                "children": [],
                                                                "depth": 5,
                                                                "id": 17,
                                                                "order": 17
                                                            }
                                                        ],
                                                        "depth": 4,
                                                        "id": 15,
                                                        "order": 15
                                                    }
                                                ],
                                                "depth": 3,
                                                "id": 14,
                                                "order": 14
                                            },
                                            {
                                                "children": [
                                                    {
                                                        "children": [
                                                            {
                                                                "children": [],
                                                                "depth": 5,
                                                                "id": 20,
                                                                "order": 20
                                                            },
                                                            {
                                                                "children": [],
                                                                "depth": 5,
                                                                "id": 21,
                                                                "order": 21
                                                            }
                                                        ],
                                                        "depth": 4,
                                                        "id": 19,
                                                        "order": 19
                                                    }
                                                ],
                                                "depth": 3,
                                                "id": 18,
                                                "order": 18
                                            }
                                        ],
                                        "depth": 2,
                                        "id": 8,
                                        "order": 8
                                    },
                                    {
                                        "children": [],
                                        "depth": 2,
                                        "id": 22,
                                        "order": 22
                                    }
                                ],
                                "depth": 1,
                                "id": 1,
                                "order": 1
                            },
                            {
                                "children": [],
                                "depth": 1,
                                "id": 23,
                                "order": 23
                            },
                            {
                                "children": [],
                                "depth": 1,
                                "id": 24,
                                "order": 24
                            },
                            {
                                "children": [],
                                "depth": 1,
                                "id": 25,
                                "order": 25
                            },
                            {
                                "children": [],
                                "depth": 1,
                                "id": 26,
                                "order": 26
                            },
                            {
                                "children": [],
                                "depth": 1,
                                "id": 27,
                                "order": 27
                            },
                            {
                                "children": [],
                                "depth": 1,
                                "id": 28,
                                "order": 28
                            },
                            {
                                "children": [
                                    {
                                        "children": [],
                                        "depth": 2,
                                        "id": 30,
                                        "order": 30
                                    },
                                    {
                                        "children": [],
                                        "depth": 2,
                                        "id": 31,
                                        "order": 31
                                    }
                                ],
                                "depth": 1,
                                "id": 29,
                                "order": 29
                            },
                            {
                                "children": [],
                                "depth": 1,
                                "id": 32,
                                "order": 32
                            },
                            {
                                "children": [
                                    {
                                        "children": [],
                                        "depth": 2,
                                        "id": 34,
                                        "order": 34
                                    }
                                ],
                                "depth": 1,
                                "id": 33,
                                "order": 33
                            },
                            {
                                "children": [
                                    {
                                        "children": [],
                                        "depth": 2,
                                        "id": 36,
                                        "order": 36
                                    }
                                ],
                                "depth": 1,
                                "id": 35,
                                "order": 35
                            },
                            {
                                "children": [],
                                "depth": 1,
                                "id": 37,
                                "order": 37
                            },
                            {
                                "children": [],
                                "depth": 1,
                                "id": 38,
                                "order": 38
                            },
                            {
                                "children": [],
                                "depth": 1,
                                "id": 39,
                                "order": 39
                            },
                            {
                                "children": [],
                                "depth": 1,
                                "id": 40,
                                "order": 40
                            },
                            {
                                "children": [],
                                "depth": 1,
                                "id": 41,
                                "order": 41
                            },
                            {
                                "children": [],
                                "depth": 1,
                                "id": 42,
                                "order": 42
                            },
                            {
                                "children": [],
                                "depth": 1,
                                "id": 43,
                                "order": 43
                            },
                            {
                                "children": [],
                                "depth": 1,
                                "id": 44,
                                "order": 44
                            },
                            {
                                "children": [
                                    {
                                        "children": [],
                                        "depth": 2,
                                        "id": 46,
                                        "order": 46
                                    }
                                ],
                                "depth": 1,
                                "id": 45,
                                "order": 45
                            },
                            {
                                "children": [
                                    {
                                        "children": [],
                                        "depth": 2,
                                        "id": 48,
                                        "order": 48
                                    },
                                    {
                                        "children": [],
                                        "depth": 2,
                                        "id": 49,
                                        "order": 49
                                    },
                                    {
                                        "children": [],
                                        "depth": 2,
                                        "id": 50,
                                        "order": 50
                                    },
                                    {
                                        "children": [],
                                        "depth": 2,
                                        "id": 51,
                                        "order": 51
                                    }
                                ],
                                "depth": 1,
                                "id": 47,
                                "order": 47
                            },
                            {
                                "children": [],
                                "depth": 1,
                                "id": 52,
                                "order": 52
                            },
                            {
                                "children": [],
                                "depth": 1,
                                "id": 53,
                                "order": 53
                            },
                            {
                                "children": [
                                    {
                                        "children": [],
                                        "depth": 2,
                                        "id": 55,
                                        "order": 55
                                    }
                                ],
                                "depth": 1,
                                "id": 54,
                                "order": 54
                            },
                            {
                                "children": [
                                    {
                                        "children": [],
                                        "depth": 2,
                                        "id": 57,
                                        "order": 57
                                    }
                                ],
                                "depth": 1,
                                "id": 56,
                                "order": 56
                            },
                            {
                                "children": [
                                    {
                                        "children": [],
                                        "depth": 2,
                                        "id": 59,
                                        "order": 59
                                    },
                                    {
                                        "children": [],
                                        "depth": 2,
                                        "id": 60,
                                        "order": 60
                                    },
                                    {
                                        "children": [],
                                        "depth": 2,
                                        "id": 61,
                                        "order": 61
                                    }
                                ],
                                "depth": 1,
                                "id": 58,
                                "order": 58
                            }
                        ],
                        "depth": 0,
                        "id": 0,
                        "order": 0
                    }
                ],
                "depth": -1,
                "id": -1,
                "order": -1
            }
        ],
        "mainTraceNodeCount": 62,
        "parentIdMap": {
            "0": -1,
            "1": 0,
            "10": 9,
            "11": 10,
            "12": 10,
            "13": 10,
            "14": 8,
            "15": 14,
            "16": 15,
            "17": 15,
            "18": 8,
            "19": 18,
            "2": 1,
            "20": 19,
            "21": 19,
            "22": 1,
            "23": 0,
            "24": 0,
            "25": 0,
            "26": 0,
            "27": 0,
            "28": 0,
            "29": 0,
            "3": 2,
            "30": 29,
            "31": 29,
            "32": 0,
            "33": 0,
            "34": 33,
            "35": 0,
            "36": 35,
            "37": 0,
            "38": 0,
            "39": 0,
            "4": 1,
            "40": 0,
            "41": 0,
            "42": 0,
            "43": 0,
            "44": 0,
            "45": 0,
            "46": 45,
            "47": 0,
            "48": 47,
            "49": 47,
            "5": 4,
            "50": 47,
            "51": 47,
            "52": 0,
            "53": 0,
            "54": 0,
            "55": 54,
            "56": 0,
            "57": 56,
            "58": 0,
            "59": 58,
            "6": 1,
            "60": 58,
            "61": 58,
            "7": 6,
            "8": 1,
            "9": 8
        },
        "tidyTrace": [
            {
                "children": [
                    {
                        "children": [
                            {
                                "children": [
                                    {
                                        "children": [],
                                        "depth": 2,
                                        "id": 22,
                                        "order": 22
                                    }
                                ],
                                "depth": 1,
                                "id": 1,
                                "order": 1
                            },
                            {
                                "children": [],
                                "depth": 1,
                                "id": 28,
                                "order": 28
                            },
                            {
                                "children": [
                                    {
                                        "children": [],
                                        "depth": 2,
                                        "id": 30,
                                        "order": 30
                                    },
                                    {
                                        "children": [],
                                        "depth": 2,
                                        "id": 31,
                                        "order": 31
                                    }
                                ],
                                "depth": 1,
                                "id": 29,
                                "order": 29
                            },
                            {
                                "children": [
                                    {
                                        "children": [],
                                        "depth": 2,
                                        "id": 34,
                                        "order": 34
                                    }
                                ],
                                "depth": 1,
                                "id": 33,
                                "order": 33
                            },
                            {
                                "children": [
                                    {
                                        "children": [],
                                        "depth": 2,
                                        "id": 36,
                                        "order": 36
                                    }
                                ],
                                "depth": 1,
                                "id": 35,
                                "order": 35
                            },
                            {
                                "children": [],
                                "depth": 1,
                                "id": 43,
                                "order": 43
                            },
                            {
                                "children": [],
                                "depth": 1,
                                "id": 44,
                                "order": 44
                            },
                            {
                                "children": [
                                    {
                                        "children": [],
                                        "depth": 2,
                                        "id": 46,
                                        "order": 46
                                    }
                                ],
                                "depth": 1,
                                "id": 45,
                                "order": 45
                            },
                            {
                                "children": [
                                    {
                                        "children": [],
                                        "depth": 2,
                                        "id": 48,
                                        "order": 48
                                    },
                                    {
                                        "children": [],
                                        "depth": 2,
                                        "id": 51,
                                        "order": 51
                                    }
                                ],
                                "depth": 1,
                                "id": 47,
                                "order": 47
                            },
                            {
                                "children": [],
                                "depth": 1,
                                "id": 52,
                                "order": 52
                            },
                            {
                                "children": [],
                                "depth": 1,
                                "id": 53,
                                "order": 53
                            },
                            {
                                "children": [
                                    {
                                        "children": [],
                                        "depth": 2,
                                        "id": 55,
                                        "order": 55
                                    }
                                ],
                                "depth": 1,
                                "id": 54,
                                "order": 54
                            },
                            {
                                "children": [
                                    {
                                        "children": [],
                                        "depth": 2,
                                        "id": 57,
                                        "order": 57
                                    }
                                ],
                                "depth": 1,
                                "id": 56,
                                "order": 56
                            },
                            {
                                "children": [
                                    {
                                        "children": [],
                                        "depth": 2,
                                        "id": 59,
                                        "order": 59
                                    },
                                    {
                                        "children": [],
                                        "depth": 2,
                                        "id": 60,
                                        "order": 60
                                    },
                                    {
                                        "children": [],
                                        "depth": 2,
                                        "id": 61,
                                        "order": 61
                                    }
                                ],
                                "depth": 1,
                                "id": 58,
                                "order": 58
                            }
                        ],
                        "depth": 0,
                        "id": 0,
                        "order": 0
                    }
                ],
                "depth": -1,
                "id": -1,
                "order": -1
            }
        ],
        "tidyTraceNodeCount": 28
    },
    "state_change": {
        "stateChanges": [
            {
                "address": "0x4f9fbb3f1e99b56e0fe2892e623ed36a76fc605d",
                "erc": "",
                "slots": [
                    {
                        "current": "0x0000000000000000000000000000000000000000000000209745f85c8f73af4f",
                        "key": "0x0000000000000000000000000000000000000000000000000000000000000004",
                        "prev": "0x0000000000000000000000000000000000000000000000209745f8552adab109"
                    }
                ],
                "storageVariables": [
                    {
                        "name": "F_LUSD",
                        "type": "uint256",
                        "value": {
                            "current": "601196201908253208399",
                            "prev": "601196201876500689161",
                            "typeTag": 1
                        }
                    }
                ]
            },
            {
                "address": "0x5f98805a4e8be255a32880fdec7f6728c6568ba0",
                "erc": "ERC-20",
                "slots": [
                    {
                        "current": "0x000000000000000000000000000000000000000000d8eac871c330e3a973bb8d",
                        "key": "0x0000000000000000000000000000000000000000000000000000000000000000",
                        "prev": "0x000000000000000000000000000000000000000000d8eab819a8a922cf787a80"
                    },
                    {
                        "current": "0x00000000000000000000000000000000000000000000cd5d842b336f963b1d3c",
                        "key": "0x4bea60f323ec69ed5b05c902f6c099293491c13b9571e693c2522cb75c6882df",
                        "prev": "0x00000000000000000000000000000000000000000000cd5d6f59d7413e00ea45"
                    },
                    {
                        "current": "0x00000000000000000000000000000000000000000000001043492b9281c10e16",
                        "key": "0xc29f9a6be8d412032fb2e40ec420a7721f6b661c037a3b7e7e4df0e120f94d61",
                        "prev": "0x0000000000000000000000000000000000000000000000000000000000000000"
                    }
                ],
                "storageVariables": [
                    {
                        "name": "_totalSupply",
                        "type": "uint256",
                        "value": {
                            "current": "262236708340015641729940365",
                            "prev": "262236406843574575284386432",
                            "typeTag": 1
                        }
                    },
                    {
                        "name": "_balances",
                        "type": "mapping(address => uint256)",
                        "value": {
                            "pairs": [
                                {
                                    "key": "0x4738cbd2e7ee262caf8df656cab85c1c5596a5c8",
                                    "value": {
                                        "current": "299996359561436007958",
                                        "prev": "0",
                                        "typeTag": 1
                                    }
                                },
                                {
                                    "key": "0x4f9fbb3f1e99b56e0fe2892e623ed36a76fc605d",
                                    "value": {
                                        "current": "969810199949523616996668",
                                        "prev": "969808699868018607450693",
                                        "typeTag": 1
                                    }
                                }
                            ],
                            "typeTag": 4
                        }
                    }
                ]
            },
            {
                "address": "0x8fdd3fbfeb32b28fb73555518f8b361bcea741a6",
                "erc": "",
                "slots": [
                    {
                        "current": "0x0000000000000000000000004738cbd2e7ee262caf8df656cab85c1c5596a5c8",
                        "key": "0x92e3d43c5a2dcb320fb9778111bcce7e2c6748391e888f2b7bb80f63c5cdce5e",
                        "prev": "0x00000000000000000000000053abe19f1ff92c6281ec8aee4083c81066782320"
                    },
                    {
                        "current": "0x0000000000000000000000348ff986be69d4f8fdeec574fca2dd137a52df4001",
                        "key": "0xb4917bf32e1cd086fa6b88f92726d0ca5535eedd7fdd1c2ce51794bbee0bf126",
                        "prev": "0x00000000000000000000004738cbd2e7ee262caf8df656cab85c1c5596a5c801"
                    },
                    {
                        "current": "0x000000000000000000000000637a2c20bfcd4d5d832afb053315f791ab998be0",
                        "key": "0x275e0a703ca9820a132bf33ad038c3613fdd86549600d99c68d8db5b401de1dd",
                        "prev": "0x0000000000000000000000004738cbd2e7ee262caf8df656cab85c1c5596a5c8"
                    },
                    {
                        "current": "0x00000000000000000000002e291e566165604d6ccfbfc099014d1b02c5039601",
                        "key": "0x7a8fca997f6a2017c0e5fab2ec0592173c375219a2c2d320bf8ce21b81d8c717",
                        "prev": "0x0000000000000000000000348ff986be69d4f8fdeec574fca2dd137a52df4001"
                    },
                    {
                        "current": "0x00000000000000000000000053abe19f1ff92c6281ec8aee4083c81066782320",
                        "key": "0x7a8fca997f6a2017c0e5fab2ec0592173c375219a2c2d320bf8ce21b81d8c718",
                        "prev": "0x000000000000000000000000637a2c20bfcd4d5d832afb053315f791ab998be0"
                    },
                    {
                        "current": "0x00000000000000000000004738cbd2e7ee262caf8df656cab85c1c5596a5c801",
                        "key": "0xb9c8d140cff1846d64fc0014a6112b6eb8483064f71a724f36980e1a0996f99f",
                        "prev": "0x00000000000000000000002e291e566165604d6ccfbfc099014d1b02c5039601"
                    }
                ],
                "storageVariables": []
            },
            {
                "address": "0xa39739ef8b0231dbfa0dcda07d7e29faabcf4bb2",
                "erc": "",
                "slots": [
                    {
                        "current": "0x0000000000000000000000000000000000000000000000000000004d62481a95",
                        "key": "0x000000000000000000000000000000000000000000000000000000000000000c",
                        "prev": "0x00000000000000000000000000000000000000000000000000000056c6e484d4"
                    },
                    {
                        "current": "0x00000000000000000000000000000000000000000000000000000000641d1853",
                        "key": "0x000000000000000000000000000000000000000000000000000000000000000d",
                        "prev": "0x00000000000000000000000000000000000000000000000000000000641cfc63"
                    },
                    {
                        "current": "0x0000000000000000000000000000000000000000000000d4cc5249c5206cca67",
                        "key": "0xfe4e217b37702746ce2fa60e4143649453c20847b57a69777761bff1674cd72e",
                        "prev": "0x0000000000000000000000000000000000000000000000c47437c2044671895a"
                    }
                ],
                "storageVariables": [
                    {
                        "name": "baseRate",
                        "type": "uint256",
                        "value": {
                            "current": "332361374357",
                            "prev": "372704052436",
                            "typeTag": 1
                        }
                    },
                    {
                        "name": "lastFeeOperationTime",
                        "type": "uint256",
                        "value": {
                            "current": "1679628371",
                            "prev": "1679621219",
                            "typeTag": 1
                        }
                    },
                    {
                        "name": "Troves",
                        "type": "mapping(address => struct TroveManager.Trove)",
                        "value": {
                            "pairs": [
                                {
                                    "key": "0x4738cbd2e7ee262caf8df656cab85c1c5596a5c8",
                                    "value": {
                                        "fields": [
                                            {
                                                "name": "debt",
                                                "type": "uint256",
                                                "value": {
                                                    "current": "3925432654869253900903",
                                                    "prev": "3623936213802808346970",
                                                    "typeTag": 1
                                                }
                                            }
                                        ],
                                        "typeTag": 3
                                    }
                                }
                            ],
                            "typeTag": 4
                        }
                    }
                ]
            },
            {
                "address": "0xdf9eb223bafbe5c5271415c75aecd68c21fe3d7f",
                "erc": "",
                "slots": [
                    {
                        "current": "0x000000000000000000000000000000000000000000d8eac871c330e3a973bb8d",
                        "key": "0x0000000000000000000000000000000000000000000000000000000000000006",
                        "prev": "0x000000000000000000000000000000000000000000d8eab819a8a922cf787a80"
                    }
                ],
                "storageVariables": [
                    {
                        "name": "LUSDDebt",
                        "type": "uint256",
                        "value": {
                            "current": "262236708340015641729940365",
                            "prev": "262236406843574575284386432",
                            "typeTag": 1
                        }
                    }
                ]
            }
        ]
    }
}