{
    "balance_change": {
        "balanceChanges": [
            {
                "account": "0x3981495ac410d3f1aef4ab7d8f622a78265ee6d2",
                "assets": [
                    {
                        "address": "0xeeeeeeeeeeeeeeeeeeeeeeeeeeeeeeeeeeeeeeee",
                        "amount": "0.04810855",
                        "iconUrl": "https://assets.blocksec.com/image/1663669189317-3.png",
                        "isERC1155": false,
                        "isERC721": false,
                        "sign": false,
                        "value": "91.82960023999999781"
                    }
                ]
            },
            {
                "account": "0x2a3dd3eb832af982ec71669e178424b10dca2ede",
                "assets": [
                    {
                        "address": "0xeeeeeeeeeeeeeeeeeeeeeeeeeeeeeeeeeeeeeeee",
                        "amount": "0.04810855",
                        "iconUrl": "https://assets.blocksec.com/image/1663669189317-3.png",
                        "isERC1155": false,
                        "isERC721": false,
                        "sign": true,
                        "value": "91.82960023999999781"
                    }
                ]
            }
        ]
    },
    "profile": {
        "basic_info": {
            "baseFee": "17.221295904",
            "blockNumber": 17726039,
            "callData": "0xcd58657900000000000000000000000000000000000000000000000000000000000000010000000000000000000000003981495ac410d3f1aef4ab7d8f622a78265ee6d200000000000000000000000000000000000000000000000000aaea78a968bc000000000000000000000000000000000000000000000000000000000000000000000000000000000000000000000000000000000000000000000000000000000100000000000000000000000000000000000000000000000000000000000000c00000000000000000000000000000000000000000000000000000000000000000",
            "debugEnable": true,
            "errorInfo": "",
            "eventCount": 2,
            "feeRecipient": "0x690b9a9e9aa1c9db991c7721a92d351db4fac990",
            "formatValue": "0.04810855",
            "gasLimit": 153849,
            "gasPrice": "17.321295904",
            "gasUsed": 129970,
            "intTxnCount": 3,
            "internalRevert": false,
            "internalRevertMessage": "",
            "isContractCreation": false,
            "isFlashloan": false,
            "maxFee": "20.753230067",
            "nonce": 10,
            "overwritedBlockNumber": -1,
            "priorityFee": "0.1",
            "receiver": "0x2a3dd3eb832af982ec71669e178424b10dca2ede",
            "revertMessage": "",
            "sender": "0x3981495ac410d3f1aef4ab7d8f622a78265ee6d2",
            "simulationEnable": true,
            "sourceTxnHash": "0x5a447a9eb59a8da39afc6461c97cc3d8220a8adb0b927029947490cfe9e9f82a",
            "status": true,
            "timestamp": "2023-07-19T08:26:23Z",
            "transactionFee": "0.00225124882864288",
            "txnHash": "0x5a447a9eb59a8da39afc6461c97cc3d8220a8adb0b927029947490cfe9e9f82a",
            "txnIndex": 86,
            "type": 2,
            "value": "48108550000000000"
        },
        "fund_flow": [
            {
                "amount": "0.04810855",
                "from": "0x3981495ac410d3f1aef4ab7d8f622a78265ee6d2",
                "id": 1,
                "isERC1155": false,
                "isERC721": false,
                "isReverted": false,
                "order": 1,
                "to": "0x2a3dd3eb832af982ec71669e178424b10dca2ede",
                "token": "0xeeeeeeeeeeeeeeeeeeeeeeeeeeeeeeeeeeeeeeee"
            }
        ],
        "token_infos": [
            {
                "address": "0xc02aaa39b223fe8d0a0e5c4f27ead9083c756cc2",
                "decimals": 18
            },
            {
                "address": "0xeeeeeeeeeeeeeeeeeeeeeeeeeeeeeeeeeeeeeeee",
                "decimals": 18
            }
        ]
    },
    "address_label": {
        "labels": [
            {
                "address": "0xeeeeeeeeeeeeeeeeeeeeeeeeeeeeeeeeeeeeeeee",
                "label": "Ether"
            },
            {
                "address": "0x580bda1e7a0cfae92fa7f6c20a3794f169ce3cfb",
                "label": "TransparentUpgradeableProxy_580b_3cfb"
            },
            {
                "address": "0x2a3dd3eb832af982ec71669e178424b10dca2ede",
                "label": "Polygon (Matic): zkEVM Bridge"
            },
            {
                "address": "0x0000000000000000000000000000000000000000",
                "label": "Null Address"
            },
            {
                "address": "0x0000000000000000000000000000000000000003",
                "label": "Precompiled"
            },
            {
                "address": "0xbc1ea504fc54d078514efcca1f6860b5219b6bc3",
                "label": "PolygonZkEVMGlobalExitRoot"
            },
            {
                "address": "0x5ac4182a1dd41aeef465e40b82fd326bf66ab82c",
                "label": "PolygonZkEVMBridge"
            },
            {
                "address": "0x0000000000000000000000000000000000000001",
                "label": "Precompiled"
            },
            {
                "address": "0x0000000000000000000000000000000000000002",
                "label": "Precompiled"
            },
            {
                "address": "0x0000000000000000000000000000000000000004",
                "label": "Precompiled"
            }
        ]
    },
    "trace": {
        "accountLabels": null,
        "dataMap": {
            "-1": {
                "invocation": {
                    "address": "0x3981495ac410d3f1aef4ab7d8f622a78265ee6d2",
                    "callData": "",
                    "decodedMethod": null,
                    "errorInfo": "",
                    "fromAddress": "",
                    "gasUsed": 0,
                    "id": -1,
                    "methodDecoded": false,
                    "operation": "",
                    "output": "",
                    "revert": false,
                    "revertMessage": "",
                    "selector": "",
                    "status": false,
                    "value": ""
                },
                "nodeType": 0
            },
            "0": {
                "invocation": {
                    "address": "0x2a3dd3eb832af982ec71669e178424b10dca2ede",
                    "callData": "0x00000000000000000000000000000000000000000000000000000000000000010000000000000000000000003981495ac410d3f1aef4ab7d8f622a78265ee6d200000000000000000000000000000000000000000000000000aaea78a968bc000000000000000000000000000000000000000000000000000000000000000000000000000000000000000000000000000000000000000000000000000000000100000000000000000000000000000000000000000000000000000000000000c00000000000000000000000000000000000000000000000000000000000000000",
                    "decodedMethod": {
                        "callParams": [
                            {
                                "name": "destinationNetwork",
                                "type": "uint32",
                                "value": "1"
                            },
                            {
                                "name": "destinationAddress",
                                "type": "address",
                                "value": "0x3981495ac410d3f1aef4ab7d8f622a78265ee6d2"
                            },
                            {
                                "name": "amount",
                                "type": "uint256",
                                "value": "48,108,550,000,000,000"
                            },
                            {
                                "name": "token",
                                "type": "address",
                                "value": "0x0000000000000000000000000000000000000000"
                            },
                            {
                                "name": "forceUpdateGlobalExitRoot",
                                "type": "bool",
                                "value": true
                            },
                            {
                                "name": "permitData",
                                "type": "bytes",
                                "value": "0x"
                            }
                        ],
                        "constructorArguments": "",
                        "name": "bridgeAsset",
                        "returnParams": [],
                        "signature": "bridgeAsset(uint32,address,uint256,address,bool,bytes)"
                    },
                    "errorInfo": "",
                    "fromAddress": "0x3981495ac410d3f1aef4ab7d8f622a78265ee6d2",
                    "gasUsed": 129970,
                    "id": 0,
                    "methodDecoded": true,
                    "operation": "CALL",
                    "output": "",
                    "revert": false,
                    "revertMessage": "",
                    "selector": "0xcd586579",
                    "status": true,
                    "value": "0.04810855"
                },
                "nodeType": 0
            },
            "1": {
                "invocation": {
                    "address": "0x5ac4182a1dd41aeef465e40b82fd326bf66ab82c",
                    "callData": "0x00000000000000000000000000000000000000000000000000000000000000010000000000000000000000003981495ac410d3f1aef4ab7d8f622a78265ee6d200000000000000000000000000000000000000000000000000aaea78a968bc000000000000000000000000000000000000000000000000000000000000000000000000000000000000000000000000000000000000000000000000000000000100000000000000000000000000000000000000000000000000000000000000c00000000000000000000000000000000000000000000000000000000000000000",
                    "decodedMethod": {
                        "callParams": [
                            {
                                "name": "destinationNetwork",
                                "type": "uint32",
                                "value": "1"
                            },
                            {
                                "name": "destinationAddress",
                                "type": "address",
                                "value": "0x3981495ac410d3f1aef4ab7d8f622a78265ee6d2"
                            },
                            {
                                "name": "amount",
                                "type": "uint256",
                                "value": "48,108,550,000,000,000"
                            },
                            {
                                "name": "token",
                                "type": "address",
                                "value": "0x0000000000000000000000000000000000000000"
                            },
                            {
                                "name": "forceUpdateGlobalExitRoot",
                                "type": "bool",
                                "value": true
                            },
                            {
                                "name": "permitData",
                                "type": "bytes",
                                "value": "0x"
                            }
                        ],
                        "constructorArguments": "",
                        "name": "bridgeAsset",
                        "returnParams": [],
                        "signature": "bridgeAsset(uint32,address,uint256,address,bool,bytes)"
                    },
                    "errorInfo": "",
                    "fromAddress": "0x2a3dd3eb832af982ec71669e178424b10dca2ede",
                    "gasUsed": 103192,
                    "id": 1,
                    "methodDecoded": true,
                    "operation": "DELEGATECALL",
                    "output": "",
                    "revert": false,
                    "revertMessage": "",
                    "selector": "0xcd586579",
                    "status": true,
                    "value": "0.04810855"
                },
                "nodeType": 0
            },
            "2": {
                "event": {
                    "contract": "0x2a3dd3eb832af982ec71669e178424b10dca2ede",
                    "decodedLog": {
                        "name": "BridgeEvent",
                        "params": [
                            {
                                "name": "leafType",
                                "type": "uint8",
                                "value": "0"
                            },
                            {
                                "name": "originNetwork",
                                "type": "uint32",
                                "value": "0"
                            },
                            {
                                "name": "originAddress",
                                "type": "address",
                                "value": "0x0000000000000000000000000000000000000000"
                            },
                            {
                                "name": "destinationNetwork",
                                "type": "uint32",
                                "value": "1"
                            },
                            {
                                "name": "destinationAddress",
                                "type": "address",
                                "value": "0x3981495ac410d3f1aef4ab7d8f622a78265ee6d2"
                            },
                            {
                                "name": "amount",
                                "type": "uint256",
                                "value": "48,108,550,000,000,000"
                            },
                            {
                                "name": "metadata",
                                "type": "bytes",
                                "value": "0x"
                            },
                            {
                                "name": "depositCount",
                                "type": "uint32",
                                "value": "77,947"
                            }
                        ],
                        "signature": "BridgeEvent(uint8,uint32,address,uint32,address,uint256,bytes,uint32)"
                    },
                    "id": 2,
                    "logData": "0x00000000000000000000000000000000000000000000000000000000000000000000000000000000000000000000000000000000000000000000000000000000000000000000000000000000000000000000000000000000000000000000000000000000000000000000000000000000000000000000000000000000000000010000000000000000000000003981495ac410d3f1aef4ab7d8f622a78265ee6d200000000000000000000000000000000000000000000000000aaea78a968bc000000000000000000000000000000000000000000000000000000000000000100000000000000000000000000000000000000000000000000000000000001307b0000000000000000000000000000000000000000000000000000000000000000",
                    "logDecoded": true,
                    "operation": "EVENT",
                    "revert": false,
                    "status": true,
                    "topics": [
                        "0x501781209a1f8899323b96b4ef08b168df93e0a90c673d1e4cce39366cb62f9b"
                    ]
                },
                "nodeType": 1
            },
            "3": {
                "invocation": {
                    "address": "0x580bda1e7a0cfae92fa7f6c20a3794f169ce3cfb",
                    "callData": "0x6a95312f3a1f63eb0ce7e7e268f554e42b7b24b88a8d7f217771346c54336b5a",
                    "decodedMethod": {
                        "callParams": [
                            {
                                "name": "newRoot",
                                "type": "bytes32",
                                "value": "0x6a95312f3a1f63eb0ce7e7e268f554e42b7b24b88a8d7f217771346c54336b5a"
                            }
                        ],
                        "constructorArguments": "",
                        "name": "updateExitRoot",
                        "returnParams": [],
                        "signature": "updateExitRoot(bytes32)"
                    },
                    "errorInfo": "",
                    "fromAddress": "0x2a3dd3eb832af982ec71669e178424b10dca2ede",
                    "gasUsed": 38667,
                    "id": 3,
                    "methodDecoded": true,
                    "operation": "CALL",
                    "output": "",
                    "revert": false,
                    "revertMessage": "",
                    "selector": "0x33d6247d",
                    "status": true,
                    "value": "0"
                },
                "nodeType": 0
            },
            "4": {
                "invocation": {
                    "address": "0xbc1ea504fc54d078514efcca1f6860b5219b6bc3",
                    "callData": "0x6a95312f3a1f63eb0ce7e7e268f554e42b7b24b88a8d7f217771346c54336b5a",
                    "decodedMethod": {
                        "callParams": [
                            {
                                "name": "newRoot",
                                "type": "bytes32",
                                "value": "0x6a95312f3a1f63eb0ce7e7e268f554e42b7b24b88a8d7f217771346c54336b5a"
                            }
                        ],
                        "constructorArguments": "",
                        "name": "updateExitRoot",
                        "returnParams": [],
                        "signature": "updateExitRoot(bytes32)"
                    },
                    "errorInfo": "",
                    "fromAddress": "0x580bda1e7a0cfae92fa7f6c20a3794f169ce3cfb",
                    "gasUsed": 31351,
                    "id": 4,
                    "methodDecoded": true,
                    "operation": "DELEGATECALL",
                    "output": "",
                    "revert": false,
                    "revertMessage": "",
                    "selector": "0x33d6247d",
                    "status": true,
                    "value": "0"
                },
                "nodeType": 0
            },
            "5": {
                "event": {
                    "contract": "0x580bda1e7a0cfae92fa7f6c20a3794f169ce3cfb",
                    "decodedLog": {
                        "name": "UpdateGlobalExitRoot",
                        "params": [
                            {
                                "name": "mainnetExitRoot",
                                "type": "bytes32",
                                "value": "0x6a95312f3a1f63eb0ce7e7e268f554e42b7b24b88a8d7f217771346c54336b5a"
                            },
                            {
                                "name": "rollupExitRoot",
                                "type": "bytes32",
                                "value": "0xee0adbd128e64604eb9a222561f7b108f0bb3edada6264b699a2af187f0f6741"
                            }
                        ],
                        "signature": "UpdateGlobalExitRoot(bytes32,bytes32)"
                    },
                    "id": 5,
                    "logData": "0x",
                    "logDecoded": true,
                    "operation": "EVENT",
                    "revert": false,
                    "status": true,
                    "topics": [
                        "0x61014378f82a0d809aefaf87a8ac9505b89c321808287a6e7810f29304c1fce3",
                        "0x6a95312f3a1f63eb0ce7e7e268f554e42b7b24b88a8d7f217771346c54336b5a",
                        "0xee0adbd128e64604eb9a222561f7b108f0bb3edada6264b699a2af187f0f6741"
                    ]
                },
                "nodeType": 1
            }
        },
        "gasFlame": [
            {
                "children": [
                    {
                        "children": [
                            {
                                "children": [],
                                "depth": 0,
                                "name": "Initial Gas",
                                "value": 22308
                            },
                            {
                                "children": [
                                    {
                                        "children": [
                                            {
                                                "children": [
                                                    {
                                                        "children": [],
                                                        "depth": 3,
                                                        "name": "updateExitRoot",
                                                        "value": 31351
                                                    }
                                                ],
                                                "depth": 2,
                                                "name": "updateExitRoot",
                                                "value": 38667
                                            }
                                        ],
                                        "depth": 1,
                                        "name": "bridgeAsset",
                                        "value": 103192
                                    }
                                ],
                                "depth": 0,
                                "name": "Executed Gas",
                                "value": 110462
                            }
                        ],
                        "depth": -1,
                        "name": "Actual Gas Used",
                        "value": 129970
                    },
                    {
                        "children": [],
                        "depth": -1,
                        "name": "Refunded Gas",
                        "value": 2800
                    }
                ],
                "depth": -2,
                "name": "Total Gas",
                "value": 132770
            }
        ],
        "isConfirmed": true,
        "mainTrace": [
            {
                "children": [
                    {
                        "children": [
                            {
                                "children": [
                                    {
                                        "children": [],
                                        "depth": 2,
                                        "id": 2,
                                        "order": 2
                                    },
                                    {
                                        "children": [
                                            {
                                                "children": [
                                                    {
                                                        "children": [],
                                                        "depth": 4,
                                                        "id": 5,
                                                        "order": 5
                                                    }
                                                ],
                                                "depth": 3,
                                                "id": 4,
                                                "order": 4
                                            }
                                        ],
                                        "depth": 2,
                                        "id": 3,
                                        "order": 3
                                    }
                                ],
                                "depth": 1,
                                "id": 1,
                                "order": 1
                            }
                        ],
                        "depth": 0,
                        "id": 0,
                        "order": 0
                    }
                ],
                "depth": -1,
                "id": -1,
                "order": -1
            }
        ],
        "mainTraceNodeCount": 6,
        "parentIdMap": {
            "0": -1,
            "1": 0,
            "2": 1,
            "3": 1,
            "4": 3,
            "5": 4
        },
        "tidyTrace": [
            {
                "children": [
                    {
                        "children": [
                            {
                                "children": [
                                    {
                                        "children": [],
                                        "depth": 2,
                                        "id": 2,
                                        "order": 2
                                    },
                                    {
                                        "children": [
                                            {
                                                "children": [
                                                    {
                                                        "children": [],
                                                        "depth": 4,
                                                        "id": 5,
                                                        "order": 5
                                                    }
                                                ],
                                                "depth": 3,
                                                "id": 4,
                                                "order": 4
                                            }
                                        ],
                                        "depth": 2,
                                        "id": 3,
                                        "order": 3
                                    }
                                ],
                                "depth": 1,
                                "id": 1,
                                "order": 1
                            }
                        ],
                        "depth": 0,
                        "id": 0,
                        "order": 0
                    }
                ],
                "depth": -1,
                "id": -1,
                "order": -1
            }
        ],
        "tidyTraceNodeCount": 6
    },
    "state_change": {
        "stateChanges": [
            {
                "address": "0x2a3dd3eb832af982ec71669e178424b10dca2ede",
                "erc": "",
                "slots": [
                    {
                        "current": "0x000000000000000000000000000000000000000000000000000000000001307c",
                        "key": "0x0000000000000000000000000000000000000000000000000000000000000053",
                        "prev": "0x000000000000000000000000000000000000000000000000000000000001307b"
                    },
                    {
                        "current": "0x911b68a58a74146a747825781313ff445c0c8b0996b46171ed694e7a52200b8c",
                        "key": "0x0000000000000000000000000000000000000000000000000000000000000035",
                        "prev": "0x85d798164f06c0fb839f47db3851648cb76283cbe03ba19acea1bc162b7a88d9"
                    },
                    {
                        "current": "0x0000000001307c580bda1e7a0cfae92fa7f6c20a3794f169ce3cfb0000000000",
                        "key": "0x0000000000000000000000000000000000000000000000000000000000000068",
                        "prev": "0x0000000001307b580bda1e7a0cfae92fa7f6c20a3794f169ce3cfb0000000000"
                    }
                ],
                "storageVariables": [
                    {
                        "name": "depositCount",
                        "type": "uint256",
                        "value": {
                            "current": "77948",
                            "prev": "77947",
                            "typeTag": 1
                        }
                    },
                    {
                        "name": "isEmergencyState",
                        "type": "bool",
                        "value": {
                            "current": "false",
                            "prev": "false",
                            "typeTag": 1
                        }
                    },
                    {
                        "name": "networkID",
                        "type": "uint32",
                        "value": {
                            "current": "0",
                            "prev": "0",
                            "typeTag": 1
                        }
                    },
                    {
                        "name": "globalExitRootManager",
                        "type": "contract IBasePolygonZkEVMGlobalExitRoot",
                        "value": {
                            "current": "0x580bda1e7a0cfae92fa7f6c20a3794f169ce3cfb",
                            "prev": "0x580bda1e7a0cfae92fa7f6c20a3794f169ce3cfb",
                            "typeTag": 1
                        }
                    },
                    {
                        "name": "lastUpdatedDepositCount",
                        "type": "uint32",
                        "value": {
                            "current": "77948",
                            "prev": "77947",
                            "typeTag": 1
                        }
                    }
                ]
            },
            {
                "address": "0x580bda1e7a0cfae92fa7f6c20a3794f169ce3cfb",
                "erc": "",
                "slots": [
                    {
                        "current": "0x6a95312f3a1f63eb0ce7e7e268f554e42b7b24b88a8d7f217771346c54336b5a",
                        "key": "0x0000000000000000000000000000000000000000000000000000000000000001",
                        "prev": "0x281efb830705924edd570000f89b571a7397bc799425c75f8363bc0a89aa6d76"
                    },
                    {
                        "current": "0x0000000000000000000000000000000000000000000000000000000064b79e2f",
                        "key": "0xec7973e023092905f93dc748df33a8afcbba49f96fcc4ec7770b60adf91c0f57",
                        "prev": "0x0000000000000000000000000000000000000000000000000000000000000000"
                    }
                ],
                "storageVariables": [
                    {
                        "name": "lastMainnetExitRoot",
                        "type": "bytes32",
                        "value": {
                            "current": "0x6a95312f3a1f63eb0ce7e7e268f554e42b7b24b88a8d7f217771346c54336b5a",
                            "prev": "0x281efb830705924edd570000f89b571a7397bc799425c75f8363bc0a89aa6d76",
                            "typeTag": 1
                        }
                    },
                    {
                        "name": "globalExitRootMap",
                        "type": "mapping(bytes32 => uint256)",
                        "value": {
                            "pairs": [
                                {
                                    "key": "0x780f91d176436437e121ec77fe5c7cbac121b78c855c3c752887e184ead6fa0e",
                                    "value": {
                                        "current": "1689755183",
                                        "prev": "0",
                                        "typeTag": 1
                                    }
                                }
                            ],
                            "typeTag": 4
                        }
                    }
                ]
            }
        ]
    }
}