{
    "balance_change": {
        "balanceChanges": [
            {
                "account": "0xfbb1b73c4f0bda4f67dca266ce6ef42f520fbb98",
                "assets": [
                    {
                        "address": "0xe0b7927c4af23765cb51314a0e0521a9645f0e2a",
                        "amount": "150",
                        "iconUrl": "https://assets.blocksec.com/icon/f5032e9ee4b301a5ba025b77aecc35e4e2fb12b0b9cc736179d8b8f75ab1ee5b.png",
                        "isERC1155": false,
                        "isERC721": false,
                        "sign": true,
                        "value": ""
                    }
                ]
            },
            {
                "account": "0x4648ca122ddb515dbc4810e9741aa11a4838e3a8",
                "assets": [
                    {
                        "address": "0xe0b7927c4af23765cb51314a0e0521a9645f0e2a",
                        "amount": "150",
                        "iconUrl": "https://assets.blocksec.com/icon/f5032e9ee4b301a5ba025b77aecc35e4e2fb12b0b9cc736179d8b8f75ab1ee5b.png",
                        "isERC1155": false,
                        "isERC721": false,
                        "sign": false,
                        "value": ""
                    }
                ]
            }
        ]
    },
    "profile": {
        "basic_info": {
            "baseFee": "",
            "blockNumber": 2341373,
            "callData": "0x23b872dd0000000000000000000000004648ca122ddb515dbc4810e9741aa11a4838e3a8000000000000000000000000fbb1b73c4f0bda4f67dca266ce6ef42f520fbb9800000000000000000000000000000000000000000000000000000022ecb25c00",
            "debugEnable": true,
            "errorInfo": "",
            "eventCount": 1,
            "feeRecipient": "0x2a65aca4d5fc5b5c859090a6c34d164135398226",
            "formatValue": "0",
            "gasLimit": 193376,
            "gasPrice": "20",
            "gasUsed": 28376,
            "intTxnCount": 0,
            "internalRevert": false,
            "internalRevertMessage": "",
            "isContractCreation": false,
            "isFlashloan": false,
            "maxFee": "",
            "nonce": 48091,
            "overwritedBlockNumber": -1,
            "priorityFee": "",
            "receiver": "0xe0b7927c4af23765cb51314a0e0521a9645f0e2a",
            "revertMessage": "",
            "sender": "0xfbb1b73c4f0bda4f67dca266ce6ef42f520fbb98",
            "simulationEnable": true,
            "sourceTxnHash": "0x5a303f22b8131e6d6a9bfce061ccf8cbe79a42c6a1d5a4efc02906258b571d6b",
            "status": true,
            "timestamp": "2016-09-28T08:36:21Z",
            "transactionFee": "0.00056752",
            "txnHash": "0x5a303f22b8131e6d6a9bfce061ccf8cbe79a42c6a1d5a4efc02906258b571d6b",
            "txnIndex": 1,
            "type": 0,
            "value": "0"
        },
        "fund_flow": [
            {
                "amount": "150",
                "from": "0x4648ca122ddb515dbc4810e9741aa11a4838e3a8",
                "id": 1,
                "isERC1155": false,
                "isERC721": false,
                "isReverted": false,
                "order": 1,
                "to": "0xfbb1b73c4f0bda4f67dca266ce6ef42f520fbb98",
                "token": "0xe0b7927c4af23765cb51314a0e0521a9645f0e2a"
            }
        ],
        "token_infos": [
            {
                "address": "0xc02aaa39b223fe8d0a0e5c4f27ead9083c756cc2",
                "decimals": 18
            },
            {
                "address": "0xe0b7927c4af23765cb51314a0e0521a9645f0e2a",
                "decimals": 9
            },
            {
                "address": "0xeeeeeeeeeeeeeeeeeeeeeeeeeeeeeeeeeeeeeeee",
                "decimals": 18
            }
        ]
    },
    "address_label": {
        "labels": [
            {
                "address": "0x0000000000000000000000000000000000000003",
                "label": "Precompiled"
            },
            {
                "address": "0x0000000000000000000000000000000000000004",
                "label": "Precompiled"
            },
            {
                "address": "0xeeeeeeeeeeeeeeeeeeeeeeeeeeeeeeeeeeeeeeee",
                "label": "Ether"
            },
            {
                "address": "0xfbb1b73c4f0bda4f67dca266ce6ef42f520fbb98",
                "label": "Bittrex"
            },
            {
                "address": "0x4648ca122ddb515dbc4810e9741aa11a4838e3a8",
                "label": "BITTREX"
            },
            {
                "address": "0xe0b7927c4af23765cb51314a0e0521a9645f0e2a",
                "label": "DigixDAO: DGD Token"
            },
            {
                "address": "0x0000000000000000000000000000000000000001",
                "label": "Precompiled"
            },
            {
                "address": "0x0000000000000000000000000000000000000002",
                "label": "Precompiled"
            }
        ]
    },
    "trace": {
        "accountLabels": null,
        "dataMap": {
            "-1": {
                "invocation": {
                    "address": "0xfbb1b73c4f0bda4f67dca266ce6ef42f520fbb98",
                    "callData": "",
                    "decodedMethod": null,
                    "errorInfo": "",
                    "fromAddress": "",
                    "gasUsed": 0,
                    "id": -1,
                    "methodDecoded": false,
                    "operation": "",
                    "output": "",
                    "revert": false,
                    "revertMessage": "",
                    "selector": "",
                    "status": false,
                    "value": ""
                },
                "nodeType": 0
            },
            "0": {
                "invocation": {
                    "address": "0xe0b7927c4af23765cb51314a0e0521a9645f0e2a",
                    "callData": "0x0000000000000000000000004648ca122ddb515dbc4810e9741aa11a4838e3a8000000000000000000000000fbb1b73c4f0bda4f67dca266ce6ef42f520fbb9800000000000000000000000000000000000000000000000000000022ecb25c00",
                    "decodedMethod": {
                        "callParams": [
                            {
                                "name": "_from",
                                "type": "address",
                                "value": "0x4648ca122ddb515dbc4810e9741aa11a4838e3a8"
                            },
                            {
                                "name": "_to",
                                "type": "address",
                                "value": "0xfbb1b73c4f0bda4f67dca266ce6ef42f520fbb98"
                            },
                            {
                                "decimalAvailable": true,
                                "name": "_value",
                                "type": "uint256",
                                "value": "150,000,000,000"
                            }
                        ],
                        "constructorArguments": "",
                        "name": "transferFrom",
                        "returnParams": [
                            {
                                "name": "success",
                                "type": "bool",
                                "value": true
                            }
                        ],
                        "signature": "transferFrom(address,address,uint256)"
                    },
                    "errorInfo": "",
                    "fromAddress": "0xfbb1b73c4f0bda4f67dca266ce6ef42f520fbb98",
                    "gasUsed": 28376,
                    "id": 0,
                    "methodDecoded": true,
                    "operation": "CALL",
                    "output": "0x0000000000000000000000000000000000000000000000000000000000000001",
                    "revert": false,
                    "revertMessage": "",
                    "selector": "0x23b872dd",
                    "status": true,
                    "value": "0"
                },
                "nodeType": 0
            },
            "1": {
                "event": {
                    "contract": "0xe0b7927c4af23765cb51314a0e0521a9645f0e2a",
                    "decodedLog": {
                        "name": "Transfer",
                        "params": [
                            {
                                "name": "_from",
                                "type": "address",
                                "value": "0x4648ca122ddb515dbc4810e9741aa11a4838e3a8"
                            },
                            {
                                "name": "_to",
                                "type": "address",
                                "value": "0xfbb1b73c4f0bda4f67dca266ce6ef42f520fbb98"
                            },
                            {
                                "decimalAvailable": true,
                                "name": "_value",
                                "type": "uint256",
                                "value": "150,000,000,000"
                            }
                        ],
                        "signature": "Transfer(address,address,uint256)"
                    },
                    "id": 1,
                    "logData": "0x00000000000000000000000000000000000000000000000000000022ecb25c00",
                    "logDecoded": true,
                    "operation": "EVENT",
                    "revert": false,
                    "status": true,
                    "topics": [
                        "0xddf252ad1be2c89b69c2b068fc378daa952ba7f163c4a11628f55a4df523b3ef",
                        "0x0000000000000000000000004648ca122ddb515dbc4810e9741aa11a4838e3a8",
                        "0x000000000000000000000000fbb1b73c4f0bda4f67dca266ce6ef42f520fbb98"
                    ]
                },
                "nodeType": 1
            }
        },
        "gasFlame": [
            {
                "children": [
                    {
                        "children": [
                            {
                                "children": [],
                                "depth": 0,
                                "name": "Initial Gas",
                                "value": 24472
                            },
                            {
                                "children": [],
                                "depth": 0,
                                "name": "Executed Gas",
                                "value": 18904
                            }
                        ],
                        "depth": -1,
                        "name": "Actual Gas Used",
                        "value": 28376
                    },
                    {
                        "children": [],
                        "depth": -1,
                        "name": "Refunded Gas",
                        "value": 15000
                    }
                ],
                "depth": -2,
                "name": "Total Gas",
                "value": 43376
            }
        ],
        "isConfirmed": true,
        "mainTrace": [
            {
                "children": [
                    {
                        "children": [
                            {
                                "children": [],
                                "depth": 1,
                                "id": 1,
                                "order": 1
                            }
                        ],
                        "depth": 0,
                        "id": 0,
                        "order": 0
                    }
                ],
                "depth": -1,
                "id": -1,
                "order": -1
            }
        ],
        "mainTraceNodeCount": 2,
        "parentIdMap": {
            "0": -1,
            "1": 0
        },
        "tidyTrace": [
            {
                "children": [
                    {
                        "children": [
                            {
                                "children": [],
                                "depth": 1,
                                "id": 1,
                                "order": 1
                            }
                        ],
                        "depth": 0,
                        "id": 0,
                        "order": 0
                    }
                ],
                "depth": -1,
                "id": -1,
                "order": -1
            }
        ],
        "tidyTraceNodeCount": 2
    },
    "state_change": {
        "stateChanges": [
            {
                "address": "0xe0b7927c4af23765cb51314a0e0521a9645f0e2a",
                "erc": "ERC-20",
                "slots": [
                    {
                        "current": "0x0000000000000000000000000000000000000000000000000000525db727c4fc",
                        "key": "0xc68c198502e158c8f75e478e0edf18ae3a0109e8e3b0aca0229ff86173878c75",
                        "prev": "0x0000000000000000000000000000000000000000000000000000523aca7568fc"
                    },
                    {
                        "current": "0x0000000000000000000000000000000000000000000000000000000000000000",
                        "key": "0x71292a8e9cce3f858141ce805d613bb3d7b79b8eefa215f7b2c5e13afbb550e7",
                        "prev": "0x00000000000000000000000000000000000000000000000000000022ecb25c00"
                    },
                    {
                        "current": "0xfffffffffffffffffffffffffffffffffffffffffffffffffffffcbeb2f9f1ff",
                        "key": "0x1289f069dc6f848604d58bb7fa05ab7fd0ae5f33bdc50c5b598336f563e9ed23",
                        "prev": "0xfffffffffffffffffffffffffffffffffffffffffffffffffffffce19fac4dff"
                    }
                ],
                "storageVariables": []
            }
        ]
    }
}