{
    "balance_change": {
        "balanceChanges": [
            {
                "account": "0xbe35c525a6f1c6c2f2400eb7a80e92f9d728ee66",
                "assets": [
                    {
                        "address": "0xbc4162d53f945266684f4e5e48d545f206bc1ca5",
                        "amount": "40",
                        "iconUrl": "",
                        "isERC1155": false,
                        "isERC721": false,
                        "sign": false,
                        "value": ""
                    }
                ]
            },
            {
                "account": "0xd72fd758b40d7e31975875151fe32cd9e75cff90",
                "assets": [
                    {
                        "address": "0xbc4162d53f945266684f4e5e48d545f206bc1ca5",
                        "amount": "40",
                        "iconUrl": "",
                        "isERC1155": false,
                        "isERC721": false,
                        "sign": true,
                        "value": ""
                    }
                ]
            }
        ]
    },
    "profile": {
        "basic_info": {
            "baseFee": "",
            "blockNumber": 8449669,
            "callData": "0xa9059cbb000000000000000000000000d72fd758b40d7e31975875151fe32cd9e75cff900000000000000000000000000000000000000000000000022b1c8c1227a00000",
            "debugEnable": true,
            "errorInfo": "",
            "eventCount": 1,
            "feeRecipient": "0x829bd824b016326a401d083b33d092293333a830",
            "formatValue": "0",
            "gasLimit": 100000,
            "gasPrice": "31",
            "gasUsed": 37134,
            "intTxnCount": 0,
            "internalRevert": false,
            "internalRevertMessage": "",
            "isContractCreation": false,
            "isFlashloan": false,
            "maxFee": "",
            "nonce": 15324,
            "overwritedBlockNumber": -1,
            "priorityFee": "",
            "receiver": "0xbc4162d53f945266684f4e5e48d545f206bc1ca5",
            "revertMessage": "",
            "sender": "0xbe35c525a6f1c6c2f2400eb7a80e92f9d728ee66",
            "simulationEnable": true,
            "sourceTxnHash": "0x5a5f8de676f7808eb5220b32477e3271f97257a538451c1e3ee9236f59138cd0",
            "status": true,
            "timestamp": "2019-08-30T05:27:27Z",
            "transactionFee": "0.001151154",
            "txnHash": "0x5a5f8de676f7808eb5220b32477e3271f97257a538451c1e3ee9236f59138cd0",
            "txnIndex": 56,
            "type": 0,
            "value": "0"
        },
        "fund_flow": [
            {
                "amount": "40",
                "from": "0xbe35c525a6f1c6c2f2400eb7a80e92f9d728ee66",
                "id": 1,
                "isERC1155": false,
                "isERC721": false,
                "isReverted": false,
                "order": 1,
                "to": "0xd72fd758b40d7e31975875151fe32cd9e75cff90",
                "token": "0xbc4162d53f945266684f4e5e48d545f206bc1ca5"
            }
        ],
        "token_infos": [
            {
                "address": "0xc02aaa39b223fe8d0a0e5c4f27ead9083c756cc2",
                "decimals": 18
            },
            {
                "address": "0xeeeeeeeeeeeeeeeeeeeeeeeeeeeeeeeeeeeeeeee",
                "decimals": 18
            },
            {
                "address": "0xbc4162d53f945266684f4e5e48d545f206bc1ca5",
                "decimals": 18
            }
        ]
    },
    "address_label": {
        "labels": [
            {
                "address": "0xeeeeeeeeeeeeeeeeeeeeeeeeeeeeeeeeeeeeeeee",
                "label": "Ether"
            },
            {
                "address": "0xbc4162d53f945266684f4e5e48d545f206bc1ca5",
                "label": "ATB Banknote (ATB)"
            },
            {
                "address": "0x0000000000000000000000000000000000000001",
                "label": "Precompiled"
            },
            {
                "address": "0x0000000000000000000000000000000000000002",
                "label": "Precompiled"
            },
            {
                "address": "0x0000000000000000000000000000000000000003",
                "label": "Precompiled"
            },
            {
                "address": "0x0000000000000000000000000000000000000004",
                "label": "Precompiled"
            }
        ]
    },
    "trace": {
        "accountLabels": null,
        "dataMap": {
            "-1": {
                "invocation": {
                    "address": "0xbe35c525a6f1c6c2f2400eb7a80e92f9d728ee66",
                    "callData": "",
                    "decodedMethod": null,
                    "errorInfo": "",
                    "fromAddress": "",
                    "gasUsed": 0,
                    "id": -1,
                    "methodDecoded": false,
                    "operation": "",
                    "output": "",
                    "revert": false,
                    "revertMessage": "",
                    "selector": "",
                    "status": false,
                    "value": ""
                },
                "nodeType": 0
            },
            "0": {
                "invocation": {
                    "address": "0xbc4162d53f945266684f4e5e48d545f206bc1ca5",
                    "callData": "0x000000000000000000000000d72fd758b40d7e31975875151fe32cd9e75cff900000000000000000000000000000000000000000000000022b1c8c1227a00000",
                    "decodedMethod": {
                        "callParams": [
                            {
                                "name": "recipient",
                                "type": "address",
                                "value": "0xd72fd758b40d7e31975875151fe32cd9e75cff90"
                            },
                            {
                                "decimalAvailable": true,
                                "name": "amount",
                                "type": "uint256",
                                "value": "40,000,000,000,000,000,000"
                            }
                        ],
                        "constructorArguments": "",
                        "name": "transfer",
                        "returnParams": [
                            {
                                "name": "",
                                "type": "bool",
                                "value": true
                            }
                        ],
                        "signature": "transfer(address,uint256)"
                    },
                    "errorInfo": "",
                    "fromAddress": "0xbe35c525a6f1c6c2f2400eb7a80e92f9d728ee66",
                    "gasUsed": 37134,
                    "id": 0,
                    "methodDecoded": true,
                    "operation": "CALL",
                    "output": "0x0000000000000000000000000000000000000000000000000000000000000001",
                    "revert": false,
                    "revertMessage": "",
                    "selector": "0xa9059cbb",
                    "status": true,
                    "value": "0"
                },
                "nodeType": 0
            },
            "1": {
                "event": {
                    "contract": "0xbc4162d53f945266684f4e5e48d545f206bc1ca5",
                    "decodedLog": {
                        "name": "Transfer",
                        "params": [
                            {
                                "name": "from",
                                "type": "address",
                                "value": "0xbe35c525a6f1c6c2f2400eb7a80e92f9d728ee66"
                            },
                            {
                                "name": "to",
                                "type": "address",
                                "value": "0xd72fd758b40d7e31975875151fe32cd9e75cff90"
                            },
                            {
                                "decimalAvailable": true,
                                "name": "value",
                                "type": "uint256",
                                "value": "40,000,000,000,000,000,000"
                            }
                        ],
                        "signature": "Transfer(address,address,uint256)"
                    },
                    "id": 1,
                    "logData": "0x0000000000000000000000000000000000000000000000022b1c8c1227a00000",
                    "logDecoded": true,
                    "operation": "EVENT",
                    "revert": false,
                    "status": true,
                    "topics": [
                        "0xddf252ad1be2c89b69c2b068fc378daa952ba7f163c4a11628f55a4df523b3ef",
                        "0x000000000000000000000000be35c525a6f1c6c2f2400eb7a80e92f9d728ee66",
                        "0x000000000000000000000000d72fd758b40d7e31975875151fe32cd9e75cff90"
                    ]
                },
                "nodeType": 1
            }
        },
        "gasFlame": [
            {
                "children": [
                    {
                        "children": [
                            {
                                "children": [],
                                "depth": 0,
                                "name": "Initial Gas",
                                "value": 23256
                            },
                            {
                                "children": [],
                                "depth": 0,
                                "name": "Executed Gas",
                                "value": 13878
                            }
                        ],
                        "depth": -1,
                        "name": "Actual Gas Used",
                        "value": 37134
                    },
                    {
                        "children": [],
                        "depth": -1,
                        "name": "Refunded Gas",
                        "value": 0
                    }
                ],
                "depth": -2,
                "name": "Total Gas",
                "value": 37134
            }
        ],
        "isConfirmed": true,
        "mainTrace": [
            {
                "children": [
                    {
                        "children": [
                            {
                                "children": [],
                                "depth": 1,
                                "id": 1,
                                "order": 1
                            }
                        ],
                        "depth": 0,
                        "id": 0,
                        "order": 0
                    }
                ],
                "depth": -1,
                "id": -1,
                "order": -1
            }
        ],
        "mainTraceNodeCount": 2,
        "parentIdMap": {
            "0": -1,
            "1": 0
        },
        "tidyTrace": [
            {
                "children": [
                    {
                        "children": [
                            {
                                "children": [],
                                "depth": 1,
                                "id": 1,
                                "order": 1
                            }
                        ],
                        "depth": 0,
                        "id": 0,
                        "order": 0
                    }
                ],
                "depth": -1,
                "id": -1,
                "order": -1
            }
        ],
        "tidyTraceNodeCount": 2
    },
    "state_change": {
        "stateChanges": [
            {
                "address": "0xbc4162d53f945266684f4e5e48d545f206bc1ca5",
                "erc": "",
                "slots": [
                    {
                        "current": "0x00000000000000000000000000000000000000000000000b5600ee615c9e8000",
                        "key": "0xadea14510fc29549cc81cc77b0fa1284b75ae59f0ece3b8b821c85d284fb711a",
                        "prev": "0x0000000000000000000000000000000000000000000000092ae4624f34fe8000"
                    },
                    {
                        "current": "0x00000000000000000000000000000000000000000000984dab2e49e54669f111",
                        "key": "0x6f4d6992d4656eccb0f7cce7e016ec0fc9cf738ce0484c2d7df5d1d14bd0f554",
                        "prev": "0x00000000000000000000000000000000000000000000984fd64ad5f76e09f111"
                    }
                ],
                "storageVariables": []
            }
        ]
    }
}