{
    "balance_change": {
        "balanceChanges": []
    },
    "profile": {
        "basic_info": {
            "baseFee": "",
            "blockNumber": 9916505,
            "callData": "0xef343588000000000000000000000000000000000000000000000000000000000001e802000000000000000000000000000000000000000000000000058cdaabbfeda05d00000000000000000000000000000000000000000000000000000000000027100000000000000000000000000000000000000000000000000000000f09813be6000000000000000000000000000000000000000000000000000000000001e802000000000000000000000000000000000000000000000000000000000000001a00000000000000000000000000000000000000000000000000038d7ea4c68000000000000000000000000000000000000000000000000000001f6b384ce21b0d00000000000000000000000028b5e12cce51f15594b0b91d5b5adaa70f684a0200000000000000000000000000000000000000000000000000000000000000000000000000000000000000003df35a1756dc17bc24f41714698dae416e830e220000000000000000000000005b0482533320f4087ac589a63a06981759c2bea8000000000000000000000000000000000000000000000000000000000000001c000000000000000000000000000000000000000000000000000000000000001b5fa96496f5a5aa714cff83fea94cc4b9f795669a0bbf934add1d24d046c17294446bbefa89baa0393d16ec56506d1c95ac5f9f0c4b840de22ebd0ee37ffca709c5a16efc7e731e95f8568e320ecbe822d95cf365c3b17ddca09504cb5efd8e5748d582e47e0944d0b1671b8219fed2b2e99e3a4bd5b7bcac20b3087bed8af717",
            "debugEnable": true,
            "errorInfo": "",
            "eventCount": 0,
            "feeRecipient": "0x2a5994b501e6a560e727b6c2de5d856396aadd38",
            "formatValue": "0",
            "gasLimit": 400000,
            "gasPrice": "15",
            "gasUsed": 137552,
            "intTxnCount": 2,
            "internalRevert": false,
            "internalRevertMessage": "",
            "isContractCreation": false,
            "isFlashloan": false,
            "maxFee": "",
            "nonce": 5002604,
            "overwritedBlockNumber": -1,
            "priorityFee": "",
            "receiver": "0x2a0c0dbecc7e4d658f48e01e3fa353f44050c208",
            "revertMessage": "",
            "sender": "0xa7a7899d944fe658c4b0a1803bab2f490bd3849e",
            "simulationEnable": true,
            "sourceTxnHash": "0x5a3be6ce02334d36d184b783cfe68852de8cb6f53a40473fc02b736d6f8c0dfd",
            "status": true,
            "timestamp": "2020-04-21T15:05:14Z",
            "transactionFee": "0.00206328",
            "txnHash": "0x5a3be6ce02334d36d184b783cfe68852de8cb6f53a40473fc02b736d6f8c0dfd",
            "txnIndex": 11,
            "type": 0,
            "value": "0"
        },
        "fund_flow": [],
        "token_infos": [
            {
                "address": "0xeeeeeeeeeeeeeeeeeeeeeeeeeeeeeeeeeeeeeeee",
                "decimals": 18
            },
            {
                "address": "0xc02aaa39b223fe8d0a0e5c4f27ead9083c756cc2",
                "decimals": 18
            }
        ]
    },
    "address_label": {
        "labels": [
            {
                "address": "0x0000000000000000000000000000000000000002",
                "label": "Precompiled"
            },
            {
                "address": "0xeeeeeeeeeeeeeeeeeeeeeeeeeeeeeeeeeeeeeeee",
                "label": "Ether"
            },
            {
                "address": "0xa7a7899d944fe658c4b0a1803bab2f490bd3849e",
                "label": "IDEX 2"
            },
            {
                "address": "0x2a0c0dbecc7e4d658f48e01e3fa353f44050c208",
                "label": "IDEX"
            },
            {
                "address": "0x0000000000000000000000000000000000000001",
                "label": "Precompiled"
            },
            {
                "address": "0x0000000000000000000000000000000000000003",
                "label": "Precompiled"
            },
            {
                "address": "0x0000000000000000000000000000000000000004",
                "label": "Precompiled"
            },
            {
                "address": "0x28b5e12cce51f15594b0b91d5b5adaa70f684a02",
                "label": "Napoleon Group: NPX Token"
            },
            {
                "address": "0x0000000000000000000000000000000000000000",
                "label": "Null Address"
            }
        ]
    },
    "trace": {
        "accountLabels": null,
        "dataMap": {
            "-1": {
                "invocation": {
                    "address": "0xa7a7899d944fe658c4b0a1803bab2f490bd3849e",
                    "callData": "",
                    "decodedMethod": null,
                    "errorInfo": "",
                    "fromAddress": "",
                    "gasUsed": 0,
                    "id": -1,
                    "methodDecoded": false,
                    "operation": "",
                    "output": "",
                    "revert": false,
                    "revertMessage": "",
                    "selector": "",
                    "status": false,
                    "value": ""
                },
                "nodeType": 0
            },
            "0": {
                "invocation": {
                    "address": "0x2a0c0dbecc7e4d658f48e01e3fa353f44050c208",
                    "callData": "0x000000000000000000000000000000000000000000000000000000000001e802000000000000000000000000000000000000000000000000058cdaabbfeda05d00000000000000000000000000000000000000000000000000000000000027100000000000000000000000000000000000000000000000000000000f09813be6000000000000000000000000000000000000000000000000000000000001e802000000000000000000000000000000000000000000000000000000000000001a00000000000000000000000000000000000000000000000000038d7ea4c68000000000000000000000000000000000000000000000000000001f6b384ce21b0d00000000000000000000000028b5e12cce51f15594b0b91d5b5adaa70f684a0200000000000000000000000000000000000000000000000000000000000000000000000000000000000000003df35a1756dc17bc24f41714698dae416e830e220000000000000000000000005b0482533320f4087ac589a63a06981759c2bea8000000000000000000000000000000000000000000000000000000000000001c000000000000000000000000000000000000000000000000000000000000001b5fa96496f5a5aa714cff83fea94cc4b9f795669a0bbf934add1d24d046c17294446bbefa89baa0393d16ec56506d1c95ac5f9f0c4b840de22ebd0ee37ffca709c5a16efc7e731e95f8568e320ecbe822d95cf365c3b17ddca09504cb5efd8e5748d582e47e0944d0b1671b8219fed2b2e99e3a4bd5b7bcac20b3087bed8af717",
                    "decodedMethod": {
                        "callParams": [
                            {
                                "name": "tradeValues",
                                "type": "uint256[8]",
                                "value": [
                                    "124,930",
                                    "399,934,898,123,415,645",
                                    "10,000",
                                    "64,583,973,862",
                                    "124,930",
                                    "26",
                                    "1,000,000,000,000,000",
                                    "8,843,613,830,257,421"
                                ]
                            },
                            {
                                "name": "tradeAddresses",
                                "type": "address[4]",
                                "value": [
                                    "0x28b5e12cce51f15594b0b91d5b5adaa70f684a02",
                                    "0x0000000000000000000000000000000000000000",
                                    "0x3df35a1756dc17bc24f41714698dae416e830e22",
                                    "0x5b0482533320f4087ac589a63a06981759c2bea8"
                                ]
                            },
                            {
                                "name": "v",
                                "type": "uint8[2]",
                                "value": [
                                    "28",
                                    "27"
                                ]
                            },
                            {
                                "name": "rs",
                                "type": "bytes32[4]",
                                "value": [
                                    "0x5fa96496f5a5aa714cff83fea94cc4b9f795669a0bbf934add1d24d046c17294",
                                    "0x446bbefa89baa0393d16ec56506d1c95ac5f9f0c4b840de22ebd0ee37ffca709",
                                    "0xc5a16efc7e731e95f8568e320ecbe822d95cf365c3b17ddca09504cb5efd8e57",
                                    "0x48d582e47e0944d0b1671b8219fed2b2e99e3a4bd5b7bcac20b3087bed8af717"
                                ]
                            }
                        ],
                        "constructorArguments": "",
                        "name": "trade",
                        "returnParams": [
                            {
                                "name": "success",
                                "type": "bool",
                                "value": false
                            }
                        ],
                        "signature": "trade(uint256[8],address[4],uint8[2],bytes32[4])"
                    },
                    "errorInfo": "",
                    "fromAddress": "0xa7a7899d944fe658c4b0a1803bab2f490bd3849e",
                    "gasUsed": 137552,
                    "id": 0,
                    "methodDecoded": true,
                    "operation": "CALL",
                    "output": "0x0000000000000000000000000000000000000000000000000000000000000000",
                    "revert": false,
                    "revertMessage": "",
                    "selector": "0xef343588",
                    "status": true,
                    "value": "0"
                },
                "nodeType": 0
            },
            "1": {
                "invocation": {
                    "address": "0x0000000000000000000000000000000000000001",
                    "callData": "0xf58b0ec025cff8e8eab8de42b0d7f05324821ab891e0af68aa07e131000000000000000000000000000000000000000000000000000000000000001c5fa96496f5a5aa714cff83fea94cc4b9f795669a0bbf934add1d24d046c17294446bbefa89baa0393d16ec56506d1c95ac5f9f0c4b840de22ebd0ee37ffca709",
                    "decodedMethod": {
                        "callParams": [
                            {
                                "name": "hash",
                                "type": "bytes32",
                                "value": "0x99acc586f58b0ec025cff8e8eab8de42b0d7f05324821ab891e0af68aa07e131"
                            },
                            {
                                "name": "v",
                                "type": "uint256",
                                "value": "28"
                            },
                            {
                                "name": "r",
                                "type": "bytes32",
                                "value": "0x5fa96496f5a5aa714cff83fea94cc4b9f795669a0bbf934add1d24d046c17294"
                            },
                            {
                                "name": "s",
                                "type": "bytes32",
                                "value": "0x446bbefa89baa0393d16ec56506d1c95ac5f9f0c4b840de22ebd0ee37ffca709"
                            }
                        ],
                        "constructorArguments": "",
                        "name": "ecrecover",
                        "returnParams": [
                            {
                                "name": "",
                                "type": "address",
                                "value": "0x3df35a1756dc17bc24f41714698dae416e830e22"
                            }
                        ],
                        "signature": "ecrecover(bytes32,uint256,bytes32,bytes32)"
                    },
                    "errorInfo": "",
                    "fromAddress": "0x2a0c0dbecc7e4d658f48e01e3fa353f44050c208",
                    "gasUsed": 3000,
                    "id": 1,
                    "methodDecoded": true,
                    "operation": "CALL",
                    "output": "0x0000000000000000000000003df35a1756dc17bc24f41714698dae416e830e22",
                    "revert": false,
                    "revertMessage": "",
                    "selector": "0x99acc586",
                    "status": true,
                    "value": "0"
                },
                "nodeType": 0
            },
            "2": {
                "invocation": {
                    "address": "0x0000000000000000000000000000000000000001",
                    "callData": "0x8a34154ed9cefd4706188d46ec98dd64335b7d27d72c5808a15bc854000000000000000000000000000000000000000000000000000000000000001bc5a16efc7e731e95f8568e320ecbe822d95cf365c3b17ddca09504cb5efd8e5748d582e47e0944d0b1671b8219fed2b2e99e3a4bd5b7bcac20b3087bed8af717",
                    "decodedMethod": {
                        "callParams": [
                            {
                                "name": "hash",
                                "type": "bytes32",
                                "value": "0x775fad1e8a34154ed9cefd4706188d46ec98dd64335b7d27d72c5808a15bc854"
                            },
                            {
                                "name": "v",
                                "type": "uint256",
                                "value": "27"
                            },
                            {
                                "name": "r",
                                "type": "bytes32",
                                "value": "0xc5a16efc7e731e95f8568e320ecbe822d95cf365c3b17ddca09504cb5efd8e57"
                            },
                            {
                                "name": "s",
                                "type": "bytes32",
                                "value": "0x48d582e47e0944d0b1671b8219fed2b2e99e3a4bd5b7bcac20b3087bed8af717"
                            }
                        ],
                        "constructorArguments": "",
                        "name": "ecrecover",
                        "returnParams": [
                            {
                                "name": "",
                                "type": "address",
                                "value": "0x5b0482533320f4087ac589a63a06981759c2bea8"
                            }
                        ],
                        "signature": "ecrecover(bytes32,uint256,bytes32,bytes32)"
                    },
                    "errorInfo": "",
                    "fromAddress": "0x2a0c0dbecc7e4d658f48e01e3fa353f44050c208",
                    "gasUsed": 3000,
                    "id": 2,
                    "methodDecoded": true,
                    "operation": "CALL",
                    "output": "0x0000000000000000000000005b0482533320f4087ac589a63a06981759c2bea8",
                    "revert": false,
                    "revertMessage": "",
                    "selector": "0x775fad1e",
                    "status": true,
                    "value": "0"
                },
                "nodeType": 0
            }
        },
        "gasFlame": [
            {
                "children": [
                    {
                        "children": [
                            {
                                "children": [],
                                "depth": 0,
                                "name": "Initial Gas",
                                "value": 26068
                            },
                            {
                                "children": [
                                    {
                                        "children": [],
                                        "depth": 1,
                                        "name": "ecrecover",
                                        "value": 3000
                                    },
                                    {
                                        "children": [],
                                        "depth": 1,
                                        "name": "ecrecover",
                                        "value": 3000
                                    }
                                ],
                                "depth": 0,
                                "name": "Executed Gas",
                                "value": 111484
                            }
                        ],
                        "depth": -1,
                        "name": "Actual Gas Used",
                        "value": 137552
                    },
                    {
                        "children": [],
                        "depth": -1,
                        "name": "Refunded Gas",
                        "value": 0
                    }
                ],
                "depth": -2,
                "name": "Total Gas",
                "value": 137552
            }
        ],
        "isConfirmed": true,
        "mainTrace": [
            {
                "children": [
                    {
                        "children": [
                            {
                                "children": [],
                                "depth": 1,
                                "id": 1,
                                "order": 1
                            },
                            {
                                "children": [],
                                "depth": 1,
                                "id": 2,
                                "order": 2
                            }
                        ],
                        "depth": 0,
                        "id": 0,
                        "order": 0
                    }
                ],
                "depth": -1,
                "id": -1,
                "order": -1
            }
        ],
        "mainTraceNodeCount": 3,
        "parentIdMap": {
            "0": -1,
            "1": 0,
            "2": 0
        },
        "tidyTrace": [
            {
                "children": [
                    {
                        "children": [
                            {
                                "children": [],
                                "depth": 1,
                                "id": 1,
                                "order": 1
                            },
                            {
                                "children": [],
                                "depth": 1,
                                "id": 2,
                                "order": 2
                            }
                        ],
                        "depth": 0,
                        "id": 0,
                        "order": 0
                    }
                ],
                "depth": -1,
                "id": -1,
                "order": -1
            }
        ],
        "tidyTraceNodeCount": 3
    },
    "state_change": {
        "stateChanges": [
            {
                "address": "0x2a0c0dbecc7e4d658f48e01e3fa353f44050c208",
                "erc": "",
                "slots": [
                    {
                        "current": "0x000000000000000000000000000000000000000000000000000000000001e802",
                        "key": "0xe832ac9a0040a23dbd7693107dcd8106ba260f3897fb5a9a6c3b282e55e23499",
                        "prev": "0x0000000000000000000000000000000000000000000000000000000000000000"
                    },
                    {
                        "current": "0x0000000000000000000000000000000000000000000000000000000000975059",
                        "key": "0xdfb5d2e83b10770ae5a4f3b9a87682e4f803300512564087e6465caedf8d8be5",
                        "prev": "0x000000000000000000000000000000000000000000000000000000000096cab8"
                    },
                    {
                        "current": "0x0000000000000000000000000000000000000000000000003851141aa86a66f9",
                        "key": "0x5932b6b1ebaf4ebfa33b36f55dab960ad46940fdc40a57a85495aecd30e24f39",
                        "prev": "0x0000000000000000000000000000000000000000000000003dddeec668580756"
                    },
                    {
                        "current": "0x000000000000000000000000000000000000000000000000000000000001fbe3",
                        "key": "0xdb23f477aad9e658e9f6ea12b4879e84efbfbfb96507932e52728455d09dd2ba",
                        "prev": "0x000000000000000000000000000000000000000000000000000000000000145e"
                    },
                    {
                        "current": "0x0000000000000000000000000000000000000000000000000000000000000733",
                        "key": "0x5e0201c5ac061f6930b0960c88295b69a5cd33e43ca81214002ff51b5be8e4c9",
                        "prev": "0x00000000000000000000000000000000000000000000000000000000000006b7"
                    },
                    {
                        "current": "0x0000000000000000000000000000000000000000000000000000000000019b50",
                        "key": "0x98a42de0b3b7ff158e27cce043c35fd4ef2518846ed1f117aed235528360d41a",
                        "prev": "0x0000000000000000000000000000000000000000000000000000000000038352"
                    },
                    {
                        "current": "0x000000000000000000000000000000000000000000000000490f033f001a1091",
                        "key": "0xca02e6cc54b0115587527e51ae6bf04e063266f290306a2f066955790f0b459c",
                        "prev": "0x000000000000000000000000000000000000000000000000438eb956ebfee564"
                    },
                    {
                        "current": "0x00000000000000000000000000000000000000000000000050d71e713041c7d0",
                        "key": "0x3ccb72d91c5c66cba135a4135963ed23443b8a63817f501517468fcd5097e277",
                        "prev": "0x00000000000000000000000000000000000000000000000050ca8dad846f52a1"
                    },
                    {
                        "current": "0x0000000000000000000000000000000000000000000000000000000000000001",
                        "key": "0x680a3cbdec9da76ec54b780c3ab3bcab8d0ed34c5e3c2797455ef59b6fb00f9a",
                        "prev": "0x0000000000000000000000000000000000000000000000000000000000000000"
                    }
                ],
                "storageVariables": [
                    {
                        "name": "tokens",
                        "type": "mapping(address => mapping(address => uint256))",
                        "value": {
                            "pairs": [
                                {
                                    "key": "0x0000000000000000000000000000000000000000",
                                    "value": {
                                        "pairs": [
                                            {
                                                "key": "0x034767f3c519f361c5ecf46ebfc08981c629d381",
                                                "value": {
                                                    "current": "5825158114516781008",
                                                    "prev": "5821621244720534177",
                                                    "typeTag": 1
                                                }
                                            },
                                            {
                                                "key": "0x3df35a1756dc17bc24f41714698dae416e830e22",
                                                "value": {
                                                    "current": "4058046843964778233",
                                                    "prev": "4457981742088193878",
                                                    "typeTag": 1
                                                }
                                            },
                                            {
                                                "key": "0x5b0482533320f4087ac589a63a06981759c2bea8",
                                                "value": {
                                                    "current": "5264430058538930321",
                                                    "prev": "4868032030211761508",
                                                    "typeTag": 1
                                                }
                                            }
                                        ],
                                        "typeTag": 4
                                    }
                                },
                                {
                                    "key": "0x28b5e12cce51f15594b0b91d5b5adaa70f684a02",
                                    "value": {
                                        "pairs": [
                                            {
                                                "key": "0x034767f3c519f361c5ecf46ebfc08981c629d381",
                                                "value": {
                                                    "current": "1843",
                                                    "prev": "1719",
                                                    "typeTag": 1
                                                }
                                            },
                                            {
                                                "key": "0x3df35a1756dc17bc24f41714698dae416e830e22",
                                                "value": {
                                                    "current": "130019",
                                                    "prev": "5214",
                                                    "typeTag": 1
                                                }
                                            },
                                            {
                                                "key": "0x5b0482533320f4087ac589a63a06981759c2bea8",
                                                "value": {
                                                    "current": "105296",
                                                    "prev": "230226",
                                                    "typeTag": 1
                                                }
                                            }
                                        ],
                                        "typeTag": 4
                                    }
                                }
                            ],
                            "typeTag": 4
                        }
                    },
                    {
                        "name": "orderFills",
                        "type": "mapping(bytes32 => uint256)",
                        "value": {
                            "pairs": [
                                {
                                    "key": "0x8f2b69cd7beae2450d6f08b3c98277fca54240ff8c284c349452909a5aca551d",
                                    "value": {
                                        "current": "124930",
                                        "prev": "0",
                                        "typeTag": 1
                                    }
                                }
                            ],
                            "typeTag": 4
                        }
                    },
                    {
                        "name": "traded",
                        "type": "mapping(bytes32 => bool)",
                        "value": {
                            "pairs": [
                                {
                                    "key": "0xfac975fa0f3dcdb10ee88f38ff57e358999bd5d7a0a8ad2a5170555bdc8188f3",
                                    "value": {
                                        "current": "true",
                                        "prev": "false",
                                        "typeTag": 1
                                    }
                                }
                            ],
                            "typeTag": 4
                        }
                    },
                    {
                        "name": "lastActiveTransaction",
                        "type": "mapping(address => uint256)",
                        "value": {
                            "pairs": [
                                {
                                    "key": "0x3df35a1756dc17bc24f41714698dae416e830e22",
                                    "value": {
                                        "current": "9916505",
                                        "prev": "9882296",
                                        "typeTag": 1
                                    }
                                }
                            ],
                            "typeTag": 4
                        }
                    }
                ]
            }
        ]
    }
}