{
    "balance_change": {
        "balanceChanges": []
    },
    "profile": {
        "basic_info": {
            "baseFee": "",
            "blockNumber": 11700321,
            "callData": "0xc6554888881352b2fc88cdcb2dc09657b630081042ff1008a129129b0805c112b737efeb000000000000000000000000d7d641137fa2756f992a6936c2f96eda3f7d133900000000000000000000000054a5b00901b0ef44ef3c99458a785e193c6afb1700000000000000000000000000000000000000000000000036a249da2944b0080000000000000000000000000000000000000000000000000000000000001c47",
            "debugEnable": true,
            "errorInfo": "",
            "eventCount": 0,
            "feeRecipient": "0x04668ec2f57cc15c381b461b9fedab5d451c8f7f",
            "formatValue": "0",
            "gasLimit": 350000,
            "gasPrice": "222.999999999",
            "gasUsed": 16110,
            "intTxnCount": 3,
            "internalRevert": false,
            "internalRevertMessage": "",
            "isContractCreation": false,
            "isFlashloan": false,
            "maxFee": "",
            "nonce": 30871,
            "overwritedBlockNumber": -1,
            "priorityFee": "",
            "receiver": "0x6f21854a903f396efdd36c2d145af973e2efe004",
            "revertMessage": "",
            "sender": "0xb640e3210a187b1d0cd1544caba0de58d025ce52",
            "simulationEnable": true,
            "sourceTxnHash": "0x5ab9aea9721026995fc9fade1f0271f5df26eeeaf8e49ffd7398e373aaa8da26",
            "status": true,
            "timestamp": "2021-01-21T18:06:44Z",
            "transactionFee": "0.00359252999998389",
            "txnHash": "0x5ab9aea9721026995fc9fade1f0271f5df26eeeaf8e49ffd7398e373aaa8da26",
            "txnIndex": 6,
            "type": 0,
            "value": "0"
        },
        "fund_flow": [],
        "token_infos": [
            {
                "address": "0xc02aaa39b223fe8d0a0e5c4f27ead9083c756cc2",
                "decimals": 18
            },
            {
                "address": "0xeeeeeeeeeeeeeeeeeeeeeeeeeeeeeeeeeeeeeeee",
                "decimals": 18
            }
        ]
    },
    "address_label": {
        "labels": [
            {
                "address": "0x0000000000000000000000000000000000000002",
                "label": "Precompiled"
            },
            {
                "address": "0x0000000000000000000000000000000000000003",
                "label": "Precompiled"
            },
            {
                "address": "0x0000000000000000000000000000000000000004",
                "label": "Precompiled"
            },
            {
                "address": "0xeeeeeeeeeeeeeeeeeeeeeeeeeeeeeeeeeeeeeeee",
                "label": "Ether"
            },
            {
                "address": "0x3c03b4ec9477809072ff9cc9292c9b25d4a8e6c6",
                "label": "PolkaCover: CVR Token"
            },
            {
                "address": "0x0000000000000000000000000000000000000001",
                "label": "Precompiled"
            }
        ]
    },
    "trace": {
        "accountLabels": null,
        "dataMap": {
            "-1": {
                "invocation": {
                    "address": "0xb640e3210a187b1d0cd1544caba0de58d025ce52",
                    "callData": "",
                    "decodedMethod": null,
                    "errorInfo": "",
                    "fromAddress": "",
                    "gasUsed": 0,
                    "id": -1,
                    "methodDecoded": false,
                    "operation": "",
                    "output": "",
                    "revert": false,
                    "revertMessage": "",
                    "selector": "",
                    "status": false,
                    "value": ""
                },
                "nodeType": 0
            },
            "0": {
                "invocation": {
                    "address": "0x6f21854a903f396efdd36c2d145af973e2efe004",
                    "callData": "0x881352b2fc88cdcb2dc09657b630081042ff1008a129129b0805c112b737efeb000000000000000000000000d7d641137fa2756f992a6936c2f96eda3f7d133900000000000000000000000054a5b00901b0ef44ef3c99458a785e193c6afb1700000000000000000000000000000000000000000000000036a249da2944b0080000000000000000000000000000000000000000000000000000000000001c47",
                    "decodedMethod": null,
                    "errorInfo": "",
                    "fromAddress": "0xb640e3210a187b1d0cd1544caba0de58d025ce52",
                    "gasUsed": 16110,
                    "id": 0,
                    "methodDecoded": false,
                    "operation": "CALL",
                    "output": "",
                    "revert": false,
                    "revertMessage": "",
                    "selector": "0xc6554888",
                    "status": true,
                    "value": "0"
                },
                "nodeType": 0
            },
            "1": {
                "invocation": {
                    "address": "0xff64922b75fab2a1deac0e8f44e6610ed42b058d",
                    "callData": "0x",
                    "decodedMethod": null,
                    "errorInfo": "",
                    "fromAddress": "0x6f21854a903f396efdd36c2d145af973e2efe004",
                    "gasUsed": 5022,
                    "id": 1,
                    "methodDecoded": false,
                    "operation": "CALL",
                    "output": "",
                    "revert": false,
                    "revertMessage": "",
                    "selector": "fallback",
                    "status": true,
                    "value": "0"
                },
                "nodeType": 0
            },
            "2": {
                "invocation": {
                    "address": "0x6f21854a903f396efdd36c2d145af973e2efe004",
                    "callData": "",
                    "decodedMethod": null,
                    "errorInfo": "",
                    "fromAddress": "0xff64922b75fab2a1deac0e8f44e6610ed42b058d",
                    "gasUsed": 0,
                    "id": 2,
                    "methodDecoded": false,
                    "operation": "SELFDESTRUCT",
                    "output": "",
                    "revert": false,
                    "revertMessage": "",
                    "selector": "",
                    "status": true,
                    "value": "0"
                },
                "nodeType": 0
            },
            "3": {
                "invocation": {
                    "address": "0x3c03b4ec9477809072ff9cc9292c9b25d4a8e6c6",
                    "callData": "0x0000000000000000000000006f21854a903f396efdd36c2d145af973e2efe004",
                    "decodedMethod": {
                        "callParams": [
                            {
                                "name": "account",
                                "type": "address",
                                "value": "0x6f21854a903f396efdd36c2d145af973e2efe004"
                            }
                        ],
                        "constructorArguments": "",
                        "name": "balanceOf",
                        "returnParams": [
                            {
                                "decimalAvailable": true,
                                "name": "",
                                "type": "uint256",
                                "value": "0"
                            }
                        ],
                        "signature": "balanceOf(address)"
                    },
                    "errorInfo": "",
                    "fromAddress": "0x6f21854a903f396efdd36c2d145af973e2efe004",
                    "gasUsed": 1212,
                    "id": 3,
                    "methodDecoded": true,
                    "operation": "STATICCALL",
                    "output": "0x0000000000000000000000000000000000000000000000000000000000000000",
                    "revert": false,
                    "revertMessage": "",
                    "selector": "0x70a08231",
                    "status": true,
                    "value": "0"
                },
                "nodeType": 0
            }
        },
        "gasFlame": [
            {
                "children": [
                    {
                        "children": [
                            {
                                "children": [],
                                "depth": 0,
                                "name": "Initial Gas",
                                "value": 22688
                            },
                            {
                                "children": [
                                    {
                                        "children": [
                                            {
                                                "children": [],
                                                "depth": 2,
                                                "name": "",
                                                "value": 0
                                            }
                                        ],
                                        "depth": 1,
                                        "name": "fallback",
                                        "value": 5022
                                    },
                                    {
                                        "children": [],
                                        "depth": 1,
                                        "name": "balanceOf",
                                        "value": 1212
                                    }
                                ],
                                "depth": 0,
                                "name": "Executed Gas",
                                "value": 9531
                            }
                        ],
                        "depth": -1,
                        "name": "Actual Gas Used",
                        "value": 16110
                    },
                    {
                        "children": [],
                        "depth": -1,
                        "name": "Refunded Gas",
                        "value": 16109
                    }
                ],
                "depth": -2,
                "name": "Total Gas",
                "value": 32219
            }
        ],
        "isConfirmed": true,
        "mainTrace": [
            {
                "children": [
                    {
                        "children": [
                            {
                                "children": [
                                    {
                                        "children": [],
                                        "depth": 2,
                                        "id": 2,
                                        "order": 2
                                    }
                                ],
                                "depth": 1,
                                "id": 1,
                                "order": 1
                            },
                            {
                                "children": [],
                                "depth": 1,
                                "id": 3,
                                "order": 3
                            }
                        ],
                        "depth": 0,
                        "id": 0,
                        "order": 0
                    }
                ],
                "depth": -1,
                "id": -1,
                "order": -1
            }
        ],
        "mainTraceNodeCount": 4,
        "parentIdMap": {
            "0": -1,
            "1": 0,
            "2": 1,
            "3": 0
        },
        "tidyTrace": [
            {
                "children": [
                    {
                        "children": [
                            {
                                "children": [
                                    {
                                        "children": [],
                                        "depth": 2,
                                        "id": 2,
                                        "order": 2
                                    }
                                ],
                                "depth": 1,
                                "id": 1,
                                "order": 1
                            }
                        ],
                        "depth": 0,
                        "id": 0,
                        "order": 0
                    }
                ],
                "depth": -1,
                "id": -1,
                "order": -1
            }
        ],
        "tidyTraceNodeCount": 3
    },
    "state_change": {
        "stateChanges": []
    }
}