{
    "balance_change": {
        "balanceChanges": [
            {
                "account": "0xdb6fdc30ab61c7cca742d4c13d1b035f3f82019a",
                "assets": [
                    {
                        "address": "0x5af2be193a6abca9c8817001f45744777db30756",
                        "amount": "18,205.56197827",
                        "iconUrl": "",
                        "isERC1155": false,
                        "isERC721": false,
                        "sign": false,
                        "value": ""
                    }
                ]
            },
            {
                "account": "0x5b5ae9c510eb1ddeeba8fbadaa2703014d85e0b0",
                "assets": [
                    {
                        "address": "0x5af2be193a6abca9c8817001f45744777db30756",
                        "amount": "18,205.56197827",
                        "iconUrl": "",
                        "isERC1155": false,
                        "isERC721": false,
                        "sign": true,
                        "value": ""
                    }
                ]
            }
        ]
    },
    "profile": {
        "basic_info": {
            "baseFee": "",
            "blockNumber": 7940330,
            "callData": "0xa9059cbb0000000000000000000000005b5ae9c510eb1ddeeba8fbadaa2703014d85e0b0000000000000000000000000000000000000000000000000000001a7e19affc3",
            "debugEnable": true,
            "errorInfo": "",
            "eventCount": 1,
            "feeRecipient": "0x829bd824b016326a401d083b33d092293333a830",
            "formatValue": "0",
            "gasLimit": 200000,
            "gasPrice": "21",
            "gasUsed": 52464,
            "intTxnCount": 0,
            "internalRevert": false,
            "internalRevertMessage": "",
            "isContractCreation": false,
            "isFlashloan": false,
            "maxFee": "",
            "nonce": 1232,
            "overwritedBlockNumber": -1,
            "priorityFee": "",
            "receiver": "0x5af2be193a6abca9c8817001f45744777db30756",
            "revertMessage": "",
            "sender": "0xdb6fdc30ab61c7cca742d4c13d1b035f3f82019a",
            "simulationEnable": true,
            "sourceTxnHash": "0x5b71143c65ba834d580cb59ae80ac58cc2bf0c3d64596247b57e59280e7f270f",
            "status": true,
            "timestamp": "2019-06-11T22:51:28Z",
            "transactionFee": "0.001101744",
            "txnHash": "0x5b71143c65ba834d580cb59ae80ac58cc2bf0c3d64596247b57e59280e7f270f",
            "txnIndex": 7,
            "type": 0,
            "value": "0"
        },
        "fund_flow": [
            {
                "amount": "18,205.56197827",
                "from": "0xdb6fdc30ab61c7cca742d4c13d1b035f3f82019a",
                "id": 1,
                "isERC1155": false,
                "isERC721": false,
                "isReverted": false,
                "order": 1,
                "to": "0x5b5ae9c510eb1ddeeba8fbadaa2703014d85e0b0",
                "token": "0x5af2be193a6abca9c8817001f45744777db30756"
            }
        ],
        "token_infos": [
            {
                "address": "0x5af2be193a6abca9c8817001f45744777db30756",
                "decimals": 8
            },
            {
                "address": "0xc02aaa39b223fe8d0a0e5c4f27ead9083c756cc2",
                "decimals": 18
            },
            {
                "address": "0xeeeeeeeeeeeeeeeeeeeeeeeeeeeeeeeeeeeeeeee",
                "decimals": 18
            }
        ]
    },
    "address_label": {
        "labels": [
            {
                "address": "0x0000000000000000000000000000000000000002",
                "label": "Precompiled"
            },
            {
                "address": "0x0000000000000000000000000000000000000003",
                "label": "Precompiled"
            },
            {
                "address": "0x0000000000000000000000000000000000000004",
                "label": "Precompiled"
            },
            {
                "address": "0xeeeeeeeeeeeeeeeeeeeeeeeeeeeeeeeeeeeeeeee",
                "label": "Ether"
            },
            {
                "address": "0x5af2be193a6abca9c8817001f45744777db30756",
                "label": "Voyager: Old VGX Token"
            },
            {
                "address": "0x5b5ae9c510eb1ddeeba8fbadaa2703014d85e0b0",
                "label": "BINANCE"
            },
            {
                "address": "0x0000000000000000000000000000000000000001",
                "label": "Precompiled"
            }
        ]
    },
    "trace": {
        "accountLabels": null,
        "dataMap": {
            "-1": {
                "invocation": {
                    "address": "0xdb6fdc30ab61c7cca742d4c13d1b035f3f82019a",
                    "callData": "",
                    "decodedMethod": null,
                    "errorInfo": "",
                    "fromAddress": "",
                    "gasUsed": 0,
                    "id": -1,
                    "methodDecoded": false,
                    "operation": "",
                    "output": "",
                    "revert": false,
                    "revertMessage": "",
                    "selector": "",
                    "status": false,
                    "value": ""
                },
                "nodeType": 0
            },
            "0": {
                "invocation": {
                    "address": "0x5af2be193a6abca9c8817001f45744777db30756",
                    "callData": "0x0000000000000000000000005b5ae9c510eb1ddeeba8fbadaa2703014d85e0b0000000000000000000000000000000000000000000000000000001a7e19affc3",
                    "decodedMethod": {
                        "callParams": [
                            {
                                "name": "_to",
                                "type": "address",
                                "value": "0x5b5ae9c510eb1ddeeba8fbadaa2703014d85e0b0"
                            },
                            {
                                "decimalAvailable": true,
                                "name": "_value",
                                "type": "uint256",
                                "value": "1,820,556,197,827"
                            }
                        ],
                        "constructorArguments": "",
                        "name": "transfer",
                        "returnParams": [
                            {
                                "name": "success",
                                "type": "bool",
                                "value": true
                            }
                        ],
                        "signature": "transfer(address,uint256)"
                    },
                    "errorInfo": "",
                    "fromAddress": "0xdb6fdc30ab61c7cca742d4c13d1b035f3f82019a",
                    "gasUsed": 52464,
                    "id": 0,
                    "methodDecoded": true,
                    "operation": "CALL",
                    "output": "0x0000000000000000000000000000000000000000000000000000000000000001",
                    "revert": false,
                    "revertMessage": "",
                    "selector": "0xa9059cbb",
                    "status": true,
                    "value": "0"
                },
                "nodeType": 0
            },
            "1": {
                "event": {
                    "contract": "0x5af2be193a6abca9c8817001f45744777db30756",
                    "decodedLog": {
                        "name": "Transfer",
                        "params": [
                            {
                                "name": "from",
                                "type": "address",
                                "value": "0xdb6fdc30ab61c7cca742d4c13d1b035f3f82019a"
                            },
                            {
                                "name": "to",
                                "type": "address",
                                "value": "0x5b5ae9c510eb1ddeeba8fbadaa2703014d85e0b0"
                            },
                            {
                                "decimalAvailable": true,
                                "name": "value",
                                "type": "uint256",
                                "value": "1,820,556,197,827"
                            }
                        ],
                        "signature": "Transfer(address,address,uint256)"
                    },
                    "id": 1,
                    "logData": "0x000000000000000000000000000000000000000000000000000001a7e19affc3",
                    "logDecoded": true,
                    "operation": "EVENT",
                    "revert": false,
                    "status": true,
                    "topics": [
                        "0xddf252ad1be2c89b69c2b068fc378daa952ba7f163c4a11628f55a4df523b3ef",
                        "0x000000000000000000000000db6fdc30ab61c7cca742d4c13d1b035f3f82019a",
                        "0x0000000000000000000000005b5ae9c510eb1ddeeba8fbadaa2703014d85e0b0"
                    ]
                },
                "nodeType": 1
            }
        },
        "gasFlame": [
            {
                "children": [
                    {
                        "children": [
                            {
                                "children": [],
                                "depth": 0,
                                "name": "Initial Gas",
                                "value": 23192
                            },
                            {
                                "children": [],
                                "depth": 0,
                                "name": "Executed Gas",
                                "value": 29272
                            }
                        ],
                        "depth": -1,
                        "name": "Actual Gas Used",
                        "value": 52464
                    },
                    {
                        "children": [],
                        "depth": -1,
                        "name": "Refunded Gas",
                        "value": 0
                    }
                ],
                "depth": -2,
                "name": "Total Gas",
                "value": 52464
            }
        ],
        "isConfirmed": true,
        "mainTrace": [
            {
                "children": [
                    {
                        "children": [
                            {
                                "children": [],
                                "depth": 1,
                                "id": 1,
                                "order": 1
                            }
                        ],
                        "depth": 0,
                        "id": 0,
                        "order": 0
                    }
                ],
                "depth": -1,
                "id": -1,
                "order": -1
            }
        ],
        "mainTraceNodeCount": 2,
        "parentIdMap": {
            "0": -1,
            "1": 0
        },
        "tidyTrace": [
            {
                "children": [
                    {
                        "children": [
                            {
                                "children": [],
                                "depth": 1,
                                "id": 1,
                                "order": 1
                            }
                        ],
                        "depth": 0,
                        "id": 0,
                        "order": 0
                    }
                ],
                "depth": -1,
                "id": -1,
                "order": -1
            }
        ],
        "tidyTraceNodeCount": 2
    },
    "state_change": {
        "stateChanges": [
            {
                "address": "0x5af2be193a6abca9c8817001f45744777db30756",
                "erc": "ERC-20",
                "slots": [
                    {
                        "current": "0x000000000000000000000000000000000000000000000000000012c8c819e5be",
                        "key": "0xf478a096fae17343eedc4f3e88b7fe1eae15dd96f67054dba221f7bcf4c9d1b4",
                        "prev": "0x00000000000000000000000000000000000000000000000000001470a9b4e581"
                    },
                    {
                        "current": "0x000000000000000000000000000000000000000000000000000001a7e19affc3",
                        "key": "0x59022a610969bc57f174215fa72c17b7e2baade5a7d23806089f5ea85ca59e31",
                        "prev": "0x0000000000000000000000000000000000000000000000000000000000000000"
                    }
                ],
                "storageVariables": []
            }
        ]
    }
}