{
    "balance_change": {
        "balanceChanges": [
            {
                "account": "0x9008d19f58aabd9ed0d60971565aa8510560ab41",
                "assets": [
                    {
                        "address": "0xa0b86991c6218b36c1d19d4a2e9eb0ce3606eb48",
                        "amount": "19.658212",
                        "iconUrl": "https://assets.blocksec.com/icon/0347a86cc07dbd03fdc5db01a4e5ac7e1217f90e0b6e4bb0f75cbcca09160989.png",
                        "isERC1155": false,
                        "isERC721": false,
                        "sign": true,
                        "value": "19.677870211999997835"
                    },
                    {
                        "address": "0xc02aaa39b223fe8d0a0e5c4f27ead9083c756cc2",
                        "amount": "0.100000000000000069",
                        "iconUrl": "https://assets.blocksec.com/icon/f1cb2d02c471d545bbc7722daf3277fd852d98e63d118771af7047bd8256c516.png",
                        "isERC1155": false,
                        "isERC721": false,
                        "sign": true,
                        "value": "225.01599999999998546"
                    },
                    {
                        "address": "0x2d9d7c64f6c00e16c28595ec4ebe4065ef3a250b",
                        "amount": "49,811,250.048429883",
                        "iconUrl": "",
                        "isERC1155": false,
                        "isERC721": false,
                        "sign": false,
                        "value": "209.6460619"
                    }
                ]
            },
            {
                "account": "0x00c95ee3a014c2b90fffb992d1ea66093cc13320",
                "assets": [
                    {
                        "address": "0xc02aaa39b223fe8d0a0e5c4f27ead9083c756cc2",
                        "amount": "0.449560945424630592",
                        "iconUrl": "https://assets.blocksec.com/icon/f1cb2d02c471d545bbc7722daf3277fd852d98e63d118771af7047bd8256c516.png",
                        "isERC1155": false,
                        "isERC721": false,
                        "sign": false,
                        "value": "1011.58405690126393456"
                    },
                    {
                        "address": "0xa0b86991c6218b36c1d19d4a2e9eb0ce3606eb48",
                        "amount": "1,005.841802",
                        "iconUrl": "https://assets.blocksec.com/icon/0347a86cc07dbd03fdc5db01a4e5ac7e1217f90e0b6e4bb0f75cbcca09160989.png",
                        "isERC1155": false,
                        "isERC721": false,
                        "sign": true,
                        "value": "1006.8476438019998892"
                    }
                ]
            },
            {
                "account": "0x729297bfc4c2267afd119ddf1c6e3a22e6ae6e6b",
                "assets": [
                    {
                        "address": "0xc02aaa39b223fe8d0a0e5c4f27ead9083c756cc2",
                        "amount": "0.1",
                        "iconUrl": "https://assets.blocksec.com/icon/f1cb2d02c471d545bbc7722daf3277fd852d98e63d118771af7047bd8256c516.png",
                        "isERC1155": false,
                        "isERC721": false,
                        "sign": false,
                        "value": "225.01599999999998546"
                    },
                    {
                        "address": "0x2d9d7c64f6c00e16c28595ec4ebe4065ef3a250b",
                        "amount": "49,811,250.048429883",
                        "iconUrl": "",
                        "isERC1155": false,
                        "isERC721": false,
                        "sign": true,
                        "value": "209.6460619"
                    }
                ]
            },
            {
                "account": "0xc02aaa39b223fe8d0a0e5c4f27ead9083c756cc2",
                "assets": [
                    {
                        "address": "0xeeeeeeeeeeeeeeeeeeeeeeeeeeeeeeeeeeeeeeee",
                        "amount": "0.449560945424630523",
                        "iconUrl": "https://assets.blocksec.com/image/1663669189317-3.png",
                        "isERC1155": false,
                        "isERC721": false,
                        "sign": false,
                        "value": "1011.58405690126393456"
                    },
                    {
                        "address": "0xc02aaa39b223fe8d0a0e5c4f27ead9083c756cc2",
                        "amount": "0.449560945424630523",
                        "iconUrl": "https://assets.blocksec.com/icon/f1cb2d02c471d545bbc7722daf3277fd852d98e63d118771af7047bd8256c516.png",
                        "isERC1155": false,
                        "isERC721": false,
                        "sign": true,
                        "value": "1011.58405690126393456"
                    }
                ]
            },
            {
                "account": "0xe985e79d262615d5b3dde09ac27c78c2ca2675bc",
                "assets": [
                    {
                        "address": "0xa0b86991c6218b36c1d19d4a2e9eb0ce3606eb48",
                        "amount": "1,025.500014",
                        "iconUrl": "https://assets.blocksec.com/icon/0347a86cc07dbd03fdc5db01a4e5ac7e1217f90e0b6e4bb0f75cbcca09160989.png",
                        "isERC1155": false,
                        "isERC721": false,
                        "sign": false,
                        "value": "1026.5255140139998871"
                    },
                    {
                        "address": "0xeeeeeeeeeeeeeeeeeeeeeeeeeeeeeeeeeeeeeeee",
                        "amount": "0.449560945424630523",
                        "iconUrl": "https://assets.blocksec.com/image/1663669189317-3.png",
                        "isERC1155": false,
                        "isERC721": false,
                        "sign": true,
                        "value": "1011.58405690126393456"
                    }
                ]
            }
        ]
    },
    "profile": {
        "basic_info": {
            "baseFee": "32.599720436",
            "blockNumber": 18955167,
            "callData": "0x13d79a0b0000000000000000000000000000000000000000000000000000000000000080000000000000000000000000000000000000000000000000000000000000012000000000000000000000000000000000000000000000000000000000000001c000000000000000000000000000000000000000000000000000000000000005e000000000000000000000000000000000000000000000000000000000000000040000000000000000000000002d9d7c64f6c00e16c28595ec4ebe4065ef3a250b000000000000000000000000a0b86991c6218b36c1d19d4a2e9eb0ce3606eb48000000000000000000000000c02aaa39b223fe8d0a0e5c4f27ead9083c756cc2000000000000000000000000eeeeeeeeeeeeeeeeeeeeeeeeeeeeeeeeeeeeeeee0000000000000000000000000000000000000000000000000000000000000004000000000000000000000000000000000000000000000000014fa18af8dc19dc000000000000000000000000000000000000000000126a670307506b0000000000000000000000000000000000000000000000000000000000b0f71168f46f3b00000000000000000000000000000000000000000000000000b0f71168f46f3b00000000000000000000000000000000000000000000000000000000000000020000000000000000000000000000000000000000000000000000000000000040000000000000000000000000000000000000000000000000000000000000022000000000000000000000000000000000000000000000000000000000000000010000000000000000000000000000000000000000000000000000000000000003000000000000000000000000e985e79d262615d5b3dde09ac27c78c2ca2675bc000000000000000000000000000000000000000000000000000000003bf3ed8a0000000000000000000000000000000000000000000000000634580371f56dcc00000000000000000000000000000000000000000000000000000000659a9dd254738d897d76c9590804ec357f2d1020c93e4b67286dc933df4641816596bda300000000000000000000000000000000000000000000000000000000012bf5e40000000000000000000000000000000000000000000000000000000000000000000000000000000000000000000000000000000000000000000000003bf3ed8a000000000000000000000000000000000000000000000000000000000000016000000000000000000000000000000000000000000000000000000000000000415daf54bbb93931a8d334b81b3b2aad5e77b91b57511fa65c7708d4349dbed23d3bf8f1ad7ddbcf92dfd43e0cf70925d77eda2766b2b79029f6273d59fc0c3a501c0000000000000000000000000000000000000000000000000000000000000000000000000000000000000000000000000000000000000000000000000000020000000000000000000000000000000000000000000000000000000000000000000000000000000000000000729297bfc4c2267afd119ddf1c6e3a22e6ae6e6b000000000000000000000000000000000000000000000000014fa18af8dc19dc00000000000000000000000000000000000000000000000000b010be8ba1c4c600000000000000000000000000000000000000000000000000000000659a9e08db47033948acea8674bb2501bc6d2908d3cdf86eb9262a8585466e877e4ecd890000000000000000000000000000000000000000000000000013a3ed64ade6240000000000000000000000000000000000000000000000000000000000000000000000000000000000000000000000000000000000000000014fa18af8dc19dc000000000000000000000000000000000000000000000000000000000000016000000000000000000000000000000000000000000000000000000000000000418dda58c3675a260e39673dd29c3a26367a064d5a1ef78f8564aad83f6dfcf3c52f584a240b6445eed2d4bd5e55fa75df8221fc005f94aac9dcd8cc7c616418021c000000000000000000000000000000000000000000000000000000000000000000000000000000000000000000000000000000000000000000000000000060000000000000000000000000000000000000000000000000000000000000032000000000000000000000000000000000000000000000000000000000000006200000000000000000000000000000000000000000000000000000000000000001000000000000000000000000000000000000000000000000000000000000002000000000000000000000000001dcb88678aedd0c4cc9552b20f47185502505740000000000000000000000000000000000000000000000000000000000000000000000000000000000000000000000000000000000000000000000000000006000000000000000000000000000000000000000000000000000000000000001e4760f2a0b000000000000000000000000000000000000000000000000000000000000002000000000000000000000000000000000000000000000000000000000000000010000000000000000000000000000000000000000000000000000000000000020000000000000000000000000a0b86991c6218b36c1d19d4a2e9eb0ce3606eb480000000000000000000000000000000000000000000000000000000000000060000000000000000000000000000000000000000000000000000000000001656900000000000000000000000000000000000000000000000000000000000000e4d505accf000000000000000000000000e985e79d262615d5b3dde09ac27c78c2ca2675bc000000000000000000000000c92e8bdf79f0507f65a392b0ab4667716bfe0110ffffffffffffffffffffffffffffffffffffffffffffffffffffffffffffffff000000000000000000000000000000000000000000000000000000006f023e30000000000000000000000000000000000000000000000000000000000000001cccf8b2b0126e6b28505a1a84bc51da8a12eea2fb02dc5ce66ad53cb0c8c28e4871654df78712f5bb0a24311898d804f6089c3a84cb39fa82cdc029d1e965f1a4000000000000000000000000000000000000000000000000000000000000000000000000000000000000000000000000000000000000000000000000000000000000000000000000000000000000000000000000000000030000000000000000000000000000000000000000000000000000000000000060000000000000000000000000000000000000000000000000000000000000014000000000000000000000000000000000000000000000000000000000000002200000000000000000000000002e8949fbf4aa7d6dbe3943c52b87230c9f1d02b500000000000000000000000000000000000000000000000000000000000000000000000000000000000000000000000000000000000000000000000000000060000000000000000000000000000000000000000000000000000000000000004401c6adc3000000000000000000000000c02aaa39b223fe8d0a0e5c4f27ead9083c756cc2000000000000000000000000000000000000000000000000063d294c48ec834000000000000000000000000000000000000000000000000000000000000000000000000000000000a0b86991c6218b36c1d19d4a2e9eb0ce3606eb48000000000000000000000000000000000000000000000000000000000000000000000000000000000000000000000000000000000000000000000000000000600000000000000000000000000000000000000000000000000000000000000044a9059cbb00000000000000000000000000c95ee3a014c2b90fffb992d1ea66093cc13320000000000000000000000000000000000000000000000000000000003bf3ed8a00000000000000000000000000000000000000000000000000000000000000000000000000000000c02aaa39b223fe8d0a0e5c4f27ead9083c756cc20000000000000000000000000000000000000000000000000000000000000000000000000000000000000000000000000000000000000000000000000000006000000000000000000000000000000000000000000000000000000000000000242e1a7d4d000000000000000000000000000000000000000000000000063d294c48ec82fb00000000000000000000000000000000000000000000000000000000000000000000000000000000000000000000000000000000000000000000000000000000007e2f2a",
            "debugEnable": true,
            "errorInfo": "",
            "eventCount": 14,
            "feeRecipient": "0x1f9090aae28b8a3dceadf281b0f12828e676c326",
            "formatValue": "0",
            "gasLimit": 689820,
            "gasPrice": "35.95874572",
            "gasUsed": 344910,
            "intTxnCount": 20,
            "internalRevert": false,
            "internalRevertMessage": "",
            "isContractCreation": false,
            "isFlashloan": false,
            "maxFee": "68.459412916",
            "nonce": 34545,
            "overwritedBlockNumber": -1,
            "priorityFee": "3.359025284",
            "receiver": "0x9008d19f58aabd9ed0d60971565aa8510560ab41",
            "revertMessage": "",
            "sender": "0x4339889fd9dfca20a423fba011e9dff1c856caeb",
            "simulationEnable": true,
            "sourceTxnHash": "0x5b3db70a13627cf7e94be8d988c53aedb21b3f947eb6a6dd4185808b158ca241",
            "status": true,
            "timestamp": "2024-01-07T12:20:59Z",
            "transactionFee": "0.0124025309862852",
            "txnHash": "0x5b3db70a13627cf7e94be8d988c53aedb21b3f947eb6a6dd4185808b158ca241",
            "txnIndex": 5,
            "type": 2,
            "value": "0"
        },
        "fund_flow": [
            {
                "amount": "1,025.500014",
                "from": "0xe985e79d262615d5b3dde09ac27c78c2ca2675bc",
                "id": 1,
                "isERC1155": false,
                "isERC721": false,
                "isReverted": false,
                "order": 1,
                "to": "0x9008d19f58aabd9ed0d60971565aa8510560ab41",
                "token": "0xa0b86991c6218b36c1d19d4a2e9eb0ce3606eb48"
            },
            {
                "amount": "0.1",
                "from": "0x729297bfc4c2267afd119ddf1c6e3a22e6ae6e6b",
                "id": 2,
                "isERC1155": false,
                "isERC721": false,
                "isReverted": false,
                "order": 2,
                "to": "0x9008d19f58aabd9ed0d60971565aa8510560ab41",
                "token": "0xc02aaa39b223fe8d0a0e5c4f27ead9083c756cc2"
            },
            {
                "amount": "0.449560945424630592",
                "from": "0x00c95ee3a014c2b90fffb992d1ea66093cc13320",
                "id": 3,
                "isERC1155": false,
                "isERC721": false,
                "isReverted": false,
                "order": 3,
                "to": "0x9008d19f58aabd9ed0d60971565aa8510560ab41",
                "token": "0xc02aaa39b223fe8d0a0e5c4f27ead9083c756cc2"
            },
            {
                "amount": "1,005.841802",
                "from": "0x9008d19f58aabd9ed0d60971565aa8510560ab41",
                "id": 4,
                "isERC1155": false,
                "isERC721": false,
                "isReverted": false,
                "order": 4,
                "to": "0x00c95ee3a014c2b90fffb992d1ea66093cc13320",
                "token": "0xa0b86991c6218b36c1d19d4a2e9eb0ce3606eb48"
            },
            {
                "amount": "0.449560945424630523",
                "from": "0xc02aaa39b223fe8d0a0e5c4f27ead9083c756cc2",
                "id": 5,
                "isERC1155": false,
                "isERC721": false,
                "isReverted": false,
                "order": 5,
                "to": "0x9008d19f58aabd9ed0d60971565aa8510560ab41",
                "token": "0xeeeeeeeeeeeeeeeeeeeeeeeeeeeeeeeeeeeeeeee"
            },
            {
                "amount": "0.449560945424630523",
                "from": "0x9008d19f58aabd9ed0d60971565aa8510560ab41",
                "id": 6,
                "isERC1155": false,
                "isERC721": false,
                "isReverted": false,
                "order": 6,
                "to": "0xc02aaa39b223fe8d0a0e5c4f27ead9083c756cc2",
                "token": "0xc02aaa39b223fe8d0a0e5c4f27ead9083c756cc2"
            },
            {
                "amount": "0.449560945424630523",
                "from": "0x9008d19f58aabd9ed0d60971565aa8510560ab41",
                "id": 7,
                "isERC1155": false,
                "isERC721": false,
                "isReverted": false,
                "order": 7,
                "to": "0xe985e79d262615d5b3dde09ac27c78c2ca2675bc",
                "token": "0xeeeeeeeeeeeeeeeeeeeeeeeeeeeeeeeeeeeeeeee"
            },
            {
                "amount": "49,811,250.048429883",
                "from": "0x9008d19f58aabd9ed0d60971565aa8510560ab41",
                "id": 8,
                "isERC1155": false,
                "isERC721": false,
                "isReverted": false,
                "order": 8,
                "to": "0x729297bfc4c2267afd119ddf1c6e3a22e6ae6e6b",
                "token": "0x2d9d7c64f6c00e16c28595ec4ebe4065ef3a250b"
            }
        ],
        "token_infos": [
            {
                "address": "0xc02aaa39b223fe8d0a0e5c4f27ead9083c756cc2",
                "decimals": 18
            },
            {
                "address": "0xeeeeeeeeeeeeeeeeeeeeeeeeeeeeeeeeeeeeeeee",
                "decimals": 18
            },
            {
                "address": "0x2d9d7c64f6c00e16c28595ec4ebe4065ef3a250b",
                "decimals": 9
            },
            {
                "address": "0xa0b86991c6218b36c1d19d4a2e9eb0ce3606eb48",
                "decimals": 6
            }
        ]
    },
    "address_label": {
        "labels": [
            {
                "address": "0xa0b86991c6218b36c1d19d4a2e9eb0ce3606eb48",
                "label": "Circle: USDC Token"
            },
            {
                "address": "0x0000000000000000000000000000000000000003",
                "label": "Precompiled"
            },
            {
                "address": "0x0000000000000000000000000000000000000004",
                "label": "Precompiled"
            },
            {
                "address": "0xa2327a938febf5fec13bacfb16ae10ecbc4cbdcf",
                "label": "FiatTokenV2_1"
            },
            {
                "address": "0xc02aaa39b223fe8d0a0e5c4f27ead9083c756cc2",
                "label": "Wrapped Ether (WETH)"
            },
            {
                "address": "0x0000000000000000000000000000000000000001",
                "label": "Precompiled"
            },
            {
                "address": "0x9e7ae8bdba9aa346739792d219a808884996db67",
                "label": "CoW Protocol: GPv2AllowListAuthentication"
            },
            {
                "address": "0xc92e8bdf79f0507f65a392b0ab4667716bfe0110",
                "label": "CoW Protocol: GPv2VaultRelayer"
            },
            {
                "address": "0x01dcb88678aedd0c4cc9552b20f4718550250574",
                "label": "HooksTrampoline"
            },
            {
                "address": "0xeeeeeeeeeeeeeeeeeeeeeeeeeeeeeeeeeeeeeeee",
                "label": "Ether"
            },
            {
                "address": "0x9008d19f58aabd9ed0d60971565aa8510560ab41",
                "label": "CoW Protocol: GPv2Settlement"
            },
            {
                "address": "0x2c4c28ddbdac9c5e7055b4c863b72ea0149d8afe",
                "label": "CoW Protocol: GPv2AllowListAuthentication_Proxy"
            },
            {
                "address": "0x2d9d7c64f6c00e16c28595ec4ebe4065ef3a250b",
                "label": "GFY"
            },
            {
                "address": "0x0000000000000000000000000000000000000002",
                "label": "Precompiled"
            }
        ]
    },
    "trace": {
        "accountLabels": null,
        "dataMap": {
            "-1": {
                "invocation": {
                    "address": "0x4339889fd9dfca20a423fba011e9dff1c856caeb",
                    "callData": "",
                    "decodedMethod": null,
                    "errorInfo": "",
                    "fromAddress": "",
                    "gasUsed": 0,
                    "id": -1,
                    "methodDecoded": false,
                    "operation": "",
                    "output": "",
                    "revert": false,
                    "revertMessage": "",
                    "selector": "",
                    "status": false,
                    "value": ""
                },
                "nodeType": 0
            },
            "0": {
                "invocation": {
                    "address": "0x9008d19f58aabd9ed0d60971565aa8510560ab41",
                    "callData": "0x0000000000000000000000000000000000000000000000000000000000000080000000000000000000000000000000000000000000000000000000000000012000000000000000000000000000000000000000000000000000000000000001c000000000000000000000000000000000000000000000000000000000000005e000000000000000000000000000000000000000000000000000000000000000040000000000000000000000002d9d7c64f6c00e16c28595ec4ebe4065ef3a250b000000000000000000000000a0b86991c6218b36c1d19d4a2e9eb0ce3606eb48000000000000000000000000c02aaa39b223fe8d0a0e5c4f27ead9083c756cc2000000000000000000000000eeeeeeeeeeeeeeeeeeeeeeeeeeeeeeeeeeeeeeee0000000000000000000000000000000000000000000000000000000000000004000000000000000000000000000000000000000000000000014fa18af8dc19dc000000000000000000000000000000000000000000126a670307506b0000000000000000000000000000000000000000000000000000000000b0f71168f46f3b00000000000000000000000000000000000000000000000000b0f71168f46f3b00000000000000000000000000000000000000000000000000000000000000020000000000000000000000000000000000000000000000000000000000000040000000000000000000000000000000000000000000000000000000000000022000000000000000000000000000000000000000000000000000000000000000010000000000000000000000000000000000000000000000000000000000000003000000000000000000000000e985e79d262615d5b3dde09ac27c78c2ca2675bc000000000000000000000000000000000000000000000000000000003bf3ed8a0000000000000000000000000000000000000000000000000634580371f56dcc00000000000000000000000000000000000000000000000000000000659a9dd254738d897d76c9590804ec357f2d1020c93e4b67286dc933df4641816596bda300000000000000000000000000000000000000000000000000000000012bf5e40000000000000000000000000000000000000000000000000000000000000000000000000000000000000000000000000000000000000000000000003bf3ed8a000000000000000000000000000000000000000000000000000000000000016000000000000000000000000000000000000000000000000000000000000000415daf54bbb93931a8d334b81b3b2aad5e77b91b57511fa65c7708d4349dbed23d3bf8f1ad7ddbcf92dfd43e0cf70925d77eda2766b2b79029f6273d59fc0c3a501c0000000000000000000000000000000000000000000000000000000000000000000000000000000000000000000000000000000000000000000000000000020000000000000000000000000000000000000000000000000000000000000000000000000000000000000000729297bfc4c2267afd119ddf1c6e3a22e6ae6e6b000000000000000000000000000000000000000000000000014fa18af8dc19dc00000000000000000000000000000000000000000000000000b010be8ba1c4c600000000000000000000000000000000000000000000000000000000659a9e08db47033948acea8674bb2501bc6d2908d3cdf86eb9262a8585466e877e4ecd890000000000000000000000000000000000000000000000000013a3ed64ade6240000000000000000000000000000000000000000000000000000000000000000000000000000000000000000000000000000000000000000014fa18af8dc19dc000000000000000000000000000000000000000000000000000000000000016000000000000000000000000000000000000000000000000000000000000000418dda58c3675a260e39673dd29c3a26367a064d5a1ef78f8564aad83f6dfcf3c52f584a240b6445eed2d4bd5e55fa75df8221fc005f94aac9dcd8cc7c616418021c000000000000000000000000000000000000000000000000000000000000000000000000000000000000000000000000000000000000000000000000000060000000000000000000000000000000000000000000000000000000000000032000000000000000000000000000000000000000000000000000000000000006200000000000000000000000000000000000000000000000000000000000000001000000000000000000000000000000000000000000000000000000000000002000000000000000000000000001dcb88678aedd0c4cc9552b20f47185502505740000000000000000000000000000000000000000000000000000000000000000000000000000000000000000000000000000000000000000000000000000006000000000000000000000000000000000000000000000000000000000000001e4760f2a0b000000000000000000000000000000000000000000000000000000000000002000000000000000000000000000000000000000000000000000000000000000010000000000000000000000000000000000000000000000000000000000000020000000000000000000000000a0b86991c6218b36c1d19d4a2e9eb0ce3606eb480000000000000000000000000000000000000000000000000000000000000060000000000000000000000000000000000000000000000000000000000001656900000000000000000000000000000000000000000000000000000000000000e4d505accf000000000000000000000000e985e79d262615d5b3dde09ac27c78c2ca2675bc000000000000000000000000c92e8bdf79f0507f65a392b0ab4667716bfe0110ffffffffffffffffffffffffffffffffffffffffffffffffffffffffffffffff000000000000000000000000000000000000000000000000000000006f023e30000000000000000000000000000000000000000000000000000000000000001cccf8b2b0126e6b28505a1a84bc51da8a12eea2fb02dc5ce66ad53cb0c8c28e4871654df78712f5bb0a24311898d804f6089c3a84cb39fa82cdc029d1e965f1a4000000000000000000000000000000000000000000000000000000000000000000000000000000000000000000000000000000000000000000000000000000000000000000000000000000000000000000000000000000030000000000000000000000000000000000000000000000000000000000000060000000000000000000000000000000000000000000000000000000000000014000000000000000000000000000000000000000000000000000000000000002200000000000000000000000002e8949fbf4aa7d6dbe3943c52b87230c9f1d02b500000000000000000000000000000000000000000000000000000000000000000000000000000000000000000000000000000000000000000000000000000060000000000000000000000000000000000000000000000000000000000000004401c6adc3000000000000000000000000c02aaa39b223fe8d0a0e5c4f27ead9083c756cc2000000000000000000000000000000000000000000000000063d294c48ec834000000000000000000000000000000000000000000000000000000000000000000000000000000000a0b86991c6218b36c1d19d4a2e9eb0ce3606eb48000000000000000000000000000000000000000000000000000000000000000000000000000000000000000000000000000000000000000000000000000000600000000000000000000000000000000000000000000000000000000000000044a9059cbb00000000000000000000000000c95ee3a014c2b90fffb992d1ea66093cc13320000000000000000000000000000000000000000000000000000000003bf3ed8a00000000000000000000000000000000000000000000000000000000000000000000000000000000c02aaa39b223fe8d0a0e5c4f27ead9083c756cc20000000000000000000000000000000000000000000000000000000000000000000000000000000000000000000000000000000000000000000000000000006000000000000000000000000000000000000000000000000000000000000000242e1a7d4d000000000000000000000000000000000000000000000000063d294c48ec82fb00000000000000000000000000000000000000000000000000000000000000000000000000000000000000000000000000000000000000000000000000000000007e2f2a",
                    "decodedMethod": {
                        "callParams": [
                            {
                                "name": "tokens",
                                "type": "address[]",
                                "value": [
                                    "0x2d9d7c64f6c00e16c28595ec4ebe4065ef3a250b",
                                    "0xa0b86991c6218b36c1d19d4a2e9eb0ce3606eb48",
                                    "0xc02aaa39b223fe8d0a0e5c4f27ead9083c756cc2",
                                    "0xeeeeeeeeeeeeeeeeeeeeeeeeeeeeeeeeeeeeeeee"
                                ]
                            },
                            {
                                "name": "clearingPrices",
                                "type": "uint256[]",
                                "value": [
                                    "94,471,735,450,802,652",
                                    "22,263,135,833,118,627,063,660,544",
                                    "49,811,250,048,429,883",
                                    "49,811,250,048,429,883"
                                ]
                            },
                            {
                                "name": "trades",
                                "type": "(uint256,uint256,address,uint256,uint256,uint32,bytes32,uint256,uint256,uint256,bytes)[]",
                                "value": [
                                    [
                                        {
                                            "name": "sellTokenIndex",
                                            "type": "uint256",
                                            "value": "1"
                                        },
                                        {
                                            "name": "buyTokenIndex",
                                            "type": "uint256",
                                            "value": "3"
                                        },
                                        {
                                            "name": "receiver",
                                            "type": "address",
                                            "value": "0xe985e79d262615d5b3dde09ac27c78c2ca2675bc"
                                        },
                                        {
                                            "name": "sellAmount",
                                            "type": "uint256",
                                            "value": "1,005,841,802"
                                        },
                                        {
                                            "name": "buyAmount",
                                            "type": "uint256",
                                            "value": "447,079,034,836,577,740"
                                        },
                                        {
                                            "name": "validTo",
                                            "type": "uint32",
                                            "value": "1,704,631,762"
                                        },
                                        {
                                            "name": "appData",
                                            "type": "bytes32",
                                            "value": "0x54738d897d76c9590804ec357f2d1020c93e4b67286dc933df4641816596bda3"
                                        },
                                        {
                                            "name": "feeAmount",
                                            "type": "uint256",
                                            "value": "19,658,212"
                                        },
                                        {
                                            "name": "flags",
                                            "type": "uint256",
                                            "value": "0"
                                        },
                                        {
                                            "name": "executedAmount",
                                            "type": "uint256",
                                            "value": "1,005,841,802"
                                        },
                                        {
                                            "name": "signature",
                                            "type": "bytes",
                                            "value": "0x5daf54bbb93931a8d334b81b3b2aad5e77b91b57511fa65c7708d4349dbed23d3bf8f1ad7ddbcf92dfd43e0cf70925d77eda2766b2b79029f6273d59fc0c3a501c"
                                        }
                                    ],
                                    [
                                        {
                                            "name": "sellTokenIndex",
                                            "type": "uint256",
                                            "value": "2"
                                        },
                                        {
                                            "name": "buyTokenIndex",
                                            "type": "uint256",
                                            "value": "0"
                                        },
                                        {
                                            "name": "receiver",
                                            "type": "address",
                                            "value": "0x729297bfc4c2267afd119ddf1c6e3a22e6ae6e6b"
                                        },
                                        {
                                            "name": "sellAmount",
                                            "type": "uint256",
                                            "value": "94,471,735,450,802,652"
                                        },
                                        {
                                            "name": "buyAmount",
                                            "type": "uint256",
                                            "value": "49,558,006,473,540,806"
                                        },
                                        {
                                            "name": "validTo",
                                            "type": "uint32",
                                            "value": "1,704,631,816"
                                        },
                                        {
                                            "name": "appData",
                                            "type": "bytes32",
                                            "value": "0xdb47033948acea8674bb2501bc6d2908d3cdf86eb9262a8585466e877e4ecd89"
                                        },
                                        {
                                            "name": "feeAmount",
                                            "type": "uint256",
                                            "value": "5,528,264,549,197,348"
                                        },
                                        {
                                            "name": "flags",
                                            "type": "uint256",
                                            "value": "0"
                                        },
                                        {
                                            "name": "executedAmount",
                                            "type": "uint256",
                                            "value": "94,471,735,450,802,652"
                                        },
                                        {
                                            "name": "signature",
                                            "type": "bytes",
                                            "value": "0x8dda58c3675a260e39673dd29c3a26367a064d5a1ef78f8564aad83f6dfcf3c52f584a240b6445eed2d4bd5e55fa75df8221fc005f94aac9dcd8cc7c616418021c"
                                        }
                                    ]
                                ]
                            },
                            {
                                "name": "interactions",
                                "type": "(address,uint256,bytes)[][3]",
                                "value": [
                                    [
                                        [
                                            {
                                                "name": "target",
                                                "type": "address",
                                                "value": "0x01dcb88678aedd0c4cc9552b20f4718550250574"
                                            },
                                            {
                                                "name": "value",
                                                "type": "uint256",
                                                "value": "0"
                                            },
                                            {
                                                "name": "callData",
                                                "type": "bytes",
                                                "value": "0x760f2a0b000000000000000000000000000000000000000000000000000000000000002000000000000000000000000000000000000000000000000000000000000000010000000000000000000000000000000000000000000000000000000000000020000000000000000000000000a0b86991c6218b36c1d19d4a2e9eb0ce3606eb480000000000000000000000000000000000000000000000000000000000000060000000000000000000000000000000000000000000000000000000000001656900000000000000000000000000000000000000000000000000000000000000e4d505accf000000000000000000000000e985e79d262615d5b3dde09ac27c78c2ca2675bc000000000000000000000000c92e8bdf79f0507f65a392b0ab4667716bfe0110ffffffffffffffffffffffffffffffffffffffffffffffffffffffffffffffff000000000000000000000000000000000000000000000000000000006f023e30000000000000000000000000000000000000000000000000000000000000001cccf8b2b0126e6b28505a1a84bc51da8a12eea2fb02dc5ce66ad53cb0c8c28e4871654df78712f5bb0a24311898d804f6089c3a84cb39fa82cdc029d1e965f1a400000000000000000000000000000000000000000000000000000000"
                                            }
                                        ]
                                    ],
                                    [
                                        [
                                            {
                                                "name": "target",
                                                "type": "address",
                                                "value": "0x2e8949fbf4aa7d6dbe3943c52b87230c9f1d02b5"
                                            },
                                            {
                                                "name": "value",
                                                "type": "uint256",
                                                "value": "0"
                                            },
                                            {
                                                "name": "callData",
                                                "type": "bytes",
                                                "value": "0x01c6adc3000000000000000000000000c02aaa39b223fe8d0a0e5c4f27ead9083c756cc2000000000000000000000000000000000000000000000000063d294c48ec8340"
                                            }
                                        ],
                                        [
                                            {
                                                "name": "target",
                                                "type": "address",
                                                "value": "0xa0b86991c6218b36c1d19d4a2e9eb0ce3606eb48"
                                            },
                                            {
                                                "name": "value",
                                                "type": "uint256",
                                                "value": "0"
                                            },
                                            {
                                                "name": "callData",
                                                "type": "bytes",
                                                "value": "0xa9059cbb00000000000000000000000000c95ee3a014c2b90fffb992d1ea66093cc13320000000000000000000000000000000000000000000000000000000003bf3ed8a"
                                            }
                                        ],
                                        [
                                            {
                                                "name": "target",
                                                "type": "address",
                                                "value": "0xc02aaa39b223fe8d0a0e5c4f27ead9083c756cc2"
                                            },
                                            {
                                                "name": "value",
                                                "type": "uint256",
                                                "value": "0"
                                            },
                                            {
                                                "name": "callData",
                                                "type": "bytes",
                                                "value": "0x2e1a7d4d000000000000000000000000000000000000000000000000063d294c48ec82fb"
                                            }
                                        ]
                                    ],
                                    []
                                ]
                            }
                        ],
                        "constructorArguments": "",
                        "name": "settle",
                        "returnParams": [],
                        "signature": "settle(address[],uint256[],(uint256,uint256,address,uint256,uint256,uint32,bytes32,uint256,uint256,uint256,bytes)[],(address,uint256,bytes)[][3])"
                    },
                    "errorInfo": "",
                    "fromAddress": "0x4339889fd9dfca20a423fba011e9dff1c856caeb",
                    "gasUsed": 344910,
                    "id": 0,
                    "methodDecoded": true,
                    "operation": "CALL",
                    "output": "",
                    "revert": false,
                    "revertMessage": "",
                    "selector": "0x13d79a0b",
                    "status": true,
                    "value": "0"
                },
                "nodeType": 0
            },
            "1": {
                "invocation": {
                    "address": "0x2c4c28ddbdac9c5e7055b4c863b72ea0149d8afe",
                    "callData": "0x0000000000000000000000004339889fd9dfca20a423fba011e9dff1c856caeb",
                    "decodedMethod": {
                        "callParams": [
                            {
                                "name": "prospectiveSolver",
                                "type": "address",
                                "value": "0x4339889fd9dfca20a423fba011e9dff1c856caeb"
                            }
                        ],
                        "constructorArguments": "",
                        "name": "isSolver",
                        "returnParams": [
                            {
                                "name": "",
                                "type": "bool",
                                "value": true
                            }
                        ],
                        "signature": "isSolver(address)"
                    },
                    "errorInfo": "",
                    "fromAddress": "0x9008d19f58aabd9ed0d60971565aa8510560ab41",
                    "gasUsed": 865,
                    "id": 1,
                    "methodDecoded": true,
                    "operation": "STATICCALL",
                    "output": "0x0000000000000000000000000000000000000000000000000000000000000001",
                    "revert": false,
                    "revertMessage": "",
                    "selector": "0x02cc250d",
                    "status": true,
                    "value": "0"
                },
                "nodeType": 0
            },
            "10": {
                "event": {
                    "contract": "0x9008d19f58aabd9ed0d60971565aa8510560ab41",
                    "decodedLog": {
                        "name": "Trade",
                        "params": [
                            {
                                "name": "owner",
                                "type": "address",
                                "value": "0xe985e79d262615d5b3dde09ac27c78c2ca2675bc"
                            },
                            {
                                "name": "sellToken",
                                "type": "address",
                                "value": "0xa0b86991c6218b36c1d19d4a2e9eb0ce3606eb48"
                            },
                            {
                                "name": "buyToken",
                                "type": "address",
                                "value": "0xeeeeeeeeeeeeeeeeeeeeeeeeeeeeeeeeeeeeeeee"
                            },
                            {
                                "name": "sellAmount",
                                "type": "uint256",
                                "value": "1,025,500,014"
                            },
                            {
                                "name": "buyAmount",
                                "type": "uint256",
                                "value": "449,560,945,424,630,523"
                            },
                            {
                                "name": "feeAmount",
                                "type": "uint256",
                                "value": "19,658,212"
                            },
                            {
                                "name": "orderUid",
                                "type": "bytes",
                                "value": "0x0fbd8d51c08093c6feda26b8bff4f50ea3b36eab931014bbb79383e9a7de232be985e79d262615d5b3dde09ac27c78c2ca2675bc659a9dd2"
                            }
                        ],
                        "signature": "Trade(address,address,address,uint256,uint256,uint256,bytes)"
                    },
                    "id": 10,
                    "logData": "0x000000000000000000000000a0b86991c6218b36c1d19d4a2e9eb0ce3606eb48000000000000000000000000eeeeeeeeeeeeeeeeeeeeeeeeeeeeeeeeeeeeeeee000000000000000000000000000000000000000000000000000000003d1fe36e000000000000000000000000000000000000000000000000063d294c48ec82fb00000000000000000000000000000000000000000000000000000000012bf5e400000000000000000000000000000000000000000000000000000000000000c000000000000000000000000000000000000000000000000000000000000000380fbd8d51c08093c6feda26b8bff4f50ea3b36eab931014bbb79383e9a7de232be985e79d262615d5b3dde09ac27c78c2ca2675bc659a9dd20000000000000000",
                    "logDecoded": true,
                    "operation": "EVENT",
                    "revert": false,
                    "status": true,
                    "topics": [
                        "0xa07a543ab8a018198e99ca0184c93fe9050a79400a0a723441f84de1d972cc17",
                        "0x000000000000000000000000e985e79d262615d5b3dde09ac27c78c2ca2675bc"
                    ]
                },
                "nodeType": 1
            },
            "11": {
                "invocation": {
                    "address": "0x0000000000000000000000000000000000000001",
                    "callData": "0x85baca63f64545f3226353671938e6c70c2eb6ed60b0c86ebd356bee000000000000000000000000000000000000000000000000000000000000001c8dda58c3675a260e39673dd29c3a26367a064d5a1ef78f8564aad83f6dfcf3c52f584a240b6445eed2d4bd5e55fa75df8221fc005f94aac9dcd8cc7c61641802",
                    "decodedMethod": {
                        "callParams": [
                            {
                                "name": "hash",
                                "type": "bytes32",
                                "value": "0x18a0d8ce85baca63f64545f3226353671938e6c70c2eb6ed60b0c86ebd356bee"
                            },
                            {
                                "name": "v",
                                "type": "uint256",
                                "value": "28"
                            },
                            {
                                "name": "r",
                                "type": "bytes32",
                                "value": "0x8dda58c3675a260e39673dd29c3a26367a064d5a1ef78f8564aad83f6dfcf3c5"
                            },
                            {
                                "name": "s",
                                "type": "bytes32",
                                "value": "0x2f584a240b6445eed2d4bd5e55fa75df8221fc005f94aac9dcd8cc7c61641802"
                            }
                        ],
                        "constructorArguments": "",
                        "name": "ecrecover",
                        "returnParams": [
                            {
                                "name": "",
                                "type": "address",
                                "value": "0x729297bfc4c2267afd119ddf1c6e3a22e6ae6e6b"
                            }
                        ],
                        "signature": "ecrecover(bytes32,uint256,bytes32,bytes32)"
                    },
                    "errorInfo": "",
                    "fromAddress": "0x9008d19f58aabd9ed0d60971565aa8510560ab41",
                    "gasUsed": 3000,
                    "id": 11,
                    "methodDecoded": true,
                    "operation": "STATICCALL",
                    "output": "0x000000000000000000000000729297bfc4c2267afd119ddf1c6e3a22e6ae6e6b",
                    "revert": false,
                    "revertMessage": "",
                    "selector": "0x18a0d8ce",
                    "status": true,
                    "value": "0"
                },
                "nodeType": 0
            },
            "12": {
                "event": {
                    "contract": "0x9008d19f58aabd9ed0d60971565aa8510560ab41",
                    "decodedLog": {
                        "name": "Trade",
                        "params": [
                            {
                                "name": "owner",
                                "type": "address",
                                "value": "0x729297bfc4c2267afd119ddf1c6e3a22e6ae6e6b"
                            },
                            {
                                "name": "sellToken",
                                "type": "address",
                                "value": "0xc02aaa39b223fe8d0a0e5c4f27ead9083c756cc2"
                            },
                            {
                                "name": "buyToken",
                                "type": "address",
                                "value": "0x2d9d7c64f6c00e16c28595ec4ebe4065ef3a250b"
                            },
                            {
                                "name": "sellAmount",
                                "type": "uint256",
                                "value": "100,000,000,000,000,000"
                            },
                            {
                                "name": "buyAmount",
                                "type": "uint256",
                                "value": "49,811,250,048,429,883"
                            },
                            {
                                "name": "feeAmount",
                                "type": "uint256",
                                "value": "5,528,264,549,197,348"
                            },
                            {
                                "name": "orderUid",
                                "type": "bytes",
                                "value": "0x18a0d8ce85baca63f64545f3226353671938e6c70c2eb6ed60b0c86ebd356bee729297bfc4c2267afd119ddf1c6e3a22e6ae6e6b659a9e08"
                            }
                        ],
                        "signature": "Trade(address,address,address,uint256,uint256,uint256,bytes)"
                    },
                    "id": 12,
                    "logData": "0x000000000000000000000000c02aaa39b223fe8d0a0e5c4f27ead9083c756cc20000000000000000000000002d9d7c64f6c00e16c28595ec4ebe4065ef3a250b000000000000000000000000000000000000000000000000016345785d8a000000000000000000000000000000000000000000000000000000b0f71168f46f3b0000000000000000000000000000000000000000000000000013a3ed64ade62400000000000000000000000000000000000000000000000000000000000000c0000000000000000000000000000000000000000000000000000000000000003818a0d8ce85baca63f64545f3226353671938e6c70c2eb6ed60b0c86ebd356bee729297bfc4c2267afd119ddf1c6e3a22e6ae6e6b659a9e080000000000000000",
                    "logDecoded": true,
                    "operation": "EVENT",
                    "revert": false,
                    "status": true,
                    "topics": [
                        "0xa07a543ab8a018198e99ca0184c93fe9050a79400a0a723441f84de1d972cc17",
                        "0x000000000000000000000000729297bfc4c2267afd119ddf1c6e3a22e6ae6e6b"
                    ]
                },
                "nodeType": 1
            },
            "13": {
                "invocation": {
                    "address": "0xc92e8bdf79f0507f65a392b0ab4667716bfe0110",
                    "callData": "0x00000000000000000000000000000000000000000000000000000000000000200000000000000000000000000000000000000000000000000000000000000002000000000000000000000000e985e79d262615d5b3dde09ac27c78c2ca2675bc000000000000000000000000a0b86991c6218b36c1d19d4a2e9eb0ce3606eb48000000000000000000000000000000000000000000000000000000003d1fe36e5a28e9363bb942b639270062aa6bb295f434bcdfc42c97267bf003f272060dc9000000000000000000000000729297bfc4c2267afd119ddf1c6e3a22e6ae6e6b000000000000000000000000c02aaa39b223fe8d0a0e5c4f27ead9083c756cc2000000000000000000000000000000000000000000000000016345785d8a00005a28e9363bb942b639270062aa6bb295f434bcdfc42c97267bf003f272060dc9",
                    "decodedMethod": {
                        "callParams": [
                            {
                                "name": "transfers",
                                "type": "(address,address,uint256,bytes32)[]",
                                "value": [
                                    [
                                        {
                                            "name": "account",
                                            "type": "address",
                                            "value": "0xe985e79d262615d5b3dde09ac27c78c2ca2675bc"
                                        },
                                        {
                                            "name": "token",
                                            "type": "address",
                                            "value": "0xa0b86991c6218b36c1d19d4a2e9eb0ce3606eb48"
                                        },
                                        {
                                            "name": "amount",
                                            "type": "uint256",
                                            "value": "1,025,500,014"
                                        },
                                        {
                                            "name": "balance",
                                            "type": "bytes32",
                                            "value": "0x5a28e9363bb942b639270062aa6bb295f434bcdfc42c97267bf003f272060dc9"
                                        }
                                    ],
                                    [
                                        {
                                            "name": "account",
                                            "type": "address",
                                            "value": "0x729297bfc4c2267afd119ddf1c6e3a22e6ae6e6b"
                                        },
                                        {
                                            "name": "token",
                                            "type": "address",
                                            "value": "0xc02aaa39b223fe8d0a0e5c4f27ead9083c756cc2"
                                        },
                                        {
                                            "name": "amount",
                                            "type": "uint256",
                                            "value": "100,000,000,000,000,000"
                                        },
                                        {
                                            "name": "balance",
                                            "type": "bytes32",
                                            "value": "0x5a28e9363bb942b639270062aa6bb295f434bcdfc42c97267bf003f272060dc9"
                                        }
                                    ]
                                ]
                            }
                        ],
                        "constructorArguments": "",
                        "name": "transferFromAccounts",
                        "returnParams": [],
                        "signature": "transferFromAccounts((address,address,uint256,bytes32)[])"
                    },
                    "errorInfo": "",
                    "fromAddress": "0x9008d19f58aabd9ed0d60971565aa8510560ab41",
                    "gasUsed": 23827,
                    "id": 13,
                    "methodDecoded": true,
                    "operation": "CALL",
                    "output": "",
                    "revert": false,
                    "revertMessage": "",
                    "selector": "0x7d10d11f",
                    "status": true,
                    "value": "0"
                },
                "nodeType": 0
            },
            "14": {
                "invocation": {
                    "address": "0xa0b86991c6218b36c1d19d4a2e9eb0ce3606eb48",
                    "callData": "0x000000000000000000000000e985e79d262615d5b3dde09ac27c78c2ca2675bc0000000000000000000000009008d19f58aabd9ed0d60971565aa8510560ab41000000000000000000000000000000000000000000000000000000003d1fe36e",
                    "decodedMethod": {
                        "callParams": [
                            {
                                "name": "from",
                                "type": "address",
                                "value": "0xe985e79d262615d5b3dde09ac27c78c2ca2675bc"
                            },
                            {
                                "name": "to",
                                "type": "address",
                                "value": "0x9008d19f58aabd9ed0d60971565aa8510560ab41"
                            },
                            {
                                "decimalAvailable": true,
                                "name": "value",
                                "type": "uint256",
                                "value": "1,025,500,014"
                            }
                        ],
                        "constructorArguments": "",
                        "name": "transferFrom",
                        "returnParams": [
                            {
                                "name": "",
                                "type": "bool",
                                "value": true
                            }
                        ],
                        "signature": "transferFrom(address,address,uint256)"
                    },
                    "errorInfo": "",
                    "fromAddress": "0xc92e8bdf79f0507f65a392b0ab4667716bfe0110",
                    "gasUsed": 11592,
                    "id": 14,
                    "methodDecoded": true,
                    "operation": "CALL",
                    "output": "0x0000000000000000000000000000000000000000000000000000000000000001",
                    "revert": false,
                    "revertMessage": "",
                    "selector": "0x23b872dd",
                    "status": true,
                    "value": "0"
                },
                "nodeType": 0
            },
            "15": {
                "invocation": {
                    "address": "0xa2327a938febf5fec13bacfb16ae10ecbc4cbdcf",
                    "callData": "0x000000000000000000000000e985e79d262615d5b3dde09ac27c78c2ca2675bc0000000000000000000000009008d19f58aabd9ed0d60971565aa8510560ab41000000000000000000000000000000000000000000000000000000003d1fe36e",
                    "decodedMethod": {
                        "callParams": [
                            {
                                "name": "from",
                                "type": "address",
                                "value": "0xe985e79d262615d5b3dde09ac27c78c2ca2675bc"
                            },
                            {
                                "name": "to",
                                "type": "address",
                                "value": "0x9008d19f58aabd9ed0d60971565aa8510560ab41"
                            },
                            {
                                "decimalAvailable": true,
                                "name": "value",
                                "type": "uint256",
                                "value": "1,025,500,014"
                            }
                        ],
                        "constructorArguments": "",
                        "name": "transferFrom",
                        "returnParams": [
                            {
                                "name": "",
                                "type": "bool",
                                "value": true
                            }
                        ],
                        "signature": "transferFrom(address,address,uint256)"
                    },
                    "errorInfo": "",
                    "fromAddress": "0xa0b86991c6218b36c1d19d4a2e9eb0ce3606eb48",
                    "gasUsed": 10797,
                    "id": 15,
                    "methodDecoded": true,
                    "operation": "DELEGATECALL",
                    "output": "0x0000000000000000000000000000000000000000000000000000000000000001",
                    "revert": false,
                    "revertMessage": "",
                    "selector": "0x23b872dd",
                    "status": true,
                    "value": "0"
                },
                "nodeType": 0
            },
            "16": {
                "event": {
                    "contract": "0xa0b86991c6218b36c1d19d4a2e9eb0ce3606eb48",
                    "decodedLog": {
                        "name": "Transfer",
                        "params": [
                            {
                                "name": "from",
                                "type": "address",
                                "value": "0xe985e79d262615d5b3dde09ac27c78c2ca2675bc"
                            },
                            {
                                "name": "to",
                                "type": "address",
                                "value": "0x9008d19f58aabd9ed0d60971565aa8510560ab41"
                            },
                            {
                                "decimalAvailable": true,
                                "name": "value",
                                "type": "uint256",
                                "value": "1,025,500,014"
                            }
                        ],
                        "signature": "Transfer(address,address,uint256)"
                    },
                    "id": 16,
                    "logData": "0x000000000000000000000000000000000000000000000000000000003d1fe36e",
                    "logDecoded": true,
                    "operation": "EVENT",
                    "revert": false,
                    "status": true,
                    "topics": [
                        "0xddf252ad1be2c89b69c2b068fc378daa952ba7f163c4a11628f55a4df523b3ef",
                        "0x000000000000000000000000e985e79d262615d5b3dde09ac27c78c2ca2675bc",
                        "0x0000000000000000000000009008d19f58aabd9ed0d60971565aa8510560ab41"
                    ]
                },
                "nodeType": 1
            },
            "17": {
                "invocation": {
                    "address": "0xc02aaa39b223fe8d0a0e5c4f27ead9083c756cc2",
                    "callData": "0x000000000000000000000000729297bfc4c2267afd119ddf1c6e3a22e6ae6e6b0000000000000000000000009008d19f58aabd9ed0d60971565aa8510560ab41000000000000000000000000000000000000000000000000016345785d8a0000",
                    "decodedMethod": {
                        "callParams": [
                            {
                                "name": "src",
                                "type": "address",
                                "value": "0x729297bfc4c2267afd119ddf1c6e3a22e6ae6e6b"
                            },
                            {
                                "name": "dst",
                                "type": "address",
                                "value": "0x9008d19f58aabd9ed0d60971565aa8510560ab41"
                            },
                            {
                                "decimalAvailable": true,
                                "name": "wad",
                                "type": "uint256",
                                "value": "100,000,000,000,000,000"
                            }
                        ],
                        "constructorArguments": "",
                        "name": "transferFrom",
                        "returnParams": [
                            {
                                "name": "",
                                "type": "bool",
                                "value": true
                            }
                        ],
                        "signature": "transferFrom(address,address,uint256)"
                    },
                    "errorInfo": "",
                    "fromAddress": "0xc92e8bdf79f0507f65a392b0ab4667716bfe0110",
                    "gasUsed": 9025,
                    "id": 17,
                    "methodDecoded": true,
                    "operation": "CALL",
                    "output": "0x0000000000000000000000000000000000000000000000000000000000000001",
                    "revert": false,
                    "revertMessage": "",
                    "selector": "0x23b872dd",
                    "status": true,
                    "value": "0"
                },
                "nodeType": 0
            },
            "18": {
                "event": {
                    "contract": "0xc02aaa39b223fe8d0a0e5c4f27ead9083c756cc2",
                    "decodedLog": {
                        "name": "Transfer",
                        "params": [
                            {
                                "name": "src",
                                "type": "address",
                                "value": "0x729297bfc4c2267afd119ddf1c6e3a22e6ae6e6b"
                            },
                            {
                                "name": "dst",
                                "type": "address",
                                "value": "0x9008d19f58aabd9ed0d60971565aa8510560ab41"
                            },
                            {
                                "decimalAvailable": true,
                                "name": "wad",
                                "type": "uint256",
                                "value": "100,000,000,000,000,000"
                            }
                        ],
                        "signature": "Transfer(address,address,uint256)"
                    },
                    "id": 18,
                    "logData": "0x000000000000000000000000000000000000000000000000016345785d8a0000",
                    "logDecoded": true,
                    "operation": "EVENT",
                    "revert": false,
                    "status": true,
                    "topics": [
                        "0xddf252ad1be2c89b69c2b068fc378daa952ba7f163c4a11628f55a4df523b3ef",
                        "0x000000000000000000000000729297bfc4c2267afd119ddf1c6e3a22e6ae6e6b",
                        "0x0000000000000000000000009008d19f58aabd9ed0d60971565aa8510560ab41"
                    ]
                },
                "nodeType": 1
            },
            "19": {
                "invocation": {
                    "address": "0x2e8949fbf4aa7d6dbe3943c52b87230c9f1d02b5",
                    "callData": "0x000000000000000000000000c02aaa39b223fe8d0a0e5c4f27ead9083c756cc2000000000000000000000000000000000000000000000000063d294c48ec8340",
                    "decodedMethod": {
                        "callParams": [
                            {
                                "name": "addde",
                                "type": "address",
                                "value": "0xc02aaa39b223fe8d0a0e5c4f27ead9083c756cc2"
                            },
                            {
                                "name": "uinttt",
                                "type": "uint256",
                                "value": "449,560,945,424,630,592"
                            }
                        ],
                        "constructorArguments": "",
                        "name": "transferFrom",
                        "returnParams": [],
                        "signature": "transferFrom(address,uint256)"
                    },
                    "errorInfo": "",
                    "fromAddress": "0x9008d19f58aabd9ed0d60971565aa8510560ab41",
                    "gasUsed": 6879,
                    "id": 19,
                    "methodDecoded": true,
                    "operation": "CALL",
                    "output": "",
                    "revert": false,
                    "revertMessage": "",
                    "selector": "0x01c6adc3",
                    "status": true,
                    "value": "0"
                },
                "nodeType": 0
            },
            "2": {
                "invocation": {
                    "address": "0x9e7ae8bdba9aa346739792d219a808884996db67",
                    "callData": "0x0000000000000000000000004339889fd9dfca20a423fba011e9dff1c856caeb",
                    "decodedMethod": {
                        "callParams": [
                            {
                                "name": "prospectiveSolver",
                                "type": "address",
                                "value": "0x4339889fd9dfca20a423fba011e9dff1c856caeb"
                            }
                        ],
                        "constructorArguments": "",
                        "name": "isSolver",
                        "returnParams": [
                            {
                                "name": "",
                                "type": "bool",
                                "value": true
                            }
                        ],
                        "signature": "isSolver(address)"
                    },
                    "errorInfo": "",
                    "fromAddress": "0x2c4c28ddbdac9c5e7055b4c863b72ea0149d8afe",
                    "gasUsed": 431,
                    "id": 2,
                    "methodDecoded": true,
                    "operation": "DELEGATECALL",
                    "output": "0x0000000000000000000000000000000000000000000000000000000000000001",
                    "revert": false,
                    "revertMessage": "",
                    "selector": "0x02cc250d",
                    "status": true,
                    "value": "0"
                },
                "nodeType": 0
            },
            "20": {
                "invocation": {
                    "address": "0xc02aaa39b223fe8d0a0e5c4f27ead9083c756cc2",
                    "callData": "0x00000000000000000000000000c95ee3a014c2b90fffb992d1ea66093cc133200000000000000000000000009008d19f58aabd9ed0d60971565aa8510560ab41000000000000000000000000000000000000000000000000063d294c48ec8340",
                    "decodedMethod": {
                        "callParams": [
                            {
                                "name": "src",
                                "type": "address",
                                "value": "0x00c95ee3a014c2b90fffb992d1ea66093cc13320"
                            },
                            {
                                "name": "dst",
                                "type": "address",
                                "value": "0x9008d19f58aabd9ed0d60971565aa8510560ab41"
                            },
                            {
                                "decimalAvailable": true,
                                "name": "wad",
                                "type": "uint256",
                                "value": "449,560,945,424,630,592"
                            }
                        ],
                        "constructorArguments": "",
                        "name": "transferFrom",
                        "returnParams": [
                            {
                                "name": "",
                                "type": "bool",
                                "value": true
                            }
                        ],
                        "signature": "transferFrom(address,address,uint256)"
                    },
                    "errorInfo": "",
                    "fromAddress": "0x2e8949fbf4aa7d6dbe3943c52b87230c9f1d02b5",
                    "gasUsed": 6225,
                    "id": 20,
                    "methodDecoded": true,
                    "operation": "CALL",
                    "output": "0x0000000000000000000000000000000000000000000000000000000000000001",
                    "revert": false,
                    "revertMessage": "",
                    "selector": "0x23b872dd",
                    "status": true,
                    "value": "0"
                },
                "nodeType": 0
            },
            "21": {
                "event": {
                    "contract": "0xc02aaa39b223fe8d0a0e5c4f27ead9083c756cc2",
                    "decodedLog": {
                        "name": "Transfer",
                        "params": [
                            {
                                "name": "src",
                                "type": "address",
                                "value": "0x00c95ee3a014c2b90fffb992d1ea66093cc13320"
                            },
                            {
                                "name": "dst",
                                "type": "address",
                                "value": "0x9008d19f58aabd9ed0d60971565aa8510560ab41"
                            },
                            {
                                "decimalAvailable": true,
                                "name": "wad",
                                "type": "uint256",
                                "value": "449,560,945,424,630,592"
                            }
                        ],
                        "signature": "Transfer(address,address,uint256)"
                    },
                    "id": 21,
                    "logData": "0x000000000000000000000000000000000000000000000000063d294c48ec8340",
                    "logDecoded": true,
                    "operation": "EVENT",
                    "revert": false,
                    "status": true,
                    "topics": [
                        "0xddf252ad1be2c89b69c2b068fc378daa952ba7f163c4a11628f55a4df523b3ef",
                        "0x00000000000000000000000000c95ee3a014c2b90fffb992d1ea66093cc13320",
                        "0x0000000000000000000000009008d19f58aabd9ed0d60971565aa8510560ab41"
                    ]
                },
                "nodeType": 1
            },
            "22": {
                "event": {
                    "contract": "0x9008d19f58aabd9ed0d60971565aa8510560ab41",
                    "decodedLog": {
                        "name": "Interaction",
                        "params": [
                            {
                                "name": "target",
                                "type": "address",
                                "value": "0x2e8949fbf4aa7d6dbe3943c52b87230c9f1d02b5"
                            },
                            {
                                "name": "value",
                                "type": "uint256",
                                "value": "0"
                            },
                            {
                                "name": "selector",
                                "type": "bytes4",
                                "value": "0x01c6adc3"
                            }
                        ],
                        "signature": "Interaction(address,uint256,bytes4)"
                    },
                    "id": 22,
                    "logData": "0x000000000000000000000000000000000000000000000000000000000000000001c6adc300000000000000000000000000000000000000000000000000000000",
                    "logDecoded": true,
                    "operation": "EVENT",
                    "revert": false,
                    "status": true,
                    "topics": [
                        "0xed99827efb37016f2275f98c4bcf71c7551c75d59e9b450f79fa32e60be672c2",
                        "0x0000000000000000000000002e8949fbf4aa7d6dbe3943c52b87230c9f1d02b5"
                    ]
                },
                "nodeType": 1
            },
            "23": {
                "invocation": {
                    "address": "0xa0b86991c6218b36c1d19d4a2e9eb0ce3606eb48",
                    "callData": "0x00000000000000000000000000c95ee3a014c2b90fffb992d1ea66093cc13320000000000000000000000000000000000000000000000000000000003bf3ed8a",
                    "decodedMethod": {
                        "callParams": [
                            {
                                "name": "to",
                                "type": "address",
                                "value": "0x00c95ee3a014c2b90fffb992d1ea66093cc13320"
                            },
                            {
                                "decimalAvailable": true,
                                "name": "value",
                                "type": "uint256",
                                "value": "1,005,841,802"
                            }
                        ],
                        "constructorArguments": "",
                        "name": "transfer",
                        "returnParams": [
                            {
                                "name": "",
                                "type": "bool",
                                "value": true
                            }
                        ],
                        "signature": "transfer(address,uint256)"
                    },
                    "errorInfo": "",
                    "fromAddress": "0x9008d19f58aabd9ed0d60971565aa8510560ab41",
                    "gasUsed": 7617,
                    "id": 23,
                    "methodDecoded": true,
                    "operation": "CALL",
                    "output": "0x0000000000000000000000000000000000000000000000000000000000000001",
                    "revert": false,
                    "revertMessage": "",
                    "selector": "0xa9059cbb",
                    "status": true,
                    "value": "0"
                },
                "nodeType": 0
            },
            "24": {
                "invocation": {
                    "address": "0xa2327a938febf5fec13bacfb16ae10ecbc4cbdcf",
                    "callData": "0x00000000000000000000000000c95ee3a014c2b90fffb992d1ea66093cc13320000000000000000000000000000000000000000000000000000000003bf3ed8a",
                    "decodedMethod": {
                        "callParams": [
                            {
                                "name": "to",
                                "type": "address",
                                "value": "0x00c95ee3a014c2b90fffb992d1ea66093cc13320"
                            },
                            {
                                "decimalAvailable": true,
                                "name": "value",
                                "type": "uint256",
                                "value": "1,005,841,802"
                            }
                        ],
                        "constructorArguments": "",
                        "name": "transfer",
                        "returnParams": [
                            {
                                "name": "",
                                "type": "bool",
                                "value": true
                            }
                        ],
                        "signature": "transfer(address,uint256)"
                    },
                    "errorInfo": "",
                    "fromAddress": "0xa0b86991c6218b36c1d19d4a2e9eb0ce3606eb48",
                    "gasUsed": 6828,
                    "id": 24,
                    "methodDecoded": true,
                    "operation": "DELEGATECALL",
                    "output": "0x0000000000000000000000000000000000000000000000000000000000000001",
                    "revert": false,
                    "revertMessage": "",
                    "selector": "0xa9059cbb",
                    "status": true,
                    "value": "0"
                },
                "nodeType": 0
            },
            "25": {
                "event": {
                    "contract": "0xa0b86991c6218b36c1d19d4a2e9eb0ce3606eb48",
                    "decodedLog": {
                        "name": "Transfer",
                        "params": [
                            {
                                "name": "from",
                                "type": "address",
                                "value": "0x9008d19f58aabd9ed0d60971565aa8510560ab41"
                            },
                            {
                                "name": "to",
                                "type": "address",
                                "value": "0x00c95ee3a014c2b90fffb992d1ea66093cc13320"
                            },
                            {
                                "decimalAvailable": true,
                                "name": "value",
                                "type": "uint256",
                                "value": "1,005,841,802"
                            }
                        ],
                        "signature": "Transfer(address,address,uint256)"
                    },
                    "id": 25,
                    "logData": "0x000000000000000000000000000000000000000000000000000000003bf3ed8a",
                    "logDecoded": true,
                    "operation": "EVENT",
                    "revert": false,
                    "status": true,
                    "topics": [
                        "0xddf252ad1be2c89b69c2b068fc378daa952ba7f163c4a11628f55a4df523b3ef",
                        "0x0000000000000000000000009008d19f58aabd9ed0d60971565aa8510560ab41",
                        "0x00000000000000000000000000c95ee3a014c2b90fffb992d1ea66093cc13320"
                    ]
                },
                "nodeType": 1
            },
            "26": {
                "event": {
                    "contract": "0x9008d19f58aabd9ed0d60971565aa8510560ab41",
                    "decodedLog": {
                        "name": "Interaction",
                        "params": [
                            {
                                "name": "target",
                                "type": "address",
                                "value": "0xa0b86991c6218b36c1d19d4a2e9eb0ce3606eb48"
                            },
                            {
                                "name": "value",
                                "type": "uint256",
                                "value": "0"
                            },
                            {
                                "name": "selector",
                                "type": "bytes4",
                                "value": "0xa9059cbb"
                            }
                        ],
                        "signature": "Interaction(address,uint256,bytes4)"
                    },
                    "id": 26,
                    "logData": "0x0000000000000000000000000000000000000000000000000000000000000000a9059cbb00000000000000000000000000000000000000000000000000000000",
                    "logDecoded": true,
                    "operation": "EVENT",
                    "revert": false,
                    "status": true,
                    "topics": [
                        "0xed99827efb37016f2275f98c4bcf71c7551c75d59e9b450f79fa32e60be672c2",
                        "0x000000000000000000000000a0b86991c6218b36c1d19d4a2e9eb0ce3606eb48"
                    ]
                },
                "nodeType": 1
            },
            "27": {
                "invocation": {
                    "address": "0xc02aaa39b223fe8d0a0e5c4f27ead9083c756cc2",
                    "callData": "0x000000000000000000000000000000000000000000000000063d294c48ec82fb",
                    "decodedMethod": {
                        "callParams": [
                            {
                                "name": "wad",
                                "type": "uint256",
                                "value": "449,560,945,424,630,523"
                            }
                        ],
                        "constructorArguments": "",
                        "name": "withdraw",
                        "returnParams": [],
                        "signature": "withdraw(uint256)"
                    },
                    "errorInfo": "",
                    "fromAddress": "0x9008d19f58aabd9ed0d60971565aa8510560ab41",
                    "gasUsed": 9195,
                    "id": 27,
                    "methodDecoded": true,
                    "operation": "CALL",
                    "output": "",
                    "revert": false,
                    "revertMessage": "",
                    "selector": "0x2e1a7d4d",
                    "status": true,
                    "value": "0"
                },
                "nodeType": 0
            },
            "28": {
                "invocation": {
                    "address": "0x9008d19f58aabd9ed0d60971565aa8510560ab41",
                    "callData": "0x",
                    "decodedMethod": null,
                    "errorInfo": "",
                    "fromAddress": "0xc02aaa39b223fe8d0a0e5c4f27ead9083c756cc2",
                    "gasUsed": 55,
                    "id": 28,
                    "methodDecoded": false,
                    "operation": "CALL",
                    "output": "",
                    "revert": false,
                    "revertMessage": "",
                    "selector": "fallback",
                    "status": true,
                    "value": "0.449560945424630523"
                },
                "nodeType": 0
            },
            "29": {
                "event": {
                    "contract": "0xc02aaa39b223fe8d0a0e5c4f27ead9083c756cc2",
                    "decodedLog": {
                        "name": "Withdrawal",
                        "params": [
                            {
                                "name": "src",
                                "type": "address",
                                "value": "0x9008d19f58aabd9ed0d60971565aa8510560ab41"
                            },
                            {
                                "name": "wad",
                                "type": "uint256",
                                "value": "449,560,945,424,630,523"
                            }
                        ],
                        "signature": "Withdrawal(address,uint256)"
                    },
                    "id": 29,
                    "logData": "0x000000000000000000000000000000000000000000000000063d294c48ec82fb",
                    "logDecoded": true,
                    "operation": "EVENT",
                    "revert": false,
                    "status": true,
                    "topics": [
                        "0x7fcf532c15f0a6db0bd6d0e038bea71d30d808c7d98cb3bf7268a95bf5081b65",
                        "0x0000000000000000000000009008d19f58aabd9ed0d60971565aa8510560ab41"
                    ]
                },
                "nodeType": 1
            },
            "3": {
                "invocation": {
                    "address": "0x01dcb88678aedd0c4cc9552b20f4718550250574",
                    "callData": "0x000000000000000000000000000000000000000000000000000000000000002000000000000000000000000000000000000000000000000000000000000000010000000000000000000000000000000000000000000000000000000000000020000000000000000000000000a0b86991c6218b36c1d19d4a2e9eb0ce3606eb480000000000000000000000000000000000000000000000000000000000000060000000000000000000000000000000000000000000000000000000000001656900000000000000000000000000000000000000000000000000000000000000e4d505accf000000000000000000000000e985e79d262615d5b3dde09ac27c78c2ca2675bc000000000000000000000000c92e8bdf79f0507f65a392b0ab4667716bfe0110ffffffffffffffffffffffffffffffffffffffffffffffffffffffffffffffff000000000000000000000000000000000000000000000000000000006f023e30000000000000000000000000000000000000000000000000000000000000001cccf8b2b0126e6b28505a1a84bc51da8a12eea2fb02dc5ce66ad53cb0c8c28e4871654df78712f5bb0a24311898d804f6089c3a84cb39fa82cdc029d1e965f1a400000000000000000000000000000000000000000000000000000000",
                    "decodedMethod": {
                        "callParams": [
                            {
                                "name": "hooks",
                                "type": "(address,bytes,uint256)[]",
                                "value": [
                                    [
                                        {
                                            "name": "target",
                                            "type": "address",
                                            "value": "0xa0b86991c6218b36c1d19d4a2e9eb0ce3606eb48"
                                        },
                                        {
                                            "name": "callData",
                                            "type": "bytes",
                                            "value": "0xd505accf000000000000000000000000e985e79d262615d5b3dde09ac27c78c2ca2675bc000000000000000000000000c92e8bdf79f0507f65a392b0ab4667716bfe0110ffffffffffffffffffffffffffffffffffffffffffffffffffffffffffffffff000000000000000000000000000000000000000000000000000000006f023e30000000000000000000000000000000000000000000000000000000000000001cccf8b2b0126e6b28505a1a84bc51da8a12eea2fb02dc5ce66ad53cb0c8c28e4871654df78712f5bb0a24311898d804f6089c3a84cb39fa82cdc029d1e965f1a4"
                                        },
                                        {
                                            "name": "gasLimit",
                                            "type": "uint256",
                                            "value": "91,497"
                                        }
                                    ]
                                ]
                            }
                        ],
                        "constructorArguments": "",
                        "name": "execute",
                        "returnParams": [],
                        "signature": "execute((address,bytes,uint256)[])"
                    },
                    "errorInfo": "",
                    "fromAddress": "0x9008d19f58aabd9ed0d60971565aa8510560ab41",
                    "gasUsed": 49647,
                    "id": 3,
                    "methodDecoded": true,
                    "operation": "CALL",
                    "output": "",
                    "revert": false,
                    "revertMessage": "",
                    "selector": "0x760f2a0b",
                    "status": true,
                    "value": "0"
                },
                "nodeType": 0
            },
            "30": {
                "event": {
                    "contract": "0x9008d19f58aabd9ed0d60971565aa8510560ab41",
                    "decodedLog": {
                        "name": "Interaction",
                        "params": [
                            {
                                "name": "target",
                                "type": "address",
                                "value": "0xc02aaa39b223fe8d0a0e5c4f27ead9083c756cc2"
                            },
                            {
                                "name": "value",
                                "type": "uint256",
                                "value": "0"
                            },
                            {
                                "name": "selector",
                                "type": "bytes4",
                                "value": "0x2e1a7d4d"
                            }
                        ],
                        "signature": "Interaction(address,uint256,bytes4)"
                    },
                    "id": 30,
                    "logData": "0x00000000000000000000000000000000000000000000000000000000000000002e1a7d4d00000000000000000000000000000000000000000000000000000000",
                    "logDecoded": true,
                    "operation": "EVENT",
                    "revert": false,
                    "status": true,
                    "topics": [
                        "0xed99827efb37016f2275f98c4bcf71c7551c75d59e9b450f79fa32e60be672c2",
                        "0x000000000000000000000000c02aaa39b223fe8d0a0e5c4f27ead9083c756cc2"
                    ]
                },
                "nodeType": 1
            },
            "31": {
                "invocation": {
                    "address": "0xe985e79d262615d5b3dde09ac27c78c2ca2675bc",
                    "callData": "0x",
                    "decodedMethod": null,
                    "errorInfo": "",
                    "fromAddress": "0x9008d19f58aabd9ed0d60971565aa8510560ab41",
                    "gasUsed": 0,
                    "id": 31,
                    "methodDecoded": false,
                    "operation": "CALL",
                    "output": "",
                    "revert": false,
                    "revertMessage": "",
                    "selector": "fallback",
                    "status": true,
                    "value": "0.449560945424630523"
                },
                "nodeType": 0
            },
            "32": {
                "invocation": {
                    "address": "0x2d9d7c64f6c00e16c28595ec4ebe4065ef3a250b",
                    "callData": "0x000000000000000000000000729297bfc4c2267afd119ddf1c6e3a22e6ae6e6b00000000000000000000000000000000000000000000000000b0f71168f46f3b",
                    "decodedMethod": {
                        "callParams": [
                            {
                                "name": "recipient",
                                "type": "address",
                                "value": "0x729297bfc4c2267afd119ddf1c6e3a22e6ae6e6b"
                            },
                            {
                                "decimalAvailable": true,
                                "name": "amount",
                                "type": "uint256",
                                "value": "49,811,250,048,429,883"
                            }
                        ],
                        "constructorArguments": "",
                        "name": "transfer",
                        "returnParams": [
                            {
                                "name": "",
                                "type": "bool",
                                "value": true
                            }
                        ],
                        "signature": "transfer(address,uint256)"
                    },
                    "errorInfo": "",
                    "fromAddress": "0x9008d19f58aabd9ed0d60971565aa8510560ab41",
                    "gasUsed": 29458,
                    "id": 32,
                    "methodDecoded": true,
                    "operation": "CALL",
                    "output": "0x0000000000000000000000000000000000000000000000000000000000000001",
                    "revert": false,
                    "revertMessage": "",
                    "selector": "0xa9059cbb",
                    "status": true,
                    "value": "0"
                },
                "nodeType": 0
            },
            "33": {
                "event": {
                    "contract": "0x2d9d7c64f6c00e16c28595ec4ebe4065ef3a250b",
                    "decodedLog": {
                        "name": "Transfer",
                        "params": [
                            {
                                "name": "from",
                                "type": "address",
                                "value": "0x9008d19f58aabd9ed0d60971565aa8510560ab41"
                            },
                            {
                                "name": "to",
                                "type": "address",
                                "value": "0x729297bfc4c2267afd119ddf1c6e3a22e6ae6e6b"
                            },
                            {
                                "decimalAvailable": true,
                                "name": "value",
                                "type": "uint256",
                                "value": "49,811,250,048,429,883"
                            }
                        ],
                        "signature": "Transfer(address,address,uint256)"
                    },
                    "id": 33,
                    "logData": "0x00000000000000000000000000000000000000000000000000b0f71168f46f3b",
                    "logDecoded": true,
                    "operation": "EVENT",
                    "revert": false,
                    "status": true,
                    "topics": [
                        "0xddf252ad1be2c89b69c2b068fc378daa952ba7f163c4a11628f55a4df523b3ef",
                        "0x0000000000000000000000009008d19f58aabd9ed0d60971565aa8510560ab41",
                        "0x000000000000000000000000729297bfc4c2267afd119ddf1c6e3a22e6ae6e6b"
                    ]
                },
                "nodeType": 1
            },
            "34": {
                "event": {
                    "contract": "0x9008d19f58aabd9ed0d60971565aa8510560ab41",
                    "decodedLog": {
                        "name": "Settlement",
                        "params": [
                            {
                                "name": "solver",
                                "type": "address",
                                "value": "0x4339889fd9dfca20a423fba011e9dff1c856caeb"
                            }
                        ],
                        "signature": "Settlement(address)"
                    },
                    "id": 34,
                    "logData": "0x",
                    "logDecoded": true,
                    "operation": "EVENT",
                    "revert": false,
                    "status": true,
                    "topics": [
                        "0x40338ce1a7c49204f0099533b1e9a7ee0a3d261f84974ab7af36105b8c4e9db4",
                        "0x0000000000000000000000004339889fd9dfca20a423fba011e9dff1c856caeb"
                    ]
                },
                "nodeType": 1
            },
            "4": {
                "invocation": {
                    "address": "0xa0b86991c6218b36c1d19d4a2e9eb0ce3606eb48",
                    "callData": "0x000000000000000000000000e985e79d262615d5b3dde09ac27c78c2ca2675bc000000000000000000000000c92e8bdf79f0507f65a392b0ab4667716bfe0110ffffffffffffffffffffffffffffffffffffffffffffffffffffffffffffffff000000000000000000000000000000000000000000000000000000006f023e30000000000000000000000000000000000000000000000000000000000000001cccf8b2b0126e6b28505a1a84bc51da8a12eea2fb02dc5ce66ad53cb0c8c28e4871654df78712f5bb0a24311898d804f6089c3a84cb39fa82cdc029d1e965f1a4",
                    "decodedMethod": {
                        "callParams": [
                            {
                                "name": "owner",
                                "type": "address",
                                "value": "0xe985e79d262615d5b3dde09ac27c78c2ca2675bc"
                            },
                            {
                                "name": "spender",
                                "type": "address",
                                "value": "0xc92e8bdf79f0507f65a392b0ab4667716bfe0110"
                            },
                            {
                                "name": "value",
                                "type": "uint256",
                                "value": "115,792,089,237,316,195,423,570,985,008,687,907,853,269,984,665,640,564,039,457,584,007,913,129,639,935"
                            },
                            {
                                "name": "deadline",
                                "type": "uint256",
                                "value": "1,862,417,968"
                            },
                            {
                                "name": "v",
                                "type": "uint8",
                                "value": "28"
                            },
                            {
                                "name": "r",
                                "type": "bytes32",
                                "value": "0xccf8b2b0126e6b28505a1a84bc51da8a12eea2fb02dc5ce66ad53cb0c8c28e48"
                            },
                            {
                                "name": "s",
                                "type": "bytes32",
                                "value": "0x71654df78712f5bb0a24311898d804f6089c3a84cb39fa82cdc029d1e965f1a4"
                            }
                        ],
                        "constructorArguments": "",
                        "name": "permit",
                        "returnParams": [],
                        "signature": "permit(address,address,uint256,uint256,uint8,bytes32,bytes32)"
                    },
                    "errorInfo": "",
                    "fromAddress": "0x01dcb88678aedd0c4cc9552b20f4718550250574",
                    "gasUsed": 48340,
                    "id": 4,
                    "methodDecoded": true,
                    "operation": "CALL",
                    "output": "",
                    "revert": false,
                    "revertMessage": "",
                    "selector": "0xd505accf",
                    "status": true,
                    "value": "0"
                },
                "nodeType": 0
            },
            "5": {
                "invocation": {
                    "address": "0xa2327a938febf5fec13bacfb16ae10ecbc4cbdcf",
                    "callData": "0x000000000000000000000000e985e79d262615d5b3dde09ac27c78c2ca2675bc000000000000000000000000c92e8bdf79f0507f65a392b0ab4667716bfe0110ffffffffffffffffffffffffffffffffffffffffffffffffffffffffffffffff000000000000000000000000000000000000000000000000000000006f023e30000000000000000000000000000000000000000000000000000000000000001cccf8b2b0126e6b28505a1a84bc51da8a12eea2fb02dc5ce66ad53cb0c8c28e4871654df78712f5bb0a24311898d804f6089c3a84cb39fa82cdc029d1e965f1a4",
                    "decodedMethod": {
                        "callParams": [
                            {
                                "name": "owner",
                                "type": "address",
                                "value": "0xe985e79d262615d5b3dde09ac27c78c2ca2675bc"
                            },
                            {
                                "name": "spender",
                                "type": "address",
                                "value": "0xc92e8bdf79f0507f65a392b0ab4667716bfe0110"
                            },
                            {
                                "name": "value",
                                "type": "uint256",
                                "value": "115,792,089,237,316,195,423,570,985,008,687,907,853,269,984,665,640,564,039,457,584,007,913,129,639,935"
                            },
                            {
                                "name": "deadline",
                                "type": "uint256",
                                "value": "1,862,417,968"
                            },
                            {
                                "name": "v",
                                "type": "uint8",
                                "value": "28"
                            },
                            {
                                "name": "r",
                                "type": "bytes32",
                                "value": "0xccf8b2b0126e6b28505a1a84bc51da8a12eea2fb02dc5ce66ad53cb0c8c28e48"
                            },
                            {
                                "name": "s",
                                "type": "bytes32",
                                "value": "0x71654df78712f5bb0a24311898d804f6089c3a84cb39fa82cdc029d1e965f1a4"
                            }
                        ],
                        "constructorArguments": "",
                        "name": "permit",
                        "returnParams": [],
                        "signature": "permit(address,address,uint256,uint256,uint8,bytes32,bytes32)"
                    },
                    "errorInfo": "",
                    "fromAddress": "0xa0b86991c6218b36c1d19d4a2e9eb0ce3606eb48",
                    "gasUsed": 47524,
                    "id": 5,
                    "methodDecoded": true,
                    "operation": "DELEGATECALL",
                    "output": "",
                    "revert": false,
                    "revertMessage": "",
                    "selector": "0xd505accf",
                    "status": true,
                    "value": "0"
                },
                "nodeType": 0
            },
            "6": {
                "invocation": {
                    "address": "0x0000000000000000000000000000000000000001",
                    "callData": "0x246ad50e9952a6d592b8b5efca8f35eadd0511ef64921cf5d82d5c02000000000000000000000000000000000000000000000000000000000000001cccf8b2b0126e6b28505a1a84bc51da8a12eea2fb02dc5ce66ad53cb0c8c28e4871654df78712f5bb0a24311898d804f6089c3a84cb39fa82cdc029d1e965f1a4",
                    "decodedMethod": {
                        "callParams": [
                            {
                                "name": "hash",
                                "type": "bytes32",
                                "value": "0x75a8c434246ad50e9952a6d592b8b5efca8f35eadd0511ef64921cf5d82d5c02"
                            },
                            {
                                "name": "v",
                                "type": "uint256",
                                "value": "28"
                            },
                            {
                                "name": "r",
                                "type": "bytes32",
                                "value": "0xccf8b2b0126e6b28505a1a84bc51da8a12eea2fb02dc5ce66ad53cb0c8c28e48"
                            },
                            {
                                "name": "s",
                                "type": "bytes32",
                                "value": "0x71654df78712f5bb0a24311898d804f6089c3a84cb39fa82cdc029d1e965f1a4"
                            }
                        ],
                        "constructorArguments": "",
                        "name": "ecrecover",
                        "returnParams": [
                            {
                                "name": "",
                                "type": "address",
                                "value": "0xe985e79d262615d5b3dde09ac27c78c2ca2675bc"
                            }
                        ],
                        "signature": "ecrecover(bytes32,uint256,bytes32,bytes32)"
                    },
                    "errorInfo": "",
                    "fromAddress": "0xa0b86991c6218b36c1d19d4a2e9eb0ce3606eb48",
                    "gasUsed": 3000,
                    "id": 6,
                    "methodDecoded": true,
                    "operation": "STATICCALL",
                    "output": "0x000000000000000000000000e985e79d262615d5b3dde09ac27c78c2ca2675bc",
                    "revert": false,
                    "revertMessage": "",
                    "selector": "0x75a8c434",
                    "status": true,
                    "value": "0"
                },
                "nodeType": 0
            },
            "7": {
                "event": {
                    "contract": "0xa0b86991c6218b36c1d19d4a2e9eb0ce3606eb48",
                    "decodedLog": {
                        "name": "Approval",
                        "params": [
                            {
                                "name": "owner",
                                "type": "address",
                                "value": "0xe985e79d262615d5b3dde09ac27c78c2ca2675bc"
                            },
                            {
                                "name": "spender",
                                "type": "address",
                                "value": "0xc92e8bdf79f0507f65a392b0ab4667716bfe0110"
                            },
                            {
                                "decimalAvailable": true,
                                "name": "value",
                                "type": "uint256",
                                "value": "115,792,089,237,316,195,423,570,985,008,687,907,853,269,984,665,640,564,039,457,584,007,913,129,639,935"
                            }
                        ],
                        "signature": "Approval(address,address,uint256)"
                    },
                    "id": 7,
                    "logData": "0xffffffffffffffffffffffffffffffffffffffffffffffffffffffffffffffff",
                    "logDecoded": true,
                    "operation": "EVENT",
                    "revert": false,
                    "status": true,
                    "topics": [
                        "0x8c5be1e5ebec7d5bd14f71427d1e84f3dd0314c0f7b2291e5b200ac8c7c3b925",
                        "0x000000000000000000000000e985e79d262615d5b3dde09ac27c78c2ca2675bc",
                        "0x000000000000000000000000c92e8bdf79f0507f65a392b0ab4667716bfe0110"
                    ]
                },
                "nodeType": 1
            },
            "8": {
                "event": {
                    "contract": "0x9008d19f58aabd9ed0d60971565aa8510560ab41",
                    "decodedLog": {
                        "name": "Interaction",
                        "params": [
                            {
                                "name": "target",
                                "type": "address",
                                "value": "0x01dcb88678aedd0c4cc9552b20f4718550250574"
                            },
                            {
                                "name": "value",
                                "type": "uint256",
                                "value": "0"
                            },
                            {
                                "name": "selector",
                                "type": "bytes4",
                                "value": "0x760f2a0b"
                            }
                        ],
                        "signature": "Interaction(address,uint256,bytes4)"
                    },
                    "id": 8,
                    "logData": "0x0000000000000000000000000000000000000000000000000000000000000000760f2a0b00000000000000000000000000000000000000000000000000000000",
                    "logDecoded": true,
                    "operation": "EVENT",
                    "revert": false,
                    "status": true,
                    "topics": [
                        "0xed99827efb37016f2275f98c4bcf71c7551c75d59e9b450f79fa32e60be672c2",
                        "0x00000000000000000000000001dcb88678aedd0c4cc9552b20f4718550250574"
                    ]
                },
                "nodeType": 1
            },
            "9": {
                "invocation": {
                    "address": "0x0000000000000000000000000000000000000001",
                    "callData": "0xc08093c6feda26b8bff4f50ea3b36eab931014bbb79383e9a7de232b000000000000000000000000000000000000000000000000000000000000001c5daf54bbb93931a8d334b81b3b2aad5e77b91b57511fa65c7708d4349dbed23d3bf8f1ad7ddbcf92dfd43e0cf70925d77eda2766b2b79029f6273d59fc0c3a50",
                    "decodedMethod": {
                        "callParams": [
                            {
                                "name": "hash",
                                "type": "bytes32",
                                "value": "0x0fbd8d51c08093c6feda26b8bff4f50ea3b36eab931014bbb79383e9a7de232b"
                            },
                            {
                                "name": "v",
                                "type": "uint256",
                                "value": "28"
                            },
                            {
                                "name": "r",
                                "type": "bytes32",
                                "value": "0x5daf54bbb93931a8d334b81b3b2aad5e77b91b57511fa65c7708d4349dbed23d"
                            },
                            {
                                "name": "s",
                                "type": "bytes32",
                                "value": "0x3bf8f1ad7ddbcf92dfd43e0cf70925d77eda2766b2b79029f6273d59fc0c3a50"
                            }
                        ],
                        "constructorArguments": "",
                        "name": "ecrecover",
                        "returnParams": [
                            {
                                "name": "",
                                "type": "address",
                                "value": "0xe985e79d262615d5b3dde09ac27c78c2ca2675bc"
                            }
                        ],
                        "signature": "ecrecover(bytes32,uint256,bytes32,bytes32)"
                    },
                    "errorInfo": "",
                    "fromAddress": "0x9008d19f58aabd9ed0d60971565aa8510560ab41",
                    "gasUsed": 3000,
                    "id": 9,
                    "methodDecoded": true,
                    "operation": "STATICCALL",
                    "output": "0x000000000000000000000000e985e79d262615d5b3dde09ac27c78c2ca2675bc",
                    "revert": false,
                    "revertMessage": "",
                    "selector": "0x0fbd8d51",
                    "status": true,
                    "value": "0"
                },
                "nodeType": 0
            }
        },
        "gasFlame": [
            {
                "children": [
                    {
                        "children": [
                            {
                                "children": [],
                                "depth": 0,
                                "name": "Initial Gas",
                                "value": 130512
                            },
                            {
                                "children": [
                                    {
                                        "children": [
                                            {
                                                "children": [],
                                                "depth": 2,
                                                "name": "isSolver",
                                                "value": 431
                                            }
                                        ],
                                        "depth": 1,
                                        "name": "isSolver",
                                        "value": 865
                                    },
                                    {
                                        "children": [
                                            {
                                                "children": [
                                                    {
                                                        "children": [
                                                            {
                                                                "children": [],
                                                                "depth": 4,
                                                                "name": "ecrecover",
                                                                "value": 3000
                                                            }
                                                        ],
                                                        "depth": 3,
                                                        "name": "permit",
                                                        "value": 47524
                                                    }
                                                ],
                                                "depth": 2,
                                                "name": "permit",
                                                "value": 48340
                                            }
                                        ],
                                        "depth": 1,
                                        "name": "execute",
                                        "value": 49647
                                    },
                                    {
                                        "children": [],
                                        "depth": 1,
                                        "name": "ecrecover",
                                        "value": 3000
                                    },
                                    {
                                        "children": [],
                                        "depth": 1,
                                        "name": "ecrecover",
                                        "value": 3000
                                    },
                                    {
                                        "children": [
                                            {
                                                "children": [
                                                    {
                                                        "children": [],
                                                        "depth": 3,
                                                        "name": "transferFrom",
                                                        "value": 10797
                                                    }
                                                ],
                                                "depth": 2,
                                                "name": "transferFrom",
                                                "value": 11592
                                            },
                                            {
                                                "children": [],
                                                "depth": 2,
                                                "name": "transferFrom",
                                                "value": 9025
                                            }
                                        ],
                                        "depth": 1,
                                        "name": "transferFromAccounts",
                                        "value": 23827
                                    },
                                    {
                                        "children": [
                                            {
                                                "children": [],
                                                "depth": 2,
                                                "name": "transferFrom",
                                                "value": 6225
                                            }
                                        ],
                                        "depth": 1,
                                        "name": "transferFrom",
                                        "value": 6879
                                    },
                                    {
                                        "children": [
                                            {
                                                "children": [],
                                                "depth": 2,
                                                "name": "transfer",
                                                "value": 6828
                                            }
                                        ],
                                        "depth": 1,
                                        "name": "transfer",
                                        "value": 7617
                                    },
                                    {
                                        "children": [
                                            {
                                                "children": [],
                                                "depth": 2,
                                                "name": "fallback",
                                                "value": 55
                                            }
                                        ],
                                        "depth": 1,
                                        "name": "withdraw",
                                        "value": 9195
                                    },
                                    {
                                        "children": [],
                                        "depth": 1,
                                        "name": "fallback",
                                        "value": 0
                                    },
                                    {
                                        "children": [],
                                        "depth": 1,
                                        "name": "transfer",
                                        "value": 29458
                                    }
                                ],
                                "depth": 0,
                                "name": "Executed Gas",
                                "value": 226798
                            }
                        ],
                        "depth": -1,
                        "name": "Actual Gas Used",
                        "value": 344910
                    },
                    {
                        "children": [],
                        "depth": -1,
                        "name": "Refunded Gas",
                        "value": 12400
                    }
                ],
                "depth": -2,
                "name": "Total Gas",
                "value": 357310
            }
        ],
        "isConfirmed": true,
        "mainTrace": [
            {
                "children": [
                    {
                        "children": [
                            {
                                "children": [
                                    {
                                        "children": [],
                                        "depth": 2,
                                        "id": 2,
                                        "order": 2
                                    }
                                ],
                                "depth": 1,
                                "id": 1,
                                "order": 1
                            },
                            {
                                "children": [
                                    {
                                        "children": [
                                            {
                                                "children": [
                                                    {
                                                        "children": [],
                                                        "depth": 4,
                                                        "id": 6,
                                                        "order": 6
                                                    },
                                                    {
                                                        "children": [],
                                                        "depth": 4,
                                                        "id": 7,
                                                        "order": 7
                                                    }
                                                ],
                                                "depth": 3,
                                                "id": 5,
                                                "order": 5
                                            }
                                        ],
                                        "depth": 2,
                                        "id": 4,
                                        "order": 4
                                    }
                                ],
                                "depth": 1,
                                "id": 3,
                                "order": 3
                            },
                            {
                                "children": [],
                                "depth": 1,
                                "id": 8,
                                "order": 8
                            },
                            {
                                "children": [],
                                "depth": 1,
                                "id": 9,
                                "order": 9
                            },
                            {
                                "children": [],
                                "depth": 1,
                                "id": 10,
                                "order": 10
                            },
                            {
                                "children": [],
                                "depth": 1,
                                "id": 11,
                                "order": 11
                            },
                            {
                                "children": [],
                                "depth": 1,
                                "id": 12,
                                "order": 12
                            },
                            {
                                "children": [
                                    {
                                        "children": [
                                            {
                                                "children": [
                                                    {
                                                        "children": [],
                                                        "depth": 4,
                                                        "id": 16,
                                                        "order": 16
                                                    }
                                                ],
                                                "depth": 3,
                                                "id": 15,
                                                "order": 15
                                            }
                                        ],
                                        "depth": 2,
                                        "id": 14,
                                        "order": 14
                                    },
                                    {
                                        "children": [
                                            {
                                                "children": [],
                                                "depth": 3,
                                                "id": 18,
                                                "order": 18
                                            }
                                        ],
                                        "depth": 2,
                                        "id": 17,
                                        "order": 17
                                    }
                                ],
                                "depth": 1,
                                "id": 13,
                                "order": 13
                            },
                            {
                                "children": [
                                    {
                                        "children": [
                                            {
                                                "children": [],
                                                "depth": 3,
                                                "id": 21,
                                                "order": 21
                                            }
                                        ],
                                        "depth": 2,
                                        "id": 20,
                                        "order": 20
                                    }
                                ],
                                "depth": 1,
                                "id": 19,
                                "order": 19
                            },
                            {
                                "children": [],
                                "depth": 1,
                                "id": 22,
                                "order": 22
                            },
                            {
                                "children": [
                                    {
                                        "children": [
                                            {
                                                "children": [],
                                                "depth": 3,
                                                "id": 25,
                                                "order": 25
                                            }
                                        ],
                                        "depth": 2,
                                        "id": 24,
                                        "order": 24
                                    }
                                ],
                                "depth": 1,
                                "id": 23,
                                "order": 23
                            },
                            {
                                "children": [],
                                "depth": 1,
                                "id": 26,
                                "order": 26
                            },
                            {
                                "children": [
                                    {
                                        "children": [],
                                        "depth": 2,
                                        "id": 28,
                                        "order": 28
                                    },
                                    {
                                        "children": [],
                                        "depth": 2,
                                        "id": 29,
                                        "order": 29
                                    }
                                ],
                                "depth": 1,
                                "id": 27,
                                "order": 27
                            },
                            {
                                "children": [],
                                "depth": 1,
                                "id": 30,
                                "order": 30
                            },
                            {
                                "children": [],
                                "depth": 1,
                                "id": 31,
                                "order": 31
                            },
                            {
                                "children": [
                                    {
                                        "children": [],
                                        "depth": 2,
                                        "id": 33,
                                        "order": 33
                                    }
                                ],
                                "depth": 1,
                                "id": 32,
                                "order": 32
                            },
                            {
                                "children": [],
                                "depth": 1,
                                "id": 34,
                                "order": 34
                            }
                        ],
                        "depth": 0,
                        "id": 0,
                        "order": 0
                    }
                ],
                "depth": -1,
                "id": -1,
                "order": -1
            }
        ],
        "mainTraceNodeCount": 35,
        "parentIdMap": {
            "0": -1,
            "1": 0,
            "10": 0,
            "11": 0,
            "12": 0,
            "13": 0,
            "14": 13,
            "15": 14,
            "16": 15,
            "17": 13,
            "18": 17,
            "19": 0,
            "2": 1,
            "20": 19,
            "21": 20,
            "22": 0,
            "23": 0,
            "24": 23,
            "25": 24,
            "26": 0,
            "27": 0,
            "28": 27,
            "29": 27,
            "3": 0,
            "30": 0,
            "31": 0,
            "32": 0,
            "33": 32,
            "34": 0,
            "4": 3,
            "5": 4,
            "6": 5,
            "7": 5,
            "8": 0,
            "9": 0
        },
        "tidyTrace": [
            {
                "children": [
                    {
                        "children": [
                            {
                                "children": [
                                    {
                                        "children": [
                                            {
                                                "children": [
                                                    {
                                                        "children": [],
                                                        "depth": 4,
                                                        "id": 7,
                                                        "order": 7
                                                    }
                                                ],
                                                "depth": 3,
                                                "id": 5,
                                                "order": 5
                                            }
                                        ],
                                        "depth": 2,
                                        "id": 4,
                                        "order": 4
                                    }
                                ],
                                "depth": 1,
                                "id": 3,
                                "order": 3
                            },
                            {
                                "children": [],
                                "depth": 1,
                                "id": 8,
                                "order": 8
                            },
                            {
                                "children": [],
                                "depth": 1,
                                "id": 10,
                                "order": 10
                            },
                            {
                                "children": [],
                                "depth": 1,
                                "id": 12,
                                "order": 12
                            },
                            {
                                "children": [
                                    {
                                        "children": [
                                            {
                                                "children": [
                                                    {
                                                        "children": [],
                                                        "depth": 4,
                                                        "id": 16,
                                                        "order": 16
                                                    }
                                                ],
                                                "depth": 3,
                                                "id": 15,
                                                "order": 15
                                            }
                                        ],
                                        "depth": 2,
                                        "id": 14,
                                        "order": 14
                                    },
                                    {
                                        "children": [
                                            {
                                                "children": [],
                                                "depth": 3,
                                                "id": 18,
                                                "order": 18
                                            }
                                        ],
                                        "depth": 2,
                                        "id": 17,
                                        "order": 17
                                    }
                                ],
                                "depth": 1,
                                "id": 13,
                                "order": 13
                            },
                            {
                                "children": [
                                    {
                                        "children": [
                                            {
                                                "children": [],
                                                "depth": 3,
                                                "id": 21,
                                                "order": 21
                                            }
                                        ],
                                        "depth": 2,
                                        "id": 20,
                                        "order": 20
                                    }
                                ],
                                "depth": 1,
                                "id": 19,
                                "order": 19
                            },
                            {
                                "children": [],
                                "depth": 1,
                                "id": 22,
                                "order": 22
                            },
                            {
                                "children": [
                                    {
                                        "children": [
                                            {
                                                "children": [],
                                                "depth": 3,
                                                "id": 25,
                                                "order": 25
                                            }
                                        ],
                                        "depth": 2,
                                        "id": 24,
                                        "order": 24
                                    }
                                ],
                                "depth": 1,
                                "id": 23,
                                "order": 23
                            },
                            {
                                "children": [],
                                "depth": 1,
                                "id": 26,
                                "order": 26
                            },
                            {
                                "children": [
                                    {
                                        "children": [],
                                        "depth": 2,
                                        "id": 28,
                                        "order": 28
                                    },
                                    {
                                        "children": [],
                                        "depth": 2,
                                        "id": 29,
                                        "order": 29
                                    }
                                ],
                                "depth": 1,
                                "id": 27,
                                "order": 27
                            },
                            {
                                "children": [],
                                "depth": 1,
                                "id": 30,
                                "order": 30
                            },
                            {
                                "children": [],
                                "depth": 1,
                                "id": 31,
                                "order": 31
                            },
                            {
                                "children": [
                                    {
                                        "children": [],
                                        "depth": 2,
                                        "id": 33,
                                        "order": 33
                                    }
                                ],
                                "depth": 1,
                                "id": 32,
                                "order": 32
                            },
                            {
                                "children": [],
                                "depth": 1,
                                "id": 34,
                                "order": 34
                            }
                        ],
                        "depth": 0,
                        "id": 0,
                        "order": 0
                    }
                ],
                "depth": -1,
                "id": -1,
                "order": -1
            }
        ],
        "tidyTraceNodeCount": 30
    },
    "state_change": {
        "stateChanges": [
            {
                "address": "0x2d9d7c64f6c00e16c28595ec4ebe4065ef3a250b",
                "erc": "ERC-20",
                "slots": [
                    {
                        "current": "0x0000000000000000000000000000000000000000000000000036b31587be3e62",
                        "key": "0x64ac251e964da0f5b6d07d47428fa7c41487ff293e1deb77eb407c15028dab0c",
                        "prev": "0x00000000000000000000000000000000000000000000000000e7aa26f0b2ad9d"
                    },
                    {
                        "current": "0x00000000000000000000000000000000000000000000000000b0f71168f46f3b",
                        "key": "0x84d0aed250f2ef26aafa82a9c47eda00e939be8f4d9943a761383f6cdeb4bb7b",
                        "prev": "0x0000000000000000000000000000000000000000000000000000000000000000"
                    }
                ],
                "storageVariables": [
                    {
                        "name": "_balances",
                        "type": "mapping(address => uint256)",
                        "value": {
                            "pairs": [
                                {
                                    "key": "0x729297bfc4c2267afd119ddf1c6e3a22e6ae6e6b",
                                    "value": {
                                        "current": "49811250048429883",
                                        "prev": "0",
                                        "typeTag": 1
                                    }
                                },
                                {
                                    "key": "0x9008d19f58aabd9ed0d60971565aa8510560ab41",
                                    "value": {
                                        "current": "15396553795452514",
                                        "prev": "65207803843882397",
                                        "typeTag": 1
                                    }
                                }
                            ],
                            "typeTag": 4
                        }
                    }
                ]
            },
            {
                "address": "0x9008d19f58aabd9ed0d60971565aa8510560ab41",
                "erc": "",
                "slots": [
                    {
                        "current": "0x000000000000000000000000000000000000000000000000000000003bf3ed8a",
                        "key": "0x69ec2bb3af696052232d5c0de8a37f3dd56136a05f3df949afd425723b6b6f4f",
                        "prev": "0x0000000000000000000000000000000000000000000000000000000000000000"
                    },
                    {
                        "current": "0x000000000000000000000000000000000000000000000000014fa18af8dc19dc",
                        "key": "0x9d4da82221809e519f705933f8094c8caf37bfc6f9fdcf7d393d6248079b514b",
                        "prev": "0x0000000000000000000000000000000000000000000000000000000000000000"
                    }
                ],
                "storageVariables": [
                    {
                        "name": "filledAmount",
                        "type": "mapping(bytes => uint256)",
                        "value": {
                            "pairs": [
                                {
                                    "key": "0x0fbd8d51c08093c6feda26b8bff4f50ea3b36eab931014bbb79383e9a7de232be985e79d262615d5b3dde09ac27c78c2ca2675bc659a9dd2",
                                    "value": {
                                        "current": "1005841802",
                                        "prev": "0",
                                        "typeTag": 1
                                    }
                                },
                                {
                                    "key": "0x18a0d8ce85baca63f64545f3226353671938e6c70c2eb6ed60b0c86ebd356bee729297bfc4c2267afd119ddf1c6e3a22e6ae6e6b659a9e08",
                                    "value": {
                                        "current": "94471735450802652",
                                        "prev": "0",
                                        "typeTag": 1
                                    }
                                }
                            ],
                            "typeTag": 4
                        }
                    }
                ]
            },
            {
                "address": "0xa0b86991c6218b36c1d19d4a2e9eb0ce3606eb48",
                "erc": "ERC-20",
                "slots": [
                    {
                        "current": "0x0000000000000000000000000000000000000000000000000000000ce42e7d0e",
                        "key": "0x0e40d870850fc450d43ddd744640249aa49a9f481de376c548fbeda1382f691c",
                        "prev": "0x0000000000000000000000000000000000000000000000000000000ca83a8f84"
                    },
                    {
                        "current": "0x0000000000000000000000000000000000000000000000000000000000000001",
                        "key": "0x04808c998793bad3931632d6a0fafe4e73015da7aa44d59cc15ea3223c32b317",
                        "prev": "0x0000000000000000000000000000000000000000000000000000000000000000"
                    },
                    {
                        "current": "0xffffffffffffffffffffffffffffffffffffffffffffffffffffffffc2e01c91",
                        "key": "0x1fe6cd333560b25766b45eac8d20f17c37a640274e9fb9320528c62399da28b3",
                        "prev": "0x0000000000000000000000000000000000000000000000000000000000000000"
                    },
                    {
                        "current": "0x0000000000000000000000000000000000000000000000000000000000000000",
                        "key": "0x1f30076035112d7033202cea4d34c3e3bd90bb36081229cd1cbeb00a23b31a74",
                        "prev": "0x000000000000000000000000000000000000000000000000000000003d1fe36e"
                    },
                    {
                        "current": "0x00000000000000000000000000000000000000000000000000000000735d2de7",
                        "key": "0xcc236083e86ee3df0f3160002f381f1404bd44c4dec1322196f34d52548202f5",
                        "prev": "0x0000000000000000000000000000000000000000000000000000000072313803"
                    }
                ],
                "storageVariables": [
                    {
                        "name": "balances",
                        "type": "mapping(address => uint256)",
                        "value": {
                            "pairs": [
                                {
                                    "key": "0x00c95ee3a014c2b90fffb992d1ea66093cc13320",
                                    "value": {
                                        "current": "55367859470",
                                        "prev": "54362017668",
                                        "typeTag": 1
                                    }
                                },
                                {
                                    "key": "0x9008d19f58aabd9ed0d60971565aa8510560ab41",
                                    "value": {
                                        "current": "1935486439",
                                        "prev": "1915828227",
                                        "typeTag": 1
                                    }
                                },
                                {
                                    "key": "0xe985e79d262615d5b3dde09ac27c78c2ca2675bc",
                                    "value": {
                                        "current": "0",
                                        "prev": "1025500014",
                                        "typeTag": 1
                                    }
                                }
                            ],
                            "typeTag": 4
                        }
                    },
                    {
                        "name": "_permitNonces",
                        "type": "mapping(address => uint256)",
                        "value": {
                            "pairs": [
                                {
                                    "key": "0xe985e79d262615d5b3dde09ac27c78c2ca2675bc",
                                    "value": {
                                        "current": "1",
                                        "prev": "0",
                                        "typeTag": 1
                                    }
                                }
                            ],
                            "typeTag": 4
                        }
                    },
                    {
                        "name": "allowed",
                        "type": "mapping(address => mapping(address => uint256))",
                        "value": {
                            "pairs": [
                                {
                                    "key": "0xe985e79d262615d5b3dde09ac27c78c2ca2675bc",
                                    "value": {
                                        "pairs": [
                                            {
                                                "key": "0xc92e8bdf79f0507f65a392b0ab4667716bfe0110",
                                                "value": {
                                                    "current": "115792089237316195423570985008687907853269984665640564039457584007912104139921",
                                                    "prev": "0",
                                                    "typeTag": 1
                                                }
                                            }
                                        ],
                                        "typeTag": 4
                                    }
                                }
                            ],
                            "typeTag": 4
                        }
                    }
                ]
            },
            {
                "address": "0xc02aaa39b223fe8d0a0e5c4f27ead9083c756cc2",
                "erc": "ERC-20",
                "slots": [
                    {
                        "current": "0x0000000000000000000000000000000000000000000000000000000000000000",
                        "key": "0xc4e6865f2301df5c9839fbceb353be05e77b0badf384db100dd705d436ac0d0b",
                        "prev": "0x000000000000000000000000000000000000000000000000016345785d8a0000"
                    },
                    {
                        "current": "0x000000000000000000000000000000000000000000000000025a58d77b3c9870",
                        "key": "0x9d98752c354deebddd53535455198eacf8cfb934237d3523207f70386be5e3dc",
                        "prev": "0x00000000000000000000000000000000000000000000000000f7135f1db2982b"
                    },
                    {
                        "current": "0x0000000000000000000000000000000000000000000000005607097e69ed4afe",
                        "key": "0x8d176378b1863f3afb7612df0add2b027a2045b58f59f9aa826f3d65ba948e3d",
                        "prev": "0x0000000000000000000000000000000000000000000000005c4432cab2d9ce3e"
                    }
                ],
                "storageVariables": [
                    {
                        "name": "balanceOf",
                        "type": "mapping(address => uint256)",
                        "value": {
                            "pairs": [
                                {
                                    "key": "0x00c95ee3a014c2b90fffb992d1ea66093cc13320",
                                    "value": {
                                        "current": "6198933850646465278",
                                        "prev": "6648494796071095870",
                                        "typeTag": 1
                                    }
                                },
                                {
                                    "key": "0x729297bfc4c2267afd119ddf1c6e3a22e6ae6e6b",
                                    "value": {
                                        "current": "0",
                                        "prev": "100000000000000000",
                                        "typeTag": 1
                                    }
                                },
                                {
                                    "key": "0x9008d19f58aabd9ed0d60971565aa8510560ab41",
                                    "value": {
                                        "current": "169545618488596592",
                                        "prev": "69545618488596523",
                                        "typeTag": 1
                                    }
                                }
                            ],
                            "typeTag": 4
                        }
                    }
                ]
            }
        ]
    }
}