{
    "balance_change": {
        "balanceChanges": [
            {
                "account": "0x068d5144c026e2abf20268902bd03969ba52a250",
                "assets": [
                    {
                        "address": "0x1f9840a85d5af5bf1d1762f925bdaddc4201f984",
                        "amount": "36.869766115652603556",
                        "iconUrl": "https://assets.blocksec.com/icon/a11b26a37f84e146d773ae4914e43619075ce4c922ad0a1fa46464f3049bf839.png",
                        "isERC1155": false,
                        "isERC721": false,
                        "sign": false,
                        "value": "796.5530889"
                    },
                    {
                        "address": "0xeeeeeeeeeeeeeeeeeeeeeeeeeeeeeeeeeeeeeeee",
                        "amount": "0.066982979606069126",
                        "iconUrl": "https://assets.blocksec.com/image/1663669189317-3.png",
                        "isERC1155": false,
                        "isERC721": false,
                        "sign": false,
                        "value": ""
                    }
                ]
            },
            {
                "account": "0x1d42064fc4beb5f8aaf85f4617ae8b3b5b8bd801",
                "assets": [
                    {
                        "address": "0x1f9840a85d5af5bf1d1762f925bdaddc4201f984",
                        "amount": "36.869766115652603556",
                        "iconUrl": "https://assets.blocksec.com/icon/a11b26a37f84e146d773ae4914e43619075ce4c922ad0a1fa46464f3049bf839.png",
                        "isERC1155": false,
                        "isERC721": false,
                        "sign": true,
                        "value": "796.5530889"
                    },
                    {
                        "address": "0xc02aaa39b223fe8d0a0e5c4f27ead9083c756cc2",
                        "amount": "0.066982979606069126",
                        "iconUrl": "https://assets.blocksec.com/icon/f1cb2d02c471d545bbc7722daf3277fd852d98e63d118771af7047bd8256c516.png",
                        "isERC1155": false,
                        "isERC721": false,
                        "sign": true,
                        "value": "171.4136243"
                    }
                ]
            },
            {
                "account": "0xc02aaa39b223fe8d0a0e5c4f27ead9083c756cc2",
                "assets": [
                    {
                        "address": "0xeeeeeeeeeeeeeeeeeeeeeeeeeeeeeeeeeeeeeeee",
                        "amount": "0.066982979606069126",
                        "iconUrl": "https://assets.blocksec.com/image/1663669189317-3.png",
                        "isERC1155": false,
                        "isERC721": false,
                        "sign": true,
                        "value": ""
                    },
                    {
                        "address": "0xc02aaa39b223fe8d0a0e5c4f27ead9083c756cc2",
                        "amount": "0.066982979606069126",
                        "iconUrl": "https://assets.blocksec.com/icon/f1cb2d02c471d545bbc7722daf3277fd852d98e63d118771af7047bd8256c516.png",
                        "isERC1155": false,
                        "isERC721": false,
                        "sign": false,
                        "value": "171.4136243"
                    }
                ]
            }
        ]
    },
    "profile": {
        "basic_info": {
            "baseFee": "",
            "blockNumber": 12943389,
            "callData": "0xac9650d8000000000000000000000000000000000000000000000000000000000000002000000000000000000000000000000000000000000000000000000000000000020000000000000000000000000000000000000000000000000000000000000040000000000000000000000000000000000000000000000000000000000000014000000000000000000000000000000000000000000000000000000000000000c4219f5d170000000000000000000000000000000000000000000000000000000000011b8f000000000000000000000000000000000000000000000001ffabb8f013350ea400000000000000000000000000000000000000000000000000edf8aa416abf86000000000000000000000000000000000000000000000001e5569310015a6c9500000000000000000000000000000000000000000000000000b45807c7b987010000000000000000000000000000000000000000000000000000000061075e5600000000000000000000000000000000000000000000000000000000000000000000000000000000000000000000000000000000000000000000000412210e8a00000000000000000000000000000000000000000000000000000000",
            "debugEnable": true,
            "errorInfo": "",
            "eventCount": 5,
            "feeRecipient": "0xea674fdde714fd979de3edf0f56aa9716b898ec8",
            "formatValue": "0.066982979606069126",
            "gasLimit": 286792,
            "gasPrice": "26",
            "gasUsed": 217906,
            "intTxnCount": 13,
            "internalRevert": false,
            "internalRevertMessage": "",
            "isContractCreation": false,
            "isFlashloan": false,
            "maxFee": "",
            "nonce": 29,
            "overwritedBlockNumber": -1,
            "priorityFee": "",
            "receiver": "0xc36442b4a4522e871399cd717abdd847ab11fe88",
            "revertMessage": "",
            "sender": "0x068d5144c026e2abf20268902bd03969ba52a250",
            "simulationEnable": true,
            "sourceTxnHash": "0x5b78aa2552ca83e775c419cec86cb5d7a86a8ff86d96a7fa768944dcb4fe5485",
            "status": true,
            "timestamp": "2021-08-02T02:42:46Z",
            "transactionFee": "0.005665556",
            "txnHash": "0x5b78aa2552ca83e775c419cec86cb5d7a86a8ff86d96a7fa768944dcb4fe5485",
            "txnIndex": 145,
            "type": 0,
            "value": "66982979606069126"
        },
        "fund_flow": [
            {
                "amount": "0.066982979606069126",
                "from": "0x068d5144c026e2abf20268902bd03969ba52a250",
                "id": 1,
                "isERC1155": false,
                "isERC721": false,
                "isReverted": false,
                "order": 1,
                "to": "0xc36442b4a4522e871399cd717abdd847ab11fe88",
                "token": "0xeeeeeeeeeeeeeeeeeeeeeeeeeeeeeeeeeeeeeeee"
            },
            {
                "amount": "36.869766115652603556",
                "from": "0x068d5144c026e2abf20268902bd03969ba52a250",
                "id": 2,
                "isERC1155": false,
                "isERC721": false,
                "isReverted": false,
                "order": 2,
                "to": "0x1d42064fc4beb5f8aaf85f4617ae8b3b5b8bd801",
                "token": "0x1f9840a85d5af5bf1d1762f925bdaddc4201f984"
            },
            {
                "amount": "0.066982979606069126",
                "from": "0xc36442b4a4522e871399cd717abdd847ab11fe88",
                "id": 3,
                "isERC1155": false,
                "isERC721": false,
                "isReverted": false,
                "order": 3,
                "to": "0xc02aaa39b223fe8d0a0e5c4f27ead9083c756cc2",
                "token": "0xeeeeeeeeeeeeeeeeeeeeeeeeeeeeeeeeeeeeeeee"
            },
            {
                "amount": "0.066982979606069126",
                "from": "0xc02aaa39b223fe8d0a0e5c4f27ead9083c756cc2",
                "id": 4,
                "isERC1155": false,
                "isERC721": false,
                "isReverted": false,
                "order": 4,
                "to": "0xc36442b4a4522e871399cd717abdd847ab11fe88",
                "token": "0xc02aaa39b223fe8d0a0e5c4f27ead9083c756cc2"
            },
            {
                "amount": "0.066982979606069126",
                "from": "0xc36442b4a4522e871399cd717abdd847ab11fe88",
                "id": 5,
                "isERC1155": false,
                "isERC721": false,
                "isReverted": false,
                "order": 5,
                "to": "0x1d42064fc4beb5f8aaf85f4617ae8b3b5b8bd801",
                "token": "0xc02aaa39b223fe8d0a0e5c4f27ead9083c756cc2"
            }
        ],
        "token_infos": [
            {
                "address": "0x1f9840a85d5af5bf1d1762f925bdaddc4201f984",
                "decimals": 18
            },
            {
                "address": "0xc02aaa39b223fe8d0a0e5c4f27ead9083c756cc2",
                "decimals": 18
            },
            {
                "address": "0xeeeeeeeeeeeeeeeeeeeeeeeeeeeeeeeeeeeeeeee",
                "decimals": 18
            }
        ]
    },
    "address_label": {
        "labels": [
            {
                "address": "0xc02aaa39b223fe8d0a0e5c4f27ead9083c756cc2",
                "label": "Wrapped Ether (WETH)"
            },
            {
                "address": "0x1f9840a85d5af5bf1d1762f925bdaddc4201f984",
                "label": "Uniswap Protocol: UNI token"
            },
            {
                "address": "0xc36442b4a4522e871399cd717abdd847ab11fe88",
                "label": "Uniswap V3: Positions NFT"
            },
            {
                "address": "0x0000000000000000000000000000000000000002",
                "label": "Precompiled"
            },
            {
                "address": "0x0000000000000000000000000000000000000003",
                "label": "Precompiled"
            },
            {
                "address": "0xeeeeeeeeeeeeeeeeeeeeeeeeeeeeeeeeeeeeeeee",
                "label": "Ether"
            },
            {
                "address": "0x1d42064fc4beb5f8aaf85f4617ae8b3b5b8bd801",
                "label": "Uniswap V3: UNI"
            },
            {
                "address": "0x0000000000000000000000000000000000000001",
                "label": "Precompiled"
            },
            {
                "address": "0x0000000000000000000000000000000000000004",
                "label": "Precompiled"
            }
        ]
    },
    "trace": {
        "accountLabels": null,
        "dataMap": {
            "-1": {
                "invocation": {
                    "address": "0x068d5144c026e2abf20268902bd03969ba52a250",
                    "callData": "",
                    "decodedMethod": null,
                    "errorInfo": "",
                    "fromAddress": "",
                    "gasUsed": 0,
                    "id": -1,
                    "methodDecoded": false,
                    "operation": "",
                    "output": "",
                    "revert": false,
                    "revertMessage": "",
                    "selector": "",
                    "status": false,
                    "value": ""
                },
                "nodeType": 0
            },
            "0": {
                "invocation": {
                    "address": "0xc36442b4a4522e871399cd717abdd847ab11fe88",
                    "callData": "0x000000000000000000000000000000000000000000000000000000000000002000000000000000000000000000000000000000000000000000000000000000020000000000000000000000000000000000000000000000000000000000000040000000000000000000000000000000000000000000000000000000000000014000000000000000000000000000000000000000000000000000000000000000c4219f5d170000000000000000000000000000000000000000000000000000000000011b8f000000000000000000000000000000000000000000000001ffabb8f013350ea400000000000000000000000000000000000000000000000000edf8aa416abf86000000000000000000000000000000000000000000000001e5569310015a6c9500000000000000000000000000000000000000000000000000b45807c7b987010000000000000000000000000000000000000000000000000000000061075e5600000000000000000000000000000000000000000000000000000000000000000000000000000000000000000000000000000000000000000000000412210e8a00000000000000000000000000000000000000000000000000000000",
                    "decodedMethod": {
                        "callParams": [
                            {
                                "name": "data",
                                "type": "bytes[]",
                                "value": [
                                    "0x219f5d170000000000000000000000000000000000000000000000000000000000011b8f000000000000000000000000000000000000000000000001ffabb8f013350ea400000000000000000000000000000000000000000000000000edf8aa416abf86000000000000000000000000000000000000000000000001e5569310015a6c9500000000000000000000000000000000000000000000000000b45807c7b987010000000000000000000000000000000000000000000000000000000061075e56",
                                    "0x12210e8a"
                                ]
                            }
                        ],
                        "constructorArguments": "",
                        "name": "multicall",
                        "returnParams": [
                            {
                                "name": "results",
                                "type": "bytes[]",
                                "value": [
                                    "0x000000000000000000000000000000000000000000000003cf15a374bb1509b5000000000000000000000000000000000000000000000001ffabb8f013350ea400000000000000000000000000000000000000000000000000edf8aa416abf86",
                                    "0x"
                                ]
                            }
                        ],
                        "signature": "multicall(bytes[])"
                    },
                    "errorInfo": "",
                    "fromAddress": "0x068d5144c026e2abf20268902bd03969ba52a250",
                    "gasUsed": 217906,
                    "id": 0,
                    "methodDecoded": true,
                    "operation": "CALL",
                    "output": "0x00000000000000000000000000000000000000000000000000000000000000200000000000000000000000000000000000000000000000000000000000000002000000000000000000000000000000000000000000000000000000000000004000000000000000000000000000000000000000000000000000000000000000c00000000000000000000000000000000000000000000000000000000000000060000000000000000000000000000000000000000000000003cf15a374bb1509b5000000000000000000000000000000000000000000000001ffabb8f013350ea400000000000000000000000000000000000000000000000000edf8aa416abf860000000000000000000000000000000000000000000000000000000000000000",
                    "revert": false,
                    "revertMessage": "",
                    "selector": "0xac9650d8",
                    "status": true,
                    "value": "0.066982979606069126"
                },
                "nodeType": 0
            },
            "1": {
                "invocation": {
                    "address": "0xc36442b4a4522e871399cd717abdd847ab11fe88",
                    "callData": "0x0000000000000000000000000000000000000000000000000000000000011b8f000000000000000000000000000000000000000000000001ffabb8f013350ea400000000000000000000000000000000000000000000000000edf8aa416abf86000000000000000000000000000000000000000000000001e5569310015a6c9500000000000000000000000000000000000000000000000000b45807c7b987010000000000000000000000000000000000000000000000000000000061075e56",
                    "decodedMethod": {
                        "callParams": [
                            {
                                "name": "params",
                                "type": "(uint256,uint256,uint256,uint256,uint256,uint256)",
                                "value": [
                                    {
                                        "name": "tokenId",
                                        "type": "uint256",
                                        "value": "72,591"
                                    },
                                    {
                                        "name": "amount0Desired",
                                        "type": "uint256",
                                        "value": "36,869,766,115,652,603,556"
                                    },
                                    {
                                        "name": "amount1Desired",
                                        "type": "uint256",
                                        "value": "66,982,979,606,069,126"
                                    },
                                    {
                                        "name": "amount0Min",
                                        "type": "uint256",
                                        "value": "34,972,301,653,343,628,437"
                                    },
                                    {
                                        "name": "amount1Min",
                                        "type": "uint256",
                                        "value": "50,762,286,246,758,145"
                                    },
                                    {
                                        "name": "deadline",
                                        "type": "uint256",
                                        "value": "1,627,872,854"
                                    }
                                ]
                            }
                        ],
                        "constructorArguments": "",
                        "name": "increaseLiquidity",
                        "returnParams": [
                            {
                                "name": "liquidity",
                                "type": "uint128",
                                "value": "70,262,244,883,240,913,333"
                            },
                            {
                                "name": "amount0",
                                "type": "uint256",
                                "value": "36,869,766,115,652,603,556"
                            },
                            {
                                "name": "amount1",
                                "type": "uint256",
                                "value": "66,982,979,606,069,126"
                            }
                        ],
                        "signature": "increaseLiquidity((uint256,uint256,uint256,uint256,uint256,uint256))"
                    },
                    "errorInfo": "",
                    "fromAddress": "0xc36442b4a4522e871399cd717abdd847ab11fe88",
                    "gasUsed": 210953,
                    "id": 1,
                    "methodDecoded": true,
                    "operation": "DELEGATECALL",
                    "output": "0x000000000000000000000000000000000000000000000003cf15a374bb1509b5000000000000000000000000000000000000000000000001ffabb8f013350ea400000000000000000000000000000000000000000000000000edf8aa416abf86",
                    "revert": false,
                    "revertMessage": "",
                    "selector": "0x219f5d17",
                    "status": true,
                    "value": "0.066982979606069126"
                },
                "nodeType": 0
            },
            "10": {
                "event": {
                    "contract": "0xc02aaa39b223fe8d0a0e5c4f27ead9083c756cc2",
                    "decodedLog": {
                        "name": "Deposit",
                        "params": [
                            {
                                "name": "dst",
                                "type": "address",
                                "value": "0xc36442b4a4522e871399cd717abdd847ab11fe88"
                            },
                            {
                                "name": "wad",
                                "type": "uint256",
                                "value": "66,982,979,606,069,126"
                            }
                        ],
                        "signature": "Deposit(address,uint256)"
                    },
                    "id": 10,
                    "logData": "0x00000000000000000000000000000000000000000000000000edf8aa416abf86",
                    "logDecoded": true,
                    "operation": "EVENT",
                    "revert": false,
                    "status": true,
                    "topics": [
                        "0xe1fffcc4923d04b559f4d29a8bfc6cda04eb5b0d3c460751c2402c5c5cc9109c",
                        "0x000000000000000000000000c36442b4a4522e871399cd717abdd847ab11fe88"
                    ]
                },
                "nodeType": 1
            },
            "11": {
                "invocation": {
                    "address": "0xc02aaa39b223fe8d0a0e5c4f27ead9083c756cc2",
                    "callData": "0x0000000000000000000000001d42064fc4beb5f8aaf85f4617ae8b3b5b8bd80100000000000000000000000000000000000000000000000000edf8aa416abf86",
                    "decodedMethod": {
                        "callParams": [
                            {
                                "name": "dst",
                                "type": "address",
                                "value": "0x1d42064fc4beb5f8aaf85f4617ae8b3b5b8bd801"
                            },
                            {
                                "decimalAvailable": true,
                                "name": "wad",
                                "type": "uint256",
                                "value": "66,982,979,606,069,126"
                            }
                        ],
                        "constructorArguments": "",
                        "name": "transfer",
                        "returnParams": [
                            {
                                "name": "",
                                "type": "bool",
                                "value": true
                            }
                        ],
                        "signature": "transfer(address,uint256)"
                    },
                    "errorInfo": "",
                    "fromAddress": "0xc36442b4a4522e871399cd717abdd847ab11fe88",
                    "gasUsed": 6062,
                    "id": 11,
                    "methodDecoded": true,
                    "operation": "CALL",
                    "output": "0x0000000000000000000000000000000000000000000000000000000000000001",
                    "revert": false,
                    "revertMessage": "",
                    "selector": "0xa9059cbb",
                    "status": true,
                    "value": "0"
                },
                "nodeType": 0
            },
            "12": {
                "event": {
                    "contract": "0xc02aaa39b223fe8d0a0e5c4f27ead9083c756cc2",
                    "decodedLog": {
                        "name": "Transfer",
                        "params": [
                            {
                                "name": "src",
                                "type": "address",
                                "value": "0xc36442b4a4522e871399cd717abdd847ab11fe88"
                            },
                            {
                                "name": "dst",
                                "type": "address",
                                "value": "0x1d42064fc4beb5f8aaf85f4617ae8b3b5b8bd801"
                            },
                            {
                                "decimalAvailable": true,
                                "name": "wad",
                                "type": "uint256",
                                "value": "66,982,979,606,069,126"
                            }
                        ],
                        "signature": "Transfer(address,address,uint256)"
                    },
                    "id": 12,
                    "logData": "0x00000000000000000000000000000000000000000000000000edf8aa416abf86",
                    "logDecoded": true,
                    "operation": "EVENT",
                    "revert": false,
                    "status": true,
                    "topics": [
                        "0xddf252ad1be2c89b69c2b068fc378daa952ba7f163c4a11628f55a4df523b3ef",
                        "0x000000000000000000000000c36442b4a4522e871399cd717abdd847ab11fe88",
                        "0x0000000000000000000000001d42064fc4beb5f8aaf85f4617ae8b3b5b8bd801"
                    ]
                },
                "nodeType": 1
            },
            "13": {
                "invocation": {
                    "address": "0x1f9840a85d5af5bf1d1762f925bdaddc4201f984",
                    "callData": "0x0000000000000000000000001d42064fc4beb5f8aaf85f4617ae8b3b5b8bd801",
                    "decodedMethod": {
                        "callParams": [
                            {
                                "name": "account",
                                "type": "address",
                                "value": "0x1d42064fc4beb5f8aaf85f4617ae8b3b5b8bd801"
                            }
                        ],
                        "constructorArguments": "",
                        "name": "balanceOf",
                        "returnParams": [
                            {
                                "decimalAvailable": true,
                                "name": "",
                                "type": "uint256",
                                "value": "2,232,504,438,328,480,090,376,362"
                            }
                        ],
                        "signature": "balanceOf(address)"
                    },
                    "errorInfo": "",
                    "fromAddress": "0x1d42064fc4beb5f8aaf85f4617ae8b3b5b8bd801",
                    "gasUsed": 797,
                    "id": 13,
                    "methodDecoded": true,
                    "operation": "STATICCALL",
                    "output": "0x00000000000000000000000000000000000000000001d8c04ee0084cb69948aa",
                    "revert": false,
                    "revertMessage": "",
                    "selector": "0x70a08231",
                    "status": true,
                    "value": "0"
                },
                "nodeType": 0
            },
            "14": {
                "invocation": {
                    "address": "0xc02aaa39b223fe8d0a0e5c4f27ead9083c756cc2",
                    "callData": "0x0000000000000000000000001d42064fc4beb5f8aaf85f4617ae8b3b5b8bd801",
                    "decodedMethod": {
                        "callParams": [
                            {
                                "name": "",
                                "type": "address",
                                "value": "0x1d42064fc4beb5f8aaf85f4617ae8b3b5b8bd801"
                            }
                        ],
                        "constructorArguments": "",
                        "name": "balanceOf",
                        "returnParams": [
                            {
                                "decimalAvailable": true,
                                "name": "",
                                "type": "uint256",
                                "value": "6,935,771,423,818,177,545,976"
                            }
                        ],
                        "signature": "balanceOf(address)"
                    },
                    "errorInfo": "",
                    "fromAddress": "0x1d42064fc4beb5f8aaf85f4617ae8b3b5b8bd801",
                    "gasUsed": 534,
                    "id": 14,
                    "methodDecoded": true,
                    "operation": "STATICCALL",
                    "output": "0x000000000000000000000000000000000000000000000177fd2a02abb3bb86f8",
                    "revert": false,
                    "revertMessage": "",
                    "selector": "0x70a08231",
                    "status": true,
                    "value": "0"
                },
                "nodeType": 0
            },
            "15": {
                "event": {
                    "contract": "0x1d42064fc4beb5f8aaf85f4617ae8b3b5b8bd801",
                    "decodedLog": {
                        "name": "Mint",
                        "params": [
                            {
                                "name": "owner",
                                "type": "address",
                                "value": "0xc36442b4a4522e871399cd717abdd847ab11fe88"
                            },
                            {
                                "name": "tickLower",
                                "type": "int24",
                                "value": "-47,880"
                            },
                            {
                                "name": "tickUpper",
                                "type": "int24",
                                "value": "-46,680"
                            },
                            {
                                "name": "sender",
                                "type": "address",
                                "value": "0xc36442b4a4522e871399cd717abdd847ab11fe88"
                            },
                            {
                                "name": "amount",
                                "type": "uint128",
                                "value": "70,262,244,883,240,913,333"
                            },
                            {
                                "name": "amount0",
                                "type": "uint256",
                                "value": "36,869,766,115,652,603,556"
                            },
                            {
                                "name": "amount1",
                                "type": "uint256",
                                "value": "66,982,979,606,069,126"
                            }
                        ],
                        "signature": "Mint(address,address,int24,int24,uint128,uint256,uint256)"
                    },
                    "id": 15,
                    "logData": "0x000000000000000000000000c36442b4a4522e871399cd717abdd847ab11fe88000000000000000000000000000000000000000000000003cf15a374bb1509b5000000000000000000000000000000000000000000000001ffabb8f013350ea400000000000000000000000000000000000000000000000000edf8aa416abf86",
                    "logDecoded": true,
                    "operation": "EVENT",
                    "revert": false,
                    "status": true,
                    "topics": [
                        "0x7a53080ba414158be7ec69b987b5fb7d07dee101fe85488f0853ae16239d0bde",
                        "0x000000000000000000000000c36442b4a4522e871399cd717abdd847ab11fe88",
                        "0xffffffffffffffffffffffffffffffffffffffffffffffffffffffffffff44f8",
                        "0xffffffffffffffffffffffffffffffffffffffffffffffffffffffffffff49a8"
                    ]
                },
                "nodeType": 1
            },
            "16": {
                "invocation": {
                    "address": "0x1d42064fc4beb5f8aaf85f4617ae8b3b5b8bd801",
                    "callData": "0x2633cf99a7174ea1920e19a6b4ed0e4eb37bd8ab459fb36a1de7001feac7c559",
                    "decodedMethod": {
                        "callParams": [
                            {
                                "name": "",
                                "type": "bytes32",
                                "value": "0x2633cf99a7174ea1920e19a6b4ed0e4eb37bd8ab459fb36a1de7001feac7c559"
                            }
                        ],
                        "constructorArguments": "",
                        "name": "positions",
                        "returnParams": [
                            {
                                "name": "liquidity",
                                "type": "uint128",
                                "value": "240,426,041,711,539,069,444"
                            },
                            {
                                "name": "feeGrowthInside0LastX128",
                                "type": "uint256",
                                "value": "15,339,687,480,156,538,045,008,810,320,163,375,934"
                            },
                            {
                                "name": "feeGrowthInside1LastX128",
                                "type": "uint256",
                                "value": "128,221,014,961,985,003,765,357,218,442,544,120"
                            },
                            {
                                "name": "tokensOwed0",
                                "type": "uint128",
                                "value": "652,169,095,950,824,637"
                            },
                            {
                                "name": "tokensOwed1",
                                "type": "uint128",
                                "value": "5,890,764,386,893,291"
                            }
                        ],
                        "signature": "positions(bytes32)"
                    },
                    "errorInfo": "",
                    "fromAddress": "0xc36442b4a4522e871399cd717abdd847ab11fe88",
                    "gasUsed": 1013,
                    "id": 16,
                    "methodDecoded": true,
                    "operation": "STATICCALL",
                    "output": "0x00000000000000000000000000000000000000000000000d0894e31ad9892204000000000000000000000000000000000b8a50fc05bfe50ad0b0472ba8860b3e000000000000000000000000000000000018b1c8bc226cf97d940e5da85883f8000000000000000000000000000000000000000000000000090cf85661a2f4bd0000000000000000000000000000000000000000000000000014ed9e76bc7deb",
                    "revert": false,
                    "revertMessage": "",
                    "selector": "0x514ea4bf",
                    "status": true,
                    "value": "0"
                },
                "nodeType": 0
            },
            "17": {
                "event": {
                    "contract": "0xc36442b4a4522e871399cd717abdd847ab11fe88",
                    "decodedLog": {
                        "name": "IncreaseLiquidity",
                        "params": [
                            {
                                "name": "tokenId",
                                "type": "uint256",
                                "value": "72,591"
                            },
                            {
                                "name": "liquidity",
                                "type": "uint128",
                                "value": "70,262,244,883,240,913,333"
                            },
                            {
                                "name": "amount0",
                                "type": "uint256",
                                "value": "36,869,766,115,652,603,556"
                            },
                            {
                                "name": "amount1",
                                "type": "uint256",
                                "value": "66,982,979,606,069,126"
                            }
                        ],
                        "signature": "IncreaseLiquidity(uint256,uint128,uint256,uint256)"
                    },
                    "id": 17,
                    "logData": "0x000000000000000000000000000000000000000000000003cf15a374bb1509b5000000000000000000000000000000000000000000000001ffabb8f013350ea400000000000000000000000000000000000000000000000000edf8aa416abf86",
                    "logDecoded": true,
                    "operation": "EVENT",
                    "revert": false,
                    "status": true,
                    "topics": [
                        "0x3067048beee31b25b2f1681f88dac838c8bba36af25bfb2b7cf7473a5847e35f",
                        "0x0000000000000000000000000000000000000000000000000000000000011b8f"
                    ]
                },
                "nodeType": 1
            },
            "18": {
                "invocation": {
                    "address": "0xc36442b4a4522e871399cd717abdd847ab11fe88",
                    "callData": "0x",
                    "decodedMethod": {
                        "callParams": [],
                        "constructorArguments": "",
                        "name": "refundETH",
                        "returnParams": [],
                        "signature": "refundETH()"
                    },
                    "errorInfo": "",
                    "fromAddress": "0xc36442b4a4522e871399cd717abdd847ab11fe88",
                    "gasUsed": 233,
                    "id": 18,
                    "methodDecoded": true,
                    "operation": "DELEGATECALL",
                    "output": "",
                    "revert": false,
                    "revertMessage": "",
                    "selector": "0x12210e8a",
                    "status": true,
                    "value": "0.066982979606069126"
                },
                "nodeType": 0
            },
            "2": {
                "invocation": {
                    "address": "0x1d42064fc4beb5f8aaf85f4617ae8b3b5b8bd801",
                    "callData": "0x",
                    "decodedMethod": {
                        "callParams": [],
                        "constructorArguments": "",
                        "name": "slot0",
                        "returnParams": [
                            {
                                "name": "sqrtPriceX96",
                                "type": "uint160",
                                "value": "7,307,066,826,436,395,726,746,624,990"
                            },
                            {
                                "name": "tick",
                                "type": "int24",
                                "value": "-47,673"
                            },
                            {
                                "name": "observationIndex",
                                "type": "uint16",
                                "value": "37"
                            },
                            {
                                "name": "observationCardinality",
                                "type": "uint16",
                                "value": "50"
                            },
                            {
                                "name": "observationCardinalityNext",
                                "type": "uint16",
                                "value": "50"
                            },
                            {
                                "name": "feeProtocol",
                                "type": "uint8",
                                "value": "0"
                            },
                            {
                                "name": "unlocked",
                                "type": "bool",
                                "value": true
                            }
                        ],
                        "signature": "slot0()"
                    },
                    "errorInfo": "",
                    "fromAddress": "0xc36442b4a4522e871399cd717abdd847ab11fe88",
                    "gasUsed": 2696,
                    "id": 2,
                    "methodDecoded": true,
                    "operation": "STATICCALL",
                    "output": "0x0000000000000000000000000000000000000000179c439662cdf2e9db2323deffffffffffffffffffffffffffffffffffffffffffffffffffffffffffff45c700000000000000000000000000000000000000000000000000000000000000250000000000000000000000000000000000000000000000000000000000000032000000000000000000000000000000000000000000000000000000000000003200000000000000000000000000000000000000000000000000000000000000000000000000000000000000000000000000000000000000000000000000000001",
                    "revert": false,
                    "revertMessage": "",
                    "selector": "0x3850c7bd",
                    "status": true,
                    "value": "0"
                },
                "nodeType": 0
            },
            "3": {
                "invocation": {
                    "address": "0x1d42064fc4beb5f8aaf85f4617ae8b3b5b8bd801",
                    "callData": "0x000000000000000000000000c36442b4a4522e871399cd717abdd847ab11fe88ffffffffffffffffffffffffffffffffffffffffffffffffffffffffffff44f8ffffffffffffffffffffffffffffffffffffffffffffffffffffffffffff49a8000000000000000000000000000000000000000000000003cf15a374bb1509b500000000000000000000000000000000000000000000000000000000000000a000000000000000000000000000000000000000000000000000000000000000800000000000000000000000001f9840a85d5af5bf1d1762f925bdaddc4201f984000000000000000000000000c02aaa39b223fe8d0a0e5c4f27ead9083c756cc20000000000000000000000000000000000000000000000000000000000000bb8000000000000000000000000068d5144c026e2abf20268902bd03969ba52a250",
                    "decodedMethod": {
                        "callParams": [
                            {
                                "name": "recipient",
                                "type": "address",
                                "value": "0xc36442b4a4522e871399cd717abdd847ab11fe88"
                            },
                            {
                                "name": "tickLower",
                                "type": "int24",
                                "value": "-47,880"
                            },
                            {
                                "name": "tickUpper",
                                "type": "int24",
                                "value": "-46,680"
                            },
                            {
                                "name": "amount",
                                "type": "uint128",
                                "value": "70,262,244,883,240,913,333"
                            },
                            {
                                "name": "data",
                                "type": "bytes",
                                "value": "0x0000000000000000000000001f9840a85d5af5bf1d1762f925bdaddc4201f984000000000000000000000000c02aaa39b223fe8d0a0e5c4f27ead9083c756cc20000000000000000000000000000000000000000000000000000000000000bb8000000000000000000000000068d5144c026e2abf20268902bd03969ba52a250"
                            }
                        ],
                        "constructorArguments": "",
                        "name": "mint",
                        "returnParams": [
                            {
                                "name": "amount0",
                                "type": "uint256",
                                "value": "36,869,766,115,652,603,556"
                            },
                            {
                                "name": "amount1",
                                "type": "uint256",
                                "value": "66,982,979,606,069,126"
                            }
                        ],
                        "signature": "mint(address,int24,int24,uint128,bytes)"
                    },
                    "errorInfo": "",
                    "fromAddress": "0xc36442b4a4522e871399cd717abdd847ab11fe88",
                    "gasUsed": 150738,
                    "id": 3,
                    "methodDecoded": true,
                    "operation": "CALL",
                    "output": "0x000000000000000000000000000000000000000000000001ffabb8f013350ea400000000000000000000000000000000000000000000000000edf8aa416abf86",
                    "revert": false,
                    "revertMessage": "",
                    "selector": "0x3c8a7d8d",
                    "status": true,
                    "value": "0"
                },
                "nodeType": 0
            },
            "4": {
                "invocation": {
                    "address": "0x1f9840a85d5af5bf1d1762f925bdaddc4201f984",
                    "callData": "0x0000000000000000000000001d42064fc4beb5f8aaf85f4617ae8b3b5b8bd801",
                    "decodedMethod": {
                        "callParams": [
                            {
                                "name": "account",
                                "type": "address",
                                "value": "0x1d42064fc4beb5f8aaf85f4617ae8b3b5b8bd801"
                            }
                        ],
                        "constructorArguments": "",
                        "name": "balanceOf",
                        "returnParams": [
                            {
                                "decimalAvailable": true,
                                "name": "",
                                "type": "uint256",
                                "value": "2,232,467,568,562,364,437,772,806"
                            }
                        ],
                        "signature": "balanceOf(address)"
                    },
                    "errorInfo": "",
                    "fromAddress": "0x1d42064fc4beb5f8aaf85f4617ae8b3b5b8bd801",
                    "gasUsed": 2797,
                    "id": 4,
                    "methodDecoded": true,
                    "operation": "STATICCALL",
                    "output": "0x00000000000000000000000000000000000000000001d8be4f344f5ca3643a06",
                    "revert": false,
                    "revertMessage": "",
                    "selector": "0x70a08231",
                    "status": true,
                    "value": "0"
                },
                "nodeType": 0
            },
            "5": {
                "invocation": {
                    "address": "0xc02aaa39b223fe8d0a0e5c4f27ead9083c756cc2",
                    "callData": "0x0000000000000000000000001d42064fc4beb5f8aaf85f4617ae8b3b5b8bd801",
                    "decodedMethod": {
                        "callParams": [
                            {
                                "name": "",
                                "type": "address",
                                "value": "0x1d42064fc4beb5f8aaf85f4617ae8b3b5b8bd801"
                            }
                        ],
                        "constructorArguments": "",
                        "name": "balanceOf",
                        "returnParams": [
                            {
                                "decimalAvailable": true,
                                "name": "",
                                "type": "uint256",
                                "value": "6,935,704,440,838,571,476,850"
                            }
                        ],
                        "signature": "balanceOf(address)"
                    },
                    "errorInfo": "",
                    "fromAddress": "0x1d42064fc4beb5f8aaf85f4617ae8b3b5b8bd801",
                    "gasUsed": 2534,
                    "id": 5,
                    "methodDecoded": true,
                    "operation": "STATICCALL",
                    "output": "0x000000000000000000000000000000000000000000000177fc3c0a017250c772",
                    "revert": false,
                    "revertMessage": "",
                    "selector": "0x70a08231",
                    "status": true,
                    "value": "0"
                },
                "nodeType": 0
            },
            "6": {
                "invocation": {
                    "address": "0xc36442b4a4522e871399cd717abdd847ab11fe88",
                    "callData": "0x000000000000000000000000000000000000000000000001ffabb8f013350ea400000000000000000000000000000000000000000000000000edf8aa416abf86000000000000000000000000000000000000000000000000000000000000006000000000000000000000000000000000000000000000000000000000000000800000000000000000000000001f9840a85d5af5bf1d1762f925bdaddc4201f984000000000000000000000000c02aaa39b223fe8d0a0e5c4f27ead9083c756cc20000000000000000000000000000000000000000000000000000000000000bb8000000000000000000000000068d5144c026e2abf20268902bd03969ba52a250",
                    "decodedMethod": {
                        "callParams": [
                            {
                                "name": "amount0Owed",
                                "type": "uint256",
                                "value": "36,869,766,115,652,603,556"
                            },
                            {
                                "name": "amount1Owed",
                                "type": "uint256",
                                "value": "66,982,979,606,069,126"
                            },
                            {
                                "name": "data",
                                "type": "bytes",
                                "value": "0x0000000000000000000000001f9840a85d5af5bf1d1762f925bdaddc4201f984000000000000000000000000c02aaa39b223fe8d0a0e5c4f27ead9083c756cc20000000000000000000000000000000000000000000000000000000000000bb8000000000000000000000000068d5144c026e2abf20268902bd03969ba52a250"
                            }
                        ],
                        "constructorArguments": "",
                        "name": "uniswapV3MintCallback",
                        "returnParams": [],
                        "signature": "uniswapV3MintCallback(uint256,uint256,bytes)"
                    },
                    "errorInfo": "",
                    "fromAddress": "0x1d42064fc4beb5f8aaf85f4617ae8b3b5b8bd801",
                    "gasUsed": 59910,
                    "id": 6,
                    "methodDecoded": true,
                    "operation": "CALL",
                    "output": "",
                    "revert": false,
                    "revertMessage": "",
                    "selector": "0xd3487997",
                    "status": true,
                    "value": "0"
                },
                "nodeType": 0
            },
            "7": {
                "invocation": {
                    "address": "0x1f9840a85d5af5bf1d1762f925bdaddc4201f984",
                    "callData": "0x000000000000000000000000068d5144c026e2abf20268902bd03969ba52a2500000000000000000000000001d42064fc4beb5f8aaf85f4617ae8b3b5b8bd801000000000000000000000000000000000000000000000001ffabb8f013350ea4",
                    "decodedMethod": {
                        "callParams": [
                            {
                                "name": "src",
                                "type": "address",
                                "value": "0x068d5144c026e2abf20268902bd03969ba52a250"
                            },
                            {
                                "name": "dst",
                                "type": "address",
                                "value": "0x1d42064fc4beb5f8aaf85f4617ae8b3b5b8bd801"
                            },
                            {
                                "decimalAvailable": true,
                                "name": "rawAmount",
                                "type": "uint256",
                                "value": "36,869,766,115,652,603,556"
                            }
                        ],
                        "constructorArguments": "",
                        "name": "transferFrom",
                        "returnParams": [
                            {
                                "name": "",
                                "type": "bool",
                                "value": true
                            }
                        ],
                        "signature": "transferFrom(address,address,uint256)"
                    },
                    "errorInfo": "",
                    "fromAddress": "0xc36442b4a4522e871399cd717abdd847ab11fe88",
                    "gasUsed": 19011,
                    "id": 7,
                    "methodDecoded": true,
                    "operation": "CALL",
                    "output": "0x0000000000000000000000000000000000000000000000000000000000000001",
                    "revert": false,
                    "revertMessage": "",
                    "selector": "0x23b872dd",
                    "status": true,
                    "value": "0"
                },
                "nodeType": 0
            },
            "8": {
                "event": {
                    "contract": "0x1f9840a85d5af5bf1d1762f925bdaddc4201f984",
                    "decodedLog": {
                        "name": "Transfer",
                        "params": [
                            {
                                "name": "from",
                                "type": "address",
                                "value": "0x068d5144c026e2abf20268902bd03969ba52a250"
                            },
                            {
                                "name": "to",
                                "type": "address",
                                "value": "0x1d42064fc4beb5f8aaf85f4617ae8b3b5b8bd801"
                            },
                            {
                                "decimalAvailable": true,
                                "name": "amount",
                                "type": "uint256",
                                "value": "36,869,766,115,652,603,556"
                            }
                        ],
                        "signature": "Transfer(address,address,uint256)"
                    },
                    "id": 8,
                    "logData": "0x000000000000000000000000000000000000000000000001ffabb8f013350ea4",
                    "logDecoded": true,
                    "operation": "EVENT",
                    "revert": false,
                    "status": true,
                    "topics": [
                        "0xddf252ad1be2c89b69c2b068fc378daa952ba7f163c4a11628f55a4df523b3ef",
                        "0x000000000000000000000000068d5144c026e2abf20268902bd03969ba52a250",
                        "0x0000000000000000000000001d42064fc4beb5f8aaf85f4617ae8b3b5b8bd801"
                    ]
                },
                "nodeType": 1
            },
            "9": {
                "invocation": {
                    "address": "0xc02aaa39b223fe8d0a0e5c4f27ead9083c756cc2",
                    "callData": "0x",
                    "decodedMethod": {
                        "callParams": [],
                        "constructorArguments": "",
                        "name": "deposit",
                        "returnParams": [],
                        "signature": "deposit()"
                    },
                    "errorInfo": "",
                    "fromAddress": "0xc36442b4a4522e871399cd717abdd847ab11fe88",
                    "gasUsed": 23974,
                    "id": 9,
                    "methodDecoded": true,
                    "operation": "CALL",
                    "output": "",
                    "revert": false,
                    "revertMessage": "",
                    "selector": "0xd0e30db0",
                    "status": true,
                    "value": "0.066982979606069126"
                },
                "nodeType": 0
            }
        },
        "gasFlame": [
            {
                "children": [
                    {
                        "children": [
                            {
                                "children": [],
                                "depth": 0,
                                "name": "Initial Gas",
                                "value": 23504
                            },
                            {
                                "children": [
                                    {
                                        "children": [
                                            {
                                                "children": [],
                                                "depth": 2,
                                                "name": "slot0",
                                                "value": 2696
                                            },
                                            {
                                                "children": [
                                                    {
                                                        "children": [],
                                                        "depth": 3,
                                                        "name": "balanceOf",
                                                        "value": 2797
                                                    },
                                                    {
                                                        "children": [],
                                                        "depth": 3,
                                                        "name": "balanceOf",
                                                        "value": 2534
                                                    },
                                                    {
                                                        "children": [
                                                            {
                                                                "children": [],
                                                                "depth": 4,
                                                                "name": "transferFrom",
                                                                "value": 19011
                                                            },
                                                            {
                                                                "children": [],
                                                                "depth": 4,
                                                                "name": "deposit",
                                                                "value": 23974
                                                            },
                                                            {
                                                                "children": [],
                                                                "depth": 4,
                                                                "name": "transfer",
                                                                "value": 6062
                                                            }
                                                        ],
                                                        "depth": 3,
                                                        "name": "uniswapV3MintCallback",
                                                        "value": 59910
                                                    },
                                                    {
                                                        "children": [],
                                                        "depth": 3,
                                                        "name": "balanceOf",
                                                        "value": 797
                                                    },
                                                    {
                                                        "children": [],
                                                        "depth": 3,
                                                        "name": "balanceOf",
                                                        "value": 534
                                                    }
                                                ],
                                                "depth": 2,
                                                "name": "mint",
                                                "value": 150738
                                            },
                                            {
                                                "children": [],
                                                "depth": 2,
                                                "name": "positions",
                                                "value": 1013
                                            }
                                        ],
                                        "depth": 1,
                                        "name": "increaseLiquidity",
                                        "value": 210953
                                    },
                                    {
                                        "children": [],
                                        "depth": 1,
                                        "name": "refundETH",
                                        "value": 233
                                    }
                                ],
                                "depth": 0,
                                "name": "Executed Gas",
                                "value": 214302
                            }
                        ],
                        "depth": -1,
                        "name": "Actual Gas Used",
                        "value": 217906
                    },
                    {
                        "children": [],
                        "depth": -1,
                        "name": "Refunded Gas",
                        "value": 19900
                    }
                ],
                "depth": -2,
                "name": "Total Gas",
                "value": 237806
            }
        ],
        "isConfirmed": true,
        "mainTrace": [
            {
                "children": [
                    {
                        "children": [
                            {
                                "children": [
                                    {
                                        "children": [],
                                        "depth": 2,
                                        "id": 2,
                                        "order": 2
                                    },
                                    {
                                        "children": [
                                            {
                                                "children": [],
                                                "depth": 3,
                                                "id": 4,
                                                "order": 4
                                            },
                                            {
                                                "children": [],
                                                "depth": 3,
                                                "id": 5,
                                                "order": 5
                                            },
                                            {
                                                "children": [
                                                    {
                                                        "children": [
                                                            {
                                                                "children": [],
                                                                "depth": 5,
                                                                "id": 8,
                                                                "order": 8
                                                            }
                                                        ],
                                                        "depth": 4,
                                                        "id": 7,
                                                        "order": 7
                                                    },
                                                    {
                                                        "children": [
                                                            {
                                                                "children": [],
                                                                "depth": 5,
                                                                "id": 10,
                                                                "order": 10
                                                            }
                                                        ],
                                                        "depth": 4,
                                                        "id": 9,
                                                        "order": 9
                                                    },
                                                    {
                                                        "children": [
                                                            {
                                                                "children": [],
                                                                "depth": 5,
                                                                "id": 12,
                                                                "order": 12
                                                            }
                                                        ],
                                                        "depth": 4,
                                                        "id": 11,
                                                        "order": 11
                                                    }
                                                ],
                                                "depth": 3,
                                                "id": 6,
                                                "order": 6
                                            },
                                            {
                                                "children": [],
                                                "depth": 3,
                                                "id": 13,
                                                "order": 13
                                            },
                                            {
                                                "children": [],
                                                "depth": 3,
                                                "id": 14,
                                                "order": 14
                                            },
                                            {
                                                "children": [],
                                                "depth": 3,
                                                "id": 15,
                                                "order": 15
                                            }
                                        ],
                                        "depth": 2,
                                        "id": 3,
                                        "order": 3
                                    },
                                    {
                                        "children": [],
                                        "depth": 2,
                                        "id": 16,
                                        "order": 16
                                    },
                                    {
                                        "children": [],
                                        "depth": 2,
                                        "id": 17,
                                        "order": 17
                                    }
                                ],
                                "depth": 1,
                                "id": 1,
                                "order": 1
                            },
                            {
                                "children": [],
                                "depth": 1,
                                "id": 18,
                                "order": 18
                            }
                        ],
                        "depth": 0,
                        "id": 0,
                        "order": 0
                    }
                ],
                "depth": -1,
                "id": -1,
                "order": -1
            }
        ],
        "mainTraceNodeCount": 19,
        "parentIdMap": {
            "0": -1,
            "1": 0,
            "10": 9,
            "11": 6,
            "12": 11,
            "13": 3,
            "14": 3,
            "15": 3,
            "16": 1,
            "17": 1,
            "18": 0,
            "2": 1,
            "3": 1,
            "4": 3,
            "5": 3,
            "6": 3,
            "7": 6,
            "8": 7,
            "9": 6
        },
        "tidyTrace": [
            {
                "children": [
                    {
                        "children": [
                            {
                                "children": [
                                    {
                                        "children": [
                                            {
                                                "children": [
                                                    {
                                                        "children": [
                                                            {
                                                                "children": [],
                                                                "depth": 5,
                                                                "id": 8,
                                                                "order": 8
                                                            }
                                                        ],
                                                        "depth": 4,
                                                        "id": 7,
                                                        "order": 7
                                                    },
                                                    {
                                                        "children": [
                                                            {
                                                                "children": [],
                                                                "depth": 5,
                                                                "id": 10,
                                                                "order": 10
                                                            }
                                                        ],
                                                        "depth": 4,
                                                        "id": 9,
                                                        "order": 9
                                                    },
                                                    {
                                                        "children": [
                                                            {
                                                                "children": [],
                                                                "depth": 5,
                                                                "id": 12,
                                                                "order": 12
                                                            }
                                                        ],
                                                        "depth": 4,
                                                        "id": 11,
                                                        "order": 11
                                                    }
                                                ],
                                                "depth": 3,
                                                "id": 6,
                                                "order": 6
                                            },
                                            {
                                                "children": [],
                                                "depth": 3,
                                                "id": 15,
                                                "order": 15
                                            }
                                        ],
                                        "depth": 2,
                                        "id": 3,
                                        "order": 3
                                    },
                                    {
                                        "children": [],
                                        "depth": 2,
                                        "id": 17,
                                        "order": 17
                                    }
                                ],
                                "depth": 1,
                                "id": 1,
                                "order": 1
                            },
                            {
                                "children": [],
                                "depth": 1,
                                "id": 18,
                                "order": 18
                            }
                        ],
                        "depth": 0,
                        "id": 0,
                        "order": 0
                    }
                ],
                "depth": -1,
                "id": -1,
                "order": -1
            }
        ],
        "tidyTraceNodeCount": 13
    },
    "state_change": {
        "stateChanges": [
            {
                "address": "0x1d42064fc4beb5f8aaf85f4617ae8b3b5b8bd801",
                "erc": "",
                "slots": [
                    {
                        "current": "0xfffffffffffff9500d9ad5297eddc0b60000000000000b14df8c0abef879c3b6",
                        "key": "0xf465b3744640d95dd19a4949be40dd02ab7e153caa01ca9eea93fb3719a09fb6",
                        "prev": "0xfffffffffffff953dcb0789e39f2ca6b0000000000000b111076674a3d64ba01"
                    },
                    {
                        "current": "0x000000000000000000000000000000000018b1c8bc226cf97d940e5da85883f8",
                        "key": "0xb7ba4a067207fec9a907c80584290cb68e5c90ad20d212831e7d4151731b5fb8",
                        "prev": "0x000000000000000000000000000000000016a617c34d41bdefe3a72ecbf8152b"
                    },
                    {
                        "current": "0x000000000000000000000000000000000b8a50fc05bfe50ad0b0472ba8860b3e",
                        "key": "0xb7ba4a067207fec9a907c80584290cb68e5c90ad20d212831e7d4151731b5fb7",
                        "prev": "0x000000000000000000000000000000000aa9d1ad8ad5dc6c69f090b5f98a0aeb"
                    },
                    {
                        "current": "0x00000000000000000000000000000000000000000000000d0894e31ad9892204",
                        "key": "0xb7ba4a067207fec9a907c80584290cb68e5c90ad20d212831e7d4151731b5fb6",
                        "prev": "0x000000000000000000000000000000000000000000000009397f3fa61e74184f"
                    },
                    {
                        "current": "0x010000000000000000000a0afeed55313d47eb768bffffac01c7f48c61075ba6",
                        "key": "0x000000000000000000000000000000000000000000000000000000000000002e",
                        "prev": "0x010000000000000000000a0afebe3ce855f93ffe0affffac249f076961072bb1"
                    },
                    {
                        "current": "0x000000000000000000000000000000000000000000010903fcd32921436b7d07",
                        "key": "0x0000000000000000000000000000000000000000000000000000000000000004",
                        "prev": "0x0000000000000000000000000000000000000000000109002dbd85ac88567352"
                    },
                    {
                        "current": "0x00000000000000000014ed9e76bc7deb0000000000000000090cf85661a2f4bd",
                        "key": "0xb7ba4a067207fec9a907c80584290cb68e5c90ad20d212831e7d4151731b5fb9",
                        "prev": "0x000000000000000000020ec700d6b029000000000000000000f612a49d19ff49"
                    },
                    {
                        "current": "0x00000000000019f41d1a91af21c2728d00000000000019f41d1a91af21c2728d",
                        "key": "0x1545a609e325e9079e286fb5ba9489b0b126af2172e251da857176a98c37ea37",
                        "prev": "0x00000000000019f04e04ee3a66ad68d800000000000019f04e04ee3a66ad68d8"
                    },
                    {
                        "current": "0x000100003200320026ff45c70000000000000000179c439662cdf2e9db2323de",
                        "key": "0x0000000000000000000000000000000000000000000000000000000000000000",
                        "prev": "0x000100003200320025ff45c70000000000000000179c439662cdf2e9db2323de"
                    }
                ],
                "storageVariables": [
                    {
                        "name": "positions",
                        "type": "mapping(bytes32 => struct Position.Info)",
                        "value": {
                            "pairs": [
                                {
                                    "key": "0x2633cf99a7174ea1920e19a6b4ed0e4eb37bd8ab459fb36a1de7001feac7c559",
                                    "value": {
                                        "fields": [
                                            {
                                                "name": "liquidity",
                                                "type": "uint128",
                                                "value": {
                                                    "current": "240426041711539069444",
                                                    "prev": "170163796828298156111",
                                                    "typeTag": 1
                                                }
                                            },
                                            {
                                                "name": "feeGrowthInside0LastX128",
                                                "type": "uint256",
                                                "value": {
                                                    "current": "15339687480156538045008810320163375934",
                                                    "prev": "14174030899988296240540620401517660907",
                                                    "typeTag": 1
                                                }
                                            },
                                            {
                                                "name": "feeGrowthInside1LastX128",
                                                "type": "uint256",
                                                "value": {
                                                    "current": "128221014961985003765357218442544120",
                                                    "prev": "117599293572684874012285734506468651",
                                                    "typeTag": 1
                                                }
                                            },
                                            {
                                                "name": "tokensOwed0",
                                                "type": "uint128",
                                                "value": {
                                                    "current": "652169095950824637",
                                                    "prev": "69263342490484553",
                                                    "typeTag": 1
                                                }
                                            },
                                            {
                                                "name": "tokensOwed1",
                                                "type": "uint128",
                                                "value": {
                                                    "current": "5890764386893291",
                                                    "prev": "579197828771881",
                                                    "typeTag": 1
                                                }
                                            }
                                        ],
                                        "typeTag": 3
                                    }
                                }
                            ],
                            "typeTag": 4
                        }
                    },
                    {
                        "name": "slot0",
                        "type": "struct UniswapV3Pool.Slot0",
                        "value": {
                            "fields": [
                                {
                                    "name": "sqrtPriceX96",
                                    "type": "uint160",
                                    "value": {
                                        "current": "7307066826436395726746624990",
                                        "prev": "7307066826436395726746624990",
                                        "typeTag": 1
                                    }
                                },
                                {
                                    "name": "tick",
                                    "type": "int24",
                                    "value": {
                                        "current": "-47673",
                                        "prev": "-47673",
                                        "typeTag": 1
                                    }
                                },
                                {
                                    "name": "observationIndex",
                                    "type": "uint16",
                                    "value": {
                                        "current": "38",
                                        "prev": "37",
                                        "typeTag": 1
                                    }
                                },
                                {
                                    "name": "observationCardinality",
                                    "type": "uint16",
                                    "value": {
                                        "current": "50",
                                        "prev": "50",
                                        "typeTag": 1
                                    }
                                },
                                {
                                    "name": "observationCardinalityNext",
                                    "type": "uint16",
                                    "value": {
                                        "current": "50",
                                        "prev": "50",
                                        "typeTag": 1
                                    }
                                },
                                {
                                    "name": "feeProtocol",
                                    "type": "uint8",
                                    "value": {
                                        "current": "0",
                                        "prev": "0",
                                        "typeTag": 1
                                    }
                                },
                                {
                                    "name": "unlocked",
                                    "type": "bool",
                                    "value": {
                                        "current": "true",
                                        "prev": "true",
                                        "typeTag": 1
                                    }
                                }
                            ],
                            "typeTag": 3
                        }
                    },
                    {
                        "name": "ticks",
                        "type": "mapping(int24 => struct Tick.Info)",
                        "value": {
                            "pairs": [
                                {
                                    "key": "-46680",
                                    "value": {
                                        "fields": [
                                            {
                                                "name": "liquidityGross",
                                                "type": "uint128",
                                                "value": {
                                                    "current": "52331074454822814598070",
                                                    "prev": "52260812209939573684737",
                                                    "typeTag": 1
                                                }
                                            },
                                            {
                                                "name": "liquidityNet",
                                                "type": "int128",
                                                "value": {
                                                    "current": "-31579845523947647024970",
                                                    "prev": "-31509583279064406111637",
                                                    "typeTag": 1
                                                }
                                            }
                                        ],
                                        "typeTag": 3
                                    }
                                },
                                {
                                    "key": "-47880",
                                    "value": {
                                        "fields": [
                                            {
                                                "name": "liquidityGross",
                                                "type": "uint128",
                                                "value": {
                                                    "current": "122562264774484127019661",
                                                    "prev": "122492002529600886106328",
                                                    "typeTag": 1
                                                }
                                            },
                                            {
                                                "name": "liquidityNet",
                                                "type": "int128",
                                                "value": {
                                                    "current": "122562264774484127019661",
                                                    "prev": "122492002529600886106328",
                                                    "typeTag": 1
                                                }
                                            }
                                        ],
                                        "typeTag": 3
                                    }
                                }
                            ],
                            "typeTag": 4
                        }
                    },
                    {
                        "name": "liquidity",
                        "type": "uint128",
                        "value": {
                            "current": "1251500676142817595849991",
                            "prev": "1251430413897934354936658",
                            "typeTag": 1
                        }
                    }
                ]
            },
            {
                "address": "0x1f9840a85d5af5bf1d1762f925bdaddc4201f984",
                "erc": "ERC-20",
                "slots": [
                    {
                        "current": "0x000000000000000000000000000000000000000000000000000000000000010c",
                        "key": "0x20b331cd3d25c987fd0d4a688a32d3e2a4b6b165ffe674a5dac67358c750e02b",
                        "prev": "0x000000000000000000000000000000000000000000000001ffabb8f013350fb0"
                    },
                    {
                        "current": "0x00000000000000000000000000000000000000000001d8c04ee0084cb69948aa",
                        "key": "0x60cff0c23fc1da8f79d34e3688edc4bc06ef31879f0820ff513318f2bfefa8e1",
                        "prev": "0x00000000000000000000000000000000000000000001d8be4f344f5ca3643a06"
                    }
                ],
                "storageVariables": [
                    {
                        "name": "balances",
                        "type": "mapping(address => uint96)",
                        "value": {
                            "pairs": [
                                {
                                    "key": "0x068d5144c026e2abf20268902bd03969ba52a250",
                                    "value": {
                                        "current": "268",
                                        "prev": "36869766115652603824",
                                        "typeTag": 1
                                    }
                                },
                                {
                                    "key": "0x1d42064fc4beb5f8aaf85f4617ae8b3b5b8bd801",
                                    "value": {
                                        "current": "2232504438328480090376362",
                                        "prev": "2232467568562364437772806",
                                        "typeTag": 1
                                    }
                                }
                            ],
                            "typeTag": 4
                        }
                    }
                ]
            },
            {
                "address": "0xc02aaa39b223fe8d0a0e5c4f27ead9083c756cc2",
                "erc": "ERC-20",
                "slots": [
                    {
                        "current": "0x000000000000000000000000000000000000000000000177fd2a02abb3bb86f8",
                        "key": "0xb884b91182324d70fdc7c8411c40d802e62f41c4ddf8f831a011e7cd7c4072f1",
                        "prev": "0x000000000000000000000000000000000000000000000177fc3c0a017250c772"
                    }
                ],
                "storageVariables": [
                    {
                        "name": "balanceOf",
                        "type": "mapping(address => uint256)",
                        "value": {
                            "pairs": [
                                {
                                    "key": "0x1d42064fc4beb5f8aaf85f4617ae8b3b5b8bd801",
                                    "value": {
                                        "current": "6935771423818177545976",
                                        "prev": "6935704440838571476850",
                                        "typeTag": 1
                                    }
                                }
                            ],
                            "typeTag": 4
                        }
                    }
                ]
            },
            {
                "address": "0xc36442b4a4522e871399cd717abdd847ab11fe88",
                "erc": "ERC-721",
                "slots": [
                    {
                        "current": "0x000000000000000000127e889cd23f32000000000000000007ed9c97bac27d40",
                        "key": "0xe8f05f9d9d867e55dfdaed71789dfd60be2d69ecf578bb3c5f34b7a933c4d3f0",
                        "prev": "0x0000000000000000000000000000000000000000000000000000000000000000"
                    },
                    {
                        "current": "0x000000000000000000000000000000000b8a50fc05bfe50ad0b0472ba8860b3e",
                        "key": "0xe8f05f9d9d867e55dfdaed71789dfd60be2d69ecf578bb3c5f34b7a933c4d3ee",
                        "prev": "0x000000000000000000000000000000000aa9d1ad8ad5dc6c69f090b5f98a0aeb"
                    },
                    {
                        "current": "0x000000000000000000000000000000000018b1c8bc226cf97d940e5da85883f8",
                        "key": "0xe8f05f9d9d867e55dfdaed71789dfd60be2d69ecf578bb3c5f34b7a933c4d3ef",
                        "prev": "0x000000000000000000000000000000000016a617c34d41bdefe3a72ecbf8152b"
                    },
                    {
                        "current": "0x000000000000000cd980ab96e234d110ff49a8ff44f800000000000000000001",
                        "key": "0xe8f05f9d9d867e55dfdaed71789dfd60be2d69ecf578bb3c5f34b7a933c4d3ed",
                        "prev": "0x00000000000000090a6b0822271fc75bff49a8ff44f800000000000000000001"
                    }
                ],
                "storageVariables": [
                    {
                        "name": "_positions",
                        "type": "mapping(uint256 => struct NonfungiblePositionManager.Position)",
                        "value": {
                            "pairs": [
                                {
                                    "key": "72591",
                                    "value": {
                                        "fields": [
                                            {
                                                "name": "poolId",
                                                "type": "uint80",
                                                "value": {
                                                    "current": "1",
                                                    "prev": "1",
                                                    "typeTag": 1
                                                }
                                            },
                                            {
                                                "name": "tickLower",
                                                "type": "int24",
                                                "value": {
                                                    "current": "-47880",
                                                    "prev": "-47880",
                                                    "typeTag": 1
                                                }
                                            },
                                            {
                                                "name": "tickUpper",
                                                "type": "int24",
                                                "value": {
                                                    "current": "-46680",
                                                    "prev": "-46680",
                                                    "typeTag": 1
                                                }
                                            },
                                            {
                                                "name": "liquidity",
                                                "type": "uint128",
                                                "value": {
                                                    "current": "237033644252292501776",
                                                    "prev": "166771399369051588443",
                                                    "typeTag": 1
                                                }
                                            },
                                            {
                                                "name": "feeGrowthInside0LastX128",
                                                "type": "uint256",
                                                "value": {
                                                    "current": "15339687480156538045008810320163375934",
                                                    "prev": "14174030899988296240540620401517660907",
                                                    "typeTag": 1
                                                }
                                            },
                                            {
                                                "name": "feeGrowthInside1LastX128",
                                                "type": "uint256",
                                                "value": {
                                                    "current": "128221014961985003765357218442544120",
                                                    "prev": "117599293572684874012285734506468651",
                                                    "typeTag": 1
                                                }
                                            },
                                            {
                                                "name": "tokensOwed0",
                                                "type": "uint128",
                                                "value": {
                                                    "current": "571284903233224000",
                                                    "prev": "0",
                                                    "typeTag": 1
                                                }
                                            },
                                            {
                                                "name": "tokensOwed1",
                                                "type": "uint128",
                                                "value": {
                                                    "current": "5205674792468274",
                                                    "prev": "0",
                                                    "typeTag": 1
                                                }
                                            }
                                        ],
                                        "typeTag": 3
                                    }
                                }
                            ],
                            "typeTag": 4
                        }
                    }
                ]
            }
        ]
    }
}