{
    "balance_change": {
        "balanceChanges": [
            {
                "account": "0x571f71b591f99d15c1041d4ba1e7abc9c9b94f49",
                "assets": [
                    {
                        "address": "0x6ef77d991eb5306e9f235abc0cc65925da398ad0",
                        "amount": "696.303",
                        "iconUrl": "",
                        "isERC1155": false,
                        "isERC721": false,
                        "sign": false,
                        "value": ""
                    }
                ]
            },
            {
                "account": "0xe3e0decb58c4451d6b9a8886a8f06d396538aec2",
                "assets": [
                    {
                        "address": "0x6ef77d991eb5306e9f235abc0cc65925da398ad0",
                        "amount": "696.303",
                        "iconUrl": "",
                        "isERC1155": false,
                        "isERC721": false,
                        "sign": true,
                        "value": ""
                    }
                ]
            }
        ]
    },
    "profile": {
        "basic_info": {
            "baseFee": "",
            "blockNumber": 8442391,
            "callData": "0xa9059cbb000000000000000000000000e3e0decb58c4451d6b9a8886a8f06d396538aec2000000000000000000000000000000000000000000000025bf2531541ed18000",
            "debugEnable": true,
            "errorInfo": "",
            "eventCount": 1,
            "feeRecipient": "0xea674fdde714fd979de3edf0f56aa9716b898ec8",
            "formatValue": "0",
            "gasLimit": 75192,
            "gasPrice": "20",
            "gasUsed": 37596,
            "intTxnCount": 0,
            "internalRevert": false,
            "internalRevertMessage": "",
            "isContractCreation": false,
            "isFlashloan": false,
            "maxFee": "",
            "nonce": 57318,
            "overwritedBlockNumber": -1,
            "priorityFee": "",
            "receiver": "0x6ef77d991eb5306e9f235abc0cc65925da398ad0",
            "revertMessage": "",
            "sender": "0x571f71b591f99d15c1041d4ba1e7abc9c9b94f49",
            "simulationEnable": true,
            "sourceTxnHash": "0x5b92f4105863f99f491a29558913a34f3110a77d04c680b391792323b0b3f434",
            "status": true,
            "timestamp": "2019-08-29T02:25:52Z",
            "transactionFee": "0.00075192",
            "txnHash": "0x5b92f4105863f99f491a29558913a34f3110a77d04c680b391792323b0b3f434",
            "txnIndex": 53,
            "type": 0,
            "value": "0"
        },
        "fund_flow": [
            {
                "amount": "696.303",
                "from": "0x571f71b591f99d15c1041d4ba1e7abc9c9b94f49",
                "id": 1,
                "isERC1155": false,
                "isERC721": false,
                "isReverted": false,
                "order": 1,
                "to": "0xe3e0decb58c4451d6b9a8886a8f06d396538aec2",
                "token": "0x6ef77d991eb5306e9f235abc0cc65925da398ad0"
            }
        ],
        "token_infos": [
            {
                "address": "0x6ef77d991eb5306e9f235abc0cc65925da398ad0",
                "decimals": 18
            },
            {
                "address": "0xc02aaa39b223fe8d0a0e5c4f27ead9083c756cc2",
                "decimals": 18
            },
            {
                "address": "0xeeeeeeeeeeeeeeeeeeeeeeeeeeeeeeeeeeeeeeee",
                "decimals": 18
            }
        ]
    },
    "address_label": {
        "labels": [
            {
                "address": "0x0000000000000000000000000000000000000004",
                "label": "Precompiled"
            },
            {
                "address": "0xeeeeeeeeeeeeeeeeeeeeeeeeeeeeeeeeeeeeeeee",
                "label": "Ether"
            },
            {
                "address": "0x6ef77d991eb5306e9f235abc0cc65925da398ad0",
                "label": "Master Mix Token (MMT)"
            },
            {
                "address": "0x0000000000000000000000000000000000000001",
                "label": "Precompiled"
            },
            {
                "address": "0x0000000000000000000000000000000000000002",
                "label": "Precompiled"
            },
            {
                "address": "0x0000000000000000000000000000000000000003",
                "label": "Precompiled"
            }
        ]
    },
    "trace": {
        "accountLabels": null,
        "dataMap": {
            "-1": {
                "invocation": {
                    "address": "0x571f71b591f99d15c1041d4ba1e7abc9c9b94f49",
                    "callData": "",
                    "decodedMethod": null,
                    "errorInfo": "",
                    "fromAddress": "",
                    "gasUsed": 0,
                    "id": -1,
                    "methodDecoded": false,
                    "operation": "",
                    "output": "",
                    "revert": false,
                    "revertMessage": "",
                    "selector": "",
                    "status": false,
                    "value": ""
                },
                "nodeType": 0
            },
            "0": {
                "invocation": {
                    "address": "0x6ef77d991eb5306e9f235abc0cc65925da398ad0",
                    "callData": "0x000000000000000000000000e3e0decb58c4451d6b9a8886a8f06d396538aec2000000000000000000000000000000000000000000000025bf2531541ed18000",
                    "decodedMethod": {
                        "callParams": [
                            {
                                "name": "_to",
                                "type": "address",
                                "value": "0xe3e0decb58c4451d6b9a8886a8f06d396538aec2"
                            },
                            {
                                "decimalAvailable": true,
                                "name": "_value",
                                "type": "uint256",
                                "value": "696,303,000,000,000,000,000"
                            }
                        ],
                        "constructorArguments": "",
                        "name": "transfer",
                        "returnParams": [
                            {
                                "name": "success",
                                "type": "bool",
                                "value": true
                            }
                        ],
                        "signature": "transfer(address,uint256)"
                    },
                    "errorInfo": "",
                    "fromAddress": "0x571f71b591f99d15c1041d4ba1e7abc9c9b94f49",
                    "gasUsed": 37596,
                    "id": 0,
                    "methodDecoded": true,
                    "operation": "CALL",
                    "output": "0x0000000000000000000000000000000000000000000000000000000000000001",
                    "revert": false,
                    "revertMessage": "",
                    "selector": "0xa9059cbb",
                    "status": true,
                    "value": "0"
                },
                "nodeType": 0
            },
            "1": {
                "event": {
                    "contract": "0x6ef77d991eb5306e9f235abc0cc65925da398ad0",
                    "decodedLog": {
                        "name": "Transfer",
                        "params": [
                            {
                                "name": "from",
                                "type": "address",
                                "value": "0x571f71b591f99d15c1041d4ba1e7abc9c9b94f49"
                            },
                            {
                                "name": "to",
                                "type": "address",
                                "value": "0xe3e0decb58c4451d6b9a8886a8f06d396538aec2"
                            },
                            {
                                "decimalAvailable": true,
                                "name": "value",
                                "type": "uint256",
                                "value": "696,303,000,000,000,000,000"
                            }
                        ],
                        "signature": "Transfer(address,address,uint256)"
                    },
                    "id": 1,
                    "logData": "0x000000000000000000000000000000000000000000000025bf2531541ed18000",
                    "logDecoded": true,
                    "operation": "EVENT",
                    "revert": false,
                    "status": true,
                    "topics": [
                        "0xddf252ad1be2c89b69c2b068fc378daa952ba7f163c4a11628f55a4df523b3ef",
                        "0x000000000000000000000000571f71b591f99d15c1041d4ba1e7abc9c9b94f49",
                        "0x000000000000000000000000e3e0decb58c4451d6b9a8886a8f06d396538aec2"
                    ]
                },
                "nodeType": 1
            }
        },
        "gasFlame": [
            {
                "children": [
                    {
                        "children": [
                            {
                                "children": [],
                                "depth": 0,
                                "name": "Initial Gas",
                                "value": 23320
                            },
                            {
                                "children": [],
                                "depth": 0,
                                "name": "Executed Gas",
                                "value": 14276
                            }
                        ],
                        "depth": -1,
                        "name": "Actual Gas Used",
                        "value": 37596
                    },
                    {
                        "children": [],
                        "depth": -1,
                        "name": "Refunded Gas",
                        "value": 0
                    }
                ],
                "depth": -2,
                "name": "Total Gas",
                "value": 37596
            }
        ],
        "isConfirmed": true,
        "mainTrace": [
            {
                "children": [
                    {
                        "children": [
                            {
                                "children": [],
                                "depth": 1,
                                "id": 1,
                                "order": 1
                            }
                        ],
                        "depth": 0,
                        "id": 0,
                        "order": 0
                    }
                ],
                "depth": -1,
                "id": -1,
                "order": -1
            }
        ],
        "mainTraceNodeCount": 2,
        "parentIdMap": {
            "0": -1,
            "1": 0
        },
        "tidyTrace": [
            {
                "children": [
                    {
                        "children": [
                            {
                                "children": [],
                                "depth": 1,
                                "id": 1,
                                "order": 1
                            }
                        ],
                        "depth": 0,
                        "id": 0,
                        "order": 0
                    }
                ],
                "depth": -1,
                "id": -1,
                "order": -1
            }
        ],
        "tidyTraceNodeCount": 2
    },
    "state_change": {
        "stateChanges": [
            {
                "address": "0x6ef77d991eb5306e9f235abc0cc65925da398ad0",
                "erc": "ERC-20",
                "slots": [
                    {
                        "current": "0x00000000000000000000000000000000000000000001c57c0ca29586c44cf400",
                        "key": "0x6a164fb734e432e36252054abb249ba4caceec2e2eb4e58ae3e5d030cb2a8420",
                        "prev": "0x00000000000000000000000000000000000000000001c5a1cbc7c6dae31e7400"
                    },
                    {
                        "current": "0x000000000000000000000000000000000000000000000cf5361498babef38000",
                        "key": "0x49d609e243c3d748ef03728c36e3cacac3b3e62ee5e4fc43d5932356f27705f6",
                        "prev": "0x000000000000000000000000000000000000000000000ccf76ef6766a0220000"
                    }
                ],
                "storageVariables": [
                    {
                        "name": "balanceOf",
                        "type": "mapping(address => uint256)",
                        "value": {
                            "pairs": [
                                {
                                    "key": "0x571f71b591f99d15c1041d4ba1e7abc9c9b94f49",
                                    "value": {
                                        "current": "2141520323459570000000000",
                                        "prev": "2142216626459570000000000",
                                        "typeTag": 1
                                    }
                                },
                                {
                                    "key": "0xe3e0decb58c4451d6b9a8886a8f06d396538aec2",
                                    "value": {
                                        "current": "61191747000000000000000",
                                        "prev": "60495444000000000000000",
                                        "typeTag": 1
                                    }
                                }
                            ],
                            "typeTag": 4
                        }
                    }
                ]
            }
        ]
    }
}