{
    "balance_change": {
        "balanceChanges": [
            {
                "account": "0x989fcbc46845a290e971a6303ef3753fb039d8d5",
                "assets": [
                    {
                        "address": "0xe760a89967d8c7fa638eebfc15a77ba107674021",
                        "amount": "229",
                        "iconUrl": "",
                        "isERC1155": false,
                        "isERC721": false,
                        "sign": false,
                        "value": ""
                    }
                ]
            },
            {
                "account": "0xe6ee3d4c3dd4295cf691d2c4549973f367922055",
                "assets": [
                    {
                        "address": "0xe760a89967d8c7fa638eebfc15a77ba107674021",
                        "amount": "229",
                        "iconUrl": "",
                        "isERC1155": false,
                        "isERC721": false,
                        "sign": true,
                        "value": ""
                    }
                ]
            }
        ]
    },
    "profile": {
        "basic_info": {
            "baseFee": "",
            "blockNumber": 6975925,
            "callData": "0xa9059cbb000000000000000000000000e6ee3d4c3dd4295cf691d2c4549973f36792205500000000000000000000000000000000000000000000000c6a036eb4bc740000",
            "debugEnable": true,
            "errorInfo": "",
            "eventCount": 1,
            "feeRecipient": "0xb2930b35844a230f00e51431acae96fe543a0347",
            "formatValue": "0",
            "gasLimit": 52251,
            "gasPrice": "1.7",
            "gasUsed": 51635,
            "intTxnCount": 0,
            "internalRevert": false,
            "internalRevertMessage": "",
            "isContractCreation": false,
            "isFlashloan": false,
            "maxFee": "",
            "nonce": 11410,
            "overwritedBlockNumber": -1,
            "priorityFee": "",
            "receiver": "0xe760a89967d8c7fa638eebfc15a77ba107674021",
            "revertMessage": "",
            "sender": "0x989fcbc46845a290e971a6303ef3753fb039d8d5",
            "simulationEnable": true,
            "sourceTxnHash": "0x5b7c3eb3154f6e39c98ae0059a195b7bdf964c315018739926276f6e06615836",
            "status": true,
            "timestamp": "2018-12-29T20:39:29Z",
            "transactionFee": "0.0000877795",
            "txnHash": "0x5b7c3eb3154f6e39c98ae0059a195b7bdf964c315018739926276f6e06615836",
            "txnIndex": 47,
            "type": 0,
            "value": "0"
        },
        "fund_flow": [
            {
                "amount": "229",
                "from": "0x989fcbc46845a290e971a6303ef3753fb039d8d5",
                "id": 1,
                "isERC1155": false,
                "isERC721": false,
                "isReverted": false,
                "order": 1,
                "to": "0xe6ee3d4c3dd4295cf691d2c4549973f367922055",
                "token": "0xe760a89967d8c7fa638eebfc15a77ba107674021"
            }
        ],
        "token_infos": [
            {
                "address": "0xc02aaa39b223fe8d0a0e5c4f27ead9083c756cc2",
                "decimals": 18
            },
            {
                "address": "0xe760a89967d8c7fa638eebfc15a77ba107674021",
                "decimals": 18
            },
            {
                "address": "0xeeeeeeeeeeeeeeeeeeeeeeeeeeeeeeeeeeeeeeee",
                "decimals": 18
            }
        ]
    },
    "address_label": {
        "labels": [
            {
                "address": "0xeeeeeeeeeeeeeeeeeeeeeeeeeeeeeeeeeeeeeeee",
                "label": "Ether"
            },
            {
                "address": "0xe760a89967d8c7fa638eebfc15a77ba107674021",
                "label": "Ecex Exchange: ZIG Token"
            },
            {
                "address": "0x989fcbc46845a290e971a6303ef3753fb039d8d5",
                "label": "Ecex Exchange: Deployer"
            },
            {
                "address": "0x0000000000000000000000000000000000000001",
                "label": "Precompiled"
            },
            {
                "address": "0x0000000000000000000000000000000000000002",
                "label": "Precompiled"
            },
            {
                "address": "0x0000000000000000000000000000000000000003",
                "label": "Precompiled"
            },
            {
                "address": "0x0000000000000000000000000000000000000004",
                "label": "Precompiled"
            }
        ]
    },
    "trace": {
        "accountLabels": null,
        "dataMap": {
            "-1": {
                "invocation": {
                    "address": "0x989fcbc46845a290e971a6303ef3753fb039d8d5",
                    "callData": "",
                    "decodedMethod": null,
                    "errorInfo": "",
                    "fromAddress": "",
                    "gasUsed": 0,
                    "id": -1,
                    "methodDecoded": false,
                    "operation": "",
                    "output": "",
                    "revert": false,
                    "revertMessage": "",
                    "selector": "",
                    "status": false,
                    "value": ""
                },
                "nodeType": 0
            },
            "0": {
                "invocation": {
                    "address": "0xe760a89967d8c7fa638eebfc15a77ba107674021",
                    "callData": "0x000000000000000000000000e6ee3d4c3dd4295cf691d2c4549973f36792205500000000000000000000000000000000000000000000000c6a036eb4bc740000",
                    "decodedMethod": {
                        "callParams": [
                            {
                                "name": "_to",
                                "type": "address",
                                "value": "0xe6ee3d4c3dd4295cf691d2c4549973f367922055"
                            },
                            {
                                "decimalAvailable": true,
                                "name": "_value",
                                "type": "uint256",
                                "value": "229,000,000,000,000,000,000"
                            }
                        ],
                        "constructorArguments": "",
                        "name": "transfer",
                        "returnParams": [
                            {
                                "name": "success",
                                "type": "bool",
                                "value": true
                            }
                        ],
                        "signature": "transfer(address,uint256)"
                    },
                    "errorInfo": "",
                    "fromAddress": "0x989fcbc46845a290e971a6303ef3753fb039d8d5",
                    "gasUsed": 51635,
                    "id": 0,
                    "methodDecoded": true,
                    "operation": "CALL",
                    "output": "0x0000000000000000000000000000000000000000000000000000000000000001",
                    "revert": false,
                    "revertMessage": "",
                    "selector": "0xa9059cbb",
                    "status": true,
                    "value": "0"
                },
                "nodeType": 0
            },
            "1": {
                "event": {
                    "contract": "0xe760a89967d8c7fa638eebfc15a77ba107674021",
                    "decodedLog": {
                        "name": "Transfer",
                        "params": [
                            {
                                "name": "_from",
                                "type": "address",
                                "value": "0x989fcbc46845a290e971a6303ef3753fb039d8d5"
                            },
                            {
                                "name": "_to",
                                "type": "address",
                                "value": "0xe6ee3d4c3dd4295cf691d2c4549973f367922055"
                            },
                            {
                                "decimalAvailable": true,
                                "name": "_value",
                                "type": "uint256",
                                "value": "229,000,000,000,000,000,000"
                            }
                        ],
                        "signature": "Transfer(address,address,uint256)"
                    },
                    "id": 1,
                    "logData": "0x00000000000000000000000000000000000000000000000c6a036eb4bc740000",
                    "logDecoded": true,
                    "operation": "EVENT",
                    "revert": false,
                    "status": true,
                    "topics": [
                        "0xddf252ad1be2c89b69c2b068fc378daa952ba7f163c4a11628f55a4df523b3ef",
                        "0x000000000000000000000000989fcbc46845a290e971a6303ef3753fb039d8d5",
                        "0x000000000000000000000000e6ee3d4c3dd4295cf691d2c4549973f367922055"
                    ]
                },
                "nodeType": 1
            }
        },
        "gasFlame": [
            {
                "children": [
                    {
                        "children": [
                            {
                                "children": [],
                                "depth": 0,
                                "name": "Initial Gas",
                                "value": 23256
                            },
                            {
                                "children": [],
                                "depth": 0,
                                "name": "Executed Gas",
                                "value": 28379
                            }
                        ],
                        "depth": -1,
                        "name": "Actual Gas Used",
                        "value": 51635
                    },
                    {
                        "children": [],
                        "depth": -1,
                        "name": "Refunded Gas",
                        "value": 0
                    }
                ],
                "depth": -2,
                "name": "Total Gas",
                "value": 51635
            }
        ],
        "isConfirmed": true,
        "mainTrace": [
            {
                "children": [
                    {
                        "children": [
                            {
                                "children": [],
                                "depth": 1,
                                "id": 1,
                                "order": 1
                            }
                        ],
                        "depth": 0,
                        "id": 0,
                        "order": 0
                    }
                ],
                "depth": -1,
                "id": -1,
                "order": -1
            }
        ],
        "mainTraceNodeCount": 2,
        "parentIdMap": {
            "0": -1,
            "1": 0
        },
        "tidyTrace": [
            {
                "children": [
                    {
                        "children": [
                            {
                                "children": [],
                                "depth": 1,
                                "id": 1,
                                "order": 1
                            }
                        ],
                        "depth": 0,
                        "id": 0,
                        "order": 0
                    }
                ],
                "depth": -1,
                "id": -1,
                "order": -1
            }
        ],
        "tidyTraceNodeCount": 2
    },
    "state_change": {
        "stateChanges": [
            {
                "address": "0xe760a89967d8c7fa638eebfc15a77ba107674021",
                "erc": "ERC-20",
                "slots": [
                    {
                        "current": "0x00000000000000000000000000000000000000000054170e9e2225a4fb3a25ce",
                        "key": "0xa9045ddfb8d2ff7a7416a61754d747b93b4838c837c0aefa9a1549066a4e581a",
                        "prev": "0x00000000000000000000000000000000000000000054171b08259459b7ae25ce"
                    },
                    {
                        "current": "0x00000000000000000000000000000000000000000000000c6a036eb4bc740000",
                        "key": "0xf8e6486bbe2db8d470b3bda83b72ad415576078c691da433839df1dba76d90ce",
                        "prev": "0x0000000000000000000000000000000000000000000000000000000000000000"
                    }
                ],
                "storageVariables": [
                    {
                        "name": "balances",
                        "type": "mapping(address => uint256)",
                        "value": {
                            "pairs": [
                                {
                                    "key": "0x989fcbc46845a290e971a6303ef3753fb039d8d5",
                                    "value": {
                                        "current": "101658652925863282169488846",
                                        "prev": "101658881925863282169488846",
                                        "typeTag": 1
                                    }
                                },
                                {
                                    "key": "0xe6ee3d4c3dd4295cf691d2c4549973f367922055",
                                    "value": {
                                        "current": "229000000000000000000",
                                        "prev": "0",
                                        "typeTag": 1
                                    }
                                }
                            ],
                            "typeTag": 4
                        }
                    }
                ]
            }
        ]
    }
}