{
    "balance_change": {
        "balanceChanges": [
            {
                "account": "0x000408a04d1a80cf3a2e1c8e6bbe6b144fe50a01",
                "assets": [
                    {
                        "address": "0xeeeeeeeeeeeeeeeeeeeeeeeeeeeeeeeeeeeeeeee",
                        "amount": "0.006",
                        "iconUrl": "https://assets.blocksec.com/image/1663669189317-3.png",
                        "isERC1155": false,
                        "isERC721": false,
                        "sign": false,
                        "value": ""
                    }
                ]
            },
            {
                "account": "0x3fdc6b0263f9b948d4901a892378efab4be7ac1b",
                "assets": [
                    {
                        "address": "0xeeeeeeeeeeeeeeeeeeeeeeeeeeeeeeeeeeeeeeee",
                        "amount": "0.006",
                        "iconUrl": "https://assets.blocksec.com/image/1663669189317-3.png",
                        "isERC1155": false,
                        "isERC721": false,
                        "sign": true,
                        "value": ""
                    }
                ]
            }
        ]
    },
    "profile": {
        "basic_info": {
            "baseFee": "",
            "blockNumber": 5619956,
            "callData": "0x1a6952300000000000000000000000003fdc6b0263f9b948d4901a892378efab4be7ac1b",
            "debugEnable": true,
            "errorInfo": "",
            "eventCount": 0,
            "feeRecipient": "0x5a0b54d5dc17e0aadc383d2db43b0a0d3e029c4c",
            "formatValue": "0.006",
            "gasLimit": 65168,
            "gasPrice": "14.310150144",
            "gasUsed": 30327,
            "intTxnCount": 1,
            "internalRevert": false,
            "internalRevertMessage": "",
            "isContractCreation": false,
            "isFlashloan": false,
            "maxFee": "",
            "nonce": 803,
            "overwritedBlockNumber": -1,
            "priorityFee": "",
            "receiver": "0x0b95993a39a363d99280ac950f5e4536ab5c5566",
            "revertMessage": "",
            "sender": "0x000408a04d1a80cf3a2e1c8e6bbe6b144fe50a01",
            "simulationEnable": true,
            "sourceTxnHash": "0x5cc684861fab18a676cec05714ac221993784c20efd63d83a17527cd468a2147",
            "status": true,
            "timestamp": "2018-05-15T21:26:00Z",
            "transactionFee": "0.000433983923417088",
            "txnHash": "0x5cc684861fab18a676cec05714ac221993784c20efd63d83a17527cd468a2147",
            "txnIndex": 2,
            "type": 0,
            "value": "6000000000000000"
        },
        "fund_flow": [
            {
                "amount": "0.006",
                "from": "0x000408a04d1a80cf3a2e1c8e6bbe6b144fe50a01",
                "id": 1,
                "isERC1155": false,
                "isERC721": false,
                "isReverted": false,
                "order": 1,
                "to": "0x0b95993a39a363d99280ac950f5e4536ab5c5566",
                "token": "0xeeeeeeeeeeeeeeeeeeeeeeeeeeeeeeeeeeeeeeee"
            },
            {
                "amount": "0.006",
                "from": "0x0b95993a39a363d99280ac950f5e4536ab5c5566",
                "id": 2,
                "isERC1155": false,
                "isERC721": false,
                "isReverted": false,
                "order": 2,
                "to": "0x3fdc6b0263f9b948d4901a892378efab4be7ac1b",
                "token": "0xeeeeeeeeeeeeeeeeeeeeeeeeeeeeeeeeeeeeeeee"
            }
        ],
        "token_infos": [
            {
                "address": "0xc02aaa39b223fe8d0a0e5c4f27ead9083c756cc2",
                "decimals": 18
            },
            {
                "address": "0xeeeeeeeeeeeeeeeeeeeeeeeeeeeeeeeeeeeeeeee",
                "decimals": 18
            }
        ]
    },
    "address_label": {
        "labels": [
            {
                "address": "0x0000000000000000000000000000000000000004",
                "label": "Precompiled"
            },
            {
                "address": "0xeeeeeeeeeeeeeeeeeeeeeeeeeeeeeeeeeeeeeeee",
                "label": "Ether"
            },
            {
                "address": "0x0b95993a39a363d99280ac950f5e4536ab5c5566",
                "label": "Binance: Contract"
            },
            {
                "address": "0x3fdc6b0263f9b948d4901a892378efab4be7ac1b",
                "label": "BINANCE"
            },
            {
                "address": "0x0000000000000000000000000000000000000001",
                "label": "Precompiled"
            },
            {
                "address": "0x0000000000000000000000000000000000000002",
                "label": "Precompiled"
            },
            {
                "address": "0x0000000000000000000000000000000000000003",
                "label": "Precompiled"
            }
        ]
    },
    "trace": {
        "accountLabels": null,
        "dataMap": {
            "-1": {
                "invocation": {
                    "address": "0x000408a04d1a80cf3a2e1c8e6bbe6b144fe50a01",
                    "callData": "",
                    "decodedMethod": null,
                    "errorInfo": "",
                    "fromAddress": "",
                    "gasUsed": 0,
                    "id": -1,
                    "methodDecoded": false,
                    "operation": "",
                    "output": "",
                    "revert": false,
                    "revertMessage": "",
                    "selector": "",
                    "status": false,
                    "value": ""
                },
                "nodeType": 0
            },
            "0": {
                "invocation": {
                    "address": "0x0b95993a39a363d99280ac950f5e4536ab5c5566",
                    "callData": "0x0000000000000000000000003fdc6b0263f9b948d4901a892378efab4be7ac1b",
                    "decodedMethod": {
                        "callParams": [
                            {
                                "name": "wallet",
                                "type": "address",
                                "value": "0x3fdc6b0263f9b948d4901a892378efab4be7ac1b"
                            }
                        ],
                        "constructorArguments": "",
                        "name": "transfer",
                        "returnParams": [],
                        "signature": "transfer(address)"
                    },
                    "errorInfo": "",
                    "fromAddress": "0x000408a04d1a80cf3a2e1c8e6bbe6b144fe50a01",
                    "gasUsed": 30327,
                    "id": 0,
                    "methodDecoded": true,
                    "operation": "CALL",
                    "output": "",
                    "revert": false,
                    "revertMessage": "",
                    "selector": "0x1a695230",
                    "status": true,
                    "value": "0.006"
                },
                "nodeType": 0
            },
            "1": {
                "invocation": {
                    "address": "0x3fdc6b0263f9b948d4901a892378efab4be7ac1b",
                    "callData": "0x",
                    "decodedMethod": null,
                    "errorInfo": "",
                    "fromAddress": "0x0b95993a39a363d99280ac950f5e4536ab5c5566",
                    "gasUsed": 0,
                    "id": 1,
                    "methodDecoded": false,
                    "operation": "CALL",
                    "output": "",
                    "revert": false,
                    "revertMessage": "",
                    "selector": "fallback",
                    "status": true,
                    "value": "0.006"
                },
                "nodeType": 0
            }
        },
        "gasFlame": [
            {
                "children": [
                    {
                        "children": [
                            {
                                "children": [],
                                "depth": 0,
                                "name": "Initial Gas",
                                "value": 22680
                            },
                            {
                                "children": [
                                    {
                                        "children": [],
                                        "depth": 1,
                                        "name": "fallback",
                                        "value": 0
                                    }
                                ],
                                "depth": 0,
                                "name": "Executed Gas",
                                "value": 7647
                            }
                        ],
                        "depth": -1,
                        "name": "Actual Gas Used",
                        "value": 30327
                    },
                    {
                        "children": [],
                        "depth": -1,
                        "name": "Refunded Gas",
                        "value": 0
                    }
                ],
                "depth": -2,
                "name": "Total Gas",
                "value": 30327
            }
        ],
        "isConfirmed": true,
        "mainTrace": [
            {
                "children": [
                    {
                        "children": [
                            {
                                "children": [],
                                "depth": 1,
                                "id": 1,
                                "order": 1
                            }
                        ],
                        "depth": 0,
                        "id": 0,
                        "order": 0
                    }
                ],
                "depth": -1,
                "id": -1,
                "order": -1
            }
        ],
        "mainTraceNodeCount": 2,
        "parentIdMap": {
            "0": -1,
            "1": 0
        },
        "tidyTrace": [
            {
                "children": [
                    {
                        "children": [
                            {
                                "children": [],
                                "depth": 1,
                                "id": 1,
                                "order": 1
                            }
                        ],
                        "depth": 0,
                        "id": 0,
                        "order": 0
                    }
                ],
                "depth": -1,
                "id": -1,
                "order": -1
            }
        ],
        "tidyTraceNodeCount": 2
    },
    "state_change": {
        "stateChanges": []
    }
}