{
    "balance_change": {
        "balanceChanges": [
            {
                "account": "0x2029dfce061b17a61969aab57ea0553056249291",
                "assets": [
                    {
                        "address": "0x0144b7e66993c6bfab85581e8601f96bfe50c9df",
                        "amount": "26,049",
                        "iconUrl": "",
                        "isERC1155": false,
                        "isERC721": false,
                        "sign": true,
                        "value": ""
                    },
                    {
                        "address": "0xeeeeeeeeeeeeeeeeeeeeeeeeeeeeeeeeeeeeeeee",
                        "amount": "0.27",
                        "iconUrl": "https://assets.blocksec.com/image/1663669189317-3.png",
                        "isERC1155": false,
                        "isERC721": false,
                        "sign": false,
                        "value": ""
                    }
                ]
            },
            {
                "account": "0x0000000000000000000000000000000000000000",
                "assets": [
                    {
                        "address": "0x0144b7e66993c6bfab85581e8601f96bfe50c9df",
                        "amount": "26,049",
                        "iconUrl": "",
                        "isERC1155": false,
                        "isERC721": false,
                        "sign": false,
                        "value": ""
                    }
                ]
            },
            {
                "account": "0xab1ca341b9def984b565f385c593cf969324af5c",
                "assets": [
                    {
                        "address": "0xeeeeeeeeeeeeeeeeeeeeeeeeeeeeeeeeeeeeeeee",
                        "amount": "0.27",
                        "iconUrl": "https://assets.blocksec.com/image/1663669189317-3.png",
                        "isERC1155": false,
                        "isERC721": false,
                        "sign": true,
                        "value": ""
                    }
                ]
            }
        ]
    },
    "profile": {
        "basic_info": {
            "baseFee": "69.894794567",
            "blockNumber": 14451228,
            "callData": "0xa0712d680000000000000000000000000000000000000000000000000000000000000003",
            "debugEnable": true,
            "errorInfo": "",
            "eventCount": 10,
            "feeRecipient": "0xea674fdde714fd979de3edf0f56aa9716b898ec8",
            "formatValue": "0.27",
            "gasLimit": 1309350,
            "gasPrice": "71.894794567",
            "gasUsed": 1065558,
            "intTxnCount": 16,
            "internalRevert": false,
            "internalRevertMessage": "",
            "isContractCreation": false,
            "isFlashloan": false,
            "maxFee": "115.558039962",
            "nonce": 220,
            "overwritedBlockNumber": -1,
            "priorityFee": "2",
            "receiver": "0x67401149e3e88b10dd92821eb6302f4dee8191bc",
            "revertMessage": "",
            "sender": "0x2029dfce061b17a61969aab57ea0553056249291",
            "simulationEnable": true,
            "sourceTxnHash": "0x5c855b8f1a7518b693c06201002ce2c111c5199ca4e46ad620af3b408fd7b097",
            "status": true,
            "timestamp": "2022-03-24T20:53:00Z",
            "transactionFee": "0.076608073509223386",
            "txnHash": "0x5c855b8f1a7518b693c06201002ce2c111c5199ca4e46ad620af3b408fd7b097",
            "txnIndex": 115,
            "type": 2,
            "value": "270000000000000000"
        },
        "fund_flow": [
            {
                "amount": "0.27",
                "from": "0x2029dfce061b17a61969aab57ea0553056249291",
                "id": 1,
                "isERC1155": false,
                "isERC721": false,
                "isReverted": false,
                "order": 1,
                "to": "0x67401149e3e88b10dd92821eb6302f4dee8191bc",
                "token": "0xeeeeeeeeeeeeeeeeeeeeeeeeeeeeeeeeeeeeeeee"
            },
            {
                "amount": "0.27",
                "from": "0x67401149e3e88b10dd92821eb6302f4dee8191bc",
                "id": 2,
                "isERC1155": false,
                "isERC721": false,
                "isReverted": false,
                "order": 2,
                "to": "0xab1ca341b9def984b565f385c593cf969324af5c",
                "token": "0xeeeeeeeeeeeeeeeeeeeeeeeeeeeeeeeeeeeeeeee"
            },
            {
                "amount": "26,049",
                "from": "0x0000000000000000000000000000000000000000",
                "id": 3,
                "isERC1155": false,
                "isERC721": false,
                "isReverted": false,
                "order": 3,
                "to": "0x67401149e3e88b10dd92821eb6302f4dee8191bc",
                "token": "0x0144b7e66993c6bfab85581e8601f96bfe50c9df"
            },
            {
                "amount": "26,049",
                "from": "0x67401149e3e88b10dd92821eb6302f4dee8191bc",
                "id": 4,
                "isERC1155": false,
                "isERC721": false,
                "isReverted": false,
                "order": 4,
                "to": "0x2029dfce061b17a61969aab57ea0553056249291",
                "token": "0x0144b7e66993c6bfab85581e8601f96bfe50c9df"
            }
        ],
        "token_infos": [
            {
                "address": "0x0144b7e66993c6bfab85581e8601f96bfe50c9df",
                "decimals": -1
            },
            {
                "address": "0xc02aaa39b223fe8d0a0e5c4f27ead9083c756cc2",
                "decimals": 18
            },
            {
                "address": "0xeeeeeeeeeeeeeeeeeeeeeeeeeeeeeeeeeeeeeeee",
                "decimals": 18
            }
        ]
    },
    "address_label": {
        "labels": [
            {
                "address": "0x0000000000000000000000000000000000000004",
                "label": "Precompiled"
            },
            {
                "address": "0xeeeeeeeeeeeeeeeeeeeeeeeeeeeeeeeeeeeeeeee",
                "label": "Ether"
            },
            {
                "address": "0x67401149e3e88b10dd92821eb6302f4dee8191bc",
                "label": "MetaPunk: Minter"
            },
            {
                "address": "0x0144b7e66993c6bfab85581e8601f96bfe50c9df",
                "label": "MetaPunk (MP)"
            },
            {
                "address": "0xab1ca341b9def984b565f385c593cf969324af5c",
                "label": "Vault"
            },
            {
                "address": "0x0000000000000000000000000000000000000001",
                "label": "Precompiled"
            },
            {
                "address": "0x0000000000000000000000000000000000000002",
                "label": "Precompiled"
            },
            {
                "address": "0x0000000000000000000000000000000000000003",
                "label": "Precompiled"
            }
        ]
    },
    "trace": {
        "accountLabels": null,
        "dataMap": {
            "-1": {
                "invocation": {
                    "address": "0x2029dfce061b17a61969aab57ea0553056249291",
                    "callData": "",
                    "decodedMethod": null,
                    "errorInfo": "",
                    "fromAddress": "",
                    "gasUsed": 0,
                    "id": -1,
                    "methodDecoded": false,
                    "operation": "",
                    "output": "",
                    "revert": false,
                    "revertMessage": "",
                    "selector": "",
                    "status": false,
                    "value": ""
                },
                "nodeType": 0
            },
            "0": {
                "invocation": {
                    "address": "0x67401149e3e88b10dd92821eb6302f4dee8191bc",
                    "callData": "0x0000000000000000000000000000000000000000000000000000000000000003",
                    "decodedMethod": {
                        "callParams": [
                            {
                                "name": "_requestedAmount",
                                "type": "uint256",
                                "value": "3"
                            }
                        ],
                        "constructorArguments": "",
                        "name": "mint",
                        "returnParams": [],
                        "signature": "mint(uint256)"
                    },
                    "errorInfo": "",
                    "fromAddress": "0x2029dfce061b17a61969aab57ea0553056249291",
                    "gasUsed": 1065558,
                    "id": 0,
                    "methodDecoded": true,
                    "operation": "CALL",
                    "output": "",
                    "revert": false,
                    "revertMessage": "",
                    "selector": "0xa0712d68",
                    "status": true,
                    "value": "0.27"
                },
                "nodeType": 0
            },
            "1": {
                "invocation": {
                    "address": "0xab1ca341b9def984b565f385c593cf969324af5c",
                    "callData": "0x",
                    "decodedMethod": null,
                    "errorInfo": "",
                    "fromAddress": "0x67401149e3e88b10dd92821eb6302f4dee8191bc",
                    "gasUsed": 1405,
                    "id": 1,
                    "methodDecoded": false,
                    "operation": "CALL",
                    "output": "",
                    "revert": false,
                    "revertMessage": "",
                    "selector": "fallback",
                    "status": true,
                    "value": "0.27"
                },
                "nodeType": 0
            },
            "10": {
                "event": {
                    "contract": "0x0144b7e66993c6bfab85581e8601f96bfe50c9df",
                    "decodedLog": {
                        "name": "Transfer",
                        "params": [
                            {
                                "name": "_from",
                                "type": "address",
                                "value": "0x67401149e3e88b10dd92821eb6302f4dee8191bc"
                            },
                            {
                                "name": "_to",
                                "type": "address",
                                "value": "0x2029dfce061b17a61969aab57ea0553056249291"
                            },
                            {
                                "decimalAvailable": true,
                                "name": "_tokenId",
                                "type": "uint256",
                                "value": "8,682"
                            }
                        ],
                        "signature": "Transfer(address,address,uint256)"
                    },
                    "id": 10,
                    "logData": "0x00000000000000000000000000000000000000000000000000000000000021ea",
                    "logDecoded": true,
                    "operation": "EVENT",
                    "revert": false,
                    "status": true,
                    "topics": [
                        "0xddf252ad1be2c89b69c2b068fc378daa952ba7f163c4a11628f55a4df523b3ef",
                        "0x00000000000000000000000067401149e3e88b10dd92821eb6302f4dee8191bc",
                        "0x0000000000000000000000002029dfce061b17a61969aab57ea0553056249291"
                    ]
                },
                "nodeType": 1
            },
            "11": {
                "invocation": {
                    "address": "0x0144b7e66993c6bfab85581e8601f96bfe50c9df",
                    "callData": "0x00000000000000000000000000000000000000000000000000000000000021eb",
                    "decodedMethod": {
                        "callParams": [
                            {
                                "name": "_tokenId",
                                "type": "uint256",
                                "value": "8,683"
                            }
                        ],
                        "constructorArguments": "",
                        "name": "exists",
                        "returnParams": [
                            {
                                "name": "",
                                "type": "bool",
                                "value": false
                            }
                        ],
                        "signature": "exists(uint256)"
                    },
                    "errorInfo": "",
                    "fromAddress": "0x67401149e3e88b10dd92821eb6302f4dee8191bc",
                    "gasUsed": 2677,
                    "id": 11,
                    "methodDecoded": true,
                    "operation": "CALL",
                    "output": "0x0000000000000000000000000000000000000000000000000000000000000000",
                    "revert": false,
                    "revertMessage": "",
                    "selector": "0x4f558e79",
                    "status": true,
                    "value": "0"
                },
                "nodeType": 0
            },
            "12": {
                "invocation": {
                    "address": "0x0144b7e66993c6bfab85581e8601f96bfe50c9df",
                    "callData": "0x00000000000000000000000000000000000000000000000000000000000021eb00000000000000000000000000000000000000000000000000000000000021eb",
                    "decodedMethod": {
                        "callParams": [
                            {
                                "name": "_tokenId",
                                "type": "uint256",
                                "value": "8,683"
                            },
                            {
                                "name": "_punkId",
                                "type": "uint256",
                                "value": "8,683"
                            }
                        ],
                        "constructorArguments": "",
                        "name": "makeToken",
                        "returnParams": [],
                        "signature": "makeToken(uint256,uint256)"
                    },
                    "errorInfo": "",
                    "fromAddress": "0x67401149e3e88b10dd92821eb6302f4dee8191bc",
                    "gasUsed": 199711,
                    "id": 12,
                    "methodDecoded": true,
                    "operation": "CALL",
                    "output": "",
                    "revert": false,
                    "revertMessage": "",
                    "selector": "0xddd838df",
                    "status": true,
                    "value": "0"
                },
                "nodeType": 0
            },
            "13": {
                "invocation": {
                    "address": "0x67401149e3e88b10dd92821eb6302f4dee8191bc",
                    "callData": "0x00000000000000000000000000000000000000000000000000000000000021eb",
                    "decodedMethod": {
                        "callParams": [
                            {
                                "name": "",
                                "type": "uint256",
                                "value": "8,683"
                            }
                        ],
                        "constructorArguments": "",
                        "name": "punkIndexToAddress",
                        "returnParams": [
                            {
                                "name": "",
                                "type": "address",
                                "value": "0x0144b7e66993c6bfab85581e8601f96bfe50c9df"
                            }
                        ],
                        "signature": "punkIndexToAddress(uint256)"
                    },
                    "errorInfo": "",
                    "fromAddress": "0x0144b7e66993c6bfab85581e8601f96bfe50c9df",
                    "gasUsed": 481,
                    "id": 13,
                    "methodDecoded": true,
                    "operation": "CALL",
                    "output": "0x0000000000000000000000000144b7e66993c6bfab85581e8601f96bfe50c9df",
                    "revert": false,
                    "revertMessage": "",
                    "selector": "0x58178168",
                    "status": true,
                    "value": "0"
                },
                "nodeType": 0
            },
            "14": {
                "event": {
                    "contract": "0x0144b7e66993c6bfab85581e8601f96bfe50c9df",
                    "decodedLog": {
                        "name": "Transfer",
                        "params": [
                            {
                                "name": "_from",
                                "type": "address",
                                "value": "0x0000000000000000000000000000000000000000"
                            },
                            {
                                "name": "_to",
                                "type": "address",
                                "value": "0x67401149e3e88b10dd92821eb6302f4dee8191bc"
                            },
                            {
                                "decimalAvailable": true,
                                "name": "_tokenId",
                                "type": "uint256",
                                "value": "8,683"
                            }
                        ],
                        "signature": "Transfer(address,address,uint256)"
                    },
                    "id": 14,
                    "logData": "0x00000000000000000000000000000000000000000000000000000000000021eb",
                    "logDecoded": true,
                    "operation": "EVENT",
                    "revert": false,
                    "status": true,
                    "topics": [
                        "0xddf252ad1be2c89b69c2b068fc378daa952ba7f163c4a11628f55a4df523b3ef",
                        "0x0000000000000000000000000000000000000000000000000000000000000000",
                        "0x00000000000000000000000067401149e3e88b10dd92821eb6302f4dee8191bc"
                    ]
                },
                "nodeType": 1
            },
            "15": {
                "invocation": {
                    "address": "0x0144b7e66993c6bfab85581e8601f96bfe50c9df",
                    "callData": "0x00000000000000000000000000000000000000000000000000000000000021eb0000000000000000000000000000000000000000000000000000000000000040000000000000000000000000000000000000000000000000000000000000006168747470733a2f2f636c6f7564666c6172652d697066732e636f6d2f697066732f62616679626569687577797a79786d67686867626b356a767534726a7a77776f72626e766b666836626134706d337872786236696f766e677568712f3836383300000000000000000000000000000000000000000000000000000000000000",
                    "decodedMethod": {
                        "callParams": [
                            {
                                "name": "tokenId",
                                "type": "uint256",
                                "value": "8,683"
                            },
                            {
                                "name": "uri",
                                "type": "string",
                                "value": "https://cloudflare-ipfs.com/ipfs/bafybeihuwyzyxmghhgbk5jvu4rjzwworbnvkfh6ba4pm3xrxb6iovnguhq/8683"
                            }
                        ],
                        "constructorArguments": "",
                        "name": "seturi",
                        "returnParams": [],
                        "signature": "seturi(uint256,string)"
                    },
                    "errorInfo": "",
                    "fromAddress": "0x67401149e3e88b10dd92821eb6302f4dee8191bc",
                    "gasUsed": 112587,
                    "id": 15,
                    "methodDecoded": true,
                    "operation": "CALL",
                    "output": "",
                    "revert": false,
                    "revertMessage": "",
                    "selector": "0xbba25b7b",
                    "status": true,
                    "value": "0"
                },
                "nodeType": 0
            },
            "16": {
                "event": {
                    "contract": "0x67401149e3e88b10dd92821eb6302f4dee8191bc",
                    "decodedLog": {
                        "name": "MetaPunk2022Created",
                        "params": [
                            {
                                "name": "tokenId",
                                "type": "uint256",
                                "value": "8,683"
                            }
                        ],
                        "signature": "MetaPunk2022Created(uint256)"
                    },
                    "id": 16,
                    "logData": "0x00000000000000000000000000000000000000000000000000000000000021eb",
                    "logDecoded": true,
                    "operation": "EVENT",
                    "revert": false,
                    "status": true,
                    "topics": [
                        "0x5388e5304907434c979387c4b001c2bfd9bfaa91d7a8448bfc5c8f4d2228e167"
                    ]
                },
                "nodeType": 1
            },
            "17": {
                "invocation": {
                    "address": "0x0144b7e66993c6bfab85581e8601f96bfe50c9df",
                    "callData": "0x00000000000000000000000067401149e3e88b10dd92821eb6302f4dee8191bc0000000000000000000000002029dfce061b17a61969aab57ea055305624929100000000000000000000000000000000000000000000000000000000000021eb",
                    "decodedMethod": {
                        "callParams": [
                            {
                                "name": "_from",
                                "type": "address",
                                "value": "0x67401149e3e88b10dd92821eb6302f4dee8191bc"
                            },
                            {
                                "name": "_to",
                                "type": "address",
                                "value": "0x2029dfce061b17a61969aab57ea0553056249291"
                            },
                            {
                                "name": "_tokenId",
                                "type": "uint256",
                                "value": "8,683"
                            }
                        ],
                        "constructorArguments": "",
                        "name": "safeTransferFrom",
                        "returnParams": [],
                        "signature": "safeTransferFrom(address,address,uint256)"
                    },
                    "errorInfo": "",
                    "fromAddress": "0x67401149e3e88b10dd92821eb6302f4dee8191bc",
                    "gasUsed": 74741,
                    "id": 17,
                    "methodDecoded": true,
                    "operation": "CALL",
                    "output": "",
                    "revert": false,
                    "revertMessage": "",
                    "selector": "0x42842e0e",
                    "status": true,
                    "value": "0"
                },
                "nodeType": 0
            },
            "18": {
                "event": {
                    "contract": "0x0144b7e66993c6bfab85581e8601f96bfe50c9df",
                    "decodedLog": {
                        "name": "Transfer",
                        "params": [
                            {
                                "name": "_from",
                                "type": "address",
                                "value": "0x67401149e3e88b10dd92821eb6302f4dee8191bc"
                            },
                            {
                                "name": "_to",
                                "type": "address",
                                "value": "0x2029dfce061b17a61969aab57ea0553056249291"
                            },
                            {
                                "decimalAvailable": true,
                                "name": "_tokenId",
                                "type": "uint256",
                                "value": "8,683"
                            }
                        ],
                        "signature": "Transfer(address,address,uint256)"
                    },
                    "id": 18,
                    "logData": "0x00000000000000000000000000000000000000000000000000000000000021eb",
                    "logDecoded": true,
                    "operation": "EVENT",
                    "revert": false,
                    "status": true,
                    "topics": [
                        "0xddf252ad1be2c89b69c2b068fc378daa952ba7f163c4a11628f55a4df523b3ef",
                        "0x00000000000000000000000067401149e3e88b10dd92821eb6302f4dee8191bc",
                        "0x0000000000000000000000002029dfce061b17a61969aab57ea0553056249291"
                    ]
                },
                "nodeType": 1
            },
            "19": {
                "invocation": {
                    "address": "0x0144b7e66993c6bfab85581e8601f96bfe50c9df",
                    "callData": "0x00000000000000000000000000000000000000000000000000000000000021ec",
                    "decodedMethod": {
                        "callParams": [
                            {
                                "name": "_tokenId",
                                "type": "uint256",
                                "value": "8,684"
                            }
                        ],
                        "constructorArguments": "",
                        "name": "exists",
                        "returnParams": [
                            {
                                "name": "",
                                "type": "bool",
                                "value": false
                            }
                        ],
                        "signature": "exists(uint256)"
                    },
                    "errorInfo": "",
                    "fromAddress": "0x67401149e3e88b10dd92821eb6302f4dee8191bc",
                    "gasUsed": 2677,
                    "id": 19,
                    "methodDecoded": true,
                    "operation": "CALL",
                    "output": "0x0000000000000000000000000000000000000000000000000000000000000000",
                    "revert": false,
                    "revertMessage": "",
                    "selector": "0x4f558e79",
                    "status": true,
                    "value": "0"
                },
                "nodeType": 0
            },
            "2": {
                "event": {
                    "contract": "0xab1ca341b9def984b565f385c593cf969324af5c",
                    "decodedLog": {
                        "name": "PaymentReceived",
                        "params": [
                            {
                                "name": "from",
                                "type": "address",
                                "value": "0x67401149e3e88b10dd92821eb6302f4dee8191bc"
                            },
                            {
                                "name": "amount",
                                "type": "uint256",
                                "value": "270,000,000,000,000,000"
                            }
                        ],
                        "signature": "PaymentReceived(address,uint256)"
                    },
                    "id": 2,
                    "logData": "0x00000000000000000000000067401149e3e88b10dd92821eb6302f4dee8191bc00000000000000000000000000000000000000000000000003bf3b91c95b0000",
                    "logDecoded": true,
                    "operation": "EVENT",
                    "revert": false,
                    "status": true,
                    "topics": [
                        "0x6ef95f06320e7a25a04a175ca677b7052bdd97131872c2192525a629f51be770"
                    ]
                },
                "nodeType": 1
            },
            "20": {
                "invocation": {
                    "address": "0x0144b7e66993c6bfab85581e8601f96bfe50c9df",
                    "callData": "0x00000000000000000000000000000000000000000000000000000000000021ec00000000000000000000000000000000000000000000000000000000000021ec",
                    "decodedMethod": {
                        "callParams": [
                            {
                                "name": "_tokenId",
                                "type": "uint256",
                                "value": "8,684"
                            },
                            {
                                "name": "_punkId",
                                "type": "uint256",
                                "value": "8,684"
                            }
                        ],
                        "constructorArguments": "",
                        "name": "makeToken",
                        "returnParams": [],
                        "signature": "makeToken(uint256,uint256)"
                    },
                    "errorInfo": "",
                    "fromAddress": "0x67401149e3e88b10dd92821eb6302f4dee8191bc",
                    "gasUsed": 199711,
                    "id": 20,
                    "methodDecoded": true,
                    "operation": "CALL",
                    "output": "",
                    "revert": false,
                    "revertMessage": "",
                    "selector": "0xddd838df",
                    "status": true,
                    "value": "0"
                },
                "nodeType": 0
            },
            "21": {
                "invocation": {
                    "address": "0x67401149e3e88b10dd92821eb6302f4dee8191bc",
                    "callData": "0x00000000000000000000000000000000000000000000000000000000000021ec",
                    "decodedMethod": {
                        "callParams": [
                            {
                                "name": "",
                                "type": "uint256",
                                "value": "8,684"
                            }
                        ],
                        "constructorArguments": "",
                        "name": "punkIndexToAddress",
                        "returnParams": [
                            {
                                "name": "",
                                "type": "address",
                                "value": "0x0144b7e66993c6bfab85581e8601f96bfe50c9df"
                            }
                        ],
                        "signature": "punkIndexToAddress(uint256)"
                    },
                    "errorInfo": "",
                    "fromAddress": "0x0144b7e66993c6bfab85581e8601f96bfe50c9df",
                    "gasUsed": 481,
                    "id": 21,
                    "methodDecoded": true,
                    "operation": "CALL",
                    "output": "0x0000000000000000000000000144b7e66993c6bfab85581e8601f96bfe50c9df",
                    "revert": false,
                    "revertMessage": "",
                    "selector": "0x58178168",
                    "status": true,
                    "value": "0"
                },
                "nodeType": 0
            },
            "22": {
                "event": {
                    "contract": "0x0144b7e66993c6bfab85581e8601f96bfe50c9df",
                    "decodedLog": {
                        "name": "Transfer",
                        "params": [
                            {
                                "name": "_from",
                                "type": "address",
                                "value": "0x0000000000000000000000000000000000000000"
                            },
                            {
                                "name": "_to",
                                "type": "address",
                                "value": "0x67401149e3e88b10dd92821eb6302f4dee8191bc"
                            },
                            {
                                "decimalAvailable": true,
                                "name": "_tokenId",
                                "type": "uint256",
                                "value": "8,684"
                            }
                        ],
                        "signature": "Transfer(address,address,uint256)"
                    },
                    "id": 22,
                    "logData": "0x00000000000000000000000000000000000000000000000000000000000021ec",
                    "logDecoded": true,
                    "operation": "EVENT",
                    "revert": false,
                    "status": true,
                    "topics": [
                        "0xddf252ad1be2c89b69c2b068fc378daa952ba7f163c4a11628f55a4df523b3ef",
                        "0x0000000000000000000000000000000000000000000000000000000000000000",
                        "0x00000000000000000000000067401149e3e88b10dd92821eb6302f4dee8191bc"
                    ]
                },
                "nodeType": 1
            },
            "23": {
                "invocation": {
                    "address": "0x0144b7e66993c6bfab85581e8601f96bfe50c9df",
                    "callData": "0x00000000000000000000000000000000000000000000000000000000000021ec0000000000000000000000000000000000000000000000000000000000000040000000000000000000000000000000000000000000000000000000000000006168747470733a2f2f636c6f7564666c6172652d697066732e636f6d2f697066732f62616679626569687577797a79786d67686867626b356a767534726a7a77776f72626e766b666836626134706d337872786236696f766e677568712f3836383400000000000000000000000000000000000000000000000000000000000000",
                    "decodedMethod": {
                        "callParams": [
                            {
                                "name": "tokenId",
                                "type": "uint256",
                                "value": "8,684"
                            },
                            {
                                "name": "uri",
                                "type": "string",
                                "value": "https://cloudflare-ipfs.com/ipfs/bafybeihuwyzyxmghhgbk5jvu4rjzwworbnvkfh6ba4pm3xrxb6iovnguhq/8684"
                            }
                        ],
                        "constructorArguments": "",
                        "name": "seturi",
                        "returnParams": [],
                        "signature": "seturi(uint256,string)"
                    },
                    "errorInfo": "",
                    "fromAddress": "0x67401149e3e88b10dd92821eb6302f4dee8191bc",
                    "gasUsed": 112587,
                    "id": 23,
                    "methodDecoded": true,
                    "operation": "CALL",
                    "output": "",
                    "revert": false,
                    "revertMessage": "",
                    "selector": "0xbba25b7b",
                    "status": true,
                    "value": "0"
                },
                "nodeType": 0
            },
            "24": {
                "event": {
                    "contract": "0x67401149e3e88b10dd92821eb6302f4dee8191bc",
                    "decodedLog": {
                        "name": "MetaPunk2022Created",
                        "params": [
                            {
                                "name": "tokenId",
                                "type": "uint256",
                                "value": "8,684"
                            }
                        ],
                        "signature": "MetaPunk2022Created(uint256)"
                    },
                    "id": 24,
                    "logData": "0x00000000000000000000000000000000000000000000000000000000000021ec",
                    "logDecoded": true,
                    "operation": "EVENT",
                    "revert": false,
                    "status": true,
                    "topics": [
                        "0x5388e5304907434c979387c4b001c2bfd9bfaa91d7a8448bfc5c8f4d2228e167"
                    ]
                },
                "nodeType": 1
            },
            "25": {
                "invocation": {
                    "address": "0x0144b7e66993c6bfab85581e8601f96bfe50c9df",
                    "callData": "0x00000000000000000000000067401149e3e88b10dd92821eb6302f4dee8191bc0000000000000000000000002029dfce061b17a61969aab57ea055305624929100000000000000000000000000000000000000000000000000000000000021ec",
                    "decodedMethod": {
                        "callParams": [
                            {
                                "name": "_from",
                                "type": "address",
                                "value": "0x67401149e3e88b10dd92821eb6302f4dee8191bc"
                            },
                            {
                                "name": "_to",
                                "type": "address",
                                "value": "0x2029dfce061b17a61969aab57ea0553056249291"
                            },
                            {
                                "name": "_tokenId",
                                "type": "uint256",
                                "value": "8,684"
                            }
                        ],
                        "constructorArguments": "",
                        "name": "safeTransferFrom",
                        "returnParams": [],
                        "signature": "safeTransferFrom(address,address,uint256)"
                    },
                    "errorInfo": "",
                    "fromAddress": "0x67401149e3e88b10dd92821eb6302f4dee8191bc",
                    "gasUsed": 74741,
                    "id": 25,
                    "methodDecoded": true,
                    "operation": "CALL",
                    "output": "",
                    "revert": false,
                    "revertMessage": "",
                    "selector": "0x42842e0e",
                    "status": true,
                    "value": "0"
                },
                "nodeType": 0
            },
            "26": {
                "event": {
                    "contract": "0x0144b7e66993c6bfab85581e8601f96bfe50c9df",
                    "decodedLog": {
                        "name": "Transfer",
                        "params": [
                            {
                                "name": "_from",
                                "type": "address",
                                "value": "0x67401149e3e88b10dd92821eb6302f4dee8191bc"
                            },
                            {
                                "name": "_to",
                                "type": "address",
                                "value": "0x2029dfce061b17a61969aab57ea0553056249291"
                            },
                            {
                                "decimalAvailable": true,
                                "name": "_tokenId",
                                "type": "uint256",
                                "value": "8,684"
                            }
                        ],
                        "signature": "Transfer(address,address,uint256)"
                    },
                    "id": 26,
                    "logData": "0x00000000000000000000000000000000000000000000000000000000000021ec",
                    "logDecoded": true,
                    "operation": "EVENT",
                    "revert": false,
                    "status": true,
                    "topics": [
                        "0xddf252ad1be2c89b69c2b068fc378daa952ba7f163c4a11628f55a4df523b3ef",
                        "0x00000000000000000000000067401149e3e88b10dd92821eb6302f4dee8191bc",
                        "0x0000000000000000000000002029dfce061b17a61969aab57ea0553056249291"
                    ]
                },
                "nodeType": 1
            },
            "3": {
                "invocation": {
                    "address": "0x0144b7e66993c6bfab85581e8601f96bfe50c9df",
                    "callData": "0x00000000000000000000000000000000000000000000000000000000000021ea",
                    "decodedMethod": {
                        "callParams": [
                            {
                                "name": "_tokenId",
                                "type": "uint256",
                                "value": "8,682"
                            }
                        ],
                        "constructorArguments": "",
                        "name": "exists",
                        "returnParams": [
                            {
                                "name": "",
                                "type": "bool",
                                "value": false
                            }
                        ],
                        "signature": "exists(uint256)"
                    },
                    "errorInfo": "",
                    "fromAddress": "0x67401149e3e88b10dd92821eb6302f4dee8191bc",
                    "gasUsed": 2677,
                    "id": 3,
                    "methodDecoded": true,
                    "operation": "CALL",
                    "output": "0x0000000000000000000000000000000000000000000000000000000000000000",
                    "revert": false,
                    "revertMessage": "",
                    "selector": "0x4f558e79",
                    "status": true,
                    "value": "0"
                },
                "nodeType": 0
            },
            "4": {
                "invocation": {
                    "address": "0x0144b7e66993c6bfab85581e8601f96bfe50c9df",
                    "callData": "0x00000000000000000000000000000000000000000000000000000000000021ea00000000000000000000000000000000000000000000000000000000000021ea",
                    "decodedMethod": {
                        "callParams": [
                            {
                                "name": "_tokenId",
                                "type": "uint256",
                                "value": "8,682"
                            },
                            {
                                "name": "_punkId",
                                "type": "uint256",
                                "value": "8,682"
                            }
                        ],
                        "constructorArguments": "",
                        "name": "makeToken",
                        "returnParams": [],
                        "signature": "makeToken(uint256,uint256)"
                    },
                    "errorInfo": "",
                    "fromAddress": "0x67401149e3e88b10dd92821eb6302f4dee8191bc",
                    "gasUsed": 219411,
                    "id": 4,
                    "methodDecoded": true,
                    "operation": "CALL",
                    "output": "",
                    "revert": false,
                    "revertMessage": "",
                    "selector": "0xddd838df",
                    "status": true,
                    "value": "0"
                },
                "nodeType": 0
            },
            "5": {
                "invocation": {
                    "address": "0x67401149e3e88b10dd92821eb6302f4dee8191bc",
                    "callData": "0x00000000000000000000000000000000000000000000000000000000000021ea",
                    "decodedMethod": {
                        "callParams": [
                            {
                                "name": "",
                                "type": "uint256",
                                "value": "8,682"
                            }
                        ],
                        "constructorArguments": "",
                        "name": "punkIndexToAddress",
                        "returnParams": [
                            {
                                "name": "",
                                "type": "address",
                                "value": "0x0144b7e66993c6bfab85581e8601f96bfe50c9df"
                            }
                        ],
                        "signature": "punkIndexToAddress(uint256)"
                    },
                    "errorInfo": "",
                    "fromAddress": "0x0144b7e66993c6bfab85581e8601f96bfe50c9df",
                    "gasUsed": 481,
                    "id": 5,
                    "methodDecoded": true,
                    "operation": "CALL",
                    "output": "0x0000000000000000000000000144b7e66993c6bfab85581e8601f96bfe50c9df",
                    "revert": false,
                    "revertMessage": "",
                    "selector": "0x58178168",
                    "status": true,
                    "value": "0"
                },
                "nodeType": 0
            },
            "6": {
                "event": {
                    "contract": "0x0144b7e66993c6bfab85581e8601f96bfe50c9df",
                    "decodedLog": {
                        "name": "Transfer",
                        "params": [
                            {
                                "name": "_from",
                                "type": "address",
                                "value": "0x0000000000000000000000000000000000000000"
                            },
                            {
                                "name": "_to",
                                "type": "address",
                                "value": "0x67401149e3e88b10dd92821eb6302f4dee8191bc"
                            },
                            {
                                "decimalAvailable": true,
                                "name": "_tokenId",
                                "type": "uint256",
                                "value": "8,682"
                            }
                        ],
                        "signature": "Transfer(address,address,uint256)"
                    },
                    "id": 6,
                    "logData": "0x00000000000000000000000000000000000000000000000000000000000021ea",
                    "logDecoded": true,
                    "operation": "EVENT",
                    "revert": false,
                    "status": true,
                    "topics": [
                        "0xddf252ad1be2c89b69c2b068fc378daa952ba7f163c4a11628f55a4df523b3ef",
                        "0x0000000000000000000000000000000000000000000000000000000000000000",
                        "0x00000000000000000000000067401149e3e88b10dd92821eb6302f4dee8191bc"
                    ]
                },
                "nodeType": 1
            },
            "7": {
                "invocation": {
                    "address": "0x0144b7e66993c6bfab85581e8601f96bfe50c9df",
                    "callData": "0x00000000000000000000000000000000000000000000000000000000000021ea0000000000000000000000000000000000000000000000000000000000000040000000000000000000000000000000000000000000000000000000000000006168747470733a2f2f636c6f7564666c6172652d697066732e636f6d2f697066732f62616679626569687577797a79786d67686867626b356a767534726a7a77776f72626e766b666836626134706d337872786236696f766e677568712f3836383200000000000000000000000000000000000000000000000000000000000000",
                    "decodedMethod": {
                        "callParams": [
                            {
                                "name": "tokenId",
                                "type": "uint256",
                                "value": "8,682"
                            },
                            {
                                "name": "uri",
                                "type": "string",
                                "value": "https://cloudflare-ipfs.com/ipfs/bafybeihuwyzyxmghhgbk5jvu4rjzwworbnvkfh6ba4pm3xrxb6iovnguhq/8682"
                            }
                        ],
                        "constructorArguments": "",
                        "name": "seturi",
                        "returnParams": [],
                        "signature": "seturi(uint256,string)"
                    },
                    "errorInfo": "",
                    "fromAddress": "0x67401149e3e88b10dd92821eb6302f4dee8191bc",
                    "gasUsed": 112587,
                    "id": 7,
                    "methodDecoded": true,
                    "operation": "CALL",
                    "output": "",
                    "revert": false,
                    "revertMessage": "",
                    "selector": "0xbba25b7b",
                    "status": true,
                    "value": "0"
                },
                "nodeType": 0
            },
            "8": {
                "event": {
                    "contract": "0x67401149e3e88b10dd92821eb6302f4dee8191bc",
                    "decodedLog": {
                        "name": "MetaPunk2022Created",
                        "params": [
                            {
                                "name": "tokenId",
                                "type": "uint256",
                                "value": "8,682"
                            }
                        ],
                        "signature": "MetaPunk2022Created(uint256)"
                    },
                    "id": 8,
                    "logData": "0x00000000000000000000000000000000000000000000000000000000000021ea",
                    "logDecoded": true,
                    "operation": "EVENT",
                    "revert": false,
                    "status": true,
                    "topics": [
                        "0x5388e5304907434c979387c4b001c2bfd9bfaa91d7a8448bfc5c8f4d2228e167"
                    ]
                },
                "nodeType": 1
            },
            "9": {
                "invocation": {
                    "address": "0x0144b7e66993c6bfab85581e8601f96bfe50c9df",
                    "callData": "0x00000000000000000000000067401149e3e88b10dd92821eb6302f4dee8191bc0000000000000000000000002029dfce061b17a61969aab57ea055305624929100000000000000000000000000000000000000000000000000000000000021ea",
                    "decodedMethod": {
                        "callParams": [
                            {
                                "name": "_from",
                                "type": "address",
                                "value": "0x67401149e3e88b10dd92821eb6302f4dee8191bc"
                            },
                            {
                                "name": "_to",
                                "type": "address",
                                "value": "0x2029dfce061b17a61969aab57ea0553056249291"
                            },
                            {
                                "name": "_tokenId",
                                "type": "uint256",
                                "value": "8,682"
                            }
                        ],
                        "constructorArguments": "",
                        "name": "safeTransferFrom",
                        "returnParams": [],
                        "signature": "safeTransferFrom(address,address,uint256)"
                    },
                    "errorInfo": "",
                    "fromAddress": "0x67401149e3e88b10dd92821eb6302f4dee8191bc",
                    "gasUsed": 98641,
                    "id": 9,
                    "methodDecoded": true,
                    "operation": "CALL",
                    "output": "",
                    "revert": false,
                    "revertMessage": "",
                    "selector": "0x42842e0e",
                    "status": true,
                    "value": "0"
                },
                "nodeType": 0
            }
        },
        "gasFlame": [
            {
                "children": [
                    {
                        "children": [
                            {
                                "children": [],
                                "depth": 0,
                                "name": "Initial Gas",
                                "value": 21204
                            },
                            {
                                "children": [
                                    {
                                        "children": [],
                                        "depth": 1,
                                        "name": "fallback",
                                        "value": 1405
                                    },
                                    {
                                        "children": [],
                                        "depth": 1,
                                        "name": "exists",
                                        "value": 2677
                                    },
                                    {
                                        "children": [
                                            {
                                                "children": [],
                                                "depth": 2,
                                                "name": "punkIndexToAddress",
                                                "value": 481
                                            }
                                        ],
                                        "depth": 1,
                                        "name": "makeToken",
                                        "value": 219411
                                    },
                                    {
                                        "children": [],
                                        "depth": 1,
                                        "name": "seturi",
                                        "value": 112587
                                    },
                                    {
                                        "children": [],
                                        "depth": 1,
                                        "name": "safeTransferFrom",
                                        "value": 98641
                                    },
                                    {
                                        "children": [],
                                        "depth": 1,
                                        "name": "exists",
                                        "value": 2677
                                    },
                                    {
                                        "children": [
                                            {
                                                "children": [],
                                                "depth": 2,
                                                "name": "punkIndexToAddress",
                                                "value": 481
                                            }
                                        ],
                                        "depth": 1,
                                        "name": "makeToken",
                                        "value": 199711
                                    },
                                    {
                                        "children": [],
                                        "depth": 1,
                                        "name": "seturi",
                                        "value": 112587
                                    },
                                    {
                                        "children": [],
                                        "depth": 1,
                                        "name": "safeTransferFrom",
                                        "value": 74741
                                    },
                                    {
                                        "children": [],
                                        "depth": 1,
                                        "name": "exists",
                                        "value": 2677
                                    },
                                    {
                                        "children": [
                                            {
                                                "children": [],
                                                "depth": 2,
                                                "name": "punkIndexToAddress",
                                                "value": 481
                                            }
                                        ],
                                        "depth": 1,
                                        "name": "makeToken",
                                        "value": 199711
                                    },
                                    {
                                        "children": [],
                                        "depth": 1,
                                        "name": "seturi",
                                        "value": 112587
                                    },
                                    {
                                        "children": [],
                                        "depth": 1,
                                        "name": "safeTransferFrom",
                                        "value": 74741
                                    }
                                ],
                                "depth": 0,
                                "name": "Executed Gas",
                                "value": 1285954
                            }
                        ],
                        "depth": -1,
                        "name": "Actual Gas Used",
                        "value": 1065558
                    },
                    {
                        "children": [],
                        "depth": -1,
                        "name": "Refunded Gas",
                        "value": 241600
                    }
                ],
                "depth": -2,
                "name": "Total Gas",
                "value": 1307158
            }
        ],
        "isConfirmed": true,
        "mainTrace": [
            {
                "children": [
                    {
                        "children": [
                            {
                                "children": [
                                    {
                                        "children": [],
                                        "depth": 2,
                                        "id": 2,
                                        "order": 2
                                    }
                                ],
                                "depth": 1,
                                "id": 1,
                                "order": 1
                            },
                            {
                                "children": [],
                                "depth": 1,
                                "id": 3,
                                "order": 3
                            },
                            {
                                "children": [
                                    {
                                        "children": [],
                                        "depth": 2,
                                        "id": 5,
                                        "order": 5
                                    },
                                    {
                                        "children": [],
                                        "depth": 2,
                                        "id": 6,
                                        "order": 6
                                    }
                                ],
                                "depth": 1,
                                "id": 4,
                                "order": 4
                            },
                            {
                                "children": [],
                                "depth": 1,
                                "id": 7,
                                "order": 7
                            },
                            {
                                "children": [],
                                "depth": 1,
                                "id": 8,
                                "order": 8
                            },
                            {
                                "children": [
                                    {
                                        "children": [],
                                        "depth": 2,
                                        "id": 10,
                                        "order": 10
                                    }
                                ],
                                "depth": 1,
                                "id": 9,
                                "order": 9
                            },
                            {
                                "children": [],
                                "depth": 1,
                                "id": 11,
                                "order": 11
                            },
                            {
                                "children": [
                                    {
                                        "children": [],
                                        "depth": 2,
                                        "id": 13,
                                        "order": 13
                                    },
                                    {
                                        "children": [],
                                        "depth": 2,
                                        "id": 14,
                                        "order": 14
                                    }
                                ],
                                "depth": 1,
                                "id": 12,
                                "order": 12
                            },
                            {
                                "children": [],
                                "depth": 1,
                                "id": 15,
                                "order": 15
                            },
                            {
                                "children": [],
                                "depth": 1,
                                "id": 16,
                                "order": 16
                            },
                            {
                                "children": [
                                    {
                                        "children": [],
                                        "depth": 2,
                                        "id": 18,
                                        "order": 18
                                    }
                                ],
                                "depth": 1,
                                "id": 17,
                                "order": 17
                            },
                            {
                                "children": [],
                                "depth": 1,
                                "id": 19,
                                "order": 19
                            },
                            {
                                "children": [
                                    {
                                        "children": [],
                                        "depth": 2,
                                        "id": 21,
                                        "order": 21
                                    },
                                    {
                                        "children": [],
                                        "depth": 2,
                                        "id": 22,
                                        "order": 22
                                    }
                                ],
                                "depth": 1,
                                "id": 20,
                                "order": 20
                            },
                            {
                                "children": [],
                                "depth": 1,
                                "id": 23,
                                "order": 23
                            },
                            {
                                "children": [],
                                "depth": 1,
                                "id": 24,
                                "order": 24
                            },
                            {
                                "children": [
                                    {
                                        "children": [],
                                        "depth": 2,
                                        "id": 26,
                                        "order": 26
                                    }
                                ],
                                "depth": 1,
                                "id": 25,
                                "order": 25
                            }
                        ],
                        "depth": 0,
                        "id": 0,
                        "order": 0
                    }
                ],
                "depth": -1,
                "id": -1,
                "order": -1
            }
        ],
        "mainTraceNodeCount": 27,
        "parentIdMap": {
            "0": -1,
            "1": 0,
            "10": 9,
            "11": 0,
            "12": 0,
            "13": 12,
            "14": 12,
            "15": 0,
            "16": 0,
            "17": 0,
            "18": 17,
            "19": 0,
            "2": 1,
            "20": 0,
            "21": 20,
            "22": 20,
            "23": 0,
            "24": 0,
            "25": 0,
            "26": 25,
            "3": 0,
            "4": 0,
            "5": 4,
            "6": 4,
            "7": 0,
            "8": 0,
            "9": 0
        },
        "tidyTrace": [
            {
                "children": [
                    {
                        "children": [
                            {
                                "children": [
                                    {
                                        "children": [],
                                        "depth": 2,
                                        "id": 2,
                                        "order": 2
                                    }
                                ],
                                "depth": 1,
                                "id": 1,
                                "order": 1
                            },
                            {
                                "children": [],
                                "depth": 1,
                                "id": 3,
                                "order": 3
                            },
                            {
                                "children": [
                                    {
                                        "children": [],
                                        "depth": 2,
                                        "id": 5,
                                        "order": 5
                                    },
                                    {
                                        "children": [],
                                        "depth": 2,
                                        "id": 6,
                                        "order": 6
                                    }
                                ],
                                "depth": 1,
                                "id": 4,
                                "order": 4
                            },
                            {
                                "children": [],
                                "depth": 1,
                                "id": 7,
                                "order": 7
                            },
                            {
                                "children": [],
                                "depth": 1,
                                "id": 8,
                                "order": 8
                            },
                            {
                                "children": [
                                    {
                                        "children": [],
                                        "depth": 2,
                                        "id": 10,
                                        "order": 10
                                    }
                                ],
                                "depth": 1,
                                "id": 9,
                                "order": 9
                            },
                            {
                                "children": [],
                                "depth": 1,
                                "id": 11,
                                "order": 11
                            },
                            {
                                "children": [
                                    {
                                        "children": [],
                                        "depth": 2,
                                        "id": 13,
                                        "order": 13
                                    },
                                    {
                                        "children": [],
                                        "depth": 2,
                                        "id": 14,
                                        "order": 14
                                    }
                                ],
                                "depth": 1,
                                "id": 12,
                                "order": 12
                            },
                            {
                                "children": [],
                                "depth": 1,
                                "id": 15,
                                "order": 15
                            },
                            {
                                "children": [],
                                "depth": 1,
                                "id": 16,
                                "order": 16
                            },
                            {
                                "children": [
                                    {
                                        "children": [],
                                        "depth": 2,
                                        "id": 18,
                                        "order": 18
                                    }
                                ],
                                "depth": 1,
                                "id": 17,
                                "order": 17
                            },
                            {
                                "children": [],
                                "depth": 1,
                                "id": 19,
                                "order": 19
                            },
                            {
                                "children": [
                                    {
                                        "children": [],
                                        "depth": 2,
                                        "id": 21,
                                        "order": 21
                                    },
                                    {
                                        "children": [],
                                        "depth": 2,
                                        "id": 22,
                                        "order": 22
                                    }
                                ],
                                "depth": 1,
                                "id": 20,
                                "order": 20
                            },
                            {
                                "children": [],
                                "depth": 1,
                                "id": 23,
                                "order": 23
                            },
                            {
                                "children": [],
                                "depth": 1,
                                "id": 24,
                                "order": 24
                            },
                            {
                                "children": [
                                    {
                                        "children": [],
                                        "depth": 2,
                                        "id": 26,
                                        "order": 26
                                    }
                                ],
                                "depth": 1,
                                "id": 25,
                                "order": 25
                            }
                        ],
                        "depth": 0,
                        "id": 0,
                        "order": 0
                    }
                ],
                "depth": -1,
                "id": -1,
                "order": -1
            }
        ],
        "tidyTraceNodeCount": 27
    },
    "state_change": {
        "stateChanges": [
            {
                "address": "0x0144b7e66993c6bfab85581e8601f96bfe50c9df",
                "erc": "ERC-721",
                "slots": [
                    {
                        "current": "0x00000000000000000000000000000000000000000000000000000000000000c3",
                        "key": "0xb61dd1daaa62bbeed6d1ae460d51222f72cc16d8a28372d82223188b47354f38",
                        "prev": "0x0000000000000000000000000000000000000000000000000000000000000000"
                    },
                    {
                        "current": "0x00000000000000000000000000000000000000000000000000000000000021ec",
                        "key": "0xd6bd33c1c0232d25296df5a816326a987cfa19a30258b95ea0c35b8219d11e4e",
                        "prev": "0x0000000000000000000000000000000000000000000000000000000000000000"
                    },
                    {
                        "current": "0x6f72626e766b666836626134706d337872786236696f766e677568712f383638",
                        "key": "0x683127c241c7a8a52543e7364873cb0bbc955f6a010a520037560833c1e5acd1",
                        "prev": "0x0000000000000000000000000000000000000000000000000000000000000000"
                    },
                    {
                        "current": "0x0000000000000000000000000000000000000000000000000000000000000001",
                        "key": "0x1c5b443fd34bb4e0a42bef5abdeb98139a5b23f2e486c6462ade6a90557a12b3",
                        "prev": "0x0000000000000000000000000000000000000000000000000000000000000000"
                    },
                    {
                        "current": "0x2f62616679626569687577797a79786d67686867626b356a767534726a7a7777",
                        "key": "0xe2db49e44e2e92e2c7ddac9ab093dc6bc41051235740108591e446870a7ffeec",
                        "prev": "0x0000000000000000000000000000000000000000000000000000000000000000"
                    },
                    {
                        "current": "0x68747470733a2f2f636c6f7564666c6172652d697066732e636f6d2f69706673",
                        "key": "0xe2db49e44e2e92e2c7ddac9ab093dc6bc41051235740108591e446870a7ffeeb",
                        "prev": "0x0000000000000000000000000000000000000000000000000000000000000000"
                    },
                    {
                        "current": "0x0000000000000000000000000000000000000000000000000000000000000001",
                        "key": "0x623858bfacdd37cce3dff430999829299b9f94441b0165f3a0c086ee09440d38",
                        "prev": "0x0000000000000000000000000000000000000000000000000000000000000000"
                    },
                    {
                        "current": "0x0000000000000000000000002029dfce061b17a61969aab57ea0553056249291",
                        "key": "0xa1d069539485b0581c94fb23b7d32fc507d1dcd52709889f4a8c49fd24307cde",
                        "prev": "0x0000000000000000000000000000000000000000000000000000000000000000"
                    },
                    {
                        "current": "0x0000000000000000000000000000000000000000000000000000000000000001",
                        "key": "0xa396e574e24a22de07cf240bb418397e6d78b730ca2fd11d6f447142c4486285",
                        "prev": "0x0000000000000000000000000000000000000000000000000000000000000000"
                    },
                    {
                        "current": "0x0000000000000000000000000000000000000000000000000000000000000003",
                        "key": "0xf9bde0ecccaa79b6618fa0713971bfe55195be4239b9165a21a5720c9108bfd8",
                        "prev": "0x0000000000000000000000000000000000000000000000000000000000000000"
                    },
                    {
                        "current": "0x00000000000000000000000000000000000000000000000000000000000021ea",
                        "key": "0xd6bd33c1c0232d25296df5a816326a987cfa19a30258b95ea0c35b8219d11e4c",
                        "prev": "0x0000000000000000000000000000000000000000000000000000000000000000"
                    },
                    {
                        "current": "0x00000000000000000000000000000000000000000000000000000000000021eb",
                        "key": "0x4cf2f3137fcfa6081e6bdf5bf4fe75fdf3fcfe0515dc44be0fd9964bbc27a792",
                        "prev": "0x0000000000000000000000000000000000000000000000000000000000000000"
                    },
                    {
                        "current": "0x6f72626e766b666836626134706d337872786236696f766e677568712f383638",
                        "key": "0x76e766763ecd8e89d73a01108306928b49a985bc5475f906fb45b5e72398b1c8",
                        "prev": "0x0000000000000000000000000000000000000000000000000000000000000000"
                    },
                    {
                        "current": "0x00000000000000000000000000000000000000000000000000000000000000c3",
                        "key": "0x579e20925a4ac1a478b930123d6267a56073e36d3e155468c2ed055aa1a4949c",
                        "prev": "0x0000000000000000000000000000000000000000000000000000000000000000"
                    },
                    {
                        "current": "0x3200000000000000000000000000000000000000000000000000000000000000",
                        "key": "0x683127c241c7a8a52543e7364873cb0bbc955f6a010a520037560833c1e5acd2",
                        "prev": "0x0000000000000000000000000000000000000000000000000000000000000000"
                    },
                    {
                        "current": "0x00000000000000000000000000000000000000000000000000000000000021eb",
                        "key": "0xaac54dbdc95a1943eb416de487c1b380d137855d9a561ef0c852fb321d1d6566",
                        "prev": "0x0000000000000000000000000000000000000000000000000000000000000000"
                    },
                    {
                        "current": "0x00000000000000000000000000000000000000000000000000000000000021ec",
                        "key": "0x9148f14275b7b1aa2e2e3f0c332bdfbef97d6d70142b79fee9d157a5e3ef06bc",
                        "prev": "0x0000000000000000000000000000000000000000000000000000000000000000"
                    },
                    {
                        "current": "0x0000000000000000000000002029dfce061b17a61969aab57ea0553056249291",
                        "key": "0x50917e8812d73c80f30064df1a4a13b383fa6980d0a54b0c131f5a4649ad8516",
                        "prev": "0x0000000000000000000000000000000000000000000000000000000000000000"
                    },
                    {
                        "current": "0x3400000000000000000000000000000000000000000000000000000000000000",
                        "key": "0x76e766763ecd8e89d73a01108306928b49a985bc5475f906fb45b5e72398b1c9",
                        "prev": "0x0000000000000000000000000000000000000000000000000000000000000000"
                    },
                    {
                        "current": "0x0000000000000000000000000000000000000000000000000000000000000002",
                        "key": "0x4284f9396cf42abb6dcf1f6f272cada210ef4b6e45a53526eaf348ebe95442bc",
                        "prev": "0x0000000000000000000000000000000000000000000000000000000000000000"
                    },
                    {
                        "current": "0x00000000000000000000000000000000000000000000000000000000000021ce",
                        "key": "0x0000000000000000000000000000000000000000000000000000000000000009",
                        "prev": "0x00000000000000000000000000000000000000000000000000000000000021cb"
                    },
                    {
                        "current": "0x0000000000000000000000000000000000000000000000000000000000000003",
                        "key": "0x74def60466bf4a9cd0d82a3f69237157dffdfd2fc2139e988fd4b36a34a403fc",
                        "prev": "0x0000000000000000000000000000000000000000000000000000000000000000"
                    },
                    {
                        "current": "0x0000000000000000000000002029dfce061b17a61969aab57ea0553056249291",
                        "key": "0x9a8f866eed7ddec9bfa026ad2388b439c255c66ecbabae4196b764e81b6306dd",
                        "prev": "0x0000000000000000000000000000000000000000000000000000000000000000"
                    },
                    {
                        "current": "0x00000000000000000000000000000000000000000000000000000000000000c3",
                        "key": "0x5c6caf9b49083b34522647059b888960c17a2aceb68aedc977f03ce80eade310",
                        "prev": "0x0000000000000000000000000000000000000000000000000000000000000000"
                    },
                    {
                        "current": "0x68747470733a2f2f636c6f7564666c6172652d697066732e636f6d2f69706673",
                        "key": "0x683127c241c7a8a52543e7364873cb0bbc955f6a010a520037560833c1e5accf",
                        "prev": "0x0000000000000000000000000000000000000000000000000000000000000000"
                    },
                    {
                        "current": "0x00000000000000000000000000000000000000000000000000000000000021eb",
                        "key": "0xd6bd33c1c0232d25296df5a816326a987cfa19a30258b95ea0c35b8219d11e4d",
                        "prev": "0x0000000000000000000000000000000000000000000000000000000000000000"
                    },
                    {
                        "current": "0x00000000000000000000000000000000000000000000000000000000000021ea",
                        "key": "0x59d7433c7cc468e616049f744d607046f988fe14528ddc20e82bbbfd6cfc84a9",
                        "prev": "0x0000000000000000000000000000000000000000000000000000000000000000"
                    },
                    {
                        "current": "0x00000000000000000000000000000000000000000000000000000000000021cb",
                        "key": "0xc25c520c7abd903b2b0a0fbbb626b4395a5ce59dd0c9954c7aebc9ac7b434086",
                        "prev": "0x0000000000000000000000000000000000000000000000000000000000000000"
                    },
                    {
                        "current": "0x00000000000000000000000000000000000000000000000000000000000021ea",
                        "key": "0x6e1540171b6c0c960b71a7020d9f60077f6af931a8bbf590da0223dacf75e97a",
                        "prev": "0x0000000000000000000000000000000000000000000000000000000000000000"
                    },
                    {
                        "current": "0x00000000000000000000000000000000000000000000000000000000000021ec",
                        "key": "0x6e1540171b6c0c960b71a7020d9f60077f6af931a8bbf590da0223dacf75e97c",
                        "prev": "0x0000000000000000000000000000000000000000000000000000000000000000"
                    },
                    {
                        "current": "0x00000000000000000000000000000000000000000000000000000000000021cd",
                        "key": "0xb7ff8c020209579bf382148e6d6b09f88ba21da04aac80f1a23cd23eae2a362e",
                        "prev": "0x0000000000000000000000000000000000000000000000000000000000000000"
                    },
                    {
                        "current": "0x00000000000000000000000000000000000000000000000000000000000021ec",
                        "key": "0x269e5bcdfc64a21084d9bd126d1a87e44d53cb7fb3fbb631d741d3af4f416782",
                        "prev": "0x0000000000000000000000000000000000000000000000000000000000000000"
                    },
                    {
                        "current": "0x00000000000000000000000000000000000000000000000000000000000021ce",
                        "key": "0x000000000000000000000000000000000000000000000000000000000000000f",
                        "prev": "0x00000000000000000000000000000000000000000000000000000000000021cb"
                    },
                    {
                        "current": "0x2f62616679626569687577797a79786d67686867626b356a767534726a7a7777",
                        "key": "0x683127c241c7a8a52543e7364873cb0bbc955f6a010a520037560833c1e5acd0",
                        "prev": "0x0000000000000000000000000000000000000000000000000000000000000000"
                    },
                    {
                        "current": "0x68747470733a2f2f636c6f7564666c6172652d697066732e636f6d2f69706673",
                        "key": "0x76e766763ecd8e89d73a01108306928b49a985bc5475f906fb45b5e72398b1c6",
                        "prev": "0x0000000000000000000000000000000000000000000000000000000000000000"
                    },
                    {
                        "current": "0x2f62616679626569687577797a79786d67686867626b356a767534726a7a7777",
                        "key": "0x76e766763ecd8e89d73a01108306928b49a985bc5475f906fb45b5e72398b1c7",
                        "prev": "0x0000000000000000000000000000000000000000000000000000000000000000"
                    },
                    {
                        "current": "0x00000000000000000000000000000000000000000000000000000000000021ea",
                        "key": "0x25ce26935b77e014d14a00368913e0424efe40180ed1335fef64a4d7aa3e9472",
                        "prev": "0x0000000000000000000000000000000000000000000000000000000000000000"
                    },
                    {
                        "current": "0x0000000000000000000000000000000000000000000000000000000000000001",
                        "key": "0x7e2dc2778b2c251424f36e45c4931c9b4a2f65189acd3c8890f2081b8797c415",
                        "prev": "0x0000000000000000000000000000000000000000000000000000000000000000"
                    },
                    {
                        "current": "0x00000000000000000000000000000000000000000000000000000000000021eb",
                        "key": "0x6e1540171b6c0c960b71a7020d9f60077f6af931a8bbf590da0223dacf75e97b",
                        "prev": "0x0000000000000000000000000000000000000000000000000000000000000000"
                    },
                    {
                        "current": "0x00000000000000000000000000000000000000000000000000000000000021cc",
                        "key": "0x0fc5999a4a7117118352b09665a3b1626d04c26af5b507b605652a74c192f368",
                        "prev": "0x0000000000000000000000000000000000000000000000000000000000000000"
                    },
                    {
                        "current": "0x6f72626e766b666836626134706d337872786236696f766e677568712f383638",
                        "key": "0xe2db49e44e2e92e2c7ddac9ab093dc6bc41051235740108591e446870a7ffeed",
                        "prev": "0x0000000000000000000000000000000000000000000000000000000000000000"
                    },
                    {
                        "current": "0x3300000000000000000000000000000000000000000000000000000000000000",
                        "key": "0xe2db49e44e2e92e2c7ddac9ab093dc6bc41051235740108591e446870a7ffeee",
                        "prev": "0x0000000000000000000000000000000000000000000000000000000000000000"
                    }
                ],
                "storageVariables": [
                    {
                        "name": "tokenOwner",
                        "type": "mapping(uint256 => address)",
                        "value": {
                            "pairs": [
                                {
                                    "key": "8682",
                                    "value": {
                                        "current": "0x2029dfce061b17a61969aab57ea0553056249291",
                                        "prev": "0x0000000000000000000000000000000000000000",
                                        "typeTag": 1
                                    }
                                },
                                {
                                    "key": "8683",
                                    "value": {
                                        "current": "0x2029dfce061b17a61969aab57ea0553056249291",
                                        "prev": "0x0000000000000000000000000000000000000000",
                                        "typeTag": 1
                                    }
                                },
                                {
                                    "key": "8684",
                                    "value": {
                                        "current": "0x2029dfce061b17a61969aab57ea0553056249291",
                                        "prev": "0x0000000000000000000000000000000000000000",
                                        "typeTag": 1
                                    }
                                }
                            ],
                            "typeTag": 4
                        }
                    },
                    {
                        "name": "ownedTokens",
                        "type": "mapping(address => uint256[])",
                        "value": {
                            "pairs": [
                                {
                                    "key": "0x2029dfce061b17a61969aab57ea0553056249291",
                                    "value": {
                                        "elemType": "uint256",
                                        "elems": [
                                            {
                                                "index": 0,
                                                "value": {
                                                    "current": "8682",
                                                    "prev": "0",
                                                    "typeTag": 1
                                                }
                                            },
                                            {
                                                "index": 1,
                                                "value": {
                                                    "current": "8683",
                                                    "prev": "0",
                                                    "typeTag": 1
                                                }
                                            },
                                            {
                                                "index": 2,
                                                "value": {
                                                    "current": "8684",
                                                    "prev": "0",
                                                    "typeTag": 1
                                                }
                                            }
                                        ],
                                        "typeTag": 2
                                    }
                                }
                            ],
                            "typeTag": 4
                        }
                    },
                    {
                        "name": "ownedTokensCount",
                        "type": "mapping(address => uint256)",
                        "value": {
                            "pairs": [
                                {
                                    "key": "0x2029dfce061b17a61969aab57ea0553056249291",
                                    "value": {
                                        "current": "3",
                                        "prev": "0",
                                        "typeTag": 1
                                    }
                                }
                            ],
                            "typeTag": 4
                        }
                    },
                    {
                        "name": "tokenIdToPunk",
                        "type": "mapping(uint256 => uint256)",
                        "value": {
                            "pairs": [
                                {
                                    "key": "8682",
                                    "value": {
                                        "current": "8682",
                                        "prev": "0",
                                        "typeTag": 1
                                    }
                                },
                                {
                                    "key": "8683",
                                    "value": {
                                        "current": "8683",
                                        "prev": "0",
                                        "typeTag": 1
                                    }
                                },
                                {
                                    "key": "8684",
                                    "value": {
                                        "current": "8684",
                                        "prev": "0",
                                        "typeTag": 1
                                    }
                                }
                            ],
                            "typeTag": 4
                        }
                    },
                    {
                        "name": "allTokens",
                        "type": "uint256[]",
                        "value": {
                            "elemType": "uint256",
                            "elems": [
                                {
                                    "index": 8651,
                                    "value": {
                                        "current": "8682",
                                        "prev": "0",
                                        "typeTag": 1
                                    }
                                },
                                {
                                    "index": 8652,
                                    "value": {
                                        "current": "8683",
                                        "prev": "0",
                                        "typeTag": 1
                                    }
                                },
                                {
                                    "index": 8653,
                                    "value": {
                                        "current": "8684",
                                        "prev": "0",
                                        "typeTag": 1
                                    }
                                }
                            ],
                            "typeTag": 2
                        }
                    },
                    {
                        "name": "punkExists",
                        "type": "mapping(uint256 => bool)",
                        "value": {
                            "pairs": [
                                {
                                    "key": "8682",
                                    "value": {
                                        "current": "true",
                                        "prev": "false",
                                        "typeTag": 1
                                    }
                                },
                                {
                                    "key": "8683",
                                    "value": {
                                        "current": "true",
                                        "prev": "false",
                                        "typeTag": 1
                                    }
                                },
                                {
                                    "key": "8684",
                                    "value": {
                                        "current": "true",
                                        "prev": "false",
                                        "typeTag": 1
                                    }
                                }
                            ],
                            "typeTag": 4
                        }
                    },
                    {
                        "name": "totalPunksInContract",
                        "type": "uint256",
                        "value": {
                            "current": "8654",
                            "prev": "8651",
                            "typeTag": 1
                        }
                    },
                    {
                        "name": "ownedTokensIndex",
                        "type": "mapping(uint256 => uint256)",
                        "value": {
                            "pairs": [
                                {
                                    "key": "8683",
                                    "value": {
                                        "current": "1",
                                        "prev": "0",
                                        "typeTag": 1
                                    }
                                },
                                {
                                    "key": "8684",
                                    "value": {
                                        "current": "2",
                                        "prev": "0",
                                        "typeTag": 1
                                    }
                                }
                            ],
                            "typeTag": 4
                        }
                    },
                    {
                        "name": "allTokensIndex",
                        "type": "mapping(uint256 => uint256)",
                        "value": {
                            "pairs": [
                                {
                                    "key": "8682",
                                    "value": {
                                        "current": "8651",
                                        "prev": "0",
                                        "typeTag": 1
                                    }
                                },
                                {
                                    "key": "8683",
                                    "value": {
                                        "current": "8652",
                                        "prev": "0",
                                        "typeTag": 1
                                    }
                                },
                                {
                                    "key": "8684",
                                    "value": {
                                        "current": "8653",
                                        "prev": "0",
                                        "typeTag": 1
                                    }
                                }
                            ],
                            "typeTag": 4
                        }
                    },
                    {
                        "name": "tokenURIs",
                        "type": "mapping(uint256 => string)",
                        "value": {
                            "pairs": [
                                {
                                    "key": "8682",
                                    "value": {
                                        "current": "https://cloudflare-ipfs.com/ipfs/bafybeihuwyzyxmghhgbk5jvu4rjzwworbnvkfh6ba4pm3xrxb6iovnguhq/8682",
                                        "prev": "",
                                        "typeTag": 1
                                    }
                                },
                                {
                                    "key": "8683",
                                    "value": {
                                        "current": "https://cloudflare-ipfs.com/ipfs/bafybeihuwyzyxmghhgbk5jvu4rjzwworbnvkfh6ba4pm3xrxb6iovnguhq/8683",
                                        "prev": "",
                                        "typeTag": 1
                                    }
                                },
                                {
                                    "key": "8684",
                                    "value": {
                                        "current": "https://cloudflare-ipfs.com/ipfs/bafybeihuwyzyxmghhgbk5jvu4rjzwworbnvkfh6ba4pm3xrxb6iovnguhq/8684",
                                        "prev": "",
                                        "typeTag": 1
                                    }
                                }
                            ],
                            "typeTag": 4
                        }
                    },
                    {
                        "name": "punkToTokenId",
                        "type": "mapping(uint256 => uint256)",
                        "value": {
                            "pairs": [
                                {
                                    "key": "8682",
                                    "value": {
                                        "current": "8682",
                                        "prev": "0",
                                        "typeTag": 1
                                    }
                                },
                                {
                                    "key": "8683",
                                    "value": {
                                        "current": "8683",
                                        "prev": "0",
                                        "typeTag": 1
                                    }
                                },
                                {
                                    "key": "8684",
                                    "value": {
                                        "current": "8684",
                                        "prev": "0",
                                        "typeTag": 1
                                    }
                                }
                            ],
                            "typeTag": 4
                        }
                    }
                ]
            },
            {
                "address": "0x67401149e3e88b10dd92821eb6302f4dee8191bc",
                "erc": "",
                "slots": [
                    {
                        "current": "0x00000000000000000000000000000000000000000000000000000000000021ed",
                        "key": "0x0000000000000000000000000000000000000000000000000000000000000005",
                        "prev": "0x00000000000000000000000000000000000000000000000000000000000021ea"
                    }
                ],
                "storageVariables": [
                    {
                        "name": "tokenId",
                        "type": "uint256",
                        "value": {
                            "current": "8685",
                            "prev": "8682",
                            "typeTag": 1
                        }
                    }
                ]
            }
        ]
    }
}