{
    "balance_change": {
        "balanceChanges": [
            {
                "account": "0xa380bc6f5b1e9f56efccbead9be76fad6458444b",
                "assets": [
                    {
                        "address": "0xffa39dcbaff181656d485e818ef8b1f3a411052c",
                        "amount": "515,000,000,000",
                        "iconUrl": "",
                        "isERC1155": false,
                        "isERC721": false,
                        "sign": false,
                        "value": ""
                    }
                ]
            },
            {
                "account": "0x61f3a308e064b4da2c2db2c6e9f8ad2552b58ce5",
                "assets": [
                    {
                        "address": "0xffa39dcbaff181656d485e818ef8b1f3a411052c",
                        "amount": "515,000,000,000",
                        "iconUrl": "",
                        "isERC1155": false,
                        "isERC721": false,
                        "sign": true,
                        "value": ""
                    }
                ]
            }
        ]
    },
    "profile": {
        "basic_info": {
            "baseFee": "",
            "blockNumber": 7379905,
            "callData": "0xa9059cbb00000000000000000000000061f3a308e064b4da2c2db2c6e9f8ad2552b58ce500000000000000000000000000000000000000000000000000000077e8645e00",
            "debugEnable": true,
            "errorInfo": "",
            "eventCount": 1,
            "feeRecipient": "0xea674fdde714fd979de3edf0f56aa9716b898ec8",
            "formatValue": "0",
            "gasLimit": 65000,
            "gasPrice": "2.911515477",
            "gasUsed": 21840,
            "intTxnCount": 0,
            "internalRevert": false,
            "internalRevertMessage": "",
            "isContractCreation": false,
            "isFlashloan": false,
            "maxFee": "",
            "nonce": 4,
            "overwritedBlockNumber": -1,
            "priorityFee": "",
            "receiver": "0xffa39dcbaff181656d485e818ef8b1f3a411052c",
            "revertMessage": "",
            "sender": "0xa380bc6f5b1e9f56efccbead9be76fad6458444b",
            "simulationEnable": true,
            "sourceTxnHash": "0x5ca1960f4815549ade591e8761cc316ae3f1026780083748a12e1a7f850b6882",
            "status": true,
            "timestamp": "2019-03-16T11:51:29Z",
            "transactionFee": "0.00006358749801768",
            "txnHash": "0x5ca1960f4815549ade591e8761cc316ae3f1026780083748a12e1a7f850b6882",
            "txnIndex": 47,
            "type": 0,
            "value": "0"
        },
        "fund_flow": [
            {
                "amount": "515,000,000,000",
                "from": "0xa380bc6f5b1e9f56efccbead9be76fad6458444b",
                "id": 1,
                "isERC1155": false,
                "isERC721": false,
                "isReverted": false,
                "order": 1,
                "to": "0x61f3a308e064b4da2c2db2c6e9f8ad2552b58ce5",
                "token": "0xffa39dcbaff181656d485e818ef8b1f3a411052c"
            }
        ],
        "token_infos": [
            {
                "address": "0xc02aaa39b223fe8d0a0e5c4f27ead9083c756cc2",
                "decimals": 18
            },
            {
                "address": "0xeeeeeeeeeeeeeeeeeeeeeeeeeeeeeeeeeeeeeeee",
                "decimals": 18
            }
        ]
    },
    "address_label": {
        "labels": [
            {
                "address": "0xeeeeeeeeeeeeeeeeeeeeeeeeeeeeeeeeeeeeeeee",
                "label": "Ether"
            },
            {
                "address": "0xffa39dcbaff181656d485e818ef8b1f3a411052c",
                "label": "YHYL"
            },
            {
                "address": "0x0000000000000000000000000000000000000001",
                "label": "Precompiled"
            },
            {
                "address": "0x0000000000000000000000000000000000000002",
                "label": "Precompiled"
            },
            {
                "address": "0x0000000000000000000000000000000000000003",
                "label": "Precompiled"
            },
            {
                "address": "0x0000000000000000000000000000000000000004",
                "label": "Precompiled"
            }
        ]
    },
    "trace": {
        "accountLabels": null,
        "dataMap": {
            "-1": {
                "invocation": {
                    "address": "0xa380bc6f5b1e9f56efccbead9be76fad6458444b",
                    "callData": "",
                    "decodedMethod": null,
                    "errorInfo": "",
                    "fromAddress": "",
                    "gasUsed": 0,
                    "id": -1,
                    "methodDecoded": false,
                    "operation": "",
                    "output": "",
                    "revert": false,
                    "revertMessage": "",
                    "selector": "",
                    "status": false,
                    "value": ""
                },
                "nodeType": 0
            },
            "0": {
                "invocation": {
                    "address": "0xffa39dcbaff181656d485e818ef8b1f3a411052c",
                    "callData": "0x00000000000000000000000061f3a308e064b4da2c2db2c6e9f8ad2552b58ce500000000000000000000000000000000000000000000000000000077e8645e00",
                    "decodedMethod": {
                        "callParams": [
                            {
                                "name": "_to",
                                "type": "address",
                                "value": "0x61f3a308e064b4da2c2db2c6e9f8ad2552b58ce5"
                            },
                            {
                                "decimalAvailable": true,
                                "name": "_value",
                                "type": "uint256",
                                "value": "515,000,000,000"
                            }
                        ],
                        "constructorArguments": "",
                        "name": "transfer",
                        "returnParams": [
                            {
                                "name": "",
                                "type": "bool",
                                "value": true
                            }
                        ],
                        "signature": "transfer(address,uint256)"
                    },
                    "errorInfo": "",
                    "fromAddress": "0xa380bc6f5b1e9f56efccbead9be76fad6458444b",
                    "gasUsed": 21840,
                    "id": 0,
                    "methodDecoded": true,
                    "operation": "CALL",
                    "output": "0x0000000000000000000000000000000000000000000000000000000000000001",
                    "revert": false,
                    "revertMessage": "",
                    "selector": "0xa9059cbb",
                    "status": true,
                    "value": "0"
                },
                "nodeType": 0
            },
            "1": {
                "event": {
                    "contract": "0xffa39dcbaff181656d485e818ef8b1f3a411052c",
                    "decodedLog": {
                        "name": "Transfer",
                        "params": [
                            {
                                "name": "from",
                                "type": "address",
                                "value": "0xa380bc6f5b1e9f56efccbead9be76fad6458444b"
                            },
                            {
                                "name": "to",
                                "type": "address",
                                "value": "0x61f3a308e064b4da2c2db2c6e9f8ad2552b58ce5"
                            },
                            {
                                "decimalAvailable": true,
                                "name": "tokens",
                                "type": "uint256",
                                "value": "515,000,000,000"
                            }
                        ],
                        "signature": "Transfer(address,address,uint256)"
                    },
                    "id": 1,
                    "logData": "0x00000000000000000000000000000000000000000000000000000077e8645e00",
                    "logDecoded": true,
                    "operation": "EVENT",
                    "revert": false,
                    "status": true,
                    "topics": [
                        "0xddf252ad1be2c89b69c2b068fc378daa952ba7f163c4a11628f55a4df523b3ef",
                        "0x000000000000000000000000a380bc6f5b1e9f56efccbead9be76fad6458444b",
                        "0x00000000000000000000000061f3a308e064b4da2c2db2c6e9f8ad2552b58ce5"
                    ]
                },
                "nodeType": 1
            }
        },
        "gasFlame": [
            {
                "children": [
                    {
                        "children": [
                            {
                                "children": [],
                                "depth": 0,
                                "name": "Initial Gas",
                                "value": 23064
                            },
                            {
                                "children": [],
                                "depth": 0,
                                "name": "Executed Gas",
                                "value": 13776
                            }
                        ],
                        "depth": -1,
                        "name": "Actual Gas Used",
                        "value": 21840
                    },
                    {
                        "children": [],
                        "depth": -1,
                        "name": "Refunded Gas",
                        "value": 15000
                    }
                ],
                "depth": -2,
                "name": "Total Gas",
                "value": 36840
            }
        ],
        "isConfirmed": true,
        "mainTrace": [
            {
                "children": [
                    {
                        "children": [
                            {
                                "children": [],
                                "depth": 1,
                                "id": 1,
                                "order": 1
                            }
                        ],
                        "depth": 0,
                        "id": 0,
                        "order": 0
                    }
                ],
                "depth": -1,
                "id": -1,
                "order": -1
            }
        ],
        "mainTraceNodeCount": 2,
        "parentIdMap": {
            "0": -1,
            "1": 0
        },
        "tidyTrace": [
            {
                "children": [
                    {
                        "children": [
                            {
                                "children": [],
                                "depth": 1,
                                "id": 1,
                                "order": 1
                            }
                        ],
                        "depth": 0,
                        "id": 0,
                        "order": 0
                    }
                ],
                "depth": -1,
                "id": -1,
                "order": -1
            }
        ],
        "tidyTraceNodeCount": 2
    },
    "state_change": {
        "stateChanges": [
            {
                "address": "0xffa39dcbaff181656d485e818ef8b1f3a411052c",
                "erc": "ERC-20",
                "slots": [
                    {
                        "current": "0x0000000000000000000000000000000000000000000000000000000000000000",
                        "key": "0xc4881bfd69798e682caa784858be25c3cdbafae46a3adf96d404570ffebb237a",
                        "prev": "0x00000000000000000000000000000000000000000000000000000077e8645e00"
                    },
                    {
                        "current": "0x000000000000000000000000000000000000000000000000002893b7c0a011ba",
                        "key": "0x1ee64ca99f58013fc964ae274e9e0790c09e34419f756e3ce0e7c86f1a2da67f",
                        "prev": "0x0000000000000000000000000000000000000000000000000028933fd83bb3ba"
                    }
                ],
                "storageVariables": [
                    {
                        "name": "balances",
                        "type": "mapping(address => uint256)",
                        "value": {
                            "pairs": [
                                {
                                    "key": "0x61f3a308e064b4da2c2db2c6e9f8ad2552b58ce5",
                                    "value": {
                                        "current": "11421416488440250",
                                        "prev": "11420901488440250",
                                        "typeTag": 1
                                    }
                                },
                                {
                                    "key": "0xa380bc6f5b1e9f56efccbead9be76fad6458444b",
                                    "value": {
                                        "current": "0",
                                        "prev": "515000000000",
                                        "typeTag": 1
                                    }
                                }
                            ],
                            "typeTag": 4
                        }
                    }
                ]
            }
        ]
    }
}