{
    "balance_change": {
        "balanceChanges": [
            {
                "account": "0x59b58377da5e7903ebf36da3738024a3407cdaa2",
                "assets": [
                    {
                        "address": "0x1ce270557c1f68cfb577b856766310bf8b47fd9c",
                        "amount": "5,146,187,188",
                        "iconUrl": "",
                        "isERC1155": false,
                        "isERC721": false,
                        "sign": false,
                        "value": "172.9935503"
                    }
                ]
            },
            {
                "account": "0x6d0d19bdddc5ed1dd501430c9621dd37ebd9062d",
                "assets": [
                    {
                        "address": "0x1ce270557c1f68cfb577b856766310bf8b47fd9c",
                        "amount": "5,146,187,188",
                        "iconUrl": "",
                        "isERC1155": false,
                        "isERC721": false,
                        "sign": true,
                        "value": "172.9935503"
                    }
                ]
            }
        ]
    },
    "profile": {
        "basic_info": {
            "baseFee": "26.62415023",
            "blockNumber": 19451228,
            "callData": "0xa9059cbb0000000000000000000000006d0d19bdddc5ed1dd501430c9621dd37ebd9062d000000000000000000000000000000000000000010a0d386765b7c2ee6500000",
            "debugEnable": true,
            "errorInfo": "",
            "eventCount": 1,
            "feeRecipient": "0x95222290dd7278aa3ddd389cc1e1d165cc4bafe5",
            "formatValue": "0",
            "gasLimit": 61798,
            "gasPrice": "28.62415023",
            "gasUsed": 29574,
            "intTxnCount": 0,
            "internalRevert": false,
            "internalRevertMessage": "",
            "isContractCreation": false,
            "isFlashloan": false,
            "maxFee": "42.007786748",
            "nonce": 1,
            "overwritedBlockNumber": -1,
            "priorityFee": "2",
            "receiver": "0x1ce270557c1f68cfb577b856766310bf8b47fd9c",
            "revertMessage": "",
            "sender": "0x59b58377da5e7903ebf36da3738024a3407cdaa2",
            "simulationEnable": true,
            "sourceTxnHash": "0x5c968f4e8c455cbdf71e9206a6cc5b315e275511d3e7d880c98ff34a225ddcd3",
            "status": true,
            "timestamp": "2024-03-17T01:12:35Z",
            "transactionFee": "0.00084653061890202",
            "txnHash": "0x5c968f4e8c455cbdf71e9206a6cc5b315e275511d3e7d880c98ff34a225ddcd3",
            "txnIndex": 65,
            "type": 2,
            "value": "0"
        },
        "fund_flow": [
            {
                "amount": "5,146,187,188",
                "from": "0x59b58377da5e7903ebf36da3738024a3407cdaa2",
                "id": 1,
                "isERC1155": false,
                "isERC721": false,
                "isReverted": false,
                "order": 1,
                "to": "0x6d0d19bdddc5ed1dd501430c9621dd37ebd9062d",
                "token": "0x1ce270557c1f68cfb577b856766310bf8b47fd9c"
            }
        ],
        "token_infos": [
            {
                "address": "0x1ce270557c1f68cfb577b856766310bf8b47fd9c",
                "decimals": 18
            },
            {
                "address": "0xc02aaa39b223fe8d0a0e5c4f27ead9083c756cc2",
                "decimals": 18
            },
            {
                "address": "0xeeeeeeeeeeeeeeeeeeeeeeeeeeeeeeeeeeeeeeee",
                "decimals": 18
            }
        ]
    },
    "address_label": {
        "labels": [
            {
                "address": "0x0000000000000000000000000000000000000004",
                "label": "Precompiled"
            },
            {
                "address": "0xeeeeeeeeeeeeeeeeeeeeeeeeeeeeeeeeeeeeeeee",
                "label": "Ether"
            },
            {
                "address": "0x1ce270557c1f68cfb577b856766310bf8b47fd9c",
                "label": "Mong Coin: $MONG Token"
            },
            {
                "address": "0x6d0d19bdddc5ed1dd501430c9621dd37ebd9062d",
                "label": "BitMart 13"
            },
            {
                "address": "0x0000000000000000000000000000000000000001",
                "label": "Precompiled"
            },
            {
                "address": "0x0000000000000000000000000000000000000002",
                "label": "Precompiled"
            },
            {
                "address": "0x0000000000000000000000000000000000000003",
                "label": "Precompiled"
            }
        ]
    },
    "trace": {
        "accountLabels": null,
        "dataMap": {
            "-1": {
                "invocation": {
                    "address": "0x59b58377da5e7903ebf36da3738024a3407cdaa2",
                    "callData": "",
                    "decodedMethod": null,
                    "errorInfo": "",
                    "fromAddress": "",
                    "gasUsed": 0,
                    "id": -1,
                    "methodDecoded": false,
                    "operation": "",
                    "output": "",
                    "revert": false,
                    "revertMessage": "",
                    "selector": "",
                    "status": false,
                    "value": ""
                },
                "nodeType": 0
            },
            "0": {
                "invocation": {
                    "address": "0x1ce270557c1f68cfb577b856766310bf8b47fd9c",
                    "callData": "0x0000000000000000000000006d0d19bdddc5ed1dd501430c9621dd37ebd9062d000000000000000000000000000000000000000010a0d386765b7c2ee6500000",
                    "decodedMethod": {
                        "callParams": [
                            {
                                "name": "to",
                                "type": "address",
                                "value": "0x6d0d19bdddc5ed1dd501430c9621dd37ebd9062d"
                            },
                            {
                                "decimalAvailable": true,
                                "name": "amount",
                                "type": "uint256",
                                "value": "5,146,187,188,000,000,000,000,000,000"
                            }
                        ],
                        "constructorArguments": "",
                        "name": "transfer",
                        "returnParams": [
                            {
                                "name": "",
                                "type": "bool",
                                "value": true
                            }
                        ],
                        "signature": "transfer(address,uint256)"
                    },
                    "errorInfo": "",
                    "fromAddress": "0x59b58377da5e7903ebf36da3738024a3407cdaa2",
                    "gasUsed": 29574,
                    "id": 0,
                    "methodDecoded": true,
                    "operation": "CALL",
                    "output": "0x0000000000000000000000000000000000000000000000000000000000000001",
                    "revert": false,
                    "revertMessage": "",
                    "selector": "0xa9059cbb",
                    "status": true,
                    "value": "0"
                },
                "nodeType": 0
            },
            "1": {
                "event": {
                    "contract": "0x1ce270557c1f68cfb577b856766310bf8b47fd9c",
                    "decodedLog": {
                        "name": "Transfer",
                        "params": [
                            {
                                "name": "from",
                                "type": "address",
                                "value": "0x59b58377da5e7903ebf36da3738024a3407cdaa2"
                            },
                            {
                                "name": "to",
                                "type": "address",
                                "value": "0x6d0d19bdddc5ed1dd501430c9621dd37ebd9062d"
                            },
                            {
                                "decimalAvailable": true,
                                "name": "value",
                                "type": "uint256",
                                "value": "5,146,187,188,000,000,000,000,000,000"
                            }
                        ],
                        "signature": "Transfer(address,address,uint256)"
                    },
                    "id": 1,
                    "logData": "0x000000000000000000000000000000000000000010a0d386765b7c2ee6500000",
                    "logDecoded": true,
                    "operation": "EVENT",
                    "revert": false,
                    "status": true,
                    "topics": [
                        "0xddf252ad1be2c89b69c2b068fc378daa952ba7f163c4a11628f55a4df523b3ef",
                        "0x00000000000000000000000059b58377da5e7903ebf36da3738024a3407cdaa2",
                        "0x0000000000000000000000006d0d19bdddc5ed1dd501430c9621dd37ebd9062d"
                    ]
                },
                "nodeType": 1
            }
        },
        "gasFlame": [
            {
                "children": [
                    {
                        "children": [
                            {
                                "children": [],
                                "depth": 0,
                                "name": "Initial Gas",
                                "value": 21680
                            },
                            {
                                "children": [],
                                "depth": 0,
                                "name": "Executed Gas",
                                "value": 12694
                            }
                        ],
                        "depth": -1,
                        "name": "Actual Gas Used",
                        "value": 29574
                    },
                    {
                        "children": [],
                        "depth": -1,
                        "name": "Refunded Gas",
                        "value": 4800
                    }
                ],
                "depth": -2,
                "name": "Total Gas",
                "value": 34374
            }
        ],
        "isConfirmed": true,
        "mainTrace": [
            {
                "children": [
                    {
                        "children": [
                            {
                                "children": [],
                                "depth": 1,
                                "id": 1,
                                "order": 1
                            }
                        ],
                        "depth": 0,
                        "id": 0,
                        "order": 0
                    }
                ],
                "depth": -1,
                "id": -1,
                "order": -1
            }
        ],
        "mainTraceNodeCount": 2,
        "parentIdMap": {
            "0": -1,
            "1": 0
        },
        "tidyTrace": [
            {
                "children": [
                    {
                        "children": [
                            {
                                "children": [],
                                "depth": 1,
                                "id": 1,
                                "order": 1
                            }
                        ],
                        "depth": 0,
                        "id": 0,
                        "order": 0
                    }
                ],
                "depth": -1,
                "id": -1,
                "order": -1
            }
        ],
        "tidyTraceNodeCount": 2
    },
    "state_change": {
        "stateChanges": [
            {
                "address": "0x1ce270557c1f68cfb577b856766310bf8b47fd9c",
                "erc": "ERC-20",
                "slots": [
                    {
                        "current": "0x0000000000000000000000000000000000000000000000000000000000000000",
                        "key": "0xd14512ea126e484025c1f29bd12591fcad2ea51a0fc76d27de8d263fa252e319",
                        "prev": "0x000000000000000000000000000000000000000010a0d386765b7c2ee6500000"
                    },
                    {
                        "current": "0x0000000000000000000000000000000000000013ca7540a604507257c4d6bb7d",
                        "key": "0x830c4a81e43f9822ddc933b6f1c42f686856cc17352c69d5a5015177aeaf4782",
                        "prev": "0x0000000000000000000000000000000000000013b9d46d1f8df4f628de86bb7d"
                    }
                ],
                "storageVariables": [
                    {
                        "name": "_balances",
                        "type": "mapping(address => uint256)",
                        "value": {
                            "pairs": [
                                {
                                    "key": "0x59b58377da5e7903ebf36da3738024a3407cdaa2",
                                    "value": {
                                        "current": "0",
                                        "prev": "5146187188000000000000000000",
                                        "typeTag": 1
                                    }
                                },
                                {
                                    "key": "0x6d0d19bdddc5ed1dd501430c9621dd37ebd9062d",
                                    "value": {
                                        "current": "1567992809369754323761839389565",
                                        "prev": "1562846622181754323761839389565",
                                        "typeTag": 1
                                    }
                                }
                            ],
                            "typeTag": 4
                        }
                    }
                ]
            }
        ]
    }
}