{
    "balance_change": {
        "balanceChanges": [
            {
                "account": "0x0000000000000000000000000000000000000000",
                "assets": [
                    {
                        "address": "0x76e44f07af4c477a1c2bb9251342fa275fc29796",
                        "amount": "1",
                        "iconUrl": "",
                        "isERC1155": false,
                        "isERC721": true,
                        "sign": false,
                        "tokenID": "4104",
                        "value": ""
                    }
                ]
            },
            {
                "account": "0xd2ca57e298e76483548b7293b59522b210063209",
                "assets": [
                    {
                        "address": "0x76e44f07af4c477a1c2bb9251342fa275fc29796",
                        "amount": "1",
                        "iconUrl": "",
                        "isERC1155": false,
                        "isERC721": true,
                        "sign": true,
                        "tokenID": "4104",
                        "value": ""
                    }
                ]
            }
        ]
    },
    "profile": {
        "basic_info": {
            "baseFee": "35.065037241",
            "blockNumber": 16871723,
            "callData": "0xefb6b11f00000000000000000000000000000000000000000000000000000000000000010000000000000000000000000000000000000000000000000000000000000080000000000000000000000000000000000000000000000000000000006418d76f00000000000000000000000000000000000000000000000000000000000000a0000000000000000000000000000000000000000000000000000000000000000000000000000000000000000000000000000000000000000000000000000000417d09e2b38a2c8ee2e1450c78656ed2a3b59285f4b80e7e667be2961c8efc50a128dc86ca7e0a8e59492f1c5cc961d40f469ed3e0aff9a63162449ee35343fb4c1c00000000000000000000000000000000000000000000000000000000000000",
            "debugEnable": true,
            "errorInfo": "",
            "eventCount": 1,
            "feeRecipient": "0x1f9090aae28b8a3dceadf281b0f12828e676c326",
            "formatValue": "0",
            "gasLimit": 142009,
            "gasPrice": "35.215106657",
            "gasUsed": 137038,
            "intTxnCount": 1,
            "internalRevert": false,
            "internalRevertMessage": "",
            "isContractCreation": false,
            "isFlashloan": false,
            "maxFee": "35.215106657",
            "nonce": 4,
            "overwritedBlockNumber": -1,
            "priorityFee": "0.3",
            "receiver": "0x76e44f07af4c477a1c2bb9251342fa275fc29796",
            "revertMessage": "",
            "sender": "0xd2ca57e298e76483548b7293b59522b210063209",
            "simulationEnable": true,
            "sourceTxnHash": "0x5cfdb47bc1c5590cd9ecb37146fc2e470776aa782cfe95af0cdf95b17d79df03",
            "status": true,
            "timestamp": "2023-03-20T22:01:35Z",
            "transactionFee": "0.004825807786061966",
            "txnHash": "0x5cfdb47bc1c5590cd9ecb37146fc2e470776aa782cfe95af0cdf95b17d79df03",
            "txnIndex": 165,
            "type": 2,
            "value": "0"
        },
        "fund_flow": [
            {
                "amount": "1",
                "from": "0x0000000000000000000000000000000000000000",
                "id": 1,
                "isERC1155": false,
                "isERC721": true,
                "isReverted": false,
                "order": 1,
                "to": "0xd2ca57e298e76483548b7293b59522b210063209",
                "token": "0x76e44f07af4c477a1c2bb9251342fa275fc29796",
                "tokenID": "4104"
            }
        ],
        "token_infos": [
            {
                "address": "0xc02aaa39b223fe8d0a0e5c4f27ead9083c756cc2",
                "decimals": 18
            },
            {
                "address": "0xeeeeeeeeeeeeeeeeeeeeeeeeeeeeeeeeeeeeeeee",
                "decimals": 18
            }
        ]
    },
    "address_label": {
        "labels": [
            {
                "address": "0x0000000000000000000000000000000000000003",
                "label": "Precompiled"
            },
            {
                "address": "0x0000000000000000000000000000000000000004",
                "label": "Precompiled"
            },
            {
                "address": "0xeeeeeeeeeeeeeeeeeeeeeeeeeeeeeeeeeeeeeeee",
                "label": "Ether"
            },
            {
                "address": "0x76e44f07af4c477a1c2bb9251342fa275fc29796",
                "label": "Legendary: Heroes Unchained Loyalt... (legendary...)"
            },
            {
                "address": "0x0000000000000000000000000000000000000001",
                "label": "Precompiled"
            },
            {
                "address": "0x0000000000000000000000000000000000000002",
                "label": "Precompiled"
            }
        ]
    },
    "trace": {
        "accountLabels": null,
        "dataMap": {
            "-1": {
                "invocation": {
                    "address": "0xd2ca57e298e76483548b7293b59522b210063209",
                    "callData": "",
                    "decodedMethod": null,
                    "errorInfo": "",
                    "fromAddress": "",
                    "gasUsed": 0,
                    "id": -1,
                    "methodDecoded": false,
                    "operation": "",
                    "output": "",
                    "revert": false,
                    "revertMessage": "",
                    "selector": "",
                    "status": false,
                    "value": ""
                },
                "nodeType": 0
            },
            "0": {
                "invocation": {
                    "address": "0x76e44f07af4c477a1c2bb9251342fa275fc29796",
                    "callData": "0x00000000000000000000000000000000000000000000000000000000000000010000000000000000000000000000000000000000000000000000000000000080000000000000000000000000000000000000000000000000000000006418d76f00000000000000000000000000000000000000000000000000000000000000a0000000000000000000000000000000000000000000000000000000000000000000000000000000000000000000000000000000000000000000000000000000417d09e2b38a2c8ee2e1450c78656ed2a3b59285f4b80e7e667be2961c8efc50a128dc86ca7e0a8e59492f1c5cc961d40f469ed3e0aff9a63162449ee35343fb4c1c00000000000000000000000000000000000000000000000000000000000000",
                    "decodedMethod": {
                        "callParams": [
                            {
                                "name": "qty",
                                "type": "uint32",
                                "value": "1"
                            },
                            {
                                "name": "proof",
                                "type": "bytes32[]",
                                "value": []
                            },
                            {
                                "name": "timestamp",
                                "type": "uint64",
                                "value": "1,679,349,615"
                            },
                            {
                                "name": "signature",
                                "type": "bytes",
                                "value": "0x7d09e2b38a2c8ee2e1450c78656ed2a3b59285f4b80e7e667be2961c8efc50a128dc86ca7e0a8e59492f1c5cc961d40f469ed3e0aff9a63162449ee35343fb4c1c"
                            }
                        ],
                        "constructorArguments": "",
                        "name": "mint",
                        "returnParams": [],
                        "signature": "mint(uint32,bytes32[],uint64,bytes)"
                    },
                    "errorInfo": "",
                    "fromAddress": "0xd2ca57e298e76483548b7293b59522b210063209",
                    "gasUsed": 137038,
                    "id": 0,
                    "methodDecoded": true,
                    "operation": "CALL",
                    "output": "",
                    "revert": false,
                    "revertMessage": "",
                    "selector": "0xefb6b11f",
                    "status": true,
                    "value": "0"
                },
                "nodeType": 0
            },
            "1": {
                "invocation": {
                    "address": "0x0000000000000000000000000000000000000001",
                    "callData": "0xbeae7e5446ab74bbb3646cb816e5fc168f26a70a073e5821ebaba426000000000000000000000000000000000000000000000000000000000000001c7d09e2b38a2c8ee2e1450c78656ed2a3b59285f4b80e7e667be2961c8efc50a128dc86ca7e0a8e59492f1c5cc961d40f469ed3e0aff9a63162449ee35343fb4c",
                    "decodedMethod": {
                        "callParams": [
                            {
                                "name": "hash",
                                "type": "bytes32",
                                "value": "0xa6e04b21beae7e5446ab74bbb3646cb816e5fc168f26a70a073e5821ebaba426"
                            },
                            {
                                "name": "v",
                                "type": "uint256",
                                "value": "28"
                            },
                            {
                                "name": "r",
                                "type": "bytes32",
                                "value": "0x7d09e2b38a2c8ee2e1450c78656ed2a3b59285f4b80e7e667be2961c8efc50a1"
                            },
                            {
                                "name": "s",
                                "type": "bytes32",
                                "value": "0x28dc86ca7e0a8e59492f1c5cc961d40f469ed3e0aff9a63162449ee35343fb4c"
                            }
                        ],
                        "constructorArguments": "",
                        "name": "ecrecover",
                        "returnParams": [
                            {
                                "name": "",
                                "type": "address",
                                "value": "0x194ea7ce80b510d6b872b1d221c6230ebf83bff9"
                            }
                        ],
                        "signature": "ecrecover(bytes32,uint256,bytes32,bytes32)"
                    },
                    "errorInfo": "",
                    "fromAddress": "0x76e44f07af4c477a1c2bb9251342fa275fc29796",
                    "gasUsed": 3000,
                    "id": 1,
                    "methodDecoded": true,
                    "operation": "STATICCALL",
                    "output": "0x000000000000000000000000194ea7ce80b510d6b872b1d221c6230ebf83bff9",
                    "revert": false,
                    "revertMessage": "",
                    "selector": "0xa6e04b21",
                    "status": true,
                    "value": "0"
                },
                "nodeType": 0
            },
            "2": {
                "event": {
                    "contract": "0x76e44f07af4c477a1c2bb9251342fa275fc29796",
                    "decodedLog": {
                        "name": "Transfer",
                        "params": [
                            {
                                "name": "from",
                                "type": "address",
                                "value": "0x0000000000000000000000000000000000000000"
                            },
                            {
                                "name": "to",
                                "type": "address",
                                "value": "0xd2ca57e298e76483548b7293b59522b210063209"
                            },
                            {
                                "decimalAvailable": true,
                                "name": "tokenId",
                                "type": "uint256",
                                "value": "4,104"
                            }
                        ],
                        "signature": "Transfer(address,address,uint256)"
                    },
                    "id": 2,
                    "logData": "0x",
                    "logDecoded": true,
                    "operation": "EVENT",
                    "revert": false,
                    "status": true,
                    "topics": [
                        "0xddf252ad1be2c89b69c2b068fc378daa952ba7f163c4a11628f55a4df523b3ef",
                        "0x0000000000000000000000000000000000000000000000000000000000000000",
                        "0x000000000000000000000000d2ca57e298e76483548b7293b59522b210063209",
                        "0x0000000000000000000000000000000000000000000000000000000000001008"
                    ]
                },
                "nodeType": 1
            }
        },
        "gasFlame": [
            {
                "children": [
                    {
                        "children": [
                            {
                                "children": [],
                                "depth": 0,
                                "name": "Initial Gas",
                                "value": 23092
                            },
                            {
                                "children": [
                                    {
                                        "children": [],
                                        "depth": 1,
                                        "name": "ecrecover",
                                        "value": 3000
                                    }
                                ],
                                "depth": 0,
                                "name": "Executed Gas",
                                "value": 116746
                            }
                        ],
                        "depth": -1,
                        "name": "Actual Gas Used",
                        "value": 137038
                    },
                    {
                        "children": [],
                        "depth": -1,
                        "name": "Refunded Gas",
                        "value": 2800
                    }
                ],
                "depth": -2,
                "name": "Total Gas",
                "value": 139838
            }
        ],
        "isConfirmed": true,
        "mainTrace": [
            {
                "children": [
                    {
                        "children": [
                            {
                                "children": [],
                                "depth": 1,
                                "id": 1,
                                "order": 1
                            },
                            {
                                "children": [],
                                "depth": 1,
                                "id": 2,
                                "order": 2
                            }
                        ],
                        "depth": 0,
                        "id": 0,
                        "order": 0
                    }
                ],
                "depth": -1,
                "id": -1,
                "order": -1
            }
        ],
        "mainTraceNodeCount": 3,
        "parentIdMap": {
            "0": -1,
            "1": 0,
            "2": 0
        },
        "tidyTrace": [
            {
                "children": [
                    {
                        "children": [
                            {
                                "children": [],
                                "depth": 1,
                                "id": 2,
                                "order": 2
                            }
                        ],
                        "depth": 0,
                        "id": 0,
                        "order": 0
                    }
                ],
                "depth": -1,
                "id": -1,
                "order": -1
            }
        ],
        "tidyTraceNodeCount": 2
    },
    "state_change": {
        "stateChanges": [
            {
                "address": "0x76e44f07af4c477a1c2bb9251342fa275fc29796",
                "erc": "ERC-721",
                "slots": [
                    {
                        "current": "0x0000000000000000000000000000000000000000000000000000000000000001",
                        "key": "0xa31d337fdd32e9ab7241b10ecaad54d75a281d5beeef2d09278474f9f5e27b7b",
                        "prev": "0x0000000000000000000000000000000000000000000000000000000000000000"
                    },
                    {
                        "current": "0x0000000000000000000000000000000000000000000000000000000000000305",
                        "key": "0x8e1fee8c88a9e04123b21e90cae2727a7715bf522a1e46eb5934ccd05203a6b2",
                        "prev": "0x0000000000000000000000000000000000000000000000000000000000000304"
                    },
                    {
                        "current": "0x0000000000000000000000000000000000000000000000010000000000000001",
                        "key": "0x34a2cc9050c95dac9898058fe71be0733cbb661eb5b7fbd8d9b9067df6519eb2",
                        "prev": "0x0000000000000000000000000000000000000000000000000000000000000000"
                    },
                    {
                        "current": "0x00000002000000006418d7bfd2ca57e298e76483548b7293b59522b210063209",
                        "key": "0xc0676ef85ae1fd76d1f4f1c3d448603cbb693d253daabff042060c823a8c97fe",
                        "prev": "0x0000000000000000000000000000000000000000000000000000000000000000"
                    },
                    {
                        "current": "0x0000000000000000000000000000000000000000000000000000000000001009",
                        "key": "0x0000000000000000000000000000000000000000000000000000000000000000",
                        "prev": "0x0000000000000000000000000000000000000000000000000000000000001008"
                    }
                ],
                "storageVariables": [
                    {
                        "name": "_stageMintedCounts",
                        "type": "mapping(uint256 => uint256)",
                        "value": {
                            "pairs": [
                                {
                                    "key": "2",
                                    "value": {
                                        "current": "773",
                                        "prev": "772",
                                        "typeTag": 1
                                    }
                                }
                            ],
                            "typeTag": 4
                        }
                    },
                    {
                        "name": "_packedAddressData",
                        "type": "mapping(address => uint256)",
                        "value": {
                            "pairs": [
                                {
                                    "key": "0xd2ca57e298e76483548b7293b59522b210063209",
                                    "value": {
                                        "current": "18446744073709551617",
                                        "prev": "0",
                                        "typeTag": 1
                                    }
                                }
                            ],
                            "typeTag": 4
                        }
                    },
                    {
                        "name": "_packedOwnerships",
                        "type": "mapping(uint256 => uint256)",
                        "value": {
                            "pairs": [
                                {
                                    "key": "4104",
                                    "value": {
                                        "current": "53919893336755651919431083072078274006789249919092277251639112774153",
                                        "prev": "0",
                                        "typeTag": 1
                                    }
                                }
                            ],
                            "typeTag": 4
                        }
                    },
                    {
                        "name": "_currentIndex",
                        "type": "uint256",
                        "value": {
                            "current": "4105",
                            "prev": "4104",
                            "typeTag": 1
                        }
                    },
                    {
                        "name": "_stageMintedCountsPerWallet",
                        "type": "mapping(uint256 => mapping(address => uint32))",
                        "value": {
                            "pairs": [
                                {
                                    "key": "2",
                                    "value": {
                                        "pairs": [
                                            {
                                                "key": "0xd2ca57e298e76483548b7293b59522b210063209",
                                                "value": {
                                                    "current": "1",
                                                    "prev": "0",
                                                    "typeTag": 1
                                                }
                                            }
                                        ],
                                        "typeTag": 4
                                    }
                                }
                            ],
                            "typeTag": 4
                        }
                    }
                ]
            }
        ]
    }
}