{
    "balance_change": {
        "balanceChanges": [
            {
                "account": "0x85506cdc600b6ed4a69e71f35ed2368470c1187b",
                "assets": [
                    {
                        "address": "0xfe5f141bf94fe84bc28ded0ab966c16b17490657",
                        "amount": "20",
                        "iconUrl": "https://assets.blocksec.com/icon/345888971ae3d2cdfb7d685ed7ffbfad3175d1283196e46fee39d9993bfcd2fd.png",
                        "isERC1155": false,
                        "isERC721": false,
                        "sign": false,
                        "value": ""
                    }
                ]
            },
            {
                "account": "0x21db10d4c97aacb57d1b75336abbd388b3c2778d",
                "assets": [
                    {
                        "address": "0xfe5f141bf94fe84bc28ded0ab966c16b17490657",
                        "amount": "20",
                        "iconUrl": "https://assets.blocksec.com/icon/345888971ae3d2cdfb7d685ed7ffbfad3175d1283196e46fee39d9993bfcd2fd.png",
                        "isERC1155": false,
                        "isERC721": false,
                        "sign": true,
                        "value": ""
                    }
                ]
            }
        ]
    },
    "profile": {
        "basic_info": {
            "baseFee": "",
            "blockNumber": 5694213,
            "callData": "0xa9059cbb00000000000000000000000021db10d4c97aacb57d1b75336abbd388b3c2778d000000000000000000000000000000000000000000000001158e460913d00000",
            "debugEnable": true,
            "errorInfo": "",
            "eventCount": 1,
            "feeRecipient": "0xb2930b35844a230f00e51431acae96fe543a0347",
            "formatValue": "0",
            "gasLimit": 72000,
            "gasPrice": "9.1",
            "gasUsed": 21925,
            "intTxnCount": 0,
            "internalRevert": false,
            "internalRevertMessage": "",
            "isContractCreation": false,
            "isFlashloan": false,
            "maxFee": "",
            "nonce": 0,
            "overwritedBlockNumber": -1,
            "priorityFee": "",
            "receiver": "0xfe5f141bf94fe84bc28ded0ab966c16b17490657",
            "revertMessage": "",
            "sender": "0x85506cdc600b6ed4a69e71f35ed2368470c1187b",
            "simulationEnable": true,
            "sourceTxnHash": "0x5cafad4cf7961ce795b993d4a031415927ffbd84f09d48d6a6a6065004958cca",
            "status": true,
            "timestamp": "2018-05-29T00:41:39Z",
            "transactionFee": "0.0001995175",
            "txnHash": "0x5cafad4cf7961ce795b993d4a031415927ffbd84f09d48d6a6a6065004958cca",
            "txnIndex": 60,
            "type": 0,
            "value": "0"
        },
        "fund_flow": [
            {
                "amount": "20",
                "from": "0x85506cdc600b6ed4a69e71f35ed2368470c1187b",
                "id": 1,
                "isERC1155": false,
                "isERC721": false,
                "isReverted": false,
                "order": 1,
                "to": "0x21db10d4c97aacb57d1b75336abbd388b3c2778d",
                "token": "0xfe5f141bf94fe84bc28ded0ab966c16b17490657"
            }
        ],
        "token_infos": [
            {
                "address": "0xc02aaa39b223fe8d0a0e5c4f27ead9083c756cc2",
                "decimals": 18
            },
            {
                "address": "0xfe5f141bf94fe84bc28ded0ab966c16b17490657",
                "decimals": 18
            },
            {
                "address": "0xeeeeeeeeeeeeeeeeeeeeeeeeeeeeeeeeeeeeeeee",
                "decimals": 18
            }
        ]
    },
    "address_label": {
        "labels": [
            {
                "address": "0x0000000000000000000000000000000000000003",
                "label": "Precompiled"
            },
            {
                "address": "0x0000000000000000000000000000000000000004",
                "label": "Precompiled"
            },
            {
                "address": "0xeeeeeeeeeeeeeeeeeeeeeeeeeeeeeeeeeeeeeeee",
                "label": "Ether"
            },
            {
                "address": "0xfe5f141bf94fe84bc28ded0ab966c16b17490657",
                "label": "LBA Token"
            },
            {
                "address": "0x0000000000000000000000000000000000000001",
                "label": "Precompiled"
            },
            {
                "address": "0x0000000000000000000000000000000000000002",
                "label": "Precompiled"
            }
        ]
    },
    "trace": {
        "accountLabels": null,
        "dataMap": {
            "-1": {
                "invocation": {
                    "address": "0x85506cdc600b6ed4a69e71f35ed2368470c1187b",
                    "callData": "",
                    "decodedMethod": null,
                    "errorInfo": "",
                    "fromAddress": "",
                    "gasUsed": 0,
                    "id": -1,
                    "methodDecoded": false,
                    "operation": "",
                    "output": "",
                    "revert": false,
                    "revertMessage": "",
                    "selector": "",
                    "status": false,
                    "value": ""
                },
                "nodeType": 0
            },
            "0": {
                "invocation": {
                    "address": "0xfe5f141bf94fe84bc28ded0ab966c16b17490657",
                    "callData": "0x00000000000000000000000021db10d4c97aacb57d1b75336abbd388b3c2778d000000000000000000000000000000000000000000000001158e460913d00000",
                    "decodedMethod": {
                        "callParams": [
                            {
                                "name": "_to",
                                "type": "address",
                                "value": "0x21db10d4c97aacb57d1b75336abbd388b3c2778d"
                            },
                            {
                                "decimalAvailable": true,
                                "name": "_value",
                                "type": "uint256",
                                "value": "20,000,000,000,000,000,000"
                            }
                        ],
                        "constructorArguments": "",
                        "name": "transfer",
                        "returnParams": [
                            {
                                "name": "",
                                "type": "bool",
                                "value": true
                            }
                        ],
                        "signature": "transfer(address,uint256)"
                    },
                    "errorInfo": "",
                    "fromAddress": "0x85506cdc600b6ed4a69e71f35ed2368470c1187b",
                    "gasUsed": 21925,
                    "id": 0,
                    "methodDecoded": true,
                    "operation": "CALL",
                    "output": "0x0000000000000000000000000000000000000000000000000000000000000001",
                    "revert": false,
                    "revertMessage": "",
                    "selector": "0xa9059cbb",
                    "status": true,
                    "value": "0"
                },
                "nodeType": 0
            },
            "1": {
                "event": {
                    "contract": "0xfe5f141bf94fe84bc28ded0ab966c16b17490657",
                    "decodedLog": {
                        "name": "Transfer",
                        "params": [
                            {
                                "name": "from",
                                "type": "address",
                                "value": "0x85506cdc600b6ed4a69e71f35ed2368470c1187b"
                            },
                            {
                                "name": "to",
                                "type": "address",
                                "value": "0x21db10d4c97aacb57d1b75336abbd388b3c2778d"
                            },
                            {
                                "decimalAvailable": true,
                                "name": "value",
                                "type": "uint256",
                                "value": "20,000,000,000,000,000,000"
                            }
                        ],
                        "signature": "Transfer(address,address,uint256)"
                    },
                    "id": 1,
                    "logData": "0x000000000000000000000000000000000000000000000001158e460913d00000",
                    "logDecoded": true,
                    "operation": "EVENT",
                    "revert": false,
                    "status": true,
                    "topics": [
                        "0xddf252ad1be2c89b69c2b068fc378daa952ba7f163c4a11628f55a4df523b3ef",
                        "0x00000000000000000000000085506cdc600b6ed4a69e71f35ed2368470c1187b",
                        "0x00000000000000000000000021db10d4c97aacb57d1b75336abbd388b3c2778d"
                    ]
                },
                "nodeType": 1
            }
        },
        "gasFlame": [
            {
                "children": [
                    {
                        "children": [
                            {
                                "children": [],
                                "depth": 0,
                                "name": "Initial Gas",
                                "value": 23256
                            },
                            {
                                "children": [],
                                "depth": 0,
                                "name": "Executed Gas",
                                "value": 13669
                            }
                        ],
                        "depth": -1,
                        "name": "Actual Gas Used",
                        "value": 21925
                    },
                    {
                        "children": [],
                        "depth": -1,
                        "name": "Refunded Gas",
                        "value": 15000
                    }
                ],
                "depth": -2,
                "name": "Total Gas",
                "value": 36925
            }
        ],
        "isConfirmed": true,
        "mainTrace": [
            {
                "children": [
                    {
                        "children": [
                            {
                                "children": [],
                                "depth": 1,
                                "id": 1,
                                "order": 1
                            }
                        ],
                        "depth": 0,
                        "id": 0,
                        "order": 0
                    }
                ],
                "depth": -1,
                "id": -1,
                "order": -1
            }
        ],
        "mainTraceNodeCount": 2,
        "parentIdMap": {
            "0": -1,
            "1": 0
        },
        "tidyTrace": [
            {
                "children": [
                    {
                        "children": [
                            {
                                "children": [],
                                "depth": 1,
                                "id": 1,
                                "order": 1
                            }
                        ],
                        "depth": 0,
                        "id": 0,
                        "order": 0
                    }
                ],
                "depth": -1,
                "id": -1,
                "order": -1
            }
        ],
        "tidyTraceNodeCount": 2
    },
    "state_change": {
        "stateChanges": [
            {
                "address": "0xfe5f141bf94fe84bc28ded0ab966c16b17490657",
                "erc": "ERC-20",
                "slots": [
                    {
                        "current": "0x0000000000000000000000000000000000000000000000000000000000000000",
                        "key": "0x6c7925974029c5031edf49e6311650346c97029281941511a9a805a90a098172",
                        "prev": "0x000000000000000000000000000000000000000000000001158e460913d00000"
                    },
                    {
                        "current": "0x000000000000000000000000000000000000000000000143179d869110200000",
                        "key": "0x4bdddce3b1005679d0e1de8c6b9d75336e27fe4c2bb00053a6cd83f32831debd",
                        "prev": "0x000000000000000000000000000000000000000000000142020f4087fc500000"
                    }
                ],
                "storageVariables": [
                    {
                        "name": "balances",
                        "type": "mapping(address => uint256)",
                        "value": {
                            "pairs": [
                                {
                                    "key": "0x21db10d4c97aacb57d1b75336abbd388b3c2778d",
                                    "value": {
                                        "current": "5960000000000000000000",
                                        "prev": "5940000000000000000000",
                                        "typeTag": 1
                                    }
                                },
                                {
                                    "key": "0x85506cdc600b6ed4a69e71f35ed2368470c1187b",
                                    "value": {
                                        "current": "0",
                                        "prev": "20000000000000000000",
                                        "typeTag": 1
                                    }
                                }
                            ],
                            "typeTag": 4
                        }
                    }
                ]
            }
        ]
    }
}