{
    "balance_change": {
        "balanceChanges": [
            {
                "account": "0x4f3992b7f23e5ed4beb7571a8fa41d83fe17130f",
                "assets": [
                    {
                        "address": "0x3e716a958c185f2ba10f5951566bea740f4e892e",
                        "amount": "97,400",
                        "iconUrl": "",
                        "isERC1155": false,
                        "isERC721": false,
                        "sign": false,
                        "value": ""
                    }
                ]
            },
            {
                "account": "0xc1fda0db2e96fb715fd07a27001b543b31b9da1f",
                "assets": [
                    {
                        "address": "0x3e716a958c185f2ba10f5951566bea740f4e892e",
                        "amount": "97,400",
                        "iconUrl": "",
                        "isERC1155": false,
                        "isERC721": false,
                        "sign": true,
                        "value": ""
                    }
                ]
            }
        ]
    },
    "profile": {
        "basic_info": {
            "baseFee": "",
            "blockNumber": 6652487,
            "callData": "0xa9059cbb000000000000000000000000c1fda0db2e96fb715fd07a27001b543b31b9da1f0000000000000000000000000000000000000000000014a0108850aee6e00000",
            "debugEnable": true,
            "errorInfo": "",
            "eventCount": 1,
            "feeRecipient": "0xea674fdde714fd979de3edf0f56aa9716b898ec8",
            "formatValue": "0",
            "gasLimit": 120000,
            "gasPrice": "80",
            "gasUsed": 53449,
            "intTxnCount": 0,
            "internalRevert": false,
            "internalRevertMessage": "",
            "isContractCreation": false,
            "isFlashloan": false,
            "maxFee": "",
            "nonce": 2605,
            "overwritedBlockNumber": -1,
            "priorityFee": "",
            "receiver": "0x3e716a958c185f2ba10f5951566bea740f4e892e",
            "revertMessage": "",
            "sender": "0x4f3992b7f23e5ed4beb7571a8fa41d83fe17130f",
            "simulationEnable": true,
            "sourceTxnHash": "0x5cf82f4ff8699e308ab5bf6b2a8dea3b141b605c545e882c15efd8c181ae4dac",
            "status": true,
            "timestamp": "2018-11-06T06:17:32Z",
            "transactionFee": "0.00427592",
            "txnHash": "0x5cf82f4ff8699e308ab5bf6b2a8dea3b141b605c545e882c15efd8c181ae4dac",
            "txnIndex": 49,
            "type": 0,
            "value": "0"
        },
        "fund_flow": [
            {
                "amount": "97,400",
                "from": "0x4f3992b7f23e5ed4beb7571a8fa41d83fe17130f",
                "id": 1,
                "isERC1155": false,
                "isERC721": false,
                "isReverted": false,
                "order": 1,
                "to": "0xc1fda0db2e96fb715fd07a27001b543b31b9da1f",
                "token": "0x3e716a958c185f2ba10f5951566bea740f4e892e"
            }
        ],
        "token_infos": [
            {
                "address": "0x3e716a958c185f2ba10f5951566bea740f4e892e",
                "decimals": 18
            },
            {
                "address": "0xc02aaa39b223fe8d0a0e5c4f27ead9083c756cc2",
                "decimals": 18
            },
            {
                "address": "0xeeeeeeeeeeeeeeeeeeeeeeeeeeeeeeeeeeeeeeee",
                "decimals": 18
            }
        ]
    },
    "address_label": {
        "labels": [
            {
                "address": "0xeeeeeeeeeeeeeeeeeeeeeeeeeeeeeeeeeeeeeeee",
                "label": "Ether"
            },
            {
                "address": "0x3e716a958c185f2ba10f5951566bea740f4e892e",
                "label": "DCEGL (DCEGL)"
            },
            {
                "address": "0x0000000000000000000000000000000000000001",
                "label": "Precompiled"
            },
            {
                "address": "0x0000000000000000000000000000000000000002",
                "label": "Precompiled"
            },
            {
                "address": "0x0000000000000000000000000000000000000003",
                "label": "Precompiled"
            },
            {
                "address": "0x0000000000000000000000000000000000000004",
                "label": "Precompiled"
            }
        ]
    },
    "trace": {
        "accountLabels": null,
        "dataMap": {
            "-1": {
                "invocation": {
                    "address": "0x4f3992b7f23e5ed4beb7571a8fa41d83fe17130f",
                    "callData": "",
                    "decodedMethod": null,
                    "errorInfo": "",
                    "fromAddress": "",
                    "gasUsed": 0,
                    "id": -1,
                    "methodDecoded": false,
                    "operation": "",
                    "output": "",
                    "revert": false,
                    "revertMessage": "",
                    "selector": "",
                    "status": false,
                    "value": ""
                },
                "nodeType": 0
            },
            "0": {
                "invocation": {
                    "address": "0x3e716a958c185f2ba10f5951566bea740f4e892e",
                    "callData": "0x000000000000000000000000c1fda0db2e96fb715fd07a27001b543b31b9da1f0000000000000000000000000000000000000000000014a0108850aee6e00000",
                    "decodedMethod": {
                        "callParams": [
                            {
                                "name": "_to",
                                "type": "address",
                                "value": "0xc1fda0db2e96fb715fd07a27001b543b31b9da1f"
                            },
                            {
                                "decimalAvailable": true,
                                "name": "_value",
                                "type": "uint256",
                                "value": "97,400,000,000,000,000,000,000"
                            }
                        ],
                        "constructorArguments": "",
                        "name": "transfer",
                        "returnParams": [],
                        "signature": "transfer(address,uint256)"
                    },
                    "errorInfo": "",
                    "fromAddress": "0x4f3992b7f23e5ed4beb7571a8fa41d83fe17130f",
                    "gasUsed": 53449,
                    "id": 0,
                    "methodDecoded": true,
                    "operation": "CALL",
                    "output": "",
                    "revert": false,
                    "revertMessage": "",
                    "selector": "0xa9059cbb",
                    "status": true,
                    "value": "0"
                },
                "nodeType": 0
            },
            "1": {
                "event": {
                    "contract": "0x3e716a958c185f2ba10f5951566bea740f4e892e",
                    "decodedLog": {
                        "name": "Transfer",
                        "params": [
                            {
                                "name": "from",
                                "type": "address",
                                "value": "0x4f3992b7f23e5ed4beb7571a8fa41d83fe17130f"
                            },
                            {
                                "name": "to",
                                "type": "address",
                                "value": "0xc1fda0db2e96fb715fd07a27001b543b31b9da1f"
                            },
                            {
                                "decimalAvailable": true,
                                "name": "value",
                                "type": "uint256",
                                "value": "97,400,000,000,000,000,000,000"
                            }
                        ],
                        "signature": "Transfer(address,address,uint256)"
                    },
                    "id": 1,
                    "logData": "0x0000000000000000000000000000000000000000000014a0108850aee6e00000",
                    "logDecoded": true,
                    "operation": "EVENT",
                    "revert": false,
                    "status": true,
                    "topics": [
                        "0xddf252ad1be2c89b69c2b068fc378daa952ba7f163c4a11628f55a4df523b3ef",
                        "0x0000000000000000000000004f3992b7f23e5ed4beb7571a8fa41d83fe17130f",
                        "0x000000000000000000000000c1fda0db2e96fb715fd07a27001b543b31b9da1f"
                    ]
                },
                "nodeType": 1
            }
        },
        "gasFlame": [
            {
                "children": [
                    {
                        "children": [
                            {
                                "children": [],
                                "depth": 0,
                                "name": "Initial Gas",
                                "value": 23256
                            },
                            {
                                "children": [],
                                "depth": 0,
                                "name": "Executed Gas",
                                "value": 30193
                            }
                        ],
                        "depth": -1,
                        "name": "Actual Gas Used",
                        "value": 53449
                    },
                    {
                        "children": [],
                        "depth": -1,
                        "name": "Refunded Gas",
                        "value": 0
                    }
                ],
                "depth": -2,
                "name": "Total Gas",
                "value": 53449
            }
        ],
        "isConfirmed": true,
        "mainTrace": [
            {
                "children": [
                    {
                        "children": [
                            {
                                "children": [],
                                "depth": 1,
                                "id": 1,
                                "order": 1
                            }
                        ],
                        "depth": 0,
                        "id": 0,
                        "order": 0
                    }
                ],
                "depth": -1,
                "id": -1,
                "order": -1
            }
        ],
        "mainTraceNodeCount": 2,
        "parentIdMap": {
            "0": -1,
            "1": 0
        },
        "tidyTrace": [
            {
                "children": [
                    {
                        "children": [
                            {
                                "children": [],
                                "depth": 1,
                                "id": 1,
                                "order": 1
                            }
                        ],
                        "depth": 0,
                        "id": 0,
                        "order": 0
                    }
                ],
                "depth": -1,
                "id": -1,
                "order": -1
            }
        ],
        "tidyTraceNodeCount": 2
    },
    "state_change": {
        "stateChanges": [
            {
                "address": "0x3e716a958c185f2ba10f5951566bea740f4e892e",
                "erc": "ERC-20",
                "slots": [
                    {
                        "current": "0x0000000000000000000000000000000000000000001454156cc40ccfdb3af000",
                        "key": "0xcc904e43d845706c6f187f26348c2b8a1f476e24681129f82b917110298fd63b",
                        "prev": "0x0000000000000000000000000000000000000000001468b57d4c5d7ec21af000"
                    },
                    {
                        "current": "0x0000000000000000000000000000000000000000000014a0108850aee6e00000",
                        "key": "0x82c6cfc9f3232ae3756751e1ce65e149aee9586460613c130abe1cbf7e84a80e",
                        "prev": "0x0000000000000000000000000000000000000000000000000000000000000000"
                    }
                ],
                "storageVariables": [
                    {
                        "name": "balanceOf",
                        "type": "mapping(address => uint256)",
                        "value": {
                            "pairs": [
                                {
                                    "key": "0x4f3992b7f23e5ed4beb7571a8fa41d83fe17130f",
                                    "value": {
                                        "current": "24575590395882520000000000",
                                        "prev": "24672990395882520000000000",
                                        "typeTag": 1
                                    }
                                },
                                {
                                    "key": "0xc1fda0db2e96fb715fd07a27001b543b31b9da1f",
                                    "value": {
                                        "current": "97400000000000000000000",
                                        "prev": "0",
                                        "typeTag": 1
                                    }
                                }
                            ],
                            "typeTag": 4
                        }
                    }
                ]
            }
        ]
    }
}